{
  "_format": "hh-sol-artifact-1",
  "contractName": "BalancerErrorsMock",
  "sourceName": "contracts/balancer-core-v2/test/lib/BalancerErrorsMock.sol",
  "abi": [
    {
      "inputs": [
        {
          "internalType": "bytes32",
          "name": "c__0xb896bbc8",
          "type": "bytes32"
        }
      ],
      "name": "c_0xb896bbc8",
      "outputs": [],
      "stateMutability": "pure",
      "type": "function"
    },
    {
      "inputs": [
        {
          "internalType": "uint256",
          "name": "code",
          "type": "uint256"
        }
      ],
      "name": "fail",
      "outputs": [],
      "stateMutability": "pure",
      "type": "function"
    }
  ],
  "bytecode": "0x608060405234801561001057600080fd5b506101d0806100206000396000f3fe608060405234801561001057600080fd5b50600436106100365760003560e01c8063132e4f3c1461003b57806344fd763314610069575b600080fd5b6100676004803603602081101561005157600080fd5b8101908080359060200190929190505050610097565b005b6100956004803603602081101561007f57600080fd5b8101908080359060200190929190505050610127565b005b6100c37f7e0c340d24d8b8ba3866ce1c5e112f53356bc0279fd3ec0c189733a27bcf229060001b610127565b6100ef7fb65769cb5a83c3558e2439f8aa9b3c3cbc371aac7c173ab065004baa6af7101560001b610127565b61011b7f1f1a90c56250230270ded9fd58606bc17d517561e2ee9567978d3829e9da835f60001b610127565b6101248161012a565b50565b50565b6030600a820601600a820491506030600a830601600a830492506030600a8406018060101b8260081b8401016642414c230000000160c81b7f08c379a000000000000000000000000000000000000000000000000000000000600052602060045260076024528060445260646000fdfea2646970667358221220ad5609d4328820637fe9bb04e63c593bdb3862ae99b314a626869e65f3c865b164736f6c63430007010033",
  "linkReferences": {},
  "deployedLinkReferences": {}
}