{
  "_format": "hh-sol-artifact-1",
  "contractName": "BalancerErrorsMock",
  "sourceName": "contracts/balancer-core-v2/test/lib/BalancerErrorsMock.sol",
  "abi": [
    {
      "inputs": [
        {
          "internalType": "bytes32",
          "name": "c__0x26bdc0b1",
          "type": "bytes32"
        }
      ],
      "name": "c_0x26bdc0b1",
      "outputs": [],
      "stateMutability": "pure",
      "type": "function"
    },
    {
      "inputs": [
        {
          "internalType": "uint256",
          "name": "code",
          "type": "uint256"
        }
      ],
      "name": "fail",
      "outputs": [],
      "stateMutability": "pure",
      "type": "function"
    }
  ],
  "bytecode": "0x608060405234801561001057600080fd5b506101d0806100206000396000f3fe608060405234801561001057600080fd5b50600436106100365760003560e01c8063132e4f3c1461003b578063c775997314610069575b600080fd5b6100676004803603602081101561005157600080fd5b8101908080359060200190929190505050610097565b005b6100956004803603602081101561007f57600080fd5b8101908080359060200190929190505050610127565b005b6100c37f5a2cc128a7a08f1e1a7a9a5be5b3d9d45cf4f1d3f15f6eaf9b51e897a3756d6a60001b610127565b6100ef7fdf2e91335c994c7689fb079bb26a2d7f032acc2f70ca749ca5f2b38a7abe6c0360001b610127565b61011b7fc2da87a23f1af8bcb31434d6ecac3051be44ff8e663eedb46016d87ec5a6b48360001b610127565b6101248161012a565b50565b50565b6030600a820601600a820491506030600a830601600a830492506030600a8406018060101b8260081b8401016642414c230000000160c81b7f08c379a000000000000000000000000000000000000000000000000000000000600052602060045260076024528060445260646000fdfea26469706673582212209e57771b01ac917d7cd30237ef1a036069a51e336b5737987c260ebed0f70e8d64736f6c63430007010033",
  "linkReferences": {},
  "deployedLinkReferences": {}
}