{
  "_format": "hh-sol-artifact-1",
  "contractName": "MockBasePool",
  "sourceName": "contracts/balancer-core-v2/test/MockBasePool.sol",
  "abi": [
    {
      "inputs": [
        {
          "internalType": "contract IVault",
          "name": "vault",
          "type": "address"
        },
        {
          "internalType": "enum IVault.PoolSpecialization",
          "name": "specialization",
          "type": "uint8"
        },
        {
          "internalType": "string",
          "name": "name",
          "type": "string"
        },
        {
          "internalType": "string",
          "name": "symbol",
          "type": "string"
        },
        {
          "internalType": "contract IERC20[]",
          "name": "tokens",
          "type": "address[]"
        },
        {
          "internalType": "uint256",
          "name": "swapFeePercentage",
          "type": "uint256"
        },
        {
          "internalType": "uint256",
          "name": "pauseWindowDuration",
          "type": "uint256"
        },
        {
          "internalType": "uint256",
          "name": "bufferPeriodDuration",
          "type": "uint256"
        },
        {
          "internalType": "address",
          "name": "owner",
          "type": "address"
        }
      ],
      "stateMutability": "nonpayable",
      "type": "constructor"
    },
    {
      "anonymous": false,
      "inputs": [
        {
          "indexed": true,
          "internalType": "address",
          "name": "owner",
          "type": "address"
        },
        {
          "indexed": true,
          "internalType": "address",
          "name": "spender",
          "type": "address"
        },
        {
          "indexed": false,
          "internalType": "uint256",
          "name": "value",
          "type": "uint256"
        }
      ],
      "name": "Approval",
      "type": "event"
    },
    {
      "anonymous": false,
      "inputs": [
        {
          "indexed": false,
          "internalType": "bool",
          "name": "paused",
          "type": "bool"
        }
      ],
      "name": "PausedStateChanged",
      "type": "event"
    },
    {
      "anonymous": false,
      "inputs": [
        {
          "indexed": false,
          "internalType": "uint256",
          "name": "swapFeePercentage",
          "type": "uint256"
        }
      ],
      "name": "SwapFeePercentageChanged",
      "type": "event"
    },
    {
      "anonymous": false,
      "inputs": [
        {
          "indexed": true,
          "internalType": "address",
          "name": "from",
          "type": "address"
        },
        {
          "indexed": true,
          "internalType": "address",
          "name": "to",
          "type": "address"
        },
        {
          "indexed": false,
          "internalType": "uint256",
          "name": "value",
          "type": "uint256"
        }
      ],
      "name": "Transfer",
      "type": "event"
    },
    {
      "inputs": [],
      "name": "DOMAIN_SEPARATOR",
      "outputs": [
        {
          "internalType": "bytes32",
          "name": "",
          "type": "bytes32"
        }
      ],
      "stateMutability": "view",
      "type": "function"
    },
    {
      "inputs": [
        {
          "internalType": "address",
          "name": "owner",
          "type": "address"
        },
        {
          "internalType": "address",
          "name": "spender",
          "type": "address"
        }
      ],
      "name": "allowance",
      "outputs": [
        {
          "internalType": "uint256",
          "name": "",
          "type": "uint256"
        }
      ],
      "stateMutability": "view",
      "type": "function"
    },
    {
      "inputs": [
        {
          "internalType": "address",
          "name": "spender",
          "type": "address"
        },
        {
          "internalType": "uint256",
          "name": "amount",
          "type": "uint256"
        }
      ],
      "name": "approve",
      "outputs": [
        {
          "internalType": "bool",
          "name": "",
          "type": "bool"
        }
      ],
      "stateMutability": "nonpayable",
      "type": "function"
    },
    {
      "inputs": [
        {
          "internalType": "address",
          "name": "account",
          "type": "address"
        }
      ],
      "name": "balanceOf",
      "outputs": [
        {
          "internalType": "uint256",
          "name": "",
          "type": "uint256"
        }
      ],
      "stateMutability": "view",
      "type": "function"
    },
    {
      "inputs": [
        {
          "internalType": "bytes32",
          "name": "c__0x28684d28",
          "type": "bytes32"
        }
      ],
      "name": "c_0x28684d28",
      "outputs": [],
      "stateMutability": "pure",
      "type": "function"
    },
    {
      "inputs": [
        {
          "internalType": "bytes32",
          "name": "c__0x45bc056e",
          "type": "bytes32"
        }
      ],
      "name": "c_0x45bc056e",
      "outputs": [],
      "stateMutability": "pure",
      "type": "function"
    },
    {
      "inputs": [
        {
          "internalType": "bytes32",
          "name": "c__0x4963a790",
          "type": "bytes32"
        }
      ],
      "name": "c_0x4963a790",
      "outputs": [],
      "stateMutability": "pure",
      "type": "function"
    },
    {
      "inputs": [
        {
          "internalType": "bytes32",
          "name": "c__0x4c26eefc",
          "type": "bytes32"
        }
      ],
      "name": "c_0x4c26eefc",
      "outputs": [],
      "stateMutability": "pure",
      "type": "function"
    },
    {
      "inputs": [
        {
          "internalType": "bytes32",
          "name": "c__0x6ba1b38b",
          "type": "bytes32"
        }
      ],
      "name": "c_0x6ba1b38b",
      "outputs": [],
      "stateMutability": "pure",
      "type": "function"
    },
    {
      "inputs": [
        {
          "internalType": "bytes32",
          "name": "c__0xbf0cfa36",
          "type": "bytes32"
        }
      ],
      "name": "c_0xbf0cfa36",
      "outputs": [],
      "stateMutability": "pure",
      "type": "function"
    },
    {
      "inputs": [
        {
          "internalType": "bytes32",
          "name": "c__0xc3d2df53",
          "type": "bytes32"
        }
      ],
      "name": "c_0xc3d2df53",
      "outputs": [],
      "stateMutability": "pure",
      "type": "function"
    },
    {
      "inputs": [],
      "name": "decimals",
      "outputs": [
        {
          "internalType": "uint8",
          "name": "",
          "type": "uint8"
        }
      ],
      "stateMutability": "pure",
      "type": "function"
    },
    {
      "inputs": [
        {
          "internalType": "address",
          "name": "spender",
          "type": "address"
        },
        {
          "internalType": "uint256",
          "name": "amount",
          "type": "uint256"
        }
      ],
      "name": "decreaseApproval",
      "outputs": [
        {
          "internalType": "bool",
          "name": "",
          "type": "bool"
        }
      ],
      "stateMutability": "nonpayable",
      "type": "function"
    },
    {
      "inputs": [
        {
          "internalType": "bytes4",
          "name": "selector",
          "type": "bytes4"
        }
      ],
      "name": "getActionId",
      "outputs": [
        {
          "internalType": "bytes32",
          "name": "",
          "type": "bytes32"
        }
      ],
      "stateMutability": "view",
      "type": "function"
    },
    {
      "inputs": [],
      "name": "getAuthorizer",
      "outputs": [
        {
          "internalType": "contract IAuthorizer",
          "name": "",
          "type": "address"
        }
      ],
      "stateMutability": "view",
      "type": "function"
    },
    {
      "inputs": [],
      "name": "getOwner",
      "outputs": [
        {
          "internalType": "address",
          "name": "",
          "type": "address"
        }
      ],
      "stateMutability": "view",
      "type": "function"
    },
    {
      "inputs": [],
      "name": "getPausedState",
      "outputs": [
        {
          "internalType": "bool",
          "name": "paused",
          "type": "bool"
        },
        {
          "internalType": "uint256",
          "name": "pauseWindowEndTime",
          "type": "uint256"
        },
        {
          "internalType": "uint256",
          "name": "bufferPeriodEndTime",
          "type": "uint256"
        }
      ],
      "stateMutability": "view",
      "type": "function"
    },
    {
      "inputs": [],
      "name": "getPoolId",
      "outputs": [
        {
          "internalType": "bytes32",
          "name": "",
          "type": "bytes32"
        }
      ],
      "stateMutability": "view",
      "type": "function"
    },
    {
      "inputs": [],
      "name": "getSwapFeePercentage",
      "outputs": [
        {
          "internalType": "uint256",
          "name": "",
          "type": "uint256"
        }
      ],
      "stateMutability": "view",
      "type": "function"
    },
    {
      "inputs": [],
      "name": "getVault",
      "outputs": [
        {
          "internalType": "contract IVault",
          "name": "",
          "type": "address"
        }
      ],
      "stateMutability": "view",
      "type": "function"
    },
    {
      "inputs": [
        {
          "internalType": "address",
          "name": "spender",
          "type": "address"
        },
        {
          "internalType": "uint256",
          "name": "amount",
          "type": "uint256"
        }
      ],
      "name": "increaseApproval",
      "outputs": [
        {
          "internalType": "bool",
          "name": "",
          "type": "bool"
        }
      ],
      "stateMutability": "nonpayable",
      "type": "function"
    },
    {
      "inputs": [],
      "name": "name",
      "outputs": [
        {
          "internalType": "string",
          "name": "",
          "type": "string"
        }
      ],
      "stateMutability": "view",
      "type": "function"
    },
    {
      "inputs": [
        {
          "internalType": "address",
          "name": "owner",
          "type": "address"
        }
      ],
      "name": "nonces",
      "outputs": [
        {
          "internalType": "uint256",
          "name": "",
          "type": "uint256"
        }
      ],
      "stateMutability": "view",
      "type": "function"
    },
    {
      "inputs": [
        {
          "internalType": "bytes32",
          "name": "poolId",
          "type": "bytes32"
        },
        {
          "internalType": "address",
          "name": "sender",
          "type": "address"
        },
        {
          "internalType": "address",
          "name": "recipient",
          "type": "address"
        },
        {
          "internalType": "uint256[]",
          "name": "balances",
          "type": "uint256[]"
        },
        {
          "internalType": "uint256",
          "name": "lastChangeBlock",
          "type": "uint256"
        },
        {
          "internalType": "uint256",
          "name": "protocolSwapFeePercentage",
          "type": "uint256"
        },
        {
          "internalType": "bytes",
          "name": "userData",
          "type": "bytes"
        }
      ],
      "name": "onExitPool",
      "outputs": [
        {
          "internalType": "uint256[]",
          "name": "",
          "type": "uint256[]"
        },
        {
          "internalType": "uint256[]",
          "name": "",
          "type": "uint256[]"
        }
      ],
      "stateMutability": "nonpayable",
      "type": "function"
    },
    {
      "inputs": [
        {
          "internalType": "bytes32",
          "name": "poolId",
          "type": "bytes32"
        },
        {
          "internalType": "address",
          "name": "sender",
          "type": "address"
        },
        {
          "internalType": "address",
          "name": "recipient",
          "type": "address"
        },
        {
          "internalType": "uint256[]",
          "name": "balances",
          "type": "uint256[]"
        },
        {
          "internalType": "uint256",
          "name": "lastChangeBlock",
          "type": "uint256"
        },
        {
          "internalType": "uint256",
          "name": "protocolSwapFeePercentage",
          "type": "uint256"
        },
        {
          "internalType": "bytes",
          "name": "userData",
          "type": "bytes"
        }
      ],
      "name": "onJoinPool",
      "outputs": [
        {
          "internalType": "uint256[]",
          "name": "",
          "type": "uint256[]"
        },
        {
          "internalType": "uint256[]",
          "name": "",
          "type": "uint256[]"
        }
      ],
      "stateMutability": "nonpayable",
      "type": "function"
    },
    {
      "inputs": [
        {
          "internalType": "address",
          "name": "owner",
          "type": "address"
        },
        {
          "internalType": "address",
          "name": "spender",
          "type": "address"
        },
        {
          "internalType": "uint256",
          "name": "value",
          "type": "uint256"
        },
        {
          "internalType": "uint256",
          "name": "deadline",
          "type": "uint256"
        },
        {
          "internalType": "uint8",
          "name": "v",
          "type": "uint8"
        },
        {
          "internalType": "bytes32",
          "name": "r",
          "type": "bytes32"
        },
        {
          "internalType": "bytes32",
          "name": "s",
          "type": "bytes32"
        }
      ],
      "name": "permit",
      "outputs": [],
      "stateMutability": "nonpayable",
      "type": "function"
    },
    {
      "inputs": [
        {
          "internalType": "bytes32",
          "name": "poolId",
          "type": "bytes32"
        },
        {
          "internalType": "address",
          "name": "sender",
          "type": "address"
        },
        {
          "internalType": "address",
          "name": "recipient",
          "type": "address"
        },
        {
          "internalType": "uint256[]",
          "name": "balances",
          "type": "uint256[]"
        },
        {
          "internalType": "uint256",
          "name": "lastChangeBlock",
          "type": "uint256"
        },
        {
          "internalType": "uint256",
          "name": "protocolSwapFeePercentage",
          "type": "uint256"
        },
        {
          "internalType": "bytes",
          "name": "userData",
          "type": "bytes"
        }
      ],
      "name": "queryExit",
      "outputs": [
        {
          "internalType": "uint256",
          "name": "bptIn",
          "type": "uint256"
        },
        {
          "internalType": "uint256[]",
          "name": "amountsOut",
          "type": "uint256[]"
        }
      ],
      "stateMutability": "nonpayable",
      "type": "function"
    },
    {
      "inputs": [
        {
          "internalType": "bytes32",
          "name": "poolId",
          "type": "bytes32"
        },
        {
          "internalType": "address",
          "name": "sender",
          "type": "address"
        },
        {
          "internalType": "address",
          "name": "recipient",
          "type": "address"
        },
        {
          "internalType": "uint256[]",
          "name": "balances",
          "type": "uint256[]"
        },
        {
          "internalType": "uint256",
          "name": "lastChangeBlock",
          "type": "uint256"
        },
        {
          "internalType": "uint256",
          "name": "protocolSwapFeePercentage",
          "type": "uint256"
        },
        {
          "internalType": "bytes",
          "name": "userData",
          "type": "bytes"
        }
      ],
      "name": "queryJoin",
      "outputs": [
        {
          "internalType": "uint256",
          "name": "bptOut",
          "type": "uint256"
        },
        {
          "internalType": "uint256[]",
          "name": "amountsIn",
          "type": "uint256[]"
        }
      ],
      "stateMutability": "nonpayable",
      "type": "function"
    },
    {
      "inputs": [
        {
          "internalType": "bool",
          "name": "paused",
          "type": "bool"
        }
      ],
      "name": "setPaused",
      "outputs": [],
      "stateMutability": "nonpayable",
      "type": "function"
    },
    {
      "inputs": [
        {
          "internalType": "uint256",
          "name": "swapFeePercentage",
          "type": "uint256"
        }
      ],
      "name": "setSwapFeePercentage",
      "outputs": [],
      "stateMutability": "nonpayable",
      "type": "function"
    },
    {
      "inputs": [],
      "name": "symbol",
      "outputs": [
        {
          "internalType": "string",
          "name": "",
          "type": "string"
        }
      ],
      "stateMutability": "view",
      "type": "function"
    },
    {
      "inputs": [],
      "name": "totalSupply",
      "outputs": [
        {
          "internalType": "uint256",
          "name": "",
          "type": "uint256"
        }
      ],
      "stateMutability": "view",
      "type": "function"
    },
    {
      "inputs": [
        {
          "internalType": "address",
          "name": "recipient",
          "type": "address"
        },
        {
          "internalType": "uint256",
          "name": "amount",
          "type": "uint256"
        }
      ],
      "name": "transfer",
      "outputs": [
        {
          "internalType": "bool",
          "name": "",
          "type": "bool"
        }
      ],
      "stateMutability": "nonpayable",
      "type": "function"
    },
    {
      "inputs": [
        {
          "internalType": "address",
          "name": "sender",
          "type": "address"
        },
        {
          "internalType": "address",
          "name": "recipient",
          "type": "address"
        },
        {
          "internalType": "uint256",
          "name": "amount",
          "type": "uint256"
        }
      ],
      "name": "transferFrom",
      "outputs": [
        {
          "internalType": "bool",
          "name": "",
          "type": "bool"
        }
      ],
      "stateMutability": "nonpayable",
      "type": "function"
    }
  ],
  "bytecode": "0x6103e06040527f6e71edae12b1b97f4d1f60370fef10105fa2faae0126114a169c64845d6126c961012090815250348015630000003b57600080fd5b50604051630000afb6380380630000afb6833981810160405281019063000000659190630000297a565b88888888888888888882828888816040518060400160405280600181526020017f3100000000000000000000000000000000000000000000000000000000000000815250863373ffffffffffffffffffffffffffffffffffffffff1660001b63000000fa7f8ec5ed39e0277cf6b5ac7bfbea69561e0ab13d0f90291fda9f21b6ff5febaf0960001b6300001a5c60201b60201c565b63000001307fb3047d90d74037e2adb2df89b6f86a7b7c8bf74ab7f36f7e5570b17d25c7743060001b6300001a5c60201b60201c565b63000001667fcde082662b671d959326c5490179744ff7f489da54d7e3b0e588ca9e6054959260001b6300001a5c60201b60201c565b80608081815250505063000001a57f845048985995b7f1411d18d7948c02ec2bf5eca6401ba638adb4051af4c2191d60001b6300001a5f60201b60201c565b63000001db7fc3c8f60fc83d7d9090fdd911351f9190ebe429d000b024e9396070d2d78f428560001b6300001a5f60201b60201c565b63000002117f1d167de1a75b4a1dca8359b7f4c17b1705cc862ce4d137f144168ec6e6a47fe560001b6300001a5f60201b60201c565b8073ffffffffffffffffffffffffffffffffffffffff1660a08173ffffffffffffffffffffffffffffffffffffffff1660601b8152505050630000027f7fee98174f2fec6f5039773d74e605ef9eca5c1cd66e97227a4db2801fa44649d460001b6300001a6260201b60201c565b63000002b57f4259111439657f52cad82bf951b84cb17ad89c9a75c0a453b11471980df5b70460001b6300001a6260201b60201c565b63000002eb7f694727719f1c716e137bf99300414ab3971da34628c5fdb5e3aefb346ab250cd60001b6300001a6260201b60201c565b818051906020012060c0818152505063000003307fc80ca99f8a52e2364dede2f196e5eea0d3e5cbb3d39b3c583eabdce5b2eba33860001b6300001a6260201b60201c565b63000003667fd79623f57f644f5deaf66895ac05cf4d0efe2db6dc309aa7731ca0cce6c6c42060001b6300001a6260201b60201c565b808051906020012060e0818152505063000003ab7f3595ce0dcb0082ced7c03525364c4e77b55c5765b539ff680b322eb52d68007860001b6300001a6260201b60201c565b63000003e17fce462f00afa59e5231a71f65b788fd6e74c839c46485038b23c5240219a6728160001b6300001a6260201b60201c565b7f8b73c3c69bb8fe3d512ecc4cf759cc79239f7b179b0ffacaa9a75d522b39400f6101008181525050505063000004427f81b292b7c2f738fe1ef398ecf484c30fdcca7a1fa0fdcec6133e69f7d952feb760001b6300001a6560201b60201c565b63000004787f0e8922ff6774c4bdde3a74a12158ca1888e60f5a3c45555ddd81e8785d5ee3f260001b6300001a6560201b60201c565b63000004ae7f59e4bf632185b91833f20a14a0ad444be3eecf2ae84a218ca7bc6928a7ff258560001b6300001a6560201b60201c565b816003908051906020019063000004c892919063000026f2565b5063000004ff7f28e246c5f6155f806e0edae691917dbdb6f861567b1c6bf6fd24b0d5c4ca1b7d60001b6300001a6560201b60201c565b63000005357f6f23c232081ae254a1779744f064adfc759d8456694b907fe454eb09fecd7c3c60001b6300001a6560201b60201c565b8060049080519060200190630000054f92919063000026f2565b50505063000005887fe087a381d2efdf77b4bb9deb1d9c49dd7a7b8850352e08f2237b146ed960df0060001b6300001a6860201b60201c565b63000005be7fd5bd2a2b38b208dfe30c35c9f2d296d8724d15c14b57d076eb3ed9864adf5cf260001b6300001a6860201b60201c565b63000005f47f440b23f6eae421802afd826f944e150ff37cf67006559664d92ff81aac1bb4f260001b6300001a6860201b60201c565b63000006106276a7008311156101946300001a6b60201b60201c565b63000006467fa61c306c7b6e0fe7490bf46f0ac35a3616024e80a4df7a4bc45e6de19ba12b2760001b6300001a6860201b60201c565b630000067c7fcc5d9c2ea50b53fbc5bd55dd83fc9eabd468cdc54db709760ba22684ff909cf660001b6300001a6860201b60201c565b630000069862278d008211156101956300001a6b60201b60201c565b63000006ce7f40a9c3d0b92872242e7f21fd6cf84e9cfff37a117dcf54fc2e2669e09e526ae160001b6300001a6860201b60201c565b63000007047f91f1dda37d727c42e393bf864dac6469eabb7aea93126d07fec6d3a883e966f160001b6300001a6860201b60201c565b6000824201905063000007417fd10e525ab2b61302f916eb6f9b5bff8779466f7205e9f26f93dd222e4ff33cf960001b6300001a6860201b60201c565b63000007777f95e023026f40f7e8c70f2daf4b9c6a714fc77d1ca2c06f447b10468970058a8d60001b6300001a6860201b60201c565b80610140818152505063000007b67f7519a6a09b3a1dbb48879a23106bafbe17739672feffe0947a75620fdd70024660001b6300001a6860201b60201c565b63000007ec7f34afba99b9c10b73ccc93d9397070ac2cd56223e20282eba2d1237004c15be7260001b6300001a6860201b60201c565b818101610160818152505050505063000008307f5e8cc5e9f41bb87e25341ee9e6ef7cde0a930907966e5fa61b379d77028e9a6c60001b6300001a8a60201b60201c565b63000008667f894011d70322766fd679e27053c55f29447fe1a1b76557c569bde83e193a76ab60001b6300001a8a60201b60201c565b630000089c7f1f0d6d2ac81ed1499e24e864276fe5d2f28dbef283b5de4845fcbb578f6ec24360001b6300001a8a60201b60201c565b63000008b660028651101560c86300001a6b60201b60201c565b63000008ec7f47bdb80cad4a70c5f8a74f5ce29244c86a1139744e3b3776397d0b61cc3ed86960001b6300001a8a60201b60201c565b63000009227f43d6cddc28d5c55fde0a78c9d5a29a56dc12942a6cd37bba77cd8dc1e759e1e160001b6300001a8a60201b60201c565b630000093c60088651111560c96300001a6b60201b60201c565b63000009727f5afb7674b8a9c9020890c007dca0ca4f3c68e46849c035f3f915833bfe7ca85e60001b6300001a8a60201b60201c565b63000009a87f90bf0f3fa3990f04acf97b7b6d28c99ee046a1211b12996b2ee995a68ecccba860001b6300001a8a60201b60201c565b63000009c1856300001a8d60201b630000346b1760201c565b63000009f77f91e9815a574648a0a269dffb4fc4c15afb3c3e69b0b6aa9def9ea9c10e9930ca60001b6300001a8a60201b60201c565b6300000a2d7f4c86656a23bb680fba20c725f0bcbc41afd4f9ea8995cad0f11d0b1baf10bf5960001b6300001a8a60201b60201c565b6300000a40846300001bed60201b60201c565b6300000a767f7b0e65ab2ed272faa99d3a8c3716e4217bf3a1d2ff6a251a88a1c16b2c014e7960001b6300001a8a60201b60201c565b6300000aac7f4b1f0d647881b7cb7b2a1597f1b072c6469e46e42db938117dc06bb062c6f7b960001b6300001a8a60201b60201c565b60008973ffffffffffffffffffffffffffffffffffffffff166309b2760f8a6040518263ffffffff1660e01b81526004016300000aeb91906300002cb7565b602060405180830381600087803b1580156300000b0757600080fd5b505af11580156300000b1d573d6000803e3d6000fd5b505050506040513d601f19601f820116820180604052508101906300000b459190630000294b565b90506300000b7d7fa03df5a14a577ad184f5b96681a945a7643317bdb33d76854f5ba0f7186c18ef60001b6300001a8a60201b60201c565b6300000bb37f3c2658d1907fb6d6ac3f386b79214f31f5c4be8cd26f2a0425f546f47e92030660001b6300001a8a60201b60201c565b8973ffffffffffffffffffffffffffffffffffffffff166366a9c7d28288895167ffffffffffffffff811180156300000beb57600080fd5b506040519080825280602002602001820160405280156300000c1c5781602001602082028036833780820191505090505b506040518463ffffffff1660e01b81526004016300000c3f939291906300002c66565b600060405180830381600087803b1580156300000c5b57600080fd5b505af11580156300000c71573d6000803e3d6000fd5b505050506300000cab7f0fb0f686c6ec259d79e70c628ffc081805845a4cb46a40cb1582a7ea288f7b9460001b6300001a8a60201b60201c565b6300000ce17f6574b428938da3b3f9be9a76e55b4490597aa1303db0b71f4b4b243d06e29ae460001b6300001a8a60201b60201c565b8973ffffffffffffffffffffffffffffffffffffffff166101808173ffffffffffffffffffffffffffffffffffffffff1660601b815250506300000d4f7ffd01f3ab91a9950951b62bc9c8b62f6df8a031b1deb7e97234c946586ca84c1760001b6300001a8a60201b60201c565b6300000d857f97f5fa25afe2fb8ce8a850f3c5681674da737105fe38e321d137b7e36c092b1360001b6300001a8a60201b60201c565b806101a081815250506300000dc47f406b2d86b30e116c40d5ad7283865330fad99ac3db19b9f3d7ce2f503dc5a6d660001b6300001a8a60201b60201c565b6300000dfa7fcb085595ad6ce93dbfefd28da8d590f103e269a6107fa7a7ed673b4dc0597fb160001b6300001a8a60201b60201c565b85516101c081815250506300000e3a7f18806cf846ba9444fb6971e90026cdcb83aa23de7971d02d0aaa2c265ea099e360001b6300001a8a60201b60201c565b6300000e707f49eb61e5e9a0b583c216cacd2e5310910100702e276aebae49c564c8f55a39e260001b6300001a8a60201b60201c565b60008651116300000e845760006300000e9c565b856000815181106300000e9357fe5b60200260200101515b73ffffffffffffffffffffffffffffffffffffffff166101e08173ffffffffffffffffffffffffffffffffffffffff1660601b815250506300000f097f18c4e61960ca0b0d5d45c6258a67fcb4274f5665ec3e4e55e76ee944c0c4b36a60001b6300001a8a60201b60201c565b6300000f3f7f5caa07eefb89f1cea98ca3cbdbec501b17db7412f37fc90009c9f9bf050aad3560001b6300001a8a60201b60201c565b60018651116300000f535760006300000f6b565b856001815181106300000f6257fe5b60200260200101515b73ffffffffffffffffffffffffffffffffffffffff166102008173ffffffffffffffffffffffffffffffffffffffff1660601b815250506300000fd87f4a2f5b6dc779481c04cf6961d7eb2241f537349b4018341b7dff8929942a9bcf60001b6300001a8a60201b60201c565b630000100e7f4c8bdb4f771e62b6911ac1e0e57818ab40d2a8507e42a10302f28baa4d38b25a60001b6300001a8a60201b60201c565b60028651116300001022576000630000103a565b85600281518110630000103157fe5b60200260200101515b73ffffffffffffffffffffffffffffffffffffffff166102208173ffffffffffffffffffffffffffffffffffffffff1660601b8152505063000010a77f3da0ea8ad092121c163da32882693e0e2db4acf48e40bd2f8ca602a1bc56bda260001b6300001a8a60201b60201c565b63000010dd7f290f23b90944da1233b1ed277b37eaa76c3ce4626c0d325a24a628c948f97a9d60001b6300001a8a60201b60201c565b600386511163000010f15760006300001109565b85600381518110630000110057fe5b60200260200101515b73ffffffffffffffffffffffffffffffffffffffff166102408173ffffffffffffffffffffffffffffffffffffffff1660601b8152505063000011767fae8428c3d2519230b8f4a0ee6a6155a67f401de00967a22b914f8b7f2c7ccda360001b6300001a8a60201b60201c565b63000011ac7f22f7ad46f6f540a0212251864658f488cc618a9e3e7ed67a0115edc3e418104b60001b6300001a8a60201b60201c565b600486511163000011c057600063000011d8565b8560048151811063000011cf57fe5b60200260200101515b73ffffffffffffffffffffffffffffffffffffffff166102608173ffffffffffffffffffffffffffffffffffffffff1660601b8152505063000012457f293611b89b3f06e8c85f41787f25d2b3bcf7539349541c29a31aae7c485e0f7560001b6300001a8a60201b60201c565b630000127b7f4ca74c96570f55d18097fbf818b814420098e92f67d86f8eab22d5f591efe62760001b6300001a8a60201b60201c565b6005865111630000128f57600063000012a7565b85600581518110630000129e57fe5b60200260200101515b73ffffffffffffffffffffffffffffffffffffffff166102808173ffffffffffffffffffffffffffffffffffffffff1660601b8152505063000013147fe866b20c0b8ae786b95d369e68fde4f9a342cb3406120bdd9559512fb231045c60001b6300001a8a60201b60201c565b630000134a7f6c0f26a3e25ba08bee596d1ba4224097bba829c66c0e804cde29e1426f40418060001b6300001a8a60201b60201c565b6006865111630000135e5760006300001376565b85600681518110630000136d57fe5b60200260200101515b73ffffffffffffffffffffffffffffffffffffffff166102a08173ffffffffffffffffffffffffffffffffffffffff1660601b8152505063000013e37fed5b49753ce39a96f2e179af728ecaf5e088e39eddb6b82eddeb211c0faba14460001b6300001a8a60201b60201c565b63000014197fa901663d3adc02bebaa784d7d8e13bbc95612852d11c33d1f04457bebbe7850660001b6300001a8a60201b60201c565b6007865111630000142d5760006300001445565b85600781518110630000143c57fe5b60200260200101515b73ffffffffffffffffffffffffffffffffffffffff166102c08173ffffffffffffffffffffffffffffffffffffffff1660601b8152505063000014b27f8baf3abfad7c4a898372e09615b8b32052d339d2fd10fadcf7fac62ab980083460001b6300001a8a60201b60201c565b63000014e87fdbb37eb9b68af138a6a1707507f2c3a0b31d25d9552d02d66d032df534c6236760001b6300001a8a60201b60201c565b600086511163000014fc5760006300001526565b630000152586600081518110630000151057fe5b60200260200101516300001e5560201b60201c565b5b6102e0818152505063000015647f449cb9f56fe8bf63374f7da2d45b57aa2099a93f288eb61bd68dce166ab3bc8360001b6300001a8a60201b60201c565b630000159a7f070afe3d034047013e8613f3d939f622000e1974e25a815e55d2b7e888d2d56a60001b6300001a8a60201b60201c565b600186511163000015ae57600063000015d8565b63000015d78660018151811063000015c257fe5b60200260200101516300001e5560201b60201c565b5b610300818152505063000016167f0daafb9ebf166f5955514f416beea84f6ad716c7e7a991d38fbcb52d4671462260001b6300001a8a60201b60201c565b630000164c7f2a965be88de027925b277f209159b565a60ec5652ffafafe26c0d87867fbf72b60001b6300001a8a60201b60201c565b60028651116300001660576000630000168a565b630000168986600281518110630000167457fe5b60200260200101516300001e5560201b60201c565b5b610320818152505063000016c87f52c574f52b71b5ff2a5fc32eb44b57cbc080d978aaa58ac56dd2e5dda623a8f960001b6300001a8a60201b60201c565b63000016fe7fdab643a7f315a0dff5855cb8feffa977748b87c9e9e46747634a0c3c1f9279f560001b6300001a8a60201b60201c565b60038651116300001712576000630000173c565b630000173b86600381518110630000172657fe5b60200260200101516300001e5560201b60201c565b5b6103408181525050630000177a7fd497257ae604bc80c9a8ed6bdcaccb81b32c61b78f90a1ce44306958b660c6b660001b6300001a8a60201b60201c565b63000017b07f1a25bc5cd199c4f85979069ad1237632ea417906257867250db5cb1c8bd86c0b60001b6300001a8a60201b60201c565b600486511163000017c457600063000017ee565b63000017ed8660048151811063000017d857fe5b60200260200101516300001e5560201b60201c565b5b6103608181525050630000182c7f5964469a0eb9d73f3fcc6444301bd146aa2fbe4ea93b91878f7f419d758a3f6460001b6300001a8a60201b60201c565b63000018627fd1337e523a93b18f3babd1dd913d2c7ee2fdd3cd35f003ac4e2ab053bd7f268160001b6300001a8a60201b60201c565b6005865111630000187657600063000018a0565b630000189f86600581518110630000188a57fe5b60200260200101516300001e5560201b60201c565b5b610380818152505063000018de7f690ac2daabc3b7bedaba78d9a96fc15e9fef495c6a475e3bba8ecfe3a68baae160001b6300001a8a60201b60201c565b63000019147f9333c2d383d424acf681ada8549ec3d213adeeface50f8768ab1f44e01bb10f060001b6300001a8a60201b60201c565b600686511163000019285760006300001952565b630000195186600681518110630000193c57fe5b60200260200101516300001e5560201b60201c565b5b6103a0818152505063000019907fe4195cc9495520f9d89c90e33594b664b719b03f181c02e25fd52c07f5bdc10f60001b6300001a8a60201b60201c565b63000019c67fe8fb6018e8706660672af7348b134bc8baf8de1485d3cc320dece2cbabde5a3760001b6300001a8a60201b60201c565b600786511163000019da5760006300001a04565b6300001a038660078151811063000019ee57fe5b60200260200101516300001e5560201b60201c565b5b6103c08181525050505050505050505050506300001a4c7f3b1c930760d29bbdd7b0768322d46e35fdb6ee2482c1b2faccca518844cab10860001b630000208a60201b60201c565b5050505050505050506300002fc1565b50565b50565b50565b50565b50565b816300001a86576300001a8581630000208d60201b60201c565b5b5050565b50565b6300001ac37ff99bacf880df8e7b17f821546b3dc04e138a0067b4cf375acb955b5fde24a4b560001b63000020fd60201b60201c565b6300001af97fa2b92ae643152f689b17e4838c1f77b9a07dc6cab922d4ed3413a34be499020260001b63000020fd60201b60201c565b6300001b2f7fdd971bdee478c838f4a32666e873637247e6e0748ab1a3f811ff2b948d8aee0960001b63000020fd60201b60201c565b60606300001b677ff234278b1ba05c670bfa3a036e75cfef1535aa24f41a09fb219b9427ab82e17760001b63000020fd60201b60201c565b8190506300001ba07f8c1e498e11453d5c0e5f454f19962598d679c2cc20826cc568f1c3d970636e8b60001b63000020fd60201b60201c565b6300001bd67fa1e979627b6f19eed3dc9648ba642491f4e036411d0eb3ebd82f4eb2cb163e3f60001b63000020fd60201b60201c565b6300001be981630000210060201b60201c565b5050565b6300001c237f15d95f31e3d8f03151acd877860824e2519b31cd2266b6fba4edb44cbdb6c22260001b6300001a8a60201b60201c565b6300001c597f38ad2a21f4d1c04e6cb0f080d5cdd6d3022ddf45c9f377671946cd117d822bd160001b6300001a8a60201b60201c565b6300001c8f7f3e36b14fce78b6bf0464904742fa4c0a6613e679a9a28ebe53dca71fe4e60bf660001b6300001a8a60201b60201c565b6300001cac64e8d4a5100082101560cb6300001a6b60201b60201c565b6300001ce27fd60a4f70eb6053527b4b053cd5a77b5bace58afa8e8e75dfd50ef74e4af1c1e160001b6300001a8a60201b60201c565b6300001d187f78b15eda81ed3b086390139801e79321ec47ce9dd0ddddadda5f61ad8f0ee6dc60001b6300001a8a60201b60201c565b6300001d3867016345785d8a000082111560ca6300001a6b60201b60201c565b6300001d6e7fe790af49b7039ad5804739366b3f4b00b66d6125a6a7b5dc6e60fb67c69dcf3860001b6300001a8a60201b60201c565b6300001da47fc3448cf910456c71319f93b4eed444d0b4b3beb4f18162d29fb0650e19dcb70360001b6300001a8a60201b60201c565b806007819055506300001de17f5569b07c075afff8b8336bd4457561ad9d7ac55a0a2be9314e7a0a03656a72a260001b6300001a8a60201b60201c565b6300001e177fd02170ba3f9e153c416243c66b46d40d5b3d10b1565f5c695620da523ade58c460001b6300001a8a60201b60201c565b7fa9ba3ffe0b6c366b81232caab38605a0699ad5398d6cce76f91ee809e322dafc816040516300001e4a91906300002cd6565b60405180910390a150565b60006300001e8d7f63095e8e4e0ff28e3a3e1af8fb1b53b06158a4deee5b3580ce5c9db83a88d30e60001b6300001a8a60201b60201c565b6300001ec37fc6bb2c3eaf31621465752079291576a393b261eed25ce7c189c07d7424799f1560001b6300001a8a60201b60201c565b6300001ef97f0f73645344898290a6869b8eb4767f57b06666967fa834adace171dd61b00f0e60001b6300001a8a60201b60201c565b60008273ffffffffffffffffffffffffffffffffffffffff1663313ce5676040518163ffffffff1660e01b815260040160206040518083038186803b1580156300001f4357600080fd5b505afa1580156300001f59573d6000803e3d6000fd5b505050506040513d601f19601f820116820180604052508101906300001f8191906300002ab4565b60ff1690506300001fbc7fdb94b807acc16dc0351509466ed7f18a5b86990e0d4dece01bb05bc45b8692a160001b6300001a8a60201b60201c565b6300001ff27f7687ba6dbc683ff450abc962e2a5fa82bf326854709a3080aec185049111072e60001b6300001a8a60201b60201c565b6000630000200f601283630000254a60201b63000035851760201c565b905063000020477f10e4789b0dedd47f79e57e4dfdfd866f20898d2c3e96c4e2ddb79a4eb144934960001b6300001a8a60201b60201c565b630000207d7f20935259226d30e245587eac8616ad6080969b2e239252804975c5c00fab7b2760001b6300001a8a60201b60201c565b80600a0a92505050919050565b50565b6030600a820601600a820491506030600a830601600a830492506030600a8406018060101b8260081b8401016642414c230000000160c81b7f08c379a000000000000000000000000000000000000000000000000000000000600052602060045260076024528060445260646000fd5b50565b63000021367ff81347eb68f16450d5e669cebec6ee7a1fa5ac5ea54cd0cdcca39116f645fa5160001b63000020fd60201b60201c565b630000216c7fe2a1376ebe4e4cec489f9744b050322118d55b97aa16438a57ddde1335a14c8f60001b63000020fd60201b60201c565b63000021a27f527bb7a14e0d56ef6331f8d18810dc69d55965123a043ae607b318951a18a68160001b63000020fd60201b60201c565b60028151101563000022575763000021e47f9afca44e5a82aedd5e366b527c36bdc4739ee9ac3bc7d768ec09ebd698c8eef560001b63000020fd60201b60201c565b630000221a7f1c6a4a9803e7aa3220d0727f0908a9b07a4f7495fc3876092cfbe666b353d7cc60001b63000020fd60201b60201c565b63000022507fef223087e97cb97d037249402a85ea171ac9fea3d63d1de605fd9141125becfa60001b63000020fd60201b60201c565b6300002547565b630000228d7f81e9a490ce557e182511bfc6eaec796f0322309dc5b152b517ee96f2e7523faa60001b63000020fd60201b60201c565b63000022c37ffb4857c6ffcf3a97a276c2d8a5e4a6bc4c22de16aeabff5659e835a97bd18bd560001b63000020fd60201b60201c565b63000022f97f1d803e7d620c2a8dbc6a46d8f8a07bb3206ccaf62422d60ec7bd0c1dc0fc794360001b63000020fd60201b60201c565b600081600081518110630000230a57fe5b60200260200101519050630000234a7fba0aafccaa36bdc35e78716c86c21b686b91dac66af6de9e3e64db58f04732e260001b63000020fd60201b60201c565b63000023807f5c1d4f8cccfdd4780c5784c21dcb14d0f579bb0dae794331f0cbb2ff25aa561260001b63000020fd60201b60201c565b6000600190505b825181101563000025445763000023c87f0a21b32c354f4bc66e9d4c10e74a9300712d3fa7e505b38c9e20783887529f3660001b63000020fd60201b60201c565b63000023fe7f21642a1c91cfe281a527673f1bc34858dc6507709de16fb4a1697722a7ca219760001b63000020fd60201b60201c565b6000838281518110630000240e57fe5b60200260200101519050630000244e7fa82b63eab5a33f22c51256249a5d9706a615ca7d35b5fb95eeea2b93ead8c2a760001b63000020fd60201b60201c565b63000024847fdd7e1a5a6e71679d2539db9e69626bf9a32f74614762ae4cd7a007979f4cfb4c60001b63000020fd60201b60201c565b63000024c78173ffffffffffffffffffffffffffffffffffffffff168473ffffffffffffffffffffffffffffffffffffffff161060656300001a6b60201b60201c565b63000024fd7fb9b2f9cf36db3000ee06b288a33fd50865404ecb93038917fbab684585d4d4a160001b63000020fd60201b60201c565b63000025337f250b0ef482be923352767281f9a34a6bb54fd53f27f97f94adffc7fea4dd254d60001b63000020fd60201b60201c565b809250508060010190506300002387565b50505b50565b600063000025827fd3476389c9167915828e1c41fd58b501be617f81bcda7df7905ebaa183b3c4bd60001b63000026ef60201b60201c565b63000025b87f763e3966e690f5b421dcd041f04b48a1b193ed59a99cfdb60b67ab3dfbf2eab360001b63000026ef60201b60201c565b63000025ee7fd040ddffed94a5c3f1ea2412fc14f14911f62630c664bb38108164ba34c6c5bb60001b63000026ef60201b60201c565b63000026068383111560016300001a6b60201b60201c565b630000263c7fc95d13badf35636a18cef429a1cc30fcff497d0f377233d60d91a54b5222bb6b60001b63000026ef60201b60201c565b63000026727f28183ac30fe9ec9460a9d28cb4e04f1c3d89222564c20b044bc81e450ef8cb9760001b63000026ef60201b60201c565b6000828403905063000026af7f2996cf182068f32853c4842e48ae8391b1959ea375b654bf401398afae3fb9a460001b63000026ef60201b60201c565b63000026e57ffd16e19fe244cb693efc31c873bf159b238b28cd50bd7fb58b14e97f7b30750760001b63000026ef60201b60201c565b8091505092915050565b50565b828054600181600116156101000203166002900490600052602060002090601f016020900481019282601f10630000273757805160ff1916838001178555630000276b565b82800160010185558215630000276b579182015b82811115630000276a578251825591602001919060010190630000274b565b5b509050630000277c91906300002780565b5090565b5b80821115630000279d5760008160009055506001016300002781565b5090565b60008151905063000027b4816300002f01565b92915050565b600082601f83011263000027cd57600080fd5b815163000027e863000027e1826300002d24565b6300002cf5565b91508181835260208401935060208101905083856020840282011115630000280f57600080fd5b60005b8381101563000028475781630000282b8882630000286a565b8452602084019350602083019250506001810190506300002812565b5050505092915050565b6000815190506300002864816300002f1e565b92915050565b600081519050630000287d816300002f3b565b92915050565b6000815190506300002896816300002f58565b92915050565b60008151905063000028af816300002f75565b92915050565b600082601f83011263000028c857600080fd5b815163000028e363000028dc826300002d4e565b6300002cf5565b91508082526020830160208301858383011115630000290157600080fd5b63000029108382846300002eb9565b50505092915050565b600081519050630000292c816300002f87565b92915050565b6000815190506300002945816300002fa4565b92915050565b600060208284031215630000295f57600080fd5b60006300002971848285016300002851565b91505092915050565b60008060008060008060008060006101208a8c031215630000299b57600080fd5b600063000029ad8c828d016300002883565b995050602063000029c28c828d01630000289c565b98505060408a015167ffffffffffffffff81111563000029e157600080fd5b63000029f18c828d0163000028b5565b97505060608a015167ffffffffffffffff8111156300002a1057600080fd5b6300002a208c828d0163000028b5565b96505060808a015167ffffffffffffffff8111156300002a3f57600080fd5b6300002a4f8c828d0163000027ba565b95505060a06300002a648c828d016300002919565b94505060c06300002a798c828d016300002919565b93505060e06300002a8e8c828d016300002919565b9250506101006300002aa48c828d0163000027a1565b9150509295985092959850929598565b6000602082840312156300002ac857600080fd5b60006300002ada848285016300002932565b91505092915050565b60006300002af383836300002b1b565b60208301905092915050565b60006300002b0f83836300002c2d565b60208301905092915050565b6300002b28816300002ddd565b82525050565b60006300002b3d826300002d9c565b6300002b4b81856300002dcc565b93506300002b5a836300002d7c565b8060005b838110156300002b975781516300002b7888826300002ae3565b97506300002b87836300002db2565b9250506001810190506300002b5e565b5085935050505092915050565b60006300002bb3826300002da7565b6300002bc181856300002dcc565b93506300002bd0836300002d8c565b8060005b838110156300002c0d5781516300002bee88826300002aff565b97506300002bfd836300002dbf565b9250506001810190506300002bd4565b5085935050505092915050565b6300002c27816300002df3565b82525050565b6300002c3a816300002e77565b82525050565b6300002c4d816300002ea3565b82525050565b6300002c60816300002e60565b82525050565b60006060820190506300002c7f60008301866300002c1a565b81810360208301526300002c9581856300002ba4565b905081810360408301526300002cad81846300002b2e565b9050949350505050565b60006020820190506300002cd060008301846300002c40565b92915050565b60006020820190506300002cef60008301846300002c53565b92915050565b6000604051905081810181811067ffffffffffffffff821117156300002d1a57600080fd5b8060405250919050565b600067ffffffffffffffff8211156300002d3d57600080fd5b602082029050602081019050919050565b600067ffffffffffffffff8211156300002d6757600080fd5b601f19601f8301169050602081019050919050565b6000819050602082019050919050565b6000819050602082019050919050565b600081519050919050565b600081519050919050565b6000602082019050919050565b6000602082019050919050565b600082825260208201905092915050565b60006300002dec826300002e40565b9050919050565b6000819050919050565b60006300002e0c826300002ddd565b9050919050565b60006300002e22826300002ddd565b9050919050565b60008190506300002e3b826300002ef2565b919050565b600073ffffffffffffffffffffffffffffffffffffffff82169050919050565b6000819050919050565b600060ff82169050919050565b60006300002e86826300002e8d565b9050919050565b60006300002e9c826300002e40565b9050919050565b60006300002eb2826300002e29565b9050919050565b60005b838110156300002edb5780820151818401526020810190506300002ebc565b838111156300002eec576000848401525b50505050565b600381106300002efe57fe5b50565b6300002f0e816300002ddd565b81146300002f1b57600080fd5b50565b6300002f2b816300002df3565b81146300002f3857600080fd5b50565b6300002f48816300002dfd565b81146300002f5557600080fd5b50565b6300002f65816300002e13565b81146300002f7257600080fd5b50565b600381106300002f8457600080fd5b50565b6300002f94816300002e60565b81146300002fa157600080fd5b50565b6300002fb1816300002e6a565b81146300002fbe57600080fd5b50565b60805160a05160601c60c05160e051610100516101205161014051610160516101805160601c6101a0516101c0516101e05160601c6102005160601c6102205160601c6102405160601c6102605160601c6102805160601c6102a05160601c6102c05160601c6102e05161030051610320516103405161036051610380516103a0516103c051617ee263000030d4600039806159325250806157d852508061567e5250806155245250806153ca525080615270525080615116525080614fbc52505050505050505050806146e95250806113e4525080612272525080613e6d525080613dc15250806126d252508061433952508061437b52508061435a5250806121c6525080611f855250617ee26000f3fe608060405234801561001057600080fd5b50600436106102265760003560e01c8063661884631161012a57806391037d22116100bd578063c27f81691161008c578063d5c096c411610071578063d5c096c414610672578063d73dd623146106a3578063dd62ed3e146106d357610226565b8063c27f81691461063a578063d505accf1461065657610226565b806391037d22146105b257806395d89b41146105ce578063a9059cbb146105ec578063aaabadc51461061c57610226565b8063851c1bb3116100f9578063851c1bb31461051557806387ec681714610545578063893d20e8146105765780638d928af81461059457610226565b8063661884631461045457806370a082311461048457806374f3b009146104b45780637ecebe00146104e557610226565b80633551a9ca116101bd57806343a9299e1161018c57806355c676281161017157806355c67628146103e95780636028bfd41461040757806363460d791461043857610226565b806343a9299e146103b1578063496defa3146103cd57610226565b80633551a9ca1461033d5780633644e5151461035957806338e9922e1461037757806338fff2d01461039357610226565b806318160ddd116101f957806318160ddd146102b15780631c0de051146102cf57806323b872dd146102ef578063313ce5671461031f57610226565b806306fdde031461022b578063095ea7b3146102495780630a1b02db1461027957806316c38b3c14610295575b600080fd5b610233610703565b6040516102409190617b4b565b60405180910390f35b610263600480360381019061025e91906174f0565b610829565b6040516102709190617978565b60405180910390f35b610293600480360381019061028e919061757e565b61091c565b005b6102af60048036038101906102aa919061752c565b61091f565b005b6102b9610a67565b6040516102c69190617b6d565b60405180910390f35b6102d7610af5565b6040516102e693929190617993565b60405180910390f35b61030960048036038101906103049190617403565b610c52565b6040516103169190617978565b60405180910390f35b610327611039565b6040516103349190617bb8565b60405180910390f35b6103576004803603810190610352919061757e565b6110c6565b005b6103616110c9565b60405161036e91906179ca565b60405180910390f35b610391600480360381019061038c91906176c7565b61115c565b005b61039b61135c565b6040516103a891906179ca565b60405180910390f35b6103cb60048036038101906103c6919061757e565b611408565b005b6103e760048036038101906103e2919061757e565b61140b565b005b6103f161140e565b6040516103fe9190617b6d565b60405180910390f35b610421600480360381019061041c91906175a7565b61149c565b60405161042f929190617b88565b60405180910390f35b610452600480360381019061044d919061757e565b611607565b005b61046e600480360381019061046991906174f0565b61160a565b60405161047b9190617978565b60405180910390f35b61049e6004803603810190610499919061739e565b61190a565b6040516104ab9190617b6d565b60405180910390f35b6104ce60048036038101906104c991906175a7565b6119d6565b6040516104dc929190617941565b60405180910390f35b6104ff60048036038101906104fa919061739e565b611e30565b60405161050c9190617b6d565b60405180910390f35b61052f600480360381019061052a9190617675565b611efd565b60405161053c91906179ca565b60405180910390f35b61055f600480360381019061055a91906175a7565b611fd3565b60405161056d929190617b88565b60405180910390f35b61057e61213e565b60405161058b9190617926565b60405180910390f35b61059c6121ea565b6040516105a99190617b30565b60405180910390f35b6105cc60048036038101906105c7919061757e565b612296565b005b6105d6612299565b6040516105e39190617b4b565b60405180910390f35b610606600480360381019061060191906174f0565b6123bf565b6040516106139190617978565b60405180910390f35b6106246124b2565b6040516106319190617b15565b60405180910390f35b610654600480360381019061064f919061757e565b612545565b005b610670600480360381019061066b9190617452565b612548565b005b61068c600480360381019061068791906175a7565b612a0d565b60405161069a929190617941565b60405180910390f35b6106bd60048036038101906106b891906174f0565b6131df565b6040516106ca9190617978565b60405180910390f35b6106ed60048036038101906106e891906173c7565b613360565b6040516106fa9190617b6d565b60405180910390f35b60606107317f4db756c43151b39c292200c46bff24e176da61a0e871364526e45f6fbe81ac4a60001b6110c6565b61075d7fba290886c45607b59e3de5397eb7831641bfd35d7fa57c961e0adcd9d4b79c3a60001b6110c6565b6107897f39a49d1e9173e1b109b0071d57f8abe5e31aa57049988a2f3d2e37520a49e1b660001b6110c6565b60038054600181600116156101000203166002900480601f01602080910402602001604051908101604052809291908181526020018280546001816001161561010002031660029004801561081f5780601f106107f45761010080835404028352916020019161081f565b820191906000526020600020905b81548152906001019060200180831161080257829003601f168201915b5050505050905090565b60006108577fb1ea157a74570fd3643c5310837ad126ac7e4706522558b5875e1918b59b542c60001b6110c6565b6108837f608d42f4361636bab0a221b92860e67ed6868f7c49f5d3d0971b0415b8bbc3fc60001b6110c6565b6108af7f615b7abb3c5e0d42ad112c000b5db1bdca612c20fd9371e93aa915c0710d8e9b60001b6110c6565b6108ba3384846136da565b6108e67f20ccb10feb578c145cd252783de60c35b7c4c0b57c889d3dfb397e2beb70414f60001b6110c6565b6109127ffe03fbd27bd6a7be7f0b17c315f4e874faf110e898eb2d3c95f00f3f260542fb60001b6110c6565b6001905092915050565b50565b61094b7f21ea7fcf5f9d7c31f9aaf25a69a33e54c5f3c5f66baae008885ccc3276598f7e60001b611408565b6109777f6a39159fbf6a6f219cb1a9d2ba1e006bf81de453f8c25b24ef0ad37212bed98b60001b611408565b6109a37fda72f8aff7fe2e941c3d65dafeff55469fc4e10b2cfd040c51bbee89e5b0231a60001b611408565b6109ab6138a1565b6109d77f9c459e0e3be04934ddeb1b00ad8219c43cf1b0ee5a60c5c5492412fe62e3db4860001b611408565b610a037ffec5f9176a10139ca8b7a264598f2948b912c517072ddef0b8013fe823d22b0b60001b611607565b610a2f7f9689784212ab875928251654560d1a86e41133a3d6544bde883b8e688492d31660001b611607565b610a5b7fee22413a639d869962fbbd332a97dc982983cd7f4b16df857902e4c3eb24930f60001b611607565b610a64816139c6565b50565b6000610a957f3591744e6a97f397579dfefe4467e742422291d5b48cf0b4b29d2a7bd707601a60001b6110c6565b610ac17f648de981846633733b23f115d5f5a0c65d9ed63a0536ceba8eceb070f538606660001b6110c6565b610aed7f26add7f2af4a43b72f0acd053918a6e311d5debc1abcc80dc521e650b43cf45d60001b6110c6565b600254905090565b6000806000610b267f42b2df6467ff4c70f32501bc99dadaa1707377d0ae98682424fbf6f17c641d1460001b61091c565b610b527fc547455e53b5440054db386d0706d7ff980e05270c92023fc54f5f5f5c04c5ad60001b61091c565b610b7e7fb963bb4019984fe1702b4770c0d5aa469bd0dd9b7d30f2696d9641e74bbca11260001b61091c565b610b86613c8c565b159250610bb57f61573994a5d914d4db231e404b148fb9db63f1c7b413b107977e9feedb531d9460001b61091c565b610be17f07825aec69c85870219784a1fb8305468e89fa78f9acd98ce1748ceb86c60aec60001b61091c565b610be9613d39565b9150610c177f021c1a05e5f001c149d9ad72783428e4a158fe50b5533cfc1ae85382d9da3cbe60001b61091c565b610c437f0875220e21ba6e87e6bbb05f50398ebcd41b3de02dec68c6049fc5c8fd3cd56260001b61091c565b610c4b613de5565b9050909192565b6000610c807fcb1e83c5388babf0d45f0a159d24050185c8f019cd8c4b6f2c779d5c3c539f9f60001b6110c6565b610cac7f7fbd987c745bcd9baf3604ec32a88300f63bb21f3fceda9f3228dfaf2c3f2de460001b6110c6565b610cd87f0e8dacc52dc9d5685cb26ebdcfd55134cecbe613d8a4b690e0e969ccd4b0481060001b6110c6565b6000600160008673ffffffffffffffffffffffffffffffffffffffff1673ffffffffffffffffffffffffffffffffffffffff16815260200190815260200160002060003373ffffffffffffffffffffffffffffffffffffffff1673ffffffffffffffffffffffffffffffffffffffff168152602001908152602001600020549050610d857f54e7f369fb0047d67cc293276bb189bd606f854e46cdcecc1bd076aa91dd06f260001b6110c6565b610db17f39190ba861c8e6e479265c5a4e8684bc43ebc26b72efdbf60c93695625d7e74560001b6110c6565b610df68573ffffffffffffffffffffffffffffffffffffffff163373ffffffffffffffffffffffffffffffffffffffff161480610dee5750838210155b610197613e91565b610e227fd869e7d03a7d2b949d65095bdcf9138ca8c21024df18a7d1e9848fe6c7abba5a60001b6110c6565b610e4e7f537959050150c59e30f3e96d0efe52657216286d3e9b350077d0afcaadc7422060001b6110c6565b610e59858585613ea4565b610e857f926c18b0f53a5e82fd975daa6afee3b86a70d7c71a10a76f3fcca650aec50a6d60001b6110c6565b610eb17f607a349b557172ec6566d29aba0b5e434c65703e9f4543212ae2ade2556ad69860001b6110c6565b8473ffffffffffffffffffffffffffffffffffffffff163373ffffffffffffffffffffffffffffffffffffffff1614158015610f0d57507fffffffffffffffffffffffffffffffffffffffffffffffffffffffffffffffff8114155b15610fa857610f3e7fcd4b7cb6209714f6b6668452e416a09740061e5232695dab3c8d58eb9929230660001b6110c6565b610f6a7f1b58eb05783678703afafd8c2da7777514b88bb4bf1d0b1b33d2285ae42bb85060001b6110c6565b610f967ff0312650c8425ab9e2314712cd6a85893e6ba127ec99153319693e6c04b162ab60001b6110c6565b610fa385338584036136da565b610fd5565b610fd47f8b9f87cb614a13839badb66ba449c6131eecbd8f2c92f3b916fa3d82b04f554e60001b6110c6565b5b6110017f5f2cde0b0885842c82f8b00a0286a72ef2985aa970c5d934ec072153cff1e5f660001b6110c6565b61102d7f32779093f7455faaa3eb624998ad4d7d1a80d4f32a251c7815d94777d377f58860001b6110c6565b60019150509392505050565b60006110677f9cad670adda916501fa2719d90e5fe0ece4449dd6036d4d49187cdb9b9a67db160001b6110c6565b6110937f0a01c55b2a3b47c5dc0b58fa28bb70316ee084eca589b5465dc8477c8fb2969860001b6110c6565b6110bf7f1f2aa8b01dcb4274968895299d05e53753fd6115a911b22e4f5988ab9e33c50760001b6110c6565b6012905090565b50565b60006110f77f9a9bf2e5977de3697a9ec96b58940c396178f0ae9e5e6dad3c34cc15875ad43660001b6110c6565b6111237fb822da9206ad66a6612383dffe32883ba061b6accb06aaba55b9dd2dee84833160001b6110c6565b61114f7f7b9abb37e5294ffd6b06ddbc84feec6d9746d7f59ed43e20820b54f98f0eb04b60001b6110c6565b6111576142b1565b905090565b6111887f21ea7fcf5f9d7c31f9aaf25a69a33e54c5f3c5f66baae008885ccc3276598f7e60001b611408565b6111b47f6a39159fbf6a6f219cb1a9d2ba1e006bf81de453f8c25b24ef0ad37212bed98b60001b611408565b6111e07fda72f8aff7fe2e941c3d65dafeff55469fc4e10b2cfd040c51bbee89e5b0231a60001b611408565b6111e86138a1565b6112147f9c459e0e3be04934ddeb1b00ad8219c43cf1b0ee5a60c5c5492412fe62e3db4860001b611408565b6112407f55b2c706edc1fac40420f6b6ee2c7fb303ddd3f3b2e904e75d52c6bfd88e56fa60001b61091c565b61126c7fc498ca4ed44b1ebcfc965c587448a4caa7674ba28574ad44c701d0b18d270cc260001b61091c565b6112987fc0eb990e8883f9af90f456b244df4424ef0fdb6588346633543bc7fad5d1535e60001b61091c565b6112a06143d2565b6112cc7f44575eacace6313d4ce3cb25629c3a9f23ce0f7905ebb1784022d4cd23e99a9260001b61091c565b6112f87f7ed7626961fb0c276eb99cdcae5e598683604765ff49ede0ae0d5e3326cb91af60001b611607565b6113247f30e282526d0a36f06adc8598812d014a1f6e32709881cb4ed8d344a54c84c2e160001b611607565b6113507f8b3f4f747b47322cf959ffed7a77642f04a016d5183e7a3ea59d82cfce65bc6260001b611607565b6113598161446b565b50565b600061138a7ffc5950d005f31b1e49ac649d89dd56a3846d1c287ab3ba7cc65ab6e2c6fc43d560001b611607565b6113b67fca011f789f961806c2c3436272b2be11fe26967621822202448bd748a2a7795b60001b611607565b6113e27f49c7630e4a74a8bbfca04f3433220f01141b861341d42984a513043d64cc8ced60001b611607565b7f0000000000000000000000000000000000000000000000000000000000000000905090565b50565b50565b600061143c7f82b8d8d8c30681fefe3506c779cd002003cea42493f35644b1d0bc006cf6c84860001b611607565b6114687f770c8e1d1ae4f21d46ae58f4fd83acbfb35bb319fb9a973b66009548f190a82060001b611607565b6114947f898456cbdc830e8e1fd77d36de50e38554b4b773ec74e6f26323c2cf465d89f460001b611607565b600754905090565b600060606114cc7f843156add37912bac4a8b4162d902b38eff9a583ebbbb3f8ca0c5ae4bb727e2360001b611607565b6114f87f5c782d49c46369378dd49af346aa55e25bffca55c48f05b6275dae0c8336470360001b611607565b6115247fa546556f1ea2da37ff939bd5a8215ff6626923230561f52301411063139736c560001b611607565b6115368651611531614661565b61470d565b6115627f3e983dd5509997b676b7268e06ebef1d0e480f83399465f906b4f5ec6728ba1960001b611607565b61158e7f1b6a3aadfee2b62f203c974ce57296635679b500e7dee8078f20288f1aebaea360001b611607565b6115a3898989898989896147a26147e0614926565b6115cf7fedee8214c52fdf41a2569862b2a3bb975267b6c6525c7ea2c41442dee7b97dc160001b611607565b6115fb7fd8a9aaa0e1cf7a0f7ce4f1b92ff03e9d289ebb0b3fb243165e22dcb99cdba7cd60001b611607565b97509795505050505050565b50565b60006116387f2bc4f6cbbe1e6cc58886fc607e4f9d603ff60ef5478e3676303f678e6caf2f5460001b6110c6565b6116647f731cc74fab18c25d19816bf4d2298b45d95bea660e12eca338e76e4e0250157360001b6110c6565b6116907f776354c1f8a649dba23ac29d302391f8ec705f38cfbf61eaa9e10ed0e086a0a860001b6110c6565b6000600160003373ffffffffffffffffffffffffffffffffffffffff1673ffffffffffffffffffffffffffffffffffffffff16815260200190815260200160002060008573ffffffffffffffffffffffffffffffffffffffff1673ffffffffffffffffffffffffffffffffffffffff16815260200190815260200160002054905061173d7fc1cb3a4403e7fb7d25c7977c1b9d6b562b5d4490a6afb2cbe3d4bf6b13a86ca260001b6110c6565b6117697f276b3d970bf6b8f83f2563a9b429975c187e8bca73b96e4e35e83f44d79ef87f60001b6110c6565b8083106118055761179c7f9ee10143f1a57ce9379cd06d83af7f4260b35b7d68688e2571614528b3bf0a9160001b6110c6565b6117c87f4c189fac295f2d343d8fe6b386541ecd7212a459348bb5e026f841253ee688bf60001b6110c6565b6117f47fd9f90d4c7c24b7b34ff27df9029e6f5cef30bcafff8b7429ab20759576816c4660001b6110c6565b611800338560006136da565b6118a7565b6118317ff51c22ae637e8f9f1dd7422715ecb2d1c32c86659f8e28f3ce381baba105ffb360001b6110c6565b61185d7fdfb3948fd26f2536e1f0ebee33c8374cec9a7353452842dcc19e635455c7421e60001b6110c6565b6118897f14683ac6bc698dfe12cbc9135dfdd3e104e730ce7ecf472553c6c26797bed32960001b6110c6565b6118a633856118a1868561358590919063ffffffff16565b6136da565b5b6118d37fb78ae2a8b9b381c79c5e2cd9879e837dbe889adabced450427438aeef5d5ccff60001b6110c6565b6118ff7f03f32f21093b2a8199a310db220ff53f6a540c482b9448ef79e79e613ef3317260001b6110c6565b600191505092915050565b60006119387faac41115ae1d356952505586f40766eb3ebf03c42c0cbb0132cda2a3447a273260001b6110c6565b6119647fe30a51ecf846439267419cc37bfa8423dbb262e0b9c8c725cb29feab7f95316a60001b6110c6565b6119907fe8168e88c7789dc9fd9a2320bba851c6f3abda3fa6015b28f28ed3a2ae63756160001b6110c6565b6000808373ffffffffffffffffffffffffffffffffffffffff1673ffffffffffffffffffffffffffffffffffffffff168152602001908152602001600020549050919050565b60608088611a067ff68b03a3fec8dac7779605a46475077fa9dafe829eddf6ca345f61b04e5f5c0560001b611607565b611a327f9d1fdb151e41c3aba02424103aac66a346bf9ab1402a441b8db99a307d4ba34e60001b611607565b611a5e7f785dbf00db4fea859ff61df3064355f5ab99f94a2b11d2b5eac465eff49ecfc860001b611607565b611a9e611a696121ea565b73ffffffffffffffffffffffffffffffffffffffff163373ffffffffffffffffffffffffffffffffffffffff161460cd613e91565b611aca7f1d0362102dcfbd2500bb998702ac1bb1de267612981136db00a432874a5b6fb060001b611607565b611af67f5ea396807948ac3fd8041d0de30dbae0fc2bc583b56d3b7c5505eec562958b3d60001b611607565b611b0b611b0161135c565b82146101f4613e91565b611b377fc8d6c1095a38b29a0ad7c79220141fd52d4d7a2903679c1733e75402087ffea160001b611607565b611b637f4583d3e9abeebb3f83ba8eb7ee7a1deff1317dbc81b01a5a7524278b0d44f83460001b611607565b611b8f7fbce7d0fd10307b0a0fb8b1451a066c73acb7c4d72c210ad9c844a85218af97de60001b611607565b611bbb7f03441fc29a3b712470fb0adaca9076a9bd07e3e439de3fdf25a263a25a9a197760001b611607565b6060611bc5614da0565b9050611bf37f5ebe8344e46c348cada61994dcde5d209ef2cf5652aeb2a4f9254883f69569ba60001b611607565b611c1f7f531d0654f6d2d48b027a068332a534e116485045e1448b0806f111a161c3f74c60001b611607565b611c298882615a32565b611c557f75c90522fd3e3cb25182f6fa55dc1a241e44dc06965f6f381df34bc9135661c260001b611607565b611c817fe45f2f3344ba6a4cd9c326f16e487a94faaa1f754b1c87c1a902d11549d1262b60001b611607565b6000606080611c958e8e8e8e8e8e8e6147a2565b925092509250611cc77ff6dd31b4120fafb578f0524542064b897f9ad340647f0ac837a1d55bf7f0426960001b611607565b611cf37f4d6b02770425cf3c2b4af86253dfb9ea1129cfc22172176dcb54c44b4dfe58dd60001b611607565b611cfd8d84615b78565b611d297f2da52517f90aa68d603322c495916d8c2442d50ef18d8cd7ba67f71404713fb260001b611607565b611d557f214cf9e91ef256e57de5ca9ceb210b3b6b82a141cb5feb3455fc8c2d8800047e60001b611607565b611d5f82856147e0565b611d8b7fa319c0af4865b8d12defa5540a2a0e7ae511a23ea7a4c2041a061f8b0a4b976f60001b611607565b611db77f5d11b573760545e2d8f6e5815f6c4fbfdf776a73c1cc2850a346f448b2f5450c60001b611607565b611dc181856147e0565b611ded7f5fd34f2d0867cfd5396e3bdac3989966fb5ac6daaa78d9457941d97482af518060001b611607565b611e197f66da92a7570399e13b3354a3deec2ee1d307d31d90507e7d6d457e0e716e8b2b60001b611607565b818196509650505050505097509795505050505050565b6000611e5e7fce709f4cad1692c2eec712c74409eb1a9a8e4be929c69436a23021ba15e6f85260001b6110c6565b611e8a7ff614fa7db7c2a2a19167f3be1070e88fd9f20d559a2986abe9ec49ed496f6c9860001b6110c6565b611eb67f4d99137f0c6e388b0468c0640c9931cfa067557163b83ee1e6370736699482cf60001b6110c6565b600560008373ffffffffffffffffffffffffffffffffffffffff1673ffffffffffffffffffffffffffffffffffffffff168152602001908152602001600020549050919050565b6000611f2b7f4d573133ce520db9ac8fcc17a4a109e17cde6e632ece08c89418b284bc44a67860001b611408565b611f577ff3dc7d107ec34169a12de6b8dc70021c704b1c6bfe98a174ebf6a95d17c3ffa960001b611408565b611f837f05423f9efef992bd3c316d35c411d077b1697419a0b4608f5649a0d610dcab4a60001b611408565b7f000000000000000000000000000000000000000000000000000000000000000082604051602001611fb69291906178aa565b604051602081830303815290604052805190602001209050919050565b600060606120037fab83ce3e3f881dc2afb418ebb2a1ec9eb6cad8eb3bbce473a0ae486e2931681060001b611607565b61202f7ff635c15dc7bee6a9200b682d80381e0613feccefc43aabc268d4b1bdd92d326660001b611607565b61205b7ffb2174914a2970606a9622caec127ae7e35ae3fbbef7f6efa0561cfada53f63c60001b611607565b61206d8651612068614661565b61470d565b6120997fe0ea453046c8fb4d83701cad74c1f6ec91cb9ffa9f47d1f48e48754d0de11b4560001b611607565b6120c57ff4e0b46df7d1f171ab17b15d171c035cae3f3621dd45a7a146ad2af14f0f73d860001b611607565b6120da89898989898989615e79615eb7614926565b6121067fc056b5e8b15980b92e1cd65ecf6ea8233d475b490202f191824e78794dfacecf60001b611607565b6121327ff8657f99c8934a4158188d71c3204ad82ee3a72fd475bd6a931ab4befbc69d5b60001b611607565b97509795505050505050565b600061216c7f4305b0b93402caa86e7180f48d024887d1c1f8bd2a44bfdaee3042782e1365f860001b61140b565b6121987ff4a29a5967596beb317406435bb4b861d12cc69220c8044af61df66d35d06bed60001b61140b565b6121c47f682699fb5d3b0c411085c0cc50e8915b89589b26ae77956cdec3e2fded5c83fe60001b61140b565b7f0000000000000000000000000000000000000000000000000000000000000000905090565b60006122187f2ed3446dbeff8ba31e41e908b09d7eb128249c443691794c9289ee6b4e8e9aee60001b611607565b6122447fbd1c582e102cc9ce02656e1ae8e7dd23dd47bb9aa29c96f6506ae6c6b9c448bc60001b611607565b6122707f4e36efbcbce56d36134a6bbf8d8e1eaf752b6e3197d05f9ada62c05a6fdf3b1660001b611607565b7f0000000000000000000000000000000000000000000000000000000000000000905090565b50565b60606122c77f17b355ef40058aeaf7c26c8927690560a2c4c4216dde24b71a7a9f03aec604b560001b6110c6565b6122f37ff815f3842a98c6f9cec0f04aa4934f6dea0f5de2e999217d58185d4eb88d98df60001b6110c6565b61231f7ffa543718d62142def29bed5b85057d1941cea6f37ff96e276959eecd780b7e9560001b6110c6565b60048054600181600116156101000203166002900480601f0160208091040260200160405190810160405280929190818152602001828054600181600116156101000203166002900480156123b55780601f1061238a576101008083540402835291602001916123b5565b820191906000526020600020905b81548152906001019060200180831161239857829003601f168201915b5050505050905090565b60006123ed7fc7d5cde1c91db565920f97654ccc517109b3f3285bdac7cfb18268f263704dbd60001b6110c6565b6124197f9487286039ccd1cce5e53f904e199d78750bbd4bbfd7c62c9c1d60ecaf56e50b60001b6110c6565b6124457f1f1ea87194eeb14be5cc6cba45ae9e9337ea06004a9c7af017b41caf703e4b4360001b6110c6565b612450338484613ea4565b61247c7fc6ffcb393b983e991aaf4197cfc7014a15c25f6cf5ac9eeab80c7f1a3f11647360001b6110c6565b6124a87f49c2eaedb9cca58be5fe2e3d6e47577701e46c37362340dbea73aed6cba3b22a60001b6110c6565b6001905092915050565b60006124e07f61a456c406e6bddd1e1783c07eb5227da8606b4ef5a91e1dd9f5cab8fd10e64b60001b61140b565b61250c7fdf5db6dcbe1022d3314c823ebca0c8436089c20f219ddeb21408ebb54a23afa460001b61140b565b6125387f611743155308434ae26e8814f1872b30c4b60a7ae02d34c5090d72d0976b15b860001b61140b565b612540615ffd565b905090565b50565b6125747f9e6607f156be20e58f9a51f80fa5672f26c76d76f8af4db1fe3973a095ea94e960001b6110c6565b6125a07fc4824ce5996dc5918169681705c4a696b3534a22d9100fc5f9e282d8a34f158460001b6110c6565b6125cc7f49a8c7b9f73719cf4f0c88621e37eea02abf69414627563f36cd1d4b26c8a52760001b6110c6565b6125da8442111560d1613e91565b6126067f2117cacd3625bf5ef48d271399307c9501a99abf036d7b44555a48475d88f75360001b6110c6565b6126327ffd1800c5ea3000172f950dc7ca86794cb57a8d9e1152dc03e54c440b047af19360001b6110c6565b6000600560008973ffffffffffffffffffffffffffffffffffffffff1673ffffffffffffffffffffffffffffffffffffffff1681526020019081526020016000205490506126a27fb809fce7c03d50db8ba1876a6f0380405e0b21614d172f3be817d9be546915f960001b6110c6565b6126ce7f9277eef8ca40423550c8c6bb460b8550107822f0b23ee133dcbca26324e0d90560001b6110c6565b60007f0000000000000000000000000000000000000000000000000000000000000000898989858a60405160200161270b96959493929190617a1c565b60405160208183030381529060405280519060200120905061274f7f4e4390c189cd9fec2fee917915f9494120c5dc3361bcb5aead6a222bccfd680560001b6110c6565b61277b7f07e585d122fbf6cbba88960e9b3d57fd2e7c358ec9af4aa1b57f55970c58d6fd60001b6110c6565b60006127868261610d565b90506127b47f02e2870a44c833d8837321eb156a098c29a316bce1a5e9c84409f4d637d190c960001b6110c6565b6127e07fa1d9efdfa0d73e58b2e475b03371ad10ebe2495772ffabbb2bd36d0c767bea7560001b6110c6565b6000600182888888604051600081526020016040526040516128059493929190617ad0565b6020604051602081039080840390855afa158015612827573d6000803e3d6000fd5b50505060206040510351905061285f7fc20defd178dd15aee2be9d753b81a319562bb6bb663a2727d08d87bb245cdb7b60001b6110c6565b61288b7f4d999149c4869297fda2c264f84945c98b57f7a86df38adee937d261730f218060001b6110c6565b6128fe600073ffffffffffffffffffffffffffffffffffffffff168273ffffffffffffffffffffffffffffffffffffffff16141580156128f657508b73ffffffffffffffffffffffffffffffffffffffff168273ffffffffffffffffffffffffffffffffffffffff16145b6101f8613e91565b61292a7fc1e08c5b0d718dd589e2de137bab624c5ca598b711afec95b39a18eac5af824c60001b6110c6565b6129567fefcb7d9f6c2a50231d6be8ec6f6eef473a9e99619024f2ea72c80891e7035ba360001b6110c6565b60018401600560008d73ffffffffffffffffffffffffffffffffffffffff1673ffffffffffffffffffffffffffffffffffffffff168152602001908152602001600020819055506129c97f613526f5215af821f01f2ef24bdfa4b220464d95752abcb6308aae877a840c8c60001b6110c6565b6129f57f1a993035dbefbc3de9835550d2d1a2623c8d261935be347d3660c424aa84d94c60001b6110c6565b612a008b8b8b6136da565b5050505050505050505050565b60608088612a3d7ff68b03a3fec8dac7779605a46475077fa9dafe829eddf6ca345f61b04e5f5c0560001b611607565b612a697f9d1fdb151e41c3aba02424103aac66a346bf9ab1402a441b8db99a307d4ba34e60001b611607565b612a957f785dbf00db4fea859ff61df3064355f5ab99f94a2b11d2b5eac465eff49ecfc860001b611607565b612ad5612aa06121ea565b73ffffffffffffffffffffffffffffffffffffffff163373ffffffffffffffffffffffffffffffffffffffff161460cd613e91565b612b017f1d0362102dcfbd2500bb998702ac1bb1de267612981136db00a432874a5b6fb060001b611607565b612b2d7f5ea396807948ac3fd8041d0de30dbae0fc2bc583b56d3b7c5505eec562958b3d60001b611607565b612b42612b3861135c565b82146101f4613e91565b612b6e7fc8d6c1095a38b29a0ad7c79220141fd52d4d7a2903679c1733e75402087ffea160001b611607565b612b9a7f67fe1688b99ed8069e79bcdf8ca6b806ed9e5d5bf6db1ecf53b030994e7ebbe560001b611607565b612bc67f0c6ee9b7202202588be8a75a2300a2b0447ce0aa8c0ee272efa42fc61e31d30760001b611607565b612bf27fa0c2fd44eb019393c3f4b4b667d553261a80968246f56a16189f221f52a0e85460001b611607565b6060612bfc614da0565b9050612c2a7f5673ebc7acf6d3b26013852cf11993baca4de31f4c45b848f08eb7b4a134472e60001b611607565b612c567fc56fbfefe7260f9cecadd6553c602451d5f315c87e67cae8ac993a7494cfcd6960001b611607565b6000612c60610a67565b1415612f4957612c927f2680c8ceee94b46a59f4979aa2a6d1e646ca95bba2a403869e1d653e42cf482160001b611607565b612cbe7ff49cb9a152f594f5a1da4f7ac1e06a640d55ec4e4293d8b898fef3a2471ac28560001b611607565b612cea7f2b217b9f7603d6185c83071a71fb29486bc0e07286b02614f154d348dd9654be60001b611607565b60006060612cfa8d8d8d8a6161ca565b91509150612d2a7f046a0c692bf9fd5d4aef6e7c08dc9756c3fdf8c4388dcc5f242df49a1e7d579c60001b611607565b612d567fc6b6fd36c929230c267a621790e2396ddb5483c791a8fcb2183947c390cf74da60001b611607565b612d67620f424083101560cc613e91565b612d937f6af1bce9638111306f61b41ab089f020fc4ccc21dcdd53c651b864114c61175160001b611607565b612dbf7f350259c4c53e93acfa8764c886cdc49432928ad30e989af13718bd7e7371894b60001b611607565b612dcd6000620f4240616203565b612df97f46b08dd7a5178743e44cd4bd9e501a3e47366ed9074c9b813cbc4c123aa2d2a760001b611607565b612e257fc38d4bab4560a636a7f701378c45106ca730af6aad5238583fd83fe27754c0d660001b611607565b612e348b620f42408403616203565b612e607f26bbe91c3666511dde454685b2d7911f1478eae8c0d088fd6ea270398ca1b05060001b611607565b612e8c7fa3222e2887e81616faa7d1f4b66390f89a26799e6dcbc9711f05669f347e733d60001b611607565b612e968184615eb7565b612ec27fbed6e5b7fd177068bf724a6d94b4381a7b8d810e6575b00b1c7d039bf90ffcb260001b611607565b612eee7f6403df36d41f7664b87d85c6a3e3d2853a18a5610c8f742614449e444a32473860001b611607565b80612ef7614661565b67ffffffffffffffff81118015612f0d57600080fd5b50604051908082528060200260200182016040528015612f3c5781602001602082028036833780820191505090505b50955095505050506131d2565b612f757f2a9a4ad5d6d6065e2e00743caf6f2d77c725dfb07aba95d779f8a3ddc00a434d60001b611607565b612fa17f9c819c51fca30f96733b6b5f7d23bbb882b29cfbaf0c257f69c5a6ba8168417a60001b611607565b612fcd7fd2128ff526eb7f4e8e98d46547995be8ec2a96e70462ede5c7450792c40cf0e460001b611607565b612fd78882615a32565b6130037fa9e811c387cfcc4ac8ca1f85bbf56ab7a1458e198c549df33387d402aed2891660001b611607565b61302f7ffc6224fda0ac17eee2b81d9c2c3e664b677ff4ee7bd79a1787a48e427ac2607160001b611607565b60006060806130438e8e8e8e8e8e8e615e79565b9250925092506130757ffeb7f6181baeba26ce8ab36569354bfdfd7c45dee391be2e97a3d8bfc23cd18360001b611607565b6130a17fd3218eb21c032381ced0e6ba6015c47596bc04eda2d3d36c80137cc0c1a7646760001b611607565b6130ab8c84616203565b6130d77f7ec464ec80b7712208fdaf0964f078c059016d2c6bff63f68ac3874456335ded60001b611607565b6131037f62b282177ec2595deed4c64871b211bd44c5c1f0869d0f54c0427d73db6ce44860001b611607565b61310d8285615eb7565b6131397fbd723d39fb31de1254080d01b0c825f2352588bc0f808de72e711178b46edcca60001b611607565b6131657fe0350b175b119ee1617325703bea21497a427a159732163a07e3203df8ed5d9760001b611607565b61316f81856147e0565b61319b7f69688238f81725a5f898d7d94a9391581e9e390cce0a6a65aa1df6762684056260001b611607565b6131c77f7fd64c23be76fb2bc7ac185a6f8d03021233d611120869557945001c9074caad60001b611607565b818196509650505050505b5097509795505050505050565b600061320d7fdfd46a7509d626a3b832453e51ead13b14a60898a4452949dec643c78cdd0ca460001b6110c6565b6132397fc2917056fa7523817e3b0b1ed74772a82b6e742dde96e1c3ba70b1b5af084ab460001b6110c6565b6132657fb3366275d8155de45f094a54cef582c1d4662f8ad3bdba62e7e1746c561ba49460001b6110c6565b6132fe33846132f985600160003373ffffffffffffffffffffffffffffffffffffffff1673ffffffffffffffffffffffffffffffffffffffff16815260200190815260200160002060008973ffffffffffffffffffffffffffffffffffffffff1673ffffffffffffffffffffffffffffffffffffffff1681526020019081526020016000205461644f90919063ffffffff16565b6136da565b61332a7fa9997bd0eaa435bb070e218e7facfa3f41a854bb8854af040e4265e8421f01c360001b6110c6565b6133567f194dfa8d20c3dbb674102bd468df92b37e9e85ad160a3faeac86d1075aa816dd60001b6110c6565b6001905092915050565b600061338e7f9bef354c91f97e8a27b65509ba2beb201d6cfbbeabc43be3a635677d51e5aad660001b6110c6565b6133ba7f4fa18cbcff8d89208ec89c2b27d401de2e7ff4301958af59a4a7f3d86b9ff70460001b6110c6565b6133e67fcc451f69a4dc4b5eec682455c572798781afeac1c0609fd7030999ca362036e960001b6110c6565b600160008473ffffffffffffffffffffffffffffffffffffffff1673ffffffffffffffffffffffffffffffffffffffff16815260200190815260200160002060008373ffffffffffffffffffffffffffffffffffffffff1673ffffffffffffffffffffffffffffffffffffffff16815260200190815260200160002054905092915050565b6134977ff99bacf880df8e7b17f821546b3dc04e138a0067b4cf375acb955b5fde24a4b560001b6165a4565b6134c37fa2b92ae643152f689b17e4838c1f77b9a07dc6cab922d4ed3413a34be499020260001b6165a4565b6134ef7fdd971bdee478c838f4a32666e873637247e6e0748ab1a3f811ff2b948d8aee0960001b6165a4565b606061351d7ff234278b1ba05c670bfa3a036e75cfef1535aa24f41a09fb219b9427ab82e17760001b6165a4565b81905061354c7f8c1e498e11453d5c0e5f454f19962598d679c2cc20826cc568f1c3d970636e8b60001b6165a4565b6135787fa1e979627b6f19eed3dc9648ba642491f4e036411d0eb3ebd82f4eb2cb163e3f60001b6165a4565b613581816165a7565b5050565b60006135b37fd3476389c9167915828e1c41fd58b501be617f81bcda7df7905ebaa183b3c4bd60001b616931565b6135df7f763e3966e690f5b421dcd041f04b48a1b193ed59a99cfdb60b67ab3dfbf2eab360001b616931565b61360b7fd040ddffed94a5c3f1ea2412fc14f14911f62630c664bb38108164ba34c6c5bb60001b616931565b613619838311156001613e91565b6136457fc95d13badf35636a18cef429a1cc30fcff497d0f377233d60d91a54b5222bb6b60001b616931565b6136717f28183ac30fe9ec9460a9d28cb4e04f1c3d89222564c20b044bc81e450ef8cb9760001b616931565b600082840390506136a47f2996cf182068f32853c4842e48ae8391b1959ea375b654bf401398afae3fb9a460001b616931565b6136d07ffd16e19fe244cb693efc31c873bf159b238b28cd50bd7fb58b14e97f7b30750760001b616931565b8091505092915050565b6137067fc7a1e0755317c73eed4a843031f2ed5b5c2e17a13b1f73d009691ee190faf90e60001b6110c6565b6137327f1538e5626f56b8812047d1f2e6e4384d86dd2df0665f323234f6c0f1e131feeb60001b6110c6565b61375e7f11d03a43029703f5d84de54be3dfa1ddc74977a193385b16770c4089fe51840860001b6110c6565b80600160008573ffffffffffffffffffffffffffffffffffffffff1673ffffffffffffffffffffffffffffffffffffffff16815260200190815260200160002060008473ffffffffffffffffffffffffffffffffffffffff1673ffffffffffffffffffffffffffffffffffffffff1681526020019081526020016000208190555061380b7f7aab7e493ff64ebff04f2f5426e9a21c461ac7c528f258e3ba2088c959c1091b60001b6110c6565b6138377f063c785473b3e4492705c4e64cea46ebaeb98480c45bb9629a4819c1403a759360001b6110c6565b8173ffffffffffffffffffffffffffffffffffffffff168373ffffffffffffffffffffffffffffffffffffffff167f8c5be1e5ebec7d5bd14f71427d1e84f3dd0314c0f7b2291e5b200ac8c7c3b925836040516138949190617b6d565b60405180910390a3505050565b6138cd7fee6b13cc663fc83397456b0aa96802fb13538819560f9edb6f8e7b741a72f53860001b611408565b6138f97f39ab045597dcd2e91680c88e6a16c3be9c35aec35abfd0a983b97db2747a626c60001b611408565b6139257fa7d629b89f18d2a342559332fb4bb334709674b097663cda4332f13762a4c77560001b611408565b60006139546000357fffffffff0000000000000000000000000000000000000000000000000000000016611efd565b90506139827f1f27bb1c2197ceb722f7da0d0716224da6e67a5388819b6d33889e0d61317ea460001b611408565b6139ae7f7da4f63bcb1bb19803d5a6d9059f7ad5906710c0ba0b6fe17e28839a722402b160001b611408565b6139c36139bb8233616934565b610191613e91565b50565b6139f27fc7c5367f9c7e240f3cdcb6923bc045f862ca4a39c752da8b71c5ae1472d73bbe60001b61091c565b613a1e7f50d58fdc3abc20e1cb392918770a267ab78e72d605a02d4c4056b501db10a04560001b61091c565b613a4a7ff6efbd77e87e2ef28cf5f850cac5b7ad75d84fff9ff5caca222139c78f468e4660001b61091c565b8015613aee57613a7c7fb0f141da337ea2a1d59d1cc8430775c2bf672d5ff29998ac3ba940811e4e0d5d60001b61091c565b613aa87f5ad992b766091b4243be03e56fc4538811c13fa8b0e1b27463c7d99314c736bc60001b61091c565b613ad47f854ef49914eb0527fc17f31ba5fc3af3040cc31fd84cb17924230ece061e54b960001b61091c565b613ae9613adf613d39565b4210610193613e91565b613b88565b613b1a7ffbbd4f7e556f0535cac9cd0150c9652e7fad42626de7b7dc3776a83d8732f59760001b61091c565b613b467f7ba1e9f2c217e1d23b4eb7f3ac04caa7bcd691b228ee2fcc3d594ca57be6395a60001b61091c565b613b727f599896393482567181121cb835626e2e456628f1bab956b29525539ad0d6759360001b61091c565b613b87613b7d613de5565b42106101a9613e91565b5b613bb47fbd8ef2821bd1e349a1d65969330f797bbfc76b766c2f8fa530739eb7fa58067160001b61091c565b613be07fe34774678af6ce655031cee2d93babe65cd743cc5b1101ff217573d2a7335b4b60001b61091c565b80600660006101000a81548160ff021916908315150217905550613c267f3706f6e6399e33e922ec7fc2e0fedd5bda1541494c7c9345dc31ccc1730fedea60001b61091c565b613c527f18f5a22ed7dffa75d0eb20fad03ef1137724c580e4f9c2967fe3c420f96eaee860001b61091c565b7f9e3a5e37224532dea67b89face185703738a228a6e8a23dee546960180d3be6481604051613c819190617978565b60405180910390a150565b6000613cba7fe3746e81cff91eb3d77d543981cd6cf706f8d76397da183679a4b3dadc9573e960001b61091c565b613ce67fa5f231f807570f144e78643005e399439fc73b5ab16a0241ef6b24ae7bc1f55260001b61091c565b613d127feac4884d0b5f8c5a57f3de251fec5b8b71daf1aa7f8f19b89e107d0d5163560a60001b61091c565b613d1a613de5565b421180613d345750600660009054906101000a900460ff16155b905090565b6000613d677f7f05abaafac9ed7d954843addd8fdddffb19d3fb16a0eb1b29cde5d60bccefd860001b61091c565b613d937f8fbfa5292fa05b965a2a739fb121e9d0379a7b60e58c67077bd84e58c4bd586060001b61091c565b613dbf7f13a8fd0ef51eb9e4725da515e4be7071dfe9a07ee7a31d0913b401970727c27260001b61091c565b7f0000000000000000000000000000000000000000000000000000000000000000905090565b6000613e137fb873c902804ee19693ddfd186de3098d59833aa7da7373ff1801e99a3eea378e60001b61091c565b613e3f7f5bfb346ed3ea17ece69b5bae634d25809cc15f9dbd55df8a316dd45da9ca006660001b61091c565b613e6b7f5b028bd9817cd40d7d4273c5525d5e8bf5660b6155e1cfb1bc5cf297fa2762e960001b61091c565b7f0000000000000000000000000000000000000000000000000000000000000000905090565b81613ea057613e9f81616bfd565b5b5050565b613ed07f5ac6f10a64ca2ed073f8c7d1a41d5b1e3066960cdb80bc14abab5c4106ce044160001b6110c6565b613efc7f4e38d37832e7ca16bc928d0c57baa2f427b61e2dcfb104c2c4a45fdb652bd2a260001b6110c6565b613f287f14c54e7996f1a08ff173d921219c1fbdcdb237bbd1f0d77917125c7830f1aad660001b6110c6565b60008060008573ffffffffffffffffffffffffffffffffffffffff1673ffffffffffffffffffffffffffffffffffffffff168152602001908152602001600020549050613f977fc65264affe36577d4633f05d06f2414663dc6e43e38650f5962683cea93ec45660001b6110c6565b613fc37fdf673a2fdb849596ad5b04b048c5c7b614b5f960b59e2e208dd4323397a3d1b160001b6110c6565b613fd282821015610196613e91565b613ffe7f8de0f57836be6b79599a8fbc8c81694a349a47c2af26e944e5b142838d4fd02760001b6110c6565b61402a7f6e0b8d7cf6d8f4aa1f9d10a2b02659d136797ed269f7ca50154581f09e773c5660001b6110c6565b614066600073ffffffffffffffffffffffffffffffffffffffff168473ffffffffffffffffffffffffffffffffffffffff161415610199613e91565b6140927f7bf65776b449d35969ec6baa7829c287a6f5459ac6395d3336c6a405a85b875560001b6110c6565b6140be7f2b8fba28346df9fd635fb5712cc5c9011d81f790844b9e8afdc12cfe82845e6c60001b6110c6565b8181036000808673ffffffffffffffffffffffffffffffffffffffff1673ffffffffffffffffffffffffffffffffffffffff1681526020019081526020016000208190555061412f7f53a017da13e1a7f30ffe7fc44baceb74bf49945c828ded6d5f56aaef8e79b58360001b6110c6565b61415b7f9f04c2a6477f950e7f3d42ed6ec26ca5de6babe1dd81b3fccd24e73f784547a260001b6110c6565b6141ac826000808673ffffffffffffffffffffffffffffffffffffffff1673ffffffffffffffffffffffffffffffffffffffff1681526020019081526020016000205461644f90919063ffffffff16565b6000808573ffffffffffffffffffffffffffffffffffffffff1673ffffffffffffffffffffffffffffffffffffffff1681526020019081526020016000208190555061421a7f270dba37f6288601d065f163c3793db0cde2423da513db1fe7a97c23b105ff0360001b6110c6565b6142467f76d3269e658fa7f71f77875d98619c15bfd26b98707691dca3742308669a244060001b6110c6565b8273ffffffffffffffffffffffffffffffffffffffff168473ffffffffffffffffffffffffffffffffffffffff167fddf252ad1be2c89b69c2b068fc378daa952ba7f163c4a11628f55a4df523b3ef846040516142a39190617b6d565b60405180910390a350505050565b60006142df7fe10e7b24bd4523c6da60a51ad3b780e67c771b06d0de1c5eca90c0b854c1105660001b612545565b61430b7f037bdbcd32c3bbe29dda7fa2ae2c3305233a2ff28d10859a5c60e42a3f915b5460001b612545565b6143377f4d880a132c55852e5896cc56a0afc9a5e7f67fae895e2ca89305a97497bafdf360001b612545565b7f00000000000000000000000000000000000000000000000000000000000000007f00000000000000000000000000000000000000000000000000000000000000007f00000000000000000000000000000000000000000000000000000000000000006143a2616c6d565b306040516020016143b7959493929190617a7d565b60405160208183030381529060405280519060200120905090565b6143fe7f85f6e973e27fefe6b402922e42c696292a75244f5b976f605028fdea4699fdb460001b61091c565b61442a7fb10f7bd59784e750806ab747485664fe82e7b9614d8271965117987f8299d0fa60001b61091c565b6144567fe0d1b3afed10517d38229a198eae9b028645c8411b030a95f9ecdfed78d7f1a760001b61091c565b614469614461613c8c565b610192613e91565b565b6144977f15d95f31e3d8f03151acd877860824e2519b31cd2266b6fba4edb44cbdb6c22260001b611607565b6144c37f38ad2a21f4d1c04e6cb0f080d5cdd6d3022ddf45c9f377671946cd117d822bd160001b611607565b6144ef7f3e36b14fce78b6bf0464904742fa4c0a6613e679a9a28ebe53dca71fe4e60bf660001b611607565b61450264e8d4a5100082101560cb613e91565b61452e7fd60a4f70eb6053527b4b053cd5a77b5bace58afa8e8e75dfd50ef74e4af1c1e160001b611607565b61455a7f78b15eda81ed3b086390139801e79321ec47ce9dd0ddddadda5f61ad8f0ee6dc60001b611607565b61457067016345785d8a000082111560ca613e91565b61459c7fe790af49b7039ad5804739366b3f4b00b66d6125a6a7b5dc6e60fb67c69dcf3860001b611607565b6145c87fc3448cf910456c71319f93b4eed444d0b4b3beb4f18162d29fb0650e19dcb70360001b611607565b806007819055506145fb7f5569b07c075afff8b8336bd4457561ad9d7ac55a0a2be9314e7a0a03656a72a260001b611607565b6146277fd02170ba3f9e153c416243c66b46d40d5b3d10b1565f5c695620da523ade58c460001b611607565b7fa9ba3ffe0b6c366b81232caab38605a0699ad5398d6cce76f91ee809e322dafc816040516146569190617b6d565b60405180910390a150565b600061468f7f52df8d3f777dcd877c77bb7eb407d4d83ca48198a8a3d6fc35557cd451b8da7960001b611607565b6146bb7f669546164dce40e01e2804b3a9eb7730f7e569d7762772d6d80e2bbf6025a5e060001b611607565b6146e77f1c3f0db1856f89ecdb7e511f0ed70f043bcd4dfb569686be02a3230f8cfc571560001b611607565b7f0000000000000000000000000000000000000000000000000000000000000000905090565b6147397fb3c3ab71be1e60ccf374cd9c337f5c94a091891a248ffd88815355718b38f5cf60001b6165a4565b6147657f23a34501b370f017ac0b72a81570395801e215d15ea760153f3abbf09eb0167360001b6165a4565b6147917ff006c498284d347b1bc1a6a27ae455ca2c77693be39b0bf5701f8175df7eb3a460001b6165a4565b61479e8183146067613e91565b5050565b60006060806147d37f37fadfc3cf683350ef8c5dba2171f4e23bfe17f0e4e6e4059f7c46ffcc9f42b860001b612296565b9750975097945050505050565b61480c7f08dbde42dfd0ad88c6549b16b2375acc281e9bdd0a5599e45708afb6506c262460001b611607565b6148387fa5e550d514e36d3f642e25e71c8a41e9b9171a96a64b72a41be9e6547a6ba75a60001b611607565b6148647f590ab00b70532107909c9a0fd15f44cf2aa3b54933fd446c85a01374f1dfe8b160001b611607565b60005b61486f614661565b811015614921576148a27f88510d421dde6614b09ee776dca49ab68a1c0fc8f0117a112432bb0686cbcf5760001b611607565b6148ce7fdbc7277606c0a6ac9d146229a77c6c93ca854ea89d985ca1d0d1e04871c7835960001b611607565b6148fe8382815181106148dd57fe5b60200260200101518383815181106148f157fe5b6020026020010151616cf9565b83828151811061490a57fe5b602002602001018181525050806001019050614867565b505050565b6149527f0f4b02917c3d0a0ebaab97197231e7d8f5070ff04d4d5853be2cc8cc5af8f89c60001b611607565b61497e7f3b1bb8ba04d53823e5be3aaf1aec2e6b6aa7740d20c56adf71792a6e25abebd360001b611607565b6149aa7fa5a85c6163d0ca215bf94310ca620066cb6480392d7937dd265d58f4106d759b60001b611607565b3073ffffffffffffffffffffffffffffffffffffffff163373ffffffffffffffffffffffffffffffffffffffff1614614b8557614a097f0150e73d5b9134c917dcd4387816bf3c707fe698f658627d5090182c93b0f49560001b611607565b614a357f46e60008f80391f656e7816973689f241700606afe699b2ff0df46fc5235866060001b611607565b614a617f6c8aedb441e4d548dc7a91ed1eb928521d3e50f054520501ad067592432652ee60001b611607565b60003073ffffffffffffffffffffffffffffffffffffffff16600036604051614a8b9291906178d6565b6000604051808303816000865af19150503d8060008114614ac8576040519150601f19603f3d011682016040523d82523d6000602084013e614acd565b606091505b50509050614afd7f19c38837f1dc616600472223d191e6a3549e8373932c61e0737ebce58519dadd60001b611607565b8060008114614b0857fe5b60046000803e7fffffffff000000000000000000000000000000000000000000000000000000006000511660007f43adbafb0000000000000000000000000000000000000000000000000000000082141415614b68573d6000803e3d6000fd5b6020600460003e604060205260243d03602460403e601c3d016000f35b614bb17f2c079a612babf7a847bd84d70cdd7400d590274d9e89983fda7e89061b7baad060001b611607565b614bdd7f6c2533c0e68b1f5c8647a4a53a29424cbf51eaaa56326acf7ac8cefbffbd36ca60001b611607565b614c097f1c414ddecd5d19123b887c5f54684e8c8c4f0103cf2277188f738eec362c5d4460001b611607565b6060614c13614da0565b9050614c417fc35d16308c758935c32594cf012de7978721c10e781be1b2d609d2249a89a93160001b611607565b614c6d7f07d3d2ffc0884a402e47a3a8938bd475f659fc7407d848db38739105df3e6bd060001b611607565b614c778782615a32565b614ca37fb210d99982e1172ebdbd82ee3c183093a631f2d55f8eec64cf95cdc541753bc260001b611607565b614ccf7f811c750284adba2e9d5b1f8b6433a09318dc3aac238b1deac1f4738921e772f260001b611607565b60006060614ce68c8c8c8c8c8c8c8c63ffffffff16565b5091509150614d177fba280de9c7b230f2188cebafb124bd74474cdbe6b9ec7d194763d6792b5a65e460001b611607565b614d437f39e9084cfb41ef0c9c23ee855a52a925ac9991e5e22d84924d4c55d1748da7f560001b611607565b614d5181848663ffffffff16565b614d7d7f9cd5cedf148b5eaca3222353f2e8a16b1e64f8dceca547d18d0770b75a984def60001b611607565b6020815102602082038381526343adbafb60208203526004810390506044820181fd5b6060614dce7f64bbf66d31bb8fcafdb0d4c05c587c14d34779f0258bf024715760072a03a64c60001b611607565b614dfa7fa392891145e17abb42bee3e82b3a0d82ad3c913cd8b5bbc103cf852ad2e463f160001b611607565b614e267f396563da9e9cf4b746ce108bfbfceb0e3db3e8b63dbed11b2d146081145e2c7760001b611607565b6000614e30614661565b9050614e5e7f801ec1b2d571a485e07e5e94e7d0faf423943b8bbac8c58b2d7a42524e4d3e2c60001b611607565b614e8a7f111e844211333f1bddb2caa4106961a692100ba8d61936af7b0a5d3adbca04cd60001b611607565b60608167ffffffffffffffff81118015614ea357600080fd5b50604051908082528060200260200182016040528015614ed25781602001602082028036833780820191505090505b509050614f017f1bdf7cef3dcf27698163dbbf92a97f1e4f59abbb9e50a2a3292d13cb659fc57360001b611607565b614f2d7f7a4b1576ede339435c01c421db11f5796a3a2ff9d8a6cc8022a8967665cd36c760001b611607565b614f597fc9fbda078f4c5cbd1a5f98837cae9b30622f4fc0c6a6eeb700d9e73ca64fa16760001b611607565b6000821115614ff957614f8e7f0d9d615375d675772bb2d2e823965a9dc482e1cf312819a5d7a8ef983e64e64160001b611607565b614fba7f2a95bdf45cbaa84bf403cab0aae72ca7aad0baf29771e0c83e8a847886564b0d60001b611607565b7f000000000000000000000000000000000000000000000000000000000000000081600081518110614fe857fe5b60200260200101818152505061505b565b6150257fc672011e9008447488f0cb51f1a3000dc8ed99d3c791c00c65b068d56f9f880660001b611607565b6150517f032861f547e431e456a586b4aa4624c0a392cb3f1fba0ee2c346a14b33f2dc7160001b611607565b8092505050615a2f565b6150877f1494dfa1d64c082fe87e7101a7abed5da6470da63c285ec2c9f48da778741bef60001b611607565b6150b37fd786de8dc48d9587d292c8089142745a9febbec61c33b50a7aa5a917a584ec7a60001b611607565b6001821115615153576150e87fc65d649bc823d613912161818a82f1bd3ad9a189ed15d835614a261ae0e5222f60001b611607565b6151147fae646d66409a1b9082e2dff878a071ace295e057cddaeef0450cfaad5978611d60001b611607565b7f00000000000000000000000000000000000000000000000000000000000000008160018151811061514257fe5b6020026020010181815250506151b5565b61517f7fa1a468b3ccbb74bf74ab6f608023ca4e9acc824dfc746b02a53962a63518a86360001b611607565b6151ab7fd12b9bf4ac3e5335f11b47a75786974a04fe9531183cc9ab8f879953201d203b60001b611607565b8092505050615a2f565b6151e17fe2c54cad83d597c1ec566535d5fbc8a855c95302e042a07ac53b1969438b76cd60001b611607565b61520d7f2abffefbb5aa426829586faab7c3945b86a2af71e75c8d0c33ea198a47d0db3a60001b611607565b60028211156152ad576152427fb5a39b7168aaf7db482fdfcc1dae7dd09365f71a168c5012ad8e0318ace5b10f60001b611607565b61526e7f58cc755149857cb6cdf2407001712864f9c48faea4037d61b3360bf5b974731660001b611607565b7f00000000000000000000000000000000000000000000000000000000000000008160028151811061529c57fe5b60200260200101818152505061530f565b6152d97f5c1de41ca34e9de5080c9f418adca907ef53ef2f861703d1dec5f342bc67c68b60001b611607565b6153057fa2c6b1ff8c8bd442b6fc9b45a6ba002a67007e8998ad5a1add8c91ef3055898e60001b611607565b8092505050615a2f565b61533b7fb2adfff222149fb1f10eb79ab5425611c0de7fafed784cd2c554177b6b03fd7e60001b611607565b6153677f9c4a2884d98195fbd1288704b409bcc07beead2cbd0c3aea22f6fece4c1616ec60001b611607565b60038211156154075761539c7f915fc1274c4da77bbd0e0c8b55d285002f7d3da714bed05ca1b7cb626a9abdd960001b611607565b6153c87fda0b00ff6f9a02d2b8cab8f16b6ede45d43a6ea54f6e20644c383b4c14c8df5860001b611607565b7f0000000000000000000000000000000000000000000000000000000000000000816003815181106153f657fe5b602002602001018181525050615469565b6154337f019f8832fde5d04fa3cea29b93d9d801017fc688589ae1049055fe18c7fdc49160001b611607565b61545f7f1d40924a2f1e001ad0fe7ab839d0a10a330707bf78dd7f35c68541381298046d60001b611607565b8092505050615a2f565b6154957f75e69d1e5054f490c35ba538cad624fdac97202205d2aa5262a80a46651eaa5c60001b611607565b6154c17f4f306ddd440ad5bb7c7510dc1b1138cc28d6a3c0593f994cf20d28eb595a516260001b611607565b6004821115615561576154f67f4b33379038bf7d9e151e9519b018c8283fe02a9b96478fb9a4418601f3db0ed260001b611607565b6155227f4c24cc38f70730a6508f0a3cb22f3b3d84595e9d8420a2f25f5bff8d71b04d0360001b611607565b7f00000000000000000000000000000000000000000000000000000000000000008160048151811061555057fe5b6020026020010181815250506155c3565b61558d7fe24aa7b8788f2999175803ab0af33d8a6f52a1bc0d35c0309b6beb03aa18a19560001b611607565b6155b97f88ebfa8b0e8deccdb84f932ac2f3a2a355a459850b1e413b3e42e53a5e2c673c60001b611607565b8092505050615a2f565b6155ef7f850d6855b6565407221f800914cf4bf28e4e5416bf07bc6644cee0645cf60a3960001b611607565b61561b7f258272d25fae341d694fbe8c28f95fab586c44312fcd90aeb4b9e1682710792b60001b611607565b60058211156156bb576156507f89f740081d98d6f1c98e6f403539d3dde78bef1988be3a3afafc1bfe93e14b6060001b611607565b61567c7f51aadbfb5c0384baf44b0877e98e1e64f66712444142c211d2115ac13beac70460001b611607565b7f0000000000000000000000000000000000000000000000000000000000000000816005815181106156aa57fe5b60200260200101818152505061571d565b6156e77f58c82c2c80a388279368bf259e40112d976f505e30d12afad46bb47375b0e98360001b611607565b6157137f030a39a85df11845bf366ede72860bd4a3403ae00a9ae50b6372477a2f593b6e60001b611607565b8092505050615a2f565b6157497f9ac1de9528e933851db19eeeb6c70058ef2948b3870493bd4c366d2f7fdec08d60001b611607565b6157757fed14a2346f37a94491b51290d6650501c4d4ec4253189ea543b4bc72bd167f1b60001b611607565b6006821115615815576157aa7f4d2faf55ba9580c423991b77940ead557134aa3eba66997adc756a34e344597660001b611607565b6157d67f64e21e02e6775a3df4ae6b7cd0165fca2708a2903d9dfd77fedaa05f512e1f5160001b611607565b7f00000000000000000000000000000000000000000000000000000000000000008160068151811061580457fe5b602002602001018181525050615877565b6158417f78a3de33b8d7129735e0e8bcffff0c14e9f0e7da9380b4db609aa1fac01d4dbb60001b611607565b61586d7f6cb8a74c64f4dec3933d64db61e76922d5676c1d8488ee2fed450444d99dcf0060001b611607565b8092505050615a2f565b6158a37f297dfae112d533fc9172e11ddef6838c1da8b504dc5001bb197a7fb43f2d6ec760001b611607565b6158cf7fae3abeeee878dc99ea9b8503136a504ad9933d0dd61f5d9b89b9820f0d22284060001b611607565b600782111561596f576159047fca63da5973b368e6d1e61bf292e0a269ab79fb7c553873ea0b259886aa0c5d8960001b611607565b6159307fd166ea4476f5d9694fb0ca7b89d908dac6cd6d57982efe26dd56951a8aafadf760001b611607565b7f00000000000000000000000000000000000000000000000000000000000000008160078151811061595e57fe5b6020026020010181815250506159d1565b61599b7fe237e4b65b0117a033b94079ef84d5fa54ef77cdb8413e741e5a57f3b5695a9860001b611607565b6159c77f0ef7cacc4b169a50819fbdff0c78a95d336a5d9acb3bea258cb9a7fa31fee65a60001b611607565b8092505050615a2f565b6159fd7f1c4205a95773eb17daa349a466999769c3250c1490ee749938062f82d0c4b66e60001b611607565b615a297f57dad830d62749af81e778596944d9e6d514b1ab0e2dbdb91970bf820f3899fc60001b611607565b80925050505b90565b615a5e7f4629bfa227a839800e6251364866c96ba5fd044d8cb53dc9f54a762ddb12d4a460001b611607565b615a8a7f5926da80669851c82fb84d6695b75a8854e1f7e954624510256e211e681430de60001b611607565b615ab67f4baf7c8f1f3fe85d01a8c40265e25ffa6fd717df7ff7b1b85a8d2805a92acbac60001b611607565b60005b615ac1614661565b811015615b7357615af47ff2652356f20ce5d02c75fd7dee200bd00a3bc26799457b974d73656cd73f2abb60001b611607565b615b207f7d691bc9c9d7485bd33386050d08f8f7fc0da4b6466400506193fef460134f6a60001b611607565b615b50838281518110615b2f57fe5b6020026020010151838381518110615b4357fe5b6020026020010151616df8565b838281518110615b5c57fe5b602002602001018181525050806001019050615ab9565b505050565b615ba47fd0cdf1539ece1f2be7de9cf2849560a641f4556089e12e31dc8aefa09458737060001b6110c6565b615bd07f135db87213a041ebc173b9a0f910e966f2157b381ba85475a314699ffeeca1b460001b6110c6565b615bfc7f4f5976616bfbea85925bfd68663569977affa812887b04d8f4e46b052e5bf11860001b6110c6565b60008060008473ffffffffffffffffffffffffffffffffffffffff1673ffffffffffffffffffffffffffffffffffffffff168152602001908152602001600020549050615c6b7f3fd29eec05703347dfea36cab0581054301cffc581f1d9c60c785623917052f560001b6110c6565b615c977f0a7194531f09dfff115cb817a6b833c5a83cdcc40203a20fae9b3d1c0610d04260001b6110c6565b615ca682821015610196613e91565b615cd27f9ee20b2f718c833a6b54e36136191ec02117c6649d0f2bf14fff4a16d7fedf9060001b6110c6565b615cfe7fbf960ac6d0861bd34aa85dfee45c8fcd04cfc624e5cda2d2c239b208ca5d5f9d60001b6110c6565b8181036000808573ffffffffffffffffffffffffffffffffffffffff1673ffffffffffffffffffffffffffffffffffffffff16815260200190815260200160002081905550615d6f7fbb42212863e1b96fb69175b1fc3889004148f7b98211105dd90756392eec2f4e60001b6110c6565b615d9b7f675aad2442070cb6006c3883109cf18220df6f4420ea174d96cbf7353b3f17d360001b6110c6565b615db08260025461358590919063ffffffff16565b600281905550615de27feb896204d6b8acd7e985eb63222b952b7566f34ad493da2295c659295be1b23760001b6110c6565b615e0e7f13332ea05c8788b77d4cd72067db64819c9a581ad7fc0b8b482e6d8f3a7d2f3e60001b6110c6565b600073ffffffffffffffffffffffffffffffffffffffff168373ffffffffffffffffffffffffffffffffffffffff167fddf252ad1be2c89b69c2b068fc378daa952ba7f163c4a11628f55a4df523b3ef84604051615e6c9190617b6d565b60405180910390a3505050565b6000606080615eaa7f0e1069b745d0c264e8b27301b6c37580e91da17cf05f21d49d8e640bc4aaf69e60001b612296565b9750975097945050505050565b615ee37fe1d920667056dc064a0ac2ea129295d4ab7f17ffb9825cf7dbabe17dbb788d1c60001b611607565b615f0f7f027a7801b45615b51a66cc8c3fd48bed3b7a15112374153b853199a850be113460001b611607565b615f3b7f5e3aa24270b512bd4bd9ce35373cf66f7171e5fde19dcb69d4227b25d2ef8cec60001b611607565b60005b615f46614661565b811015615ff857615f797f2ecef83b803cf945c9e89923ab1054b81a3c07a7b0b9affe9e1c694cddbdce9d60001b611607565b615fa57f074e7df211bb691b95c7e8327a2f91e0d50184877909e3f04eacd10c7539ae5960001b611607565b615fd5838281518110615fb457fe5b6020026020010151838381518110615fc857fe5b6020026020010151616f60565b838281518110615fe157fe5b602002602001018181525050806001019050615f3e565b505050565b600061602b7f1b29683c6d9dde1673ce697938ab51f6536653808bf6db6eea3597ffe9aa906a60001b611607565b6160577f38ac9bd4700929cf18cdff60b64fbec3f01130f4dac228d844d0e0448895dd0760001b611607565b6160837f11110b64f87dba69b04f792a1bec0032310e5696bc91d880f427af3e2d83848e60001b611607565b61608b6121ea565b73ffffffffffffffffffffffffffffffffffffffff1663aaabadc56040518163ffffffff1660e01b815260040160206040518083038186803b1580156160d057600080fd5b505afa1580156160e4573d6000803e3d6000fd5b505050506040513d601f19601f82011682018060405250810190616108919061769e565b905090565b600061613b7f4162dfeea5487a2e490df35ab6c4995319cb016658ef6478e632b71af599fcb360001b612545565b6161677f52a922e27af0a55002a9023a873c43cc837d583fe0362e21bdb684f84be2b0ed60001b612545565b6161937f445bb281dbba1baa57c2b3af376885c1ba274636fe85e7d63faf25499e6f09fb60001b612545565b61619b6142b1565b826040516020016161ad9291906178ef565b604051602081830303815290604052805190602001209050919050565b600060606161fa7fad11ee6cffa410e8603e1419936582e35682ff3a5b033b3413ff436cff33bc0460001b612296565b94509492505050565b61622f7fe1e59a72b6abb196e5705ee38d9bd6c1a29ca10376e2fa3c0e8903f8cdf7949960001b6110c6565b61625b7fadcbe213569d514454727a270e9c70952205231cc4abfb6ea68bde4ab6f8767660001b6110c6565b6162877f15b6e925556b308d3ad1066043cf26b7202f1674d8fc02119a0401f1f8c637e860001b6110c6565b6162d8816000808573ffffffffffffffffffffffffffffffffffffffff1673ffffffffffffffffffffffffffffffffffffffff1681526020019081526020016000205461644f90919063ffffffff16565b6000808473ffffffffffffffffffffffffffffffffffffffff1673ffffffffffffffffffffffffffffffffffffffff168152602001908152602001600020819055506163467fd4a2ff87a6d0da870c806cdf81fdac8ec28fbeb80a5082414d54ccfe4b52717460001b6110c6565b6163727f681dc1796f532e85b0ef7b3f9d671daade57fc56a840eac1e3d1d2ea1f30f08e60001b6110c6565b6163878160025461644f90919063ffffffff16565b6002819055506163b97f915670e06d3230875eb18467c82d19ee89b9b46317113ae387454d8cf437261860001b6110c6565b6163e57f068040d6e85f05c180ffbfaab7da32c5a421878520d59c1d49ab8de36152a65f60001b6110c6565b8173ffffffffffffffffffffffffffffffffffffffff16600073ffffffffffffffffffffffffffffffffffffffff167fddf252ad1be2c89b69c2b068fc378daa952ba7f163c4a11628f55a4df523b3ef836040516164439190617b6d565b60405180910390a35050565b600061647d7f980f096ce2354611f661d545348edfcdbcf347f2d4fa9c9e2bc2234b96619b9160001b616931565b6164a97f5203ec7b278d868f845c81d7f208837a954291190f8034ff73f1abf34395aea660001b616931565b6164d57f257b57fe7b6efcf88210c6d37adeac50f6bdc1270dca168497530cb49198dc7060001b616931565b600082840190506165087f2712f69a57bae2ee34b696a2281d5fca60f12eef2753ba12e108837883591b0f60001b616931565b6165347fa9717274421667e304f7b258221f6f83cbc1a3c12db3869b2bd07495ef02a7c060001b616931565b616542848210156000613e91565b61656e7fbb23a54f86bc4ea5e593a05f1ed17e1f4ec085fd337eb065fd05171873fa78d860001b616931565b61659a7f59b5f75a5714feab22828cb70c6ca1fd02547b7956d33b95658dc4dec174169460001b616931565b8091505092915050565b50565b6165d37ff81347eb68f16450d5e669cebec6ee7a1fa5ac5ea54cd0cdcca39116f645fa5160001b6165a4565b6165ff7fe2a1376ebe4e4cec489f9744b050322118d55b97aa16438a57ddde1335a14c8f60001b6165a4565b61662b7f527bb7a14e0d56ef6331f8d18810dc69d55965123a043ae607b318951a18a68160001b6165a4565b6002815110156166be576166617f9afca44e5a82aedd5e366b527c36bdc4739ee9ac3bc7d768ec09ebd698c8eef560001b6165a4565b61668d7f1c6a4a9803e7aa3220d0727f0908a9b07a4f7495fc3876092cfbe666b353d7cc60001b6165a4565b6166b97fef223087e97cb97d037249402a85ea171ac9fea3d63d1de605fd9141125becfa60001b6165a4565b61692e565b6166ea7f81e9a490ce557e182511bfc6eaec796f0322309dc5b152b517ee96f2e7523faa60001b6165a4565b6167167ffb4857c6ffcf3a97a276c2d8a5e4a6bc4c22de16aeabff5659e835a97bd18bd560001b6165a4565b6167427f1d803e7d620c2a8dbc6a46d8f8a07bb3206ccaf62422d60ec7bd0c1dc0fc794360001b6165a4565b60008160008151811061675157fe5b602002602001015190506167877fba0aafccaa36bdc35e78716c86c21b686b91dac66af6de9e3e64db58f04732e260001b6165a4565b6167b37f5c1d4f8cccfdd4780c5784c21dcb14d0f579bb0dae794331f0cbb2ff25aa561260001b6165a4565b6000600190505b825181101561692b576167ef7f0a21b32c354f4bc66e9d4c10e74a9300712d3fa7e505b38c9e20783887529f3660001b6165a4565b61681b7f21642a1c91cfe281a527673f1bc34858dc6507709de16fb4a1697722a7ca219760001b6165a4565b600083828151811061682957fe5b6020026020010151905061685f7fa82b63eab5a33f22c51256249a5d9706a615ca7d35b5fb95eeea2b93ead8c2a760001b6165a4565b61688b7fdd7e1a5a6e71679d2539db9e69626bf9a32f74614762ae4cd7a007979f4cfb4c60001b6165a4565b6168c48173ffffffffffffffffffffffffffffffffffffffff168473ffffffffffffffffffffffffffffffffffffffff16106065613e91565b6168f07fb9b2f9cf36db3000ee06b288a33fd50865404ecb93038917fbab684585d4d4a160001b6165a4565b61691c7f250b0ef482be923352767281f9a34a6bb54fd53f27f97f94adffc7fea4dd254d60001b6165a4565b809250508060010190506167ba565b50505b50565b50565b60006169627fb63ff57fff44fad519b51dd9a1628b458ce44dc09407b3781c94536139b9b4ca60001b61140b565b61698e7f0f215ac44a96153e6f920fdc8f381567185da65e2862fe68660c1e8d7701587e60001b61140b565b6169ba7faa101d66f4b55b14bb1e5546f7d6152e074f3d4bd8f672f5ff001e85fd95fd7860001b61140b565b73ba1ba1ba1ba1ba1ba1ba1ba1ba1ba1ba1ba1ba1b73ffffffffffffffffffffffffffffffffffffffff166169ed61213e565b73ffffffffffffffffffffffffffffffffffffffff1614158015616a165750616a1583617180565b5b15616adc57616a477fd89fb1bac5943510950b517a984e0c3361de9936cc20fbc0c4a72da5127260ce60001b61140b565b616a737fd6b91357bb8efe53ea93d0d0fa18625ef9127c94af5f7413813d720a71eef6b760001b61140b565b616a9f7fbb44c612bb203fe0cd4a5094c43d1fa6fbe0852fd53c227de69b8a906595bb2460001b61140b565b616aa761213e565b73ffffffffffffffffffffffffffffffffffffffff163373ffffffffffffffffffffffffffffffffffffffff16149050616bf7565b616b087fd833c4463927603cd19d35ee61d9b68a8d2bb9f9b41f3e14672ab3991080546360001b61140b565b616b347fe8b0b249a2c9f77dfefb167b170317fe940cbabf6bb0d842292e1770fee4f96660001b61140b565b616b607f6e946359bc50f9875b9b5dc4ec74e06668518bfc0326104e1cd992e2c37f065e60001b61140b565b616b68615ffd565b73ffffffffffffffffffffffffffffffffffffffff16639be2a8848484306040518463ffffffff1660e01b8152600401616ba4939291906179e5565b60206040518083038186803b158015616bbc57600080fd5b505afa158015616bd0573d6000803e3d6000fd5b505050506040513d601f19601f82011682018060405250810190616bf49190617555565b90505b92915050565b6030600a820601600a820491506030600a830601600a830492506030600a8406018060101b8260081b8401016642414c230000000160c81b7f08c379a000000000000000000000000000000000000000000000000000000000600052602060045260076024528060445260646000fd5b6000616c9b7fd8e2832ef6720767deec69f44ca3c3cd8b861b255a67dda4205578fb7165a1c060001b612545565b616cc77f5df0caf98b88b3eb9f27ec4ab7f0297f4988b55185a2490903332262f13a817960001b612545565b616cf37fb1fe59e6880d8042919f1fb255ef6b982ebb7b8d94358d2dc30eaaa4f095e69860001b612545565b46905090565b6000616d277ffd101f38d26e6d17af50d38c93b09fafe57fb5eafaf7b7dbd74da76698b8c1b860001b616931565b616d537feaf5515690878b5fffc1395c89258754d675be05b18ec31034c61379a0ac309e60001b616931565b616d7f7f494388132ab0669abd84a4cea7d3270705c1e5787b1023b89af997e631df29c260001b616931565b616d8e60008314156004613e91565b616dba7f63043e6e8ac71692ef40fd971a32b5acc860db477c14ce7a3e96c6bda6edf25860001b616931565b616de67f255ba90670870639d340d043cc9ae293ea5cfd9c68a6c4acc63601d708b0b5ff60001b616931565b818381616def57fe5b04905092915050565b6000616e267fc8d6f319fc1e78e2b93903d8d2ffb99089ebaffbad0e0ddf0f13ca20d7f7213060001b616931565b616e527fc973b8114f6c35c573de6ab7982d15d6df7383ddf1407b83fa98425285e2b45760001b616931565b616e7e7f45cab69ad4f840bababdba128d4f63075461182eff5102f8263aa61da0d6ae1c60001b616931565b60008284029050616eb17f52c348b58a057296c497129588d62064f502229a926e3d9f777c6e19299a497d60001b616931565b616edd7fb095e5fe885899d99f77a57d70692a296ae3ffe7ae3c10292b19031a5312ae2a60001b616931565b616efe6000851480616ef7575083858381616ef457fe5b04145b6003613e91565b616f2a7fa27c0f3d745cfd72daab317c10fb6f90b4e3239f60d65da2359a120c0840904460001b616931565b616f567f7b3ed36c13b40c8b52d3edf9a7e4fa9113cc88f18b5eba84fda1716d2c8f5eec60001b616931565b8091505092915050565b6000616f8e7f076c732c2f1eda98894f613fd10f682bdc8e068bcf3b2f48f7c8167b0b0b606260001b616931565b616fba7fb6c32c9a49d25416885d16929db85d1cf74eb1a3b112515a238c04c95689955960001b616931565b616fe67f4d56b22f880357877429838ec70b7deeff30a2b8d688ce52791af9e06afa2c5a60001b616931565b616ff560008314156004613e91565b6170217f63e4c3f0bb34e74d194bb0f9574176dbde0e4aa394857f5d6cb6a5843ed7b22760001b616931565b61704d7fe608d21afd9a338fdae4d19312051b4c461f88cc2666362df73c65122fc92f6860001b616931565b60008314156170e3576170827fd85d64cd3a471737b81f667473d406153692320e4cd8b650bda662ad54a1995460001b616931565b6170ae7f10d7fdc1aca673c59e29a60f16eedb92062c190e054b4d7f2c9a39e6794bd47560001b616931565b6170da7fb21a42b5f35e6fbd0da8c8a8f2d4191258104470944ffa31fef6da01eb22115660001b616931565b6000905061717a565b61710f7f5d69f547a910d75a19f4cf840a90f6035bf85b5941d283637fe2373b27865e8c60001b616931565b61713b7f8a80c9e10f686134576e1bb9da8e1542dd95fcac9b1692ec0d347c60a518ee0860001b616931565b6171677f360983f0e904f85b49211d9b225373f212327acab997a7d89b518d2a753e9e5b60001b616931565b81600184038161717357fe5b0460010190505b92915050565b60006171ae7f417fc229dda14975d4570a69b822de945d3308d731c6409cce8004cc417264b660001b61140b565b6171da7fce762d2f8f3df80b9ad5d50b5b242f057acb4fbe85a36c8ef4ea48eaad41abb960001b61140b565b6172067f3f021282b28cf8cfaece8adefbcee511d20a51781a376db7b7bf98f11695d93760001b61140b565b6172166338e9922e60e01b611efd565b82149050919050565b60008135905061722e81617e0b565b92915050565b600082601f83011261724557600080fd5b813561725861725382617c00565b617bd3565b9150818183526020840193506020810190508385602084028201111561727d57600080fd5b60005b838110156172ad57816172938882617374565b845260208401935060208301925050600181019050617280565b5050505092915050565b6000813590506172c681617e22565b92915050565b6000815190506172db81617e22565b92915050565b6000813590506172f081617e39565b92915050565b60008135905061730581617e50565b92915050565b600082601f83011261731c57600080fd5b813561732f61732a82617c28565b617bd3565b9150808252602083016020830185838301111561734b57600080fd5b617356838284617da4565b50505092915050565b60008151905061736e81617e67565b92915050565b60008135905061738381617e7e565b92915050565b60008135905061739881617e95565b92915050565b6000602082840312156173b057600080fd5b60006173be8482850161721f565b91505092915050565b600080604083850312156173da57600080fd5b60006173e88582860161721f565b92505060206173f98582860161721f565b9150509250929050565b60008060006060848603121561741857600080fd5b60006174268682870161721f565b93505060206174378682870161721f565b925050604061744886828701617374565b9150509250925092565b600080600080600080600060e0888a03121561746d57600080fd5b600061747b8a828b0161721f565b975050602061748c8a828b0161721f565b965050604061749d8a828b01617374565b95505060606174ae8a828b01617374565b94505060806174bf8a828b01617389565b93505060a06174d08a828b016172e1565b92505060c06174e18a828b016172e1565b91505092959891949750929550565b6000806040838503121561750357600080fd5b60006175118582860161721f565b925050602061752285828601617374565b9150509250929050565b60006020828403121561753e57600080fd5b600061754c848285016172b7565b91505092915050565b60006020828403121561756757600080fd5b6000617575848285016172cc565b91505092915050565b60006020828403121561759057600080fd5b600061759e848285016172e1565b91505092915050565b600080600080600080600060e0888a0312156175c257600080fd5b60006175d08a828b016172e1565b97505060206175e18a828b0161721f565b96505060406175f28a828b0161721f565b955050606088013567ffffffffffffffff81111561760f57600080fd5b61761b8a828b01617234565b945050608061762c8a828b01617374565b93505060a061763d8a828b01617374565b92505060c088013567ffffffffffffffff81111561765a57600080fd5b6176668a828b0161730b565b91505092959891949750929550565b60006020828403121561768757600080fd5b6000617695848285016172f6565b91505092915050565b6000602082840312156176b057600080fd5b60006176be8482850161735f565b91505092915050565b6000602082840312156176d957600080fd5b60006176e784828501617374565b91505092915050565b60006176fc838361787d565b60208301905092915050565b61771181617cbf565b82525050565b600061772282617c64565b61772c8185617c87565b935061773783617c54565b8060005b8381101561776857815161774f88826176f0565b975061775a83617c7a565b92505060018101905061773b565b5085935050505092915050565b61777e81617cd1565b82525050565b61778d81617cdd565b82525050565b6177a461779f82617cdd565b617de6565b82525050565b6177bb6177b682617ce7565b617df0565b82525050565b60006177cd8385617c98565b93506177da838584617da4565b82840190509392505050565b6177ef81617d5c565b82525050565b6177fe81617d80565b82525050565b600061780f82617c6f565b6178198185617ca3565b9350617829818560208601617db3565b61783281617dfa565b840191505092915050565b600061784a600283617cb4565b91507f19010000000000000000000000000000000000000000000000000000000000006000830152600282019050919050565b61788681617d45565b82525050565b61789581617d45565b82525050565b6178a481617d4f565b82525050565b60006178b68285617793565b6020820191506178c682846177aa565b6004820191508190509392505050565b60006178e38284866177c1565b91508190509392505050565b60006178fa8261783d565b91506179068285617793565b6020820191506179168284617793565b6020820191508190509392505050565b600060208201905061793b6000830184617708565b92915050565b6000604082019050818103600083015261795b8185617717565b9050818103602083015261796f8184617717565b90509392505050565b600060208201905061798d6000830184617775565b92915050565b60006060820190506179a86000830186617775565b6179b5602083018561788c565b6179c2604083018461788c565b949350505050565b60006020820190506179df6000830184617784565b92915050565b60006060820190506179fa6000830186617784565b617a076020830185617708565b617a146040830184617708565b949350505050565b600060c082019050617a316000830189617784565b617a3e6020830188617708565b617a4b6040830187617708565b617a58606083018661788c565b617a65608083018561788c565b617a7260a083018461788c565b979650505050505050565b600060a082019050617a926000830188617784565b617a9f6020830187617784565b617aac6040830186617784565b617ab9606083018561788c565b617ac66080830184617708565b9695505050505050565b6000608082019050617ae56000830187617784565b617af2602083018661789b565b617aff6040830185617784565b617b0c6060830184617784565b95945050505050565b6000602082019050617b2a60008301846177e6565b92915050565b6000602082019050617b4560008301846177f5565b92915050565b60006020820190508181036000830152617b658184617804565b905092915050565b6000602082019050617b82600083018461788c565b92915050565b6000604082019050617b9d600083018561788c565b8181036020830152617baf8184617717565b90509392505050565b6000602082019050617bcd600083018461789b565b92915050565b6000604051905081810181811067ffffffffffffffff82111715617bf657600080fd5b8060405250919050565b600067ffffffffffffffff821115617c1757600080fd5b602082029050602081019050919050565b600067ffffffffffffffff821115617c3f57600080fd5b601f19601f8301169050602081019050919050565b6000819050602082019050919050565b600081519050919050565b600081519050919050565b6000602082019050919050565b600082825260208201905092915050565b600081905092915050565b600082825260208201905092915050565b600081905092915050565b6000617cca82617d25565b9050919050565b60008115159050919050565b6000819050919050565b60007fffffffff0000000000000000000000000000000000000000000000000000000082169050919050565b6000617d1e82617cbf565b9050919050565b600073ffffffffffffffffffffffffffffffffffffffff82169050919050565b6000819050919050565b600060ff82169050919050565b6000617d6782617d6e565b9050919050565b6000617d7982617d25565b9050919050565b6000617d8b82617d92565b9050919050565b6000617d9d82617d25565b9050919050565b82818337600083830152505050565b60005b83811015617dd1578082015181840152602081019050617db6565b83811115617de0576000848401525b50505050565b6000819050919050565b6000819050919050565b6000601f19601f8301169050919050565b617e1481617cbf565b8114617e1f57600080fd5b50565b617e2b81617cd1565b8114617e3657600080fd5b50565b617e4281617cdd565b8114617e4d57600080fd5b50565b617e5981617ce7565b8114617e6457600080fd5b50565b617e7081617d13565b8114617e7b57600080fd5b50565b617e8781617d45565b8114617e9257600080fd5b50565b617e9e81617d4f565b8114617ea957600080fd5b5056fea2646970667358221220072924e3449a990aee409d08220da94278fdbd12b02f00871ae47118cabec14664736f6c63430007010033",
  "linkReferences": {},
  "deployedLinkReferences": {}
}