{
  "_format": "hh-sol-artifact-1",
  "contractName": "MockBasePool",
  "sourceName": "contracts/balancer-core-v2/test/MockBasePool.sol",
  "abi": [
    {
      "inputs": [
        {
          "internalType": "contract IVault",
          "name": "vault",
          "type": "address"
        },
        {
          "internalType": "enum IVault.PoolSpecialization",
          "name": "specialization",
          "type": "uint8"
        },
        {
          "internalType": "string",
          "name": "name",
          "type": "string"
        },
        {
          "internalType": "string",
          "name": "symbol",
          "type": "string"
        },
        {
          "internalType": "contract IERC20[]",
          "name": "tokens",
          "type": "address[]"
        },
        {
          "internalType": "uint256",
          "name": "swapFeePercentage",
          "type": "uint256"
        },
        {
          "internalType": "uint256",
          "name": "pauseWindowDuration",
          "type": "uint256"
        },
        {
          "internalType": "uint256",
          "name": "bufferPeriodDuration",
          "type": "uint256"
        },
        {
          "internalType": "address",
          "name": "owner",
          "type": "address"
        }
      ],
      "stateMutability": "nonpayable",
      "type": "constructor"
    },
    {
      "anonymous": false,
      "inputs": [
        {
          "indexed": true,
          "internalType": "address",
          "name": "owner",
          "type": "address"
        },
        {
          "indexed": true,
          "internalType": "address",
          "name": "spender",
          "type": "address"
        },
        {
          "indexed": false,
          "internalType": "uint256",
          "name": "value",
          "type": "uint256"
        }
      ],
      "name": "Approval",
      "type": "event"
    },
    {
      "anonymous": false,
      "inputs": [
        {
          "indexed": false,
          "internalType": "bool",
          "name": "paused",
          "type": "bool"
        }
      ],
      "name": "PausedStateChanged",
      "type": "event"
    },
    {
      "anonymous": false,
      "inputs": [
        {
          "indexed": false,
          "internalType": "uint256",
          "name": "swapFeePercentage",
          "type": "uint256"
        }
      ],
      "name": "SwapFeePercentageChanged",
      "type": "event"
    },
    {
      "anonymous": false,
      "inputs": [
        {
          "indexed": true,
          "internalType": "address",
          "name": "from",
          "type": "address"
        },
        {
          "indexed": true,
          "internalType": "address",
          "name": "to",
          "type": "address"
        },
        {
          "indexed": false,
          "internalType": "uint256",
          "name": "value",
          "type": "uint256"
        }
      ],
      "name": "Transfer",
      "type": "event"
    },
    {
      "inputs": [],
      "name": "DOMAIN_SEPARATOR",
      "outputs": [
        {
          "internalType": "bytes32",
          "name": "",
          "type": "bytes32"
        }
      ],
      "stateMutability": "view",
      "type": "function"
    },
    {
      "inputs": [
        {
          "internalType": "address",
          "name": "owner",
          "type": "address"
        },
        {
          "internalType": "address",
          "name": "spender",
          "type": "address"
        }
      ],
      "name": "allowance",
      "outputs": [
        {
          "internalType": "uint256",
          "name": "",
          "type": "uint256"
        }
      ],
      "stateMutability": "view",
      "type": "function"
    },
    {
      "inputs": [
        {
          "internalType": "address",
          "name": "spender",
          "type": "address"
        },
        {
          "internalType": "uint256",
          "name": "amount",
          "type": "uint256"
        }
      ],
      "name": "approve",
      "outputs": [
        {
          "internalType": "bool",
          "name": "",
          "type": "bool"
        }
      ],
      "stateMutability": "nonpayable",
      "type": "function"
    },
    {
      "inputs": [
        {
          "internalType": "address",
          "name": "account",
          "type": "address"
        }
      ],
      "name": "balanceOf",
      "outputs": [
        {
          "internalType": "uint256",
          "name": "",
          "type": "uint256"
        }
      ],
      "stateMutability": "view",
      "type": "function"
    },
    {
      "inputs": [
        {
          "internalType": "bytes32",
          "name": "c__0x04981740",
          "type": "bytes32"
        }
      ],
      "name": "c_0x04981740",
      "outputs": [],
      "stateMutability": "pure",
      "type": "function"
    },
    {
      "inputs": [
        {
          "internalType": "bytes32",
          "name": "c__0x07990f2b",
          "type": "bytes32"
        }
      ],
      "name": "c_0x07990f2b",
      "outputs": [],
      "stateMutability": "pure",
      "type": "function"
    },
    {
      "inputs": [
        {
          "internalType": "bytes32",
          "name": "c__0x19553aab",
          "type": "bytes32"
        }
      ],
      "name": "c_0x19553aab",
      "outputs": [],
      "stateMutability": "pure",
      "type": "function"
    },
    {
      "inputs": [
        {
          "internalType": "bytes32",
          "name": "c__0x1ede36ba",
          "type": "bytes32"
        }
      ],
      "name": "c_0x1ede36ba",
      "outputs": [],
      "stateMutability": "pure",
      "type": "function"
    },
    {
      "inputs": [
        {
          "internalType": "bytes32",
          "name": "c__0x27701b1d",
          "type": "bytes32"
        }
      ],
      "name": "c_0x27701b1d",
      "outputs": [],
      "stateMutability": "pure",
      "type": "function"
    },
    {
      "inputs": [
        {
          "internalType": "bytes32",
          "name": "c__0x3694ba53",
          "type": "bytes32"
        }
      ],
      "name": "c_0x3694ba53",
      "outputs": [],
      "stateMutability": "pure",
      "type": "function"
    },
    {
      "inputs": [
        {
          "internalType": "bytes32",
          "name": "c__0x9e5800f1",
          "type": "bytes32"
        }
      ],
      "name": "c_0x9e5800f1",
      "outputs": [],
      "stateMutability": "pure",
      "type": "function"
    },
    {
      "inputs": [],
      "name": "decimals",
      "outputs": [
        {
          "internalType": "uint8",
          "name": "",
          "type": "uint8"
        }
      ],
      "stateMutability": "pure",
      "type": "function"
    },
    {
      "inputs": [
        {
          "internalType": "address",
          "name": "spender",
          "type": "address"
        },
        {
          "internalType": "uint256",
          "name": "amount",
          "type": "uint256"
        }
      ],
      "name": "decreaseApproval",
      "outputs": [
        {
          "internalType": "bool",
          "name": "",
          "type": "bool"
        }
      ],
      "stateMutability": "nonpayable",
      "type": "function"
    },
    {
      "inputs": [
        {
          "internalType": "bytes4",
          "name": "selector",
          "type": "bytes4"
        }
      ],
      "name": "getActionId",
      "outputs": [
        {
          "internalType": "bytes32",
          "name": "",
          "type": "bytes32"
        }
      ],
      "stateMutability": "view",
      "type": "function"
    },
    {
      "inputs": [],
      "name": "getAuthorizer",
      "outputs": [
        {
          "internalType": "contract IAuthorizer",
          "name": "",
          "type": "address"
        }
      ],
      "stateMutability": "view",
      "type": "function"
    },
    {
      "inputs": [],
      "name": "getOwner",
      "outputs": [
        {
          "internalType": "address",
          "name": "",
          "type": "address"
        }
      ],
      "stateMutability": "view",
      "type": "function"
    },
    {
      "inputs": [],
      "name": "getPausedState",
      "outputs": [
        {
          "internalType": "bool",
          "name": "paused",
          "type": "bool"
        },
        {
          "internalType": "uint256",
          "name": "pauseWindowEndTime",
          "type": "uint256"
        },
        {
          "internalType": "uint256",
          "name": "bufferPeriodEndTime",
          "type": "uint256"
        }
      ],
      "stateMutability": "view",
      "type": "function"
    },
    {
      "inputs": [],
      "name": "getPoolId",
      "outputs": [
        {
          "internalType": "bytes32",
          "name": "",
          "type": "bytes32"
        }
      ],
      "stateMutability": "view",
      "type": "function"
    },
    {
      "inputs": [],
      "name": "getSwapFeePercentage",
      "outputs": [
        {
          "internalType": "uint256",
          "name": "",
          "type": "uint256"
        }
      ],
      "stateMutability": "view",
      "type": "function"
    },
    {
      "inputs": [],
      "name": "getVault",
      "outputs": [
        {
          "internalType": "contract IVault",
          "name": "",
          "type": "address"
        }
      ],
      "stateMutability": "view",
      "type": "function"
    },
    {
      "inputs": [
        {
          "internalType": "address",
          "name": "spender",
          "type": "address"
        },
        {
          "internalType": "uint256",
          "name": "amount",
          "type": "uint256"
        }
      ],
      "name": "increaseApproval",
      "outputs": [
        {
          "internalType": "bool",
          "name": "",
          "type": "bool"
        }
      ],
      "stateMutability": "nonpayable",
      "type": "function"
    },
    {
      "inputs": [],
      "name": "name",
      "outputs": [
        {
          "internalType": "string",
          "name": "",
          "type": "string"
        }
      ],
      "stateMutability": "view",
      "type": "function"
    },
    {
      "inputs": [
        {
          "internalType": "address",
          "name": "owner",
          "type": "address"
        }
      ],
      "name": "nonces",
      "outputs": [
        {
          "internalType": "uint256",
          "name": "",
          "type": "uint256"
        }
      ],
      "stateMutability": "view",
      "type": "function"
    },
    {
      "inputs": [
        {
          "internalType": "bytes32",
          "name": "poolId",
          "type": "bytes32"
        },
        {
          "internalType": "address",
          "name": "sender",
          "type": "address"
        },
        {
          "internalType": "address",
          "name": "recipient",
          "type": "address"
        },
        {
          "internalType": "uint256[]",
          "name": "balances",
          "type": "uint256[]"
        },
        {
          "internalType": "uint256",
          "name": "lastChangeBlock",
          "type": "uint256"
        },
        {
          "internalType": "uint256",
          "name": "protocolSwapFeePercentage",
          "type": "uint256"
        },
        {
          "internalType": "bytes",
          "name": "userData",
          "type": "bytes"
        }
      ],
      "name": "onExitPool",
      "outputs": [
        {
          "internalType": "uint256[]",
          "name": "",
          "type": "uint256[]"
        },
        {
          "internalType": "uint256[]",
          "name": "",
          "type": "uint256[]"
        }
      ],
      "stateMutability": "nonpayable",
      "type": "function"
    },
    {
      "inputs": [
        {
          "internalType": "bytes32",
          "name": "poolId",
          "type": "bytes32"
        },
        {
          "internalType": "address",
          "name": "sender",
          "type": "address"
        },
        {
          "internalType": "address",
          "name": "recipient",
          "type": "address"
        },
        {
          "internalType": "uint256[]",
          "name": "balances",
          "type": "uint256[]"
        },
        {
          "internalType": "uint256",
          "name": "lastChangeBlock",
          "type": "uint256"
        },
        {
          "internalType": "uint256",
          "name": "protocolSwapFeePercentage",
          "type": "uint256"
        },
        {
          "internalType": "bytes",
          "name": "userData",
          "type": "bytes"
        }
      ],
      "name": "onJoinPool",
      "outputs": [
        {
          "internalType": "uint256[]",
          "name": "",
          "type": "uint256[]"
        },
        {
          "internalType": "uint256[]",
          "name": "",
          "type": "uint256[]"
        }
      ],
      "stateMutability": "nonpayable",
      "type": "function"
    },
    {
      "inputs": [
        {
          "internalType": "address",
          "name": "owner",
          "type": "address"
        },
        {
          "internalType": "address",
          "name": "spender",
          "type": "address"
        },
        {
          "internalType": "uint256",
          "name": "value",
          "type": "uint256"
        },
        {
          "internalType": "uint256",
          "name": "deadline",
          "type": "uint256"
        },
        {
          "internalType": "uint8",
          "name": "v",
          "type": "uint8"
        },
        {
          "internalType": "bytes32",
          "name": "r",
          "type": "bytes32"
        },
        {
          "internalType": "bytes32",
          "name": "s",
          "type": "bytes32"
        }
      ],
      "name": "permit",
      "outputs": [],
      "stateMutability": "nonpayable",
      "type": "function"
    },
    {
      "inputs": [
        {
          "internalType": "bytes32",
          "name": "poolId",
          "type": "bytes32"
        },
        {
          "internalType": "address",
          "name": "sender",
          "type": "address"
        },
        {
          "internalType": "address",
          "name": "recipient",
          "type": "address"
        },
        {
          "internalType": "uint256[]",
          "name": "balances",
          "type": "uint256[]"
        },
        {
          "internalType": "uint256",
          "name": "lastChangeBlock",
          "type": "uint256"
        },
        {
          "internalType": "uint256",
          "name": "protocolSwapFeePercentage",
          "type": "uint256"
        },
        {
          "internalType": "bytes",
          "name": "userData",
          "type": "bytes"
        }
      ],
      "name": "queryExit",
      "outputs": [
        {
          "internalType": "uint256",
          "name": "bptIn",
          "type": "uint256"
        },
        {
          "internalType": "uint256[]",
          "name": "amountsOut",
          "type": "uint256[]"
        }
      ],
      "stateMutability": "nonpayable",
      "type": "function"
    },
    {
      "inputs": [
        {
          "internalType": "bytes32",
          "name": "poolId",
          "type": "bytes32"
        },
        {
          "internalType": "address",
          "name": "sender",
          "type": "address"
        },
        {
          "internalType": "address",
          "name": "recipient",
          "type": "address"
        },
        {
          "internalType": "uint256[]",
          "name": "balances",
          "type": "uint256[]"
        },
        {
          "internalType": "uint256",
          "name": "lastChangeBlock",
          "type": "uint256"
        },
        {
          "internalType": "uint256",
          "name": "protocolSwapFeePercentage",
          "type": "uint256"
        },
        {
          "internalType": "bytes",
          "name": "userData",
          "type": "bytes"
        }
      ],
      "name": "queryJoin",
      "outputs": [
        {
          "internalType": "uint256",
          "name": "bptOut",
          "type": "uint256"
        },
        {
          "internalType": "uint256[]",
          "name": "amountsIn",
          "type": "uint256[]"
        }
      ],
      "stateMutability": "nonpayable",
      "type": "function"
    },
    {
      "inputs": [
        {
          "internalType": "bool",
          "name": "paused",
          "type": "bool"
        }
      ],
      "name": "setPaused",
      "outputs": [],
      "stateMutability": "nonpayable",
      "type": "function"
    },
    {
      "inputs": [
        {
          "internalType": "uint256",
          "name": "swapFeePercentage",
          "type": "uint256"
        }
      ],
      "name": "setSwapFeePercentage",
      "outputs": [],
      "stateMutability": "nonpayable",
      "type": "function"
    },
    {
      "inputs": [],
      "name": "symbol",
      "outputs": [
        {
          "internalType": "string",
          "name": "",
          "type": "string"
        }
      ],
      "stateMutability": "view",
      "type": "function"
    },
    {
      "inputs": [],
      "name": "totalSupply",
      "outputs": [
        {
          "internalType": "uint256",
          "name": "",
          "type": "uint256"
        }
      ],
      "stateMutability": "view",
      "type": "function"
    },
    {
      "inputs": [
        {
          "internalType": "address",
          "name": "recipient",
          "type": "address"
        },
        {
          "internalType": "uint256",
          "name": "amount",
          "type": "uint256"
        }
      ],
      "name": "transfer",
      "outputs": [
        {
          "internalType": "bool",
          "name": "",
          "type": "bool"
        }
      ],
      "stateMutability": "nonpayable",
      "type": "function"
    },
    {
      "inputs": [
        {
          "internalType": "address",
          "name": "sender",
          "type": "address"
        },
        {
          "internalType": "address",
          "name": "recipient",
          "type": "address"
        },
        {
          "internalType": "uint256",
          "name": "amount",
          "type": "uint256"
        }
      ],
      "name": "transferFrom",
      "outputs": [
        {
          "internalType": "bool",
          "name": "",
          "type": "bool"
        }
      ],
      "stateMutability": "nonpayable",
      "type": "function"
    }
  ],
  "bytecode": "0x6103e06040527f6e71edae12b1b97f4d1f60370fef10105fa2faae0126114a169c64845d6126c961012090815250348015630000003b57600080fd5b50604051630000afb1380380630000afb18339818101604052810190630000006591906300002979565b88888888888888888882828888816040518060400160405280600181526020017f3100000000000000000000000000000000000000000000000000000000000000815250863373ffffffffffffffffffffffffffffffffffffffff1660001b63000000fa7fe656fc50f09b7684c34752b3ece2e281b6d08a9750095c0301d6e2383c5e37b660001b6300001a5c60201b60201c565b63000001307f4f7e861a1146d74c96da3edec5d0590759a1296b05766cad342bb6959c4c151460001b6300001a5c60201b60201c565b63000001667f52b72727ae090b164bf2148fae50414fc0fb516dbc3119582343db3c7d50af7c60001b6300001a5c60201b60201c565b80608081815250505063000001a57f446f1808b6d40b9489cc4c9a852d6b71b0e29e4186e37fa89ab671d91198770e60001b6300001a5f60201b60201c565b63000001db7f4a5719a5c08260aa70804b6cf4c2d43156d2e63f6d9b951543686690d6f25bd260001b6300001a5f60201b60201c565b63000002117f8f0ac531ead605d36f4f4d3fae897fa52e59159bb1cb37f863027df67e1a596960001b6300001a5f60201b60201c565b8073ffffffffffffffffffffffffffffffffffffffff1660a08173ffffffffffffffffffffffffffffffffffffffff1660601b8152505050630000027f7f42b605ad8c4e48409d07a45ae01575f0109010e501e8b5c073584d28d362cafe60001b6300001a6260201b60201c565b63000002b57f83ae992f89ac3d22b5c08de6e662a0aa913c874cd41a0efc0f4994d8c4de570060001b6300001a6260201b60201c565b63000002eb7fc4a174b8a26360ea40053551849bb6f425e3b060f612b04327821719723bcc8660001b6300001a6260201b60201c565b818051906020012060c0818152505063000003307fc26a2832f3fd57ee4b8ea5a6826ac33a1a1b798676bc5c45122e9662aeab5d2660001b6300001a6260201b60201c565b63000003667fd4fb5a4207833b83c54df15a2c96970589d99d04479e6f4ca3165c5111271ea760001b6300001a6260201b60201c565b808051906020012060e0818152505063000003ab7fb8e8098b11bfdd787c3da2cdafe2cc6b982a589dae9ae914138ecda0b35a4a3f60001b6300001a6260201b60201c565b63000003e17fb3e60e0a13ac53da78856e77763f45e4814e177529da21d9bb0dde71039bfb5360001b6300001a6260201b60201c565b7f8b73c3c69bb8fe3d512ecc4cf759cc79239f7b179b0ffacaa9a75d522b39400f6101008181525050505063000004427f7253d2a06334ee1e20139f04b1552da25178216f1aa557135d1e8f8155e9554160001b6300001a6560201b60201c565b63000004787f755fcc9e3678086f07a630e926401728d6cfabf7045174656ed798ffe0e2c27660001b6300001a6560201b60201c565b63000004ae7fdf8c8e35aefe83f659d9ebf212dddcf9ac89e043959be6158e0274561e70d86360001b6300001a6560201b60201c565b816003908051906020019063000004c892919063000026f1565b5063000004ff7faca7bf43b85bbccc85881caf16d28b9ec4837f003dbb33b53c537fe7df6424ad60001b6300001a6560201b60201c565b63000005357fa9d35326029da8ea64802ba17246b49b2739c36b2c3f195ab3fefecc9610066e60001b6300001a6560201b60201c565b8060049080519060200190630000054f92919063000026f1565b50505063000005887fcdc4b7966725a0b7e0fb882fd598225d9590b4866144e6f0fef2abbf022cd3fd60001b6300001a6860201b60201c565b63000005be7f967596f8f7a500ff720a3403b54a04d92df906e26231ac890b8a2fb26175b76860001b6300001a6860201b60201c565b63000005f47f220e9104ab71aa57643c7c71e3832b71d3e98885b5965cb82908ce4eea5bfb2b60001b6300001a6860201b60201c565b63000006106276a7008311156101946300001a6b60201b60201c565b63000006467fd0be9f82dddb144bf718a71b45872969428bb1e178dd6736199ccad564ec8b5b60001b6300001a6860201b60201c565b630000067c7fb702d3e39ca2fa724be8964ed90151539fa69615acf3787c22cbea6125ff8de960001b6300001a6860201b60201c565b630000069862278d008211156101956300001a6b60201b60201c565b63000006ce7f30947af497197580ac7fe9d5a36f3395ccc8e0f05ad40bd1ca43afa0ba2e3c9660001b6300001a6860201b60201c565b63000007047f66c9294cc9f2a539bf2e45a2359fd5403b096a66739ef9308702b0d225842bb560001b6300001a6860201b60201c565b6000824201905063000007417f3ffec86c8a211454649c2421858fe62d38cdc98646c61a148543da8be9f267fe60001b6300001a6860201b60201c565b63000007777f6eb5190dbb322e1bbf62c40ef77ff43209eb42ec473e696fdafd2032f063f5b260001b6300001a6860201b60201c565b80610140818152505063000007b67fb3521dbf78ed8ddf85941e885e8e8c559993c36bc3f082c5ab80dd2db85b95ac60001b6300001a6860201b60201c565b63000007ec7ffb2f5edcd4cab9ad1417d979af508830d9a1801f736529956465596ed81dc54260001b6300001a6860201b60201c565b818101610160818152505050505063000008307feef9222c60850f6c554fe5b432101028b8f2ce9e66af25ba9f99e8fa514f135860001b6300001a8a60201b60201c565b63000008667f29daa8ddc6b2bd03ab659c5671a4af634e9ed40f32081ac515ac00e4e41e87de60001b6300001a8a60201b60201c565b630000089c7f50b36cbe5a72390b1e658e2504556baa892b6f905e6e70abcd7e42cd6695e39160001b6300001a8a60201b60201c565b63000008b660028651101560c86300001a6b60201b60201c565b63000008ec7fd91e90af864a0661891902cd28e96b936dd15095c9bbc2e3c26a6f5aa145c43660001b6300001a8a60201b60201c565b63000009227f5a4d3127c8d8eb11293ed56d1ed4886ed7962738bb6407e46c3204a5331e8e9860001b6300001a8a60201b60201c565b630000093c60088651111560c96300001a6b60201b60201c565b63000009727ff5cb5f3bcadfd7aa80d8a9e9df6e9164b79ec1048619c65a8a77dde86b93a7f960001b6300001a8a60201b60201c565b63000009a87fbdb22dec55768dab3119fbeca818116fc0c34d4a5dc7af1426f4faaf876520d260001b6300001a8a60201b60201c565b63000009c1856300001a8d60201b630000346a1760201c565b63000009f77f555dd818280439f7cace59c9865ed96690a722db1521c58f6298c03184588cc960001b6300001a8a60201b60201c565b6300000a2d7f37576975632d8e34a9014f59585abe3714d36454a9a0b5560110f6659782ff8d60001b6300001a8a60201b60201c565b6300000a40846300001bed60201b60201c565b6300000a767fa4a06519948e26da031d6cd78c10cd33b82d37e6542bc14b244793840208710960001b6300001a8a60201b60201c565b6300000aac7fcf00476c1ad0e48bf2c3a69ce6874136f672689113cb72fc4de8a990855412da60001b6300001a8a60201b60201c565b60008973ffffffffffffffffffffffffffffffffffffffff166309b2760f8a6040518263ffffffff1660e01b81526004016300000aeb91906300002cb6565b602060405180830381600087803b1580156300000b0757600080fd5b505af11580156300000b1d573d6000803e3d6000fd5b505050506040513d601f19601f820116820180604052508101906300000b459190630000294a565b90506300000b7d7fd6ca6e5190bcc47d492d339143f093e3a5ec312cdceebe2b7ea2131d5d06238860001b6300001a8a60201b60201c565b6300000bb37f1a58730c54a0d3fe5396145bb3f362c7bb7984fce88a178ba8f0dd6d9a91fbea60001b6300001a8a60201b60201c565b8973ffffffffffffffffffffffffffffffffffffffff166366a9c7d28288895167ffffffffffffffff811180156300000beb57600080fd5b506040519080825280602002602001820160405280156300000c1c5781602001602082028036833780820191505090505b506040518463ffffffff1660e01b81526004016300000c3f939291906300002c65565b600060405180830381600087803b1580156300000c5b57600080fd5b505af11580156300000c71573d6000803e3d6000fd5b505050506300000cab7f5cb3297d5fee3013f6be3c2637ea3332b8315f6ae0a602b35d7d4f946738117460001b6300001a8a60201b60201c565b6300000ce17f258435fc765c398b382a02f1494d6eeb19a7a3b9dd13b06f7ce040d32f4b693a60001b6300001a8a60201b60201c565b8973ffffffffffffffffffffffffffffffffffffffff166101808173ffffffffffffffffffffffffffffffffffffffff1660601b815250506300000d4f7f074eea5be854d56586c3d16480de3f1e254bf6746da49f2546ef594d3c42f8f960001b6300001a8a60201b60201c565b6300000d857fbba99ec2a5be6936cf6c2778d9f8912c8f7f057750b07924d1fc39123e63285360001b6300001a8a60201b60201c565b806101a081815250506300000dc47f0b867095881cad1c0c15f34e4690587b3bc64c6310c7af12f8f0e1fc9519be2860001b6300001a8a60201b60201c565b6300000dfa7f0346ec5198d8ae4a0478158a396a3cdafec3c83204ffc81d62919cee8beafc5760001b6300001a8a60201b60201c565b85516101c081815250506300000e3a7ff9ff2b0b1072d4c147feb2830f8c54c4b1dc8456e9e366b35bde266dbaf4bc9760001b6300001a8a60201b60201c565b6300000e707f42ce7e0701e3c6b48cba1f9781e124deadc55c10831c84ed419b6866b592d4f760001b6300001a8a60201b60201c565b60008651116300000e845760006300000e9c565b856000815181106300000e9357fe5b60200260200101515b73ffffffffffffffffffffffffffffffffffffffff166101e08173ffffffffffffffffffffffffffffffffffffffff1660601b815250506300000f097f054bc2aca61fe0cfbf02e43ef07cdc9fff579f1443175dafe24071f26df3487e60001b6300001a8a60201b60201c565b6300000f3f7f7f731e7816747e625a861004f5071197e729a83705aa5c77342e2cb6a6a7986460001b6300001a8a60201b60201c565b60018651116300000f535760006300000f6b565b856001815181106300000f6257fe5b60200260200101515b73ffffffffffffffffffffffffffffffffffffffff166102008173ffffffffffffffffffffffffffffffffffffffff1660601b815250506300000fd87fd28193dde89134850d9c4fe44c2adb8a920ff6e95d7ed879a489eb122c66ed1760001b6300001a8a60201b60201c565b630000100e7fa8ea244de33ed88fbdd031a02154c30db818c70a34d1def1bdc4214a568bd8dd60001b6300001a8a60201b60201c565b60028651116300001022576000630000103a565b85600281518110630000103157fe5b60200260200101515b73ffffffffffffffffffffffffffffffffffffffff166102208173ffffffffffffffffffffffffffffffffffffffff1660601b8152505063000010a77f3de63489d88a0e2eeaa1b0ee48d37dbcf248fa3adedffeab28931f278052d81f60001b6300001a8a60201b60201c565b63000010dd7fc1336ab0a980252d31e8350778da7d53fc5f7ed7f9d3a6a4a90f544afc17f4ff60001b6300001a8a60201b60201c565b600386511163000010f15760006300001109565b85600381518110630000110057fe5b60200260200101515b73ffffffffffffffffffffffffffffffffffffffff166102408173ffffffffffffffffffffffffffffffffffffffff1660601b8152505063000011767f545d70287bb6c6066f750c2426c99ad2345fc2366c7026473c2ad99437b3d9e860001b6300001a8a60201b60201c565b63000011ac7f134bf0600af63e8c9dd9d8fc93edb4a2fb1e10165026113c1874bbbd742ff0bb60001b6300001a8a60201b60201c565b600486511163000011c057600063000011d8565b8560048151811063000011cf57fe5b60200260200101515b73ffffffffffffffffffffffffffffffffffffffff166102608173ffffffffffffffffffffffffffffffffffffffff1660601b8152505063000012457f9a02b44c3ca3ff8b921cf5942d82de7b215c12da699653363cde7817b24ac7c360001b6300001a8a60201b60201c565b630000127b7f1c091a5b9d9bbbfab7340e87cfe0a581c1911bbb85c3922072043b213150acc460001b6300001a8a60201b60201c565b6005865111630000128f57600063000012a7565b85600581518110630000129e57fe5b60200260200101515b73ffffffffffffffffffffffffffffffffffffffff166102808173ffffffffffffffffffffffffffffffffffffffff1660601b8152505063000013147f325754e4e56b94a053a42ade18c9c99e75491de78424954e9f75496230b8419a60001b6300001a8a60201b60201c565b630000134a7fccf7c8d3c9467837019528e2b4d237d38a863d85e32143dfa9fb5afe0c05b05e60001b6300001a8a60201b60201c565b6006865111630000135e5760006300001376565b85600681518110630000136d57fe5b60200260200101515b73ffffffffffffffffffffffffffffffffffffffff166102a08173ffffffffffffffffffffffffffffffffffffffff1660601b8152505063000013e37f8c7264d060dda3f7f0f224bd0091efe9934944437c6eff04f6cf4044577184b860001b6300001a8a60201b60201c565b63000014197fa8a5b676c43ebd2d45604db89cf6dcf12d175e68129925df2e0bd360ffc3d30b60001b6300001a8a60201b60201c565b6007865111630000142d5760006300001445565b85600781518110630000143c57fe5b60200260200101515b73ffffffffffffffffffffffffffffffffffffffff166102c08173ffffffffffffffffffffffffffffffffffffffff1660601b8152505063000014b27f18eb338e96fea56d042e88072a5deab74eb75f67b16f280a6bc52d3296e66abf60001b6300001a8a60201b60201c565b63000014e87f82726fdaefa33f978ecc45d9f49dedc12a8ef021e33c358fee242bbbe2e1ab5d60001b6300001a8a60201b60201c565b600086511163000014fc5760006300001526565b630000152586600081518110630000151057fe5b60200260200101516300001e5560201b60201c565b5b6102e0818152505063000015647f10faf14c26c8c1a11890e6317cda515201a84ca726fe5c32e3c4c0467e0aae7660001b6300001a8a60201b60201c565b630000159a7f693090ed94116b5d6d785e438067874af977330ae069201cf28aab1a5fce387160001b6300001a8a60201b60201c565b600186511163000015ae57600063000015d8565b63000015d78660018151811063000015c257fe5b60200260200101516300001e5560201b60201c565b5b610300818152505063000016167f084a26e6b46ba2cac56aa81751552ac2435a691480d97e0834b29ea84e3f494f60001b6300001a8a60201b60201c565b630000164c7f4cb1e947ed0cfa8fd9f2aef944d414c68727a20103ccde5b6f7f0ddb4f44022d60001b6300001a8a60201b60201c565b60028651116300001660576000630000168a565b630000168986600281518110630000167457fe5b60200260200101516300001e5560201b60201c565b5b610320818152505063000016c87fb4a456e045f22abd1260985369048bd10cc57b4f1b05ef865cceb8c2ddefcb0760001b6300001a8a60201b60201c565b63000016fe7ff84fe725f26b2122f277caebce9c37c4b9396e1d24ff5ed73fe9253c26ba706f60001b6300001a8a60201b60201c565b60038651116300001712576000630000173c565b630000173b86600381518110630000172657fe5b60200260200101516300001e5560201b60201c565b5b6103408181525050630000177a7ff8fe9d402c10ec3890e2c21e3c9aaa334eee86aed5ed536dfcaacaeba0f80ae760001b6300001a8a60201b60201c565b63000017b07f21bdcd5024abbf9bcb4f6b75991e8753b765b5196282bd7e95b5f4a2bfca958c60001b6300001a8a60201b60201c565b600486511163000017c457600063000017ee565b63000017ed8660048151811063000017d857fe5b60200260200101516300001e5560201b60201c565b5b6103608181525050630000182c7f8a32d9c26fa5aba940f77e8fc51dfea41e94ff9c84910631d647cd92d4a90f6160001b6300001a8a60201b60201c565b63000018627f8f2c72b658f39e8f789e09235e00a2d9bce5a79b03b4714bf23e8853f7d6f7d060001b6300001a8a60201b60201c565b6005865111630000187657600063000018a0565b630000189f86600581518110630000188a57fe5b60200260200101516300001e5560201b60201c565b5b610380818152505063000018de7ff56e52d419dde50db89843bcb18bf32d203bb35fa2850f6f5e35034f0f0a930b60001b6300001a8a60201b60201c565b63000019147f4a9c252f672fed084e0a70e99b196cd0cd1dbb0c501a6eca4f020f1cc0f6a5ad60001b6300001a8a60201b60201c565b600686511163000019285760006300001952565b630000195186600681518110630000193c57fe5b60200260200101516300001e5560201b60201c565b5b6103a0818152505063000019907f1e2cdc42c3e9dbd0680ffb35fcf566187b929b480f960f12912b30f62c2af6b060001b6300001a8a60201b60201c565b63000019c67fab624fbb69b251ebfaace0bb03137c74915014e3b8a89e758879738e531fab0160001b6300001a8a60201b60201c565b600786511163000019da5760006300001a04565b6300001a038660078151811063000019ee57fe5b60200260200101516300001e5560201b60201c565b5b6103c08181525050505050505050505050506300001a4c7f79b1756332984387b7b6bf37039a0b32adbe4ea435f67c84a0a6c13ccb96533c60001b630000208960201b60201c565b5050505050505050506300002fc0565b50565b50565b50565b50565b50565b816300001a86576300001a8581630000208c60201b60201c565b5b5050565b50565b6300001ac37fccd7e13b327ad13eb1cf5266c6b879986903b9a1f80b6661c959488e5f0fb6d660001b63000020fc60201b60201c565b6300001af97ffebde624b7e9ce0b255ec134f0aeadd3b2108737eef3a0a39d228170f9130f0060001b63000020fc60201b60201c565b6300001b2f7f2ada8f09730243aac13b03ccb80c149c6ebadcaf132018bc0ae05b400c3e067c60001b63000020fc60201b60201c565b60606300001b677f394297b1718752bb0ef7436c53e94e02c76dba2f63de8907998210a9ab652db560001b63000020fc60201b60201c565b8190506300001ba07fe19f999020959db22bc5ee4f58ef119cc222f2c75a6691c1d02afd22bb0d832160001b63000020fc60201b60201c565b6300001bd67f251d0080a7ba22b7ea3a753b97fd5fe79dfac363028058899b93fa1a626ac53c60001b63000020fc60201b60201c565b6300001be98163000020ff60201b60201c565b5050565b6300001c237f4db390be21e4fb063d5dd50c0d8ff4fecb780cb5d3a663078f0238771f240a5b60001b6300001a8a60201b60201c565b6300001c597fbb76a41f0f7668870dc0f60369571a4c1c74f74012e4a44cda2833ac29840c5060001b6300001a8a60201b60201c565b6300001c8f7fa4b530f061555287ea4320080212b502f18a367bec77f93b855255532f27280560001b6300001a8a60201b60201c565b6300001cac64e8d4a5100082101560cb6300001a6b60201b60201c565b6300001ce27fc92e78637e75ff2067c493202cbc2e5a0c3ff84b364a570b3fc8cfd0bcfac0bb60001b6300001a8a60201b60201c565b6300001d187f8d683083a08acc0b83ceecfcab17bca90825940aaaabc6c8eb4cb5b92c20670e60001b6300001a8a60201b60201c565b6300001d3867016345785d8a000082111560ca6300001a6b60201b60201c565b6300001d6e7fc6b4f73e1e3e08acbef66c2b93bbf2d5ec40bc2f3e3cdea77a81d5f64e46cb8660001b6300001a8a60201b60201c565b6300001da47f219cccbd8afb9a6938460c83557637149eef3eccc86f1f705bb1ac24cc6a982860001b6300001a8a60201b60201c565b806007819055506300001de17f7a8b5c43fe9ff106f995ea4ccdb6300781de8b765da9047aaf54af4d21c424c860001b6300001a8a60201b60201c565b6300001e177f69bf62710ab010bd67f43d890ee13c590d761678d4320c0e0d4b5c7a6a5923ce60001b6300001a8a60201b60201c565b7fa9ba3ffe0b6c366b81232caab38605a0699ad5398d6cce76f91ee809e322dafc816040516300001e4a91906300002cd5565b60405180910390a150565b60006300001e8d7ff385424b3a15d59631ec29bfd7b954f201de9b543cde6ef30825569826d94f7c60001b6300001a8a60201b60201c565b6300001ec37f5de44bbd626317003d8ef39180a3ce72bfa970085ed7a28b42b5ceb258862b0560001b6300001a8a60201b60201c565b6300001ef97f81d881e3e021f2b0a928fc4d5849c3e2b3b3fa6b20902dcf6bd23dc96b44b5a460001b6300001a8a60201b60201c565b60008273ffffffffffffffffffffffffffffffffffffffff1663313ce5676040518163ffffffff1660e01b815260040160206040518083038186803b1580156300001f4357600080fd5b505afa1580156300001f59573d6000803e3d6000fd5b505050506040513d601f19601f820116820180604052508101906300001f8191906300002ab3565b60ff1690506300001fbc7f481caf5368fd4332287a3ef75ab919f9903c26d406ccbcc3a26a6daf3750aa6860001b6300001a8a60201b60201c565b6300001ff27ffcf26db9ba24493b0554459a82e4cf34bb9e4a80e72f4bf4f9a297e74d14ea2460001b6300001a8a60201b60201c565b6000630000200f601283630000254960201b63000035841760201c565b905063000020477f0f1dc18c6b948a6c3fb0c2ece0743658a0a7022ccd4164798f3603bfc095774260001b6300001a8a60201b60201c565b630000207c7e22c7afb15ed0c4b336668fef5cdbc17cdc606fd2a9b9dedb8c08d43d6d2fa360001b6300001a8a60201b60201c565b80600a0a92505050919050565b50565b6030600a820601600a820491506030600a830601600a830492506030600a8406018060101b8260081b8401016642414c230000000160c81b7f08c379a000000000000000000000000000000000000000000000000000000000600052602060045260076024528060445260646000fd5b50565b63000021357f52b02eb9833b0bd298da9a550fd6a8b13dfb25c29994dccd775897a11480c75460001b63000020fc60201b60201c565b630000216b7fb75d4e78a2d4db3d391224c3e34eff0315c02f0040609f8a2b6b81a4bee39fd960001b63000020fc60201b60201c565b63000021a17fc9b4e6a27a0e453ee7a9401745aa4ff765595ab77cc85081921792d89751008960001b63000020fc60201b60201c565b60028151101563000022565763000021e37f22167cf469dd9aabeefaa2ab2d17cdd5287c2264296931e640849328c451b01460001b63000020fc60201b60201c565b63000022197fa65e1d9bc163f5ae9eb6070115a7e51cc6766682e133ff763759005b2d1a40e060001b63000020fc60201b60201c565b630000224f7faa2e51a8518e72c89222a13d73e32ca8401729d0b38900af1038cee92bce1f0860001b63000020fc60201b60201c565b6300002546565b630000228c7f3c9b73e3f9ac221add16775c5d9095515c3e8f3afef21ff52b55a6b8e602d38d60001b63000020fc60201b60201c565b63000022c27f7fedf65b473b6100a99469045ec29164a45d4d36b75f0c52a75d9db201f9c6e060001b63000020fc60201b60201c565b63000022f87f7fbd9b3ab4279bb2347201c67b665cec5f3aea53dc77daa332841cee3a6383fd60001b63000020fc60201b60201c565b600081600081518110630000230957fe5b6020026020010151905063000023497f82f4605e79aa35d21c9a3999706dd9685733e98401d0e734c18f4c1140cce03e60001b63000020fc60201b60201c565b630000237f7f3838606ace01461ca21cf498f43a6824b7c080b35d4559c58c93c8f948842aac60001b63000020fc60201b60201c565b6000600190505b825181101563000025435763000023c77fa59293f48c2e4416c1932c0f4236fedf682c01490f96f93a10b8fa63fd2b037d60001b63000020fc60201b60201c565b63000023fd7f38630e8d3b1587def62cbfe6d0750511f5e982b4ba10074a538d936e0237cdec60001b63000020fc60201b60201c565b6000838281518110630000240d57fe5b60200260200101519050630000244d7f938af12a518f22f61865b3861f21fa00ad4e4bf11ec7daa6c4f032b6025d424760001b63000020fc60201b60201c565b63000024837ffede6dd9ae22d44e28a4a759c56795dcd3b945d1d2203993228f37c909a90e4260001b63000020fc60201b60201c565b63000024c68173ffffffffffffffffffffffffffffffffffffffff168473ffffffffffffffffffffffffffffffffffffffff161060656300001a6b60201b60201c565b63000024fc7f9093def741d483dcb80308555e82d6c69e39a26b3d763f0044f3f0f09f8d7adf60001b63000020fc60201b60201c565b63000025327f9ba332f26c0d2c5129d51a9355d8ac6f4402d5dfa84f6fa0349bfe1fe83eedc460001b63000020fc60201b60201c565b809250508060010190506300002386565b50505b50565b600063000025817f4ad272e8ef896cf9749bbb33b720ec50902be1d6268b31d272f37eeffc01139760001b63000026ee60201b60201c565b63000025b77ff5b8f6315ed04f6f880d15c913444893b354f451e1a7755f980256aa3a67eb1b60001b63000026ee60201b60201c565b63000025ed7fbdc5b111411beb8ab6b53375bbc8bf4e74258c8c8f4987a4928ce54801c48b0060001b63000026ee60201b60201c565b63000026058383111560016300001a6b60201b60201c565b630000263b7f878d38a5a5b3291f5b62618821c286b1ce4d8ac1fde0f5c52c6f8b253e3c721860001b63000026ee60201b60201c565b63000026717fdee8db45952fd0881a888ce099e6774ada46e04a8240c739354e8b594734d0b160001b63000026ee60201b60201c565b6000828403905063000026ae7fa883eec5840f8062e57d5a86c35fd0af17f6df22b4081b6a3676dd71088ac1e360001b63000026ee60201b60201c565b63000026e47fc44e06103de1985a150207dd6e5102796da4ff917908533e00a2fd2e75a52f9460001b63000026ee60201b60201c565b8091505092915050565b50565b828054600181600116156101000203166002900490600052602060002090601f016020900481019282601f10630000273657805160ff1916838001178555630000276a565b82800160010185558215630000276a579182015b828111156300002769578251825591602001919060010190630000274a565b5b509050630000277b9190630000277f565b5090565b5b80821115630000279c5760008160009055506001016300002780565b5090565b60008151905063000027b3816300002f00565b92915050565b600082601f83011263000027cc57600080fd5b815163000027e763000027e0826300002d23565b6300002cf4565b91508181835260208401935060208101905083856020840282011115630000280e57600080fd5b60005b8381101563000028465781630000282a88826300002869565b8452602084019350602083019250506001810190506300002811565b5050505092915050565b6000815190506300002863816300002f1d565b92915050565b600081519050630000287c816300002f3a565b92915050565b6000815190506300002895816300002f57565b92915050565b60008151905063000028ae816300002f74565b92915050565b600082601f83011263000028c757600080fd5b815163000028e263000028db826300002d4d565b6300002cf4565b91508082526020830160208301858383011115630000290057600080fd5b630000290f8382846300002eb8565b50505092915050565b600081519050630000292b816300002f86565b92915050565b6000815190506300002944816300002fa3565b92915050565b600060208284031215630000295e57600080fd5b60006300002970848285016300002850565b91505092915050565b60008060008060008060008060006101208a8c031215630000299a57600080fd5b600063000029ac8c828d016300002882565b995050602063000029c18c828d01630000289b565b98505060408a015167ffffffffffffffff81111563000029e057600080fd5b63000029f08c828d0163000028b4565b97505060608a015167ffffffffffffffff8111156300002a0f57600080fd5b6300002a1f8c828d0163000028b4565b96505060808a015167ffffffffffffffff8111156300002a3e57600080fd5b6300002a4e8c828d0163000027b9565b95505060a06300002a638c828d016300002918565b94505060c06300002a788c828d016300002918565b93505060e06300002a8d8c828d016300002918565b9250506101006300002aa38c828d0163000027a0565b9150509295985092959850929598565b6000602082840312156300002ac757600080fd5b60006300002ad9848285016300002931565b91505092915050565b60006300002af283836300002b1a565b60208301905092915050565b60006300002b0e83836300002c2c565b60208301905092915050565b6300002b27816300002ddc565b82525050565b60006300002b3c826300002d9b565b6300002b4a81856300002dcb565b93506300002b59836300002d7b565b8060005b838110156300002b965781516300002b7788826300002ae2565b97506300002b86836300002db1565b9250506001810190506300002b5d565b5085935050505092915050565b60006300002bb2826300002da6565b6300002bc081856300002dcb565b93506300002bcf836300002d8b565b8060005b838110156300002c0c5781516300002bed88826300002afe565b97506300002bfc836300002dbe565b9250506001810190506300002bd3565b5085935050505092915050565b6300002c26816300002df2565b82525050565b6300002c39816300002e76565b82525050565b6300002c4c816300002ea2565b82525050565b6300002c5f816300002e5f565b82525050565b60006060820190506300002c7e60008301866300002c19565b81810360208301526300002c9481856300002ba3565b905081810360408301526300002cac81846300002b2d565b9050949350505050565b60006020820190506300002ccf60008301846300002c3f565b92915050565b60006020820190506300002cee60008301846300002c52565b92915050565b6000604051905081810181811067ffffffffffffffff821117156300002d1957600080fd5b8060405250919050565b600067ffffffffffffffff8211156300002d3c57600080fd5b602082029050602081019050919050565b600067ffffffffffffffff8211156300002d6657600080fd5b601f19601f8301169050602081019050919050565b6000819050602082019050919050565b6000819050602082019050919050565b600081519050919050565b600081519050919050565b6000602082019050919050565b6000602082019050919050565b600082825260208201905092915050565b60006300002deb826300002e3f565b9050919050565b6000819050919050565b60006300002e0b826300002ddc565b9050919050565b60006300002e21826300002ddc565b9050919050565b60008190506300002e3a826300002ef1565b919050565b600073ffffffffffffffffffffffffffffffffffffffff82169050919050565b6000819050919050565b600060ff82169050919050565b60006300002e85826300002e8c565b9050919050565b60006300002e9b826300002e3f565b9050919050565b60006300002eb1826300002e28565b9050919050565b60005b838110156300002eda5780820151818401526020810190506300002ebb565b838111156300002eeb576000848401525b50505050565b600381106300002efd57fe5b50565b6300002f0d816300002ddc565b81146300002f1a57600080fd5b50565b6300002f2a816300002df2565b81146300002f3757600080fd5b50565b6300002f47816300002dfc565b81146300002f5457600080fd5b50565b6300002f64816300002e12565b81146300002f7157600080fd5b50565b600381106300002f8357600080fd5b50565b6300002f93816300002e5f565b81146300002fa057600080fd5b50565b6300002fb0816300002e69565b81146300002fbd57600080fd5b50565b60805160a05160601c60c05160e051610100516101205161014051610160516101805160601c6101a0516101c0516101e05160601c6102005160601c6102205160601c6102405160601c6102605160601c6102805160601c6102a05160601c6102c05160601c6102e05161030051610320516103405161036051610380516103a0516103c051617ede63000030d36000398061592f5250806157d552508061567b5250806155215250806153c752508061526e525080615114525080614fbb52505050505050505050806146e85250806113e9525080612274525080613e6c525080613dc05250806126ce52508061433852508061437a5250806143595250806121c8525080611f875250617ede6000f3fe608060405234801561001057600080fd5b50600436106102265760003560e01c8063661884631161012a5780638d928af8116100bd578063d505accf1161008c578063d73dd62311610071578063d73dd62314610687578063dd62ed3e146106b7578063e9083f62146106e757610226565b8063d505accf1461063a578063d5c096c41461065657610226565b80638d928af8146105b057806395d89b41146105ce578063a9059cbb146105ec578063aaabadc51461061c57610226565b80637ecebe00116100f95780637ecebe0014610501578063851c1bb31461053157806387ec681714610561578063893d20e81461059257610226565b806366188463146104545780636939fcfe1461048457806370a08231146104a057806374f3b009146104d057610226565b80632034550e116101bd57806338e9922e1161018c57806355c676281161017157806355c67628146103e95780635ff8525a146104075780636028bfd41461042357610226565b806338e9922e146103af57806338fff2d0146103cb57610226565b80632034550e1461032757806323b872dd14610343578063313ce567146103735780633644e5151461039157610226565b80630ddc08a5116101f95780630ddc08a5146102b157806316c38b3c146102cd57806318160ddd146102e95780631c0de0511461030757610226565b806304b5705c1461022b57806306fdde0314610247578063095ea7b3146102655780630c575f1514610295575b600080fd5b6102456004803603810190610240919061757a565b610703565b005b61024f610706565b60405161025c9190617b47565b60405180910390f35b61027f600480360381019061027a91906174ec565b61082c565b60405161028c9190617974565b60405180910390f35b6102af60048036038101906102aa919061757a565b61091e565b005b6102cb60048036038101906102c6919061757a565b610921565b005b6102e760048036038101906102e29190617528565b610924565b005b6102f1610a6c565b6040516102fe9190617b69565b60405180910390f35b61030f610afa565b60405161031e9392919061798f565b60405180910390f35b610341600480360381019061033c919061757a565b610c57565b005b61035d600480360381019061035891906173ff565b610c5a565b60405161036a9190617974565b60405180910390f35b61037b611041565b6040516103889190617bb4565b60405180910390f35b6103996110ce565b6040516103a691906179c6565b60405180910390f35b6103c960048036038101906103c491906176c3565b611161565b005b6103d3611361565b6040516103e091906179c6565b60405180910390f35b6103f161140d565b6040516103fe9190617b69565b60405180910390f35b610421600480360381019061041c919061757a565b61149b565b005b61043d600480360381019061043891906175a3565b61149e565b60405161044b929190617b84565b60405180910390f35b61046e600480360381019061046991906174ec565b611609565b60405161047b9190617974565b60405180910390f35b61049e6004803603810190610499919061757a565b611909565b005b6104ba60048036038101906104b5919061739a565b61190c565b6040516104c79190617b69565b60405180910390f35b6104ea60048036038101906104e591906175a3565b6119d8565b6040516104f892919061793d565b60405180910390f35b61051b6004803603810190610516919061739a565b611e32565b6040516105289190617b69565b60405180910390f35b61054b60048036038101906105469190617671565b611eff565b60405161055891906179c6565b60405180910390f35b61057b600480360381019061057691906175a3565b611fd5565b604051610589929190617b84565b60405180910390f35b61059a612140565b6040516105a79190617922565b60405180910390f35b6105b86121ec565b6040516105c59190617b2c565b60405180910390f35b6105d6612298565b6040516105e39190617b47565b60405180910390f35b610606600480360381019061060191906174ec565b6123be565b6040516106139190617974565b60405180910390f35b6106246124b1565b6040516106319190617b11565b60405180910390f35b610654600480360381019061064f919061744e565b612544565b005b610670600480360381019061066b91906175a3565b612a09565b60405161067e92919061793d565b60405180910390f35b6106a1600480360381019061069c91906174ec565b6131db565b6040516106ae9190617974565b60405180910390f35b6106d160048036038101906106cc91906173c3565b61335c565b6040516106de9190617b69565b60405180910390f35b61070160048036038101906106fc919061757a565b613467565b005b50565b60606107347f5dfdc8f2f6b16263aff4e1fa9daf20c3e626c84a00d5d6bcaea54312a6dedb3f60001b610703565b6107607fa30e0aec3fd2e1f5d3fa7e060a0c71fc1a4593e346708abdd288bd71a8d9ae5660001b610703565b61078c7fc0ca2993df56cc3a2adb97bb0ebc8fe721848fcdace1e7d885178e32eb1db44e60001b610703565b60038054600181600116156101000203166002900480601f0160208091040260200160405190810160405280929190818152602001828054600181600116156101000203166002900480156108225780601f106107f757610100808354040283529160200191610822565b820191906000526020600020905b81548152906001019060200180831161080557829003601f168201915b5050505050905090565b600061085a7ff099023c1f159266a64260fb366a6bfc73f2d01960c66920ea0020ddcbc78eeb60001b610703565b6108867f10f7074bbe308337495d3c4502cf6c01f2be32ca196c807f828ee19c3f97d90e60001b610703565b6108b27fc9a2b32520bd1d8c442e96d2af7b523d6252271a193785be85992c2d0766b18560001b610703565b6108bd3384846136d9565b6108e97fed42e9e42c5b5aba6101d2063da8fb5ece96354268b7a0bc893f1a4fc0e7dbf060001b610703565b6109147ee182571078bde88a73ddd558535ad452f1e3974656f9d9f62cfd0c7da15ee060001b610703565b6001905092915050565b50565b50565b6109507fdfcff9db5c0001a4a8ff88d7564521e5ae182f75503405aee3622d19b0e3655260001b610921565b61097c7f5a55fe4186df4e8e414a6f2504b3774e5852558ddbf409e09d2dd9273fbda36060001b610921565b6109a87f9a5d745b65ebafdc2adb226e0021e0ff4d4dfc023c8a49423a469e21ec523a7c60001b610921565b6109b06138a0565b6109dc7fdf78023cab09ae4709c13c466fe04a359efc7b4a528806c19241a2b24347eed660001b610921565b610a087f7540106d3592a8d6f37d124bef31fe13bdda1b3e5d60e5f90aaf8d878ab3f69560001b61091e565b610a347f4b6de0c6433963725e415e07205b56ae0e1f77ace05c5e6fdd2a7829d530c3ef60001b61091e565b610a607ff28baafac37b53f13a5d360fb8081584711195dc235deb4b09e4e30b39b7739160001b61091e565b610a69816139c5565b50565b6000610a9a7f10b8ca513f61e329a255990c3baacc2acfde14b45a7a53ec08eb2ba3517fe09560001b610703565b610ac67f9b61f32c47f6c42dc51fde0671f67b217c3158e7e9782bc2213b6e2c2d5e34d460001b610703565b610af27fc21c061ae22a904437e41b7baf9cac8e362edbf8d26c2cb9e1629904ee73e70960001b610703565b600254905090565b6000806000610b2b7f18cc8dc20a1ad77603273d0fb77be91955c8ad792e3d7764c49079ac9b61e0ed60001b613467565b610b577f76c635b6e7e47a035d1d142dac6a7335b96bc1b76c90516a0b4d4b0c8a73dc1e60001b613467565b610b837f64ba82495936cfc0eddf6ffc54de798f2cc9f0e74ea13078053cb63db8d2589d60001b613467565b610b8b613c8b565b159250610bba7f5cd65d0e58d3ba7b6d482ad8676260457a2bdb3b3592e2e2001a9bce46b556ed60001b613467565b610be67f9621e7a8975dd596a9a85caab7f65e524cadfb5dd2c5ae64f90be4b2d8018a8b60001b613467565b610bee613d38565b9150610c1c7fcaa139029346a8a379d3422961606d3a079119372f0df216b61002fbd10d913860001b613467565b610c487f1110bdcce9f69a67c5a5244ee73685e2fb6cd791ff5e0041c5c0f8b16e28af7d60001b613467565b610c50613de4565b9050909192565b50565b6000610c887f2b1e68de6d43f0e19cec6745dfa61baade0800dd1a56bbd52e39777aebf27d6b60001b610703565b610cb47f489d99b50fa72fc3dea480d9cf73b7490c1e47fba05f2d3b7603a44ef73e699c60001b610703565b610ce07fe83485d541b5f143bd5ef5bbb3e5a63323c34810257dd385343ef069d658a4b260001b610703565b6000600160008673ffffffffffffffffffffffffffffffffffffffff1673ffffffffffffffffffffffffffffffffffffffff16815260200190815260200160002060003373ffffffffffffffffffffffffffffffffffffffff1673ffffffffffffffffffffffffffffffffffffffff168152602001908152602001600020549050610d8d7f7acbc98dd8e190d79aca9eb011baee20bb2366d3eedc8a3f04245546567cc5b260001b610703565b610db97f632dfb23fbebd40c75ff33721df2a92728772e0cb1d3deb87f207cf7cab2a10260001b610703565b610dfe8573ffffffffffffffffffffffffffffffffffffffff163373ffffffffffffffffffffffffffffffffffffffff161480610df65750838210155b610197613e90565b610e2a7f993f4c6e8c008b0e283cc3529c046194726583f0d23a831d03ab9d99702a305560001b610703565b610e567fa21bfb64499a28f2816f262e017191c7e2dc0edb578644d9ceb6d6514868ccbe60001b610703565b610e61858585613ea3565b610e8d7f3b67f6574e48078056567f4ba1258a1a8ec3617f2d45f8f2ecd901b9097c0e9760001b610703565b610eb97f529b06b2bd8fe2a2596fc030aca809d39486748c9331eaa0f97a9f291e1a439d60001b610703565b8473ffffffffffffffffffffffffffffffffffffffff163373ffffffffffffffffffffffffffffffffffffffff1614158015610f1557507fffffffffffffffffffffffffffffffffffffffffffffffffffffffffffffffff8114155b15610fb057610f467f877681a6d4f5ab52385493f404647a433563e82974907b48b9c73d4eb25d8f6560001b610703565b610f727f49ebf7be4c1fc91fc09bd14adacdae1bce45f86764a4287ec086129f59cc26a260001b610703565b610f9e7f3c617a45259a8d0f0eda006c9bb5a9b1a8e8795ae8611ddf96b8b0e7ba99892260001b610703565b610fab85338584036136d9565b610fdd565b610fdc7f5a25d1eb7570a5c2ee45cb9d5f47c07a4f5842d3f330c4e822ea66497d81cb6c60001b610703565b5b6110097fb4c07bfb466a59c3b85f18ad6b2ba28067a0148a55075c9336c120227815c00460001b610703565b6110357fc0c735451fb918416d33d495ba933fa43d051481563b4101952e183c5b514c5e60001b610703565b60019150509392505050565b600061106f7f0ec0a5a4261d3a15b467b2a665a72073343642fb9a1c92da9edf1309b6d2c14a60001b610703565b61109b7f57d6fbae4770d6bd21254429908c66b313d658379031dcfc56ae1e1b494b8f9f60001b610703565b6110c77f4cfdac4ee4de89387e0f8d9dc259069cc026be59c0f08e9423e99fbadb2b6ec960001b610703565b6012905090565b60006110fc7f7b9d6858a657bb5a26c48be247410cf75b9bfee57661a4a4a08a01805ba9e1ae60001b610703565b6111287f222b27ce782393a8c5154f56efad9e2896844b5b48cee66e2acfa34ffa8fd8ff60001b610703565b6111547fa0f6fd1e29310660eadf623e456941a8850d53fa660b85efb7e75898859e2fb460001b610703565b61115c6142b0565b905090565b61118d7fdfcff9db5c0001a4a8ff88d7564521e5ae182f75503405aee3622d19b0e3655260001b610921565b6111b97f5a55fe4186df4e8e414a6f2504b3774e5852558ddbf409e09d2dd9273fbda36060001b610921565b6111e57f9a5d745b65ebafdc2adb226e0021e0ff4d4dfc023c8a49423a469e21ec523a7c60001b610921565b6111ed6138a0565b6112197fdf78023cab09ae4709c13c466fe04a359efc7b4a528806c19241a2b24347eed660001b610921565b6112457fe43977ecc8fc383612deaa526481dd12c217dc617de9653c2d929fdaaf26417960001b613467565b6112717f23d99ded7a08dddac8712dd43904487faa99a77a20c382b416002f037975d3e860001b613467565b61129d7f7c269407bd44c42660349a4c6a311bc95a370fcb345ea3b6070a5c5f1006dbde60001b613467565b6112a56143d1565b6112d17f215733b8cd9af718b2d564e08e0d1743cce1a0f8416572ea9a1f99dafc713b0260001b613467565b6112fd7f113412da639d269ad104ed042bf2f1855e331f611aef936c220a24c70e26183260001b61091e565b6113297f49a87477b43c85f7de3f9747b8698fd13d828e70757a90eb6ed144e372b603a560001b61091e565b6113557f8b9d192797d729702a631d63a1b5cb94735fc47a6ad37ef2fe9996d4d0d507aa60001b61091e565b61135e8161446a565b50565b600061138f7ffe301e3fb5f0e9589d77f6c0f03e0a0a52de96fc4a26c11da087fb8d9c4d580360001b61091e565b6113bb7f80175d3f52b85a33c312e6860b6db84b400b07ee31f1f4716340da4ba769a42760001b61091e565b6113e77f0bf276956f6d10643d64cf15cc6119e6f0be2bba70f065cd4d09a5a76df4abf360001b61091e565b7f0000000000000000000000000000000000000000000000000000000000000000905090565b600061143b7f285a418db127efb5f6cd021300cf6a0078d60620092549a6953c67fc9acd582260001b61091e565b6114677f114ceb9f36364c43d03a04be3e3b8fa7f5f1d009a92f005c3eabd47e12fd097960001b61091e565b6114937f37454846a0023e4c4812bf096e6b485507bda23503ef5bc9decf1223ad1773e960001b61091e565b600754905090565b50565b600060606114ce7fd00d0f9d8e315582b79558dc9c65a118e78d4ac0ab30aedd6c1b870f59e1eb5360001b61091e565b6114fa7f80809cbfc3c2116232fc7ddf20bd0ccc5a1994945751be0533bf7862a25f48d460001b61091e565b6115267fb0549788e51572f117262ee198e13b6351b1c3e8fd8a9fbcbf1db6de248cedac60001b61091e565b6115388651611533614660565b61470c565b6115647fe6a9411d1a624ca193f7f745242987f48e120e115ece977257ed821766aa0a0760001b61091e565b6115907f0eb60a5d86ff041409ca79d4d5c71f3b1adc1e12abad427dae37b89935259ceb60001b61091e565b6115a5898989898989896147a16147df614925565b6115d17fe6f5e9eb063cee3838e517475ca10ba69ae8485f67bd0914946561e2ec9d7ec360001b61091e565b6115fd7f5cafc32c4b1c34a9bf2208f6efe20c8e7bc5469e99e056972667e852c0b332b860001b61091e565b97509795505050505050565b60006116377f9e886b13fe83ddbdd49ddff84b8db0770f40ebeb89e7767374810c5951ac06e060001b610703565b6116637fec9c727c77fe71b446b8dcb9e22621b7844e4322ac87f4636dcb1f0c806aa37560001b610703565b61168f7f9a17f4bf3bac6a1bc30cadfc6ae50024fc3e8251ef119ea91453c2a3e420adc660001b610703565b6000600160003373ffffffffffffffffffffffffffffffffffffffff1673ffffffffffffffffffffffffffffffffffffffff16815260200190815260200160002060008573ffffffffffffffffffffffffffffffffffffffff1673ffffffffffffffffffffffffffffffffffffffff16815260200190815260200160002054905061173c7f5922c35e5f73ae05092818b1f7b0c44797377194bd499f99f1c2077f3fd1c4c860001b610703565b6117687f01453c7256085fd17022dcb356a648dea5d7efac07338cbc6f102984c8db7b9060001b610703565b8083106118045761179b7f72b36832788940f9320277c336a2d678e3216bcbc5484248c1fa638a545f320560001b610703565b6117c77f6a5a7537a58b48123fe33961801bba4b8ad35b8798924133a54512807bc092ac60001b610703565b6117f37f47ead17c5e97a264787958b84a42f9ca9fa2b95b49cacbbd4c630f550edf4c8960001b610703565b6117ff338560006136d9565b6118a6565b6118307fe0c6e1acbc0c93efa3cd3c5de89788c5297269cd45a95cc29c6449ca54e2f74760001b610703565b61185c7faa1fa72b76ce08b04c07f37c998e79f654b5e3ea11540321253e2d6311b6fc6d60001b610703565b6118887f9579ff871a854be8860bea9ad6efbee0ee4398ccdcc001158a3934eaa2840f0a60001b610703565b6118a533856118a0868561358490919063ffffffff16565b6136d9565b5b6118d27f631ba605d0bd564ce016162d98849ae6fa17331b1a63fe65aa9f9f1d1aa9650a60001b610703565b6118fe7fc529ad0aa0cf0174e531f67dda35d462565a02e95dc9e8ec950fe53458d2180860001b610703565b600191505092915050565b50565b600061193a7f382873c8fcc382f0d728db834c0253683b060b98b38095c9ec22b0eb55ea9d1360001b610703565b6119667f46809fa8f85043d4775d1937cae706044ebeccd6afb406b6884876e43d3b6aab60001b610703565b6119927f015c91f06107538327f54221a477c8cf22ce56a6baae0977d4d148884d91a4f360001b610703565b6000808373ffffffffffffffffffffffffffffffffffffffff1673ffffffffffffffffffffffffffffffffffffffff168152602001908152602001600020549050919050565b60608088611a087fdd52ce016ab88502475a9f8c20f752026c9c2793f1f27d0c3b494bdf7b8d9bf060001b61091e565b611a347f72a1f0b2f1d25bdbf83480373af9013699bce84383d6f460dd26b38d011cf32460001b61091e565b611a607f22a605e4bcee3655558144f3c490cc2ad41bca63475115b0ce03d03a1692b17560001b61091e565b611aa0611a6b6121ec565b73ffffffffffffffffffffffffffffffffffffffff163373ffffffffffffffffffffffffffffffffffffffff161460cd613e90565b611acc7f44232f0ff3d40cba9481fb4d269d06b417adab8a55c98347625c743971fba4a960001b61091e565b611af87f1686b60eafe382648cef0e2b96e7f7e45a56158e338ce9d9825e7d2953edeaf760001b61091e565b611b0d611b03611361565b82146101f4613e90565b611b397fa08ef644db2448ff2bd68848260ee4a58e33fda7588b1604f90e0d7e8958a63260001b61091e565b611b657f4978584acfb0c9e3b99eb8356c656aaa2e2a97f7fa8951f0e26f82a5e9f203b760001b61091e565b611b917f7146a8bb4cbd6d6e8d69aa42f8d23e970fc5b006ec117817990b7492222b8ce360001b61091e565b611bbd7f548abe558f2c0f8f1edd3c9f40539c44e7036e85f79139c481766e160196ae7a60001b61091e565b6060611bc7614d9f565b9050611bf57ff4b7c4c45ec04ddb05df92fe3f82d61149fbc48a181bd7aa8952a01cec3f884c60001b61091e565b611c217fa0b463a5bc8f7376734740d5007921bda5c5c73ffeb87abc8999393bce38b60060001b61091e565b611c2b8882615a2f565b611c577f1e067f344ee15af07b4474172bc7014bfe7185aadc486b08571763d64755300d60001b61091e565b611c837fa7c04c9eacf294db3a08c74349ea539022972c33a0dc8a4406370dacfc9c4c8060001b61091e565b6000606080611c978e8e8e8e8e8e8e6147a1565b925092509250611cc97f836867006c52112c0a7d182091d40676e6bcdfc09ebaf1ee19633b167e534ea060001b61091e565b611cf57fc0d3125cbd7c78056c00c7fa2e4fe531951e8bd9695c718cd33cf3589f438baf60001b61091e565b611cff8d84615b75565b611d2b7f5aae61c9a2fd379ee68b751df20f32ae942d34b7a359ec40780d18f6c115e4b260001b61091e565b611d577f094d83c8b7d63e5afadcf369364c7835e4e8c95f604b2d2467a47d96a932908960001b61091e565b611d6182856147df565b611d8d7fd3fd1432044cde2c44eec943f9b10959e065d4de4588bc7e3a496d0ccee388cc60001b61091e565b611db97f579d91694145efd38c311a1879d45490023e0922f0e7172f135d76481d4ab0b660001b61091e565b611dc381856147df565b611def7f33758183f50feaf3f45bed6947ec4daed3a88ade065eee7e7d007481b6fd712360001b61091e565b611e1b7f914b1846b3ead69d4133b352d8fb69003ab024d2820dc0f6e069e45714adc3ed60001b61091e565b818196509650505050505097509795505050505050565b6000611e607f82244de36650365c37b1ea38d8ab1911dfba5dc66fd1822227b8536c60a153c560001b610703565b611e8c7f89e532722baeeeca9424921b54a4e64c5f5d97531b3e795b9b95707e8bfe3b9360001b610703565b611eb87f9b9a62eceead51d5e1371b1d60e41966887c24d6bb4e0b425baf8e47d3144e2a60001b610703565b600560008373ffffffffffffffffffffffffffffffffffffffff1673ffffffffffffffffffffffffffffffffffffffff168152602001908152602001600020549050919050565b6000611f2d7f5b6d744b9984ca0f940181ee5e7f3f9141a56799465d611578a724e75da3f27360001b610921565b611f597fccd34a442ea9189944d6242d7d944d51762e07badd0e467c1d9ef323954e783260001b610921565b611f857f9b5e1c3ba3409b07d3693e410c8f9054dc20b55c829e32dae29721db02bf3ba160001b610921565b7f000000000000000000000000000000000000000000000000000000000000000082604051602001611fb89291906178a6565b604051602081830303815290604052805190602001209050919050565b600060606120057fba98e936cdef4ca96e4dfb25705c691ebe165486acfee29b5b8132b7532799e960001b61091e565b6120317fff130e20b5fc0d021e268e5f797f3c0960d15e2c8cf09ddc717cbef39bf75edd60001b61091e565b61205d7f0fa44d67d48b396752cb98cea1cda5e2edca18b74cb3cd94b7b18cfe2dd817e760001b61091e565b61206f865161206a614660565b61470c565b61209b7f5474bc8c6a7adc8ab6903f1692d1596426e1378ee7839217201aef377341423360001b61091e565b6120c77fe4b38edf3ee35958790d7ba6866e1285f3b3dae2db6a57180c2241647fa950f760001b61091e565b6120dc89898989898989615e75615eb3614925565b6121087fa85c5cf1d2b90cf94d4ab2d8932918e5209f8a33fce8d5e6d71bc07366507ae460001b61091e565b6121347fa3ff671cc525290dae3036cab8f73fff16c4ba80317c39306b32477d80ff358760001b61091e565b97509795505050505050565b600061216e7f9c9b30d982dadfcdef9de212bac830915a4d1caaaa28d64e1033fa6637fb8a9e60001b61149b565b61219a7f6bb33126893ed90bb9a6374d2ef750831530e2021ba352adfb8a6ff610d4d16b60001b61149b565b6121c67f04f24c8d535508dc1885ac2a967a18e700fbe86b4081bac79230f350b560f18a60001b61149b565b7f0000000000000000000000000000000000000000000000000000000000000000905090565b600061221a7f228851fc2e8857a81b46c81fb4c613c64a9c269aa98535e1e985953789ef2f1b60001b61091e565b6122467f534a6db9a52189f1345fce6018b162f1e308c199d21a3bbd28ebc4431561860860001b61091e565b6122727f11f8cf21c3fedd0af08cd8e6b4cc6250e7b35b668956799d73c2c4de887a211060001b61091e565b7f0000000000000000000000000000000000000000000000000000000000000000905090565b60606122c67f1b09bd64ab4c8210a35428f1ebcf545cbe7c19d4fed39554617e53111611734a60001b610703565b6122f27f6a0372273e898356c46874c4805cc38713baf71f5da51f956f2c0caea21eacae60001b610703565b61231e7fdc97ed429cb526ace9069d77526e830a568ebf7c714325c4b9a7f50c245d38be60001b610703565b60048054600181600116156101000203166002900480601f0160208091040260200160405190810160405280929190818152602001828054600181600116156101000203166002900480156123b45780601f10612389576101008083540402835291602001916123b4565b820191906000526020600020905b81548152906001019060200180831161239757829003601f168201915b5050505050905090565b60006123ec7f6deb191175557e21e4d5b5048415d02d1ec203d2bd1340ad5ceab8c8bbe5637a60001b610703565b6124187fd80de844ca89d8d20c246318e9b8c31bf9962c8573820b07b2d59addbc0bd06260001b610703565b6124447f7303993c8221041674f06a2709b06c531d6c945aa2593134189fcc39ebabfcac60001b610703565b61244f338484613ea3565b61247b7fe51d6f2d5a55f449e5620034e7576eaf2db66cf857562e9da7e8cb30115fd3df60001b610703565b6124a77fda42cdc715c33e6f9d242db4cd8e8b9c0b2d64bf1b38ae911fb46754752d016760001b610703565b6001905092915050565b60006124df7f98f97f59cb131fb82cfaee06e3cf383c35cb150c5a8fdeaca8eeefd8396a6e7660001b61149b565b61250b7f7d4359fef2acd5fc57a14345e963109c58bcbbb9bd9e0113a171f687be8af81d60001b61149b565b6125377fd33f29812c982b3eab2164dce71d52ee5a5ef4e53b0a1b101eac738299ea9ab360001b61149b565b61253f615ff9565b905090565b6125707f92d8088417b633aef9db9560d22473cbb0829dad88088113714e86b3045ee6d460001b610703565b61259c7fe6d99ef77a15061b9388a4be137bce3ab9f89da5d47b6cc0381b37556fb366a560001b610703565b6125c87fc9ec9b33c0a89aa9c06a0e246f7266b0b7f56e99dd89ff9fde5facf1df91f04960001b610703565b6125d68442111560d1613e90565b6126027f0d5d3b7479f11a85af9f69520d511f16edad0d20279bc39c96adc2a9693e424b60001b610703565b61262e7f1837a5abb40ba9b89d45d3bfa614f5e0cef7c17ae0b08272496053cc719990de60001b610703565b6000600560008973ffffffffffffffffffffffffffffffffffffffff1673ffffffffffffffffffffffffffffffffffffffff16815260200190815260200160002054905061269e7f71c573ac129a542e0ef7ef0f274613fa70efe280b19ce94bc4bb330b0ac321b860001b610703565b6126ca7f49e5eb4019850e3ac49c419ccfe5374994591f79430a262f0d42e4383deff1d560001b610703565b60007f0000000000000000000000000000000000000000000000000000000000000000898989858a60405160200161270796959493929190617a18565b60405160208183030381529060405280519060200120905061274b7fcaf67d9ef00cb0711a1a79c9266801d8b10566ad258627da9176df7ca508468860001b610703565b6127777f9e88cd1db5d0da84d0f42b5642e94676eaeb714dea06cdbb54a90fd2e501453560001b610703565b600061278282616109565b90506127b07ffbb8f77bb41a1d90f4c692267119eb52783b5c658a90b6b4be513a7b0c8b614a60001b610703565b6127dc7f37d2d51bb038651f842276de0361db8fd6b148f3738f07359c9ad4f6d416187d60001b610703565b6000600182888888604051600081526020016040526040516128019493929190617acc565b6020604051602081039080840390855afa158015612823573d6000803e3d6000fd5b50505060206040510351905061285b7fd1d138253e25432a8badf5378b017a1388c994f997eb395294878705d58b96e060001b610703565b6128877f84f8670eb58ab07f1e88c484c695c261c0e65808f8ba9e9b0c51d9ffdc84902a60001b610703565b6128fa600073ffffffffffffffffffffffffffffffffffffffff168273ffffffffffffffffffffffffffffffffffffffff16141580156128f257508b73ffffffffffffffffffffffffffffffffffffffff168273ffffffffffffffffffffffffffffffffffffffff16145b6101f8613e90565b6129267f22d7de187d767badd08d0f56b9032ebaf3425b342596c16a4d6c074cf3f87aff60001b610703565b6129527f177abef53e1d0dd58ac47c7df006757d5d6f236a0aa590407ec19064e1ab44ae60001b610703565b60018401600560008d73ffffffffffffffffffffffffffffffffffffffff1673ffffffffffffffffffffffffffffffffffffffff168152602001908152602001600020819055506129c57f4cdd763c9803f8c2ced5b3f501b434276e7e1cbed3e20f3bf45228060143216e60001b610703565b6129f17f0889d4543369d8b61a6a795ec77232055ddea529d88d80d8fbb5228a924dff2060001b610703565b6129fc8b8b8b6136d9565b5050505050505050505050565b60608088612a397fdd52ce016ab88502475a9f8c20f752026c9c2793f1f27d0c3b494bdf7b8d9bf060001b61091e565b612a657f72a1f0b2f1d25bdbf83480373af9013699bce84383d6f460dd26b38d011cf32460001b61091e565b612a917f22a605e4bcee3655558144f3c490cc2ad41bca63475115b0ce03d03a1692b17560001b61091e565b612ad1612a9c6121ec565b73ffffffffffffffffffffffffffffffffffffffff163373ffffffffffffffffffffffffffffffffffffffff161460cd613e90565b612afd7f44232f0ff3d40cba9481fb4d269d06b417adab8a55c98347625c743971fba4a960001b61091e565b612b297f1686b60eafe382648cef0e2b96e7f7e45a56158e338ce9d9825e7d2953edeaf760001b61091e565b612b3e612b34611361565b82146101f4613e90565b612b6a7fa08ef644db2448ff2bd68848260ee4a58e33fda7588b1604f90e0d7e8958a63260001b61091e565b612b967f46ec2214567eed137044132d4194f1c924f4c060e5ffa0c36425639ae078686260001b61091e565b612bc27f34f33f4da7f7b5b6beca15691cce90b393284fa18ab665ef4f979d7ba668b75160001b61091e565b612bee7f41850859b7aad332a49e350912634dc754ddd72f15e16eb9c08cfc5fbcdc917f60001b61091e565b6060612bf8614d9f565b9050612c267f32d4ce0ed69003274015467297b5008ec37122d44f4070b847991d690b3476ea60001b61091e565b612c527f2ab99d3b439cef37bb5db1bf35c3833df3cb97ebf03d8a45ef9e121a5142a8c460001b61091e565b6000612c5c610a6c565b1415612f4557612c8e7fea3433161ed476bec1be6bb256af3412f73e239bf1d31f223f8654f1ba60eb8060001b61091e565b612cba7f7eca8429823f9a4a3c30156d8244186884f94acbe80dd8b4b8a6fe8dcc2f0ee260001b61091e565b612ce67f27f8e3d0f4c1680ae0e0bf8fd4ef68029f7756e06db2f52e0f668323244f50dc60001b61091e565b60006060612cf68d8d8d8a6161c6565b91509150612d267fd15fa2c9dfc7decb1ecaf21f1f39ff748bdba866a98911751fe1c93b22f0341a60001b61091e565b612d527f3c146b958c6efa242bb3eb6288bd5a37c7ed49c86a60ccbf1bf0824410bea8eb60001b61091e565b612d63620f424083101560cc613e90565b612d8f7fa34e9d7293c57aebadbf6919e98ffba1b2f671ff406e081dca6d7e0f365ea51860001b61091e565b612dbb7fa74d37d84e980d05e719b20c106e44b40fa7fefca68b7127480c584cbbd4bb6560001b61091e565b612dc96000620f42406161ff565b612df57fbc1c70b29a80a0aa330372c19d123e9858182c26283444c7d80900ebf8ba953660001b61091e565b612e217f21d746757b715b6905c0fb50c34fddd483458585be03f140506b9095fbe0e22960001b61091e565b612e308b620f424084036161ff565b612e5c7f91bfa1e0fe97dff130a501c99ee8b5d2deecc3ac371afaf4093828a73d185ad960001b61091e565b612e887f8cb7df7607dcf934a91b4a5959f1d031a74af6049028ee10038c2491917d6c9460001b61091e565b612e928184615eb3565b612ebe7ffc5eeed21761bdd227da61b8677551912ed74b72c52b8204d88a61e51e70850e60001b61091e565b612eea7fe622457cbedf2b813a4e174328c84816851040cff22a62e9814424b2c4bb0bc860001b61091e565b80612ef3614660565b67ffffffffffffffff81118015612f0957600080fd5b50604051908082528060200260200182016040528015612f385781602001602082028036833780820191505090505b50955095505050506131ce565b612f717f6a9c19d9a1c5148d2a471d6ef29900e2cb13b29ac0d172bb662a4b92eb1161d560001b61091e565b612f9d7fb7140b63c91a0e65b2d1b6857658d3e1c1b4a47863d19115d807e0b1a8123f0c60001b61091e565b612fc97f084a8a8251a8b660f3dfc378593377bf1fdfc92b86cdd1a8bb6791aa2735a75d60001b61091e565b612fd38882615a2f565b612fff7fe0bbd7cfaf875f5310d3248d2261659c2ee4660821ba9eb9ee559d4d2657b7aa60001b61091e565b61302b7f6efd53086dafb0d265c98ef28dbd6ddf0f499c8f42e2f3ae939ad1970e5f804c60001b61091e565b600060608061303f8e8e8e8e8e8e8e615e75565b9250925092506130717f675b257735af140e002a3e9131359820ab14127ef70b32915e782b7111fd281c60001b61091e565b61309d7f47831360a9128d2a39db19aafd66ca05820f93a0e7e54b904f495a98d57fb06160001b61091e565b6130a78c846161ff565b6130d37fe39f3e029ec72aa928f7b20b2ba0f199b8f3daffaa8ecae5348a3f948a628afd60001b61091e565b6130ff7f7f62b25c4a80bba61fd39be53125ebfed55e11b7da8f1c6259f35d47b5fdc45b60001b61091e565b6131098285615eb3565b6131357f232a996b66398d167279170535514cce51440ab05c577fdc50d08eb1b69773a160001b61091e565b6131617f991a61d62997ae60cd83b6f52d07c1ed715b70afad2de8c6e4934cb80c2a7dd860001b61091e565b61316b81856147df565b6131977ff48009596e711481c620a7d2650fd3d755e07f569f4e846cf9b39f35497b043960001b61091e565b6131c37fa9f747aaaf0b9777d744d2f62bae0085b56691ddbb20cce7943f4ce383dde83d60001b61091e565b818196509650505050505b5097509795505050505050565b60006132097fa9b98a594d3b5c774b74cd6ed48cf8dff4f80392c6473684179cff7500e6444d60001b610703565b6132357fd034439f5728cc6dbb46c15a010144ca40c85fb7a49179a37ddd6688258ce6d860001b610703565b6132617f1d2f27b8fa67c9b6dacc27947e01a8353fd11ced3843151e63c744482bcacdca60001b610703565b6132fa33846132f585600160003373ffffffffffffffffffffffffffffffffffffffff1673ffffffffffffffffffffffffffffffffffffffff16815260200190815260200160002060008973ffffffffffffffffffffffffffffffffffffffff1673ffffffffffffffffffffffffffffffffffffffff1681526020019081526020016000205461644b90919063ffffffff16565b6136d9565b6133267fc624b982209d34d3063563b50888b38b0f028ae195fbfc8489f5a7881b9247f360001b610703565b6133527fff5d9bd3a30bd6cb8e1f7d6662787c729ac63a8de91f644f3e41ada4e2fc577460001b610703565b6001905092915050565b600061338a7fcde1da088e653348a27e3db5513a0b32042c7bddb19b9d92e981f2506dec065160001b610703565b6133b67f0a42362e590384ffe636c3826e148b566dfbecfc831f0684dd9f6a23b8e65cd060001b610703565b6133e27f09be738a1bf0b0516ed2f8bc0f08cbe34a749c8983227a44bbf2e5c671b575d760001b610703565b600160008473ffffffffffffffffffffffffffffffffffffffff1673ffffffffffffffffffffffffffffffffffffffff16815260200190815260200160002060008373ffffffffffffffffffffffffffffffffffffffff1673ffffffffffffffffffffffffffffffffffffffff16815260200190815260200160002054905092915050565b50565b6134967fccd7e13b327ad13eb1cf5266c6b879986903b9a1f80b6661c959488e5f0fb6d660001b6165a0565b6134c27ffebde624b7e9ce0b255ec134f0aeadd3b2108737eef3a0a39d228170f9130f0060001b6165a0565b6134ee7f2ada8f09730243aac13b03ccb80c149c6ebadcaf132018bc0ae05b400c3e067c60001b6165a0565b606061351c7f394297b1718752bb0ef7436c53e94e02c76dba2f63de8907998210a9ab652db560001b6165a0565b81905061354b7fe19f999020959db22bc5ee4f58ef119cc222f2c75a6691c1d02afd22bb0d832160001b6165a0565b6135777f251d0080a7ba22b7ea3a753b97fd5fe79dfac363028058899b93fa1a626ac53c60001b6165a0565b613580816165a3565b5050565b60006135b27f4ad272e8ef896cf9749bbb33b720ec50902be1d6268b31d272f37eeffc01139760001b61692d565b6135de7ff5b8f6315ed04f6f880d15c913444893b354f451e1a7755f980256aa3a67eb1b60001b61692d565b61360a7fbdc5b111411beb8ab6b53375bbc8bf4e74258c8c8f4987a4928ce54801c48b0060001b61692d565b613618838311156001613e90565b6136447f878d38a5a5b3291f5b62618821c286b1ce4d8ac1fde0f5c52c6f8b253e3c721860001b61692d565b6136707fdee8db45952fd0881a888ce099e6774ada46e04a8240c739354e8b594734d0b160001b61692d565b600082840390506136a37fa883eec5840f8062e57d5a86c35fd0af17f6df22b4081b6a3676dd71088ac1e360001b61692d565b6136cf7fc44e06103de1985a150207dd6e5102796da4ff917908533e00a2fd2e75a52f9460001b61692d565b8091505092915050565b6137057f9a5b448a21cd2032fa5308aa257d4351306ac960be62691687d8894949250e0260001b610703565b6137317fb03e90560bcfc6e147e178f704890e0476a2bc183a28c6a21d4ed276077228e860001b610703565b61375d7fa23e95d7dc0024c00091f5622f8bf7106ac1268477fb653af8c6c9fac644c9fc60001b610703565b80600160008573ffffffffffffffffffffffffffffffffffffffff1673ffffffffffffffffffffffffffffffffffffffff16815260200190815260200160002060008473ffffffffffffffffffffffffffffffffffffffff1673ffffffffffffffffffffffffffffffffffffffff1681526020019081526020016000208190555061380a7fbf7482d78d5e209f32f7d094fd2c863fcba586e8713beafce89fe20750e8a3ad60001b610703565b6138367fd9fd5feda47756822224f2afe37e079d8790fc04a9924ac7a21fcd251c76cba560001b610703565b8173ffffffffffffffffffffffffffffffffffffffff168373ffffffffffffffffffffffffffffffffffffffff167f8c5be1e5ebec7d5bd14f71427d1e84f3dd0314c0f7b2291e5b200ac8c7c3b925836040516138939190617b69565b60405180910390a3505050565b6138cc7f037c1c31a242abc9fe85f7897d7e3db2fbb4a96d88800fd61753b3feeab291a760001b610921565b6138f87f9b69ded238e1f105af3c724db26f035e19242e09a189005c88d1afb44e2dcdf860001b610921565b6139247fb34966d8df6692c5bb03465c646169e626a9b8831246d3a50e8307b39c31ec6760001b610921565b60006139536000357fffffffff0000000000000000000000000000000000000000000000000000000016611eff565b90506139817f3851df8b489ea432cbe9ff42b63c2ca5f69a63da3d74f1fe1778c5c8160ce22b60001b610921565b6139ad7fd4c39b3623449b73860af568247fe45de94492dc66e5806084c17143e9fc8a8f60001b610921565b6139c26139ba8233616930565b610191613e90565b50565b6139f17f9ca88045db8d949814438a13bf21b48aedd95f5ff425c78bdeecf9e554c20e0c60001b613467565b613a1d7f4484fae8b8c9b656ccdd7654efc847550084d7ff8a53c71d79f033cb2841200e60001b613467565b613a497f3a1188fe57cac37044a89dd8e5528114be6e1007b6406a553d38ef12bd40128260001b613467565b8015613aed57613a7b7fdda645df7e98b889b69605a1bf756afad35a07ce30b01314c79d51c37b54701060001b613467565b613aa77fb7f6d0de389687aa7fde5c37b0c2f09f4a18c62972c7173468c0d5f3cb9cc91b60001b613467565b613ad37f360eba24823249042ba60c6e0658ae8b185a6fae1f97291b0b165b49646efcf160001b613467565b613ae8613ade613d38565b4210610193613e90565b613b87565b613b197f05d8ac58c222598101af6f778876daf2b2ee278593a4decfa775af3163d0b4c060001b613467565b613b457fcca9c947ff50725ae80c4f35ace24e26c64dfdda7d4b9eb9238c0587de3f819560001b613467565b613b717f7ac650656159f2390ccf4a5a435c6e94ef6bdaf2db56514e60facb392b930ec460001b613467565b613b86613b7c613de4565b42106101a9613e90565b5b613bb37f614e1735d26a417915233ed97d734bcb5ba84914644cedb23defc5a2c4eaa55160001b613467565b613bdf7f1b4a3e5f5d8a07e71bf12327fc36732f208a90d5127ef5a880ac46eb5eda52e960001b613467565b80600660006101000a81548160ff021916908315150217905550613c257f60de7a74b61922d97d93f392d3be383d254e5a8bde11d9f3667002600e9372b060001b613467565b613c517fd50ea98c5ed63cf272070b3787b98fb630edb1e3eca7d0d12f622fb79864addf60001b613467565b7f9e3a5e37224532dea67b89face185703738a228a6e8a23dee546960180d3be6481604051613c809190617974565b60405180910390a150565b6000613cb97f89b34f2fb06dac097a304a424a1ad8c28395d1849054b696c8fecfcff4055dce60001b613467565b613ce57f627cb46d8473646cf71270352217eabe06ac16332088afb831fe88e28ec077da60001b613467565b613d117fb74ddcb4d2734e77259615375d823c21dac5b776b56f1c1a11ca9ca567e71a7b60001b613467565b613d19613de4565b421180613d335750600660009054906101000a900460ff16155b905090565b6000613d667fb842466cf656b2952ad7f300d5515c05a11d6a992cbea6b69e8eb29cfc79eabb60001b613467565b613d927f4e72d726a61cf09efe8147a409ab7bdc1ea15e796d8baca5a430cab1a5335a7260001b613467565b613dbe7fd3ec2efc7233e25174de2c94fc91d34ee9074a336f9f1015ffcd059519f4d0a460001b613467565b7f0000000000000000000000000000000000000000000000000000000000000000905090565b6000613e127f4052916af5ae9f897cb803d56086596648e0c168ef92212c663e3134c3b19a6d60001b613467565b613e3e7fd3c6251a62d0f77016b4e3b22d079f8a671996b36720c49a2ccf206d7e76080960001b613467565b613e6a7fc4dc146b381b9b1de3f7d4d3ff843f926f346ba6f9d8f5c0795b47af1f1fac9760001b613467565b7f0000000000000000000000000000000000000000000000000000000000000000905090565b81613e9f57613e9e81616bf9565b5b5050565b613ecf7fd529164b19be6d95bcfbdaf40f429a8a1603f0c977f519cb9f870ecb8152a47e60001b610703565b613efb7fe41ac344bcf11b9ded08259d4818278957f90a7734a706dd5f2b2325751c28cc60001b610703565b613f277f25663d4831b921ab3e180db522e67b9d4c731778698c35c1b98bbbf3028d920960001b610703565b60008060008573ffffffffffffffffffffffffffffffffffffffff1673ffffffffffffffffffffffffffffffffffffffff168152602001908152602001600020549050613f967f5d78b30e392bc7f6e0e27e15c0002035f9b08125eefe5b8d1387072d4ed902b160001b610703565b613fc27ffcfece9bb0f8c43acd0d28fa43d0e21f14661adf0416e1ab7863208b145203d460001b610703565b613fd182821015610196613e90565b613ffd7fa041584898bb01c1b6d96f86c51bb6651f3bdee1c82a9f7623e72a330b7e434460001b610703565b6140297fcb06c78a59ec59ff22e9c4ec6cd136da452099244a1d78be0fdac02c0f855b2f60001b610703565b614065600073ffffffffffffffffffffffffffffffffffffffff168473ffffffffffffffffffffffffffffffffffffffff161415610199613e90565b6140917f36e5b8353b45f2872d2100bf83f12822bb595a1548b60db4e3ee9da3dbdb3cf560001b610703565b6140bd7fb9d2dcc68a6a40971012c756e4fc1700ef0f6a8dac7815c8883ffe1f27e1dc4660001b610703565b8181036000808673ffffffffffffffffffffffffffffffffffffffff1673ffffffffffffffffffffffffffffffffffffffff1681526020019081526020016000208190555061412e7faa23196d94220b56b86d670ed144291b9f1cb0700b33e857b4237881427abb7e60001b610703565b61415a7f92c148fdf087e986784f946c0b1a53cde22a376b74accdd6980a58bf7e478d5a60001b610703565b6141ab826000808673ffffffffffffffffffffffffffffffffffffffff1673ffffffffffffffffffffffffffffffffffffffff1681526020019081526020016000205461644b90919063ffffffff16565b6000808573ffffffffffffffffffffffffffffffffffffffff1673ffffffffffffffffffffffffffffffffffffffff168152602001908152602001600020819055506142197fbde74482855c06aa81b686d4347ebfb8c5497ad562890e3cc31daa11d0b3e99360001b610703565b6142457f4049d7d86893edaf6070b20f62df68cc1472a6753938f5be6b67573deb5d33c560001b610703565b8273ffffffffffffffffffffffffffffffffffffffff168473ffffffffffffffffffffffffffffffffffffffff167fddf252ad1be2c89b69c2b068fc378daa952ba7f163c4a11628f55a4df523b3ef846040516142a29190617b69565b60405180910390a350505050565b60006142de7f0619b08396514f3014b4cd388f4277c5ee27d85e6ddf8c8e8741a4c70985e78660001b611909565b61430a7fadf5ed2199ad87ddb5b50c063afe706a9746a5f97871ab751613d492674010ea60001b611909565b6143367fdf8526b85b2735b3fbfc4736bf3d3dfa64ae072b5fd103fbe8a3f3cf1ebbbb3460001b611909565b7f00000000000000000000000000000000000000000000000000000000000000007f00000000000000000000000000000000000000000000000000000000000000007f00000000000000000000000000000000000000000000000000000000000000006143a1616c69565b306040516020016143b6959493929190617a79565b60405160208183030381529060405280519060200120905090565b6143fd7f78de2f2ed65337ea91dc7f8633b4ebbfee50e836ec3e7f6f61cecf0c8a5b0d4860001b613467565b6144297ffbeb7bdef9fce6baea2e09e278d93ae063706540283221171588ec3a681cc80560001b613467565b6144557fa8c9fc7a7b205b4878200059417e7c075d2991f70b31def03c582521ce0701f960001b613467565b614468614460613c8b565b610192613e90565b565b6144967f4db390be21e4fb063d5dd50c0d8ff4fecb780cb5d3a663078f0238771f240a5b60001b61091e565b6144c27fbb76a41f0f7668870dc0f60369571a4c1c74f74012e4a44cda2833ac29840c5060001b61091e565b6144ee7fa4b530f061555287ea4320080212b502f18a367bec77f93b855255532f27280560001b61091e565b61450164e8d4a5100082101560cb613e90565b61452d7fc92e78637e75ff2067c493202cbc2e5a0c3ff84b364a570b3fc8cfd0bcfac0bb60001b61091e565b6145597f8d683083a08acc0b83ceecfcab17bca90825940aaaabc6c8eb4cb5b92c20670e60001b61091e565b61456f67016345785d8a000082111560ca613e90565b61459b7fc6b4f73e1e3e08acbef66c2b93bbf2d5ec40bc2f3e3cdea77a81d5f64e46cb8660001b61091e565b6145c77f219cccbd8afb9a6938460c83557637149eef3eccc86f1f705bb1ac24cc6a982860001b61091e565b806007819055506145fa7f7a8b5c43fe9ff106f995ea4ccdb6300781de8b765da9047aaf54af4d21c424c860001b61091e565b6146267f69bf62710ab010bd67f43d890ee13c590d761678d4320c0e0d4b5c7a6a5923ce60001b61091e565b7fa9ba3ffe0b6c366b81232caab38605a0699ad5398d6cce76f91ee809e322dafc816040516146559190617b69565b60405180910390a150565b600061468e7f17ce6d081f74ee08ef9e48f9425d456b2b399ccaf069b78b5c8013544e73f87760001b61091e565b6146ba7f14cfdc4a355e739ff803b919d9d0b04b5dab2d93ca1a0140e4f5277afb36025060001b61091e565b6146e67f1c8361d142604e5136f753badce0ac4ea65494a8afc6d6ee415a20f7201a3c7760001b61091e565b7f0000000000000000000000000000000000000000000000000000000000000000905090565b6147387f6f02687e057522eb19b597e3b091ff65201fe492dbd6f67980e016d6aa08d53260001b6165a0565b6147647fe51ab352fa79dd949e57050cd47d3f0410afdfe7c28a6ef735cccfeeb18f582360001b6165a0565b6147907ffce750c89171756118e85bed28eb1432c569ae13e7db5e43107d00a4ed5889a360001b6165a0565b61479d8183146067613e90565b5050565b60006060806147d27f5cb93ef029b1919cc19b4fec7ac385d23fd5ecbf09b618a699e6de4eaea9710160001b610c57565b9750975097945050505050565b61480b7fcbaaffd906cbd53bd125e27e9172e0887de097307036c81b4d5335899033687860001b61091e565b6148377f4ec9fc5880d3f1f6cea1663045b6bd9c46eb83ea9c957def86dd1eecc699576f60001b61091e565b6148637f80dd72ab1cb3636ff4a460ab3f5d7a1b77aa84fa41069cf2dcc0f3b53ef4230b60001b61091e565b60005b61486e614660565b811015614920576148a17f05ccbf7d14d31eb1183923aa71d3e41f8afe74e907c7076f051c9f9889134e5060001b61091e565b6148cd7f6988acc330977aa397c07a4e2a60da57a1550c58f5513bfa64643dfa50909a6060001b61091e565b6148fd8382815181106148dc57fe5b60200260200101518383815181106148f057fe5b6020026020010151616cf5565b83828151811061490957fe5b602002602001018181525050806001019050614866565b505050565b6149517fcb8be7537516e5868f5c860ba4859ad4df082f89d16d6a26032a0e62bf4f85f460001b61091e565b61497d7f018f7661527a85c4c2816c559a47d0bbd0a2b0ea176e5b5b5ac714b18600dece60001b61091e565b6149a97f7396eaedd30879304b8939c59bd70d989d1757005480452dae5b3a833161022f60001b61091e565b3073ffffffffffffffffffffffffffffffffffffffff163373ffffffffffffffffffffffffffffffffffffffff1614614b8457614a087f174dbe9338081800e5e1deada93bf9512947308069b02da16843f7077fb53d3560001b61091e565b614a347f468c54a601155302414a6332cede60c38ca9400062b5b611090f80e53e7b8c3f60001b61091e565b614a607f7d55e3667301877ae144689e79d5dc1f1943b9023378fcd6f39d280991e2c29e60001b61091e565b60003073ffffffffffffffffffffffffffffffffffffffff16600036604051614a8a9291906178d2565b6000604051808303816000865af19150503d8060008114614ac7576040519150601f19603f3d011682016040523d82523d6000602084013e614acc565b606091505b50509050614afc7f9f0e868dee5fb701eb62df2f524a42acde5bca722dac097580443fbafddcce3260001b61091e565b8060008114614b0757fe5b60046000803e7fffffffff000000000000000000000000000000000000000000000000000000006000511660007f43adbafb0000000000000000000000000000000000000000000000000000000082141415614b67573d6000803e3d6000fd5b6020600460003e604060205260243d03602460403e601c3d016000f35b614bb07f42373bae5b742c0db7c5cdd091af31a477ed7e90f631aa18552d25c7221999f460001b61091e565b614bdc7f44d4335bbed5aab8ebddb2979d8412a2805c3cbf78c2e91c5a7f31011eeb3a3b60001b61091e565b614c087fbdb0c38392ffad6931a1187e6b677204cc791843e34c1c58b14f1b3f99c1654f60001b61091e565b6060614c12614d9f565b9050614c407f7ecc20ad6e3f39517ce427bfa00c7290ff42330e890f9f7fb82030ee1fe9388460001b61091e565b614c6c7f4642ca0a767eb141a0f88599118b9a367495bd38e49abba09b312d6d7b87f48760001b61091e565b614c768782615a2f565b614ca27ff105ba0013888744040cfa11014e8141615a2f53fbee95163322ca8741cfe1b860001b61091e565b614cce7fe35a1aa2d28eb0051caccb1f531fdaa44990924c6297de247bc3ce5dc268bc5860001b61091e565b60006060614ce58c8c8c8c8c8c8c8c63ffffffff16565b5091509150614d167f697cc2479bec35ad8791112b87e473ff705cac0f74fe35d8c005469ba3f57b1560001b61091e565b614d427f37058d522738845533df88aa67406292585d3e2193bf84c6cf8730afb9fff60060001b61091e565b614d5081848663ffffffff16565b614d7c7feaedaa87fcc50ee74b4a773bcb1b1aa6bab646d8689ccf298f91ce47525ea54a60001b61091e565b6020815102602082038381526343adbafb60208203526004810390506044820181fd5b6060614dcd7fd86c84112f55ff8fd0f287586e41577aa9fd2656498052055b6f0b479b592da760001b61091e565b614df97f7205aa61f849fa338fd1d065d09e5bc1fbfce1d33e24a1aa8bec86a3a0af103f60001b61091e565b614e257fd0b1186bddfb801d14f0cad39f5d5da4501599c4070606a7f4557a2e2965b89a60001b61091e565b6000614e2f614660565b9050614e5d7f828d552e1d0a113ea66f6358e4623f01d242745c1a5abff9b048ec0a5388ceae60001b61091e565b614e897f5d510274170e1618dd61a4c76372ad342a5e16310b4249930d5bc59e03c0ab9f60001b61091e565b60608167ffffffffffffffff81118015614ea257600080fd5b50604051908082528060200260200182016040528015614ed15781602001602082028036833780820191505090505b509050614f007fa9ce48567334fc57570fa66e8f90d08ae562916978286dd9ba55155a36ebae4f60001b61091e565b614f2c7fa9b6e6ba39e059e00866d68c45cdc1644384a6d6dadcf8d3b6912fe6e39607a860001b61091e565b614f587f019e45a1e619f4a38de0bd317809b09bc61807775ae1f9372812bf8a1220becf60001b61091e565b6000821115614ff857614f8d7f4324c26857571706dc3cd0fddec6f27691b4cf178f10946cbf328f86a366d34e60001b61091e565b614fb97f67a50c890c0145d3188e36fc0e6dffabce42de7fcc66e4ffab024e22600f0d1660001b61091e565b7f000000000000000000000000000000000000000000000000000000000000000081600081518110614fe757fe5b60200260200101818152505061505a565b6150247fb73639d9108d94840dfcd31987cb855b3d0b3e9a918d19143478f251671bb45160001b61091e565b6150507fd0a66d198ac1cdf3f775a3f3e7986aa0ada9182b02f4b88389cc3d872d13a9c660001b61091e565b8092505050615a2c565b6150867f1b922a519bf1e0c0dbf2bb5a5e8e68f1ee34e8c1b16d9aeb857974bb479991aa60001b61091e565b6150b27fc393908bf95626e50c35833003e11d2ed6f75d32aaf155473442cc2ad03cc15b60001b61091e565b6001821115615151576150e67efb3aa1902324212d245dd8f03d13036917af5848b625dae04cd778c978273960001b61091e565b6151127f3a0aa1d4f71fe201d9ff0d509d4a8eaab3a9629f622ff5e6e611c83681ef37b860001b61091e565b7f00000000000000000000000000000000000000000000000000000000000000008160018151811061514057fe5b6020026020010181815250506151b3565b61517d7f7315fb1281044947124b2bde95f42b0f836a406ff81e2aace136b8054312ebb360001b61091e565b6151a97f12954f852ad3b6950baa57a93a51f86a77c726563c28295b9bd7cb04ccd46b0260001b61091e565b8092505050615a2c565b6151df7f3174961a8a0703211b33161b3f7195bd8004f857c029bc68796392092f0f259160001b61091e565b61520b7f3a2beefc92b859be4792c8a256e16737737d1d9fb6e8590ba63d73b30ff3308360001b61091e565b60028211156152ab576152407f105b6e510a033c319ec4d8322948d2b3ead4f8a2da9df5e2c529c95effc7004260001b61091e565b61526c7f911de324185adbe72455166f64823424cd452d0f03c474c6af1ba0d29648c2e760001b61091e565b7f00000000000000000000000000000000000000000000000000000000000000008160028151811061529a57fe5b60200260200101818152505061530d565b6152d77ff8af2c676e27a6792d91ce7f8a3a168544a86c105d4be274c7b3b244cc9fb07460001b61091e565b6153037f0747d730c261a86eb9233b5e4a9c08819797c64bfe050f59b343ad2fa6b5684f60001b61091e565b8092505050615a2c565b6153397f9b62dc14c71ad6e7c3b41235034a475d95cb32f00a020945126ae01348a946b260001b61091e565b6153657faba93c841882a3d79e86136b0ac11978d2e1a15a42098298daea7ef05fc39ee560001b61091e565b60038211156154045761539a7fbdabfb556891e82cf0c61d8df5a5095295586162f9df3bedfe3416533488258260001b61091e565b6153c57e261a8dd9fcbdc713975c38bafd2f8110695a117c487ad644451005f2655dd060001b61091e565b7f0000000000000000000000000000000000000000000000000000000000000000816003815181106153f357fe5b602002602001018181525050615466565b6154307f253a5b765ded2348f383fa791bb73f1ac1ba82f8b04182b5d08a2d43ccb80b7460001b61091e565b61545c7fee64837736fffbd46c36b3842c91ed493c728e2c3068e855a0587d602c99812960001b61091e565b8092505050615a2c565b6154927f1fc8d2538890d89dd52b3544d7c1a9ebafb28bc7e64e71bde855c44eb03cf0f060001b61091e565b6154be7f18447e7ad41d260818592214b6745fecdb3d9362e863b006190e435cd2d384e360001b61091e565b600482111561555e576154f37f44b8df3a8be5ef22e947104c4c7ee25b121375f928fe8ac97c9bfd7bcf3cb25d60001b61091e565b61551f7f95bc2d8c9b0293c36421acc607c604a32af599db95841e37cf6a56e82cbec20e60001b61091e565b7f00000000000000000000000000000000000000000000000000000000000000008160048151811061554d57fe5b6020026020010181815250506155c0565b61558a7f99cc19f4f1a1fead2ed820cd2005905cbcf0d85c04ebb2508317158cb90786db60001b61091e565b6155b67f37169960d49190a1086588dfbe52bbc1d25ed1d1248085bdcda9a043999ad87d60001b61091e565b8092505050615a2c565b6155ec7f779fae42a3f1098129d8c2aaeadc899dc0bc5a9d3dc4e925b41ba2697699e10860001b61091e565b6156187f8d072067f9854367e01572b0c5fc9b65f1fa3ca05e6dba24571900c409dd9c3260001b61091e565b60058211156156b85761564d7f39edf9c4d54d7ebb2f348f721d2b44a2b2ac520e2f5eebd0f4f99cb18735cbb760001b61091e565b6156797f06fbdb6c60ee8dde13298897558bdcd611bec7ebad5662c51b2a2ed3cd7f1bfa60001b61091e565b7f0000000000000000000000000000000000000000000000000000000000000000816005815181106156a757fe5b60200260200101818152505061571a565b6156e47fc36337fba2bac108e02d0da9a23104862ac3d4d156c8cda6da5c5371fb1967f960001b61091e565b6157107faf2290e81ea38dd9e66b797b1cf6306c4c5a33d5b1c7130150bec269b22abbd360001b61091e565b8092505050615a2c565b6157467f205a95b712482e114dd198a94f4b595009d4e1e1a4f74db8f3561da3150e422060001b61091e565b6157727f0e9bc5b8e6cbb38d93307a3c08c600a39b8bf6c6f6ee63e45b095a7170f8685b60001b61091e565b6006821115615812576157a77f21738df5ccbdabdcbdc4d8a34dfd2d894335aa83f01f8e0a5a644e9466e876c460001b61091e565b6157d37f02aee8b2d8563d0ba4a349e78bd86396dc0389b42e721fd34e93753c65c1f33960001b61091e565b7f00000000000000000000000000000000000000000000000000000000000000008160068151811061580157fe5b602002602001018181525050615874565b61583e7fce54e51582638ff24f6836d67760413627ffd5f113d684e30b6ad19d04fea44a60001b61091e565b61586a7f4dbeaa5a03e8fbc1c7d5c50ae765a226a7980e3520653b5d3d3e1af44d944b6860001b61091e565b8092505050615a2c565b6158a07f835d355022ded406bd3ad94a8aff53d21113e8e0b8812b87f09a1e9adcdfa72360001b61091e565b6158cc7f49ea287b0528f5861d17cf8fab05c6fd21d3959fb8eb28c2cff57f577bedc56b60001b61091e565b600782111561596c576159017fec357bbe3cab77528918458867085574045e788ee00af7270f0814d2ceebb0fd60001b61091e565b61592d7fa6fbbc78ced0d25707dc31df0a791deb0e3cec5a869d5a6233764ad13653f71260001b61091e565b7f00000000000000000000000000000000000000000000000000000000000000008160078151811061595b57fe5b6020026020010181815250506159ce565b6159987f4abbf8d7037b8456e1cf4ad70e0e5cbe12a107d351f9fe0db222a85e47e3cb9860001b61091e565b6159c47fafebd02c2241e266b33106b56a6cf556865a4d11c2b2d804a095a0b2b52942d360001b61091e565b8092505050615a2c565b6159fa7f22f920bb3779a24a0c4187c98bda6b33284d75e61ad5a4304caa9e919602b64460001b61091e565b615a267f66437e35cd7f87e11d1288760b01698057fd1bfcd1106b604457121d4ae0fcc260001b61091e565b80925050505b90565b615a5b7fa47500421f71aea538f647a50d4793ad97d25c47fc6632768c2c34622cf602c460001b61091e565b615a877fae94421a8c4f92f713fbef2ca68d31653ad6b7c094d5ef630ea1106c078516bc60001b61091e565b615ab37fba4c079c27fd075590f960ebba79a02873bcdbc51ac6fbf1b4c6224a1db75ffe60001b61091e565b60005b615abe614660565b811015615b7057615af17f1a5bf174fe7901b96aea42cacde9cece39f7b24768fea3865baa8696b66f753e60001b61091e565b615b1d7f9e1655e825bd2a228fb5e2fcad16e2870e76cdb9e4df27f38d88d562483d2f8a60001b61091e565b615b4d838281518110615b2c57fe5b6020026020010151838381518110615b4057fe5b6020026020010151616df4565b838281518110615b5957fe5b602002602001018181525050806001019050615ab6565b505050565b615ba17fe7895fc4b60ecaa846487cfdf88501d7a3d845f6dcfde25b51e9ebe103d4dd1660001b610703565b615bcd7f6119845ea51ef8873311c7cc5f6e9451228545977e83bd2fca034fcbf60592ee60001b610703565b615bf97f1aacca6942d21795f8977f383904c3e6981588c0b3000f634c2e960582504b4060001b610703565b60008060008473ffffffffffffffffffffffffffffffffffffffff1673ffffffffffffffffffffffffffffffffffffffff168152602001908152602001600020549050615c687f8243cc9f1f57f1b96a49950cfe1dacbddf5929258edb0bee2ddb37a22281a90760001b610703565b615c947fbd44c0256d8aadfcef4efd3627db538d37219689c5361397870819146f70a42260001b610703565b615ca382821015610196613e90565b615ccf7f8aa5942c2fc262cf7a401a7f3ecf060f53a4004fe1d78beae0b1fdbd6d1d6eeb60001b610703565b615cfa7ed6bace290ad6caf9ffec452c1670cff35dbca2b0a306ff96cccdce2e951f2f60001b610703565b8181036000808573ffffffffffffffffffffffffffffffffffffffff1673ffffffffffffffffffffffffffffffffffffffff16815260200190815260200160002081905550615d6b7fc52ce0972fcec86a98fe5814b728415679023175cd455db318311de66b92f34260001b610703565b615d977f05f8756a33b7123b4c227b842001d63ca97694d4bc95d0cf7cb6a8f99983400e60001b610703565b615dac8260025461358490919063ffffffff16565b600281905550615dde7faeb97f7f13a09e19770aea6bea39e3ee9aeb9772a1c8bc1b87847f12bb6fbe8460001b610703565b615e0a7f97d6ddec1a18888f9c7db4b95e3500d5fda1b79361bd668528ea1b5efc56b39c60001b610703565b600073ffffffffffffffffffffffffffffffffffffffff168373ffffffffffffffffffffffffffffffffffffffff167fddf252ad1be2c89b69c2b068fc378daa952ba7f163c4a11628f55a4df523b3ef84604051615e689190617b69565b60405180910390a3505050565b6000606080615ea67f4741ab78a2baa32ecd53a624b1dbc5a90d30d6cf1033dd58b0157a75ebba655e60001b610c57565b9750975097945050505050565b615edf7f68c3ff42abeacb355f0149f01849acb8a43abca1e9453b93df1b29dd593b76da60001b61091e565b615f0b7f37c15a7c807c929e1012001b2b25599888c67d2cc42b41ff33b4fdc4811d265260001b61091e565b615f377f97326a0b3a5284bffce3116618c48a13bfbaee109e0616a9fd5f99365675e59f60001b61091e565b60005b615f42614660565b811015615ff457615f757f67e04b475e2240c75c8fffd3a707ad44f2201a6361c5e5c1a8966ec97cc044ea60001b61091e565b615fa17ff6ebc9ef015eb21d153c3b67dae1d288e2ae5f7080393f402cd94e0df65bd2f460001b61091e565b615fd1838281518110615fb057fe5b6020026020010151838381518110615fc457fe5b6020026020010151616f5c565b838281518110615fdd57fe5b602002602001018181525050806001019050615f3a565b505050565b60006160277f254db103aa62241bfb2d45bc4b06c4a8c18e6cd533c9851f92cb75eea898f43260001b61091e565b6160537fef6a24767dd0f45e7b3f4f108bba1d26e9db5c28a486d5e274b8aade992d4a3e60001b61091e565b61607f7f91e21a63e6f169303113657b08fa64ef1630046bd0e780c2d59b37c8b05bdc7860001b61091e565b6160876121ec565b73ffffffffffffffffffffffffffffffffffffffff1663aaabadc56040518163ffffffff1660e01b815260040160206040518083038186803b1580156160cc57600080fd5b505afa1580156160e0573d6000803e3d6000fd5b505050506040513d601f19601f82011682018060405250810190616104919061769a565b905090565b60006161377f2c54610e3fe0a98df3c423e90950973fc94146f557b01b6bee8cca13a6032b4a60001b611909565b6161637fbc254dfd0c8280fa8535e89d4bc4cc331f18b5ac8558d459ad7b42c1e1c9d89c60001b611909565b61618f7f2ceb1de44021a984c31888fffa7404fe74791ca186de59ed6c94965c86a06b2260001b611909565b6161976142b0565b826040516020016161a99291906178eb565b604051602081830303815290604052805190602001209050919050565b600060606161f67f33b0e910aca2e3c8e292128dfd241cea17ab04315a1a1967ab08463ed441db4660001b610c57565b94509492505050565b61622b7f859b971d1a1255cf9d4cb958e7b1ee466850218c832922f5051633c8255740e360001b610703565b6162577f1e4219e446bfc49318475e67e9dd11a5c4904f252aed09a1e1987ed6f447f89360001b610703565b6162837f470a94d2bcbba4d6bb89bc72d8fe31cf78a8e8dc566102efe0795181f9c5196160001b610703565b6162d4816000808573ffffffffffffffffffffffffffffffffffffffff1673ffffffffffffffffffffffffffffffffffffffff1681526020019081526020016000205461644b90919063ffffffff16565b6000808473ffffffffffffffffffffffffffffffffffffffff1673ffffffffffffffffffffffffffffffffffffffff168152602001908152602001600020819055506163427fa0703f6eb5028f6ac193d4dd8a2444daf838d9c2ce959a095d092808f9cae89b60001b610703565b61636e7f19aadcec8f30a84b6fe3489d9ae4f9ed9f7708f300e1ae0a833a1e807a13069f60001b610703565b6163838160025461644b90919063ffffffff16565b6002819055506163b57fe55b6ddab0c258b148644c992ade42c43ee1114b03a612c38784d59bc66286cc60001b610703565b6163e17fb592118a6e6fd079c07f78575f993e050813613c6ece73dae980bf49bbe39f0660001b610703565b8173ffffffffffffffffffffffffffffffffffffffff16600073ffffffffffffffffffffffffffffffffffffffff167fddf252ad1be2c89b69c2b068fc378daa952ba7f163c4a11628f55a4df523b3ef8360405161643f9190617b69565b60405180910390a35050565b60006164797fe9ab1930f8b2a33e186614bdc5275e5aef3bc5199db452be16b906fe891a7aef60001b61692d565b6164a57f672db28399f3b33e0df219cd59d4073e056f97e6f18dcebfa00f27c463d9fd7360001b61692d565b6164d17f0ab1a15c584dc550564822e51c90b6556d02439b72ef95c55813a7f4f670280f60001b61692d565b600082840190506165047f4912ca1f746b67b87e92127e424ef610602ecd8455c415eca24e0e1efae1b65e60001b61692d565b6165307f66114683dd19cf7947e3b2b818c6c55b57501af6e821e1cdb4f2f80d63a7276460001b61692d565b61653e848210156000613e90565b61656a7fb783f36a61aa5e73f22951df3681c2eb20b8fba57492aa9e4764edbd3684340b60001b61692d565b6165967fe7b48b6ed0eb47f18bb58555642ad250e08b266847ceeeb5fe538202fc79104360001b61692d565b8091505092915050565b50565b6165cf7f52b02eb9833b0bd298da9a550fd6a8b13dfb25c29994dccd775897a11480c75460001b6165a0565b6165fb7fb75d4e78a2d4db3d391224c3e34eff0315c02f0040609f8a2b6b81a4bee39fd960001b6165a0565b6166277fc9b4e6a27a0e453ee7a9401745aa4ff765595ab77cc85081921792d89751008960001b6165a0565b6002815110156166ba5761665d7f22167cf469dd9aabeefaa2ab2d17cdd5287c2264296931e640849328c451b01460001b6165a0565b6166897fa65e1d9bc163f5ae9eb6070115a7e51cc6766682e133ff763759005b2d1a40e060001b6165a0565b6166b57faa2e51a8518e72c89222a13d73e32ca8401729d0b38900af1038cee92bce1f0860001b6165a0565b61692a565b6166e67f3c9b73e3f9ac221add16775c5d9095515c3e8f3afef21ff52b55a6b8e602d38d60001b6165a0565b6167127f7fedf65b473b6100a99469045ec29164a45d4d36b75f0c52a75d9db201f9c6e060001b6165a0565b61673e7f7fbd9b3ab4279bb2347201c67b665cec5f3aea53dc77daa332841cee3a6383fd60001b6165a0565b60008160008151811061674d57fe5b602002602001015190506167837f82f4605e79aa35d21c9a3999706dd9685733e98401d0e734c18f4c1140cce03e60001b6165a0565b6167af7f3838606ace01461ca21cf498f43a6824b7c080b35d4559c58c93c8f948842aac60001b6165a0565b6000600190505b8251811015616927576167eb7fa59293f48c2e4416c1932c0f4236fedf682c01490f96f93a10b8fa63fd2b037d60001b6165a0565b6168177f38630e8d3b1587def62cbfe6d0750511f5e982b4ba10074a538d936e0237cdec60001b6165a0565b600083828151811061682557fe5b6020026020010151905061685b7f938af12a518f22f61865b3861f21fa00ad4e4bf11ec7daa6c4f032b6025d424760001b6165a0565b6168877ffede6dd9ae22d44e28a4a759c56795dcd3b945d1d2203993228f37c909a90e4260001b6165a0565b6168c08173ffffffffffffffffffffffffffffffffffffffff168473ffffffffffffffffffffffffffffffffffffffff16106065613e90565b6168ec7f9093def741d483dcb80308555e82d6c69e39a26b3d763f0044f3f0f09f8d7adf60001b6165a0565b6169187f9ba332f26c0d2c5129d51a9355d8ac6f4402d5dfa84f6fa0349bfe1fe83eedc460001b6165a0565b809250508060010190506167b6565b50505b50565b50565b600061695e7f91f79ce61d6095052f98343ef22bf159599b9673b3da8e9b6fcf2ee4ccdf929160001b61149b565b61698a7f6d956e6a2b37087093bfab4ac0d93ebca5ac0f03733e05fb5e3f05bf8316b69160001b61149b565b6169b67f77561784c0d0c99030a4a639f96d9bc02d8d5616e2b78f6299799333ced6e4ca60001b61149b565b73ba1ba1ba1ba1ba1ba1ba1ba1ba1ba1ba1ba1ba1b73ffffffffffffffffffffffffffffffffffffffff166169e9612140565b73ffffffffffffffffffffffffffffffffffffffff1614158015616a125750616a118361717c565b5b15616ad857616a437fcd9aa553fe2735cf7020b4eb80cfda751f8aecdef127d00fa09d44949493ebe960001b61149b565b616a6f7f72cf9f892674527fa632776f358fe3c83644138ae83851c5a468654ee96a51a260001b61149b565b616a9b7f37d4b26a5e6da01282932b7cbac42b7bbe6ae4a212e5e0487ccf119a0d3d0e6860001b61149b565b616aa3612140565b73ffffffffffffffffffffffffffffffffffffffff163373ffffffffffffffffffffffffffffffffffffffff16149050616bf3565b616b047fe7da6a237a9d6cd3116cef4d5ee70b194818a8e3be021a5de096d3e422173b0160001b61149b565b616b307fc5ffb87b693ac8cd4c80a77973b8153ba692ddebe54fae3e7506c6d5ae1de21f60001b61149b565b616b5c7f3447ca4599d659cf5d5b18a186bb0c30b2f9f0a7af21b1f9e9e4c51b46b06b9f60001b61149b565b616b64615ff9565b73ffffffffffffffffffffffffffffffffffffffff16639be2a8848484306040518463ffffffff1660e01b8152600401616ba0939291906179e1565b60206040518083038186803b158015616bb857600080fd5b505afa158015616bcc573d6000803e3d6000fd5b505050506040513d601f19601f82011682018060405250810190616bf09190617551565b90505b92915050565b6030600a820601600a820491506030600a830601600a830492506030600a8406018060101b8260081b8401016642414c230000000160c81b7f08c379a000000000000000000000000000000000000000000000000000000000600052602060045260076024528060445260646000fd5b6000616c977f80fca6b64f7b0789847f8be52c02b4e1f759789d6b7cbe957f89feefde4fe88a60001b611909565b616cc37fc446b9f164092d39ac2524a6d2e73d0ccb1abd271deaf1757b7310ed4335dbdd60001b611909565b616cef7f22f429aedbaa0bb811444c55a4871d76ff331b3f6f543b5d11608339df4e388d60001b611909565b46905090565b6000616d237f053a16bb25b7c3bf0eb8f96a85bcffdc6a2c9f12ce0922647a643c9a9c7ae08860001b61692d565b616d4f7f08f7bdadec418eb26fbcfc2165d86275b5e1b8baaf5e6df141cb730471d896a060001b61692d565b616d7b7f9f8aa221058747dd49bbdec7807bcf26373f39b6701b83701e7186c7bb8c730460001b61692d565b616d8a60008314156004613e90565b616db67f8210b270ac2bbe907255822195db451fc2c3934e1b448e9f4e004b7b06bc5df860001b61692d565b616de27f22179e65a7ffb69370e752759a0145dff2e7d7410f004b6fb9b3b778f46f93ea60001b61692d565b818381616deb57fe5b04905092915050565b6000616e227fc37d921c6111359fd9f79d2a28c4792facb1db4f39f5274d1b6163c18e3afe8b60001b61692d565b616e4e7f898a92623482f45d1206dfef5d86715e008f5452a7c413085f43c128004b3d9760001b61692d565b616e7a7f05fd20169ef0846499c468d531d0cf9e99ffbf7744456d397b9e942723963d4860001b61692d565b60008284029050616ead7f8e86e68a4b22e3c8f81c2073a80e5cb58d704f7122af81c9942d06a7e84c3e2560001b61692d565b616ed97fb0310a7161613cd85ddc020fb1e188ea5b953042e7225a2f1c35f62ad8d78f7e60001b61692d565b616efa6000851480616ef3575083858381616ef057fe5b04145b6003613e90565b616f267f558de74b4ced8028b43c759ce9fb582f1bd05e8ac02db8253c7f66b126b33ed760001b61692d565b616f527faa5db913fa4d95819207f4034e9d987218cfb113b8ec8df4a432cfedb219b35160001b61692d565b8091505092915050565b6000616f8a7f6b01f36c18c79940b9baa1ea7627e3c10a23e324a38396be9a253583363aeb3560001b61692d565b616fb67fb9ac893588a5a801e4698bd76575ede4d5838fc56498d0cf6c1a0dd159f20be960001b61692d565b616fe27f129ba58c31ad62f76bce8051d617e8f5e7ca5f956b83b84c7cfca80f6170196c60001b61692d565b616ff160008314156004613e90565b61701d7f8797abb6ec34e73bc681d07d467829ddfef5a3412b3ea4dc629fe993ab7153ec60001b61692d565b6170497f7144f0b5796c5168aa587bd2d2cb2beaadb3f41d05983b435a381bdf8e8ca5e460001b61692d565b60008314156170df5761707e7f90e9dc5e222294ab0e40e698afbff89ab7912401779b3705db127706a25a279460001b61692d565b6170aa7fe70441edfaf6261218ccec5b4c00017fd4be0ce2024744a784e9703b2eb5921c60001b61692d565b6170d67fbc398dea8e073f5dc774615f3f686fa5c2d14965232aab5bca0d46cc7abe05e260001b61692d565b60009050617176565b61710b7f790584e95c50fd3f26581fb60ee3d72efde1b8545345dbe5c80231d1ea31127460001b61692d565b6171377f8098282080dc3f0f12a01b1890ba22d8cee5477cce28c89c0029d16c132ee2b160001b61692d565b6171637f05fcb8070bd589808c64e227360faac4ead6e092128766d5693bd170c16ff4bd60001b61692d565b81600184038161716f57fe5b0460010190505b92915050565b60006171aa7f2f28154407be259a8b5ae1d92482cab9e8b2cdf23ad42d39bdbf1d9e9d4d1da660001b61149b565b6171d67fde8d3b10f894bd9ae4ae64549cc687fcc587ef70996d382abfdd4adfaf29623360001b61149b565b6172027f4b3c49ee92a6d8c0dfa4ba1fab76a8a0dd5b81608cea4bb36153a96445e268fb60001b61149b565b6172126338e9922e60e01b611eff565b82149050919050565b60008135905061722a81617e07565b92915050565b600082601f83011261724157600080fd5b813561725461724f82617bfc565b617bcf565b9150818183526020840193506020810190508385602084028201111561727957600080fd5b60005b838110156172a9578161728f8882617370565b84526020840193506020830192505060018101905061727c565b5050505092915050565b6000813590506172c281617e1e565b92915050565b6000815190506172d781617e1e565b92915050565b6000813590506172ec81617e35565b92915050565b60008135905061730181617e4c565b92915050565b600082601f83011261731857600080fd5b813561732b61732682617c24565b617bcf565b9150808252602083016020830185838301111561734757600080fd5b617352838284617da0565b50505092915050565b60008151905061736a81617e63565b92915050565b60008135905061737f81617e7a565b92915050565b60008135905061739481617e91565b92915050565b6000602082840312156173ac57600080fd5b60006173ba8482850161721b565b91505092915050565b600080604083850312156173d657600080fd5b60006173e48582860161721b565b92505060206173f58582860161721b565b9150509250929050565b60008060006060848603121561741457600080fd5b60006174228682870161721b565b93505060206174338682870161721b565b925050604061744486828701617370565b9150509250925092565b600080600080600080600060e0888a03121561746957600080fd5b60006174778a828b0161721b565b97505060206174888a828b0161721b565b96505060406174998a828b01617370565b95505060606174aa8a828b01617370565b94505060806174bb8a828b01617385565b93505060a06174cc8a828b016172dd565b92505060c06174dd8a828b016172dd565b91505092959891949750929550565b600080604083850312156174ff57600080fd5b600061750d8582860161721b565b925050602061751e85828601617370565b9150509250929050565b60006020828403121561753a57600080fd5b6000617548848285016172b3565b91505092915050565b60006020828403121561756357600080fd5b6000617571848285016172c8565b91505092915050565b60006020828403121561758c57600080fd5b600061759a848285016172dd565b91505092915050565b600080600080600080600060e0888a0312156175be57600080fd5b60006175cc8a828b016172dd565b97505060206175dd8a828b0161721b565b96505060406175ee8a828b0161721b565b955050606088013567ffffffffffffffff81111561760b57600080fd5b6176178a828b01617230565b94505060806176288a828b01617370565b93505060a06176398a828b01617370565b92505060c088013567ffffffffffffffff81111561765657600080fd5b6176628a828b01617307565b91505092959891949750929550565b60006020828403121561768357600080fd5b6000617691848285016172f2565b91505092915050565b6000602082840312156176ac57600080fd5b60006176ba8482850161735b565b91505092915050565b6000602082840312156176d557600080fd5b60006176e384828501617370565b91505092915050565b60006176f88383617879565b60208301905092915050565b61770d81617cbb565b82525050565b600061771e82617c60565b6177288185617c83565b935061773383617c50565b8060005b8381101561776457815161774b88826176ec565b975061775683617c76565b925050600181019050617737565b5085935050505092915050565b61777a81617ccd565b82525050565b61778981617cd9565b82525050565b6177a061779b82617cd9565b617de2565b82525050565b6177b76177b282617ce3565b617dec565b82525050565b60006177c98385617c94565b93506177d6838584617da0565b82840190509392505050565b6177eb81617d58565b82525050565b6177fa81617d7c565b82525050565b600061780b82617c6b565b6178158185617c9f565b9350617825818560208601617daf565b61782e81617df6565b840191505092915050565b6000617846600283617cb0565b91507f19010000000000000000000000000000000000000000000000000000000000006000830152600282019050919050565b61788281617d41565b82525050565b61789181617d41565b82525050565b6178a081617d4b565b82525050565b60006178b2828561778f565b6020820191506178c282846177a6565b6004820191508190509392505050565b60006178df8284866177bd565b91508190509392505050565b60006178f682617839565b9150617902828561778f565b602082019150617912828461778f565b6020820191508190509392505050565b60006020820190506179376000830184617704565b92915050565b600060408201905081810360008301526179578185617713565b9050818103602083015261796b8184617713565b90509392505050565b60006020820190506179896000830184617771565b92915050565b60006060820190506179a46000830186617771565b6179b16020830185617888565b6179be6040830184617888565b949350505050565b60006020820190506179db6000830184617780565b92915050565b60006060820190506179f66000830186617780565b617a036020830185617704565b617a106040830184617704565b949350505050565b600060c082019050617a2d6000830189617780565b617a3a6020830188617704565b617a476040830187617704565b617a546060830186617888565b617a616080830185617888565b617a6e60a0830184617888565b979650505050505050565b600060a082019050617a8e6000830188617780565b617a9b6020830187617780565b617aa86040830186617780565b617ab56060830185617888565b617ac26080830184617704565b9695505050505050565b6000608082019050617ae16000830187617780565b617aee6020830186617897565b617afb6040830185617780565b617b086060830184617780565b95945050505050565b6000602082019050617b2660008301846177e2565b92915050565b6000602082019050617b4160008301846177f1565b92915050565b60006020820190508181036000830152617b618184617800565b905092915050565b6000602082019050617b7e6000830184617888565b92915050565b6000604082019050617b996000830185617888565b8181036020830152617bab8184617713565b90509392505050565b6000602082019050617bc96000830184617897565b92915050565b6000604051905081810181811067ffffffffffffffff82111715617bf257600080fd5b8060405250919050565b600067ffffffffffffffff821115617c1357600080fd5b602082029050602081019050919050565b600067ffffffffffffffff821115617c3b57600080fd5b601f19601f8301169050602081019050919050565b6000819050602082019050919050565b600081519050919050565b600081519050919050565b6000602082019050919050565b600082825260208201905092915050565b600081905092915050565b600082825260208201905092915050565b600081905092915050565b6000617cc682617d21565b9050919050565b60008115159050919050565b6000819050919050565b60007fffffffff0000000000000000000000000000000000000000000000000000000082169050919050565b6000617d1a82617cbb565b9050919050565b600073ffffffffffffffffffffffffffffffffffffffff82169050919050565b6000819050919050565b600060ff82169050919050565b6000617d6382617d6a565b9050919050565b6000617d7582617d21565b9050919050565b6000617d8782617d8e565b9050919050565b6000617d9982617d21565b9050919050565b82818337600083830152505050565b60005b83811015617dcd578082015181840152602081019050617db2565b83811115617ddc576000848401525b50505050565b6000819050919050565b6000819050919050565b6000601f19601f8301169050919050565b617e1081617cbb565b8114617e1b57600080fd5b50565b617e2781617ccd565b8114617e3257600080fd5b50565b617e3e81617cd9565b8114617e4957600080fd5b50565b617e5581617ce3565b8114617e6057600080fd5b50565b617e6c81617d0f565b8114617e7757600080fd5b50565b617e8381617d41565b8114617e8e57600080fd5b50565b617e9a81617d4b565b8114617ea557600080fd5b5056fea26469706673582212202d767f081df08f48acb22c10f02f68e432ec145449e8abb86a9487405a38304464736f6c63430007010033",
  "linkReferences": {},
  "deployedLinkReferences": {}
}