{
  "_format": "hh-sol-artifact-1",
  "contractName": "WETH",
  "sourceName": "contracts/balancer-core-v2/test/WETH.sol",
  "abi": [
    {
      "inputs": [
        {
          "internalType": "address",
          "name": "minter",
          "type": "address"
        }
      ],
      "stateMutability": "nonpayable",
      "type": "constructor"
    },
    {
      "anonymous": false,
      "inputs": [
        {
          "indexed": true,
          "internalType": "address",
          "name": "owner",
          "type": "address"
        },
        {
          "indexed": true,
          "internalType": "address",
          "name": "spender",
          "type": "address"
        },
        {
          "indexed": false,
          "internalType": "uint256",
          "name": "value",
          "type": "uint256"
        }
      ],
      "name": "Approval",
      "type": "event"
    },
    {
      "anonymous": false,
      "inputs": [
        {
          "indexed": true,
          "internalType": "address",
          "name": "dst",
          "type": "address"
        },
        {
          "indexed": false,
          "internalType": "uint256",
          "name": "wad",
          "type": "uint256"
        }
      ],
      "name": "Deposit",
      "type": "event"
    },
    {
      "anonymous": false,
      "inputs": [
        {
          "indexed": true,
          "internalType": "bytes32",
          "name": "role",
          "type": "bytes32"
        },
        {
          "indexed": true,
          "internalType": "bytes32",
          "name": "previousAdminRole",
          "type": "bytes32"
        },
        {
          "indexed": true,
          "internalType": "bytes32",
          "name": "newAdminRole",
          "type": "bytes32"
        }
      ],
      "name": "RoleAdminChanged",
      "type": "event"
    },
    {
      "anonymous": false,
      "inputs": [
        {
          "indexed": true,
          "internalType": "bytes32",
          "name": "role",
          "type": "bytes32"
        },
        {
          "indexed": true,
          "internalType": "address",
          "name": "account",
          "type": "address"
        },
        {
          "indexed": true,
          "internalType": "address",
          "name": "sender",
          "type": "address"
        }
      ],
      "name": "RoleGranted",
      "type": "event"
    },
    {
      "anonymous": false,
      "inputs": [
        {
          "indexed": true,
          "internalType": "bytes32",
          "name": "role",
          "type": "bytes32"
        },
        {
          "indexed": true,
          "internalType": "address",
          "name": "account",
          "type": "address"
        },
        {
          "indexed": true,
          "internalType": "address",
          "name": "sender",
          "type": "address"
        }
      ],
      "name": "RoleRevoked",
      "type": "event"
    },
    {
      "anonymous": false,
      "inputs": [
        {
          "indexed": true,
          "internalType": "address",
          "name": "from",
          "type": "address"
        },
        {
          "indexed": true,
          "internalType": "address",
          "name": "to",
          "type": "address"
        },
        {
          "indexed": false,
          "internalType": "uint256",
          "name": "value",
          "type": "uint256"
        }
      ],
      "name": "Transfer",
      "type": "event"
    },
    {
      "anonymous": false,
      "inputs": [
        {
          "indexed": true,
          "internalType": "address",
          "name": "src",
          "type": "address"
        },
        {
          "indexed": false,
          "internalType": "uint256",
          "name": "wad",
          "type": "uint256"
        }
      ],
      "name": "Withdrawal",
      "type": "event"
    },
    {
      "inputs": [],
      "name": "DEFAULT_ADMIN_ROLE",
      "outputs": [
        {
          "internalType": "bytes32",
          "name": "",
          "type": "bytes32"
        }
      ],
      "stateMutability": "view",
      "type": "function"
    },
    {
      "inputs": [],
      "name": "MINTER_ROLE",
      "outputs": [
        {
          "internalType": "bytes32",
          "name": "",
          "type": "bytes32"
        }
      ],
      "stateMutability": "view",
      "type": "function"
    },
    {
      "inputs": [
        {
          "internalType": "address",
          "name": "",
          "type": "address"
        },
        {
          "internalType": "address",
          "name": "",
          "type": "address"
        }
      ],
      "name": "allowance",
      "outputs": [
        {
          "internalType": "uint256",
          "name": "",
          "type": "uint256"
        }
      ],
      "stateMutability": "view",
      "type": "function"
    },
    {
      "inputs": [
        {
          "internalType": "address",
          "name": "guy",
          "type": "address"
        },
        {
          "internalType": "uint256",
          "name": "wad",
          "type": "uint256"
        }
      ],
      "name": "approve",
      "outputs": [
        {
          "internalType": "bool",
          "name": "",
          "type": "bool"
        }
      ],
      "stateMutability": "nonpayable",
      "type": "function"
    },
    {
      "inputs": [
        {
          "internalType": "address",
          "name": "",
          "type": "address"
        }
      ],
      "name": "balanceOf",
      "outputs": [
        {
          "internalType": "uint256",
          "name": "",
          "type": "uint256"
        }
      ],
      "stateMutability": "view",
      "type": "function"
    },
    {
      "inputs": [
        {
          "internalType": "bytes32",
          "name": "c__0x2cc34d3d",
          "type": "bytes32"
        }
      ],
      "name": "c_0x2cc34d3d",
      "outputs": [],
      "stateMutability": "pure",
      "type": "function"
    },
    {
      "inputs": [
        {
          "internalType": "bytes32",
          "name": "c__0x323061a8",
          "type": "bytes32"
        }
      ],
      "name": "c_0x323061a8",
      "outputs": [],
      "stateMutability": "pure",
      "type": "function"
    },
    {
      "inputs": [],
      "name": "decimals",
      "outputs": [
        {
          "internalType": "uint8",
          "name": "",
          "type": "uint8"
        }
      ],
      "stateMutability": "view",
      "type": "function"
    },
    {
      "inputs": [],
      "name": "deposit",
      "outputs": [],
      "stateMutability": "payable",
      "type": "function"
    },
    {
      "inputs": [
        {
          "internalType": "bytes32",
          "name": "role",
          "type": "bytes32"
        }
      ],
      "name": "getRoleAdmin",
      "outputs": [
        {
          "internalType": "bytes32",
          "name": "",
          "type": "bytes32"
        }
      ],
      "stateMutability": "view",
      "type": "function"
    },
    {
      "inputs": [
        {
          "internalType": "bytes32",
          "name": "role",
          "type": "bytes32"
        },
        {
          "internalType": "uint256",
          "name": "index",
          "type": "uint256"
        }
      ],
      "name": "getRoleMember",
      "outputs": [
        {
          "internalType": "address",
          "name": "",
          "type": "address"
        }
      ],
      "stateMutability": "view",
      "type": "function"
    },
    {
      "inputs": [
        {
          "internalType": "bytes32",
          "name": "role",
          "type": "bytes32"
        }
      ],
      "name": "getRoleMemberCount",
      "outputs": [
        {
          "internalType": "uint256",
          "name": "",
          "type": "uint256"
        }
      ],
      "stateMutability": "view",
      "type": "function"
    },
    {
      "inputs": [
        {
          "internalType": "bytes32",
          "name": "role",
          "type": "bytes32"
        },
        {
          "internalType": "address",
          "name": "account",
          "type": "address"
        }
      ],
      "name": "grantRole",
      "outputs": [],
      "stateMutability": "nonpayable",
      "type": "function"
    },
    {
      "inputs": [
        {
          "internalType": "bytes32",
          "name": "role",
          "type": "bytes32"
        },
        {
          "internalType": "address",
          "name": "account",
          "type": "address"
        }
      ],
      "name": "hasRole",
      "outputs": [
        {
          "internalType": "bool",
          "name": "",
          "type": "bool"
        }
      ],
      "stateMutability": "view",
      "type": "function"
    },
    {
      "inputs": [
        {
          "internalType": "address",
          "name": "destinatary",
          "type": "address"
        },
        {
          "internalType": "uint256",
          "name": "amount",
          "type": "uint256"
        }
      ],
      "name": "mint",
      "outputs": [],
      "stateMutability": "nonpayable",
      "type": "function"
    },
    {
      "inputs": [],
      "name": "name",
      "outputs": [
        {
          "internalType": "string",
          "name": "",
          "type": "string"
        }
      ],
      "stateMutability": "view",
      "type": "function"
    },
    {
      "inputs": [
        {
          "internalType": "bytes32",
          "name": "role",
          "type": "bytes32"
        },
        {
          "internalType": "address",
          "name": "account",
          "type": "address"
        }
      ],
      "name": "renounceRole",
      "outputs": [],
      "stateMutability": "nonpayable",
      "type": "function"
    },
    {
      "inputs": [
        {
          "internalType": "bytes32",
          "name": "role",
          "type": "bytes32"
        },
        {
          "internalType": "address",
          "name": "account",
          "type": "address"
        }
      ],
      "name": "revokeRole",
      "outputs": [],
      "stateMutability": "nonpayable",
      "type": "function"
    },
    {
      "inputs": [],
      "name": "symbol",
      "outputs": [
        {
          "internalType": "string",
          "name": "",
          "type": "string"
        }
      ],
      "stateMutability": "view",
      "type": "function"
    },
    {
      "inputs": [],
      "name": "totalSupply",
      "outputs": [
        {
          "internalType": "uint256",
          "name": "",
          "type": "uint256"
        }
      ],
      "stateMutability": "view",
      "type": "function"
    },
    {
      "inputs": [
        {
          "internalType": "address",
          "name": "dst",
          "type": "address"
        },
        {
          "internalType": "uint256",
          "name": "wad",
          "type": "uint256"
        }
      ],
      "name": "transfer",
      "outputs": [
        {
          "internalType": "bool",
          "name": "",
          "type": "bool"
        }
      ],
      "stateMutability": "nonpayable",
      "type": "function"
    },
    {
      "inputs": [
        {
          "internalType": "address",
          "name": "src",
          "type": "address"
        },
        {
          "internalType": "address",
          "name": "dst",
          "type": "address"
        },
        {
          "internalType": "uint256",
          "name": "wad",
          "type": "uint256"
        }
      ],
      "name": "transferFrom",
      "outputs": [
        {
          "internalType": "bool",
          "name": "",
          "type": "bool"
        }
      ],
      "stateMutability": "nonpayable",
      "type": "function"
    },
    {
      "inputs": [
        {
          "internalType": "uint256",
          "name": "wad",
          "type": "uint256"
        }
      ],
      "name": "withdraw",
      "outputs": [],
      "stateMutability": "nonpayable",
      "type": "function"
    },
    {
      "stateMutability": "payable",
      "type": "receive"
    }
  ],
  "bytecode": "0x60806040526040518060400160405280600d81526020017f5772617070656420457468657200000000000000000000000000000000000000815250600190805190602001906200005192919062000982565b506040518060400160405280600481526020017f5745544800000000000000000000000000000000000000000000000000000000815250600290805190602001906200009f92919062000982565b506012600360006101000a81548160ff021916908360ff160217905550348015620000c957600080fd5b5060405162003f3c38038062003f3c83398181016040526020811015620000ef57600080fd5b8101908080519060200190929190505050620001347f1640abbd14016aafccff57d780f87154bf5bb8320f755fbeb6eb1d6245aa9e9a60001b6200025260201b60201c565b620001687f65cd434fb9fd4b5e8cf779e11f614e29204b394405a3ea9de3c8b5c04d466f7b60001b6200025260201b60201c565b6200019c7fb501b97eac66def26a748b750727c446755bee8c441b405e69d1b301bddea24960001b6200025260201b60201c565b620001b16000801b826200025560201b60201c565b620001e57fdb0de0e3787f1fe44370b6386551f10371c1a550c48f9ea40fb7e7d9678ff56560001b6200025260201b60201c565b620002197f97ff7a56bb43d6970925ee0096fe488821367a359281495f240445d6d2c1f9c060001b6200025260201b60201c565b6200024b7f9f2df0fed2c77648de5860a4cc508cd0818c85b8b8a1ab4ceeef8d981c8956a6826200025560201b60201c565b5062000a28565b50565b620002897f1bc4261b512912d5739ed076e6476329a37310011fa40704744a63f4d2dc656560001b6200030760201b60201c565b620002bd7f6567523a5c4cf3fe9a6b088fde186f9c3ecbcd058f3bca4325a4093e74dfee3e60001b6200030760201b60201c565b620002f17f3186756c59fa3007b25bd29c3fd829bec2e50091b743932821b6e0cc9d17dec160001b6200030760201b60201c565b6200030382826200030a60201b60201c565b5050565b50565b6200033e7f6407d3d700902783b0790ecd7d71fdf7c6d17edba52cb13148c9e81367f0cdb160001b6200030760201b60201c565b620003727f991f445417ef670ce1718bf3efa0d897ff34d218374430935c01ebbe5e7911b660001b6200030760201b60201c565b620003a67f117edf4877bd519647f10f3d83f7b040aaa2b4763029dadefd4d02ee08bbca4f60001b6200030760201b60201c565b620003d4816000808581526020019081526020016000206000016200051060201b620024721790919060201c565b15620004d7576200040e7ffd44c5a846114fb700dfd54fb7756bb74ae09b46d502310ce7ae7d5d0e56b96260001b6200030760201b60201c565b620004427fcbe6fb2ac1ff183b90917394e59028226c90b462a54d68fa99119902e9bdd48160001b6200030760201b60201c565b620004767f03e7c6fa9469425312fde46e7310b2d5c9a715be7fb4dece2dee6e7a37beb80160001b6200030760201b60201c565b3373ffffffffffffffffffffffffffffffffffffffff168173ffffffffffffffffffffffffffffffffffffffff16837f2f8788117e7eff1d82e926ec794901d17c78024a50270940304540a733656f0d60405160405180910390a46200050c565b6200050b7f639f4fd4e5b6e771451b1c96d41fe078a472e3ce4e39de30b72676385dafe22360001b6200030760201b60201c565b5b5050565b6000620005467fafc28c8ad46b468274539bc8314e2745dc2d3f7038af583f6c25b345252299ff60001b6200089360201b60201c565b6200057a7fd65cd8894cd7599d573934ee4e7259bca66b67f4529b86afc85561768ab6331260001b6200089360201b60201c565b620005ae7f73d15665ebf97f2ec239c9de9f2d368145ebf8bfc29584cd00c883286bb0b5b760001b6200089360201b60201c565b620005c083836200089660201b60201c565b620007ec57620005f97f611dcc30a45c499ce3ad496c52bc2186f0cbc5070a77971fa17d0e3c8aff993460001b6200089360201b60201c565b6200062d7fa1ffd1a624ba2fc9ad3784e766979c10b69548953e33fdd8d52fd1ad9249db4260001b6200089360201b60201c565b620006617f0d3795d19e3ebbfce65a7f6dba4be223b7dfc11d45684a2b8b9639624890e76d60001b6200089360201b60201c565b82600001829080600181540180825580915050600190039060005260206000200160009091909190916101000a81548173ffffffffffffffffffffffffffffffffffffffff021916908373ffffffffffffffffffffffffffffffffffffffff160217905550620006fa7f7616d7a05facba46804c61ead3a84857b28996bfef33527f000952dbb1f24fe360001b6200089360201b60201c565b6200072d7ec337f7341aebee30ff50d6368e9a9860da52fa5226dacb871fc4a28004838860001b6200089360201b60201c565b82600001805490508360010160008473ffffffffffffffffffffffffffffffffffffffff1673ffffffffffffffffffffffffffffffffffffffff16815260200190815260200160002081905550620007ae7f13ba2f78dd7ecaf55a4cc3f8d3e7f93c5cadbc063ffeefb68c7949802b5d3a6e60001b6200089360201b60201c565b620007e27fc0490b09000a2341c56dc8ebb7359ac889a50a807ad657762b431c42ebed81d860001b6200089360201b60201c565b600190506200088d565b620008207f4e16a37a129416984b8f77905fffb3105d2d16c5bffcc10366666605395cd0b160001b6200089360201b60201c565b620008547fef2de3f863211443d90a1d49147a100c20a57273298331ae7e2cd54c79a3875a60001b6200089360201b60201c565b620008887fc9303cbc2544604f1547dd8d81f7d4d4eb689c320fb75389df721b35f0e1d15d60001b6200089360201b60201c565b600090505b92915050565b50565b6000620008cc7f26c9003ff5622b36c455b3a2c7e8ee8219dd1ee06aee5bb7688394f0bf73678160001b6200089360201b60201c565b620009007f6f417677c8a9f3d1599c594602edcb366521c6a206303cbfe730cb780577f19e60001b6200089360201b60201c565b620009347f43227e98846ec640660e022ffd05a933731005a59b7cafa20d1e956c3e0c379f60001b6200089360201b60201c565b60008360010160008473ffffffffffffffffffffffffffffffffffffffff1673ffffffffffffffffffffffffffffffffffffffff168152602001908152602001600020541415905092915050565b828054600181600116156101000203166002900490600052602060002090601f016020900481019282601f10620009c557805160ff1916838001178555620009f6565b82800160010185558215620009f6579182015b82811115620009f5578251825591602001919060010190620009d8565b5b50905062000a05919062000a09565b5090565b5b8082111562000a2457600081600090555060010162000a0a565b5090565b6135048062000a386000396000f3fe6080604052600436106101845760003560e01c806340c10f19116100d6578063a9059cbb1161007f578063d539139311610059578063d53913931461088a578063d547741f146108b5578063dd62ed3e14610910576101bf565b8063a9059cbb146107c0578063ca15c87314610831578063d0e30db014610880576101bf565b806391d14854116100b057806391d148541461069457806395d89b4114610705578063a217fddf14610795576101bf565b806340c10f191461056557806370a08231146105c05780639010d07c14610625576101bf565b80632a46651811610138578063313ce56711610112578063313ce567146104a157806336568abe146104cf5780633b1dc4031461052a576101bf565b80632a466518146103d05780632e1a7d4d1461040b5780632f2ff15d14610446576101bf565b806318160ddd1161016957806318160ddd146102c557806323b872dd146102f0578063248a9ca314610381576101bf565b806306fdde03146101c4578063095ea7b314610254576101bf565b366101bf576101b57f33a74426bc07b3c7df1dbc602b29494acb16dcc569e15803d1a0168c6ca0bbd760001b610995565b6101bd610998565b005b600080fd5b3480156101d057600080fd5b506101d9610b11565b6040518080602001828103825283818151815260200191508051906020019080838360005b838110156102195780820151818401526020810190506101fe565b50505050905090810190601f1680156102465780820380516001836020036101000a031916815260200191505b509250505060405180910390f35b34801561026057600080fd5b506102ad6004803603604081101561027757600080fd5b81019080803573ffffffffffffffffffffffffffffffffffffffff16906020019092919080359060200190929190505050610baf565b60405180821515815260200191505060405180910390f35b3480156102d157600080fd5b506102da610dd5565b6040518082815260200191505060405180910390f35b3480156102fc57600080fd5b506103696004803603606081101561031357600080fd5b81019080803573ffffffffffffffffffffffffffffffffffffffff169060200190929190803573ffffffffffffffffffffffffffffffffffffffff16906020019092919080359060200190929190505050610e61565b60405180821515815260200191505060405180910390f35b34801561038d57600080fd5b506103ba600480360360208110156103a457600080fd5b8101908080359060200190929190505050611675565b6040518082815260200191505060405180910390f35b3480156103dc57600080fd5b50610409600480360360208110156103f357600080fd5b8101908080359060200190929190505050610995565b005b34801561041757600080fd5b506104446004803603602081101561042e57600080fd5b8101908080359060200190929190505050611718565b005b34801561045257600080fd5b5061049f6004803603604081101561046957600080fd5b8101908080359060200190929190803573ffffffffffffffffffffffffffffffffffffffff169060200190929190505050611a96565b005b3480156104ad57600080fd5b506104b6611baa565b604051808260ff16815260200191505060405180910390f35b3480156104db57600080fd5b50610528600480360360408110156104f257600080fd5b8101908080359060200190929190803573ffffffffffffffffffffffffffffffffffffffff169060200190929190505050611bbd565b005b34801561053657600080fd5b506105636004803603602081101561054d57600080fd5b8101908080359060200190929190505050611ce1565b005b34801561057157600080fd5b506105be6004803603604081101561058857600080fd5b81019080803573ffffffffffffffffffffffffffffffffffffffff16906020019092919080359060200190929190505050611ce4565b005b3480156105cc57600080fd5b5061060f600480360360208110156105e357600080fd5b81019080803573ffffffffffffffffffffffffffffffffffffffff169060200190929190505050611fab565b6040518082815260200191505060405180910390f35b34801561063157600080fd5b506106686004803603604081101561064857600080fd5b810190808035906020019092919080359060200190929190505050611fc3565b604051808273ffffffffffffffffffffffffffffffffffffffff16815260200191505060405180910390f35b3480156106a057600080fd5b506106ed600480360360408110156106b757600080fd5b8101908080359060200190929190803573ffffffffffffffffffffffffffffffffffffffff169060200190929190505050612078565b60405180821515815260200191505060405180910390f35b34801561071157600080fd5b5061071a61212d565b6040518080602001828103825283818151815260200191508051906020019080838360005b8381101561075a57808201518184015260208101905061073f565b50505050905090810190601f1680156107875780820380516001836020036101000a031916815260200191505b509250505060405180910390f35b3480156107a157600080fd5b506107aa6121cb565b6040518082815260200191505060405180910390f35b3480156107cc57600080fd5b50610819600480360360408110156107e357600080fd5b81019080803573ffffffffffffffffffffffffffffffffffffffff169060200190929190803590602001909291905050506121d2565b60405180821515815260200191505060405180910390f35b34801561083d57600080fd5b5061086a6004803603602081101561085457600080fd5b810190808035906020019092919050505061226b565b6040518082815260200191505060405180910390f35b610888610998565b005b34801561089657600080fd5b5061089f612315565b6040518082815260200191505060405180910390f35b3480156108c157600080fd5b5061090e600480360360408110156108d857600080fd5b8101908080359060200190929190803573ffffffffffffffffffffffffffffffffffffffff169060200190929190505050612339565b005b34801561091c57600080fd5b5061097f6004803603604081101561093357600080fd5b81019080803573ffffffffffffffffffffffffffffffffffffffff169060200190929190803573ffffffffffffffffffffffffffffffffffffffff16906020019092919050505061244d565b6040518082815260200191505060405180910390f35b50565b6109c47f75db4f1f2383c7da09489e860412dd00c2f29d34aeeac1f53f0e9a620d922fbf60001b610995565b6109f07f9b7dda3bd33a6aaadafeea0e185b0a559dcf760dc87e1dec4c95e2b5d1078a1660001b610995565b610a1c7f7079d0acd84d23b8c12d1883266fae4d9cb15baf335b44ed1e5b133bb960a8f360001b610995565b34600460003373ffffffffffffffffffffffffffffffffffffffff1673ffffffffffffffffffffffffffffffffffffffff16815260200190815260200160002060008282540192505081905550610a957f8ec2361dcf6ecfecd7d4277427b619ce46a4c26b3e2e829b233f4526c903a8dd60001b610995565b610ac17fae022afc95222b80b629a8b98f8dc7f8c5e67df820e423f191a3af34a223499460001b610995565b3373ffffffffffffffffffffffffffffffffffffffff167fe1fffcc4923d04b559f4d29a8bfc6cda04eb5b0d3c460751c2402c5c5cc9109c346040518082815260200191505060405180910390a2565b60018054600181600116156101000203166002900480601f016020809104026020016040519081016040528092919081815260200182805460018160011615610100020316600290048015610ba75780601f10610b7c57610100808354040283529160200191610ba7565b820191906000526020600020905b815481529060010190602001808311610b8a57829003601f168201915b505050505081565b6000610bdd7f0ec2f058110aa8809255609a3be1d0cb622f1a2a90506d24128a0df1e4830a5360001b610995565b610c097ff3eb5138f803690a7ddce293d701db455674ef1ce731b24d6484cf3eb15f55c860001b610995565b610c357f044ed6a62d60e55563f647ef166984fb197aec1970e3cc90288fd6842bd9cb1960001b610995565b81600560003373ffffffffffffffffffffffffffffffffffffffff1673ffffffffffffffffffffffffffffffffffffffff16815260200190815260200160002060008573ffffffffffffffffffffffffffffffffffffffff1673ffffffffffffffffffffffffffffffffffffffff16815260200190815260200160002081905550610ce27f03167a5e9e33de549c6a11cda8404b99d6dc64757bbe6e879a830ed1774fce5b60001b610995565b610d0e7f98403680c5c81dcca2f17193c07e483bbd7e77b5bd61d303bfab407872ae930060001b610995565b8273ffffffffffffffffffffffffffffffffffffffff163373ffffffffffffffffffffffffffffffffffffffff167f8c5be1e5ebec7d5bd14f71427d1e84f3dd0314c0f7b2291e5b200ac8c7c3b925846040518082815260200191505060405180910390a3610d9f7f512a6d3dbf96e3c21a2eba4bb283f6a9eb5072ce46cb58a897f9b98e121990ff60001b610995565b610dcb7fe867600556380e3ae36a59ff685bb41e8d9195b2ef1e93236d8edc008e6ebf2860001b610995565b6001905092915050565b6000610e037fcae789decdc0147979dd2f06643f448d8b851e47f886b643ea7d853af50baf7b60001b610995565b610e2f7f06b14379480c6cc34100c61883a6c302bfed53b7ecaeba191ea45846da3a8eff60001b610995565b610e5b7fc1fdc55960ed1d4522ee817fb264b0eeb31450b7a56005b42142500626c4a1ab60001b610995565b47905090565b6000610e8f7f920d397ae4c745ab420aea7c9b20ed0540575569a926b97d2162f69d9756ba0160001b610995565b610ebb7fc242381bdcb8d4287c465f173b3aa71a75b300004d2e3dd2fbe435aa2c2c61f560001b610995565b610ee77fdea98ddb399b40ca593efb51b383d0946e1da04c5b8b04f8b1b14c4eecc7006260001b610995565b610f137fa14489a16856c2cc6a18c07cc563f5b5d1e647c7872439e2f89f56f269cd08a260001b610995565b81600460008673ffffffffffffffffffffffffffffffffffffffff1673ffffffffffffffffffffffffffffffffffffffff168152602001908152602001600020541015610fc8576040517f08c379a00000000000000000000000000000000000000000000000000000000081526004018080602001828103825260148152602001807f494e53554646494349454e545f42414c414e434500000000000000000000000081525060200191505060405180910390fd5b610ff47f36f8cf4ac16af99255fddb03d552df71cc8d7405564a152627e11e322519679b60001b610995565b6110207fc2a89974f52ac60137efae1a9e55c69da842915807f8deeaa987a75dc320a73460001b610995565b61104c7f73d19ac94a7a3e2fdeee547a9d7b58472b9e3ed580d99ddf424ff387cef619f660001b610995565b3373ffffffffffffffffffffffffffffffffffffffff168473ffffffffffffffffffffffffffffffffffffffff161415801561112457507fffffffffffffffffffffffffffffffffffffffffffffffffffffffffffffffff600560008673ffffffffffffffffffffffffffffffffffffffff1673ffffffffffffffffffffffffffffffffffffffff16815260200190815260200160002060003373ffffffffffffffffffffffffffffffffffffffff1673ffffffffffffffffffffffffffffffffffffffff1681526020019081526020016000205414155b156113de576111557ffdd7333007278628a3a238ba6f7590ffcd773dd94ba7e8a3b5f79de24a05247960001b610995565b6111817febd50810c8c4de6644980aa918884a24712b0eb56c63f5ea1feb779729c9f8ba60001b610995565b6111ad7fa9ea58a47ad924ade604ae76eae4731b5e445a357627c70a6554586fb3941f2960001b610995565b6111d97ff7ebe651906d45a743103bf127ae49f9792652f361b29172dda62d659301981760001b610995565b81600560008673ffffffffffffffffffffffffffffffffffffffff1673ffffffffffffffffffffffffffffffffffffffff16815260200190815260200160002060003373ffffffffffffffffffffffffffffffffffffffff1673ffffffffffffffffffffffffffffffffffffffff1681526020019081526020016000205410156112cb576040517f08c379a00000000000000000000000000000000000000000000000000000000081526004018080602001828103825260168152602001807f494e53554646494349454e545f414c4c4f57414e43450000000000000000000081525060200191505060405180910390fd5b6112f77fba1500f3498574fdb1e643b1d5b3cf1f95c18df711fa865bf55447e223a85c8560001b610995565b6113237f7cc878158cb1b8dc74d2de0c741c55288ffbb0ee19545c4b310a0cb3c569c57d60001b610995565b61134f7f28ca0655defa9ae648f02c33b3ff0d2a7a7db94b3bbea7e33d21c2ea94d3679460001b610995565b81600560008673ffffffffffffffffffffffffffffffffffffffff1673ffffffffffffffffffffffffffffffffffffffff16815260200190815260200160002060003373ffffffffffffffffffffffffffffffffffffffff1673ffffffffffffffffffffffffffffffffffffffff1681526020019081526020016000206000828254039250508190555061140b565b61140a7f7e8ef3956e93d8eb5c69f1c1188f255e7b59aaa99859c2a01ab2f2f5f5c10a6760001b610995565b5b6114377ff60888f44a8492aba65a65780d799c48a087885fd2f8d7b76b14a22ae302fb3a60001b610995565b6114637fca19dd89f1daba1accf7c652b8e316f12849b5133b344cb0d21207461dc1cbd560001b610995565b81600460008673ffffffffffffffffffffffffffffffffffffffff1673ffffffffffffffffffffffffffffffffffffffff168152602001908152602001600020600082825403925050819055506114dc7f3d20f0b6a1ea4d94a483b837b05fa830c3a5876cf2600fa8ab87e43d533646ef60001b610995565b6115087f3238514e05a871639e59a7e7b5ece3d207a93ea6fb288f0de613ce0630d729aa60001b610995565b81600460008573ffffffffffffffffffffffffffffffffffffffff1673ffffffffffffffffffffffffffffffffffffffff168152602001908152602001600020600082825401925050819055506115817fdd1f291afc5bcfdaf0069b3d72dc78f52d65ff321fb238c1a99c0ebed22af9ab60001b610995565b6115ad7f285b439aa34a74bc6c9e74bf77e1e8bcb3d9ada60d3ae085c58d502eed3c19a560001b610995565b8273ffffffffffffffffffffffffffffffffffffffff168473ffffffffffffffffffffffffffffffffffffffff167fddf252ad1be2c89b69c2b068fc378daa952ba7f163c4a11628f55a4df523b3ef846040518082815260200191505060405180910390a361163e7fdb2511f25665145c51c3f4e1f7701cf9287a90d5aae381d0edf6f0786a1b6e2460001b610995565b61166a7fb672a69434a173312cc1fb24808fee72014d9808be9f5bbe48807eb7e008324f60001b610995565b600190509392505050565b60006116a37fc7c5c862f30a8372e7d72ef878deeea04b28dbfcff3d1bd445a2777b68b06dd160001b611ce1565b6116cf7f69f4a2dd0ee9ce747b657db13801e421c56d62b1d44dfdebd2759d86572fe97b60001b611ce1565b6116fb7f5010c076065a7b5209d7ab51dd780146c8f848d4a383d1b995e469d8aba8aec460001b611ce1565b600080838152602001908152602001600020600201549050919050565b6117447f5dde745ee38b76024c0b6128da2b7d37f51347f2ee9178bea55657a44d19738160001b610995565b6117707f4098c59989875ddab97766256eeab1ed716956663321a020764408e828c6051b60001b610995565b61179c7fd43d530e2f0567bf34018e59d6d0312307e0afb28998736d1efab262f16aa1c360001b610995565b6117c87fc833ae092b3e7f02d5da54104039bdbebb55a1982c4b372b325e0dd6e019d96760001b610995565b80600460003373ffffffffffffffffffffffffffffffffffffffff1673ffffffffffffffffffffffffffffffffffffffff16815260200190815260200160002054101561187d576040517f08c379a00000000000000000000000000000000000000000000000000000000081526004018080602001828103825260148152602001807f494e53554646494349454e545f42414c414e434500000000000000000000000081525060200191505060405180910390fd5b6118a97f825fd24d078d8bd9d55eb8577cb9904c7e583388f4fd5494887581464cfef7af60001b610995565b6118d57fbfd06c95988797f9202f53e1e53133f83f9403d4cad6269d3629bc154292bda660001b610995565b6119017f70684a20dae2c2c3dd0f724ec73155f902214785f18958518f0ca7a49c732d0f60001b610995565b80600460003373ffffffffffffffffffffffffffffffffffffffff1673ffffffffffffffffffffffffffffffffffffffff1681526020019081526020016000206000828254039250508190555061197a7f9fe59be92c9430b93f47759592e8a337eb34534592fa85072e0210c1dd8a2a5860001b610995565b6119a67f477aa6384c66017f51df30c34c97ba1eb9fd42592a597d1b4b82c0e57d20b06060001b610995565b3373ffffffffffffffffffffffffffffffffffffffff166108fc829081150290604051600060405180830381858888f193505050501580156119ec573d6000803e3d6000fd5b50611a197f9994ae4e5658875ef9ae012090661d67c18f8bdf688842e99f0c60494247443f60001b610995565b611a457f29da94c356ef051d8fdabc526ab87eef88c16648f7300a5f841924dd3d023d6b60001b610995565b3373ffffffffffffffffffffffffffffffffffffffff167f7fcf532c15f0a6db0bd6d0e038bea71d30d808c7d98cb3bf7268a95bf5081b65826040518082815260200191505060405180910390a250565b611ac27fc68744fec39099a7f16683b586cdbffdcf1cf9a2e262bc5aae18c28c30cdf84560001b611ce1565b611aee7f7ea7bb3fef2ac4180862e9d42a0794e2e5e894de12f18e6cf85190543ae3ef3360001b611ce1565b611b1a7fa046d81cba207ce2ccf3a1669ec97a6760ff665726d2d0246a267eedda571fe960001b611ce1565b611b44611b3c6000808581526020019081526020016000206002015433612078565b6101a6612783565b611b707feb3ea0c03c9dd000cdfd0f0bb327415a780f0a7ed3e544d4ff30b1c2b44c1e1160001b611ce1565b611b9c7f16a8e8137d65acd021acda30349a4524fa792f30901986e2656f332a8fa206a360001b611ce1565b611ba68282612796565b5050565b600360009054906101000a900460ff1681565b611be97f4fbeba28202798e6a6ea05639d866fd3e581b239c66b3f99dff7f00ec89da78b60001b611ce1565b611c157fd2d7081cfa591661a2a7a1b2bf0985a3cbbcc0a2e10864c0fdcc4d37ef1ccfbc60001b611ce1565b611c417f172b413f5f5cfd014b2133f1649c65544a397a42e75ca7744c6995b2bbdcfadd60001b611ce1565b611c7b3373ffffffffffffffffffffffffffffffffffffffff168273ffffffffffffffffffffffffffffffffffffffff16146101a8612783565b611ca77f279103160aa01f1984332f7f21f3aeb60d089bda02babcdaaaef0f56e0a0dbac60001b611ce1565b611cd37f76878f77de84d912e8431c66bbbc8516b343920aab5e2f132a070e966b603d9560001b611ce1565b611cdd828261295b565b5050565b50565b611d107f2c9ba33212f06c93f3a08f26278013c6b0420b8fb878200df439b86c7716bf9460001b610995565b611d3c7f206743d8d18b666f16f2f5be467fdc9690cbca4ad486e20cb65a928fe1be32fe60001b610995565b611d687f43429ca8f668f53889b6e44c504d6049becbbee3d3a57b0a214e704387cf5a0e60001b610995565b611d947faa7b21b9a3bd5c3128b555267d338fc23c4d98bfbd2021446626019ae6c4c91460001b610995565b611dbe7f9f2df0fed2c77648de5860a4cc508cd0818c85b8b8a1ab4ceeef8d981c8956a633612078565b611e30576040517f08c379a000000000000000000000000000000000000000000000000000000000815260040180806020018281038252600a8152602001807f4e4f545f4d494e5445520000000000000000000000000000000000000000000081525060200191505060405180910390fd5b611e5c7f273494024f7634632e2097955a8beaca047214a99843e4901f3c3c084f1e9ef560001b610995565b611e887f932fa773ca2b185ca6aa7e3b8f452e892d1a8b389265c7d2a4f45712e064737b60001b610995565b611eb47fcd1ba587c2cb72af08118cff9639c88976863faea85c72ca6cdd16050f72329060001b610995565b80600460008473ffffffffffffffffffffffffffffffffffffffff1673ffffffffffffffffffffffffffffffffffffffff16815260200190815260200160002060008282540192505081905550611f2d7f0aa40a400cd364729b97eb50ee5d2b25e52789839422cdc8031382c20c72273060001b610995565b611f597f240367f3902cc4ffe76521e1abf5653510a20b24794e00b6c789be494209357360001b610995565b8173ffffffffffffffffffffffffffffffffffffffff167fe1fffcc4923d04b559f4d29a8bfc6cda04eb5b0d3c460751c2402c5c5cc9109c826040518082815260200191505060405180910390a25050565b60046020528060005260406000206000915090505481565b6000611ff17fda375ae45aee73ee0cdc004cf2b875ef8e8cd88c4eb1ab4b84e3bbbf6e75b30760001b611ce1565b61201d7f7d5eb0a635538d92251b7c340dc15f2a96259549e87b623ccbcef616b86ba7a660001b611ce1565b6120497fa78152354c3e6c24357ec99bb3bb053fc4867eaa54e72d7d1a252fb8fb1f90ec60001b611ce1565b61207082600080868152602001908152602001600020600001612b2090919063ffffffff16565b905092915050565b60006120a67f03e36594dbc24968481dddfdeda0087b379c0d6c41ba967424a671f64377a64360001b611ce1565b6120d27f42b51ef9ff396f62df9844a630eca764877f7302ce604fb53774131675f20d2d60001b611ce1565b6120fe7f321f6fc788fec8d9321cbd43009bc26b1cf82efa01037a94f1fc8cf1a0ef144a60001b611ce1565b61212582600080868152602001908152602001600020600001612c2490919063ffffffff16565b905092915050565b60028054600181600116156101000203166002900480601f0160208091040260200160405190810160405280929190818152602001828054600181600116156101000203166002900480156121c35780601f10612198576101008083540402835291602001916121c3565b820191906000526020600020905b8154815290600101906020018083116121a657829003601f168201915b505050505081565b6000801b81565b60006122007f3f84bc3e2a4fbb0888e312c09d8d7dc4bf341b39d33757f1a4643c1909abd7fa60001b610995565b61222c7fad353707f8e45a35033168d58f09f3c4c86c8ed0d41998139340ade08b7c0c0660001b610995565b6122587fc76dac2466ae6ccd4e7c3bd7132b4740ea6b09b8cd830bee55e2076d05fce77f60001b610995565b612263338484610e61565b905092915050565b60006122997fcbf90c788b764201d8a61833a6bb2f0c4c1943d3db2f9c280b034c748d05e18a60001b611ce1565b6122c57fdab5585f41bbc3a83d3e71d6058ca7d72803d30067560b49581973b9ce74ad3a60001b611ce1565b6122f17f70c7a9bdb151c457acde1bae78d489903a96dcefe3f60aaa80725479bae51d1260001b611ce1565b61230e600080848152602001908152602001600020600001612cf8565b9050919050565b7f9f2df0fed2c77648de5860a4cc508cd0818c85b8b8a1ab4ceeef8d981c8956a681565b6123657f4e6732ffdd9c3c5c3728a424b165a08a8e14ce029c8ddee7b6951973db908b6060001b611ce1565b6123917fe50a5b4c6d3425e285acb8c4cc13952818c37fb6a86441451b273a53295739a960001b611ce1565b6123bd7f4346da409f94fbd076a9ffc36a652bd17b9bfc67c79f2f21b6b851c2fc6dcb4c60001b611ce1565b6123e76123df6000808581526020019081526020016000206002015433612078565b6101a7612783565b6124137fe14f1782d0ae8ad8a805479d8bbb34b065b0b13b1dc61df1d4db48f874fc160960001b611ce1565b61243f7fa3d369948de478ec60de6b37c401e09688b994214178f9288daefec96abfa93960001b611ce1565b612449828261295b565b5050565b6005602052816000526040600020602052806000526040600020600091509150505481565b60006124a07fafc28c8ad46b468274539bc8314e2745dc2d3f7038af583f6c25b345252299ff60001b612d8d565b6124cc7fd65cd8894cd7599d573934ee4e7259bca66b67f4529b86afc85561768ab6331260001b612d8d565b6124f87f73d15665ebf97f2ec239c9de9f2d368145ebf8bfc29584cd00c883286bb0b5b760001b612d8d565b6125028383612c24565b6126f4576125327f611dcc30a45c499ce3ad496c52bc2186f0cbc5070a77971fa17d0e3c8aff993460001b612d8d565b61255e7fa1ffd1a624ba2fc9ad3784e766979c10b69548953e33fdd8d52fd1ad9249db4260001b612d8d565b61258a7f0d3795d19e3ebbfce65a7f6dba4be223b7dfc11d45684a2b8b9639624890e76d60001b612d8d565b82600001829080600181540180825580915050600190039060005260206000200160009091909190916101000a81548173ffffffffffffffffffffffffffffffffffffffff021916908373ffffffffffffffffffffffffffffffffffffffff16021790555061261b7f7616d7a05facba46804c61ead3a84857b28996bfef33527f000952dbb1f24fe360001b612d8d565b6126467ec337f7341aebee30ff50d6368e9a9860da52fa5226dacb871fc4a28004838860001b612d8d565b82600001805490508360010160008473ffffffffffffffffffffffffffffffffffffffff1673ffffffffffffffffffffffffffffffffffffffff168152602001908152602001600020819055506126bf7f13ba2f78dd7ecaf55a4cc3f8d3e7f93c5cadbc063ffeefb68c7949802b5d3a6e60001b612d8d565b6126eb7fc0490b09000a2341c56dc8ebb7359ac889a50a807ad657762b431c42ebed81d860001b612d8d565b6001905061277d565b6127207f4e16a37a129416984b8f77905fffb3105d2d16c5bffcc10366666605395cd0b160001b612d8d565b61274c7fef2de3f863211443d90a1d49147a100c20a57273298331ae7e2cd54c79a3875a60001b612d8d565b6127787fc9303cbc2544604f1547dd8d81f7d4d4eb689c320fb75389df721b35f0e1d15d60001b612d8d565b600090505b92915050565b816127925761279181612d90565b5b5050565b6127c27f6407d3d700902783b0790ecd7d71fdf7c6d17edba52cb13148c9e81367f0cdb160001b611ce1565b6127ee7f991f445417ef670ce1718bf3efa0d897ff34d218374430935c01ebbe5e7911b660001b611ce1565b61281a7f117edf4877bd519647f10f3d83f7b040aaa2b4763029dadefd4d02ee08bbca4f60001b611ce1565b6128418160008085815260200190815260200160002060000161247290919063ffffffff16565b1561292a576128727ffd44c5a846114fb700dfd54fb7756bb74ae09b46d502310ce7ae7d5d0e56b96260001b611ce1565b61289e7fcbe6fb2ac1ff183b90917394e59028226c90b462a54d68fa99119902e9bdd48160001b611ce1565b6128ca7f03e7c6fa9469425312fde46e7310b2d5c9a715be7fb4dece2dee6e7a37beb80160001b611ce1565b3373ffffffffffffffffffffffffffffffffffffffff168173ffffffffffffffffffffffffffffffffffffffff16837f2f8788117e7eff1d82e926ec794901d17c78024a50270940304540a733656f0d60405160405180910390a4612957565b6129567f639f4fd4e5b6e771451b1c96d41fe078a472e3ce4e39de30b72676385dafe22360001b611ce1565b5b5050565b6129877facdd613223eebcebb209b0efe170b7661d8341ec28e7648e56b2b1c25962fd0260001b611ce1565b6129b37f75ef4df2b91a373925586d98ccebd7821811895e01bede25a577519ddd3731f360001b611ce1565b6129df7f092ec04dbf6ad28b139f6cacd78a7c56347770e965e23d22fbcb950e6777cf9060001b611ce1565b612a0681600080858152602001908152602001600020600001612e0090919063ffffffff16565b15612aef57612a377f11bb84b6fedd64e6af9bf598028328c7141dc0803011e08ac733829b036470e560001b611ce1565b612a637f5a9063638be5e919ff01f51d8f05a2c6a8ed7873b88602a1ac2d6959f0a038f560001b611ce1565b612a8f7f3e51f2124a8caca2e2d1e5b4061524f59bbe54c72c18431578bb647afd87a11160001b611ce1565b3373ffffffffffffffffffffffffffffffffffffffff168173ffffffffffffffffffffffffffffffffffffffff16837ff6391f5c32d9c69d2a47ea670b442974b53935d1edc7fd64eb21e047a839171b60405160405180910390a4612b1c565b612b1b7f3d80a8b61cbc17b2e688c2e099e0050ed12e2cc728fe3c1ec134f43bea55509d60001b611ce1565b5b5050565b6000612b4e7f7dea1c1d253cf48e7d588d6480a543ce38b46d776192e327fa8cd0c9c1990ff760001b612d8d565b612b7a7f58bb2acc91dcb4df2e3f2e89968f750a4165bf4398540b17fb41938d548c2e2060001b612d8d565b612ba67f2b7941c0d663b1c0f556cc6d07434c953bbffce3e72a4a2897b04de03086b19060001b612d8d565b612bba828460000180549050116064612783565b612be67f212e61f1d461bf7d5ebc94ff1a36fb0711497c0dcb5773ebe27197b66e89ddba60001b612d8d565b612c127f695081265bdfed30ae8c4949b1e4f2422357dcea410b3f5a7fa727bbccaff4ef60001b612d8d565b612c1c8383613406565b905092915050565b6000612c527f26c9003ff5622b36c455b3a2c7e8ee8219dd1ee06aee5bb7688394f0bf73678160001b612d8d565b612c7e7f6f417677c8a9f3d1599c594602edcb366521c6a206303cbfe730cb780577f19e60001b612d8d565b612caa7f43227e98846ec640660e022ffd05a933731005a59b7cafa20d1e956c3e0c379f60001b612d8d565b60008360010160008473ffffffffffffffffffffffffffffffffffffffff1673ffffffffffffffffffffffffffffffffffffffff168152602001908152602001600020541415905092915050565b6000612d267fc939cb4a358f7de10fbd202b3434882ab905a97465c61be890dcf2b81f594b1a60001b612d8d565b612d527f3bd586b7682f7d29a4f151a6acf63b75bdca300a4228f5bfd10203a61161b74960001b612d8d565b612d7e7f7a0ac2bc9371301d946971e3f98e8667807fea30f54e31d677bb8899e1a8fe0960001b612d8d565b81600001805490509050919050565b50565b6030600a820601600a820491506030600a830601600a830492506030600a8406018060101b8260081b8401016642414c230000000160c81b7f08c379a000000000000000000000000000000000000000000000000000000000600052602060045260076024528060445260646000fd5b6000612e2e7f66d05ac829d8d82489bca9be5c8dffaab118b1b3817054cd67e797d6eecfe77b60001b612d8d565b612e5a7f739902fbb7e6dfeb449a9a157fbdee05baceb408e62aac8a52b19e4557901eb760001b612d8d565b612e867fbc66fce38e599c85c8690149c113a0a85e419544d0d4d350ab0a5c0cca41c32d60001b612d8d565b60008360010160008473ffffffffffffffffffffffffffffffffffffffff1673ffffffffffffffffffffffffffffffffffffffff168152602001908152602001600020549050612ef87fb32312f175199b3c17a909babb6b427dc6608e55e42952b11ac89e0db9834ee760001b612d8d565b612f247f0f5f623e66565b11f2f820636c62421056a7033a744128acf7ff6699e7e330a660001b612d8d565b6000811461337657612f587f339734d297aecc617b66a9aabe0002b4645fadef1bee1ddc24ad8374cdd729ef60001b612d8d565b612f847fe8a3a42934f6215dad01ab9b7902796e328cc46bf063824c2151cc72c75386e460001b612d8d565b612fb07f849eb84153c9d02044e040adf421f5076a5fd6fdb1782d804a39d126b9f4eff960001b612d8d565b6000600182039050612fe47f7b28a651835b16a5f1f0d88c1e0dd5abf63b067f92fba594d2d0671496697f4b60001b612d8d565b6130107f817db536f5275e37cb3d54fb4f1bc2525cee09fd5474de2e122a857938b2907960001b612d8d565b60006001866000018054905003905061304b7f3ea13b837978f44d2abc061806ebeab277c0fda6d812b793eb7eaca9746c809860001b612d8d565b6130777ffc196938f12f75e66e130774b8e4c318f6992bbb37cfc4d4904d72c40dd50ded60001b612d8d565b600086600001828154811061308857fe5b9060005260206000200160009054906101000a900473ffffffffffffffffffffffffffffffffffffffff1690506130e17f0530faaf4103ea59524877f4000934fc3edba5d1fb1ed33182c3f830bca1fd0b60001b612d8d565b61310d7f65f6f644dd718881ff1983ba81ce8ba6ec0c19a08dcb917fe016c016ad20bbbf60001b612d8d565b8087600001848154811061311d57fe5b9060005260206000200160006101000a81548173ffffffffffffffffffffffffffffffffffffffff021916908373ffffffffffffffffffffffffffffffffffffffff1602179055506131917f1c4ebdcc92bf12fbd97e204109b2d60cc1185dc2ec6287f4663f19730456e61b60001b612d8d565b6131bd7fb252cee5062d9c45806a7247b525e28b1c1d5324d388580a83b6340b7624649160001b612d8d565b600183018760010160008373ffffffffffffffffffffffffffffffffffffffff1673ffffffffffffffffffffffffffffffffffffffff168152602001908152602001600020819055506132327f1d89bb788a822c744a46868c7350a8c5983de5bcf57624be6145c36adbaf1cb060001b612d8d565b61325e7ff253365014f124c3f23d0c72199d8e4e02830052c44e152a6f669af0fd580ee060001b612d8d565b8660000180548061326b57fe5b6001900381819060005260206000200160006101000a81549073ffffffffffffffffffffffffffffffffffffffff021916905590556132cc7fc3887abad9c4edf15cd0be96f9b8ed240f4ebf8d3dfa38c4b4823c00e3c1841b60001b612d8d565b8660010160008773ffffffffffffffffffffffffffffffffffffffff1673ffffffffffffffffffffffffffffffffffffffff1681526020019081526020016000206000905561333d7f95e26176a807897c84fb6966057105c6e84c290ec03bff22b6e227c2490c74a660001b612d8d565b6133697facfc09e59bbee30b764ec8dc9a17f36cafbe83b3c992d071441c71df2354a4d060001b612d8d565b6001945050505050613400565b6133a27fa1666708a09537e40d287126a8724a4d9fb911a16f7bb6d27a1ca79311944b6460001b612d8d565b6133ce7feb38dd99a76e81b302777bd4011f76afbf91737e55de4815e110dcfbf72bf70260001b612d8d565b6133fa7fe47feece8a79cb43a5f927f215f33d63e4917e98101cbbb3258cf5dc17ef1d9760001b612d8d565b60009150505b92915050565b60006134347f6ca8b2757ef52d892eb581014eba9645b8866516e51aa7f124ea7d98d9b2b43760001b612d8d565b6134607f8863d66d3a44ebb6cf0c7daf6176968329c4ced50f1bf66ab11da0b0dcd631a460001b612d8d565b61348c7f26dc9deb5f2e107da3801848bd726309dd8639c3ba47b6fdd4f8c047e8ad920660001b612d8d565b82600001828154811061349b57fe5b9060005260206000200160009054906101000a900473ffffffffffffffffffffffffffffffffffffffff1690509291505056fea2646970667358221220b458f3dea765c4d9c6a049f46ed1f3c1c782fba48c807a9f6a7c6652c90b80cd64736f6c63430007010033",
  "linkReferences": {},
  "deployedLinkReferences": {}
}