{
  "_format": "hh-sol-artifact-1",
  "contractName": "WETH",
  "sourceName": "contracts/balancer-core-v2/test/WETH.sol",
  "abi": [
    {
      "inputs": [
        {
          "internalType": "address",
          "name": "minter",
          "type": "address"
        }
      ],
      "stateMutability": "nonpayable",
      "type": "constructor"
    },
    {
      "anonymous": false,
      "inputs": [
        {
          "indexed": true,
          "internalType": "address",
          "name": "owner",
          "type": "address"
        },
        {
          "indexed": true,
          "internalType": "address",
          "name": "spender",
          "type": "address"
        },
        {
          "indexed": false,
          "internalType": "uint256",
          "name": "value",
          "type": "uint256"
        }
      ],
      "name": "Approval",
      "type": "event"
    },
    {
      "anonymous": false,
      "inputs": [
        {
          "indexed": true,
          "internalType": "address",
          "name": "dst",
          "type": "address"
        },
        {
          "indexed": false,
          "internalType": "uint256",
          "name": "wad",
          "type": "uint256"
        }
      ],
      "name": "Deposit",
      "type": "event"
    },
    {
      "anonymous": false,
      "inputs": [
        {
          "indexed": true,
          "internalType": "bytes32",
          "name": "role",
          "type": "bytes32"
        },
        {
          "indexed": true,
          "internalType": "bytes32",
          "name": "previousAdminRole",
          "type": "bytes32"
        },
        {
          "indexed": true,
          "internalType": "bytes32",
          "name": "newAdminRole",
          "type": "bytes32"
        }
      ],
      "name": "RoleAdminChanged",
      "type": "event"
    },
    {
      "anonymous": false,
      "inputs": [
        {
          "indexed": true,
          "internalType": "bytes32",
          "name": "role",
          "type": "bytes32"
        },
        {
          "indexed": true,
          "internalType": "address",
          "name": "account",
          "type": "address"
        },
        {
          "indexed": true,
          "internalType": "address",
          "name": "sender",
          "type": "address"
        }
      ],
      "name": "RoleGranted",
      "type": "event"
    },
    {
      "anonymous": false,
      "inputs": [
        {
          "indexed": true,
          "internalType": "bytes32",
          "name": "role",
          "type": "bytes32"
        },
        {
          "indexed": true,
          "internalType": "address",
          "name": "account",
          "type": "address"
        },
        {
          "indexed": true,
          "internalType": "address",
          "name": "sender",
          "type": "address"
        }
      ],
      "name": "RoleRevoked",
      "type": "event"
    },
    {
      "anonymous": false,
      "inputs": [
        {
          "indexed": true,
          "internalType": "address",
          "name": "from",
          "type": "address"
        },
        {
          "indexed": true,
          "internalType": "address",
          "name": "to",
          "type": "address"
        },
        {
          "indexed": false,
          "internalType": "uint256",
          "name": "value",
          "type": "uint256"
        }
      ],
      "name": "Transfer",
      "type": "event"
    },
    {
      "anonymous": false,
      "inputs": [
        {
          "indexed": true,
          "internalType": "address",
          "name": "src",
          "type": "address"
        },
        {
          "indexed": false,
          "internalType": "uint256",
          "name": "wad",
          "type": "uint256"
        }
      ],
      "name": "Withdrawal",
      "type": "event"
    },
    {
      "inputs": [],
      "name": "DEFAULT_ADMIN_ROLE",
      "outputs": [
        {
          "internalType": "bytes32",
          "name": "",
          "type": "bytes32"
        }
      ],
      "stateMutability": "view",
      "type": "function"
    },
    {
      "inputs": [],
      "name": "MINTER_ROLE",
      "outputs": [
        {
          "internalType": "bytes32",
          "name": "",
          "type": "bytes32"
        }
      ],
      "stateMutability": "view",
      "type": "function"
    },
    {
      "inputs": [
        {
          "internalType": "address",
          "name": "",
          "type": "address"
        },
        {
          "internalType": "address",
          "name": "",
          "type": "address"
        }
      ],
      "name": "allowance",
      "outputs": [
        {
          "internalType": "uint256",
          "name": "",
          "type": "uint256"
        }
      ],
      "stateMutability": "view",
      "type": "function"
    },
    {
      "inputs": [
        {
          "internalType": "address",
          "name": "guy",
          "type": "address"
        },
        {
          "internalType": "uint256",
          "name": "wad",
          "type": "uint256"
        }
      ],
      "name": "approve",
      "outputs": [
        {
          "internalType": "bool",
          "name": "",
          "type": "bool"
        }
      ],
      "stateMutability": "nonpayable",
      "type": "function"
    },
    {
      "inputs": [
        {
          "internalType": "address",
          "name": "",
          "type": "address"
        }
      ],
      "name": "balanceOf",
      "outputs": [
        {
          "internalType": "uint256",
          "name": "",
          "type": "uint256"
        }
      ],
      "stateMutability": "view",
      "type": "function"
    },
    {
      "inputs": [
        {
          "internalType": "bytes32",
          "name": "c__0x0bedcc03",
          "type": "bytes32"
        }
      ],
      "name": "c_0x0bedcc03",
      "outputs": [],
      "stateMutability": "pure",
      "type": "function"
    },
    {
      "inputs": [
        {
          "internalType": "bytes32",
          "name": "c__0x32655a30",
          "type": "bytes32"
        }
      ],
      "name": "c_0x32655a30",
      "outputs": [],
      "stateMutability": "pure",
      "type": "function"
    },
    {
      "inputs": [],
      "name": "decimals",
      "outputs": [
        {
          "internalType": "uint8",
          "name": "",
          "type": "uint8"
        }
      ],
      "stateMutability": "view",
      "type": "function"
    },
    {
      "inputs": [],
      "name": "deposit",
      "outputs": [],
      "stateMutability": "payable",
      "type": "function"
    },
    {
      "inputs": [
        {
          "internalType": "bytes32",
          "name": "role",
          "type": "bytes32"
        }
      ],
      "name": "getRoleAdmin",
      "outputs": [
        {
          "internalType": "bytes32",
          "name": "",
          "type": "bytes32"
        }
      ],
      "stateMutability": "view",
      "type": "function"
    },
    {
      "inputs": [
        {
          "internalType": "bytes32",
          "name": "role",
          "type": "bytes32"
        },
        {
          "internalType": "uint256",
          "name": "index",
          "type": "uint256"
        }
      ],
      "name": "getRoleMember",
      "outputs": [
        {
          "internalType": "address",
          "name": "",
          "type": "address"
        }
      ],
      "stateMutability": "view",
      "type": "function"
    },
    {
      "inputs": [
        {
          "internalType": "bytes32",
          "name": "role",
          "type": "bytes32"
        }
      ],
      "name": "getRoleMemberCount",
      "outputs": [
        {
          "internalType": "uint256",
          "name": "",
          "type": "uint256"
        }
      ],
      "stateMutability": "view",
      "type": "function"
    },
    {
      "inputs": [
        {
          "internalType": "bytes32",
          "name": "role",
          "type": "bytes32"
        },
        {
          "internalType": "address",
          "name": "account",
          "type": "address"
        }
      ],
      "name": "grantRole",
      "outputs": [],
      "stateMutability": "nonpayable",
      "type": "function"
    },
    {
      "inputs": [
        {
          "internalType": "bytes32",
          "name": "role",
          "type": "bytes32"
        },
        {
          "internalType": "address",
          "name": "account",
          "type": "address"
        }
      ],
      "name": "hasRole",
      "outputs": [
        {
          "internalType": "bool",
          "name": "",
          "type": "bool"
        }
      ],
      "stateMutability": "view",
      "type": "function"
    },
    {
      "inputs": [
        {
          "internalType": "address",
          "name": "destinatary",
          "type": "address"
        },
        {
          "internalType": "uint256",
          "name": "amount",
          "type": "uint256"
        }
      ],
      "name": "mint",
      "outputs": [],
      "stateMutability": "nonpayable",
      "type": "function"
    },
    {
      "inputs": [],
      "name": "name",
      "outputs": [
        {
          "internalType": "string",
          "name": "",
          "type": "string"
        }
      ],
      "stateMutability": "view",
      "type": "function"
    },
    {
      "inputs": [
        {
          "internalType": "bytes32",
          "name": "role",
          "type": "bytes32"
        },
        {
          "internalType": "address",
          "name": "account",
          "type": "address"
        }
      ],
      "name": "renounceRole",
      "outputs": [],
      "stateMutability": "nonpayable",
      "type": "function"
    },
    {
      "inputs": [
        {
          "internalType": "bytes32",
          "name": "role",
          "type": "bytes32"
        },
        {
          "internalType": "address",
          "name": "account",
          "type": "address"
        }
      ],
      "name": "revokeRole",
      "outputs": [],
      "stateMutability": "nonpayable",
      "type": "function"
    },
    {
      "inputs": [],
      "name": "symbol",
      "outputs": [
        {
          "internalType": "string",
          "name": "",
          "type": "string"
        }
      ],
      "stateMutability": "view",
      "type": "function"
    },
    {
      "inputs": [],
      "name": "totalSupply",
      "outputs": [
        {
          "internalType": "uint256",
          "name": "",
          "type": "uint256"
        }
      ],
      "stateMutability": "view",
      "type": "function"
    },
    {
      "inputs": [
        {
          "internalType": "address",
          "name": "dst",
          "type": "address"
        },
        {
          "internalType": "uint256",
          "name": "wad",
          "type": "uint256"
        }
      ],
      "name": "transfer",
      "outputs": [
        {
          "internalType": "bool",
          "name": "",
          "type": "bool"
        }
      ],
      "stateMutability": "nonpayable",
      "type": "function"
    },
    {
      "inputs": [
        {
          "internalType": "address",
          "name": "src",
          "type": "address"
        },
        {
          "internalType": "address",
          "name": "dst",
          "type": "address"
        },
        {
          "internalType": "uint256",
          "name": "wad",
          "type": "uint256"
        }
      ],
      "name": "transferFrom",
      "outputs": [
        {
          "internalType": "bool",
          "name": "",
          "type": "bool"
        }
      ],
      "stateMutability": "nonpayable",
      "type": "function"
    },
    {
      "inputs": [
        {
          "internalType": "uint256",
          "name": "wad",
          "type": "uint256"
        }
      ],
      "name": "withdraw",
      "outputs": [],
      "stateMutability": "nonpayable",
      "type": "function"
    },
    {
      "stateMutability": "payable",
      "type": "receive"
    }
  ],
  "bytecode": "0x60806040526040518060400160405280600d81526020017f5772617070656420457468657200000000000000000000000000000000000000815250600190805190602001906200005192919062000982565b506040518060400160405280600481526020017f5745544800000000000000000000000000000000000000000000000000000000815250600290805190602001906200009f92919062000982565b506012600360006101000a81548160ff021916908360ff160217905550348015620000c957600080fd5b5060405162003f3b38038062003f3b83398181016040526020811015620000ef57600080fd5b8101908080519060200190929190505050620001347f64264ab4da82daf8d92893db0fb22cd3c0db709640e95532a5f63717f1e41a6860001b6200025260201b60201c565b620001687f2eec0e21f0a7b43e05c43726477822e57ab1481c0de98cf4efc5c766e49b0f4260001b6200025260201b60201c565b6200019c7fb9f287d8d050feb386d102e4e6f3bd6df8584b4d870608ec386bc766a8a29c8760001b6200025260201b60201c565b620001b16000801b826200025560201b60201c565b620001e57fde9104e3ae8100e9e31c92f5704cf640dccaa85c7c85032b974f2d194b954a9360001b6200025260201b60201c565b620002197f0216855754df7562a48dc69b947fef3ce1315bea2f7bf197561c7b6d6b429be460001b6200025260201b60201c565b6200024b7f9f2df0fed2c77648de5860a4cc508cd0818c85b8b8a1ab4ceeef8d981c8956a6826200025560201b60201c565b5062000a28565b50565b620002897f4265c9f3a473330399bff46d039aad7bd9316164432877ddceb54a6e5adf1fde60001b6200030760201b60201c565b620002bd7f6a58972ebe14dd8e972a037aaf05f9d7716e80c446e511a0318d10e6ffad80c060001b6200030760201b60201c565b620002f17fc1878e589e7cbe000ac59256d4e45eabba5f39195dbee899f4d745b91adc8fa360001b6200030760201b60201c565b6200030382826200030a60201b60201c565b5050565b50565b6200033e7fa51bf1f60f57d67315e8884ee58ac1ea4a304657da288266decfa22e74c3937560001b6200030760201b60201c565b620003717e7c1a64dd7716987aa76054a1f7dd56fa1c2b36f6c45fa7943a13e90f37825e60001b6200030760201b60201c565b620003a57f41ea7c6e64095ee090947f606bea526c0cce3a45dd42ddbe13950f7d1fe2c8d860001b6200030760201b60201c565b620003d3816000808581526020019081526020016000206000016200050f60201b620024711790919060201c565b15620004d6576200040d7f4999465fe92e467acd8859d26ce1033e7439225e7e5cf63a3d6c764bd373691d60001b6200030760201b60201c565b620004417f2d494cddfc92440255f338981f92e2b818d331c209eb380840bfd2a99625d33560001b6200030760201b60201c565b620004757f065c6071bb14d3623c8cfba8dcf3686b45cc19a1e2925804ab4cd79f9745f0c360001b6200030760201b60201c565b3373ffffffffffffffffffffffffffffffffffffffff168173ffffffffffffffffffffffffffffffffffffffff16837f2f8788117e7eff1d82e926ec794901d17c78024a50270940304540a733656f0d60405160405180910390a46200050b565b6200050a7fa294dbc9ecdd4d04f237949c2ce87f3fb306d5206d8129f0cd0ed303c7231fe960001b6200030760201b60201c565b5b5050565b6000620005457fa61e67e0cc7cbf6dca1bad9e89d180e8919dcf916304a64f2ec6ececcc9d912c60001b6200089360201b60201c565b620005797ff89557b3cf564068446efd7c55bd51b9e70fd436a35c6473f15adcd344506c6360001b6200089360201b60201c565b620005ad7f26e85b743bb6b8312020797ab3e5ba6fc2d859a42fcf75a48659099e1275492260001b6200089360201b60201c565b620005bf83836200089660201b60201c565b620007ec57620005f87f7ef22654169904189010f597963bd507ba7347b8740691b4476cd67f49124e0e60001b6200089360201b60201c565b6200062c7f882135caf4af84c0e1bca9f79eea9de8f5065751adebffaa162d1be7bcd8971360001b6200089360201b60201c565b620006607fd4763463e71726a43c654b8dbf128677d7b43a0ca60ea4949f53372a7348c9d560001b6200089360201b60201c565b82600001829080600181540180825580915050600190039060005260206000200160009091909190916101000a81548173ffffffffffffffffffffffffffffffffffffffff021916908373ffffffffffffffffffffffffffffffffffffffff160217905550620006f97fa3e2b33e886959093c6a0b3f0486c0415a5942638d5f7962dcbafebe762b71fc60001b6200089360201b60201c565b6200072d7fe7ef27addeab499367a977ce9fbac58dab6cba8562530386e737575a2e06c7e860001b6200089360201b60201c565b82600001805490508360010160008473ffffffffffffffffffffffffffffffffffffffff1673ffffffffffffffffffffffffffffffffffffffff16815260200190815260200160002081905550620007ae7faae9952f0993be4f6477e9e870423701d8eedd54d02232ff8d5bf0ccd05d7c5c60001b6200089360201b60201c565b620007e27f6698fc4e1ad3506204b6591cbea4a9516be140780c6e774821ba525a78253a7660001b6200089360201b60201c565b600190506200088d565b620008207fcfe8799fec11d89ab8dc9f688739444327c48b7f0801c28255d98ea5e02ef43c60001b6200089360201b60201c565b620008547fba7632cc0dabc22b2074585c4ae9fab51e277fd8f67164d832f32dc57620662c60001b6200089360201b60201c565b620008887f86d37e5e32f04f1f5e60b0076fa21ce47f5fe546d5c5f7bacc1ccde7ded1557160001b6200089360201b60201c565b600090505b92915050565b50565b6000620008cc7f2a5d65fff1f3b500c215582deba6caa0a91f9fecacf06c3d1ecbe4a353637b7f60001b6200089360201b60201c565b620009007f071b014040d1e21aadcee71b3fa973b0b60209eed08df4506d97e4c5e7caad9660001b6200089360201b60201c565b620009347fd1bb3b7f1b236199263b084954b3e62036402ccb0ddcaf72318b313ffef4b57660001b6200089360201b60201c565b60008360010160008473ffffffffffffffffffffffffffffffffffffffff1673ffffffffffffffffffffffffffffffffffffffff168152602001908152602001600020541415905092915050565b828054600181600116156101000203166002900490600052602060002090601f016020900481019282601f10620009c557805160ff1916838001178555620009f6565b82800160010185558215620009f6579182015b82811115620009f5578251825591602001919060010190620009d8565b5b50905062000a05919062000a09565b5090565b5b8082111562000a2457600081600090555060010162000a0a565b5090565b6135038062000a386000396000f3fe6080604052600436106101845760003560e01c80637b0efa22116100d6578063ca15c8731161007f578063d547741f11610059578063d547741f1461087a578063dbaca60c146108d5578063dd62ed3e14610910576101bf565b8063ca15c873146107f6578063d0e30db014610845578063d53913931461084f576101bf565b806395d89b41116100b057806395d89b41146106ca578063a217fddf1461075a578063a9059cbb14610785576101bf565b80637b0efa22146105af5780639010d07c146105ea57806391d1485414610659576101bf565b80632e1a7d4d1161013857806336568abe1161011257806336568abe1461049457806340c10f19146104ef57806370a082311461054a576101bf565b80632e1a7d4d146103d05780632f2ff15d1461040b578063313ce56714610466576101bf565b806318160ddd1161016957806318160ddd146102c557806323b872dd146102f0578063248a9ca314610381576101bf565b806306fdde03146101c4578063095ea7b314610254576101bf565b366101bf576101b57fce5d87933e5dd4e4689cc5f0c243ab9c038cabbe414d49b4f370cec2d151cc9360001b610995565b6101bd610998565b005b600080fd5b3480156101d057600080fd5b506101d9610b11565b6040518080602001828103825283818151815260200191508051906020019080838360005b838110156102195780820151818401526020810190506101fe565b50505050905090810190601f1680156102465780820380516001836020036101000a031916815260200191505b509250505060405180910390f35b34801561026057600080fd5b506102ad6004803603604081101561027757600080fd5b81019080803573ffffffffffffffffffffffffffffffffffffffff16906020019092919080359060200190929190505050610baf565b60405180821515815260200191505060405180910390f35b3480156102d157600080fd5b506102da610dd5565b6040518082815260200191505060405180910390f35b3480156102fc57600080fd5b506103696004803603606081101561031357600080fd5b81019080803573ffffffffffffffffffffffffffffffffffffffff169060200190929190803573ffffffffffffffffffffffffffffffffffffffff16906020019092919080359060200190929190505050610e61565b60405180821515815260200191505060405180910390f35b34801561038d57600080fd5b506103ba600480360360208110156103a457600080fd5b8101908080359060200190929190505050611675565b6040518082815260200191505060405180910390f35b3480156103dc57600080fd5b50610409600480360360208110156103f357600080fd5b8101908080359060200190929190505050611718565b005b34801561041757600080fd5b506104646004803603604081101561042e57600080fd5b8101908080359060200190929190803573ffffffffffffffffffffffffffffffffffffffff169060200190929190505050611a95565b005b34801561047257600080fd5b5061047b611ba9565b604051808260ff16815260200191505060405180910390f35b3480156104a057600080fd5b506104ed600480360360408110156104b757600080fd5b8101908080359060200190929190803573ffffffffffffffffffffffffffffffffffffffff169060200190929190505050611bbc565b005b3480156104fb57600080fd5b506105486004803603604081101561051257600080fd5b81019080803573ffffffffffffffffffffffffffffffffffffffff16906020019092919080359060200190929190505050611ce0565b005b34801561055657600080fd5b506105996004803603602081101561056d57600080fd5b81019080803573ffffffffffffffffffffffffffffffffffffffff169060200190929190505050611fa7565b6040518082815260200191505060405180910390f35b3480156105bb57600080fd5b506105e8600480360360208110156105d257600080fd5b8101908080359060200190929190505050610995565b005b3480156105f657600080fd5b5061062d6004803603604081101561060d57600080fd5b810190808035906020019092919080359060200190929190505050611fbf565b604051808273ffffffffffffffffffffffffffffffffffffffff16815260200191505060405180910390f35b34801561066557600080fd5b506106b26004803603604081101561067c57600080fd5b8101908080359060200190929190803573ffffffffffffffffffffffffffffffffffffffff169060200190929190505050612074565b60405180821515815260200191505060405180910390f35b3480156106d657600080fd5b506106df612129565b6040518080602001828103825283818151815260200191508051906020019080838360005b8381101561071f578082015181840152602081019050610704565b50505050905090810190601f16801561074c5780820380516001836020036101000a031916815260200191505b509250505060405180910390f35b34801561076657600080fd5b5061076f6121c7565b6040518082815260200191505060405180910390f35b34801561079157600080fd5b506107de600480360360408110156107a857600080fd5b81019080803573ffffffffffffffffffffffffffffffffffffffff169060200190929190803590602001909291905050506121ce565b60405180821515815260200191505060405180910390f35b34801561080257600080fd5b5061082f6004803603602081101561081957600080fd5b8101908080359060200190929190505050612267565b6040518082815260200191505060405180910390f35b61084d610998565b005b34801561085b57600080fd5b50610864612311565b6040518082815260200191505060405180910390f35b34801561088657600080fd5b506108d36004803603604081101561089d57600080fd5b8101908080359060200190929190803573ffffffffffffffffffffffffffffffffffffffff169060200190929190505050612335565b005b3480156108e157600080fd5b5061090e600480360360208110156108f857600080fd5b8101908080359060200190929190505050612449565b005b34801561091c57600080fd5b5061097f6004803603604081101561093357600080fd5b81019080803573ffffffffffffffffffffffffffffffffffffffff169060200190929190803573ffffffffffffffffffffffffffffffffffffffff16906020019092919050505061244c565b6040518082815260200191505060405180910390f35b50565b6109c47fb39d9f2e1c013ed1b9aec8d203a271a66efc5d3869b1b5d4f45d0f49f5a813d060001b610995565b6109f07f31423a6a47c1a762d233ef8255b3de88b9c499e550727533c0063043166fdd8760001b610995565b610a1c7f7ac3f5418f6c9aa1e2ffa852bac5664d6ac6339b88649d0673e2f78f947ff03b60001b610995565b34600460003373ffffffffffffffffffffffffffffffffffffffff1673ffffffffffffffffffffffffffffffffffffffff16815260200190815260200160002060008282540192505081905550610a957f4ecfa18e1f46f5b9498fb356371c2968f502ff2874f127130c904b666c87feea60001b610995565b610ac17f7c9b44d0b438bb7ca51a38610d0b650d967ddd5ccc65a7bc3088a2fda7d3202f60001b610995565b3373ffffffffffffffffffffffffffffffffffffffff167fe1fffcc4923d04b559f4d29a8bfc6cda04eb5b0d3c460751c2402c5c5cc9109c346040518082815260200191505060405180910390a2565b60018054600181600116156101000203166002900480601f016020809104026020016040519081016040528092919081815260200182805460018160011615610100020316600290048015610ba75780601f10610b7c57610100808354040283529160200191610ba7565b820191906000526020600020905b815481529060010190602001808311610b8a57829003601f168201915b505050505081565b6000610bdd7f4263195523eb26db0f467b29451fb6d99426eeb213f106d7a0e9afdc3df78a8660001b610995565b610c097f841026df0d9e683499918a5c6924b651c2ae0a70cac49e27f29b46276c6495e160001b610995565b610c357f5bbe1eb8547d71a1eee05d57e9b95a5ca496a71593c73dce426dea1ce10e07f060001b610995565b81600560003373ffffffffffffffffffffffffffffffffffffffff1673ffffffffffffffffffffffffffffffffffffffff16815260200190815260200160002060008573ffffffffffffffffffffffffffffffffffffffff1673ffffffffffffffffffffffffffffffffffffffff16815260200190815260200160002081905550610ce27f672ade0088d64fe0e81b44c56ccdfac8eacb2b874f1f0f1fdc7a084927822dfb60001b610995565b610d0e7f9378653db6f6a5fd2c8eb105163b5ab585011714cb3df8248904c625e0b0523560001b610995565b8273ffffffffffffffffffffffffffffffffffffffff163373ffffffffffffffffffffffffffffffffffffffff167f8c5be1e5ebec7d5bd14f71427d1e84f3dd0314c0f7b2291e5b200ac8c7c3b925846040518082815260200191505060405180910390a3610d9f7f5728ea70e20e2c1e96a60e3462bfc3cff4acab84bdbf6337cb367e8d3a32008960001b610995565b610dcb7f4c08d00e2ce6d4ab31d6de46c522ea71495522b5253a9de6f97b261da8d6aa4e60001b610995565b6001905092915050565b6000610e037fe6cf5c616d4affcf19143cbd559c5a3f4a2ca0f3d625cfc028cdbcaef610e38860001b610995565b610e2f7f88dc927bb7f69c97ff8df5dc33b1735cf83b49bf7a3af53add68c54feef6151c60001b610995565b610e5b7f52d00f95a2e83cda6bf42d4a758980fb1acd1b2cb1d67a1069de9976c189cb4960001b610995565b47905090565b6000610e8f7fca09cb3db97d82692e7ba0da0b7a3fa88640147b69225d0aacb998a3d43bc07560001b610995565b610ebb7ff2c7a4ce9e8f0584f362c1a6b0f5eb115e57313630a8a8df9d9f77cdf9ffd0ea60001b610995565b610ee77f137e34ea1d720e2d19e9e16ff8b52b44c9ebb9ef40b7575d64aad54ab724883660001b610995565b610f137fef5ac26789d11cad07415776fa13c3de3a7eb12fb085ef0075a3b1feca2ac39260001b610995565b81600460008673ffffffffffffffffffffffffffffffffffffffff1673ffffffffffffffffffffffffffffffffffffffff168152602001908152602001600020541015610fc8576040517f08c379a00000000000000000000000000000000000000000000000000000000081526004018080602001828103825260148152602001807f494e53554646494349454e545f42414c414e434500000000000000000000000081525060200191505060405180910390fd5b610ff47f4946e00e99755333994bc297317514e67023cbbbc2254534827d200a2bcfd00760001b610995565b6110207f4f55f97f9d66f2e4170c39a4558d4a9c8324ad2a2a9d6353aac5d30e4beb8aa160001b610995565b61104c7f0dd156849931f048284ca209f69c5eca64cc29d90df2e5a5df9114a68347152560001b610995565b3373ffffffffffffffffffffffffffffffffffffffff168473ffffffffffffffffffffffffffffffffffffffff161415801561112457507fffffffffffffffffffffffffffffffffffffffffffffffffffffffffffffffff600560008673ffffffffffffffffffffffffffffffffffffffff1673ffffffffffffffffffffffffffffffffffffffff16815260200190815260200160002060003373ffffffffffffffffffffffffffffffffffffffff1673ffffffffffffffffffffffffffffffffffffffff1681526020019081526020016000205414155b156113de576111557fba5c4ed03ef6cd3451b106e98493c210bcf21c50009e4426e79f673f9e27e37460001b610995565b6111817fb74cca3a3a1e8e18aa0dace55c9909bff68a7eb85d704a41b6b5e73cdcde7a7c60001b610995565b6111ad7fd2dd8cc9e46fced711a0c3000dffaada43052e81ea9f24369c1d81d255e988fe60001b610995565b6111d97f5556397a9e4d481499fe07958e81efad0fa94e215b7e85996af876f153ea1de360001b610995565b81600560008673ffffffffffffffffffffffffffffffffffffffff1673ffffffffffffffffffffffffffffffffffffffff16815260200190815260200160002060003373ffffffffffffffffffffffffffffffffffffffff1673ffffffffffffffffffffffffffffffffffffffff1681526020019081526020016000205410156112cb576040517f08c379a00000000000000000000000000000000000000000000000000000000081526004018080602001828103825260168152602001807f494e53554646494349454e545f414c4c4f57414e43450000000000000000000081525060200191505060405180910390fd5b6112f77f662090bdaa4484c31091f1091d8072223005113108677b9c8e8baa2cdda97e3c60001b610995565b6113237f9d907d70c20468cb63770e7c5a632c0ae35c2d4e1de8e2e4a4fac6c816b8ea8e60001b610995565b61134f7f9a00f33d7454b0b09c4cb04b29c88cdae3f49935260c222ecd2060274e1fad5960001b610995565b81600560008673ffffffffffffffffffffffffffffffffffffffff1673ffffffffffffffffffffffffffffffffffffffff16815260200190815260200160002060003373ffffffffffffffffffffffffffffffffffffffff1673ffffffffffffffffffffffffffffffffffffffff1681526020019081526020016000206000828254039250508190555061140b565b61140a7fe90f088aef25620a0295c37ba71f9b13b6a90dc696e67ff7b797b74b2f456aec60001b610995565b5b6114377f38bbe947fba5fe2d4c8b413f5cc16ed4e0759cde2889cc3887390f59460b3f3160001b610995565b6114637f471095ff0ef35a2cc7cc4a0cf3bae47bca088ffd2111157c201a4052e5204de960001b610995565b81600460008673ffffffffffffffffffffffffffffffffffffffff1673ffffffffffffffffffffffffffffffffffffffff168152602001908152602001600020600082825403925050819055506114dc7fe6fd68c8703c6608772467300f23bb24bf133f4c1852611f4f2d615f518da65c60001b610995565b6115087f0f7a4b5bd2789dffd1fcb7c894c123c805073ca20b740031cb654a52e51901a660001b610995565b81600460008573ffffffffffffffffffffffffffffffffffffffff1673ffffffffffffffffffffffffffffffffffffffff168152602001908152602001600020600082825401925050819055506115817f477389a475b2174776847b4e5c4523d04d8ad75552803515f2d474bd45f3ad7d60001b610995565b6115ad7f04c7dfec528369d4b93428d8375774505dd1198cc80b3f65a99303f7c83c992260001b610995565b8273ffffffffffffffffffffffffffffffffffffffff168473ffffffffffffffffffffffffffffffffffffffff167fddf252ad1be2c89b69c2b068fc378daa952ba7f163c4a11628f55a4df523b3ef846040518082815260200191505060405180910390a361163e7f16b59db9200138106997f12a15d005c4df995345dce062d3bd1f8d1694195c4960001b610995565b61166a7ff175152e3d7c73937b8282527cbc451d344d4912b4efbcb966600b70dd3fdf1360001b610995565b600190509392505050565b60006116a37f51aa7edb5505deeea0cb5fb3a6010bc3b35cd1071cfd4fb486c4629f5bba3de960001b612449565b6116cf7fdc383928dbbcf63370878d0d10a3f1650cb50798e1741546328a670df7237d3860001b612449565b6116fb7f67c49991d15124063ffaa4cf801b1438fb94a13ed2cf3dbe473ab1f81d842c9660001b612449565b600080838152602001908152602001600020600201549050919050565b6117447f2b49b414390eedb94b0fb2ac60aa493260ccded3e10bf0af51ee3dc625eed21f60001b610995565b6117707fe75251c3c735e67f767f65f4f359ea8176e7d5eba4c756d25d2c3e6166efd1cd60001b610995565b61179c7f3997b82f73fc6f8386e418e5aef65cff36ef54041cbc96711e59d3089923af5860001b610995565b6117c87f4df158bf65271c983b0809ec0c698746c3c319692cbb9c503926878f8e0faa7060001b610995565b80600460003373ffffffffffffffffffffffffffffffffffffffff1673ffffffffffffffffffffffffffffffffffffffff16815260200190815260200160002054101561187d576040517f08c379a00000000000000000000000000000000000000000000000000000000081526004018080602001828103825260148152602001807f494e53554646494349454e545f42414c414e434500000000000000000000000081525060200191505060405180910390fd5b6118a97f04727e01e9acca5ef78276517b657eb4ea139b6a200c1358ace5de70049791a060001b610995565b6118d57fafc74c1d0596a5a98b878f3434b4aed05460001bd13ec0e94bad3e51747b28b560001b610995565b6119017faf438b65411421ce8317f975998509805a75d9f21d3f0c631116f31df7fd3c6960001b610995565b80600460003373ffffffffffffffffffffffffffffffffffffffff1673ffffffffffffffffffffffffffffffffffffffff1681526020019081526020016000206000828254039250508190555061197a7f94331cd6542d9e9e86ffc27eedf36c80d954d5b1318b4e90c4e05d9191009ed460001b610995565b6119a67f41b6cb3cb74d5da8162812516f8d5014dd1441d8d38d0cef6a0a3f5f377992c160001b610995565b3373ffffffffffffffffffffffffffffffffffffffff166108fc829081150290604051600060405180830381858888f193505050501580156119ec573d6000803e3d6000fd5b50611a197f2f40d8fbdc8d908c24c9506b61e4e5c745f8583af651cde9d81e2c8e36749a9260001b610995565b611a447e32e7d33b34e03a7fca911eed4b6c2887db0e1a225e643e037837178bc7bd6c60001b610995565b3373ffffffffffffffffffffffffffffffffffffffff167f7fcf532c15f0a6db0bd6d0e038bea71d30d808c7d98cb3bf7268a95bf5081b65826040518082815260200191505060405180910390a250565b611ac17fc78b162ea786e2338aa4e5dbc19638e48121407781d6e9247245ad7f5747023560001b612449565b611aed7f78a19f66178108ee70c961f2274f93b5e6bfcc6691e6c5788e62391cc0433c5d60001b612449565b611b197fbbd96f53722a539cbf5e4671cecf2ba967410cadfae5ba4971fd8ece680c805b60001b612449565b611b43611b3b6000808581526020019081526020016000206002015433612074565b6101a6612783565b611b6f7f2bac020fca4188ce2d008ae3c16d156985827422032fe786b3adeae69bf4916960001b612449565b611b9b7f0ee819179cd842c06996000022c5e06c827d7163a5e67fd6f38ac0a1acb4e4d760001b612449565b611ba58282612796565b5050565b600360009054906101000a900460ff1681565b611be87f2e86aa2b15ca35c6a7c0edcdbe55a054ac522079a8ecb0179ee828c9d27bfeb160001b612449565b611c147f16792dff6bb231a4776dedd9fac1862c3c19a99260d8b22cbdb5c7f5fc6fc0a260001b612449565b611c407ffd262aee4455b2bcc6a0731f302bc8c2653330a035f7845aaa685f7483e0d32960001b612449565b611c7a3373ffffffffffffffffffffffffffffffffffffffff168273ffffffffffffffffffffffffffffffffffffffff16146101a8612783565b611ca67fb34caa5499d9ace6d10394a77c9fee7b4a408b7187941c8b978c751316a9b9ed60001b612449565b611cd27f30343b4f84d87e793dab264399f7e2e5cb1a3e5dc0536bf5374c9676e12bb48360001b612449565b611cdc828261295a565b5050565b611d0c7f6c3b888a47cbc3fc616ca76d28b0481f8b87f504e5aa05ca144819a11423c3b560001b610995565b611d387f3d76649fc2a2595f37b44c8d262dfb1daa0411132ce17fd05822329c94e69fe960001b610995565b611d647f63af7b5b5baa5cd234852b45b44042d49fc5a59bdbdd8c5d27ad42ca6912986660001b610995565b611d907f48bce7c88b489e8ef98be8aa096ed40ab6dfe3796aa51363bbeefecdaa7772cc60001b610995565b611dba7f9f2df0fed2c77648de5860a4cc508cd0818c85b8b8a1ab4ceeef8d981c8956a633612074565b611e2c576040517f08c379a000000000000000000000000000000000000000000000000000000000815260040180806020018281038252600a8152602001807f4e4f545f4d494e5445520000000000000000000000000000000000000000000081525060200191505060405180910390fd5b611e587fb4678da0340368049e779f40c4beae3c0b3ebe7f9ed6da3afc47b97535010bd160001b610995565b611e847ff16d4217a099b030c08ee1a01550853827313498b0f553c58f825a406734f2a460001b610995565b611eb07ff2b18aa2d7c4405b5a760464e984155dc6ba14e4243695186d7e81b44b63c80960001b610995565b80600460008473ffffffffffffffffffffffffffffffffffffffff1673ffffffffffffffffffffffffffffffffffffffff16815260200190815260200160002060008282540192505081905550611f297f2062a041e75872cbde8c801f55f130d5f02631b8992d6d57e1777829084e1d0f60001b610995565b611f557f56b7dcc0a9583b94b042439aac05674c88c15bd55c88e45235029ed4a8d68f8960001b610995565b8173ffffffffffffffffffffffffffffffffffffffff167fe1fffcc4923d04b559f4d29a8bfc6cda04eb5b0d3c460751c2402c5c5cc9109c826040518082815260200191505060405180910390a25050565b60046020528060005260406000206000915090505481565b6000611fed7f57d7b366536f79a279a68d74e7de8fd6d51fc6594af14cd933d649578893023260001b612449565b6120197f7322be3cf7015ce0a554e84c5b2c435f64c0d49b149da4cf8780f351d2fd90fe60001b612449565b6120457f10e5ad76a373f35b6dfdb58daf899e014bbd56c5bf88bb3834eed6afc3d63c7b60001b612449565b61206c82600080868152602001908152602001600020600001612b1f90919063ffffffff16565b905092915050565b60006120a27fa69d7b3ebeec899df5208e49cd31d555848a2b4a20f2483427d71719fe7a699760001b612449565b6120ce7ff1131ab69edfbcf13fc275f987fa1069aa79a9070b93cdf308400945b1dbefb960001b612449565b6120fa7f2a84aa1f37b1e37f9fcafdc9e74b0df2b3f43665873922a91092570cd456cc8260001b612449565b61212182600080868152602001908152602001600020600001612c2390919063ffffffff16565b905092915050565b60028054600181600116156101000203166002900480601f0160208091040260200160405190810160405280929190818152602001828054600181600116156101000203166002900480156121bf5780601f10612194576101008083540402835291602001916121bf565b820191906000526020600020905b8154815290600101906020018083116121a257829003601f168201915b505050505081565b6000801b81565b60006121fc7fa69cae1572c773b82073513a375333efd2863c13ccf182e4ab68e5e4d69cde4560001b610995565b6122287fea2e5597dccaa5a225aa979fd080c5ac0dc46eebfa974579b63b10c2d7f2590760001b610995565b6122547f6b8947a9deff21e8ba9a8467a9fc5810a31a1f14ce71f2280383607ecc789f3260001b610995565b61225f338484610e61565b905092915050565b60006122957f17953f3748fa535a44e6e064a67fad2fb4dc03da6bff3d8327a0482fd48aecc160001b612449565b6122c17f4934f359a05bd7d010a85abca4a7415717ba35866016438812d1f5bf4ef278b760001b612449565b6122ed7fb4864c4a61c86b1d5a03e217701e5dbac3f33179232781c804dbfe48528f8d0060001b612449565b61230a600080848152602001908152602001600020600001612cf7565b9050919050565b7f9f2df0fed2c77648de5860a4cc508cd0818c85b8b8a1ab4ceeef8d981c8956a681565b6123617f90c709b4c4a82f05db6c21be3ea3965906541d03e5a2fdb60acec08f5a04876660001b612449565b61238d7fd39abfed775dbd576722a87b138fe9c47938064e7e3b1200dfede6814438a1be60001b612449565b6123b97f45f596140dca99a6b0135da14dadfa80351b24c84de75f1515ec2c8f04bc42ff60001b612449565b6123e36123db6000808581526020019081526020016000206002015433612074565b6101a7612783565b61240f7fc84e89cb6c299b98faa20ccdcb3bb0174d499cbac21ae2eaa6d021b519bb766760001b612449565b61243b7f646926471e52efc7de9aaf737f44b91c67de043be1d2f5419e468fa189d268f560001b612449565b612445828261295a565b5050565b50565b6005602052816000526040600020602052806000526040600020600091509150505481565b600061249f7fa61e67e0cc7cbf6dca1bad9e89d180e8919dcf916304a64f2ec6ececcc9d912c60001b612d8c565b6124cb7ff89557b3cf564068446efd7c55bd51b9e70fd436a35c6473f15adcd344506c6360001b612d8c565b6124f77f26e85b743bb6b8312020797ab3e5ba6fc2d859a42fcf75a48659099e1275492260001b612d8c565b6125018383612c23565b6126f4576125317f7ef22654169904189010f597963bd507ba7347b8740691b4476cd67f49124e0e60001b612d8c565b61255d7f882135caf4af84c0e1bca9f79eea9de8f5065751adebffaa162d1be7bcd8971360001b612d8c565b6125897fd4763463e71726a43c654b8dbf128677d7b43a0ca60ea4949f53372a7348c9d560001b612d8c565b82600001829080600181540180825580915050600190039060005260206000200160009091909190916101000a81548173ffffffffffffffffffffffffffffffffffffffff021916908373ffffffffffffffffffffffffffffffffffffffff16021790555061261a7fa3e2b33e886959093c6a0b3f0486c0415a5942638d5f7962dcbafebe762b71fc60001b612d8c565b6126467fe7ef27addeab499367a977ce9fbac58dab6cba8562530386e737575a2e06c7e860001b612d8c565b82600001805490508360010160008473ffffffffffffffffffffffffffffffffffffffff1673ffffffffffffffffffffffffffffffffffffffff168152602001908152602001600020819055506126bf7faae9952f0993be4f6477e9e870423701d8eedd54d02232ff8d5bf0ccd05d7c5c60001b612d8c565b6126eb7f6698fc4e1ad3506204b6591cbea4a9516be140780c6e774821ba525a78253a7660001b612d8c565b6001905061277d565b6127207fcfe8799fec11d89ab8dc9f688739444327c48b7f0801c28255d98ea5e02ef43c60001b612d8c565b61274c7fba7632cc0dabc22b2074585c4ae9fab51e277fd8f67164d832f32dc57620662c60001b612d8c565b6127787f86d37e5e32f04f1f5e60b0076fa21ce47f5fe546d5c5f7bacc1ccde7ded1557160001b612d8c565b600090505b92915050565b816127925761279181612d8f565b5b5050565b6127c27fa51bf1f60f57d67315e8884ee58ac1ea4a304657da288266decfa22e74c3937560001b612449565b6127ed7e7c1a64dd7716987aa76054a1f7dd56fa1c2b36f6c45fa7943a13e90f37825e60001b612449565b6128197f41ea7c6e64095ee090947f606bea526c0cce3a45dd42ddbe13950f7d1fe2c8d860001b612449565b6128408160008085815260200190815260200160002060000161247190919063ffffffff16565b15612929576128717f4999465fe92e467acd8859d26ce1033e7439225e7e5cf63a3d6c764bd373691d60001b612449565b61289d7f2d494cddfc92440255f338981f92e2b818d331c209eb380840bfd2a99625d33560001b612449565b6128c97f065c6071bb14d3623c8cfba8dcf3686b45cc19a1e2925804ab4cd79f9745f0c360001b612449565b3373ffffffffffffffffffffffffffffffffffffffff168173ffffffffffffffffffffffffffffffffffffffff16837f2f8788117e7eff1d82e926ec794901d17c78024a50270940304540a733656f0d60405160405180910390a4612956565b6129557fa294dbc9ecdd4d04f237949c2ce87f3fb306d5206d8129f0cd0ed303c7231fe960001b612449565b5b5050565b6129867ff08b422c4fa3cd2d05d0f79bba2040f7677effd1f0bfb828d42cbbe0bd3cca2960001b612449565b6129b27fef4547db85b01fa12c49a7735fc207e6e417a1c4937d6ffa8bbf9b5362b0a60160001b612449565b6129de7f8c1cffa53f308ac985ccd89dd9360245e76e6801a76ef3b1f2b189ab163c480e60001b612449565b612a0581600080858152602001908152602001600020600001612dff90919063ffffffff16565b15612aee57612a367f48a57a7e50b12d8cb49bbc5a6c7e92de667cabf3738b4a4bd5df13d4beb86eaf60001b612449565b612a627fb4e5e9b7052937e8c7669065c903576884778c8a86ebc94d960cb7b3e85928cc60001b612449565b612a8e7f456b21ecc80d7e72404d3b5ca47be9dddd4fbef016150240ccd90bd56bc5f50160001b612449565b3373ffffffffffffffffffffffffffffffffffffffff168173ffffffffffffffffffffffffffffffffffffffff16837ff6391f5c32d9c69d2a47ea670b442974b53935d1edc7fd64eb21e047a839171b60405160405180910390a4612b1b565b612b1a7f7d448b1cf94e4b5d43b6afacf98c2cec8306756c11242339b0a4c4fb195ebeba60001b612449565b5b5050565b6000612b4d7f9d0813249b78d52940fb0ceae8c1b3e2a9e0b78ceffb84cfa07fccf241bd336d60001b612d8c565b612b797fc76ab52fa92083b4597cbfd21546d854654e8b07a13617a0db3e60d98c4f070560001b612d8c565b612ba57f2f87846f46cea34a3095c76293ec978d986cd62c2d81c1b23b5ac315bf78297f60001b612d8c565b612bb9828460000180549050116064612783565b612be57f75d0e57c9f5fce2526789f824d6ff6f473d6678b53ab38a26f6fe10f8ca6b36a60001b612d8c565b612c117ffc3ec3a81a6b7e51ff2c90373668f56b10b90d47fe2efa27a277bc351e424d4b60001b612d8c565b612c1b8383613405565b905092915050565b6000612c517f2a5d65fff1f3b500c215582deba6caa0a91f9fecacf06c3d1ecbe4a353637b7f60001b612d8c565b612c7d7f071b014040d1e21aadcee71b3fa973b0b60209eed08df4506d97e4c5e7caad9660001b612d8c565b612ca97fd1bb3b7f1b236199263b084954b3e62036402ccb0ddcaf72318b313ffef4b57660001b612d8c565b60008360010160008473ffffffffffffffffffffffffffffffffffffffff1673ffffffffffffffffffffffffffffffffffffffff168152602001908152602001600020541415905092915050565b6000612d257fc9f1c13d3b7ffb1c19f7cfa243a63f58528679ecf95e622a88bb4be7a73ace5b60001b612d8c565b612d517fea5266949dda251a388224c9bd7fdc3d5f9304642f1db5cedc5d2ebea799880a60001b612d8c565b612d7d7f6ca40e534a9a06091edf7c0dd43aa090061df70577cca7c0d6c866814a54adf260001b612d8c565b81600001805490509050919050565b50565b6030600a820601600a820491506030600a830601600a830492506030600a8406018060101b8260081b8401016642414c230000000160c81b7f08c379a000000000000000000000000000000000000000000000000000000000600052602060045260076024528060445260646000fd5b6000612e2d7f60360cb80450f90dca8f7596990395902f85edfd112363ac56e99a70d1c863c060001b612d8c565b612e597fb60110ae50a59c66fb7625a77bfb8c9e7b0f2afbf800673f9f3d7d08647fe0a260001b612d8c565b612e857fa8c08625683a3fde50f623359bc802b13ed77566fab37ec10e7802ad441eeaaa60001b612d8c565b60008360010160008473ffffffffffffffffffffffffffffffffffffffff1673ffffffffffffffffffffffffffffffffffffffff168152602001908152602001600020549050612ef77f8f14dd7185bade4fbaf3ec52618955bf2ba16694730a466f7bed4d88c8cf151860001b612d8c565b612f237f7ec56a643584d76d718a7d9f7de9b49223bb15c498ce9811a1c1c6bae374bb1260001b612d8c565b6000811461337557612f577f54e3323bab9c9a28462c0c60719c84a2fb9c46bd5a6126b4c02209c8ad0a9db760001b612d8c565b612f837f2915b8cb3fee02ba26f5cc4960264dad315835883b41e392273203d13f62692860001b612d8c565b612faf7f2619ddec270c27e460e75279b1d13238cc87158793f17c34d8268db7ce905aa860001b612d8c565b6000600182039050612fe37f23aa40dfe98d77dcf83c0f3447327149d46db63ae1b65412bb510b1e739c706160001b612d8c565b61300f7fce66f357c6cf62df27eef42dbd39f43e30422243bf1535c1c96557caa4f6d4ad60001b612d8c565b60006001866000018054905003905061304a7f5e6589743f7b5aa70bf0f4c46358b8fb164794c4ee8c9469479cb8bccea04ccb60001b612d8c565b6130767f991ac8e08d62fb0379c14f1be0fea4d485720eb7d0fda04ee260c05ac967818660001b612d8c565b600086600001828154811061308757fe5b9060005260206000200160009054906101000a900473ffffffffffffffffffffffffffffffffffffffff1690506130e07fa0339aa0a45b127e0ea16783301288eab4abc5119c5decd959d2e13bf0ec9d3a60001b612d8c565b61310c7f6847b65b64b90f9f00a3c430dc90b6075e5c0a5c1d0b7031aae58227b5a5817560001b612d8c565b8087600001848154811061311c57fe5b9060005260206000200160006101000a81548173ffffffffffffffffffffffffffffffffffffffff021916908373ffffffffffffffffffffffffffffffffffffffff1602179055506131907fbe8de5f3ecba12364fc1fb068521b0957b3c3228a8736c23b5df72bd2882891b60001b612d8c565b6131bc7fd6e0c3fa67a72620040161ed86392ddbf25f2defabc1318f4c641af9bd64785f60001b612d8c565b600183018760010160008373ffffffffffffffffffffffffffffffffffffffff1673ffffffffffffffffffffffffffffffffffffffff168152602001908152602001600020819055506132317f67dd655845a9442de63cd1dec75a340dc77a0018bc6acc998db7f99965ca936160001b612d8c565b61325d7f68d4cd3d6a46a404070195471aafe2a32cadc8c3e948ad009f63c25ba60fbd2f60001b612d8c565b8660000180548061326a57fe5b6001900381819060005260206000200160006101000a81549073ffffffffffffffffffffffffffffffffffffffff021916905590556132cb7f2c3d6625f2ef19932e8c197b4f2525f61866ec8f73af85df86d3cb173795691060001b612d8c565b8660010160008773ffffffffffffffffffffffffffffffffffffffff1673ffffffffffffffffffffffffffffffffffffffff1681526020019081526020016000206000905561333c7f6df4bc64c873a8e9e5edb97d4a5c4c22124b96b69cb0c65b01c274fe539123fb60001b612d8c565b6133687f4ce56017dd41dc018e1e2c3a431bd00c36d45ac8cad9b883db5682c0063baa3560001b612d8c565b60019450505050506133ff565b6133a17f6bfb2bb3a18b1247263db63fcb038e5b782731869a53ec337cceab242d2b78f160001b612d8c565b6133cd7f4fd44efdd0da82f4376a50124fc87e5879f1d42976b3b4ca40ac41209ce775ec60001b612d8c565b6133f97f75144fd471a5e1976594dc257e4c49fc7d0d6d1d2015d157dbf9eed14da4063060001b612d8c565b60009150505b92915050565b60006134337f5611b85ecce1b851e37a51d72c085e743f60f19c035ff687dcee7df4674b3bfe60001b612d8c565b61345f7f2202d92a05653ad78516520d47faaa842d192fb8aee9fdfc8a5e3e39a74900e860001b612d8c565b61348b7ff499d07d00fefdbc0ea81915e115c016bd881d72dc5c4ae314e7f5105cb8dfe960001b612d8c565b82600001828154811061349a57fe5b9060005260206000200160009054906101000a900473ffffffffffffffffffffffffffffffffffffffff1690509291505056fea2646970667358221220185be2bc88cbf4d46c20513056da747c038a47cc65273db07f32e2e17808e54164736f6c63430007010033",
  "linkReferences": {},
  "deployedLinkReferences": {}
}