{
  "_format": "hh-sol-artifact-1",
  "contractName": "StablePoolFactory",
  "sourceName": "contracts/balancer-core-v2/pools/stable/StablePoolFactory.sol",
  "abi": [
    {
      "inputs": [
        {
          "internalType": "contract IVault",
          "name": "vault",
          "type": "address"
        }
      ],
      "stateMutability": "nonpayable",
      "type": "constructor"
    },
    {
      "anonymous": false,
      "inputs": [
        {
          "indexed": true,
          "internalType": "address",
          "name": "pool",
          "type": "address"
        }
      ],
      "name": "PoolCreated",
      "type": "event"
    },
    {
      "inputs": [
        {
          "internalType": "bytes32",
          "name": "c__0x5eae7510",
          "type": "bytes32"
        }
      ],
      "name": "c_0x5eae7510",
      "outputs": [],
      "stateMutability": "pure",
      "type": "function"
    },
    {
      "inputs": [
        {
          "internalType": "bytes32",
          "name": "c__0x75a1cbac",
          "type": "bytes32"
        }
      ],
      "name": "c_0x75a1cbac",
      "outputs": [],
      "stateMutability": "pure",
      "type": "function"
    },
    {
      "inputs": [
        {
          "internalType": "bytes32",
          "name": "c__0xe36adca8",
          "type": "bytes32"
        }
      ],
      "name": "c_0xe36adca8",
      "outputs": [],
      "stateMutability": "pure",
      "type": "function"
    },
    {
      "inputs": [
        {
          "internalType": "string",
          "name": "name",
          "type": "string"
        },
        {
          "internalType": "string",
          "name": "symbol",
          "type": "string"
        },
        {
          "internalType": "contract IERC20[]",
          "name": "tokens",
          "type": "address[]"
        },
        {
          "internalType": "uint256",
          "name": "amplificationParameter",
          "type": "uint256"
        },
        {
          "internalType": "uint256",
          "name": "swapFeePercentage",
          "type": "uint256"
        },
        {
          "internalType": "address",
          "name": "owner",
          "type": "address"
        }
      ],
      "name": "create",
      "outputs": [
        {
          "internalType": "address",
          "name": "",
          "type": "address"
        }
      ],
      "stateMutability": "nonpayable",
      "type": "function"
    },
    {
      "inputs": [],
      "name": "getPauseConfiguration",
      "outputs": [
        {
          "internalType": "uint256",
          "name": "pauseWindowDuration",
          "type": "uint256"
        },
        {
          "internalType": "uint256",
          "name": "bufferPeriodDuration",
          "type": "uint256"
        }
      ],
      "stateMutability": "view",
      "type": "function"
    },
    {
      "inputs": [],
      "name": "getVault",
      "outputs": [
        {
          "internalType": "contract IVault",
          "name": "",
          "type": "address"
        }
      ],
      "stateMutability": "view",
      "type": "function"
    },
    {
      "inputs": [
        {
          "internalType": "address",
          "name": "pool",
          "type": "address"
        }
      ],
      "name": "isPoolFromFactory",
      "outputs": [
        {
          "internalType": "bool",
          "name": "",
          "type": "bool"
        }
      ],
      "stateMutability": "view",
      "type": "function"
    }
  ],
  "bytecode": "0x60c06040523480156200001157600080fd5b5060405162016a3838038062016a38833981810160405281019062000037919062000210565b806200006c7ff1b853c90de5ec8f2626b291240c0329ab402bf7285c35364e855b314f3e25cf60001b620001f060201b60201c565b620000a07f8f172e65181491b962547d22107d011eea6571c30ea82e2f64ceeb978d54a64260001b620001f060201b60201c565b620000d47fdb7e6aecacee55715d6d3167a7dc2cd5d18ed5dc0082172394bf52850f5a54d160001b620001f060201b60201c565b8073ffffffffffffffffffffffffffffffffffffffff1660808173ffffffffffffffffffffffffffffffffffffffff1660601b8152505050620001407f466137b22d0c7dd98c368f073da2069606214008c595943cffc159df242812f960001b620001f360201b60201c565b620001747f3489a113de9124b0929876167b6198fb735181de2da5af2333e46d37805e72d960001b620001f360201b60201c565b620001a87f4997d55b258e281d386832b71c4b1f39dfbfc9b60de5200bff4353f97009118560001b620001f360201b60201c565b6276a700420160a08181525050620001e97f0c6c7d6511c50a4d409e267f42e3d454c9dfc85844064ace51a2c9d84e14a11960001b620001f660201b60201c565b506200029e565b50565b50565b50565b6000815190506200020a8162000284565b92915050565b6000602082840312156200022357600080fd5b60006200023384828501620001f9565b91505092915050565b6000620002498262000264565b9050919050565b60006200025d826200023c565b9050919050565b600073ffffffffffffffffffffffffffffffffffffffff82169050919050565b6200028f8162000250565b81146200029b57600080fd5b50565b60805160601c60a0516201676c620002cc60003980610296528061034a52508061085752506201676c6000f3fe60806040523480156200001157600080fd5b5060043610620000875760003560e01c80632da47c4011620000635780632da47c4014620000ec5780636634b753146200010f5780637932c7f314620001455780638d928af8146200017b5762000087565b8062e94d34146200008c57806308ed56a514620000ac5780630b2d350f14620000cc575b600080fd5b620000aa6004803603810190620000a4919062000b7e565b6200019d565b005b620000ca6004803603810190620000c4919062000b7e565b620001a0565b005b620000ea6004803603810190620000e4919062000b7e565b620001a3565b005b620000f6620001a6565b6040516200010692919062000eb0565b60405180910390f35b6200012d600480360381019062000127919062000b52565b620004c8565b6040516200013c919062000dc2565b60405180910390f35b6200016360048036038101906200015d919062000baa565b620005a7565b60405162000172919062000da5565b60405180910390f35b62000185620007c9565b60405162000194919062000ddf565b60405180910390f35b50565b50565b50565b600080620001d77f4664d8b33c13761858c67ee8bea76f7b1064ee802e1435539fce3982a26d188a60001b620001a0565b620002057f293351dddbc71cd54a76813b9156ef540fe941bd394894b049c2c4d9fc9f66da60001b620001a0565b620002337f634219e96c792fc85a2199cdb6b8be542fa4f63f7082679cd4e766e10a37a0c260001b620001a0565b6000429050620002667f6ac902c79dba6a085cf45bd6deb709ea65276123acd51adbceb04e5af6c8ad7c60001b620001a0565b620002947f2d145d6374c9c442c5e973195b846848213a25adca787ac5fcf199ddb8da448660001b620001a0565b7f0000000000000000000000000000000000000000000000000000000000000000811015620003d457620002eb7ff847546271070d177581854ac34d1bd55a6d3c5b182bf07e94a1660880afd5ab60001b620001a0565b620003197fb05464517a60bbe056900fdc2dc51625fca528157aeee13875a9399015a6d0f360001b620001a0565b620003477f3e7d864508a0837b8d0647223f82fe15bea6dab55ee5c1852a06bc70b6b0032b60001b620001a0565b807f00000000000000000000000000000000000000000000000000000000000000000392506200039a7f58fd67b979cf09091c02422daaa2dd3b003fa661d9131c07939fa99de3c2048260001b620001a0565b620003c87f7e0ea095279b18c09160c90ea45a9454b8f76f280f92874328686b77495e484160001b620001a0565b62278d009150620004c3565b620004027f41def708acf3a7d06a980b11ea0bab247888356f31cc0206b65381791329484160001b620001a0565b620004307f02a4a3fa4b683a9489057270a94e2d015325d5a2abedf117b59f8db2752bef1660001b620001a0565b6200045e7f06fa57e428804da6c870510ae4efdb26610e8c78424b3d2888744dcb942ab3b260001b620001a0565b60009250620004907f416673a30447260c9d32feeef0edd2c6a726715230ca165567b1d9cbff26b25c60001b620001a0565b620004be7f99de698ff774f6d61f60b472688d830862f738a0132156a61112b292724c11c560001b620001a0565b600091505b509091565b6000620004f87f2cc41fde7e957be0eadefa6f7407bb172eb1cf50fa85041ec354b3e3fcf53cec60001b6200019d565b620005267f66fe7eb34149b5cbe8367e2d14e147691f349120db2e1b7eb72d26fbbd0f55d460001b6200019d565b620005547fdee68a6874723a7d670417ce49ba7a5ce8fb022fafaeebb1e45cdb140077744260001b6200019d565b6000808373ffffffffffffffffffffffffffffffffffffffff1673ffffffffffffffffffffffffffffffffffffffff16815260200190815260200160002060009054906101000a900460ff169050919050565b6000620005d77f0e3ff51b051d0356ef5ac05d0f61341e0ac8f535784845752820166218ddc1e160001b620001a3565b620006057fc6f386c7ed32ec05c9a1f6d40256ce25fa8d3239e6f6bea0c0610e9f59dbc15460001b620001a3565b620006337fe57ad01b83f955a9452a51723bc76346f756e320697f634e413f3e9ce410933660001b620001a3565b60008062000640620001a6565b91509150620006727f963bbab825fdbdd297d27f5499ed23875cd3d4302744e70e303ededf7f2e6b6f60001b620001a3565b620006a07f7eaffccf01a3f1712ee4177cac28c9bf4675aeb63ef6f1aea3d730192e7a87e560001b620001a3565b6000620006ac620007c9565b8a8a8a8a8a88888c604051620006c290620009fe565b620006d69998979695949392919062000dfc565b604051809103906000f080158015620006f3573d6000803e3d6000fd5b509050620007247f6bc1d1336a1b25c20ac14204cefa571fc007de7f697b285793aa2a79d5ea2c6460001b620001a3565b620007527fe5db87eeb2885fb93c1367823de5da3bc6e1634a1d1969e2e309f85a1af345c860001b620001a3565b6200075d816200087b565b6200078b7f9e2c7ea5f85db8019b288dc5b689a47d21907769f78b611c4ab5722cd91a8d7b60001b620001a3565b620007b97fa127624419f95462424af9112488e3e3df4909bf9b6a58fedda22877e4a6373a60001b620001a3565b8093505050509695505050505050565b6000620007f97f29383d2b5fccfe6243d83518ea8a13bcec4fbaf9b63e72f400424e351aa9da6e60001b6200019d565b620008277fa1b458a210f682a225edc6521d6f76da2906693897d9ef2af953b00efba17b5660001b6200019d565b620008557f6743e0ae474cde26b4ba4d0f48fe33a27361a79156ad5adfa4d3d550999ccb4760001b6200019d565b7f0000000000000000000000000000000000000000000000000000000000000000905090565b620008a97f85f2440d3bb413e87063f72fc4b73b12a22bdfeb26af00edc6d66e81b2e166df60001b6200019d565b620008d77f3a150163ba55e1517b963ccf2da19324a13f1ad865abb9cddb82043fd08dfbfc60001b6200019d565b620009057f34e9ed9a5e996923a8769a6b01249ee6d941739692e2712e169efeba4465198a60001b6200019d565b60016000808373ffffffffffffffffffffffffffffffffffffffff1673ffffffffffffffffffffffffffffffffffffffff16815260200190815260200160002060006101000a81548160ff0219169083151502179055506200098a7f329cd91c48c66683c5b31a15b829f1ddeae0d32529263d548808e851d7e3bba060001b6200019d565b620009b87fc27850424ca1a424c8c26281dc33cbc76f2991719eebb4eecd1f831cdf11585a60001b6200019d565b8073ffffffffffffffffffffffffffffffffffffffff167f83a48fbcfc991335314e74d0496aab6a1987e992ddc85dddbcc4d6dd6ef2e9fc60405160405180910390a250565b6201560a806200112d83390190565b60008135905062000a1e81620010c4565b92915050565b600082601f83011262000a3657600080fd5b813562000a4d62000a478262000f0b565b62000edd565b9150818183526020840193506020810190508385602084028201111562000a7357600080fd5b60005b8381101562000aa7578162000a8c888262000ac8565b84526020840193506020830192505060018101905062000a76565b5050505092915050565b60008135905062000ac281620010de565b92915050565b60008135905062000ad981620010f8565b92915050565b600082601f83011262000af157600080fd5b813562000b0862000b028262000f34565b62000edd565b9150808252602083016020830185838301111562000b2557600080fd5b62000b328382846200106e565b50505092915050565b60008135905062000b4c8162001112565b92915050565b60006020828403121562000b6557600080fd5b600062000b758482850162000a0d565b91505092915050565b60006020828403121562000b9157600080fd5b600062000ba18482850162000ab1565b91505092915050565b60008060008060008060c0878903121562000bc457600080fd5b600087013567ffffffffffffffff81111562000bdf57600080fd5b62000bed89828a0162000adf565b965050602087013567ffffffffffffffff81111562000c0b57600080fd5b62000c1989828a0162000adf565b955050604087013567ffffffffffffffff81111562000c3757600080fd5b62000c4589828a0162000a24565b945050606062000c5889828a0162000b3b565b935050608062000c6b89828a0162000b3b565b92505060a062000c7e89828a0162000a0d565b9150509295509295509295565b600062000c99838362000d31565b60208301905092915050565b62000cb08162000fb6565b82525050565b600062000cc38262000f71565b62000ccf818562000f94565b935062000cdc8362000f61565b8060005b8381101562000d1357815162000cf7888262000c8b565b975062000d048362000f87565b92505060018101905062000ce0565b5085935050505092915050565b62000d2b8162000fca565b82525050565b62000d3c816200101e565b82525050565b62000d4d8162001046565b82525050565b600062000d608262000f7c565b62000d6c818562000fa5565b935062000d7e8185602086016200107d565b62000d8981620010b3565b840191505092915050565b62000d9f8162001014565b82525050565b600060208201905062000dbc600083018462000ca5565b92915050565b600060208201905062000dd9600083018462000d20565b92915050565b600060208201905062000df6600083018462000d42565b92915050565b60006101208201905062000e14600083018c62000d42565b818103602083015262000e28818b62000d53565b9050818103604083015262000e3e818a62000d53565b9050818103606083015262000e54818962000cb6565b905062000e65608083018862000d94565b62000e7460a083018762000d94565b62000e8360c083018662000d94565b62000e9260e083018562000d94565b62000ea261010083018462000ca5565b9a9950505050505050505050565b600060408201905062000ec7600083018562000d94565b62000ed6602083018462000d94565b9392505050565b6000604051905081810181811067ffffffffffffffff8211171562000f0157600080fd5b8060405250919050565b600067ffffffffffffffff82111562000f2357600080fd5b602082029050602081019050919050565b600067ffffffffffffffff82111562000f4c57600080fd5b601f19601f8301169050602081019050919050565b6000819050602082019050919050565b600081519050919050565b600081519050919050565b6000602082019050919050565b600082825260208201905092915050565b600082825260208201905092915050565b600062000fc38262000ff4565b9050919050565b60008115159050919050565b6000819050919050565b600062000fed8262000fb6565b9050919050565b600073ffffffffffffffffffffffffffffffffffffffff82169050919050565b6000819050919050565b60006200102b8262001032565b9050919050565b60006200103f8262000ff4565b9050919050565b600062001053826200105a565b9050919050565b6000620010678262000ff4565b9050919050565b82818337600083830152505050565b60005b838110156200109d57808201518184015260208101905062001080565b83811115620010ad576000848401525b50505050565b6000601f19601f8301169050919050565b620010cf8162000fb6565b8114620010db57600080fd5b50565b620010e98162000fd6565b8114620010f557600080fd5b50565b620011038162000fe0565b81146200110f57600080fd5b50565b6200111d8162001014565b81146200112957600080fd5b5056fe6104006040527f6e71edae12b1b97f4d1f60370fef10105fa2faae0126114a169c64845d6126c961012090815250348015630000003b57600080fd5b50604051630001560a380380630001560a8339818101604052810190630000006591906300002bc2565b88888888878787878760008888888888888882828888816040518060400160405280600181526020017f3100000000000000000000000000000000000000000000000000000000000000815250863373ffffffffffffffffffffffffffffffffffffffff1660001b63000001037fe656fc50f09b7684c34752b3ece2e281b6d08a9750095c0301d6e2383c5e37b660001b6300001cbb60201b60201c565b63000001397f4f7e861a1146d74c96da3edec5d0590759a1296b05766cad342bb6959c4c151460001b6300001cbb60201b60201c565b630000016f7f52b72727ae090b164bf2148fae50414fc0fb516dbc3119582343db3c7d50af7c60001b6300001cbb60201b60201c565b80608081815250505063000001ae7f446f1808b6d40b9489cc4c9a852d6b71b0e29e4186e37fa89ab671d91198770e60001b6300001cbe60201b60201c565b63000001e47f4a5719a5c08260aa70804b6cf4c2d43156d2e63f6d9b951543686690d6f25bd260001b6300001cbe60201b60201c565b630000021a7f8f0ac531ead605d36f4f4d3fae897fa52e59159bb1cb37f863027df67e1a596960001b6300001cbe60201b60201c565b8073ffffffffffffffffffffffffffffffffffffffff1660a08173ffffffffffffffffffffffffffffffffffffffff1660601b815250505063000002887f42b605ad8c4e48409d07a45ae01575f0109010e501e8b5c073584d28d362cafe60001b6300001cc160201b60201c565b63000002be7f83ae992f89ac3d22b5c08de6e662a0aa913c874cd41a0efc0f4994d8c4de570060001b6300001cc160201b60201c565b63000002f47fc4a174b8a26360ea40053551849bb6f425e3b060f612b04327821719723bcc8660001b6300001cc160201b60201c565b818051906020012060c0818152505063000003397fc26a2832f3fd57ee4b8ea5a6826ac33a1a1b798676bc5c45122e9662aeab5d2660001b6300001cc160201b60201c565b630000036f7fd4fb5a4207833b83c54df15a2c96970589d99d04479e6f4ca3165c5111271ea760001b6300001cc160201b60201c565b808051906020012060e0818152505063000003b47fb8e8098b11bfdd787c3da2cdafe2cc6b982a589dae9ae914138ecda0b35a4a3f60001b6300001cc160201b60201c565b63000003ea7fb3e60e0a13ac53da78856e77763f45e4814e177529da21d9bb0dde71039bfb5360001b6300001cc160201b60201c565b7f8b73c3c69bb8fe3d512ecc4cf759cc79239f7b179b0ffacaa9a75d522b39400f61010081815250505050630000044b7f7253d2a06334ee1e20139f04b1552da25178216f1aa557135d1e8f8155e9554160001b6300001cc460201b60201c565b63000004817f755fcc9e3678086f07a630e926401728d6cfabf7045174656ed798ffe0e2c27660001b6300001cc460201b60201c565b63000004b77fdf8c8e35aefe83f659d9ebf212dddcf9ac89e043959be6158e0274561e70d86360001b6300001cc460201b60201c565b816003908051906020019063000004d19291906300002953565b5063000005087faca7bf43b85bbccc85881caf16d28b9ec4837f003dbb33b53c537fe7df6424ad60001b6300001cc460201b60201c565b630000053e7fa9d35326029da8ea64802ba17246b49b2739c36b2c3f195ab3fefecc9610066e60001b6300001cc460201b60201c565b806004908051906020019063000005589291906300002953565b50505063000005917fcdc4b7966725a0b7e0fb882fd598225d9590b4866144e6f0fef2abbf022cd3fd60001b6300001cc760201b60201c565b63000005c77f967596f8f7a500ff720a3403b54a04d92df906e26231ac890b8a2fb26175b76860001b6300001cc760201b60201c565b63000005fd7f220e9104ab71aa57643c7c71e3832b71d3e98885b5965cb82908ce4eea5bfb2b60001b6300001cc760201b60201c565b63000006196276a7008311156101946300001cca60201b60201c565b630000064f7fd0be9f82dddb144bf718a71b45872969428bb1e178dd6736199ccad564ec8b5b60001b6300001cc760201b60201c565b63000006857fb702d3e39ca2fa724be8964ed90151539fa69615acf3787c22cbea6125ff8de960001b6300001cc760201b60201c565b63000006a162278d008211156101956300001cca60201b60201c565b63000006d77f30947af497197580ac7fe9d5a36f3395ccc8e0f05ad40bd1ca43afa0ba2e3c9660001b6300001cc760201b60201c565b630000070d7f66c9294cc9f2a539bf2e45a2359fd5403b096a66739ef9308702b0d225842bb560001b6300001cc760201b60201c565b60008242019050630000074a7f3ffec86c8a211454649c2421858fe62d38cdc98646c61a148543da8be9f267fe60001b6300001cc760201b60201c565b63000007807f6eb5190dbb322e1bbf62c40ef77ff43209eb42ec473e696fdafd2032f063f5b260001b6300001cc760201b60201c565b80610140818152505063000007bf7fb3521dbf78ed8ddf85941e885e8e8c559993c36bc3f082c5ab80dd2db85b95ac60001b6300001cc760201b60201c565b63000007f57ffb2f5edcd4cab9ad1417d979af508830d9a1801f736529956465596ed81dc54260001b6300001cc760201b60201c565b818101610160818152505050505063000008397feef9222c60850f6c554fe5b432101028b8f2ce9e66af25ba9f99e8fa514f135860001b6300001ce960201b60201c565b630000086f7f29daa8ddc6b2bd03ab659c5671a4af634e9ed40f32081ac515ac00e4e41e87de60001b6300001ce960201b60201c565b63000008a57f50b36cbe5a72390b1e658e2504556baa892b6f905e6e70abcd7e42cd6695e39160001b6300001ce960201b60201c565b63000008bf60028651101560c86300001cca60201b60201c565b63000008f57fd91e90af864a0661891902cd28e96b936dd15095c9bbc2e3c26a6f5aa145c43660001b6300001ce960201b60201c565b630000092b7f5a4d3127c8d8eb11293ed56d1ed4886ed7962738bb6407e46c3204a5331e8e9860001b6300001ce960201b60201c565b630000094560088651111560c96300001cca60201b60201c565b630000097b7ff5cb5f3bcadfd7aa80d8a9e9df6e9164b79ec1048619c65a8a77dde86b93a7f960001b6300001ce960201b60201c565b63000009b17fbdb22dec55768dab3119fbeca818116fc0c34d4a5dc7af1426f4faaf876520d260001b6300001ce960201b60201c565b63000009ca856300001cec60201b6300003d081760201c565b6300000a007f555dd818280439f7cace59c9865ed96690a722db1521c58f6298c03184588cc960001b6300001ce960201b60201c565b6300000a367f37576975632d8e34a9014f59585abe3714d36454a9a0b5560110f6659782ff8d60001b6300001ce960201b60201c565b6300000a49846300001e4c60201b60201c565b6300000a7f7fa4a06519948e26da031d6cd78c10cd33b82d37e6542bc14b244793840208710960001b6300001ce960201b60201c565b6300000ab57fcf00476c1ad0e48bf2c3a69ce6874136f672689113cb72fc4de8a990855412da60001b6300001ce960201b60201c565b60008973ffffffffffffffffffffffffffffffffffffffff166309b2760f8a6040518263ffffffff1660e01b81526004016300000af491906300002eff565b602060405180830381600087803b1580156300000b1057600080fd5b505af11580156300000b26573d6000803e3d6000fd5b505050506040513d601f19601f820116820180604052508101906300000b4e91906300002b93565b90506300000b867fd6ca6e5190bcc47d492d339143f093e3a5ec312cdceebe2b7ea2131d5d06238860001b6300001ce960201b60201c565b6300000bbc7f1a58730c54a0d3fe5396145bb3f362c7bb7984fce88a178ba8f0dd6d9a91fbea60001b6300001ce960201b60201c565b8973ffffffffffffffffffffffffffffffffffffffff166366a9c7d28288895167ffffffffffffffff811180156300000bf457600080fd5b506040519080825280602002602001820160405280156300000c255781602001602082028036833780820191505090505b506040518463ffffffff1660e01b81526004016300000c48939291906300002eae565b600060405180830381600087803b1580156300000c6457600080fd5b505af11580156300000c7a573d6000803e3d6000fd5b505050506300000cb47f5cb3297d5fee3013f6be3c2637ea3332b8315f6ae0a602b35d7d4f946738117460001b6300001ce960201b60201c565b6300000cea7f258435fc765c398b382a02f1494d6eeb19a7a3b9dd13b06f7ce040d32f4b693a60001b6300001ce960201b60201c565b8973ffffffffffffffffffffffffffffffffffffffff166101808173ffffffffffffffffffffffffffffffffffffffff1660601b815250506300000d587f074eea5be854d56586c3d16480de3f1e254bf6746da49f2546ef594d3c42f8f960001b6300001ce960201b60201c565b6300000d8e7fbba99ec2a5be6936cf6c2778d9f8912c8f7f057750b07924d1fc39123e63285360001b6300001ce960201b60201c565b806101a081815250506300000dcd7f0b867095881cad1c0c15f34e4690587b3bc64c6310c7af12f8f0e1fc9519be2860001b6300001ce960201b60201c565b6300000e037f0346ec5198d8ae4a0478158a396a3cdafec3c83204ffc81d62919cee8beafc5760001b6300001ce960201b60201c565b85516101c081815250506300000e437ff9ff2b0b1072d4c147feb2830f8c54c4b1dc8456e9e366b35bde266dbaf4bc9760001b6300001ce960201b60201c565b6300000e797f42ce7e0701e3c6b48cba1f9781e124deadc55c10831c84ed419b6866b592d4f760001b6300001ce960201b60201c565b60008651116300000e8d5760006300000ea5565b856000815181106300000e9c57fe5b60200260200101515b73ffffffffffffffffffffffffffffffffffffffff166101e08173ffffffffffffffffffffffffffffffffffffffff1660601b815250506300000f127f054bc2aca61fe0cfbf02e43ef07cdc9fff579f1443175dafe24071f26df3487e60001b6300001ce960201b60201c565b6300000f487f7f731e7816747e625a861004f5071197e729a83705aa5c77342e2cb6a6a7986460001b6300001ce960201b60201c565b60018651116300000f5c5760006300000f74565b856001815181106300000f6b57fe5b60200260200101515b73ffffffffffffffffffffffffffffffffffffffff166102008173ffffffffffffffffffffffffffffffffffffffff1660601b815250506300000fe17fd28193dde89134850d9c4fe44c2adb8a920ff6e95d7ed879a489eb122c66ed1760001b6300001ce960201b60201c565b63000010177fa8ea244de33ed88fbdd031a02154c30db818c70a34d1def1bdc4214a568bd8dd60001b6300001ce960201b60201c565b6002865111630000102b5760006300001043565b85600281518110630000103a57fe5b60200260200101515b73ffffffffffffffffffffffffffffffffffffffff166102208173ffffffffffffffffffffffffffffffffffffffff1660601b8152505063000010b07f3de63489d88a0e2eeaa1b0ee48d37dbcf248fa3adedffeab28931f278052d81f60001b6300001ce960201b60201c565b63000010e67fc1336ab0a980252d31e8350778da7d53fc5f7ed7f9d3a6a4a90f544afc17f4ff60001b6300001ce960201b60201c565b600386511163000010fa5760006300001112565b85600381518110630000110957fe5b60200260200101515b73ffffffffffffffffffffffffffffffffffffffff166102408173ffffffffffffffffffffffffffffffffffffffff1660601b81525050630000117f7f545d70287bb6c6066f750c2426c99ad2345fc2366c7026473c2ad99437b3d9e860001b6300001ce960201b60201c565b63000011b57f134bf0600af63e8c9dd9d8fc93edb4a2fb1e10165026113c1874bbbd742ff0bb60001b6300001ce960201b60201c565b600486511163000011c957600063000011e1565b8560048151811063000011d857fe5b60200260200101515b73ffffffffffffffffffffffffffffffffffffffff166102608173ffffffffffffffffffffffffffffffffffffffff1660601b81525050630000124e7f9a02b44c3ca3ff8b921cf5942d82de7b215c12da699653363cde7817b24ac7c360001b6300001ce960201b60201c565b63000012847f1c091a5b9d9bbbfab7340e87cfe0a581c1911bbb85c3922072043b213150acc460001b6300001ce960201b60201c565b6005865111630000129857600063000012b0565b8560058151811063000012a757fe5b60200260200101515b73ffffffffffffffffffffffffffffffffffffffff166102808173ffffffffffffffffffffffffffffffffffffffff1660601b81525050630000131d7f325754e4e56b94a053a42ade18c9c99e75491de78424954e9f75496230b8419a60001b6300001ce960201b60201c565b63000013537fccf7c8d3c9467837019528e2b4d237d38a863d85e32143dfa9fb5afe0c05b05e60001b6300001ce960201b60201c565b60068651116300001367576000630000137f565b85600681518110630000137657fe5b60200260200101515b73ffffffffffffffffffffffffffffffffffffffff166102a08173ffffffffffffffffffffffffffffffffffffffff1660601b8152505063000013ec7f8c7264d060dda3f7f0f224bd0091efe9934944437c6eff04f6cf4044577184b860001b6300001ce960201b60201c565b63000014227fa8a5b676c43ebd2d45604db89cf6dcf12d175e68129925df2e0bd360ffc3d30b60001b6300001ce960201b60201c565b60078651116300001436576000630000144e565b85600781518110630000144557fe5b60200260200101515b73ffffffffffffffffffffffffffffffffffffffff166102c08173ffffffffffffffffffffffffffffffffffffffff1660601b8152505063000014bb7f18eb338e96fea56d042e88072a5deab74eb75f67b16f280a6bc52d3296e66abf60001b6300001ce960201b60201c565b63000014f17f82726fdaefa33f978ecc45d9f49dedc12a8ef021e33c358fee242bbbe2e1ab5d60001b6300001ce960201b60201c565b60008651116300001505576000630000152f565b630000152e86600081518110630000151957fe5b602002602001015163000020b460201b60201c565b5b6102e08181525050630000156d7f10faf14c26c8c1a11890e6317cda515201a84ca726fe5c32e3c4c0467e0aae7660001b6300001ce960201b60201c565b63000015a37f693090ed94116b5d6d785e438067874af977330ae069201cf28aab1a5fce387160001b6300001ce960201b60201c565b600186511163000015b757600063000015e1565b63000015e08660018151811063000015cb57fe5b602002602001015163000020b460201b60201c565b5b6103008181525050630000161f7f084a26e6b46ba2cac56aa81751552ac2435a691480d97e0834b29ea84e3f494f60001b6300001ce960201b60201c565b63000016557f4cb1e947ed0cfa8fd9f2aef944d414c68727a20103ccde5b6f7f0ddb4f44022d60001b6300001ce960201b60201c565b600286511163000016695760006300001693565b630000169286600281518110630000167d57fe5b602002602001015163000020b460201b60201c565b5b610320818152505063000016d17fb4a456e045f22abd1260985369048bd10cc57b4f1b05ef865cceb8c2ddefcb0760001b6300001ce960201b60201c565b63000017077ff84fe725f26b2122f277caebce9c37c4b9396e1d24ff5ed73fe9253c26ba706f60001b6300001ce960201b60201c565b6003865111630000171b5760006300001745565b630000174486600381518110630000172f57fe5b602002602001015163000020b460201b60201c565b5b610340818152505063000017837ff8fe9d402c10ec3890e2c21e3c9aaa334eee86aed5ed536dfcaacaeba0f80ae760001b6300001ce960201b60201c565b63000017b97f21bdcd5024abbf9bcb4f6b75991e8753b765b5196282bd7e95b5f4a2bfca958c60001b6300001ce960201b60201c565b600486511163000017cd57600063000017f7565b63000017f68660048151811063000017e157fe5b602002602001015163000020b460201b60201c565b5b610360818152505063000018357f8a32d9c26fa5aba940f77e8fc51dfea41e94ff9c84910631d647cd92d4a90f6160001b6300001ce960201b60201c565b630000186b7f8f2c72b658f39e8f789e09235e00a2d9bce5a79b03b4714bf23e8853f7d6f7d060001b6300001ce960201b60201c565b6005865111630000187f57600063000018a9565b63000018a886600581518110630000189357fe5b602002602001015163000020b460201b60201c565b5b610380818152505063000018e77ff56e52d419dde50db89843bcb18bf32d203bb35fa2850f6f5e35034f0f0a930b60001b6300001ce960201b60201c565b630000191d7f4a9c252f672fed084e0a70e99b196cd0cd1dbb0c501a6eca4f020f1cc0f6a5ad60001b6300001ce960201b60201c565b60068651116300001931576000630000195b565b630000195a86600681518110630000194557fe5b602002602001015163000020b460201b60201c565b5b6103a0818152505063000019997f1e2cdc42c3e9dbd0680ffb35fcf566187b929b480f960f12912b30f62c2af6b060001b6300001ce960201b60201c565b63000019cf7fab624fbb69b251ebfaace0bb03137c74915014e3b8a89e758879738e531fab0160001b6300001ce960201b60201c565b600786511163000019e35760006300001a0d565b6300001a0c8660078151811063000019f757fe5b602002602001015163000020b460201b60201c565b5b6103c08181525050505050505050505050506300001a557f0e5b762219e0f058804282c7acd8dc2ef4b500327d6777fb4508669a84ebdaa260001b63000022e860201b60201c565b50505050505050506300001a937f2a5cb7ee8b7572ba8ce1ca36de27d201ef0956fb3ec976831a86021be102242d60001b63000022eb60201b60201c565b6300001ac97f03f64dc69301b492c8e86ea4029712064bd6d4f318d97ed072392d16136f67bb60001b63000022eb60201b60201c565b6300001aff7fa26a2fbdde8541c49dab448474031f4fdc1d21f424327916dfc102da5708eacb60001b63000022eb60201b60201c565b6300001b20670de0b6b3a764000086101561012c6300001cca60201b60201c565b6300001b567f98340cc636844a9b7fa82c8172bedb49647444940709d6b626f5f061c7c0b02f60001b63000022eb60201b60201c565b6300001b8c7f9a6da3fe9d4b05c0bd4a41f8c3eab8de892ee9faa880d564d29cf09c4e63642460001b63000022eb60201b60201c565b6300001baf69010f0cf064dd5920000086111561012d6300001cca60201b60201c565b6300001be57fd84ddff899e2ffcbd63b9f8beff64d3065e5b428c0372c4ddc2148b782ae8cf960001b63000022eb60201b60201c565b6300001c1b7f0ed1ebb00f6d1d0dc890e8cc7c3d9728611acdcc7772d7ad4ba3c6ecfb3df9ed60001b63000022eb60201b60201c565b6300001c3660058751111561012f6300001cca60201b60201c565b6300001c6c7fe669e06d34150744ce2557044b6d45c8bdc94a97c7b21554f0ef58b6ae82769d60001b63000022eb60201b60201c565b6300001ca27fa0b685312c745c49c98425b748d572880b117782e1ec2d78d51f7953b0d4022660001b63000022eb60201b60201c565b846103e0818152505050505050505050505063000031f7565b50565b50565b50565b50565b50565b816300001ce5576300001ce48163000022ee60201b60201c565b5b5050565b50565b6300001d227fccd7e13b327ad13eb1cf5266c6b879986903b9a1f80b6661c959488e5f0fb6d660001b630000235e60201b60201c565b6300001d587ffebde624b7e9ce0b255ec134f0aeadd3b2108737eef3a0a39d228170f9130f0060001b630000235e60201b60201c565b6300001d8e7f2ada8f09730243aac13b03ccb80c149c6ebadcaf132018bc0ae05b400c3e067c60001b630000235e60201b60201c565b60606300001dc67f394297b1718752bb0ef7436c53e94e02c76dba2f63de8907998210a9ab652db560001b630000235e60201b60201c565b8190506300001dff7fe19f999020959db22bc5ee4f58ef119cc222f2c75a6691c1d02afd22bb0d832160001b630000235e60201b60201c565b6300001e357f251d0080a7ba22b7ea3a753b97fd5fe79dfac363028058899b93fa1a626ac53c60001b630000235e60201b60201c565b6300001e4881630000236160201b60201c565b5050565b6300001e827f4db390be21e4fb063d5dd50c0d8ff4fecb780cb5d3a663078f0238771f240a5b60001b6300001ce960201b60201c565b6300001eb87fbb76a41f0f7668870dc0f60369571a4c1c74f74012e4a44cda2833ac29840c5060001b6300001ce960201b60201c565b6300001eee7fa4b530f061555287ea4320080212b502f18a367bec77f93b855255532f27280560001b6300001ce960201b60201c565b6300001f0b64e8d4a5100082101560cb6300001cca60201b60201c565b6300001f417fc92e78637e75ff2067c493202cbc2e5a0c3ff84b364a570b3fc8cfd0bcfac0bb60001b6300001ce960201b60201c565b6300001f777f8d683083a08acc0b83ceecfcab17bca90825940aaaabc6c8eb4cb5b92c20670e60001b6300001ce960201b60201c565b6300001f9767016345785d8a000082111560ca6300001cca60201b60201c565b6300001fcd7fc6b4f73e1e3e08acbef66c2b93bbf2d5ec40bc2f3e3cdea77a81d5f64e46cb8660001b6300001ce960201b60201c565b63000020037f219cccbd8afb9a6938460c83557637149eef3eccc86f1f705bb1ac24cc6a982860001b6300001ce960201b60201c565b8060078190555063000020407f7a8b5c43fe9ff106f995ea4ccdb6300781de8b765da9047aaf54af4d21c424c860001b6300001ce960201b60201c565b63000020767f69bf62710ab010bd67f43d890ee13c590d761678d4320c0e0d4b5c7a6a5923ce60001b6300001ce960201b60201c565b7fa9ba3ffe0b6c366b81232caab38605a0699ad5398d6cce76f91ee809e322dafc8160405163000020a991906300002f1e565b60405180910390a150565b600063000020ec7ff385424b3a15d59631ec29bfd7b954f201de9b543cde6ef30825569826d94f7c60001b6300001ce960201b60201c565b63000021227f5de44bbd626317003d8ef39180a3ce72bfa970085ed7a28b42b5ceb258862b0560001b6300001ce960201b60201c565b63000021587f81d881e3e021f2b0a928fc4d5849c3e2b3b3fa6b20902dcf6bd23dc96b44b5a460001b6300001ce960201b60201c565b60008273ffffffffffffffffffffffffffffffffffffffff1663313ce5676040518163ffffffff1660e01b815260040160206040518083038186803b15801563000021a257600080fd5b505afa15801563000021b8573d6000803e3d6000fd5b505050506040513d601f19601f8201168201806040525081019063000021e091906300002cfc565b60ff169050630000221b7f481caf5368fd4332287a3ef75ab919f9903c26d406ccbcc3a26a6daf3750aa6860001b6300001ce960201b60201c565b63000022517ffcf26db9ba24493b0554459a82e4cf34bb9e4a80e72f4bf4f9a297e74d14ea2460001b6300001ce960201b60201c565b6000630000226e60128363000027ab60201b6300003e301760201c565b905063000022a67f0f1dc18c6b948a6c3fb0c2ece0743658a0a7022ccd4164798f3603bfc095774260001b6300001ce960201b60201c565b63000022db7e22c7afb15ed0c4b336668fef5cdbc17cdc606fd2a9b9dedb8c08d43d6d2fa360001b6300001ce960201b60201c565b80600a0a92505050919050565b50565b50565b6030600a820601600a820491506030600a830601600a830492506030600a8406018060101b8260081b8401016642414c230000000160c81b7f08c379a000000000000000000000000000000000000000000000000000000000600052602060045260076024528060445260646000fd5b50565b63000023977f52b02eb9833b0bd298da9a550fd6a8b13dfb25c29994dccd775897a11480c75460001b630000235e60201b60201c565b63000023cd7fb75d4e78a2d4db3d391224c3e34eff0315c02f0040609f8a2b6b81a4bee39fd960001b630000235e60201b60201c565b63000024037fc9b4e6a27a0e453ee7a9401745aa4ff765595ab77cc85081921792d89751008960001b630000235e60201b60201c565b60028151101563000024b85763000024457f22167cf469dd9aabeefaa2ab2d17cdd5287c2264296931e640849328c451b01460001b630000235e60201b60201c565b630000247b7fa65e1d9bc163f5ae9eb6070115a7e51cc6766682e133ff763759005b2d1a40e060001b630000235e60201b60201c565b63000024b17faa2e51a8518e72c89222a13d73e32ca8401729d0b38900af1038cee92bce1f0860001b630000235e60201b60201c565b63000027a8565b63000024ee7f3c9b73e3f9ac221add16775c5d9095515c3e8f3afef21ff52b55a6b8e602d38d60001b630000235e60201b60201c565b63000025247f7fedf65b473b6100a99469045ec29164a45d4d36b75f0c52a75d9db201f9c6e060001b630000235e60201b60201c565b630000255a7f7fbd9b3ab4279bb2347201c67b665cec5f3aea53dc77daa332841cee3a6383fd60001b630000235e60201b60201c565b600081600081518110630000256b57fe5b6020026020010151905063000025ab7f82f4605e79aa35d21c9a3999706dd9685733e98401d0e734c18f4c1140cce03e60001b630000235e60201b60201c565b63000025e17f3838606ace01461ca21cf498f43a6824b7c080b35d4559c58c93c8f948842aac60001b630000235e60201b60201c565b6000600190505b825181101563000027a55763000026297fa59293f48c2e4416c1932c0f4236fedf682c01490f96f93a10b8fa63fd2b037d60001b630000235e60201b60201c565b630000265f7f38630e8d3b1587def62cbfe6d0750511f5e982b4ba10074a538d936e0237cdec60001b630000235e60201b60201c565b6000838281518110630000266f57fe5b6020026020010151905063000026af7f938af12a518f22f61865b3861f21fa00ad4e4bf11ec7daa6c4f032b6025d424760001b630000235e60201b60201c565b63000026e57ffede6dd9ae22d44e28a4a759c56795dcd3b945d1d2203993228f37c909a90e4260001b630000235e60201b60201c565b63000027288173ffffffffffffffffffffffffffffffffffffffff168473ffffffffffffffffffffffffffffffffffffffff161060656300001cca60201b60201c565b630000275e7f9093def741d483dcb80308555e82d6c69e39a26b3d763f0044f3f0f09f8d7adf60001b630000235e60201b60201c565b63000027947f9ba332f26c0d2c5129d51a9355d8ac6f4402d5dfa84f6fa0349bfe1fe83eedc460001b630000235e60201b60201c565b8092505080600101905063000025e8565b50505b50565b600063000027e37f4ad272e8ef896cf9749bbb33b720ec50902be1d6268b31d272f37eeffc01139760001b630000295060201b60201c565b63000028197ff5b8f6315ed04f6f880d15c913444893b354f451e1a7755f980256aa3a67eb1b60001b630000295060201b60201c565b630000284f7fbdc5b111411beb8ab6b53375bbc8bf4e74258c8c8f4987a4928ce54801c48b0060001b630000295060201b60201c565b63000028678383111560016300001cca60201b60201c565b630000289d7f878d38a5a5b3291f5b62618821c286b1ce4d8ac1fde0f5c52c6f8b253e3c721860001b630000295060201b60201c565b63000028d37fdee8db45952fd0881a888ce099e6774ada46e04a8240c739354e8b594734d0b160001b630000295060201b60201c565b6000828403905063000029107fa883eec5840f8062e57d5a86c35fd0af17f6df22b4081b6a3676dd71088ac1e360001b630000295060201b60201c565b63000029467fc44e06103de1985a150207dd6e5102796da4ff917908533e00a2fd2e75a52f9460001b630000295060201b60201c565b8091505092915050565b50565b828054600181600116156101000203166002900490600052602060002090601f016020900481019282601f10630000299857805160ff191683800117855563000029cc565b8280016001018555821563000029cc579182015b8281111563000029cb57825182559160200191906001019063000029ac565b5b50905063000029dd919063000029e1565b5090565b5b8082111563000029fe57600081600090555060010163000029e2565b5090565b6000815190506300002a15816300003149565b92915050565b600082601f8301126300002a2e57600080fd5b81516300002a496300002a42826300002f6c565b6300002f3d565b915081818352602084019350602081019050838560208402820111156300002a7057600080fd5b60005b838110156300002aa857816300002a8c88826300002acb565b8452602084019350602083019250506001810190506300002a73565b5050505092915050565b6000815190506300002ac5816300003166565b92915050565b6000815190506300002ade816300003183565b92915050565b6000815190506300002af78163000031a0565b92915050565b600082601f8301126300002b1057600080fd5b81516300002b2b6300002b24826300002f96565b6300002f3d565b915080825260208301602083018583830111156300002b4957600080fd5b6300002b588382846300003101565b50505092915050565b6000815190506300002b748163000031bd565b92915050565b6000815190506300002b8d8163000031da565b92915050565b6000602082840312156300002ba757600080fd5b60006300002bb9848285016300002ab2565b91505092915050565b60008060008060008060008060006101208a8c0312156300002be357600080fd5b60006300002bf58c828d016300002ae4565b99505060208a015167ffffffffffffffff8111156300002c1457600080fd5b6300002c248c828d016300002afd565b98505060408a015167ffffffffffffffff8111156300002c4357600080fd5b6300002c538c828d016300002afd565b97505060608a015167ffffffffffffffff8111156300002c7257600080fd5b6300002c828c828d016300002a1b565b96505060806300002c978c828d016300002b61565b95505060a06300002cac8c828d016300002b61565b94505060c06300002cc18c828d016300002b61565b93505060e06300002cd68c828d016300002b61565b9250506101006300002cec8c828d016300002a02565b9150509295985092959850929598565b6000602082840312156300002d1057600080fd5b60006300002d22848285016300002b7a565b91505092915050565b60006300002d3b83836300002d63565b60208301905092915050565b60006300002d5783836300002e75565b60208301905092915050565b6300002d70816300003025565b82525050565b60006300002d85826300002fe4565b6300002d9381856300003014565b93506300002da2836300002fc4565b8060005b838110156300002ddf5781516300002dc088826300002d2b565b97506300002dcf836300002ffa565b9250506001810190506300002da6565b5085935050505092915050565b60006300002dfb826300002fef565b6300002e0981856300003014565b93506300002e18836300002fd4565b8060005b838110156300002e555781516300002e3688826300002d47565b97506300002e45836300003007565b9250506001810190506300002e1c565b5085935050505092915050565b6300002e6f81630000303b565b82525050565b6300002e828163000030bf565b82525050565b6300002e958163000030eb565b82525050565b6300002ea88163000030a8565b82525050565b60006060820190506300002ec760008301866300002e62565b81810360208301526300002edd81856300002dec565b905081810360408301526300002ef581846300002d76565b9050949350505050565b60006020820190506300002f1860008301846300002e88565b92915050565b60006020820190506300002f3760008301846300002e9b565b92915050565b6000604051905081810181811067ffffffffffffffff821117156300002f6257600080fd5b8060405250919050565b600067ffffffffffffffff8211156300002f8557600080fd5b602082029050602081019050919050565b600067ffffffffffffffff8211156300002faf57600080fd5b601f19601f8301169050602081019050919050565b6000819050602082019050919050565b6000819050602082019050919050565b600081519050919050565b600081519050919050565b6000602082019050919050565b6000602082019050919050565b600082825260208201905092915050565b60006300003034826300003088565b9050919050565b6000819050919050565b60006300003054826300003025565b9050919050565b6000630000306a826300003025565b9050919050565b6000819050630000308382630000313a565b919050565b600073ffffffffffffffffffffffffffffffffffffffff82169050919050565b6000819050919050565b600060ff82169050919050565b600063000030ce8263000030d5565b9050919050565b600063000030e4826300003088565b9050919050565b600063000030fa826300003071565b9050919050565b60005b8381101563000031235780820151818401526020810190506300003104565b838111156300003134576000848401525b50505050565b60038110630000314657fe5b50565b6300003156816300003025565b8114630000316357600080fd5b50565b630000317381630000303b565b8114630000318057600080fd5b50565b6300003190816300003045565b8114630000319d57600080fd5b50565b63000031ad81630000305b565b811463000031ba57600080fd5b50565b63000031ca8163000030a8565b811463000031d757600080fd5b50565b63000031e78163000030b2565b811463000031f457600080fd5b50565b60805160a05160601c60c05160e051610100516101205161014051610160516101805160601c6101a0516101c0516101e05160601c6102005160601c6102205160601c6102405160601c6102605160601c6102805160601c6102a05160601c6102c05160601c6102e05161030051610320516103405161036051610380516103a0516103c0516103e051620122bd630000334d60003980611f6b52806120375280618b8f528061965f5280619ac0528061a5a2528061acf3528061b886528061ccf3528061d1d6528061d4cc528061d6de525080614d0a525080614ba0525080614a365250806148cc5250806147625250806145f952508061448f5250806143265250505050505050505080614023525080611865525080612a3a525080615b09525080615a57525080612ec25250806160005250806160425250806160215250806129885250806127295250620122bd6000f3fe60806040523480156200001157600080fd5b5060043610620002f25760003560e01c80636939fcfe11620001a157806395d89b4111620000ed578063d73dd6231162000099578063dd62ed3e116200007b578063dd62ed3e14620008b5578063e9083f6214620008eb578063f6830dd0146200090b57620002f2565b8063d73dd623146200085f578063d7aaeadd146200089557620002f2565b8063aaabadc511620000cf578063aaabadc514620007e6578063d505accf1462000808578063d5c096c4146200082857620002f2565b806395d89b41146200078e578063a9059cbb14620007b057620002f2565b80637ecebe00116200014d57806387ec6817116200012f57806387ec68171462000713578063893d20e8146200074a5780638d928af8146200076c57620002f2565b80637ecebe0014620006a7578063851c1bb314620006dd57620002f2565b80636e5e892311620001835780636e5e8923146200061a57806370a08231146200063a57806374f3b009146200067057620002f2565b80636939fcfe14620005d85780636daccffa14620005f857620002f2565b806323b872dd116200026157806355c67628116200020d5780636028bfd411620001ef5780636028bfd41462000549578063661884631462000580578063679aefce14620005b657620002f2565b806355c6762814620005075780635ff8525a146200052957620002f2565b80633644e51511620002435780633644e51514620004a357806338e9922e14620004c557806338fff2d014620004e557620002f2565b806323b872dd146200044b578063313ce567146200048157620002f2565b80630c575f1511620002c157806316c38b3c11620002a357806316c38b3c14620003e557806318160ddd14620004055780631c0de051146200042757620002f2565b80630c575f1514620003a55780630ddc08a514620003c557620002f2565b806301ec954a14620002f757806304b5705c146200032d57806306fdde03146200034d578063095ea7b3146200036f575b600080fd5b6200031560048036038101906200030f9190620118ce565b6200092b565b60405162000324919062011e8f565b60405180910390f35b6200034b6004803603810190620003459190620114ee565b62000ae8565b005b6200035762000aeb565b60405162000366919062011e6b565b60405180910390f35b6200038d6004803603810190620003879190620113cd565b62000c1b565b6040516200039c919062011c66565b60405180910390f35b620003c36004803603810190620003bd9190620114ee565b62000d19565b005b620003e36004803603810190620003dd9190620114ee565b62000d1c565b005b620004036004803603810190620003fd919062011496565b62000d1f565b005b6200040f62000e79565b6040516200041e919062011e8f565b60405180910390f35b6200043162000f0d565b604051620004429392919062011c83565b60405180910390f35b620004696004803603810190620004639190620112ca565b6200107e565b60405162000478919062011c66565b60405180910390f35b6200048b6200148d565b6040516200049a919062011ee0565b60405180910390f35b620004ad62001520565b604051620004bc919062011cc0565b60405180910390f35b620004e36004803603810190620004dd91906201196c565b620015bb565b005b620004ef620017d7565b604051620004fe919062011cc0565b60405180910390f35b6200051162001889565b60405162000520919062011e8f565b60405180910390f35b620005476004803603810190620005419190620114ee565b6200191d565b005b6200056760048036038101906200056191906201151a565b62001920565b6040516200057792919062011eac565b60405180910390f35b6200059e6004803603810190620005989190620113cd565b62001aa1565b604051620005ad919062011c66565b60405180910390f35b620005c062001dc3565b604051620005cf919062011e8f565b60405180910390f35b620005f66004803603810190620005f09190620114ee565b62001fa6565b005b6200060262001fa9565b60405162000611919062011e8f565b60405180910390f35b620006386004803603810190620006329190620114ee565b6200205b565b005b6200065860048036038101906200065291906201125d565b6200205e565b60405162000667919062011e8f565b60405180910390f35b6200068e60048036038101906200068891906201151a565b62002130565b6040516200069e92919062011c2b565b60405180910390f35b620006c56004803603810190620006bf91906201125d565b620025c8565b604051620006d4919062011e8f565b60405180910390f35b620006fb6004803603810190620006f59190620115f9565b6200269b565b6040516200070a919062011cc0565b60405180910390f35b6200073160048036038101906200072b91906201151a565b62002779565b6040516200074192919062011eac565b60405180910390f35b62000754620028fa565b60405162000763919062011c0e565b60405180910390f35b62000776620029ac565b60405162000785919062011e4e565b60405180910390f35b6200079862002a5e565b604051620007a7919062011e6b565b60405180910390f35b620007ce6004803603810190620007c89190620113cd565b62002b8e565b604051620007dd919062011c66565b60405180910390f35b620007f062002c8d565b604051620007ff919062011e31565b60405180910390f35b62000826600480360381019062000820919062011320565b62002d28565b005b6200084660048036038101906200084091906201151a565b6200321d565b6040516200085692919062011c2b565b60405180910390f35b6200087d6004803603810190620008779190620113cd565b62003a5f565b6040516200088c919062011c66565b60405180910390f35b620008b36004803603810190620008ad9190620114ee565b62003bee565b005b620008d36004803603810190620008cd919062011289565b62003bf1565b604051620008e2919062011e8f565b60405180910390f35b620009096004803603810190620009039190620114ee565b62003d02565b005b620009296004803603810190620009239190620114ee565b62003d05565b005b60006200095b7f08ef04015cd992ccf09e2392dfe2afc5c74ad1c5fca57fd59bb7df97093289f360001b62003bee565b620009897fa3bf14a74c63a9febe8549c9dc351770077a4f05b42987c5317b68382370398560001b62003bee565b620009b77f9ac431e5b58a46ec5253aff6436acde88c9cde2f55656396022189352e53370d60001b62003bee565b620009cd8383620009c762003f95565b62004047565b620009fb7f329c40984d3785814727bfe4043f2f1dd2739968b99f6efd9524cabb0609900660001b62003bee565b62000a297f296a62f9bc52a4083e88f57f5545a5143e74a0e695ec7b6ede5f37afd425a98f60001b62003bee565b606062000a35620040f1565b905062000a657f1fbdf509e7c4331b344e8b2fb5101f6ff59f693f845d13b33b006d7e98cc217260001b62003bee565b62000a937f48d39ffb69646cc16a01e865a702d4868764fe2b7bd9db832b2e0e15e7d3012f60001b62003bee565b6000600181111562000aa157fe5b8660000151600181111562000ab257fe5b1462000acd5762000ac7868686868562004e15565b62000add565b62000adc868686868562005094565b5b915050949350505050565b50565b606062000b1b7f5dfdc8f2f6b16263aff4e1fa9daf20c3e626c84a00d5d6bcaea54312a6dedb3f60001b62000ae8565b62000b497fa30e0aec3fd2e1f5d3fa7e060a0c71fc1a4593e346708abdd288bd71a8d9ae5660001b62000ae8565b62000b777fc0ca2993df56cc3a2adb97bb0ebc8fe721848fcdace1e7d885178e32eb1db44e60001b62000ae8565b60038054600181600116156101000203166002900480601f01602080910402602001604051908101604052809291908181526020018280546001816001161561010002031660029004801562000c115780601f1062000be55761010080835404028352916020019162000c11565b820191906000526020600020905b81548152906001019060200180831162000bf357829003601f168201915b5050505050905090565b600062000c4b7ff099023c1f159266a64260fb366a6bfc73f2d01960c66920ea0020ddcbc78eeb60001b62000ae8565b62000c797f10f7074bbe308337495d3c4502cf6c01f2be32ca196c807f828ee19c3f97d90e60001b62000ae8565b62000ca77fc9a2b32520bd1d8c442e96d2af7b523d6252271a193785be85992c2d0766b18560001b62000ae8565b62000cb43384846200531f565b62000ce27fed42e9e42c5b5aba6101d2063da8fb5ece96354268b7a0bc893f1a4fc0e7dbf060001b62000ae8565b62000d0f7ee182571078bde88a73ddd558535ad452f1e3974656f9d9f62cfd0c7da15ee060001b62000ae8565b6001905092915050565b50565b50565b62000d4d7fdfcff9db5c0001a4a8ff88d7564521e5ae182f75503405aee3622d19b0e3655260001b62000d1c565b62000d7b7f5a55fe4186df4e8e414a6f2504b3774e5852558ddbf409e09d2dd9273fbda36060001b62000d1c565b62000da97f9a5d745b65ebafdc2adb226e0021e0ff4d4dfc023c8a49423a469e21ec523a7c60001b62000d1c565b62000db3620054f2565b62000de17fdf78023cab09ae4709c13c466fe04a359efc7b4a528806c19241a2b24347eed660001b62000d1c565b62000e0f7f7540106d3592a8d6f37d124bef31fe13bdda1b3e5d60e5f90aaf8d878ab3f69560001b62000d19565b62000e3d7f4b6de0c6433963725e415e07205b56ae0e1f77ace05c5e6fdd2a7829d530c3ef60001b62000d19565b62000e6b7ff28baafac37b53f13a5d360fb8081584711195dc235deb4b09e4e30b39b7739160001b62000d19565b62000e768162005627565b50565b600062000ea97f10b8ca513f61e329a255990c3baacc2acfde14b45a7a53ec08eb2ba3517fe09560001b62000ae8565b62000ed77f9b61f32c47f6c42dc51fde0671f67b217c3158e7e9782bc2213b6e2c2d5e34d460001b62000ae8565b62000f057fc21c061ae22a904437e41b7baf9cac8e362edbf8d26c2cb9e1629904ee73e70960001b62000ae8565b600254905090565b600080600062000f407f18cc8dc20a1ad77603273d0fb77be91955c8ad792e3d7764c49079ac9b61e0ed60001b62003d02565b62000f6e7f76c635b6e7e47a035d1d142dac6a7335b96bc1b76c90516a0b4d4b0c8a73dc1e60001b62003d02565b62000f9c7f64ba82495936cfc0eddf6ffc54de798f2cc9f0e74ea13078053cb63db8d2589d60001b62003d02565b62000fa662005913565b15925062000fd77f5cd65d0e58d3ba7b6d482ad8676260457a2bdb3b3592e2e2001a9bce46b556ed60001b62003d02565b620010057f9621e7a8975dd596a9a85caab7f65e524cadfb5dd2c5ae64f90be4b2d8018a8b60001b62003d02565b6200100f620059c9565b91506200103f7fcaa139029346a8a379d3422961606d3a079119372f0df216b61002fbd10d913860001b62003d02565b6200106d7f1110bdcce9f69a67c5a5244ee73685e2fb6cd791ff5e0041c5c0f8b16e28af7d60001b62003d02565b6200107762005a7b565b9050909192565b6000620010ae7f2b1e68de6d43f0e19cec6745dfa61baade0800dd1a56bbd52e39777aebf27d6b60001b62000ae8565b620010dc7f489d99b50fa72fc3dea480d9cf73b7490c1e47fba05f2d3b7603a44ef73e699c60001b62000ae8565b6200110a7fe83485d541b5f143bd5ef5bbb3e5a63323c34810257dd385343ef069d658a4b260001b62000ae8565b6000600160008673ffffffffffffffffffffffffffffffffffffffff1673ffffffffffffffffffffffffffffffffffffffff16815260200190815260200160002060003373ffffffffffffffffffffffffffffffffffffffff1673ffffffffffffffffffffffffffffffffffffffff168152602001908152602001600020549050620011b97f7acbc98dd8e190d79aca9eb011baee20bb2366d3eedc8a3f04245546567cc5b260001b62000ae8565b620011e77f632dfb23fbebd40c75ff33721df2a92728772e0cb1d3deb87f207cf7cab2a10260001b62000ae8565b6200122f8573ffffffffffffffffffffffffffffffffffffffff163373ffffffffffffffffffffffffffffffffffffffff161480620012265750838210155b61019762005b2d565b6200125d7f993f4c6e8c008b0e283cc3529c046194726583f0d23a831d03ab9d99702a305560001b62000ae8565b6200128b7fa21bfb64499a28f2816f262e017191c7e2dc0edb578644d9ceb6d6514868ccbe60001b62000ae8565b6200129885858562005b43565b620012c67f3b67f6574e48078056567f4ba1258a1a8ec3617f2d45f8f2ecd901b9097c0e9760001b62000ae8565b620012f47f529b06b2bd8fe2a2596fc030aca809d39486748c9331eaa0f97a9f291e1a439d60001b62000ae8565b8473ffffffffffffffffffffffffffffffffffffffff163373ffffffffffffffffffffffffffffffffffffffff16141580156200135157507fffffffffffffffffffffffffffffffffffffffffffffffffffffffffffffffff8114155b15620013f657620013857f877681a6d4f5ab52385493f404647a433563e82974907b48b9c73d4eb25d8f6560001b62000ae8565b620013b37f49ebf7be4c1fc91fc09bd14adacdae1bce45f86764a4287ec086129f59cc26a260001b62000ae8565b620013e17f3c617a45259a8d0f0eda006c9bb5a9b1a8e8795ae8611ddf96b8b0e7ba99892260001b62000ae8565b620013f085338584036200531f565b62001425565b620014247f5a25d1eb7570a5c2ee45cb9d5f47c07a4f5842d3f330c4e822ea66497d81cb6c60001b62000ae8565b5b620014537fb4c07bfb466a59c3b85f18ad6b2ba28067a0148a55075c9336c120227815c00460001b62000ae8565b620014817fc0c735451fb918416d33d495ba933fa43d051481563b4101952e183c5b514c5e60001b62000ae8565b60019150509392505050565b6000620014bd7f0ec0a5a4261d3a15b467b2a665a72073343642fb9a1c92da9edf1309b6d2c14a60001b62000ae8565b620014eb7f57d6fbae4770d6bd21254429908c66b313d658379031dcfc56ae1e1b494b8f9f60001b62000ae8565b620015197f4cfdac4ee4de89387e0f8d9dc259069cc026be59c0f08e9423e99fbadb2b6ec960001b62000ae8565b6012905090565b6000620015507f7b9d6858a657bb5a26c48be247410cf75b9bfee57661a4a4a08a01805ba9e1ae60001b62000ae8565b6200157e7f222b27ce782393a8c5154f56efad9e2896844b5b48cee66e2acfa34ffa8fd8ff60001b62000ae8565b620015ac7fa0f6fd1e29310660eadf623e456941a8850d53fa660b85efb7e75898859e2fb460001b62000ae8565b620015b662005f72565b905090565b620015e97fdfcff9db5c0001a4a8ff88d7564521e5ae182f75503405aee3622d19b0e3655260001b62000d1c565b620016177f5a55fe4186df4e8e414a6f2504b3774e5852558ddbf409e09d2dd9273fbda36060001b62000d1c565b620016457f9a5d745b65ebafdc2adb226e0021e0ff4d4dfc023c8a49423a469e21ec523a7c60001b62000d1c565b6200164f620054f2565b6200167d7fdf78023cab09ae4709c13c466fe04a359efc7b4a528806c19241a2b24347eed660001b62000d1c565b620016ab7fe43977ecc8fc383612deaa526481dd12c217dc617de9653c2d929fdaaf26417960001b62003d02565b620016d97f23d99ded7a08dddac8712dd43904487faa99a77a20c382b416002f037975d3e860001b62003d02565b620017077f7c269407bd44c42660349a4c6a311bc95a370fcb345ea3b6070a5c5f1006dbde60001b62003d02565b620017116200609d565b6200173f7f215733b8cd9af718b2d564e08e0d1743cce1a0f8416572ea9a1f99dafc713b0260001b62003d02565b6200176d7f113412da639d269ad104ed042bf2f1855e331f611aef936c220a24c70e26183260001b62000d19565b6200179b7f49a87477b43c85f7de3f9747b8698fd13d828e70757a90eb6ed144e372b603a560001b62000d19565b620017c97f8b9d192797d729702a631d63a1b5cb94735fc47a6ad37ef2fe9996d4d0d507aa60001b62000d19565b620017d48162006140565b50565b6000620018077ffe301e3fb5f0e9589d77f6c0f03e0a0a52de96fc4a26c11da087fb8d9c4d580360001b62000d19565b620018357f80175d3f52b85a33c312e6860b6db84b400b07ee31f1f4716340da4ba769a42760001b62000d19565b620018637f0bf276956f6d10643d64cf15cc6119e6f0be2bba70f065cd4d09a5a76df4abf360001b62000d19565b7f0000000000000000000000000000000000000000000000000000000000000000905090565b6000620018b97f285a418db127efb5f6cd021300cf6a0078d60620092549a6953c67fc9acd582260001b62000d19565b620018e77f114ceb9f36364c43d03a04be3e3b8fa7f5f1d009a92f005c3eabd47e12fd097960001b62000d19565b620019157f37454846a0023e4c4812bf096e6b485507bda23503ef5bc9decf1223ad1773e960001b62000d19565b600754905090565b50565b60006060620019527fd00d0f9d8e315582b79558dc9c65a118e78d4ac0ab30aedd6c1b870f59e1eb5360001b62000d19565b620019807f80809cbfc3c2116232fc7ddf20bd0ccc5a1994945751be0533bf7862a25f48d460001b62000d19565b620019ae7fb0549788e51572f117262ee198e13b6351b1c3e8fd8a9fbcbf1db6de248cedac60001b62000d19565b620019c48651620019be62003f95565b6200634e565b620019f27fe6a9411d1a624ca193f7f745242987f48e120e115ece977257ed821766aa0a0760001b62000d19565b62001a207f0eb60a5d86ff041409ca79d4d5c71f3b1adc1e12abad427dae37b89935259ceb60001b62000d19565b62001a3989898989898989620063eb62006881620069da565b62001a677fe6f5e9eb063cee3838e517475ca10ba69ae8485f67bd0914946561e2ec9d7ec360001b62000d19565b62001a957f5cafc32c4b1c34a9bf2208f6efe20c8e7bc5469e99e056972667e852c0b332b860001b62000d19565b97509795505050505050565b600062001ad17f9e886b13fe83ddbdd49ddff84b8db0770f40ebeb89e7767374810c5951ac06e060001b62000ae8565b62001aff7fec9c727c77fe71b446b8dcb9e22621b7844e4322ac87f4636dcb1f0c806aa37560001b62000ae8565b62001b2d7f9a17f4bf3bac6a1bc30cadfc6ae50024fc3e8251ef119ea91453c2a3e420adc660001b62000ae8565b6000600160003373ffffffffffffffffffffffffffffffffffffffff1673ffffffffffffffffffffffffffffffffffffffff16815260200190815260200160002060008573ffffffffffffffffffffffffffffffffffffffff1673ffffffffffffffffffffffffffffffffffffffff16815260200190815260200160002054905062001bdc7f5922c35e5f73ae05092818b1f7b0c44797377194bd499f99f1c2077f3fd1c4c860001b62000ae8565b62001c0a7f01453c7256085fd17022dcb356a648dea5d7efac07338cbc6f102984c8db7b9060001b62000ae8565b80831062001cb05762001c407f72b36832788940f9320277c336a2d678e3216bcbc5484248c1fa638a545f320560001b62000ae8565b62001c6e7f6a5a7537a58b48123fe33961801bba4b8ad35b8798924133a54512807bc092ac60001b62000ae8565b62001c9c7f47ead17c5e97a264787958b84a42f9ca9fa2b95b49cacbbd4c630f550edf4c8960001b62000ae8565b62001caa338560006200531f565b62001d5c565b62001cde7fe0c6e1acbc0c93efa3cd3c5de89788c5297269cd45a95cc29c6449ca54e2f74760001b62000ae8565b62001d0c7faa1fa72b76ce08b04c07f37c998e79f654b5e3ea11540321253e2d6311b6fc6d60001b62000ae8565b62001d3a7f9579ff871a854be8860bea9ad6efbee0ee4398ccdcc001158a3934eaa2840f0a60001b62000ae8565b62001d5b338562001d55868562003e3090919063ffffffff16565b6200531f565b5b62001d8a7f631ba605d0bd564ce016162d98849ae6fa17331b1a63fe65aa9f9f1d1aa9650a60001b62000ae8565b62001db87fc529ad0aa0cf0174e531f67dda35d462565a02e95dc9e8ec950fe53458d2180860001b62000ae8565b600191505092915050565b600062001df37fff9f64aab65f9a3b9112d4e7ab06cf91b3bcfb97e0dc33c47581c85f9ae61ad960001b6200205b565b62001e217f9349f84e74fbdaeea9f939b04255dcca25676fe93dc6376f3376549ca8564c5f60001b6200205b565b62001e4f7f2cb94e69c5e87132b4f4a9168f69bf2b9ca873622ce047916f852ff51d0017c060001b6200205b565b606062001e5b620029ac565b73ffffffffffffffffffffffffffffffffffffffff1663f94d466862001e80620017d7565b6040518263ffffffff1660e01b815260040162001e9e919062011cc0565b60006040518083038186803b15801562001eb757600080fd5b505afa15801562001ecc573d6000803e3d6000fd5b505050506040513d6000823e3d601f19601f8201168201806040525081019062001ef791906201140e565b5091505062001f297fc4f51958a721e720bd542cfa4d90a8ce9dbe88cfb8adb17fe80eea9625274c3160001b6200205b565b62001f577f17619b402f52306a5a813df0aadc11cfafa4728a7aacca5097939082e974db3060001b6200205b565b62001fa062001f6562000e79565b62001f917f00000000000000000000000000000000000000000000000000000000000000008462006e83565b6200794490919063ffffffff16565b91505090565b50565b600062001fd97f8a275c2e660f9a4d5678c559801e3b18bb86791f15f75887071a06694dcb878360001b6200205b565b620020077ffc49fbfdf77df8a43a3d08f550b1b5661768d0caf3db4fca80a1b94788f41b2260001b6200205b565b620020357f8e1af382087195aae39948339a3a882ddeee4e4c99b1247c983f354b32d1156b60001b6200205b565b7f0000000000000000000000000000000000000000000000000000000000000000905090565b50565b60006200208e7f382873c8fcc382f0d728db834c0253683b060b98b38095c9ec22b0eb55ea9d1360001b62000ae8565b620020bc7f46809fa8f85043d4775d1937cae706044ebeccd6afb406b6884876e43d3b6aab60001b62000ae8565b620020ea7f015c91f06107538327f54221a477c8cf22ce56a6baae0977d4d148884d91a4f360001b62000ae8565b6000808373ffffffffffffffffffffffffffffffffffffffff1673ffffffffffffffffffffffffffffffffffffffff168152602001908152602001600020549050919050565b60608088620021627fdd52ce016ab88502475a9f8c20f752026c9c2793f1f27d0c3b494bdf7b8d9bf060001b62000d19565b620021907f72a1f0b2f1d25bdbf83480373af9013699bce84383d6f460dd26b38d011cf32460001b62000d19565b620021be7f22a605e4bcee3655558144f3c490cc2ad41bca63475115b0ce03d03a1692b17560001b62000d19565b62002202620021cc620029ac565b73ffffffffffffffffffffffffffffffffffffffff163373ffffffffffffffffffffffffffffffffffffffff161460cd62005b2d565b620022307f44232f0ff3d40cba9481fb4d269d06b417adab8a55c98347625c743971fba4a960001b62000d19565b6200225e7f1686b60eafe382648cef0e2b96e7f7e45a56158e338ce9d9825e7d2953edeaf760001b62000d19565b620022776200226c620017d7565b82146101f462005b2d565b620022a57fa08ef644db2448ff2bd68848260ee4a58e33fda7588b1604f90e0d7e8958a63260001b62000d19565b620022d37f4978584acfb0c9e3b99eb8356c656aaa2e2a97f7fa8951f0e26f82a5e9f203b760001b62000d19565b620023017f7146a8bb4cbd6d6e8d69aa42f8d23e970fc5b006ec117817990b7492222b8ce360001b62000d19565b6200232f7f548abe558f2c0f8f1edd3c9f40539c44e7036e85f79139c481766e160196ae7a60001b62000d19565b60606200233b620040f1565b90506200236b7ff4b7c4c45ec04ddb05df92fe3f82d61149fbc48a181bd7aa8952a01cec3f884c60001b62000d19565b620023997fa0b463a5bc8f7376734740d5007921bda5c5c73ffeb87abc8999393bce38b60060001b62000d19565b620023a5888262007c62565b620023d37f1e067f344ee15af07b4474172bc7014bfe7185aadc486b08571763d64755300d60001b62000d19565b620024017fa7c04c9eacf294db3a08c74349ea539022972c33a0dc8a4406370dacfc9c4c8060001b62000d19565b6000606080620024178e8e8e8e8e8e8e620063eb565b9250925092506200244b7f836867006c52112c0a7d182091d40676e6bcdfc09ebaf1ee19633b167e534ea060001b62000d19565b620024797fc0d3125cbd7c78056c00c7fa2e4fe531951e8bd9695c718cd33cf3589f438baf60001b62000d19565b620024858d8462007dbb565b620024b37f5aae61c9a2fd379ee68b751df20f32ae942d34b7a359ec40780d18f6c115e4b260001b62000d19565b620024e17f094d83c8b7d63e5afadcf369364c7835e4e8c95f604b2d2467a47d96a932908960001b62000d19565b620024ed828562006881565b6200251b7fd3fd1432044cde2c44eec943f9b10959e065d4de4588bc7e3a496d0ccee388cc60001b62000d19565b620025497f579d91694145efd38c311a1879d45490023e0922f0e7172f135d76481d4ab0b660001b62000d19565b62002555818562006881565b620025837f33758183f50feaf3f45bed6947ec4daed3a88ade065eee7e7d007481b6fd712360001b62000d19565b620025b17f914b1846b3ead69d4133b352d8fb69003ab024d2820dc0f6e069e45714adc3ed60001b62000d19565b818196509650505050505097509795505050505050565b6000620025f87f82244de36650365c37b1ea38d8ab1911dfba5dc66fd1822227b8536c60a153c560001b62000ae8565b620026267f89e532722baeeeca9424921b54a4e64c5f5d97531b3e795b9b95707e8bfe3b9360001b62000ae8565b620026547f9b9a62eceead51d5e1371b1d60e41966887c24d6bb4e0b425baf8e47d3144e2a60001b62000ae8565b600560008373ffffffffffffffffffffffffffffffffffffffff1673ffffffffffffffffffffffffffffffffffffffff168152602001908152602001600020549050919050565b6000620026cb7f5b6d744b9984ca0f940181ee5e7f3f9141a56799465d611578a724e75da3f27360001b62000d1c565b620026f97fccd34a442ea9189944d6242d7d944d51762e07badd0e467c1d9ef323954e783260001b62000d1c565b620027277f9b5e1c3ba3409b07d3693e410c8f9054dc20b55c829e32dae29721db02bf3ba160001b62000d1c565b7f0000000000000000000000000000000000000000000000000000000000000000826040516020016200275c92919062011b86565b604051602081830303815290604052805190602001209050919050565b60006060620027ab7fba98e936cdef4ca96e4dfb25705c691ebe165486acfee29b5b8132b7532799e960001b62000d19565b620027d97fff130e20b5fc0d021e268e5f797f3c0960d15e2c8cf09ddc717cbef39bf75edd60001b62000d19565b620028077f0fa44d67d48b396752cb98cea1cda5e2edca18b74cb3cd94b7b18cfe2dd817e760001b62000d19565b6200281d86516200281762003f95565b6200634e565b6200284b7f5474bc8c6a7adc8ab6903f1692d1596426e1378ee7839217201aef377341423360001b62000d19565b620028797fe4b38edf3ee35958790d7ba6866e1285f3b3dae2db6a57180c2241647fa950f760001b62000d19565b6200289289898989898989620080d7620084be620069da565b620028c07fa85c5cf1d2b90cf94d4ab2d8932918e5209f8a33fce8d5e6d71bc07366507ae460001b62000d19565b620028ee7fa3ff671cc525290dae3036cab8f73fff16c4ba80317c39306b32477d80ff358760001b62000d19565b97509795505050505050565b60006200292a7f9c9b30d982dadfcdef9de212bac830915a4d1caaaa28d64e1033fa6637fb8a9e60001b6200191d565b620029587f6bb33126893ed90bb9a6374d2ef750831530e2021ba352adfb8a6ff610d4d16b60001b6200191d565b620029867f04f24c8d535508dc1885ac2a967a18e700fbe86b4081bac79230f350b560f18a60001b6200191d565b7f0000000000000000000000000000000000000000000000000000000000000000905090565b6000620029dc7f228851fc2e8857a81b46c81fb4c613c64a9c269aa98535e1e985953789ef2f1b60001b62000d19565b62002a0a7f534a6db9a52189f1345fce6018b162f1e308c199d21a3bbd28ebc4431561860860001b62000d19565b62002a387f11f8cf21c3fedd0af08cd8e6b4cc6250e7b35b668956799d73c2c4de887a211060001b62000d19565b7f0000000000000000000000000000000000000000000000000000000000000000905090565b606062002a8e7f1b09bd64ab4c8210a35428f1ebcf545cbe7c19d4fed39554617e53111611734a60001b62000ae8565b62002abc7f6a0372273e898356c46874c4805cc38713baf71f5da51f956f2c0caea21eacae60001b62000ae8565b62002aea7fdc97ed429cb526ace9069d77526e830a568ebf7c714325c4b9a7f50c245d38be60001b62000ae8565b60048054600181600116156101000203166002900480601f01602080910402602001604051908101604052809291908181526020018280546001816001161561010002031660029004801562002b845780601f1062002b585761010080835404028352916020019162002b84565b820191906000526020600020905b81548152906001019060200180831162002b6657829003601f168201915b5050505050905090565b600062002bbe7f6deb191175557e21e4d5b5048415d02d1ec203d2bd1340ad5ceab8c8bbe5637a60001b62000ae8565b62002bec7fd80de844ca89d8d20c246318e9b8c31bf9962c8573820b07b2d59addbc0bd06260001b62000ae8565b62002c1a7f7303993c8221041674f06a2709b06c531d6c945aa2593134189fcc39ebabfcac60001b62000ae8565b62002c2733848462005b43565b62002c557fe51d6f2d5a55f449e5620034e7576eaf2db66cf857562e9da7e8cb30115fd3df60001b62000ae8565b62002c837fda42cdc715c33e6f9d242db4cd8e8b9c0b2d64bf1b38ae911fb46754752d016760001b62000ae8565b6001905092915050565b600062002cbd7f98f97f59cb131fb82cfaee06e3cf383c35cb150c5a8fdeaca8eeefd8396a6e7660001b6200191d565b62002ceb7f7d4359fef2acd5fc57a14345e963109c58bcbbb9bd9e0113a171f687be8af81d60001b6200191d565b62002d197fd33f29812c982b3eab2164dce71d52ee5a5ef4e53b0a1b101eac738299ea9ab360001b6200191d565b62002d2362008617565b905090565b62002d567f92d8088417b633aef9db9560d22473cbb0829dad88088113714e86b3045ee6d460001b62000ae8565b62002d847fe6d99ef77a15061b9388a4be137bce3ab9f89da5d47b6cc0381b37556fb366a560001b62000ae8565b62002db27fc9ec9b33c0a89aa9c06a0e246f7266b0b7f56e99dd89ff9fde5facf1df91f04960001b62000ae8565b62002dc28442111560d162005b2d565b62002df07f0d5d3b7479f11a85af9f69520d511f16edad0d20279bc39c96adc2a9693e424b60001b62000ae8565b62002e1e7f1837a5abb40ba9b89d45d3bfa614f5e0cef7c17ae0b08272496053cc719990de60001b62000ae8565b6000600560008973ffffffffffffffffffffffffffffffffffffffff1673ffffffffffffffffffffffffffffffffffffffff16815260200190815260200160002054905062002e907f71c573ac129a542e0ef7ef0f274613fa70efe280b19ce94bc4bb330b0ac321b860001b62000ae8565b62002ebe7f49e5eb4019850e3ac49c419ccfe5374994591f79430a262f0d42e4383deff1d560001b62000ae8565b60007f0000000000000000000000000000000000000000000000000000000000000000898989858a60405160200162002efd9695949392919062011d1a565b60405160208183030381529060405280519060200120905062002f437fcaf67d9ef00cb0711a1a79c9266801d8b10566ad258627da9176df7ca508468860001b62000ae8565b62002f717f9e88cd1db5d0da84d0f42b5642e94676eaeb714dea06cdbb54a90fd2e501453560001b62000ae8565b600062002f7e8262008733565b905062002fae7ffbb8f77bb41a1d90f4c692267119eb52783b5c658a90b6b4be513a7b0c8b614a60001b62000ae8565b62002fdc7f37d2d51bb038651f842276de0361db8fd6b148f3738f07359c9ad4f6d416187d60001b62000ae8565b60006001828888886040516000815260200160405260405162003003949392919062011de4565b6020604051602081039080840390855afa15801562003026573d6000803e3d6000fd5b505050602060405103519050620030607fd1d138253e25432a8badf5378b017a1388c994f997eb395294878705d58b96e060001b62000ae8565b6200308e7f84f8670eb58ab07f1e88c484c695c261c0e65808f8ba9e9b0c51d9ffdc84902a60001b62000ae8565b62003104600073ffffffffffffffffffffffffffffffffffffffff168273ffffffffffffffffffffffffffffffffffffffff1614158015620030fb57508b73ffffffffffffffffffffffffffffffffffffffff168273ffffffffffffffffffffffffffffffffffffffff16145b6101f862005b2d565b620031327f22d7de187d767badd08d0f56b9032ebaf3425b342596c16a4d6c074cf3f87aff60001b62000ae8565b620031607f177abef53e1d0dd58ac47c7df006757d5d6f236a0aa590407ec19064e1ab44ae60001b62000ae8565b60018401600560008d73ffffffffffffffffffffffffffffffffffffffff1673ffffffffffffffffffffffffffffffffffffffff16815260200190815260200160002081905550620031d57f4cdd763c9803f8c2ced5b3f501b434276e7e1cbed3e20f3bf45228060143216e60001b62000ae8565b620032037f0889d4543369d8b61a6a795ec77232055ddea529d88d80d8fbb5228a924dff2060001b62000ae8565b620032108b8b8b6200531f565b5050505050505050505050565b606080886200324f7fdd52ce016ab88502475a9f8c20f752026c9c2793f1f27d0c3b494bdf7b8d9bf060001b62000d19565b6200327d7f72a1f0b2f1d25bdbf83480373af9013699bce84383d6f460dd26b38d011cf32460001b62000d19565b620032ab7f22a605e4bcee3655558144f3c490cc2ad41bca63475115b0ce03d03a1692b17560001b62000d19565b620032ef620032b9620029ac565b73ffffffffffffffffffffffffffffffffffffffff163373ffffffffffffffffffffffffffffffffffffffff161460cd62005b2d565b6200331d7f44232f0ff3d40cba9481fb4d269d06b417adab8a55c98347625c743971fba4a960001b62000d19565b6200334b7f1686b60eafe382648cef0e2b96e7f7e45a56158e338ce9d9825e7d2953edeaf760001b62000d19565b6200336462003359620017d7565b82146101f462005b2d565b620033927fa08ef644db2448ff2bd68848260ee4a58e33fda7588b1604f90e0d7e8958a63260001b62000d19565b620033c07f46ec2214567eed137044132d4194f1c924f4c060e5ffa0c36425639ae078686260001b62000d19565b620033ee7f34f33f4da7f7b5b6beca15691cce90b393284fa18ab665ef4f979d7ba668b75160001b62000d19565b6200341c7f41850859b7aad332a49e350912634dc754ddd72f15e16eb9c08cfc5fbcdc917f60001b62000d19565b606062003428620040f1565b9050620034587f32d4ce0ed69003274015467297b5008ec37122d44f4070b847991d690b3476ea60001b62000d19565b620034867f2ab99d3b439cef37bb5db1bf35c3833df3cb97ebf03d8a45ef9e121a5142a8c460001b62000d19565b60006200349262000e79565b1415620037a557620034c77fea3433161ed476bec1be6bb256af3412f73e239bf1d31f223f8654f1ba60eb8060001b62000d19565b620034f57f7eca8429823f9a4a3c30156d8244186884f94acbe80dd8b4b8a6fe8dcc2f0ee260001b62000d19565b620035237f27f8e3d0f4c1680ae0e0bf8fd4ef68029f7756e06db2f52e0f668323244f50dc60001b62000d19565b60006060620035358d8d8d8a620087fa565b91509150620035677fd15fa2c9dfc7decb1ecaf21f1f39ff748bdba866a98911751fe1c93b22f0341a60001b62000d19565b620035957f3c146b958c6efa242bb3eb6288bd5a37c7ed49c86a60ccbf1bf0824410bea8eb60001b62000d19565b620035a8620f424083101560cc62005b2d565b620035d67fa34e9d7293c57aebadbf6919e98ffba1b2f671ff406e081dca6d7e0f365ea51860001b62000d19565b620036047fa74d37d84e980d05e719b20c106e44b40fa7fefca68b7127480c584cbbd4bb6560001b62000d19565b620036146000620f424062008cea565b620036427fbc1c70b29a80a0aa330372c19d123e9858182c26283444c7d80900ebf8ba953660001b62000d19565b620036707f21d746757b715b6905c0fb50c34fddd483458585be03f140506b9095fbe0e22960001b62000d19565b620036818b620f4240840362008cea565b620036af7f91bfa1e0fe97dff130a501c99ee8b5d2deecc3ac371afaf4093828a73d185ad960001b62000d19565b620036dd7f8cb7df7607dcf934a91b4a5959f1d031a74af6049028ee10038c2491917d6c9460001b62000d19565b620036e98184620084be565b620037177ffc5eeed21761bdd227da61b8677551912ed74b72c52b8204d88a61e51e70850e60001b62000d19565b620037457fe622457cbedf2b813a4e174328c84816851040cff22a62e9814424b2c4bb0bc860001b62000d19565b806200375062003f95565b67ffffffffffffffff811180156200376757600080fd5b50604051908082528060200260200182016040528015620037975781602001602082028036833780820191505090505b509550955050505062003a52565b620037d37f6a9c19d9a1c5148d2a471d6ef29900e2cb13b29ac0d172bb662a4b92eb1161d560001b62000d19565b620038017fb7140b63c91a0e65b2d1b6857658d3e1c1b4a47863d19115d807e0b1a8123f0c60001b62000d19565b6200382f7f084a8a8251a8b660f3dfc378593377bf1fdfc92b86cdd1a8bb6791aa2735a75d60001b62000d19565b6200383b888262007c62565b620038697fe0bbd7cfaf875f5310d3248d2261659c2ee4660821ba9eb9ee559d4d2657b7aa60001b62000d19565b620038977f6efd53086dafb0d265c98ef28dbd6ddf0f499c8f42e2f3ae939ad1970e5f804c60001b62000d19565b6000606080620038ad8e8e8e8e8e8e8e620080d7565b925092509250620038e17f675b257735af140e002a3e9131359820ab14127ef70b32915e782b7111fd281c60001b62000d19565b6200390f7f47831360a9128d2a39db19aafd66ca05820f93a0e7e54b904f495a98d57fb06160001b62000d19565b6200391b8c8462008cea565b620039497fe39f3e029ec72aa928f7b20b2ba0f199b8f3daffaa8ecae5348a3f948a628afd60001b62000d19565b620039777f7f62b25c4a80bba61fd39be53125ebfed55e11b7da8f1c6259f35d47b5fdc45b60001b62000d19565b620039838285620084be565b620039b17f232a996b66398d167279170535514cce51440ab05c577fdc50d08eb1b69773a160001b62000d19565b620039df7f991a61d62997ae60cd83b6f52d07c1ed715b70afad2de8c6e4934cb80c2a7dd860001b62000d19565b620039eb818562006881565b62003a197ff48009596e711481c620a7d2650fd3d755e07f569f4e846cf9b39f35497b043960001b62000d19565b62003a477fa9f747aaaf0b9777d744d2f62bae0085b56691ddbb20cce7943f4ce383dde83d60001b62000d19565b818196509650505050505b5097509795505050505050565b600062003a8f7fa9b98a594d3b5c774b74cd6ed48cf8dff4f80392c6473684179cff7500e6444d60001b62000ae8565b62003abd7fd034439f5728cc6dbb46c15a010144ca40c85fb7a49179a37ddd6688258ce6d860001b62000ae8565b62003aeb7f1d2f27b8fa67c9b6dacc27947e01a8353fd11ced3843151e63c744482bcacdca60001b62000ae8565b62003b88338462003b8285600160003373ffffffffffffffffffffffffffffffffffffffff1673ffffffffffffffffffffffffffffffffffffffff16815260200190815260200160002060008973ffffffffffffffffffffffffffffffffffffffff1673ffffffffffffffffffffffffffffffffffffffff1681526020019081526020016000205462008f4a90919063ffffffff16565b6200531f565b62003bb67fc624b982209d34d3063563b50888b38b0f028ae195fbfc8489f5a7881b9247f360001b62000ae8565b62003be47fff5d9bd3a30bd6cb8e1f7d6662787c729ac63a8de91f644f3e41ada4e2fc577460001b62000ae8565b6001905092915050565b50565b600062003c217fcde1da088e653348a27e3db5513a0b32042c7bddb19b9d92e981f2506dec065160001b62000ae8565b62003c4f7f0a42362e590384ffe636c3826e148b566dfbecfc831f0684dd9f6a23b8e65cd060001b62000ae8565b62003c7d7f09be738a1bf0b0516ed2f8bc0f08cbe34a749c8983227a44bbf2e5c671b575d760001b62000ae8565b600160008473ffffffffffffffffffffffffffffffffffffffff1673ffffffffffffffffffffffffffffffffffffffff16815260200190815260200160002060008373ffffffffffffffffffffffffffffffffffffffff1673ffffffffffffffffffffffffffffffffffffffff16815260200190815260200160002054905092915050565b50565b50565b62003d367fccd7e13b327ad13eb1cf5266c6b879986903b9a1f80b6661c959488e5f0fb6d660001b620090af565b62003d647ffebde624b7e9ce0b255ec134f0aeadd3b2108737eef3a0a39d228170f9130f0060001b620090af565b62003d927f2ada8f09730243aac13b03ccb80c149c6ebadcaf132018bc0ae05b400c3e067c60001b620090af565b606062003dc27f394297b1718752bb0ef7436c53e94e02c76dba2f63de8907998210a9ab652db560001b620090af565b81905062003df37fe19f999020959db22bc5ee4f58ef119cc222f2c75a6691c1d02afd22bb0d832160001b620090af565b62003e217f251d0080a7ba22b7ea3a753b97fd5fe79dfac363028058899b93fa1a626ac53c60001b620090af565b62003e2c81620090b2565b5050565b600062003e607f4ad272e8ef896cf9749bbb33b720ec50902be1d6268b31d272f37eeffc01139760001b62009466565b62003e8e7ff5b8f6315ed04f6f880d15c913444893b354f451e1a7755f980256aa3a67eb1b60001b62009466565b62003ebc7fbdc5b111411beb8ab6b53375bbc8bf4e74258c8c8f4987a4928ce54801c48b0060001b62009466565b62003ecc83831115600162005b2d565b62003efa7f878d38a5a5b3291f5b62618821c286b1ce4d8ac1fde0f5c52c6f8b253e3c721860001b62009466565b62003f287fdee8db45952fd0881a888ce099e6774ada46e04a8240c739354e8b594734d0b160001b62009466565b6000828403905062003f5d7fa883eec5840f8062e57d5a86c35fd0af17f6df22b4081b6a3676dd71088ac1e360001b62009466565b62003f8b7fc44e06103de1985a150207dd6e5102796da4ff917908533e00a2fd2e75a52f9460001b62009466565b8091505092915050565b600062003fc57f17ce6d081f74ee08ef9e48f9425d456b2b399ccaf069b78b5c8013544e73f87760001b62000d19565b62003ff37f14cfdc4a355e739ff803b919d9d0b04b5dab2d93ca1a0140e4f5277afb36025060001b62000d19565b620040217f1c8361d142604e5136f753badce0ac4ea65494a8afc6d6ee415a20f7201a3c7760001b62000d19565b7f0000000000000000000000000000000000000000000000000000000000000000905090565b620040757f2b6fe40afd3af80a54cc57fab5a5286c49f7964a42e315bc0cad93f4ba4c355460001b62003bee565b620040a37fd5cd3d562dda85382ed0d3373388af1d1bdc27a7a5ad00f964b646300b8f178a60001b62003bee565b620040d17f7cee3ea0b3fd02e4c187cc468a52666a85ca57f88f45499add7b4be8772179a560001b62003bee565b620040ec8184108015620040e457508183105b606462005b2d565b505050565b6060620041217fd86c84112f55ff8fd0f287586e41577aa9fd2656498052055b6f0b479b592da760001b62000d19565b6200414f7f7205aa61f849fa338fd1d065d09e5bc1fbfce1d33e24a1aa8bec86a3a0af103f60001b62000d19565b6200417d7fd0b1186bddfb801d14f0cad39f5d5da4501599c4070606a7f4557a2e2965b89a60001b62000d19565b60006200418962003f95565b9050620041b97f828d552e1d0a113ea66f6358e4623f01d242745c1a5abff9b048ec0a5388ceae60001b62000d19565b620041e77f5d510274170e1618dd61a4c76372ad342a5e16310b4249930d5bc59e03c0ab9f60001b62000d19565b60608167ffffffffffffffff811180156200420157600080fd5b50604051908082528060200260200182016040528015620042315781602001602082028036833780820191505090505b509050620042627fa9ce48567334fc57570fa66e8f90d08ae562916978286dd9ba55155a36ebae4f60001b62000d19565b620042907fa9b6e6ba39e059e00866d68c45cdc1644384a6d6dadcf8d3b6912fe6e39607a860001b62000d19565b620042be7f019e45a1e619f4a38de0bd317809b09bc61807775ae1f9372812bf8a1220becf60001b62000d19565b60008211156200436557620042f67f4324c26857571706dc3cd0fddec6f27691b4cf178f10946cbf328f86a366d34e60001b62000d19565b620043247f67a50c890c0145d3188e36fc0e6dffabce42de7fcc66e4ffab024e22600f0d1660001b62000d19565b7f0000000000000000000000000000000000000000000000000000000000000000816000815181106200435357fe5b602002602001018181525050620043cc565b620043937fb73639d9108d94840dfcd31987cb855b3d0b3e9a918d19143478f251671bb45160001b62000d19565b620043c17fd0a66d198ac1cdf3f775a3f3e7986aa0ada9182b02f4b88389cc3d872d13a9c660001b62000d19565b809250505062004e12565b620043fa7f1b922a519bf1e0c0dbf2bb5a5e8e68f1ee34e8c1b16d9aeb857974bb479991aa60001b62000d19565b620044287fc393908bf95626e50c35833003e11d2ed6f75d32aaf155473442cc2ad03cc15b60001b62000d19565b6001821115620044ce576200445f7efb3aa1902324212d245dd8f03d13036917af5848b625dae04cd778c978273960001b62000d19565b6200448d7f3a0aa1d4f71fe201d9ff0d509d4a8eaab3a9629f622ff5e6e611c83681ef37b860001b62000d19565b7f000000000000000000000000000000000000000000000000000000000000000081600181518110620044bc57fe5b60200260200101818152505062004535565b620044fc7f7315fb1281044947124b2bde95f42b0f836a406ff81e2aace136b8054312ebb360001b62000d19565b6200452a7f12954f852ad3b6950baa57a93a51f86a77c726563c28295b9bd7cb04ccd46b0260001b62000d19565b809250505062004e12565b620045637f3174961a8a0703211b33161b3f7195bd8004f857c029bc68796392092f0f259160001b62000d19565b620045917f3a2beefc92b859be4792c8a256e16737737d1d9fb6e8590ba63d73b30ff3308360001b62000d19565b60028211156200463857620045c97f105b6e510a033c319ec4d8322948d2b3ead4f8a2da9df5e2c529c95effc7004260001b62000d19565b620045f77f911de324185adbe72455166f64823424cd452d0f03c474c6af1ba0d29648c2e760001b62000d19565b7f0000000000000000000000000000000000000000000000000000000000000000816002815181106200462657fe5b6020026020010181815250506200469f565b620046667ff8af2c676e27a6792d91ce7f8a3a168544a86c105d4be274c7b3b244cc9fb07460001b62000d19565b620046947f0747d730c261a86eb9233b5e4a9c08819797c64bfe050f59b343ad2fa6b5684f60001b62000d19565b809250505062004e12565b620046cd7f9b62dc14c71ad6e7c3b41235034a475d95cb32f00a020945126ae01348a946b260001b62000d19565b620046fb7faba93c841882a3d79e86136b0ac11978d2e1a15a42098298daea7ef05fc39ee560001b62000d19565b6003821115620047a157620047337fbdabfb556891e82cf0c61d8df5a5095295586162f9df3bedfe3416533488258260001b62000d19565b620047607e261a8dd9fcbdc713975c38bafd2f8110695a117c487ad644451005f2655dd060001b62000d19565b7f0000000000000000000000000000000000000000000000000000000000000000816003815181106200478f57fe5b60200260200101818152505062004808565b620047cf7f253a5b765ded2348f383fa791bb73f1ac1ba82f8b04182b5d08a2d43ccb80b7460001b62000d19565b620047fd7fee64837736fffbd46c36b3842c91ed493c728e2c3068e855a0587d602c99812960001b62000d19565b809250505062004e12565b620048367f1fc8d2538890d89dd52b3544d7c1a9ebafb28bc7e64e71bde855c44eb03cf0f060001b62000d19565b620048647f18447e7ad41d260818592214b6745fecdb3d9362e863b006190e435cd2d384e360001b62000d19565b60048211156200490b576200489c7f44b8df3a8be5ef22e947104c4c7ee25b121375f928fe8ac97c9bfd7bcf3cb25d60001b62000d19565b620048ca7f95bc2d8c9b0293c36421acc607c604a32af599db95841e37cf6a56e82cbec20e60001b62000d19565b7f000000000000000000000000000000000000000000000000000000000000000081600481518110620048f957fe5b60200260200101818152505062004972565b620049397f99cc19f4f1a1fead2ed820cd2005905cbcf0d85c04ebb2508317158cb90786db60001b62000d19565b620049677f37169960d49190a1086588dfbe52bbc1d25ed1d1248085bdcda9a043999ad87d60001b62000d19565b809250505062004e12565b620049a07f779fae42a3f1098129d8c2aaeadc899dc0bc5a9d3dc4e925b41ba2697699e10860001b62000d19565b620049ce7f8d072067f9854367e01572b0c5fc9b65f1fa3ca05e6dba24571900c409dd9c3260001b62000d19565b600582111562004a755762004a067f39edf9c4d54d7ebb2f348f721d2b44a2b2ac520e2f5eebd0f4f99cb18735cbb760001b62000d19565b62004a347f06fbdb6c60ee8dde13298897558bdcd611bec7ebad5662c51b2a2ed3cd7f1bfa60001b62000d19565b7f00000000000000000000000000000000000000000000000000000000000000008160058151811062004a6357fe5b60200260200101818152505062004adc565b62004aa37fc36337fba2bac108e02d0da9a23104862ac3d4d156c8cda6da5c5371fb1967f960001b62000d19565b62004ad17faf2290e81ea38dd9e66b797b1cf6306c4c5a33d5b1c7130150bec269b22abbd360001b62000d19565b809250505062004e12565b62004b0a7f205a95b712482e114dd198a94f4b595009d4e1e1a4f74db8f3561da3150e422060001b62000d19565b62004b387f0e9bc5b8e6cbb38d93307a3c08c600a39b8bf6c6f6ee63e45b095a7170f8685b60001b62000d19565b600682111562004bdf5762004b707f21738df5ccbdabdcbdc4d8a34dfd2d894335aa83f01f8e0a5a644e9466e876c460001b62000d19565b62004b9e7f02aee8b2d8563d0ba4a349e78bd86396dc0389b42e721fd34e93753c65c1f33960001b62000d19565b7f00000000000000000000000000000000000000000000000000000000000000008160068151811062004bcd57fe5b60200260200101818152505062004c46565b62004c0d7fce54e51582638ff24f6836d67760413627ffd5f113d684e30b6ad19d04fea44a60001b62000d19565b62004c3b7f4dbeaa5a03e8fbc1c7d5c50ae765a226a7980e3520653b5d3d3e1af44d944b6860001b62000d19565b809250505062004e12565b62004c747f835d355022ded406bd3ad94a8aff53d21113e8e0b8812b87f09a1e9adcdfa72360001b62000d19565b62004ca27f49ea287b0528f5861d17cf8fab05c6fd21d3959fb8eb28c2cff57f577bedc56b60001b62000d19565b600782111562004d495762004cda7fec357bbe3cab77528918458867085574045e788ee00af7270f0814d2ceebb0fd60001b62000d19565b62004d087fa6fbbc78ced0d25707dc31df0a791deb0e3cec5a869d5a6233764ad13653f71260001b62000d19565b7f00000000000000000000000000000000000000000000000000000000000000008160078151811062004d3757fe5b60200260200101818152505062004db0565b62004d777f4abbf8d7037b8456e1cf4ad70e0e5cbe12a107d351f9fe0db222a85e47e3cb9860001b62000d19565b62004da57fafebd02c2241e266b33106b56a6cf556865a4d11c2b2d804a095a0b2b52942d360001b62000d19565b809250505062004e12565b62004dde7f22f920bb3779a24a0c4187c98bda6b33284d75e61ad5a4304caa9e919602b64460001b62000d19565b62004e0c7f66437e35cd7f87e11d1288760b01698057fd1bfcd1106b604457121d4ae0fcc260001b62000d19565b80925050505b90565b600062004e447e7185904d216b644d7a2142bff7f084df0448a3b08ca61fb69ee5df3c7ac6a560001b62003bee565b62004e727f54e6058384a8c466ad0526c1e804f047c59d2dcb258ad1c2494bb8773c4daf0460001b62003bee565b62004ea07fef56fd8abfedbccbf2259139057216914f4617c56b330dbc7ad81f563817108460001b62003bee565b62004eac858362007c62565b62004eda7f2023376bb84781a4e2fd167df8c5a12ab3bc5f180e7689c0e9a611305f64d95660001b62003bee565b62004f087f17e9b3f36d202386083449d8a529b3f4b3edf878213ccf75dc09fc4d6338586660001b62003bee565b62004f2c866060015183858151811062004f1e57fe5b602002602001015162009469565b86606001818152505062004f637f2d218fe522846e81d8336f94514e3dbbd781e1819eb73b38021c2c9649421b4560001b62003bee565b62004f917fa4a2ac16df52bacbe3041579603a199f8ba6d72fbcb693f490ad2cd2bc50d1b060001b62003bee565b600062004fa18787878762009509565b905062004fd17fab97c7e46ae75e988ff20e1ab224781aa9ee03a32c2eaec42cf156f2cdfe0f0560001b62003bee565b62004fff7faa044ea041459762cfdd97d8c25e923b12e123a350ee08b4a865988de1f76e2560001b62003bee565b6200501f818487815181106200501157fe5b6020026020010151620096f6565b90506200504f7f297c4e648036ff250922f901871832f10873dcb2e34432583b6104a6a128af6f60001b62003bee565b6200507d7fc945b3026c0ce9fbf44a5402fcd3672d874f6ea5a8d74ffd89692d4cecb13ffb60001b62003bee565b620050888162009796565b91505095945050505050565b6000620050c47f15920a56c3ff62f91d8e8076edc794c306f32b8241957f961a9558a610a8ee2060001b62003bee565b620050f27f889d0e80dbd5669c237dc47bce6669c38b299c6dda7250cb4260528661447b1f60001b62003bee565b620051207feb8ac3ffff807ea7eb949184c5151dd72d7eb4d2064a56c3f7574ca5808c0ad060001b62003bee565b6200512f86606001516200984a565b866060018181525050620051667f211a1fe7fc0e798d992c65e19d8a3107138c5b3e133d3e20b2d65a29954b2b4060001b62003bee565b620051947f24ede3d5cbb90e00c1213d2a4df80b48294f6e0c2248b30cd9df8e4dd88a80fe60001b62003bee565b620051a0858362007c62565b620051ce7ffc3654ecc65e61fc3b4c5503f0d004aa4f0fd238b0bc978075cb2a4cb1d0048860001b62003bee565b620051fc7f6c2be64f2be6f49d4b3fcc51993cdbac00848e1429640c86a67bf228960e749360001b62003bee565b6200522086606001518386815181106200521257fe5b602002602001015162009469565b866060018181525050620052577fc1ce7fcd4a19910c461bb0bdc7fd48b77c5a130782c0513dafbcaaf71af1e38960001b62003bee565b620052857ff7e3ad656a24dbd3ec2e8ae272725614674a000403554e76ac7fdd66e055ecb560001b62003bee565b600062005295878787876200996a565b9050620052c57f40c43d61c656cc4cdf24f4a551ed885c02f08c279cb09b00474360694ccbec6260001b62003bee565b620052f37fd9e2b377940e097178b9e7dc677bebf81e42d8857a6f7025c498f6feff00231660001b62003bee565b62005313818486815181106200530557fe5b602002602001015162009b57565b91505095945050505050565b6200534d7f9a5b448a21cd2032fa5308aa257d4351306ac960be62691687d8894949250e0260001b62000ae8565b6200537b7fb03e90560bcfc6e147e178f704890e0476a2bc183a28c6a21d4ed276077228e860001b62000ae8565b620053a97fa23e95d7dc0024c00091f5622f8bf7106ac1268477fb653af8c6c9fac644c9fc60001b62000ae8565b80600160008573ffffffffffffffffffffffffffffffffffffffff1673ffffffffffffffffffffffffffffffffffffffff16815260200190815260200160002060008473ffffffffffffffffffffffffffffffffffffffff1673ffffffffffffffffffffffffffffffffffffffff16815260200190815260200160002081905550620054587fbf7482d78d5e209f32f7d094fd2c863fcba586e8713beafce89fe20750e8a3ad60001b62000ae8565b620054867fd9fd5feda47756822224f2afe37e079d8790fc04a9924ac7a21fcd251c76cba560001b62000ae8565b8173ffffffffffffffffffffffffffffffffffffffff168373ffffffffffffffffffffffffffffffffffffffff167f8c5be1e5ebec7d5bd14f71427d1e84f3dd0314c0f7b2291e5b200ac8c7c3b92583604051620054e5919062011e8f565b60405180910390a3505050565b620055207f037c1c31a242abc9fe85f7897d7e3db2fbb4a96d88800fd61753b3feeab291a760001b62000d1c565b6200554e7f9b69ded238e1f105af3c724db26f035e19242e09a189005c88d1afb44e2dcdf860001b62000d1c565b6200557c7fb34966d8df6692c5bb03465c646169e626a9b8831246d3a50e8307b39c31ec6760001b62000d1c565b6000620055ad6000357fffffffff00000000000000000000000000000000000000000000000000000000166200269b565b9050620055dd7f3851df8b489ea432cbe9ff42b63c2ca5f69a63da3d74f1fe1778c5c8160ce22b60001b62000d1c565b6200560b7fd4c39b3623449b73860af568247fe45de94492dc66e5806084c17143e9fc8a8f60001b62000d1c565b620056246200561b823362009bf7565b61019162005b2d565b50565b620056557f9ca88045db8d949814438a13bf21b48aedd95f5ff425c78bdeecf9e554c20e0c60001b62003d02565b620056837f4484fae8b8c9b656ccdd7654efc847550084d7ff8a53c71d79f033cb2841200e60001b62003d02565b620056b17f3a1188fe57cac37044a89dd8e5528114be6e1007b6406a553d38ef12bd40128260001b62003d02565b80156200576157620056e67fdda645df7e98b889b69605a1bf756afad35a07ce30b01314c79d51c37b54701060001b62003d02565b620057147fb7f6d0de389687aa7fde5c37b0c2f09f4a18c62972c7173468c0d5f3cb9cc91b60001b62003d02565b620057427f360eba24823249042ba60c6e0658ae8b185a6fae1f97291b0b165b49646efcf160001b62003d02565b6200575b62005750620059c9565b421061019362005b2d565b62005805565b6200578f7f05d8ac58c222598101af6f778876daf2b2ee278593a4decfa775af3163d0b4c060001b62003d02565b620057bd7fcca9c947ff50725ae80c4f35ace24e26c64dfdda7d4b9eb9238c0587de3f819560001b62003d02565b620057eb7f7ac650656159f2390ccf4a5a435c6e94ef6bdaf2db56514e60facb392b930ec460001b62003d02565b62005804620057f962005a7b565b42106101a962005b2d565b5b620058337f614e1735d26a417915233ed97d734bcb5ba84914644cedb23defc5a2c4eaa55160001b62003d02565b620058617f1b4a3e5f5d8a07e71bf12327fc36732f208a90d5127ef5a880ac46eb5eda52e960001b62003d02565b80600660006101000a81548160ff021916908315150217905550620058a97f60de7a74b61922d97d93f392d3be383d254e5a8bde11d9f3667002600e9372b060001b62003d02565b620058d77fd50ea98c5ed63cf272070b3787b98fb630edb1e3eca7d0d12f622fb79864addf60001b62003d02565b7f9e3a5e37224532dea67b89face185703738a228a6e8a23dee546960180d3be648160405162005908919062011c66565b60405180910390a150565b6000620059437f89b34f2fb06dac097a304a424a1ad8c28395d1849054b696c8fecfcff4055dce60001b62003d02565b620059717f627cb46d8473646cf71270352217eabe06ac16332088afb831fe88e28ec077da60001b62003d02565b6200599f7fb74ddcb4d2734e77259615375d823c21dac5b776b56f1c1a11ca9ca567e71a7b60001b62003d02565b620059a962005a7b565b421180620059c45750600660009054906101000a900460ff16155b905090565b6000620059f97fb842466cf656b2952ad7f300d5515c05a11d6a992cbea6b69e8eb29cfc79eabb60001b62003d02565b62005a277f4e72d726a61cf09efe8147a409ab7bdc1ea15e796d8baca5a430cab1a5335a7260001b62003d02565b62005a557fd3ec2efc7233e25174de2c94fc91d34ee9074a336f9f1015ffcd059519f4d0a460001b62003d02565b7f0000000000000000000000000000000000000000000000000000000000000000905090565b600062005aab7f4052916af5ae9f897cb803d56086596648e0c168ef92212c663e3134c3b19a6d60001b62003d02565b62005ad97fd3c6251a62d0f77016b4e3b22d079f8a671996b36720c49a2ccf206d7e76080960001b62003d02565b62005b077fc4dc146b381b9b1de3f7d4d3ff843f926f346ba6f9d8f5c0795b47af1f1fac9760001b62003d02565b7f0000000000000000000000000000000000000000000000000000000000000000905090565b8162005b3f5762005b3e8162009ee3565b5b5050565b62005b717fd529164b19be6d95bcfbdaf40f429a8a1603f0c977f519cb9f870ecb8152a47e60001b62000ae8565b62005b9f7fe41ac344bcf11b9ded08259d4818278957f90a7734a706dd5f2b2325751c28cc60001b62000ae8565b62005bcd7f25663d4831b921ab3e180db522e67b9d4c731778698c35c1b98bbbf3028d920960001b62000ae8565b60008060008573ffffffffffffffffffffffffffffffffffffffff1673ffffffffffffffffffffffffffffffffffffffff16815260200190815260200160002054905062005c3e7f5d78b30e392bc7f6e0e27e15c0002035f9b08125eefe5b8d1387072d4ed902b160001b62000ae8565b62005c6c7ffcfece9bb0f8c43acd0d28fa43d0e21f14661adf0416e1ab7863208b145203d460001b62000ae8565b62005c7d8282101561019662005b2d565b62005cab7fa041584898bb01c1b6d96f86c51bb6651f3bdee1c82a9f7623e72a330b7e434460001b62000ae8565b62005cd97fcb06c78a59ec59ff22e9c4ec6cd136da452099244a1d78be0fdac02c0f855b2f60001b62000ae8565b62005d17600073ffffffffffffffffffffffffffffffffffffffff168473ffffffffffffffffffffffffffffffffffffffff16141561019962005b2d565b62005d457f36e5b8353b45f2872d2100bf83f12822bb595a1548b60db4e3ee9da3dbdb3cf560001b62000ae8565b62005d737fb9d2dcc68a6a40971012c756e4fc1700ef0f6a8dac7815c8883ffe1f27e1dc4660001b62000ae8565b8181036000808673ffffffffffffffffffffffffffffffffffffffff1673ffffffffffffffffffffffffffffffffffffffff1681526020019081526020016000208190555062005de67faa23196d94220b56b86d670ed144291b9f1cb0700b33e857b4237881427abb7e60001b62000ae8565b62005e147f92c148fdf087e986784f946c0b1a53cde22a376b74accdd6980a58bf7e478d5a60001b62000ae8565b62005e67826000808673ffffffffffffffffffffffffffffffffffffffff1673ffffffffffffffffffffffffffffffffffffffff1681526020019081526020016000205462008f4a90919063ffffffff16565b6000808573ffffffffffffffffffffffffffffffffffffffff1673ffffffffffffffffffffffffffffffffffffffff1681526020019081526020016000208190555062005ed77fbde74482855c06aa81b686d4347ebfb8c5497ad562890e3cc31daa11d0b3e99360001b62000ae8565b62005f057f4049d7d86893edaf6070b20f62df68cc1472a6753938f5be6b67573deb5d33c560001b62000ae8565b8273ffffffffffffffffffffffffffffffffffffffff168473ffffffffffffffffffffffffffffffffffffffff167fddf252ad1be2c89b69c2b068fc378daa952ba7f163c4a11628f55a4df523b3ef8460405162005f64919062011e8f565b60405180910390a350505050565b600062005fa27f0619b08396514f3014b4cd388f4277c5ee27d85e6ddf8c8e8741a4c70985e78660001b62001fa6565b62005fd07fadf5ed2199ad87ddb5b50c063afe706a9746a5f97871ab751613d492674010ea60001b62001fa6565b62005ffe7fdf8526b85b2735b3fbfc4736bf3d3dfa64ae072b5fd103fbe8a3f3cf1ebbbb3460001b62001fa6565b7f00000000000000000000000000000000000000000000000000000000000000007f00000000000000000000000000000000000000000000000000000000000000007f00000000000000000000000000000000000000000000000000000000000000006200606b62009f53565b306040516020016200608295949392919062011d87565b60405160208183030381529060405280519060200120905090565b620060cb7f78de2f2ed65337ea91dc7f8633b4ebbfee50e836ec3e7f6f61cecf0c8a5b0d4860001b62003d02565b620060f97ffbeb7bdef9fce6baea2e09e278d93ae063706540283221171588ec3a681cc80560001b62003d02565b620061277fa8c9fc7a7b205b4878200059417e7c075d2991f70b31def03c582521ce0701f960001b62003d02565b6200613e6200613562005913565b61019262005b2d565b565b6200616e7f4db390be21e4fb063d5dd50c0d8ff4fecb780cb5d3a663078f0238771f240a5b60001b62000d19565b6200619c7fbb76a41f0f7668870dc0f60369571a4c1c74f74012e4a44cda2833ac29840c5060001b62000d19565b620061ca7fa4b530f061555287ea4320080212b502f18a367bec77f93b855255532f27280560001b62000d19565b620061df64e8d4a5100082101560cb62005b2d565b6200620d7fc92e78637e75ff2067c493202cbc2e5a0c3ff84b364a570b3fc8cfd0bcfac0bb60001b62000d19565b6200623b7f8d683083a08acc0b83ceecfcab17bca90825940aaaabc6c8eb4cb5b92c20670e60001b62000d19565b6200625367016345785d8a000082111560ca62005b2d565b620062817fc6b4f73e1e3e08acbef66c2b93bbf2d5ec40bc2f3e3cdea77a81d5f64e46cb8660001b62000d19565b620062af7f219cccbd8afb9a6938460c83557637149eef3eccc86f1f705bb1ac24cc6a982860001b62000d19565b80600781905550620062e47f7a8b5c43fe9ff106f995ea4ccdb6300781de8b765da9047aaf54af4d21c424c860001b62000d19565b620063127f69bf62710ab010bd67f43d890ee13c590d761678d4320c0e0d4b5c7a6a5923ce60001b62000d19565b7fa9ba3ffe0b6c366b81232caab38605a0699ad5398d6cce76f91ee809e322dafc8160405162006343919062011e8f565b60405180910390a150565b6200637c7f6f02687e057522eb19b597e3b091ff65201fe492dbd6f67980e016d6aa08d53260001b620090af565b620063aa7fe51ab352fa79dd949e57050cd47d3f0410afdfe7c28a6ef735cccfeeb18f582360001b620090af565b620063d87ffce750c89171756118e85bed28eb1432c569ae13e7db5e43107d00a4ed5889a360001b620090af565b620063e7818314606762005b2d565b5050565b60006060806200641e7fdf598ab3d6af0e1d54d8ff84bd4c8be1d8491dfb9a7af199f1d6f5f2345afa4260001b6200205b565b6200644c7f239e750fa5513d39ae2caf8d2e2d4ef8ec5cfb75ba64bace3378ed03a10d86da60001b6200205b565b6200647a7f07b16584dc62e4a61ea1893b46ec9faf052faf54d84675cf2d1e3515527e6b0660001b6200205b565b6200648462005913565b156200665b57620064b87fc474fc4b7a5355430beb68a2843a3bec72d6cdc76017ee3a5777d0ec4246192460001b6200205b565b620064e67f39493d6ee5c1da857ae40244811a24347c5523eefb2fd7e7f5ec2cd712f6a5c060001b6200205b565b620065147fd34ddc36c67d884b4548f46b3757f1e8e94118443ebce789bfea56cc6421ab6060001b6200205b565b62006523876008548762009fe5565b9050620065537fd4d8a5db7583c18d64ea7749424813029b2def5322cf49ba0fb4b25238bdc5e060001b6200205b565b620065817f985ba93b9325750a3fef9596d2bed4613e53ab233a987a39905d6b06ab3898a260001b6200205b565b60005b6200658e62003f95565b8110156200665457620065c47f7731ae1ff85aafb9d97649267b83c67c7c65a95bff7cb8cbdf6947369b0ea18d60001b6200205b565b620065f27f18d89af12efb8b36992866e9aaab22d8d2649a3cdda2fdb08890ed0e8d5b7eb460001b6200205b565b6200662f8282815181106200660357fe5b60200260200101518983815181106200661857fe5b60200260200101516200a64e90919063ffffffff16565b8882815181106200663c57fe5b60200260200101818152505080600101905062006584565b506200673a565b620066897fea531287a5e490d537addec412b58157f3247d2721efeed96beb6591c06d647f60001b6200205b565b620066b77f824ea66bb6dd294b95e845b757c60342043b72c2739671261df68003622357a460001b6200205b565b620066e57f553dff85fb7f21fd417212050d7944c9c33c0bac56f903b2fb6ea8b9c911111c60001b6200205b565b620066ef62003f95565b67ffffffffffffffff811180156200670657600080fd5b50604051908082528060200260200182016040528015620067365781602001602082028036833780820191505090505b5090505b620067687fad424657735fff4e33ca6c97a73e7aaceb4ec55cbda7e6a49484ba7613e3667460001b6200205b565b620067967fe3fa155d860fc90fb59bcd395add9a92174946d8406c00b34383984c67fbbec860001b6200205b565b620067a287856200a7b3565b8093508194505050620067d87fc9f9453540127b30a6600e24734d6a112f3d40c173bb73ecc43cf54e6ba58fdb60001b6200205b565b620068067f49fa25bde25170af0ee884285e4de5dea607c19bdc249c059dac7241da3781b460001b6200205b565b6200681287836200ab31565b600881905550620068467f0c2aa02dfbe9e8334a3e8f2f9901c85c25062ccb65267a88ce8642e3442383b360001b6200205b565b620068747fafd4cbb7d99041110b7247dde527a2b795ea73d3f404c5e2931ad5009ab6f97d60001b6200205b565b9750975097945050505050565b620068af7fcbaaffd906cbd53bd125e27e9172e0887de097307036c81b4d5335899033687860001b62000d19565b620068dd7f4ec9fc5880d3f1f6cea1663045b6bd9c46eb83ea9c957def86dd1eecc699576f60001b62000d19565b6200690b7f80dd72ab1cb3636ff4a460ab3f5d7a1b77aa84fa41069cf2dcc0f3b53ef4230b60001b62000d19565b60005b6200691862003f95565b811015620069d5576200694e7f05ccbf7d14d31eb1183923aa71d3e41f8afe74e907c7076f051c9f9889134e5060001b62000d19565b6200697c7f6988acc330977aa397c07a4e2a60da57a1550c58f5513bfa64643dfa50909a6060001b62000d19565b620069b08382815181106200698d57fe5b6020026020010151838381518110620069a257fe5b60200260200101516200ad21565b838281518110620069bd57fe5b6020026020010181815250508060010190506200690e565b505050565b62006a087fcb8be7537516e5868f5c860ba4859ad4df082f89d16d6a26032a0e62bf4f85f460001b62000d19565b62006a367f018f7661527a85c4c2816c559a47d0bbd0a2b0ea176e5b5b5ac714b18600dece60001b62000d19565b62006a647f7396eaedd30879304b8939c59bd70d989d1757005480452dae5b3a833161022f60001b62000d19565b3073ffffffffffffffffffffffffffffffffffffffff163373ffffffffffffffffffffffffffffffffffffffff161462006c4e5762006ac67f174dbe9338081800e5e1deada93bf9512947308069b02da16843f7077fb53d3560001b62000d19565b62006af47f468c54a601155302414a6332cede60c38ca9400062b5b611090f80e53e7b8c3f60001b62000d19565b62006b227f7d55e3667301877ae144689e79d5dc1f1943b9023378fcd6f39d280991e2c29e60001b62000d19565b60003073ffffffffffffffffffffffffffffffffffffffff1660003660405162006b4e92919062011bb6565b6000604051808303816000865af19150503d806000811462006b8d576040519150601f19603f3d011682016040523d82523d6000602084013e62006b92565b606091505b5050905062006bc47f9f0e868dee5fb701eb62df2f524a42acde5bca722dac097580443fbafddcce3260001b62000d19565b806000811462006bd057fe5b60046000803e7fffffffff000000000000000000000000000000000000000000000000000000006000511660007f43adbafb000000000000000000000000000000000000000000000000000000008214141562006c31573d6000803e3d6000fd5b6020600460003e604060205260243d03602460403e601c3d016000f35b62006c7c7f42373bae5b742c0db7c5cdd091af31a477ed7e90f631aa18552d25c7221999f460001b62000d19565b62006caa7f44d4335bbed5aab8ebddb2979d8412a2805c3cbf78c2e91c5a7f31011eeb3a3b60001b62000d19565b62006cd87fbdb0c38392ffad6931a1187e6b677204cc791843e34c1c58b14f1b3f99c1654f60001b62000d19565b606062006ce4620040f1565b905062006d147f7ecc20ad6e3f39517ce427bfa00c7290ff42330e890f9f7fb82030ee1fe9388460001b62000d19565b62006d427f4642ca0a767eb141a0f88599118b9a367495bd38e49abba09b312d6d7b87f48760001b62000d19565b62006d4e878262007c62565b62006d7c7ff105ba0013888744040cfa11014e8141615a2f53fbee95163322ca8741cfe1b860001b62000d19565b62006daa7fe35a1aa2d28eb0051caccb1f531fdaa44990924c6297de247bc3ce5dc268bc5860001b62000d19565b6000606062006dc28c8c8c8c8c8c8c8c63ffffffff16565b509150915062006df57f697cc2479bec35ad8791112b87e473ff705cac0f74fe35d8c005469ba3f57b1560001b62000d19565b62006e237f37058d522738845533df88aa67406292585d3e2193bf84c6cf8730afb9fff60060001b62000d19565b62006e3281848663ffffffff16565b62006e607feaedaa87fcc50ee74b4a773bcb1b1aa6bab646d8689ccf298f91ce47525ea54a60001b62000d19565b6020815102602082038381526343adbafb60208203526004810390506044820181fd5b600062006eb37f0345b4a19ad1bb5a0dcb428a57e43ee6c7ef3996a938d948d27dbf2157fc062d60001b62003d05565b62006ee17f23bc9bbf57f203b564c30d0969b2a7401924b7cb84124df69d678828e016eff760001b62003d05565b62006f0f7f0d993d2d7c03f55f0701a42a16933fc1a79ce93669a76594f0bd999a9d02121d60001b62003d05565b600062006f3f7f450f02bb654c17cf87236507205c4d16db81c28da5e9734e6c461b0c525c028e60001b62003d05565b62006f6d7f064431700b914a31f11d1c409b6b076db74b574a0c598319a20358d96f09d65e60001b62003d05565b60008351905062006fa17ffa96720c05da6d2a942662f8482182a00b29474432dbfd6d9af840d1b6e470b160001b62003d05565b62006fcf7fe5f81905569e72122154d39fd4000759029300f76e74f623018e87f3b5c6c82660001b62003d05565b60005b818110156200707057620070097fe7030e42574dba30df141559d54fde06ba5afe513f3b3433550ee1321bb5678060001b62003d05565b620070377f47d52bbaeaea943ca8d43f2aa927afa0831868105657b337834eac6ea658e30460001b62003d05565b620070608582815181106200704857fe5b6020026020010151846200ae2d90919063ffffffff16565b9250808060010191505062006fd2565b506200709f7f96e0f3de98f0ae889423c9230f0078d61cd4d4d22af8066a850de88aabc1f92560001b62003d05565b620070cd7f6d8a88190ced48405b912e944e2403e215c03b999af36e8904bef5f0d0ae751660001b62003d05565b60008214156200716d57620071057f4f274bfc55780803253eb49acbd1795fd6062933912fd03b9539e34856b44a6760001b62003d05565b620071337f489abba6783924d9cf99418f6bf2b57459067d218aec248d5aa3be498194dffe60001b62003d05565b620071617f11cb4a652eb554ac031baaee5197606be80eaf8e4175f089de7eca529aff252460001b62003d05565b6000925050506200793e565b6200719b7fc1d7905b57fd19d0bbce0bd9dca4110c4d8a04320ac83a05eb2e2e2d3a4d03a060001b62003d05565b620071c97f02615edc90de6e4e1a6823471deab87ddbad9411465479a459dbf0f163b7ab4e60001b62003d05565b620071f77fbfd17a202fc7b453ec592c3cd9acafca76e0f56907e833817260156cc5e61bbe60001b62003d05565b6000620072277ffb4cad59a0363b7b0e9a169f8dbce69199e79962b77046c43a1982123b91287a60001b62003d05565b620072557f2d58d3fa73ec6b0ad554e06c2f8764ff3cdfe693dd437e1ebad18176451cf3fb60001b62003d05565b6000839050620072877e46486f8d5502a0a96c4c4ef525194176b14b265d8190ff8666557c7803894a60001b62003d05565b620072b57f22d0dc2a2649d24b0e722806aeb0f6e01a8ed114421a421934b7c3eeb6ad5c2660001b62003d05565b6000620072c388856200af92565b9050620072f37fd1d55ca2d36fd6080752001fceec2149e4e44cfd7c70f57388983e99b321364860001b62003d05565b620073217fe18258fcdddf04573d2b5a8c77e7ea85023b679f06c90e9aaf7f513477ff2cc360001b62003d05565b60005b60ff811015620078d8576200735c7f9c95ec098999d9436d7e56329e98b40acd8f1175fbb2ee7488e98b976f3669e060001b62003d05565b6200738a7f252adb5c0ec5c1428239e13a8e1f93a6608a1fa32d951d1d9d485ef0595efc2460001b62003d05565b6000620073ad868a6000815181106200739f57fe5b60200260200101516200af92565b9050620073dd7f430a975b9fe2f6841a9d45f72bfe2905e587cd7b393559f82ff1d493033b11c360001b62003d05565b6200740b7f8f312f1c4c9887268b87c0a02caacf5f9674887c68be0943a3f5dc4a7a8a8b4e60001b62003d05565b6000600190505b86811015620074bd57620074497f9b2c96c8463025d8fb909afbb0bf99834456e4d8a492acbb445c549cc2a65e5460001b62003d05565b620074777fc8c1f17521d52ad76e96a7194e4a00db2aa0f420023b075cbd393b35a1d35f8f60001b62003d05565b620074ad620074a66200749f848d85815181106200749157fe5b60200260200101516200af92565b896200af92565b866200b10c565b9150808060010191505062007412565b50620074ec7fb4acb98ccb29b94393742a9fd1edf8e8c32ef434462cb5d9082efc2e1d9ef71f60001b62003d05565b6200751a7f12f35518527410caee5cd35d4af21c57d4ce399f2e6ac3c55e5c15412277b04b60001b62003d05565b8394506200754b7f1fb49f7229fadc1d28b7f6d3b244860e66b848b2a8b57e6809e42d52b1d29ec360001b62003d05565b620075797f824f01433c853e82af9b347547d304933f4c5eb68aa083f60650df6f01b01a5060001b62003d05565b62007619620075be6200759862007591868b6200af92565b846200af92565b620075af620075a88a896200af92565b886200af92565b6200ae2d90919063ffffffff16565b62007613620075e3620075dc6001886200a64e90919063ffffffff16565b856200af92565b62007604620075fd60018c6200ae2d90919063ffffffff16565b896200af92565b6200ae2d90919063ffffffff16565b6200b10c565b9350620076497f36049b437a6b618426e71f9d67dd4c3ecb4df2685ee111670e49bd8a50afef3a60001b62003d05565b620076777f71f1dec2c0e32ddb245abd554dcf9cfe0057058697ed7ee50acde244129bc2c960001b62003d05565b84841115620077be57620076ae7ff2f321ae367a5c831f63483d0412be81b503194344a50375d1e19bc815d643dc60001b62003d05565b620076dc7fd19f6c186ac49497cf7764ab08c9348b8d038ef8a795ff84546eb6b2b36e3b6160001b62003d05565b6200770a7fca54de22c1cfb8970d659dac5034ed7c7ad9ed8ae371f8a7b4a2ac302a8ea89a60001b62003d05565b60016200772186866200a64e90919063ffffffff16565b116200778a57620077557f39eee217fafbd95537f763b9a82bcf31694fda6317dc038023e16995548b38c760001b62003d05565b620077837f6bcf1c6ef8079a2f567a756bc625ebaf38c9eaba5fe6947359e6d7534850f15960001b62003d05565b50620078d8565b620077b87f4521ac15eef745fbdee8ab4b063cf2a69fabf46367f558653be0e7e496c3790c60001b62003d05565b620078c9565b620077ec7ffce5cd40cd049b3a3ea12c592e01d08d5065e9bc1d85632f0c4f78a415d0480960001b62003d05565b6200781a7f11804fe8963d678b69102f71e00efbd5788af13b8d278113a397b1f1b7a6aeb360001b62003d05565b60016200783185876200a64e90919063ffffffff16565b116200789a57620078657f7074d58180c3ed8b9097cf97ff1df7d66e804cca41c0d8e9fd12434f1cfaaae660001b62003d05565b620078937f2bf48d3125af769d1c94941a7ffa3fa209522b31590ee9f0b4767db2adaac86960001b62003d05565b50620078d8565b620078c87f2b748dc62407c68520f66a5bc9699d9990782542c3a8933964c550485fa75b3a60001b62003d05565b5b50808060010191505062007324565b50620079077f15c734d8517bc85be899a3eb3f70f218738d7811c40c6ff839044ea8347edc4960001b62003d05565b620079357fe898b3021ec74f8f9c9172d922717512ae4bf2878b09c7c80b2220ee623a3a9660001b62003d05565b81955050505050505b92915050565b6000620079747fd681117b54f8c42dd9b9b724675b90500142f91e0c692c88cd29f6a4ac20d90260001b6200b347565b620079a27f166d54a6dcc2da1700c278643acbbe8ec7be0a002e0be3664514a05bff76410660001b6200b347565b620079d07fbe546f1bb4a2252f3c69d522122f5305aead99456e33c2514e382512cbd275ad60001b6200b347565b620079e16000831415600462005b2d565b62007a0f7f66baa7ca3e26778872311ae2b37bf38dfa377789cb684f64abda0507ede6155760001b6200b347565b62007a3d7f9bbcc745d05068633f50f2da4aa7785c4882dcfa9bcf9c1c303a65580176ef3f60001b6200b347565b600083141562007adb5762007a757fc3eab5df153e3b105e157cfa055bfa8e0845e90270ff3255e7446c30deb579d360001b6200b347565b62007aa37fdbc3d990e3f3bab6fa2a0d2d047661dde07c4ef25a24501839feae50185866ff60001b6200b347565b62007ad17f4dfe5096d5d7b39d55b09ffb0f574f2071999b6d3e264f41d19472f6f6dff6a460001b6200b347565b6000905062007c5c565b62007b097fb6dfe2886846608d4ab290feca7c5ec6ae2852dfbc3707d276ab66657c42cd0160001b6200b347565b62007b377fbd6d291981cc28a3445540f278cec30943e7da252b1f546a4206e2297370b83860001b6200b347565b62007b657ff68e1a1503b4afdf9fbf5a22748d3463567f3562a99e1fe0c70f16aa0941e7ae60001b6200b347565b6000670de0b6b3a76400008402905062007ba27fa9252a08ad1a46a72a3ef9d1afb829941f22d18012268e7192e1b3ffb5eba14960001b6200b347565b62007bd07fcb9cc8cc61006212eb8ed6f13e3a563d524b873c3a01f66af4887945460f4c1460001b6200b347565b62007bf1670de0b6b3a764000085838162007be757fe5b0414600562005b2d565b62007c1f7f2f1f45017adad415bec4ac763f6f16672ad5b44eeea98c3ac69d9a7e7ffe543c60001b6200b347565b62007c4d7f512b328f221d3319110052907ee75993170f783e77190fc89cfaa6bdfa4cb69260001b6200b347565b82818162007c5757fe5b049150505b92915050565b62007c907fa47500421f71aea538f647a50d4793ad97d25c47fc6632768c2c34622cf602c460001b62000d19565b62007cbe7fae94421a8c4f92f713fbef2ca68d31653ad6b7c094d5ef630ea1106c078516bc60001b62000d19565b62007cec7fba4c079c27fd075590f960ebba79a02873bcdbc51ac6fbf1b4c6224a1db75ffe60001b62000d19565b60005b62007cf962003f95565b81101562007db65762007d2f7f1a5bf174fe7901b96aea42cacde9cece39f7b24768fea3865baa8696b66f753e60001b62000d19565b62007d5d7f9e1655e825bd2a228fb5e2fcad16e2870e76cdb9e4df27f38d88d562483d2f8a60001b62000d19565b62007d9183828151811062007d6e57fe5b602002602001015183838151811062007d8357fe5b60200260200101516200af92565b83828151811062007d9e57fe5b60200260200101818152505080600101905062007cef565b505050565b62007de97fe7895fc4b60ecaa846487cfdf88501d7a3d845f6dcfde25b51e9ebe103d4dd1660001b62000ae8565b62007e177f6119845ea51ef8873311c7cc5f6e9451228545977e83bd2fca034fcbf60592ee60001b62000ae8565b62007e457f1aacca6942d21795f8977f383904c3e6981588c0b3000f634c2e960582504b4060001b62000ae8565b60008060008473ffffffffffffffffffffffffffffffffffffffff1673ffffffffffffffffffffffffffffffffffffffff16815260200190815260200160002054905062007eb67f8243cc9f1f57f1b96a49950cfe1dacbddf5929258edb0bee2ddb37a22281a90760001b62000ae8565b62007ee47fbd44c0256d8aadfcef4efd3627db538d37219689c5361397870819146f70a42260001b62000ae8565b62007ef58282101561019662005b2d565b62007f237f8aa5942c2fc262cf7a401a7f3ecf060f53a4004fe1d78beae0b1fdbd6d1d6eeb60001b62000ae8565b62007f507ed6bace290ad6caf9ffec452c1670cff35dbca2b0a306ff96cccdce2e951f2f60001b62000ae8565b8181036000808573ffffffffffffffffffffffffffffffffffffffff1673ffffffffffffffffffffffffffffffffffffffff1681526020019081526020016000208190555062007fc37fc52ce0972fcec86a98fe5814b728415679023175cd455db318311de66b92f34260001b62000ae8565b62007ff17f05f8756a33b7123b4c227b842001d63ca97694d4bc95d0cf7cb6a8f99983400e60001b62000ae8565b620080088260025462003e3090919063ffffffff16565b6002819055506200803c7faeb97f7f13a09e19770aea6bea39e3ee9aeb9772a1c8bc1b87847f12bb6fbe8460001b62000ae8565b6200806a7f97d6ddec1a18888f9c7db4b95e3500d5fda1b79361bd668528ea1b5efc56b39c60001b62000ae8565b600073ffffffffffffffffffffffffffffffffffffffff168373ffffffffffffffffffffffffffffffffffffffff167fddf252ad1be2c89b69c2b068fc378daa952ba7f163c4a11628f55a4df523b3ef84604051620080ca919062011e8f565b60405180910390a3505050565b60006060806200810a7fe43977ecc8fc383612deaa526481dd12c217dc617de9653c2d929fdaaf26417960001b62003d02565b620081387f23d99ded7a08dddac8712dd43904487faa99a77a20c382b416002f037975d3e860001b62003d02565b620081667f7c269407bd44c42660349a4c6a311bc95a370fcb345ea3b6070a5c5f1006dbde60001b62003d02565b620081706200609d565b6200819e7f215733b8cd9af718b2d564e08e0d1743cce1a0f8416572ea9a1f99dafc713b0260001b62003d02565b620081cc7f9e789abceb5f2092703a76d9c46c7851d43d1848de39ea39fc7390893af143ff60001b6200205b565b620081fa7fc6e7934f4f95a7214db4c991637a3f3d94c236e77b36dba938fd41932063feaa60001b6200205b565b620082287fcee6403134b4ed17c90fc025878507cd7043a3ebd5ef6e4b98701172c04ad6ca60001b6200205b565b606062008239886008548862009fe5565b9050620082697f1c61e7fe83781ba201db78af5556d950a146e3fac25ecbfa236a8e8ea615403760001b6200205b565b620082977f663ccb7cd37f06c85ff3f08be10d17b159157da6e8dba53e65e191103495f01760001b6200205b565b60005b620082a462003f95565b8110156200836a57620082da7f602bd779b094a320f8c6e460041b22d7320cc2825ffc015046d1642fae4be36460001b6200205b565b620083087f0dd08f72db0e470d178c941aa35ed24514dc6b076ecc17a2cfb6cf64d2c4da5460001b6200205b565b620083458282815181106200831957fe5b60200260200101518a83815181106200832e57fe5b60200260200101516200a64e90919063ffffffff16565b8982815181106200835257fe5b6020026020010181815250508060010190506200829a565b50620083997f1c27537b191ef3628757f90041625cae51af5ff8e81f3cde86e98d2e3befeb9d60001b6200205b565b620083c77f675d35a56b1e11d4304afb5e9851a774ef7ce25ea2df11706c58b60bc50ba47d60001b6200205b565b60006060620083d78a886200b34a565b91509150620084097f74921c7560b2a19324a2f38a7187960f1262e434a54644ad098f5df4987cce7b60001b6200205b565b620084377f872ea6b17ce34ed6cbb11c82487d26130c8f5af0306eaaeb4715e0f558fc1b5760001b6200205b565b620084438a826200b6c4565b600881905550620084777f9096f2dfd4dcb8804f1af84e037e8911f304e566b45cdd19c814b5c0407bcd7f60001b6200205b565b620084a57f3aefaa32046b98af0c5c3e7e250dbc9244291a4af3312da05db077a7a056cc2760001b6200205b565b8181849550955095505050509750975097945050505050565b620084ec7f68c3ff42abeacb355f0149f01849acb8a43abca1e9453b93df1b29dd593b76da60001b62000d19565b6200851a7f37c15a7c807c929e1012001b2b25599888c67d2cc42b41ff33b4fdc4811d265260001b62000d19565b620085487f97326a0b3a5284bffce3116618c48a13bfbaee109e0616a9fd5f99365675e59f60001b62000d19565b60005b6200855562003f95565b81101562008612576200858b7f67e04b475e2240c75c8fffd3a707ad44f2201a6361c5e5c1a8966ec97cc044ea60001b62000d19565b620085b97ff6ebc9ef015eb21d153c3b67dae1d288e2ae5f7080393f402cd94e0df65bd2f460001b62000d19565b620085ed838281518110620085ca57fe5b6020026020010151838381518110620085df57fe5b60200260200101516200b10c565b838281518110620085fa57fe5b6020026020010181815250508060010190506200854b565b505050565b6000620086477f254db103aa62241bfb2d45bc4b06c4a8c18e6cd533c9851f92cb75eea898f43260001b62000d19565b620086757fef6a24767dd0f45e7b3f4f108bba1d26e9db5c28a486d5e274b8aade992d4a3e60001b62000d19565b620086a37f91e21a63e6f169303113657b08fa64ef1630046bd0e780c2d59b37c8b05bdc7860001b62000d19565b620086ad620029ac565b73ffffffffffffffffffffffffffffffffffffffff1663aaabadc56040518163ffffffff1660e01b815260040160206040518083038186803b158015620086f357600080fd5b505afa15801562008708573d6000803e3d6000fd5b505050506040513d601f19601f820116820180604052508101906200872e919062011625565b905090565b6000620087637f2c54610e3fe0a98df3c423e90950973fc94146f557b01b6bee8cca13a6032b4a60001b62001fa6565b620087917fbc254dfd0c8280fa8535e89d4bc4cc331f18b5ac8558d459ad7b42c1e1c9d89c60001b62001fa6565b620087bf7f2ceb1de44021a984c31888fffa7404fe74791ca186de59ed6c94965c86a06b2260001b62001fa6565b620087c962005f72565b82604051602001620087dd92919062011bd1565b604051602081830303815290604052805190602001209050919050565b600060606200882c7fe43977ecc8fc383612deaa526481dd12c217dc617de9653c2d929fdaaf26417960001b62003d02565b6200885a7f23d99ded7a08dddac8712dd43904487faa99a77a20c382b416002f037975d3e860001b62003d02565b620088887f7c269407bd44c42660349a4c6a311bc95a370fcb345ea3b6070a5c5f1006dbde60001b62003d02565b620088926200609d565b620088c07f215733b8cd9af718b2d564e08e0d1743cce1a0f8416572ea9a1f99dafc713b0260001b62003d02565b620088ee7f42a4bca754e11fc235d7fdb702ceefd923856a4af006946606c2248b8848b7d460001b6200205b565b6200891c7fb4ba098746cded73016774940472d25d350378b3a8b9e2eb9c427a044c18d77460001b6200205b565b6200894a7f775ee211952a0a833c2b2dc2339c8afecd1ba96db167f6e4e72e32f1a51bfeea60001b6200205b565b600062008957846200b8b4565b9050620089877f321e13a2eab16a185d877028e5e00d614a23baffecd55c1754bdfe012094697860001b6200205b565b620089b57f232715c55bffc5d5581afa1b330725c5cfb37ff6eb0cf9cbcbf222d3b8daf54b60001b6200205b565b620089dd60006002811115620089c757fe5b826002811115620089d457fe5b1460ce62005b2d565b62008a0b7f8a723acf043931f2e59c802191ba509f2398c34fda1956a8efdb7d4dbd58d51260001b6200205b565b62008a397fe7a2e596c13cab44af24e747381dd848b4ad5bc1c29ebcd5c1d933bc6718c25560001b6200205b565b606062008a46856200b95d565b905062008a767f2d26869f3b84ff26157b2f69ff3494252bfd7965819b9e0a939bbc85ac2d64a060001b6200205b565b62008aa47f57d87d1d8dc73b30f468c57cfc84dced0cf32d6bff2a84fdadbba6d5896dd35860001b6200205b565b62008aba815162008ab462003f95565b6200634e565b62008ae87f9c0eff37aac139c2aa90f4210a11ecd4ce66ea8d801296402c5041c5eefe789360001b6200205b565b62008b167f688ef036ebf527c36a4c4c9dcec62a12fb97bdb5f4d3f06d5fbe3b0b94556dfc60001b6200205b565b62008b2b8162008b25620040f1565b62007c62565b62008b597fbf229febec5d94e550cbb0c0b4611eba7781d590d5820b8ea5e3c715e5aa42a160001b6200205b565b62008b877f35a44941ceaad32438d5411d2b368889d805dc91102ddcd082ac1b7c92373d4260001b6200205b565b600062008bb57f00000000000000000000000000000000000000000000000000000000000000008362006e83565b905062008be57f6d36977ed5b90d90de1fb3d215577608451511b390afd9bda6e9381b39c5512660001b6200205b565b62008c137f0b14335300d22692bd9d60eea8be11efdb3c7923bf0db901b6fde749f42c6e0e60001b6200205b565b600081905062008c467f34b64b7be4a6aa27dead311c3879266d54834c5ad1fe7d7e58439b5233211d4c60001b6200205b565b62008c747f3af6d81f5e9bdf76f1b61a4296152b2f8c52fbf16764d68afbd09e5996fbc62c60001b6200205b565b8160088190555062008ca97f026a60f44d87768d9b1667e4a29bcaae7340140038b0427b6dbbb0aeae84f09360001b6200205b565b62008cd77fb447ca25f110b8364c9694596978b7f9d247f1a245ef6b83605f55b17faf0c1260001b6200205b565b8083955095505050505094509492505050565b62008d187f859b971d1a1255cf9d4cb958e7b1ee466850218c832922f5051633c8255740e360001b62000ae8565b62008d467f1e4219e446bfc49318475e67e9dd11a5c4904f252aed09a1e1987ed6f447f89360001b62000ae8565b62008d747f470a94d2bcbba4d6bb89bc72d8fe31cf78a8e8dc566102efe0795181f9c5196160001b62000ae8565b62008dc7816000808573ffffffffffffffffffffffffffffffffffffffff1673ffffffffffffffffffffffffffffffffffffffff1681526020019081526020016000205462008f4a90919063ffffffff16565b6000808473ffffffffffffffffffffffffffffffffffffffff1673ffffffffffffffffffffffffffffffffffffffff1681526020019081526020016000208190555062008e377fa0703f6eb5028f6ac193d4dd8a2444daf838d9c2ce959a095d092808f9cae89b60001b62000ae8565b62008e657f19aadcec8f30a84b6fe3489d9ae4f9ed9f7708f300e1ae0a833a1e807a13069f60001b62000ae8565b62008e7c8160025462008f4a90919063ffffffff16565b60028190555062008eb07fe55b6ddab0c258b148644c992ade42c43ee1114b03a612c38784d59bc66286cc60001b62000ae8565b62008ede7fb592118a6e6fd079c07f78575f993e050813613c6ece73dae980bf49bbe39f0660001b62000ae8565b8173ffffffffffffffffffffffffffffffffffffffff16600073ffffffffffffffffffffffffffffffffffffffff167fddf252ad1be2c89b69c2b068fc378daa952ba7f163c4a11628f55a4df523b3ef8360405162008f3e919062011e8f565b60405180910390a35050565b600062008f7a7fe9ab1930f8b2a33e186614bdc5275e5aef3bc5199db452be16b906fe891a7aef60001b62009466565b62008fa87f672db28399f3b33e0df219cd59d4073e056f97e6f18dcebfa00f27c463d9fd7360001b62009466565b62008fd67f0ab1a15c584dc550564822e51c90b6556d02439b72ef95c55813a7f4f670280f60001b62009466565b600082840190506200900b7f4912ca1f746b67b87e92127e424ef610602ecd8455c415eca24e0e1efae1b65e60001b62009466565b620090397f66114683dd19cf7947e3b2b818c6c55b57501af6e821e1cdb4f2f80d63a7276460001b62009466565b6200904984821015600062005b2d565b620090777fb783f36a61aa5e73f22951df3681c2eb20b8fba57492aa9e4764edbd3684340b60001b62009466565b620090a57fe7b48b6ed0eb47f18bb58555642ad250e08b266847ceeeb5fe538202fc79104360001b62009466565b8091505092915050565b50565b620090e07f52b02eb9833b0bd298da9a550fd6a8b13dfb25c29994dccd775897a11480c75460001b620090af565b6200910e7fb75d4e78a2d4db3d391224c3e34eff0315c02f0040609f8a2b6b81a4bee39fd960001b620090af565b6200913c7fc9b4e6a27a0e453ee7a9401745aa4ff765595ab77cc85081921792d89751008960001b620090af565b600281511015620091d757620091757f22167cf469dd9aabeefaa2ab2d17cdd5287c2264296931e640849328c451b01460001b620090af565b620091a37fa65e1d9bc163f5ae9eb6070115a7e51cc6766682e133ff763759005b2d1a40e060001b620090af565b620091d17faa2e51a8518e72c89222a13d73e32ca8401729d0b38900af1038cee92bce1f0860001b620090af565b62009463565b620092057f3c9b73e3f9ac221add16775c5d9095515c3e8f3afef21ff52b55a6b8e602d38d60001b620090af565b620092337f7fedf65b473b6100a99469045ec29164a45d4d36b75f0c52a75d9db201f9c6e060001b620090af565b620092617f7fbd9b3ab4279bb2347201c67b665cec5f3aea53dc77daa332841cee3a6383fd60001b620090af565b6000816000815181106200927157fe5b60200260200101519050620092a97f82f4605e79aa35d21c9a3999706dd9685733e98401d0e734c18f4c1140cce03e60001b620090af565b620092d77f3838606ace01461ca21cf498f43a6824b7c080b35d4559c58c93c8f948842aac60001b620090af565b6000600190505b82518110156200946057620093167fa59293f48c2e4416c1932c0f4236fedf682c01490f96f93a10b8fa63fd2b037d60001b620090af565b620093447f38630e8d3b1587def62cbfe6d0750511f5e982b4ba10074a538d936e0237cdec60001b620090af565b60008382815181106200935357fe5b602002602001015190506200938b7f938af12a518f22f61865b3861f21fa00ad4e4bf11ec7daa6c4f032b6025d424760001b620090af565b620093b97ffede6dd9ae22d44e28a4a759c56795dcd3b945d1d2203993228f37c909a90e4260001b620090af565b620093f48173ffffffffffffffffffffffffffffffffffffffff168473ffffffffffffffffffffffffffffffffffffffff1610606562005b2d565b620094227f9093def741d483dcb80308555e82d6c69e39a26b3d763f0044f3f0f09f8d7adf60001b620090af565b620094507f9ba332f26c0d2c5129d51a9355d8ac6f4402d5dfa84f6fa0349bfe1fe83eedc460001b620090af565b80925050806001019050620092de565b50505b50565b50565b6000620094997f2d78af16f11a668a11aba18e196d02e0ff8acedcbcc56b91f5bc57873a13e95160001b62000d19565b620094c77fa7526a59959e6452ab48c176a880df015ed5fd268f4fa2ff541d84ff789f1f5a60001b62000d19565b620094f57fafc1a9e986d85c38ffc4a0e9bf0460bb4f7fd9dc9b0cc3f22de1431b617e896860001b62000d19565b6200950183836200af92565b905092915050565b6000620095397fe43977ecc8fc383612deaa526481dd12c217dc617de9653c2d929fdaaf26417960001b62003d02565b620095677f23d99ded7a08dddac8712dd43904487faa99a77a20c382b416002f037975d3e860001b62003d02565b620095957f7c269407bd44c42660349a4c6a311bc95a370fcb345ea3b6070a5c5f1006dbde60001b62003d02565b6200959f6200609d565b620095cd7f215733b8cd9af718b2d564e08e0d1743cce1a0f8416572ea9a1f99dafc713b0260001b62003d02565b620095fb7f56e4769f69a632d56c75dd07ef37dbadc6edde828a3aa1b2fa7c232b526462a360001b6200205b565b620096297f7fdf678a727536ba4e8096a2ccee2c473561b6310992198864e1dc17e43b756060001b6200205b565b620096577f87c90588b3ab64452d230bdc78608494c2e8773cfcb3e077497d393df9bd662260001b6200205b565b60006200968c7f00000000000000000000000000000000000000000000000000000000000000008686868a606001516200ba0a565b9050620096bc7f5e6e30ba0f8fcca0016395f0fdf9246de3f8fb5483b31a4b4c9253d3ae7b92fa60001b6200205b565b620096ea7fa9ca6effac3df1044cd5f6f944c59420a82ce636de3ec01fe5215242acd8567260001b6200205b565b80915050949350505050565b6000620097267f4a0ef23499fbfa328834ba4f1b5ffa96ae3a72022d8e894ea75f65002e99fc6d60001b62000d19565b620097547fb0a4d17626c8db9e63103d8322ecffb2cf18f86ae3413bdf27e85d92c2b02cf660001b62000d19565b620097827f3c397894fe1c380abfc593b049063a3d5f75fa41a4462622197cdf86b327f8ea60001b62000d19565b6200978e83836200b10c565b905092915050565b6000620097c67fef48b951f32ed26a7268fd209410c719b10aefe29db345145bb5537240e9e10660001b62000d19565b620097f47f807d25adc702c63d5d14a926ee9265a03700bfce16448d3396dd492d599f527660001b62000d19565b620098227f46cdfa253bc4e330c0eb8c5a2d9f7d85c076ae201ff1db1f1b1000d0d9d5ce3760001b62000d19565b62009843620098336007546200bcf7565b836200bdae90919063ffffffff16565b9050919050565b60006200987a7f6350c5f39e9ecbe4d230963a5bfdf69425c0af19c5d37301466a3f1986c6074560001b62000d19565b620098a87f673dd592ee19c8ea4f77091b9d8dc9b65b3ccf5ae9b826efbb102f7049fb549860001b62000d19565b620098d67faecd407ea7652b17e2f0a1c1f7e4c472d3247a60aea257d48afe0a6bc06169a660001b62000d19565b6000620098ef600754846200c0d290919063ffffffff16565b90506200991f7fe881f84cb89e9fb1106b48f329f8405c855d491c57b7fe9d69eb6a96713a01bc60001b62000d19565b6200994d7fc9b832a98377ac7968b1be1a5d716733c46aada10bf8d6fb79dc015b58334af760001b62000d19565b6200996281846200a64e90919063ffffffff16565b915050919050565b60006200999a7fe43977ecc8fc383612deaa526481dd12c217dc617de9653c2d929fdaaf26417960001b62003d02565b620099c87f23d99ded7a08dddac8712dd43904487faa99a77a20c382b416002f037975d3e860001b62003d02565b620099f67f7c269407bd44c42660349a4c6a311bc95a370fcb345ea3b6070a5c5f1006dbde60001b62003d02565b62009a006200609d565b62009a2e7f215733b8cd9af718b2d564e08e0d1743cce1a0f8416572ea9a1f99dafc713b0260001b62003d02565b62009a5c7f26f5323de9abc993ee1214f46194e62086b8b12698f268dbfeb229bd54e8cfff60001b6200205b565b62009a8a7ff52f4497e8a39b86b96b39eab8e5fee75e703cabe6b5fc76aa68f9f58d5af5ef60001b6200205b565b62009ab87ff3aac15844fb19f47a7188c5e692f142dff7a0468d72af87f2442bc583da5b9660001b6200205b565b600062009aed7f00000000000000000000000000000000000000000000000000000000000000008686868a606001516200c38e565b905062009b1d7f71ac3fc4375209c36f8e5e9f80604ba1eb17fafecd9f477ef5d98bbb5c59234960001b6200205b565b62009b4b7f159960e036af9c9e4cf9a2b477a13d0c5aa243cd9c0bfec2d6f006161855fb5860001b6200205b565b80915050949350505050565b600062009b877ff8bd31cfede529fad0c375cefb9dca7a1993241fbb98baf1600657cb2707fec460001b62000d19565b62009bb57fd7e10bfd6f906e305ff7a95c416aa82d7ac5f14f51df74dc38284dd34497bcf660001b62000d19565b62009be37f6d9b61dc2ff84f58f5b0d90da228f1f96bc84b8e0c08c74c2f60c37e0882b47e60001b62000d19565b62009bef83836200ad21565b905092915050565b600062009c277f91f79ce61d6095052f98343ef22bf159599b9673b3da8e9b6fcf2ee4ccdf929160001b6200191d565b62009c557f6d956e6a2b37087093bfab4ac0d93ebca5ac0f03733e05fb5e3f05bf8316b69160001b6200191d565b62009c837f77561784c0d0c99030a4a639f96d9bc02d8d5616e2b78f6299799333ced6e4ca60001b6200191d565b73ba1ba1ba1ba1ba1ba1ba1ba1ba1ba1ba1ba1ba1b73ffffffffffffffffffffffffffffffffffffffff1662009cb8620028fa565b73ffffffffffffffffffffffffffffffffffffffff161415801562009ce4575062009ce3836200c67b565b5b1562009db45762009d187fcd9aa553fe2735cf7020b4eb80cfda751f8aecdef127d00fa09d44949493ebe960001b6200191d565b62009d467f72cf9f892674527fa632776f358fe3c83644138ae83851c5a468654ee96a51a260001b6200191d565b62009d747f37d4b26a5e6da01282932b7cbac42b7bbe6ae4a212e5e0487ccf119a0d3d0e6860001b6200191d565b62009d7e620028fa565b73ffffffffffffffffffffffffffffffffffffffff163373ffffffffffffffffffffffffffffffffffffffff1614905062009edd565b62009de27fe7da6a237a9d6cd3116cef4d5ee70b194818a8e3be021a5de096d3e422173b0160001b6200191d565b62009e107fc5ffb87b693ac8cd4c80a77973b8153ba692ddebe54fae3e7506c6d5ae1de21f60001b6200191d565b62009e3e7f3447ca4599d659cf5d5b18a186bb0c30b2f9f0a7af21b1f9e9e4c51b46b06b9f60001b6200191d565b62009e4862008617565b73ffffffffffffffffffffffffffffffffffffffff16639be2a8848484306040518463ffffffff1660e01b815260040162009e869392919062011cdd565b60206040518083038186803b15801562009e9f57600080fd5b505afa15801562009eb4573d6000803e3d6000fd5b505050506040513d601f19601f8201168201806040525081019062009eda9190620114c2565b90505b92915050565b6030600a820601600a820491506030600a830601600a830492506030600a8406018060101b8260081b8401016642414c230000000160c81b7f08c379a000000000000000000000000000000000000000000000000000000000600052602060045260076024528060445260646000fd5b600062009f837f80fca6b64f7b0789847f8be52c02b4e1f759789d6b7cbe957f89feefde4fe88a60001b62001fa6565b62009fb17fc446b9f164092d39ac2524a6d2e73d0ccb1abd271deaf1757b7310ed4335dbdd60001b62001fa6565b62009fdf7f22f429aedbaa0bb811444c55a4871d76ff331b3f6f543b5d11608339df4e388d60001b62001fa6565b46905090565b60606200a0157f4c5b970ee91daadde8710377053e2fe2db011b43d9af565ae1d52adf04bd7b7a60001b6200205b565b6200a0437f99c9b0c8bf292c18f370e5d4d401e983364b2dc84acc3f04f4d076bbe44fb67960001b6200205b565b6200a0717ff30f9598c09acc46201ae65a0886a7f2ce25754374cca59c6c93f436a40282b160001b6200205b565b60606200a07d62003f95565b67ffffffffffffffff811180156200a09457600080fd5b506040519080825280602002602001820160405280156200a0c45781602001602082028036833780820191505090505b5090506200a0f57faa5f67d8a4c2be6024f08f7d18443f5cd1665d3d934152502a716d70e5d2aecd60001b6200205b565b6200a1237f321ba922fd46a8a65e954d8fbc0baad7204f7e93d5902fb1ed4c5c437a2120af60001b6200205b565b60008314156200a1c1576200a15b7fc5a2f9150334d4626d09374d290ed54de62abcd2eaf52972b527d6aeba30d50160001b6200205b565b6200a1897fbb01eb5978d464b464e2ea325208d21f4385ea73ad36bf43064ff248204bf33a60001b6200205b565b6200a1b77f4efdcfbfbde7ca18552ccaa4bc219fc7a2f44e35edbd950a0fc7df8c57e8e3c260001b6200205b565b809150506200a647565b6200a1ef7fc9d50e0c2674ab971ab55b671d62309e93eaf3f5461ee685a59531267aaef62f60001b6200205b565b6200a21d7fc7d0fe74e2b28cfc2b325070dc7301503f041b53b60a5f26c2db15bc811624d760001b6200205b565b6200a24b7f9843fb61adce07e0124437a1750ece1c2c820144a6e817c18f13324ea34c0f2d60001b6200205b565b60006200a27b7ffb7859300e205e111a7f27e576ce93ea19b93f74474599d96bf9280cc388362d60001b6200205b565b6200a2a97f5f0ccc465d918c8008154e48125bca9ddd3e6eec2dce425a50ce62c4be18449360001b6200205b565b6000866000815181106200a2b957fe5b602002602001015190506200a2f07eb2a760eb9758c0e88804d65ae9c397f0e0854dd975a52af05998835716ca1460001b6200205b565b6200a31e7f020a1f8b38e56b17d093e359023e62638b5ee514303972f995b8f6986111ca2e60001b6200205b565b6000600190505b6200a32f62003f95565b8110156200a53f576200a3657f9760b797db810d12c33716200808251f0775c0e0e48074d9446fe075410b37f060001b6200205b565b6200a3937ff74cc59b13ac089f27964b0212cd07f711019fae5c188e14f8b43d3857eba37760001b6200205b565b60008882815181106200a3a257fe5b602002602001015190506200a3da7f6988502aeab4baf543e233139fdf1ac200ef2a05a987e6cac578dfc5b7b8942960001b6200205b565b6200a4087fa7e7c3e3d75a934a98d06705a293c07127fc485920531424b223bd9bcf9cbe4c60001b6200205b565b828111156200a503576200a43f7fddc75fdeaad430d95fe81636fdca3b49cedd8f75268fe071c43a58716400472060001b6200205b565b6200a46d7f7eaf18515fb181a4c5f5fc58166b3929595e16433fb59c44dbf4f01acd5029a160001b6200205b565b6200a49b7f44f3bbf1fa116c3fc6ab77745310fb5dcf27d7773f611991e02abf98d23314e360001b6200205b565b8193506200a4cc7fde7f06d75715789050e91c5da499dc8b7225a65ea9d51805f008c3eec326bc8560001b6200205b565b6200a4fa7fa7965d1634a5890338079ac0e7b21311c4444e9f7ac58f95946fd213204459cb60001b6200205b565b8092506200a532565b6200a5317f2d9c0bc2fd5bba67567f0fa1fdcaffb66ef1f96b22b90a11a044aa8dc7686a0f60001b6200205b565b5b508060010190506200a325565b506200a56e7f1cbf8a8327298fd0eef8dbc93be51d6170f37549510005e7e675ae9f4d54cc6a60001b6200205b565b6200a59c7f9deb08a3a7c8927ae0fa5c730683b5d76010fd614712254d51dfb42d8d48230060001b6200205b565b6200a5cb7f0000000000000000000000000000000000000000000000000000000000000000888885896200c722565b8383815181106200a5d857fe5b6020026020010181815250506200a6127f35103a119fa2f6937761373502d2b575b550bf0c6c59ac424ee3bb2e4913498260001b6200205b565b6200a6407f34a4bba71d2a05402f9ff43c0e4df486e87820822da6c9e249c3113dc4d06d9960001b6200205b565b8293505050505b9392505050565b60006200a67e7f98fee658fb98ee3a3f7d31c9b144bae0694670e2d2c9740be272b5cfea0092c360001b6200b347565b6200a6ac7f293f09d7307734d72ef4603c3433eb00449e5e883678fdc8895b9ad14da4388760001b6200b347565b6200a6da7f9ea24ae37f0db9d37904a7342a2b686a492cf5195c6dc2b3a033aa704f81844560001b6200b347565b6200a6ea83831115600162005b2d565b6200a7187fe5e0f286e14e3939ab23ad606f1392eab58a6aa878cfdfda24b238e5aaec25c060001b6200b347565b6200a7467f37759278f4a59534be934e0e6521d3364d9957c6491e795f56bed364064e433360001b6200b347565b600082840390506200a77b7fad28cb0f8fb12a20cffd3ed3e3e4311fbd593c9af7fcd49febf0e43a31f27eb060001b6200b347565b6200a7a97f73877f4e66f2878c1974f071e9743c95266cbad904e3148b9557f6ca9019d15260001b6200b347565b8091505092915050565b600060606200a7e57f737e8b2112b00a23c3a52586dfefc82ccb2b90307024b823349e96b37a016de860001b6200205b565b6200a8137fe2d5942400a9873fd6359c483ac588273fc8ffd893387cbd517d1d26f4a6029160001b6200205b565b6200a8417fa1f5c94370fc012ee26bd93cb57bddff620cea6320b5596ca9bc80807ee68e5260001b6200205b565b60006200a84e846200c908565b90506200a87e7fad4a1c9b9beb4efd8264ca79de3181892fb0ad13c25137152dfeb57cb9f6f88b60001b6200205b565b6200a8ac7f40aefcf3a1f69e20155d981b87f0af285d30b5eb5e12a00efc7452f3e16087d460001b6200205b565b600060028111156200a8ba57fe5b8160028111156200a8c757fe5b14156200a96f576200a8fc7ff8398f07cb0f294c4dc17820d899a37ac687cd85365c11f8cbb6aa695735372060001b6200205b565b6200a92a7ff2a4f796f9af8c90a054191a2211d1709e9ae67e8a1d14707e3b2cca0c3662ce60001b6200205b565b6200a9587f4b4fdbb6ffe899861b96cb77a82c2ee1c1eef8bb19fa44fb7f16e8417431acfa60001b6200205b565b6200a96485856200c9b1565b92509250506200ab2a565b6200a99d7fddc92e4e498cec401bc665e1df50a9f7e5607a00330de23ba53a356f59749f8860001b6200205b565b6200a9cb7f9adac860cd80334031ac1c11d05d1412616052bd8660a2f0ed8554feb7a26f5460001b6200205b565b600160028111156200a9d957fe5b8160028111156200a9e657fe5b14156200aa8e576200aa1b7fd8b9f59a12b347ba3c88ab57f91b23e823b87542fed6dd67702f35eb3f6a548760001b6200205b565b6200aa497f128f8270dec3ed749cbc2f78fec786ceea074fe5e90e24654ad90bb9a99d946660001b6200205b565b6200aa777ffd0bdb5231e0f51d2894956822d5faff54edf7f53482fa0e3143b27e9e4ce3d060001b6200205b565b6200aa8385856200cdae565b92509250506200ab2a565b6200aabc7f0cc46e74200f246051b1f7501eecf3f8bd9c7141e2a01ed116dc42fab3223e2e60001b6200205b565b6200aaea7fb7c8abb5681e4c60a0af79643ad72926a2dc76b74d1ecbf1b1034cca49c9bd4c60001b6200205b565b6200ab187f850798ce73ac137e0b4de700c41f16629831b1409e512a6d1e625ba9fdb87afe60001b6200205b565b6200ab2485856200cf2c565b92509250505b9250929050565b60006200ab617f71d322623869fdeebb9c22c6bbd218234f8d203f727ce4228bafe327984af96760001b6200205b565b6200ab8f7f2d2f3fdb407872097b7db84471765e785e46ebd8f4046f0b038d86bd6e0906a060001b6200205b565b6200abbd7ff880f8e0916f05512f2b9819696f28b4061dac3cd42525a52d6217160851639860001b6200205b565b60005b6200abca62003f95565b8110156200ac90576200ac007fbf6ee3a3f502c2289c124e53f6ee447169cf9bfebd96b7d84cc12941da3142f360001b6200205b565b6200ac2e7fe85e3e913a8237503bff37895e6d3f1406654cdf28078d1f59547c2d786a899360001b6200205b565b6200ac6b8382815181106200ac3f57fe5b60200260200101518583815181106200ac5457fe5b60200260200101516200a64e90919063ffffffff16565b8482815181106200ac7857fe5b6020026020010181815250508060010190506200abc0565b506200acbf7fe6e020b013eb95954d24eb99fae2eae586ee9ac0d48a035f301c280bb14f934260001b6200205b565b6200aced7fbb18b5584096c53ff69a3baf14c3063272a0be2674934e0bfb2b8f29eb4674b060001b6200205b565b6200ad197f00000000000000000000000000000000000000000000000000000000000000008462006e83565b905092915050565b60006200ad517f053a16bb25b7c3bf0eb8f96a85bcffdc6a2c9f12ce0922647a643c9a9c7ae08860001b62009466565b6200ad7f7f08f7bdadec418eb26fbcfc2165d86275b5e1b8baaf5e6df141cb730471d896a060001b62009466565b6200adad7f9f8aa221058747dd49bbdec7807bcf26373f39b6701b83701e7186c7bb8c730460001b62009466565b6200adbe6000831415600462005b2d565b6200adec7f8210b270ac2bbe907255822195db451fc2c3934e1b448e9f4e004b7b06bc5df860001b62009466565b6200ae1a7f22179e65a7ffb69370e752759a0145dff2e7d7410f004b6fb9b3b778f46f93ea60001b62009466565b8183816200ae2457fe5b04905092915050565b60006200ae5d7f59553e064ffc30705bc6f1bd0548781ec42eede447ec06cd2d9ddb674a8219be60001b6200b347565b6200ae8b7fab4e9dc03bf83496a9fb56ed78c77ac71999c4c5b77197bc3f03888fa1f7da1860001b6200b347565b6200aeb97f8ef261d3a0653ab868c899418b467bc6f67e2ccde42f77cb49f1285b32558cd560001b6200b347565b600082840190506200aeee7f172b47099aaf4a028546f4463220baa09cd81d77ae8c1096fc6579f4ecaeac2960001b6200b347565b6200af1c7f967579ee3162c1a66be7747b1966e185b33f2fc6a52477633bfe253a007a6d0d60001b6200b347565b6200af2c84821015600062005b2d565b6200af5a7f837f36e10f55e182d80df4008a9565a95c9998c0cbd301003424ee94022b465e60001b6200b347565b6200af887f60b415dd739853b43f2c31e0a76108ad464adc9d8eacc59b1f59ea004963800b60001b6200b347565b8091505092915050565b60006200afc27fc37d921c6111359fd9f79d2a28c4792facb1db4f39f5274d1b6163c18e3afe8b60001b62009466565b6200aff07f898a92623482f45d1206dfef5d86715e008f5452a7c413085f43c128004b3d9760001b62009466565b6200b01e7f05fd20169ef0846499c468d531d0cf9e99ffbf7744456d397b9e942723963d4860001b62009466565b600082840290506200b0537f8e86e68a4b22e3c8f81c2073a80e5cb58d704f7122af81c9942d06a7e84c3e2560001b62009466565b6200b0817fb0310a7161613cd85ddc020fb1e188ea5b953042e7225a2f1c35f62ad8d78f7e60001b62009466565b6200b0a660008514806200b09e5750838583816200b09b57fe5b04145b600362005b2d565b6200b0d47f558de74b4ced8028b43c759ce9fb582f1bd05e8ac02db8253c7f66b126b33ed760001b62009466565b6200b1027faa5db913fa4d95819207f4034e9d987218cfb113b8ec8df4a432cfedb219b35160001b62009466565b8091505092915050565b60006200b13c7f6b01f36c18c79940b9baa1ea7627e3c10a23e324a38396be9a253583363aeb3560001b62009466565b6200b16a7fb9ac893588a5a801e4698bd76575ede4d5838fc56498d0cf6c1a0dd159f20be960001b62009466565b6200b1987f129ba58c31ad62f76bce8051d617e8f5e7ca5f956b83b84c7cfca80f6170196c60001b62009466565b6200b1a96000831415600462005b2d565b6200b1d77f8797abb6ec34e73bc681d07d467829ddfef5a3412b3ea4dc629fe993ab7153ec60001b62009466565b6200b2057f7144f0b5796c5168aa587bd2d2cb2beaadb3f41d05983b435a381bdf8e8ca5e460001b62009466565b60008314156200b2a3576200b23d7f90e9dc5e222294ab0e40e698afbff89ab7912401779b3705db127706a25a279460001b62009466565b6200b26b7fe70441edfaf6261218ccec5b4c00017fd4be0ce2024744a784e9703b2eb5921c60001b62009466565b6200b2997fbc398dea8e073f5dc774615f3f686fa5c2d14965232aab5bca0d46cc7abe05e260001b62009466565b600090506200b341565b6200b2d17f790584e95c50fd3f26581fb60ee3d72efde1b8545345dbe5c80231d1ea31127460001b62009466565b6200b2ff7f8098282080dc3f0f12a01b1890ba22d8cee5477cce28c89c0029d16c132ee2b160001b62009466565b6200b32d7f05fcb8070bd589808c64e227360faac4ead6e092128766d5693bd170c16ff4bd60001b62009466565b8160018403816200b33a57fe5b0460010190505b92915050565b50565b600060606200b37c7f886e3f5ae9ed1dc768a5a94d3bed24c210e6cefe750788d6ed2836ccdb15622760001b6200205b565b6200b3aa7f8320141af37ecadea0ccca2e6d85ede2e71ee640e70bdd3605605084c8a132a760001b6200205b565b6200b3d87f1a81ddfb0bf5ba0b91cfa05ae7d27d9cffadb00cb4d177e51ac57c5e4d8a823a60001b6200205b565b60006200b3e5846200b8b4565b90506200b4157fafad77537790499639014d4e8f2037b0be999239345c43c40565276f6c418ff060001b6200205b565b6200b4437f133daa56cecb11a8bae642ec86a9f2c1d3402e2a188388d8330b9545be202b9560001b6200205b565b600160028111156200b45157fe5b8160028111156200b45e57fe5b14156200b506576200b4937f0fdd4a8b5f74a342c02276ce82f263c34a5b735108973e135a8f71101b2662f660001b6200205b565b6200b4c17f78c2e208eee87554a811e9d484f53c519fd877ce05e829bf6772f0f3179a7ef560001b6200205b565b6200b4ef7fb5442ef5827e58d4390f8cd079338f45ba818b8cbb66d6f1a68ede4a863eaa0060001b6200205b565b6200b4fb85856200d2e4565b92509250506200b6bd565b6200b5347f33b214617def0bef2689848c2111c98c5ab08077d74628ef5aad01b2fb07ac4660001b6200205b565b6200b5627f14f47a26e2a473235ac51abe7461ad7dfbbb137d6a90c0d7d1806b9112b7ea9560001b6200205b565b6002808111156200b56f57fe5b8160028111156200b57c57fe5b14156200b624576200b5b17f27a0a1ccfe580988e5e5eb884acd23f04c754c3a32cf12f261cec462cf2ac4eb60001b6200205b565b6200b5df7f35679539a84bb89d6f38d850baa160a9c3511cd30de0564a85e2f37b2779095760001b6200205b565b6200b60d7fa9c487c6d6a882fb52f2955334df31b2ab75aa38ec5b91c14b58c98ba00eace160001b6200205b565b6200b61985856200d5da565b92509250506200b6bd565b6200b6527f9bce08fc9910e05ca84f6f57e43ec5bb7c9ce2b64484ab2e57c2c2c89a4f3f9d60001b6200205b565b6200b6807f42b9ca9ea0504a812b367ef6ac927efde16078ea26454fc5d42930f1bdb4226060001b6200205b565b6200b6ae7f25e46e8db8c29172eb6fd0e14404d66a5a37243b9de7299b6ce742a88f717ef660001b6200205b565b6200b6bb61013662009ee3565b505b9250929050565b60006200b6f47f8b5235ace92fb83d7bf48456ee0a761d631dfa1542ce24992016b26211b6afd060001b6200205b565b6200b7227f3d802b556cc3e81ae50671013297c6d5e36095bca9b8929b6499c4cada9fe95760001b6200205b565b6200b7507f025b5e46a393ec857c6759424231fec385a5b03d70d8847d0a8cf2470abe20de60001b6200205b565b60005b6200b75d62003f95565b8110156200b823576200b7937fdfca4117c24232bc8387c0472c1530962de355717ec00a83b34912e90828164e60001b6200205b565b6200b7c17fb6684b7b3021827e3b3725e0617be6bfdd1853e8643633be462f43bfbbf6c34460001b6200205b565b6200b7fe8382815181106200b7d257fe5b60200260200101518583815181106200b7e757fe5b60200260200101516200ae2d90919063ffffffff16565b8482815181106200b80b57fe5b6020026020010181815250508060010190506200b753565b506200b8527f9900c2d7b3c513268356b83ca4e6c1efddabb5ce66d14e0ec04644d59fb13abb60001b6200205b565b6200b8807f20fb9648bb29baa6c62189e95cc79cca586b11c7b8134a5b34596a0de8d8e8f460001b6200205b565b6200b8ac7f00000000000000000000000000000000000000000000000000000000000000008462006e83565b905092915050565b60006200b8e47f7adc2be07e1220613b9b439ff7ac38fcb61c151072237d5ddb3cb5ea2a23da8360001b6200d8aa565b6200b9127fdc20f71b2c027063f260cd4b39c86cfd35e4017e7a09f20b29ec839638d8862960001b6200d8aa565b6200b9407fc1cb6919808f48a42811dcfc4eb4458cde2ccfd53cec6bf679554663b856384260001b6200d8aa565b818060200190518101906200b956919062011783565b9050919050565b60606200b98d7f3be4db3948beecc74799f57aa21883ba9cb781b416d4466037a56c3e3c7365ee60001b6200d8aa565b6200b9bb7fc69b4cd466a3ca021570d85f9459a44e1b25db3a7d10425782af24fb9e23031460001b6200d8aa565b6200b9e97f28fb5e427e2edfb9c9a93deb4f859ae089465505ade5425340d2dd004007ac6760001b6200d8aa565b818060200190518101906200b9ff9190620117af565b905080915050919050565b60006200ba3a7fe7e576e94f608aa9b8b13f3464df4bf4f87385342a709d51c9dbdcc6c1f23a6f60001b62003d05565b6200ba687fc24008f530ee23500accedde673d523e4570f3a2fc5e611df0c8d4d51bad869160001b62003d05565b6200ba967fe8b8be9371d54254379fe4c2b27265e773f6a7e8b34cd03b174a3ff27b5f93ce60001b62003d05565b60006200baa4878762006e83565b90506200bad47f4b48c51b0e9d0cd1e305d4f86d5b20e0fd2814e13750cb65221c6103e416897060001b62003d05565b6200bb027fcf1779082bd57f2b7d74435f5ea192c506e6be91a6f317c980479448e03525d960001b62003d05565b6200bb2b838786815181106200bb1457fe5b60200260200101516200a64e90919063ffffffff16565b8685815181106200bb3857fe5b6020026020010181815250506200bb727f145307daefadf21c49e143c3b4b7be772660a560ba2f5f9eaf4a7eb4d5a7220a60001b62003d05565b6200bba07f43339c075766bb2562845631c916fd723a879ba458a5d24445f811e9cac7d9e660001b62003d05565b60006200bbb0888884896200d8ad565b90506200bbe07f10c1331d6c9ef3b6e8d272509851b63dbdbb979c1854f8133b56b842412ca60e60001b62003d05565b6200bc0e7f42b82aee29b6fed74746495aad9d5c086a33bbedd32d9292081c2eacf23fe42860001b62003d05565b6200bc37848887815181106200bc2057fe5b60200260200101516200ae2d90919063ffffffff16565b8786815181106200bc4457fe5b6020026020010181815250506200bc7e7f68db7398a905ae7ce3fba6eaf02185db88ba8fba84bfa17b1956b114db3febdb60001b62003d05565b6200bcac7fb3a3ca7345417e5982ec2fe9a2df19f859b18f72d4b14334e743b2713deebd9560001b62003d05565b6200bcea60016200bcdb8989815181106200bcc357fe5b6020026020010151846200a64e90919063ffffffff16565b6200ae2d90919063ffffffff16565b9250505095945050505050565b60006200bd277f60680262f8cde245659d6c6448d21bceb1d3ca08e29b59e819a6666f1c7e7bb260001b6200b347565b6200bd557f5ad3353e0ee2b8595834d505fe48966b19abe3dc495fcaa2c983f602906d1ec560001b6200b347565b6200bd837f7c485422e01001a45ed23c48c1d1896544b18c428abf31cb0e62bae7e2eaf30160001b6200b347565b670de0b6b3a764000082106200bd9b5760006200bda7565b81670de0b6b3a7640000035b9050919050565b60006200bdde7f2d109a5683dd9a11ace453b33326f996dc073f965956c0adcbc94da37c822bbc60001b6200b347565b6200be0c7fea0a55fe7d66eeea1d8c65997ef349e4565e690cb513c76bb425aa845819404460001b6200b347565b6200be3a7fa2e015e562ecff7cb5dbcb8dcc681211c5910605c85f6c8da514e14520d7be2e60001b6200b347565b6200be4b6000831415600462005b2d565b6200be797f7cb9d936b52daa3885c69bfd5704f0b5904085e5601e4d6996bdb889cba14b7e60001b6200b347565b6200bea77fa6aa7cb199aa4952e11d0c48c2f2a6aa6d773e1412fa2c68e4497072fc9c34a260001b6200b347565b60008314156200bf45576200bedf7f6444ff1aca63815e4d2616653a3331b326584b2c92e1619a9aeea548bc0fa6b060001b6200b347565b6200bf0d7f1bb8db645f8bcb2e16a0d7ff4086e5ee3684b0032db0454c653291f51b9f723960001b6200b347565b6200bf3b7f11b60f07d48ef5f829a0caf0761770cf3d5dfeeddc3475cbaada9d91ab44ff1f60001b6200b347565b600090506200c0cc565b6200bf737f4a73f3af504b91809a28e5acaf9337a35a56ca11189217b0a894129cc15e8fad60001b6200b347565b6200bfa17fe99ea2420c0ecfeadba8d7dd1d82e5ee989794f71a5f27acfd3ad1bd812c690b60001b6200b347565b6200bfcf7fd17216c7fdeef3f09d1091432fb7303451e83c986270ffa9bcb84b0b66b60cb360001b6200b347565b6000670de0b6b3a7640000840290506200c00c7f022bd7d5ec8e771a53b61eeb3fa4b04d83c67d8a43d01c0c66cf08aa6018840d60001b6200b347565b6200c03a7fdb22d1d6663051778e748b13c2b2b11d231553902ff4007ccd48321f7bb63d3960001b6200b347565b6200c05b670de0b6b3a76400008583816200c05157fe5b0414600562005b2d565b6200c0897ff80bdc4afe03b8285068be38759e765413a3844d086e1d62e0a9d6f27338182c60001b6200b347565b6200c0b77f5015482585e9090f4a9bf17a97e47f1225482f97e80fa061dfb918c23d4f585860001b6200b347565b60018360018303816200c0c657fe5b04019150505b92915050565b60006200c1027fecedcab8d0f0b6a3000213e8cddc44feada52d5d1ceca994a1708f87a68f484260001b6200b347565b6200c1307ff7a5e7dc62e206a3c02506e29058349ecd8dafef79131bdc1bc2e8e1249cd18360001b6200b347565b6200c15e7f464c62fb9d6f36fb99d3416aa58c5d658e75acb5788f6ff32ba3c5125e2dd92a60001b6200b347565b600082840290506200c1937f62fa03b6cb0bf307621766f8e2c59c61c09f612d409ab410b0274a5d515f142260001b6200b347565b6200c1c17fbe2dae5901d1ce6fef70c1007ac171cbde128a670f8e63dedd387d29c32bbdff60001b6200b347565b6200c1e660008514806200c1de5750838583816200c1db57fe5b04145b600362005b2d565b6200c2147ff751ce1bed0d21d854888f65c9afddf5fd3403e43d946bb14a67c1da59e974fb60001b6200b347565b6200c2427f83338b898944f1b063429e568413716f9a77960254fc9aa061a6760b2c9cd5c460001b6200b347565b60008114156200c2e1576200c27a7ff7d35bcb2b713968c089fdd9b59712b4eb62375d00e259e9dfce81aff0b8969b60001b6200b347565b6200c2a87fa22bc731dfb2440b39794a07130d0ad03e27d6b8166a162102b8307676d1ca3f60001b6200b347565b6200c2d67f69095262fb678ae5f47c6a9ffabcd4b89001a3eed701741b5f7c4710ecb6028160001b6200b347565b60009150506200c388565b6200c30f7f263c8cd579b54b7eae40140c5ccb8cd53b978485034df207bf14711955d29e4e60001b6200b347565b6200c33d7f56c98e1813cfb46ef95956e10763a8a2d34e9f3d345a2e254da0d46729917f7960001b6200b347565b6200c36b7f966474f471122894d48e473af854379789a7b13e9e5227f3faf34cb4687e2f6e60001b6200b347565b6001670de0b6b3a764000060018303816200c38257fe5b04019150505b92915050565b60006200c3be7f52c9ca51b9972270d881e44fce54173680a33e35b8871e6e80b85b99d623f38160001b62003d05565b6200c3ec7f2fd7609211b56fe9c7b09a89ac81657b229e6e97def511c3ac0682bf38477c6d60001b62003d05565b6200c41a7ff86675a5ce71f58558d7a129881b09f387cc97b1a95b72c8e3e004f31645475d60001b62003d05565b60006200c428878762006e83565b90506200c4587fbc7184e84f845da8918c84da5184d0dabfe341e275bfd69f0040fffe8a74aee960001b62003d05565b6200c4867fd768f7a452f3c88c40ab856dd2765888d047c4838adebd681008a2ae37f67e4f60001b62003d05565b6200c4af838787815181106200c49857fe5b60200260200101516200ae2d90919063ffffffff16565b8686815181106200c4bc57fe5b6020026020010181815250506200c4f67fb616e0c240d521946aa80661c17e8a7d8a2689711f7624d615625916f255c44860001b62003d05565b6200c5247f346a88f4489e55ba78e3f4daea724cfc3f34d00ee2a63be3a6aadb22d3f8189e60001b62003d05565b60006200c534888884886200d8ad565b90506200c5647f4700b9bf27dd710f3f1a1498b4a6ce66e9aa0d302c046048b30d54810cf8922460001b62003d05565b6200c5927f9b70b032777caf680caa3f4bf59a94c49952452a41fef30f996261e1ef0c51d060001b62003d05565b6200c5bb848888815181106200c5a457fe5b60200260200101516200a64e90919063ffffffff16565b8787815181106200c5c857fe5b6020026020010181815250506200c6027f2e2cc403f27f371352bc74fdad5350ecf48274299839944fec92c17cd7e5927b60001b62003d05565b6200c6307f641c2ab38bc0ef9741ed8bc81aca6e7f1be17174e8092d0917def2781c3b488e60001b62003d05565b6200c66e60016200c65f838a89815181106200c64857fe5b60200260200101516200a64e90919063ffffffff16565b6200a64e90919063ffffffff16565b9250505095945050505050565b60006200c6ab7f2f28154407be259a8b5ae1d92482cab9e8b2cdf23ad42d39bdbf1d9e9d4d1da660001b6200191d565b6200c6d97fde8d3b10f894bd9ae4ae64549cc687fcc587ef70996d382abfdd4adfaf29623360001b6200191d565b6200c7077f4b3c49ee92a6d8c0dfa4ba1fab76a8a0dd5b81608cea4bb36153a96445e268fb60001b6200191d565b6200c7196338e9922e60e01b6200269b565b82149050919050565b60006200c7527f63849c48734c5fb876bc3d69836a638eeb4622c0b6c1acc72a91d552b7d1af6260001b62003d05565b6200c7807fe8173ff43f9e1db5358486ae6fad6ad5b33319fd434c90cd89d78ede8e2dd85a60001b62003d05565b6200c7ae7f8894f86016b5c48ef7569857b3ae678fe8ff7019219a6b499a64421afde6c3f960001b62003d05565b60006200c7be878787876200d8ad565b90506200c7ee7fd3c9bda71c503a8f81534f9d8529889a53d10f5b683a22d9097fddfe36367f9660001b62003d05565b6200c81c7fe045c257fc6aac2af301d91ff28c3c5c6a60707afc9ad7545feec1528a46b45b60001b62003d05565b6000818786815181106200c82c57fe5b6020026020010151116200c8425760006200c86c565b6200c86b828887815181106200c85457fe5b60200260200101516200a64e90919063ffffffff16565b5b90506200c89c7fecfeb968b020c813afd8bb653d3d1ffd23f4fed1f4ecc1d86ed1c5fcbfe907d160001b62003d05565b6200c8ca7fb44fdf2aeed153697c93f6e2559cbf31574fdfd0102e8e7fc284eb976a0ee80160001b62003d05565b6200c8fb670de0b6b3a76400006200c8ec86846200e3cb90919063ffffffff16565b6200794490919063ffffffff16565b9250505095945050505050565b60006200c9387fb65c7bf51683583b66b5f41fd86a2f8943b8866fa392410ae6b68481b2e0047760001b6200d8aa565b6200c9667f6e7e0a3833c695c820b7b00d08a709e1b04a47e78797814decda57bca27c262660001b6200d8aa565b6200c9947f556f48cadf22ba1ac1b371a414e4dcbca5b3cc9c89d56c341538ae66156b672360001b6200d8aa565b818060200190518101906200c9aa919062011651565b9050919050565b600060606200c9e37fe43977ecc8fc383612deaa526481dd12c217dc617de9653c2d929fdaaf26417960001b62003d02565b6200ca117f23d99ded7a08dddac8712dd43904487faa99a77a20c382b416002f037975d3e860001b62003d02565b6200ca3f7f7c269407bd44c42660349a4c6a311bc95a370fcb345ea3b6070a5c5f1006dbde60001b62003d02565b6200ca496200609d565b6200ca777f215733b8cd9af718b2d564e08e0d1743cce1a0f8416572ea9a1f99dafc713b0260001b62003d02565b6200caa57fb9589ed00d90ae107d86a189bd6e0d095f1c7769fa146de18701c15b76553f0f60001b6200205b565b6200cad37f0c737fbbb253bcc3658cb9020569b7f733088f1a4f63441367c573f5cb5f354c60001b6200205b565b6200cb017fe27ebeef0d71058764179fdae88b5ecfa3363f6139933fb252cfbd1755926b2160001b6200205b565b60006200cb0d62003f95565b90506200cb3d7f063a8359710d9cabd2114a889eff22b21156a676b12782389b86978389f527b560001b6200205b565b6200cb6b7f6d2203986986dd0f56f0fb48d7444ebefe386e86592f40b954141fddbeff2aa860001b6200205b565b6000806200cb79866200e557565b915091506200cbab7fa2420763a538cd4b0c63517e62df566e5c5f33f01f891191ee1d0e31ab97f7a360001b6200205b565b6200cbd97f1c5cb97ac3d5ea0fc872e4bcc08e70a8ec3ffc674242702513e54c72ab05cdf560001b6200205b565b6200cbe8838210606462005b2d565b6200cc167f24c42f99a6ef26304fbddc5cc6bb4a15595e0548154701d35eaab555f45139c760001b6200205b565b6200cc447f7dc84556db6d2f1013de6b5d34cad0984b66d04d54cfce885eb24b697d4c9e3b60001b6200205b565b60608367ffffffffffffffff811180156200cc5e57600080fd5b506040519080825280602002602001820160405280156200cc8e5781602001602082028036833780820191505090505b5090506200ccbf7fb1466344db6af3167f88261301e1d1b53f0859382b415c9d9d071dca9d4dc54f60001b6200205b565b6200cced7f90a5506e3364ce8d7a8b0b7aed3a1bc4d503ffb82ba01413fe35c1b4577e20e960001b6200205b565b6200cd287f00000000000000000000000000000000000000000000000000000000000000008984866200cd1f62000e79565b6007546200e60a565b8183815181106200cd3557fe5b6020026020010181815250506200cd6f7ff32631c2983cf8cb0ff462e9879660d527bbc82263ce72ac5d684894cd70626360001b6200205b565b6200cd9d7f8f1b16693c42145dd9164f96bcaffe9e1f1306fe7bc9db56682c1f48617470d460001b6200205b565b828195509550505050509250929050565b600060606200cde07f1a4a8d960150ab75376ce227b10a03a086a36666e16700149c8fdf9a1785852d60001b6200205b565b6200ce0e7f9e963053dfa5fbd765e7305ab8aef995102571a14264149c0db1f1c7fd318a4460001b6200205b565b6200ce3c7f3906c90fafb4c80504d854f29b60d25f235f5eef8c5a327088452a962edd9ceb60001b6200205b565b60006200ce49846200eb8f565b90506200ce797f7bba95a9ca460888bcd9f847633023045de278c8218baaa33a201bdaff2e659660001b6200205b565b6200cea77f33b987ab6bc7d3e7a22db7a16e3f9104783b5186c6e1f1fa95a3d43b03bc6b5660001b6200205b565b60606200cebf86836200ceb962000e79565b6200ec3c565b90506200ceef7f7c23b5d83bb9b91f104eb36aa4e7722354ddfa46f8ad14259e4cbfcac02d973860001b6200205b565b6200cf1d7f893d13ef670a936dd22ff0b3310c1f2b061f43101d3e61dd9d3c0d43a15fafd760001b6200205b565b81819350935050509250929050565b600060606200cf5e7fe43977ecc8fc383612deaa526481dd12c217dc617de9653c2d929fdaaf26417960001b62003d02565b6200cf8c7f23d99ded7a08dddac8712dd43904487faa99a77a20c382b416002f037975d3e860001b62003d02565b6200cfba7f7c269407bd44c42660349a4c6a311bc95a370fcb345ea3b6070a5c5f1006dbde60001b62003d02565b6200cfc46200609d565b6200cff27f215733b8cd9af718b2d564e08e0d1743cce1a0f8416572ea9a1f99dafc713b0260001b62003d02565b6200d0207fccb2693ea39dbea8992dbf763f8d7d033468da8fad8a2a91bdcea84942f7cb6a60001b6200205b565b6200d04e7f19249edb8877d2ac9012c65900a3bd5d3ee9153fa240ed9910326a1c97cdd69360001b6200205b565b6200d07c7fade6b17647d0fb2c15b0de2c95dd9491b22dfe82387feb7c121ad5bbe49e274260001b6200205b565b606060006200d08b856200ef09565b915091506200d0bd7fcadf760d398a8b01ddd9ba4a170e0d23cfe1610f9ae431802a8c26c60ebbb7a060001b6200205b565b6200d0eb7f6c03d207681584b47cc3bd1c6a30898899d44b48420a771f6eb157ae2e6b28b360001b6200205b565b6200d10182516200d0fb62003f95565b6200634e565b6200d12f7f5648bbc761fd043e940251283f0eeabed64f8a2687aeb1777e65780d3fc4541160001b6200205b565b6200d15d7f5cb5a2e50b49ce198bb5e2482283cf5274070e0a98b44c7a021832620ed7213b60001b6200205b565b6200d172826200d16c620040f1565b62007c62565b6200d1a07ff0d14722b95280011b57abae64812a8b1fa18857e77cc7bf6594faeee8b70d0a60001b6200205b565b6200d1ce7f6a868fc14da025c4127f5ecfd9ad366736df928fa5a81c58a68e4524e273da7a60001b6200205b565b60006200d20a7f000000000000000000000000000000000000000000000000000000000000000088856200d20162000e79565b6007546200efbd565b90506200d23a7f089a489668e555d079b2acdfff5b2bfffbd1bf63504be7a4f99c8fb0d8a2be1460001b6200205b565b6200d2687f666b6403e7666aac669a739c866a5bbd970397ab4a4782f7298bdb26d41c908560001b6200205b565b6200d2788282111560cf62005b2d565b6200d2a67f74fbd12e79045df749a70b22b566f63023b141386b7f9cdcc4508be97c4fb7b060001b6200205b565b6200d2d47fb07a87c9f2dc44015252f203cdb4174dd24680645d9bfe1e3add179ce66dc09960001b6200205b565b8083945094505050509250929050565b600060606200d3167f333a8d73372d18336ba01ce41da0f59c203abb03a06fa54c5ef1ec0bd44aaeaf60001b6200205b565b6200d3447f060da7119437b5b77d6fd3a6fec3f732b0287a27052cfc1c5437dfe811fac55360001b6200205b565b6200d3727fe616e0598f7ecf5a8e70594fb0f8d8d239cc97e8310afaf7ede490e03778545c60001b6200205b565b606060006200d381856200fb5e565b915091506200d3b37f56d20bd258340aed8b652acc8932469f68463b9a45792ae6be883af1c88fe42160001b6200205b565b6200d3e17f429f6420d8358814cdc04f686f5d06fa15b1396afb406f8904eda723c56e490460001b6200205b565b6200d3f76200d3ef62003f95565b83516200634e565b6200d4257f59c27ebe80e26a6ddca04659b7a1c2a44c5ac883718ae4b51ab2e63b8004228460001b6200205b565b6200d4537fbba0cfa6371706ff1f7b918c9b5e271c646ad3d4349ac4c07d5425ea3e0122eb60001b6200205b565b6200d468826200d462620040f1565b62007c62565b6200d4967fc7a947c179b83dd937371436dc203faded132f8abf603d07a1a0b0c3d6fc5c7b60001b6200205b565b6200d4c47f03ffe27a5e6f65a08906018989ce2a851ab23870941ccaa29b3d5ec36436740460001b6200205b565b60006200d5007f000000000000000000000000000000000000000000000000000000000000000088856200d4f762000e79565b6007546200fc12565b90506200d5307fa7dc7d3d25f1ae9bb314304c189c28ff40fb0b4296552a1905628186e546528760001b6200205b565b6200d55e7fe87cf95e82d2daec648e71e9e5ab5a5278061aeda56c40b552b02ecdd07a311d60001b6200205b565b6200d56e8282101560d062005b2d565b6200d59c7fc6b4bfdd475e9dc2b6ff804a6f96820a3bdcb2b0a2dcb66dd2313e5e248f26e460001b6200205b565b6200d5ca7fd86c42d2d524a066839f6541f9b8fc8070fdf51d5be4ed4f1af905432df6cb4f60001b6200205b565b8083945094505050509250929050565b600060606200d60c7f44a154425a1c73b3eb151f2c3d7581ce1d1824cceb01900bb2f662a3349863be60001b6200205b565b6200d63a7f57181b0f792141e251207aadfdcf436f507028577f89ff48234ef3f48dd0e85560001b6200205b565b6200d6687f56f0dff3988370652e6f217e5ff80cac37e31348e39a86a838b63ef538d3050660001b6200205b565b6000806200d67685620107d6565b915091506200d6a87f302be809fbcb843440224c60b670bcb4cedd030ee51ed2158c21a6d0524636f360001b6200205b565b6200d6d67f73c0a0da6c11bf5add8bb9f905d9dc06ed5ea2aa304ac1dce2066a1aa56e526460001b6200205b565b60006200d7137f00000000000000000000000000000000000000000000000000000000000000008884866200d70a62000e79565b60075462010889565b90506200d7437f4fc5bbb4fdc87bc99b2c90d6aac8a9ce85d746eacfd5feaa11f074ce13b1f0de60001b6200205b565b6200d7717f956d74153e38b1278f48dd42ca705f9605228d66e8fd9eedca203ddfea877a1c60001b6200205b565b60606200d77d62003f95565b67ffffffffffffffff811180156200d79457600080fd5b506040519080825280602002602001820160405280156200d7c45781602001602082028036833780820191505090505b5090506200d7f57f78cbb09855d9844249a8f637a3f7bf8c4f6c5793fbbac57db39a217871d8548560001b6200205b565b6200d8237f80204f88984c25b4904481a8dff7bb8ea9548a41cb9a7c03b14f897dba42484760001b6200205b565b818184815181106200d83157fe5b6020026020010181815250506200d86b7f66c0b50669a21233417df3218a80153a8dee9ec20708a6f5f4b2822afa9baa3760001b6200205b565b6200d8997f88beeb84ae5f02ce56e3f2dd96e78a18e81490c37485dd0b3bdbd740a8317f5560001b6200205b565b838195509550505050509250929050565b50565b60006200d8dd7f1d86fee9bc5f32de233dd92785005040b1e4c075ea3f7b92524c6f1e5f5649d660001b62003d05565b6200d90b7f1159b765aa7b6a5b3374323d8845c79fea5e96d8eab68b358223b8d0dab083b560001b62003d05565b6200d9397faf61d1bda411da9fae6e64c877a67385ab570418b31937bf74458d234ef80e0860001b62003d05565b60006200d9488686516200af92565b90506200d9787f28bbdca14a5066d03a165b82695023f74fdf5de8961ce92627c5950987b8fea860001b62003d05565b6200d9a67f1aed0cfc618866973ff62471213a0f6d3ee9d8a110f2367dfc8717173981339860001b62003d05565b6000856000815181106200d9b657fe5b602002602001015190506200d9ee7fbc594d4c8c7b3c4d5b0e5ef436ea6405d8b3410714655ffc9ae54a8a81c1940360001b62003d05565b6200da1c7f2bb79352f46dfffea694fefe8ea1c336bf463c30b35131ba9f0d13b47663244560001b62003d05565b60006200da408751886000815181106200da3257fe5b60200260200101516200af92565b90506200da707fe19a4aaa6450d8a0bec6bd0ab3b08d34911039ca63a2b724ec81e750a3803aed60001b62003d05565b6200da9e7f5f2bdf6aff220aef2f5d7f77396d46e515c16f0ff1d032193bd41574dad9306160001b62003d05565b6000600190505b87518110156200dbd9576200dadd7f429207269d042bd81ccf35011a25acc42e188073bcdcb3b3d4e88e0e69cdaaf460001b62003d05565b6200db0b7f5721d5e6f5a1bd17c4b0bb46efbd857980d308915239fe60bf9db55b1e29fcee60001b62003d05565b6200db426200db3b6200db33848b85815181106200db2557fe5b60200260200101516200af92565b8a516200af92565b886200ad21565b91506200db727f0bc6a1b83c4f93b54c184df412e178df993a87c7dbe839fa9d6839167ee855fc60001b62003d05565b6200dba07f915398b38fc5de5ba631bd737eedd1fcd270002254f6ed8e7f38f2babc20327260001b62003d05565b6200dbc98882815181106200dbb157fe5b6020026020010151846200ae2d90919063ffffffff16565b925080806001019150506200daa5565b506200dc087fd162eb55c0d36f66624994768e9846acd90bf529945f74f2bb4f62d007fce86f60001b62003d05565b6200dc367fee218c343c7a23ea4d1011d6fd6fce36376d3744883de4c79abe118d722c292260001b62003d05565b6200dc5f8786815181106200dc4757fe5b6020026020010151836200a64e90919063ffffffff16565b91506200dc8f7f676e038e2ddd2ddf0217e12bed3ce2b2ebd5bac1d7047a811ece29dca9e9052b60001b62003d05565b6200dcbd7fb177d18cfbb24b54cfa130fcc1ce2f7b4bffdc31cca4c621ad21cc6c44fdfb9e60001b62003d05565b60006200dcd66200dccf88896200af92565b856200b10c565b90506200dd067f669641c049def520fe9665bb98847fbcb800eb4efec2a19f1fe8e55d5db1edd360001b62003d05565b6200dd347f95abfdebab9794081cc0e3d81e7b70e36f66ed08d9c9ea598511adb91d235c3560001b62003d05565b6200dd71826200dd628a89815181106200dd4a57fe5b6020026020010151846200c0d290919063ffffffff16565b6200bdae90919063ffffffff16565b90506200dda17f53facd0f5b95c2567b6c366c778ff46897b2a3eb14ee64ac28ee01011206a12460001b62003d05565b6200ddcf7fd7bf20d88a2855c39c1ea8cf233c011950042d49d95f315dd912bcb486f4a21c60001b62003d05565b60006200ddfa6200ddea868a6200794490919063ffffffff16565b856200ae2d90919063ffffffff16565b90506200de2a7f72ec9e23d4e588042092c11365fdaf6ea87dc32a0e6ab5b21b01dca19ba8732460001b62003d05565b6200de587f59e698ab4a3cdc4b1cda559114ff4089574b9f8fade23bf71d09b5b2575a81e360001b62003d05565b60006200de887f09ddbf4b2dfdfb09dfc95a1d35bbb0f011c98d2dbf6e609c2b00509f0d913f9660001b62003d05565b6200deb67f0866b2034e4a0bf177435d2d4c3263454f3c4e0691b4b2ec4b2d5388381a9ff560001b62003d05565b60006200df096200ded1848c6200ae2d90919063ffffffff16565b6200defa866200deeb8e8f6200c0d290919063ffffffff16565b6200ae2d90919063ffffffff16565b6200bdae90919063ffffffff16565b90506200df397f195c44fb0936cb964affd890f1f17a5cd48eecc3d2f266c992e44b239d455e1860001b62003d05565b6200df677fe36293fe22bf173160ccda54e511f02df6358e95e3ada6d71f6b09d95b154f3b60001b62003d05565b60005b60ff8110156200e35c576200dfa27f7137af725718c2e2b04819c4317518d373df4245161e76848527dd415ecca27c60001b62003d05565b6200dfd07f44ad32510b1c94817c1708fcb652e37461437d097d2dac9b31f55cb8df9da14560001b62003d05565b8192506200e0017fce6502a87f63160eaef7078c9bdf8e629ce7b30e2b2ea35c29ef1836090febb560001b62003d05565b6200e02f7ffb2c1ca9f63c6d2bfc13023c11b730650f9804c4bed9caa22b86cbaf12608d8960001b62003d05565b6200e0a06200e0688c6200e059876200e04a8760026200af92565b6200ae2d90919063ffffffff16565b6200a64e90919063ffffffff16565b6200e091876200e08286876200c0d290919063ffffffff16565b6200ae2d90919063ffffffff16565b6200bdae90919063ffffffff16565b91506200e0d07fd36e4ac895cbc4f68ebf5752add4b0ab70ff31a7c4dbb617b6ca2581769d81a560001b62003d05565b6200e0fe7face8f9251990fb826b420caf3437e0d3d0d0874ef854734438d1eb5ae50c093f60001b62003d05565b828211156200e244576200e1357fbf1197f8f4cf76d7234e7605b45e3428870568ff79039de83041a4347eee94b460001b62003d05565b6200e1637ffe676cbfa819a62ddb2136b136f98da2b3af947d82d93cb57f575c031db4c6ae60001b62003d05565b6200e1917f80498a7573edd0ea7ceba2dec47f6e74c44cbc12cb5a7326464cedfff408020960001b62003d05565b60016200e1a884846200a64e90919063ffffffff16565b116200e210576200e1dc7fc3ec05e5e54fc3013d00f8f454de14b7f89f728494783f56fc3e5d034b44b09460001b62003d05565b6200e20a7fabc758db24e5e1875bc55a5091c1c216e7d6be4944b58960a24ab4b1dc18adac60001b62003d05565b6200e35c565b6200e23e7f263411c4ba9362b14a2cca1e2ab7dee41f17cb705d931f0c803bebd2608c65cb60001b62003d05565b6200e34e565b6200e2727fca2d118adfa970dabd5ba5499973cd65d417b15e6a25913864131c8b6634f05a60001b62003d05565b6200e2a07fa413dfa923ba87655b3231eea16893271e24d25860ee9a563ef47d950c803c1d60001b62003d05565b60016200e2b783856200a64e90919063ffffffff16565b116200e31f576200e2eb7fdbdee3166326944741963187607909c14a185fc530d4522e835d4958cae1578f60001b62003d05565b6200e3197f84f8ab58e7f87a3195daba2b34f3461ec8d6f2e486c86dbd3e82885e6bc0b73260001b62003d05565b6200e35c565b6200e34d7f1bb83baffcf58d708374cd18cfb2aca9c653f24a64b4f4b2a168f64eab9a829760001b62003d05565b5b80806001019150506200df6a565b506200e38b7f7573d8ac51f031ae904b024a5c24993608caf07ae493e3f8fe2769fc8bbc1ec660001b62003d05565b6200e3b97f9703cb57d315506dde6e65969c34ae7b0e462a8bb4c6b34392fa5e545a190e5660001b62003d05565b80975050505050505050949350505050565b60006200e3fb7fed5730d97338cc99ec7ced602749e69fad452b233ce5af1bbc10319879372caa60001b6200b347565b6200e4297f8f6916668b49b644d98f771f124b5a32bd9897d7ebe53b3c38ade6a71e84085760001b6200b347565b6200e4577fe14f128dd52a43628a9bba7b0a6f33bfc1a4220802b917ba737266f9dcbfa49c60001b6200b347565b600082840290506200e48c7f46dbb44b8cf04ee6e61d614d79ce70c1a85cc911b0197fa4ddce642a38fa5fc460001b6200b347565b6200e4ba7feefba6c3b698f9572b5bf37de3ea9769c52c377600e5b34f929c993e75aa62d460001b6200b347565b6200e4df60008514806200e4d75750838583816200e4d457fe5b04145b600362005b2d565b6200e50d7f38f54c5617f008a16f1f038a9a8bdf61cc1319b326250c056a5f9064eacdca5460001b6200b347565b6200e53b7f7a48fe0d9a13c1bc8e2332965b60872b1e28e7883785e9895a3ba40dfcccd1c360001b6200b347565b670de0b6b3a764000081816200e54d57fe5b0491505092915050565b6000806200e5887f226389524653303270fc6bd7878a6aed471e44b6c374bebf1ef3af2bb0e7da5660001b6200d8aa565b6200e5b67f34f42fea261546b5f43ef01dbe0b23cfe54cc0006d54e17b635dfa37232c191460001b6200d8aa565b6200e5e47f6477ca1a7b9f1c5ec888bf278c757637dd68e28f0aa70a3e44b1050dff65d59960001b6200d8aa565b828060200190518101906200e5fa91906201172d565b9091508092508193505050915091565b60006200e63a7fc4c42ee3fb894d55140d781aa438c3f3a0a39cdb324f4375f24bb86afc25384d60001b62003d05565b6200e6687f93948c5c7c3ff1a7e878d48f75813c216306be88318b70a62fc8bd41d64a952e60001b62003d05565b6200e6967f4fabaf379a560cc48e35873f38d2a95418c028191baebc4dc34344b74935659f60001b62003d05565b60006200e6a4888862006e83565b90506200e6d47f9a2234a12a96e8bc439ffdd322ab2a4a676747ff254ef69fa69f560fa6e6cb4960001b62003d05565b6200e7027fdef863088a3f4fd420a12a5af57d07d082048c22e73e76a4398acdac3f919cd260001b62003d05565b60006200e741826200e732876200e7238a8a6200a64e90919063ffffffff16565b6200bdae90919063ffffffff16565b6200c0d290919063ffffffff16565b90506200e7717f27d3e2c373ab24179cfb0d0c17cd420c3912c510597d7622ec7fcea299de02e460001b62003d05565b6200e79f7ff99360194b5f5c196424e9ae95aaf2b822cf2dd7eb097dd6cddb975ed69d850060001b62003d05565b60006200e7cf7f5209e9d8d9550ee5a30c09422876ce8bbdeca9306cebc7f63d64b10c7137723f60001b62003d05565b6200e7fd7f1129091ec574ed8a86f49c56c3f9462c66bc39174b5d125f3b7ffb399828c61660001b62003d05565b60005b89518110156200e89f576200e8387fde0296ceb6d4fa45fee74025899f5950c4e5c280cc76c4eedce8f6e11c219e5960001b62003d05565b6200e8667f93ac54f93de48c6d6535a076ce695829ca27bec6d188794f08d9a2f55165c0d260001b62003d05565b6200e88f8a82815181106200e87757fe5b6020026020010151836200ae2d90919063ffffffff16565b915080806001019150506200e800565b506200e8ce7f2b0ba23eff1af8d93d267e728124788bd0b4e7f6eb84e75d775c56201d544e2260001b62003d05565b6200e8fc7fc8dae815cac5701e2ee726bba375c9d536b90fcd69330554ce6491b9ff24e68460001b62003d05565b60006200e90c8b8b858c6200d8ad565b90506200e93c7fd5044468778decd803aded05766cb9384a2ce7095b52450ced045ba61afb547e60001b62003d05565b6200e96a7f1957ec9610f3c1b8143dad2bdb10e0e5687be4223acc1d76cd080d62582e362760001b62003d05565b60006200e995828c8c815181106200e97e57fe5b60200260200101516200a64e90919063ffffffff16565b90506200e9c57f837c69b5ef153d0e9d7d7fe9322b85bb5bafef0f1ef7cb6711b98be9deebceb960001b62003d05565b6200e9f37fcd00071de20785bdb373d358ad331298314c09cb6c2f9b2606177e0bbcba586760001b62003d05565b60006200ea1e848d8d815181106200ea0757fe5b60200260200101516200794490919063ffffffff16565b90506200ea4e7fd865b0fae16a1f4ad9c46332a1eba480c8c697e06b0e418dcf4e7a06de21564f60001b62003d05565b6200ea7c7f1d62e21f0dc9e7c31dad635e81c03b8a8c676f8c24fbda4484991384b6ca03db60001b62003d05565b60006200ea89826200bcf7565b90506200eab97f32a3058cd88875d276bcd9260c3dd9734c7945c9e197b5e6c2522b3d95037db160001b62003d05565b6200eae77fe0507d2648cca9afe69f368325b9c79751d4be7f9c10bf746ddba26b6bcb722460001b62003d05565b60006200eafe828b6200c0d290919063ffffffff16565b90506200eb2e7f1bd0b553f4d7cfedd89d6c397b7b8fb6fd10baa26a13dd34a6c8393bc23c797460001b62003d05565b6200eb5c7f3625d4bfcae95c90d966efbc7f37cafdad75a6691c56af70bc9c42811090dc7160001b62003d05565b6200eb7b6200eb6b826200bcf7565b856200e3cb90919063ffffffff16565b985050505050505050509695505050505050565b60006200ebbf7ff42405250a7418cf0ac11d0fd891276c18940f482ecd9054127438c75d0d4d3660001b6200d8aa565b6200ebed7f9c58ff4646bc5c55d960a6fa3706ba40d416b4c87dde94fe08b136591438014660001b6200d8aa565b6200ec1b7fa54bba5dc1306c7ead41ee2f4eb2c17bcb9eaf360873037cc18086339589671a60001b6200d8aa565b818060200190518101906200ec319190620116ec565b905080915050919050565b60606200ec6c7f4534cc55c4d7bdaf310d075803993f9d1739cd06b9fb2f23976d481181f6ada260001b62003d05565b6200ec9a7f9081bc5b97cbad9b7008751f8049a1e7c442b08716aa221aab157dc8b43665bd60001b62003d05565b6200ecc87f5512fdd81facd3b97228391bd38da28f0c01a22513302b2d1dbc346c3844b91b60001b62003d05565b60006200ecdf83856200794490919063ffffffff16565b90506200ed0f7f9e9f82922458a14467194a5b2f546d2c82a172abe3a1b25e1414ac83e13dee7d60001b62003d05565b6200ed3d7fc5216b47766b60df4f78b5f63c26a9370e11550240b0f17d965bb458fb1446af60001b62003d05565b6060855167ffffffffffffffff811180156200ed5857600080fd5b506040519080825280602002602001820160405280156200ed885781602001602082028036833780820191505090505b5090506200edb97f28aa0b6d479b091d147e3679e016c9d9920784bd1a00e2e02e383a1846a0e57260001b62003d05565b6200ede77f8bd441177f55e27051f3f0e34a1c0add0f9c7183e73a05e1547208fdd23f432860001b62003d05565b60005b86518110156200eea0576200ee227f9fb9ecc5d572275d1a050a3f95d39bf025dd0349a50acd9ab9194b36a2d2e71f60001b62003d05565b6200ee507fe34b777d7a5ffae0a8e38c9242bd85c2568094f22b2189bf13b2b5b5891a516060001b62003d05565b6200ee79838883815181106200ee6257fe5b60200260200101516200e3cb90919063ffffffff16565b8282815181106200ee8657fe5b60200260200101818152505080806001019150506200edea565b506200eecf7f738cb85c7da1c5b3d8be1ca2ef455ae9c6c0d0a393562e5acc8378f2434d939060001b62003d05565b6200eefd7f3066ff7d3edc3cac3b454df5942248a5175b8d662d9651006e97253144dbbe3f60001b62003d05565b80925050509392505050565b606060006200ef3b7f736c20b8740ffdbafcebca10533eec60ce989cd10886355fdc91335d1e488b5260001b6200d8aa565b6200ef697ffe1eb617d9ac5833079d74a01e187d011c32bf4f737b82a58cc33da8242650b060001b6200d8aa565b6200ef977febf922fb3f7fb90614190e1b3f9ed5518a4a0bd5e6aa95536753296d9c3b55e860001b6200d8aa565b828060200190518101906200efad91906201167d565b9091508092508193505050915091565b60006200efed7fe838a4b94cdd555b78d8f8f20aefc724685b612ed2d28370fe6bae31db3bd04960001b62003d05565b6200f01b7fd42ab485a72593daf8f0a173ed27413108f0e37d31e49c9db3c62722ae0b2e4d60001b62003d05565b6200f0497fff609860c5a8b73fd527a3c84716acb88a1fc37488b4dd03e7c95f0ead8c629460001b62003d05565b60006200f057878762006e83565b90506200f0877f3b02d96e56330f28df1ce1939a2cd93233ec8a56b5bad4a2398eeaaa39b6530a60001b62003d05565b6200f0b57f5cd068412eb26310e7fd7ff6fa778899531e79a9b404dbe1642fcd7a5a7c976660001b62003d05565b60006200f0e57f8dc00a296702d149e69d88e25bdd8e08b2941f9e83561db3ff1d8763fe71895160001b62003d05565b6200f1137f56e084fd61927414b0eb2a7031c1c88638edc7b6c51af30cdf050a10f7eb428560001b62003d05565b60005b87518110156200f1b5576200f14e7f21ca0b4f9cfd419f205be2812961564f60a982f7acb4f9c19155720eb5b3f64660001b62003d05565b6200f17c7f511ddd2a4b8783636ba3b414601fa600c105bdd47e2181ce020da3b20fd1e2dc60001b62003d05565b6200f1a58882815181106200f18d57fe5b6020026020010151836200ae2d90919063ffffffff16565b915080806001019150506200f116565b506200f1e47fd8eb3877eee11beaf7d03837a8721cf94dd74febbeca3b5680c39aba521f365e60001b62003d05565b6200f2127f1977a393598629bce2433f345f043ee0b0d579a88b109ee05ec3012813670b9260001b62003d05565b6060865167ffffffffffffffff811180156200f22d57600080fd5b506040519080825280602002602001820160405280156200f25d5781602001602082028036833780820191505090505b5090506200f28e7f3d548f782b7e0b2c8a047195e2f51c5a2ccad371b54db449e11ead634bf30eb760001b62003d05565b6200f2bc7f6e858b8e3fa11c3f9668f41b71fef5b6662216e130e5e0c4fa79a0aefdc5d32060001b62003d05565b60006200f2ec7f4f6cc9b2c2d3d9721188d7e58f5d03a43328c38952ed4578ec6bc52f044b78d760001b62003d05565b6200f31a7fda04fe1d6da5eaf190d42ce475e33977b6bd23e37409bc1a09f6bcd714bc201f60001b62003d05565b60005b89518110156200f534576200f3557f2a1e24ae45e914db84af77fda110b77289ff639942022a25236f55373863cb7060001b62003d05565b6200f3837f918cdd04d96b1cb4cd0f3c4ec3c25c1e7dcf219e88d4a283fbd536c48b861ba860001b62003d05565b60006200f3ae858c84815181106200f39757fe5b60200260200101516200bdae90919063ffffffff16565b90506200f3de7f0ea03b4fd7076e491999d25df17f7900400a800459085d717c95d50a2424808d60001b62003d05565b6200f40c7fdf77ea4d58aae6e296e1e7234cb57bdaad30027f77a040bfc4c16d9a3608a5e460001b62003d05565b6200f4718b83815181106200f41d57fe5b60200260200101516200f4628c85815181106200f43657fe5b60200260200101518e86815181106200f44b57fe5b60200260200101516200a64e90919063ffffffff16565b6200bdae90919063ffffffff16565b8483815181106200f47e57fe5b6020026020010181815250506200f4b87fb1b6c446837eeb61488ab2ec0f96de873db6b0c265b67af52a0271a8722ee07960001b62003d05565b6200f4e67f628b021cb75e3d3b41b0c3bc7d00e198161cdaeeb23081d6b03724e50c05743f60001b62003d05565b6200f5236200f513828685815181106200f4fc57fe5b60200260200101516200c0d290919063ffffffff16565b846200ae2d90919063ffffffff16565b92505080806001019150506200f31d565b506200f5637fb357826c7b97e4e3c4f0b9bec956befd9d168572ee5e04588f1d2bba87cce2a660001b62003d05565b6200f5917f32f995000e91d9aa1c454f3e4ed8fb47de86247e1b76755a9d5e529d94ba0bc660001b62003d05565b6060895167ffffffffffffffff811180156200f5ac57600080fd5b506040519080825280602002602001820160405280156200f5dc5781602001602082028036833780820191505090505b5090506200f60d7fa8595232caf8405fb8a37a4b25892a04a375521dda954a9d0852d407e49d3a3960001b62003d05565b6200f63b7f5e3a0bf0294cfbca69b2f64ec03391f48b6fb76c4f911f0cdfa75d5c8d7e848860001b62003d05565b60005b8a518110156200fa51576200f6767f4196a5fb289e6ec56c5c8ba2a77ef401a06ef55e462330390d75bf7f35d9d9f960001b62003d05565b6200f6a47f7be7a328dc728f87008b6432a4ed9beeea983c60ef890d33d809277c94ee078f60001b62003d05565b60006200f6d47f420b64d489837611d40625e91b56a385fa54dd962f7afda01e0d9cce8ac6a39360001b62003d05565b6200f7027f4df666f4c77774d319efa55d568530611d78f672d1f4425da78c32acbaa1fa8860001b62003d05565b8482815181106200f70f57fe5b602002602001015184116200f7b2576200f74c7fd79cd0a5cae01c07103c640e3e5e5ea9924652b019be938e18a0f47aec09b31760001b62003d05565b6200f77a7f8cb0f2de59ccbb102b00554c3be55709b1e16fa8acb28728c463f7dc4900562360001b62003d05565b6200f7a87fd15f0ac660cb6b8344a836d941470b291714d1eb0e206fd16fd9265e28ab398f60001b62003d05565b600090506200f89a565b6200f7e07f04b1e3ef332b26a2b83929ee524777739fc6eaf6249023b32a6ebe782f410f9d60001b62003d05565b6200f80e7f97d286174689ba95458a72fdc61e40da2896c0a8277fccc5e8960ff49681da6f60001b62003d05565b6200f83c7f18a577442faee0088a62e734bae107d25fd9acd0f0d11c44496705e7ab74861460001b62003d05565b6200f8976200f85f8684815181106200f85157fe5b60200260200101516200bcf7565b6200f8888785815181106200f87057fe5b6020026020010151876200a64e90919063ffffffff16565b6200bdae90919063ffffffff16565b90505b6200f8c87fcb1c7ba3fde9924702ca2c3d73dda063e2f55e4379d26171254eaac039d7e2b060001b62003d05565b6200f8f67f763003aea8ec731a1c1e6667e00ada6df3fbf62252f9ec4a30f2f02768c2647260001b62003d05565b60006200f90d828b6200c0d290919063ffffffff16565b90506200f93d7f6cf143794808793f787c20bfa829b41876c8c209bda4413b0cd718ba8492bb1260001b62003d05565b6200f96b7f39eb11964aabdff5d65d8884a40b75a8c79335333a50ee502487b5c553d4cca560001b62003d05565b60006200f9a06200f97c836200bcf7565b8e86815181106200f98957fe5b60200260200101516200bdae90919063ffffffff16565b90506200f9d07f5941e039a081f5e1682bfd74946243b91b7a4f1c872fa20e34ed46bb04797c3c60001b62003d05565b6200f9fe7fe43db5b6e76919f3e9efa4959dee6a3ceda861ebebdf4718934862eb461aa78360001b62003d05565b6200fa27818f86815181106200fa1057fe5b60200260200101516200a64e90919063ffffffff16565b8585815181106200fa3457fe5b60200260200101818152505050505080806001019150506200f63e565b506200fa807fdf04ae6aaf0f4eb2e7c9b8189abb58ebb46f68166ba6c2c5c4b9b2e569cbb96c60001b62003d05565b6200faae7fcd472c0b605b92e5f63202fe1d172e55d3f4e05f4df2ffdf82e828a4b69b79fe60001b62003d05565b60006200fabc8c8362006e83565b90506200faec7f3a396a5930d67aa6eee47cb347fbc7e427821ad485761bf744c3d2d9add65b5060001b62003d05565b6200fb1a7ffd88f3e9a08b43dac5d405452d3ddcb84d50cf63fc38201124974aa9b7873ae460001b62003d05565b6200fb4d6200fb3d6200fb3788846200bdae90919063ffffffff16565b6200bcf7565b8a6200c0d290919063ffffffff16565b965050505050505095945050505050565b606060006200fb907f256a554c57c5c9ddfda35981618f0a519ee7cbe3c96ae7d496121674f5ebf9d860001b6200d8aa565b6200fbbe7f8e5d602b5bf3c539729c663802d9509c55af1df0ab507686ece86beeb791832d60001b6200d8aa565b6200fbec7f631d615b6fdb161a542a6743f12c790e03b30e3269ea4a6e8e0e4d642b05535760001b6200d8aa565b828060200190518101906200fc02919062011809565b9091508092508193505050915091565b60006200fc427f0fa5a226f57193473df93dd35efc7d4f27603a39bd367228c73ad872c912727e60001b62003d05565b6200fc707f6db9bed27650fa9a6ffc7b48c7066f6cf69683a75c83fa6615144c4ce6f8144360001b62003d05565b6200fc9e7f992f64b322dac5008e11e6782d4bb703744d3defb50caee44838228cbc51193160001b62003d05565b60006200fcac878762006e83565b90506200fcdc7fc9aadd38942e4b75973c6a48eb632487f94701992dbcb05151bda49b28da0e2160001b62003d05565b6200fd0a7f7cfccca356b834ef1e5fefb970a7b77f5723d096b55bc6fc6f08a857ddc85e7960001b62003d05565b60006200fd3a7f4960d1adb32862e3426035369b6162b25553e344303269270d372aff32be11e860001b62003d05565b6200fd687fa29eab63c1e201e6ece3fd4cf8f7edd76f972f8d5288909edc8ce71ed49bf75060001b62003d05565b60005b87518110156200fe0a576200fda37fe3ab2892580795a69dd3ad309429e7e39a3f1b22e7d3e54f59a8434dff4c73f860001b62003d05565b6200fdd17fdb68473312a559080e7508343cf91186abb5fbc49655a2338b4ae92ee55eaa5860001b62003d05565b6200fdfa8882815181106200fde257fe5b6020026020010151836200ae2d90919063ffffffff16565b915080806001019150506200fd6b565b506200fe397fe1e2b187963bfb2c3be28f0106f10660631c30ba83b7a88c66f50e831881993e60001b62003d05565b6200fe677f93d89b81e2dc4fbec1ec36799a9d80bee7812a3f393a70ab76b9674ce8596f7a60001b62003d05565b6060865167ffffffffffffffff811180156200fe8257600080fd5b506040519080825280602002602001820160405280156200feb25781602001602082028036833780820191505090505b5090506200fee37f8d9ce77d3658d85cdbf7294ee7fa83ec50170128c559c415eaf4c9a65d857c7e60001b62003d05565b6200ff117f1638c4de9a9ec4cc2212f72fcf3c6e7a13d27a9b9e2c09de419675c380c24f8a60001b62003d05565b60006200ff417f15972d06ae00cadc3a03546f2e4475c8bc5beb194eea87902b744511f433ced060001b62003d05565b6200ff6f7f3a8c21239d6bb8f19e7dbdd635a56731384e2012a5d73dd99994f72fa880992960001b62003d05565b60005b895181101562010189576200ffaa7fdcc54cd73faea2e231fab4e1771138ccb04e9bdac7b14e7c142797934b26837060001b62003d05565b6200ffd87fb33bf50b2dd4ac81b409a43445630b691c5219f05bca350ff675bc14cd61dc9a60001b62003d05565b600062010003858c84815181106200ffec57fe5b60200260200101516200794490919063ffffffff16565b9050620100337f137a42ed5b6bc582fc8d7065ac6cd8004e653de04a3b0d467677fb8ae0db17f260001b62003d05565b620100617f7ba03de368410b6d4ed38ed8a2df31227c2065d0f63712806efac5f948acc93f60001b62003d05565b620100c68b83815181106201007257fe5b6020026020010151620100b78c85815181106201008b57fe5b60200260200101518e8681518110620100a057fe5b60200260200101516200ae2d90919063ffffffff16565b6200794490919063ffffffff16565b848381518110620100d357fe5b6020026020010181815250506201010d7f72765b17d830db116aacd964e45cbf97bb50bd01386e8d0ee7cdeb095cfd0ace60001b62003d05565b6201013b7f756efed06999e47702e0b6a2946e3d96e586f6bd4a04c21ceb1e229fc0577e3760001b62003d05565b6201017862010168828685815181106201015157fe5b60200260200101516200e3cb90919063ffffffff16565b846200ae2d90919063ffffffff16565b92505080806001019150506200ff72565b50620101b87fa423bdba64489b7e3c3377fd658e1eff9cf4d861a7ed3f40e1b7a8220932b7dd60001b62003d05565b620101e67f16521ee6259505824198522e11f33daca9467daebcb9f928a176f72fc4f1ae0360001b62003d05565b6060895167ffffffffffffffff811180156201020157600080fd5b50604051908082528060200260200182016040528015620102315781602001602082028036833780820191505090505b509050620102627ff91ca9ab2c323fd330539ca34c92eb218f6a6d7decb37c8020d24a2c15fda18360001b62003d05565b620102907f7d38c91b68dd0f89a816911419c8391ca8883516c89387c5601b5bdfdae83a0460001b62003d05565b60005b8a51811015620106b857620102cb7fe74710802f6526275afb314122f853636f6fb908761963cd571ccb34a9c63e0d60001b62003d05565b620102f97fe49bc0c2c12953d95906a5ca8f80857218a61091ee07c9941377c17b4245295660001b62003d05565b6000620103297f45743b0feef1f6384920b92c5f25fdfb735f9a7604400fb7b14cffeb65dc0bdb60001b62003d05565b620103577fb041ed050472ced97350e8114a4ddcbe4d8d3fbaa710ff86a309cf264db89bab60001b62003d05565b8482815181106201036457fe5b602002602001015184106201040757620103a17f8183f2518458b663e1539bd6c6f26278cec17b2b4527ba93d87431e3962228a760001b62003d05565b620103cf7fc589df819a7f6ba7c66ddf2c2d627a0b322f4b3a7fbadb43b20a21dae18d485360001b62003d05565b620103fd7f88f45bd23cd6051931572d554ac6a5caa6c021e2ae82179665fda1476c0bae2360001b62003d05565b6000905062010501565b620104357f742d8c2100f5a8e0f6b0946fc95592c74b4d51ef06398094e062cd606f3f4d3760001b62003d05565b620104637ff9c45943a5677a6b6d920adab3c7440b9fcb4a1832061a74b4bc84fc5b1a9dab60001b62003d05565b620104917f01e8502151cf6be77828366efa61b98463969d0159b82cf7ae42449dc30cf85760001b62003d05565b620104fe620104c6670de0b6b3a7640000878581518110620104af57fe5b60200260200101516200a64e90919063ffffffff16565b620104ef86888681518110620104d857fe5b60200260200101516200a64e90919063ffffffff16565b6200bdae90919063ffffffff16565b90505b6201052f7f9a09ec7d785d1a7a85cf1773a57ce59f422b6657a0f7bf1300a5bbb56573d2a160001b62003d05565b6201055d7fafa703c3ee5471804248fab0669c4ae9e5817e95b9892e23a775fd3fb4905f7d60001b62003d05565b600062010574828b6200c0d290919063ffffffff16565b9050620105a47f8b5ee869c9b433f48b259c9108e2cc96ae1df7d2aeeef9a97e7b3266a3b4d81d60001b62003d05565b620105d27f854c9d05df376d1f1e67e8bd30653b12a9cabb752d45770428fe4230314b86f860001b62003d05565b600062010607620105e3836200bcf7565b8e8681518110620105f057fe5b60200260200101516200e3cb90919063ffffffff16565b9050620106377ff19ad277544d09affcde4fdcc367e2d987335125c258f5c9bf597a6bf3c0d5cc60001b62003d05565b620106657f48edb06d6a085bd243dbafd222e7e69d85f5c6dddfcdd93042f90b44a29fcc2960001b62003d05565b6201068e818f86815181106201067757fe5b60200260200101516200ae2d90919063ffffffff16565b8585815181106201069b57fe5b602002602001018181525050505050808060010191505062010293565b50620106e67e454e24695bbcbee607feaa8ec5a554eebd5851c3299a7bdaa03c8f1785093760001b62003d05565b620107147f12a6a9433feb8edb965b7fb8a35c5fd0c1b61594c0479887997993246806cb7f60001b62003d05565b6000620107228c8362006e83565b9050620107527f54fb62f9540fe78618d2f52d2524738c637eb2e2321ed4fb7776796ced16c0b460001b62003d05565b620107807ffe38df5ba74f3f30172597e57a78ab212791be348f972b30658b35afc341276260001b62003d05565b620107c5620107b5670de0b6b3a7640000620107a689856200794490919063ffffffff16565b6200a64e90919063ffffffff16565b8a6200e3cb90919063ffffffff16565b965050505050505095945050505050565b600080620108077ff6924e8a804994809510d0eeb8a81dabcc49f91ff7e6032259fce7078cd7b48560001b6200d8aa565b620108357f6ff9b2e205e23f2ad25fd13216367b8d0af1ed38d118ba77bc54af339b5c7f3960001b6200d8aa565b620108637f042fbac463836a61f9b580a29e0bb73524b341adfeeb3252bda1af6ae0ba3f3360001b6200d8aa565b8280602001905181019062010879919062011878565b9091508092508193505050915091565b6000620108b97f10717708b52890ce2cb369742fe574b9c62ee1aacdf6f8b12a4467286a1af8f860001b62003d05565b620108e77f415c2935d68790b04fa9592f2da7e6b798a2dc5df44d44cab75aaabc217b550f60001b62003d05565b620109157f81e22ec2ffe50c67ca77b622c988aee05bf30b3fe8d137a6c1b87dcaeeb9277d60001b62003d05565b600062010923888862006e83565b9050620109537fdd2e2a66fb6524d7b80d5bf3847246994b29f75be4697c188285663484cbb6a560001b62003d05565b620109817f1b6e50346f7b666dbd55f96604b19fd00b8af8e25b86a21327ac83206ad57ac560001b62003d05565b6000620109c082620109b187620109a28a8a6200ae2d90919063ffffffff16565b6200bdae90919063ffffffff16565b6200c0d290919063ffffffff16565b9050620109f07f49e2558483679625b87d6f2803cf4c3aada6d3370f0270f41186b2070063f91f60001b62003d05565b62010a1e7fc55f77559a4ab2358c97c72dcc2e71350c8bbda1f69a9788d3572d79ce914a6460001b62003d05565b600062010a4e7f6c0563e796e7bb38d53a8a6c5dff0d035dce4fe566841d8f366418f6e1c8970960001b62003d05565b62010a7c7f5f6c048f0cdd2f854e9f815812707cd2b0fd1fe1b0e773a870149be3b3c1612f60001b62003d05565b60005b895181101562010b1e5762010ab77f938ecc4c9b92c2650ef6f29b6114e546e9cfbb9b11a846be3efcce89dbf54f4e60001b62003d05565b62010ae57f8cbadcd72bdc880e883c07e60924594c6f79e9dd54b9ec280e67680a16220bac60001b62003d05565b62010b0e8a828151811062010af657fe5b6020026020010151836200ae2d90919063ffffffff16565b9150808060010191505062010a7f565b5062010b4d7f10164b1f20b5e236d469f4ea3bfd2460cea924fa6b9a36208b6579635db27ee060001b62003d05565b62010b7b7fc6325cd46451258540f9f842aa87ec06e4d1720c3c353ea5c7a9d8236f38109f60001b62003d05565b600062010b8b8b8b858c6200d8ad565b905062010bbb7ffc26e236a8df89a6101671d78c1ea82e5aad10f93ce7384b22b8410e26e1f75660001b62003d05565b62010be97fa41eb77f985eb45bfaceec26305517a88faa9399439e5c56610c891914fd5faa60001b62003d05565b600062010c148b8b8151811062010bfc57fe5b6020026020010151836200a64e90919063ffffffff16565b905062010c447f853d0058e2c08b4cf678b08c76744efb000f54e7ff92bfe72f6397d1ce5eb46960001b62003d05565b62010c727fecc6dc45093d690cf00e7c3b488f27d10bbcaae0d632808d33ac8aed2ba8410560001b62003d05565b600062010c9d848d8d8151811062010c8657fe5b60200260200101516200794490919063ffffffff16565b905062010ccd7fd4110f8cecd05eb7c47aaa6a22fd5202e7a1a739d9440c07340f09de953a647f60001b62003d05565b62010cfb7f91bee9057c852083d0554372f2f494946541a661dc18a16d838dc1f6c400a2a760001b62003d05565b600062010d08826200bcf7565b905062010d387f22671c47bd0028c1d1cc0ff4a79f902c6d139ae7683c1c43277a64dd6bfa79dc60001b62003d05565b62010d667f310d7cd51d9bf238865767a0b451dd0846f943cf52f4da882f1a51743625d82f60001b62003d05565b600062010d7d828b6200c0d290919063ffffffff16565b905062010dad7f2356fef582f30672dcbaf78359dd9249a30ff9ff27bf8ad3de84038697e7693160001b62003d05565b62010ddb7fd23b68db10babab9344517051bf6199e6ddd16001e8747ccfba7245d1d7d5d8f60001b62003d05565b62010dfa62010dea826200bcf7565b856200bdae90919063ffffffff16565b985050505050505050509695505050505050565b60008135905062010e1f8162012184565b92915050565b600082601f83011262010e3757600080fd5b815162010e4e62010e488262011f2b565b62011efd565b9150818183526020840193506020810190508385602084028201111562010e7457600080fd5b60005b8381101562010ea8578162010e8d8882620110b2565b84526020840193506020830192505060018101905062010e77565b5050505092915050565b600082601f83011262010ec457600080fd5b813562010edb62010ed58262011f54565b62011efd565b9150818183526020840193506020810190508385602084028201111562010f0157600080fd5b60005b8381101562010f35578162010f1a888262011218565b84526020840193506020830192505060018101905062010f04565b5050505092915050565b600082601f83011262010f5157600080fd5b815162010f6862010f628262011f54565b62011efd565b9150818183526020840193506020810190508385602084028201111562010f8e57600080fd5b60005b8381101562010fc2578162010fa788826201122f565b84526020840193506020830192505060018101905062010f91565b5050505092915050565b60008135905062010fdd816201219e565b92915050565b60008151905062010ff4816201219e565b92915050565b6000813590506201100b81620121b8565b92915050565b6000813590506201102281620121d2565b92915050565b600082601f8301126201103a57600080fd5b8135620110516201104b8262011f7d565b62011efd565b915080825260208301602083018583830111156201106e57600080fd5b6201107b8382846201211a565b50505092915050565b6000815190506201109581620121ec565b92915050565b600081359050620110ac8162012206565b92915050565b600081519050620110c38162012206565b92915050565b600081519050620110da8162012220565b92915050565b600081519050620110f18162012231565b92915050565b600081359050620111088162012242565b92915050565b600061012082840312156201112257600080fd5b6201112f61012062011efd565b905060006201114184828501620110f7565b600083015250602062011157848285016201109b565b60208301525060406201116d848285016201109b565b6040830152506060620111838482850162011218565b6060830152506080620111998482850162010ffa565b60808301525060a0620111af8482850162011218565b60a08301525060c0620111c58482850162010e0e565b60c08301525060e0620111db8482850162010e0e565b60e08301525061010082013567ffffffffffffffff811115620111fd57600080fd5b6201120b8482850162011028565b6101008301525092915050565b600081359050620112298162012253565b92915050565b600081519050620112408162012253565b92915050565b60008135905062011257816201226d565b92915050565b6000602082840312156201127057600080fd5b6000620112808482850162010e0e565b91505092915050565b600080604083850312156201129d57600080fd5b6000620112ad8582860162010e0e565b9250506020620112c08582860162010e0e565b9150509250929050565b600080600060608486031215620112e057600080fd5b6000620112f08682870162010e0e565b9350506020620113038682870162010e0e565b9250506040620113168682870162011218565b9150509250925092565b600080600080600080600060e0888a0312156201133c57600080fd5b60006201134c8a828b0162010e0e565b97505060206201135f8a828b0162010e0e565b9650506040620113728a828b0162011218565b9550506060620113858a828b0162011218565b9450506080620113988a828b0162011246565b93505060a0620113ab8a828b0162010ffa565b92505060c0620113be8a828b0162010ffa565b91505092959891949750929550565b60008060408385031215620113e157600080fd5b6000620113f18582860162010e0e565b9250506020620114048582860162011218565b9150509250929050565b6000806000606084860312156201142457600080fd5b600084015167ffffffffffffffff8111156201143f57600080fd5b6201144d8682870162010e25565b935050602084015167ffffffffffffffff8111156201146b57600080fd5b620114798682870162010f3f565b92505060406201148c868287016201122f565b9150509250925092565b600060208284031215620114a957600080fd5b6000620114b98482850162010fcc565b91505092915050565b600060208284031215620114d557600080fd5b6000620114e58482850162010fe3565b91505092915050565b6000602082840312156201150157600080fd5b6000620115118482850162010ffa565b91505092915050565b600080600080600080600060e0888a0312156201153657600080fd5b6000620115468a828b0162010ffa565b9750506020620115598a828b0162010e0e565b96505060406201156c8a828b0162010e0e565b955050606088013567ffffffffffffffff8111156201158a57600080fd5b620115988a828b0162010eb2565b9450506080620115ab8a828b0162011218565b93505060a0620115be8a828b0162011218565b92505060c088013567ffffffffffffffff811115620115dc57600080fd5b620115ea8a828b0162011028565b91505092959891949750929550565b6000602082840312156201160c57600080fd5b60006201161c8482850162011011565b91505092915050565b6000602082840312156201163857600080fd5b6000620116488482850162011084565b91505092915050565b6000602082840312156201166457600080fd5b60006201167484828501620110c9565b91505092915050565b6000806000606084860312156201169357600080fd5b6000620116a386828701620110c9565b935050602084015167ffffffffffffffff811115620116c157600080fd5b620116cf8682870162010f3f565b9250506040620116e2868287016201122f565b9150509250925092565b600080604083850312156201170057600080fd5b60006201171085828601620110c9565b925050602062011723858286016201122f565b9150509250929050565b6000806000606084860312156201174357600080fd5b60006201175386828701620110c9565b935050602062011766868287016201122f565b925050604062011779868287016201122f565b9150509250925092565b6000602082840312156201179657600080fd5b6000620117a684828501620110e0565b91505092915050565b60008060408385031215620117c357600080fd5b6000620117d385828601620110e0565b925050602083015167ffffffffffffffff811115620117f157600080fd5b620117ff8582860162010f3f565b9150509250929050565b6000806000606084860312156201181f57600080fd5b60006201182f86828701620110e0565b935050602084015167ffffffffffffffff8111156201184d57600080fd5b6201185b8682870162010f3f565b92505060406201186e868287016201122f565b9150509250925092565b6000806000606084860312156201188e57600080fd5b60006201189e86828701620110e0565b9350506020620118b1868287016201122f565b9250506040620118c4868287016201122f565b9150509250925092565b60008060008060808587031215620118e557600080fd5b600085013567ffffffffffffffff8111156201190057600080fd5b6201190e878288016201110e565b945050602085013567ffffffffffffffff8111156201192c57600080fd5b6201193a8782880162010eb2565b93505060406201194d8782880162011218565b9250506060620119608782880162011218565b91505092959194509250565b6000602082840312156201197f57600080fd5b60006201198f8482850162011218565b91505092915050565b6000620119a6838362011b53565b60208301905092915050565b620119bd8162012015565b82525050565b6000620119d08262011fba565b620119dc818562011fdd565b9350620119e98362011faa565b8060005b8381101562011a2057815162011a04888262011998565b975062011a118362011fd0565b925050600181019050620119ed565b5085935050505092915050565b62011a388162012029565b82525050565b62011a498162012035565b82525050565b62011a6462011a5e8262012035565b6201215f565b82525050565b62011a7f62011a79826201203f565b62012169565b82525050565b600062011a93838562011fee565b935062011aa28385846201211a565b82840190509392505050565b62011ab981620120ca565b82525050565b62011aca81620120f2565b82525050565b600062011add8262011fc5565b62011ae9818562011ff9565b935062011afb81856020860162012129565b62011b068162012173565b840191505092915050565b600062011b206002836201200a565b91507f19010000000000000000000000000000000000000000000000000000000000006000830152600282019050919050565b62011b5e81620120b3565b82525050565b62011b6f81620120b3565b82525050565b62011b8081620120bd565b82525050565b600062011b94828562011a4f565b60208201915062011ba6828462011a6a565b6004820191508190509392505050565b600062011bc582848662011a85565b91508190509392505050565b600062011bde8262011b11565b915062011bec828562011a4f565b60208201915062011bfe828462011a4f565b6020820191508190509392505050565b600060208201905062011c256000830184620119b2565b92915050565b6000604082019050818103600083015262011c478185620119c3565b9050818103602083015262011c5d8184620119c3565b90509392505050565b600060208201905062011c7d600083018462011a2d565b92915050565b600060608201905062011c9a600083018662011a2d565b62011ca9602083018562011b64565b62011cb8604083018462011b64565b949350505050565b600060208201905062011cd7600083018462011a3e565b92915050565b600060608201905062011cf4600083018662011a3e565b62011d036020830185620119b2565b62011d126040830184620119b2565b949350505050565b600060c08201905062011d31600083018962011a3e565b62011d406020830188620119b2565b62011d4f6040830187620119b2565b62011d5e606083018662011b64565b62011d6d608083018562011b64565b62011d7c60a083018462011b64565b979650505050505050565b600060a08201905062011d9e600083018862011a3e565b62011dad602083018762011a3e565b62011dbc604083018662011a3e565b62011dcb606083018562011b64565b62011dda6080830184620119b2565b9695505050505050565b600060808201905062011dfb600083018762011a3e565b62011e0a602083018662011b75565b62011e19604083018562011a3e565b62011e28606083018462011a3e565b95945050505050565b600060208201905062011e48600083018462011aae565b92915050565b600060208201905062011e65600083018462011abf565b92915050565b6000602082019050818103600083015262011e87818462011ad0565b905092915050565b600060208201905062011ea6600083018462011b64565b92915050565b600060408201905062011ec3600083018562011b64565b818103602083015262011ed78184620119c3565b90509392505050565b600060208201905062011ef7600083018462011b75565b92915050565b6000604051905081810181811067ffffffffffffffff8211171562011f2157600080fd5b8060405250919050565b600067ffffffffffffffff82111562011f4357600080fd5b602082029050602081019050919050565b600067ffffffffffffffff82111562011f6c57600080fd5b602082029050602081019050919050565b600067ffffffffffffffff82111562011f9557600080fd5b601f19601f8301169050602081019050919050565b6000819050602082019050919050565b600081519050919050565b600081519050919050565b6000602082019050919050565b600082825260208201905092915050565b600081905092915050565b600082825260208201905092915050565b600081905092915050565b6000620120228262012093565b9050919050565b60008115159050919050565b6000819050919050565b60007fffffffff0000000000000000000000000000000000000000000000000000000082169050919050565b6000620120788262012015565b9050919050565b60006201208c8262012015565b9050919050565b600073ffffffffffffffffffffffffffffffffffffffff82169050919050565b6000819050919050565b600060ff82169050919050565b6000620120d782620120de565b9050919050565b6000620120eb8262012093565b9050919050565b6000620120ff8262012106565b9050919050565b6000620121138262012093565b9050919050565b82818337600083830152505050565b60005b83811015620121495780820151818401526020810190506201212c565b8381111562012159576000848401525b50505050565b6000819050919050565b6000819050919050565b6000601f19601f8301169050919050565b6201218f8162012015565b81146201219b57600080fd5b50565b620121a98162012029565b8114620121b557600080fd5b50565b620121c38162012035565b8114620121cf57600080fd5b50565b620121dd816201203f565b8114620121e957600080fd5b50565b620121f7816201206b565b81146201220357600080fd5b50565b62012211816201207f565b81146201221d57600080fd5b50565b600381106201222e57600080fd5b50565b600381106201223f57600080fd5b50565b600281106201225057600080fd5b50565b6201225e81620120b3565b81146201226a57600080fd5b50565b6201227881620120bd565b81146201228457600080fd5b5056fea264697066735822122032644f6100d6e74925494810376b2ff6911b2fcdaaf15d2d098f9d3724ded69e64736f6c63430007010033a2646970667358221220676bf620afed59aacaba9b33a52f3aaa9242bdef14673dd618e15b9b6a207a6664736f6c63430007010033",
  "linkReferences": {},
  "deployedLinkReferences": {}
}