{
  "_format": "hh-sol-artifact-1",
  "contractName": "ReentrancyMock",
  "sourceName": "contracts/balancer-core-v2/test/lib/ReentrancyMock.sol",
  "abi": [
    {
      "inputs": [],
      "stateMutability": "nonpayable",
      "type": "constructor"
    },
    {
      "inputs": [
        {
          "internalType": "bytes32",
          "name": "c__0xcddb63f5",
          "type": "bytes32"
        }
      ],
      "name": "c_0xcddb63f5",
      "outputs": [],
      "stateMutability": "pure",
      "type": "function"
    },
    {
      "inputs": [
        {
          "internalType": "bytes32",
          "name": "c__0xf9597b47",
          "type": "bytes32"
        }
      ],
      "name": "c_0xf9597b47",
      "outputs": [],
      "stateMutability": "pure",
      "type": "function"
    },
    {
      "inputs": [],
      "name": "callback",
      "outputs": [],
      "stateMutability": "nonpayable",
      "type": "function"
    },
    {
      "inputs": [
        {
          "internalType": "contract ReentrancyAttack",
          "name": "attacker",
          "type": "address"
        }
      ],
      "name": "countAndCall",
      "outputs": [],
      "stateMutability": "nonpayable",
      "type": "function"
    },
    {
      "inputs": [
        {
          "internalType": "uint256",
          "name": "n",
          "type": "uint256"
        }
      ],
      "name": "countLocalRecursive",
      "outputs": [],
      "stateMutability": "nonpayable",
      "type": "function"
    },
    {
      "inputs": [
        {
          "internalType": "uint256",
          "name": "n",
          "type": "uint256"
        }
      ],
      "name": "countThisRecursive",
      "outputs": [],
      "stateMutability": "nonpayable",
      "type": "function"
    },
    {
      "inputs": [],
      "name": "counter",
      "outputs": [
        {
          "internalType": "uint256",
          "name": "",
          "type": "uint256"
        }
      ],
      "stateMutability": "view",
      "type": "function"
    }
  ],
  "bytecode": "0x608060405234801561001057600080fd5b506100437fff2843873958b0423c2870a5f7407d8838736c83a05df05ee75e9a90e1dd007160001b61015260201b60201c565b6100757fef80299e9103703b3e8d99a44ee6022077e3117593f4e26770fa503e5f64a07060001b61015260201b60201c565b6100a77fdb996e6b8d2c077dc5dfa6acab236f31d64ae8d37bcfc64e5e87915b7a6d603b60001b61015260201b60201c565b60016000819055506100e17fa332ff8b59ee861ba414c7069e3dd5ab6ccbb072df089fbb4888c50187c6818460001b61015560201b60201c565b6101137fee55a06f3d868fc64015cb0fc7311f5340bbba9e45421fc9ab374f40ea21186960001b61015560201b60201c565b6101457f571430df5c18e01a5481d5eb20c529c6493e37eafa5f0c3bcc1e705dd76e977a60001b61015560201b60201c565b6000600181905550610158565b50565b50565b61112880620001686000396000f3fe608060405234801561001057600080fd5b506004361061007d5760003560e01c806396ffa6901161005b57806396ffa690146100d8578063b672ad8b14610106578063ca9c28ca1461014a578063d00cd3ad146101785761007d565b8063083b27321461008257806361bc221a1461008c5780638c5344fa146100aa575b600080fd5b61008a6101a6565b005b61009461034c565b6040518082815260200191505060405180910390f35b6100d6600480360360208110156100c057600080fd5b8101908080359060200190929190505050610352565b005b610104600480360360208110156100ee57600080fd5b810190808035906020019092919050505061087c565b005b6101486004803603602081101561011c57600080fd5b81019080803573ffffffffffffffffffffffffffffffffffffffff169060200190929190505050610b46565b005b6101766004803603602081101561016057600080fd5b8101908080359060200190929190505050610e4d565b005b6101a46004803603602081101561018e57600080fd5b8101908080359060200190929190505050610e50565b005b6101d27f3b26cd2585fecfc21b1fe892f32e29375b0d7350ba966083e2f96f51ef43a92960001b610e50565b6101fe7f2197a5030ffc348553ffc47ccb57f9700b3053735d0a146d16497ad6fa509d5b60001b610e50565b61022a7f382505951e9c5561f3f4877cc9803e5c3a86e88e32b803bccc41c22f60b698b260001b610e50565b610232610e53565b61025e7ff8ce392461b76b298757224f3caaffb179af93c72c0dabff1d4ebf8cda37741260001b610e50565b61028a7fe61b76496d954bae21f5e1d7f5aa7f9c89db63ecacc9a25fea93b978e37230fd60001b610e4d565b6102b67f90fba3585878b7df6c9c46e939dfa37acd32dcf74866aa455a4d1edf8234cf2660001b610e4d565b6102e27f4a6c053b1c4e6a7db1da04f9c1ed443e58066b8a6f03ef8ff64d6c671eb85f7860001b610e4d565b6102ea610f4b565b6103167f0caf7107376224202848440e797a23bd53602dc240e67421095a2aa32637216160001b610e50565b6103427f034cb29cce6b6361d9c228c8807e63d7d7dd24beb68aaf203424cd5a698f286360001b610e50565b61034a610fe1565b565b60015481565b61037e7f3b26cd2585fecfc21b1fe892f32e29375b0d7350ba966083e2f96f51ef43a92960001b610e50565b6103aa7f2197a5030ffc348553ffc47ccb57f9700b3053735d0a146d16497ad6fa509d5b60001b610e50565b6103d67f382505951e9c5561f3f4877cc9803e5c3a86e88e32b803bccc41c22f60b698b260001b610e50565b6103de610e53565b61040a7ff8ce392461b76b298757224f3caaffb179af93c72c0dabff1d4ebf8cda37741260001b610e50565b6104367fa10b7ccdcea5dae650cfe90b9b29edb27ea324b94147b585f6ac6081f07392f360001b610e4d565b6104627f494e1b19f1291fd48a3cdd9d9744c926e117873921f3fe76426ae6a5ba3852b860001b610e4d565b61048e7f58747dad71c6a09049462f41b15902d86f032142eaad7ea687472466d5ba5bd360001b610e4d565b60008111156107ec576104c37f88c146822ee7ad2c81599b73f5512d937fb17aed019155722327c43b79b1acef60001b610e4d565b6104ef7f34e93eda2229402a31497972673436e279747f493507d5b25388591b0e42e86360001b610e4d565b61051b7faa95a69abcbec2e71945b77172305a31914b79b95c63dfa5e9b8bf5ed72e952d60001b610e4d565b610523610f4b565b61054f7f940bcb285c598d453d9339cb987c5eaa15e74d74d760740c42065c4e42c14ec660001b610e4d565b61057b7f191086de09e40740536cba94b1ee6a31f0d4ee0101840523e6ad0b2d8723d30960001b610e4d565b60003073ffffffffffffffffffffffffffffffffffffffff1660018303604051602401808281526020019150506040516020818303038152906040527f8c5344fa000000000000000000000000000000000000000000000000000000007bffffffffffffffffffffffffffffffffffffffffffffffffffffffff19166020820180517bffffffffffffffffffffffffffffffffffffffffffffffffffffffff83818316178352505050506040518082805190602001908083835b602083106106585780518252602082019150602081019050602083039250610635565b6001836020036101000a0380198251168184511680821785525050505050509050019150506000604051808303816000865af19150503d80600081146106ba576040519150601f19603f3d011682016040523d82523d6000602084013e6106bf565b606091505b505090506106ef7f3c2373450f6a0cb257aee8cfe90aa428d593de27e5561bcbd65be4ef710d830460001b610e4d565b61071b7fb1b4a8214a34fbc3290a20a796f7c112c9832f4cd6b30fc1c667e0fd8dd22fe360001b610e4d565b6107477fe131d0c8d0e47cb7cef8c9d7906113b1c51aa43c67bbd953894fd3cb4f3ccfdd60001b610e4d565b806107ba576040517f08c379a000000000000000000000000000000000000000000000000000000000815260040180806020018281038252600f8152602001807f5245454e5452414e43595f4d4f434b000000000000000000000000000000000081525060200191505060405180910390fd5b6107e67fb87cd9422cabb28d9152e76d71388c1a161c8b46b858bdb741a8d07b8518b67860001b610e4d565b50610819565b6108187f1fd63ae5c13961b88c8261a20e12af478eaf9d70722a359da7ca02be054c71c760001b610e4d565b5b6108457f0caf7107376224202848440e797a23bd53602dc240e67421095a2aa32637216160001b610e50565b6108717f034cb29cce6b6361d9c228c8807e63d7d7dd24beb68aaf203424cd5a698f286360001b610e50565b610879610fe1565b50565b6108a87f3b26cd2585fecfc21b1fe892f32e29375b0d7350ba966083e2f96f51ef43a92960001b610e50565b6108d47f2197a5030ffc348553ffc47ccb57f9700b3053735d0a146d16497ad6fa509d5b60001b610e50565b6109007f382505951e9c5561f3f4877cc9803e5c3a86e88e32b803bccc41c22f60b698b260001b610e50565b610908610e53565b6109347ff8ce392461b76b298757224f3caaffb179af93c72c0dabff1d4ebf8cda37741260001b610e50565b6109607f796b5e37161c653ad86d03d180d2b5abb58beb29d61cfab3e2a28398004439fe60001b610e4d565b61098c7ff1c6250472871d0324ee495ecc7e02b143f06242b50583bee9a7ea08f273a58260001b610e4d565b6109b87fe68a8b20a75b41375ab31cf24b69d83e8a5c8c428af758ab1f2313c8296c5f0260001b610e4d565b6000811115610ab6576109ed7f9bf891165b0de15cfd534acf90d3a41d358ae5ed26ce3e73136ae0a047d5cf1660001b610e4d565b610a197f33a875abe81ed9ce07877a34019176b97d2a9b153cb25010ecb4a3ac0cc0a06f60001b610e4d565b610a457f4d2e54e88d43ec71a836375e2189d06fc1088e3a6148a2abc5c2e45f1de778fe60001b610e4d565b610a4d610f4b565b610a797f4aff7cf5de22136e0063d24b0b2385e55d40452cfb25aa282a678fbfc5b0d7cb60001b610e4d565b610aa57f3be4fef3a3e61af97bb3a54b6648a2efea9bf4c4256dfe5c1fe05ca172a7ca9a60001b610e4d565b610ab16001820361087c565b610ae3565b610ae27fc3a7eaf1499db39ac48876878c47cb3fa0e33f6344f9fc54b5b9824356ed092360001b610e4d565b5b610b0f7f0caf7107376224202848440e797a23bd53602dc240e67421095a2aa32637216160001b610e50565b610b3b7f034cb29cce6b6361d9c228c8807e63d7d7dd24beb68aaf203424cd5a698f286360001b610e50565b610b43610fe1565b50565b610b727f3b26cd2585fecfc21b1fe892f32e29375b0d7350ba966083e2f96f51ef43a92960001b610e50565b610b9e7f2197a5030ffc348553ffc47ccb57f9700b3053735d0a146d16497ad6fa509d5b60001b610e50565b610bca7f382505951e9c5561f3f4877cc9803e5c3a86e88e32b803bccc41c22f60b698b260001b610e50565b610bd2610e53565b610bfe7ff8ce392461b76b298757224f3caaffb179af93c72c0dabff1d4ebf8cda37741260001b610e50565b610c2a7f071ba785c01deab62ff2364a0fa5549788319b3db3a87988367cf2f3f52eae8f60001b610e4d565b610c567fe74a956eff4e9e6acd4d94dc4026bb1d300d1030b8e30de294ad6982dc8d3be160001b610e4d565b610c827f7627cd770e58182e1c8ec8dbd5afe26b812d1457f5751d46c1eba0ef97d8427360001b610e4d565b610c8a610f4b565b610cb67fa407da36d5eceb79d2733bd381dfbd02943879800a20ba275c46c8d06c8dbbcc60001b610e4d565b610ce27fad176db13a9f868cdac03392717f31166dc4858a564a968ba9ba984adf8aa8e360001b610e4d565b60007f083b2732f78169bfaad6b407fa338cc97d697ed69d3915a18239cc111d51a4029050610d337f9ce02f4f868a03a97cb25d3d5024d5ebb52f288b120f5e0ad2f43ac3825aaf3360001b610e4d565b610d5f7faa8896d87324b9978e2977438c62ad2e7a5efdbcc6ad7fed33c0b332bb7b14ff60001b610e4d565b8173ffffffffffffffffffffffffffffffffffffffff16630a2df1ed826040518263ffffffff1660e01b815260040180827bffffffffffffffffffffffffffffffffffffffffffffffffffffffff19168152602001915050600060405180830381600087803b158015610dd157600080fd5b505af1158015610de5573d6000803e3d6000fd5b5050505050610e167f0caf7107376224202848440e797a23bd53602dc240e67421095a2aa32637216160001b610e50565b610e427f034cb29cce6b6361d9c228c8807e63d7d7dd24beb68aaf203424cd5a698f286360001b610e50565b610e4a610fe1565b50565b50565b50565b610e7f7f408dac390e4f0ae6d351596842e389faecd137e98747a21c9bd2535e34efe1ef60001b610e50565b610eab7f91fef535066a9a302b7aba661bbc08510efd3f86094d4d27eaab04e8c0ea329060001b610e50565b610ed77f7e4ef47161338c49f74fe8365727d3827a018aad2ffdc369234f459288d9b40560001b610e50565b610ee96002600054141561019061106f565b610f157fc485c3854a3735fd70dfbf21afb411b100bc7c079db4aa6fd8f540b8b25f934060001b610e50565b610f417fc1dcb2358e8d960fc7fb24122ff840705dbc6c335c720c4de509a43cd35abd2860001b610e50565b6002600081905550565b610f777f03863333b131280fafe65c0e9089356a0a5d2a03a64cd49eec2e1858732f14f360001b610e4d565b610fa37ff8cace011a84f700f0fa363f2b275e4b21b72ea01396e5dc6b3c8da9808a32a860001b610e4d565b610fcf7fbcb11c12b97757321f4edcbae49d896c9b3c00f7808e1b6f22b9b85e3a8a4c0e60001b610e4d565b60018060008282540192505081905550565b61100d7f149cabfe70db67f6ce2fd3e64b4b5babbd98815b7461b7e97cec9760ebcee15060001b610e50565b6110397f7ee27aa21eee45360a064722bb38337cef8cc040b9fbfae86c19b76a3f932b9560001b610e50565b6110657fed942fdc363d1e16eaef2a7bfff65e652a7e0146f3288c44d086aa97babad4e860001b610e50565b6001600081905550565b8161107e5761107d81611082565b5b5050565b6030600a820601600a820491506030600a830601600a830492506030600a8406018060101b8260081b8401016642414c230000000160c81b7f08c379a000000000000000000000000000000000000000000000000000000000600052602060045260076024528060445260646000fdfea26469706673582212203b441a7d53b513d0d38c9e0b6eaa2db00976b859885ee736989b490d849daae664736f6c63430007010033",
  "linkReferences": {},
  "deployedLinkReferences": {}
}