{
  "_format": "hh-sol-artifact-1",
  "contractName": "ReentrancyMock",
  "sourceName": "contracts/balancer-core-v2/test/lib/ReentrancyMock.sol",
  "abi": [
    {
      "inputs": [],
      "stateMutability": "nonpayable",
      "type": "constructor"
    },
    {
      "inputs": [
        {
          "internalType": "bytes32",
          "name": "c__0x3db02568",
          "type": "bytes32"
        }
      ],
      "name": "c_0x3db02568",
      "outputs": [],
      "stateMutability": "pure",
      "type": "function"
    },
    {
      "inputs": [
        {
          "internalType": "bytes32",
          "name": "c__0xeb4599f9",
          "type": "bytes32"
        }
      ],
      "name": "c_0xeb4599f9",
      "outputs": [],
      "stateMutability": "pure",
      "type": "function"
    },
    {
      "inputs": [],
      "name": "callback",
      "outputs": [],
      "stateMutability": "nonpayable",
      "type": "function"
    },
    {
      "inputs": [
        {
          "internalType": "contract ReentrancyAttack",
          "name": "attacker",
          "type": "address"
        }
      ],
      "name": "countAndCall",
      "outputs": [],
      "stateMutability": "nonpayable",
      "type": "function"
    },
    {
      "inputs": [
        {
          "internalType": "uint256",
          "name": "n",
          "type": "uint256"
        }
      ],
      "name": "countLocalRecursive",
      "outputs": [],
      "stateMutability": "nonpayable",
      "type": "function"
    },
    {
      "inputs": [
        {
          "internalType": "uint256",
          "name": "n",
          "type": "uint256"
        }
      ],
      "name": "countThisRecursive",
      "outputs": [],
      "stateMutability": "nonpayable",
      "type": "function"
    },
    {
      "inputs": [],
      "name": "counter",
      "outputs": [
        {
          "internalType": "uint256",
          "name": "",
          "type": "uint256"
        }
      ],
      "stateMutability": "view",
      "type": "function"
    }
  ],
  "bytecode": "0x608060405234801561001057600080fd5b506100437fe9ec9f3628aaa58309698b36d4920ca033915a6732961f4acdb4056f16a1205a60001b61015260201b60201c565b6100757fd3e66d41bd17558a0cea80cb6af72881d9a4f8b3d3fa92f57d1ef900a04e49cf60001b61015260201b60201c565b6100a77f4345feddde47777f0ddd4af1fab952dcb95ed9b159ce4dfcd15c18dc2984c4a660001b61015260201b60201c565b60016000819055506100e17f4c6d8a3be44ef0d1509ab156f5e959913b7872505590a4569a36f59a6fd47f8c60001b61015560201b60201c565b6101137ff3c80f97f3b09b1f1dce2907f454654f4be7aa46508d2f83b54c6826f56e107c60001b61015560201b60201c565b6101457fc3448a4a0e6526c16dc47fc94097946d17bbb85012a6943b45c331c384d84e0a60001b61015560201b60201c565b6000600181905550610158565b50565b50565b61112880620001686000396000f3fe608060405234801561001057600080fd5b506004361061007d5760003560e01c80638c5344fa1161005b5780638c5344fa146100d857806391f04a441461010657806396ffa69014610134578063b672ad8b146101625761007d565b8063083b27321461008257806317a4679a1461008c57806361bc221a146100ba575b600080fd5b61008a6101a6565b005b6100b8600480360360208110156100a257600080fd5b810190808035906020019092919050505061034c565b005b6100c261034f565b6040518082815260200191505060405180910390f35b610104600480360360208110156100ee57600080fd5b8101908080359060200190929190505050610355565b005b6101326004803603602081101561011c57600080fd5b810190808035906020019092919050505061087f565b005b6101606004803603602081101561014a57600080fd5b8101908080359060200190929190505050610882565b005b6101a46004803603602081101561017857600080fd5b81019080803573ffffffffffffffffffffffffffffffffffffffff169060200190929190505050610b4c565b005b6101d27f644bd4bced3b479c154eeca48d6f4671c259c7e141fb03b50119e2191bedd28160001b61087f565b6101fe7fb2e493fbea61a28dc3a0bcbde10aee52d356393a6fc964252f51485fbcec722260001b61087f565b61022a7f609c802ad669539b39339b179e46d5684b53e48970b12ea9058dcacd32d5f2dc60001b61087f565b610232610e53565b61025e7f2090c6457b1ee2a791b1d863dcf68daffba3ba180e7ef1f21e4e594e8515a6a760001b61087f565b61028a7f5a14c55627f7ad68fed7e9ac4ffaed8040aa4f7b62aab9c00f151ba6999cdb9e60001b61034c565b6102b67f995c2860469b764796d47d27af58876b6f47a2012aa72b08da7219ef1f47e24d60001b61034c565b6102e27f4469ca1cfb6ea696f3de8f5a8e95cfd3a9d033079523c288f755ba4f380cccc160001b61034c565b6102ea610f4b565b6103167fb60a234b3cb4b1e935875de56b9fece2cdc9d0c9359a56930a7fbbfb5337116f60001b61087f565b6103427f37a5344d8593cc0405c0415e4e47bc57677f78c6499e62b7b206fedb489e6b9260001b61087f565b61034a610fe1565b565b50565b60015481565b6103817f644bd4bced3b479c154eeca48d6f4671c259c7e141fb03b50119e2191bedd28160001b61087f565b6103ad7fb2e493fbea61a28dc3a0bcbde10aee52d356393a6fc964252f51485fbcec722260001b61087f565b6103d97f609c802ad669539b39339b179e46d5684b53e48970b12ea9058dcacd32d5f2dc60001b61087f565b6103e1610e53565b61040d7f2090c6457b1ee2a791b1d863dcf68daffba3ba180e7ef1f21e4e594e8515a6a760001b61087f565b6104397ffc942d654f12b04c37d8b355b49cc176119680e5375bfe8de494f7f2b99f926b60001b61034c565b6104657f170e1ee1ac5bdb3cb1da2de2ae92c17adf510c5354d1a6eaa1562f8d1ca93c5360001b61034c565b6104917fdbe0076f8cfc39aa642c45e74419244ab27e1043df61ec12126afd193047e9f260001b61034c565b60008111156107ef576104c67f249b490de955ddfe54d897d2db848b4e34bd4ddc44b3279a29af22b64501372b60001b61034c565b6104f27f4a06052c1672eaef60979834aaa3d5e56801004cc4cefa10c03b5799755584fc60001b61034c565b61051e7f2da42557b264deb5a27a2a7f40b4fedf5d49b0008e9be42a417faca9ce51228660001b61034c565b610526610f4b565b6105527f6dd4aa76703e89133a5732c07e5d8de52b7adcfbde4d16c3a56731c62e7b523860001b61034c565b61057e7f65c0ed7f4555332af7eb311f3ffa62c581824a40997525e979ee1e5312ede9bf60001b61034c565b60003073ffffffffffffffffffffffffffffffffffffffff1660018303604051602401808281526020019150506040516020818303038152906040527f8c5344fa000000000000000000000000000000000000000000000000000000007bffffffffffffffffffffffffffffffffffffffffffffffffffffffff19166020820180517bffffffffffffffffffffffffffffffffffffffffffffffffffffffff83818316178352505050506040518082805190602001908083835b6020831061065b5780518252602082019150602081019050602083039250610638565b6001836020036101000a0380198251168184511680821785525050505050509050019150506000604051808303816000865af19150503d80600081146106bd576040519150601f19603f3d011682016040523d82523d6000602084013e6106c2565b606091505b505090506106f27f93148ea0b989752f3f70e8c649cc88d47d685f3a1ee57d69323a6a5e8b88bd6260001b61034c565b61071e7fb744da255bca8bae8b345e92a320da4bd4d1e4ae55dc6a22e33239d2146b3ee560001b61034c565b61074a7f64061afe98b99d749e95ffec14642f59b65273725ec17c9449b82cfc4829374a60001b61034c565b806107bd576040517f08c379a000000000000000000000000000000000000000000000000000000000815260040180806020018281038252600f8152602001807f5245454e5452414e43595f4d4f434b000000000000000000000000000000000081525060200191505060405180910390fd5b6107e97f221754c898dc6206e8218cfcf6c69e28ae1dbb869fcf46e610c719c42a65958560001b61034c565b5061081c565b61081b7fd187a8a7826648f73866351996c0cb520eaeefbe9ecddafe894c8b5bca5a3d1f60001b61034c565b5b6108487fb60a234b3cb4b1e935875de56b9fece2cdc9d0c9359a56930a7fbbfb5337116f60001b61087f565b6108747f37a5344d8593cc0405c0415e4e47bc57677f78c6499e62b7b206fedb489e6b9260001b61087f565b61087c610fe1565b50565b50565b6108ae7f644bd4bced3b479c154eeca48d6f4671c259c7e141fb03b50119e2191bedd28160001b61087f565b6108da7fb2e493fbea61a28dc3a0bcbde10aee52d356393a6fc964252f51485fbcec722260001b61087f565b6109067f609c802ad669539b39339b179e46d5684b53e48970b12ea9058dcacd32d5f2dc60001b61087f565b61090e610e53565b61093a7f2090c6457b1ee2a791b1d863dcf68daffba3ba180e7ef1f21e4e594e8515a6a760001b61087f565b6109667f251e3c4c2fbc50cca6c09854f18881708d8455b9870bfa5fddf576776ac4640660001b61034c565b6109927fc8bf0ca2e76c5d69d15680c7b9ca194db7c930ac95cd003cfa95c09cb3719cb060001b61034c565b6109be7f2a79cf516ead1850c34e969bff84ea125ac4d19af3d75cf9b09c65249063ff0a60001b61034c565b6000811115610abc576109f37f144a452aaae3a12227743f4a0268072971a3782aa7926ed4d80592bc31eae15160001b61034c565b610a1f7f944d1b41fd8bb9e3b4449554fb415430cc44d3afe496b6eb2a8c571fa15054df60001b61034c565b610a4b7f1e13e678a64a5575e1827f62cc944ebe01b196fdd0f51afc596d36ee260d40c560001b61034c565b610a53610f4b565b610a7f7f6a8bf4d8d8f90ee7a60dba674698bbe2e574bf7167570039373e85b283230b5760001b61034c565b610aab7fe82d5e18cc6d13b281423d609202ebe223e62bd3d30384cd264b7ee544d02ff660001b61034c565b610ab760018203610882565b610ae9565b610ae87f9e3433600cf74786a8eda9917f405284102f7e7f02df339661dc1e238edb101760001b61034c565b5b610b157fb60a234b3cb4b1e935875de56b9fece2cdc9d0c9359a56930a7fbbfb5337116f60001b61087f565b610b417f37a5344d8593cc0405c0415e4e47bc57677f78c6499e62b7b206fedb489e6b9260001b61087f565b610b49610fe1565b50565b610b787f644bd4bced3b479c154eeca48d6f4671c259c7e141fb03b50119e2191bedd28160001b61087f565b610ba47fb2e493fbea61a28dc3a0bcbde10aee52d356393a6fc964252f51485fbcec722260001b61087f565b610bd07f609c802ad669539b39339b179e46d5684b53e48970b12ea9058dcacd32d5f2dc60001b61087f565b610bd8610e53565b610c047f2090c6457b1ee2a791b1d863dcf68daffba3ba180e7ef1f21e4e594e8515a6a760001b61087f565b610c307fd164a81dbcaf2c33a93d28c1a922063355f29df5c95390e2d6d1bd3a761250f560001b61034c565b610c5c7f4990dcf550bfca34ec5374e9af11b4e205617be1a94cce798ce1a505d393673160001b61034c565b610c887f5099177470d53c922d714bbd9a014998188fcde720633d00521c338b17db348c60001b61034c565b610c90610f4b565b610cbc7fa8bcd76480803675935ee978a0f0d44737a3215248d985f3b5814ec114a3ec1760001b61034c565b610ce87fbce2d9afac1e4e47f00b1a811b7d0a976e87a4ed37d3ff2a24f9f1de4e4cf59760001b61034c565b60007f083b2732f78169bfaad6b407fa338cc97d697ed69d3915a18239cc111d51a4029050610d397f972ba3998e08410c83f1cafc8664b573ea2deb845787e255ceee5986c886a04e60001b61034c565b610d657fe2da92f51c73e821ce15ce7520e711ad505ff4f9c6184be0153a7b0b74f40b7860001b61034c565b8173ffffffffffffffffffffffffffffffffffffffff16630a2df1ed826040518263ffffffff1660e01b815260040180827bffffffffffffffffffffffffffffffffffffffffffffffffffffffff19168152602001915050600060405180830381600087803b158015610dd757600080fd5b505af1158015610deb573d6000803e3d6000fd5b5050505050610e1c7fb60a234b3cb4b1e935875de56b9fece2cdc9d0c9359a56930a7fbbfb5337116f60001b61087f565b610e487f37a5344d8593cc0405c0415e4e47bc57677f78c6499e62b7b206fedb489e6b9260001b61087f565b610e50610fe1565b50565b610e7f7f9c87dc88b81e7686642aedd70d20b133dbc176c445084af25bea31a27461dd1060001b61087f565b610eab7f3f4b678c74fa9090d36668f40ba3dabb270c17224b669744008302951069813060001b61087f565b610ed77f2c14ea0fe249be4247a994e6a1b5d0cb1474f09e41d3cba4d0ccce1d4fdf822060001b61087f565b610ee96002600054141561019061106f565b610f157fe0ee19ca399d3acda78bf6c90366d674c7f2b95a9d4f96582447df63b512ef3260001b61087f565b610f417f977cd7bf9c3a4e751ab85a761fa5ff058fb580adbabfa64efb14616fd13d315960001b61087f565b6002600081905550565b610f777fce724e6f28689160bcf8d76dd6c64f1279d3c523092462d1c824c14680cf695660001b61034c565b610fa37f85d6724d096e6c5bdcfd9c73c329d5dee0e6afd2a499f9ca97cf86a92278ab8860001b61034c565b610fcf7f112f32f2dc55e4448e409bcacbd16550373c3ac8bb9c51e4d455a399eed64f7060001b61034c565b60018060008282540192505081905550565b61100d7f32952cee8e7fcc2065f616ca5c8f65b8e5fa48efb4dbe47cf2c31c3387f29a7860001b61087f565b6110397f4808d1069bf8a25610b5c3ca97ee8811ae850b9e4134a3ff1869c2a89edec52760001b61087f565b6110657fbbc531cbafb07ffd26bcf8510c8bf4233dc2b30d7c364f7c165cb4673d352af860001b61087f565b6001600081905550565b8161107e5761107d81611082565b5b5050565b6030600a820601600a820491506030600a830601600a830492506030600a8406018060101b8260081b8401016642414c230000000160c81b7f08c379a000000000000000000000000000000000000000000000000000000000600052602060045260076024528060445260646000fdfea2646970667358221220fa1b197c15976ad523b2f4ecbdc5c029875dde57a913f6422931cb4e96d012a864736f6c63430007010033",
  "linkReferences": {},
  "deployedLinkReferences": {}
}