{
  "_format": "hh-sol-artifact-1",
  "contractName": "WeightedPool",
  "sourceName": "contracts/balancer-core-v2/pools/weighted/WeightedPool.sol",
  "abi": [
    {
      "inputs": [
        {
          "internalType": "contract IVault",
          "name": "vault",
          "type": "address"
        },
        {
          "internalType": "string",
          "name": "name",
          "type": "string"
        },
        {
          "internalType": "string",
          "name": "symbol",
          "type": "string"
        },
        {
          "internalType": "contract IERC20[]",
          "name": "tokens",
          "type": "address[]"
        },
        {
          "internalType": "uint256[]",
          "name": "normalizedWeights",
          "type": "uint256[]"
        },
        {
          "internalType": "uint256",
          "name": "swapFeePercentage",
          "type": "uint256"
        },
        {
          "internalType": "uint256",
          "name": "pauseWindowDuration",
          "type": "uint256"
        },
        {
          "internalType": "uint256",
          "name": "bufferPeriodDuration",
          "type": "uint256"
        },
        {
          "internalType": "address",
          "name": "owner",
          "type": "address"
        }
      ],
      "stateMutability": "nonpayable",
      "type": "constructor"
    },
    {
      "anonymous": false,
      "inputs": [
        {
          "indexed": true,
          "internalType": "address",
          "name": "owner",
          "type": "address"
        },
        {
          "indexed": true,
          "internalType": "address",
          "name": "spender",
          "type": "address"
        },
        {
          "indexed": false,
          "internalType": "uint256",
          "name": "value",
          "type": "uint256"
        }
      ],
      "name": "Approval",
      "type": "event"
    },
    {
      "anonymous": false,
      "inputs": [
        {
          "indexed": false,
          "internalType": "bool",
          "name": "paused",
          "type": "bool"
        }
      ],
      "name": "PausedStateChanged",
      "type": "event"
    },
    {
      "anonymous": false,
      "inputs": [
        {
          "indexed": false,
          "internalType": "uint256",
          "name": "swapFeePercentage",
          "type": "uint256"
        }
      ],
      "name": "SwapFeePercentageChanged",
      "type": "event"
    },
    {
      "anonymous": false,
      "inputs": [
        {
          "indexed": true,
          "internalType": "address",
          "name": "from",
          "type": "address"
        },
        {
          "indexed": true,
          "internalType": "address",
          "name": "to",
          "type": "address"
        },
        {
          "indexed": false,
          "internalType": "uint256",
          "name": "value",
          "type": "uint256"
        }
      ],
      "name": "Transfer",
      "type": "event"
    },
    {
      "inputs": [],
      "name": "DOMAIN_SEPARATOR",
      "outputs": [
        {
          "internalType": "bytes32",
          "name": "",
          "type": "bytes32"
        }
      ],
      "stateMutability": "view",
      "type": "function"
    },
    {
      "inputs": [
        {
          "internalType": "address",
          "name": "owner",
          "type": "address"
        },
        {
          "internalType": "address",
          "name": "spender",
          "type": "address"
        }
      ],
      "name": "allowance",
      "outputs": [
        {
          "internalType": "uint256",
          "name": "",
          "type": "uint256"
        }
      ],
      "stateMutability": "view",
      "type": "function"
    },
    {
      "inputs": [
        {
          "internalType": "address",
          "name": "spender",
          "type": "address"
        },
        {
          "internalType": "uint256",
          "name": "amount",
          "type": "uint256"
        }
      ],
      "name": "approve",
      "outputs": [
        {
          "internalType": "bool",
          "name": "",
          "type": "bool"
        }
      ],
      "stateMutability": "nonpayable",
      "type": "function"
    },
    {
      "inputs": [
        {
          "internalType": "address",
          "name": "account",
          "type": "address"
        }
      ],
      "name": "balanceOf",
      "outputs": [
        {
          "internalType": "uint256",
          "name": "",
          "type": "uint256"
        }
      ],
      "stateMutability": "view",
      "type": "function"
    },
    {
      "inputs": [
        {
          "internalType": "bytes32",
          "name": "c__0x0481a016",
          "type": "bytes32"
        }
      ],
      "name": "c_0x0481a016",
      "outputs": [],
      "stateMutability": "pure",
      "type": "function"
    },
    {
      "inputs": [
        {
          "internalType": "bytes32",
          "name": "c__0x28684d28",
          "type": "bytes32"
        }
      ],
      "name": "c_0x28684d28",
      "outputs": [],
      "stateMutability": "pure",
      "type": "function"
    },
    {
      "inputs": [
        {
          "internalType": "bytes32",
          "name": "c__0x4963a790",
          "type": "bytes32"
        }
      ],
      "name": "c_0x4963a790",
      "outputs": [],
      "stateMutability": "pure",
      "type": "function"
    },
    {
      "inputs": [
        {
          "internalType": "bytes32",
          "name": "c__0x4c26eefc",
          "type": "bytes32"
        }
      ],
      "name": "c_0x4c26eefc",
      "outputs": [],
      "stateMutability": "pure",
      "type": "function"
    },
    {
      "inputs": [
        {
          "internalType": "bytes32",
          "name": "c__0x6b25a81c",
          "type": "bytes32"
        }
      ],
      "name": "c_0x6b25a81c",
      "outputs": [],
      "stateMutability": "pure",
      "type": "function"
    },
    {
      "inputs": [
        {
          "internalType": "bytes32",
          "name": "c__0x6ba1b38b",
          "type": "bytes32"
        }
      ],
      "name": "c_0x6ba1b38b",
      "outputs": [],
      "stateMutability": "pure",
      "type": "function"
    },
    {
      "inputs": [
        {
          "internalType": "bytes32",
          "name": "c__0xbf0cfa36",
          "type": "bytes32"
        }
      ],
      "name": "c_0xbf0cfa36",
      "outputs": [],
      "stateMutability": "pure",
      "type": "function"
    },
    {
      "inputs": [
        {
          "internalType": "bytes32",
          "name": "c__0xc3d2df53",
          "type": "bytes32"
        }
      ],
      "name": "c_0xc3d2df53",
      "outputs": [],
      "stateMutability": "pure",
      "type": "function"
    },
    {
      "inputs": [
        {
          "internalType": "bytes32",
          "name": "c__0xd1eb1fca",
          "type": "bytes32"
        }
      ],
      "name": "c_0xd1eb1fca",
      "outputs": [],
      "stateMutability": "pure",
      "type": "function"
    },
    {
      "inputs": [],
      "name": "decimals",
      "outputs": [
        {
          "internalType": "uint8",
          "name": "",
          "type": "uint8"
        }
      ],
      "stateMutability": "pure",
      "type": "function"
    },
    {
      "inputs": [
        {
          "internalType": "address",
          "name": "spender",
          "type": "address"
        },
        {
          "internalType": "uint256",
          "name": "amount",
          "type": "uint256"
        }
      ],
      "name": "decreaseApproval",
      "outputs": [
        {
          "internalType": "bool",
          "name": "",
          "type": "bool"
        }
      ],
      "stateMutability": "nonpayable",
      "type": "function"
    },
    {
      "inputs": [
        {
          "internalType": "bytes4",
          "name": "selector",
          "type": "bytes4"
        }
      ],
      "name": "getActionId",
      "outputs": [
        {
          "internalType": "bytes32",
          "name": "",
          "type": "bytes32"
        }
      ],
      "stateMutability": "view",
      "type": "function"
    },
    {
      "inputs": [],
      "name": "getAuthorizer",
      "outputs": [
        {
          "internalType": "contract IAuthorizer",
          "name": "",
          "type": "address"
        }
      ],
      "stateMutability": "view",
      "type": "function"
    },
    {
      "inputs": [],
      "name": "getInvariant",
      "outputs": [
        {
          "internalType": "uint256",
          "name": "",
          "type": "uint256"
        }
      ],
      "stateMutability": "view",
      "type": "function"
    },
    {
      "inputs": [],
      "name": "getLastInvariant",
      "outputs": [
        {
          "internalType": "uint256",
          "name": "",
          "type": "uint256"
        }
      ],
      "stateMutability": "view",
      "type": "function"
    },
    {
      "inputs": [],
      "name": "getNormalizedWeights",
      "outputs": [
        {
          "internalType": "uint256[]",
          "name": "",
          "type": "uint256[]"
        }
      ],
      "stateMutability": "view",
      "type": "function"
    },
    {
      "inputs": [],
      "name": "getOwner",
      "outputs": [
        {
          "internalType": "address",
          "name": "",
          "type": "address"
        }
      ],
      "stateMutability": "view",
      "type": "function"
    },
    {
      "inputs": [],
      "name": "getPausedState",
      "outputs": [
        {
          "internalType": "bool",
          "name": "paused",
          "type": "bool"
        },
        {
          "internalType": "uint256",
          "name": "pauseWindowEndTime",
          "type": "uint256"
        },
        {
          "internalType": "uint256",
          "name": "bufferPeriodEndTime",
          "type": "uint256"
        }
      ],
      "stateMutability": "view",
      "type": "function"
    },
    {
      "inputs": [],
      "name": "getPoolId",
      "outputs": [
        {
          "internalType": "bytes32",
          "name": "",
          "type": "bytes32"
        }
      ],
      "stateMutability": "view",
      "type": "function"
    },
    {
      "inputs": [],
      "name": "getRate",
      "outputs": [
        {
          "internalType": "uint256",
          "name": "",
          "type": "uint256"
        }
      ],
      "stateMutability": "view",
      "type": "function"
    },
    {
      "inputs": [],
      "name": "getSwapFeePercentage",
      "outputs": [
        {
          "internalType": "uint256",
          "name": "",
          "type": "uint256"
        }
      ],
      "stateMutability": "view",
      "type": "function"
    },
    {
      "inputs": [],
      "name": "getVault",
      "outputs": [
        {
          "internalType": "contract IVault",
          "name": "",
          "type": "address"
        }
      ],
      "stateMutability": "view",
      "type": "function"
    },
    {
      "inputs": [
        {
          "internalType": "address",
          "name": "spender",
          "type": "address"
        },
        {
          "internalType": "uint256",
          "name": "amount",
          "type": "uint256"
        }
      ],
      "name": "increaseApproval",
      "outputs": [
        {
          "internalType": "bool",
          "name": "",
          "type": "bool"
        }
      ],
      "stateMutability": "nonpayable",
      "type": "function"
    },
    {
      "inputs": [],
      "name": "name",
      "outputs": [
        {
          "internalType": "string",
          "name": "",
          "type": "string"
        }
      ],
      "stateMutability": "view",
      "type": "function"
    },
    {
      "inputs": [
        {
          "internalType": "address",
          "name": "owner",
          "type": "address"
        }
      ],
      "name": "nonces",
      "outputs": [
        {
          "internalType": "uint256",
          "name": "",
          "type": "uint256"
        }
      ],
      "stateMutability": "view",
      "type": "function"
    },
    {
      "inputs": [
        {
          "internalType": "bytes32",
          "name": "poolId",
          "type": "bytes32"
        },
        {
          "internalType": "address",
          "name": "sender",
          "type": "address"
        },
        {
          "internalType": "address",
          "name": "recipient",
          "type": "address"
        },
        {
          "internalType": "uint256[]",
          "name": "balances",
          "type": "uint256[]"
        },
        {
          "internalType": "uint256",
          "name": "lastChangeBlock",
          "type": "uint256"
        },
        {
          "internalType": "uint256",
          "name": "protocolSwapFeePercentage",
          "type": "uint256"
        },
        {
          "internalType": "bytes",
          "name": "userData",
          "type": "bytes"
        }
      ],
      "name": "onExitPool",
      "outputs": [
        {
          "internalType": "uint256[]",
          "name": "",
          "type": "uint256[]"
        },
        {
          "internalType": "uint256[]",
          "name": "",
          "type": "uint256[]"
        }
      ],
      "stateMutability": "nonpayable",
      "type": "function"
    },
    {
      "inputs": [
        {
          "internalType": "bytes32",
          "name": "poolId",
          "type": "bytes32"
        },
        {
          "internalType": "address",
          "name": "sender",
          "type": "address"
        },
        {
          "internalType": "address",
          "name": "recipient",
          "type": "address"
        },
        {
          "internalType": "uint256[]",
          "name": "balances",
          "type": "uint256[]"
        },
        {
          "internalType": "uint256",
          "name": "lastChangeBlock",
          "type": "uint256"
        },
        {
          "internalType": "uint256",
          "name": "protocolSwapFeePercentage",
          "type": "uint256"
        },
        {
          "internalType": "bytes",
          "name": "userData",
          "type": "bytes"
        }
      ],
      "name": "onJoinPool",
      "outputs": [
        {
          "internalType": "uint256[]",
          "name": "",
          "type": "uint256[]"
        },
        {
          "internalType": "uint256[]",
          "name": "",
          "type": "uint256[]"
        }
      ],
      "stateMutability": "nonpayable",
      "type": "function"
    },
    {
      "inputs": [
        {
          "components": [
            {
              "internalType": "enum IVault.SwapKind",
              "name": "kind",
              "type": "uint8"
            },
            {
              "internalType": "contract IERC20",
              "name": "tokenIn",
              "type": "address"
            },
            {
              "internalType": "contract IERC20",
              "name": "tokenOut",
              "type": "address"
            },
            {
              "internalType": "uint256",
              "name": "amount",
              "type": "uint256"
            },
            {
              "internalType": "bytes32",
              "name": "poolId",
              "type": "bytes32"
            },
            {
              "internalType": "uint256",
              "name": "lastChangeBlock",
              "type": "uint256"
            },
            {
              "internalType": "address",
              "name": "from",
              "type": "address"
            },
            {
              "internalType": "address",
              "name": "to",
              "type": "address"
            },
            {
              "internalType": "bytes",
              "name": "userData",
              "type": "bytes"
            }
          ],
          "internalType": "struct IPoolSwapStructs.SwapRequest",
          "name": "request",
          "type": "tuple"
        },
        {
          "internalType": "uint256",
          "name": "balanceTokenIn",
          "type": "uint256"
        },
        {
          "internalType": "uint256",
          "name": "balanceTokenOut",
          "type": "uint256"
        }
      ],
      "name": "onSwap",
      "outputs": [
        {
          "internalType": "uint256",
          "name": "",
          "type": "uint256"
        }
      ],
      "stateMutability": "view",
      "type": "function"
    },
    {
      "inputs": [
        {
          "internalType": "address",
          "name": "owner",
          "type": "address"
        },
        {
          "internalType": "address",
          "name": "spender",
          "type": "address"
        },
        {
          "internalType": "uint256",
          "name": "value",
          "type": "uint256"
        },
        {
          "internalType": "uint256",
          "name": "deadline",
          "type": "uint256"
        },
        {
          "internalType": "uint8",
          "name": "v",
          "type": "uint8"
        },
        {
          "internalType": "bytes32",
          "name": "r",
          "type": "bytes32"
        },
        {
          "internalType": "bytes32",
          "name": "s",
          "type": "bytes32"
        }
      ],
      "name": "permit",
      "outputs": [],
      "stateMutability": "nonpayable",
      "type": "function"
    },
    {
      "inputs": [
        {
          "internalType": "bytes32",
          "name": "poolId",
          "type": "bytes32"
        },
        {
          "internalType": "address",
          "name": "sender",
          "type": "address"
        },
        {
          "internalType": "address",
          "name": "recipient",
          "type": "address"
        },
        {
          "internalType": "uint256[]",
          "name": "balances",
          "type": "uint256[]"
        },
        {
          "internalType": "uint256",
          "name": "lastChangeBlock",
          "type": "uint256"
        },
        {
          "internalType": "uint256",
          "name": "protocolSwapFeePercentage",
          "type": "uint256"
        },
        {
          "internalType": "bytes",
          "name": "userData",
          "type": "bytes"
        }
      ],
      "name": "queryExit",
      "outputs": [
        {
          "internalType": "uint256",
          "name": "bptIn",
          "type": "uint256"
        },
        {
          "internalType": "uint256[]",
          "name": "amountsOut",
          "type": "uint256[]"
        }
      ],
      "stateMutability": "nonpayable",
      "type": "function"
    },
    {
      "inputs": [
        {
          "internalType": "bytes32",
          "name": "poolId",
          "type": "bytes32"
        },
        {
          "internalType": "address",
          "name": "sender",
          "type": "address"
        },
        {
          "internalType": "address",
          "name": "recipient",
          "type": "address"
        },
        {
          "internalType": "uint256[]",
          "name": "balances",
          "type": "uint256[]"
        },
        {
          "internalType": "uint256",
          "name": "lastChangeBlock",
          "type": "uint256"
        },
        {
          "internalType": "uint256",
          "name": "protocolSwapFeePercentage",
          "type": "uint256"
        },
        {
          "internalType": "bytes",
          "name": "userData",
          "type": "bytes"
        }
      ],
      "name": "queryJoin",
      "outputs": [
        {
          "internalType": "uint256",
          "name": "bptOut",
          "type": "uint256"
        },
        {
          "internalType": "uint256[]",
          "name": "amountsIn",
          "type": "uint256[]"
        }
      ],
      "stateMutability": "nonpayable",
      "type": "function"
    },
    {
      "inputs": [
        {
          "internalType": "bool",
          "name": "paused",
          "type": "bool"
        }
      ],
      "name": "setPaused",
      "outputs": [],
      "stateMutability": "nonpayable",
      "type": "function"
    },
    {
      "inputs": [
        {
          "internalType": "uint256",
          "name": "swapFeePercentage",
          "type": "uint256"
        }
      ],
      "name": "setSwapFeePercentage",
      "outputs": [],
      "stateMutability": "nonpayable",
      "type": "function"
    },
    {
      "inputs": [],
      "name": "symbol",
      "outputs": [
        {
          "internalType": "string",
          "name": "",
          "type": "string"
        }
      ],
      "stateMutability": "view",
      "type": "function"
    },
    {
      "inputs": [],
      "name": "totalSupply",
      "outputs": [
        {
          "internalType": "uint256",
          "name": "",
          "type": "uint256"
        }
      ],
      "stateMutability": "view",
      "type": "function"
    },
    {
      "inputs": [
        {
          "internalType": "address",
          "name": "recipient",
          "type": "address"
        },
        {
          "internalType": "uint256",
          "name": "amount",
          "type": "uint256"
        }
      ],
      "name": "transfer",
      "outputs": [
        {
          "internalType": "bool",
          "name": "",
          "type": "bool"
        }
      ],
      "stateMutability": "nonpayable",
      "type": "function"
    },
    {
      "inputs": [
        {
          "internalType": "address",
          "name": "sender",
          "type": "address"
        },
        {
          "internalType": "address",
          "name": "recipient",
          "type": "address"
        },
        {
          "internalType": "uint256",
          "name": "amount",
          "type": "uint256"
        }
      ],
      "name": "transferFrom",
      "outputs": [
        {
          "internalType": "bool",
          "name": "",
          "type": "bool"
        }
      ],
      "stateMutability": "nonpayable",
      "type": "function"
    }
  ],
  "bytecode": "0x6105006040527f6e71edae12b1b97f4d1f60370fef10105fa2faae0126114a169c64845d6126c961012090815250348015630000003b57600080fd5b50604051630001c2c9380380630001c2c983398181016040528101906300000065919063000038fc565b888888888787878787600286511463000000825760016300000085565b60025b8888888888888882828888816040518060400160405280600181526020017f3100000000000000000000000000000000000000000000000000000000000000815250863373ffffffffffffffffffffffffffffffffffffffff1660001b63000001187f8ec5ed39e0277cf6b5ac7bfbea69561e0ab13d0f90291fda9f21b6ff5febaf0960001b63000026f860201b60201c565b630000014e7fb3047d90d74037e2adb2df89b6f86a7b7c8bf74ab7f36f7e5570b17d25c7743060001b63000026f860201b60201c565b63000001847fcde082662b671d959326c5490179744ff7f489da54d7e3b0e588ca9e6054959260001b63000026f860201b60201c565b80608081815250505063000001c37f845048985995b7f1411d18d7948c02ec2bf5eca6401ba638adb4051af4c2191d60001b63000026fb60201b60201c565b63000001f97fc3c8f60fc83d7d9090fdd911351f9190ebe429d000b024e9396070d2d78f428560001b63000026fb60201b60201c565b630000022f7f1d167de1a75b4a1dca8359b7f4c17b1705cc862ce4d137f144168ec6e6a47fe560001b63000026fb60201b60201c565b8073ffffffffffffffffffffffffffffffffffffffff1660a08173ffffffffffffffffffffffffffffffffffffffff1660601b8152505050630000029d7fee98174f2fec6f5039773d74e605ef9eca5c1cd66e97227a4db2801fa44649d460001b63000026fe60201b60201c565b63000002d37f4259111439657f52cad82bf951b84cb17ad89c9a75c0a453b11471980df5b70460001b63000026fe60201b60201c565b63000003097f694727719f1c716e137bf99300414ab3971da34628c5fdb5e3aefb346ab250cd60001b63000026fe60201b60201c565b818051906020012060c08181525050630000034e7fc80ca99f8a52e2364dede2f196e5eea0d3e5cbb3d39b3c583eabdce5b2eba33860001b63000026fe60201b60201c565b63000003847fd79623f57f644f5deaf66895ac05cf4d0efe2db6dc309aa7731ca0cce6c6c42060001b63000026fe60201b60201c565b808051906020012060e0818152505063000003c97f3595ce0dcb0082ced7c03525364c4e77b55c5765b539ff680b322eb52d68007860001b63000026fe60201b60201c565b63000003ff7fce462f00afa59e5231a71f65b788fd6e74c839c46485038b23c5240219a6728160001b63000026fe60201b60201c565b7f8b73c3c69bb8fe3d512ecc4cf759cc79239f7b179b0ffacaa9a75d522b39400f6101008181525050505063000004607f81b292b7c2f738fe1ef398ecf484c30fdcca7a1fa0fdcec6133e69f7d952feb760001b630000270160201b60201c565b63000004967f0e8922ff6774c4bdde3a74a12158ca1888e60f5a3c45555ddd81e8785d5ee3f260001b630000270160201b60201c565b63000004cc7f59e4bf632185b91833f20a14a0ad444be3eecf2ae84a218ca7bc6928a7ff258560001b630000270160201b60201c565b816003908051906020019063000004e692919063000035f6565b50630000051d7f28e246c5f6155f806e0edae691917dbdb6f861567b1c6bf6fd24b0d5c4ca1b7d60001b630000270160201b60201c565b63000005537f6f23c232081ae254a1779744f064adfc759d8456694b907fe454eb09fecd7c3c60001b630000270160201b60201c565b8060049080519060200190630000056d92919063000035f6565b50505063000005a67fe087a381d2efdf77b4bb9deb1d9c49dd7a7b8850352e08f2237b146ed960df0060001b630000270460201b60201c565b63000005dc7fd5bd2a2b38b208dfe30c35c9f2d296d8724d15c14b57d076eb3ed9864adf5cf260001b630000270460201b60201c565b63000006127f440b23f6eae421802afd826f944e150ff37cf67006559664d92ff81aac1bb4f260001b630000270460201b60201c565b630000062e6276a700831115610194630000270760201b60201c565b63000006647fa61c306c7b6e0fe7490bf46f0ac35a3616024e80a4df7a4bc45e6de19ba12b2760001b630000270460201b60201c565b630000069a7fcc5d9c2ea50b53fbc5bd55dd83fc9eabd468cdc54db709760ba22684ff909cf660001b630000270460201b60201c565b63000006b662278d00821115610195630000270760201b60201c565b63000006ec7f40a9c3d0b92872242e7f21fd6cf84e9cfff37a117dcf54fc2e2669e09e526ae160001b630000270460201b60201c565b63000007227f91f1dda37d727c42e393bf864dac6469eabb7aea93126d07fec6d3a883e966f160001b630000270460201b60201c565b60008242019050630000075f7fd10e525ab2b61302f916eb6f9b5bff8779466f7205e9f26f93dd222e4ff33cf960001b630000270460201b60201c565b63000007957f95e023026f40f7e8c70f2daf4b9c6a714fc77d1ca2c06f447b10468970058a8d60001b630000270460201b60201c565b80610140818152505063000007d47f7519a6a09b3a1dbb48879a23106bafbe17739672feffe0947a75620fdd70024660001b630000270460201b60201c565b630000080a7f34afba99b9c10b73ccc93d9397070ac2cd56223e20282eba2d1237004c15be7260001b630000270460201b60201c565b8181016101608181525050505050630000084e7f5e8cc5e9f41bb87e25341ee9e6ef7cde0a930907966e5fa61b379d77028e9a6c60001b630000272660201b60201c565b63000008847f894011d70322766fd679e27053c55f29447fe1a1b76557c569bde83e193a76ab60001b630000272660201b60201c565b63000008ba7f1f0d6d2ac81ed1499e24e864276fe5d2f28dbef283b5de4845fcbb578f6ec24360001b630000272660201b60201c565b63000008d460028651101560c8630000270760201b60201c565b630000090a7f47bdb80cad4a70c5f8a74f5ce29244c86a1139744e3b3776397d0b61cc3ed86960001b630000272660201b60201c565b63000009407f43d6cddc28d5c55fde0a78c9d5a29a56dc12942a6cd37bba77cd8dc1e759e1e160001b630000272660201b60201c565b630000095a60088651111560c9630000270760201b60201c565b63000009907f5afb7674b8a9c9020890c007dca0ca4f3c68e46849c035f3f915833bfe7ca85e60001b630000272660201b60201c565b63000009c67f90bf0f3fa3990f04acf97b7b6d28c99ee046a1211b12996b2ee995a68ecccba860001b630000272660201b60201c565b63000009df85630000272960201b63000044bf1760201c565b6300000a157f91e9815a574648a0a269dffb4fc4c15afb3c3e69b0b6aa9def9ea9c10e9930ca60001b630000272660201b60201c565b6300000a4b7f4c86656a23bb680fba20c725f0bcbc41afd4f9ea8995cad0f11d0b1baf10bf5960001b630000272660201b60201c565b6300000a5e84630000288960201b60201c565b6300000a947f7b0e65ab2ed272faa99d3a8c3716e4217bf3a1d2ff6a251a88a1c16b2c014e7960001b630000272660201b60201c565b6300000aca7f4b1f0d647881b7cb7b2a1597f1b072c6469e46e42db938117dc06bb062c6f7b960001b630000272660201b60201c565b60008973ffffffffffffffffffffffffffffffffffffffff166309b2760f8a6040518263ffffffff1660e01b81526004016300000b0991906300003c53565b602060405180830381600087803b1580156300000b2557600080fd5b505af11580156300000b3b573d6000803e3d6000fd5b505050506040513d601f19601f820116820180604052508101906300000b63919063000038cd565b90506300000b9b7fa03df5a14a577ad184f5b96681a945a7643317bdb33d76854f5ba0f7186c18ef60001b630000272660201b60201c565b6300000bd17f3c2658d1907fb6d6ac3f386b79214f31f5c4be8cd26f2a0425f546f47e92030660001b630000272660201b60201c565b8973ffffffffffffffffffffffffffffffffffffffff166366a9c7d28288895167ffffffffffffffff811180156300000c0957600080fd5b506040519080825280602002602001820160405280156300000c3a5781602001602082028036833780820191505090505b506040518463ffffffff1660e01b81526004016300000c5d939291906300003c02565b600060405180830381600087803b1580156300000c7957600080fd5b505af11580156300000c8f573d6000803e3d6000fd5b505050506300000cc97f0fb0f686c6ec259d79e70c628ffc081805845a4cb46a40cb1582a7ea288f7b9460001b630000272660201b60201c565b6300000cff7f6574b428938da3b3f9be9a76e55b4490597aa1303db0b71f4b4b243d06e29ae460001b630000272660201b60201c565b8973ffffffffffffffffffffffffffffffffffffffff166101808173ffffffffffffffffffffffffffffffffffffffff1660601b815250506300000d6d7ffd01f3ab91a9950951b62bc9c8b62f6df8a031b1deb7e97234c946586ca84c1760001b630000272660201b60201c565b6300000da37f97f5fa25afe2fb8ce8a850f3c5681674da737105fe38e321d137b7e36c092b1360001b630000272660201b60201c565b806101a081815250506300000de27f406b2d86b30e116c40d5ad7283865330fad99ac3db19b9f3d7ce2f503dc5a6d660001b630000272660201b60201c565b6300000e187fcb085595ad6ce93dbfefd28da8d590f103e269a6107fa7a7ed673b4dc0597fb160001b630000272660201b60201c565b85516101c081815250506300000e587f18806cf846ba9444fb6971e90026cdcb83aa23de7971d02d0aaa2c265ea099e360001b630000272660201b60201c565b6300000e8e7f49eb61e5e9a0b583c216cacd2e5310910100702e276aebae49c564c8f55a39e260001b630000272660201b60201c565b60008651116300000ea25760006300000eba565b856000815181106300000eb157fe5b60200260200101515b73ffffffffffffffffffffffffffffffffffffffff166101e08173ffffffffffffffffffffffffffffffffffffffff1660601b815250506300000f277f18c4e61960ca0b0d5d45c6258a67fcb4274f5665ec3e4e55e76ee944c0c4b36a60001b630000272660201b60201c565b6300000f5d7f5caa07eefb89f1cea98ca3cbdbec501b17db7412f37fc90009c9f9bf050aad3560001b630000272660201b60201c565b60018651116300000f715760006300000f89565b856001815181106300000f8057fe5b60200260200101515b73ffffffffffffffffffffffffffffffffffffffff166102008173ffffffffffffffffffffffffffffffffffffffff1660601b815250506300000ff67f4a2f5b6dc779481c04cf6961d7eb2241f537349b4018341b7dff8929942a9bcf60001b630000272660201b60201c565b630000102c7f4c8bdb4f771e62b6911ac1e0e57818ab40d2a8507e42a10302f28baa4d38b25a60001b630000272660201b60201c565b600286511163000010405760006300001058565b85600281518110630000104f57fe5b60200260200101515b73ffffffffffffffffffffffffffffffffffffffff166102208173ffffffffffffffffffffffffffffffffffffffff1660601b8152505063000010c57f3da0ea8ad092121c163da32882693e0e2db4acf48e40bd2f8ca602a1bc56bda260001b630000272660201b60201c565b63000010fb7f290f23b90944da1233b1ed277b37eaa76c3ce4626c0d325a24a628c948f97a9d60001b630000272660201b60201c565b6003865111630000110f5760006300001127565b85600381518110630000111e57fe5b60200260200101515b73ffffffffffffffffffffffffffffffffffffffff166102408173ffffffffffffffffffffffffffffffffffffffff1660601b8152505063000011947fae8428c3d2519230b8f4a0ee6a6155a67f401de00967a22b914f8b7f2c7ccda360001b630000272660201b60201c565b63000011ca7f22f7ad46f6f540a0212251864658f488cc618a9e3e7ed67a0115edc3e418104b60001b630000272660201b60201c565b600486511163000011de57600063000011f6565b8560048151811063000011ed57fe5b60200260200101515b73ffffffffffffffffffffffffffffffffffffffff166102608173ffffffffffffffffffffffffffffffffffffffff1660601b8152505063000012637f293611b89b3f06e8c85f41787f25d2b3bcf7539349541c29a31aae7c485e0f7560001b630000272660201b60201c565b63000012997f4ca74c96570f55d18097fbf818b814420098e92f67d86f8eab22d5f591efe62760001b630000272660201b60201c565b600586511163000012ad57600063000012c5565b8560058151811063000012bc57fe5b60200260200101515b73ffffffffffffffffffffffffffffffffffffffff166102808173ffffffffffffffffffffffffffffffffffffffff1660601b8152505063000013327fe866b20c0b8ae786b95d369e68fde4f9a342cb3406120bdd9559512fb231045c60001b630000272660201b60201c565b63000013687f6c0f26a3e25ba08bee596d1ba4224097bba829c66c0e804cde29e1426f40418060001b630000272660201b60201c565b6006865111630000137c5760006300001394565b85600681518110630000138b57fe5b60200260200101515b73ffffffffffffffffffffffffffffffffffffffff166102a08173ffffffffffffffffffffffffffffffffffffffff1660601b8152505063000014017fed5b49753ce39a96f2e179af728ecaf5e088e39eddb6b82eddeb211c0faba14460001b630000272660201b60201c565b63000014377fa901663d3adc02bebaa784d7d8e13bbc95612852d11c33d1f04457bebbe7850660001b630000272660201b60201c565b6007865111630000144b5760006300001463565b85600781518110630000145a57fe5b60200260200101515b73ffffffffffffffffffffffffffffffffffffffff166102c08173ffffffffffffffffffffffffffffffffffffffff1660601b8152505063000014d07f8baf3abfad7c4a898372e09615b8b32052d339d2fd10fadcf7fac62ab980083460001b630000272660201b60201c565b63000015067fdbb37eb9b68af138a6a1707507f2c3a0b31d25d9552d02d66d032df534c6236760001b630000272660201b60201c565b6000865111630000151a5760006300001544565b630000154386600081518110630000152e57fe5b60200260200101516300002af160201b60201c565b5b6102e0818152505063000015827f449cb9f56fe8bf63374f7da2d45b57aa2099a93f288eb61bd68dce166ab3bc8360001b630000272660201b60201c565b63000015b87f070afe3d034047013e8613f3d939f622000e1974e25a815e55d2b7e888d2d56a60001b630000272660201b60201c565b600186511163000015cc57600063000015f6565b63000015f58660018151811063000015e057fe5b60200260200101516300002af160201b60201c565b5b610300818152505063000016347f0daafb9ebf166f5955514f416beea84f6ad716c7e7a991d38fbcb52d4671462260001b630000272660201b60201c565b630000166a7f2a965be88de027925b277f209159b565a60ec5652ffafafe26c0d87867fbf72b60001b630000272660201b60201c565b6002865111630000167e57600063000016a8565b63000016a786600281518110630000169257fe5b60200260200101516300002af160201b60201c565b5b610320818152505063000016e67f52c574f52b71b5ff2a5fc32eb44b57cbc080d978aaa58ac56dd2e5dda623a8f960001b630000272660201b60201c565b630000171c7fdab643a7f315a0dff5855cb8feffa977748b87c9e9e46747634a0c3c1f9279f560001b630000272660201b60201c565b60038651116300001730576000630000175a565b630000175986600381518110630000174457fe5b60200260200101516300002af160201b60201c565b5b610340818152505063000017987fd497257ae604bc80c9a8ed6bdcaccb81b32c61b78f90a1ce44306958b660c6b660001b630000272660201b60201c565b63000017ce7f1a25bc5cd199c4f85979069ad1237632ea417906257867250db5cb1c8bd86c0b60001b630000272660201b60201c565b600486511163000017e2576000630000180c565b630000180b8660048151811063000017f657fe5b60200260200101516300002af160201b60201c565b5b6103608181525050630000184a7f5964469a0eb9d73f3fcc6444301bd146aa2fbe4ea93b91878f7f419d758a3f6460001b630000272660201b60201c565b63000018807fd1337e523a93b18f3babd1dd913d2c7ee2fdd3cd35f003ac4e2ab053bd7f268160001b630000272660201b60201c565b6005865111630000189457600063000018be565b63000018bd8660058151811063000018a857fe5b60200260200101516300002af160201b60201c565b5b610380818152505063000018fc7f690ac2daabc3b7bedaba78d9a96fc15e9fef495c6a475e3bba8ecfe3a68baae160001b630000272660201b60201c565b63000019327f9333c2d383d424acf681ada8549ec3d213adeeface50f8768ab1f44e01bb10f060001b630000272660201b60201c565b600686511163000019465760006300001970565b630000196f86600681518110630000195a57fe5b60200260200101516300002af160201b60201c565b5b6103a0818152505063000019ae7fe4195cc9495520f9d89c90e33594b664b719b03f181c02e25fd52c07f5bdc10f60001b630000272660201b60201c565b63000019e47fe8fb6018e8706660672af7348b134bc8baf8de1485d3cc320dece2cbabde5a3760001b630000272660201b60201c565b600786511163000019f85760006300001a22565b6300001a21866007815181106300001a0c57fe5b60200260200101516300002af160201b60201c565b5b6103c08181525050505050505050505050506300001a6a7fe45d03accdca3b4c6dc06500fdcb908dc5ce0b7335fcb32a40c0176f27a3910460001b6300002d2660201b60201c565b50505050505050506300001aa87f1e605b15a21e5123caf08385625a9413fe56cb3110f3226a359a4b0fa6f8f8c560001b6300002d2960201b60201c565b6300001ade7f33e78f6dead692045ca270912f98f308037d2a328ae4915c4039b1a6f697d7a060001b6300002d2960201b60201c565b6300001b147f4c28acb946953f67a7e8ae83bd77b1bb5eb2b456d6bbcf6959bb15fff52766ed60001b6300002d2960201b60201c565b6000865190506300001b507f4cbcc3dc593847fe0b4561fc8ba1e33bb71476739464b979d02234d8f254f16160001b6300002d2960201b60201c565b6300001b867fb52c3ba0551a2bd4668a70eb839062c495fe37a3827ebd49a390a16e7c5dc17c60001b6300002d2960201b60201c565b6300001ba18187516300002d2c60201b63000045e71760201c565b6300001bd77f5e39ad00c02c5fbfc35ef90cac9efac672ca670e980911200a0b887bbf100d3d60001b6300002d2960201b60201c565b6300001c0d7fde6d0f82c3275e148a71e166e169529eb6caba19abe6012cb90b8e448cb6922460001b6300002d2960201b60201c565b60006300001c457f1e0d6a97ab81af33f97f549baa0a34ee7af5802d20a713ed35949cb546800c3b60001b6300002d2960201b60201c565b6300001c7b7f8f6317867fafaa243958bc1996c5747fdef65c955c847466691a77e445432ce260001b6300002d2960201b60201c565b60006300001cb37fc1c60c416351975332c2e7726b2574e2f350be8af7172a5431da961ee810500f60001b6300002d2960201b60201c565b6300001ce97f168beaf319596e488357c65beb4a6ff22ce140ccfd21c7b4208c341d720c143d60001b6300002d2960201b60201c565b60006300001d217f1b64ca48ce9301fd0ab0a03b1597d4453e16964f085e007f909b405af6e42b1460001b6300002d2960201b60201c565b6300001d577f9d7dd075f6bada2ceac339208981d193904310d3291cae5aa64e12f5046b4fc660001b6300002d2960201b60201c565b60005b848160ff16101563000020e2576300001d9d7f0410643bf1dee774cd01ef5fbb360848aeca8a0dc904b7a9d1b1b86b4c7f395d60001b6300002d2960201b60201c565b6300001dd37fd9a1de6fc302e36383f1846ef132da2f45118867f41a67073420795e11372f7c60001b6300002d2960201b60201c565b60008a8260ff16815181106300001de657fe5b602002602001015190506300001e267fbd494d24e349247c5905ab03e08a336cfa46aaf5a7a8720761fd4933f161da1d60001b6300002d2960201b60201c565b6300001e5c7f1241b60ba522b21f876a821b6df2601201919582dd5e5093dc583d4abfd8c39a60001b6300002d2960201b60201c565b6300001e7c662386f26fc1000082101561012e630000270760201b60201c565b6300001eb27f51eec32648738740d9ea07425014cc59cf82bc90140f4d92e4e9506643a74a9560001b6300002d2960201b60201c565b6300001ee87f7b2c12c835c0e143844776891b888b1707e0bc5ddbd21a34e98912a4beb375e060001b6300002d2960201b60201c565b6300001f0581866300002de960201b63000046841790919060201c565b94506300001f3d7fae1cffb252b86e9c1ccf54214cadf96dab559434b7a93c7800cf5cc5a9596fee60001b6300002d2960201b60201c565b6300001f737fdf0d2632269dfa4752f18c94486f837e788e45b8b6aecc95553220de500e121060001b6300002d2960201b60201c565b82811115630000209b576300001fb37fe4eb949472d39dd4dd40fe094edb86a17b74669d5210bcd16337f8d126ba145460001b6300002d2960201b60201c565b6300001fe97f3dc6f0e1041d873844380ad729252e20b1803e94f155c432fd55a5b31e49ca7c60001b6300002d2960201b60201c565b630000201f7fd9b3c682d07a39f26e7ad8400d95e925bfbbc818004aa7ed9360b4651437038c60001b6300002d2960201b60201c565b8160ff169350630000205b7f446836c3763d8111bccd874a0f80bc5b1dbab8e44d514d4c01f1541ee2836ad560001b6300002d2960201b60201c565b63000020917f4ac127871ec1c959f3717880728aec3406f92bffcfe84a27f4e50c1c08e797da60001b6300002d2960201b60201c565b80925063000020d2565b63000020d17f3b064124ae47de65c98eec026c21455f30b39e12b37836b92634712c7d73bfb260001b6300002d2960201b60201c565b5b5080806001019150506300001d5a565b5063000021197f53dae3edfaecc94fb0e0194fe4b95bcfce720b9a482984285616dfca7d0a383560001b6300002d2960201b60201c565b630000214f7f9bb310817317fe50432bdda4e81caa82e1e04f9e84cee05970848b3d77dc454560001b6300002d2960201b60201c565b630000216f670de0b6b3a76400008414610134630000270760201b60201c565b63000021a57f38d5df51438f50eb40ba3411d8241c85250cac4ec72f58dd4007e2f9c1f2dd8460001b6300002d2960201b60201c565b63000021db7f6fc88c4cf19a65c68ea6ceb58d225bad4a0bce0ef06cd40ef62228183b39ecf360001b6300002d2960201b60201c565b816103e08181525050630000221a7fae6ae4cdc53511fa63a966077de5750ff30fd4771a30579987400af8928ca34c60001b6300002d2960201b60201c565b63000022507fe41210b6f0a8437d53b1b54b7cd32e4376c7447d0aa8d31bbbdc2524b7be9e0860001b6300002d2960201b60201c565b60008951116300002264576000630000227c565b88600081518110630000227357fe5b60200260200101515b610400818152505063000022ba7f99c993071b5ae250cc7b5b2cf964a2fdddbbcc72284018ef8d7594d2b5e7bfa960001b6300002d2960201b60201c565b63000022f07f2df4e2de02e4912bd2f01ef36f3fe448d4dc5d5f3f4306ba718d4cc87f2b191c60001b6300002d2960201b60201c565b60018951116300002304576000630000231c565b88600181518110630000231357fe5b60200260200101515b6104208181525050630000235a7f57f2f4fdfb29ca561545d6325f5b42b0c22a0eb4216badc05d281a411edf480a60001b6300002d2960201b60201c565b63000023907fc1ebe6f98bd606429af327edeaf42aa2d089aa381c1027e464d8ff7414a6e93060001b6300002d2960201b60201c565b600289511163000023a457600063000023bc565b8860028151811063000023b357fe5b60200260200101515b610440818152505063000023fa7fb28e5a7821ff92f44cb5f2c78618c532b0e27f3887b411f875f7b9ed9545dec860001b6300002d2960201b60201c565b63000024307f96e69b4c919fc563a5fe10cb190322b5b4798268242a5eaacab7a8f5724f6cd960001b6300002d2960201b60201c565b60038951116300002444576000630000245c565b88600381518110630000245357fe5b60200260200101515b6104608181525050630000249a7fca99ea840e1ebf927b621ad104e62d48870a6e80c703451d9517e9826e21819960001b6300002d2960201b60201c565b63000024d07fe1cefb3aaf4a7df81906cdd2c58bde7af4901050f1c49da465a56d678c76eebf60001b6300002d2960201b60201c565b600489511163000024e457600063000024fc565b8860048151811063000024f357fe5b60200260200101515b6104808181525050630000253a7faa663b5a5d2d9a3129ade98b4e022bc5bbb947990c09fbe5148d63e928bd2c3d60001b6300002d2960201b60201c565b63000025707f6e6ea22f07f483c4186b4875cfb4ad113734d98bb291c0e25df248532663702960001b6300002d2960201b60201c565b60058951116300002584576000630000259c565b88600581518110630000259357fe5b60200260200101515b6104a0818152505063000025da7fa26c17d9322afcd8eb79d07aec529807eaaab5b92c5bba5e1984e9951a74a28c60001b6300002d2960201b60201c565b63000026107f3952aa26822b269bb2d1e53bb6252e6ad2ba285cf80dd6f81c894efdb1fb230c60001b6300002d2960201b60201c565b60068951116300002624576000630000263c565b88600681518110630000263357fe5b60200260200101515b6104c08181525050630000267a7f7342d90aaca643665eefc6c2eddf8da1240daa61cb1e01fa50482e3bd27f957b60001b6300002d2960201b60201c565b63000026b07fd4d5aeee35cd32c0f6abdae6249fe9a1a29429aebc75bd0f4b69f1f3228869ab60001b6300002d2960201b60201c565b600789511163000026c457600063000026dc565b8860078151811063000026d357fe5b60200260200101515b6104e08181525050505050505050505050505050506300003f75565b50565b50565b50565b50565b50565b816300002722576300002721816300002f8e60201b60201c565b5b5050565b50565b630000275f7ff99bacf880df8e7b17f821546b3dc04e138a0067b4cf375acb955b5fde24a4b560001b6300002ffe60201b60201c565b63000027957fa2b92ae643152f689b17e4838c1f77b9a07dc6cab922d4ed3413a34be499020260001b6300002ffe60201b60201c565b63000027cb7fdd971bdee478c838f4a32666e873637247e6e0748ab1a3f811ff2b948d8aee0960001b6300002ffe60201b60201c565b606063000028037ff234278b1ba05c670bfa3a036e75cfef1535aa24f41a09fb219b9427ab82e17760001b6300002ffe60201b60201c565b819050630000283c7f8c1e498e11453d5c0e5f454f19962598d679c2cc20826cc568f1c3d970636e8b60001b6300002ffe60201b60201c565b63000028727fa1e979627b6f19eed3dc9648ba642491f4e036411d0eb3ebd82f4eb2cb163e3f60001b6300002ffe60201b60201c565b630000288581630000300160201b60201c565b5050565b63000028bf7f15d95f31e3d8f03151acd877860824e2519b31cd2266b6fba4edb44cbdb6c22260001b630000272660201b60201c565b63000028f57f38ad2a21f4d1c04e6cb0f080d5cdd6d3022ddf45c9f377671946cd117d822bd160001b630000272660201b60201c565b630000292b7f3e36b14fce78b6bf0464904742fa4c0a6613e679a9a28ebe53dca71fe4e60bf660001b630000272660201b60201c565b630000294864e8d4a5100082101560cb630000270760201b60201c565b630000297e7fd60a4f70eb6053527b4b053cd5a77b5bace58afa8e8e75dfd50ef74e4af1c1e160001b630000272660201b60201c565b63000029b47f78b15eda81ed3b086390139801e79321ec47ce9dd0ddddadda5f61ad8f0ee6dc60001b630000272660201b60201c565b63000029d467016345785d8a000082111560ca630000270760201b60201c565b6300002a0a7fe790af49b7039ad5804739366b3f4b00b66d6125a6a7b5dc6e60fb67c69dcf3860001b630000272660201b60201c565b6300002a407fc3448cf910456c71319f93b4eed444d0b4b3beb4f18162d29fb0650e19dcb70360001b630000272660201b60201c565b806007819055506300002a7d7f5569b07c075afff8b8336bd4457561ad9d7ac55a0a2be9314e7a0a03656a72a260001b630000272660201b60201c565b6300002ab37fd02170ba3f9e153c416243c66b46d40d5b3d10b1565f5c695620da523ade58c460001b630000272660201b60201c565b7fa9ba3ffe0b6c366b81232caab38605a0699ad5398d6cce76f91ee809e322dafc816040516300002ae691906300003c72565b60405180910390a150565b60006300002b297f63095e8e4e0ff28e3a3e1af8fb1b53b06158a4deee5b3580ce5c9db83a88d30e60001b630000272660201b60201c565b6300002b5f7fc6bb2c3eaf31621465752079291576a393b261eed25ce7c189c07d7424799f1560001b630000272660201b60201c565b6300002b957f0f73645344898290a6869b8eb4767f57b06666967fa834adace171dd61b00f0e60001b630000272660201b60201c565b60008273ffffffffffffffffffffffffffffffffffffffff1663313ce5676040518163ffffffff1660e01b815260040160206040518083038186803b1580156300002bdf57600080fd5b505afa1580156300002bf5573d6000803e3d6000fd5b505050506040513d601f19601f820116820180604052508101906300002c1d91906300003a50565b60ff1690506300002c587fdb94b807acc16dc0351509466ed7f18a5b86990e0d4dece01bb05bc45b8692a160001b630000272660201b60201c565b6300002c8e7f7687ba6dbc683ff450abc962e2a5fa82bf326854709a3080aec185049111072e60001b630000272660201b60201c565b60006300002cab601283630000344b60201b63000047e91760201c565b90506300002ce37f10e4789b0dedd47f79e57e4dfdfd866f20898d2c3e96c4e2ddb79a4eb144934960001b630000272660201b60201c565b6300002d197f20935259226d30e245587eac8616ad6080969b2e239252804975c5c00fab7b2760001b630000272660201b60201c565b80600a0a92505050919050565b50565b50565b6300002d627fb3c3ab71be1e60ccf374cd9c337f5c94a091891a248ffd88815355718b38f5cf60001b6300002ffe60201b60201c565b6300002d987f23a34501b370f017ac0b72a81570395801e215d15ea760153f3abbf09eb0167360001b6300002ffe60201b60201c565b6300002dce7ff006c498284d347b1bc1a6a27ae455ca2c77693be39b0bf5701f8175df7eb3a460001b6300002ffe60201b60201c565b6300002de58183146067630000270760201b60201c565b5050565b60006300002e217f5f36fb0c028103edf307467f63f0332f966da8f673e1c7ec6aced59d823aae6260001b63000035f060201b60201c565b6300002e577f44b88f08c3beb7c1738a70418178f0bd070b94ca34f2d76f0ecc9e722ebab05b60001b63000035f060201b60201c565b6300002e8d7f089af7c7f34c896b1969367a1c50582a2d2ac2cc2c5e04246250cb0ba151867260001b63000035f060201b60201c565b600082840190506300002eca7f258ce8748ca545d5cfac415b21ac328631ad1fd9f61842fc89135db464f24ed760001b63000035f060201b60201c565b6300002f007f1cc115f28de7ca40c964e4298498543601b967d758e03fb745dda2e2ef4966c660001b63000035f060201b60201c565b6300002f18848210156000630000270760201b60201c565b6300002f4e7f3fad55df3aa1830266f7765bc1f949767a1cbfd6d2697a8d021c032e32a426bb60001b63000035f060201b60201c565b6300002f847f1237371198ec3b9801ff55f45911f80dd6332e4e689796642e2b2e8c75af767160001b63000035f060201b60201c565b8091505092915050565b6030600a820601600a820491506030600a830601600a830492506030600a8406018060101b8260081b8401016642414c230000000160c81b7f08c379a000000000000000000000000000000000000000000000000000000000600052602060045260076024528060445260646000fd5b50565b63000030377ff81347eb68f16450d5e669cebec6ee7a1fa5ac5ea54cd0cdcca39116f645fa5160001b6300002ffe60201b60201c565b630000306d7fe2a1376ebe4e4cec489f9744b050322118d55b97aa16438a57ddde1335a14c8f60001b6300002ffe60201b60201c565b63000030a37f527bb7a14e0d56ef6331f8d18810dc69d55965123a043ae607b318951a18a68160001b6300002ffe60201b60201c565b60028151101563000031585763000030e57f9afca44e5a82aedd5e366b527c36bdc4739ee9ac3bc7d768ec09ebd698c8eef560001b6300002ffe60201b60201c565b630000311b7f1c6a4a9803e7aa3220d0727f0908a9b07a4f7495fc3876092cfbe666b353d7cc60001b6300002ffe60201b60201c565b63000031517fef223087e97cb97d037249402a85ea171ac9fea3d63d1de605fd9141125becfa60001b6300002ffe60201b60201c565b6300003448565b630000318e7f81e9a490ce557e182511bfc6eaec796f0322309dc5b152b517ee96f2e7523faa60001b6300002ffe60201b60201c565b63000031c47ffb4857c6ffcf3a97a276c2d8a5e4a6bc4c22de16aeabff5659e835a97bd18bd560001b6300002ffe60201b60201c565b63000031fa7f1d803e7d620c2a8dbc6a46d8f8a07bb3206ccaf62422d60ec7bd0c1dc0fc794360001b6300002ffe60201b60201c565b600081600081518110630000320b57fe5b60200260200101519050630000324b7fba0aafccaa36bdc35e78716c86c21b686b91dac66af6de9e3e64db58f04732e260001b6300002ffe60201b60201c565b63000032817f5c1d4f8cccfdd4780c5784c21dcb14d0f579bb0dae794331f0cbb2ff25aa561260001b6300002ffe60201b60201c565b6000600190505b825181101563000034455763000032c97f0a21b32c354f4bc66e9d4c10e74a9300712d3fa7e505b38c9e20783887529f3660001b6300002ffe60201b60201c565b63000032ff7f21642a1c91cfe281a527673f1bc34858dc6507709de16fb4a1697722a7ca219760001b6300002ffe60201b60201c565b6000838281518110630000330f57fe5b60200260200101519050630000334f7fa82b63eab5a33f22c51256249a5d9706a615ca7d35b5fb95eeea2b93ead8c2a760001b6300002ffe60201b60201c565b63000033857fdd7e1a5a6e71679d2539db9e69626bf9a32f74614762ae4cd7a007979f4cfb4c60001b6300002ffe60201b60201c565b63000033c88173ffffffffffffffffffffffffffffffffffffffff168473ffffffffffffffffffffffffffffffffffffffff16106065630000270760201b60201c565b63000033fe7fb9b2f9cf36db3000ee06b288a33fd50865404ecb93038917fbab684585d4d4a160001b6300002ffe60201b60201c565b63000034347f250b0ef482be923352767281f9a34a6bb54fd53f27f97f94adffc7fea4dd254d60001b6300002ffe60201b60201c565b809250508060010190506300003288565b50505b50565b600063000034837fd3476389c9167915828e1c41fd58b501be617f81bcda7df7905ebaa183b3c4bd60001b63000035f360201b60201c565b63000034b97f763e3966e690f5b421dcd041f04b48a1b193ed59a99cfdb60b67ab3dfbf2eab360001b63000035f360201b60201c565b63000034ef7fd040ddffed94a5c3f1ea2412fc14f14911f62630c664bb38108164ba34c6c5bb60001b63000035f360201b60201c565b6300003507838311156001630000270760201b60201c565b630000353d7fc95d13badf35636a18cef429a1cc30fcff497d0f377233d60d91a54b5222bb6b60001b63000035f360201b60201c565b63000035737f28183ac30fe9ec9460a9d28cb4e04f1c3d89222564c20b044bc81e450ef8cb9760001b63000035f360201b60201c565b6000828403905063000035b07f2996cf182068f32853c4842e48ae8391b1959ea375b654bf401398afae3fb9a460001b63000035f360201b60201c565b63000035e67ffd16e19fe244cb693efc31c873bf159b238b28cd50bd7fb58b14e97f7b30750760001b63000035f360201b60201c565b8091505092915050565b50565b50565b828054600181600116156101000203166002900490600052602060002090601f016020900481019282601f10630000363b57805160ff1916838001178555630000366f565b82800160010185558215630000366f579182015b82811115630000366e578251825591602001919060010190630000364f565b5b509050630000368091906300003684565b5090565b5b8082111563000036a15760008160009055506001016300003685565b5090565b60008151905063000036b8816300003ec7565b92915050565b600082601f83011263000036d157600080fd5b815163000036ec63000036e5826300003cc0565b6300003c91565b91508181835260208401935060208101905083856020840282011115630000371357600080fd5b60005b83811015630000374b5781630000372f88826300003805565b8452602084019350602083019250506001810190506300003716565b5050505092915050565b600082601f830112630000376857600080fd5b81516300003783630000377c826300003cea565b6300003c91565b9150818183526020840193506020810190508385602084028201111563000037aa57600080fd5b60005b8381101563000037e2578163000037c68882630000389b565b84526020840193506020830192505060018101905063000037ad565b5050505092915050565b60008151905063000037ff816300003ee4565b92915050565b6000815190506300003818816300003f01565b92915050565b6000815190506300003831816300003f1e565b92915050565b600082601f830112630000384a57600080fd5b81516300003865630000385e826300003d14565b6300003c91565b91508082526020830160208301858383011115630000388357600080fd5b63000038928382846300003e7f565b50505092915050565b60008151905063000038ae816300003f3b565b92915050565b60008151905063000038c7816300003f58565b92915050565b60006020828403121563000038e157600080fd5b600063000038f38482850163000037ec565b91505092915050565b60008060008060008060008060006101208a8c031215630000391d57600080fd5b6000630000392f8c828d01630000381e565b99505060208a015167ffffffffffffffff811115630000394e57600080fd5b630000395e8c828d016300003837565b98505060408a015167ffffffffffffffff811115630000397d57600080fd5b630000398d8c828d016300003837565b97505060608a015167ffffffffffffffff81111563000039ac57600080fd5b63000039bc8c828d0163000036be565b96505060808a015167ffffffffffffffff81111563000039db57600080fd5b63000039eb8c828d016300003755565b95505060a06300003a008c828d01630000389b565b94505060c06300003a158c828d01630000389b565b93505060e06300003a2a8c828d01630000389b565b9250506101006300003a408c828d0163000036a5565b9150509295985092959850929598565b6000602082840312156300003a6457600080fd5b60006300003a768482850163000038b4565b91505092915050565b60006300003a8f83836300003ab7565b60208301905092915050565b60006300003aab83836300003bc9565b60208301905092915050565b6300003ac4816300003da3565b82525050565b60006300003ad9826300003d62565b6300003ae781856300003d92565b93506300003af6836300003d42565b8060005b838110156300003b335781516300003b1488826300003a7f565b97506300003b23836300003d78565b9250506001810190506300003afa565b5085935050505092915050565b60006300003b4f826300003d6d565b6300003b5d81856300003d92565b93506300003b6c836300003d52565b8060005b838110156300003ba95781516300003b8a88826300003a9b565b97506300003b99836300003d85565b9250506001810190506300003b70565b5085935050505092915050565b6300003bc3816300003db9565b82525050565b6300003bd6816300003e3d565b82525050565b6300003be9816300003e69565b82525050565b6300003bfc816300003e26565b82525050565b60006060820190506300003c1b60008301866300003bb6565b81810360208301526300003c3181856300003b40565b905081810360408301526300003c4981846300003aca565b9050949350505050565b60006020820190506300003c6c60008301846300003bdc565b92915050565b60006020820190506300003c8b60008301846300003bef565b92915050565b6000604051905081810181811067ffffffffffffffff821117156300003cb657600080fd5b8060405250919050565b600067ffffffffffffffff8211156300003cd957600080fd5b602082029050602081019050919050565b600067ffffffffffffffff8211156300003d0357600080fd5b602082029050602081019050919050565b600067ffffffffffffffff8211156300003d2d57600080fd5b601f19601f8301169050602081019050919050565b6000819050602082019050919050565b6000819050602082019050919050565b600081519050919050565b600081519050919050565b6000602082019050919050565b6000602082019050919050565b600082825260208201905092915050565b60006300003db2826300003e06565b9050919050565b6000819050919050565b60006300003dd2826300003da3565b9050919050565b60006300003de8826300003da3565b9050919050565b60008190506300003e01826300003eb8565b919050565b600073ffffffffffffffffffffffffffffffffffffffff82169050919050565b6000819050919050565b600060ff82169050919050565b60006300003e4c826300003e53565b9050919050565b60006300003e62826300003e06565b9050919050565b60006300003e78826300003def565b9050919050565b60005b838110156300003ea15780820151818401526020810190506300003e82565b838111156300003eb2576000848401525b50505050565b600381106300003ec457fe5b50565b6300003ed4816300003da3565b81146300003ee157600080fd5b50565b6300003ef1816300003db9565b81146300003efe57600080fd5b50565b6300003f0e816300003dc3565b81146300003f1b57600080fd5b50565b6300003f2b816300003dd9565b81146300003f3857600080fd5b50565b6300003f48816300003e26565b81146300003f5557600080fd5b50565b6300003f65816300003e30565b81146300003f7257600080fd5b50565b60805160a05160601c60c05160e051610100516101205161014051610160516101805160601c6101a0516101c0516101e05160601c6102005160601c6102205160601c6102405160601c6102605160601c6102805160601c6102a05160601c6102c05160601c6102e05161030051610320516103405161036051610380516103a0516103c0516103e05161040051610420516104405161046051610480516104a0516104c0516104e0516201813b630000418e60003980619ede528061d2b4525080619d74528061d17e525080619c0b528061d048525080619aa1528061cf12525080619937528061cddc5250806197cd528061cca6525080619663528061cb705250806194f9528061ca3a52508061b60d528061b642528061b6805250806175925280618a2452508061742852806188ee5250806172be52806187b85250806171545280618682525080616fea528061854c525080616e805280618416525080616d1652806182e0525080616bac52806181aa525080618973528061d20352508061883d528061d0cd525080618707528061cf975250806185d1528061ce6152508061849b528061cd2b525080618365528061cbf552508061822f528061cabf5250806180f9528061c989525080615a0b5250806117175250806127235250806151385250806150865250806135e752508061562f52508061567152508061565052508061267152508061241252506201813b6000f3fe60806040523480156200001157600080fd5b50600436106200031c5760003560e01c806370a0823111620001ad578063a9059cbb11620000f9578063d13c3f9e11620000a5578063d73dd623116200007b578063d73dd623146200090b578063dd62ed3e1462000941578063f89f27ed1462000977576200031c565b8063d13c3f9e1462000894578063d505accf14620008b4578063d5c096c414620008d4576200031c565b8063aaabadc511620000db578063aaabadc51462000830578063c0ff1a151462000852578063c27f81691462000874576200031c565b8063a9059cbb14620007da578063aa080c2e1462000810576200031c565b8063893d20e8116200015957806395d89b41116200013b57806395d89b4114620007605780639b02cdde14620007825780639d2c110c14620007a4576200031c565b8063893d20e8146200071c5780638d928af8146200073e576200031c565b80637ecebe00116200018f5780637ecebe001462000679578063851c1bb314620006af57806387ec681714620006e5576200031c565b806370a08231146200060c57806374f3b0091462000642576200031c565b80633644e515116200026d57806355c67628116200021957806363460d7911620001fb57806363460d7914620005945780636618846314620005b4578063679aefce14620005ea576200031c565b806355c67628146200053b5780636028bfd4146200055d576200031c565b806338fff2d0116200024f57806338fff2d014620004d957806343a9299e14620004fb578063496defa3146200051b576200031c565b80633644e515146200049757806338e9922e14620004b9576200031c565b80631c0de05111620002cd57806323b872dd11620002af57806323b872dd146200041f578063313ce56714620004555780633551a9ca1462000477576200031c565b80631c0de05114620003db5780631ec80b0a14620003ff576200031c565b80630a1b02db11620003035780630a1b02db146200037957806316c38b3c146200039957806318160ddd14620003b9576200031c565b806306fdde031462000321578063095ea7b31462000343575b600080fd5b6200032b62000999565b6040516200033a919062017ce9565b60405180910390f35b6200036160048036038101906200035b919062017256565b62000ac9565b60405162000370919062017ae4565b60405180910390f35b62000397600480360381019062000391919062017377565b62000bc8565b005b620003b76004803603810190620003b191906201731f565b62000bcb565b005b620003c362000d25565b604051620003d2919062017d0d565b60405180910390f35b620003e562000db9565b604051620003f69392919062017b01565b60405180910390f35b6200041d600480360381019062000417919062017377565b62000f2a565b005b6200043d600480360381019062000437919062017153565b62000f2d565b6040516200044c919062017ae4565b60405180910390f35b6200045f6200133c565b6040516200046e919062017d5e565b60405180910390f35b6200049560048036038101906200048f919062017377565b620013cf565b005b620004a1620013d2565b604051620004b0919062017b3e565b60405180910390f35b620004d76004803603810190620004d19190620177c6565b6200146d565b005b620004e362001689565b604051620004f2919062017b3e565b60405180910390f35b62000519600480360381019062000513919062017377565b6200173b565b005b62000539600480360381019062000533919062017377565b6200173e565b005b6200054562001741565b60405162000554919062017d0d565b60405180910390f35b6200057b6004803603810190620005759190620173a3565b620017d5565b6040516200058b92919062017d2a565b60405180910390f35b620005b26004803603810190620005ac919062017377565b62001956565b005b620005d26004803603810190620005cc919062017256565b62001959565b604051620005e1919062017ae4565b60405180910390f35b620005f462001c7b565b60405162000603919062017d0d565b60405180910390f35b6200062a6004803603810190620006249190620170e6565b62001d47565b60405162000639919062017d0d565b60405180910390f35b6200066060048036038101906200065a9190620173a3565b62001e19565b6040516200067092919062017aa9565b60405180910390f35b620006976004803603810190620006919190620170e6565b620022b1565b604051620006a6919062017d0d565b60405180910390f35b620006cd6004803603810190620006c7919062017482565b62002384565b604051620006dc919062017b3e565b60405180910390f35b620007036004803603810190620006fd9190620173a3565b62002462565b6040516200071392919062017d2a565b60405180910390f35b62000726620025e3565b60405162000735919062017a68565b60405180910390f35b6200074862002695565b60405162000757919062017ccc565b60405180910390f35b6200076a62002747565b60405162000779919062017ce9565b60405180910390f35b6200078c62002877565b6040516200079b919062017d0d565b60405180910390f35b620007c26004803603810190620007bc919062017757565b6200290b565b604051620007d1919062017d0d565b60405180910390f35b620007f86004803603810190620007f2919062017256565b62003028565b60405162000807919062017ae4565b60405180910390f35b6200082e600480360381019062000828919062017377565b62003127565b005b6200083a6200312a565b60405162000849919062017caf565b60405180910390f35b6200085c620031c5565b6040516200086b919062017d0d565b60405180910390f35b6200089260048036038101906200088c919062017377565b62003447565b005b620008b26004803603810190620008ac919062017377565b6200344a565b005b620008d26004803603810190620008cc9190620171a9565b6200344d565b005b620008f26004803603810190620008ec9190620173a3565b62003942565b6040516200090292919062017aa9565b60405180910390f35b62000929600480360381019062000923919062017256565b62004184565b60405162000938919062017ae4565b60405180910390f35b6200095f600480360381019062000959919062017112565b62004313565b6040516200096e919062017d0d565b60405180910390f35b6200098162004424565b60405162000990919062017a85565b60405180910390f35b6060620009c97f4db756c43151b39c292200c46bff24e176da61a0e871364526e45f6fbe81ac4a60001b620013cf565b620009f77fba290886c45607b59e3de5397eb7831641bfd35d7fa57c961e0adcd9d4b79c3a60001b620013cf565b62000a257f39a49d1e9173e1b109b0071d57f8abe5e31aa57049988a2f3d2e37520a49e1b660001b620013cf565b60038054600181600116156101000203166002900480601f01602080910402602001604051908101604052809291908181526020018280546001816001161561010002031660029004801562000abf5780601f1062000a935761010080835404028352916020019162000abf565b820191906000526020600020905b81548152906001019060200180831162000aa157829003601f168201915b5050505050905090565b600062000af97fb1ea157a74570fd3643c5310837ad126ac7e4706522558b5875e1918b59b542c60001b620013cf565b62000b277f608d42f4361636bab0a221b92860e67ed6868f7c49f5d3d0971b0415b8bbc3fc60001b620013cf565b62000b557f615b7abb3c5e0d42ad112c000b5db1bdca612c20fd9371e93aa915c0710d8e9b60001b620013cf565b62000b623384846200494e565b62000b907f20ccb10feb578c145cd252783de60c35b7c4c0b57c889d3dfb397e2beb70414f60001b620013cf565b62000bbe7ffe03fbd27bd6a7be7f0b17c315f4e874faf110e898eb2d3c95f00f3f260542fb60001b620013cf565b6001905092915050565b50565b62000bf97f21ea7fcf5f9d7c31f9aaf25a69a33e54c5f3c5f66baae008885ccc3276598f7e60001b6200173b565b62000c277f6a39159fbf6a6f219cb1a9d2ba1e006bf81de453f8c25b24ef0ad37212bed98b60001b6200173b565b62000c557fda72f8aff7fe2e941c3d65dafeff55469fc4e10b2cfd040c51bbee89e5b0231a60001b6200173b565b62000c5f62004b21565b62000c8d7f9c459e0e3be04934ddeb1b00ad8219c43cf1b0ee5a60c5c5492412fe62e3db4860001b6200173b565b62000cbb7ffec5f9176a10139ca8b7a264598f2948b912c517072ddef0b8013fe823d22b0b60001b62001956565b62000ce97f9689784212ab875928251654560d1a86e41133a3d6544bde883b8e688492d31660001b62001956565b62000d177fee22413a639d869962fbbd332a97dc982983cd7f4b16df857902e4c3eb24930f60001b62001956565b62000d228162004c56565b50565b600062000d557f3591744e6a97f397579dfefe4467e742422291d5b48cf0b4b29d2a7bd707601a60001b620013cf565b62000d837f648de981846633733b23f115d5f5a0c65d9ed63a0536ceba8eceb070f538606660001b620013cf565b62000db17f26add7f2af4a43b72f0acd053918a6e311d5debc1abcc80dc521e650b43cf45d60001b620013cf565b600254905090565b600080600062000dec7f42b2df6467ff4c70f32501bc99dadaa1707377d0ae98682424fbf6f17c641d1460001b62000bc8565b62000e1a7fc547455e53b5440054db386d0706d7ff980e05270c92023fc54f5f5f5c04c5ad60001b62000bc8565b62000e487fb963bb4019984fe1702b4770c0d5aa469bd0dd9b7d30f2696d9641e74bbca11260001b62000bc8565b62000e5262004f42565b15925062000e837f61573994a5d914d4db231e404b148fb9db63f1c7b413b107977e9feedb531d9460001b62000bc8565b62000eb17f07825aec69c85870219784a1fb8305468e89fa78f9acd98ce1748ceb86c60aec60001b62000bc8565b62000ebb62004ff8565b915062000eeb7f021c1a05e5f001c149d9ad72783428e4a158fe50b5533cfc1ae85382d9da3cbe60001b62000bc8565b62000f197f0875220e21ba6e87e6bbb05f50398ebcd41b3de02dec68c6049fc5c8fd3cd56260001b62000bc8565b62000f23620050aa565b9050909192565b50565b600062000f5d7fcb1e83c5388babf0d45f0a159d24050185c8f019cd8c4b6f2c779d5c3c539f9f60001b620013cf565b62000f8b7f7fbd987c745bcd9baf3604ec32a88300f63bb21f3fceda9f3228dfaf2c3f2de460001b620013cf565b62000fb97f0e8dacc52dc9d5685cb26ebdcfd55134cecbe613d8a4b690e0e969ccd4b0481060001b620013cf565b6000600160008673ffffffffffffffffffffffffffffffffffffffff1673ffffffffffffffffffffffffffffffffffffffff16815260200190815260200160002060003373ffffffffffffffffffffffffffffffffffffffff1673ffffffffffffffffffffffffffffffffffffffff168152602001908152602001600020549050620010687f54e7f369fb0047d67cc293276bb189bd606f854e46cdcecc1bd076aa91dd06f260001b620013cf565b620010967f39190ba861c8e6e479265c5a4e8684bc43ebc26b72efdbf60c93695625d7e74560001b620013cf565b620010de8573ffffffffffffffffffffffffffffffffffffffff163373ffffffffffffffffffffffffffffffffffffffff161480620010d55750838210155b6101976200515c565b6200110c7fd869e7d03a7d2b949d65095bdcf9138ca8c21024df18a7d1e9848fe6c7abba5a60001b620013cf565b6200113a7f537959050150c59e30f3e96d0efe52657216286d3e9b350077d0afcaadc7422060001b620013cf565b6200114785858562005172565b620011757f926c18b0f53a5e82fd975daa6afee3b86a70d7c71a10a76f3fcca650aec50a6d60001b620013cf565b620011a37f607a349b557172ec6566d29aba0b5e434c65703e9f4543212ae2ade2556ad69860001b620013cf565b8473ffffffffffffffffffffffffffffffffffffffff163373ffffffffffffffffffffffffffffffffffffffff16141580156200120057507fffffffffffffffffffffffffffffffffffffffffffffffffffffffffffffffff8114155b15620012a557620012347fcd4b7cb6209714f6b6668452e416a09740061e5232695dab3c8d58eb9929230660001b620013cf565b620012627f1b58eb05783678703afafd8c2da7777514b88bb4bf1d0b1b33d2285ae42bb85060001b620013cf565b620012907ff0312650c8425ab9e2314712cd6a85893e6ba127ec99153319693e6c04b162ab60001b620013cf565b6200129f85338584036200494e565b620012d4565b620012d37f8b9f87cb614a13839badb66ba449c6131eecbd8f2c92f3b916fa3d82b04f554e60001b620013cf565b5b620013027f5f2cde0b0885842c82f8b00a0286a72ef2985aa970c5d934ec072153cff1e5f660001b620013cf565b620013307f32779093f7455faaa3eb624998ad4d7d1a80d4f32a251c7815d94777d377f58860001b620013cf565b60019150509392505050565b60006200136c7f9cad670adda916501fa2719d90e5fe0ece4449dd6036d4d49187cdb9b9a67db160001b620013cf565b6200139a7f0a01c55b2a3b47c5dc0b58fa28bb70316ee084eca589b5465dc8477c8fb2969860001b620013cf565b620013c87f1f2aa8b01dcb4274968895299d05e53753fd6115a911b22e4f5988ab9e33c50760001b620013cf565b6012905090565b50565b6000620014027f9a9bf2e5977de3697a9ec96b58940c396178f0ae9e5e6dad3c34cc15875ad43660001b620013cf565b620014307fb822da9206ad66a6612383dffe32883ba061b6accb06aaba55b9dd2dee84833160001b620013cf565b6200145e7f7b9abb37e5294ffd6b06ddbc84feec6d9746d7f59ed43e20820b54f98f0eb04b60001b620013cf565b62001468620055a1565b905090565b6200149b7f21ea7fcf5f9d7c31f9aaf25a69a33e54c5f3c5f66baae008885ccc3276598f7e60001b6200173b565b620014c97f6a39159fbf6a6f219cb1a9d2ba1e006bf81de453f8c25b24ef0ad37212bed98b60001b6200173b565b620014f77fda72f8aff7fe2e941c3d65dafeff55469fc4e10b2cfd040c51bbee89e5b0231a60001b6200173b565b6200150162004b21565b6200152f7f9c459e0e3be04934ddeb1b00ad8219c43cf1b0ee5a60c5c5492412fe62e3db4860001b6200173b565b6200155d7f55b2c706edc1fac40420f6b6ee2c7fb303ddd3f3b2e904e75d52c6bfd88e56fa60001b62000bc8565b6200158b7fc498ca4ed44b1ebcfc965c587448a4caa7674ba28574ad44c701d0b18d270cc260001b62000bc8565b620015b97fc0eb990e8883f9af90f456b244df4424ef0fdb6588346633543bc7fad5d1535e60001b62000bc8565b620015c3620056cc565b620015f17f44575eacace6313d4ce3cb25629c3a9f23ce0f7905ebb1784022d4cd23e99a9260001b62000bc8565b6200161f7f7ed7626961fb0c276eb99cdcae5e598683604765ff49ede0ae0d5e3326cb91af60001b62001956565b6200164d7f30e282526d0a36f06adc8598812d014a1f6e32709881cb4ed8d344a54c84c2e160001b62001956565b6200167b7f8b3f4f747b47322cf959ffed7a77642f04a016d5183e7a3ea59d82cfce65bc6260001b62001956565b62001686816200576f565b50565b6000620016b97ffc5950d005f31b1e49ac649d89dd56a3846d1c287ab3ba7cc65ab6e2c6fc43d560001b62001956565b620016e77fca011f789f961806c2c3436272b2be11fe26967621822202448bd748a2a7795b60001b62001956565b620017157f49c7630e4a74a8bbfca04f3433220f01141b861341d42984a513043d64cc8ced60001b62001956565b7f0000000000000000000000000000000000000000000000000000000000000000905090565b50565b50565b6000620017717f82b8d8d8c30681fefe3506c779cd002003cea42493f35644b1d0bc006cf6c84860001b62001956565b6200179f7f770c8e1d1ae4f21d46ae58f4fd83acbfb35bb319fb9a973b66009548f190a82060001b62001956565b620017cd7f898456cbdc830e8e1fd77d36de50e38554b4b773ec74e6f26323c2cf465d89f460001b62001956565b600754905090565b60006060620018077f843156add37912bac4a8b4162d902b38eff9a583ebbbb3f8ca0c5ae4bb727e2360001b62001956565b620018357f5c782d49c46369378dd49af346aa55e25bffca55c48f05b6275dae0c8336470360001b62001956565b620018637fa546556f1ea2da37ff939bd5a8215ff6626923230561f52301411063139736c560001b62001956565b620018798651620018736200597d565b620045e7565b620018a77f3e983dd5509997b676b7268e06ebef1d0e480f83399465f906b4f5ec6728ba1960001b62001956565b620018d57f1b6a3aadfee2b62f203c974ce57296635679b500e7dee8078f20288f1aebaea360001b62001956565b620018ee8989898989898962005a2f62005edd62006036565b6200191c7fedee8214c52fdf41a2569862b2a3bb975267b6c6525c7ea2c41442dee7b97dc160001b62001956565b6200194a7fd8a9aaa0e1cf7a0f7ce4f1b92ff03e9d289ebb0b3fb243165e22dcb99cdba7cd60001b62001956565b97509795505050505050565b50565b6000620019897f2bc4f6cbbe1e6cc58886fc607e4f9d603ff60ef5478e3676303f678e6caf2f5460001b620013cf565b620019b77f731cc74fab18c25d19816bf4d2298b45d95bea660e12eca338e76e4e0250157360001b620013cf565b620019e57f776354c1f8a649dba23ac29d302391f8ec705f38cfbf61eaa9e10ed0e086a0a860001b620013cf565b6000600160003373ffffffffffffffffffffffffffffffffffffffff1673ffffffffffffffffffffffffffffffffffffffff16815260200190815260200160002060008573ffffffffffffffffffffffffffffffffffffffff1673ffffffffffffffffffffffffffffffffffffffff16815260200190815260200160002054905062001a947fc1cb3a4403e7fb7d25c7977c1b9d6b562b5d4490a6afb2cbe3d4bf6b13a86ca260001b620013cf565b62001ac27f276b3d970bf6b8f83f2563a9b429975c187e8bca73b96e4e35e83f44d79ef87f60001b620013cf565b80831062001b685762001af87f9ee10143f1a57ce9379cd06d83af7f4260b35b7d68688e2571614528b3bf0a9160001b620013cf565b62001b267f4c189fac295f2d343d8fe6b386541ecd7212a459348bb5e026f841253ee688bf60001b620013cf565b62001b547fd9f90d4c7c24b7b34ff27df9029e6f5cef30bcafff8b7429ab20759576816c4660001b620013cf565b62001b62338560006200494e565b62001c14565b62001b967ff51c22ae637e8f9f1dd7422715ecb2d1c32c86659f8e28f3ce381baba105ffb360001b620013cf565b62001bc47fdfb3948fd26f2536e1f0ebee33c8374cec9a7353452842dcc19e635455c7421e60001b620013cf565b62001bf27f14683ac6bc698dfe12cbc9135dfdd3e104e730ce7ecf472553c6c26797bed32960001b620013cf565b62001c13338562001c0d8685620047e990919063ffffffff16565b6200494e565b5b62001c427fb78ae2a8b9b381c79c5e2cd9879e837dbe889adabced450427438aeef5d5ccff60001b620013cf565b62001c707f03f32f21093b2a8199a310db220ff53f6a540c482b9448ef79e79e613ef3317260001b620013cf565b600191505092915050565b600062001cab7f6d38611ed68e54c9f81dfa619fc5acc14f9b71081c45d34e6de58c9eb2baae2660001b6200344a565b62001cd97f645ae24c8495913dd43afb99cdb79041b630b18eada11c8250b00042ab4f8b8a60001b6200344a565b62001d077ffa781a5b3610763091b06b6936eddeb363599e2697ffa5ebd23de0ba9f4312ca60001b6200344a565b62001d4262001d1562000d25565b62001d3362001d23620031c5565b62001d2d6200597d565b620064df565b6200665990919063ffffffff16565b905090565b600062001d777faac41115ae1d356952505586f40766eb3ebf03c42c0cbb0132cda2a3447a273260001b620013cf565b62001da57fe30a51ecf846439267419cc37bfa8423dbb262e0b9c8c725cb29feab7f95316a60001b620013cf565b62001dd37fe8168e88c7789dc9fd9a2320bba851c6f3abda3fa6015b28f28ed3a2ae63756160001b620013cf565b6000808373ffffffffffffffffffffffffffffffffffffffff1673ffffffffffffffffffffffffffffffffffffffff168152602001908152602001600020549050919050565b6060808862001e4b7ff68b03a3fec8dac7779605a46475077fa9dafe829eddf6ca345f61b04e5f5c0560001b62001956565b62001e797f9d1fdb151e41c3aba02424103aac66a346bf9ab1402a441b8db99a307d4ba34e60001b62001956565b62001ea77f785dbf00db4fea859ff61df3064355f5ab99f94a2b11d2b5eac465eff49ecfc860001b62001956565b62001eeb62001eb562002695565b73ffffffffffffffffffffffffffffffffffffffff163373ffffffffffffffffffffffffffffffffffffffff161460cd6200515c565b62001f197f1d0362102dcfbd2500bb998702ac1bb1de267612981136db00a432874a5b6fb060001b62001956565b62001f477f5ea396807948ac3fd8041d0de30dbae0fc2bc583b56d3b7c5505eec562958b3d60001b62001956565b62001f6062001f5562001689565b82146101f46200515c565b62001f8e7fc8d6c1095a38b29a0ad7c79220141fd52d4d7a2903679c1733e75402087ffea160001b62001956565b62001fbc7f4583d3e9abeebb3f83ba8eb7ee7a1deff1317dbc81b01a5a7524278b0d44f83460001b62001956565b62001fea7fbce7d0fd10307b0a0fb8b1451a066c73acb7c4d72c210ad9c844a85218af97de60001b62001956565b620020187f03441fc29a3b712470fb0adaca9076a9bd07e3e439de3fdf25a263a25a9a197760001b62001956565b60606200202462006977565b9050620020547f5ebe8344e46c348cada61994dcde5d209ef2cf5652aeb2a4f9254883f69569ba60001b62001956565b620020827f531d0654f6d2d48b027a068332a534e116485045e1448b0806f111a161c3f74c60001b62001956565b6200208e88826200769d565b620020bc7f75c90522fd3e3cb25182f6fa55dc1a241e44dc06965f6f381df34bc9135661c260001b62001956565b620020ea7fe45f2f3344ba6a4cd9c326f16e487a94faaa1f754b1c87c1a902d11549d1262b60001b62001956565b6000606080620021008e8e8e8e8e8e8e62005a2f565b925092509250620021347ff6dd31b4120fafb578f0524542064b897f9ad340647f0ac837a1d55bf7f0426960001b62001956565b620021627f4d6b02770425cf3c2b4af86253dfb9ea1129cfc22172176dcb54c44b4dfe58dd60001b62001956565b6200216e8d84620077f6565b6200219c7f2da52517f90aa68d603322c495916d8c2442d50ef18d8cd7ba67f71404713fb260001b62001956565b620021ca7f214cf9e91ef256e57de5ca9ceb210b3b6b82a141cb5feb3455fc8c2d8800047e60001b62001956565b620021d6828562005edd565b620022047fa319c0af4865b8d12defa5540a2a0e7ae511a23ea7a4c2041a061f8b0a4b976f60001b62001956565b620022327f5d11b573760545e2d8f6e5815f6c4fbfdf776a73c1cc2850a346f448b2f5450c60001b62001956565b6200223e818562005edd565b6200226c7f5fd34f2d0867cfd5396e3bdac3989966fb5ac6daaa78d9457941d97482af518060001b62001956565b6200229a7f66da92a7570399e13b3354a3deec2ee1d307d31d90507e7d6d457e0e716e8b2b60001b62001956565b818196509650505050505097509795505050505050565b6000620022e17fce709f4cad1692c2eec712c74409eb1a9a8e4be929c69436a23021ba15e6f85260001b620013cf565b6200230f7ff614fa7db7c2a2a19167f3be1070e88fd9f20d559a2986abe9ec49ed496f6c9860001b620013cf565b6200233d7f4d99137f0c6e388b0468c0640c9931cfa067557163b83ee1e6370736699482cf60001b620013cf565b600560008373ffffffffffffffffffffffffffffffffffffffff1673ffffffffffffffffffffffffffffffffffffffff168152602001908152602001600020549050919050565b6000620023b47f4d573133ce520db9ac8fcc17a4a109e17cde6e632ece08c89418b284bc44a67860001b6200173b565b620023e27ff3dc7d107ec34169a12de6b8dc70021c704b1c6bfe98a174ebf6a95d17c3ffa960001b6200173b565b620024107f05423f9efef992bd3c316d35c411d077b1697419a0b4608f5649a0d610dcab4a60001b6200173b565b7f00000000000000000000000000000000000000000000000000000000000000008260405160200162002445929190620179e0565b604051602081830303815290604052805190602001209050919050565b60006060620024947fab83ce3e3f881dc2afb418ebb2a1ec9eb6cad8eb3bbce473a0ae486e2931681060001b62001956565b620024c27ff635c15dc7bee6a9200b682d80381e0613feccefc43aabc268d4b1bdd92d326660001b62001956565b620024f07ffb2174914a2970606a9622caec127ae7e35ae3fbbef7f6efa0561cfada53f63c60001b62001956565b620025068651620025006200597d565b620045e7565b620025347fe0ea453046c8fb4d83701cad74c1f6ec91cb9ffa9f47d1f48e48754d0de11b4560001b62001956565b620025627ff4e0b46df7d1f171ab17b15d171c035cae3f3621dd45a7a146ad2af14f0f73d860001b62001956565b6200257b8989898989898962007b1362007f1262006036565b620025a97fc056b5e8b15980b92e1cd65ecf6ea8233d475b490202f191824e78794dfacecf60001b62001956565b620025d77ff8657f99c8934a4158188d71c3204ad82ee3a72fd475bd6a931ab4befbc69d5b60001b62001956565b97509795505050505050565b6000620026137f4305b0b93402caa86e7180f48d024887d1c1f8bd2a44bfdaee3042782e1365f860001b6200173e565b620026417ff4a29a5967596beb317406435bb4b861d12cc69220c8044af61df66d35d06bed60001b6200173e565b6200266f7f682699fb5d3b0c411085c0cc50e8915b89589b26ae77956cdec3e2fded5c83fe60001b6200173e565b7f0000000000000000000000000000000000000000000000000000000000000000905090565b6000620026c57f2ed3446dbeff8ba31e41e908b09d7eb128249c443691794c9289ee6b4e8e9aee60001b62001956565b620026f37fbd1c582e102cc9ce02656e1ae8e7dd23dd47bb9aa29c96f6506ae6c6b9c448bc60001b62001956565b620027217f4e36efbcbce56d36134a6bbf8d8e1eaf752b6e3197d05f9ada62c05a6fdf3b1660001b62001956565b7f0000000000000000000000000000000000000000000000000000000000000000905090565b6060620027777f17b355ef40058aeaf7c26c8927690560a2c4c4216dde24b71a7a9f03aec604b560001b620013cf565b620027a57ff815f3842a98c6f9cec0f04aa4934f6dea0f5de2e999217d58185d4eb88d98df60001b620013cf565b620027d37ffa543718d62142def29bed5b85057d1941cea6f37ff96e276959eecd780b7e9560001b620013cf565b60048054600181600116156101000203166002900480601f0160208091040260200160405190810160405280929190818152602001828054600181600116156101000203166002900480156200286d5780601f1062002841576101008083540402835291602001916200286d565b820191906000526020600020905b8154815290600101906020018083116200284f57829003601f168201915b5050505050905090565b6000620028a77f5cc42f0250ce0d9120514bb163f181ca5bf896ccd7b573e29df4292b3627fcf860001b6200344a565b620028d57f46cdd30a679ea4cb91c67776a9ecaeed5ffdfa1e172de91ea2fed0499bdf0d9160001b6200344a565b620029037f8d9ddc2d67ee435add7279865ce64e1219498f6f3fd467c83944e6f2dbef28a760001b6200344a565b600854905090565b60006200293b7f19cb38440994363f341f79384de6034fa989123a09f4d058118edde58609f14460001b62003127565b620029697f89fc5d4808d0d8d6b0f778f0aa5895a68cbdbf0487e2f672cca2b4037b76355e60001b62003127565b620029977fc75acb65df0c67837137fade9747399a07d632ccfbbdd16cb9102792ab65bbc060001b62003127565b6000620029a885602001516200806b565b9050620029d87f15e17a0befe06583286af1ac7df26309b2b9bf906c521143b384b83aa2e4631160001b62003127565b62002a067fa7d59896489c0c40877e9046fec7c648231cbe9f2f559ca1fa7e98414276921260001b62003127565b600062002a1786604001516200806b565b905062002a477f943432c3be6091d2006c3a71dc9bddf9f1d13034d285ab6a5ad04af5e66700c160001b62003127565b62002a757fad26e9c0aa298f17f4906bb6ffc247d26a86b48892c86adbbfbfec8e02e6143060001b62003127565b6000600181111562002a8357fe5b8660000151600181111562002a9457fe5b141562002d665762002ac97fc1bf6adb655334eeca126fd24f7e41aa7a4ded5e69ae9ad56be44a599f6dc75960001b62003127565b62002af77f480b68b88d82e42d0dd1c0dbce1b28b743930538accf870a96de04e6d1675fb260001b62003127565b62002b257ff6063cdf48d8a7ebf76217d4a032849c394160d7dc98efb77a9b01bcbd4b87e060001b62003127565b62002b34866060015162008ae8565b86606001818152505062002b6b7fb22123645427ed2fea4feb8813ad1684686df8a24dc4da6022a3bcb08b27afd260001b62003127565b62002b997f27a1f6cf89710510d21365c008a67f25b83ba27915b60e74dcb7c4868e114caf60001b62003127565b62002ba5858362008c08565b945062002bd57f6f5e27405ebb4a22b36435e3767246d87b5bfc42bbbfa064b40de7e592ee65f760001b62003127565b62002c037f2b408178e77c810b615cd0fbea4f0a86c8c327f4c89e6e5c0a5db0f0d859974660001b62003127565b62002c0f848262008c08565b935062002c3f7f8d7b50dd955194d7568f21b4757baaf317c3033de6fb3f91344aeaac84585d9860001b62003127565b62002c6d7fb31f09dbf9db490d2b8da63961ce1b89249829cc87ccec241d481124aef7255760001b62003127565b62002c7d86606001518362008c08565b86606001818152505062002cb47fe17ee363c1fd9da50b55361cbcab8d061bcee0fa893f69337c61b200b233fd0160001b62003127565b62002ce27f936239ceccd035eb38ca0792bd6a3463fdb688950e171783880b647938961ba160001b62003127565b600062002cf187878762008ca8565b905062002d217f822f850ea094a919b2076da03bef84e5e49a64b9e5834aac281db96add83c38260001b62003127565b62002d4f7ff29de2c5f4e039fa5c490eaa2ed10042bb4c52d3699d5a562acc53b5f885fd1c60001b62003127565b62002d5b818362008e2e565b935050505062003021565b62002d947fac209deeea19fe123a7fa89845609f9e03793fb5a599781d2c08a1034a8dd66b60001b62003127565b62002dc27f6cd655bd3266893ca60b6e896deb2761cb7f6ffa77bb4e356eaf49f9c0839f3f60001b62003127565b62002df07f9741cc16f62a9dc624703b4fa234011e8acec086c4bee3a393670d788144546860001b62003127565b62002dfc858362008c08565b945062002e2c7f468396c7411c53d720dcc31bc84386430a2e86aa5c99b79f7f7a50db6be2110d60001b62003127565b62002e5a7f14d6baa52140ed5077dc36ea55df5b5725b52f484848ed46c888b9c0d75e80b560001b62003127565b62002e66848262008c08565b935062002e967f56e0c93f0fd0f0d6e6c4c3ccb9717c36739157fd0cdaecca9a2ead82f278141660001b62003127565b62002ec47f22b6826a0388feaf07b7745db2cd41e7b3c56e5e2b9726fba069b1c70415619560001b62003127565b62002ed486606001518262008c08565b86606001818152505062002f0b7fc202272fa54bdc738092bea61c95cb7c975eb9f421d27e9e4a63325cb5b0cc3760001b62003127565b62002f397fdb3356c67b65014a7e6c4bd99a519ecce5301d70eceba9d2c73adf62a44dac4160001b62003127565b600062002f4887878762008ece565b905062002f787f96e1b3964ce0d11f8447fd4fefb94af816f57a0a0ef6aaf640d650198e2f02d660001b62003127565b62002fa67f8bff9cbcbd6f940a230d0f02857a13e348cef1ccc4a7f9b789f45d380957d83160001b62003127565b62002fb2818462009054565b905062002fe27f595a83d6b77f3430c482f3ce48e56e4614a8f78a4dc401d3e5ee82dcdd48970360001b62003127565b620030107f0bab0c10cacf95ba346460daa290d902551f4856376772c723fcc6b7ac9790ea60001b62003127565b6200301b81620090f4565b93505050505b9392505050565b6000620030587fc7d5cde1c91db565920f97654ccc517109b3f3285bdac7cfb18268f263704dbd60001b620013cf565b620030867f9487286039ccd1cce5e53f904e199d78750bbd4bbfd7c62c9c1d60ecaf56e50b60001b620013cf565b620030b47f1f1ea87194eeb14be5cc6cba45ae9e9337ea06004a9c7af017b41caf703e4b4360001b620013cf565b620030c133848462005172565b620030ef7fc6ffcb393b983e991aaf4197cfc7014a15c25f6cf5ac9eeab80c7f1a3f11647360001b620013cf565b6200311d7f49c2eaedb9cca58be5fe2e3d6e47577701e46c37362340dbea73aed6cba3b22a60001b620013cf565b6001905092915050565b50565b60006200315a7f61a456c406e6bddd1e1783c07eb5227da8606b4ef5a91e1dd9f5cab8fd10e64b60001b6200173e565b620031887fdf5db6dcbe1022d3314c823ebca0c8436089c20f219ddeb21408ebb54a23afa460001b6200173e565b620031b67f611743155308434ae26e8814f1872b30c4b60a7ae02d34c5090d72d0976b15b860001b6200173e565b620031c0620091a8565b905090565b6000620031f57f794a7829768e131a16cf67cedc1d363484f3ada04b94838721a21036528aac7260001b6200344a565b620032237fb129980ee8bc53df608d4214f6e79969d249755fc92437b974603d0f85af82d460001b6200344a565b620032517f9c205bb763b6571412fdf424f1eb94d280107fec7b45ae612fe0002adb06393660001b6200344a565b60606200325d62002695565b73ffffffffffffffffffffffffffffffffffffffff1663f94d46686200328262001689565b6040518263ffffffff1660e01b8152600401620032a0919062017b3e565b60006040518083038186803b158015620032b957600080fd5b505afa158015620032ce573d6000803e3d6000fd5b505050506040513d6000823e3d601f19601f82011682018060405250810190620032f9919062017297565b509150506200332b7f7bb7da33bd51a26832a330a9183b7f15f4e748801851d7b85b0d65ab52d5d58d60001b6200344a565b620033597f1b013db93ba3a09696a5962666e15005fb6c3bf5885c5515e32ce0ddcffba17460001b6200344a565b6200336e816200336862006977565b6200769d565b6200339c7fe163e0a100a4a5eb268b4470872715d8e747c7c607102d68c46dd65a050a527960001b6200344a565b620033ca7fcb67eef61a668f4085464b19f67f9001f70e9fa52168e2dc9aeac4943768f0fb60001b6200344a565b6060620033d6620092c4565b9050620034067f9b887fc72462ead445a8932ecbbe10794ba680b0d0c021478c963cbc9c60c67860001b6200344a565b620034347f091b5851d59028118acf6646dfb5d51f823b86413ce4e2e4b478f1827b18ef8760001b6200344a565b62003440818362009fe9565b9250505090565b50565b50565b6200347b7f9e6607f156be20e58f9a51f80fa5672f26c76d76f8af4db1fe3973a095ea94e960001b620013cf565b620034a97fc4824ce5996dc5918169681705c4a696b3534a22d9100fc5f9e282d8a34f158460001b620013cf565b620034d77f49a8c7b9f73719cf4f0c88621e37eea02abf69414627563f36cd1d4b26c8a52760001b620013cf565b620034e78442111560d16200515c565b620035157f2117cacd3625bf5ef48d271399307c9501a99abf036d7b44555a48475d88f75360001b620013cf565b620035437ffd1800c5ea3000172f950dc7ca86794cb57a8d9e1152dc03e54c440b047af19360001b620013cf565b6000600560008973ffffffffffffffffffffffffffffffffffffffff1673ffffffffffffffffffffffffffffffffffffffff168152602001908152602001600020549050620035b57fb809fce7c03d50db8ba1876a6f0380405e0b21614d172f3be817d9be546915f960001b620013cf565b620035e37f9277eef8ca40423550c8c6bb460b8550107822f0b23ee133dcbca26324e0d90560001b620013cf565b60007f0000000000000000000000000000000000000000000000000000000000000000898989858a604051602001620036229695949392919062017b98565b604051602081830303815290604052805190602001209050620036687f4e4390c189cd9fec2fee917915f9494120c5dc3361bcb5aead6a222bccfd680560001b620013cf565b620036967f07e585d122fbf6cbba88960e9b3d57fd2e7c358ec9af4aa1b57f55970c58d6fd60001b620013cf565b6000620036a3826200a21a565b9050620036d37f02e2870a44c833d8837321eb156a098c29a316bce1a5e9c84409f4d637d190c960001b620013cf565b620037017fa1d9efdfa0d73e58b2e475b03371ad10ebe2495772ffabbb2bd36d0c767bea7560001b620013cf565b60006001828888886040516000815260200160405260405162003728949392919062017c62565b6020604051602081039080840390855afa1580156200374b573d6000803e3d6000fd5b505050602060405103519050620037857fc20defd178dd15aee2be9d753b81a319562bb6bb663a2727d08d87bb245cdb7b60001b620013cf565b620037b37f4d999149c4869297fda2c264f84945c98b57f7a86df38adee937d261730f218060001b620013cf565b62003829600073ffffffffffffffffffffffffffffffffffffffff168273ffffffffffffffffffffffffffffffffffffffff16141580156200382057508b73ffffffffffffffffffffffffffffffffffffffff168273ffffffffffffffffffffffffffffffffffffffff16145b6101f86200515c565b620038577fc1e08c5b0d718dd589e2de137bab624c5ca598b711afec95b39a18eac5af824c60001b620013cf565b620038857fefcb7d9f6c2a50231d6be8ec6f6eef473a9e99619024f2ea72c80891e7035ba360001b620013cf565b60018401600560008d73ffffffffffffffffffffffffffffffffffffffff1673ffffffffffffffffffffffffffffffffffffffff16815260200190815260200160002081905550620038fa7f613526f5215af821f01f2ef24bdfa4b220464d95752abcb6308aae877a840c8c60001b620013cf565b620039287f1a993035dbefbc3de9835550d2d1a2623c8d261935be347d3660c424aa84d94c60001b620013cf565b620039358b8b8b6200494e565b5050505050505050505050565b60608088620039747ff68b03a3fec8dac7779605a46475077fa9dafe829eddf6ca345f61b04e5f5c0560001b62001956565b620039a27f9d1fdb151e41c3aba02424103aac66a346bf9ab1402a441b8db99a307d4ba34e60001b62001956565b620039d07f785dbf00db4fea859ff61df3064355f5ab99f94a2b11d2b5eac465eff49ecfc860001b62001956565b62003a14620039de62002695565b73ffffffffffffffffffffffffffffffffffffffff163373ffffffffffffffffffffffffffffffffffffffff161460cd6200515c565b62003a427f1d0362102dcfbd2500bb998702ac1bb1de267612981136db00a432874a5b6fb060001b62001956565b62003a707f5ea396807948ac3fd8041d0de30dbae0fc2bc583b56d3b7c5505eec562958b3d60001b62001956565b62003a8962003a7e62001689565b82146101f46200515c565b62003ab77fc8d6c1095a38b29a0ad7c79220141fd52d4d7a2903679c1733e75402087ffea160001b62001956565b62003ae57f67fe1688b99ed8069e79bcdf8ca6b806ed9e5d5bf6db1ecf53b030994e7ebbe560001b62001956565b62003b137f0c6ee9b7202202588be8a75a2300a2b0447ce0aa8c0ee272efa42fc61e31d30760001b62001956565b62003b417fa0c2fd44eb019393c3f4b4b667d553261a80968246f56a16189f221f52a0e85460001b62001956565b606062003b4d62006977565b905062003b7d7f5673ebc7acf6d3b26013852cf11993baca4de31f4c45b848f08eb7b4a134472e60001b62001956565b62003bab7fc56fbfefe7260f9cecadd6553c602451d5f315c87e67cae8ac993a7494cfcd6960001b62001956565b600062003bb762000d25565b141562003eca5762003bec7f2680c8ceee94b46a59f4979aa2a6d1e646ca95bba2a403869e1d653e42cf482160001b62001956565b62003c1a7ff49cb9a152f594f5a1da4f7ac1e06a640d55ec4e4293d8b898fef3a2471ac28560001b62001956565b62003c487f2b217b9f7603d6185c83071a71fb29486bc0e07286b02614f154d348dd9654be60001b62001956565b6000606062003c5a8d8d8d8a6200a2e1565b9150915062003c8c7f046a0c692bf9fd5d4aef6e7c08dc9756c3fdf8c4388dcc5f242df49a1e7d579c60001b62001956565b62003cba7fc6b6fd36c929230c267a621790e2396ddb5483c791a8fcb2183947c390cf74da60001b62001956565b62003ccd620f424083101560cc6200515c565b62003cfb7f6af1bce9638111306f61b41ab089f020fc4ccc21dcdd53c651b864114c61175160001b62001956565b62003d297f350259c4c53e93acfa8764c886cdc49432928ad30e989af13718bd7e7371894b60001b62001956565b62003d396000620f42406200a830565b62003d677f46b08dd7a5178743e44cd4bd9e501a3e47366ed9074c9b813cbc4c123aa2d2a760001b62001956565b62003d957fc38d4bab4560a636a7f701378c45106ca730af6aad5238583fd83fe27754c0d660001b62001956565b62003da68b620f424084036200a830565b62003dd47f26bbe91c3666511dde454685b2d7911f1478eae8c0d088fd6ea270398ca1b05060001b62001956565b62003e027fa3222e2887e81616faa7d1f4b66390f89a26799e6dcbc9711f05669f347e733d60001b62001956565b62003e0e818462007f12565b62003e3c7fbed6e5b7fd177068bf724a6d94b4381a7b8d810e6575b00b1c7d039bf90ffcb260001b62001956565b62003e6a7f6403df36d41f7664b87d85c6a3e3d2853a18a5610c8f742614449e444a32473860001b62001956565b8062003e756200597d565b67ffffffffffffffff8111801562003e8c57600080fd5b5060405190808252806020026020018201604052801562003ebc5781602001602082028036833780820191505090505b509550955050505062004177565b62003ef87f2a9a4ad5d6d6065e2e00743caf6f2d77c725dfb07aba95d779f8a3ddc00a434d60001b62001956565b62003f267f9c819c51fca30f96733b6b5f7d23bbb882b29cfbaf0c257f69c5a6ba8168417a60001b62001956565b62003f547fd2128ff526eb7f4e8e98d46547995be8ec2a96e70462ede5c7450792c40cf0e460001b62001956565b62003f6088826200769d565b62003f8e7fa9e811c387cfcc4ac8ca1f85bbf56ab7a1458e198c549df33387d402aed2891660001b62001956565b62003fbc7ffc6224fda0ac17eee2b81d9c2c3e664b677ff4ee7bd79a1787a48e427ac2607160001b62001956565b600060608062003fd28e8e8e8e8e8e8e62007b13565b925092509250620040067ffeb7f6181baeba26ce8ab36569354bfdfd7c45dee391be2e97a3d8bfc23cd18360001b62001956565b620040347fd3218eb21c032381ced0e6ba6015c47596bc04eda2d3d36c80137cc0c1a7646760001b62001956565b620040408c846200a830565b6200406e7f7ec464ec80b7712208fdaf0964f078c059016d2c6bff63f68ac3874456335ded60001b62001956565b6200409c7f62b282177ec2595deed4c64871b211bd44c5c1f0869d0f54c0427d73db6ce44860001b62001956565b620040a8828562007f12565b620040d67fbd723d39fb31de1254080d01b0c825f2352588bc0f808de72e711178b46edcca60001b62001956565b620041047fe0350b175b119ee1617325703bea21497a427a159732163a07e3203df8ed5d9760001b62001956565b62004110818562005edd565b6200413e7f69688238f81725a5f898d7d94a9391581e9e390cce0a6a65aa1df6762684056260001b62001956565b6200416c7f7fd64c23be76fb2bc7ac185a6f8d03021233d611120869557945001c9074caad60001b62001956565b818196509650505050505b5097509795505050505050565b6000620041b47fdfd46a7509d626a3b832453e51ead13b14a60898a4452949dec643c78cdd0ca460001b620013cf565b620041e27fc2917056fa7523817e3b0b1ed74772a82b6e742dde96e1c3ba70b1b5af084ab460001b620013cf565b620042107fb3366275d8155de45f094a54cef582c1d4662f8ad3bdba62e7e1746c561ba49460001b620013cf565b620042ad3384620042a785600160003373ffffffffffffffffffffffffffffffffffffffff1673ffffffffffffffffffffffffffffffffffffffff16815260200190815260200160002060008973ffffffffffffffffffffffffffffffffffffffff1673ffffffffffffffffffffffffffffffffffffffff168152602001908152602001600020546200aa9090919063ffffffff16565b6200494e565b620042db7fa9997bd0eaa435bb070e218e7facfa3f41a854bb8854af040e4265e8421f01c360001b620013cf565b620043097f194dfa8d20c3dbb674102bd468df92b37e9e85ad160a3faeac86d1075aa816dd60001b620013cf565b6001905092915050565b6000620043437f9bef354c91f97e8a27b65509ba2beb201d6cfbbeabc43be3a635677d51e5aad660001b620013cf565b620043717f4fa18cbcff8d89208ec89c2b27d401de2e7ff4301958af59a4a7f3d86b9ff70460001b620013cf565b6200439f7fcc451f69a4dc4b5eec682455c572798781afeac1c0609fd7030999ca362036e960001b620013cf565b600160008473ffffffffffffffffffffffffffffffffffffffff1673ffffffffffffffffffffffffffffffffffffffff16815260200190815260200160002060008373ffffffffffffffffffffffffffffffffffffffff1673ffffffffffffffffffffffffffffffffffffffff16815260200190815260200160002054905092915050565b6060620044547ff2003491cf2de8c8a8aa5922b3746c439989293171ce57ab5fd6f1eca4ff750260001b6200344a565b620044827f22521c30aa2e9de27bd0afddfe161aa8f42266366d905c5557dc37a7f83bc8b260001b6200344a565b620044b07f56633222f60bdf4229dc4335f4ec21ed552ff9636c688bc347aa3191b1b791d060001b6200344a565b620044ba620092c4565b905090565b620044ed7ff99bacf880df8e7b17f821546b3dc04e138a0067b4cf375acb955b5fde24a4b560001b6200abf5565b6200451b7fa2b92ae643152f689b17e4838c1f77b9a07dc6cab922d4ed3413a34be499020260001b6200abf5565b620045497fdd971bdee478c838f4a32666e873637247e6e0748ab1a3f811ff2b948d8aee0960001b6200abf5565b6060620045797ff234278b1ba05c670bfa3a036e75cfef1535aa24f41a09fb219b9427ab82e17760001b6200abf5565b819050620045aa7f8c1e498e11453d5c0e5f454f19962598d679c2cc20826cc568f1c3d970636e8b60001b6200abf5565b620045d87fa1e979627b6f19eed3dc9648ba642491f4e036411d0eb3ebd82f4eb2cb163e3f60001b6200abf5565b620045e3816200abf8565b5050565b620046157fb3c3ab71be1e60ccf374cd9c337f5c94a091891a248ffd88815355718b38f5cf60001b6200abf5565b620046437f23a34501b370f017ac0b72a81570395801e215d15ea760153f3abbf09eb0167360001b6200abf5565b620046717ff006c498284d347b1bc1a6a27ae455ca2c77693be39b0bf5701f8175df7eb3a460001b6200abf5565b6200468081831460676200515c565b5050565b6000620046b47f5f36fb0c028103edf307467f63f0332f966da8f673e1c7ec6aced59d823aae6260001b6200afac565b620046e27f44b88f08c3beb7c1738a70418178f0bd070b94ca34f2d76f0ecc9e722ebab05b60001b6200afac565b620047107f089af7c7f34c896b1969367a1c50582a2d2ac2cc2c5e04246250cb0ba151867260001b6200afac565b60008284019050620047457f258ce8748ca545d5cfac415b21ac328631ad1fd9f61842fc89135db464f24ed760001b6200afac565b620047737f1cc115f28de7ca40c964e4298498543601b967d758e03fb745dda2e2ef4966c660001b6200afac565b620047838482101560006200515c565b620047b17f3fad55df3aa1830266f7765bc1f949767a1cbfd6d2697a8d021c032e32a426bb60001b6200afac565b620047df7f1237371198ec3b9801ff55f45911f80dd6332e4e689796642e2b2e8c75af767160001b6200afac565b8091505092915050565b6000620048197fd3476389c9167915828e1c41fd58b501be617f81bcda7df7905ebaa183b3c4bd60001b6200afaf565b620048477f763e3966e690f5b421dcd041f04b48a1b193ed59a99cfdb60b67ab3dfbf2eab360001b6200afaf565b620048757fd040ddffed94a5c3f1ea2412fc14f14911f62630c664bb38108164ba34c6c5bb60001b6200afaf565b620048858383111560016200515c565b620048b37fc95d13badf35636a18cef429a1cc30fcff497d0f377233d60d91a54b5222bb6b60001b6200afaf565b620048e17f28183ac30fe9ec9460a9d28cb4e04f1c3d89222564c20b044bc81e450ef8cb9760001b6200afaf565b60008284039050620049167f2996cf182068f32853c4842e48ae8391b1959ea375b654bf401398afae3fb9a460001b6200afaf565b620049447ffd16e19fe244cb693efc31c873bf159b238b28cd50bd7fb58b14e97f7b30750760001b6200afaf565b8091505092915050565b6200497c7fc7a1e0755317c73eed4a843031f2ed5b5c2e17a13b1f73d009691ee190faf90e60001b620013cf565b620049aa7f1538e5626f56b8812047d1f2e6e4384d86dd2df0665f323234f6c0f1e131feeb60001b620013cf565b620049d87f11d03a43029703f5d84de54be3dfa1ddc74977a193385b16770c4089fe51840860001b620013cf565b80600160008573ffffffffffffffffffffffffffffffffffffffff1673ffffffffffffffffffffffffffffffffffffffff16815260200190815260200160002060008473ffffffffffffffffffffffffffffffffffffffff1673ffffffffffffffffffffffffffffffffffffffff1681526020019081526020016000208190555062004a877f7aab7e493ff64ebff04f2f5426e9a21c461ac7c528f258e3ba2088c959c1091b60001b620013cf565b62004ab57f063c785473b3e4492705c4e64cea46ebaeb98480c45bb9629a4819c1403a759360001b620013cf565b8173ffffffffffffffffffffffffffffffffffffffff168373ffffffffffffffffffffffffffffffffffffffff167f8c5be1e5ebec7d5bd14f71427d1e84f3dd0314c0f7b2291e5b200ac8c7c3b9258360405162004b14919062017d0d565b60405180910390a3505050565b62004b4f7fee6b13cc663fc83397456b0aa96802fb13538819560f9edb6f8e7b741a72f53860001b6200173b565b62004b7d7f39ab045597dcd2e91680c88e6a16c3be9c35aec35abfd0a983b97db2747a626c60001b6200173b565b62004bab7fa7d629b89f18d2a342559332fb4bb334709674b097663cda4332f13762a4c77560001b6200173b565b600062004bdc6000357fffffffff000000000000000000000000000000000000000000000000000000001662002384565b905062004c0c7f1f27bb1c2197ceb722f7da0d0716224da6e67a5388819b6d33889e0d61317ea460001b6200173b565b62004c3a7f7da4f63bcb1bb19803d5a6d9059f7ad5906710c0ba0b6fe17e28839a722402b160001b6200173b565b62004c5362004c4a82336200afb2565b6101916200515c565b50565b62004c847fc7c5367f9c7e240f3cdcb6923bc045f862ca4a39c752da8b71c5ae1472d73bbe60001b62000bc8565b62004cb27f50d58fdc3abc20e1cb392918770a267ab78e72d605a02d4c4056b501db10a04560001b62000bc8565b62004ce07ff6efbd77e87e2ef28cf5f850cac5b7ad75d84fff9ff5caca222139c78f468e4660001b62000bc8565b801562004d905762004d157fb0f141da337ea2a1d59d1cc8430775c2bf672d5ff29998ac3ba940811e4e0d5d60001b62000bc8565b62004d437f5ad992b766091b4243be03e56fc4538811c13fa8b0e1b27463c7d99314c736bc60001b62000bc8565b62004d717f854ef49914eb0527fc17f31ba5fc3af3040cc31fd84cb17924230ece061e54b960001b62000bc8565b62004d8a62004d7f62004ff8565b42106101936200515c565b62004e34565b62004dbe7ffbbd4f7e556f0535cac9cd0150c9652e7fad42626de7b7dc3776a83d8732f59760001b62000bc8565b62004dec7f7ba1e9f2c217e1d23b4eb7f3ac04caa7bcd691b228ee2fcc3d594ca57be6395a60001b62000bc8565b62004e1a7f599896393482567181121cb835626e2e456628f1bab956b29525539ad0d6759360001b62000bc8565b62004e3362004e28620050aa565b42106101a96200515c565b5b62004e627fbd8ef2821bd1e349a1d65969330f797bbfc76b766c2f8fa530739eb7fa58067160001b62000bc8565b62004e907fe34774678af6ce655031cee2d93babe65cd743cc5b1101ff217573d2a7335b4b60001b62000bc8565b80600660006101000a81548160ff02191690831515021790555062004ed87f3706f6e6399e33e922ec7fc2e0fedd5bda1541494c7c9345dc31ccc1730fedea60001b62000bc8565b62004f067f18f5a22ed7dffa75d0eb20fad03ef1137724c580e4f9c2967fe3c420f96eaee860001b62000bc8565b7f9e3a5e37224532dea67b89face185703738a228a6e8a23dee546960180d3be648160405162004f37919062017ae4565b60405180910390a150565b600062004f727fe3746e81cff91eb3d77d543981cd6cf706f8d76397da183679a4b3dadc9573e960001b62000bc8565b62004fa07fa5f231f807570f144e78643005e399439fc73b5ab16a0241ef6b24ae7bc1f55260001b62000bc8565b62004fce7feac4884d0b5f8c5a57f3de251fec5b8b71daf1aa7f8f19b89e107d0d5163560a60001b62000bc8565b62004fd8620050aa565b42118062004ff35750600660009054906101000a900460ff16155b905090565b6000620050287f7f05abaafac9ed7d954843addd8fdddffb19d3fb16a0eb1b29cde5d60bccefd860001b62000bc8565b620050567f8fbfa5292fa05b965a2a739fb121e9d0379a7b60e58c67077bd84e58c4bd586060001b62000bc8565b620050847f13a8fd0ef51eb9e4725da515e4be7071dfe9a07ee7a31d0913b401970727c27260001b62000bc8565b7f0000000000000000000000000000000000000000000000000000000000000000905090565b6000620050da7fb873c902804ee19693ddfd186de3098d59833aa7da7373ff1801e99a3eea378e60001b62000bc8565b620051087f5bfb346ed3ea17ece69b5bae634d25809cc15f9dbd55df8a316dd45da9ca006660001b62000bc8565b620051367f5b028bd9817cd40d7d4273c5525d5e8bf5660b6155e1cfb1bc5cf297fa2762e960001b62000bc8565b7f0000000000000000000000000000000000000000000000000000000000000000905090565b816200516e576200516d816200b29e565b5b5050565b620051a07f5ac6f10a64ca2ed073f8c7d1a41d5b1e3066960cdb80bc14abab5c4106ce044160001b620013cf565b620051ce7f4e38d37832e7ca16bc928d0c57baa2f427b61e2dcfb104c2c4a45fdb652bd2a260001b620013cf565b620051fc7f14c54e7996f1a08ff173d921219c1fbdcdb237bbd1f0d77917125c7830f1aad660001b620013cf565b60008060008573ffffffffffffffffffffffffffffffffffffffff1673ffffffffffffffffffffffffffffffffffffffff1681526020019081526020016000205490506200526d7fc65264affe36577d4633f05d06f2414663dc6e43e38650f5962683cea93ec45660001b620013cf565b6200529b7fdf673a2fdb849596ad5b04b048c5c7b614b5f960b59e2e208dd4323397a3d1b160001b620013cf565b620052ac828210156101966200515c565b620052da7f8de0f57836be6b79599a8fbc8c81694a349a47c2af26e944e5b142838d4fd02760001b620013cf565b620053087f6e0b8d7cf6d8f4aa1f9d10a2b02659d136797ed269f7ca50154581f09e773c5660001b620013cf565b62005346600073ffffffffffffffffffffffffffffffffffffffff168473ffffffffffffffffffffffffffffffffffffffff1614156101996200515c565b620053747f7bf65776b449d35969ec6baa7829c287a6f5459ac6395d3336c6a405a85b875560001b620013cf565b620053a27f2b8fba28346df9fd635fb5712cc5c9011d81f790844b9e8afdc12cfe82845e6c60001b620013cf565b8181036000808673ffffffffffffffffffffffffffffffffffffffff1673ffffffffffffffffffffffffffffffffffffffff16815260200190815260200160002081905550620054157f53a017da13e1a7f30ffe7fc44baceb74bf49945c828ded6d5f56aaef8e79b58360001b620013cf565b620054437f9f04c2a6477f950e7f3d42ed6ec26ca5de6babe1dd81b3fccd24e73f784547a260001b620013cf565b62005496826000808673ffffffffffffffffffffffffffffffffffffffff1673ffffffffffffffffffffffffffffffffffffffff168152602001908152602001600020546200aa9090919063ffffffff16565b6000808573ffffffffffffffffffffffffffffffffffffffff1673ffffffffffffffffffffffffffffffffffffffff16815260200190815260200160002081905550620055067f270dba37f6288601d065f163c3793db0cde2423da513db1fe7a97c23b105ff0360001b620013cf565b620055347f76d3269e658fa7f71f77875d98619c15bfd26b98707691dca3742308669a244060001b620013cf565b8273ffffffffffffffffffffffffffffffffffffffff168473ffffffffffffffffffffffffffffffffffffffff167fddf252ad1be2c89b69c2b068fc378daa952ba7f163c4a11628f55a4df523b3ef8460405162005593919062017d0d565b60405180910390a350505050565b6000620055d17fe10e7b24bd4523c6da60a51ad3b780e67c771b06d0de1c5eca90c0b854c1105660001b62003447565b620055ff7f037bdbcd32c3bbe29dda7fa2ae2c3305233a2ff28d10859a5c60e42a3f915b5460001b62003447565b6200562d7f4d880a132c55852e5896cc56a0afc9a5e7f67fae895e2ca89305a97497bafdf360001b62003447565b7f00000000000000000000000000000000000000000000000000000000000000007f00000000000000000000000000000000000000000000000000000000000000007f00000000000000000000000000000000000000000000000000000000000000006200569a6200b30e565b30604051602001620056b195949392919062017c05565b60405160208183030381529060405280519060200120905090565b620056fa7f85f6e973e27fefe6b402922e42c696292a75244f5b976f605028fdea4699fdb460001b62000bc8565b620057287fb10f7bd59784e750806ab747485664fe82e7b9614d8271965117987f8299d0fa60001b62000bc8565b620057567fe0d1b3afed10517d38229a198eae9b028645c8411b030a95f9ecdfed78d7f1a760001b62000bc8565b6200576d6200576462004f42565b6101926200515c565b565b6200579d7f15d95f31e3d8f03151acd877860824e2519b31cd2266b6fba4edb44cbdb6c22260001b62001956565b620057cb7f38ad2a21f4d1c04e6cb0f080d5cdd6d3022ddf45c9f377671946cd117d822bd160001b62001956565b620057f97f3e36b14fce78b6bf0464904742fa4c0a6613e679a9a28ebe53dca71fe4e60bf660001b62001956565b6200580e64e8d4a5100082101560cb6200515c565b6200583c7fd60a4f70eb6053527b4b053cd5a77b5bace58afa8e8e75dfd50ef74e4af1c1e160001b62001956565b6200586a7f78b15eda81ed3b086390139801e79321ec47ce9dd0ddddadda5f61ad8f0ee6dc60001b62001956565b6200588267016345785d8a000082111560ca6200515c565b620058b07fe790af49b7039ad5804739366b3f4b00b66d6125a6a7b5dc6e60fb67c69dcf3860001b62001956565b620058de7fc3448cf910456c71319f93b4eed444d0b4b3beb4f18162d29fb0650e19dcb70360001b62001956565b80600781905550620059137f5569b07c075afff8b8336bd4457561ad9d7ac55a0a2be9314e7a0a03656a72a260001b62001956565b620059417fd02170ba3f9e153c416243c66b46d40d5b3d10b1565f5c695620da523ade58c460001b62001956565b7fa9ba3ffe0b6c366b81232caab38605a0699ad5398d6cce76f91ee809e322dafc8160405162005972919062017d0d565b60405180910390a150565b6000620059ad7f52df8d3f777dcd877c77bb7eb407d4d83ca48198a8a3d6fc35557cd451b8da7960001b62001956565b620059db7f669546164dce40e01e2804b3a9eb7730f7e569d7762772d6d80e2bbf6025a5e060001b62001956565b62005a097f1c3f0db1856f89ecdb7e511f0ed70f043bcd4dfb569686be02a3230f8cfc571560001b62001956565b7f0000000000000000000000000000000000000000000000000000000000000000905090565b600060608062005a627f7a902618a96b8f2d75e0bed3feeb5356521995c7c7fdf15097b3e8842ffbbbc360001b6200344a565b62005a907fdab1c128ac414acb7bbc501f5e999d8081ba973ac8b55ff0bef0151d560dc67f60001b6200344a565b62005abe7f5a500289ba7208978d1f01804469747b3a3e96b8c4495a75857b06af6ba19b1360001b6200344a565b606062005aca620092c4565b905062005afa7f1f9d3d1d795eb8bba485b33c2a8ea708988448b22eb04ab17b1ce4ce0573c0cf60001b6200344a565b62005b287f50799af566bdcffbf3c41c725c0e753587cdbb144d164084aca53208eca6d15b60001b6200344a565b62005b3262004f42565b1562005cb45762005b667fe7f3c9e64b6e09c5a1f29f23b65d3aea381690ba62f6e213fca4fcff03facd0d60001b6200344a565b62005b947fabc79f344a28b7952bae4409b0702068b7ad916b5eb871d9eb5c443802eb077260001b6200344a565b62005bc27f94700d679f631296cb177029756225fa6514297f2a79b312071d112b18b773fc60001b6200344a565b600062005bd0828a62009fe9565b905062005c007f66c23344e7a867e9224914ff45233fb3d1718137a842941e19eed16b49a9680360001b6200344a565b62005c2e7fbc1322876589ce4b519cdf5821ac26589f9e99cca6199a2c06ff3c743403cc1c60001b6200344a565b62005c3f8983600854848b6200b3a0565b925062005c6f7fb5623e2c1b6769f26bd11b4c1cccc7d462fd45de275db486080a9f5be1bb01a360001b6200344a565b62005c9d7fb773c8f64c412f7ba1489634f2c2610e3983906a41815b5d79fb1a95aae3842b60001b6200344a565b62005cad89846200b7206200b885565b5062005d93565b62005ce27f942e35018da37294ae3404451a194272a4427f1941aa269c04c3d79d873d62d160001b6200344a565b62005d107f8647729c0ece2603b9d8f5a3e03bda521de21116fba8412e00a9219bc9d9f08c60001b6200344a565b62005d3e7f73005d279f9d754d2802dbf85a421f3a73438721c40805c9dfd9af03952ed83860001b6200344a565b62005d486200597d565b67ffffffffffffffff8111801562005d5f57600080fd5b5060405190808252806020026020018201604052801562005d8f5781602001602082028036833780820191505090505b5091505b62005dc17f4b67cba1835153e34465c70e4df6850ef24ef39bfd3cd5b25f24c19ab36f141f60001b6200344a565b62005def7f3c75bd5a35161f2b0f71f9c54933da94f865ecbef12da3ca4338f491dd4884a860001b6200344a565b62005dfc8882876200b9e2565b809450819550505062005e327f2f298e7211a363d00eaa310f67de9331bcc7c33bf948f18d6c0f50db371aa6fe60001b6200344a565b62005e607f06d8ebe2469a26e84e2b9bb3aab986e9b05e6f547358eec8aa6beba1f128a45260001b6200344a565b62005e6d8884836200bd61565b60088190555062005ea17f3b7f7ace1d50cd938d5623cbb1d586721036bfe0cea85754079a7e7dd0b3fe6f60001b6200344a565b62005ecf7fe3206ff9ca88bf38c444f512deef554cfa160d9db60d3d3e9c719478138fc77a60001b6200344a565b509750975097945050505050565b62005f0b7f08dbde42dfd0ad88c6549b16b2375acc281e9bdd0a5599e45708afb6506c262460001b62001956565b62005f397fa5e550d514e36d3f642e25e71c8a41e9b9171a96a64b72a41be9e6547a6ba75a60001b62001956565b62005f677f590ab00b70532107909c9a0fd15f44cf2aa3b54933fd446c85a01374f1dfe8b160001b62001956565b60005b62005f746200597d565b811015620060315762005faa7f88510d421dde6614b09ee776dca49ab68a1c0fc8f0117a112432bb0686cbcf5760001b62001956565b62005fd87fdbc7277606c0a6ac9d146229a77c6c93ca854ea89d985ca1d0d1e04871c7835960001b62001956565b6200600c83828151811062005fe957fe5b602002602001015183838151811062005ffe57fe5b60200260200101516200be6e565b8382815181106200601957fe5b60200260200101818152505080600101905062005f6a565b505050565b620060647f0f4b02917c3d0a0ebaab97197231e7d8f5070ff04d4d5853be2cc8cc5af8f89c60001b62001956565b620060927f3b1bb8ba04d53823e5be3aaf1aec2e6b6aa7740d20c56adf71792a6e25abebd360001b62001956565b620060c07fa5a85c6163d0ca215bf94310ca620066cb6480392d7937dd265d58f4106d759b60001b62001956565b3073ffffffffffffffffffffffffffffffffffffffff163373ffffffffffffffffffffffffffffffffffffffff1614620062aa57620061227f0150e73d5b9134c917dcd4387816bf3c707fe698f658627d5090182c93b0f49560001b62001956565b620061507f46e60008f80391f656e7816973689f241700606afe699b2ff0df46fc5235866060001b62001956565b6200617e7f6c8aedb441e4d548dc7a91ed1eb928521d3e50f054520501ad067592432652ee60001b62001956565b60003073ffffffffffffffffffffffffffffffffffffffff16600036604051620061aa92919062017a10565b6000604051808303816000865af19150503d8060008114620061e9576040519150601f19603f3d011682016040523d82523d6000602084013e620061ee565b606091505b50509050620062207f19c38837f1dc616600472223d191e6a3549e8373932c61e0737ebce58519dadd60001b62001956565b80600081146200622c57fe5b60046000803e7fffffffff000000000000000000000000000000000000000000000000000000006000511660007f43adbafb00000000000000000000000000000000000000000000000000000000821414156200628d573d6000803e3d6000fd5b6020600460003e604060205260243d03602460403e601c3d016000f35b620062d87f2c079a612babf7a847bd84d70cdd7400d590274d9e89983fda7e89061b7baad060001b62001956565b620063067f6c2533c0e68b1f5c8647a4a53a29424cbf51eaaa56326acf7ac8cefbffbd36ca60001b62001956565b620063347f1c414ddecd5d19123b887c5f54684e8c8c4f0103cf2277188f738eec362c5d4460001b62001956565b60606200634062006977565b9050620063707fc35d16308c758935c32594cf012de7978721c10e781be1b2d609d2249a89a93160001b62001956565b6200639e7f07d3d2ffc0884a402e47a3a8938bd475f659fc7407d848db38739105df3e6bd060001b62001956565b620063aa87826200769d565b620063d87fb210d99982e1172ebdbd82ee3c183093a631f2d55f8eec64cf95cdc541753bc260001b62001956565b620064067f811c750284adba2e9d5b1f8b6433a09318dc3aac238b1deac1f4738921e772f260001b62001956565b600060606200641e8c8c8c8c8c8c8c8c63ffffffff16565b5091509150620064517fba280de9c7b230f2188cebafb124bd74474cdbe6b9ec7d194763d6792b5a65e460001b62001956565b6200647f7f39e9084cfb41ef0c9c23ee855a52a925ac9991e5e22d84924d4c55d1748da7f560001b62001956565b6200648e81848663ffffffff16565b620064bc7f9cd5cedf148b5eaca3222353f2e8a16b1e64f8dceca547d18d0770b75a984def60001b62001956565b6020815102602082038381526343adbafb60208203526004810390506044820181fd5b60006200650f7fc8d6f319fc1e78e2b93903d8d2ffb99089ebaffbad0e0ddf0f13ca20d7f7213060001b6200afaf565b6200653d7fc973b8114f6c35c573de6ab7982d15d6df7383ddf1407b83fa98425285e2b45760001b6200afaf565b6200656b7f45cab69ad4f840bababdba128d4f63075461182eff5102f8263aa61da0d6ae1c60001b6200afaf565b60008284029050620065a07f52c348b58a057296c497129588d62064f502229a926e3d9f777c6e19299a497d60001b6200afaf565b620065ce7fb095e5fe885899d99f77a57d70692a296ae3ffe7ae3c10292b19031a5312ae2a60001b6200afaf565b620065f36000851480620065eb575083858381620065e857fe5b04145b60036200515c565b620066217fa27c0f3d745cfd72daab317c10fb6f90b4e3239f60d65da2359a120c0840904460001b6200afaf565b6200664f7f7b3ed36c13b40c8b52d3edf9a7e4fa9113cc88f18b5eba84fda1716d2c8f5eec60001b6200afaf565b8091505092915050565b6000620066897f5ceb85d70358b3bacd1534074d8476b9815c3aa6da57ff5c4db717cf1398c6b160001b6200afac565b620066b77f6b45de0869fc60f8014f7da0542a0a317c895d5992a32999446b847b215ea03b60001b6200afac565b620066e57f1c80b8e8d78eb73111835007cd5fbce062271945d8ad91c9713a0f5eaea6e75c60001b6200afac565b620066f6600083141560046200515c565b620067247f7dd4f066fd0af9999cf3a3dec7ae7a7af556b87168e1bfb8765875d731bc80f860001b6200afac565b620067527f65201be675c5a31abb3b30b2863f4e84354bbabb212738434818b331218fec8060001b6200afac565b6000831415620067f0576200678a7f04f31c69f813356d0a5ac0c9edb65d06a495176d64b8586c7cafb96d6996746f60001b6200afac565b620067b87fbfbf0353e226ff48ba457fb68f235ebcc9f63baa19022a9039cf1c0942ae0fc760001b6200afac565b620067e67f1609c5c09908c1eb992d9ff1e81fdb2a249516c2470fdff827e65b26dbe7e28560001b6200afac565b6000905062006971565b6200681e7f2be483056be80cb935b63b4745911d2532199c222ec22fe0f78a15bbb8fed09e60001b6200afac565b6200684c7f0270b25143b29a9c983a0408af759a0e9e2893ffb29d7c5caf214b0d971bf96760001b6200afac565b6200687a7fea10c1255e0cdcf9ab2098c493934ce8f4b8547a6b179a287f637c1f536ba66f60001b6200afac565b6000670de0b6b3a764000084029050620068b77f0a6ae6c6038ccda5c0051980bad43ccf17d35f1670e80ae05de0d907db4c1e4660001b6200afac565b620068e57ff192757c260626d3b1e4687cdff30fc5f9d5ad2bb5f508d95f5b59423a52625760001b6200afac565b62006906670de0b6b3a7640000858381620068fc57fe5b041460056200515c565b620069347f1d11f25c6c63a8fb3ebc8bdbf2a3555840e10ffda34811fbbb33bc33243b3dad60001b6200afac565b620069627f5df7b8b2cad4c987f6ba11bd0e6b7c0d29619157bb4a75d59fb0a2547633762060001b6200afac565b8281816200696c57fe5b049150505b92915050565b6060620069a77f64bbf66d31bb8fcafdb0d4c05c587c14d34779f0258bf024715760072a03a64c60001b62001956565b620069d57fa392891145e17abb42bee3e82b3a0d82ad3c913cd8b5bbc103cf852ad2e463f160001b62001956565b62006a037f396563da9e9cf4b746ce108bfbfceb0e3db3e8b63dbed11b2d146081145e2c7760001b62001956565b600062006a0f6200597d565b905062006a3f7f801ec1b2d571a485e07e5e94e7d0faf423943b8bbac8c58b2d7a42524e4d3e2c60001b62001956565b62006a6d7f111e844211333f1bddb2caa4106961a692100ba8d61936af7b0a5d3adbca04cd60001b62001956565b60608167ffffffffffffffff8111801562006a8757600080fd5b5060405190808252806020026020018201604052801562006ab75781602001602082028036833780820191505090505b50905062006ae87f1bdf7cef3dcf27698163dbbf92a97f1e4f59abbb9e50a2a3292d13cb659fc57360001b62001956565b62006b167f7a4b1576ede339435c01c421db11f5796a3a2ff9d8a6cc8022a8967665cd36c760001b62001956565b62006b447fc9fbda078f4c5cbd1a5f98837cae9b30622f4fc0c6a6eeb700d9e73ca64fa16760001b62001956565b600082111562006beb5762006b7c7f0d9d615375d675772bb2d2e823965a9dc482e1cf312819a5d7a8ef983e64e64160001b62001956565b62006baa7f2a95bdf45cbaa84bf403cab0aae72ca7aad0baf29771e0c83e8a847886564b0d60001b62001956565b7f00000000000000000000000000000000000000000000000000000000000000008160008151811062006bd957fe5b60200260200101818152505062006c52565b62006c197fc672011e9008447488f0cb51f1a3000dc8ed99d3c791c00c65b068d56f9f880660001b62001956565b62006c477f032861f547e431e456a586b4aa4624c0a392cb3f1fba0ee2c346a14b33f2dc7160001b62001956565b80925050506200769a565b62006c807f1494dfa1d64c082fe87e7101a7abed5da6470da63c285ec2c9f48da778741bef60001b62001956565b62006cae7fd786de8dc48d9587d292c8089142745a9febbec61c33b50a7aa5a917a584ec7a60001b62001956565b600182111562006d555762006ce67fc65d649bc823d613912161818a82f1bd3ad9a189ed15d835614a261ae0e5222f60001b62001956565b62006d147fae646d66409a1b9082e2dff878a071ace295e057cddaeef0450cfaad5978611d60001b62001956565b7f00000000000000000000000000000000000000000000000000000000000000008160018151811062006d4357fe5b60200260200101818152505062006dbc565b62006d837fa1a468b3ccbb74bf74ab6f608023ca4e9acc824dfc746b02a53962a63518a86360001b62001956565b62006db17fd12b9bf4ac3e5335f11b47a75786974a04fe9531183cc9ab8f879953201d203b60001b62001956565b80925050506200769a565b62006dea7fe2c54cad83d597c1ec566535d5fbc8a855c95302e042a07ac53b1969438b76cd60001b62001956565b62006e187f2abffefbb5aa426829586faab7c3945b86a2af71e75c8d0c33ea198a47d0db3a60001b62001956565b600282111562006ebf5762006e507fb5a39b7168aaf7db482fdfcc1dae7dd09365f71a168c5012ad8e0318ace5b10f60001b62001956565b62006e7e7f58cc755149857cb6cdf2407001712864f9c48faea4037d61b3360bf5b974731660001b62001956565b7f00000000000000000000000000000000000000000000000000000000000000008160028151811062006ead57fe5b60200260200101818152505062006f26565b62006eed7f5c1de41ca34e9de5080c9f418adca907ef53ef2f861703d1dec5f342bc67c68b60001b62001956565b62006f1b7fa2c6b1ff8c8bd442b6fc9b45a6ba002a67007e8998ad5a1add8c91ef3055898e60001b62001956565b80925050506200769a565b62006f547fb2adfff222149fb1f10eb79ab5425611c0de7fafed784cd2c554177b6b03fd7e60001b62001956565b62006f827f9c4a2884d98195fbd1288704b409bcc07beead2cbd0c3aea22f6fece4c1616ec60001b62001956565b6003821115620070295762006fba7f915fc1274c4da77bbd0e0c8b55d285002f7d3da714bed05ca1b7cb626a9abdd960001b62001956565b62006fe87fda0b00ff6f9a02d2b8cab8f16b6ede45d43a6ea54f6e20644c383b4c14c8df5860001b62001956565b7f0000000000000000000000000000000000000000000000000000000000000000816003815181106200701757fe5b60200260200101818152505062007090565b620070577f019f8832fde5d04fa3cea29b93d9d801017fc688589ae1049055fe18c7fdc49160001b62001956565b620070857f1d40924a2f1e001ad0fe7ab839d0a10a330707bf78dd7f35c68541381298046d60001b62001956565b80925050506200769a565b620070be7f75e69d1e5054f490c35ba538cad624fdac97202205d2aa5262a80a46651eaa5c60001b62001956565b620070ec7f4f306ddd440ad5bb7c7510dc1b1138cc28d6a3c0593f994cf20d28eb595a516260001b62001956565b60048211156200719357620071247f4b33379038bf7d9e151e9519b018c8283fe02a9b96478fb9a4418601f3db0ed260001b62001956565b620071527f4c24cc38f70730a6508f0a3cb22f3b3d84595e9d8420a2f25f5bff8d71b04d0360001b62001956565b7f0000000000000000000000000000000000000000000000000000000000000000816004815181106200718157fe5b602002602001018181525050620071fa565b620071c17fe24aa7b8788f2999175803ab0af33d8a6f52a1bc0d35c0309b6beb03aa18a19560001b62001956565b620071ef7f88ebfa8b0e8deccdb84f932ac2f3a2a355a459850b1e413b3e42e53a5e2c673c60001b62001956565b80925050506200769a565b620072287f850d6855b6565407221f800914cf4bf28e4e5416bf07bc6644cee0645cf60a3960001b62001956565b620072567f258272d25fae341d694fbe8c28f95fab586c44312fcd90aeb4b9e1682710792b60001b62001956565b6005821115620072fd576200728e7f89f740081d98d6f1c98e6f403539d3dde78bef1988be3a3afafc1bfe93e14b6060001b62001956565b620072bc7f51aadbfb5c0384baf44b0877e98e1e64f66712444142c211d2115ac13beac70460001b62001956565b7f000000000000000000000000000000000000000000000000000000000000000081600581518110620072eb57fe5b60200260200101818152505062007364565b6200732b7f58c82c2c80a388279368bf259e40112d976f505e30d12afad46bb47375b0e98360001b62001956565b620073597f030a39a85df11845bf366ede72860bd4a3403ae00a9ae50b6372477a2f593b6e60001b62001956565b80925050506200769a565b620073927f9ac1de9528e933851db19eeeb6c70058ef2948b3870493bd4c366d2f7fdec08d60001b62001956565b620073c07fed14a2346f37a94491b51290d6650501c4d4ec4253189ea543b4bc72bd167f1b60001b62001956565b60068211156200746757620073f87f4d2faf55ba9580c423991b77940ead557134aa3eba66997adc756a34e344597660001b62001956565b620074267f64e21e02e6775a3df4ae6b7cd0165fca2708a2903d9dfd77fedaa05f512e1f5160001b62001956565b7f0000000000000000000000000000000000000000000000000000000000000000816006815181106200745557fe5b602002602001018181525050620074ce565b620074957f78a3de33b8d7129735e0e8bcffff0c14e9f0e7da9380b4db609aa1fac01d4dbb60001b62001956565b620074c37f6cb8a74c64f4dec3933d64db61e76922d5676c1d8488ee2fed450444d99dcf0060001b62001956565b80925050506200769a565b620074fc7f297dfae112d533fc9172e11ddef6838c1da8b504dc5001bb197a7fb43f2d6ec760001b62001956565b6200752a7fae3abeeee878dc99ea9b8503136a504ad9933d0dd61f5d9b89b9820f0d22284060001b62001956565b6007821115620075d157620075627fca63da5973b368e6d1e61bf292e0a269ab79fb7c553873ea0b259886aa0c5d8960001b62001956565b620075907fd166ea4476f5d9694fb0ca7b89d908dac6cd6d57982efe26dd56951a8aafadf760001b62001956565b7f000000000000000000000000000000000000000000000000000000000000000081600781518110620075bf57fe5b60200260200101818152505062007638565b620075ff7fe237e4b65b0117a033b94079ef84d5fa54ef77cdb8413e741e5a57f3b5695a9860001b62001956565b6200762d7f0ef7cacc4b169a50819fbdff0c78a95d336a5d9acb3bea258cb9a7fa31fee65a60001b62001956565b80925050506200769a565b620076667f1c4205a95773eb17daa349a466999769c3250c1490ee749938062f82d0c4b66e60001b62001956565b620076947f57dad830d62749af81e778596944d9e6d514b1ab0e2dbdb91970bf820f3899fc60001b62001956565b80925050505b90565b620076cb7f4629bfa227a839800e6251364866c96ba5fd044d8cb53dc9f54a762ddb12d4a460001b62001956565b620076f97f5926da80669851c82fb84d6695b75a8854e1f7e954624510256e211e681430de60001b62001956565b620077277f4baf7c8f1f3fe85d01a8c40265e25ffa6fd717df7ff7b1b85a8d2805a92acbac60001b62001956565b60005b620077346200597d565b811015620077f1576200776a7ff2652356f20ce5d02c75fd7dee200bd00a3bc26799457b974d73656cd73f2abb60001b62001956565b620077987f7d691bc9c9d7485bd33386050d08f8f7fc0da4b6466400506193fef460134f6a60001b62001956565b620077cc838281518110620077a957fe5b6020026020010151838381518110620077be57fe5b6020026020010151620064df565b838281518110620077d957fe5b6020026020010181815250508060010190506200772a565b505050565b620078247fd0cdf1539ece1f2be7de9cf2849560a641f4556089e12e31dc8aefa09458737060001b620013cf565b620078527f135db87213a041ebc173b9a0f910e966f2157b381ba85475a314699ffeeca1b460001b620013cf565b620078807f4f5976616bfbea85925bfd68663569977affa812887b04d8f4e46b052e5bf11860001b620013cf565b60008060008473ffffffffffffffffffffffffffffffffffffffff1673ffffffffffffffffffffffffffffffffffffffff168152602001908152602001600020549050620078f17f3fd29eec05703347dfea36cab0581054301cffc581f1d9c60c785623917052f560001b620013cf565b6200791f7f0a7194531f09dfff115cb817a6b833c5a83cdcc40203a20fae9b3d1c0610d04260001b620013cf565b62007930828210156101966200515c565b6200795e7f9ee20b2f718c833a6b54e36136191ec02117c6649d0f2bf14fff4a16d7fedf9060001b620013cf565b6200798c7fbf960ac6d0861bd34aa85dfee45c8fcd04cfc624e5cda2d2c239b208ca5d5f9d60001b620013cf565b8181036000808573ffffffffffffffffffffffffffffffffffffffff1673ffffffffffffffffffffffffffffffffffffffff16815260200190815260200160002081905550620079ff7fbb42212863e1b96fb69175b1fc3889004148f7b98211105dd90756392eec2f4e60001b620013cf565b62007a2d7f675aad2442070cb6006c3883109cf18220df6f4420ea174d96cbf7353b3f17d360001b620013cf565b62007a4482600254620047e990919063ffffffff16565b60028190555062007a787feb896204d6b8acd7e985eb63222b952b7566f34ad493da2295c659295be1b23760001b620013cf565b62007aa67f13332ea05c8788b77d4cd72067db64819c9a581ad7fc0b8b482e6d8f3a7d2f3e60001b620013cf565b600073ffffffffffffffffffffffffffffffffffffffff168373ffffffffffffffffffffffffffffffffffffffff167fddf252ad1be2c89b69c2b068fc378daa952ba7f163c4a11628f55a4df523b3ef8460405162007b06919062017d0d565b60405180910390a3505050565b600060608062007b467f55b2c706edc1fac40420f6b6ee2c7fb303ddd3f3b2e904e75d52c6bfd88e56fa60001b62000bc8565b62007b747fc498ca4ed44b1ebcfc965c587448a4caa7674ba28574ad44c701d0b18d270cc260001b62000bc8565b62007ba27fc0eb990e8883f9af90f456b244df4424ef0fdb6588346633543bc7fad5d1535e60001b62000bc8565b62007bac620056cc565b62007bda7f44575eacace6313d4ce3cb25629c3a9f23ce0f7905ebb1784022d4cd23e99a9260001b62000bc8565b62007c087f0c63025985ecdbeee139adc751a8766918b33cd50edd7f57da35e5e6792a338d60001b6200344a565b62007c367f545ea839ce5ca3d7648d9feee37f89a5e4808e93476c155cd92eb552ede2d72360001b6200344a565b62007c647f5f9b4579e587b6766e6ea7c77608c5fc75771618aadad41698ac5aaf16c0239a60001b6200344a565b606062007c70620092c4565b905062007ca07f3006e18bf5a5055798ba410e77e6b68bf99749b0d342c9bb11bd15212de9264760001b6200344a565b62007cce7fc8f68bfd02b864873b111987a1189d018a11a32ca6230fbe5c1b27cf5c4e9d1560001b6200344a565b600062007cdc828a62009fe9565b905062007d0c7f70038b2d33db3a65b2be5bef4488ed21aeed128ab6d11327cea5d96fd28bff0c60001b6200344a565b62007d3a7f0c45d3241f45e8e9a2432893b5425c3f7bd92b9308fa632077a781d1f291518060001b6200344a565b606062007d4d8a84600854858c6200b3a0565b905062007d7d7f8b4be863f0a36658ca0e5e5230000876bcdf182795d404c6fc0ffb596a2eedf660001b6200344a565b62007dab7f1d0018f6b50a6f94d1d5f2a5f21b489496fcd9be389f12dd84847f415cf9ebb560001b6200344a565b62007dbb8a826200b7206200b885565b62007de97fcfbe89c6f504735260bf82b6ab7297bab159dbf426cd3ac0c4152e434b6ef7f560001b6200344a565b62007e177f261138e88a6862eda297c9f1a8294ace0c8d6df5e62cfd977a8cfc00f35ccb3f60001b6200344a565b6000606062007e288c868b6200bf7a565b9150915062007e5a7f7614ec69a29530537c229db2fc5c40ea9f9b2c38901b9bb0102489f524e6a77860001b6200344a565b62007e887f3468508e88f29a0fc66d66296b45295503247b74c394c38eeb3a17623da374aa60001b6200344a565b62007e958c82876200c2f7565b60088190555062007ec97f65fa7ef37acefdffe6b24c664a6085544a26bfbc978c7b77d186034afa86b24060001b6200344a565b62007ef77f3d28cdfd2738934ddcbceb5fcf484ff62e5b7d0fe5693b2e262bc5fa92fa967960001b6200344a565b81818497509750975050505050509750975097945050505050565b62007f407fe1d920667056dc064a0ac2ea129295d4ab7f17ffb9825cf7dbabe17dbb788d1c60001b62001956565b62007f6e7f027a7801b45615b51a66cc8c3fd48bed3b7a15112374153b853199a850be113460001b62001956565b62007f9c7f5e3aa24270b512bd4bd9ce35373cf66f7171e5fde19dcb69d4227b25d2ef8cec60001b62001956565b60005b62007fa96200597d565b811015620080665762007fdf7f2ecef83b803cf945c9e89923ab1054b81a3c07a7b0b9affe9e1c694cddbdce9d60001b62001956565b6200800d7f074e7df211bb691b95c7e8327a2f91e0d50184877909e3f04eacd10c7539ae5960001b62001956565b620080418382815181106200801e57fe5b60200260200101518383815181106200803357fe5b60200260200101516200c404565b8382815181106200804e57fe5b60200260200101818152505080600101905062007f9f565b505050565b60006200809b7f82eed513b2b3cebc945667b8847fc6b0013f98f38d066ee9743f9feb18d4609d60001b62001956565b620080c97f5e6a3eca660e2b0e6410346327f55cf7bcacaae641d7326ae5239db59e862c5a60001b62001956565b620080f77f0ea54ea4ec4378df7533c5005f631031b62a46277879d4b30f66cd569c69cef860001b62001956565b7f000000000000000000000000000000000000000000000000000000000000000073ffffffffffffffffffffffffffffffffffffffff168273ffffffffffffffffffffffffffffffffffffffff161415620081d1576200817a7f112031d3fe1546d8adaac2b287ebfad219eeeb54de747710fe452cf63181dd1b60001b62001956565b620081a87f8cbf3c57fe142f45b539ea53dae6a76b4555ccfb9ad0bf6afeb5fdfa6a2b9e2d60001b62001956565b7f0000000000000000000000000000000000000000000000000000000000000000905062008ae3565b620081ff7f4aa9259667a8f56e5a8b9a9d64c109abb2995167c7119720e8f9965b5eb19b6c60001b62001956565b6200822d7fe70d86dcd9fb671511792088ce63b7fe5e732c99602bd451ece42f40c505ad0d60001b62001956565b7f000000000000000000000000000000000000000000000000000000000000000073ffffffffffffffffffffffffffffffffffffffff168273ffffffffffffffffffffffffffffffffffffffff1614156200830757620082b07f775a358550f4553992ee5fb05b878944083a1238a7b62ba0dff1d5506c20f32960001b62001956565b620082de7f05231f0fd83dfae51095a16db4daf49a87bdc05d4e49e5b77fd79c2ee9f495c560001b62001956565b7f0000000000000000000000000000000000000000000000000000000000000000905062008ae3565b620083357f47809554691c7fe9d029f60cc43d4e9b5e3461f860bcb8ed85b826c8f68d8bb360001b62001956565b620083637fba15799ec75b4b12329675cc43701799d93d21427650db5c489175b16514991b60001b62001956565b7f000000000000000000000000000000000000000000000000000000000000000073ffffffffffffffffffffffffffffffffffffffff168273ffffffffffffffffffffffffffffffffffffffff1614156200843d57620083e67f3018e79603a066db16b856a0a8b32fac0fd4934dc1921a9ebe22fb15fbed56ac60001b62001956565b620084147f27d5c7f8a762f157546cde52543bcb477a2ca99c680b0682069abfa87f4b1d2c60001b62001956565b7f0000000000000000000000000000000000000000000000000000000000000000905062008ae3565b6200846b7f80ee127c46c6c16197a3f84c8e97724bda4196784ca87c329eddfe7ebc00f30a60001b62001956565b620084997f214e15a8b8cccd40a09a375fd6a7c5a7554a3ab39d16b8e55afd01b2b202c01160001b62001956565b7f000000000000000000000000000000000000000000000000000000000000000073ffffffffffffffffffffffffffffffffffffffff168273ffffffffffffffffffffffffffffffffffffffff16141562008573576200851c7f975a98b001b0500e3922aad4906aebcc955aa44e60ea24a6dfd5d3715291547660001b62001956565b6200854a7f3d45e77b40d8644631ec67ed146ab3caeb815021cd211171316210dc91af8fb660001b62001956565b7f0000000000000000000000000000000000000000000000000000000000000000905062008ae3565b620085a17f4a73f3ed2bce1d400db86f7954a5c1a1e190273242e291832f15d79fe8e1c20560001b62001956565b620085cf7fc49d9872562d9404b9bd0b09043d212e98d321ce1fae31e93ad263d2fe9f896d60001b62001956565b7f000000000000000000000000000000000000000000000000000000000000000073ffffffffffffffffffffffffffffffffffffffff168273ffffffffffffffffffffffffffffffffffffffff161415620086a957620086527f6e54c05fe5a079414e90a302782981cd6f6143b120b252ffe129ead386a4708e60001b62001956565b620086807f83d100d3c78e48049d5228870cf353919b72786fae50193c86f7ebd40c87f64360001b62001956565b7f0000000000000000000000000000000000000000000000000000000000000000905062008ae3565b620086d77f7f22e13ad3019b60d2d8e6ae236f0b229c83217c43483b1463911f1fae952c6c60001b62001956565b620087057faa968e197f7aa87408e668388c1ff2c3cb6c36111969c9c57286518ac4c9012f60001b62001956565b7f000000000000000000000000000000000000000000000000000000000000000073ffffffffffffffffffffffffffffffffffffffff168273ffffffffffffffffffffffffffffffffffffffff161415620087df57620087887fa712cc9c104e302b6fe9ccee06b6df2ce960339b048bd65ff98b6e6adc4cbaa460001b62001956565b620087b67fe16a9a2f91f684537e36ba39a17c081ca67e178fdbf731b9a990544160c296d960001b62001956565b7f0000000000000000000000000000000000000000000000000000000000000000905062008ae3565b6200880d7f8de6586b107f7503da79e52e431c5a4528afdc8a4e1d8a5970a420f9aacc872060001b62001956565b6200883b7f80dad14a851b04e973a4b54245f2903b142b333384c44fb193cd895c4330d54b60001b62001956565b7f000000000000000000000000000000000000000000000000000000000000000073ffffffffffffffffffffffffffffffffffffffff168273ffffffffffffffffffffffffffffffffffffffff1614156200891557620088be7f8a77374667d72175015878a8e518820eacd17725a288f3b8371d936ca6c25ffa60001b62001956565b620088ec7ff3eaf8f0473197719647a5802a03c02ec4905d9ab1b82786188cca2e48d3a33460001b62001956565b7f0000000000000000000000000000000000000000000000000000000000000000905062008ae3565b620089437fee72a34192b91813dcc66244a66ebde9b3bbd2b6e5bdfdd23872e49ffc33c8be60001b62001956565b620089717f26d3c06c2385e9f8d886acc108e6747ef2902a8cfb2ed2065a12321d05f73e0a60001b62001956565b7f000000000000000000000000000000000000000000000000000000000000000073ffffffffffffffffffffffffffffffffffffffff168273ffffffffffffffffffffffffffffffffffffffff16141562008a4b57620089f47f27acd53e4eab78a2640711f3390e4d0de6ba69f90783af31a5a5ba3e3451c15b60001b62001956565b62008a227f985f1de311536c38ba59d4ef760a70ad6d6667b355349db80adacada05875afa60001b62001956565b7f0000000000000000000000000000000000000000000000000000000000000000905062008ae3565b62008a797f1616b4d36363ca41c8c89105e671ee026db51a2d8d72e0763ff3988c1790648f60001b62001956565b62008aa77f3a9cf188e312ca1ecb287ed7f3737339e6972971b397c9e5027732eb56065a9e60001b62001956565b62008ad57f1ce1acb3607f13e6ea8addfae0b39c0150a903e598adece90cc0e7fc9875b7ea60001b62001956565b62008ae26101356200b29e565b5b919050565b600062008b187fde6bd5634b69da203e3be74e3e52d12c93dbe330259a52853c0a0dffda9fafec60001b62001956565b62008b467fb43d1c1126433339b2ce0e991162e5955e27df70b3ec56e520feff6364300e4b60001b62001956565b62008b747f18e4241c4bc4f315dd7623a8502989a54c44bc930e6ffa24c11273bda9759f4b60001b62001956565b600062008b8d600754846200c63f90919063ffffffff16565b905062008bbd7ff3345530ba50af6e110bf3c33cd014757798bbef6f8e3d1eb77ad95294cbe27460001b62001956565b62008beb7f3aa222d7a73a66637b57ad2090fc7b7d135e76c1ea2418767711ed8ee650fbd760001b62001956565b62008c0081846200b72090919063ffffffff16565b915050919050565b600062008c387ff99f983ffa005eb9fbdb73b3330dc2c4db419113f947191b39b50653817d6b3860001b62001956565b62008c667f0aefacbf402b8495cde634a09aa736a8d46001c7261d8f167fabca68b3099bb560001b62001956565b62008c947f9a29582461ad67f1c288e652ce80948e822e09b0875fac2daf7598a3864d93a060001b62001956565b62008ca08383620064df565b905092915050565b600062008cd87f55b2c706edc1fac40420f6b6ee2c7fb303ddd3f3b2e904e75d52c6bfd88e56fa60001b62000bc8565b62008d067fc498ca4ed44b1ebcfc965c587448a4caa7674ba28574ad44c701d0b18d270cc260001b62000bc8565b62008d347fc0eb990e8883f9af90f456b244df4424ef0fdb6588346633543bc7fad5d1535e60001b62000bc8565b62008d3e620056cc565b62008d6c7f44575eacace6313d4ce3cb25629c3a9f23ce0f7905ebb1784022d4cd23e99a9260001b62000bc8565b62008d9a7f035e4ed9e1f49f7eed22e323ea14de6426c26a3d05c8159a64416697944c998b60001b6200344a565b62008dc87f4b1ac5a2d1881d1ab2441ec549d846da330637b115ee7be487da0faa4f41923a60001b6200344a565b62008df67fcb0fe4ad73c6420ecd1af7b0677752b4b6d309a7425c387f4f693dd13927a94460001b6200344a565b62008e258362008e0a86602001516200c8fb565b8462008e1a88604001516200c8fb565b88606001516200d378565b90509392505050565b600062008e5e7f23511a940767907e7479e5ada21d34917e22b09f9c1b77a3203cf8f8cf042ad060001b62001956565b62008e8c7fb3db533c9428627285acc34d5fa76769148f2c7c0ce744099292f623bc78bd0760001b62001956565b62008eba7fa227560b300e04f1a9d77ee99b51531ff1f79c317ee957d0290409e7624b451460001b62001956565b62008ec683836200be6e565b905092915050565b600062008efe7f55b2c706edc1fac40420f6b6ee2c7fb303ddd3f3b2e904e75d52c6bfd88e56fa60001b62000bc8565b62008f2c7fc498ca4ed44b1ebcfc965c587448a4caa7674ba28574ad44c701d0b18d270cc260001b62000bc8565b62008f5a7fc0eb990e8883f9af90f456b244df4424ef0fdb6588346633543bc7fad5d1535e60001b62000bc8565b62008f64620056cc565b62008f927f44575eacace6313d4ce3cb25629c3a9f23ce0f7905ebb1784022d4cd23e99a9260001b62000bc8565b62008fc07f84056567331a8c8980f58af8c35df52d6ad159f4e0ed83f69f5aae37884cdf1160001b6200344a565b62008fee7fc2ec6cb5d49368d8da83fc7891b53b5557a3de784af49fa42170a1ded908de2a60001b6200344a565b6200901c7f76c341ec9c38140fb2b8a1c02949ee0df54f80cb9209d90e1fc3408dd86edb5160001b6200344a565b6200904b836200903086602001516200c8fb565b846200904088604001516200c8fb565b88606001516200d68f565b90509392505050565b6000620090847f023f2efb49d1bbb9f89d09f18e3691af15d8e42d523a34456b9e4b948c3a87a960001b62001956565b620090b27f25daf747dd3e5dbe6a43737ba49c12710a760d63030379a1f3f8467338163ec660001b62001956565b620090e07ff764b485ad5a556773a7aad916874a60eb51ee47787ef61f3a4a4237df3319ef60001b62001956565b620090ec83836200c404565b905092915050565b6000620091247fedeaf9d74c1273901f141d1c4fbabb9da5f8a988dda40287b2d5fc6af9df52f760001b62001956565b620091527f0fd47a3c530c19e108fa4903175ad479242216c436fcad50d400d0bab09e05b260001b62001956565b620091807f670a0d3c9ade988b33ae122073658575451c348ab11bb105a4538c22aa4baca860001b62001956565b620091a1620091916007546200d9b8565b836200da6f90919063ffffffff16565b9050919050565b6000620091d87f1b29683c6d9dde1673ce697938ab51f6536653808bf6db6eea3597ffe9aa906a60001b62001956565b620092067f38ac9bd4700929cf18cdff60b64fbec3f01130f4dac228d844d0e0448895dd0760001b62001956565b620092347f11110b64f87dba69b04f792a1bec0032310e5696bc91d880f427af3e2d83848e60001b62001956565b6200923e62002695565b73ffffffffffffffffffffffffffffffffffffffff1663aaabadc56040518163ffffffff1660e01b815260040160206040518083038186803b1580156200928457600080fd5b505afa15801562009299573d6000803e3d6000fd5b505050506040513d601f19601f82011682018060405250810190620092bf9190620174ae565b905090565b6060620092f47f68c357cb7730ece7e4d94d60c6dc22c893a838bf8f4ece9854a7205d1e4b83e360001b6200344a565b620093227f092bcf3d3ae148151e689ec5b1e073bb8b739cf2c6ecc381bdb4671605afc44b60001b6200344a565b620093507f744768e7c86e42cf5558663b9acee6e45101dd8d4817dca22f22cd8622eac12b60001b6200344a565b60006200935c6200597d565b90506200938c7f72d0b8141c4aeb93d932f660fd3678ae3805d7cbfb7872b9dbb2ddd94f54e2e960001b6200344a565b620093ba7fc176958365aa0a7488cba387783fc2e9beb85acd3e60485b2597fd146a6d502e60001b6200344a565b60608167ffffffffffffffff81118015620093d457600080fd5b50604051908082528060200260200182016040528015620094045781602001602082028036833780820191505090505b509050620094357f4b225d79481c32214d5b0284aa26b2896e262fc98aa20bffc5e50518f15e0b9360001b6200344a565b620094637fc46b68ce78e9762e1206981af1212dd1b125f9d35b8cd376c5dccd8dc629b9ad60001b6200344a565b620094917f0fe95786e285a054f9ddc201ed768f35fb38053279b5db01b79f2a5541f1be4d60001b6200344a565b60008211156200953857620094c97f0dd2c63319ca590c3be16250c1252a637dbac1e6431d802e8982cc13195288c360001b6200344a565b620094f77f2c8bf83cf43237cd4f12875895141e8cb3c770cc6ff4de74903ecd16b2914c9960001b6200344a565b7f0000000000000000000000000000000000000000000000000000000000000000816000815181106200952657fe5b6020026020010181815250506200959f565b620095667f1450a2c6be9b494d178ad6e81fc61343cd3955a3f90ed836fe7c4b9bdf5e517260001b6200344a565b620095947fcf2d1dd6c1db96082afc00d95d9f5bdbb629add1d1e6be80f6fb378b0f8b356b60001b6200344a565b809250505062009fe6565b620095cd7f3e333e12c6f07b6bb1cf60b9692eab4efae1359f06606cc0a000076abec5a3eb60001b6200344a565b620095fb7f3709955b25f85b7245734d356142095eaf993f0c4f3f133eaf010a7cee39f0dc60001b6200344a565b6001821115620096a257620096337f1883beeb6f4567c2e4c700f47fda7d9fbae71eafe5c6629df9f0495b91bcfcc860001b6200344a565b620096617fe9545c6dfbbd6155c2b4a6aabd0e2fbb2021c2036c5eafc107b9342b3cf21e4860001b6200344a565b7f0000000000000000000000000000000000000000000000000000000000000000816001815181106200969057fe5b60200260200101818152505062009709565b620096d07fa56d49d048caa8b6ef56263165c64c3719d82acdf84f5d5e57e1a43f51ebe61260001b6200344a565b620096fe7f3904c4426286b4652bceb5b2ca83e94199606390499e0da85eff438aa409db0960001b6200344a565b809250505062009fe6565b620097377f7a05b046794a177394b68ac161f7851dc016d6c2636185dde1cc5db43d4b83ca60001b6200344a565b620097657fe52bf53402f20391636e3f78774a667c17a2662f95cbd8bb5bbb854524933f1760001b6200344a565b60028211156200980c576200979d7fb14e26d2b375ee5f4a8988906996fe60befe605b9542dcfdd2e4a01460c551ad60001b6200344a565b620097cb7fe04c995f772cd6af1cf023eb16645160305e7152c5becf087f33a7e12019fc7e60001b6200344a565b7f000000000000000000000000000000000000000000000000000000000000000081600281518110620097fa57fe5b60200260200101818152505062009873565b6200983a7f35435c633aa83a77744e6803f450401df3a8759eac38d4666933e3f39874ceac60001b6200344a565b620098687f2e71b266b81ab10d2fe0cc05cb40ed6e5682b29dad8ed3d6dc2c6c6a74b2fe6a60001b6200344a565b809250505062009fe6565b620098a17fe1af59b0f2c06320db62fcb4c8e0991ba620785aacc6db47a0a85cc8e10ad62f60001b6200344a565b620098cf7fa513e84a34383b3f90a43d1ce6fed08b24d051676fefb57c062d05f9eb531a2860001b6200344a565b60038211156200997657620099077fcca3722f31837d5353c156ca6637ea1cb2b240e694a51e7e1318fc7a3116283160001b6200344a565b620099357f3ea2e79ad54be328e593ef03e7a57dc40565089ddb8da1d6a385671af45b615960001b6200344a565b7f0000000000000000000000000000000000000000000000000000000000000000816003815181106200996457fe5b602002602001018181525050620099dd565b620099a47f8569f7d7dbdf8fa6143625ef7a11f8c05a5ebb52a74e7e2f8c3c54851a3d0db060001b6200344a565b620099d27fa50361404eff87308df116a2a472eafe984b11822a6ff458e6ad13b40b7d66cc60001b6200344a565b809250505062009fe6565b62009a0b7f482ce56293ba0adc918094c4dfb4173c6055aaaa5f4efb7c8742d66d170aadf760001b6200344a565b62009a397fb0f572117f1845e7edde6ba0d6d56b9601d7036baa8b71df334fe81ff38fb59560001b6200344a565b600482111562009ae05762009a717f5e1c6f940debdacee79cd507d1f9759c26137915cfc86a72acf1d5c76fcc7ee460001b6200344a565b62009a9f7fd53bbe636578e88bf29b3d55d32f8399751e28046ab1d734229ea13063fac54e60001b6200344a565b7f00000000000000000000000000000000000000000000000000000000000000008160048151811062009ace57fe5b60200260200101818152505062009b47565b62009b0e7f95ce8ec13436e81ee5254cb1930ae09b3916b5f996e47d982543536fe2a391af60001b6200344a565b62009b3c7f7411345336a502f65b945f6fa5d270b7f8529c118997cec218e3b90e42a53c3f60001b6200344a565b809250505062009fe6565b62009b757f83b34b953a8a9f489480c2e7bb8f9d52f3128e8e97f1e28bb20c3675f379cc5160001b6200344a565b62009ba37fc01055a019509ac6a2847cd2e2eb01c4ca972ba369646967bf52d66ad878c9f860001b6200344a565b600582111562009c4a5762009bdb7f632bf30064d72f8e7996485808effcb168f683c442bf3307da53c07426ec76d460001b6200344a565b62009c097fb90a2e6a33f6e74d4628c449e4425620efc85e911873cb46fd71cf879078f13960001b6200344a565b7f00000000000000000000000000000000000000000000000000000000000000008160058151811062009c3857fe5b60200260200101818152505062009cb1565b62009c787f0f55aba3d3b53037a71f275ba4d0ba868b63409b9e7e5c29e4ff25f990bc7f7c60001b6200344a565b62009ca67f077a96083cf03b573e42f61eeba03e01d80642522c6f97c20286a64befacc3ac60001b6200344a565b809250505062009fe6565b62009cde7e7cddb6860604cee787bcd5475a7bc251c7586cf3ddddac69203a1fd532f5e560001b6200344a565b62009d0c7f1cac92c6b142ce69781e4f144c84515581067a6dcb66276b5211f49a40d1951060001b6200344a565b600682111562009db35762009d447fb4199ceba2a66161709e6989946f94a25418d03df4cfaa117c62b49bda4dec0760001b6200344a565b62009d727f8b729201bf7c724293cebc5fdcf26fb80c04c1a7408777e8c2b13437e019912060001b6200344a565b7f00000000000000000000000000000000000000000000000000000000000000008160068151811062009da157fe5b60200260200101818152505062009e1a565b62009de17fb24e9ec724e28214338c118bc1262f37085c6814b57e567a5281ce6b541d05e460001b6200344a565b62009e0f7f21bd32941f0ee9e1d493a4b55c6c7274e8071a0111f345cb7c1db673a06cfba460001b6200344a565b809250505062009fe6565b62009e487f40680d7dc6545b9a88b853fae5b3f1267e78235a83972a66039450e08eff42c960001b6200344a565b62009e767f2542f4fd1df6047c354b4b3718a75a4da5f9568f9f2aa006dd5f7f268f0fe13260001b6200344a565b600782111562009f1d5762009eae7ffdc4ffdd7f364a005f06d0f5aea6bc463a9d62966ef287ced0bd171a109b2fd760001b6200344a565b62009edc7f2b154ce3954acf8c3584d19aca3ab8d62f992f35eada5c8df2e457cd45fa923a60001b6200344a565b7f00000000000000000000000000000000000000000000000000000000000000008160078151811062009f0b57fe5b60200260200101818152505062009f84565b62009f4b7fd7e47b3aa6b0e50892bbf73df116989f94036cb3f51b5ea8476fd95d4b7b3efe60001b6200344a565b62009f797f0ac89731d9579fe2ceb3192b6b94287ba788e419436ebde8e69f5d586ecf7bf960001b6200344a565b809250505062009fe6565b62009fb27fb3b7c9b572138be3c574fa80d121a80a57654eabd37d232d5e6ec5ab1686c2aa60001b6200344a565b62009fe07f724039080859390d17c50b186a6bea3ace719be254a11d2ba472f66bd8d2d36660001b6200344a565b80925050505b90565b60006200a0197f5afcfbd3a86329a57132ebba814a489a2968487c5addd0edb9659a64317394e960001b62000f2a565b6200a0477ffa92d3164c6d6d787b4808ee06c0ed1c133a0130f936e40ea540a3d23e9ee00b60001b62000f2a565b6200a0757f72d2ad67d4347bdbc8228ee7ce1383fd1d430f52d23cb23ea4d9fc661d59e9eb60001b62000f2a565b670de0b6b3a764000090506200a0ae7f25cdb4df06d4bcc4c8ccf51dd2750db869dd44f6ab61017d4c46703dcbd829ff60001b62000f2a565b6200a0dc7f611441e4d4cebd9e8c39bb8ca150190591e7fb15fafbe2e5cb3bc1d889d895e860001b62000f2a565b60005b83518110156200a1a6576200a1177fddae53bb3a5b83420ff2b17d78a6fb28578bf9106548b937b359db2c210f8af060001b62000f2a565b6200a1457fd384b7f10c7fd367bd292b8fd648d9e89f8d6308876813857fdaf78c4ed6f19d60001b62000f2a565b6200a1966200a1868583815181106200a15a57fe5b60200260200101518584815181106200a16f57fe5b60200260200101516200dd9390919063ffffffff16565b836200e04590919063ffffffff16565b915080806001019150506200a0df565b506200a1d57f794ce20f3221031bb56485e33a53d1b90836486af018b9c7cd8bc36bd5590efc60001b62000f2a565b6200a2037f1a5dc6ee348f65fdee7cebb8a72171a7ec10d5054ca6020153e575673834d88f60001b62000f2a565b6200a214600082116101376200515c565b92915050565b60006200a24a7f4162dfeea5487a2e490df35ab6c4995319cb016658ef6478e632b71af599fcb360001b62003447565b6200a2787f52a922e27af0a55002a9023a873c43cc837d583fe0362e21bdb684f84be2b0ed60001b62003447565b6200a2a67f445bb281dbba1baa57c2b3af376885c1ba274636fe85e7d63faf25499e6f09fb60001b62003447565b6200a2b0620055a1565b826040516020016200a2c492919062017a2b565b604051602081830303815290604052805190602001209050919050565b600060606200a3137f55b2c706edc1fac40420f6b6ee2c7fb303ddd3f3b2e904e75d52c6bfd88e56fa60001b62000bc8565b6200a3417fc498ca4ed44b1ebcfc965c587448a4caa7674ba28574ad44c701d0b18d270cc260001b62000bc8565b6200a36f7fc0eb990e8883f9af90f456b244df4424ef0fdb6588346633543bc7fad5d1535e60001b62000bc8565b6200a379620056cc565b6200a3a77f44575eacace6313d4ce3cb25629c3a9f23ce0f7905ebb1784022d4cd23e99a9260001b62000bc8565b6200a3d57fb3cdc894cd2b713116ca2c56739c15c6e8a15b0f04f2695f0e931bf9e2c8521a60001b6200344a565b6200a4037f93938c6c72636bf93e2ed72c3ef7d48504a8e3a25aa7df99458fa3ac31186f1b60001b6200344a565b6200a4317f547142df525eab9b0efc7e88ef334b8783386835cec1ecae690d26d9020bf8ea60001b6200344a565b60006200a43e846200e1d1565b90506200a46e7f7f3d4a0b21bcc4b9900d7f3bbb86334965bcc0feb9664ec27b0e603f4be8f4c960001b6200344a565b6200a49c7ffaeb442ee2cf255c1611ec5681f4c2a8b6e68c6eeba8eee412782b2baf5cc64360001b6200344a565b6200a4c4600060028111156200a4ae57fe5b8260028111156200a4bb57fe5b1460ce6200515c565b6200a4f27faaaec5c44dd29020ff669caf79e0d34ed821d87636db56780d8af53c41751a1760001b6200344a565b6200a5207f42ea77cd9e4354bf0c93e2ed5500594ef2082a71d0507c2bc7f91c36999f9a5460001b6200344a565b60606200a52d856200e27a565b90506200a55d7f385540381b4574894c13dd67415d739b40e039ee9866106491a1bc3ee908752060001b6200344a565b6200a58b7ff1b5bbe5693d840ee2ba47d0cbb394346a426cf2c438a432c554af812ee3cd3760001b6200344a565b6200a5a16200a5996200597d565b8251620045e7565b6200a5cf7fd8274aa946fe266435df5a9fc491c2814d677c66fc8fd9ecd5e75ffdded5c49460001b6200344a565b6200a5fd7f9a8328258491ff55b9c19a95ebbd9e41a50b39c01b78429ae0f9bb02733cabe560001b6200344a565b6200a612816200a60c62006977565b6200769d565b6200a6407f5a114a758b6d0f488a019be2ac7fc6c15ba7b601eba2fd8493ee8611f439779360001b6200344a565b6200a66e7f6eae55f448c77b90f0bf4e9e8165b43d7d51f01f53319257f54b2e2a4450d0cd60001b6200344a565b60606200a67a620092c4565b90506200a6aa7f088de766ac7a3004e95485cc1e8e4b950e7324e8f7a329dcae6a32175a806ef560001b6200344a565b6200a6d87f3fe5f86d15b99283ab79cce08614479668d106cd9ba2831f715c07b9917a903c60001b6200344a565b60006200a6e6828462009fe9565b90506200a7167f64e75bdc1780bc726808ab60aa32ec58ffd83b42c58e03d9e52981e8318296bf60001b6200344a565b6200a7447f40a5c019fd9eb1fd557a3896578c62ddc5358e49ecc0385fec3e1fd628655a5f60001b6200344a565b60006200a75b826200a7556200597d565b620064df565b90506200a78b7fc0e60c936779cd68407000e5716a5a0b7c167347ea73bf56e5fb40ea2b03a8d160001b6200344a565b6200a7b97fc819288683f9c58002783d98a757b629a8761a755a14e5094992e43d8496f0af60001b6200344a565b816008819055506200a7ee7f7006e2d3f14b2b36e57cd6415e92c45983fdd334381b89a9827037e3811cc3f860001b6200344a565b6200a81c7faaabf33ed4214dfb555ea692c5a59a6866ba635f7616d550cf7e1361ad0b862060001b6200344a565b808496509650505050505094509492505050565b6200a85e7fe1e59a72b6abb196e5705ee38d9bd6c1a29ca10376e2fa3c0e8903f8cdf7949960001b620013cf565b6200a88c7fadcbe213569d514454727a270e9c70952205231cc4abfb6ea68bde4ab6f8767660001b620013cf565b6200a8ba7f15b6e925556b308d3ad1066043cf26b7202f1674d8fc02119a0401f1f8c637e860001b620013cf565b6200a90d816000808573ffffffffffffffffffffffffffffffffffffffff1673ffffffffffffffffffffffffffffffffffffffff168152602001908152602001600020546200aa9090919063ffffffff16565b6000808473ffffffffffffffffffffffffffffffffffffffff1673ffffffffffffffffffffffffffffffffffffffff168152602001908152602001600020819055506200a97d7fd4a2ff87a6d0da870c806cdf81fdac8ec28fbeb80a5082414d54ccfe4b52717460001b620013cf565b6200a9ab7f681dc1796f532e85b0ef7b3f9d671daade57fc56a840eac1e3d1d2ea1f30f08e60001b620013cf565b6200a9c2816002546200aa9090919063ffffffff16565b6002819055506200a9f67f915670e06d3230875eb18467c82d19ee89b9b46317113ae387454d8cf437261860001b620013cf565b6200aa247f068040d6e85f05c180ffbfaab7da32c5a421878520d59c1d49ab8de36152a65f60001b620013cf565b8173ffffffffffffffffffffffffffffffffffffffff16600073ffffffffffffffffffffffffffffffffffffffff167fddf252ad1be2c89b69c2b068fc378daa952ba7f163c4a11628f55a4df523b3ef836040516200aa84919062017d0d565b60405180910390a35050565b60006200aac07f980f096ce2354611f661d545348edfcdbcf347f2d4fa9c9e2bc2234b96619b9160001b6200afaf565b6200aaee7f5203ec7b278d868f845c81d7f208837a954291190f8034ff73f1abf34395aea660001b6200afaf565b6200ab1c7f257b57fe7b6efcf88210c6d37adeac50f6bdc1270dca168497530cb49198dc7060001b6200afaf565b600082840190506200ab517f2712f69a57bae2ee34b696a2281d5fca60f12eef2753ba12e108837883591b0f60001b6200afaf565b6200ab7f7fa9717274421667e304f7b258221f6f83cbc1a3c12db3869b2bd07495ef02a7c060001b6200afaf565b6200ab8f8482101560006200515c565b6200abbd7fbb23a54f86bc4ea5e593a05f1ed17e1f4ec085fd337eb065fd05171873fa78d860001b6200afaf565b6200abeb7f59b5f75a5714feab22828cb70c6ca1fd02547b7956d33b95658dc4dec174169460001b6200afaf565b8091505092915050565b50565b6200ac267ff81347eb68f16450d5e669cebec6ee7a1fa5ac5ea54cd0cdcca39116f645fa5160001b6200abf5565b6200ac547fe2a1376ebe4e4cec489f9744b050322118d55b97aa16438a57ddde1335a14c8f60001b6200abf5565b6200ac827f527bb7a14e0d56ef6331f8d18810dc69d55965123a043ae607b318951a18a68160001b6200abf5565b6002815110156200ad1d576200acbb7f9afca44e5a82aedd5e366b527c36bdc4739ee9ac3bc7d768ec09ebd698c8eef560001b6200abf5565b6200ace97f1c6a4a9803e7aa3220d0727f0908a9b07a4f7495fc3876092cfbe666b353d7cc60001b6200abf5565b6200ad177fef223087e97cb97d037249402a85ea171ac9fea3d63d1de605fd9141125becfa60001b6200abf5565b6200afa9565b6200ad4b7f81e9a490ce557e182511bfc6eaec796f0322309dc5b152b517ee96f2e7523faa60001b6200abf5565b6200ad797ffb4857c6ffcf3a97a276c2d8a5e4a6bc4c22de16aeabff5659e835a97bd18bd560001b6200abf5565b6200ada77f1d803e7d620c2a8dbc6a46d8f8a07bb3206ccaf62422d60ec7bd0c1dc0fc794360001b6200abf5565b6000816000815181106200adb757fe5b602002602001015190506200adef7fba0aafccaa36bdc35e78716c86c21b686b91dac66af6de9e3e64db58f04732e260001b6200abf5565b6200ae1d7f5c1d4f8cccfdd4780c5784c21dcb14d0f579bb0dae794331f0cbb2ff25aa561260001b6200abf5565b6000600190505b82518110156200afa6576200ae5c7f0a21b32c354f4bc66e9d4c10e74a9300712d3fa7e505b38c9e20783887529f3660001b6200abf5565b6200ae8a7f21642a1c91cfe281a527673f1bc34858dc6507709de16fb4a1697722a7ca219760001b6200abf5565b60008382815181106200ae9957fe5b602002602001015190506200aed17fa82b63eab5a33f22c51256249a5d9706a615ca7d35b5fb95eeea2b93ead8c2a760001b6200abf5565b6200aeff7fdd7e1a5a6e71679d2539db9e69626bf9a32f74614762ae4cd7a007979f4cfb4c60001b6200abf5565b6200af3a8173ffffffffffffffffffffffffffffffffffffffff168473ffffffffffffffffffffffffffffffffffffffff161060656200515c565b6200af687fb9b2f9cf36db3000ee06b288a33fd50865404ecb93038917fbab684585d4d4a160001b6200abf5565b6200af967f250b0ef482be923352767281f9a34a6bb54fd53f27f97f94adffc7fea4dd254d60001b6200abf5565b809250508060010190506200ae24565b50505b50565b50565b50565b60006200afe27fb63ff57fff44fad519b51dd9a1628b458ce44dc09407b3781c94536139b9b4ca60001b6200173e565b6200b0107f0f215ac44a96153e6f920fdc8f381567185da65e2862fe68660c1e8d7701587e60001b6200173e565b6200b03e7faa101d66f4b55b14bb1e5546f7d6152e074f3d4bd8f672f5ff001e85fd95fd7860001b6200173e565b73ba1ba1ba1ba1ba1ba1ba1ba1ba1ba1ba1ba1ba1b73ffffffffffffffffffffffffffffffffffffffff166200b073620025e3565b73ffffffffffffffffffffffffffffffffffffffff16141580156200b09f57506200b09e836200e327565b5b156200b16f576200b0d37fd89fb1bac5943510950b517a984e0c3361de9936cc20fbc0c4a72da5127260ce60001b6200173e565b6200b1017fd6b91357bb8efe53ea93d0d0fa18625ef9127c94af5f7413813d720a71eef6b760001b6200173e565b6200b12f7fbb44c612bb203fe0cd4a5094c43d1fa6fbe0852fd53c227de69b8a906595bb2460001b6200173e565b6200b139620025e3565b73ffffffffffffffffffffffffffffffffffffffff163373ffffffffffffffffffffffffffffffffffffffff161490506200b298565b6200b19d7fd833c4463927603cd19d35ee61d9b68a8d2bb9f9b41f3e14672ab3991080546360001b6200173e565b6200b1cb7fe8b0b249a2c9f77dfefb167b170317fe940cbabf6bb0d842292e1770fee4f96660001b6200173e565b6200b1f97f6e946359bc50f9875b9b5dc4ec74e06668518bfc0326104e1cd992e2c37f065e60001b6200173e565b6200b203620091a8565b73ffffffffffffffffffffffffffffffffffffffff16639be2a8848484306040518463ffffffff1660e01b81526004016200b2419392919062017b5b565b60206040518083038186803b1580156200b25a57600080fd5b505afa1580156200b26f573d6000803e3d6000fd5b505050506040513d601f19601f820116820180604052508101906200b29591906201734b565b90505b92915050565b6030600a820601600a820491506030600a830601600a830492506030600a8406018060101b8260081b8401016642414c230000000160c81b7f08c379a000000000000000000000000000000000000000000000000000000000600052602060045260076024528060445260646000fd5b60006200b33e7fd8e2832ef6720767deec69f44ca3c3cd8b861b255a67dda4205578fb7165a1c060001b62003447565b6200b36c7f5df0caf98b88b3eb9f27ec4ab7f0297f4988b55185a2490903332262f13a817960001b62003447565b6200b39a7fb1fe59e6880d8042919f1fb255ef6b982ebb7b8d94358d2dc30eaaa4f095e69860001b62003447565b46905090565b60606200b3d07f47572820a99443b7436a9b34e0192205789b0709d2d890cc3ad655a579d95bbf60001b6200344a565b6200b3fe7f55448204a53905373eb0ceedf8fc478def1a1f898cceb1a0a147d350ec8a3ba960001b6200344a565b6200b42c7f2d5682a6cca1da3edec8d9ebc059631b471a2602cc6cb9ce81f651c15f72fb6a60001b6200344a565b60606200b4386200597d565b67ffffffffffffffff811180156200b44f57600080fd5b506040519080825280602002602001820160405280156200b47f5781602001602082028036833780820191505090505b5090506200b4b07fa629005025915a1d926563b8cef674d6c5f4d0b9cf55eb0b0a9dd17417761b6c60001b6200344a565b6200b4de7f6ec4b31fe1ea99748f9cbcf44d17bb6066e1e7933eb61ac925b78060e3723b1760001b6200344a565b60008314156200b57c576200b5167ffc6de803f70dcc78a28c1765244ececc0b46b8d864c7a1cf80d4deb27072c73460001b6200344a565b6200b5447fa95e663b1d8b9f522fd0609c6d0269262c540f10755bb37672b9fb3c682cd65460001b6200344a565b6200b5727f4fff17a79da21a2f0b9f553424c7db998c1ef001c205c1a63ac69d1f6f6b21c160001b6200344a565b809150506200b717565b6200b5aa7fc136c622f0c1f3b38139a694c53d27d475e4aaddfaacd072e983888ef373d4c360001b6200344a565b6200b5d87f1b1fc82946651a0f3efe4a403f577e4c47d2f663499ae4eabbc28a2692e7650c60001b6200344a565b6200b6067fec312d9b2fe2b9ea2390f23754d009f3d53557b697234e603a5744ce5a83799460001b6200344a565b6200b67d877f0000000000000000000000000000000000000000000000000000000000000000815181106200b63757fe5b6020026020010151877f0000000000000000000000000000000000000000000000000000000000000000815181106200b66c57fe5b60200260200101518787876200e3ce565b817f0000000000000000000000000000000000000000000000000000000000000000815181106200b6aa57fe5b6020026020010181815250506200b6e47f2b66d8565f4b736db96bd0013e34cdeac7e6814859241db39b581bbaa3b8381a60001b6200344a565b6200b7127fc5e3b1fc052d9c8cfd95816ee00c63534ca8cd07194b83fee184a39577a7a7e560001b6200344a565b809150505b95945050505050565b60006200b7507f136ebdc0e8e6c654b5e766ed596f1b15fd48fc1d51bab4c8c7c45de1ee4ad72160001b6200afac565b6200b77e7f114bff1eadb9fe5e00e839002a18300aa1e7fff0b618dc6b69f07aeacb6a9b8460001b6200afac565b6200b7ac7f7da4616aba1f4bc537147c323237f74d59ca849041dafd480533792f0b249c3460001b6200afac565b6200b7bc8383111560016200515c565b6200b7ea7f14e53f9ac176f8345a56cfe7c694fa8ebaae7e4283f826c430e46ed04d387bcd60001b6200afac565b6200b8187f6c57e6eaf4e7a2a0881e9eb3b413418334d4488743dd138c4cc2ee06e58d5da760001b6200afac565b600082840390506200b84d7f7f6d826607619d4af998f19f06e63668e2b4a7b2f21b0950b6d5a8286412c44360001b6200afac565b6200b87b7fecb4e28ed936d30a07b9d6ae22d30338892d72993772c6977c28d7f23d9c7cd860001b6200afac565b8091505092915050565b6200b8b37f5e1fab07f4a7df04b8053798eee0516790a7a9906b38e56ac28e2d76ee95d91e60001b6200344a565b6200b8e17f9260815c4f4226aef3ad632b1fc2019c838fb14587e4e73ed8d906871f91655560001b6200344a565b6200b90f7f4a4286e6c8579a8b01f5e3757801b220f4dc46005cff506b79639d5c4f93979f60001b6200344a565b60005b6200b91c6200597d565b8110156200b9dc576200b9527f728da6312c8fcf7a61ec4e6e5f9ae719d74365ef51a59d1b3c2293506e523af260001b6200344a565b6200b9807fcf2c73ca33a49f015b9fc8a2c6e3785e5f6082841b336cd94490b4025c73e03d60001b6200344a565b6200b9b78482815181106200b99157fe5b60200260200101518483815181106200b9a657fe5b60200260200101518463ffffffff16565b8482815181106200b9c457fe5b6020026020010181815250508060010190506200b912565b50505050565b600060606200ba147f0ce03191514e7e58a82eb4743e7856a11db7984df426f05f2905ebb11ed9499360001b6200344a565b6200ba427fbcfa4ac959d94cfdd43d85f8649e4777e8b285e81280a02849e24c31d163e5b160001b6200344a565b6200ba707fbe3731ae98b12979607083407b323e70982d5d72a78332784d0b5d5a16436e6260001b6200344a565b60006200ba7d846200e7fd565b90506200baad7fd68acef7c328516b15c9659446da5752114c197bb9108953bb01b956bd94e79660001b6200344a565b6200badb7fb7211285d17b1d01ddd59070607bfe0bd613902335b3bea72bb8c015dc91734e60001b6200344a565b600060028111156200bae957fe5b8160028111156200baf657fe5b14156200bb9e576200bb2b7f9fb7dc1eaffe546039b8ade6d6d841b18dba5d990cda4d0e880a6f3d4b9c2aa760001b6200344a565b6200bb587e234b0ad214bd7d8031a6408ecf64265b3a670bea5e2310af67f71e16627c2460001b6200344a565b6200bb867f4ec3400e07a20c03a18e26f14c06f42722e5ac830b8751eaef228fdbacc81adb60001b6200344a565b6200bb938686866200e8a5565b92509250506200bd59565b6200bbcc7fe254ecdb159ab82fc64f0495dcaa1872d4b5c83c0781bf3a38b2e02079045c4660001b6200344a565b6200bbfa7ff125d1fb5429380172b0a4a772c6f8eb570e46a2d0871d0c1858dca22023aa2060001b6200344a565b600160028111156200bc0857fe5b8160028111156200bc1557fe5b14156200bcbd576200bc4a7f3bdb23ded06533351227d42273ceb3761b3835d4a23d795a028836c2d5124f3160001b6200344a565b6200bc787fab7746791c2627a22d1cc7b304034fbebe4a309fe5ce53c47a7b4040704d3f1260001b6200344a565b6200bca67ff7acee3ba6bd4ed379fc8f6914a94d502e7e88931baf677519b218db46d79f4360001b6200344a565b6200bcb286856200ec51565b92509250506200bd59565b6200bcea7ea3537e3473baf7b3a0563d42d11736a801dd552edb5fb5df3e5eabfb91dcab60001b6200344a565b6200bd187f9cfda6c7ece509d6822ea00815dcd99cc0baffe475e4825c0ab21d67f39c27b060001b6200344a565b6200bd467f7a8d2b293d43d4935173c2fdecc2418ed9893327e8406eaa55fad221a06dd78160001b6200344a565b6200bd538686866200edcf565b92509250505b935093915050565b60006200bd917fd4f57c3d2d3c25a6efc844a80d7e989a93c286b6255a655dae35fc33cd781ad960001b6200344a565b6200bdbf7ff35169d51d6818168af4db41c176ca37dbab93825966ba892ca20edadcf903a960001b6200344a565b6200bded7f62bcc88cf13cd2d419b8a7c72d48b80bf5e521573fc57bf25f6ef3b7c6ba036f60001b6200344a565b6200bdfd84846200b7206200b885565b6200be2b7f93e7ff60c581e00677dc637fb461539764f1e38fd9bfb92a93c3524a14190f7060001b6200344a565b6200be597f52f3ce46fe849b6a2b8cb088d91940d487f235d39dd359339ea4ea38ad0edcaf60001b6200344a565b6200be65828562009fe9565b90509392505050565b60006200be9e7ffd101f38d26e6d17af50d38c93b09fafe57fb5eafaf7b7dbd74da76698b8c1b860001b6200afaf565b6200becc7feaf5515690878b5fffc1395c89258754d675be05b18ec31034c61379a0ac309e60001b6200afaf565b6200befa7f494388132ab0669abd84a4cea7d3270705c1e5787b1023b89af997e631df29c260001b6200afaf565b6200bf0b600083141560046200515c565b6200bf397f63043e6e8ac71692ef40fd971a32b5acc860db477c14ce7a3e96c6bda6edf25860001b6200afaf565b6200bf677f255ba90670870639d340d043cc9ae293ea5cfd9c68a6c4acc63601d708b0b5ff60001b6200afaf565b8183816200bf7157fe5b04905092915050565b600060606200bfac7f655882a597132c0fe439613edf2d0410d0bb28f8b022f92797ba52a2130222f160001b6200344a565b6200bfda7f11d7264e4a2364b1c71f6d6b289680a2c413bf98f06bcb760fd4f760249f63f660001b6200344a565b6200c0087f27f6ad2b6f64191e8c64e6e2fe5a3899a80f1a2a3228ad76d62875d831bcd05460001b6200344a565b60006200c015846200e1d1565b90506200c0457f8eb55017d13608d8c650ad80eddd385cab02f4148a7ec54551afe7787f55b96460001b6200344a565b6200c0737f24825178b581f215664de1e94142ded9786368fa88f04607e6e6dbbf25796b4a60001b6200344a565b600160028111156200c08157fe5b8160028111156200c08e57fe5b14156200c137576200c0c37f57ef1ab7bee21576da37988b8a891d504bd5dc6f164be54367ad04a0c5fe08b660001b6200344a565b6200c0f17ff32cee2f2260a6402153ac92fa259590f3cd6013a6037c4b858bfd4da2a74a3560001b6200344a565b6200c11f7faefda315e9c841f1ea7031353b3c8e4dc8f24b32553d725018524c485b5843a760001b6200344a565b6200c12c8686866200f168565b92509250506200c2ef565b6200c1657fb8f057f3034919ee70847bc57a897822a94bceaf877168cd460ec735ee74c37e60001b6200344a565b6200c1937f053eb27160036448afd2c3c75b3da2650ca6724228939a4b57711455f87c65a760001b6200344a565b6002808111156200c1a057fe5b8160028111156200c1ad57fe5b14156200c256576200c1e27f4d49966b43b4cfd4b7dc94f34931b4231d986e2fda23a41179ee2629a554365c60001b6200344a565b6200c2107f712675176d10d8a7cec8f0949dec727bcee9bd67003be016c8be54104c2483df60001b6200344a565b6200c23e7f16b564160eb59a4cc2846fcfadf2fb0cf51127c9d6fc68d1ebe7f16a82c06db760001b6200344a565b6200c24b8686866200f43e565b92509250506200c2ef565b6200c2847fa672c4081731caf3269e3cf7cdc767cde5a4f1c0b563816e417833f127681c3760001b6200344a565b6200c2b27fec9bc7233b2f287f88006f5180b62b188551c2f38a73cd84b87add17197925d360001b6200344a565b6200c2e07f98a013364e6f228399dad0c5f6ba65c10435c62a24e0e84409abf0426ed91dd460001b6200344a565b6200c2ed6101366200b29e565b505b935093915050565b60006200c3277f8ccd8a2fdf5643a883072d46d14576594c03d700ccdefbc2a2f64eefebdc85e860001b6200344a565b6200c3557f6a4af15af93f1894245a9c47cc2f777b9403cd8a3f6fe6373eea99ac94e350f060001b6200344a565b6200c3837fe11db1c0e0bef287062f2cde352595d3c55ff9f40aed81e7cf53d125f5375a4e60001b6200344a565b6200c3938484620046846200b885565b6200c3c17fa2211f2f4d5f736a67f464e00547d0f504a602768656df21d1512cb72e2dcfa760001b6200344a565b6200c3ef7fb5f0179707b1675d6af59d3e087d3c41e0a98b2aa6a52912861def1eb1e8c32c60001b6200344a565b6200c3fb828562009fe9565b90509392505050565b60006200c4347f076c732c2f1eda98894f613fd10f682bdc8e068bcf3b2f48f7c8167b0b0b606260001b6200afaf565b6200c4627fb6c32c9a49d25416885d16929db85d1cf74eb1a3b112515a238c04c95689955960001b6200afaf565b6200c4907f4d56b22f880357877429838ec70b7deeff30a2b8d688ce52791af9e06afa2c5a60001b6200afaf565b6200c4a1600083141560046200515c565b6200c4cf7f63e4c3f0bb34e74d194bb0f9574176dbde0e4aa394857f5d6cb6a5843ed7b22760001b6200afaf565b6200c4fd7fe608d21afd9a338fdae4d19312051b4c461f88cc2666362df73c65122fc92f6860001b6200afaf565b60008314156200c59b576200c5357fd85d64cd3a471737b81f667473d406153692320e4cd8b650bda662ad54a1995460001b6200afaf565b6200c5637f10d7fdc1aca673c59e29a60f16eedb92062c190e054b4d7f2c9a39e6794bd47560001b6200afaf565b6200c5917fb21a42b5f35e6fbd0da8c8a8f2d4191258104470944ffa31fef6da01eb22115660001b6200afaf565b600090506200c639565b6200c5c97f5d69f547a910d75a19f4cf840a90f6035bf85b5941d283637fe2373b27865e8c60001b6200afaf565b6200c5f77f8a80c9e10f686134576e1bb9da8e1542dd95fcac9b1692ec0d347c60a518ee0860001b6200afaf565b6200c6257f360983f0e904f85b49211d9b225373f212327acab997a7d89b518d2a753e9e5b60001b6200afaf565b8160018403816200c63257fe5b0460010190505b92915050565b60006200c66f7f0e379b560dd176564a5881533a4c5cc19aa1cc7aa8faf76190b57cc828976c9b60001b6200afac565b6200c69d7f49d3279522a2d539b8f6450b55bfcf22258bd9c72b153ac7bfc97b8154263c9d60001b6200afac565b6200c6cb7fd5842d537ca76be62dab0981f1adf06ef8b0c1d3d07c5c5fccc5f64e322b6a0f60001b6200afac565b600082840290506200c7007f700f29679531b8a645e8ab26d0250167049ab4bb7c67fccfcf4189def020930760001b6200afac565b6200c72e7f85ee3aa337267c4ef6af3c1740f5103ae02d953ce58bd465e6f4f46762c273f060001b6200afac565b6200c75360008514806200c74b5750838583816200c74857fe5b04145b60036200515c565b6200c7817f5c252fff100b72de4ae3a3189d6e38224dea20d11b533167dfd1daf017c5df5f60001b6200afac565b6200c7af7f7a3609fb2bb484a1f0db93870f5b059b577a0a4fcaede309b231adb45a70056260001b6200afac565b60008114156200c84e576200c7e77fabfd1788429d8fd6729b4327e1f4244c545ab508b775a5d75e4ea123a58ac5d860001b6200afac565b6200c8157ffcaa1bbaa38aa4160df1140967b159d44023995232ff45e635b0b13920d04d6b60001b6200afac565b6200c8437fdb7b1211aa3c4c707d8158063fcc1a98008bcd7125192b75674190966ccffc4160001b6200afac565b60009150506200c8f5565b6200c87c7fe5b1e0552e71aff9f91da98dca666a710532a0d6c20e09343da7975a6b13bf7160001b6200afac565b6200c8aa7f3964c1cbaac90899caf28429727671ca1384f81cd7e6c5f3984d8c0c0ba0f1ba60001b6200afac565b6200c8d87fe5c9d6cbe924ecab73cee431c799e5360b936d3caa09c48d311f4f973dea101660001b6200afac565b6001670de0b6b3a764000060018303816200c8ef57fe5b04019150505b92915050565b60006200c92b7f224aad585e9df55b7cd7fe863cc0297a686a2b99ae340ec3772d7a55ca6f7b3c60001b6200344a565b6200c9597f1fb87e058a9c41acc225084532fa2fafc313acc35c1035051050d40bdbb087c760001b6200344a565b6200c9877ffec54b3cfd93eef4913ad04d655c06b9b5dfa58ead9395e5e19106d304e12f7960001b6200344a565b7f000000000000000000000000000000000000000000000000000000000000000073ffffffffffffffffffffffffffffffffffffffff168273ffffffffffffffffffffffffffffffffffffffff1614156200ca61576200ca0a7f6ed44066d2606689e3f46c9b4d38cdd4ba97822101ef0719a73f4653a95f30e260001b6200344a565b6200ca387fe89598c106e20441a4f3072906def337a8c661e3eae6b907bb8f34a6a14c19e760001b6200344a565b7f000000000000000000000000000000000000000000000000000000000000000090506200d373565b6200ca8f7f40ff983f2c45f3895dc43f00c04d1177efbcc23de3d59970b0b044717932699960001b6200344a565b6200cabd7f4205f1975e0b6e4a7c99ce5c953befbc144bdb9d2968285ce56be24232cf62d760001b6200344a565b7f000000000000000000000000000000000000000000000000000000000000000073ffffffffffffffffffffffffffffffffffffffff168273ffffffffffffffffffffffffffffffffffffffff1614156200cb97576200cb407f856edaf046b8eb25c814bbe2ec9d58c37d08e0ff32d6bfcde8d60eee9699117760001b6200344a565b6200cb6e7fe559bda93435b8e3cce56b1119a199acdbd1e60c3c9cf14b45743c593bf352c560001b6200344a565b7f000000000000000000000000000000000000000000000000000000000000000090506200d373565b6200cbc57f73137e39a51dcc0d6d9a985a829bcec0b87ba28315222b4921dbb70711cc157760001b6200344a565b6200cbf37f6a665a2cce21d0f16503dd8c56ab4759b9a662b92181a9f2fce3e5554a71225e60001b6200344a565b7f000000000000000000000000000000000000000000000000000000000000000073ffffffffffffffffffffffffffffffffffffffff168273ffffffffffffffffffffffffffffffffffffffff1614156200cccd576200cc767fd115306ffac50634c1bed8ed47aca0057a54feff47c64301ab372ecddfefd9eb60001b6200344a565b6200cca47f60f68210398bfba164621442b606f2757469a5fc8c3da27dd2ed63373134e38660001b6200344a565b7f000000000000000000000000000000000000000000000000000000000000000090506200d373565b6200ccfb7f5498dfbc851c6d7b0a93fba110b6e1e7794f765a8bedf2e5b5904d26ac14984660001b6200344a565b6200cd297f2cb69261403049ff27151b646f12e9de519e33266f8a724465794d37aa15d72760001b6200344a565b7f000000000000000000000000000000000000000000000000000000000000000073ffffffffffffffffffffffffffffffffffffffff168273ffffffffffffffffffffffffffffffffffffffff1614156200ce03576200cdac7f5c9b7c36fb707251b1855152ed76d8cc8e9dd17a2273e8ec5f9b623a1f3cc67860001b6200344a565b6200cdda7f7cf5664f117517dd56f0c54081b5b6f71caeb2e03d6f58ab738bc130a5e6a0bb60001b6200344a565b7f000000000000000000000000000000000000000000000000000000000000000090506200d373565b6200ce317fd6263b429c312398b28abf03bae12e7441cccebe4737f5d01fbfa2b240ebaf8860001b6200344a565b6200ce5f7f4aaa5eb63e82cfd908fdee34dd09193bf1f207873795a822abc53d08a26a19e960001b6200344a565b7f000000000000000000000000000000000000000000000000000000000000000073ffffffffffffffffffffffffffffffffffffffff168273ffffffffffffffffffffffffffffffffffffffff1614156200cf39576200cee27fa976bc603a4e90e299d60715000fd05da935d3f89b29450934bc3afe6fb991b560001b6200344a565b6200cf107f9d3fb8f37cc0242c294eaef38af8c2895bb5d25c5ffef9fe7a76a9248f56d43460001b6200344a565b7f000000000000000000000000000000000000000000000000000000000000000090506200d373565b6200cf677fb100cb252cd6abd9c8a689f06026b8b7008a28f6bf727f897defc1e349b01b0360001b6200344a565b6200cf957fea426e5d2c0e8ce1ac035a9f10a09d85b85fabf905e975aa8ee67bc07f33cd3760001b6200344a565b7f000000000000000000000000000000000000000000000000000000000000000073ffffffffffffffffffffffffffffffffffffffff168273ffffffffffffffffffffffffffffffffffffffff1614156200d06f576200d0187f876daa18943ff8977aa3ce101701173690b1dfbb7ba89e1d8fb9114dbe7aa2c160001b6200344a565b6200d0467f4cfa487294232d66a6e8c93e87685b463ebad20a5049ffcd126374a5a4c317d860001b6200344a565b7f000000000000000000000000000000000000000000000000000000000000000090506200d373565b6200d09d7f26073e8b72f5f23955f79dacef70ba687a8a30282cb896efc6f738b82927a77460001b6200344a565b6200d0cb7f9a15d94f371d581bf3c81270d3bd5000f80c625d2cc0a42a8efaf27e362163c060001b6200344a565b7f000000000000000000000000000000000000000000000000000000000000000073ffffffffffffffffffffffffffffffffffffffff168273ffffffffffffffffffffffffffffffffffffffff1614156200d1a5576200d14e7f66ad4a55161e97f815b707cbf4f6c7099902c3f3d95b7f4ac0648a90264c468c60001b6200344a565b6200d17c7ff3bc98d58fbc6eb662ce1953bea88e33c790584a1b0fea07ebe214906f6f3dfe60001b6200344a565b7f000000000000000000000000000000000000000000000000000000000000000090506200d373565b6200d1d37f9cd5f3171871ab902a13441d8e8c60256e63d93e736c97ffd665f1af5ad40cfd60001b6200344a565b6200d2017fd567b82246c329681347745eb59d8c19ae7f57096662c48a3f538948eb54e1cf60001b6200344a565b7f000000000000000000000000000000000000000000000000000000000000000073ffffffffffffffffffffffffffffffffffffffff168273ffffffffffffffffffffffffffffffffffffffff1614156200d2db576200d2847f6637bb39a6acd6ea4c23db488196dec25ccf1065d4ea58583291d94ad589d6a760001b6200344a565b6200d2b27f860f785f4896b9690ad1a9748d26e928ba16c3c01e68a763de9c44f7c21f2b3460001b6200344a565b7f000000000000000000000000000000000000000000000000000000000000000090506200d373565b6200d3097fb69064a0614a366de759095f9530491a8553c059b6e91ce826b45031c350897e60001b6200344a565b6200d3377fad629dc5d11b571961c79c0b94ac3efc289b504c58c84a6f1519289c4e88748c60001b6200344a565b6200d3657fa9bb9020952c30877b718acb0b2a5df87e179e6174989b866fde43756a4da11860001b6200344a565b6200d3726101356200b29e565b5b919050565b60006200d3a87f0a2ed1a2361d16a862a63a626d7dc7e55f0446c071324f37e80447464a4e25cc60001b62000f2a565b6200d3d67fd2479fbf1606172f22490b4666c53b3ceb19fdb1b24472434a971c24b8e8e6f160001b62000f2a565b6200d4047f47ab4680f6868e4002634dbd92323fb71b52d134ac3c82463a8480c6ea4a6ac660001b62000f2a565b6200d4316200d425670429d069189e0000886200e04590919063ffffffff16565b8311156101306200515c565b6200d45f7fbce97497aa7c3483551ecf2fc1ecbad1dba7debd194e9cc9d024e79aeaf33ea160001b62000f2a565b6200d48d7f8282783ca711b4405930875d459503398f9400588220f956494bae619ed2b81c60001b62000f2a565b60006200d4a483886200468490919063ffffffff16565b90506200d4d47f0692faf120503ed39b32f5c67b3bc57b1d006a00bced044aa29225f22b1c053f60001b62000f2a565b6200d5027fc19247db98198518820599fa9f7de479d6bcc990a069ab437e02ffdbe0cc2db660001b62000f2a565b60006200d51982896200da6f90919063ffffffff16565b90506200d5497fdb0b3a840ed7c859a892bcdc589c2190a4a997dfc5c1980d8ae0bc54b9c4691860001b62000f2a565b6200d5777f8928156402a329a37d421ffcff0408077521d9d9b7346e2bd7d415e7c0cc7b6d60001b62000f2a565b60006200d58e86896200665990919063ffffffff16565b90506200d5be7ffd8b549d674a3b31bfb12c555a2fe2f9f4b15d24b7e5fd0f2b1ec29e5a69d8f460001b62000f2a565b6200d5ec7fa8838aae9cadc4bcd3de2f0ba5679a9537fe5a26b8bc7883039cfb6a4aa5a3dc60001b62000f2a565b60006200d60382846200f72890919063ffffffff16565b90506200d6337ff800f0759b22ca1e6c90389073cc41f23c7f77b6d349dd7d5c72f846b732c51960001b62000f2a565b6200d6617f0ff18007c9f00023e8dfcf20ce553e1ff423bf113211a09c067018dfc735861b60001b62000f2a565b6200d6806200d670826200d9b8565b896200e04590919063ffffffff16565b94505050505095945050505050565b60006200d6bf7f81dbd76626b957ae19f1bff9bd8efeec356405c9ae70cefe3192e4069227467960001b62000f2a565b6200d6ed7f2042c192b17330d2c59d83567216f1fe26ce803983c0854e07556c8d8ffaea7b60001b62000f2a565b6200d71b7fd5dec36529c7404477a87dd7d0c10185b5d753525414c59fcb13d16d55c54d7060001b62000f2a565b6200d7486200d73c670429d069189e0000866200e04590919063ffffffff16565b8311156101316200515c565b6200d7767f17d01d28436cb6919304a4495e77ab61aa8e57d9626b4d3c8c6b8e5bb852a53f60001b62000f2a565b6200d7a47f879c27d6c6f9f7e4f7a30d528d12e1def99cf715499c52725a8a659b0bc22dac60001b62000f2a565b60006200d7cf6200d7bf84876200b72090919063ffffffff16565b866200da6f90919063ffffffff16565b90506200d7ff7fe6f8df8112e442c42aa765a0427fab65bb2ce5df655801a336c7f8d8af0d1ae660001b62000f2a565b6200d82d7f3f60dcbc9f64e457881424170e039a09f9b5ded3f6513a4534643b70374e16e360001b62000f2a565b60006200d84487866200da6f90919063ffffffff16565b90506200d8747f88e6a53131f660c3eea3f8ed452202b73297057465aca75251efff616bdfd0b760001b62000f2a565b6200d8a27f37d32a877b993e1afd1921ea174d3a4e5993b021227265de8471ab1b1c7735f960001b62000f2a565b60006200d8b982846200f72890919063ffffffff16565b90506200d8e97f97913403cad13692312cabd841666858794db0e32cf7ebf4f814a13454a55f0f60001b62000f2a565b6200d9177fd1229f4dd8b8f1e09c825933268a723f8e2bbac4c96036deaa5eb38de526f45c60001b62000f2a565b60006200d936670de0b6b3a7640000836200b72090919063ffffffff16565b90506200d9667f54b64675c25b39af762b7e390199fb79bb22545b84ecb13cecb00a6fa0dc2d8c60001b62000f2a565b6200d9947f0d1b2ba77c8ea30c90c1d118a4c8b95002df13c619863ac7f062deb7e0ae799e60001b62000f2a565b6200d9a9818b6200c63f90919063ffffffff16565b94505050505095945050505050565b60006200d9e87f094a9d23f7d8cd7e1416152f4f9ab5639b7253358bede5a7c2bfa398f9e6cf7c60001b6200afac565b6200da167f53bd07368499383bd7016e1180aecfc75dba7953a1c6ca4d15fb935506f497e860001b6200afac565b6200da447f7e4ed03da9a10291c37c924ec962ffcba2777b2536f9cfe394e0320cf20486b360001b6200afac565b670de0b6b3a764000082106200da5c5760006200da68565b81670de0b6b3a7640000035b9050919050565b60006200da9f7f0b82bd6e55031056eb502479287614825386e546f233b0c840d3add6e328c33360001b6200afac565b6200dacd7fc29f725438dde8a8e35a83c255914da88eb1af6a0b0254a2ee71a12cee7a182060001b6200afac565b6200dafb7f867b25ee062e1c15d81f5eb600408b615a5c4755d21132cbdec196c0e0f6bfcd60001b6200afac565b6200db0c600083141560046200515c565b6200db3a7f505ea7ae5aedc93e2b84b1d7f3ea169b72041ba472727f5062597f0faa7a511760001b6200afac565b6200db687f25c8d3148f938498be8d6158605bacdced13ec3c2c723c563728402175f155e160001b6200afac565b60008314156200dc06576200dba07f6a9f973848d0e1bf3ca33878057df62131a9343ce33b83d2d55b5cc74756b08d60001b6200afac565b6200dbce7ff4c0037cff5823363d8dd200bb93676448d4def45fea7d550abab49926b7d3e360001b6200afac565b6200dbfc7f891ef57f2cf1ca4bc1e2deadd5fdb7d9886e992eab3e894651a0c6327ddac8cd60001b6200afac565b600090506200dd8d565b6200dc347f067b1c6f891f851b3004c206fe7ed1f1ea776fa53af3a2f30bbaf811de2c57a960001b6200afac565b6200dc627f39332f0aeb86b539dc005963041118b0404b93ee8fa3f8cc0ae706d72b9019f660001b6200afac565b6200dc907f0cd05effb3643090820c5853634e935de87e3f1a53038fd2130ebd813ad9f47760001b6200afac565b6000670de0b6b3a7640000840290506200dccd7f0d8a293203cc6c75a3dc156d90cd71301c5afa4b710cd938ef7c286d2e887e3860001b6200afac565b6200dcfb7f0c5ce5144a4bb8fcb212fcced6a383ac3e93a9d9c8baf587edc678bd970ce69760001b6200afac565b6200dd1c670de0b6b3a76400008583816200dd1257fe5b041460056200515c565b6200dd4a7f6adce84f1f10ed0715f5b03d1f2970c52b81756593de1c708e3f01ceafc7eb8f60001b6200afac565b6200dd787fd5bd32250369fb1bbf7ee21675e04e16fe702a3597d374429af1a9b966baf53260001b6200afac565b60018360018303816200dd8757fe5b04019150505b92915050565b60006200ddc37f72c19de3bd7f3c19931c96b91f993a5214741c9464ddeae9e6c9ad88aa15801c60001b6200afac565b6200ddf17f1bbd44fecdd08328705f5a8c9da101469952d5fcbfb661df3ae26dc5773ea03860001b6200afac565b6200de1f7f4eda033a298c9a93dc9d334de09877f56a24759c1a2d9634ca6223dcd8925fc860001b6200afac565b60006200de2d84846200f8b0565b90506200de5d7f0187b80303fadc878d242d36faed074163396a90a7f847289b4c826a9bc52d0160001b6200afac565b6200de8b7f86062b9a7d9c7bf388c59bc4ce028394354e2dc765d24fa65959d70f5a7699a060001b6200afac565b60006200dea76200de9f836127106200c63f565b600162004684565b90506200ded77fd0f340666a6e9372b457a8b7dd483baf60db93b57e11661fbdd1732d5da1411560001b6200afac565b6200df057f96a42eec81f156474500a182e237fce359dbb271fea5c4a661b953602103c3ed60001b6200afac565b808210156200dfa4576200df3c7f54ea40e744802516ce9076bb2494dd8a49ae42285612969958d9eefad2ff147560001b6200afac565b6200df6a7f9cd914a3aa737b153ac896c2409660f6602f300627d515618c480e5083abee2c60001b6200afac565b6200df987f71a5cecead4d0152ea0304a3c773b99fa24bf365cc1fd13de93ce5b059f3683a60001b6200afac565b6000925050506200e03f565b6200dfd27f889f4032bc922cf0ce5096f29a32fd51a9a45fd78446ad9ec0ea3e12dc79de4d60001b6200afac565b6200e0007f73e5d3a758b4bf678927daed1ba1d5d62d96b107a3fe938199583de513a1eb9360001b6200afac565b6200e02e7f81546aced3cb747044329efec7877c2d1213020f2f4200064b531b0b93e4fb6660001b6200afac565b6200e03a82826200b720565b925050505b92915050565b60006200e0757f6a56e6b9382441f5a45bc35a43826c64209849d281de5ea652d97114d3fdd00060001b6200afac565b6200e0a37f832e186a9dec832c15d05f077f0a95bb8c8a30f33174b1b74cad094def38313a60001b6200afac565b6200e0d17f1d7ac9a6923837cb729d2a9f327d6b28bb868258b6639379ad9b804ddbf149b960001b6200afac565b600082840290506200e1067f20b7636ac61a045be0786996288e3e2b0851467b3df87ea384032be131612f7460001b6200afac565b6200e1347fec8cc3cb5297dbadb0d69bb41ea6b39978fd82ee0c9e2ddcb3663f06f85f6e5a60001b6200afac565b6200e15960008514806200e1515750838583816200e14e57fe5b04145b60036200515c565b6200e1877feef689e5d622a32553062ffc4fe64fcc96483927ecea9c38947b4717464b23ee60001b6200afac565b6200e1b57ff2d9867efb05a2da69e9efe9a0d629e11b17960b86d7f70af9b6266d6479596060001b6200afac565b670de0b6b3a764000081816200e1c757fe5b0491505092915050565b60006200e2017f15696199d9aeca0dc884627cf5f234ff567203e1f8ea030dc00a803644e4b98260001b62010170565b6200e22f7f32cfe64a8f6105c2204df1fb0fc81b6eca28b32da049c4a278ff8baf7e218f7660001b62010170565b6200e25d7f5a58f55977b387beb2f0add191a1df1282755ea4ca3ca05003fdfa30b58cedc860001b62010170565b818060200190518101906200e27391906201760c565b9050919050565b60606200e2aa7faf3c520a5e343fb9924b88b7fb98ac9eb5f4e6147106f1fe98fe839e55e8993b60001b62010170565b6200e2d87f15bcf2269864b6e4ba5b493e708e1dd8fae2e04acd6523b0eb94e577be95095860001b62010170565b6200e3067f949e348f9c4cced7551a302351003952d71586dd280a1443c2a52e79d108b73360001b62010170565b818060200190518101906200e31c919062017638565b905080915050919050565b60006200e3577f417fc229dda14975d4570a69b822de945d3308d731c6409cce8004cc417264b660001b6200173e565b6200e3857fce762d2f8f3df80b9ad5d50b5b242f057acb4fbe85a36c8ef4ea48eaad41abb960001b6200173e565b6200e3b37f3f021282b28cf8cfaece8adefbcee511d20a51781a376db7b7bf98f11695d93760001b6200173e565b6200e3c56338e9922e60e01b62002384565b82149050919050565b60006200e3fe7fd604afa9954905c0482de752cfce78140c9e0105980dd5692c6f67921463c14d60001b62000f2a565b6200e42c7fce00f8a7049ca61aedb1e0e5c38bcf581d13ab1775366f3212871b92ad9f5fc160001b62000f2a565b6200e45a7f2de6256d44cffa78b3e299eb2325eb89a0da97cd84786ba0aeeac554dc15768160001b62000f2a565b8383116200e4f6576200e4907f292f72d04493dca9255c294730c686a302d368874b1edcb09ac5963dab33022f60001b62000f2a565b6200e4be7fa500ec7bc2236658cd0905c5bdce2cce88a666004326a35afd75fa9fe64277a460001b62000f2a565b6200e4ec7f015af08e8db93efe99c853245a1f2037215132cf93f5e98e2c7ff66396ee722860001b62000f2a565b600090506200e7f4565b6200e5247fdd617053635f114281c69bd7c444fac5517d88279cf75d95f82ca6180900935860001b62000f2a565b6200e5527fa4e37239a43132e6f9b4192f706e9ec7241f384d291a3108ae0e0c8a44b092c260001b62000f2a565b6200e5807ff84539ca69fa3c730d4c3f5ecd450e4fe945bc81ca46500f299aa33e176c332f60001b62000f2a565b60006200e59784866200da6f90919063ffffffff16565b90506200e5c77f4296fd1a41da20af6e91ad48634aaf5863f5902a18a3747139e7382d27ab816560001b62000f2a565b6200e5f57fb11496e313cca9868136bbccf9b946a82babea353f3cf89f6868a96eeafbb68d60001b62000f2a565b60006200e61487670de0b6b3a76400006200665990919063ffffffff16565b90506200e6447f19d6af639cb779089ad7910a3a17494770a3a85af05be437561036fa93dc849b60001b62000f2a565b6200e6727f34094aa45cf13e562ecf741fa8e79d49c3ab0047e2f8af1897b8bc8bcf55925160001b62000f2a565b6200e686826709b6e64a8ec6000062010173565b91506200e6b67fce1c803f4db41360d7c118a71d7e87e2546bb35b601c789aa178d3bbde38edfa60001b62000f2a565b6200e6e47fb91f36c59792839e880adad2482e18cd805859aca495f560ae9b1dc02934aa3460001b62000f2a565b60006200e6fb82846200f72890919063ffffffff16565b90506200e72b7f3678fbce38b7a830dac1dff927bb7381eba6a4a4f6643d89329bd9be8992d0d160001b62000f2a565b6200e7597f816c5d04869f56083815bd3c6119f5690d7c4eecb73f344067f3f331f57ac75d60001b62000f2a565b60006200e77a6200e76a836200d9b8565b8b6200e04590919063ffffffff16565b90506200e7aa7fdef943248c99aea089a4d1aae2c25fd9ad1d1e65fbb2aea62d5dfe9e47edd50360001b62000f2a565b6200e7d87f9631174b0236ba6faca514c8555990f5e4a6f3b8d71d22ca1543fde95afa66e160001b62000f2a565b6200e7ed86826200e04590919063ffffffff16565b9450505050505b95945050505050565b60006200e82d7f4e5e3ef5172a0a2f8876ccce95bcdaa16d212de1b69ff1b691916846f50379af60001b62010170565b6200e85a7e6fa50ba68a1b1d1900bbaa331924fdc1c43478db1a8901ae6639b94dbbd77560001b62010170565b6200e8887f44bcbd5f2fb138d43a30553c106acdbd2d028316ed7cc6fc097413fab7e1eaaf60001b62010170565b818060200190518101906200e89e9190620174da565b9050919050565b600060606200e8d77f55b2c706edc1fac40420f6b6ee2c7fb303ddd3f3b2e904e75d52c6bfd88e56fa60001b62000bc8565b6200e9057fc498ca4ed44b1ebcfc965c587448a4caa7674ba28574ad44c701d0b18d270cc260001b62000bc8565b6200e9337fc0eb990e8883f9af90f456b244df4424ef0fdb6588346633543bc7fad5d1535e60001b62000bc8565b6200e93d620056cc565b6200e96b7f44575eacace6313d4ce3cb25629c3a9f23ce0f7905ebb1784022d4cd23e99a9260001b62000bc8565b6200e9997f8f9a7f759024d42a10794813f67c109a5b7a5a706f7dec2ac9c2abe17c83571a60001b6200344a565b6200e9c77ffef4eff49d72530fbdddc8c16f1e2bb3675c080b291b9cec258a2e6023a1bc9260001b6200344a565b6200e9f57f1aa59b29823b359d2e6f607308ed6d0c24709257d40d7e111189e957063a75fd60001b6200344a565b6000806200ea038562010219565b915091506200ea357fe1d6dcd6115d8c35a96faf87f9da11db56018907f5e1d1292b8b7f459fc25f9960001b6200344a565b6200ea637fd67c59a20548176fa9aee1547980e43d9536b1ecf27acc92f7e863c03210bcf160001b6200344a565b6200ea7b6200ea716200597d565b821060646200515c565b6200eaa97f16b2880accdf3241df05b45f11ee628de24bf9d6f26a81ef2043ef3ddd22182460001b6200344a565b6200ead77fd14e5e0b43bff948b98fc46e1875dfeefac993171445406c7ae1dfa7234c199160001b6200344a565b60606200eae36200597d565b67ffffffffffffffff811180156200eafa57600080fd5b506040519080825280602002602001820160405280156200eb2a5781602001602082028036833780820191505090505b5090506200eb5b7f20574418577c663fbd59b602baa2de3084d5deae920f4ff7e8a5f85d60430e6c60001b6200344a565b6200eb897ff568969ca32ceab1a5e649cd163dfc7c7ce3b3480a9deafbb8224701cd4802d360001b6200344a565b6200ebcb8883815181106200eb9a57fe5b60200260200101518884815181106200ebaf57fe5b6020026020010151856200ebc262000d25565b600754620102cc565b8183815181106200ebd857fe5b6020026020010181815250506200ec127f150b5762ad121ebae8bbec97101a406c12f8a6a6234a93786ab08fd77ffdd91360001b6200344a565b6200ec407ff9ee63bc645802905c8e7b3b57ac1a5c24e10c22cfc092d45055844ece85487360001b6200344a565b828194509450505050935093915050565b600060606200ec837fe249c99b28a40480c3e2393a1f4d765fc8ab8eb9d2702d0da3f723ea6542ce0d60001b6200344a565b6200ecb17fea61a61965ad1d690908fe67bebb756e2885516dc480e77fa110b6268e818b6060001b6200344a565b6200ecdf7f9544443cd6b8a9639d245848cd1f5d94bee599dd7c0aeafa3f82faffc04d1d7d60001b6200344a565b60006200ecec84620106ff565b90506200ed1c7fd3f9dbe5c30be8cb17286b3e185fca667238cdb93e6b78693e4bd3ba3de1753b60001b6200344a565b6200ed4a7f823fc7055d55e336c99cc53f6dc4c8ef145afad0564ca18a84b1af502a69c02f60001b6200344a565b60606200ed6286836200ed5c62000d25565b620107ac565b90506200ed927f8fbc8b4c4b59966ffaa957a618715ee6c638ea788ed49cea7d69c3666a7197ec60001b6200344a565b6200edc07f94e6b95a00b87eb1818be95e2a768d3d12d32cc3450a466450c1ba4b7b938ca860001b6200344a565b81819350935050509250929050565b600060606200ee017f55b2c706edc1fac40420f6b6ee2c7fb303ddd3f3b2e904e75d52c6bfd88e56fa60001b62000bc8565b6200ee2f7fc498ca4ed44b1ebcfc965c587448a4caa7674ba28574ad44c701d0b18d270cc260001b62000bc8565b6200ee5d7fc0eb990e8883f9af90f456b244df4424ef0fdb6588346633543bc7fad5d1535e60001b62000bc8565b6200ee67620056cc565b6200ee957f44575eacace6313d4ce3cb25629c3a9f23ce0f7905ebb1784022d4cd23e99a9260001b62000bc8565b6200eec37fd55140d4b44d97123318136b909ed19eebe4e546553b8f7ed8d19dd348f4f42660001b6200344a565b6200eef17f81a4d574aab069037ba315a6f35c11749bd989ee1d4684806c19d300d398457860001b6200344a565b6200ef1f7f1721b33963ac6a76ac36f9dead4ea37f186ea27e4e17b49a9a349f4fe4c703b660001b6200344a565b606060006200ef2e8562010a79565b915091506200ef607f4742c42a566917c36b7153cbdd4e4703fb1a55d5a388bf1053bb743671c5514f60001b6200344a565b6200ef8e7fd5082d2094a72da88cc9c10e2c0e67fc463acc3b73ffc6adeade5cd2182da19660001b6200344a565b6200efa482516200ef9e6200597d565b620045e7565b6200efd27f1498a153d1743fc41967b1d7ea39adb9a418e47159e4b46974efcb652a37ff7460001b6200344a565b6200f0007f8cdeaf21167b641587195fe6da4e8cbfd44420a23d73fed863e809578eddc4ce60001b6200344a565b6200f015826200f00f62006977565b6200769d565b6200f0437fe29a06d835e129542f40ce1f364ccfcfb28a1948ea68d50b2f115457d52b8a9c60001b6200344a565b6200f0717f66ff99688ead5424617a6ee79c0716f0b49ac3358ce17ae05d2fe21254ea819260001b6200344a565b60006200f08d8888856200f08462000d25565b60075462010b2d565b90506200f0bd7fdaf99ac57970293d88085e7a46f0902b7e6e85ef837d39113076dfe747cbc65660001b6200344a565b6200f0eb7fdab5ed0fe9efcb900d936a2f3e91b5a672b079d75ecdb06aa0c089fab7a1b4c760001b6200344a565b6200f0fb8282111560cf6200515c565b6200f1297fac9cd62647826bb6a897c7ff465ad9bde5afde2de8000fd6495cbcd462cbf73b60001b6200344a565b6200f1577f1fcaf421a10917396b3c9fc0db811eeb368ccc811c95c192a8d4fa2cd6fa987a60001b6200344a565b808394509450505050935093915050565b600060606200f19a7f56bc436ea99b0aeae697e1b49fae8aa022504ac8a607099127fa0a34f890525b60001b6200344a565b6200f1c87f09f337258a8b29c90781fd018ceea8dca1a2a40a1c3a4ae93c758461c195ecec60001b6200344a565b6200f1f67f46c6f76ce92fc09097b5c195a3776439118589ce65dfa6f70ed99e24cc6a2f1260001b6200344a565b606060006200f205856201147a565b915091506200f2377f6a91a7bdc6733ce46d39ab813919a74e6f4603ff4f19c24bf2f794a5674203a760001b6200344a565b6200f2647e2b334c242918e3740fcbe47f8d95291a5a373218461bb24c6494b9f8c71bb860001b6200344a565b6200f27a6200f2726200597d565b8351620045e7565b6200f2a87f1ef55dd00702e9a20cd69814e700fd27f4e0d3a1f8289de1449778f21278124f60001b6200344a565b6200f2d67f2d08e38bf1672e29084f3304669be2078fe4dfa56d7cb92127314224322a577a60001b6200344a565b6200f2eb826200f2e562006977565b6200769d565b6200f3197f19f16dd12c5b57b7b82d9a1fb32b492bf8cd3fb0b80d4fea48469eadf8a2a01a60001b6200344a565b6200f3477ffe433eb580739fcc7ce614d9de14cd95fb37609c2b2d27a75070d625611563a460001b6200344a565b60006200f3638888856200f35a62000d25565b6007546201152e565b90506200f3937f4eb2c671852150f7fa0b9f0a9eca295290842e49a2733c830f255bd179409f9460001b6200344a565b6200f3c17ff7d403dddf46fcb7a3c09c612f1c40638e87b9ad8a0f0767c5f14435ef2433c360001b6200344a565b6200f3d18282101560d06200515c565b6200f3ff7f9d3108026294e225d6d2798db1d580e020ad8e9cb27f907d3206649efe24f43d60001b6200344a565b6200f42d7ff2fc49326914f5c43a7ec5723155523c4c460895c5c54bf60839d30f34a8547160001b6200344a565b808394509450505050935093915050565b600060606200f4707f484a9c5a4f49f2928f7e93efa6a9f9baa5dac4fcd4cdfb785281b9e1a419fbe160001b6200344a565b6200f49e7f8e0136b71e0a9b80f155e46227167fec02319fa57b3116eaa352f1ce05065e8c60001b6200344a565b6200f4cc7fc5a5d0fc94e66ab39fed9e1000dc84887a7b30f0a69bd6534777528b4eb2a87560001b6200344a565b6000806200f4da8562011fe3565b915091506200f50c7fe7ba26d2e20ec5323c066523de025364b7712be546b0a2b7dcc113570a6aefda60001b6200344a565b6200f53a7f6abce1e830f134ed1c59ba05fb5f8f6a0488729f38a5f84c56c5c3eab4a2bb9360001b6200344a565b6200f5526200f5486200597d565b821060646200515c565b6200f5807f96eba90cc7293a3cff64ec1da01923f735d2200c660422ce98b65a487c16ee8660001b6200344a565b6200f5ae7fc353a70035cad906e6a3aa42e3f2ac5f73bf8e1057adda9812087ccdd91e448d60001b6200344a565b60606200f5ba6200597d565b67ffffffffffffffff811180156200f5d157600080fd5b506040519080825280602002602001820160405280156200f6015781602001602082028036833780820191505090505b5090506200f6327fc632bfdb3c3443fbfd2af20de57b3b660958dd5de88e86b7d481a4b01d95027360001b6200344a565b6200f6607f889253980effed5bca0049377c41fc49be0876b0331aa8bbbc2df86ef6bfde8460001b6200344a565b6200f6a28883815181106200f67157fe5b60200260200101518884815181106200f68657fe5b6020026020010151856200f69962000d25565b60075462012096565b8183815181106200f6af57fe5b6020026020010181815250506200f6e97f03643e4e50480da62df01f4dd49a6098de96efb085852794ee82f552ebcda06a60001b6200344a565b6200f7177f990054261921df9c20aa4d7cac0ff851b75581a7e0a4587f0f6e49b77c8ed6a460001b6200344a565b828194509450505050935093915050565b60006200f7587f25721ce18b6bffc3f9997929975ba453580739ef145a1adbe7bb4aa4b8857e7960001b6200afac565b6200f7867f9cd570838adb910b08e2fc79b3452605cf064cb67d8520ac0f8bfce12cbca36160001b6200afac565b6200f7b47f884475361c4c4d5e4bd00577aa93f9d57874cc32d5e75f40a41e8f059017cdee60001b6200afac565b60006200f7c284846200f8b0565b90506200f7f27f10cb084c023b7e0f53854a40085cf7fbb0425f8fb93400486d4f7d2c3d7388f060001b6200afac565b6200f8207f33d13a31a06800cb9d234bdb7bf20abe2949867398b6d7e108d4adfe6f50fddf60001b6200afac565b60006200f83c6200f834836127106200c63f565b600162004684565b90506200f86c7f67bea290723a6c8eea059d7fd6f368aed411df9bbabfeb28b149293f88a613df60001b6200afac565b6200f89a7f7d79adfa852e724bf7ed52c9d1aa40b692a39eaf9cb72e0385e8fc3b92bdea0a60001b6200afac565b6200f8a6828262004684565b9250505092915050565b60006200f8e07f9a386118f61e7ad4fa94e2a287955728119e0eee16d4706f5696a5173abbc55e60001b620124da565b6200f90e7f4f5997ebccad256def7bcc864be7dab89aeb1983524220d7a4ab32739d94bfef60001b620124da565b6200f93c7ff04ca04c0c7f6564cfb884744b9a6a99b8399657bc624ad61bcda29b2dea0c8660001b620124da565b60008214156200f9e1576200f9747fb61fd0faffc74429d9536d680d51c229f7bfc857cfe0b1c16ab8ee519cd7f08a60001b620124da565b6200f9a27f8ba538650ff97cbb25f6268d335201a5b55832ed9fa3368278f2b54f0655d62360001b620124da565b6200f9d07f50029354f7c76e9002ae8d860d78d3dc711a958bc725263ced11b65fa033525e60001b620124da565b670de0b6b3a764000090506201016a565b6200fa0f7fd32c8ce279639d1bceeaeebc77169f155034a4ef3d9539ba1585415db271fb4b60001b620124da565b6200fa3d7f765d74ec76319c86571a1a98990058f556f8173f470cb234b3eeeb73de2a471960001b620124da565b6200fa6b7f5d41edac9e94ccb4c9ce3771702b37e9e9fdad84abef68957f8d535db1fb18c960001b620124da565b60008314156200fb09576200faa37f4df80895392f90aec5303fb0cdf1002d46f9bda472d31b110d0cb84aacdb819160001b620124da565b6200fad17fa865a11a69610de4d0f9025b2ae2fd2cb3cec580573f71fce7a2a5d9dee3f2d560001b620124da565b6200faff7f30ae80ba256bd1ded11bd90ea5724792c51430bf16054b9ad66deeff27aabc8360001b620124da565b600090506201016a565b6200fb377fa645d025589b55f83c0dfefa01eac77e5d0040cfd4baee299ffe10f75514e23560001b620124da565b6200fb657fab20f4270e591807c022b2d6de30f822b45725f5402d151d2bc8d45283aeed4c60001b620124da565b6200fb937f4e82b059df52b7c33f830ca15735cb0bd1aec4f1359143826cbe5190fa65caaa60001b620124da565b6200fbc27f8000000000000000000000000000000000000000000000000000000000000000841060066200515c565b6200fbf07f96eee7e488fa5825e821b6a7c55ab2a7cc28b3c1b79cd978100956b629cc1ee760001b620124da565b6200fc1e7f1ceb730a261b7113a12394ad33c901fd32ed42b54320b008711ce05b719077be60001b620124da565b60008390506200fc517fb66fd411e1a8d967039a8da79a7d790af05f6b49ea181c71e5c38c7f183ac69660001b620124da565b6200fc7f7f59d94b3b892e410be8e3a31581fd61484ed53955a13153e3b15f6ff2d20e8a2560001b620124da565b6200fcc168056bc75e2d631000007f4000000000000000000000000000000000000000000000000000000000000000816200fcb657fe5b04841060076200515c565b6200fcef7fb43455663370ee4e1a9aecd733919d21a1556a872736849c215974eb634a7e1160001b620124da565b6200fd1d7fe3d754343e1c7c1cfb2e7784ae1f7f2376d06f5f401d590c9e9b142eb6ff13ad60001b620124da565b60008390506200fd507f8142fa62dcc2c5a93b972d69f51de2a37654459ad74c151d90f967f61a85ce0960001b620124da565b6200fd7e7f402046afb111f35727124c3a6ff0e2b2e5971e5595f6396e9c492e4a265ebbf660001b620124da565b60006200fdae7f89c0988c9926159e3ac8878ee2b3ab59aaff3cd725b128c615ab50a67602fac860001b620124da565b6200fddc7fa1658a7bc679ae40702db916ec95341df9125e33bdd70a9dcd9ef9e3582a2e7760001b620124da565b8267016345785d8a0000670de0b6b3a7640000031280156200fe0f575067016345785d8a0000670de0b6b3a76400000183125b156200ff50576200fe437ff49ed7d2b95b72393e94d42845049140b773b672c50d6e84ce1b5add7b5f0f2260001b620124da565b6200fe717f5aba645b90c86d1b2aef4aab00c0d26824c62ae4059bbab52019a3f4b0e3754660001b620124da565b6200fe9f7fdecba6c8700d218b458c9726aa50cc52fea6d06f28fa0a626a623d9d8c838cdb60001b620124da565b60006200feac84620124dd565b90506200fedc7fd9240a119a615d486710e5b81d68c7448ce534e7455183fc71b4672d5703849460001b620124da565b6200ff0a7fc0cfbbf713e4647e61a667d0a63a928a90a209ba4b9d621a7e025a1494ea6a1f60001b620124da565b670de0b6b3a764000083670de0b6b3a764000083816200ff2657fe5b0702816200ff3057fe5b0583670de0b6b3a764000083816200ff4457fe5b0502019150506200ffea565b6200ff7e7fcc621bcfd2c6ea1cee8c99457f203c0ca179e2c3425a4fe7903d6c9bb67ed6e760001b620124da565b6200ffac7fa6e3279b328741e46af523c5b150d8028c884a4764d5a57051e75ab45359622760001b620124da565b6200ffda7f9078c1bc9da8505f20b2fbe8f4a2301ee4bd40989461036b8db101718d0bf7f660001b620124da565b816200ffe68462012df8565b0290505b620100187fdc9fec9918f8626782712375c63e7110ccaf5fefb184df87d8e968da192d6f7c60001b620124da565b620100467fa6ef11a4e406deb2e49d7789d48365a2c9e2e805490d707d8331c1e0e82f3c6160001b620124da565b670de0b6b3a764000081816201005857fe5b059050620100897fb021674caea471abb3eba3039cfa309d30369ab16ac518ce79845057ae8495b260001b620124da565b620100b77f77aebfd49fc425f02c8aeb6081ed57b7c3bdafd97f0d88a9ffe8ea40a4c7234c60001b620124da565b620100fd817ffffffffffffffffffffffffffffffffffffffffffffffffdc702bd3a30fc000013158015620100f5575068070c1cc73b00c800008213155b60086200515c565b6201012b7fcc14f66ea80d0f96ac4be1cada57bd936b4aff18ec591c8add3868919daf5c6960001b620124da565b620101597faaa107c4e1a3cac283bf0b9714305fbd4444b0ecbee01cae1665ee77392a88e360001b620124da565b620101648162014c57565b93505050505b92915050565b50565b6000620101a37f7cb45b78c97ea7383e9fcb81d497198c628ff028ffc6f324f1ceecccc04cb59b60001b6200afaf565b620101d17fb3656ecde4040e1bbf22fdb3305656ebaef9ce03a867e318dd2675414787d4e060001b6200afaf565b620101ff7fa9adef01af328324ee6569271fad04725ea685a815a37b6a0fb2771309e9110360001b6200afaf565b818310156201020f578162010211565b825b905092915050565b6000806201024a7f0ac91a56abf11fcac5b578501e9095cab8daed42d6389ea84d9b18424493552160001b62010170565b620102787f17da1847110237e38e4c1bc738200303561ad7b8b1e19022f99771d4835bf14660001b62010170565b620102a67f404798be251b1aac6add92e24c5b531d4ca3a91d0192968a1648a7d0d695471b60001b62010170565b82806020019051810190620102bc9190620175b6565b9091508092508193505050915091565b6000620102fc7f1d87df4bf741f5fa780d392b27042b06f46df2b29fa63c25d0f0febb34dfc14f60001b62000f2a565b6201032a7f0a3121a496674afd4ba93a6af1c82d01dcb9577ac453dd0c18b71b6e75a641d560001b62000f2a565b620103587f0c182ad15d3c4c9e48e0b6c60b3fb0c929e9f36ead3261df240dc8b95ea82b3960001b62000f2a565b600062010383846201037487876200b72090919063ffffffff16565b6200da6f90919063ffffffff16565b9050620103b37f63e214cf53abcd3c4722941ef75d79df45a6c6040774ca4ea77c2dea0df1b2f260001b62000f2a565b620103e17f4fffd47ddffc1b55d260b3535b85653ffcdd702c959a99fc5024b38327cb336660001b62000f2a565b620103fa6709b6e64a8ec600008210156101326200515c565b620104287fefae5b87eee833af15573b6ae022eff03ad8f9eee1aca0f88f3f841b1ed08e4460001b62000f2a565b620104567f19743d890b758a9b54f07606180cf6d9982e039d0689339968be4411f5c3c40260001b62000f2a565b6000620104896201047988670de0b6b3a76400006200665990919063ffffffff16565b836200f72890919063ffffffff16565b9050620104b97f435ff8c7d367f71642c43c5f8d429a4aca249995ec50e27018ebff0f0970d71160001b62000f2a565b620104e77f997ab0b1fbe2b5bece1767daf81a258e1e78bd0bbaeda8767300fecf5253766160001b62000f2a565b600062010508620104f8836200d9b8565b8a6200e04590919063ffffffff16565b9050620105387f12446bc69609f7989f60754cc85c1799583f57b5eb92f78ab22956d8c121f6f660001b62000f2a565b620105667f791d5ac907db80d7a227085662c676e2c8d797ed306de9bd0b976933e40fe50c60001b62000f2a565b600062010573896200d9b8565b9050620105a37fb0e6bd63ceb87512ed357729bb54e09d8013e390f0a1eb3f74ba5cb8e44d261660001b62000f2a565b620105d17f86477e1d169baa97d2101a0549841ab6f9ef13f7898ed2e7402bce347ebf1ccc60001b62000f2a565b6000620105e882846200c63f90919063ffffffff16565b9050620106187f1922e5c43e87c0ff5f103002e85a93b0c8da3122d0e5669bb22e4155142fbd0260001b62000f2a565b620106467f50accda26e648df2b5eebd8956c7acf12ba10c3ac4d2fda0618dd28f11e383b060001b62000f2a565b60006201065d82856200b72090919063ffffffff16565b90506201068d7fafb50ad8b4760f1d07e265b3bd8d0f18bec1d88b39c9fdb3a81bfe593f9dee6560001b62000f2a565b620106bb7fc2feb4825c8492fe104e8aeafe9044f7cc731f6bb133261210aabfe384e4e11f60001b62000f2a565b620106ee620106de620106ce8a6200d9b8565b846200e04590919063ffffffff16565b826200468490919063ffffffff16565b965050505050505095945050505050565b60006201072f7f6e73f2f66e3e69a8092232d04d558168e69d0aa31010e9d2b89a6b54c22c628f60001b62010170565b6201075d7fdca4e4af3c5a58bbeadfce51dd0b531b8e456d7ae0ca8e17d5ad5b4eaebcadb460001b62010170565b6201078b7f57956ac6e6b95135f5271b17aea20594d762128bde32ecaed3c5e2ea12a5c4d760001b62010170565b81806020019051810190620107a1919062017575565b905080915050919050565b6060620107dc7f30348a04ecee1bdf3ae3aa50ad93973cb9c810c895149a9558a86faba4202bb260001b62000f2a565b6201080a7f435adb51a9c879358ec04c527685f10ed7164164c9c0b3237c119474020a9f9160001b62000f2a565b620108387fa7a883bfd49da4c37cd6a2ba823d5845f7fb3011f529fc56dac72d5ca7e289ef60001b62000f2a565b60006201084f83856200665990919063ffffffff16565b90506201087f7f60d00f3a8515aa084da3b347e2707d6889c689253a6af558a504f138a790752760001b62000f2a565b620108ad7f4a7ae87da30e0f96b3863d9086b5480677722c86ae8267752b31ac0ba0bfec6060001b62000f2a565b6060855167ffffffffffffffff81118015620108c857600080fd5b50604051908082528060200260200182016040528015620108f85781602001602082028036833780820191505090505b509050620109297f1eaa4ecff4917f29a20254854fa22b656f2bb697fdb0227394f518e21390844960001b62000f2a565b620109577f4a7d5569fb7df46a1644956b4f5a54cbf22ee2a05b48ac314e7ddc14e196ef8d60001b62000f2a565b60005b865181101562010a1057620109927fbe3d3631201b88c379ccfde9f6d5dddbe6b59e09d6fbdbebe5df79adb9c0d0a060001b62000f2a565b620109c07f1c3e9a96e7e9590e3de4b8c032d92968de2565cd0cf94251705b82cf3d3a831660001b62000f2a565b620109e983888381518110620109d257fe5b60200260200101516200e04590919063ffffffff16565b828281518110620109f657fe5b60200260200101818152505080806001019150506201095a565b5062010a3f7ff4f37669cdb356180e7f72c78425bd9f9c91ba636eb8ce2c715c2689a51af89260001b62000f2a565b62010a6d7f7b39fd0c9cc0d64ee3be8e8ad0fb104438faace29f2df804dbec43e8738ad43d60001b62000f2a565b80925050509392505050565b6060600062010aab7fcd9e17aff172b0d0b5301d9a73a63849d2f85a4323f2428a0d84d188a573b83960001b62010170565b62010ad97f20a61cf6253f05f35381bd8bf4841d0329e599b22b23ef9217624ab320a9fee060001b62010170565b62010b077fe8bd6d948dad94fdc5e74d4c39a0be60cf3bb8e30402faefad4c0ca335081a9360001b62010170565b8280602001905181019062010b1d919062017506565b9091508092508193505050915091565b600062010b5d7f66d1e086f2b3b55720689d4ae633ba7e0f4c4d487cba822c5a5ac525f03fb79660001b62000f2a565b62010b8b7fdf07a2c764cd8194b4778e76d0e21f6f87e269f22e62501cdd41a77a3944357560001b62000f2a565b62010bb97fbcab1ca23be0acd2c0432b5e98ca214342757f17ee9cd57c128c7af04b5dde2e60001b62000f2a565b6060845167ffffffffffffffff8111801562010bd457600080fd5b5060405190808252806020026020018201604052801562010c045781602001602082028036833780820191505090505b50905062010c357fae2966c3b4581a0359e4d33eca508815a3294b55384a06feb85e04329c20435260001b62000f2a565b62010c637fadc0b6a3278f8defdd39dc4e15538e098cd5f6ffaf0854127e42deece891928660001b62000f2a565b600062010c937f75e9fb3f72f370166cc55fc05bb006475cd8059c70aed6c54c1b4b077de8f45f60001b62000f2a565b62010cc17fe1916e8605b17e59a3e565a82ca0973e820c913e7ac54a091fbb9f3184b5bb9560001b62000f2a565b60005b885181101562010e655762010cfc7f6d956fb78ca16f714267fd63734d9c69b751fedf288761005f046a1051b7ce6a60001b62000f2a565b62010d2a7f2a3244e03bd1627c7bb830bd01b356d879f0535b7e84631c4a00bb517c98c0ae60001b62000f2a565b62010d8f89828151811062010d3b57fe5b602002602001015162010d8089848151811062010d5457fe5b60200260200101518c858151811062010d6957fe5b60200260200101516200b72090919063ffffffff16565b6200da6f90919063ffffffff16565b83828151811062010d9c57fe5b60200260200101818152505062010dd67f813a6c0e92344d8522d0b53eef4140a48c4add73fdbb7b107f4ea9977b53d01c60001b62000f2a565b62010e047f1334a4c70b8315c21e493d7afa3f9b7e216a85274b7bcf4ac47f929c15afddb260001b62000f2a565b62010e5562010e4589838151811062010e1957fe5b602002602001015185848151811062010e2e57fe5b60200260200101516200c63f90919063ffffffff16565b836200468490919063ffffffff16565b9150808060010191505062010cc4565b5062010e947fa8438fb0cea64b293cda875fe9d1a25d59389907acd5469b203864651316680660001b62000f2a565b62010ec27f9ea21e353897299577717350b3184e80588e9c0b43c1dc929dd58911d76fd32860001b62000f2a565b6000670de0b6b3a7640000905062010efd7f65457011bfe5687c4ef2233876a3e249d78f62bfbece7670f801f47de4e9db2f60001b62000f2a565b62010f2b7f3cb45c7aa4ed880ef8f577f0f3b6e8a7ad853bd452f271464de0537f0aba889260001b62000f2a565b60005b8951811015620113f05762010f667f9bf699b45b15734b39626e4ff99d7effd0bf067e8069f4176a54d2db20dde67560001b62000f2a565b62010f947fe4df4a9bda12d94ec2f34cbe517fdc4de5db94f723c726f660ea403daa43a1ba60001b62000f2a565b600062010fc47fc81fd3229e5f2a96606f7b46cae65a8ea9cf0270c8c0d5b45d56b30b839e08bb60001b62000f2a565b62010ff27f1d5a822dff4ec1daf98a0830dbfaa267bf921ceea7f98a47a2fc2abf517534e260001b62000f2a565b84828151811062010fff57fe5b6020026020010151841115620111f2576201103d7f084e90600d207fd56036a8144ebae38c1b3b3806f33c66e7b3c2b41742bd7c4060001b62000f2a565b6201106b7f5c714d18572ca28646b7c33107ebccca7afbe96d1079d32016d98546de9aa3b460001b62000f2a565b620110997fa7c622fb97bb4e23ceb7f851987cc115f9673c572a1092027f97c2c226c4637d60001b62000f2a565b6000620110ce620110aa866200d9b8565b8d8581518110620110b757fe5b60200260200101516200e04590919063ffffffff16565b9050620110fe7fe0a1dbd73d59544e6d84835bd81c4373fde584625c8032286b72f4fb559a224b60001b62000f2a565b6201112c7f2fc8ecfdc4040b73fbe81c8402718ee595e5a960bbe66fa1402934d533d536c660001b62000f2a565b600062011157828c86815181106201114057fe5b60200260200101516200b72090919063ffffffff16565b9050620111877faacacac36ed40a7d83c055b8e405766604f93cd3c9477571a8b6070cb2bbf57060001b62000f2a565b620111b57ff65a319cce94e930446bec16e454ee81ef78109f34b103213d18ed071eb96d3160001b62000f2a565b620111e8620111d8620111c88b6200d9b8565b836200da6f90919063ffffffff16565b836200468490919063ffffffff16565b9250505062011294565b620112207f629dee5ce187535686931c0dfbfa1852549981687acc4f60b5d4bd9b88f86a1560001b62000f2a565b6201124e7f7ec7ce8e287f4da1a014de363ba98a70c6179b06bcdcb37aa46415eaeb6d843760001b62000f2a565b6201127c7fd9c153b58705ba3047abe494356152fb7176ed7b37d4181d2bd691440beb61fc60001b62000f2a565b8882815181106201128957fe5b602002602001015190505b620112c27fb8b286f6916c61f376781f284385f58dd5ae33847741bca1f9b8ad1595d9ff1a60001b62000f2a565b620112f07fb4c48547ab931d7fc6c1ad9c220f701ab59743dbde25c56585fe1efafb481d7a60001b62000f2a565b6000620113438c84815181106201130357fe5b602002602001015162011334848f87815181106201131d57fe5b60200260200101516200b72090919063ffffffff16565b6200665990919063ffffffff16565b9050620113737f4d0f97b04b38473d4016013782297d84e7024bd0fcb1eb40a96c86a908b9110d60001b62000f2a565b620113a17f840668f7d4fc111c90146d1a17f93efd3ef09376ee3ac0cf6126bbf00618528160001b62000f2a565b620113de620113ce8c8581518110620113b657fe5b6020026020010151836200dd9390919063ffffffff16565b856200e04590919063ffffffff16565b93505050808060010191505062010f2e565b506201141f7f4178a2906d025024283bb894977545b46d9078a2494e86a874d21d463a05a79560001b62000f2a565b6201144d7fde4fa5a5228b726b389a61d24ec06e7900ee8a1481d7746e824357c34d76267b60001b62000f2a565b6201146c6201145c826200d9b8565b876200c63f90919063ffffffff16565b935050505095945050505050565b60606000620114ac7f22dde051b3947062eb50242c515d0697f3b9f554366d93fab12d4cfb92a1b7e460001b62010170565b620114da7f2f6959c6d4b4059c472f24b19be996aeef9b0c444e52ce4116f1da2b608bc01b60001b62010170565b620115087f88caaf440456ffce29faeffe7d292784db09d2db2de33a0361178ee0c160166360001b62010170565b828060200190518101906201151e919062017692565b9091508092508193505050915091565b60006201155e7f576a863d97cdb2c1d249ac783bdba346346bd7b131d228467d125d60b9f1a80860001b62000f2a565b6201158c7fd50507d03432c7450272f189601e232cbea96f62880412c799fa8aa584f8336f60001b62000f2a565b620115ba7fe4afb299c8b137b3fd13e0b80802048ab40c8f2ebe04fff7833006b95c75cce860001b62000f2a565b6060845167ffffffffffffffff81118015620115d557600080fd5b50604051908082528060200260200182016040528015620116055781602001602082028036833780820191505090505b509050620116367f5b65b98316829d91bd2e3c819cb74fdd9b59a535ebb1349ebe220af0a937f72060001b62000f2a565b620116647f7b944a854d3fff921d6c4bfd17f1e91df3f78819b6c8435a361da6dc5e3ee2e660001b62000f2a565b6000620116947f42b6093a9197ee1785c89139fb8239de42d4a3e4ff511d26858f89e96cfa97f860001b62000f2a565b620116c27f42889a1991ae7064f488955541e11894e1c0cdd009021f2105a8294f2f100c2360001b62000f2a565b60005b88518110156201186657620116fd7fb752f05850861270a03215ad630e72fd7a755efa0e653ffe71b113352537f9b760001b62000f2a565b6201172b7f01c1533c8b62ccb28b7d579c4c5e63f7356f9044adce771242f9eebca703db7360001b62000f2a565b620117908982815181106201173c57fe5b6020026020010151620117818984815181106201175557fe5b60200260200101518c85815181106201176a57fe5b60200260200101516200468490919063ffffffff16565b6200665990919063ffffffff16565b8382815181106201179d57fe5b602002602001018181525050620117d77f415a56e35f47ec3954ac1a31d1c577c17e5af51f4707e87a1ccf802a3516ecac60001b62000f2a565b620118057f370ecf6650d380da58b2f1b42d1e52e8db28017cdb160b6df705df540bfd9a9260001b62000f2a565b62011856620118468983815181106201181a57fe5b60200260200101518584815181106201182f57fe5b60200260200101516200e04590919063ffffffff16565b836200468490919063ffffffff16565b91508080600101915050620116c5565b50620118957fd47e11776107c2f882140be77840f1e5d4044db607e135eac28e7f87aee70e1160001b62000f2a565b620118c37f86254899a1052dfb6bca21076974cdc12a2fa189846fc1cd7297b7f674b8416960001b62000f2a565b6000670de0b6b3a76400009050620118fe7f25cc282b19cd1e4e439c340945c7bb507111c10b19360292e45cd599b643173260001b62000f2a565b6201192c7f5cf807b141ff65f3f5da42b1e15354adba7085a031e56f85d0c57de08d9f972b60001b62000f2a565b60005b895181101562011e1557620119677f635453ee73a416f39cedc6479c9b533479db18fbcd32282a0b4888be9be76c6760001b62000f2a565b620119957f922e1e60c36e80d1526d377b4d49034dd2a3aa19464254096a0abefef0a99cc760001b62000f2a565b6000620119c57f10755f411c5225174cbce3a88ff3ebb60643f35362ce345fe41bcbb448c1163a60001b62000f2a565b620119f37f25bf0df7cd4767a5c9f2edb9f307147ff40d13f41c52104083ddcd4f0409f8f560001b62000f2a565b8385838151811062011a0157fe5b6020026020010151111562011c175762011a3e7f714da9ac1709853ea6642d4f1dadf6cce33e734c044ac1fcb86ac01b8484803260001b62000f2a565b62011a6c7f583fe345ab256860f3a06726d4d2f9b45d0e5cce9b08fa94b3c19b3a5c59605e60001b62000f2a565b62011a9a7f1eb67ac3e866a31202aec12199df53753b25259ffa00f180b99964551c1b1c6860001b62000f2a565b600062011ae162011abd670de0b6b3a7640000876200b72090919063ffffffff16565b8d858151811062011aca57fe5b60200260200101516200e04590919063ffffffff16565b905062011b117fb4ca5fe7294c359866d20266c2297b72eae9afa9fdfebe19371e86d0e788931d60001b62000f2a565b62011b3f7ff9b9a34e07298b720d52661febca7ea6916325c32d47675458366f9a05ae7e1460001b62000f2a565b600062011b6a828c868151811062011b5357fe5b60200260200101516200b72090919063ffffffff16565b905062011b9a7f10c726dd024987dd0e8b7599197996127dde12f0427783572ea4219abe402c7a60001b62000f2a565b62011bc87ff10603c085b57ace28d047ed12b754df54acf5275af49ac8d8b7ad6b250a6c4060001b62000f2a565b62011c0d62011bfd62011bed8b670de0b6b3a76400006200b72090919063ffffffff16565b836200e04590919063ffffffff16565b836200468490919063ffffffff16565b9250505062011cb9565b62011c457fb6847286290807157ce37bc186ae3d61054411caea5142e9863e911d13b169b860001b62000f2a565b62011c737f4e24aba2356739b5beb4d0447d621529bbf536789794c24decd3a359e044d64a60001b62000f2a565b62011ca17ff8c94014e20e856c80ee9280540459e35fb1cb197b32a1f26d6e140e965de27860001b62000f2a565b88828151811062011cae57fe5b602002602001015190505b62011ce77f531914d97aa63061d92e4cba2138c3b240a2c1a07951af41b19efe42142d272860001b62000f2a565b62011d157f472284f47ef5b45afa9af68153f74741b032c33f1da581dc7958d4d200fbf04660001b62000f2a565b600062011d688c848151811062011d2857fe5b602002602001015162011d59848f878151811062011d4257fe5b60200260200101516200468490919063ffffffff16565b6200665990919063ffffffff16565b905062011d987ffc7cb4854f52acc8009f8757d6ffd447e362fd65c3ddb798763a21910036934b60001b62000f2a565b62011dc67f2bb5602b23ba66716f7c583a85a28c6b4a4881c0fe1715f6fcfe8b97b8b49b9d60001b62000f2a565b62011e0362011df38c858151811062011ddb57fe5b6020026020010151836200dd9390919063ffffffff16565b856200e04590919063ffffffff16565b9350505080806001019150506201192f565b5062011e447f5d91626db5b5aa7766448d2bf6b5dc0bb3a14420e49639bb5131e955cfc2cd8c60001b62000f2a565b62011e727f9bce18290923289b3c28011a2708b28dc602670c29904d2cf4cb60e156a4e27a60001b62000f2a565b670de0b6b3a7640000811062011f485762011eb07fbc833543fbdd90980ca386952133edf12267deb1d67df3bf7e1ca3cc4cf719de60001b62000f2a565b62011ede7fd6ecf17d03a8040f7f61b0832018d7c4922b59a4229543bf7b21179abdd1e71860001b62000f2a565b62011f0c7f49e2696be44bfde05831b2adb0da1e4d9b6ce9578adcde649114fbc0074d313360001b62000f2a565b62011f3d62011f2d670de0b6b3a7640000836200b72090919063ffffffff16565b876200e04590919063ffffffff16565b935050505062011fda565b62011f767f2ec8f9bf7eddb20641099b86d54ff732a320302f3609ba1adeecc661c931108c60001b62000f2a565b62011fa47f133cf310ef899bdb8aa6f665c1630320e583a0d9dd5b42c01e1473fa85d5b25960001b62000f2a565b62011fd27f1b867ec6e3bc638f865b37af6b9bb88c5bb8493c9834f04d5aa1028deb56331560001b62000f2a565b600093505050505b95945050505050565b600080620120147fae9f5190ba7ad18972efa461b5ea8d1d758b6024e69961f253a80b25f63cd20b60001b62010170565b620120427f59927d9ac7c0436e3908b26ea3b35b28c4fbdf508a5f7f2537fd4aeb0f65b9e660001b62010170565b620120707f98d8309db3ac473396f8344734e2538070a7a3bdf9bfee6be61aed2d25e1b1c360001b62010170565b8280602001905181019062012086919062017701565b9091508092508193505050915091565b6000620120c67f6fac706a228fae450f9159306cecd4fe016ad31bf6bb989fd661c0e219277dae60001b62000f2a565b620120f47ff5e74fdd515333a25294f33db503596ee6990ef641fd86988fe3ca801a9fba5360001b62000f2a565b620121227f829af8daf051bd338981024b7f7b859dd9f2a2239af820332b32eff49dc5c74960001b62000f2a565b60006201214d846201213e87876200468490919063ffffffff16565b6200da6f90919063ffffffff16565b90506201217c7edd3574d4d7274bcdc8d43c50351aab8be60028e4c45104bf8866f6af6bb35360001b62000f2a565b620121aa7fc61bf2fdf89f8fe659f2f78e7e0b092deee2f05cf39e7396e70bc0a1b5d6513160001b62000f2a565b620121c36729a2241af62c00008211156101336200515c565b620121f17fbd8a0a227a5f08df873d60a12b676b18e9b4b61f88fb2825eb3674c62e97e60560001b62000f2a565b6201221f7f01f6f1a93efe384db0f2bf048115cd16b6677b4d4a0173537977921df592436d60001b62000f2a565b6000620122526201224288670de0b6b3a76400006200da6f90919063ffffffff16565b836200f72890919063ffffffff16565b9050620122827f8f7decd4bfce4f73568552ada9b1b98942ddbfe29beb13f8fbdc903fc3f8f0ce60001b62000f2a565b620122b07f8b440342879d57e523b811023bf06ec4f634b76c53de6ba32f0313b8fa0ee1d760001b62000f2a565b6000620122e3620122d3670de0b6b3a7640000846200b72090919063ffffffff16565b8a6200c63f90919063ffffffff16565b9050620123137fcc1844e05103e114ac5c57b6e14b9353c4aa21e4abd2f19db836af419cf3f03a60001b62000f2a565b620123417f9963752e17f51aa9eeb12e1c6924dad4c48eae4968f71083e8e028abd5b277db60001b62000f2a565b60006201234e896200d9b8565b90506201237e7f1340ce85322f03821e054a70d2e1df08c84c2e73ea28c428c6b83a450c74a7f860001b62000f2a565b620123ac7feb7827cbdb8cabb927d4f6ae3af5355c54afa4506ed223027d9636684a828bae60001b62000f2a565b6000620123c382846200c63f90919063ffffffff16565b9050620123f37f85b9c9f9350a3481715aa825d3528ad1dae98d5bd6c17dfb98ae5dff28b3b37b60001b62000f2a565b620124217fc6eaa357995924f772fb8e26e93c04c147623a7d0a337bc1b7c4da7626360c2660001b62000f2a565b60006201243882856200b72090919063ffffffff16565b9050620124687f5c99068c255c93c31435feffff0bf8f88ebb2e4d6c5f2340046c696b99c5207160001b62000f2a565b620124967fe6f20880eb2c5c18a7de202eb7c56feec4595b696e72e91d3fd2382ba860b72560001b62000f2a565b620124c9620124b9620124a98a6200d9b8565b846200da6f90919063ffffffff16565b826200468490919063ffffffff16565b965050505050505095945050505050565b50565b60006201250d7f878dbd75182d11169cb6468e38c2070285b353a113fc0c0f4b4e78ca4107efa560001b620124da565b6201253b7fcf52ba1c3136b4366d77e6a3fd49e8232584096ef261e9b87ce00f0a2f8a931560001b620124da565b620125697f3fadda1085c3441ef2115201184f7120f4dba09084082ae4e6eeed1c40727c8b60001b620124da565b670de0b6b3a764000082029150620125a47f3c4c865f3e9a320aa8d2dfc77a8fa86ba841b120198928ed6d44cf8166871ffd60001b620124da565b620125d27f74a1d91c3ea4303862cdf8ec96351a9d9dd07e348a0263d0d65bffddee4883e160001b620124da565b60006ec097ce7bc90715b34b9f100000000083016ec097ce7bc90715b34b9f100000000080850302816201260257fe5b059050620126337fb02a1d305ed8612fb08f3b91318af1b7c6e1de56e50d18149e5bf2d56cc4e32760001b620124da565b620126617f64d39411ae3b76279032a1259eb31b90200c7cd93b1307d0b2846132e2a872df60001b620124da565b60006ec097ce7bc90715b34b9f1000000000828302816201267e57fe5b059050620126af7f9445b8db6848e2ac200a600306a0e74dfa1fbd16b1c352790326725057ebc4c760001b620124da565b620126dd7f04732a40f912844defdaac51f1a732fe5fc30d0c559ee46d2d4911cd505e96dd60001b620124da565b6000829050620127107f31f7e977e002f3022025dda5b7ea9008ecc0d2c679daa00d8bee57401d1d316560001b620124da565b6201273e7faa7bffffe28aa01279ed79e64a2829a44787d9a1a85600be7176613880bd7e3b60001b620124da565b6000819050620127717f0ca25b8445a81872443a08a7deabd97122bc85703acbd7cac917257e7d40fbdd60001b620124da565b6201279f7f80cd9edc12f986cd2b2254624da7f7e4c7a13b9ca0265cb118f1f560bda113a860001b620124da565b6ec097ce7bc90715b34b9f100000000083830281620127ba57fe5b059150620127eb7f2434d8bd5444b7c791edcb33c992e3e0580d6770ac636595df9af649fd45f39b60001b620124da565b620128197ff4b44251ea6639e79cf51957737ddab7a05f8d61bc0840416b4f80ad42b02b1a60001b620124da565b600382816201282457fe5b0581019050620128577f44ba7a842c4fa27b8ef073a26c244c41ba1a11e3343f6f9e880ee3efa5b986d360001b620124da565b620128857f881a7507053576bc7ab3310b30ecdff4366715dbc22955ef62902025243d448c60001b620124da565b6ec097ce7bc90715b34b9f100000000083830281620128a057fe5b059150620128d17f5cc7b54bd8a3efe7bb82e35745724901b942f3b30d9c179b13112065f2bf54a460001b620124da565b620128ff7f6b09c0a494d694b9017dab9b538cf50dda0d4ce6fcf7c191261d56811a9b1eae60001b620124da565b600582816201290a57fe5b05810190506201293d7f67e7eccab0966e707ecf96650686e0c490d93ab40e5df5241b64db9a9ea2428260001b620124da565b6201296b7f5ea6654204c898adce6ede171fa7ddf03bdffa537294fd486d85b453feeb2d2260001b620124da565b6ec097ce7bc90715b34b9f1000000000838302816201298657fe5b059150620129b77fc359e7f0fe751ed76ebbd41c54974045b448505fd37771931beeec37bfc0783f60001b620124da565b620129e57fd160bf175438cbadc9c33c5adc1bd2e777bee2efe0cf4a568d100f7be416c7c060001b620124da565b60078281620129f057fe5b058101905062012a237fba657166d1bb96b631caa21e09ab3333b868325c9e93d0d7c4dd2076b424e80d60001b620124da565b62012a517fd4b8e0eeeb75582255d7ba8141e0026e06ea26db9bfae0e9f3ed07bc1925e86b60001b620124da565b6ec097ce7bc90715b34b9f10000000008383028162012a6c57fe5b05915062012a9d7f69211bc47fb802aef4fff41bd4d89e8ee67becfd894366ca78c7acf3cadfec0a60001b620124da565b62012acb7fd2170375c1a33f1b85ef30331cfb09a299b05c120505de2e6f74f25a4381f5a460001b620124da565b6009828162012ad657fe5b058101905062012b097f2147d71f78b226ea8564375b984f37938e9d74c4e675da9059e6be15783ef7f860001b620124da565b62012b377f36219ac4352b474957ca6f46d9dc10ba51ca26ddffe5bef9a9904ed48b94688260001b620124da565b6ec097ce7bc90715b34b9f10000000008383028162012b5257fe5b05915062012b837f66175e9d1eac4fe1d87d9f46e716cc9764eb6a6ea9266bafb64d32152255537360001b620124da565b62012bb17f8b2dcbd8b3bdda835dd0b219131d30ff05d9c603e40e5e19d9697cc63b902e2d60001b620124da565b600b828162012bbc57fe5b058101905062012bef7f95679c79ff9167866ab81e5affea2e82cdffe07280f62efcce7fbafd5177f40260001b620124da565b62012c1d7f5ca7e75f15fe66bd55391e5d94d83afe99c5fe750cac1cf7f188a65caa8b731a60001b620124da565b6ec097ce7bc90715b34b9f10000000008383028162012c3857fe5b05915062012c697f4d3d0450320262ec71b72fee282a4fdb28093d3d9ab7454b7702f4a6d90149ee60001b620124da565b62012c977f70c78d2b1fb3cc25168a54f3fcaaae66624d4c58583d2c2cea6cb7078e7662d160001b620124da565b600d828162012ca257fe5b058101905062012cd57f6efe0404f3cf3850c7045c85a572093a73b99e44bcb2e17bd85e8ab8fe2e146e60001b620124da565b62012d037f6ea24d886383470ea8d50a9d54146f22f4183ce7faa564b937422cbe3a31709b60001b620124da565b6ec097ce7bc90715b34b9f10000000008383028162012d1e57fe5b05915062012d4f7f53ba805b34a2e873ae264aee577d2eba5398265eda1814f55f60c534a07522bb60001b620124da565b62012d7d7fb2a8d8de8c01d550fcdb7c81fbd4b84488e80841c9c780e8b40a93d3872284c760001b620124da565b600f828162012d8857fe5b058101905062012dbb7f0bd9bc1ed84d46d259127ef65b8e3d3e67ed19eb1efe97b8934b20b72429997260001b620124da565b62012de97f2cdfb68cefc5ae049daa48dde3e333f3c71094b2a49e9347cefbbd9e0a9f00ff60001b620124da565b60028102945050505050919050565b600062012e287fecc77b033a29d74e33dd4abe85f8eb70815aeba9e4bac926898327ac3be4b8f360001b620124da565b62012e567fd1bf58f14d30ec45c59a075b20607d54b9c0645be47c51dccb974fd74b918e4160001b620124da565b62012e847fb7e77273758c8f1b1167b33a9d3c9784a7eff80f06a053f49027c16b10fdae9d60001b620124da565b670de0b6b3a764000082121562012f495762012ec37f03990bb6672ae8d5bc44835763d88c5e3b06636067e317df6d9d7a24e818a1b960001b620124da565b62012ef17fb4d24ff997e553acbac719b4050d5f7a67340a1153c3d0e5b58e42d1a97d403160001b620124da565b62012f1f7f9343aca2ac0216fb1bc6abbbbe349687b179aa281b90c9a16a003ab63ecea38b60001b620124da565b62012f3e82670de0b6b3a764000080028162012f3757fe5b0562012df8565b600003905062014c52565b62012f777fbc178d8ab74e86929f080dd82638220c59546b4898e89154272cb85ec4e506a660001b620124da565b62012fa57fc25387c0a83078394744caf630f322a44b35d75b7c03154f68a727f8428ff3d460001b620124da565b62012fd37fd5100a8424331f4f75bf8f7208773b083324f3a81a80dde35bb80ef9286be0c460001b620124da565b6000620130037f33e80997264912b44db3023ec34f5e913b6f4f8e489b776fb9ab65985f7fe9d960001b620124da565b620130317f590005f08891cfaab908ea55e28c26f6acc2782c5c3375e1bc5d90e25baf19ca60001b620124da565b670de0b6b3a7640000770195e54c5dd42177f53a27172fa9ec6302628270000000000283126201317a57620130897fda7c2b3cf0cc7102cb557ed8005cc75781a193a0b744d47ce26e14bda3fc868660001b620124da565b620130b77fcd148570dbf475cb9e0a35ff028069c8b19b19de53ea88a1d45cd8660e08fd9360001b620124da565b620130e57f9332ce97bca85a297f29bb59f4965244b555ab0003e354be447099141b48a9a760001b620124da565b770195e54c5dd42177f53a27172fa9ec63026282700000000083816201310757fe5b059250620131387f6124b65b7763ecfd58e70ea6d57d78826b28839ef428daf402530b48dc006c7c60001b620124da565b620131667f79885c84b7a285bcf408b37e144226ed068ac73408dea6b74ca38657de7af0bd60001b620124da565b6806f05b59d3b200000081019050620131a9565b620131a87f5b2e8b47c063ba9ddf9895d4519474e0bbad0adf399c177ddaff9feb8ad42de260001b620124da565b5b620131d77f1f3e31c8d0be15c54c0939d2f33de5a66145bbf4e39f3efdebead140e51caa4c60001b620124da565b620132057fecb2b1f4b7cec7ea8bbbb9050b4f7f9a9f2748bdf17d3c291bcb5d502f58f96b60001b620124da565b670de0b6b3a76400006b1425982cf597cd205cef73800283126201333657620132517f1d6684b3fc873897ec4e0380ef2e0ce7b9f9058616bb6f0015e648600a7f6f0b60001b620124da565b6201327f7fcd72d2c4e35d731106a7a08750fc74c5f7fb69a608d0df838f1792705b369ca660001b620124da565b620132ad7f406812009aad2b40385da00397d7ec5f450f213c0b3b85ab5e92f2e2a843bad760001b620124da565b6b1425982cf597cd205cef73808381620132c357fe5b059250620132f47fb0995a83058ca31ac8624e4a68448556ef31ed4f570cb40025f0a5a09e3a631560001b620124da565b620133227f35df840b42a9145d6ee285270d0cd8a395d84810769b353c760b9c20ae16f5ca60001b620124da565b6803782dace9d90000008101905062013365565b620133647fa94c6b9b5a805db25a28082f021a6d6de99c51fab6c643f4a13eb55da42c007660001b620124da565b5b620133937f65847ff29eb1a52003d690ab8190951fbf4f01d48df56566f179004ba8b307c660001b620124da565b620133c17f9f31c8b122f751e33f63d6880f9059e843cc41786cad59411853e862505ba40260001b620124da565b606481029050620133f57f74899189979eb1a55c01f0b4fee049598f40edc6e83bd697789f68a5f35b2a4360001b620124da565b620134237fd68cddf915aa92a7015a22cc37156bef6eedc9370809b23d90e89934bfc86ab260001b620124da565b606483029250620134577fdcb59718759577ae01517084240cf091dafd92c6662707e2a2d7c99421d457b160001b620124da565b620134857f442b12b25733e5032f3d1118f6c822932aa8e68c3573144483dfaa5992cfa7ea60001b620124da565b6e01855144814a7ff805980ff00840008312620135bd57620134ca7f517d701ba4bed5025e356f0465ec2e393a96e7e46b3a94ce3b1c61f628886a4f60001b620124da565b620134f87f38c1bda640bb460e0b0b91958dae86f4ae448e2e9afab267985a91fab526e85460001b620124da565b620135267fe9668e91a8545913d37f858da33ed2556043fdfbe5b31c3f3512d3f9cbd8bf7860001b620124da565b6e01855144814a7ff805980ff008400068056bc75e2d631000008402816201354a57fe5b0592506201357b7fd390b31746ead49deb096735e86bd3a237ed02c3b9a93f5e184acec961a3ab5860001b620124da565b620135a97f83d399164d045afdc990adeb5547a99d77b6e938cc8bee04efb39fc742d1143560001b620124da565b68ad78ebc5ac6200000081019050620135ec565b620135eb7fc674803d87b944d844c9245cdd2c8b09e25dc9b73e4beb1cb67d529ba0b924dd60001b620124da565b5b6201361a7fa1e2bb1345e3007cbd5ac4dd9063e8231f054c2a18f864586186da78c4a192a360001b620124da565b620136487f34746ef9d7116ddff8b8552fbafbc09f78d3cd5560a3819038cc98864e640dbe60001b620124da565b6b02df0ab5a80a22c61ab5a70083126201377a576201368a7f43c2561fa677b9965dcb2982e9739cee5574471a0316d18b178ead0ea0dcbe7960001b620124da565b620136b87fdb7e7cd63f04b13d646ff83f968c2391a7dc04201b2ab46f4c6f05a2f5f4c19e60001b620124da565b620136e67fa51301f0c721792a305d53938cbe25c60b60378307f5f25c6ff366c81961a97960001b620124da565b6b02df0ab5a80a22c61ab5a70068056bc75e2d631000008402816201370757fe5b059250620137387f11fc776bbec2628286b2b3e91c8540150b1f64508f26aaf3b42ab58a1fba282d60001b620124da565b620137667f7aead7559accf21b41f5ead9612a4ea682d12e908fa465b88f7d002ebcf32d8360001b620124da565b6856bc75e2d63100000081019050620137a9565b620137a87f91d5f33e94ec1de2885dccb316b2d57c46d15a0170029e34963bb1a728af22eb60001b620124da565b5b620137d77ff93d78aee895f4f8c20809b09fe8e2f8ce9bf3108aba97eea09c8813112de8d060001b620124da565b620138057fcc17545d83aa93fde97d49a674f70b12bbb08b356adcaa92ad52dd6dee29defd60001b620124da565b693f1fce3da636ea5cf85083126201393357620138457f442d0cbd39255f4993bf72b4713cb8405cf2c16bc11f2c896b76edf1c70f594760001b620124da565b620138737f05d5d3d4a55dbe9cd78a9bc82c6e7043997d171541c049ed29c0c95d1b73816460001b620124da565b620138a17f52087c8da278fac08437ac36aef19bc7093b60e42264611247e8b8cd5cebfbd360001b620124da565b693f1fce3da636ea5cf85068056bc75e2d63100000840281620138c057fe5b059250620138f17f549e28f6477e1075442c24d186d6c4e4f5189b494fbd9fe4b36cc31fae7c05b260001b620124da565b6201391f7f112289d07b1152c263915e888ef487d4d8885ce824e2d55b2cb6669f6642d7f160001b620124da565b682b5e3af16b188000008101905062013962565b620139617fe8b34c3e3d49638df8de9456cd63e124667dd843906ea9f8ee14e2ce321e254a60001b620124da565b5b620139907ff82a94d46fcd7c9f1820289fd90f20ae33d1d493fbb00e7f6ba6abc237fbe41860001b620124da565b620139be7f5ac5ef8e9713b3c5c621dee821e1e2c1a6b84179fb1577d53c349960b0fd4e1860001b620124da565b690127fa27722cc06cc5e2831262013aec57620139fe7f6f6a886c84e94c8efb34a064ec83101adbccb0130259a0c9c9aeba966844d6b860001b620124da565b62013a2c7f0ae83707e3703e28a5aaf44fc171aeb9c3f9e213f4d3a340443aae5d10f9d8f460001b620124da565b62013a5a7fd06eaa9fab42ba2079c671a1215b3d318c47bcc5360f042352f800e81bfd106860001b620124da565b690127fa27722cc06cc5e268056bc75e2d6310000084028162013a7957fe5b05925062013aaa7fab572d90bfb9c124d9484929548ed41df1b8057da1528ac63c585fd764fc0bc960001b620124da565b62013ad87f126ec8a75e70653075e105f551273140adfb3d0a38f2ba73601c089b2ba3ee9660001b620124da565b6815af1d78b58c4000008101905062013b1b565b62013b1a7fac7710080525cd4b036f5e3e771adfee143ba94c2f34ccd1d9af4f55101d2e3160001b620124da565b5b62013b497fd8f529777bf3c5fad19f92c54e089886622c45276cc59f248c85b2114c58712b60001b620124da565b62013b777febaf06d46b7ac1bffa21896bc5a2e4d54e403aacb2c67b4c83ffe4a8de59dad660001b620124da565b68280e60114edb805d03831262013ca35762013bb67fd782e28bfef4a9aee46768d5a898a8b0852461da94f77afb0b1a0db126d689bb60001b620124da565b62013be47f0f892ff33b1681c024af2b7400894f7135f713c1141cccea1d0f7a48e196ea6060001b620124da565b62013c127f016709195c863ff2b6e7a8709c6403df4fcf9410cba64aea4ea52e315107efc860001b620124da565b68280e60114edb805d0368056bc75e2d6310000084028162013c3057fe5b05925062013c617f8efbf0466f47ad7a3867b1aa6ada7ed9d3623d3e70e82363cfa48df94243b75960001b620124da565b62013c8f7f545cca4fcd599541ba46da759ff71fe69938d9f7b454fdf4c770c76de7c8def760001b620124da565b680ad78ebc5ac62000008101905062013cd2565b62013cd17fe6ae54cd7aba0dbef4ee458109eec68ead929bc09250ef073db32b5c40ee148d60001b620124da565b5b62013d007fce07a9f05073e0fbb04c6eb3f77d3dc7cbe60907e588c3792204756a0d6c74c460001b620124da565b62013d2e7f9496378a269681a74128a3a0379e6d34b9a1d67d89b07397f49bd9d793dc274a60001b620124da565b680ebc5fb41746121110831262013e5a5762013d6d7fc5d2fc1e632def828074f9d3e7bc33ce191c750973ebd6e581678f99ade4fadd60001b620124da565b62013d9b7f4988499741126d3df189dc4867ffc24dbfbc0cdf3757d8c80222db07a5a4557860001b620124da565b62013dc97fecc4cdc3d0d2bbb45def22474f21a421ed22ff3b870ca315df73a8d76d08754d60001b620124da565b680ebc5fb4174612111068056bc75e2d6310000084028162013de757fe5b05925062013e187f62f66c535864a306c6f871dbdd227a87145cc95a208ef1a546dfae46e1705a4d60001b620124da565b62013e467f5b19aba2b04fbe826218b1f623d7c42e19a8140f1794300b8fc9217288c9694960001b620124da565b68056bc75e2d631000008101905062013e89565b62013e887fbc7affa58390a36b001b871b8d6f69de575163c22b1a59cf1b7a4d4f85e682fd60001b620124da565b5b62013eb77f0ee8c156418755aa10b12b56b4075d4dae20cb18ce0042a13fb452f02c81934260001b620124da565b62013ee57fc0a6c3795d0b4f7bc8ec75193be9844d97db1520e3cb777e51e4f7791c89500860001b620124da565b6808f00f760a4b2db55d8312620140115762013f247f6e23fc2df3ca2ee9baa68f1d4f62afc51ca655a1074afa909f3201e70e891f8a60001b620124da565b62013f527f4f05315a3b3fba0b6470b79e85dc91de2340145ad04d16d6969d25212f62f57a60001b620124da565b62013f807f741781695ec4e7df21f5189db5ad56a7aa7318155a7e730026330fe97afaf87a60001b620124da565b6808f00f760a4b2db55d68056bc75e2d6310000084028162013f9e57fe5b05925062013fcf7f279db3ffd3f4dd1be2a357620fdacc6e6deb6b5e71cc4e5c43b4a9410a05f80360001b620124da565b62013ffd7f1c517488f9a09df6164abe953a6b6cc8adc9bcbd265287788e4776f4fa8917ef60001b620124da565b6802b5e3af16b18800008101905062014040565b6201403f7f128acb01763d599d53d763ec99c5056f35e62c8294de29ba909da64fe55a685760001b620124da565b5b6201406e7f47438626899ddae4ae4df845f95be06614408c9a9e4a94f0654c8f8cc44cb90060001b620124da565b6201409c7f9d83783b28782547e736f3c8bef1ea97ff44c5737de1f3ff871fde5e435c5de060001b620124da565b6806f5f17757889379378312620141c857620140db7f1ba49dd74c222a2fbacd1a9671051d50e5049a5c6851391e0630c9e65aae9d4460001b620124da565b620141097ff6c87b67d510932081bb6b67e2e89f8bda85c25c3685ab4f00cb85920e893bee60001b620124da565b620141377f36e669280932996637ebf415b2033e56ccf79f34e9275eb919dc02f4348aa32660001b620124da565b6806f5f177578893793768056bc75e2d631000008402816201415557fe5b059250620141867f3ba823a20a274f86c51e6da2a7b9ced7a9b02d3c2f2bc4eac60c65f4ee43d36460001b620124da565b620141b47f680b5be9b864a3215793eee1686780bf4de2feb1af1c045d11b74dedb4639d1860001b620124da565b68015af1d78b58c4000081019050620141f7565b620141f67f641f4f142d168f008e5c4a8eb26b1ece3f09c0c5fcd152fbf243d5f03e27690b60001b620124da565b5b620142257f97238392f7dab2d4a38a1e8766a2f91dc7fc323f1c0b8799f39865d92645947d60001b620124da565b620142537f46e21836a4624f05f470b0dac285147aeb030bfeb741790739d8dee386f87c9160001b620124da565b6806248f33704b28660383126201437e57620142927f746529c844954dbb560816e98110ff01413c1992b207c5d6f2ece35bdbddcb5260001b620124da565b620142c07fa66b1a039aead98f4863ff8127d8f61dd7908e916bd82aee106a55698f12dee160001b620124da565b620142ee7fdbab046d8ed19cacf85d0bc9759bd8bdf43b38d2f3fabb52dde10067d6bfcf9c60001b620124da565b6806248f33704b28660368056bc75e2d631000008402816201430c57fe5b0592506201433d7f0551d2027d1cd7234ca5d68eab1b648c336597f3a74c907cfbb4ebc6eba4d5d660001b620124da565b6201436b7f37344a9f97a81da97f5ba00450e8a23ff354c2421b31e528ffa110cc4db8a34460001b620124da565b67ad78ebc5ac62000081019050620143ad565b620143ac7ff674a42d154cb66872ba9f79c8e7daa8a47135e28cb86287f53f06740d28e97760001b620124da565b5b620143db7fa7c423bb0f8cf8830eab442eba3d4fafccf8cf1d2d6783e8b5454b13e5ed48a260001b620124da565b620144097febfa51e705881c3b2e2646e69a480fdd41f3db224dec81f2060c3e46f392380160001b620124da565b6805c548670b9510e7ac83126201453457620144487f1af473fbd540fdc463f8a19cc88164cecf0c207df6d35ee7c801f4fca82f5d1060001b620124da565b620144767f3bd02a93ecb637b9cdcc032e0c989b60e58ee886c0b84e5dec7747410baef6a560001b620124da565b620144a47f1a4eb2af33cb0dc722803838e5f2cb41743b47e066aa6d5129f720c81e8b861c60001b620124da565b6805c548670b9510e7ac68056bc75e2d63100000840281620144c257fe5b059250620144f37fb08f47db9f6818aaa5f6dd538ce1c206bec429d3d45ce83a0c3bc48ac2867db460001b620124da565b620145217f38b1e4cd02468c5fc8a3112c81c1cabe24a10ebb6dda491d3412e99469eae05e60001b620124da565b6756bc75e2d63100008101905062014563565b620145627fe1bc13ff6fb846b6aae88fe2abe49e653d3b866d7bc697cd9cc7e8956929923260001b620124da565b5b620145917f3d9bd3c418e5016f58b17d9b9a5a0ef229efdd2e10cec9b07d685858c903d1e760001b620124da565b620145bf7f46b28d214e0c40e3e9e54d5faf34c8c5252981298d386e249d13a70a57a4d4d760001b620124da565b600068056bc75e2d63100000840168056bc75e2d631000008086030281620145e357fe5b059050620146147f3dbebf6c9162591b4ebd33e30982a4a071b9aa6ac907568549984b69d7b97d9460001b620124da565b620146427fc2198d1c948b59bdfda1f1443f4529dda03e3bf76a49c4334577e262024507bf60001b620124da565b600068056bc75e2d63100000828302816201465957fe5b0590506201468a7f8b328398f0bc3f3e114cc30bf414a9118f11c0c53b9607826adbf177d7234a6260001b620124da565b620146b87f23a957cfd7f2a895e23e72bcc64a67ca847eed7acbc47b30dcd33328f9ffd91260001b620124da565b6000829050620146eb7f75bc76e46db3d9980693392d8fbe0d80bfa1afe3e6406b3b7420f5ed6f9d2ef960001b620124da565b620147197f5e4f3ecc30d70c9e9225fa17def48f80d464a55ae8ca87ef8e015b2625a8e2f660001b620124da565b60008190506201474c7f9861061fa4e17fcd7477afb994b0f754fe0555623867e0db5114e9a84b0e381060001b620124da565b6201477a7f0b81c6d481d565d1a5c32a6c452da8172217545a4a77846c606bb4104790397660001b620124da565b68056bc75e2d63100000838302816201478f57fe5b059150620147c07fe7cb73b74ee9f45f8e445ac52fc1919100dc1facd98e515cf01b35f4657b6e2960001b620124da565b620147ee7f973151ec731d5453cf2b07002fc6d04a394c44be197ce37e5740d2c7a2d00aee60001b620124da565b60038281620147f957fe5b05810190506201482c7f5853551f5603a6017955792df373d6912f222a2635139a0e449ea332cf449d0460001b620124da565b6201485a7f590e1c09210e851786c5660ce93eabad67c6ce708b76b93c7020b8f9df62056060001b620124da565b68056bc75e2d63100000838302816201486f57fe5b059150620148a07fa09473f57235fb4e547c1df454d2250bce8cfd4c1307762bfa80bf8bcd13d71160001b620124da565b620148ce7fd01404210437ad5a168e9010b09d02e8020957dba687f82bf2e2dabf228dfe5260001b620124da565b60058281620148d957fe5b05810190506201490c7ff6c70604248ac19a52cc438deb376ffdee8c76671b0854b3f277ba47782b6d3960001b620124da565b6201493a7ff949ba52643cc6c78a8bd96d87f384ab359055e057da843c887498726926f0e160001b620124da565b68056bc75e2d63100000838302816201494f57fe5b059150620149807f3e48e16f40e52c258a85b58f4a2049f09c90985f0af8cafb5995af5184b444d960001b620124da565b620149ae7f9b81c6cb4ad498deb2f942df5f1acfcecce4394094af2276c5cb241a475f051960001b620124da565b60078281620149b957fe5b0581019050620149ec7f14ceb5f280509ac53ec01e498b76628182c763cdea88a3dd6c3fe0302f89b22e60001b620124da565b62014a1a7fa28acd8a1d51f8f00861a6ba1439782c53410423c9f1c9c5252ff9ee917b613760001b620124da565b68056bc75e2d631000008383028162014a2f57fe5b05915062014a607f0cb759739d9698314564435fda44c50f91e0c3edee52c8339fd524d2c703aef760001b620124da565b62014a8e7f41eb74299bd88211996e23ea0cdc256302c89c23b2a812cd6a260d41a14d6cd460001b620124da565b6009828162014a9957fe5b058101905062014acc7f5289bcf47dc32c4e7e226d31dedabec2da6841c9966cc6ea8456cffaa04800ec60001b620124da565b62014afa7f8a8c7823359f348dd6335d6d865df24fd35f446e45356a0ea82957b764e0292660001b620124da565b68056bc75e2d631000008383028162014b0f57fe5b05915062014b407f2cfd648bc3944426a52aa7739c0344437314b2c41c2d473ff352f8c98aefe8ca60001b620124da565b62014b6e7f76fca5d622e3a2d40c4ec29b2ab56c209f3abb25e430be9518e091190111822060001b620124da565b600b828162014b7957fe5b058101905062014bac7f17016eaa3f0c430baeace1b9b0aa07d72d34b8fcb445aeffba692833fe16e6ac60001b620124da565b62014bda7f33f0ef55d351e7fdd7fa13a2376e75118c512c087450d7f2f20773ee5a8f3d0560001b620124da565b60028102905062014c0e7f549ddf4d2efa67d866330fa46c38f1d96c9c8006f727ab4c976d74fa649a71d360001b620124da565b62014c3c7f57b16f52181747e1a9658401c64b43ba63512d00488614ef91db29c3b790a86260001b620124da565b60648186018162014c4957fe5b05955050505050505b919050565b600062014c877f8f9957956285fa36aaf574af5b32355302daeb041d9920de1237aeb9c5bd0fc560001b620124da565b62014cb57f049adcef04ddf4d2d541f2ad2e7b0cb2e49f45ce33e82b917f39ce4661c56fb160001b620124da565b62014ce37f31362ceff8fe74b0dac8c6d98041f46dce294d61d691bf77a6e3102e98a4960d60001b620124da565b62014d297ffffffffffffffffffffffffffffffffffffffffffffffffdc702bd3a30fc0000831215801562014d21575068070c1cc73b00c800008313155b60096200515c565b62014d577feaec38791fef9244227a2ac9c89991aa9c3e6eda434a80233223b5eca079a5e960001b620124da565b62014d857f0b54346d0dfe62f72284a3c75473334476d66c4469f11bcb760a40ae4cfb68bc60001b620124da565b600082121562014e435762014dbd7f96954f28e83ef514a5a7abe216bcf324d3fdfbe3f6a18be7a718c53286e53b6d60001b620124da565b62014deb7f463dbff911b02742b5684b523b26e12b3cdc3bd0501d3eb8f5afebc4c2def0af60001b620124da565b62014e197f40035bdb11894c0908058a5597e77e5553b40c454dc865283e53ce2e02f1445c60001b620124da565b62014e278260000362014c57565b670de0b6b3a764000080028162014e3a57fe5b05905062016c92565b62014e717f0f3836123227a0de7a4c4df6d4d4feca82c8bf770aa6e542a3a07616fe30614060001b620124da565b62014e9f7fda299c831b49c4a6e67502e93408e9ecdd3f8985dc9c4240c853d17c9d85f9f660001b620124da565b62014ecd7f3e1263d6a747804fa9f1a51a9eb15d85064841e996125ef260e9dd251e41a88d60001b620124da565b600062014efd7f13df8400d288418b9029209525f41b317b2c4b9b82d6c4121ee38860550ecab660001b620124da565b62014f2b7f18be439d287dfd168580f3e3a36aeb782189558298466857798d7ede0327b8ef60001b620124da565b6806f05b59d3b20000008312620150515762014f6a7f77b0d1d0dd6059a9e0d9f32111c24f76b9e9f87cbc63515acd5b75070e39756860001b620124da565b62014f987f46d0ca777ee0ac966c329bf1cffe6853f6eda5cfd758fc88c99324ce6b4d501f60001b620124da565b62014fc67f8a2665721e1b356ce501effdadcce8aefbedf2eda207e46f87ec7348f89e809a60001b620124da565b6806f05b59d3b200000083039250620150027f8ce0e0f632ba31c6974e75e11700c14fb1b5480bc715658835b1732ecabbe81860001b620124da565b620150307fc46c62d44f13b1e633d72f26f59aa8fa3d140557cc5dd523ec18a4f8e9c6e9af60001b620124da565b770195e54c5dd42177f53a27172fa9ec630262827000000000905062015256565b6201507f7f4caa899a161097f7c15c9e40cd465eba2c7ea889d70a5f2b5372beba85aafbf960001b620124da565b620150ad7fc11f2b0d6957b1ea63ff257484fd21f83d16757118c6f844938dd8e3fe169e5e60001b620124da565b6803782dace9d90000008312620151c657620150ec7f77f1827cc40ee4278fd35816afd5b948d67bfd4bd8dede0ad4b3b65b704559bc60001b620124da565b620151197e7472974ece765a6511ef28cb9b3cdb93509e7d3d6b2543a463b0fd9ea5eb6f60001b620124da565b620151477f23a62202ad8d5e6af5db7371e1a41939fd3ef374184a95d95c542d6a0e02399160001b620124da565b6803782dace9d900000083039250620151837f670b6e2b3acc0ad997eba051913b0d53edeffade5ee29432c993ddee9e9c030660001b620124da565b620151b17fd1e64ae3de1aa103b81dd167c133e2e995786f074c540cc9f1836e91ac35d27c60001b620124da565b6b1425982cf597cd205cef7380905062015255565b620151f47f911480f5f1c126514d11fb5dcc18a411504dbc69e15a36c6b393ec241023762d60001b620124da565b620152227f7d061d37609fc5aab6b42e38410857a1b5f5bc7b941c31475b6bf5144ac8b60260001b620124da565b620152507f52cf895b816ba855b556bd2684e72ea44a744b4c358c564099eebd603098e16760001b620124da565b600190505b5b620152847fbb8a60f80d3b49dc29a85e7433ce43927e70fa829704b97d288c7f7c3bde638f60001b620124da565b620152b27f86b7d3837b05095aacffb9f3c610a36ec43d94824b4d1b35f94c5bebb9a650ca60001b620124da565b606483029250620152e67ff0a4f8500e88b232fab07586e1b2e87a8c7806bdb2ab1eb6efff6f85234386dc60001b620124da565b620153147f1a5223336d59fc4292449a1e644e71d22ddc1b73c058d61ef4425f28b9d9d82660001b620124da565b600068056bc75e2d631000009050620153507f8a0d2c3fe2867eabbb080a815408f474966a2424dfc32dd32f36eef73de606d060001b620124da565b6201537e7fc092be2a82cb76747d6baa54343af5168e18c341f67046d6bd33cc47ba1527e960001b620124da565b68ad78ebc5ac620000008412620154b057620153bd7ffc88ed4b45c9517c657dcc21025aa285327fd6ed9106b840a22832815758776b60001b620124da565b620153eb7fdbda1f49372ce70b8d009669446d1650b9cf5e6efdca38bf7fa2a148ea49240e60001b620124da565b620154197f32c60df886f45af987ef2eb53fd88e7e93f1dba954890d791b421cbb3fff276f60001b620124da565b68ad78ebc5ac6200000084039350620154557fc05771c55ce6ddb14e1ba8c0fb104578f6e91c74367ddd069a2657be5e4642c960001b620124da565b620154837fada9608e6f169e501d91db28c2af86e899704aafa89771ebdd011db05f69097760001b620124da565b68056bc75e2d631000006e01855144814a7ff805980ff0084000820281620154a757fe5b059050620154df565b620154de7f100920b793e8e6f00887b4382e2dde747dd3366702b620b02cc16d3f6b6941a060001b620124da565b5b6201550d7f772bebc08a73d0af3bd359ee45021ee9c1f7448e08e424cc43c5893b4e0f88f860001b620124da565b6201553b7fb7f799aed614a91f2c04467d974a4393f0b3ed6fe1dc13433da4f6e9b263fd1860001b620124da565b6856bc75e2d63100000084126201566a576201557a7f1781ea8ce066eedcdd99bc5b0753cd1aa8081f4d8ca6456a341a9bd134dce99260001b620124da565b620155a87fa0030d8f855693f4a88849f53c4371f951e4c48a42c0f36cb49aa52f021543c660001b620124da565b620155d67f2b119df580aa19f713706ee6d4dc52a1d0a50fae26f20a71a49037fbae1c760d60001b620124da565b6856bc75e2d63100000084039350620156127f43ffeface76e9414d9a189d09e296a0ddc6f449e81381261fce710fa508ed08360001b620124da565b620156407f19a36337e3a11b47c83a025d282ee671c47dfdabf3ad16d3fe004cdd88cea06060001b620124da565b68056bc75e2d631000006b02df0ab5a80a22c61ab5a7008202816201566157fe5b05905062015699565b620156987fe044f0923fe075d9ad4320a302314d74744dcefe6f0b58e6ef0e06381e888fb260001b620124da565b5b620156c77f06a96c15493d3dcc9dda194a53b4a87ab1f3c607d23b16ea2c20c4a7d8ff72b960001b620124da565b620156f57fd34a51bd6aaf179ccd334f382c76a8c37d8856e1b95fd68ac4b40c77c105cf5a60001b620124da565b682b5e3af16b1880000084126201582257620157347fb6d6edb87705138d8e1cbbc1dccbe061c1dadb180f7778f4cc726320b8d721c460001b620124da565b620157627f7dd2e73e2c58ff529afe93484d2acb33083275bfebd91432cb697f91a7cf921f60001b620124da565b620157907f0c32443a422d4f0750bb6961b94770ea095a571a7281bec1f34216b32693821960001b620124da565b682b5e3af16b1880000084039350620157cc7fba6c0da1226274d7f2646ca9ed997ac6db472a9a08abcdee25772a9b08f9b2a360001b620124da565b620157fa7feebc9ec539111233b16cb2a8932dc0a00e0b2a1aff3686af60cf5bea6e80f9ce60001b620124da565b68056bc75e2d63100000693f1fce3da636ea5cf8508202816201581957fe5b05905062015851565b620158507f766baf1e510161d499ddaafa4ec1ef27747f5c423e1ecdd6670356d80e04a53060001b620124da565b5b6201587f7f799f2bdbd7f4e0bc3f4b6d1f6f2beec73f8580686b8d5fc3651c24574a3bd91a60001b620124da565b620158ad7fe4cd49619c0294566c2d46190c85f3fe62eea8cdbb1b03a14cb056b1e57a05b960001b620124da565b6815af1d78b58c4000008412620159da57620158ec7f29fa92c76c94d1914b60f11e5875fbeeedb22eba504411034fcc00bd54172ac260001b620124da565b6201591a7f3243e27afc5b94243b0635ec2e0ebc12b041bd5b79a0c582621f2fe6cef2cbf960001b620124da565b620159487ff9f54d7a49e2a11e79efe2cabd1f89e7531eeddf7e4f5aa22f42be065f6e32cf60001b620124da565b6815af1d78b58c40000084039350620159847f6a40c31d583c08f45376066439d581c2340b4372733d735a75353a52b86ac13e60001b620124da565b620159b27fbd043cd79c279cd983a2d9f6d4190b0c6ed186942ea9774e0f30c762b805268360001b620124da565b68056bc75e2d63100000690127fa27722cc06cc5e2820281620159d157fe5b05905062015a09565b62015a087f3657cbecab91716652db7e1f2f279e0e26f634574d49cd42aab7d54cca69735e60001b620124da565b5b62015a377f1460cdf97cc2100f3a7fe4186dac7874e887d297e6cd5b99a7a17a25d558637960001b620124da565b62015a657f3dd3b92b58e40eee2f924ffdcd865c733594cbc86e02d507d6e1277ae942353060001b620124da565b680ad78ebc5ac6200000841262015b915762015aa47f4acafdbeee4d9ce0d3e76772d7d1d21a0d2175b48ae517da8bdd1b6c4123ffd760001b620124da565b62015ad27f01ceffe142409bf3cf5ebdc48936b3e68edd649cef6988200e942b078fa8106160001b620124da565b62015b007fd193243cbb4ae58aaf5634228de1bf49e4b2ce6298521d61e1532e746d51505660001b620124da565b680ad78ebc5ac62000008403935062015b3c7fb1abf1fdaa834aa673887dfa355f14eb2e596e7b8a9d572289327c598c51a4f760001b620124da565b62015b6a7ff9e7d07a346f6f68c320597cec43fa2cc755b541a674906fd21c21aafc4ae2ae60001b620124da565b68056bc75e2d6310000068280e60114edb805d0382028162015b8857fe5b05905062015bc0565b62015bbf7f15a137bff769aa084005ae4b5185bba69c84e202736211e54e38d758c378630660001b620124da565b5b62015bee7f54fa7e0db86e78b6f70baf303bc90c991a2ececa8e484af9603310a5e0a82f0360001b620124da565b62015c1c7fa74a830a9188aedb2c5ebbf412c1b50527bc908de936e66fc6d15779b0862ac460001b620124da565b68056bc75e2d63100000841262015d485762015c5b7f94c2c4dad617aa5d295e8e058b5810a56b8e5990c2f644e6a20a67b11a56910960001b620124da565b62015c897f34ceb71e2ffd34bf94bd706eb37886116cf408b82c4a97ad8bab881a1fe2958c60001b620124da565b62015cb77f35bb01650e15cdd5e58989429564bbb99d90f8d717a7868fb74be63857be56b760001b620124da565b68056bc75e2d631000008403935062015cf37f5d746d42d995fc1a3a7b021610151bac375e5196a3424b0b9c7d55062ace124360001b620124da565b62015d217f6ab7b1c5c9b345bdd310099bb00eebfbfdce48effb3e7b4a3a918bfc68976caf60001b620124da565b68056bc75e2d63100000680ebc5fb4174612111082028162015d3f57fe5b05905062015d77565b62015d767f649bcdc9a6124206bc6f4f558b0fe825be2e4fabd08a68f6885d5e16db60c4fd60001b620124da565b5b62015da57fbe28433d286b1a92f09f1d13fd3684d7e6d7ce4c75466f707961f369aac35b8860001b620124da565b62015dd37fb237c5955af52f1f9e51154d247bf874a84ff911c68abbbc1e815909aa6842e960001b620124da565b6802b5e3af16b1880000841262015eff5762015e127f78e2c12d16d60b3b9d1648c8a691efe6713b9f163b75898faee3abebdf529e6160001b620124da565b62015e407f9885c57261c446564481e425b772b7a21f7c629de9a4e25574d788feeb5d26dd60001b620124da565b62015e6e7f068bfc4e713ec324cecf3c04d42782773e433c703416d78738797ec0bc53ac8a60001b620124da565b6802b5e3af16b18800008403935062015eaa7fe166de5ee53dfed7de0f418a0134f2bd4046bf89aca9f58e331dfe144e64570f60001b620124da565b62015ed87ff36facc54b0c45a4cdd31265bca2d4a5b26ee39c5be818a0c1132f978a4d303160001b620124da565b68056bc75e2d631000006808f00f760a4b2db55d82028162015ef657fe5b05905062015f2e565b62015f2d7fbaf1bf92327508cc7df7230285f7d84c785d62562b887f68683f3bad6f14735b60001b620124da565b5b62015f5c7fb60aa888151c8f5e59244106f6570e0ad9394f262cf1959efe8b703e088478d660001b620124da565b62015f8a7f4d4eb5e3db9c55ac596df2c49a4dd6462202631599a9cde8d298939e9260fc3260001b620124da565b68015af1d78b58c400008412620160b65762015fc97f52746123d569ff0dce2117a49dd8029ff2a0556c94649b748f5021909d5996a060001b620124da565b62015ff77f61d22d5d4ac74eb55404ab7bcfd4013c0eb60d541ccbe94ecc016c290ac766f060001b620124da565b620160257fc44a97d95720ad6b3ab8e5a8ce5caceae02d4ed5f57c3be2ff2def8b27ff59c760001b620124da565b68015af1d78b58c4000084039350620160617f8bc3891fa09ef84924f2421116ef6dbc96768850a0020d29fd12148c8bdefd5160001b620124da565b6201608f7fcb35eb8810f8b9a056faf0bbe33e37713df7e78395e1da0ba74b93a68883a7dc60001b620124da565b68056bc75e2d631000006806f5f1775788937937820281620160ad57fe5b059050620160e5565b620160e47fde281447284ff5e39f9945d5f341b1e10147e1ae5d7f740fe0eed826ca276f1c60001b620124da565b5b620161137f6c3d7bad9c3490dd092874bcd6f2e0f9b7d3b95894caeb888e1ef9aec342f95a60001b620124da565b620161417f0343a1ad3d804c6e7e84510e004b2fbe93bdee6ab7aa3c168eb7c46421b2ab1e60001b620124da565b600068056bc75e2d6310000090506201617d7fb1c86b3a416276cf9ec0725776ab2b10c3a6414585bccff416b13a18fee6654160001b620124da565b620161ab7f31bff64911c48e5ab2826086c5c5c9225d05ccde14fb560f6f0974f3f6e8fabf60001b620124da565b6000620161db7ffccc57ca4e9d5d0d873419b8cfa6aa4916ea9ecc26f7b120ceb8e128a03280cc60001b620124da565b620162097f0d23a18b74c4a7d94820921482993a1ea146e5326e121075b5b01a6921b729b260001b620124da565b8590506201623a7f643509097630f7f84d1c332c9f26b00093c14152f6808b948529e4bc31718ad360001b620124da565b620162687f92a96b89af6d787c7e16806fffaa6eacc4c8270c8032582c7993085b7516b7f760001b620124da565b80820191506201629b7f0d3e7688d35a3e4f18a2ac9c5e137b2bcbca51156d62b9c1aef39f050bd23fe660001b620124da565b620162c97ffbf9b36da344cf4186c8aec55015c83aac0654ac2dd2706d8bcb4586a264940560001b620124da565b600268056bc75e2d6310000087830281620162e057fe5b0581620162e957fe5b0590506201631a7fc83f758d964329c7428a2d7d39d86de2c8f32519d290ab6943e27a7a34506aff60001b620124da565b620163487ff3112ebf07c3b73909838fdf4df2e5bafce0e08e734cf7c503556079d77f0cb760001b620124da565b80820191506201637b7f3ee4467f1ef97da236e0a3e94eee40f464dc71bba64f885d0f8461d05874f08160001b620124da565b620163a97f6096bc7ace726596002424a3b9e349a8e26344926f983e81d811725d059595b260001b620124da565b600368056bc75e2d6310000087830281620163c057fe5b0581620163c957fe5b059050620163fa7fecbff983fc5f8bcc0115f02595ed64027f0bf56e7223b6165fcce83f24aa04a760001b620124da565b620164287f1d973605626beb85fa127c1aac089feb8e5d1e1d031b374bdfad6db82cafd3e760001b620124da565b80820191506201645b7f3cf5676020562e7ae61a7f95b1822221f16c38216592c67a516cb5b59ae91f2960001b620124da565b620164897f469a69e535b4c592c46fc637936bf1b9411c9daf408778bf0b624aeeab1b2c9660001b620124da565b600468056bc75e2d6310000087830281620164a057fe5b0581620164a957fe5b059050620164da7f2abd7eea842b7cf43d79f60f9766c0a1a5d49c8fe0e7c20794913dc82fce914060001b620124da565b620165087fc87a3ab179c80e70d643c8f1e361f4abba57753d7550aeb34db3be57fec3c1b860001b620124da565b80820191506201653b7f0c9a86e308dba34d732c53e1e80dc897fd6afaa5dfbca2f765a1b5869506351a60001b620124da565b620165697f529eac863d5932d7551e5ea3725721d9910fde8a2a9e18a421bda514cd596e0660001b620124da565b600568056bc75e2d63100000878302816201658057fe5b05816201658957fe5b059050620165ba7f9fe142665cc17d5153ec6d4282486114d4f6fdde213ef857db2bc6b450cb190f60001b620124da565b620165e87fa3fb155142a78b479ccd9a568335885344c0d7436ead3aff5beb940a5359aa5c60001b620124da565b80820191506201661b7fbb653b470905eb3bd216408aa2097d9ef1d5d13fc803883032c1165297d2904e60001b620124da565b620166497f4c2935eb27af8fb030bc1df4c73cb0f54a80fa7280680a7e49aeafda4a2edd5c60001b620124da565b600668056bc75e2d63100000878302816201666057fe5b05816201666957fe5b0590506201669a7f152f42edadecb0e84c28cb9c9ee403fb83a4ef4c51d3a55718526a2dd488fcc360001b620124da565b620166c87f3d49486f52a0303baba1e18b8066f9f573bccbf6f8abcf50af43d5e6ca39ee7660001b620124da565b8082019150620166fb7f5216e12e30a7d0b7e861fe5345aa633a512a1a049a357bcff95b2abfffef93c960001b620124da565b620167297fc2f056702ba08acf68fe96447aa441560e13bd6ffe7e86e8473a78d115f486a160001b620124da565b600768056bc75e2d63100000878302816201674057fe5b05816201674957fe5b0590506201677a7f821c119ab5c5636453c63fe757119ebf55fb85f599ec4fa8914997c951e2dae560001b620124da565b620167a87fbe6ef66f4c6c70a908522c256095a42a4e77ce275ad686d412e98514da89a4b060001b620124da565b8082019150620167db7f4ce84f4b2ffd61eae07abc068694640b29f212490d20df413ae72823a1d8f7a160001b620124da565b620168097f6fa5d0f4d3035b33cd33b100022ce1bb2f1ca639b8dccac9d267b7650cd92d8e60001b620124da565b600868056bc75e2d63100000878302816201682057fe5b05816201682957fe5b0590506201685a7fbac27bcadd1484a8b4129bb47ffc304eb5055ba4e2767e7968db7cb00c43438260001b620124da565b620168887fc3c299941fa08473656a8b470755f6b458446b5bb2230c9ec938c9a62a28733260001b620124da565b8082019150620168bb7f176c61c0309aee9295da8c4a5de9a0396328b41a48799e981f58e17049b46fc160001b620124da565b620168e97f29792597691b3b45f5bff6bd1b7789859f3f74a9d4b6df121910a5091266269260001b620124da565b600968056bc75e2d63100000878302816201690057fe5b05816201690957fe5b0590506201693a7f63bc6db288cadecce1de1c2c85e128bc860957bb267511b4cb2bd2fcb30b2b0d60001b620124da565b620169687f7f87c9eafcaa36938d859d1ce3f7049028f3be11ea3cf238b7ad92f6ad58619a60001b620124da565b80820191506201699b7fce1082bc222ee400625197f4df7329a3cbcab300b9647c1f573e9c4f3fa491ec60001b620124da565b620169c97ff3324d22851f2002242f05de4a8d66534aa653616c387bf5c20ff2e48c225f1260001b620124da565b600a68056bc75e2d6310000087830281620169e057fe5b0581620169e957fe5b05905062016a1a7f25cfd0481ff5f5439112b1fa835816ebe92c7a107ea21dc39bd53ea814ec383e60001b620124da565b62016a487f4147c7e14518a3cff420ccfef3ccbfdb4d445fd86637ff518933cb79ba49bf9260001b620124da565b808201915062016a7b7f645f5193200f1f416d90c810f34b94bc454cc93690635dbf5d483a2c58d5137c60001b620124da565b62016aa97f86e770773a60f7501e716b21ef3cff25f7e8542b5f204bf997daa8204ca80ed260001b620124da565b600b68056bc75e2d631000008783028162016ac057fe5b058162016ac957fe5b05905062016afa7fd6b13f61a9f53583c9696341bfe484fba793bfa873f6c981fb0fa6b7bc042de460001b620124da565b62016b287f61ed18988d398a0aab3f610e2258b05662c9289106a0cdc44fadac519c2d200960001b620124da565b808201915062016b5b7f605a37354163776655d25cb4807bbdb3ca196c47d17b111304e7dc20a3551bc260001b620124da565b62016b897f20845e0b12e8092e03f533f9c6c6256b72e5e04056dc51a4e4bdf4f06d697eb260001b620124da565b600c68056bc75e2d631000008783028162016ba057fe5b058162016ba957fe5b05905062016bda7fec397bb06417e8c0b0df999a994282899c1a2f5fd1821ac5fda7e777b71e9be560001b620124da565b62016c087f4afa5a40803c43b40ef9691176cca1ed268e955877b56d2911a52d5f77271ef960001b620124da565b808201915062016c3b7f5a9b8037d83916b7d6c8b04117fd374551db89135725300a20e57294cc0718a260001b620124da565b62016c687e819bd57b18678e2afacca60ff5d5797d6e803e54977ebf02bb1cfb7a038a3360001b620124da565b60648468056bc75e2d631000008486028162016c8057fe5b05028162016c8a57fe5b059450505050505b919050565b60008135905062016ca88162018002565b92915050565b600082601f83011262016cc057600080fd5b815162016cd762016cd18262017da9565b62017d7b565b9150818183526020840193506020810190508385602084028201111562016cfd57600080fd5b60005b8381101562016d31578162016d16888262016f3b565b84526020840193506020830192505060018101905062016d00565b5050505092915050565b600082601f83011262016d4d57600080fd5b813562016d6462016d5e8262017dd2565b62017d7b565b9150818183526020840193506020810190508385602084028201111562016d8a57600080fd5b60005b8381101562016dbe578162016da38882620170a1565b84526020840193506020830192505060018101905062016d8d565b5050505092915050565b600082601f83011262016dda57600080fd5b815162016df162016deb8262017dd2565b62017d7b565b9150818183526020840193506020810190508385602084028201111562016e1757600080fd5b60005b8381101562016e4b578162016e308882620170b8565b84526020840193506020830192505060018101905062016e1a565b5050505092915050565b60008135905062016e66816201801c565b92915050565b60008151905062016e7d816201801c565b92915050565b60008135905062016e948162018036565b92915050565b60008135905062016eab8162018050565b92915050565b600082601f83011262016ec357600080fd5b813562016eda62016ed48262017dfb565b62017d7b565b9150808252602083016020830185838301111562016ef757600080fd5b62016f0483828462017f98565b50505092915050565b60008151905062016f1e816201806a565b92915050565b60008135905062016f358162018084565b92915050565b60008151905062016f4c8162018084565b92915050565b60008151905062016f63816201809e565b92915050565b60008151905062016f7a81620180af565b92915050565b60008135905062016f9181620180c0565b92915050565b6000610120828403121562016fab57600080fd5b62016fb861012062017d7b565b9050600062016fca8482850162016f80565b600083015250602062016fe08482850162016f24565b602083015250604062016ff68482850162016f24565b60408301525060606201700c84828501620170a1565b6060830152506080620170228482850162016e83565b60808301525060a06201703884828501620170a1565b60a08301525060c06201704e8482850162016c97565b60c08301525060e0620170648482850162016c97565b60e08301525061010082013567ffffffffffffffff8111156201708657600080fd5b620170948482850162016eb1565b6101008301525092915050565b600081359050620170b281620180d1565b92915050565b600081519050620170c981620180d1565b92915050565b600081359050620170e081620180eb565b92915050565b600060208284031215620170f957600080fd5b6000620171098482850162016c97565b91505092915050565b600080604083850312156201712657600080fd5b6000620171368582860162016c97565b9250506020620171498582860162016c97565b9150509250929050565b6000806000606084860312156201716957600080fd5b6000620171798682870162016c97565b93505060206201718c8682870162016c97565b92505060406201719f86828701620170a1565b9150509250925092565b600080600080600080600060e0888a031215620171c557600080fd5b6000620171d58a828b0162016c97565b9750506020620171e88a828b0162016c97565b9650506040620171fb8a828b01620170a1565b95505060606201720e8a828b01620170a1565b9450506080620172218a828b01620170cf565b93505060a0620172348a828b0162016e83565b92505060c0620172478a828b0162016e83565b91505092959891949750929550565b600080604083850312156201726a57600080fd5b60006201727a8582860162016c97565b92505060206201728d85828601620170a1565b9150509250929050565b600080600060608486031215620172ad57600080fd5b600084015167ffffffffffffffff811115620172c857600080fd5b620172d68682870162016cae565b935050602084015167ffffffffffffffff811115620172f457600080fd5b620173028682870162016dc8565b92505060406201731586828701620170b8565b9150509250925092565b6000602082840312156201733257600080fd5b6000620173428482850162016e55565b91505092915050565b6000602082840312156201735e57600080fd5b60006201736e8482850162016e6c565b91505092915050565b6000602082840312156201738a57600080fd5b60006201739a8482850162016e83565b91505092915050565b600080600080600080600060e0888a031215620173bf57600080fd5b6000620173cf8a828b0162016e83565b9750506020620173e28a828b0162016c97565b9650506040620173f58a828b0162016c97565b955050606088013567ffffffffffffffff8111156201741357600080fd5b620174218a828b0162016d3b565b9450506080620174348a828b01620170a1565b93505060a0620174478a828b01620170a1565b92505060c088013567ffffffffffffffff8111156201746557600080fd5b620174738a828b0162016eb1565b91505092959891949750929550565b6000602082840312156201749557600080fd5b6000620174a58482850162016e9a565b91505092915050565b600060208284031215620174c157600080fd5b6000620174d18482850162016f0d565b91505092915050565b600060208284031215620174ed57600080fd5b6000620174fd8482850162016f52565b91505092915050565b6000806000606084860312156201751c57600080fd5b60006201752c8682870162016f52565b935050602084015167ffffffffffffffff8111156201754a57600080fd5b620175588682870162016dc8565b92505060406201756b86828701620170b8565b9150509250925092565b600080604083850312156201758957600080fd5b6000620175998582860162016f52565b9250506020620175ac85828601620170b8565b9150509250929050565b600080600060608486031215620175cc57600080fd5b6000620175dc8682870162016f52565b9350506020620175ef86828701620170b8565b92505060406201760286828701620170b8565b9150509250925092565b6000602082840312156201761f57600080fd5b60006201762f8482850162016f69565b91505092915050565b600080604083850312156201764c57600080fd5b60006201765c8582860162016f69565b925050602083015167ffffffffffffffff8111156201767a57600080fd5b620176888582860162016dc8565b9150509250929050565b600080600060608486031215620176a857600080fd5b6000620176b88682870162016f69565b935050602084015167ffffffffffffffff811115620176d657600080fd5b620176e48682870162016dc8565b9250506040620176f786828701620170b8565b9150509250925092565b6000806000606084860312156201771757600080fd5b6000620177278682870162016f69565b93505060206201773a86828701620170b8565b92505060406201774d86828701620170b8565b9150509250925092565b6000806000606084860312156201776d57600080fd5b600084013567ffffffffffffffff8111156201778857600080fd5b620177968682870162016f97565b9350506020620177a986828701620170a1565b9250506040620177bc86828701620170a1565b9150509250925092565b600060208284031215620177d957600080fd5b6000620177e984828501620170a1565b91505092915050565b6000620178008383620179ad565b60208301905092915050565b620178178162017e93565b82525050565b60006201782a8262017e38565b62017836818562017e5b565b9350620178438362017e28565b8060005b838110156201787a5781516201785e8882620177f2565b97506201786b8362017e4e565b92505060018101905062017847565b5085935050505092915050565b620178928162017ea7565b82525050565b620178a38162017eb3565b82525050565b620178be620178b88262017eb3565b62017fdd565b82525050565b620178d9620178d38262017ebd565b62017fe7565b82525050565b6000620178ed838562017e6c565b9350620178fc83858462017f98565b82840190509392505050565b620179138162017f48565b82525050565b620179248162017f70565b82525050565b6000620179378262017e43565b62017943818562017e77565b93506201795581856020860162017fa7565b620179608162017ff1565b840191505092915050565b60006201797a60028362017e88565b91507f19010000000000000000000000000000000000000000000000000000000000006000830152600282019050919050565b620179b88162017f31565b82525050565b620179c98162017f31565b82525050565b620179da8162017f3b565b82525050565b6000620179ee8285620178a9565b60208201915062017a008284620178c4565b6004820191508190509392505050565b600062017a1f828486620178df565b91508190509392505050565b600062017a38826201796b565b915062017a468285620178a9565b60208201915062017a588284620178a9565b6020820191508190509392505050565b600060208201905062017a7f60008301846201780c565b92915050565b6000602082019050818103600083015262017aa181846201781d565b905092915050565b6000604082019050818103600083015262017ac581856201781d565b9050818103602083015262017adb81846201781d565b90509392505050565b600060208201905062017afb600083018462017887565b92915050565b600060608201905062017b18600083018662017887565b62017b276020830185620179be565b62017b366040830184620179be565b949350505050565b600060208201905062017b55600083018462017898565b92915050565b600060608201905062017b72600083018662017898565b62017b8160208301856201780c565b62017b9060408301846201780c565b949350505050565b600060c08201905062017baf600083018962017898565b62017bbe60208301886201780c565b62017bcd60408301876201780c565b62017bdc6060830186620179be565b62017beb6080830185620179be565b62017bfa60a0830184620179be565b979650505050505050565b600060a08201905062017c1c600083018862017898565b62017c2b602083018762017898565b62017c3a604083018662017898565b62017c496060830185620179be565b62017c5860808301846201780c565b9695505050505050565b600060808201905062017c79600083018762017898565b62017c886020830186620179cf565b62017c97604083018562017898565b62017ca6606083018462017898565b95945050505050565b600060208201905062017cc6600083018462017908565b92915050565b600060208201905062017ce3600083018462017919565b92915050565b6000602082019050818103600083015262017d0581846201792a565b905092915050565b600060208201905062017d246000830184620179be565b92915050565b600060408201905062017d416000830185620179be565b818103602083015262017d5581846201781d565b90509392505050565b600060208201905062017d756000830184620179cf565b92915050565b6000604051905081810181811067ffffffffffffffff8211171562017d9f57600080fd5b8060405250919050565b600067ffffffffffffffff82111562017dc157600080fd5b602082029050602081019050919050565b600067ffffffffffffffff82111562017dea57600080fd5b602082029050602081019050919050565b600067ffffffffffffffff82111562017e1357600080fd5b601f19601f8301169050602081019050919050565b6000819050602082019050919050565b600081519050919050565b600081519050919050565b6000602082019050919050565b600082825260208201905092915050565b600081905092915050565b600082825260208201905092915050565b600081905092915050565b600062017ea08262017f11565b9050919050565b60008115159050919050565b6000819050919050565b60007fffffffff0000000000000000000000000000000000000000000000000000000082169050919050565b600062017ef68262017e93565b9050919050565b600062017f0a8262017e93565b9050919050565b600073ffffffffffffffffffffffffffffffffffffffff82169050919050565b6000819050919050565b600060ff82169050919050565b600062017f558262017f5c565b9050919050565b600062017f698262017f11565b9050919050565b600062017f7d8262017f84565b9050919050565b600062017f918262017f11565b9050919050565b82818337600083830152505050565b60005b8381101562017fc757808201518184015260208101905062017faa565b8381111562017fd7576000848401525b50505050565b6000819050919050565b6000819050919050565b6000601f19601f8301169050919050565b6201800d8162017e93565b81146201801957600080fd5b50565b620180278162017ea7565b81146201803357600080fd5b50565b620180418162017eb3565b81146201804d57600080fd5b50565b6201805b8162017ebd565b81146201806757600080fd5b50565b620180758162017ee9565b81146201808157600080fd5b50565b6201808f8162017efd565b81146201809b57600080fd5b50565b60038110620180ac57600080fd5b50565b60038110620180bd57600080fd5b50565b60028110620180ce57600080fd5b50565b620180dc8162017f31565b8114620180e857600080fd5b50565b620180f68162017f3b565b81146201810257600080fd5b5056fea26469706673582212200df19088fd35a212d24db0d1ca84ba03e65598330794bb235a520fdbc77a28e464736f6c63430007010033",
  "linkReferences": {},
  "deployedLinkReferences": {}
}