{
  "_format": "hh-sol-artifact-1",
  "contractName": "PoolPriceOracleMock",
  "sourceName": "contracts/balancer-core-v2/test/PoolPriceOracleMock.sol",
  "abi": [
    {
      "anonymous": false,
      "inputs": [
        {
          "indexed": false,
          "internalType": "bool",
          "name": "newSample",
          "type": "bool"
        },
        {
          "indexed": false,
          "internalType": "uint256",
          "name": "sampleIndex",
          "type": "uint256"
        }
      ],
      "name": "PriceDataProcessed",
      "type": "event"
    },
    {
      "inputs": [
        {
          "internalType": "bytes32",
          "name": "c__0x3897e264",
          "type": "bytes32"
        }
      ],
      "name": "c_0x3897e264",
      "outputs": [],
      "stateMutability": "pure",
      "type": "function"
    },
    {
      "inputs": [
        {
          "internalType": "bytes32",
          "name": "c__0x7d0b1c0c",
          "type": "bytes32"
        }
      ],
      "name": "c_0x7d0b1c0c",
      "outputs": [],
      "stateMutability": "pure",
      "type": "function"
    },
    {
      "inputs": [
        {
          "internalType": "bytes32",
          "name": "sample",
          "type": "bytes32"
        }
      ],
      "name": "decode",
      "outputs": [
        {
          "components": [
            {
              "internalType": "int256",
              "name": "logPairPrice",
              "type": "int256"
            },
            {
              "internalType": "int256",
              "name": "accLogPairPrice",
              "type": "int256"
            },
            {
              "internalType": "int256",
              "name": "logBptPrice",
              "type": "int256"
            },
            {
              "internalType": "int256",
              "name": "accLogBptPrice",
              "type": "int256"
            },
            {
              "internalType": "int256",
              "name": "logInvariant",
              "type": "int256"
            },
            {
              "internalType": "int256",
              "name": "accLogInvariant",
              "type": "int256"
            },
            {
              "internalType": "uint256",
              "name": "timestamp",
              "type": "uint256"
            }
          ],
          "internalType": "struct PoolPriceOracleMock.Sample",
          "name": "",
          "type": "tuple"
        }
      ],
      "stateMutability": "pure",
      "type": "function"
    },
    {
      "inputs": [
        {
          "components": [
            {
              "internalType": "int256",
              "name": "logPairPrice",
              "type": "int256"
            },
            {
              "internalType": "int256",
              "name": "accLogPairPrice",
              "type": "int256"
            },
            {
              "internalType": "int256",
              "name": "logBptPrice",
              "type": "int256"
            },
            {
              "internalType": "int256",
              "name": "accLogBptPrice",
              "type": "int256"
            },
            {
              "internalType": "int256",
              "name": "logInvariant",
              "type": "int256"
            },
            {
              "internalType": "int256",
              "name": "accLogInvariant",
              "type": "int256"
            },
            {
              "internalType": "uint256",
              "name": "timestamp",
              "type": "uint256"
            }
          ],
          "internalType": "struct PoolPriceOracleMock.Sample",
          "name": "sample",
          "type": "tuple"
        }
      ],
      "name": "encode",
      "outputs": [
        {
          "internalType": "bytes32",
          "name": "",
          "type": "bytes32"
        }
      ],
      "stateMutability": "pure",
      "type": "function"
    },
    {
      "inputs": [
        {
          "internalType": "uint256[]",
          "name": "dates",
          "type": "uint256[]"
        },
        {
          "internalType": "uint256",
          "name": "offset",
          "type": "uint256"
        }
      ],
      "name": "findNearestSamplesTimestamp",
      "outputs": [
        {
          "components": [
            {
              "internalType": "uint256",
              "name": "prev",
              "type": "uint256"
            },
            {
              "internalType": "uint256",
              "name": "next",
              "type": "uint256"
            }
          ],
          "internalType": "struct PoolPriceOracleMock.BinarySearchResult[]",
          "name": "results",
          "type": "tuple[]"
        }
      ],
      "stateMutability": "view",
      "type": "function"
    },
    {
      "inputs": [
        {
          "internalType": "enum IPriceOracle.Variable",
          "name": "variable",
          "type": "uint8"
        },
        {
          "internalType": "uint256",
          "name": "currentIndex",
          "type": "uint256"
        },
        {
          "internalType": "uint256",
          "name": "timestamp",
          "type": "uint256"
        }
      ],
      "name": "getPastAccumulator",
      "outputs": [
        {
          "internalType": "int256",
          "name": "",
          "type": "int256"
        }
      ],
      "stateMutability": "view",
      "type": "function"
    },
    {
      "inputs": [
        {
          "internalType": "uint256",
          "name": "index",
          "type": "uint256"
        }
      ],
      "name": "getSample",
      "outputs": [
        {
          "internalType": "int256",
          "name": "logPairPrice",
          "type": "int256"
        },
        {
          "internalType": "int256",
          "name": "accLogPairPrice",
          "type": "int256"
        },
        {
          "internalType": "int256",
          "name": "logBptPrice",
          "type": "int256"
        },
        {
          "internalType": "int256",
          "name": "accLogBptPrice",
          "type": "int256"
        },
        {
          "internalType": "int256",
          "name": "logInvariant",
          "type": "int256"
        },
        {
          "internalType": "int256",
          "name": "accLogInvariant",
          "type": "int256"
        },
        {
          "internalType": "uint256",
          "name": "timestamp",
          "type": "uint256"
        }
      ],
      "stateMutability": "view",
      "type": "function"
    },
    {
      "inputs": [],
      "name": "getTotalSamples",
      "outputs": [
        {
          "internalType": "uint256",
          "name": "",
          "type": "uint256"
        }
      ],
      "stateMutability": "pure",
      "type": "function"
    },
    {
      "inputs": [
        {
          "internalType": "uint256",
          "name": "index",
          "type": "uint256"
        },
        {
          "components": [
            {
              "internalType": "int256",
              "name": "logPairPrice",
              "type": "int256"
            },
            {
              "internalType": "int256",
              "name": "accLogPairPrice",
              "type": "int256"
            },
            {
              "internalType": "int256",
              "name": "logBptPrice",
              "type": "int256"
            },
            {
              "internalType": "int256",
              "name": "accLogBptPrice",
              "type": "int256"
            },
            {
              "internalType": "int256",
              "name": "logInvariant",
              "type": "int256"
            },
            {
              "internalType": "int256",
              "name": "accLogInvariant",
              "type": "int256"
            },
            {
              "internalType": "uint256",
              "name": "timestamp",
              "type": "uint256"
            }
          ],
          "internalType": "struct PoolPriceOracleMock.Sample",
          "name": "sample",
          "type": "tuple"
        }
      ],
      "name": "mockSample",
      "outputs": [],
      "stateMutability": "nonpayable",
      "type": "function"
    },
    {
      "inputs": [
        {
          "internalType": "uint256[]",
          "name": "indexes",
          "type": "uint256[]"
        },
        {
          "components": [
            {
              "internalType": "int256",
              "name": "logPairPrice",
              "type": "int256"
            },
            {
              "internalType": "int256",
              "name": "accLogPairPrice",
              "type": "int256"
            },
            {
              "internalType": "int256",
              "name": "logBptPrice",
              "type": "int256"
            },
            {
              "internalType": "int256",
              "name": "accLogBptPrice",
              "type": "int256"
            },
            {
              "internalType": "int256",
              "name": "logInvariant",
              "type": "int256"
            },
            {
              "internalType": "int256",
              "name": "accLogInvariant",
              "type": "int256"
            },
            {
              "internalType": "uint256",
              "name": "timestamp",
              "type": "uint256"
            }
          ],
          "internalType": "struct PoolPriceOracleMock.Sample[]",
          "name": "samples",
          "type": "tuple[]"
        }
      ],
      "name": "mockSamples",
      "outputs": [],
      "stateMutability": "nonpayable",
      "type": "function"
    },
    {
      "inputs": [
        {
          "internalType": "uint256",
          "name": "elapsed",
          "type": "uint256"
        },
        {
          "internalType": "uint256",
          "name": "currentIndex",
          "type": "uint256"
        },
        {
          "internalType": "int256",
          "name": "logPairPrice",
          "type": "int256"
        },
        {
          "internalType": "int256",
          "name": "logBptPrice",
          "type": "int256"
        },
        {
          "internalType": "int256",
          "name": "logInvariant",
          "type": "int256"
        }
      ],
      "name": "processPriceData",
      "outputs": [],
      "stateMutability": "nonpayable",
      "type": "function"
    },
    {
      "inputs": [
        {
          "internalType": "bytes32",
          "name": "sample",
          "type": "bytes32"
        },
        {
          "internalType": "int256",
          "name": "logPairPrice",
          "type": "int256"
        },
        {
          "internalType": "int256",
          "name": "logBptPrice",
          "type": "int256"
        },
        {
          "internalType": "int256",
          "name": "logInvariant",
          "type": "int256"
        },
        {
          "internalType": "uint256",
          "name": "timestamp",
          "type": "uint256"
        }
      ],
      "name": "update",
      "outputs": [
        {
          "components": [
            {
              "internalType": "int256",
              "name": "logPairPrice",
              "type": "int256"
            },
            {
              "internalType": "int256",
              "name": "accLogPairPrice",
              "type": "int256"
            },
            {
              "internalType": "int256",
              "name": "logBptPrice",
              "type": "int256"
            },
            {
              "internalType": "int256",
              "name": "accLogBptPrice",
              "type": "int256"
            },
            {
              "internalType": "int256",
              "name": "logInvariant",
              "type": "int256"
            },
            {
              "internalType": "int256",
              "name": "accLogInvariant",
              "type": "int256"
            },
            {
              "internalType": "uint256",
              "name": "timestamp",
              "type": "uint256"
            }
          ],
          "internalType": "struct PoolPriceOracleMock.Sample",
          "name": "",
          "type": "tuple"
        }
      ],
      "stateMutability": "pure",
      "type": "function"
    }
  ],
  "bytecode": "0x608060405234801561001057600080fd5b50614275806100206000396000f3fe608060405234801561001057600080fd5b50600436106100d45760003560e01c8063b48b5b4011610081578063d5125db61161005b578063d5125db614610241578063e5fe5f3c1461025d578063ff7b6f1e14610279576100d4565b8063b48b5b40146101c3578063c3748ef1146101e1578063d437680414610211576100d4565b80633d48f8c1116100b25780633d48f8c11461014157806360d1507c1461017157806398e896a5146101a7576100d4565b80630d811bfc146100d9578063259efd16146100f5578063264959fb14610111575b600080fd5b6100f360048036038101906100ee9190613c62565b6102a9565b005b61010f600480360381019061010a9190613da3565b6102ac565b005b61012b60048036038101906101269190613d02565b610353565b604051610138919061404a565b60405180910390f35b61015b60048036038101906101569190613d51565b6103ef565b604051610168919061402f565b60405180910390f35b61018b60048036038101906101869190613d7a565b6104a7565b60405161019e9796959493929190614065565b60405180910390f35b6101c160048036038101906101bc9190613c62565b610626565b005b6101cb610629565b6040516101d891906140ef565b60405180910390f35b6101fb60048036038101906101f69190613c62565b6106b7565b60405161020891906140d4565b60405180910390f35b61022b60048036038101906102269190613c0e565b6107f7565b6040516102389190613fe4565b60405180910390f35b61025b60048036038101906102569190613de0565b610a5c565b005b61027760048036038101906102729190613ba2565b610bed565b005b610293600480360381019061028e9190613c8b565b610d17565b6040516102a091906140d4565b60405180910390f35b50565b6102d87f57ceb66b945fe101f0060b9012e76ec088916530139818acbb5b51345877a4f560001b6102a9565b6103047f9c2812ee0d8d5038da74e7a06cd2c74dba27222f6d6ab42f869281927be8419e60001b6102a9565b6103307fa138d50688d8ff01ff485ea66467d70aabddca9982297a0e6feb4496d8e9d10160001b6102a9565b610339816103ef565b600080848152602001908152602001600020819055505050565b60006103817fa318f7645789d10e577fceb5a37228b2a37d7e4ca278e2a46d4488e8b7e2487a60001b6102a9565b6103ad7f3395590de2cf3f63d1b322f3c4acb9e891b9cf1d2a16aaf4071240790c160f4a60001b6102a9565b6103d97fe031b48a1e73d8823a2e0fd8cda675ae502704066cf806ec7ee45a21a14df11660001b6102a9565b6103e68484844203610dcf565b90509392505050565b600061041d7f5c650ec4e2b86c878c5bb1cab514f49f0be68e047eb8253515e8627d63c4c34d60001b6102a9565b6104497fbd007c8055d46639f166e0b785a620fea3172dcd91a20693c71e1615c29a858660001b6102a9565b6104757fcea83afc220b7ba170460da37aca800fb4ea55cc439d86a6447ffc76ed1f053b60001b6102a9565b6104a0826000015183602001518460400151856060015186608001518760a001518860c0015161173f565b9050919050565b60008060008060008060006104de7f9325788325c932b18d60d6e48ffe83d779335ad6f7ac5bc5f55044ca480db07a60001b610626565b61050a7f0ce8eff8d3210d75cd17af29a378e3cda556de68e6b6e92dbf079f1023a74ac560001b610626565b6105367f96e872bfd83e51f3f3f16693db07fe9314d0d5be047488f483c315475cccc0f460001b610626565b610546610400891061013b611864565b6105727fa82f57431588a4da4f20417d1f39af482e3d33b80f2c47d5ff4de38cd1cfa04e60001b610626565b61059e7f53f39fbdce1e00b5bb0e6f41622e64fab699f2273416a7ad6f339b822512bc8360001b610626565b60006105a989611877565b90506105d77fe5390250f8268f44a7ba83ace35d9711fe400ad31b703cbd7a05bd690c067e0960001b610626565b6106037fc22c49c8ea65d139c824ca889229c38b83f7b17f78492e690b91cf8ac43681fe60001b610626565b61060c81611917565b975097509750975097509750975050919395979092949650565b50565b60006106577f06b788723d14958738110fc9b7fcff256f0e8d11237bddcc4f78e87ccef34d9a60001b610626565b6106837f8b4286e580643673bbf9749084595424af56198d5d5bd0da02dda751a9cdfd3160001b610626565b6106af7fcf7f9f0ef0aaa51ca41094b7cfae83990547b38257cc36c2656d728cad58f85660001b610626565b610400905090565b6106bf613941565b6106eb7fec04f9888f47de61390c21420418457b7be625b49356ab199bbc0e245de26e7260001b6102a9565b6107177ff0cac9b785823394f388c5d95f6fbd6149340898eb466d698d0d6f5d1c245b4660001b6102a9565b6107437fc6c629a285ed6e42cf7585ee01e501dc67a306225361a32a266510f785a564f560001b6102a9565b6040518060e00160405280610762600085611c0e90919063ffffffff16565b815260200161077b600085611ee890919063ffffffff16565b8152602001610794600185611c0e90919063ffffffff16565b81526020016107ad600185611ee890919063ffffffff16565b81526020016107c6600285611c0e90919063ffffffff16565b81526020016107df600285611ee890919063ffffffff16565b81526020016107ed846121c2565b8152509050919050565b60606108257f83c52436f8c6b4fee75f433a2f1c6747ae39789653e58c6af4ca5d4346370d2d60001b6102a9565b6108517fde3c0b20563c9c7be7e1a36966d3df6abfd555b2d828f23053e1ecbedc84b57860001b6102a9565b61087d7f687a79281cf5bca75c35b2494976b2183a6df03386da473ba8863c28fdfdfc6860001b6102a9565b825167ffffffffffffffff8111801561089557600080fd5b506040519080825280602002602001820160405280156108cf57816020015b6108bc61397e565b8152602001906001900390816108b45790505b5090506108fe7f86ad2df665a5d089a98ea33fef3f4d0bc26da244306a8b6786f31d1ea140f26360001b6102a9565b61092a7f5f31169f1c960ae38efaf3330e0d357b79207ffff5dd1db0739dad092bed880160001b6102a9565b60005b8351811015610a55576109627fe3df9292785db9fdc864281f232d44734799adae5c96b54e8a7e2109c68700c860001b6102a9565b61098e7fe58af0c715c70fdcb74912415d43a55476b689eb8e13dcfebc561e3fbc7dbbad60001b6102a9565b6000806109ae8684815181106109a057fe5b602002602001015186612263565b915091506109de7f8b0119febfb0fd1bc455565d37ea2fafeea2ec1d34da2654ed3b4172f0f2d24060001b6102a9565b610a0a7f213f05436a97f96e9713c46aa18e3efa8c0b19142eea093017970f5a3ff09da160001b6102a9565b6040518060400160405280610a1e846121c2565b8152602001610a2c836121c2565b815250848481518110610a3b57fe5b60200260200101819052505050808060010191505061092d565b5092915050565b610a887f73cd201e4d20bc7c2abda8c5118e981c48fe3a21564d8cd6df686e87846949fc60001b6102a9565b610ab47fd64b608b91c37f7183a15ca9da2fed5b77d693989787817e753f2af07a1c210760001b6102a9565b610ae07fd85ccf813426682221eb020feb60c8e5bd14acec1978899f0e25e2e92e63c78960001b6102a9565b60008542039050610b137fc5b7b0d31c322d887892987346d0a9f93ce163b994c92b6e8a3ae3449946054160001b6102a9565b610b3f7f6ef67df2dfee1bf2b68e5ec2970a94a9b76f4058f1dc2d2b005bdc9f75b6936d60001b6102a9565b6000610b4e828787878761296c565b9050610b7c7f7e8d071a83f0399eb95a0ab33f7ff908083d6e2cc1f09411e15a79f45b474e9b60001b6102a9565b610ba87f722ad3111e2f56f571f0cc7080b9e1034172f4f4860265d8b3c5497229557b5960001b6102a9565b7fa7f3e984c65d79d0fa58244dddb6522f661c9dea23fe4940801cbfe0881075068682141582604051610bdc929190614006565b60405180910390a150505050505050565b610c197f6a58a6eb57697d0ccce881a53c8363874b612c5f836e9a3b0dada5dbcd82feb560001b6102a9565b610c457fa51fbfb9f7ec1e685a994bad0f5e74e7888f16788bf3242c8288561fc00bc6eb60001b6102a9565b610c717f70f0cf2dbb887c5ff257f2b28100e5a28a0a5a53969be4d93b260b4bf1f8cb1c60001b6102a9565b60005b8251811015610d1257610ca97f4197216c3d45586b64f34ad980b30c1f43667bd86714b0e1d4b15519de48f84660001b6102a9565b610cd57f0e7692c11adf9fad36748019a5feda5a69db414618c3634a63ca81e48f752dd960001b6102a9565b610d05838281518110610ce457fe5b6020026020010151838381518110610cf857fe5b60200260200101516102ac565b8080600101915050610c74565b505050565b610d1f613941565b610d4b7fa51d5b82b72bd6b7d4f4290fbde25c290358ba45f58bf02d2361ec58978f5acf60001b6102a9565b610d777f20d2ca355f76c1071e26ac4f55920f6f6491309ff0bc5a1b5f2a178249db1d1e60001b6102a9565b610da37f2f82cc8d4bc8e66fd42636d79e897bc71e0357caafa1a5ebd723e6b2d03ba92e60001b6102a9565b610dc4610dbf868686868b612bbe90949392919063ffffffff16565b6106b7565b905095945050505050565b6000610dfd7f50597b13c6c3eb2286cc6d46aa63e395377275505687afd67b47185f00db477260001b610626565b610e297f2545ac37dd13118d9aa863def0b325c4e82546ee38217aa64349c7f8d1676ab260001b610626565b610e557fdfce5ebe43344affaad295a797ae7c79168d0879a4e0af04a4bb00e8cdc92ab760001b610626565b610e6482421015610138611864565b610e907f9a0881c5044a196f16771723558b7aa4ce18b596fa8bdf62c9e63857413d7b0d60001b610626565b610ebc7fd25a7f8cfe4280cdcb9235f13d7abc0142cbba7172733cc44c0dfcee5c6cee8c60001b610626565b60008242039050610eef7f66d50533bad0124fba91b62f760b4d6876f87dde262fde5b91ff72cdfca5a96760001b610626565b610f1b7f67ea8f765661a86d7d97ff1f69fef9f075e1792e3f23a66f0171d5bf84c371e060001b610626565b6000610f2685611877565b9050610f547fd08c1b84601e458bd632650a7185f24d61c576dd3205de11bc11aa30b96b96b860001b610626565b610f807fa8a8adacf3c4f6343e241f94b8be8837de2ee0bd1f753cb92ba2941894c908bb60001b610626565b6000610f8b826121c2565b9050610fb97fef7fc94ad33b1eccbd74a09062d1362e9f6986f094b73c467062e6e23e3de54e60001b610626565b610fe57f57279e9a8767667114240cc6966679edde23c254dd02d7049804ce7b3ca3b2b560001b610626565b610ff460008211610139611864565b6110207f7b6f7df21249ea2bc3a1889e270394450be5bc2a6dced9cf3a4c31a00e85174260001b610626565b61104c7fdaa6358730c915099fdff8f5bedef32ba343f13a84250797cfb913aaf0b3cae860001b610626565b82811161116a5761107f7f680b0636f860bd42f205c89db97d71579d8ec0eba23db84f7a0811e99828dfad60001b610626565b6110ab7f16a5fa7a02150df9b7923a48156272a89f7dd7fd80c36285e0267ee655291ec960001b610626565b6110d77f30df5fa66fc15e3c5c98b463ceddef8ee0601d1beebbdcf0ce13e8c753d6408260001b610626565b6000818403905061110a7f328a5a3cdedcf81f39999beb76b0e7c4e647987d17704d1d56eb8ec2b7fee6fc60001b610626565b6111367f168697ee29a70c306d783272a2fa96d1f7258c1459d94065a18952a3c6af226f60001b610626565b8061114a8985611c0e90919063ffffffff16565b0261115e8985611ee890919063ffffffff16565b01945050505050611738565b6111967f7769233a42afbd715987687b727712979bd8b8869a0a0b8af18c678329123d5760001b610626565b6111c27fc8c6974f38a45bcaa96fa480a2cb4e7e9a634ac7eaa7da403aee67119f82334760001b610626565b6111ee7f5bf3ae0b200a79f873c4057f0aa8b65f19fa55d8544538aa30d673955e95a34a60001b610626565b60006111f987612e04565b90506112277f7e6ec3926e2569d4477a3f1e46b27d63992d181ef092124359d9ceec867024ac60001b610626565b6112537fe7bc796ce1eb2dbb8e33fe2201aecfdb3cb11f0c75add7567235ceebb24e21a760001b610626565b61127f7f68f1690bf0961e78f93ca7cc4bcad025f818853a5efd702aeb9b8063b2ffaa3560001b610626565b600061128a82611877565b90506112b87fef71d669535b02c627b93e0424076d1301349301144df8a2df1e6b0490070dd360001b610626565b6112e47f33daeb106f1411bca5c4dad4b9e1313536ccdc7a57e43cded8eabcdfdd6c47a360001b610626565b60006112ef826121c2565b905061131d7f0cb1393079c030b9ec86794cf7bd406d778b0af0ae6bb6c392267b0e9c17d45860001b610626565b6113497f6d2191a9ae329ccd23d2cd6ec187937bed0780d60fae54873af5a54e91ad407e60001b610626565b61135860008211610139611864565b6113847f95898b9ef577c6c9eed97e35241dbb1fd0efb721a5f9d6c4697e0d84d723d07360001b610626565b6113b07fec24b7c595bfd7de88189bf5229b6234b71c2956ac49aff3ae6c80261d5ead7160001b610626565b6113bf8682111561013a611864565b50506113ed7f9c77c4be262875580efbaaac1f276ce27e3ad19300d96002cfa36fca8de4376460001b610626565b6114197f1e364bb893764fc428727dd9e65ab97de10c27dd6ab8b91a443fa9b1b7dd7f3560001b610626565b6000806114268684612263565b915091506114567f46118920a2c5dcc226aad31a7bcde9f19e4cad767f5019f6188eda9d5d9948ff60001b610626565b6114827fa32ff3caa0ab7c144a483732a9e896c396e1ec73effb53d31a64b7bf9ef1f82460001b610626565b600061148d836121c2565b611496836121c2565b0390506114c57f7c71ddc9afeb9755775461078d6d9e86c7e5282e7a5ed8637cb1a592de8f714760001b610626565b6114f17fca15d67553dcd0a6baab125cd587070ba0d8badacf5c03412150407d2284a30260001b610626565b6000811115611698576115267f2fb0f907f55f2100c6c8948a907f37cbfab6ac56c62788e9f5965067c1e1962860001b610626565b6115527f16f12f558e4d1cc14fbddde5c3f59e4acfef46326d7f64a21cd9d727b9ffa2b760001b610626565b61157e7f564a149a23f8eda32008326df0d226235865c75edebd16c6df0026c004f359d260001b610626565b60006115938c85611ee890919063ffffffff16565b6115a68d85611ee890919063ffffffff16565b0390506115d57f432df6fdda7cdc43665245d7f4672ad5e2b3f17b302324e99ce68277478f9f0260001b610626565b6116017f2d3f56aba2805fa802a45809062848bb3787ec95613a4890d3e22494b3b7d5a860001b610626565b600061160c856121c2565b8903905061163c7f5a8fa933be7b957729fdb58d4ae4ede961345c9e666764bd21778890b6a5a34d60001b610626565b6116687f3f15ed100ac4cfa6ca02856f8c6941f8ec1cb3544fb29439842452f56f02c10460001b610626565b828183028161167357fe5b056116878e87611ee890919063ffffffff16565b019950505050505050505050611738565b6116c37e62803fd3d852fc1eb08f60ea5c58682e760c1908213148ed61a5e994f21e9460001b610626565b6116ef7f6d31f4da666ff1664863289caaf928c9a05482d6060d1330c51db03e9574076460001b610626565b61171b7f830c03ffec9ce53f33b24d8013e751c7a5e0912a008a1f9775621e57bd23fc4e60001b610626565b61172e8b84611ee890919063ffffffff16565b9750505050505050505b9392505050565b600061176d7f0528027b0224ac369afe5dc3d386e744ef00e4a175378aa6e07d0b795784844360001b612e9c565b6117997ff0772caa568a1b6f6fbb0288577f9b02bea52c5fc7116b480d8203d837be755d60001b612e9c565b6117c57fd9b30ab0e8f0d14775c4411fcdc3faf3cf1346685d7862ebe468d6111995737260001b612e9c565b6117d9600083612e9f90919063ffffffff16565b6117ed601f85612f3490919063ffffffff16565b611801605487612fd290919063ffffffff16565b611815606a89612f3490919063ffffffff16565b611829609f8b612fd290919063ffffffff16565b61183d60b58d612f3490919063ffffffff16565b61185160ea8f612fd290919063ffffffff16565b1717171717179050979650505050505050565b81611873576118728161306c565b5b5050565b60006118a57f01e5d27a94f2af0a40c9ee2e132c8b70dae3219dfac53dd9a281a0d4e2606ccb60001b610626565b6118d17ff253f7f8ebd32ee36c1a05f1f63465feb5900aac24cef90312b5205421b14d1e60001b610626565b6118fd7fd9e5c4341cc9be6a8dd1597cedacca3586844465febed41551305cc1d04e715660001b610626565b600080838152602001908152602001600020549050919050565b600080600080600080600061194e7fb88592a78180a424a95eb3e82a05fe4e4bc1df6ca901158ed73665e13ad5f2f060001b612e9c565b61197a7f9af65661ab3e50a2638cb5c8d1a669cb9d658e06d6d92afa552e265cd922994e60001b612e9c565b6119a67f589b3dcb505b725c505602f7af9cbbe8f2610d73772b1b0d29a9c8c3547a080c60001b612e9c565b6119af886130dc565b96506119dd7f638564a2b0fe2137e28bd10d293a1911f141d589cab431280e2a42776dddd02b60001b612e9c565b611a097f482a327cce1cc548ea600800d0405e508c6ee98d814e5b4e9fd11a60f2da450760001b612e9c565b611a128861317d565b9550611a407f40926056ebfc7195a95efff6ddc9b54039e1d3643954d7505ab5d7c742f0529560001b612e9c565b611a6c7f25b587cd7b6296d51c0b0c5df66e862d558284f9b598d152324bcc350292ebac60001b612e9c565b611a758861321e565b9450611aa37fa1272a85bb32c070df72fbf7b8c9f3ee146d9a66520534493afbef48a8d21dc560001b612e9c565b611acf7f01dbbaf236ca637e2f86d72d79789668b07fd77ccaa0545b160d40ad3634346360001b612e9c565b611ad8886132bf565b9350611b067fe5418221dd2a960add1fd3f41e9924da6aabfa72b544e70c6756ea366f5a67b760001b612e9c565b611b327f7845eb032bdf9f62e3d65968310f611b9442f606e690855e490ff15ff1e759f060001b612e9c565b611b3b88613360565b9250611b697f5ae1f4234e7e5d88e73646bff32bcb217e7df5cac32853c6188c6c166050dde260001b612e9c565b611b957fa38424e9e0ad594080594db0f035cfde8e603941b00642ed6d037e3047e3f42760001b612e9c565b611b9e88613401565b9150611bcc7f066e58da940cdb6dafb821004eb30720f1c02bff826f1b507ade821dd0c620cd60001b612e9c565b611bf87f0c2cfe9c15fff51e5ba1c093ab01d02450928f52570eda88684ebe28b3e4f62e60001b612e9c565b611c01886121c2565b9050919395979092949650565b6000611c3c7ffa88ef1d4bd5fd6577be383d6b722376a5c6fa29463609218ee4a724cf440eb060001b612e9c565b611c687f99d7ee6f6bc945f791b039deac0a47688909c7656bf1ad0fd0968f258998f4c060001b612e9c565b611c947ffde3546723b37136ce5b8f23cf52cd5af62f1f7d325c85271d5b4ae04a8b648460001b612e9c565b60006002811115611ca157fe5b826002811115611cad57fe5b1415611d4757611cdf7f5063c567d1887f09b11b5fc7d998ccefa4fb0d0fc1e0938e7a8f10466894cd3960001b612e9c565b611d0b7f63fd0cd88413e8791d8285e595688ee8f9213d7c47e1b173be8f1b47871d396160001b612e9c565b611d377ff826be5379f4832ddf0baa3172815694c0c566bf286192865635cc69d4eb2a4760001b612e9c565b611d40836130dc565b9050611ee2565b611d737feb2ed42d0c85e851588aa72594ba6ecb68a7e9793b51d31223d012fb4b03879660001b612e9c565b611d9f7f741427bc43dd1803a19d0e8cf653a27c9e33f63616fdab0b426027f0e589a1f960001b612e9c565b60016002811115611dac57fe5b826002811115611db857fe5b1415611e5257611dea7f68b5c79d610fbe658e3848fd0532c5fa226cf5ecd699abecb2f239fbbb44aa5060001b612e9c565b611e167f5a2eb379ba14b27d080a20d4b16ec51f12ef543e2bbc1cd581a43ecca641f9ac60001b612e9c565b611e427ff39f41fc9536605fe9d3d8ca2d3b0d4a26bf6a1d757490744a7c4d35a809e15460001b612e9c565b611e4b8361321e565b9050611ee2565b611e7e7f4797cc105ea90ea51da50ef6a40db4fb893890d196551551f5a1bdb4dc1830ff60001b612e9c565b611eaa7f785f97f28ec65acb5db93938602dde083c27f509e3b6839665d7d6f52edff61560001b612e9c565b611ed67fca1476ae1bbee6b04f7ba56a30cb4345427d625bf365fd2ba6006c054c6e88fa60001b612e9c565b611edf83613360565b90505b92915050565b6000611f167fa0ee4a14d4d99cf79f46e9cfa406920325aefde87caa28bd02dadcb3d07b05ce60001b612e9c565b611f427f3063f6c4887df61afb34d0ab8270713ed4d84f12806e668eecf4045f1b8bcf8060001b612e9c565b611f6e7ffc9591ed2273474bc58dc2c90f3209cc9b3b12d30d516be54d2f0e71e293feae60001b612e9c565b60006002811115611f7b57fe5b826002811115611f8757fe5b141561202157611fb97f08f4d031fa74daa7315662f45acc2e0468d31176de6e4f429eafcb1de62c5fb460001b612e9c565b611fe57f642e6b840321ab3b744c5437b716aa436b8b5264413a85ec93c8aa7767aa048860001b612e9c565b6120117f0afc184b80e4867285965d65673df872e599816153d80ceb1ce7ed692a230ca660001b612e9c565b61201a8361317d565b90506121bc565b61204d7f34afde3ae7ebe4171088735509b55ee8bebfc593485f940e15baedbf41c7f00560001b612e9c565b6120797fe51d2c46584f3ff4caa2e529efbb5ba9293e19b6e3d4d165973c02688c56ce8d60001b612e9c565b6001600281111561208657fe5b82600281111561209257fe5b141561212c576120c47f8761107612e6478db47fd3e71091ce75fd38658065ff25e52ebc4cc15083b06b60001b612e9c565b6120f07fd821cdd0b0deb7dd41e66c0f046f11ebac8ccdffa6cd030734062aadaa4d7c0860001b612e9c565b61211c7fa6ad3f0ce5ec74ec51b29935a163049ce69b17d3c95465f1ffc998b7c36e9fad60001b612e9c565b612125836132bf565b90506121bc565b6121587f48f29ecfd998732d8fe20d5c6ecdc2a4624eb976ce421b8c8f03d67b135a5c8660001b612e9c565b6121847fdf03a42996702e4eec9044ad6201de96a96e6d28edd2856ed742ea0c3fd062be60001b612e9c565b6121b07fc39c169d453ac9211bfc835fcb06da1759dc67587a8a24c107718fbf6699e3c760001b612e9c565b6121b983613401565b90505b92915050565b60006121f07f74d5066293be4370fd524573fc9aeb090515658ba3a40e6d0128237f7b514d6060001b612e9c565b61221c7fcf1fe953b1af420c60f48d61f261c0e91d0a93f44b0e1fca350e0e2540c7efba60001b612e9c565b6122487fcde80e15d7e05f199afca472e2c64190b4295034e3befb1b7e4ef03d28c2b2ce60001b612e9c565b61225c6000836134a290919063ffffffff16565b9050919050565b6000806122927f18276fefc9cbcf3a3372ae58ab5c94d1ea24a2aa24f91a933d6087496fdc84c160001b610626565b6122be7f2f3fdb0959b21b2b281351b6083b0edeed9947759500f34938a34dbe609283c260001b610626565b6122ea7f1faac425c693d202a860d2e3d993a67bc7cb69dda208ad4371980107f448623760001b610626565b60006123187f3a4bf43fbec00f1257dcf49002149d5a2cc57f098719c5b9176036c5ffcefa0760001b610626565b6123447f0e36f5949f6098f274c3c52524f684a1a5e302755d6114d0bd6a79167d7801eb60001b610626565b6000600161040003905061237a7fe7a1367eb2e30e4303e34f9e98d339d420458f726c1c38c8bda83a9fc6bc5c3e60001b610626565b6123a67fa19760ff6c0872851abede9abb89633d9e92d04bb490fdb95544c22ed62d07dc60001b610626565b60006123d47f669d35c4fbf5830db19655ff486f6c46fd98951f02ed1784006e3288ecd3e08560001b610626565b6124007fd84a819427e33d83400ec1186213b5cf1b9aecaebb1286bd06a67f55bd186c1860001b610626565b600061242e7fbae7881fec4357c517d7031dd046b2dc151b626268d7e830be2b97cd77693db360001b610626565b61245a7f6b2238b032917bc3e895e9b58897fe01c20ca95e854d6e0749629d4c6102d43d60001b610626565b60006124887f67c30fe62b0d80aed8da55196d3d7b46f19160bd4fd6e1f62e104934e42511e160001b610626565b6124b47f7179db57272b31822357c33e78ea90dc39313ec445fb31b7562936dceab15ad360001b610626565b5b8385116128d2576124e87fd6882884f9926616b2921cb97dab9230ea3fcc9c94e0650aabb2dc493b2838d260001b610626565b6125147f1ab5dc177c10fe63023da2c7da9c34b4b379e8167bf5bed8dd96c1f4ff6fc27c60001b610626565b600060028686018161252257fe5b0490506125517f51ab13b3eba9ef490a711b93a3d021d7787c25d91004e80c2771bb55dbec07e860001b610626565b61257d7fa92708e66f74b12cb7b02b05215ee030cfdbb11ea3dc70883244b3e07aeedd0960001b610626565b612590898261353d90919063ffffffff16565b93506125be7f8537a8c53114543cc9e053f59c8318407fca3edf4c4c35d554bb5165eef7235a60001b610626565b6125ea7fd04daccfe54362be1b978617482cf99657d41fa7be4d9c0c77c83e1be3a628b460001b610626565b6125f384611877565b92506126217f8c3ded7b38001b67c6c7c90a183633948ce70b0b73b4599b19daa1b367144c4460001b610626565b61264d7f8c0efc6a25d3356409380f6019152cd50b1cc18a4cf70d8236b0368bd449d82560001b610626565b612656836121c2565b91506126847f5313032456e791ac629a120475d99304370d9f8df19baaaa2bb1883efc1e97b660001b610626565b6126b07ffe7f6f8bbfa6dc6e1dfb089f8561eee6794351fab2bed9ca792ce2ba0f7cd69b60001b610626565b89821015612747576126e47f2a933807c8ff5b5e8b0179ec0a2cb7c00605656fe1eaca61377dd8b120fbd03e60001b610626565b6127107fba70987d9c6d54bd528985eff70dbebb929df7ca359edd04fa97363b091bbe6360001b610626565b61273c7fbc69b202d9181ecbdf1b7cc19df5e7a6d0d2260c1557e044653789d6abc5c4d960001b610626565b6001810195506128cc565b6127737f17eaebe8ffc81cc9d2f98bf5cd429554c7a3e80a0d842afcbe204c59b36dc39a60001b610626565b61279f7feeef8d7117f42cc8d33462a1ec3631e0fd6f603a503fc5161bf4d8f350e1049a60001b610626565b89821115612836576127d37f3764ea05926c0dea7a571a9b323a72e762fbfb8e5a01f32d25e6360835f04a6160001b610626565b6127ff7fa499562ab3083a38708e8d79efb80704cd8718aac1d520ba66027800a8459d6860001b610626565b61282b7fca6d690f00800c49ad70bf9a1f67cb50db7a23d432cca32a4e9a328f613f2c4360001b610626565b6001810394506128cb565b6128627fe98f96d3e590e6fca1a8ed5535b4edde5f02f00753cbf5aee0bd33c027169fa060001b610626565b61288e7fa674f68b309fcac0bb22231560bea7cd91d0640e202b84e738074d1707e244d860001b610626565b6128ba7fdee9815fb163aa4b4c326d57b43c3ff1950dd26e3902d9895f332975549c477160001b610626565b828397509750505050505050612965565b5b506124b5565b6128fe7fa6c2ba67ffbd0e5e8e323a9eb27fd09540d06948f61826c69faa98826c4cddbb60001b610626565b61292a7ff4f479192bad21516c60c27e623b56730b1797e70dd3c8e9ab16df98ce3ef33860001b610626565b8881106129485761294261293d846135d9565b611877565b8261295b565b8161295a61295585612e04565b611877565b5b9650965050505050505b9250929050565b600061299a7fcf48ec4d60424c9aa23b4b9780531a2ff551cc161268d0ac0d6bf000c7fa981460001b610626565b6129c67f9c4a968dedc4c136080eb76da019e881836a3aa25cb13f3e70de44b49d11e53360001b610626565b6129f27f84d916624566586ad0050ed23bff0d1bbce44785b6ba6223105b7bcd3fa6f88b60001b610626565b6000612a1585858542612a048b611877565b612bbe90949392919063ffffffff16565b9050612a437fbc2e41e3c70cb855c9987ea817683e3bd5d4e3d0db2696f08e722f29814508e160001b610626565b612a6f7fdfded300e9c696b636f241a70674d9f717986428c471224a1d88c614f9b89f1360001b610626565b6000607888420310159050612aa67f8c2b7adf7f6f8a5e251b2b0f1ed3ae1042f77ed159c9fdd873581000e287108b60001b610626565b612ad27f0a89ad352c1a359bcc21a2672797243c22c280c228438ca8692907691b027b1360001b610626565b80612add5786612ae7565b612ae687612e04565b5b9650612b157fb1d6817d8e57a85863eed1d3d1e4c9f7b7dd70159aa74491362feec84439632e60001b610626565b612b417f406e0d9f291789219ba95209f911b4d705e86346c4346b056ba9f497d3630fc560001b610626565b8160008089815260200190815260200160002081905550612b847f2f1c56014cc0513e1d40ba36f1fb6b0ca747d01596cf0d8cefc6fdb160eba1ca60001b610626565b612bb07f84d729f7b3ded9745b636efbb7ffe1533e9bef5d3714189e82229569ee35262a60001b610626565b869250505095945050505050565b6000612bec7f250521a0c15d98e13f5bec15d4cd3a40fc8f2e715884f1a0612f883b4811768460001b612e9c565b612c187f15b9accc59ebe0e0851475777f9b5bb089f74fba5d09d33525485b1fd60cbcd560001b612e9c565b612c447f99f21f99532bbe2ea9e3ca6911583d4560952f6696b1717fa121bb3026e4f71260001b612e9c565b6000612c4f876121c2565b83039050612c7f7f0377cf1a67a8ddf0d64e3bf929f67c39e44935acb4b0641ca51ec4608f022fd160001b612e9c565b612cab7f79b69cd83bdc16176f50a687fb775956b504acb0d1e618f061dfb90b1690eeda60001b612e9c565b6000818702612cb98961317d565b019050612ce87f118a4aa3aac40cc0b59377456919f15ac2924da789f7b9dfce15323c85f349bb60001b612e9c565b612d147f7f5684a011eb430db6da09bd649432ae25cf78e71afa89fecbe23a10dd16783a60001b612e9c565b6000828702612d228a6132bf565b019050612d517fe0964b8b26fed2945c5b580186956e31f2aab9a25e6db32f85a95651857dd51b60001b612e9c565b612d7d7f12990979dc12e88635397e9963f2475f101a020a5398d14d93fbf7234bc9bb0860001b612e9c565b6000838702612d8b8b613401565b019050612dba7f42a4b4428eff48e268c4de7c198f559a7290ba230b29d15b35a592be699724cb60001b612e9c565b612de67f944cb528836ac1693abb7b462b3f0231e85663fbdade320d0c0df950b33ed3a360001b612e9c565b612df589848a858b868c61173f565b94505050505095945050505050565b6000612e327f7ab8435443744df8abfe706690bfd53d1df3d5f61198d338b66635c4e8c726ba60001b613671565b612e5e7f2e05b9259811404a126521b1b7855f19561dd799e406c6ce08746b1eaaf7057f60001b613671565b612e8a7ff32f578ec3edda1a3b722cc7ed37c91eb87cdae5595a82ab6856882ed9578c1d60001b613671565b612e9582600161353d565b9050919050565b50565b6000612ecd7fcff1831475ac088e3703cff250bdebbca4964262fe3f4e980687b3d328dc1ba660001b613674565b612ef97f3f14a227cbec3dac650228b425f314cf152653fecd9ca039bd894c7c0802c4a060001b613674565b612f257f8d897471e10eae8a1a06412858d4b937be0ce7d2d8322b5d3604b416a1633d9a60001b613674565b8183901b60001b905092915050565b6000612f627f52f0c914ad60ff657341390c9e2c88aacdf6924e9cdb8a573f4f3f79f895f56460001b613674565b612f8e7f171091458f4fdb996d3776ceb684965d04571665b13d465d5c2010e460c2e49c60001b613674565b612fba7ffd0c1ad928e4af47e9629e2bf7e0149f3f0448e6e74bc16b162a4acff042fd4060001b613674565b81661fffffffffffff8416901b60001b905092915050565b60006130007f932f7d26f7d6e9fbd90ae611013cae89b3b0ebe1b48b094a1f0f55ac4641093760001b613674565b61302c7f3aff7ae6ad439b35fe11b7d8c804bd51bc51a527e9ce86bef13e127a15544a2e60001b613674565b6130587f9748d851b5dafb827ce26efff660d7fa8948226a6ad80655af0a0e59b2af267d60001b613674565b81623fffff8416901b60001b905092915050565b6030600a820601600a820491506030600a830601600a830492506030600a8406018060101b8260081b8401016642414c230000000160c81b7f08c379a000000000000000000000000000000000000000000000000000000000600052602060045260076024528060445260646000fd5b600061310a7f6c79448da895cc42103b78637aad4dc65cc7b5d3993c4353cd6dcdabc5159a7a60001b612e9c565b6131367f3ebbb19c20743093c5576e1443642b18c94ffbd28ea2037366f76de6c324ae3d60001b612e9c565b6131627f3ba536322b22d790fec718b68a82a58101a0486077a6f9e874fadec9994d671f60001b612e9c565b61317660ea8361367790919063ffffffff16565b9050919050565b60006131ab7ff1a9a4cd2818e8b729de38ba2014ab37f4b31c16db025136f89036cd37cbe09760001b612e9c565b6131d77f0876810be5c8f1bc57ef245fa27fbd3e5c21655c24fd85e1d2996eada832bba360001b612e9c565b6132037f6b3bf0dd108e9083735315eb177705be444b48e7b3875eded6fc90631e314d3860001b612e9c565b61321760b58361378690919063ffffffff16565b9050919050565b600061324c7f87da7a707b3aa56e0d1f4fed2e9ff292049009a7aa74b10e96568513cc19c50960001b612e9c565b6132787ffd80678893b082c26166ee2bed36a8b074d45027b17a4f4085aca9d13939fd6160001b612e9c565b6132a47fa74e5adc8bfe5da3779b36b3d46f5b1945d3595191485804e9ff3c1fe911d65a60001b612e9c565b6132b8609f8361367790919063ffffffff16565b9050919050565b60006132ed7fa19e211270317e3563ee2bc1a95b318e46cf727034f114160f57f7dea60ad13960001b612e9c565b6133197f30a18b5d151d8a750731f243f2d558b2cf5171382fc1da2207fdc32cee3b242f60001b612e9c565b6133457f93747112352dd0b3886c9069f6f5652f19aa36dc3b1dfd146b0490202ad2302460001b612e9c565b613359606a8361378690919063ffffffff16565b9050919050565b600061338e7fe55b796d9a39777faec17e89e4c4841370da185cdae0ca1232bac92589cf8e1360001b612e9c565b6133ba7fdb6319a7d09c333b6dde48e18902f7d0065e80022e58e47f8a3f72030f98c6f260001b612e9c565b6133e67fcb1a729ad8b8aec19d2841072227460b5d283524bed9f81e2f900f2d92fd4ccf60001b612e9c565b6133fa60548361367790919063ffffffff16565b9050919050565b600061342f7fa0aba47f866b70cad1fdca3ed349e497c8d791db8cdff510308cce7c610cc62860001b612e9c565b61345b7f97fd457456be7f880cc3d5cc554873b60f41a1a3b994d0c9da39490e84fd165060001b612e9c565b6134877faf9d1cb38a55162259e000f2c1dfd1dfa5752f3286a9d2c17155b39bb258d9c460001b612e9c565b61349b601f8361378690919063ffffffff16565b9050919050565b60006134d07ff268a890356f088a505cb75fe330a351dba197ff7f5861d670adadcc6c1205b360001b613674565b6134fc7f7b80e43ddd2640ab605840dba772b4310f1c14fb3f1bcbc5a96c2b5cdf92ccfc60001b613674565b6135287f2be6c2ff41bf5a27da61ec82fea2241b5d403c96c7351a58758ebcb1ec97347160001b613674565b637fffffff8284901c60001c16905092915050565b600061356b7f5731d14913681741e189180a8532a17789ec7714c7acd37fcf912de4918358ba60001b613671565b6135977f5bdd4b6e1d2c45b70d9687816eb47783219124a21a691a9544adbb2b89c1782d60001b613671565b6135c37fa0bf93cd2ffe04839fbbe5b706d32e08e8eb19181e9c57a4e93bcf6ccf5bd61e60001b613671565b610400828401816135d057fe5b06905092915050565b60006136077fb2fe2642b9d6fbc1f2a4dbbf641e9a8a65b066d27b26f8e2537aabb3edfae0ab60001b613671565b6136337f0b0fabcd3daa62150ca63bc12d1b2076a0d36f530118ea12b7e4ebcf930622d960001b613671565b61365f7f6de38a7b40e038f6e1ae6cecbca19498acf567d750d0940bc3b7dff04fb0d2b260001b613671565b61366a8260016138a1565b9050919050565b50565b50565b60006136a57fe8671cc12867f8a5daa9d15e15214bc522b3aa6a3f2d4eb2055230de1257e05160001b613674565b6136d17f63b1c330c5e335300ca40dbfff8f46595abe625a8c41d59564bbedba8d4eaf9960001b613674565b6136fd7f61d767718d36ac9e36c603576f0bd9893947f12761d3492e1f26dfa3fbf17dd760001b613674565b6000623fffff8385901c60001c1690506137397fc91efb71a3ac8602aea14bc731ba19df6492bb54e37a614823104c091c5c21dd60001b613674565b6137657f09f5633c02450055349e727e2ddda1031dfe7240f31cc37fc2812a181c9ac2d160001b613674565b621fffff8113613775578061377d565b623fffff1981175b91505092915050565b60006137b47fce95c3ccc9b00b977cded9398861dd2fe00ea7babe74bae6aa4275c6c28e7a4d60001b613674565b6137e07f51ce7125abc2084449a8921b019dad353c8d54e3054ee7cc2e9d9ca6ad94a95a60001b613674565b61380c7fb4d2f20d1a742eb340ed208dec486a41396e86aefa0d35c5e5f7cd3995e9a49960001b613674565b6000661fffffffffffff8385901c60001c16905061384c7fe3c1acceb3ab8b7d0c79f573280ae58fdfd9e4e1896558fffd0ed60e20033da960001b613674565b6138787fdc9142df5ccebf6e5ad254e67e708181e33b031cef13c574907a3b9c3909b00460001b613674565b660fffffffffffff811361388c5780613898565b661fffffffffffff1981175b91505092915050565b60006138cf7fb7453bf53d39bd370a4289b25c45416c812c59980ead65a3632e31c8c695886260001b613671565b6138fb7fb7b3142c9a64cf5beb48e01c89704963e104043d845c50b35283b2fc886bf0f960001b613671565b6139277f8df4fd8a91dad58dc9e917565e751cbcf0378eac43cb5ee7b3e46f157114991560001b613671565b610400826104008501038161393857fe5b06905092915050565b6040518060e00160405280600081526020016000815260200160008152602001600081526020016000815260200160008152602001600081525090565b604051806040016040528060008152602001600081525090565b600082601f8301126139a957600080fd5b81356139bc6139b782614137565b61410a565b915081818352602084019350602081019050838560e08402820111156139e157600080fd5b60005b83811015613a1157816139f78882613add565b845260208401935060e083019250506001810190506139e4565b5050505092915050565b600082601f830112613a2c57600080fd5b8135613a3f613a3a8261415f565b61410a565b91508181835260208401935060208101905083856020840282011115613a6457600080fd5b60005b83811015613a945781613a7a8882613b8d565b845260208401935060208301925050600181019050613a67565b5050505092915050565b600081359050613aad816141ea565b92915050565b600081359050613ac281614201565b92915050565b600081359050613ad781614211565b92915050565b600060e08284031215613aef57600080fd5b613af960e061410a565b90506000613b0984828501613ac8565b6000830152506020613b1d84828501613ac8565b6020830152506040613b3184828501613ac8565b6040830152506060613b4584828501613ac8565b6060830152506080613b5984828501613ac8565b60808301525060a0613b6d84828501613ac8565b60a08301525060c0613b8184828501613b8d565b60c08301525092915050565b600081359050613b9c81614228565b92915050565b60008060408385031215613bb557600080fd5b600083013567ffffffffffffffff811115613bcf57600080fd5b613bdb85828601613a1b565b925050602083013567ffffffffffffffff811115613bf857600080fd5b613c0485828601613998565b9150509250929050565b60008060408385031215613c2157600080fd5b600083013567ffffffffffffffff811115613c3b57600080fd5b613c4785828601613a1b565b9250506020613c5885828601613b8d565b9150509250929050565b600060208284031215613c7457600080fd5b6000613c8284828501613a9e565b91505092915050565b600080600080600060a08688031215613ca357600080fd5b6000613cb188828901613a9e565b9550506020613cc288828901613ac8565b9450506040613cd388828901613ac8565b9350506060613ce488828901613ac8565b9250506080613cf588828901613b8d565b9150509295509295909350565b600080600060608486031215613d1757600080fd5b6000613d2586828701613ab3565b9350506020613d3686828701613b8d565b9250506040613d4786828701613b8d565b9150509250925092565b600060e08284031215613d6357600080fd5b6000613d7184828501613add565b91505092915050565b600060208284031215613d8c57600080fd5b6000613d9a84828501613b8d565b91505092915050565b6000806101008385031215613db757600080fd5b6000613dc585828601613b8d565b9250506020613dd685828601613add565b9150509250929050565b600080600080600060a08688031215613df857600080fd5b6000613e0688828901613b8d565b9550506020613e1788828901613b8d565b9450506040613e2888828901613ac8565b9350506060613e3988828901613ac8565b9250506080613e4a88828901613ac8565b9150509295509295909350565b6000613e638383613f09565b60408301905092915050565b6000613e7a82614197565b613e8481856141af565b9350613e8f83614187565b8060005b83811015613ec0578151613ea78882613e57565b9750613eb2836141a2565b925050600181019050613e93565b5085935050505092915050565b613ed6816141c0565b82525050565b613ee5816141cc565b82525050565b613ef4816141d6565b82525050565b613f03816141d6565b82525050565b604082016000820151613f1f6000850182613fc6565b506020820151613f326020850182613fc6565b50505050565b60e082016000820151613f4e6000850182613eeb565b506020820151613f616020850182613eeb565b506040820151613f746040850182613eeb565b506060820151613f876060850182613eeb565b506080820151613f9a6080850182613eeb565b5060a0820151613fad60a0850182613eeb565b5060c0820151613fc060c0850182613fc6565b50505050565b613fcf816141e0565b82525050565b613fde816141e0565b82525050565b60006020820190508181036000830152613ffe8184613e6f565b905092915050565b600060408201905061401b6000830185613ecd565b6140286020830184613fd5565b9392505050565b60006020820190506140446000830184613edc565b92915050565b600060208201905061405f6000830184613efa565b92915050565b600060e08201905061407a600083018a613efa565b6140876020830189613efa565b6140946040830188613efa565b6140a16060830187613efa565b6140ae6080830186613efa565b6140bb60a0830185613efa565b6140c860c0830184613fd5565b98975050505050505050565b600060e0820190506140e96000830184613f38565b92915050565b60006020820190506141046000830184613fd5565b92915050565b6000604051905081810181811067ffffffffffffffff8211171561412d57600080fd5b8060405250919050565b600067ffffffffffffffff82111561414e57600080fd5b602082029050602081019050919050565b600067ffffffffffffffff82111561417657600080fd5b602082029050602081019050919050565b6000819050602082019050919050565b600081519050919050565b6000602082019050919050565b600082825260208201905092915050565b60008115159050919050565b6000819050919050565b6000819050919050565b6000819050919050565b6141f3816141cc565b81146141fe57600080fd5b50565b6003811061420e57600080fd5b50565b61421a816141d6565b811461422557600080fd5b50565b614231816141e0565b811461423c57600080fd5b5056fea2646970667358221220492d3651188d9838a9e8604ec32b6e884d8aeb95bc7f961eac16b8808234a29f64736f6c63430007010033",
  "linkReferences": {},
  "deployedLinkReferences": {}
}