{
  "_format": "hh-sol-artifact-1",
  "contractName": "PoolPriceOracleMock",
  "sourceName": "contracts/balancer-core-v2/test/PoolPriceOracleMock.sol",
  "abi": [
    {
      "anonymous": false,
      "inputs": [
        {
          "indexed": false,
          "internalType": "bool",
          "name": "newSample",
          "type": "bool"
        },
        {
          "indexed": false,
          "internalType": "uint256",
          "name": "sampleIndex",
          "type": "uint256"
        }
      ],
      "name": "PriceDataProcessed",
      "type": "event"
    },
    {
      "inputs": [
        {
          "internalType": "bytes32",
          "name": "c__0x0f38d3d0",
          "type": "bytes32"
        }
      ],
      "name": "c_0x0f38d3d0",
      "outputs": [],
      "stateMutability": "pure",
      "type": "function"
    },
    {
      "inputs": [
        {
          "internalType": "bytes32",
          "name": "c__0xc7f42a73",
          "type": "bytes32"
        }
      ],
      "name": "c_0xc7f42a73",
      "outputs": [],
      "stateMutability": "pure",
      "type": "function"
    },
    {
      "inputs": [
        {
          "internalType": "bytes32",
          "name": "sample",
          "type": "bytes32"
        }
      ],
      "name": "decode",
      "outputs": [
        {
          "components": [
            {
              "internalType": "int256",
              "name": "logPairPrice",
              "type": "int256"
            },
            {
              "internalType": "int256",
              "name": "accLogPairPrice",
              "type": "int256"
            },
            {
              "internalType": "int256",
              "name": "logBptPrice",
              "type": "int256"
            },
            {
              "internalType": "int256",
              "name": "accLogBptPrice",
              "type": "int256"
            },
            {
              "internalType": "int256",
              "name": "logInvariant",
              "type": "int256"
            },
            {
              "internalType": "int256",
              "name": "accLogInvariant",
              "type": "int256"
            },
            {
              "internalType": "uint256",
              "name": "timestamp",
              "type": "uint256"
            }
          ],
          "internalType": "struct PoolPriceOracleMock.Sample",
          "name": "",
          "type": "tuple"
        }
      ],
      "stateMutability": "pure",
      "type": "function"
    },
    {
      "inputs": [
        {
          "components": [
            {
              "internalType": "int256",
              "name": "logPairPrice",
              "type": "int256"
            },
            {
              "internalType": "int256",
              "name": "accLogPairPrice",
              "type": "int256"
            },
            {
              "internalType": "int256",
              "name": "logBptPrice",
              "type": "int256"
            },
            {
              "internalType": "int256",
              "name": "accLogBptPrice",
              "type": "int256"
            },
            {
              "internalType": "int256",
              "name": "logInvariant",
              "type": "int256"
            },
            {
              "internalType": "int256",
              "name": "accLogInvariant",
              "type": "int256"
            },
            {
              "internalType": "uint256",
              "name": "timestamp",
              "type": "uint256"
            }
          ],
          "internalType": "struct PoolPriceOracleMock.Sample",
          "name": "sample",
          "type": "tuple"
        }
      ],
      "name": "encode",
      "outputs": [
        {
          "internalType": "bytes32",
          "name": "",
          "type": "bytes32"
        }
      ],
      "stateMutability": "pure",
      "type": "function"
    },
    {
      "inputs": [
        {
          "internalType": "uint256[]",
          "name": "dates",
          "type": "uint256[]"
        },
        {
          "internalType": "uint256",
          "name": "offset",
          "type": "uint256"
        }
      ],
      "name": "findNearestSamplesTimestamp",
      "outputs": [
        {
          "components": [
            {
              "internalType": "uint256",
              "name": "prev",
              "type": "uint256"
            },
            {
              "internalType": "uint256",
              "name": "next",
              "type": "uint256"
            }
          ],
          "internalType": "struct PoolPriceOracleMock.BinarySearchResult[]",
          "name": "results",
          "type": "tuple[]"
        }
      ],
      "stateMutability": "view",
      "type": "function"
    },
    {
      "inputs": [
        {
          "internalType": "enum IPriceOracle.Variable",
          "name": "variable",
          "type": "uint8"
        },
        {
          "internalType": "uint256",
          "name": "currentIndex",
          "type": "uint256"
        },
        {
          "internalType": "uint256",
          "name": "timestamp",
          "type": "uint256"
        }
      ],
      "name": "getPastAccumulator",
      "outputs": [
        {
          "internalType": "int256",
          "name": "",
          "type": "int256"
        }
      ],
      "stateMutability": "view",
      "type": "function"
    },
    {
      "inputs": [
        {
          "internalType": "uint256",
          "name": "index",
          "type": "uint256"
        }
      ],
      "name": "getSample",
      "outputs": [
        {
          "internalType": "int256",
          "name": "logPairPrice",
          "type": "int256"
        },
        {
          "internalType": "int256",
          "name": "accLogPairPrice",
          "type": "int256"
        },
        {
          "internalType": "int256",
          "name": "logBptPrice",
          "type": "int256"
        },
        {
          "internalType": "int256",
          "name": "accLogBptPrice",
          "type": "int256"
        },
        {
          "internalType": "int256",
          "name": "logInvariant",
          "type": "int256"
        },
        {
          "internalType": "int256",
          "name": "accLogInvariant",
          "type": "int256"
        },
        {
          "internalType": "uint256",
          "name": "timestamp",
          "type": "uint256"
        }
      ],
      "stateMutability": "view",
      "type": "function"
    },
    {
      "inputs": [],
      "name": "getTotalSamples",
      "outputs": [
        {
          "internalType": "uint256",
          "name": "",
          "type": "uint256"
        }
      ],
      "stateMutability": "pure",
      "type": "function"
    },
    {
      "inputs": [
        {
          "internalType": "uint256",
          "name": "index",
          "type": "uint256"
        },
        {
          "components": [
            {
              "internalType": "int256",
              "name": "logPairPrice",
              "type": "int256"
            },
            {
              "internalType": "int256",
              "name": "accLogPairPrice",
              "type": "int256"
            },
            {
              "internalType": "int256",
              "name": "logBptPrice",
              "type": "int256"
            },
            {
              "internalType": "int256",
              "name": "accLogBptPrice",
              "type": "int256"
            },
            {
              "internalType": "int256",
              "name": "logInvariant",
              "type": "int256"
            },
            {
              "internalType": "int256",
              "name": "accLogInvariant",
              "type": "int256"
            },
            {
              "internalType": "uint256",
              "name": "timestamp",
              "type": "uint256"
            }
          ],
          "internalType": "struct PoolPriceOracleMock.Sample",
          "name": "sample",
          "type": "tuple"
        }
      ],
      "name": "mockSample",
      "outputs": [],
      "stateMutability": "nonpayable",
      "type": "function"
    },
    {
      "inputs": [
        {
          "internalType": "uint256[]",
          "name": "indexes",
          "type": "uint256[]"
        },
        {
          "components": [
            {
              "internalType": "int256",
              "name": "logPairPrice",
              "type": "int256"
            },
            {
              "internalType": "int256",
              "name": "accLogPairPrice",
              "type": "int256"
            },
            {
              "internalType": "int256",
              "name": "logBptPrice",
              "type": "int256"
            },
            {
              "internalType": "int256",
              "name": "accLogBptPrice",
              "type": "int256"
            },
            {
              "internalType": "int256",
              "name": "logInvariant",
              "type": "int256"
            },
            {
              "internalType": "int256",
              "name": "accLogInvariant",
              "type": "int256"
            },
            {
              "internalType": "uint256",
              "name": "timestamp",
              "type": "uint256"
            }
          ],
          "internalType": "struct PoolPriceOracleMock.Sample[]",
          "name": "samples",
          "type": "tuple[]"
        }
      ],
      "name": "mockSamples",
      "outputs": [],
      "stateMutability": "nonpayable",
      "type": "function"
    },
    {
      "inputs": [
        {
          "internalType": "uint256",
          "name": "elapsed",
          "type": "uint256"
        },
        {
          "internalType": "uint256",
          "name": "currentIndex",
          "type": "uint256"
        },
        {
          "internalType": "int256",
          "name": "logPairPrice",
          "type": "int256"
        },
        {
          "internalType": "int256",
          "name": "logBptPrice",
          "type": "int256"
        },
        {
          "internalType": "int256",
          "name": "logInvariant",
          "type": "int256"
        }
      ],
      "name": "processPriceData",
      "outputs": [],
      "stateMutability": "nonpayable",
      "type": "function"
    },
    {
      "inputs": [
        {
          "internalType": "bytes32",
          "name": "sample",
          "type": "bytes32"
        },
        {
          "internalType": "int256",
          "name": "logPairPrice",
          "type": "int256"
        },
        {
          "internalType": "int256",
          "name": "logBptPrice",
          "type": "int256"
        },
        {
          "internalType": "int256",
          "name": "logInvariant",
          "type": "int256"
        },
        {
          "internalType": "uint256",
          "name": "timestamp",
          "type": "uint256"
        }
      ],
      "name": "update",
      "outputs": [
        {
          "components": [
            {
              "internalType": "int256",
              "name": "logPairPrice",
              "type": "int256"
            },
            {
              "internalType": "int256",
              "name": "accLogPairPrice",
              "type": "int256"
            },
            {
              "internalType": "int256",
              "name": "logBptPrice",
              "type": "int256"
            },
            {
              "internalType": "int256",
              "name": "accLogBptPrice",
              "type": "int256"
            },
            {
              "internalType": "int256",
              "name": "logInvariant",
              "type": "int256"
            },
            {
              "internalType": "int256",
              "name": "accLogInvariant",
              "type": "int256"
            },
            {
              "internalType": "uint256",
              "name": "timestamp",
              "type": "uint256"
            }
          ],
          "internalType": "struct PoolPriceOracleMock.Sample",
          "name": "",
          "type": "tuple"
        }
      ],
      "stateMutability": "pure",
      "type": "function"
    }
  ],
  "bytecode": "0x608060405234801561001057600080fd5b50614274806100206000396000f3fe608060405234801561001057600080fd5b50600436106100d45760003560e01c8063c3748ef111610081578063e5fe5f3c1161005b578063e5fe5f3c14610241578063fb5848ef1461025d578063ff7b6f1e14610279576100d4565b8063c3748ef1146101c5578063d4376804146101f5578063d5125db614610225576100d4565b806360d1507c116100b257806360d1507c14610155578063969012101461018b578063b48b5b40146101a7576100d4565b8063259efd16146100d9578063264959fb146100f55780633d48f8c114610125575b600080fd5b6100f360048036038101906100ee9190613da2565b6102a9565b005b61010f600480360381019061010a9190613d01565b610350565b60405161011c9190614049565b60405180910390f35b61013f600480360381019061013a9190613d50565b6103ec565b60405161014c919061402e565b60405180910390f35b61016f600480360381019061016a9190613d79565b6104a4565b6040516101829796959493929190614064565b60405180910390f35b6101a560048036038101906101a09190613c61565b610623565b005b6101af610626565b6040516101bc91906140ee565b60405180910390f35b6101df60048036038101906101da9190613c61565b6106b4565b6040516101ec91906140d3565b60405180910390f35b61020f600480360381019061020a9190613c0d565b6107f4565b60405161021c9190613fe3565b60405180910390f35b61023f600480360381019061023a9190613ddf565b610a59565b005b61025b60048036038101906102569190613ba1565b610bea565b005b61027760048036038101906102729190613c61565b610d14565b005b610293600480360381019061028e9190613c8a565b610d17565b6040516102a091906140d3565b60405180910390f35b6102d57f1a247400094c435defc7ed62221dee8f42ef20a33fcb919d66dbcee03c04a92d60001b610623565b6103017f15f6b0e7b866493b7696bfd2793ff2296fe15ed65053388280b8b58986c7a1e160001b610623565b61032d7f8157375dadfad63c5d1ae8f7e4015d44400e63e860a4717cfbda37fc4d0a51ea60001b610623565b610336816103ec565b600080848152602001908152602001600020819055505050565b600061037e7fe4256fd8037d3c65905021c1e529d501e2cabdb248c09c0433a098c9bf0bf49760001b610623565b6103aa7fc1cbed90d84e63322b37869d72310dc846ff53b29bbeca24a341db26bf3fad0e60001b610623565b6103d67f44023dfe0317dd09a3f0cd640409f3d14239b3df95f18390f26d2544c1e9b8c560001b610623565b6103e38484844203610dcf565b90509392505050565b600061041a7f8625a72e955e2d6beb36ed30be4942411a9a937232c199e64290fbace41525a460001b610623565b6104467f221b60d09af88dd7b2b58a7a70ff546dabdad55003e3fb17276ddee15416a60e60001b610623565b6104727f1b11ea0bc76951ad6f3e06f072742bdb29e23b889a59acc8f6348170c6108f3760001b610623565b61049d826000015183602001518460400151856060015186608001518760a001518860c00151611740565b9050919050565b60008060008060008060006104db7fba3b533463241377eda29b5bb88d493a35490be8e2c164ac3193e8b8fbc5b5be60001b610d14565b6105077ff6427835e6a64ea6b3c419d83fa98505ace295a67879844c38bef69dc587846560001b610d14565b6105337f6f17de23b1da069973513f3e62de0f5bb859d452fe26af548b3de63469445bbf60001b610d14565b610543610400891061013b611865565b61056f7fb978d8997c79ea8c192172cbcba11f61092004a078127ebbf06cd255787bd46260001b610d14565b61059b7f2ff47f4e8f6be69d3b9c0e510299538876fb8411b1036863fc289283172c9a0e60001b610d14565b60006105a689611878565b90506105d47f493533f703aef7cd6f267cf4779021b8f895bf576dc2b170f2c2537c0281abc360001b610d14565b6106007ffff27bb16f16f83b9b7b9c57fb762b4b4d532399475e24db5682bd68041c94da60001b610d14565b61060981611918565b975097509750975097509750975050919395979092949650565b50565b60006106547f318d2dd8ec4fdb0ed36bc48c3ddbc176fb1024b56cac8e62a080346209d7b4c560001b610d14565b6106807fe95a94cbdd8aed9532244b9953103a0152fa4a0ae6ab65618a6092be812c017160001b610d14565b6106ac7f6e0c5516b4470279441e2a94716dda60a9e9ad0f0696f4d6f94f1a444047f43a60001b610d14565b610400905090565b6106bc613940565b6106e87f2053388fa966e94a0a76b934f1e5fb1eeb4bd777d8dc91a34f911922e9e122b560001b610623565b6107147fe23af4a1cbafb5b1d3d1c4620a4683bbfdce973a4c52c677a7b8e71287d2e85960001b610623565b6107407f4317de764103acc61b89fb3894a0ebe96953b14609ffd931b4ea3bc7c554784960001b610623565b6040518060e0016040528061075f600085611c0f90919063ffffffff16565b8152602001610778600085611ee990919063ffffffff16565b8152602001610791600185611c0f90919063ffffffff16565b81526020016107aa600185611ee990919063ffffffff16565b81526020016107c3600285611c0f90919063ffffffff16565b81526020016107dc600285611ee990919063ffffffff16565b81526020016107ea846121c3565b8152509050919050565b60606108227fbf94c788d4721ef95b61d72c758092d9771758d419b8965150a5f940e94f6a7460001b610623565b61084e7f5e73885f9ce991ccbf9316238d97a7374d09a4c199a3f13be5c7060aecd61b1d60001b610623565b61087a7fd1b662da98264dfd0c68dcb02f0223773d3232b9026a25fad5230b9eb32ac08d60001b610623565b825167ffffffffffffffff8111801561089257600080fd5b506040519080825280602002602001820160405280156108cc57816020015b6108b961397d565b8152602001906001900390816108b15790505b5090506108fb7f47a432ed19cfc05cca916d1b6b3f5ced71e334e9cfa5dec08bcd03bc9e85bb0560001b610623565b6109277f7519e419f839579fcc4690aa8a46f4d052847b984ee7945a22582db98ff797db60001b610623565b60005b8351811015610a525761095f7fdff80eeba82f18742c8b7381b21152d406b0fe429ed3974b7ed4a7e94c8d290960001b610623565b61098b7fff02b9247fcd4bf79cb4ce3cf6cfbf2882b2bff3ff1a5bdc57d49f94dabe6aee60001b610623565b6000806109ab86848151811061099d57fe5b602002602001015186612264565b915091506109db7fc427036f9a642db26f0ee5014adb738166e3b109e018ec4d85624c5281c1e0ba60001b610623565b610a077f43e7694f7b2924c5d95b4ab4824de2c33166b30463e492cce8eb256231a50a2b60001b610623565b6040518060400160405280610a1b846121c3565b8152602001610a29836121c3565b815250848481518110610a3857fe5b60200260200101819052505050808060010191505061092a565b5092915050565b610a857f8ea7aba3fa537a0abed89f0bb9a6f1c05a29024a7bea8f5ad13444acf8f1ce7b60001b610623565b610ab17fad343fbfb80e3b1592c4b8394cb8de105f159e445af7a0bad77c071bb6497b1d60001b610623565b610add7f94174a2abcb0277f3fbd604bb07bd3800c0f6be5fa50e7b4566e1c7f7943e7ec60001b610623565b60008542039050610b107f73f38c7cf661990e7029030b017e44376de4262288b5f09374083a24142ca3e760001b610623565b610b3c7f740feb59d33c10512f5c38399a3d7ea0632ef1eadbf244785a7004a49ce5c6cf60001b610623565b6000610b4b828787878761296c565b9050610b797f8b7e15d63eb325af7b18571df2be373a5e7edc7de7d5c286a4628580952af11460001b610623565b610ba57fce42feebeea5d22b4bd22f643cecfda8d53be355f04bb9ec26e3aeeda9b8b97560001b610623565b7fa7f3e984c65d79d0fa58244dddb6522f661c9dea23fe4940801cbfe0881075068682141582604051610bd9929190614005565b60405180910390a150505050505050565b610c167f5dfa624388fbbc0ddd961fd43366e654e42c4235f0ca47b8c1c92280b78ad5b560001b610623565b610c427fc1f84862189de1f0bb67da3895eca6be3d8c998b1b575929fdecf41beeb9632360001b610623565b610c6e7fa0097b7aa1dfa37f9b274c912cf3ea532f890dc976f4f0f23467f12759347d8160001b610623565b60005b8251811015610d0f57610ca67f4c82388cc623ce0e824549c509fb49e6a1c405d3b35e37b82e1b69be737252d260001b610623565b610cd27f1c6d32ecc6cb789101783be5b4004339371263d104dd1756f0f2a901b1ce932a60001b610623565b610d02838281518110610ce157fe5b6020026020010151838381518110610cf557fe5b60200260200101516102a9565b8080600101915050610c71565b505050565b50565b610d1f613940565b610d4b7fb1a4ac22cc30e29e59720f4ec10bc8d320e13f84f75ad362fd7c22017f3c8a5a60001b610623565b610d777f2dc4c1e3c8072e962971da410715861fb95dc9d841a90f8dde1f148bf46b958b60001b610623565b610da37fbedd5a8348e8c39b2e967fb38fcac8bb5a1899ed3ab72efe5a3d3e0a5858b94160001b610623565b610dc4610dbf868686868b612bbe90949392919063ffffffff16565b6106b4565b905095945050505050565b6000610dfd7f64fcb1661181200743694b19901ff35f19b7f8fefaa704adcbb8cc963f09f98460001b610d14565b610e297f6decc907a4f6e4c8567647859fb6a26e4aaea32c0dfc5d206955407dfbc9401760001b610d14565b610e557f9f1524ff55275f78cab15c1c28756c355d35c1c818409f2e25547dacca1f63f960001b610d14565b610e6482421015610138611865565b610e907f933727a8da9ca5bb2d56f46f748eb996bbb4362b58ca9f0d06b3729ee46bb6e860001b610d14565b610ebc7f48ff4bd7011452ab08db31d3c24d5afee2b54c814838f71e49d9cf7a1dcd79a560001b610d14565b60008242039050610eef7f42cd0d6667d5f37926df260815c318f6f395fb87b8358d4d01b090bdffed43ef60001b610d14565b610f1b7fe54741e86edea67839e51888ecc5d320ae2fa271d71ececc1a367dfac2c9287d60001b610d14565b6000610f2685611878565b9050610f547f8605638e7f1cded491d385aeed9185c420cb768402ea1a5a05d29729ab095c6160001b610d14565b610f807fdcc54fe01e7a2fa6182e6055200048133cb96af6e086eb4ef7abac695cb575f360001b610d14565b6000610f8b826121c3565b9050610fb97fb0701661b433ff4e29d9a19173bd07f2c3afa2d19ee9f7ca94dfa1b03f071c8860001b610d14565b610fe57ffc817b71bc76c360ae1f0b8c7942d5c60d79bde043f0b64c2613723bb10be18160001b610d14565b610ff460008211610139611865565b6110207fa3a24cf0208b0ebce1fdcdd88d351a8005d65ad2948eb857d599ebacba57d77b60001b610d14565b61104c7f5c422395ee121128686137e597febfb2e8a8a35f5843281649c83e928626ee2060001b610d14565b82811161116a5761107f7f090b81930e4edaceb04239f52b5a396068542305b43578ac64c42fe6cc0b670560001b610d14565b6110ab7f99cb53c073a2cb0f5163a8288ce75f16701c40038975f430d36a59e9945eb00c60001b610d14565b6110d77fd79895c9a2e8ec74fbfbc7a19b8fbdbdfc593ffd5e3a53a9e2087a6acd14d2e360001b610d14565b6000818403905061110a7f838d96d8841ee193e5a09725669f169e7d0ea42bb8becd0cf8ee696736d9eee560001b610d14565b6111367fcb30453e2ebd47c8f8ab609dc5a809fd557d32fe77d54ef6bb946b16a643fb9360001b610d14565b8061114a8985611c0f90919063ffffffff16565b0261115e8985611ee990919063ffffffff16565b01945050505050611739565b6111967f866cbb2448541329e3e4c3d5a8ba61c3290503a8fbfbbd54eda53bfb5367585c60001b610d14565b6111c27f66038c2069c82b453b5192da75aa3b38ada1180824a16ca38c3de16114db473260001b610d14565b6111ee7f5ea86df6ba878ade5bba7650e6299f36a4239263c17de0a6a1fca3b9f971040460001b610d14565b60006111f987612e04565b90506112277f40b543d63b4167226f6b44807b0831e074f43ddbb7b0eb5c3dcc8a24f4a7932360001b610d14565b6112537f6f783cf4eb31a55be6896d90537c9ab64ca4db8d6f6ce5f62f83429a72d12df160001b610d14565b61127f7f0c70131cada7ac9487058129ded9f3c711fdd2dd6f3046b7df1b3f416b79266160001b610d14565b600061128a82611878565b90506112b87f7c1fde70f24bce36032b54d7221ce45ebac2ee51f9609739e13141d07269f54160001b610d14565b6112e47fb8e7ec6021283d881504d1be98332e254defe7315057c68fa3a3453e3c17712f60001b610d14565b60006112ef826121c3565b905061131d7ffd6667e78735b50a7956e4cc7f9e50fae0a89afaa92bac2f7b6a48da03ddaa2260001b610d14565b6113497f2090c50352b949c3c8b0d56b98c709ffa0ed2218c83b2b525b6438643dbde9fe60001b610d14565b61135860008211610139611865565b6113847fab2a1240f974878b48ea9d059f93c97c2d70c4166154d0c9eeb3e5d0fa0e888a60001b610d14565b6113b07fb2dfa2969dfc1481ea7461b74a46a4c731baeece09428bc3ca770e3b0cfab6ff60001b610d14565b6113bf8682111561013a611865565b50506113ed7fa109912c4a7fb71ad9e72e5ae9947d5a51a0c57e0f6cf675c7a1edad5d64e51560001b610d14565b6114197fdd178df5d2eedab950239eab8e7501b692038408cc8987171ecbc513ff1ada2960001b610d14565b6000806114268684612264565b915091506114567f0a219bff6280a64b17d820fad5aaf7c06ca40dcfbdd0f0327a974d3bd2bd878560001b610d14565b6114827fbf9b096e0ac6bf53c606106970464975e788016d29dd4957f4ad51eae8faf54960001b610d14565b600061148d836121c3565b611496836121c3565b0390506114c57fceb1daa9f4addfcc9e22965604c077f158e906196e50169334481f2d2ae3c2b460001b610d14565b6114f17f0e7cf93553b35b08bee1bd6136dbf13099506bfde643009b61e8280cf15d306160001b610d14565b6000811115611698576115267f7fe02aff60098e14c7abe9788bdea69386be1db97df5166d5d05fee61502973d60001b610d14565b6115527f80e91b532555ed2f0a718278e241480299205fd84f582de3dd855515803ba5d560001b610d14565b61157e7fb7b5b6b7bd9d4bd1f598f56e5983572e1db7eb5809640eed8e9b34f43102ec3260001b610d14565b60006115938c85611ee990919063ffffffff16565b6115a68d85611ee990919063ffffffff16565b0390506115d57f974274dd5859a442db99b87b1432eb44c05a03ae68c4d04439ef79930208f7a560001b610d14565b6116017f24ec5d4cf8d077c84ad30f1061761a55ec70fdea4422f0372c936411fa27698660001b610d14565b600061160c856121c3565b8903905061163c7ff65e4b0d582222f2c11141e1d3506519b50de52114eb856c2bb5c4175e224a2360001b610d14565b6116687fb909cc75c1b9060bedd4e7971cc03dd84ef34f51961c8ecdb283e6ff2ecfd45960001b610d14565b828183028161167357fe5b056116878e87611ee990919063ffffffff16565b019950505050505050505050611739565b6116c47fbd91e8ba68d43accb414fcc00dec5f96984815e1894d0e76ff1920c30d939d6160001b610d14565b6116f07f8e4a1382938b173ebfb80ecd75d4a8dc7d1eb7a487b08b456b143d6ddbd13f2b60001b610d14565b61171c7f5b2928d7f80ce4e495b97f76a0cfe05b277f57514685ce085a1ac6fa956d21de60001b610d14565b61172f8b84611ee990919063ffffffff16565b9750505050505050505b9392505050565b600061176e7f649ca651c71968af6497aa628d5397679ef5f20e9f964a86db2933013cc71ac660001b612e9c565b61179a7f9d26952706dc6192eced1c7dec8db60ee211e5ffa9109766f71a55b8dfbb47e160001b612e9c565b6117c67f623777a5235002056218700a3ad975e222e9f3e6ec183867e13d258977d3471460001b612e9c565b6117da600083612e9f90919063ffffffff16565b6117ee601f85612f3490919063ffffffff16565b611802605487612fd190919063ffffffff16565b611816606a89612f3490919063ffffffff16565b61182a609f8b612fd190919063ffffffff16565b61183e60b58d612f3490919063ffffffff16565b61185260ea8f612fd190919063ffffffff16565b1717171717179050979650505050505050565b81611874576118738161306b565b5b5050565b60006118a67fb663c7c9909358efe4275929393738855eac90eacb4d924fd6f3ddc5b97549e960001b610d14565b6118d27f93c66e2a32979d91d9ec3fad04ad2a8a6b23c439d009e7e88b96613fca4d9f3e60001b610d14565b6118fe7f47fd4a760037ce184bc1d35e2783ea166839fe45d13b50857a2189aadfdf5c2660001b610d14565b600080838152602001908152602001600020549050919050565b600080600080600080600061194f7f602defd52ec39ff315547ebfb5e606befaf09a5c9b40c45509e4601704b7134860001b612e9c565b61197b7f208f463f1972fa1e3f779d49629578992c5d03b5b88beb0e242c6cf9fc68039660001b612e9c565b6119a77f8c4db480088e5b34f80fcf352495d3e077152f61c5a4e739ce6f431653a1639260001b612e9c565b6119b0886130db565b96506119de7fcb66e0fc58b702f452a7c56e48e7e98e1be2e1eeb84f6a7f2783ed3cbd3eaaac60001b612e9c565b611a0a7fc7a11da38d36eff2c77ecfdfa1348b93ecf547a4dc87ffeadc76a4abef89c4e460001b612e9c565b611a138861317c565b9550611a417fb43310fdbaa048e03c247cac6beefc7c79d24a96a8a63ed42b016a474b059ad860001b612e9c565b611a6d7f8d78216f89fccbe07fb8095ae6eb725b3ca7abe96ad4cefbbf8c9f92cb6f870c60001b612e9c565b611a768861321d565b9450611aa47f5e9b7d5624edceac16c4f228fb4934c644106fd3acc242889a5341472bfeb5d560001b612e9c565b611ad07fb347cc0c8e8f16d23cb400a41ba71bd14120ee2750f5da6002d90a7e0ecb30d860001b612e9c565b611ad9886132be565b9350611b077f2f0e6bfc9c2277526e755dcdaec7021ee067d9803109bd3ca564890c5152cd7560001b612e9c565b611b337fa82049f8dc2a026123c877b9c22bcbbfb81bea3fc657f009a83fc20eb874413160001b612e9c565b611b3c8861335f565b9250611b6a7f4b38f5c455cb69511925dc3a1cb9c426b24ab53f5f3316f82391bdab8e2895b160001b612e9c565b611b967f44e76d687308cf7796cf7f6cb9978ed1fcbb153ba19c8266743bea3cd076210160001b612e9c565b611b9f88613400565b9150611bcd7f9d58fb61fa378637c857f621a761b8a29bb589030c48daf3fbd97eb190e5c19060001b612e9c565b611bf97ffa0a6a56661f60181f12e9e2669f1f6c8768c23d17977b777a5eb13256d5334b60001b612e9c565b611c02886121c3565b9050919395979092949650565b6000611c3d7fb9c3e1232d7d064762d026de733747bc440873f4f76b1decfc3407c72b7092bb60001b612e9c565b611c697fd60bf92b9aa346afaa1b13df77cdff2e78afb211399a2fbbb96fb90e52e3701f60001b612e9c565b611c957f9fb3a9b4b34059dce07769bcdf60251d3ca4180fde94e329c6c50d11a6fecfda60001b612e9c565b60006002811115611ca257fe5b826002811115611cae57fe5b1415611d4857611ce07ff8a51d5c73b9e2d4ccbabe2ea6ce8b84ca14066fb17ba030579b088ea5c583ca60001b612e9c565b611d0c7fb9b79ba991e37337aeb1f935f8c42302118b10b72890061a619017301d682fab60001b612e9c565b611d387f431848d91277cabc27205b5d04b5b73d1f26270367520b2622f9d49e4a7d3aa260001b612e9c565b611d41836130db565b9050611ee3565b611d747f6b138f0b844bce0dbc392cd6c9516b4aee26903f5ff0f66d18f61a4da2bdfbb460001b612e9c565b611da07f4b949dc8c8c9008c3b961556aebbefb12cc7059a3840d9db40bd0a783cf519c960001b612e9c565b60016002811115611dad57fe5b826002811115611db957fe5b1415611e5357611deb7f17e2884c769bf7128130b77261047989718f5ef3aeb247a1663c7b5ecdbc378b60001b612e9c565b611e177f4fb84d815aa08fee388c66d4d59328ebac1d197cfbf29efaf149ac9bdf0488a860001b612e9c565b611e437fdc2bce14b944db447aefe902ffa30ca66bb400244a94b68959d4e6b88e75131c60001b612e9c565b611e4c8361321d565b9050611ee3565b611e7f7f030f284a11ac30b986b841027ad0c9219bd4e1cb00ac80be00d286bc02cb434c60001b612e9c565b611eab7f46e418bc451d27a5bc68d1a7d57491bb1a5cbbbaebf3db61b1048b944733840e60001b612e9c565b611ed77ff798e44f483b2a5dce4aedbb65da48b3172be3f8ff166ac213bcd70d6074e15c60001b612e9c565b611ee08361335f565b90505b92915050565b6000611f177f242d7ce4e426c6409da95c6914d106fd4a505a319fb6c3bd78c15bca7fdbcef660001b612e9c565b611f437f7f431ad96dcdf842f517c8b2696f5d211f4f6a4336c346ef416e50e923ab89c960001b612e9c565b611f6f7fed006e35699fe3f7f925c414488eeda627fff9ca4d5f243d749506eb559a1f5760001b612e9c565b60006002811115611f7c57fe5b826002811115611f8857fe5b141561202257611fba7f9d56181d4b472025df2eac7f255856b28ec990eaba7582948b3ea063a730fa1160001b612e9c565b611fe67f92467c561384307376ce765d3e7a63fb00a90fab19936b4c82766e7c4e13724e60001b612e9c565b6120127f15adbaab8ae62884f23b80ad682017b92f3abfa51332f026939c8d4e74ecc53060001b612e9c565b61201b8361317c565b90506121bd565b61204e7f231cd4beb2b221d96ff9ff9cdebe283997bbfdcdf793840c10b5c5cac36b668d60001b612e9c565b61207a7f0e14f7b892690d6346709f389b386f1891ce41d75d950ede5597a15221fb011260001b612e9c565b6001600281111561208757fe5b82600281111561209357fe5b141561212d576120c57f849174d635d6f0894b8134a9261a7371d1a30267acd1f9a51c6d3a1bf368c14560001b612e9c565b6120f17fd4ed57c719e80aa6a239ae19648a72fbeeac577cc1d6a87903046d91d5bd821d60001b612e9c565b61211d7f270948f3a7d6d94fb02fb285ea6b771f375bdf6ec3dce0f5aedba5616e1feef860001b612e9c565b612126836132be565b90506121bd565b6121597f7e0d7b6d72c2022efa8eec0499ff0b1d5b4acccb108094f54f6acda44212bd9060001b612e9c565b6121857f2b7e1168f19125bdf0924f7908543356e76a3a2518089b7a7c9933f02412242e60001b612e9c565b6121b17f9e5f7230c0021949e1967a60b8fd9fddea7df55b8c93004da72a2952081b20ba60001b612e9c565b6121ba83613400565b90505b92915050565b60006121f17f4f4f8df0341baef10cc011b5a6770a6cbf28c654d4fc7f849070ca859677657560001b612e9c565b61221d7f6e3c113f7582bcd235509b0bd91544f2aaafe9be8755c932ddd1b3e40c5da8cd60001b612e9c565b6122497f7540df9278fc384f2e9ad745fc8bae2976b759ee26d8667b7b3469cf6ddd8d7560001b612e9c565b61225d6000836134a190919063ffffffff16565b9050919050565b6000806122937fae06dca45b30b638a9870145bc86980a6ebbc44118da99087e0f248311b7851360001b610d14565b6122bf7fc5108086a9d26b23cb639d2f45bbc324eecf6571f5cec806475c346887e53cfe60001b610d14565b6122eb7f2c31cacfef235c7e88a74292876df28c11ee55d00b6361f52b751a31de00c9c760001b610d14565b60006123197f705760f001e1155fa7a60df17a339ecb7f3209989168fa0b5fa4aafee8c00adc60001b610d14565b6123457fb54b29fc180ac9e6d2a7d31707535c43536341aff7db52558be6bd7a89d14c0160001b610d14565b6000600161040003905061237b7f832de5fa18fd7f255d49a0bfb8c4531acd90eb399b5c5966a0bace2774d8bf8260001b610d14565b6123a77f96cc3b13a0708d22217b76dfb33d2ec6c08c015a07ef94c1d46f7eed9230e4a360001b610d14565b60006123d57feeecc3c393a2a8259fdfa60107511d0d74761cbbbcb820891f2f0a2ce9f00c0460001b610d14565b6124017fce687bfa0455fc351ba2a773b4735e803ab446e6e0f6ddf37280c9b835fc0a1f60001b610d14565b600061242f7f5d7ed06b76fb1968bba4e18b6a5a03118ebdb877971dcea9543e42445154f8b960001b610d14565b61245a7e5b21a39adaaad5be6fd9a300faf6320d0eb090c3f8301887ae5a6d6d938d7060001b610d14565b60006124887f7c7d73be9a949c9695136101f04ce723f4c84976e614a8286903a299d48b125060001b610d14565b6124b47f23d49b7a6f219db72ef7fcbfc0583124f3dc6e4acca25c913915371869dcf1fd60001b610d14565b5b8385116128d2576124e87f9ab41dabc1e8945770274426b52639093d69d919a324580f10008c2e73b4a44760001b610d14565b6125147fa2d99c980acf8968ac4c2a9e7e03181937e9e6e6ce7770e672b2e3a3208048b560001b610d14565b600060028686018161252257fe5b0490506125517f1f9bb342e71c4ffd73e0521cdbf5419b44692433ca2523ba39a9e39eccd342d960001b610d14565b61257d7fad74e23f66e3d46ce2a16d1638cbeed4fbd5c5a77651e8121548a3cb90c1ea2560001b610d14565b612590898261353c90919063ffffffff16565b93506125be7fa8be6468b1464c60eb4e066004a9506c816661e2ed14995737ef74d1aa7944ce60001b610d14565b6125ea7fe319dadca5ff03713ad2dfb819186dc19a0a10002c52f61d56cf6c94df1c5acd60001b610d14565b6125f384611878565b92506126217f49e5667f496686388db714d498f70fd8e3048c2a9abf59963ebc18b09edfb49b60001b610d14565b61264d7fe702c31f04e230be85418d4d01ae0e39301a6723959c5cd6e83f0b9eb13a649d60001b610d14565b612656836121c3565b91506126847fd9edb0bd1a76cd669926a3e3fd455d5917d982e4406f7fd44b909403fc03fc9460001b610d14565b6126b07f343c7c30394a90cbc8ad8e094cca71e5a280b212f8ec6882c96e802b9508e1e960001b610d14565b89821015612747576126e47fe1b7ac6d5d223fce5b38eca7bac881b6f8d7b68c71e7edd8bca15eed4648e99060001b610d14565b6127107ff3b592339b95a55efa82ac56a4dc2b9a0495ce9af2378291cc3e21a5b4652f7860001b610d14565b61273c7f40ce58edfe50bb71fb8b62fe2f7bead7be963b93d8e1c8815b7b9a985a11553b60001b610d14565b6001810195506128cc565b6127737ff23c0017bd3eb0b79ef2e61271fd04947c8a6a90f49253e0f4cb4a035b745e3c60001b610d14565b61279f7f1bbe4215b9672d05f6f1a0c3471a1d3d3f359edb2655c165c141df45feb305f060001b610d14565b89821115612836576127d37f73251950f8c9ae3cd6243f6951ab0c667eb505c06c8e91cce6e5cfafd241554360001b610d14565b6127ff7f8953516b4b862f81f6bb3bb3babfef6900a232053f4d8d7b999e9a279ac032c060001b610d14565b61282b7fe78e9bb183b945c6586bbbd68481f45793f27334854fd93ce042abb280e547cc60001b610d14565b6001810394506128cb565b6128627f72322a51dd77ff02705395aea50d6f482b9bc4fb6650737e18abf02ed7e8d02660001b610d14565b61288e7f52a18b57f0f05cac53a653785c361fc19af8779b1213185fafcfac2669b5c0e960001b610d14565b6128ba7fe6fbb20c5bec906ae79adfaf3ce6c70c733f73465ccdafe59e0f266e0120b26f60001b610d14565b828397509750505050505050612965565b5b506124b5565b6128fe7f3b8686d623b7d38fdda3bf7de472681f0bacf555650ce84e2f982122ecb5c7a260001b610d14565b61292a7f4111a4e78f00f91a7467fa813d8931e30ca57312e51a1d675eace75e886eda7860001b610d14565b8881106129485761294261293d846135d8565b611878565b8261295b565b8161295a61295585612e04565b611878565b5b9650965050505050505b9250929050565b600061299a7f6b2baf19b6beb92e963ac71798ac205832a07d6d4f97956a06dd98b8d4cec04b60001b610d14565b6129c67feea61bbdd6f077939840619d007eb805ba5ff1aba59a818d2d4c63dfcb316f0860001b610d14565b6129f27f6284dc0a37eceb047588fcbf31a4ddbfcbdc3f142f15c5f97ca05b8620e6734960001b610d14565b6000612a1585858542612a048b611878565b612bbe90949392919063ffffffff16565b9050612a437f45e66c62334a260d14090c7026f27e0ac134a637d42cc7b5191a28d5fa21de7f60001b610d14565b612a6f7f7a3403f224b75e3ca0934870530f76b8914eb91c0b6e7d803c09bd67172efe9360001b610d14565b6000607888420310159050612aa67f3ee0bcf438747ba85cacb8f2d48f86e2cddbe319308dd578672de84895ff3bb660001b610d14565b612ad27f6419351ad270bea87ac09a5fbb174b25166e56c5e3dea1799a10b6521253c47460001b610d14565b80612add5786612ae7565b612ae687612e04565b5b9650612b157f3453df95cfef3a8297a9400557a68291cc5716ce53660746c80fbf6a1b20b22c60001b610d14565b612b417f1c1b9910789cf01fa2f4782018eb58de1d8f865222ef79f88e72784f0639ac6c60001b610d14565b8160008089815260200190815260200160002081905550612b847f2fb0f1f9c8503db5b11aa21fbf17e19d3c1ec127da9ef7b48b76a15181c385cf60001b610d14565b612bb07f7992c10b52b47450aed68da15ab79e2c23cf723d285ec1bfc82b5570e80ee22860001b610d14565b869250505095945050505050565b6000612bec7fe76935a3046fe2ac7b48de0dd20821c8513cd3b66bad75b9e2bcc89a8ba417c860001b612e9c565b612c187f6787a5afee7107d67c7330e8d1817175a7d295b3a87d107d9e9ab1619bab3aa660001b612e9c565b612c447f353e357e5c9cf60092baaebfefbfb35590f2e4d1dcdba4a98747cecec84a482160001b612e9c565b6000612c4f876121c3565b83039050612c7f7f367432a5a61e14eb63c4bb17628d68a2d431eb4196079198c8f739a20b24892e60001b612e9c565b612cab7fbb66b560104938245a8e951352495785fdcee591cf9c9aaa40757cc8b035d80d60001b612e9c565b6000818702612cb98961317c565b019050612ce87f585049f6e0841d1518683990afa386866b098e48ce548f723774d3216cba366660001b612e9c565b612d147f26505d6a87a0ae3a24d63db7aed27f1fb5f6c06daae6fd794318e9affb4255b860001b612e9c565b6000828702612d228a6132be565b019050612d517f57ccc93bf2e53c5434bf7b99d140c3b1122852f1830084745f3fa35b1745db1760001b612e9c565b612d7d7f984e8a705ff0341913b0afc6bda6c52a94127ec221db7888f3f6aaf66544f40960001b612e9c565b6000838702612d8b8b613400565b019050612dba7f93394cd4511b236d3998485157152faad84957df6ec0c18ec00f0496f7b9ef2460001b612e9c565b612de67f91395b0389f5dadc02515d7d644444a7bf97484490684e8c3ae7ccf9529f28a760001b612e9c565b612df589848a858b868c611740565b94505050505095945050505050565b6000612e327f1816fe5ed22c4268791959da365b068e77a8a318b51c84cbb25b568a943eb6b660001b613670565b612e5e7f0cd097b5690d80c507eaddd8cafece50efd45b8c4c0c9fdde16dd6951cc0fe9960001b613670565b612e8a7fe2e7fe16e84f980ccd236a4f71af5820d6c1c3af4be2bb49b54ac7290e351db460001b613670565b612e9582600161353c565b9050919050565b50565b6000612ecd7f5ed75e54529047e84a5f3a87a2a37d2ee1994039312bc7baa2bbfa53ba55a73060001b613673565b612ef97f33b4ac5cafdb9d766605809d416b653443a75d0060312cf5f543d767fe6f7e1a60001b613673565b612f257fa8423cd9d13faa582ec64bfc181cd0377b68190a84c0cfd835129cb3f8b0916b60001b613673565b8183901b60001b905092915050565b6000612f617e4065a2d0358f6aa81ec89fddcc89ed7cf5baa4639db73651c23de9eb47e57460001b613673565b612f8d7f249435d51dfef3bc8de8c03d2a633a7f5588fc02e6c38a52ad49f731a28ee94960001b613673565b612fb97fe40188c5a44fcf77a9e869155b4db27643db4579e3c857383f7ebc565e1a48ad60001b613673565b81661fffffffffffff8416901b60001b905092915050565b6000612fff7f74aef389e1493cdff3c49fdfc7f7b37cb3080c24489d7da8f153a0c1d7b9341660001b613673565b61302b7f9c6420a9a8ba58e4ca69822beaa1b00ab80ada46b733a3ed72ededed2fc5fab060001b613673565b6130577f694c63d49888b3f9a69d40aa2c1978fbad4ba281042d48dd5c69ac505ba1ee6f60001b613673565b81623fffff8416901b60001b905092915050565b6030600a820601600a820491506030600a830601600a830492506030600a8406018060101b8260081b8401016642414c230000000160c81b7f08c379a000000000000000000000000000000000000000000000000000000000600052602060045260076024528060445260646000fd5b60006131097f8ed153528fa9768c9004bdfc00da996ef63c4cc01ea5d2fcc35c8f857b069e2960001b612e9c565b6131357fbb77a52cdb763c3e2ba11b36c021ba678ee84d282ba1495c69d3766d145356b060001b612e9c565b6131617f3369d605e13d4982db63364c8b9d453d914af668f01f959829a0fecd9c1f496960001b612e9c565b61317560ea8361367690919063ffffffff16565b9050919050565b60006131aa7f05ff2c1e6e96fae32a5d5b6a70e886f34a7807214ef13f5282aca78638d1cd0860001b612e9c565b6131d67f654e2929ee9ec55ba9df30eb2f2d2e8e8a5cb0888cd6fc8e720b305d2ae950b960001b612e9c565b6132027f5f3e3a182afb4d8fcf872654ff33275af21371665ba84f564d341ebb71f167dd60001b612e9c565b61321660b58361378590919063ffffffff16565b9050919050565b600061324b7fc5eea0fdac116fd8da2bfdf698b8f31cf859ab951237668b1978a9881ca0d02460001b612e9c565b6132777f025185ce18753362297547b5510270331d68fd3f890ae93eefd760747690561360001b612e9c565b6132a37fe73c4d305d2091c66e2951d3ca6117a57dd41f9a9e11ed906b957383ebc123c660001b612e9c565b6132b7609f8361367690919063ffffffff16565b9050919050565b60006132ec7f9dfe86c69da653f2d99fcd8b0637b732f9f93093e78b9efaa9134a6833b6dd9460001b612e9c565b6133187f216f668420e58b0df420f3bf3f04249ea728b94bf9aaa82be5d34094e85b3a8d60001b612e9c565b6133447f996abce40b86e0fa6229189d0b92801a16cc3c0cac71d6448ed12ea3b9ea0d0b60001b612e9c565b613358606a8361378590919063ffffffff16565b9050919050565b600061338d7f43fa442e0207c485262f1383b1fe877e7edd97c2b5cd8d801d37138263383ec960001b612e9c565b6133b97f1bd41df5c67eb34c3b1030704e26d13d1203424471ed41b88e0e0bcb83221a7d60001b612e9c565b6133e57faa165b2ce79a7ee7a4c81bb7aff5e51504badbfad1662f7a7dc97b29aa0c03d960001b612e9c565b6133f960548361367690919063ffffffff16565b9050919050565b600061342e7f4a0878a2d0cd01a58f9316c456c45eef1b328dd263d66b8ee3f4a2dc54ca78a360001b612e9c565b61345a7f8228b952996223d32fa05964b0bf277bff72242c7bcdea2e3e55971816b2dae060001b612e9c565b6134867f1d32c05cf509caa303776e5783d478735960841e1c2b3c6811fd0db9951f7cf660001b612e9c565b61349a601f8361378590919063ffffffff16565b9050919050565b60006134cf7f9936610b4dfa760190e0dc43cd201291602dec265b21f8f43dd559cf0795d28d60001b613673565b6134fb7f32976e36f76c8ec61c93a470f36d48533be4f570d8f14e9d0d49b6420f19d7ea60001b613673565b6135277fe5ffaf62771b134ae0b87c7be66fd0708c0b5ab3f652b312cb5bc277ccc07a1860001b613673565b637fffffff8284901c60001c16905092915050565b600061356a7f24d34eabc28a20f006bbbed2ba9d204b6e78db6e17eb71d62622c3150a1e1dbd60001b613670565b6135967fa286b2824fb1e0dc255216b1700213e1893e7b2afd5052929268f6d5d1427b1360001b613670565b6135c27f0d2c97cccae692957e303796eaa878fc92384309852a722f59d6c44c6499874160001b613670565b610400828401816135cf57fe5b06905092915050565b60006136067f5a6319e2e8ab40e0ce0f5f662cfd235cf1056cc09f9b827d81848b955339edb960001b613670565b6136327fdfeaf9e7403ba85c23876b88b040f810de42d79432fbeddb39a9f0dd1e3e7a7860001b613670565b61365e7f64a60f85150f6f782ae2f5c5400d66709fc84eb2ea8e6f71e7227757b388196260001b613670565b6136698260016138a0565b9050919050565b50565b50565b60006136a47fb8ef8fb3252cad09ac399366f93440094d233b6df07cc0170de56767b26d5ffd60001b613673565b6136d07fb7e5cc01d96a7bf140fee720e7eff786382458ab048db1b6cfa37a48a14ef22e60001b613673565b6136fc7fcf842935d2efaa91f2bdfaf37b17634319af00e7c49177f92f3f285ff13f386260001b613673565b6000623fffff8385901c60001c1690506137387f7c753d1a39c40fa93a0ae38a7ad65e4d6da78569ecde61a300330eff7c6e06dd60001b613673565b6137647f4d00d213b1ad6851865aa658494e7f47d6f2e2a239ee97ad772c6e12aca2501760001b613673565b621fffff8113613774578061377c565b623fffff1981175b91505092915050565b60006137b37fed7f70226a439f77e15b8697ea2fab255dd72aab1df8ebcaacaec174f0ac470e60001b613673565b6137df7fe1b3cf950de3f9c0a0a0a0403256fc839e91379d202c25e484e9e4708b38097760001b613673565b61380b7f9d824ca7f3f3b3214a00bc63d0dfc15b3612c3463c11b7778c7f9a0810d1b4c360001b613673565b6000661fffffffffffff8385901c60001c16905061384b7f65c235ba4eb564702527d802569096c628b144a6cbdc538f9750aa17b8fafe1f60001b613673565b6138777fec190432853f6f819d3c0a490a38c25de5a141b5452fe99df311e0d54604078f60001b613673565b660fffffffffffff811361388b5780613897565b661fffffffffffff1981175b91505092915050565b60006138ce7f0f2f730e0135a40b3c32ed45ce6deda0923d08a8b38914d117091e0f06e6968160001b613670565b6138fa7f4be75efbbc3e36bf91eddccabad6aab0583378aad4c6dc9883691e07370847c760001b613670565b6139267f83ee78e9f2fc125cd8613644633b696114161c90528312749244fca56ef9dfca60001b613670565b610400826104008501038161393757fe5b06905092915050565b6040518060e00160405280600081526020016000815260200160008152602001600081526020016000815260200160008152602001600081525090565b604051806040016040528060008152602001600081525090565b600082601f8301126139a857600080fd5b81356139bb6139b682614136565b614109565b915081818352602084019350602081019050838560e08402820111156139e057600080fd5b60005b83811015613a1057816139f68882613adc565b845260208401935060e083019250506001810190506139e3565b5050505092915050565b600082601f830112613a2b57600080fd5b8135613a3e613a398261415e565b614109565b91508181835260208401935060208101905083856020840282011115613a6357600080fd5b60005b83811015613a935781613a798882613b8c565b845260208401935060208301925050600181019050613a66565b5050505092915050565b600081359050613aac816141e9565b92915050565b600081359050613ac181614200565b92915050565b600081359050613ad681614210565b92915050565b600060e08284031215613aee57600080fd5b613af860e0614109565b90506000613b0884828501613ac7565b6000830152506020613b1c84828501613ac7565b6020830152506040613b3084828501613ac7565b6040830152506060613b4484828501613ac7565b6060830152506080613b5884828501613ac7565b60808301525060a0613b6c84828501613ac7565b60a08301525060c0613b8084828501613b8c565b60c08301525092915050565b600081359050613b9b81614227565b92915050565b60008060408385031215613bb457600080fd5b600083013567ffffffffffffffff811115613bce57600080fd5b613bda85828601613a1a565b925050602083013567ffffffffffffffff811115613bf757600080fd5b613c0385828601613997565b9150509250929050565b60008060408385031215613c2057600080fd5b600083013567ffffffffffffffff811115613c3a57600080fd5b613c4685828601613a1a565b9250506020613c5785828601613b8c565b9150509250929050565b600060208284031215613c7357600080fd5b6000613c8184828501613a9d565b91505092915050565b600080600080600060a08688031215613ca257600080fd5b6000613cb088828901613a9d565b9550506020613cc188828901613ac7565b9450506040613cd288828901613ac7565b9350506060613ce388828901613ac7565b9250506080613cf488828901613b8c565b9150509295509295909350565b600080600060608486031215613d1657600080fd5b6000613d2486828701613ab2565b9350506020613d3586828701613b8c565b9250506040613d4686828701613b8c565b9150509250925092565b600060e08284031215613d6257600080fd5b6000613d7084828501613adc565b91505092915050565b600060208284031215613d8b57600080fd5b6000613d9984828501613b8c565b91505092915050565b6000806101008385031215613db657600080fd5b6000613dc485828601613b8c565b9250506020613dd585828601613adc565b9150509250929050565b600080600080600060a08688031215613df757600080fd5b6000613e0588828901613b8c565b9550506020613e1688828901613b8c565b9450506040613e2788828901613ac7565b9350506060613e3888828901613ac7565b9250506080613e4988828901613ac7565b9150509295509295909350565b6000613e628383613f08565b60408301905092915050565b6000613e7982614196565b613e8381856141ae565b9350613e8e83614186565b8060005b83811015613ebf578151613ea68882613e56565b9750613eb1836141a1565b925050600181019050613e92565b5085935050505092915050565b613ed5816141bf565b82525050565b613ee4816141cb565b82525050565b613ef3816141d5565b82525050565b613f02816141d5565b82525050565b604082016000820151613f1e6000850182613fc5565b506020820151613f316020850182613fc5565b50505050565b60e082016000820151613f4d6000850182613eea565b506020820151613f606020850182613eea565b506040820151613f736040850182613eea565b506060820151613f866060850182613eea565b506080820151613f996080850182613eea565b5060a0820151613fac60a0850182613eea565b5060c0820151613fbf60c0850182613fc5565b50505050565b613fce816141df565b82525050565b613fdd816141df565b82525050565b60006020820190508181036000830152613ffd8184613e6e565b905092915050565b600060408201905061401a6000830185613ecc565b6140276020830184613fd4565b9392505050565b60006020820190506140436000830184613edb565b92915050565b600060208201905061405e6000830184613ef9565b92915050565b600060e082019050614079600083018a613ef9565b6140866020830189613ef9565b6140936040830188613ef9565b6140a06060830187613ef9565b6140ad6080830186613ef9565b6140ba60a0830185613ef9565b6140c760c0830184613fd4565b98975050505050505050565b600060e0820190506140e86000830184613f37565b92915050565b60006020820190506141036000830184613fd4565b92915050565b6000604051905081810181811067ffffffffffffffff8211171561412c57600080fd5b8060405250919050565b600067ffffffffffffffff82111561414d57600080fd5b602082029050602081019050919050565b600067ffffffffffffffff82111561417557600080fd5b602082029050602081019050919050565b6000819050602082019050919050565b600081519050919050565b6000602082019050919050565b600082825260208201905092915050565b60008115159050919050565b6000819050919050565b6000819050919050565b6000819050919050565b6141f2816141cb565b81146141fd57600080fd5b50565b6003811061420d57600080fd5b50565b614219816141d5565b811461422457600080fd5b50565b614230816141df565b811461423b57600080fd5b5056fea26469706673582212208881fffe6a4e7289bd23f78c7d337392104e6bcfa2decb647bc81f4aabf93b3c64736f6c63430007010033",
  "linkReferences": {},
  "deployedLinkReferences": {}
}