{
  "_format": "hh-sol-artifact-1",
  "contractName": "Authorizer",
  "sourceName": "contracts/balancer-core-v2/vault/Authorizer.sol",
  "abi": [
    {
      "inputs": [
        {
          "internalType": "address",
          "name": "admin",
          "type": "address"
        }
      ],
      "stateMutability": "nonpayable",
      "type": "constructor"
    },
    {
      "anonymous": false,
      "inputs": [
        {
          "indexed": true,
          "internalType": "bytes32",
          "name": "role",
          "type": "bytes32"
        },
        {
          "indexed": true,
          "internalType": "bytes32",
          "name": "previousAdminRole",
          "type": "bytes32"
        },
        {
          "indexed": true,
          "internalType": "bytes32",
          "name": "newAdminRole",
          "type": "bytes32"
        }
      ],
      "name": "RoleAdminChanged",
      "type": "event"
    },
    {
      "anonymous": false,
      "inputs": [
        {
          "indexed": true,
          "internalType": "bytes32",
          "name": "role",
          "type": "bytes32"
        },
        {
          "indexed": true,
          "internalType": "address",
          "name": "account",
          "type": "address"
        },
        {
          "indexed": true,
          "internalType": "address",
          "name": "sender",
          "type": "address"
        }
      ],
      "name": "RoleGranted",
      "type": "event"
    },
    {
      "anonymous": false,
      "inputs": [
        {
          "indexed": true,
          "internalType": "bytes32",
          "name": "role",
          "type": "bytes32"
        },
        {
          "indexed": true,
          "internalType": "address",
          "name": "account",
          "type": "address"
        },
        {
          "indexed": true,
          "internalType": "address",
          "name": "sender",
          "type": "address"
        }
      ],
      "name": "RoleRevoked",
      "type": "event"
    },
    {
      "inputs": [],
      "name": "DEFAULT_ADMIN_ROLE",
      "outputs": [
        {
          "internalType": "bytes32",
          "name": "",
          "type": "bytes32"
        }
      ],
      "stateMutability": "view",
      "type": "function"
    },
    {
      "inputs": [
        {
          "internalType": "bytes32",
          "name": "c__0x2cc34d3d",
          "type": "bytes32"
        }
      ],
      "name": "c_0x2cc34d3d",
      "outputs": [],
      "stateMutability": "pure",
      "type": "function"
    },
    {
      "inputs": [
        {
          "internalType": "bytes32",
          "name": "c__0x98b0ad63",
          "type": "bytes32"
        }
      ],
      "name": "c_0x98b0ad63",
      "outputs": [],
      "stateMutability": "pure",
      "type": "function"
    },
    {
      "inputs": [
        {
          "internalType": "bytes32",
          "name": "actionId",
          "type": "bytes32"
        },
        {
          "internalType": "address",
          "name": "account",
          "type": "address"
        },
        {
          "internalType": "address",
          "name": "",
          "type": "address"
        }
      ],
      "name": "canPerform",
      "outputs": [
        {
          "internalType": "bool",
          "name": "",
          "type": "bool"
        }
      ],
      "stateMutability": "view",
      "type": "function"
    },
    {
      "inputs": [
        {
          "internalType": "bytes32",
          "name": "role",
          "type": "bytes32"
        }
      ],
      "name": "getRoleAdmin",
      "outputs": [
        {
          "internalType": "bytes32",
          "name": "",
          "type": "bytes32"
        }
      ],
      "stateMutability": "view",
      "type": "function"
    },
    {
      "inputs": [
        {
          "internalType": "bytes32",
          "name": "role",
          "type": "bytes32"
        },
        {
          "internalType": "uint256",
          "name": "index",
          "type": "uint256"
        }
      ],
      "name": "getRoleMember",
      "outputs": [
        {
          "internalType": "address",
          "name": "",
          "type": "address"
        }
      ],
      "stateMutability": "view",
      "type": "function"
    },
    {
      "inputs": [
        {
          "internalType": "bytes32",
          "name": "role",
          "type": "bytes32"
        }
      ],
      "name": "getRoleMemberCount",
      "outputs": [
        {
          "internalType": "uint256",
          "name": "",
          "type": "uint256"
        }
      ],
      "stateMutability": "view",
      "type": "function"
    },
    {
      "inputs": [
        {
          "internalType": "bytes32",
          "name": "role",
          "type": "bytes32"
        },
        {
          "internalType": "address",
          "name": "account",
          "type": "address"
        }
      ],
      "name": "grantRole",
      "outputs": [],
      "stateMutability": "nonpayable",
      "type": "function"
    },
    {
      "inputs": [
        {
          "internalType": "bytes32[]",
          "name": "roles",
          "type": "bytes32[]"
        },
        {
          "internalType": "address",
          "name": "account",
          "type": "address"
        }
      ],
      "name": "grantRoles",
      "outputs": [],
      "stateMutability": "nonpayable",
      "type": "function"
    },
    {
      "inputs": [
        {
          "internalType": "bytes32[]",
          "name": "roles",
          "type": "bytes32[]"
        },
        {
          "internalType": "address[]",
          "name": "accounts",
          "type": "address[]"
        }
      ],
      "name": "grantRolesToMany",
      "outputs": [],
      "stateMutability": "nonpayable",
      "type": "function"
    },
    {
      "inputs": [
        {
          "internalType": "bytes32",
          "name": "role",
          "type": "bytes32"
        },
        {
          "internalType": "address",
          "name": "account",
          "type": "address"
        }
      ],
      "name": "hasRole",
      "outputs": [
        {
          "internalType": "bool",
          "name": "",
          "type": "bool"
        }
      ],
      "stateMutability": "view",
      "type": "function"
    },
    {
      "inputs": [
        {
          "internalType": "bytes32",
          "name": "role",
          "type": "bytes32"
        },
        {
          "internalType": "address",
          "name": "account",
          "type": "address"
        }
      ],
      "name": "renounceRole",
      "outputs": [],
      "stateMutability": "nonpayable",
      "type": "function"
    },
    {
      "inputs": [
        {
          "internalType": "bytes32",
          "name": "role",
          "type": "bytes32"
        },
        {
          "internalType": "address",
          "name": "account",
          "type": "address"
        }
      ],
      "name": "revokeRole",
      "outputs": [],
      "stateMutability": "nonpayable",
      "type": "function"
    },
    {
      "inputs": [
        {
          "internalType": "bytes32[]",
          "name": "roles",
          "type": "bytes32[]"
        },
        {
          "internalType": "address",
          "name": "account",
          "type": "address"
        }
      ],
      "name": "revokeRoles",
      "outputs": [],
      "stateMutability": "nonpayable",
      "type": "function"
    },
    {
      "inputs": [
        {
          "internalType": "bytes32[]",
          "name": "roles",
          "type": "bytes32[]"
        },
        {
          "internalType": "address[]",
          "name": "accounts",
          "type": "address[]"
        }
      ],
      "name": "revokeRolesFromMany",
      "outputs": [],
      "stateMutability": "nonpayable",
      "type": "function"
    }
  ],
  "bytecode": "0x60806040523480156200001157600080fd5b5060405162002dd138038062002dd1833981810160405260208110156200003757600080fd5b81019080805190602001909291905050506200007c7ff60d66c5e1b3405c32d410ebff9c81c248dfd6d189428bef385de1fa32cfa3e360001b6200010060201b60201c565b620000b07fcbf791684f6b7ed01816d57f42b65edfebd4a0951e6e6bae63a220b4cb1bde6560001b6200010060201b60201c565b620000e47f36475ceb8dde4e85065175ba645c6bc1a9e5116fd6add5eab0b37e240a0c3e6860001b6200010060201b60201c565b620000f96000801b826200010360201b60201c565b5062000830565b50565b620001377f1bc4261b512912d5739ed076e6476329a37310011fa40704744a63f4d2dc656560001b620001b560201b60201c565b6200016b7f6567523a5c4cf3fe9a6b088fde186f9c3ecbcd058f3bca4325a4093e74dfee3e60001b620001b560201b60201c565b6200019f7f3186756c59fa3007b25bd29c3fd829bec2e50091b743932821b6e0cc9d17dec160001b620001b560201b60201c565b620001b18282620001b860201b60201c565b5050565b50565b620001ec7f6407d3d700902783b0790ecd7d71fdf7c6d17edba52cb13148c9e81367f0cdb160001b620001b560201b60201c565b620002207f991f445417ef670ce1718bf3efa0d897ff34d218374430935c01ebbe5e7911b660001b620001b560201b60201c565b620002547f117edf4877bd519647f10f3d83f7b040aaa2b4763029dadefd4d02ee08bbca4f60001b620001b560201b60201c565b6200028281600080858152602001908152602001600020600001620003be60201b620014671790919060201c565b156200038557620002bc7ffd44c5a846114fb700dfd54fb7756bb74ae09b46d502310ce7ae7d5d0e56b96260001b620001b560201b60201c565b620002f07fcbe6fb2ac1ff183b90917394e59028226c90b462a54d68fa99119902e9bdd48160001b620001b560201b60201c565b620003247f03e7c6fa9469425312fde46e7310b2d5c9a715be7fb4dece2dee6e7a37beb80160001b620001b560201b60201c565b3373ffffffffffffffffffffffffffffffffffffffff168173ffffffffffffffffffffffffffffffffffffffff16837f2f8788117e7eff1d82e926ec794901d17c78024a50270940304540a733656f0d60405160405180910390a4620003ba565b620003b97f639f4fd4e5b6e771451b1c96d41fe078a472e3ce4e39de30b72676385dafe22360001b620001b560201b60201c565b5b5050565b6000620003f47fafc28c8ad46b468274539bc8314e2745dc2d3f7038af583f6c25b345252299ff60001b6200074160201b60201c565b620004287fd65cd8894cd7599d573934ee4e7259bca66b67f4529b86afc85561768ab6331260001b6200074160201b60201c565b6200045c7f73d15665ebf97f2ec239c9de9f2d368145ebf8bfc29584cd00c883286bb0b5b760001b6200074160201b60201c565b6200046e83836200074460201b60201c565b6200069a57620004a77f611dcc30a45c499ce3ad496c52bc2186f0cbc5070a77971fa17d0e3c8aff993460001b6200074160201b60201c565b620004db7fa1ffd1a624ba2fc9ad3784e766979c10b69548953e33fdd8d52fd1ad9249db4260001b6200074160201b60201c565b6200050f7f0d3795d19e3ebbfce65a7f6dba4be223b7dfc11d45684a2b8b9639624890e76d60001b6200074160201b60201c565b82600001829080600181540180825580915050600190039060005260206000200160009091909190916101000a81548173ffffffffffffffffffffffffffffffffffffffff021916908373ffffffffffffffffffffffffffffffffffffffff160217905550620005a87f7616d7a05facba46804c61ead3a84857b28996bfef33527f000952dbb1f24fe360001b6200074160201b60201c565b620005db7ec337f7341aebee30ff50d6368e9a9860da52fa5226dacb871fc4a28004838860001b6200074160201b60201c565b82600001805490508360010160008473ffffffffffffffffffffffffffffffffffffffff1673ffffffffffffffffffffffffffffffffffffffff168152602001908152602001600020819055506200065c7f13ba2f78dd7ecaf55a4cc3f8d3e7f93c5cadbc063ffeefb68c7949802b5d3a6e60001b6200074160201b60201c565b620006907fc0490b09000a2341c56dc8ebb7359ac889a50a807ad657762b431c42ebed81d860001b6200074160201b60201c565b600190506200073b565b620006ce7f4e16a37a129416984b8f77905fffb3105d2d16c5bffcc10366666605395cd0b160001b6200074160201b60201c565b620007027fef2de3f863211443d90a1d49147a100c20a57273298331ae7e2cd54c79a3875a60001b6200074160201b60201c565b620007367fc9303cbc2544604f1547dd8d81f7d4d4eb689c320fb75389df721b35f0e1d15d60001b6200074160201b60201c565b600090505b92915050565b50565b60006200077a7f26c9003ff5622b36c455b3a2c7e8ee8219dd1ee06aee5bb7688394f0bf73678160001b6200074160201b60201c565b620007ae7f6f417677c8a9f3d1599c594602edcb366521c6a206303cbfe730cb780577f19e60001b6200074160201b60201c565b620007e27f43227e98846ec640660e022ffd05a933731005a59b7cafa20d1e956c3e0c379f60001b6200074160201b60201c565b60008360010160008473ffffffffffffffffffffffffffffffffffffffff1673ffffffffffffffffffffffffffffffffffffffff168152602001908152602001600020541415905092915050565b61259180620008406000396000f3fe608060405234801561001057600080fd5b50600436106100f55760003560e01c8063986d79f611610097578063a73cb2ab11610066578063a73cb2ab146105c0578063ca15c8731461070c578063d547741f1461074e578063fcd7627e1461079c576100f5565b8063986d79f614610418578063988360a3146104465780639be2a8841461051e578063a217fddf146105a2576100f5565b806336568abe116100d357806336568abe146102d65780633b1dc403146103245780639010d07c1461035257806391d14854146103b4576100f5565b806318b2cde9146100fa578063248a9ca3146102465780632f2ff15d14610288575b600080fd5b6102446004803603604081101561011057600080fd5b810190808035906020019064010000000081111561012d57600080fd5b82018360208201111561013f57600080fd5b8035906020019184602083028401116401000000008311171561016157600080fd5b919080806020026020016040519081016040528093929190818152602001838360200280828437600081840152601f19601f820116905080830192505050505050509192919290803590602001906401000000008111156101c157600080fd5b8201836020820111156101d357600080fd5b803590602001918460208302840111640100000000831117156101f557600080fd5b919080806020026020016040519081016040528093929190818152602001838360200280828437600081840152601f19601f820116905080830192505050505050509192919290505050610874565b005b6102726004803603602081101561025c57600080fd5b8101908080359060200190929190505050610a02565b6040518082815260200191505060405180910390f35b6102d46004803603604081101561029e57600080fd5b8101908080359060200190929190803573ffffffffffffffffffffffffffffffffffffffff169060200190929190505050610aa5565b005b610322600480360360408110156102ec57600080fd5b8101908080359060200190929190803573ffffffffffffffffffffffffffffffffffffffff169060200190929190505050610bb9565b005b6103506004803603602081101561033a57600080fd5b8101908080359060200190929190505050610cdd565b005b6103886004803603604081101561036857600080fd5b810190808035906020019092919080359060200190929190505050610ce0565b604051808273ffffffffffffffffffffffffffffffffffffffff16815260200191505060405180910390f35b610400600480360360408110156103ca57600080fd5b8101908080359060200190929190803573ffffffffffffffffffffffffffffffffffffffff169060200190929190505050610d95565b60405180821515815260200191505060405180910390f35b6104446004803603602081101561042e57600080fd5b8101908080359060200190929190505050610e4a565b005b61051c6004803603604081101561045c57600080fd5b810190808035906020019064010000000081111561047957600080fd5b82018360208201111561048b57600080fd5b803590602001918460208302840111640100000000831117156104ad57600080fd5b919080806020026020016040519081016040528093929190818152602001838360200280828437600081840152601f19601f820116905080830192505050505050509192919290803573ffffffffffffffffffffffffffffffffffffffff169060200190929190505050610e4d565b005b61058a6004803603606081101561053457600080fd5b8101908080359060200190929190803573ffffffffffffffffffffffffffffffffffffffff169060200190929190803573ffffffffffffffffffffffffffffffffffffffff169060200190929190505050610f64565b60405180821515815260200191505060405180910390f35b6105aa610ffd565b6040518082815260200191505060405180910390f35b61070a600480360360408110156105d657600080fd5b81019080803590602001906401000000008111156105f357600080fd5b82018360208201111561060557600080fd5b8035906020019184602083028401116401000000008311171561062757600080fd5b919080806020026020016040519081016040528093929190818152602001838360200280828437600081840152601f19601f8201169050808301925050505050505091929192908035906020019064010000000081111561068757600080fd5b82018360208201111561069957600080fd5b803590602001918460208302840111640100000000831117156106bb57600080fd5b919080806020026020016040519081016040528093929190818152602001838360200280828437600081840152601f19601f820116905080830192505050505050509192919290505050611004565b005b6107386004803603602081101561072257600080fd5b8101908080359060200190929190505050611192565b6040518082815260200191505060405180910390f35b61079a6004803603604081101561076457600080fd5b8101908080359060200190929190803573ffffffffffffffffffffffffffffffffffffffff16906020019092919050505061123c565b005b610872600480360360408110156107b257600080fd5b81019080803590602001906401000000008111156107cf57600080fd5b8201836020820111156107e157600080fd5b8035906020019184602083028401116401000000008311171561080357600080fd5b919080806020026020016040519081016040528093929190818152602001838360200280828437600081840152601f19601f820116905080830192505050505050509192919290803573ffffffffffffffffffffffffffffffffffffffff169060200190929190505050611350565b005b6108a07ff41351b2a4226a4d48b938f0196978fa530cffa234b9bf247791ed5e97a3bdc660001b610e4a565b6108cc7ff8089b2c813bc4e2e14926aa973fc288c70d80f8288784f1582525d13ea1d85d60001b610e4a565b6108f87fd372000a56d9da4a5f51ff7c7b56d97cddb78405c5d6399e6beaf5e07f5059d660001b610e4a565b61090482518251611778565b6109307ff3f8dd2628488d172b32f643677d2c934605ddfc2225361ddb637558f15b9fa560001b610e4a565b61095c7f852df4b1e87fdc3e38f87cc9117e4ad79055167b1aabf21aff2d2c1ea6b46b6c60001b610e4a565b60005b82518110156109fd576109947f4a6d410be6997fc44a5a8a8fa06428a93c4221d727eb970c4157db0a81c1cc3e60001b610e4a565b6109c07fd2ce66c11535a645a6dac163f32c73c8915a26612f6cd5dd1d878e288b7c51c660001b610e4a565b6109f08382815181106109cf57fe5b60200260200101518383815181106109e357fe5b602002602001015161123c565b808060010191505061095f565b505050565b6000610a307fc7c5c862f30a8372e7d72ef878deeea04b28dbfcff3d1bd445a2777b68b06dd160001b610cdd565b610a5c7f69f4a2dd0ee9ce747b657db13801e421c56d62b1d44dfdebd2759d86572fe97b60001b610cdd565b610a887f5010c076065a7b5209d7ab51dd780146c8f848d4a383d1b995e469d8aba8aec460001b610cdd565b600080838152602001908152602001600020600201549050919050565b610ad17fc68744fec39099a7f16683b586cdbffdcf1cf9a2e262bc5aae18c28c30cdf84560001b610cdd565b610afd7f7ea7bb3fef2ac4180862e9d42a0794e2e5e894de12f18e6cf85190543ae3ef3360001b610cdd565b610b297fa046d81cba207ce2ccf3a1669ec97a6760ff665726d2d0246a267eedda571fe960001b610cdd565b610b53610b4b6000808581526020019081526020016000206002015433610d95565b6101a661180d565b610b7f7feb3ea0c03c9dd000cdfd0f0bb327415a780f0a7ed3e544d4ff30b1c2b44c1e1160001b610cdd565b610bab7f16a8e8137d65acd021acda30349a4524fa792f30901986e2656f332a8fa206a360001b610cdd565b610bb58282611820565b5050565b610be57f4fbeba28202798e6a6ea05639d866fd3e581b239c66b3f99dff7f00ec89da78b60001b610cdd565b610c117fd2d7081cfa591661a2a7a1b2bf0985a3cbbcc0a2e10864c0fdcc4d37ef1ccfbc60001b610cdd565b610c3d7f172b413f5f5cfd014b2133f1649c65544a397a42e75ca7744c6995b2bbdcfadd60001b610cdd565b610c773373ffffffffffffffffffffffffffffffffffffffff168273ffffffffffffffffffffffffffffffffffffffff16146101a861180d565b610ca37f279103160aa01f1984332f7f21f3aeb60d089bda02babcdaaaef0f56e0a0dbac60001b610cdd565b610ccf7f76878f77de84d912e8431c66bbbc8516b343920aab5e2f132a070e966b603d9560001b610cdd565b610cd982826119e5565b5050565b50565b6000610d0e7fda375ae45aee73ee0cdc004cf2b875ef8e8cd88c4eb1ab4b84e3bbbf6e75b30760001b610cdd565b610d3a7f7d5eb0a635538d92251b7c340dc15f2a96259549e87b623ccbcef616b86ba7a660001b610cdd565b610d667fa78152354c3e6c24357ec99bb3bb053fc4867eaa54e72d7d1a252fb8fb1f90ec60001b610cdd565b610d8d82600080868152602001908152602001600020600001611baa90919063ffffffff16565b905092915050565b6000610dc37f03e36594dbc24968481dddfdeda0087b379c0d6c41ba967424a671f64377a64360001b610cdd565b610def7f42b51ef9ff396f62df9844a630eca764877f7302ce604fb53774131675f20d2d60001b610cdd565b610e1b7f321f6fc788fec8d9321cbd43009bc26b1cf82efa01037a94f1fc8cf1a0ef144a60001b610cdd565b610e4282600080868152602001908152602001600020600001611cae90919063ffffffff16565b905092915050565b50565b610e797fd074b6d7308c3ef1287a80140494d469b5b35bd02527a9ec8387ff421e71dd4560001b610e4a565b610ea57ff3c20688252a39cfe4a0fc3e1bf5d34de26b1dc35171c97c31c1f11d0af78fc060001b610e4a565b610ed17f06ebc858f8294d46f1db7a0a302701bfb4bac5d55d716f36ea4b17eebcb04b4660001b610e4a565b60005b8251811015610f5f57610f097f7a5aef42937c39109ebf3c392066d9e9b77265fbc73f226fa5b46ce0cd06f9ae60001b610e4a565b610f357f4541a845971cd950822089d3c327e35430b165258a3ba20bc05164197c8a3da760001b610e4a565b610f52838281518110610f4457fe5b60200260200101518361123c565b8080600101915050610ed4565b505050565b6000610f927f9f9d7cbd7564250aae9816f624d21786646aba8ab9db66d92f7913beaca9d81c60001b610e4a565b610fbe7f3854459fc4fc54012e769da32db65bf09c85b34004f7de0e3516fe76b043f8fb60001b610e4a565b610fea7fdd63e1f1c7d1a1adbd40142150390353de8785885b67658a44058cae78d3395e60001b610e4a565b610ff48484610d95565b90509392505050565b6000801b81565b6110307f4255e709383b6504648308d6560ede30cf4b9eeb48b455ed19854b075b534bab60001b610e4a565b61105c7f8cab1b5071882445ca70c7acdaf115eb7c4202169f1313c36c899c050c5ad18160001b610e4a565b6110887f46222a3b3b10132ad2456a55b277fcede9861ca3b2672d5d18451236b5442c1f60001b610e4a565b61109482518251611778565b6110c07f421f0c1e72d49da1e84ffbbc45892d817a2ea95b9a4c412b608cfc44c66ab41460001b610e4a565b6110ec7fe6773619dd3437e0c090219ac926800aa900ad3fca5a6c0d05f5fa350d46807c60001b610e4a565b60005b825181101561118d576111247fb904480f3c46d1fb8d1913ade0112d50c2fbf59dc15f13f56d9e90ffa96c504b60001b610e4a565b6111507fd1a8bcc5efe3dfa73b73c37915b034bd9489e9e56848a23d13712503bf277b4560001b610e4a565b61118083828151811061115f57fe5b602002602001015183838151811061117357fe5b6020026020010151610aa5565b80806001019150506110ef565b505050565b60006111c07fcbf90c788b764201d8a61833a6bb2f0c4c1943d3db2f9c280b034c748d05e18a60001b610cdd565b6111ec7fdab5585f41bbc3a83d3e71d6058ca7d72803d30067560b49581973b9ce74ad3a60001b610cdd565b6112187f70c7a9bdb151c457acde1bae78d489903a96dcefe3f60aaa80725479bae51d1260001b610cdd565b611235600080848152602001908152602001600020600001611d82565b9050919050565b6112687f4e6732ffdd9c3c5c3728a424b165a08a8e14ce029c8ddee7b6951973db908b6060001b610cdd565b6112947fe50a5b4c6d3425e285acb8c4cc13952818c37fb6a86441451b273a53295739a960001b610cdd565b6112c07f4346da409f94fbd076a9ffc36a652bd17b9bfc67c79f2f21b6b851c2fc6dcb4c60001b610cdd565b6112ea6112e26000808581526020019081526020016000206002015433610d95565b6101a761180d565b6113167fe14f1782d0ae8ad8a805479d8bbb34b065b0b13b1dc61df1d4db48f874fc160960001b610cdd565b6113427fa3d369948de478ec60de6b37c401e09688b994214178f9288daefec96abfa93960001b610cdd565b61134c82826119e5565b5050565b61137c7fe78322c7ab8cadeb9ecf09d38f8f898bd41f7f8f88ca2254d094512f55320b4560001b610e4a565b6113a87fa4eb058fbaff1fc4dae352c5fcd10a08915a40df652a4aadd0a396e38da01b8460001b610e4a565b6113d47f03fc156fe2973f434c28eaa14a714f984858fc8ed75f4b3b29dee5023baa51f460001b610e4a565b60005b82518110156114625761140c7f8a672cc4307bdf156357aa2cf2092dafd31625cd9776f12dbb8a107bd98a8a5860001b610e4a565b6114387f786ee907f751d60644e413de265cf93d0243b60b258adb35694b3540820e31b260001b610e4a565b61145583828151811061144757fe5b602002602001015183610aa5565b80806001019150506113d7565b505050565b60006114957fafc28c8ad46b468274539bc8314e2745dc2d3f7038af583f6c25b345252299ff60001b611e17565b6114c17fd65cd8894cd7599d573934ee4e7259bca66b67f4529b86afc85561768ab6331260001b611e17565b6114ed7f73d15665ebf97f2ec239c9de9f2d368145ebf8bfc29584cd00c883286bb0b5b760001b611e17565b6114f78383611cae565b6116e9576115277f611dcc30a45c499ce3ad496c52bc2186f0cbc5070a77971fa17d0e3c8aff993460001b611e17565b6115537fa1ffd1a624ba2fc9ad3784e766979c10b69548953e33fdd8d52fd1ad9249db4260001b611e17565b61157f7f0d3795d19e3ebbfce65a7f6dba4be223b7dfc11d45684a2b8b9639624890e76d60001b611e17565b82600001829080600181540180825580915050600190039060005260206000200160009091909190916101000a81548173ffffffffffffffffffffffffffffffffffffffff021916908373ffffffffffffffffffffffffffffffffffffffff1602179055506116107f7616d7a05facba46804c61ead3a84857b28996bfef33527f000952dbb1f24fe360001b611e17565b61163b7ec337f7341aebee30ff50d6368e9a9860da52fa5226dacb871fc4a28004838860001b611e17565b82600001805490508360010160008473ffffffffffffffffffffffffffffffffffffffff1673ffffffffffffffffffffffffffffffffffffffff168152602001908152602001600020819055506116b47f13ba2f78dd7ecaf55a4cc3f8d3e7f93c5cadbc063ffeefb68c7949802b5d3a6e60001b611e17565b6116e07fc0490b09000a2341c56dc8ebb7359ac889a50a807ad657762b431c42ebed81d860001b611e17565b60019050611772565b6117157f4e16a37a129416984b8f77905fffb3105d2d16c5bffcc10366666605395cd0b160001b611e17565b6117417fef2de3f863211443d90a1d49147a100c20a57273298331ae7e2cd54c79a3875a60001b611e17565b61176d7fc9303cbc2544604f1547dd8d81f7d4d4eb689c320fb75389df721b35f0e1d15d60001b611e17565b600090505b92915050565b6117a47fb3c3ab71be1e60ccf374cd9c337f5c94a091891a248ffd88815355718b38f5cf60001b611e1a565b6117d07f23a34501b370f017ac0b72a81570395801e215d15ea760153f3abbf09eb0167360001b611e1a565b6117fc7ff006c498284d347b1bc1a6a27ae455ca2c77693be39b0bf5701f8175df7eb3a460001b611e1a565b611809818314606761180d565b5050565b8161181c5761181b81611e1d565b5b5050565b61184c7f6407d3d700902783b0790ecd7d71fdf7c6d17edba52cb13148c9e81367f0cdb160001b610cdd565b6118787f991f445417ef670ce1718bf3efa0d897ff34d218374430935c01ebbe5e7911b660001b610cdd565b6118a47f117edf4877bd519647f10f3d83f7b040aaa2b4763029dadefd4d02ee08bbca4f60001b610cdd565b6118cb8160008085815260200190815260200160002060000161146790919063ffffffff16565b156119b4576118fc7ffd44c5a846114fb700dfd54fb7756bb74ae09b46d502310ce7ae7d5d0e56b96260001b610cdd565b6119287fcbe6fb2ac1ff183b90917394e59028226c90b462a54d68fa99119902e9bdd48160001b610cdd565b6119547f03e7c6fa9469425312fde46e7310b2d5c9a715be7fb4dece2dee6e7a37beb80160001b610cdd565b3373ffffffffffffffffffffffffffffffffffffffff168173ffffffffffffffffffffffffffffffffffffffff16837f2f8788117e7eff1d82e926ec794901d17c78024a50270940304540a733656f0d60405160405180910390a46119e1565b6119e07f639f4fd4e5b6e771451b1c96d41fe078a472e3ce4e39de30b72676385dafe22360001b610cdd565b5b5050565b611a117facdd613223eebcebb209b0efe170b7661d8341ec28e7648e56b2b1c25962fd0260001b610cdd565b611a3d7f75ef4df2b91a373925586d98ccebd7821811895e01bede25a577519ddd3731f360001b610cdd565b611a697f092ec04dbf6ad28b139f6cacd78a7c56347770e965e23d22fbcb950e6777cf9060001b610cdd565b611a9081600080858152602001908152602001600020600001611e8d90919063ffffffff16565b15611b7957611ac17f11bb84b6fedd64e6af9bf598028328c7141dc0803011e08ac733829b036470e560001b610cdd565b611aed7f5a9063638be5e919ff01f51d8f05a2c6a8ed7873b88602a1ac2d6959f0a038f560001b610cdd565b611b197f3e51f2124a8caca2e2d1e5b4061524f59bbe54c72c18431578bb647afd87a11160001b610cdd565b3373ffffffffffffffffffffffffffffffffffffffff168173ffffffffffffffffffffffffffffffffffffffff16837ff6391f5c32d9c69d2a47ea670b442974b53935d1edc7fd64eb21e047a839171b60405160405180910390a4611ba6565b611ba57f3d80a8b61cbc17b2e688c2e099e0050ed12e2cc728fe3c1ec134f43bea55509d60001b610cdd565b5b5050565b6000611bd87f7dea1c1d253cf48e7d588d6480a543ce38b46d776192e327fa8cd0c9c1990ff760001b611e17565b611c047f58bb2acc91dcb4df2e3f2e89968f750a4165bf4398540b17fb41938d548c2e2060001b611e17565b611c307f2b7941c0d663b1c0f556cc6d07434c953bbffce3e72a4a2897b04de03086b19060001b611e17565b611c4482846000018054905011606461180d565b611c707f212e61f1d461bf7d5ebc94ff1a36fb0711497c0dcb5773ebe27197b66e89ddba60001b611e17565b611c9c7f695081265bdfed30ae8c4949b1e4f2422357dcea410b3f5a7fa727bbccaff4ef60001b611e17565b611ca68383612493565b905092915050565b6000611cdc7f26c9003ff5622b36c455b3a2c7e8ee8219dd1ee06aee5bb7688394f0bf73678160001b611e17565b611d087f6f417677c8a9f3d1599c594602edcb366521c6a206303cbfe730cb780577f19e60001b611e17565b611d347f43227e98846ec640660e022ffd05a933731005a59b7cafa20d1e956c3e0c379f60001b611e17565b60008360010160008473ffffffffffffffffffffffffffffffffffffffff1673ffffffffffffffffffffffffffffffffffffffff168152602001908152602001600020541415905092915050565b6000611db07fc939cb4a358f7de10fbd202b3434882ab905a97465c61be890dcf2b81f594b1a60001b611e17565b611ddc7f3bd586b7682f7d29a4f151a6acf63b75bdca300a4228f5bfd10203a61161b74960001b611e17565b611e087f7a0ac2bc9371301d946971e3f98e8667807fea30f54e31d677bb8899e1a8fe0960001b611e17565b81600001805490509050919050565b50565b50565b6030600a820601600a820491506030600a830601600a830492506030600a8406018060101b8260081b8401016642414c230000000160c81b7f08c379a000000000000000000000000000000000000000000000000000000000600052602060045260076024528060445260646000fd5b6000611ebb7f66d05ac829d8d82489bca9be5c8dffaab118b1b3817054cd67e797d6eecfe77b60001b611e17565b611ee77f739902fbb7e6dfeb449a9a157fbdee05baceb408e62aac8a52b19e4557901eb760001b611e17565b611f137fbc66fce38e599c85c8690149c113a0a85e419544d0d4d350ab0a5c0cca41c32d60001b611e17565b60008360010160008473ffffffffffffffffffffffffffffffffffffffff1673ffffffffffffffffffffffffffffffffffffffff168152602001908152602001600020549050611f857fb32312f175199b3c17a909babb6b427dc6608e55e42952b11ac89e0db9834ee760001b611e17565b611fb17f0f5f623e66565b11f2f820636c62421056a7033a744128acf7ff6699e7e330a660001b611e17565b6000811461240357611fe57f339734d297aecc617b66a9aabe0002b4645fadef1bee1ddc24ad8374cdd729ef60001b611e17565b6120117fe8a3a42934f6215dad01ab9b7902796e328cc46bf063824c2151cc72c75386e460001b611e17565b61203d7f849eb84153c9d02044e040adf421f5076a5fd6fdb1782d804a39d126b9f4eff960001b611e17565b60006001820390506120717f7b28a651835b16a5f1f0d88c1e0dd5abf63b067f92fba594d2d0671496697f4b60001b611e17565b61209d7f817db536f5275e37cb3d54fb4f1bc2525cee09fd5474de2e122a857938b2907960001b611e17565b6000600186600001805490500390506120d87f3ea13b837978f44d2abc061806ebeab277c0fda6d812b793eb7eaca9746c809860001b611e17565b6121047ffc196938f12f75e66e130774b8e4c318f6992bbb37cfc4d4904d72c40dd50ded60001b611e17565b600086600001828154811061211557fe5b9060005260206000200160009054906101000a900473ffffffffffffffffffffffffffffffffffffffff16905061216e7f0530faaf4103ea59524877f4000934fc3edba5d1fb1ed33182c3f830bca1fd0b60001b611e17565b61219a7f65f6f644dd718881ff1983ba81ce8ba6ec0c19a08dcb917fe016c016ad20bbbf60001b611e17565b808760000184815481106121aa57fe5b9060005260206000200160006101000a81548173ffffffffffffffffffffffffffffffffffffffff021916908373ffffffffffffffffffffffffffffffffffffffff16021790555061221e7f1c4ebdcc92bf12fbd97e204109b2d60cc1185dc2ec6287f4663f19730456e61b60001b611e17565b61224a7fb252cee5062d9c45806a7247b525e28b1c1d5324d388580a83b6340b7624649160001b611e17565b600183018760010160008373ffffffffffffffffffffffffffffffffffffffff1673ffffffffffffffffffffffffffffffffffffffff168152602001908152602001600020819055506122bf7f1d89bb788a822c744a46868c7350a8c5983de5bcf57624be6145c36adbaf1cb060001b611e17565b6122eb7ff253365014f124c3f23d0c72199d8e4e02830052c44e152a6f669af0fd580ee060001b611e17565b866000018054806122f857fe5b6001900381819060005260206000200160006101000a81549073ffffffffffffffffffffffffffffffffffffffff021916905590556123597fc3887abad9c4edf15cd0be96f9b8ed240f4ebf8d3dfa38c4b4823c00e3c1841b60001b611e17565b8660010160008773ffffffffffffffffffffffffffffffffffffffff1673ffffffffffffffffffffffffffffffffffffffff168152602001908152602001600020600090556123ca7f95e26176a807897c84fb6966057105c6e84c290ec03bff22b6e227c2490c74a660001b611e17565b6123f67facfc09e59bbee30b764ec8dc9a17f36cafbe83b3c992d071441c71df2354a4d060001b611e17565b600194505050505061248d565b61242f7fa1666708a09537e40d287126a8724a4d9fb911a16f7bb6d27a1ca79311944b6460001b611e17565b61245b7feb38dd99a76e81b302777bd4011f76afbf91737e55de4815e110dcfbf72bf70260001b611e17565b6124877fe47feece8a79cb43a5f927f215f33d63e4917e98101cbbb3258cf5dc17ef1d9760001b611e17565b60009150505b92915050565b60006124c17f6ca8b2757ef52d892eb581014eba9645b8866516e51aa7f124ea7d98d9b2b43760001b611e17565b6124ed7f8863d66d3a44ebb6cf0c7daf6176968329c4ced50f1bf66ab11da0b0dcd631a460001b611e17565b6125197f26dc9deb5f2e107da3801848bd726309dd8639c3ba47b6fdd4f8c047e8ad920660001b611e17565b82600001828154811061252857fe5b9060005260206000200160009054906101000a900473ffffffffffffffffffffffffffffffffffffffff1690509291505056fea2646970667358221220b1e5c1afbe0356092a2759700b64fc48e3e3ac0d344e0bdce6daf9081bdff8a664736f6c63430007010033",
  "linkReferences": {},
  "deployedLinkReferences": {}
}