{
  "_format": "hh-sol-artifact-1",
  "contractName": "Authorizer",
  "sourceName": "contracts/balancer-core-v2/vault/Authorizer.sol",
  "abi": [
    {
      "inputs": [
        {
          "internalType": "address",
          "name": "admin",
          "type": "address"
        }
      ],
      "stateMutability": "nonpayable",
      "type": "constructor"
    },
    {
      "anonymous": false,
      "inputs": [
        {
          "indexed": true,
          "internalType": "bytes32",
          "name": "role",
          "type": "bytes32"
        },
        {
          "indexed": true,
          "internalType": "bytes32",
          "name": "previousAdminRole",
          "type": "bytes32"
        },
        {
          "indexed": true,
          "internalType": "bytes32",
          "name": "newAdminRole",
          "type": "bytes32"
        }
      ],
      "name": "RoleAdminChanged",
      "type": "event"
    },
    {
      "anonymous": false,
      "inputs": [
        {
          "indexed": true,
          "internalType": "bytes32",
          "name": "role",
          "type": "bytes32"
        },
        {
          "indexed": true,
          "internalType": "address",
          "name": "account",
          "type": "address"
        },
        {
          "indexed": true,
          "internalType": "address",
          "name": "sender",
          "type": "address"
        }
      ],
      "name": "RoleGranted",
      "type": "event"
    },
    {
      "anonymous": false,
      "inputs": [
        {
          "indexed": true,
          "internalType": "bytes32",
          "name": "role",
          "type": "bytes32"
        },
        {
          "indexed": true,
          "internalType": "address",
          "name": "account",
          "type": "address"
        },
        {
          "indexed": true,
          "internalType": "address",
          "name": "sender",
          "type": "address"
        }
      ],
      "name": "RoleRevoked",
      "type": "event"
    },
    {
      "inputs": [],
      "name": "DEFAULT_ADMIN_ROLE",
      "outputs": [
        {
          "internalType": "bytes32",
          "name": "",
          "type": "bytes32"
        }
      ],
      "stateMutability": "view",
      "type": "function"
    },
    {
      "inputs": [
        {
          "internalType": "bytes32",
          "name": "c__0x32655a30",
          "type": "bytes32"
        }
      ],
      "name": "c_0x32655a30",
      "outputs": [],
      "stateMutability": "pure",
      "type": "function"
    },
    {
      "inputs": [
        {
          "internalType": "bytes32",
          "name": "c__0x6c498c9a",
          "type": "bytes32"
        }
      ],
      "name": "c_0x6c498c9a",
      "outputs": [],
      "stateMutability": "pure",
      "type": "function"
    },
    {
      "inputs": [
        {
          "internalType": "bytes32",
          "name": "actionId",
          "type": "bytes32"
        },
        {
          "internalType": "address",
          "name": "account",
          "type": "address"
        },
        {
          "internalType": "address",
          "name": "",
          "type": "address"
        }
      ],
      "name": "canPerform",
      "outputs": [
        {
          "internalType": "bool",
          "name": "",
          "type": "bool"
        }
      ],
      "stateMutability": "view",
      "type": "function"
    },
    {
      "inputs": [
        {
          "internalType": "bytes32",
          "name": "role",
          "type": "bytes32"
        }
      ],
      "name": "getRoleAdmin",
      "outputs": [
        {
          "internalType": "bytes32",
          "name": "",
          "type": "bytes32"
        }
      ],
      "stateMutability": "view",
      "type": "function"
    },
    {
      "inputs": [
        {
          "internalType": "bytes32",
          "name": "role",
          "type": "bytes32"
        },
        {
          "internalType": "uint256",
          "name": "index",
          "type": "uint256"
        }
      ],
      "name": "getRoleMember",
      "outputs": [
        {
          "internalType": "address",
          "name": "",
          "type": "address"
        }
      ],
      "stateMutability": "view",
      "type": "function"
    },
    {
      "inputs": [
        {
          "internalType": "bytes32",
          "name": "role",
          "type": "bytes32"
        }
      ],
      "name": "getRoleMemberCount",
      "outputs": [
        {
          "internalType": "uint256",
          "name": "",
          "type": "uint256"
        }
      ],
      "stateMutability": "view",
      "type": "function"
    },
    {
      "inputs": [
        {
          "internalType": "bytes32",
          "name": "role",
          "type": "bytes32"
        },
        {
          "internalType": "address",
          "name": "account",
          "type": "address"
        }
      ],
      "name": "grantRole",
      "outputs": [],
      "stateMutability": "nonpayable",
      "type": "function"
    },
    {
      "inputs": [
        {
          "internalType": "bytes32[]",
          "name": "roles",
          "type": "bytes32[]"
        },
        {
          "internalType": "address",
          "name": "account",
          "type": "address"
        }
      ],
      "name": "grantRoles",
      "outputs": [],
      "stateMutability": "nonpayable",
      "type": "function"
    },
    {
      "inputs": [
        {
          "internalType": "bytes32[]",
          "name": "roles",
          "type": "bytes32[]"
        },
        {
          "internalType": "address[]",
          "name": "accounts",
          "type": "address[]"
        }
      ],
      "name": "grantRolesToMany",
      "outputs": [],
      "stateMutability": "nonpayable",
      "type": "function"
    },
    {
      "inputs": [
        {
          "internalType": "bytes32",
          "name": "role",
          "type": "bytes32"
        },
        {
          "internalType": "address",
          "name": "account",
          "type": "address"
        }
      ],
      "name": "hasRole",
      "outputs": [
        {
          "internalType": "bool",
          "name": "",
          "type": "bool"
        }
      ],
      "stateMutability": "view",
      "type": "function"
    },
    {
      "inputs": [
        {
          "internalType": "bytes32",
          "name": "role",
          "type": "bytes32"
        },
        {
          "internalType": "address",
          "name": "account",
          "type": "address"
        }
      ],
      "name": "renounceRole",
      "outputs": [],
      "stateMutability": "nonpayable",
      "type": "function"
    },
    {
      "inputs": [
        {
          "internalType": "bytes32",
          "name": "role",
          "type": "bytes32"
        },
        {
          "internalType": "address",
          "name": "account",
          "type": "address"
        }
      ],
      "name": "revokeRole",
      "outputs": [],
      "stateMutability": "nonpayable",
      "type": "function"
    },
    {
      "inputs": [
        {
          "internalType": "bytes32[]",
          "name": "roles",
          "type": "bytes32[]"
        },
        {
          "internalType": "address",
          "name": "account",
          "type": "address"
        }
      ],
      "name": "revokeRoles",
      "outputs": [],
      "stateMutability": "nonpayable",
      "type": "function"
    },
    {
      "inputs": [
        {
          "internalType": "bytes32[]",
          "name": "roles",
          "type": "bytes32[]"
        },
        {
          "internalType": "address[]",
          "name": "accounts",
          "type": "address[]"
        }
      ],
      "name": "revokeRolesFromMany",
      "outputs": [],
      "stateMutability": "nonpayable",
      "type": "function"
    }
  ],
  "bytecode": "0x60806040523480156200001157600080fd5b5060405162002dd138038062002dd1833981810160405260208110156200003757600080fd5b81019080805190602001909291905050506200007c7f7b254d81eff16e7d567da36c3f16edc8947539f163e7a0633590a0726481baf660001b6200010060201b60201c565b620000b07f735189126ccd9c18817101cde3e50f9b6a0c0cab330b226f750f3831153e719860001b6200010060201b60201c565b620000e47f10335957dc9d60fe15af16b55760573270c6627456d9ee4da3f069db02d2895c60001b6200010060201b60201c565b620000f96000801b826200010360201b60201c565b5062000830565b50565b620001377f4265c9f3a473330399bff46d039aad7bd9316164432877ddceb54a6e5adf1fde60001b620001b560201b60201c565b6200016b7f6a58972ebe14dd8e972a037aaf05f9d7716e80c446e511a0318d10e6ffad80c060001b620001b560201b60201c565b6200019f7fc1878e589e7cbe000ac59256d4e45eabba5f39195dbee899f4d745b91adc8fa360001b620001b560201b60201c565b620001b18282620001b860201b60201c565b5050565b50565b620001ec7fa51bf1f60f57d67315e8884ee58ac1ea4a304657da288266decfa22e74c3937560001b620001b560201b60201c565b6200021f7e7c1a64dd7716987aa76054a1f7dd56fa1c2b36f6c45fa7943a13e90f37825e60001b620001b560201b60201c565b620002537f41ea7c6e64095ee090947f606bea526c0cce3a45dd42ddbe13950f7d1fe2c8d860001b620001b560201b60201c565b6200028181600080858152602001908152602001600020600001620003bd60201b620014671790919060201c565b156200038457620002bb7f4999465fe92e467acd8859d26ce1033e7439225e7e5cf63a3d6c764bd373691d60001b620001b560201b60201c565b620002ef7f2d494cddfc92440255f338981f92e2b818d331c209eb380840bfd2a99625d33560001b620001b560201b60201c565b620003237f065c6071bb14d3623c8cfba8dcf3686b45cc19a1e2925804ab4cd79f9745f0c360001b620001b560201b60201c565b3373ffffffffffffffffffffffffffffffffffffffff168173ffffffffffffffffffffffffffffffffffffffff16837f2f8788117e7eff1d82e926ec794901d17c78024a50270940304540a733656f0d60405160405180910390a4620003b9565b620003b87fa294dbc9ecdd4d04f237949c2ce87f3fb306d5206d8129f0cd0ed303c7231fe960001b620001b560201b60201c565b5b5050565b6000620003f37fa61e67e0cc7cbf6dca1bad9e89d180e8919dcf916304a64f2ec6ececcc9d912c60001b6200074160201b60201c565b620004277ff89557b3cf564068446efd7c55bd51b9e70fd436a35c6473f15adcd344506c6360001b6200074160201b60201c565b6200045b7f26e85b743bb6b8312020797ab3e5ba6fc2d859a42fcf75a48659099e1275492260001b6200074160201b60201c565b6200046d83836200074460201b60201c565b6200069a57620004a67f7ef22654169904189010f597963bd507ba7347b8740691b4476cd67f49124e0e60001b6200074160201b60201c565b620004da7f882135caf4af84c0e1bca9f79eea9de8f5065751adebffaa162d1be7bcd8971360001b6200074160201b60201c565b6200050e7fd4763463e71726a43c654b8dbf128677d7b43a0ca60ea4949f53372a7348c9d560001b6200074160201b60201c565b82600001829080600181540180825580915050600190039060005260206000200160009091909190916101000a81548173ffffffffffffffffffffffffffffffffffffffff021916908373ffffffffffffffffffffffffffffffffffffffff160217905550620005a77fa3e2b33e886959093c6a0b3f0486c0415a5942638d5f7962dcbafebe762b71fc60001b6200074160201b60201c565b620005db7fe7ef27addeab499367a977ce9fbac58dab6cba8562530386e737575a2e06c7e860001b6200074160201b60201c565b82600001805490508360010160008473ffffffffffffffffffffffffffffffffffffffff1673ffffffffffffffffffffffffffffffffffffffff168152602001908152602001600020819055506200065c7faae9952f0993be4f6477e9e870423701d8eedd54d02232ff8d5bf0ccd05d7c5c60001b6200074160201b60201c565b620006907f6698fc4e1ad3506204b6591cbea4a9516be140780c6e774821ba525a78253a7660001b6200074160201b60201c565b600190506200073b565b620006ce7fcfe8799fec11d89ab8dc9f688739444327c48b7f0801c28255d98ea5e02ef43c60001b6200074160201b60201c565b620007027fba7632cc0dabc22b2074585c4ae9fab51e277fd8f67164d832f32dc57620662c60001b6200074160201b60201c565b620007367f86d37e5e32f04f1f5e60b0076fa21ce47f5fe546d5c5f7bacc1ccde7ded1557160001b6200074160201b60201c565b600090505b92915050565b50565b60006200077a7f2a5d65fff1f3b500c215582deba6caa0a91f9fecacf06c3d1ecbe4a353637b7f60001b6200074160201b60201c565b620007ae7f071b014040d1e21aadcee71b3fa973b0b60209eed08df4506d97e4c5e7caad9660001b6200074160201b60201c565b620007e27fd1bb3b7f1b236199263b084954b3e62036402ccb0ddcaf72318b313ffef4b57660001b6200074160201b60201c565b60008360010160008473ffffffffffffffffffffffffffffffffffffffff1673ffffffffffffffffffffffffffffffffffffffff168152602001908152602001600020541415905092915050565b61259180620008406000396000f3fe608060405234801561001057600080fd5b50600436106100f55760003560e01c80639be2a88411610097578063ca15c87311610066578063ca15c873146106de578063d547741f14610720578063dbaca60c1461076e578063fcd7627e1461079c576100f5565b80639be2a884146104c2578063a217fddf14610546578063a73cb2ab14610564578063a8216d4d146106b0576100f5565b806336568abe116100d357806336568abe146102d65780639010d07c1461032457806391d1485414610386578063988360a3146103ea576100f5565b806318b2cde9146100fa578063248a9ca3146102465780632f2ff15d14610288575b600080fd5b6102446004803603604081101561011057600080fd5b810190808035906020019064010000000081111561012d57600080fd5b82018360208201111561013f57600080fd5b8035906020019184602083028401116401000000008311171561016157600080fd5b919080806020026020016040519081016040528093929190818152602001838360200280828437600081840152601f19601f820116905080830192505050505050509192919290803590602001906401000000008111156101c157600080fd5b8201836020820111156101d357600080fd5b803590602001918460208302840111640100000000831117156101f557600080fd5b919080806020026020016040519081016040528093929190818152602001838360200280828437600081840152601f19601f820116905080830192505050505050509192919290505050610874565b005b6102726004803603602081101561025c57600080fd5b8101908080359060200190929190505050610a02565b6040518082815260200191505060405180910390f35b6102d46004803603604081101561029e57600080fd5b8101908080359060200190929190803573ffffffffffffffffffffffffffffffffffffffff169060200190929190505050610aa5565b005b610322600480360360408110156102ec57600080fd5b8101908080359060200190929190803573ffffffffffffffffffffffffffffffffffffffff169060200190929190505050610bb9565b005b61035a6004803603604081101561033a57600080fd5b810190808035906020019092919080359060200190929190505050610cdd565b604051808273ffffffffffffffffffffffffffffffffffffffff16815260200191505060405180910390f35b6103d26004803603604081101561039c57600080fd5b8101908080359060200190929190803573ffffffffffffffffffffffffffffffffffffffff169060200190929190505050610d92565b60405180821515815260200191505060405180910390f35b6104c06004803603604081101561040057600080fd5b810190808035906020019064010000000081111561041d57600080fd5b82018360208201111561042f57600080fd5b8035906020019184602083028401116401000000008311171561045157600080fd5b919080806020026020016040519081016040528093929190818152602001838360200280828437600081840152601f19601f820116905080830192505050505050509192919290803573ffffffffffffffffffffffffffffffffffffffff169060200190929190505050610e47565b005b61052e600480360360608110156104d857600080fd5b8101908080359060200190929190803573ffffffffffffffffffffffffffffffffffffffff169060200190929190803573ffffffffffffffffffffffffffffffffffffffff169060200190929190505050610f5e565b60405180821515815260200191505060405180910390f35b61054e610ff7565b6040518082815260200191505060405180910390f35b6106ae6004803603604081101561057a57600080fd5b810190808035906020019064010000000081111561059757600080fd5b8201836020820111156105a957600080fd5b803590602001918460208302840111640100000000831117156105cb57600080fd5b919080806020026020016040519081016040528093929190818152602001838360200280828437600081840152601f19601f8201169050808301925050505050505091929192908035906020019064010000000081111561062b57600080fd5b82018360208201111561063d57600080fd5b8035906020019184602083028401116401000000008311171561065f57600080fd5b919080806020026020016040519081016040528093929190818152602001838360200280828437600081840152601f19601f820116905080830192505050505050509192919290505050610ffe565b005b6106dc600480360360208110156106c657600080fd5b810190808035906020019092919050505061118c565b005b61070a600480360360208110156106f457600080fd5b810190808035906020019092919050505061118f565b6040518082815260200191505060405180910390f35b61076c6004803603604081101561073657600080fd5b8101908080359060200190929190803573ffffffffffffffffffffffffffffffffffffffff169060200190929190505050611239565b005b61079a6004803603602081101561078457600080fd5b810190808035906020019092919050505061134d565b005b610872600480360360408110156107b257600080fd5b81019080803590602001906401000000008111156107cf57600080fd5b8201836020820111156107e157600080fd5b8035906020019184602083028401116401000000008311171561080357600080fd5b919080806020026020016040519081016040528093929190818152602001838360200280828437600081840152601f19601f820116905080830192505050505050509192919290803573ffffffffffffffffffffffffffffffffffffffff169060200190929190505050611350565b005b6108a07f252ae4ea8d1b1c7952f24c429e2437941d8bd6d502629eb76bf5df421cfcaab560001b61118c565b6108cc7fb3cf4b3b9efe9876b43fec4c6aa78ec6d5271903a866055dcb88d822237cf57960001b61118c565b6108f87f0a6bbcde2e6d4680082a4ef8f6cd115345f9ee8987b112c2dd2b05a86ffeeac060001b61118c565b61090482518251611779565b6109307f6e03dec685e34bff701bdbfe6b03838384f1eb6f4fc4938d3c804ddf7399acbe60001b61118c565b61095c7f9e942dedd21c4695075da6f063124ae871fc1c61186eebf9196dff3658affa3260001b61118c565b60005b82518110156109fd576109947f327d310d9f3324265e3b5f698fe2c06ed89a44bdc51316460e4c6aef9839d1eb60001b61118c565b6109c07f2146b9f9d607e97ce3663fbab7e9459db893759fc7ed7a06297000d1d634f48560001b61118c565b6109f08382815181106109cf57fe5b60200260200101518383815181106109e357fe5b6020026020010151611239565b808060010191505061095f565b505050565b6000610a307f51aa7edb5505deeea0cb5fb3a6010bc3b35cd1071cfd4fb486c4629f5bba3de960001b61134d565b610a5c7fdc383928dbbcf63370878d0d10a3f1650cb50798e1741546328a670df7237d3860001b61134d565b610a887f67c49991d15124063ffaa4cf801b1438fb94a13ed2cf3dbe473ab1f81d842c9660001b61134d565b600080838152602001908152602001600020600201549050919050565b610ad17fc78b162ea786e2338aa4e5dbc19638e48121407781d6e9247245ad7f5747023560001b61134d565b610afd7f78a19f66178108ee70c961f2274f93b5e6bfcc6691e6c5788e62391cc0433c5d60001b61134d565b610b297fbbd96f53722a539cbf5e4671cecf2ba967410cadfae5ba4971fd8ece680c805b60001b61134d565b610b53610b4b6000808581526020019081526020016000206002015433610d92565b6101a661180e565b610b7f7f2bac020fca4188ce2d008ae3c16d156985827422032fe786b3adeae69bf4916960001b61134d565b610bab7f0ee819179cd842c06996000022c5e06c827d7163a5e67fd6f38ac0a1acb4e4d760001b61134d565b610bb58282611821565b5050565b610be57f2e86aa2b15ca35c6a7c0edcdbe55a054ac522079a8ecb0179ee828c9d27bfeb160001b61134d565b610c117f16792dff6bb231a4776dedd9fac1862c3c19a99260d8b22cbdb5c7f5fc6fc0a260001b61134d565b610c3d7ffd262aee4455b2bcc6a0731f302bc8c2653330a035f7845aaa685f7483e0d32960001b61134d565b610c773373ffffffffffffffffffffffffffffffffffffffff168273ffffffffffffffffffffffffffffffffffffffff16146101a861180e565b610ca37fb34caa5499d9ace6d10394a77c9fee7b4a408b7187941c8b978c751316a9b9ed60001b61134d565b610ccf7f30343b4f84d87e793dab264399f7e2e5cb1a3e5dc0536bf5374c9676e12bb48360001b61134d565b610cd982826119e5565b5050565b6000610d0b7f57d7b366536f79a279a68d74e7de8fd6d51fc6594af14cd933d649578893023260001b61134d565b610d377f7322be3cf7015ce0a554e84c5b2c435f64c0d49b149da4cf8780f351d2fd90fe60001b61134d565b610d637f10e5ad76a373f35b6dfdb58daf899e014bbd56c5bf88bb3834eed6afc3d63c7b60001b61134d565b610d8a82600080868152602001908152602001600020600001611baa90919063ffffffff16565b905092915050565b6000610dc07fa69d7b3ebeec899df5208e49cd31d555848a2b4a20f2483427d71719fe7a699760001b61134d565b610dec7ff1131ab69edfbcf13fc275f987fa1069aa79a9070b93cdf308400945b1dbefb960001b61134d565b610e187f2a84aa1f37b1e37f9fcafdc9e74b0df2b3f43665873922a91092570cd456cc8260001b61134d565b610e3f82600080868152602001908152602001600020600001611cae90919063ffffffff16565b905092915050565b610e737f29832581ed664be9bd254de3edaffd4b631c4970103e636e5e1acfa4d9dcc92760001b61118c565b610e9f7f64502069f48fce4c4b8c5e82be1d8a7dd28f0c4fb202bfb872d55872cd7fd4b260001b61118c565b610ecb7f482b48b1ec8e6acdace22ec29c16658e2a0da0742f8d2dfbb1fd306d71d9410960001b61118c565b60005b8251811015610f5957610f037f447f28ffd3cadbd74c850523b9e68e9a95772580e3f355a81476e4b216be3e8460001b61118c565b610f2f7fe0a283368fbcf790aa8b1e12f886337e2c804cb84865c4061ee5d55be80767b760001b61118c565b610f4c838281518110610f3e57fe5b602002602001015183611239565b8080600101915050610ece565b505050565b6000610f8c7f8ba2bb4d094c716a5eeddfb832f88a133f76a415f3f878c49b059340d38981fe60001b61118c565b610fb87f80589ff15b0319f38be148b360119588ef4584425d8841d19f183abe764b841060001b61118c565b610fe47fb50eaee0a73f41110b94f03445772fc4bd3a0452981275f0320fcce71da7d03c60001b61118c565b610fee8484610d92565b90509392505050565b6000801b81565b61102a7f61fb70c59fa11d1e1f4cfc75366bc3c523d6e5506529a93a5ca7332c9795f6e860001b61118c565b6110567fd8b91438f6c69d2c931e370a45e20b243d288773751b32cdbb3bac36e1d7fae860001b61118c565b6110827f7dc7e0aebe71f5726be107589c9cb8e503cc4ebdc5343de854e71511153fddfc60001b61118c565b61108e82518251611779565b6110ba7f91e32d4a3827e5af360b2f6d85f603fc5d0f0784d0481c183ee959d9d0f22d1660001b61118c565b6110e67ff2b60a7954ca62c0f5f63fe04eb57a13a020060166fdb65900da52059da0ca6760001b61118c565b60005b82518110156111875761111e7f703e5cb947ad25ad021c38f6f4e1f03bc833e502a5a7196900d185006f60a01d60001b61118c565b61114a7f08f026182e7a18b459782ec98ac093c9b1ba77f24ff5fd04928c96859876942f60001b61118c565b61117a83828151811061115957fe5b602002602001015183838151811061116d57fe5b6020026020010151610aa5565b80806001019150506110e9565b505050565b50565b60006111bd7f17953f3748fa535a44e6e064a67fad2fb4dc03da6bff3d8327a0482fd48aecc160001b61134d565b6111e97f4934f359a05bd7d010a85abca4a7415717ba35866016438812d1f5bf4ef278b760001b61134d565b6112157fb4864c4a61c86b1d5a03e217701e5dbac3f33179232781c804dbfe48528f8d0060001b61134d565b611232600080848152602001908152602001600020600001611d82565b9050919050565b6112657f90c709b4c4a82f05db6c21be3ea3965906541d03e5a2fdb60acec08f5a04876660001b61134d565b6112917fd39abfed775dbd576722a87b138fe9c47938064e7e3b1200dfede6814438a1be60001b61134d565b6112bd7f45f596140dca99a6b0135da14dadfa80351b24c84de75f1515ec2c8f04bc42ff60001b61134d565b6112e76112df6000808581526020019081526020016000206002015433610d92565b6101a761180e565b6113137fc84e89cb6c299b98faa20ccdcb3bb0174d499cbac21ae2eaa6d021b519bb766760001b61134d565b61133f7f646926471e52efc7de9aaf737f44b91c67de043be1d2f5419e468fa189d268f560001b61134d565b61134982826119e5565b5050565b50565b61137c7f3dd1222d114297541081055b36f1d22da58103dd57e2054bb0d7908ba92cac3660001b61118c565b6113a87fdd2aeecc12048ed342344581cd9fd9482da7a9b43af8f5a789defb034750897760001b61118c565b6113d47ff9677316aa22f8ec95a3d8fa81717f43ba0b42c94f56f5eb4b5ea2ed5b66a1a260001b61118c565b60005b82518110156114625761140c7f9597e24f8f8bb5bd94c10525ba6a3dbebd33b5e81aab6b55b0867c58af267c7b60001b61118c565b6114387fe0ebf955925860264eb977199ad9ace20c36681a577c78bfc5d7cc9062232fb760001b61118c565b61145583828151811061144757fe5b602002602001015183610aa5565b80806001019150506113d7565b505050565b60006114957fa61e67e0cc7cbf6dca1bad9e89d180e8919dcf916304a64f2ec6ececcc9d912c60001b611e17565b6114c17ff89557b3cf564068446efd7c55bd51b9e70fd436a35c6473f15adcd344506c6360001b611e17565b6114ed7f26e85b743bb6b8312020797ab3e5ba6fc2d859a42fcf75a48659099e1275492260001b611e17565b6114f78383611cae565b6116ea576115277f7ef22654169904189010f597963bd507ba7347b8740691b4476cd67f49124e0e60001b611e17565b6115537f882135caf4af84c0e1bca9f79eea9de8f5065751adebffaa162d1be7bcd8971360001b611e17565b61157f7fd4763463e71726a43c654b8dbf128677d7b43a0ca60ea4949f53372a7348c9d560001b611e17565b82600001829080600181540180825580915050600190039060005260206000200160009091909190916101000a81548173ffffffffffffffffffffffffffffffffffffffff021916908373ffffffffffffffffffffffffffffffffffffffff1602179055506116107fa3e2b33e886959093c6a0b3f0486c0415a5942638d5f7962dcbafebe762b71fc60001b611e17565b61163c7fe7ef27addeab499367a977ce9fbac58dab6cba8562530386e737575a2e06c7e860001b611e17565b82600001805490508360010160008473ffffffffffffffffffffffffffffffffffffffff1673ffffffffffffffffffffffffffffffffffffffff168152602001908152602001600020819055506116b57faae9952f0993be4f6477e9e870423701d8eedd54d02232ff8d5bf0ccd05d7c5c60001b611e17565b6116e17f6698fc4e1ad3506204b6591cbea4a9516be140780c6e774821ba525a78253a7660001b611e17565b60019050611773565b6117167fcfe8799fec11d89ab8dc9f688739444327c48b7f0801c28255d98ea5e02ef43c60001b611e17565b6117427fba7632cc0dabc22b2074585c4ae9fab51e277fd8f67164d832f32dc57620662c60001b611e17565b61176e7f86d37e5e32f04f1f5e60b0076fa21ce47f5fe546d5c5f7bacc1ccde7ded1557160001b611e17565b600090505b92915050565b6117a57f6f02687e057522eb19b597e3b091ff65201fe492dbd6f67980e016d6aa08d53260001b611e1a565b6117d17fe51ab352fa79dd949e57050cd47d3f0410afdfe7c28a6ef735cccfeeb18f582360001b611e1a565b6117fd7ffce750c89171756118e85bed28eb1432c569ae13e7db5e43107d00a4ed5889a360001b611e1a565b61180a818314606761180e565b5050565b8161181d5761181c81611e1d565b5b5050565b61184d7fa51bf1f60f57d67315e8884ee58ac1ea4a304657da288266decfa22e74c3937560001b61134d565b6118787e7c1a64dd7716987aa76054a1f7dd56fa1c2b36f6c45fa7943a13e90f37825e60001b61134d565b6118a47f41ea7c6e64095ee090947f606bea526c0cce3a45dd42ddbe13950f7d1fe2c8d860001b61134d565b6118cb8160008085815260200190815260200160002060000161146790919063ffffffff16565b156119b4576118fc7f4999465fe92e467acd8859d26ce1033e7439225e7e5cf63a3d6c764bd373691d60001b61134d565b6119287f2d494cddfc92440255f338981f92e2b818d331c209eb380840bfd2a99625d33560001b61134d565b6119547f065c6071bb14d3623c8cfba8dcf3686b45cc19a1e2925804ab4cd79f9745f0c360001b61134d565b3373ffffffffffffffffffffffffffffffffffffffff168173ffffffffffffffffffffffffffffffffffffffff16837f2f8788117e7eff1d82e926ec794901d17c78024a50270940304540a733656f0d60405160405180910390a46119e1565b6119e07fa294dbc9ecdd4d04f237949c2ce87f3fb306d5206d8129f0cd0ed303c7231fe960001b61134d565b5b5050565b611a117ff08b422c4fa3cd2d05d0f79bba2040f7677effd1f0bfb828d42cbbe0bd3cca2960001b61134d565b611a3d7fef4547db85b01fa12c49a7735fc207e6e417a1c4937d6ffa8bbf9b5362b0a60160001b61134d565b611a697f8c1cffa53f308ac985ccd89dd9360245e76e6801a76ef3b1f2b189ab163c480e60001b61134d565b611a9081600080858152602001908152602001600020600001611e8d90919063ffffffff16565b15611b7957611ac17f48a57a7e50b12d8cb49bbc5a6c7e92de667cabf3738b4a4bd5df13d4beb86eaf60001b61134d565b611aed7fb4e5e9b7052937e8c7669065c903576884778c8a86ebc94d960cb7b3e85928cc60001b61134d565b611b197f456b21ecc80d7e72404d3b5ca47be9dddd4fbef016150240ccd90bd56bc5f50160001b61134d565b3373ffffffffffffffffffffffffffffffffffffffff168173ffffffffffffffffffffffffffffffffffffffff16837ff6391f5c32d9c69d2a47ea670b442974b53935d1edc7fd64eb21e047a839171b60405160405180910390a4611ba6565b611ba57f7d448b1cf94e4b5d43b6afacf98c2cec8306756c11242339b0a4c4fb195ebeba60001b61134d565b5b5050565b6000611bd87f9d0813249b78d52940fb0ceae8c1b3e2a9e0b78ceffb84cfa07fccf241bd336d60001b611e17565b611c047fc76ab52fa92083b4597cbfd21546d854654e8b07a13617a0db3e60d98c4f070560001b611e17565b611c307f2f87846f46cea34a3095c76293ec978d986cd62c2d81c1b23b5ac315bf78297f60001b611e17565b611c4482846000018054905011606461180e565b611c707f75d0e57c9f5fce2526789f824d6ff6f473d6678b53ab38a26f6fe10f8ca6b36a60001b611e17565b611c9c7ffc3ec3a81a6b7e51ff2c90373668f56b10b90d47fe2efa27a277bc351e424d4b60001b611e17565b611ca68383612493565b905092915050565b6000611cdc7f2a5d65fff1f3b500c215582deba6caa0a91f9fecacf06c3d1ecbe4a353637b7f60001b611e17565b611d087f071b014040d1e21aadcee71b3fa973b0b60209eed08df4506d97e4c5e7caad9660001b611e17565b611d347fd1bb3b7f1b236199263b084954b3e62036402ccb0ddcaf72318b313ffef4b57660001b611e17565b60008360010160008473ffffffffffffffffffffffffffffffffffffffff1673ffffffffffffffffffffffffffffffffffffffff168152602001908152602001600020541415905092915050565b6000611db07fc9f1c13d3b7ffb1c19f7cfa243a63f58528679ecf95e622a88bb4be7a73ace5b60001b611e17565b611ddc7fea5266949dda251a388224c9bd7fdc3d5f9304642f1db5cedc5d2ebea799880a60001b611e17565b611e087f6ca40e534a9a06091edf7c0dd43aa090061df70577cca7c0d6c866814a54adf260001b611e17565b81600001805490509050919050565b50565b50565b6030600a820601600a820491506030600a830601600a830492506030600a8406018060101b8260081b8401016642414c230000000160c81b7f08c379a000000000000000000000000000000000000000000000000000000000600052602060045260076024528060445260646000fd5b6000611ebb7f60360cb80450f90dca8f7596990395902f85edfd112363ac56e99a70d1c863c060001b611e17565b611ee77fb60110ae50a59c66fb7625a77bfb8c9e7b0f2afbf800673f9f3d7d08647fe0a260001b611e17565b611f137fa8c08625683a3fde50f623359bc802b13ed77566fab37ec10e7802ad441eeaaa60001b611e17565b60008360010160008473ffffffffffffffffffffffffffffffffffffffff1673ffffffffffffffffffffffffffffffffffffffff168152602001908152602001600020549050611f857f8f14dd7185bade4fbaf3ec52618955bf2ba16694730a466f7bed4d88c8cf151860001b611e17565b611fb17f7ec56a643584d76d718a7d9f7de9b49223bb15c498ce9811a1c1c6bae374bb1260001b611e17565b6000811461240357611fe57f54e3323bab9c9a28462c0c60719c84a2fb9c46bd5a6126b4c02209c8ad0a9db760001b611e17565b6120117f2915b8cb3fee02ba26f5cc4960264dad315835883b41e392273203d13f62692860001b611e17565b61203d7f2619ddec270c27e460e75279b1d13238cc87158793f17c34d8268db7ce905aa860001b611e17565b60006001820390506120717f23aa40dfe98d77dcf83c0f3447327149d46db63ae1b65412bb510b1e739c706160001b611e17565b61209d7fce66f357c6cf62df27eef42dbd39f43e30422243bf1535c1c96557caa4f6d4ad60001b611e17565b6000600186600001805490500390506120d87f5e6589743f7b5aa70bf0f4c46358b8fb164794c4ee8c9469479cb8bccea04ccb60001b611e17565b6121047f991ac8e08d62fb0379c14f1be0fea4d485720eb7d0fda04ee260c05ac967818660001b611e17565b600086600001828154811061211557fe5b9060005260206000200160009054906101000a900473ffffffffffffffffffffffffffffffffffffffff16905061216e7fa0339aa0a45b127e0ea16783301288eab4abc5119c5decd959d2e13bf0ec9d3a60001b611e17565b61219a7f6847b65b64b90f9f00a3c430dc90b6075e5c0a5c1d0b7031aae58227b5a5817560001b611e17565b808760000184815481106121aa57fe5b9060005260206000200160006101000a81548173ffffffffffffffffffffffffffffffffffffffff021916908373ffffffffffffffffffffffffffffffffffffffff16021790555061221e7fbe8de5f3ecba12364fc1fb068521b0957b3c3228a8736c23b5df72bd2882891b60001b611e17565b61224a7fd6e0c3fa67a72620040161ed86392ddbf25f2defabc1318f4c641af9bd64785f60001b611e17565b600183018760010160008373ffffffffffffffffffffffffffffffffffffffff1673ffffffffffffffffffffffffffffffffffffffff168152602001908152602001600020819055506122bf7f67dd655845a9442de63cd1dec75a340dc77a0018bc6acc998db7f99965ca936160001b611e17565b6122eb7f68d4cd3d6a46a404070195471aafe2a32cadc8c3e948ad009f63c25ba60fbd2f60001b611e17565b866000018054806122f857fe5b6001900381819060005260206000200160006101000a81549073ffffffffffffffffffffffffffffffffffffffff021916905590556123597f2c3d6625f2ef19932e8c197b4f2525f61866ec8f73af85df86d3cb173795691060001b611e17565b8660010160008773ffffffffffffffffffffffffffffffffffffffff1673ffffffffffffffffffffffffffffffffffffffff168152602001908152602001600020600090556123ca7f6df4bc64c873a8e9e5edb97d4a5c4c22124b96b69cb0c65b01c274fe539123fb60001b611e17565b6123f67f4ce56017dd41dc018e1e2c3a431bd00c36d45ac8cad9b883db5682c0063baa3560001b611e17565b600194505050505061248d565b61242f7f6bfb2bb3a18b1247263db63fcb038e5b782731869a53ec337cceab242d2b78f160001b611e17565b61245b7f4fd44efdd0da82f4376a50124fc87e5879f1d42976b3b4ca40ac41209ce775ec60001b611e17565b6124877f75144fd471a5e1976594dc257e4c49fc7d0d6d1d2015d157dbf9eed14da4063060001b611e17565b60009150505b92915050565b60006124c17f5611b85ecce1b851e37a51d72c085e743f60f19c035ff687dcee7df4674b3bfe60001b611e17565b6124ed7f2202d92a05653ad78516520d47faaa842d192fb8aee9fdfc8a5e3e39a74900e860001b611e17565b6125197ff499d07d00fefdbc0ea81915e115c016bd881d72dc5c4ae314e7f5105cb8dfe960001b611e17565b82600001828154811061252857fe5b9060005260206000200160009054906101000a900473ffffffffffffffffffffffffffffffffffffffff1690509291505056fea26469706673582212204de728256ce57ab4529616cdae46f1fb845df35ca793a9c1b8da47f28586029d64736f6c63430007010033",
  "linkReferences": {},
  "deployedLinkReferences": {}
}