{
  "contracts/libraries/Authorizable.sol": {
    "Authorizable": {
      "abi": [
        {
          "inputs": [],
          "stateMutability": "nonpayable",
          "type": "constructor"
        },
        {
          "inputs": [
            {
              "internalType": "address",
              "name": "who",
              "type": "address"
            }
          ],
          "name": "authorize",
          "outputs": [],
          "stateMutability": "nonpayable",
          "type": "function"
        },
        {
          "inputs": [
            {
              "internalType": "address",
              "name": "",
              "type": "address"
            }
          ],
          "name": "authorized",
          "outputs": [
            {
              "internalType": "bool",
              "name": "",
              "type": "bool"
            }
          ],
          "stateMutability": "view",
          "type": "function"
        },
        {
          "inputs": [
            {
              "internalType": "address",
              "name": "who",
              "type": "address"
            }
          ],
          "name": "deauthorize",
          "outputs": [],
          "stateMutability": "nonpayable",
          "type": "function"
        },
        {
          "inputs": [
            {
              "internalType": "address",
              "name": "who",
              "type": "address"
            }
          ],
          "name": "isAuthorized",
          "outputs": [
            {
              "internalType": "bool",
              "name": "",
              "type": "bool"
            }
          ],
          "stateMutability": "view",
          "type": "function"
        },
        {
          "inputs": [],
          "name": "owner",
          "outputs": [
            {
              "internalType": "address",
              "name": "",
              "type": "address"
            }
          ],
          "stateMutability": "view",
          "type": "function"
        },
        {
          "inputs": [
            {
              "internalType": "address",
              "name": "who",
              "type": "address"
            }
          ],
          "name": "setOwner",
          "outputs": [],
          "stateMutability": "nonpayable",
          "type": "function"
        }
      ],
      "evm": {
        "bytecode": {
          "linkReferences": {},
          "object": "608060405234801561001057600080fd5b50600080546001600160a01b03191633179055610420806100326000396000f3fe608060405234801561001057600080fd5b50600436106100725760003560e01c8063b6a5d7de11610050578063b6a5d7de146100bd578063b9181611146100d0578063fe9fbb80146100f057610072565b806313af40351461007757806327c97fa51461008c5780638da5cb5b1461009f575b600080fd5b61008a61008536600461034c565b610103565b005b61008a61009a36600461034c565b6101a4565b6100a7610241565b6040516100b49190610387565b60405180910390f35b61008a6100cb36600461034c565b61025d565b6100e36100de36600461034c565b6102ba565b6040516100b491906103a8565b6100e36100fe36600461034c565b6102cf565b60005473ffffffffffffffffffffffffffffffffffffffff16331461015d576040517f08c379a0000000000000000000000000000000000000000000000000000000008152600401610154906103b3565b60405180910390fd5b600080547fffffffffffffffffffffffff00000000000000000000000000000000000000001673ffffffffffffffffffffffffffffffffffffffff92909216919091179055565b60005473ffffffffffffffffffffffffffffffffffffffff1633146101f5576040517f08c379a0000000000000000000000000000000000000000000000000000000008152600401610154906103b3565b73ffffffffffffffffffffffffffffffffffffffff16600090815260016020526040902080547fffffffffffffffffffffffffffffffffffffffffffffffffffffffffffffff00169055565b60005473ffffffffffffffffffffffffffffffffffffffff1681565b60005473ffffffffffffffffffffffffffffffffffffffff1633146102ae576040517f08c379a0000000000000000000000000000000000000000000000000000000008152600401610154906103b3565b6102b7816102fa565b50565b60016020526000908152604090205460ff1681565b73ffffffffffffffffffffffffffffffffffffffff1660009081526001602052604090205460ff1690565b73ffffffffffffffffffffffffffffffffffffffff16600090815260016020819052604090912080547fffffffffffffffffffffffffffffffffffffffffffffffffffffffffffffff00169091179055565b60006020828403121561035d578081fd5b813573ffffffffffffffffffffffffffffffffffffffff81168114610380578182fd5b9392505050565b73ffffffffffffffffffffffffffffffffffffffff91909116815260200190565b901515815260200190565b60208082526010908201527f53656e646572206e6f74206f776e65720000000000000000000000000000000060408201526060019056fea26469706673582212206011088e61bec7ad2832bc5571b869d40794d1c35651b6ce9a472d18ec5e2b8b64736f6c63430008000033",
          "opcodes": "PUSH1 0x80 PUSH1 0x40 MSTORE CALLVALUE DUP1 ISZERO PUSH2 0x10 JUMPI PUSH1 0x0 DUP1 REVERT JUMPDEST POP PUSH1 0x0 DUP1 SLOAD PUSH1 0x1 PUSH1 0x1 PUSH1 0xA0 SHL SUB NOT AND CALLER OR SWAP1 SSTORE PUSH2 0x420 DUP1 PUSH2 0x32 PUSH1 0x0 CODECOPY PUSH1 0x0 RETURN INVALID PUSH1 0x80 PUSH1 0x40 MSTORE CALLVALUE DUP1 ISZERO PUSH2 0x10 JUMPI PUSH1 0x0 DUP1 REVERT JUMPDEST POP PUSH1 0x4 CALLDATASIZE LT PUSH2 0x72 JUMPI PUSH1 0x0 CALLDATALOAD PUSH1 0xE0 SHR DUP1 PUSH4 0xB6A5D7DE GT PUSH2 0x50 JUMPI DUP1 PUSH4 0xB6A5D7DE EQ PUSH2 0xBD JUMPI DUP1 PUSH4 0xB9181611 EQ PUSH2 0xD0 JUMPI DUP1 PUSH4 0xFE9FBB80 EQ PUSH2 0xF0 JUMPI PUSH2 0x72 JUMP JUMPDEST DUP1 PUSH4 0x13AF4035 EQ PUSH2 0x77 JUMPI DUP1 PUSH4 0x27C97FA5 EQ PUSH2 0x8C JUMPI DUP1 PUSH4 0x8DA5CB5B EQ PUSH2 0x9F JUMPI JUMPDEST PUSH1 0x0 DUP1 REVERT JUMPDEST PUSH2 0x8A PUSH2 0x85 CALLDATASIZE PUSH1 0x4 PUSH2 0x34C JUMP JUMPDEST PUSH2 0x103 JUMP JUMPDEST STOP JUMPDEST PUSH2 0x8A PUSH2 0x9A CALLDATASIZE PUSH1 0x4 PUSH2 0x34C JUMP JUMPDEST PUSH2 0x1A4 JUMP JUMPDEST PUSH2 0xA7 PUSH2 0x241 JUMP JUMPDEST PUSH1 0x40 MLOAD PUSH2 0xB4 SWAP2 SWAP1 PUSH2 0x387 JUMP JUMPDEST PUSH1 0x40 MLOAD DUP1 SWAP2 SUB SWAP1 RETURN JUMPDEST PUSH2 0x8A PUSH2 0xCB CALLDATASIZE PUSH1 0x4 PUSH2 0x34C JUMP JUMPDEST PUSH2 0x25D JUMP JUMPDEST PUSH2 0xE3 PUSH2 0xDE CALLDATASIZE PUSH1 0x4 PUSH2 0x34C JUMP JUMPDEST PUSH2 0x2BA JUMP JUMPDEST PUSH1 0x40 MLOAD PUSH2 0xB4 SWAP2 SWAP1 PUSH2 0x3A8 JUMP JUMPDEST PUSH2 0xE3 PUSH2 0xFE CALLDATASIZE PUSH1 0x4 PUSH2 0x34C JUMP JUMPDEST PUSH2 0x2CF JUMP JUMPDEST PUSH1 0x0 SLOAD PUSH20 0xFFFFFFFFFFFFFFFFFFFFFFFFFFFFFFFFFFFFFFFF AND CALLER EQ PUSH2 0x15D JUMPI PUSH1 0x40 MLOAD PUSH32 0x8C379A000000000000000000000000000000000000000000000000000000000 DUP2 MSTORE PUSH1 0x4 ADD PUSH2 0x154 SWAP1 PUSH2 0x3B3 JUMP JUMPDEST PUSH1 0x40 MLOAD DUP1 SWAP2 SUB SWAP1 REVERT JUMPDEST PUSH1 0x0 DUP1 SLOAD PUSH32 0xFFFFFFFFFFFFFFFFFFFFFFFF0000000000000000000000000000000000000000 AND PUSH20 0xFFFFFFFFFFFFFFFFFFFFFFFFFFFFFFFFFFFFFFFF SWAP3 SWAP1 SWAP3 AND SWAP2 SWAP1 SWAP2 OR SWAP1 SSTORE JUMP JUMPDEST PUSH1 0x0 SLOAD PUSH20 0xFFFFFFFFFFFFFFFFFFFFFFFFFFFFFFFFFFFFFFFF AND CALLER EQ PUSH2 0x1F5 JUMPI PUSH1 0x40 MLOAD PUSH32 0x8C379A000000000000000000000000000000000000000000000000000000000 DUP2 MSTORE PUSH1 0x4 ADD PUSH2 0x154 SWAP1 PUSH2 0x3B3 JUMP JUMPDEST PUSH20 0xFFFFFFFFFFFFFFFFFFFFFFFFFFFFFFFFFFFFFFFF AND PUSH1 0x0 SWAP1 DUP2 MSTORE PUSH1 0x1 PUSH1 0x20 MSTORE PUSH1 0x40 SWAP1 KECCAK256 DUP1 SLOAD PUSH32 0xFFFFFFFFFFFFFFFFFFFFFFFFFFFFFFFFFFFFFFFFFFFFFFFFFFFFFFFFFFFFFF00 AND SWAP1 SSTORE JUMP JUMPDEST PUSH1 0x0 SLOAD PUSH20 0xFFFFFFFFFFFFFFFFFFFFFFFFFFFFFFFFFFFFFFFF AND DUP2 JUMP JUMPDEST PUSH1 0x0 SLOAD PUSH20 0xFFFFFFFFFFFFFFFFFFFFFFFFFFFFFFFFFFFFFFFF AND CALLER EQ PUSH2 0x2AE JUMPI PUSH1 0x40 MLOAD PUSH32 0x8C379A000000000000000000000000000000000000000000000000000000000 DUP2 MSTORE PUSH1 0x4 ADD PUSH2 0x154 SWAP1 PUSH2 0x3B3 JUMP JUMPDEST PUSH2 0x2B7 DUP2 PUSH2 0x2FA JUMP JUMPDEST POP JUMP JUMPDEST PUSH1 0x1 PUSH1 0x20 MSTORE PUSH1 0x0 SWAP1 DUP2 MSTORE PUSH1 0x40 SWAP1 KECCAK256 SLOAD PUSH1 0xFF AND DUP2 JUMP JUMPDEST PUSH20 0xFFFFFFFFFFFFFFFFFFFFFFFFFFFFFFFFFFFFFFFF AND PUSH1 0x0 SWAP1 DUP2 MSTORE PUSH1 0x1 PUSH1 0x20 MSTORE PUSH1 0x40 SWAP1 KECCAK256 SLOAD PUSH1 0xFF AND SWAP1 JUMP JUMPDEST PUSH20 0xFFFFFFFFFFFFFFFFFFFFFFFFFFFFFFFFFFFFFFFF AND PUSH1 0x0 SWAP1 DUP2 MSTORE PUSH1 0x1 PUSH1 0x20 DUP2 SWAP1 MSTORE PUSH1 0x40 SWAP1 SWAP2 KECCAK256 DUP1 SLOAD PUSH32 0xFFFFFFFFFFFFFFFFFFFFFFFFFFFFFFFFFFFFFFFFFFFFFFFFFFFFFFFFFFFFFF00 AND SWAP1 SWAP2 OR SWAP1 SSTORE JUMP JUMPDEST PUSH1 0x0 PUSH1 0x20 DUP3 DUP5 SUB SLT ISZERO PUSH2 0x35D JUMPI DUP1 DUP2 REVERT JUMPDEST DUP2 CALLDATALOAD PUSH20 0xFFFFFFFFFFFFFFFFFFFFFFFFFFFFFFFFFFFFFFFF DUP2 AND DUP2 EQ PUSH2 0x380 JUMPI DUP2 DUP3 REVERT JUMPDEST SWAP4 SWAP3 POP POP POP JUMP JUMPDEST PUSH20 0xFFFFFFFFFFFFFFFFFFFFFFFFFFFFFFFFFFFFFFFF SWAP2 SWAP1 SWAP2 AND DUP2 MSTORE PUSH1 0x20 ADD SWAP1 JUMP JUMPDEST SWAP1 ISZERO ISZERO DUP2 MSTORE PUSH1 0x20 ADD SWAP1 JUMP JUMPDEST PUSH1 0x20 DUP1 DUP3 MSTORE PUSH1 0x10 SWAP1 DUP3 ADD MSTORE PUSH32 0x53656E646572206E6F74206F776E657200000000000000000000000000000000 PUSH1 0x40 DUP3 ADD MSTORE PUSH1 0x60 ADD SWAP1 JUMP INVALID LOG2 PUSH5 0x6970667358 0x22 SLT KECCAK256 PUSH1 0x11 ADDMOD DUP15 PUSH2 0xBEC7 0xAD 0x28 ORIGIN 0xBC SSTORE PUSH18 0xB869D40794D1C35651B6CE9A472D18EC5E2B DUP12 PUSH5 0x736F6C6343 STOP ADDMOD STOP STOP CALLER "
        },
        "methodIdentifiers": {
          "authorize(address)": "b6a5d7de",
          "authorized(address)": "b9181611",
          "deauthorize(address)": "27c97fa5",
          "isAuthorized(address)": "fe9fbb80",
          "owner()": "8da5cb5b",
          "setOwner(address)": "13af4035"
        }
      }
    }
  }
}