{
  "contracts/libraries/Authorizable.sol": {
    "Authorizable": {
      "abi": [
        {
          "inputs": [],
          "stateMutability": "nonpayable",
          "type": "constructor"
        },
        {
          "inputs": [
            {
              "internalType": "address",
              "name": "who",
              "type": "address"
            }
          ],
          "name": "authorize",
          "outputs": [],
          "stateMutability": "nonpayable",
          "type": "function"
        },
        {
          "inputs": [
            {
              "internalType": "address",
              "name": "",
              "type": "address"
            }
          ],
          "name": "authorized",
          "outputs": [
            {
              "internalType": "bool",
              "name": "",
              "type": "bool"
            }
          ],
          "stateMutability": "view",
          "type": "function"
        },
        {
          "inputs": [
            {
              "internalType": "bytes32",
              "name": "c__0x4b728764",
              "type": "bytes32"
            }
          ],
          "name": "c_0x4b728764",
          "outputs": [],
          "stateMutability": "pure",
          "type": "function"
        },
        {
          "inputs": [
            {
              "internalType": "address",
              "name": "who",
              "type": "address"
            }
          ],
          "name": "deauthorize",
          "outputs": [],
          "stateMutability": "nonpayable",
          "type": "function"
        },
        {
          "inputs": [
            {
              "internalType": "address",
              "name": "who",
              "type": "address"
            }
          ],
          "name": "isAuthorized",
          "outputs": [
            {
              "internalType": "bool",
              "name": "",
              "type": "bool"
            }
          ],
          "stateMutability": "view",
          "type": "function"
        },
        {
          "inputs": [],
          "name": "owner",
          "outputs": [
            {
              "internalType": "address",
              "name": "",
              "type": "address"
            }
          ],
          "stateMutability": "view",
          "type": "function"
        },
        {
          "inputs": [
            {
              "internalType": "address",
              "name": "who",
              "type": "address"
            }
          ],
          "name": "setOwner",
          "outputs": [],
          "stateMutability": "nonpayable",
          "type": "function"
        }
      ],
      "evm": {
        "bytecode": {
          "linkReferences": {},
          "object": "608060405234801561001057600080fd5b506100437f20ce721125820097d8ab6e6e5a99e0290a6ec6d648f486854cb925dd52df9bb860001b6100ec60201b60201c565b6100757f704f0c5b69518a4ecf8b381629e3649c797c67405793669ad6b54a68e48bc7e560001b6100ec60201b60201c565b6100a77fb8a8ff4abe6bf8a8f1d5c19d3d1294136af512798ce8af2179eee8f75c59609e60001b6100ec60201b60201c565b336000806101000a81548173ffffffffffffffffffffffffffffffffffffffff021916908373ffffffffffffffffffffffffffffffffffffffff1602179055506100ef565b50565b610c54806100fe6000396000f3fe608060405234801561001057600080fd5b506004361061007d5760003560e01c8063b6a5d7de1161005b578063b6a5d7de146100d8578063b9181611146100f4578063e27b583314610124578063fe9fbb80146101405761007d565b806313af40351461008257806327c97fa51461009e5780638da5cb5b146100ba575b600080fd5b61009c60048036038101906100979190610a91565b610170565b005b6100b860048036038101906100b39190610a91565b6103cd565b005b6100c2610642565b6040516100cf9190610b41565b60405180910390f35b6100f260048036038101906100ed9190610a91565b610666565b005b61010e60048036038101906101099190610a91565b61088c565b60405161011b9190610b5c565b60405180910390f35b61013e60048036038101906101399190610aba565b6108ac565b005b61015a60048036038101906101559190610a91565b6108af565b6040516101679190610b5c565b60405180910390f35b61019c7fd3c15ea78c92f29ff21320133dc186cdc3d1b99010a10df905c42a6af1a2c6f460001b6108ac565b6101c87fac6901de5a519b8c1831d8445034bb5dea3a2d45b70c0fba443d0d84677323ac60001b6108ac565b6101f47fcf08c7465446b26d7e68bf1123bb30be9e147682d9a9980bab252718ee9e41b860001b6108ac565b6102207fd8063382c6af56cf10a207517e9d4e28deae0b115ed54758c9c98079502650bc60001b6108ac565b60008054906101000a900473ffffffffffffffffffffffffffffffffffffffff1673ffffffffffffffffffffffffffffffffffffffff163373ffffffffffffffffffffffffffffffffffffffff16146102ae576040517f08c379a00000000000000000000000000000000000000000000000000000000081526004016102a590610b77565b60405180910390fd5b6102da7f9d62103f62fa99b274a5dbc105d68f3c0d1ed548f044bb895c6f91b791225f0560001b6108ac565b6103067f8aaebfe919b353feff66e5141b201dcd11ddf0a99ea594d5996ee70c159db8ed60001b6108ac565b6103327f59bf33915e2a4fde49411d6cd41c71a2b1f37226654330f870b6011ebc41a67760001b6108ac565b61035e7f9db2b932910aad5052dfdcb968b717aff9d86b45068a2770e7db55c699ccabc860001b6108ac565b61038a7f4f426c94812a648c8603c004a7a2d5dcbfc70b936ca5098e4902272eb0510eb860001b6108ac565b806000806101000a81548173ffffffffffffffffffffffffffffffffffffffff021916908373ffffffffffffffffffffffffffffffffffffffff16021790555050565b6103f97fd3c15ea78c92f29ff21320133dc186cdc3d1b99010a10df905c42a6af1a2c6f460001b6108ac565b6104257fac6901de5a519b8c1831d8445034bb5dea3a2d45b70c0fba443d0d84677323ac60001b6108ac565b6104517fcf08c7465446b26d7e68bf1123bb30be9e147682d9a9980bab252718ee9e41b860001b6108ac565b61047d7fd8063382c6af56cf10a207517e9d4e28deae0b115ed54758c9c98079502650bc60001b6108ac565b60008054906101000a900473ffffffffffffffffffffffffffffffffffffffff1673ffffffffffffffffffffffffffffffffffffffff163373ffffffffffffffffffffffffffffffffffffffff161461050b576040517f08c379a000000000000000000000000000000000000000000000000000000000815260040161050290610b77565b60405180910390fd5b6105377f9d62103f62fa99b274a5dbc105d68f3c0d1ed548f044bb895c6f91b791225f0560001b6108ac565b6105637f8aaebfe919b353feff66e5141b201dcd11ddf0a99ea594d5996ee70c159db8ed60001b6108ac565b61058f7f5d12454d6ee4a1f4b3b68a0b56d570c145241177d8c258e485e98866aa95911b60001b6108ac565b6105bb7f28b024be22ed63df645a0abccdc142ecd3ef4c35fbfa6421c6dab702d0d2fc4060001b6108ac565b6105e77fb6333f3a0aac75470d9374fbfbea04f22c39e6971cb569f24aedc77ccc96aa0b60001b6108ac565b6000600160008373ffffffffffffffffffffffffffffffffffffffff1673ffffffffffffffffffffffffffffffffffffffff16815260200190815260200160002060006101000a81548160ff02191690831515021790555050565b60008054906101000a900473ffffffffffffffffffffffffffffffffffffffff1681565b6106927fd3c15ea78c92f29ff21320133dc186cdc3d1b99010a10df905c42a6af1a2c6f460001b6108ac565b6106be7fac6901de5a519b8c1831d8445034bb5dea3a2d45b70c0fba443d0d84677323ac60001b6108ac565b6106ea7fcf08c7465446b26d7e68bf1123bb30be9e147682d9a9980bab252718ee9e41b860001b6108ac565b6107167fd8063382c6af56cf10a207517e9d4e28deae0b115ed54758c9c98079502650bc60001b6108ac565b60008054906101000a900473ffffffffffffffffffffffffffffffffffffffff1673ffffffffffffffffffffffffffffffffffffffff163373ffffffffffffffffffffffffffffffffffffffff16146107a4576040517f08c379a000000000000000000000000000000000000000000000000000000000815260040161079b90610b77565b60405180910390fd5b6107d07f9d62103f62fa99b274a5dbc105d68f3c0d1ed548f044bb895c6f91b791225f0560001b6108ac565b6107fc7f8aaebfe919b353feff66e5141b201dcd11ddf0a99ea594d5996ee70c159db8ed60001b6108ac565b6108287fdf5291eb74b2eebd717fb3193d6df21b2e17f96d53f9c59d146f528391a61cff60001b6108ac565b6108547f9cd6e0cf6986e268ce967dbab10e475a2772463fbd3d4edbafc7d55b9a259a8360001b6108ac565b6108807ff4888f1991892c171d770d7451af8d6a0cc2f48de4853d4b995d41bd3916ba6360001b6108ac565b61088981610989565b50565b60016020528060005260406000206000915054906101000a900460ff1681565b50565b60006108dd7f5d203ac8e3feb75efa94e0b910558076e3703263fbc7eeb32681bb57b1a8b39360001b6108ac565b6109097fc9870c48d9ef77d66147b925fdcf1457da4741003fddcfaf2e5cd7b8356cabc760001b6108ac565b6109357f9df5568f613f1f598fa209a9c44a3e8e930a119ff855a6bdc5bd8147eea5ac5d60001b6108ac565b600160008373ffffffffffffffffffffffffffffffffffffffff1673ffffffffffffffffffffffffffffffffffffffff16815260200190815260200160002060009054906101000a900460ff169050919050565b6109b57f69720f7d8750c3db5d0f7829a41f5a26bafd40e148a1e4d5678ec378c960f9bc60001b6108ac565b6109e17f0c4e51ab5ab250a134a6e528047c8268ad0cf2cfe0cbc4ec89fe005afc88b91c60001b6108ac565b610a0d7ffc5e08e3675420d134ac48c459a45e0cfe67bca9c6c2f79c1a12082b6bb1659560001b6108ac565b60018060008373ffffffffffffffffffffffffffffffffffffffff1673ffffffffffffffffffffffffffffffffffffffff16815260200190815260200160002060006101000a81548160ff02191690831515021790555050565b600081359050610a7681610bf0565b92915050565b600081359050610a8b81610c07565b92915050565b600060208284031215610aa357600080fd5b6000610ab184828501610a67565b91505092915050565b600060208284031215610acc57600080fd5b6000610ada84828501610a7c565b91505092915050565b610aec81610ba8565b82525050565b610afb81610bba565b82525050565b6000610b0e601083610b97565b91507f53656e646572206e6f74206f776e6572000000000000000000000000000000006000830152602082019050919050565b6000602082019050610b566000830184610ae3565b92915050565b6000602082019050610b716000830184610af2565b92915050565b60006020820190508181036000830152610b9081610b01565b9050919050565b600082825260208201905092915050565b6000610bb382610bd0565b9050919050565b60008115159050919050565b6000819050919050565b600073ffffffffffffffffffffffffffffffffffffffff82169050919050565b610bf981610ba8565b8114610c0457600080fd5b50565b610c1081610bc6565b8114610c1b57600080fd5b5056fea26469706673582212200594ae1d0ffd30f71992b5d576febaf9537cb1f9cb38d8228fe98ef4c4cbaf6e64736f6c63430008000033",
          "opcodes": "PUSH1 0x80 PUSH1 0x40 MSTORE CALLVALUE DUP1 ISZERO PUSH2 0x10 JUMPI PUSH1 0x0 DUP1 REVERT JUMPDEST POP PUSH2 0x43 PUSH32 0x20CE721125820097D8AB6E6E5A99E0290A6EC6D648F486854CB925DD52DF9BB8 PUSH1 0x0 SHL PUSH2 0xEC PUSH1 0x20 SHL PUSH1 0x20 SHR JUMP JUMPDEST PUSH2 0x75 PUSH32 0x704F0C5B69518A4ECF8B381629E3649C797C67405793669AD6B54A68E48BC7E5 PUSH1 0x0 SHL PUSH2 0xEC PUSH1 0x20 SHL PUSH1 0x20 SHR JUMP JUMPDEST PUSH2 0xA7 PUSH32 0xB8A8FF4ABE6BF8A8F1D5C19D3D1294136AF512798CE8AF2179EEE8F75C59609E PUSH1 0x0 SHL PUSH2 0xEC PUSH1 0x20 SHL PUSH1 0x20 SHR JUMP JUMPDEST CALLER PUSH1 0x0 DUP1 PUSH2 0x100 EXP DUP2 SLOAD DUP2 PUSH20 0xFFFFFFFFFFFFFFFFFFFFFFFFFFFFFFFFFFFFFFFF MUL NOT AND SWAP1 DUP4 PUSH20 0xFFFFFFFFFFFFFFFFFFFFFFFFFFFFFFFFFFFFFFFF AND MUL OR SWAP1 SSTORE POP PUSH2 0xEF JUMP JUMPDEST POP JUMP JUMPDEST PUSH2 0xC54 DUP1 PUSH2 0xFE PUSH1 0x0 CODECOPY PUSH1 0x0 RETURN INVALID PUSH1 0x80 PUSH1 0x40 MSTORE CALLVALUE DUP1 ISZERO PUSH2 0x10 JUMPI PUSH1 0x0 DUP1 REVERT JUMPDEST POP PUSH1 0x4 CALLDATASIZE LT PUSH2 0x7D JUMPI PUSH1 0x0 CALLDATALOAD PUSH1 0xE0 SHR DUP1 PUSH4 0xB6A5D7DE GT PUSH2 0x5B JUMPI DUP1 PUSH4 0xB6A5D7DE EQ PUSH2 0xD8 JUMPI DUP1 PUSH4 0xB9181611 EQ PUSH2 0xF4 JUMPI DUP1 PUSH4 0xE27B5833 EQ PUSH2 0x124 JUMPI DUP1 PUSH4 0xFE9FBB80 EQ PUSH2 0x140 JUMPI PUSH2 0x7D JUMP JUMPDEST DUP1 PUSH4 0x13AF4035 EQ PUSH2 0x82 JUMPI DUP1 PUSH4 0x27C97FA5 EQ PUSH2 0x9E JUMPI DUP1 PUSH4 0x8DA5CB5B EQ PUSH2 0xBA JUMPI JUMPDEST PUSH1 0x0 DUP1 REVERT JUMPDEST PUSH2 0x9C PUSH1 0x4 DUP1 CALLDATASIZE SUB DUP2 ADD SWAP1 PUSH2 0x97 SWAP2 SWAP1 PUSH2 0xA91 JUMP JUMPDEST PUSH2 0x170 JUMP JUMPDEST STOP JUMPDEST PUSH2 0xB8 PUSH1 0x4 DUP1 CALLDATASIZE SUB DUP2 ADD SWAP1 PUSH2 0xB3 SWAP2 SWAP1 PUSH2 0xA91 JUMP JUMPDEST PUSH2 0x3CD JUMP JUMPDEST STOP JUMPDEST PUSH2 0xC2 PUSH2 0x642 JUMP JUMPDEST PUSH1 0x40 MLOAD PUSH2 0xCF SWAP2 SWAP1 PUSH2 0xB41 JUMP JUMPDEST PUSH1 0x40 MLOAD DUP1 SWAP2 SUB SWAP1 RETURN JUMPDEST PUSH2 0xF2 PUSH1 0x4 DUP1 CALLDATASIZE SUB DUP2 ADD SWAP1 PUSH2 0xED SWAP2 SWAP1 PUSH2 0xA91 JUMP JUMPDEST PUSH2 0x666 JUMP JUMPDEST STOP JUMPDEST PUSH2 0x10E PUSH1 0x4 DUP1 CALLDATASIZE SUB DUP2 ADD SWAP1 PUSH2 0x109 SWAP2 SWAP1 PUSH2 0xA91 JUMP JUMPDEST PUSH2 0x88C JUMP JUMPDEST PUSH1 0x40 MLOAD PUSH2 0x11B SWAP2 SWAP1 PUSH2 0xB5C JUMP JUMPDEST PUSH1 0x40 MLOAD DUP1 SWAP2 SUB SWAP1 RETURN JUMPDEST PUSH2 0x13E PUSH1 0x4 DUP1 CALLDATASIZE SUB DUP2 ADD SWAP1 PUSH2 0x139 SWAP2 SWAP1 PUSH2 0xABA JUMP JUMPDEST PUSH2 0x8AC JUMP JUMPDEST STOP JUMPDEST PUSH2 0x15A PUSH1 0x4 DUP1 CALLDATASIZE SUB DUP2 ADD SWAP1 PUSH2 0x155 SWAP2 SWAP1 PUSH2 0xA91 JUMP JUMPDEST PUSH2 0x8AF JUMP JUMPDEST PUSH1 0x40 MLOAD PUSH2 0x167 SWAP2 SWAP1 PUSH2 0xB5C JUMP JUMPDEST PUSH1 0x40 MLOAD DUP1 SWAP2 SUB SWAP1 RETURN JUMPDEST PUSH2 0x19C PUSH32 0xD3C15EA78C92F29FF21320133DC186CDC3D1B99010A10DF905C42A6AF1A2C6F4 PUSH1 0x0 SHL PUSH2 0x8AC JUMP JUMPDEST PUSH2 0x1C8 PUSH32 0xAC6901DE5A519B8C1831D8445034BB5DEA3A2D45B70C0FBA443D0D84677323AC PUSH1 0x0 SHL PUSH2 0x8AC JUMP JUMPDEST PUSH2 0x1F4 PUSH32 0xCF08C7465446B26D7E68BF1123BB30BE9E147682D9A9980BAB252718EE9E41B8 PUSH1 0x0 SHL PUSH2 0x8AC JUMP JUMPDEST PUSH2 0x220 PUSH32 0xD8063382C6AF56CF10A207517E9D4E28DEAE0B115ED54758C9C98079502650BC PUSH1 0x0 SHL PUSH2 0x8AC JUMP JUMPDEST PUSH1 0x0 DUP1 SLOAD SWAP1 PUSH2 0x100 EXP SWAP1 DIV PUSH20 0xFFFFFFFFFFFFFFFFFFFFFFFFFFFFFFFFFFFFFFFF AND PUSH20 0xFFFFFFFFFFFFFFFFFFFFFFFFFFFFFFFFFFFFFFFF AND CALLER PUSH20 0xFFFFFFFFFFFFFFFFFFFFFFFFFFFFFFFFFFFFFFFF AND EQ PUSH2 0x2AE JUMPI PUSH1 0x40 MLOAD PUSH32 0x8C379A000000000000000000000000000000000000000000000000000000000 DUP2 MSTORE PUSH1 0x4 ADD PUSH2 0x2A5 SWAP1 PUSH2 0xB77 JUMP JUMPDEST PUSH1 0x40 MLOAD DUP1 SWAP2 SUB SWAP1 REVERT JUMPDEST PUSH2 0x2DA PUSH32 0x9D62103F62FA99B274A5DBC105D68F3C0D1ED548F044BB895C6F91B791225F05 PUSH1 0x0 SHL PUSH2 0x8AC JUMP JUMPDEST PUSH2 0x306 PUSH32 0x8AAEBFE919B353FEFF66E5141B201DCD11DDF0A99EA594D5996EE70C159DB8ED PUSH1 0x0 SHL PUSH2 0x8AC JUMP JUMPDEST PUSH2 0x332 PUSH32 0x59BF33915E2A4FDE49411D6CD41C71A2B1F37226654330F870B6011EBC41A677 PUSH1 0x0 SHL PUSH2 0x8AC JUMP JUMPDEST PUSH2 0x35E PUSH32 0x9DB2B932910AAD5052DFDCB968B717AFF9D86B45068A2770E7DB55C699CCABC8 PUSH1 0x0 SHL PUSH2 0x8AC JUMP JUMPDEST PUSH2 0x38A PUSH32 0x4F426C94812A648C8603C004A7A2D5DCBFC70B936CA5098E4902272EB0510EB8 PUSH1 0x0 SHL PUSH2 0x8AC JUMP JUMPDEST DUP1 PUSH1 0x0 DUP1 PUSH2 0x100 EXP DUP2 SLOAD DUP2 PUSH20 0xFFFFFFFFFFFFFFFFFFFFFFFFFFFFFFFFFFFFFFFF MUL NOT AND SWAP1 DUP4 PUSH20 0xFFFFFFFFFFFFFFFFFFFFFFFFFFFFFFFFFFFFFFFF AND MUL OR SWAP1 SSTORE POP POP JUMP JUMPDEST PUSH2 0x3F9 PUSH32 0xD3C15EA78C92F29FF21320133DC186CDC3D1B99010A10DF905C42A6AF1A2C6F4 PUSH1 0x0 SHL PUSH2 0x8AC JUMP JUMPDEST PUSH2 0x425 PUSH32 0xAC6901DE5A519B8C1831D8445034BB5DEA3A2D45B70C0FBA443D0D84677323AC PUSH1 0x0 SHL PUSH2 0x8AC JUMP JUMPDEST PUSH2 0x451 PUSH32 0xCF08C7465446B26D7E68BF1123BB30BE9E147682D9A9980BAB252718EE9E41B8 PUSH1 0x0 SHL PUSH2 0x8AC JUMP JUMPDEST PUSH2 0x47D PUSH32 0xD8063382C6AF56CF10A207517E9D4E28DEAE0B115ED54758C9C98079502650BC PUSH1 0x0 SHL PUSH2 0x8AC JUMP JUMPDEST PUSH1 0x0 DUP1 SLOAD SWAP1 PUSH2 0x100 EXP SWAP1 DIV PUSH20 0xFFFFFFFFFFFFFFFFFFFFFFFFFFFFFFFFFFFFFFFF AND PUSH20 0xFFFFFFFFFFFFFFFFFFFFFFFFFFFFFFFFFFFFFFFF AND CALLER PUSH20 0xFFFFFFFFFFFFFFFFFFFFFFFFFFFFFFFFFFFFFFFF AND EQ PUSH2 0x50B JUMPI PUSH1 0x40 MLOAD PUSH32 0x8C379A000000000000000000000000000000000000000000000000000000000 DUP2 MSTORE PUSH1 0x4 ADD PUSH2 0x502 SWAP1 PUSH2 0xB77 JUMP JUMPDEST PUSH1 0x40 MLOAD DUP1 SWAP2 SUB SWAP1 REVERT JUMPDEST PUSH2 0x537 PUSH32 0x9D62103F62FA99B274A5DBC105D68F3C0D1ED548F044BB895C6F91B791225F05 PUSH1 0x0 SHL PUSH2 0x8AC JUMP JUMPDEST PUSH2 0x563 PUSH32 0x8AAEBFE919B353FEFF66E5141B201DCD11DDF0A99EA594D5996EE70C159DB8ED PUSH1 0x0 SHL PUSH2 0x8AC JUMP JUMPDEST PUSH2 0x58F PUSH32 0x5D12454D6EE4A1F4B3B68A0B56D570C145241177D8C258E485E98866AA95911B PUSH1 0x0 SHL PUSH2 0x8AC JUMP JUMPDEST PUSH2 0x5BB PUSH32 0x28B024BE22ED63DF645A0ABCCDC142ECD3EF4C35FBFA6421C6DAB702D0D2FC40 PUSH1 0x0 SHL PUSH2 0x8AC JUMP JUMPDEST PUSH2 0x5E7 PUSH32 0xB6333F3A0AAC75470D9374FBFBEA04F22C39E6971CB569F24AEDC77CCC96AA0B PUSH1 0x0 SHL PUSH2 0x8AC JUMP JUMPDEST PUSH1 0x0 PUSH1 0x1 PUSH1 0x0 DUP4 PUSH20 0xFFFFFFFFFFFFFFFFFFFFFFFFFFFFFFFFFFFFFFFF AND PUSH20 0xFFFFFFFFFFFFFFFFFFFFFFFFFFFFFFFFFFFFFFFF AND DUP2 MSTORE PUSH1 0x20 ADD SWAP1 DUP2 MSTORE PUSH1 0x20 ADD PUSH1 0x0 KECCAK256 PUSH1 0x0 PUSH2 0x100 EXP DUP2 SLOAD DUP2 PUSH1 0xFF MUL NOT AND SWAP1 DUP4 ISZERO ISZERO MUL OR SWAP1 SSTORE POP POP JUMP JUMPDEST PUSH1 0x0 DUP1 SLOAD SWAP1 PUSH2 0x100 EXP SWAP1 DIV PUSH20 0xFFFFFFFFFFFFFFFFFFFFFFFFFFFFFFFFFFFFFFFF AND DUP2 JUMP JUMPDEST PUSH2 0x692 PUSH32 0xD3C15EA78C92F29FF21320133DC186CDC3D1B99010A10DF905C42A6AF1A2C6F4 PUSH1 0x0 SHL PUSH2 0x8AC JUMP JUMPDEST PUSH2 0x6BE PUSH32 0xAC6901DE5A519B8C1831D8445034BB5DEA3A2D45B70C0FBA443D0D84677323AC PUSH1 0x0 SHL PUSH2 0x8AC JUMP JUMPDEST PUSH2 0x6EA PUSH32 0xCF08C7465446B26D7E68BF1123BB30BE9E147682D9A9980BAB252718EE9E41B8 PUSH1 0x0 SHL PUSH2 0x8AC JUMP JUMPDEST PUSH2 0x716 PUSH32 0xD8063382C6AF56CF10A207517E9D4E28DEAE0B115ED54758C9C98079502650BC PUSH1 0x0 SHL PUSH2 0x8AC JUMP JUMPDEST PUSH1 0x0 DUP1 SLOAD SWAP1 PUSH2 0x100 EXP SWAP1 DIV PUSH20 0xFFFFFFFFFFFFFFFFFFFFFFFFFFFFFFFFFFFFFFFF AND PUSH20 0xFFFFFFFFFFFFFFFFFFFFFFFFFFFFFFFFFFFFFFFF AND CALLER PUSH20 0xFFFFFFFFFFFFFFFFFFFFFFFFFFFFFFFFFFFFFFFF AND EQ PUSH2 0x7A4 JUMPI PUSH1 0x40 MLOAD PUSH32 0x8C379A000000000000000000000000000000000000000000000000000000000 DUP2 MSTORE PUSH1 0x4 ADD PUSH2 0x79B SWAP1 PUSH2 0xB77 JUMP JUMPDEST PUSH1 0x40 MLOAD DUP1 SWAP2 SUB SWAP1 REVERT JUMPDEST PUSH2 0x7D0 PUSH32 0x9D62103F62FA99B274A5DBC105D68F3C0D1ED548F044BB895C6F91B791225F05 PUSH1 0x0 SHL PUSH2 0x8AC JUMP JUMPDEST PUSH2 0x7FC PUSH32 0x8AAEBFE919B353FEFF66E5141B201DCD11DDF0A99EA594D5996EE70C159DB8ED PUSH1 0x0 SHL PUSH2 0x8AC JUMP JUMPDEST PUSH2 0x828 PUSH32 0xDF5291EB74B2EEBD717FB3193D6DF21B2E17F96D53F9C59D146F528391A61CFF PUSH1 0x0 SHL PUSH2 0x8AC JUMP JUMPDEST PUSH2 0x854 PUSH32 0x9CD6E0CF6986E268CE967DBAB10E475A2772463FBD3D4EDBAFC7D55B9A259A83 PUSH1 0x0 SHL PUSH2 0x8AC JUMP JUMPDEST PUSH2 0x880 PUSH32 0xF4888F1991892C171D770D7451AF8D6A0CC2F48DE4853D4B995D41BD3916BA63 PUSH1 0x0 SHL PUSH2 0x8AC JUMP JUMPDEST PUSH2 0x889 DUP2 PUSH2 0x989 JUMP JUMPDEST POP JUMP JUMPDEST PUSH1 0x1 PUSH1 0x20 MSTORE DUP1 PUSH1 0x0 MSTORE PUSH1 0x40 PUSH1 0x0 KECCAK256 PUSH1 0x0 SWAP2 POP SLOAD SWAP1 PUSH2 0x100 EXP SWAP1 DIV PUSH1 0xFF AND DUP2 JUMP JUMPDEST POP JUMP JUMPDEST PUSH1 0x0 PUSH2 0x8DD PUSH32 0x5D203AC8E3FEB75EFA94E0B910558076E3703263FBC7EEB32681BB57B1A8B393 PUSH1 0x0 SHL PUSH2 0x8AC JUMP JUMPDEST PUSH2 0x909 PUSH32 0xC9870C48D9EF77D66147B925FDCF1457DA4741003FDDCFAF2E5CD7B8356CABC7 PUSH1 0x0 SHL PUSH2 0x8AC JUMP JUMPDEST PUSH2 0x935 PUSH32 0x9DF5568F613F1F598FA209A9C44A3E8E930A119FF855A6BDC5BD8147EEA5AC5D PUSH1 0x0 SHL PUSH2 0x8AC JUMP JUMPDEST PUSH1 0x1 PUSH1 0x0 DUP4 PUSH20 0xFFFFFFFFFFFFFFFFFFFFFFFFFFFFFFFFFFFFFFFF AND PUSH20 0xFFFFFFFFFFFFFFFFFFFFFFFFFFFFFFFFFFFFFFFF AND DUP2 MSTORE PUSH1 0x20 ADD SWAP1 DUP2 MSTORE PUSH1 0x20 ADD PUSH1 0x0 KECCAK256 PUSH1 0x0 SWAP1 SLOAD SWAP1 PUSH2 0x100 EXP SWAP1 DIV PUSH1 0xFF AND SWAP1 POP SWAP2 SWAP1 POP JUMP JUMPDEST PUSH2 0x9B5 PUSH32 0x69720F7D8750C3DB5D0F7829A41F5A26BAFD40E148A1E4D5678EC378C960F9BC PUSH1 0x0 SHL PUSH2 0x8AC JUMP JUMPDEST PUSH2 0x9E1 PUSH32 0xC4E51AB5AB250A134A6E528047C8268AD0CF2CFE0CBC4EC89FE005AFC88B91C PUSH1 0x0 SHL PUSH2 0x8AC JUMP JUMPDEST PUSH2 0xA0D PUSH32 0xFC5E08E3675420D134AC48C459A45E0CFE67BCA9C6C2F79C1A12082B6BB16595 PUSH1 0x0 SHL PUSH2 0x8AC JUMP JUMPDEST PUSH1 0x1 DUP1 PUSH1 0x0 DUP4 PUSH20 0xFFFFFFFFFFFFFFFFFFFFFFFFFFFFFFFFFFFFFFFF AND PUSH20 0xFFFFFFFFFFFFFFFFFFFFFFFFFFFFFFFFFFFFFFFF AND DUP2 MSTORE PUSH1 0x20 ADD SWAP1 DUP2 MSTORE PUSH1 0x20 ADD PUSH1 0x0 KECCAK256 PUSH1 0x0 PUSH2 0x100 EXP DUP2 SLOAD DUP2 PUSH1 0xFF MUL NOT AND SWAP1 DUP4 ISZERO ISZERO MUL OR SWAP1 SSTORE POP POP JUMP JUMPDEST PUSH1 0x0 DUP2 CALLDATALOAD SWAP1 POP PUSH2 0xA76 DUP2 PUSH2 0xBF0 JUMP JUMPDEST SWAP3 SWAP2 POP POP JUMP JUMPDEST PUSH1 0x0 DUP2 CALLDATALOAD SWAP1 POP PUSH2 0xA8B DUP2 PUSH2 0xC07 JUMP JUMPDEST SWAP3 SWAP2 POP POP JUMP JUMPDEST PUSH1 0x0 PUSH1 0x20 DUP3 DUP5 SUB SLT ISZERO PUSH2 0xAA3 JUMPI PUSH1 0x0 DUP1 REVERT JUMPDEST PUSH1 0x0 PUSH2 0xAB1 DUP5 DUP3 DUP6 ADD PUSH2 0xA67 JUMP JUMPDEST SWAP2 POP POP SWAP3 SWAP2 POP POP JUMP JUMPDEST PUSH1 0x0 PUSH1 0x20 DUP3 DUP5 SUB SLT ISZERO PUSH2 0xACC JUMPI PUSH1 0x0 DUP1 REVERT JUMPDEST PUSH1 0x0 PUSH2 0xADA DUP5 DUP3 DUP6 ADD PUSH2 0xA7C JUMP JUMPDEST SWAP2 POP POP SWAP3 SWAP2 POP POP JUMP JUMPDEST PUSH2 0xAEC DUP2 PUSH2 0xBA8 JUMP JUMPDEST DUP3 MSTORE POP POP JUMP JUMPDEST PUSH2 0xAFB DUP2 PUSH2 0xBBA JUMP JUMPDEST DUP3 MSTORE POP POP JUMP JUMPDEST PUSH1 0x0 PUSH2 0xB0E PUSH1 0x10 DUP4 PUSH2 0xB97 JUMP JUMPDEST SWAP2 POP PUSH32 0x53656E646572206E6F74206F776E657200000000000000000000000000000000 PUSH1 0x0 DUP4 ADD MSTORE PUSH1 0x20 DUP3 ADD SWAP1 POP SWAP2 SWAP1 POP JUMP JUMPDEST PUSH1 0x0 PUSH1 0x20 DUP3 ADD SWAP1 POP PUSH2 0xB56 PUSH1 0x0 DUP4 ADD DUP5 PUSH2 0xAE3 JUMP JUMPDEST SWAP3 SWAP2 POP POP JUMP JUMPDEST PUSH1 0x0 PUSH1 0x20 DUP3 ADD SWAP1 POP PUSH2 0xB71 PUSH1 0x0 DUP4 ADD DUP5 PUSH2 0xAF2 JUMP JUMPDEST SWAP3 SWAP2 POP POP JUMP JUMPDEST PUSH1 0x0 PUSH1 0x20 DUP3 ADD SWAP1 POP DUP2 DUP2 SUB PUSH1 0x0 DUP4 ADD MSTORE PUSH2 0xB90 DUP2 PUSH2 0xB01 JUMP JUMPDEST SWAP1 POP SWAP2 SWAP1 POP JUMP JUMPDEST PUSH1 0x0 DUP3 DUP3 MSTORE PUSH1 0x20 DUP3 ADD SWAP1 POP SWAP3 SWAP2 POP POP JUMP JUMPDEST PUSH1 0x0 PUSH2 0xBB3 DUP3 PUSH2 0xBD0 JUMP JUMPDEST SWAP1 POP SWAP2 SWAP1 POP JUMP JUMPDEST PUSH1 0x0 DUP2 ISZERO ISZERO SWAP1 POP SWAP2 SWAP1 POP JUMP JUMPDEST PUSH1 0x0 DUP2 SWAP1 POP SWAP2 SWAP1 POP JUMP JUMPDEST PUSH1 0x0 PUSH20 0xFFFFFFFFFFFFFFFFFFFFFFFFFFFFFFFFFFFFFFFF DUP3 AND SWAP1 POP SWAP2 SWAP1 POP JUMP JUMPDEST PUSH2 0xBF9 DUP2 PUSH2 0xBA8 JUMP JUMPDEST DUP2 EQ PUSH2 0xC04 JUMPI PUSH1 0x0 DUP1 REVERT JUMPDEST POP JUMP JUMPDEST PUSH2 0xC10 DUP2 PUSH2 0xBC6 JUMP JUMPDEST DUP2 EQ PUSH2 0xC1B JUMPI PUSH1 0x0 DUP1 REVERT JUMPDEST POP JUMP INVALID LOG2 PUSH5 0x6970667358 0x22 SLT KECCAK256 SDIV SWAP5 0xAE SAR 0xF REVERT ADDRESS 0xF7 NOT SWAP3 0xB5 0xD5 PUSH23 0xFEBAF9537CB1F9CB38D8228FE98EF4C4CBAF6E64736F6C PUSH4 0x43000800 STOP CALLER "
        },
        "methodIdentifiers": {
          "authorize(address)": "b6a5d7de",
          "authorized(address)": "b9181611",
          "c_0x4b728764(bytes32)": "e27b5833",
          "deauthorize(address)": "27c97fa5",
          "isAuthorized(address)": "fe9fbb80",
          "owner()": "8da5cb5b",
          "setOwner(address)": "13af4035"
        }
      }
    }
  }
}