{
  "contracts/libraries/SponsorWhitelistControl.sol": {
    "SponsorWhitelistControl": {
      "abi": [
        {
          "inputs": [
            {
              "internalType": "address[]",
              "name": "",
              "type": "address[]"
            }
          ],
          "name": "addPrivilege",
          "outputs": [],
          "stateMutability": "nonpayable",
          "type": "function"
        },
        {
          "inputs": [
            {
              "internalType": "address",
              "name": "contractAddr",
              "type": "address"
            },
            {
              "internalType": "address[]",
              "name": "addresses",
              "type": "address[]"
            }
          ],
          "name": "addPrivilegeByAdmin",
          "outputs": [],
          "stateMutability": "nonpayable",
          "type": "function"
        },
        {
          "inputs": [
            {
              "internalType": "bytes32",
              "name": "c__0x2de1b871",
              "type": "bytes32"
            }
          ],
          "name": "c_0x2de1b871",
          "outputs": [],
          "stateMutability": "pure",
          "type": "function"
        },
        {
          "inputs": [
            {
              "internalType": "address",
              "name": "contractAddr",
              "type": "address"
            }
          ],
          "name": "getSponsorForCollateral",
          "outputs": [
            {
              "internalType": "address",
              "name": "",
              "type": "address"
            }
          ],
          "stateMutability": "view",
          "type": "function"
        },
        {
          "inputs": [
            {
              "internalType": "address",
              "name": "contractAddr",
              "type": "address"
            }
          ],
          "name": "getSponsorForGas",
          "outputs": [
            {
              "internalType": "address",
              "name": "",
              "type": "address"
            }
          ],
          "stateMutability": "view",
          "type": "function"
        },
        {
          "inputs": [
            {
              "internalType": "address",
              "name": "contractAddr",
              "type": "address"
            }
          ],
          "name": "getSponsoredBalanceForCollateral",
          "outputs": [
            {
              "internalType": "uint256",
              "name": "",
              "type": "uint256"
            }
          ],
          "stateMutability": "view",
          "type": "function"
        },
        {
          "inputs": [
            {
              "internalType": "address",
              "name": "contractAddr",
              "type": "address"
            }
          ],
          "name": "getSponsoredBalanceForGas",
          "outputs": [
            {
              "internalType": "uint256",
              "name": "",
              "type": "uint256"
            }
          ],
          "stateMutability": "view",
          "type": "function"
        },
        {
          "inputs": [
            {
              "internalType": "address",
              "name": "contractAddr",
              "type": "address"
            }
          ],
          "name": "getSponsoredGasFeeUpperBound",
          "outputs": [
            {
              "internalType": "uint256",
              "name": "",
              "type": "uint256"
            }
          ],
          "stateMutability": "view",
          "type": "function"
        },
        {
          "inputs": [
            {
              "internalType": "address",
              "name": "contractAddr",
              "type": "address"
            }
          ],
          "name": "isAllWhitelisted",
          "outputs": [
            {
              "internalType": "bool",
              "name": "",
              "type": "bool"
            }
          ],
          "stateMutability": "view",
          "type": "function"
        },
        {
          "inputs": [
            {
              "internalType": "address",
              "name": "contractAddr",
              "type": "address"
            },
            {
              "internalType": "address",
              "name": "user",
              "type": "address"
            }
          ],
          "name": "isWhitelisted",
          "outputs": [
            {
              "internalType": "bool",
              "name": "",
              "type": "bool"
            }
          ],
          "stateMutability": "view",
          "type": "function"
        },
        {
          "inputs": [
            {
              "internalType": "address[]",
              "name": "",
              "type": "address[]"
            }
          ],
          "name": "removePrivilege",
          "outputs": [],
          "stateMutability": "nonpayable",
          "type": "function"
        },
        {
          "inputs": [
            {
              "internalType": "address",
              "name": "contractAddr",
              "type": "address"
            },
            {
              "internalType": "address[]",
              "name": "addresses",
              "type": "address[]"
            }
          ],
          "name": "removePrivilegeByAdmin",
          "outputs": [],
          "stateMutability": "nonpayable",
          "type": "function"
        },
        {
          "inputs": [
            {
              "internalType": "address",
              "name": "contractAddr",
              "type": "address"
            }
          ],
          "name": "setSponsorForCollateral",
          "outputs": [],
          "stateMutability": "payable",
          "type": "function"
        },
        {
          "inputs": [
            {
              "internalType": "address",
              "name": "contractAddr",
              "type": "address"
            },
            {
              "internalType": "uint256",
              "name": "upperBound",
              "type": "uint256"
            }
          ],
          "name": "setSponsorForGas",
          "outputs": [],
          "stateMutability": "payable",
          "type": "function"
        }
      ],
      "evm": {
        "bytecode": {
          "linkReferences": {},
          "object": "608060405234801561001057600080fd5b50610a23806100206000396000f3fe6080604052600436106100dd5760003560e01c8063b3b28fac1161007f578063d47e9a5711610059578063d47e9a57146102d3578063d665f9dd14610310578063e66c1bea1461034d578063ea1e882b14610369576100dd565b8063b3b28fac14610230578063b6b352721461026d578063d2932db6146102aa576100dd565b806333a1af31116100bb57806333a1af311461015d5780633e3e64281461019a57806379b47faa146101b65780638382c3a7146101f3576100dd565b806310128d3e146100e2578063217e055b1461010b57806322effe8414610134575b600080fd5b3480156100ee57600080fd5b50610109600480360381019061010491906107e2565b610392565b005b34801561011757600080fd5b50610132600480360381019061012d9190610752565b6103c1565b005b34801561014057600080fd5b5061015b60048036038101906101569190610752565b6103f1565b005b34801561016957600080fd5b50610184600480360381019061017f91906106ed565b610421565b6040516101919190610879565b60405180910390f35b6101b460048036038101906101af91906107a6565b610454565b005b3480156101c257600080fd5b506101dd60048036038101906101d891906106ed565b610484565b6040516101ea9190610894565b60405180910390f35b3480156101ff57600080fd5b5061021a600480360381019061021591906106ed565b6104b7565b6040516102279190610879565b60405180910390f35b34801561023c57600080fd5b50610257600480360381019061025291906106ed565b6104ea565b60405161026491906108af565b60405180910390f35b34801561027957600080fd5b50610294600480360381019061028f9190610716565b61051d565b6040516102a19190610894565b60405180910390f35b3480156102b657600080fd5b506102d160048036038101906102cc91906107e2565b610551565b005b3480156102df57600080fd5b506102fa60048036038101906102f591906106ed565b610580565b60405161030791906108af565b60405180910390f35b34801561031c57600080fd5b50610337600480360381019061033291906106ed565b6105b3565b60405161034491906108af565b60405180910390f35b610367600480360381019061036291906106ed565b6105e6565b005b34801561037557600080fd5b50610390600480360381019061038b9190610823565b610615565b005b6103be7f607dcf830e92ffa023c1d2f3b79b736fc6ffa29df377a80c5798bfa5f627d9ad60001b610615565b50565b6103ed7fe3513bbee5d66693b50face2097649cce14028a0299ad00b32eb53661b87466060001b610615565b5050565b61041d7fe56cd90f745e748503656770048eef8bc7be6c1fd9170d9dbbdfa5c417dde1a460001b610615565b5050565b600061044f7f2d5cde38fa8db747abee1edce0c2a23f91f1ade30de9e1e007026e8b8212cb4660001b610615565b919050565b6104807fcb57fa0ceca4a7501b6d67569e4be6530f5e63869f8218b9f464f8c47055aa7460001b610615565b5050565b60006104b27fa62df9db57065a7bf7a4f0e3865f10cd5a3c0a619ce779d5e8bfa25a6eb39de860001b610615565b919050565b60006104e57f9c1b3250ad745e854f8ca90b79c723de2b0581b1356bc9dce2794b21a93da1d460001b610615565b919050565b60006105187f228833b9acbfa250addb2a35ebe5d046dfb47116387847bb1052a89c1dadbc2260001b610615565b919050565b600061054b7f41f511865e135a2ffbd3cb400a77d4e53872c469f6c8b49a1f7dbe3944bef55a60001b610615565b92915050565b61057d7fde210e062e48be021df089f102cc3a64fe6fce8410fbe554da31c87b3bb7eea960001b610615565b50565b60006105ae7fe0699cdcd658589a4345da8a7785f63cbc873be6959e0a5e45d5ef40a5880dff60001b610615565b919050565b60006105e17f883b891d00d91c2724fca0d4f8af48aa120dbff2be41b41e841ce2ba9a9092be60001b610615565b919050565b6106127f9ff44f11fa62868e2fe72f147455d7e43e517905de16efe8cdc98355633e0f6360001b610615565b50565b50565b600061062b610626846108fb565b6108ca565b9050808382526020820190508285602086028201111561064a57600080fd5b60005b8581101561067a57816106608882610684565b84526020840193506020830192505060018101905061064d565b5050509392505050565b600081359050610693816109a8565b92915050565b600082601f8301126106aa57600080fd5b81356106ba848260208601610618565b91505092915050565b6000813590506106d2816109bf565b92915050565b6000813590506106e7816109d6565b92915050565b6000602082840312156106ff57600080fd5b600061070d84828501610684565b91505092915050565b6000806040838503121561072957600080fd5b600061073785828601610684565b925050602061074885828601610684565b9150509250929050565b6000806040838503121561076557600080fd5b600061077385828601610684565b925050602083013567ffffffffffffffff81111561079057600080fd5b61079c85828601610699565b9150509250929050565b600080604083850312156107b957600080fd5b60006107c785828601610684565b92505060206107d8858286016106d8565b9150509250929050565b6000602082840312156107f457600080fd5b600082013567ffffffffffffffff81111561080e57600080fd5b61081a84828501610699565b91505092915050565b60006020828403121561083557600080fd5b6000610843848285016106c3565b91505092915050565b61085581610927565b82525050565b61086481610939565b82525050565b6108738161096f565b82525050565b600060208201905061088e600083018461084c565b92915050565b60006020820190506108a9600083018461085b565b92915050565b60006020820190506108c4600083018461086a565b92915050565b6000604051905081810181811067ffffffffffffffff821117156108f1576108f0610979565b5b8060405250919050565b600067ffffffffffffffff82111561091657610915610979565b5b602082029050602081019050919050565b60006109328261094f565b9050919050565b60008115159050919050565b6000819050919050565b600073ffffffffffffffffffffffffffffffffffffffff82169050919050565b6000819050919050565b7f4e487b7100000000000000000000000000000000000000000000000000000000600052604160045260246000fd5b6109b181610927565b81146109bc57600080fd5b50565b6109c881610945565b81146109d357600080fd5b50565b6109df8161096f565b81146109ea57600080fd5b5056fea2646970667358221220e412a629bbef879a297bd5a4ac71a8c2a6b64d6f05b2ebf92ea7274a954281b864736f6c63430008000033",
          "opcodes": "PUSH1 0x80 PUSH1 0x40 MSTORE CALLVALUE DUP1 ISZERO PUSH2 0x10 JUMPI PUSH1 0x0 DUP1 REVERT JUMPDEST POP PUSH2 0xA23 DUP1 PUSH2 0x20 PUSH1 0x0 CODECOPY PUSH1 0x0 RETURN INVALID PUSH1 0x80 PUSH1 0x40 MSTORE PUSH1 0x4 CALLDATASIZE LT PUSH2 0xDD JUMPI PUSH1 0x0 CALLDATALOAD PUSH1 0xE0 SHR DUP1 PUSH4 0xB3B28FAC GT PUSH2 0x7F JUMPI DUP1 PUSH4 0xD47E9A57 GT PUSH2 0x59 JUMPI DUP1 PUSH4 0xD47E9A57 EQ PUSH2 0x2D3 JUMPI DUP1 PUSH4 0xD665F9DD EQ PUSH2 0x310 JUMPI DUP1 PUSH4 0xE66C1BEA EQ PUSH2 0x34D JUMPI DUP1 PUSH4 0xEA1E882B EQ PUSH2 0x369 JUMPI PUSH2 0xDD JUMP JUMPDEST DUP1 PUSH4 0xB3B28FAC EQ PUSH2 0x230 JUMPI DUP1 PUSH4 0xB6B35272 EQ PUSH2 0x26D JUMPI DUP1 PUSH4 0xD2932DB6 EQ PUSH2 0x2AA JUMPI PUSH2 0xDD JUMP JUMPDEST DUP1 PUSH4 0x33A1AF31 GT PUSH2 0xBB JUMPI DUP1 PUSH4 0x33A1AF31 EQ PUSH2 0x15D JUMPI DUP1 PUSH4 0x3E3E6428 EQ PUSH2 0x19A JUMPI DUP1 PUSH4 0x79B47FAA EQ PUSH2 0x1B6 JUMPI DUP1 PUSH4 0x8382C3A7 EQ PUSH2 0x1F3 JUMPI PUSH2 0xDD JUMP JUMPDEST DUP1 PUSH4 0x10128D3E EQ PUSH2 0xE2 JUMPI DUP1 PUSH4 0x217E055B EQ PUSH2 0x10B JUMPI DUP1 PUSH4 0x22EFFE84 EQ PUSH2 0x134 JUMPI JUMPDEST PUSH1 0x0 DUP1 REVERT JUMPDEST CALLVALUE DUP1 ISZERO PUSH2 0xEE JUMPI PUSH1 0x0 DUP1 REVERT JUMPDEST POP PUSH2 0x109 PUSH1 0x4 DUP1 CALLDATASIZE SUB DUP2 ADD SWAP1 PUSH2 0x104 SWAP2 SWAP1 PUSH2 0x7E2 JUMP JUMPDEST PUSH2 0x392 JUMP JUMPDEST STOP JUMPDEST CALLVALUE DUP1 ISZERO PUSH2 0x117 JUMPI PUSH1 0x0 DUP1 REVERT JUMPDEST POP PUSH2 0x132 PUSH1 0x4 DUP1 CALLDATASIZE SUB DUP2 ADD SWAP1 PUSH2 0x12D SWAP2 SWAP1 PUSH2 0x752 JUMP JUMPDEST PUSH2 0x3C1 JUMP JUMPDEST STOP JUMPDEST CALLVALUE DUP1 ISZERO PUSH2 0x140 JUMPI PUSH1 0x0 DUP1 REVERT JUMPDEST POP PUSH2 0x15B PUSH1 0x4 DUP1 CALLDATASIZE SUB DUP2 ADD SWAP1 PUSH2 0x156 SWAP2 SWAP1 PUSH2 0x752 JUMP JUMPDEST PUSH2 0x3F1 JUMP JUMPDEST STOP JUMPDEST CALLVALUE DUP1 ISZERO PUSH2 0x169 JUMPI PUSH1 0x0 DUP1 REVERT JUMPDEST POP PUSH2 0x184 PUSH1 0x4 DUP1 CALLDATASIZE SUB DUP2 ADD SWAP1 PUSH2 0x17F SWAP2 SWAP1 PUSH2 0x6ED JUMP JUMPDEST PUSH2 0x421 JUMP JUMPDEST PUSH1 0x40 MLOAD PUSH2 0x191 SWAP2 SWAP1 PUSH2 0x879 JUMP JUMPDEST PUSH1 0x40 MLOAD DUP1 SWAP2 SUB SWAP1 RETURN JUMPDEST PUSH2 0x1B4 PUSH1 0x4 DUP1 CALLDATASIZE SUB DUP2 ADD SWAP1 PUSH2 0x1AF SWAP2 SWAP1 PUSH2 0x7A6 JUMP JUMPDEST PUSH2 0x454 JUMP JUMPDEST STOP JUMPDEST CALLVALUE DUP1 ISZERO PUSH2 0x1C2 JUMPI PUSH1 0x0 DUP1 REVERT JUMPDEST POP PUSH2 0x1DD PUSH1 0x4 DUP1 CALLDATASIZE SUB DUP2 ADD SWAP1 PUSH2 0x1D8 SWAP2 SWAP1 PUSH2 0x6ED JUMP JUMPDEST PUSH2 0x484 JUMP JUMPDEST PUSH1 0x40 MLOAD PUSH2 0x1EA SWAP2 SWAP1 PUSH2 0x894 JUMP JUMPDEST PUSH1 0x40 MLOAD DUP1 SWAP2 SUB SWAP1 RETURN JUMPDEST CALLVALUE DUP1 ISZERO PUSH2 0x1FF JUMPI PUSH1 0x0 DUP1 REVERT JUMPDEST POP PUSH2 0x21A PUSH1 0x4 DUP1 CALLDATASIZE SUB DUP2 ADD SWAP1 PUSH2 0x215 SWAP2 SWAP1 PUSH2 0x6ED JUMP JUMPDEST PUSH2 0x4B7 JUMP JUMPDEST PUSH1 0x40 MLOAD PUSH2 0x227 SWAP2 SWAP1 PUSH2 0x879 JUMP JUMPDEST PUSH1 0x40 MLOAD DUP1 SWAP2 SUB SWAP1 RETURN JUMPDEST CALLVALUE DUP1 ISZERO PUSH2 0x23C JUMPI PUSH1 0x0 DUP1 REVERT JUMPDEST POP PUSH2 0x257 PUSH1 0x4 DUP1 CALLDATASIZE SUB DUP2 ADD SWAP1 PUSH2 0x252 SWAP2 SWAP1 PUSH2 0x6ED JUMP JUMPDEST PUSH2 0x4EA JUMP JUMPDEST PUSH1 0x40 MLOAD PUSH2 0x264 SWAP2 SWAP1 PUSH2 0x8AF JUMP JUMPDEST PUSH1 0x40 MLOAD DUP1 SWAP2 SUB SWAP1 RETURN JUMPDEST CALLVALUE DUP1 ISZERO PUSH2 0x279 JUMPI PUSH1 0x0 DUP1 REVERT JUMPDEST POP PUSH2 0x294 PUSH1 0x4 DUP1 CALLDATASIZE SUB DUP2 ADD SWAP1 PUSH2 0x28F SWAP2 SWAP1 PUSH2 0x716 JUMP JUMPDEST PUSH2 0x51D JUMP JUMPDEST PUSH1 0x40 MLOAD PUSH2 0x2A1 SWAP2 SWAP1 PUSH2 0x894 JUMP JUMPDEST PUSH1 0x40 MLOAD DUP1 SWAP2 SUB SWAP1 RETURN JUMPDEST CALLVALUE DUP1 ISZERO PUSH2 0x2B6 JUMPI PUSH1 0x0 DUP1 REVERT JUMPDEST POP PUSH2 0x2D1 PUSH1 0x4 DUP1 CALLDATASIZE SUB DUP2 ADD SWAP1 PUSH2 0x2CC SWAP2 SWAP1 PUSH2 0x7E2 JUMP JUMPDEST PUSH2 0x551 JUMP JUMPDEST STOP JUMPDEST CALLVALUE DUP1 ISZERO PUSH2 0x2DF JUMPI PUSH1 0x0 DUP1 REVERT JUMPDEST POP PUSH2 0x2FA PUSH1 0x4 DUP1 CALLDATASIZE SUB DUP2 ADD SWAP1 PUSH2 0x2F5 SWAP2 SWAP1 PUSH2 0x6ED JUMP JUMPDEST PUSH2 0x580 JUMP JUMPDEST PUSH1 0x40 MLOAD PUSH2 0x307 SWAP2 SWAP1 PUSH2 0x8AF JUMP JUMPDEST PUSH1 0x40 MLOAD DUP1 SWAP2 SUB SWAP1 RETURN JUMPDEST CALLVALUE DUP1 ISZERO PUSH2 0x31C JUMPI PUSH1 0x0 DUP1 REVERT JUMPDEST POP PUSH2 0x337 PUSH1 0x4 DUP1 CALLDATASIZE SUB DUP2 ADD SWAP1 PUSH2 0x332 SWAP2 SWAP1 PUSH2 0x6ED JUMP JUMPDEST PUSH2 0x5B3 JUMP JUMPDEST PUSH1 0x40 MLOAD PUSH2 0x344 SWAP2 SWAP1 PUSH2 0x8AF JUMP JUMPDEST PUSH1 0x40 MLOAD DUP1 SWAP2 SUB SWAP1 RETURN JUMPDEST PUSH2 0x367 PUSH1 0x4 DUP1 CALLDATASIZE SUB DUP2 ADD SWAP1 PUSH2 0x362 SWAP2 SWAP1 PUSH2 0x6ED JUMP JUMPDEST PUSH2 0x5E6 JUMP JUMPDEST STOP JUMPDEST CALLVALUE DUP1 ISZERO PUSH2 0x375 JUMPI PUSH1 0x0 DUP1 REVERT JUMPDEST POP PUSH2 0x390 PUSH1 0x4 DUP1 CALLDATASIZE SUB DUP2 ADD SWAP1 PUSH2 0x38B SWAP2 SWAP1 PUSH2 0x823 JUMP JUMPDEST PUSH2 0x615 JUMP JUMPDEST STOP JUMPDEST PUSH2 0x3BE PUSH32 0x607DCF830E92FFA023C1D2F3B79B736FC6FFA29DF377A80C5798BFA5F627D9AD PUSH1 0x0 SHL PUSH2 0x615 JUMP JUMPDEST POP JUMP JUMPDEST PUSH2 0x3ED PUSH32 0xE3513BBEE5D66693B50FACE2097649CCE14028A0299AD00B32EB53661B874660 PUSH1 0x0 SHL PUSH2 0x615 JUMP JUMPDEST POP POP JUMP JUMPDEST PUSH2 0x41D PUSH32 0xE56CD90F745E748503656770048EEF8BC7BE6C1FD9170D9DBBDFA5C417DDE1A4 PUSH1 0x0 SHL PUSH2 0x615 JUMP JUMPDEST POP POP JUMP JUMPDEST PUSH1 0x0 PUSH2 0x44F PUSH32 0x2D5CDE38FA8DB747ABEE1EDCE0C2A23F91F1ADE30DE9E1E007026E8B8212CB46 PUSH1 0x0 SHL PUSH2 0x615 JUMP JUMPDEST SWAP2 SWAP1 POP JUMP JUMPDEST PUSH2 0x480 PUSH32 0xCB57FA0CECA4A7501B6D67569E4BE6530F5E63869F8218B9F464F8C47055AA74 PUSH1 0x0 SHL PUSH2 0x615 JUMP JUMPDEST POP POP JUMP JUMPDEST PUSH1 0x0 PUSH2 0x4B2 PUSH32 0xA62DF9DB57065A7BF7A4F0E3865F10CD5A3C0A619CE779D5E8BFA25A6EB39DE8 PUSH1 0x0 SHL PUSH2 0x615 JUMP JUMPDEST SWAP2 SWAP1 POP JUMP JUMPDEST PUSH1 0x0 PUSH2 0x4E5 PUSH32 0x9C1B3250AD745E854F8CA90B79C723DE2B0581B1356BC9DCE2794B21A93DA1D4 PUSH1 0x0 SHL PUSH2 0x615 JUMP JUMPDEST SWAP2 SWAP1 POP JUMP JUMPDEST PUSH1 0x0 PUSH2 0x518 PUSH32 0x228833B9ACBFA250ADDB2A35EBE5D046DFB47116387847BB1052A89C1DADBC22 PUSH1 0x0 SHL PUSH2 0x615 JUMP JUMPDEST SWAP2 SWAP1 POP JUMP JUMPDEST PUSH1 0x0 PUSH2 0x54B PUSH32 0x41F511865E135A2FFBD3CB400A77D4E53872C469F6C8B49A1F7DBE3944BEF55A PUSH1 0x0 SHL PUSH2 0x615 JUMP JUMPDEST SWAP3 SWAP2 POP POP JUMP JUMPDEST PUSH2 0x57D PUSH32 0xDE210E062E48BE021DF089F102CC3A64FE6FCE8410FBE554DA31C87B3BB7EEA9 PUSH1 0x0 SHL PUSH2 0x615 JUMP JUMPDEST POP JUMP JUMPDEST PUSH1 0x0 PUSH2 0x5AE PUSH32 0xE0699CDCD658589A4345DA8A7785F63CBC873BE6959E0A5E45D5EF40A5880DFF PUSH1 0x0 SHL PUSH2 0x615 JUMP JUMPDEST SWAP2 SWAP1 POP JUMP JUMPDEST PUSH1 0x0 PUSH2 0x5E1 PUSH32 0x883B891D00D91C2724FCA0D4F8AF48AA120DBFF2BE41B41E841CE2BA9A9092BE PUSH1 0x0 SHL PUSH2 0x615 JUMP JUMPDEST SWAP2 SWAP1 POP JUMP JUMPDEST PUSH2 0x612 PUSH32 0x9FF44F11FA62868E2FE72F147455D7E43E517905DE16EFE8CDC98355633E0F63 PUSH1 0x0 SHL PUSH2 0x615 JUMP JUMPDEST POP JUMP JUMPDEST POP JUMP JUMPDEST PUSH1 0x0 PUSH2 0x62B PUSH2 0x626 DUP5 PUSH2 0x8FB JUMP JUMPDEST PUSH2 0x8CA JUMP JUMPDEST SWAP1 POP DUP1 DUP4 DUP3 MSTORE PUSH1 0x20 DUP3 ADD SWAP1 POP DUP3 DUP6 PUSH1 0x20 DUP7 MUL DUP3 ADD GT ISZERO PUSH2 0x64A JUMPI PUSH1 0x0 DUP1 REVERT JUMPDEST PUSH1 0x0 JUMPDEST DUP6 DUP2 LT ISZERO PUSH2 0x67A JUMPI DUP2 PUSH2 0x660 DUP9 DUP3 PUSH2 0x684 JUMP JUMPDEST DUP5 MSTORE PUSH1 0x20 DUP5 ADD SWAP4 POP PUSH1 0x20 DUP4 ADD SWAP3 POP POP PUSH1 0x1 DUP2 ADD SWAP1 POP PUSH2 0x64D JUMP JUMPDEST POP POP POP SWAP4 SWAP3 POP POP POP JUMP JUMPDEST PUSH1 0x0 DUP2 CALLDATALOAD SWAP1 POP PUSH2 0x693 DUP2 PUSH2 0x9A8 JUMP JUMPDEST SWAP3 SWAP2 POP POP JUMP JUMPDEST PUSH1 0x0 DUP3 PUSH1 0x1F DUP4 ADD SLT PUSH2 0x6AA JUMPI PUSH1 0x0 DUP1 REVERT JUMPDEST DUP2 CALLDATALOAD PUSH2 0x6BA DUP5 DUP3 PUSH1 0x20 DUP7 ADD PUSH2 0x618 JUMP JUMPDEST SWAP2 POP POP SWAP3 SWAP2 POP POP JUMP JUMPDEST PUSH1 0x0 DUP2 CALLDATALOAD SWAP1 POP PUSH2 0x6D2 DUP2 PUSH2 0x9BF JUMP JUMPDEST SWAP3 SWAP2 POP POP JUMP JUMPDEST PUSH1 0x0 DUP2 CALLDATALOAD SWAP1 POP PUSH2 0x6E7 DUP2 PUSH2 0x9D6 JUMP JUMPDEST SWAP3 SWAP2 POP POP JUMP JUMPDEST PUSH1 0x0 PUSH1 0x20 DUP3 DUP5 SUB SLT ISZERO PUSH2 0x6FF JUMPI PUSH1 0x0 DUP1 REVERT JUMPDEST PUSH1 0x0 PUSH2 0x70D DUP5 DUP3 DUP6 ADD PUSH2 0x684 JUMP JUMPDEST SWAP2 POP POP SWAP3 SWAP2 POP POP JUMP JUMPDEST PUSH1 0x0 DUP1 PUSH1 0x40 DUP4 DUP6 SUB SLT ISZERO PUSH2 0x729 JUMPI PUSH1 0x0 DUP1 REVERT JUMPDEST PUSH1 0x0 PUSH2 0x737 DUP6 DUP3 DUP7 ADD PUSH2 0x684 JUMP JUMPDEST SWAP3 POP POP PUSH1 0x20 PUSH2 0x748 DUP6 DUP3 DUP7 ADD PUSH2 0x684 JUMP JUMPDEST SWAP2 POP POP SWAP3 POP SWAP3 SWAP1 POP JUMP JUMPDEST PUSH1 0x0 DUP1 PUSH1 0x40 DUP4 DUP6 SUB SLT ISZERO PUSH2 0x765 JUMPI PUSH1 0x0 DUP1 REVERT JUMPDEST PUSH1 0x0 PUSH2 0x773 DUP6 DUP3 DUP7 ADD PUSH2 0x684 JUMP JUMPDEST SWAP3 POP POP PUSH1 0x20 DUP4 ADD CALLDATALOAD PUSH8 0xFFFFFFFFFFFFFFFF DUP2 GT ISZERO PUSH2 0x790 JUMPI PUSH1 0x0 DUP1 REVERT JUMPDEST PUSH2 0x79C DUP6 DUP3 DUP7 ADD PUSH2 0x699 JUMP JUMPDEST SWAP2 POP POP SWAP3 POP SWAP3 SWAP1 POP JUMP JUMPDEST PUSH1 0x0 DUP1 PUSH1 0x40 DUP4 DUP6 SUB SLT ISZERO PUSH2 0x7B9 JUMPI PUSH1 0x0 DUP1 REVERT JUMPDEST PUSH1 0x0 PUSH2 0x7C7 DUP6 DUP3 DUP7 ADD PUSH2 0x684 JUMP JUMPDEST SWAP3 POP POP PUSH1 0x20 PUSH2 0x7D8 DUP6 DUP3 DUP7 ADD PUSH2 0x6D8 JUMP JUMPDEST SWAP2 POP POP SWAP3 POP SWAP3 SWAP1 POP JUMP JUMPDEST PUSH1 0x0 PUSH1 0x20 DUP3 DUP5 SUB SLT ISZERO PUSH2 0x7F4 JUMPI PUSH1 0x0 DUP1 REVERT JUMPDEST PUSH1 0x0 DUP3 ADD CALLDATALOAD PUSH8 0xFFFFFFFFFFFFFFFF DUP2 GT ISZERO PUSH2 0x80E JUMPI PUSH1 0x0 DUP1 REVERT JUMPDEST PUSH2 0x81A DUP5 DUP3 DUP6 ADD PUSH2 0x699 JUMP JUMPDEST SWAP2 POP POP SWAP3 SWAP2 POP POP JUMP JUMPDEST PUSH1 0x0 PUSH1 0x20 DUP3 DUP5 SUB SLT ISZERO PUSH2 0x835 JUMPI PUSH1 0x0 DUP1 REVERT JUMPDEST PUSH1 0x0 PUSH2 0x843 DUP5 DUP3 DUP6 ADD PUSH2 0x6C3 JUMP JUMPDEST SWAP2 POP POP SWAP3 SWAP2 POP POP JUMP JUMPDEST PUSH2 0x855 DUP2 PUSH2 0x927 JUMP JUMPDEST DUP3 MSTORE POP POP JUMP JUMPDEST PUSH2 0x864 DUP2 PUSH2 0x939 JUMP JUMPDEST DUP3 MSTORE POP POP JUMP JUMPDEST PUSH2 0x873 DUP2 PUSH2 0x96F JUMP JUMPDEST DUP3 MSTORE POP POP JUMP JUMPDEST PUSH1 0x0 PUSH1 0x20 DUP3 ADD SWAP1 POP PUSH2 0x88E PUSH1 0x0 DUP4 ADD DUP5 PUSH2 0x84C JUMP JUMPDEST SWAP3 SWAP2 POP POP JUMP JUMPDEST PUSH1 0x0 PUSH1 0x20 DUP3 ADD SWAP1 POP PUSH2 0x8A9 PUSH1 0x0 DUP4 ADD DUP5 PUSH2 0x85B JUMP JUMPDEST SWAP3 SWAP2 POP POP JUMP JUMPDEST PUSH1 0x0 PUSH1 0x20 DUP3 ADD SWAP1 POP PUSH2 0x8C4 PUSH1 0x0 DUP4 ADD DUP5 PUSH2 0x86A JUMP JUMPDEST SWAP3 SWAP2 POP POP JUMP JUMPDEST PUSH1 0x0 PUSH1 0x40 MLOAD SWAP1 POP DUP2 DUP2 ADD DUP2 DUP2 LT PUSH8 0xFFFFFFFFFFFFFFFF DUP3 GT OR ISZERO PUSH2 0x8F1 JUMPI PUSH2 0x8F0 PUSH2 0x979 JUMP JUMPDEST JUMPDEST DUP1 PUSH1 0x40 MSTORE POP SWAP2 SWAP1 POP JUMP JUMPDEST PUSH1 0x0 PUSH8 0xFFFFFFFFFFFFFFFF DUP3 GT ISZERO PUSH2 0x916 JUMPI PUSH2 0x915 PUSH2 0x979 JUMP JUMPDEST JUMPDEST PUSH1 0x20 DUP3 MUL SWAP1 POP PUSH1 0x20 DUP2 ADD SWAP1 POP SWAP2 SWAP1 POP JUMP JUMPDEST PUSH1 0x0 PUSH2 0x932 DUP3 PUSH2 0x94F JUMP JUMPDEST SWAP1 POP SWAP2 SWAP1 POP JUMP JUMPDEST PUSH1 0x0 DUP2 ISZERO ISZERO SWAP1 POP SWAP2 SWAP1 POP JUMP JUMPDEST PUSH1 0x0 DUP2 SWAP1 POP SWAP2 SWAP1 POP JUMP JUMPDEST PUSH1 0x0 PUSH20 0xFFFFFFFFFFFFFFFFFFFFFFFFFFFFFFFFFFFFFFFF DUP3 AND SWAP1 POP SWAP2 SWAP1 POP JUMP JUMPDEST PUSH1 0x0 DUP2 SWAP1 POP SWAP2 SWAP1 POP JUMP JUMPDEST PUSH32 0x4E487B7100000000000000000000000000000000000000000000000000000000 PUSH1 0x0 MSTORE PUSH1 0x41 PUSH1 0x4 MSTORE PUSH1 0x24 PUSH1 0x0 REVERT JUMPDEST PUSH2 0x9B1 DUP2 PUSH2 0x927 JUMP JUMPDEST DUP2 EQ PUSH2 0x9BC JUMPI PUSH1 0x0 DUP1 REVERT JUMPDEST POP JUMP JUMPDEST PUSH2 0x9C8 DUP2 PUSH2 0x945 JUMP JUMPDEST DUP2 EQ PUSH2 0x9D3 JUMPI PUSH1 0x0 DUP1 REVERT JUMPDEST POP JUMP JUMPDEST PUSH2 0x9DF DUP2 PUSH2 0x96F JUMP JUMPDEST DUP2 EQ PUSH2 0x9EA JUMPI PUSH1 0x0 DUP1 REVERT JUMPDEST POP JUMP INVALID LOG2 PUSH5 0x6970667358 0x22 SLT KECCAK256 0xE4 SLT 0xA6 0x29 0xBB 0xEF DUP8 SWAP11 0x29 PUSH28 0xD5A4AC71A8C2A6B64D6F05B2EBF92EA7274A954281B864736F6C6343 STOP ADDMOD STOP STOP CALLER "
        },
        "methodIdentifiers": {
          "addPrivilege(address[])": "10128d3e",
          "addPrivilegeByAdmin(address,address[])": "22effe84",
          "c_0x2de1b871(bytes32)": "ea1e882b",
          "getSponsorForCollateral(address)": "8382c3a7",
          "getSponsorForGas(address)": "33a1af31",
          "getSponsoredBalanceForCollateral(address)": "d47e9a57",
          "getSponsoredBalanceForGas(address)": "b3b28fac",
          "getSponsoredGasFeeUpperBound(address)": "d665f9dd",
          "isAllWhitelisted(address)": "79b47faa",
          "isWhitelisted(address,address)": "b6b35272",
          "removePrivilege(address[])": "d2932db6",
          "removePrivilegeByAdmin(address,address[])": "217e055b",
          "setSponsorForCollateral(address)": "e66c1bea",
          "setSponsorForGas(address,uint256)": "3e3e6428"
        }
      }
    }
  }
}