{
  "_format": "hh-sol-artifact-1",
  "contractName": "SignaturesValidatorMock",
  "sourceName": "contracts/balancer-core-v2/test/lib/SignaturesValidatorMock.sol",
  "abi": [
    {
      "inputs": [],
      "stateMutability": "nonpayable",
      "type": "constructor"
    },
    {
      "anonymous": false,
      "inputs": [
        {
          "indexed": false,
          "internalType": "address",
          "name": "user",
          "type": "address"
        },
        {
          "indexed": false,
          "internalType": "address",
          "name": "sender",
          "type": "address"
        }
      ],
      "name": "Authenticated",
      "type": "event"
    },
    {
      "anonymous": false,
      "inputs": [
        {
          "indexed": false,
          "internalType": "bytes",
          "name": "data",
          "type": "bytes"
        },
        {
          "indexed": false,
          "internalType": "uint256",
          "name": "deadline",
          "type": "uint256"
        },
        {
          "indexed": false,
          "internalType": "uint8",
          "name": "v",
          "type": "uint8"
        },
        {
          "indexed": false,
          "internalType": "bytes32",
          "name": "r",
          "type": "bytes32"
        },
        {
          "indexed": false,
          "internalType": "bytes32",
          "name": "s",
          "type": "bytes32"
        }
      ],
      "name": "CalldataDecoded",
      "type": "event"
    },
    {
      "inputs": [
        {
          "internalType": "address",
          "name": "user",
          "type": "address"
        }
      ],
      "name": "anotherFunction",
      "outputs": [],
      "stateMutability": "nonpayable",
      "type": "function"
    },
    {
      "inputs": [
        {
          "internalType": "address",
          "name": "user",
          "type": "address"
        }
      ],
      "name": "authenticateCall",
      "outputs": [],
      "stateMutability": "nonpayable",
      "type": "function"
    },
    {
      "inputs": [
        {
          "internalType": "bytes32",
          "name": "c__0x4e4bf807",
          "type": "bytes32"
        }
      ],
      "name": "c_0x4e4bf807",
      "outputs": [],
      "stateMutability": "pure",
      "type": "function"
    },
    {
      "inputs": [
        {
          "internalType": "bytes32",
          "name": "c__0x5726d168",
          "type": "bytes32"
        }
      ],
      "name": "c_0x5726d168",
      "outputs": [],
      "stateMutability": "pure",
      "type": "function"
    },
    {
      "inputs": [
        {
          "internalType": "bytes32",
          "name": "c__0xc3d2df53",
          "type": "bytes32"
        }
      ],
      "name": "c_0xc3d2df53",
      "outputs": [],
      "stateMutability": "pure",
      "type": "function"
    },
    {
      "inputs": [],
      "name": "decodeCalldata",
      "outputs": [],
      "stateMutability": "nonpayable",
      "type": "function"
    },
    {
      "inputs": [],
      "name": "getDomainSeparator",
      "outputs": [
        {
          "internalType": "bytes32",
          "name": "",
          "type": "bytes32"
        }
      ],
      "stateMutability": "view",
      "type": "function"
    },
    {
      "inputs": [
        {
          "internalType": "address",
          "name": "user",
          "type": "address"
        }
      ],
      "name": "getNextNonce",
      "outputs": [
        {
          "internalType": "uint256",
          "name": "",
          "type": "uint256"
        }
      ],
      "stateMutability": "view",
      "type": "function"
    },
    {
      "inputs": [
        {
          "internalType": "address",
          "name": "user",
          "type": "address"
        }
      ],
      "name": "increaseNonce",
      "outputs": [],
      "stateMutability": "nonpayable",
      "type": "function"
    }
  ],
  "bytecode": "0x6101006040527f088e910861b9d0ac056c32bb5d44fcdd155bbfa025bdca87c7390e174ac6179560e0908152503480156200003957600080fd5b506040518060400160405280601181526020017f42616c616e636572205632205661756c74000000000000000000000000000000815250806040518060400160405280600181526020017f3100000000000000000000000000000000000000000000000000000000000000815250620000db7fee98174f2fec6f5039773d74e605ef9eca5c1cd66e97227a4db2801fa44649d460001b620002ca60201b60201c565b6200010f7f4259111439657f52cad82bf951b84cb17ad89c9a75c0a453b11471980df5b70460001b620002ca60201b60201c565b620001437f694727719f1c716e137bf99300414ab3971da34628c5fdb5e3aefb346ab250cd60001b620002ca60201b60201c565b818051906020012060808181525050620001867fc80ca99f8a52e2364dede2f196e5eea0d3e5cbb3d39b3c583eabdce5b2eba33860001b620002ca60201b60201c565b620001ba7fd79623f57f644f5deaf66895ac05cf4d0efe2db6dc309aa7731ca0cce6c6c42060001b620002ca60201b60201c565b808051906020012060a08181525050620001fd7f3595ce0dcb0082ced7c03525364c4e77b55c5765b539ff680b322eb52d68007860001b620002ca60201b60201c565b620002317fce462f00afa59e5231a71f65b788fd6e74c839c46485038b23c5240219a6728160001b620002ca60201b60201c565b7f8b73c3c69bb8fe3d512ecc4cf759cc79239f7b179b0ffacaa9a75d522b39400f60c0818152505050506200028f7f5fa87abe67f1e9a5765844bec3c9b4c503de2e7d3686de53ba2ab881ec65715e60001b620002cd60201b60201c565b50620002c47fb4aeeaa14a3f0f0ca52437d610ea80dde4f076358848120de983c5e9fca59d1160001b620002d060201b60201c565b620002d3565b50565b50565b50565b60805160a05160c05160e0516118b06200030960003980611693525080610a8f525080610ad1525080610ab052506118b06000f3fe608060405234801561001057600080fd5b50600436106100a35760003560e01c806394df26d611610076578063e8554c7b1161005b578063e8554c7b14610204578063ed24911d14610232578063ef128f2114610250576100a3565b806394df26d6146101cc578063c27f8169146101d6576100a3565b806325e51185146100a857806378ea7ae7146100ec5780638247a97c1461013057806390193b7c14610174575b600080fd5b6100ea600480360360208110156100be57600080fd5b81019080803573ffffffffffffffffffffffffffffffffffffffff16906020019092919050505061027e565b005b61012e6004803603602081101561010257600080fd5b81019080803573ffffffffffffffffffffffffffffffffffffffff169060200190929190505050610434565b005b6101726004803603602081101561014657600080fd5b81019080803573ffffffffffffffffffffffffffffffffffffffff169060200190929190505050610463565b005b6101b66004803603602081101561018a57600080fd5b81019080803573ffffffffffffffffffffffffffffffffffffffff16906020019092919050505061050c565b6040518082815260200191505060405180910390f35b6101d46105d8565b005b610202600480360360208110156101ec57600080fd5b8101908080359060200190929190505050610666565b005b6102306004803603602081101561021a57600080fd5b8101908080359060200190929190505050610669565b005b61023a61066c565b6040518082815260200191505060405180910390f35b61027c6004803603602081101561026657600080fd5b81019080803590602001909291905050506106fe565b005b6102aa7fb60563ab674c1bb650bd2ca9fc0f786a60cd429ca236cadca1c3cdb65a9600e460001b610669565b6102d67f92d5aac17ac1773a26e3353969d4b69b1ad7ad3d423bfe2b2f6f915d8a2e05f460001b610669565b6103027f474241510c7324d5274d312e61aa9b7fdec299154b2dc26cf9db105d6cce64e660001b610669565b61030e816101f8610701565b61033a7f62487bb1f0f60ecff5af471f9684328511ac07a3effd42534abcb7c8ccac7b4b60001b610669565b6103667fa3003a4ff661207cbf1a66dc229c74a04560ee31ac1eab48986ae1a909da721f60001b610669565b61036e610846565b61039a7f4aadff09ed993115cb1a026f803eea5e4457bff3102c073e3108141514a8720b60001b610669565b6103c67f106047c966f3a7076db99f44f3438379ddb33c7301087754c426d3752cc514bf60001b610669565b7fd42c368decf104a7572c7884ea7028fe04ef7d3e76dbd706484f9175d6c4ec628133604051808373ffffffffffffffffffffffffffffffffffffffff1681526020018273ffffffffffffffffffffffffffffffffffffffff1681526020019250505060405180910390a150565b6104607f952112d90193ff317c0e345e2f4c1358488b94d38d2b2dcf93a8cb7a196d551d60001b610669565b50565b61048f7fbd4eb58611fe5b1e99044915cd3cbc58e5b48c455395fc67c153215bc9d6a6fa60001b610669565b6104bb7f3db38620c39b39522749645ffd31e062f87a757cdf84d738af8b9aa2b000ce1660001b610669565b6000808273ffffffffffffffffffffffffffffffffffffffff1673ffffffffffffffffffffffffffffffffffffffff1681526020019081526020016000206000815480929190600101919050555050565b600061053a7f43d3be98a9970c0af43a6584c8f40ea5bf6763cd1362cd61fa6fbcf30be749ba60001b6106fe565b6105667f676326ca499a20adfe57e5c14d00a1dab2efbdc9a3867c4ddf4f419c56a6b0a360001b6106fe565b6105927f71c56ed16121f0d7b661e9446322c6853cc113e272339c276fbc81c8a599d60260001b6106fe565b6000808373ffffffffffffffffffffffffffffffffffffffff1673ffffffffffffffffffffffffffffffffffffffff168152602001908152602001600020549050919050565b6106047f1c15507c0a44f8fa8c271779f06335baacf14cf87d37bcefc332207e1103fc9960001b610669565b6106307fa6975e88d4cedffa7d698200dd67457489557920a4f1d1ea3bb3826498b6f36260001b610669565b61065c7f706f1095c9b598549c0f1292984829b7eda5d3d35c96a2abdd157affa2a195d660001b610669565b610664610846565b565b50565b50565b600061069a7f9630d213e6c78be7a54a3a7c0073585b55775fdcfdccf3a67a6b1fd75fdde32660001b6106fe565b6106c67f01379c48f1ff547176df569f3dada1dd54ab118e59d0da4b8bcbb3694dabc5b460001b6106fe565b6106f17ef1c2778f75ad635372edac9a2e4c78bd1bc0d69bb54a89a8f46d86a23dd90a60001b6106fe565b6106f9610a07565b905090565b50565b61072d7f876b9153d240f5cf173001d37b2ddf8fdc72e4783755e9d01c3e25e8576c872e60001b6106fe565b6107597fc7fb1387dc9ded740434e38b24c35698eb613f8194391f20fa5d721802497b7d60001b6106fe565b6107857f8920e5aac7bd6bd3e1957b441f4699f5ba3f38decbd03e963d10ce73dc6170f560001b6106fe565b60008060008473ffffffffffffffffffffffffffffffffffffffff1673ffffffffffffffffffffffffffffffffffffffff16815260200190815260200160002060008154809291906001019190505590506108027f627737b1347f57e49dc16492191181ca46051747f61ca7e59af06001b138097d60001b6106fe565b61082e7f5dc8555a9a4ba55f7dabcbc1721dec221c4f9ee92e7ef39f0c8227e16bfaf0e860001b6106fe565b61084161083b8483610b56565b836111ac565b505050565b6108727fcbbc90b3da13614d8e3d49736e01b7d99b4a90623cbc19a3a50c01b04462e21c60001b610669565b61089e7f881ae1c14aaf1e1594f81561c4afb08d97ae65e766fb130bb265d15f9a492f4d60001b610669565b6108ca7fc0cf160ce46e94afc3fab9f54bba34c6ae2a4faa3bd98d8f8c750120104a490860001b610669565b60008060006108d76111bf565b9250925092506109097f1184eb3a053af096ff93740f92cceb208cd55beee7416843b827db4f5a1153e560001b610669565b6109357f9894b59e7d12ccb018d8992aaae7ce420b83d7ed5ab25ef985350f99b8d6990160001b610669565b7f6ab714885e85fe1094a5f8af742b0c2eb868ce590c1280ec1c3594899d143cbf61095e611324565b6109666114e7565b85858560405180806020018681526020018560ff168152602001848152602001838152602001828103825287818151815260200191508051906020019080838360005b838110156109c45780820151818401526020810190506109a9565b50505050905090810190601f1680156109f15780820380516001836020036101000a031916815260200191505b50965050505050505060405180910390a1505050565b6000610a357fe10e7b24bd4523c6da60a51ad3b780e67c771b06d0de1c5eca90c0b854c1105660001b610666565b610a617f037bdbcd32c3bbe29dda7fa2ae2c3305233a2ff28d10859a5c60e42a3f915b5460001b610666565b610a8d7f4d880a132c55852e5896cc56a0afc9a5e7f67fae895e2ca89305a97497bafdf360001b610666565b7f00000000000000000000000000000000000000000000000000000000000000007f00000000000000000000000000000000000000000000000000000000000000007f0000000000000000000000000000000000000000000000000000000000000000610af861157f565b30604051602001808681526020018581526020018481526020018381526020018273ffffffffffffffffffffffffffffffffffffffff1681526020019550505050505060405160208183030381529060405280519060200120905090565b6000610b847fa0f2258dc7775e61d3ad90e6e98ba1a249e886ec0258640d468459b24d2b90dd60001b6106fe565b610bb07f10877cc9505e56463627c6802925fcf6de0c70a55cf8263a10e68b8e9e91e2ee60001b6106fe565b610bdc7f8efe4eb6c122b8709d0ae54d1f0e7dbd0e8ac520ec670115087e1637f1a178a060001b6106fe565b6000610be66114e7565b9050610c147fb3148dc79e234d66a8831d21086f5b19598c99a9da9be42f1c265a35aa88a71f60001b6106fe565b610c407f67fdfbd2a3462838f8a9e87709ba61f79dd826290f3b82ce54aee1f0cf03ddff60001b6106fe565b42811015610cd657610c747f04496f2bd6c3a01a02fff909e049f182e3e84372e355f80006b5f4cf20d5b0de60001b6106fe565b610ca07f3c68ac6774b962dd195e766ca15a4950ba0b91cd225d451576390b63d8094aa160001b6106fe565b610ccc7f75d241301519441e1ef148ccc31cc34c47a05b1d61cbb694cf16f466bc581b5460001b6106fe565b60009150506111a6565b610d027f2c7f15b5bcee2cefc17d527dc68807f1ebd3a9a32065111d35feb5181b59852d60001b6106fe565b610d2e7fc27ba2a2dc34ec249dcbf2b961488ce5ce97f54cb93728c48fb766891fb2863860001b6106fe565b610d5a7f610c40d22f37bce8a97291ea7412a6fe828da5b1d5bc0ee4f27592622100c93360001b6106fe565b6000610d6461160b565b9050610d927fce20df968068235ac5efaff77a5e35602956f79e4c37943b9a72045701a1219760001b6106fe565b610dbe7fbe4a3b65080c316b682b3cd5d4b45e71745e4f37065d9eb7314d50cff596af5e60001b6106fe565b6000801b811415610e5857610df57f0992699a2b54d3f87dfd082e324261370d8d6b02e624b86522fc41d5d7e6903060001b6106fe565b610e217f216bc118fad981a5d7b8e7cd5a51f89ea7497eab62848671112c268c8b6f99e460001b6106fe565b610e4d7f2c3a622f22fd68b91ee30df28691a39840c23e3f915d2256ce96f9c6d350257a60001b6106fe565b6000925050506111a6565b610e847f107f3a6b9548dc61f4644c4a7480eff854be3e64d2f69ee4c0f4344d35b6da5e60001b6106fe565b610eb07fcb5f980616da1fb94ac97cb58e1e30b409d670ae2bd4989e10adbbeb18f320f260001b6106fe565b610edc7fff0dab741e4c3ff8d84d0fac5da3299d2f7bd85120ce73be773ac110bdd2f94260001b6106fe565b600081610ee7611324565b80519060200120338786604051602001808681526020018581526020018473ffffffffffffffffffffffffffffffffffffffff16815260200183815260200182815260200195505050505050604051602081830303815290604052805190602001209050610f777f30baafcc32dcde6797ae054cea529a874f643ea548a255b77c05e73af8ef956160001b6106fe565b610fa37f5b9765b25f8cb961af3753d772a5b9adb56c6e8e04fb0ace61505ecdd70d412460001b6106fe565b6000610fae826116b7565b9050610fdc7f4e7a9217abd85e0d36ec28a2ffd40da433924b7de7f3e7456716ae4efc3334c360001b6106fe565b6110087faedb18f380ce80783020e4b38dd4f69010fb92a9bac6e16ceead0dc13986647460001b6106fe565b60008060006110156111bf565b9250925092506110477f99ba4d1fc7e0a275af99c299efe5e6dc0ea0bb0374ba888d034690a09fb5517f60001b6106fe565b6110737fd2d64bbe20abe068c0ad9139d354aa2a1e2584ce79c4478474c2caaffad576da60001b6106fe565b600060018585858560405160008152602001604052604051808581526020018460ff1681526020018381526020018281526020019450505050506020604051602081039080840390855afa1580156110cf573d6000803e3d6000fd5b5050506020604051035190506111077f1fac7a841413cf879b936ff8df2318c5f37fecacf3f47b92f3704f234a0c2d4f60001b6106fe565b6111337f20fa7bcb1acf532ceea23e4298988999037ed52a594416120acb9d2b13a389c760001b6106fe565b600073ffffffffffffffffffffffffffffffffffffffff168173ffffffffffffffffffffffffffffffffffffffff161415801561119b57508a73ffffffffffffffffffffffffffffffffffffffff168173ffffffffffffffffffffffffffffffffffffffff16145b985050505050505050505b92915050565b816111bb576111ba816117a2565b5b5050565b60008060006111f07fd1243bd6049bb28f779a75c57329dfb4b14d7f9dcae60454788247b0738fa6c260001b6106fe565b61121c7faa733ed119a1372ed4003530c12ee29bf2355af158212dee24bb83895206398b60001b6106fe565b6112487fdca1046b6519ebd49a43959f5280ebd3766089475e4013008720bda5aaba683860001b6106fe565b6112526020611812565b60001c92506112837fba7d38475cc0a1000a6ad468006d9bf4c7b488950c36f89cb300976b1bf26b8660001b6106fe565b6112af7fab22810ed7912e4a00b9de30b010d48e33342819fae4843028044047d080073560001b6106fe565b6112b96040611812565b91506112e77fc7101b5d73095498e377328ea6f1565e28ae92314917e366521d594e554e84b860001b6106fe565b6113137f82b84f4f113f01823652cbbcbea3378a4844655e8e3b77ac5b4e046801707c0f60001b6106fe565b61131d6060611812565b9050909192565b60606113527febf42380d7ca1f10559f22243a9fa514f69815014255084a8c8b857fcff94f4860001b6106fe565b61137e7f8ab5a2b1246321eba7c9914c97e511971c490f76aa9ca6ca803f7b4ce44cd48260001b6106fe565b6113aa7fef8bc593bd6e057b051133772a6e8edad703f436e2046f16e6ddfbf05cd3ae6860001b6106fe565b6000368080601f016020809104026020016040519081016040528093929190818152602001838380828437600081840152601f19601f82011690508083019250505050505050905061141e7fc8023f6560da79595bbc1cd8664f06570ffd015f1745ab59063def89000a338f60001b6106fe565b61144a7f62b02f5a04d89325d30ed885cd8e880ee33153465f5eb59a48dcf7c6235a930560001b6106fe565b6080815111156114b7576114807fb000203e67f4855bc63c3bf5e57e6ea8675bf4455b42bd72fd889b5a8c7abc0160001b6106fe565b6114ac7f2ac7b9fb5c9c0daacfe016438b6c40b55e852c983177f7291d8d9a75e794f6ea60001b6106fe565b6080360381526114e4565b6114e37f578a2d3f0083ba874a5a07c720ff94685734a0a456cc9e2164c568e90b3e9ab460001b6106fe565b5b90565b60006115157fbeae209fa6e7cd8e9554752b7166aa6ee36bbc4ae4816932426dfc3afea74d5160001b6106fe565b6115417ffcd3ace0de51aa553564ac2e802711cff0721dc028de1c6a2309df83caf4c47260001b6106fe565b61156d7faa387d2b90f290c9d9346e949039b3a34fa7b97fffcbdded4b863d58118ea5ca60001b6106fe565b6115776000611812565b60001c905090565b60006115ad7fd8e2832ef6720767deec69f44ca3c3cd8b861b255a67dda4205578fb7165a1c060001b610666565b6115d97f5df0caf98b88b3eb9f27ec4ab7f0297f4988b55185a2490903332262f13a817960001b610666565b6116057fb1fe59e6880d8042919f1fb255ef6b982ebb7b8d94358d2dc30eaaa4f095e69860001b610666565b46905090565b60006116397f8cdbf5c59bd42c4470655c071075b78887575bee1eda644c5c6d4b503450773260001b610669565b6116657f0ffa994e4dcbb9f7c8d712c520b2081f7268acf2ec4f5c863fc721cb42087e4b60001b610669565b6116917f822637ebdd654643caab749f5ee212b440f1ce5630ae291bb402864e62bbc32c60001b610669565b7f0000000000000000000000000000000000000000000000000000000000000000905090565b60006116e57f4162dfeea5487a2e490df35ab6c4995319cb016658ef6478e632b71af599fcb360001b610666565b6117117f52a922e27af0a55002a9023a873c43cc837d583fe0362e21bdb684f84be2b0ed60001b610666565b61173d7f445bb281dbba1baa57c2b3af376885c1ba274636fe85e7d63faf25499e6f09fb60001b610666565b611745610a07565b8260405160200180807f190100000000000000000000000000000000000000000000000000000000000081525060020183815260200182815260200192505050604051602081830303815290604052805190602001209050919050565b6030600a820601600a820491506030600a830601600a830492506030600a8406018060101b8260081b8401016642414c230000000160c81b7f08c379a000000000000000000000000000000000000000000000000000000000600052602060045260076024528060445260646000fd5b60006118407fea722c3c64bbcd89c871079a597e5a98cd35ed9f26736b07b782ad160d56a87660001b6106fe565b61186c7fb25aac74003ee618ae898bda7f9b27d34a85bf93d6f02cac86ee1efb22a4731c60001b6106fe565b81608036030135905091905056fea26469706673582212209156461bcd81e2873b14ba462da26034316b59959796bc857e1a2b79ebf999d464736f6c63430007010033",
  "linkReferences": {},
  "deployedLinkReferences": {}
}