{
  "_format": "hh-sol-artifact-1",
  "contractName": "SignaturesValidatorMock",
  "sourceName": "contracts/balancer-core-v2/test/lib/SignaturesValidatorMock.sol",
  "abi": [
    {
      "inputs": [],
      "stateMutability": "nonpayable",
      "type": "constructor"
    },
    {
      "anonymous": false,
      "inputs": [
        {
          "indexed": false,
          "internalType": "address",
          "name": "user",
          "type": "address"
        },
        {
          "indexed": false,
          "internalType": "address",
          "name": "sender",
          "type": "address"
        }
      ],
      "name": "Authenticated",
      "type": "event"
    },
    {
      "anonymous": false,
      "inputs": [
        {
          "indexed": false,
          "internalType": "bytes",
          "name": "data",
          "type": "bytes"
        },
        {
          "indexed": false,
          "internalType": "uint256",
          "name": "deadline",
          "type": "uint256"
        },
        {
          "indexed": false,
          "internalType": "uint8",
          "name": "v",
          "type": "uint8"
        },
        {
          "indexed": false,
          "internalType": "bytes32",
          "name": "r",
          "type": "bytes32"
        },
        {
          "indexed": false,
          "internalType": "bytes32",
          "name": "s",
          "type": "bytes32"
        }
      ],
      "name": "CalldataDecoded",
      "type": "event"
    },
    {
      "inputs": [
        {
          "internalType": "address",
          "name": "user",
          "type": "address"
        }
      ],
      "name": "anotherFunction",
      "outputs": [],
      "stateMutability": "nonpayable",
      "type": "function"
    },
    {
      "inputs": [
        {
          "internalType": "address",
          "name": "user",
          "type": "address"
        }
      ],
      "name": "authenticateCall",
      "outputs": [],
      "stateMutability": "nonpayable",
      "type": "function"
    },
    {
      "inputs": [
        {
          "internalType": "bytes32",
          "name": "c__0x9e5800f1",
          "type": "bytes32"
        }
      ],
      "name": "c_0x9e5800f1",
      "outputs": [],
      "stateMutability": "pure",
      "type": "function"
    },
    {
      "inputs": [
        {
          "internalType": "bytes32",
          "name": "c__0xe61986bd",
          "type": "bytes32"
        }
      ],
      "name": "c_0xe61986bd",
      "outputs": [],
      "stateMutability": "pure",
      "type": "function"
    },
    {
      "inputs": [
        {
          "internalType": "bytes32",
          "name": "c__0xe68c73e0",
          "type": "bytes32"
        }
      ],
      "name": "c_0xe68c73e0",
      "outputs": [],
      "stateMutability": "pure",
      "type": "function"
    },
    {
      "inputs": [],
      "name": "decodeCalldata",
      "outputs": [],
      "stateMutability": "nonpayable",
      "type": "function"
    },
    {
      "inputs": [],
      "name": "getDomainSeparator",
      "outputs": [
        {
          "internalType": "bytes32",
          "name": "",
          "type": "bytes32"
        }
      ],
      "stateMutability": "view",
      "type": "function"
    },
    {
      "inputs": [
        {
          "internalType": "address",
          "name": "user",
          "type": "address"
        }
      ],
      "name": "getNextNonce",
      "outputs": [
        {
          "internalType": "uint256",
          "name": "",
          "type": "uint256"
        }
      ],
      "stateMutability": "view",
      "type": "function"
    },
    {
      "inputs": [
        {
          "internalType": "address",
          "name": "user",
          "type": "address"
        }
      ],
      "name": "increaseNonce",
      "outputs": [],
      "stateMutability": "nonpayable",
      "type": "function"
    }
  ],
  "bytecode": "0x6101006040527f088e910861b9d0ac056c32bb5d44fcdd155bbfa025bdca87c7390e174ac6179560e0908152503480156200003957600080fd5b506040518060400160405280601181526020017f42616c616e636572205632205661756c74000000000000000000000000000000815250806040518060400160405280600181526020017f3100000000000000000000000000000000000000000000000000000000000000815250620000db7f42b605ad8c4e48409d07a45ae01575f0109010e501e8b5c073584d28d362cafe60001b620002ca60201b60201c565b6200010f7f83ae992f89ac3d22b5c08de6e662a0aa913c874cd41a0efc0f4994d8c4de570060001b620002ca60201b60201c565b620001437fc4a174b8a26360ea40053551849bb6f425e3b060f612b04327821719723bcc8660001b620002ca60201b60201c565b818051906020012060808181525050620001867fc26a2832f3fd57ee4b8ea5a6826ac33a1a1b798676bc5c45122e9662aeab5d2660001b620002ca60201b60201c565b620001ba7fd4fb5a4207833b83c54df15a2c96970589d99d04479e6f4ca3165c5111271ea760001b620002ca60201b60201c565b808051906020012060a08181525050620001fd7fb8e8098b11bfdd787c3da2cdafe2cc6b982a589dae9ae914138ecda0b35a4a3f60001b620002ca60201b60201c565b620002317fb3e60e0a13ac53da78856e77763f45e4814e177529da21d9bb0dde71039bfb5360001b620002ca60201b60201c565b7f8b73c3c69bb8fe3d512ecc4cf759cc79239f7b179b0ffacaa9a75d522b39400f60c0818152505050506200028f7fd0ad92fab2ec2e3b7e050d73b8e193a72cd6c7a5479e0bc3e6e62b04a8cccce260001b620002cd60201b60201c565b50620002c47fda4fdd8899066350f30e72956dbbc271c916d3eb20757f00736c40fb901e56c460001b620002d060201b60201c565b620002d3565b50565b50565b50565b60805160a05160c05160e0516118b16200030960003980611694525080610a90525080610ad2525080610ab152506118b16000f3fe608060405234801561001057600080fd5b50600436106100a35760003560e01c80638247a97c1161007657806394df26d61161005b57806394df26d614610228578063e47cd84a14610232578063ed24911d14610260576100a3565b80638247a97c1461018c57806390193b7c146101d0576100a3565b806325e51185146100a857806346a85980146100ec5780636939fcfe1461011a57806378ea7ae714610148575b600080fd5b6100ea600480360360208110156100be57600080fd5b81019080803573ffffffffffffffffffffffffffffffffffffffff16906020019092919050505061027e565b005b6101186004803603602081101561010257600080fd5b8101908080359060200190929190505050610434565b005b6101466004803603602081101561013057600080fd5b8101908080359060200190929190505050610437565b005b61018a6004803603602081101561015e57600080fd5b81019080803573ffffffffffffffffffffffffffffffffffffffff16906020019092919050505061043a565b005b6101ce600480360360208110156101a257600080fd5b81019080803573ffffffffffffffffffffffffffffffffffffffff169060200190929190505050610469565b005b610212600480360360208110156101e657600080fd5b81019080803573ffffffffffffffffffffffffffffffffffffffff169060200190929190505050610512565b6040518082815260200191505060405180910390f35b6102306105de565b005b61025e6004803603602081101561024857600080fd5b810190808035906020019092919050505061066c565b005b61026861066f565b6040518082815260200191505060405180910390f35b6102aa7fe684a030e6e79e3ec03a6587536eb4ceec8105a6063240376ae178478d2ea15c60001b61066c565b6102d67f5a41f96cb73091884d28166956923fcf5eb66c919c30d81f7ecc1f10d29b569e60001b61066c565b6103027f71256d858e3f50019d7f350a9eef1f0a11407282d66127b4fda410ced0de446060001b61066c565b61030e816101f8610702565b61033a7f22f71ddbae63fd71a5725947f5f24a452670e76c92b302075db8f9ef379123b160001b61066c565b6103667fad49905e822be66728d44415e0f0588138ee56068e6fd505d64e9e7e077e687560001b61066c565b61036e610847565b61039a7fe8a435c65ed78e7bb3748409b9eeb61f67fab85774725471cdc8b1ad4f63078d60001b61066c565b6103c67f7e6befcd2c6116a48fd55ce7a1d6bfbea8c262c5df6da7018d0a851ded28e0b660001b61066c565b7fd42c368decf104a7572c7884ea7028fe04ef7d3e76dbd706484f9175d6c4ec628133604051808373ffffffffffffffffffffffffffffffffffffffff1681526020018273ffffffffffffffffffffffffffffffffffffffff1681526020019250505060405180910390a150565b50565b50565b6104667ffa155a0473bd208f8de953dff957e6b15c9e6e12d79ac003eb16ff79bcabf78d60001b61066c565b50565b6104957fa4d4ec225ff7d3d9ebd69e9df26fc626214ab6698dc7269251bd639e6b9e9a6e60001b61066c565b6104c17f953905fcb8c86bc14c962961e462cc626ca295357031396582735d6ac18e8ce660001b61066c565b6000808273ffffffffffffffffffffffffffffffffffffffff1673ffffffffffffffffffffffffffffffffffffffff1681526020019081526020016000206000815480929190600101919050555050565b60006105407fc842d92d997ef4a0d4af4963082dd4087788df0b835eb4307ce049ba6526f54a60001b610434565b61056c7f311a853d6201e81a6f369d940c8c37b0c82aa3a1e8406ac8a0a5c5fd1718b49960001b610434565b6105987f6945fbc26c6fc30a1b09ce36b53df4a8702534eb7653bf6acc42419697361c8960001b610434565b6000808373ffffffffffffffffffffffffffffffffffffffff1673ffffffffffffffffffffffffffffffffffffffff168152602001908152602001600020549050919050565b61060a7f88647ede138425d64d04cab3c556c59a975f27b73a2ca7d56ab98ea0fb6d3a7960001b61066c565b6106367f70ff4469122e437a28f38fcc444cfa51b5ac0c27ab9dd005b9e761cc79c4218560001b61066c565b6106627f8755690d8c6c6c4a3414c5a3b08745df1c4148c3abc18794880f928f194becd460001b61066c565b61066a610847565b565b50565b600061069d7f858915c5288ac08e46f1806fa1ad1249d8d5895decde9d2a2bd2f16675a1e40460001b610434565b6106c97f4655f1f75dff4868f097ecebb156c873eeeac4557f5702949a8a6b2b198bdc3f60001b610434565b6106f57f7c0683f017715c61d6b69babb4142d0c1cc391ab35cc029611abcbb5ffa9d45960001b610434565b6106fd610a08565b905090565b61072e7f4fa019bd0c17225fdc4458fe986bf50bc1a9afc1679cc4a0b2a50e434ed74b3160001b610434565b61075a7f06a2c96b2820c534839db961f174c4fd6c5b2dc59240e99cc89f10c3bb3fff0760001b610434565b6107867ff1584b1aa30eaf27759c5b0cb8296b42207bf84fba48e07e467e1a2c98b38b1a60001b610434565b60008060008473ffffffffffffffffffffffffffffffffffffffff1673ffffffffffffffffffffffffffffffffffffffff16815260200190815260200160002060008154809291906001019190505590506108037fd724793b805b070e858affe85745fc358aa8b4dbc36f7a392e8463718a41ea8060001b610434565b61082f7ff4c0fde0501b0d0a010abef9331dcbe1951b4bf216b11d0e8833335c23761c2f60001b610434565b61084261083c8483610b57565b836111ad565b505050565b6108737fbe306050fff3623f94cca7cecfdb1e1bd97baeb84b10b97bc997375a2258f72b60001b61066c565b61089f7fae33db94a3e3d5efbf4435c1596c7a26d65a45bab6f60495ad29804f3fde26cb60001b61066c565b6108cb7f10eb3c415d62bdb4f647e5ba0bec4827e2a4d43ae438e4b4c3133908114eb23a60001b61066c565b60008060006108d86111c0565b92509250925061090a7faebe932d9d0f6d5480b01e6a919a601f80c685fcdf25682d0201bf8cd46f18e660001b61066c565b6109367f23837858d9673a1dbf9d843ac3e6ffb7e790043b92e04a233678208ee0b176b760001b61066c565b7f6ab714885e85fe1094a5f8af742b0c2eb868ce590c1280ec1c3594899d143cbf61095f611325565b6109676114e8565b85858560405180806020018681526020018560ff168152602001848152602001838152602001828103825287818151815260200191508051906020019080838360005b838110156109c55780820151818401526020810190506109aa565b50505050905090810190601f1680156109f25780820380516001836020036101000a031916815260200191505b50965050505050505060405180910390a1505050565b6000610a367f0619b08396514f3014b4cd388f4277c5ee27d85e6ddf8c8e8741a4c70985e78660001b610437565b610a627fadf5ed2199ad87ddb5b50c063afe706a9746a5f97871ab751613d492674010ea60001b610437565b610a8e7fdf8526b85b2735b3fbfc4736bf3d3dfa64ae072b5fd103fbe8a3f3cf1ebbbb3460001b610437565b7f00000000000000000000000000000000000000000000000000000000000000007f00000000000000000000000000000000000000000000000000000000000000007f0000000000000000000000000000000000000000000000000000000000000000610af9611580565b30604051602001808681526020018581526020018481526020018381526020018273ffffffffffffffffffffffffffffffffffffffff1681526020019550505050505060405160208183030381529060405280519060200120905090565b6000610b857fde214dcbbb6d2f7e5bc68bba3a77df6ad215c8f888102eb92d629de3f607e8c560001b610434565b610bb17ffbb84f328bea194fad2f88cb26ad3e623f3b643e925dfb79cd969955d565cf2460001b610434565b610bdd7f641477ae033952b82a12eff8ffc0dceda13f254b083c5aad7f6d37ccf0060e3460001b610434565b6000610be76114e8565b9050610c157fe8f1cc5dbfbd2af36ca24c40a3a259a606633a96c50d1144259f73dae910baca60001b610434565b610c417fc2a96835e6eb6122c8f21912d500c0ea09bf53cb30fe970c07434e19426e752860001b610434565b42811015610cd757610c757f360c3582d2834623b416542df850cdb1395d4be170979d8314d10d498d8e71d560001b610434565b610ca17f1b88f0f3dc85ab6fcc62be77eb1757c63d9baa9372d2130a159b220688f7befc60001b610434565b610ccd7f57fd5f04723a153d7ad92c613238d8023e4a4c2605006c2922201a42a626194760001b610434565b60009150506111a7565b610d037f3f65fc19a0a4f488e19e426f4b8237429f2fba75856307321e302974f7865be060001b610434565b610d2f7f6c4144d884aed4f7bfbb981e97f344fdc2d5b5d71b690d2fe5304682cab5f5f760001b610434565b610d5b7f18cba61925fde28f36384157201cbe52a42398e93987a55d75f3cc47f81ce24760001b610434565b6000610d6561160c565b9050610d937f27e081687d4ed3f842082ee3fa1c9ca08cfb6b6b01af629bfe2875d93419983d60001b610434565b610dbf7fbb1c7c3c912748076dcfd3a4b81798e2bbfa1fcb7312b92c4ff99ff366e6bcaa60001b610434565b6000801b811415610e5957610df67f7f011b62f73151ee31f771bfd9327aa93f1129a9c48e89395aa29b0f2a93c31260001b610434565b610e227fc6018d31780b59f0b381af33580697929fedc789ac20e5fd14d97a7bae44f33360001b610434565b610e4e7fa92ad6915347768f09f1bd07a6c9e55f52e44e1c58d274c17f15a340e582df8060001b610434565b6000925050506111a7565b610e857fc21ba1592d5a3f1b39554947e63e1764d8fc728bf1c5b64603037b855da22b2360001b610434565b610eb17f0552c09df19809233e771d6f05135a8bcffc2cd69eb4938c9688d8c98e2d735660001b610434565b610edd7f580bf8b9e51ae11c33819eeaaa53db0baa0838ffb7bf8e99683c82e5f5414bf560001b610434565b600081610ee8611325565b80519060200120338786604051602001808681526020018581526020018473ffffffffffffffffffffffffffffffffffffffff16815260200183815260200182815260200195505050505050604051602081830303815290604052805190602001209050610f787fe4948bcc968ce6049764b87529bdd2b4f56e0af5cd06a8d3631ac83f5debbcc860001b610434565b610fa47f57bb14ab1dd2a895e5cd4815669d27a7174c656e6113ae696bb037f6ef5be2d660001b610434565b6000610faf826116b8565b9050610fdd7fb8d4e342f861829e299fa7ec542362af87c95fd6463b557d9f8c7cbe2602abde60001b610434565b6110097f66ad9057d2556b4a6ade8de86f63cc56fc52bb22e7e7c24c53c1c20426e93f6c60001b610434565b60008060006110166111c0565b9250925092506110487f726adca045e5a77fa40181deb889db99860ae05789bfe87e62a1b16eaa127fed60001b610434565b6110747fe272e252875a52e50c569a671a38b223a2cc08e65930ba24fa42f5480202d39960001b610434565b600060018585858560405160008152602001604052604051808581526020018460ff1681526020018381526020018281526020019450505050506020604051602081039080840390855afa1580156110d0573d6000803e3d6000fd5b5050506020604051035190506111087ff4575d676d44a0174a2b54e35bcabd69af2407bd0d16af2bd47e7e1e0244ed0960001b610434565b6111347f3fa19107a5fd11afcabf5d31c7f2ab1cf7671d8a920a0eba73ec4e29f49091b560001b610434565b600073ffffffffffffffffffffffffffffffffffffffff168173ffffffffffffffffffffffffffffffffffffffff161415801561119c57508a73ffffffffffffffffffffffffffffffffffffffff168173ffffffffffffffffffffffffffffffffffffffff16145b985050505050505050505b92915050565b816111bc576111bb816117a3565b5b5050565b60008060006111f17fb698125995b0d07aebeb32c65db9dd09a73699a22bb50af603056104f8b5aeb960001b610434565b61121d7fa89aa19a6ce0a79fbae42316df8c03b0066ff0600015b41870bb260de4bda1bc60001b610434565b6112497f67f8e503f7f2b1618bebe1a6fb73901c9c90a7c6783b30a78b3bc8687c34f6dc60001b610434565b6112536020611813565b60001c92506112847fd9a7a4318496870bfa7bd4a9ec0e242f76633ea277183ff1d59ea5327bb94fca60001b610434565b6112b07f44b24a743a83389536a8d17ded67aa63d49d695c8d6a612facee994c201a75f960001b610434565b6112ba6040611813565b91506112e87f1ff09fadcd3566392c8065e410c7c5196725f64ed647ce9e67e95438660c57ca60001b610434565b6113147f60d20d76673f95ee133f52304bbe7a45cdc59ea4ccde5a09eafa17fa13169f9e60001b610434565b61131e6060611813565b9050909192565b60606113537f626fe3ad03ccaa283d6f787b3890ddeea5681fd9d641d73fb01a9cba4a2c021260001b610434565b61137f7fd215e6efe7442b1e24ff4fd00e35422ef63ad7bad10a129ac86d4ba72a9db90260001b610434565b6113ab7f76d3411d53b984fa4f1d02889849bee13ff8e5757da68ce1dd3bf755bf2004db60001b610434565b6000368080601f016020809104026020016040519081016040528093929190818152602001838380828437600081840152601f19601f82011690508083019250505050505050905061141f7f1762600c91090c62aab8c4537cfd981d066dfd54a061881d7130fd5d8529b8a360001b610434565b61144b7fc574890743f4e0729e2f0dd122ca7991b26be42bc4adfc457bfea8e9b9cfd7b460001b610434565b6080815111156114b8576114817f18f0412aaf181915557e80ac8c0b71aea82c04f9a6354cec86570697b17abbc260001b610434565b6114ad7f43fc9d45d9d327bf2edafca040dfe01c07154a0a7a93ae6e46e07c2079dd2cf960001b610434565b6080360381526114e5565b6114e47f6daef15714d8f3f9bb4ca59a02ff35a2b9fb437bd7181b1e2d9baecf04b513d460001b610434565b5b90565b60006115167f6163ce464c758a4d5646c9116cf83fa37148e8c50ad55da2f4970dbe244d125460001b610434565b6115427f32f72739ec17265dd621328544986d8923b9890ef60b4019f5f6b61bcb53bbb960001b610434565b61156e7f9472c29b9d9219ac6cba62c19ace7ab8e0d445a9c55577db8a4f82b80a54b00d60001b610434565b6115786000611813565b60001c905090565b60006115ae7f80fca6b64f7b0789847f8be52c02b4e1f759789d6b7cbe957f89feefde4fe88a60001b610437565b6115da7fc446b9f164092d39ac2524a6d2e73d0ccb1abd271deaf1757b7310ed4335dbdd60001b610437565b6116067f22f429aedbaa0bb811444c55a4871d76ff331b3f6f543b5d11608339df4e388d60001b610437565b46905090565b600061163a7f32f120435820d9dc83f070eb204de449ec71041a7c1bca454c03793c1062416a60001b61066c565b6116667fcdb9d89834738718cacdc8d86fbda978c146a39590b761ff05b25bdc0c602b3b60001b61066c565b6116927f9d6b666c6c620bc1b7e2add049eeb33c497bfc00f7c86a0602285c1785e253b560001b61066c565b7f0000000000000000000000000000000000000000000000000000000000000000905090565b60006116e67f2c54610e3fe0a98df3c423e90950973fc94146f557b01b6bee8cca13a6032b4a60001b610437565b6117127fbc254dfd0c8280fa8535e89d4bc4cc331f18b5ac8558d459ad7b42c1e1c9d89c60001b610437565b61173e7f2ceb1de44021a984c31888fffa7404fe74791ca186de59ed6c94965c86a06b2260001b610437565b611746610a08565b8260405160200180807f190100000000000000000000000000000000000000000000000000000000000081525060020183815260200182815260200192505050604051602081830303815290604052805190602001209050919050565b6030600a820601600a820491506030600a830601600a830492506030600a8406018060101b8260081b8401016642414c230000000160c81b7f08c379a000000000000000000000000000000000000000000000000000000000600052602060045260076024528060445260646000fd5b60006118417f37c919d20d8a5bb2bf1f1b41d0410950791965427581e46b16159c34fdc020de60001b610434565b61186d7fd1e515c22122627ad854070c8bb10deaf9a7fdfe0affa21369c786c4aa15fe4860001b610434565b81608036030135905091905056fea26469706673582212200742f503cf36c11c02034f12f46cfa1865655dfcb214638dd2ed89f1b6238f6964736f6c63430007010033",
  "linkReferences": {},
  "deployedLinkReferences": {}
}