{
  "_format": "hh-sol-artifact-1",
  "contractName": "FactoryWidePauseWindow",
  "sourceName": "contracts/balancer-core-v2/pools/factories/FactoryWidePauseWindow.sol",
  "abi": [
    {
      "inputs": [],
      "stateMutability": "nonpayable",
      "type": "constructor"
    },
    {
      "inputs": [
        {
          "internalType": "bytes32",
          "name": "c__0x75a1cbac",
          "type": "bytes32"
        }
      ],
      "name": "c_0x75a1cbac",
      "outputs": [],
      "stateMutability": "pure",
      "type": "function"
    },
    {
      "inputs": [],
      "name": "getPauseConfiguration",
      "outputs": [
        {
          "internalType": "uint256",
          "name": "pauseWindowDuration",
          "type": "uint256"
        },
        {
          "internalType": "uint256",
          "name": "bufferPeriodDuration",
          "type": "uint256"
        }
      ],
      "stateMutability": "view",
      "type": "function"
    }
  ],
  "bytecode": "0x60a060405234801561001057600080fd5b506100437f466137b22d0c7dd98c368f073da2069606214008c595943cffc159df242812f960001b6100b960201b60201c565b6100757f3489a113de9124b0929876167b6198fb735181de2da5af2333e46d37805e72d960001b6100b960201b60201c565b6100a77f4997d55b258e281d386832b71c4b1f39dfbfc9b60de5200bff4353f97009118560001b6100b960201b60201c565b6276a7004201608081815250506100bc565b50565b6080516104526100db6000398061015f528061020c52506104526000f3fe608060405234801561001057600080fd5b50600436106100365760003560e01c806308ed56a51461003b5780632da47c4014610057575b600080fd5b61005560048036038101906100509190610390565b610076565b005b61005f610079565b60405161006d9291906103c8565b60405180910390f35b50565b6000806100a87f4664d8b33c13761858c67ee8bea76f7b1064ee802e1435539fce3982a26d188a60001b610076565b6100d47f293351dddbc71cd54a76813b9156ef540fe941bd394894b049c2c4d9fc9f66da60001b610076565b6101007f634219e96c792fc85a2199cdb6b8be542fa4f63f7082679cd4e766e10a37a0c260001b610076565b60004290506101317f6ac902c79dba6a085cf45bd6deb709ea65276123acd51adbceb04e5af6c8ad7c60001b610076565b61015d7f2d145d6374c9c442c5e973195b846848213a25adca787ac5fcf199ddb8da448660001b610076565b7f0000000000000000000000000000000000000000000000000000000000000000811015610291576101b17ff847546271070d177581854ac34d1bd55a6d3c5b182bf07e94a1660880afd5ab60001b610076565b6101dd7fb05464517a60bbe056900fdc2dc51625fca528157aeee13875a9399015a6d0f360001b610076565b6102097f3e7d864508a0837b8d0647223f82fe15bea6dab55ee5c1852a06bc70b6b0032b60001b610076565b807f000000000000000000000000000000000000000000000000000000000000000003925061025a7f58fd67b979cf09091c02422daaa2dd3b003fa661d9131c07939fa99de3c2048260001b610076565b6102867f7e0ea095279b18c09160c90ea45a9454b8f76f280f92874328686b77495e484160001b610076565b62278d009150610376565b6102bd7f41def708acf3a7d06a980b11ea0bab247888356f31cc0206b65381791329484160001b610076565b6102e97f02a4a3fa4b683a9489057270a94e2d015325d5a2abedf117b59f8db2752bef1660001b610076565b6103157f06fa57e428804da6c870510ae4efdb26610e8c78424b3d2888744dcb942ab3b260001b610076565b600092506103457f416673a30447260c9d32feeef0edd2c6a726715230ca165567b1d9cbff26b25c60001b610076565b6103717f99de698ff774f6d61f60b472688d830862f738a0132156a61112b292724c11c560001b610076565b600091505b509091565b60008135905061038a81610405565b92915050565b6000602082840312156103a257600080fd5b60006103b08482850161037b565b91505092915050565b6103c2816103fb565b82525050565b60006040820190506103dd60008301856103b9565b6103ea60208301846103b9565b9392505050565b6000819050919050565b6000819050919050565b61040e816103f1565b811461041957600080fd5b5056fea2646970667358221220bac003bf0040aa64fdc427a92eb7fca4fa8248852851de862c8e2583ce71e47364736f6c63430007010033",
  "linkReferences": {},
  "deployedLinkReferences": {}
}