{
  "_format": "hh-sol-artifact-1",
  "contractName": "FactoryWidePauseWindow",
  "sourceName": "contracts/balancer-core-v2/pools/factories/FactoryWidePauseWindow.sol",
  "abi": [
    {
      "inputs": [],
      "stateMutability": "nonpayable",
      "type": "constructor"
    },
    {
      "inputs": [
        {
          "internalType": "bytes32",
          "name": "c__0x590f67b9",
          "type": "bytes32"
        }
      ],
      "name": "c_0x590f67b9",
      "outputs": [],
      "stateMutability": "pure",
      "type": "function"
    },
    {
      "inputs": [],
      "name": "getPauseConfiguration",
      "outputs": [
        {
          "internalType": "uint256",
          "name": "pauseWindowDuration",
          "type": "uint256"
        },
        {
          "internalType": "uint256",
          "name": "bufferPeriodDuration",
          "type": "uint256"
        }
      ],
      "stateMutability": "view",
      "type": "function"
    }
  ],
  "bytecode": "0x60a060405234801561001057600080fd5b506100437f9227e6082317ae70762066b36917a34a30c1cf63910f9bddfb8ae6807dbd0cc360001b6100b960201b60201c565b6100757fd2bcf66d6cb883ea581b854e4ea9c60cb1e80ca512dc4f3a106831fe4dfcaed860001b6100b960201b60201c565b6100a77f7ff12e0d0e7fc60e1ed37f46495db2b44f114ef6f2d6a8e1ec6551274cc9c91760001b6100b960201b60201c565b6276a7004201608081815250506100bc565b50565b6080516104526100db6000398061015c528061020952506104526000f3fe608060405234801561001057600080fd5b50600436106100365760003560e01c80632da47c401461003b578063656128421461005a575b600080fd5b610043610076565b6040516100519291906103c8565b60405180910390f35b610074600480360381019061006f9190610390565b610378565b005b6000806100a57f304f4209f5d9cc5a482e1ca5a7df2d42bca994fdf769d998397e4a4af7dcfa8d60001b610378565b6100d17fdc922ee7b71a9d3e888f77c160c83b50bcc5b74ea9b977011259395c4c3d72e460001b610378565b6100fd7f7a541c6c13bed1b1d3c1ba3d9f50ca8a619218111c70bfa3572053155d73be5560001b610378565b600042905061012e7fc6ad440d04a21ea30da140614f390be636bfa0068243701556b5d3e4b86a9c6d60001b610378565b61015a7fd30e6cb5fde6b23720faa07be47c32b0c5d915839cd5461627f78785c11dc20060001b610378565b7f000000000000000000000000000000000000000000000000000000000000000081101561028e576101ae7f04247c40d49ca47238397f6153514252d26d0416409851b8a47e89b684def0dd60001b610378565b6101da7f503013b026351043029ca3a3655060b062e94e5a1bc415cebaea5de0873800a060001b610378565b6102067f22864d96cdbd341df6157f20ceae7060ec02e618a3c0b72f845704848ab1d52260001b610378565b807f00000000000000000000000000000000000000000000000000000000000000000392506102577fa933fe6792e89e9e6d94f93f8d51e416d8d2a47eddc16a0809d02179b79d5b6360001b610378565b6102837f688d33b4b772515c7a6c45420b84ee27a1f81e38f481d5c60a9a0d729a5a50df60001b610378565b62278d009150610373565b6102ba7fbc030c39ff87b3cf5ae8ba9dd94d9a9959e131a71db43632aad00f7057c76fe960001b610378565b6102e67f370b381372420a3c997bc6e709d7fa8e3c2a151d6512bc9211586fd46145c1a260001b610378565b6103127f51647e26fc2b350fd3a82467466008cb2abc6046ab5e9cd3c2ffda1366e6f41660001b610378565b600092506103427f19062e600e46c9dbf7cda1a707c9a580928c7c649ce248613eaf7dd7d7e033fd60001b610378565b61036e7fd263e9c398687b8429d89272c38df73365789be30d4999ee374f1c450728097160001b610378565b600091505b509091565b50565b60008135905061038a81610405565b92915050565b6000602082840312156103a257600080fd5b60006103b08482850161037b565b91505092915050565b6103c2816103fb565b82525050565b60006040820190506103dd60008301856103b9565b6103ea60208301846103b9565b9392505050565b6000819050919050565b6000819050919050565b61040e816103f1565b811461041957600080fd5b5056fea26469706673582212207cec26d692fc023941e1565a5da0ffe13f3d821ebfc9e1e147bfa9d6004f213b64736f6c63430007010033",
  "linkReferences": {},
  "deployedLinkReferences": {}
}