{
  "_format": "hh-sol-artifact-1",
  "contractName": "Address",
  "sourceName": "contracts/balancer-core-v2/lib/openzeppelin/Address.sol",
  "abi": [
    {
      "inputs": [
        {
          "internalType": "bytes32",
          "name": "c__0x94af9574",
          "type": "bytes32"
        }
      ],
      "name": "c_0x94af9574",
      "outputs": [],
      "stateMutability": "pure",
      "type": "function"
    }
  ],
  "bytecode": "0x609c610024600b82828239805160001a607314601757fe5b30600052607381538281f3fe730000000000000000000000000000000000000000301460806040526004361060335760003560e01c8063f02e0375146038575b600080fd5b606160048036036020811015604c57600080fd5b81019080803590602001909291905050506063565b005b5056fea2646970667358221220e2eb2e65d2df5fcd4d609b3333131a71b340c5aeee6cb6d5370c62c851ee6d2c64736f6c63430007010033",
  "linkReferences": {},
  "deployedLinkReferences": {}
}