{
  "_format": "hh-sol-artifact-1",
  "contractName": "Address",
  "sourceName": "contracts/balancer-core-v2/lib/openzeppelin/Address.sol",
  "abi": [
    {
      "inputs": [
        {
          "internalType": "bytes32",
          "name": "c__0x73c944df",
          "type": "bytes32"
        }
      ],
      "name": "c_0x73c944df",
      "outputs": [],
      "stateMutability": "pure",
      "type": "function"
    }
  ],
  "bytecode": "0x609c610024600b82828239805160001a607314601757fe5b30600052607381538281f3fe730000000000000000000000000000000000000000301460806040526004361060335760003560e01c8063b3f7468c146038575b600080fd5b606160048036036020811015604c57600080fd5b81019080803590602001909291905050506063565b005b5056fea264697066735822122050f742bc891fba70a71abac6905560fcaa4ef50a49b8c9175c1be09340b4bc8564736f6c63430007010033",
  "linkReferences": {},
  "deployedLinkReferences": {}
}