{
  "_format": "hh-sol-artifact-1",
  "contractName": "Create2",
  "sourceName": "contracts/balancer-core-v2/lib/openzeppelin/Create2.sol",
  "abi": [
    {
      "inputs": [
        {
          "internalType": "bytes32",
          "name": "c__0xec0acfb4",
          "type": "bytes32"
        }
      ],
      "name": "c_0xec0acfb4",
      "outputs": [],
      "stateMutability": "pure",
      "type": "function"
    }
  ],
  "bytecode": "0x609c610024600b82828239805160001a607314601757fe5b30600052607381538281f3fe730000000000000000000000000000000000000000301460806040526004361060335760003560e01c8063e52f411f146038575b600080fd5b606160048036036020811015604c57600080fd5b81019080803590602001909291905050506063565b005b5056fea26469706673582212205d3545d4114e77374bdc625cfe89605697511c6df535518b4284cbf33feb44ea64736f6c63430007010033",
  "linkReferences": {},
  "deployedLinkReferences": {}
}