{
  "_format": "hh-sol-artifact-1",
  "contractName": "MockAssetTransfersHandler",
  "sourceName": "contracts/balancer-core-v2/test/MockAssetTransfersHandler.sol",
  "abi": [
    {
      "inputs": [
        {
          "internalType": "contract IWETH",
          "name": "weth",
          "type": "address"
        }
      ],
      "stateMutability": "nonpayable",
      "type": "constructor"
    },
    {
      "inputs": [
        {
          "internalType": "bytes32",
          "name": "c__0x76503d8b",
          "type": "bytes32"
        }
      ],
      "name": "c_0x76503d8b",
      "outputs": [],
      "stateMutability": "pure",
      "type": "function"
    },
    {
      "inputs": [
        {
          "internalType": "bytes32",
          "name": "c__0xdfc7cb74",
          "type": "bytes32"
        }
      ],
      "name": "c_0xdfc7cb74",
      "outputs": [],
      "stateMutability": "pure",
      "type": "function"
    },
    {
      "inputs": [
        {
          "internalType": "bytes32",
          "name": "c__0xf713c778",
          "type": "bytes32"
        }
      ],
      "name": "c_0xf713c778",
      "outputs": [],
      "stateMutability": "pure",
      "type": "function"
    },
    {
      "inputs": [
        {
          "internalType": "address",
          "name": "account",
          "type": "address"
        },
        {
          "internalType": "contract IERC20",
          "name": "token",
          "type": "address"
        },
        {
          "internalType": "uint256",
          "name": "amount",
          "type": "uint256"
        }
      ],
      "name": "depositToInternalBalance",
      "outputs": [],
      "stateMutability": "nonpayable",
      "type": "function"
    },
    {
      "inputs": [
        {
          "internalType": "address",
          "name": "account",
          "type": "address"
        },
        {
          "internalType": "contract IERC20",
          "name": "token",
          "type": "address"
        }
      ],
      "name": "getInternalBalance",
      "outputs": [
        {
          "internalType": "uint256",
          "name": "",
          "type": "uint256"
        }
      ],
      "stateMutability": "view",
      "type": "function"
    },
    {
      "inputs": [
        {
          "internalType": "contract IAsset",
          "name": "asset",
          "type": "address"
        },
        {
          "internalType": "uint256",
          "name": "amount",
          "type": "uint256"
        },
        {
          "internalType": "address",
          "name": "sender",
          "type": "address"
        },
        {
          "internalType": "bool",
          "name": "fromInternalBalance",
          "type": "bool"
        }
      ],
      "name": "receiveAsset",
      "outputs": [],
      "stateMutability": "payable",
      "type": "function"
    },
    {
      "inputs": [
        {
          "internalType": "contract IAsset",
          "name": "asset",
          "type": "address"
        },
        {
          "internalType": "uint256",
          "name": "amount",
          "type": "uint256"
        },
        {
          "internalType": "address payable",
          "name": "recipient",
          "type": "address"
        },
        {
          "internalType": "bool",
          "name": "toInternalBalance",
          "type": "bool"
        }
      ],
      "name": "sendAsset",
      "outputs": [],
      "stateMutability": "nonpayable",
      "type": "function"
    },
    {
      "stateMutability": "payable",
      "type": "receive"
    }
  ],
  "bytecode": "0x60a06040523480156200001157600080fd5b506040516200268c3803806200268c833981810160405281019062000037919062000164565b806200006c7fd42273fe9a4a03789d1d93671f589797743563c8a4b30f1b505997bf6b92deb460001b6200014760201b60201c565b620000a07f6738e7db9f62f3d3ff4960e0fe1f3c2c4d936e8add6d1806f893a83482e751a160001b6200014760201b60201c565b620000d47f02717fccd054bfd137610984c96c31b4a6356b4dee268736384334ef228946cf60001b6200014760201b60201c565b8073ffffffffffffffffffffffffffffffffffffffff1660808173ffffffffffffffffffffffffffffffffffffffff1660601b8152505050620001407f38da8e71ec0ba34592a2e713b80ce3d202e9c7af627eb74e092c4ab05b0dd98f60001b6200014a60201b60201c565b50620001f2565b50565b50565b6000815190506200015e81620001d8565b92915050565b6000602082840312156200017757600080fd5b600062000187848285016200014d565b91505092915050565b60006200019d82620001b8565b9050919050565b6000620001b18262000190565b9050919050565b600073ffffffffffffffffffffffffffffffffffffffff82169050919050565b620001e381620001a4565b8114620001ef57600080fd5b50565b60805160601c61247c620002106000398061029e525061247c6000f3fe6080604052600436106100745760003560e01c80639d3d8a6f1161004e5780639d3d8a6f1461017c578063b19c121f146101a5578063b1d41ce8146101ce578063e65f9702146101f7576100e8565b80631f51af7d146100ed5780638a65d2e01461011657806390c185ae14610153576100e8565b366100e8576100a57ffe2d05e75ba34cfa99588abefa17d1d255c4ae359f2fb25c3cd5ad67c9c819b760001b610213565b6100e66100b0610216565b73ffffffffffffffffffffffffffffffffffffffff163373ffffffffffffffffffffffffffffffffffffffff16146102066102c2565b005b600080fd5b3480156100f957600080fd5b50610114600480360381019061010f91906120fe565b6102d5565b005b34801561012257600080fd5b5061013d60048036038101906101389190612021565b61036b565b60405161014a91906122b9565b60405180910390f35b34801561015f57600080fd5b5061017a6004803603810190610175919061205d565b610475565b005b34801561018857600080fd5b506101a3600480360381019061019e91906120d5565b61058e565b005b3480156101b157600080fd5b506101cc60048036038101906101c791906120d5565b610591565b005b3480156101da57600080fd5b506101f560048036038101906101f091906120d5565b610213565b005b610211600480360381019061020c9190612161565b610594565b005b50565b60006102447f8a265b13d432173523632f8bcfab43301fe4e66466a839a49eab23a35e8e83e860001b610591565b6102707fb86e7d4e58e5797fc70acdf3ffafc7be31a194c68052929cb88417799298d53560001b610591565b61029c7f8808efcb48e3fd659f7ade34ad3ded69da61a1d07c66f1bd23b08cdd7b8bebd860001b610591565b7f0000000000000000000000000000000000000000000000000000000000000000905090565b816102d1576102d08161062a565b5b5050565b6103017ff8f254f9050f4fdc9edfb8c2ab30b0476942c26d0a39acbb6f5969aee60f9fc260001b61058e565b61032d7f01a53f008add63ff6e2e11526122ea6b05c9d257e0d11994914d071bfed3d52c60001b61058e565b6103597fccb4de27a8f28b17689bc069f1bc3c113f5497050ba4c8c03400635114671aa060001b61058e565b6103658484848461069a565b50505050565b60006103997f54024b3ca78c3b3803cc7911ba58a160fadf111538f308eecbcf820e5073558860001b61058e565b6103c57fe2db18c631fad330125eaf865b8d6ea27113e428278cfdeade3d0f9ae1d5983760001b61058e565b6103f17fc5b4c6920ce0772d1a6bdc01b4da4bd75a5b502bfe49544f7309394618b31e0d60001b61058e565b6000808473ffffffffffffffffffffffffffffffffffffffff1673ffffffffffffffffffffffffffffffffffffffff16815260200190815260200160002060008373ffffffffffffffffffffffffffffffffffffffff1673ffffffffffffffffffffffffffffffffffffffff16815260200190815260200160002054905092915050565b6104a17f5401c0e764b17c6cf44365659f5faa499ae0ea0d4735a9ae3761b9b0ba3cf8f860001b61058e565b6104cd7f670e461fb097708c2348d5bc458f1a6d058434637db8428422675aca9bfc9d8e60001b61058e565b6104f97f688eacc515b57a6dbd092359fd6533c8257ce0c072a1d7af5aab738da38e556060001b61058e565b6105268330838573ffffffffffffffffffffffffffffffffffffffff16610c5f909392919063ffffffff16565b6105527faf443f53dfa6d83756bcae5dff8176b0d53384e2eb2d08503fee640599f18c4660001b61058e565b61057e7fc9faffac535b30543d16bf55d4eb31acfc5fc970d38d5bf3d811083dceaee4a360001b61058e565b610589838383610d6c565b505050565b50565b50565b6105c07f798a5c976a208eb65d61c7b0882720e3161f8b43f6c5ada996a83a30dc57c29a60001b61058e565b6105ec7f8d0c5f92e14647b81d8a2c758722b0c58e241c634bdeb77205e4cc9fc56ee0b560001b61058e565b6106187faefdad1b87c7776b86a0b42bf3eb86675b5dced961ae90bd50d182568021368d60001b61058e565b61062484848484610e7e565b50505050565b6030600a820601600a820491506030600a830601600a830492506030600a8406018060101b8260081b8401016642414c230000000160c81b7f08c379a000000000000000000000000000000000000000000000000000000000600052602060045260076024528060445260646000fd5b6106c67f9848b02d7a4011fc1e2fcd8a6017eb46d27fa890f508dfbce1925e3489a150f660001b610213565b6106f27fd54348975359c2642b2e17427f9265b913f6c0d702c14c7376adea1c2e1456b060001b610213565b61071e7f028d089ae0286f7246df9f8b2d6dd96f34095224285feb0b585ebbe9c4b06a7660001b610213565b60008314156107b0576107537f75af0da682c2f58391d22ed5c48582a1a858d21f1fe84147ac9594833fa7132960001b610213565b61077f7fccb18a03974c251bdbc02987322de52873d26a6ee3e9b79b7700109125496caa60001b610213565b6107ab7f4c6aa2653b2a2a711f74f7e43e7497e83eb5f048818d8baca18eca108c843afd60001b610213565b610c59565b6107dc7f47da9aae5137bf510b53865c4c94c67ccb963a84adde747bccbde1a0f39592ba60001b610213565b6108087ff6134fbc534f89e74113960791fe4664c9a54ea4823a324aadf30207b11e415760001b610213565b6108347fdcbfce4fe881543a20bcdca9a5d2a66793aebf73cd21db40feb585e5c22a735160001b610213565b61083d84611544565b15610a235761086e7fd5431432833eee7c422fd964338efa3b73bfb222eec0bee8a4086c8da7fce9c160001b610213565b61089a7fbd46d219a90a92b6c1993f22db4617b5b3f45723226e5e35d28a25ea694fdfc060001b610213565b6108c67fdf61d10f6be58b3e0ed416491930633148f1d69eac0d15216050653ea9cb64f560001b610213565b6108d381156102026102c2565b6108ff7f3561e5ca304aeecd8c0fe97c6362eb3b2e4600ec6a071547736fb673cfa1af0f60001b610213565b61092b7f0d37c70e554f600c5c2f9cf23ec8bb835085885fac0a9fdb6610f78e0295de6a60001b610213565b610933610216565b73ffffffffffffffffffffffffffffffffffffffff16632e1a7d4d846040518263ffffffff1660e01b815260040161096b91906122b9565b600060405180830381600087803b15801561098557600080fd5b505af1158015610999573d6000803e3d6000fd5b505050506109c97f32355b29afa01a30e6390ee5e6f1101e69dff0d4de06f828e5153887d88dc85060001b610213565b6109f57f5583e6c94e53e7403f5f8db24b7bf8846150d37047f8d03d67827b6842e8d34760001b610213565b610a1e838373ffffffffffffffffffffffffffffffffffffffff1661160190919063ffffffff16565b610c58565b610a4f7fb8ab688952c60f58e3a27236dc49d4d22032a01a52ce00040bd2330aac17b44360001b610213565b610a7b7faf1bf28aac6608fdba34013640712f62b62dcc168e27810356d17670898e683760001b610213565b610aa77f47fbc7d3642968dbb197d98cf1e260ebaa29b21f9eecdf7cf1acdeb9d78a77dc60001b610213565b6000610ab2856117c1565b9050610ae07f0996c9ee19d17a0f5d9f26943b0c3c89df50ec0464e87ce1645a060a0f8f9c8260001b610213565b610b0c7fbc6309f26b31aae15c3e7fff7da5e02cbc7ccd1dae997ad8f13b8aa8bdec39f960001b610213565b8115610ba657610b3e7fda03d37b251acd1d7923ea017226ce2c0410df3b00a756f95ecacb36b9a7542660001b610213565b610b6a7f36987818689a209429fbf4bdf4a8055a22abf707245e2f7573ead0e71440b11360001b610213565b610b967fc56f07aa5eeb74a5562ba06ce1e62981c638336589fed913469fe7cd933bac7c60001b610213565b610ba1838286610d6c565b610c56565b610bd27f249663e3e815766b595ae72b94b982b0dfd36f609a214581fbeab95ad3a0535d60001b610213565b610bfe7f3bcb7a05433ef0ba8905b46da36fefab6d5e2549f648aaad106e529521e9ab0960001b610213565b610c2a7f41a522d47580420bce7f5f8826540b8a27fcb8efcee990b753f6180aaf5075e560001b610213565b610c5583858373ffffffffffffffffffffffffffffffffffffffff1661184f9092919063ffffffff16565b5b505b5b50505050565b610c8b7f0b145c599f65f3aeecbc58863419a8960b2d70b5bc716e146431ab671bb0ccbb60001b611959565b610cb77f9a9e2b8d27539fe77ed445e95ad50c7e18746427783633c78913507ff268315d60001b611959565b610ce37faeaa1ca9802c3abfa540376b3fe6b2035f403bdd84a58c1cad671790c5e4dcd360001b611959565b610d66846323b872dd60e01b858585604051602401610d0493929190612259565b604051602081830303815290604052907bffffffffffffffffffffffffffffffffffffffffffffffffffffffff19166020820180517bffffffffffffffffffffffffffffffffffffffffffffffffffffffff838183161783525050505061195c565b50505050565b610d987fef298e90db5c6e2b1109174c2cb88c064cca9f6cc3073639ef8d488bc47b8c0560001b61058e565b610dc47fa820e2d5620974503887a7db897f063bd3c95c680abbd211b3856d1c0ff7651e60001b61058e565b610df07f13b89779317a604d4f686c4ddd8fe1c47b6af558311d4dd5ace732c8c4584c2660001b61058e565b806000808573ffffffffffffffffffffffffffffffffffffffff1673ffffffffffffffffffffffffffffffffffffffff16815260200190815260200160002060008473ffffffffffffffffffffffffffffffffffffffff1673ffffffffffffffffffffffffffffffffffffffff16815260200190815260200160002060008282540192505081905550505050565b610eaa7fafbcf8b8ce72c39040bfc4ed1365b0eed1dcfb580795bb93991195bb7caedfaa60001b610213565b610ed67f3892f8a08e913a9e1da03905e8907ece57791412394efd52e082fd48c6283b8160001b610213565b610f027f2412ecd77ce016c503c96bc06b5feec2a6f76b6ccc2854ea22b1c198eafc76d260001b610213565b6000831415610f9457610f377f6a2cc3300414123aecf42104394b8aa3392bc72c6560cc25d1effa3fcbcb9a7560001b610213565b610f637ffbc659115bd9a22070c7e04bb4d85094db65712f54069e21e12f74de0f65ef5660001b610213565b610f8f7f267bcf6d49bdeb56dd0f89820f5087b5094b17aa939df045f4e075774246f18c60001b610213565b61153e565b610fc07fbcbea868641cd5d4bf693514a48e356d0f14882a14d0dd0fe46b2281d6cf5a7760001b610213565b610fec7fa7c9b7212cb87cfb5c053c5808a3b69bee309dff8045867a693ec0767ef355b460001b610213565b6110187fd7474070b5128264a32b24be3a07c724ee99ced0542783dcaff189ebaed45e7d60001b610213565b61102184611544565b156111e3576110527f77f8c1f3195dd4e6e377fb7168de996a5ed4b0c3972f9281be337cd56d56efb260001b610213565b61107e7f59bcd76f80217061c49a552208642e4f09f653bcbc2e14371b3b6fd056980da960001b610213565b6110aa7f87829a97ddfdcef6091a5560918f7206b99a28a2861ad9edfea99b105591a3aa60001b610213565b6110b781156102026102c2565b6110e37f1ce5cd6c76eefadbdc446fd43ce6af15295e08cc62dc8c349c3645592d19e7d360001b610213565b61110f7f445f2c0a84c65b5563b14334af65de2cb11bd495dff29e31450a6651cc31cebc60001b610213565b61111e834710156102046102c2565b61114a7f01bdfe3ceb94dd2611bde2b485fbad1c9fe31362ca5bc075e9fc7f47fdac179060001b610213565b6111767f35f124373616d38cb4d5a5bc3aae00b1c774f0feb8ea9a33a4764d3cbb43bf0d60001b610213565b61117e610216565b73ffffffffffffffffffffffffffffffffffffffff1663d0e30db0846040518263ffffffff1660e01b81526004016000604051808303818588803b1580156111c557600080fd5b505af11580156111d9573d6000803e3d6000fd5b505050505061153d565b61120f7f36813a494b7e2c672a1960344e933946873f207387d693df7739665cb94e34fb60001b610213565b61123b7fa1110cd9f0e9ec390927a6da0a982d9c40a20e5f1b7e8e47dea8cf440bef5e0260001b610213565b6112677f22b6d883536cfec3384bc3a5aca9927d282e5d645747655b4fa4930664b211c760001b610213565b6000611272856117c1565b90506112a07fd8fb8839bebaa9147365b51ebce2a348fa35be5d006ad1ca083f43839163a15660001b610213565b6112cc7fe043633c91c3681cb7be2025ddcba57fe9c12b78ab756bf8135539d0f16a13ec60001b610213565b81156113ca576112fe7f7f185ea77d09dd5c1790bf16587f49bb1fc3916958281b4f532f59c1286d853560001b610213565b61132a7f7b3cbcdf2148ff66cf42501a7c84b06657b87170bf6c5ee833eded04290a271960001b610213565b6113567f31974946fe516e59f1cc3e8e2efcb593f63b8d2cbb0f78185ff119c67eafd78160001b610213565b60006113658483876001611b18565b90506113937fca07fa99c4e7494eca204e147bcef66bd535584ac898938a9142093d4ddf64de60001b610213565b6113bf7f87e2bef81c1f7fc505403f364501187be6c1f077e6d4b29fe9fff44aad95270d60001b610213565b8085039450506113f7565b6113f67f63902df6f31c01b4b22fd07edc1b2b0bba9abe4af6850f5169926ab06ef093d460001b610213565b5b6114237fc3dba5449a3ceef2a1b616c5b936cd3eed48bd1a66f7f41bc303b5c5318d9f9060001b610213565b61144f7f564da3e86ef07fe1afaed22a71a19698c1c6b34bceec6174da93c9ef728b008c60001b610213565b600084111561150e576114847fb33266b7c107992e9492a223f6b82db0c66f44017cc7e6ce4004d9f392e5f82460001b610213565b6114b07fdbab14f309137c52dc3d7039e78b7ab3da0ec00394c0420f697bf3f4bea77b9d60001b610213565b6114dc7fe6de095bc3a823cd914d919a871c5a9b39266316c2d6ac7b2b01fbc28d7b1c3860001b610213565b6115098330868473ffffffffffffffffffffffffffffffffffffffff16610c5f909392919063ffffffff16565b61153b565b61153a7f6b04ea64a972cf4dead8c1b6d51308a1e76cb3c7e00d8af246a08f2a0e37382460001b610213565b5b505b5b50505050565b60006115727f21e6e9a82536528b13c7883bb79967d52382ad39249951ec8ac814ccef79d86f60001b610591565b61159e7f1b61ef0dd245367232683976c663bddbd31984149cfdee5e82218ed86709255a60001b610591565b6115ca7fa07db27be40f1afa660817941a202b8d6a077717ac1c2de7d39676459fd44db360001b610591565b600073ffffffffffffffffffffffffffffffffffffffff168273ffffffffffffffffffffffffffffffffffffffff16149050919050565b61162d7f8ee7a97ffbfeccfdf7f0b23d566a8f0fbef2d4507d6d88412d30c3cfb544baab60001b611d81565b6116597f36a44d967c7e2680159ba8f3a234d7fad26fae1936777ddff4fa7d73573c94aa60001b611d81565b6116857fa97febf5a5e0e4a9cca8eed066f62c97f4299ed9d11e0440c95be9657b7a4e1c60001b611d81565b611694814710156101a36102c2565b6116c07f634f9b4b63e9a5545213e3578af7eaa83c618aec863f8b7411805961c152469760001b611d81565b6116ec7f9a3cd0d71d8a63e15ca23518cef2ffb4c5715b5ba6a958b91a9db13485d5439e60001b611d81565b60008273ffffffffffffffffffffffffffffffffffffffff168260405161171290612244565b60006040518083038185875af1925050503d806000811461174f576040519150601f19603f3d011682016040523d82523d6000602084013e611754565b606091505b505090506117847f68e8522ffb8e5e453ca84780b1806f42e31c990d8621a3d6c889afc32b77d39e60001b611d81565b6117b07fd1cb948738dbc7c1a20d45bd22e3cb905eedb7a0c4f4b6072ce3e8e7b2c0bcf660001b611d81565b6117bc816101a46102c2565b505050565b60006117ef7f96583f1ebf4f990cafb72dd9783cf8ee72b4d2f02e3bc18d6bf241e56d72001060001b610591565b61181b7facbb4a45b4bd16b1e9e057dad7837865824c96203de5746cc24fac924412970a60001b610591565b6118477ff2bf84a89764308b9fa0d29e78a772e3f0e1bc9c01972c86eb847c0e9cd7c99360001b610591565b819050919050565b61187b7f0c30be65a9683c16aceecbfcfba8c2d92dcc7c80b0f36b76b81f7f2ce7bdd34d60001b611959565b6118a77f77dcfa1de2e819f5686b2e9ea49a0d1fa6a1a52f0e5c05958f40c020b5e28fe560001b611959565b6118d37f424b37de078654578e920afec2d135ac126ac9e4d8c5d991f6574ad131991e2660001b611959565b6119548363a9059cbb60e01b84846040516024016118f2929190612290565b604051602081830303815290604052907bffffffffffffffffffffffffffffffffffffffffffffffffffffffff19166020820180517bffffffffffffffffffffffffffffffffffffffffffffffffffffffff838183161783525050505061195c565b505050565b50565b6119887fc73e8649ad0ef875b1e018771227cf894f706428d24fb306d332cb64b663bde260001b611959565b6119b47f5995e4ac6861bea4ec3dd78d65f64f09caaffdeba4cd04c1ef9414b2e767a94e60001b611959565b6119e07ff0e8e33d2a56f579900eef6285e73397023cebacf08b2a9d5a8286d82842475d60001b611959565b600060608373ffffffffffffffffffffffffffffffffffffffff1683604051611a09919061222d565b6000604051808303816000865af19150503d8060008114611a46576040519150601f19603f3d011682016040523d82523d6000602084013e611a4b565b606091505b5091509150611a7c7f6ad5e3f8c1e3e5c81d3da55aafebdde96316b7f9c2c2230c7facd9f79eef3ce860001b611959565b6000821415611a8f573d6000803e3d6000fd5b611abb7fb958f400fa826471aff355a8cca63ec547811ec79f0dde05c0a50c93dbf8ef4660001b611959565b611ae77f51db9918a38ecf7bbe13ee24e10adb6d30a55e9b1fa4b7b2b4e286335a3634ed60001b611959565b611b12600082511480611b0a575081806020019051810190611b0991906120ac565b5b6101a26102c2565b50505050565b6000611b467f944e0b964a05ea5afa62700bd866dac23cf014ed89b05d26ddbd63714c8b189760001b61058e565b611b727f106545c7043327f9cf8af674ff6d67d61828213c8234101532733244b431b93260001b61058e565b611b9e7f92eac6a3809d776a1759310a4de91df8d2708b0db70d233d7ac9fbea41901de660001b61058e565b60008060008773ffffffffffffffffffffffffffffffffffffffff1673ffffffffffffffffffffffffffffffffffffffff16815260200190815260200160002060008673ffffffffffffffffffffffffffffffffffffffff1673ffffffffffffffffffffffffffffffffffffffff168152602001908152602001600020549050611c4a7f169b164bda5cef8bae91916e772eda9fe770f27c57c70c27e14bb9defae8a7db60001b61058e565b611c767feaee879a5b96ec05f6341316f545449b6009acd5ecf33fc7441ddb41868ff4d460001b61058e565b82611c815783611c8c565b611c8b8185611d84565b5b9150611cba7fcf19eb2b7c71cb8a7789f6d6bad4d5bed9d88c4dd422b7e2dd4ebf3fbcf9d8d760001b61058e565b611ce67fc01c253ed81b4a170515f46949320af8048cf41a283708b23356849a0d202d8d60001b61058e565b611cf98282611e2190919063ffffffff16565b6000808873ffffffffffffffffffffffffffffffffffffffff1673ffffffffffffffffffffffffffffffffffffffff16815260200190815260200160002060008773ffffffffffffffffffffffffffffffffffffffff1673ffffffffffffffffffffffffffffffffffffffff1681526020019081526020016000208190555050949350505050565b50565b6000611db27f2d034d9f0d603fd2f28a33782f83a22a1381734411ce34f64374dae38d3802f160001b611f76565b611dde7fa469969722a6ff89f5be345535f9a661d7402990e0456929f57b04107b80f77c60001b611f76565b611e0a7fa36a26ffcde45d6bf25fce8da1458ad505fe14f3c2c2f13cb4d59fd56eab4c9a60001b611f76565b818310611e175781611e19565b825b905092915050565b6000611e4f7f4ad272e8ef896cf9749bbb33b720ec50902be1d6268b31d272f37eeffc01139760001b611f76565b611e7b7ff5b8f6315ed04f6f880d15c913444893b354f451e1a7755f980256aa3a67eb1b60001b611f76565b611ea77fbdc5b111411beb8ab6b53375bbc8bf4e74258c8c8f4987a4928ce54801c48b0060001b611f76565b611eb58383111560016102c2565b611ee17f878d38a5a5b3291f5b62618821c286b1ce4d8ac1fde0f5c52c6f8b253e3c721860001b611f76565b611f0d7fdee8db45952fd0881a888ce099e6774ada46e04a8240c739354e8b594734d0b160001b611f76565b60008284039050611f407fa883eec5840f8062e57d5a86c35fd0af17f6df22b4081b6a3676dd71088ac1e360001b611f76565b611f6c7fc44e06103de1985a150207dd6e5102796da4ff917908533e00a2fd2e75a52f9460001b611f76565b8091505092915050565b50565b600081359050611f88816123a5565b92915050565b600081359050611f9d816123bc565b92915050565b600081359050611fb2816123d3565b92915050565b600081519050611fc7816123d3565b92915050565b600081359050611fdc816123ea565b92915050565b600081359050611ff181612401565b92915050565b60008135905061200681612418565b92915050565b60008135905061201b8161242f565b92915050565b6000806040838503121561203457600080fd5b600061204285828601611f79565b925050602061205385828601611ff7565b9150509250929050565b60008060006060848603121561207257600080fd5b600061208086828701611f79565b935050602061209186828701611ff7565b92505060406120a28682870161200c565b9150509250925092565b6000602082840312156120be57600080fd5b60006120cc84828501611fb8565b91505092915050565b6000602082840312156120e757600080fd5b60006120f584828501611fcd565b91505092915050565b6000806000806080858703121561211457600080fd5b600061212287828801611fe2565b94505060206121338782880161200c565b935050604061214487828801611f8e565b925050606061215587828801611fa3565b91505092959194509250565b6000806000806080858703121561217757600080fd5b600061218587828801611fe2565b94505060206121968782880161200c565b93505060406121a787828801611f79565b92505060606121b887828801611fa3565b91505092959194509250565b6121cd816122ea565b82525050565b60006121de826122d4565b6121e881856122df565b93506121f8818560208601612372565b80840191505092915050565b60006122116000836122df565b9150600082019050919050565b61222781612368565b82525050565b600061223982846121d3565b915081905092915050565b600061224f82612204565b9150819050919050565b600060608201905061226e60008301866121c4565b61227b60208301856121c4565b612288604083018461221e565b949350505050565b60006040820190506122a560008301856121c4565b6122b2602083018461221e565b9392505050565b60006020820190506122ce600083018461221e565b92915050565b600081519050919050565b600081905092915050565b60006122f582612348565b9050919050565b600061230782612348565b9050919050565b60008115159050919050565b6000819050919050565b600061232f826122ea565b9050919050565b6000612341826122ea565b9050919050565b600073ffffffffffffffffffffffffffffffffffffffff82169050919050565b6000819050919050565b60005b83811015612390578082015181840152602081019050612375565b8381111561239f576000848401525b50505050565b6123ae816122ea565b81146123b957600080fd5b50565b6123c5816122fc565b81146123d057600080fd5b50565b6123dc8161230e565b81146123e757600080fd5b50565b6123f38161231a565b81146123fe57600080fd5b50565b61240a81612324565b811461241557600080fd5b50565b61242181612336565b811461242c57600080fd5b50565b61243881612368565b811461244357600080fd5b5056fea2646970667358221220d6543fb82604ca760a485e8363a128678ac5e275545ea5881881093e7070139064736f6c63430007010033",
  "linkReferences": {},
  "deployedLinkReferences": {}
}