{
  "_format": "hh-sol-artifact-1",
  "contractName": "MockAssetTransfersHandler",
  "sourceName": "contracts/balancer-core-v2/test/MockAssetTransfersHandler.sol",
  "abi": [
    {
      "inputs": [
        {
          "internalType": "contract IWETH",
          "name": "weth",
          "type": "address"
        }
      ],
      "stateMutability": "nonpayable",
      "type": "constructor"
    },
    {
      "inputs": [
        {
          "internalType": "bytes32",
          "name": "c__0x1e06f53c",
          "type": "bytes32"
        }
      ],
      "name": "c_0x1e06f53c",
      "outputs": [],
      "stateMutability": "pure",
      "type": "function"
    },
    {
      "inputs": [
        {
          "internalType": "bytes32",
          "name": "c__0x39781c2d",
          "type": "bytes32"
        }
      ],
      "name": "c_0x39781c2d",
      "outputs": [],
      "stateMutability": "pure",
      "type": "function"
    },
    {
      "inputs": [
        {
          "internalType": "bytes32",
          "name": "c__0xa444a864",
          "type": "bytes32"
        }
      ],
      "name": "c_0xa444a864",
      "outputs": [],
      "stateMutability": "pure",
      "type": "function"
    },
    {
      "inputs": [
        {
          "internalType": "address",
          "name": "account",
          "type": "address"
        },
        {
          "internalType": "contract IERC20",
          "name": "token",
          "type": "address"
        },
        {
          "internalType": "uint256",
          "name": "amount",
          "type": "uint256"
        }
      ],
      "name": "depositToInternalBalance",
      "outputs": [],
      "stateMutability": "nonpayable",
      "type": "function"
    },
    {
      "inputs": [
        {
          "internalType": "address",
          "name": "account",
          "type": "address"
        },
        {
          "internalType": "contract IERC20",
          "name": "token",
          "type": "address"
        }
      ],
      "name": "getInternalBalance",
      "outputs": [
        {
          "internalType": "uint256",
          "name": "",
          "type": "uint256"
        }
      ],
      "stateMutability": "view",
      "type": "function"
    },
    {
      "inputs": [
        {
          "internalType": "contract IAsset",
          "name": "asset",
          "type": "address"
        },
        {
          "internalType": "uint256",
          "name": "amount",
          "type": "uint256"
        },
        {
          "internalType": "address",
          "name": "sender",
          "type": "address"
        },
        {
          "internalType": "bool",
          "name": "fromInternalBalance",
          "type": "bool"
        }
      ],
      "name": "receiveAsset",
      "outputs": [],
      "stateMutability": "payable",
      "type": "function"
    },
    {
      "inputs": [
        {
          "internalType": "contract IAsset",
          "name": "asset",
          "type": "address"
        },
        {
          "internalType": "uint256",
          "name": "amount",
          "type": "uint256"
        },
        {
          "internalType": "address payable",
          "name": "recipient",
          "type": "address"
        },
        {
          "internalType": "bool",
          "name": "toInternalBalance",
          "type": "bool"
        }
      ],
      "name": "sendAsset",
      "outputs": [],
      "stateMutability": "nonpayable",
      "type": "function"
    },
    {
      "stateMutability": "payable",
      "type": "receive"
    }
  ],
  "bytecode": "0x60a06040523480156200001157600080fd5b506040516200268c3803806200268c833981810160405281019062000037919062000164565b806200006c7f013d028b605e144ad0543b3a03b5964c94038553f0521804c4b62738963b07e560001b6200014760201b60201c565b620000a07f7e9643a0f0f3e186bcd8b42fb5a81d433d5de7d3a7923fbe522d8b5a025065a560001b6200014760201b60201c565b620000d47f0844c661234126a043ee272f506f12325218a985f8067bb5773802b80236d3de60001b6200014760201b60201c565b8073ffffffffffffffffffffffffffffffffffffffff1660808173ffffffffffffffffffffffffffffffffffffffff1660601b8152505050620001407f3e233d61b75ae955f5287398f79248878f5ecdd3e8fee5c1a328f541aa60915260001b6200014a60201b60201c565b50620001f2565b50565b50565b6000815190506200015e81620001d8565b92915050565b6000602082840312156200017757600080fd5b600062000187848285016200014d565b91505092915050565b60006200019d82620001b8565b9050919050565b6000620001b18262000190565b9050919050565b600073ffffffffffffffffffffffffffffffffffffffff82169050919050565b620001e381620001a4565b8114620001ef57600080fd5b50565b60805160601c61247c620002106000398061029e525061247c6000f3fe6080604052600436106100745760003560e01c80638a65d2e01161004e5780638a65d2e01461016857806390c185ae146101a5578063a4666443146101ce578063e65f9702146101f7576100e8565b806314dfb7f9146100ed5780631f51af7d146101165780636e06f5831461013f576100e8565b366100e8576100a57fb8552391198fcac9f27c5c99e5a9ef15e025b9f5cdcdd1bdf73d28b2c0fed5b760001b610213565b6100e66100b0610216565b73ffffffffffffffffffffffffffffffffffffffff163373ffffffffffffffffffffffffffffffffffffffff16146102066102c2565b005b600080fd5b3480156100f957600080fd5b50610114600480360381019061010f91906120d5565b6102d5565b005b34801561012257600080fd5b5061013d600480360381019061013891906120fe565b6102d8565b005b34801561014b57600080fd5b50610166600480360381019061016191906120d5565b610213565b005b34801561017457600080fd5b5061018f600480360381019061018a9190612021565b61036e565b60405161019c91906122b9565b60405180910390f35b3480156101b157600080fd5b506101cc60048036038101906101c7919061205d565b610478565b005b3480156101da57600080fd5b506101f560048036038101906101f091906120d5565b610591565b005b610211600480360381019061020c9190612161565b610594565b005b50565b60006102447f8245b79f6bcb846eeb8dc205799ad8d040ccce3a1457895949aaee86aac84ef060001b610591565b6102707f3a8f2aef87325f1b9e1356146152a3f280aa056d445a810382df6b5c67117e1c60001b610591565b61029c7fb337c9a52dc1a1a52cbfc6319b8fe849e5f713f5ca82c069dad147710b3b7d2c60001b610591565b7f0000000000000000000000000000000000000000000000000000000000000000905090565b816102d1576102d08161062a565b5b5050565b50565b6103047f62f660343cd9d46be40bec2f845290146ec5b5189b8859d8d454b53ee5e2c8c060001b6102d5565b6103307fd5e72b780cb6cea166a04f12543df081b2ec47889ab5b1e2f16bd8e64c9568f960001b6102d5565b61035c7f085fbbac9969b222af677e630d85ca27d8d55884fcb42177081afa821980309260001b6102d5565b6103688484848461069a565b50505050565b600061039c7f518b71464aa4e7dd855fbd92ca6b1c9cb79f98156224422404dff07d4051497760001b6102d5565b6103c87f56038216d826c2dbc13adff567f9458f131b0ab4a710381cceb88acf205b955a60001b6102d5565b6103f47f417309c571b9c82b9d375cdecbc7651d2a6daccbb07f45b27ec5d85cc4ee957360001b6102d5565b6000808473ffffffffffffffffffffffffffffffffffffffff1673ffffffffffffffffffffffffffffffffffffffff16815260200190815260200160002060008373ffffffffffffffffffffffffffffffffffffffff1673ffffffffffffffffffffffffffffffffffffffff16815260200190815260200160002054905092915050565b6104a47fe8be8d1e5f20ee95ef87370ca75ec2ae576c362a8625ee3c1bd77deac0207f0060001b6102d5565b6104d07f3f2450f275df85575c64ca70280c507a431c25ba88db2e88ca1880be76c2f88460001b6102d5565b6104fc7f78d57ca1dbc0cb90b7f1b769bd6344fa5dcfbefd72a2c8707e82dfef255b50be60001b6102d5565b6105298330838573ffffffffffffffffffffffffffffffffffffffff16610c5f909392919063ffffffff16565b6105557f3fe2b38415d8cc5e550c6fa29e746319370e7641929bfd0f5d37913821b66cc760001b6102d5565b6105817f2156c3f7caa2efd06777d449e11c72ea5981d2f7919456746e83762d49c6c19260001b6102d5565b61058c838383610d6c565b505050565b50565b6105c07f4864eb7a65c14d61f9dce1ec09f8660e7a17f07f33363541f4716ab182c713fd60001b6102d5565b6105ec7f9556343eee2cf45e632352cc733d719c129f5231d1f80300cc7332fc5c1d32d360001b6102d5565b6106187f730b79bac1ab07388fcd781b4b72ce8868d65988eef34e89c178755f8c3837a460001b6102d5565b61062484848484610e7e565b50505050565b6030600a820601600a820491506030600a830601600a830492506030600a8406018060101b8260081b8401016642414c230000000160c81b7f08c379a000000000000000000000000000000000000000000000000000000000600052602060045260076024528060445260646000fd5b6106c67fc2ab6b4585f2b7c6c92d06cd86e699864dd743f2732fd32cf20893a01ce52c1160001b610213565b6106f27fdc524857c0eb34ead074888af3e322eb97f3c8f4ddab11137fd4ba93345cde8260001b610213565b61071e7fc598b9fa6cda7c444df2b99da99102cd5f69c1f5a6b0bcc451606d5c1b4a634d60001b610213565b60008314156107b0576107537f1daf67c4e423eedd817904594cd4dd58bf383cb7e434b206bff5c385ef31f8e960001b610213565b61077f7f92761f7dab73c22ad758cc18ba71efda6b217b1bfab45a28ad22b2376e156a1760001b610213565b6107ab7f07bad023a5affa4004df1614f0ef7dc1900a994fa3e4d5d1d3e15ee1f962d2a860001b610213565b610c59565b6107dc7fda023f5a50b2f367c04d12d1f0d6608a2364d808d772960af991d2594b39843a60001b610213565b6108087f4bfc6e1e3105fad4ddd578ef1567031e1b4eb493f2ab50c2c5ac5e4a5037c5c660001b610213565b6108347fc1f0be4ec7c24f70a7a4dde835b4f7fff070c867c97a53e89b58b7fd935664b060001b610213565b61083d84611544565b15610a235761086e7f3465b11948556fae9dd372e0f9091c50af55700f69879c62e25fe4d03ecf50f460001b610213565b61089a7f1e09e9158cb18ef17a0452e3277acae86ecde9f72e01beae5262b4679a55937160001b610213565b6108c67fbd9554b56bdfcef46f0bfafc2bf92650225316ed79a53acd402fb8729413710060001b610213565b6108d381156102026102c2565b6108ff7f1c303a26503223002f61885aac1afc3b9990bb4374a53328c587244ad2cc019560001b610213565b61092b7ff6d76fc9b67c6eb23a6a9854af88a7486650f8896c7d3aa0d80f6f5ffdb1749660001b610213565b610933610216565b73ffffffffffffffffffffffffffffffffffffffff16632e1a7d4d846040518263ffffffff1660e01b815260040161096b91906122b9565b600060405180830381600087803b15801561098557600080fd5b505af1158015610999573d6000803e3d6000fd5b505050506109c97fdb68488ed0bad873222a7467baa2dd1a8dbe6a8f28e26a2874d83bea13b41a4860001b610213565b6109f57fd023328d20631007c46a603df07dc0f4c8fadc3474c7faa790881a5370dd76d060001b610213565b610a1e838373ffffffffffffffffffffffffffffffffffffffff1661160190919063ffffffff16565b610c58565b610a4f7f79d643addb1a85a5ab054425e240399ca30473b842e2ba082a35b3dd3ca05e7e60001b610213565b610a7b7fa98bf6e164a9235cb29d79b54abb1ee4fdccdafbbc8329cc61fe4e2b744d149560001b610213565b610aa77ffd454a4b56bb7e4b919ab0da36602e8928018b8fdb4cc77881e4856055b6d2d760001b610213565b6000610ab2856117c1565b9050610ae07fbd29dbd98e6fc235d2259562acc7635f255f64afa1affdffb99321347ca31d2160001b610213565b610b0c7f89c676938419b9c2e9207457bd12802bb05df3514ca6c625bb557ef69256614e60001b610213565b8115610ba657610b3e7f6c6892cfc72c615dd8bbf0a7baa057af75bd33609d29fefe5ef9617a13d2154960001b610213565b610b6a7fc69861007421dba2d3cd50827211949c266ffdf9aa4e99e367558e46877bd56860001b610213565b610b967f7069dda4d1231ad3273fc6fd22710da63c9af96f112e9017e18cac47a380bce360001b610213565b610ba1838286610d6c565b610c56565b610bd27f553d81a2a2dc5eb3a7f1afec3c4860335f05fb7e1edef46b9c4fe4763547868760001b610213565b610bfe7fcf4e5a1a5aa937a12b23cb7f7b04c0e21f1bc3f830e6b406711b4943fd27eb1160001b610213565b610c2a7f19976ffc7b7163991f8c0594e9da5627c502e562ed3954e6c0b1ba087e70af2b60001b610213565b610c5583858373ffffffffffffffffffffffffffffffffffffffff1661184f9092919063ffffffff16565b5b505b5b50505050565b610c8b7ff1c5604c0b56ce8554ce52bbda695c271474978aeb0ec91b1d762bd506d1460460001b611959565b610cb77fb1ecb796a661dbfb70fef014866d776da588e93b1df126c25eb4dbe1310d5d2460001b611959565b610ce37fbb44eb997264ed51142889523101a08af12a5351bff96e00f9967395133a2c6c60001b611959565b610d66846323b872dd60e01b858585604051602401610d0493929190612259565b604051602081830303815290604052907bffffffffffffffffffffffffffffffffffffffffffffffffffffffff19166020820180517bffffffffffffffffffffffffffffffffffffffffffffffffffffffff838183161783525050505061195c565b50505050565b610d987f2b2fa7d39c5ef7e30b0429f88665522782f36d9d81b0aa43c44894789cac5b6860001b6102d5565b610dc47f810b81b07f52fd7ca9284a9819915def98960e47a82b9d5408562bab01a92bf660001b6102d5565b610df07f4b462c4db997f525db5add94f3bd3608430a8965cae93fb4ec76d0c21b658a9760001b6102d5565b806000808573ffffffffffffffffffffffffffffffffffffffff1673ffffffffffffffffffffffffffffffffffffffff16815260200190815260200160002060008473ffffffffffffffffffffffffffffffffffffffff1673ffffffffffffffffffffffffffffffffffffffff16815260200190815260200160002060008282540192505081905550505050565b610eaa7f131ba9da83c9c248f1d5d25026b3c74d94d793a793f87279682051221335484d60001b610213565b610ed67f4a35b703574ec747b1cdecaaba8a139c1abb895b15427194e7fc40f7ce0f7a6460001b610213565b610f027f2a9ea0ffde637ad670d504c15370be3454e9d087d2b891f972a1b9398fa58dcc60001b610213565b6000831415610f9457610f377fe8b836c7c091abd39456479e2a2ee4c49d8e7b2ad8c599278308ebe1033aad6860001b610213565b610f637f71d97ec097b5d88266ddd61b385352561c5c8542f5333d64890701c6f1567ff660001b610213565b610f8f7fc4ac04059f041ce5f539786423c8f383fc447471d1c69fa97a26d6b9f5be30ac60001b610213565b61153e565b610fc07fdc5a7355b5d10b811ef3b071451d6bb8bb8cf94f833cb698daf96e997464b05d60001b610213565b610fec7f1d97cd5a38fa2ea9e7322b9f7a2d86464421642609060b7875930d17c964f52c60001b610213565b6110187fcda12f13c1844abdcb919fc23e0274f6b5970df1633d75d9bca24e7a0116700d60001b610213565b61102184611544565b156111e3576110527fc0becf823c0b2398744cd521dd473f268c364f7e45218edf53c2eb47dc87856d60001b610213565b61107e7ff7c48fe7dbddaf2b08704585d865f1e41cf470a84927b8100086bd5d3a3f686360001b610213565b6110aa7fd0c4d5c7781dc6f96b938fe1486967a42ed2c965a6a375024f52c8cca9c6f99960001b610213565b6110b781156102026102c2565b6110e37f10245f628088b73d655c6bbc842fc9bdf7404294804584b1ed8ab0a267a9756d60001b610213565b61110f7f2984999217fa343c63ca09b0ffeedfc3594cf8932b7343493c27af71f45ddde960001b610213565b61111e834710156102046102c2565b61114a7f7cd53965b02f25b9c48fd9b851d97834386e35e7acf2f362b3b7641adb29bc9360001b610213565b6111767f911de1d0fd250369df19596781d290c98467d75d95b916f6a64989420aaac82560001b610213565b61117e610216565b73ffffffffffffffffffffffffffffffffffffffff1663d0e30db0846040518263ffffffff1660e01b81526004016000604051808303818588803b1580156111c557600080fd5b505af11580156111d9573d6000803e3d6000fd5b505050505061153d565b61120f7f8d32ebd36bc256a0e14311726a0829d958840edbd0b00c2c278aaa06d59bd66d60001b610213565b61123b7fa34001ab46b7ed799e73f2fb86be3ffcb8faa56e7ed826b31607d7a8c7a5dfba60001b610213565b6112677f1ed1703dbc52ba9632b94dd571affa941622503f5bc7052fa19eee3947cdf92160001b610213565b6000611272856117c1565b90506112a07f224834173ff2598b43124e8f5b8f50514cbe8244b49a3598912c579f0602d62060001b610213565b6112cc7f9633c70ef8795147a46a07035372d9cb2f2af62eea0eb8445fa23c38b888754060001b610213565b81156113ca576112fe7f81210d7d595a3bb05c1e5370bda0fd1bf43d689a1068d4b6e30f3a8bb6d1ed7360001b610213565b61132a7fb6c348707b8dc536e5472dc94ad05764f373a0edecf9b02ea05078ffbc99d39460001b610213565b6113567f9dab7f787822e546a93fecf13a34dd8c461a11d863ab1a73cde92ca5d20bbfe460001b610213565b60006113658483876001611b18565b90506113937f304cab69ca28157ee57e56542c5c02a36e060ba006129040c630470247559b0d60001b610213565b6113bf7f9e36caa1463e2cc05882cb7a7608915476635e6e7b6c818e726c9e829e6c653e60001b610213565b8085039450506113f7565b6113f67fc26505ddd8691703ee148fd59a34feebc126e50fdd777497858a928bb66ef75460001b610213565b5b6114237fcf181e4606fc519dfbcab83a6eeb7ef86d35a000850c58b3cb4ccbed3bc007f460001b610213565b61144f7f4bed44365fdc3e145f93fd5227bdb6e362e789f643215712b47090716f3aab6560001b610213565b600084111561150e576114847f0b0d2bd23d327aed7ad628585b61e2454625a02d28cff29bdb71f3af71311b0960001b610213565b6114b07f686a2103c24bb155508f938d3d6015059d0b4ecb2b8d71bda964e22c434a0ce360001b610213565b6114dc7f30303506d2d13a8bdd49a360433673e12b3a3b6540397f28ebe2166e9291c99360001b610213565b6115098330868473ffffffffffffffffffffffffffffffffffffffff16610c5f909392919063ffffffff16565b61153b565b61153a7f9b479a0233c31834b03f7a32dd4b249e72eb8f37b439573394f794f816f7d90060001b610213565b5b505b5b50505050565b60006115727feb44165fe5222fd8fc06bdaeb547ee3bff71d9e9eaa5e9acf66becbda842d09f60001b610591565b61159e7fe3ad10eba48dcc8f63f6e234edd95a6c642ba7336c519d1c6a83929db4ad6c5d60001b610591565b6115ca7f9470660fb4d6408af8ad415aefdc73d088a428f47b0b1f1c3ecf248636b7f3bd60001b610591565b600073ffffffffffffffffffffffffffffffffffffffff168273ffffffffffffffffffffffffffffffffffffffff16149050919050565b61162d7f3fca94513a387edd866b2de054b10ef342d127cf5fae78efd8ed2010f08c216660001b611d81565b6116597f3897e74b8cfa9a21b1a1f815bba574c6d3889c44fb049b5c0347f3542185d31460001b611d81565b6116857fe7e1d0dd1f81111473a3cbb76e6a0d270646e34cc2de1374cfeecc99dc957aae60001b611d81565b611694814710156101a36102c2565b6116c07fbd650d338eec540571522c845875f51e474f2e7371bbfa4e30e3c5b9a9c680e660001b611d81565b6116ec7fa3e4330ed5bf26ff31f556a3fbb4eebb5db8cfccbf7bd1a7be8e1be122ff044760001b611d81565b60008273ffffffffffffffffffffffffffffffffffffffff168260405161171290612244565b60006040518083038185875af1925050503d806000811461174f576040519150601f19603f3d011682016040523d82523d6000602084013e611754565b606091505b505090506117847f8e068e0777c481f69784bbe302ec143fd3a720d7d3fd9673f0bda7c0a7cb48bd60001b611d81565b6117b07fee10694a421b7003a690f8f6e56dee41f905b9dc91527b0991fb4acbdda121cc60001b611d81565b6117bc816101a46102c2565b505050565b60006117ef7fd326dbd782765a9d6f5e249c9577b68bdcdee3d9a9827d6ecc4168aeb641ce7c60001b610591565b61181b7fd933192cbff1eb425ff76cda7b57f22a8c984f044fef08c493b1171b6a89334e60001b610591565b6118477fa7a9b1b21f01d47e3ba696e215e0bcf458517839aa8304b31a2f3fc51aeb321860001b610591565b819050919050565b61187b7f826b3c2d923005c2743ec081c6e629f85e7b09506139153a93935e6e8ecb28ab60001b611959565b6118a77f800e347e3e58022c658f648bed4d23cb6b3af8034b0337fb821c3c5b2c80068b60001b611959565b6118d37f40ad77c5d047e729da7f0083b41e58b8b25572e7f27c7a1ea1474ce159e69f7e60001b611959565b6119548363a9059cbb60e01b84846040516024016118f2929190612290565b604051602081830303815290604052907bffffffffffffffffffffffffffffffffffffffffffffffffffffffff19166020820180517bffffffffffffffffffffffffffffffffffffffffffffffffffffffff838183161783525050505061195c565b505050565b50565b6119887f37a83b59fae1074b14d9f482cc90a27d1264db69cbe4cac9207e87f75c12bd4960001b611959565b6119b47fe9e63da1694b1fea95382f8746327af340d91196254ff97512c12a96fcd5e97160001b611959565b6119e07f897e3dad2a9a6a35640eb029e2738d7e6183eaff3f61136653368db2fd29c3f360001b611959565b600060608373ffffffffffffffffffffffffffffffffffffffff1683604051611a09919061222d565b6000604051808303816000865af19150503d8060008114611a46576040519150601f19603f3d011682016040523d82523d6000602084013e611a4b565b606091505b5091509150611a7c7f78efc5d4151a293a6f454a45a34ba50a9f141b83db3fff9190727605df43933560001b611959565b6000821415611a8f573d6000803e3d6000fd5b611abb7f8c72ea9591f6650733f56067de267801b32361942ff6960b908a6a839b15555160001b611959565b611ae77f3a0300b5edcfe17b09d299fe0a8352dfda68dbec55ec758e345ba8c70305588160001b611959565b611b12600082511480611b0a575081806020019051810190611b0991906120ac565b5b6101a26102c2565b50505050565b6000611b467f5067375e2e0c2a51cf7d62776bcc7a7f3d3133b7d8e63b51b8f84cfa8082ce3560001b6102d5565b611b727fbc154ffa0846d648604fe830e5404748ab6aef264a2ce429c51bd2a0118b8be460001b6102d5565b611b9e7fca5aab62d857c90c92e140166a018175831a7b402beceee0bfd67f033f1bac3860001b6102d5565b60008060008773ffffffffffffffffffffffffffffffffffffffff1673ffffffffffffffffffffffffffffffffffffffff16815260200190815260200160002060008673ffffffffffffffffffffffffffffffffffffffff1673ffffffffffffffffffffffffffffffffffffffff168152602001908152602001600020549050611c4a7fa172901f4d1b38f3b81d292b2f1822de4e9d18eb75c16411edd3494cd1793f9e60001b6102d5565b611c767f897ac2b6ab0bdaaf4f3254c8f0028941b3ce103812a79589ea96251e9dec072360001b6102d5565b82611c815783611c8c565b611c8b8185611d84565b5b9150611cba7f14a8108b94654ab3e16c6aaf88ef6c41ba65a52fb2f50a3bdbf1c26d92a9215360001b6102d5565b611ce67f698216f6c8f5fbc87435111ad804dd5697b3fbe08d90b3bd04e3e602acecf3aa60001b6102d5565b611cf98282611e2190919063ffffffff16565b6000808873ffffffffffffffffffffffffffffffffffffffff1673ffffffffffffffffffffffffffffffffffffffff16815260200190815260200160002060008773ffffffffffffffffffffffffffffffffffffffff1673ffffffffffffffffffffffffffffffffffffffff1681526020019081526020016000208190555050949350505050565b50565b6000611db27f87b20573cb952b5fea5419a3ccff88d82933146dfc9c31bbeab25654d5192a4e60001b611f76565b611dde7ffaa33def688eeaac5fb726c7d96c13e4d19121f18efcd978234b18ee82bf461460001b611f76565b611e0a7fd8455a90419f013f797ee9429a41d22d787b06def38769bc4f97738f976c8a8f60001b611f76565b818310611e175781611e19565b825b905092915050565b6000611e4f7fd3476389c9167915828e1c41fd58b501be617f81bcda7df7905ebaa183b3c4bd60001b611f76565b611e7b7f763e3966e690f5b421dcd041f04b48a1b193ed59a99cfdb60b67ab3dfbf2eab360001b611f76565b611ea77fd040ddffed94a5c3f1ea2412fc14f14911f62630c664bb38108164ba34c6c5bb60001b611f76565b611eb58383111560016102c2565b611ee17fc95d13badf35636a18cef429a1cc30fcff497d0f377233d60d91a54b5222bb6b60001b611f76565b611f0d7f28183ac30fe9ec9460a9d28cb4e04f1c3d89222564c20b044bc81e450ef8cb9760001b611f76565b60008284039050611f407f2996cf182068f32853c4842e48ae8391b1959ea375b654bf401398afae3fb9a460001b611f76565b611f6c7ffd16e19fe244cb693efc31c873bf159b238b28cd50bd7fb58b14e97f7b30750760001b611f76565b8091505092915050565b50565b600081359050611f88816123a5565b92915050565b600081359050611f9d816123bc565b92915050565b600081359050611fb2816123d3565b92915050565b600081519050611fc7816123d3565b92915050565b600081359050611fdc816123ea565b92915050565b600081359050611ff181612401565b92915050565b60008135905061200681612418565b92915050565b60008135905061201b8161242f565b92915050565b6000806040838503121561203457600080fd5b600061204285828601611f79565b925050602061205385828601611ff7565b9150509250929050565b60008060006060848603121561207257600080fd5b600061208086828701611f79565b935050602061209186828701611ff7565b92505060406120a28682870161200c565b9150509250925092565b6000602082840312156120be57600080fd5b60006120cc84828501611fb8565b91505092915050565b6000602082840312156120e757600080fd5b60006120f584828501611fcd565b91505092915050565b6000806000806080858703121561211457600080fd5b600061212287828801611fe2565b94505060206121338782880161200c565b935050604061214487828801611f8e565b925050606061215587828801611fa3565b91505092959194509250565b6000806000806080858703121561217757600080fd5b600061218587828801611fe2565b94505060206121968782880161200c565b93505060406121a787828801611f79565b92505060606121b887828801611fa3565b91505092959194509250565b6121cd816122ea565b82525050565b60006121de826122d4565b6121e881856122df565b93506121f8818560208601612372565b80840191505092915050565b60006122116000836122df565b9150600082019050919050565b61222781612368565b82525050565b600061223982846121d3565b915081905092915050565b600061224f82612204565b9150819050919050565b600060608201905061226e60008301866121c4565b61227b60208301856121c4565b612288604083018461221e565b949350505050565b60006040820190506122a560008301856121c4565b6122b2602083018461221e565b9392505050565b60006020820190506122ce600083018461221e565b92915050565b600081519050919050565b600081905092915050565b60006122f582612348565b9050919050565b600061230782612348565b9050919050565b60008115159050919050565b6000819050919050565b600061232f826122ea565b9050919050565b6000612341826122ea565b9050919050565b600073ffffffffffffffffffffffffffffffffffffffff82169050919050565b6000819050919050565b60005b83811015612390578082015181840152602081019050612375565b8381111561239f576000848401525b50505050565b6123ae816122ea565b81146123b957600080fd5b50565b6123c5816122fc565b81146123d057600080fd5b50565b6123dc8161230e565b81146123e757600080fd5b50565b6123f38161231a565b81146123fe57600080fd5b50565b61240a81612324565b811461241557600080fd5b50565b61242181612336565b811461242c57600080fd5b50565b61243881612368565b811461244357600080fd5b5056fea26469706673582212201c58302d1b91bbe734a6afb80c0d7e8eef28852d4b0fe862bd4816a694a19e3464736f6c63430007010033",
  "linkReferences": {},
  "deployedLinkReferences": {}
}