{
  "_format": "hh-sol-artifact-1",
  "contractName": "TokenFactory",
  "sourceName": "contracts/balancer-core-v2/test/TokenFactory.sol",
  "abi": [
    {
      "inputs": [],
      "stateMutability": "nonpayable",
      "type": "constructor"
    },
    {
      "anonymous": false,
      "inputs": [
        {
          "indexed": true,
          "internalType": "address",
          "name": "token",
          "type": "address"
        }
      ],
      "name": "TokenCreated",
      "type": "event"
    },
    {
      "inputs": [
        {
          "internalType": "bytes32",
          "name": "c__0xfca79b33",
          "type": "bytes32"
        }
      ],
      "name": "c_0xfca79b33",
      "outputs": [],
      "stateMutability": "pure",
      "type": "function"
    },
    {
      "inputs": [
        {
          "internalType": "address",
          "name": "admin",
          "type": "address"
        },
        {
          "internalType": "string",
          "name": "name",
          "type": "string"
        },
        {
          "internalType": "string",
          "name": "symbol",
          "type": "string"
        },
        {
          "internalType": "uint8",
          "name": "decimals",
          "type": "uint8"
        }
      ],
      "name": "create",
      "outputs": [
        {
          "internalType": "address",
          "name": "",
          "type": "address"
        }
      ],
      "stateMutability": "nonpayable",
      "type": "function"
    },
    {
      "inputs": [
        {
          "internalType": "uint256",
          "name": "start",
          "type": "uint256"
        },
        {
          "internalType": "uint256",
          "name": "end",
          "type": "uint256"
        }
      ],
      "name": "getTokens",
      "outputs": [
        {
          "internalType": "address[]",
          "name": "",
          "type": "address[]"
        }
      ],
      "stateMutability": "view",
      "type": "function"
    },
    {
      "inputs": [],
      "name": "getTotalTokens",
      "outputs": [
        {
          "internalType": "uint256",
          "name": "",
          "type": "uint256"
        }
      ],
      "stateMutability": "view",
      "type": "function"
    }
  ],
  "bytecode": "0x608060405234801561001057600080fd5b506100437f36d8098cd585e2a606a0ef202997538a9a2c16fd50fabe64586d524637cb923760001b61004860201b60201c565b61004b565b50565b617164806200005b6000396000f3fe60806040523480156200001157600080fd5b5060043610620000525760003560e01c8063494cfc6c14620000575780637cc47dfa146200008d578063ecbfd4b614620000ad578063f08b82e614620000e3575b600080fd5b6200007560048036038101906200006f919062001a5b565b62000105565b60405162000084919062001e2b565b60405180910390f35b620000ab6004803603810190620000a5919062001a2f565b6200048e565b005b620000cb6004803603810190620000c5919062001991565b62000491565b604051620000da919062001db3565b60405180910390f35b620000ed620009cd565b604051620000fc919062001ed7565b60405180910390f35b6060620001357fd7faf58b02c96d4117f10eae1d4a0e2c7ebb8bebe380930d4ba0866bcf3dd4d160001b6200048e565b620001627eedd5dbe660b41c167715075a9493a0ae97f5f2fa30f82f49af83911e3b3e7a60001b6200048e565b620001907f3c422b93655904165b35664dab3637a53ff08a44b379bd240e9b0e70c233dde060001b6200048e565b620001be7fe2bdaffb63143a5b6fd490cf32090609c7ea1e952a6209876fbafbfb9f7ce90260001b6200048e565b828210158015620001dc5750620001d6600062000a6a565b83830311155b6200021e576040517f08c379a0000000000000000000000000000000000000000000000000000000008152600401620002159062001e4f565b60405180910390fd5b6200024c7f614ae434d8515e66409b540cb7a92b8c595e122d2c3fa5cc8199f4d2488b7beb60001b6200048e565b6200027a7fbdaa23b6bd10eeecd814a3cb5a3dd409366481be8c5d6653908084fe21ecf29060001b6200048e565b620002a87f7d8d3498f93860a2fcc6d5a357c51bdcabcd5b3c73cc53c2f8bc1ee0c24d0b1960001b6200048e565b606083830367ffffffffffffffff81118015620002c457600080fd5b50604051908082528060200260200182016040528015620002f45781602001602082028036833780820191505090505b509050620003257f9ab168d8e84422b2ce77f726b2908c6d2cc67707a14d374fcff9afbba289b3bc60001b6200048e565b620003537fe87e1ad4d6f6da07da5da57859795dc0dd2247ec1e2b31cbc211886da1eff38c60001b6200048e565b60005b815181101562000427576200038e7fdc94cf70fbb12162cc2bd371dfbe8621ed70fecb490825c2ebe0e93ff6c242e760001b6200048e565b620003bc7f47bb72e6a7458707264a40c138a7b3db76dcd1b5c262c4816bd5823c0b46c66660001b6200048e565b620003d4858201600062000b0590919063ffffffff16565b828281518110620003e157fe5b602002602001019073ffffffffffffffffffffffffffffffffffffffff16908173ffffffffffffffffffffffffffffffffffffffff168152505080600101905062000356565b50620004567f495f07dc8ee7b0dbba6b377d480e8a68def79159dc2608c093136fec1328fbaf60001b6200048e565b620004847f36e6267cf65db6eed22e3f22da6f19b67f20922ad42a9723ad303f04f14207bf60001b6200048e565b8091505092915050565b50565b6000620004c17f8a89149764670a2c72058967a24064b3a2dda606122b2173bbe3b06fe1c15ec060001b6200048e565b620004ef7f4fc8ab195907c1c485ca2ce173c25da0a050b375028ef4de09105a2c1b35373060001b6200048e565b6200051d7fe59137500e206e9237e85120095ad5df6f0f204f40bd5cc14f7f00a03b61c98360001b6200048e565b6060604051806020016200053190620018cb565b6020820181038252601f19601f82011660405250868686866040516020016200055e949392919062001dd0565b6040516020818303038152906040526040516020016200058092919062001d8b565b6040516020818303038152906040529050620005bf7f61a2d796ce41ec66930576580aad5605242de4116ea2df94b96df3a0ed7fb1ad60001b6200048e565b620005ed7f2ca3dd17b152f8da7936fd4ad239325492b7936661f6f70533504324f1f6a62560001b6200048e565b6000620006056000801b838051906020012062000c17565b9050620006357face04181b528faa52a825bc10a754573b7611866154b1205de5afdcbd8f3e74360001b6200048e565b620006637f115580d43afd1b51ffea59ca430fe9ff56f05369b1d44aed33c04d96f130ec9d60001b6200048e565b620006848173ffffffffffffffffffffffffffffffffffffffff1662000cb8565b156200071f57620006b87f911b8dee0b0791d765f4c3a98d57c9decb0055e9495dd15944e93ad084c84c5060001b6200048e565b620006e67f0dd38203d074b82718f3f2221cda51d5d4eeea5f82694b008eadc3f30a59bf2c60001b6200048e565b620007147f8d6202825bf92367e403614d3e5a22974f1aa35d7a1519b9a338e99461b7246760001b6200048e565b8092505050620009c5565b6200074d7f7994e4194e9bd80dee1ecb9e0a5eb17448a5e71437189197709c4909ead92a4b60001b6200048e565b6200077b7fdf20365a88e629b9a193b5dc44b4c080d5ff506f8ffa1d09710f052665fdd14660001b6200048e565b620007a97feb3809004bf5833782b6f2df5f69c536bb6c5ae5d4aa478f2ee6bf0a3433982d60001b6200048e565b6000620007bc60008060001b8562000de0565b9050620007ec7fbc8cf3668052572fe47d0710e5b79398537e94f919c472c1422417a0692a678a60001b6200048e565b6200081a7f1c6a47f2241bc28ecc2ad1c4be55d8e46c8bdfac2efb2a520d96ddbe2713743c60001b6200048e565b8173ffffffffffffffffffffffffffffffffffffffff168173ffffffffffffffffffffffffffffffffffffffff16146200085057fe5b6200087e7fa0b56c012e96d15f458c339173332a75101aea3eb106d0faeac2898d3f959a5860001b6200048e565b620008ac7f474305c55a006ba2ee41fdf2cf8759e8907512ccbae0d8e4c1a2563a9dbba5a560001b6200048e565b620008c28160006200123790919063ffffffff16565b50620008f17fa756b3d2de05d266742ed0d452702f88314a57d0cf21e9099e74fe8fa397365f60001b6200048e565b6200091f7fdcea455589e4dca1dcabc1177837200b07df296a23d19d6a30aff43529756d2960001b6200048e565b8073ffffffffffffffffffffffffffffffffffffffff167f2e2b3f61b70d2d131b2a807371103cc98d51adcaa5e9a8f9c32658ad8426e74e60405160405180910390a2620009907f734ad127c87830513b3468e6c12846b77ff583fdd5e1a349a851643d2414ba9060001b6200048e565b620009be7f58d03faae7713c955e799ccbc3d8efad9962bcb61596625caff7782d4d29e50f60001b6200048e565b8093505050505b949350505050565b6000620009fd7f72f6e5379de23c8cf7088e5c825c4844debc650b66d7383823ca21aaeb7adc5960001b6200048e565b62000a2b7f3180b7f8590a9efc428d84b451923acd01a166d734f9fba7a1d4d10e191e87a760001b6200048e565b62000a597fe6f2506e8eabd316f512331fff584a8d937bee375f276dc439f41206a34f6cd760001b6200048e565b62000a65600062000a6a565b905090565b600062000a9a7fc939cb4a358f7de10fbd202b3434882ab905a97465c61be890dcf2b81f594b1a60001b62001566565b62000ac87f3bd586b7682f7d29a4f151a6acf63b75bdca300a4228f5bfd10203a61161b74960001b62001566565b62000af67f7a0ac2bc9371301d946971e3f98e8667807fea30f54e31d677bb8899e1a8fe0960001b62001566565b81600001805490509050919050565b600062000b357f7dea1c1d253cf48e7d588d6480a543ce38b46d776192e327fa8cd0c9c1990ff760001b62001566565b62000b637f58bb2acc91dcb4df2e3f2e89968f750a4165bf4398540b17fb41938d548c2e2060001b62001566565b62000b917f2b7941c0d663b1c0f556cc6d07434c953bbffce3e72a4a2897b04de03086b19060001b62001566565b62000ba782846000018054905011606462001569565b62000bd57f212e61f1d461bf7d5ebc94ff1a36fb0711497c0dcb5773ebe27197b66e89ddba60001b62001566565b62000c037f695081265bdfed30ae8c4949b1e4f2422357dcea410b3f5a7fa727bbccaff4ef60001b62001566565b62000c0f83836200157f565b905092915050565b600062000c477fc231a7fda5a0a8b496ce7d1a2f13ff6a81b97c8b257a3a50f4916c03eead976060001b6200164e565b62000c757f8f224037cf004232d21ebd04bfb21aa8f38966ece7c1c16f6052e7dc3c23d61e60001b6200164e565b62000ca37f914ca283e0e6116284b9fd83fe9f413e84ea616159a8547340b488d47f3ee28960001b6200164e565b62000cb083833062001651565b905092915050565b600062000ce87f845188ff36a346a15bc3fac1ba5515dda0875d46aa7e5260d62bcec51a7f6e5f60001b6200177e565b62000d167f15fcdffb39b06af330a8766bc4f10f4c584bfd1b3451448641834fe35c689b7160001b6200177e565b62000d447f8080f1886f139e6b74ce0ad6845a43a3f4c2d3a300d267dfde829e0a3ea047ac60001b6200177e565b600062000d747f245235d2c3806e57e51bf9270a3c1954b94c4234ac50d78e0f0b2ba46f454e8660001b6200177e565b823b905062000da67f32e2c6b2db312f08f795ef7787716122b5c0ce035ac014a23af615ae2759ec3c60001b6200177e565b62000dd47f99fffe73a1a5a185ae55ea8be81752577a9431b6394898308f9e8274ab91cf2e60001b6200177e565b60008111915050919050565b600062000e107fd78b874e546eeec79ac739da58eb182c178b548214fa614664bb1efcfe7a521160001b6200164e565b62000e3e7f9933a25b9fdc05a26e53450e9d33f7a489ace7985426e842bf39c4a0fca7b48960001b6200164e565b62000e6c7f83549037a12d054d7fccb223a600123a77b0979546d73df2f6f7a3be22acb49760001b6200164e565b600062000e9c7fc7bd8fb88cd828be6256bf20337ad0bee6a94141f785f55004194cdca69c9f1d60001b6200164e565b62000eca7f9a4937bbc352c447ae990357024705083bd19ad1f1e621cdc25f9ad44f5e75ea60001b6200164e565b62000ef87fc84f70c79e94768dc184065204dedc7af65b24363be288d4c4544937c9e482e660001b6200164e565b8447101562000f3e576040517f08c379a000000000000000000000000000000000000000000000000000000000815260040162000f359062001e71565b60405180910390fd5b62000f6c7f97c52da01d40b058fe1c23f7fc290c5b5f14b2d57501cc6d8d6b7827963e43bc60001b6200164e565b62000f9a7f7207eeb26eaed0d76ea0f270e5b31509d5f861ba5bc31c080bf1dfdde3f23b9c60001b6200164e565b62000fc87fc2d34c65c18e149775e8b94a332268265664ac5f271c0d57257df4336dbd490660001b6200164e565b62000ff67f93289a46ccd1d8ca4be87cfc4a756f09ea12fd982608065ad5ad057cfa31585560001b6200164e565b6000835114156200103e576040517f08c379a0000000000000000000000000000000000000000000000000000000008152600401620010359062001eb5565b60405180910390fd5b6200106c7f17d4019ce142d9584aadf09f1a4a6a64aa0153cc9a1eb1dc8bef5451bec2a76060001b6200164e565b6200109a7fb3fefeb06f0450a1fa7b6765328631f0482c25fea6e745731d501962aeed0a9560001b6200164e565b8383516020850187f59050620010d37f26190e1637b0df1c6f2803e578319cfaa2ec0040d81b6e4dc61a51e13b1a939c60001b6200164e565b620011017ffcb733e7123b4aecd7c78f663fe2b117f8e5b08a41b2c1e536e34d9be599862e60001b6200164e565b6200112f7fe7dc5f953d0972d03aa7284d1d730fb2bc50cc5f80d30e5b60720091cf332a1b60001b6200164e565b600073ffffffffffffffffffffffffffffffffffffffff168173ffffffffffffffffffffffffffffffffffffffff161415620011a2576040517f08c379a0000000000000000000000000000000000000000000000000000000008152600401620011999062001e93565b60405180910390fd5b620011d07f036c586b62610e37755ffd19f818b9b2dac061755097a3c689979a0b0cc9ac9560001b6200164e565b620011fe7fb3c59f23f0c9a64d3936309b57e0d8e42861ab189e7bb16aaf5bf9c18c88238060001b6200164e565b6200122c7f0d4629c1dd3f49a49970d3acca444be9df251a0f360d1be8410fbbc4c4d2880860001b6200164e565b809150509392505050565b6000620012677fafc28c8ad46b468274539bc8314e2745dc2d3f7038af583f6c25b345252299ff60001b62001566565b620012957fd65cd8894cd7599d573934ee4e7259bca66b67f4529b86afc85561768ab6331260001b62001566565b620012c37f73d15665ebf97f2ec239c9de9f2d368145ebf8bfc29584cd00c883286bb0b5b760001b62001566565b620012cf838362001781565b620014d157620013027f611dcc30a45c499ce3ad496c52bc2186f0cbc5070a77971fa17d0e3c8aff993460001b62001566565b620013307fa1ffd1a624ba2fc9ad3784e766979c10b69548953e33fdd8d52fd1ad9249db4260001b62001566565b6200135e7f0d3795d19e3ebbfce65a7f6dba4be223b7dfc11d45684a2b8b9639624890e76d60001b62001566565b82600001829080600181540180825580915050600190039060005260206000200160009091909190916101000a81548173ffffffffffffffffffffffffffffffffffffffff021916908373ffffffffffffffffffffffffffffffffffffffff160217905550620013f17f7616d7a05facba46804c61ead3a84857b28996bfef33527f000952dbb1f24fe360001b62001566565b6200141e7ec337f7341aebee30ff50d6368e9a9860da52fa5226dacb871fc4a28004838860001b62001566565b82600001805490508360010160008473ffffffffffffffffffffffffffffffffffffffff1673ffffffffffffffffffffffffffffffffffffffff16815260200190815260200160002081905550620014997f13ba2f78dd7ecaf55a4cc3f8d3e7f93c5cadbc063ffeefb68c7949802b5d3a6e60001b62001566565b620014c77fc0490b09000a2341c56dc8ebb7359ac889a50a807ad657762b431c42ebed81d860001b62001566565b6001905062001560565b620014ff7f4e16a37a129416984b8f77905fffb3105d2d16c5bffcc10366666605395cd0b160001b62001566565b6200152d7fef2de3f863211443d90a1d49147a100c20a57273298331ae7e2cd54c79a3875a60001b62001566565b6200155b7fc9303cbc2544604f1547dd8d81f7d4d4eb689c320fb75389df721b35f0e1d15d60001b62001566565b600090505b92915050565b50565b816200157b576200157a816200185b565b5b5050565b6000620015af7f6ca8b2757ef52d892eb581014eba9645b8866516e51aa7f124ea7d98d9b2b43760001b62001566565b620015dd7f8863d66d3a44ebb6cf0c7daf6176968329c4ced50f1bf66ab11da0b0dcd631a460001b62001566565b6200160b7f26dc9deb5f2e107da3801848bd726309dd8639c3ba47b6fdd4f8c047e8ad920660001b62001566565b8260000182815481106200161b57fe5b9060005260206000200160009054906101000a900473ffffffffffffffffffffffffffffffffffffffff16905092915050565b50565b6000620016817f1c052e728171a7c3855e207dd33a19d90217ee6cc289904916ed9bd5f159ae7660001b6200164e565b620016af7f06443d80cadc2b617d18ba25a61929b427234202611abf5c536a724d996cfcdf60001b6200164e565b620016dd7ffa956a7f339f16c2e429caa3ff15560d885238c90c96c7c18f77d8c62258d2f360001b6200164e565b600060ff60f81b838686604051602001620016fc949392919062001d35565b604051602081830303815290604052805190602001209050620017427ff7466c7e75950a6a40e85a6bdb77d3b942e44de7c3b91dace1ea6c09a282722e60001b6200164e565b620017707feff39137b36484b88ffad174580e8d2a5505d5a2a72fe899a2de2437e05272d060001b6200164e565b8060001c9150509392505050565b50565b6000620017b17f26c9003ff5622b36c455b3a2c7e8ee8219dd1ee06aee5bb7688394f0bf73678160001b62001566565b620017df7f6f417677c8a9f3d1599c594602edcb366521c6a206303cbfe730cb780577f19e60001b62001566565b6200180d7f43227e98846ec640660e022ffd05a933731005a59b7cafa20d1e956c3e0c379f60001b62001566565b60008360010160008473ffffffffffffffffffffffffffffffffffffffff1673ffffffffffffffffffffffffffffffffffffffff168152602001908152602001600020541415905092915050565b6030600a820601600a820491506030600a830601600a830492506030600a8406018060101b8260081b8401016642414c230000000160c81b7f08c379a000000000000000000000000000000000000000000000000000000000600052602060045260076024528060445260646000fd5b614fec806200214383390190565b600081359050620018ea81620020da565b92915050565b6000813590506200190181620020f4565b92915050565b600082601f8301126200191957600080fd5b8135620019306200192a8262001f22565b62001ef4565b915080825260208301602083018583830111156200194d57600080fd5b6200195a8382846200203b565b50505092915050565b60008135905062001974816200210e565b92915050565b6000813590506200198b8162002128565b92915050565b60008060008060808587031215620019a857600080fd5b6000620019b887828801620018d9565b945050602085013567ffffffffffffffff811115620019d657600080fd5b620019e48782880162001907565b935050604085013567ffffffffffffffff81111562001a0257600080fd5b62001a108782880162001907565b925050606062001a23878288016200197a565b91505092959194509250565b60006020828403121562001a4257600080fd5b600062001a5284828501620018f0565b91505092915050565b6000806040838503121562001a6f57600080fd5b600062001a7f8582860162001963565b925050602062001a928582860162001963565b9150509250929050565b600062001aaa838362001ab6565b60208301905092915050565b62001ac18162001fba565b82525050565b62001ad28162001fba565b82525050565b62001aed62001ae78262001fba565b62002080565b82525050565b600062001b008262001f5f565b62001b0c818562001f8d565b935062001b198362001f4f565b8060005b8381101562001b5057815162001b34888262001a9c565b975062001b418362001f80565b92505060018101905062001b1d565b5085935050505092915050565b62001b7262001b6c8262001fce565b62002094565b82525050565b62001b8d62001b878262001ffa565b6200209e565b82525050565b600062001ba08262001f6a565b62001bac818562001f9e565b935062001bbe8185602086016200204a565b80840191505092915050565b600062001bd78262001f75565b62001be3818562001fa9565b935062001bf58185602086016200204a565b62001c0081620020bc565b840191505092915050565b600062001c1a600d8362001fa9565b91507f4f55545f4f465f424f554e4453000000000000000000000000000000000000006000830152602082019050919050565b600062001c5c601c8362001fa9565b91507f435245415445325f494e53554646494349454e545f42414c414e4345000000006000830152602082019050919050565b600062001c9e60158362001fa9565b91507f435245415445325f4445504c4f595f4641494c454400000000000000000000006000830152602082019050919050565b600062001ce060158362001fa9565b91507f435245415445325f42595445434f44455f5a45524f00000000000000000000006000830152602082019050919050565b62001d1e8162002024565b82525050565b62001d2f816200202e565b82525050565b600062001d43828762001b5d565b60018201915062001d55828662001ad8565b60148201915062001d67828562001b78565b60208201915062001d79828462001b78565b60208201915081905095945050505050565b600062001d99828562001b93565b915062001da7828462001b93565b91508190509392505050565b600060208201905062001dca600083018462001ac7565b92915050565b600060808201905062001de7600083018762001ac7565b818103602083015262001dfb818662001bca565b9050818103604083015262001e11818562001bca565b905062001e22606083018462001d24565b95945050505050565b6000602082019050818103600083015262001e47818462001af3565b905092915050565b6000602082019050818103600083015262001e6a8162001c0b565b9050919050565b6000602082019050818103600083015262001e8c8162001c4d565b9050919050565b6000602082019050818103600083015262001eae8162001c8f565b9050919050565b6000602082019050818103600083015262001ed08162001cd1565b9050919050565b600060208201905062001eee600083018462001d13565b92915050565b6000604051905081810181811067ffffffffffffffff8211171562001f1857600080fd5b8060405250919050565b600067ffffffffffffffff82111562001f3a57600080fd5b601f19601f8301169050602081019050919050565b6000819050602082019050919050565b600081519050919050565b600081519050919050565b600081519050919050565b6000602082019050919050565b600082825260208201905092915050565b600081905092915050565b600082825260208201905092915050565b600062001fc78262002004565b9050919050565b60007fff0000000000000000000000000000000000000000000000000000000000000082169050919050565b6000819050919050565b600073ffffffffffffffffffffffffffffffffffffffff82169050919050565b6000819050919050565b600060ff82169050919050565b82818337600083830152505050565b60005b838110156200206a5780820151818401526020810190506200204d565b838111156200207a576000848401525b50505050565b60006200208d82620020a8565b9050919050565b6000819050919050565b6000819050919050565b6000620020b582620020cd565b9050919050565b6000601f19601f8301169050919050565b60008160601b9050919050565b620020e58162001fba565b8114620020f157600080fd5b50565b620020ff8162001ffa565b81146200210b57600080fd5b50565b620021198162002024565b81146200212557600080fd5b50565b62002133816200202e565b81146200213f57600080fd5b5056fe60806040523480156200001157600080fd5b5060405162004fec38038062004fec833981810160405260808110156200003757600080fd5b8101908080519060200190929190805160405193929190846401000000008211156200006257600080fd5b838201915060208201858111156200007957600080fd5b82518660018202830111640100000000821117156200009757600080fd5b8083526020830192505050908051906020019080838360005b83811015620000cd578082015181840152602081019050620000b0565b50505050905090810190601f168015620000fb5780820380516001836020036101000a031916815260200191505b50604052602001805160405193929190846401000000008211156200011f57600080fd5b838201915060208201858111156200013657600080fd5b82518660018202830111640100000000821117156200015457600080fd5b8083526020830192505050908051906020019080838360005b838110156200018a5780820151818401526020810190506200016d565b50505050905090810190601f168015620001b85780820380516001836020036101000a031916815260200191505b50604052602001805190602001909291905050508282620002027f1df82398d1df980a3dbc02f80025fc30b0124a06c663521ed199d2b2ba62218f60001b6200055760201b60201c565b620002367f317f8acf4f76ff696043de95fdead4076dfa2bb58dd5b05b206ca55cc6135a6160001b6200055760201b60201c565b6200026a7f1b75aa616ce759b1ade9a9c34b9400d26055f6661ee2535e2e197093b869f80360001b6200055760201b60201c565b81600490805190602001906200028292919062000d44565b50620002b67ebf3fc50f4f7e7429edd62f72c5f7a6c88f00dff0ebd901843729698179a37d60001b6200055760201b60201c565b620002ea7fd48f3d19dad1a90a5cc01d7611ad80761d23aa3b08e5c26a79fbf098e72e191860001b6200055760201b60201c565b80600590805190602001906200030292919062000d44565b50620003377fb6c9a530a3606c41b414f19cc1a232fe3861ae061e8768bb446e47291a6b65fa60001b6200055760201b60201c565b6200036b7f01bb841a2dfe1919bb5e8c4d92c185e32324a5909ccf6278b89081869c3afffb60001b6200055760201b60201c565b6012600660006101000a81548160ff021916908360ff1602179055505050620003bd7f78f62eabd00fa8ff0ddc544a863765389a3c49a6fe4cd94f3136127c84db737260001b6200055a60201b60201c565b620003f17fc5adb05755ef60d7a9eb5de8bbed2ac3f987f70594b78805fd731ca3d5a9f4e860001b6200055a60201b60201c565b620004257fc6ffd30db32930e39b6f466099c4f27f9570a0ac0d2341a6eff9ecea4322b32260001b6200055a60201b60201c565b62000436816200055d60201b60201c565b6200046a7fcebdd09ca20c1b314ee0769c5607477a8ad71a9a6e66a73bdf8738e8fc8cb0eb60001b6200055a60201b60201c565b6200049e7f9d07b94f9779ebcba2c489c3a956731fe89e03981cf6ac4f9159e84019665c6260001b6200055a60201b60201c565b620004b36000801b856200061760201b60201c565b620004e77ffb6b56c62a6b8e621f4c476628245c672839071a9963c518a33514092aa881fc60001b6200055a60201b60201c565b6200051b7fa79dce926118a1c92038106388c4a738452eeabf36ef545e5d9f44995b7f259f60001b6200055a60201b60201c565b6200054d7f9f2df0fed2c77648de5860a4cc508cd0818c85b8b8a1ab4ceeef8d981c8956a6856200061760201b60201c565b5050505062000dea565b50565b50565b620005917f4aaee6b6ab04637a9944c24d23d4ff9bb412dfa9617c03f392364374081d61c260001b6200055760201b60201c565b620005c57f96ef34a746d5f0d90a5c73cb48359270f4c93eb4d33bca92ec5b5266780d32ef60001b6200055760201b60201c565b620005f97f72a45c960ac5b4b6072cd87912e8e2f160654a27cadbb4c16170cc162417812460001b6200055760201b60201c565b80600660006101000a81548160ff021916908360ff16021790555050565b6200064b7f1bc4261b512912d5739ed076e6476329a37310011fa40704744a63f4d2dc656560001b620006c960201b60201c565b6200067f7f6567523a5c4cf3fe9a6b088fde186f9c3ecbcd058f3bca4325a4093e74dfee3e60001b620006c960201b60201c565b620006b37f3186756c59fa3007b25bd29c3fd829bec2e50091b743932821b6e0cc9d17dec160001b620006c960201b60201c565b620006c58282620006cc60201b60201c565b5050565b50565b620007007f6407d3d700902783b0790ecd7d71fdf7c6d17edba52cb13148c9e81367f0cdb160001b620006c960201b60201c565b620007347f991f445417ef670ce1718bf3efa0d897ff34d218374430935c01ebbe5e7911b660001b620006c960201b60201c565b620007687f117edf4877bd519647f10f3d83f7b040aaa2b4763029dadefd4d02ee08bbca4f60001b620006c960201b60201c565b6200079681600080858152602001908152602001600020600001620008d260201b620020141790919060201c565b156200089957620007d07ffd44c5a846114fb700dfd54fb7756bb74ae09b46d502310ce7ae7d5d0e56b96260001b620006c960201b60201c565b620008047fcbe6fb2ac1ff183b90917394e59028226c90b462a54d68fa99119902e9bdd48160001b620006c960201b60201c565b620008387f03e7c6fa9469425312fde46e7310b2d5c9a715be7fb4dece2dee6e7a37beb80160001b620006c960201b60201c565b3373ffffffffffffffffffffffffffffffffffffffff168173ffffffffffffffffffffffffffffffffffffffff16837f2f8788117e7eff1d82e926ec794901d17c78024a50270940304540a733656f0d60405160405180910390a4620008ce565b620008cd7f639f4fd4e5b6e771451b1c96d41fe078a472e3ce4e39de30b72676385dafe22360001b620006c960201b60201c565b5b5050565b6000620009087fafc28c8ad46b468274539bc8314e2745dc2d3f7038af583f6c25b345252299ff60001b62000c5560201b60201c565b6200093c7fd65cd8894cd7599d573934ee4e7259bca66b67f4529b86afc85561768ab6331260001b62000c5560201b60201c565b620009707f73d15665ebf97f2ec239c9de9f2d368145ebf8bfc29584cd00c883286bb0b5b760001b62000c5560201b60201c565b62000982838362000c5860201b60201c565b62000bae57620009bb7f611dcc30a45c499ce3ad496c52bc2186f0cbc5070a77971fa17d0e3c8aff993460001b62000c5560201b60201c565b620009ef7fa1ffd1a624ba2fc9ad3784e766979c10b69548953e33fdd8d52fd1ad9249db4260001b62000c5560201b60201c565b62000a237f0d3795d19e3ebbfce65a7f6dba4be223b7dfc11d45684a2b8b9639624890e76d60001b62000c5560201b60201c565b82600001829080600181540180825580915050600190039060005260206000200160009091909190916101000a81548173ffffffffffffffffffffffffffffffffffffffff021916908373ffffffffffffffffffffffffffffffffffffffff16021790555062000abc7f7616d7a05facba46804c61ead3a84857b28996bfef33527f000952dbb1f24fe360001b62000c5560201b60201c565b62000aef7ec337f7341aebee30ff50d6368e9a9860da52fa5226dacb871fc4a28004838860001b62000c5560201b60201c565b82600001805490508360010160008473ffffffffffffffffffffffffffffffffffffffff1673ffffffffffffffffffffffffffffffffffffffff1681526020019081526020016000208190555062000b707f13ba2f78dd7ecaf55a4cc3f8d3e7f93c5cadbc063ffeefb68c7949802b5d3a6e60001b62000c5560201b60201c565b62000ba47fc0490b09000a2341c56dc8ebb7359ac889a50a807ad657762b431c42ebed81d860001b62000c5560201b60201c565b6001905062000c4f565b62000be27f4e16a37a129416984b8f77905fffb3105d2d16c5bffcc10366666605395cd0b160001b62000c5560201b60201c565b62000c167fef2de3f863211443d90a1d49147a100c20a57273298331ae7e2cd54c79a3875a60001b62000c5560201b60201c565b62000c4a7fc9303cbc2544604f1547dd8d81f7d4d4eb689c320fb75389df721b35f0e1d15d60001b62000c5560201b60201c565b600090505b92915050565b50565b600062000c8e7f26c9003ff5622b36c455b3a2c7e8ee8219dd1ee06aee5bb7688394f0bf73678160001b62000c5560201b60201c565b62000cc27f6f417677c8a9f3d1599c594602edcb366521c6a206303cbfe730cb780577f19e60001b62000c5560201b60201c565b62000cf67f43227e98846ec640660e022ffd05a933731005a59b7cafa20d1e956c3e0c379f60001b62000c5560201b60201c565b60008360010160008473ffffffffffffffffffffffffffffffffffffffff1673ffffffffffffffffffffffffffffffffffffffff168152602001908152602001600020541415905092915050565b828054600181600116156101000203166002900490600052602060002090601f016020900481019282601f1062000d8757805160ff191683800117855562000db8565b8280016001018555821562000db8579182015b8281111562000db757825182559160200191906001019062000d9a565b5b50905062000dc7919062000dcb565b5090565b5b8082111562000de657600081600090555060010162000dcc565b5090565b6141f28062000dfa6000396000f3fe608060405234801561001057600080fd5b50600436106101b95760003560e01c806365e4d4dd116100f9578063a217fddf11610097578063ca15c87311610071578063ca15c873146108b3578063d5391393146108f5578063d547741f14610913578063dd62ed3e14610961576101b9565b8063a217fddf146107cd578063a457c2d7146107eb578063a9059cbb1461084f576101b9565b80638b321170116100d35780638b321170146106565780639010d07c1461068457806391d14854146106e657806395d89b411461074a576101b9565b806365e4d4dd1461058257806370a08231146105b057806379cc679014610608576101b9565b8063313ce567116101665780633b1dc403116101405780633b1dc403146104aa57806340c10f19146104d857806342966c681461052657806344e4c9c114610554576101b9565b8063313ce567146103d757806336568abe146103f85780633950935114610446576101b9565b806323b872dd1161019757806323b872dd146102c3578063248a9ca3146103475780632f2ff15d14610389576101b9565b806306fdde03146101be578063095ea7b31461024157806318160ddd146102a5575b600080fd5b6101c66109d9565b6040518080602001828103825283818151815260200191508051906020019080838360005b838110156102065780820151818401526020810190506101eb565b50505050905090810190601f1680156102335780820380516001836020036101000a031916815260200191505b509250505060405180910390f35b61028d6004803603604081101561025757600080fd5b81019080803573ffffffffffffffffffffffffffffffffffffffff16906020019092919080359060200190929190505050610afe565b60405180821515815260200191505060405180910390f35b6102ad610bf1565b6040518082815260200191505060405180910390f35b61032f600480360360608110156102d957600080fd5b81019080803573ffffffffffffffffffffffffffffffffffffffff169060200190929190803573ffffffffffffffffffffffffffffffffffffffff16906020019092919080359060200190929190505050610c7f565b60405180821515815260200191505060405180910390f35b6103736004803603602081101561035d57600080fd5b8101908080359060200190929190505050610e68565b6040518082815260200191505060405180910390f35b6103d56004803603604081101561039f57600080fd5b8101908080359060200190929190803573ffffffffffffffffffffffffffffffffffffffff169060200190929190505050610f0b565b005b6103df61101f565b604051808260ff16815260200191505060405180910390f35b6104446004803603604081101561040e57600080fd5b8101908080359060200190929190803573ffffffffffffffffffffffffffffffffffffffff1690602001909291905050506110ba565b005b6104926004803603604081101561045c57600080fd5b81019080803573ffffffffffffffffffffffffffffffffffffffff169060200190929190803590602001909291905050506111de565b60405180821515815260200191505060405180910390f35b6104d6600480360360208110156104c057600080fd5b810190808035906020019092919050505061135f565b005b610524600480360360408110156104ee57600080fd5b81019080803573ffffffffffffffffffffffffffffffffffffffff16906020019092919080359060200190929190505050611362565b005b6105526004803603602081101561053c57600080fd5b8101908080359060200190929190505050611540565b005b6105806004803603602081101561056a57600080fd5b81019080803590602001909291905050506115d1565b005b6105ae6004803603602081101561059857600080fd5b81019080803590602001909291905050506115d4565b005b6105f2600480360360208110156105c657600080fd5b81019080803573ffffffffffffffffffffffffffffffffffffffff1690602001909291905050506115d7565b6040518082815260200191505060405180910390f35b6106546004803603604081101561061e57600080fd5b81019080803573ffffffffffffffffffffffffffffffffffffffff169060200190929190803590602001909291905050506116a4565b005b6106826004803603602081101561066c57600080fd5b8101908080359060200190929190505050611816565b005b6106ba6004803603604081101561069a57600080fd5b810190808035906020019092919080359060200190929190505050611819565b604051808273ffffffffffffffffffffffffffffffffffffffff16815260200191505060405180910390f35b610732600480360360408110156106fc57600080fd5b8101908080359060200190929190803573ffffffffffffffffffffffffffffffffffffffff1690602001909291905050506118ce565b60405180821515815260200191505060405180910390f35b610752611983565b6040518080602001828103825283818151815260200191508051906020019080838360005b83811015610792578082015181840152602081019050610777565b50505050905090810190601f1680156107bf5780820380516001836020036101000a031916815260200191505b509250505060405180910390f35b6107d5611aa9565b6040518082815260200191505060405180910390f35b6108376004803603604081101561080157600080fd5b81019080803573ffffffffffffffffffffffffffffffffffffffff16906020019092919080359060200190929190505050611ab0565b60405180821515815260200191505060405180910390f35b61089b6004803603604081101561086557600080fd5b81019080803573ffffffffffffffffffffffffffffffffffffffff16906020019092919080359060200190929190505050611c35565b60405180821515815260200191505060405180910390f35b6108df600480360360208110156108c957600080fd5b8101908080359060200190929190505050611d27565b6040518082815260200191505060405180910390f35b6108fd611dd1565b6040518082815260200191505060405180910390f35b61095f6004803603604081101561092957600080fd5b8101908080359060200190929190803573ffffffffffffffffffffffffffffffffffffffff169060200190929190505050611df5565b005b6109c36004803603604081101561097757600080fd5b81019080803573ffffffffffffffffffffffffffffffffffffffff169060200190929190803573ffffffffffffffffffffffffffffffffffffffff169060200190929190505050611f09565b6040518082815260200191505060405180910390f35b6060610a067e1008a7ff2c18420b3c2afb73d847caeeb37e0ae9aedc59ba0c87d91a040c0460001b6115d1565b610a327f25b908e8135df227a020bc5da410b8cc917108eeac019ad38df0cd1c73dccf7960001b6115d1565b610a5e7f9b9d23aa17995c0e5d294bb37ac8782e4a4e2fc4c874c719a610331ddef340c260001b6115d1565b60048054600181600116156101000203166002900480601f016020809104026020016040519081016040528092919081815260200182805460018160011615610100020316600290048015610af45780601f10610ac957610100808354040283529160200191610af4565b820191906000526020600020905b815481529060010190602001808311610ad757829003601f168201915b5050505050905090565b6000610b2c7f71213e3e5d04220cde5cb79bd00ded20374b6e8cefecd2c1ec1c1c19f3d8153860001b6115d1565b610b587fb97a6f429c8ddd9bd6b4b0c19c91d12947296fa57d78038cb9e8cafe7906b60660001b6115d1565b610b847f397d564539fb4ab31840be9e628f8a1bb239abf200de48cb5d30e715674f300760001b6115d1565b610b8f338484612325565b610bbb7f1a0e0071cc81d45226b2fe026e1347c59787705ca995cfa077b052f58965906560001b6115d1565b610be77ff56a4239164c161b70e16e0886a0cc8131b074c9cb09059c59f33dad08eb821460001b6115d1565b6001905092915050565b6000610c1f7faf3d11189cabe20e4cf05439845925c4593d6c53fec6b8c5235e5f6ba048580e60001b6115d1565b610c4b7f521164b9c12621cdde863797861d92a09e26697f732fa8bce0cb82164cfbb95760001b6115d1565b610c777f2672cd013509034f6465889eb1e961d876d8a6fd12e6f1377ecfa1eca29ac7e460001b6115d1565b600354905090565b6000610cad7f0b082f3ae6eae03658fb57fb99d0dfe65c8a19ef91692bc2c9797a1e4adfdacf60001b6115d1565b610cd97f2b4e8dd86d11e479100db427bb8df02362bc6fec2a57d829c196b8882ad6338f60001b6115d1565b610d057fe5c909d9f9130cd6306ccf6572894e7936ef61f00654512ef50c0f5d7e44425f60001b6115d1565b610d10848484612613565b610d3c7f1f4e4f926d170358bcc99d9813bbe0e4aa9a922f6063aa78479e78f745e27aad60001b6115d1565b610d687f2ac14ed5b87098452461490aa1db7ec892102dc1580137450376b9b59521098560001b6115d1565b610e058433610e008561019e600260008b73ffffffffffffffffffffffffffffffffffffffff1673ffffffffffffffffffffffffffffffffffffffff16815260200190815260200160002060003373ffffffffffffffffffffffffffffffffffffffff1673ffffffffffffffffffffffffffffffffffffffff16815260200190815260200160002054612a6a9092919063ffffffff16565b612325565b610e317fb8091ef680973ba40f6eaf5aab80c8b9467cb06e2a84e40f2ebd047b28ac171b60001b6115d1565b610e5d7fa84b8013cfae7f7326dcb9814e8c977d0142b8da14a6d1ba55c00d760accbd6b60001b6115d1565b600190509392505050565b6000610e967fc7c5c862f30a8372e7d72ef878deeea04b28dbfcff3d1bd445a2777b68b06dd160001b61135f565b610ec27f69f4a2dd0ee9ce747b657db13801e421c56d62b1d44dfdebd2759d86572fe97b60001b61135f565b610eee7f5010c076065a7b5209d7ab51dd780146c8f848d4a383d1b995e469d8aba8aec460001b61135f565b600080838152602001908152602001600020600201549050919050565b610f377fc68744fec39099a7f16683b586cdbffdcf1cf9a2e262bc5aae18c28c30cdf84560001b61135f565b610f637f7ea7bb3fef2ac4180862e9d42a0794e2e5e894de12f18e6cf85190543ae3ef3360001b61135f565b610f8f7fa046d81cba207ce2ccf3a1669ec97a6760ff665726d2d0246a267eedda571fe960001b61135f565b610fb9610fb160008085815260200190815260200160002060020154336118ce565b6101a6612bbf565b610fe57feb3ea0c03c9dd000cdfd0f0bb327415a780f0a7ed3e544d4ff30b1c2b44c1e1160001b61135f565b6110117f16a8e8137d65acd021acda30349a4524fa792f30901986e2656f332a8fa206a360001b61135f565b61101b8282612bd2565b5050565b600061104d7f0c576a0248184960f18c24333c8430125873049896ca7d8f0ae07aa11fff282e60001b6115d1565b6110797f36a55b9a980384528b84a7b3864c1dffa4a3818d974fffbf91eb2e4277472b3b60001b6115d1565b6110a57f76d5caa1b9ca7b27ce1d2e3fc3d03c799c68b417c2ea2b23dbc8885f7b93e9ac60001b6115d1565b600660009054906101000a900460ff16905090565b6110e67f4fbeba28202798e6a6ea05639d866fd3e581b239c66b3f99dff7f00ec89da78b60001b61135f565b6111127fd2d7081cfa591661a2a7a1b2bf0985a3cbbcc0a2e10864c0fdcc4d37ef1ccfbc60001b61135f565b61113e7f172b413f5f5cfd014b2133f1649c65544a397a42e75ca7744c6995b2bbdcfadd60001b61135f565b6111783373ffffffffffffffffffffffffffffffffffffffff168273ffffffffffffffffffffffffffffffffffffffff16146101a8612bbf565b6111a47f279103160aa01f1984332f7f21f3aeb60d089bda02babcdaaaef0f56e0a0dbac60001b61135f565b6111d07f76878f77de84d912e8431c66bbbc8516b343920aab5e2f132a070e966b603d9560001b61135f565b6111da8282612d97565b5050565b600061120c7f3dd8c13ae6b3eafe0bf8ecd7d9b6b6603c2eba222f097c523715af7fda4cfa0b60001b6115d1565b6112387f167db07e43bdddaad37ba4c5bd6042e89b5207081a34bdc472e3e0abcb89a2d260001b6115d1565b6112647f81ddc0b81b53d8baf72dd15d17c2cb2c529621a2dc54b11032ccf61e6ce4e47560001b6115d1565b6112fd33846112f885600260003373ffffffffffffffffffffffffffffffffffffffff1673ffffffffffffffffffffffffffffffffffffffff16815260200190815260200160002060008973ffffffffffffffffffffffffffffffffffffffff1673ffffffffffffffffffffffffffffffffffffffff16815260200190815260200160002054612f5c90919063ffffffff16565b612325565b6113297f2e5e68591043c16b89efec08f8aa042f5f3d034ea7556af1b72c9ca305b349fa60001b6115d1565b6113557f7323016f9d04ba2b9c90d2f0db4d570155832ada234072805213dd73bd239da360001b6115d1565b6001905092915050565b50565b61138e7fb479780a71b2176eb4298c91d417afa045575b5027719105213cea08eda4984460001b611816565b6113ba7ffac88ab88424acaf75428f19d786cc3d6e42bebc1f1e383f57995d06e8f9a78360001b611816565b6113e67f555fbfae69e882c3325960926b2facb681c4130e160ae64cf5b35db903308a9d60001b611816565b6114127f4f20adbd79b5333b4ed3c65205495df9cccf2c6156e3e944623fd5b2a39cc17060001b611816565b61143c7f9f2df0fed2c77648de5860a4cc508cd0818c85b8b8a1ab4ceeef8d981c8956a6336118ce565b6114ae576040517f08c379a000000000000000000000000000000000000000000000000000000000815260040180806020018281038252600a8152602001807f4e4f545f4d494e5445520000000000000000000000000000000000000000000081525060200191505060405180910390fd5b6114da7f9506e73d59d7a7926b43893fd922a6f4cc4ab43b3ba6935ba5c2fede814f0ac060001b611816565b6115067f3d2603b36b2834ef17e10f8a62a49a587d3a7b9a70511c37b81326eb76aa033f60001b611816565b6115327fa06ab9b5df95361afe638d663bda22904aaa388e245a848aed3be4c43529a99960001b611816565b61153c82826130b1565b5050565b61156c7fcd7594d99bcf1cb4ae8e3a3f8076e79ea21ff019af61b6d6b00cd372a2b0b17460001b6115d4565b6115987f5e5e22b4595402ddf293aa967614c8f14d7bb2f34f83cc02a01447570027e7f060001b6115d4565b6115c47f852828c70087eaaddcf7ba1ef7c9f8fbcb8d62a5b32a064d27a2f04391136bff60001b6115d4565b6115ce33826133f7565b50565b50565b50565b60006116057f32aff2a3c8f3d75fa749664ee56b7e48d0bc712bf013dafe874412a18f9866b060001b6115d1565b6116317fcb4aaa10d63c4818955126bce8280b618a2d8530a6c85e971c5cd567b471b91860001b6115d1565b61165d7f5f5caf971237d152a10e3084fe1590d4d2766fdfaaa888398411b8305b4c633860001b6115d1565b600160008373ffffffffffffffffffffffffffffffffffffffff1673ffffffffffffffffffffffffffffffffffffffff168152602001908152602001600020549050919050565b6116d07f81f7cdb3f00715d5208d3372bcb93edf2e63906ff1c823949ea37e9e6aac4e8460001b6115d4565b6116fc7f2b6b99fe27035f28f8eb1475f36e35ff8722d4d967741d2e87148a3819ecb3a960001b6115d4565b6117287f7bed77e7869f05e99b2ae6b55a8626780b56d276e05f5749a95029a3503e388160001b6115d4565b600061174a826101a161173b8633611f09565b612a6a9092919063ffffffff16565b90506117787fb4c0ce6eff8b010df477ce6bc56062db96b4cb9285aeb5b15096d554066e99ea60001b6115d4565b6117a47f698fff6ce79f3f54deae2c5aeb150d1e1bb4783bf773eb4bcdce66f02bacb1da60001b6115d4565b6117af833383612325565b6117db7fae53e90371763bff247b038333dab17ad0284588f54f3583aece9509c4aa51d560001b6115d4565b6118077ffb9d7b58f85cfb57d28b7ea84830ebf2a82fbb53c56b647b05331fb64ed7852960001b6115d4565b61181183836133f7565b505050565b50565b60006118477fda375ae45aee73ee0cdc004cf2b875ef8e8cd88c4eb1ab4b84e3bbbf6e75b30760001b61135f565b6118737f7d5eb0a635538d92251b7c340dc15f2a96259549e87b623ccbcef616b86ba7a660001b61135f565b61189f7fa78152354c3e6c24357ec99bb3bb053fc4867eaa54e72d7d1a252fb8fb1f90ec60001b61135f565b6118c68260008086815260200190815260200160002060000161374090919063ffffffff16565b905092915050565b60006118fc7f03e36594dbc24968481dddfdeda0087b379c0d6c41ba967424a671f64377a64360001b61135f565b6119287f42b51ef9ff396f62df9844a630eca764877f7302ce604fb53774131675f20d2d60001b61135f565b6119547f321f6fc788fec8d9321cbd43009bc26b1cf82efa01037a94f1fc8cf1a0ef144a60001b61135f565b61197b8260008086815260200190815260200160002060000161384490919063ffffffff16565b905092915050565b60606119b17f8947dc91f431fcfd9244d28e875c0cb140ed442d38d99fdd37e14d6883f12a2360001b6115d1565b6119dd7f05426f99105b441b08e7cb5ddeb0702def41887787c695042f6dc0cadf1e82b560001b6115d1565b611a097f6cd4289d0e214279d67337b39c3084dd461b1db8fe8873b055672b7012cbe1da60001b6115d1565b60058054600181600116156101000203166002900480601f016020809104026020016040519081016040528092919081815260200182805460018160011615610100020316600290048015611a9f5780601f10611a7457610100808354040283529160200191611a9f565b820191906000526020600020905b815481529060010190602001808311611a8257829003601f168201915b5050505050905090565b6000801b81565b6000611ade7fd9b6bb8474992b807fb5f57b86dcbf770467046b3dfc82128702f259de4672c660001b6115d1565b611b0a7fb73971d5841d27b068dcdca11361b02af6e0491e88615e8485a57313d6d8896f60001b6115d1565b611b367f70343512ae253de72faa436ec44fbfc1068772ffb52ef49fe92f14891056bc1360001b6115d1565b611bd33384611bce8561019f600260003373ffffffffffffffffffffffffffffffffffffffff1673ffffffffffffffffffffffffffffffffffffffff16815260200190815260200160002060008a73ffffffffffffffffffffffffffffffffffffffff1673ffffffffffffffffffffffffffffffffffffffff16815260200190815260200160002054612a6a9092919063ffffffff16565b612325565b611bff7f424aaf847d297667be6446ad4e919ccf9d49f5f55798238d0340ae1f8946841a60001b6115d1565b611c2b7fb4b18e9430bf69715e2c0321df01c4f23960420e372572c8db7585e83588872460001b6115d1565b6001905092915050565b6000611c637f0e2c12e3e742fe3ca39de30e0522cd06d02c5d2d0c868f2739a292babf94acb360001b6115d1565b611c8f7fad9c88b936b677d41d66c5846321fbafeefff4a41684073b83ebbb1e378f665e60001b6115d1565b611cbb7f38397d48c11e82f6540904e166b0810d4acf4b4dcb165b25bd3c1a93b2c3df6260001b6115d1565b611cc6338484612613565b611cf27f8c3d40d886822417af28b1b25a9898a57a5bc462aebc801a297c87e22cb50def60001b6115d1565b611d1d7ebed9a0943dff85e6c881c8191afbd1d4ab4e55d15f8974f14b811c07ecf5d760001b6115d1565b6001905092915050565b6000611d557fcbf90c788b764201d8a61833a6bb2f0c4c1943d3db2f9c280b034c748d05e18a60001b61135f565b611d817fdab5585f41bbc3a83d3e71d6058ca7d72803d30067560b49581973b9ce74ad3a60001b61135f565b611dad7f70c7a9bdb151c457acde1bae78d489903a96dcefe3f60aaa80725479bae51d1260001b61135f565b611dca600080848152602001908152602001600020600001613918565b9050919050565b7f9f2df0fed2c77648de5860a4cc508cd0818c85b8b8a1ab4ceeef8d981c8956a681565b611e217f4e6732ffdd9c3c5c3728a424b165a08a8e14ce029c8ddee7b6951973db908b6060001b61135f565b611e4d7fe50a5b4c6d3425e285acb8c4cc13952818c37fb6a86441451b273a53295739a960001b61135f565b611e797f4346da409f94fbd076a9ffc36a652bd17b9bfc67c79f2f21b6b851c2fc6dcb4c60001b61135f565b611ea3611e9b60008085815260200190815260200160002060020154336118ce565b6101a7612bbf565b611ecf7fe14f1782d0ae8ad8a805479d8bbb34b065b0b13b1dc61df1d4db48f874fc160960001b61135f565b611efb7fa3d369948de478ec60de6b37c401e09688b994214178f9288daefec96abfa93960001b61135f565b611f058282612d97565b5050565b6000611f377ffd054a87925de5f6d6d236398f56470eadec3563959480d32544eaf540def38360001b6115d1565b611f637f3d0a4defc6797c053b05246af5f55126e20f8231064e1b3a32ff74a7acd0386860001b6115d1565b611f8f7f30a69d7c3d41c5eeceefaa0efaee27343a4855042a4a95944095dfa92051a2dc60001b6115d1565b600260008473ffffffffffffffffffffffffffffffffffffffff1673ffffffffffffffffffffffffffffffffffffffff16815260200190815260200160002060008373ffffffffffffffffffffffffffffffffffffffff1673ffffffffffffffffffffffffffffffffffffffff16815260200190815260200160002054905092915050565b60006120427fafc28c8ad46b468274539bc8314e2745dc2d3f7038af583f6c25b345252299ff60001b6139ad565b61206e7fd65cd8894cd7599d573934ee4e7259bca66b67f4529b86afc85561768ab6331260001b6139ad565b61209a7f73d15665ebf97f2ec239c9de9f2d368145ebf8bfc29584cd00c883286bb0b5b760001b6139ad565b6120a48383613844565b612296576120d47f611dcc30a45c499ce3ad496c52bc2186f0cbc5070a77971fa17d0e3c8aff993460001b6139ad565b6121007fa1ffd1a624ba2fc9ad3784e766979c10b69548953e33fdd8d52fd1ad9249db4260001b6139ad565b61212c7f0d3795d19e3ebbfce65a7f6dba4be223b7dfc11d45684a2b8b9639624890e76d60001b6139ad565b82600001829080600181540180825580915050600190039060005260206000200160009091909190916101000a81548173ffffffffffffffffffffffffffffffffffffffff021916908373ffffffffffffffffffffffffffffffffffffffff1602179055506121bd7f7616d7a05facba46804c61ead3a84857b28996bfef33527f000952dbb1f24fe360001b6139ad565b6121e87ec337f7341aebee30ff50d6368e9a9860da52fa5226dacb871fc4a28004838860001b6139ad565b82600001805490508360010160008473ffffffffffffffffffffffffffffffffffffffff1673ffffffffffffffffffffffffffffffffffffffff168152602001908152602001600020819055506122617f13ba2f78dd7ecaf55a4cc3f8d3e7f93c5cadbc063ffeefb68c7949802b5d3a6e60001b6139ad565b61228d7fc0490b09000a2341c56dc8ebb7359ac889a50a807ad657762b431c42ebed81d860001b6139ad565b6001905061231f565b6122c27f4e16a37a129416984b8f77905fffb3105d2d16c5bffcc10366666605395cd0b160001b6139ad565b6122ee7fef2de3f863211443d90a1d49147a100c20a57273298331ae7e2cd54c79a3875a60001b6139ad565b61231a7fc9303cbc2544604f1547dd8d81f7d4d4eb689c320fb75389df721b35f0e1d15d60001b6139ad565b600090505b92915050565b6123517f68a6a56465ec1535b6bfe4af85a516783a9941193f72153f6aec6fb0f8dff75f60001b6115d1565b61237d7f5f698cd169a04ca2f108e0d239f9a6c7ca8270e3d52791c76bb8eacce161eaf160001b6115d1565b6123a97ff577576ced7a0d5987b726cdb18b4c380191fbe871d8ce86585f0d3e3a3e2dae60001b6115d1565b6123e5600073ffffffffffffffffffffffffffffffffffffffff168473ffffffffffffffffffffffffffffffffffffffff16141561019c612bbf565b6124117feaf1c4a03990fc3a70c1c10348a0520c9ba4a90d7dc15029ddaa9a56cb88321a60001b6115d1565b61243c7e40a87988715010e10c0c85b5df9b270bc69e902584f1d672f7a81a10e8270560001b6115d1565b612478600073ffffffffffffffffffffffffffffffffffffffff168373ffffffffffffffffffffffffffffffffffffffff16141561019d612bbf565b6124a47f0157bb36a670a15cd04689e37c8aed88e168ac61754373dd3c9e2a76ade98fa960001b6115d1565b6124d07fc8f7030e05e98c0793864bdacbe5044a39efc2acccb17b2b9f826407adcc64ff60001b6115d1565b80600260008573ffffffffffffffffffffffffffffffffffffffff1673ffffffffffffffffffffffffffffffffffffffff16815260200190815260200160002060008473ffffffffffffffffffffffffffffffffffffffff1673ffffffffffffffffffffffffffffffffffffffff1681526020019081526020016000208190555061257d7f1d94b76d4324c0f87937fa15970814d8ec781102ae194be79b183952a520fb4760001b6115d1565b6125a97f7bfb3dce65ef101cb72d084e60cb6cb0c017243e2ef00ba77dd5e35327d715e460001b6115d1565b8173ffffffffffffffffffffffffffffffffffffffff168373ffffffffffffffffffffffffffffffffffffffff167f8c5be1e5ebec7d5bd14f71427d1e84f3dd0314c0f7b2291e5b200ac8c7c3b925836040518082815260200191505060405180910390a3505050565b61263f7ffb98f7b8ed39efd032b67770e3088e4c574851b96cc81694552a6960569d990760001b6115d1565b61266b7fcaf58cf370fd8398c7dce9d3da22fa69db7f2132ee2c67ef39925ae54bdc003b60001b6115d1565b6126977f77d403ab303824dcbbdb704f1f9f061420e001db095e54b8e0368fbaa42aaf4060001b6115d1565b6126d3600073ffffffffffffffffffffffffffffffffffffffff168473ffffffffffffffffffffffffffffffffffffffff161415610198612bbf565b6126ff7f10c7bbf7a80bd0352bac1208b29cc884da15b9129c73068b3fa63ccd6deb2c9160001b6115d1565b61272b7f9806deebcd2e79f46206eb757789111d6e5da2c8e016345a991cb414bb00f3eb60001b6115d1565b612767600073ffffffffffffffffffffffffffffffffffffffff168373ffffffffffffffffffffffffffffffffffffffff161415610199612bbf565b6127937f66bc16b15f7a845308eaa8a96bb9690bc94d351c7b4ae88aa11824531f5b4b3160001b6115d1565b6127bf7f6882043f367f2adc4825f40a6717b037c514f77ee439277dde3cdb12261ce37660001b6115d1565b6127ca8383836139b0565b6127f67f5f5c905ce3a5e103462106bcc7c8224b2de3ca5e363e03cd691877221b75cf8d60001b6115d1565b6128227f539957a7b0696282ffaae9dd19abb07980b6a615179419799fd4543db1c4b09760001b6115d1565b612878816101a0600160008773ffffffffffffffffffffffffffffffffffffffff1673ffffffffffffffffffffffffffffffffffffffff16815260200190815260200160002054612a6a9092919063ffffffff16565b600160008573ffffffffffffffffffffffffffffffffffffffff1673ffffffffffffffffffffffffffffffffffffffff168152602001908152602001600020819055506128e77f1243fa584116b2bbdf0308a80fc3b5f844d252f2fde49634527f23211d6862f160001b6115d1565b6129137f1b59af821fc82de7e64b8842ecda056f7f3e1577850cc58da76f2ae019ba0e0860001b6115d1565b61296581600160008573ffffffffffffffffffffffffffffffffffffffff1673ffffffffffffffffffffffffffffffffffffffff16815260200190815260200160002054612f5c90919063ffffffff16565b600160008473ffffffffffffffffffffffffffffffffffffffff1673ffffffffffffffffffffffffffffffffffffffff168152602001908152602001600020819055506129d47fbf36943c0f935bfa0103986b3344f23ea30e3a0c4fd29de5dd5f2ef45c45302260001b6115d1565b612a007f0b1eb2e9ce48028d273c77408abe2d218b646427ba41301ecab3baaa3904a23960001b6115d1565b8173ffffffffffffffffffffffffffffffffffffffff168373ffffffffffffffffffffffffffffffffffffffff167fddf252ad1be2c89b69c2b068fc378daa952ba7f163c4a11628f55a4df523b3ef836040518082815260200191505060405180910390a3505050565b6000612a987f02b88a6f8bd524d2a76191776fd9793cad3d141b58c54ccde7d93c355eac311760001b6139e1565b612ac47f8617b94b049e157a480fc789054a42cbc00aa38f8cdecac11327b3b3328ea71760001b6139e1565b612af07f92d42e3b5dddfb102f74d2c36250b61d90c135276c58c6e07766359e3e31145b60001b6139e1565b612afd8484111583612bbf565b612b297f9f2b0d55d8c3909b5a08be0838486107de0239c4f5e099867e7b7a5d438579ba60001b6139e1565b612b557f3747651fbf721f40868c09bebc9618686fef61af6e965c2c4ea2ee58d2a6abc460001b6139e1565b60008385039050612b887f1de7d7f7b87d3d43d65ea6f43d3a1ae2e098de1eef9cca4225e34bf4ace6b1d860001b6139e1565b612bb47f93b2665f54609cc0b439a589750cb18b109e933de9245e501364a0fa36a85be160001b6139e1565b809150509392505050565b81612bce57612bcd816139e4565b5b5050565b612bfe7f6407d3d700902783b0790ecd7d71fdf7c6d17edba52cb13148c9e81367f0cdb160001b61135f565b612c2a7f991f445417ef670ce1718bf3efa0d897ff34d218374430935c01ebbe5e7911b660001b61135f565b612c567f117edf4877bd519647f10f3d83f7b040aaa2b4763029dadefd4d02ee08bbca4f60001b61135f565b612c7d8160008085815260200190815260200160002060000161201490919063ffffffff16565b15612d6657612cae7ffd44c5a846114fb700dfd54fb7756bb74ae09b46d502310ce7ae7d5d0e56b96260001b61135f565b612cda7fcbe6fb2ac1ff183b90917394e59028226c90b462a54d68fa99119902e9bdd48160001b61135f565b612d067f03e7c6fa9469425312fde46e7310b2d5c9a715be7fb4dece2dee6e7a37beb80160001b61135f565b3373ffffffffffffffffffffffffffffffffffffffff168173ffffffffffffffffffffffffffffffffffffffff16837f2f8788117e7eff1d82e926ec794901d17c78024a50270940304540a733656f0d60405160405180910390a4612d93565b612d927f639f4fd4e5b6e771451b1c96d41fe078a472e3ce4e39de30b72676385dafe22360001b61135f565b5b5050565b612dc37facdd613223eebcebb209b0efe170b7661d8341ec28e7648e56b2b1c25962fd0260001b61135f565b612def7f75ef4df2b91a373925586d98ccebd7821811895e01bede25a577519ddd3731f360001b61135f565b612e1b7f092ec04dbf6ad28b139f6cacd78a7c56347770e965e23d22fbcb950e6777cf9060001b61135f565b612e4281600080858152602001908152602001600020600001613a5490919063ffffffff16565b15612f2b57612e737f11bb84b6fedd64e6af9bf598028328c7141dc0803011e08ac733829b036470e560001b61135f565b612e9f7f5a9063638be5e919ff01f51d8f05a2c6a8ed7873b88602a1ac2d6959f0a038f560001b61135f565b612ecb7f3e51f2124a8caca2e2d1e5b4061524f59bbe54c72c18431578bb647afd87a11160001b61135f565b3373ffffffffffffffffffffffffffffffffffffffff168173ffffffffffffffffffffffffffffffffffffffff16837ff6391f5c32d9c69d2a47ea670b442974b53935d1edc7fd64eb21e047a839171b60405160405180910390a4612f58565b612f577f3d80a8b61cbc17b2e688c2e099e0050ed12e2cc728fe3c1ec134f43bea55509d60001b61135f565b5b5050565b6000612f8a7f3b6c4eac85647b2a81f430555f9b81d9c2af7bf44a3787f0cbc157df39aa0f4860001b6139e1565b612fb67fccdeba245ebd2c3ade6b1190e48e40f054faaaf1c794aacdb30cb3c4f5c2efc860001b6139e1565b612fe27f4f54172e632fbcb782e521dad1a67dc9a8c08e3d515fddc725c4cb96bd5c736160001b6139e1565b600082840190506130157f66141579579d8a176f4c2b0ac92d82f7f8bb78171a1cf04d611490839cfedfdd60001b6139e1565b6130417fd334a76e88e55fbd725641fbede49dc0aa7871c0433121949b7028cb1201309560001b6139e1565b61304f848210156000612bbf565b61307b7fd17c0241e4e1de497c0cfb0a379213e448c78b6da177ce868f2415e68c47691d60001b6139e1565b6130a77fc6a285953fc7a62f28d50ef7bab0774ba6cedd040d840c27cf1d01a65fd8249860001b6139e1565b8091505092915050565b6130dd7fa57006e386a205180a04d7fe1cac43f37c3f9987fb1a42a7c5915d8fc77e701b60001b6115d1565b6131097f47617033fb4371d2503589505beb164c2e20fb5d8642c8ab49decd928af8c88560001b6115d1565b6131357ff36130c3f25e63982b92fa573ee93f2e94af529728b0c0b07cc174a62b6fd43460001b6115d1565b613171600073ffffffffffffffffffffffffffffffffffffffff168373ffffffffffffffffffffffffffffffffffffffff16141561019a612bbf565b61319d7f4f41766d2ef205f20fc41f722566630b34fe48ba5b7c686f402bc6f078bb58dd60001b6115d1565b6131c97ffee544f8ea7de30d75d98abe28b87c386cee771d022f8f4bc5c8b1ed668f2c8e60001b6115d1565b6131d5600083836139b0565b6132017fe9ca60f02f58d960accc9c870dc787c1c60489c7774ea4db77a48f727d31f02c60001b6115d1565b61322d7feeb5d3719a7cc0c09b0b324008bb9618f61823bac4332509e702e15bc00bda5660001b6115d1565b61324281600354612f5c90919063ffffffff16565b6003819055506132747f96480b1dc5fbce714e4d7915b8d0170f72b905f32672ab1565e7eb96c1c8c0dd60001b6115d1565b6132a07f8616ab734c2b237f8adf32bfea4aa4707e570a1065548ca0f4035e48c57bc89c60001b6115d1565b6132f281600160008573ffffffffffffffffffffffffffffffffffffffff1673ffffffffffffffffffffffffffffffffffffffff16815260200190815260200160002054612f5c90919063ffffffff16565b600160008473ffffffffffffffffffffffffffffffffffffffff1673ffffffffffffffffffffffffffffffffffffffff168152602001908152602001600020819055506133617f352fb062ecb87b64edba20f68a55cd8dd2fa7beb7331afbc4ff5f812a7eda83760001b6115d1565b61338d7fae82da85fdd4044393cacc45d676706474bada93aaf4e8b329bbc923eb7e9b7860001b6115d1565b8173ffffffffffffffffffffffffffffffffffffffff16600073ffffffffffffffffffffffffffffffffffffffff167fddf252ad1be2c89b69c2b068fc378daa952ba7f163c4a11628f55a4df523b3ef836040518082815260200191505060405180910390a35050565b6134237fabd96ce2c56102378ebcfbdecd8c7e0ba634a8a6e64bccc4d7b264f8df099f4e60001b6115d1565b61344f7f1441fb5947fa260282ca623fb3b60b763f56f94691d6b8ebbfddb9b0fae80d9560001b6115d1565b61347b7f8692d953ac026c3b29c9d428a348953fefddaebacdb26896935842646b11576f60001b6115d1565b6134b7600073ffffffffffffffffffffffffffffffffffffffff168373ffffffffffffffffffffffffffffffffffffffff16141561019b612bbf565b6134e37fdc97475926a6544cf356f09713dd2904d28885142f15c83a7f52828edf5a3c3f60001b6115d1565b61350f7fb368eed5ef9795768ef880ccfbff5acd8d2d5956b9bea6be2505e9c38ce11a7e60001b6115d1565b61351b826000836139b0565b6135477f6c2a93d313c88440612b92a516298c6ae371fa993cf1e1e565812885df60605e60001b6115d1565b6135727e6fa9be5821adf067aafcebc4306d810a8c4254b7e8188ec980d7ae9ebcacc160001b6115d1565b6135c8816101a1600160008673ffffffffffffffffffffffffffffffffffffffff1673ffffffffffffffffffffffffffffffffffffffff16815260200190815260200160002054612a6a9092919063ffffffff16565b600160008473ffffffffffffffffffffffffffffffffffffffff1673ffffffffffffffffffffffffffffffffffffffff168152602001908152602001600020819055506136377f3f9815cc09ff6ea8431c724d5267b4b9410a178f6bc6c18c128fafb54ebbe6ea60001b6115d1565b6136637fee79b9c71294d3b5ab6f61cd773922594b2a9a16bb2ed767d3a50538e0a544ab60001b6115d1565b6136788160035461405a90919063ffffffff16565b6003819055506136aa7f2536a3491422db3868299ca0967929a23c121743e2e106a83048be877056abfb60001b6115d1565b6136d67f6457330fc6ebfca7e6d2099f6e25104c01b05d8ef62fcd8134e6b3c9e8d693fe60001b6115d1565b600073ffffffffffffffffffffffffffffffffffffffff168273ffffffffffffffffffffffffffffffffffffffff167fddf252ad1be2c89b69c2b068fc378daa952ba7f163c4a11628f55a4df523b3ef836040518082815260200191505060405180910390a35050565b600061376e7f7dea1c1d253cf48e7d588d6480a543ce38b46d776192e327fa8cd0c9c1990ff760001b6139ad565b61379a7f58bb2acc91dcb4df2e3f2e89968f750a4165bf4398540b17fb41938d548c2e2060001b6139ad565b6137c67f2b7941c0d663b1c0f556cc6d07434c953bbffce3e72a4a2897b04de03086b19060001b6139ad565b6137da828460000180549050116064612bbf565b6138067f212e61f1d461bf7d5ebc94ff1a36fb0711497c0dcb5773ebe27197b66e89ddba60001b6139ad565b6138327f695081265bdfed30ae8c4949b1e4f2422357dcea410b3f5a7fa727bbccaff4ef60001b6139ad565b61383c83836140f4565b905092915050565b60006138727f26c9003ff5622b36c455b3a2c7e8ee8219dd1ee06aee5bb7688394f0bf73678160001b6139ad565b61389e7f6f417677c8a9f3d1599c594602edcb366521c6a206303cbfe730cb780577f19e60001b6139ad565b6138ca7f43227e98846ec640660e022ffd05a933731005a59b7cafa20d1e956c3e0c379f60001b6139ad565b60008360010160008473ffffffffffffffffffffffffffffffffffffffff1673ffffffffffffffffffffffffffffffffffffffff168152602001908152602001600020541415905092915050565b60006139467fc939cb4a358f7de10fbd202b3434882ab905a97465c61be890dcf2b81f594b1a60001b6139ad565b6139727f3bd586b7682f7d29a4f151a6acf63b75bdca300a4228f5bfd10203a61161b74960001b6139ad565b61399e7f7a0ac2bc9371301d946971e3f98e8667807fea30f54e31d677bb8899e1a8fe0960001b6139ad565b81600001805490509050919050565b50565b6139dc7f1dacffa5ab056ee4f7beeebce2c9f48e657b3afcb7932f99f30840614b4078a460001b6115d1565b505050565b50565b6030600a820601600a820491506030600a830601600a830492506030600a8406018060101b8260081b8401016642414c230000000160c81b7f08c379a000000000000000000000000000000000000000000000000000000000600052602060045260076024528060445260646000fd5b6000613a827f66d05ac829d8d82489bca9be5c8dffaab118b1b3817054cd67e797d6eecfe77b60001b6139ad565b613aae7f739902fbb7e6dfeb449a9a157fbdee05baceb408e62aac8a52b19e4557901eb760001b6139ad565b613ada7fbc66fce38e599c85c8690149c113a0a85e419544d0d4d350ab0a5c0cca41c32d60001b6139ad565b60008360010160008473ffffffffffffffffffffffffffffffffffffffff1673ffffffffffffffffffffffffffffffffffffffff168152602001908152602001600020549050613b4c7fb32312f175199b3c17a909babb6b427dc6608e55e42952b11ac89e0db9834ee760001b6139ad565b613b787f0f5f623e66565b11f2f820636c62421056a7033a744128acf7ff6699e7e330a660001b6139ad565b60008114613fca57613bac7f339734d297aecc617b66a9aabe0002b4645fadef1bee1ddc24ad8374cdd729ef60001b6139ad565b613bd87fe8a3a42934f6215dad01ab9b7902796e328cc46bf063824c2151cc72c75386e460001b6139ad565b613c047f849eb84153c9d02044e040adf421f5076a5fd6fdb1782d804a39d126b9f4eff960001b6139ad565b6000600182039050613c387f7b28a651835b16a5f1f0d88c1e0dd5abf63b067f92fba594d2d0671496697f4b60001b6139ad565b613c647f817db536f5275e37cb3d54fb4f1bc2525cee09fd5474de2e122a857938b2907960001b6139ad565b600060018660000180549050039050613c9f7f3ea13b837978f44d2abc061806ebeab277c0fda6d812b793eb7eaca9746c809860001b6139ad565b613ccb7ffc196938f12f75e66e130774b8e4c318f6992bbb37cfc4d4904d72c40dd50ded60001b6139ad565b6000866000018281548110613cdc57fe5b9060005260206000200160009054906101000a900473ffffffffffffffffffffffffffffffffffffffff169050613d357f0530faaf4103ea59524877f4000934fc3edba5d1fb1ed33182c3f830bca1fd0b60001b6139ad565b613d617f65f6f644dd718881ff1983ba81ce8ba6ec0c19a08dcb917fe016c016ad20bbbf60001b6139ad565b80876000018481548110613d7157fe5b9060005260206000200160006101000a81548173ffffffffffffffffffffffffffffffffffffffff021916908373ffffffffffffffffffffffffffffffffffffffff160217905550613de57f1c4ebdcc92bf12fbd97e204109b2d60cc1185dc2ec6287f4663f19730456e61b60001b6139ad565b613e117fb252cee5062d9c45806a7247b525e28b1c1d5324d388580a83b6340b7624649160001b6139ad565b600183018760010160008373ffffffffffffffffffffffffffffffffffffffff1673ffffffffffffffffffffffffffffffffffffffff16815260200190815260200160002081905550613e867f1d89bb788a822c744a46868c7350a8c5983de5bcf57624be6145c36adbaf1cb060001b6139ad565b613eb27ff253365014f124c3f23d0c72199d8e4e02830052c44e152a6f669af0fd580ee060001b6139ad565b86600001805480613ebf57fe5b6001900381819060005260206000200160006101000a81549073ffffffffffffffffffffffffffffffffffffffff02191690559055613f207fc3887abad9c4edf15cd0be96f9b8ed240f4ebf8d3dfa38c4b4823c00e3c1841b60001b6139ad565b8660010160008773ffffffffffffffffffffffffffffffffffffffff1673ffffffffffffffffffffffffffffffffffffffff16815260200190815260200160002060009055613f917f95e26176a807897c84fb6966057105c6e84c290ec03bff22b6e227c2490c74a660001b6139ad565b613fbd7facfc09e59bbee30b764ec8dc9a17f36cafbe83b3c992d071441c71df2354a4d060001b6139ad565b6001945050505050614054565b613ff67fa1666708a09537e40d287126a8724a4d9fb911a16f7bb6d27a1ca79311944b6460001b6139ad565b6140227feb38dd99a76e81b302777bd4011f76afbf91737e55de4815e110dcfbf72bf70260001b6139ad565b61404e7fe47feece8a79cb43a5f927f215f33d63e4917e98101cbbb3258cf5dc17ef1d9760001b6139ad565b60009150505b92915050565b60006140887fd8f3ff6c544c33168c60bfe2d8dfc2d631787886c0ee8da2ccb663eb8cbe24f060001b6139e1565b6140b47f92d1cb3f30e14857244020ec553726a89a61e24983e456da15bef829b15458ea60001b6139e1565b6140e07f5181764057f37642b16962635fbb01c3d705f08fabe293b6f2a3bd111f3f234860001b6139e1565b6140ec83836001612a6a565b905092915050565b60006141227f6ca8b2757ef52d892eb581014eba9645b8866516e51aa7f124ea7d98d9b2b43760001b6139ad565b61414e7f8863d66d3a44ebb6cf0c7daf6176968329c4ced50f1bf66ab11da0b0dcd631a460001b6139ad565b61417a7f26dc9deb5f2e107da3801848bd726309dd8639c3ba47b6fdd4f8c047e8ad920660001b6139ad565b82600001828154811061418957fe5b9060005260206000200160009054906101000a900473ffffffffffffffffffffffffffffffffffffffff1690509291505056fea264697066735822122050cc0c2f6b9ceac8ee3017bd7c424a638bc87f37a29b4ac503324863af8cd53464736f6c63430007010033a2646970667358221220fbdec6b497d0e96548783a199101fb46ee2b88faf0d47d6cc67acddafd269aee64736f6c63430007010033",
  "linkReferences": {},
  "deployedLinkReferences": {}
}