{
  "_format": "hh-sol-artifact-1",
  "contractName": "TokenFactory",
  "sourceName": "contracts/balancer-core-v2/test/TokenFactory.sol",
  "abi": [
    {
      "inputs": [],
      "stateMutability": "nonpayable",
      "type": "constructor"
    },
    {
      "anonymous": false,
      "inputs": [
        {
          "indexed": true,
          "internalType": "address",
          "name": "token",
          "type": "address"
        }
      ],
      "name": "TokenCreated",
      "type": "event"
    },
    {
      "inputs": [
        {
          "internalType": "bytes32",
          "name": "c__0xdcda8f16",
          "type": "bytes32"
        }
      ],
      "name": "c_0xdcda8f16",
      "outputs": [],
      "stateMutability": "pure",
      "type": "function"
    },
    {
      "inputs": [
        {
          "internalType": "address",
          "name": "admin",
          "type": "address"
        },
        {
          "internalType": "string",
          "name": "name",
          "type": "string"
        },
        {
          "internalType": "string",
          "name": "symbol",
          "type": "string"
        },
        {
          "internalType": "uint8",
          "name": "decimals",
          "type": "uint8"
        }
      ],
      "name": "create",
      "outputs": [
        {
          "internalType": "address",
          "name": "",
          "type": "address"
        }
      ],
      "stateMutability": "nonpayable",
      "type": "function"
    },
    {
      "inputs": [
        {
          "internalType": "uint256",
          "name": "start",
          "type": "uint256"
        },
        {
          "internalType": "uint256",
          "name": "end",
          "type": "uint256"
        }
      ],
      "name": "getTokens",
      "outputs": [
        {
          "internalType": "address[]",
          "name": "",
          "type": "address[]"
        }
      ],
      "stateMutability": "view",
      "type": "function"
    },
    {
      "inputs": [],
      "name": "getTotalTokens",
      "outputs": [
        {
          "internalType": "uint256",
          "name": "",
          "type": "uint256"
        }
      ],
      "stateMutability": "view",
      "type": "function"
    }
  ],
  "bytecode": "0x608060405234801561001057600080fd5b506100437f4c5781b7e1243c0218cdd7a9abc5859159082e99c85a55c89a01396a92b424d360001b61004860201b60201c565b61004b565b50565b61716b806200005b6000396000f3fe60806040523480156200001157600080fd5b5060043610620000525760003560e01c806322d43a8e1462000057578063494cfc6c1462000077578063ecbfd4b614620000ad578063f08b82e614620000e3575b600080fd5b6200007560048036038101906200006f919062001a31565b62000105565b005b6200009560048036038101906200008f919062001a5d565b62000108565b604051620000a4919062001e2d565b60405180910390f35b620000cb6004803603810190620000c5919062001993565b62000492565b604051620000da919062001db5565b60405180910390f35b620000ed620009ce565b604051620000fc919062001ed9565b60405180910390f35b50565b6060620001387f2108e65116a0bf28d6b3930cc022c0479aeab8fc7dcfd11e6595440301a1e67160001b62000105565b620001667fc01a15346453654776287822b968a64ff13bf317c42da9a9c49f53356337456660001b62000105565b620001947f642183566ef2cc77c4c78f3ad2ec09445c518b36cea05163568313d7b256c16b60001b62000105565b620001c27f4bd731040d97f7d9e0374ed408f01b887f1ed8df83076d120d73f8822f08bd8760001b62000105565b828210158015620001e05750620001da600062000a6b565b83830311155b62000222576040517f08c379a0000000000000000000000000000000000000000000000000000000008152600401620002199062001e51565b60405180910390fd5b620002507f6a7bbd62ba4b5e75b989a52defa9a0ea71a51030d56833702d1b7155f8c09ddd60001b62000105565b6200027e7fa8c3c4c2d8f533a9c4651f8ed667b40218be09ad538d8b4a9e19b7e2d18c5ca060001b62000105565b620002ac7f2f93f6647d6a5497c7b21c07438eeaf3e8152f74b986716d643225d334bc8b9260001b62000105565b606083830367ffffffffffffffff81118015620002c857600080fd5b50604051908082528060200260200182016040528015620002f85781602001602082028036833780820191505090505b509050620003297fbdd27459afb748e3af3870d1cc6c2ef39ca03388196ec206d24121c184fc73e260001b62000105565b620003577f386ffca677471fe183254052d50cec4f2ea43fd9f2c0129b55f296374b0d5bc760001b62000105565b60005b81518110156200042b57620003927fbe82c614a8ae8885b689b759bbe325bbd3c1b62d4a3a8254757fe894cd5f185460001b62000105565b620003c07fae66ddc132c2734b611f1fc99e29aef498151ae234d0560d34fbf8df2e9dc83960001b62000105565b620003d8858201600062000b0690919063ffffffff16565b828281518110620003e557fe5b602002602001019073ffffffffffffffffffffffffffffffffffffffff16908173ffffffffffffffffffffffffffffffffffffffff16815250508060010190506200035a565b506200045a7f4a7a15d82e19ef2b54b66b2ce81e646df051ef177cd5461fa725ed22e9c9ef3860001b62000105565b620004887ff0b9b33814ae071567afe761a3b284aa755167532dd50728bd81f7f3237d538260001b62000105565b8091505092915050565b6000620004c27f064e40909f469e5169726257e23363f893a09cf4f536607fbf9c276227c4be9b60001b62000105565b620004f07f8eabcecfecdd138027f4fb584aa1699d9acc58816a7b3dc2a29cd3e1e7b0af3860001b62000105565b6200051e7f24854442ab460be24e53755dba1f51ab9466bd54fc69888211a16e3d502d1a1360001b62000105565b6060604051806020016200053290620018cd565b6020820181038252601f19601f82011660405250868686866040516020016200055f949392919062001dd2565b6040516020818303038152906040526040516020016200058192919062001d8d565b6040516020818303038152906040529050620005c07facf985db0fe84bb217a7fd9c803d4023057af80b1ce5ba39493c4a2b17d5a08d60001b62000105565b620005ee7f5fbb30c9591871c2f98be48025fefaac55e5019167cba96591df94cbec7fa63f60001b62000105565b6000620006066000801b838051906020012062000c18565b9050620006367f710cfbb2cf7c18e12b5bd81ffea6599b281d833990b5892eb1f37e9ed005e37c60001b62000105565b620006647fe555645529a7053b17bfc40dcedc6c62ace012d7e19b438b0f454904d12b49c360001b62000105565b620006858173ffffffffffffffffffffffffffffffffffffffff1662000cb9565b156200072057620006b97fac236eed634b5141bf4dbb9aee9eb120f0605f6d1bf927dade6815e2f1dc5a6c60001b62000105565b620006e77ffad06b80673c9e28d9436f11c629a5618640fa903ab07c7b69a296c2c87223fa60001b62000105565b620007157f1b80fe6bd6ee8089b16479cbfa97fde420898b6223bc454dd63dfdded58def9760001b62000105565b8092505050620009c6565b6200074e7ff8404751e15cd97b03fb3b5946d26d9504586c317e6d0c81f41cabcad40010cd60001b62000105565b6200077c7f81f24eab5a5e5e4a6f94274eaef9ab11cd6523cdf4535d89ec3c57abbcd6b2ae60001b62000105565b620007aa7fe927ff10b2e2a571686172a56b9aa432de185909a6dff515a4096e46674e7a8560001b62000105565b6000620007bd60008060001b8562000de1565b9050620007ed7f5cb8e47b0497d98df7f71959545f97aabb938cce65077feef706e5f3f2706fa760001b62000105565b6200081b7f44c8d16ffb508f869399ab3cfbf6af09c093555c1825b37309dd1e4f1bf9c2b360001b62000105565b8173ffffffffffffffffffffffffffffffffffffffff168173ffffffffffffffffffffffffffffffffffffffff16146200085157fe5b6200087f7f03a99a16986713e1748cb5e6c6f774709d1a80276678fa16fe7f150a7dffbf2560001b62000105565b620008ad7f9ed2c5a72d2cd4e404ea52f5547f3e423f1c4be3f2cd0a65728ca813f0551f0160001b62000105565b620008c38160006200123890919063ffffffff16565b50620008f27fdb5ddd0dd7141c531ed6e964dfbc0deeef4248aa764f53da084aad017c192f4960001b62000105565b620009207fa19c06761413504b5349c7e58785aacfdfce871d97e05288233bd92819713ff160001b62000105565b8073ffffffffffffffffffffffffffffffffffffffff167f2e2b3f61b70d2d131b2a807371103cc98d51adcaa5e9a8f9c32658ad8426e74e60405160405180910390a2620009917f519a7868a03ff225d4739442d00d6510f7a5d0493ee942896422401b9fad7c4f60001b62000105565b620009bf7f3ecfcc2177493f714263bc8b26082534c7e716d3f3f4c341d553cdde0d045b4d60001b62000105565b8093505050505b949350505050565b6000620009fe7f4be7b127e3800f47c38b087ffd15c30ce2b2824ae0f65db3da433b919bc1be6f60001b62000105565b62000a2c7f77c3dfc7d7aa3c492f82c71d14180caa755e7c7a14dd443b314328d5e93ab6cc60001b62000105565b62000a5a7faeee13aaab4ef1bacfbc14360f63ce4dd79794d87752b0b38684edcbda4ba31660001b62000105565b62000a66600062000a6b565b905090565b600062000a9b7fc9f1c13d3b7ffb1c19f7cfa243a63f58528679ecf95e622a88bb4be7a73ace5b60001b62001568565b62000ac97fea5266949dda251a388224c9bd7fdc3d5f9304642f1db5cedc5d2ebea799880a60001b62001568565b62000af77f6ca40e534a9a06091edf7c0dd43aa090061df70577cca7c0d6c866814a54adf260001b62001568565b81600001805490509050919050565b600062000b367f9d0813249b78d52940fb0ceae8c1b3e2a9e0b78ceffb84cfa07fccf241bd336d60001b62001568565b62000b647fc76ab52fa92083b4597cbfd21546d854654e8b07a13617a0db3e60d98c4f070560001b62001568565b62000b927f2f87846f46cea34a3095c76293ec978d986cd62c2d81c1b23b5ac315bf78297f60001b62001568565b62000ba88284600001805490501160646200156b565b62000bd67f75d0e57c9f5fce2526789f824d6ff6f473d6678b53ab38a26f6fe10f8ca6b36a60001b62001568565b62000c047ffc3ec3a81a6b7e51ff2c90373668f56b10b90d47fe2efa27a277bc351e424d4b60001b62001568565b62000c10838362001581565b905092915050565b600062000c487faeaf9e5d76515571c4f5080c9fa2531539a85c3af55a66802a962f21120aeaa960001b62001650565b62000c767fe3231a5a491c102eb9cfc0e864e238ab5864685e4794c0c2776c7a43172ad75660001b62001650565b62000ca47fbd6af030da197bd4ef2c8828b25ddc765ebbb3a0efc7a968f01478569a7d038460001b62001650565b62000cb183833062001653565b905092915050565b600062000ce97f6d8efbe0e8810069b5baf3d283f686c386d9cd57d9eacbc4eaa0f807740c36b160001b62001780565b62000d177f1105074138858f8196831ba568aee97443bf964e8b3dddd4d8b8acc3b3944e4460001b62001780565b62000d457f369a333cf5b1bfafbc9f0db5a17ac2a17b1dc8435b20b95b334cbd64257941b760001b62001780565b600062000d757fce327eef6eaef936c6d7ffd0849378d513ff73e114b0dcc3a8a0dc28f486ed2160001b62001780565b823b905062000da77f48b24b0d587648c6e8105e640b3393d1809125f90eb368bdae788002c02610d260001b62001780565b62000dd57fc67d188728b7df19529c40f106a221c1a46ea397877a391caa94465b96f5017460001b62001780565b60008111915050919050565b600062000e117fa9199ef8596b96f4afec4f876ec8fb001f2c8ce5fe1fe41c9fedb64b362d74e460001b62001650565b62000e3f7f6c596aa5644253df69805b5142d4c8f3bdb41957fa17f0511897e86dc0a97ef660001b62001650565b62000e6d7fdc41e433b6d92ba724e66efea52df561bc34017f8b7129e6e8ea50fd36af8eeb60001b62001650565b600062000e9d7f53c3cf621101e0eb860c5de0ec1e89398acd494a908139c8d5dc8204cffa850f60001b62001650565b62000ecb7f580a4ae2ccaec4612083ddff9c75fec8cba0ebbef3175c2a8ed0ce11aabad4e160001b62001650565b62000ef97f12067b50d62dafff1a3f0429976e8b3b6608d2863f7fa111e0794fefa823ebba60001b62001650565b8447101562000f3f576040517f08c379a000000000000000000000000000000000000000000000000000000000815260040162000f369062001e73565b60405180910390fd5b62000f6d7f33cbfdb7c1aaf4aa972e685dd2a6729b407ba6ede516717c911225e6e032d38460001b62001650565b62000f9b7f3aee95347edd7c0d007381547ad54e5d95e63a371e748dfd22651937787a7fa260001b62001650565b62000fc97f02f23846b43b6d8658ad962bdcedf8135ed3311c64ef91412e38d03c9b586d1460001b62001650565b62000ff77fd08a9873b4aca7f7833eaae9ac9c945dcf8db894ef071fee112732b84531c15760001b62001650565b6000835114156200103f576040517f08c379a0000000000000000000000000000000000000000000000000000000008152600401620010369062001eb7565b60405180910390fd5b6200106d7fbeb3477d1a521d98450d3e0bfc7fc14375cca743d1dd4166e08f7b6e0e19e48960001b62001650565b6200109b7f1fe5555378ec7c559a18bcdff1dfadc48d9092176fc173120e9ab96e21e3b7db60001b62001650565b8383516020850187f59050620010d47ffcb6389795ab97fe84c1665fe9062e1bed46e9c67236d4e0543c7d378569ac5e60001b62001650565b620011027feac419d7667b48886346003a01b9f7b07389f5dd553f2adddbfdd2bb4a1fde0760001b62001650565b620011307f4260344c69c27782f85612d70bc61779a8a41db5b5e512527982f427aad8400d60001b62001650565b600073ffffffffffffffffffffffffffffffffffffffff168173ffffffffffffffffffffffffffffffffffffffff161415620011a3576040517f08c379a00000000000000000000000000000000000000000000000000000000081526004016200119a9062001e95565b60405180910390fd5b620011d17f424c3311fdc65bff020ef4d28dde4d6ee5b02bafca0dd361020a0b8e2512618460001b62001650565b620011ff7f3f3432697e3dcae1cbbbd4759cca276f4eb285de69d4b61ba9437d051fbac21760001b62001650565b6200122d7f5208b5d1909ca981f577ee70a75b89eaad53f9e695e82b02ac36346f7f2fa32760001b62001650565b809150509392505050565b6000620012687fa61e67e0cc7cbf6dca1bad9e89d180e8919dcf916304a64f2ec6ececcc9d912c60001b62001568565b620012967ff89557b3cf564068446efd7c55bd51b9e70fd436a35c6473f15adcd344506c6360001b62001568565b620012c47f26e85b743bb6b8312020797ab3e5ba6fc2d859a42fcf75a48659099e1275492260001b62001568565b620012d0838362001783565b620014d357620013037f7ef22654169904189010f597963bd507ba7347b8740691b4476cd67f49124e0e60001b62001568565b620013317f882135caf4af84c0e1bca9f79eea9de8f5065751adebffaa162d1be7bcd8971360001b62001568565b6200135f7fd4763463e71726a43c654b8dbf128677d7b43a0ca60ea4949f53372a7348c9d560001b62001568565b82600001829080600181540180825580915050600190039060005260206000200160009091909190916101000a81548173ffffffffffffffffffffffffffffffffffffffff021916908373ffffffffffffffffffffffffffffffffffffffff160217905550620013f27fa3e2b33e886959093c6a0b3f0486c0415a5942638d5f7962dcbafebe762b71fc60001b62001568565b620014207fe7ef27addeab499367a977ce9fbac58dab6cba8562530386e737575a2e06c7e860001b62001568565b82600001805490508360010160008473ffffffffffffffffffffffffffffffffffffffff1673ffffffffffffffffffffffffffffffffffffffff168152602001908152602001600020819055506200149b7faae9952f0993be4f6477e9e870423701d8eedd54d02232ff8d5bf0ccd05d7c5c60001b62001568565b620014c97f6698fc4e1ad3506204b6591cbea4a9516be140780c6e774821ba525a78253a7660001b62001568565b6001905062001562565b620015017fcfe8799fec11d89ab8dc9f688739444327c48b7f0801c28255d98ea5e02ef43c60001b62001568565b6200152f7fba7632cc0dabc22b2074585c4ae9fab51e277fd8f67164d832f32dc57620662c60001b62001568565b6200155d7f86d37e5e32f04f1f5e60b0076fa21ce47f5fe546d5c5f7bacc1ccde7ded1557160001b62001568565b600090505b92915050565b50565b816200157d576200157c816200185d565b5b5050565b6000620015b17f5611b85ecce1b851e37a51d72c085e743f60f19c035ff687dcee7df4674b3bfe60001b62001568565b620015df7f2202d92a05653ad78516520d47faaa842d192fb8aee9fdfc8a5e3e39a74900e860001b62001568565b6200160d7ff499d07d00fefdbc0ea81915e115c016bd881d72dc5c4ae314e7f5105cb8dfe960001b62001568565b8260000182815481106200161d57fe5b9060005260206000200160009054906101000a900473ffffffffffffffffffffffffffffffffffffffff16905092915050565b50565b6000620016837f87c70d20ef4b3734f731af8293b6285a618401d6703b7106d39520ecab4097a360001b62001650565b620016b17f5164a036df4fc220ec717b300c920ffa1bb0ae1d2b1d63de13cda6a90323ae4660001b62001650565b620016df7fdf8b39ec19a810402f81e17ea7ea361131c965dd16b1d9571f38940c6811cf2460001b62001650565b600060ff60f81b838686604051602001620016fe949392919062001d37565b604051602081830303815290604052805190602001209050620017447fbb55942bd186f614f74f2f2097e2ba6ab4e16a5bd08200678d0a2b32f124986460001b62001650565b620017727f3ea26b78723e56ab6df77004aba8e12f4aad5acb35c9fd4a0317cd950fce4a3460001b62001650565b8060001c9150509392505050565b50565b6000620017b37f2a5d65fff1f3b500c215582deba6caa0a91f9fecacf06c3d1ecbe4a353637b7f60001b62001568565b620017e17f071b014040d1e21aadcee71b3fa973b0b60209eed08df4506d97e4c5e7caad9660001b62001568565b6200180f7fd1bb3b7f1b236199263b084954b3e62036402ccb0ddcaf72318b313ffef4b57660001b62001568565b60008360010160008473ffffffffffffffffffffffffffffffffffffffff1673ffffffffffffffffffffffffffffffffffffffff168152602001908152602001600020541415905092915050565b6030600a820601600a820491506030600a830601600a830492506030600a8406018060101b8260081b8401016642414c230000000160c81b7f08c379a000000000000000000000000000000000000000000000000000000000600052602060045260076024528060445260646000fd5b614ff1806200214583390190565b600081359050620018ec81620020dc565b92915050565b6000813590506200190381620020f6565b92915050565b600082601f8301126200191b57600080fd5b8135620019326200192c8262001f24565b62001ef6565b915080825260208301602083018583830111156200194f57600080fd5b6200195c8382846200203d565b50505092915050565b600081359050620019768162002110565b92915050565b6000813590506200198d816200212a565b92915050565b60008060008060808587031215620019aa57600080fd5b6000620019ba87828801620018db565b945050602085013567ffffffffffffffff811115620019d857600080fd5b620019e68782880162001909565b935050604085013567ffffffffffffffff81111562001a0457600080fd5b62001a128782880162001909565b925050606062001a25878288016200197c565b91505092959194509250565b60006020828403121562001a4457600080fd5b600062001a5484828501620018f2565b91505092915050565b6000806040838503121562001a7157600080fd5b600062001a818582860162001965565b925050602062001a948582860162001965565b9150509250929050565b600062001aac838362001ab8565b60208301905092915050565b62001ac38162001fbc565b82525050565b62001ad48162001fbc565b82525050565b62001aef62001ae98262001fbc565b62002082565b82525050565b600062001b028262001f61565b62001b0e818562001f8f565b935062001b1b8362001f51565b8060005b8381101562001b5257815162001b36888262001a9e565b975062001b438362001f82565b92505060018101905062001b1f565b5085935050505092915050565b62001b7462001b6e8262001fd0565b62002096565b82525050565b62001b8f62001b898262001ffc565b620020a0565b82525050565b600062001ba28262001f6c565b62001bae818562001fa0565b935062001bc08185602086016200204c565b80840191505092915050565b600062001bd98262001f77565b62001be5818562001fab565b935062001bf78185602086016200204c565b62001c0281620020be565b840191505092915050565b600062001c1c600d8362001fab565b91507f4f55545f4f465f424f554e4453000000000000000000000000000000000000006000830152602082019050919050565b600062001c5e601c8362001fab565b91507f435245415445325f494e53554646494349454e545f42414c414e4345000000006000830152602082019050919050565b600062001ca060158362001fab565b91507f435245415445325f4445504c4f595f4641494c454400000000000000000000006000830152602082019050919050565b600062001ce260158362001fab565b91507f435245415445325f42595445434f44455f5a45524f00000000000000000000006000830152602082019050919050565b62001d208162002026565b82525050565b62001d318162002030565b82525050565b600062001d45828762001b5f565b60018201915062001d57828662001ada565b60148201915062001d69828562001b7a565b60208201915062001d7b828462001b7a565b60208201915081905095945050505050565b600062001d9b828562001b95565b915062001da9828462001b95565b91508190509392505050565b600060208201905062001dcc600083018462001ac9565b92915050565b600060808201905062001de9600083018762001ac9565b818103602083015262001dfd818662001bcc565b9050818103604083015262001e13818562001bcc565b905062001e24606083018462001d26565b95945050505050565b6000602082019050818103600083015262001e49818462001af5565b905092915050565b6000602082019050818103600083015262001e6c8162001c0d565b9050919050565b6000602082019050818103600083015262001e8e8162001c4f565b9050919050565b6000602082019050818103600083015262001eb08162001c91565b9050919050565b6000602082019050818103600083015262001ed28162001cd3565b9050919050565b600060208201905062001ef0600083018462001d15565b92915050565b6000604051905081810181811067ffffffffffffffff8211171562001f1a57600080fd5b8060405250919050565b600067ffffffffffffffff82111562001f3c57600080fd5b601f19601f8301169050602081019050919050565b6000819050602082019050919050565b600081519050919050565b600081519050919050565b600081519050919050565b6000602082019050919050565b600082825260208201905092915050565b600081905092915050565b600082825260208201905092915050565b600062001fc98262002006565b9050919050565b60007fff0000000000000000000000000000000000000000000000000000000000000082169050919050565b6000819050919050565b600073ffffffffffffffffffffffffffffffffffffffff82169050919050565b6000819050919050565b600060ff82169050919050565b82818337600083830152505050565b60005b838110156200206c5780820151818401526020810190506200204f565b838111156200207c576000848401525b50505050565b60006200208f82620020aa565b9050919050565b6000819050919050565b6000819050919050565b6000620020b782620020cf565b9050919050565b6000601f19601f8301169050919050565b60008160601b9050919050565b620020e78162001fbc565b8114620020f357600080fd5b50565b620021018162001ffc565b81146200210d57600080fd5b50565b6200211b8162002026565b81146200212757600080fd5b50565b620021358162002030565b81146200214157600080fd5b5056fe60806040523480156200001157600080fd5b5060405162004ff138038062004ff1833981810160405260808110156200003757600080fd5b8101908080519060200190929190805160405193929190846401000000008211156200006257600080fd5b838201915060208201858111156200007957600080fd5b82518660018202830111640100000000821117156200009757600080fd5b8083526020830192505050908051906020019080838360005b83811015620000cd578082015181840152602081019050620000b0565b50505050905090810190601f168015620000fb5780820380516001836020036101000a031916815260200191505b50604052602001805160405193929190846401000000008211156200011f57600080fd5b838201915060208201858111156200013657600080fd5b82518660018202830111640100000000821117156200015457600080fd5b8083526020830192505050908051906020019080838360005b838110156200018a5780820151818401526020810190506200016d565b50505050905090810190601f168015620001b85780820380516001836020036101000a031916815260200191505b50604052602001805190602001909291905050508282620002027fada843e1cd7e48919e1261cf908b4d8aa40905d630f7e7f58ceb7536d72e587160001b6200055860201b60201c565b620002367f80c3a4cabf454a3da36a53a2974855e88411bb30b9d9293176d02a307f8b0ba260001b6200055860201b60201c565b6200026a7f9a71cbb1bba17eba51cdd7f5079087c5d60b14d9c17713400eda48341cf8a63060001b6200055860201b60201c565b81600490805190602001906200028292919062000d45565b50620002b77f34648e47d0d91373889223a60c5603b8488a710dccdbc9b547e64a92781d140460001b6200055860201b60201c565b620002eb7f669afb79bfad0f1cc6b3052156abb95496851eadded111e800f1dbce76f30f8760001b6200055860201b60201c565b80600590805190602001906200030392919062000d45565b50620003387f3c4f7f7d25eaad316a40c2ed400f1235c75b5b475e476021efab35d10c3cc8eb60001b6200055860201b60201c565b6200036c7face7013f0ea4eb6997f35d2b4871972c4ea124bd40abf6d0e16e184ed2b7b50560001b6200055860201b60201c565b6012600660006101000a81548160ff021916908360ff1602179055505050620003be7f896ff3bb97393302196d2cd2e4afeef14c1b8af14fffe925809a2e5b549af2f760001b6200055b60201b60201c565b620003f27f6881c105129b6127e2ab04620fd784eee0e8846f6835740c05d2e819c773640060001b6200055b60201b60201c565b620004267feb9565e8378e894beb78dcb17fc53313bda5475df318383f9f2a6ef2fd6bb01160001b6200055b60201b60201c565b62000437816200055e60201b60201c565b6200046b7ffb8ac384ffe8925cceb2b5e32e02d18b5f83ba5a6004c041bbf2c6545ed8c2fb60001b6200055b60201b60201c565b6200049f7f0f861ffa9ac44baf81ec01f37155178cb4cc10f53d8b140ca0b2cf154d3630de60001b6200055b60201b60201c565b620004b46000801b856200061860201b60201c565b620004e87fb1a636e45830fa10e2925044441e85191622feef5f201d3c9aea30d9d114ed5f60001b6200055b60201b60201c565b6200051c7ff58d20049162fb5afdfa07819d5a654f4e99e8f7aea5dd1dc035cbce0f3d0baa60001b6200055b60201b60201c565b6200054e7f9f2df0fed2c77648de5860a4cc508cd0818c85b8b8a1ab4ceeef8d981c8956a6856200061860201b60201c565b5050505062000deb565b50565b50565b620005927f6da0e537be437dbb5e5b9834584ebfa8013d167c747e5eaa2536163fd89f84b660001b6200055860201b60201c565b620005c67f93feb481c8131da62fca5c6d79f98f4d763c46da97a2cdc1b56a82616c9fa9d160001b6200055860201b60201c565b620005fa7fd77c39da8e5b09049f99697e47308046d10cb174ca8117ad8772415c235a3f3660001b6200055860201b60201c565b80600660006101000a81548160ff021916908360ff16021790555050565b6200064c7f4265c9f3a473330399bff46d039aad7bd9316164432877ddceb54a6e5adf1fde60001b620006ca60201b60201c565b620006807f6a58972ebe14dd8e972a037aaf05f9d7716e80c446e511a0318d10e6ffad80c060001b620006ca60201b60201c565b620006b47fc1878e589e7cbe000ac59256d4e45eabba5f39195dbee899f4d745b91adc8fa360001b620006ca60201b60201c565b620006c68282620006cd60201b60201c565b5050565b50565b620007017fa51bf1f60f57d67315e8884ee58ac1ea4a304657da288266decfa22e74c3937560001b620006ca60201b60201c565b620007347e7c1a64dd7716987aa76054a1f7dd56fa1c2b36f6c45fa7943a13e90f37825e60001b620006ca60201b60201c565b620007687f41ea7c6e64095ee090947f606bea526c0cce3a45dd42ddbe13950f7d1fe2c8d860001b620006ca60201b60201c565b6200079681600080858152602001908152602001600020600001620008d260201b620020161790919060201c565b156200089957620007d07f4999465fe92e467acd8859d26ce1033e7439225e7e5cf63a3d6c764bd373691d60001b620006ca60201b60201c565b620008047f2d494cddfc92440255f338981f92e2b818d331c209eb380840bfd2a99625d33560001b620006ca60201b60201c565b620008387f065c6071bb14d3623c8cfba8dcf3686b45cc19a1e2925804ab4cd79f9745f0c360001b620006ca60201b60201c565b3373ffffffffffffffffffffffffffffffffffffffff168173ffffffffffffffffffffffffffffffffffffffff16837f2f8788117e7eff1d82e926ec794901d17c78024a50270940304540a733656f0d60405160405180910390a4620008ce565b620008cd7fa294dbc9ecdd4d04f237949c2ce87f3fb306d5206d8129f0cd0ed303c7231fe960001b620006ca60201b60201c565b5b5050565b6000620009087fa61e67e0cc7cbf6dca1bad9e89d180e8919dcf916304a64f2ec6ececcc9d912c60001b62000c5660201b60201c565b6200093c7ff89557b3cf564068446efd7c55bd51b9e70fd436a35c6473f15adcd344506c6360001b62000c5660201b60201c565b620009707f26e85b743bb6b8312020797ab3e5ba6fc2d859a42fcf75a48659099e1275492260001b62000c5660201b60201c565b62000982838362000c5960201b60201c565b62000baf57620009bb7f7ef22654169904189010f597963bd507ba7347b8740691b4476cd67f49124e0e60001b62000c5660201b60201c565b620009ef7f882135caf4af84c0e1bca9f79eea9de8f5065751adebffaa162d1be7bcd8971360001b62000c5660201b60201c565b62000a237fd4763463e71726a43c654b8dbf128677d7b43a0ca60ea4949f53372a7348c9d560001b62000c5660201b60201c565b82600001829080600181540180825580915050600190039060005260206000200160009091909190916101000a81548173ffffffffffffffffffffffffffffffffffffffff021916908373ffffffffffffffffffffffffffffffffffffffff16021790555062000abc7fa3e2b33e886959093c6a0b3f0486c0415a5942638d5f7962dcbafebe762b71fc60001b62000c5660201b60201c565b62000af07fe7ef27addeab499367a977ce9fbac58dab6cba8562530386e737575a2e06c7e860001b62000c5660201b60201c565b82600001805490508360010160008473ffffffffffffffffffffffffffffffffffffffff1673ffffffffffffffffffffffffffffffffffffffff1681526020019081526020016000208190555062000b717faae9952f0993be4f6477e9e870423701d8eedd54d02232ff8d5bf0ccd05d7c5c60001b62000c5660201b60201c565b62000ba57f6698fc4e1ad3506204b6591cbea4a9516be140780c6e774821ba525a78253a7660001b62000c5660201b60201c565b6001905062000c50565b62000be37fcfe8799fec11d89ab8dc9f688739444327c48b7f0801c28255d98ea5e02ef43c60001b62000c5660201b60201c565b62000c177fba7632cc0dabc22b2074585c4ae9fab51e277fd8f67164d832f32dc57620662c60001b62000c5660201b60201c565b62000c4b7f86d37e5e32f04f1f5e60b0076fa21ce47f5fe546d5c5f7bacc1ccde7ded1557160001b62000c5660201b60201c565b600090505b92915050565b50565b600062000c8f7f2a5d65fff1f3b500c215582deba6caa0a91f9fecacf06c3d1ecbe4a353637b7f60001b62000c5660201b60201c565b62000cc37f071b014040d1e21aadcee71b3fa973b0b60209eed08df4506d97e4c5e7caad9660001b62000c5660201b60201c565b62000cf77fd1bb3b7f1b236199263b084954b3e62036402ccb0ddcaf72318b313ffef4b57660001b62000c5660201b60201c565b60008360010160008473ffffffffffffffffffffffffffffffffffffffff1673ffffffffffffffffffffffffffffffffffffffff168152602001908152602001600020541415905092915050565b828054600181600116156101000203166002900490600052602060002090601f016020900481019282601f1062000d8857805160ff191683800117855562000db9565b8280016001018555821562000db9579182015b8281111562000db857825182559160200191906001019062000d9b565b5b50905062000dc8919062000dcc565b5090565b5b8082111562000de757600081600090555060010162000dcd565b5090565b6141f68062000dfb6000396000f3fe608060405234801561001057600080fd5b50600436106101b95760003560e01c806379cc6790116100f9578063bd8fc5ae11610097578063d547741f11610071578063d547741f146108b7578063da550c7214610905578063dbaca60c14610933578063dd62ed3e14610961576101b9565b8063bd8fc5ae14610829578063ca15c87314610857578063d539139314610899576101b9565b806395d89b41116100d357806395d89b41146106c0578063a217fddf14610743578063a457c2d714610761578063a9059cbb146107c5576101b9565b806379cc6790146105ac5780639010d07c146105fa57806391d148541461065c576101b9565b8063313ce567116101665780633950935111610140578063395093511461047457806340c10f19146104d857806342966c681461052657806370a0823114610554576101b9565b8063313ce567146103d757806336568abe146103f85780633785370614610446576101b9565b806323b872dd1161019757806323b872dd146102c3578063248a9ca3146103475780632f2ff15d14610389576101b9565b806306fdde03146101be578063095ea7b31461024157806318160ddd146102a5575b600080fd5b6101c66109d9565b6040518080602001828103825283818151815260200191508051906020019080838360005b838110156102065780820151818401526020810190506101eb565b50505050905090810190601f1680156102335780820380516001836020036101000a031916815260200191505b509250505060405180910390f35b61028d6004803603604081101561025757600080fd5b81019080803573ffffffffffffffffffffffffffffffffffffffff16906020019092919080359060200190929190505050610aff565b60405180821515815260200191505060405180910390f35b6102ad610bf2565b6040518082815260200191505060405180910390f35b61032f600480360360608110156102d957600080fd5b81019080803573ffffffffffffffffffffffffffffffffffffffff169060200190929190803573ffffffffffffffffffffffffffffffffffffffff16906020019092919080359060200190929190505050610c80565b60405180821515815260200191505060405180910390f35b6103736004803603602081101561035d57600080fd5b8101908080359060200190929190505050610e69565b6040518082815260200191505060405180910390f35b6103d56004803603604081101561039f57600080fd5b8101908080359060200190929190803573ffffffffffffffffffffffffffffffffffffffff169060200190929190505050610f0c565b005b6103df611020565b604051808260ff16815260200191505060405180910390f35b6104446004803603604081101561040e57600080fd5b8101908080359060200190929190803573ffffffffffffffffffffffffffffffffffffffff1690602001909291905050506110bb565b005b6104726004803603602081101561045c57600080fd5b81019080803590602001909291905050506111df565b005b6104c06004803603604081101561048a57600080fd5b81019080803573ffffffffffffffffffffffffffffffffffffffff169060200190929190803590602001909291905050506111e2565b60405180821515815260200191505060405180910390f35b610524600480360360408110156104ee57600080fd5b81019080803573ffffffffffffffffffffffffffffffffffffffff16906020019092919080359060200190929190505050611363565b005b6105526004803603602081101561053c57600080fd5b8101908080359060200190929190505050611541565b005b6105966004803603602081101561056a57600080fd5b81019080803573ffffffffffffffffffffffffffffffffffffffff1690602001909291905050506115d2565b6040518082815260200191505060405180910390f35b6105f8600480360360408110156105c257600080fd5b81019080803573ffffffffffffffffffffffffffffffffffffffff1690602001909291908035906020019092919050505061169f565b005b6106306004803603604081101561061057600080fd5b810190808035906020019092919080359060200190929190505050611811565b604051808273ffffffffffffffffffffffffffffffffffffffff16815260200191505060405180910390f35b6106a86004803603604081101561067257600080fd5b8101908080359060200190929190803573ffffffffffffffffffffffffffffffffffffffff1690602001909291905050506118c6565b60405180821515815260200191505060405180910390f35b6106c861197b565b6040518080602001828103825283818151815260200191508051906020019080838360005b838110156107085780820151818401526020810190506106ed565b50505050905090810190601f1680156107355780820380516001836020036101000a031916815260200191505b509250505060405180910390f35b61074b611aa1565b6040518082815260200191505060405180910390f35b6107ad6004803603604081101561077757600080fd5b81019080803573ffffffffffffffffffffffffffffffffffffffff16906020019092919080359060200190929190505050611aa8565b60405180821515815260200191505060405180910390f35b610811600480360360408110156107db57600080fd5b81019080803573ffffffffffffffffffffffffffffffffffffffff16906020019092919080359060200190929190505050611c2d565b60405180821515815260200191505060405180910390f35b6108556004803603602081101561083f57600080fd5b8101908080359060200190929190505050611d20565b005b6108836004803603602081101561086d57600080fd5b8101908080359060200190929190505050611d23565b6040518082815260200191505060405180910390f35b6108a1611dcd565b6040518082815260200191505060405180910390f35b610903600480360360408110156108cd57600080fd5b8101908080359060200190929190803573ffffffffffffffffffffffffffffffffffffffff169060200190929190505050611df1565b005b6109316004803603602081101561091b57600080fd5b8101908080359060200190929190505050611f05565b005b61095f6004803603602081101561094957600080fd5b8101908080359060200190929190505050611f08565b005b6109c36004803603604081101561097757600080fd5b81019080803573ffffffffffffffffffffffffffffffffffffffff169060200190929190803573ffffffffffffffffffffffffffffffffffffffff169060200190929190505050611f0b565b6040518082815260200191505060405180910390f35b6060610a077feaecb85c6504111b9ed0e4abff7ca021c64d3c2cde298322cb699c47c7ec91cb60001b611f05565b610a337f1c60a4f6f314457774d339c90839bf4afa2d83e6af33a09f4c1fe1e72507af9860001b611f05565b610a5f7f9657464bb5597dbcc9ae29d5a003b4a85ab5dfd23fa3a8041d7e21ada70da9e860001b611f05565b60048054600181600116156101000203166002900480601f016020809104026020016040519081016040528092919081815260200182805460018160011615610100020316600290048015610af55780601f10610aca57610100808354040283529160200191610af5565b820191906000526020600020905b815481529060010190602001808311610ad857829003601f168201915b5050505050905090565b6000610b2d7fdad737d3d0ead0e54645a2e5830b95ae178ec37cfb4365a33b1ef3308c11e3b360001b611f05565b610b597fe5eb59b1e14aff501c0b285775ce525a2b399cb8af28585db6bff497efb9d19160001b611f05565b610b857fc66811d994ea37a8655425a144ec39f743b57b3ba13a12eccbda94845b2771a360001b611f05565b610b90338484612328565b610bbc7fc7c46dd53dec1bdd224ad15c76628e41bbc125bcb6db49e528cfcaafa39a920a60001b611f05565b610be87fee1971229fa38d03f2cbea90308d347f1b1a577e27f0283be685c17a2b96e26a60001b611f05565b6001905092915050565b6000610c207f3794cea1bb5204862bd74607bfa27e5341d4d81c7460a6de98ac9ec4f8d7504a60001b611f05565b610c4c7ff1fd07ccc1efa8281d55886366c58fd4d0707bae638732573f2e03122ec6e85460001b611f05565b610c787f83e3fa46f35c08e03e0dd9daca24132e43b4f738cc398a19279ba807e06240a160001b611f05565b600354905090565b6000610cae7f8a3fb5c3ef4fcc951badb0337a25737a7bddda040e8e03cd35f098367ad0215d60001b611f05565b610cda7f093353fe72c05f9880ca441a5e47a7505aa5a35b4ecf534279625f1d4f5d058760001b611f05565b610d067f5a7e5e1de372e91bf9a58299588f77da1604c0dc88c2b0026e0fc68ecba41a0f60001b611f05565b610d11848484612617565b610d3d7f641001dd6dd84bb7f4020ab35d051615f884a02f12767266dc8dfd0600ab7a5460001b611f05565b610d697f7e2a467dce8a8515235f40065c97aef2bcfc409f762fc9d76145cbdb99b7e9b060001b611f05565b610e068433610e018561019e600260008b73ffffffffffffffffffffffffffffffffffffffff1673ffffffffffffffffffffffffffffffffffffffff16815260200190815260200160002060003373ffffffffffffffffffffffffffffffffffffffff1673ffffffffffffffffffffffffffffffffffffffff16815260200190815260200160002054612a6e9092919063ffffffff16565b612328565b610e327f5fedb6772a8bdb07cd36a4d44c55ff6587dd2142b3b074f9a4e3b7a2fe133c8960001b611f05565b610e5e7ff7826543459923eb9e3cd539837cab61a488ac2a98870fd687bf6934eb8ca26760001b611f05565b600190509392505050565b6000610e977f51aa7edb5505deeea0cb5fb3a6010bc3b35cd1071cfd4fb486c4629f5bba3de960001b611f08565b610ec37fdc383928dbbcf63370878d0d10a3f1650cb50798e1741546328a670df7237d3860001b611f08565b610eef7f67c49991d15124063ffaa4cf801b1438fb94a13ed2cf3dbe473ab1f81d842c9660001b611f08565b600080838152602001908152602001600020600201549050919050565b610f387fc78b162ea786e2338aa4e5dbc19638e48121407781d6e9247245ad7f5747023560001b611f08565b610f647f78a19f66178108ee70c961f2274f93b5e6bfcc6691e6c5788e62391cc0433c5d60001b611f08565b610f907fbbd96f53722a539cbf5e4671cecf2ba967410cadfae5ba4971fd8ece680c805b60001b611f08565b610fba610fb260008085815260200190815260200160002060020154336118c6565b6101a6612bc3565b610fe67f2bac020fca4188ce2d008ae3c16d156985827422032fe786b3adeae69bf4916960001b611f08565b6110127f0ee819179cd842c06996000022c5e06c827d7163a5e67fd6f38ac0a1acb4e4d760001b611f08565b61101c8282612bd6565b5050565b600061104e7fa73499ce2727fd34b591e6370e6ac091fc8d71309ec0bad353180b1c550cb2f460001b611f05565b61107a7f1c9a4a41f5b5e381fe74b2fdbe271b7965d9239b736ef2ff4bcea5bcb97975ac60001b611f05565b6110a67f4bd57e4f12ce86676fced543e6c55a561583e4b2a1b7182abc541288a39f8f9060001b611f05565b600660009054906101000a900460ff16905090565b6110e77f2e86aa2b15ca35c6a7c0edcdbe55a054ac522079a8ecb0179ee828c9d27bfeb160001b611f08565b6111137f16792dff6bb231a4776dedd9fac1862c3c19a99260d8b22cbdb5c7f5fc6fc0a260001b611f08565b61113f7ffd262aee4455b2bcc6a0731f302bc8c2653330a035f7845aaa685f7483e0d32960001b611f08565b6111793373ffffffffffffffffffffffffffffffffffffffff168273ffffffffffffffffffffffffffffffffffffffff16146101a8612bc3565b6111a57fb34caa5499d9ace6d10394a77c9fee7b4a408b7187941c8b978c751316a9b9ed60001b611f08565b6111d17f30343b4f84d87e793dab264399f7e2e5cb1a3e5dc0536bf5374c9676e12bb48360001b611f08565b6111db8282612d9a565b5050565b50565b60006112107f50a12b55e81d1f4a5a9f8168fa8fb0b7b01a5679a8717e470e7b908553789d4460001b611f05565b61123c7f9c1ed136c9aa4e13587efb5f83908559341dcf763b6b4fcd5778b5bfb04ac4d160001b611f05565b6112687f698ca39072b6d39dc7c802e8163551e1f32d566e98bfbea1208dcd9512f0331260001b611f05565b61130133846112fc85600260003373ffffffffffffffffffffffffffffffffffffffff1673ffffffffffffffffffffffffffffffffffffffff16815260200190815260200160002060008973ffffffffffffffffffffffffffffffffffffffff1673ffffffffffffffffffffffffffffffffffffffff16815260200190815260200160002054612f5f90919063ffffffff16565b612328565b61132d7f7518614bcf6fd204f0bb059b0a842130b07b78201c6640fa0c856c5dfe7847af60001b611f05565b6113597f6faa61f5dc2a0c977669f56e5081ab750169bd67a0803854c3dee13e1e922e3560001b611f05565b6001905092915050565b61138f7f32f28c8ea22561ce86b43ab411875f3900f486b700d6cd02100908e407a406e960001b611d20565b6113bb7f977938036bdd94220914c52994916651e0b8e1fa29eac86fa26a4f961ff5f33960001b611d20565b6113e77f8cc5f720cf167f1ccb1ee60917b5785030d8dd23c7f7b4fb33bfc136922d69c760001b611d20565b6114137f7f35ae13b0c2f2ab4f37077a550a73dfa5f8a79ab469d35da7967edf15af592460001b611d20565b61143d7f9f2df0fed2c77648de5860a4cc508cd0818c85b8b8a1ab4ceeef8d981c8956a6336118c6565b6114af576040517f08c379a000000000000000000000000000000000000000000000000000000000815260040180806020018281038252600a8152602001807f4e4f545f4d494e5445520000000000000000000000000000000000000000000081525060200191505060405180910390fd5b6114db7f97754da1c508d8cea15116db1bd19c0c8bf509c0df7ed65aa7e697f59f60a57160001b611d20565b6115077f9d4fb07123d40431ca012ae93f4491913ca843aa30dad53c583e4b828d4d4e2060001b611d20565b6115337f3f25ee2069edeba93dd0aceafa4b2765039136a9706bbface661c631ba29179e60001b611d20565b61153d82826130b4565b5050565b61156d7f4d0ce1e7f124f55705642ad9102a4bd939371c8c22f2b187b2385be33341a9d460001b6111df565b6115997f5ff0b0e3ab927dd89210a8cf9fedf91b70dc136c32b4a567ccf8e1411c7002e160001b6111df565b6115c57f425e70bec997903e610c4f71b41c32e43301355b9de275c9f9d0e606669f42d960001b6111df565b6115cf33826133fa565b50565b60006116007fa6bf1046af51572141637adf5f299370ece8cc0754efc64ffabec6d09952194560001b611f05565b61162c7f4c47dad1dc190e6cf1490b04bf57221a023e2221f676d5b9b6a36e9c8aacdc7260001b611f05565b6116587f841713c8d74eb75d22803885747386e43a697d63aa7b33782c69c3c0042179d260001b611f05565b600160008373ffffffffffffffffffffffffffffffffffffffff1673ffffffffffffffffffffffffffffffffffffffff168152602001908152602001600020549050919050565b6116cb7f38595e623628d70cb8bf84194cc2b351fbdcc77518ce539557aa02b5f0a9d0ee60001b6111df565b6116f77f42a372a1b38e565b1e44e745dbba99f16fadf50a09adb2ea82de025dbb01201c60001b6111df565b6117237f19c0eaf99cf933ab181f97b178bda556f31227e58bef8c5e67363164586b475060001b6111df565b6000611745826101a16117368633611f0b565b612a6e9092919063ffffffff16565b90506117737f55169a7b029cd5930d80f00f3d61aa11b111c0b0024628d65abd84654ba27bad60001b6111df565b61179f7fedeca862e0d6f453bff8016ddcbdcef136fb196a4769a6605da5e3a11b37669160001b6111df565b6117aa833383612328565b6117d67f9584e6b67afa0f228f183e1f920d512194201a17c420dba70bcf5c6edf57300060001b6111df565b6118027fdca740bcd1c59b506ab58005ed7e660f6fe7ba38349b0a0533235c463e50d93960001b6111df565b61180c83836133fa565b505050565b600061183f7f57d7b366536f79a279a68d74e7de8fd6d51fc6594af14cd933d649578893023260001b611f08565b61186b7f7322be3cf7015ce0a554e84c5b2c435f64c0d49b149da4cf8780f351d2fd90fe60001b611f08565b6118977f10e5ad76a373f35b6dfdb58daf899e014bbd56c5bf88bb3834eed6afc3d63c7b60001b611f08565b6118be8260008086815260200190815260200160002060000161374490919063ffffffff16565b905092915050565b60006118f47fa69d7b3ebeec899df5208e49cd31d555848a2b4a20f2483427d71719fe7a699760001b611f08565b6119207ff1131ab69edfbcf13fc275f987fa1069aa79a9070b93cdf308400945b1dbefb960001b611f08565b61194c7f2a84aa1f37b1e37f9fcafdc9e74b0df2b3f43665873922a91092570cd456cc8260001b611f08565b6119738260008086815260200190815260200160002060000161384890919063ffffffff16565b905092915050565b60606119a97f507d4db15868ba71c3dc5919f6590b3360d3b915d0480cd3da66857a1b877c3860001b611f05565b6119d57fc22e349e4e6fdc158e2e932623d3eaec2131f34028f0751c028a18d5b7add50860001b611f05565b611a017f0b73d0f77210e8297b4b8cdaa26ba7e045f496c4635ba5b68b0b5231e1c6770d60001b611f05565b60058054600181600116156101000203166002900480601f016020809104026020016040519081016040528092919081815260200182805460018160011615610100020316600290048015611a975780601f10611a6c57610100808354040283529160200191611a97565b820191906000526020600020905b815481529060010190602001808311611a7a57829003601f168201915b5050505050905090565b6000801b81565b6000611ad67f680d409063c06f780aad2b2bd514f68edde7a2b35e08b733fb9b9db2c8d1bd9660001b611f05565b611b027f627d56a04d59639e73503eedceb8fdb9b86ec10661887e4a0d26ed395178b05d60001b611f05565b611b2e7fc59ec6100819b0f0ce68d1716a9d2dee6d6423f85c86d69ade9cf959a9a7330a60001b611f05565b611bcb3384611bc68561019f600260003373ffffffffffffffffffffffffffffffffffffffff1673ffffffffffffffffffffffffffffffffffffffff16815260200190815260200160002060008a73ffffffffffffffffffffffffffffffffffffffff1673ffffffffffffffffffffffffffffffffffffffff16815260200190815260200160002054612a6e9092919063ffffffff16565b612328565b611bf77f083669f6b946bfa732eda684194ced960fa7501953eb922b84ef32d4ab4f29bd60001b611f05565b611c237fea793073c3aa2b97a143914e6362ba7ebb3f679f8829a732946b76d369d44d3660001b611f05565b6001905092915050565b6000611c5b7f464d69ccec37945c3c7529c7700a5c66d5c3139774171e9e0240dadd92aa8efb60001b611f05565b611c877ff88d3ed59938149f9a9ef74864a38195e699c863d7923391afb7689b8b4a958460001b611f05565b611cb37f5a52e9c4fc6255f0ca5ba517b5527164594c6a32630535e7ba6e565a9c4d287260001b611f05565b611cbe338484612617565b611cea7f9ed755def4c183f43b9e498106041e361650ed9188ad61c1d10d44e047e52e4760001b611f05565b611d167fe9c4bc86aa96f09611e7bd46386fe7a537b7fa1e6bd3e7034c0b275206f7ccbb60001b611f05565b6001905092915050565b50565b6000611d517f17953f3748fa535a44e6e064a67fad2fb4dc03da6bff3d8327a0482fd48aecc160001b611f08565b611d7d7f4934f359a05bd7d010a85abca4a7415717ba35866016438812d1f5bf4ef278b760001b611f08565b611da97fb4864c4a61c86b1d5a03e217701e5dbac3f33179232781c804dbfe48528f8d0060001b611f08565b611dc660008084815260200190815260200160002060000161391c565b9050919050565b7f9f2df0fed2c77648de5860a4cc508cd0818c85b8b8a1ab4ceeef8d981c8956a681565b611e1d7f90c709b4c4a82f05db6c21be3ea3965906541d03e5a2fdb60acec08f5a04876660001b611f08565b611e497fd39abfed775dbd576722a87b138fe9c47938064e7e3b1200dfede6814438a1be60001b611f08565b611e757f45f596140dca99a6b0135da14dadfa80351b24c84de75f1515ec2c8f04bc42ff60001b611f08565b611e9f611e9760008085815260200190815260200160002060020154336118c6565b6101a7612bc3565b611ecb7fc84e89cb6c299b98faa20ccdcb3bb0174d499cbac21ae2eaa6d021b519bb766760001b611f08565b611ef77f646926471e52efc7de9aaf737f44b91c67de043be1d2f5419e468fa189d268f560001b611f08565b611f018282612d9a565b5050565b50565b50565b6000611f397ffec076d12afa97e1dcf9d8f943c7c8ac0f4ee65b02ed14dcb37a4157dbf04acb60001b611f05565b611f657f072a41072e81b8a4044655d4dab5fa87058b4d814920110531e4ffb7545baa0860001b611f05565b611f917fa2d92c09f57392c61f82c14526d79a50e38ab7e7f5011bf0c72c5fa13b2b0b3e60001b611f05565b600260008473ffffffffffffffffffffffffffffffffffffffff1673ffffffffffffffffffffffffffffffffffffffff16815260200190815260200160002060008373ffffffffffffffffffffffffffffffffffffffff1673ffffffffffffffffffffffffffffffffffffffff16815260200190815260200160002054905092915050565b60006120447fa61e67e0cc7cbf6dca1bad9e89d180e8919dcf916304a64f2ec6ececcc9d912c60001b6139b1565b6120707ff89557b3cf564068446efd7c55bd51b9e70fd436a35c6473f15adcd344506c6360001b6139b1565b61209c7f26e85b743bb6b8312020797ab3e5ba6fc2d859a42fcf75a48659099e1275492260001b6139b1565b6120a68383613848565b612299576120d67f7ef22654169904189010f597963bd507ba7347b8740691b4476cd67f49124e0e60001b6139b1565b6121027f882135caf4af84c0e1bca9f79eea9de8f5065751adebffaa162d1be7bcd8971360001b6139b1565b61212e7fd4763463e71726a43c654b8dbf128677d7b43a0ca60ea4949f53372a7348c9d560001b6139b1565b82600001829080600181540180825580915050600190039060005260206000200160009091909190916101000a81548173ffffffffffffffffffffffffffffffffffffffff021916908373ffffffffffffffffffffffffffffffffffffffff1602179055506121bf7fa3e2b33e886959093c6a0b3f0486c0415a5942638d5f7962dcbafebe762b71fc60001b6139b1565b6121eb7fe7ef27addeab499367a977ce9fbac58dab6cba8562530386e737575a2e06c7e860001b6139b1565b82600001805490508360010160008473ffffffffffffffffffffffffffffffffffffffff1673ffffffffffffffffffffffffffffffffffffffff168152602001908152602001600020819055506122647faae9952f0993be4f6477e9e870423701d8eedd54d02232ff8d5bf0ccd05d7c5c60001b6139b1565b6122907f6698fc4e1ad3506204b6591cbea4a9516be140780c6e774821ba525a78253a7660001b6139b1565b60019050612322565b6122c57fcfe8799fec11d89ab8dc9f688739444327c48b7f0801c28255d98ea5e02ef43c60001b6139b1565b6122f17fba7632cc0dabc22b2074585c4ae9fab51e277fd8f67164d832f32dc57620662c60001b6139b1565b61231d7f86d37e5e32f04f1f5e60b0076fa21ce47f5fe546d5c5f7bacc1ccde7ded1557160001b6139b1565b600090505b92915050565b6123547f5f42526037bd45207cb19dcfb5699f46c8695b90b1d109fe90fb165327efd7c760001b611f05565b6123807f7d7bf03dc278de7ee594400df37bdbbfa4ba951e4c9bc502c87bed1dc81a3ae560001b611f05565b6123ac7fdcc55b26cc45d8e2164b29fd311e8ef9b90c29a1295fac099bcf8eb3a816947060001b611f05565b6123e8600073ffffffffffffffffffffffffffffffffffffffff168473ffffffffffffffffffffffffffffffffffffffff16141561019c612bc3565b6124147fa2926e1fb38a9398286949f5dfbc70c331152e76922aae4c251762f1b2120f3660001b611f05565b6124407f36d15755862d3d181b13d912d7fa6e8166647e36b10a2b5470f3ee1e48ab912660001b611f05565b61247c600073ffffffffffffffffffffffffffffffffffffffff168373ffffffffffffffffffffffffffffffffffffffff16141561019d612bc3565b6124a87f680e2c5ab0ea6312dc8a65d5e8a1287817fb3353e31df932e8625b7afadd7a2360001b611f05565b6124d47f3a3359c7fda9035818153bcfb93d6064388d0738a383a88fb4bb62703490e95860001b611f05565b80600260008573ffffffffffffffffffffffffffffffffffffffff1673ffffffffffffffffffffffffffffffffffffffff16815260200190815260200160002060008473ffffffffffffffffffffffffffffffffffffffff1673ffffffffffffffffffffffffffffffffffffffff168152602001908152602001600020819055506125817f525802d8d2a48c7d2406340fa958a112eededd368c024b3327ff4e3e496ceadf60001b611f05565b6125ad7f1cdc13e2da3f24d8359b9ee6f14ef17d6282df8c12969d18649aca64f4f37e8f60001b611f05565b8173ffffffffffffffffffffffffffffffffffffffff168373ffffffffffffffffffffffffffffffffffffffff167f8c5be1e5ebec7d5bd14f71427d1e84f3dd0314c0f7b2291e5b200ac8c7c3b925836040518082815260200191505060405180910390a3505050565b6126437f1cfe73e73df25c258f626f3841e29d4e4d18ddb195fab23d7be0650cb58fee7460001b611f05565b61266f7feb8405980c677ef83ad64d77cebde744bfe5ecd1e7af144a82820e54038961cd60001b611f05565b61269b7f191d13e5ed2b0a83ce11a6219342d9687f481ede0edc82e92c7271e3f078cd1d60001b611f05565b6126d7600073ffffffffffffffffffffffffffffffffffffffff168473ffffffffffffffffffffffffffffffffffffffff161415610198612bc3565b6127037f0211a4d46b7d9aa195795776c3e63705ed5a7dc6e967eafb97543a9769e69ecc60001b611f05565b61272f7f3454b87245308a9f6dd233ef201cd9e68b346a329bb2099c9448fd916c37935460001b611f05565b61276b600073ffffffffffffffffffffffffffffffffffffffff168373ffffffffffffffffffffffffffffffffffffffff161415610199612bc3565b6127977fe677144d50c33503974fc5b5eef48a9dae8d221eadcf369e3f9fc7abe20f98e760001b611f05565b6127c37f817fbf08cd1fde7131e3f19f358a42380a9bdbf32e9b34b0fe6572809943d0e260001b611f05565b6127ce8383836139b4565b6127fa7f9644c5eeac18498398a631f47a5c0eabd1adcef37996451327fd55f3ae707b1860001b611f05565b6128267f70365d1a29aec92b3b3c3e8c748b2d07c7ba38b35626169db6fc99394869010760001b611f05565b61287c816101a0600160008773ffffffffffffffffffffffffffffffffffffffff1673ffffffffffffffffffffffffffffffffffffffff16815260200190815260200160002054612a6e9092919063ffffffff16565b600160008573ffffffffffffffffffffffffffffffffffffffff1673ffffffffffffffffffffffffffffffffffffffff168152602001908152602001600020819055506128eb7fdf62ba8ee92da429a455a9f0ff8d491dab70c4bb3ce4926302aa350f6e1d972460001b611f05565b6129177fcab36c8e17e74b2c41ba768fdb182dbf8e57567a583fb0f1961873f93e3d1e3f60001b611f05565b61296981600160008573ffffffffffffffffffffffffffffffffffffffff1673ffffffffffffffffffffffffffffffffffffffff16815260200190815260200160002054612f5f90919063ffffffff16565b600160008473ffffffffffffffffffffffffffffffffffffffff1673ffffffffffffffffffffffffffffffffffffffff168152602001908152602001600020819055506129d87ffa8d4a30b479defe5a0a82d5bbdb8be96cb66819d1be8efc73b2e5d5bc58ed6260001b611f05565b612a047fa6ac886911e49e20f05b499cfcf78ac8284b571f2a23f8534731bce52c65904d60001b611f05565b8173ffffffffffffffffffffffffffffffffffffffff168373ffffffffffffffffffffffffffffffffffffffff167fddf252ad1be2c89b69c2b068fc378daa952ba7f163c4a11628f55a4df523b3ef836040518082815260200191505060405180910390a3505050565b6000612a9c7ff44b8e4d9e809b97e7b4fbc70d9821e2f6407f2765de437b42d6eb04e36ecb9e60001b6139e5565b612ac87f46bda05bac02f008a56952891b74b47f06b71af485f59d05f4a3a454002cdfe960001b6139e5565b612af47f7f998f98a8f3b5e31eee154f067bdf45b25d26c6a23a8c40232a43bc13219e2b60001b6139e5565b612b018484111583612bc3565b612b2d7f079a7129b709ed72eb7b85fd7510fbd4fd1e9f16dc23b55a95acc2b6f06d3ea360001b6139e5565b612b597f17cb34fcd8755faad3d1a57f751032d9876b6553eab619004338e9eecfb8d70060001b6139e5565b60008385039050612b8c7fcbc0fff126298c96fb0d6c87ae3539cefae152075038bfac2edf3cf96bccaf7360001b6139e5565b612bb87fd0630d28a137393a21cb340a51c9eed2401442190ae90683c882b5df617e12f060001b6139e5565b809150509392505050565b81612bd257612bd1816139e8565b5b5050565b612c027fa51bf1f60f57d67315e8884ee58ac1ea4a304657da288266decfa22e74c3937560001b611f08565b612c2d7e7c1a64dd7716987aa76054a1f7dd56fa1c2b36f6c45fa7943a13e90f37825e60001b611f08565b612c597f41ea7c6e64095ee090947f606bea526c0cce3a45dd42ddbe13950f7d1fe2c8d860001b611f08565b612c808160008085815260200190815260200160002060000161201690919063ffffffff16565b15612d6957612cb17f4999465fe92e467acd8859d26ce1033e7439225e7e5cf63a3d6c764bd373691d60001b611f08565b612cdd7f2d494cddfc92440255f338981f92e2b818d331c209eb380840bfd2a99625d33560001b611f08565b612d097f065c6071bb14d3623c8cfba8dcf3686b45cc19a1e2925804ab4cd79f9745f0c360001b611f08565b3373ffffffffffffffffffffffffffffffffffffffff168173ffffffffffffffffffffffffffffffffffffffff16837f2f8788117e7eff1d82e926ec794901d17c78024a50270940304540a733656f0d60405160405180910390a4612d96565b612d957fa294dbc9ecdd4d04f237949c2ce87f3fb306d5206d8129f0cd0ed303c7231fe960001b611f08565b5b5050565b612dc67ff08b422c4fa3cd2d05d0f79bba2040f7677effd1f0bfb828d42cbbe0bd3cca2960001b611f08565b612df27fef4547db85b01fa12c49a7735fc207e6e417a1c4937d6ffa8bbf9b5362b0a60160001b611f08565b612e1e7f8c1cffa53f308ac985ccd89dd9360245e76e6801a76ef3b1f2b189ab163c480e60001b611f08565b612e4581600080858152602001908152602001600020600001613a5890919063ffffffff16565b15612f2e57612e767f48a57a7e50b12d8cb49bbc5a6c7e92de667cabf3738b4a4bd5df13d4beb86eaf60001b611f08565b612ea27fb4e5e9b7052937e8c7669065c903576884778c8a86ebc94d960cb7b3e85928cc60001b611f08565b612ece7f456b21ecc80d7e72404d3b5ca47be9dddd4fbef016150240ccd90bd56bc5f50160001b611f08565b3373ffffffffffffffffffffffffffffffffffffffff168173ffffffffffffffffffffffffffffffffffffffff16837ff6391f5c32d9c69d2a47ea670b442974b53935d1edc7fd64eb21e047a839171b60405160405180910390a4612f5b565b612f5a7f7d448b1cf94e4b5d43b6afacf98c2cec8306756c11242339b0a4c4fb195ebeba60001b611f08565b5b5050565b6000612f8d7fae3f54715b7be3e49b77c7ffd3b2aeb50e35afe9f803a15c1b9e36a985ae3b3060001b6139e5565b612fb97f814462a9085841b66598fdeed71d01c51e613cf96e63406a429e543054d6a66e60001b6139e5565b612fe57f694a217f0369f887f9787082073ec7f2293fe561f2b150731356984962722d6260001b6139e5565b600082840190506130187f58bdfc96e6521f6e3b339654b2266453056e60d745d112f54f2cb4c6c3ae280560001b6139e5565b6130447f52ca8a1497a1011f8befa4a076c6efddaa2bda4508723079831eba73409b5fc560001b6139e5565b613052848210156000612bc3565b61307e7fa06e5c2044fe9393f132ac6cc213469a7f09ee6ffb155de22c0dc331ecfd0c7360001b6139e5565b6130aa7f409e1fc20daebc8d567c2de8c5742d4df239eec833de236225693a2a12568a8660001b6139e5565b8091505092915050565b6130e07f73a1bc72cf847be80f7a27f711b77054519273a03aca91072109b5b51d38e15060001b611f05565b61310c7f992ec742da0198e5a9aa72eddb3e551f82aab86e5fb402ad10067d858f952bb360001b611f05565b6131387f6dd33bf100dad2b08b09cad7d825f9e9d03e3a2a3e71673e2e6c8ffb4c1c76e160001b611f05565b613174600073ffffffffffffffffffffffffffffffffffffffff168373ffffffffffffffffffffffffffffffffffffffff16141561019a612bc3565b6131a07fc57e6407a26fff8029fa8b50aa30e96d429763c7473d902b1eecf9ffe417e1ba60001b611f05565b6131cc7f604bd64eddc79250038edfbc89219b8d8ead4e346e77c77440c3b0e9963384db60001b611f05565b6131d8600083836139b4565b6132047f97e766a72508436cc8a05e177f4a1349b0dcd74ab352c9482b175b93e02080af60001b611f05565b6132307fd20f00a3d37f3d52cdd5374a49bc2d3a8c5cb23efbd06385b9f1c6c94516a5c660001b611f05565b61324581600354612f5f90919063ffffffff16565b6003819055506132777f6b1d8c516d34d9af2060496b2ddc076270c3ef103b9c5da53c16c1ad51b8d9ad60001b611f05565b6132a37f54977a3ca36906646c7ea02226711927e6f30683523042615233a9bcb543d47360001b611f05565b6132f581600160008573ffffffffffffffffffffffffffffffffffffffff1673ffffffffffffffffffffffffffffffffffffffff16815260200190815260200160002054612f5f90919063ffffffff16565b600160008473ffffffffffffffffffffffffffffffffffffffff1673ffffffffffffffffffffffffffffffffffffffff168152602001908152602001600020819055506133647f95ae003661b329eb7a960bba53307af28fa1d3b347f2bbeb6647e2688b088c8e60001b611f05565b6133907fbbace1e86838bab21a1f160c4761f2198fb7d5a011f2fecc951fa19376d5bc3e60001b611f05565b8173ffffffffffffffffffffffffffffffffffffffff16600073ffffffffffffffffffffffffffffffffffffffff167fddf252ad1be2c89b69c2b068fc378daa952ba7f163c4a11628f55a4df523b3ef836040518082815260200191505060405180910390a35050565b6134267f8d0c604428b170c8bfcf7805e1b6fafa648e7164f74f9afe20082f9e1ce954d260001b611f05565b6134527f83240c51b9432f3b4b6fae9c63f198eddf07ca2840a2aa0540936e1f5364096160001b611f05565b61347e7ff18117a2c866bbb3b75650a862dd41e3853d91c6a64dd54a4f60e69e5010f49060001b611f05565b6134ba600073ffffffffffffffffffffffffffffffffffffffff168373ffffffffffffffffffffffffffffffffffffffff16141561019b612bc3565b6134e67fe92eea6fe48a1543762e626ef94923b64d3bee75b2d7d68185674b7fbd8c0e0360001b611f05565b6135127f097e63065ed69c5204769e3bdf9870f21872e82d32203660a685bfda9d76d9da60001b611f05565b61351e826000836139b4565b61354a7fd05f5360f0ec6dc71f592cb72663e17e097651e7ec745d75bb246b88f68335ec60001b611f05565b6135767ffee6d8b89ac0a69f57daa811c82821e26ce7346d4e6e61a1c5704b5e78b0ae5660001b611f05565b6135cc816101a1600160008673ffffffffffffffffffffffffffffffffffffffff1673ffffffffffffffffffffffffffffffffffffffff16815260200190815260200160002054612a6e9092919063ffffffff16565b600160008473ffffffffffffffffffffffffffffffffffffffff1673ffffffffffffffffffffffffffffffffffffffff1681526020019081526020016000208190555061363b7f3b257e2e91c9a6d55d54bb30019eb287456c552fdcce87ff2cdfc3227174cd8160001b611f05565b6136677f969fa0fc1798d263a5e16dd25b93e35d72443544d7fa4b1ab29cabc0ff9e929260001b611f05565b61367c8160035461405e90919063ffffffff16565b6003819055506136ae7ff4892fc2b0c61ff2588bbc29dbe91b57865a0e67fabfb990f7c61d890b90646760001b611f05565b6136da7f0517d5c821b65c6bbadc56120e84b11a0f1317982679bbc91dcacf081ebc139760001b611f05565b600073ffffffffffffffffffffffffffffffffffffffff168273ffffffffffffffffffffffffffffffffffffffff167fddf252ad1be2c89b69c2b068fc378daa952ba7f163c4a11628f55a4df523b3ef836040518082815260200191505060405180910390a35050565b60006137727f9d0813249b78d52940fb0ceae8c1b3e2a9e0b78ceffb84cfa07fccf241bd336d60001b6139b1565b61379e7fc76ab52fa92083b4597cbfd21546d854654e8b07a13617a0db3e60d98c4f070560001b6139b1565b6137ca7f2f87846f46cea34a3095c76293ec978d986cd62c2d81c1b23b5ac315bf78297f60001b6139b1565b6137de828460000180549050116064612bc3565b61380a7f75d0e57c9f5fce2526789f824d6ff6f473d6678b53ab38a26f6fe10f8ca6b36a60001b6139b1565b6138367ffc3ec3a81a6b7e51ff2c90373668f56b10b90d47fe2efa27a277bc351e424d4b60001b6139b1565b61384083836140f8565b905092915050565b60006138767f2a5d65fff1f3b500c215582deba6caa0a91f9fecacf06c3d1ecbe4a353637b7f60001b6139b1565b6138a27f071b014040d1e21aadcee71b3fa973b0b60209eed08df4506d97e4c5e7caad9660001b6139b1565b6138ce7fd1bb3b7f1b236199263b084954b3e62036402ccb0ddcaf72318b313ffef4b57660001b6139b1565b60008360010160008473ffffffffffffffffffffffffffffffffffffffff1673ffffffffffffffffffffffffffffffffffffffff168152602001908152602001600020541415905092915050565b600061394a7fc9f1c13d3b7ffb1c19f7cfa243a63f58528679ecf95e622a88bb4be7a73ace5b60001b6139b1565b6139767fea5266949dda251a388224c9bd7fdc3d5f9304642f1db5cedc5d2ebea799880a60001b6139b1565b6139a27f6ca40e534a9a06091edf7c0dd43aa090061df70577cca7c0d6c866814a54adf260001b6139b1565b81600001805490509050919050565b50565b6139e07fda3cd20fcbbe63c25072348bccf21561da1781a9e8eb6178cc8703a45522b8ee60001b611f05565b505050565b50565b6030600a820601600a820491506030600a830601600a830492506030600a8406018060101b8260081b8401016642414c230000000160c81b7f08c379a000000000000000000000000000000000000000000000000000000000600052602060045260076024528060445260646000fd5b6000613a867f60360cb80450f90dca8f7596990395902f85edfd112363ac56e99a70d1c863c060001b6139b1565b613ab27fb60110ae50a59c66fb7625a77bfb8c9e7b0f2afbf800673f9f3d7d08647fe0a260001b6139b1565b613ade7fa8c08625683a3fde50f623359bc802b13ed77566fab37ec10e7802ad441eeaaa60001b6139b1565b60008360010160008473ffffffffffffffffffffffffffffffffffffffff1673ffffffffffffffffffffffffffffffffffffffff168152602001908152602001600020549050613b507f8f14dd7185bade4fbaf3ec52618955bf2ba16694730a466f7bed4d88c8cf151860001b6139b1565b613b7c7f7ec56a643584d76d718a7d9f7de9b49223bb15c498ce9811a1c1c6bae374bb1260001b6139b1565b60008114613fce57613bb07f54e3323bab9c9a28462c0c60719c84a2fb9c46bd5a6126b4c02209c8ad0a9db760001b6139b1565b613bdc7f2915b8cb3fee02ba26f5cc4960264dad315835883b41e392273203d13f62692860001b6139b1565b613c087f2619ddec270c27e460e75279b1d13238cc87158793f17c34d8268db7ce905aa860001b6139b1565b6000600182039050613c3c7f23aa40dfe98d77dcf83c0f3447327149d46db63ae1b65412bb510b1e739c706160001b6139b1565b613c687fce66f357c6cf62df27eef42dbd39f43e30422243bf1535c1c96557caa4f6d4ad60001b6139b1565b600060018660000180549050039050613ca37f5e6589743f7b5aa70bf0f4c46358b8fb164794c4ee8c9469479cb8bccea04ccb60001b6139b1565b613ccf7f991ac8e08d62fb0379c14f1be0fea4d485720eb7d0fda04ee260c05ac967818660001b6139b1565b6000866000018281548110613ce057fe5b9060005260206000200160009054906101000a900473ffffffffffffffffffffffffffffffffffffffff169050613d397fa0339aa0a45b127e0ea16783301288eab4abc5119c5decd959d2e13bf0ec9d3a60001b6139b1565b613d657f6847b65b64b90f9f00a3c430dc90b6075e5c0a5c1d0b7031aae58227b5a5817560001b6139b1565b80876000018481548110613d7557fe5b9060005260206000200160006101000a81548173ffffffffffffffffffffffffffffffffffffffff021916908373ffffffffffffffffffffffffffffffffffffffff160217905550613de97fbe8de5f3ecba12364fc1fb068521b0957b3c3228a8736c23b5df72bd2882891b60001b6139b1565b613e157fd6e0c3fa67a72620040161ed86392ddbf25f2defabc1318f4c641af9bd64785f60001b6139b1565b600183018760010160008373ffffffffffffffffffffffffffffffffffffffff1673ffffffffffffffffffffffffffffffffffffffff16815260200190815260200160002081905550613e8a7f67dd655845a9442de63cd1dec75a340dc77a0018bc6acc998db7f99965ca936160001b6139b1565b613eb67f68d4cd3d6a46a404070195471aafe2a32cadc8c3e948ad009f63c25ba60fbd2f60001b6139b1565b86600001805480613ec357fe5b6001900381819060005260206000200160006101000a81549073ffffffffffffffffffffffffffffffffffffffff02191690559055613f247f2c3d6625f2ef19932e8c197b4f2525f61866ec8f73af85df86d3cb173795691060001b6139b1565b8660010160008773ffffffffffffffffffffffffffffffffffffffff1673ffffffffffffffffffffffffffffffffffffffff16815260200190815260200160002060009055613f957f6df4bc64c873a8e9e5edb97d4a5c4c22124b96b69cb0c65b01c274fe539123fb60001b6139b1565b613fc17f4ce56017dd41dc018e1e2c3a431bd00c36d45ac8cad9b883db5682c0063baa3560001b6139b1565b6001945050505050614058565b613ffa7f6bfb2bb3a18b1247263db63fcb038e5b782731869a53ec337cceab242d2b78f160001b6139b1565b6140267f4fd44efdd0da82f4376a50124fc87e5879f1d42976b3b4ca40ac41209ce775ec60001b6139b1565b6140527f75144fd471a5e1976594dc257e4c49fc7d0d6d1d2015d157dbf9eed14da4063060001b6139b1565b60009150505b92915050565b600061408c7f4196e1536aa914b85dc6dc58555269d6982e7d4ce6d05b7f7355f20b94abf90d60001b6139e5565b6140b87fdf0fa8509738cd1e181a7c7927a69cac03bb681d44120070c7bf4bfb3343a0af60001b6139e5565b6140e47fc8b70bd12c3317d8b79b97fbb9a7c7f8a7d94381d6fa223e9f47b34fd9e52b1660001b6139e5565b6140f083836001612a6e565b905092915050565b60006141267f5611b85ecce1b851e37a51d72c085e743f60f19c035ff687dcee7df4674b3bfe60001b6139b1565b6141527f2202d92a05653ad78516520d47faaa842d192fb8aee9fdfc8a5e3e39a74900e860001b6139b1565b61417e7ff499d07d00fefdbc0ea81915e115c016bd881d72dc5c4ae314e7f5105cb8dfe960001b6139b1565b82600001828154811061418d57fe5b9060005260206000200160009054906101000a900473ffffffffffffffffffffffffffffffffffffffff1690509291505056fea26469706673582212207f76265277d9f8aca02dcf1ab70dc83ba5c49919741b03745a761de0534642ed64736f6c63430007010033a2646970667358221220ad9d05498cb0337bd9c2e7c7cc7dfcd477114679b2a8f2f3567ad720e583552164736f6c63430007010033",
  "linkReferences": {},
  "deployedLinkReferences": {}
}