{
  "_format": "hh-sol-artifact-1",
  "contractName": "WeightedPool2TokensMiscData",
  "sourceName": "contracts/balancer-core-v2/pools/weighted/WeightedPool2TokensMiscData.sol",
  "abi": [
    {
      "inputs": [
        {
          "internalType": "bytes32",
          "name": "c__0x14f12b02",
          "type": "bytes32"
        }
      ],
      "name": "c_0x14f12b02",
      "outputs": [],
      "stateMutability": "pure",
      "type": "function"
    }
  ],
  "bytecode": "0x60e0610025600b82828239805160001a60731461001857fe5b30600052607381538281f3fe730000000000000000000000000000000000000000301460806040526004361060335760003560e01c8063a9a2ce19146038575b600080fd5b604e6004803603810190604a91906066565b6050565b005b50565b6000813590506060816096565b92915050565b600060208284031215607757600080fd5b60006083848285016053565b91505092915050565b6000819050919050565b609d81608c565b811460a757600080fd5b5056fea264697066735822122096c8b72b3912395855d1a7c972e11d48ec4ee107ee2e2103c13504deb74b7db164736f6c63430007010033",
  "linkReferences": {},
  "deployedLinkReferences": {}
}