{
  "_format": "hh-sol-artifact-1",
  "contractName": "WeightedPool2TokensMiscData",
  "sourceName": "contracts/balancer-core-v2/pools/weighted/WeightedPool2TokensMiscData.sol",
  "abi": [
    {
      "inputs": [
        {
          "internalType": "bytes32",
          "name": "c__0xfc6f8760",
          "type": "bytes32"
        }
      ],
      "name": "c_0xfc6f8760",
      "outputs": [],
      "stateMutability": "pure",
      "type": "function"
    }
  ],
  "bytecode": "0x60e0610025600b82828239805160001a60731461001857fe5b30600052607381538281f3fe730000000000000000000000000000000000000000301460806040526004361060335760003560e01c8063e5fac153146038575b600080fd5b604e6004803603810190604a91906066565b6050565b005b50565b6000813590506060816096565b92915050565b600060208284031215607757600080fd5b60006083848285016053565b91505092915050565b6000819050919050565b609d81608c565b811460a757600080fd5b5056fea26469706673582212205b35d8479a150594ad486f1da415197f5243a87045c64141ed75f0cdbf09817d64736f6c63430007010033",
  "linkReferences": {},
  "deployedLinkReferences": {}
}