{
  "_format": "hh-sol-artifact-1",
  "contractName": "WeightedOracleMath",
  "sourceName": "contracts/balancer-core-v2/pools/weighted/WeightedOracleMath.sol",
  "abi": [
    {
      "inputs": [
        {
          "internalType": "bytes32",
          "name": "c__0x605fd779",
          "type": "bytes32"
        }
      ],
      "name": "c_0x605fd779",
      "outputs": [],
      "stateMutability": "pure",
      "type": "function"
    }
  ],
  "bytecode": "0x6080604052348015600f57600080fd5b5060918061001e6000396000f3fe6080604052348015600f57600080fd5b506004361060285760003560e01c8063afec8c9f14602d575b600080fd5b605660048036036020811015604157600080fd5b81019080803590602001909291905050506058565b005b5056fea2646970667358221220adc78046cfc234e3f31c670c93ae5fe00956cc04375999770e69e7d950049aba64736f6c63430007010033",
  "linkReferences": {},
  "deployedLinkReferences": {}
}