{
  "_format": "hh-sol-artifact-1",
  "contractName": "TemporarilyPausableMock",
  "sourceName": "contracts/balancer-core-v2/test/lib/TemporarilyPausableMock.sol",
  "abi": [
    {
      "inputs": [
        {
          "internalType": "uint256",
          "name": "pauseWindowDuration",
          "type": "uint256"
        },
        {
          "internalType": "uint256",
          "name": "bufferPeriodDuration",
          "type": "uint256"
        }
      ],
      "stateMutability": "nonpayable",
      "type": "constructor"
    },
    {
      "anonymous": false,
      "inputs": [
        {
          "indexed": false,
          "internalType": "bool",
          "name": "paused",
          "type": "bool"
        }
      ],
      "name": "PausedStateChanged",
      "type": "event"
    },
    {
      "inputs": [
        {
          "internalType": "bytes32",
          "name": "c__0xb95af3e6",
          "type": "bytes32"
        }
      ],
      "name": "c_0xb95af3e6",
      "outputs": [],
      "stateMutability": "pure",
      "type": "function"
    },
    {
      "inputs": [
        {
          "internalType": "bytes32",
          "name": "c__0xbf0cfa36",
          "type": "bytes32"
        }
      ],
      "name": "c_0xbf0cfa36",
      "outputs": [],
      "stateMutability": "pure",
      "type": "function"
    },
    {
      "inputs": [],
      "name": "getPausedState",
      "outputs": [
        {
          "internalType": "bool",
          "name": "paused",
          "type": "bool"
        },
        {
          "internalType": "uint256",
          "name": "pauseWindowEndTime",
          "type": "uint256"
        },
        {
          "internalType": "uint256",
          "name": "bufferPeriodEndTime",
          "type": "uint256"
        }
      ],
      "stateMutability": "view",
      "type": "function"
    },
    {
      "inputs": [
        {
          "internalType": "bool",
          "name": "paused",
          "type": "bool"
        }
      ],
      "name": "setPaused",
      "outputs": [],
      "stateMutability": "nonpayable",
      "type": "function"
    }
  ],
  "bytecode": "0x60c06040523480156200001157600080fd5b5060405162000c5338038062000c53833981810160405260408110156200003757600080fd5b8101908080519060200190929190805190602001909291905050508181620000887fe087a381d2efdf77b4bb9deb1d9c49dd7a7b8850352e08f2237b146ed960df0060001b6200031c60201b60201c565b620000bc7fd5bd2a2b38b208dfe30c35c9f2d296d8724d15c14b57d076eb3ed9864adf5cf260001b6200031c60201b60201c565b620000f07f440b23f6eae421802afd826f944e150ff37cf67006559664d92ff81aac1bb4f260001b6200031c60201b60201c565b6200010a6276a7008311156101946200031f60201b60201c565b6200013e7fa61c306c7b6e0fe7490bf46f0ac35a3616024e80a4df7a4bc45e6de19ba12b2760001b6200031c60201b60201c565b620001727fcc5d9c2ea50b53fbc5bd55dd83fc9eabd468cdc54db709760ba22684ff909cf660001b6200031c60201b60201c565b6200018c62278d008211156101956200031f60201b60201c565b620001c07f40a9c3d0b92872242e7f21fd6cf84e9cfff37a117dcf54fc2e2669e09e526ae160001b6200031c60201b60201c565b620001f47f91f1dda37d727c42e393bf864dac6469eabb7aea93126d07fec6d3a883e966f160001b6200031c60201b60201c565b600082420190506200022f7fd10e525ab2b61302f916eb6f9b5bff8779466f7205e9f26f93dd222e4ff33cf960001b6200031c60201b60201c565b620002637f95e023026f40f7e8c70f2daf4b9c6a714fc77d1ca2c06f447b10468970058a8d60001b6200031c60201b60201c565b80608081815250506200029f7f7519a6a09b3a1dbb48879a23106bafbe17739672feffe0947a75620fdd70024660001b6200031c60201b60201c565b620002d37f34afba99b9c10b73ccc93d9397070ac2cd56223e20282eba2d1237004c15be7260001b6200031c60201b60201c565b81810160a08181525050505050620003147faa9cdc2b03c15d851da177f58827d3e0f5c7caa1367c7ecc463cb4e8798c355860001b6200033b60201b60201c565b5050620003ae565b50565b81620003375762000336816200033e60201b60201c565b5b5050565b50565b6030600a820601600a820491506030600a830601600a830492506030600a8406018060101b8260081b8401016642414c230000000160c81b7f08c379a000000000000000000000000000000000000000000000000000000000600052602060045260076024528060445260646000fd5b60805160a051610881620003d2600039806107a45250806106f852506108816000f3fe608060405234801561001057600080fd5b506004361061004c5760003560e01c80630a1b02db1461005157806316c38b3c1461007f5780631c0de051146100af578063f6564dd6146100dd575b600080fd5b61007d6004803603602081101561006757600080fd5b810190808035906020019092919050505061010b565b005b6100ad6004803603602081101561009557600080fd5b8101908080351515906020019092919050505061010e565b005b6100b761019e565b604051808415158152602001838152602001828152602001935050505060405180910390f35b610109600480360360208110156100f357600080fd5b81019080803590602001909291905050506102fb565b005b50565b61013a7fc7f3d26a639af4d3ee621417844129bc3d6e7eca992c46af842a78d9e98029ea60001b6102fb565b6101667f5033561116700f883a3044dfee4f5920389a74d1df2ee98857449399302f50e460001b6102fb565b6101927fbb45558ee7e5145c2556ca81d519b49b5a30100af4f42831beef7a175da29df760001b6102fb565b61019b816102fe565b50565b60008060006101cf7f42b2df6467ff4c70f32501bc99dadaa1707377d0ae98682424fbf6f17c641d1460001b61010b565b6101fb7fc547455e53b5440054db386d0706d7ff980e05270c92023fc54f5f5f5c04c5ad60001b61010b565b6102277fb963bb4019984fe1702b4770c0d5aa469bd0dd9b7d30f2696d9641e74bbca11260001b61010b565b61022f6105c5565b15925061025e7f61573994a5d914d4db231e404b148fb9db63f1c7b413b107977e9feedb531d9460001b61010b565b61028a7f07825aec69c85870219784a1fb8305468e89fa78f9acd98ce1748ceb86c60aec60001b61010b565b610292610670565b91506102c07f021c1a05e5f001c149d9ad72783428e4a158fe50b5533cfc1ae85382d9da3cbe60001b61010b565b6102ec7f0875220e21ba6e87e6bbb05f50398ebcd41b3de02dec68c6049fc5c8fd3cd56260001b61010b565b6102f461071c565b9050909192565b50565b61032a7fc7c5367f9c7e240f3cdcb6923bc045f862ca4a39c752da8b71c5ae1472d73bbe60001b61010b565b6103567f50d58fdc3abc20e1cb392918770a267ab78e72d605a02d4c4056b501db10a04560001b61010b565b6103827ff6efbd77e87e2ef28cf5f850cac5b7ad75d84fff9ff5caca222139c78f468e4660001b61010b565b8015610426576103b47fb0f141da337ea2a1d59d1cc8430775c2bf672d5ff29998ac3ba940811e4e0d5d60001b61010b565b6103e07f5ad992b766091b4243be03e56fc4538811c13fa8b0e1b27463c7d99314c736bc60001b61010b565b61040c7f854ef49914eb0527fc17f31ba5fc3af3040cc31fd84cb17924230ece061e54b960001b61010b565b610421610417610670565b42106101936107c8565b6104c0565b6104527ffbbd4f7e556f0535cac9cd0150c9652e7fad42626de7b7dc3776a83d8732f59760001b61010b565b61047e7f7ba1e9f2c217e1d23b4eb7f3ac04caa7bcd691b228ee2fcc3d594ca57be6395a60001b61010b565b6104aa7f599896393482567181121cb835626e2e456628f1bab956b29525539ad0d6759360001b61010b565b6104bf6104b561071c565b42106101a96107c8565b5b6104ec7fbd8ef2821bd1e349a1d65969330f797bbfc76b766c2f8fa530739eb7fa58067160001b61010b565b6105187fe34774678af6ce655031cee2d93babe65cd743cc5b1101ff217573d2a7335b4b60001b61010b565b806000806101000a81548160ff02191690831515021790555061055d7f3706f6e6399e33e922ec7fc2e0fedd5bda1541494c7c9345dc31ccc1730fedea60001b61010b565b6105897f18f5a22ed7dffa75d0eb20fad03ef1137724c580e4f9c2967fe3c420f96eaee860001b61010b565b7f9e3a5e37224532dea67b89face185703738a228a6e8a23dee546960180d3be648160405180821515815260200191505060405180910390a150565b60006105f37fe3746e81cff91eb3d77d543981cd6cf706f8d76397da183679a4b3dadc9573e960001b61010b565b61061f7fa5f231f807570f144e78643005e399439fc73b5ab16a0241ef6b24ae7bc1f55260001b61010b565b61064b7feac4884d0b5f8c5a57f3de251fec5b8b71daf1aa7f8f19b89e107d0d5163560a60001b61010b565b61065361071c565b42118061066b575060008054906101000a900460ff16155b905090565b600061069e7f7f05abaafac9ed7d954843addd8fdddffb19d3fb16a0eb1b29cde5d60bccefd860001b61010b565b6106ca7f8fbfa5292fa05b965a2a739fb121e9d0379a7b60e58c67077bd84e58c4bd586060001b61010b565b6106f67f13a8fd0ef51eb9e4725da515e4be7071dfe9a07ee7a31d0913b401970727c27260001b61010b565b7f0000000000000000000000000000000000000000000000000000000000000000905090565b600061074a7fb873c902804ee19693ddfd186de3098d59833aa7da7373ff1801e99a3eea378e60001b61010b565b6107767f5bfb346ed3ea17ece69b5bae634d25809cc15f9dbd55df8a316dd45da9ca006660001b61010b565b6107a27f5b028bd9817cd40d7d4273c5525d5e8bf5660b6155e1cfb1bc5cf297fa2762e960001b61010b565b7f0000000000000000000000000000000000000000000000000000000000000000905090565b816107d7576107d6816107db565b5b5050565b6030600a820601600a820491506030600a830601600a830492506030600a8406018060101b8260081b8401016642414c230000000160c81b7f08c379a000000000000000000000000000000000000000000000000000000000600052602060045260076024528060445260646000fdfea2646970667358221220cf89062febcfb8837e364eb4f0390d18676dd2d9462d1c984119735149c48a4864736f6c63430007010033",
  "linkReferences": {},
  "deployedLinkReferences": {}
}