{
  "_format": "hh-sol-artifact-1",
  "contractName": "TemporarilyPausableMock",
  "sourceName": "contracts/balancer-core-v2/test/lib/TemporarilyPausableMock.sol",
  "abi": [
    {
      "inputs": [
        {
          "internalType": "uint256",
          "name": "pauseWindowDuration",
          "type": "uint256"
        },
        {
          "internalType": "uint256",
          "name": "bufferPeriodDuration",
          "type": "uint256"
        }
      ],
      "stateMutability": "nonpayable",
      "type": "constructor"
    },
    {
      "anonymous": false,
      "inputs": [
        {
          "indexed": false,
          "internalType": "bool",
          "name": "paused",
          "type": "bool"
        }
      ],
      "name": "PausedStateChanged",
      "type": "event"
    },
    {
      "inputs": [
        {
          "internalType": "bytes32",
          "name": "c__0x04981740",
          "type": "bytes32"
        }
      ],
      "name": "c_0x04981740",
      "outputs": [],
      "stateMutability": "pure",
      "type": "function"
    },
    {
      "inputs": [
        {
          "internalType": "bytes32",
          "name": "c__0xa7261247",
          "type": "bytes32"
        }
      ],
      "name": "c_0xa7261247",
      "outputs": [],
      "stateMutability": "pure",
      "type": "function"
    },
    {
      "inputs": [],
      "name": "getPausedState",
      "outputs": [
        {
          "internalType": "bool",
          "name": "paused",
          "type": "bool"
        },
        {
          "internalType": "uint256",
          "name": "pauseWindowEndTime",
          "type": "uint256"
        },
        {
          "internalType": "uint256",
          "name": "bufferPeriodEndTime",
          "type": "uint256"
        }
      ],
      "stateMutability": "view",
      "type": "function"
    },
    {
      "inputs": [
        {
          "internalType": "bool",
          "name": "paused",
          "type": "bool"
        }
      ],
      "name": "setPaused",
      "outputs": [],
      "stateMutability": "nonpayable",
      "type": "function"
    }
  ],
  "bytecode": "0x60c06040523480156200001157600080fd5b5060405162000c5338038062000c53833981810160405260408110156200003757600080fd5b8101908080519060200190929190805190602001909291905050508181620000887fcdc4b7966725a0b7e0fb882fd598225d9590b4866144e6f0fef2abbf022cd3fd60001b6200031c60201b60201c565b620000bc7f967596f8f7a500ff720a3403b54a04d92df906e26231ac890b8a2fb26175b76860001b6200031c60201b60201c565b620000f07f220e9104ab71aa57643c7c71e3832b71d3e98885b5965cb82908ce4eea5bfb2b60001b6200031c60201b60201c565b6200010a6276a7008311156101946200031f60201b60201c565b6200013e7fd0be9f82dddb144bf718a71b45872969428bb1e178dd6736199ccad564ec8b5b60001b6200031c60201b60201c565b620001727fb702d3e39ca2fa724be8964ed90151539fa69615acf3787c22cbea6125ff8de960001b6200031c60201b60201c565b6200018c62278d008211156101956200031f60201b60201c565b620001c07f30947af497197580ac7fe9d5a36f3395ccc8e0f05ad40bd1ca43afa0ba2e3c9660001b6200031c60201b60201c565b620001f47f66c9294cc9f2a539bf2e45a2359fd5403b096a66739ef9308702b0d225842bb560001b6200031c60201b60201c565b600082420190506200022f7f3ffec86c8a211454649c2421858fe62d38cdc98646c61a148543da8be9f267fe60001b6200031c60201b60201c565b620002637f6eb5190dbb322e1bbf62c40ef77ff43209eb42ec473e696fdafd2032f063f5b260001b6200031c60201b60201c565b80608081815250506200029f7fb3521dbf78ed8ddf85941e885e8e8c559993c36bc3f082c5ab80dd2db85b95ac60001b6200031c60201b60201c565b620002d37ffb2f5edcd4cab9ad1417d979af508830d9a1801f736529956465596ed81dc54260001b6200031c60201b60201c565b81810160a08181525050505050620003147f43ab7199cd29ff01d2b52709ae095dd889850b556119d6c065e8b13c0be170b760001b6200033b60201b60201c565b5050620003ae565b50565b81620003375762000336816200033e60201b60201c565b5b5050565b50565b6030600a820601600a820491506030600a830601600a830492506030600a8406018060101b8260081b8401016642414c230000000160c81b7f08c379a000000000000000000000000000000000000000000000000000000000600052602060045260076024528060445260646000fd5b60805160a051610881620003d2600039806107a45250806106f852506108816000f3fe608060405234801561001057600080fd5b506004361061004c5760003560e01c806316c38b3c146100515780631c0de051146100815780638d555bdd146100af578063e9083f62146100dd575b600080fd5b61007f6004803603602081101561006757600080fd5b8101908080351515906020019092919050505061010b565b005b61008961019b565b604051808415158152602001838152602001828152602001935050505060405180910390f35b6100db600480360360208110156100c557600080fd5b81019080803590602001909291905050506102f8565b005b610109600480360360208110156100f357600080fd5b81019080803590602001909291905050506102fb565b005b6101377f0210c3d4ceeeef78b4c5c901f9c86a3c7f35421de5428bff29541c22299f6b5960001b6102f8565b6101637fddb11381987240b1ffda65d01ec179bc46c8069585cea446e64bd4dd8728083a60001b6102f8565b61018f7f0322c35fc66d606190ef1e1b0fe30ef98a0b0883d3cd23aab3bfba0ced8fd45e60001b6102f8565b610198816102fe565b50565b60008060006101cc7f18cc8dc20a1ad77603273d0fb77be91955c8ad792e3d7764c49079ac9b61e0ed60001b6102fb565b6101f87f76c635b6e7e47a035d1d142dac6a7335b96bc1b76c90516a0b4d4b0c8a73dc1e60001b6102fb565b6102247f64ba82495936cfc0eddf6ffc54de798f2cc9f0e74ea13078053cb63db8d2589d60001b6102fb565b61022c6105c5565b15925061025b7f5cd65d0e58d3ba7b6d482ad8676260457a2bdb3b3592e2e2001a9bce46b556ed60001b6102fb565b6102877f9621e7a8975dd596a9a85caab7f65e524cadfb5dd2c5ae64f90be4b2d8018a8b60001b6102fb565b61028f610670565b91506102bd7fcaa139029346a8a379d3422961606d3a079119372f0df216b61002fbd10d913860001b6102fb565b6102e97f1110bdcce9f69a67c5a5244ee73685e2fb6cd791ff5e0041c5c0f8b16e28af7d60001b6102fb565b6102f161071c565b9050909192565b50565b50565b61032a7f9ca88045db8d949814438a13bf21b48aedd95f5ff425c78bdeecf9e554c20e0c60001b6102fb565b6103567f4484fae8b8c9b656ccdd7654efc847550084d7ff8a53c71d79f033cb2841200e60001b6102fb565b6103827f3a1188fe57cac37044a89dd8e5528114be6e1007b6406a553d38ef12bd40128260001b6102fb565b8015610426576103b47fdda645df7e98b889b69605a1bf756afad35a07ce30b01314c79d51c37b54701060001b6102fb565b6103e07fb7f6d0de389687aa7fde5c37b0c2f09f4a18c62972c7173468c0d5f3cb9cc91b60001b6102fb565b61040c7f360eba24823249042ba60c6e0658ae8b185a6fae1f97291b0b165b49646efcf160001b6102fb565b610421610417610670565b42106101936107c8565b6104c0565b6104527f05d8ac58c222598101af6f778876daf2b2ee278593a4decfa775af3163d0b4c060001b6102fb565b61047e7fcca9c947ff50725ae80c4f35ace24e26c64dfdda7d4b9eb9238c0587de3f819560001b6102fb565b6104aa7f7ac650656159f2390ccf4a5a435c6e94ef6bdaf2db56514e60facb392b930ec460001b6102fb565b6104bf6104b561071c565b42106101a96107c8565b5b6104ec7f614e1735d26a417915233ed97d734bcb5ba84914644cedb23defc5a2c4eaa55160001b6102fb565b6105187f1b4a3e5f5d8a07e71bf12327fc36732f208a90d5127ef5a880ac46eb5eda52e960001b6102fb565b806000806101000a81548160ff02191690831515021790555061055d7f60de7a74b61922d97d93f392d3be383d254e5a8bde11d9f3667002600e9372b060001b6102fb565b6105897fd50ea98c5ed63cf272070b3787b98fb630edb1e3eca7d0d12f622fb79864addf60001b6102fb565b7f9e3a5e37224532dea67b89face185703738a228a6e8a23dee546960180d3be648160405180821515815260200191505060405180910390a150565b60006105f37f89b34f2fb06dac097a304a424a1ad8c28395d1849054b696c8fecfcff4055dce60001b6102fb565b61061f7f627cb46d8473646cf71270352217eabe06ac16332088afb831fe88e28ec077da60001b6102fb565b61064b7fb74ddcb4d2734e77259615375d823c21dac5b776b56f1c1a11ca9ca567e71a7b60001b6102fb565b61065361071c565b42118061066b575060008054906101000a900460ff16155b905090565b600061069e7fb842466cf656b2952ad7f300d5515c05a11d6a992cbea6b69e8eb29cfc79eabb60001b6102fb565b6106ca7f4e72d726a61cf09efe8147a409ab7bdc1ea15e796d8baca5a430cab1a5335a7260001b6102fb565b6106f67fd3ec2efc7233e25174de2c94fc91d34ee9074a336f9f1015ffcd059519f4d0a460001b6102fb565b7f0000000000000000000000000000000000000000000000000000000000000000905090565b600061074a7f4052916af5ae9f897cb803d56086596648e0c168ef92212c663e3134c3b19a6d60001b6102fb565b6107767fd3c6251a62d0f77016b4e3b22d079f8a671996b36720c49a2ccf206d7e76080960001b6102fb565b6107a27fc4dc146b381b9b1de3f7d4d3ff843f926f346ba6f9d8f5c0795b47af1f1fac9760001b6102fb565b7f0000000000000000000000000000000000000000000000000000000000000000905090565b816107d7576107d6816107db565b5b5050565b6030600a820601600a820491506030600a830601600a830492506030600a8406018060101b8260081b8401016642414c230000000160c81b7f08c379a000000000000000000000000000000000000000000000000000000000600052602060045260076024528060445260646000fdfea26469706673582212209f1d5445846d486e3ff90ef5b3b23e6fcbe5943285f5bc1ff86956e4548daa2f64736f6c63430007010033",
  "linkReferences": {},
  "deployedLinkReferences": {}
}