{
  "_format": "hh-sol-artifact-1",
  "contractName": "Math",
  "sourceName": "contracts/balancer-core-v2/lib/math/Math.sol",
  "abi": [
    {
      "inputs": [
        {
          "internalType": "bytes32",
          "name": "c__0xa6aabac5",
          "type": "bytes32"
        }
      ],
      "name": "c_0xa6aabac5",
      "outputs": [],
      "stateMutability": "pure",
      "type": "function"
    }
  ],
  "bytecode": "0x609c610024600b82828239805160001a607314601757fe5b30600052607381538281f3fe730000000000000000000000000000000000000000301460806040526004361060335760003560e01c80637b44e13c146038575b600080fd5b606160048036036020811015604c57600080fd5b81019080803590602001909291905050506063565b005b5056fea26469706673582212208b873544a3ef85d4658c995fedf765b10dbe012cdaef8b86979735fc68a6822f64736f6c63430007010033",
  "linkReferences": {},
  "deployedLinkReferences": {}
}