{
  "_format": "hh-sol-artifact-1",
  "contractName": "Math",
  "sourceName": "contracts/balancer-core-v2/lib/math/Math.sol",
  "abi": [
    {
      "inputs": [
        {
          "internalType": "bytes32",
          "name": "c__0xcf508e68",
          "type": "bytes32"
        }
      ],
      "name": "c_0xcf508e68",
      "outputs": [],
      "stateMutability": "pure",
      "type": "function"
    }
  ],
  "bytecode": "0x609c610024600b82828239805160001a607314601757fe5b30600052607381538281f3fe730000000000000000000000000000000000000000301460806040526004361060335760003560e01c80633c8c6820146038575b600080fd5b606160048036036020811015604c57600080fd5b81019080803590602001909291905050506063565b005b5056fea2646970667358221220aa68d973a211fb70c10581fd85125aa2ec5f0441e0592fed99dfd05e6c557f9564736f6c63430007010033",
  "linkReferences": {},
  "deployedLinkReferences": {}
}