{
  "_format": "hh-sol-artifact-1",
  "contractName": "StableMath",
  "sourceName": "contracts/balancer-core-v2/pools/stable/StableMath.sol",
  "abi": [
    {
      "inputs": [
        {
          "internalType": "bytes32",
          "name": "c__0xa4924c18",
          "type": "bytes32"
        }
      ],
      "name": "c_0xa4924c18",
      "outputs": [],
      "stateMutability": "pure",
      "type": "function"
    }
  ],
  "bytecode": "0x6080604052348015600f57600080fd5b5060918061001e6000396000f3fe6080604052348015600f57600080fd5b506004361060285760003560e01c80633300992114602d575b600080fd5b605660048036036020811015604157600080fd5b81019080803590602001909291905050506058565b005b5056fea2646970667358221220ecc0e4a237ad1d2f02c50c2438b4dd8c2f1712d8a3d932002ad36c97d19da35264736f6c63430007010033",
  "linkReferences": {},
  "deployedLinkReferences": {}
}