{
  "_format": "hh-sol-artifact-1",
  "contractName": "StableMath",
  "sourceName": "contracts/balancer-core-v2/pools/stable/StableMath.sol",
  "abi": [
    {
      "inputs": [
        {
          "internalType": "bytes32",
          "name": "c__0x8bcac62d",
          "type": "bytes32"
        }
      ],
      "name": "c_0x8bcac62d",
      "outputs": [],
      "stateMutability": "pure",
      "type": "function"
    }
  ],
  "bytecode": "0x6080604052348015600f57600080fd5b5060918061001e6000396000f3fe6080604052348015600f57600080fd5b506004361060285760003560e01c8063f6830dd014602d575b600080fd5b605660048036036020811015604157600080fd5b81019080803590602001909291905050506058565b005b5056fea26469706673582212208a19786809e609e419335bc547a1fa6d1eefdea5ce5564e2175b9985d167c17c64736f6c63430007010033",
  "linkReferences": {},
  "deployedLinkReferences": {}
}