{
  "_format": "hh-sol-artifact-1",
  "contractName": "Authorizable",
  "sourceName": "contracts/libraries/Authorizable.sol",
  "abi": [
    {
      "inputs": [],
      "stateMutability": "nonpayable",
      "type": "constructor"
    },
    {
      "inputs": [
        {
          "internalType": "address",
          "name": "who",
          "type": "address"
        }
      ],
      "name": "authorize",
      "outputs": [],
      "stateMutability": "nonpayable",
      "type": "function"
    },
    {
      "inputs": [
        {
          "internalType": "address",
          "name": "",
          "type": "address"
        }
      ],
      "name": "authorized",
      "outputs": [
        {
          "internalType": "bool",
          "name": "",
          "type": "bool"
        }
      ],
      "stateMutability": "view",
      "type": "function"
    },
    {
      "inputs": [
        {
          "internalType": "bytes32",
          "name": "c__0x4b728764",
          "type": "bytes32"
        }
      ],
      "name": "c_0x4b728764",
      "outputs": [],
      "stateMutability": "pure",
      "type": "function"
    },
    {
      "inputs": [
        {
          "internalType": "address",
          "name": "who",
          "type": "address"
        }
      ],
      "name": "deauthorize",
      "outputs": [],
      "stateMutability": "nonpayable",
      "type": "function"
    },
    {
      "inputs": [
        {
          "internalType": "address",
          "name": "who",
          "type": "address"
        }
      ],
      "name": "isAuthorized",
      "outputs": [
        {
          "internalType": "bool",
          "name": "",
          "type": "bool"
        }
      ],
      "stateMutability": "view",
      "type": "function"
    },
    {
      "inputs": [],
      "name": "owner",
      "outputs": [
        {
          "internalType": "address",
          "name": "",
          "type": "address"
        }
      ],
      "stateMutability": "view",
      "type": "function"
    },
    {
      "inputs": [
        {
          "internalType": "address",
          "name": "who",
          "type": "address"
        }
      ],
      "name": "setOwner",
      "outputs": [],
      "stateMutability": "nonpayable",
      "type": "function"
    }
  ],
  "bytecode": "0x608060405234801561001057600080fd5b506100437f20ce721125820097d8ab6e6e5a99e0290a6ec6d648f486854cb925dd52df9bb860001b6100ec60201b60201c565b6100757f704f0c5b69518a4ecf8b381629e3649c797c67405793669ad6b54a68e48bc7e560001b6100ec60201b60201c565b6100a77fb8a8ff4abe6bf8a8f1d5c19d3d1294136af512798ce8af2179eee8f75c59609e60001b6100ec60201b60201c565b336000806101000a81548173ffffffffffffffffffffffffffffffffffffffff021916908373ffffffffffffffffffffffffffffffffffffffff1602179055506100ef565b50565b610c54806100fe6000396000f3fe608060405234801561001057600080fd5b506004361061007d5760003560e01c8063b6a5d7de1161005b578063b6a5d7de146100d8578063b9181611146100f4578063e27b583314610124578063fe9fbb80146101405761007d565b806313af40351461008257806327c97fa51461009e5780638da5cb5b146100ba575b600080fd5b61009c60048036038101906100979190610a91565b610170565b005b6100b860048036038101906100b39190610a91565b6103cd565b005b6100c2610642565b6040516100cf9190610b41565b60405180910390f35b6100f260048036038101906100ed9190610a91565b610666565b005b61010e60048036038101906101099190610a91565b61088c565b60405161011b9190610b5c565b60405180910390f35b61013e60048036038101906101399190610aba565b6108ac565b005b61015a60048036038101906101559190610a91565b6108af565b6040516101679190610b5c565b60405180910390f35b61019c7fd3c15ea78c92f29ff21320133dc186cdc3d1b99010a10df905c42a6af1a2c6f460001b6108ac565b6101c87fac6901de5a519b8c1831d8445034bb5dea3a2d45b70c0fba443d0d84677323ac60001b6108ac565b6101f47fcf08c7465446b26d7e68bf1123bb30be9e147682d9a9980bab252718ee9e41b860001b6108ac565b6102207fd8063382c6af56cf10a207517e9d4e28deae0b115ed54758c9c98079502650bc60001b6108ac565b60008054906101000a900473ffffffffffffffffffffffffffffffffffffffff1673ffffffffffffffffffffffffffffffffffffffff163373ffffffffffffffffffffffffffffffffffffffff16146102ae576040517f08c379a00000000000000000000000000000000000000000000000000000000081526004016102a590610b77565b60405180910390fd5b6102da7f9d62103f62fa99b274a5dbc105d68f3c0d1ed548f044bb895c6f91b791225f0560001b6108ac565b6103067f8aaebfe919b353feff66e5141b201dcd11ddf0a99ea594d5996ee70c159db8ed60001b6108ac565b6103327f59bf33915e2a4fde49411d6cd41c71a2b1f37226654330f870b6011ebc41a67760001b6108ac565b61035e7f9db2b932910aad5052dfdcb968b717aff9d86b45068a2770e7db55c699ccabc860001b6108ac565b61038a7f4f426c94812a648c8603c004a7a2d5dcbfc70b936ca5098e4902272eb0510eb860001b6108ac565b806000806101000a81548173ffffffffffffffffffffffffffffffffffffffff021916908373ffffffffffffffffffffffffffffffffffffffff16021790555050565b6103f97fd3c15ea78c92f29ff21320133dc186cdc3d1b99010a10df905c42a6af1a2c6f460001b6108ac565b6104257fac6901de5a519b8c1831d8445034bb5dea3a2d45b70c0fba443d0d84677323ac60001b6108ac565b6104517fcf08c7465446b26d7e68bf1123bb30be9e147682d9a9980bab252718ee9e41b860001b6108ac565b61047d7fd8063382c6af56cf10a207517e9d4e28deae0b115ed54758c9c98079502650bc60001b6108ac565b60008054906101000a900473ffffffffffffffffffffffffffffffffffffffff1673ffffffffffffffffffffffffffffffffffffffff163373ffffffffffffffffffffffffffffffffffffffff161461050b576040517f08c379a000000000000000000000000000000000000000000000000000000000815260040161050290610b77565b60405180910390fd5b6105377f9d62103f62fa99b274a5dbc105d68f3c0d1ed548f044bb895c6f91b791225f0560001b6108ac565b6105637f8aaebfe919b353feff66e5141b201dcd11ddf0a99ea594d5996ee70c159db8ed60001b6108ac565b61058f7f5d12454d6ee4a1f4b3b68a0b56d570c145241177d8c258e485e98866aa95911b60001b6108ac565b6105bb7f28b024be22ed63df645a0abccdc142ecd3ef4c35fbfa6421c6dab702d0d2fc4060001b6108ac565b6105e77fb6333f3a0aac75470d9374fbfbea04f22c39e6971cb569f24aedc77ccc96aa0b60001b6108ac565b6000600160008373ffffffffffffffffffffffffffffffffffffffff1673ffffffffffffffffffffffffffffffffffffffff16815260200190815260200160002060006101000a81548160ff02191690831515021790555050565b60008054906101000a900473ffffffffffffffffffffffffffffffffffffffff1681565b6106927fd3c15ea78c92f29ff21320133dc186cdc3d1b99010a10df905c42a6af1a2c6f460001b6108ac565b6106be7fac6901de5a519b8c1831d8445034bb5dea3a2d45b70c0fba443d0d84677323ac60001b6108ac565b6106ea7fcf08c7465446b26d7e68bf1123bb30be9e147682d9a9980bab252718ee9e41b860001b6108ac565b6107167fd8063382c6af56cf10a207517e9d4e28deae0b115ed54758c9c98079502650bc60001b6108ac565b60008054906101000a900473ffffffffffffffffffffffffffffffffffffffff1673ffffffffffffffffffffffffffffffffffffffff163373ffffffffffffffffffffffffffffffffffffffff16146107a4576040517f08c379a000000000000000000000000000000000000000000000000000000000815260040161079b90610b77565b60405180910390fd5b6107d07f9d62103f62fa99b274a5dbc105d68f3c0d1ed548f044bb895c6f91b791225f0560001b6108ac565b6107fc7f8aaebfe919b353feff66e5141b201dcd11ddf0a99ea594d5996ee70c159db8ed60001b6108ac565b6108287fdf5291eb74b2eebd717fb3193d6df21b2e17f96d53f9c59d146f528391a61cff60001b6108ac565b6108547f9cd6e0cf6986e268ce967dbab10e475a2772463fbd3d4edbafc7d55b9a259a8360001b6108ac565b6108807ff4888f1991892c171d770d7451af8d6a0cc2f48de4853d4b995d41bd3916ba6360001b6108ac565b61088981610989565b50565b60016020528060005260406000206000915054906101000a900460ff1681565b50565b60006108dd7f5d203ac8e3feb75efa94e0b910558076e3703263fbc7eeb32681bb57b1a8b39360001b6108ac565b6109097fc9870c48d9ef77d66147b925fdcf1457da4741003fddcfaf2e5cd7b8356cabc760001b6108ac565b6109357f9df5568f613f1f598fa209a9c44a3e8e930a119ff855a6bdc5bd8147eea5ac5d60001b6108ac565b600160008373ffffffffffffffffffffffffffffffffffffffff1673ffffffffffffffffffffffffffffffffffffffff16815260200190815260200160002060009054906101000a900460ff169050919050565b6109b57f69720f7d8750c3db5d0f7829a41f5a26bafd40e148a1e4d5678ec378c960f9bc60001b6108ac565b6109e17f0c4e51ab5ab250a134a6e528047c8268ad0cf2cfe0cbc4ec89fe005afc88b91c60001b6108ac565b610a0d7ffc5e08e3675420d134ac48c459a45e0cfe67bca9c6c2f79c1a12082b6bb1659560001b6108ac565b60018060008373ffffffffffffffffffffffffffffffffffffffff1673ffffffffffffffffffffffffffffffffffffffff16815260200190815260200160002060006101000a81548160ff02191690831515021790555050565b600081359050610a7681610bf0565b92915050565b600081359050610a8b81610c07565b92915050565b600060208284031215610aa357600080fd5b6000610ab184828501610a67565b91505092915050565b600060208284031215610acc57600080fd5b6000610ada84828501610a7c565b91505092915050565b610aec81610ba8565b82525050565b610afb81610bba565b82525050565b6000610b0e601083610b97565b91507f53656e646572206e6f74206f776e6572000000000000000000000000000000006000830152602082019050919050565b6000602082019050610b566000830184610ae3565b92915050565b6000602082019050610b716000830184610af2565b92915050565b60006020820190508181036000830152610b9081610b01565b9050919050565b600082825260208201905092915050565b6000610bb382610bd0565b9050919050565b60008115159050919050565b6000819050919050565b600073ffffffffffffffffffffffffffffffffffffffff82169050919050565b610bf981610ba8565b8114610c0457600080fd5b50565b610c1081610bc6565b8114610c1b57600080fd5b5056fea26469706673582212200594ae1d0ffd30f71992b5d576febaf9537cb1f9cb38d8228fe98ef4c4cbaf6e64736f6c63430008000033",
  "linkReferences": {},
  "deployedLinkReferences": {}
}