{
  "_format": "hh-sol-artifact-1",
  "contractName": "MockWeightedOracleMath",
  "sourceName": "contracts/balancer-core-v2/test/MockWeightedOracleMath.sol",
  "abi": [
    {
      "inputs": [
        {
          "internalType": "bytes32",
          "name": "c__0x3092f93e",
          "type": "bytes32"
        }
      ],
      "name": "c_0x3092f93e",
      "outputs": [],
      "stateMutability": "pure",
      "type": "function"
    },
    {
      "inputs": [
        {
          "internalType": "bytes32",
          "name": "c__0x605fd779",
          "type": "bytes32"
        }
      ],
      "name": "c_0x605fd779",
      "outputs": [],
      "stateMutability": "pure",
      "type": "function"
    },
    {
      "inputs": [
        {
          "internalType": "uint256",
          "name": "normalizedWeight",
          "type": "uint256"
        },
        {
          "internalType": "uint256",
          "name": "balance",
          "type": "uint256"
        },
        {
          "internalType": "int256",
          "name": "bptTotalSupplyLn",
          "type": "int256"
        }
      ],
      "name": "calcLogBPTPrice",
      "outputs": [
        {
          "internalType": "int256",
          "name": "",
          "type": "int256"
        }
      ],
      "stateMutability": "pure",
      "type": "function"
    },
    {
      "inputs": [
        {
          "internalType": "uint256",
          "name": "normalizedWeightA",
          "type": "uint256"
        },
        {
          "internalType": "uint256",
          "name": "balanceA",
          "type": "uint256"
        },
        {
          "internalType": "uint256",
          "name": "normalizedWeightB",
          "type": "uint256"
        },
        {
          "internalType": "uint256",
          "name": "balanceB",
          "type": "uint256"
        }
      ],
      "name": "calcLogSpotPrice",
      "outputs": [
        {
          "internalType": "int256",
          "name": "",
          "type": "int256"
        }
      ],
      "stateMutability": "pure",
      "type": "function"
    },
    {
      "inputs": [
        {
          "internalType": "int256",
          "name": "value",
          "type": "int256"
        }
      ],
      "name": "fromLowResLog",
      "outputs": [
        {
          "internalType": "uint256",
          "name": "",
          "type": "uint256"
        }
      ],
      "stateMutability": "pure",
      "type": "function"
    },
    {
      "inputs": [
        {
          "internalType": "uint256",
          "name": "value",
          "type": "uint256"
        }
      ],
      "name": "toLowResLog",
      "outputs": [
        {
          "internalType": "int256",
          "name": "",
          "type": "int256"
        }
      ],
      "stateMutability": "pure",
      "type": "function"
    }
  ],
  "bytecode": "0x608060405234801561001057600080fd5b50615326806100206000396000f3fe608060405234801561001057600080fd5b50600436106100725760003560e01c8063afec8c9f11610050578063afec8c9f14610129578063be7a6d1e14610157578063c519a075146101ad57610072565b806357aad01314610077578063790e0d97146100b9578063abb9d0d5146100e7575b600080fd5b6100a36004803603602081101561008d57600080fd5b810190808035906020019092919050505061020d565b6040518082815260200191505060405180910390f35b6100e5600480360360208110156100cf57600080fd5b81019080803590602001909291905050506102a3565b005b610113600480360360208110156100fd57600080fd5b81019080803590602001909291905050506102a6565b6040518082815260200191505060405180910390f35b6101556004803603602081101561013f57600080fd5b810190808035906020019092919050505061033c565b005b6101976004803603606081101561016d57600080fd5b8101908080359060200190929190803590602001909291908035906020019092919050505061033f565b6040518082815260200191505060405180910390f35b6101f7600480360360808110156101c357600080fd5b81019080803590602001909291908035906020019092919080359060200190929190803590602001909291905050506103d9565b6040518082815260200191505060405180910390f35b600061023b7f5090d2b169908de7430a547df379e8166dd2c5113b16e7244ff34a8992ade89060001b6102a3565b6102677fed211491eda5f0b8c0286e9cb5163c8c2d71c75588c73105443b1036887641b860001b6102a3565b6102937f042ed991786ba245d024109e891ea8feb8bca681da49f6d6da71170499e48d7e60001b6102a3565b61029c82610475565b9050919050565b50565b60006102d47fc4cf94a2ba8d1d6ce195a62e09ec69e5a6b57afee6d9f8c041f9d0edc549825b60001b6102a3565b6103007f6a028a39928d444dd65f9e971f68087c73bb164127b03aeea813915021108d7560001b6102a3565b61032c7f31471774b24ad88a076fad908edd618380aeea0ebd5d09cf7fc9fcae263e3ae460001b6102a3565b61033582610597565b9050919050565b50565b600061036d7fde6bd41e5e03cdcd4fd37472f0729c22bb225ff3911a1fd3930b7d4f4ec5c74860001b6102a3565b6103997f46ceb3a86b35ca8a78d51495dc48fea0f115f479281daedaffb4501db57d192060001b6102a3565b6103c57ff867c487a21a967a4d03e45917b32dbb44b2ab3cabb486cf1524464c44dccc6a60001b6102a3565b6103d0848484610635565b90509392505050565b60006104077fc3c25ddc29d2c3379f4fcde19826439d3caac3e6de20bd9afa69f08e6a497acf60001b6102a3565b6104337f715273a94c5fa6cdd9c2f5a845feee0a8cc46f5b2c17de47bd407fe63555a32b60001b6102a3565b61045f7f9e88f8f046fedb298ec43677640f51b136ea29c032011cd94cc66bfc67af860160001b6102a3565b61046b8585858561073f565b9050949350505050565b60006104a37fd973df07662529dcccaa7cdc8d7beb22b0dc9f2f40fb62dcc675fa1497b493ef60001b61033c565b6104cf7fd9241ad49dcd56af5a42999d49847c6026210c9dac78d390c318594378c5ca2d60001b61033c565b6104fb7f9987334f183afba68759803e05810f2c52d960d1d76988ab981d11a01a8483b860001b61033c565b60006105068361086c565b90506105347fb080f28fc717cff461da83c36aa165de5a3aabfd41dc95323672e2ccfd80b2ea60001b61033c565b6105607febdc1ce0ca71d677950b5fd054d651334a3ce9fc9fed0686d490ebe8dfcb42fa60001b61033c565b655af3107a40006000821361057d57652d79883d20008203610587565b652d79883d200082015b8161058e57fe5b05915050919050565b60006105c57fd60a3d1569c5f55436e862a835681bf18406fc13714233cea6f72004fe83edcb60001b61033c565b6105f17ffa22b9074ed9ece98e4af94c18b3786ca704bb8e8fc6fea12001d4ef336681c460001b61033c565b61061d7f826badb526724f08ff5ed9282804a951b286c83017c877ff956d8ce3bd873fb460001b61033c565b61062e655af3107a40008302610ac9565b9050919050565b60006106637fef461a169749e29df7e691c44b6cdb0e69e1be9c7fb542c7bd203990328328e360001b61033c565b61068f7f84c816da87ade95476ea17fd407f04b9f4657424c0d09bac7d0fb48e37b86b7660001b61033c565b6106bb7f09212f82148dec6c9f6326ace751ce22eb4e83979c7e72c8e41a3405ac04787060001b61033c565b60006106d86106d386866129a190919063ffffffff16565b610475565b90506107067fb7525fe21e91d6d24bc0e29f90d8f88f42b3b9c68ea6109f77ba990a7f22188c60001b61033c565b6107327f6515e9419eb5e1d7fb1c96f9f786d9545a684e1ebb0ea5cca3c87ab907ed325960001b61033c565b8281039150509392505050565b600061076d7fce25830bd7f91e9fc1af5c0d05a17f6a5f48d15154c85bef08e7c54327a3979260001b61033c565b6107997fdd7a8b3a9e35200acee99afb50d64657ff886de77aa3d6cd0168b9a18a2dac1b60001b61033c565b6107c57fe02f5a129147b42ec1f9a386284c6262c49271942599bf0b5032302a907bd55c60001b61033c565b60006107fe6107dd85856129a190919063ffffffff16565b6107f088886129a190919063ffffffff16565b6129a190919063ffffffff16565b905061082c7fcf871ec7ca53e92cce69c65c5f7ed8cd14d438387dcb7a46008e51fb9e59278260001b61033c565b6108587fa131ab934d3aa93b760dad0fd53de290d32e54a9ef56dbda2381b9a0c9480aa860001b61033c565b61086181610475565b915050949350505050565b600061089a7faf2562788af136396a6b3154afea250c34c8baa527f57ffcc313ac3934b5b74d60001b612c9f565b6108c67fc943e083836e6e29e3ca188a8671c6498f29891e50caa687094ac48a8182f30b60001b612c9f565b6108f27f891b2924ebfbf9885ac5f1c87668b28c990a6988e8d31ec1fe6bf1de3f063f0960001b612c9f565b610900600083136064612ca2565b61092c7fd8a15c2c535858583fc487a8cc6c3a775a5b9c15ffbee39883838defc25e8e8860001b612c9f565b6109587fa8ac88bfbd7d75e77b80095abae82cd66189be9210b61b6ef6eed0cb1551313c60001b612c9f565b8167016345785d8a0000670de0b6b3a76400000312801561098a575067016345785d8a0000670de0b6b3a76400000182125b15610a34576109bb7fef02002862b6433622ac439a8d614e81d00f3eae33e479b5c2ad991fc7e1da0460001b612c9f565b6109e77fb8bafa8adc099244a0d38d56700a82d1743fe9a01cfed24e071e57142cd8be6f60001b612c9f565b610a137f24f508e0416ecd430123ec635661d711964cd9157b891f57818904cbb9f42cbf60001b612c9f565b670de0b6b3a7640000610a2583612cb5565b81610a2c57fe5b059050610ac4565b610a607f810b6fda621c18a0a52428568514dca2864d3f9cd32c54f4764e90270b6a8f2d60001b612c9f565b610a8c7f416b2930898d61480cb2d658fe11b024d11e44a55aa01763946f220b1cc1a28160001b612c9f565b610ab87f65d2bd836c1f1f5c03f5591894c811a5e6bda0f62887f01e2d3cb05e6324ce9660001b612c9f565b610ac18261356e565b90505b919050565b6000610af77f8f9957956285fa36aaf574af5b32355302daeb041d9920de1237aeb9c5bd0fc560001b612c9f565b610b237f049adcef04ddf4d2d541f2ad2e7b0cb2e49f45ce33e82b917f39ce4661c56fb160001b612c9f565b610b4f7f31362ceff8fe74b0dac8c6d98041f46dce294d61d691bf77a6e3102e98a4960d60001b612c9f565b610b927ffffffffffffffffffffffffffffffffffffffffffffffffdc702bd3a30fc00008312158015610b8b575068070c1cc73b00c800008313155b6009612ca2565b610bbe7feaec38791fef9244227a2ac9c89991aa9c3e6eda434a80233223b5eca079a5e960001b612c9f565b610bea7f0b54346d0dfe62f72284a3c75473334476d66c4469f11bcb760a40ae4cfb68bc60001b612c9f565b6000821215610c9d57610c1f7f96954f28e83ef514a5a7abe216bcf324d3fdfbe3f6a18be7a718c53286e53b6d60001b612c9f565b610c4b7f463dbff911b02742b5684b523b26e12b3cdc3bd0501d3eb8f5afebc4c2def0af60001b612c9f565b610c777f40035bdb11894c0908058a5597e77e5553b40c454dc865283e53ce2e02f1445c60001b612c9f565b610c8382600003610ac9565b670de0b6b3a7640000800281610c9557fe5b05905061299c565b610cc97f0f3836123227a0de7a4c4df6d4d4feca82c8bf770aa6e542a3a07616fe30614060001b612c9f565b610cf57fda299c831b49c4a6e67502e93408e9ecdd3f8985dc9c4240c853d17c9d85f9f660001b612c9f565b610d217f3e1263d6a747804fa9f1a51a9eb15d85064841e996125ef260e9dd251e41a88d60001b612c9f565b6000610d4f7f13df8400d288418b9029209525f41b317b2c4b9b82d6c4121ee38860550ecab660001b612c9f565b610d7b7f18be439d287dfd168580f3e3a36aeb782189558298466857798d7ede0327b8ef60001b612c9f565b6806f05b59d3b20000008312610e9557610db77f77b0d1d0dd6059a9e0d9f32111c24f76b9e9f87cbc63515acd5b75070e39756860001b612c9f565b610de37f46d0ca777ee0ac966c329bf1cffe6853f6eda5cfd758fc88c99324ce6b4d501f60001b612c9f565b610e0f7f8a2665721e1b356ce501effdadcce8aefbedf2eda207e46f87ec7348f89e809a60001b612c9f565b6806f05b59d3b200000083039250610e497f8ce0e0f632ba31c6974e75e11700c14fb1b5480bc715658835b1732ecabbe81860001b612c9f565b610e757fc46c62d44f13b1e633d72f26f59aa8fa3d140557cc5dd523ec18a4f8e9c6e9af60001b612c9f565b770195e54c5dd42177f53a27172fa9ec6302628270000000009050611084565b610ec17f4caa899a161097f7c15c9e40cd465eba2c7ea889d70a5f2b5372beba85aafbf960001b612c9f565b610eed7fc11f2b0d6957b1ea63ff257484fd21f83d16757118c6f844938dd8e3fe169e5e60001b612c9f565b6803782dace9d90000008312610ffa57610f297f77f1827cc40ee4278fd35816afd5b948d67bfd4bd8dede0ad4b3b65b704559bc60001b612c9f565b610f547e7472974ece765a6511ef28cb9b3cdb93509e7d3d6b2543a463b0fd9ea5eb6f60001b612c9f565b610f807f23a62202ad8d5e6af5db7371e1a41939fd3ef374184a95d95c542d6a0e02399160001b612c9f565b6803782dace9d900000083039250610fba7f670b6e2b3acc0ad997eba051913b0d53edeffade5ee29432c993ddee9e9c030660001b612c9f565b610fe67fd1e64ae3de1aa103b81dd167c133e2e995786f074c540cc9f1836e91ac35d27c60001b612c9f565b6b1425982cf597cd205cef73809050611083565b6110267f911480f5f1c126514d11fb5dcc18a411504dbc69e15a36c6b393ec241023762d60001b612c9f565b6110527f7d061d37609fc5aab6b42e38410857a1b5f5bc7b941c31475b6bf5144ac8b60260001b612c9f565b61107e7f52cf895b816ba855b556bd2684e72ea44a744b4c358c564099eebd603098e16760001b612c9f565b600190505b5b6110b07fbb8a60f80d3b49dc29a85e7433ce43927e70fa829704b97d288c7f7c3bde638f60001b612c9f565b6110dc7f86b7d3837b05095aacffb9f3c610a36ec43d94824b4d1b35f94c5bebb9a650ca60001b612c9f565b60648302925061110e7ff0a4f8500e88b232fab07586e1b2e87a8c7806bdb2ab1eb6efff6f85234386dc60001b612c9f565b61113a7f1a5223336d59fc4292449a1e644e71d22ddc1b73c058d61ef4425f28b9d9d82660001b612c9f565b600068056bc75e2d6310000090506111747f8a0d2c3fe2867eabbb080a815408f474966a2424dfc32dd32f36eef73de606d060001b612c9f565b6111a07fc092be2a82cb76747d6baa54343af5168e18c341f67046d6bd33cc47ba1527e960001b612c9f565b68ad78ebc5ac6200000084126112c5576111dc7ffc88ed4b45c9517c657dcc21025aa285327fd6ed9106b840a22832815758776b60001b612c9f565b6112087fdbda1f49372ce70b8d009669446d1650b9cf5e6efdca38bf7fa2a148ea49240e60001b612c9f565b6112347f32c60df886f45af987ef2eb53fd88e7e93f1dba954890d791b421cbb3fff276f60001b612c9f565b68ad78ebc5ac620000008403935061126e7fc05771c55ce6ddb14e1ba8c0fb104578f6e91c74367ddd069a2657be5e4642c960001b612c9f565b61129a7fada9608e6f169e501d91db28c2af86e899704aafa89771ebdd011db05f69097760001b612c9f565b68056bc75e2d631000006e01855144814a7ff805980ff00840008202816112bd57fe5b0590506112f2565b6112f17f100920b793e8e6f00887b4382e2dde747dd3366702b620b02cc16d3f6b6941a060001b612c9f565b5b61131e7f772bebc08a73d0af3bd359ee45021ee9c1f7448e08e424cc43c5893b4e0f88f860001b612c9f565b61134a7fb7f799aed614a91f2c04467d974a4393f0b3ed6fe1dc13433da4f6e9b263fd1860001b612c9f565b6856bc75e2d631000000841261146c576113867f1781ea8ce066eedcdd99bc5b0753cd1aa8081f4d8ca6456a341a9bd134dce99260001b612c9f565b6113b27fa0030d8f855693f4a88849f53c4371f951e4c48a42c0f36cb49aa52f021543c660001b612c9f565b6113de7f2b119df580aa19f713706ee6d4dc52a1d0a50fae26f20a71a49037fbae1c760d60001b612c9f565b6856bc75e2d631000000840393506114187f43ffeface76e9414d9a189d09e296a0ddc6f449e81381261fce710fa508ed08360001b612c9f565b6114447f19a36337e3a11b47c83a025d282ee671c47dfdabf3ad16d3fe004cdd88cea06060001b612c9f565b68056bc75e2d631000006b02df0ab5a80a22c61ab5a70082028161146457fe5b059050611499565b6114987fe044f0923fe075d9ad4320a302314d74744dcefe6f0b58e6ef0e06381e888fb260001b612c9f565b5b6114c57f06a96c15493d3dcc9dda194a53b4a87ab1f3c607d23b16ea2c20c4a7d8ff72b960001b612c9f565b6114f17fd34a51bd6aaf179ccd334f382c76a8c37d8856e1b95fd68ac4b40c77c105cf5a60001b612c9f565b682b5e3af16b1880000084126116115761152d7fb6d6edb87705138d8e1cbbc1dccbe061c1dadb180f7778f4cc726320b8d721c460001b612c9f565b6115597f7dd2e73e2c58ff529afe93484d2acb33083275bfebd91432cb697f91a7cf921f60001b612c9f565b6115857f0c32443a422d4f0750bb6961b94770ea095a571a7281bec1f34216b32693821960001b612c9f565b682b5e3af16b18800000840393506115bf7fba6c0da1226274d7f2646ca9ed997ac6db472a9a08abcdee25772a9b08f9b2a360001b612c9f565b6115eb7feebc9ec539111233b16cb2a8932dc0a00e0b2a1aff3686af60cf5bea6e80f9ce60001b612c9f565b68056bc75e2d63100000693f1fce3da636ea5cf85082028161160957fe5b05905061163e565b61163d7f766baf1e510161d499ddaafa4ec1ef27747f5c423e1ecdd6670356d80e04a53060001b612c9f565b5b61166a7f799f2bdbd7f4e0bc3f4b6d1f6f2beec73f8580686b8d5fc3651c24574a3bd91a60001b612c9f565b6116967fe4cd49619c0294566c2d46190c85f3fe62eea8cdbb1b03a14cb056b1e57a05b960001b612c9f565b6815af1d78b58c40000084126117b6576116d27f29fa92c76c94d1914b60f11e5875fbeeedb22eba504411034fcc00bd54172ac260001b612c9f565b6116fe7f3243e27afc5b94243b0635ec2e0ebc12b041bd5b79a0c582621f2fe6cef2cbf960001b612c9f565b61172a7ff9f54d7a49e2a11e79efe2cabd1f89e7531eeddf7e4f5aa22f42be065f6e32cf60001b612c9f565b6815af1d78b58c400000840393506117647f6a40c31d583c08f45376066439d581c2340b4372733d735a75353a52b86ac13e60001b612c9f565b6117907fbd043cd79c279cd983a2d9f6d4190b0c6ed186942ea9774e0f30c762b805268360001b612c9f565b68056bc75e2d63100000690127fa27722cc06cc5e28202816117ae57fe5b0590506117e3565b6117e27f3657cbecab91716652db7e1f2f279e0e26f634574d49cd42aab7d54cca69735e60001b612c9f565b5b61180f7f1460cdf97cc2100f3a7fe4186dac7874e887d297e6cd5b99a7a17a25d558637960001b612c9f565b61183b7f3dd3b92b58e40eee2f924ffdcd865c733594cbc86e02d507d6e1277ae942353060001b612c9f565b680ad78ebc5ac6200000841261195a576118777f4acafdbeee4d9ce0d3e76772d7d1d21a0d2175b48ae517da8bdd1b6c4123ffd760001b612c9f565b6118a37f01ceffe142409bf3cf5ebdc48936b3e68edd649cef6988200e942b078fa8106160001b612c9f565b6118cf7fd193243cbb4ae58aaf5634228de1bf49e4b2ce6298521d61e1532e746d51505660001b612c9f565b680ad78ebc5ac6200000840393506119097fb1abf1fdaa834aa673887dfa355f14eb2e596e7b8a9d572289327c598c51a4f760001b612c9f565b6119357ff9e7d07a346f6f68c320597cec43fa2cc755b541a674906fd21c21aafc4ae2ae60001b612c9f565b68056bc75e2d6310000068280e60114edb805d0382028161195257fe5b059050611987565b6119867f15a137bff769aa084005ae4b5185bba69c84e202736211e54e38d758c378630660001b612c9f565b5b6119b37f54fa7e0db86e78b6f70baf303bc90c991a2ececa8e484af9603310a5e0a82f0360001b612c9f565b6119df7fa74a830a9188aedb2c5ebbf412c1b50527bc908de936e66fc6d15779b0862ac460001b612c9f565b68056bc75e2d631000008412611afe57611a1b7f94c2c4dad617aa5d295e8e058b5810a56b8e5990c2f644e6a20a67b11a56910960001b612c9f565b611a477f34ceb71e2ffd34bf94bd706eb37886116cf408b82c4a97ad8bab881a1fe2958c60001b612c9f565b611a737f35bb01650e15cdd5e58989429564bbb99d90f8d717a7868fb74be63857be56b760001b612c9f565b68056bc75e2d6310000084039350611aad7f5d746d42d995fc1a3a7b021610151bac375e5196a3424b0b9c7d55062ace124360001b612c9f565b611ad97f6ab7b1c5c9b345bdd310099bb00eebfbfdce48effb3e7b4a3a918bfc68976caf60001b612c9f565b68056bc75e2d63100000680ebc5fb41746121110820281611af657fe5b059050611b2b565b611b2a7f649bcdc9a6124206bc6f4f558b0fe825be2e4fabd08a68f6885d5e16db60c4fd60001b612c9f565b5b611b577fbe28433d286b1a92f09f1d13fd3684d7e6d7ce4c75466f707961f369aac35b8860001b612c9f565b611b837fb237c5955af52f1f9e51154d247bf874a84ff911c68abbbc1e815909aa6842e960001b612c9f565b6802b5e3af16b18800008412611ca257611bbf7f78e2c12d16d60b3b9d1648c8a691efe6713b9f163b75898faee3abebdf529e6160001b612c9f565b611beb7f9885c57261c446564481e425b772b7a21f7c629de9a4e25574d788feeb5d26dd60001b612c9f565b611c177f068bfc4e713ec324cecf3c04d42782773e433c703416d78738797ec0bc53ac8a60001b612c9f565b6802b5e3af16b188000084039350611c517fe166de5ee53dfed7de0f418a0134f2bd4046bf89aca9f58e331dfe144e64570f60001b612c9f565b611c7d7ff36facc54b0c45a4cdd31265bca2d4a5b26ee39c5be818a0c1132f978a4d303160001b612c9f565b68056bc75e2d631000006808f00f760a4b2db55d820281611c9a57fe5b059050611ccf565b611cce7fbaf1bf92327508cc7df7230285f7d84c785d62562b887f68683f3bad6f14735b60001b612c9f565b5b611cfb7fb60aa888151c8f5e59244106f6570e0ad9394f262cf1959efe8b703e088478d660001b612c9f565b611d277f4d4eb5e3db9c55ac596df2c49a4dd6462202631599a9cde8d298939e9260fc3260001b612c9f565b68015af1d78b58c400008412611e4657611d637f52746123d569ff0dce2117a49dd8029ff2a0556c94649b748f5021909d5996a060001b612c9f565b611d8f7f61d22d5d4ac74eb55404ab7bcfd4013c0eb60d541ccbe94ecc016c290ac766f060001b612c9f565b611dbb7fc44a97d95720ad6b3ab8e5a8ce5caceae02d4ed5f57c3be2ff2def8b27ff59c760001b612c9f565b68015af1d78b58c4000084039350611df57f8bc3891fa09ef84924f2421116ef6dbc96768850a0020d29fd12148c8bdefd5160001b612c9f565b611e217fcb35eb8810f8b9a056faf0bbe33e37713df7e78395e1da0ba74b93a68883a7dc60001b612c9f565b68056bc75e2d631000006806f5f1775788937937820281611e3e57fe5b059050611e73565b611e727fde281447284ff5e39f9945d5f341b1e10147e1ae5d7f740fe0eed826ca276f1c60001b612c9f565b5b611e9f7f6c3d7bad9c3490dd092874bcd6f2e0f9b7d3b95894caeb888e1ef9aec342f95a60001b612c9f565b611ecb7f0343a1ad3d804c6e7e84510e004b2fbe93bdee6ab7aa3c168eb7c46421b2ab1e60001b612c9f565b600068056bc75e2d631000009050611f057fb1c86b3a416276cf9ec0725776ab2b10c3a6414585bccff416b13a18fee6654160001b612c9f565b611f317f31bff64911c48e5ab2826086c5c5c9225d05ccde14fb560f6f0974f3f6e8fabf60001b612c9f565b6000611f5f7ffccc57ca4e9d5d0d873419b8cfa6aa4916ea9ecc26f7b120ceb8e128a03280cc60001b612c9f565b611f8b7f0d23a18b74c4a7d94820921482993a1ea146e5326e121075b5b01a6921b729b260001b612c9f565b859050611fba7f643509097630f7f84d1c332c9f26b00093c14152f6808b948529e4bc31718ad360001b612c9f565b611fe67f92a96b89af6d787c7e16806fffaa6eacc4c8270c8032582c7993085b7516b7f760001b612c9f565b80820191506120177f0d3e7688d35a3e4f18a2ac9c5e137b2bcbca51156d62b9c1aef39f050bd23fe660001b612c9f565b6120437ffbf9b36da344cf4186c8aec55015c83aac0654ac2dd2706d8bcb4586a264940560001b612c9f565b600268056bc75e2d631000008783028161205957fe5b058161206157fe5b0590506120907fc83f758d964329c7428a2d7d39d86de2c8f32519d290ab6943e27a7a34506aff60001b612c9f565b6120bc7ff3112ebf07c3b73909838fdf4df2e5bafce0e08e734cf7c503556079d77f0cb760001b612c9f565b80820191506120ed7f3ee4467f1ef97da236e0a3e94eee40f464dc71bba64f885d0f8461d05874f08160001b612c9f565b6121197f6096bc7ace726596002424a3b9e349a8e26344926f983e81d811725d059595b260001b612c9f565b600368056bc75e2d631000008783028161212f57fe5b058161213757fe5b0590506121667fecbff983fc5f8bcc0115f02595ed64027f0bf56e7223b6165fcce83f24aa04a760001b612c9f565b6121927f1d973605626beb85fa127c1aac089feb8e5d1e1d031b374bdfad6db82cafd3e760001b612c9f565b80820191506121c37f3cf5676020562e7ae61a7f95b1822221f16c38216592c67a516cb5b59ae91f2960001b612c9f565b6121ef7f469a69e535b4c592c46fc637936bf1b9411c9daf408778bf0b624aeeab1b2c9660001b612c9f565b600468056bc75e2d631000008783028161220557fe5b058161220d57fe5b05905061223c7f2abd7eea842b7cf43d79f60f9766c0a1a5d49c8fe0e7c20794913dc82fce914060001b612c9f565b6122687fc87a3ab179c80e70d643c8f1e361f4abba57753d7550aeb34db3be57fec3c1b860001b612c9f565b80820191506122997f0c9a86e308dba34d732c53e1e80dc897fd6afaa5dfbca2f765a1b5869506351a60001b612c9f565b6122c57f529eac863d5932d7551e5ea3725721d9910fde8a2a9e18a421bda514cd596e0660001b612c9f565b600568056bc75e2d63100000878302816122db57fe5b05816122e357fe5b0590506123127f9fe142665cc17d5153ec6d4282486114d4f6fdde213ef857db2bc6b450cb190f60001b612c9f565b61233e7fa3fb155142a78b479ccd9a568335885344c0d7436ead3aff5beb940a5359aa5c60001b612c9f565b808201915061236f7fbb653b470905eb3bd216408aa2097d9ef1d5d13fc803883032c1165297d2904e60001b612c9f565b61239b7f4c2935eb27af8fb030bc1df4c73cb0f54a80fa7280680a7e49aeafda4a2edd5c60001b612c9f565b600668056bc75e2d63100000878302816123b157fe5b05816123b957fe5b0590506123e87f152f42edadecb0e84c28cb9c9ee403fb83a4ef4c51d3a55718526a2dd488fcc360001b612c9f565b6124147f3d49486f52a0303baba1e18b8066f9f573bccbf6f8abcf50af43d5e6ca39ee7660001b612c9f565b80820191506124457f5216e12e30a7d0b7e861fe5345aa633a512a1a049a357bcff95b2abfffef93c960001b612c9f565b6124717fc2f056702ba08acf68fe96447aa441560e13bd6ffe7e86e8473a78d115f486a160001b612c9f565b600768056bc75e2d631000008783028161248757fe5b058161248f57fe5b0590506124be7f821c119ab5c5636453c63fe757119ebf55fb85f599ec4fa8914997c951e2dae560001b612c9f565b6124ea7fbe6ef66f4c6c70a908522c256095a42a4e77ce275ad686d412e98514da89a4b060001b612c9f565b808201915061251b7f4ce84f4b2ffd61eae07abc068694640b29f212490d20df413ae72823a1d8f7a160001b612c9f565b6125477f6fa5d0f4d3035b33cd33b100022ce1bb2f1ca639b8dccac9d267b7650cd92d8e60001b612c9f565b600868056bc75e2d631000008783028161255d57fe5b058161256557fe5b0590506125947fbac27bcadd1484a8b4129bb47ffc304eb5055ba4e2767e7968db7cb00c43438260001b612c9f565b6125c07fc3c299941fa08473656a8b470755f6b458446b5bb2230c9ec938c9a62a28733260001b612c9f565b80820191506125f17f176c61c0309aee9295da8c4a5de9a0396328b41a48799e981f58e17049b46fc160001b612c9f565b61261d7f29792597691b3b45f5bff6bd1b7789859f3f74a9d4b6df121910a5091266269260001b612c9f565b600968056bc75e2d631000008783028161263357fe5b058161263b57fe5b05905061266a7f63bc6db288cadecce1de1c2c85e128bc860957bb267511b4cb2bd2fcb30b2b0d60001b612c9f565b6126967f7f87c9eafcaa36938d859d1ce3f7049028f3be11ea3cf238b7ad92f6ad58619a60001b612c9f565b80820191506126c77fce1082bc222ee400625197f4df7329a3cbcab300b9647c1f573e9c4f3fa491ec60001b612c9f565b6126f37ff3324d22851f2002242f05de4a8d66534aa653616c387bf5c20ff2e48c225f1260001b612c9f565b600a68056bc75e2d631000008783028161270957fe5b058161271157fe5b0590506127407f25cfd0481ff5f5439112b1fa835816ebe92c7a107ea21dc39bd53ea814ec383e60001b612c9f565b61276c7f4147c7e14518a3cff420ccfef3ccbfdb4d445fd86637ff518933cb79ba49bf9260001b612c9f565b808201915061279d7f645f5193200f1f416d90c810f34b94bc454cc93690635dbf5d483a2c58d5137c60001b612c9f565b6127c97f86e770773a60f7501e716b21ef3cff25f7e8542b5f204bf997daa8204ca80ed260001b612c9f565b600b68056bc75e2d63100000878302816127df57fe5b05816127e757fe5b0590506128167fd6b13f61a9f53583c9696341bfe484fba793bfa873f6c981fb0fa6b7bc042de460001b612c9f565b6128427f61ed18988d398a0aab3f610e2258b05662c9289106a0cdc44fadac519c2d200960001b612c9f565b80820191506128737f605a37354163776655d25cb4807bbdb3ca196c47d17b111304e7dc20a3551bc260001b612c9f565b61289f7f20845e0b12e8092e03f533f9c6c6256b72e5e04056dc51a4e4bdf4f06d697eb260001b612c9f565b600c68056bc75e2d63100000878302816128b557fe5b05816128bd57fe5b0590506128ec7fec397bb06417e8c0b0df999a994282899c1a2f5fd1821ac5fda7e777b71e9be560001b612c9f565b6129187f4afa5a40803c43b40ef9691176cca1ed268e955877b56d2911a52d5f77271ef960001b612c9f565b80820191506129497f5a9b8037d83916b7d6c8b04117fd374551db89135725300a20e57294cc0718a260001b612c9f565b6129747e819bd57b18678e2afacca60ff5d5797d6e803e54977ebf02bb1cfb7a038a3360001b612c9f565b60648468056bc75e2d631000008486028161298b57fe5b05028161299457fe5b059450505050505b919050565b60006129cf7f0b82bd6e55031056eb502479287614825386e546f233b0c840d3add6e328c33360001b61527d565b6129fb7fc29f725438dde8a8e35a83c255914da88eb1af6a0b0254a2ee71a12cee7a182060001b61527d565b612a277f867b25ee062e1c15d81f5eb600408b615a5c4755d21132cbdec196c0e0f6bfcd60001b61527d565b612a3660008314156004612ca2565b612a627f505ea7ae5aedc93e2b84b1d7f3ea169b72041ba472727f5062597f0faa7a511760001b61527d565b612a8e7f25c8d3148f938498be8d6158605bacdced13ec3c2c723c563728402175f155e160001b61527d565b6000831415612b2457612ac37f6a9f973848d0e1bf3ca33878057df62131a9343ce33b83d2d55b5cc74756b08d60001b61527d565b612aef7ff4c0037cff5823363d8dd200bb93676448d4def45fea7d550abab49926b7d3e360001b61527d565b612b1b7f891ef57f2cf1ca4bc1e2deadd5fdb7d9886e992eab3e894651a0c6327ddac8cd60001b61527d565b60009050612c99565b612b507f067b1c6f891f851b3004c206fe7ed1f1ea776fa53af3a2f30bbaf811de2c57a960001b61527d565b612b7c7f39332f0aeb86b539dc005963041118b0404b93ee8fa3f8cc0ae706d72b9019f660001b61527d565b612ba87f0cd05effb3643090820c5853634e935de87e3f1a53038fd2130ebd813ad9f47760001b61527d565b6000670de0b6b3a764000084029050612be37f0d8a293203cc6c75a3dc156d90cd71301c5afa4b710cd938ef7c286d2e887e3860001b61527d565b612c0f7f0c5ce5144a4bb8fcb212fcced6a383ac3e93a9d9c8baf587edc678bd970ce69760001b61527d565b612c2d670de0b6b3a7640000858381612c2457fe5b04146005612ca2565b612c597f6adce84f1f10ed0715f5b03d1f2970c52b81756593de1c708e3f01ceafc7eb8f60001b61527d565b612c857fd5bd32250369fb1bbf7ee21675e04e16fe702a3597d374429af1a9b966baf53260001b61527d565b6001836001830381612c9357fe5b04019150505b92915050565b50565b81612cb157612cb081615280565b5b5050565b6000612ce37f878dbd75182d11169cb6468e38c2070285b353a113fc0c0f4b4e78ca4107efa560001b612c9f565b612d0f7fcf52ba1c3136b4366d77e6a3fd49e8232584096ef261e9b87ce00f0a2f8a931560001b612c9f565b612d3b7f3fadda1085c3441ef2115201184f7120f4dba09084082ae4e6eeed1c40727c8b60001b612c9f565b670de0b6b3a764000082029150612d747f3c4c865f3e9a320aa8d2dfc77a8fa86ba841b120198928ed6d44cf8166871ffd60001b612c9f565b612da07f74a1d91c3ea4303862cdf8ec96351a9d9dd07e348a0263d0d65bffddee4883e160001b612c9f565b60006ec097ce7bc90715b34b9f100000000083016ec097ce7bc90715b34b9f10000000008085030281612dcf57fe5b059050612dfe7fb02a1d305ed8612fb08f3b91318af1b7c6e1de56e50d18149e5bf2d56cc4e32760001b612c9f565b612e2a7f64d39411ae3b76279032a1259eb31b90200c7cd93b1307d0b2846132e2a872df60001b612c9f565b60006ec097ce7bc90715b34b9f100000000082830281612e4657fe5b059050612e757f9445b8db6848e2ac200a600306a0e74dfa1fbd16b1c352790326725057ebc4c760001b612c9f565b612ea17f04732a40f912844defdaac51f1a732fe5fc30d0c559ee46d2d4911cd505e96dd60001b612c9f565b6000829050612ed27f31f7e977e002f3022025dda5b7ea9008ecc0d2c679daa00d8bee57401d1d316560001b612c9f565b612efe7faa7bffffe28aa01279ed79e64a2829a44787d9a1a85600be7176613880bd7e3b60001b612c9f565b6000819050612f2f7f0ca25b8445a81872443a08a7deabd97122bc85703acbd7cac917257e7d40fbdd60001b612c9f565b612f5b7f80cd9edc12f986cd2b2254624da7f7e4c7a13b9ca0265cb118f1f560bda113a860001b612c9f565b6ec097ce7bc90715b34b9f100000000083830281612f7557fe5b059150612fa47f2434d8bd5444b7c791edcb33c992e3e0580d6770ac636595df9af649fd45f39b60001b612c9f565b612fd07ff4b44251ea6639e79cf51957737ddab7a05f8d61bc0840416b4f80ad42b02b1a60001b612c9f565b60038281612fda57fe5b058101905061300b7f44ba7a842c4fa27b8ef073a26c244c41ba1a11e3343f6f9e880ee3efa5b986d360001b612c9f565b6130377f881a7507053576bc7ab3310b30ecdff4366715dbc22955ef62902025243d448c60001b612c9f565b6ec097ce7bc90715b34b9f10000000008383028161305157fe5b0591506130807f5cc7b54bd8a3efe7bb82e35745724901b942f3b30d9c179b13112065f2bf54a460001b612c9f565b6130ac7f6b09c0a494d694b9017dab9b538cf50dda0d4ce6fcf7c191261d56811a9b1eae60001b612c9f565b600582816130b657fe5b05810190506130e77f67e7eccab0966e707ecf96650686e0c490d93ab40e5df5241b64db9a9ea2428260001b612c9f565b6131137f5ea6654204c898adce6ede171fa7ddf03bdffa537294fd486d85b453feeb2d2260001b612c9f565b6ec097ce7bc90715b34b9f10000000008383028161312d57fe5b05915061315c7fc359e7f0fe751ed76ebbd41c54974045b448505fd37771931beeec37bfc0783f60001b612c9f565b6131887fd160bf175438cbadc9c33c5adc1bd2e777bee2efe0cf4a568d100f7be416c7c060001b612c9f565b6007828161319257fe5b05810190506131c37fba657166d1bb96b631caa21e09ab3333b868325c9e93d0d7c4dd2076b424e80d60001b612c9f565b6131ef7fd4b8e0eeeb75582255d7ba8141e0026e06ea26db9bfae0e9f3ed07bc1925e86b60001b612c9f565b6ec097ce7bc90715b34b9f10000000008383028161320957fe5b0591506132387f69211bc47fb802aef4fff41bd4d89e8ee67becfd894366ca78c7acf3cadfec0a60001b612c9f565b6132647fd2170375c1a33f1b85ef30331cfb09a299b05c120505de2e6f74f25a4381f5a460001b612c9f565b6009828161326e57fe5b058101905061329f7f2147d71f78b226ea8564375b984f37938e9d74c4e675da9059e6be15783ef7f860001b612c9f565b6132cb7f36219ac4352b474957ca6f46d9dc10ba51ca26ddffe5bef9a9904ed48b94688260001b612c9f565b6ec097ce7bc90715b34b9f1000000000838302816132e557fe5b0591506133147f66175e9d1eac4fe1d87d9f46e716cc9764eb6a6ea9266bafb64d32152255537360001b612c9f565b6133407f8b2dcbd8b3bdda835dd0b219131d30ff05d9c603e40e5e19d9697cc63b902e2d60001b612c9f565b600b828161334a57fe5b058101905061337b7f95679c79ff9167866ab81e5affea2e82cdffe07280f62efcce7fbafd5177f40260001b612c9f565b6133a77f5ca7e75f15fe66bd55391e5d94d83afe99c5fe750cac1cf7f188a65caa8b731a60001b612c9f565b6ec097ce7bc90715b34b9f1000000000838302816133c157fe5b0591506133f07f4d3d0450320262ec71b72fee282a4fdb28093d3d9ab7454b7702f4a6d90149ee60001b612c9f565b61341c7f70c78d2b1fb3cc25168a54f3fcaaae66624d4c58583d2c2cea6cb7078e7662d160001b612c9f565b600d828161342657fe5b05810190506134577f6efe0404f3cf3850c7045c85a572093a73b99e44bcb2e17bd85e8ab8fe2e146e60001b612c9f565b6134837f6ea24d886383470ea8d50a9d54146f22f4183ce7faa564b937422cbe3a31709b60001b612c9f565b6ec097ce7bc90715b34b9f10000000008383028161349d57fe5b0591506134cc7f53ba805b34a2e873ae264aee577d2eba5398265eda1814f55f60c534a07522bb60001b612c9f565b6134f87fb2a8d8de8c01d550fcdb7c81fbd4b84488e80841c9c780e8b40a93d3872284c760001b612c9f565b600f828161350257fe5b05810190506135337f0bd9bc1ed84d46d259127ef65b8e3d3e67ed19eb1efe97b8934b20b72429997260001b612c9f565b61355f7f2cdfb68cefc5ae049daa48dde3e333f3c71094b2a49e9347cefbbd9e0a9f00ff60001b612c9f565b60028102945050505050919050565b600061359c7fecc77b033a29d74e33dd4abe85f8eb70815aeba9e4bac926898327ac3be4b8f360001b612c9f565b6135c87fd1bf58f14d30ec45c59a075b20607d54b9c0645be47c51dccb974fd74b918e4160001b612c9f565b6135f47fb7e77273758c8f1b1167b33a9d3c9784a7eff80f06a053f49027c16b10fdae9d60001b612c9f565b670de0b6b3a76400008212156136ae576136307f03990bb6672ae8d5bc44835763d88c5e3b06636067e317df6d9d7a24e818a1b960001b612c9f565b61365c7fb4d24ff997e553acbac719b4050d5f7a67340a1153c3d0e5b58e42d1a97d403160001b612c9f565b6136887f9343aca2ac0216fb1bc6abbbbe349687b179aa281b90c9a16a003ab63ecea38b60001b612c9f565b6136a482670de0b6b3a764000080028161369e57fe5b0561356e565b6000039050615278565b6136da7fbc178d8ab74e86929f080dd82638220c59546b4898e89154272cb85ec4e506a660001b612c9f565b6137067fc25387c0a83078394744caf630f322a44b35d75b7c03154f68a727f8428ff3d460001b612c9f565b6137327fd5100a8424331f4f75bf8f7208773b083324f3a81a80dde35bb80ef9286be0c460001b612c9f565b60006137607f33e80997264912b44db3023ec34f5e913b6f4f8e489b776fb9ab65985f7fe9d960001b612c9f565b61378c7f590005f08891cfaab908ea55e28c26f6acc2782c5c3375e1bc5d90e25baf19ca60001b612c9f565b670de0b6b3a7640000770195e54c5dd42177f53a27172fa9ec6302628270000000000283126138c8576137e17fda7c2b3cf0cc7102cb557ed8005cc75781a193a0b744d47ce26e14bda3fc868660001b612c9f565b61380d7fcd148570dbf475cb9e0a35ff028069c8b19b19de53ea88a1d45cd8660e08fd9360001b612c9f565b6138397f9332ce97bca85a297f29bb59f4965244b555ab0003e354be447099141b48a9a760001b612c9f565b770195e54c5dd42177f53a27172fa9ec630262827000000000838161385a57fe5b0592506138897f6124b65b7763ecfd58e70ea6d57d78826b28839ef428daf402530b48dc006c7c60001b612c9f565b6138b57f79885c84b7a285bcf408b37e144226ed068ac73408dea6b74ca38657de7af0bd60001b612c9f565b6806f05b59d3b2000000810190506138f5565b6138f47f5b2e8b47c063ba9ddf9895d4519474e0bbad0adf399c177ddaff9feb8ad42de260001b612c9f565b5b6139217f1f3e31c8d0be15c54c0939d2f33de5a66145bbf4e39f3efdebead140e51caa4c60001b612c9f565b61394d7fecb2b1f4b7cec7ea8bbbb9050b4f7f9a9f2748bdf17d3c291bcb5d502f58f96b60001b612c9f565b670de0b6b3a76400006b1425982cf597cd205cef7380028312613a71576139967f1d6684b3fc873897ec4e0380ef2e0ce7b9f9058616bb6f0015e648600a7f6f0b60001b612c9f565b6139c27fcd72d2c4e35d731106a7a08750fc74c5f7fb69a608d0df838f1792705b369ca660001b612c9f565b6139ee7f406812009aad2b40385da00397d7ec5f450f213c0b3b85ab5e92f2e2a843bad760001b612c9f565b6b1425982cf597cd205cef73808381613a0357fe5b059250613a327fb0995a83058ca31ac8624e4a68448556ef31ed4f570cb40025f0a5a09e3a631560001b612c9f565b613a5e7f35df840b42a9145d6ee285270d0cd8a395d84810769b353c760b9c20ae16f5ca60001b612c9f565b6803782dace9d900000081019050613a9e565b613a9d7fa94c6b9b5a805db25a28082f021a6d6de99c51fab6c643f4a13eb55da42c007660001b612c9f565b5b613aca7f65847ff29eb1a52003d690ab8190951fbf4f01d48df56566f179004ba8b307c660001b612c9f565b613af67f9f31c8b122f751e33f63d6880f9059e843cc41786cad59411853e862505ba40260001b612c9f565b606481029050613b287f74899189979eb1a55c01f0b4fee049598f40edc6e83bd697789f68a5f35b2a4360001b612c9f565b613b547fd68cddf915aa92a7015a22cc37156bef6eedc9370809b23d90e89934bfc86ab260001b612c9f565b606483029250613b867fdcb59718759577ae01517084240cf091dafd92c6662707e2a2d7c99421d457b160001b612c9f565b613bb27f442b12b25733e5032f3d1118f6c822932aa8e68c3573144483dfaa5992cfa7ea60001b612c9f565b6e01855144814a7ff805980ff00840008312613cdd57613bf47f517d701ba4bed5025e356f0465ec2e393a96e7e46b3a94ce3b1c61f628886a4f60001b612c9f565b613c207f38c1bda640bb460e0b0b91958dae86f4ae448e2e9afab267985a91fab526e85460001b612c9f565b613c4c7fe9668e91a8545913d37f858da33ed2556043fdfbe5b31c3f3512d3f9cbd8bf7860001b612c9f565b6e01855144814a7ff805980ff008400068056bc75e2d63100000840281613c6f57fe5b059250613c9e7fd390b31746ead49deb096735e86bd3a237ed02c3b9a93f5e184acec961a3ab5860001b612c9f565b613cca7f83d399164d045afdc990adeb5547a99d77b6e938cc8bee04efb39fc742d1143560001b612c9f565b68ad78ebc5ac6200000081019050613d0a565b613d097fc674803d87b944d844c9245cdd2c8b09e25dc9b73e4beb1cb67d529ba0b924dd60001b612c9f565b5b613d367fa1e2bb1345e3007cbd5ac4dd9063e8231f054c2a18f864586186da78c4a192a360001b612c9f565b613d627f34746ef9d7116ddff8b8552fbafbc09f78d3cd5560a3819038cc98864e640dbe60001b612c9f565b6b02df0ab5a80a22c61ab5a7008312613e8757613da17f43c2561fa677b9965dcb2982e9739cee5574471a0316d18b178ead0ea0dcbe7960001b612c9f565b613dcd7fdb7e7cd63f04b13d646ff83f968c2391a7dc04201b2ab46f4c6f05a2f5f4c19e60001b612c9f565b613df97fa51301f0c721792a305d53938cbe25c60b60378307f5f25c6ff366c81961a97960001b612c9f565b6b02df0ab5a80a22c61ab5a70068056bc75e2d63100000840281613e1957fe5b059250613e487f11fc776bbec2628286b2b3e91c8540150b1f64508f26aaf3b42ab58a1fba282d60001b612c9f565b613e747f7aead7559accf21b41f5ead9612a4ea682d12e908fa465b88f7d002ebcf32d8360001b612c9f565b6856bc75e2d63100000081019050613eb4565b613eb37f91d5f33e94ec1de2885dccb316b2d57c46d15a0170029e34963bb1a728af22eb60001b612c9f565b5b613ee07ff93d78aee895f4f8c20809b09fe8e2f8ce9bf3108aba97eea09c8813112de8d060001b612c9f565b613f0c7fcc17545d83aa93fde97d49a674f70b12bbb08b356adcaa92ad52dd6dee29defd60001b612c9f565b693f1fce3da636ea5cf850831261402d57613f497f442d0cbd39255f4993bf72b4713cb8405cf2c16bc11f2c896b76edf1c70f594760001b612c9f565b613f757f05d5d3d4a55dbe9cd78a9bc82c6e7043997d171541c049ed29c0c95d1b73816460001b612c9f565b613fa17f52087c8da278fac08437ac36aef19bc7093b60e42264611247e8b8cd5cebfbd360001b612c9f565b693f1fce3da636ea5cf85068056bc75e2d63100000840281613fbf57fe5b059250613fee7f549e28f6477e1075442c24d186d6c4e4f5189b494fbd9fe4b36cc31fae7c05b260001b612c9f565b61401a7f112289d07b1152c263915e888ef487d4d8885ce824e2d55b2cb6669f6642d7f160001b612c9f565b682b5e3af16b188000008101905061405a565b6140597fe8b34c3e3d49638df8de9456cd63e124667dd843906ea9f8ee14e2ce321e254a60001b612c9f565b5b6140867ff82a94d46fcd7c9f1820289fd90f20ae33d1d493fbb00e7f6ba6abc237fbe41860001b612c9f565b6140b27f5ac5ef8e9713b3c5c621dee821e1e2c1a6b84179fb1577d53c349960b0fd4e1860001b612c9f565b690127fa27722cc06cc5e283126141d3576140ef7f6f6a886c84e94c8efb34a064ec83101adbccb0130259a0c9c9aeba966844d6b860001b612c9f565b61411b7f0ae83707e3703e28a5aaf44fc171aeb9c3f9e213f4d3a340443aae5d10f9d8f460001b612c9f565b6141477fd06eaa9fab42ba2079c671a1215b3d318c47bcc5360f042352f800e81bfd106860001b612c9f565b690127fa27722cc06cc5e268056bc75e2d6310000084028161416557fe5b0592506141947fab572d90bfb9c124d9484929548ed41df1b8057da1528ac63c585fd764fc0bc960001b612c9f565b6141c07f126ec8a75e70653075e105f551273140adfb3d0a38f2ba73601c089b2ba3ee9660001b612c9f565b6815af1d78b58c40000081019050614200565b6141ff7fac7710080525cd4b036f5e3e771adfee143ba94c2f34ccd1d9af4f55101d2e3160001b612c9f565b5b61422c7fd8f529777bf3c5fad19f92c54e089886622c45276cc59f248c85b2114c58712b60001b612c9f565b6142587febaf06d46b7ac1bffa21896bc5a2e4d54e403aacb2c67b4c83ffe4a8de59dad660001b612c9f565b68280e60114edb805d038312614377576142947fd782e28bfef4a9aee46768d5a898a8b0852461da94f77afb0b1a0db126d689bb60001b612c9f565b6142c07f0f892ff33b1681c024af2b7400894f7135f713c1141cccea1d0f7a48e196ea6060001b612c9f565b6142ec7f016709195c863ff2b6e7a8709c6403df4fcf9410cba64aea4ea52e315107efc860001b612c9f565b68280e60114edb805d0368056bc75e2d6310000084028161430957fe5b0592506143387f8efbf0466f47ad7a3867b1aa6ada7ed9d3623d3e70e82363cfa48df94243b75960001b612c9f565b6143647f545cca4fcd599541ba46da759ff71fe69938d9f7b454fdf4c770c76de7c8def760001b612c9f565b680ad78ebc5ac6200000810190506143a4565b6143a37fe6ae54cd7aba0dbef4ee458109eec68ead929bc09250ef073db32b5c40ee148d60001b612c9f565b5b6143d07fce07a9f05073e0fbb04c6eb3f77d3dc7cbe60907e588c3792204756a0d6c74c460001b612c9f565b6143fc7f9496378a269681a74128a3a0379e6d34b9a1d67d89b07397f49bd9d793dc274a60001b612c9f565b680ebc5fb41746121110831261451b576144387fc5d2fc1e632def828074f9d3e7bc33ce191c750973ebd6e581678f99ade4fadd60001b612c9f565b6144647f4988499741126d3df189dc4867ffc24dbfbc0cdf3757d8c80222db07a5a4557860001b612c9f565b6144907fecc4cdc3d0d2bbb45def22474f21a421ed22ff3b870ca315df73a8d76d08754d60001b612c9f565b680ebc5fb4174612111068056bc75e2d631000008402816144ad57fe5b0592506144dc7f62f66c535864a306c6f871dbdd227a87145cc95a208ef1a546dfae46e1705a4d60001b612c9f565b6145087f5b19aba2b04fbe826218b1f623d7c42e19a8140f1794300b8fc9217288c9694960001b612c9f565b68056bc75e2d6310000081019050614548565b6145477fbc7affa58390a36b001b871b8d6f69de575163c22b1a59cf1b7a4d4f85e682fd60001b612c9f565b5b6145747f0ee8c156418755aa10b12b56b4075d4dae20cb18ce0042a13fb452f02c81934260001b612c9f565b6145a07fc0a6c3795d0b4f7bc8ec75193be9844d97db1520e3cb777e51e4f7791c89500860001b612c9f565b6808f00f760a4b2db55d83126146bf576145dc7f6e23fc2df3ca2ee9baa68f1d4f62afc51ca655a1074afa909f3201e70e891f8a60001b612c9f565b6146087f4f05315a3b3fba0b6470b79e85dc91de2340145ad04d16d6969d25212f62f57a60001b612c9f565b6146347f741781695ec4e7df21f5189db5ad56a7aa7318155a7e730026330fe97afaf87a60001b612c9f565b6808f00f760a4b2db55d68056bc75e2d6310000084028161465157fe5b0592506146807f279db3ffd3f4dd1be2a357620fdacc6e6deb6b5e71cc4e5c43b4a9410a05f80360001b612c9f565b6146ac7f1c517488f9a09df6164abe953a6b6cc8adc9bcbd265287788e4776f4fa8917ef60001b612c9f565b6802b5e3af16b1880000810190506146ec565b6146eb7f128acb01763d599d53d763ec99c5056f35e62c8294de29ba909da64fe55a685760001b612c9f565b5b6147187f47438626899ddae4ae4df845f95be06614408c9a9e4a94f0654c8f8cc44cb90060001b612c9f565b6147447f9d83783b28782547e736f3c8bef1ea97ff44c5737de1f3ff871fde5e435c5de060001b612c9f565b6806f5f17757889379378312614863576147807f1ba49dd74c222a2fbacd1a9671051d50e5049a5c6851391e0630c9e65aae9d4460001b612c9f565b6147ac7ff6c87b67d510932081bb6b67e2e89f8bda85c25c3685ab4f00cb85920e893bee60001b612c9f565b6147d87f36e669280932996637ebf415b2033e56ccf79f34e9275eb919dc02f4348aa32660001b612c9f565b6806f5f177578893793768056bc75e2d631000008402816147f557fe5b0592506148247f3ba823a20a274f86c51e6da2a7b9ced7a9b02d3c2f2bc4eac60c65f4ee43d36460001b612c9f565b6148507f680b5be9b864a3215793eee1686780bf4de2feb1af1c045d11b74dedb4639d1860001b612c9f565b68015af1d78b58c4000081019050614890565b61488f7f641f4f142d168f008e5c4a8eb26b1ece3f09c0c5fcd152fbf243d5f03e27690b60001b612c9f565b5b6148bc7f97238392f7dab2d4a38a1e8766a2f91dc7fc323f1c0b8799f39865d92645947d60001b612c9f565b6148e87f46e21836a4624f05f470b0dac285147aeb030bfeb741790739d8dee386f87c9160001b612c9f565b6806248f33704b2866038312614a06576149247f746529c844954dbb560816e98110ff01413c1992b207c5d6f2ece35bdbddcb5260001b612c9f565b6149507fa66b1a039aead98f4863ff8127d8f61dd7908e916bd82aee106a55698f12dee160001b612c9f565b61497c7fdbab046d8ed19cacf85d0bc9759bd8bdf43b38d2f3fabb52dde10067d6bfcf9c60001b612c9f565b6806248f33704b28660368056bc75e2d6310000084028161499957fe5b0592506149c87f0551d2027d1cd7234ca5d68eab1b648c336597f3a74c907cfbb4ebc6eba4d5d660001b612c9f565b6149f47f37344a9f97a81da97f5ba00450e8a23ff354c2421b31e528ffa110cc4db8a34460001b612c9f565b67ad78ebc5ac62000081019050614a33565b614a327ff674a42d154cb66872ba9f79c8e7daa8a47135e28cb86287f53f06740d28e97760001b612c9f565b5b614a5f7fa7c423bb0f8cf8830eab442eba3d4fafccf8cf1d2d6783e8b5454b13e5ed48a260001b612c9f565b614a8b7febfa51e705881c3b2e2646e69a480fdd41f3db224dec81f2060c3e46f392380160001b612c9f565b6805c548670b9510e7ac8312614ba957614ac77f1af473fbd540fdc463f8a19cc88164cecf0c207df6d35ee7c801f4fca82f5d1060001b612c9f565b614af37f3bd02a93ecb637b9cdcc032e0c989b60e58ee886c0b84e5dec7747410baef6a560001b612c9f565b614b1f7f1a4eb2af33cb0dc722803838e5f2cb41743b47e066aa6d5129f720c81e8b861c60001b612c9f565b6805c548670b9510e7ac68056bc75e2d63100000840281614b3c57fe5b059250614b6b7fb08f47db9f6818aaa5f6dd538ce1c206bec429d3d45ce83a0c3bc48ac2867db460001b612c9f565b614b977f38b1e4cd02468c5fc8a3112c81c1cabe24a10ebb6dda491d3412e99469eae05e60001b612c9f565b6756bc75e2d631000081019050614bd6565b614bd57fe1bc13ff6fb846b6aae88fe2abe49e653d3b866d7bc697cd9cc7e8956929923260001b612c9f565b5b614c027f3d9bd3c418e5016f58b17d9b9a5a0ef229efdd2e10cec9b07d685858c903d1e760001b612c9f565b614c2e7f46b28d214e0c40e3e9e54d5faf34c8c5252981298d386e249d13a70a57a4d4d760001b612c9f565b600068056bc75e2d63100000840168056bc75e2d631000008086030281614c5157fe5b059050614c807f3dbebf6c9162591b4ebd33e30982a4a071b9aa6ac907568549984b69d7b97d9460001b612c9f565b614cac7fc2198d1c948b59bdfda1f1443f4529dda03e3bf76a49c4334577e262024507bf60001b612c9f565b600068056bc75e2d6310000082830281614cc257fe5b059050614cf17f8b328398f0bc3f3e114cc30bf414a9118f11c0c53b9607826adbf177d7234a6260001b612c9f565b614d1d7f23a957cfd7f2a895e23e72bcc64a67ca847eed7acbc47b30dcd33328f9ffd91260001b612c9f565b6000829050614d4e7f75bc76e46db3d9980693392d8fbe0d80bfa1afe3e6406b3b7420f5ed6f9d2ef960001b612c9f565b614d7a7f5e4f3ecc30d70c9e9225fa17def48f80d464a55ae8ca87ef8e015b2625a8e2f660001b612c9f565b6000819050614dab7f9861061fa4e17fcd7477afb994b0f754fe0555623867e0db5114e9a84b0e381060001b612c9f565b614dd77f0b81c6d481d565d1a5c32a6c452da8172217545a4a77846c606bb4104790397660001b612c9f565b68056bc75e2d6310000083830281614deb57fe5b059150614e1a7fe7cb73b74ee9f45f8e445ac52fc1919100dc1facd98e515cf01b35f4657b6e2960001b612c9f565b614e467f973151ec731d5453cf2b07002fc6d04a394c44be197ce37e5740d2c7a2d00aee60001b612c9f565b60038281614e5057fe5b0581019050614e817f5853551f5603a6017955792df373d6912f222a2635139a0e449ea332cf449d0460001b612c9f565b614ead7f590e1c09210e851786c5660ce93eabad67c6ce708b76b93c7020b8f9df62056060001b612c9f565b68056bc75e2d6310000083830281614ec157fe5b059150614ef07fa09473f57235fb4e547c1df454d2250bce8cfd4c1307762bfa80bf8bcd13d71160001b612c9f565b614f1c7fd01404210437ad5a168e9010b09d02e8020957dba687f82bf2e2dabf228dfe5260001b612c9f565b60058281614f2657fe5b0581019050614f577ff6c70604248ac19a52cc438deb376ffdee8c76671b0854b3f277ba47782b6d3960001b612c9f565b614f837ff949ba52643cc6c78a8bd96d87f384ab359055e057da843c887498726926f0e160001b612c9f565b68056bc75e2d6310000083830281614f9757fe5b059150614fc67f3e48e16f40e52c258a85b58f4a2049f09c90985f0af8cafb5995af5184b444d960001b612c9f565b614ff27f9b81c6cb4ad498deb2f942df5f1acfcecce4394094af2276c5cb241a475f051960001b612c9f565b60078281614ffc57fe5b058101905061502d7f14ceb5f280509ac53ec01e498b76628182c763cdea88a3dd6c3fe0302f89b22e60001b612c9f565b6150597fa28acd8a1d51f8f00861a6ba1439782c53410423c9f1c9c5252ff9ee917b613760001b612c9f565b68056bc75e2d631000008383028161506d57fe5b05915061509c7f0cb759739d9698314564435fda44c50f91e0c3edee52c8339fd524d2c703aef760001b612c9f565b6150c87f41eb74299bd88211996e23ea0cdc256302c89c23b2a812cd6a260d41a14d6cd460001b612c9f565b600982816150d257fe5b05810190506151037f5289bcf47dc32c4e7e226d31dedabec2da6841c9966cc6ea8456cffaa04800ec60001b612c9f565b61512f7f8a8c7823359f348dd6335d6d865df24fd35f446e45356a0ea82957b764e0292660001b612c9f565b68056bc75e2d631000008383028161514357fe5b0591506151727f2cfd648bc3944426a52aa7739c0344437314b2c41c2d473ff352f8c98aefe8ca60001b612c9f565b61519e7f76fca5d622e3a2d40c4ec29b2ab56c209f3abb25e430be9518e091190111822060001b612c9f565b600b82816151a857fe5b05810190506151d97f17016eaa3f0c430baeace1b9b0aa07d72d34b8fcb445aeffba692833fe16e6ac60001b612c9f565b6152057f33f0ef55d351e7fdd7fa13a2376e75118c512c087450d7f2f20773ee5a8f3d0560001b612c9f565b6002810290506152377f549ddf4d2efa67d866330fa46c38f1d96c9c8006f727ab4c976d74fa649a71d360001b612c9f565b6152637f57b16f52181747e1a9658401c64b43ba63512d00488614ef91db29c3b790a86260001b612c9f565b60648186018161526f57fe5b05955050505050505b919050565b50565b6030600a820601600a820491506030600a830601600a830492506030600a8406018060101b8260081b8401016642414c230000000160c81b7f08c379a000000000000000000000000000000000000000000000000000000000600052602060045260076024528060445260646000fdfea2646970667358221220fb8da4f2457a8e157b425e198b8a94acffafa0d6e9253fea0e51969b016450aa64736f6c63430007010033",
  "linkReferences": {},
  "deployedLinkReferences": {}
}