{
  "_format": "hh-sol-artifact-1",
  "contractName": "MockWeightedOracleMath",
  "sourceName": "contracts/balancer-core-v2/test/MockWeightedOracleMath.sol",
  "abi": [
    {
      "inputs": [
        {
          "internalType": "bytes32",
          "name": "c__0x0dbeb82c",
          "type": "bytes32"
        }
      ],
      "name": "c_0x0dbeb82c",
      "outputs": [],
      "stateMutability": "pure",
      "type": "function"
    },
    {
      "inputs": [
        {
          "internalType": "bytes32",
          "name": "c__0x9ee710b4",
          "type": "bytes32"
        }
      ],
      "name": "c_0x9ee710b4",
      "outputs": [],
      "stateMutability": "pure",
      "type": "function"
    },
    {
      "inputs": [
        {
          "internalType": "uint256",
          "name": "normalizedWeight",
          "type": "uint256"
        },
        {
          "internalType": "uint256",
          "name": "balance",
          "type": "uint256"
        },
        {
          "internalType": "int256",
          "name": "bptTotalSupplyLn",
          "type": "int256"
        }
      ],
      "name": "calcLogBPTPrice",
      "outputs": [
        {
          "internalType": "int256",
          "name": "",
          "type": "int256"
        }
      ],
      "stateMutability": "pure",
      "type": "function"
    },
    {
      "inputs": [
        {
          "internalType": "uint256",
          "name": "normalizedWeightA",
          "type": "uint256"
        },
        {
          "internalType": "uint256",
          "name": "balanceA",
          "type": "uint256"
        },
        {
          "internalType": "uint256",
          "name": "normalizedWeightB",
          "type": "uint256"
        },
        {
          "internalType": "uint256",
          "name": "balanceB",
          "type": "uint256"
        }
      ],
      "name": "calcLogSpotPrice",
      "outputs": [
        {
          "internalType": "int256",
          "name": "",
          "type": "int256"
        }
      ],
      "stateMutability": "pure",
      "type": "function"
    },
    {
      "inputs": [
        {
          "internalType": "int256",
          "name": "value",
          "type": "int256"
        }
      ],
      "name": "fromLowResLog",
      "outputs": [
        {
          "internalType": "uint256",
          "name": "",
          "type": "uint256"
        }
      ],
      "stateMutability": "pure",
      "type": "function"
    },
    {
      "inputs": [
        {
          "internalType": "uint256",
          "name": "value",
          "type": "uint256"
        }
      ],
      "name": "toLowResLog",
      "outputs": [
        {
          "internalType": "int256",
          "name": "",
          "type": "int256"
        }
      ],
      "stateMutability": "pure",
      "type": "function"
    }
  ],
  "bytecode": "0x608060405234801561001057600080fd5b50615325806100206000396000f3fe608060405234801561001057600080fd5b50600436106100725760003560e01c8063abb9d0d511610050578063abb9d0d514610115578063be7a6d1e14610157578063c519a075146101ad57610072565b806301618da41461007757806357aad013146100a5578063856797c3146100e7575b600080fd5b6100a36004803603602081101561008d57600080fd5b810190808035906020019092919050505061020d565b005b6100d1600480360360208110156100bb57600080fd5b8101908080359060200190929190505050610210565b6040518082815260200191505060405180910390f35b610113600480360360208110156100fd57600080fd5b81019080803590602001909291905050506102a6565b005b6101416004803603602081101561012b57600080fd5b81019080803590602001909291905050506102a9565b6040518082815260200191505060405180910390f35b6101976004803603606081101561016d57600080fd5b8101908080359060200190929190803590602001909291908035906020019092919050505061033f565b6040518082815260200191505060405180910390f35b6101f7600480360360808110156101c357600080fd5b81019080803590602001909291908035906020019092919080359060200190929190803590602001909291905050506103d9565b6040518082815260200191505060405180910390f35b50565b600061023e7f326e5410a19a59295fe2f82c08a647b1f26a8e6df971e04dbcedb8e5a4a58da160001b61020d565b61026a7f631f0e71314a0677a16105636a91264412e1a878937bd6c49b201cdec17c59bc60001b61020d565b6102967f0e1c2d9c82fa139eb629e3a83f1741cf51132b6784238a3da49c9e87e64a222360001b61020d565b61029f82610475565b9050919050565b50565b60006102d77fa70e223b6202713bece55cb64370aeb7a933754a82bd68f9570a7a7a30ee7bc160001b61020d565b6103037f9f46221c7d21633db67c73d2af5c83d0698709462fee76c0e8bcbbc16416ca3560001b61020d565b61032f7fda575f9884f6d1a4c267fd28b47265c426624703c953ac0e9cbdfe0240d1844360001b61020d565b61033882610597565b9050919050565b600061036d7fc093ad4a78a9d3370d7bcdbb8a975cdff14ce55fed833a5010ce96b9e741a92a60001b61020d565b6103997fe09dc66c68bd31d7f2f1138aaa7cba9fc8cf82b47bd5b01aa97aac48d888471760001b61020d565b6103c57fe24bf7b82ca58e59b53b5c93f48828a63a2d570fc981ae49ed7a07fa43c88fd960001b61020d565b6103d0848484610635565b90509392505050565b60006104077febf0495b68ccd1fa9e9e798e4a21298872428b97c4d7db333d6a72bb5e0139c160001b61020d565b6104337fdda3ac1f892f3993219780cb390d5eebc8d165ca3060a52d2918250dc88b2dc260001b61020d565b61045f7fe280c49234fbad35f058f3455f3d85e0a537d75b16b07883490f9f409181e7a860001b61020d565b61046b8585858561073f565b9050949350505050565b60006104a37f13e85309a3c4e59dbf5b75b3b728dd08fa116fc01de7442c0085dc762516eb7f60001b6102a6565b6104cf7f3113c37fc8e14f87c3a67193669ebc6328c3af413d628b43f3dc41e66f0e15e460001b6102a6565b6104fb7f129c10e0a6a841f76936136ac0f8a8b49a60f9864c7e342ce18aea66de99f2a760001b6102a6565b60006105068361086c565b90506105347faddd372079df646a9c000541b6b38a4faa19301f93e8f7596d20e3fdeaad8e3c60001b6102a6565b6105607fabdd3813966d030170fba824bbeb404c94a62d4057828f28645d5802c460099460001b6102a6565b655af3107a40006000821361057d57652d79883d20008203610587565b652d79883d200082015b8161058e57fe5b05915050919050565b60006105c57f81f863fb1729e5bfab99907d5b437e8993f382d468b959f508b11ffaf473e48b60001b6102a6565b6105f17f6524e2f179454a4443f3f0d6e0125d7a2d08f6ee72c78a713ba713e1e60e8e5760001b6102a6565b61061d7fd1d072db33037549bcf37cd5f35813cec941425724a61e3517a162f0866bc3e660001b6102a6565b61062e655af3107a40008302610ac9565b9050919050565b60006106637f2c4afba4ab29214eea3a9b37d45c12156806346264998a8f37c3a9c994e3266e60001b6102a6565b61068f7f4eec11eb3057efdb9709ed2a6ba83c21fb8e94692cfec991d07c8d203e87e4d360001b6102a6565b6106bb7f6e15e2b3ebad22f191cf01df84104d04f2ad2c1f2719a8b462d063661283e56d60001b6102a6565b60006106d86106d386866129a190919063ffffffff16565b610475565b90506107067ffb2b9307b039c5bcd5b1a6bb8a0559befe5c2cd54973ab4789d89c0ef78a3af460001b6102a6565b6107327f0f9c259ce5a72e8c56292e95add4f7713b958f04e52b1a32ff557111fdfafd3c60001b6102a6565b8281039150509392505050565b600061076d7f2e394b57a7df492edb28b5a6e75a21530e257c955d91b82163a212882fd13a7e60001b6102a6565b6107997ff9a625ccfe4bd668d6784d47c35c81f970c64662a13856d2aa3b04b0a498429e60001b6102a6565b6107c57fabea28fe95313d31b22fa656beb1f8a16d52e671893fc6e58254aa8e06ac818860001b6102a6565b60006107fe6107dd85856129a190919063ffffffff16565b6107f088886129a190919063ffffffff16565b6129a190919063ffffffff16565b905061082c7f8d3984fa3e633339323b945cafbeb5e765fc076cd7ad39e4a5c7fa7a7a261c1a60001b6102a6565b6108587f25ef556e09ed6043797e953382a1a6d43f7818e40c4459096f9a608224d7394460001b6102a6565b61086181610475565b915050949350505050565b600061089a7f14744dad7d8efed05c31e96137bf75a5d9bd036c7d2f131777525a0c45a7122a60001b612c9f565b6108c67f7851c72457bd812225485c3953884296ec8b92b3a3d312d62a04b53020d5fb2960001b612c9f565b6108f27f951a1ba63a34dcc131927d915d229a585cebd03d647b2e53245ebd669feff9d260001b612c9f565b610900600083136064612ca2565b61092c7f7764c47391d7fd1f0fdd77277e2b1baa6fa1859059509d02d231cc3a7dda032360001b612c9f565b6109587f82caf4c81d661ca1f4917e20bb95d88c5a685d7005211203c83b45a2d82b69fc60001b612c9f565b8167016345785d8a0000670de0b6b3a76400000312801561098a575067016345785d8a0000670de0b6b3a76400000182125b15610a34576109bb7f580eaba956b40648425d9ea2c72fd6e3dee68e9b9d1646e2a24709db8e133cc460001b612c9f565b6109e77ffa161572d1871eeedfbdd707ccbba141e82c522e8117c7d4e6c682e93f9a10aa60001b612c9f565b610a137f72ee5e64e8090e53d009770b8d5eeb5c1627ad00f019c9ff5b7ad0a723efabb760001b612c9f565b670de0b6b3a7640000610a2583612cb5565b81610a2c57fe5b059050610ac4565b610a607f11d8f7be54107265ee2368496f87ed0417a2d14c1aa31faeaaa8c3cbc6d28b3860001b612c9f565b610a8c7f3a8e0f378f4c522d6531f295bc4d56d1633449ace669d038c016d5d26ae8156b60001b612c9f565b610ab87f6a85be8674dba544ad6bdb3715c71f584a28889f1ed36b71d25b15d84c4b90e960001b612c9f565b610ac18261356e565b90505b919050565b6000610af77f6603744b862ab6dc76e6d45ef526e659083d06b697b00d6c702452eccbbcbc0460001b612c9f565b610b237f6a49a08508150c5d74a9e797da5412ffecda75c75e3f9f6cf8ac1d076aed017b60001b612c9f565b610b4f7f9e338bcff6c9fa839ea936f99d55c006573ff2410ee796c8c578f80fb4b1476260001b612c9f565b610b927ffffffffffffffffffffffffffffffffffffffffffffffffdc702bd3a30fc00008312158015610b8b575068070c1cc73b00c800008313155b6009612ca2565b610bbe7fbdb879f854bb361f61c66fedce7851398eccca5f9b11421026790520dbe7330c60001b612c9f565b610bea7f1d4106cee033b42bb28453b29aa0514f3927be014f80298cd53c58a2cc144ed460001b612c9f565b6000821215610c9d57610c1f7f9ffc9f9165e96c5cec8064de6562074aa4bac40b8e0ff74e7c050644d6db914360001b612c9f565b610c4b7f1c1a6bf06a86628b0777bf190212858d70d2cd26d797eddea7239e104f67dc5e60001b612c9f565b610c777f91de43806e6b4c93b6310ffa0a64ac1345b1869837c53cd51a4ce9551ee79a0b60001b612c9f565b610c8382600003610ac9565b670de0b6b3a7640000800281610c9557fe5b05905061299c565b610cc97f710f40b391df50eaae53e451c37ad0bff0c77d8a26f4eaee1ed8318841ca3c7460001b612c9f565b610cf57fe3b24104ba4f28e8f4e45cd19101ff28c8b19ddcd113c9ca8df4f2142fac388960001b612c9f565b610d217f132d6291004a07f16d0593dd55ca63dfa97424be4fb59f0316e4f4d586bf092e60001b612c9f565b6000610d4f7fbf178581b4a8bd0d485eb7d309792ed64e29317921eb1ad6928122819990cd8560001b612c9f565b610d7b7f4b73530e933c77adbf16e42a80b079e6465973fe14e96d2ef191423464b5d9cf60001b612c9f565b6806f05b59d3b20000008312610e9557610db77f28c202a4fa617d7971cb39c3dd4cd40c55eb25a7ad2bfd29a623f97a5c2a395060001b612c9f565b610de37f1ba6b8a8de1c32823cfac339928d64937a118b4c6d43b0f781bdbc3ae120e8d260001b612c9f565b610e0f7fd4b128d003931b1602679d18f1f1a759fce9d11915bfc0a0a5d82fb37119741460001b612c9f565b6806f05b59d3b200000083039250610e497fc7b2515a6893b42db051c9bc6887577ece63d35adcae1e97144222515ceeb39c60001b612c9f565b610e757f9767975d425cc62d4c50edb1878d2aadb5d1873b1dfa1cfde2a4a50bb07c69d560001b612c9f565b770195e54c5dd42177f53a27172fa9ec6302628270000000009050611085565b610ec17f07ec3da6962ab3443fe25e4782bc420f041f271f4e2c2c1e41ea31ec574b498160001b612c9f565b610eed7f661e63e3bfe69a5481fd378700c3a30694d16dc746bd559dd5b9e1d497fdea9560001b612c9f565b6803782dace9d90000008312610ffb57610f297f3785f3f40071b38454e95841c68a76b29a54b0286f0a37042cbb0b3fc8bde96860001b612c9f565b610f557ff4ac48640a5cc6581ff67074a76f4d075f64dd6791f2c0ee2867cb9b1abb421960001b612c9f565b610f817f889a36601f82fc52f5548abb84d1f5868f98023c6ad7b75dc6e2b86c604e302460001b612c9f565b6803782dace9d900000083039250610fbb7f0b1c37b4156ff49c92652db2245ffe10f0b1ed61e4fbfa83deb1fdd7ef0d9ec060001b612c9f565b610fe77fd599b74ef5fb374f32e66fafe9d91229dd5ea9bbe42ebc9c9e369d45a67b9df960001b612c9f565b6b1425982cf597cd205cef73809050611084565b6110277fc05ed50e42b5218441d82c66e1ac1498481e60af916f8357ba5369d90bbfa76460001b612c9f565b6110537f8c740e7289f8bec068c7716d88156a077a04a58a6ce1ce09d8d87f6e4286a1cf60001b612c9f565b61107f7f11d6764fc64e11bea7ef6764e1c8e9763eda7b809566d1dc14e2ee76bda9ea4160001b612c9f565b600190505b5b6110b17fe19248d93c4142e89f02c948c7b41874643d099f8f3c9806910174a58440e69660001b612c9f565b6110dd7f4f109f8d42ef491ede922a778a821baff53572cccc88f1cb3076282db7b1380f60001b612c9f565b60648302925061110f7fccc83beb548390fbb57fe46719ec24dc3109f9c65afc25a2e784223bf6ace68560001b612c9f565b61113b7f23629132dcacfc6e461c74305057c54a0d94e27778e8d26ef165babc08c8787b60001b612c9f565b600068056bc75e2d6310000090506111757fdb70ef3e5349656acaf4bfd39c162434a5dd30fdc5ed51cd6b1c7d116c8569a960001b612c9f565b6111a17fbc8b07fb08fad687d2e7dd3e137d525be659791a9db15f6080dd9c218e5e63a060001b612c9f565b68ad78ebc5ac6200000084126112c6576111dd7f7af7a97bf5f0c230016e7431a39f93e9397911f74ae9af11fe119c64a3b8509b60001b612c9f565b6112097fa4c983995cd34fba0b7665c4b862417abb45618fa811f360c792718feb6cfe7360001b612c9f565b6112357f3e5e18d2128dcda7a3c51ec24dd69ed7fb3cf52476caeafa0fc9cc1bd056c2fe60001b612c9f565b68ad78ebc5ac620000008403935061126f7f6ce1407a57f7ceacd45205a97867ce6d3eff75ad30b205935ec2a882cc2c41aa60001b612c9f565b61129b7f97eb016396da8decddd8bbc4903417a2404abc0fad5ce36252e97ed57c08f8f160001b612c9f565b68056bc75e2d631000006e01855144814a7ff805980ff00840008202816112be57fe5b0590506112f3565b6112f27f7a222f19097af0b8ebe8c4b3c271a3e1bbb95c2fca82e1ec497250ded78a4c0060001b612c9f565b5b61131f7f805a7d593b296a2b66ea0198b850ae8d06043f1640de3e48ad3083925acffa1060001b612c9f565b61134b7fb98fa6d44a9bd420c1a47c3e06f9706d327ce038cac04d19f1c644d7fc63bcbf60001b612c9f565b6856bc75e2d631000000841261146d576113877f6dc70e2d85c9bd8acbed97f27b977a64cb7839b9e42633d1b46f9b036c5128e160001b612c9f565b6113b37f04f6bb568e13485a2c8a77970954d846137ff4337ef9d0c54fe4611388842ae860001b612c9f565b6113df7fb6b77963ea2a5a58811478a28f586ffc54e033daf49f6036a783b6eae2ed5dca60001b612c9f565b6856bc75e2d631000000840393506114197f3047dcef9c74f0035dabbbdd2d76608c30d2d9f42f28c357de0d9a6f5f6a05d460001b612c9f565b6114457f419fdbd313b9ce9839e9d4b1ad0b81d8ce89fede7d2718138eb64448a111f0eb60001b612c9f565b68056bc75e2d631000006b02df0ab5a80a22c61ab5a70082028161146557fe5b05905061149a565b6114997f78265ba26cf98ba8b9f01378498d5783992c881672a03d99b00a4c5d46b9549060001b612c9f565b5b6114c67f7d8f650f49754abeb5011fadf4ae00af9228f6819e89d9b268e3ff0bf7c0fa3060001b612c9f565b6114f27fc1d05e4b5dad4f9a17797bed4d3888af96549f8bf1d0af0a2c4bb6b4e3c6b16560001b612c9f565b682b5e3af16b1880000084126116125761152e7f61ba792ca7d7b22def1affea71a1123f05e945f1c1a132ba2a4b64884799c9bc60001b612c9f565b61155a7f6a3727128c70b59a167e729dad824b40e1da03edc85a66b7e37058bc42c719bc60001b612c9f565b6115867f0521d6055fa0069604d409a10bfc091a96f09bd16b31cb9c5896f4abe4e78fe260001b612c9f565b682b5e3af16b18800000840393506115c07f070944c2f2dc8948157040166b057a7d8893c58300fec401a2db212d1ec62f9060001b612c9f565b6115ec7ff00325782656fa168cd75d7bdbb5703b163e22f7bf60cf090672c80e8de3443160001b612c9f565b68056bc75e2d63100000693f1fce3da636ea5cf85082028161160a57fe5b05905061163f565b61163e7fceb7f0919299aac82bf2f5739c8b90acd7e7eba1c7e97ccf3dea5588fdb267a560001b612c9f565b5b61166b7f4c523f43931e9fc49c479095da1ab08aae4691c7a9d1e8c775f93717e6697b6660001b612c9f565b6116977fde7559d37461b938c70fe551914609ca870da7fb47a2fe92f01c2445c483b1ca60001b612c9f565b6815af1d78b58c40000084126117b7576116d37ffe7c77d3f2905df59ce6ef6212574caa23c3ff932a9a20429d711421a02806ce60001b612c9f565b6116ff7f3ddb67d1fd7a64e04ba821306f2da4d739a5c87fc7753080fdfb58cd0652f7fc60001b612c9f565b61172b7f1025142c8ba61bedb893a82dc956e8aa6c2e93daa12bdd4d506176813413bb1860001b612c9f565b6815af1d78b58c400000840393506117657f33e996955fba6856fdcbcdcde9073d29245874ea784831bbc2715ca0dfcc51e760001b612c9f565b6117917f2e98d38eafb9450e22fecf0f84f48e746102f1bee8c2985f43cece2335e0b00360001b612c9f565b68056bc75e2d63100000690127fa27722cc06cc5e28202816117af57fe5b0590506117e4565b6117e37f47615a45aad371bbecd97296e438b65fc99573cb6dc24eebeea45ddcba95299960001b612c9f565b5b6118107f12a0c1c60abaa4e2e79d89d81f48519554651861ed9f168e18279f5872b40ebf60001b612c9f565b61183c7f5f135e138418337ac5c3bdd2e76ccd9cd3220fd08e641a5613d69512dc9e9bbb60001b612c9f565b680ad78ebc5ac6200000841261195b576118787fb3ace12e78288ddcbabe9aa7830e86314de03b4609d686e08abc6cea618a220060001b612c9f565b6118a47f2f8dbc5acb955780846833f47309ddb10b95862260661165e8693304458e309660001b612c9f565b6118d07f059078fc27670543c491910de9e366dfadefa0383607112382ed74945a36a8f560001b612c9f565b680ad78ebc5ac62000008403935061190a7fbd8787648837ca4047611ff6da351580f4d95b70bfff222525cf85c1700391b560001b612c9f565b6119367faed2b56272a449216b2b1f1c1b20039ec9d19ff891c3e5a7ac24104ab4896ca660001b612c9f565b68056bc75e2d6310000068280e60114edb805d0382028161195357fe5b059050611988565b6119877f7d8041f68209c84c744c4a75cec2af589dd8bbcc8a745cb137ede0c954ad14a760001b612c9f565b5b6119b47f1d2b7702e5cc96a97b6c7be229ea0e375b605cb4873269752c4cf3314d85aa8d60001b612c9f565b6119e07fe4255d40177c13f8beef001a01711ab52bc875a366d8a8f0008b6d8303a7db3760001b612c9f565b68056bc75e2d631000008412611aff57611a1c7ffdbdd750116d2a046d7ecbc83773f84ca56a493d4b27baa6ccfc891d0f1c569560001b612c9f565b611a487ffa6d254aee1a01d616d7f0777f8b70339603bd2e743ff41fc3eb44cb75df87b960001b612c9f565b611a747f84a3c20c13112011f7d5dde037eaaff5849301fea628069f51f5bcb01eaa69d660001b612c9f565b68056bc75e2d6310000084039350611aae7f7cf2afdf1b3142aee1de7ea27bea6cce310acd6b1b0c75722f0368a9c3ef94e960001b612c9f565b611ada7ff006ee7068d2cbcb786bd5ebdc84ccc4d0ab36fe9fd9b00d21aaff43da155d4660001b612c9f565b68056bc75e2d63100000680ebc5fb41746121110820281611af757fe5b059050611b2c565b611b2b7fe583b06eac97353d0ff4bd9baa38f647b92a610e6a70185cc8b4c59981e2d3d160001b612c9f565b5b611b587f23ee693a4d28312a9def5bb67f28051dc08954178ac8c6a99bd3611f3ede923a60001b612c9f565b611b847f07503d3d2ce3b15dda30b6de1073ebdd1b87cd99b96e9573bf784aa71890fef960001b612c9f565b6802b5e3af16b18800008412611ca357611bc07fec2c19a72c3a6ab45e714d801eda84b0c95a7e064bbc6bb3271b06a7820b46f460001b612c9f565b611bec7f1c257ed60e2af6238b450518259e0f106dd0967a46ecac496c039601187a1c2460001b612c9f565b611c187fb6aaffcf4c7bcc557cf2ed6ad3f876cf75bd255d10ff34d178bd7d7f7a5f0fb660001b612c9f565b6802b5e3af16b188000084039350611c527ff8eec3bbbd428287f31a94ad611dd00d0f9748f2708fd03982c79876ce574aa260001b612c9f565b611c7e7f1e0ead2001d2ca04f2d62894cb413c363c6439ef0ccd395e382ff694fd265ece60001b612c9f565b68056bc75e2d631000006808f00f760a4b2db55d820281611c9b57fe5b059050611cd0565b611ccf7fe6abce81b6afb00697fe33f1555b17ffdb185dcd3317f3fb8c751065296a9e9a60001b612c9f565b5b611cfc7f12efa59ad9f2fbcbd1c408558e411668bddbf24d96895216b736c8d5fbd0f43a60001b612c9f565b611d287f9745baf78ffa78b5ea76c3832102ad9f89c94001934f7883b968bbe6995f416c60001b612c9f565b68015af1d78b58c400008412611e4757611d647f7164f448c8a55596ae371fa4d01ed2d280113303a6193fba2b3ec230e7e1b00a60001b612c9f565b611d907f8f2f6885e0c02037769ef8a799a965a7974be536126ec579168ca6a70e8366bc60001b612c9f565b611dbc7fc4513f37c3809539c0d7d5a706593c858ddd0a195c0ec1ad6f03bee00b117e1260001b612c9f565b68015af1d78b58c4000084039350611df67fde4724845db98e8fca24d9fed5ecdf0511cf8584cf25f67c5adaef214a4b657060001b612c9f565b611e227f0edffcd09bf23e58a56b11d9fd2730c9460b188d757c6d690b11f6ee3434df2b60001b612c9f565b68056bc75e2d631000006806f5f1775788937937820281611e3f57fe5b059050611e74565b611e737f3bf335665c831bc42885f4c4f5a661a0eaac6452974d4d89b0cad02e13f920a560001b612c9f565b5b611ea07fdb32284aae92927243fbc87b40e9a91f56392b193b967b9b47fbece50af2557660001b612c9f565b611ecc7f5f319f332aed3a677c60e30196d9414f0b45002c13bc12fe47d9250806d3ab5560001b612c9f565b600068056bc75e2d631000009050611f067fd25adb26b09b92471ef07f7eb1f0dfabe151779c4086e71365cd60a1f054477e60001b612c9f565b611f327fae831f90c9720de4bd357c85aecc0a2ed7c793b1b64419318415f79b5b5ba24b60001b612c9f565b6000611f607f13a59d57fa9fb186a09cb13db0555db2580cc844bc4f56f4978fe6352eaf61f560001b612c9f565b611f8c7fdc67a0744f97707e1516f99b7d97619305a844cff712ba8bb047d1862b833f2660001b612c9f565b859050611fbb7f42ed1c52f98c9efc709b1839d7381ae4f7e79682229488485a9e535e5db1c99a60001b612c9f565b611fe77f3f343d10c3ad56a07dcd790e36df3c48764b37f68fc46ef0667529c1428c09d660001b612c9f565b80820191506120187f40bfeded5813c9961de7ae74de50e8ebf99695523139bdeaac2ba16e99e9755960001b612c9f565b6120447f546464d511b4dbd9e175112ed79738997adff96602e612d8628d4f78911888c260001b612c9f565b600268056bc75e2d631000008783028161205a57fe5b058161206257fe5b0590506120917f5df678d9a7a6ae9a9498ffe7f8d727ae4de909f0b296ab2d694b2d309d2b646f60001b612c9f565b6120bd7f5174487126fc5f2fd6f0379d294212de03f7b2f5d0dd279b4edbfdfc3e19e2eb60001b612c9f565b80820191506120ee7fcf88976b65831ffe97b67b7b2ca013f7e5fdb847fbb93c7f2d7034533028158d60001b612c9f565b6121197e0558671959e5134d01ab0f86ae54af18cdefa82c5fb5316710dc5ad95f5dcd60001b612c9f565b600368056bc75e2d631000008783028161212f57fe5b058161213757fe5b0590506121667f1cd95f17c41cafe1b13deb79ac956b5f958ce3efa711ba409d193273f812258a60001b612c9f565b6121927fa34f0dfd30ef71733809d85683eee1009c10c65ec25271d7d9b2d272465c047e60001b612c9f565b80820191506121c37f1426410cea942485931272d793a9f4ec5255c8d0f423ea227f721530107dde4b60001b612c9f565b6121ef7f494659c81ab7e59032e61324f3c0073ae74295b96c9a247dc88db6f0cafcc6b060001b612c9f565b600468056bc75e2d631000008783028161220557fe5b058161220d57fe5b05905061223c7f1041f8d0ca0bec305764b0cda20df1fa1b5b048a7e4d966072f7c096b6a7ab0f60001b612c9f565b6122687fec785b35d8c27ebae08ebd898671e3fb113ad53755b142943087d76b60f697cb60001b612c9f565b80820191506122997f32618ecd71d71820b399dceb4572c87b52fab009097cf45810bb2eb50972bf1160001b612c9f565b6122c57f0c66c9cf36dcb9b7b3c8bd2315072a1978dfb9d3f81b58aa453a4cdb819699e660001b612c9f565b600568056bc75e2d63100000878302816122db57fe5b05816122e357fe5b0590506123127f9fdd370c6b7cc675c6255331f249c10f8918ffe39ec046f6eb76d53a947c9a0960001b612c9f565b61233e7f11c9697c0e03e81da28813ad061aa548447a4d8a9dc3b8c23d59b2d12d5d7d4460001b612c9f565b808201915061236f7f391db74f7749b7ae2ee31c87ebf9bbfd82d2346742d80e5fa635a77b6bf181cd60001b612c9f565b61239b7f1efa183081524998d6a056dc459be65c1b5e2c57e7156e7353f5c5a308de08fd60001b612c9f565b600668056bc75e2d63100000878302816123b157fe5b05816123b957fe5b0590506123e87f7c80225555c21862d2127c45852b5b7e867187f90d7b479093a80d558ff363a960001b612c9f565b6124147f6bb4786a69207356caf0fd9ad4e477193225ae1222cc28eda8de5ded362a738860001b612c9f565b80820191506124457f2bd95cc2b46a697fc9e6c3650198698b02cdc489924a9625765e7773ab16ae8860001b612c9f565b6124717f6d70ac07c1523999f0874733cef6a7fdeb1cbeb1b985e73e5c2ae45bb5fce47860001b612c9f565b600768056bc75e2d631000008783028161248757fe5b058161248f57fe5b0590506124be7f68c21f169be444da9ef45fe470d73b9632c50037aa8aa519cb49b2403965c2eb60001b612c9f565b6124ea7fb5368c2771a467a192bc432cf66ede3a2e75b42e30e5f6c8eaceca14ea142e1e60001b612c9f565b808201915061251b7f0b197c00940bc34711a5c1bcf9f390aa0fc31444c572dc0d0ac1e8c2b9c1e1e060001b612c9f565b6125477fcc9a6a7838ea3873cd8cb7797d8acf9701ffb04aeec1db4c8f7bdfdfe7e2d3e960001b612c9f565b600868056bc75e2d631000008783028161255d57fe5b058161256557fe5b0590506125947f4ae223488edf92d1ef9df11b74835814de75ca75fb53a7c67a69c1f378d81ee260001b612c9f565b6125c07f40437cc0071d40a545118470633ee8498f6ba07249e95bd277d662c8c3910d0860001b612c9f565b80820191506125f17f6a98bd98d5b6402216f6a26d5e5c6a0e49aa041cd602f0480a92757414fdd3b360001b612c9f565b61261d7fd3d9002223246e6684f9b356dfa9d5c123bb45a59faf3a71c2d8509cd1b8aadb60001b612c9f565b600968056bc75e2d631000008783028161263357fe5b058161263b57fe5b05905061266a7f5915e3cc2f4da8323007d0f13b60cc72c7d692077501c6c0b751d92bee102cf460001b612c9f565b6126967ff374d3c08292c299c854216de162077cf1e7e74d3e8d95785370cce4a8a54eba60001b612c9f565b80820191506126c77fe551b770c0283b7957336a0413cfc5695d9a74be29735d8eec8935ba20731a5660001b612c9f565b6126f37f43e66eba524ad5a79985eb4b8c6d6fc7162bfbfdd871b9f070e97db31542f0cc60001b612c9f565b600a68056bc75e2d631000008783028161270957fe5b058161271157fe5b0590506127407fd8a9b2676287d5379b156d6247aeb5c2f0fd0ed55c29065726548ea6fffde56f60001b612c9f565b61276c7f7e808415cc1dbceed6d010c33f90e1223eeae1f554c79ec5cdffaa7d70f578ab60001b612c9f565b808201915061279c7ec7b50af6579f36d212223599a7baf3371e84233a81a59f8730356090efe26260001b612c9f565b6127c87f057ce259ad07027680b845518d99ae02983046d284d711d975c4fd35edf89ca360001b612c9f565b600b68056bc75e2d63100000878302816127de57fe5b05816127e657fe5b0590506128157fce223532276d9fabf2fe44c77bfba17b308e50a661a67b2752655cb8cb6552c960001b612c9f565b6128417f4dbc79d412cdba175117302a3d855398fccbefe1f2052184b32dd42523991c6660001b612c9f565b80820191506128727f55da710f8842795b5b2e959480ee14a0c4f9c3cfa812287cfa3af7316963641360001b612c9f565b61289e7f805b231f29185d988c06992a4ddc8f42fa307198ac0ddf06216dabdf4e73bccd60001b612c9f565b600c68056bc75e2d63100000878302816128b457fe5b05816128bc57fe5b0590506128eb7f5ba9d0c8bff42f59665649e0bd725b6ab0ab482566bd0ccdc0bb78ae418732e160001b612c9f565b6129177ff197e464f40cbe1f523b743dc74861641e5b4609d6d4ac255f5887f9f27cb66560001b612c9f565b80820191506129487f94afe60d1248ac0a761f9e1237e351e82f9e7e83032f5e3866b4386013ebc91860001b612c9f565b6129747f2e2220c3917686fb99da58ec04c3d2e5d0e5fd28f75995041eb4ceeca24f73f460001b612c9f565b60648468056bc75e2d631000008486028161298b57fe5b05028161299457fe5b059450505050505b919050565b60006129cf7f2d109a5683dd9a11ace453b33326f996dc073f965956c0adcbc94da37c822bbc60001b61527c565b6129fb7fea0a55fe7d66eeea1d8c65997ef349e4565e690cb513c76bb425aa845819404460001b61527c565b612a277fa2e015e562ecff7cb5dbcb8dcc681211c5910605c85f6c8da514e14520d7be2e60001b61527c565b612a3660008314156004612ca2565b612a627f7cb9d936b52daa3885c69bfd5704f0b5904085e5601e4d6996bdb889cba14b7e60001b61527c565b612a8e7fa6aa7cb199aa4952e11d0c48c2f2a6aa6d773e1412fa2c68e4497072fc9c34a260001b61527c565b6000831415612b2457612ac37f6444ff1aca63815e4d2616653a3331b326584b2c92e1619a9aeea548bc0fa6b060001b61527c565b612aef7f1bb8db645f8bcb2e16a0d7ff4086e5ee3684b0032db0454c653291f51b9f723960001b61527c565b612b1b7f11b60f07d48ef5f829a0caf0761770cf3d5dfeeddc3475cbaada9d91ab44ff1f60001b61527c565b60009050612c99565b612b507f4a73f3af504b91809a28e5acaf9337a35a56ca11189217b0a894129cc15e8fad60001b61527c565b612b7c7fe99ea2420c0ecfeadba8d7dd1d82e5ee989794f71a5f27acfd3ad1bd812c690b60001b61527c565b612ba87fd17216c7fdeef3f09d1091432fb7303451e83c986270ffa9bcb84b0b66b60cb360001b61527c565b6000670de0b6b3a764000084029050612be37f022bd7d5ec8e771a53b61eeb3fa4b04d83c67d8a43d01c0c66cf08aa6018840d60001b61527c565b612c0f7fdb22d1d6663051778e748b13c2b2b11d231553902ff4007ccd48321f7bb63d3960001b61527c565b612c2d670de0b6b3a7640000858381612c2457fe5b04146005612ca2565b612c597ff80bdc4afe03b8285068be38759e765413a3844d086e1d62e0a9d6f27338182c60001b61527c565b612c857f5015482585e9090f4a9bf17a97e47f1225482f97e80fa061dfb918c23d4f585860001b61527c565b6001836001830381612c9357fe5b04019150505b92915050565b50565b81612cb157612cb08161527f565b5b5050565b6000612ce37fafad475bb9484dc1fd4e5b0ade9ae77d8d3f4374a1d7ed3cb8ed01d66064779d60001b612c9f565b612d0f7f031e05fee9e49ea9b35db640634f62d5ae8d789a9b00ceeef3e71de967e2d5e060001b612c9f565b612d3b7f23e17eef26db05186da272b7053ac848f6af2a19ac06f64cf23a971483327e3e60001b612c9f565b670de0b6b3a764000082029150612d747f5752269231d7207870d49a120ac51391a46ee6cca6f7fc08bde989b0d1ab986460001b612c9f565b612da07f31bb4605982d03d671f012c1710f6e3d3550f931186583070c565e112fa2f0b960001b612c9f565b60006ec097ce7bc90715b34b9f100000000083016ec097ce7bc90715b34b9f10000000008085030281612dcf57fe5b059050612dfe7f833201f825ec9dbe3ea77cd20a272f47911676af570f953e1b63a6cdb627d40360001b612c9f565b612e2a7f32cfb75f0ff917d3887301975ad099f8e8cb9605c21447b1e4e06bc5cbf69f6e60001b612c9f565b60006ec097ce7bc90715b34b9f100000000082830281612e4657fe5b059050612e757f5262ad7374e69c862038705c852dbcd9a375ac7b77b81626dd85ef3bc777c8ba60001b612c9f565b612ea17f814b893dec74f384cdc4ffe2e91849bfe5373d8e965b0e5516a5bda52889559f60001b612c9f565b6000829050612ed27f0578431d2704ffe9ad7fb07b78c670e53e0c4c85f46f554a12e4af69ffd8a60c60001b612c9f565b612efe7f5b497994a9114fb09ab4490f0482e2cd57ba6252595357738c52b4dbcf610da160001b612c9f565b6000819050612f2f7f6e5b5cf3104a14c38940ba6bc5d534ecc8ffd4749f486b65ecd81f623c2f3ee760001b612c9f565b612f5b7fd2bc5c26d500ac606abc5b229aae0a994ce547e4b0cb499fe22410fb0626721460001b612c9f565b6ec097ce7bc90715b34b9f100000000083830281612f7557fe5b059150612fa47f6b1d205a6375704a28ed95217bd697c1775c8c59b8a3f065720259fe133fa0ee60001b612c9f565b612fd07fb76b7ee84c379bd0981bbbcd218400913abe0a3bae29d77284ee9a0cd47ee34260001b612c9f565b60038281612fda57fe5b058101905061300b7fd17a6e196dc831a8c5818adf6e5de25ffe1bb186b988d0e5a93791c040bbc5ce60001b612c9f565b6130377f87dec2e16a0f0b4a99197fd8862a1e58da443b65a9358cac988fd9986c513e4d60001b612c9f565b6ec097ce7bc90715b34b9f10000000008383028161305157fe5b0591506130807f497c66fd18cddd1edbdd663cf65697d926bf4b6b202abb5caf58c8e4f051e33260001b612c9f565b6130ac7fda27ba2d015ea8075dbb2b6926438b22f84133b8f0bf78513b1edf4a258e9f3760001b612c9f565b600582816130b657fe5b05810190506130e77fe2fb1b5df927df9440cfd455d46a4204c48d3ad6ff3228dd000db2cad7f5cc0660001b612c9f565b6131137fe8af9739626a66be09fc26dc9203eb0d8cd6cf8a7dba0887a39e991cf5b78faf60001b612c9f565b6ec097ce7bc90715b34b9f10000000008383028161312d57fe5b05915061315c7f1d2478f6bc640e0988b0185bf45bc2446e7569d05ef50b75bd9fd46b2cc3bffe60001b612c9f565b6131887f190f9c9a243682a8039638cae963f3e8d3e21e066e69fc24076dbe78a6c2d04660001b612c9f565b6007828161319257fe5b05810190506131c37fe3ef508b3c980059a2ac866f30a69cd5d5caaf518d012f26b857bd26916822cc60001b612c9f565b6131ef7ffc98cd02c211181ab2a38e03eda7c39f50c9ee3fd49bde86a518fb132461897860001b612c9f565b6ec097ce7bc90715b34b9f10000000008383028161320957fe5b0591506132387ff4b4d260d3dbe9bf6de0f129a91683f88b9d44e25798db05de253ea3779fa60d60001b612c9f565b6132647fd3236a68c5b379154ac60efeb89e514db4db2f76c23a6994a980dc2601fc318060001b612c9f565b6009828161326e57fe5b058101905061329f7fd204e544020feada4b05a8d1ccdbf5c4c33aa2654f76977adfdc750d9dc5a3a160001b612c9f565b6132cb7f8064ddd04bdc1de318dc25362c5e30e08af518128db829fa1adc14430e30b53060001b612c9f565b6ec097ce7bc90715b34b9f1000000000838302816132e557fe5b0591506133147f301445f58664fa4fbac2352a1521f719ea4787b63a1582747831d848dae7313560001b612c9f565b6133407ff41fb0d5d5d8201d1d56087eeb570cb7697800fc787e15a53624b92f1c44c9d160001b612c9f565b600b828161334a57fe5b058101905061337b7ffff9bb0c690db875f9c0a83eb2bd74b233801209615f71003868a848005fde6360001b612c9f565b6133a77f9f355ac08862d8d248da9930374240c93301690cc2df63147fffeaf4f9525dd760001b612c9f565b6ec097ce7bc90715b34b9f1000000000838302816133c157fe5b0591506133f07f2224481d9e6c9bc867452e63cb0ac2c3b90f6cee6a27b5ba18097d30d4a3062b60001b612c9f565b61341c7f9af27505bb36cabaf6f21414ace7ccbd2f404fd0034ccea77c9c5242972ecab560001b612c9f565b600d828161342657fe5b05810190506134577f5ba30ad8663a3844cb7eeecf5bca0665b8b344aaf43495a9e6bac8f6a94cbb9460001b612c9f565b6134837ff700d16fbb686e4395754bbf15bea0b3328f413226a7736bdf223ecfcbab5e0260001b612c9f565b6ec097ce7bc90715b34b9f10000000008383028161349d57fe5b0591506134cc7feb6e11531698cffa3af6fa0a98d7104f7a78094e845fb298a536d611092d8dcb60001b612c9f565b6134f87f6cc23dd5f97530be1458c9dfa2abe52d64ac4acc8dc4bc6913a5f388f8ba959b60001b612c9f565b600f828161350257fe5b05810190506135337fe7ccb0a12fa031a0a94896d3e65aa142f5894c896d67a5491db6839213832d3960001b612c9f565b61355f7fb0b596d060d7744021776e57e0c4ce81c61eb23d61a17e87e0acd84f0654f1d260001b612c9f565b60028102945050505050919050565b600061359c7f2a0e4707fd37a2afd7a8622a8b8288c83462728dd05f2553df0680d7a6320b4560001b612c9f565b6135c87f1b7f6d72cd142cb5c98d0dedc604a45de085120e8d78c6e59114dca025f3c19260001b612c9f565b6135f47fd6f2473eb4eef7b00d1de8a833714b900c307fc4b3db23671f0138d2f06bb4c660001b612c9f565b670de0b6b3a76400008212156136ae576136307f6fb39aa5e0de2d432f2ea710235cf2abdacc0d1dd65d625031d098392f9ed6b460001b612c9f565b61365c7f80d98144bd28bb593271a0957b6b785ee715cedba93a349b3415ddee4ff8a18d60001b612c9f565b6136887fcb1764bc9a85caa655591bfb618e0b29cfd97f20b909ef5f0aeb708a52458ac960001b612c9f565b6136a482670de0b6b3a764000080028161369e57fe5b0561356e565b6000039050615277565b6136da7f5f795f796e34e48dbffe0e75962a006b6b8dee49c7959e5bf378a7418b7011af60001b612c9f565b6137067f5163edfb7d5bde2b97eb7674a803d6d16fb9ea60ca35a0c1c540ade7b9f1ec5660001b612c9f565b6137327f061fa7b7a49b4960801efec85da6208c9a85886c1d6658be0d43a666dd1f37ce60001b612c9f565b600061375f7e071535dbc1bc6eed51b6ff932dd14cebd1fee562798e1756b2a2217221881060001b612c9f565b61378b7f7909265c00215cf44ef659f60993e3ac535c6624133f2329f959282e5cf4720e60001b612c9f565b670de0b6b3a7640000770195e54c5dd42177f53a27172fa9ec6302628270000000000283126138c7576137e07f9eeff1bf1d7eb9bf6a862e29041c211045e50a9409090f8c6e76490d92209c8e60001b612c9f565b61380c7ff78b4b0b27c2baa6289e8c04ac6b732c76980b96221b0f5b504863ff297a7e6760001b612c9f565b6138387fb92666a167e928646dbadb1c11387ce18eccaa72216e66e7980ff21a39b4a0c460001b612c9f565b770195e54c5dd42177f53a27172fa9ec630262827000000000838161385957fe5b0592506138887f9a28df60dcd3683c29ae4d4c8433e31b1e186e2b19b9dc31abb5668e999e130360001b612c9f565b6138b47f2349d251de36950693d8dc7fe3e89e22f4faa3facbc573713e36b3c1076bb6b160001b612c9f565b6806f05b59d3b2000000810190506138f4565b6138f37f5f868f32c1b183566d4fd477eeaa200fb7c0ac420213f8ab31d4a5a2ed804bbe60001b612c9f565b5b6139207f655d7719e6baab47a0409df7b7b8bae3eb3aeefa1c578e68daa5b30c9ed99e3060001b612c9f565b61394c7fba2e333c2a2c02398997088d511c39dc1e9f2fffff60bf1081691ff02b4ccfde60001b612c9f565b670de0b6b3a76400006b1425982cf597cd205cef7380028312613a70576139957f63d33fe4b6f6a3c71e6f29ae1d261b680fd6728d0077b1c0ef7d9315a424f98060001b612c9f565b6139c17fb0e8ad89b3655932a3524a3757970351a74e4b55c591ed66078f069debd8d16e60001b612c9f565b6139ed7f0ef7c12e03a2e291fe14ef2214a6b3fcc320d8f535fb4ea99e5497408efd973360001b612c9f565b6b1425982cf597cd205cef73808381613a0257fe5b059250613a317fe0ecf868ee95734317a4c2cfa87355cb850f0b165a583d9fd6a006f20ec5462e60001b612c9f565b613a5d7fb70f96a1f394bb2f6372bdfe228612c5b83eb7bd561b671ad7cf8ae8e148333c60001b612c9f565b6803782dace9d900000081019050613a9d565b613a9c7f73ca4c73fe2aa4d27e5a189578ebbea10f70a657f99e31130e86dba045a4fd4160001b612c9f565b5b613ac97f9fcb87c0be548e7851afeaab469990149ce57255e66dcb2a706db5a084bcce9960001b612c9f565b613af57f4a1376489944ca0b521dea4175ed59678c7efeb09f16827cbf218c4eddce71d460001b612c9f565b606481029050613b277fef1d9a7c37f8a36d71b46a6edda0e4a3363b95743da06d32ab4f32e3009eb72f60001b612c9f565b613b537f89debf19aa927a767ef509100e58ecd5906978a73fbebccebf581b8e26a6638660001b612c9f565b606483029250613b857f0bdd1b09853face3d8b70ea65bd067179115695135e2ecf69891ca3483b4a0fc60001b612c9f565b613bb17fe84736814461598a4e42a3b2342c00e67b8d4c5b18f055163edb2fa75f2349eb60001b612c9f565b6e01855144814a7ff805980ff00840008312613cdc57613bf37f67c3758e91595791b9150fc6a89a29627d1c992c2e4e70db244aeb0679d95b9960001b612c9f565b613c1f7fd0bc08e158bfb2255c90a5ff951e6eea2d8a26f3864b358a83c1471d451a4ea560001b612c9f565b613c4b7fdb9ef2d3cd566ef078f073dede74b4b38f19988bd40236e79b59ce8529e1736f60001b612c9f565b6e01855144814a7ff805980ff008400068056bc75e2d63100000840281613c6e57fe5b059250613c9d7f08c724e21b52dc4806f198ffc8456fc6d4bb18ceb52c9ebb5a2ee48ee524154460001b612c9f565b613cc97f7a6d26930463dc0b85337ed47cb609dc54834121d9ae4c44690da285c4b2434660001b612c9f565b68ad78ebc5ac6200000081019050613d09565b613d087fd8da6a7e72c78cbb49231b424f03ab3a41e3788ec9b0ffe3502d0833169c1c3760001b612c9f565b5b613d357f6389e56c956e82fc9ffca8a47e11c4becd7c0a23beab4f91c5401966c9f6854b60001b612c9f565b613d617f8a2d4a87b57f78aaa7e2eb003ffc00cacac41f290b5bf14b230285c78640967560001b612c9f565b6b02df0ab5a80a22c61ab5a7008312613e8657613da07f2c97f5462f483963631ba9f9e1ddb9d0a5c3c7f72c272c692c040b2c90ad849660001b612c9f565b613dcc7f8a09912793ae4b6f51c1aae5e93fd9e2fa3b4be30358e91c3a00030822fa8ddf60001b612c9f565b613df87fc024c606068c50790457f476f8bb6e9abd7876edaf95881faca2416802f49f4860001b612c9f565b6b02df0ab5a80a22c61ab5a70068056bc75e2d63100000840281613e1857fe5b059250613e477febb9291849e42b27d8b579f8a82fe2d68c9f5c996da64486de3ec1642fb2d6b260001b612c9f565b613e737fb763f29bba9dbe1c899ab5fd37e6b92ec872bb4c29cd409faf8faaf7c00c06a960001b612c9f565b6856bc75e2d63100000081019050613eb3565b613eb27fbe811c74316467d7588f719973d8f73b6b44bdc2615d92021dbc626ecc22d31f60001b612c9f565b5b613edf7fcd764b508c9e68721c72db58d23034ae8791912f0045b01605f75dbbe915672160001b612c9f565b613f0b7f86f07fad501b095be885b4a911f2b7cc3834da7e263b0b37d949806471f08b3260001b612c9f565b693f1fce3da636ea5cf850831261402c57613f487f80c7783e3a804543691c86546e82ac5b9ce5f48cf748365d31cc9c8a1908022d60001b612c9f565b613f747f87b3cccae0713c171e4cc3c30e9264b7eb2b67b20dcd9e5e69ce065d192eb8f260001b612c9f565b613fa07f2ec340c657bb799f8a13576e44fbddb231da5b0d328354cb80de3786471bc90c60001b612c9f565b693f1fce3da636ea5cf85068056bc75e2d63100000840281613fbe57fe5b059250613fed7fac47bde4bebd3a8de3d23e457d17a25c8ea35a923524467f19b9d05abbe3bb8260001b612c9f565b6140197fe98243a8b81ded7fb01dc058e6c1742677afa34175d47084e47311ed29291bbb60001b612c9f565b682b5e3af16b1880000081019050614059565b6140587ff1cc0b188e6e4231cb4718ebd28e5bb14934978cfc8e864985872747523c378460001b612c9f565b5b6140857f99bca04e245a9275c2bd797029177b09ceed72a81e08e59bae2a73a797df93c760001b612c9f565b6140b17f261e4d362d795e7cfe9c0c6868738fac4f9fe2ece1423c03a5d24175f2fdc78d60001b612c9f565b690127fa27722cc06cc5e283126141d2576140ee7f3914829bbe0f6c5bf1afeaa34ffd544b8cb38edd8d3bc6614904f1155f9d428b60001b612c9f565b61411a7f72947c0f257e2918752a7ccfc2b914288f3e2ecba1b758b07e8d97878884e48760001b612c9f565b6141467f11b375a7ba04e92ada9546ff504dcab892490c95edd3fcf9012815222efc302f60001b612c9f565b690127fa27722cc06cc5e268056bc75e2d6310000084028161416457fe5b0592506141937fb79d950018e267ef32fed84a6a9421d2eec0fb3e399156c9f3eff0196bb1cfaa60001b612c9f565b6141bf7ffbafab27350586c5b7594a218ca54443b7fba3e44912a674c9270d39be03e6ed60001b612c9f565b6815af1d78b58c400000810190506141ff565b6141fe7f75c33499bbb991e3eb9467b741b89aa2ddd22c8f21d74da332eeecdb83be5bc960001b612c9f565b5b61422b7f2c4465aef9653b674b06a595c74584529cb594dfa614f03186c6e07a1b7ab33f60001b612c9f565b6142577fb2eaae06e373ee55d19ea18eef81bed5eb9899dae375cb9b63dae3e1867e604060001b612c9f565b68280e60114edb805d038312614376576142937f0505fad27611bf5ac429a3287f77fe17c9697ff4ea39a955615534324a9d39bd60001b612c9f565b6142bf7f59fa2bc990dbd027eb8293fae49379d6e7cf7a2428cc6ba222350724ef85f9ed60001b612c9f565b6142eb7fa39e98762bdf9a1473933d1a9a310cb283b2cc6dbbe3ef7349725a4977e1942d60001b612c9f565b68280e60114edb805d0368056bc75e2d6310000084028161430857fe5b0592506143377f3ea03c67b7436c50f0e000d67f9cc76daa691620267f85a14504eaaed4847f6d60001b612c9f565b6143637fce5961db4c1a04f1f8c2f9af131d650675ba333dd075fb873a8e59d9464a91fb60001b612c9f565b680ad78ebc5ac6200000810190506143a3565b6143a27ffce0ecef3e850a9ff19935f216d8139104295e7f80e2c6f3c921bed7d358341960001b612c9f565b5b6143cf7f23e31166ea24247d1011b5edd5515d646eb074fff4ed8e8e67246d0cfc48519f60001b612c9f565b6143fb7ff4c3e257c580f1ee065615a767f7c2c7cd33d12cec16baf63e5e520da7ab939560001b612c9f565b680ebc5fb41746121110831261451a576144377f1f4ede70cd4ed5e3df87b570f80e274166c0c4fe7adefd0c9d71b1e2f06910ad60001b612c9f565b6144637f0651b874402d08bca25e4278e92f9f7c2b8da5988db22363565d5d8131f15e0060001b612c9f565b61448f7fb0caf9cc4713e6c070f4384aa134e9e48540543d7da504f6e812304ff22757f660001b612c9f565b680ebc5fb4174612111068056bc75e2d631000008402816144ac57fe5b0592506144db7f2b3ccb5b4431d7fbf733a5973988809887fe9cb96487da42509383d75d21731c60001b612c9f565b6145077fabf5a8442a8bf87e50225ea9cbc4a507f6a1d9dd077e7c0bd7a5cb4ec3ccb37360001b612c9f565b68056bc75e2d6310000081019050614547565b6145467fe73ba6b6046756b3503b220c8f1cd309eb8255b53619cf9d7b4d3d1eadd8cf7760001b612c9f565b5b6145737fe5cf5698dcbdcefd3b9a0a197ef00de1bca0f41ce5493c0224b2fc4d95fcd54a60001b612c9f565b61459f7f0c24fa121ee36c5882d60fef1a224ff7527b3cf2b1a829ee4126f4ff9953c28660001b612c9f565b6808f00f760a4b2db55d83126146be576145db7f781c9a058c785776d1b009208a14485fbec7afb99bb48fd1dd958be0f60792a660001b612c9f565b6146077f041dc14b48dfafa37bf6be38cd94c53290ff5253f6dc276bb7a7c2feb21c8acd60001b612c9f565b6146337f7fd8bd3ee24373af9d3301d583ac9049430fe965f09b10814b86927cb9ea389760001b612c9f565b6808f00f760a4b2db55d68056bc75e2d6310000084028161465057fe5b05925061467f7f27b010efc80ee8f1455b5f944fa5064116e3866c96ef572403741c7bcc00448560001b612c9f565b6146ab7f334d0ec060f12209ce0cc3104d0dc35ac76e48b197a99651441c4d45e1ee6d9560001b612c9f565b6802b5e3af16b1880000810190506146eb565b6146ea7f9359fd9481c47f4c86e5d320eef4eed6c4236b662d7c0e06dbb2761330c635d060001b612c9f565b5b6147177f402ec0389c490a8a2f0c196c64a3656ad56807b23711c0e6fb4476c22317952960001b612c9f565b6147437f0121e51f92fc48c320d44a8fa79f5e5ac3314a045317e5ae18fb7b6ce1490af860001b612c9f565b6806f5f177578893793783126148625761477f7f96ae510b17a6b1ca7bd8fc760ae47fc0837a5ba72cd065816d5f8ff89348ca4660001b612c9f565b6147ab7f32f2e836d4821cb35469705e1f1edd4e1c797bdf692eb469d5db18c889c277b560001b612c9f565b6147d77f9d6d3527f1bb1ea0f06970d86b737dd956f8f9464dfba2d67918f253cfeebe1460001b612c9f565b6806f5f177578893793768056bc75e2d631000008402816147f457fe5b0592506148237fc00454d2d4886f95b68cea05c67878b88124baa3a4439a977c12794a61b4902360001b612c9f565b61484f7fcf55d52ea684236938078c6ac994ec866455bce1adc33f4538656c226106ce7e60001b612c9f565b68015af1d78b58c400008101905061488f565b61488e7f72bedcddb98ff81d073f921a18c6b9074026e71079ca583962b50f09c058b7cd60001b612c9f565b5b6148bb7f91c8db69b86cdc41dbaffac433437eadd33fe2c9c0f6ba1520e4352bd2fc301660001b612c9f565b6148e77fb5fc01ea3d63932cb15e68aee56e82cdac4c1d0200b3eb3e475feaabdff8e79760001b612c9f565b6806248f33704b2866038312614a05576149237fa1823c0985f8916af7ff678e31e5f8d8db5e936004aa3b39ba3c4864a68276fb60001b612c9f565b61494f7fe293b5eb516e8d03e4c2bbc9bd2293a39d53c2faa56a6c6a56aab664bf80204360001b612c9f565b61497b7f9470b504b3bf0593f4f0894c686d519b85bfd8660f4341a869dbaaa6c2a7a41360001b612c9f565b6806248f33704b28660368056bc75e2d6310000084028161499857fe5b0592506149c77f3af1254b1058d66d7bfe42a4de3bd5128918d1423e5a2ecd5195272287e29b4d60001b612c9f565b6149f37f111523abae47ccc25c7afd9cca8ee1f50d83da1c87c6c56491790279b39b4ea660001b612c9f565b67ad78ebc5ac62000081019050614a32565b614a317fdba95c89df2b2c302715f189fbf3e8afa18ed02a0c59d60fce3570e390e6bdef60001b612c9f565b5b614a5e7f6316ad9c2f036322af3911484d11e152b6d666f6da2904d8264cc3d3d2b80eee60001b612c9f565b614a8a7fd5a28627aba873ec250cd7139b8402995822d6fb272bb09381926ea187bd23ec60001b612c9f565b6805c548670b9510e7ac8312614ba857614ac67f2b6f2cd02f0d47badd5586bc1d9f58ff8b6f2a00b766e06321fa78fcb406813560001b612c9f565b614af27fcf6295743d6d9b70df97a10e09b7b1f265b2587afd80f5ad047d2f5c5aa5ce8760001b612c9f565b614b1e7f70959ebdd95590440af102dceff0d55bd4fe599507ae4e7a40b420a10cae540b60001b612c9f565b6805c548670b9510e7ac68056bc75e2d63100000840281614b3b57fe5b059250614b6a7ff770e21630afd1c7aa2fc1949362973cfbf87c1eb30b824376a97730f9535f1660001b612c9f565b614b967f784b5eba7288ce0229ef72abf84d8b40e303f13e5ba2b81067cacdda35d7bccd60001b612c9f565b6756bc75e2d631000081019050614bd5565b614bd47f156e042116d7446a37fcb3d4ec960f9047cc18a02b4dd1eb8b734cafb9605c0060001b612c9f565b5b614c017f0db1de3120dc404f4f8021def344b3c62f6ad502f740f40feaadf8129088e01160001b612c9f565b614c2d7f02d82c98cb824b016938918581fa19f477ce037165d9d45d81fc649c9f321d2a60001b612c9f565b600068056bc75e2d63100000840168056bc75e2d631000008086030281614c5057fe5b059050614c7f7fb8b70f939d04cc8d75e576332b9da5134ecca82a3e604e74f291f1130da038b660001b612c9f565b614cab7fc8638c5409badc3a194c6e9b05f173124591b35009f05b7b93f8c7ac08f8988e60001b612c9f565b600068056bc75e2d6310000082830281614cc157fe5b059050614cf07f08b9aee5b762bf1bc8db453d9aec5cec295ae5a677a9b26d440cdd9fc6973c1260001b612c9f565b614d1c7f6cb11656fdc9d3015f974ed28279796e17070c5d53f72ccb82f50b82bc4723cf60001b612c9f565b6000829050614d4d7fd72baafeeac9478eeccd9951ddedf17ff7847642eea99342d45b7f5097b278b860001b612c9f565b614d797fa4c6691648fc2fbb9500367982871b44ea6f400512f6ae3fc78f3c3f987ed42260001b612c9f565b6000819050614daa7fa1de7af863295adb149458a9b54d21e22cf985e743af8fcec44e86f771ddfad260001b612c9f565b614dd67fd6c2c10cb08e09aeb957267ee23223e3b865089983d3ea838a579f2c2f5217ef60001b612c9f565b68056bc75e2d6310000083830281614dea57fe5b059150614e197f4e5a98be01125eeff80c82c25e9fb9e7b02202a87b5680973ba14888b4a2dd1060001b612c9f565b614e457f597baf07b0aeb0637c340154dbe8e11fe620c09c4034c72c7df03665ef6cd8fa60001b612c9f565b60038281614e4f57fe5b0581019050614e807f04208f16ed89180341d8d28de15f2cb7beb6514949a9f767cf9b5dce70daa00e60001b612c9f565b614eac7f700add0bad6352b737db6cf0f4c820160e12e7c7bcc17138afe55d7dc67f2cab60001b612c9f565b68056bc75e2d6310000083830281614ec057fe5b059150614eef7f89c0d9d75ead7925f8f92ef643044933a36176181961cfe6c033df79346d2bcd60001b612c9f565b614f1b7ffb5cb14ed3f36ba24aee09acdcd10ddcc6cef0c8015b8dbf277d34419b5be26c60001b612c9f565b60058281614f2557fe5b0581019050614f567f9ee2cc40b8ab5263af95bc1fba71221946d091db613b8f93c440ee62d806ffee60001b612c9f565b614f827ff2f99f8aa918a208cfa8b8d746cb4db602795f57f17fc7210b61f1e70033ce0560001b612c9f565b68056bc75e2d6310000083830281614f9657fe5b059150614fc57fecc1504a6f1872489c1e37269dab8253af49f886d0df7ca8481b19675f6414a960001b612c9f565b614ff17f07c833df720764d188697faee613c532579bb7e21ed42a35ff67f744ec1c3b0860001b612c9f565b60078281614ffb57fe5b058101905061502c7f84fd7b0810797764865edde09223268a68e6d7525e6ecbadaf3dae09414e91d960001b612c9f565b6150587ffc0b2be7401f325ebfc926f22bade8876e8ff231259625a9f735df4b069f724260001b612c9f565b68056bc75e2d631000008383028161506c57fe5b05915061509b7feda0abf282f0c681f7a6bea7294ec51e5b91579240b3a5869b70a821513422ce60001b612c9f565b6150c77f33f4c27456bb21e26cd309307cb7936c191fb103606137f97c2c77cab81cdc4660001b612c9f565b600982816150d157fe5b05810190506151027f0b0a463cf0a1c345b1a831db4be2e862990963ad0466c72e67296591cb8a44de60001b612c9f565b61512e7fe3cb1a8a990e03b2f6482a7a138828d42d03c3b912d9fe02f1d8f1abe3c7880f60001b612c9f565b68056bc75e2d631000008383028161514257fe5b0591506151717f484eba67c966520b3c3f87a9b8eab2034364974b900e018ff0df9689b24821aa60001b612c9f565b61519d7f31a5a8af2a9b00d798cedeb7efb46d9a3227c50b361e48082068d5b91294663c60001b612c9f565b600b82816151a757fe5b05810190506151d87fe0fe1ff2347fbf5e0aeed6107768b2e6ab4ba2b14de005486d84a54e35a6c9e860001b612c9f565b6152047f8182237f0d31121f22b1fc0338fc2685dbcdddd1ff1aa1cd20946bdf3367afbd60001b612c9f565b6002810290506152367fb531577b46cfea8a0f0479f45520255c37d62cefeefad875161a20bb6916480760001b612c9f565b6152627f313d3cc6ccbaf2e16f0517b2aa4326497926a47540250bdf393e884dd6ec74a060001b612c9f565b60648186018161526e57fe5b05955050505050505b919050565b50565b6030600a820601600a820491506030600a830601600a830492506030600a8406018060101b8260081b8401016642414c230000000160c81b7f08c379a000000000000000000000000000000000000000000000000000000000600052602060045260076024528060445260646000fdfea264697066735822122028b131eeb1daee6da209ac3e3c62c37bb7d3d20cc1a0a92d160c465ac48b7ec964736f6c63430007010033",
  "linkReferences": {},
  "deployedLinkReferences": {}
}