{
  "_format": "hh-sol-artifact-1",
  "contractName": "EnumerableIERC20ToBytes32MapMock",
  "sourceName": "contracts/balancer-core-v2/test/lib/EnumerableMapMock.sol",
  "abi": [
    {
      "anonymous": false,
      "inputs": [
        {
          "indexed": false,
          "internalType": "bool",
          "name": "result",
          "type": "bool"
        }
      ],
      "name": "OperationResult",
      "type": "event"
    },
    {
      "inputs": [
        {
          "internalType": "uint256",
          "name": "index",
          "type": "uint256"
        }
      ],
      "name": "at",
      "outputs": [
        {
          "internalType": "contract IERC20",
          "name": "key",
          "type": "address"
        },
        {
          "internalType": "bytes32",
          "name": "value",
          "type": "bytes32"
        }
      ],
      "stateMutability": "view",
      "type": "function"
    },
    {
      "inputs": [
        {
          "internalType": "bytes32",
          "name": "c__0xb737d0cb",
          "type": "bytes32"
        }
      ],
      "name": "c_0xb737d0cb",
      "outputs": [],
      "stateMutability": "pure",
      "type": "function"
    },
    {
      "inputs": [
        {
          "internalType": "contract IERC20",
          "name": "key",
          "type": "address"
        }
      ],
      "name": "contains",
      "outputs": [
        {
          "internalType": "bool",
          "name": "",
          "type": "bool"
        }
      ],
      "stateMutability": "view",
      "type": "function"
    },
    {
      "inputs": [
        {
          "internalType": "contract IERC20",
          "name": "key",
          "type": "address"
        },
        {
          "internalType": "uint256",
          "name": "errorCode",
          "type": "uint256"
        }
      ],
      "name": "get",
      "outputs": [
        {
          "internalType": "bytes32",
          "name": "",
          "type": "bytes32"
        }
      ],
      "stateMutability": "view",
      "type": "function"
    },
    {
      "inputs": [],
      "name": "length",
      "outputs": [
        {
          "internalType": "uint256",
          "name": "",
          "type": "uint256"
        }
      ],
      "stateMutability": "view",
      "type": "function"
    },
    {
      "inputs": [
        {
          "internalType": "contract IERC20",
          "name": "key",
          "type": "address"
        }
      ],
      "name": "remove",
      "outputs": [],
      "stateMutability": "nonpayable",
      "type": "function"
    },
    {
      "inputs": [
        {
          "internalType": "contract IERC20",
          "name": "key",
          "type": "address"
        },
        {
          "internalType": "bytes32",
          "name": "value",
          "type": "bytes32"
        }
      ],
      "name": "set",
      "outputs": [],
      "stateMutability": "nonpayable",
      "type": "function"
    },
    {
      "inputs": [
        {
          "internalType": "uint256",
          "name": "index",
          "type": "uint256"
        }
      ],
      "name": "unchecked_at",
      "outputs": [
        {
          "internalType": "contract IERC20",
          "name": "key",
          "type": "address"
        },
        {
          "internalType": "bytes32",
          "name": "value",
          "type": "bytes32"
        }
      ],
      "stateMutability": "view",
      "type": "function"
    },
    {
      "inputs": [
        {
          "internalType": "contract IERC20",
          "name": "key",
          "type": "address"
        }
      ],
      "name": "unchecked_indexOf",
      "outputs": [
        {
          "internalType": "uint256",
          "name": "",
          "type": "uint256"
        }
      ],
      "stateMutability": "view",
      "type": "function"
    },
    {
      "inputs": [
        {
          "internalType": "uint256",
          "name": "index",
          "type": "uint256"
        },
        {
          "internalType": "bytes32",
          "name": "value",
          "type": "bytes32"
        }
      ],
      "name": "unchecked_setAt",
      "outputs": [],
      "stateMutability": "nonpayable",
      "type": "function"
    },
    {
      "inputs": [
        {
          "internalType": "uint256",
          "name": "index",
          "type": "uint256"
        }
      ],
      "name": "unchecked_valueAt",
      "outputs": [
        {
          "internalType": "bytes32",
          "name": "value",
          "type": "bytes32"
        }
      ],
      "stateMutability": "view",
      "type": "function"
    }
  ],
  "bytecode": "0x608060405234801561001057600080fd5b50611ef9806100206000396000f3fe608060405234801561001057600080fd5b50600436106100c95760003560e01c80635648f81711610081578063b464631b1161005b578063b464631b146102d8578063c65d26831461033a578063e0886f9014610399576100c9565b80635648f8171461020e5780635dbe47e81461023c578063adcd29d914610296576100c9565b806329092d0e116100b257806329092d0e146101445780633e7b8e711461018857806354996d5d146101d6576100c9565b80630127190b146100ce5780631f7b6d3214610126575b600080fd5b610110600480360360208110156100e457600080fd5b81019080803573ffffffffffffffffffffffffffffffffffffffff1690602001909291905050506103f8565b6040518082815260200191505060405180910390f35b61012e610499565b6040518082815260200191505060405180910390f35b6101866004803603602081101561015a57600080fd5b81019080803573ffffffffffffffffffffffffffffffffffffffff16906020019092919050505061052e565b005b6101d46004803603604081101561019e57600080fd5b81019080803573ffffffffffffffffffffffffffffffffffffffff1690602001909291908035906020019092919050505061065f565b005b61020c600480360360408110156101ec57600080fd5b810190808035906020019092919080359060200190929190505050610793565b005b61023a6004803603602081101561022457600080fd5b8101908080359060200190929190505050610831565b005b61027e6004803603602081101561025257600080fd5b81019080803573ffffffffffffffffffffffffffffffffffffffff169060200190929190505050610834565b60405180821515815260200191505060405180910390f35b6102c2600480360360208110156102ac57600080fd5b81019080803590602001909291905050506108d5565b6040518082815260200191505060405180910390f35b610324600480360360408110156102ee57600080fd5b81019080803573ffffffffffffffffffffffffffffffffffffffff16906020019092919080359060200190929190505050610976565b6040518082815260200191505060405180910390f35b6103666004803603602081101561035057600080fd5b8101908080359060200190929190505050610a1a565b604051808373ffffffffffffffffffffffffffffffffffffffff1681526020018281526020019250505060405180910390f35b6103c5600480360360208110156103af57600080fd5b8101908080359060200190929190505050610abe565b604051808373ffffffffffffffffffffffffffffffffffffffff1681526020018281526020019250505060405180910390f35b60006104267fc6f9a11cbc748609249f496c96f0016b630207a59e9f720c27adbb5e4341555260001b610831565b6104527f9e55c7799c62080cca026e5e719ced5c5ed679ced2ca8f1e6176e92df30451b260001b610831565b61047e7f68d40dc7779cb0071207217a82e2c331dcb816276a9d0be1a24b0559c94dd4d860001b610831565b610492826000610b6290919063ffffffff16565b9050919050565b60006104c77f107730d227f0acb3b345ab336c9297e9a0b6cbfee40a2a32d0d41e47e0bce6ac60001b610831565b6104f37f8572a1c77e94ccf2709b54582381ae5a00bac2f013abb9b49bab992ec5eda2de60001b610831565b61051f7f6923d30096fade56de88afb6fd8a2be446bad187bbfed488c86ad9436817d42a60001b610831565b6105296000610c32565b905090565b61055a7f351b997bca648139655c797e704807ad87e8fc003530b35413654d7ed44a44c560001b610831565b6105867f81b5e4ac120d0e9a9ea105f628bae8a7235acaaec8986b8a39c0df04a6e649ac60001b610831565b6105b27fbdb7935572d18f64b45e98f184a690721de71085dcee1dd89551c80132a9231560001b610831565b60006105c8826000610cc490919063ffffffff16565b90506105f67fc5415d27a973248c98e326c841b83a9437eb720548f26086850e5bbe596a92dd60001b610831565b6106227f8386c7927df9fae0f08428613a716da80a03368f063cee8c635a873fc8ac0c1360001b610831565b7fed9840e0775590557ad736875d96c95cf1458b766335f74339951a32c82a9e338160405180821515815260200191505060405180910390a15050565b61068b7f587834431bcdcb76f2125f9e60e97ebef9d0df849b83e4cb89e114be3dd9cb2560001b610831565b6106b77f7a395ef541daab3ea31e838f96750e0cf2af8dcedb4fc5b5ef40bcd44f3c549260001b610831565b6106e37f293d61e3e14deaa148f2048e1cf4442adf45938bbdec5b24195464b36dec5ce160001b610831565b60006106fb838360006113329092919063ffffffff16565b90506107297f810f6f8e75335b26599ad69e56f348a722df3aac6e34e5854a9a29d8bad2ab3260001b610831565b6107557f663ef216fc27b03bec5f56ec92c49f30ef6a2634e8c200d1a8f52aeb4c63775160001b610831565b7fed9840e0775590557ad736875d96c95cf1458b766335f74339951a32c82a9e338160405180821515815260200191505060405180910390a1505050565b6107bf7f8ef808a4522c515a863f835fad86607d02f8ecdcfd29ea7cff2ad39e9238657560001b610831565b6107eb7fe733ab7a86dca80224370142633d3b5cd165f3b02086508168dc601c5d76c3da60001b610831565b6108177f8c8822b3521c3c82b2cd2683847d7224a57984c9b2ed329c073f149e24cdcf2560001b610831565b61082d828260006118499092919063ffffffff16565b5050565b50565b60006108627f2eb1e0ea9c50999cf1d04a8091a400a1f4f96d8163f3574e7a2c46978ab8e02460001b610831565b61088e7fec897fc046c7c5b040814efd58c8d6477f879df3d37a0dd9b2eea674045cb12c60001b610831565b6108ba7f82026ec5bc5a6a7ce01e1480bcfece73db4cb6c3ff77a0deacbe8ee5241f2e6d60001b610831565b6108ce8260006118ef90919063ffffffff16565b9050919050565b60006109037f8cbe913cb2fa96a1e36dcb50823721cb124bba66c65ec8744895b2c4b5dd9e3660001b610831565b61092f7fbaa2657d45858ab0a768bc9656be7a0b738923aa3c2aa5a484cec5ff039f02a660001b610831565b61095b7f077c435019afb6ca94bccefd36a036aec4a54674c584707980989d5b08482dad60001b610831565b61096f8260006119c390919063ffffffff16565b9050919050565b60006109a47f533f5afb46c0926dde9d80a63deb9bb7c10f87dd7f6a91f235747e386c51540060001b610831565b6109d07f15a27b9f60fd0e2c5987d3b2eb383cb2e32040356d58692e7d1741ac990fca0560001b610831565b6109fc7f29c0f16bb3e9812a94efa6ec87ab5bf2acff258c93b0399ececa9018cb797c5360001b610831565b610a1283836000611a6a9092919063ffffffff16565b905092915050565b600080610a497fb813c8afd2ca0e70c93b489714a052af58fa3a2f649d48f72811114e6f41d66160001b610831565b610a757f453be4617e2c9fd8bed9f0cec2205f7c84298a79d6f841f7f58dfc5d4e7cfc6460001b610831565b610aa17fa346f107d9462b06e2e228a884fd168187ca17ba30a031ff93bb6c72bedd6c5960001b610831565b610ab5836000611c0a90919063ffffffff16565b91509150915091565b600080610aed7f3d4433f6e7e4f0b2b0758d298ec6bc102ebdcceee33485edb566486881c7764960001b610831565b610b197f69454b926aa3ca807096b30e7f160aca96d6aec8862483d0c64206af5a74657d60001b610831565b610b457f75d87444605ecdb5eb0723c4a8ba6665badba09e7727c37d402a20bc6699146d60001b610831565b610b59836000611d3890919063ffffffff16565b91509150915091565b6000610b907fc613ca30bdce7e6f2708d004cf88845861c64c501fb8a1896e81ebf38287803c60001b611e3d565b610bbc7f80df5d0e9acb4592d9f2b1c0b9f12f8e0bfed9897f4de838c34cb149b07e67df60001b611e3d565b610be87f3a291c6d0bb57fb21d6992e2e042402d472bc7d72da51e299051b5aaa08d011a60001b611e3d565b8260020160008373ffffffffffffffffffffffffffffffffffffffff1673ffffffffffffffffffffffffffffffffffffffff16815260200190815260200160002054905092915050565b6000610c607f846b1273c50d5ad59d7faa6e6dc01d330f7c12b8f0a570977acfcaa4293ce1fc60001b611e3d565b610c8c7f73e3685e428c9cc0a834f36827c79e00738c86c6a8d2fde371d6544b3efec9c760001b611e3d565b610cb87f0a5627f4264447e7488f0eba23bb3ee56c49f536b34e1a43285a936c5876757560001b611e3d565b81600001549050919050565b6000610cf27f66b89d456d0418c3f130ad901d56e2c85422e9ddfc171664302f23dd9788cd3060001b611e3d565b610d1e7ffc3da1e6c648279de0c17f0d3eb98fdcef8939b77f170a2c57c4505645c142fd60001b611e3d565b610d4a7fcf7a185258fb5d6d9e97fc9a9da394ea7927bcc399b207a4efbbfefb984ab24f60001b611e3d565b60008360020160008473ffffffffffffffffffffffffffffffffffffffff1673ffffffffffffffffffffffffffffffffffffffff168152602001908152602001600020549050610dbc7fc9a9b5d222996dc12526c25dd562dda97d1cbbdcc4f9706187171113fd817b0b60001b611e3d565b610de87fcb2ee76c9450cb6dc20721bfed88103fc4f496a5bb3f075d71f165b440e271f560001b611e3d565b600081146112a257610e1c7f75c41b5721df0743ec11f6b350933938ee8d1698d92cb3a7e163ab51042c126460001b611e3d565b610e487f7b6f06720722534e2e08bf197548856ebc58b44a5009dded398012275e6a6d8d60001b611e3d565b610e747fb0ea273550518285b2a91372fb9ee748b2a9e2612d1d0759c10644f275eabb6a60001b611e3d565b6000600182039050610ea87f6d576d0851bd8542d5340cb7953bf27255e79efe54b0878ec85af296d8d2e46060001b611e3d565b610ed47f20a018eeaf38913117ac76298f81352b8566475592c65c89a92c7e408705e9a760001b611e3d565b600060018660000154039050610f0c7f57827e08c3b9f246d7b0db8b482e2d19c449db30917a0a9aea8bd90d1575e3d860001b611e3d565b610f387f98f3a726454cf221c40be81a913979181f284613492ec74fa28b853619cbfdea60001b611e3d565b60008660010160008381526020019081526020016000209050610f7d7f732bb40171bf13bc43cda52f879c42a948a4e0145ce015fd27fa189c4f9280c160001b611e3d565b610fa97f049ec547868e21c67881082cfab3aed1377ed7b76808f83920a7cf5da0da5a8a60001b611e3d565b808760010160008581526020019081526020016000206000820160009054906101000a900473ffffffffffffffffffffffffffffffffffffffff168160000160006101000a81548173ffffffffffffffffffffffffffffffffffffffff021916908373ffffffffffffffffffffffffffffffffffffffff1602179055506001820154816001015590505061105f7fe836fcdd1dfd7fa041b5ecdd450a60953fd7939c8261a329842ddfaa2053723f60001b611e3d565b61108b7f661fa38749cbc49b8e7bde1e8614f8d0e46b89b4e104d80612f50b1dc762993460001b611e3d565b600183018760020160008360000160009054906101000a900473ffffffffffffffffffffffffffffffffffffffff1673ffffffffffffffffffffffffffffffffffffffff1673ffffffffffffffffffffffffffffffffffffffff168152602001908152602001600020819055506111247fe8af4cc690ecdb44d6162bcb48cad60563cd753a72b58fa1f8712c490260d2fe60001b611e3d565b866001016000838152602001908152602001600020600080820160006101000a81549073ffffffffffffffffffffffffffffffffffffffff0219169055600182016000905550506111977f64d8e796fac75744bc03be1e704a6040304910ff4a03d2a70b2f22d25659bb2f60001b611e3d565b6111c37f895aa9ad13f000d01be79661e007625102e22ce14c19ec4c73a14c7284f2cc1360001b611e3d565b8187600001819055506111f87f4e9fbe3ba7d388186872baf6ca28fd77373d9dbc23a35d7472afd13bc9a763cd60001b611e3d565b8660020160008773ffffffffffffffffffffffffffffffffffffffff1673ffffffffffffffffffffffffffffffffffffffff168152602001908152602001600020600090556112697f3046c9ef67a2b6eba4bd84f0fa9eb52a936eb4de01186ad9afaca671cc70e0a360001b611e3d565b6112957f2c9cd601221fb5c7bcaefb905b73a1218130ca3900418794c9881518692c045660001b611e3d565b600194505050505061132c565b6112ce7ffd1df36d1cf44ba184ac34b514323cee4d36cd228c7b240a535850f146b6497a60001b611e3d565b6112fa7f51fc4926e5eee19ab322e4efcc4337a02246f639e9db03cb07664076b67dedc660001b611e3d565b6113267f7352f41c887eed9388783807c540ba9aca634ea5bbbcc7f4903ef60c561154f560001b611e3d565b60009150505b92915050565b60006113607f015c48a93eea2d84cd0c0391b82b1e79c514e967907bb70a927dee4f5765d4a860001b611e3d565b61138c7f5d99c20ccfaeea6b9686d478c483563f8c4db9d9784d55afeef112d1f6e0cc5c60001b611e3d565b6113b87f71bf9de86a8b94a8b2a7f079b562c122c38f2943ac19ddb3e3f2dcf23c0857f160001b611e3d565b60008460020160008573ffffffffffffffffffffffffffffffffffffffff1673ffffffffffffffffffffffffffffffffffffffff16815260200190815260200160002054905061142a7f316dbe9e548c832ba4e31856a1fe1e7b52400423434d4f069548fc99a7f198b360001b611e3d565b6114567f100c8a0fe875fcf57b94c396a663bfcd7661f7dfa9a6237bd2b08dba51297ad760001b611e3d565b60008114156117405761148b7f835dc0a0d68904b5b1301e6dbcb4060fc03fb4fff19ab4282b928fdb5cc2666460001b611e3d565b6114b77fa54e80b26d6e68a0177bb8400fb10938cbdbc456d3c084db72bfb4cf39e660dd60001b611e3d565b6114e37f58946955b5a7b190f93083f82fb7e35f95995a6d321224e05c6d948fc1bbbb6160001b611e3d565b6000856000015490506115187fd58a596d25b20be139588ea88a86b6fc2c9438de5d164dfb5d2c9d6b9ff98b9260001b611e3d565b6115447f4deadc4f905986ef7ab32e1e65c8f8efc486108f84e746ffc90ca2a34c8fe51860001b611e3d565b60405180604001604052808673ffffffffffffffffffffffffffffffffffffffff1681526020018581525086600101600083815260200190815260200160002060008201518160000160006101000a81548173ffffffffffffffffffffffffffffffffffffffff021916908373ffffffffffffffffffffffffffffffffffffffff160217905550602082015181600101559050506116047f83fe3d8f0215c8686cf5dbb317ad9b06d8caf3b629e04f1ca4d4c1e71d7888ba60001b611e3d565b6116307ff17e15f7b064a20f3fbfe6564b7d4e86df77779b44ddb35f0e7385b39c7ebdde60001b611e3d565b6001810186600001819055506116687f955a275eea724f1c3ca236c074e535c8516d65cc2f9d6f4edafd6c4d28bdd0fd60001b611e3d565b6116947f45d9d57ee85ea2759626578e29c3fbe67fe718183f837fff3c88016fd4a2bc6260001b611e3d565b600181018660020160008773ffffffffffffffffffffffffffffffffffffffff1673ffffffffffffffffffffffffffffffffffffffff168152602001908152602001600020819055506117097ff453bcf9ff4f1f691a119be9a700f954875c9aed0e01d64365c12f5f3c6ab84d60001b611e3d565b6117357f2fa513deb589e4682b1a88843016dbf87942b414d065d130c615a7f746c81da860001b611e3d565b600192505050611842565b61176c7f6f06ceb3ca62e3886ec9c441396bb6212e58d152c369d481ebd17b290f2db58060001b611e3d565b6117987fe11b6ef812feca47626c8a71c8064785313bf11a3226cf242a6dc486c62601bb60001b611e3d565b6117c47f265af78f1d99df79ed403b65ca3f2b0f2f4a2ef41506d5e946bb260e97b618cb60001b611e3d565b82856001016000600184038152602001908152602001600020600101819055506118107f9a816cc8c80103e247c62379cf704d83ed0f7ff33bc02049f1375e68f6a4772960001b611e3d565b61183c7f2feac2cf4de9f7eb8db68fe9985e5e5e0f473ed48e9be8d379d5573cb38ea49c60001b611e3d565b60009150505b9392505050565b6118757fb4e3b4a5bad8dff05a4191bf6a48a1cee6b992b2de55cb2bd08e701cbaacded960001b611e3d565b6118a17f646bdf6b9df33ba8f07310531b0a9df0dda2eea6985cd776088eaebebbe8bf0360001b611e3d565b6118cd7f2f7f937426a506d8542790ff0a21e17d2d3dce7453caeac3c438443cdf99099560001b611e3d565b8083600101600084815260200190815260200160002060010181905550505050565b600061191d7f770afac62213a68ada223fa3e8021d553537f453a234a2f11b380150cb6936fe60001b611e3d565b6119497f8161ed1e5408c5a5079da398f9740e3de5118d875b43cc33aa698120e26c381260001b611e3d565b6119757f9731c2c52212ba1efdadf35904db5d078ed76e7810a4663091226e15ad85307060001b611e3d565b60008360020160008473ffffffffffffffffffffffffffffffffffffffff1673ffffffffffffffffffffffffffffffffffffffff168152602001908152602001600020541415905092915050565b60006119f17fd158eecf4b7ed44aed8730ef630c1fd539ff9d19036a90ca7c5eb58d19f8585060001b611e3d565b611a1d7f4f89e7673647955e1d8c2ec1161bbdb8e13b46578cefc8e512aa1a8549f9798860001b611e3d565b611a497f1d340fe86699090631f9306f5169ea3e2c077ce71d8c893f7c391040167c9a4960001b611e3d565b82600101600083815260200190815260200160002060010154905092915050565b6000611a987f3bdf948d59c6f48cffdc657425c1f085eef35e68095e819756a4ae2dfc808f3460001b611e3d565b611ac47fb4cd1457b98845d082286cb2dea8768fa98865c6fd8aff5236a4ff0d98ef7b0960001b611e3d565b611af07f49523b34018e3e493ca645d113efdbc5ba899443de977287885ae7bc813ef29a60001b611e3d565b60008460020160008573ffffffffffffffffffffffffffffffffffffffff1673ffffffffffffffffffffffffffffffffffffffff168152602001908152602001600020549050611b627f107aa543b697be671af117f271438937c177c50596678c5d238f4a60abd6e29660001b611e3d565b611b8e7fc43e853366b97eadad5d73f43397abc3d16db1819c4fe2130ee96add893890cc60001b611e3d565b611b9b6000821184611e40565b611bc77f47126b1d5b082f0d36b6576ecfcb1a27679c5d89c5c7351ea2926ad74d38c81560001b611e3d565b611bf37f0cddb3b2844dd32dd90c7b3a148f47da70ac8c67e5f433cdb86f13d4b0eddd3b60001b611e3d565b611c0085600183036119c3565b9150509392505050565b600080611c397f50275b4ed6c64aee5caebc6e936440d9365c8b573e46180d749156a6a79fa01260001b611e3d565b611c657facaad2e6d5dbfb6b156285bf17389107e4f89f31b9ec584f90db65b01026bd5260001b611e3d565b611c917fa3a29155ab336da0a6b15a5967dcecc1d8e07fc4621dc99982db873f2cd9da7060001b611e3d565b60008460010160008581526020019081526020016000209050611cd67fb8c262ce0f806dd11dc80a0f705fa1dfc80da219ba10deec7ef8b22e7ae6c18660001b611e3d565b611d027f1f46e87fa0c25e6c659c11ecc6001e6207783becddafe2031d6438fc3a71167460001b611e3d565b8060000160009054906101000a900473ffffffffffffffffffffffffffffffffffffffff16816001015492509250509250929050565b600080611d677ff99754a3c429bcb7a16a2c6d4ea38899c1e5e12683180ec51325ee0a4eb2c29560001b611e3d565b611d937f6cd8b47cd4b148220cd8dad23291ceb615c5bb9ff1a503c3b812f59e4b020abf60001b611e3d565b611dbf7f011e185b1ce4406793b08af63cf20da59fccb387232315d53337dfcf39d3f73860001b611e3d565b611dd0838560000154116064611e40565b611dfc7fcb7c0747dabb985e57e05bf61dae7c990a31d3fa24b7a9e34dbd685a223d86e160001b611e3d565b611e287f08067f40efb6a885779a83fa90cde225b25d42d1fb2f04d397ca959d8f299a3360001b611e3d565b611e328484611c0a565b915091509250929050565b50565b81611e4f57611e4e81611e53565b5b5050565b6030600a820601600a820491506030600a830601600a830492506030600a8406018060101b8260081b8401016642414c230000000160c81b7f08c379a000000000000000000000000000000000000000000000000000000000600052602060045260076024528060445260646000fdfea264697066735822122031ae3b65046d1a90d336f78b9ec1e2838680b8ec170a1325a435baeb43c1702764736f6c63430007010033",
  "linkReferences": {},
  "deployedLinkReferences": {}
}