{
  "_format": "hh-sol-artifact-1",
  "contractName": "EnumerableIERC20ToBytes32MapMock",
  "sourceName": "contracts/balancer-core-v2/test/lib/EnumerableMapMock.sol",
  "abi": [
    {
      "anonymous": false,
      "inputs": [
        {
          "indexed": false,
          "internalType": "bool",
          "name": "result",
          "type": "bool"
        }
      ],
      "name": "OperationResult",
      "type": "event"
    },
    {
      "inputs": [
        {
          "internalType": "uint256",
          "name": "index",
          "type": "uint256"
        }
      ],
      "name": "at",
      "outputs": [
        {
          "internalType": "contract IERC20",
          "name": "key",
          "type": "address"
        },
        {
          "internalType": "bytes32",
          "name": "value",
          "type": "bytes32"
        }
      ],
      "stateMutability": "view",
      "type": "function"
    },
    {
      "inputs": [
        {
          "internalType": "bytes32",
          "name": "c__0x62f8fc69",
          "type": "bytes32"
        }
      ],
      "name": "c_0x62f8fc69",
      "outputs": [],
      "stateMutability": "pure",
      "type": "function"
    },
    {
      "inputs": [
        {
          "internalType": "contract IERC20",
          "name": "key",
          "type": "address"
        }
      ],
      "name": "contains",
      "outputs": [
        {
          "internalType": "bool",
          "name": "",
          "type": "bool"
        }
      ],
      "stateMutability": "view",
      "type": "function"
    },
    {
      "inputs": [
        {
          "internalType": "contract IERC20",
          "name": "key",
          "type": "address"
        },
        {
          "internalType": "uint256",
          "name": "errorCode",
          "type": "uint256"
        }
      ],
      "name": "get",
      "outputs": [
        {
          "internalType": "bytes32",
          "name": "",
          "type": "bytes32"
        }
      ],
      "stateMutability": "view",
      "type": "function"
    },
    {
      "inputs": [],
      "name": "length",
      "outputs": [
        {
          "internalType": "uint256",
          "name": "",
          "type": "uint256"
        }
      ],
      "stateMutability": "view",
      "type": "function"
    },
    {
      "inputs": [
        {
          "internalType": "contract IERC20",
          "name": "key",
          "type": "address"
        }
      ],
      "name": "remove",
      "outputs": [],
      "stateMutability": "nonpayable",
      "type": "function"
    },
    {
      "inputs": [
        {
          "internalType": "contract IERC20",
          "name": "key",
          "type": "address"
        },
        {
          "internalType": "bytes32",
          "name": "value",
          "type": "bytes32"
        }
      ],
      "name": "set",
      "outputs": [],
      "stateMutability": "nonpayable",
      "type": "function"
    },
    {
      "inputs": [
        {
          "internalType": "uint256",
          "name": "index",
          "type": "uint256"
        }
      ],
      "name": "unchecked_at",
      "outputs": [
        {
          "internalType": "contract IERC20",
          "name": "key",
          "type": "address"
        },
        {
          "internalType": "bytes32",
          "name": "value",
          "type": "bytes32"
        }
      ],
      "stateMutability": "view",
      "type": "function"
    },
    {
      "inputs": [
        {
          "internalType": "contract IERC20",
          "name": "key",
          "type": "address"
        }
      ],
      "name": "unchecked_indexOf",
      "outputs": [
        {
          "internalType": "uint256",
          "name": "",
          "type": "uint256"
        }
      ],
      "stateMutability": "view",
      "type": "function"
    },
    {
      "inputs": [
        {
          "internalType": "uint256",
          "name": "index",
          "type": "uint256"
        },
        {
          "internalType": "bytes32",
          "name": "value",
          "type": "bytes32"
        }
      ],
      "name": "unchecked_setAt",
      "outputs": [],
      "stateMutability": "nonpayable",
      "type": "function"
    },
    {
      "inputs": [
        {
          "internalType": "uint256",
          "name": "index",
          "type": "uint256"
        }
      ],
      "name": "unchecked_valueAt",
      "outputs": [
        {
          "internalType": "bytes32",
          "name": "value",
          "type": "bytes32"
        }
      ],
      "stateMutability": "view",
      "type": "function"
    }
  ],
  "bytecode": "0x608060405234801561001057600080fd5b50611ef9806100206000396000f3fe608060405234801561001057600080fd5b50600436106100c95760003560e01c80635dbe47e811610081578063b464631b1161005b578063b464631b146102d8578063c65d26831461033a578063e0886f9014610399576100c9565b80635dbe47e81461020e5780637518b46214610268578063adcd29d914610296576100c9565b806329092d0e116100b257806329092d0e146101445780633e7b8e711461018857806354996d5d146101d6576100c9565b80630127190b146100ce5780631f7b6d3214610126575b600080fd5b610110600480360360208110156100e457600080fd5b81019080803573ffffffffffffffffffffffffffffffffffffffff1690602001909291905050506103f8565b6040518082815260200191505060405180910390f35b61012e610499565b6040518082815260200191505060405180910390f35b6101866004803603602081101561015a57600080fd5b81019080803573ffffffffffffffffffffffffffffffffffffffff16906020019092919050505061052e565b005b6101d46004803603604081101561019e57600080fd5b81019080803573ffffffffffffffffffffffffffffffffffffffff1690602001909291908035906020019092919050505061065f565b005b61020c600480360360408110156101ec57600080fd5b810190808035906020019092919080359060200190929190505050610793565b005b6102506004803603602081101561022457600080fd5b81019080803573ffffffffffffffffffffffffffffffffffffffff169060200190929190505050610831565b60405180821515815260200191505060405180910390f35b6102946004803603602081101561027e57600080fd5b81019080803590602001909291905050506108d2565b005b6102c2600480360360208110156102ac57600080fd5b81019080803590602001909291905050506108d5565b6040518082815260200191505060405180910390f35b610324600480360360408110156102ee57600080fd5b81019080803573ffffffffffffffffffffffffffffffffffffffff16906020019092919080359060200190929190505050610976565b6040518082815260200191505060405180910390f35b6103666004803603602081101561035057600080fd5b8101908080359060200190929190505050610a1a565b604051808373ffffffffffffffffffffffffffffffffffffffff1681526020018281526020019250505060405180910390f35b6103c5600480360360208110156103af57600080fd5b8101908080359060200190929190505050610abe565b604051808373ffffffffffffffffffffffffffffffffffffffff1681526020018281526020019250505060405180910390f35b60006104267ff80821dee6fb29ebbcbbc5f3eb97ae16726345f41cd65130ff2a4bff4e2aacd460001b6108d2565b6104527fa4cb0be2a6b5913432ace1e7acc38a8b37e2d308d5696958b91f47af9a91743160001b6108d2565b61047e7fee376d82756d9322415eaa95e8bb33d1110faa5831c264fd52c5b9187fbc0a4d60001b6108d2565b610492826000610b6290919063ffffffff16565b9050919050565b60006104c77f5060877bde5705e7357901451445491844b9386168bdf4d7485f8050050b2ac360001b6108d2565b6104f37f30a384e1d1ac58795087d03fa51def0e3e4bcbaaee2d8b3d6be86539b847ab3360001b6108d2565b61051f7f474c28d3cd337e889470c6037fc83f7c026c1cf9f2d4b5b199453ce7abe01b1e60001b6108d2565b6105296000610c32565b905090565b61055a7f095d5a68c1e3bdd0f7896a200fd9115a0e2ed0af8c5bc5a34d3f113239728d8c60001b6108d2565b6105867f948c1a2c91a8a323058c421db8c28661b1176cf754d82bb7b8e994a7a6f55ff160001b6108d2565b6105b27f0d47d2a95f77540121f4ff689b7ae08c9ad8935533f733cb53768a4dd5a5ae5560001b6108d2565b60006105c8826000610cc490919063ffffffff16565b90506105f67f571470e1e44a8c46eff5ada78dc5f654d47ad6c494517fa24d265e4145cd25fa60001b6108d2565b6106227fd2da500f7bf985f862ef3bda46e2c3304d1fe222e61d2f72c351cabf03425bc560001b6108d2565b7fed9840e0775590557ad736875d96c95cf1458b766335f74339951a32c82a9e338160405180821515815260200191505060405180910390a15050565b61068b7fb771df1f4141f7f9be2a01bdc7339a792fdd68f457879b93cbf0b67777cfd6c660001b6108d2565b6106b77fa192b758ff6f59473a2392e7af6e88cb8109efb1ba8a99a222258d9496b9434960001b6108d2565b6106e37feab9f3840cb01d7cc98e5ad238b61cc27df35754bd7efbd231b6af8a55b58a5160001b6108d2565b60006106fb838360006113329092919063ffffffff16565b90506107297f73f51b3b0edd357746a3d8a9ee5db8cb3c9a209281bfd9983e1ae67df8ca1d2a60001b6108d2565b6107557f536590db821f4fb1e516b05451b8dea8ce65dbb390ba997e2a7528e39a051e0b60001b6108d2565b7fed9840e0775590557ad736875d96c95cf1458b766335f74339951a32c82a9e338160405180821515815260200191505060405180910390a1505050565b6107bf7f3b2aaf9f42e0096b93be70e90d9c0969695357a3f904e983cbf0f23afd05d4f560001b6108d2565b6107eb7f69cf0ea25d565f53b576c5010c6675ee03398197e00e3c56ee761139f9875cd960001b6108d2565b6108177f9338fbe8929ba879f27b24524a85fe65ee1e1eb16e196235f77328d722af2ce860001b6108d2565b61082d828260006118499092919063ffffffff16565b5050565b600061085f7feb111605322c36053f964f110e54aaae484ea85850483d2753105540c21cadcf60001b6108d2565b61088b7fedca025b5e29e31328428a99b6e1c3fe19867a7791ca8748afea35c8991364d560001b6108d2565b6108b77fef72b90a4aafb1a50cad1f089485422a1d2046e3adea69cc8e6e4dac85c6f84a60001b6108d2565b6108cb8260006118ef90919063ffffffff16565b9050919050565b50565b60006109037f8c352bb78b9f57f79dd3d380e6a775f1c0ddc380e9a9d5d25fc43379ac963ebc60001b6108d2565b61092f7f8aad686940bb0553e6f0f33150fb868f9189b1f68270474b37a5f300cbd8dde660001b6108d2565b61095b7f3529f950d9e7f50eee206fbd2a6f26cbd1cc613f766303f9ec41f2bf089016e560001b6108d2565b61096f8260006119c390919063ffffffff16565b9050919050565b60006109a47f8334c683c6eba2104c7be9f7ff686e8ad27004e33c23f891444a6e93d0765ea960001b6108d2565b6109d07f4d338ce05cef75163c0bc20c6bc2d9d2783305e5b64f46a9d737891fec94e6b060001b6108d2565b6109fc7fe4889983ef247bbafa48197499425cb9a419f7b5f8d048625fa4bf0437329c5f60001b6108d2565b610a1283836000611a6a9092919063ffffffff16565b905092915050565b600080610a497f74cbb81b09ec69310690d0a6d3ba725678b0c21004322acd5ef58bb9db44d0eb60001b6108d2565b610a757f25c08023d1b39fa63a5cdde5d377190a649f63ca6f2d165fe45b7691add6d53560001b6108d2565b610aa17f9163e86f8d1f762bea05540d347cbdf4d2202d83ada5a6a839d9aed225f6123060001b6108d2565b610ab5836000611c0a90919063ffffffff16565b91509150915091565b600080610aed7fa5a578877767bdf80e981b159d3853f0dd4cf6d2ae338f3e7c44dc88cad8c07260001b6108d2565b610b197f23d2960114a61afc2213dd3fec83b968718a7cf2d4fd6ec166b21e441a52a6e860001b6108d2565b610b457f8f12d9775526e8867d7d18d844e2997a8fda8c44d6bd79f824788eed9e6fd18860001b6108d2565b610b59836000611d3890919063ffffffff16565b91509150915091565b6000610b907f4f6d12dce8e7417c1f07f726e835822452e087024565c29ed8dfc2eb0576760c60001b611e3d565b610bbc7f8d0ed9215f1b10ac571ce9f7624ed1d962c612ae177f06433908b1ce2a5a09f360001b611e3d565b610be87fa9203d84ea773e88aa8ebe23846651c96fab6e9a0701efc6c15414829fec1cb160001b611e3d565b8260020160008373ffffffffffffffffffffffffffffffffffffffff1673ffffffffffffffffffffffffffffffffffffffff16815260200190815260200160002054905092915050565b6000610c607f8b2215b420c7fc3e2d30dfba37a3c5e546c92ba7f736a8281741e034e83f48a060001b611e3d565b610c8c7f8881dbfe653bdbf2c29acdb761ed368bb03d199f65c9e103808420457b46052760001b611e3d565b610cb87f15cb7cc2ecc5b0b1a49cf6429f77f1fb32544f61f3c70ff97621a40e8edce0ba60001b611e3d565b81600001549050919050565b6000610cf27f7a8d56f96ccb292e3ed83dc1de876c1aaf2104db5c1099e709568a52b88a622960001b611e3d565b610d1e7fa1f8a5b9aa230f7a92b1cde94c83369f8f5dd585a06934fcea4516ce7fa283d660001b611e3d565b610d4a7f524f2cf00814fee556bb8036276e89fc0ff981c31ccde2fd6d36ff18523ddeaf60001b611e3d565b60008360020160008473ffffffffffffffffffffffffffffffffffffffff1673ffffffffffffffffffffffffffffffffffffffff168152602001908152602001600020549050610dbc7f37f1b9d9b2f51ea9a41514c2cf366d28ed7c8e0d7747e178d24d35cf60a08d2460001b611e3d565b610de87f2ecfcd1197eed60049bcc3f60ae32417e90f496d799b53ad7b9026435aaba08260001b611e3d565b600081146112a257610e1c7ff55594837ee344c2ef7e944d5c0131f2b889c8d1147cef6e56584e09bddadb8560001b611e3d565b610e487ff0b19e0ef95d61df8469966ae47f3d83e2d4ea1d0b2e38a0c0e086516fe97f8460001b611e3d565b610e747f9eb4b2d509151165268b639c5efa07b16d1b5c5b2204c4a82378860009344d8160001b611e3d565b6000600182039050610ea87f46bce7f526191325c3c89e3d2b0f1aca382056a28b470cbb48292897b5f5541360001b611e3d565b610ed47f95c36ec6c13195cfca3865ed74ddfa2e051c22459e19493dc4675eb96e6ecb3060001b611e3d565b600060018660000154039050610f0c7f112fa47574960a828fb6cfca30346b0f176298c5a03e77b39191419d2123001960001b611e3d565b610f387fec237127e2c602a279bd96bec738db9b39bced938b4c89eb4abafcf65415f23660001b611e3d565b60008660010160008381526020019081526020016000209050610f7d7fca45ccf563ce63d60ab2d3aadb5a34e49ed724ff852fd8eb231fad67878837d660001b611e3d565b610fa97f8143ffcf22f84e89c4f6e4bbf7b7fb2a3ffe813c768f7c283790bb09703b2d2e60001b611e3d565b808760010160008581526020019081526020016000206000820160009054906101000a900473ffffffffffffffffffffffffffffffffffffffff168160000160006101000a81548173ffffffffffffffffffffffffffffffffffffffff021916908373ffffffffffffffffffffffffffffffffffffffff1602179055506001820154816001015590505061105f7fe0c2e84b0b9a63bc4677a66d3b228740b2635dd6bed7e518d6889d1d872da85c60001b611e3d565b61108b7f93b74957b323770b0021e6a0df6d9639a9ddebf2b69963c934b3727f7884073b60001b611e3d565b600183018760020160008360000160009054906101000a900473ffffffffffffffffffffffffffffffffffffffff1673ffffffffffffffffffffffffffffffffffffffff1673ffffffffffffffffffffffffffffffffffffffff168152602001908152602001600020819055506111247fb4dabad7b4684988aea9970b09f00b7bee56bae01aebf14098c1ba07af70ea6b60001b611e3d565b866001016000838152602001908152602001600020600080820160006101000a81549073ffffffffffffffffffffffffffffffffffffffff0219169055600182016000905550506111977fac004b5c074e95c12dcec38b9bcba900f2d08bcd600fb69c8bb40e751f35849b60001b611e3d565b6111c37f4d48de15b5af3af53efc040608898c4a4f99076b49e85b3c7a3692f96564273360001b611e3d565b8187600001819055506111f87fd6f493ad4e26134053807232086713641838aacdd153a430ef135133e59c368360001b611e3d565b8660020160008773ffffffffffffffffffffffffffffffffffffffff1673ffffffffffffffffffffffffffffffffffffffff168152602001908152602001600020600090556112697f8a8fe87c4c5bb3796580a159ce1af950a4e42d65b0673c0d01f6ec13621a461c60001b611e3d565b6112957f5c40212d16ef61ab8e90e5998fc7a4e7e59efdacd2a7af9120e4785e1168f13060001b611e3d565b600194505050505061132c565b6112ce7fc36ad6b264f65c9ad75528f9247a15c57114123c5cc719071abe22b0afdd6dbe60001b611e3d565b6112fa7f53f5dc20b18911e7d7c52c4d905f57f6d64dc67729fa42277320d49603874d2760001b611e3d565b6113267f3bae08a3362e08b05403d22a1700ba1db689d97b992fa8c3f45fda64eb2b1b9c60001b611e3d565b60009150505b92915050565b60006113607fc7b658fb428519953efcc7512d8590ca6cdda22178687d9bd519f83ef70497f760001b611e3d565b61138c7f1d2c1b6805f03723453520513f4d3984b605fee239ac0d7a4d497415cf4113e460001b611e3d565b6113b87f8be6b280ac557e623ab29624756ecf910d4ae8c76fb07158ed00d5ad4b2f37ce60001b611e3d565b60008460020160008573ffffffffffffffffffffffffffffffffffffffff1673ffffffffffffffffffffffffffffffffffffffff16815260200190815260200160002054905061142a7fb76e585a3611bb4f81690330b504f1c0714b785c42317267dd463bb0149f165660001b611e3d565b6114567f7b2937cd0e077b0f5fe0f0835e8688519dff7172054d99e651604f6e3b7e303c60001b611e3d565b60008114156117405761148b7f889fbdcb10c2d7893abcd10d071f4ca30fee1708a3b3f65f6784fc797fdf9aa760001b611e3d565b6114b77f8696144af5b05e04a2a5723b31dbc78d002e3aa8cf31b5757d56be8ce8efff2d60001b611e3d565b6114e37f33f6dbf4c73146bccdab1ad1fd0f23b60c0292deec108403116e5d7a6f743c4660001b611e3d565b6000856000015490506115187fe01771be2f33739fceed07ac063deaa40b947119fbc43eca8ac89deabb5f7c1960001b611e3d565b6115447f7b7a55b2ac1a73cc0b155b888076248aad5e0559a065d0dc5958a90cd1c8599d60001b611e3d565b60405180604001604052808673ffffffffffffffffffffffffffffffffffffffff1681526020018581525086600101600083815260200190815260200160002060008201518160000160006101000a81548173ffffffffffffffffffffffffffffffffffffffff021916908373ffffffffffffffffffffffffffffffffffffffff160217905550602082015181600101559050506116047f30bf9f240b5de066216459f1ff7ff2ada40267aa52a4ed3ae1db14060cd992e860001b611e3d565b6116307f89f9ba6aac380346aca0fd9ccba2bc01b642974879172865df5e387c53e4e34160001b611e3d565b6001810186600001819055506116687fb3d83d1eb0f274a3305556dd91efa663dc1a2c9f09886feac21d8eda2fd8232f60001b611e3d565b6116947f268df000a42f9efbc438810d99c1882b8a34d3f67e7e02f403772cb05d3fc60360001b611e3d565b600181018660020160008773ffffffffffffffffffffffffffffffffffffffff1673ffffffffffffffffffffffffffffffffffffffff168152602001908152602001600020819055506117097ff4f0de4841a1862817722635536f21f641f28fc89523410c1fe10dc34f33633d60001b611e3d565b6117357f6d0735b96f23ac5c18ed2e2fc50e2eed1349797f3ae6743087ae94072571ccb660001b611e3d565b600192505050611842565b61176c7f41d00078e0f34f4dc6c96a6c492836974872392470bbb8f4e6a43c43b2f585bb60001b611e3d565b6117987f3d3515b3eb3bd0b9a41f3a6a9ddd0cd295322fd7397b481501dec52dc1cd33ca60001b611e3d565b6117c47fe6d7e21775e784a1de921e69168e595bcec9f19dfe0429e7977877d67db0ebc660001b611e3d565b82856001016000600184038152602001908152602001600020600101819055506118107f06eb8814792145f9b92e0319502568bded914df69c816b09fff6ed0770ba4bb060001b611e3d565b61183c7f32937720dfa1783bc60308e8278fc7a1efdfead7fbb43d02738e9128264edbf260001b611e3d565b60009150505b9392505050565b6118757fb5497f5c5fe1c6da3c18d064da5e8176cc936b02bf39f047cb0b4d33b9dc519c60001b611e3d565b6118a17f35a4644b542727793457d4220acc248c0e5dea39df2792e91e43042f57935fd360001b611e3d565b6118cd7f9ba5ca721db9ddc09f6aa573192b21326652991e8abe24507530a5acc242a5e660001b611e3d565b8083600101600084815260200190815260200160002060010181905550505050565b600061191d7fb3e0d3beaa65504071633a5bfc0b2cb6daa526bf695255bea8d5a89ed64580ec60001b611e3d565b6119497f9ee5b79a319499c96c2ddf05f975faa34bc543ce1581ff233cbc3516eeaa0e8a60001b611e3d565b6119757f945b2ab0b79b15202d057bea8a9e135225d552ce453bca785608303e97d139b860001b611e3d565b60008360020160008473ffffffffffffffffffffffffffffffffffffffff1673ffffffffffffffffffffffffffffffffffffffff168152602001908152602001600020541415905092915050565b60006119f17f4e29813bebb491bb16c7ea5536444e45b0168f1640ef19f1cf345286b901899360001b611e3d565b611a1d7f8a2f2ef78bc48e4f9fc068bdf13b968f38edfcea701657cd0db43b87c46500fb60001b611e3d565b611a497f18fd591b122d0d7edd09e64cf16df89041015df4a61d9a69f561cbcb27f8e6d260001b611e3d565b82600101600083815260200190815260200160002060010154905092915050565b6000611a987f0e297082ad0bde629089c5338a00eb1da38f64d7bb527caec1c16e0b76b5363960001b611e3d565b611ac47f5fa5bb3d83b78a68a4135ca277c7c2f88a073fa983815e1309bc55d3f2cc20ff60001b611e3d565b611af07fb79143b1ee41c5a4cf5dbc7e4edee187608d47dbe678b9d18a7a70fbf932674060001b611e3d565b60008460020160008573ffffffffffffffffffffffffffffffffffffffff1673ffffffffffffffffffffffffffffffffffffffff168152602001908152602001600020549050611b627f6f1655474c32935c81d1bb5b6b2386c6cf3e93bd19d6ddfe224fb1bea2e41f3160001b611e3d565b611b8e7f01ac4b145e4594c338cdf7ae2e311c52b92c5bdef5353e6d918e1dc59cc5e57260001b611e3d565b611b9b6000821184611e40565b611bc77f7057da9580ed9912190d781c1097990334558f94b5fe37e312e572c06baf1d3f60001b611e3d565b611bf37fdae0f1754b885ff82992f12273327122aa8c5d98294266a42921f071add316bc60001b611e3d565b611c0085600183036119c3565b9150509392505050565b600080611c397f405f177c15ba412be42813cb44a9effcbac96ac333f4e16ceac024d75cf0caed60001b611e3d565b611c657f3c892de420d1d46770af7a2daa19066a2d5a7692d7255c49286d4e88f4442d8d60001b611e3d565b611c917f058e301da126454d7f6016ea921dfbc31b300dcc6fe375f37366ff0c4a67bf7360001b611e3d565b60008460010160008581526020019081526020016000209050611cd67f165a65b789c3070e547ed40d06f51b55e022a1a96773237b88c165efd2f8048960001b611e3d565b611d027fa2c8eeb33e824866edcd0fa06ec32013af4005a02a9a692c41947a8c32ee044160001b611e3d565b8060000160009054906101000a900473ffffffffffffffffffffffffffffffffffffffff16816001015492509250509250929050565b600080611d677f51b1288aba2d38d88bf83d725d67612224cb640405051b1c91a071b75a394eb560001b611e3d565b611d937f0b37e5d85fad7e02c25c9a3a69f53d7a2a14b4211d5466b7c618f8d8798f026560001b611e3d565b611dbf7fff3560d6c5807cb18a8e569c0ffbd2f5b1192d1653445c28bffa6b76ddf3736b60001b611e3d565b611dd0838560000154116064611e40565b611dfc7f2d534408b62b869cec0ecab9bf9568d45ab39284974cb32bf1b6998d38f1c7f560001b611e3d565b611e287fc6fccd3b184691582dba8a2df9d36cc16b986ff4099639e7ea16e826e9b207cf60001b611e3d565b611e328484611c0a565b915091509250929050565b50565b81611e4f57611e4e81611e53565b5b5050565b6030600a820601600a820491506030600a830601600a830492506030600a8406018060101b8260081b8401016642414c230000000160c81b7f08c379a000000000000000000000000000000000000000000000000000000000600052602060045260076024528060445260646000fdfea2646970667358221220144cc5715e2378a100995f9e464a71a48e67570a4d2b52ab65c2d0ec2f86c9cb64736f6c63430007010033",
  "linkReferences": {},
  "deployedLinkReferences": {}
}