{
  "_format": "hh-sol-artifact-1",
  "contractName": "Multicall",
  "sourceName": "contracts/balancer-core-v2/test/Multicall.sol",
  "abi": [
    {
      "inputs": [
        {
          "components": [
            {
              "internalType": "address",
              "name": "target",
              "type": "address"
            },
            {
              "internalType": "bytes",
              "name": "callData",
              "type": "bytes"
            }
          ],
          "internalType": "struct Multicall.Call[]",
          "name": "calls",
          "type": "tuple[]"
        }
      ],
      "name": "aggregate",
      "outputs": [
        {
          "internalType": "uint256",
          "name": "blockNumber",
          "type": "uint256"
        },
        {
          "internalType": "bytes[]",
          "name": "returnData",
          "type": "bytes[]"
        }
      ],
      "stateMutability": "nonpayable",
      "type": "function"
    },
    {
      "inputs": [
        {
          "internalType": "bytes32",
          "name": "c__0x674f84e7",
          "type": "bytes32"
        }
      ],
      "name": "c_0x674f84e7",
      "outputs": [],
      "stateMutability": "pure",
      "type": "function"
    },
    {
      "inputs": [
        {
          "internalType": "uint256",
          "name": "blockNumber",
          "type": "uint256"
        }
      ],
      "name": "getBlockHash",
      "outputs": [
        {
          "internalType": "bytes32",
          "name": "blockHash",
          "type": "bytes32"
        }
      ],
      "stateMutability": "view",
      "type": "function"
    },
    {
      "inputs": [],
      "name": "getCurrentBlockCoinbase",
      "outputs": [
        {
          "internalType": "address",
          "name": "coinbase",
          "type": "address"
        }
      ],
      "stateMutability": "view",
      "type": "function"
    },
    {
      "inputs": [],
      "name": "getCurrentBlockDifficulty",
      "outputs": [
        {
          "internalType": "uint256",
          "name": "difficulty",
          "type": "uint256"
        }
      ],
      "stateMutability": "view",
      "type": "function"
    },
    {
      "inputs": [],
      "name": "getCurrentBlockGasLimit",
      "outputs": [
        {
          "internalType": "uint256",
          "name": "gaslimit",
          "type": "uint256"
        }
      ],
      "stateMutability": "view",
      "type": "function"
    },
    {
      "inputs": [],
      "name": "getCurrentBlockTimestamp",
      "outputs": [
        {
          "internalType": "uint256",
          "name": "timestamp",
          "type": "uint256"
        }
      ],
      "stateMutability": "view",
      "type": "function"
    },
    {
      "inputs": [
        {
          "internalType": "address",
          "name": "addr",
          "type": "address"
        }
      ],
      "name": "getEthBalance",
      "outputs": [
        {
          "internalType": "uint256",
          "name": "balance",
          "type": "uint256"
        }
      ],
      "stateMutability": "view",
      "type": "function"
    },
    {
      "inputs": [],
      "name": "getLastBlockHash",
      "outputs": [
        {
          "internalType": "bytes32",
          "name": "blockHash",
          "type": "bytes32"
        }
      ],
      "stateMutability": "view",
      "type": "function"
    }
  ],
  "bytecode": "0x608060405234801561001057600080fd5b50611028806100206000396000f3fe608060405234801561001057600080fd5b50600436106100a35760003560e01c806363c698681161007657806386d516e81161005b57806386d516e81461017f578063a8b0574e1461019d578063ee82ac5e146101bb576100a3565b806363c698681461014557806372425d9d14610161576100a3565b80630f28c97d146100a8578063252dba42146100c657806327e86d6e146100f75780634d2301cc14610115575b600080fd5b6100b06101eb565b6040516100bd9190610dd7565b60405180910390f35b6100e060048036038101906100db9190610b77565b610277565b6040516100ee929190610df2565b60405180910390f35b6100ff610678565b60405161010c9190610d9c565b60405180910390f35b61012f600480360381019061012a9190610b4e565b610708565b60405161013c9190610dd7565b60405180910390f35b61015f600480360381019061015a9190610bb8565b6107ad565b005b6101696107b0565b6040516101769190610dd7565b60405180910390f35b61018761083c565b6040516101949190610dd7565b60405180910390f35b6101a56108c8565b6040516101b29190610d81565b60405180910390f35b6101d560048036038101906101d09190610be1565b610954565b6040516101e29190610d9c565b60405180910390f35b60006102197f64e8aa16e3b4002645b9dc47bb41b456970e5202bb36969afcdb10aedf6261f460001b6107ad565b6102457f9b1a9851b000d50034e4c8c953adef36db15bdb657d8d151d6941a3167622a8860001b6107ad565b6102717fc0b12e29e57e457db9bf1e5bcad5febc432f28897f3cb71532a9bab5d01586e960001b6107ad565b42905090565b600060606102a77f0d40349236ed8c3cbc7bea0e10db657c946af9f2851b38a20377a0edeb1bcc7b60001b6107ad565b6102d37f50260e2aeed3a511a0289231fd11c164e001786fc34e131c0566f580476b583b60001b6107ad565b6102ff7f04bdb2cc287a7127351acca89a70926143c9aab2451bdd9f5362ba7aa9de497160001b6107ad565b43915061032e7f57b0fbc149e25429e15edde41351c41710cb2ba055c324bba72ce810ed546ddf60001b6107ad565b61035a7fc05a05d491285cea05ee5b7fb7b91cf6055d1d32e9ca57229470c6d72f8dcc7160001b6107ad565b825167ffffffffffffffff8111801561037257600080fd5b506040519080825280602002602001820160405280156103a657816020015b60608152602001906001900390816103915790505b5090506103d57ffc006ee71f1b6eaa955766874f4bab00750fe5fd73e5f601d994298b3adfb3aa60001b6107ad565b6104017f2a6e47575dfa9fa40065342c98034506f44c9a9e76e43fc58a0d48d280ee3e5a60001b6107ad565b60005b8351811015610672576104397f08b01acf8d5e5eb20b48dea796f46a4a0004c9a526cdf0da824c29ffb44f92ad60001b6107ad565b6104657f25529db3f63d319f6b4089a07ecede16919b8f30887eb5e6a46607b9105fa99860001b6107ad565b6000606085838151811061047557fe5b60200260200101516000015173ffffffffffffffffffffffffffffffffffffffff168684815181106104a357fe5b6020026020010151602001516040516104bc9190610d6a565b6000604051808303816000865af19150503d80600081146104f9576040519150601f19603f3d011682016040523d82523d6000602084013e6104fe565b606091505b509150915061052f7f8581149f1fb87add91e093e99ced0b8917f4842499ad257aae90bc01fc4912d160001b6107ad565b61055b7f5ab5b8b239ba2effffc13073f371e4c326f620a1f9e96fdd9ff92988c845561760001b6107ad565b6105877fe18eeb3412145ff8c0b84196c676bacdb75c637b23da8db3aaa324adecd82b0160001b6107ad565b816105c7576040517f08c379a00000000000000000000000000000000000000000000000000000000081526004016105be90610db7565b60405180910390fd5b6105f37fde43e3da20a54a31031b730e21952d188aaaa511a63b315fcd9986da246c583960001b6107ad565b61061f7f6c0c5a9daddf8ae847bd14ea11292b7a82318f03691139fa7da447b6b6e4fbe760001b6107ad565b61064b7f5fa9d60f897d108c9bfa14d6be015830d1f064e75166ab1d9e7db757d0024b9b60001b6107ad565b8084848151811061065857fe5b602002602001018190525050508080600101915050610404565b50915091565b60006106a67f56ce3ae43f595365f0a97d9358e49d67fe2cb38b43a3c4b2951050fec6b5827660001b6107ad565b6106d27fb7c2b96a33b7d6a308172d7cddbc3e6656d14e61f1db1734554bed99fc8ed9fb60001b6107ad565b6106fe7f8c61200af23040e84d5659c6619b5416e1aa51d1f6d120ab1da9a7507cf88a4f60001b6107ad565b6001430340905090565b60006107367f727ff6d5fcaaa0df0dcdc4896dcfdddf4e67b24ed3fa8702bcf4b58699699fa460001b6107ad565b6107627f4535156a5326e110fd940c98de4eb82e282f73d5cac11207df526e2acc4b211960001b6107ad565b61078e7fc669e750be560853a949ea39113e5e43f12d5b1a3fb6a5636ba8c5f95dd6ded460001b6107ad565b8173ffffffffffffffffffffffffffffffffffffffff16319050919050565b50565b60006107de7fb9e1098d4da2c8929c45583a489b3f217ad4781fba1c829f30ecf254995d2f6260001b6107ad565b61080a7f5c5d1e2ff2c2f5def3eb07b3faf1b655c1383072da5c04b042cdabf8368327bf60001b6107ad565b6108367f8c3ae629e452df32f913e5d1d4536761c5700f21727d119bd8a8cc31442c517760001b6107ad565b44905090565b600061086a7f89bb2824d70830d0a163d16c9ac56536f8392bcd1d408581dd3932fee3eee40060001b6107ad565b6108967fb5eee45579db5e067804843519267435259162dcb3bb9995aa076257a677a09f60001b6107ad565b6108c27f647ae07cdb39f5579c542ccb589203b41ef6e5cc6b8e43954d361fe2d1dae7ce60001b6107ad565b45905090565b60006108f67f305db9ff207791b7cd241a40155a70d6eb94363c2dacf9d696a63ff7818762d360001b6107ad565b6109227fe3eda52111469e6a02d9c8bd296a2e6a8f51b7d9985b6f8b2b3519e8937ef6d460001b6107ad565b61094e7f89ffe62e59ae54e3ff448e98b99587a7f7aaeb19e3fa9603b05013f58d5c4d5d60001b6107ad565b41905090565b60006109827f44da3e7531890aa923c965018f1a4ca9586f0b554d79301a6597ba63c375641360001b6107ad565b6109ae7fd5784ea40d37521ba20bc4e8c559ffef79cfd1ab802f4da2aa21ef46cf7869b560001b6107ad565b6109da7f7a9ddf8d1a4b70ec93efb161ae9119377264399ae17fa9306c07b5a2e347846460001b6107ad565b81409050919050565b6000813590506109f281610fad565b92915050565b600082601f830112610a0957600080fd5b8135610a1c610a1782610e4f565b610e22565b9150818183526020840193506020810190508360005b83811015610a625781358601610a488882610ad5565b845260208401935060208301925050600181019050610a32565b5050505092915050565b600081359050610a7b81610fc4565b92915050565b600082601f830112610a9257600080fd5b8135610aa5610aa082610e77565b610e22565b91508082526020830160208301858383011115610ac157600080fd5b610acc838284610f5a565b50505092915050565b600060408284031215610ae757600080fd5b610af16040610e22565b90506000610b01848285016109e3565b600083015250602082013567ffffffffffffffff811115610b2157600080fd5b610b2d84828501610a81565b60208301525092915050565b600081359050610b4881610fdb565b92915050565b600060208284031215610b6057600080fd5b6000610b6e848285016109e3565b91505092915050565b600060208284031215610b8957600080fd5b600082013567ffffffffffffffff811115610ba357600080fd5b610baf848285016109f8565b91505092915050565b600060208284031215610bca57600080fd5b6000610bd884828501610a6c565b91505092915050565b600060208284031215610bf357600080fd5b6000610c0184828501610b39565b91505092915050565b6000610c168383610cb1565b905092915050565b610c2781610f14565b82525050565b6000610c3882610eb3565b610c428185610ed6565b935083602082028501610c5485610ea3565b8060005b85811015610c905784840389528151610c718582610c0a565b9450610c7c83610ec9565b925060208a01995050600181019050610c58565b50829750879550505050505092915050565b610cab81610f26565b82525050565b6000610cbc82610ebe565b610cc68185610ee7565b9350610cd6818560208601610f69565b610cdf81610f9c565b840191505092915050565b6000610cf582610ebe565b610cff8185610ef8565b9350610d0f818560208601610f69565b80840191505092915050565b6000610d28600b83610f03565b91507f43414c4c5f4641494c45440000000000000000000000000000000000000000006000830152602082019050919050565b610d6481610f50565b82525050565b6000610d768284610cea565b915081905092915050565b6000602082019050610d966000830184610c1e565b92915050565b6000602082019050610db16000830184610ca2565b92915050565b60006020820190508181036000830152610dd081610d1b565b9050919050565b6000602082019050610dec6000830184610d5b565b92915050565b6000604082019050610e076000830185610d5b565b8181036020830152610e198184610c2d565b90509392505050565b6000604051905081810181811067ffffffffffffffff82111715610e4557600080fd5b8060405250919050565b600067ffffffffffffffff821115610e6657600080fd5b602082029050602081019050919050565b600067ffffffffffffffff821115610e8e57600080fd5b601f19601f8301169050602081019050919050565b6000819050602082019050919050565b600081519050919050565b600081519050919050565b6000602082019050919050565b600082825260208201905092915050565b600082825260208201905092915050565b600081905092915050565b600082825260208201905092915050565b6000610f1f82610f30565b9050919050565b6000819050919050565b600073ffffffffffffffffffffffffffffffffffffffff82169050919050565b6000819050919050565b82818337600083830152505050565b60005b83811015610f87578082015181840152602081019050610f6c565b83811115610f96576000848401525b50505050565b6000601f19601f8301169050919050565b610fb681610f14565b8114610fc157600080fd5b50565b610fcd81610f26565b8114610fd857600080fd5b50565b610fe481610f50565b8114610fef57600080fd5b5056fea2646970667358221220218bb7cba8751d9a6c66109b2c37c54fd7efaac7fc6f428feab8ca4ccd15c80064736f6c63430007010033",
  "linkReferences": {},
  "deployedLinkReferences": {}
}