{
  "_format": "hh-sol-artifact-1",
  "contractName": "Multicall",
  "sourceName": "contracts/balancer-core-v2/test/Multicall.sol",
  "abi": [
    {
      "inputs": [
        {
          "components": [
            {
              "internalType": "address",
              "name": "target",
              "type": "address"
            },
            {
              "internalType": "bytes",
              "name": "callData",
              "type": "bytes"
            }
          ],
          "internalType": "struct Multicall.Call[]",
          "name": "calls",
          "type": "tuple[]"
        }
      ],
      "name": "aggregate",
      "outputs": [
        {
          "internalType": "uint256",
          "name": "blockNumber",
          "type": "uint256"
        },
        {
          "internalType": "bytes[]",
          "name": "returnData",
          "type": "bytes[]"
        }
      ],
      "stateMutability": "nonpayable",
      "type": "function"
    },
    {
      "inputs": [
        {
          "internalType": "bytes32",
          "name": "c__0xb9779841",
          "type": "bytes32"
        }
      ],
      "name": "c_0xb9779841",
      "outputs": [],
      "stateMutability": "pure",
      "type": "function"
    },
    {
      "inputs": [
        {
          "internalType": "uint256",
          "name": "blockNumber",
          "type": "uint256"
        }
      ],
      "name": "getBlockHash",
      "outputs": [
        {
          "internalType": "bytes32",
          "name": "blockHash",
          "type": "bytes32"
        }
      ],
      "stateMutability": "view",
      "type": "function"
    },
    {
      "inputs": [],
      "name": "getCurrentBlockCoinbase",
      "outputs": [
        {
          "internalType": "address",
          "name": "coinbase",
          "type": "address"
        }
      ],
      "stateMutability": "view",
      "type": "function"
    },
    {
      "inputs": [],
      "name": "getCurrentBlockDifficulty",
      "outputs": [
        {
          "internalType": "uint256",
          "name": "difficulty",
          "type": "uint256"
        }
      ],
      "stateMutability": "view",
      "type": "function"
    },
    {
      "inputs": [],
      "name": "getCurrentBlockGasLimit",
      "outputs": [
        {
          "internalType": "uint256",
          "name": "gaslimit",
          "type": "uint256"
        }
      ],
      "stateMutability": "view",
      "type": "function"
    },
    {
      "inputs": [],
      "name": "getCurrentBlockTimestamp",
      "outputs": [
        {
          "internalType": "uint256",
          "name": "timestamp",
          "type": "uint256"
        }
      ],
      "stateMutability": "view",
      "type": "function"
    },
    {
      "inputs": [
        {
          "internalType": "address",
          "name": "addr",
          "type": "address"
        }
      ],
      "name": "getEthBalance",
      "outputs": [
        {
          "internalType": "uint256",
          "name": "balance",
          "type": "uint256"
        }
      ],
      "stateMutability": "view",
      "type": "function"
    },
    {
      "inputs": [],
      "name": "getLastBlockHash",
      "outputs": [
        {
          "internalType": "bytes32",
          "name": "blockHash",
          "type": "bytes32"
        }
      ],
      "stateMutability": "view",
      "type": "function"
    }
  ],
  "bytecode": "0x608060405234801561001057600080fd5b50611028806100206000396000f3fe608060405234801561001057600080fd5b50600436106100a35760003560e01c806372425d9d11610076578063a8b0574e1161005b578063a8b0574e14610181578063bf61f0091461019f578063ee82ac5e146101bb576100a3565b806372425d9d1461014557806386d516e814610163576100a3565b80630f28c97d146100a8578063252dba42146100c657806327e86d6e146100f75780634d2301cc14610115575b600080fd5b6100b06101eb565b6040516100bd9190610dd7565b60405180910390f35b6100e060048036038101906100db9190610b77565b610277565b6040516100ee929190610df2565b60405180910390f35b6100ff610678565b60405161010c9190610d9c565b60405180910390f35b61012f600480360381019061012a9190610b4e565b610708565b60405161013c9190610dd7565b60405180910390f35b61014d6107ad565b60405161015a9190610dd7565b60405180910390f35b61016b610839565b6040516101789190610dd7565b60405180910390f35b6101896108c5565b6040516101969190610d81565b60405180910390f35b6101b960048036038101906101b49190610bb8565b610951565b005b6101d560048036038101906101d09190610be1565b610954565b6040516101e29190610d9c565b60405180910390f35b60006102197f6cb8a39d0be94a9acf3e81dfa807ce69f836da8bdb1151a82b36e2e6a1a5f64f60001b610951565b6102457f22eb4ad4a4f761a86301b11edea5bc304f7fa1b446831fca920ae77df8b2e45660001b610951565b6102717f89b3af251eefd664d0b1010d26b6f6165f612514eb8297b07a0d84715464f60660001b610951565b42905090565b600060606102a77fe6e316fcbf9a51f6d7f0cebc64624d719215d1f7e393591101be5c4e5fd3d10a60001b610951565b6102d37feb021528b2869e78a95bfaba0f01dcdc96923f856bc81abaa7b4c087b8035a6d60001b610951565b6102ff7fa0903e8ed574bc6e764d0d05b85ae080fee85c4d597a0796a9819d8a02c5f50560001b610951565b43915061032e7f699473ce4233f64e43a798e56590a5edc95c17ab4806f50ec109e502345692ea60001b610951565b61035a7f6aa0d797e30863b6b5fe6f6c082898e6b0a44d2c2f6e4cca92ca5e694e9577ca60001b610951565b825167ffffffffffffffff8111801561037257600080fd5b506040519080825280602002602001820160405280156103a657816020015b60608152602001906001900390816103915790505b5090506103d57f2c78acce5836a80d414366422a8e9237bfafa0cf7632b22992851af9e4b8dc2660001b610951565b6104017ff59be5b92a9e0c5cd66afa24843dbf8ca9520b7ac16c98b4bb74e2ffbaa4dd3560001b610951565b60005b8351811015610672576104397f7c565ce41895a6978037981f1d928689fa350a4f92465c00f535c2db6496ab6e60001b610951565b6104657f9bd08bab99a26d7829022385bd5632a2be0edeb5992de620b90078473e6f17d060001b610951565b6000606085838151811061047557fe5b60200260200101516000015173ffffffffffffffffffffffffffffffffffffffff168684815181106104a357fe5b6020026020010151602001516040516104bc9190610d6a565b6000604051808303816000865af19150503d80600081146104f9576040519150601f19603f3d011682016040523d82523d6000602084013e6104fe565b606091505b509150915061052f7f2206c3c4a82a3465776de02c674af11cb1989bc792579e4643c5be6c79b2426060001b610951565b61055b7fc89f6c534660b791a5d681d75ba8c166a357c9329bf0102435d9acc0056395b360001b610951565b6105877f5fd7fa8dfe758eddec32bc4accf69e4119eb31eb7c50a0a810c2a717770c652460001b610951565b816105c7576040517f08c379a00000000000000000000000000000000000000000000000000000000081526004016105be90610db7565b60405180910390fd5b6105f37f53ef88997f6a0bd4fc41fed4bd99adecfa6f79016868578aed6d8955f0977ebb60001b610951565b61061f7fb6c45604b55a114bd1cfcb97677ed3918194fb0b18fb83502ddf652236d8638b60001b610951565b61064b7f32fd7abdc7ee250f8e995dff58811b3f8e703287378438defe19fc5439da1ca260001b610951565b8084848151811061065857fe5b602002602001018190525050508080600101915050610404565b50915091565b60006106a67fc370391574d385cf5e3414e688346f4d36f28a8a715d94e157206651bcedc89960001b610951565b6106d27f0478947e4e6c01cb158ef0854edeae8e8b4460753e2a1db28768aa7bb643439560001b610951565b6106fe7f87512569cbdd4e5c1eadb78ccf6dd61bee7f73f0ec1e50e779499737b84c0d6760001b610951565b6001430340905090565b60006107367f1ef25d61e9cbc2302078e70cc7120fba0f35283229cebd562f51c2488ea0808060001b610951565b6107627fd061f49e35ad32dee010e7b91a86d68e84cc9f070bd8291418b6d2a70854dcd960001b610951565b61078e7f9a0522148fb8d85ab0d0dea544f5a3a8e823c3252856c6c93ba83bd488a23e1f60001b610951565b8173ffffffffffffffffffffffffffffffffffffffff16319050919050565b60006107db7fbef7e45dc890f65b999f4fe7e5660b7f24be56e8e3c900463b394a79a04ec13960001b610951565b6108077fabe9f523cbcb1551fe83ff83726a9d4086d07e6d0c31f72661415425ab73f61760001b610951565b6108337f567783d6847a05fb9abe946ddb863d650ed9a2f584f67da472e712118b38909160001b610951565b44905090565b60006108677fc3c87da8e0fe0fe9f4f1edada8459962d14619b9e5aa22f30a09b4e495d1d84660001b610951565b6108937fd3eb97e5ee6a3b785256f54ab86139b4ac94fe58f1569f422e43c93e05b2c49860001b610951565b6108bf7fbe120c5a001f82e9756d7732bfa70a9e921d2510d0b21147d68933b3a399dd4d60001b610951565b45905090565b60006108f37f9b900adbbfacada872d302b00d9931481d8a6a198232308f7f46d252e189728760001b610951565b61091f7fd07ed60fda2323cc90b87c6340688d1e5227cc61031607b8610592dc5862430060001b610951565b61094b7f202a14014974792651e0e8c62ad8aa979ebafd00f523f9ebc15f365253c05e0960001b610951565b41905090565b50565b60006109827ffefdc9478b6c1efc7ab2836ead342a4310f6a1e6dddeadd5b890cb9d44b2d84560001b610951565b6109ae7f76ebdab0343586a9b347801738916e1a3318e4a20e464fd4d5c4b86f42ee9dfb60001b610951565b6109da7fa408ffe5c3d3ed9dc9641557369c2b1fbc4143e6a265c449f3cf4eca05a034ac60001b610951565b81409050919050565b6000813590506109f281610fad565b92915050565b600082601f830112610a0957600080fd5b8135610a1c610a1782610e4f565b610e22565b9150818183526020840193506020810190508360005b83811015610a625781358601610a488882610ad5565b845260208401935060208301925050600181019050610a32565b5050505092915050565b600081359050610a7b81610fc4565b92915050565b600082601f830112610a9257600080fd5b8135610aa5610aa082610e77565b610e22565b91508082526020830160208301858383011115610ac157600080fd5b610acc838284610f5a565b50505092915050565b600060408284031215610ae757600080fd5b610af16040610e22565b90506000610b01848285016109e3565b600083015250602082013567ffffffffffffffff811115610b2157600080fd5b610b2d84828501610a81565b60208301525092915050565b600081359050610b4881610fdb565b92915050565b600060208284031215610b6057600080fd5b6000610b6e848285016109e3565b91505092915050565b600060208284031215610b8957600080fd5b600082013567ffffffffffffffff811115610ba357600080fd5b610baf848285016109f8565b91505092915050565b600060208284031215610bca57600080fd5b6000610bd884828501610a6c565b91505092915050565b600060208284031215610bf357600080fd5b6000610c0184828501610b39565b91505092915050565b6000610c168383610cb1565b905092915050565b610c2781610f14565b82525050565b6000610c3882610eb3565b610c428185610ed6565b935083602082028501610c5485610ea3565b8060005b85811015610c905784840389528151610c718582610c0a565b9450610c7c83610ec9565b925060208a01995050600181019050610c58565b50829750879550505050505092915050565b610cab81610f26565b82525050565b6000610cbc82610ebe565b610cc68185610ee7565b9350610cd6818560208601610f69565b610cdf81610f9c565b840191505092915050565b6000610cf582610ebe565b610cff8185610ef8565b9350610d0f818560208601610f69565b80840191505092915050565b6000610d28600b83610f03565b91507f43414c4c5f4641494c45440000000000000000000000000000000000000000006000830152602082019050919050565b610d6481610f50565b82525050565b6000610d768284610cea565b915081905092915050565b6000602082019050610d966000830184610c1e565b92915050565b6000602082019050610db16000830184610ca2565b92915050565b60006020820190508181036000830152610dd081610d1b565b9050919050565b6000602082019050610dec6000830184610d5b565b92915050565b6000604082019050610e076000830185610d5b565b8181036020830152610e198184610c2d565b90509392505050565b6000604051905081810181811067ffffffffffffffff82111715610e4557600080fd5b8060405250919050565b600067ffffffffffffffff821115610e6657600080fd5b602082029050602081019050919050565b600067ffffffffffffffff821115610e8e57600080fd5b601f19601f8301169050602081019050919050565b6000819050602082019050919050565b600081519050919050565b600081519050919050565b6000602082019050919050565b600082825260208201905092915050565b600082825260208201905092915050565b600081905092915050565b600082825260208201905092915050565b6000610f1f82610f30565b9050919050565b6000819050919050565b600073ffffffffffffffffffffffffffffffffffffffff82169050919050565b6000819050919050565b82818337600083830152505050565b60005b83811015610f87578082015181840152602081019050610f6c565b83811115610f96576000848401525b50505050565b6000601f19601f8301169050919050565b610fb681610f14565b8114610fc157600080fd5b50565b610fcd81610f26565b8114610fd857600080fd5b50565b610fe481610f50565b8114610fef57600080fd5b5056fea264697066735822122061e2b816147cb09c0a60c39ee6b26b4e3b8f8588965ba7de6316452245618a7064736f6c63430007010033",
  "linkReferences": {},
  "deployedLinkReferences": {}
}