{
  "_format": "hh-sol-artifact-1",
  "contractName": "FixedPoint",
  "sourceName": "contracts/balancer-core-v2/lib/math/FixedPoint.sol",
  "abi": [
    {
      "inputs": [
        {
          "internalType": "bytes32",
          "name": "c__0x2dc20ac2",
          "type": "bytes32"
        }
      ],
      "name": "c_0x2dc20ac2",
      "outputs": [],
      "stateMutability": "pure",
      "type": "function"
    }
  ],
  "bytecode": "0x609c610024600b82828239805160001a607314601757fe5b30600052607381538281f3fe730000000000000000000000000000000000000000301460806040526004361060335760003560e01c806348edef6d146038575b600080fd5b606160048036036020811015604c57600080fd5b81019080803590602001909291905050506063565b005b5056fea26469706673582212208dd1227675f55771ccace5ca24bfcbe24d1c1fc150a008dcbbb9dedb0ad47e7e64736f6c63430007010033",
  "linkReferences": {},
  "deployedLinkReferences": {}
}