{
  "_format": "hh-sol-artifact-1",
  "contractName": "Vault",
  "sourceName": "contracts/balancer-core-v2/vault/Vault.sol",
  "abi": [
    {
      "inputs": [
        {
          "internalType": "contract IAuthorizer",
          "name": "authorizer",
          "type": "address"
        },
        {
          "internalType": "contract IWETH",
          "name": "weth",
          "type": "address"
        },
        {
          "internalType": "uint256",
          "name": "pauseWindowDuration",
          "type": "uint256"
        },
        {
          "internalType": "uint256",
          "name": "bufferPeriodDuration",
          "type": "uint256"
        }
      ],
      "stateMutability": "nonpayable",
      "type": "constructor"
    },
    {
      "anonymous": false,
      "inputs": [
        {
          "indexed": true,
          "internalType": "contract IAuthorizer",
          "name": "newAuthorizer",
          "type": "address"
        }
      ],
      "name": "AuthorizerChanged",
      "type": "event"
    },
    {
      "anonymous": false,
      "inputs": [
        {
          "indexed": true,
          "internalType": "contract IERC20",
          "name": "token",
          "type": "address"
        },
        {
          "indexed": true,
          "internalType": "address",
          "name": "sender",
          "type": "address"
        },
        {
          "indexed": false,
          "internalType": "address",
          "name": "recipient",
          "type": "address"
        },
        {
          "indexed": false,
          "internalType": "uint256",
          "name": "amount",
          "type": "uint256"
        }
      ],
      "name": "ExternalBalanceTransfer",
      "type": "event"
    },
    {
      "anonymous": false,
      "inputs": [
        {
          "indexed": true,
          "internalType": "contract IFlashLoanRecipient",
          "name": "recipient",
          "type": "address"
        },
        {
          "indexed": true,
          "internalType": "contract IERC20",
          "name": "token",
          "type": "address"
        },
        {
          "indexed": false,
          "internalType": "uint256",
          "name": "amount",
          "type": "uint256"
        },
        {
          "indexed": false,
          "internalType": "uint256",
          "name": "feeAmount",
          "type": "uint256"
        }
      ],
      "name": "FlashLoan",
      "type": "event"
    },
    {
      "anonymous": false,
      "inputs": [
        {
          "indexed": true,
          "internalType": "address",
          "name": "user",
          "type": "address"
        },
        {
          "indexed": true,
          "internalType": "contract IERC20",
          "name": "token",
          "type": "address"
        },
        {
          "indexed": false,
          "internalType": "int256",
          "name": "delta",
          "type": "int256"
        }
      ],
      "name": "InternalBalanceChanged",
      "type": "event"
    },
    {
      "anonymous": false,
      "inputs": [
        {
          "indexed": false,
          "internalType": "bool",
          "name": "paused",
          "type": "bool"
        }
      ],
      "name": "PausedStateChanged",
      "type": "event"
    },
    {
      "anonymous": false,
      "inputs": [
        {
          "indexed": true,
          "internalType": "bytes32",
          "name": "poolId",
          "type": "bytes32"
        },
        {
          "indexed": true,
          "internalType": "address",
          "name": "liquidityProvider",
          "type": "address"
        },
        {
          "indexed": false,
          "internalType": "contract IERC20[]",
          "name": "tokens",
          "type": "address[]"
        },
        {
          "indexed": false,
          "internalType": "int256[]",
          "name": "deltas",
          "type": "int256[]"
        },
        {
          "indexed": false,
          "internalType": "uint256[]",
          "name": "protocolFeeAmounts",
          "type": "uint256[]"
        }
      ],
      "name": "PoolBalanceChanged",
      "type": "event"
    },
    {
      "anonymous": false,
      "inputs": [
        {
          "indexed": true,
          "internalType": "bytes32",
          "name": "poolId",
          "type": "bytes32"
        },
        {
          "indexed": true,
          "internalType": "address",
          "name": "assetManager",
          "type": "address"
        },
        {
          "indexed": true,
          "internalType": "contract IERC20",
          "name": "token",
          "type": "address"
        },
        {
          "indexed": false,
          "internalType": "int256",
          "name": "cashDelta",
          "type": "int256"
        },
        {
          "indexed": false,
          "internalType": "int256",
          "name": "managedDelta",
          "type": "int256"
        }
      ],
      "name": "PoolBalanceManaged",
      "type": "event"
    },
    {
      "anonymous": false,
      "inputs": [
        {
          "indexed": true,
          "internalType": "bytes32",
          "name": "poolId",
          "type": "bytes32"
        },
        {
          "indexed": true,
          "internalType": "address",
          "name": "poolAddress",
          "type": "address"
        },
        {
          "indexed": false,
          "internalType": "enum IVault.PoolSpecialization",
          "name": "specialization",
          "type": "uint8"
        }
      ],
      "name": "PoolRegistered",
      "type": "event"
    },
    {
      "anonymous": false,
      "inputs": [
        {
          "indexed": true,
          "internalType": "address",
          "name": "relayer",
          "type": "address"
        },
        {
          "indexed": true,
          "internalType": "address",
          "name": "sender",
          "type": "address"
        },
        {
          "indexed": false,
          "internalType": "bool",
          "name": "approved",
          "type": "bool"
        }
      ],
      "name": "RelayerApprovalChanged",
      "type": "event"
    },
    {
      "anonymous": false,
      "inputs": [
        {
          "indexed": true,
          "internalType": "bytes32",
          "name": "poolId",
          "type": "bytes32"
        },
        {
          "indexed": true,
          "internalType": "contract IERC20",
          "name": "tokenIn",
          "type": "address"
        },
        {
          "indexed": true,
          "internalType": "contract IERC20",
          "name": "tokenOut",
          "type": "address"
        },
        {
          "indexed": false,
          "internalType": "uint256",
          "name": "amountIn",
          "type": "uint256"
        },
        {
          "indexed": false,
          "internalType": "uint256",
          "name": "amountOut",
          "type": "uint256"
        }
      ],
      "name": "Swap",
      "type": "event"
    },
    {
      "anonymous": false,
      "inputs": [
        {
          "indexed": true,
          "internalType": "bytes32",
          "name": "poolId",
          "type": "bytes32"
        },
        {
          "indexed": false,
          "internalType": "contract IERC20[]",
          "name": "tokens",
          "type": "address[]"
        }
      ],
      "name": "TokensDeregistered",
      "type": "event"
    },
    {
      "anonymous": false,
      "inputs": [
        {
          "indexed": true,
          "internalType": "bytes32",
          "name": "poolId",
          "type": "bytes32"
        },
        {
          "indexed": false,
          "internalType": "contract IERC20[]",
          "name": "tokens",
          "type": "address[]"
        },
        {
          "indexed": false,
          "internalType": "address[]",
          "name": "assetManagers",
          "type": "address[]"
        }
      ],
      "name": "TokensRegistered",
      "type": "event"
    },
    {
      "inputs": [],
      "name": "WETH",
      "outputs": [
        {
          "internalType": "contract IWETH",
          "name": "",
          "type": "address"
        }
      ],
      "stateMutability": "view",
      "type": "function"
    },
    {
      "inputs": [
        {
          "internalType": "enum IVault.SwapKind",
          "name": "kind",
          "type": "uint8"
        },
        {
          "components": [
            {
              "internalType": "bytes32",
              "name": "poolId",
              "type": "bytes32"
            },
            {
              "internalType": "uint256",
              "name": "assetInIndex",
              "type": "uint256"
            },
            {
              "internalType": "uint256",
              "name": "assetOutIndex",
              "type": "uint256"
            },
            {
              "internalType": "uint256",
              "name": "amount",
              "type": "uint256"
            },
            {
              "internalType": "bytes",
              "name": "userData",
              "type": "bytes"
            }
          ],
          "internalType": "struct IVault.BatchSwapStep[]",
          "name": "swaps",
          "type": "tuple[]"
        },
        {
          "internalType": "contract IAsset[]",
          "name": "assets",
          "type": "address[]"
        },
        {
          "components": [
            {
              "internalType": "address",
              "name": "sender",
              "type": "address"
            },
            {
              "internalType": "bool",
              "name": "fromInternalBalance",
              "type": "bool"
            },
            {
              "internalType": "address payable",
              "name": "recipient",
              "type": "address"
            },
            {
              "internalType": "bool",
              "name": "toInternalBalance",
              "type": "bool"
            }
          ],
          "internalType": "struct IVault.FundManagement",
          "name": "funds",
          "type": "tuple"
        },
        {
          "internalType": "int256[]",
          "name": "limits",
          "type": "int256[]"
        },
        {
          "internalType": "uint256",
          "name": "deadline",
          "type": "uint256"
        }
      ],
      "name": "batchSwap",
      "outputs": [
        {
          "internalType": "int256[]",
          "name": "assetDeltas",
          "type": "int256[]"
        }
      ],
      "stateMutability": "payable",
      "type": "function"
    },
    {
      "inputs": [
        {
          "internalType": "bytes32",
          "name": "c__0x00c8a2d9",
          "type": "bytes32"
        }
      ],
      "name": "c_0x00c8a2d9",
      "outputs": [],
      "stateMutability": "pure",
      "type": "function"
    },
    {
      "inputs": [
        {
          "internalType": "bytes32",
          "name": "c__0x1dff6faa",
          "type": "bytes32"
        }
      ],
      "name": "c_0x1dff6faa",
      "outputs": [],
      "stateMutability": "pure",
      "type": "function"
    },
    {
      "inputs": [
        {
          "internalType": "bytes32",
          "name": "c__0x207a38c1",
          "type": "bytes32"
        }
      ],
      "name": "c_0x207a38c1",
      "outputs": [],
      "stateMutability": "pure",
      "type": "function"
    },
    {
      "inputs": [
        {
          "internalType": "bytes32",
          "name": "c__0x228838aa",
          "type": "bytes32"
        }
      ],
      "name": "c_0x228838aa",
      "outputs": [],
      "stateMutability": "pure",
      "type": "function"
    },
    {
      "inputs": [
        {
          "internalType": "bytes32",
          "name": "c__0x39781c2d",
          "type": "bytes32"
        }
      ],
      "name": "c_0x39781c2d",
      "outputs": [],
      "stateMutability": "pure",
      "type": "function"
    },
    {
      "inputs": [
        {
          "internalType": "bytes32",
          "name": "c__0x4c26eefc",
          "type": "bytes32"
        }
      ],
      "name": "c_0x4c26eefc",
      "outputs": [],
      "stateMutability": "pure",
      "type": "function"
    },
    {
      "inputs": [
        {
          "internalType": "bytes32",
          "name": "c__0x5037d4eb",
          "type": "bytes32"
        }
      ],
      "name": "c_0x5037d4eb",
      "outputs": [],
      "stateMutability": "pure",
      "type": "function"
    },
    {
      "inputs": [
        {
          "internalType": "bytes32",
          "name": "c__0x5726d168",
          "type": "bytes32"
        }
      ],
      "name": "c_0x5726d168",
      "outputs": [],
      "stateMutability": "pure",
      "type": "function"
    },
    {
      "inputs": [
        {
          "internalType": "bytes32",
          "name": "c__0x6a0fb98f",
          "type": "bytes32"
        }
      ],
      "name": "c_0x6a0fb98f",
      "outputs": [],
      "stateMutability": "pure",
      "type": "function"
    },
    {
      "inputs": [
        {
          "internalType": "bytes32",
          "name": "c__0x881a5541",
          "type": "bytes32"
        }
      ],
      "name": "c_0x881a5541",
      "outputs": [],
      "stateMutability": "pure",
      "type": "function"
    },
    {
      "inputs": [
        {
          "internalType": "bytes32",
          "name": "c__0xa444a864",
          "type": "bytes32"
        }
      ],
      "name": "c_0xa444a864",
      "outputs": [],
      "stateMutability": "pure",
      "type": "function"
    },
    {
      "inputs": [
        {
          "internalType": "bytes32",
          "name": "c__0xad2a4a8c",
          "type": "bytes32"
        }
      ],
      "name": "c_0xad2a4a8c",
      "outputs": [],
      "stateMutability": "pure",
      "type": "function"
    },
    {
      "inputs": [
        {
          "internalType": "bytes32",
          "name": "c__0xbf0cfa36",
          "type": "bytes32"
        }
      ],
      "name": "c_0xbf0cfa36",
      "outputs": [],
      "stateMutability": "pure",
      "type": "function"
    },
    {
      "inputs": [
        {
          "internalType": "bytes32",
          "name": "c__0xc3d2df53",
          "type": "bytes32"
        }
      ],
      "name": "c_0xc3d2df53",
      "outputs": [],
      "stateMutability": "pure",
      "type": "function"
    },
    {
      "inputs": [
        {
          "internalType": "bytes32",
          "name": "c__0xd17c3e5f",
          "type": "bytes32"
        }
      ],
      "name": "c_0xd17c3e5f",
      "outputs": [],
      "stateMutability": "pure",
      "type": "function"
    },
    {
      "inputs": [
        {
          "internalType": "bytes32",
          "name": "c__0xd91b8845",
          "type": "bytes32"
        }
      ],
      "name": "c_0xd91b8845",
      "outputs": [],
      "stateMutability": "pure",
      "type": "function"
    },
    {
      "inputs": [
        {
          "internalType": "bytes32",
          "name": "c__0xe379c232",
          "type": "bytes32"
        }
      ],
      "name": "c_0xe379c232",
      "outputs": [],
      "stateMutability": "pure",
      "type": "function"
    },
    {
      "inputs": [
        {
          "internalType": "bytes32",
          "name": "c__0xe43d1c01",
          "type": "bytes32"
        }
      ],
      "name": "c_0xe43d1c01",
      "outputs": [],
      "stateMutability": "pure",
      "type": "function"
    },
    {
      "inputs": [
        {
          "internalType": "bytes32",
          "name": "c__0xeb4599f9",
          "type": "bytes32"
        }
      ],
      "name": "c_0xeb4599f9",
      "outputs": [],
      "stateMutability": "pure",
      "type": "function"
    },
    {
      "inputs": [
        {
          "internalType": "bytes32",
          "name": "c__0xebec6520",
          "type": "bytes32"
        }
      ],
      "name": "c_0xebec6520",
      "outputs": [],
      "stateMutability": "pure",
      "type": "function"
    },
    {
      "inputs": [
        {
          "internalType": "bytes32",
          "name": "poolId",
          "type": "bytes32"
        },
        {
          "internalType": "contract IERC20[]",
          "name": "tokens",
          "type": "address[]"
        }
      ],
      "name": "deregisterTokens",
      "outputs": [],
      "stateMutability": "nonpayable",
      "type": "function"
    },
    {
      "inputs": [
        {
          "internalType": "bytes32",
          "name": "poolId",
          "type": "bytes32"
        },
        {
          "internalType": "address",
          "name": "sender",
          "type": "address"
        },
        {
          "internalType": "address payable",
          "name": "recipient",
          "type": "address"
        },
        {
          "components": [
            {
              "internalType": "contract IAsset[]",
              "name": "assets",
              "type": "address[]"
            },
            {
              "internalType": "uint256[]",
              "name": "minAmountsOut",
              "type": "uint256[]"
            },
            {
              "internalType": "bytes",
              "name": "userData",
              "type": "bytes"
            },
            {
              "internalType": "bool",
              "name": "toInternalBalance",
              "type": "bool"
            }
          ],
          "internalType": "struct IVault.ExitPoolRequest",
          "name": "request",
          "type": "tuple"
        }
      ],
      "name": "exitPool",
      "outputs": [],
      "stateMutability": "nonpayable",
      "type": "function"
    },
    {
      "inputs": [
        {
          "internalType": "contract IFlashLoanRecipient",
          "name": "recipient",
          "type": "address"
        },
        {
          "internalType": "contract IERC20[]",
          "name": "tokens",
          "type": "address[]"
        },
        {
          "internalType": "uint256[]",
          "name": "amounts",
          "type": "uint256[]"
        },
        {
          "internalType": "bytes",
          "name": "userData",
          "type": "bytes"
        }
      ],
      "name": "flashLoan",
      "outputs": [],
      "stateMutability": "nonpayable",
      "type": "function"
    },
    {
      "inputs": [
        {
          "internalType": "bytes4",
          "name": "selector",
          "type": "bytes4"
        }
      ],
      "name": "getActionId",
      "outputs": [
        {
          "internalType": "bytes32",
          "name": "",
          "type": "bytes32"
        }
      ],
      "stateMutability": "view",
      "type": "function"
    },
    {
      "inputs": [],
      "name": "getAuthorizer",
      "outputs": [
        {
          "internalType": "contract IAuthorizer",
          "name": "",
          "type": "address"
        }
      ],
      "stateMutability": "view",
      "type": "function"
    },
    {
      "inputs": [],
      "name": "getDomainSeparator",
      "outputs": [
        {
          "internalType": "bytes32",
          "name": "",
          "type": "bytes32"
        }
      ],
      "stateMutability": "view",
      "type": "function"
    },
    {
      "inputs": [
        {
          "internalType": "address",
          "name": "user",
          "type": "address"
        },
        {
          "internalType": "contract IERC20[]",
          "name": "tokens",
          "type": "address[]"
        }
      ],
      "name": "getInternalBalance",
      "outputs": [
        {
          "internalType": "uint256[]",
          "name": "balances",
          "type": "uint256[]"
        }
      ],
      "stateMutability": "view",
      "type": "function"
    },
    {
      "inputs": [
        {
          "internalType": "address",
          "name": "user",
          "type": "address"
        }
      ],
      "name": "getNextNonce",
      "outputs": [
        {
          "internalType": "uint256",
          "name": "",
          "type": "uint256"
        }
      ],
      "stateMutability": "view",
      "type": "function"
    },
    {
      "inputs": [],
      "name": "getPausedState",
      "outputs": [
        {
          "internalType": "bool",
          "name": "paused",
          "type": "bool"
        },
        {
          "internalType": "uint256",
          "name": "pauseWindowEndTime",
          "type": "uint256"
        },
        {
          "internalType": "uint256",
          "name": "bufferPeriodEndTime",
          "type": "uint256"
        }
      ],
      "stateMutability": "view",
      "type": "function"
    },
    {
      "inputs": [
        {
          "internalType": "bytes32",
          "name": "poolId",
          "type": "bytes32"
        }
      ],
      "name": "getPool",
      "outputs": [
        {
          "internalType": "address",
          "name": "",
          "type": "address"
        },
        {
          "internalType": "enum IVault.PoolSpecialization",
          "name": "",
          "type": "uint8"
        }
      ],
      "stateMutability": "view",
      "type": "function"
    },
    {
      "inputs": [
        {
          "internalType": "bytes32",
          "name": "poolId",
          "type": "bytes32"
        },
        {
          "internalType": "contract IERC20",
          "name": "token",
          "type": "address"
        }
      ],
      "name": "getPoolTokenInfo",
      "outputs": [
        {
          "internalType": "uint256",
          "name": "cash",
          "type": "uint256"
        },
        {
          "internalType": "uint256",
          "name": "managed",
          "type": "uint256"
        },
        {
          "internalType": "uint256",
          "name": "lastChangeBlock",
          "type": "uint256"
        },
        {
          "internalType": "address",
          "name": "assetManager",
          "type": "address"
        }
      ],
      "stateMutability": "view",
      "type": "function"
    },
    {
      "inputs": [
        {
          "internalType": "bytes32",
          "name": "poolId",
          "type": "bytes32"
        }
      ],
      "name": "getPoolTokens",
      "outputs": [
        {
          "internalType": "contract IERC20[]",
          "name": "tokens",
          "type": "address[]"
        },
        {
          "internalType": "uint256[]",
          "name": "balances",
          "type": "uint256[]"
        },
        {
          "internalType": "uint256",
          "name": "lastChangeBlock",
          "type": "uint256"
        }
      ],
      "stateMutability": "view",
      "type": "function"
    },
    {
      "inputs": [],
      "name": "getProtocolFeesCollector",
      "outputs": [
        {
          "internalType": "contract ProtocolFeesCollector",
          "name": "",
          "type": "address"
        }
      ],
      "stateMutability": "view",
      "type": "function"
    },
    {
      "inputs": [
        {
          "internalType": "address",
          "name": "user",
          "type": "address"
        },
        {
          "internalType": "address",
          "name": "relayer",
          "type": "address"
        }
      ],
      "name": "hasApprovedRelayer",
      "outputs": [
        {
          "internalType": "bool",
          "name": "",
          "type": "bool"
        }
      ],
      "stateMutability": "view",
      "type": "function"
    },
    {
      "inputs": [
        {
          "internalType": "bytes32",
          "name": "poolId",
          "type": "bytes32"
        },
        {
          "internalType": "address",
          "name": "sender",
          "type": "address"
        },
        {
          "internalType": "address",
          "name": "recipient",
          "type": "address"
        },
        {
          "components": [
            {
              "internalType": "contract IAsset[]",
              "name": "assets",
              "type": "address[]"
            },
            {
              "internalType": "uint256[]",
              "name": "maxAmountsIn",
              "type": "uint256[]"
            },
            {
              "internalType": "bytes",
              "name": "userData",
              "type": "bytes"
            },
            {
              "internalType": "bool",
              "name": "fromInternalBalance",
              "type": "bool"
            }
          ],
          "internalType": "struct IVault.JoinPoolRequest",
          "name": "request",
          "type": "tuple"
        }
      ],
      "name": "joinPool",
      "outputs": [],
      "stateMutability": "payable",
      "type": "function"
    },
    {
      "inputs": [
        {
          "components": [
            {
              "internalType": "enum IVault.PoolBalanceOpKind",
              "name": "kind",
              "type": "uint8"
            },
            {
              "internalType": "bytes32",
              "name": "poolId",
              "type": "bytes32"
            },
            {
              "internalType": "contract IERC20",
              "name": "token",
              "type": "address"
            },
            {
              "internalType": "uint256",
              "name": "amount",
              "type": "uint256"
            }
          ],
          "internalType": "struct IVault.PoolBalanceOp[]",
          "name": "ops",
          "type": "tuple[]"
        }
      ],
      "name": "managePoolBalance",
      "outputs": [],
      "stateMutability": "nonpayable",
      "type": "function"
    },
    {
      "inputs": [
        {
          "components": [
            {
              "internalType": "enum IVault.UserBalanceOpKind",
              "name": "kind",
              "type": "uint8"
            },
            {
              "internalType": "contract IAsset",
              "name": "asset",
              "type": "address"
            },
            {
              "internalType": "uint256",
              "name": "amount",
              "type": "uint256"
            },
            {
              "internalType": "address",
              "name": "sender",
              "type": "address"
            },
            {
              "internalType": "address payable",
              "name": "recipient",
              "type": "address"
            }
          ],
          "internalType": "struct IVault.UserBalanceOp[]",
          "name": "ops",
          "type": "tuple[]"
        }
      ],
      "name": "manageUserBalance",
      "outputs": [],
      "stateMutability": "payable",
      "type": "function"
    },
    {
      "inputs": [
        {
          "internalType": "enum IVault.SwapKind",
          "name": "kind",
          "type": "uint8"
        },
        {
          "components": [
            {
              "internalType": "bytes32",
              "name": "poolId",
              "type": "bytes32"
            },
            {
              "internalType": "uint256",
              "name": "assetInIndex",
              "type": "uint256"
            },
            {
              "internalType": "uint256",
              "name": "assetOutIndex",
              "type": "uint256"
            },
            {
              "internalType": "uint256",
              "name": "amount",
              "type": "uint256"
            },
            {
              "internalType": "bytes",
              "name": "userData",
              "type": "bytes"
            }
          ],
          "internalType": "struct IVault.BatchSwapStep[]",
          "name": "swaps",
          "type": "tuple[]"
        },
        {
          "internalType": "contract IAsset[]",
          "name": "assets",
          "type": "address[]"
        },
        {
          "components": [
            {
              "internalType": "address",
              "name": "sender",
              "type": "address"
            },
            {
              "internalType": "bool",
              "name": "fromInternalBalance",
              "type": "bool"
            },
            {
              "internalType": "address payable",
              "name": "recipient",
              "type": "address"
            },
            {
              "internalType": "bool",
              "name": "toInternalBalance",
              "type": "bool"
            }
          ],
          "internalType": "struct IVault.FundManagement",
          "name": "funds",
          "type": "tuple"
        }
      ],
      "name": "queryBatchSwap",
      "outputs": [
        {
          "internalType": "int256[]",
          "name": "",
          "type": "int256[]"
        }
      ],
      "stateMutability": "nonpayable",
      "type": "function"
    },
    {
      "inputs": [
        {
          "internalType": "enum IVault.PoolSpecialization",
          "name": "specialization",
          "type": "uint8"
        }
      ],
      "name": "registerPool",
      "outputs": [
        {
          "internalType": "bytes32",
          "name": "",
          "type": "bytes32"
        }
      ],
      "stateMutability": "nonpayable",
      "type": "function"
    },
    {
      "inputs": [
        {
          "internalType": "bytes32",
          "name": "poolId",
          "type": "bytes32"
        },
        {
          "internalType": "contract IERC20[]",
          "name": "tokens",
          "type": "address[]"
        },
        {
          "internalType": "address[]",
          "name": "assetManagers",
          "type": "address[]"
        }
      ],
      "name": "registerTokens",
      "outputs": [],
      "stateMutability": "nonpayable",
      "type": "function"
    },
    {
      "inputs": [
        {
          "internalType": "contract IAuthorizer",
          "name": "newAuthorizer",
          "type": "address"
        }
      ],
      "name": "setAuthorizer",
      "outputs": [],
      "stateMutability": "nonpayable",
      "type": "function"
    },
    {
      "inputs": [
        {
          "internalType": "bool",
          "name": "paused",
          "type": "bool"
        }
      ],
      "name": "setPaused",
      "outputs": [],
      "stateMutability": "nonpayable",
      "type": "function"
    },
    {
      "inputs": [
        {
          "internalType": "address",
          "name": "sender",
          "type": "address"
        },
        {
          "internalType": "address",
          "name": "relayer",
          "type": "address"
        },
        {
          "internalType": "bool",
          "name": "approved",
          "type": "bool"
        }
      ],
      "name": "setRelayerApproval",
      "outputs": [],
      "stateMutability": "nonpayable",
      "type": "function"
    },
    {
      "inputs": [
        {
          "components": [
            {
              "internalType": "bytes32",
              "name": "poolId",
              "type": "bytes32"
            },
            {
              "internalType": "enum IVault.SwapKind",
              "name": "kind",
              "type": "uint8"
            },
            {
              "internalType": "contract IAsset",
              "name": "assetIn",
              "type": "address"
            },
            {
              "internalType": "contract IAsset",
              "name": "assetOut",
              "type": "address"
            },
            {
              "internalType": "uint256",
              "name": "amount",
              "type": "uint256"
            },
            {
              "internalType": "bytes",
              "name": "userData",
              "type": "bytes"
            }
          ],
          "internalType": "struct IVault.SingleSwap",
          "name": "singleSwap",
          "type": "tuple"
        },
        {
          "components": [
            {
              "internalType": "address",
              "name": "sender",
              "type": "address"
            },
            {
              "internalType": "bool",
              "name": "fromInternalBalance",
              "type": "bool"
            },
            {
              "internalType": "address payable",
              "name": "recipient",
              "type": "address"
            },
            {
              "internalType": "bool",
              "name": "toInternalBalance",
              "type": "bool"
            }
          ],
          "internalType": "struct IVault.FundManagement",
          "name": "funds",
          "type": "tuple"
        },
        {
          "internalType": "uint256",
          "name": "limit",
          "type": "uint256"
        },
        {
          "internalType": "uint256",
          "name": "deadline",
          "type": "uint256"
        }
      ],
      "name": "swap",
      "outputs": [
        {
          "internalType": "uint256",
          "name": "amountCalculated",
          "type": "uint256"
        }
      ],
      "stateMutability": "payable",
      "type": "function"
    },
    {
      "stateMutability": "payable",
      "type": "receive"
    }
  ],
  "bytecode": "0x610180604052348015630000001357600080fd5b506040516300022f763803806300022f768339818101604052810190630000003d91906300000c40565b8382826040518060400160405280601181526020017f42616c616e636572205632205661756c74000000000000000000000000000000815250806040518060400160405280600181526020017f31000000000000000000000000000000000000000000000000000000000000008152503073ffffffffffffffffffffffffffffffffffffffff1660001b8963000000fe7f013d028b605e144ad0543b3a03b5964c94038553f0521804c4b62738963b07e560001b63000009a760201b60201c565b63000001347f7e9643a0f0f3e186bcd8b42fb5a81d433d5de7d3a7923fbe522d8b5a025065a560001b63000009a760201b60201c565b630000016a7f0844c661234126a043ee272f506f12325218a985f8067bb5773802b80236d3de60001b63000009a760201b60201c565b8073ffffffffffffffffffffffffffffffffffffffff1660808173ffffffffffffffffffffffffffffffffffffffff1660601b815250505063000001d87f23f315c487bc1a8ce2fff5f59d9464cb121092b4976ac4a5d0dd5360bd55a26c60001b63000009aa60201b60201c565b630000020e7f3cd8673e64eea6798dd924779dd61a7e7b5b7b40492ccca98342a3140b52de5960001b63000009aa60201b60201c565b63000002447fb6023579e3ead8398545d970f0a0c24911a62aa1aa275c0da1de2bce99d29f2660001b63000009aa60201b60201c565b306040516300000255906300000be6565b630000026391906300000cc8565b604051809103906000f0801580156300000281573d6000803e3d6000fd5b5073ffffffffffffffffffffffffffffffffffffffff1660a08173ffffffffffffffffffffffffffffffffffffffff1660601b8152505063000002ee7fe9ec9f3628aaa58309698b36d4920ca033915a6732961f4acdb4056f16a1205a60001b63000009ad60201b60201c565b63000003247fd3e66d41bd17558a0cea80cb6af72881d9a4f8b3d3fa92f57d1ef900a04e49cf60001b63000009ad60201b60201c565b630000035a7f4345feddde47777f0ddd4af1fab952dcb95ed9b159ce4dfcd15c18dc2984c4a660001b63000009ad60201b60201c565b600160008190555063000003987f8ec5ed39e0277cf6b5ac7bfbea69561e0ab13d0f90291fda9f21b6ff5febaf0960001b63000009b060201b60201c565b63000003ce7fb3047d90d74037e2adb2df89b6f86a7b7c8bf74ab7f36f7e5570b17d25c7743060001b63000009b060201b60201c565b63000004047fcde082662b671d959326c5490179744ff7f489da54d7e3b0e588ca9e6054959260001b63000009b060201b60201c565b8060c081815250505063000004437fee98174f2fec6f5039773d74e605ef9eca5c1cd66e97227a4db2801fa44649d460001b63000009b360201b60201c565b63000004797f4259111439657f52cad82bf951b84cb17ad89c9a75c0a453b11471980df5b70460001b63000009b360201b60201c565b63000004af7f694727719f1c716e137bf99300414ab3971da34628c5fdb5e3aefb346ab250cd60001b63000009b360201b60201c565b818051906020012060e0818152505063000004f47fc80ca99f8a52e2364dede2f196e5eea0d3e5cbb3d39b3c583eabdce5b2eba33860001b63000009b360201b60201c565b630000052a7fd79623f57f644f5deaf66895ac05cf4d0efe2db6dc309aa7731ca0cce6c6c42060001b63000009b360201b60201c565b8080519060200120610100818152505063000005707f3595ce0dcb0082ced7c03525364c4e77b55c5765b539ff680b322eb52d68007860001b63000009b360201b60201c565b63000005a67fce462f00afa59e5231a71f65b788fd6e74c839c46485038b23c5240219a6728160001b63000009b360201b60201c565b7f8b73c3c69bb8fe3d512ecc4cf759cc79239f7b179b0ffacaa9a75d522b39400f6101208181525050505063000006077f5fa87abe67f1e9a5765844bec3c9b4c503de2e7d3686de53ba2ab881ec65715e60001b63000009b660201b60201c565b50630000063e7fe087a381d2efdf77b4bb9deb1d9c49dd7a7b8850352e08f2237b146ed960df0060001b63000009b960201b60201c565b63000006747fd5bd2a2b38b208dfe30c35c9f2d296d8724d15c14b57d076eb3ed9864adf5cf260001b63000009b960201b60201c565b63000006aa7f440b23f6eae421802afd826f944e150ff37cf67006559664d92ff81aac1bb4f260001b63000009b960201b60201c565b63000006c66276a70083111561019463000009bc60201b60201c565b63000006fc7fa61c306c7b6e0fe7490bf46f0ac35a3616024e80a4df7a4bc45e6de19ba12b2760001b63000009b960201b60201c565b63000007327fcc5d9c2ea50b53fbc5bd55dd83fc9eabd468cdc54db709760ba22684ff909cf660001b63000009b960201b60201c565b630000074e62278d0082111561019563000009bc60201b60201c565b63000007847f40a9c3d0b92872242e7f21fd6cf84e9cfff37a117dcf54fc2e2669e09e526ae160001b63000009b960201b60201c565b63000007ba7f91f1dda37d727c42e393bf864dac6469eabb7aea93126d07fec6d3a883e966f160001b63000009b960201b60201c565b6000824201905063000007f77fd10e525ab2b61302f916eb6f9b5bff8779466f7205e9f26f93dd222e4ff33cf960001b63000009b960201b60201c565b630000082d7f95e023026f40f7e8c70f2daf4b9c6a714fc77d1ca2c06f447b10468970058a8d60001b63000009b960201b60201c565b806101408181525050630000086c7f7519a6a09b3a1dbb48879a23106bafbe17739672feffe0947a75620fdd70024660001b63000009b960201b60201c565b63000008a27f34afba99b9c10b73ccc93d9397070ac2cd56223e20282eba2d1237004c15be7260001b63000009b960201b60201c565b818101610160818152505050505063000008e67faac0e6a70b515701c00e097943225e8c943f2bd04d1cfea3ccd3fded96ce88be60001b63000009db60201b60201c565b630000091c7ffb653baca27e90c03a7f49e067de6bf1587cf2aa04cdd537dede19d140a0538460001b63000009db60201b60201c565b63000009527f776c2ce20fc367be8b72f8b73286da3c86683c63e6598c52b5c374e0a1443b6460001b63000009db60201b60201c565b63000009658163000009de60201b60201c565b50630000099c7f63eb2a21a39bb205fedc7fee71cb4f2bf9778be3f1acadc1204318ad9e385ad160001b6300000b7360201b60201c565b505050506300000dd6565b50565b50565b50565b50565b50565b50565b50565b8163000009d75763000009d6816300000b7660201b60201c565b5b5050565b50565b6300000a147f994e400e4f32d7cdb8c53fef7acdb00282e647a42f595d81bac3519df242c8e160001b63000009db60201b60201c565b6300000a4a7f5df4b375540a90af6f83e4fa125d83e04b3397d6dc64f01c7fa11cb3bd5f7b8860001b63000009db60201b60201c565b6300000a807f897b5b6ba782f80c1a9900e257644ed254418dfc9dad1f899e2010877ba715d360001b63000009db60201b60201c565b8073ffffffffffffffffffffffffffffffffffffffff167f94b979b6831a51293e2641426f97747feed46f17779fed9cd18d1ecefcfe92ef60405160405180910390a26300000af97f9e4c00f812c9d586999cc32655c596d8f15f98f3a20680b6ea8e67b40696e5d760001b63000009db60201b60201c565b6300000b2f7ff27a1e17c2d1957f0474315bdf8ca79a3a84a478c6a6292ca42c80acfab31efa60001b63000009db60201b60201c565b80600360016101000a81548173ffffffffffffffffffffffffffffffffffffffff021916908373ffffffffffffffffffffffffffffffffffffffff16021790555050565b50565b6030600a820601600a820491506030600a830601600a830492506030600a8406018060101b8260081b8401016642414c230000000160c81b7f08c379a000000000000000000000000000000000000000000000000000000000600052602060045260076024528060445260646000fd5b612528806300020a4e83390190565b6000815190506300000c08816300000d7f565b92915050565b6000815190506300000c21816300000d9c565b92915050565b6000815190506300000c3a816300000db9565b92915050565b600080600080608085870312156300000c5857600080fd5b60006300000c6a878288016300000bf5565b94505060206300000c7f878288016300000c0e565b93505060406300000c94878288016300000c27565b92505060606300000ca9878288016300000c27565b91505092959194509250565b6300000cc2816300000d53565b82525050565b60006020820190506300000ce160008301846300000cb5565b92915050565b60006300000cf6826300000d29565b9050919050565b60006300000d0c826300000ce7565b9050919050565b60006300000d22826300000ce7565b9050919050565b600073ffffffffffffffffffffffffffffffffffffffff82169050919050565b6000819050919050565b60006300000d62826300000d69565b9050919050565b60006300000d78826300000d29565b9050919050565b6300000d8c816300000cfd565b81146300000d9957600080fd5b50565b6300000da9816300000d13565b81146300000db657600080fd5b50565b6300000dc6816300000d49565b81146300000dd357600080fd5b50565b60805160601c60a05160601c60c05160e051610100516101205161014051610160516201fc116300000e3d6000398061a07f525080619fcd52508061fc1e52508061fc6052508061fc3f52508061582a525080616f28525080610d4c52506201fc116000f3fe6080604052600436106200032b5760003560e01c806390193b7c11620001a5578063c57291e411620000f7578063ef128f211162000097578063f94d4668116200006d578063f94d46681462000c03578063fa6e671d1462000c49578063fec90d721462000c7757620003a6565b8063ef128f211462000b4c578063f6c009271462000b7a578063f84d066e1462000bbf57620003a6565b8063dffc1ee111620000cd578063dffc1ee11462000ac0578063e6c460921462000aee578063ed24911d1462000b1c57620003a6565b8063c57291e41462000a34578063d2946c2b1462000a62578063d5332f641462000a9257620003a6565b8063a46664431162000163578063b05f8e481162000139578063b05f8e48146200099f578063b95cac2814620009e6578063c27f81691462000a0657620003a6565b8063a46664431462000911578063aaabadc5146200093f578063ad5c4648146200096f57620003a6565b806390193b7c146200080d57806391f04a441462000851578063945bcec9146200087f5780639ae3ff6a14620008b55780639f782bd114620008e357620003a6565b806343a9299e116200027d5780636e06f583116200021d578063851c1bb311620001f3578063851c1bb3146200076d57806386fd891314620007b15780638bdb391314620007df57620003a6565b80636e06f58314620006e35780637d3aeb961462000711578063847c8b6f146200073f57620003a6565b80635fe91e4f11620002535780635fe91e4f14620006595780636005866c146200068757806366a9c7d214620006b557620003a6565b806343a9299e14620005c757806352bbbe2914620005f55780635c38449e146200062b57620003a6565b80630f5a6efa11620002e957806322302fb011620002bf57806322302fb0146200053d5780632f8699ae146200056b57806335159e72146200059957620003a6565b80630f5a6efa146200049957806316c38b3c14620004dd5780631c0de051146200050b57620003a6565b8063031d7e1a14620003ab578063058a628f14620003d957806309b2760f14620004075780630a1b02db146200044b5780630e8e3e84146200047957620003a6565b36620003a6576200035f7fb8552391198fcac9f27c5c99e5a9ef15e025b9f5cdcdd1bdf73d28b2c0fed5b760001b62000cbb565b620003a46200036d62000cbe565b73ffffffffffffffffffffffffffffffffffffffff163373ffffffffffffffffffffffffffffffffffffffff161461020662000d70565b005b600080fd5b348015620003b857600080fd5b50620003d76004803603810190620003d191906201e1e9565b62000d86565b005b348015620003e657600080fd5b50620004056004803603810190620003ff91906201e46e565b62000d89565b005b3480156200041457600080fd5b506200043360048036038101906200042d91906201e551565b6200100b565b6040516200044291906201f0fc565b60405180910390f35b3480156200045857600080fd5b506200047760048036038101906200047191906201e1e9565b62001526565b005b6200049760048036038101906200049191906201e0d9565b62001529565b005b348015620004a657600080fd5b50620004c56004803603810190620004bf91906201e03a565b620022e7565b604051620004d491906201f07e565b60405180910390f35b348015620004ea57600080fd5b506200050960048036038101906200050391906201e191565b620024d2565b005b3480156200051857600080fd5b506200052362002754565b60405162000534939291906201f0bf565b60405180910390f35b3480156200054a57600080fd5b506200056960048036038101906200056391906201e1e9565b620028c5565b005b3480156200057857600080fd5b506200059760048036038101906200059191906201e1e9565b620028c8565b005b348015620005a657600080fd5b50620005c56004803603810190620005bf91906201e1e9565b620028cb565b005b348015620005d457600080fd5b50620005f36004803603810190620005ed91906201e1e9565b620028ce565b005b6200061360048036038101906200060d91906201e6fe565b620028d1565b6040516200062291906201f445565b60405180910390f35b3480156200063857600080fd5b506200065760048036038101906200065191906201e49a565b620035d2565b005b3480156200066657600080fd5b506200068560048036038101906200067f91906201e1e9565b620044e9565b005b3480156200069457600080fd5b50620006b36004803603810190620006ad91906201e1e9565b620044ec565b005b348015620006c257600080fd5b50620006e16004803603810190620006db91906201e379565b620044ef565b005b348015620006f057600080fd5b506200070f60048036038101906200070991906201e1e9565b62000cbb565b005b3480156200071e57600080fd5b506200073d60048036038101906200073791906201e31f565b62004f28565b005b3480156200074c57600080fd5b506200076b60048036038101906200076591906201e1e9565b62005799565b005b3480156200077a57600080fd5b506200079960048036038101906200079391906201e442565b6200579c565b604051620007a891906201f0fc565b60405180910390f35b348015620007be57600080fd5b50620007dd6004803603810190620007d791906201e1e9565b6200587a565b005b348015620007ec57600080fd5b506200080b60048036038101906200080591906201e215565b6200587d565b005b3480156200081a57600080fd5b506200083960048036038101906200083391906201df77565b62005927565b6040516200084891906201f445565b60405180910390f35b3480156200085e57600080fd5b506200087d60048036038101906200087791906201e1e9565b620059fa565b005b6200089d60048036038101906200089791906201e61b565b620059fd565b604051620008ac91906201f05a565b60405180910390f35b348015620008c257600080fd5b50620008e16004803603810190620008db91906201e1e9565b62006528565b005b348015620008f057600080fd5b506200090f60048036038101906200090991906201e1e9565b6200652b565b005b3480156200091e57600080fd5b506200093d60048036038101906200093791906201e1e9565b6200652e565b005b3480156200094c57600080fd5b506200095762006531565b6040516200096691906201f2e8565b60405180910390f35b3480156200097c57600080fd5b5062000987620065e5565b6040516200099691906201f305565b60405180910390f35b348015620009ac57600080fd5b50620009cb6004803603810190620009c591906201e401565b62006680565b604051620009dd94939291906201f48f565b60405180910390f35b62000a046004803603810190620009fe91906201e29a565b62006d28565b005b34801562000a1357600080fd5b5062000a32600480360381019062000a2c91906201e1e9565b62006e94565b005b34801562000a4157600080fd5b5062000a60600480360381019062000a5a91906201e1e9565b62006e97565b005b34801562000a6f57600080fd5b5062000a7a62006e9a565b60405162000a8991906201f322565b60405180910390f35b34801562000a9f57600080fd5b5062000abe600480360381019062000ab891906201e1e9565b62006f4c565b005b34801562000acd57600080fd5b5062000aec600480360381019062000ae691906201e1e9565b62006f4f565b005b34801562000afb57600080fd5b5062000b1a600480360381019062000b1491906201e094565b62006f52565b005b34801562000b2957600080fd5b5062000b3462007772565b60405162000b4391906201f0fc565b60405180910390f35b34801562000b5957600080fd5b5062000b78600480360381019062000b7291906201e1e9565b6200780c565b005b34801562000b8757600080fd5b5062000ba6600480360381019062000ba091906201e1e9565b6200780f565b60405162000bb69291906201ee9b565b60405180910390f35b34801562000bcc57600080fd5b5062000beb600480360381019062000be591906201e57d565b62007980565b60405162000bfa91906201f05a565b60405180910390f35b34801562000c1057600080fd5b5062000c2f600480360381019062000c2991906201e1e9565b62007cd4565b60405162000c40939291906201f00f565b60405180910390f35b34801562000c5657600080fd5b5062000c75600480360381019062000c6f91906201dfe4565b62007f10565b005b34801562000c8457600080fd5b5062000ca3600480360381019062000c9d91906201dfa3565b620083a5565b60405162000cb291906201f0a2565b60405180910390f35b50565b600062000cee7f8245b79f6bcb846eeb8dc205799ad8d040ccce3a1457895949aaee86aac84ef060001b6200652e565b62000d1c7f3a8f2aef87325f1b9e1356146152a3f280aa056d445a810382df6b5c67117e1c60001b6200652e565b62000d4a7fb337c9a52dc1a1a52cbfc6319b8fe849e5f713f5ca82c069dad147710b3b7d2c60001b6200652e565b7f0000000000000000000000000000000000000000000000000000000000000000905090565b8162000d825762000d818162008445565b5b5050565b50565b62000db77f644bd4bced3b479c154eeca48d6f4671c259c7e141fb03b50119e2191bedd28160001b620059fa565b62000de57fb2e493fbea61a28dc3a0bcbde10aee52d356393a6fc964252f51485fbcec722260001b620059fa565b62000e137f609c802ad669539b39339b179e46d5684b53e48970b12ea9058dcacd32d5f2dc60001b620059fa565b62000e1d620084b5565b62000e4b7f2090c6457b1ee2a791b1d863dcf68daffba3ba180e7ef1f21e4e594e8515a6a760001b620059fa565b62000e797f21ea7fcf5f9d7c31f9aaf25a69a33e54c5f3c5f66baae008885ccc3276598f7e60001b620028ce565b62000ea77f6a39159fbf6a6f219cb1a9d2ba1e006bf81de453f8c25b24ef0ad37212bed98b60001b620028ce565b62000ed57fda72f8aff7fe2e941c3d65dafeff55469fc4e10b2cfd040c51bbee89e5b0231a60001b620028ce565b62000edf620085b9565b62000f0d7f9c459e0e3be04934ddeb1b00ad8219c43cf1b0ee5a60c5c5492412fe62e3db4860001b620028ce565b62000f3b7fca11f35b108b66cf12f59440a94186cd74b40d87d59589b42403eeacbdca2c8260001b62006e97565b62000f697f4ad0295e7b2235af7d7057c833b50561727a876615ec8d50bf8cc95cd91c1ba760001b62006e97565b62000f977f97e64675f70521de576ee11bfbe7d8216a93787b4765e4c1492a24ab324cf25360001b62006e97565b62000fa281620086ee565b62000fd07fb60a234b3cb4b1e935875de56b9fece2cdc9d0c9359a56930a7fbbfb5337116f60001b620059fa565b62000ffe7f37a5344d8593cc0405c0415e4e47bc57677f78c6499e62b7b206fedb489e6b9260001b620059fa565b620010086200885b565b50565b60006200103b7f644bd4bced3b479c154eeca48d6f4671c259c7e141fb03b50119e2191bedd28160001b620059fa565b620010697fb2e493fbea61a28dc3a0bcbde10aee52d356393a6fc964252f51485fbcec722260001b620059fa565b620010977f609c802ad669539b39339b179e46d5684b53e48970b12ea9058dcacd32d5f2dc60001b620059fa565b620010a1620084b5565b620010cf7f2090c6457b1ee2a791b1d863dcf68daffba3ba180e7ef1f21e4e594e8515a6a760001b620059fa565b620010fd7f55b2c706edc1fac40420f6b6ee2c7fb303ddd3f3b2e904e75d52c6bfd88e56fa60001b62001526565b6200112b7fc498ca4ed44b1ebcfc965c587448a4caa7674ba28574ad44c701d0b18d270cc260001b62001526565b620011597fc0eb990e8883f9af90f456b244df4424ef0fdb6588346633543bc7fad5d1535e60001b62001526565b62001163620088ef565b620011917f44575eacace6313d4ce3cb25629c3a9f23ce0f7905ebb1784022d4cd23e99a9260001b62001526565b620011bf7f537dc24644236e93324bc7cee173397a359aaef84d8f98615eeff9078e70ccec60001b6200587a565b620011ed7fbc57bb9f75435ac89d7f4dd8b031be4e047695772151c8166aa7f58e26ca20a960001b6200587a565b6200121b7fb883986cc4e60435122b00d6ff1dfddd8d55d1e3f0e8a0d41719b920feb61b1b60001b6200587a565b60006200122c338460065462008992565b90506200125c7f87c19d942bd620b6c9e84225e83603c71e2e2af10d632777f13e8d8757ebd83a60001b6200587a565b6200128a7f682acdbdfcf67f2801be4c9a0ec68426c7d6103ac818094638483604a896aed960001b6200587a565b620012b96005600083815260200190815260200160002060009054906101000a900460ff16156101f462000d70565b620012e77f1654205099012347379733196e9aaf4d7f0e3c206f2d1fa1c40c8c6c500f093860001b6200587a565b620013157fca10a374e8efdb56def9eedbe4e1bc4da1d6d1289b0dde1e818f7c755a37b53660001b6200587a565b60016005600083815260200190815260200160002060006101000a81548160ff0219169083151502179055506200136f7f32695c39bc20dcf181e7429a820007232005be98be7246f44c82b3b00ab5aea660001b6200587a565b6200139d7f6dd8f34c7bf22e8cfc2d0f4f749a444185a8c0612fb8863c7184e543a804a9fc60001b6200587a565b6001600660008282540192505081905550620013dc7f5f1dc01eabcd235de432b56fc8955ac8a9a3955ab93b6d668ecbd83116f580c960001b6200587a565b6200140a7fffdc627cbd80a32babde38b9fba663e5cf17fa52c75f23ccda40646e381b2c5b60001b6200587a565b3373ffffffffffffffffffffffffffffffffffffffff16817f3c13bc30b8e878c53fd2a36b679409c073afd75950be43d8858768e956fbc20e856040516200145391906201f33f565b60405180910390a3620014897fc12d8b76b98d77ac8c3bb76373c4b3b11c71d5b12091c1bf260824fa0a5b32bf60001b6200587a565b620014b77f15535d5e1ed52010f837cc37e9d66f661eb89787ecf303e47c06d5d728b65f5160001b6200587a565b80915050620014e97fb60a234b3cb4b1e935875de56b9fece2cdc9d0c9359a56930a7fbbfb5337116f60001b620059fa565b620015177f37a5344d8593cc0405c0415e4e47bc57677f78c6499e62b7b206fedb489e6b9260001b620059fa565b620015216200885b565b919050565b50565b620015577f644bd4bced3b479c154eeca48d6f4671c259c7e141fb03b50119e2191bedd28160001b620059fa565b620015857fb2e493fbea61a28dc3a0bcbde10aee52d356393a6fc964252f51485fbcec722260001b620059fa565b620015b37f609c802ad669539b39339b179e46d5684b53e48970b12ea9058dcacd32d5f2dc60001b620059fa565b620015bd620084b5565b620015eb7f2090c6457b1ee2a791b1d863dcf68daffba3ba180e7ef1f21e4e594e8515a6a760001b620059fa565b620016197f4f83abe4a7fe4bdafdbaef52f279bc0dd998d4d174e80bc06625d3564db76e4f60001b620044ec565b620016477f6d2dcdc6f63c76b3bf587ccf2e491c91708164908ba07dcce05ec152c7b7f3ac60001b620044ec565b620016757fd655abda970f9bc7ce4b953636aae300c696d82011959d95edf07e1408795da860001b620044ec565b6000620016a57fc4ca77bd73bf64b5b1df3771b5f51bb54ea96b8d0e0bbac5121b49b7f574db4c60001b620044ec565b620016d37fd36e4847348808442300074841920095596c1ac9ac6c78cc3de00919699095f260001b620044ec565b6000620017037fe7287d239a094d57987c138d0e254acf5f6fb08aa1c1a7cac56f41365731979c60001b620044ec565b620017317f0ce8dd3bbb9520f0bb932f5c0efd33d2243d1012b77e66ae4a8f613e96392f7060001b620044ec565b6000620017617ffb704bcf6747d50723a72d9bb0f59fe27dbd29bfb68171b747789c84d90d655d60001b620044ec565b6200178f7fb0545d4421d2ffb2020462f9e4b71f836e700ecd353a1707e64420e0f35e90df60001b620044ec565b60005b84518110156200221357620017ca7f05c895cec45cf2aef3c8820ff4784df71e7dd23e2e1414a258618ff99c230bcc60001b620044ec565b620017f87f105ac0372dafcbf79b1716f0da32cef97291dc2c6b742f2ecafe5d93b3cabbf160001b620044ec565b6000620018287f870f7e4e9c3d8bff6a14c43af4f20a4b3075d422bf8c8294a6629693af4853e360001b620044ec565b620018567f0807bd4657b5be9d984fa75f92ea24ab477ff8f854386570f09e2dbb899ce46060001b620044ec565b6000620018867f2e2060ae11a375bdc8e5259796a3ca01fd928dc56ce932c95deaeae1487d7f0260001b620044ec565b620018b47f92b1710d4b965a183ac3b608e7a0f091371bdb9fbe37a63289e787bbd85e24a960001b620044ec565b6000620018e47f6ec8d4d7ea001a6f0160b8e3c74e4bd62f7148e12227e6c3b6ac170b025e18ab60001b620044ec565b620019127fcff27c759906e19e5827e3b0c7d1bb3c531dd4f87aa07569cf725d2bffd947c060001b620044ec565b6000620019427f6b8ff3563d11f99394e0e03a54642d6d925203a366ab106e89314073cfad090c60001b620044ec565b620019707f8d4ad144f42ddc7c8bff6e98faaa613b8dd025b8902cd996fa382b99a339df0960001b620044ec565b6000620019a07f2dece75ba4baca58dda4b7a8cb7b7fcb735f72425139704ff6ed9679bb7fbc8f60001b620044ec565b620019ce7f9d9a4db3c21f0c6169c9cc7693c9aa928eac669b390e3df9bd733b87f27336b860001b620044ec565b620019ee8a8781518110620019df57fe5b60200260200101518962008be9565b809d50819650829750839850849950859a5050505050505062001a347f18d32f0aed67b638dbd24f73248e16a38e13f3657fd888eeee3006ba40d76e3960001b620044ec565b62001a627f8820f24190c188da32db654d595c72380eb60e5259278a18b8c9ba11c55ddd6660001b620044ec565b6001600381111562001a7057fe5b85600381111562001a7d57fe5b141562001b225762001ab27f53b5756ac5610c9750bbff54a53675bbb6c702d9ba683f69097387cd5ad64ea860001b620044ec565b62001ae07f46f06decd4afe4f21562b104d243d9bcd49f36210d81ce385141466025649d1e60001b620044ec565b62001b0e7f4b0e9ba755d814e53112cf4f6883aadcf96a2154c1d8e60989a164d342a8ada260001b620044ec565b62001b1c8483838662009001565b62002200565b62001b507f835f43108602e7c45e52472a5e9defb9541440c6e06fb4e92ed0b2a3160e0b9660001b620044ec565b62001b7e7ffc57d7d5cb77a60e7db4b132093765dc02c7d9ac1f0132cbf71f5db653e93d6060001b620044ec565b62001bac7fc6c8c69581a3bcd2ae768b429924ec1ffb45cf538b0164f783065d6345600e7260001b620044ec565b8662001cac5762001be07f3f84fac8973ee11e176ac46f08bdb0643a7094adeb052c2b05fdbdd106df21a960001b620044ec565b62001c0e7f7da910aa792d9912da48ba287fd2589aa4cc5e8dee221d7a905a0bf41869026f60001b620044ec565b62001c3c7fd12723867ca47015c889508b15c824984a567b1b83e740dec24305baae4435bb60001b620044ec565b62001c46620088ef565b62001c747f130578b1ed47b397eeeb252de25d99e4fa57a45eda6466d23418d22ee2edfcd660001b620044ec565b62001ca27f7eabf86f58e722bb17c208a0987d4ea57d4f5de2a56379464516c56114ddbcfd60001b620044ec565b6001965062001cdb565b62001cda7f554e5548d4a6edd191bf89d436d864657189ff8618d8c5576cc6d074293e4e6e60001b620044ec565b5b62001d097f4364ad4249818a017e06203290b72daac8d8720126abaf0514fabcca9cebeeed60001b620044ec565b62001d377fb3ebb5cfe628e93d4afb0cfeced6524cd195923b334120ed33f64b3d880d6adf60001b620044ec565b6000600381111562001d4557fe5b85600381111562001d5257fe5b141562001f3a5762001d877fff11bbe2c9ea2906dd8d77631f80200ad83bcf3a170a6486b5d18c51011153b260001b620044ec565b62001db57f5b134d42737ce089ef07fc179632a562a6c2447b79386293b69307fd1b7fbd0f60001b620044ec565b62001de37f2f5ab3eac086e912136df12a4ac3a1f724719968fbd9c6467181ab7bb1dd2b8e60001b620044ec565b62001df18483838662009116565b62001e1f7f318c8c16158f8090214b4e99489da5c9888183abb1bca731b22a60c4b3e4171c60001b620044ec565b62001e4d7f654a20f30e274d013854cff2866df41ea2a8b07d3288c92074a62719c9acb1f960001b620044ec565b62001e588462009228565b1562001f055762001e8c7f6cf92f565014d9b064ba49285fa292973a198341007e12f9ce2bd11f9655875160001b620044ec565b62001eba7f396c4044e49adf6aced6b25cb9f42516922aba02358225403d77f1c5ccbfbaf560001b620044ec565b62001ee87f605224564fd1e06857b2e121517fba80e5b53a79a9534a34e0588a0caa073d8160001b620044ec565b62001efd838a620092eb90919063ffffffff16565b985062001f34565b62001f337f20014abf51e7833b9aad2bb959b4fcdb1136d560b3ec703e269001ecd5e98c1c60001b620044ec565b5b620021ff565b62001f687f018c6d4d5f295d456d476b597c3e37cb253c7ee7b20931de7bba532da3b7015d60001b620044ec565b62001f967fe66c4c528208779fe89c61a3301b22d91f3ca3cc64a1862b234a65f79805ef7760001b620044ec565b62001fc47f148304bed67f881c936259afed3af3bd34eb5ac33db635d2596e3fa6a8e94e2f60001b620044ec565b62001fdd62001fd38562009228565b1561020762000d70565b6200200b7f58f8cd18fcea5080fef1c034735d86aca891bae94f0ea54e97d779972347643860001b620044ec565b620020397f303d65a96add83f60d535983eb4e54eeb28eb55becf35b362b82c49ccde843f660001b620044ec565b6000620020468562009450565b9050620020767ffc1bb6fac451870e0724fc7fc469d036594d639b0544af73fbe14aba9a2c80ab60001b620044ec565b620020a47f1341e03ae8d969e4143b575dc2582e13783192577f127eadbf0a9762660c661a60001b620044ec565b60026003811115620020b257fe5b866003811115620020bf57fe5b14156200216457620020f47f8ba7177cc8fd108b76e3de154eef57805d9dbd5796d641d33b3eb2ed22513f3160001b620044ec565b620021227fcac37d19f40b86b1b330afed710c01d6e5cba4dfd6c1989c25462a10b62965b260001b620044ec565b620021507f68e9a40fe5d38c4c1be7fb9fe6af7cdcb78891f9b0a6f9830f03bca13b61495a60001b620044ec565b6200215e81848487620094e4565b620021fd565b620021927f1a14fa768f28de083114e4418ae85bfcdf88102241445c4f43397a56e509003460001b620044ec565b620021c07f4107b0431b97aa6461669ce1bd8caaa7e19ff494883f54028290aa8fa4887f7f60001b620044ec565b620021ee7fc4a94a9e1a6a810977fa144539cd0e2fe198f8942954d29208f59e38ca4b327f60001b620044ec565b620021fc81848487620095ed565b5b505b5b5050505050808060010191505062001792565b50620022427f700c7ccc74452058ef779b02b9187d6193a141f08a84ad92d1874e43150fa5c060001b620044ec565b620022707f8a0eb56d19e1bc8842c8b1282a60d665d0b1a049becc14510422cf8ff474416660001b620044ec565b6200227b836200983a565b505050620022ac7fb60a234b3cb4b1e935875de56b9fece2cdc9d0c9359a56930a7fbbfb5337116f60001b620059fa565b620022da7f37a5344d8593cc0405c0415e4e47bc57677f78c6499e62b7b206fedb489e6b9260001b620059fa565b620022e46200885b565b50565b6060620023177f25b83de02b4237555bf5072fbc1902e199af16032d94a243c4583bca9d35ab5b60001b620044ec565b620023457f5a2b26417e06601869052d61f996b6369fbeb08b7800169e41e81c2631a026cc60001b620044ec565b620023737f03c00ca4866271d077b7669448e1277247ca5b97d6fc372c730ef574b04daa0560001b620044ec565b815167ffffffffffffffff811180156200238c57600080fd5b50604051908082528060200260200182016040528015620023bc5781602001602082028036833780820191505090505b509050620023ed7f63e82eb230c693e96735e2b662f349483f24e75430d7e36fcee7216f03e6246660001b620044ec565b6200241b7fab8dd8edbffe66b99cfd5c702177a0c5c241131dd9e8dd2b6c881010cb9d14c960001b620044ec565b60005b8251811015620024cb57620024567f55f167cce18805e9e2656e3f733cbdc93cfaead8e12f439c7da01855711bfd5060001b620044ec565b620024847f02f97df18d81b245ec3ff6babf2cd121d03088417cd0e61073e4f1196062598f60001b620044ec565b620024a4848483815181106200249657fe5b602002602001015162009a8c565b828281518110620024b157fe5b60200260200101818152505080806001019150506200241e565b5092915050565b620025007f644bd4bced3b479c154eeca48d6f4671c259c7e141fb03b50119e2191bedd28160001b620059fa565b6200252e7fb2e493fbea61a28dc3a0bcbde10aee52d356393a6fc964252f51485fbcec722260001b620059fa565b6200255c7f609c802ad669539b39339b179e46d5684b53e48970b12ea9058dcacd32d5f2dc60001b620059fa565b62002566620084b5565b620025947f2090c6457b1ee2a791b1d863dcf68daffba3ba180e7ef1f21e4e594e8515a6a760001b620059fa565b620025c27f21ea7fcf5f9d7c31f9aaf25a69a33e54c5f3c5f66baae008885ccc3276598f7e60001b620028ce565b620025f07f6a39159fbf6a6f219cb1a9d2ba1e006bf81de453f8c25b24ef0ad37212bed98b60001b620028ce565b6200261e7fda72f8aff7fe2e941c3d65dafeff55469fc4e10b2cfd040c51bbee89e5b0231a60001b620028ce565b62002628620085b9565b620026567f9c459e0e3be04934ddeb1b00ad8219c43cf1b0ee5a60c5c5492412fe62e3db4860001b620028ce565b620026847f7f7701927e2c06216e201cee2fb30aa4b50c5b1575e3e63a6bf808cb15cb0f3560001b62005799565b620026b27fa59116f221c8c633925ad90c9aefef31db3aaf51d024bec0d194395f620f529660001b62005799565b620026e07ff9d3b36d5f16437710f53f9e2854fd78314380d9ac57dbb941ef80afd7491c0260001b62005799565b620026eb8162009b9d565b620027197fb60a234b3cb4b1e935875de56b9fece2cdc9d0c9359a56930a7fbbfb5337116f60001b620059fa565b620027477f37a5344d8593cc0405c0415e4e47bc57677f78c6499e62b7b206fedb489e6b9260001b620059fa565b620027516200885b565b50565b6000806000620027877f42b2df6467ff4c70f32501bc99dadaa1707377d0ae98682424fbf6f17c641d1460001b62001526565b620027b57fc547455e53b5440054db386d0706d7ff980e05270c92023fc54f5f5f5c04c5ad60001b62001526565b620027e37fb963bb4019984fe1702b4770c0d5aa469bd0dd9b7d30f2696d9641e74bbca11260001b62001526565b620027ed62009e89565b1592506200281e7f61573994a5d914d4db231e404b148fb9db63f1c7b413b107977e9feedb531d9460001b62001526565b6200284c7f07825aec69c85870219784a1fb8305468e89fa78f9acd98ce1748ceb86c60aec60001b62001526565b6200285662009f3f565b9150620028867f021c1a05e5f001c149d9ad72783428e4a158fe50b5533cfc1ae85382d9da3cbe60001b62001526565b620028b47f0875220e21ba6e87e6bbb05f50398ebcd41b3de02dec68c6049fc5c8fd3cd56260001b62001526565b620028be62009ff1565b9050909192565b50565b50565b50565b50565b6000620029017f644bd4bced3b479c154eeca48d6f4671c259c7e141fb03b50119e2191bedd28160001b620059fa565b6200292f7fb2e493fbea61a28dc3a0bcbde10aee52d356393a6fc964252f51485fbcec722260001b620059fa565b6200295d7f609c802ad669539b39339b179e46d5684b53e48970b12ea9058dcacd32d5f2dc60001b620059fa565b62002967620084b5565b620029957f2090c6457b1ee2a791b1d863dcf68daffba3ba180e7ef1f21e4e594e8515a6a760001b620059fa565b620029c37f55b2c706edc1fac40420f6b6ee2c7fb303ddd3f3b2e904e75d52c6bfd88e56fa60001b62001526565b620029f17fc498ca4ed44b1ebcfc965c587448a4caa7674ba28574ad44c701d0b18d270cc260001b62001526565b62002a1f7fc0eb990e8883f9af90f456b244df4424ef0fdb6588346633543bc7fad5d1535e60001b62001526565b62002a29620088ef565b62002a577f44575eacace6313d4ce3cb25629c3a9f23ce0f7905ebb1784022d4cd23e99a9260001b62001526565b836000015162002a8a7f8f905354554b45cc409e78d840583824a2f1300f15026896c037ebe7cbb98a0160001b62006e97565b62002ab87f12b239c6c614a6f0180d849227a66637e852fccde2b3c004f53e3d9cb03f00af60001b62006e97565b62002ae67f0985dce6b0021ad9ff7c8bff45a3117889e6a12f87564a12662519e903e168ca60001b62006e97565b62002af1816200a0a3565b62002b1f7fb5491683589dee49db0bed4b831df1256d452266bfb8cb8c20474f50cc82af5660001b62006e97565b62002b4d7f1adc8c93ebc68cd5c2d882fdafd6fef7aeff08b51f8fded5430987d5241aa8df60001b620028c5565b62002b7b7f4856dc7751ae3dc300948f0399a1d8879bfcd6cdf9c13ecbfa4b7162e3405c9c60001b620028c5565b62002ba97f2ad4236eb2bc048d321101a16a1ca5aeb511e3cdda3f01283df48ed709cffb9d60001b620028c5565b62002bba834211156101fc62000d70565b62002be87f6c1c202693d107192140b7c98c23494c579979d8b235e62310c8366be47ee68b60001b620028c5565b62002c167f8b578e7a9748dd6ebca0931a6ab66243e549108b7d09e2614af0aed5f835ec6c60001b620028c5565b62002c2b60008760800151116101fe62000d70565b62002c597f06fbccd0efa3d927759519c2b86037fa4f0944c525ad4805b863018c86cb1e9060001b620028c5565b62002c877fd106c1c9d233d407760074ffbf11417aff00097492913b5c59ed50878c79061d60001b620028c5565b600062002c9887604001516200a367565b905062002cc87f9732d95d70618d7f9445f52d86b79fca49dba570119a1bbc6812bdfa780b45ea60001b620028c5565b62002cf67fdc1dd1242d62229935c14bb20454d50dccaf43f41894681f658d2ac7cba48ede60001b620028c5565b600062002d0788606001516200a367565b905062002d377fdb329fc2c8e3db1c77151d5708d158662aedcc82d94c6775b36ace0500362bc260001b620028c5565b62002d657f370895f154851a2ce0fccaaa2a88579f00d4338000c73de7470fe73fad91ebcf60001b620028c5565b62002da28173ffffffffffffffffffffffffffffffffffffffff168373ffffffffffffffffffffffffffffffffffffffff1614156101fd62000d70565b62002dd07f9d1048fffdf58f41cbb1864881a5b5a7e96b1dea0dbba700a3068d9f1423eec960001b620028c5565b62002dfe7fbcfeb1d3e7af390abe9e278254cd04de033a263ab6c3bb4b7bfcb79e04dda2c260001b620028c5565b62002e086201d2ba565b62002e367f85bc0ed4ebffbd7e9efc4f9b8fe9706e72f0ee873b0e33a4ed9c288a13055dc460001b620028c5565b62002e647f345a26563555041ff92acb73ea5b8e8cc34ed65cba37b29d1099008e761cc2f460001b620028c5565b886000015181608001818152505062002ea07f9a30c343b7d65952b0b97204c183f7f91e8a40481734ad4f5a568c4e9910192f60001b620028c5565b62002ece7fca419a38ccb6d4fbc2997795e26048f3d583704cc26ec04d291ab0f3e38e094b60001b620028c5565b88602001518160000190600181111562002ee457fe5b9081600181111562002ef257fe5b8152505062002f247f4f64b415d8e331425da673c8d5a33b79f34275a0ac9d489767ef7fcaf3cde9dd60001b620028c5565b62002f527fdac29d538e20388d34c0d52983b6ab578dc1c484d5cbc93deb2174eaa8b2eaba60001b620028c5565b82816020019073ffffffffffffffffffffffffffffffffffffffff16908173ffffffffffffffffffffffffffffffffffffffff168152505062002fb87ff7c8978ff2c878503a0de93fc8fc57aa4a2f51f25e114ca50ea77dfd2348156360001b620028c5565b62002fe67f2419039390a199d35b6cf7d4cebaa7c8fa9da39514c20fc669f7291c9a2e046b60001b620028c5565b81816040019073ffffffffffffffffffffffffffffffffffffffff16908173ffffffffffffffffffffffffffffffffffffffff16815250506200304c7f1a601f02e7fc97bb942b9de583e7014e98c0c7cdf28312cf6c54c5b1765807b660001b620028c5565b6200307a7ffb2796dcd8843771b7b150ae82488fa055c4367a0ae819af5a1d69b838ba07a860001b620028c5565b8860800151816060018181525050620030b67f52dddc48ce196f6a8c0610bf783c7037e2bb6db71e53ffe77cc72150fdefb39560001b620028c5565b620030e47fd2c7d65feb939dda6ba92a93a0f5b7bee5a89f08326796684e4d80524c2787c660001b620028c5565b8860a00151816101000181905250620031207faba65ca9eebfc630cd74743c705238900f20dcbb6c3abf07bd8a8209f9bbc92160001b620028c5565b6200314e7f92d49271d77a5d4b41e6288b0687c0154befb2a7a0bd1aa8f91fbcf41ea1275260001b620028c5565b87600001518160c0019073ffffffffffffffffffffffffffffffffffffffff16908173ffffffffffffffffffffffffffffffffffffffff1681525050620031b87f6433c4d65a6e5a7b4e90469be8276da34503f1b1726d7299a4068812cea1633160001b620028c5565b620031e67f6fbfd69b7d84039ee19ef8695805dbb55b94ae69c792c8e74374ef4e5e6709c060001b620028c5565b87604001518160e0019073ffffffffffffffffffffffffffffffffffffffff16908173ffffffffffffffffffffffffffffffffffffffff1681525050620032507fe43603bd50fcb518ba9630b138f117572e52c7b0fe9bad9984f30f8d983a3e7f60001b620028c5565b6200327e7ff48039ce02a591b0d443237af93b5e289d1661f9dd025f0f5bd757c79bab34d560001b620028c5565b6000620032ae7f660a2dd96c43e5389500e12a8efdbad2a53edba6d80158dfa73d305560302f5360001b620028c5565b620032dc7fc90bd39dcfcd2b83ec3b2b6a16657d8b9be65fd100d4df2ac2f048cb2e7c1b6360001b620028c5565b60006200330c7fc98d1a6c049b94fafaf25cfdae4d9ba40e8b9dafe05a446cd8b751e9e65ff34660001b620028c5565b6200333a7f08fc5e79d06a73e81059523a863f0dc363b1f2b369c303de873ca1b6575dc99c60001b620028c5565b62003345836200a426565b8093508194508299505050506200337f7fd85a1a28791135c5821415ceb561c57c1d28f18db74ab2a92856bbfd016ed55e60001b620028c5565b620033ad7f139f5d080505fe76cf0054d1f883c68924994a49deab35e9b3e0ef22770e2b0b60001b620028c5565b620033ee60006001811115620033bf57fe5b8c602001516001811115620033d057fe5b14620033e05789831115620033e5565b898210155b6101fb62000d70565b6200341c7ff529fd560544d4c5951cc87c9e555cbc73a92b8b6692cac2473ed795f1dc7aea60001b620028c5565b6200344a7fc3e4e15fd4501d31b45d6796176fc5572df3c3d0d2158c8b57c046a02701af6260001b620028c5565b620034648b60400151838c600001518d602001516200a95c565b620034927ffc8d9a1888639c87025265bd4ea78f5610f79da35a9d1d88f34a708b03c8c8d860001b620028c5565b620034c07f1c73eb7925eb5d1621c01406935e2ac0fa0e9a8e507ee6d78334c3ef5b92697a60001b620028c5565b620034da8b60600151828c604001518d606001516200b07c565b620035087f05f3294f03e4668f7f2a7e0c62fbcdc23e712fad815b0ff00bcdf4355ecb21d660001b620028c5565b620035367f466eef5ec5d8b027b695325d40400e3129940231665d4421dc4f4698fea9180f60001b620028c5565b6200355e620035498c6040015162009228565b6200355657600062003558565b825b6200983a565b505050505050620035927fb60a234b3cb4b1e935875de56b9fece2cdc9d0c9359a56930a7fbbfb5337116f60001b620059fa565b620035c07f37a5344d8593cc0405c0415e4e47bc57677f78c6499e62b7b206fedb489e6b9260001b620059fa565b620035ca6200885b565b949350505050565b620036007f644bd4bced3b479c154eeca48d6f4671c259c7e141fb03b50119e2191bedd28160001b620059fa565b6200362e7fb2e493fbea61a28dc3a0bcbde10aee52d356393a6fc964252f51485fbcec722260001b620059fa565b6200365c7f609c802ad669539b39339b179e46d5684b53e48970b12ea9058dcacd32d5f2dc60001b620059fa565b62003666620084b5565b620036947f2090c6457b1ee2a791b1d863dcf68daffba3ba180e7ef1f21e4e594e8515a6a760001b620059fa565b620036c27f55b2c706edc1fac40420f6b6ee2c7fb303ddd3f3b2e904e75d52c6bfd88e56fa60001b62001526565b620036f07fc498ca4ed44b1ebcfc965c587448a4caa7674ba28574ad44c701d0b18d270cc260001b62001526565b6200371e7fc0eb990e8883f9af90f456b244df4424ef0fdb6588346633543bc7fad5d1535e60001b62001526565b62003728620088ef565b620037567f44575eacace6313d4ce3cb25629c3a9f23ce0f7905ebb1784022d4cd23e99a9260001b62001526565b620037847f0d084fd18885a4b5735d578327dcd89878052c0a00cfb9bf374d7960ea5e449e60001b6200652b565b620037b27fca6e257cf98bdd71598599f8a2c2f032028238a249b46f759c95af977f6a168860001b6200652b565b620037e07fe091167ce3b79937ec31f8bb39e73591accc874a6618030ddcd8144a8e9c7d1060001b6200652b565b620037ee835183516200b68f565b6200381c7f398fedeb6cbb79924432d2629f0af5591554929592646c9ea0417af68a78dbab60001b6200652b565b6200384a7fd90db18ecbbd0ced3a12e445e759bc11f4378feddd9900eb801d2788f992402660001b6200652b565b6060835167ffffffffffffffff811180156200386557600080fd5b50604051908082528060200260200182016040528015620038955781602001602082028036833780820191505090505b509050620038c67f3d798a06a99c488ff47c44691a4c9bbd89edd179c94c951e49fc16d8567109d060001b6200652b565b620038f47f596f3432760575202fb6fd00cc91536fd33aec4ca1f2767a5cefcf60764501c560001b6200652b565b6060845167ffffffffffffffff811180156200390f57600080fd5b506040519080825280602002602001820160405280156200393f5781602001602082028036833780820191505090505b509050620039707f073d53ef6d591f80c691c459cf05792b9dc196b23dd3e73e14e00c1a4e0b3ff160001b6200652b565b6200399e7f60c33928d048ad1ad459c1c947557ee644cba50ac62fb080fa16356769ed6b5e60001b6200652b565b6000620039ce7f97bb386be59a10dadb3310ca82fc4caaf5dca94f576e919f9f9163bff8ee28ad60001b6200652b565b620039fc7fbe674eb5dd1fbb7510b39eb058bff0f883c47fdb20db761a7b7c6728b7e559a360001b6200652b565b60005b865181101562003ec35762003a377f763dbfd940e1c6ec47223273fc4e2affb0f3b0c55b5b1b1027553de5fd80d63b60001b6200652b565b62003a657f4f0c1fac7dddf3b00886f67782653fe646bcf240003676062b66d7fc2183cac860001b6200652b565b600087828151811062003a7457fe5b6020026020010151905062003aac7f82cc449558edca14e99fede3c20987d39910d30b8ef7da665cfdb93e8ba6c32260001b6200652b565b62003ada7f90d652f0f74c9abff265bbb2d3484223251fd68ac835113839c56e47d00e452f60001b6200652b565b600087838151811062003ae957fe5b6020026020010151905062003b217f0b0364daeabfaa5dd4179d5fd12a585a13b6e3fb9480052c0221038f8ec7738a60001b6200652b565b62003b4f7f4653d8899aeeb3358bfa3c9e0651b6b37edcc475c59da639e7d21158a027a09560001b6200652b565b62003bc88473ffffffffffffffffffffffffffffffffffffffff168373ffffffffffffffffffffffffffffffffffffffff1611600073ffffffffffffffffffffffffffffffffffffffff168473ffffffffffffffffffffffffffffffffffffffff161462003bbf57606662003bc2565b60685b62000d70565b62003bf67f860e13b772384c6b0583b3d1ce9fc990aa37c7faf244932a867392ef1adbfd6260001b6200652b565b62003c247fb0fa0b8590436c7b27fa0411a70edca718f4faf08df788fc1128804df33a480160001b6200652b565b81935062003c557f81f78db1d9e38d01da181c092c52dfc392d5b4b2616ba335221913c4112a6ed760001b6200652b565b62003c837fb923dca6bb4b573d57f272f782b4e81fe856f22225a7e9fbe8a35e2beefdf00760001b6200652b565b8173ffffffffffffffffffffffffffffffffffffffff166370a08231306040518263ffffffff1660e01b815260040162003cbe91906201ee41565b60206040518083038186803b15801562003cd757600080fd5b505afa15801562003cec573d6000803e3d6000fd5b505050506040513d601f19601f8201168201806040525081019062003d1291906201e783565b85848151811062003d1f57fe5b60200260200101818152505062003d597f09deaf76b5ae619ecde6cacf4188f9e7ec879b25e2b8264e1e554b8f01645a1860001b6200652b565b62003d877fd9733814bd57b356336e77d7df5aaf352d0dbba212375b22b0ecb354e48e7ab160001b6200652b565b62003d92816200b72c565b86848151811062003d9f57fe5b60200260200101818152505062003dd97feb15ddfb84ee87c37dbd5bad88766921a774e744b206db4927109634e8ab579b60001b6200652b565b62003e077f4abe14f7b3c7b0f0800aa9d01763dc5256effdc223038020eeb4af8527e64fb660001b6200652b565b62003e2c8186858151811062003e1957fe5b6020026020010151101561021062000d70565b62003e5a7f93678fc76e1503f62842c07541d83095d497570c0d9e48bb07f6caf25aa4bcf060001b6200652b565b62003e887f243874e4896b2a9c473f2363bdf47cc0aa74da02505eac5bea8b1f858eb1927460001b6200652b565b62003eb58a828473ffffffffffffffffffffffffffffffffffffffff166200b8b79092919063ffffffff16565b5050806001019050620039ff565b5062003ef27fe22ae1645490a7fefc25850ede72da070477c8e837bd792f8dadb7d06a99cca360001b6200652b565b62003f207f3518d3e12262314ae12524083a19e29e8060316d046086448ac9624833ce07de60001b6200652b565b8673ffffffffffffffffffffffffffffffffffffffff1663f04f2707878786886040518563ffffffff1660e01b815260040162003f6194939291906201efa6565b600060405180830381600087803b15801562003f7c57600080fd5b505af115801562003f91573d6000803e3d6000fd5b5050505062003fc37f82c98aa521ea00d21ea00562ff25df99620a0a0cd0f2ba112eaac4c8a85ea66b60001b6200652b565b62003ff17f84df00aac2bacdc4bde6632a5da88a974d5ce8dfddc32fc34e1bc62a9167a33860001b6200652b565b60005b865181101562004479576200402c7f50cf7c6279bc78b2b5129bef0a5630513f142a2fc79110faced84547b894d5ff60001b6200652b565b6200405a7f995fc580cb90a73f7f9d41e47bfb48d31451d6c22b1eeac2adcc34effadec94660001b6200652b565b60008782815181106200406957fe5b60200260200101519050620040a17f130dda682be112708ee898eaf76e22a3196b272ca688a39e3ce94ab5817cc0f260001b6200652b565b620040cf7f425c8e3c4b997ec3cda62879481d3ddc1ecd391c24bb1f1452717b26d0020e5d60001b6200652b565b6000848381518110620040de57fe5b60200260200101519050620041167ffae67ef03d8d9534034afe118d4a161aeb1bff1e5b020e8afaa82be6fb26393960001b6200652b565b620041447f226bdee1d91f9f0531191002bbcb64254442f49de8478614eade9b44b6e8ef7960001b6200652b565b60008273ffffffffffffffffffffffffffffffffffffffff166370a08231306040518263ffffffff1660e01b81526004016200418191906201ee41565b60206040518083038186803b1580156200419a57600080fd5b505afa158015620041af573d6000803e3d6000fd5b505050506040513d601f19601f82011682018060405250810190620041d591906201e783565b9050620042057f2990e612fc7b4facd73abefc92fe6635e7526a24e20a63c5eb1a3ed369048d6060001b6200652b565b620042337f0592052aad74b1a224b203311e3d1bf975a0783d1a3261eef203a25aa72b965f60001b6200652b565b620042448282101561020362000d70565b620042727f6951998b2c02d9f0c7b3b804bd8466fb063efc0ff7140085f8bf513b612f042d60001b6200652b565b620042a07f1635df7ede0ef3b344407862a14141365c15ee2068935e910c4d702755be6a7460001b6200652b565b60008282039050620042d57f1fb01cb90eac69d64e0ccd1ea7eb3ec6dd1aa59f64422dc8cdfbae67e6f0951e60001b6200652b565b620043037f3d360a13246237144fe49275ae73e9b2d07d6b9ad4a1e70ed557aaf13fa7c26c60001b6200652b565b620043288886815181106200431457fe5b602002602001015182101561025a62000d70565b620043567ff9e3ce74e473b703926b41f67a73dfa20a548e543c9c054e8181fbc2aa78b37d60001b6200652b565b620043847f282ec71aad8ec7fad97a92bb1a197aed46a89474512a7e599070fd019d9d338760001b6200652b565b6200439084826200b9cb565b620043be7f430c8e88612ae78e9166eaef994df5a1c398a2893101dbb8ceb0b71b82933e8360001b6200652b565b620043ec7f106a78f7211ed2486aa6702115f7b36724182f26de27e929c3fe09344e2bc8ce60001b6200652b565b8373ffffffffffffffffffffffffffffffffffffffff168c73ffffffffffffffffffffffffffffffffffffffff167f0d7d75e01ab95780d3cd1c8ec0dd6c2ce19e3a20427eec8bf53283b6fb8e95f08c88815181106200444857fe5b602002602001015184604051620044619291906201f462565b60405180910390a35050505080600101905062003ff4565b50505050620044ab7fb60a234b3cb4b1e935875de56b9fece2cdc9d0c9359a56930a7fbbfb5337116f60001b620059fa565b620044d97f37a5344d8593cc0405c0415e4e47bc57677f78c6499e62b7b206fedb489e6b9260001b620059fa565b620044e36200885b565b50505050565b50565b50565b6200451d7f644bd4bced3b479c154eeca48d6f4671c259c7e141fb03b50119e2191bedd28160001b620059fa565b6200454b7fb2e493fbea61a28dc3a0bcbde10aee52d356393a6fc964252f51485fbcec722260001b620059fa565b620045797f609c802ad669539b39339b179e46d5684b53e48970b12ea9058dcacd32d5f2dc60001b620059fa565b62004583620084b5565b620045b17f2090c6457b1ee2a791b1d863dcf68daffba3ba180e7ef1f21e4e594e8515a6a760001b620059fa565b620045df7f55b2c706edc1fac40420f6b6ee2c7fb303ddd3f3b2e904e75d52c6bfd88e56fa60001b62001526565b6200460d7fc498ca4ed44b1ebcfc965c587448a4caa7674ba28574ad44c701d0b18d270cc260001b62001526565b6200463b7fc0eb990e8883f9af90f456b244df4424ef0fdb6588346633543bc7fad5d1535e60001b62001526565b62004645620088ef565b620046737f44575eacace6313d4ce3cb25629c3a9f23ce0f7905ebb1784022d4cd23e99a9260001b62001526565b82620046a27fd019e364bc567763c5cf29fcb91e73ac132a837ff5beed107d1bf7ed3ea6659360001b6200587a565b620046d07f70cd91fd7e5ea27c99802ba8472b1f1fa50b4af796a4cfa65d19644c7772383260001b6200587a565b620046fe7f8363065871da8054dd3aaf202ef98976df5fe3168912bd8b2b4ac39c7a88677e60001b6200587a565b62004709816200bb58565b620047377f73e72c079a5a4cf3abe5d6ab7bcd7a86ee7587b982a05134fca2319a13e458e660001b6200587a565b620047657f5d8432db02c7239bfaeedd77a03a4593dcd61c6c21f4a98157f843ae0cc0cea560001b62006528565b620047937f7459874e74854f5163680e0c924b4314a0d4f9c94dd438efb4416a5a628d1cfd60001b62006528565b620047c17f1dfb45fcf173d023b8484c057fedd23d1f3a7f0e8a95a2f4f4f1a6bbce933a5a60001b62006528565b620047cf835183516200b68f565b620047fd7f60751eaa18660c430d0f44b995916ccd38e1b6146271826efb26ac7c62ee1a5060001b62006528565b6200482b7f9ffcdaa971cbe87e70b6d652fc8c3982af6b00d1b18d41381d8f7fcde24b69ee60001b62006528565b60005b835181101562004a5357620048667f3eebaecf162eaa9cf1f2e14ee94f380033a87baa796cde138d57c7388668e91460001b62006528565b620048947f9774aa9ca691bd284aaa47ebbdd0341a71dab828c93b2c75de3152cb74f68b5160001b62006528565b6000848281518110620048a357fe5b60200260200101519050620048db7f48bc54bf6a9a768ec458574d096a37a7c44a72fe7cf642d4cde112a8c23f7cf960001b62006528565b620049097f1411f052158bd06ccf6b1fbd46cf94a4f1ddcba087efa194e3c98de0426a4eca60001b62006528565b62004947600073ffffffffffffffffffffffffffffffffffffffff168273ffffffffffffffffffffffffffffffffffffffff16141561013562000d70565b620049757fd463e3b0c692d80b2792b7575d406aecb7e7cea0c2c7efcb5c1675cb7866895660001b62006528565b620049a37fe2b24097f1de200c3526979aa69efc269a6b18924677f921c943252a534c851160001b62006528565b838281518110620049b057fe5b6020026020010151600a600088815260200190815260200160002060008373ffffffffffffffffffffffffffffffffffffffff1673ffffffffffffffffffffffffffffffffffffffff16815260200190815260200160002060006101000a81548173ffffffffffffffffffffffffffffffffffffffff021916908373ffffffffffffffffffffffffffffffffffffffff160217905550508060010190506200482e565b5062004a827faf22782fea361f8af9e360b0478006e4d4a9c6eee2b25d176ec1e2a352ec408b60001b62006528565b62004ab07f8e87f3e1ae73af279c73457a4e13bf4991fa7bf8265983eddd413aee246039d160001b62006528565b600062004abd856200bc92565b905062004aed7febcbc11fb0424e0c97e52f7d90f270b623adfa436b4b8ae72e3a6e99a3ffccc860001b62006528565b62004b1b7f625c7c756d832115bbf959fc05f135016bc6bc3a761a1bf8f368441836a8c9e860001b62006528565b60028081111562004b2857fe5b81600281111562004b3557fe5b141562004c715762004b6a7f8aaf68c363f9bef6dc4064ef1cd3b1ddd81c89b666932dc114e8e406ff0ac31360001b62006528565b62004b987f8e13359e2bc39bed10cf5a1a55aa5b412e66ac223a44bb502d244f81db9230f760001b62006528565b62004bc67fca67c3edb82d67a1151cbfac53b9b15bc124e63f94c1021f39013199b75d11a960001b62006528565b62004bd8600285511461020c62000d70565b62004c067ff48ccc91d04c8aac5fb1c22c5efb5b5c496ec16eb68cfb2255f39b800bcce8b660001b62006528565b62004c347f101549643d99314c2c03983c133d0c02c378b1a361ef18865b58afc979b0c6a460001b62006528565b62004c6b858560008151811062004c4757fe5b60200260200101518660018151811062004c5d57fe5b60200260200101516200bdd2565b62004e23565b62004c9f7f3c95f6a402b590f23c3f61e582debe6b798874ea31ea86e6a9024e55560ce40a60001b62006528565b62004ccd7f4575640bdebcfc294e7bd4042d20182c3da41f61fb3137e5e0a1e89cbf2d60ab60001b62006528565b6001600281111562004cdb57fe5b81600281111562004ce857fe5b141562004d8b5762004d1d7ff109de2f4ad5475004191ee89e943062443417a9fbd73cb7612b16e7251ae49260001b62006528565b62004d4b7f7e4f81cb4017cb37ca381e7d575c69f4baf30475ca5a914f95addddcc863637660001b62006528565b62004d797f761fa401893aa274f9cd4b95033c847cfe2c14e8ed170f266c187981c27b6c9660001b62006528565b62004d8585856200c201565b62004e22565b62004db97f643a61cfe6c8644734b55095a16a90ea96d7393d5b621e737b5bf96057c7b05b60001b62006528565b62004de77fe2da895265ae24aa838638c7a8756d9c370585bc5cc998d034deee046c20200260001b62006528565b62004e157f45a0c0573797f46bedcabd5b942c3d63c9047b68859072082eb63b22daad482160001b62006528565b62004e2185856200c411565b5b5b62004e517f367203352c401662af654bb03f9bf1489afb87100d72a378991f5ec62cfcac2360001b62006528565b62004e7f7fac558443780abdcd5bb97d137f197ffd0f78a950ca413ef9c3bb6280debd144360001b62006528565b847ff5847d3f2197b16cdcd2098ec95d0905cd1abdaf415f07bb7cef2bba8ac5dec4858560405162004eb39291906201ef19565b60405180910390a2505062004eeb7fb60a234b3cb4b1e935875de56b9fece2cdc9d0c9359a56930a7fbbfb5337116f60001b620059fa565b62004f197f37a5344d8593cc0405c0415e4e47bc57677f78c6499e62b7b206fedb489e6b9260001b620059fa565b62004f236200885b565b505050565b62004f567f644bd4bced3b479c154eeca48d6f4671c259c7e141fb03b50119e2191bedd28160001b620059fa565b62004f847fb2e493fbea61a28dc3a0bcbde10aee52d356393a6fc964252f51485fbcec722260001b620059fa565b62004fb27f609c802ad669539b39339b179e46d5684b53e48970b12ea9058dcacd32d5f2dc60001b620059fa565b62004fbc620084b5565b62004fea7f2090c6457b1ee2a791b1d863dcf68daffba3ba180e7ef1f21e4e594e8515a6a760001b620059fa565b620050187f55b2c706edc1fac40420f6b6ee2c7fb303ddd3f3b2e904e75d52c6bfd88e56fa60001b62001526565b620050467fc498ca4ed44b1ebcfc965c587448a4caa7674ba28574ad44c701d0b18d270cc260001b62001526565b620050747fc0eb990e8883f9af90f456b244df4424ef0fdb6588346633543bc7fad5d1535e60001b62001526565b6200507e620088ef565b620050ac7f44575eacace6313d4ce3cb25629c3a9f23ce0f7905ebb1784022d4cd23e99a9260001b62001526565b81620050db7fd019e364bc567763c5cf29fcb91e73ac132a837ff5beed107d1bf7ed3ea6659360001b6200587a565b620051097f70cd91fd7e5ea27c99802ba8472b1f1fa50b4af796a4cfa65d19644c7772383260001b6200587a565b620051377f8363065871da8054dd3aaf202ef98976df5fe3168912bd8b2b4ac39c7a88677e60001b6200587a565b62005142816200bb58565b620051707f73e72c079a5a4cf3abe5d6ab7bcd7a86ee7587b982a05134fca2319a13e458e660001b6200587a565b6200519e7f835c0c93535b4fa1da0bcae8adafb484310fae04ee801d73d6f8b44597f0b00560001b62006528565b620051cb7ec24e0fd2669c2169a4191ed0c73d7cfd0ba4111229e2b9d4230c5dad23434c60001b62006528565b620051f97fc0d293eada10879277cb8a9fc4dd68ebddabe61dd3e263fb150b7a5bf5bba8bd60001b62006528565b600062005206846200bc92565b9050620052367f2dc8d0f5f8aac0b3313113054fe1b9a3680443c940b09101f46e41aaceb2d28c60001b62006528565b620052647f15a644a3f52bdf787ef920d14599c7fb9a6df8e8816a05c5ad6889eb61b265d360001b62006528565b6002808111156200527157fe5b8160028111156200527e57fe5b1415620053ba57620052b37f188bdd4fe4facac0d3cb4362a6351d22ebea05c52e528a1d0fac4fbca94b250e60001b62006528565b620052e17fbff11c38ae118d80410799f55462267e722da8c71360f1e01e86ab326fc07efd60001b62006528565b6200530f7f9a55d85e4e9d3bff1d501eecdf577e32a37f4c3f1883365040212a5012e360a660001b62006528565b62005321600284511461020c62000d70565b6200534f7f614504057d8c0a8a2bc6939d4ebca481f648d60e1b4ad42dc3bf17e53d3286d560001b62006528565b6200537d7f3ac960f3e45e1fbb3b6744dcfcae32bc8fdcb47754de76b911cefe38bfa550e660001b62006528565b620053b484846000815181106200539057fe5b602002602001015185600181518110620053a657fe5b60200260200101516200c626565b6200556c565b620053e87f4ce2acf1dc7801bd31e325d46c0580847cf26858c41e16fdb84ab47d364a6ddc60001b62006528565b620054167f60c733488016f6ff43ef1e3364b030ecbc1fe84c71f0d4327c9bd9f73ca9d51560001b62006528565b600160028111156200542457fe5b8160028111156200543157fe5b1415620054d457620054667f434d9d8c54ea9a043c9d02c192c9a367665a03d293189f55ac31013159b52c0d60001b62006528565b620054947fb9f7e91310a556884bd7bc6b9b1ad1f0850eb00e4ab5d6cf55d7337ea226541060001b62006528565b620054c27fc02196f00518a4d68fdd853f320ed1a5e11c3cfc26db5d048413e44fdff1772560001b62006528565b620054ce84846200c820565b6200556b565b620055027f3797303d9c2c5e7f25015692bc2b691e928fd0ae9cc6b473c0657adef20f52ba60001b62006528565b620055307f223da57ecc2e767f78b4c3dfe888359dc173e0ba5e054c147889a75363ad364f60001b62006528565b6200555e7f104fa778a37303f2babedab4d6b27e625718cae3e8d8596271dd85a07523d17c60001b62006528565b6200556a84846200cbd8565b5b5b6200559a7f3e27a236957488280bef81602ac2ef9e58f948defb21984c8310e70b23eb009760001b62006528565b620055c87f7dedce75bc59274b713b2702d036bef09d605ec7794b1a716cfc8f1388758b8e60001b62006528565b60005b83518110156200569657620056037fb90e077f7ab7a43436168fb4818a9e1cdaf2ebb79c233d22783c51022d0d44e760001b62006528565b600a600086815260200190815260200160002060008583815181106200562557fe5b602002602001015173ffffffffffffffffffffffffffffffffffffffff1673ffffffffffffffffffffffffffffffffffffffff16815260200190815260200160002060006101000a81549073ffffffffffffffffffffffffffffffffffffffff0219169055806001019050620055cb565b50620056c57f4b0ed79e2f6d190e2c113c10d4e9519608792dde728065e7fd1de18da929254460001b62006528565b620056f37f11e20d9117fc8280ae3d0561b06f3ee31ecea902d2e212ab2c68a364bf14935360001b62006528565b837f7dcdc6d02ef40c7c1a7046a011b058bd7f988fa14e20a66344f9d4e60657d610846040516200572591906201eef5565b60405180910390a250506200575d7fb60a234b3cb4b1e935875de56b9fece2cdc9d0c9359a56930a7fbbfb5337116f60001b620059fa565b6200578b7f37a5344d8593cc0405c0415e4e47bc57677f78c6499e62b7b206fedb489e6b9260001b620059fa565b620057956200885b565b5050565b50565b6000620057cc7f4d573133ce520db9ac8fcc17a4a109e17cde6e632ece08c89418b284bc44a67860001b620028ce565b620057fa7ff3dc7d107ec34169a12de6b8dc70021c704b1c6bfe98a174ebf6a95d17c3ffa960001b620028ce565b620058287f05423f9efef992bd3c316d35c411d077b1697419a0b4608f5649a0d610dcab4a60001b620028ce565b7f0000000000000000000000000000000000000000000000000000000000000000826040516020016200585d9291906201ed59565b604051602081830303815290604052805190602001209050919050565b50565b620058ab7f1e22420b12211733e3ab51858e3fc600abd64407edc33cd60964a81ce9b14baf60001b620044e9565b620058d97fe376b98739824da7acc8661f1c7719b5e02b6cf53c6118158eb9ea1825f5e87760001b620044e9565b620059077f21201d40db7e5d2eda1d24d2d522a5517995b2deb3d75f343acc55eaf84ecd0c60001b620044e9565b6200592160018585856200591b866200cebd565b6200cf2b565b50505050565b6000620059577f43d3be98a9970c0af43a6584c8f40ea5bf6763cd1362cd61fa6fbcf30be749ba60001b6200780c565b620059857f676326ca499a20adfe57e5c14d00a1dab2efbdc9a3867c4ddf4f419c56a6b0a360001b6200780c565b620059b37f71c56ed16121f0d7b661e9446322c6853cc113e272339c276fbc81c8a599d60260001b6200780c565b600260008373ffffffffffffffffffffffffffffffffffffffff1673ffffffffffffffffffffffffffffffffffffffff168152602001908152602001600020549050919050565b50565b606062005a2d7f644bd4bced3b479c154eeca48d6f4671c259c7e141fb03b50119e2191bedd28160001b620059fa565b62005a5b7fb2e493fbea61a28dc3a0bcbde10aee52d356393a6fc964252f51485fbcec722260001b620059fa565b62005a897f609c802ad669539b39339b179e46d5684b53e48970b12ea9058dcacd32d5f2dc60001b620059fa565b62005a93620084b5565b62005ac17f2090c6457b1ee2a791b1d863dcf68daffba3ba180e7ef1f21e4e594e8515a6a760001b620059fa565b62005aef7f55b2c706edc1fac40420f6b6ee2c7fb303ddd3f3b2e904e75d52c6bfd88e56fa60001b62001526565b62005b1d7fc498ca4ed44b1ebcfc965c587448a4caa7674ba28574ad44c701d0b18d270cc260001b62001526565b62005b4b7fc0eb990e8883f9af90f456b244df4424ef0fdb6588346633543bc7fad5d1535e60001b62001526565b62005b55620088ef565b62005b837f44575eacace6313d4ce3cb25629c3a9f23ce0f7905ebb1784022d4cd23e99a9260001b62001526565b836000015162005bb67f8f905354554b45cc409e78d840583824a2f1300f15026896c037ebe7cbb98a0160001b62006e97565b62005be47f12b239c6c614a6f0180d849227a66637e852fccde2b3c004f53e3d9cb03f00af60001b62006e97565b62005c127f0985dce6b0021ad9ff7c8bff45a3117889e6a12f87564a12662519e903e168ca60001b62006e97565b62005c1d816200a0a3565b62005c4b7fb5491683589dee49db0bed4b831df1256d452266bfb8cb8c20474f50cc82af5660001b62006e97565b62005c797fa5088803fb1f35c74e505773c95e3b1ebd3614c7a09767991349aabc492080e960001b620028c5565b62005ca77f27312706fabb4826ba562ac3fccd98bddb056c0a1b9a0da52559197f876ed08260001b620028c5565b62005cd57fb3d7ce5bb2e06720a111b4388f9430ff98626bca7fa01cdf4c4a952eb30bf05860001b620028c5565b62005ce6834211156101fc62000d70565b62005d147f86b13fe636a3e9ab0639bf03fd6dbeb7a0eea290750db38981ebd94b6550cab760001b620028c5565b62005d427f5ae9078aa31a7333c69bc7def486dae44a51b503e09e78cc27ea75b9bc949c7260001b620028c5565b62005d50865185516200b68f565b62005d7e7f0d1f66cc5bb7025e5ab27ad2c42c715019e8955f184bdb206bdf3ca64c77144960001b620028c5565b62005dac7ff30458c8ff621fc16fac911c6fa7a12445581f1ea19bd3cbed58793a4dbd149260001b620028c5565b62005dba8787878b6200d8a2565b915062005dea7f7c10a37d1974c392e064a57cadf7810aeb857c4c3ca51d15054e1d83a4940f9060001b620028c5565b62005e187f8432fa92559b6a4c9ef93720f92e13c3773a4b161ff2bced57de2199b00fccdf60001b620028c5565b600062005e487f9c4c36e1a163892b285ff959b5e64922fffcafe878adb2005812e9e4fd9400e860001b620028c5565b62005e767fb2d44cd46e56f2ee8db3e24128eb8bb337828567f0663540b0917ce9b32c48dc60001b620028c5565b60005b87518110156200644e5762005eb17f49ecca16b7ba6e73a1754816e1d95439877d079f5269ec24882366a53236d7ff60001b620028c5565b62005edf7f34eec464539eedf0c62ef729358536cecb4ff715410387a8c6fdac2297a674c460001b620028c5565b600088828151811062005eee57fe5b6020026020010151905062005f267f1c008a7a8693c51c5485cb90b78b9e2f25f70a545616163253cc169dc15bbb8660001b620028c5565b62005f547f395eefe5472cd2e529d183c1c604d73b1c09293a4f0535588313f2a1f28ab3ef60001b620028c5565b600085838151811062005f6357fe5b6020026020010151905062005f9b7f6314622946a20bb72d93b1b59d7b12ef970a5a2dfa8a1d9e598e1408d38eb07860001b620028c5565b62005fc97f4ebd82038cf3d5eeae2980db5bfe70d483c83e45975cb553c6749e7da878da1460001b620028c5565b62005fee88848151811062005fda57fe5b60200260200101518213156101fb62000d70565b6200601c7fe72def05cd2ec565b7feb7ee361466d068b176598c1e03d782fc0892bf5a286360001b620028c5565b6200604a7fc942419383b19679896b68779d8138370991da3b67f9b47939b2f106645bdabf60001b620028c5565b60008113156200629f57620060827f58f94f274be3df25bfe889419d89f18078be773a204055b477aa342dabeaf24360001b620028c5565b620060b07fa555b931f41c9d1e353650f87b110d44f9a5a27cbbeb6a8931695e2b357a0e9d60001b620028c5565b620060de7f2a443fd748f3e7acb52e750f2c64b4021ba69da755c915dd219f646dc4084c4060001b620028c5565b6000819050620061117f6cfb8491a4046a8d126744eaf35c27d9833c3bab7493ed598b11fc24ff46986e60001b620028c5565b6200613f7fc1e9dea3796ab5b7a6d5665d4294f056b4780d8ce864bc0da0a6eaa1f299f78160001b620028c5565b6200615583828c600001518d602001516200a95c565b620061837f5f37c0cbcd0e5e081a696af246ef47b8bd73d1d7c9145cb7f73f208a94b97c1d60001b620028c5565b620061b17f34bf73188c7a4f8a323ee9b61b44f2d242a2db0a5e023e27e9062c74b1179d4360001b620028c5565b620061bc8362009228565b156200626957620061f07f174bb4ed99b613382a2efad06ab1176405a7dc66bf3ff42acb3c87cc7431ee4060001b620028c5565b6200621e7f29b2951ad159381ab797b0a3b033e70fe43cb6099837e4d151cea74256f6b8e560001b620028c5565b6200624c7f1c35aeec0271be04c6a3c53eed506dfb4fb70afa43f5b12da9f2d1661da2c6ec60001b620028c5565b620062618186620092eb90919063ffffffff16565b945062006298565b620062977fd32aa0fe581d727803474e8445d81e3321aed75ad286c3fdb61eb6ccddf9716360001b620028c5565b5b5062006440565b620062cd7f88f66e7bd13d3bc0596ab4a350ebf0dd0aa13e99c3d6de84839b37d4c39080d060001b620028c5565b620062fb7fea8e171b1e92e908cfc4ab33d3b105d99da464af7431d4826c60c390341de56260001b620028c5565b60008112156200641057620063337ff2a365b57d922fd72a4648fc2937781605ac7d667c807bc37737e126530f383360001b620028c5565b620063617f2e61f4bb54df6322ef443bfcbbd2e4d01c6d92cdf18714037c642e573e18518c60001b620028c5565b6200638f7f4b376b2039bedea202ea7fb9114ebab15414275589a34b39f316b670e9ca1c5160001b620028c5565b6000816000039050620063c57f76df5f9f0eb55fa8150ef34087fea3e7cbcd6cfd5518f5c8ecfcad8acaa791c760001b620028c5565b620063f37f1381ad06ac61be432b72d933947be1d7e992c5ec0224ed818189947fdd88781960001b620028c5565b6200640983828c604001518d606001516200b07c565b506200643f565b6200643e7f1adbff02771cbbfccd1bd4239750267349140d499e2a821168478d541587e33f60001b620028c5565b5b5b505080600101905062005e79565b506200647d7fea09da3ab3f011804cbd12b8bca01ebfef9b5014eae69d9b9a3ec8927dc1f6de60001b620028c5565b620064ab7fa3ccbba12857118426f3afa21ed21854043fd46a78ad2c14c68712fbed66d71360001b620028c5565b620064b6816200983a565b5050620064e67fb60a234b3cb4b1e935875de56b9fece2cdc9d0c9359a56930a7fbbfb5337116f60001b620059fa565b620065147f37a5344d8593cc0405c0415e4e47bc57677f78c6499e62b7b206fedb489e6b9260001b620059fa565b6200651e6200885b565b9695505050505050565b50565b50565b50565b6000620065617f207b7fae1a7453931f9fa81364d21cf76324b9ee9d2edc1f1b10823ace798a4960001b62006e97565b6200658f7fd30cf123c9f3585edaf87807906b73212758a63d3bb3b072c371f22f77d30c7160001b62006e97565b620065bd7fb19c7f2a49ac1c00f54540d309a635d98eb609916dc501cabc16a36e30bbd7d960001b62006e97565b600360019054906101000a900473ffffffffffffffffffffffffffffffffffffffff16905090565b6000620066157f839a7cb6fe6bd411c0c256d16bd7bd9ecf4c6216a7bda2e365042105ae06420260001b62005799565b620066437f0a82aeaac44744155133b59a476c7e5bd2acca45155381e044445cf09db2b8f660001b62005799565b620066717f881725e21bab30c045c59c0b2b2fa33e7d0ebf65a5b131443fd65fd0cda85f0260001b62005799565b6200667b62000cbe565b905090565b60008060008085620066b57ffd6a4721c941c9f48610e7bea0d7461334e40c31fd895160754c9295778e436f60001b6200587a565b620066e37f90aa5337c59450bde6a49b752050b64227a2691d2439e1f5e1cb90f1e644b79160001b6200587a565b620067117f779965f4254dc88c5af36c4b7c06c5707d070f8e40b3def6fdb5b118f9389ec560001b6200587a565b6200671c816200e833565b6200674a7fcf185d0a3c3cd3662ea516beebb563c3098bb3cd8d3540e3db862e35c4e6ba1260001b6200587a565b620067787f3a2ec0695724aed0bf22f1e9aa35267b37817eaa7dd547e1e12971e155003b5160001b62006528565b620067a67f438f167556fd67c76e3a7e830894e5372555c720aba612ed82dde13eaf21f90460001b62006528565b620067d47f40b97dbf5a919ee97a99a6bb5ed02fce5589e126f18f63f31347e30aab90e20460001b62006528565b6000620068047f6876b803b32768866c676e287e2cf9dbbafc1d84cc33e7c3c50b3c19c5c0837c60001b62006528565b620068327ff797f3ab18e3999f249577664e0bd55cdb93b5794ef7c9d088b5443c881eb0f760001b62006528565b60006200683f896200bc92565b90506200686f7f10f05f05d0e970d40692a3eea334ecdf86d875ba4009123d2f8ea0ce32c56c0c60001b62006528565b6200689d7fa781b101b7ef5490d2649f89f0b3267339de93761c6a1b077064928b463deb8460001b62006528565b600280811115620068aa57fe5b816002811115620068b757fe5b14156200695c57620068ec7f7559157f9aa14b9d8916ed8e6f21a044f29df90ac193899183cc35bfe74db65560001b62006528565b6200691a7fbf0344864ec005f69d5664c8d27813638a492e27ac4183fe06acfbbefb7d2c0d60001b62006528565b620069487f2cebba9f092e6ef3eb032e55cc64c03b7d151c9cac37e5ea304c069df43aa07b60001b62006528565b6200695489896200e8ee565b915062006b12565b6200698a7f8e090e364c9c1d860db997bfff76ca45ccac2fa35664918d5b538be7380ecbec60001b62006528565b620069b87fbdfc3d5208536215bc291bbb25a82c0fd2c69dfc61b1d845b320486bf9a1009460001b62006528565b60016002811115620069c657fe5b816002811115620069d357fe5b141562006a785762006a087f0891dd1e1dacbfe70afeed170207932d93a69e88c55b1581f7e17c3959add53c60001b62006528565b62006a367f467dd34f78b9147c1d613b57c894a0ddebab27a66fdceb12d30d4e193fa743d360001b62006528565b62006a647fbd430ff74d631a6df5a07372d1f18bfb448fb47bddfefbf4504201e51cd2e45960001b62006528565b62006a7089896200ec86565b915062006b11565b62006aa67f3fbb28c86171af45d53501e0c3f9b3003bf08cf74b3ef03f038c624a136adb3a60001b62006528565b62006ad47f0a5c5453f2f546ccb024e116a7b8900cb8a9ad8fa120797005a6c6ee4392ae0f60001b62006528565b62006b027ffa5b08bfdbaacbf4a6b19ec0aeb64e527bddc2ef5a3bd28632d628647d2b7ba360001b62006528565b62006b0e89896200effd565b91505b5b62006b407f662bea494ead7f2fb1876739b2ac34d9f127627ccb3e2b52f8ed8cb43c17463160001b62006528565b62006b6e7f16656839086509182d31c59c0c55b79676054f1dabed71ad126f3cb96111c3c060001b62006528565b62006b79826200f111565b965062006ba97f0879fd01c7afbd43320c96109e2b91508a8ceb4a905483db31133f685c10d82060001b62006528565b62006bd77f6a76cb36f49b0ea29ecb9df364c3dbe748a3d661e02f7f5c712d5fd03e77bf9660001b62006528565b62006be2826200f21a565b955062006c127f5c4ffcde2ae9462953349ed6fd461972bc9c81efcbdb0cd8e07acf70d5790ae060001b62006528565b62006c407f475bfdfc942c79736de8e170ce5eca56400d341be835d763e6952054550acb0360001b62006528565b62006c4b826200f326565b945062006c7b7fc9af66b33d84bbf1a9f6025852b5e22d0d09c591d0a78d3739392ad8f2b5779160001b62006528565b62006ca97f4b66a199321b87652f96ff7e53aff27e39b2d59b7899a148bc4555553ec3dffe60001b62006528565b600a60008a815260200190815260200160002060008973ffffffffffffffffffffffffffffffffffffffff1673ffffffffffffffffffffffffffffffffffffffff16815260200190815260200160002060009054906101000a900473ffffffffffffffffffffffffffffffffffffffff16935050505092959194509250565b62006d567f55b2c706edc1fac40420f6b6ee2c7fb303ddd3f3b2e904e75d52c6bfd88e56fa60001b62001526565b62006d847fc498ca4ed44b1ebcfc965c587448a4caa7674ba28574ad44c701d0b18d270cc260001b62001526565b62006db27fc0eb990e8883f9af90f456b244df4424ef0fdb6588346633543bc7fad5d1535e60001b62001526565b62006dbc620088ef565b62006dea7f44575eacace6313d4ce3cb25629c3a9f23ce0f7905ebb1784022d4cd23e99a9260001b62001526565b62006e187f3ec0af73b3b3ad6d7c4ff30f93a66a70abae4bdc8817351cf5a34f41a838cbdf60001b620044e9565b62006e467fe4b3b3ba81bbc4b13cacb970b3e15401ad89eb7a69435fd0748324bd62efd12060001b620044e9565b62006e747f63420789430fa27eaf453dac9fcdf1866f4f7370159a5240292ca75129b3d7bd60001b620044e9565b62006e8e600085858562006e88866200f429565b6200cf2b565b50505050565b50565b50565b600062006eca7ffeb7fb21a9aa70fecd9df76ee75dc0bc3506105570f38f2284d5880984a243e760001b620028c8565b62006ef87f2d92614c60f86252bc66b4123a043c68d21f85e9fbe2c62945395ee650a23ff860001b620028c8565b62006f267f17ec84505b5d39ce06b1bb187c9b9406665e22c3f6500fa21c2293d9b56396b060001b620028c8565b7f0000000000000000000000000000000000000000000000000000000000000000905090565b50565b50565b62006f807f644bd4bced3b479c154eeca48d6f4671c259c7e141fb03b50119e2191bedd28160001b620059fa565b62006fae7fb2e493fbea61a28dc3a0bcbde10aee52d356393a6fc964252f51485fbcec722260001b620059fa565b62006fdc7f609c802ad669539b39339b179e46d5684b53e48970b12ea9058dcacd32d5f2dc60001b620059fa565b62006fe6620084b5565b620070147f2090c6457b1ee2a791b1d863dcf68daffba3ba180e7ef1f21e4e594e8515a6a760001b620059fa565b620070427f55b2c706edc1fac40420f6b6ee2c7fb303ddd3f3b2e904e75d52c6bfd88e56fa60001b62001526565b620070707fc498ca4ed44b1ebcfc965c587448a4caa7674ba28574ad44c701d0b18d270cc260001b62001526565b6200709e7fc0eb990e8883f9af90f456b244df4424ef0fdb6588346633543bc7fad5d1535e60001b62001526565b620070a8620088ef565b620070d67f44575eacace6313d4ce3cb25629c3a9f23ce0f7905ebb1784022d4cd23e99a9260001b62001526565b620071047f02a1bfddfd05455a99c6b8ac7cbae88e216ec0cf5d9456e354feda8adc96bad960001b62006f4f565b620071327f6610ce82dbe9dce5431a0238002d36916f3d412987875d566a56bfe37b2a746860001b62006f4f565b620071607fd6b42629eea089d4cc2252ff3be5ad4da2587ba558ed87f1c4aec7a835109fb860001b62006f4f565b6200716a6201d36d565b620071987ff67abd737ba1255d6de88a84df74f40056d0f5779152aaef5fba0a12ceb3852c60001b62006f4f565b620071c67f5dea49fe70edb02d0d0a2328c6569f3c8cecb148c16fd8d2780d8f908b6f57b160001b62006f4f565b60005b82518110156200770757620072017ffc1916974910eff571c736a819c3931a93fcb337ba495fa6711c16040c5b754860001b62006f4f565b6200722f7f4fc4f75323bd6dbac6da3b045c4cac25d9b5d077c8e238248eae88b8bc4fc1a060001b62006f4f565b8281815181106200723c57fe5b60200260200101519150620072747f3f2aec092ebd0138bf9400824c0fce209df00eeaa287b848bcae90802d294e7960001b62006f4f565b620072a27f3550ebaecb8d2e80bceba426523b6b25f131e7d2823b75e3c90b3f5b9dd8425960001b62006f4f565b600082602001519050620072d97f18d369ce233d2a6ed46101c6baaaf95f57ed6e1e3270b3dd07b07c61d34caa5d60001b62006f4f565b620073077fb460ca30e8a8d375599b044ace18917263b997fc44f16005e09b903eff2e446c60001b62006f4f565b62007312816200e833565b620073407fec7e24d7b60727391f8be67bcd2ac7e18d825ee48be604d0f533cf28c474a11a60001b62006f4f565b6200736e7ff3cce52ff3781ec7267c3674c6f8d01d7698d9f93c542ea3c3484f5a5cd3976560001b62006f4f565b600083604001519050620073a57fe19e6d3f22478aaab77e20f739e59023ff9653c7953699cbf62789487c66801a60001b62006f4f565b620073d37fc68acff83501d88d00ed0caed21fdd8a9afa301816a53252fbb37e6a611ae54a60001b62006f4f565b620073ec620073e383836200f497565b61020962000d70565b6200741a7f5e3045336521b8981672e930ef7441f4c515f78fb0ce3d6810d8ec0d5cef81ca60001b62006f4f565b620074487f23f7684ecb227a8a4e9296236bdc3f0ea923709d8d0e6cda557251467695af4860001b62006f4f565b620074f43373ffffffffffffffffffffffffffffffffffffffff16600a600085815260200190815260200160002060008473ffffffffffffffffffffffffffffffffffffffff1673ffffffffffffffffffffffffffffffffffffffff16815260200190815260200160002060009054906101000a900473ffffffffffffffffffffffffffffffffffffffff1673ffffffffffffffffffffffffffffffffffffffff16146101f662000d70565b620075227fe5af7eb2bfa376335763abcf3e123c1eeed4704afd54caa69778d3e7dde42f9d60001b62006f4f565b620075507fee94c87e7f2e790c1c339a9864d73ac11834a1dd43479233ade7048b9bd83fe760001b62006f4f565b600084600001519050620075877fa370c5788b3e7301c4f11f65026ee73c37922fbe7e01b5607b1fa7d9dd773a2160001b62006f4f565b620075b57f4936489bd20ecf031b76a4b4df066676cf5895327a8aa759853317ee4318a2be60001b62006f4f565b600085606001519050620075ec7f647582a780885a20f5163145b1d487341bf137f16df00019cbc4ae1655c987f160001b62006f4f565b6200761a7f46546cfb4fb063b8808923fa2ceb1b51a34916f56537fe4f96826934f02bedc860001b62006f4f565b6000806200762b848787866200f80b565b915091506200765d7f7fba31fa0b5f5fbcf6fd90daf399bcae36d46c5086e78e96088119ac2fca06be60001b62006f4f565b6200768b7f64e7aeaff39f1401a982893cf454bb10f256a41b088bf06cf73a67cee807e17960001b62006f4f565b8473ffffffffffffffffffffffffffffffffffffffff163373ffffffffffffffffffffffffffffffffffffffff16877f6edcaf6241105b4c94c2efdbf3a6b12458eb3d07be3a0e81d24b13c44045fe7a8585604051620076ed9291906201f379565b60405180910390a4505050505050806001019050620071c9565b5050620077377fb60a234b3cb4b1e935875de56b9fece2cdc9d0c9359a56930a7fbbfb5337116f60001b620059fa565b620077657f37a5344d8593cc0405c0415e4e47bc57677f78c6499e62b7b206fedb489e6b9260001b620059fa565b6200776f6200885b565b50565b6000620077a27f9630d213e6c78be7a54a3a7c0073585b55775fdcfdccf3a67a6b1fd75fdde32660001b6200780c565b620077d07f01379c48f1ff547176df569f3dada1dd54ab118e59d0da4b8bcbb3694dabc5b460001b6200780c565b620077fd7ef1c2778f75ad635372edac9a2e4c78bd1bc0d69bb54a89a8f46d86a23dd90a60001b6200780c565b620078076200fb90565b905090565b50565b60008082620078417ffd6a4721c941c9f48610e7bea0d7461334e40c31fd895160754c9295778e436f60001b6200587a565b6200786f7f90aa5337c59450bde6a49b752050b64227a2691d2439e1f5e1cb90f1e644b79160001b6200587a565b6200789d7f779965f4254dc88c5af36c4b7c06c5707d070f8e40b3def6fdb5b118f9389ec560001b6200587a565b620078a8816200e833565b620078d67fcf185d0a3c3cd3662ea516beebb563c3098bb3cd8d3540e3db862e35c4e6ba1260001b6200587a565b620079047f0334626a04dd74df66ba1d27363cb0ef995b22707babdb0b4b75f249140249eb60001b6200587a565b620079327fe2375958ff65ee8b9b4745541537bf7137a73558bf12e370c6c2f07af1dfec1960001b6200587a565b620079607ffb8d63ab3b03daef543a5a130596d19674442d8393d75af27ba16c2181bbe57c60001b6200587a565b6200796b846200fcbb565b62007976856200bc92565b9250925050915091565b6060620079b07f38dc20839791e9e892b15da0c12fe4200a7219f2fba7a54d8284c4b201a54b9f60001b620028c5565b620079de7f705acaf5eae7a76d2edb554f63d78ba60c44e895f1690bb57ff024e9c60af1a960001b620028c5565b62007a0c7f90d1b7aee8e2b0ff2ffe8bfbec494cd29d6d0d4c99a1e660b37e6d8f69d3e5f560001b620028c5565b3073ffffffffffffffffffffffffffffffffffffffff163373ffffffffffffffffffffffffffffffffffffffff161462007bf05762007a6e7f84fd7c358261eb9bebf791503d15394eca6a690129af75de3aa25990a835807260001b620028c5565b62007a9c7f2346927902be3840f1a174f410e294075826e57306e5285f0f180f2e4c04847460001b620028c5565b62007aca7ff44f91aaf5bf7f1f32e3d0c6917db21d6d2a651e2545badb4dc22b4d1acb3c9260001b620028c5565b60003073ffffffffffffffffffffffffffffffffffffffff1660003660405162007af69291906201ed89565b6000604051808303816000865af19150503d806000811462007b35576040519150601f19603f3d011682016040523d82523d6000602084013e62007b3a565b606091505b5050905062007b6c7f7736793df7ff4ab8d75b05f66baa8bef034122518371e6d84ef4c3548ff6988b60001b620028c5565b806000811462007b7857fe5b60046000803e7fffffffff000000000000000000000000000000000000000000000000000000006000511660007ffa61cc12000000000000000000000000000000000000000000000000000000008214141562007bd9573d6000803e3d6000fd5b602060005260043d0380600460203e602081016000f35b62007c1e7f54642cb57947d7ab8fa81a3106d0a99357ebe4958bace30a1a2cc2f9ff8fcb6d60001b620028c5565b62007c4c7f1504d63c1a5202650c334dcc1574033a5ad46700cd34ba6b3ee70d886611f31460001b620028c5565b62007c7a7fbb16101c7f328fb60e1ccc3407521525130ca7c3d906ae9c18195b67561c7c1060001b620028c5565b606062007c8a858585896200d8a2565b905062007cba7f66337224b022bb8c08a7088245e40deea9dff0f3ed9e0e438d1484ca9ade3ecd60001b620028c5565b602081510263fa61cc126020830352600482036024820181fd5b60608060008362007d087ffd6a4721c941c9f48610e7bea0d7461334e40c31fd895160754c9295778e436f60001b6200587a565b62007d367f90aa5337c59450bde6a49b752050b64227a2691d2439e1f5e1cb90f1e644b79160001b6200587a565b62007d647f779965f4254dc88c5af36c4b7c06c5707d070f8e40b3def6fdb5b118f9389ec560001b6200587a565b62007d6f816200e833565b62007d9d7fcf185d0a3c3cd3662ea516beebb563c3098bb3cd8d3540e3db862e35c4e6ba1260001b6200587a565b62007dcb7f82b6045e691000f3b2f6dc8fb45c6b26d2a2088ac07c0c481626a5aed82f0c9460001b62006528565b62007df97fd73f335cdb1429b4be22b8e2238672b76c06bae112a1dfa1c648a0f5e7cd248360001b62006528565b62007e277f6b8117527325ef56215dd641ecf0fff7d91e930a7c17a8c98ce55927f450c9a160001b62006528565b606062007e577ffc0666a0dc8065c44ae7fc5ef115b36cd1e679021ae0db1f052602b7b6c0bbd860001b62006528565b62007e857fa39990398784e407b5dd3d6455d9d5953fb9317b73764181a7c7fc2d7b335eef60001b62006528565b62007e90866200fd56565b809250819650505062007ec67f4dc2c4bf94e411fd4d890f2a50c5a5dbcafcd02947b0af59148a0cfa7738a21160001b62006528565b62007ef47fb1c4118b34bb14aaf9e1bb1fb8e932091dcff411b60062b1479ced21add0ca1f60001b62006528565b62007eff81620100cd565b809450819550505050509193909250565b62007f3e7f644bd4bced3b479c154eeca48d6f4671c259c7e141fb03b50119e2191bedd28160001b620059fa565b62007f6c7fb2e493fbea61a28dc3a0bcbde10aee52d356393a6fc964252f51485fbcec722260001b620059fa565b62007f9a7f609c802ad669539b39339b179e46d5684b53e48970b12ea9058dcacd32d5f2dc60001b620059fa565b62007fa4620084b5565b62007fd27f2090c6457b1ee2a791b1d863dcf68daffba3ba180e7ef1f21e4e594e8515a6a760001b620059fa565b620080007f55b2c706edc1fac40420f6b6ee2c7fb303ddd3f3b2e904e75d52c6bfd88e56fa60001b62001526565b6200802e7fc498ca4ed44b1ebcfc965c587448a4caa7674ba28574ad44c701d0b18d270cc260001b62001526565b6200805c7fc0eb990e8883f9af90f456b244df4424ef0fdb6588346633543bc7fad5d1535e60001b62001526565b62008066620088ef565b620080947f44575eacace6313d4ce3cb25629c3a9f23ce0f7905ebb1784022d4cd23e99a9260001b62001526565b82620080c37f8f905354554b45cc409e78d840583824a2f1300f15026896c037ebe7cbb98a0160001b62006e97565b620080f17f12b239c6c614a6f0180d849227a66637e852fccde2b3c004f53e3d9cb03f00af60001b62006e97565b6200811f7f0985dce6b0021ad9ff7c8bff45a3117889e6a12f87564a12662519e903e168ca60001b62006e97565b6200812a816200a0a3565b620081587fb5491683589dee49db0bed4b831df1256d452266bfb8cb8c20474f50cc82af5660001b62006e97565b620081867f3dbe0b51928dbf2e0f4042e1f2a2762ac030c01152070d7f0a46dc881d6dd79260001b62006e97565b620081b47f14650c82eb5e3381baa69c1152f0b4c19fa30027800db530945db83666d941d560001b62006e97565b620081e27f88917e3abb49f96e2392fee93be9bccd4c4447fb4f647da06353aa1dd964772860001b62006e97565b81600460008673ffffffffffffffffffffffffffffffffffffffff1673ffffffffffffffffffffffffffffffffffffffff16815260200190815260200160002060008573ffffffffffffffffffffffffffffffffffffffff1673ffffffffffffffffffffffffffffffffffffffff16815260200190815260200160002060006101000a81548160ff021916908315150217905550620082a47f5c71400717868fc99d8bbc7cdf19a2a094e5e8c5cbc0fa9ad7336deef016574a60001b62006e97565b620082d27f98225df5af8b08d175c13aa62564ec54bfa309a050d2a9874c8c7db74862131260001b62006e97565b8373ffffffffffffffffffffffffffffffffffffffff168373ffffffffffffffffffffffffffffffffffffffff167f46961fdb4502b646d5095fba7600486a8ac05041d55cdf0f16ed677180b5cad8846040516200833191906201f0a2565b60405180910390a350620083687fb60a234b3cb4b1e935875de56b9fece2cdc9d0c9359a56930a7fbbfb5337116f60001b620059fa565b620083967f37a5344d8593cc0405c0415e4e47bc57677f78c6499e62b7b206fedb489e6b9260001b620059fa565b620083a06200885b565b505050565b6000620083d57f0c44b6b30320c1d2b2e4d0d2083510ddaa6efaef3d77596aabc267201219defa60001b62006e97565b620084037f38c868fc7c1b12d79c7042afb3ccf93ec3b7be8f9991bee56313df9945a3753f60001b62006e97565b620084317f438c6edd616d4d3c19b017be86375ee0efa62307b09b8c7ceaade03e5eca82ae60001b62006e97565b6200843d8383620103ee565b905092915050565b6030600a820601600a820491506030600a830601600a830492506030600a8406018060101b8260081b8401016642414c230000000160c81b7f08c379a000000000000000000000000000000000000000000000000000000000600052602060045260076024528060445260646000fd5b620084e37f9c87dc88b81e7686642aedd70d20b133dbc176c445084af25bea31a27461dd1060001b620059fa565b620085117f3f4b678c74fa9090d36668f40ba3dabb270c17224b669744008302951069813060001b620059fa565b6200853f7f2c14ea0fe249be4247a994e6a1b5d0cb1474f09e41d3cba4d0ccce1d4fdf822060001b620059fa565b620085536002600054141561019062000d70565b620085817fe0ee19ca399d3acda78bf6c90366d674c7f2b95a9d4f96582447df63b512ef3260001b620059fa565b620085af7f977cd7bf9c3a4e751ab85a761fa5ff058fb580adbabfa64efb14616fd13d315960001b620059fa565b6002600081905550565b620085e77fee6b13cc663fc83397456b0aa96802fb13538819560f9edb6f8e7b741a72f53860001b620028ce565b620086157f39ab045597dcd2e91680c88e6a16c3be9c35aec35abfd0a983b97db2747a626c60001b620028ce565b620086437fa7d629b89f18d2a342559332fb4bb334709674b097663cda4332f13762a4c77560001b620028ce565b6000620086746000357fffffffff00000000000000000000000000000000000000000000000000000000166200579c565b9050620086a47f1f27bb1c2197ceb722f7da0d0716224da6e67a5388819b6d33889e0d61317ea460001b620028ce565b620086d27f7da4f63bcb1bb19803d5a6d9059f7ad5906710c0ba0b6fe17e28839a722402b160001b620028ce565b620086eb620086e282336201050c565b61019162000d70565b50565b6200871c7f994e400e4f32d7cdb8c53fef7acdb00282e647a42f595d81bac3519df242c8e160001b62006e97565b6200874a7f5df4b375540a90af6f83e4fa125d83e04b3397d6dc64f01c7fa11cb3bd5f7b8860001b62006e97565b620087787f897b5b6ba782f80c1a9900e257644ed254418dfc9dad1f899e2010877ba715d360001b62006e97565b8073ffffffffffffffffffffffffffffffffffffffff167f94b979b6831a51293e2641426f97747feed46f17779fed9cd18d1ecefcfe92ef60405160405180910390a2620087e97f9e4c00f812c9d586999cc32655c596d8f15f98f3a20680b6ea8e67b40696e5d760001b62006e97565b620088177ff27a1e17c2d1957f0474315bdf8ca79a3a84a478c6a6292ca42c80acfab31efa60001b62006e97565b80600360016101000a81548173ffffffffffffffffffffffffffffffffffffffff021916908373ffffffffffffffffffffffffffffffffffffffff16021790555050565b620088897f32952cee8e7fcc2065f616ca5c8f65b8e5fa48efb4dbe47cf2c31c3387f29a7860001b620059fa565b620088b77f4808d1069bf8a25610b5c3ca97ee8811ae850b9e4134a3ff1869c2a89edec52760001b620059fa565b620088e57fbbc531cbafb07ffd26bcf8510c8bf4233dc2b30d7c364f7c165cb4673d352af860001b620059fa565b6001600081905550565b6200891d7f85f6e973e27fefe6b402922e42c696292a75244f5b976f605028fdea4699fdb460001b62001526565b6200894b7fb10f7bd59784e750806ab747485664fe82e7b9614d8271965117987f8299d0fa60001b62001526565b620089797fe0d1b3afed10517d38229a198eae9b028645c8411b030a95f9ecdfed78d7f1a760001b62001526565b620089906200898762009e89565b61019262000d70565b565b6000620089c27fbd22ed8b3f320fedfea9ad2eea9f92b3091c1b6821d77b0e59be7267ff9b08f960001b6200587a565b620089f07f7b95afe7d74014fc454dc3b09351ede80d47d9d5201cc1b7b7deb0e8e1690d2b60001b6200587a565b62008a1e7fd01a76aff040deec559c7922bbcd5a527c3df630d280a524a7b9ddb22842e55d60001b6200587a565b600062008a4e7fff675047dfaee276f48c7aa4f4ba8e23282564966727c5397232e813b374b4ac60001b6200587a565b62008a7c7f7ed6c13d6d9d9d17445cb45a0e0f6cfd5c62f3ee26f7d1444d44f4c77b13b8b960001b6200587a565b8269ffffffffffffffffffff1660001b8117905062008abe7f2948912b3a5fea0db2090c5dafe00443352fc296894fab88e0525b101d4d9dc360001b6200587a565b62008aec7f4dbe7fcf2e501fd41453baf5aadbb307a2c5cbacfd39b2b9d6a78dea8f69402460001b6200587a565b605084600281111562008afb57fe5b60001b901b8117905062008b327f37594a79f03e15f35b44fd05f1ab9d8ec0e40b5cf40352c3f921fbd7d5e86ba360001b6200587a565b62008b607ff8eabbd309b48baa8e48edbb0b89750d63168af5ce0c75b56f448636f25fbe9f60001b6200587a565b60608573ffffffffffffffffffffffffffffffffffffffff1660001b901b8117905062008bb07f5b10e8361ae1b061a27b40d9fdfa097afd0b26f1f55aebfe0fd6c8864c339b3a60001b6200587a565b62008bde7f0656cb9b5a12661bb77f55fbb70ac2031d4caa6bc5f5465df9bdf6f538f7ea8c60001b6200587a565b809150509392505050565b60008060008060008062008c207f262ee0808e7bc47e4d2356b40ef9801451ba67671d0499f2acf84a9f1313099f60001b620044ec565b62008c4e7f2cec61075e80c786b21b7952387ab1a714dec61a36750e30402e06ef198f6e0860001b620044ec565b62008c7c7faf1ecffd626939f5624dc3e31c1d97e01430dea47be0f6000a5ba57712b2083460001b620044ec565b60008860600151905062008cb37f2a4bbd0c08fafdd707e2b4866e8aef2caceec72e4eadc74913ab28cc11aa6f7060001b620044ec565b62008ce17f374e6989af4acd13ead24bd6c41f0a9997bad37a31fdea4d1b336f6ec4c5f5f460001b620044ec565b3373ffffffffffffffffffffffffffffffffffffffff168173ffffffffffffffffffffffffffffffffffffffff161462008f495762008d437f8b9f7fcb0e83d9618ea755ce8d99dd1823b428c766e2371795365eaba7145f4560001b620044ec565b62008d717f8ae1d8ea22cc0f55e12ad5119a9c1f9a3a1460a6a004a33c1c13715ba5acdf2360001b620044ec565b62008d9f7f30489d448923cd3b604df3f77d22f343b2c46aaafaa1fce1e92869cc6ac96e5560001b620044ec565b8762008e9f5762008dd37fff4492feae0d9b158f34834341fe352eb6d8be0d2d2a55c063422946c92f34ac60001b620044ec565b62008e017f1b427d872fec4a598029f5163171b7112c825fc4f0af13668ed803a745e8478060001b620044ec565b62008e2f7f088d4356522ef1d83b4416e1368ddfb0b8b551faaad151d089b5339697c31eb960001b620044ec565b62008e39620085b9565b62008e677f4b2d7664860e8c49f16f5c9de319e1df9a550570fa0aeb5fa14ac2511099fae260001b620044ec565b62008e957fc561d2323939ecb0473a1ac4858b818d872343dee41e2cb7778fa6fedd760d0c60001b620044ec565b6001975062008ece565b62008ecd7f027d0eb78b8ac174a1f3a8fae52d37a946458f72fe1b16200a40249c3c8c8ebe60001b620044ec565b5b62008efc7f66da3be2c56e036687f84cff81847b415aed94ffb94c913702b65ec5db60d8e060001b620044ec565b62008f2a7f92e385197f85080a12b9122c47e707b76f3cddeabbc24ab51a5d4be0db67680860001b620044ec565b62008f4362008f3a8233620103ee565b6101f762000d70565b62008f78565b62008f777f4fe954eada0f67f64113172f66219cff0f62d2b1b51331a40681c97de5c3c10c60001b620044ec565b5b62008fa67f6681032336f32576d460347b51fe4987c05330590509edb561c3bd18188dbbaa60001b620044ec565b62008fd47fa72d902271e8447b2d5cd777933d992d086f91bcda639ade387be5c0af4d3b2b60001b620044ec565b886000015189602001518a60400151838c608001518c965096509650965096509650509295509295509295565b6200902f7f3aa9773e1f90236b44cc3b731dd353d52b23a5a812cb1e653597c48008c6ad1060001b620044ec565b6200905d7f2ddeec5041a03789b7b94ac282d52dac9cf98381ea329f5183f92cf487df02ce60001b620044ec565b6200908b7f8dfa0f6817f0ecfab9eb7895bbff75ddfddf441cbdc3a78925fdf4fd51e0ecea60001b620044ec565b620090a4836200909b866200a367565b83600062010655565b50620090d37ffd5b87b511e091c22fb2eca310d037633650b5f4aa68b672731d86b2c1d0fb5f60001b620044ec565b620091017fcd7e6b5465f2a1b1dcc99972758e427c8e4d1d2f43f9b4636b19ccb8ef94236160001b620044ec565b6200911084828460006200b07c565b50505050565b620091447f53d978ed7c376c6f00d27064f758820b19e68243ac1bab2b500638e220a96da060001b620044ec565b620091727fa1798cc4c77b3f12364420785b181278aa74f361973d5cd65fe4ed77761b85eb60001b620044ec565b620091a07f10218aff64fb5a77c42593a17267e4e515f8dc4774f258898c0b630e9b7e07f360001b620044ec565b620091b782620091b0866200a367565b83620108b5565b620091e57f9dc2962fc195a57be226b4260aeedd4e41580cbbed88f247dba80d1cec20de6660001b620044ec565b620092137fc17e7da30bb0990b67d5002711d4e2840a7ca0c6dd9fa4595d52550819e33c0d60001b620044ec565b6200922284828560006200a95c565b50505050565b6000620092587feb44165fe5222fd8fc06bdaeb547ee3bff71d9e9eaa5e9acf66becbda842d09f60001b6200652e565b620092867fe3ad10eba48dcc8f63f6e234edd95a6c642ba7336c519d1c6a83929db4ad6c5d60001b6200652e565b620092b47f9470660fb4d6408af8ad415aefdc73d088a428f47b0b1f1c3ecf248636b7f3bd60001b6200652e565b600073ffffffffffffffffffffffffffffffffffffffff168273ffffffffffffffffffffffffffffffffffffffff16149050919050565b60006200931b7f980f096ce2354611f661d545348edfcdbcf347f2d4fa9c9e2bc2234b96619b9160001b62010a3f565b620093497f5203ec7b278d868f845c81d7f208837a954291190f8034ff73f1abf34395aea660001b62010a3f565b620093777f257b57fe7b6efcf88210c6d37adeac50f6bdc1270dca168497530cb49198dc7060001b62010a3f565b60008284019050620093ac7f2712f69a57bae2ee34b696a2281d5fca60f12eef2753ba12e108837883591b0f60001b62010a3f565b620093da7fa9717274421667e304f7b258221f6f83cbc1a3c12db3869b2bd07495ef02a7c060001b62010a3f565b620093ea84821015600062000d70565b620094187fbb23a54f86bc4ea5e593a05f1ed17e1f4ec085fd337eb065fd05171873fa78d860001b62010a3f565b620094467f59b5f75a5714feab22828cb70c6ca1fd02547b7956d33b95658dc4dec174169460001b62010a3f565b8091505092915050565b6000620094807fd326dbd782765a9d6f5e249c9577b68bdcdee3d9a9827d6ecc4168aeb641ce7c60001b6200652e565b620094ae7fd933192cbff1eb425ff76cda7b57f22a8c984f044fef08c493b1171b6a89334e60001b6200652e565b620094dc7fa7a9b1b21f01d47e3ba696e215e0bcf458517839aa8304b31a2f3fc51aeb321860001b6200652e565b819050919050565b620095127fa137d77b2c23d2b5abc9cc0d6dc915ff878f076fd4df6bd0326df4e44a73a55160001b620044ec565b620095407fe9d09e993df9ab1f15400567f3552a3d61dffdb9422967442ad4f865b976554960001b620044ec565b6200956e7f1d49cfa42c3992af9e6470d214535e7acbfac7fb48fcc357b993fe77a9a36d7d60001b620044ec565b6200957d838583600062010655565b50620095ac7fd5a9b824a69c4f8208c5093ff3dd26baf759bf3cdaaef2efb012a3c1f164e33860001b620044ec565b620095da7f5f34297564670559e94455e8258fbec35103a0230ead29dd32507b240e6cc93260001b620044ec565b620095e7828583620108b5565b50505050565b6200961b7faf1e8b80fd49b8f2cc7a6726fb1814697ba33bc5876dcc4dcc4903b70c4fadcb60001b620044ec565b620096497f042deb00c0357ea270ada6697caa3290fcba1a602a26567affd6b978ca89c48b60001b620044ec565b620096777ffd897901fde1b31d99bc2973c3b2303a385fe35fbb68ebe9fd899c8cd41b4b2e60001b620044ec565b60008111156200980557620096af7f5e6413f13f8b1487547366c17f906ab8dd1dcae9e20b84938379f576bdef580060001b620044ec565b620096dd7fffd4151e686adaa6ac2e80b71817d387eb0f40d3f76777131fb533b8533c1e9160001b620044ec565b6200970b7f7f44e985635eed158073bae79023cb77e5708b622b7a95c7319b14c63522718660001b620044ec565b6200973a8383838773ffffffffffffffffffffffffffffffffffffffff1662010a42909392919063ffffffff16565b620097687f2de0259db0827d7d2babbd69fd7e967e418ad288c1f66e682ef3ba4aa15e484e60001b620044ec565b620097967fa1d6e331665b274b2d6f668811c9bb31ccd29c2ec94d430a325365d324cf22cd60001b620044ec565b8273ffffffffffffffffffffffffffffffffffffffff168473ffffffffffffffffffffffffffffffffffffffff167f540a1a3f28340caec336c81d8d7b3df139ee5cdc1839a4f283d7ebb7eaae2d5c8484604051620097f79291906201eec8565b60405180910390a362009834565b620098337f1d7d8a51aca9ff3761f3b6c27dd16c84a755b80315ccbdf66e92d173d660ef4060001b620044ec565b5b50505050565b620098687fdd0c1fcb428c4e1bff74a2d816bb8cbe47b5cbefc91281196262f678000b570760001b62000cbb565b620098967fdf9aa9523d5fc61e7f9ad3af59aa3426d8b120fe63b999af7c35fcc77dd083ad60001b62000cbb565b620098c47fa4a006662ab0071b6e2feab167765238eb73037246af324a727aa5efa8509b4a60001b62000cbb565b620098d58134101561020462000d70565b620099037f75d69ade4cdf9c04b538e35779fbb62ac376778b71870ecfe426d4c86e965c0660001b62000cbb565b620099317fe196524ed074140a5273e76cb91934deeaf737635217daa084d423387a74b84360001b62000cbb565b60008134039050620099667fc2c7fadb76f886179aa0a3f491af2f3d64a67c445bf7802e228b30eaa36c504f60001b62000cbb565b620099947f4cb8b1abc73dae2652dccf3a696ee056fad0e42f03b142da50737c9e382d959660001b62000cbb565b600081111562009a5957620099cc7f890b47b1c277a036ce5c3b23544fef8178c505833b3a183d7be91e76ba6d225460001b62000cbb565b620099fa7fe853a27b37c052a4925dd506b6790705c9ee8f3911165a0bc7d17a03f8d07a6060001b62000cbb565b62009a287fae0ba8dde4fcd83c4d02164a7a66ba0825a644f579920dfa7b386abcffc1a74060001b62000cbb565b62009a53813373ffffffffffffffffffffffffffffffffffffffff1662010b5990919063ffffffff16565b62009a88565b62009a877f9f6aae97aadcbda52df541dff244f84f790a72794387f745ff57d01378393ea160001b62000cbb565b5b5050565b600062009abc7f5bbf46f03514d8be70199833d5f80a3f604f2ed24cc0fa500e2deb04edeaec9a60001b620044ec565b62009aea7fc62ca6c93b8b615eecc86daf82c99d7dbd4582ab64e5e8e74cfa4564de14a9de60001b620044ec565b62009b187fe55cd057f3959cf975ee7431b44d3c08000ea2c3bbfb6d386bd5187ec3f2e4d960001b620044ec565b600b60008473ffffffffffffffffffffffffffffffffffffffff1673ffffffffffffffffffffffffffffffffffffffff16815260200190815260200160002060008373ffffffffffffffffffffffffffffffffffffffff1673ffffffffffffffffffffffffffffffffffffffff16815260200190815260200160002054905092915050565b62009bcb7fc7c5367f9c7e240f3cdcb6923bc045f862ca4a39c752da8b71c5ae1472d73bbe60001b62001526565b62009bf97f50d58fdc3abc20e1cb392918770a267ab78e72d605a02d4c4056b501db10a04560001b62001526565b62009c277ff6efbd77e87e2ef28cf5f850cac5b7ad75d84fff9ff5caca222139c78f468e4660001b62001526565b801562009cd75762009c5c7fb0f141da337ea2a1d59d1cc8430775c2bf672d5ff29998ac3ba940811e4e0d5d60001b62001526565b62009c8a7f5ad992b766091b4243be03e56fc4538811c13fa8b0e1b27463c7d99314c736bc60001b62001526565b62009cb87f854ef49914eb0527fc17f31ba5fc3af3040cc31fd84cb17924230ece061e54b960001b62001526565b62009cd162009cc662009f3f565b421061019362000d70565b62009d7b565b62009d057ffbbd4f7e556f0535cac9cd0150c9652e7fad42626de7b7dc3776a83d8732f59760001b62001526565b62009d337f7ba1e9f2c217e1d23b4eb7f3ac04caa7bcd691b228ee2fcc3d594ca57be6395a60001b62001526565b62009d617f599896393482567181121cb835626e2e456628f1bab956b29525539ad0d6759360001b62001526565b62009d7a62009d6f62009ff1565b42106101a962000d70565b5b62009da97fbd8ef2821bd1e349a1d65969330f797bbfc76b766c2f8fa530739eb7fa58067160001b62001526565b62009dd77fe34774678af6ce655031cee2d93babe65cd743cc5b1101ff217573d2a7335b4b60001b62001526565b80600360006101000a81548160ff02191690831515021790555062009e1f7f3706f6e6399e33e922ec7fc2e0fedd5bda1541494c7c9345dc31ccc1730fedea60001b62001526565b62009e4d7f18f5a22ed7dffa75d0eb20fad03ef1137724c580e4f9c2967fe3c420f96eaee860001b62001526565b7f9e3a5e37224532dea67b89face185703738a228a6e8a23dee546960180d3be648160405162009e7e91906201f0a2565b60405180910390a150565b600062009eb97fe3746e81cff91eb3d77d543981cd6cf706f8d76397da183679a4b3dadc9573e960001b62001526565b62009ee77fa5f231f807570f144e78643005e399439fc73b5ab16a0241ef6b24ae7bc1f55260001b62001526565b62009f157feac4884d0b5f8c5a57f3de251fec5b8b71daf1aa7f8f19b89e107d0d5163560a60001b62001526565b62009f1f62009ff1565b42118062009f3a5750600360009054906101000a900460ff16155b905090565b600062009f6f7f7f05abaafac9ed7d954843addd8fdddffb19d3fb16a0eb1b29cde5d60bccefd860001b62001526565b62009f9d7f8fbfa5292fa05b965a2a739fb121e9d0379a7b60e58c67077bd84e58c4bd586060001b62001526565b62009fcb7f13a8fd0ef51eb9e4725da515e4be7071dfe9a07ee7a31d0913b401970727c27260001b62001526565b7f0000000000000000000000000000000000000000000000000000000000000000905090565b60006200a0217fb873c902804ee19693ddfd186de3098d59833aa7da7373ff1801e99a3eea378e60001b62001526565b6200a04f7f5bfb346ed3ea17ece69b5bae634d25809cc15f9dbd55df8a316dd45da9ca006660001b62001526565b6200a07d7f5b028bd9817cd40d7d4273c5525d5e8bf5660b6155e1cfb1bc5cf297fa2762e960001b62001526565b7f0000000000000000000000000000000000000000000000000000000000000000905090565b6200a0d17fa9b839727e47df6c733ba29004be6814bded08a4f35a5c9e1be0ae7ab8cf296360001b62006e97565b6200a0ff7fd9a05e7b8b6b4b4280fa2a4ad73f24324db1bb1d597cbd58ce7edb254143977c60001b62006e97565b6200a12d7fe52db7a5f4d58f1a650d35ff688f3d50617ed27e7aa84bcab30163d590bfe5ca60001b62006e97565b8073ffffffffffffffffffffffffffffffffffffffff163373ffffffffffffffffffffffffffffffffffffffff16146200a335576200a18f7f40e26dd7470c8f6a3ce463012248a95e9ca0311194232658bbbcc1a76869da7260001b62006e97565b6200a1bd7f442404106fddb296cf354f997af40b9379e3a5ce16c2b91605ede85dd94fea9260001b62006e97565b6200a1eb7f5fbb5aed5409d0beeb053eba81c6d40a4a6b2119ac6ebc533cf55b045319326a60001b62006e97565b6200a1f5620085b9565b6200a2237fd69abe72b4d5b24d37f01bb7a649cfb2b950e083f490fd90671fcc2804422cf560001b62006e97565b6200a2517f31632198c0128805c277704f800037ef7a8c009a5fb9f67f77a9bea21757e1c060001b62006e97565b6200a25d8133620103ee565b6200a300576200a2907f64663176886268c64f8a7c12c0838fcc2287257e6e1c3b3a7d294c87d0e0eb2c60001b62006e97565b6200a2be7f63fc910ec5b93375690791450b970212251077a567a1b4aa56f8b50050e003e060001b62006e97565b6200a2ec7f74e6e92f87ee00f8d995dd5547476f8d76dd00f5580a1364601ad66d0e867f4660001b62006e97565b6200a2fa816101f762010d2f565b6200a32f565b6200a32e7f806a3397c406f5f00540fc5800bd332be4110e5592563d7828de1db0d500afe260001b62006e97565b5b6200a364565b6200a3637f13e62365f8b762ac51ab377db797c57077cf70f8c6a82cecbc591f20b7855d9660001b62006e97565b5b50565b60006200a3977f33b182daa5466ac56b92c44d07d72c3fd035bcdce5f2661a863d4333d1a1194260001b6200652e565b6200a3c57f0cc6471c1b3a9a90f56eacca29d21d3ce6f57046ff37961e2db57503d912b7ba60001b6200652e565b6200a3f37fd0fdef3f722dee5b086c68e858ece7f1aff96255861f23e503bdb40004ac87c660001b6200652e565b6200a3fe8262009228565b6200a414576200a40e8262009450565b6200a41f565b6200a41e62000cbe565b5b9050919050565b60008060006200a4597f349d5385ae80c7bca72044eeb172f5e7ac69d6de454cd30f208f4b1e651c4acb60001b620028c5565b6200a4877f877b540cd04f4265389f28be018c9913fc059711192f2049525fe37a8f8aaf1460001b620028c5565b6200a4b57f04a2e96eeffbd3b5b3bfeb04ac65bdb5894b4f3635ee94cf80567870bdb2eee760001b620028c5565b60006200a4c685608001516200fcbb565b90506200a4f67f98bfcd03f3b331d76b8b384fd6ee78bc64530473d7f4a307288fcb4f42ebd2e060001b620028c5565b6200a5247ff5ff7a3091dc2dc92f012a48468dd3978f20a7893359075b6b19898adc8f2d0560001b620028c5565b60006200a53586608001516200bc92565b90506200a5657f50890bf4775c452a86a56b22a1701ed7861ff53ab99d0d2fa54ee7124ab3d72e60001b620028c5565b6200a5937fd78803489fce557913c108358b1a609663b12e5f8b5783b5aecedb4bf9a0d67660001b620028c5565b6002808111156200a5a057fe5b8160028111156200a5ad57fe5b14156200a652576200a5e27fce93cbd6562d4b970a850425ed49cb993397ce2f8cc9b6cd04c4eee6f78ee8ad60001b620028c5565b6200a6107fd8ac7900f741100a8c04de55be0a6a785c9c4ce9233c648b628cd6d92a4d317860001b620028c5565b6200a63e7fddb5429750f1a2c5809dd89da922116fa485dfaaa73aba5acd74ff56f764e0f060001b620028c5565b6200a64a868362010e83565b94506200a808565b6200a6807f77c0cef48ed2893f18007b040a9ef3d638989787ef82ec1a8c383cbec926ace060001b620028c5565b6200a6ae7fbb3c7a54c5ee1328bb21a6be5d12aaffb76d89cd9271bef0af9e60b25897abea60001b620028c5565b600160028111156200a6bc57fe5b8160028111156200a6c957fe5b14156200a76e576200a6fe7fe78c69dfed7c3d6d6f0db4d5e81c8a188675c611214ed91ce4611b2e8be9a8ec60001b620028c5565b6200a72c7f2a55880cefdef8323c14f784c8483431dfd099493caeabd99c3679a749a3974260001b620028c5565b6200a75a7fef9ef8bccda11ee2a64539216a95c7ffff86549184006f46849842fd35bcfe4560001b620028c5565b6200a7668683620113a7565b94506200a807565b6200a79c7fc9e5f8ed2501cd9c476058d9bd42a2d864bb21ef5caa60cdc5939625081e2fc360001b620028c5565b6200a7ca7f607eb899f0499d7c6a0210c73fe5f4b8e696f2f2f3bf7391c11a3ec0f4e1f27560001b620028c5565b6200a7f87fb6e0f2cfa9e542998d6a998b78f4aca49bae6c91ff88be6136479b0bbc86777660001b620028c5565b6200a8048683620116af565b94505b5b6200a8367f25700dad78e9e80f0dc5d29af2994cb7c9f9d22728f409623a3aa3e9f61dbd5560001b620028c5565b6200a8647fddd526e6c6114731950e5081427b3736e7622872c11d0c4e11744e40d1e5ffd860001b620028c5565b6200a879866000015187606001518762012440565b80945081955050506200a8af7f951d949784f71cc200af59d96049bf94f4466be4083e4755e8d461b186f5ab1e60001b620028c5565b6200a8dd7fd5294878351509d2e24ac09ab97e0b6f978fc88cd8e1fde889c18d0f0195f3f560001b620028c5565b856040015173ffffffffffffffffffffffffffffffffffffffff16866020015173ffffffffffffffffffffffffffffffffffffffff1687608001517f2170c741c41531aec20e7c107c24eecfdd15e69c9bb0a8dd37b1840b9e0b207b87876040516200a94b9291906201f462565b60405180910390a450509193909250565b6200a98a7f131ba9da83c9c248f1d5d25026b3c74d94d793a793f87279682051221335484d60001b62000cbb565b6200a9b87f4a35b703574ec747b1cdecaaba8a139c1abb895b15427194e7fc40f7ce0f7a6460001b62000cbb565b6200a9e67f2a9ea0ffde637ad670d504c15370be3454e9d087d2b891f972a1b9398fa58dcc60001b62000cbb565b60008314156200aa80576200aa1e7fe8b836c7c091abd39456479e2a2ee4c49d8e7b2ad8c599278308ebe1033aad6860001b62000cbb565b6200aa4c7f71d97ec097b5d88266ddd61b385352561c5c8542f5333d64890701c6f1567ff660001b62000cbb565b6200aa7a7fc4ac04059f041ce5f539786423c8f383fc447471d1c69fa97a26d6b9f5be30ac60001b62000cbb565b6200b076565b6200aaae7fdc5a7355b5d10b811ef3b071451d6bb8bb8cf94f833cb698daf96e997464b05d60001b62000cbb565b6200aadc7f1d97cd5a38fa2ea9e7322b9f7a2d86464421642609060b7875930d17c964f52c60001b62000cbb565b6200ab0a7fcda12f13c1844abdcb919fc23e0274f6b5970df1633d75d9bca24e7a0116700d60001b62000cbb565b6200ab158462009228565b156200acef576200ab497fc0becf823c0b2398744cd521dd473f268c364f7e45218edf53c2eb47dc87856d60001b62000cbb565b6200ab777ff7c48fe7dbddaf2b08704585d865f1e41cf470a84927b8100086bd5d3a3f686360001b62000cbb565b6200aba57fd0c4d5c7781dc6f96b938fe1486967a42ed2c965a6a375024f52c8cca9c6f99960001b62000cbb565b6200abb4811561020262000d70565b6200abe27f10245f628088b73d655c6bbc842fc9bdf7404294804584b1ed8ab0a267a9756d60001b62000cbb565b6200ac107f2984999217fa343c63ca09b0ffeedfc3594cf8932b7343493c27af71f45ddde960001b62000cbb565b6200ac218347101561020462000d70565b6200ac4f7f7cd53965b02f25b9c48fd9b851d97834386e35e7acf2f362b3b7641adb29bc9360001b62000cbb565b6200ac7d7f911de1d0fd250369df19596781d290c98467d75d95b916f6a64989420aaac82560001b62000cbb565b6200ac8762000cbe565b73ffffffffffffffffffffffffffffffffffffffff1663d0e30db0846040518263ffffffff1660e01b81526004016000604051808303818588803b1580156200accf57600080fd5b505af11580156200ace4573d6000803e3d6000fd5b50505050506200b075565b6200ad1d7f8d32ebd36bc256a0e14311726a0829d958840edbd0b00c2c278aaa06d59bd66d60001b62000cbb565b6200ad4b7fa34001ab46b7ed799e73f2fb86be3ffcb8faa56e7ed826b31607d7a8c7a5dfba60001b62000cbb565b6200ad797f1ed1703dbc52ba9632b94dd571affa941622503f5bc7052fa19eee3947cdf92160001b62000cbb565b60006200ad868562009450565b90506200adb67f224834173ff2598b43124e8f5b8f50514cbe8244b49a3598912c579f0602d62060001b62000cbb565b6200ade47f9633c70ef8795147a46a07035372d9cb2f2af62eea0eb8445fa23c38b888754060001b62000cbb565b81156200aef0576200ae197f81210d7d595a3bb05c1e5370bda0fd1bf43d689a1068d4b6e30f3a8bb6d1ed7360001b62000cbb565b6200ae477fb6c348707b8dc536e5472dc94ad05764f373a0edecf9b02ea05078ffbc99d39460001b62000cbb565b6200ae757f9dab7f787822e546a93fecf13a34dd8c461a11d863ab1a73cde92ca5d20bbfe460001b62000cbb565b60006200ae86848387600162010655565b90506200aeb67f304cab69ca28157ee57e56542c5c02a36e060ba006129040c630470247559b0d60001b62000cbb565b6200aee47f9e36caa1463e2cc05882cb7a7608915476635e6e7b6c818e726c9e829e6c653e60001b62000cbb565b8085039450506200af1f565b6200af1e7fc26505ddd8691703ee148fd59a34feebc126e50fdd777497858a928bb66ef75460001b62000cbb565b5b6200af4d7fcf181e4606fc519dfbcab83a6eeb7ef86d35a000850c58b3cb4ccbed3bc007f460001b62000cbb565b6200af7b7f4bed44365fdc3e145f93fd5227bdb6e362e789f643215712b47090716f3aab6560001b62000cbb565b60008411156200b044576200afb37f0b0d2bd23d327aed7ad628585b61e2454625a02d28cff29bdb71f3af71311b0960001b62000cbb565b6200afe17f686a2103c24bb155508f938d3d6015059d0b4ecb2b8d71bda964e22c434a0ce360001b62000cbb565b6200b00f7f30303506d2d13a8bdd49a360433673e12b3a3b6540397f28ebe2166e9291c99360001b62000cbb565b6200b03e8330868473ffffffffffffffffffffffffffffffffffffffff1662010a42909392919063ffffffff16565b6200b073565b6200b0727f9b479a0233c31834b03f7a32dd4b249e72eb8f37b439573394f794f816f7d90060001b62000cbb565b5b505b5b50505050565b6200b0aa7fc2ab6b4585f2b7c6c92d06cd86e699864dd743f2732fd32cf20893a01ce52c1160001b62000cbb565b6200b0d87fdc524857c0eb34ead074888af3e322eb97f3c8f4ddab11137fd4ba93345cde8260001b62000cbb565b6200b1067fc598b9fa6cda7c444df2b99da99102cd5f69c1f5a6b0bcc451606d5c1b4a634d60001b62000cbb565b60008314156200b1a0576200b13e7f1daf67c4e423eedd817904594cd4dd58bf383cb7e434b206bff5c385ef31f8e960001b62000cbb565b6200b16c7f92761f7dab73c22ad758cc18ba71efda6b217b1bfab45a28ad22b2376e156a1760001b62000cbb565b6200b19a7f07bad023a5affa4004df1614f0ef7dc1900a994fa3e4d5d1d3e15ee1f962d2a860001b62000cbb565b6200b689565b6200b1ce7fda023f5a50b2f367c04d12d1f0d6608a2364d808d772960af991d2594b39843a60001b62000cbb565b6200b1fc7f4bfc6e1e3105fad4ddd578ef1567031e1b4eb493f2ab50c2c5ac5e4a5037c5c660001b62000cbb565b6200b22a7fc1f0be4ec7c24f70a7a4dde835b4f7fff070c867c97a53e89b58b7fd935664b060001b62000cbb565b6200b2358462009228565b156200b435576200b2697f3465b11948556fae9dd372e0f9091c50af55700f69879c62e25fe4d03ecf50f460001b62000cbb565b6200b2977f1e09e9158cb18ef17a0452e3277acae86ecde9f72e01beae5262b4679a55937160001b62000cbb565b6200b2c57fbd9554b56bdfcef46f0bfafc2bf92650225316ed79a53acd402fb8729413710060001b62000cbb565b6200b2d4811561020262000d70565b6200b3027f1c303a26503223002f61885aac1afc3b9990bb4374a53328c587244ad2cc019560001b62000cbb565b6200b3307ff6d76fc9b67c6eb23a6a9854af88a7486650f8896c7d3aa0d80f6f5ffdb1749660001b62000cbb565b6200b33a62000cbe565b73ffffffffffffffffffffffffffffffffffffffff16632e1a7d4d846040518263ffffffff1660e01b81526004016200b37491906201f445565b600060405180830381600087803b1580156200b38f57600080fd5b505af11580156200b3a4573d6000803e3d6000fd5b505050506200b3d67fdb68488ed0bad873222a7467baa2dd1a8dbe6a8f28e26a2874d83bea13b41a4860001b62000cbb565b6200b4047fd023328d20631007c46a603df07dc0f4c8fadc3474c7faa790881a5370dd76d060001b62000cbb565b6200b42f838373ffffffffffffffffffffffffffffffffffffffff1662010b5990919063ffffffff16565b6200b688565b6200b4637f79d643addb1a85a5ab054425e240399ca30473b842e2ba082a35b3dd3ca05e7e60001b62000cbb565b6200b4917fa98bf6e164a9235cb29d79b54abb1ee4fdccdafbbc8329cc61fe4e2b744d149560001b62000cbb565b6200b4bf7ffd454a4b56bb7e4b919ab0da36602e8928018b8fdb4cc77881e4856055b6d2d760001b62000cbb565b60006200b4cc8562009450565b90506200b4fc7fbd29dbd98e6fc235d2259562acc7635f255f64afa1affdffb99321347ca31d2160001b62000cbb565b6200b52a7f89c676938419b9c2e9207457bd12802bb05df3514ca6c625bb557ef69256614e60001b62000cbb565b81156200b5ce576200b55f7f6c6892cfc72c615dd8bbf0a7baa057af75bd33609d29fefe5ef9617a13d2154960001b62000cbb565b6200b58d7fc69861007421dba2d3cd50827211949c266ffdf9aa4e99e367558e46877bd56860001b62000cbb565b6200b5bb7f7069dda4d1231ad3273fc6fd22710da63c9af96f112e9017e18cac47a380bce360001b62000cbb565b6200b5c8838286620108b5565b6200b686565b6200b5fc7f553d81a2a2dc5eb3a7f1afec3c4860335f05fb7e1edef46b9c4fe4763547868760001b62000cbb565b6200b62a7fcf4e5a1a5aa937a12b23cb7f7b04c0e21f1bc3f830e6b406711b4943fd27eb1160001b62000cbb565b6200b6587f19976ffc7b7163991f8c0594e9da5627c502e562ed3954e6c0b1ba087e70af2b60001b62000cbb565b6200b68583858373ffffffffffffffffffffffffffffffffffffffff166200b8b79092919063ffffffff16565b5b505b5b50505050565b6200b6bd7fb3c3ab71be1e60ccf374cd9c337f5c94a091891a248ffd88815355718b38f5cf60001b62012626565b6200b6eb7f23a34501b370f017ac0b72a81570395801e215d15ea760153f3abbf09eb0167360001b62012626565b6200b7197ff006c498284d347b1bc1a6a27ae455ca2c77693be39b0bf5701f8175df7eb3a460001b62012626565b6200b728818314606762000d70565b5050565b60006200b75c7fd765ee9710329ce99d3c99fa93e0cf4a002af2c14c6ba3d4e7320c002d1205db60001b620028c8565b6200b78a7fa43fd0e8e8e9cb33d053714a5bd0da325689d322fa18192f1c0cc5024de8444360001b620028c8565b6200b7b87f8f1f188df725fcee1633dfd29192fc3772a3d99e273856011b55a7723ad6035460001b620028c8565b60006200b7c462006e9a565b73ffffffffffffffffffffffffffffffffffffffff1663d877845c6040518163ffffffff1660e01b815260040160206040518083038186803b1580156200b80a57600080fd5b505afa1580156200b81f573d6000803e3d6000fd5b505050506040513d601f19601f820116820180604052508101906200b84591906201e783565b90506200b8757f1e7afa58938e0c94dccc46a8ab58d6d5c223adde58f48de99add07f10886c4b660001b620028c8565b6200b8a37f4b0267de80316a746cbc18cf50851e3332f15705273b78679445ffc4a56e4b2160001b620028c8565b6200b8af838262012629565b915050919050565b6200b8e57f826b3c2d923005c2743ec081c6e629f85e7b09506139153a93935e6e8ecb28ab60001b620128e5565b6200b9137f800e347e3e58022c658f648bed4d23cb6b3af8034b0337fb821c3c5b2c80068b60001b620128e5565b6200b9417f40ad77c5d047e729da7f0083b41e58b8b25572e7f27c7a1ea1474ce159e69f7e60001b620128e5565b6200b9c68363a9059cbb60e01b84846040516024016200b9639291906201eec8565b604051602081830303815290604052907bffffffffffffffffffffffffffffffffffffffffffffffffffffffff19166020820180517bffffffffffffffffffffffffffffffffffffffffffffffffffffffff8381831617835250505050620128e8565b505050565b6200b9f97f7f8731b064b792c83fba56fbd34d95451d2387e6fb78485a9b86cff6156d768960001b620028c8565b6200ba277f888110f4bf6f7cda081c5b8a39dc4e30892ab4d0e7ecdc5433bfc75d1f91ae0460001b620028c8565b6200ba557f5fd2c3c69e76a8645d2babeede4cab8eee4f63458856c126b7078d2597f70a6160001b620028c8565b60008111156200bb25576200ba8d7f2b7b387f4a16a51a6b166255c77cee507eabff70727cd11fece9cbcaec0be58b60001b620028c8565b6200babb7fc6e012162bcd9a237c4cce9c706410a2437333e27d9a99ed4fcfc63202348f2c60001b620028c8565b6200bae97f8d67549fe049681fd59d0fc39005efabf5ff20afad1a65f3e44979fc3fe3293460001b620028c8565b6200bb1f6200baf762006e9a565b828473ffffffffffffffffffffffffffffffffffffffff166200b8b79092919063ffffffff16565b6200bb54565b6200bb537fd023783ea0f218de0b145f876351e2162cdd0f868a3ef402e0c002c768210d2c60001b620028c8565b5b5050565b6200bb867f4d0e3f17d41aa9793e98f5c5e05de670e73161d6af51bf4dc2840fa6bc45654660001b6200587a565b6200bbb47ff708462ef3c962a2172b06eb6fce26cea5d6a2c959d148fc384699a255e2265d60001b6200587a565b6200bbe27f2cca2ab379c0f0ca7ba33886e8f798c3061144cacdb1fe464e6f123010d1016860001b6200587a565b6200bbed816200e833565b6200bc1b7fde6386c50d18b0bacef9efdd67aca69e1eba1e5a97653bbc7179fea4833aa09b60001b6200587a565b6200bc497f21f707ee5a74911d6b934ea4a334f7c9a88ec4c6fff4e251879388a0be3e10be60001b6200587a565b6200bc8f6200bc58826200fcbb565b73ffffffffffffffffffffffffffffffffffffffff163373ffffffffffffffffffffffffffffffffffffffff16146101f562000d70565b50565b60006200bcc27f8a7a5221d3b8a7dd8b81ede88cdb5bd6358a7b2cda7d215e491be12e6dba333c60001b6200587a565b6200bcf07f64925ff91b8c4393669aa777c1de95c19f6953d169c77f1a42251493500b4eb960001b6200587a565b6200bd1e7f1ad8e9fb16516fea78340a56ba6884b2a598f9681bcc487aad3904301e4d846b60001b6200587a565b600061ffff605084901c60001c1690506200bd5c7f30372766e58ca1c2cb988414c0f5e04aaaf8cda65111049972e31a726b89b26f60001b6200587a565b6200bd8a7fe0d01f2ec34e37b1a5db8ac03c48bca2ae735a151459b15225eb279ada9f2ebd60001b6200587a565b6200bd9b600382106101f462000d70565b6200bdc97ffccbdca90107e7c896e4cd5b76b45a9f55d22042b2d9e1e68a8b6aa7205133f260001b6200587a565b80915050919050565b6200be007f24611e0fdd2e8ad118a6ed87b282ddb901aec20697d7a46b004b9443207df58260001b62000d86565b6200be2e7fe9cc445f129bea83e53f868b7fe5a334d954a379a6fbc01302706323c103d04760001b62000d86565b6200be5c7fd2a100f3c585dbbc88ff22ae076c77c4cee92e2fc38427291f6d0225f457e77f60001b62000d86565b6200be998173ffffffffffffffffffffffffffffffffffffffff168373ffffffffffffffffffffffffffffffffffffffff16141561020a62000d70565b6200bec77ff12491431630062728bf5e772eb471c39a2f80267d3224541bb8f5f44ffbfdd460001b62000d86565b6200bef57f07f1b739005fb6a6956ad4f057b684cb6014abb26453e2d1ede425d59f58922760001b62000d86565b6200bf308173ffffffffffffffffffffffffffffffffffffffff168373ffffffffffffffffffffffffffffffffffffffff1610606662000d70565b6200bf5e7f76b035fc7324f772d2f5cffa42ac0db6456b31eb2a981b7b6ae50478ec32458760001b62000d86565b6200bf8c7fba496a2101d54ab3d2bcf0019bb0967b84be763308924bdb90cd6ede79f0458060001b62000d86565b60006009600085815260200190815260200160002090506200bfd17fe456893c462b6a49313c8fb4456c476c7bd296f17a4f930f61dd391521a9132d60001b62000d86565b6200bfff7f483f9ae79b9ce3fd60ceb2cf0d34d58d5f20eb94a28289c2861b6e31d44080c660001b62000d86565b6200c0bd600073ffffffffffffffffffffffffffffffffffffffff168260000160009054906101000a900473ffffffffffffffffffffffffffffffffffffffff1673ffffffffffffffffffffffffffffffffffffffff161480156200c0b45750600073ffffffffffffffffffffffffffffffffffffffff168260010160009054906101000a900473ffffffffffffffffffffffffffffffffffffffff1673ffffffffffffffffffffffffffffffffffffffff16145b61020b62000d70565b6200c0eb7f55ad9e0772b546b99a846c56a6e6622b733b281be0a9491f55199d1f325a01fe60001b62000d86565b6200c1197fab0ead4d502b458f56098a2470d3681de72931f33f0b1279fcc6b8aab9121f1760001b62000d86565b828160000160006101000a81548173ffffffffffffffffffffffffffffffffffffffff021916908373ffffffffffffffffffffffffffffffffffffffff1602179055506200c18a7f1590cd7d301c9b3bc242ed0db429502ea828afce791fe1a4a804c55c1ae26f7b60001b62000d86565b6200c1b87fd1371b1f650e1e347a01ede9a2a7f853de9dd20b28ccb087093c8eb9c9ca6a5660001b62000d86565b818160010160006101000a81548173ffffffffffffffffffffffffffffffffffffffff021916908373ffffffffffffffffffffffffffffffffffffffff16021790555050505050565b6200c22f7f02349d8b379c449d74c61095e00d9549ab55e2ea97f9953d1012981a910a294960001b62006f4c565b6200c25d7fe2dcdc0d8f95865876e332d0d8d10fb04c6456341651d5921bd95445c3ee9b2960001b62006f4c565b6200c28b7fc16116bf387d816b483dbf890570cc3ccb578f13294575863764c96d55982c0260001b62006f4c565b60006008600084815260200190815260200160002090506200c2d07f6a096a72ff6880bff4ebdadc4ab0a5f284f694d59175df263be286dfcf61f8f260001b62006f4c565b6200c2fe7fe70e60ae40ac68a962ba9510386f1cb322c81729797dc12d910a6aa6e0d443c660001b62006f4c565b60005b82518110156200c40b576200c3397fefcf1dc3e0fd4fd7d5664592fc45d4faba2442ea6d7c0d7a8270e4e59d55bde960001b62006f4c565b6200c3677fadd3d15ee3ea08e313ef37f2109d5b539b1a792cdfb056bfd54b3ae1aeea84fb60001b62006f4c565b60006200c3928483815181106200c37a57fe5b60200260200101518462012aba90919063ffffffff16565b90506200c3c27ff86229f6ad95bc2691beef0f56d73199ce70cc5390726608cac1715d5efc7e1560001b62006f4c565b6200c3f07f328c068ae913c38b534e56d4f69a5cbc9873fd57002564e4bfdb77433bdfd04a60001b62006f4c565b6200c3fe8161020a62000d70565b508060010190506200c301565b50505050565b6200c43f7f41e2e08cfbcfea7330db0aaec96478a1b6f02de3a8562f1477e694676e0d265860001b620028cb565b6200c46d7f4683ceb83f519498c30431e5cf0eed4f112d21730bfbe168105f026598b720e060001b620028cb565b6200c49b7f63fb3499eac9129ed29ebea54ed050e166d688f60532d8719f6556bb8646b63d60001b620028cb565b60006001600084815260200190815260200160002090506200c4e07f63f7de0353b9b35b4cd40300858ebf28f6a093e4efe48d203731999dac85fa0860001b620028cb565b6200c50e7fea9d30f48cec9b7c5f52effd8d2da7826f1d6cd8396e069f7b029262ef06e6d560001b620028cb565b60005b82518110156200c620576200c5497f37f93eadde9544964d5660cd66360e0481a509500014241122055c465c9cac1c60001b620028cb565b6200c5777f38aeea06f80ceda41885fa81a8be0c3178ebf6931a77f553decd07c6fecb9ae260001b620028cb565b60006200c5a78483815181106200c58a57fe5b60200260200101516000801b8562012de99092919063ffffffff16565b90506200c5d77f1ba6a8d266968dd0002b3cd4601fa9de11fdc7225f2f937a49490b3b0459c47060001b620028cb565b6200c6057f37c9ba90f769ef33c0ad4d1de064983c5357ff542c6cb0b034a8741633411a9860001b620028cb565b6200c6138161020a62000d70565b508060010190506200c511565b50505050565b6200c6547f2a7301e3ae4a356d777b0a93fe244a83fe8934169804bdddd59fab9d889a3f5d60001b62000d86565b6200c6827fe970ca8849fa2d3b6c9922b1cda6dbb81bd41094bf6f4c615ae93ab8fed29ce260001b62000d86565b6200c6b07f55594f803abbb2b508f30844f30c3db25e8228dee2a6fc96c4278c9e697fec7b60001b62000d86565b60008060006200c6c28686866201332c565b9250925092506200c6f67f3891dce174a8c3ef5e9460469575fefb3c298c96a01d82d7d2bee9b797fa331b60001b62000d86565b6200c7247f46e34320a17636b7d66e048e17fdcbddeb7591cd20a0e457a56f24791b8d5eef60001b62000d86565b6200c7506200c73384620138a7565b80156200c74757506200c74683620138a7565b5b61020d62000d70565b6200c77e7ff511e8bde203830967ba525a81f62fcf3b35491184ed37dcdc0d9d888bcc04a360001b62000d86565b60096000878152602001908152602001600020600080820160006101000a81549073ffffffffffffffffffffffffffffffffffffffff02191690556001820160006101000a81549073ffffffffffffffffffffffffffffffffffffffff021916905550506200c8107ff9e8166ccc78f3560def8e296429c6fdefe4dacfad09acb44dccd90ade3f6d2060001b62000d86565b8060000160009055505050505050565b6200c84e7faee6e3e059b9d4c7638025efac8c2afe0f610d8a3e12b2a82023cb723ecfe2db60001b62006f4c565b6200c87c7fab5f84198c5b96622d945e170a3bd1913534b185418b9066585e93ca9a96552a60001b62006f4c565b6200c8aa7fc9e6fb043852492c6b20a8478b384f64402bf83a564d821dcf3c4af3b72cd56f60001b62006f4c565b60006008600084815260200190815260200160002090506200c8ef7f773a146d67e3988618202c2432ea81d153d627b7bcc1830981f8f55e8859a22360001b62006f4c565b6200c91d7f7d1f03b2f07c47a2cb4ffd0de983c83e9325e6edffb5522fd6214c6776f2901e60001b62006f4c565b60005b82518110156200cbd2576200c9587f05c6a819e7a33bfe2810dc29bfcee01e1243d370c1f16d826a5200f94d56f3c160001b62006f4c565b6200c9867f3a9335a31de38d3b5c3a179e07ee249db1ea85b13d77ca21571d547e938f107860001b62006f4c565b60008382815181106200c99557fe5b602002602001015190506200c9cd7f237e28d0a2626b9534ef0dab67d71f8d2ae8c63ad0341f0e912c1a595e5615b260001b62006f4c565b6200c9fb7f541decb21999222deb912a0cca8f48bc68169abbef20742708500d4f767f88d660001b62006f4c565b6200ca636200ca5a6007600088815260200190815260200160002060008473ffffffffffffffffffffffffffffffffffffffff1673ffffffffffffffffffffffffffffffffffffffff16815260200190815260200160002054620138a7565b61020d62000d70565b6200ca917f4ecde7f9cce3ce771ee4e30f200e019282be0cd15b1b68c3415c894e087aa04e60001b62006f4c565b6007600086815260200190815260200160002060008273ffffffffffffffffffffffffffffffffffffffff1673ffffffffffffffffffffffffffffffffffffffff168152602001908152602001600020600090556200cb137f8a21d822bf682e60accae64aa972bbcc3827765fb2e0d5f6f2f03d91e5d537c760001b62006f4c565b6200cb417fcccec994ed269e70d1ca52dba00f6cd3e41d52865b8c8ac7a7da7baf63cb6ec260001b62006f4c565b60006200cb588285620139c190919063ffffffff16565b90506200cb887ff6c86857d0180e2f3b47010bcce55de71e036cf463fe86831d898aa1abea9e8760001b62006f4c565b6200cbb67ff343b64cd619e7f865d777ba474a83704ce36cb66677d6fced1860555d2ebb6460001b62006f4c565b6200cbc48161020962000d70565b50508060010190506200c920565b50505050565b6200cc067fba088e27a4da57b3d9fb81a0204426416cdaf572129ef469c2781f675595d63460001b620028cb565b6200cc347fd7d11eb0edb818084c63f89ed0a1212ceb03e54117ceb2ef87c6c38815f275f560001b620028cb565b6200cc627f5d173dec41fe724c609a28957027bd2f1a22d097b0aa93833ad220786506ce6760001b620028cb565b60006001600084815260200190815260200160002090506200cca77ff767b4d80f4b565a892724c149e57c3d9fa8ff7752a22186c163d6ba529ac25b60001b620028cb565b6200ccd57f7ee2b8a478708e34ce83b99af82f89189986718b9e3213e3636681e74b2817e760001b620028cb565b60005b82518110156200ceb7576200cd107ff008d7dc7e4345e8d5bb5b6985927284f6edc24671ff05ebec395939276ff4c960001b620028cb565b6200cd3e7f94ee01eba8ab0cd7d287b626bd5e52a699da0b41fbe1a2102f903098406df71a60001b620028cb565b60008382815181106200cd4d57fe5b602002602001015190506200cd857ff176b716fe9da5d15c3dcbe048dfd8234b63c33e24dfed297c3fa25b390cad9160001b620028cb565b6200cdb37f5894735137d0d9865668c5ef5a019a85baceef2f1d4a6f3c953864c962dbb4b760001b620028cb565b60006200cdc1848362013ffc565b90506200cdf17fca993906dfd460dd86a366d2c9176f1524c962c831f11fb05c0b2bf138fe6fd560001b620028cb565b6200ce1f7f6baff0bef5dee3b2334f47e2f7bd6807ba4cac8da40fe7a444688b4f6742178e60001b620028cb565b6200ce376200ce2e82620138a7565b61020d62000d70565b6200ce657f08a5b7a5c8b13bf32df299b2bfee962d99792e5795cd2ed37c0728ec5dd2e5cd60001b620028cb565b6200ce937fa23118abfa83def609afddaeb11183234dbd84627e9a30fe771ed31f7a4a0f3a60001b620028cb565b6200cea88285620140a990919063ffffffff16565b5050508060010190506200ccd8565b50505050565b6200cec76201d3ba565b6200cef57f67310f7bcace1c26993a09dd7a108d6af833b3f4eefca8db7710a8e03e94626b60001b620044e9565b6200cf237ff4541e854263acdacf0afa44d63381dbd2d978224eecc67fd75b8df84504487f60001b620044e9565b819050919050565b6200cf597f644bd4bced3b479c154eeca48d6f4671c259c7e141fb03b50119e2191bedd28160001b620059fa565b6200cf877fb2e493fbea61a28dc3a0bcbde10aee52d356393a6fc964252f51485fbcec722260001b620059fa565b6200cfb57f609c802ad669539b39339b179e46d5684b53e48970b12ea9058dcacd32d5f2dc60001b620059fa565b6200cfbf620084b5565b6200cfed7f2090c6457b1ee2a791b1d863dcf68daffba3ba180e7ef1f21e4e594e8515a6a760001b620059fa565b836200d01c7ffd6a4721c941c9f48610e7bea0d7461334e40c31fd895160754c9295778e436f60001b6200587a565b6200d04a7f90aa5337c59450bde6a49b752050b64227a2691d2439e1f5e1cb90f1e644b79160001b6200587a565b6200d0787f779965f4254dc88c5af36c4b7c06c5707d070f8e40b3def6fdb5b118f9389ec560001b6200587a565b6200d083816200e833565b6200d0b17fcf185d0a3c3cd3662ea516beebb563c3098bb3cd8d3540e3db862e35c4e6ba1260001b6200587a565b836200d0e07f8f905354554b45cc409e78d840583824a2f1300f15026896c037ebe7cbb98a0160001b62006e97565b6200d10e7f12b239c6c614a6f0180d849227a66637e852fccde2b3c004f53e3d9cb03f00af60001b62006e97565b6200d13c7f0985dce6b0021ad9ff7c8bff45a3117889e6a12f87564a12662519e903e168ca60001b62006e97565b6200d147816200a0a3565b6200d1757fb5491683589dee49db0bed4b831df1256d452266bfb8cb8c20474f50cc82af5660001b62006e97565b6200d1a37f8a13a3052b6d2e4b2f4b62db7bbcab93f88a158180e6465f35a533b261f68e7b60001b620044e9565b6200d1d17f928fae42d8af505521ab6acc2b911439cb0f068f38c2bb795fe84c32430ea2fb60001b620044e9565b6200d1ff7f0f4fb6b44bda47cb0094fb022024522ccac370496c906aad039272592531c47f60001b620044e9565b6200d2158360000151518460200151516200b68f565b6200d2437fe3a6f02684865773253f614b84f112714fcfb56580fb308e1f7f88e88328d8b560001b620044e9565b6200d2717fb7f8b9fc40c124c6663965464af5c27348966d2b199ac4b76e0a53c7227274cf60001b620044e9565b60606200d28284600001516201474b565b90506200d2b27f86f7e70113d020d56b696f03331b0f5fe353e2a67ee4aef0179aaafe063923a860001b620044e9565b6200d2e07f9dc47d9878d56dcaac9b183abe247c8d34951f1b23a075868a07e42190f8fc4660001b620044e9565b60606200d2ee8883620149c2565b90506200d31e7fe23ebdf5e5287292c67c34f8538fbd8e28234fdbdbc3d8e7f5f3224d47ba3dc760001b620044e9565b6200d34c7fcea374ef6a6096556234c0131ed7c516ee7972cb8b2420cba0dd64a17139c8a160001b620044e9565b60608060606200d3618c8c8c8c8c8962014cd5565b9250925092506200d3957f31e87d89d215d11bd6a326e452660f9760db50ded5dd322d8e342bc328c3d69160001b620044e9565b6200d3c37f81410437fda0c2f9190f1388968995f8bf550378369a44c068644b99f60968f960001b620044e9565b60006200d3d08c6200bc92565b90506200d4007f787352ba1745eb667c2c4aa10d1d868a917c6b5d8047230c16a5cdd5fc73bc4260001b620044e9565b6200d42e7f57a0bd76a3887a34e383b04d4320c417002fbe8e3def834ce0b8b483c49c5f9160001b620044e9565b6002808111156200d43b57fe5b8160028111156200d44857fe5b14156200d542576200d47d7fec36c1597962306e634d148f5095f46abd7d59dbe7c18fe3ed5b6e4695f6dc6960001b620044e9565b6200d4ab7ffdfb854ba62b9a3ceb1ac73f8876e8379c8e909df5c6434032d20a10aa36e11460001b620044e9565b6200d4d97fabab5872200f4cdca008087ebe32d7660c86223003d93a8cdc040ca38c3fc2d660001b620044e9565b6200d53c8c876000815181106200d4ec57fe5b6020026020010151866000815181106200d50257fe5b6020026020010151896001815181106200d51857fe5b6020026020010151886001815181106200d52e57fe5b6020026020010151620150eb565b6200d6f5565b6200d5707f14ff0738945038cc2d5ba46f3294a226f4682087d0edc8c0b13204d85ec02ca060001b620044e9565b6200d59e7fe4b805a7aecfbc618c8225f149a5225859131cc4c95dfd5b2fc0a26ddb34954a60001b620044e9565b600160028111156200d5ac57fe5b8160028111156200d5b957fe5b14156200d65d576200d5ee7f290e32bb4ea0e3c270ad68ce067262986c3febb19a721aa5f4642d2537053e9260001b620044e9565b6200d61c7fa14e0d69d93f1cd887b1e08d1bc5301e7f2bf20879598098f90c603cb3c23d9960001b620044e9565b6200d64a7f053e0890e67ae42f5b085b31f02d3ac2acac49a7283fc19cceba3bf4a73aa0b360001b620044e9565b6200d6578c878662015285565b6200d6f4565b6200d68b7ff43d8845c96fdb2805a6728f6a9ebc6fb6a38dbaa36651011316356a00944ea660001b620044e9565b6200d6b97fa0f1ebaa84d3ef3c007f3b9c868df1e04d63be4f3d12fbbd963f4ac9470887f060001b620044e9565b6200d6e77f20dd19dce664ecbdd427bc69462c50333d16cc15f11bc09e923c6464c8a3792960001b620044e9565b6200d6f38c8562015407565b5b5b6200d7237f3a4ee35e1040930704232bb9fa0618298613804458f9fde6e88c47675ba5b02560001b620044e9565b6200d7517f4edd2f3e77b3d7240d1753c4faa07895884e99e748a13a1972343f4c9f64e82560001b620044e9565b60008060018111156200d76057fe5b8e60018111156200d76d57fe5b1490506200d79e7f78563e5ab88b2a3363b106f2601f71756a1901148010d80142003919996bf30b60001b620044e9565b6200d7cc7f33c842c4ca125c95bc10ce52578b4d6c36ff9ccbdf30f390d839b88cb8d25c4660001b620044e9565b8b73ffffffffffffffffffffffffffffffffffffffff168d7fe5ce249087ce04f05a957192435400fd97868dba0e6a4b4c049abf8af80dae78896200d8128886620155aa565b876040516200d824939291906201ef54565b60405180910390a35050505050505050506200d8637fb60a234b3cb4b1e935875de56b9fece2cdc9d0c9359a56930a7fbbfb5337116f60001b620059fa565b6200d8917f37a5344d8593cc0405c0415e4e47bc57677f78c6499e62b7b206fedb489e6b9260001b620059fa565b6200d89b6200885b565b5050505050565b60606200d8d27fe445552d7e54fc3633d7345f064507620c70c6d3c224e6ac8f18226d91f9a92d60001b620028c5565b6200d9007fbc9d5a9676d7bb15a1497f2e3ef4053bec1ea887b5679b9bebe1e2e297805ee760001b620028c5565b6200d92e7fde5de0c338f528234139a09e9603192d3c8cfd0014a10d9761d71d15d441ee3060001b620028c5565b835167ffffffffffffffff811180156200d94757600080fd5b506040519080825280602002602001820160405280156200d9775781602001602082028036833780820191505090505b5090506200d9a87f6c79106eeab5cddf774be01b24b26b81a8a4113f9efcdacd8fd7451478230fbe60001b620028c5565b6200d9d67fbcfe609d9042466d6cf7b666d8859f388df7b453b8360514fbb1b8a04726de8760001b620028c5565b6200d9e06201d3e4565b6200da0e7f1cda483792663f6984396358d0b7024a168d65d20a7805adc12c1d1320f7b4ff60001b620028c5565b6200da3c7fa86b71f4af6f13d5b1456c34328fc948c168c2c296ad1edebd240bb247e7341c60001b620028c5565b6200da466201d2ba565b6200da747f5632a37813e8c6e245adc5fc0c53e8d83e369ba0a86cf765839f0585976d11f460001b620028c5565b6200daa27fc616db6eefe7a79086ea70102675f6ede3fce1b253375f667a853b0b2ac7bbf660001b620028c5565b60006200dad27f6624d41808c5864cc17b20d9c7107ce5ec8388714e1729bb603a6005de9fff7d60001b620028c5565b6200db007f54856b01d03b559fea5c3ae0eafc1e0cea68e87603aab63cdfd6d4112690665360001b620028c5565b60006200db307fc0cae2703643d02df0e4a4266f1a4a17cc3bbeefe4ec315b5784699cee00157b60001b620028c5565b6200db5e7f68a81f600572fd48586c9288be63d65991631e81c96a30036420a6834c1edfc160001b620028c5565b60005b89518110156200e826576200db997fc6c21f1f9c62eb9cc5a5cc79640d286eedb11a37eb9f53a1882833dbd15ca59b60001b620028c5565b6200dbc77fd7398f3fef5eaa46dd99371ed715ad6f93cae2ab0e3e309019cf6498a2836de660001b620028c5565b8981815181106200dbd457fe5b602002602001015194506200dc0c7f913f78f84da73fb676819c2f04633e0038c30f2ce82b62062022cdc7e170931760001b620028c5565b6200dc3a7f54fd5a9b0980115d8b74e14e14eba4f9d0e970ee7e65854f72ab38c49e494a8560001b620028c5565b6000895186602001511080156200dc55575089518660400151105b90506200dc857f9b6b30a30f10098812048b380dc4f3be9efd53ecb4aeb0836fb0f94949ade6e360001b620028c5565b6200dcb37fcd2d3b4de589a899656f36c85fff86cdce223830797882386ae0fdd15d8a636760001b620028c5565b6200dcc081606462000d70565b6200dcee7f67f1583c193e81bd88f9f283a351f580ce59b9270f83168c04b54f29acabdf6560001b620028c5565b6200dd1c7f90d4dd8635c7996668f4959b3c84517d4253b25e55b0674bf8843364ccbe95b860001b620028c5565b60006200dd418b8860200151815181106200dd3357fe5b60200260200101516200a367565b90506200dd717f8f33107417e4c3e9a42270680ff9b16eea80bbde117b90f5ddbc3dc0f015321260001b620028c5565b6200dd9f7ff67405e1de33819d1f2589445eec38d729f5bd73d4ba258d1cfbd41d0cbe3a0f60001b620028c5565b60006200ddc48c8960400151815181106200ddb657fe5b60200260200101516200a367565b90506200ddf47fcfb062b89f410e74f50738d6c37e012b45617cb502a1a90de13cab23b79187d960001b620028c5565b6200de227ff32811001698627f8b276663497813275fef268b651bb89d5c6ef14b86b7835f60001b620028c5565b6200de5f8173ffffffffffffffffffffffffffffffffffffffff168373ffffffffffffffffffffffffffffffffffffffff1614156101fd62000d70565b6200de8d7f5fb0d6eb7f197d15ba090716a53665ac833b2ec525ec015b461d97124c0c17cd60001b620028c5565b6200debb7f46410abd4b0c52f225ec2e5a92cdfefa1bff9e6ec6b2c90f02b85a7e96afcf6560001b620028c5565b6000886060015114156200e0d6576200def77f3d18df235323b9124ea2e3c71b80d40e27fc64cc7b0f73e7fcac01ef3415a56c60001b620028c5565b6200df257f22d38291fbcd962cf52f7c2b497dca687ca162950ab360dbcfa0fe8186f5e41660001b620028c5565b6200df537ff08eedc02ea9ccce9e7d713cc74d6c271830d82e831e19149c484c6a681462a460001b620028c5565b6200df64600085116101fe62000d70565b6200df927ffba1b669f3aadf5f7fe3fc74951c642d628e975b6707581972c184a57cea032a60001b620028c5565b6200dfc07f680ae11cd6aae00dcfc87be5479d5f2f879fcb6389eb654e7fcce92521e861ae60001b620028c5565b60006200dfcf8b8484620157af565b73ffffffffffffffffffffffffffffffffffffffff168773ffffffffffffffffffffffffffffffffffffffff161490506200e02d7fe6e28e371f146ef1c0eccd9962a149f3c450d1a4136badad5c6dd2b8f70ce3c060001b620028c5565b6200e05b7f32d6e079050ec64d5c21d821a9294d19615a7a6c685b0ad9e08a1fc6039cf92760001b620028c5565b6200e069816101ff62000d70565b6200e0977f47beec3547ebb2d33f96c8a8d38aa5ca7f3a973908d5242bdaaea7ef87d656b960001b620028c5565b6200e0c57ff074926ad7f1738aee851d65b722cef554333bed8ad7c387efef3a184e998f3960001b620028c5565b85896060018181525050506200e105565b6200e1047f6e4f36efedaea7d4d998eededb30c9d5b6be0597f7139709eec01ecd162a2eff60001b620028c5565b5b6200e1337fb2d8a6faec71e38968823484315a76a6b99acd21ad01fcd721859fe39318350e60001b620028c5565b6200e1617ff5636da3f067eefe00b94feaa37e7d45c4039a0df65fa90e779a33421f360cb760001b620028c5565b87600001518760800181815250506200e19d7fdde63b4338f7c68dce573acde4f20ad5a7f682879f3114a78c43645b57bd182a60001b620028c5565b6200e1cb7fa61e5a7e016d1807e20a89f95624e81df7e111501c3257c0b759e9dff3ecb51260001b620028c5565b89876000019060018111156200e1dd57fe5b908160018111156200e1eb57fe5b815250506200e21d7f13ba1de82ec64ecaa1bd9da19e017a1ec897a253583997c469a0b4b38ca6470a60001b620028c5565b6200e24b7f9f0b2eaf9dfe3751d85d7dfca2148e05e3642267143448f9a589a7b066f9edcf60001b620028c5565b81876020019073ffffffffffffffffffffffffffffffffffffffff16908173ffffffffffffffffffffffffffffffffffffffff16815250506200e2b17f4ef17c56cd9f314e8a0b804b7348b94d17f1a8cd28bfb1805a01ac31033af25660001b620028c5565b6200e2df7ff6235a98c5d0246ad28a6f84f21433c953b50a4b8179cb033ed89e6ad7a2642960001b620028c5565b80876040019073ffffffffffffffffffffffffffffffffffffffff16908173ffffffffffffffffffffffffffffffffffffffff16815250506200e3457f4629e2fbd975db7e5531461b1d1a4644bfe7fa3c94b5bd7320e7bc10f4ff21a460001b620028c5565b6200e3737f6a1fd5f4f23530972327790b08a5aa6de58d7ac74568742f39678877702f7e6360001b620028c5565b87606001518760600181815250506200e3af7ffd4d0b68e00ff0ccc684164e686fce887a9238f6b23d1de481addd1a49d4fbb860001b620028c5565b6200e3dd7f7dce52a56c09b6f57804053609c2143369302ef36f0217b42fa5938bea50ddfe60001b620028c5565b87608001518761010001819052506200e4197f3da2097ebd7938c8748f3a86a6a9442c02b1bd52fdca41621bdb0874528a201560001b620028c5565b6200e4477f34c33eb18a7e174f7f1931e3b43e6d99b15831f2b1271a56447ae978e4095acb60001b620028c5565b8a600001518760c0019073ffffffffffffffffffffffffffffffffffffffff16908173ffffffffffffffffffffffffffffffffffffffff16815250506200e4b17f3ef60a28e8aa9cb2d4b6cf80bb0dfc55ae32f111db7f189296541d54af02f00960001b620028c5565b6200e4df7fc2d54d29c9233ee4685f97281581ccc06dd7af3d1b7955432ad9a3619cb47e4360001b620028c5565b8a604001518760e0019073ffffffffffffffffffffffffffffffffffffffff16908173ffffffffffffffffffffffffffffffffffffffff16815250506200e5497f9a4b2487d0bf91e6bd486b69d14dd0b50254496be17049f769aa41a61affb29360001b620028c5565b6200e5777f9a3597c116a6c9648e3d945c6804f84a842b033a2d21d9144966ff0ccab1a32f60001b620028c5565b60006200e5a77f56553e9516762766d8203c32b541b6d0cadaf3d32f9c7d8d16e758dff36998e360001b620028c5565b6200e5d57f36859385cba62e517a64be0d0a85c3721b558f70b50b2da1215f378004e3730f60001b620028c5565b60006200e6057ff026b80b2695cdded3cde2ab4152abd3fd57b63c0b15ddb6506e13a926cb7eba60001b620028c5565b6200e6337fb12af36ad40b1f5571d271baade07eabcc74019b03527c945087463847bd734060001b620028c5565b6200e63e896200a426565b8093508194508299505050506200e6787f30576f84ac4c0568a68419a5240d8ae71aabdaec50bb6751fd71cefbaebae79b60001b620028c5565b6200e6a67fbb3d600a5047543ce50cdb8cd139f2b64dd7c2b17a5e4b229540f5f0608f80e560001b620028c5565b6200e6b38c85856201586d565b97506200e6e37f1714b2bcecdcea82c13209b2de65fb221019d1ee5f15a6446072df25eb5dcc5060001b620028c5565b6200e7117f5ac384f371161865668b1effff4772339b38c5e3bb7f3d85acf6503dca5d230860001b620028c5565b6200e7486200e720836201592c565b8c8c60200151815181106200e73157fe5b602002602001015162015a4c90919063ffffffff16565b8b8b60200151815181106200e75957fe5b6020026020010181815250506200e7937f5d300c3c81ecb634004b856263e9d8ca0eccfb1bd7dbbbd6e4f86f9e75c69e5360001b620028c5565b6200e7c17f5266405e71eee59080bc0eb62a79a84561f82bd0319fa22ebd6601d3ecd8616860001b620028c5565b6200e7f86200e7d0826201592c565b8c8c60400151815181106200e7e157fe5b602002602001015162015bd790919063ffffffff16565b8b8b60400151815181106200e80957fe5b60200260200101818152505050505050508060010190506200db61565b5050505050949350505050565b6200e8617f0f342cab3528a78ba2f8b5dfd3872d59a7876d49f0e68b4197be55e0ea5674c760001b6200587a565b6200e88f7f1115bc2607fca11c3a3e45ebece94e85c311835c6eb183cf258294b98acf3d5360001b6200587a565b6200e8bd7f8191896a27c42eac895fdecbaba30edb6a4564dc5c291fde1e80111b3d76782c60001b6200587a565b6200e8eb6005600083815260200190815260200160002060009054906101000a900460ff166101f462000d70565b50565b60006200e91e7f0c5ea9d739e1a8d56555d5df46e8e048debbd43ac84faaaf529e0ae1a8cadebe60001b62000d86565b6200e94c7ff0c18023b0a94c185211a359563059890daebb8c147b13c2346a6a947bfa53d760001b62000d86565b6200e97a7f1f51999a2c3a59d02a3b19fdb6df2d501e734113d6a0f8d1a90b7d6f6d85a91860001b62000d86565b6000806000806200e98b8762015d62565b9450945094509450506200e9c27fff517eb966cc84797f2c7a2561550e38859569b569b74114bc8ebfccfd17a85f60001b62000d86565b6200e9f07ff322f3754d01c5357d0dcdffd25fcf910e05f5f43f1ea6d813e41f2935b9ab3160001b62000d86565b8373ffffffffffffffffffffffffffffffffffffffff168673ffffffffffffffffffffffffffffffffffffffff1614156200eabc576200ea537f1b80e25ce3831b32210f81bc28328bda2b38552134c18439c68bb283f49fcdbb60001b62000d86565b6200ea817fbf8b5a2de2799bb9a657224615a25d6d509d102f69a5bb6a08a8171287dc3e0960001b62000d86565b6200eaaf7f5f16562633b1cb76c7016e689ced31de61e86f24d393e4a9fc954f9dcd380c7360001b62000d86565b829450505050506200ec80565b6200eaea7fa85dca8ff2a940c21aeb9a1dcbb7ca2bd3bbe1d5f36c4df98849b1e5b5c7879460001b62000d86565b6200eb187f8a0f32b9cafc501f5e67fbb79abcad357ce42f75c9aa0f31bd6e35e7d8d7dab260001b62000d86565b8173ffffffffffffffffffffffffffffffffffffffff168673ffffffffffffffffffffffffffffffffffffffff1614156200ebe4576200eb7b7fe349c5230b72b113f1324cf2797a65257b2d22ab7f8d4336aec067bb730db05c60001b62000d86565b6200eba97f753592b02c4abc4f4114c3791c2a6af33ff86b6c231dbaad075599f115b47eff60001b62000d86565b6200ebd77ff584e348314e38e4eb5f8c3fbf30d09cbdfa8bebac0d1c103bffacb9e6c7724360001b62000d86565b809450505050506200ec80565b6200ec127fa8da24624509085fe7ab38de31bf8b8eebd2ac9de6985afe38efe3d2d24ff97d60001b62000d86565b6200ec407f81cfa4384646d41e1ae3b2fa4ba58491ab9b0791e4fd8d2ec060e30c1471cf9460001b62000d86565b6200ec6e7f6e314d631d08e6ba48a5bd83691e2207df96146bb7a41452655e7f280d9614fa60001b62000d86565b6200ec7b61020962008445565b505050505b92915050565b60006200ecb67fdc7b2eba778e1e3c82bbd660c6167f9e1f996184619521d28b48b9796e37e3bf60001b62006f4c565b6200ece47f5903d0e207f6cb918ec2b88a11b65e611a39fb06ec8e3117ae77615693240a6e60001b62006f4c565b6200ed127f630095114f81e5fa1333ec12ddd950c934be59164dfafcce7e148ca71865cf2860001b62006f4c565b60006007600085815260200190815260200160002060008473ffffffffffffffffffffffffffffffffffffffff1673ffffffffffffffffffffffffffffffffffffffff1681526020019081526020016000205490506200ed957f1bb8bf975f4b2ddd523970c68a95a4e89f6c247c804257ee692e82ae62fd807260001b62006f4c565b6200edc37fe4563f7a601cd0c3e7e3cd8a97f586ad7997f7b53d64b7e668ffcfcc856a61c060001b62006f4c565b60006200edd0826201619b565b806200edff57506200edfe84600860008881526020019081526020016000206201623a90919063ffffffff16565b5b90506200ee2f7f111c8279e24cee17ced5178b0f117eca48081363f888e5c8905d61b88f09e4db60001b62006f4c565b6200ee5d7f4927bf5c9b5a99dd2a751cacf754700c5a2ebfc99ed04874a4d7decaf3043ff860001b62006f4c565b806200ef67576200ee917f382221d1e90346dd8a554146a78753ba4e78d04981b1bab91d7b1eabbf40230060001b62006f4c565b6200eebf7fdbac28c39f953ff9836a29fad90bb744050b0bee3e7a68395020c466db7a173460001b62006f4c565b6200eeed7fd8e47032d62092c11fb171500f8a2c825ed50f4f9da7398c612034419de07cc160001b62006f4c565b6200eef8856200e833565b6200ef267f1ea6f60b4835d932608c63922afc381900f0c48e672c4ebf5aae4c557cadaa7460001b62006f4c565b6200ef547fd1c47e5c87424cd6b9dc337db459fa269f86930c51932745020e72815493e09b60001b62006f4c565b6200ef6161020962008445565b6200ef96565b6200ef957f86a6b8b6ca4e20cbfb0df73c74cc59166125db4d76391ca438167c2a9d2dff5860001b62006f4c565b5b6200efc47f4f0e365b397f504df505efab760c275a305eeea166e31da9975bc8c120b9c6ef60001b62006f4c565b6200eff27f63fc80b6f11e4124bbd0755cb1fc5843c3ecec74c94534963b8d68aef122435160001b62006f4c565b819250505092915050565b60006200f02d7fc98061359c96920fdf2c363ac72c4f37ef79ad462a8afc4134b99333057c5d0460001b620028cb565b6200f05b7fc90ad05236c58cc7c410fcf206110c74d8248486caaf413c97b4bd7084fc732660001b620028cb565b6200f0897fb2909a4a6c20195ce4e9f49b07455ce3af3374b146ac58f356f623a4a18afcba60001b620028cb565b60006001600085815260200190815260200160002090506200f0ce7fffa717a9ad9e0bbc0032c8e2668bbb690abf2aae335cdbe9f9e32153023c47c560001b620028cb565b6200f0fc7fd269133d426b549ef6a7ef0f0d36dcc00f062316dc94dd7689c1b6288337c9f960001b620028cb565b6200f108818462013ffc565b91505092915050565b60006200f1417fdefcbbab1be3f0964fa92f75df49009363ac64f3d9ec531f5242bba6a2d6b51460001b62016314565b6200f16f7fb3cc1d01130e713d3d2c4f0409875bdd93ae6a968a82ae6a47e1faf23c55a9c560001b62016314565b6200f19d7fdd68c366df57c4a359c1a3f9c95d3bd40363238a3552f27dc9d71610380ddb6760001b62016314565b60006dffffffffffffffffffffffffffff90506200f1de7ff29a4b6a859faca0867322942be5dee573068dc53669993322bb31a1c2d5fc9860001b62016314565b6200f20c7fa37784b26ee3dc8e93056c7642232f306001a744ccea1b659cf981e3ac4dd3e760001b62016314565b808360001c16915050919050565b60006200f24a7fa2e125b159483c85a94a2f87a5649f3ce30c53a11a0e321b3794f57622ebf43b60001b62016314565b6200f2787f2e3ed75b388edca7245c070cb882b7f569f84a3c662f80d533b07dad33d7443960001b62016314565b6200f2a67fe09e1eadb126c3afed05fe39ee4931a7cf14ccf6b133218b03af7b0952c9fc0660001b62016314565b60006dffffffffffffffffffffffffffff90506200f2e67ecf5d73cda85198cc211574b3f0110ddc96fe6012dcc30675de325af4de038e60001b62016314565b6200f3147fcfe436da3d37981382361f1251abc871dc5677afd5a8b0165b990e0f0eee34fb60001b62016314565b80607084901c60001c16915050919050565b60006200f3567f91366d17c834c634506c252fd6c30c7a45cc2d1b7b2841888d64c0d2367dfc7b60001b62016314565b6200f3847fac7715bb704d1a7ee2dc86c71ca80460b37cda8439885fd239935bb85a663f4960001b62016314565b6200f3b27f26e9b4d6ef1a1363f2bd6bb557a6599b2c2c20279f2936e8f226a333b72e573a60001b62016314565b600063ffffffff90506200f3e97f9d1582b0b76b67f7cb9e48f771043eea7a87e52d6fc37f8f5e6f86b45ec1c1fc60001b62016314565b6200f4177f9e004494ce4cbbc62288ddbd3c199b1a0d3d8c9337cf540bd319edd40164a08260001b62016314565b8060e084901c60001c16915050919050565b6200f4336201d3ba565b6200f4617fb728224e2a9f4e9d28852945c39077d3fbe8a8ab44aacf5fd8cc16d29616970b60001b620044e9565b6200f48f7fec19b66a0a8ca84102c0853b617be8307e3c1d52cbe980f7c6f8064965b54cbd60001b620044e9565b819050919050565b60006200f4c77f4e0592a89f74419cac63227473a345799d6494525c2ff324177cf9110d13f33360001b62006f4f565b6200f4f57f8d5def5bdb574f4085014ede194510833602941461f24cde92db28653d903cd360001b62006f4f565b6200f5237f49ad96ecaab13dca5655965f66b596bef9be3577e24695ca869abffd7c247f1160001b62006f4f565b60006200f530846200bc92565b90506200f5607f9c6a7186d70f6fe1aabb086a58d83d6edef618b85b2923a3bbcb2efd170c1e4860001b62006f4f565b6200f58e7f22b13aeda0c81bc54556b650466a1d6962265a3b1ba460fb3a298e9ccbe474a860001b62006f4f565b6002808111156200f59b57fe5b8160028111156200f5a857fe5b14156200f64e576200f5dd7f504521a23bfb3e204b140d74d6f632b4d92e825ec32be0c7680c6779c289f86860001b62006f4f565b6200f60b7f588793fc8a07f7146a52420c53904fe80b6337eeb66796d6f996e4457bf4eadf60001b62006f4f565b6200f6397f3a2ad756150748a34675da3576416651faa41a842d43fa7a3f1edf9b0b018dc960001b62006f4f565b6200f645848462016317565b9150506200f805565b6200f67c7f719ad832895d3d1c5f8cf4dae5bb0033329a772c610c7deb32ab70850b04d4a960001b62006f4f565b6200f6aa7f78ed05e30c0ed8579d10cd1ae522ec41f8f1fb8bdfda00ecfa134d9095562dbc60001b62006f4f565b600160028111156200f6b857fe5b8160028111156200f6c557fe5b14156200f76b576200f6fa7f6fa3e6698ab1e9265d25b4a9a514a1724b053bef11f2077e6d5920580d33546260001b62006f4f565b6200f7287faf635ecd1bbdd3dbe1cca07c600d5301efd9c88070827de84b0236594f73fd3060001b62006f4f565b6200f7567fad7da38044ec0b9342ba19ffc178d0c64fbd4f7f9cfdb5a2350aecc25294c59b60001b62006f4f565b6200f762848462016507565b9150506200f805565b6200f7997f2a0ec853b745559217ad23cd97a8642e44d6c9106611b81e451edc632a9e31c260001b62006f4f565b6200f7c77f5990c15ff2896812c99a0a35d82a3773f5f272d5d4162eafcf98d433f934c01260001b62006f4f565b6200f7f57f87e879318fac55df00dbcfdb2641e80153622860c80855e98e6cb0b4be7465af60001b62006f4f565b6200f801848462016624565b9150505b92915050565b6000806200f83c7fdea4aa96603a46bea7de2872f487b42acff57303b00e2389277b15860c70d69160001b62006f4f565b6200f86a7f5f74be36d6e6390f821e511eaa91551b077da484fd05ce5939236bc074fc01b660001b62006f4f565b6200f8987f6654c801d6705cf14d002b46b23167851de654d91490e6cfd97080a6ee19caa560001b62006f4f565b60006200f8a5866200bc92565b90506200f8d57f4ebd88cdec7b27d226640a216c3943f3a1402446868ace64978c2fb624fc39d960001b62006f4f565b6200f9037fd286c766e36a44a8e84da2915b85ce88f4c7ede5d4709936e3b759c35b667e4f60001b62006f4f565b600060028111156200f91157fe5b8760028111156200f91e57fe5b14156200f9c8576200f9537fd81e55f88b751bafe78bbeee3273920754c8c80110eacf96db08f2a9dd8f080e60001b62006f4f565b6200f9817ff84bdf202a31ae4e552d85a3dfc98e16720bf1864aa6f673788ca75f4c7b85ce60001b62006f4f565b6200f9af7f941260b696e67a1cc3f81e4b79bdc38c8ef65006482711b9cf39ae302cbd02c560001b62006f4f565b6200f9bd8682878762016741565b92509250506200fb87565b6200f9f67f1a34fce7689c384ca8573ce7835052bde06f71cb8b5d661246f84d4a651d940c60001b62006f4f565b6200fa247f9c6b57de3e81bfb8f3fa77fdc8a582eb1c6828325ee6690308f6da9da489024460001b62006f4f565b600160028111156200fa3257fe5b8760028111156200fa3f57fe5b14156200fae9576200fa747f285c9c60652c6202bf8ebeb3b88bce9c7c96221f38891f4c7a9650e596d14d4460001b62006f4f565b6200faa27f0f09711b57f75ea6ad5030692f8a4ab3824d303cbb19435383f92cab9597311560001b62006f4f565b6200fad07f51655bad1f7751a0ab2454b45854961eba344ee6cfd4571ad86d362c8dfd24bc60001b62006f4f565b6200fade8682878762016c5c565b92509250506200fb87565b6200fb177f8176a79500a29aeff3fb8145e5c55a8e97b82816cdb2bfe6f26a1dc2e92c304a60001b62006f4f565b6200fb457f1b58db4469709510327fc1cdb7c1eaa6dac2b6751ee4ed6a6f78a488cb96223f60001b62006f4f565b6200fb737f226b5f57c988b390cec1c4bdc62c60ad951eda2db13ad555b3a26d0b67d7b55260001b62006f4f565b6200fb818682878762017179565b92509250505b94509492505050565b60006200fbc07fe10e7b24bd4523c6da60a51ad3b780e67c771b06d0de1c5eca90c0b854c1105660001b62006e94565b6200fbee7f037bdbcd32c3bbe29dda7fa2ae2c3305233a2ff28d10859a5c60e42a3f915b5460001b62006e94565b6200fc1c7f4d880a132c55852e5896cc56a0afc9a5e7f67fae895e2ca89305a97497bafdf360001b62006e94565b7f00000000000000000000000000000000000000000000000000000000000000007f00000000000000000000000000000000000000000000000000000000000000007f00000000000000000000000000000000000000000000000000000000000000006200fc89620174e7565b306040516020016200fca09594939291906201f23e565b60405160208183030381529060405280519060200120905090565b60006200fceb7fb51a78ad9a8cdd592b0d9f00b69489550e2f98f9cb2116df9948e576fe04239b60001b6200587a565b6200fd197f87cf6b6cb3fbbdf8298d2d4ace4e2f918cfc22459810283bddd1349cd0ae7b8e60001b6200587a565b6200fd477f75d8750b08820a21bdfb34adf6ee5c66fae0f1c52c5ab61858504cde056564b460001b6200587a565b60608260001c901c9050919050565b6060806200fd877f343cdc9d6eb8f1eb4d381e9b66caeb853f564ea799ac4e1fe9f12ad8683ff60960001b62006528565b6200fdb57f49e5c3760790dc7e591d81b5dc41761f0419bf79973c8ec68ecc5e8bd9e243bb60001b62006528565b6200fde37f916c5e9e94768e3820068a04ed4533b36d72304d625bd96387dc0097cbab545660001b62006528565b60006200fdf0846200bc92565b90506200fe207fe729ab2410853ad5bc4b3f858ad5788bbaeb70d690775e055d90cba46411f7f760001b62006528565b6200fe4e7fa0ee8bc87d2917155b6c337ff3262eabc0fdea62aa633f00702e98e974d853db60001b62006528565b6002808111156200fe5b57fe5b8160028111156200fe6857fe5b14156200ff0f576200fe9d7f75613fdb5b522212bb765c276f20b2b9707677809e29918ad25f1af387f3277860001b62006528565b6200fecb7f8d36fa08f25572f72a42c6b16a2a93127edb8894c8e5d688b61d5d61dee148f460001b62006528565b6200fef97f0785094c3e81d25c4763bcb59f1648d1fe5db671b6d26c5871a611257d12ee5f60001b62006528565b6200ff048462017579565b9250925050620100c8565b6200ff3d7fae1bfdf2d82b2fdd5f5bb4030b51e7ba2de15226cbdf781d29e3eb1bb5b7e30a60001b62006528565b6200ff6b7f65e20c7b9a13fb6d2d4dd242df423d78cde2194e40d2834047590447adac292b60001b62006528565b600160028111156200ff7957fe5b8160028111156200ff8657fe5b14156201002d576200ffbb7f5d1f9dcc4e4b60e2faa123ff406793c296714d4b55faa1e80f1b7730c70dffbb60001b62006528565b6200ffe97f5076c93f4b138cb82685d25d6ef9c9b3f1ec734f7ab06c1bbcf0298d85fd852160001b62006528565b620100177f05eadb0ca4461e200507530a3164ab4b5711194e68105a5d0a8912f73a7c1d9e60001b62006528565b620100228462017bd6565b9250925050620100c8565b6201005b7f39a1c2609296da8e7eceef9cc179780f922d2ad7f76a9b8a31e4bbc75daa167560001b62006528565b620100897fd2f846846d0516039266abfea07a3837cad11610ebfc28256bec4c47fcfcaedc60001b62006528565b620100b77fa6e60e0ba02558f547107cedd27f209bd34a98d8e6abf5d3c3914ae9ba79898760001b62006528565b620100c2846201802f565b92509250505b915091565b60606000620100ff7ff84abc32b49fe732cb0bdd1dd1eac799c463ae2382b132bbac5461e6fafa79ae60001b62016314565b6201012d7fd67be3ffcd1fcffd8e0c4a5a06abaf5a9256c0ae62e562b16ea2014b20746cda60001b62016314565b6201015b7f84536420e6a889d98bf6255f86912c66759e76a88d12122254111c3fad9a5e6160001b62016314565b825167ffffffffffffffff811180156201017457600080fd5b50604051908082528060200260200182016040528015620101a45781602001602082028036833780820191505090505b509150620101d57fb063e9c58de19b8fffb4bf35f4c86d6fb909b95f20f347d0d6f6c9d286f26aa160001b62016314565b620102037fcf72091b82e219f313de4e2b0517c169758607792678c5a0bb33bad64e0f6bae60001b62016314565b60009050620102357ff6938659595c23466693f08e3b6842d65f9f1bc8be7598bd576d6f9ec107033160001b62016314565b620102637f85cbd3df4d512af0d9b0d9a0379132e85e266b3f0f7d6183b05f740d7265407460001b62016314565b60005b8251811015620103e8576201029e7f1ccaaf71486945db037bef04fa0e02aae2725f43ca1dd09213111193d0c7817760001b62016314565b620102cc7faa2561272e86021bc37c3ba96661657f78c3caf602eacb6c530a69a7a45937f260001b62016314565b6000848281518110620102db57fe5b60200260200101519050620103137f8fa6e2215a68bd9808d19d0e374d0056a30ec28fe829adaa15c57344ce7c9f3e60001b62016314565b620103417f43a8ad64e2b8e99b942cd3130de9d81ea543d157ba5e1e3f95361fdbe1090f7360001b62016314565b6201034c8162018377565b8483815181106201035957fe5b602002602001018181525050620103937f08b1c35d87a0c565966d13ce31cac8f03bd25211d239aeed28971b05eeec5f5560001b62016314565b620103c17f72248361730804ecf78a46f0b09b0480cea9cd05637e2599252a778cd00f577360001b62016314565b620103d783620103d1836200f326565b62018421565b925050808060010191505062010266565b50915091565b60006201041e7f1b8da8dc31b371e5400aea93ba609da909e131b511732d39a0dbdcb99a76890e60001b62006e97565b6201044c7f163ad7a58f894b236d55af346e9dfeaa3136619a5c93c19fe76544c92604563e60001b62006e97565b6201047a7f8af66e06a0e0ff63c51af60031772a608b36118c05ba9d63a1a360b59f825b3260001b62006e97565b600460008473ffffffffffffffffffffffffffffffffffffffff1673ffffffffffffffffffffffffffffffffffffffff16815260200190815260200160002060008373ffffffffffffffffffffffffffffffffffffffff1673ffffffffffffffffffffffffffffffffffffffff16815260200190815260200160002060009054906101000a900460ff16905092915050565b60006201053c7fa113002d5792664426adc234a27d5768f87bd338c8d6797b1c7a762ff58294f660001b62006e97565b6201056a7f469ae70cee8a6581a9b6d21817ec5520ffad9025ec6827a85bc59545e858b9f560001b62006e97565b620105987f0709d5b533b07923445644f4704f790feadf9fa7198730d6bb2a797c85542f2960001b62006e97565b600360019054906101000a900473ffffffffffffffffffffffffffffffffffffffff1673ffffffffffffffffffffffffffffffffffffffff16639be2a8848484306040518463ffffffff1660e01b8152600401620105f9939291906201f119565b60206040518083038186803b1580156201061257600080fd5b505afa15801562010627573d6000803e3d6000fd5b505050506040513d601f19601f820116820180604052508101906201064d91906201e1bd565b905092915050565b6000620106857f35ec9bbd0f2df463cb9715443c5b7ad459860b67d48aaae4f376d2c1a117242760001b620044ec565b620106b37fa6f677b4f700fe4b3aa64515a9e596f515daddb6b1a5b572df8e46ce94c7042b60001b620044ec565b620106e17fbb40f84480956dddacb3674d964d03f3aaf5996845d2fd82dbcf7c6f68e17b9d60001b620044ec565b6000620106ef868662009a8c565b90506201071f7f0d8d768cdf350e630e9c75f6e9cc2fbfec03e46e3bca1bfc78621f7b1ea4bacc60001b620044ec565b6201074d7f695184d6870ff65f110d31ca7b973d2503ed6bf97950cd7a7712ce16458d3dc960001b620044ec565b6201076783806201075e5750848210155b61020162000d70565b620107957f04475b66501b1cea485962f97e575106c5fbccd137a963b751c20f835b20dcd060001b620044ec565b620107c37f6d4cb7acfa47ec7f97dabec01018ce9ba997a9557a6e4eba6889735f16c40ae560001b620044ec565b620107cf8185620184c7565b9150620107ff7f615efd71381b0f774abf0fe1bea96a716bc3ddd069a94b0c72e5e63cb68f398260001b620044ec565b6201082d7f7a0dfe389963bb1913d69b8276bea1c0bc2426d6119c0226f253411d9a0364f360001b620044ec565b60008282039050620108627fbde7868a814b14500bcc9edd49b7089ee31048888323ebd300c19bf6d7b7fc3060001b620044ec565b620108907f896ce21a320492935be6ad183475bdc17d8ebbb2c19ffd7171931d43211a50aa60001b620044ec565b620108ab878783620108a2876201592c565b6000036201856c565b5050949350505050565b620108e37f92f24b14c2161334a6fc7b4aebf48a1b9a04fec6bacc693ed700b3b748c9828760001b620044ec565b620109117f3cf087b7d9abc67597803686c9d11b4711992dff8163a1f73e476428e2f404a760001b620044ec565b6201093f7f047e1a8d7e69c9fa460f68b3f84c2fff842f94bce0f0bc65cf24c29fd5fcbcce60001b620044ec565b60006201094d848462009a8c565b90506201097d7f7dc9be0d588447d5e0f1ea704780217b4620b3b185366a6faec08c55a206a4e060001b620044ec565b620109ab7f9b64c958e3ddf0a66419863f40d3a845bfcae6298b0fc2752764ab2a9e50a5a060001b620044ec565b6000620109c28383620092eb90919063ffffffff16565b9050620109f27fe8de69c05f3a30a3756ce0d8cc95bc7b4c848d4da9cf4f2ce98748ef2821e5aa60001b620044ec565b62010a207fe19ca37ed030818b4500102423ffc5e3c94d15235e8803e84ce6bf4797b2632e60001b620044ec565b62010a3885858362010a32876201592c565b6201856c565b5050505050565b50565b62010a707ff1c5604c0b56ce8554ce52bbda695c271474978aeb0ec91b1d762bd506d1460460001b620128e5565b62010a9e7fb1ecb796a661dbfb70fef014866d776da588e93b1df126c25eb4dbe1310d5d2460001b620128e5565b62010acc7fbb44eb997264ed51142889523101a08af12a5351bff96e00f9967395133a2c6c60001b620128e5565b62010b53846323b872dd60e01b85858560405160240162010af0939291906201ee5e565b604051602081830303815290604052907bffffffffffffffffffffffffffffffffffffffffffffffffffffffff19166020820180517bffffffffffffffffffffffffffffffffffffffffffffffffffffffff8381831617835250505050620128e8565b50505050565b62010b877f3fca94513a387edd866b2de054b10ef342d127cf5fae78efd8ed2010f08c216660001b62018740565b62010bb57f3897e74b8cfa9a21b1a1f815bba574c6d3889c44fb049b5c0347f3542185d31460001b62018740565b62010be37fe7e1d0dd1f81111473a3cbb76e6a0d270646e34cc2de1374cfeecc99dc957aae60001b62018740565b62010bf4814710156101a362000d70565b62010c227fbd650d338eec540571522c845875f51e474f2e7371bbfa4e30e3c5b9a9c680e660001b62018740565b62010c507fa3e4330ed5bf26ff31f556a3fbb4eebb5db8cfccbf7bd1a7be8e1be122ff044760001b62018740565b60008273ffffffffffffffffffffffffffffffffffffffff168260405162010c78906201ee2a565b60006040518083038185875af1925050503d806000811462010cb7576040519150601f19603f3d011682016040523d82523d6000602084013e62010cbc565b606091505b5050905062010cee7f8e068e0777c481f69784bbe302ec143fd3a720d7d3fd9673f0bda7c0a7cb48bd60001b62018740565b62010d1c7fee10694a421b7003a690f8f6e56dee41f905b9dc91527b0991fb4acbdda121cc60001b62018740565b62010d2a816101a462000d70565b505050565b62010d5d7f876b9153d240f5cf173001d37b2ddf8fdc72e4783755e9d01c3e25e8576c872e60001b6200780c565b62010d8b7fc7fb1387dc9ded740434e38b24c35698eb613f8194391f20fa5d721802497b7d60001b6200780c565b62010db97f8920e5aac7bd6bd3e1957b441f4699f5ba3f38decbd03e963d10ce73dc6170f560001b6200780c565b6000600260008473ffffffffffffffffffffffffffffffffffffffff1673ffffffffffffffffffffffffffffffffffffffff168152602001908152602001600020600081548092919060010191905055905062010e397f627737b1347f57e49dc16492191181ca46051747f61ca7e59af06001b138097d60001b6200780c565b62010e677f5dc8555a9a4ba55f7dabcbc1721dec221c4f9ee92e7ef39f0c8227e16bfaf0e860001b6200780c565b62010e7e62010e77848362018743565b8362000d70565b505050565b600062010eb37f24c34ad2d1b4e14ea3d843b60203175d6ba6950affe2ca0bd547707a17a15e6760001b620028c5565b62010ee17f67538b58ebdcd9478d8d284d717f9942e1c4a00ccf961dc0ca039c850336d9ff60001b620028c5565b62010f0f7fd49b6d953c2afea8aff0781fb9b1cd0a481c76cde9ebbaf1a41e64a16952f4a360001b620028c5565b600080600062010f2d8660800151876020015188604001516201332c565b92509250925062010f617ff2ea24599a6a852b32dd8a1779d9e4383e42d0011f2bd1050c8dcfdf9ef9f71660001b620028c5565b62010f8f7fa757d6ea6c1c5ed1a331b2237f7ee3f74851e9475c578f3ab0c8e6eac87b45fd60001b620028c5565b600062010fbf7f947906073210bf84c6c0da3022eaad4847f98e6412b4c5a795e3a8036b11a0f460001b620028c5565b62010fed7fcee05dc97bcf5fd2094c00168229f0f2a234ec76a2cdc1378ed2d1d374f8776c60001b620028c5565b60006201101d7f256a0b0a2448a6427fe07156ec0a13001dec3dc0adcf58dad0e594d250d7a86760001b620028c5565b6201104b7f3c9e7134a533bec6463f51a1e8231f94c3e49f2efa2b97cd92940c18407a611860001b620028c5565b876040015173ffffffffffffffffffffffffffffffffffffffff16886020015173ffffffffffffffffffffffffffffffffffffffff1610156201117a57620110b67f90946eb49fed91b2ef2a1fe8e0d9862cb12242fb0ceb39029a6b87ceb82b901060001b620028c5565b620110e47f0fb80c9ed297e98b470abb931a2b2c512f27602b4bbd0fa6229daed2e852b3c060001b620028c5565b620111127fb548b9e6d66909086ba58e374ccf5384415a1536be698fdc5464f2139d65422860001b620028c5565b849150620111437f01417ced81552ee957b6ffffff5a80a43c3ed9820936b3557292d1ead0d5f67160001b620028c5565b620111717f7d9b674b60dbd0d6da9a3c407e616ca6a65794b15c50d27bf62d0aa1792a87b460001b620028c5565b83905062011267565b620111a87fc2ff3615e81454579b76c457a1960a02a95f26cd05bff04ee46c5eb6e70059b460001b620028c5565b620111d67ff34e4d6ec169f0a7fec0980997502e0259bc0f697735c6fefe33bee076230e6060001b620028c5565b620112047fde4d151c00f273d59bdfd0d8cd47bec5a99e1100e2763a3f5fb5d995bc22a6e860001b620028c5565b849050620112357f53d370e247a7f79723b509aa6e4514ef0b1d4eb4b5f684c94ae78b5c92b412d260001b620028c5565b620112637fde8d8ef65a647c41b3ba72bbf9ae88cf3c68f766b9787a41589af9ed099d4a9a60001b620028c5565b8391505b620112957fa609ac32b107f7ec91edc111bdbd7747113a4cf59265820a5e908bf5d8d6a1d260001b620028c5565b620112c37f4f9c3390efc03e7c13156b5fa7797181874bf063a1479b9bfe0d8d4008d263ec60001b620028c5565b620112d18888848462018da0565b8098508193508294505050506201130b7ff9752f0df35e1986010589569cffa86cabe129ab89be0bc49a0987eb465ffcb460001b620028c5565b620113397f1ddff18b370e1a40f0115f89a18cc96280204e4b903ca27c1a550e3f92ae249960001b620028c5565b876040015173ffffffffffffffffffffffffffffffffffffffff16886020015173ffffffffffffffffffffffffffffffffffffffff161062011387576201138181836201918c565b62011394565b6201139382826201918c565b5b8360000181905550505050505092915050565b6000620113d77fd1c07b113e1b183c7323e36281349ea6323b100228283f95ea13bc0858af575b60001b620028c5565b620114057ff57708a9c725a766cc92014cbc1c40716a2b70283dd6e90f4aa9cb933b6ceba260001b620028c5565b620114337fa35b1aed00df4b3f36b24572753eef8495acfb93762a61af6494c225542469e560001b620028c5565b600062011449846080015185602001516200ec86565b9050620114797f9fee56d9155382404c70ea326f1771d4f9fa1848b8b9c8b3d2fe8e5897c6ceff60001b620028c5565b620114a77f8152d5b1ff7a225a1922cd932544d4303ede1bcdf6045d84634790986937e77860001b620028c5565b6000620114bd856080015186604001516200ec86565b9050620114ed7f0871b6c77825ad49c53a037434dad3e023e6206630663c04e25941df0b5d5e7860001b620028c5565b6201151b7fd7605d730f99e4883b4f4c697d9330cef1df4b09717c8d69694f40623e38373760001b620028c5565b620115298585848462018da0565b809550819350829450505050620115637f892fb13df133a75c4176935045ca39c658383298b0dd2dfc1c6dcfa1d656905160001b620028c5565b620115917f4426fa0a506e0a4bf77885630c3d9f2829285b1b2dece4705228433beb68dab260001b620028c5565b8160076000876080015181526020019081526020016000206000876020015173ffffffffffffffffffffffffffffffffffffffff1673ffffffffffffffffffffffffffffffffffffffff168152602001908152602001600020819055506201161c7f4695d70c1655b365772c5f94a329e19d90a80f719477f22a123faa7df01ee4e160001b620028c5565b6201164a7fca974ac056eeb985cff6483500e7701a34ae06815bedcd1a43ceada7860512bd60001b620028c5565b8060076000876080015181526020019081526020016000206000876040015173ffffffffffffffffffffffffffffffffffffffff1673ffffffffffffffffffffffffffffffffffffffff16815260200190815260200160002081905550505092915050565b6000620116df7fc6097e1f8a2b83825475670544f096008a3d3b981d93721ab9621e4f57d0ca7460001b620028c5565b6201170d7f9db8ed1ac6e5914475a5cdaa2496e891b5b391d32bc62cfcef9ba057ef09bef760001b620028c5565b6201173b7f8bd59edfc1a663b620e971c24a627dedd20a1095fd6a1d6a598be58ef8d016d760001b620028c5565b60006201176b7f7baddf04c8d58a0ac785ccc02a71b216f2f2bab697e2d933f9b006380d273c4b60001b620028c5565b620117997f1aa451681e095c5b704ee2ac711ad6704fe7b4b8f157764e1643b4e54c332fb160001b620028c5565b6000620117c97faf882c2545593e35330e7d70192d32adeb5a215cd80e57892c6798d1aebf1c7b60001b620028c5565b620117f77fac698903eca0b4dc9d5581202f5d7fc96bb20437f22247a12d382756dee69ed760001b620028c5565b600060016000876080015181526020019081526020016000209050620118407fec5921ec48aa90751a64e6cc06f164ed1b871c4e4e9efceb6597bd44337c8c2a60001b620028c5565b6201186e7f78bde586a1b414be159d00fe6f18a8e3794e4420de5b8085da1cf968f92c16f060001b620028c5565b600062011889876020015183620192c890919063ffffffff16565b9050620118b97f09085165be3250ede902345acaf799c66a2817ccb2f3e0fb2d007a47aeaa674960001b620028c5565b620118e77f978afbd6fcae54481a69edcc443bcb8e808d0d42e0e845dc3f6795763c9f960260001b620028c5565b600062011902886040015184620192c890919063ffffffff16565b9050620119327f0713da42c31be6a58fae4d2c92a8444c3875a03537864122f8acc3d7acd8d97760001b620028c5565b620119607f881832dfa6f7590122a28058209f41ada0b94855b5db9a3a4028eeb3e47190c260001b620028c5565b6000821480620119705750600081145b1562011a7e57620119a47f0e16be536c887350451550c82606257a9c58ffadf709ba28b15723e5eb1d0e8b60001b620028c5565b620119d27f1879a77bf162fe8970ada02a6974e37080fd914dfc82750ce3d215656f5b89e660001b620028c5565b62011a007f4b17cd3d18614ffda189c9ec133123e2776a11b1befedad8ebe1db9898f0a0b660001b620028c5565b62011a0f88608001516200e833565b62011a3d7f05039267c626a4aa9e27e683184c9779a575e6201131da971ddfa6d40f1a72ab60001b620028c5565b62011a6b7f384622063b23bab34d2f469eb7bf141d23c5b974ea38236608a595d70115b50360001b620028c5565b62011a7861020962008445565b62011aad565b62011aac7f4f31be8275a6442889af616318c1317c1b931534adf387bd93b7c3df2072607960001b620028c5565b5b62011adb7f646fe4c07087bcf7cd9f8468aefa25698920d9d6d84b57a9d14c9d703688900d60001b620028c5565b62011b097f24b972b200def1f0c039c674150067d217acba2fa8d7912e193a7dfe9b880a1e60001b620028c5565b60018203915062011b3d7f208cf5ff0a8c303d43834bb37272fe45c592dbfed7c23c582bcd831069f605bb60001b620028c5565b62011b6b7f7745baab2b17893f741519fc522e2d95bb264824bf7574c524ff3cddc03841c160001b620028c5565b60018103905062011b9f7fba93970f3c32d88881ca072adc38b5236bb84ae7f6883f54e8bc324879d81bc760001b620028c5565b62011bcd7fd746ab470d21105cf2b95e4f833926b91c1b77f6a491d6f3fb85b8e741863b6d60001b620028c5565b600062011bda846201939e565b905062011c0a7f680f10ce690a2591a2ab6fd710b4763f2b0b235a94f20bed5b8b3c944f16539f60001b620028c5565b62011c387f42ae8a08a355c2149079f93fd6a73338c72e5b2ca1826951e939c6546845d7c560001b620028c5565b60608167ffffffffffffffff8111801562011c5257600080fd5b5060405190808252806020026020018201604052801562011c825781602001602082028036833780820191505090505b50905062011cb37fe84afb7cc9ea7d4a8c79da10c0a6ee764def1bb1d867e4911b171baedc0652ae60001b620028c5565b62011ce17fc214a994306b8e7da30245703417a4a3d6d4c2a32615a0254f467eca86200e7f60001b620028c5565b60008a60a001818152505062011d1a7f458e0f22eedc758f8283e9c99cb805e4668a06844106ee010b65af475f58d18e60001b620028c5565b62011d487faaf1b63e04685ca2a897152801cc1c46c798ca99da306efcc5a3df3dabb1758a60001b620028c5565b60005b82811015620120f75762011d827fa902f0bcb3a66011c61bb0f7ce06b1dfc731047cf16a50cd207aa0a7359904df60001b620028c5565b62011db07f24332286507c1138a9ba2f92a53da63e6ed162484288b17f7476b23ce4e64a2d60001b620028c5565b600062011dc782886201943690919063ffffffff16565b905062011df77f53907535fa26e7207ddf816a3855201a1df5a195ab70eebcebdcfa1259f2ecdb60001b620028c5565b62011e257feeab84e745935251d55639ddfc6d7ae216af5330c28fd81a539c9be484181c8b60001b620028c5565b62011e308162018377565b83838151811062011e3d57fe5b60200260200101818152505062011e777fe629824567a53ba3fe9930990fd9ed175fc7a23c420ff6df302feb62020b6fe160001b620028c5565b62011ea57f15da087805ad92ea77a4186d34ec761ab492bbf37ed98b592b7af18f855133f860001b620028c5565b62011ebf8c60a0015162011eb9836200f326565b62018421565b8c60a001818152505062011ef67fc8b7f0e3ffed16ac07e76a9b76bf67bb10cfb905019f73212073e4fcf3660e1d60001b620028c5565b62011f247fe613d62351fdf4c70a0db65a5b7323aa81ecbe447204618d918378974292875a60001b620028c5565b8582141562011fc05762011f5b7ff35bc803a5d1b5c82fd4a863e7d6551b7954582569d9593097642a096942f87b60001b620028c5565b62011f897fe2a695277b2207167b6e2bf608015d7ac697d97054238da8f3feed1577617dcf60001b620028c5565b62011fb77f147d86012041a71d12c8d1f6e7e6d6318bef1d84a3a89ce69152e6abcb5aa66f60001b620028c5565b809850620120e8565b62011fee7f2bc8aa892c9af5fd8d9a8d8b0beb3e8c708b03c13098c1160981459d6a7b579a60001b620028c5565b6201201c7f0280e4bdebc64a9994db618c275e472e8a04b341bcda6a8f2e1a4c9c981705ac60001b620028c5565b84821415620120b857620120537fa77418dae09310eabca734484eaa0ab962409c012e9b5df5fdb7c54353265b6060001b620028c5565b620120817f98456209ec8d00f8a5d7437b74708e9df5dbd9960d2e31d028e197d274e0bbbf60001b620028c5565b620120af7fe73bb849d8ddc3c17453aa211fc77e9c5982926c15bcb15079810e869781144060001b620028c5565b809750620120e7565b620120e67fd4c6e69466faef08bf420e6d839e73f38345b33c8229ad47b064a8c59730b9e760001b620028c5565b5b5b50808060010191505062011d4b565b50620121267f932230b70095688c4c3448637724e5fde06bbee562cf9c3a33c6b01caa5b417460001b620028c5565b620121547fbb7882e8acff05e27b5c794b0ef73949fd52e6ddcbb08f56b4f952e80e41252b60001b620028c5565b8873ffffffffffffffffffffffffffffffffffffffff166301ec954a8b8387876040518563ffffffff1660e01b81526004016201219594939291906201f3a6565b602060405180830381600087803b158015620121b057600080fd5b505af1158015620121c5573d6000803e3d6000fd5b505050506040513d601f19601f82011682018060405250810190620121eb91906201e783565b97506201221b7faa117aead7af37c2627d6cd34898c488d2e830aff9044c1037becd7957ea8f3860001b620028c5565b620122497f8cb65e7f4fa6767feda06c7a88199662f87b53adeb28913ef8cb0219af841aac60001b620028c5565b600080620122618c600001518d606001518c62012440565b91509150620122937f70b03276412344dae943a9517397de7fd788fd6690ae9e9f90bfe52a045d30b360001b620028c5565b620122c17fe2e9177e7431a1ceed0dadedf0782a6b203a4f42fbb9705729bde05d714ac56260001b620028c5565b620122d6828a620194e390919063ffffffff16565b9850620123067fa59a430e9d0edd99b51a4b53ee6f0532f450b19c2caf7b8fd9fe89eaff7d2e1960001b620028c5565b620123347f5c39fcc3eb71fae992ba141fc36e9754e8ba82e73d05826c3202874c4004df5760001b620028c5565b620123498189620196d290919063ffffffff16565b9750620123797f780b41f34023d418c10e24f58eada64e65492418ba1f8afce7aaa5afb29b154c60001b620028c5565b620123a77f63418e784210d9778bb1cf75b85a88a9a5d37f3cc3ce5ca569d3afadd7da585160001b620028c5565b620123be868a89620198c19092919063ffffffff16565b620123ec7f802ef1f1bdf5bb76188167fb9fa3388d178b4e09097f57ca0bc57558e2e4d8f760001b620028c5565b6201241a7fbecdbe7ea1127de6565ba08224446524f1f68de8cd6b58459e8bb4457372540260001b620028c5565b62012431858989620198c19092919063ffffffff16565b50505050505050505092915050565b600080620124717fbf4ce189375b1bd782053a9b35dd70eff5c2ee6639367db97dbca37efffdbf8160001b620028c5565b6201249f7fe91374938740a725698e748ea1900b4f4a8fb809d7af6502f771e77f9f1b8a5f60001b620028c5565b620124cd7fe76711de89f7bc7a4c944003451b662c010ca28d9efbc5c45a31b7da650e688560001b620028c5565b60006001811115620124db57fe5b856001811115620124e857fe5b141562012589576201251d7f0a9ee0086625657ea1db3ab9da475c30511319754ad6208a7c80aaa0becd444d60001b620028c5565b6201254b7f0e3db2d086f99b3c3ccde32fcddf0061a7f81bb7b855a8a674bb7739e6a3185560001b620028c5565b620125797f0ff15eb8c319d39b7a4267df39d59eecb8aee1d6285a12057f68cc7d916c08b660001b620028c5565b838380925081935050506201261e565b620125b77ff7af84a8b66910e148e3f5a399486bb4c8c104a39e5e53fbf17e7addb7170cf060001b620028c5565b620125e57ff829737a970bde4f3a59482868eca127a640c7d21c03e9308d032e2cff3e793660001b620028c5565b620126137f6d43632b2fd6f64321443ad1a61db49f7fba864e37eceffea5e8c705b516577e60001b620028c5565b828480925081935050505b935093915050565b50565b6000620126597f0e379b560dd176564a5881533a4c5cc19aa1cc7aa8faf76190b57cc828976c9b60001b6201996d565b620126877f49d3279522a2d539b8f6450b55bfcf22258bd9c72b153ac7bfc97b8154263c9d60001b6201996d565b620126b57fd5842d537ca76be62dab0981f1adf06ef8b0c1d3d07c5c5fccc5f64e322b6a0f60001b6201996d565b60008284029050620126ea7f700f29679531b8a645e8ab26d0250167049ab4bb7c67fccfcf4189def020930760001b6201996d565b620127187f85ee3aa337267c4ef6af3c1740f5103ae02d953ce58bd465e6f4f46762c273f060001b6201996d565b6201273d6000851480620127355750838583816201273257fe5b04145b600362000d70565b6201276b7f5c252fff100b72de4ae3a3189d6e38224dea20d11b533167dfd1daf017c5df5f60001b6201996d565b620127997f7a3609fb2bb484a1f0db93870f5b059b577a0a4fcaede309b231adb45a70056260001b6201996d565b60008114156201283857620127d17fabfd1788429d8fd6729b4327e1f4244c545ab508b775a5d75e4ea123a58ac5d860001b6201996d565b620127ff7ffcaa1bbaa38aa4160df1140967b159d44023995232ff45e635b0b13920d04d6b60001b6201996d565b6201282d7fdb7b1211aa3c4c707d8158063fcc1a98008bcd7125192b75674190966ccffc4160001b6201996d565b6000915050620128df565b620128667fe5b1e0552e71aff9f91da98dca666a710532a0d6c20e09343da7975a6b13bf7160001b6201996d565b620128947f3964c1cbaac90899caf28429727671ca1384f81cd7e6c5f3984d8c0c0ba0f1ba60001b6201996d565b620128c27fe5c9d6cbe924ecab73cee431c799e5360b936d3caa09c48d311f4f973dea101660001b6201996d565b6001670de0b6b3a76400006001830381620128d957fe5b04019150505b92915050565b50565b620129167f37a83b59fae1074b14d9f482cc90a27d1264db69cbe4cac9207e87f75c12bd4960001b620128e5565b620129447fe9e63da1694b1fea95382f8746327af340d91196254ff97512c12a96fcd5e97160001b620128e5565b620129727f897e3dad2a9a6a35640eb029e2738d7e6183eaff3f61136653368db2fd29c3f360001b620128e5565b600060608373ffffffffffffffffffffffffffffffffffffffff16836040516201299d91906201eda4565b6000604051808303816000865af19150503d8060008114620129dc576040519150601f19603f3d011682016040523d82523d6000602084013e620129e1565b606091505b509150915062012a147f78efc5d4151a293a6f454a45a34ba50a9f141b83db3fff9190727605df43933560001b620128e5565b600082141562012a28573d6000803e3d6000fd5b62012a567f8c72ea9591f6650733f56067de267801b32361942ff6960b908a6a839b15555160001b620128e5565b62012a847f3a0300b5edcfe17b09d299fe0a8352dfda68dbec55ec758e345ba8c70305588160001b620128e5565b62012ab460008251148062012aab57508180602001905181019062012aaa91906201e1bd565b5b6101a262000d70565b50505050565b600062012aea7fafc28c8ad46b468274539bc8314e2745dc2d3f7038af583f6c25b345252299ff60001b62019970565b62012b187fd65cd8894cd7599d573934ee4e7259bca66b67f4529b86afc85561768ab6331260001b62019970565b62012b467f73d15665ebf97f2ec239c9de9f2d368145ebf8bfc29584cd00c883286bb0b5b760001b62019970565b62012b5283836201623a565b62012d545762012b857f611dcc30a45c499ce3ad496c52bc2186f0cbc5070a77971fa17d0e3c8aff993460001b62019970565b62012bb37fa1ffd1a624ba2fc9ad3784e766979c10b69548953e33fdd8d52fd1ad9249db4260001b62019970565b62012be17f0d3795d19e3ebbfce65a7f6dba4be223b7dfc11d45684a2b8b9639624890e76d60001b62019970565b82600001829080600181540180825580915050600190039060005260206000200160009091909190916101000a81548173ffffffffffffffffffffffffffffffffffffffff021916908373ffffffffffffffffffffffffffffffffffffffff16021790555062012c747f7616d7a05facba46804c61ead3a84857b28996bfef33527f000952dbb1f24fe360001b62019970565b62012ca17ec337f7341aebee30ff50d6368e9a9860da52fa5226dacb871fc4a28004838860001b62019970565b82600001805490508360010160008473ffffffffffffffffffffffffffffffffffffffff1673ffffffffffffffffffffffffffffffffffffffff1681526020019081526020016000208190555062012d1c7f13ba2f78dd7ecaf55a4cc3f8d3e7f93c5cadbc063ffeefb68c7949802b5d3a6e60001b62019970565b62012d4a7fc0490b09000a2341c56dc8ebb7359ac889a50a807ad657762b431c42ebed81d860001b62019970565b6001905062012de3565b62012d827f4e16a37a129416984b8f77905fffb3105d2d16c5bffcc10366666605395cd0b160001b62019970565b62012db07fef2de3f863211443d90a1d49147a100c20a57273298331ae7e2cd54c79a3875a60001b62019970565b62012dde7fc9303cbc2544604f1547dd8d81f7d4d4eb689c320fb75389df721b35f0e1d15d60001b62019970565b600090505b92915050565b600062012e197f015c48a93eea2d84cd0c0391b82b1e79c514e967907bb70a927dee4f5765d4a860001b62019973565b62012e477f5d99c20ccfaeea6b9686d478c483563f8c4db9d9784d55afeef112d1f6e0cc5c60001b62019973565b62012e757f71bf9de86a8b94a8b2a7f079b562c122c38f2943ac19ddb3e3f2dcf23c0857f160001b62019973565b60008460020160008573ffffffffffffffffffffffffffffffffffffffff1673ffffffffffffffffffffffffffffffffffffffff16815260200190815260200160002054905062012ee97f316dbe9e548c832ba4e31856a1fe1e7b52400423434d4f069548fc99a7f198b360001b62019973565b62012f177f100c8a0fe875fcf57b94c396a663bfcd7661f7dfa9a6237bd2b08dba51297ad760001b62019973565b6000811415620132195762012f4f7f835dc0a0d68904b5b1301e6dbcb4060fc03fb4fff19ab4282b928fdb5cc2666460001b62019973565b62012f7d7fa54e80b26d6e68a0177bb8400fb10938cbdbc456d3c084db72bfb4cf39e660dd60001b62019973565b62012fab7f58946955b5a7b190f93083f82fb7e35f95995a6d321224e05c6d948fc1bbbb6160001b62019973565b60008560000154905062012fe27fd58a596d25b20be139588ea88a86b6fc2c9438de5d164dfb5d2c9d6b9ff98b9260001b62019973565b620130107f4deadc4f905986ef7ab32e1e65c8f8efc486108f84e746ffc90ca2a34c8fe51860001b62019973565b60405180604001604052808673ffffffffffffffffffffffffffffffffffffffff1681526020018581525086600101600083815260200190815260200160002060008201518160000160006101000a81548173ffffffffffffffffffffffffffffffffffffffff021916908373ffffffffffffffffffffffffffffffffffffffff16021790555060208201518160010155905050620130d27f83fe3d8f0215c8686cf5dbb317ad9b06d8caf3b629e04f1ca4d4c1e71d7888ba60001b62019973565b620131007ff17e15f7b064a20f3fbfe6564b7d4e86df77779b44ddb35f0e7385b39c7ebdde60001b62019973565b6001810186600001819055506201313a7f955a275eea724f1c3ca236c074e535c8516d65cc2f9d6f4edafd6c4d28bdd0fd60001b62019973565b620131687f45d9d57ee85ea2759626578e29c3fbe67fe718183f837fff3c88016fd4a2bc6260001b62019973565b600181018660020160008773ffffffffffffffffffffffffffffffffffffffff1673ffffffffffffffffffffffffffffffffffffffff16815260200190815260200160002081905550620131df7ff453bcf9ff4f1f691a119be9a700f954875c9aed0e01d64365c12f5f3c6ab84d60001b62019973565b6201320d7f2fa513deb589e4682b1a88843016dbf87942b414d065d130c615a7f746c81da860001b62019973565b60019250505062013325565b620132477f6f06ceb3ca62e3886ec9c441396bb6212e58d152c369d481ebd17b290f2db58060001b62019973565b620132757fe11b6ef812feca47626c8a71c8064785313bf11a3226cf242a6dc486c62601bb60001b62019973565b620132a37f265af78f1d99df79ed403b65ca3f2b0f2f4a2ef41506d5e946bb260e97b618cb60001b62019973565b8285600101600060018403815260200190815260200160002060010181905550620132f17f9a816cc8c80103e247c62379cf704d83ed0f7ff33bc02049f1375e68f6a4772960001b62019973565b6201331f7f2feac2cf4de9f7eb8db68fe9985e5e5e0f473ed48e9be8d379d5573cb38ea49c60001b62019973565b60009150505b9392505050565b60008060006201335f7f92cb4c7896bbfb0b6c519c9de51aee2697f60e7ee1d42d8e2fcd70ed93b6f6d760001b62000d86565b6201338d7f5148734eee4a97ab241a6d59d23d8318ecdc98c78b6e22cff9629c933374f41c60001b62000d86565b620133bb7fd188f42d955b6b617460c63c88906a5dbb3ff6a1ca8ac1929bd446c63661183f60001b62000d86565b600080620133ca878762019976565b91509150620133fc7fb13d4fadf2def01f3f2cdb18530f666b6a1a8a1a4721e943542ec547058891b360001b62000d86565b6201342a7f6b7b6e7cbe59b33455ddd3656f487da98f97ee4091e2e334ea81782eee62c29c60001b62000d86565b600062013438838362019a4d565b9050620134687f9e92ec350ec4e64e783ce656cab0c12bf06457e199ab31a7f71cb29ecc69d4b760001b62000d86565b620134967f14d1ba3112fde3c99c6d28cb4cc281bf2cf9474743516e53022e5bdf931f326b60001b62000d86565b600960008a815260200190815260200160002060020160008281526020019081526020016000209350620134ed7ff585eb9de171b0289ec4ab6b6aea420feef0d97e66d28f553b5134b30ec6407c60001b62000d86565b6201351b7f2f2596fc93980d9313694caf78f053167694ea1abf86e9b17dc4b001b87b87c160001b62000d86565b600084600001549050620135527fad75956a7be32949a4f84d58be32a03eb68f556abb69f918876e8808795dc6a260001b62000d86565b620135807f86677f98d97c834d2d28ca4127efea69f442e936ccf0fedb7ea67359e5be5fba60001b62000d86565b600085600101549050620135b77f4f2ca8e29f81279b564b7c072822aaded049631d941ab9169ab55c276f45248060001b62000d86565b620135e57f57c94b7068474bfe7204ca22944c9d38f2c3dc771d0f9f519b2a75577c8a93b760001b62000d86565b6000620135f2836201619b565b8062013605575062013604826201619b565b5b806201362e5750620136188c8762016317565b80156201362d57506201362c8c8662016317565b5b5b90506201365e7fede7c8e2e13db47c0a6ec7bb98c3fb4556ad4dd50cb0e288914537cd62b383bd60001b62000d86565b6201368c7fab81e7b370fcf414d73cd07866ccd61a1deeba50317f862dd56d15fa96db36c760001b62000d86565b806201379657620136c07fa8cb47554171b42eecf72732cfd70db73b4f3ba16dcc930118bed4e82e86923c60001b62000d86565b620136ee7f114c4c33e111652ff584e172d366fbbd08cb51b0d35b7f4e5892fde6f45039be60001b62000d86565b6201371c7f3b546a33f3f7432b29d0ee4840485b1d605b4291c03ee309ca5e8a2acf3a2bf160001b62000d86565b620137278c6200e833565b620137557fda9dca71dd84f99f8e1f4eb497efe0f36d9da0f3818be6b2f3a1ce5d2bfcaba060001b62000d86565b620137837f957e17c87679a45a5e8b91f6cee904b986f6b36bf1559ee5f65e7b7bbcd81e6d60001b62000d86565b6201379061020962008445565b620137c5565b620137c47f01bf52d154f76018aeabd4d7576e22a358a659e838eaa993b1ecfd819411e5e660001b62000d86565b5b620137f37fa25002a56356760dd96eb9103a41fbdb8907dbe0299d2c6d96208d5abfc4f97460001b62000d86565b620138207efa086fb8e12533fc3a924b3e699a4bf5176e1a70160f763abd1549133ce57d60001b62000d86565b6201382c838362019b0c565b98506201385c7fd2e232a9481c8ad74f6349fd1675999233010605b9b714fe3c687a5634ab6eb860001b62000d86565b6201388a7fc2119e53ac668466563ed859e5a13cac13a2beeba2ed7ccc30ac6853eed0c57b60001b62000d86565b62013896838362019bcb565b975050505050505093509350939050565b6000620138d77f033082c09064907f17f3c1769cd06c4977f7a9a5d574cf4cd7321579890ad2ca60001b62016314565b620139057fc3438ced880986e2f288c5df5d609b00f487ee1ed837e520360e8d533c2af6ee60001b62016314565b620139337ff4c6acb82538edd678ec1fddfd58e172e5fe0e8def067cdc395dca8c40f848d560001b62016314565b60007bffffffffffffffffffffffffffffffffffffffffffffffffffffffff9050620139827fb53611e74a61c62275bec39275af848b838f6cacd41ab1dc98fcc015c97c68f460001b62016314565b620139b07f46e4aa210b366f38190f0690df5fa1b470cd0fa5ce132554e49f03fb01547bc860001b62016314565b6000818460001c1614915050919050565b6000620139f17f66d05ac829d8d82489bca9be5c8dffaab118b1b3817054cd67e797d6eecfe77b60001b62019970565b62013a1f7f739902fbb7e6dfeb449a9a157fbdee05baceb408e62aac8a52b19e4557901eb760001b62019970565b62013a4d7fbc66fce38e599c85c8690149c113a0a85e419544d0d4d350ab0a5c0cca41c32d60001b62019970565b60008360010160008473ffffffffffffffffffffffffffffffffffffffff1673ffffffffffffffffffffffffffffffffffffffff16815260200190815260200160002054905062013ac17fb32312f175199b3c17a909babb6b427dc6608e55e42952b11ac89e0db9834ee760001b62019970565b62013aef7f0f5f623e66565b11f2f820636c62421056a7033a744128acf7ff6699e7e330a660001b62019970565b6000811462013f665762013b267f339734d297aecc617b66a9aabe0002b4645fadef1bee1ddc24ad8374cdd729ef60001b62019970565b62013b547fe8a3a42934f6215dad01ab9b7902796e328cc46bf063824c2151cc72c75386e460001b62019970565b62013b827f849eb84153c9d02044e040adf421f5076a5fd6fdb1782d804a39d126b9f4eff960001b62019970565b600060018203905062013bb87f7b28a651835b16a5f1f0d88c1e0dd5abf63b067f92fba594d2d0671496697f4b60001b62019970565b62013be67f817db536f5275e37cb3d54fb4f1bc2525cee09fd5474de2e122a857938b2907960001b62019970565b60006001866000018054905003905062013c237f3ea13b837978f44d2abc061806ebeab277c0fda6d812b793eb7eaca9746c809860001b62019970565b62013c517ffc196938f12f75e66e130774b8e4c318f6992bbb37cfc4d4904d72c40dd50ded60001b62019970565b600086600001828154811062013c6357fe5b9060005260206000200160009054906101000a900473ffffffffffffffffffffffffffffffffffffffff16905062013cbe7f0530faaf4103ea59524877f4000934fc3edba5d1fb1ed33182c3f830bca1fd0b60001b62019970565b62013cec7f65f6f644dd718881ff1983ba81ce8ba6ec0c19a08dcb917fe016c016ad20bbbf60001b62019970565b8087600001848154811062013cfd57fe5b9060005260206000200160006101000a81548173ffffffffffffffffffffffffffffffffffffffff021916908373ffffffffffffffffffffffffffffffffffffffff16021790555062013d737f1c4ebdcc92bf12fbd97e204109b2d60cc1185dc2ec6287f4663f19730456e61b60001b62019970565b62013da17fb252cee5062d9c45806a7247b525e28b1c1d5324d388580a83b6340b7624649160001b62019970565b600183018760010160008373ffffffffffffffffffffffffffffffffffffffff1673ffffffffffffffffffffffffffffffffffffffff1681526020019081526020016000208190555062013e187f1d89bb788a822c744a46868c7350a8c5983de5bcf57624be6145c36adbaf1cb060001b62019970565b62013e467ff253365014f124c3f23d0c72199d8e4e02830052c44e152a6f669af0fd580ee060001b62019970565b8660000180548062013e5457fe5b6001900381819060005260206000200160006101000a81549073ffffffffffffffffffffffffffffffffffffffff0219169055905562013eb77fc3887abad9c4edf15cd0be96f9b8ed240f4ebf8d3dfa38c4b4823c00e3c1841b60001b62019970565b8660010160008773ffffffffffffffffffffffffffffffffffffffff1673ffffffffffffffffffffffffffffffffffffffff1681526020019081526020016000206000905562013f2a7f95e26176a807897c84fb6966057105c6e84c290ec03bff22b6e227c2490c74a660001b62019970565b62013f587facfc09e59bbee30b764ec8dc9a17f36cafbe83b3c992d071441c71df2354a4d060001b62019970565b600194505050505062013ff6565b62013f947fa1666708a09537e40d287126a8724a4d9fb911a16f7bb6d27a1ca79311944b6460001b62019970565b62013fc27feb38dd99a76e81b302777bd4011f76afbf91737e55de4815e110dcfbf72bf70260001b62019970565b62013ff07fe47feece8a79cb43a5f927f215f33d63e4917e98101cbbb3258cf5dc17ef1d9760001b62019970565b60009150505b92915050565b60006201402c7f3c2eb8efde5e1cd53ac693b5fb44fab1b19a9b88d0eaf5dc5ba5217b8edae31460001b620028cb565b6201405a7f2357978b65b362f2b8ca080cd5d5acdd3012fa9c039f80b54fd5f8f17f0893e960001b620028cb565b620140887f2c43c1921644c13e7a8f63383853b92967776981aad7c9bc0cadb356f9fa137060001b620028cb565b620140a1826102098562019c8a9092919063ffffffff16565b905092915050565b6000620140d97f66b89d456d0418c3f130ad901d56e2c85422e9ddfc171664302f23dd9788cd3060001b62019973565b620141077ffc3da1e6c648279de0c17f0d3eb98fdcef8939b77f170a2c57c4505645c142fd60001b62019973565b620141357fcf7a185258fb5d6d9e97fc9a9da394ea7927bcc399b207a4efbbfefb984ab24f60001b62019973565b60008360020160008473ffffffffffffffffffffffffffffffffffffffff1673ffffffffffffffffffffffffffffffffffffffff168152602001908152602001600020549050620141a97fc9a9b5d222996dc12526c25dd562dda97d1cbbdcc4f9706187171113fd817b0b60001b62019973565b620141d77fcb2ee76c9450cb6dc20721bfed88103fc4f496a5bb3f075d71f165b440e271f560001b62019973565b60008114620146b5576201420e7f75c41b5721df0743ec11f6b350933938ee8d1698d92cb3a7e163ab51042c126460001b62019973565b6201423c7f7b6f06720722534e2e08bf197548856ebc58b44a5009dded398012275e6a6d8d60001b62019973565b6201426a7fb0ea273550518285b2a91372fb9ee748b2a9e2612d1d0759c10644f275eabb6a60001b62019973565b6000600182039050620142a07f6d576d0851bd8542d5340cb7953bf27255e79efe54b0878ec85af296d8d2e46060001b62019973565b620142ce7f20a018eeaf38913117ac76298f81352b8566475592c65c89a92c7e408705e9a760001b62019973565b600060018660000154039050620143087f57827e08c3b9f246d7b0db8b482e2d19c449db30917a0a9aea8bd90d1575e3d860001b62019973565b620143367f98f3a726454cf221c40be81a913979181f284613492ec74fa28b853619cbfdea60001b62019973565b600086600101600083815260200190815260200160002090506201437d7f732bb40171bf13bc43cda52f879c42a948a4e0145ce015fd27fa189c4f9280c160001b62019973565b620143ab7f049ec547868e21c67881082cfab3aed1377ed7b76808f83920a7cf5da0da5a8a60001b62019973565b808760010160008581526020019081526020016000206000820160009054906101000a900473ffffffffffffffffffffffffffffffffffffffff168160000160006101000a81548173ffffffffffffffffffffffffffffffffffffffff021916908373ffffffffffffffffffffffffffffffffffffffff16021790555060018201548160010155905050620144637fe836fcdd1dfd7fa041b5ecdd450a60953fd7939c8261a329842ddfaa2053723f60001b62019973565b620144917f661fa38749cbc49b8e7bde1e8614f8d0e46b89b4e104d80612f50b1dc762993460001b62019973565b600183018760020160008360000160009054906101000a900473ffffffffffffffffffffffffffffffffffffffff1673ffffffffffffffffffffffffffffffffffffffff1673ffffffffffffffffffffffffffffffffffffffff168152602001908152602001600020819055506201452c7fe8af4cc690ecdb44d6162bcb48cad60563cd753a72b58fa1f8712c490260d2fe60001b62019973565b866001016000838152602001908152602001600020600080820160006101000a81549073ffffffffffffffffffffffffffffffffffffffff021916905560018201600090555050620145a17f64d8e796fac75744bc03be1e704a6040304910ff4a03d2a70b2f22d25659bb2f60001b62019973565b620145cf7f895aa9ad13f000d01be79661e007625102e22ce14c19ec4c73a14c7284f2cc1360001b62019973565b818760000181905550620146067f4e9fbe3ba7d388186872baf6ca28fd77373d9dbc23a35d7472afd13bc9a763cd60001b62019973565b8660020160008773ffffffffffffffffffffffffffffffffffffffff1673ffffffffffffffffffffffffffffffffffffffff16815260200190815260200160002060009055620146797f3046c9ef67a2b6eba4bd84f0fa9eb52a936eb4de01186ad9afaca671cc70e0a360001b62019973565b620146a77f2c9cd601221fb5c7bcaefb905b73a1218130ca3900418794c9881518692c045660001b62019973565b600194505050505062014745565b620146e37ffd1df36d1cf44ba184ac34b514323cee4d36cd228c7b240a535850f146b6497a60001b62019973565b620147117f51fc4926e5eee19ab322e4efcc4337a02246f639e9db03cb07664076b67dedc660001b62019973565b6201473f7f7352f41c887eed9388783807c540ba9aca634ea5bbbcc7f4903ef60c561154f560001b62019973565b60009150505b92915050565b60606201477b7f4a293acdb5815ad2b5781674c590b63c3629980d550f9bf5e8b755ca45a929bd60001b6200652e565b620147a97f11248067449c5d164ff8f10039cb4ecde87c644ba993b99d0649cb50dfe9a6c460001b6200652e565b620147d77f5f1f0125db9b24d132a7a9db6e45af306addeb0ef40bb1536266cd01d330294260001b6200652e565b6060825167ffffffffffffffff81118015620147f257600080fd5b50604051908082528060200260200182016040528015620148225781602001602082028036833780820191505090505b509050620148537f1ab442eb667620757828384260566657883714a883f38eac071f6a07cc62792b60001b6200652e565b620148817f0cf73a4e635d1a978b97e46765b7c08ef499a24a458da8c5e8d0861d73102dd660001b6200652e565b60005b83518110156201495c57620148bc7fa956b3544665402d56c85ada72c95d9b22f8804358e03364777141c8c873e8a660001b6200652e565b620148ea7f38ef7b073924efc16d6db192b15086fa5207075cfc594dbef6a73e9a03e54ca260001b6200652e565b62014909848281518110620148fb57fe5b60200260200101516200a367565b8282815181106201491657fe5b602002602001019073ffffffffffffffffffffffffffffffffffffffff16908173ffffffffffffffffffffffffffffffffffffffff168152505080600101905062014884565b506201498b7faaa2e9f5c0c9d465856fb8969918cf404119106a9446030730ab496bcba706ca60001b6200652e565b620149b97f5dce9f15ce104e94301e4316cc20f797657acfc20542e7e8709aaa130c1786ab60001b6200652e565b80915050919050565b6060620149f27fdc689a0f62816f87729cdf68ca0c375cdd0ad71c9ddbda3d02c4131b27ef252460001b620044e9565b62014a207fdf0066103cda15441ac0a881fcef5e8680cb137674bf85e1bb169f9d4385c38e60001b620044e9565b62014a4e7fff59e5c1d2addf8f7214bf92f51372d5cc95fad76d778ffc104d412d3f02c02a60001b620044e9565b60608062014a5c856200fd56565b9150915062014a8e7f507acfac52f2d4b8897678c259bcd4580df19d3ab4266c8893823468b746a92e60001b620044e9565b62014abc7fa21cb745ce4a42cf92e52997c23e1dff600b85e79fbb2dc52dc76b6dc29e0ac160001b620044e9565b62014aca825185516200b68f565b62014af87f6c41b89e4266b03c768a6e6df0b61e76f9d2fc0deb15ffc950c815473aefc94760001b620044e9565b62014b267f4b0ffb41c6ae4cbff4132801e527253d5922977d54e5dd447abb4f4695f266f460001b620044e9565b62014b38600083511161020f62000d70565b62014b667fab74d4820894fbc064c2d10e5b332e486e46e3aa45fe5f3a3221fc6dbeaf255860001b620044e9565b62014b947f7bf0e72f5b9e1ca462202dcf99c1291358710e9dd67f1f054aa3049c79f2c61760001b620044e9565b60005b825181101562014c6d5762014bcf7f2a8a70edb22470f25a179864cdeeb2917b5818b1bc8a8082601e2cade29ff03460001b620044e9565b62014bfd7f7583a917c5d4eeec91ea62ddf3c6a2a97446c4612cf496459d6c2b5d3072036760001b620044e9565b62014c6185828151811062014c0e57fe5b602002602001015173ffffffffffffffffffffffffffffffffffffffff1684838151811062014c3957fe5b602002602001015173ffffffffffffffffffffffffffffffffffffffff161461020862000d70565b80600101905062014b97565b5062014c9c7f91aef3b978e05b4584bc7daa908abf2f7460a2886538ea1a13060243edf937ff60001b620044e9565b62014cca7f968ea0e50879fd0f541a391ef7e03c57d25a11f642becd14f6d572926358051160001b620044e9565b809250505092915050565b606080606062014d087f9d4fc2a5126c28dd5ae0954f2e37feeffb16a596922388717d0f49cfd382de4860001b620044e9565b62014d367f692a75c0b6545179e71823fb73df25b8db4f4e023294930d4f2d9bdd0e54812260001b620044e9565b62014d647f9fdd8c7df40f6d8c602f5263a0a7da9eef46b37e18400b856d26d4c901a2b4bc60001b620044e9565b6060600062014d7386620100cd565b9150915062014da57fb984fe177c68eacf0abb295a7d3551d063b55d6ad8e2738ca5426e94fb34939a60001b620044e9565b62014dd37f1baa95ac597e5323f14c19eeffeac85345abeac3b8f957a753f932cb05e1918960001b620044e9565b600062014de08b6200fcbb565b905062014e107fb76344c72637fb68b0924110ccea5648a114baf2efa457bf3ad094708a89a2bb60001b620044e9565b62014e3e7f55143e8e94ec5d1cf242fb405d5cc52d7821279a8d28add09ae0514c6774b44660001b620044e9565b6000600181111562014e4c57fe5b8c600181111562014e5957fe5b1462014f14578073ffffffffffffffffffffffffffffffffffffffff166374f3b0098c8c8c878762014e8a62019e3c565b8f604001516040518863ffffffff1660e01b815260040162014eb397969594939291906201f156565b600060405180830381600087803b15801562014ece57600080fd5b505af115801562014ee3573d6000803e3d6000fd5b505050506040513d6000823e3d601f19601f8201168201806040525081019062014f0e91906201e11e565b62014fc4565b8073ffffffffffffffffffffffffffffffffffffffff1663d5c096c48c8c8c878762014f3f62019e3c565b8f604001516040518863ffffffff1660e01b815260040162014f6897969594939291906201f156565b600060405180830381600087803b15801562014f8357600080fd5b505af115801562014f98573d6000803e3d6000fd5b505050506040513d6000823e3d601f19601f8201168201806040525081019062014fc391906201e11e565b5b809550819650505062014ffa7fda93659d3e00dcfffc7d3a79ccc5f6482beee1442e19c3737ceda8820a4ccf0160001b620044e9565b620150287fe969ebdd82f97b7ba47208de5323d64ee194ecea5c0214b10822d0844dc6bdf660001b620044e9565b6201503887518651865162019f58565b620150667f6dba40a8e43d8eb14a4931ed14c6fb81ae2acdb8d58018a13c05662b0b92c5d160001b620044e9565b620150947fd6d5e5c690f7fba98cc9f88d4eaf1b14f51abcb8cacccf0f92b305a9d350917b60001b620044e9565b60006001811115620150a257fe5b8c6001811115620150af57fe5b14620150ca57620150c489898988886201a002565b620150da565b620150d98a898988886201a4da565b5b955050505096509650969350505050565b620151197f2b70c594e27c78679566e8e1cbeb15dae568e914847b5ff672ea541f5da2bf4a60001b62000d86565b620151477f51e137937a4108d035f4bd50eb84fa23e4bca05ba252062685be3a1947f9811760001b62000d86565b620151757f9e8f54c8a3aeec831ff339fcd84adc18b6b7ef66880226197170281702448c4c60001b62000d86565b600062015183858462019a4d565b9050620151b37f78fb6c887095f4d3cc36bd9f33c4e55510b4cfea51a7a0970b8d7102c001420260001b62000d86565b620151e17f66c639430eeb154b27eff047ba82b1efbd89778c6461786b855a50129e7780e660001b62000d86565b600060096000888152602001908152602001600020600201600083815260200190815260200160002090506201523a7fd3b3bfd3305ce78670cab6751ec5669666f8eecf54657f1830e1b8a45007b00a60001b62000d86565b620152687fb7727852990a3ca95711529eb6e418216435a230ffb9b6d8f063e0ed84b83e4260001b62000d86565b6201527485846201918c565b816000018190555050505050505050565b620152b37f177335cf6e515d35e6b4cec7835172dd51e5c0627603692d445b491706c77b0f60001b62006f4c565b620152e17f2810883a629624ec4e1437e910bbb554ec2562e9f97149a84530502ebb86bf9d60001b62006f4c565b6201530f7fac0d018b80af121ac7d5ac58065c8a95ac075db33540fdef8ec64da822d4f17960001b62006f4c565b60005b825181101562015401576201534a7f869df927268e42e7b75802a2ebef982863ae17c364e1fde92a917f5a9f4b136b60001b62006f4c565b620153787f40bea932c1ec1085ab24d136120f79c9d7216718690bb03522ed488d515d5d4f60001b62006f4c565b8181815181106201538557fe5b6020026020010151600760008681526020019081526020016000206000858481518110620153af57fe5b602002602001015173ffffffffffffffffffffffffffffffffffffffff1673ffffffffffffffffffffffffffffffffffffffff1681526020019081526020016000208190555080600101905062015312565b50505050565b620154357f44b833fc25efd391aa3d32906e08b44696310380baa0b3ba8371b452130ab0a760001b620028cb565b620154637f3f185eab49f9abc1e28f65ba35632f6685a72aa2867017cd2b69eeb1b6c3238f60001b620028cb565b620154917f7ea9bcdb0396a857ce97170e33505f9415e04bc5084e09a083f137819901f2db60001b620028cb565b6000600160008481526020019081526020016000209050620154d67f4aa30f3f50a47bc6cdad9cbbfdae37b45147118c91f212ca7eb247e3fba56ec360001b620028cb565b620155047f451b9da25a2a5bf5cd6df401d2b7fcfc8db602fa692d3c4655661f050946aea060001b620028cb565b60005b8251811015620155a4576201553f7f22f0bce47671c708a4bc7a2b61878de3c335421e37473e7cf92338f38a0ed9f360001b620028cb565b6201556d7f506aec809452e5a3ed96a1a7139287f8a3008690feb0108c2fcd2b4496c2b61060001b620028cb565b62015598818483815181106201557f57fe5b602002602001015184620198c19092919063ffffffff16565b80600101905062015507565b50505050565b6060620155da7f53ed826fc695d0435d6db471bdff1d98cd191148e6797cd304775e896d05154860001b620044e9565b620156087f21f9a0146b149ec8ed3543f21a4de97494d838fe792d82108a078caa6d88144a60001b620044e9565b620156367f203b051406ebe40c494861dc89b8622bf69db2c058155de199019b09ea46cd5760001b620044e9565b825167ffffffffffffffff811180156201564f57600080fd5b506040519080825280602002602001820160405280156201567f5781602001602082028036833780820191505090505b509050620156b07f1f81af698034aaa7b133c9c7b31a55ce2e85d3b203afdcb34c24982e9a74654160001b620044e9565b620156de7fd71d3e396c1a68ca01d88178adda4f79d0e62c59da3e34ec59e9f9de01e9fcff60001b620044e9565b60005b8351811015620157a857620157197f145047794411e2e20056d9201de59d72dead70cad8dc3cf09293c97dcb95aac060001b620044e9565b620157477f41b0b6d0eb7a934bd798f9ee07061b85211a8cfb9614d3d829255c77d35865d860001b620044e9565b826201576b578381815181106201575a57fe5b602002602001015160000362015781565b8381815181106201577857fe5b60200260200101515b8282815181106201578e57fe5b6020026020010181815250508080600101915050620156e1565b5092915050565b6000620157df7f94eae04d186c37257e6705d27090f3ca1e79329cefba64f84d9fbbd36ad314a660001b620028c5565b6201580d7f780017a60046167e49b7cb4bdcdc0b2c50ea951b29e4026b5e4d724ccd41edb460001b620028c5565b6201583a7e53eef526aaf359e91b65cb48a476156b804dd1e5157d366661d534793b105e60001b620028c5565b600060018111156201584857fe5b8460018111156201585557fe5b1462015862578162015864565b825b90509392505050565b60006201589d7f2ea7b7aede5ce873b38b493ecb3705799e867ff6e3326b759c9caf871608fa7360001b620028c5565b620158cb7f3ddb4c6b0d019981c3e82a6ca58a6c24ebd936c4f45444179c39cb4fa11f02ae60001b620028c5565b620158f97f40a913843e8cd4cd83badd588db9e679ee19ec87caa8f98640d0224df1d1c48c60001b620028c5565b600060018111156201590757fe5b8460018111156201591457fe5b1462015921578262015923565b815b90509392505050565b60006201595c7f93d0793d0d42f10f806b8ae38ded7d03f0c57085266cdac7552e84a7f37cf5f760001b6201abe3565b6201598a7f8720aeb34f00a29436621f17f7bf817ccce0b3ffcb4d7dcbcb4505e9fe79394460001b6201abe3565b620159b87f2a5a6b8671df4eb533bf44968f564855e0d28c7da64ba154d1d27cbadd86c41360001b6201abe3565b620159e87f800000000000000000000000000000000000000000000000000000000000000083106101a562000d70565b62015a167f7577bba8a186f5bc0661701c91c3969f266aa98fe4130ff93d4a9f5375e0bb1660001b6201abe3565b62015a447fac3b30a70d15b662e72f2dfccc5ca5e8e84b41f40f7dfc0332100959c1d1124360001b6201abe3565b819050919050565b600062015a7c7f7a20d959572879db47e6b5c234c93189e15e2564c8e2054efa1107b11b275c2560001b62010a3f565b62015aaa7f641dbd778351349525d6bc47bd4d7faff1c57267cc56183499195ee8e8a2f77460001b62010a3f565b62015ad87f3ccd9182e0d71d89e70aa7ef8d5d50d7df79e03c070a169d8155763f1e2309a860001b62010a3f565b6000828401905062015b0d7f17f3d683cd0b19a7b4571dc16b305b56f9fe206d08b439f1cc6c6f14ed0d009160001b62010a3f565b62015b3b7fc1c282627b7a7c1e83ddbed0d1fa3547065159fcd0cb82ee6417f5eaa56a989a60001b62010a3f565b62015b716000841215801562015b515750848212155b8062015b69575060008412801562015b6857508482125b5b600062000d70565b62015b9f7fb509c9f46c97d62a195c83b75945b05ff8f309de68b2c391e114575afe826d1a60001b62010a3f565b62015bcd7f77e62b27cdf2e438f98b109e8e96d25745ae50c955f12869a1aa8fdbfb12bd0060001b62010a3f565b8091505092915050565b600062015c077fb8704fe245f474251d84f0fa807f25c7602fc2d59700c7879e02d4459e104b2e60001b62010a3f565b62015c357f8730c4875231c09228d8206786dc868ddf4a85c49bfef07f053748d29cfebe5a60001b62010a3f565b62015c637fc76857270cdee616a58bdf2dd2037d8a206091a77a79d84febbabc50a61ab9a260001b62010a3f565b6000828403905062015c987f8112595d6173c4fe08b664f5b0380760c5182f4b673ded17ad2a1966d18449aa60001b62010a3f565b62015cc67f78ee2df2480a90fa39450ee148fd324900c8a0a161f2c4d577e5d4fbbafb4d7160001b62010a3f565b62015cfc6000841215801562015cdc5750848213155b8062015cf4575060008412801562015cf357508482135b5b600162000d70565b62015d2a7f889ecf902aa3534cd5d833cffdc0218a4b3e0fe6bd704d11d6f69048a94fb0a660001b62010a3f565b62015d587f3add338eacc3aaad7bd4d47095c1aee8be502883af35ba93dad2321438f6cdac60001b62010a3f565b8091505092915050565b600080600080600062015d987f6e052b4f06660571fb7095db5ceba5d0a783d7dde7dadfc81c594d1c3e388fa960001b62000d86565b62015dc67f743d59a0593f2e8bf24905395d7670305c79c58956a0503af6071093b512461260001b62000d86565b62015df47fcb3c74f0b61d8ebc60d2de330dd4429a6889e152a3bfccd2677e9e31f32ad98660001b62000d86565b600060096000888152602001908152602001600020905062015e397fee39c903b27190018fecfa4aef8ab6893156e1555e629c71560d9bed620af24060001b62000d86565b62015e677f429282f34682c5ba643655ea3cdbd51c12508bd89f2d80910f690f1b21b183b360001b62000d86565b8060000160009054906101000a900473ffffffffffffffffffffffffffffffffffffffff16945062015ebc7ff1c0866f5a7302ad8d052c8781947c3a27edaf46527a9495d605c6b6c778649860001b62000d86565b62015eea7fe3c80a3e3cebac64c585228d3d079e6acddfc894863035aaa1322d758dc2365860001b62000d86565b8060010160009054906101000a900473ffffffffffffffffffffffffffffffffffffffff16925062015f3f7f32c06ae9dbef99373f98140fe4f74b0478808ffee9063b948214314ac193f6d160001b62000d86565b62015f6d7f4768ff89731fb9125d5244c7ff76c61266972c6f0277272dfdb2f96d3b20574360001b62000d86565b600062015f7b868562019a4d565b905062015fab7fd27acec31042ac17bb9114fb7bc3c8556f63fef91db0a5cfec769b602024339f60001b62000d86565b62015fd97ff019a900ca2b0eafad25f08aa6471eb5f0a9d5234a370c14c3ce23f62c13e75560001b62000d86565b81600201600082815260200190815260200160002096506201601e7f273dfcca25fe23d2e6f86dd4f179e396196210e608f779f9573110a20d6c2b2460001b62000d86565b6201604c7f7e3579cbaae689f9228a329dfc243956330babe6287c6762fb63c1590b3af7a060001b62000d86565b600087600001549050620160837f911cbbaf6a2b3bb62072a02500cec4992a9729c3442115fd3e42d87e2191bfe960001b62000d86565b620160b17f071efabec103f942511bb933f7f234e8a075ed011066c65586b781a0b4d7c7ff60001b62000d86565b600088600101549050620160e87ff803900f17d63c9c0915741dce572574d74f912a78b4ed0b7034602500ba836560001b62000d86565b620161167ffa9ee0960c155dfb9fab84c3c7b3750c26c47d1275bfe77673a3b2ebe3e449a560001b62000d86565b62016122828262019b0c565b9650620161527faf19b08f7c10fbc5e3974c9cdaaa0a97def85556f414e06413085f45abfd141860001b62000d86565b620161807f85845064797f3ac6b0184670d3799ab34180cdf42b4d08e685f461d36221676660001b62000d86565b6201618c828262019bcb565b94505050505091939590929450565b6000620161cb7f42fc1a233d8df1175c048dadfe5b855bd86072db13a55e0bfacd261e7eb976e060001b62016314565b620161f97fff3eb537d215f0097cc84c2910492895cb0bfcd17a9a55792de7f72a3aefb65b60001b62016314565b620162277f41b76f6bc759a107cc376721326f2735deab429d6de9d0a187ca179260b973ae60001b62016314565b6201623282620138a7565b159050919050565b60006201626a7f26c9003ff5622b36c455b3a2c7e8ee8219dd1ee06aee5bb7688394f0bf73678160001b62019970565b620162987f6f417677c8a9f3d1599c594602edcb366521c6a206303cbfe730cb780577f19e60001b62019970565b620162c67f43227e98846ec640660e022ffd05a933731005a59b7cafa20d1e956c3e0c379f60001b62019970565b60008360010160008473ffffffffffffffffffffffffffffffffffffffff1673ffffffffffffffffffffffffffffffffffffffff168152602001908152602001600020541415905092915050565b50565b6000620163477fb8762bbae4adf9cc350255873e025e2b5448e66c3374c05edc6fc0da73dc724f60001b62000d86565b620163757fb4c938ec80c49d0bb796bc0aa2db17e07e839842ecda0e19ddbc7dbdf921377860001b62000d86565b620163a37f0542a00c504ff977b9850a5b15715ae772d4505e18391e0a2b5ced0df20e6c9860001b62000d86565b6000600960008581526020019081526020016000209050620163e87ff45da832c5775197a11d72c8d60ced6ad1a0ed0ca006efe7586ccfc79db2e45760001b62000d86565b620164167f5d3a7e2b1fbb552b94cf9419c3a277160cab989637ce2bee48bcb8919c6d364760001b62000d86565b8060000160009054906101000a900473ffffffffffffffffffffffffffffffffffffffff1673ffffffffffffffffffffffffffffffffffffffff168373ffffffffffffffffffffffffffffffffffffffff161480620164c457508060010160009054906101000a900473ffffffffffffffffffffffffffffffffffffffff1673ffffffffffffffffffffffffffffffffffffffff168373ffffffffffffffffffffffffffffffffffffffff16145b8015620164fe5750600073ffffffffffffffffffffffffffffffffffffffff168373ffffffffffffffffffffffffffffffffffffffff1614155b91505092915050565b6000620165377f0f34d23ed33479be7c03220b445454ff46317f71743cbe10bcd84fa7599dbad160001b62006f4c565b620165657f59cfaa2e73c5443e387a3408ea892c1c9a542fa3b8e8dd7f77af7e79b63e60de60001b62006f4c565b620165937fe23d8e88d5ac84ae5a5d999a1ef912334a4a28162b5a4fe0eb8b982ac73f292e60001b62006f4c565b6000600860008581526020019081526020016000209050620165d87f016a56a4c68fd19765807a0518d294d1a36ed3eacc1a18f19d1a36929ffc841160001b62006f4c565b620166067f831561adf56a751d71b51f4d7f663302d088c2ca47a113d3b8a9a2e965afcc7a60001b62006f4c565b6201661b83826201623a90919063ffffffff16565b91505092915050565b6000620166547fce265edc29b3ddfa88323fbbdc8cd32dfbcaae4153bc50f8b25bff198bf8505560001b620028cb565b620166827fbfd92520930192d717cca63f59fb51d7948d5123628e10dcf3f398aecc0d0ecd60001b620028cb565b620166b07fcbab155cbdae7564e393ad0f559ababa6becaffa9a797f44ecd27efe87b545a460001b620028cb565b6000600160008581526020019081526020016000209050620166f57f485daf07cd1806c047aebb8d99296597d87e3e68a1cb5e8a64eea5865d0cb72f60001b620028cb565b620167237f7426d7e0095238bbec8866375ba28011113e324ba199ce9318d1940c295edb0360001b620028cb565b6201673883826201abe690919063ffffffff16565b91505092915050565b600080620167727f53615b56897c0e7a1c29ae9f3f5e1d60caeb64b45cced61be83bcc7e437cb23f60001b62006f4f565b620167a07ff2a095b4f201231a4496ae09074bd12086b03694badab1f9caf26107192ce41460001b62006f4f565b620167ce7fcf835fda405357531fda2c3bb931148b3d3bbe1a232891b97d231409ddb09f8360001b62006f4f565b600280811115620167db57fe5b856002811115620167e857fe5b14156201688c576201681d7f815b7817476a9cf87da9666a9cab68599a7ad1f5d5930e59e7c3c59dbc0a7fcc60001b62006f4f565b6201684b7fc9aa4176c2bb5176af530c027e1479fcfb2fba28e2f2465d12e8d4f14d6068c160001b62006f4f565b620168797f9aa2a08fd21dfb936d5f111731dda9f92bfa07d536c1af23c49968245877af2b60001b62006f4f565b620168868685856201acc0565b62016a40565b620168ba7f0840ef45816239cd942f7dea61c0176ed184999034e8928ac187e2efcafb7fcd60001b62006f4f565b620168e87f2a8078097bc4d738ea8c92c5829b5b25783fc79ca15c8e17a4ab07491d6b746060001b62006f4f565b60016002811115620168f657fe5b8560028111156201690357fe5b1415620169a757620169387fae5e1a25ea66aebb76f118d199fb1b34e4960fdae043538417cf49bef403094760001b62006f4f565b620169667f6ccec9c2aa3adbf4fb32568a4021a2402fd82818c1f96f8ba5e139a0a22f91dc60001b62006f4f565b620169947faa02c0bfd1726e90a3901c61ba3d2dd02b810f6452e6441d92b1ba3f9cc326f160001b62006f4f565b620169a18685856201ad61565b62016a3f565b620169d57f133678f50428caf0827799d9f2e56724da0c3b8a7f870f4d29b815e6d60ed2f360001b62006f4f565b62016a037f94f1e2a9c07532380ab5ea0353423b0e1e8d72e020c277d480e0f838026d63db60001b62006f4f565b62016a317f1835e40c7942e2e8ee87bba15cd372ff410c2004b108ac63d6397f217d5dc2aa60001b62006f4f565b62016a3e8685856201ae02565b5b5b62016a6e7fa2c49c4e43e15913257225a7579ad89c7705ed179c2eb7cb0b3eb952cf01577160001b62006f4f565b62016a9c7f8f367a2ef5dfe16637c2a9388d81d26cd76ae8422ded0062672a5da86ca13e4d60001b62006f4f565b600083111562016b635762016ad47f90254d2714d0331fa61d8faef8faf1f3cc1b2b9fe6e659d1608479208fa4e01f60001b62006f4f565b62016b027f94b5a5db97bfa0a3eac740b745b56bb5302f79522e3fd57ab3c1db2df6be7afa60001b62006f4f565b62016b307f097c332a00463ed08bd004b919680fe231ce7d509a647a2c1d6b0860ad1c06fa60001b62006f4f565b62016b5d33848673ffffffffffffffffffffffffffffffffffffffff166200b8b79092919063ffffffff16565b62016b92565b62016b917f4272d423310247f11ec6529359e26ddbb0bd5e7d060c3f84f400366f2ab18f1f60001b62006f4f565b5b62016bc07fb634830183495cadcdbe2d0c748d50b2fc0fbeec9073db6b54eb26cdc92d62cb60001b62006f4f565b62016bee7f614d14cbb5c5bac3545c94e932922d9f233bf718508e5b2266732d372111018160001b62006f4f565b82600003915062016c227f3391385dae3305a0354d158e18c4f04a28dab892de7c943a28808c41835c6f8860001b62006f4f565b62016c507ff9f952810de6f4d6222e9ec7521428962658f407e16fddb8399bef548d81e52760001b62006f4f565b82905094509492505050565b60008062016c8d7fdc26aba459fffd67aa8698a2af54d62794167ae38fdcefcf0d772573a23d4ff560001b62006f4f565b62016cbb7f6891237db7665b034f911684f94ec085a1e9088d95c632f62d92ad1be0cf69ac60001b62006f4f565b62016ce97f11d6b9b93993bdd8a2c0f9e9e2a6b7eac93dcdba8c5e1b9b6e00ad8b7341922c60001b62006f4f565b60028081111562016cf657fe5b85600281111562016d0357fe5b141562016da75762016d387f26c5e1c34c8ba198792c64871661ba8357174e2cfc23c2228e4ab1f3cdda251f60001b62006f4f565b62016d667f42bb1149054854912058f6d5cf874fda6d98fd930afb21aa14e39acfdad6018a60001b62006f4f565b62016d947f180d08b1b5a71db2be8cb37654c6e1d8c1523c3bf6de013b01ab72cecc5f7d5860001b62006f4f565b62016da18685856201aea2565b62016f5b565b62016dd57f9753109a23446f39d2a01bc4a2f2912abf02cf2524c7bae829c25505c0b72f8b60001b62006f4f565b62016e037f3d043c48d49530df44fbea8b71afc437ceb9eb88146d222083786de89068e2c860001b62006f4f565b6001600281111562016e1157fe5b85600281111562016e1e57fe5b141562016ec25762016e537fa7136f64b8897979ce94edc23b18b6269d119e96934b2a8b2aaf69a108d985d560001b62006f4f565b62016e817f2f453808edb7ee464d41850396ab7236cbb1368a063150a2b84eb4ee7b0bdb0160001b62006f4f565b62016eaf7f8d44103661864f3e290e19160a89e083b66394483772f866493f84db5be8ebf860001b62006f4f565b62016ebc8685856201af43565b62016f5a565b62016ef07ff386a0d2212523ccbc407c91a1c9a509af5faf5b4b1e6f6f72d24ed4035a76b960001b62006f4f565b62016f1e7f5695b5392278678f805984467d147d1220f7775f2941a196d93b4f510556712860001b62006f4f565b62016f4c7fd4d3219a26f336e9c785e5fc188b35c6a41190e05bdbebaf3c5242800e41537a60001b62006f4f565b62016f598685856201afe4565b5b5b62016f897fc2087049bc9e6f3d1ad97407639025888635af331083dc2457efad96400c1e0960001b62006f4f565b62016fb77fce728d708732c759bc3dd44470c6be30e68faf747c34258287c79d7d4086fb0560001b62006f4f565b6000831115620170805762016fef7f88d9a06a811085ffdf87b8ea8471173c21b18830cfcbe11c4e714d034635833d60001b62006f4f565b6201701d7f099842090ad85ba8832682677798d3c7a18ee92e01957c80da284310351886cb60001b62006f4f565b6201704b7f15b7b1d93ef35b2dc98352946590939fc878f050e79e02a93779c558325bc1c260001b62006f4f565b6201707a3330858773ffffffffffffffffffffffffffffffffffffffff1662010a42909392919063ffffffff16565b620170af565b620170ae7fc66f969076b9bb090cab31c912d22d5282a75a2ae1a56d84f35a9721e9033f7060001b62006f4f565b5b620170dd7f3723a047625d4dd41af3c2002fc3e7742832a1cefff9cd48846a3666136f547a60001b62006f4f565b6201710b7fd4679084d1b1ef832019bba55d5488bbe324df4c09d21995670fa14830b9d49e60001b62006f4f565b8291506201713c7f5d2d6518fe95bf37d8a0533e720291690d7e71a89af47bc50c46637f3df9cc5c60001b62006f4f565b6201716a7f69856afb0ee887106777f5cb366dfd27bd31b60252d7a1bccd6680c086b9234f60001b62006f4f565b82600003905094509492505050565b600080620171aa7feee2a363e8c1f3ac24d35bee3f291447970b03c6a39e3e9f204e4d9f3456821260001b62006f4f565b620171d87fce05f3247e9485c4f9b9ca05a124786249070f7481d69625e94b22b5a40882f260001b62006f4f565b620172067fbc0a95ae2d7d4f379f05a8dcfc3869385ea61a51816be373ec17edf4d7da831260001b62006f4f565b6002808111156201721357fe5b8560028111156201722057fe5b1415620172c657620172557f626f047412be512d955a8b9f5d4e36ee369e11b2da2b9a9071d69583b942a85460001b62006f4f565b620172837fe14d36040069d145a7b7597839baef66a673502c29c4e2bde72b98ab59243bb160001b62006f4f565b620172b17f7b11a5a20597fdb9dae853204a840027689ac8f38257ba609ffade1165e3a61c60001b62006f4f565b620172be8685856201b085565b90506201747e565b620172f47f02a8cd93cd1bc3ac922d3896a7c97bbadb396ecbf61f1cbf5f141b5cd4e5220a60001b62006f4f565b620173227f7750f8b45a48ecfea33a09fe3b39fee6986e2b572869ffa700e4dbbd422a1f9660001b62006f4f565b600160028111156201733057fe5b8560028111156201733d57fe5b1415620173e357620173727fe3e79c82126356080d58cc29f779c6f256974a61f5bf2b887aee7bd61f7003f360001b62006f4f565b620173a07f18d9a8442b8f4e323a94d409f676536210ce87d6c89d222ab66c4311627ce11860001b62006f4f565b620173ce7f901143a49b7735ecd344b626de6a0cbfbaae49b4331302f268099811ad6fd56060001b62006f4f565b620173db8685856201b12b565b90506201747d565b620174117fc1a59540ca1f4d6f2086a6d1607bc9e43e571e8738732ba70787b2c96ce3fad260001b62006f4f565b6201743f7fd7a0d7ba00e88400e8ed830776f523615beeab29b0a6ef367f67756397923fb760001b62006f4f565b6201746d7fcc0da49262f75fb33b9e43946766a783bdf47f59a0980a9e00f18e8ce3c9dada60001b62006f4f565b6201747a8685856201b1d1565b90505b5b620174ac7f9d169b8fe9d006f0641d219825ce7c737a91b7adacf8f58751f6cd4c6419f14c60001b62006f4f565b620174da7f9675b04255d7dbc7ea24b28fd1a993013029171dac744df9ece214f21cd332f560001b62006f4f565b6000915094509492505050565b6000620175177fd8e2832ef6720767deec69f44ca3c3cd8b861b255a67dda4205578fb7165a1c060001b62006e94565b620175457f5df0caf98b88b3eb9f27ec4ab7f0297f4988b55185a2490903332262f13a817960001b62006e94565b620175737fb1fe59e6880d8042919f1fb255ef6b982ebb7b8d94358d2dc30eaaa4f095e69860001b62006e94565b46905090565b606080620175aa7f509bcc3ab8009078283fa622d6434bd2fb95eb86be9e78ab78d754894b004ded60001b62000d86565b620175d87fcced93bf2f9c81a94fb4c9758ab26ab683776a1fd28cfdf185aaa1a7a5b39d4260001b62000d86565b620176067fe0a81269e55b538d8c1faf90d8aa6d160adfe118fa1874ea420de17f4fe32f7a60001b62000d86565b600080600080620176178762015d62565b9450945094509450506201764e7f3b55269298f59d8c8563653f6a39f651076effc739552cc8d266edbc290fc8c760001b62000d86565b6201767c7f6a79f6684d17029ae062b58b7082b808309ea0464f26bd0897acc50eba8b9ab560001b62000d86565b600073ffffffffffffffffffffffffffffffffffffffff168473ffffffffffffffffffffffffffffffffffffffff161480620176e45750600073ffffffffffffffffffffffffffffffffffffffff168273ffffffffffffffffffffffffffffffffffffffff16145b156201781657620177187fb7a4b9b771122ac08dee74109cd6213cc1f7bd610e56094ed383cb0cf347a90360001b62000d86565b620177467f4cb6d5fd857aa773d367ee5a23217b699f897b08e967e8581327fa4384f911e860001b62000d86565b620177747fb0d4fe2d3117a1fcc99ca2241159c53ce777ddf30866fd1a09c1b0d7662a220c60001b62000d86565b600067ffffffffffffffff811180156201778d57600080fd5b50604051908082528060200260200182016040528015620177bd5781602001602082028036833780820191505090505b50600067ffffffffffffffff81118015620177d757600080fd5b50604051908082528060200260200182016040528015620178075781602001602082028036833780820191505090505b50955095505050505062017bd1565b620178447f074d4848e4d376ba665da72b1c352a87875fb5c69222fd31e3bf076b453774ba60001b62000d86565b620178727f4ebc0c1744177f6bf1e202cb7c1693270cbba28fa3b73c2903cecd7e1bbac7eb60001b62000d86565b620178a07f0ca5d184059642e04114188ff8091b7a8ec20a53d143e7c5fb31661795b8e14e60001b62000d86565b600267ffffffffffffffff81118015620178b957600080fd5b50604051908082528060200260200182016040528015620178e95781602001602082028036833780820191505090505b5095506201791a7fbd9af30a977f0ef6e55aa411af8aa4773e2fcbe4a0150a7465c6cd339fc01dbf60001b62000d86565b620179487ff884b6f71b32ddeddb6b75045d7fc505e3f7d7b3e7800000aead894b137f2cf860001b62000d86565b83866000815181106201795757fe5b602002602001019073ffffffffffffffffffffffffffffffffffffffff16908173ffffffffffffffffffffffffffffffffffffffff1681525050620179bf7ffbddc7bbf1d6b7a6d8dafdf55febdabbbd2edc26959cae5991554b5a6bc99a1660001b62000d86565b620179ed7f677f5897d47407a817d8e9098a4f8a6b4f3ab2d21ae22c0adb517c326ecacf5560001b62000d86565b8186600181518110620179fc57fe5b602002602001019073ffffffffffffffffffffffffffffffffffffffff16908173ffffffffffffffffffffffffffffffffffffffff168152505062017a647f1d3768607c28e962a3a0a91d39fbbf13d3f328c07544e721e1c3356d4fd4a4ce60001b62000d86565b62017a927ff3e264e5fe8dd110447727db8705e969f041cf7d75d49ce43807adf489672ab960001b62000d86565b600267ffffffffffffffff8111801562017aab57600080fd5b5060405190808252806020026020018201604052801562017adb5781602001602082028036833780820191505090505b50945062017b0c7f726a2140d5450dfdc01a4849b8905b04d229ed0d08436c944333c0b9af78cc0660001b62000d86565b62017b3a7fb6887c72b45e7e1b73c0247d5c38ff81a02bf680163639741a1797b4a916cd9f60001b62000d86565b828560008151811062017b4957fe5b60200260200101818152505062017b837f5fd6a8effc9f0b3a02e8d5f540f79b841f838f54ba2878267fd75ce4252c2e1160001b62000d86565b62017bb17ff9eaa7329d6e9ba18087896ad283e258838ab85e331c0949962e643d635b79f260001b62000d86565b808560018151811062017bc057fe5b602002602001018181525050505050505b915091565b60608062017c077fcbd6acf741c52f8cc20e592a2d9e850ab9c3706817cf67465faea7ebe846db0e60001b62006f4c565b62017c357f3e3c1029926080cc7677b3dc81900eda30d01697b94a94434cc0ea72528dc3c360001b62006f4c565b62017c637f53b9c4c9452d2bb3e2d0ce90868caaca9afcd52e081ce576535be5c64b07e91660001b62006f4c565b600060086000858152602001908152602001600020905062017ca87fdd4b44712a089230c06dac417d25922d93ddfb29b1dc94f8e3c73ec819dfed2360001b62006f4c565b62017cd67f4aa8f605ba529d75d2ce546edd027362a468a7596478143f3114b35fcf71528d60001b62006f4c565b62017ce1816201b277565b67ffffffffffffffff8111801562017cf857600080fd5b5060405190808252806020026020018201604052801562017d285781602001602082028036833780820191505090505b50925062017d597f9da39051a4b5273baab2333933c5ff8cf95d1ac24038e7e561cbd2f67cdedda460001b62006f4c565b62017d877f02a2aee3ce815bd0c3fb1ef6a9fe2abc30f7c2fdc0af1e1a69aeb2e5005a0cf560001b62006f4c565b825167ffffffffffffffff8111801562017da057600080fd5b5060405190808252806020026020018201604052801562017dd05781602001602082028036833780820191505090505b50915062017e017f175f9975b686f674975e438fdacdae2dcf5a63830df1f0084106fc7e2d6fec1360001b62006f4c565b62017e2f7f0a82e1139e2af9f70023e958632a5319335c76d8e4493ee520da182931fe806b60001b62006f4c565b60005b8351811015620180285762017e6a7f2f2df4f7f6661af377520b8b61ab0f78b0332358eb696ae3295bc82df6f4eb0560001b62006f4c565b62017e987fe4dd17a3eb3341d8ee0647998fada4987376dbf37bde80721f8c6fb50b6bf19660001b62006f4c565b600062017eaf82846201b31290919063ffffffff16565b905062017edf7f1fbdb6bec632b57a9e5ec64f410e0c307560dc72281b120eb810cc016638cb0960001b62006f4c565b62017f0d7f238cca42e0b0766af727a98a9f50c85e512e6b33837c8d1d668cc8075e68286660001b62006f4c565b8085838151811062017f1b57fe5b602002602001019073ffffffffffffffffffffffffffffffffffffffff16908173ffffffffffffffffffffffffffffffffffffffff168152505062017f837f8e3fbd39c00ec88ba2df62474d78aec6fb75af02bb594c0a568c293257218b2c60001b62006f4c565b62017fb17fb0ce4d27282b56645a23e4108f9c03c3b7f7124b799f4bb9d48c7b0289996be760001b62006f4c565b6007600087815260200190815260200160002060008273ffffffffffffffffffffffffffffffffffffffff1673ffffffffffffffffffffffffffffffffffffffff168152602001908152602001600020548483815181106201800f57fe5b6020026020010181815250505080600101905062017e32565b5050915091565b606080620180607f7c3fdedd741af689c8ee507e71e9e98393f2930ddcd0df6c4d6a68f7322d25d760001b620028cb565b6201808e7f474822bddfc7d291f800a047a340a262bbd1b03632f9729800a1976e6220f6dc60001b620028cb565b620180bc7fd8adc78ab46988725ebcc1761ed13b04900b88db41864dea8a49fb866189abb960001b620028cb565b6000600160008581526020019081526020016000209050620181017ff14a982e0549e18f5ba61b3b5bfd8c5b11261fc92635ea1b7641666c5e38ce0e60001b620028cb565b6201812f7fe8bf4cbe5c8aa13893c685b5a33e493407dbeb1a3cfb9767fb7597d8dc4aac6f60001b620028cb565b6201813a816201939e565b67ffffffffffffffff811180156201815157600080fd5b50604051908082528060200260200182016040528015620181815781602001602082028036833780820191505090505b509250620181b27fe7efef4c8ae1c72733e5828905ae2bb79fe279100cbbc2557f777597d2c68b7c60001b620028cb565b620181e07fddd3e7d658c0f47973ace9c1a7d469e0bfbcadd8a945d7e425d3d1637a4b576560001b620028cb565b825167ffffffffffffffff81118015620181f957600080fd5b50604051908082528060200260200182016040528015620182295781602001602082028036833780820191505090505b5091506201825a7fd55e54c73aea9ce5abf7eb0290843065142b8fc9fdaf6ce38fd9b99b6a92522760001b620028cb565b620182887f1b47cd28788ff3ba034b385d52e5cd0a710b8aa28d44e8d781cbd1c5b3d6aee560001b620028cb565b60005b83518110156201837057620182c37f0eefa3d919466635fa68439ac7c77cc75763d0ae434e991054fdc32fb7d49d3960001b620028cb565b620182f17f5d40e549538176758d4ee0a32384c55d6afbdc4d7fd34d6f96c04e7dbefd984e60001b620028cb565b6201830681836201b3e190919063ffffffff16565b8583815181106201831357fe5b602002602001018584815181106201832757fe5b60200260200101828152508273ffffffffffffffffffffffffffffffffffffffff1673ffffffffffffffffffffffffffffffffffffffff1681525050508060010190506201828b565b5050915091565b6000620183a77f651fbf69fd3ca5ac1ad7362facba6cc74e5ba737740bd591d5bd4824e8b4384660001b62016314565b620183d57f430b5bd5343cb70529caee4e8d1d5902718c751f38d0559ffb64b484ca63571160001b62016314565b620184037f1a76422f2725ffcc224c82588b5fdc4feb549e24dedbc5467b058d6bf5eb322160001b62016314565b6201840e826200f21a565b62018419836200f111565b019050919050565b6000620184517f7cb45b78c97ea7383e9fcb81d497198c628ff028ffc6f324f1ceecccc04cb59b60001b62010a3f565b6201847f7fb3656ecde4040e1bbf22fdb3305656ebaef9ce03a867e318dd2675414787d4e060001b62010a3f565b620184ad7fa9adef01af328324ee6569271fad04725ea685a815a37b6a0fb2771309e9110360001b62010a3f565b81831015620184bd5781620184bf565b825b905092915050565b6000620184f77f87b20573cb952b5fea5419a3ccff88d82933146dfc9c31bbeab25654d5192a4e60001b62010a3f565b620185257ffaa33def688eeaac5fb726c7d96c13e4d19121f18efcd978234b18ee82bf461460001b62010a3f565b620185537fd8455a90419f013f797ee9429a41d22d787b06def38769bc4f97738f976c8a8f60001b62010a3f565b81831062018562578162018564565b825b905092915050565b6201859a7f2d7cd401ffb91657c9d6d7ae8926bbc49c593bbab479ee1ce7411ee8883ab49860001b620044ec565b620185c87f3234fadf41a71cf612f278f55a6f83bfddf0333c6bdb31c8b8c335102c9cffa160001b620044ec565b620185f67f3a4389f6f5ce50276e0e0b982f1bfb309a52ab554d684abe0c31e301d869c62d60001b620044ec565b81600b60008673ffffffffffffffffffffffffffffffffffffffff1673ffffffffffffffffffffffffffffffffffffffff16815260200190815260200160002060008573ffffffffffffffffffffffffffffffffffffffff1673ffffffffffffffffffffffffffffffffffffffff16815260200190815260200160002081905550620186a57f8d9c5341dbc1183ca52148833aba9858503a75bc02313f51ecb0c5348c2effc560001b620044ec565b620186d37f4deb1b4665b8282da5ab2cc9a67b11e6190d7d8f0f97c6112c4b3bb474808c0c60001b620044ec565b8273ffffffffffffffffffffffffffffffffffffffff168473ffffffffffffffffffffffffffffffffffffffff167f18e1ea4139e68413d7d08aa752e71568e36b2c5bf940893314c2c5b01eaa0c42836040516201873291906201f35c565b60405180910390a350505050565b50565b6000620187737fa0f2258dc7775e61d3ad90e6e98ba1a249e886ec0258640d468459b24d2b90dd60001b6200780c565b620187a17f10877cc9505e56463627c6802925fcf6de0c70a55cf8263a10e68b8e9e91e2ee60001b6200780c565b620187cf7f8efe4eb6c122b8709d0ae54d1f0e7dbd0e8ac520ec670115087e1637f1a178a060001b6200780c565b6000620187db6201b519565b90506201880b7fb3148dc79e234d66a8831d21086f5b19598c99a9da9be42f1c265a35aa88a71f60001b6200780c565b620188397f67fdfbd2a3462838f8a9e87709ba61f79dd826290f3b82ce54aee1f0cf03ddff60001b6200780c565b42811015620188d757620188707f04496f2bd6c3a01a02fff909e049f182e3e84372e355f80006b5f4cf20d5b0de60001b6200780c565b6201889e7f3c68ac6774b962dd195e766ca15a4950ba0b91cd225d451576390b63d8094aa160001b6200780c565b620188cc7f75d241301519441e1ef148ccc31cc34c47a05b1d61cbb694cf16f466bc581b5460001b6200780c565b600091505062018d9a565b620189057f2c7f15b5bcee2cefc17d527dc68807f1ebd3a9a32065111d35feb5181b59852d60001b6200780c565b620189337fc27ba2a2dc34ec249dcbf2b961488ce5ce97f54cb93728c48fb766891fb2863860001b6200780c565b620189617f610c40d22f37bce8a97291ea7412a6fe828da5b1d5bc0ee4f27592622100c93360001b6200780c565b60006201896d6201b5b9565b90506201899d7fce20df968068235ac5efaff77a5e35602956f79e4c37943b9a72045701a1219760001b6200780c565b620189cb7fbe4a3b65080c316b682b3cd5d4b45e71745e4f37065d9eb7314d50cff596af5e60001b6200780c565b6000801b81141562018a6d5762018a057f0992699a2b54d3f87dfd082e324261370d8d6b02e624b86522fc41d5d7e6903060001b6200780c565b62018a337f216bc118fad981a5d7b8e7cd5a51f89ea7497eab62848671112c268c8b6f99e460001b6200780c565b62018a617f2c3a622f22fd68b91ee30df28691a39840c23e3f915d2256ce96f9c6d350257a60001b6200780c565b60009250505062018d9a565b62018a9b7f107f3a6b9548dc61f4644c4a7480eff854be3e64d2f69ee4c0f4344d35b6da5e60001b6200780c565b62018ac97fcb5f980616da1fb94ac97cb58e1e30b409d670ae2bd4989e10adbbeb18f320f260001b6200780c565b62018af77fff0dab741e4c3ff8d84d0fac5da3299d2f7bd85120ce73be773ac110bdd2f94260001b6200780c565b60008162018b046201b731565b8051906020012033878660405160200162018b249594939291906201f1e1565b60405160208183030381529060405280519060200120905062018b6a7f30baafcc32dcde6797ae054cea529a874f643ea548a255b77c05e73af8ef956160001b6200780c565b62018b987f5b9765b25f8cb961af3753d772a5b9adb56c6e8e04fb0ace61505ecdd70d412460001b6200780c565b600062018ba5826201b906565b905062018bd57f4e7a9217abd85e0d36ec28a2ffd40da433924b7de7f3e7456716ae4efc3334c360001b6200780c565b62018c037faedb18f380ce80783020e4b38dd4f69010fb92a9bac6e16ceead0dc13986647460001b6200780c565b600080600062018c126201b9cd565b92509250925062018c467f99ba4d1fc7e0a275af99c299efe5e6dc0ea0bb0374ba888d034690a09fb5517f60001b6200780c565b62018c747fd2d64bbe20abe068c0ad9139d354aa2a1e2584ce79c4478474c2caaffad576da60001b6200780c565b60006001858585856040516000815260200160405260405162018c9b94939291906201f29b565b6020604051602081039080840390855afa15801562018cbe573d6000803e3d6000fd5b50505060206040510351905062018cf87f1fac7a841413cf879b936ff8df2318c5f37fecacf3f47b92f3704f234a0c2d4f60001b6200780c565b62018d267f20fa7bcb1acf532ceea23e4298988999037ed52a594416120acb9d2b13a389c760001b6200780c565b600073ffffffffffffffffffffffffffffffffffffffff168173ffffffffffffffffffffffffffffffffffffffff161415801562018d8f57508a73ffffffffffffffffffffffffffffffffffffffff168173ffffffffffffffffffffffffffffffffffffffff16145b985050505050505050505b92915050565b600080600062018dd37f81c2323df80724a2a8e55a7c974ffbf7343b5dc5da72f4c06b3c715da7c6762f60001b620028c5565b62018e017f2cd4111dfe3bdc0dcb55c212494099e43999fe431dd4287ce12c6cbe41baa97960001b620028c5565b62018e2f7f15e19c78b99674afbca9fd331a0e4a0b558b916cf4b902ead7a94a7b9a9401af60001b620028c5565b600062018e3c8662018377565b905062018e6c7f11e71f6a4abcad70aee03ae89422d6c0c8dbe752040b3c8093d9a510e12b6f7a60001b620028c5565b62018e9a7f0f2bdd8733c7993f42dc3bff7d5e76da78b6e673fd7c551d3ecf15cf740c0d7360001b620028c5565b600062018ea78662018377565b905062018ed77f598c1e50a05737c0f94a6f06fc4ff736a1d85d45a55c8bb3e14c8cf95382522160001b620028c5565b62018f057f9d421b3a42a23a6976a1ceb4137abe072da1d64d040002fd76adb3d887ea462260001b620028c5565b62018f2562018f14886200f326565b62018f1f886200f326565b62018421565b8960a001818152505062018f5c7ff09808d99e82dba035d91bce78968c1cc4b36ec1d648fce0e79871c2e385aa5760001b620028c5565b62018f8a7f16ced0082c8e8e6d54d48b4050c2a10d41d6ee5fea0f66acc29913909ca7407060001b620028c5565b8773ffffffffffffffffffffffffffffffffffffffff16639d2c110c8a84846040518463ffffffff1660e01b815260040162018fc9939291906201f401565b602060405180830381600087803b15801562018fe457600080fd5b505af115801562018ff9573d6000803e3d6000fd5b505050506040513d601f19601f820116820180604052508101906201901f91906201e783565b92506201904f7f18da38f6fbbf3ad9cc29ed81608b14511125260f196319533c89408e3dc0076360001b620028c5565b6201907d7f040060e4bea03fd7e1a7075612176a540b0bc08cec0c97ddcfc3b29234c0b23060001b620028c5565b600080620190958b600001518c606001518762012440565b91509150620190c77f36604426d1d794a3f68a05e8fc564acc680f50ec3193cbf14fa15589b7d3b9df60001b620028c5565b620190f57f028ea90d9132378a9a6e10a54ba94533bf13d2fbf1e5565cda683c692e71139f60001b620028c5565b6201910a828a620194e390919063ffffffff16565b96506201913a7f6de5a672a4ce65a0d91c57a09b5c7f11d93e605f69cd581e8a924c38c5d6573360001b620028c5565b620191677e145c1757a7ef1bb1f2646d3dedaac5704f5fe9974303e715104534da4b36ed60001b620028c5565b6201917c8189620196d290919063ffffffff16565b9550505050509450945094915050565b6000620191bc7f357e2d6a208eae3936c653811d195987125ba3ad5e65e55afb2efa352ef4a37e60001b62016314565b620191ea7fb73f32716e6626d6cc91d5122dc8df49fe907dda0e34257db87ee3fce00f125a60001b62016314565b620192187ff573688f2db86f38407f0c3040335c23d6064a5043a213a79a8d358511e433c660001b62016314565b60006201923a62019229856200f326565b62019234856200f326565b62018421565b90506201926a7fd03e8aed8b4195e72863bd9920ec04127e70e736062d9ec5dcd5c15effdf124360001b62016314565b620192987fc0ed2de52c0619738a6c8fa1883fce0ebe4222e68e992cf0a584a5f14257cee560001b62016314565b620192bf620192a7856200f111565b620192b2856200f111565b8363ffffffff166201bb46565b91505092915050565b6000620192f87fc613ca30bdce7e6f2708d004cf88845861c64c501fb8a1896e81ebf38287803c60001b62019973565b620193267f80df5d0e9acb4592d9f2b1c0b9f12f8e0bfed9897f4de838c34cb149b07e67df60001b62019973565b620193547f3a291c6d0bb57fb21d6992e2e042402d472bc7d72da51e299051b5aaa08d011a60001b62019973565b8260020160008373ffffffffffffffffffffffffffffffffffffffff1673ffffffffffffffffffffffffffffffffffffffff16815260200190815260200160002054905092915050565b6000620193ce7f846b1273c50d5ad59d7faa6e6dc01d330f7c12b8f0a570977acfcaa4293ce1fc60001b62019973565b620193fc7f73e3685e428c9cc0a834f36827c79e00738c86c6a8d2fde371d6544b3efec9c760001b62019973565b6201942a7f0a5627f4264447e7488f0eba23bb3ee56c49f536b34e1a43285a936c5876757560001b62019973565b81600001549050919050565b6000620194667fd158eecf4b7ed44aed8730ef630c1fd539ff9d19036a90ca7c5eb58d19f8585060001b62019973565b620194947f4f89e7673647955e1d8c2ec1161bbdb8e13b46578cefc8e512aa1a8549f9798860001b62019973565b620194c27f1d340fe86699090631f9306f5169ea3e2c077ce71d8c893f7c391040167c9a4960001b62019973565b82600101600083815260200190815260200160002060010154905092915050565b6000620195137f46d3360b88abea9e75312da497b636f977555adc4ca485ab41a6983a1570b51660001b62016314565b620195417f053d653fabd415f9d70d23c5911c0befaff42a6e96de6d7c7a9cbe3641d4f31d60001b62016314565b6201956f7fdf520ecf1e01ee6b4cbb96cee680b1f0e1862a142e0e6d4083ebcf4171b4d3b560001b62016314565b6000620195908362019581866200f111565b620092eb90919063ffffffff16565b9050620195c07fa7070e93be6f00c5f943f32bfa2e3cd4f74cd5b65b221819065c4710073b764560001b62016314565b620195ee7fc0abe87791df49e551f0e920a19bc6551b2bb4759f96509a0a5c2bb13b89de0660001b62016314565b6000620195fb856200f21a565b90506201962b7fce982957c3ad32c8752dfb2294e955e81022c9106453d0092e551b218873553460001b62016314565b620196597fbf8e35890c7c9dce70ce7aaf4ca18b6f7b11301d99deb1c46deb9947004f82ea60001b62016314565b60004390506201968c7ff36f557f93169706c2ef1c4d57140fdf658c83f9f62bb5a33407e0680c99035460001b62016314565b620196ba7f4e0b3c765e59685c197a0c8b89cb6c33a3071d8e77fccf9face487fa92c946c860001b62016314565b620196c78383836201bbeb565b935050505092915050565b6000620197027ffe27b17c30751fffa7576b3bbfec4f26542568aad78badf0980c8f155fd346ef60001b62016314565b620197307f7faa53215e0b6a2587e7d83260d270cd9fab7be9cb93b254570c4901eec46a4e60001b62016314565b6201975e7f34913f77be1f4efd5542290698cbcc1549c9ffd518170865dee7bd279cb0041160001b62016314565b60006201977f8362019770866200f111565b6201bd7990919063ffffffff16565b9050620197af7f9f4f8cbe38ed7913f66edcdb54e82bddfd58dd1640089062b2cc6ea984e363a060001b62016314565b620197dd7fd5b6ec1972c985a54eb02407a080262298e02bc6a48fc3c32ec10f101317017460001b62016314565b6000620197ea856200f21a565b90506201981a7ff1d44286c0fddffbbc163ce46ffc2bf97fb1207467df2079f0ca311cea83278060001b62016314565b620198487fadfdcb0573338e957cc93bc5ea194dafbe3c003e88a000e61cf72c234cfb216360001b62016314565b60004390506201987b7f9c0840b5b97c71fb4de8ed3defa48bc9407c23d86f6e51773c2491e8b570a1c360001b62016314565b620198a97f82c8601ffacfc9644f3cc707e262b1ce8b69a71943b2944cce5c85e2b488235d60001b62016314565b620198b68383836201bbeb565b935050505092915050565b620198ef7fb4e3b4a5bad8dff05a4191bf6a48a1cee6b992b2de55cb2bd08e701cbaacded960001b62019973565b6201991d7f646bdf6b9df33ba8f07310531b0a9df0dda2eea6985cd776088eaebebbe8bf0360001b62019973565b6201994b7f2f7f937426a506d8542790ff0a21e17d2d3dce7453caeac3c438443cdf99099560001b62019973565b8083600101600084815260200190815260200160002060010181905550505050565b50565b50565b50565b600080620199a77f58261c7aedbb34c8d54472fc8e1ee9bc166dbf064686a802978d9c365ddccaa760001b62000d86565b620199d57f10316dd66c73cf58800b982d686d5e7b7489e2004559144fea33227a870b5a3c60001b62000d86565b62019a037fe390aac9edd4166563623a13622e3dab2209ba22c57b74ef81e2ce75fc7bee4160001b62000d86565b8273ffffffffffffffffffffffffffffffffffffffff168473ffffffffffffffffffffffffffffffffffffffff161062019a3f57828462019a42565b83835b915091509250929050565b600062019a7d7f46bced6adeb0e5b53d18107c9693c4112680fbe9ee16ae8f0d574fb4866962c460001b62000d86565b62019aab7f9eb35c3e10460521587b9c3048067e7ee5e2926d79790d80efe702a81ae05f5b60001b62000d86565b62019ad97f35e27b455ee1b9370b821791959b32c1b2eaee1cbd496ad177657cde22a7422660001b62000d86565b828260405160200162019aee9291906201edbd565b60405160208183030381529060405280519060200120905092915050565b600062019b3c7f63906137a925283a3cada9bb3dfb6cf22b2cabc726542c61ab70f4bc22c8be4b60001b62016314565b62019b6a7f40aff145305a51d12536a4e30bd49d4b774d3b88df85378c328fd15245ec970c60001b62016314565b62019b987f1d8efae3f1b67f4734285549d70f386ec136987944da4011a77082596996971560001b62016314565b62019bc362019ba7846201bede565b62019bb2846201bede565b62019bbd866200f326565b6201bbeb565b905092915050565b600062019bfb7f39b036da67c19f371b66abf0a40cb4f03456269c6b691cb00a65aa0727e24d9360001b62016314565b62019c297f7ede4080ead0baf21a570718b79a09818ffb5606863d14ff107a7acd58e4755360001b62016314565b62019c577f458a2be1d6114f19aa7936ccb52731b4dddf600bc0aceab75b8bad67b68285eb60001b62016314565b62019c8262019c66846201bfe7565b62019c71846201bfe7565b62019c7c866200f326565b6201bbeb565b905092915050565b600062019cba7f3bdf948d59c6f48cffdc657425c1f085eef35e68095e819756a4ae2dfc808f3460001b62019973565b62019ce87fb4cd1457b98845d082286cb2dea8768fa98865c6fd8aff5236a4ff0d98ef7b0960001b62019973565b62019d167f49523b34018e3e493ca645d113efdbc5ba899443de977287885ae7bc813ef29a60001b62019973565b60008460020160008573ffffffffffffffffffffffffffffffffffffffff1673ffffffffffffffffffffffffffffffffffffffff16815260200190815260200160002054905062019d8a7f107aa543b697be671af117f271438937c177c50596678c5d238f4a60abd6e29660001b62019973565b62019db87fc43e853366b97eadad5d73f43397abc3d16db1819c4fe2130ee96add893890cc60001b62019973565b62019dc7600082118462000d70565b62019df57f47126b1d5b082f0d36b6576ecfcb1a27679c5d89c5c7351ea2926ad74d38c81560001b62019973565b62019e237f0cddb3b2844dd32dd90c7b3a148f47da70ac8c67e5f433cdb86f13d4b0eddd3b60001b62019973565b62019e32856001830362019436565b9150509392505050565b600062019e6c7fe05e04e14f99ff7328c6f60440572b2ff79a1873dd3cd9faac81b2ae92a8a8c060001b620028c8565b62019e9a7fc8cd9ac851d2ca799c101caea3649350d31e049d241158112d9fbf00b280ad9f60001b620028c8565b62019ec87f1bbc846802e0929bbfa62d2a216b9a7297ac0d4f6da0a8eb6bc721ba86aa850f60001b620028c8565b62019ed262006e9a565b73ffffffffffffffffffffffffffffffffffffffff166355c676286040518163ffffffff1660e01b815260040160206040518083038186803b15801562019f1857600080fd5b505afa15801562019f2d573d6000803e3d6000fd5b505050506040513d601f19601f8201168201806040525081019062019f5391906201e783565b905090565b62019f867ff93cca1af12ed522fc51dcf996e7491533346c30b040fb5975666fc365ae360160001b62012626565b62019fb47fed85d258ee0c1f50a2f016bb353f4d9e144535853ff77b063df99ac96714be1660001b62012626565b62019fe27f537a8e59b4413688b787e5dae337ffc461646c52576a7e63bfe22b498e171cef60001b62012626565b62019ffd828414801562019ff557508183145b606762000d70565b505050565b60606201a0327f58856046f1f952f586f29193476ccac22a159d906a080cf48df34850292fe06a60001b620044e9565b6201a0607f4a953fe531e56d15ca5e5cdf1bdeb2a672bf635edb385f9e53e14506bcac2ca460001b620044e9565b6201a08e7ff3713bd5963ee819745e71dacaab59f9631c46f7d52e8d46d14bf238c265946b60001b620044e9565b835167ffffffffffffffff811180156201a0a757600080fd5b506040519080825280602002602001820160405280156201a0d75781602001602082028036833780820191505090505b5090506201a1087f705dce4ff3d9b293402deaf70f0a96e7fc67413586ee9c5e092e2b0ea7e03b6b60001b620044e9565b6201a1367f36f7b9ef93c4dfe0526c54380a906e4ab19afa1506d1726b882452a812191def60001b620044e9565b60005b8560000151518110156201a4d0576201a1757f974c3cb9507a2ddeda645e02949b8537762a84021d8336cbdbd35743b260520960001b620044e9565b6201a1a37fdaaf80b2a35c3a9b0decaa68e5182b120e8a2ddb0de6c4a98ff0f4549b4e31cb60001b620044e9565b60008482815181106201a1b257fe5b602002602001015190506201a1ea7fc992143b53deb9269267891b4a0430a38f62eaa00b220bc6e69f82a99f8d7c7e60001b620044e9565b6201a2187fd68f776fe9923bd3d9cf0a1f9cbfb70fc7a19d0f2e5fbdd2b24c383df5f7de1660001b620044e9565b6201a241876020015183815181106201a22d57fe5b60200260200101518210156101f962000d70565b6201a26f7fbd5fe09b2cc1f1af42c79459f53f80d088aa59d592a919e5d5c0f048ad124b1460001b620044e9565b6201a29d7f0f6f9d4e0feefeae399b3707d6a4b815b73a79eaf0f39c82e22a1531e9f3467760001b620044e9565b6000876000015183815181106201a2b057fe5b602002602001015190506201a2e87fc86c0d9d3ddc2ad9dfc7a2c661e0c8a3321b743bd7b393768db9cb0055975e7e60001b620044e9565b6201a3167f11ce76d4b99932ce8666777cc977fc9a9cd55b16211a1887dc11c13f854f81ca60001b620044e9565b6201a32881838b8b606001516200b07c565b6201a3567fff85c99edaaa36545644b0e20401b0e29b3a1aa0de38b7390fdda42f96e70a8860001b620044e9565b6201a3847f681340291d6ac7c1f7842f8a518eea468de362fb56579697274d226a2d1d32b460001b620044e9565b60008584815181106201a39357fe5b602002602001015190506201a3cb7f53f89af58e681c996edd66cc2a571025c96081a09f1eff08d7b5655e29eaa3b060001b620044e9565b6201a3f97f31a157f7d7066fe0539e17aee80eb5260a9f06bca425ff8edd2bcced18f06b4c60001b620044e9565b6201a40f6201a408836200a367565b826200b9cb565b6201a43d7f1e23262968628146c10f48c86632f5cd145b983da0bd2848381b76d4c9dfc6a560001b620044e9565b6201a46b7fdcd33b3cddda9798032bea1e7523a8f027d9493a80ef8d41dbcfea131b74bc4560001b620044e9565b6201a4a86201a4848285620092eb90919063ffffffff16565b8986815181106201a49157fe5b6020026020010151620196d290919063ffffffff16565b8585815181106201a4b557fe5b6020026020010181815250505050508060010190506201a139565b5095945050505050565b60606201a50a7fda2703c2e09070cc4a47f812e3275a1701f0e9f9549bad0cb90458679e57cd5e60001b620044e9565b6201a5387f439d7540c6c25a1e43920f36297e528ed87719a6cc6f6d9d320a2a5e7315d1e460001b620044e9565b6201a5667f622221a12e43c52c6d38c18331a463ac72ccfe71f78d3fd54bfc4cd457f8ebfb60001b620044e9565b60006201a5967fbcce08d14f87dd8665b4a00f648f5953cc525fe7642b597e1745a5b664bd1f6e60001b620044e9565b6201a5c47f8963d7a5c616f1acb6d28693c8a23461c976aa26d46e8d90b8e078d721e9e7e260001b620044e9565b845167ffffffffffffffff811180156201a5dd57600080fd5b506040519080825280602002602001820160405280156201a60d5781602001602082028036833780820191505090505b5091506201a63e7ffc958dde5b674f5f742eaab6daadf82240f1f3b8e6281fdf335ea7a044dcf51660001b620044e9565b6201a66c7f1760e135559d3cde0ab0b277743ed67315d75f77fa7856896231ecc715bb40b060001b620044e9565b60005b8660000151518110156201ab71576201a6ab7ffb8cc1f04cd05a45e2a7e703cac010c0e3c8aa5c88fc79cedad1d5b84294509460001b620044e9565b6201a6d97fcf6c89a379347dce0f0b0a4ad69e6af02a04f4f612819c99a83e243e4dd113fb60001b620044e9565b60008582815181106201a6e857fe5b602002602001015190506201a7207fa62de6898136973eed7a9ca920d218f4f5db6745927732b2609508e2e15b4d1560001b620044e9565b6201a74e7f332c63e9cab39a08cc1004f76d37bc2c87bae63c0357b248406039d0d85dc19760001b620044e9565b6201a777886020015183815181106201a76357fe5b60200260200101518211156101fa62000d70565b6201a7a57f06ebfee646109ff1b651e17fcfb7243fc35ee140e7cf12db14cc40ba710b95cb60001b620044e9565b6201a7d37fc5be53f21ca19b9cc952caeaac27167dfea2bcec7644039fa4ed6d6b6727f7e260001b620044e9565b6000886000015183815181106201a7e657fe5b602002602001015190506201a81e7fde1834dc3fe2f8b39241a676dc1ae8a254049c900f02299e8d8b137e100ff9c760001b620044e9565b6201a84c7fb49c8defc62a9ebdf128f8eee05cb914344876d5f68f589ca7c1c6b83301a32d60001b620044e9565b6201a85e81838c8c606001516200a95c565b6201a88b7e922ec0db646e65568db9c71a460ea5c436a32200c6b4b56dd267ee0c06c84160001b620044e9565b6201a8b97f3ead326810dd7b009e869695e8ec8c79c2b1cadce3a1627bbe0e797019ef055860001b620044e9565b6201a8c48162009228565b156201a971576201a8f87f32a4ad955cc9c3906325b364d3ebc63274292347d535c84d34d06afb8504ca5960001b620044e9565b6201a9267f59a42de61783cc9dc7f7d743584569e4cce54fa2d945caf69ecb40a5a65952da60001b620044e9565b6201a9547f296cd4874883f8c8b4454514955f60ac794f52244bcb428e150b8c11876d968060001b620044e9565b6201a9698285620092eb90919063ffffffff16565b93506201a9a0565b6201a99f7fc35b5aa6d821ea7f12257678cb7cba816c5ceefe483cff2d1a481897d384d52460001b620044e9565b5b6201a9ce7f44abb470c32034628cfd16a0a21ade6ace55a677ae54a02ffd7b684770442e7a60001b620044e9565b6201a9fc7f7d45ea76015f622083284c79aa8f981e1df37acabfc06637870f71a5b46a3c8a60001b620044e9565b60008684815181106201aa0b57fe5b602002602001015190506201aa437febc5056d922cb366728e779eb531de94da8e7fe43e9f32e2a5ad47e8299f12d560001b620044e9565b6201aa717f311322400f643af6d2edbe0501b865768945db8061951ebdbe0136655e759db360001b620044e9565b6201aa876201aa80836200a367565b826200b9cb565b6201aab57fbda61a75e8d5d0704b26afd78d651c93498a4d387bc9dade9abd0d3706888d6660001b620044e9565b6201aae37fe1888b9359f4217f8c7aff4639bb3d21fb3f35aa266f9b440a3f2180e666c87660001b620044e9565b808310156201ab1d576201ab178382038a86815181106201ab0057fe5b6020026020010151620196d290919063ffffffff16565b6201ab49565b6201ab488184038a86815181106201ab3157fe5b6020026020010151620194e390919063ffffffff16565b5b8685815181106201ab5657fe5b6020026020010181815250505050508060010190506201a66f565b506201aba07ffce4643875478e87da47d69bee3793501502c357cd44f7acb97f05f3593729a660001b620044e9565b6201abce7fd4b457bde42b275d945173b1080630b8d471f0075c6393597313b813d1a7141b60001b620044e9565b6201abd9816200983a565b5095945050505050565b50565b60006201ac167f770afac62213a68ada223fa3e8021d553537f453a234a2f11b380150cb6936fe60001b62019973565b6201ac447f8161ed1e5408c5a5079da398f9740e3de5118d875b43cc33aa698120e26c381260001b62019973565b6201ac727f9731c2c52212ba1efdadf35904db5d078ed76e7810a4663091226e15ad85307060001b62019973565b60008360020160008473ffffffffffffffffffffffffffffffffffffffff1673ffffffffffffffffffffffffffffffffffffffff168152602001908152602001600020541415905092915050565b6201acee7f798435a0ed714527f0afe2b771ccc100c7682fed77980db661185e462697398860001b62000d86565b6201ad1c7f0857485afe865d1628e942166f7cb27cc28b81f33f34ff13f39f572a216c504e60001b62000d86565b6201ad4a7f2b5ebdde2152486455cf28b468d477b5e3dfa5246966349a5d9a9223cf7d572460001b62000d86565b6201ad5b83836201c0f4846201c301565b50505050565b6201ad8f7fe9740cbcdfb265a725268d3dbef87dfe487954a49c5042f0d5fecf9e0db836c160001b62006f4c565b6201adbd7f047b98d9b35fa14be551c1726359006517d7632399c272b855f7e6d06e81387760001b62006f4c565b6201adeb7f20a560dbf3355f95ebbfbfa0c81b2944ff56ddd07218028c43c69d5be232224660001b62006f4c565b6201adfc83836201c0f4846201c8c9565b50505050565b6201ae307f546b63095bc8e4528f567cce2aa38a859786ca6271d91b8de34fa622f521410760001b620028cb565b6201ae5d7ed4aa7f2f529466d9e56c74a13fa63aed182c2cb1af4097a3ebf01a7e0eb32660001b620028cb565b6201ae8b7f0190d7cb1f52967a43580d9f9f78960f4b5a04f459ca16881016ff73182ce16b60001b620028cb565b6201ae9c83836201c0f4846201cb02565b50505050565b6201aed07f901a06403d576d39881d8b089f69f9d6e317035e276efe818ae11bf73cc7edc560001b62000d86565b6201aefe7ffa452eec54c5f67ecc1e98ec6596efea15dd06f8b0462eae38aecf13101c854860001b62000d86565b6201af2c7f45000ec98e41a80a52ff48e76f8ae7b7577fbee79fafe7a3d22cdee3a70d5c8d60001b62000d86565b6201af3d83836201cd71846201c301565b50505050565b6201af717fb84279ae4f1ee916118328a72628b86fb127bdd217f876e189c982287e5ee57260001b62006f4c565b6201af9f7fe0e915dbdc200dae8ec0d1a2047b894a536db890857ad6a1af07bcf265576ecf60001b62006f4c565b6201afcd7f278921896e6c9de7d2ff8db4372f3a9f13dfb48c2b48b44fb946381b1623d0f760001b62006f4c565b6201afde83836201cd71846201c8c9565b50505050565b6201b0127f387d8101373bc7766976d9c54e8e67ec113196b50de421e3e77f848c405dc31260001b620028cb565b6201b0407f506f7d07e6c8b7c139e93a9e78936ab368116dba73166458e1b63d079bf0e06a60001b620028cb565b6201b06e7f635fe23d37dc71b384149bc3474fa5fa9330e942e7c1226bcff5344166a25bfc60001b620028cb565b6201b07f83836201cd71846201cb02565b50505050565b60006201b0b57f5f6d08f13b6f1e397ded84ef003e2408ee85c9224078a19631e3691ab877e5e160001b62000d86565b6201b0e37fc6a24da5b246c3777c3bc3d5bf49a75f03b5195d442762d8b79c195af6e8351660001b62000d86565b6201b1117fba0791e3f2439bfdf6cfcc7a6e2fbf358137fd7a2ad4f32c03e2f9f5dd380a1a60001b62000d86565b6201b12284846201cf7e856201c301565b90509392505050565b60006201b15b7f5f1e142e921489717a0314b137ec2bcd8373edd5a0abff40998a060c9a6f321f60001b62006f4c565b6201b1897f5b3fe73b542bc8b1f93c1d68512ddf7dd95107446a8db0df1ecac473cc78157a60001b62006f4c565b6201b1b77f173901daeeaa30661261b403f9def079d299b90794d5818c94277110b784a6f960001b62006f4c565b6201b1c884846201cf7e856201c8c9565b90509392505050565b60006201b2017f9f6ae9d240c11405b9a2ae98d944c7e150c0bd81fe4d7b84a7ee41f6300b7b5060001b620028cb565b6201b22f7f91a83abab662044b311337726fc8e9114a84ee54cd5af3d6bdff30ea5e4410d460001b620028cb565b6201b25d7f499a8f9be100a7d3d908d5d21d175d439b21b28762aa690a17e44b4836dd826c60001b620028cb565b6201b26e84846201cf7e856201cb02565b90509392505050565b60006201b2a77fc939cb4a358f7de10fbd202b3434882ab905a97465c61be890dcf2b81f594b1a60001b62019970565b6201b2d57f3bd586b7682f7d29a4f151a6acf63b75bdca300a4228f5bfd10203a61161b74960001b62019970565b6201b3037f7a0ac2bc9371301d946971e3f98e8667807fea30f54e31d677bb8899e1a8fe0960001b62019970565b81600001805490509050919050565b60006201b3427f6ca8b2757ef52d892eb581014eba9645b8866516e51aa7f124ea7d98d9b2b43760001b62019970565b6201b3707f8863d66d3a44ebb6cf0c7daf6176968329c4ced50f1bf66ab11da0b0dcd631a460001b62019970565b6201b39e7f26dc9deb5f2e107da3801848bd726309dd8639c3ba47b6fdd4f8c047e8ad920660001b62019970565b8260000182815481106201b3ae57fe5b9060005260206000200160009054906101000a900473ffffffffffffffffffffffffffffffffffffffff16905092915050565b6000806201b4127f50275b4ed6c64aee5caebc6e936440d9365c8b573e46180d749156a6a79fa01260001b62019973565b6201b4407facaad2e6d5dbfb6b156285bf17389107e4f89f31b9ec584f90db65b01026bd5260001b62019973565b6201b46e7fa3a29155ab336da0a6b15a5967dcecc1d8e07fc4621dc99982db873f2cd9da7060001b62019973565b600084600101600085815260200190815260200160002090506201b4b57fb8c262ce0f806dd11dc80a0f705fa1dfc80da219ba10deec7ef8b22e7ae6c18660001b62019973565b6201b4e37f1f46e87fa0c25e6c659c11ecc6001e6207783becddafe2031d6438fc3a71167460001b62019973565b8060000160009054906101000a900473ffffffffffffffffffffffffffffffffffffffff16816001015492509250509250929050565b60006201b5497fbeae209fa6e7cd8e9554752b7166aa6ee36bbc4ae4816932426dfc3afea74d5160001b6200780c565b6201b5777ffcd3ace0de51aa553564ac2e802711cff0721dc028de1c6a2309df83caf4c47260001b6200780c565b6201b5a57faa387d2b90f290c9d9346e949039b3a34fa7b97fffcbdded4b863d58118ea5ca60001b6200780c565b6201b5b160006201d0ed565b60001c905090565b60006201b5e97f883791bfbaa99b3554165c4f960f4e13724111c9f2e0e70b221b964c123b60e860001b62006e97565b6201b6177f8b08057012d0cb3a4d4f09cba26a4887d22ddc9e9054fb3eef75594aa6e70cff60001b62006e97565b60003560e01c8063b95cac2881146201b66457638bdb391381146201b68d576352bbbe2981146201b6b65763945bcec981146201b6df5763fa6e671d81146201b70857600092506201b72c565b7f3f7b71252bd19113ff48c19c6e004a9bcfcca320a0d74d58e85877cbd7dcae5892506201b72c565b7f8bbc57f66ea936902f50a71ce12b92c43f3c5340bb40c27c4e90ab84eeae335392506201b72c565b7fe192dcbc143b1e244ad73b813fd3c097b832ad260a157340b4e5e5beda067abe92506201b72c565b7f9bfc43a4d98313c6766986ffd7c916c7481566d9f224c6819af0a53388aced3a92506201b72c565b7fa3f865aa351e51cfeb40f5178d1564bb629fe9030b83caf6361d1baaf5b90b5a92505b505090565b60606201b7617febf42380d7ca1f10559f22243a9fa514f69815014255084a8c8b857fcff94f4860001b6200780c565b6201b78f7f8ab5a2b1246321eba7c9914c97e511971c490f76aa9ca6ca803f7b4ce44cd48260001b6200780c565b6201b7bd7fef8bc593bd6e057b051133772a6e8edad703f436e2046f16e6ddfbf05cd3ae6860001b6200780c565b6000368080601f016020809104026020016040519081016040528093929190818152602001838380828437600081840152601f19601f8201169050808301925050505050505090506201b8337fc8023f6560da79595bbc1cd8664f06570ffd015f1745ab59063def89000a338f60001b6200780c565b6201b8617f62b02f5a04d89325d30ed885cd8e880ee33153465f5eb59a48dcf7c6235a930560001b6200780c565b6080815111156201b8d4576201b89a7fb000203e67f4855bc63c3bf5e57e6ea8675bf4455b42bd72fd889b5a8c7abc0160001b6200780c565b6201b8c87f2ac7b9fb5c9c0daacfe016438b6c40b55e852c983177f7291d8d9a75e794f6ea60001b6200780c565b6080360381526201b903565b6201b9027f578a2d3f0083ba874a5a07c720ff94685734a0a456cc9e2164c568e90b3e9ab460001b6200780c565b5b90565b60006201b9367f4162dfeea5487a2e490df35ab6c4995319cb016658ef6478e632b71af599fcb360001b62006e94565b6201b9647f52a922e27af0a55002a9023a873c43cc837d583fe0362e21bdb684f84be2b0ed60001b62006e94565b6201b9927f445bb281dbba1baa57c2b3af376885c1ba274636fe85e7d63faf25499e6f09fb60001b62006e94565b6201b99c6200fb90565b826040516020016201b9b09291906201eded565b604051602081830303815290604052805190602001209050919050565b60008060006201ba007fd1243bd6049bb28f779a75c57329dfb4b14d7f9dcae60454788247b0738fa6c260001b6200780c565b6201ba2e7faa733ed119a1372ed4003530c12ee29bf2355af158212dee24bb83895206398b60001b6200780c565b6201ba5c7fdca1046b6519ebd49a43959f5280ebd3766089475e4013008720bda5aaba683860001b6200780c565b6201ba6860206201d0ed565b60001c92506201ba9b7fba7d38475cc0a1000a6ad468006d9bf4c7b488950c36f89cb300976b1bf26b8660001b6200780c565b6201bac97fab22810ed7912e4a00b9de30b010d48e33342819fae4843028044047d080073560001b6200780c565b6201bad560406201d0ed565b91506201bb057fc7101b5d73095498e377328ea6f1565e28ae92314917e366521d594e554e84b860001b6200780c565b6201bb337f82b84f4f113f01823652cbbcbea3378a4844655e8e3b77ac5b4e046801707c0f60001b6200780c565b6201bb3f60606201d0ed565b9050909192565b60006201bb767f4ef9aeff3b518ad2c74cb17a1e78784e9f1c3239a3cbe8093af994d73174104e60001b62016314565b6201bba47f2e923dfa249a54166ccb61722a1ff7d4c330a977022cc8c5f85e461756180d6960001b62016314565b6201bbd27fbb001896cb904fc649a0494ba04e44e1d30df10262e639e7f5c9cf733dfd129960001b62016314565b83607084901b60e084901b010160001b90509392505050565b60006201bc1b7faeb9412062ffaa7d13cd4a4d619e931d7e56261c5f652d90fa96483aa6698d7c60001b62016314565b6201bc497f54c0ca2bec443bcaa80e40644b2dc5fa8855fcce0601534e2b6fcbd7062bdde560001b62016314565b6201bc777f7953f99b72608c474daecaca8e36154a572a0defc30162d71b32f41e6c1d8e4d60001b62016314565b600083850190506201bcac7f504ebc1bc90eb25cc262b7cad40a794f6a03e64352eea34ea9d23974d0023d6a60001b62016314565b6201bcda7fda9889091ad53fc3b74a5bf2db927109a00361eebedeac06ddf5ddadfb1a0eec60001b62016314565b6201bd068582101580156201bcfd57506e01000000000000000000000000000082105b61020e62000d70565b6201bd347f3aa17d7ff56bbf05397552a2bb16157881ffa614a361b61c0381a5410f939d6360001b62016314565b6201bd627f0b8f644acbc50c09d3ca1dfbcf99a426255231c062887350a3e21ee8bb26551460001b62016314565b6201bd6f8585856201bb46565b9150509392505050565b60006201bda97fd3476389c9167915828e1c41fd58b501be617f81bcda7df7905ebaa183b3c4bd60001b62010a3f565b6201bdd77f763e3966e690f5b421dcd041f04b48a1b193ed59a99cfdb60b67ab3dfbf2eab360001b62010a3f565b6201be057fd040ddffed94a5c3f1ea2412fc14f14911f62630c664bb38108164ba34c6c5bb60001b62010a3f565b6201be1583831115600162000d70565b6201be437fc95d13badf35636a18cef429a1cc30fcff497d0f377233d60d91a54b5222bb6b60001b62010a3f565b6201be717f28183ac30fe9ec9460a9d28cb4e04f1c3d89222564c20b044bc81e450ef8cb9760001b62010a3f565b600082840390506201bea67f2996cf182068f32853c4842e48ae8391b1959ea375b654bf401398afae3fb9a460001b62010a3f565b6201bed47ffd16e19fe244cb693efc31c873bf159b238b28cd50bd7fb58b14e97f7b30750760001b62010a3f565b8091505092915050565b60006201bf0e7feaef49a7ee437bca457e7ad714e994beb71f0d1ab4a93993a3a4f651635171a960001b62016314565b6201bf3c7f77a7ff36efc470c6c534177ba767c4badf12a28bb03d7116d964717503f31a5460001b62016314565b6201bf6a7fb9715023634e543a7db27caf170b20f70475c717ba13ff09051583dcf766b14460001b62016314565b60006dffffffffffffffffffffffffffff90506201bfab7f594f71877354ae61ef2df4dccdb6485c78165098e6ee02bca37b422adabcdfa060001b62016314565b6201bfd97f21682b9982bba150a48c8e9ddc42395f953dd46a99685fe490230cfb3f681a3c60001b62016314565b808360001c16915050919050565b60006201c0177f50f7168ee65f2029163c6621299ab44adf75765d5a93e2a780395ca1557ae87c60001b62016314565b6201c0457f432d55aefe608c5a4bc2de4ec5a4ab6c7524f0da668451c952fdb4898532307b60001b62016314565b6201c0737f8ed56c1f4824ce6cf8be5f9c19f981ecd8f602dc5721932d9146d7c58de402e560001b62016314565b60006dffffffffffffffffffffffffffff90506201c0b47f946b824feeec3105d4171eafc5dc7215e28358d5531b0f6053c73d8c8ba7992c60001b62016314565b6201c0e27f326e12aaaafcb16f94e6704398e3324cf277f0b37f9f8ab8abfe577a06b190da60001b62016314565b80607084901c60001c16915050919050565b60006201c1247f855f43d164e9d4b9e3c73704fb5544d82898584143f0d23e43c523e074cdf07d60001b62016314565b6201c1527fcc1cfdff19ea17c6e3249ce8d1ef9545ab14e845761a05e99fc0dd18c09ddf5760001b62016314565b6201c1807f5eb93de7a9ee335b865f5d21b3fed36ff705efb7ab8c62bd89014294278e713460001b62016314565b60006201c1a1836201c192866200f111565b6201bd7990919063ffffffff16565b90506201c1d17feb7d4156b594fcf2ab988023a105be3c357c6765583284fb5687ea530671635f60001b62016314565b6201c1ff7f0cf225fe524ddad26d40dc5fab5b0d16e62f0dabdbf3c649a5d6ae1728451bcf60001b62016314565b60006201c220846201c211876200f21a565b620092eb90919063ffffffff16565b90506201c2507fdd4f04add8ffce48968a4786911470517d10e880720e593f19b968b0e8b497ca60001b62016314565b6201c27e7fa85ce28bc1052da72b76fb06238cea3903aa3ea14669f21582f2a2ca9c66c76060001b62016314565b60006201c28b866200f326565b90506201c2bb7ff6671595cde5ae67a5e609033f7b7c9370566534915c03b40df310ed3d1fb2d160001b62016314565b6201c2e97f3ce7eeba48db3703bc32cfbfb1ccd1c79bfb06a8d762c38fee9858b3dc675f7960001b62016314565b6201c2f68383836201bbeb565b935050505092915050565b60006201c3317fe2d3e2f2afa19e77de624a7b0b5f1f8cfca12655fabbefbf3eac84ffa2dc31dd60001b62000d86565b6201c35f7fa13910708ba9770e8014dd3bee0cd84fc3eb27be9c3ea36b54a11e090b72a3ac60001b62000d86565b6201c38d7fec3b850ef52fa0005d8c2d3ebd2c2584787a99e502b95c406420a7a9ffae7f0060001b62000d86565b6000806000806201c39e8962015d62565b9450509350935093506201c3d57fd07ee7df0cd2d95b5cf6b2f95aaa3d3d515ec2468e5e978315d2c6588f855c2760001b62000d86565b6201c4037ff2a1bd9b6a1ce8219d69ea140344305d6704ab9b856ba5aea0bee874822957dd60001b62000d86565b60006201c4337f589abc8f0a905355be507d64ac537feec0ec3f1a73e7410a8a29cb242238265060001b62000d86565b6201c4617f3062f6d3e627babd16ef038f30d90bdc90465001be0ee3acea1038af162d7e7c60001b62000d86565b8373ffffffffffffffffffffffffffffffffffffffff168973ffffffffffffffffffffffffffffffffffffffff1614156201c60c576201c4c47f5d3972f4c2acabdf2d30e13f09179575e32c1a0690527e2ba0e877b336d6586d60001b62000d86565b6201c4f27fdc479772393d53eafae257fd5b2884b167202c724d77a93902d737a9d25485da60001b62000d86565b6201c5207f98a96c96354f1d522f1d42905293d1e9fb041d881cc75878fbcefab31b06fd7460001b62000d86565b60006201c53184898b63ffffffff16565b90506201c5617f6167e2e69627bcb5d5bf21f6e5aab66fa00de2193d03624ee35a70ed80ab8dae60001b62000d86565b6201c58f7f0bdfe04aaff973d96970092b40c40248d2a149c49a7a5b6b860e9d5c5660389760001b62000d86565b6201c5a484826201d15990919063ffffffff16565b91506201c5d47ff6a77d5818391586772c29f63f39866138dfcd73377012635579064a42b0042560001b62000d86565b6201c6027f423c4715edae98f2427cc440ed25da6b2c331d65797ce374991b21bdcf84c35260001b62000d86565b809350506201c77d565b6201c63a7fc795a8fa7ccbda92c84ed7c65eea5b6ecadaa1fdcd4009a4a0d809446ea6952c60001b62000d86565b6201c6687f73b27ad4730866fae8ff6280746006eb580edc779c7081c90b8f0493f8dc770960001b62000d86565b6201c6967f381ce1e0ac047cb6c17f37d0c8c46541a18f94e137dbdcd167575533254c54e360001b62000d86565b60006201c6a783898b63ffffffff16565b90506201c6d77f1e21ba4873889d8b6dd3d66994f3ae6623eff4b7df050d6562d16b663efa2ad560001b62000d86565b6201c7057f7bdf5d9c13e7de04dd9488f39d0ad53a31e14e879a646bed9e48e37246b41b5260001b62000d86565b6201c71a83826201d15990919063ffffffff16565b91506201c74a7f4fd0c743aed64bed8517bb65fe4f7b00f5eee80fd562d1e9547e8854ba180b1760001b62000d86565b6201c7787f92254da4940630f559cf396146b6aa28275e193465f7c15e24a45dae533ea7be60001b62000d86565b809250505b6201c7ab7f096d9e76e6a05aa82243c6132b92f7cade4dc8c83c8e599dbaa865b69cc11e2260001b62000d86565b6201c7d97f2716844ad8e547aeced62f06d1d8d151b7ba67afd9aa5d54d5e4439291e0d61b60001b62000d86565b6201c7e583836201918c565b85600001819055506201c81b7fe97e126b71be06d91bb42a7ecf774be7104c412fb1d986ff48afdde9cf72aeef60001b62000d86565b6201c8497fcdd4cfcb44066e75fbf444a34422fa49aa075e456c29f30bffd1790b0036cb3060001b62000d86565b6201c85583836201d204565b85600101819055506201c88b7faf3595c5c77e3065c49281bc61c4e08889dffdbb58a3f5ea3c094f6f52ba4ce560001b62000d86565b6201c8b97f107479fb3b28acbf152284486001bf2a8bc6e026043c75fb4945a6e38b774af760001b62000d86565b8095505050505050949350505050565b60006201c8f97ff56a7836d8184ed166b351a1bd2a2aee2c72448c7f01ac0fc1a78dfb6a97ab0160001b62006f4c565b6201c9277ffdded796cb56e3b83bf32376ed9f496477bcf39cae5f2621af17288de54744af60001b62006f4c565b6201c9557fae7f2dd3e49b71868a2ebc2845588d670178556d7ba5cf4c533c8dae6d8b3c9f60001b62006f4c565b60006201c96386866200ec86565b90506201c9937f0fb830fcb9a24d9754ece0e0f3a376caffd72f0d34c24d64ff9e9030ceab2a2560001b62006f4c565b6201c9c17fb8c2c502d6677db5751744f2b3dd7c68e5019bdc1e0d4448458857834cc949f960001b62006f4c565b60006201c9d282858763ffffffff16565b90506201ca027fccc912b27573f910eaa47fe605de4c531882feb9d1d7c6b1296030f1d94a91b460001b62006f4c565b6201ca307f5e348924d4b902636d14096e7c23f94366ee9704f6e9e3d2d12d20e9f55d580660001b62006f4c565b806007600089815260200190815260200160002060008873ffffffffffffffffffffffffffffffffffffffff1673ffffffffffffffffffffffffffffffffffffffff168152602001908152602001600020819055506201cab37f3c6b2f4f1785d07e3d109545f6cc87f659b224707de088b14213ab67737cf57060001b62006f4c565b6201cae17f1a0c5e14f862126ca567ca1dbdaeec2af6e4468f10602d1ee9d96d7323a8344c60001b62006f4c565b6201caf682826201d15990919063ffffffff16565b92505050949350505050565b60006201cb327fdbd8344b6ed6504bc9709b5090014f5790c2a4d26461a24b912e1a63e682e78e60001b620028cb565b6201cb607fa0db32fdbf08cbc43a841aeb693edf7e3e67803f30afdf969bae51574347e7eb60001b620028cb565b6201cb8e7fb66823dd48a3c076e29d21d6c1ad528c3761d6538b778812d1e633eab41358b660001b620028cb565b60006001600087815260200190815260200160002090506201cbd37f5a30b5ab3ee066db1a7132bea694bfc8465be0977fe2394a8b0414cc1b7646eb60001b620028cb565b6201cc017f9fdd30ee79182246ddeb914588138087b9cc9abb834a87def542c6e612aa909d60001b620028cb565b60006201cc0f828762013ffc565b90506201cc3f7f72bb10c1d63648b1c56ca3fa3b937af038b9ad1b160ae80de7e28895c5bc6da660001b620028cb565b6201cc6d7f2adb718c11f68e4ef62075dc2df40fb7184db5dbcd285d505ab53e19643a448760001b620028cb565b60006201cc7e82868863ffffffff16565b90506201ccad7e489973137f273ec14976254c34867ef61c76730cd928ac94500d3d31fac14760001b620028cb565b6201ccdb7f6c63cc595b7e05101f828556adf313bad4de45d0bf33df4efc00ff47c14c15ed60001b620028cb565b6201ccf287828562012de99092919063ffffffff16565b506201cd217f4bf52a475b4b87b89880a40378f3e59a64062ec509d0a371a677d463a1620b9060001b620028cb565b6201cd4f7f5eb2226cdf4cf5ff6154319efb6526215d2fc1721ed26d527bf1489761e2894c60001b620028cb565b6201cd6482826201d15990919063ffffffff16565b9350505050949350505050565b60006201cda17ffcfbc1c37cde87a8a4f80766f7d7bffeeb21334006309e6d67a1592b6bce7ef560001b62016314565b6201cdcf7f08e3817c869fdbb862a84cd75450babfa2f425e690e79b4cdc1247226ca14e6b60001b62016314565b6201cdfd7f17bf626cd441f9c3d4b5551336ea7bf89d4cde4429c7409c81ac0e3c52672bcd60001b62016314565b60006201ce1e836201ce0f866200f111565b620092eb90919063ffffffff16565b90506201ce4e7f84c57c87dfe6737e2e3b57454c6c2594dcb32ad543022ac74e1475a627fce0b360001b62016314565b6201ce7c7ff21f184aa2a8e5f8eafc053ff5cfaff094d82f45d7d2327b388b78d1c6dea8ad60001b62016314565b60006201ce9d846201ce8e876200f21a565b6201bd7990919063ffffffff16565b90506201cecd7f1d777e4a31513f2be9e68ec7e097cb18f3fbf5b1d1ed387a1d34db3d5ab5f47160001b62016314565b6201cefb7f533c3b7601614ed4637713032efa466b7b8c46e6e6aa52289f4f434f0013f0ff60001b62016314565b60006201cf08866200f326565b90506201cf387f8e71dca6e8be7d5550cc6d1d3bc33ad618d4aa500a6a48175c960152d54283eb60001b62016314565b6201cf667ff5861bb2ecbca537343330f64c567ff2629a70ced57f61c3c41a3d9858be1c0160001b62016314565b6201cf738383836201bbeb565b935050505092915050565b60006201cfae7f4a09fa13ffb0a11b6e1390b613dd409ade0c66146779a8e36112d499c47e636e60001b62016314565b6201cfdc7f528374f79d7772d2ffe7cc0e0c8fa76d61b0ea2c5cc54ba6888e8a0e732597aa60001b62016314565b6201d00a7f86560798e06223710fa1146ca12306b3071784e73df7593af7f8573d7d15bbee60001b62016314565b60006201d017846200f111565b90506201d0477fcb33232846558b353b5f1f3a6936fc3c65b3f30081c4757e17abfb01e08089a260001b62016314565b6201d0757f04d746c5f00b164898ee79d7b839cc4a4168a2f3743f49f49102d405b85bcb9460001b62016314565b60004390506201d0a87f3be35d5b69143acf051aa56ef6e26ff96f5772cdcf93a120895308a4c574cac260001b62016314565b6201d0d67f31832d7149ffaebd5a7400a3c042a7c56fe186f81bda906f8d808eb12cf74af760001b62016314565b6201d0e38285836201bbeb565b9250505092915050565b60006201d11d7fea722c3c64bbcd89c871079a597e5a98cd35ed9f26736b07b782ad160d56a87660001b6200780c565b6201d14b7fb25aac74003ee618ae898bda7f9b27d34a85bf93d6f02cac86ee1efb22a4731c60001b6200780c565b816080360301359050919050565b60006201d1897fddc1058e776924de62c06e39a46b2a2ddd173c366f3464799c4869173024b16960001b62016314565b6201d1b77f71f642cc8ae47b9f0154aa2caa6c4502e928e934ceea5ff6e2ed6e0b78b7882e60001b62016314565b6201d1e57f18f23a0c32599febc3d061d28404ad52e3a13e5d788985aaf1bc53db115078a860001b62016314565b6201d1f0826200f21a565b6201d1fb846200f21a565b03905092915050565b60006201d2347fb9865b72b30afb3ea4e0eb1ac0390770044606727adb21a4e6f703e50d61c85760001b62016314565b6201d2627f777c4c0dcb4e4148360abae8fc917e2671ad9990eb73ce291d60fb8e69661aec60001b62016314565b6201d2907f2c29f6b613248c398848fe2c629deaa92a955e491366eeb065f0623c82cf61c260001b62016314565b6201d2b26201d29f846200f21a565b6201d2aa846200f21a565b60006201bb46565b905092915050565b604051806101200160405280600060018111156201d2d457fe5b8152602001600073ffffffffffffffffffffffffffffffffffffffff168152602001600073ffffffffffffffffffffffffffffffffffffffff168152602001600081526020016000801916815260200160008152602001600073ffffffffffffffffffffffffffffffffffffffff168152602001600073ffffffffffffffffffffffffffffffffffffffff168152602001606081525090565b6040518060800160405280600060028111156201d38657fe5b815260200160008019168152602001600073ffffffffffffffffffffffffffffffffffffffff168152602001600081525090565b60405180608001604052806060815260200160608152602001606081526020016000151581525090565b6040518060a0016040528060008019168152602001600081526020016000815260200160008152602001606081525090565b6000813590506201d427816201fa79565b92915050565b6000813590506201d43e816201fa93565b92915050565b600082601f8301126201d45657600080fd5b81356201d46d6201d467826201f50a565b6201f4dc565b915081818352602084019350602081019050838560208402820111156201d49357600080fd5b60005b838110156201d4c757816201d4ac88826201d416565b8452602084019350602083019250506001810190506201d496565b5050505092915050565b600082601f8301126201d4e357600080fd5b81356201d4fa6201d4f4826201f533565b6201f4dc565b915081818352602084019350602081019050838560208402820111156201d52057600080fd5b60005b838110156201d55457816201d53988826201d9e1565b8452602084019350602083019250506001810190506201d523565b5050505092915050565b600082601f8301126201d57057600080fd5b81356201d5876201d581826201f55c565b6201f4dc565b915081818352602084019350602081019050838560208402820111156201d5ad57600080fd5b60005b838110156201d5e157816201d5c688826201da0f565b8452602084019350602083019250506001810190506201d5b0565b5050505092915050565b600082601f8301126201d5fd57600080fd5b81356201d6146201d60e826201f585565b6201f4dc565b915081818352602084019350602081019050838560208402820111156201d63a57600080fd5b60005b838110156201d66e57816201d65388826201da99565b8452602084019350602083019250506001810190506201d63d565b5050505092915050565b600082601f8301126201d68a57600080fd5b81356201d6a16201d69b826201f5ae565b6201f4dc565b9150818183526020840193506020810190508360005b838110156201d6eb57813586016201d6d088826201dab0565b8452602084019350602083019250506001810190506201d6b7565b5050505092915050565b600082601f8301126201d70757600080fd5b81356201d71e6201d718826201f5d7565b6201f4dc565b915081818352602084019350602081019050838560808402820111156201d74457600080fd5b60005b838110156201d77857816201d75d88826201dd71565b8452602084019350608083019250506001810190506201d747565b5050505092915050565b600082601f8301126201d79457600080fd5b81356201d7ab6201d7a5826201f600565b6201f4dc565b915081818352602084019350602081019050838560a08402820111156201d7d157600080fd5b60005b838110156201d80557816201d7ea88826201deb4565b845260208401935060a083019250506001810190506201d7d4565b5050505092915050565b600082601f8301126201d82157600080fd5b81356201d8386201d832826201f629565b6201f4dc565b915081818352602084019350602081019050838560208402820111156201d85e57600080fd5b60005b838110156201d89257816201d87788826201df49565b8452602084019350602083019250506001810190506201d861565b5050505092915050565b600082601f8301126201d8ae57600080fd5b81516201d8c56201d8bf826201f629565b6201f4dc565b915081818352602084019350602081019050838560208402820111156201d8eb57600080fd5b60005b838110156201d91f57816201d90488826201df60565b8452602084019350602083019250506001810190506201d8ee565b5050505092915050565b6000813590506201d93a816201faad565b92915050565b6000815190506201d951816201faad565b92915050565b6000813590506201d968816201fac7565b92915050565b6000813590506201d97f816201fae1565b92915050565b600082601f8301126201d99757600080fd5b81356201d9ae6201d9a8826201f652565b6201f4dc565b915080825260208301602083018583830111156201d9cb57600080fd5b6201d9d88382846201f9be565b50505092915050565b6000813590506201d9f2816201fafb565b92915050565b6000813590506201da09816201fb15565b92915050565b6000813590506201da20816201fb2f565b92915050565b6000813590506201da37816201fb49565b92915050565b6000813590506201da4e816201fb63565b92915050565b6000813590506201da65816201fb74565b92915050565b6000813590506201da7c816201fb85565b92915050565b6000813590506201da93816201fb96565b92915050565b6000813590506201daaa816201fba7565b92915050565b600060a082840312156201dac357600080fd5b6201dacf60a06201f4dc565b905060006201dae1848285016201d957565b60008301525060206201daf7848285016201df49565b60208301525060406201db0d848285016201df49565b60408301525060606201db23848285016201df49565b606083015250608082013567ffffffffffffffff8111156201db4457600080fd5b6201db52848285016201d985565b60808301525092915050565b6000608082840312156201db7157600080fd5b6201db7d60806201f4dc565b9050600082013567ffffffffffffffff8111156201db9a57600080fd5b6201dba8848285016201d4d1565b600083015250602082013567ffffffffffffffff8111156201dbc957600080fd5b6201dbd7848285016201d80f565b602083015250604082013567ffffffffffffffff8111156201dbf857600080fd5b6201dc06848285016201d985565b60408301525060606201dc1c848285016201d929565b60608301525092915050565b6000608082840312156201dc3b57600080fd5b6201dc4760806201f4dc565b905060006201dc59848285016201d416565b60008301525060206201dc6f848285016201d929565b60208301525060406201dc85848285016201d42d565b60408301525060606201dc9b848285016201d929565b60608301525092915050565b6000608082840312156201dcba57600080fd5b6201dcc660806201f4dc565b9050600082013567ffffffffffffffff8111156201dce357600080fd5b6201dcf1848285016201d4d1565b600083015250602082013567ffffffffffffffff8111156201dd1257600080fd5b6201dd20848285016201d80f565b602083015250604082013567ffffffffffffffff8111156201dd4157600080fd5b6201dd4f848285016201d985565b60408301525060606201dd65848285016201d929565b60608301525092915050565b6000608082840312156201dd8457600080fd5b6201dd9060806201f4dc565b905060006201dda2848285016201da3d565b60008301525060206201ddb8848285016201d957565b60208301525060406201ddce848285016201da0f565b60408301525060606201dde4848285016201df49565b60608301525092915050565b600060c082840312156201de0357600080fd5b6201de0f60c06201f4dc565b905060006201de21848285016201d957565b60008301525060206201de37848285016201da6b565b60208301525060406201de4d848285016201d9e1565b60408301525060606201de63848285016201d9e1565b60608301525060806201de79848285016201df49565b60808301525060a082013567ffffffffffffffff8111156201de9a57600080fd5b6201dea8848285016201d985565b60a08301525092915050565b600060a082840312156201dec757600080fd5b6201ded360a06201f4dc565b905060006201dee5848285016201da82565b60008301525060206201defb848285016201d9e1565b60208301525060406201df11848285016201df49565b60408301525060606201df27848285016201d416565b60608301525060806201df3d848285016201d42d565b60808301525092915050565b6000813590506201df5a816201fbc1565b92915050565b6000815190506201df71816201fbc1565b92915050565b6000602082840312156201df8a57600080fd5b60006201df9a848285016201d416565b91505092915050565b600080604083850312156201dfb757600080fd5b60006201dfc7858286016201d416565b92505060206201dfda858286016201d416565b9150509250929050565b6000806000606084860312156201dffa57600080fd5b60006201e00a868287016201d416565b93505060206201e01d868287016201d416565b92505060406201e030868287016201d929565b9150509250925092565b600080604083850312156201e04e57600080fd5b60006201e05e858286016201d416565b925050602083013567ffffffffffffffff8111156201e07c57600080fd5b6201e08a858286016201d55e565b9150509250929050565b6000602082840312156201e0a757600080fd5b600082013567ffffffffffffffff8111156201e0c257600080fd5b6201e0d0848285016201d6f5565b91505092915050565b6000602082840312156201e0ec57600080fd5b600082013567ffffffffffffffff8111156201e10757600080fd5b6201e115848285016201d782565b91505092915050565b600080604083850312156201e13257600080fd5b600083015167ffffffffffffffff8111156201e14d57600080fd5b6201e15b858286016201d89c565b925050602083015167ffffffffffffffff8111156201e17957600080fd5b6201e187858286016201d89c565b9150509250929050565b6000602082840312156201e1a457600080fd5b60006201e1b4848285016201d929565b91505092915050565b6000602082840312156201e1d057600080fd5b60006201e1e0848285016201d940565b91505092915050565b6000602082840312156201e1fc57600080fd5b60006201e20c848285016201d957565b91505092915050565b600080600080608085870312156201e22c57600080fd5b60006201e23c878288016201d957565b94505060206201e24f878288016201d416565b93505060406201e262878288016201d42d565b925050606085013567ffffffffffffffff8111156201e28057600080fd5b6201e28e878288016201db5e565b91505092959194509250565b600080600080608085870312156201e2b157600080fd5b60006201e2c1878288016201d957565b94505060206201e2d4878288016201d416565b93505060406201e2e7878288016201d416565b925050606085013567ffffffffffffffff8111156201e30557600080fd5b6201e313878288016201dca7565b91505092959194509250565b600080604083850312156201e33357600080fd5b60006201e343858286016201d957565b925050602083013567ffffffffffffffff8111156201e36157600080fd5b6201e36f858286016201d55e565b9150509250929050565b6000806000606084860312156201e38f57600080fd5b60006201e39f868287016201d957565b935050602084013567ffffffffffffffff8111156201e3bd57600080fd5b6201e3cb868287016201d55e565b925050604084013567ffffffffffffffff8111156201e3e957600080fd5b6201e3f7868287016201d444565b9150509250925092565b600080604083850312156201e41557600080fd5b60006201e425858286016201d957565b92505060206201e438858286016201da0f565b9150509250929050565b6000602082840312156201e45557600080fd5b60006201e465848285016201d96e565b91505092915050565b6000602082840312156201e48157600080fd5b60006201e491848285016201d9f8565b91505092915050565b600080600080608085870312156201e4b157600080fd5b60006201e4c1878288016201da26565b945050602085013567ffffffffffffffff8111156201e4df57600080fd5b6201e4ed878288016201d55e565b935050604085013567ffffffffffffffff8111156201e50b57600080fd5b6201e519878288016201d80f565b925050606085013567ffffffffffffffff8111156201e53757600080fd5b6201e545878288016201d985565b91505092959194509250565b6000602082840312156201e56457600080fd5b60006201e574848285016201da54565b91505092915050565b60008060008060e085870312156201e59457600080fd5b60006201e5a4878288016201da6b565b945050602085013567ffffffffffffffff8111156201e5c257600080fd5b6201e5d0878288016201d678565b935050604085013567ffffffffffffffff8111156201e5ee57600080fd5b6201e5fc878288016201d4d1565b92505060606201e60f878288016201dc28565b91505092959194509250565b60008060008060008061012087890312156201e63657600080fd5b60006201e64689828a016201da6b565b965050602087013567ffffffffffffffff8111156201e66457600080fd5b6201e67289828a016201d678565b955050604087013567ffffffffffffffff8111156201e69057600080fd5b6201e69e89828a016201d4d1565b94505060606201e6b189828a016201dc28565b93505060e087013567ffffffffffffffff8111156201e6cf57600080fd5b6201e6dd89828a016201d5eb565b9250506101006201e6f189828a016201df49565b9150509295509295509295565b60008060008060e085870312156201e71557600080fd5b600085013567ffffffffffffffff8111156201e73057600080fd5b6201e73e878288016201ddf0565b94505060206201e751878288016201dc28565b93505060a06201e764878288016201df49565b92505060c06201e777878288016201df49565b91505092959194509250565b6000602082840312156201e79657600080fd5b60006201e7a6848285016201df60565b91505092915050565b60006201e7bd83836201e839565b60208301905092915050565b60006201e7d783836201eb5f565b60208301905092915050565b60006201e7f183836201ebcf565b60208301905092915050565b60006201e80b83836201ed26565b60208301905092915050565b6201e822816201f8ba565b82525050565b6201e833816201f7a9565b82525050565b6201e844816201f795565b82525050565b6201e855816201f795565b82525050565b60006201e868826201f6bf565b6201e87481856201f72a565b93506201e881836201f67f565b8060005b838110156201e8b85781516201e89c88826201e7af565b97506201e8a9836201f6f6565b9250506001810190506201e885565b5085935050505092915050565b60006201e8d2826201f6ca565b6201e8de81856201f72a565b93506201e8eb836201f68f565b8060005b838110156201e9225781516201e90688826201e7c9565b97506201e913836201f703565b9250506001810190506201e8ef565b5085935050505092915050565b60006201e93c826201f6d5565b6201e94881856201f73b565b93506201e955836201f69f565b8060005b838110156201e98c5781516201e97088826201e7e3565b97506201e97d836201f710565b9250506001810190506201e959565b5085935050505092915050565b60006201e9a6826201f6e0565b6201e9b281856201f74c565b93506201e9bf836201f6af565b8060005b838110156201e9f65781516201e9da88826201e7fd565b97506201e9e7836201f71d565b9250506001810190506201e9c3565b5085935050505092915050565b6201ea0e816201f7bd565b82525050565b6201ea1f816201f7c9565b82525050565b6201ea30816201f7c9565b82525050565b6201ea4b6201ea45826201f7c9565b6201fa17565b82525050565b6201ea666201ea60826201f7d3565b6201fa21565b82525050565b60006201ea7a83856201f77f565b93506201ea898385846201f9be565b82840190509392505050565b60006201eaa2826201f6eb565b6201eaae81856201f75d565b93506201eac08185602086016201f9cd565b6201eacb816201fa3f565b840191505092915050565b60006201eae3826201f6eb565b6201eaef81856201f76e565b93506201eb018185602086016201f9cd565b6201eb0c816201fa3f565b840191505092915050565b60006201eb24826201f6eb565b6201eb3081856201f77f565b93506201eb428185602086016201f9cd565b80840191505092915050565b6201eb59816201f8ce565b82525050565b6201eb6a816201f8f6565b82525050565b6201eb856201eb7f826201f8f6565b6201fa03565b82525050565b6201eb96816201f91e565b82525050565b6201eba7816201f946565b82525050565b6201ebb8816201f96e565b82525050565b6201ebc9816201f982565b82525050565b6201ebda816201f879565b82525050565b6201ebeb816201f879565b82525050565b60006201ec006002836201f78a565b91507f19010000000000000000000000000000000000000000000000000000000000006000830152600282019050919050565b60006201ec426000836201f77f565b9150600082019050919050565b6000610120830160008301516201ec6a60008601826201ebbe565b5060208301516201ec7f60208601826201eb5f565b5060408301516201ec9460408601826201eb5f565b5060608301516201eca960608601826201ed26565b5060808301516201ecbe60808601826201ea14565b5060a08301516201ecd360a08601826201ed26565b5060c08301516201ece860c08601826201e839565b5060e08301516201ecfd60e08601826201e839565b506101008301518482036101008601526201ed1982826201ea95565b9150508091505092915050565b6201ed31816201f8a3565b82525050565b6201ed42816201f8a3565b82525050565b6201ed53816201f8ad565b82525050565b60006201ed6782856201ea36565b6020820191506201ed7982846201ea51565b6004820191508190509392505050565b60006201ed988284866201ea6c565b91508190509392505050565b60006201edb282846201eb17565b915081905092915050565b60006201edcb82856201eb70565b6014820191506201eddd82846201eb70565b6014820191508190509392505050565b60006201edfa826201ebf1565b91506201ee0882856201ea36565b6020820191506201ee1a82846201ea36565b6020820191508190509392505050565b60006201ee37826201ec33565b9150819050919050565b60006020820190506201ee5860008301846201e84a565b92915050565b60006060820190506201ee7560008301866201e84a565b6201ee8460208301856201e84a565b6201ee9360408301846201ed37565b949350505050565b60006040820190506201eeb260008301856201e84a565b6201eec160208301846201ebad565b9392505050565b60006040820190506201eedf60008301856201e84a565b6201eeee60208301846201ed37565b9392505050565b600060208201905081810360008301526201ef1181846201e8c5565b905092915050565b600060408201905081810360008301526201ef3581856201e8c5565b905081810360208301526201ef4b81846201e85b565b90509392505050565b600060608201905081810360008301526201ef7081866201e8c5565b905081810360208301526201ef8681856201e92f565b905081810360408301526201ef9c81846201e999565b9050949350505050565b600060808201905081810360008301526201efc281876201e8c5565b905081810360208301526201efd881866201e999565b905081810360408301526201efee81856201e999565b905081810360608301526201f00481846201ead6565b905095945050505050565b600060608201905081810360008301526201f02b81866201e8c5565b905081810360208301526201f04181856201e999565b90506201f05260408301846201ed37565b949350505050565b600060208201905081810360008301526201f07681846201e92f565b905092915050565b600060208201905081810360008301526201f09a81846201e999565b905092915050565b60006020820190506201f0b960008301846201ea03565b92915050565b60006060820190506201f0d660008301866201ea03565b6201f0e560208301856201ed37565b6201f0f460408301846201ed37565b949350505050565b60006020820190506201f11360008301846201ea25565b92915050565b60006060820190506201f13060008301866201ea25565b6201f13f60208301856201e84a565b6201f14e60408301846201e84a565b949350505050565b600060e0820190506201f16d600083018a6201ea25565b6201f17c60208301896201e84a565b6201f18b60408301886201e817565b81810360608301526201f19f81876201e999565b90506201f1b060808301866201ed37565b6201f1bf60a08301856201ed37565b81810360c08301526201f1d381846201ead6565b905098975050505050505050565b600060a0820190506201f1f860008301886201ea25565b6201f20760208301876201ea25565b6201f21660408301866201e828565b6201f22560608301856201ed37565b6201f23460808301846201ed37565b9695505050505050565b600060a0820190506201f25560008301886201ea25565b6201f26460208301876201ea25565b6201f27360408301866201ea25565b6201f28260608301856201ed37565b6201f29160808301846201e84a565b9695505050505050565b60006080820190506201f2b260008301876201ea25565b6201f2c160208301866201ed48565b6201f2d060408301856201ea25565b6201f2df60608301846201ea25565b95945050505050565b60006020820190506201f2ff60008301846201eb4e565b92915050565b60006020820190506201f31c60008301846201eb8b565b92915050565b60006020820190506201f33960008301846201eb9c565b92915050565b60006020820190506201f35660008301846201ebad565b92915050565b60006020820190506201f37360008301846201ebe0565b92915050565b60006040820190506201f39060008301856201ebe0565b6201f39f60208301846201ebe0565b9392505050565b600060808201905081810360008301526201f3c281876201ec4f565b905081810360208301526201f3d881866201e999565b90506201f3e960408301856201ed37565b6201f3f860608301846201ed37565b95945050505050565b600060608201905081810360008301526201f41d81866201ec4f565b90506201f42e60208301856201ed37565b6201f43d60408301846201ed37565b949350505050565b60006020820190506201f45c60008301846201ed37565b92915050565b60006040820190506201f47960008301856201ed37565b6201f48860208301846201ed37565b9392505050565b60006080820190506201f4a660008301876201ed37565b6201f4b560208301866201ed37565b6201f4c460408301856201ed37565b6201f4d360608301846201e84a565b95945050505050565b6000604051905081810181811067ffffffffffffffff821117156201f50057600080fd5b8060405250919050565b600067ffffffffffffffff8211156201f52257600080fd5b602082029050602081019050919050565b600067ffffffffffffffff8211156201f54b57600080fd5b602082029050602081019050919050565b600067ffffffffffffffff8211156201f57457600080fd5b602082029050602081019050919050565b600067ffffffffffffffff8211156201f59d57600080fd5b602082029050602081019050919050565b600067ffffffffffffffff8211156201f5c657600080fd5b602082029050602081019050919050565b600067ffffffffffffffff8211156201f5ef57600080fd5b602082029050602081019050919050565b600067ffffffffffffffff8211156201f61857600080fd5b602082029050602081019050919050565b600067ffffffffffffffff8211156201f64157600080fd5b602082029050602081019050919050565b600067ffffffffffffffff8211156201f66a57600080fd5b601f19601f8301169050602081019050919050565b6000819050602082019050919050565b6000819050602082019050919050565b6000819050602082019050919050565b6000819050602082019050919050565b600081519050919050565b600081519050919050565b600081519050919050565b600081519050919050565b600081519050919050565b6000602082019050919050565b6000602082019050919050565b6000602082019050919050565b6000602082019050919050565b600082825260208201905092915050565b600082825260208201905092915050565b600082825260208201905092915050565b600082825260208201905092915050565b600082825260208201905092915050565b600081905092915050565b600081905092915050565b60006201f7a2826201f883565b9050919050565b60006201f7b6826201f883565b9050919050565b60008115159050919050565b6000819050919050565b60007fffffffff0000000000000000000000000000000000000000000000000000000082169050919050565b60006201f80c826201f795565b9050919050565b60006201f820826201f795565b9050919050565b60006201f834826201f795565b9050919050565b60006201f848826201f795565b9050919050565b60008190506201f85f826201fa5d565b919050565b60008190506201f874826201fa6b565b919050565b6000819050919050565b600073ffffffffffffffffffffffffffffffffffffffff82169050919050565b6000819050919050565b600060ff82169050919050565b60006201f8c7826201f996565b9050919050565b60006201f8db826201f8e2565b9050919050565b60006201f8ef826201f883565b9050919050565b60006201f903826201f90a565b9050919050565b60006201f917826201f883565b9050919050565b60006201f92b826201f932565b9050919050565b60006201f93f826201f883565b9050919050565b60006201f953826201f95a565b9050919050565b60006201f967826201f883565b9050919050565b60006201f97b826201f84f565b9050919050565b60006201f98f826201f864565b9050919050565b60006201f9a3826201f9aa565b9050919050565b60006201f9b7826201f883565b9050919050565b82818337600083830152505050565b60005b838110156201f9ed5780820151818401526020810190506201f9d0565b838111156201f9fd576000848401525b50505050565b60006201fa10826201fa2b565b9050919050565b6000819050919050565b6000819050919050565b60006201fa38826201fa50565b9050919050565b6000601f19601f8301169050919050565b60008160601b9050919050565b600381106201fa6857fe5b50565b600281106201fa7657fe5b50565b6201fa84816201f795565b81146201fa9057600080fd5b50565b6201fa9e816201f7a9565b81146201faaa57600080fd5b50565b6201fab8816201f7bd565b81146201fac457600080fd5b50565b6201fad2816201f7c9565b81146201fade57600080fd5b50565b6201faec816201f7d3565b81146201faf857600080fd5b50565b6201fb06816201f7ff565b81146201fb1257600080fd5b50565b6201fb20816201f813565b81146201fb2c57600080fd5b50565b6201fb3a816201f827565b81146201fb4657600080fd5b50565b6201fb54816201f83b565b81146201fb6057600080fd5b50565b600381106201fb7157600080fd5b50565b600381106201fb8257600080fd5b50565b600281106201fb9357600080fd5b50565b600481106201fba457600080fd5b50565b6201fbb2816201f879565b81146201fbbe57600080fd5b50565b6201fbcc816201f8a3565b81146201fbd857600080fd5b5056fea2646970667358221220cf3e6f0b4e1cc95ad82b3f38392eaccb1e7ef4a78a92889b5cbe41a94d4a8ea264736f6c6343000701003360c06040523480156200001157600080fd5b506040516200252838038062002528833981810160405281019062000037919062000294565b3073ffffffffffffffffffffffffffffffffffffffff1660001b620000857f8ec5ed39e0277cf6b5ac7bfbea69561e0ab13d0f90291fda9f21b6ff5febaf0960001b6200027460201b60201c565b620000b97fb3047d90d74037e2adb2df89b6f86a7b7c8bf74ab7f36f7e5570b17d25c7743060001b6200027460201b60201c565b620000ed7fcde082662b671d959326c5490179744ff7f489da54d7e3b0e588ca9e6054959260001b6200027460201b60201c565b8060808181525050506200012a7fe9ec9f3628aaa58309698b36d4920ca033915a6732961f4acdb4056f16a1205a60001b6200027760201b60201c565b6200015e7fd3e66d41bd17558a0cea80cb6af72881d9a4f8b3d3fa92f57d1ef900a04e49cf60001b6200027760201b60201c565b620001927f4345feddde47777f0ddd4af1fab952dcb95ed9b159ce4dfcd15c18dc2984c4a660001b6200027760201b60201c565b6001600081905550620001ce7fdb5a857082afe117a9287abd41be1044962e429810eeabd4a622aa7be0d98c1860001b6200027a60201b60201c565b620002027f1675ffa7bdfab0eeb42c20f1502805127d4faa4e98e8494433164d838a2d1bc760001b6200027a60201b60201c565b620002367fe9399e257b1306c6c368b27623696f4aaf67399e841e08270d7cd0bdc9e47a1760001b6200027a60201b60201c565b8073ffffffffffffffffffffffffffffffffffffffff1660a08173ffffffffffffffffffffffffffffffffffffffff1660601b815250505062000322565b50565b50565b50565b6000815190506200028e8162000308565b92915050565b600060208284031215620002a757600080fd5b6000620002b7848285016200027d565b91505092915050565b6000620002cd82620002e8565b9050919050565b6000620002e182620002c0565b9050919050565b600073ffffffffffffffffffffffffffffffffffffffff82169050919050565b6200031381620002d4565b81146200031f57600080fd5b50565b60805160a05160601c6121da6200034e6000398061100f5280611516525080610c4a52506121da6000f3fe608060405234801561001057600080fd5b50600436106100d45760003560e01c8063851c1bb311610081578063d877845c1161005b578063d877845c146101ed578063e42abf351461020b578063fbfa77cf1461023b576100d4565b8063851c1bb31461018357806391f04a44146101b3578063aaabadc5146101cf576100d4565b806355c67628116100b257806355c676281461012d5780636b6b9f691461014b5780636daefab614610167576100d4565b806338e9922e146100d9578063398526a1146100f557806343a9299e14610111575b600080fd5b6100f360048036038101906100ee9190611c61565b610259565b005b61010f600480360381019061010a9190611bbd565b61049d565b005b61012b60048036038101906101269190611bbd565b6104a0565b005b6101356104a3565b6040516101429190611f13565b60405180910390f35b61016560048036038101906101609190611c61565b610531565b005b610181600480360381019061017c9190611aca565b610774565b005b61019d60048036038101906101989190611be6565b610bc2565b6040516101aa9190611e8b565b60405180910390f35b6101cd60048036038101906101c89190611bbd565b610c98565b005b6101d7610c9b565b6040516101e49190611edd565b60405180910390f35b6101f5610d2e565b6040516102029190611f13565b60405180910390f35b61022560048036038101906102209190611b53565b610dbc565b6040516102329190611e69565b60405180910390f35b61024361100d565b6040516102509190611ef8565b60405180910390f35b6102857f21ea7fcf5f9d7c31f9aaf25a69a33e54c5f3c5f66baae008885ccc3276598f7e60001b6104a0565b6102b17f6a39159fbf6a6f219cb1a9d2ba1e006bf81de453f8c25b24ef0ad37212bed98b60001b6104a0565b6102dd7fda72f8aff7fe2e941c3d65dafeff55469fc4e10b2cfd040c51bbee89e5b0231a60001b6104a0565b6102e5611031565b6103117f9c459e0e3be04934ddeb1b00ad8219c43cf1b0ee5a60c5c5492412fe62e3db4860001b6104a0565b61033d7f9088c290ed1eda4bbfe12eb608ac9a88a9b3b8cf9f67e9c9fa93b95789817c9560001b61049d565b6103697f838220c237a0561dc8062238ae12ab59413e4deb275ea8b70730168a4de435cc60001b61049d565b6103957f1971c327ea7e0c3df861408f3a73818fbf8cd9e5f922c05ec5a96c6b7fbb774f60001b61049d565b6103ac6706f05b59d3b20000821115610258611156565b6103d87f61424e2f1cd4f0657d53cb9a78c4015b4cf06220ff8599a83fcfbc06a3fe78c160001b61049d565b6104047f69bd730e1d8616882f13e317b5c6c16c26d8f289f708ef17b8d2fc522e93bafd60001b61049d565b806001819055506104377f4187cc55a4f24984fae179bc55cd4802fb4d5a46d913d639b7f2f4dd5864578760001b61049d565b6104637fa968c5b0bb03b48012d71c59d84dfd6b5548f9d397ed4383c1b602083e23a09f60001b61049d565b7fa9ba3ffe0b6c366b81232caab38605a0699ad5398d6cce76f91ee809e322dafc816040516104929190611f13565b60405180910390a150565b50565b50565b60006104d17f57b718ba2e8d971de9df3a1eb2964be776a1fd3088857754d657f932ebba986760001b61049d565b6104fd7f49c4c4a716e06ac40705ed95a9f9754dce79e673484d7cbd843e2b02457e2eca60001b61049d565b6105297fddaef5303f4c8429c110fabaddc2ac05d1e163c674fa35149cc93a28d66e5e9760001b61049d565b600154905090565b61055d7f21ea7fcf5f9d7c31f9aaf25a69a33e54c5f3c5f66baae008885ccc3276598f7e60001b6104a0565b6105897f6a39159fbf6a6f219cb1a9d2ba1e006bf81de453f8c25b24ef0ad37212bed98b60001b6104a0565b6105b57fda72f8aff7fe2e941c3d65dafeff55469fc4e10b2cfd040c51bbee89e5b0231a60001b6104a0565b6105bd611031565b6105e97f9c459e0e3be04934ddeb1b00ad8219c43cf1b0ee5a60c5c5492412fe62e3db4860001b6104a0565b6106157f6ad393af7c78c06dbd5adc34aabb444956b70d99ca045ff16b346ee2ffcefc0160001b61049d565b6106417f693dd6b94635b0506a3a0a33cbb7a59cc99005a0dad66aa1057f2734f2dbfa1c60001b61049d565b61066d7f0a6792f9cc0a86b56c772405b67576ef9354b9255bbf3598c68b1686fa2568c660001b61049d565b610683662386f26fc10000821115610259611156565b6106af7fc7337f3f51dd338d0a31475b728cd526646062bb4baa50de870615406db900f960001b61049d565b6106db7f15c9111c68956049fcc3548028f888b6592abd21f5558c80aa4dcf90dc56a02c60001b61049d565b8060028190555061070e7f80d5d58143e1784ca4ca926e13454efd59ff488eb0fedd024a1d67f2ab265d9560001b61049d565b61073a7fed4260067feb1bf64fe6ccff4c7de0772325606df0d059bb450278c18237ea0c60001b61049d565b7f5a0b7386237e7f07fa741efc64e59c9387d2cccafec760efed4d53387f20e19a816040516107699190611f13565b60405180910390a150565b6107a07f644bd4bced3b479c154eeca48d6f4671c259c7e141fb03b50119e2191bedd28160001b610c98565b6107cc7fb2e493fbea61a28dc3a0bcbde10aee52d356393a6fc964252f51485fbcec722260001b610c98565b6107f87f609c802ad669539b39339b179e46d5684b53e48970b12ea9058dcacd32d5f2dc60001b610c98565b610800611169565b61082c7f2090c6457b1ee2a791b1d863dcf68daffba3ba180e7ef1f21e4e594e8515a6a760001b610c98565b6108587f21ea7fcf5f9d7c31f9aaf25a69a33e54c5f3c5f66baae008885ccc3276598f7e60001b6104a0565b6108847f6a39159fbf6a6f219cb1a9d2ba1e006bf81de453f8c25b24ef0ad37212bed98b60001b6104a0565b6108b07fda72f8aff7fe2e941c3d65dafeff55469fc4e10b2cfd040c51bbee89e5b0231a60001b6104a0565b6108b8611031565b6108e47f9c459e0e3be04934ddeb1b00ad8219c43cf1b0ee5a60c5c5492412fe62e3db4860001b6104a0565b6109107f153c48b9432bed6cad4680fedb58e6e3bffd743eec28787835fbb9f6f43aae7460001b61049d565b61093c7f1d50a99de1e7db501f3ef6c0268fd9ce7a2a1c26a258f2afa508ed5421f95a4960001b61049d565b6109687fd6a9221836706f6ab6e84cfbed288c6028ead7b22f62307bb4ad9231becaf0db60001b61049d565b6109788585905084849050611261565b6109a47f7fddd85bc12c9c6f740829485ccdc95869de6a23e771f108d8713f09a35509ee60001b61049d565b6109d07f6cc6a4e949c4b5b223f15033f2b1c6d540102d8f983f98feb1cb06423bafc78b60001b61049d565b60005b85859050811015610b5a57610a0a7f688625a1620b88f466de4026beff6b17c94500aae229cab283f4e4b62a81c22c60001b61049d565b610a367f50059391ac0aa0fe397425b77f7e15cec5c79fb25b229b19ff7bf771b6eb08c560001b61049d565b6000868683818110610a4457fe5b9050602002016020810190610a599190611c38565b9050610a877fad00683871c2ded88738821ece9f30b1681808977fe88378f47245ddba458fcf60001b61049d565b610ab37fb56e97149807cfa926d18bad1ea321ce2f9d5a62571857aebe152a7380351a7c60001b61049d565b6000858584818110610ac157fe5b905060200201359050610af67f147a1e92f652949a687a146a1d1f618611adcebf979350f8600b429a78094f5860001b61049d565b610b227ffa010b3a861f37ed8df7cefef86d191a9f3d981db87cccf80cba3ad1dcaedacb60001b61049d565b610b4d84828473ffffffffffffffffffffffffffffffffffffffff166112f69092919063ffffffff16565b50508060010190506109d3565b50610b877fb60a234b3cb4b1e935875de56b9fece2cdc9d0c9359a56930a7fbbfb5337116f60001b610c98565b610bb37f37a5344d8593cc0405c0415e4e47bc57677f78c6499e62b7b206fedb489e6b9260001b610c98565b610bbb611400565b5050505050565b6000610bf07f4d573133ce520db9ac8fcc17a4a109e17cde6e632ece08c89418b284bc44a67860001b6104a0565b610c1c7ff3dc7d107ec34169a12de6b8dc70021c704b1c6bfe98a174ebf6a95d17c3ffa960001b6104a0565b610c487f05423f9efef992bd3c316d35c411d077b1697419a0b4608f5649a0d610dcab4a60001b6104a0565b7f000000000000000000000000000000000000000000000000000000000000000082604051602001610c7b929190611de2565b604051602081830303815290604052805190602001209050919050565b50565b6000610cc97f6495a2ca6c07cd48e8027517dfa8e23702d2960be8370f4ced23aed1881e6b7560001b61049d565b610cf57f7f6d01c7f96c981bc79cd02a72bb965c6b0b18890544ecc16ece8fbbb462377360001b61049d565b610d217f214b5dd7e586365079a09687c58bbf7f0e340af7ed090b56616a4d9b3c03515360001b61049d565b610d2961148e565b905090565b6000610d5c7f52bf1f74730f36338faa2d217e4490c4d7901dc9555c3900b8624064abb39a6560001b61049d565b610d887f8096cd3ce9f55a36ac5122ead7ecafe27c40468eeff706177ad8c73d423ef96860001b61049d565b610db47fdc8b2849c0447b8995d7ba2da42fb154e7446ce7aa605864a93e08bc10d9c8b860001b61049d565b600254905090565b6060610dea7ff45fd7fdfb248af03517b7d702c36995360bc05d786a7bc24f4c421cf5041f2e60001b61049d565b610e167f932c363a4009e739a0fe7f322e2b625abd9f3cae252ca3dfcdd6672efecfc5ca60001b61049d565b610e427f7665f134cd4fe7d1cddd830f3f145ff13fe20a78384ed01b62139cee953b5a7860001b61049d565b815167ffffffffffffffff81118015610e5a57600080fd5b50604051908082528060200260200182016040528015610e895781602001602082028036833780820191505090505b509050610eb87f168f53ae61c27b4e8c2896f7e4cc98f94805fc73316b65ba6614f1e7cfa65f8360001b61049d565b610ee47f40f0274a5d9bcdfae33b16b21a234a46ad4c79331b234bf28ae4d69d1c6a648960001b61049d565b60005b825181101561100757610f1c7f8c530e9a4e8cc7cc9b61e853eb34178565b7b14725a9c27cf88d9b32b8814e1260001b61049d565b610f487ff2ce33ab9bfa39967e8db48bd3a0e93e8c1b0273500530cb49adecd5b2b3dc6560001b61049d565b828181518110610f5457fe5b602002602001015173ffffffffffffffffffffffffffffffffffffffff166370a08231306040518263ffffffff1660e01b8152600401610f949190611e25565b60206040518083038186803b158015610fac57600080fd5b505afa158015610fc0573d6000803e3d6000fd5b505050506040513d601f19601f82011682018060405250810190610fe49190611c8a565b828281518110610ff057fe5b602002602001018181525050806001019050610ee7565b50919050565b7f000000000000000000000000000000000000000000000000000000000000000081565b61105d7fee6b13cc663fc83397456b0aa96802fb13538819560f9edb6f8e7b741a72f53860001b6104a0565b6110897f39ab045597dcd2e91680c88e6a16c3be9c35aec35abfd0a983b97db2747a626c60001b6104a0565b6110b57fa7d629b89f18d2a342559332fb4bb334709674b097663cda4332f13762a4c77560001b6104a0565b60006110e46000357fffffffff0000000000000000000000000000000000000000000000000000000016610bc2565b90506111127f1f27bb1c2197ceb722f7da0d0716224da6e67a5388819b6d33889e0d61317ea460001b6104a0565b61113e7f7da4f63bcb1bb19803d5a6d9059f7ad5906710c0ba0b6fe17e28839a722402b160001b6104a0565b61115361114b82336115b7565b610191611156565b50565b8161116557611164816116d9565b5b5050565b6111957f9c87dc88b81e7686642aedd70d20b133dbc176c445084af25bea31a27461dd1060001b610c98565b6111c17f3f4b678c74fa9090d36668f40ba3dabb270c17224b669744008302951069813060001b610c98565b6111ed7f2c14ea0fe249be4247a994e6a1b5d0cb1474f09e41d3cba4d0ccce1d4fdf822060001b610c98565b6111ff60026000541415610190611156565b61122b7fe0ee19ca399d3acda78bf6c90366d674c7f2b95a9d4f96582447df63b512ef3260001b610c98565b6112577f977cd7bf9c3a4e751ab85a761fa5ff058fb580adbabfa64efb14616fd13d315960001b610c98565b6002600081905550565b61128d7fb3c3ab71be1e60ccf374cd9c337f5c94a091891a248ffd88815355718b38f5cf60001b611749565b6112b97f23a34501b370f017ac0b72a81570395801e215d15ea760153f3abbf09eb0167360001b611749565b6112e57ff006c498284d347b1bc1a6a27ae455ca2c77693be39b0bf5701f8175df7eb3a460001b611749565b6112f28183146067611156565b5050565b6113227f826b3c2d923005c2743ec081c6e629f85e7b09506139153a93935e6e8ecb28ab60001b61174c565b61134e7f800e347e3e58022c658f648bed4d23cb6b3af8034b0337fb821c3c5b2c80068b60001b61174c565b61137a7f40ad77c5d047e729da7f0083b41e58b8b25572e7f27c7a1ea1474ce159e69f7e60001b61174c565b6113fb8363a9059cbb60e01b8484604051602401611399929190611e40565b604051602081830303815290604052907bffffffffffffffffffffffffffffffffffffffffffffffffffffffff19166020820180517bffffffffffffffffffffffffffffffffffffffffffffffffffffffff838183161783525050505061174f565b505050565b61142c7f32952cee8e7fcc2065f616ca5c8f65b8e5fa48efb4dbe47cf2c31c3387f29a7860001b610c98565b6114587f4808d1069bf8a25610b5c3ca97ee8811ae850b9e4134a3ff1869c2a89edec52760001b610c98565b6114847fbbc531cbafb07ffd26bcf8510c8bf4233dc2b30d7c364f7c165cb4673d352af860001b610c98565b6001600081905550565b60006114bc7f8a498ace34439ad743734f441f864b4e6e18492ce2385125f5b5b3462135b7a660001b61049d565b6114e87fb7f8789e75266a9ae9febfd7ae8b13223f9423db067051d2301a867262396c6860001b61049d565b6115147fff3e0d07bf72566821a7cd6ca8a3696f6dc6880e1f52d4997682729ca9556b3860001b61049d565b7f000000000000000000000000000000000000000000000000000000000000000073ffffffffffffffffffffffffffffffffffffffff1663aaabadc56040518163ffffffff1660e01b815260040160206040518083038186803b15801561157a57600080fd5b505afa15801561158e573d6000803e3d6000fd5b505050506040513d601f19601f820116820180604052508101906115b29190611c0f565b905090565b60006115e57f6ff613c09633be6e48855039662762541f3864e91c711b559c8f84931ba8160b60001b61049d565b6116117f8a5fbf36caa5390469b9bd2288e089711988920510d07c3d1e38a39e2cd6fdfb60001b61049d565b61163d7f209fd1933e2ffbd577d09ac1678fb60c5b37e2a5c3affbacd9aee5043362e22b60001b61049d565b61164561148e565b73ffffffffffffffffffffffffffffffffffffffff16639be2a8848484306040518463ffffffff1660e01b815260040161168193929190611ea6565b60206040518083038186803b15801561169957600080fd5b505afa1580156116ad573d6000803e3d6000fd5b505050506040513d601f19601f820116820180604052508101906116d19190611b94565b905092915050565b6030600a820601600a820491506030600a830601600a830492506030600a8406018060101b8260081b8401016642414c230000000160c81b7f08c379a000000000000000000000000000000000000000000000000000000000600052602060045260076024528060445260646000fd5b50565b50565b61177b7f37a83b59fae1074b14d9f482cc90a27d1264db69cbe4cac9207e87f75c12bd4960001b61174c565b6117a77fe9e63da1694b1fea95382f8746327af340d91196254ff97512c12a96fcd5e97160001b61174c565b6117d37f897e3dad2a9a6a35640eb029e2738d7e6183eaff3f61136653368db2fd29c3f360001b61174c565b600060608373ffffffffffffffffffffffffffffffffffffffff16836040516117fc9190611e0e565b6000604051808303816000865af19150503d8060008114611839576040519150601f19603f3d011682016040523d82523d6000602084013e61183e565b606091505b509150915061186f7f78efc5d4151a293a6f454a45a34ba50a9f141b83db3fff9190727605df43933560001b61174c565b6000821415611882573d6000803e3d6000fd5b6118ae7f8c72ea9591f6650733f56067de267801b32361942ff6960b908a6a839b15555160001b61174c565b6118da7f3a0300b5edcfe17b09d299fe0a8352dfda68dbec55ec758e345ba8c70305588160001b61174c565b6119056000825114806118fd5750818060200190518101906118fc9190611b94565b5b6101a2611156565b50505050565b60008135905061191a81612103565b92915050565b60008083601f84011261193257600080fd5b8235905067ffffffffffffffff81111561194b57600080fd5b60208301915083602082028301111561196357600080fd5b9250929050565b600082601f83011261197b57600080fd5b813561198e61198982611f5b565b611f2e565b915081818352602084019350602081019050838560208402820111156119b357600080fd5b60005b838110156119e357816119c98882611a8b565b8452602084019350602083019250506001810190506119b6565b5050505092915050565b60008083601f8401126119ff57600080fd5b8235905067ffffffffffffffff811115611a1857600080fd5b602083019150836020820283011115611a3057600080fd5b9250929050565b600081519050611a468161211a565b92915050565b600081359050611a5b81612131565b92915050565b600081359050611a7081612148565b92915050565b600081519050611a858161215f565b92915050565b600081359050611a9a81612176565b92915050565b600081359050611aaf8161218d565b92915050565b600081519050611ac48161218d565b92915050565b600080600080600060608688031215611ae257600080fd5b600086013567ffffffffffffffff811115611afc57600080fd5b611b0888828901611920565b9550955050602086013567ffffffffffffffff811115611b2757600080fd5b611b33888289016119ed565b93509350506040611b468882890161190b565b9150509295509295909350565b600060208284031215611b6557600080fd5b600082013567ffffffffffffffff811115611b7f57600080fd5b611b8b8482850161196a565b91505092915050565b600060208284031215611ba657600080fd5b6000611bb484828501611a37565b91505092915050565b600060208284031215611bcf57600080fd5b6000611bdd84828501611a4c565b91505092915050565b600060208284031215611bf857600080fd5b6000611c0684828501611a61565b91505092915050565b600060208284031215611c2157600080fd5b6000611c2f84828501611a76565b91505092915050565b600060208284031215611c4a57600080fd5b6000611c5884828501611a8b565b91505092915050565b600060208284031215611c7357600080fd5b6000611c8184828501611aa0565b91505092915050565b600060208284031215611c9c57600080fd5b6000611caa84828501611ab5565b91505092915050565b6000611cbf8383611dc4565b60208301905092915050565b611cd481611fd2565b82525050565b6000611ce582611f93565b611cef8185611fb6565b9350611cfa83611f83565b8060005b83811015611d2b578151611d128882611cb3565b9750611d1d83611fa9565b925050600181019050611cfe565b5085935050505092915050565b611d4181611ff0565b82525050565b611d58611d5382611ff0565b6120ef565b82525050565b611d6f611d6a82611ffa565b6120f9565b82525050565b6000611d8082611f9e565b611d8a8185611fc7565b9350611d9a8185602086016120bc565b80840191505092915050565b611daf81612074565b82525050565b611dbe81612098565b82525050565b611dcd8161206a565b82525050565b611ddc8161206a565b82525050565b6000611dee8285611d47565b602082019150611dfe8284611d5e565b6004820191508190509392505050565b6000611e1a8284611d75565b915081905092915050565b6000602082019050611e3a6000830184611ccb565b92915050565b6000604082019050611e556000830185611ccb565b611e626020830184611dd3565b9392505050565b60006020820190508181036000830152611e838184611cda565b905092915050565b6000602082019050611ea06000830184611d38565b92915050565b6000606082019050611ebb6000830186611d38565b611ec86020830185611ccb565b611ed56040830184611ccb565b949350505050565b6000602082019050611ef26000830184611da6565b92915050565b6000602082019050611f0d6000830184611db5565b92915050565b6000602082019050611f286000830184611dd3565b92915050565b6000604051905081810181811067ffffffffffffffff82111715611f5157600080fd5b8060405250919050565b600067ffffffffffffffff821115611f7257600080fd5b602082029050602081019050919050565b6000819050602082019050919050565b600081519050919050565b600081519050919050565b6000602082019050919050565b600082825260208201905092915050565b600081905092915050565b6000611fdd8261204a565b9050919050565b60008115159050919050565b6000819050919050565b60007fffffffff0000000000000000000000000000000000000000000000000000000082169050919050565b600061203182611fd2565b9050919050565b600061204382611fd2565b9050919050565b600073ffffffffffffffffffffffffffffffffffffffff82169050919050565b6000819050919050565b600061207f82612086565b9050919050565b60006120918261204a565b9050919050565b60006120a3826120aa565b9050919050565b60006120b58261204a565b9050919050565b60005b838110156120da5780820151818401526020810190506120bf565b838111156120e9576000848401525b50505050565b6000819050919050565b6000819050919050565b61210c81611fd2565b811461211757600080fd5b50565b61212381611fe4565b811461212e57600080fd5b50565b61213a81611ff0565b811461214557600080fd5b50565b61215181611ffa565b811461215c57600080fd5b50565b61216881612026565b811461217357600080fd5b50565b61217f81612038565b811461218a57600080fd5b50565b6121968161206a565b81146121a157600080fd5b5056fea26469706673582212200e6e35586a4908ccff681588b81508bc9217d64a702559e6203fcd052b13230a64736f6c63430007010033",
  "linkReferences": {},
  "deployedLinkReferences": {}
}