{
  "_format": "hh-sol-artifact-1",
  "contractName": "Vault",
  "sourceName": "contracts/balancer-core-v2/vault/Vault.sol",
  "abi": [
    {
      "inputs": [
        {
          "internalType": "contract IAuthorizer",
          "name": "authorizer",
          "type": "address"
        },
        {
          "internalType": "contract IWETH",
          "name": "weth",
          "type": "address"
        },
        {
          "internalType": "uint256",
          "name": "pauseWindowDuration",
          "type": "uint256"
        },
        {
          "internalType": "uint256",
          "name": "bufferPeriodDuration",
          "type": "uint256"
        }
      ],
      "stateMutability": "nonpayable",
      "type": "constructor"
    },
    {
      "anonymous": false,
      "inputs": [
        {
          "indexed": true,
          "internalType": "contract IAuthorizer",
          "name": "newAuthorizer",
          "type": "address"
        }
      ],
      "name": "AuthorizerChanged",
      "type": "event"
    },
    {
      "anonymous": false,
      "inputs": [
        {
          "indexed": true,
          "internalType": "contract IERC20",
          "name": "token",
          "type": "address"
        },
        {
          "indexed": true,
          "internalType": "address",
          "name": "sender",
          "type": "address"
        },
        {
          "indexed": false,
          "internalType": "address",
          "name": "recipient",
          "type": "address"
        },
        {
          "indexed": false,
          "internalType": "uint256",
          "name": "amount",
          "type": "uint256"
        }
      ],
      "name": "ExternalBalanceTransfer",
      "type": "event"
    },
    {
      "anonymous": false,
      "inputs": [
        {
          "indexed": true,
          "internalType": "contract IFlashLoanRecipient",
          "name": "recipient",
          "type": "address"
        },
        {
          "indexed": true,
          "internalType": "contract IERC20",
          "name": "token",
          "type": "address"
        },
        {
          "indexed": false,
          "internalType": "uint256",
          "name": "amount",
          "type": "uint256"
        },
        {
          "indexed": false,
          "internalType": "uint256",
          "name": "feeAmount",
          "type": "uint256"
        }
      ],
      "name": "FlashLoan",
      "type": "event"
    },
    {
      "anonymous": false,
      "inputs": [
        {
          "indexed": true,
          "internalType": "address",
          "name": "user",
          "type": "address"
        },
        {
          "indexed": true,
          "internalType": "contract IERC20",
          "name": "token",
          "type": "address"
        },
        {
          "indexed": false,
          "internalType": "int256",
          "name": "delta",
          "type": "int256"
        }
      ],
      "name": "InternalBalanceChanged",
      "type": "event"
    },
    {
      "anonymous": false,
      "inputs": [
        {
          "indexed": false,
          "internalType": "bool",
          "name": "paused",
          "type": "bool"
        }
      ],
      "name": "PausedStateChanged",
      "type": "event"
    },
    {
      "anonymous": false,
      "inputs": [
        {
          "indexed": true,
          "internalType": "bytes32",
          "name": "poolId",
          "type": "bytes32"
        },
        {
          "indexed": true,
          "internalType": "address",
          "name": "liquidityProvider",
          "type": "address"
        },
        {
          "indexed": false,
          "internalType": "contract IERC20[]",
          "name": "tokens",
          "type": "address[]"
        },
        {
          "indexed": false,
          "internalType": "int256[]",
          "name": "deltas",
          "type": "int256[]"
        },
        {
          "indexed": false,
          "internalType": "uint256[]",
          "name": "protocolFeeAmounts",
          "type": "uint256[]"
        }
      ],
      "name": "PoolBalanceChanged",
      "type": "event"
    },
    {
      "anonymous": false,
      "inputs": [
        {
          "indexed": true,
          "internalType": "bytes32",
          "name": "poolId",
          "type": "bytes32"
        },
        {
          "indexed": true,
          "internalType": "address",
          "name": "assetManager",
          "type": "address"
        },
        {
          "indexed": true,
          "internalType": "contract IERC20",
          "name": "token",
          "type": "address"
        },
        {
          "indexed": false,
          "internalType": "int256",
          "name": "cashDelta",
          "type": "int256"
        },
        {
          "indexed": false,
          "internalType": "int256",
          "name": "managedDelta",
          "type": "int256"
        }
      ],
      "name": "PoolBalanceManaged",
      "type": "event"
    },
    {
      "anonymous": false,
      "inputs": [
        {
          "indexed": true,
          "internalType": "bytes32",
          "name": "poolId",
          "type": "bytes32"
        },
        {
          "indexed": true,
          "internalType": "address",
          "name": "poolAddress",
          "type": "address"
        },
        {
          "indexed": false,
          "internalType": "enum IVault.PoolSpecialization",
          "name": "specialization",
          "type": "uint8"
        }
      ],
      "name": "PoolRegistered",
      "type": "event"
    },
    {
      "anonymous": false,
      "inputs": [
        {
          "indexed": true,
          "internalType": "address",
          "name": "relayer",
          "type": "address"
        },
        {
          "indexed": true,
          "internalType": "address",
          "name": "sender",
          "type": "address"
        },
        {
          "indexed": false,
          "internalType": "bool",
          "name": "approved",
          "type": "bool"
        }
      ],
      "name": "RelayerApprovalChanged",
      "type": "event"
    },
    {
      "anonymous": false,
      "inputs": [
        {
          "indexed": true,
          "internalType": "bytes32",
          "name": "poolId",
          "type": "bytes32"
        },
        {
          "indexed": true,
          "internalType": "contract IERC20",
          "name": "tokenIn",
          "type": "address"
        },
        {
          "indexed": true,
          "internalType": "contract IERC20",
          "name": "tokenOut",
          "type": "address"
        },
        {
          "indexed": false,
          "internalType": "uint256",
          "name": "amountIn",
          "type": "uint256"
        },
        {
          "indexed": false,
          "internalType": "uint256",
          "name": "amountOut",
          "type": "uint256"
        }
      ],
      "name": "Swap",
      "type": "event"
    },
    {
      "anonymous": false,
      "inputs": [
        {
          "indexed": true,
          "internalType": "bytes32",
          "name": "poolId",
          "type": "bytes32"
        },
        {
          "indexed": false,
          "internalType": "contract IERC20[]",
          "name": "tokens",
          "type": "address[]"
        }
      ],
      "name": "TokensDeregistered",
      "type": "event"
    },
    {
      "anonymous": false,
      "inputs": [
        {
          "indexed": true,
          "internalType": "bytes32",
          "name": "poolId",
          "type": "bytes32"
        },
        {
          "indexed": false,
          "internalType": "contract IERC20[]",
          "name": "tokens",
          "type": "address[]"
        },
        {
          "indexed": false,
          "internalType": "address[]",
          "name": "assetManagers",
          "type": "address[]"
        }
      ],
      "name": "TokensRegistered",
      "type": "event"
    },
    {
      "inputs": [],
      "name": "WETH",
      "outputs": [
        {
          "internalType": "contract IWETH",
          "name": "",
          "type": "address"
        }
      ],
      "stateMutability": "view",
      "type": "function"
    },
    {
      "inputs": [
        {
          "internalType": "enum IVault.SwapKind",
          "name": "kind",
          "type": "uint8"
        },
        {
          "components": [
            {
              "internalType": "bytes32",
              "name": "poolId",
              "type": "bytes32"
            },
            {
              "internalType": "uint256",
              "name": "assetInIndex",
              "type": "uint256"
            },
            {
              "internalType": "uint256",
              "name": "assetOutIndex",
              "type": "uint256"
            },
            {
              "internalType": "uint256",
              "name": "amount",
              "type": "uint256"
            },
            {
              "internalType": "bytes",
              "name": "userData",
              "type": "bytes"
            }
          ],
          "internalType": "struct IVault.BatchSwapStep[]",
          "name": "swaps",
          "type": "tuple[]"
        },
        {
          "internalType": "contract IAsset[]",
          "name": "assets",
          "type": "address[]"
        },
        {
          "components": [
            {
              "internalType": "address",
              "name": "sender",
              "type": "address"
            },
            {
              "internalType": "bool",
              "name": "fromInternalBalance",
              "type": "bool"
            },
            {
              "internalType": "address payable",
              "name": "recipient",
              "type": "address"
            },
            {
              "internalType": "bool",
              "name": "toInternalBalance",
              "type": "bool"
            }
          ],
          "internalType": "struct IVault.FundManagement",
          "name": "funds",
          "type": "tuple"
        },
        {
          "internalType": "int256[]",
          "name": "limits",
          "type": "int256[]"
        },
        {
          "internalType": "uint256",
          "name": "deadline",
          "type": "uint256"
        }
      ],
      "name": "batchSwap",
      "outputs": [
        {
          "internalType": "int256[]",
          "name": "assetDeltas",
          "type": "int256[]"
        }
      ],
      "stateMutability": "payable",
      "type": "function"
    },
    {
      "inputs": [
        {
          "internalType": "bytes32",
          "name": "c__0x04981740",
          "type": "bytes32"
        }
      ],
      "name": "c_0x04981740",
      "outputs": [],
      "stateMutability": "pure",
      "type": "function"
    },
    {
      "inputs": [
        {
          "internalType": "bytes32",
          "name": "c__0x07990f2b",
          "type": "bytes32"
        }
      ],
      "name": "c_0x07990f2b",
      "outputs": [],
      "stateMutability": "pure",
      "type": "function"
    },
    {
      "inputs": [
        {
          "internalType": "bytes32",
          "name": "c__0x1affe6d1",
          "type": "bytes32"
        }
      ],
      "name": "c_0x1affe6d1",
      "outputs": [],
      "stateMutability": "pure",
      "type": "function"
    },
    {
      "inputs": [
        {
          "internalType": "bytes32",
          "name": "c__0x1c48be8f",
          "type": "bytes32"
        }
      ],
      "name": "c_0x1c48be8f",
      "outputs": [],
      "stateMutability": "pure",
      "type": "function"
    },
    {
      "inputs": [
        {
          "internalType": "bytes32",
          "name": "c__0x27d5fe29",
          "type": "bytes32"
        }
      ],
      "name": "c_0x27d5fe29",
      "outputs": [],
      "stateMutability": "pure",
      "type": "function"
    },
    {
      "inputs": [
        {
          "internalType": "bytes32",
          "name": "c__0x3bff22b0",
          "type": "bytes32"
        }
      ],
      "name": "c_0x3bff22b0",
      "outputs": [],
      "stateMutability": "pure",
      "type": "function"
    },
    {
      "inputs": [
        {
          "internalType": "bytes32",
          "name": "c__0x4860ca72",
          "type": "bytes32"
        }
      ],
      "name": "c_0x4860ca72",
      "outputs": [],
      "stateMutability": "pure",
      "type": "function"
    },
    {
      "inputs": [
        {
          "internalType": "bytes32",
          "name": "c__0x50929432",
          "type": "bytes32"
        }
      ],
      "name": "c_0x50929432",
      "outputs": [],
      "stateMutability": "pure",
      "type": "function"
    },
    {
      "inputs": [
        {
          "internalType": "bytes32",
          "name": "c__0x94780f29",
          "type": "bytes32"
        }
      ],
      "name": "c_0x94780f29",
      "outputs": [],
      "stateMutability": "pure",
      "type": "function"
    },
    {
      "inputs": [
        {
          "internalType": "bytes32",
          "name": "c__0x9e5800f1",
          "type": "bytes32"
        }
      ],
      "name": "c_0x9e5800f1",
      "outputs": [],
      "stateMutability": "pure",
      "type": "function"
    },
    {
      "inputs": [
        {
          "internalType": "bytes32",
          "name": "c__0xab61d481",
          "type": "bytes32"
        }
      ],
      "name": "c_0xab61d481",
      "outputs": [],
      "stateMutability": "pure",
      "type": "function"
    },
    {
      "inputs": [
        {
          "internalType": "bytes32",
          "name": "c__0xc00cef95",
          "type": "bytes32"
        }
      ],
      "name": "c_0xc00cef95",
      "outputs": [],
      "stateMutability": "pure",
      "type": "function"
    },
    {
      "inputs": [
        {
          "internalType": "bytes32",
          "name": "c__0xc6c1297e",
          "type": "bytes32"
        }
      ],
      "name": "c_0xc6c1297e",
      "outputs": [],
      "stateMutability": "pure",
      "type": "function"
    },
    {
      "inputs": [
        {
          "internalType": "bytes32",
          "name": "c__0xc8db837b",
          "type": "bytes32"
        }
      ],
      "name": "c_0xc8db837b",
      "outputs": [],
      "stateMutability": "pure",
      "type": "function"
    },
    {
      "inputs": [
        {
          "internalType": "bytes32",
          "name": "c__0xcddb63f5",
          "type": "bytes32"
        }
      ],
      "name": "c_0xcddb63f5",
      "outputs": [],
      "stateMutability": "pure",
      "type": "function"
    },
    {
      "inputs": [
        {
          "internalType": "bytes32",
          "name": "c__0xdfc7cb74",
          "type": "bytes32"
        }
      ],
      "name": "c_0xdfc7cb74",
      "outputs": [],
      "stateMutability": "pure",
      "type": "function"
    },
    {
      "inputs": [
        {
          "internalType": "bytes32",
          "name": "c__0xe4feceab",
          "type": "bytes32"
        }
      ],
      "name": "c_0xe4feceab",
      "outputs": [],
      "stateMutability": "pure",
      "type": "function"
    },
    {
      "inputs": [
        {
          "internalType": "bytes32",
          "name": "c__0xe68c73e0",
          "type": "bytes32"
        }
      ],
      "name": "c_0xe68c73e0",
      "outputs": [],
      "stateMutability": "pure",
      "type": "function"
    },
    {
      "inputs": [
        {
          "internalType": "bytes32",
          "name": "c__0xedebb26b",
          "type": "bytes32"
        }
      ],
      "name": "c_0xedebb26b",
      "outputs": [],
      "stateMutability": "pure",
      "type": "function"
    },
    {
      "inputs": [
        {
          "internalType": "bytes32",
          "name": "c__0xf713c778",
          "type": "bytes32"
        }
      ],
      "name": "c_0xf713c778",
      "outputs": [],
      "stateMutability": "pure",
      "type": "function"
    },
    {
      "inputs": [
        {
          "internalType": "bytes32",
          "name": "poolId",
          "type": "bytes32"
        },
        {
          "internalType": "contract IERC20[]",
          "name": "tokens",
          "type": "address[]"
        }
      ],
      "name": "deregisterTokens",
      "outputs": [],
      "stateMutability": "nonpayable",
      "type": "function"
    },
    {
      "inputs": [
        {
          "internalType": "bytes32",
          "name": "poolId",
          "type": "bytes32"
        },
        {
          "internalType": "address",
          "name": "sender",
          "type": "address"
        },
        {
          "internalType": "address payable",
          "name": "recipient",
          "type": "address"
        },
        {
          "components": [
            {
              "internalType": "contract IAsset[]",
              "name": "assets",
              "type": "address[]"
            },
            {
              "internalType": "uint256[]",
              "name": "minAmountsOut",
              "type": "uint256[]"
            },
            {
              "internalType": "bytes",
              "name": "userData",
              "type": "bytes"
            },
            {
              "internalType": "bool",
              "name": "toInternalBalance",
              "type": "bool"
            }
          ],
          "internalType": "struct IVault.ExitPoolRequest",
          "name": "request",
          "type": "tuple"
        }
      ],
      "name": "exitPool",
      "outputs": [],
      "stateMutability": "nonpayable",
      "type": "function"
    },
    {
      "inputs": [
        {
          "internalType": "contract IFlashLoanRecipient",
          "name": "recipient",
          "type": "address"
        },
        {
          "internalType": "contract IERC20[]",
          "name": "tokens",
          "type": "address[]"
        },
        {
          "internalType": "uint256[]",
          "name": "amounts",
          "type": "uint256[]"
        },
        {
          "internalType": "bytes",
          "name": "userData",
          "type": "bytes"
        }
      ],
      "name": "flashLoan",
      "outputs": [],
      "stateMutability": "nonpayable",
      "type": "function"
    },
    {
      "inputs": [
        {
          "internalType": "bytes4",
          "name": "selector",
          "type": "bytes4"
        }
      ],
      "name": "getActionId",
      "outputs": [
        {
          "internalType": "bytes32",
          "name": "",
          "type": "bytes32"
        }
      ],
      "stateMutability": "view",
      "type": "function"
    },
    {
      "inputs": [],
      "name": "getAuthorizer",
      "outputs": [
        {
          "internalType": "contract IAuthorizer",
          "name": "",
          "type": "address"
        }
      ],
      "stateMutability": "view",
      "type": "function"
    },
    {
      "inputs": [],
      "name": "getDomainSeparator",
      "outputs": [
        {
          "internalType": "bytes32",
          "name": "",
          "type": "bytes32"
        }
      ],
      "stateMutability": "view",
      "type": "function"
    },
    {
      "inputs": [
        {
          "internalType": "address",
          "name": "user",
          "type": "address"
        },
        {
          "internalType": "contract IERC20[]",
          "name": "tokens",
          "type": "address[]"
        }
      ],
      "name": "getInternalBalance",
      "outputs": [
        {
          "internalType": "uint256[]",
          "name": "balances",
          "type": "uint256[]"
        }
      ],
      "stateMutability": "view",
      "type": "function"
    },
    {
      "inputs": [
        {
          "internalType": "address",
          "name": "user",
          "type": "address"
        }
      ],
      "name": "getNextNonce",
      "outputs": [
        {
          "internalType": "uint256",
          "name": "",
          "type": "uint256"
        }
      ],
      "stateMutability": "view",
      "type": "function"
    },
    {
      "inputs": [],
      "name": "getPausedState",
      "outputs": [
        {
          "internalType": "bool",
          "name": "paused",
          "type": "bool"
        },
        {
          "internalType": "uint256",
          "name": "pauseWindowEndTime",
          "type": "uint256"
        },
        {
          "internalType": "uint256",
          "name": "bufferPeriodEndTime",
          "type": "uint256"
        }
      ],
      "stateMutability": "view",
      "type": "function"
    },
    {
      "inputs": [
        {
          "internalType": "bytes32",
          "name": "poolId",
          "type": "bytes32"
        }
      ],
      "name": "getPool",
      "outputs": [
        {
          "internalType": "address",
          "name": "",
          "type": "address"
        },
        {
          "internalType": "enum IVault.PoolSpecialization",
          "name": "",
          "type": "uint8"
        }
      ],
      "stateMutability": "view",
      "type": "function"
    },
    {
      "inputs": [
        {
          "internalType": "bytes32",
          "name": "poolId",
          "type": "bytes32"
        },
        {
          "internalType": "contract IERC20",
          "name": "token",
          "type": "address"
        }
      ],
      "name": "getPoolTokenInfo",
      "outputs": [
        {
          "internalType": "uint256",
          "name": "cash",
          "type": "uint256"
        },
        {
          "internalType": "uint256",
          "name": "managed",
          "type": "uint256"
        },
        {
          "internalType": "uint256",
          "name": "lastChangeBlock",
          "type": "uint256"
        },
        {
          "internalType": "address",
          "name": "assetManager",
          "type": "address"
        }
      ],
      "stateMutability": "view",
      "type": "function"
    },
    {
      "inputs": [
        {
          "internalType": "bytes32",
          "name": "poolId",
          "type": "bytes32"
        }
      ],
      "name": "getPoolTokens",
      "outputs": [
        {
          "internalType": "contract IERC20[]",
          "name": "tokens",
          "type": "address[]"
        },
        {
          "internalType": "uint256[]",
          "name": "balances",
          "type": "uint256[]"
        },
        {
          "internalType": "uint256",
          "name": "lastChangeBlock",
          "type": "uint256"
        }
      ],
      "stateMutability": "view",
      "type": "function"
    },
    {
      "inputs": [],
      "name": "getProtocolFeesCollector",
      "outputs": [
        {
          "internalType": "contract ProtocolFeesCollector",
          "name": "",
          "type": "address"
        }
      ],
      "stateMutability": "view",
      "type": "function"
    },
    {
      "inputs": [
        {
          "internalType": "address",
          "name": "user",
          "type": "address"
        },
        {
          "internalType": "address",
          "name": "relayer",
          "type": "address"
        }
      ],
      "name": "hasApprovedRelayer",
      "outputs": [
        {
          "internalType": "bool",
          "name": "",
          "type": "bool"
        }
      ],
      "stateMutability": "view",
      "type": "function"
    },
    {
      "inputs": [
        {
          "internalType": "bytes32",
          "name": "poolId",
          "type": "bytes32"
        },
        {
          "internalType": "address",
          "name": "sender",
          "type": "address"
        },
        {
          "internalType": "address",
          "name": "recipient",
          "type": "address"
        },
        {
          "components": [
            {
              "internalType": "contract IAsset[]",
              "name": "assets",
              "type": "address[]"
            },
            {
              "internalType": "uint256[]",
              "name": "maxAmountsIn",
              "type": "uint256[]"
            },
            {
              "internalType": "bytes",
              "name": "userData",
              "type": "bytes"
            },
            {
              "internalType": "bool",
              "name": "fromInternalBalance",
              "type": "bool"
            }
          ],
          "internalType": "struct IVault.JoinPoolRequest",
          "name": "request",
          "type": "tuple"
        }
      ],
      "name": "joinPool",
      "outputs": [],
      "stateMutability": "payable",
      "type": "function"
    },
    {
      "inputs": [
        {
          "components": [
            {
              "internalType": "enum IVault.PoolBalanceOpKind",
              "name": "kind",
              "type": "uint8"
            },
            {
              "internalType": "bytes32",
              "name": "poolId",
              "type": "bytes32"
            },
            {
              "internalType": "contract IERC20",
              "name": "token",
              "type": "address"
            },
            {
              "internalType": "uint256",
              "name": "amount",
              "type": "uint256"
            }
          ],
          "internalType": "struct IVault.PoolBalanceOp[]",
          "name": "ops",
          "type": "tuple[]"
        }
      ],
      "name": "managePoolBalance",
      "outputs": [],
      "stateMutability": "nonpayable",
      "type": "function"
    },
    {
      "inputs": [
        {
          "components": [
            {
              "internalType": "enum IVault.UserBalanceOpKind",
              "name": "kind",
              "type": "uint8"
            },
            {
              "internalType": "contract IAsset",
              "name": "asset",
              "type": "address"
            },
            {
              "internalType": "uint256",
              "name": "amount",
              "type": "uint256"
            },
            {
              "internalType": "address",
              "name": "sender",
              "type": "address"
            },
            {
              "internalType": "address payable",
              "name": "recipient",
              "type": "address"
            }
          ],
          "internalType": "struct IVault.UserBalanceOp[]",
          "name": "ops",
          "type": "tuple[]"
        }
      ],
      "name": "manageUserBalance",
      "outputs": [],
      "stateMutability": "payable",
      "type": "function"
    },
    {
      "inputs": [
        {
          "internalType": "enum IVault.SwapKind",
          "name": "kind",
          "type": "uint8"
        },
        {
          "components": [
            {
              "internalType": "bytes32",
              "name": "poolId",
              "type": "bytes32"
            },
            {
              "internalType": "uint256",
              "name": "assetInIndex",
              "type": "uint256"
            },
            {
              "internalType": "uint256",
              "name": "assetOutIndex",
              "type": "uint256"
            },
            {
              "internalType": "uint256",
              "name": "amount",
              "type": "uint256"
            },
            {
              "internalType": "bytes",
              "name": "userData",
              "type": "bytes"
            }
          ],
          "internalType": "struct IVault.BatchSwapStep[]",
          "name": "swaps",
          "type": "tuple[]"
        },
        {
          "internalType": "contract IAsset[]",
          "name": "assets",
          "type": "address[]"
        },
        {
          "components": [
            {
              "internalType": "address",
              "name": "sender",
              "type": "address"
            },
            {
              "internalType": "bool",
              "name": "fromInternalBalance",
              "type": "bool"
            },
            {
              "internalType": "address payable",
              "name": "recipient",
              "type": "address"
            },
            {
              "internalType": "bool",
              "name": "toInternalBalance",
              "type": "bool"
            }
          ],
          "internalType": "struct IVault.FundManagement",
          "name": "funds",
          "type": "tuple"
        }
      ],
      "name": "queryBatchSwap",
      "outputs": [
        {
          "internalType": "int256[]",
          "name": "",
          "type": "int256[]"
        }
      ],
      "stateMutability": "nonpayable",
      "type": "function"
    },
    {
      "inputs": [
        {
          "internalType": "enum IVault.PoolSpecialization",
          "name": "specialization",
          "type": "uint8"
        }
      ],
      "name": "registerPool",
      "outputs": [
        {
          "internalType": "bytes32",
          "name": "",
          "type": "bytes32"
        }
      ],
      "stateMutability": "nonpayable",
      "type": "function"
    },
    {
      "inputs": [
        {
          "internalType": "bytes32",
          "name": "poolId",
          "type": "bytes32"
        },
        {
          "internalType": "contract IERC20[]",
          "name": "tokens",
          "type": "address[]"
        },
        {
          "internalType": "address[]",
          "name": "assetManagers",
          "type": "address[]"
        }
      ],
      "name": "registerTokens",
      "outputs": [],
      "stateMutability": "nonpayable",
      "type": "function"
    },
    {
      "inputs": [
        {
          "internalType": "contract IAuthorizer",
          "name": "newAuthorizer",
          "type": "address"
        }
      ],
      "name": "setAuthorizer",
      "outputs": [],
      "stateMutability": "nonpayable",
      "type": "function"
    },
    {
      "inputs": [
        {
          "internalType": "bool",
          "name": "paused",
          "type": "bool"
        }
      ],
      "name": "setPaused",
      "outputs": [],
      "stateMutability": "nonpayable",
      "type": "function"
    },
    {
      "inputs": [
        {
          "internalType": "address",
          "name": "sender",
          "type": "address"
        },
        {
          "internalType": "address",
          "name": "relayer",
          "type": "address"
        },
        {
          "internalType": "bool",
          "name": "approved",
          "type": "bool"
        }
      ],
      "name": "setRelayerApproval",
      "outputs": [],
      "stateMutability": "nonpayable",
      "type": "function"
    },
    {
      "inputs": [
        {
          "components": [
            {
              "internalType": "bytes32",
              "name": "poolId",
              "type": "bytes32"
            },
            {
              "internalType": "enum IVault.SwapKind",
              "name": "kind",
              "type": "uint8"
            },
            {
              "internalType": "contract IAsset",
              "name": "assetIn",
              "type": "address"
            },
            {
              "internalType": "contract IAsset",
              "name": "assetOut",
              "type": "address"
            },
            {
              "internalType": "uint256",
              "name": "amount",
              "type": "uint256"
            },
            {
              "internalType": "bytes",
              "name": "userData",
              "type": "bytes"
            }
          ],
          "internalType": "struct IVault.SingleSwap",
          "name": "singleSwap",
          "type": "tuple"
        },
        {
          "components": [
            {
              "internalType": "address",
              "name": "sender",
              "type": "address"
            },
            {
              "internalType": "bool",
              "name": "fromInternalBalance",
              "type": "bool"
            },
            {
              "internalType": "address payable",
              "name": "recipient",
              "type": "address"
            },
            {
              "internalType": "bool",
              "name": "toInternalBalance",
              "type": "bool"
            }
          ],
          "internalType": "struct IVault.FundManagement",
          "name": "funds",
          "type": "tuple"
        },
        {
          "internalType": "uint256",
          "name": "limit",
          "type": "uint256"
        },
        {
          "internalType": "uint256",
          "name": "deadline",
          "type": "uint256"
        }
      ],
      "name": "swap",
      "outputs": [
        {
          "internalType": "uint256",
          "name": "amountCalculated",
          "type": "uint256"
        }
      ],
      "stateMutability": "payable",
      "type": "function"
    },
    {
      "stateMutability": "payable",
      "type": "receive"
    }
  ],
  "bytecode": "0x610180604052348015630000001357600080fd5b506040516300022f7b3803806300022f7b8339818101604052810190630000003d91906300000c40565b8382826040518060400160405280601181526020017f42616c616e636572205632205661756c74000000000000000000000000000000815250806040518060400160405280600181526020017f31000000000000000000000000000000000000000000000000000000000000008152503073ffffffffffffffffffffffffffffffffffffffff1660001b8963000000fe7fd42273fe9a4a03789d1d93671f589797743563c8a4b30f1b505997bf6b92deb460001b63000009a760201b60201c565b63000001347f6738e7db9f62f3d3ff4960e0fe1f3c2c4d936e8add6d1806f893a83482e751a160001b63000009a760201b60201c565b630000016a7f02717fccd054bfd137610984c96c31b4a6356b4dee268736384334ef228946cf60001b63000009a760201b60201c565b8073ffffffffffffffffffffffffffffffffffffffff1660808173ffffffffffffffffffffffffffffffffffffffff1660601b815250505063000001d87fef667aad44274382c87ac36b795bb855e7098b540783b2ed998821774e023f1660001b63000009aa60201b60201c565b630000020e7f5d21179ba4be3a1e04fdc0d5a376ef24126b4541db69c5042a4362b56f4248b960001b63000009aa60201b60201c565b63000002447f56841a5e8dda1bc46330dbef384c5db99852ebb771c99146f22fd533da19b4ba60001b63000009aa60201b60201c565b306040516300000255906300000be6565b630000026391906300000cc8565b604051809103906000f0801580156300000281573d6000803e3d6000fd5b5073ffffffffffffffffffffffffffffffffffffffff1660a08173ffffffffffffffffffffffffffffffffffffffff1660601b8152505063000002ee7fff2843873958b0423c2870a5f7407d8838736c83a05df05ee75e9a90e1dd007160001b63000009ad60201b60201c565b63000003247fef80299e9103703b3e8d99a44ee6022077e3117593f4e26770fa503e5f64a07060001b63000009ad60201b60201c565b630000035a7fdb996e6b8d2c077dc5dfa6acab236f31d64ae8d37bcfc64e5e87915b7a6d603b60001b63000009ad60201b60201c565b600160008190555063000003987fe656fc50f09b7684c34752b3ece2e281b6d08a9750095c0301d6e2383c5e37b660001b63000009b060201b60201c565b63000003ce7f4f7e861a1146d74c96da3edec5d0590759a1296b05766cad342bb6959c4c151460001b63000009b060201b60201c565b63000004047f52b72727ae090b164bf2148fae50414fc0fb516dbc3119582343db3c7d50af7c60001b63000009b060201b60201c565b8060c081815250505063000004437f42b605ad8c4e48409d07a45ae01575f0109010e501e8b5c073584d28d362cafe60001b63000009b360201b60201c565b63000004797f83ae992f89ac3d22b5c08de6e662a0aa913c874cd41a0efc0f4994d8c4de570060001b63000009b360201b60201c565b63000004af7fc4a174b8a26360ea40053551849bb6f425e3b060f612b04327821719723bcc8660001b63000009b360201b60201c565b818051906020012060e0818152505063000004f47fc26a2832f3fd57ee4b8ea5a6826ac33a1a1b798676bc5c45122e9662aeab5d2660001b63000009b360201b60201c565b630000052a7fd4fb5a4207833b83c54df15a2c96970589d99d04479e6f4ca3165c5111271ea760001b63000009b360201b60201c565b8080519060200120610100818152505063000005707fb8e8098b11bfdd787c3da2cdafe2cc6b982a589dae9ae914138ecda0b35a4a3f60001b63000009b360201b60201c565b63000005a67fb3e60e0a13ac53da78856e77763f45e4814e177529da21d9bb0dde71039bfb5360001b63000009b360201b60201c565b7f8b73c3c69bb8fe3d512ecc4cf759cc79239f7b179b0ffacaa9a75d522b39400f6101208181525050505063000006077fd0ad92fab2ec2e3b7e050d73b8e193a72cd6c7a5479e0bc3e6e62b04a8cccce260001b63000009b660201b60201c565b50630000063e7fcdc4b7966725a0b7e0fb882fd598225d9590b4866144e6f0fef2abbf022cd3fd60001b63000009b960201b60201c565b63000006747f967596f8f7a500ff720a3403b54a04d92df906e26231ac890b8a2fb26175b76860001b63000009b960201b60201c565b63000006aa7f220e9104ab71aa57643c7c71e3832b71d3e98885b5965cb82908ce4eea5bfb2b60001b63000009b960201b60201c565b63000006c66276a70083111561019463000009bc60201b60201c565b63000006fc7fd0be9f82dddb144bf718a71b45872969428bb1e178dd6736199ccad564ec8b5b60001b63000009b960201b60201c565b63000007327fb702d3e39ca2fa724be8964ed90151539fa69615acf3787c22cbea6125ff8de960001b63000009b960201b60201c565b630000074e62278d0082111561019563000009bc60201b60201c565b63000007847f30947af497197580ac7fe9d5a36f3395ccc8e0f05ad40bd1ca43afa0ba2e3c9660001b63000009b960201b60201c565b63000007ba7f66c9294cc9f2a539bf2e45a2359fd5403b096a66739ef9308702b0d225842bb560001b63000009b960201b60201c565b6000824201905063000007f77f3ffec86c8a211454649c2421858fe62d38cdc98646c61a148543da8be9f267fe60001b63000009b960201b60201c565b630000082d7f6eb5190dbb322e1bbf62c40ef77ff43209eb42ec473e696fdafd2032f063f5b260001b63000009b960201b60201c565b806101408181525050630000086c7fb3521dbf78ed8ddf85941e885e8e8c559993c36bc3f082c5ab80dd2db85b95ac60001b63000009b960201b60201c565b63000008a27ffb2f5edcd4cab9ad1417d979af508830d9a1801f736529956465596ed81dc54260001b63000009b960201b60201c565b818101610160818152505050505063000008e67fc0f9db1fb6e7e690c5b189fe868355b8ee21dc0029b09b31af624ff43d4e6ca560001b63000009db60201b60201c565b630000091c7fe5faf56c9d9e6c77058e193f100afbfbe173b02ccb8a954ae934030ce7c3abfb60001b63000009db60201b60201c565b63000009527f2d746d3a71e5da63945225c53aa65b50c9cb4c66b29b699d9ee69ae367dbfd5460001b63000009db60201b60201c565b63000009658163000009de60201b60201c565b50630000099c7f6e9279a4dd155ec588220521734abab95954b1e245eb3a5190b1bc6e164ed5bb60001b6300000b7360201b60201c565b505050506300000dd6565b50565b50565b50565b50565b50565b50565b50565b8163000009d75763000009d6816300000b7660201b60201c565b5b5050565b50565b6300000a147f3fcce2b379e5de5347dae6e686af57673f7b268dd1df778a56a8042aa4ec824e60001b63000009db60201b60201c565b6300000a4a7f6ac30b112c28a757e3eea97d8ed4a4b142747bb2f0dd2784f3c2e30888c342df60001b63000009db60201b60201c565b6300000a807f0a57c0969de2efeba2bb8bfc57f32f6ecd8faeba984e260272f38bd4386b9ec660001b63000009db60201b60201c565b8073ffffffffffffffffffffffffffffffffffffffff167f94b979b6831a51293e2641426f97747feed46f17779fed9cd18d1ecefcfe92ef60405160405180910390a26300000af97f15b138a8f1a0645f390f62bd6c2d4733d9cca7657f2cb8728c3ff25bc10a07ba60001b63000009db60201b60201c565b6300000b2f7f8d32fc6143b9d9af67a2dec371ff9c59fc3c469245b9a7fc5333925c1819d97360001b63000009db60201b60201c565b80600360016101000a81548173ffffffffffffffffffffffffffffffffffffffff021916908373ffffffffffffffffffffffffffffffffffffffff16021790555050565b50565b6030600a820601600a820491506030600a830601600a830492506030600a8406018060101b8260081b8401016642414c230000000160c81b7f08c379a000000000000000000000000000000000000000000000000000000000600052602060045260076024528060445260646000fd5b612528806300020a5383390190565b6000815190506300000c08816300000d7f565b92915050565b6000815190506300000c21816300000d9c565b92915050565b6000815190506300000c3a816300000db9565b92915050565b600080600080608085870312156300000c5857600080fd5b60006300000c6a878288016300000bf5565b94505060206300000c7f878288016300000c0e565b93505060406300000c94878288016300000c27565b92505060606300000ca9878288016300000c27565b91505092959194509250565b6300000cc2816300000d53565b82525050565b60006020820190506300000ce160008301846300000cb5565b92915050565b60006300000cf6826300000d29565b9050919050565b60006300000d0c826300000ce7565b9050919050565b60006300000d22826300000ce7565b9050919050565b600073ffffffffffffffffffffffffffffffffffffffff82169050919050565b6000819050919050565b60006300000d62826300000d69565b9050919050565b60006300000d78826300000d29565b9050919050565b6300000d8c816300000cfd565b81146300000d9957600080fd5b50565b6300000da9816300000d13565b81146300000db657600080fd5b50565b6300000dc6816300000d49565b81146300000dd357600080fd5b50565b60805160601c60a05160601c60c05160e051610100516101205161014051610160516201fc166300000e3d6000398061a07f525080619fcd52508061fc1e52508061fc6052508061fc3f52508061582e525080616f28525080610d4c52506201fc166000f3fe6080604052600436106200032b5760003560e01c8063945bcec911620001a5578063d24a694911620000f7578063ed24911d1162000097578063f94d4668116200006d578063f94d46681462000c03578063fa6e671d1462000c49578063fec90d721462000c7757620003a6565b8063ed24911d1462000b4a578063f6c009271462000b7a578063f84d066e1462000bbf57620003a6565b8063e61d5f2511620000cd578063e61d5f251462000ac0578063e6c460921462000aee578063e9083f621462000b1c57620003a6565b8063d24a69491462000a34578063d2946c2b1462000a62578063da4949941462000a9257620003a6565b8063b1d41ce81162000163578063cfcd676c1162000139578063cfcd676c14620009aa578063d00cd3ad14620009d8578063d068211b1462000a0657620003a6565b8063b1d41ce8146200092e578063b95cac28146200095c578063c15d8441146200097c57620003a6565b8063945bcec91462000823578063aaabadc51462000859578063ad5c46481462000889578063b05f8e4814620008b9578063b19c121f146200090057620003a6565b806343f4e797116200027d57806366a9c7d2116200021d578063851c1bb311620001f3578063851c1bb3146200076d5780638bdb391314620007b157806390193b7c14620007df57620003a6565b806366a9c7d214620006e35780636939fcfe14620007115780637d3aeb96146200073f57620003a6565b80634facaecf11620002535780634facaecf146200065157806352bbbe29146200067f5780635c38449e14620006b557620003a6565b806343f4e79714620005c757806346a8598014620005f55780634978ca8a146200062357620003a6565b80630e8e3e8411620002e95780631c0de05111620002bf5780631c0de0511462000539578063261c9c37146200056b578063278c3645146200059957620003a6565b80630e8e3e8414620004a75780630f5a6efa14620004c757806316c38b3c146200050b57620003a6565b8063058a628f14620003ab57806309b2760f14620003d95780630b2c5b0a146200041d5780630daf17b9146200044b5780630ddc08a5146200047957620003a6565b36620003a6576200035f7ffe2d05e75ba34cfa99588abefa17d1d255c4ae359f2fb25c3cd5ad67c9c819b760001b62000cbb565b620003a46200036d62000cbe565b73ffffffffffffffffffffffffffffffffffffffff163373ffffffffffffffffffffffffffffffffffffffff161461020662000d70565b005b600080fd5b348015620003b857600080fd5b50620003d76004803603810190620003d191906201e473565b62000d86565b005b348015620003e657600080fd5b50620004056004803603810190620003ff91906201e556565b62001008565b6040516200041491906201f101565b60405180910390f35b3480156200042a57600080fd5b506200044960048036038101906200044391906201e1ee565b62001523565b005b3480156200045857600080fd5b506200047760048036038101906200047191906201e1ee565b62001526565b005b3480156200048657600080fd5b50620004a560048036038101906200049f91906201e1ee565b62001529565b005b620004c56004803603810190620004bf91906201e0de565b6200152c565b005b348015620004d457600080fd5b50620004f36004803603810190620004ed91906201e03f565b620022ea565b6040516200050291906201f083565b60405180910390f35b3480156200051857600080fd5b506200053760048036038101906200053191906201e196565b620024d5565b005b3480156200054657600080fd5b506200055162002757565b60405162000562939291906201f0c4565b60405180910390f35b3480156200057857600080fd5b506200059760048036038101906200059191906201e1ee565b620028c8565b005b348015620005a657600080fd5b50620005c56004803603810190620005bf91906201e1ee565b620028cb565b005b348015620005d457600080fd5b50620005f36004803603810190620005ed91906201e1ee565b620028ce565b005b3480156200060257600080fd5b506200062160048036038101906200061b91906201e1ee565b620028d1565b005b3480156200063057600080fd5b506200064f60048036038101906200064991906201e1ee565b620028d4565b005b3480156200065e57600080fd5b506200067d60048036038101906200067791906201e1ee565b620028d7565b005b6200069d60048036038101906200069791906201e703565b620028da565b604051620006ac91906201f44a565b60405180910390f35b348015620006c257600080fd5b50620006e16004803603810190620006db91906201e49f565b620035db565b005b348015620006f057600080fd5b506200070f60048036038101906200070991906201e37e565b620044f2565b005b3480156200071e57600080fd5b506200073d60048036038101906200073791906201e1ee565b62004f2b565b005b3480156200074c57600080fd5b506200076b60048036038101906200076591906201e324565b62004f2e565b005b3480156200077a57600080fd5b506200079960048036038101906200079391906201e447565b620057a0565b604051620007a891906201f101565b60405180910390f35b348015620007be57600080fd5b50620007dd6004803603810190620007d791906201e21a565b6200587e565b005b348015620007ec57600080fd5b506200080b60048036038101906200080591906201df7c565b62005928565b6040516200081a91906201f44a565b60405180910390f35b6200084160048036038101906200083b91906201e620565b620059fb565b6040516200085091906201f05f565b60405180910390f35b3480156200086657600080fd5b506200087162006525565b6040516200088091906201f2ed565b60405180910390f35b3480156200089657600080fd5b50620008a1620065d9565b604051620008b091906201f30a565b60405180910390f35b348015620008c657600080fd5b50620008e56004803603810190620008df91906201e406565b62006674565b604051620008f794939291906201f494565b60405180910390f35b3480156200090d57600080fd5b506200092c60048036038101906200092691906201e1ee565b62006d1c565b005b3480156200093b57600080fd5b506200095a60048036038101906200095491906201e1ee565b62000cbb565b005b6200097a60048036038101906200097491906201e29f565b62006d1f565b005b3480156200098957600080fd5b50620009a86004803603810190620009a291906201e1ee565b62006e8b565b005b348015620009b757600080fd5b50620009d66004803603810190620009d091906201e1ee565b62006e8e565b005b348015620009e557600080fd5b5062000a046004803603810190620009fe91906201e1ee565b62006e91565b005b34801562000a1357600080fd5b5062000a32600480360381019062000a2c91906201e1ee565b62006e94565b005b34801562000a4157600080fd5b5062000a60600480360381019062000a5a91906201e1ee565b62006e97565b005b34801562000a6f57600080fd5b5062000a7a62006e9a565b60405162000a8991906201f327565b60405180910390f35b34801562000a9f57600080fd5b5062000abe600480360381019062000ab891906201e1ee565b62006f4c565b005b34801562000acd57600080fd5b5062000aec600480360381019062000ae691906201e1ee565b62006f4f565b005b34801562000afb57600080fd5b5062000b1a600480360381019062000b1491906201e099565b62006f52565b005b34801562000b2957600080fd5b5062000b48600480360381019062000b4291906201e1ee565b62007772565b005b34801562000b5757600080fd5b5062000b6262007775565b60405162000b7191906201f101565b60405180910390f35b34801562000b8757600080fd5b5062000ba6600480360381019062000ba091906201e1ee565b62007810565b60405162000bb69291906201eea0565b60405180910390f35b34801562000bcc57600080fd5b5062000beb600480360381019062000be591906201e582565b62007981565b60405162000bfa91906201f05f565b60405180910390f35b34801562000c1057600080fd5b5062000c2f600480360381019062000c2991906201e1ee565b62007cd5565b60405162000c40939291906201f014565b60405180910390f35b34801562000c5657600080fd5b5062000c75600480360381019062000c6f91906201dfe9565b62007f10565b005b34801562000c8457600080fd5b5062000ca3600480360381019062000c9d91906201dfa8565b620083a5565b60405162000cb291906201f0a7565b60405180910390f35b50565b600062000cee7f8a265b13d432173523632f8bcfab43301fe4e66466a839a49eab23a35e8e83e860001b62006d1c565b62000d1c7fb86e7d4e58e5797fc70acdf3ffafc7be31a194c68052929cb88417799298d53560001b62006d1c565b62000d4a7f8808efcb48e3fd659f7ade34ad3ded69da61a1d07c66f1bd23b08cdd7b8bebd860001b62006d1c565b7f0000000000000000000000000000000000000000000000000000000000000000905090565b8162000d825762000d818162008445565b5b5050565b62000db47f3b26cd2585fecfc21b1fe892f32e29375b0d7350ba966083e2f96f51ef43a92960001b62006e91565b62000de27f2197a5030ffc348553ffc47ccb57f9700b3053735d0a146d16497ad6fa509d5b60001b62006e91565b62000e107f382505951e9c5561f3f4877cc9803e5c3a86e88e32b803bccc41c22f60b698b260001b62006e91565b62000e1a620084b5565b62000e487ff8ce392461b76b298757224f3caaffb179af93c72c0dabff1d4ebf8cda37741260001b62006e91565b62000e767fdfcff9db5c0001a4a8ff88d7564521e5ae182f75503405aee3622d19b0e3655260001b62001529565b62000ea47f5a55fe4186df4e8e414a6f2504b3774e5852558ddbf409e09d2dd9273fbda36060001b62001529565b62000ed27f9a5d745b65ebafdc2adb226e0021e0ff4d4dfc023c8a49423a469e21ec523a7c60001b62001529565b62000edc620085b9565b62000f0a7fdf78023cab09ae4709c13c466fe04a359efc7b4a528806c19241a2b24347eed660001b62001529565b62000f387f21867600dd61e0e279eb75d530dea2c30e625c644e9e1fc5166b09fecf490b5260001b620028ce565b62000f667fb352b70650992ed76405e6d50a690a0424161429a2101d611036d978ab404ce060001b620028ce565b62000f947f84ac0c8230d07a557356bf7551f17b9612b91e2e52d7d2c46d3758deac4f8f4a60001b620028ce565b62000f9f81620086ee565b62000fcd7f0caf7107376224202848440e797a23bd53602dc240e67421095a2aa32637216160001b62006e91565b62000ffb7f034cb29cce6b6361d9c228c8807e63d7d7dd24beb68aaf203424cd5a698f286360001b62006e91565b620010056200885b565b50565b6000620010387f3b26cd2585fecfc21b1fe892f32e29375b0d7350ba966083e2f96f51ef43a92960001b62006e91565b620010667f2197a5030ffc348553ffc47ccb57f9700b3053735d0a146d16497ad6fa509d5b60001b62006e91565b620010947f382505951e9c5561f3f4877cc9803e5c3a86e88e32b803bccc41c22f60b698b260001b62006e91565b6200109e620084b5565b620010cc7ff8ce392461b76b298757224f3caaffb179af93c72c0dabff1d4ebf8cda37741260001b62006e91565b620010fa7fe43977ecc8fc383612deaa526481dd12c217dc617de9653c2d929fdaaf26417960001b62007772565b620011287f23d99ded7a08dddac8712dd43904487faa99a77a20c382b416002f037975d3e860001b62007772565b620011567f7c269407bd44c42660349a4c6a311bc95a370fcb345ea3b6070a5c5f1006dbde60001b62007772565b62001160620088ef565b6200118e7f215733b8cd9af718b2d564e08e0d1743cce1a0f8416572ea9a1f99dafc713b0260001b62007772565b620011bc7f66be39ae0e615009f7a1f736a41fd530fd11f5d004f0c1f7f1e26fb424cde88560001b62006f4c565b620011ea7fa0eed615e6e60630c745f9db5badc08ce1e35a9d217d7712082f4f56e32e45a160001b62006f4c565b620012187feb159c4e988c291cbb396366de18d5c64d4be543fce81123c4f0bd373603c20c60001b62006f4c565b600062001229338460065462008992565b9050620012597ffa313fffc1d17f877a05be067087f1924661850ece6421f27670e6d8d49213f660001b62006f4c565b620012877f5de1869d54a33482cc36014e55496d6b8a3b3d9fd2b0f9412085e09fc00d5b4060001b62006f4c565b620012b66005600083815260200190815260200160002060009054906101000a900460ff16156101f462000d70565b620012e47f97f9287955b6eea9f3c79c80ee1d1e40fec64b1210a06d1e2f4710e1834def6460001b62006f4c565b620013127f4e84dbf4d3a757eae3cd3640a899d3ced798a1443f54268cfb0d4880659d419b60001b62006f4c565b60016005600083815260200190815260200160002060006101000a81548160ff0219169083151502179055506200136c7fce292774a64221a856dffee30bfecded0865080bfb3b3175dbd646cdf7da617e60001b62006f4c565b6200139a7fa26582482fbdcea1001b335a814bb1d55266a903546f417f93499ea86aa14c9e60001b62006f4c565b6001600660008282540192505081905550620013d97f9bfac07dd74e972ad4a5b01a40a394fcb8cb34bc99c5b6474ba723aa9495a9ad60001b62006f4c565b620014077fc5c01487191f60291ef7f591073b568c5dd6e83d1eb866ccc9f14a37bd551c1160001b62006f4c565b3373ffffffffffffffffffffffffffffffffffffffff16817f3c13bc30b8e878c53fd2a36b679409c073afd75950be43d8858768e956fbc20e856040516200145091906201f344565b60405180910390a3620014867f460ba18b1ff78aec77d0156dfe994dcd56f39219cae72be0466087541c9d286e60001b62006f4c565b620014b47f92199f608749d9a91a3ca7dc3fc5226739b2defc55e734be61b1d6a26436b94a60001b62006f4c565b80915050620014e67f0caf7107376224202848440e797a23bd53602dc240e67421095a2aa32637216160001b62006e91565b620015147f034cb29cce6b6361d9c228c8807e63d7d7dd24beb68aaf203424cd5a698f286360001b62006e91565b6200151e6200885b565b919050565b50565b50565b50565b6200155a7f3b26cd2585fecfc21b1fe892f32e29375b0d7350ba966083e2f96f51ef43a92960001b62006e91565b620015887f2197a5030ffc348553ffc47ccb57f9700b3053735d0a146d16497ad6fa509d5b60001b62006e91565b620015b67f382505951e9c5561f3f4877cc9803e5c3a86e88e32b803bccc41c22f60b698b260001b62006e91565b620015c0620084b5565b620015ee7ff8ce392461b76b298757224f3caaffb179af93c72c0dabff1d4ebf8cda37741260001b62006e91565b6200161c7f4ae213fd172d951619afa7a6f18880df1687fc8e012345bfb6baa59bb7306fbe60001b62006e94565b6200164a7f3b76b38667ebe13b1594a6b141a9b8d3255faa6b4f0a332675aef96113ee8d0660001b62006e94565b620016787f3d750eb24c20c33219d2ab11e6d1cd7b0d3108c788d0c156229035511b3dc17460001b62006e94565b6000620016a87f08ea5ea7b23d8cdf80ab3fcd0bbb735112058ce09d765712b967d5518cb481a660001b62006e94565b620016d67fc3c85c669f623cf01d47113057bb922e069a41ce8f7d64ab1eaf7eee4270a7d660001b62006e94565b6000620017067fb30a93728acf70ce735b5504033c49081e0eb3cf4af60fc869c69ec928b39ed160001b62006e94565b620017347ff74e45759faf9b8449434555fe82642ce1361e4a72d760931232b51a14f8dbb160001b62006e94565b6000620017647fbd25a1b6c09c6343c9b8dc1bd4d94a4c8df4444998f122b35b7cd57ba08a9b3360001b62006e94565b620017927ff87430d3d57d35a3c5ed5a96d425fe4daadc7cb3f5be09b959f6f6c62e791d9360001b62006e94565b60005b84518110156200221657620017cd7f37c81c4c5eb6f514d04d13b44a9bb4ff3f7761b436a88a23ddd0bbe5be6dc38460001b62006e94565b620017fb7fa4a8cac44aa8252e7ed3027593fcb224403096b26005672232d1bee00acf6e3760001b62006e94565b60006200182b7fc4645a79f9d677af652e497f9ad92eb9a4b92fd25ddace90b40ad99740d0ea7560001b62006e94565b620018597fac0118ec3794bcd56049b5e2f979d714a1d903669b91b52ccb77da9ec52cce1d60001b62006e94565b6000620018897f7d74a28422c8917873570072883a82e2870923eaef81914c630f6b08454224b260001b62006e94565b620018b77fbc607d5988ca34993df3190d1dd169380ea8cba2c0193a9820aa8711f7f534a560001b62006e94565b6000620018e77f7506117d70a423e2c3eacae5706c00ab684b9f18daf84d251a3c2ebfccf0084660001b62006e94565b620019157f61c53f89994f14da6eff5d45075e5169164e100606be296031baee76a0023bfe60001b62006e94565b6000620019457f7d285521fc148d861c68394594b3f58005a0f6a462a2dbb34a8eb4f58d4abb2260001b62006e94565b620019737fb5183a54d906998fd11fde61f4bf09c5a8c9d11ed2cf207f4850e205f1405a8860001b62006e94565b6000620019a37f88c3435e6e83a8e181106781dbdd896c1a31851c3100eda7dfaffc60e4eaf6f660001b62006e94565b620019d17fa47aa55c83b4766bb8e12f4419c765e92633878c5d0566cd8c5b82918d569bb860001b62006e94565b620019f18a8781518110620019e257fe5b60200260200101518962008be9565b809d50819650829750839850849950859a5050505050505062001a377fa86f9392014c4b269534f22dbe3ce941ba3c06862a566b15981d95f305cf696c60001b62006e94565b62001a657f34f4685ad08d53fdbe8671447e66361a60100c03e5156baa5ed59c945f864c7c60001b62006e94565b6001600381111562001a7357fe5b85600381111562001a8057fe5b141562001b255762001ab57f02eca122844244ad5a502378f3380744e7adc0dc6fc4a933472ba7f97782a12660001b62006e94565b62001ae37f7c581df25709a41b22c571a05e06719fc1345ae1907ff34ed1a54f5e2448593f60001b62006e94565b62001b117fc6b554eb8e0035ea66e5c3e5aaff79231bd4e7e57d3dfe11f5798d0f2ce3ae0160001b62006e94565b62001b1f8483838662009001565b62002203565b62001b537f3edab539321ff9306a5e9fb1a5ebe4b075ba2c50f312e15b4aed557133d4b53560001b62006e94565b62001b817fd4a28d8e4f261a3e0a6979217e17e12cc3ce1381d4509314888c0803f0bcfa8760001b62006e94565b62001baf7f8e5d904e3eec437efa4f63682cfd3c190c557a21ce66c17cc2b1a87c8c00875960001b62006e94565b8662001caf5762001be37f34bfc59f6d47a2e62e92f153f2bb030d8d7b9e3b0aef8ec108d0b4082065e93460001b62006e94565b62001c117fb62ac0845c937372604c7fb1d0e9d70c78d8c95ff596400cc50ed281c3f9f58960001b62006e94565b62001c3f7fa2d806389708b811720fddc5f48a650e0b1cedcf5c1c325867b2631735bf707260001b62006e94565b62001c49620088ef565b62001c777fb6c4bc9789ebcf869e5533796262d3f0aa2b46e794f1b2c0b4c7eb85541ebc0f60001b62006e94565b62001ca57f5f2dd3fbe4bbdc037d60c6f49e5997273e803b451ffb2a87ed16d322183da45a60001b62006e94565b6001965062001cde565b62001cdd7f05027616c2a436e8ae52e23211f8befc15946b3fd657f32662270176ba880a7460001b62006e94565b5b62001d0c7f1da38c0939520c8eff9d75edd7351ef8fdfdd674a05b4debb6cb3de512ec73a460001b62006e94565b62001d3a7f770c7571b75ac43680d1e1ab516995ac259156c67111e4c892d2ca902925c59a60001b62006e94565b6000600381111562001d4857fe5b85600381111562001d5557fe5b141562001f3d5762001d8a7ffb73302cb771fc207fa26d2b29cbd368e2fddf912b5142754eea7520827810a960001b62006e94565b62001db87f16b47d07dbd575e888abf71c18db49d49f2ce2162d77df3b8a942ab33517407960001b62006e94565b62001de67fa2c0916d35a29eada18279ef0b3d4ee00a6c0909f504d7ff59e652928e29e87f60001b62006e94565b62001df48483838662009116565b62001e227ff14fe626f395ed39058c4dc0b63012becedf715ca8dc561c625babd0f65c048360001b62006e94565b62001e507f3a3cbf4593aa101807d912378a1f40be48820d0f2e06ff1f7b3e1268739fa84260001b62006e94565b62001e5b8462009228565b1562001f085762001e8f7f9601c1fa8b335ae3b1ca5233a98e15974628e45294488dd084ebd54981ff4f3660001b62006e94565b62001ebd7fa41808a86b7909a1775f6a47406912cb006730e1b7c610389576844c277893da60001b62006e94565b62001eeb7f2f4cff3d23c376d7d78029d3893c630b976152039370f17b9bdc4d7a371df13260001b62006e94565b62001f00838a620092eb90919063ffffffff16565b985062001f37565b62001f367f9339ff23768c46e0ee909344452f150feae8647506473895e6cbdbc2cc461ea160001b62006e94565b5b62002202565b62001f6b7f7618bbda2d5c9393692e1d090cd101701163aff9e1e15b0f8c44bf8ef9ae272c60001b62006e94565b62001f997f8b27ac9f86f05396669a9033bbf475a0aab987dfc4eef84380f5be37b0a229f860001b62006e94565b62001fc77fef5c77a85a0cd36c554127254cd98b10b74105809f98a1b913152c375bf1e69c60001b62006e94565b62001fe062001fd68562009228565b1561020762000d70565b6200200e7fa0884f961813a59291ce5e34432892c48b4981bc2971d4eb4f3da8b872ff66a860001b62006e94565b6200203c7f12e26b4d5c76f0363cba104368eab387de7b7cb60e8c303bb41e9e66c85f679960001b62006e94565b6000620020498562009450565b9050620020797f1dcdd45aeb5f2d74a4518bc1734c6331b42a538f9e3bd2d73baedd34c2a4b04360001b62006e94565b620020a77fe90f27d524750c073e6213e599cde1daecd841f48fb5ab0b04ef47a50573809f60001b62006e94565b60026003811115620020b557fe5b866003811115620020c257fe5b14156200216757620020f77f4a8bb19e0b5960fa148476ec7fccb5193aca21e1f305ada9c33a6065cbb7b79360001b62006e94565b620021257f6c00670ef64c0e3f3cc227af14ac97538d071ae24b14190222d690de94d5859f60001b62006e94565b620021537f3c7b471160383a9d22c14a12b909c8e16a4a9fc11e8fc6c21e742097c1f34ae960001b62006e94565b6200216181848487620094e4565b62002200565b620021957f95ebe9123f56be88be6d36c4484bf9ddc9a078910ea47192f9bee32c3910507360001b62006e94565b620021c37f917f2fb32c6cb1d51c15b61ef736a521efdb9df3d6247a492f53093d9db4f38060001b62006e94565b620021f17f663b23c7c0c724062c174508f4996080d23e5ca870e3ffe418e847d0ab3aea9a60001b62006e94565b620021ff81848487620095ed565b5b505b5b5050505050808060010191505062001795565b50620022457f18d499d7bb029e694eedd8807d9c0cade5f7cd7782a08b923db959c2b519e45f60001b62006e94565b620022737ff88002c1477d424e10cfe7ffa3606a9b5d2e08ce01150795ea0bcabf63ddcbaa60001b62006e94565b6200227e836200983a565b505050620022af7f0caf7107376224202848440e797a23bd53602dc240e67421095a2aa32637216160001b62006e91565b620022dd7f034cb29cce6b6361d9c228c8807e63d7d7dd24beb68aaf203424cd5a698f286360001b62006e91565b620022e76200885b565b50565b60606200231a7ffa5491374ade85c9f3aa2a9886d7f6af02c2c42c1af742c184cf155f41a7e99660001b62006e94565b620023487fcacce9cc58a63aa5bb429cdec7bd89d2b3ae41629f6afae33245c85b66c3ac1760001b62006e94565b620023767fc035340255c0549c2fe7aafaf16fc2fb1523c8d8dc0638c4c77c3d9589bc322c60001b62006e94565b815167ffffffffffffffff811180156200238f57600080fd5b50604051908082528060200260200182016040528015620023bf5781602001602082028036833780820191505090505b509050620023f07f752a701658b176ac6a0c13154e1e2d36c07ddc1ce68ec60fb46866a2acdeb3b960001b62006e94565b6200241e7f186f79a9bd9d60363089cfe7a35ba2c97d194ea9205877b6d450e85d49e1390560001b62006e94565b60005b8251811015620024ce57620024597ffe833c488478e3e2b2de5cd67a2ef0c087c52d652c00c6d759a96df08bf51fba60001b62006e94565b620024877fe824148fd5ef33d77db9adf2a938ec169e2389ccf131a9ca6468a4845237bd2160001b62006e94565b620024a7848483815181106200249957fe5b602002602001015162009a8c565b828281518110620024b457fe5b602002602001018181525050808060010191505062002421565b5092915050565b620025037f3b26cd2585fecfc21b1fe892f32e29375b0d7350ba966083e2f96f51ef43a92960001b62006e91565b620025317f2197a5030ffc348553ffc47ccb57f9700b3053735d0a146d16497ad6fa509d5b60001b62006e91565b6200255f7f382505951e9c5561f3f4877cc9803e5c3a86e88e32b803bccc41c22f60b698b260001b62006e91565b62002569620084b5565b620025977ff8ce392461b76b298757224f3caaffb179af93c72c0dabff1d4ebf8cda37741260001b62006e91565b620025c57fdfcff9db5c0001a4a8ff88d7564521e5ae182f75503405aee3622d19b0e3655260001b62001529565b620025f37f5a55fe4186df4e8e414a6f2504b3774e5852558ddbf409e09d2dd9273fbda36060001b62001529565b620026217f9a5d745b65ebafdc2adb226e0021e0ff4d4dfc023c8a49423a469e21ec523a7c60001b62001529565b6200262b620085b9565b620026597fdf78023cab09ae4709c13c466fe04a359efc7b4a528806c19241a2b24347eed660001b62001529565b620026877f2988faed35196830e94dd23480f8010cc8dd11f8ec4fb30830a7e69dec0095fd60001b620028c8565b620026b57f28ee06ab642e6519dbc851856a911b0f110c39ca4f4e8104392092a23b59bcb760001b620028c8565b620026e37fe75f732a73101fc47e4925afae73ae88a369be048842666675af4e09c0a491bf60001b620028c8565b620026ee8162009b9d565b6200271c7f0caf7107376224202848440e797a23bd53602dc240e67421095a2aa32637216160001b62006e91565b6200274a7f034cb29cce6b6361d9c228c8807e63d7d7dd24beb68aaf203424cd5a698f286360001b62006e91565b620027546200885b565b50565b60008060006200278a7f18cc8dc20a1ad77603273d0fb77be91955c8ad792e3d7764c49079ac9b61e0ed60001b62007772565b620027b87f76c635b6e7e47a035d1d142dac6a7335b96bc1b76c90516a0b4d4b0c8a73dc1e60001b62007772565b620027e67f64ba82495936cfc0eddf6ffc54de798f2cc9f0e74ea13078053cb63db8d2589d60001b62007772565b620027f062009e89565b159250620028217f5cd65d0e58d3ba7b6d482ad8676260457a2bdb3b3592e2e2001a9bce46b556ed60001b62007772565b6200284f7f9621e7a8975dd596a9a85caab7f65e524cadfb5dd2c5ae64f90be4b2d8018a8b60001b62007772565b6200285962009f3f565b9150620028897fcaa139029346a8a379d3422961606d3a079119372f0df216b61002fbd10d913860001b62007772565b620028b77f1110bdcce9f69a67c5a5244ee73685e2fb6cd791ff5e0041c5c0f8b16e28af7d60001b62007772565b620028c162009ff1565b9050909192565b50565b50565b50565b50565b50565b50565b60006200290a7f3b26cd2585fecfc21b1fe892f32e29375b0d7350ba966083e2f96f51ef43a92960001b62006e91565b620029387f2197a5030ffc348553ffc47ccb57f9700b3053735d0a146d16497ad6fa509d5b60001b62006e91565b620029667f382505951e9c5561f3f4877cc9803e5c3a86e88e32b803bccc41c22f60b698b260001b62006e91565b62002970620084b5565b6200299e7ff8ce392461b76b298757224f3caaffb179af93c72c0dabff1d4ebf8cda37741260001b62006e91565b620029cc7fe43977ecc8fc383612deaa526481dd12c217dc617de9653c2d929fdaaf26417960001b62007772565b620029fa7f23d99ded7a08dddac8712dd43904487faa99a77a20c382b416002f037975d3e860001b62007772565b62002a287f7c269407bd44c42660349a4c6a311bc95a370fcb345ea3b6070a5c5f1006dbde60001b62007772565b62002a32620088ef565b62002a607f215733b8cd9af718b2d564e08e0d1743cce1a0f8416572ea9a1f99dafc713b0260001b62007772565b836000015162002a937faf989619a600dd1cc02b3d94ecc00d49daf97777038412bd758ef87b53fd25e960001b620028ce565b62002ac17f2bf40434b766cb4317e0e943002c0df15add9636a1edb5efe562e6b1d8d2bfba60001b620028ce565b62002aef7f3e50832242263fbaa40c51b2ee0aa03d43190059646bc64f4dda5e3adaae135160001b620028ce565b62002afa816200a0a3565b62002b287f3e2f079b4c2d06d248f27aa1c03f553ed01daffd4243a56b19ebbad90488edb360001b620028ce565b62002b567f60d510012dcced642678ae7033e7ad6da7ab4e6325e30ce8e9a7445c73ad59f660001b62006e8e565b62002b847f4ec844a2a3d448abc21529b3dde6b7a2fc6bd1f564293776aaf1016660e7a73a60001b62006e8e565b62002bb27f42e062a9c95b4ba8a508ee7441f19aa5ccbbc74029e1261a35843fc66a988b5160001b62006e8e565b62002bc3834211156101fc62000d70565b62002bf17f0afe07bd429e99202fe1e4daf03522aaedc12f54a4723f1361dc676819c38e0f60001b62006e8e565b62002c1f7fbf944d37cc8ac319e83fb26bf51cfdf263481cdae235b0db27291bb28a3e1ea060001b62006e8e565b62002c3460008760800151116101fe62000d70565b62002c627f3798288538d46551bb7117e6bca5094c602403a7f12e3cf85f0a34185a2ed15460001b62006e8e565b62002c907f900add13d602f3264f0752ed38210e7bceaf7b5144279841a0f509088a3eb15f60001b62006e8e565b600062002ca187604001516200a367565b905062002cd17f1012f44f3f565e6c4d2397da22da151311ef492300b0b026783ea68428ec572260001b62006e8e565b62002cff7fb3e9f1e92d4597a1527c227649d8213961c2b5a7d2b053a616d04ce8d41d1f7960001b62006e8e565b600062002d1088606001516200a367565b905062002d407f9af51b68c6e7ee5114e9a9955590fd6a02147d387d2df4295a71d0b51071fe3f60001b62006e8e565b62002d6e7f7721dbee6166a2190469c92665cc2f5280c2f24a337c7912942fcb3748fed5bf60001b62006e8e565b62002dab8173ffffffffffffffffffffffffffffffffffffffff168373ffffffffffffffffffffffffffffffffffffffff1614156101fd62000d70565b62002dd97f917018d890410df59f1c60ee83fd4a7fef4ab3311f5b04d428ebdb8ad9e5804460001b62006e8e565b62002e077f88d7e422a0aa1e7292b569c532532a76198a641d8d1e28e0448a5e70a2a075c960001b62006e8e565b62002e116201d2bf565b62002e3f7f64d1a15245b0dd53540210e9b20724316aa1653365493bb420ae806713c467ae60001b62006e8e565b62002e6d7fa92f25ff62697da8a2f571213b3958a313855be007f895eef09db506d62d38c460001b62006e8e565b886000015181608001818152505062002ea97fcd84bdcf4eb496e078d278aa2983e30e2bdc9e94e772b8faed207fdee2e8894a60001b62006e8e565b62002ed77f37e445a1744b6724455947f8c83339ca883507f374fa8cf12ebf1483149880d260001b62006e8e565b88602001518160000190600181111562002eed57fe5b9081600181111562002efb57fe5b8152505062002f2d7fdb925dabeb294f4ab5e83fe8ee38aa8339a9187ea517a81a54f2d9b43437623960001b62006e8e565b62002f5b7f5ebcf29822812ebfa948544df36cfdb652e860218ef64d4b4bbb757024dacdf160001b62006e8e565b82816020019073ffffffffffffffffffffffffffffffffffffffff16908173ffffffffffffffffffffffffffffffffffffffff168152505062002fc17f42a02dbeae2cdbea8b0fbbe3052bd7709bb8bae308070c98e7494f28a85bf6d360001b62006e8e565b62002fef7f56b01560b80a1bd3471624e44ea3d0e486370b733f714827646e231785bc310160001b62006e8e565b81816040019073ffffffffffffffffffffffffffffffffffffffff16908173ffffffffffffffffffffffffffffffffffffffff1681525050620030557fc2f5b664fe394df53cc0b33c68244fd895f8cee0b19024a600b60a2439e07c6760001b62006e8e565b620030837fcb8f991c6983988a37718918aa35ab2306b59af2b833ea11ff44f2c01225277760001b62006e8e565b8860800151816060018181525050620030bf7f8ff0d1b60e48082425f69d804e261a9fffb83ce599dbfdfabfed4e8a4865e6db60001b62006e8e565b620030ed7f7b5204b403f7755dbf562a5f587211c1f08cbbac9d46ab0140da1d6024fa4dc760001b62006e8e565b8860a00151816101000181905250620031297f2fc919313c2ad2a6ccb19f7fb4f187fb10b5fab06ea0544cedab651f9a934b5460001b62006e8e565b620031577fefc8fa14573cefb7d26cc99f12a6408d71e9443dc6d8e8cc631d8d0378cbe4bb60001b62006e8e565b87600001518160c0019073ffffffffffffffffffffffffffffffffffffffff16908173ffffffffffffffffffffffffffffffffffffffff1681525050620031c17f5f34ff0707d06a18c7b4102371d9dbce3527d96943c513e8b08786b6ba5a8a3f60001b62006e8e565b620031ef7f7fb17423b83569b0228682e719cc38c3f3dd92004de0fe22c9f705be3d69be4560001b62006e8e565b87604001518160e0019073ffffffffffffffffffffffffffffffffffffffff16908173ffffffffffffffffffffffffffffffffffffffff1681525050620032597f7cc4b4a9da3bf46c9ebeaa8afe06fe65de1378a0fe5227e25f7719e3ea92aebf60001b62006e8e565b620032877ff2b19ab85fafcd651fec2afe91394c56b3417c6ee8643ae97aa30905ee97572260001b62006e8e565b6000620032b77f66b6d0729ac7ce6b507359c3c41a5f69b479329a3339c441d2e61a88d85ac44160001b62006e8e565b620032e57ffd99235783c6bb16b9051b1df4415758c89a0c04565a9dfc37a5a0c5d42ca50160001b62006e8e565b6000620033157fba5ea7e384e4bf7b42fb9134aff502760d9ed859861ab7564e68c9fb2d13403e60001b62006e8e565b620033437f3f648546b5fac92db5135e26b30401c0d6155d4f43844d19ef764a35e0994ae160001b62006e8e565b6200334e836200a426565b809350819450829950505050620033887f3a67c5796fb5b5e54ae7000a98a7b3fedf4594e9d32fc8c7a92eb967d1c513fa60001b62006e8e565b620033b67f563a1eaf3fabdf47449902b9c9601866f7fc94d124dcbedcc8d42bdbae84c24660001b62006e8e565b620033f760006001811115620033c857fe5b8c602001516001811115620033d957fe5b14620033e95789831115620033ee565b898210155b6101fb62000d70565b620034257f4156e1e668e8c8ce881ea71235e3ae723779879225b6f38e6682ed386814f28360001b62006e8e565b620034537f1ce8c3be59176cd3a50f730c34c63c17ee664a5a2f085ce0a7ff16cd265325f560001b62006e8e565b6200346d8b60400151838c600001518d602001516200a95c565b6200349b7f93aabe2b1cbbb15dac0d44dd65785d2953481d86a83d67d67fc186db59d8580160001b62006e8e565b620034c97f7a04389314e84861aff4ee7ac323429011013b8f4be31ca38f6a770c01cd382c60001b62006e8e565b620034e38b60600151828c604001518d606001516200b07c565b620035117fede289e11947ae121a0386d9e4e5c4c2b86cc85d56e2e922afd8ca135a35d84660001b62006e8e565b6200353f7f9a0271d1d0add03c7fd589bb82760b0b4ca0587400c9a4e7a777c1c3ad9afdf160001b62006e8e565b62003567620035528c6040015162009228565b6200355f57600062003561565b825b6200983a565b5050505050506200359b7f0caf7107376224202848440e797a23bd53602dc240e67421095a2aa32637216160001b62006e91565b620035c97f034cb29cce6b6361d9c228c8807e63d7d7dd24beb68aaf203424cd5a698f286360001b62006e91565b620035d36200885b565b949350505050565b620036097f3b26cd2585fecfc21b1fe892f32e29375b0d7350ba966083e2f96f51ef43a92960001b62006e91565b620036377f2197a5030ffc348553ffc47ccb57f9700b3053735d0a146d16497ad6fa509d5b60001b62006e91565b620036657f382505951e9c5561f3f4877cc9803e5c3a86e88e32b803bccc41c22f60b698b260001b62006e91565b6200366f620084b5565b6200369d7ff8ce392461b76b298757224f3caaffb179af93c72c0dabff1d4ebf8cda37741260001b62006e91565b620036cb7fe43977ecc8fc383612deaa526481dd12c217dc617de9653c2d929fdaaf26417960001b62007772565b620036f97f23d99ded7a08dddac8712dd43904487faa99a77a20c382b416002f037975d3e860001b62007772565b620037277f7c269407bd44c42660349a4c6a311bc95a370fcb345ea3b6070a5c5f1006dbde60001b62007772565b62003731620088ef565b6200375f7f215733b8cd9af718b2d564e08e0d1743cce1a0f8416572ea9a1f99dafc713b0260001b62007772565b6200378d7f4761251ce524d834ed1fc529ac98e5698bf716d4eeb6dc6738d5f88d6513e4bb60001b620028d7565b620037bb7f36eb9d894fd19eb2613a14ecb8af6c0f4a375ecd8d632c047be767fff66bdb1a60001b620028d7565b620037e97fb0a4047a2b1d72300fcd6ee55e6c950fe2dd85662f60d64631958eae0c54f5ef60001b620028d7565b620037f7835183516200b68f565b620038257f79bf518a5d945107dc4a1a5346c2f26a9b24a1f24571844cd12c2bb4a82e456260001b620028d7565b620038537fb9fd6b239e947904da00674ee7603e22b012f7aa08c1a45ee703e83ca9d8a2ca60001b620028d7565b6060835167ffffffffffffffff811180156200386e57600080fd5b506040519080825280602002602001820160405280156200389e5781602001602082028036833780820191505090505b509050620038cf7fe205b39e30df15ef13556e0a72b3cb62c7196b2376df8b8bba12fb36a26f38fa60001b620028d7565b620038fd7f0d5e99bb71027f30a635a8d1dca557d5971b01d6ababd1dac5a4556f8050d04f60001b620028d7565b6060845167ffffffffffffffff811180156200391857600080fd5b50604051908082528060200260200182016040528015620039485781602001602082028036833780820191505090505b509050620039797f358f6cff8d63cb55836b14dbc25efab720334719f1e88b252593a49fd3d7751160001b620028d7565b620039a77f5d4849a77541969024506dcec513558f819a6ed96337d01020ffd581be5b2f4e60001b620028d7565b6000620039d77f92e009f2553596c6b7b102d5a16ea1378fc5823286ac3d4b7917b5340f22ee4f60001b620028d7565b62003a057fb6d5fa42217cec5e0a9aaf1a0f8832c818ccdd74fb29f41d4f1421df5f09062d60001b620028d7565b60005b865181101562003ecc5762003a407f52f8fb4af7c6ca74bb6bccb59e49c90227ab53b1227659cad42a58cce5ce0d9460001b620028d7565b62003a6e7fb6bdd098867bc1c5db668bf72f23f73758069fb4f78ebe54e20e8e739dcd978360001b620028d7565b600087828151811062003a7d57fe5b6020026020010151905062003ab57fe9cd8d99ed5af42e1b6229d71d42b7bcd3e1135d71442a7443372c5ca008324160001b620028d7565b62003ae37f444aa1e4e4c2be9fbee0a69f1824895b066065e5b44fba5bb168fde97625bbee60001b620028d7565b600087838151811062003af257fe5b6020026020010151905062003b2a7f0bafd3a3272091b7786300e81bafdb6e698e03731b3a7449c046607f0ad7dda960001b620028d7565b62003b587f3dbcc4a49b8ed6eca9fef45f82819908c6e325b300db8ea94a2715e72be193b860001b620028d7565b62003bd18473ffffffffffffffffffffffffffffffffffffffff168373ffffffffffffffffffffffffffffffffffffffff1611600073ffffffffffffffffffffffffffffffffffffffff168473ffffffffffffffffffffffffffffffffffffffff161462003bc857606662003bcb565b60685b62000d70565b62003bff7fd9a62f46d1a6688a03519211e09746fd66e75e06693d5492bcb92028f0ac13f860001b620028d7565b62003c2d7fd4403dc3051e54ad15670dd9e23a11d8801470514621de039168a05d39e3ff2460001b620028d7565b81935062003c5e7fb28dd166238b636d22fe29a50b462d2eb4e2ef4dc832c2ef4b091a4250c1991860001b620028d7565b62003c8c7f9ac4247389a231ea48a0b6a73980469118f52dd20d58316cba57b34054a6c13560001b620028d7565b8173ffffffffffffffffffffffffffffffffffffffff166370a08231306040518263ffffffff1660e01b815260040162003cc791906201ee46565b60206040518083038186803b15801562003ce057600080fd5b505afa15801562003cf5573d6000803e3d6000fd5b505050506040513d601f19601f8201168201806040525081019062003d1b91906201e788565b85848151811062003d2857fe5b60200260200101818152505062003d627fa4dd50f00b31719429d32041fb58df289363090636af293827320126c10d8c9c60001b620028d7565b62003d907f15ac3f4491d87632d853bde05eb23ddfeb15eb93f9153b6853a9f9bce3ea49e260001b620028d7565b62003d9b816200b72c565b86848151811062003da857fe5b60200260200101818152505062003de27f4baf5b44c21f02dacc444c4854b6f73d8413b12e1faea5a094809f89f019cb3860001b620028d7565b62003e107fd8a2fbcc4c38bc918d05f027440addd04a601491e3fa54d69f152e7d468cf6a260001b620028d7565b62003e358186858151811062003e2257fe5b6020026020010151101561021062000d70565b62003e637f38e3dbeed0ac0af0b2afbf262b52d9640efe4fd1f8750e2f480032e62fee1d1460001b620028d7565b62003e917f7ea1054341cdd58a5048d09b4a8a56e89960174a118b51a1d40fee468ad2d33060001b620028d7565b62003ebe8a828473ffffffffffffffffffffffffffffffffffffffff166200b8b79092919063ffffffff16565b505080600101905062003a08565b5062003efb7fde4673f79979ed024f0ee58920adcb2d06f182755b2be820bf31a97ba89c897660001b620028d7565b62003f297f1816b1ca51cda33ad2a56b6ca4411d9511ec7c4ac634bc0cf2ce34b41dbc0e0b60001b620028d7565b8673ffffffffffffffffffffffffffffffffffffffff1663f04f2707878786886040518563ffffffff1660e01b815260040162003f6a94939291906201efab565b600060405180830381600087803b15801562003f8557600080fd5b505af115801562003f9a573d6000803e3d6000fd5b5050505062003fcc7fca57f24f1966eed4bcbfaba87d741333b024f94bd43cbcce0b467cf259aecfd960001b620028d7565b62003ffa7ff7359e252bae3b4a3837211024499146ee30afb6bde81e4aaeb67b0806a08a5460001b620028d7565b60005b86518110156200448257620040357f0ee4998c08976a09524d689930e41b18b7ed1332ac829ef2c0e177302b40e54e60001b620028d7565b620040637f848bdc82b2f43ae8cff18f63094bf48d3de71f19d5cecce77856d4ba05e8efe260001b620028d7565b60008782815181106200407257fe5b60200260200101519050620040aa7f6e49da9f03f9ea5c3b1b635de17c1c4ad0190cc2a5d213e19794f402aa88a16360001b620028d7565b620040d87fc79095fc37aa0bd423484c36d878e5a3f26307ec8de9a5ea33ac25a2db7b877f60001b620028d7565b6000848381518110620040e757fe5b602002602001015190506200411f7fd72b4fe134698ea69f0e1737fdd1aa86b647fb4170ed9693b8ec4012afba042e60001b620028d7565b6200414d7fd6b991533655774658cdf08d1d9a298f8e5a5ed3fd64a8e76cea8b0cac5720f960001b620028d7565b60008273ffffffffffffffffffffffffffffffffffffffff166370a08231306040518263ffffffff1660e01b81526004016200418a91906201ee46565b60206040518083038186803b158015620041a357600080fd5b505afa158015620041b8573d6000803e3d6000fd5b505050506040513d601f19601f82011682018060405250810190620041de91906201e788565b90506200420e7f36b786a8139eccc6ae33934ee91bb8991f94b88bda17c3812559779fabdf080060001b620028d7565b6200423c7fa6bbd7cc2963d71850dd20df8e2ff444917429164c110d4c997c139873cb2a8f60001b620028d7565b6200424d8282101561020362000d70565b6200427b7fdaab2d7d707b14ec7d62b282f4459638d4168a1000cdb2e52408c4605d933aeb60001b620028d7565b620042a97f89e279ee2e02d611da4a1684b3bee5c63f723832d20a4cfc39882bd78ede002560001b620028d7565b60008282039050620042de7fb32344b9ef60d8e03291ceb51b602264e2914cfef717a662dfc8adb212a78cd660001b620028d7565b6200430c7f5a3d0bd8456eda9b71dec0c87d3789c72bdd160fa127de7578a019fa9285af0460001b620028d7565b620043318886815181106200431d57fe5b602002602001015182101561025a62000d70565b6200435f7f33eb342ea2ed638ffd376196c34080efb82ccb5003646c3bc1ba91f2744bb0be60001b620028d7565b6200438d7fbe55608dc7dfa341aff7f59a7705009929695ce8d86332ee5fc007c20bb5552660001b620028d7565b6200439984826200b9cb565b620043c77f25abb19ae406a0495444da658f8cf2e2fba3d0340040f0dd5663acc96b594e0060001b620028d7565b620043f57fdc9a7a0cf071a1fb0cb2571b3ab080be955dd9b79fb94e35d89f669e3169472f60001b620028d7565b8373ffffffffffffffffffffffffffffffffffffffff168c73ffffffffffffffffffffffffffffffffffffffff167f0d7d75e01ab95780d3cd1c8ec0dd6c2ce19e3a20427eec8bf53283b6fb8e95f08c88815181106200445157fe5b6020026020010151846040516200446a9291906201f467565b60405180910390a35050505080600101905062003ffd565b50505050620044b47f0caf7107376224202848440e797a23bd53602dc240e67421095a2aa32637216160001b62006e91565b620044e27f034cb29cce6b6361d9c228c8807e63d7d7dd24beb68aaf203424cd5a698f286360001b62006e91565b620044ec6200885b565b50505050565b620045207f3b26cd2585fecfc21b1fe892f32e29375b0d7350ba966083e2f96f51ef43a92960001b62006e91565b6200454e7f2197a5030ffc348553ffc47ccb57f9700b3053735d0a146d16497ad6fa509d5b60001b62006e91565b6200457c7f382505951e9c5561f3f4877cc9803e5c3a86e88e32b803bccc41c22f60b698b260001b62006e91565b62004586620084b5565b620045b47ff8ce392461b76b298757224f3caaffb179af93c72c0dabff1d4ebf8cda37741260001b62006e91565b620045e27fe43977ecc8fc383612deaa526481dd12c217dc617de9653c2d929fdaaf26417960001b62007772565b620046107f23d99ded7a08dddac8712dd43904487faa99a77a20c382b416002f037975d3e860001b62007772565b6200463e7f7c269407bd44c42660349a4c6a311bc95a370fcb345ea3b6070a5c5f1006dbde60001b62007772565b62004648620088ef565b620046767f215733b8cd9af718b2d564e08e0d1743cce1a0f8416572ea9a1f99dafc713b0260001b62007772565b82620046a57facfcada6d5cbf276b3155c26858390b17892d1cc07cfd3547586dd42f9beba2560001b62006f4c565b620046d37faa12beaff8311ab7ecefdae7db34d53f4429d0433801ddc36efb3d79edb613b360001b62006f4c565b620047017f9d7501a9c421e1927eaac2ad386be0bec740392bc2878d390f20cd938ad8f81460001b62006f4c565b6200470c816200bb58565b6200473a7f7321d0fab26afe9238d915717195307a42be03a8cfdacd4753e88cdb9941367d60001b62006f4c565b620047687fdf670f20a3c954835ecb647241820111ead9765e76c9a77a5bec4c948d7c8a3d60001b620028cb565b620047967fa226a96144c1386b516429895d5596365a53e201beabb83edd49b87d866f5d6360001b620028cb565b620047c47f9f180f9b8df82e1d5ba5a50a819f0b8cf98b41eb4a40005fc3bab70aef240b6c60001b620028cb565b620047d2835183516200b68f565b620048007f0967f68c9b0a101f095a0b3cbb1ce54e8452336b2e2c81805f80db3d374d1ffc60001b620028cb565b6200482e7f686585e53dcc96afb80ca16add7e482bff09ed38b7e146a304dd3a98bcac54b660001b620028cb565b60005b835181101562004a5657620048697ff701f8269e5a70d2f88fe5d278c0881849318ead043b42de22c8fd1dc9847a9d60001b620028cb565b620048977f315dbd8407462adb213f106aff41d3c1e1dc3f891304181ebc18ea49e91353a160001b620028cb565b6000848281518110620048a657fe5b60200260200101519050620048de7fda69a80f6612d30e4cc068500d57843efef8197c58976fa4c30f425b66da351c60001b620028cb565b6200490c7f5788687c846978349de7bfac5947a0711f9bb431111a2ca9849de53aa22e725e60001b620028cb565b6200494a600073ffffffffffffffffffffffffffffffffffffffff168273ffffffffffffffffffffffffffffffffffffffff16141561013562000d70565b620049787f9644aa299fa532e95da9d019a055b433fe94213fb1c346a07b44f34177aabbbc60001b620028cb565b620049a67f81a128b04063eb5077e0ef1fa1c315990ad782105a18988efae09cf88752e08860001b620028cb565b838281518110620049b357fe5b6020026020010151600a600088815260200190815260200160002060008373ffffffffffffffffffffffffffffffffffffffff1673ffffffffffffffffffffffffffffffffffffffff16815260200190815260200160002060006101000a81548173ffffffffffffffffffffffffffffffffffffffff021916908373ffffffffffffffffffffffffffffffffffffffff1602179055505080600101905062004831565b5062004a857f68e1f31d253af02597614fb8db98613d31d6e6e186f2d8034df8ffa35e25906360001b620028cb565b62004ab37fc5c25221a0187248a9346be345a9def6733f5448745ae9f1881ca637cb0611e360001b620028cb565b600062004ac0856200bc92565b905062004af07f280352e7980308f5be38378ec3692f5cdc187d189506a704c66bf6f51336c4ff60001b620028cb565b62004b1e7f4527192476285b03e44dc1144d4308bf767b69e4f8ca0bd4f70b7e6fdd97318060001b620028cb565b60028081111562004b2b57fe5b81600281111562004b3857fe5b141562004c745762004b6d7f342107876e63817732066ab018a648aaeb37b3c0a2dc28d94214ebcb5b2e6f6e60001b620028cb565b62004b9b7f06ef1864f2d4c01a4ae967d228844d6e4feb88631cc3ea726fff779ef94f917960001b620028cb565b62004bc97f3edc1f0818158d1a9b6a8c80bd978734673d53a4b8d2fb4a15566ed0439270d960001b620028cb565b62004bdb600285511461020c62000d70565b62004c097f77f25072d8fdb50c5bc10801883f76911bf550044c4de9c819e5ffa8a7b5ab6760001b620028cb565b62004c377f0fe4834abefa0fe85e2c3598717ff7f1ac48540e42db539abd2cf4c0230f571660001b620028cb565b62004c6e858560008151811062004c4a57fe5b60200260200101518660018151811062004c6057fe5b60200260200101516200bdd2565b62004e26565b62004ca27f778c86d5c98436d388df15a8885d6f86a1827efe0f7af23a9b91d9a0153e1ccd60001b620028cb565b62004cd07ff391e69f6af4dfe878b2e634e624991a3923836fd50daf6f799831abffb5969b60001b620028cb565b6001600281111562004cde57fe5b81600281111562004ceb57fe5b141562004d8e5762004d207f5e7941f9805939d60d2ddc3b8ab3d19be396b78a3f462a85ffafe9997a673b9a60001b620028cb565b62004d4e7fd335f29152194c82d2dcfe7a4634aaeac0e2f53a0abca1f28b4adce799dedfb560001b620028cb565b62004d7c7f744f452f084b41464c98f1904389794271c77d50adc8a61ebe5b9e996c61944660001b620028cb565b62004d8885856200c201565b62004e25565b62004dbc7fb96b9f2e80145c87bb460f0cd9e59add7bbfeaeb15b78379e301b5b0c61cab1b60001b620028cb565b62004dea7f91b2ea58ebc94d3ceb0deec7e2f42f7076b1bb5b4295b87d035b5bb7d39498f760001b620028cb565b62004e187f6af1452803f00e65a2a4dc635fdec4fd5e40edbe0a7d83ba98470e90015113c460001b620028cb565b62004e2485856200c411565b5b5b62004e547fe29a5ff66ec641c57224f7f57c99bd0f6e39687bb5adbe9cba24b15112ddb32660001b620028cb565b62004e827f774d59fa3b5ae44745cebae81f5bfb725f2c73c8a8999fed0f8b07b5758b258260001b620028cb565b847ff5847d3f2197b16cdcd2098ec95d0905cd1abdaf415f07bb7cef2bba8ac5dec4858560405162004eb69291906201ef1e565b60405180910390a2505062004eee7f0caf7107376224202848440e797a23bd53602dc240e67421095a2aa32637216160001b62006e91565b62004f1c7f034cb29cce6b6361d9c228c8807e63d7d7dd24beb68aaf203424cd5a698f286360001b62006e91565b62004f266200885b565b505050565b50565b62004f5c7f3b26cd2585fecfc21b1fe892f32e29375b0d7350ba966083e2f96f51ef43a92960001b62006e91565b62004f8a7f2197a5030ffc348553ffc47ccb57f9700b3053735d0a146d16497ad6fa509d5b60001b62006e91565b62004fb87f382505951e9c5561f3f4877cc9803e5c3a86e88e32b803bccc41c22f60b698b260001b62006e91565b62004fc2620084b5565b62004ff07ff8ce392461b76b298757224f3caaffb179af93c72c0dabff1d4ebf8cda37741260001b62006e91565b6200501e7fe43977ecc8fc383612deaa526481dd12c217dc617de9653c2d929fdaaf26417960001b62007772565b6200504c7f23d99ded7a08dddac8712dd43904487faa99a77a20c382b416002f037975d3e860001b62007772565b6200507a7f7c269407bd44c42660349a4c6a311bc95a370fcb345ea3b6070a5c5f1006dbde60001b62007772565b62005084620088ef565b620050b27f215733b8cd9af718b2d564e08e0d1743cce1a0f8416572ea9a1f99dafc713b0260001b62007772565b81620050e17facfcada6d5cbf276b3155c26858390b17892d1cc07cfd3547586dd42f9beba2560001b62006f4c565b6200510f7faa12beaff8311ab7ecefdae7db34d53f4429d0433801ddc36efb3d79edb613b360001b62006f4c565b6200513d7f9d7501a9c421e1927eaac2ad386be0bec740392bc2878d390f20cd938ad8f81460001b62006f4c565b62005148816200bb58565b620051767f7321d0fab26afe9238d915717195307a42be03a8cfdacd4753e88cdb9941367d60001b62006f4c565b620051a47fddea7262c294d3e626293f75ebed175f3277c6853bee89e71ef8e81f8b0776fb60001b620028cb565b620051d27f5885f71c76a06e451d689daa4e28adf207370b4bf5cb060cdae80e5fd7ff328060001b620028cb565b620052007fa0147ad04f5ed9ec830f243594f208880064cbc97df8b5b233150fcb7e5d25e260001b620028cb565b60006200520d846200bc92565b90506200523d7fe0ad0ff1614a50a20cce6f47855e86ee00d889056d2187dff02839a09fc259a060001b620028cb565b6200526b7f5d6336ad46d5b25427cce10e6a105acf178cc0b337c2dceed76e97fff529fde960001b620028cb565b6002808111156200527857fe5b8160028111156200528557fe5b1415620053c157620052ba7f82da64f6a676873f6387bf50be0ec478ec09cf0baf7aaf759dfe13be2fffb52a60001b620028cb565b620052e87fa3964566f1b5f312466a6ff14fd806a5c14a773aaa43ba1071c294c0e07fb35b60001b620028cb565b620053167f8747ecb572ad3bff77a029ba450f4ca28aabafbe00c7727e151a72f643be707f60001b620028cb565b62005328600284511461020c62000d70565b620053567fb4b2a3ef56f764ea400a32e4f2fb5384d09e2bbdba71065b2c839041fb5135aa60001b620028cb565b620053847f732618dc3b2eb0e1def783fa1640272aa65999d64cf06a42ede51b7d992c28e660001b620028cb565b620053bb84846000815181106200539757fe5b602002602001015185600181518110620053ad57fe5b60200260200101516200c626565b62005573565b620053ef7f8015eaca5b16418a4bc4af9b73440e4298874030727bc1f23b3b6bee8ab4ac3560001b620028cb565b6200541d7f1a6283fec682af19b0a5ba99ec8392168a2e06c23f3020a41274d981730ec47d60001b620028cb565b600160028111156200542b57fe5b8160028111156200543857fe5b1415620054db576200546d7f83004cafdb7143698e0cdb5dc55b0ce133902a3e01525ac03311160ea479786d60001b620028cb565b6200549b7f04e559328841c694864c13c4c67f67559d38f208cbf4b45854085087dbcdd0b560001b620028cb565b620054c97f650b324b60f97ed1ef8dcb91f8ca752bf29c9d5ea3905fd0085ae0e4e12086b160001b620028cb565b620054d584846200c820565b62005572565b620055097f69ea6bf482c6a57dfd65735ba09e33e43a55409ea41b01589c825a7748922a2860001b620028cb565b620055377f45d8b2980f424fefda926c4d900a9e06726817f62b0564999ab7e2f4f0948caf60001b620028cb565b620055657fe55db82d4adb462fd02f03dec89dca668dccff754858ebb01ec8ac4b8e8941c660001b620028cb565b6200557184846200cbd8565b5b5b620055a17f9e080e1d7efba13888661ced05425306bae58d20fe0fb5dc8df4d0fd33db378460001b620028cb565b620055cf7f3f63a0b20f568d72d943dea19d9b63dc352cb062a3993cd8fa57da66adc878a860001b620028cb565b60005b83518110156200569d576200560a7f7c31b09ed6f2ec5d836ef1d62c6b44176669c409262629e2b36b19ffb92552a760001b620028cb565b600a600086815260200190815260200160002060008583815181106200562c57fe5b602002602001015173ffffffffffffffffffffffffffffffffffffffff1673ffffffffffffffffffffffffffffffffffffffff16815260200190815260200160002060006101000a81549073ffffffffffffffffffffffffffffffffffffffff0219169055806001019050620055d2565b50620056cc7fa00401400858d6deed16af241a59facf5ee38efa04bf46e6670d70e12da697b260001b620028cb565b620056fa7f0dc4d60920dfaef2a3276f99ab2e3eb75b848fc5ce197b764a951ade2986ffd660001b620028cb565b837f7dcdc6d02ef40c7c1a7046a011b058bd7f988fa14e20a66344f9d4e60657d610846040516200572c91906201eefa565b60405180910390a25050620057647f0caf7107376224202848440e797a23bd53602dc240e67421095a2aa32637216160001b62006e91565b620057927f034cb29cce6b6361d9c228c8807e63d7d7dd24beb68aaf203424cd5a698f286360001b62006e91565b6200579c6200885b565b5050565b6000620057d07f5b6d744b9984ca0f940181ee5e7f3f9141a56799465d611578a724e75da3f27360001b62001529565b620057fe7fccd34a442ea9189944d6242d7d944d51762e07badd0e467c1d9ef323954e783260001b62001529565b6200582c7f9b5e1c3ba3409b07d3693e410c8f9054dc20b55c829e32dae29721db02bf3ba160001b62001529565b7f000000000000000000000000000000000000000000000000000000000000000082604051602001620058619291906201ed5e565b604051602081830303815290604052805190602001209050919050565b620058ac7f7d88da9e4613428380e4851618cd76aa7cfd42af64c8efbe85d21af590fc4b1060001b62001523565b620058da7fbd3b3b5e305eb707eda92981e2c031cad7cecf5686345aea2e750842913308b760001b62001523565b620059087f12ebef0aa06002a2f9f5305a43b570110de798fbc60058c71b5620cffda30f3d60001b62001523565b6200592260018585856200591c866200cebd565b6200cf2b565b50505050565b6000620059587fc842d92d997ef4a0d4af4963082dd4087788df0b835eb4307ce049ba6526f54a60001b620028d1565b620059867f311a853d6201e81a6f369d940c8c37b0c82aa3a1e8406ac8a0a5c5fd1718b49960001b620028d1565b620059b47f6945fbc26c6fc30a1b09ce36b53df4a8702534eb7653bf6acc42419697361c8960001b620028d1565b600260008373ffffffffffffffffffffffffffffffffffffffff1673ffffffffffffffffffffffffffffffffffffffff168152602001908152602001600020549050919050565b606062005a2b7f3b26cd2585fecfc21b1fe892f32e29375b0d7350ba966083e2f96f51ef43a92960001b62006e91565b62005a597f2197a5030ffc348553ffc47ccb57f9700b3053735d0a146d16497ad6fa509d5b60001b62006e91565b62005a877f382505951e9c5561f3f4877cc9803e5c3a86e88e32b803bccc41c22f60b698b260001b62006e91565b62005a91620084b5565b62005abf7ff8ce392461b76b298757224f3caaffb179af93c72c0dabff1d4ebf8cda37741260001b62006e91565b62005aed7fe43977ecc8fc383612deaa526481dd12c217dc617de9653c2d929fdaaf26417960001b62007772565b62005b1b7f23d99ded7a08dddac8712dd43904487faa99a77a20c382b416002f037975d3e860001b62007772565b62005b497f7c269407bd44c42660349a4c6a311bc95a370fcb345ea3b6070a5c5f1006dbde60001b62007772565b62005b53620088ef565b62005b817f215733b8cd9af718b2d564e08e0d1743cce1a0f8416572ea9a1f99dafc713b0260001b62007772565b836000015162005bb47faf989619a600dd1cc02b3d94ecc00d49daf97777038412bd758ef87b53fd25e960001b620028ce565b62005be27f2bf40434b766cb4317e0e943002c0df15add9636a1edb5efe562e6b1d8d2bfba60001b620028ce565b62005c107f3e50832242263fbaa40c51b2ee0aa03d43190059646bc64f4dda5e3adaae135160001b620028ce565b62005c1b816200a0a3565b62005c497f3e2f079b4c2d06d248f27aa1c03f553ed01daffd4243a56b19ebbad90488edb360001b620028ce565b62005c777f9843a24dee123baa9e09281bdcb6a1d6dca207e348060ae817c63ff2ea6e103660001b62006e8e565b62005ca57f50faed437adf3d590d03ab05a1c0578bbd127d4d1bf779d520b54f3a70eb6b0160001b62006e8e565b62005cd37fd1d2d16f97c5bf76b41fc6417c4713357d013d036a863eb2a624aa875d00ee1960001b62006e8e565b62005ce4834211156101fc62000d70565b62005d127faaffb2b2afe1f3fe10a75a0546ecc7eb559e71b9d18df8d3c5506154a5750f3460001b62006e8e565b62005d407f5d9856605c8d8ef1f52b01df9f4f47563c823da82ee1d8574b3cd5074c46dc7b60001b62006e8e565b62005d4e865185516200b68f565b62005d7c7f44c1edca929ca03455f48e427702be84f3810a7a5933da5b754f4749a788f33160001b62006e8e565b62005daa7f1f2822da5db21e71523dcf3ba43cc1a8c7e4ed12dc518d9ab23efca6be30078360001b62006e8e565b62005db88787878b6200d8a1565b915062005de87f6a90f35cc9d902904ee0397c6dc2ec426c388d0c6c5e66408206410d889f3b9260001b62006e8e565b62005e167f0d1f6882f97601d32aa44c1bf37686d0fc58056412189157769ab16a348073f660001b62006e8e565b600062005e467f237b76ac09a6e485e2bf4de490d4bffdf8000195ee0327a87ff1576678e13f0060001b62006e8e565b62005e747f9014dbab00a815d88696a33105f8f00ce8fb7d96b1d879475464b09e2aad590560001b62006e8e565b60005b87518110156200644b5762005eaf7f34cd0696c301729c6b083ab7c4b20fca3da142fef284895d1d32b7c39bbeb19b60001b62006e8e565b62005edd7f083bbf11b69987359219b398af7012e6d028e1cff410f9409dfd1358a7ffc01d60001b62006e8e565b600088828151811062005eec57fe5b6020026020010151905062005f247f96e3bb3ad5e129340d5a490046e5ace32b7f8e4f2206b2d9767cc75b9f8c49a860001b62006e8e565b62005f527fe98d993a6ac1c02f7dd29e317d4a4c2a825b3fa2a1059c1a6874badab5eddf2b60001b62006e8e565b600085838151811062005f6157fe5b6020026020010151905062005f997f88cbd340f4926bdd8e1da6390750b6699f4fff79be50b965f6be705a3bbfe2ad60001b62006e8e565b62005fc77fbf3473dd1b0461a5f528596f4481267b8f31ce79661addb1ff219b878f1061e260001b62006e8e565b62005fec88848151811062005fd857fe5b60200260200101518213156101fb62000d70565b6200601a7f89ff9d5278155b27556f6ba1c121de1458df76687d408ef97485aca844244c2260001b62006e8e565b620060487f3ff49fca88c5697ba9f2e690712ea7b6e77a21a4c4012a1ed4a015869458e50f60001b62006e8e565b60008113156200629c57620060807f5f44d8230fea69204457b9c660852205702b2723a7828ca635904b7f42ffda0960001b62006e8e565b620060ae7fe72f078130838b8cc1265f604a63a5251c8705d4ea386bd266c0fb14c406d6c360001b62006e8e565b620060dc7fe69fd184ba07dbabffde15176a8062625ffd96ab38884401de753aa59df25a6b60001b62006e8e565b60008190506200610e7e2c74f0ddea0b41223d0bf1ec38360ba11b7c2f25e48db298bc35093b45cb9160001b62006e8e565b6200613c7f3e41bd7144d62c76451d5d99952a47d8c7b0ad82ed449c667df65e0dfe677b1b60001b62006e8e565b6200615283828c600001518d602001516200a95c565b620061807fb442d2408300dff741683540bfcd397a00f2690b1928de63b7ca39f0d2ade05e60001b62006e8e565b620061ae7fd322be30fa4ce5b49400ab0daf8a87ace303338a815d95d779b372cc824afde660001b62006e8e565b620061b98362009228565b156200626657620061ed7f612b1f744af9a61f0bd5c230470db1798a5249988b873b754df573c813412f8f60001b62006e8e565b6200621b7f3e4186a32cd21ee3d47e6e9d3cfbcd93b20fef49f5f351c414b515fbd459cfef60001b62006e8e565b620062497f38817b703da1bd98286ad0ee0a7d3f6e9b764495f11ebf5f6a7496fa62dedec160001b62006e8e565b6200625e8186620092eb90919063ffffffff16565b945062006295565b620062947f6517e5d088e11a2c7f7b549cb2b635f1c84691f0a1f0eb391594121184b5346960001b62006e8e565b5b506200643d565b620062ca7f65812361c680a6b4f90aba00e0605fef55650aa2fd240e4bd2d9fec1e4c5712f60001b62006e8e565b620062f87f70e6415c56f8a3377baedd6afed0a40c59119fddbd15a79ffda1bb603932887c60001b62006e8e565b60008112156200640d57620063307fa70de6ffe41490ea5f510f510ea9a13e0badbfb6291f108fa561bbc9f2299f2760001b62006e8e565b6200635e7fd6882b4a29273ed05a32743f3bebc6b52c2abb35b392cb683e5db0835f9e249e60001b62006e8e565b6200638c7f97816a7c2943ed9042accec195c0b0e2458f5fb35a38d043a2802b0b957f74d860001b62006e8e565b6000816000039050620063c27f4d7bb2b2606f5c88652a99828e3d1c7dfba17fe3e0378cb05418bcddffd5476660001b62006e8e565b620063f07fd43d4d23f9e77ad95a38d37b83a20fe66ce559c21929ae8a7101a2528cfef87560001b62006e8e565b6200640683828c604001518d606001516200b07c565b506200643c565b6200643b7fe3a419b2306a2d386226feae76dadab79b25ce4d768fb54426ece348da8086a460001b62006e8e565b5b5b505080600101905062005e77565b506200647a7f98a52dbad3557d55734b77747dd6217dfcd238412a83cb8af1748d5a60fbf81c60001b62006e8e565b620064a87f4a40ac2f1da5aa814abadf4ef04bb2d47698b2e610bd39a047cc26bc121723ac60001b62006e8e565b620064b3816200983a565b5050620064e37f0caf7107376224202848440e797a23bd53602dc240e67421095a2aa32637216160001b62006e91565b620065117f034cb29cce6b6361d9c228c8807e63d7d7dd24beb68aaf203424cd5a698f286360001b62006e91565b6200651b6200885b565b9695505050505050565b6000620065557f2ad66f527e23eb5a2ec97829517e282dd510abe526c872e488c1e57ca6f7211960001b620028ce565b620065837fe3e790847aa065f67d4d1a7b1fe59a6fdb3d2b67a7bec4efc5055f1687ad30ed60001b620028ce565b620065b17f4a6a41686718f8042ecc54f89b30e2c222c31dc64345f5b5729079f397cd0d7560001b620028ce565b600360019054906101000a900473ffffffffffffffffffffffffffffffffffffffff16905090565b6000620066097fca27f11e071652e4e44a5b0162b4372c064b9bff17c419eed1bdde91a77b77e460001b620028c8565b620066377fb58820f4caade15c60b4948ec813697595d4bb262572c82a713736b9e6edebed60001b620028c8565b620066657f96ec0262fd61cfbb3477c801177aeca9d895554c42b2181cc1265b83764ad4bc60001b620028c8565b6200666f62000cbe565b905090565b60008060008085620066a97f1d667439cf45d593762fcf5127a27cac4ee5fc23b94e83f2135def5abccaeb0860001b62006f4c565b620066d77fd5799405d570894a1fb977e4d4cb3e7870d5991694125e790f14a34bb4d9803060001b62006f4c565b620067057fa1b35acc9d01eea438e0ed7de234245b6c2cb4c92be287f03a287efb249d714460001b62006f4c565b62006710816200e832565b6200673e7f2f1b797cbc70ccf66442f70b141404640b6b23a9da66320efde7b657b98ca8a460001b62006f4c565b6200676c7f83027dd5bdd01ce1a8ff022608d4d1944cb8ffa495b2847e18a743269d6a938a60001b620028cb565b6200679a7fcc2b3574fb9ac4970f9888a202a20d571273a37f5b36476d0ec7b42145fddacf60001b620028cb565b620067c87f632892e946fc9ca81ef5f69b8cf665f8f2af3b6b2d8428e1e83ee02f7ca1382e60001b620028cb565b6000620067f87f7afb1e37cacbb16a26c69e18ec2b94aa848a248709d1e63f43e7cf3f3fc540a660001b620028cb565b620068267fa84490f34a87d85477ce94169388cde96fb8eb0f76f9c4fb561fc19d535cd13660001b620028cb565b600062006833896200bc92565b9050620068637fc3697e76a5319edec2898f0a6f3f2f8297df527699d1edf6f1b09c797189270d60001b620028cb565b620068917f7eaf8f1fb5c3b6f9a59a722a07b7d2087bcee004a2310158f31c9f3b8fc8012560001b620028cb565b6002808111156200689e57fe5b816002811115620068ab57fe5b14156200695057620068e07fee7c7fa5c4ae3cba2648ef36bacb8cb8dcc621041d39f453eba934551ae5e34960001b620028cb565b6200690e7ff78bc2873ca1157af419aa199593ef1ffdffcab27429ff6d0a8d648317c8051f60001b620028cb565b6200693c7fd479cee12273312f1a7e9b0585e937eef6b021256bee79c4105eb97aae9dff5960001b620028cb565b6200694889896200e8ed565b915062006b06565b6200697e7f4ddb06a51ccfe1a0cf8b4622bf6983451a6bd4a7f2aa4eed670010f4a1919b1460001b620028cb565b620069ac7fd424f6bdfcf96052886e0c7897252f9cc65f57500048b396309c460c2be5bb0660001b620028cb565b60016002811115620069ba57fe5b816002811115620069c757fe5b141562006a6c57620069fc7f77696113429e04c12f8b68be7243c53d68bbb03630fce591699e8ee4c62a41fa60001b620028cb565b62006a2a7fa81265fdb2a582e374ac47d047146ff1fef4b695cf744356db62d01b99195aca60001b620028cb565b62006a587fa8ef16ea9b712df7f73674dea352f59a85930d8a7d6d075947dc130f9945e9d660001b620028cb565b62006a6489896200ec85565b915062006b05565b62006a9a7ff02f0bdfeb5cee497bef49ddd828f428dcf07765b40101d7b63dbbc4dc1bce4260001b620028cb565b62006ac87f21029985b896db2e0743687c7e0fc6e00331fa09e05c758b660dddee5c64a15160001b620028cb565b62006af67f9d157871fbc9c42161cb9d5e19cb79987da11760795d1891b92d2ec2c64870d160001b620028cb565b62006b0289896200effc565b91505b5b62006b347fc94ef51dfd4a619390df47d99bca3fd2c76d80dc8e46cf038f84ba8e0fde5def60001b620028cb565b62006b627fc09d2d9aeeeed03e1a787862729de3ef991cd1f5565ab3350efda3635924645260001b620028cb565b62006b6d826200f110565b965062006b9d7f3fd575564e3d7497c1479c3cc5568289b3592f0e75f485e50cf2c8e303ce1ab560001b620028cb565b62006bcb7fe170b5983c93639f868479b2ff99679ef5e8e645e1325568924c084bb447c10760001b620028cb565b62006bd6826200f219565b955062006c067f0dacbe381e17bfe7e0e13cf25007cd53ec0e34cc10e22ed548c70bec90e3e4c560001b620028cb565b62006c347fc29ab5af7b1d1280b06cf1c01922cf2efb553ba401ac4b0f86c98fc42acfeb8d60001b620028cb565b62006c3f826200f326565b945062006c6f7f7f6b99b6cba9c655f2930da574e0a784b3b91bd04196a6305d793ac738053b3260001b620028cb565b62006c9d7f996d8b04b1bdeaf8f0ff482e09afcdf105096059ee1dc144f71a2b9e7f7869c160001b620028cb565b600a60008a815260200190815260200160002060008973ffffffffffffffffffffffffffffffffffffffff1673ffffffffffffffffffffffffffffffffffffffff16815260200190815260200160002060009054906101000a900473ffffffffffffffffffffffffffffffffffffffff16935050505092959194509250565b50565b62006d4d7fe43977ecc8fc383612deaa526481dd12c217dc617de9653c2d929fdaaf26417960001b62007772565b62006d7b7f23d99ded7a08dddac8712dd43904487faa99a77a20c382b416002f037975d3e860001b62007772565b62006da97f7c269407bd44c42660349a4c6a311bc95a370fcb345ea3b6070a5c5f1006dbde60001b62007772565b62006db3620088ef565b62006de17f215733b8cd9af718b2d564e08e0d1743cce1a0f8416572ea9a1f99dafc713b0260001b62007772565b62006e0f7f550ad3147062e780e13e3f60f7f196dc2f8f0a02c581ca70efa4a57f4c6aa48d60001b62001523565b62006e3d7ffc22d27fbfb25fd555c6decfabaf8a1ec569b247e4641dec157b39340700c9a660001b62001523565b62006e6b7ffddf8d260916eac2d5ff74027b0b99ba8f57a183ecaa7c011815a5911941ca3360001b62001523565b62006e85600085858562006e7f866200f429565b6200cf2b565b50505050565b50565b50565b50565b50565b50565b600062006eca7f25740346fee294ee0ddb9c91dd5e6cf33f34d9f119946e265719ec56cb31838660001b62006e8b565b62006ef87f275cd53059bbb58ea3cf8cf2ba930ad0766e286c82d114fedec42a1038a3afe760001b62006e8b565b62006f267fa8cbfbca52b50aaa49c020bfbba9b3afe7c278ddf3ffbb0a287d0cb1bd0a3baa60001b62006e8b565b7f0000000000000000000000000000000000000000000000000000000000000000905090565b50565b50565b62006f807f3b26cd2585fecfc21b1fe892f32e29375b0d7350ba966083e2f96f51ef43a92960001b62006e91565b62006fae7f2197a5030ffc348553ffc47ccb57f9700b3053735d0a146d16497ad6fa509d5b60001b62006e91565b62006fdc7f382505951e9c5561f3f4877cc9803e5c3a86e88e32b803bccc41c22f60b698b260001b62006e91565b62006fe6620084b5565b620070147ff8ce392461b76b298757224f3caaffb179af93c72c0dabff1d4ebf8cda37741260001b62006e91565b620070427fe43977ecc8fc383612deaa526481dd12c217dc617de9653c2d929fdaaf26417960001b62007772565b620070707f23d99ded7a08dddac8712dd43904487faa99a77a20c382b416002f037975d3e860001b62007772565b6200709e7f7c269407bd44c42660349a4c6a311bc95a370fcb345ea3b6070a5c5f1006dbde60001b62007772565b620070a8620088ef565b620070d67f215733b8cd9af718b2d564e08e0d1743cce1a0f8416572ea9a1f99dafc713b0260001b62007772565b620071047fb2bfefd7db4f97975b55cd9bc754b6e973610d247cdf84058679df24b33729ef60001b62006f4f565b620071327fdd0e2ee8984a243030f676d46ba1076388eb84ba955a305d0c269a21b8700bcb60001b62006f4f565b620071607f7ed73ae6c1b92f046cf6f12b7468c6b25c8d4c8f4ca95df61900a52418a2ee0f60001b62006f4f565b6200716a6201d372565b620071987f6e7e113eeceaa04f668def059da018652d59b25ab6c88d2fed560625537dd15360001b62006f4f565b620071c67f7868c28cd3f749e0d01c0f9df1c62cbefbbec12b32690378612ac916c9cb65e060001b62006f4f565b60005b82518110156200770757620072017f91a28091e5e72f1a8381bc77642660339c1376ed44dd17d04ac9765fdac2f1d960001b62006f4f565b6200722f7ffd59d4dc8ec79286e2cd43db0d961d16bd4201dd3a4b6c7aa2868f5acde5addd60001b62006f4f565b8281815181106200723c57fe5b60200260200101519150620072747f9464546e30b54dbbfd6ab88d31331443e9db9841115f8066dac9f391fd796c4960001b62006f4f565b620072a27f31e2c251b407eada11f03e6e3e2818ac553253da1b2f4ca72a1f1c911090fef060001b62006f4f565b600082602001519050620072d97fb9232a253f14c872e5d35a8cfa24c63c927bc5efec6495058fa5183eedadc65a60001b62006f4f565b620073077ff1b4f10f3e8eeeb68c54f5b4420150fd755a5f2564683b162f1b764d672c2e4860001b62006f4f565b62007312816200e832565b620073407ff72e94b0f8c45d97256efc3a0088c79f76ad6ecf96d40308395374491d02d44060001b62006f4f565b6200736e7ff9900178de58f0d857b8eba3a47b1b100ff0595f966fe91b6830e11ef609039c60001b62006f4f565b600083604001519050620073a57fbe78817a093c67243267a9550e5bce77a60c14f4cd78f38693ace4a64ca324a160001b62006f4f565b620073d37fa27ee23a64532c45c5d58a3301474ab67099972024aa8d5608893e71a9fd63a460001b62006f4f565b620073ec620073e383836200f497565b61020962000d70565b6200741a7fe5eab028395ec4645ae033027ca33384babb6439b14146f20e153addb1d6cf2060001b62006f4f565b620074487f4081ce45d98c34e150f8aeb47e861b199448c70ea9def0bcb1f0989fdc50178b60001b62006f4f565b620074f43373ffffffffffffffffffffffffffffffffffffffff16600a600085815260200190815260200160002060008473ffffffffffffffffffffffffffffffffffffffff1673ffffffffffffffffffffffffffffffffffffffff16815260200190815260200160002060009054906101000a900473ffffffffffffffffffffffffffffffffffffffff1673ffffffffffffffffffffffffffffffffffffffff16146101f662000d70565b620075227f1aaad1ec941c7ae59b955b7c574d8476e75f95e1ce351675e43e305d918e34cb60001b62006f4f565b620075507f3ddf513b478a34ad3f2bdcfb844aa6be8e23b495a83477979015a7f7160c7ba960001b62006f4f565b600084600001519050620075877f4e966b351cb4c051179b70122e9fc57901b5210cc4fa42c3a5a7aec5276f5bfa60001b62006f4f565b620075b57f4df0c889cd9a56cecfea9393fa79f37fb85d9bbc1b4a781b7270fd6941c1130a60001b62006f4f565b600085606001519050620075ec7fb3ffce518db94352626dfd7c94b0b74776b000fa841fe198940d426bb1bc583c60001b62006f4f565b6200761a7f7d6ad74cba470f18109ae3676dfbb09737cba999d3c5239bf0f906f2d23882fa60001b62006f4f565b6000806200762b848787866200f80b565b915091506200765d7f80c4f4e2c605c65df2dbe08d154e89f2164e85a1bf14d916e9de153cfeb046b460001b62006f4f565b6200768b7f31272e279707b321252a8a435dfb46baa1a385fd47bd206ca1bdfca0fcb2062460001b62006f4f565b8473ffffffffffffffffffffffffffffffffffffffff163373ffffffffffffffffffffffffffffffffffffffff16877f6edcaf6241105b4c94c2efdbf3a6b12458eb3d07be3a0e81d24b13c44045fe7a8585604051620076ed9291906201f37e565b60405180910390a4505050505050806001019050620071c9565b5050620077377f0caf7107376224202848440e797a23bd53602dc240e67421095a2aa32637216160001b62006e91565b620077657f034cb29cce6b6361d9c228c8807e63d7d7dd24beb68aaf203424cd5a698f286360001b62006e91565b6200776f6200885b565b50565b50565b6000620077a57f858915c5288ac08e46f1806fa1ad1249d8d5895decde9d2a2bd2f16675a1e40460001b620028d1565b620077d37f4655f1f75dff4868f097ecebb156c873eeeac4557f5702949a8a6b2b198bdc3f60001b620028d1565b620078017f7c0683f017715c61d6b69babb4142d0c1cc391ab35cc029611abcbb5ffa9d45960001b620028d1565b6200780b6200fb90565b905090565b60008082620078427f1d667439cf45d593762fcf5127a27cac4ee5fc23b94e83f2135def5abccaeb0860001b62006f4c565b620078707fd5799405d570894a1fb977e4d4cb3e7870d5991694125e790f14a34bb4d9803060001b62006f4c565b6200789e7fa1b35acc9d01eea438e0ed7de234245b6c2cb4c92be287f03a287efb249d714460001b62006f4c565b620078a9816200e832565b620078d77f2f1b797cbc70ccf66442f70b141404640b6b23a9da66320efde7b657b98ca8a460001b62006f4c565b620079057fea769ddd3e56f27ef06018f98e4ca002cbce74e3f919c34d1a21c6bc5f909f1e60001b62006f4c565b620079337f023a6fb78f89b6eb8632e793e40c68b438b8c19138fee074e0244755c100043e60001b62006f4c565b620079617fdf6d76fbcb162ae3b0871af58cced7c8814deb0ffd070a5f3a0cfbea01de8cb460001b62006f4c565b6200796c846200fcbb565b62007977856200bc92565b9250925050915091565b6060620079b17f0c25245a2948fd253a2972edf6b7b275fcdc23db491134b080f17440f178e9c760001b62006e8e565b620079df7fc9526b01b8149779702b14eed4b91aad425575704e288562b2be815f5af6782760001b62006e8e565b62007a0d7f92cd888df7b891f3ca3ca31ebef8a6e1f70ac895530d5ca69b8d26d0f39af03560001b62006e8e565b3073ffffffffffffffffffffffffffffffffffffffff163373ffffffffffffffffffffffffffffffffffffffff161462007bf15762007a6f7f96bfd4625573f12bf5ee827daadb24ad5c4719d8659e3045195026de301785a760001b62006e8e565b62007a9d7fd2ea6619d05743e6897a87d07a9f752415f9cfab0e615254beb3a7c34bc9ab4360001b62006e8e565b62007acb7f59a19f1ca59d93b6ef119fe28a25871c37b29179cffbd68b9c7b28eda89d04b460001b62006e8e565b60003073ffffffffffffffffffffffffffffffffffffffff1660003660405162007af79291906201ed8e565b6000604051808303816000865af19150503d806000811462007b36576040519150601f19603f3d011682016040523d82523d6000602084013e62007b3b565b606091505b5050905062007b6d7fa190e06f2fe281cc386ab1fefdb4521a37d575bae559eb171cc9749a4e175e3460001b62006e8e565b806000811462007b7957fe5b60046000803e7fffffffff000000000000000000000000000000000000000000000000000000006000511660007ffa61cc12000000000000000000000000000000000000000000000000000000008214141562007bda573d6000803e3d6000fd5b602060005260043d0380600460203e602081016000f35b62007c1f7f3e0785aa9458b87533511af7f7a96808a805076dc5c18fc8f5e5d2d8ef26fdac60001b62006e8e565b62007c4d7f92d7263af9656fd2399990462a4f699dc7c9355060bdfdc8a6e9bffa7d0012e160001b62006e8e565b62007c7b7f028c06f80df6a4211bca001cd9abbbf05bab9bf3e6460c4de8329c4380d17dce60001b62006e8e565b606062007c8b858585896200d8a1565b905062007cbb7fb4f1f32fd6037fe544723889c7f34de46a679d326add02e7ab087482c0c240ca60001b62006e8e565b602081510263fa61cc126020830352600482036024820181fd5b60608060008362007d097f1d667439cf45d593762fcf5127a27cac4ee5fc23b94e83f2135def5abccaeb0860001b62006f4c565b62007d377fd5799405d570894a1fb977e4d4cb3e7870d5991694125e790f14a34bb4d9803060001b62006f4c565b62007d657fa1b35acc9d01eea438e0ed7de234245b6c2cb4c92be287f03a287efb249d714460001b62006f4c565b62007d70816200e832565b62007d9e7f2f1b797cbc70ccf66442f70b141404640b6b23a9da66320efde7b657b98ca8a460001b62006f4c565b62007dcc7f87a6c4e7a64bc141e4c25976401f3e752ebb3473378b6f5c80e843a95f7301e460001b620028cb565b62007dfa7f64f3eed33ec4babe249dabab6df844a6cd9966f863e86e38e02bb501f6ac660160001b620028cb565b62007e287f0fe61f29319d68e3d820d2af0f3067b875314fcd53281684f996be57da463da560001b620028cb565b606062007e587f41368d9c305a994213938c132521caf0189b641b88e1ab8e1a88e77117e451fb60001b620028cb565b62007e857ee810333d2b13c3d306318be1e16f39e9b6467a135fea7cf84de9d63a75beef60001b620028cb565b62007e90866200fd56565b809250819650505062007ec67ff7dc851717e506a04d35b12ff1ec7fb5fc9775aee266b69400af970e78d3a85660001b620028cb565b62007ef47f33a2efc28136611b30f975dd042d24f73a4390c82a1e3af3a1e9af001fd7374b60001b620028cb565b62007eff81620100cd565b809450819550505050509193909250565b62007f3e7f3b26cd2585fecfc21b1fe892f32e29375b0d7350ba966083e2f96f51ef43a92960001b62006e91565b62007f6c7f2197a5030ffc348553ffc47ccb57f9700b3053735d0a146d16497ad6fa509d5b60001b62006e91565b62007f9a7f382505951e9c5561f3f4877cc9803e5c3a86e88e32b803bccc41c22f60b698b260001b62006e91565b62007fa4620084b5565b62007fd27ff8ce392461b76b298757224f3caaffb179af93c72c0dabff1d4ebf8cda37741260001b62006e91565b620080007fe43977ecc8fc383612deaa526481dd12c217dc617de9653c2d929fdaaf26417960001b62007772565b6200802e7f23d99ded7a08dddac8712dd43904487faa99a77a20c382b416002f037975d3e860001b62007772565b6200805c7f7c269407bd44c42660349a4c6a311bc95a370fcb345ea3b6070a5c5f1006dbde60001b62007772565b62008066620088ef565b620080947f215733b8cd9af718b2d564e08e0d1743cce1a0f8416572ea9a1f99dafc713b0260001b62007772565b82620080c37faf989619a600dd1cc02b3d94ecc00d49daf97777038412bd758ef87b53fd25e960001b620028ce565b620080f17f2bf40434b766cb4317e0e943002c0df15add9636a1edb5efe562e6b1d8d2bfba60001b620028ce565b6200811f7f3e50832242263fbaa40c51b2ee0aa03d43190059646bc64f4dda5e3adaae135160001b620028ce565b6200812a816200a0a3565b620081587f3e2f079b4c2d06d248f27aa1c03f553ed01daffd4243a56b19ebbad90488edb360001b620028ce565b620081867f2500ab03f117449f8377f110f03533883879057e5e170c642ee416a9529b76f560001b620028ce565b620081b47fc19f7faa8bfc6c67910e94e5708b57bd774d9d69838094907a946aa4b571ce0560001b620028ce565b620081e27f6cc4bc5df66dca4285ce6db52fafc72b3c24d7b568b73bc0eff7090c7594fc4b60001b620028ce565b81600460008673ffffffffffffffffffffffffffffffffffffffff1673ffffffffffffffffffffffffffffffffffffffff16815260200190815260200160002060008573ffffffffffffffffffffffffffffffffffffffff1673ffffffffffffffffffffffffffffffffffffffff16815260200190815260200160002060006101000a81548160ff021916908315150217905550620082a47f18e496569c8eaf9ef0491b550ebaf689daf9feba9aa68791652ad954e0776dc660001b620028ce565b620082d27fb83285c0d309e672275d72665e1063f49b1d132af1ddfb8bf2bec14e761493c560001b620028ce565b8373ffffffffffffffffffffffffffffffffffffffff168373ffffffffffffffffffffffffffffffffffffffff167f46961fdb4502b646d5095fba7600486a8ac05041d55cdf0f16ed677180b5cad8846040516200833191906201f0a7565b60405180910390a350620083687f0caf7107376224202848440e797a23bd53602dc240e67421095a2aa32637216160001b62006e91565b620083967f034cb29cce6b6361d9c228c8807e63d7d7dd24beb68aaf203424cd5a698f286360001b62006e91565b620083a06200885b565b505050565b6000620083d57f983c27caba1a0fbf41b81c4fe65ac45a976b1a3c7eeae2ef76340ec5d92d275260001b620028ce565b620084037fcff814c6b4d600354290e35c6ad6524ed6962eed8d1df7380dcc3aea7f783b6e60001b620028ce565b620084317fc4efc7a76fc2297e13c05276167831959f7a4fa70e66a44d2d0f150684004a3a60001b620028ce565b6200843d8383620103ee565b905092915050565b6030600a820601600a820491506030600a830601600a830492506030600a8406018060101b8260081b8401016642414c230000000160c81b7f08c379a000000000000000000000000000000000000000000000000000000000600052602060045260076024528060445260646000fd5b620084e37f408dac390e4f0ae6d351596842e389faecd137e98747a21c9bd2535e34efe1ef60001b62006e91565b620085117f91fef535066a9a302b7aba661bbc08510efd3f86094d4d27eaab04e8c0ea329060001b62006e91565b6200853f7f7e4ef47161338c49f74fe8365727d3827a018aad2ffdc369234f459288d9b40560001b62006e91565b620085536002600054141561019062000d70565b620085817fc485c3854a3735fd70dfbf21afb411b100bc7c079db4aa6fd8f540b8b25f934060001b62006e91565b620085af7fc1dcb2358e8d960fc7fb24122ff840705dbc6c335c720c4de509a43cd35abd2860001b62006e91565b6002600081905550565b620085e77f037c1c31a242abc9fe85f7897d7e3db2fbb4a96d88800fd61753b3feeab291a760001b62001529565b620086157f9b69ded238e1f105af3c724db26f035e19242e09a189005c88d1afb44e2dcdf860001b62001529565b620086437fb34966d8df6692c5bb03465c646169e626a9b8831246d3a50e8307b39c31ec6760001b62001529565b6000620086746000357fffffffff0000000000000000000000000000000000000000000000000000000016620057a0565b9050620086a47f3851df8b489ea432cbe9ff42b63c2ca5f69a63da3d74f1fe1778c5c8160ce22b60001b62001529565b620086d27fd4c39b3623449b73860af568247fe45de94492dc66e5806084c17143e9fc8a8f60001b62001529565b620086eb620086e282336201050c565b61019162000d70565b50565b6200871c7f3fcce2b379e5de5347dae6e686af57673f7b268dd1df778a56a8042aa4ec824e60001b620028ce565b6200874a7f6ac30b112c28a757e3eea97d8ed4a4b142747bb2f0dd2784f3c2e30888c342df60001b620028ce565b620087787f0a57c0969de2efeba2bb8bfc57f32f6ecd8faeba984e260272f38bd4386b9ec660001b620028ce565b8073ffffffffffffffffffffffffffffffffffffffff167f94b979b6831a51293e2641426f97747feed46f17779fed9cd18d1ecefcfe92ef60405160405180910390a2620087e97f15b138a8f1a0645f390f62bd6c2d4733d9cca7657f2cb8728c3ff25bc10a07ba60001b620028ce565b620088177f8d32fc6143b9d9af67a2dec371ff9c59fc3c469245b9a7fc5333925c1819d97360001b620028ce565b80600360016101000a81548173ffffffffffffffffffffffffffffffffffffffff021916908373ffffffffffffffffffffffffffffffffffffffff16021790555050565b620088897f149cabfe70db67f6ce2fd3e64b4b5babbd98815b7461b7e97cec9760ebcee15060001b62006e91565b620088b77f7ee27aa21eee45360a064722bb38337cef8cc040b9fbfae86c19b76a3f932b9560001b62006e91565b620088e57fed942fdc363d1e16eaef2a7bfff65e652a7e0146f3288c44d086aa97babad4e860001b62006e91565b6001600081905550565b6200891d7f78de2f2ed65337ea91dc7f8633b4ebbfee50e836ec3e7f6f61cecf0c8a5b0d4860001b62007772565b6200894b7ffbeb7bdef9fce6baea2e09e278d93ae063706540283221171588ec3a681cc80560001b62007772565b620089797fa8c9fc7a7b205b4878200059417e7c075d2991f70b31def03c582521ce0701f960001b62007772565b620089906200898762009e89565b61019262000d70565b565b6000620089c27f31f05d36e3d83257a1812f12bedbc8cdd94cf9f72d850e07a1bcf032d2c2b00460001b62006f4c565b620089f07f0d910ff871d580ffc535a8f4edf5b782595aad878e8b54435dbba6128136c75660001b62006f4c565b62008a1e7fdbc6b8865575589ad11781702c4c3589b649702080c3777c91b1e2bdab807cc860001b62006f4c565b600062008a4e7f8ed2080381114d2a45750ea912dd8e58e175f427d190a232766b36492f0c4f9760001b62006f4c565b62008a7c7f8e0ceadca0c90eb4ff3d52faf7dec09611e43dafe90de98ff141cd8bdb49f70160001b62006f4c565b8269ffffffffffffffffffff1660001b8117905062008abe7fac271eab6b57b899abb7ada6d64660cead1841609f1ab486801e5ccd5198075460001b62006f4c565b62008aec7faa3ef65ce663d9aa7a32b8ca05838276647cf45e5ed6b99162f3fe608432167060001b62006f4c565b605084600281111562008afb57fe5b60001b901b8117905062008b327fa981b7596e7b1f12573c5ec8b805cc6914078030314761663322aa3317711aea60001b62006f4c565b62008b607fb2e3b6d620782887a53cd6e2dd55ae2113e121794df38440560a0bcc1180b82a60001b62006f4c565b60608573ffffffffffffffffffffffffffffffffffffffff1660001b901b8117905062008bb07fff37073a02e5f1ed131a6fbc25e0a85495f25af8bfc252821e03618e1fc92b4760001b62006f4c565b62008bde7f484e1e8b78025a53402920ded6d45c6de21d288dee439f21835c48903396718060001b62006f4c565b809150509392505050565b60008060008060008062008c207f01a4e3a4cdd4b702a9887e538c971b78759c94510131af77e7de7d528433671960001b62006e94565b62008c4e7fb4f8c060cc1485a14fdc1a5d8c2a446502fa721a56765f19e73ccd03e567c97c60001b62006e94565b62008c7c7fe2a276e3a008b559f7b9c2e46e84c2f61cdb453e7e40e046786ac2a7f9b1137660001b62006e94565b60008860600151905062008cb37feecfa4386951466261a4abe5b55686db0674cd6023f460380f6381a960d368ba60001b62006e94565b62008ce17fbc18e168932418d09fd626c256d55e89ab03c1daba91bf2a2d595904877c342160001b62006e94565b3373ffffffffffffffffffffffffffffffffffffffff168173ffffffffffffffffffffffffffffffffffffffff161462008f495762008d437fc137ef65d68f1fb83e94651b20502ca0c6d11b8d39f03f63f538c42c7441b1c860001b62006e94565b62008d717f31fee219e586838457deb9df33f10210a8ce2e696db26e1067613284e347449060001b62006e94565b62008d9f7fdd7ca5e23b1d41fefb365d68c1e0219a5ca5d3a4248d7ffda78bcf63fdcfb20b60001b62006e94565b8762008e9f5762008dd37fa4019effa488a3f58fbaa43caabdef693f562f064b78bcef690a3ed4af1f4d9260001b62006e94565b62008e017fade0255c6a7e1f6104166e99634b34ff7834a9b94652e473684317e473cdc3df60001b62006e94565b62008e2f7ffcfb6580411b96f2d812fe24a97bdfbe73eb32f8684c0786d392a790a4d0abe360001b62006e94565b62008e39620085b9565b62008e677f21b68642e15050936e8dba64342367a39025095d01c0f7d8532678acd59a1a0d60001b62006e94565b62008e957fc0f809b7878755c986e72a77b3e81ef831dc4eca7c6f44291bb8aa3d478fd8d160001b62006e94565b6001975062008ece565b62008ecd7f8bda21bbe73297bc72d4358483f1e4a4ab4fe74cdd4829312da65f5f2bea34ff60001b62006e94565b5b62008efc7f09ab85eca5823cc525cbffebf76c7750ab23753c14565dc1e45fd0123f69b11560001b62006e94565b62008f2a7f56e1e21eae3f05f789a9ae6a15bf9b8e937e73b074b2f1c26528ad004918485a60001b62006e94565b62008f4362008f3a8233620103ee565b6101f762000d70565b62008f78565b62008f777fc3c9cc67983ed318d64cc3ab0dcb968f88a87eae6f698f5b9bd720054302348c60001b62006e94565b5b62008fa67fedb3abbf8aaf526e8967162e34e64686577827d1ab76b4753512118f920f6e5560001b62006e94565b62008fd47fcbbfff76b69654dc4ba74d30174b1e728e29dd5673030b15e3d19e3756d1a88560001b62006e94565b886000015189602001518a60400151838c608001518c965096509650965096509650509295509295509295565b6200902f7f29e293f600457a088602a93493e70cbc01c91db80a7abe39dadefa7168839d0860001b62006e94565b6200905d7fc58ab966f71186cb0b0427e2dfc713a02de9624afa8cf2c3ef2479e2f6d02afb60001b62006e94565b6200908b7f7f982c3ce73778e61a7f82b9cb2ae0ff0a7d289ce13690586a1074028a2bac5060001b62006e94565b620090a4836200909b866200a367565b83600062010655565b50620090d37feeeba5bc9adb3799c47e1daa988e4b67ab17759ac3a0abf89d94bfd9c80b432d60001b62006e94565b620091017f6454fef0cf320fc6cdce0b42b55abbce544e9106cc7320efea6ecb3ff64940af60001b62006e94565b6200911084828460006200b07c565b50505050565b620091447f1e046d93201f7725cf6645c0532759f10c1c73f30252063daf1656b9b9c9ac1660001b62006e94565b620091727f69e63f58d41c9265691f333fb8415c41cb38fafe790ba8e7294d55ae24c49f6660001b62006e94565b620091a07f479d9449ef355a28bbe8f1c45859890e068b77ae601256631e838f25bb2aebf260001b62006e94565b620091b782620091b0866200a367565b83620108b5565b620091e57fa3164b312f70ec4d531723cfd02682692f611b710b990a32c8313b05f4e1195f60001b62006e94565b620092137fe0a65bb69fd2f3b90528fd2f7c8eb0b890f1cc1ccaf032d67d59ecace154742e60001b62006e94565b6200922284828560006200a95c565b50505050565b6000620092587f21e6e9a82536528b13c7883bb79967d52382ad39249951ec8ac814ccef79d86f60001b62006d1c565b620092867f1b61ef0dd245367232683976c663bddbd31984149cfdee5e82218ed86709255a60001b62006d1c565b620092b47fa07db27be40f1afa660817941a202b8d6a077717ac1c2de7d39676459fd44db360001b62006d1c565b600073ffffffffffffffffffffffffffffffffffffffff168273ffffffffffffffffffffffffffffffffffffffff16149050919050565b60006200931b7fe9ab1930f8b2a33e186614bdc5275e5aef3bc5199db452be16b906fe891a7aef60001b62010a3f565b620093497f672db28399f3b33e0df219cd59d4073e056f97e6f18dcebfa00f27c463d9fd7360001b62010a3f565b620093777f0ab1a15c584dc550564822e51c90b6556d02439b72ef95c55813a7f4f670280f60001b62010a3f565b60008284019050620093ac7f4912ca1f746b67b87e92127e424ef610602ecd8455c415eca24e0e1efae1b65e60001b62010a3f565b620093da7f66114683dd19cf7947e3b2b818c6c55b57501af6e821e1cdb4f2f80d63a7276460001b62010a3f565b620093ea84821015600062000d70565b620094187fb783f36a61aa5e73f22951df3681c2eb20b8fba57492aa9e4764edbd3684340b60001b62010a3f565b620094467fe7b48b6ed0eb47f18bb58555642ad250e08b266847ceeeb5fe538202fc79104360001b62010a3f565b8091505092915050565b6000620094807f96583f1ebf4f990cafb72dd9783cf8ee72b4d2f02e3bc18d6bf241e56d72001060001b62006d1c565b620094ae7facbb4a45b4bd16b1e9e057dad7837865824c96203de5746cc24fac924412970a60001b62006d1c565b620094dc7ff2bf84a89764308b9fa0d29e78a772e3f0e1bc9c01972c86eb847c0e9cd7c99360001b62006d1c565b819050919050565b620095127fcc988b4178814278b4bfd5db76a9eb129e9ac758970106c62fb221078d635e7460001b62006e94565b620095407f6f9ff0cf5e09770f5e69a8cd249c8e78f4245f27d4916a8d2a5951a2cdeb658060001b62006e94565b6200956e7f08f169c1e17f2030f635917e3abc2020b684cb868bf6d61091491faa9126bdb660001b62006e94565b6200957d838583600062010655565b50620095ac7f60220fcf7f038eb12a573ae01230e17451c97e82f406657af3339cea803d467560001b62006e94565b620095da7f5b26fe5742187a9e49bdb2a74c01079cc3615b88ea441c50d3b88cfd9a7732b160001b62006e94565b620095e7828583620108b5565b50505050565b6200961b7faf9553f1770bb0b624f112745395c740ab04a7a486e00f6e5f5a0cb8434d9b3860001b62006e94565b620096497feeef25398b3bfd40c98cfc0be01a0868e07dcaa16e03566993682e5c47ff11d860001b62006e94565b620096777f5c1e1be6dd294f4774cb6d7aabbb31ce8db0f467d354194e88c68d4d833eb3b760001b62006e94565b60008111156200980557620096af7f48f2e699675709e045d69e323ff55ef71fc0934b8a6d8f915c4d892cfc2284f760001b62006e94565b620096dd7ff1d09f64f1d32ea0fdfeb044d0565f63e1c75043dc264ccec58b1653a218588d60001b62006e94565b6200970b7ff28a6c18f58881fe46240bb64a7c0b3b582d946fa0eb0f4e4349a1e860513e7060001b62006e94565b6200973a8383838773ffffffffffffffffffffffffffffffffffffffff1662010a42909392919063ffffffff16565b620097687f60dc21fa1b23146af2975eaded565b02be91eaa16c7320a8ac89e7231247e97360001b62006e94565b620097967f97bf17f1a5f782045e67cdf5230f15bda67cb6504c9308301ee3213052a35d3d60001b62006e94565b8273ffffffffffffffffffffffffffffffffffffffff168473ffffffffffffffffffffffffffffffffffffffff167f540a1a3f28340caec336c81d8d7b3df139ee5cdc1839a4f283d7ebb7eaae2d5c8484604051620097f79291906201eecd565b60405180910390a362009834565b620098337f979ca901d4a3d88625de511a5956dff3ddca0d899f89e519bced1bc4d481c47d60001b62006e94565b5b50505050565b620098687fb7f32e8d4acf7eaa7f70b1d29a5418b389c48874c74e83f1942ec4e02e3d793560001b62000cbb565b620098967fe7d864d501f4258e430e8f7fa1334acbfc05662c01ebd3ea6a8d0da8678bab6260001b62000cbb565b620098c47f975ff7eef2157bca5e5aaca0eae231d28a92db704e40f50461ec67bee0dba38360001b62000cbb565b620098d58134101561020462000d70565b620099037f2586d933130e0210d8fa7d45524a2d37e4279e71ddddb30427580306a97fe3b260001b62000cbb565b620099317f87cf9156cc616249afdc318d7398e34a8b3ee9d3979ce83134e99f8dc717602560001b62000cbb565b60008134039050620099667f8ece52ee92219b126b3708ea9a5b62045560617499b63cb363a198c72a9ff25e60001b62000cbb565b620099947fc666e7c6756afd541fbbb3632f5ba10cbdc324f310de2e6d64d30bd435f5fa8f60001b62000cbb565b600081111562009a5957620099cc7f2846478debbc26092d57284af4688b9d121a40ea3353c62fafcb1efa4df61a5560001b62000cbb565b620099fa7f678918726963e8a94d8761613e4b1f34460dfc1257c69c13ecdba338198269a560001b62000cbb565b62009a287fc44455e58f126f5a44fc38d5043fc8578c5ee41b50881dec86150fe3cf680af360001b62000cbb565b62009a53813373ffffffffffffffffffffffffffffffffffffffff1662010b5990919063ffffffff16565b62009a88565b62009a877ffd8fe337c944b8aa247f74bd10d43ba2b111ece5e81bbea7ade8e585d5f4dad760001b62000cbb565b5b5050565b600062009abc7f1ce1e979cda780a648f0119febe88e553d8453d5184b6be754ca49249f55700860001b62006e94565b62009aea7fa8983b586ffc2894ca68f4abb9b3fddc272f6a996ddbc6ae73cd09048a7ea9c460001b62006e94565b62009b187f7295d6a1ebf19f1737ce14715229e1bc6b38ee501e9749266dbc204c7419a24860001b62006e94565b600b60008473ffffffffffffffffffffffffffffffffffffffff1673ffffffffffffffffffffffffffffffffffffffff16815260200190815260200160002060008373ffffffffffffffffffffffffffffffffffffffff1673ffffffffffffffffffffffffffffffffffffffff16815260200190815260200160002054905092915050565b62009bcb7f9ca88045db8d949814438a13bf21b48aedd95f5ff425c78bdeecf9e554c20e0c60001b62007772565b62009bf97f4484fae8b8c9b656ccdd7654efc847550084d7ff8a53c71d79f033cb2841200e60001b62007772565b62009c277f3a1188fe57cac37044a89dd8e5528114be6e1007b6406a553d38ef12bd40128260001b62007772565b801562009cd75762009c5c7fdda645df7e98b889b69605a1bf756afad35a07ce30b01314c79d51c37b54701060001b62007772565b62009c8a7fb7f6d0de389687aa7fde5c37b0c2f09f4a18c62972c7173468c0d5f3cb9cc91b60001b62007772565b62009cb87f360eba24823249042ba60c6e0658ae8b185a6fae1f97291b0b165b49646efcf160001b62007772565b62009cd162009cc662009f3f565b421061019362000d70565b62009d7b565b62009d057f05d8ac58c222598101af6f778876daf2b2ee278593a4decfa775af3163d0b4c060001b62007772565b62009d337fcca9c947ff50725ae80c4f35ace24e26c64dfdda7d4b9eb9238c0587de3f819560001b62007772565b62009d617f7ac650656159f2390ccf4a5a435c6e94ef6bdaf2db56514e60facb392b930ec460001b62007772565b62009d7a62009d6f62009ff1565b42106101a962000d70565b5b62009da97f614e1735d26a417915233ed97d734bcb5ba84914644cedb23defc5a2c4eaa55160001b62007772565b62009dd77f1b4a3e5f5d8a07e71bf12327fc36732f208a90d5127ef5a880ac46eb5eda52e960001b62007772565b80600360006101000a81548160ff02191690831515021790555062009e1f7f60de7a74b61922d97d93f392d3be383d254e5a8bde11d9f3667002600e9372b060001b62007772565b62009e4d7fd50ea98c5ed63cf272070b3787b98fb630edb1e3eca7d0d12f622fb79864addf60001b62007772565b7f9e3a5e37224532dea67b89face185703738a228a6e8a23dee546960180d3be648160405162009e7e91906201f0a7565b60405180910390a150565b600062009eb97f89b34f2fb06dac097a304a424a1ad8c28395d1849054b696c8fecfcff4055dce60001b62007772565b62009ee77f627cb46d8473646cf71270352217eabe06ac16332088afb831fe88e28ec077da60001b62007772565b62009f157fb74ddcb4d2734e77259615375d823c21dac5b776b56f1c1a11ca9ca567e71a7b60001b62007772565b62009f1f62009ff1565b42118062009f3a5750600360009054906101000a900460ff16155b905090565b600062009f6f7fb842466cf656b2952ad7f300d5515c05a11d6a992cbea6b69e8eb29cfc79eabb60001b62007772565b62009f9d7f4e72d726a61cf09efe8147a409ab7bdc1ea15e796d8baca5a430cab1a5335a7260001b62007772565b62009fcb7fd3ec2efc7233e25174de2c94fc91d34ee9074a336f9f1015ffcd059519f4d0a460001b62007772565b7f0000000000000000000000000000000000000000000000000000000000000000905090565b60006200a0217f4052916af5ae9f897cb803d56086596648e0c168ef92212c663e3134c3b19a6d60001b62007772565b6200a04f7fd3c6251a62d0f77016b4e3b22d079f8a671996b36720c49a2ccf206d7e76080960001b62007772565b6200a07d7fc4dc146b381b9b1de3f7d4d3ff843f926f346ba6f9d8f5c0795b47af1f1fac9760001b62007772565b7f0000000000000000000000000000000000000000000000000000000000000000905090565b6200a0d17f0ae4e56142a82a91c8439917fe0d7b08443118dec1b2313dc79b4782436e4dee60001b620028ce565b6200a0ff7fe80e0f6513f6a780d7422fdbed920720be966a64683fa1253cf82b7c1deab94160001b620028ce565b6200a12d7f2f06dae78b5c4a52bdeb08c099a9428edf77c5f7526e012abd3c30549404a86c60001b620028ce565b8073ffffffffffffffffffffffffffffffffffffffff163373ffffffffffffffffffffffffffffffffffffffff16146200a335576200a18f7fdd2242da26dae0997136b6ff79124f1104474e40491f2466d4ec0c7bf9c4adc360001b620028ce565b6200a1bd7fcbeb056b2bcb85d17983386a72e994742e5eb9538b917370a71adbc0b606702b60001b620028ce565b6200a1eb7ff80c68fae79552ba9f7c1cdf667e58c37f9261e3b9b24361f6737ef5d743f3e260001b620028ce565b6200a1f5620085b9565b6200a2237f765f6ca3fd7d925c19435875026511bf1619a926fb5d85553162f113ca21c51860001b620028ce565b6200a2517f50e21e698fedb62709226b7d3908072ea68fe1936b2aa9685f88b11a75cd878460001b620028ce565b6200a25d8133620103ee565b6200a300576200a2907fa5e0ec79e3f205aa5167861e117161a94d1b2824168582642f2d163f001fda2660001b620028ce565b6200a2be7f34646120af4519e8a19a08c92098a8805982f2dbe0ea0b23c92a90772d38e94060001b620028ce565b6200a2ec7f35163cf5f3dc531a5226ce3717122a669a7c5b8786784b17f42d0ec622b03fda60001b620028ce565b6200a2fa816101f762010d2f565b6200a32f565b6200a32e7f49cfcf582cf45e295bb47da9b33afd4a03e6f95b4e780ec7d8e905f244f0e4c660001b620028ce565b5b6200a364565b6200a3637f30aa75b407133892fe96dc3cf042eff93d8b46aa928a946c46ee0506dfaa200f60001b620028ce565b5b50565b60006200a3977f4b1f83ba899173be07821cf153ac8d1454bf11c57a7f52a59e3124761fe0981060001b62006d1c565b6200a3c57fb84742c79f3e35a78a4a54262869a193ffb974c48b5d4087528d407497b1930a60001b62006d1c565b6200a3f37fd6f0e501f178fca0c15e7635b4b35ab953e86d602117c9c53199ffec75928f2360001b62006d1c565b6200a3fe8262009228565b6200a414576200a40e8262009450565b6200a41f565b6200a41e62000cbe565b5b9050919050565b60008060006200a4597f189e348a579cc404ef964d17ece894b01af75f7d7d8a09a2caad0481e3e23d6760001b62006e8e565b6200a4877f5ed54638b00959f9e1f13bd7bdbb43984499667b8500421b97541e4780f34bb460001b62006e8e565b6200a4b57fb6d2f08fc6dffabbf58c60d993b62a052e9a1f2986cec3c70747ef1ad07ab47a60001b62006e8e565b60006200a4c685608001516200fcbb565b90506200a4f67fb11b06962a2806ab600695833b79e304886f2ccd08b4f21e8ba7c59d510668b260001b62006e8e565b6200a5247f46209525dffdd3aae66da7c7f473227796ccae6df4009e886c74cc0d485f60f360001b62006e8e565b60006200a53586608001516200bc92565b90506200a5657fcd1412db095f848d0df9f8b8ef98652faf6ae82c4a457088ac63309efe70793060001b62006e8e565b6200a5937fbabcec8ecfb4125d32e14b1dbccc4bf4138c0857c9514cb614a8ed0e78c641d460001b62006e8e565b6002808111156200a5a057fe5b8160028111156200a5ad57fe5b14156200a652576200a5e27f9785811385f6f5075579303a8916a531aecf62d8fa24eb2f249694ff9277679160001b62006e8e565b6200a6107f31b66eadadf38a1074219cb8d971757714521d76fd0321159924ce3e375b89c960001b62006e8e565b6200a63e7ffdbeef3f26506d488add85cb08b14aea076d996aec28328c80296029b892823e60001b62006e8e565b6200a64a868362010e83565b94506200a808565b6200a6807fa12864f9ea6d07399779d60fa1fb7f767e59b6e6390549adaa07c9f1949e50e060001b62006e8e565b6200a6ae7f5165c6574392e37ab77b9b298a52cee24c75133417eee6a3b5cff1c217a4348a60001b62006e8e565b600160028111156200a6bc57fe5b8160028111156200a6c957fe5b14156200a76e576200a6fe7f5931e76bb357f0aebfe648daad581b121b73b1c387e88b38be2fd5b19a7199fe60001b62006e8e565b6200a72c7f4693e5f87d13d5134d232506f3c1cdacc71859b0cda3a8074ddebb8c1708da4560001b62006e8e565b6200a75a7ffb7cab3676bf4c5d80107d2ced7e6f6f93d07845e7d579d7c5df447e8d3221b360001b62006e8e565b6200a7668683620113a7565b94506200a807565b6200a79c7f4061cd420a4628255f547b6227315e1944861ad01eba7f6e964b8f2d10a751e660001b62006e8e565b6200a7ca7fd3c29bc3ddde8e3c06d1811de282b1e4fdc54cdfd27b0b75f759c97e7f80486060001b62006e8e565b6200a7f87ffbbb66ec78821997fdd9d976431041220bf4f40dcd7d037d1213c5415590421960001b62006e8e565b6200a8048683620116af565b94505b5b6200a8367f051a2861a9570f655feacd4891cb1d64a6e509cc7a42015c0f1126de74722fb460001b62006e8e565b6200a8647f6618b58bbcae4eebd39efc07376bb04225aa003aba70c8292cfc994b5748e3e060001b62006e8e565b6200a879866000015187606001518762012440565b80945081955050506200a8af7f926cf2804c0d1709e7a11df4976cf3db38cf326a75f19c078e5f0ac5c6906f3360001b62006e8e565b6200a8dd7f698c16abf9aad18e276f67cd75810420cf6b9f5715ec2039550732b3986cdedf60001b62006e8e565b856040015173ffffffffffffffffffffffffffffffffffffffff16866020015173ffffffffffffffffffffffffffffffffffffffff1687608001517f2170c741c41531aec20e7c107c24eecfdd15e69c9bb0a8dd37b1840b9e0b207b87876040516200a94b9291906201f467565b60405180910390a450509193909250565b6200a98a7fafbcf8b8ce72c39040bfc4ed1365b0eed1dcfb580795bb93991195bb7caedfaa60001b62000cbb565b6200a9b87f3892f8a08e913a9e1da03905e8907ece57791412394efd52e082fd48c6283b8160001b62000cbb565b6200a9e67f2412ecd77ce016c503c96bc06b5feec2a6f76b6ccc2854ea22b1c198eafc76d260001b62000cbb565b60008314156200aa80576200aa1e7f6a2cc3300414123aecf42104394b8aa3392bc72c6560cc25d1effa3fcbcb9a7560001b62000cbb565b6200aa4c7ffbc659115bd9a22070c7e04bb4d85094db65712f54069e21e12f74de0f65ef5660001b62000cbb565b6200aa7a7f267bcf6d49bdeb56dd0f89820f5087b5094b17aa939df045f4e075774246f18c60001b62000cbb565b6200b076565b6200aaae7fbcbea868641cd5d4bf693514a48e356d0f14882a14d0dd0fe46b2281d6cf5a7760001b62000cbb565b6200aadc7fa7c9b7212cb87cfb5c053c5808a3b69bee309dff8045867a693ec0767ef355b460001b62000cbb565b6200ab0a7fd7474070b5128264a32b24be3a07c724ee99ced0542783dcaff189ebaed45e7d60001b62000cbb565b6200ab158462009228565b156200acef576200ab497f77f8c1f3195dd4e6e377fb7168de996a5ed4b0c3972f9281be337cd56d56efb260001b62000cbb565b6200ab777f59bcd76f80217061c49a552208642e4f09f653bcbc2e14371b3b6fd056980da960001b62000cbb565b6200aba57f87829a97ddfdcef6091a5560918f7206b99a28a2861ad9edfea99b105591a3aa60001b62000cbb565b6200abb4811561020262000d70565b6200abe27f1ce5cd6c76eefadbdc446fd43ce6af15295e08cc62dc8c349c3645592d19e7d360001b62000cbb565b6200ac107f445f2c0a84c65b5563b14334af65de2cb11bd495dff29e31450a6651cc31cebc60001b62000cbb565b6200ac218347101561020462000d70565b6200ac4f7f01bdfe3ceb94dd2611bde2b485fbad1c9fe31362ca5bc075e9fc7f47fdac179060001b62000cbb565b6200ac7d7f35f124373616d38cb4d5a5bc3aae00b1c774f0feb8ea9a33a4764d3cbb43bf0d60001b62000cbb565b6200ac8762000cbe565b73ffffffffffffffffffffffffffffffffffffffff1663d0e30db0846040518263ffffffff1660e01b81526004016000604051808303818588803b1580156200accf57600080fd5b505af11580156200ace4573d6000803e3d6000fd5b50505050506200b075565b6200ad1d7f36813a494b7e2c672a1960344e933946873f207387d693df7739665cb94e34fb60001b62000cbb565b6200ad4b7fa1110cd9f0e9ec390927a6da0a982d9c40a20e5f1b7e8e47dea8cf440bef5e0260001b62000cbb565b6200ad797f22b6d883536cfec3384bc3a5aca9927d282e5d645747655b4fa4930664b211c760001b62000cbb565b60006200ad868562009450565b90506200adb67fd8fb8839bebaa9147365b51ebce2a348fa35be5d006ad1ca083f43839163a15660001b62000cbb565b6200ade47fe043633c91c3681cb7be2025ddcba57fe9c12b78ab756bf8135539d0f16a13ec60001b62000cbb565b81156200aef0576200ae197f7f185ea77d09dd5c1790bf16587f49bb1fc3916958281b4f532f59c1286d853560001b62000cbb565b6200ae477f7b3cbcdf2148ff66cf42501a7c84b06657b87170bf6c5ee833eded04290a271960001b62000cbb565b6200ae757f31974946fe516e59f1cc3e8e2efcb593f63b8d2cbb0f78185ff119c67eafd78160001b62000cbb565b60006200ae86848387600162010655565b90506200aeb67fca07fa99c4e7494eca204e147bcef66bd535584ac898938a9142093d4ddf64de60001b62000cbb565b6200aee47f87e2bef81c1f7fc505403f364501187be6c1f077e6d4b29fe9fff44aad95270d60001b62000cbb565b8085039450506200af1f565b6200af1e7f63902df6f31c01b4b22fd07edc1b2b0bba9abe4af6850f5169926ab06ef093d460001b62000cbb565b5b6200af4d7fc3dba5449a3ceef2a1b616c5b936cd3eed48bd1a66f7f41bc303b5c5318d9f9060001b62000cbb565b6200af7b7f564da3e86ef07fe1afaed22a71a19698c1c6b34bceec6174da93c9ef728b008c60001b62000cbb565b60008411156200b044576200afb37fb33266b7c107992e9492a223f6b82db0c66f44017cc7e6ce4004d9f392e5f82460001b62000cbb565b6200afe17fdbab14f309137c52dc3d7039e78b7ab3da0ec00394c0420f697bf3f4bea77b9d60001b62000cbb565b6200b00f7fe6de095bc3a823cd914d919a871c5a9b39266316c2d6ac7b2b01fbc28d7b1c3860001b62000cbb565b6200b03e8330868473ffffffffffffffffffffffffffffffffffffffff1662010a42909392919063ffffffff16565b6200b073565b6200b0727f6b04ea64a972cf4dead8c1b6d51308a1e76cb3c7e00d8af246a08f2a0e37382460001b62000cbb565b5b505b5b50505050565b6200b0aa7f9848b02d7a4011fc1e2fcd8a6017eb46d27fa890f508dfbce1925e3489a150f660001b62000cbb565b6200b0d87fd54348975359c2642b2e17427f9265b913f6c0d702c14c7376adea1c2e1456b060001b62000cbb565b6200b1067f028d089ae0286f7246df9f8b2d6dd96f34095224285feb0b585ebbe9c4b06a7660001b62000cbb565b60008314156200b1a0576200b13e7f75af0da682c2f58391d22ed5c48582a1a858d21f1fe84147ac9594833fa7132960001b62000cbb565b6200b16c7fccb18a03974c251bdbc02987322de52873d26a6ee3e9b79b7700109125496caa60001b62000cbb565b6200b19a7f4c6aa2653b2a2a711f74f7e43e7497e83eb5f048818d8baca18eca108c843afd60001b62000cbb565b6200b689565b6200b1ce7f47da9aae5137bf510b53865c4c94c67ccb963a84adde747bccbde1a0f39592ba60001b62000cbb565b6200b1fc7ff6134fbc534f89e74113960791fe4664c9a54ea4823a324aadf30207b11e415760001b62000cbb565b6200b22a7fdcbfce4fe881543a20bcdca9a5d2a66793aebf73cd21db40feb585e5c22a735160001b62000cbb565b6200b2358462009228565b156200b435576200b2697fd5431432833eee7c422fd964338efa3b73bfb222eec0bee8a4086c8da7fce9c160001b62000cbb565b6200b2977fbd46d219a90a92b6c1993f22db4617b5b3f45723226e5e35d28a25ea694fdfc060001b62000cbb565b6200b2c57fdf61d10f6be58b3e0ed416491930633148f1d69eac0d15216050653ea9cb64f560001b62000cbb565b6200b2d4811561020262000d70565b6200b3027f3561e5ca304aeecd8c0fe97c6362eb3b2e4600ec6a071547736fb673cfa1af0f60001b62000cbb565b6200b3307f0d37c70e554f600c5c2f9cf23ec8bb835085885fac0a9fdb6610f78e0295de6a60001b62000cbb565b6200b33a62000cbe565b73ffffffffffffffffffffffffffffffffffffffff16632e1a7d4d846040518263ffffffff1660e01b81526004016200b37491906201f44a565b600060405180830381600087803b1580156200b38f57600080fd5b505af11580156200b3a4573d6000803e3d6000fd5b505050506200b3d67f32355b29afa01a30e6390ee5e6f1101e69dff0d4de06f828e5153887d88dc85060001b62000cbb565b6200b4047f5583e6c94e53e7403f5f8db24b7bf8846150d37047f8d03d67827b6842e8d34760001b62000cbb565b6200b42f838373ffffffffffffffffffffffffffffffffffffffff1662010b5990919063ffffffff16565b6200b688565b6200b4637fb8ab688952c60f58e3a27236dc49d4d22032a01a52ce00040bd2330aac17b44360001b62000cbb565b6200b4917faf1bf28aac6608fdba34013640712f62b62dcc168e27810356d17670898e683760001b62000cbb565b6200b4bf7f47fbc7d3642968dbb197d98cf1e260ebaa29b21f9eecdf7cf1acdeb9d78a77dc60001b62000cbb565b60006200b4cc8562009450565b90506200b4fc7f0996c9ee19d17a0f5d9f26943b0c3c89df50ec0464e87ce1645a060a0f8f9c8260001b62000cbb565b6200b52a7fbc6309f26b31aae15c3e7fff7da5e02cbc7ccd1dae997ad8f13b8aa8bdec39f960001b62000cbb565b81156200b5ce576200b55f7fda03d37b251acd1d7923ea017226ce2c0410df3b00a756f95ecacb36b9a7542660001b62000cbb565b6200b58d7f36987818689a209429fbf4bdf4a8055a22abf707245e2f7573ead0e71440b11360001b62000cbb565b6200b5bb7fc56f07aa5eeb74a5562ba06ce1e62981c638336589fed913469fe7cd933bac7c60001b62000cbb565b6200b5c8838286620108b5565b6200b686565b6200b5fc7f249663e3e815766b595ae72b94b982b0dfd36f609a214581fbeab95ad3a0535d60001b62000cbb565b6200b62a7f3bcb7a05433ef0ba8905b46da36fefab6d5e2549f648aaad106e529521e9ab0960001b62000cbb565b6200b6587f41a522d47580420bce7f5f8826540b8a27fcb8efcee990b753f6180aaf5075e560001b62000cbb565b6200b68583858373ffffffffffffffffffffffffffffffffffffffff166200b8b79092919063ffffffff16565b5b505b5b50505050565b6200b6bd7f6f02687e057522eb19b597e3b091ff65201fe492dbd6f67980e016d6aa08d53260001b62012626565b6200b6eb7fe51ab352fa79dd949e57050cd47d3f0410afdfe7c28a6ef735cccfeeb18f582360001b62012626565b6200b7197ffce750c89171756118e85bed28eb1432c569ae13e7db5e43107d00a4ed5889a360001b62012626565b6200b728818314606762000d70565b5050565b60006200b75c7faca0086e81bec94110dc3f2ff39f4b69a6f1669dffaa0aba92235e55406c5b2660001b62006e8b565b6200b78a7fa6d8330b4656811fea709e85f0d349cb4765899e153b2bb1ccad71b8e29e98f360001b62006e8b565b6200b7b87fdb4962474d0009e26c1b4b00acbe34528c6f75937ab388ea603d54b27810997660001b62006e8b565b60006200b7c462006e9a565b73ffffffffffffffffffffffffffffffffffffffff1663d877845c6040518163ffffffff1660e01b815260040160206040518083038186803b1580156200b80a57600080fd5b505afa1580156200b81f573d6000803e3d6000fd5b505050506040513d601f19601f820116820180604052508101906200b84591906201e788565b90506200b8757f0300d9846c9be26fc3e1e61f95d4b9bbd756fb932fedcece458fd2955e6a255560001b62006e8b565b6200b8a37f4367aa21856f985f66bb9690d65b7cbe4eae147f84d895e5ea6c5aa5a08f654b60001b62006e8b565b6200b8af838262012629565b915050919050565b6200b8e57f0c30be65a9683c16aceecbfcfba8c2d92dcc7c80b0f36b76b81f7f2ce7bdd34d60001b620128e5565b6200b9137f77dcfa1de2e819f5686b2e9ea49a0d1fa6a1a52f0e5c05958f40c020b5e28fe560001b620128e5565b6200b9417f424b37de078654578e920afec2d135ac126ac9e4d8c5d991f6574ad131991e2660001b620128e5565b6200b9c68363a9059cbb60e01b84846040516024016200b9639291906201eecd565b604051602081830303815290604052907bffffffffffffffffffffffffffffffffffffffffffffffffffffffff19166020820180517bffffffffffffffffffffffffffffffffffffffffffffffffffffffff8381831617835250505050620128e8565b505050565b6200b9f97ff4d25e601bd0cbd2be2ae13258f0b0661763eb08267254a6648e60f85b9acabf60001b62006e8b565b6200ba277fada71d90bdb6d5f073e1c12e03a00d3cf4268b595a4bc8c7171aef0c8ed47a6e60001b62006e8b565b6200ba557f3eceea6cabb415875def2368f47dcf1e6de3baa2aa46283ff990ba7292fd32c360001b62006e8b565b60008111156200bb25576200ba8d7f9c220049d03799a5dd2e83a82d5a36ad17e116481ffe8055e62a499d7b531efb60001b62006e8b565b6200babb7f9818e2db5eec289df4b121a67c3237a33859bacb272571a4a4a81ed012a5c73d60001b62006e8b565b6200bae97f139b62665d290088c605a70054ce2bf504f8cc56090e582c1f45e1b825ca41a160001b62006e8b565b6200bb1f6200baf762006e9a565b828473ffffffffffffffffffffffffffffffffffffffff166200b8b79092919063ffffffff16565b6200bb54565b6200bb537ff7885f41325119ff35da149e04be21a1b5a18f864e18ba3f193eea85c4fd915560001b62006e8b565b5b5050565b6200bb867fdf3b5973efc584e72b41d4824bec3e1dcdd3158f9bb507dce18eef8903b1e18c60001b62006f4c565b6200bbb47fa2f7e3f94bdc6330b6e950eaa409438099170374254cb434e9c1caf89fd3f84c60001b62006f4c565b6200bbe27f713eb69b7441f591b68ddd58b57c511484eb7bc9fae2a3568ea51c7d05343bf760001b62006f4c565b6200bbed816200e832565b6200bc1b7ff4284881a6d530fba252b1abccc5b788233300c85fd920f898e16e26f9c6360e60001b62006f4c565b6200bc497fcc1e4319c08469f2f0d911c85292f4dc323f3d6c31666c077e47ce2de3d7cf4860001b62006f4c565b6200bc8f6200bc58826200fcbb565b73ffffffffffffffffffffffffffffffffffffffff163373ffffffffffffffffffffffffffffffffffffffff16146101f562000d70565b50565b60006200bcc27f8d2d48ce8f42a414dd9ef9bb242cb33b6edbb3a7797f1943eae06f266e378dd560001b62006f4c565b6200bcf07fd05bae48e0d2ae55da03d232e5adb1a57f208feb83ca2655c190984c0eca120b60001b62006f4c565b6200bd1e7f997cc05a03b92c77a92bfb8d2a984186dbfe7165b3db86e8acb75b538469111c60001b62006f4c565b600061ffff605084901c60001c1690506200bd5c7fb8060fa745b8ceeb22cb3791c2ba66d0f1538034b7cb1d8161e52430821ea08060001b62006f4c565b6200bd8a7f9d9f20aa0f9244ffface97214089d074259d96c8b88d73e8d1a42b923e00e3ca60001b62006f4c565b6200bd9b600382106101f462000d70565b6200bdc97f3b5026225782bac01e408beb0616e95962d42337119d6996814ddcfcd62e088460001b62006f4c565b80915050919050565b6200be007fb4398e5786d8d9eb803c4f2bd0ab6c8415f225c1cfb912cbd4470b49025ed34d60001b620028d4565b6200be2e7f54301227b582f835709b370997be0110634634b08f1473dfa961c4e1fbd9397a60001b620028d4565b6200be5c7f282070d1802341c2eac7d723d2baec58af421fffa7caeddc275c77524c4db09f60001b620028d4565b6200be998173ffffffffffffffffffffffffffffffffffffffff168373ffffffffffffffffffffffffffffffffffffffff16141561020a62000d70565b6200bec77f08b71a34d4a6c6ee6d2f29159e5f37adbe867d1f7133bbe9160241d1fe4dffea60001b620028d4565b6200bef57f8899ec6edc4a0389d624e151496580bce37c38dbc4160b99dfc30c858f467ed560001b620028d4565b6200bf308173ffffffffffffffffffffffffffffffffffffffff168373ffffffffffffffffffffffffffffffffffffffff1610606662000d70565b6200bf5e7fd9eeeb653825b3ba2ec5da999601c438a3b6145b4a2d7efc3a7d7839ead5196560001b620028d4565b6200bf8c7f68ade0e8884a728afdff1d56ff51e387b556a4bda8fc1851160904785dc9aec360001b620028d4565b60006009600085815260200190815260200160002090506200bfd17f1a48b9909112cdbebb4e957ecbd0beee104acdbe67e73cdb10f35da17346428960001b620028d4565b6200bfff7fc0737b67950cccbb384f64573c3bb19cd4954033ec7f3640d630d2810309411b60001b620028d4565b6200c0bd600073ffffffffffffffffffffffffffffffffffffffff168260000160009054906101000a900473ffffffffffffffffffffffffffffffffffffffff1673ffffffffffffffffffffffffffffffffffffffff161480156200c0b45750600073ffffffffffffffffffffffffffffffffffffffff168260010160009054906101000a900473ffffffffffffffffffffffffffffffffffffffff1673ffffffffffffffffffffffffffffffffffffffff16145b61020b62000d70565b6200c0eb7fa047ad3152ee9ded7e0907843df10e135445e9790b560e860b456a0006f559ed60001b620028d4565b6200c1197f4152ab382abef2c887e7ee80e5df90b19af075781619a8ccc70cf0036f3c1c8a60001b620028d4565b828160000160006101000a81548173ffffffffffffffffffffffffffffffffffffffff021916908373ffffffffffffffffffffffffffffffffffffffff1602179055506200c18a7ffd5b1a34f325fbec9c0bc2f8beb76a183a6961309c4e04a1c43ecab9bb4a792b60001b620028d4565b6200c1b87f21e326975096821ad26f2121860edad7c1bd71e27f84fb5b731317f03122430c60001b620028d4565b818160010160006101000a81548173ffffffffffffffffffffffffffffffffffffffff021916908373ffffffffffffffffffffffffffffffffffffffff16021790555050505050565b6200c22f7f77d38b719c97cd9f0239f2bb0b2fe5a2e60b526db61c3a929c41d28084d001a460001b62006e97565b6200c25d7f98d309c66bbcde75cf577300f2290c6249ebf675f2c3ae833c27cefcc941936560001b62006e97565b6200c28b7f369918bb5002ede7d0a30aa3b09b9e76f263dca8bbda3301621f70afa096fec760001b62006e97565b60006008600084815260200190815260200160002090506200c2d07fa97aaf7d172b28546d009b09d2ea9c23d8c6579e7e54128e3c6ac284afc2e5e860001b62006e97565b6200c2fe7f4d65bc7572217ec5d9af08eedfc189bf46dc270b800a493c587cec75d56fd76a60001b62006e97565b60005b82518110156200c40b576200c3397f221a85a9fb0a0af3837e5de20eca602c8858852f85da8c35240d859bc6a3cbee60001b62006e97565b6200c3677f74c6cac0a6569fb3e9aa3ce18d86e4c4fe47814decca033b367044aca379639060001b62006e97565b60006200c3928483815181106200c37a57fe5b60200260200101518462012aba90919063ffffffff16565b90506200c3c27fe526a82bdabb017fa72517870fb4c5b80f34308c78c4ea702e15b29ed75cdd8860001b62006e97565b6200c3f07f5039e8ba50a33fece2128ad9f38e5f2abd80dcd5d636e5af1dd00936d6f7526860001b62006e97565b6200c3fe8161020a62000d70565b508060010190506200c301565b50505050565b6200c43f7f5183709139a026635f16c6834dd2f39d9dedffbdd2c39ac9c2f13f239d725c2760001b62001526565b6200c46d7fa08ddeb628054a011d8f4c28d7ddfbfcb025d6fffca6ba6d9196a97022456b8260001b62001526565b6200c49b7f729b59310f4d22345579b428f1884d48e6c29ff2aa1a5a66d25dad5812b0263c60001b62001526565b60006001600084815260200190815260200160002090506200c4e07ffb69f77cd0632f680f942d06d7e261b9f25daa612d180dda0672145d37321cd060001b62001526565b6200c50e7fd4d4b63b949a259e7e0b338b0fa241e88d6fda776ea8834bdd5c571e7241527c60001b62001526565b60005b82518110156200c620576200c5497fb2c463b459401b32316a6dcb7a0e3eb2399fcdac45f7b322ffc6ca6b160f5f4860001b62001526565b6200c5777fc80c3d406954380627545a7fb291c79c1d3f1ad767ae58778d8c8105abdf68da60001b62001526565b60006200c5a78483815181106200c58a57fe5b60200260200101516000801b8562012dea9092919063ffffffff16565b90506200c5d77f3e48b707939bf47bfaeecba6614a030a09fa956eef268416f22166601c3c30f960001b62001526565b6200c6057f9cccb7a796ed53affc25d657b76eae1df0fabba6256e3118fce9c31f58d1b84260001b62001526565b6200c6138161020a62000d70565b508060010190506200c511565b50505050565b6200c6547f1ea873317256f69cbcfb164fd1885be00bb71c6575e499887cbf7fa70b76e08460001b620028d4565b6200c6827fa553fd7ebd46be2987fdc505bb889f143fb952ec15732b531a3bf877ecf4374860001b620028d4565b6200c6b07f358440e6164af694afb9798c311a28ef3d3b25a73ba5621fbafa3b062b18be4d60001b620028d4565b60008060006200c6c28686866201332d565b9250925092506200c6f67f3b3a212c8194e0c0503c12911e93354e1b1203cbcd079bbea18fccc8ced8f38f60001b620028d4565b6200c7247f6a957930ac46110aebb7a046071ef02950165892d30c2027b54b13cce4cf679f60001b620028d4565b6200c7506200c73384620138a9565b80156200c74757506200c74683620138a9565b5b61020d62000d70565b6200c77e7f8a6d9a20fc3702278742f05e5757ad74f324d261dcd6284d2911629f763f7ace60001b620028d4565b60096000878152602001908152602001600020600080820160006101000a81549073ffffffffffffffffffffffffffffffffffffffff02191690556001820160006101000a81549073ffffffffffffffffffffffffffffffffffffffff021916905550506200c8107f178454203864e2403fc210987427e834b4f256947c80f55d9552dcb64facb84a60001b620028d4565b8060000160009055505050505050565b6200c84e7f9e62d327f194952e0f63aa6c9644a9cc29adfce84339f72969f04a060ebfbcad60001b62006e97565b6200c87c7f019ebc5aa38ac05af3d28504c5cef7d324471fbd0cfad0542ea8082dc4da0ddb60001b62006e97565b6200c8aa7f6810dd82f6c8f40678cbcb94c0bced999ce8a45ea62c6cea0ea308b432a348a760001b62006e97565b60006008600084815260200190815260200160002090506200c8ef7f4ebf3257c92c2791398f943dff4beffb2fd97bf79ea7d723a552be278a920fb360001b62006e97565b6200c91d7f2d00dce1d1f933e2f497bfcff6d0b3edcaab3ff2b47977ba5c99b27894bf2b6760001b62006e97565b60005b82518110156200cbd2576200c9587f2a82a6eedc6734cb87b4d159cf6c23658b08f32f81e38419c3eb56728915bbd660001b62006e97565b6200c9867f26f46778e38b3402b430924fe6b194c7af70eea807c62c49765d5ead4c53b5ce60001b62006e97565b60008382815181106200c99557fe5b602002602001015190506200c9cd7f2be0bf8dc9ee88510e87b43c2dc8d9ed58c26946804f65255e8afcb52d99ec9960001b62006e97565b6200c9fb7fb22b90414f003bfd28197ba717071c7e4dadc5ae7eb779cd3cfb2e67fc3705ff60001b62006e97565b6200ca636200ca5a6007600088815260200190815260200160002060008473ffffffffffffffffffffffffffffffffffffffff1673ffffffffffffffffffffffffffffffffffffffff16815260200190815260200160002054620138a9565b61020d62000d70565b6200ca917f8dbb6f5c413c34f4ca7007e4505c633525baa5f547faf728454d1f8f52d8c9c660001b62006e97565b6007600086815260200190815260200160002060008273ffffffffffffffffffffffffffffffffffffffff1673ffffffffffffffffffffffffffffffffffffffff168152602001908152602001600020600090556200cb137fe7780a5b4e16db99762345f018406618d287eba0e399388948260c71677ed2cf60001b62006e97565b6200cb417fe74e1c944f034030abd699b1f3380aa444562ef1cd4f0bb8c8b321d5301651ab60001b62006e97565b60006200cb588285620139c390919063ffffffff16565b90506200cb887f18e34677a6235dc2425be962fc46087bca4cb167f98e9cc7e79b045db753ac5460001b62006e97565b6200cbb67f3240de3124120536b8616774bad0d0c8c525211817ca1242c3f921f9dbd56ce160001b62006e97565b6200cbc48161020962000d70565b50508060010190506200c920565b50505050565b6200cc067f4c5ee32d7ac8b931607b7ff9139084689708d87ffc757eed991bf35642add62360001b62001526565b6200cc347fbede8f1e5b949580a5873381f7d51a8197c2292b21f98bf52e30a9c87fe2200860001b62001526565b6200cc627fb52c96393703f4a55eb1364d7ced417503a9bd1a1d69536c5c7c4c85317bb03360001b62001526565b60006001600084815260200190815260200160002090506200cca77f5f727bde7a5e2c001a2b48dcd28ecc7cdd17fc5096e2f0779398fc59e24cb2f660001b62001526565b6200ccd57f0840b935e0962beffe04e34ba5041ee34bfd7d2f01938823a3c7a51bb6f82d0860001b62001526565b60005b82518110156200ceb7576200cd107f579f56e4d2d4087a33e7be8567b0e06f59f2e1befee1476aacc02e47b850d42860001b62001526565b6200cd3e7faaa613e43f1d54f4f2c6d4ec5401cb66a03e5b95815fe7aabad69fa6c0d4d35060001b62001526565b60008382815181106200cd4d57fe5b602002602001015190506200cd857fcb335a141b2ec1749b57b7112105d7664b9273a10a9a15e1ab793c25664e09cb60001b62001526565b6200cdb37fa37295594c117fb7011086f29ea217a7bcefc1a9d29c88ce5f20e07f80c9666360001b62001526565b60006200cdc1848362013ffe565b90506200cdf17f34977a810a1ce08d56a38554fcdb56674dbe190e81b54c56db88ec612a22455f60001b62001526565b6200ce1f7ffe38944718196d503d2cfd4c9c33b786fe5172c8858917345f2821d5c9bba02260001b62001526565b6200ce376200ce2e82620138a9565b61020d62000d70565b6200ce657f2797acf042eb2938e24af7704539547dad1aa1ea4e9ab99ea8b74fc03150d60560001b62001526565b6200ce937f4f92a040ab9889c61d6de0fe9e857fd5cc6e067cca2aee9a9c88c560514649b860001b62001526565b6200cea88285620140ab90919063ffffffff16565b5050508060010190506200ccd8565b50505050565b6200cec76201d3bf565b6200cef57f40667e483cbc5a3d06ee5353a907531904e8f3421ec2e6931f36d68fd2ba175460001b62001523565b6200cf237f53cb9d01f0a3ae785c44c887023f3d4e3fcbb86639fe5254df0c107813d38b7760001b62001523565b819050919050565b6200cf597f3b26cd2585fecfc21b1fe892f32e29375b0d7350ba966083e2f96f51ef43a92960001b62006e91565b6200cf877f2197a5030ffc348553ffc47ccb57f9700b3053735d0a146d16497ad6fa509d5b60001b62006e91565b6200cfb57f382505951e9c5561f3f4877cc9803e5c3a86e88e32b803bccc41c22f60b698b260001b62006e91565b6200cfbf620084b5565b6200cfed7ff8ce392461b76b298757224f3caaffb179af93c72c0dabff1d4ebf8cda37741260001b62006e91565b836200d01c7f1d667439cf45d593762fcf5127a27cac4ee5fc23b94e83f2135def5abccaeb0860001b62006f4c565b6200d04a7fd5799405d570894a1fb977e4d4cb3e7870d5991694125e790f14a34bb4d9803060001b62006f4c565b6200d0787fa1b35acc9d01eea438e0ed7de234245b6c2cb4c92be287f03a287efb249d714460001b62006f4c565b6200d083816200e832565b6200d0b17f2f1b797cbc70ccf66442f70b141404640b6b23a9da66320efde7b657b98ca8a460001b62006f4c565b836200d0e07faf989619a600dd1cc02b3d94ecc00d49daf97777038412bd758ef87b53fd25e960001b620028ce565b6200d10e7f2bf40434b766cb4317e0e943002c0df15add9636a1edb5efe562e6b1d8d2bfba60001b620028ce565b6200d13c7f3e50832242263fbaa40c51b2ee0aa03d43190059646bc64f4dda5e3adaae135160001b620028ce565b6200d147816200a0a3565b6200d1757f3e2f079b4c2d06d248f27aa1c03f553ed01daffd4243a56b19ebbad90488edb360001b620028ce565b6200d1a37f4f7640d87cd75653b2913a1b730afb0b57f57112c294561d15721041ffb234ae60001b62001523565b6200d1d17f80f7ad2a964574c2e3c86f5219a88d34490df6272bdf84ec68d2518505858fc760001b62001523565b6200d1ff7ffc11a1a1db921840e0542c19118b5cf0d4a2cbea70aba7c0ecbd201584eca71560001b62001523565b6200d2158360000151518460200151516200b68f565b6200d2437f0cf31d7a55dcb2270b3fb23a6d1bea7883b37c6ce7bc81dc2310570a6f4c2d2c60001b62001523565b6200d2717f65ec5e622e3de22337ad63f4314ce759d38ed035e4eaa23a32ad102b47252d4660001b62001523565b60606200d28284600001516201474d565b90506200d2b27fbd90902df8563001d99fc6a841df1b962cddfa52ec45a317f6b634085308f20660001b62001523565b6200d2e07fea0cea0c362e306a43d5c3c6f83b3e43a10a67cb7b43f568c7a58ed0adbd6c4060001b62001523565b60606200d2ee8883620149c4565b90506200d31e7f39fa6a13f97c43c5453d4096bdf1bf9ab984d327ff6c5520e7957399d6df6bd160001b62001523565b6200d34c7fb3364a554a7507b0ac80c94f7210b92b849aa62dab04b313e5bdfa062aca8fe260001b62001523565b60608060606200d3618c8c8c8c8c8962014cd7565b9250925092506200d3957f983bdbff5a3d5871f3b04a568d446e9b4d3f7f08ddaba971b7cabb4b1053c25460001b62001523565b6200d3c37fb628667b07a0a58503701f30da94f7897fc4bed0976388ee8f75987fd3ecace960001b62001523565b60006200d3d08c6200bc92565b90506200d4007f73f37977d6be59489c5ff771410dc99b7d9e0793ba9bd784e5f5573b452aa81060001b62001523565b6200d42e7f5d04fed77b81a1b605addc422b6d29ad39df0fad496def35f25411e6bbcdc91560001b62001523565b6002808111156200d43b57fe5b8160028111156200d44857fe5b14156200d542576200d47d7f92a9c77fca26342ba23f9de01759746e061ee68633de4d4ea37b68e7c95a277960001b62001523565b6200d4ab7f684a3a1af8272ef9309d7c99d044ec440b8446040f716a888330fb0696720c6e60001b62001523565b6200d4d97ff43956a6b4fdd4c28cb85c1286c16db61b86f01818faf57535ed5a76214abecf60001b62001523565b6200d53c8c876000815181106200d4ec57fe5b6020026020010151866000815181106200d50257fe5b6020026020010151896001815181106200d51857fe5b6020026020010151886001815181106200d52e57fe5b6020026020010151620150ed565b6200d6f4565b6200d5707f623040d0701a23b0fe60a765731b6d523498c97aa69a2194c86f5e70553afb3b60001b62001523565b6200d59e7f45c187068a0be8156fc413403e64a532723aa6be5c99662a3d4e6335ae3bd76960001b62001523565b600160028111156200d5ac57fe5b8160028111156200d5b957fe5b14156200d65d576200d5ee7fc3587fe061988a764c859219988d81ea034dd8a3844800a0384d51c35f34932f60001b62001523565b6200d61c7f95c10af514b7fdacd90a0db92c108fa7515bc80e17158ee18a489206c7afecf660001b62001523565b6200d64a7f89fbbc41f46f1523b8805acfbe866fbeab0cb1742cd591eca436d32d63d0ace860001b62001523565b6200d6578c878662015287565b6200d6f3565b6200d68b7f564b0cc30d1c40e532edeb5c0c0e513a51625b31d8cfc26d3f90e8bb11d64ae060001b62001523565b6200d6b97fd749dd0bb8663a71bfff66b27cdd8cad25178cdbe2bfdde2bcb960e15c903c1f60001b62001523565b6200d6e67eb979b05c240dbd96d230d65167a2f123d70fc8c3aec073de4a6fd94a66dd6c60001b62001523565b6200d6f28c8562015409565b5b5b6200d7227f936443773107670fbd7562ece9c62b003b88df318630b8f05cd7d3ee9d5ab2e260001b62001523565b6200d7507ff14d9dbe34936478b1bd8f27edbd1a84582e6d1a8269cda6a5eb3caa12880f3f60001b62001523565b60008060018111156200d75f57fe5b8e60018111156200d76c57fe5b1490506200d79d7fdf4da36dbcc21b03af4fd7b2f3f19e93a57ea7d7db402b0538539e81f2d499f760001b62001523565b6200d7cb7f629cd598ea8ad342bcc63d6014a00e05cf0a8ed4c1bf39c8b1ee3226e265fb3960001b62001523565b8b73ffffffffffffffffffffffffffffffffffffffff168d7fe5ce249087ce04f05a957192435400fd97868dba0e6a4b4c049abf8af80dae78896200d8118886620155ac565b876040516200d823939291906201ef59565b60405180910390a35050505050505050506200d8627f0caf7107376224202848440e797a23bd53602dc240e67421095a2aa32637216160001b62006e91565b6200d8907f034cb29cce6b6361d9c228c8807e63d7d7dd24beb68aaf203424cd5a698f286360001b62006e91565b6200d89a6200885b565b5050505050565b60606200d8d17fca8913f29b23d2e415bf823d922d91539295455118270360cd88265c7b08469360001b62006e8e565b6200d8ff7fbceaf716dc96ecfbb6c3cc4ca30c7b650edf066f1a0df4b55b9928afc7ec375660001b62006e8e565b6200d92d7ff8cabd65d0a877c1542d8619f8d4d5db5e882b646bf88bbe01cf652c981fa39c60001b62006e8e565b835167ffffffffffffffff811180156200d94657600080fd5b506040519080825280602002602001820160405280156200d9765781602001602082028036833780820191505090505b5090506200d9a77ff62388cc69798d48ec7421602ecf2a3403dc48114a2f40d7bd6ad81f0b3ba7c260001b62006e8e565b6200d9d57f8bb07470f63d01d16245776367ded8bb9d33651de41818ae0b0975e3b9a0770460001b62006e8e565b6200d9df6201d3e9565b6200da0d7fe5d973aff7fbc83c2e217d16beca8482f7db35a489b8dc6315257ad4dffade2a60001b62006e8e565b6200da3b7f6fad9c1188ecc597ba3720051449ab1a0a194c1eecf70e3623ae6827b583fbe060001b62006e8e565b6200da456201d2bf565b6200da737f9dcb4288f1c0dd0ec183307fde5504fcf692d1f2a341398f062ea2d22c8dbfde60001b62006e8e565b6200daa17fd4b7f555d2a4b15bd4585dc734856e7a43d8a40934f5fb4bf861ae8db53a0a7f60001b62006e8e565b60006200dad17fa5c01d0c195c59f176a2be672afe1d7dda748e7e2a9907003cf002b9911a6ed160001b62006e8e565b6200daff7f310ac2fc592edb154ba83a734a82c6fb6165928c348f8c21de9fb8a9ea67ab1160001b62006e8e565b60006200db2f7f9eb44a938a4c31a0433cf0e0e4d3906c327eca5e0f8708b741f0f995f9f1452c60001b62006e8e565b6200db5d7f18ef91653693e5fff5b353cb0a36dbc8a536f9467d3fcb28cfcb40fac27ef4b560001b62006e8e565b60005b89518110156200e825576200db987fe751830d3630d2b913bd2a347023af59d0f5aaaa9768b1abd5bfc44a5acedc0360001b62006e8e565b6200dbc67f9f9472d26d85684c14824fb22ab0b7087d58125b6d35a208a76dc6b901c0ced360001b62006e8e565b8981815181106200dbd357fe5b602002602001015194506200dc0b7f20e99e0454334b3f1a2f8615eb5e80c28e0dc3fbbbf714d26ddd13b9d384195660001b62006e8e565b6200dc397f6e8a23db905774575ecce84ab768426c551c0d53a60a509dc04c6b63f4aaeb1560001b62006e8e565b6000895186602001511080156200dc54575089518660400151105b90506200dc847f04ec2db7fc04b39596c8ad36d9c90bad35d3b2780913e2bd91395c665073464060001b62006e8e565b6200dcb27f106b17e950890a384a7d63be38cbe088636369323b54b947be2a7c84acf67db460001b62006e8e565b6200dcbf81606462000d70565b6200dced7fe0be233525df9e0895dd24b676adcd78676cf9fe4da015359a05a180d1ab39bb60001b62006e8e565b6200dd1b7fb9697388985eae5003d4de700d15c4d68c08c43cf4e1ad1f82376b2aedd6512160001b62006e8e565b60006200dd408b8860200151815181106200dd3257fe5b60200260200101516200a367565b90506200dd707fe39f14f789d462a43b99412921d4b2bf23a76a9626b884de842489b24947bc5c60001b62006e8e565b6200dd9e7f7be2a992bb79021d13b726955a6d6d21f4c03eff59dc7cc71ec6e8a7ebb6035460001b62006e8e565b60006200ddc38c8960400151815181106200ddb557fe5b60200260200101516200a367565b90506200ddf37f64344a0764dc55adaf6318a849c2ed4e2eae35590ea8f4b3cb7a88aadc19d5c260001b62006e8e565b6200de217f44d735f51e2d55a4a52c882a6b8f59e0c232630032ed5ebb4b7a4c12fe962c5060001b62006e8e565b6200de5e8173ffffffffffffffffffffffffffffffffffffffff168373ffffffffffffffffffffffffffffffffffffffff1614156101fd62000d70565b6200de8c7f26986743e0a85cf28443ab93f847a7104af9fbbf10aef8ff6fe2e579ca6fa6fc60001b62006e8e565b6200deba7ffe303f7ca0cb5c08489beb2c69e83fbef7a716af17af36b82058aa67af43d2dc60001b62006e8e565b6000886060015114156200e0d5576200def67f524001fb57ace2dbd965c64b34ec62e45db0869757e9ad314fb3f8dabfeb7cff60001b62006e8e565b6200df247f5542771ea424a2dc34d7d94cbaeb24ee4167eba20e0246582ae157cf0820415360001b62006e8e565b6200df527f3f01b8c38a3e827e0852101296567bd5452547d384619170eae494b29845877c60001b62006e8e565b6200df63600085116101fe62000d70565b6200df917f0498fc05e74952a71034d84e8f7cd58d60a315d9b5ed83d488bf7fd6e45f6c7460001b62006e8e565b6200dfbf7febbfe47ce05dbbe110705f3d2bcfc0b13651fb774c83573c5363e8335f1aec9260001b62006e8e565b60006200dfce8b8484620157b1565b73ffffffffffffffffffffffffffffffffffffffff168773ffffffffffffffffffffffffffffffffffffffff161490506200e02c7fd63e184740cd540d4baa39405eb5f1a940699579a0de3f1533e1766bb14fda1360001b62006e8e565b6200e05a7ff34c09317638c15e7af3a6da2727e5c98aa4706aea3c709d9e7427d904fb9ec960001b62006e8e565b6200e068816101ff62000d70565b6200e0967fddddb594bbbff7fa9d7edfa831c786a230387ece3e26285b61608eb15174f16260001b62006e8e565b6200e0c47f60f731a96f65d8c5cc603903a42d8914e3ca95f6d9035c64eb0c1cfd67c67ddf60001b62006e8e565b85896060018181525050506200e104565b6200e1037fd4d0108b110a6f92520f1c7d8cb4f0f38e0b3133d8bfd4cdca070a52ddf8aaf460001b62006e8e565b5b6200e1327f54052a282368aecce9958fdc6f48c6a55dba094180aad0b5343fe1f32085058d60001b62006e8e565b6200e1607fca9100f81b723f34af3dad2fe06effac9d8fc27fec443f3d15bd27c86e86508e60001b62006e8e565b87600001518760800181815250506200e19c7fe156300cd5c0a8736920bbeb37b619ca2c3604607b30ca4b5a9d77b30ed4f14f60001b62006e8e565b6200e1ca7f1feca2ca1c5b2b8bc106db089bcb7c8c677f4c4d870493ec93445f416d40c72160001b62006e8e565b89876000019060018111156200e1dc57fe5b908160018111156200e1ea57fe5b815250506200e21c7fc32bf328ca5889a12679b3f05aefe895e40354a1dcaf55a8a0195e9dc63c5e0660001b62006e8e565b6200e24a7f9a721d48a456809674d0c0bd02e7e524c51e5c93757d8db0d7ee1fc0fb36775260001b62006e8e565b81876020019073ffffffffffffffffffffffffffffffffffffffff16908173ffffffffffffffffffffffffffffffffffffffff16815250506200e2b07f93cc788670c05c351e68ce24148ddc6756d9a2c36ca121de093f5f477ed273f560001b62006e8e565b6200e2de7fc759bf569f1ef9facec01fcd2fd2104fc91f95c47d780798988590e12e51663c60001b62006e8e565b80876040019073ffffffffffffffffffffffffffffffffffffffff16908173ffffffffffffffffffffffffffffffffffffffff16815250506200e3447f804830d70e466650c7054624cb9efc329b74c6736a8c201630331ea34873913c60001b62006e8e565b6200e3727f4bd8187bdf6a96768291fcaf637a9218346f9301bff8e3e5da29475ec5adffc960001b62006e8e565b87606001518760600181815250506200e3ae7f43ba1c55f690dceadf3c170bc49a138667d239325d4be240845021fe3032e01a60001b62006e8e565b6200e3dc7faeaae08910681a4e4c8ad0f8263f3bd393cd18af2d9115f7570bcb985c5e61b660001b62006e8e565b87608001518761010001819052506200e4187fbc47982312a50f49e7f762ced838368d6db14224b4e7add09257b4f593b7b03160001b62006e8e565b6200e4467fd9fba3e263532c1767dab488221d3fc1c3bfba180c84cb32999ec511953d4e1e60001b62006e8e565b8a600001518760c0019073ffffffffffffffffffffffffffffffffffffffff16908173ffffffffffffffffffffffffffffffffffffffff16815250506200e4b07f870a631bc48cd202ebc0475c637a6a65b3d368da3017344740148778d8e7417960001b62006e8e565b6200e4de7f45976f8576c9f706393c2a9b5a685a053a0d603ffef717659d8f6c953511f26060001b62006e8e565b8a604001518760e0019073ffffffffffffffffffffffffffffffffffffffff16908173ffffffffffffffffffffffffffffffffffffffff16815250506200e5487f217681b1f5dad9425751345a1c723a9d175ebee66276aaf2584fc008416382fc60001b62006e8e565b6200e5767f47928e8239e6a920d1e159ee9cccd6d3fef7bddd4a35c5c16f6390d5cfc0dfcd60001b62006e8e565b60006200e5a67f233ddc6ea9148ad35473ef3ae88ac500b52115e582b08ede64b936487be8c82f60001b62006e8e565b6200e5d47f436eb1abc19d975a9b66478888d5020d1329bf727fe3a22b2175c4a7c912de5960001b62006e8e565b60006200e6047f6cc165aa32d990ee9b38ae8c666d2d94b4e5da9808296714d14ddab1d0bcfecc60001b62006e8e565b6200e6327f489b7285cafc0d4582cfdd0e87af932cd0d9814974475188534bf72775d70ac360001b62006e8e565b6200e63d896200a426565b8093508194508299505050506200e6777f6f33cfe7518731150cc9cfd11c4308911e51aa2875528859beccbec161a38cdd60001b62006e8e565b6200e6a57fe899b13b34b034683a1f536bb79ce14aa195858535f8b7781def38273405130d60001b62006e8e565b6200e6b28c858562015870565b97506200e6e27f14e895dd71449713cc1a2719be3b3e8f94dc2e46aaa9b30912fe586b8c7ece0160001b62006e8e565b6200e7107f506c0c56e4f03a50115d1a06e2c12bf1983d8a4c393c6787d96a7f1404c6b3e560001b62006e8e565b6200e7476200e71f836201592f565b8c8c60200151815181106200e73057fe5b602002602001015162015a4f90919063ffffffff16565b8b8b60200151815181106200e75857fe5b6020026020010181815250506200e7927f1423685f238d8609e32401f60e4dc7883c3922ccba61527914df1d32b46c269360001b62006e8e565b6200e7c07f1185f0f728bbb125878d8110c4b78b856616f3a51e5a5e0e0e8538a5302b6c8160001b62006e8e565b6200e7f76200e7cf826201592f565b8c8c60400151815181106200e7e057fe5b602002602001015162015bda90919063ffffffff16565b8b8b60400151815181106200e80857fe5b60200260200101818152505050505050508060010190506200db60565b5050505050949350505050565b6200e8607fd04b704b7ab72a5ec5b4910dd77bf405b305f72bb9ab5d3650fb146baf462ef360001b62006f4c565b6200e88e7f21a2d8a7894ab985ccae2a23906a85746baf058d83e8f655c7c02f7cc01108df60001b62006f4c565b6200e8bc7f989280ddaa673ae8d2f2f24dffb42e40659b1da54aa5bb337165b13a89978d1f60001b62006f4c565b6200e8ea6005600083815260200190815260200160002060009054906101000a900460ff166101f462000d70565b50565b60006200e91d7f385178b220f3b630fe93ab566003485821d45a76c7885c707fd7eea5893245b060001b620028d4565b6200e94b7f6b77dd4adb1c2a609218e3e1a94ac1980a0399e6b356d77fa31e79ffe0362dce60001b620028d4565b6200e9797fb84c4da971259b35e7dc0095aac782c51642ce327a7b3ec8353f3caa0e65bb0560001b620028d4565b6000806000806200e98a8762015d64565b9450945094509450506200e9c17f918fd8fe9612f60a663e6768c89bea70ceafcb6e816e340638c114480be909f160001b620028d4565b6200e9ef7f87bd4ea5ccec71150857f41362e247fdecdc4815f70655ebea9df74768e1791660001b620028d4565b8373ffffffffffffffffffffffffffffffffffffffff168673ffffffffffffffffffffffffffffffffffffffff1614156200eabb576200ea527f13bcff3628800f0fd4c14fda8733860a66a36791b6b1e6a5f06cd758b1453a8f60001b620028d4565b6200ea807ff2738e0a6029ab56cd37c2c27f3cd9a09a8611150d5dadb63ddbcad03b9b4a4260001b620028d4565b6200eaae7f1abe0097cfc2fb80556bbad243fe8b94321f9006844e65814d2b23192595bef560001b620028d4565b829450505050506200ec7f565b6200eae97ffd46bfe3530cfa20182b393f5a9b40bce64be21359f67a44dadd618b096f03f060001b620028d4565b6200eb177f58d6a42ba602bbfbd67815ccb07fce89334f0623f8abec32e40db84f0746f3c360001b620028d4565b8173ffffffffffffffffffffffffffffffffffffffff168673ffffffffffffffffffffffffffffffffffffffff1614156200ebe3576200eb7a7fa32fa530a33c3b4a961fad3ca9a48f995818d71e6defde377e774113eeafe52060001b620028d4565b6200eba87f1d88ec84b4cb8b5f31a9f18a5000ae1084eb3e33ccabb5f24592bcea0f1c3ce660001b620028d4565b6200ebd67f08bd067a0426d3f1c1ecdf54a8190e55b38ea6650f7353b1fc2688f8c1359fe160001b620028d4565b809450505050506200ec7f565b6200ec117f3b8c1f3fa33ac1efb4d0753bb698d000f0280171488829ca7fb0a4b580fac48f60001b620028d4565b6200ec3f7f4f957bf9564f644950c0be48df0569dec7b65ff34351fce1eeb65dba8e669c6560001b620028d4565b6200ec6d7f841e7c9961a4581ddb7d0393a9a7ecbf0afccf8fe217854ef513edf6523d3ee560001b620028d4565b6200ec7a61020962008445565b505050505b92915050565b60006200ecb57f83267b37169f7db621c6943e68c032fe1a026aa82264a5354ad6d9b33742a03e60001b62006e97565b6200ece37f75bd41b324bbc5a0d706ceac8276910fc6a1de8d838971015aac03bb32aecc9760001b62006e97565b6200ed117f32d2b13ad3edaa05b6a6db219df2c5c937835064f9bc7fa805d9343ced57b77260001b62006e97565b60006007600085815260200190815260200160002060008473ffffffffffffffffffffffffffffffffffffffff1673ffffffffffffffffffffffffffffffffffffffff1681526020019081526020016000205490506200ed947f3ce13c480a89b5596fcf9917a6f745f2e8462112ae5520d77e05a6bea1ba4c2260001b62006e97565b6200edc27fa93d22995629d160c53635ee0ce90f13101e38a17df8f1cefb69e59e4686dc5e60001b62006e97565b60006200edcf826201619d565b806200edfe57506200edfd84600860008881526020019081526020016000206201623c90919063ffffffff16565b5b90506200ee2e7f55735ec3c7a95f409393cadf62b44db3f2052102622ff4dc2982f7dc200d802960001b62006e97565b6200ee5c7f166d510fe25c4664ab92290548c134f71ae27162deb2a14a3188d095d7fffce160001b62006e97565b806200ef66576200ee907f5ff31d80ab4fcba885e589a0e44472eb73155ad8854e23263837afad194bdb5f60001b62006e97565b6200eebe7f0e10445ac84ea1fecefca5b8e957b5f49dc4625c68b8059893dd92dc6fe7092360001b62006e97565b6200eeec7fc5b2e30042adc3c0f03a3a92e0f06e42fc72da5783944740ce8880158bffe61460001b62006e97565b6200eef7856200e832565b6200ef257f328aa9f75d75e036144a78e1010094cf5ba74884de30a4306d1674a97927f9bf60001b62006e97565b6200ef537f5ef259773f8343b712557facc1ba3d84394aa1af597cd3dbd08e9c645c1cb26960001b62006e97565b6200ef6061020962008445565b6200ef95565b6200ef947fe8dabf17bc865cca0662aa98a02587e32fd2185e6af78797729d1b4e4aedf30d60001b62006e97565b5b6200efc37f7ec82d87300ac7628d009be2ed1b9a7ec8d29bcbdc5278ad1d47b296e6c3eabc60001b62006e97565b6200eff17f0cdcbf1450a14a2b30ea2e80b6ea085949e2c8ba5ed976a9397e37ba83744e8e60001b62006e97565b819250505092915050565b60006200f02c7f8271422498ccb9fa8ac4a074f6251026108c6d70f2b86c4edd7f819c8c29572560001b62001526565b6200f05a7f03f53297521125b940165e2b57d7a78d1b2711c5e60cb9a9c6aa5e7998b4bfd860001b62001526565b6200f0887f8871d2f767383a8364dbee9fd1f6bcf445f4ebc9f5bbe0a51c6abbe61419347060001b62001526565b60006001600085815260200190815260200160002090506200f0cd7fc6c82e21d7d8e70312601541edefb0a79c8ce34e1a331dc4387e17b1c8cc33c560001b62001526565b6200f0fb7f7d70c8f2440447f7ce927d5205d58323804ad8ab7cbf31bff1233d5e5bef89a760001b62001526565b6200f107818462013ffe565b91505092915050565b60006200f1407fadd9866e9b67fa3634634881d9ce58b16e6129043bbccdb4e5d78c169c667a2260001b62016316565b6200f16e7f48f597f1573a452b947739811f0d965b32fcb9b9559d20772c03f25defec09b560001b62016316565b6200f19c7f3d5018e885915a38328493095b02bf2107380618d245b135ca207ccccb1cd78b60001b62016316565b60006dffffffffffffffffffffffffffff90506200f1dd7f1eb3408785435f10514765d226c5c360971eb733a31422ffb807566140613d1460001b62016316565b6200f20b7f4383ef64535b48e428cce909b21d058a87cec65cb736f3a5138484bc21c72c3360001b62016316565b808360001c16915050919050565b60006200f2497ffbbb4334ef9af120854fdb9cbd4bba9310843f8575fee5161e3972dc6cdff7ed60001b62016316565b6200f2777fefc1a894fe71a8b420044319f7ffccd1a8a56480b2071874b25d55f44c69d1ed60001b62016316565b6200f2a57f6f15d892b204e34b27590a6bd840303f336cad2a56127e343af907f598aa726560001b62016316565b60006dffffffffffffffffffffffffffff90506200f2e67f6a96d8a7911a0a5a8cbad54b8200a24f9655bccc5406131dcfdbe862ab447d4e60001b62016316565b6200f3147f6f159a1ab81f7a83099559412cd8315e56e6f43b38334a39609f699ed7dcf70260001b62016316565b80607084901c60001c16915050919050565b60006200f3567f1a01e6e73b44d0d4e063ef1283633f21257472673cfb0542c375c9013066789e60001b62016316565b6200f3847fa5fec7b09e91b692f02f37d27e907efbf8dbaf27bd65cb1b2f8aaf4bfe1ded3e60001b62016316565b6200f3b27f35aceeed1775304231aca4d01080ee8f21ea48f0590e1aa63a9883245c20c59d60001b62016316565b600063ffffffff90506200f3e97f36a8eecfb64c23c84ccb3caccb0c7f9d5d68a847f8404656c6bca1964aa0ae0160001b62016316565b6200f4177f9c9d873a81468978c999830ed3079a401faf64b944b4cd75b179d02e211cea9d60001b62016316565b8060e084901c60001c16915050919050565b6200f4336201d3bf565b6200f4617fe796446b168c3ff51d53f20a631d7ebc4f27895d0bd205917a16a48ab463a65860001b62001523565b6200f48f7f7a40944a7c466f943cb87d5e50c4f27e8f95374644e7c0418b16a0cdbbf5e15a60001b62001523565b819050919050565b60006200f4c77fee8f497dba3f9b959673a0de2b69c664a24b2145ef237a7cd08e54a27860834b60001b62006f4f565b6200f4f57f9644806ece6f3e37ecfc03f972b5cc8ce9af472b1e52488c4067a9b33152219d60001b62006f4f565b6200f5237fd5abc6f63285ac67c969608d31794682b850dd3a874df750c4040b51c5ddd0ac60001b62006f4f565b60006200f530846200bc92565b90506200f5607fc631c9591a00454b3fbd8ca58791a6e43dd61ec638d7fe0d33c343e94e941ab860001b62006f4f565b6200f58e7fb67514f5744a22684d54980cd20b4cbd0f5fde47548c5d5a59b3b55cb9d8d2b660001b62006f4f565b6002808111156200f59b57fe5b8160028111156200f5a857fe5b14156200f64e576200f5dd7fce049de8a76aacc570e15cda1f570d0996def292ce75a44ebb75d74aa4045d1260001b62006f4f565b6200f60b7f99e79a3da78ab4fe8cb39ec85a0304082bd1401bb58719355e5fa6e5bc4a5bb160001b62006f4f565b6200f6397fcaaebe7e00c8e5faf199ebe60982a30b6153335334494d03add4888a484f8d6560001b62006f4f565b6200f645848462016319565b9150506200f805565b6200f67c7fb44ee1f869007244e53ea3b4554a4bf011d41f3fb0b22e0c3a268fa65a709a6960001b62006f4f565b6200f6aa7f9f4767c3707f5355b9fcb990a7060350495c243c9460b70c2e2746c21574842660001b62006f4f565b600160028111156200f6b857fe5b8160028111156200f6c557fe5b14156200f76b576200f6fa7fa049626bfe128cdb8fe89a76e4df62cfc90079bc2a1b58a5e326a5ac5cd97cdb60001b62006f4f565b6200f7287f539e2c31861cd423370070156262ebcd2a9d3e1f0ce81a872913b1a26d777d8660001b62006f4f565b6200f7567fe6a2bf1becdb72f316e4ecc24e0263ced9b4f9915064742f488b4dc16dca6aab60001b62006f4f565b6200f762848462016509565b9150506200f805565b6200f7997fa37d82370ccb95e74f7dbc721c7bc60a21a911283ae1911766b7a063c4a53d2360001b62006f4f565b6200f7c77f4d1be9dac975860d3842e4cd009073b7ff706e72681875bf21ece72136c7ac7b60001b62006f4f565b6200f7f57f92e859d78da7a8acca1807bef8eda64c2eac9625e877bc8ed2b4c829c63a566f60001b62006f4f565b6200f801848462016626565b9150505b92915050565b6000806200f83c7f50e88cec203e25134789d28482b8064416b3bce6dce6bb3ac447c6f74501016460001b62006f4f565b6200f86a7fa8f268ac082f4f2e3f776f79fef4dc6c41111e05d32e13370dfd888454e4d1d360001b62006f4f565b6200f8987fa7a4ef59266289c0e53d1a83a52553eccd1686e4ada307a1e1d105e45ec8b70860001b62006f4f565b60006200f8a5866200bc92565b90506200f8d57fa61fbe0ea7ff9bfdf3606631938ab120f989bebb48629e08530a34d28d9b346260001b62006f4f565b6200f9037ff288af78325c5dc6e3d13a18e18aaa81dab29f5677c11e119fe8a4c096ef23ef60001b62006f4f565b600060028111156200f91157fe5b8760028111156200f91e57fe5b14156200f9c8576200f9537f58c419ef86d67966bfd8992d7d44f491dff1a2b07387415ae1c8d6e0f5e8e68760001b62006f4f565b6200f9817f802be272174c1a56d22f29ce47193addc9ee60754cf4bd90bcf84bb455c6bae160001b62006f4f565b6200f9af7fd23ef3ce0c81ba963464e79b00a57bbcad8e561bbac5c10f5f316c73406a102d60001b62006f4f565b6200f9bd8682878762016743565b92509250506200fb87565b6200f9f67f399011f63fd31f01ead5f9be869cab811129e628ad0f14a4076a2f3fe84a936060001b62006f4f565b6200fa247fa64fb6614ad120ecf657cec9b2a33f4487efbc59b645f21435220a69ce19cbe960001b62006f4f565b600160028111156200fa3257fe5b8760028111156200fa3f57fe5b14156200fae9576200fa747f0f1a30c46a1a8634023d5edc6125218288a23b035363868546d72383b05b1c8660001b62006f4f565b6200faa27f5caf3ab1a30f5f4ecaa8f5ee3e2f2016e5c6ebe29de6ac1358934bc4643ceb4a60001b62006f4f565b6200fad07f1247da0cc2aa52faf36115e848d04ed198c56077d6b29b75ce5804a7bade83f960001b62006f4f565b6200fade8682878762016c5e565b92509250506200fb87565b6200fb177f3d266da5ca57f67a7b1de956d7c043540ff1411e28470c38463b4aeda6b6075860001b62006f4f565b6200fb457f2959535a1c8dc2ace24962339b5928892ee11cd1e01be0305d46c3809dfba71f60001b62006f4f565b6200fb737f554f0ce411490775c690a012c502ce29032fd2a13c60d429586ac30b6012cf3760001b62006f4f565b6200fb81868287876201717b565b92509250505b94509492505050565b60006200fbc07f0619b08396514f3014b4cd388f4277c5ee27d85e6ddf8c8e8741a4c70985e78660001b62004f2b565b6200fbee7fadf5ed2199ad87ddb5b50c063afe706a9746a5f97871ab751613d492674010ea60001b62004f2b565b6200fc1c7fdf8526b85b2735b3fbfc4736bf3d3dfa64ae072b5fd103fbe8a3f3cf1ebbbb3460001b62004f2b565b7f00000000000000000000000000000000000000000000000000000000000000007f00000000000000000000000000000000000000000000000000000000000000007f00000000000000000000000000000000000000000000000000000000000000006200fc89620174e9565b306040516020016200fca09594939291906201f243565b60405160208183030381529060405280519060200120905090565b60006200fceb7f2ef1cd7c18d727b14b3c5ab7c915b7e485fb9b8e8ac6cdb0bc36cc7cd99d5e5460001b62006f4c565b6200fd197fc4c986602dbc6b84c2d319e6e0b093d4f1f45da0fcc896e329ef918a72a3706e60001b62006f4c565b6200fd477fd40d380bb3e0672b98f8912b49bab8ef8ef768df5aedf951890c85d3329ca27a60001b62006f4c565b60608260001c901c9050919050565b6060806200fd877f9ebe3971ad4a3af0ef1fd7d0009ee137999e4214a0c472c3fc5f6fb368fd2d6960001b620028cb565b6200fdb57f3c3e36ea854c67d62f62e10c66cc8f0a83db9dbfff1c7bc66eb858738d0bc46260001b620028cb565b6200fde37f346bc74919a0e752ed413295d903cc5099c483361bc3b1898c7e002dbf44149360001b620028cb565b60006200fdf0846200bc92565b90506200fe207fa3aa50614cc52a9a74368d593b53d5e27e7f27a4c18779b3434be994dec6e01a60001b620028cb565b6200fe4e7f943a12bc744ec5e5111b418368e6ad5b72edf62949029c84d007c80cdf39ab4060001b620028cb565b6002808111156200fe5b57fe5b8160028111156200fe6857fe5b14156200ff0f576200fe9d7fcb7930b84448c05a3e6c0a9a08da6683b83ec0dd1a0fe9a8372721a159ecab1460001b620028cb565b6200fecb7ff51ce2f878b9b12db1070f02469f16be97fdb6fd1ead888a1b20bcd3020c354d60001b620028cb565b6200fef97f28dcc8bbda97aede288015546e85c3e920d571a6392ac5ac8784e6becd2310a560001b620028cb565b6200ff04846201757b565b9250925050620100c8565b6200ff3d7f2a1e4bf9f1890c31a8b97e43840524ecf1853b16e63127ecb13aedb549b4a50060001b620028cb565b6200ff6b7fe9b09da349e5806340eb32cee2328e1d25d5bcc970045dfed4f58b588f8c314260001b620028cb565b600160028111156200ff7957fe5b8160028111156200ff8657fe5b14156201002d576200ffbb7f8f197f407ac3a5013a951490e35186da55baac1932b32d142ca6d9cb364cd3bd60001b620028cb565b6200ffe97fc954869a6be42deb4fe34aa9220c9319e949b31214a1fad4430a6f2b75e1430a60001b620028cb565b620100177f3bafdd517fba64a24a9b96ee7e62fb0118537e18044f26a544d6363a49e603f360001b620028cb565b620100228462017bd8565b9250925050620100c8565b6201005b7f93cd1fd6bb6971f973e87253e36e78587d5ad3d1368902160754b39bb76baaf060001b620028cb565b620100897fae07ee404d5a87bed110e6f8573728610abc5bf7f8b1928ea0b89feb4c46376160001b620028cb565b620100b77f3ceec4189de2532ef1a450ca0821d3682e61125b2e4880743c38d0327a704f9a60001b620028cb565b620100c28462018031565b92509250505b915091565b60606000620100ff7f3e8b4060cad3f4b39c3fc952a8ce19cbf497f03431f1ebb9f5c14482a045281c60001b62016316565b6201012d7f0ff8b47c700261d15b3e1acbb0366cd45c93f3c330dcd9ba47a990238b43ce5160001b62016316565b6201015b7f71d53cb84719b448edb565a5171085ad1231365cb19816eb1f56e6efad92910f60001b62016316565b825167ffffffffffffffff811180156201017457600080fd5b50604051908082528060200260200182016040528015620101a45781602001602082028036833780820191505090505b509150620101d57fb4ffc5bca6a890661353537f0c4daa65952c8281d13c657504690bd313986df960001b62016316565b620102037f91a39ad80d02b87ec51b6f97e65046df912a1d1cb88a0d3dca49e020b1ff65a160001b62016316565b60009050620102357fed6b9e51d6e2556be21e61808cf14cd2b247596fa28b055ccf309f0d0c162df460001b62016316565b620102637f2087128cd0d1593051ba9a28ce441b1d35a842db72b13b39d5c04602c26becf360001b62016316565b60005b8251811015620103e8576201029e7fc5960c5fa144d2bcc59fec4f7dc62c8c4d915ff270353a2798a8e2a79cec38f460001b62016316565b620102cc7ffd01da8e6ab12d8aeb95ffa5d2219290136bbd126b0ca0ccd00649efab40ebe260001b62016316565b6000848281518110620102db57fe5b60200260200101519050620103137f25b34a72d973017b72046f0d81d5448e60307dae4627098bcbe9fbf6722ba06960001b62016316565b620103417f999bedeb500bfe1aefbe2bad6389931e33632a3fd6aa926d282cb765a08da5db60001b62016316565b6201034c8162018379565b8483815181106201035957fe5b602002602001018181525050620103937f9a0c89e8cdca5940f9122d79c7eac334d68794b2740a11a8fc705a59549d7a7760001b62016316565b620103c17fca05dca0d9e1a6551e204dbfe3d0bced3809f731eae845e1f33e9a3592172f7160001b62016316565b620103d783620103d1836200f326565b62018423565b925050808060010191505062010266565b50915091565b60006201041e7fac8fc678be500c908cf5fd935d4d28f0df357c3efdd7b097ebf7e7cc96f2edc660001b620028ce565b6201044c7f939f084fb9265ebdd4e30fda2a897351a2c10f1e89f88485adcca637263b5ddb60001b620028ce565b6201047a7f3b6502967d9d5a045f977586fe2401e3f5ada0d2196aecbfc7a8f3421d93341760001b620028ce565b600460008473ffffffffffffffffffffffffffffffffffffffff1673ffffffffffffffffffffffffffffffffffffffff16815260200190815260200160002060008373ffffffffffffffffffffffffffffffffffffffff1673ffffffffffffffffffffffffffffffffffffffff16815260200190815260200160002060009054906101000a900460ff16905092915050565b60006201053c7f800ac4f59a6703039fde8e99d3e40a2db89f83b354a08affb6aee2dce964872d60001b620028ce565b6201056a7f6aabe84e35d19c0fe66d3587f53fd56566f6b0f318de2f02b27cd8d503395e8960001b620028ce565b620105987f601634a183b36869a050b4ea2491b29dc3521a46ef198f6784f97b357b70a07c60001b620028ce565b600360019054906101000a900473ffffffffffffffffffffffffffffffffffffffff1673ffffffffffffffffffffffffffffffffffffffff16639be2a8848484306040518463ffffffff1660e01b8152600401620105f9939291906201f11e565b60206040518083038186803b1580156201061257600080fd5b505afa15801562010627573d6000803e3d6000fd5b505050506040513d601f19601f820116820180604052508101906201064d91906201e1c2565b905092915050565b6000620106857f633575361293677c354aa75be6fb0df3da4f0971a6f32d953a7710472e039fa960001b62006e94565b620106b37f5d215ca4b8d64e6345bdc12b066481eedd69d3d3036590f548f85ae962a5d84f60001b62006e94565b620106e17fd12ec9407b681dd9d1fc9e3e33f25bf682b73a13720c1c31968001127ea614d360001b62006e94565b6000620106ef868662009a8c565b90506201071f7f0a534bfed1b265211041c992b0bc81074705fe575714b8b355ca2b4bc4f6358060001b62006e94565b6201074d7fcdec707f9964bc8db84f61ee5e1d15e401b02dbd55dfa38f14deb546a70e2d5860001b62006e94565b6201076783806201075e5750848210155b61020162000d70565b620107957fba669db6aeb7c12b758d7ce2ed387fc99580f334a601a88339d10802e20033c060001b62006e94565b620107c37f921c0ea0ae1fbd53be8e0d2fbcd4f0dc90a4147d46dd9805e5d7ea4ebe4780a460001b62006e94565b620107cf8185620184c9565b9150620107ff7f5dd6df3dce69a085197fbd6e58c0ed6437ed6abdfe06de60ceb94ac6abe1ab3660001b62006e94565b6201082d7f9d37240966c1a000b3a9cd9e0ab46439bc3095508511fb327650b6b0d908bb1960001b62006e94565b60008282039050620108627f645f467ea26ab8ad203427beae6490fdc21bda37033927d7d6ce836ef02e437760001b62006e94565b620108907f22f596b87fdc254ef3a5c4d7a87f5119dfdaffad8a315c4c59fdaee1a2d2ad4b60001b62006e94565b620108ab878783620108a2876201592f565b6000036201856e565b5050949350505050565b620108e37fa557a9c87f490b91a6466b976b3e523b52c97a0646b744f751c2e3c21b77997560001b62006e94565b620109117fc29fc3d58ed3ce415671adde1f3cdc0fb38541f39e62b0e7b5136f306f3adc7960001b62006e94565b6201093f7f60f52c639adb20a3601078d2a6ac0de5df58a1ebe8ae203071e0e2e99e5eb5a160001b62006e94565b60006201094d848462009a8c565b90506201097d7f170b0e3df9d70ec4650828aa76f3686e736bdac160788f1af4ffd125607b882760001b62006e94565b620109ab7f5cd08b7acd953569ec34253eb363e03e460df3d9c261c69f9875271f38ff988560001b62006e94565b6000620109c28383620092eb90919063ffffffff16565b9050620109f27fc4814ce7f18b291cda2b73efa07038d8a773b5ec3bfa013aae967b60b9f3320560001b62006e94565b62010a207f9105a43d5d1f164a0d453fd73d9f97f9912fb5a707e90c7c062dc21ed30bd73660001b62006e94565b62010a3885858362010a32876201592f565b6201856e565b5050505050565b50565b62010a707f0b145c599f65f3aeecbc58863419a8960b2d70b5bc716e146431ab671bb0ccbb60001b620128e5565b62010a9e7f9a9e2b8d27539fe77ed445e95ad50c7e18746427783633c78913507ff268315d60001b620128e5565b62010acc7faeaa1ca9802c3abfa540376b3fe6b2035f403bdd84a58c1cad671790c5e4dcd360001b620128e5565b62010b53846323b872dd60e01b85858560405160240162010af0939291906201ee63565b604051602081830303815290604052907bffffffffffffffffffffffffffffffffffffffffffffffffffffffff19166020820180517bffffffffffffffffffffffffffffffffffffffffffffffffffffffff8381831617835250505050620128e8565b50505050565b62010b877f8ee7a97ffbfeccfdf7f0b23d566a8f0fbef2d4507d6d88412d30c3cfb544baab60001b62018742565b62010bb57f36a44d967c7e2680159ba8f3a234d7fad26fae1936777ddff4fa7d73573c94aa60001b62018742565b62010be37fa97febf5a5e0e4a9cca8eed066f62c97f4299ed9d11e0440c95be9657b7a4e1c60001b62018742565b62010bf4814710156101a362000d70565b62010c227f634f9b4b63e9a5545213e3578af7eaa83c618aec863f8b7411805961c152469760001b62018742565b62010c507f9a3cd0d71d8a63e15ca23518cef2ffb4c5715b5ba6a958b91a9db13485d5439e60001b62018742565b60008273ffffffffffffffffffffffffffffffffffffffff168260405162010c78906201ee2f565b60006040518083038185875af1925050503d806000811462010cb7576040519150601f19603f3d011682016040523d82523d6000602084013e62010cbc565b606091505b5050905062010cee7f68e8522ffb8e5e453ca84780b1806f42e31c990d8621a3d6c889afc32b77d39e60001b62018742565b62010d1c7fd1cb948738dbc7c1a20d45bd22e3cb905eedb7a0c4f4b6072ce3e8e7b2c0bcf660001b62018742565b62010d2a816101a462000d70565b505050565b62010d5d7f4fa019bd0c17225fdc4458fe986bf50bc1a9afc1679cc4a0b2a50e434ed74b3160001b620028d1565b62010d8b7f06a2c96b2820c534839db961f174c4fd6c5b2dc59240e99cc89f10c3bb3fff0760001b620028d1565b62010db97ff1584b1aa30eaf27759c5b0cb8296b42207bf84fba48e07e467e1a2c98b38b1a60001b620028d1565b6000600260008473ffffffffffffffffffffffffffffffffffffffff1673ffffffffffffffffffffffffffffffffffffffff168152602001908152602001600020600081548092919060010191905055905062010e397fd724793b805b070e858affe85745fc358aa8b4dbc36f7a392e8463718a41ea8060001b620028d1565b62010e677ff4c0fde0501b0d0a010abef9331dcbe1951b4bf216b11d0e8833335c23761c2f60001b620028d1565b62010e7e62010e77848362018745565b8362000d70565b505050565b600062010eb37ffd1eac05b4863ead87f11c4a11e727a1b27f64cedbfa6ef04f0ca4f0fead91a560001b62006e8e565b62010ee17f2000aa52773d3d0ec4c370e494a7ad36d0365d7c55dbb3bd0938f7059c7bb46b60001b62006e8e565b62010f0f7fee4d81979e52ccbe321d830e25192d9c82da02cef9c0dddc5d2dd83bbe24d9e160001b62006e8e565b600080600062010f2d8660800151876020015188604001516201332d565b92509250925062010f617f8866ad859775899459c803eb67508b59a1b4471bcc5467b2488b793f6c42a3d060001b62006e8e565b62010f8f7f8d73cbd25b5aee521ba30bc595ae8951fc7e6d3d09c7053b650052af548e143260001b62006e8e565b600062010fbf7f55ffb73f0bc48d30ca9859e31d589f10469424430bc22b4fb4d973f03cba7e4a60001b62006e8e565b62010fed7febc78b5ecad465bc6d228a75ff87d44e0baaaf37160a0cc3ad74a187af9602cf60001b62006e8e565b60006201101d7f77a2e99ec9e92c99ebd75b0666f2d9f4d1872ab7bc469c2dd450051bb6bd14dc60001b62006e8e565b6201104b7f9f8b11249ac31270f8b660fb2b04fea28749854d6267ea5a83ce29ce6d9a096560001b62006e8e565b876040015173ffffffffffffffffffffffffffffffffffffffff16886020015173ffffffffffffffffffffffffffffffffffffffff1610156201117a57620110b67fbe88ae6a1c3a50d0b7b1b05bacb0f37387857b933296eacb14f866f69986aa6a60001b62006e8e565b620110e47f43d63dfb81f84ea8de860928c8422e8da1f97c6aa2f7c28c3e1f12a2aaabf4c060001b62006e8e565b620111127f5f3f5f258daba39769d57c952abd05201a4a18715661f9710ef74d2a2a79c13a60001b62006e8e565b849150620111437f6b14793a8a04f1c02a833f74e9378fabc92bec796792578677757573e8f295c660001b62006e8e565b620111717fbe2dfe6beb3c3c75aa8190bca79d55d8ab73522483ca664a81c7bf1fab9d104160001b62006e8e565b83905062011267565b620111a87f47de7ea853050a0099a140cd31bc19162d913ac0e6eaec5c9e7f8a773de5308c60001b62006e8e565b620111d67fc4d8b0082e721152bd49806975dd9ff7ca37cf407ac5bdfe5e3f3d623fb275cc60001b62006e8e565b620112047f375cff5fefa979047ef32039e46f2de47c0db7696fc93a9c63dc182b4195d5db60001b62006e8e565b849050620112357fc9d4a032b3b2c48a8aee60a142b4d731cc0018ad71b736fc4b8b4bea87ccfffd60001b62006e8e565b620112637fdbf32a317492a0780f1a9cf19fbe0cce9ff1dc0613077109e5a6e4b3199cb22f60001b62006e8e565b8391505b620112957f2b8bfa709053dd544e630d5f8ce52e1ea9c94ea6b0f9c22f6230e22fa33a458560001b62006e8e565b620112c37f8bcc8340e24b6dee4f55c47d786b93c79336a7bd340e6e9fa7f39decb0b0ddab60001b62006e8e565b620112d18888848462018da2565b8098508193508294505050506201130b7f189a74820559fe07f544ebc5df9e375b3517ad96fbc928ef2164933871ec9b2b60001b62006e8e565b620113397f188329bb6fa30739cbcfc86f19cfbebe69017dd18e642dfc557b594ea37a05c160001b62006e8e565b876040015173ffffffffffffffffffffffffffffffffffffffff16886020015173ffffffffffffffffffffffffffffffffffffffff161062011387576201138181836201918f565b62011394565b6201139382826201918f565b5b8360000181905550505050505092915050565b6000620113d77f959b3b875b56f4d35421ea7df1a2e3b51ab8258fd7126f7f131afbcff20a623760001b62006e8e565b620114057fe6a30082000292dbc87146abe41f9043d5f053ed55125fd6aefa68cf30345b9b60001b62006e8e565b620114337f7c1fad4a904f0ec964f24f86a191362d4357bf4c141b02c990db8447179a31bd60001b62006e8e565b600062011449846080015185602001516200ec85565b9050620114797f59c70727e6b132b0f909947507ee3103f4145909da135d9b394b241d58572de060001b62006e8e565b620114a77ffa59d984463107c87ba2a0ea663bc51ee01fbfdaf533dd0ab163777702f8981760001b62006e8e565b6000620114bd856080015186604001516200ec85565b9050620114ed7f6b26e40acd6c01bb48d9c7ac2a209097c3b4d6a254d1320a44a8575918f41ff860001b62006e8e565b6201151b7fe6016bce141899d3cc335f43ee12dd5f2c18d063a3f4cbcb651dfd6e1ce554d360001b62006e8e565b620115298585848462018da2565b809550819350829450505050620115637fe832cfef01ab10eb7aa520292a251ef52f40401a28d96f4d4bc54fbe3e0ac14460001b62006e8e565b620115917fc1532ef3d55911727ad3d7aff5c9a692af9b7c83fd2ab655d75c67e1ad6ae3a660001b62006e8e565b8160076000876080015181526020019081526020016000206000876020015173ffffffffffffffffffffffffffffffffffffffff1673ffffffffffffffffffffffffffffffffffffffff168152602001908152602001600020819055506201161c7f21bbae079d73a6abd4411f10f68cb4961f994ffb8e79d90070592cfc0e4956b760001b62006e8e565b6201164a7f76c04cceb861225bbd300670d895d479a5c5a0bb63c05c0611ab01e78743d69360001b62006e8e565b8060076000876080015181526020019081526020016000206000876040015173ffffffffffffffffffffffffffffffffffffffff1673ffffffffffffffffffffffffffffffffffffffff16815260200190815260200160002081905550505092915050565b6000620116df7f694a0f0cf0a1a2e4179f92f5323d54eb03da41f72c3945f86bf67fb0304f58f360001b62006e8e565b6201170d7ff0060c1db48d15a5cd816dda2997c4833c3ff3a4f9ca3626a59528f6f038766e60001b62006e8e565b6201173b7f963e69f2c84c1912699bf14cf479fd2c7e88dfbbc039965a680415e4b784656860001b62006e8e565b60006201176b7fa8404014722fbb70f33e0a4aca1296a754fb7dffc2b29218cdd38063b1fd344060001b62006e8e565b620117997ff63cf6cd32bc09dc11cf6f19a068b9d4f1410be5b078e6aca5639c15f736fa5a60001b62006e8e565b6000620117c97fd9d0ac45b90c46611dbf9dc6d26ec5ea2b1565364349a7852a6fe5681943526560001b62006e8e565b620117f77fad85ae280cdad8086cbbf9b597505031670eff8fc3c9c2053bf653a38d6ce88060001b62006e8e565b600060016000876080015181526020019081526020016000209050620118407f32f195de382f0427c9677478f7b785610d7e90968d3dfe5a1566353f0a618dd760001b62006e8e565b6201186e7fb79b868b4c9fea01800cd29bbb35d0746d268ab2f5618195c1b0833fff5236f160001b62006e8e565b600062011889876020015183620192cb90919063ffffffff16565b9050620118b97fc5f1bf0ab35162126ecae147d03ea9a5dc360e482a0f46e6376e6f1cf796963060001b62006e8e565b620118e77f9527bd1c482bc3ca2216d86a1fa1df9674734cc4038e50b62bd3aa5c6eddff6060001b62006e8e565b600062011902886040015184620192cb90919063ffffffff16565b9050620119327f1ea199acac0f4788d35f46bda9a2be9d8a4c28e8b6527dfa4f9cc2c46a9bd71760001b62006e8e565b620119607fc66aad22856d78008b391cb47a7d92f48ec9632280fe872cdacc143203ceb9a860001b62006e8e565b6000821480620119705750600081145b1562011a7e57620119a47fa5ca93d52824189264209e56abaa9fda7e3368e7b86781ea4f6a6e5318b8805d60001b62006e8e565b620119d27f281c2d6460ccd7225e6a495118286f2337c9a9c8d55bd6b73d65fc477defe15a60001b62006e8e565b62011a007fbf53b5f2a9a20058fd3462359ee552b385c0538fd7a0bb68f2393edd586d8ccd60001b62006e8e565b62011a0f88608001516200e832565b62011a3d7f4fffeda7668a83266d9b3ee0fb2f3aabe1123f9b91d7be9b7bdae7248988605d60001b62006e8e565b62011a6b7ffeb0da1deaeaa39175b96b34ec690740e96f3ebfafc21c106041b96ee5e07ff760001b62006e8e565b62011a7861020962008445565b62011aad565b62011aac7fda18506cd5107794756e03c48711060e761c65bd43a7152870757a07b8cf361860001b62006e8e565b5b62011adb7f1a7ae01bb29e901d410488e3bbdfcdb09c215233935b83748982e8840958ee8660001b62006e8e565b62011b097f2469628fab45c622e4f1ac6d868abbc2c235b4af7af65b60d369058d43923bb160001b62006e8e565b60018203915062011b3d7fc04179f3a525d2349466d2921bb9d98f0333da7ca4f61608d0a523e1614848c760001b62006e8e565b62011b6b7f31d8a93ef5a1199b6a7fe69c273caf2fa39ed28214fb3586f1e5f39bbe3563bb60001b62006e8e565b60018103905062011b9f7fc16aeea84ec480486a3181daec97efce6bdf63deba9397aa46e2052ca6ffd26060001b62006e8e565b62011bcd7fd7d6e96bb5e77533ac28baf3e9d45bfaf0c215fbcae7829c5fad33d2611047f460001b62006e8e565b600062011bda84620193a1565b905062011c0a7fbc554ba6393f8e789329c05cb569c43a86553d10159053aa0ed79df3a0d5a58b60001b62006e8e565b62011c387fcfd1353282226782c0fd97751ffba826bfe99e2c8974ad86cf0151ca2e55d5d360001b62006e8e565b60608167ffffffffffffffff8111801562011c5257600080fd5b5060405190808252806020026020018201604052801562011c825781602001602082028036833780820191505090505b50905062011cb37fd13fdd35ab48857761d3194d8d16db835e854f291fa07847d0d09b8a19b1dace60001b62006e8e565b62011ce17fca33d28dcd43f17906a470a67135bbbf9e988ef489355aef23921a45c480680c60001b62006e8e565b60008a60a001818152505062011d1a7fe0fed67125b7256d4b1a1f8a6e2c74b3366f4a6cfc31f0ac0374876734e64a9760001b62006e8e565b62011d487f2877ed3a4849cf10e1200dac8a78274ddb2ef3d24f0a4b928a56bdc3a5cff9b960001b62006e8e565b60005b82811015620120f75762011d827f3d9ef705586f37de129185b6a4c5673996fe268aa4ecc0d913a9f93e5079c21260001b62006e8e565b62011db07ff9d20af1bd5fee4c7ce8563bee5ceb8969ec58af2a6f1da4434353ef9b76b11660001b62006e8e565b600062011dc782886201943990919063ffffffff16565b905062011df77f2ee1239ed84adbfdbcd813a497712fec8b90902ad4afffba1ff4d153a62a27c260001b62006e8e565b62011e257fdbe2c93de9d1d7db1aec70fb32de3e46de58a9b370c78ae7b7532ae07ee6a99460001b62006e8e565b62011e308162018379565b83838151811062011e3d57fe5b60200260200101818152505062011e777fde5e0e7605cef916e00a2cd75c98d37b848a19b8df04fb3783f4c73787350c3e60001b62006e8e565b62011ea57f4761efbc49ad88be1cb96eacaa83f70bff95202aabec8c30943fa1267a66898c60001b62006e8e565b62011ebf8c60a0015162011eb9836200f326565b62018423565b8c60a001818152505062011ef67fc5edaefdfd3521b15651f2f31d15389389e791c38bfacc1dbbbf1e64b46ddd2060001b62006e8e565b62011f247fcca3736548633a860e3eb791c52e1592734913bb56938324e588df0f0775318f60001b62006e8e565b8582141562011fc05762011f5b7fbc89d8d1a2e2d461dff3d1e91301c34224cd2f2cc1b6cef36b2bac86be243fdb60001b62006e8e565b62011f897f137724589f0143d548fc7e43b0db7112a9d3267bd334444868f735b3906dea6560001b62006e8e565b62011fb77ff0f9f335e9e3e079f3373cdbbca20361dd24f3bb0c75f5f111d8d8448dcba90260001b62006e8e565b809850620120e8565b62011fee7f270f5928d70e89fd8e724e1aa6189a53e2f18a12e4bb9f2f0be5ebb3ee8126aa60001b62006e8e565b6201201c7fd62e77b1c85f83b88f6a50a2c6cd1d4f66c32b5a0498d017746a6c2dbda5a4cf60001b62006e8e565b84821415620120b857620120537f130da88fa315483119240b7b1b204b95cd6a63eee739090858cf8b1c7831884d60001b62006e8e565b620120817f9d9cf733c312680d499fa9eacefeb8190bdd53ce1d5701725833ddf9672ece3960001b62006e8e565b620120af7f72a434882b0e20adeed104a388f6bb9370f5d61ce7f2cacc73bde21ae80c254660001b62006e8e565b809750620120e7565b620120e67f6ffeb86abe33db1aff60c7b81f2db94f45f9100189f59ea594cff7e146a9837860001b62006e8e565b5b5b50808060010191505062011d4b565b50620121267f834316a08daf3ef8d6bdc2e424f3024d0c2f20b8a9da4a9c94660d060df316fd60001b62006e8e565b620121547f6ce8662e924f4ad89c0ca0db17e0ce0567759d6d3fcf59d2809546eab06cf6f460001b62006e8e565b8873ffffffffffffffffffffffffffffffffffffffff166301ec954a8b8387876040518563ffffffff1660e01b81526004016201219594939291906201f3ab565b602060405180830381600087803b158015620121b057600080fd5b505af1158015620121c5573d6000803e3d6000fd5b505050506040513d601f19601f82011682018060405250810190620121eb91906201e788565b97506201221b7fa78030c76e8a09c84ef9ef33a239343ceb84777235bc5f363e920254789e375c60001b62006e8e565b620122497fe087560774694de48b57236d161e1c86f20185fe7ad7c78f97bfcc15272a701a60001b62006e8e565b600080620122618c600001518d606001518c62012440565b91509150620122937fdae167b46c2f59bf70e1a8a7f9e936661368456ff006eb1db7af9c077d77e91160001b62006e8e565b620122c17f2e86b5c65ed0019ec8868e8bcf10f2dde166d71cac2c319872943f012b89adcd60001b62006e8e565b620122d6828a620194e690919063ffffffff16565b9850620123067f4d0a72011ce3f5354d41168cf985b2134313603678bac025b89c229d4f9f865a60001b62006e8e565b620123347f5437c9e2f8bf925db5bd0a0ca2ad37dc2cc40fc069ae732c1887f6525c3976a760001b62006e8e565b620123498189620196d590919063ffffffff16565b9750620123797fd0704e7685b904af0e6111d59839e8b9862490d7112e5c57b4f4dd960ac9803160001b62006e8e565b620123a77fe39550924d3cfb793f8372e61d2860c663413fba9c5713c0b5965794e1f3a1d260001b62006e8e565b620123be868a89620198c49092919063ffffffff16565b620123ec7f3f902437394e3e6601b548045a3e16a1da1b7efc61cf46e626bb81508cfe3e0e60001b62006e8e565b6201241a7f173a42680702df963a5385e569fc2c27d95e1a6c3b4d9cd64dbb2548c24203b360001b62006e8e565b62012431858989620198c49092919063ffffffff16565b50505050505050505092915050565b600080620124717fb06c6029d3a5b0ef9fbc2afcece51b19db10431fae3076e2a83dcfd018bb4d1860001b62006e8e565b6201249f7f64bb44ce43271d60bbe216dd07848fc35d23ca6e8cbe9f80d3d1847a963c9c3960001b62006e8e565b620124cd7fa3f8a517328c4fd2d45acb32d1f30a1a5387546ef1b7b7cd7889f630702e49a260001b62006e8e565b60006001811115620124db57fe5b856001811115620124e857fe5b141562012589576201251d7f6741695928fa3898fa52f4134db1ce65a38f022ee0aa6934ec5b618b646539a260001b62006e8e565b6201254b7f5c75927e7430224c0bf14d134dfe1ddbe485afc09691e0c8bd94059f499d28e360001b62006e8e565b620125797fc3463c4c6ba81fc8793dba37d3e5efddec81aa11829dc0f22e3ad863718674d060001b62006e8e565b838380925081935050506201261e565b620125b77f827bf4a9d0216f24131f33f8a31a2dddb81a50f5f5cd689287e48f71451de32d60001b62006e8e565b620125e57f7ec44a7d28e79d3fb4603d14135c98114743c9a84e67cdcba9c7660adbf2cc1760001b62006e8e565b620126137fb0e307a996094c0bdd553c2a07d7259ddccf8755a642f90eb926aa39f344d74260001b62006e8e565b828480925081935050505b935093915050565b50565b6000620126597fecedcab8d0f0b6a3000213e8cddc44feada52d5d1ceca994a1708f87a68f484260001b62019970565b620126877ff7a5e7dc62e206a3c02506e29058349ecd8dafef79131bdc1bc2e8e1249cd18360001b62019970565b620126b57f464c62fb9d6f36fb99d3416aa58c5d658e75acb5788f6ff32ba3c5125e2dd92a60001b62019970565b60008284029050620126ea7f62fa03b6cb0bf307621766f8e2c59c61c09f612d409ab410b0274a5d515f142260001b62019970565b620127187fbe2dae5901d1ce6fef70c1007ac171cbde128a670f8e63dedd387d29c32bbdff60001b62019970565b6201273d6000851480620127355750838583816201273257fe5b04145b600362000d70565b6201276b7ff751ce1bed0d21d854888f65c9afddf5fd3403e43d946bb14a67c1da59e974fb60001b62019970565b620127997f83338b898944f1b063429e568413716f9a77960254fc9aa061a6760b2c9cd5c460001b62019970565b60008114156201283857620127d17ff7d35bcb2b713968c089fdd9b59712b4eb62375d00e259e9dfce81aff0b8969b60001b62019970565b620127ff7fa22bc731dfb2440b39794a07130d0ad03e27d6b8166a162102b8307676d1ca3f60001b62019970565b6201282d7f69095262fb678ae5f47c6a9ffabcd4b89001a3eed701741b5f7c4710ecb6028160001b62019970565b6000915050620128df565b620128667f263c8cd579b54b7eae40140c5ccb8cd53b978485034df207bf14711955d29e4e60001b62019970565b620128947f56c98e1813cfb46ef95956e10763a8a2d34e9f3d345a2e254da0d46729917f7960001b62019970565b620128c27f966474f471122894d48e473af854379789a7b13e9e5227f3faf34cb4687e2f6e60001b62019970565b6001670de0b6b3a76400006001830381620128d957fe5b04019150505b92915050565b50565b620129167fc73e8649ad0ef875b1e018771227cf894f706428d24fb306d332cb64b663bde260001b620128e5565b620129447f5995e4ac6861bea4ec3dd78d65f64f09caaffdeba4cd04c1ef9414b2e767a94e60001b620128e5565b620129727ff0e8e33d2a56f579900eef6285e73397023cebacf08b2a9d5a8286d82842475d60001b620128e5565b600060608373ffffffffffffffffffffffffffffffffffffffff16836040516201299d91906201eda9565b6000604051808303816000865af19150503d8060008114620129dc576040519150601f19603f3d011682016040523d82523d6000602084013e620129e1565b606091505b509150915062012a147f6ad5e3f8c1e3e5c81d3da55aafebdde96316b7f9c2c2230c7facd9f79eef3ce860001b620128e5565b600082141562012a28573d6000803e3d6000fd5b62012a567fb958f400fa826471aff355a8cca63ec547811ec79f0dde05c0a50c93dbf8ef4660001b620128e5565b62012a847f51db9918a38ecf7bbe13ee24e10adb6d30a55e9b1fa4b7b2b4e286335a3634ed60001b620128e5565b62012ab460008251148062012aab57508180602001905181019062012aaa91906201e1c2565b5b6101a262000d70565b50505050565b600062012aea7fa61e67e0cc7cbf6dca1bad9e89d180e8919dcf916304a64f2ec6ececcc9d912c60001b62019973565b62012b187ff89557b3cf564068446efd7c55bd51b9e70fd436a35c6473f15adcd344506c6360001b62019973565b62012b467f26e85b743bb6b8312020797ab3e5ba6fc2d859a42fcf75a48659099e1275492260001b62019973565b62012b5283836201623c565b62012d555762012b857f7ef22654169904189010f597963bd507ba7347b8740691b4476cd67f49124e0e60001b62019973565b62012bb37f882135caf4af84c0e1bca9f79eea9de8f5065751adebffaa162d1be7bcd8971360001b62019973565b62012be17fd4763463e71726a43c654b8dbf128677d7b43a0ca60ea4949f53372a7348c9d560001b62019973565b82600001829080600181540180825580915050600190039060005260206000200160009091909190916101000a81548173ffffffffffffffffffffffffffffffffffffffff021916908373ffffffffffffffffffffffffffffffffffffffff16021790555062012c747fa3e2b33e886959093c6a0b3f0486c0415a5942638d5f7962dcbafebe762b71fc60001b62019973565b62012ca27fe7ef27addeab499367a977ce9fbac58dab6cba8562530386e737575a2e06c7e860001b62019973565b82600001805490508360010160008473ffffffffffffffffffffffffffffffffffffffff1673ffffffffffffffffffffffffffffffffffffffff1681526020019081526020016000208190555062012d1d7faae9952f0993be4f6477e9e870423701d8eedd54d02232ff8d5bf0ccd05d7c5c60001b62019973565b62012d4b7f6698fc4e1ad3506204b6591cbea4a9516be140780c6e774821ba525a78253a7660001b62019973565b6001905062012de4565b62012d837fcfe8799fec11d89ab8dc9f688739444327c48b7f0801c28255d98ea5e02ef43c60001b62019973565b62012db17fba7632cc0dabc22b2074585c4ae9fab51e277fd8f67164d832f32dc57620662c60001b62019973565b62012ddf7f86d37e5e32f04f1f5e60b0076fa21ce47f5fe546d5c5f7bacc1ccde7ded1557160001b62019973565b600090505b92915050565b600062012e1a7fc7b658fb428519953efcc7512d8590ca6cdda22178687d9bd519f83ef70497f760001b62019976565b62012e487f1d2c1b6805f03723453520513f4d3984b605fee239ac0d7a4d497415cf4113e460001b62019976565b62012e767f8be6b280ac557e623ab29624756ecf910d4ae8c76fb07158ed00d5ad4b2f37ce60001b62019976565b60008460020160008573ffffffffffffffffffffffffffffffffffffffff1673ffffffffffffffffffffffffffffffffffffffff16815260200190815260200160002054905062012eea7fb76e585a3611bb4f81690330b504f1c0714b785c42317267dd463bb0149f165660001b62019976565b62012f187f7b2937cd0e077b0f5fe0f0835e8688519dff7172054d99e651604f6e3b7e303c60001b62019976565b60008114156201321a5762012f507f889fbdcb10c2d7893abcd10d071f4ca30fee1708a3b3f65f6784fc797fdf9aa760001b62019976565b62012f7e7f8696144af5b05e04a2a5723b31dbc78d002e3aa8cf31b5757d56be8ce8efff2d60001b62019976565b62012fac7f33f6dbf4c73146bccdab1ad1fd0f23b60c0292deec108403116e5d7a6f743c4660001b62019976565b60008560000154905062012fe37fe01771be2f33739fceed07ac063deaa40b947119fbc43eca8ac89deabb5f7c1960001b62019976565b620130117f7b7a55b2ac1a73cc0b155b888076248aad5e0559a065d0dc5958a90cd1c8599d60001b62019976565b60405180604001604052808673ffffffffffffffffffffffffffffffffffffffff1681526020018581525086600101600083815260200190815260200160002060008201518160000160006101000a81548173ffffffffffffffffffffffffffffffffffffffff021916908373ffffffffffffffffffffffffffffffffffffffff16021790555060208201518160010155905050620130d37f30bf9f240b5de066216459f1ff7ff2ada40267aa52a4ed3ae1db14060cd992e860001b62019976565b620131017f89f9ba6aac380346aca0fd9ccba2bc01b642974879172865df5e387c53e4e34160001b62019976565b6001810186600001819055506201313b7fb3d83d1eb0f274a3305556dd91efa663dc1a2c9f09886feac21d8eda2fd8232f60001b62019976565b620131697f268df000a42f9efbc438810d99c1882b8a34d3f67e7e02f403772cb05d3fc60360001b62019976565b600181018660020160008773ffffffffffffffffffffffffffffffffffffffff1673ffffffffffffffffffffffffffffffffffffffff16815260200190815260200160002081905550620131e07ff4f0de4841a1862817722635536f21f641f28fc89523410c1fe10dc34f33633d60001b62019976565b6201320e7f6d0735b96f23ac5c18ed2e2fc50e2eed1349797f3ae6743087ae94072571ccb660001b62019976565b60019250505062013326565b620132487f41d00078e0f34f4dc6c96a6c492836974872392470bbb8f4e6a43c43b2f585bb60001b62019976565b620132767f3d3515b3eb3bd0b9a41f3a6a9ddd0cd295322fd7397b481501dec52dc1cd33ca60001b62019976565b620132a47fe6d7e21775e784a1de921e69168e595bcec9f19dfe0429e7977877d67db0ebc660001b62019976565b8285600101600060018403815260200190815260200160002060010181905550620132f27f06eb8814792145f9b92e0319502568bded914df69c816b09fff6ed0770ba4bb060001b62019976565b620133207f32937720dfa1783bc60308e8278fc7a1efdfead7fbb43d02738e9128264edbf260001b62019976565b60009150505b9392505050565b6000806000620133607f5bb2d8b4a575c33b46537973c94283659f4d998196ad192aa630400054d0998b60001b620028d4565b6201338e7fb224e664eedba6f9d8496122a69ddb975e74de296d0befd86607070821230d0260001b620028d4565b620133bc7fe698e5eb0d66b4a830608df73fac079852ff14fa3960febae7060f2f499a3fc460001b620028d4565b600080620133cb878762019979565b91509150620133fd7f6d4ff51cc8ad2b6dfdf5942b64ffd213ee079e90708870df9ed371e4d0d9d59560001b620028d4565b6201342b7f0d78a9f3bf226f4c39515921fca681feb488a5043debd661927d11e1c540a37f60001b620028d4565b600062013439838362019a50565b9050620134697f3eced769b0f0f738ff2118654888a8bac71d05b23720969a3f517b81a36a2f0260001b620028d4565b620134977f53dcf45277ea17cf0368eb3b6734c2103d693bd960c852e3c0abfc350b6bff5460001b620028d4565b600960008a815260200190815260200160002060020160008281526020019081526020016000209350620134ee7f6013718ff3c23dbb42b42ba6cec0c09274f51b596a810c4e6643de9e06c1305260001b620028d4565b6201351c7fff823807e39f927e3d5637b86021e587e262bee0507b2c49ef993cc94d5b750f60001b620028d4565b600084600001549050620135537f9e89dd5bec45a72fead7fccdcc3cd68077efaa09918efdbd11b9c5d250a2841f60001b620028d4565b620135817ffd8cfc613625532285c6686f9ed1d9582b1d744e15ed63ea46969b0f1d336e3c60001b620028d4565b600085600101549050620135b87f1608fa95cddae72f21d87249b240963a10388f6af325a3d7db04d1b37a5d1fd760001b620028d4565b620135e67fa3fcbe8c070ce8274d98e58b114fcfc11ce7b0e88e92ccb13b992a66d21aa7ad60001b620028d4565b6000620135f3836201619d565b8062013606575062013605826201619d565b5b806201362f5750620136198c8762016319565b80156201362e57506201362d8c8662016319565b5b5b90506201365f7f63984542edb5a52a3a69ae49ca98509dcddcc8c7af70325c491082e34806539860001b620028d4565b6201368d7f9063d6b278f1b199202f1fe7184afe51c2b9f2a4f83552e2b6f29d38632b4e4360001b620028d4565b806201379757620136c17f79d0ec5cbf8338ee95ad20e9f38518d7f951d0e7a3d6f2f465de469eaee35a7660001b620028d4565b620136ef7f5e885f4f3ce3040703a65992bbae2f9cf2c948ef440e76df467cb7e00176c4e660001b620028d4565b6201371d7f2758d77f2596d926187f4f6f27df8682464a91a608218406a2dd5d11035b30dd60001b620028d4565b620137288c6200e832565b620137567fae273bb42622542a05efa5d9e6389a80abf1c3998c7ac0e420bfa8e7933716af60001b620028d4565b620137847fd3ed3fd705ebc50f1c067790b3b14e0ee9322c57d70759ddf92861fb0f706f7460001b620028d4565b6201379161020962008445565b620137c6565b620137c57f8ac684258e29aab3faa5896910d52f49606c450db6ec559104759efb6f76817660001b620028d4565b5b620137f47f6a1d049ca9fca8faed3a2749a5c2ec6e093bf631b67e1e83d23f3de2eefa5e1360001b620028d4565b620138227f3781d768cd16949f663d4c62e5f6970f05f4e59df5835dd0c9016a86751509a860001b620028d4565b6201382e838362019b0f565b98506201385e7f34b4f90e26df2e9e5c3a2da970678d3cc3de2b95c5f4a2180c2c5c4c8b3805c660001b620028d4565b6201388c7f27a99d889f171c36ba2e42d45d1bda67bbc55a5ba822bf94b98997bfe687e22c60001b620028d4565b62013898838362019bce565b975050505050505093509350939050565b6000620138d97f4347ee8870e184862945cdd5162d1c36415be8d4cdd25e3d21d176c58d17f49b60001b62016316565b620139077fc8d157589da978592c22d4605f1877e69aabf5d178a963973eaae47833ce3ced60001b62016316565b620139357fc2ac12c41a90351e2629c3713331729e540d5703216feb0d6b16b8c9780a074060001b62016316565b60007bffffffffffffffffffffffffffffffffffffffffffffffffffffffff9050620139847f7686c6657e026518436d97e2cfc16e4abd0d5fd0d866ca35d84870fa0fe1c38960001b62016316565b620139b27fda3ab1daebdd8e2b155ffcc9a909852e23050638972b85e3983bd5b9441a6a4760001b62016316565b6000818460001c1614915050919050565b6000620139f37f60360cb80450f90dca8f7596990395902f85edfd112363ac56e99a70d1c863c060001b62019973565b62013a217fb60110ae50a59c66fb7625a77bfb8c9e7b0f2afbf800673f9f3d7d08647fe0a260001b62019973565b62013a4f7fa8c08625683a3fde50f623359bc802b13ed77566fab37ec10e7802ad441eeaaa60001b62019973565b60008360010160008473ffffffffffffffffffffffffffffffffffffffff1673ffffffffffffffffffffffffffffffffffffffff16815260200190815260200160002054905062013ac37f8f14dd7185bade4fbaf3ec52618955bf2ba16694730a466f7bed4d88c8cf151860001b62019973565b62013af17f7ec56a643584d76d718a7d9f7de9b49223bb15c498ce9811a1c1c6bae374bb1260001b62019973565b6000811462013f685762013b287f54e3323bab9c9a28462c0c60719c84a2fb9c46bd5a6126b4c02209c8ad0a9db760001b62019973565b62013b567f2915b8cb3fee02ba26f5cc4960264dad315835883b41e392273203d13f62692860001b62019973565b62013b847f2619ddec270c27e460e75279b1d13238cc87158793f17c34d8268db7ce905aa860001b62019973565b600060018203905062013bba7f23aa40dfe98d77dcf83c0f3447327149d46db63ae1b65412bb510b1e739c706160001b62019973565b62013be87fce66f357c6cf62df27eef42dbd39f43e30422243bf1535c1c96557caa4f6d4ad60001b62019973565b60006001866000018054905003905062013c257f5e6589743f7b5aa70bf0f4c46358b8fb164794c4ee8c9469479cb8bccea04ccb60001b62019973565b62013c537f991ac8e08d62fb0379c14f1be0fea4d485720eb7d0fda04ee260c05ac967818660001b62019973565b600086600001828154811062013c6557fe5b9060005260206000200160009054906101000a900473ffffffffffffffffffffffffffffffffffffffff16905062013cc07fa0339aa0a45b127e0ea16783301288eab4abc5119c5decd959d2e13bf0ec9d3a60001b62019973565b62013cee7f6847b65b64b90f9f00a3c430dc90b6075e5c0a5c1d0b7031aae58227b5a5817560001b62019973565b8087600001848154811062013cff57fe5b9060005260206000200160006101000a81548173ffffffffffffffffffffffffffffffffffffffff021916908373ffffffffffffffffffffffffffffffffffffffff16021790555062013d757fbe8de5f3ecba12364fc1fb068521b0957b3c3228a8736c23b5df72bd2882891b60001b62019973565b62013da37fd6e0c3fa67a72620040161ed86392ddbf25f2defabc1318f4c641af9bd64785f60001b62019973565b600183018760010160008373ffffffffffffffffffffffffffffffffffffffff1673ffffffffffffffffffffffffffffffffffffffff1681526020019081526020016000208190555062013e1a7f67dd655845a9442de63cd1dec75a340dc77a0018bc6acc998db7f99965ca936160001b62019973565b62013e487f68d4cd3d6a46a404070195471aafe2a32cadc8c3e948ad009f63c25ba60fbd2f60001b62019973565b8660000180548062013e5657fe5b6001900381819060005260206000200160006101000a81549073ffffffffffffffffffffffffffffffffffffffff0219169055905562013eb97f2c3d6625f2ef19932e8c197b4f2525f61866ec8f73af85df86d3cb173795691060001b62019973565b8660010160008773ffffffffffffffffffffffffffffffffffffffff1673ffffffffffffffffffffffffffffffffffffffff1681526020019081526020016000206000905562013f2c7f6df4bc64c873a8e9e5edb97d4a5c4c22124b96b69cb0c65b01c274fe539123fb60001b62019973565b62013f5a7f4ce56017dd41dc018e1e2c3a431bd00c36d45ac8cad9b883db5682c0063baa3560001b62019973565b600194505050505062013ff8565b62013f967f6bfb2bb3a18b1247263db63fcb038e5b782731869a53ec337cceab242d2b78f160001b62019973565b62013fc47f4fd44efdd0da82f4376a50124fc87e5879f1d42976b3b4ca40ac41209ce775ec60001b62019973565b62013ff27f75144fd471a5e1976594dc257e4c49fc7d0d6d1d2015d157dbf9eed14da4063060001b62019973565b60009150505b92915050565b60006201402e7f5e2e073ec6969a2fbc15548ab27d64fe065ec5fe3325b870999ad221aacdfe2e60001b62001526565b6201405c7fdbe1d690aebc0271498d1020a05b5aab097f4e7e50823284055560034afeea6060001b62001526565b6201408a7f1bdd85c1b94636f6e3ccea9d01c45d17d827dec19a39da4304455e2dccac4a2460001b62001526565b620140a3826102098562019c8d9092919063ffffffff16565b905092915050565b6000620140db7f7a8d56f96ccb292e3ed83dc1de876c1aaf2104db5c1099e709568a52b88a622960001b62019976565b620141097fa1f8a5b9aa230f7a92b1cde94c83369f8f5dd585a06934fcea4516ce7fa283d660001b62019976565b620141377f524f2cf00814fee556bb8036276e89fc0ff981c31ccde2fd6d36ff18523ddeaf60001b62019976565b60008360020160008473ffffffffffffffffffffffffffffffffffffffff1673ffffffffffffffffffffffffffffffffffffffff168152602001908152602001600020549050620141ab7f37f1b9d9b2f51ea9a41514c2cf366d28ed7c8e0d7747e178d24d35cf60a08d2460001b62019976565b620141d97f2ecfcd1197eed60049bcc3f60ae32417e90f496d799b53ad7b9026435aaba08260001b62019976565b60008114620146b757620142107ff55594837ee344c2ef7e944d5c0131f2b889c8d1147cef6e56584e09bddadb8560001b62019976565b6201423e7ff0b19e0ef95d61df8469966ae47f3d83e2d4ea1d0b2e38a0c0e086516fe97f8460001b62019976565b6201426c7f9eb4b2d509151165268b639c5efa07b16d1b5c5b2204c4a82378860009344d8160001b62019976565b6000600182039050620142a27f46bce7f526191325c3c89e3d2b0f1aca382056a28b470cbb48292897b5f5541360001b62019976565b620142d07f95c36ec6c13195cfca3865ed74ddfa2e051c22459e19493dc4675eb96e6ecb3060001b62019976565b6000600186600001540390506201430a7f112fa47574960a828fb6cfca30346b0f176298c5a03e77b39191419d2123001960001b62019976565b620143387fec237127e2c602a279bd96bec738db9b39bced938b4c89eb4abafcf65415f23660001b62019976565b600086600101600083815260200190815260200160002090506201437f7fca45ccf563ce63d60ab2d3aadb5a34e49ed724ff852fd8eb231fad67878837d660001b62019976565b620143ad7f8143ffcf22f84e89c4f6e4bbf7b7fb2a3ffe813c768f7c283790bb09703b2d2e60001b62019976565b808760010160008581526020019081526020016000206000820160009054906101000a900473ffffffffffffffffffffffffffffffffffffffff168160000160006101000a81548173ffffffffffffffffffffffffffffffffffffffff021916908373ffffffffffffffffffffffffffffffffffffffff16021790555060018201548160010155905050620144657fe0c2e84b0b9a63bc4677a66d3b228740b2635dd6bed7e518d6889d1d872da85c60001b62019976565b620144937f93b74957b323770b0021e6a0df6d9639a9ddebf2b69963c934b3727f7884073b60001b62019976565b600183018760020160008360000160009054906101000a900473ffffffffffffffffffffffffffffffffffffffff1673ffffffffffffffffffffffffffffffffffffffff1673ffffffffffffffffffffffffffffffffffffffff168152602001908152602001600020819055506201452e7fb4dabad7b4684988aea9970b09f00b7bee56bae01aebf14098c1ba07af70ea6b60001b62019976565b866001016000838152602001908152602001600020600080820160006101000a81549073ffffffffffffffffffffffffffffffffffffffff021916905560018201600090555050620145a37fac004b5c074e95c12dcec38b9bcba900f2d08bcd600fb69c8bb40e751f35849b60001b62019976565b620145d17f4d48de15b5af3af53efc040608898c4a4f99076b49e85b3c7a3692f96564273360001b62019976565b818760000181905550620146087fd6f493ad4e26134053807232086713641838aacdd153a430ef135133e59c368360001b62019976565b8660020160008773ffffffffffffffffffffffffffffffffffffffff1673ffffffffffffffffffffffffffffffffffffffff168152602001908152602001600020600090556201467b7f8a8fe87c4c5bb3796580a159ce1af950a4e42d65b0673c0d01f6ec13621a461c60001b62019976565b620146a97f5c40212d16ef61ab8e90e5998fc7a4e7e59efdacd2a7af9120e4785e1168f13060001b62019976565b600194505050505062014747565b620146e57fc36ad6b264f65c9ad75528f9247a15c57114123c5cc719071abe22b0afdd6dbe60001b62019976565b620147137f53f5dc20b18911e7d7c52c4d905f57f6d64dc67729fa42277320d49603874d2760001b62019976565b620147417f3bae08a3362e08b05403d22a1700ba1db689d97b992fa8c3f45fda64eb2b1b9c60001b62019976565b60009150505b92915050565b60606201477d7f782cc69f279a7baf0d8a227ca437e3f5b444d320fd2d08f12c8268fd9764675360001b62006d1c565b620147ab7f22d6beb3303fe2ee8dd6beec1f9c46b55d4bb67d68bc4728c3b17431f02a267660001b62006d1c565b620147d97f2cc38723c4bf3170d95b7f749e83319327a66a4ad0530f1e382cac45db9f63f960001b62006d1c565b6060825167ffffffffffffffff81118015620147f457600080fd5b50604051908082528060200260200182016040528015620148245781602001602082028036833780820191505090505b509050620148557fc147de005f892bf16c35aacfac33071a6a07244c42f9ddb1846c18e5742be11660001b62006d1c565b620148837f4e9e56b9989664a64b8ad1d22215e156ed4ba2343d49dcd2f283ed2b8129463160001b62006d1c565b60005b83518110156201495e57620148be7fb568d8175aab1e5b26a05f66110e8bfbede024922f572c75d7e1ac78e9b9e2bb60001b62006d1c565b620148ec7ff1fb364e8a6c36467fcab9445d3ef676eb8255087801f1401da443c03b6df2f960001b62006d1c565b6201490b848281518110620148fd57fe5b60200260200101516200a367565b8282815181106201491857fe5b602002602001019073ffffffffffffffffffffffffffffffffffffffff16908173ffffffffffffffffffffffffffffffffffffffff168152505080600101905062014886565b506201498d7f5eee7a8f65c49126b1f184ae898b4361a15c1e9e4186186e0e92e26cbd65f7d360001b62006d1c565b620149bb7f72150c0a73c8b5b8dae40cb3e5c29d283a4182659c74a723d725b747de92255460001b62006d1c565b80915050919050565b6060620149f47f0cf2ba911f0de17b28f0fdcda98f603dc52c69fcbc317c389cdf8b8d7a2f1fc360001b62001523565b62014a227f33aacbc1117499f982840d993133e328fb91d4ebc1f34c15ae9ddb7f0e35222760001b62001523565b62014a507f5c806b691a4cfd5b79ecad360c1cd3df3d46607192b9c7d4166b01dbdccfee6d60001b62001523565b60608062014a5e856200fd56565b9150915062014a907f8c20f1def1bdc0b6e0bd02b735c908808781194b1627753251e97aec31b7ab1e60001b62001523565b62014abe7f30ca12fddad00448c3a623cb4ee6d823b8c058818701f897c4c9039cad7cc66060001b62001523565b62014acc825185516200b68f565b62014afa7fb72b6b24ea2d5a38a136d185378b0cdacb5af769cdaaa63189b6f61220de877460001b62001523565b62014b287fa67b1077d4903042b1e7b32da023d528c10dd2fe307263122e0b1bd3ce96bf6e60001b62001523565b62014b3a600083511161020f62000d70565b62014b687f83d6269bfd065a9874cdebb012b84e80350b72fc82d2a7dd04e16f6d52e731a560001b62001523565b62014b967f3de361a92dc4dd5c25916db98d764e97d6b06e85c4208e953dce56350b7b2e3c60001b62001523565b60005b825181101562014c6f5762014bd17f8b6db251221bdebd2ae1fdf966896a609e5f4251e52cb7173840fb739074e2f660001b62001523565b62014bff7fe88a8fbaeb8ddf4f7d2b26c49398108e72eb097aad8c5f32eedd36d0cf05b98e60001b62001523565b62014c6385828151811062014c1057fe5b602002602001015173ffffffffffffffffffffffffffffffffffffffff1684838151811062014c3b57fe5b602002602001015173ffffffffffffffffffffffffffffffffffffffff161461020862000d70565b80600101905062014b99565b5062014c9e7f484f7ffb2403e361d9ecd47282ccd6fe86a04c6b00d3eb474d9f69b34e91577060001b62001523565b62014ccc7ff83336cb6f913456e06b870b55ed8966796d78527169ef3158b6a1a9b2b42d2a60001b62001523565b809250505092915050565b606080606062014d0a7ff6ce4d4392f7248628d4138b4693e25e74698269257ff1b57d2f71ae4d2edcbd60001b62001523565b62014d387f898001bf5c4df41e16a14d489fa0e1606a49abb7941aef909b771b57ef8bd24460001b62001523565b62014d667f1cecbc8284e55e6763fbae7be453a59448f2562eb75421d981f955749db0c18f60001b62001523565b6060600062014d7586620100cd565b9150915062014da77f26351cdf3ff1dc402bb46b560074b5b6da3a75480215b8af08764d3f835fdf9360001b62001523565b62014dd57f88817b8bd41a8beef80030a0e5588b165e080ad43776400f49bed0f2542fedda60001b62001523565b600062014de28b6200fcbb565b905062014e127f3a55ed3eb703e1e68ec21e221f78bb2aa74244beb4c2f1c6f8391ffa791499ca60001b62001523565b62014e407f7b75d520f065f8881e938f90866882bdad35165456df785aa71c4e87251a504b60001b62001523565b6000600181111562014e4e57fe5b8c600181111562014e5b57fe5b1462014f16578073ffffffffffffffffffffffffffffffffffffffff166374f3b0098c8c8c878762014e8c62019e3f565b8f604001516040518863ffffffff1660e01b815260040162014eb597969594939291906201f15b565b600060405180830381600087803b15801562014ed057600080fd5b505af115801562014ee5573d6000803e3d6000fd5b505050506040513d6000823e3d601f19601f8201168201806040525081019062014f1091906201e123565b62014fc6565b8073ffffffffffffffffffffffffffffffffffffffff1663d5c096c48c8c8c878762014f4162019e3f565b8f604001516040518863ffffffff1660e01b815260040162014f6a97969594939291906201f15b565b600060405180830381600087803b15801562014f8557600080fd5b505af115801562014f9a573d6000803e3d6000fd5b505050506040513d6000823e3d601f19601f8201168201806040525081019062014fc591906201e123565b5b809550819650505062014ffc7fbe849e109483fb43395a6cf8b40911271648eeff0fe8ba36b8f0bf0da3ce161d60001b62001523565b6201502a7fbdb36503251b1ad4fb9b65b00d456b99660c7aa0d83bcd5e3f0bc72f1ebcaeb860001b62001523565b6201503a87518651865162019f5b565b620150687f9ae409a82de9daa3c2451a7a6f56e283d639fe43ae79ca71d6364cf848e5f1bd60001b62001523565b620150967f845995890ffbd6fa3990db2353dc107c966d7f4f0b2f929231f964e88bf09c1c60001b62001523565b60006001811115620150a457fe5b8c6001811115620150b157fe5b14620150cc57620150c689898988886201a005565b620150dc565b620150db8a898988886201a4dd565b5b955050505096509650969350505050565b6201511b7f09bd8ab505a47f3f3edbbff7ed49cfabf8b415f8c8da759485819d530d1bc62a60001b620028d4565b620151497f76a2ce40077d0f300ec85b105ae0a21a4b32ed117074379e671ac4e3b13e4add60001b620028d4565b620151777f7d28c2fd982628ca712f6b67326b902c1260fde8048aa1f611f6be8e3fc1eb0c60001b620028d4565b600062015185858462019a50565b9050620151b57f3586043e8619bcc25e85e9a0223c7a0b826125faec83f7da4156371072d0003f60001b620028d4565b620151e37faa8645404073f72e028e2656de7ef04d82ec810b9703407d4e1b5ab40c0f5d3f60001b620028d4565b600060096000888152602001908152602001600020600201600083815260200190815260200160002090506201523c7f9f2f7b098476debfde79c5dfb56d88ecffbafb4ea6205a0e5838263335838fca60001b620028d4565b6201526a7f5e7beb0e9fa7782a9da096e02abe151d2c32685bf354036049d896fdb6dccd2d60001b620028d4565b6201527685846201918f565b816000018190555050505050505050565b620152b57f04ca848c8b2470e5adeb24e4e1dba0596ddeb10daab168712fe26dc9142416d260001b62006e97565b620152e37f320f08800f159dd08b513eefd50f50e5420844b436d1d07915cce844436121cc60001b62006e97565b620153117f0dac947a5c04ff5102f8fda1a63d662b1d92c0b595a2da0c74111df9e86202cb60001b62006e97565b60005b825181101562015403576201534c7fa6f7c42e231da6154875db3b94c9879d692e09b8a2b025d2afdc2374d96e10d460001b62006e97565b6201537a7ff2230e82f51f5a2c75fbd69c5879536cc9418139c94a31a9434b91b5c7c8f75960001b62006e97565b8181815181106201538757fe5b6020026020010151600760008681526020019081526020016000206000858481518110620153b157fe5b602002602001015173ffffffffffffffffffffffffffffffffffffffff1673ffffffffffffffffffffffffffffffffffffffff1681526020019081526020016000208190555080600101905062015314565b50505050565b620154377fd778f8bbf63f5e90eb5bea17c60e1cd7cbe0c666e17b8075967b09a5c2cd74b760001b62001526565b620154657febca65b6afc20792683a86b07bc3c9ae49f57dc9c41beba97eb5556485323ada60001b62001526565b620154937f0c5b15d4788973970205bae62cd060b1c5d9231de4e8956f0bf5eecead237e6460001b62001526565b6000600160008481526020019081526020016000209050620154d87f85744d75dcce65500ddec7d894d249409d76778d7de1e8dcdca0d1d6eb45cee360001b62001526565b620155067f4393fc95d06a0d22f60544bee004e5512170880d62a5394d633136aba904aa8f60001b62001526565b60005b8251811015620155a657620155417f2146d90a9684ed1cff1be835bdfc952e35a785fead123707092da9b2105d5ca360001b62001526565b6201556f7fe63bfd22712302f4c923826bdc8363ecf4735d7e3052e314d1831b9e958f1a5660001b62001526565b6201559a818483815181106201558157fe5b602002602001015184620198c49092919063ffffffff16565b80600101905062015509565b50505050565b6060620155dc7fabbd982eeb5563d5bde4b464904fabeaaf914e971753e7d9096b99ce79fc893e60001b62001523565b6201560a7f866c7c670eb18cb5d064e413ac94fac68d3dfabf583caabdb9a779cb7546311b60001b62001523565b620156387fde3d05aca6cc669605f67a45e2b146aa698a2a609186046bdddccaff4f6976ce60001b62001523565b825167ffffffffffffffff811180156201565157600080fd5b50604051908082528060200260200182016040528015620156815781602001602082028036833780820191505090505b509050620156b27facf1a87807027535eb7965f9f6588d4b84c3d13661b87658efd359e9376d2d2960001b62001523565b620156e07fe753e626ababe62060fe6047603a9e98b3ef584f23e741f98d5806edcadfaa7160001b62001523565b60005b8351811015620157aa576201571b7f4d58c9573beb5e76982920e46f3312e7720371a15897874128fd9de9b8519ff360001b62001523565b620157497f3bfbb8fa32a6728653424db8f6622a6a260f52f0fdc2614e2e5054fb3a998d7960001b62001523565b826201576d578381815181106201575c57fe5b602002602001015160000362015783565b8381815181106201577a57fe5b60200260200101515b8282815181106201579057fe5b6020026020010181815250508080600101915050620156e3565b5092915050565b6000620157e17fd1d765ef842181971feb54c86248722a8c8d6b27b3b20502544ed872527f45db60001b62006e8e565b6201580f7f086d2530c2d672116dbf41b2c29d190a0ff0090906f78f5afb392308d196052760001b62006e8e565b6201583d7f731d50c78474ecdc508f76581a455d8dbafa3aa4798d9bbc284e827ecb99506660001b62006e8e565b600060018111156201584b57fe5b8460018111156201585857fe5b1462015865578162015867565b825b90509392505050565b6000620158a07fdbd015bbf725c01f7bc67c39cde3a09a7977e396486cc8a9fa60df8dd651891060001b62006e8e565b620158ce7f4fe5e6b87d058511a352fc13095f14511bf0dbed5ebc3dea006f51a8487bf1ae60001b62006e8e565b620158fc7f74c7ce0568d2011fdb01e8be2f05fdd0d90b7fb62f8d61f5f8b6c7f6ac49233460001b62006e8e565b600060018111156201590a57fe5b8460018111156201591757fe5b1462015924578262015926565b815b90509392505050565b60006201595f7f934d91e2850856b6977fe375032cb6775098786b71b12022d7f7691c6927e14860001b6201abe6565b6201598d7f6594a9a5ed670d263be1bdcb081b4f908b39a6f89c63ce8ef6d014e6e4afee8560001b6201abe6565b620159bb7f1f7b81b8645e02d717310c88bf38fa668b10bbd14f59536415618b04e87a915a60001b6201abe6565b620159eb7f800000000000000000000000000000000000000000000000000000000000000083106101a562000d70565b62015a197fc39381a6e235bccc519b127dc5280ff1db9a0f471a66c60dfe507e1e7846103960001b6201abe6565b62015a477fa181786c2f69a6d66a679213987527cb65661c75d0a5e5974668a683757e430860001b6201abe6565b819050919050565b600062015a7f7f29e5f3a1901955b39d6f8af9b4c7764dc2049922753eadd76663a2d14ad9b2a360001b62010a3f565b62015aad7faaa42708af982701e48f7f26c0033e9b91d1371aad2d34ec56d22cd0cdfbcc6f60001b62010a3f565b62015adb7f8514f1b3e2dd7584b9c2878ca81061c5a30c6c220dd820efc1677348301f511360001b62010a3f565b6000828401905062015b107fd15704728620e6a72e80a8bc10e1307e1786a5d3bb23cdfffee12647d88f5aeb60001b62010a3f565b62015b3e7fad7a00093b418fd97279415e8ba5164ed97818e290588a9d8562805edf56a88b60001b62010a3f565b62015b746000841215801562015b545750848212155b8062015b6c575060008412801562015b6b57508482125b5b600062000d70565b62015ba27fbeec739411438575c88271171ad8b1144b3152acec5e6538397e07819d89cc9b60001b62010a3f565b62015bd07f11b75a42b03c2edf90eee443ad63ecc8a4ce7d9baa41cba8098a424d06aa3cb660001b62010a3f565b8091505092915050565b600062015c0a7f33b6cd01835b3df8eb6153362d7f2e820d639d5d2a1a9d9461923a7eb4a390bf60001b62010a3f565b62015c387fa2b18ca4ce9cb912d23b40773dd7c3437ad6258e6cf58689ce42cea1748bcb9a60001b62010a3f565b62015c667fd026eb60efdba0ef080fa62f92aaa7a9d6760fab084da8c2ad712b3aeea9f30560001b62010a3f565b6000828403905062015c9a7eca2be60dccb133fc279626d6796c0aa854e332eb3ca87b170b39c29332798160001b62010a3f565b62015cc87ffc49aac335b402ed61d1b775de772c1ebdbc4ef961d22d05f0c4af4e82da28a660001b62010a3f565b62015cfe6000841215801562015cde5750848213155b8062015cf6575060008412801562015cf557508482135b5b600162000d70565b62015d2c7f467cdff4dd9119eae3e6992ec8ace2ccb5a982cdbac0e9949da6a4a165c398c560001b62010a3f565b62015d5a7fbe0a9b1922f4a53d01133736e3981f9a52a7f1abc3450963be105b51365a18f660001b62010a3f565b8091505092915050565b600080600080600062015d9a7f4d4a3007c7134ffcda6d08b41cbcb3804f5610577cd9ea4f2ba8d4780ef42c5060001b620028d4565b62015dc87f01f6411641d60bf14e7ae3f06040823e26ec77d6bbcc320c1048e29dd155e71c60001b620028d4565b62015df67f36f83ce55ba35938320b542ced64b94690b886d5d9eba9317bfc6ba36c1441dd60001b620028d4565b600060096000888152602001908152602001600020905062015e3b7f8170c966c11fefa75c3d6af474b3aa5a7d0d21f3697e4c3f4db308d7a09ec67760001b620028d4565b62015e697fdc61e9607ca8ef4c4f5ded71956482192ad90414f4f35d093088b2589439357560001b620028d4565b8060000160009054906101000a900473ffffffffffffffffffffffffffffffffffffffff16945062015ebe7ff2fa43c4628ddd95d813d1521222f66c7232384f4d62386390667b34a8fd9c6160001b620028d4565b62015eec7f06e9a5e715bdd140a34925b436c810a1608f69859fea7ecffa0cfd3c76ea058060001b620028d4565b8060010160009054906101000a900473ffffffffffffffffffffffffffffffffffffffff16925062015f417f8b9bcd8c89088dce9b3caaebdbedac5b0d432b6c24172be3a133fed796ca49dc60001b620028d4565b62015f6f7fa0b850839f441258ef1ab2a30851ecce561b24e63ba770be9d5f11753039f67a60001b620028d4565b600062015f7d868562019a50565b905062015fad7ff3090e0ad7d73f14586dbfe41d4d6674ca5ca13251520c45f449b965603d9a6b60001b620028d4565b62015fdb7f933b33265974a7ed3cd36f12a42dcc0da83af4a40359a8e59a4cf0f5ef2093b860001b620028d4565b8160020160008281526020019081526020016000209650620160207f09e0c5f0480cb520ce529574f4354a98e22a17e6fb164daf359eec00af022d7660001b620028d4565b6201604e7fceae24ea29c941695efb9144464ca20c47caaba77e9c88bd133b168044a02d0d60001b620028d4565b600087600001549050620160857f3557a33a0dc99d421431ff444390919687c7698829b092c7561b857a0c8eba2f60001b620028d4565b620160b37fe5bf8b67487bb6781c17d7f35fa419e8c8635bb28a5d82d659cc16e8fcc2b95c60001b620028d4565b600088600101549050620160ea7f0a60c232e20063e9e0538eae7aeecafe271a9b7294ada9fa05b4f444422043af60001b620028d4565b620161187f091ff081aae2698bc24e0efeb81274b56cd49b921480998f5f5ab4b84fa9505060001b620028d4565b62016124828262019b0f565b9650620161547f145d0e0f3e43c24d7bdb847728c4a024dff24c9e0839ed938920341735ea105260001b620028d4565b620161827fdfff710b38fc4d5d4165aa13cc0d4c55d9d1b89703d0d325f01e9e0dc88581ef60001b620028d4565b6201618e828262019bce565b94505050505091939590929450565b6000620161cd7f3ae7a91f4420b92603f3e4764e6625c35666bab946907978570290d1a238627460001b62016316565b620161fb7f4f4f031d89e614c9e9861402b12f1b60cd02ce7c702feee9cecf8468653d59d660001b62016316565b620162297fe552b67200393ad3cbbb164ae1ce69b9cf6b2a2788b1921c1560b78cd7e97ee260001b62016316565b6201623482620138a9565b159050919050565b60006201626c7f2a5d65fff1f3b500c215582deba6caa0a91f9fecacf06c3d1ecbe4a353637b7f60001b62019973565b6201629a7f071b014040d1e21aadcee71b3fa973b0b60209eed08df4506d97e4c5e7caad9660001b62019973565b620162c87fd1bb3b7f1b236199263b084954b3e62036402ccb0ddcaf72318b313ffef4b57660001b62019973565b60008360010160008473ffffffffffffffffffffffffffffffffffffffff1673ffffffffffffffffffffffffffffffffffffffff168152602001908152602001600020541415905092915050565b50565b6000620163497f5e82b8527b9fb7b2883fd5a6d8c0150a3b0bab26d932dccabfcb2ed048104b3960001b620028d4565b620163777fb880e31ca26a51937e5a438bea0af4b73c8c28a90bf5d983716c03ca1918eb2760001b620028d4565b620163a57feae90136a086542f6ed55596555dd9a55cafa105d562182930ba101e11ee7d1b60001b620028d4565b6000600960008581526020019081526020016000209050620163ea7ff3d276b9eb3989e8fd68fdf79a48b8cc7d1aa5f95b5604589804e18f4ad6e75460001b620028d4565b620164187fe81015c45a6309bdf9a07cdf0fafb51f45980eb4861e361758719b78151d69aa60001b620028d4565b8060000160009054906101000a900473ffffffffffffffffffffffffffffffffffffffff1673ffffffffffffffffffffffffffffffffffffffff168373ffffffffffffffffffffffffffffffffffffffff161480620164c657508060010160009054906101000a900473ffffffffffffffffffffffffffffffffffffffff1673ffffffffffffffffffffffffffffffffffffffff168373ffffffffffffffffffffffffffffffffffffffff16145b8015620165005750600073ffffffffffffffffffffffffffffffffffffffff168373ffffffffffffffffffffffffffffffffffffffff1614155b91505092915050565b6000620165397fbc199d5264626fc3868dbbde834d8276ad3a8a401df8ae7a001e21fa4749c7b060001b62006e97565b620165677f2e47d0c1d4687ebd0be9331d73d410f35f5f5e38c58ec93387a41ce9af4944ca60001b62006e97565b620165957f06d21368233cdfe5c6ff2d2e1a3834f4748487fc4cd11c9545050363fa0a734060001b62006e97565b6000600860008581526020019081526020016000209050620165da7fd20f8135cf9fbeac06b66926a6b73f64579793462411d126705f67033010c3bd60001b62006e97565b620166087f58702df5f8cd1f10129dd341c376aa9986425ef8e0f3aeb34694f08a2d269ec160001b62006e97565b6201661d83826201623c90919063ffffffff16565b91505092915050565b6000620166567f6cb40aa48752c6fb0a72c2197383f8ce069f82eba95661a99a138d8f24b15daa60001b62001526565b620166847f3243655f6a85eb7255fc23c57f85ceb07965a452f7896348c28172efe7043c1060001b62001526565b620166b27fc2244b922378a9065f691ef8fe898637f3b88ddd606ec0bc79859b35e5353a1560001b62001526565b6000600160008581526020019081526020016000209050620166f77fbb00b33d613744f88d5c48ce9f4f41bb83fa340de359d856a6fbda2c1277346060001b62001526565b620167257ffb5375d09593cf90a1893ff9951596f042b251754bbebb3eac9997a7b59939e360001b62001526565b6201673a83826201abe990919063ffffffff16565b91505092915050565b600080620167747fb6051aad4b996e0dcb4ac798df060244388d236f9f381edd651a18ea8a7ebe8e60001b62006f4f565b620167a27f851ef4e05818995b76760772b5a5311ae72b817743bf9ddf599e17644416e8bc60001b62006f4f565b620167d07f5a82d19b35a40fb47ea0f21ac0066d825d2b9fcb7c62885c2edbf4dfbbdc419760001b62006f4f565b600280811115620167dd57fe5b856002811115620167ea57fe5b14156201688e576201681f7ff6229d99edfb4baad115f67d38653c6f6071cb225b349cd128342fc8d58e390660001b62006f4f565b6201684d7ff9b611ecec5c75ec41e73671d3409326d315b06936c40a716dd3807d04a1a97260001b62006f4f565b6201687b7fdbfb5faa605fbd40ca2181bec78720123a02965f3283d5e173a36f9dc6b754ce60001b62006f4f565b620168888685856201acc3565b62016a42565b620168bc7f2671ac7a737334e604f268afb6f5bd2bfd828e08f8c96398b84fce52bb9e617760001b62006f4f565b620168ea7fbb10f54e7e3b88243636f9a43664f9ea60ce424b02605c7b22fe281ec681e85c60001b62006f4f565b60016002811115620168f857fe5b8560028111156201690557fe5b1415620169a9576201693a7f6d22d1866270982f1b480bd5f058c164df7016726ccadfad662593221c3738c660001b62006f4f565b620169687f039f67f562d73388d649aa87ddef976306dfa77461d3dbe4e929784d1d63a11360001b62006f4f565b620169967fa07b91005b246d9b45fe586c3e768e3f1967e8be76612d47d6ab714c301e141b60001b62006f4f565b620169a38685856201ad64565b62016a41565b620169d77ffac0e9c1626d34ec256810ac9fe65796cfd7bda82311a1bcb94ea4d6eb60376560001b62006f4f565b62016a057f48e4aa18e9ae46b89e9699f57104cdc7bd0001da3c4029548ce496519fb6b7b860001b62006f4f565b62016a337f76eeb2d2ab18ad519cf4dd6d2665489f832083068c673f8063fd0f22cdc8915d60001b62006f4f565b62016a408685856201ae05565b5b5b62016a707f2fee9c81457a88f31f0e7fbfd44bd5fc23a9e6fce105a493957b68f098d123ac60001b62006f4f565b62016a9e7fcd772e3aad8b1594594acc21c21926f19d06663f648273a6ba95aaebbc7562c760001b62006f4f565b600083111562016b655762016ad67f3f9fd3ec163217b27d9b01b954566fd9190c21a2825cf22fa960ccd4fad37e5e60001b62006f4f565b62016b047f13ab25e4bd21ed05fbbcbbf0f222e3efeca3a263b5d1d64af9cc7ce7d907222460001b62006f4f565b62016b327fbb24ffc0bc89bf94e06816d31b3dac8bd9a73cdb052e31ad46cffae77c2be25460001b62006f4f565b62016b5f33848673ffffffffffffffffffffffffffffffffffffffff166200b8b79092919063ffffffff16565b62016b94565b62016b937f37714dea964b22a5adc9bf007c324577928cf13d86c1c32481cd71252fadd7bd60001b62006f4f565b5b62016bc27f6af79ae562a4896953403b060ee797f2e8875e3599d9e918d3f46ce8a46687e160001b62006f4f565b62016bf07f80e811ba3f7dd6d44cd1bc64a442010d1e8e00c2644652b0f4891d6ad6c0b6e460001b62006f4f565b82600003915062016c247f46406c2df2ad7eba4bfae5bd13af868ee8be55b21db779ad34be7a43a3416db960001b62006f4f565b62016c527ff68dc1c676cd990ec603686392a43ecc74ba817d0be5bf2771f9f0fb00f8e99c60001b62006f4f565b82905094509492505050565b60008062016c8f7f312a1ffa59c7c5cc9b4bf1cdb5932c191a0e275bcb4439c06172d3c7e5a238af60001b62006f4f565b62016cbd7f5f60b7ec5a04361e2cc976a375cda73f78201b36d368626b52313ec0a68fae4f60001b62006f4f565b62016ceb7f8b25bb91fce9225b3fb8dff27d50fbe9f5abe92165c7cc55f5e3f131cc57348860001b62006f4f565b60028081111562016cf857fe5b85600281111562016d0557fe5b141562016da95762016d3a7f7de0dc40906c3f0fcfd8713ea3bdc20249ccc727b9f2afab62440ec43cc2910060001b62006f4f565b62016d687f8424be420017ba47394c6535bee07d0c72876392f66f84b0bb64dd8b8d1922d760001b62006f4f565b62016d967f2f5db80992a59b24420dc7ec1a0ade45818a9d2a01b070fe87e49e203123456560001b62006f4f565b62016da38685856201aea6565b62016f5d565b62016dd77fdb0f2d80c6a40bd33144274a272fa75293a364c424f3375c35167c7793f5e61260001b62006f4f565b62016e057f68075970a925275f18d1fe432d02d21c49aafd773ddceef9b3f8a5e628ee148060001b62006f4f565b6001600281111562016e1357fe5b85600281111562016e2057fe5b141562016ec45762016e557fb6c6c2fa1ce1e7965f9355c8509269d6bc9b63eac2f1c75c0179f11af3e7071b60001b62006f4f565b62016e837f55785c614d78788ab1e0b62a5c354c8ee2cd14f6c4e4e2aa474c6cbe50b4f9f260001b62006f4f565b62016eb17f2b25b5c23e02c82cc50f077cd4f3897744403f2f325ea5559259dcdb9e559a3360001b62006f4f565b62016ebe8685856201af47565b62016f5c565b62016ef27fdfadfb82d6207e8c5b9ff1fb4305a3d60ad7e5a2fc3836ba24a609b26420be3360001b62006f4f565b62016f207ff4118048944a146872e2ee5bc8cd96d97f865908d11c84585dcd3aa840c1d22360001b62006f4f565b62016f4e7fd156948f6b808038a860b89bf0bcc78b24d72633a75fa29a342f48be34d014a660001b62006f4f565b62016f5b8685856201afe8565b5b5b62016f8b7f94dad37543b4c155f112a3a0e9f466502c368c80a05d889bc262fe4549dedd2260001b62006f4f565b62016fb97f9c91f24808520c5a47999c93bbc302eb0f6e92cf38df123b6b016fa8ded0393a60001b62006f4f565b6000831115620170825762016ff17f03843ef28e45dd7f10648f2b880a3bbaafaa442fa9fccc6f4728bef3a238e8ed60001b62006f4f565b6201701f7f90e23bc5fbbcfbaf3ef0ed8cced898d212d6c21ba739e95003c1cac82bdf16c560001b62006f4f565b6201704d7f48cb5e330191f0c2d9307c2d54e41fcccba41f78843f7855d335d60b55f8c27460001b62006f4f565b6201707c3330858773ffffffffffffffffffffffffffffffffffffffff1662010a42909392919063ffffffff16565b620170b1565b620170b07fc1f030d680b68a210e3c6ef2826a8bef0d8f54393aeede3fa0101b2021fbe2b660001b62006f4f565b5b620170df7f9ac19898e7523c05c1664745565fa1912580197c3e70a8ffb61ab090a501e5f360001b62006f4f565b6201710d7f1589ade6a51519ddca98d7bd23c47e1407a3b08685cc63f3e21d425cf818a67360001b62006f4f565b8291506201713e7f56f9da1a98388a8fb188a0ee9e2372af8fb7328580ef595c9d4154f1e06056b560001b62006f4f565b6201716c7fa713792168d77d0b297d66904acc39d055970314ff10caab92bd8057af1c74f760001b62006f4f565b82600003905094509492505050565b600080620171ac7f301d3223277317cb3c7a47cc9478cbb7bbfd3cae57d85d96d7a183f63a20947e60001b62006f4f565b620171da7fd5b38f24fc8d1bab0bce4115660aec6db0b7125d275cf884e4ff7a4ac2046f5460001b62006f4f565b620172087f0f3cac5c8ade2d5c34617a6bc8554923f938ba2967ac36e35eba6e51b84deabf60001b62006f4f565b6002808111156201721557fe5b8560028111156201722257fe5b1415620172c857620172577f0ff74f1ba65565d832ad4897dc836debac7690b01473e821eea6d02380096df960001b62006f4f565b620172857fd886dd041e91e24f227047be46d37dcdc360fe094a52232763d89c89ccc5a6ef60001b62006f4f565b620172b37fb9962b6454a4ad7fe6578c2cf7ef8997903af6ee883cdfdbbeb86956a148e85f60001b62006f4f565b620172c08685856201b089565b905062017480565b620172f67fab1dd28cc5c0d50a00c367898f8ce7d2835afed713d9b1aedb7aa5fbe420418060001b62006f4f565b620173247fcaeda331b67624993d05a6cba42f43a712bb2175b42521a21d0b1245e4df762960001b62006f4f565b600160028111156201733257fe5b8560028111156201733f57fe5b1415620173e557620173747f8b7d9cbb200d4520480d70e2122bea472704c24a4b2ce31854c890c5f65bfbbc60001b62006f4f565b620173a27fd25fa266637bc11773aa83897475257ffa4554100f4fc2d5c3e41da6a580da9b60001b62006f4f565b620173d07fcf015db7471c50e59b108341a1ce549f8f755bf6a2ff5dd40eb1224edca7f2c760001b62006f4f565b620173dd8685856201b12f565b90506201747f565b620174137f4764b13f5843b82227d8971ca657d8c6c6b4f8e87e6fe5d8a7be5b259f6c3fd760001b62006f4f565b620174417fa68767b52a12a09e40a37a03eb4a38c6d1ec6d28e74244c5131df1305a19bb5e60001b62006f4f565b6201746f7f06593b59bfbde231ccc990f243c13921b182acdb7535311a4fc2b8a0edd7341360001b62006f4f565b6201747c8685856201b1d5565b90505b5b620174ae7fe7cee04228c60891b1257ba93b723988bc847e0b94023043ab3e12c802e4d9e960001b62006f4f565b620174dc7fe00c78aec7b1e1e4ea1e14e6612e8faca6306f5cf477676777a43279195ff63960001b62006f4f565b6000915094509492505050565b6000620175197f80fca6b64f7b0789847f8be52c02b4e1f759789d6b7cbe957f89feefde4fe88a60001b62004f2b565b620175477fc446b9f164092d39ac2524a6d2e73d0ccb1abd271deaf1757b7310ed4335dbdd60001b62004f2b565b620175757f22f429aedbaa0bb811444c55a4871d76ff331b3f6f543b5d11608339df4e388d60001b62004f2b565b46905090565b606080620175ac7f3351be717fd5ab1959250b0efefbb97062faa7afcff45ef2841ffbe790cdcdcd60001b620028d4565b620175da7f07fd464198fe8fc029cf960308041edccf60480b4d6b9c3a026840eb1a39268260001b620028d4565b620176087f51d5a7aeb8ec0b61a39345aeb8b25221df23325c21936773333445f7eb80b6aa60001b620028d4565b600080600080620176198762015d64565b945094509450945050620176507ffb0f258514a504b212816353943e1f383c4373a2109411bd6128b010912b72ea60001b620028d4565b6201767e7f51b867b7f34b0ad761ae63536e917714c92bc01643f75c6dd95f8df5724ec42160001b620028d4565b600073ffffffffffffffffffffffffffffffffffffffff168473ffffffffffffffffffffffffffffffffffffffff161480620176e65750600073ffffffffffffffffffffffffffffffffffffffff168273ffffffffffffffffffffffffffffffffffffffff16145b1562017818576201771a7fb8839bb8b559f423a9027166bf3a5f9b4975e66c5e91033097161148702d4bc960001b620028d4565b620177487f8c5e88554adbe622366ab604f21c1686c8dc33e4e37e7207221a735b492cb0ee60001b620028d4565b620177767fbbea57c80e6db088e746562a1307c5363cb7cdd2337f81f23825b013ba869cff60001b620028d4565b600067ffffffffffffffff811180156201778f57600080fd5b50604051908082528060200260200182016040528015620177bf5781602001602082028036833780820191505090505b50600067ffffffffffffffff81118015620177d957600080fd5b50604051908082528060200260200182016040528015620178095781602001602082028036833780820191505090505b50955095505050505062017bd3565b620178467fc59757967a637753d829b6bbdea95fe3bf49fc60af9323b24d89b0af4dd3d24060001b620028d4565b620178747fad36c66e171d5a84ff8565cf496574d7aa820d68451dca35823a9da7d08eb0fe60001b620028d4565b620178a27f1a13a88dcdc159a9ba9aaeaa3385ada7ad0a646548957a7fd9a1e6d9b6b1a57d60001b620028d4565b600267ffffffffffffffff81118015620178bb57600080fd5b50604051908082528060200260200182016040528015620178eb5781602001602082028036833780820191505090505b5095506201791c7f59c2bb04f3783b7f2cab13f99a06c2efe316a120649885941d99e3b321cfb1d960001b620028d4565b6201794a7fb402f7e5e95c6675684b21a2a5cbfa8944a776efdd7ca47d308fd7188b58dd2b60001b620028d4565b83866000815181106201795957fe5b602002602001019073ffffffffffffffffffffffffffffffffffffffff16908173ffffffffffffffffffffffffffffffffffffffff1681525050620179c17ff4f30db2e44b230245ab9917e6f5a9ccb31d51af9268a8c496572e12618f3b8e60001b620028d4565b620179ef7fbe10fbd1bd563e4af09b3072dcb1a28b5342afb8484e482d3b2d3a310bd6adc560001b620028d4565b8186600181518110620179fe57fe5b602002602001019073ffffffffffffffffffffffffffffffffffffffff16908173ffffffffffffffffffffffffffffffffffffffff168152505062017a667f0a58afd471c7fe6d45d2eef7e83add49bd9f370b5808343676eaf9c65ebfe71260001b620028d4565b62017a947f254868316eb62a5452f1d819d1ce496d91ace6f14882281895441bf909eb651060001b620028d4565b600267ffffffffffffffff8111801562017aad57600080fd5b5060405190808252806020026020018201604052801562017add5781602001602082028036833780820191505090505b50945062017b0e7f537984972e10c71a2dfe0b6b99439f490e398f9d37904dd3ed1c34a6ae22302760001b620028d4565b62017b3c7f41f9178be193b8f111bce3b45a6717ad572b01e88d2e482710ba0f7735e6500b60001b620028d4565b828560008151811062017b4b57fe5b60200260200101818152505062017b857ff028539d64d67d7eb7edf90a9a04469203dfba8696388212455a72b189c169f460001b620028d4565b62017bb37ffc4b7397358917b9cb4e6d46945a0190defa3c670b49d808c15e6b538f8512e760001b620028d4565b808560018151811062017bc257fe5b602002602001018181525050505050505b915091565b60608062017c097f4fe28fe276af1b6850c2f572765a65e4e6a745cbd97779b9fdc718098308199860001b62006e97565b62017c377f8efe411ad4e4b347631bfb28553964ff81f8df596dd33ad43fa34dc4ac075e5d60001b62006e97565b62017c657f722fb86a62a97fe1c8bb5b523ac8113de8921b46a99d8d63590c7b1edec8d55360001b62006e97565b600060086000858152602001908152602001600020905062017caa7fe85e372ac66d8252d6fa59ea1ae1315c53f0bf5fa37879cf4296a1d9cd6a839260001b62006e97565b62017cd87f803a760fbda8f45634cc1715151c53bd8ad419409752dd6c59bef8b626e7f21660001b62006e97565b62017ce3816201b27b565b67ffffffffffffffff8111801562017cfa57600080fd5b5060405190808252806020026020018201604052801562017d2a5781602001602082028036833780820191505090505b50925062017d5b7f92e5ca1aced344b5dcdc909945368a0965e4e72df3784a191f48fd5ef1aa0beb60001b62006e97565b62017d897f310f954e221539b27c12198a73e0b96247f7eceeb9519d18008041cb4674a66260001b62006e97565b825167ffffffffffffffff8111801562017da257600080fd5b5060405190808252806020026020018201604052801562017dd25781602001602082028036833780820191505090505b50915062017e037f05a95fba1a36a78cc0cf6361711d28e4181b365588a8e0e972ed41cca6b8bdf960001b62006e97565b62017e317f671e56110ecf36307d51e97ca33c43eb9d17c869500cb33709069df375627e0160001b62006e97565b60005b83518110156201802a5762017e6c7fb2fc30ede627fe3ec492f6ef0f0bbc2086621593e626382c6009fdc24e8cf2f960001b62006e97565b62017e9a7f35b8c2dc1f21d7cff0ba549aed47316145eeffad3c983b59bf6eaf57c29bfeaa60001b62006e97565b600062017eb182846201b31690919063ffffffff16565b905062017ee17f65c009303a8f3fdb788d0ba503da5cf7dd52bc5bc1dc24ba0f13dae4ce4b62d360001b62006e97565b62017f0f7f0f77e504a16eb4a9ba41e1ca71d7daddb31693d3a7ad5c43100538eb2f88d04c60001b62006e97565b8085838151811062017f1d57fe5b602002602001019073ffffffffffffffffffffffffffffffffffffffff16908173ffffffffffffffffffffffffffffffffffffffff168152505062017f857f46884770c18cdd8bfad76dea45aac15006465fa77c46e453d9e0eea600f43c2560001b62006e97565b62017fb37f6f3c11fe11bbdb237ab1f8c5f6da85872dc887df5b3c3cf11d448a59f339b0d460001b62006e97565b6007600087815260200190815260200160002060008273ffffffffffffffffffffffffffffffffffffffff1673ffffffffffffffffffffffffffffffffffffffff168152602001908152602001600020548483815181106201801157fe5b6020026020010181815250505080600101905062017e34565b5050915091565b606080620180627f8d482463171344f460cf6fccd3614f1690d522b6959e7155637b0878ca65ce5460001b62001526565b620180907f670b8dc74ab33e426251ea6009c07436d1816608cde9836f6ded08d598b542da60001b62001526565b620180be7f5af53eaede8ca2de4e90d77596187a49ba6ff1fc3c8a9832e448d2f9181d1ea260001b62001526565b6000600160008581526020019081526020016000209050620181037f12e8926fdc321883d12dcec1266078b239baec3a6d1def806a291b5b0186590360001b62001526565b620181317f9cb6238bdd2de1003b5b151d074dda738dbd27462458ef2225c054dd5bafaf6460001b62001526565b6201813c81620193a1565b67ffffffffffffffff811180156201815357600080fd5b50604051908082528060200260200182016040528015620181835781602001602082028036833780820191505090505b509250620181b47f4caa254a23a92a0b490c293b56c1142a3b7ad0b6f8c463dd02e4ce4c4c4b93f160001b62001526565b620181e27fe21cb4a08d2ae692e7b8b8a7d726e09c2009c99299dd30789fef9ce6843c30ce60001b62001526565b825167ffffffffffffffff81118015620181fb57600080fd5b506040519080825280602002602001820160405280156201822b5781602001602082028036833780820191505090505b5091506201825c7f39e366ccaecdffc2a8cba06e7dbb295d4a1b333527931299dfa7391be2f5a60060001b62001526565b6201828a7f54ca74dc3b20e024f6601179ee47919a536fc72522983f333cd1f1e1cd24205760001b62001526565b60005b83518110156201837257620182c57f5e4213ba5178ae25bf1bb52979ba9b8d6a890e91ede31875c45feaf0ad4f44e860001b62001526565b620182f37f063c0e3d3aec223e95bb2163ca8530c680a36b0de3bbc1cc48de1a861758127860001b62001526565b6201830881836201b3e590919063ffffffff16565b8583815181106201831557fe5b602002602001018584815181106201832957fe5b60200260200101828152508273ffffffffffffffffffffffffffffffffffffffff1673ffffffffffffffffffffffffffffffffffffffff1681525050508060010190506201828d565b5050915091565b6000620183a97fc357796afa2414f66bebbb19d7ff080f27d5f1fc0ec754e65cb500a8340609c760001b62016316565b620183d77faaf630b072831e63127b0ed88fb46fc58b5538005fe351c34cf6efedde993f8560001b62016316565b620184057ffbdd454d2807b9786c2561c123f875539bf6bfe804aad949e2bada6c007f209d60001b62016316565b62018410826200f219565b6201841b836200f110565b019050919050565b6000620184537f08b5ba32bdfde5a4787ca4bc358fa249d9c75980e2bbbeed00d548e4c62ddf5260001b62010a3f565b620184817f97779bf504025e78fb7ac46ac32be2a0f087b0a9d7c459512b0af4ad82be5a1a60001b62010a3f565b620184af7ff9ec92b71b5bc51509046723000be9f2c1e8a0bb9507f1adb5e18c6f47bb82bc60001b62010a3f565b81831015620184bf5781620184c1565b825b905092915050565b6000620184f97f2d034d9f0d603fd2f28a33782f83a22a1381734411ce34f64374dae38d3802f160001b62010a3f565b620185277fa469969722a6ff89f5be345535f9a661d7402990e0456929f57b04107b80f77c60001b62010a3f565b620185557fa36a26ffcde45d6bf25fce8da1458ad505fe14f3c2c2f13cb4d59fd56eab4c9a60001b62010a3f565b81831062018564578162018566565b825b905092915050565b6201859c7f6c8be6f2fa73a8e4e41fc12de372b80a7607cb2cab3ebd0af3015310b3b1453960001b62006e94565b620185ca7f0dce6fee766ee6987786035bf5503a9d0d939cf3400513a9b639adf7f2a939fb60001b62006e94565b620185f87f3b9ae98acc54186e399df66c6ff05c95afe9394de67dfe50e6afa59c8c41b76e60001b62006e94565b81600b60008673ffffffffffffffffffffffffffffffffffffffff1673ffffffffffffffffffffffffffffffffffffffff16815260200190815260200160002060008573ffffffffffffffffffffffffffffffffffffffff1673ffffffffffffffffffffffffffffffffffffffff16815260200190815260200160002081905550620186a77fcb3679c0cd77ca8549dc96d3517095b718e0735d04c17d75865d45bfab69369660001b62006e94565b620186d57f1df5f5289c5f6ea72631802d95117b4e585903d3fbd6d8305ded33b56f4081b760001b62006e94565b8273ffffffffffffffffffffffffffffffffffffffff168473ffffffffffffffffffffffffffffffffffffffff167f18e1ea4139e68413d7d08aa752e71568e36b2c5bf940893314c2c5b01eaa0c42836040516201873491906201f361565b60405180910390a350505050565b50565b6000620187757fde214dcbbb6d2f7e5bc68bba3a77df6ad215c8f888102eb92d629de3f607e8c560001b620028d1565b620187a37ffbb84f328bea194fad2f88cb26ad3e623f3b643e925dfb79cd969955d565cf2460001b620028d1565b620187d17f641477ae033952b82a12eff8ffc0dceda13f254b083c5aad7f6d37ccf0060e3460001b620028d1565b6000620187dd6201b51d565b90506201880d7fe8f1cc5dbfbd2af36ca24c40a3a259a606633a96c50d1144259f73dae910baca60001b620028d1565b6201883b7fc2a96835e6eb6122c8f21912d500c0ea09bf53cb30fe970c07434e19426e752860001b620028d1565b42811015620188d957620188727f360c3582d2834623b416542df850cdb1395d4be170979d8314d10d498d8e71d560001b620028d1565b620188a07f1b88f0f3dc85ab6fcc62be77eb1757c63d9baa9372d2130a159b220688f7befc60001b620028d1565b620188ce7f57fd5f04723a153d7ad92c613238d8023e4a4c2605006c2922201a42a626194760001b620028d1565b600091505062018d9c565b620189077f3f65fc19a0a4f488e19e426f4b8237429f2fba75856307321e302974f7865be060001b620028d1565b620189357f6c4144d884aed4f7bfbb981e97f344fdc2d5b5d71b690d2fe5304682cab5f5f760001b620028d1565b620189637f18cba61925fde28f36384157201cbe52a42398e93987a55d75f3cc47f81ce24760001b620028d1565b60006201896f6201b5bd565b90506201899f7f27e081687d4ed3f842082ee3fa1c9ca08cfb6b6b01af629bfe2875d93419983d60001b620028d1565b620189cd7fbb1c7c3c912748076dcfd3a4b81798e2bbfa1fcb7312b92c4ff99ff366e6bcaa60001b620028d1565b6000801b81141562018a6f5762018a077f7f011b62f73151ee31f771bfd9327aa93f1129a9c48e89395aa29b0f2a93c31260001b620028d1565b62018a357fc6018d31780b59f0b381af33580697929fedc789ac20e5fd14d97a7bae44f33360001b620028d1565b62018a637fa92ad6915347768f09f1bd07a6c9e55f52e44e1c58d274c17f15a340e582df8060001b620028d1565b60009250505062018d9c565b62018a9d7fc21ba1592d5a3f1b39554947e63e1764d8fc728bf1c5b64603037b855da22b2360001b620028d1565b62018acb7f0552c09df19809233e771d6f05135a8bcffc2cd69eb4938c9688d8c98e2d735660001b620028d1565b62018af97f580bf8b9e51ae11c33819eeaaa53db0baa0838ffb7bf8e99683c82e5f5414bf560001b620028d1565b60008162018b066201b735565b8051906020012033878660405160200162018b269594939291906201f1e6565b60405160208183030381529060405280519060200120905062018b6c7fe4948bcc968ce6049764b87529bdd2b4f56e0af5cd06a8d3631ac83f5debbcc860001b620028d1565b62018b9a7f57bb14ab1dd2a895e5cd4815669d27a7174c656e6113ae696bb037f6ef5be2d660001b620028d1565b600062018ba7826201b90a565b905062018bd77fb8d4e342f861829e299fa7ec542362af87c95fd6463b557d9f8c7cbe2602abde60001b620028d1565b62018c057f66ad9057d2556b4a6ade8de86f63cc56fc52bb22e7e7c24c53c1c20426e93f6c60001b620028d1565b600080600062018c146201b9d1565b92509250925062018c487f726adca045e5a77fa40181deb889db99860ae05789bfe87e62a1b16eaa127fed60001b620028d1565b62018c767fe272e252875a52e50c569a671a38b223a2cc08e65930ba24fa42f5480202d39960001b620028d1565b60006001858585856040516000815260200160405260405162018c9d94939291906201f2a0565b6020604051602081039080840390855afa15801562018cc0573d6000803e3d6000fd5b50505060206040510351905062018cfa7ff4575d676d44a0174a2b54e35bcabd69af2407bd0d16af2bd47e7e1e0244ed0960001b620028d1565b62018d287f3fa19107a5fd11afcabf5d31c7f2ab1cf7671d8a920a0eba73ec4e29f49091b560001b620028d1565b600073ffffffffffffffffffffffffffffffffffffffff168173ffffffffffffffffffffffffffffffffffffffff161415801562018d9157508a73ffffffffffffffffffffffffffffffffffffffff168173ffffffffffffffffffffffffffffffffffffffff16145b985050505050505050505b92915050565b600080600062018dd57f95f6377dbd7455d9c3a7207189c37294e041ad1cc4da683592955078c6e8d49660001b62006e8e565b62018e037f97b21951eb69318e77d7a6211ea08168d473cc51a7ae1d9b7ecd6643543752ab60001b62006e8e565b62018e317f07a478e444b7d1d99765ed782259ec2c857018ec441d04f88ac32a5ab24cbc8060001b62006e8e565b600062018e3e8662018379565b905062018e6e7ff7f0045e7e9a2324f620f6bb4876f459d0d052316488b8194d986526e46ec32460001b62006e8e565b62018e9c7fb969c91e572eff98f554e0d062ad5ed95d6fe98b07151eb2117d372cb69bd6a460001b62006e8e565b600062018ea98662018379565b905062018ed97f695010934452cf8168fcaa9b1a41aa63f9b2e80207e51c64c5b911e357d091c760001b62006e8e565b62018f077fa1b6dcacf6b5cc6977cccb0d0fbd3667ae707bba706b6a2826b753b7fbbcae9160001b62006e8e565b62018f2762018f16886200f326565b62018f21886200f326565b62018423565b8960a001818152505062018f5e7f5f03bdcef0f0d165f9b00ad16411b8fbdf31ecb5ac2588842db3fed01596553160001b62006e8e565b62018f8c7f783b61578b26a17566f6931acd5f85f6ccd14ef2f743ec492cd670a8e7e807f360001b62006e8e565b8773ffffffffffffffffffffffffffffffffffffffff16639d2c110c8a84846040518463ffffffff1660e01b815260040162018fcb939291906201f406565b602060405180830381600087803b15801562018fe657600080fd5b505af115801562018ffb573d6000803e3d6000fd5b505050506040513d601f19601f820116820180604052508101906201902191906201e788565b9250620190517f579588005cf8650638b87c1ddf9e01e6ddebbaca051243ba153b21fadbf7c2a660001b62006e8e565b6201907f7f47748d421474f481fd63f1f3321b265647c32ceae914e6bb5d2a7c0efe86d4fe60001b62006e8e565b600080620190978b600001518c606001518762012440565b91509150620190c97f363f1630d7b54f2927ac8ca3d9c3d3e53e369d1794bad477dd770350d406655460001b62006e8e565b620190f77fa8e1fd0df87226f59746e154753fbbfcf9f419d6fa30490dd7e769a94078313860001b62006e8e565b6201910c828a620194e690919063ffffffff16565b96506201913c7fd94d879c6695a5f4304a9a3979938d056cbeb5bb3043220c683ca035562ff76c60001b62006e8e565b6201916a7fac973089b085c620578f93ab2516495c353a11ee1fccd30977a0eab54b9eefa860001b62006e8e565b6201917f8189620196d590919063ffffffff16565b9550505050509450945094915050565b6000620191bf7f039001f947f8fb34b7d5ea2d20e90854af300debcfb84500bb6c9740b8fba9fe60001b62016316565b620191ed7fa1460cf85f4a863d52321ec105b9ea208d1c0d10e4ac6b35ddaa2e275df32d3860001b62016316565b6201921b7f62ae3296cc3a26c93463e54aa783bbf7afc9fca3fe494519348510f4afd3004560001b62016316565b60006201923d6201922c856200f326565b62019237856200f326565b62018423565b90506201926d7fce3ac766306525591fedfebd05ece22940a323985c081a7eb1ab8449af8193f460001b62016316565b6201929b7f0551a2c7a9d2a6133f14fd24ee2c69ab5569a37b689dfc691a630fb4acb656ff60001b62016316565b620192c2620192aa856200f110565b620192b5856200f110565b8363ffffffff166201bb4a565b91505092915050565b6000620192fb7f4f6d12dce8e7417c1f07f726e835822452e087024565c29ed8dfc2eb0576760c60001b62019976565b620193297f8d0ed9215f1b10ac571ce9f7624ed1d962c612ae177f06433908b1ce2a5a09f360001b62019976565b620193577fa9203d84ea773e88aa8ebe23846651c96fab6e9a0701efc6c15414829fec1cb160001b62019976565b8260020160008373ffffffffffffffffffffffffffffffffffffffff1673ffffffffffffffffffffffffffffffffffffffff16815260200190815260200160002054905092915050565b6000620193d17f8b2215b420c7fc3e2d30dfba37a3c5e546c92ba7f736a8281741e034e83f48a060001b62019976565b620193ff7f8881dbfe653bdbf2c29acdb761ed368bb03d199f65c9e103808420457b46052760001b62019976565b6201942d7f15cb7cc2ecc5b0b1a49cf6429f77f1fb32544f61f3c70ff97621a40e8edce0ba60001b62019976565b81600001549050919050565b6000620194697f4e29813bebb491bb16c7ea5536444e45b0168f1640ef19f1cf345286b901899360001b62019976565b620194977f8a2f2ef78bc48e4f9fc068bdf13b968f38edfcea701657cd0db43b87c46500fb60001b62019976565b620194c57f18fd591b122d0d7edd09e64cf16df89041015df4a61d9a69f561cbcb27f8e6d260001b62019976565b82600101600083815260200190815260200160002060010154905092915050565b6000620195167f1372d5957cb19437218c1adb12523c07ee6c573dce6e2f4b6d4f7076f1e571a960001b62016316565b620195447fdf37d06ab42001d587f110557a0b83c8002fdb366b2aa63654852aa40b1c207d60001b62016316565b620195727fc651565eef609f1863050ce2b5f6caf0113a4e0d4c98a9797e67388721a60be060001b62016316565b6000620195938362019584866200f110565b620092eb90919063ffffffff16565b9050620195c37fbae607abbc9725aac93ae43ed865ad22295d39284080820cba6b4a4008c2db5860001b62016316565b620195f17fa9d7b3288b4ad0b98782360db1396f4749da92a53b6bcef7ab000058ff1626b960001b62016316565b6000620195fe856200f219565b90506201962e7f0ca50004e8c1e234aa759297da99c34ea127a9f6ca75ab445b7b9a80d22ed57960001b62016316565b6201965c7f8a647b8751db678fb2b39aa5028d206b9ca8b12aceb21cc7dd75e6e31ff7832b60001b62016316565b60004390506201968f7f54d591ca74ae3b87b2bbe2147c2642915af677190abd69c61b327e15d99ae34a60001b62016316565b620196bd7f966db40dd87c0011bde26e759f8915ab9d1e96a1e14722d820c3a3c3ace57da060001b62016316565b620196ca8383836201bbef565b935050505092915050565b6000620197057f97cde64f499b37db16f2d1b6207f02cf22693766cc14adc6b9107759d42787ce60001b62016316565b620197337f5c19f8130e75c7669a415276b9c1a6e27eb7a33c114025211a254dcf00467c5560001b62016316565b620197617fb123db93942208b0d0def39d301f21d22e543320ad82c18b430f45dfa2e3b66660001b62016316565b6000620197828362019773866200f110565b6201bd7d90919063ffffffff16565b9050620197b27f1d40ea62fa0ec3df248c807f3c64a68cf48696ea039e442bae355a1c75d79df060001b62016316565b620197e07f50d41f06519ab4dec0cff568b169c367f584e56441fbefbc194199faaa5b89b760001b62016316565b6000620197ed856200f219565b90506201981d7f51804200c1a6a0bd64376ce172085320adb3be7a7467e353305ef4eeb1a2776560001b62016316565b6201984b7f3771e046cdb3ac310ca864e064ca5be64dee805e24437faa7593bcc51f72d74e60001b62016316565b60004390506201987e7f5c07fe3d560177301a9f8bd8a74e8ac629f4e9b50d9d51db73b7a0ac7f847c7160001b62016316565b620198ac7f309dca7e389a8bdaee5a0a9e2727e3e811e02206a1b780d020611c206f3a0c5f60001b62016316565b620198b98383836201bbef565b935050505092915050565b620198f27fb5497f5c5fe1c6da3c18d064da5e8176cc936b02bf39f047cb0b4d33b9dc519c60001b62019976565b620199207f35a4644b542727793457d4220acc248c0e5dea39df2792e91e43042f57935fd360001b62019976565b6201994e7f9ba5ca721db9ddc09f6aa573192b21326652991e8abe24507530a5acc242a5e660001b62019976565b8083600101600084815260200190815260200160002060010181905550505050565b50565b50565b50565b600080620199aa7fc9db165fc94cbdcf86aeba810f1b22ff0c2a31c34ce1318d6f64cd974c57e4d960001b620028d4565b620199d87f7ae1c69230540c76c6a478972b1d6c23a7742d1399fe1f65fb1ad0e7513bce0960001b620028d4565b62019a067fbb4c18c34ecc0ea5902c6365a9f382d02b7356427c946e386405d10c90dbbd7760001b620028d4565b8273ffffffffffffffffffffffffffffffffffffffff168473ffffffffffffffffffffffffffffffffffffffff161062019a4257828462019a45565b83835b915091509250929050565b600062019a807ffea5637e0a3350cc7a8d2003715a496a98de211dcd024c8df7ccfcf27b966c9c60001b620028d4565b62019aae7f5aa52187b854caab98106b82409f2af07b87ffc3b0b0be7bafb1905044f6731460001b620028d4565b62019adc7f916b937dba4eb6808c6b2c1a9b00d10fa1f7556f64b3fffd250e176a96c47d8e60001b620028d4565b828260405160200162019af19291906201edc2565b60405160208183030381529060405280519060200120905092915050565b600062019b3f7f2d5a01eaa8c88c551b0db045d0fd499e0dfc55b6ab845b4a7631c92fc93270e860001b62016316565b62019b6d7ffad66069a6587771fdc8832bd67b9d5b3dbf332a220bb47bf4bc080c226b448d60001b62016316565b62019b9b7f7e1fccbca090d08de02268f3964f64095af2e1ac9fc6bdafdc5d290bf6a87b9760001b62016316565b62019bc662019baa846201bee2565b62019bb5846201bee2565b62019bc0866200f326565b6201bbef565b905092915050565b600062019bfe7f357c5c3760e6244126b2718feedcd8b008adeca464a5587fdbe3a77f5943725260001b62016316565b62019c2c7f8b1b2a9e1251d007c70c401d1eadd8d6bc6ca1ed9913c2da4d23f0b4da68506c60001b62016316565b62019c5a7f1656786407f2d683d417f3cc57f3fbdc4536af9b62986e4dbe39bdfe1cbf1cb360001b62016316565b62019c8562019c69846201bfeb565b62019c74846201bfeb565b62019c7f866200f326565b6201bbef565b905092915050565b600062019cbd7f0e297082ad0bde629089c5338a00eb1da38f64d7bb527caec1c16e0b76b5363960001b62019976565b62019ceb7f5fa5bb3d83b78a68a4135ca277c7c2f88a073fa983815e1309bc55d3f2cc20ff60001b62019976565b62019d197fb79143b1ee41c5a4cf5dbc7e4edee187608d47dbe678b9d18a7a70fbf932674060001b62019976565b60008460020160008573ffffffffffffffffffffffffffffffffffffffff1673ffffffffffffffffffffffffffffffffffffffff16815260200190815260200160002054905062019d8d7f6f1655474c32935c81d1bb5b6b2386c6cf3e93bd19d6ddfe224fb1bea2e41f3160001b62019976565b62019dbb7f01ac4b145e4594c338cdf7ae2e311c52b92c5bdef5353e6d918e1dc59cc5e57260001b62019976565b62019dca600082118462000d70565b62019df87f7057da9580ed9912190d781c1097990334558f94b5fe37e312e572c06baf1d3f60001b62019976565b62019e267fdae0f1754b885ff82992f12273327122aa8c5d98294266a42921f071add316bc60001b62019976565b62019e35856001830362019439565b9150509392505050565b600062019e6f7ff6f62c22f3bbdf3a96e544695314d0e1b81983e26d2ae375fae80c3fd5c52fc660001b62006e8b565b62019e9d7f0701a1dacd3831a8fd8625f7aecb8f4d72f70f51cb132ee0ee0f8889be515d4f60001b62006e8b565b62019ecb7f0a5f50a53cd3d90132b59f9cf46c4cfcd1f66ac45831c4c8cbf7debb92a3989660001b62006e8b565b62019ed562006e9a565b73ffffffffffffffffffffffffffffffffffffffff166355c676286040518163ffffffff1660e01b815260040160206040518083038186803b15801562019f1b57600080fd5b505afa15801562019f30573d6000803e3d6000fd5b505050506040513d601f19601f8201168201806040525081019062019f5691906201e788565b905090565b62019f897f14d40b860376f475bd207537873173ede7c560fd7a2e6caec0ff0d80cbe24a0260001b62012626565b62019fb77fa37bdfd0b1b4b672a0df4d4f2440397d548ea17c2bb9f51072c43fa773bc70f460001b62012626565b62019fe57fa458e8d1eaa8138c30c3fdf76177d78bd9726d9c55d222a179f459dac1bb6d3760001b62012626565b6201a000828414801562019ff857508183145b606762000d70565b505050565b60606201a0357f565d692cd6dacbc9e1c7edc106aac938290b1b8f872540ae928ac363d769ef9f60001b62001523565b6201a0637fad22b7abbfa15d257e38433a7a8de6020361893f2a776476ae50022f0639ab6c60001b62001523565b6201a0917f741bb5200f9b53ed1b93b10a744ba87b5d2068abf3bb3e127e809aff931c564460001b62001523565b835167ffffffffffffffff811180156201a0aa57600080fd5b506040519080825280602002602001820160405280156201a0da5781602001602082028036833780820191505090505b5090506201a10b7f1c0ac62b7cdb9c594b7143a592cd01d1c41b4a33594a3795da5202ecb9378ce960001b62001523565b6201a1397f30335ac1126b54d228ad090116720de3b1a6758b840871835fc2d70c40a4284160001b62001523565b60005b8560000151518110156201a4d3576201a1787f2db722479f0993e06d4595b78b456954d845392ebe4c659452927295a9c5695260001b62001523565b6201a1a67fd5d1ddae4ba68c2a357f306cc703c371fbcb2bd24350ea277dd33460b9d0c12960001b62001523565b60008482815181106201a1b557fe5b602002602001015190506201a1ed7fab380b1c5890c306cad34e087838347707bedbfd468fc84d42639a16f97d92db60001b62001523565b6201a21b7f28eeaf4f08ab0c2d3f5a42abec20894d7a69e919e0cc71e527978321e55064c260001b62001523565b6201a244876020015183815181106201a23057fe5b60200260200101518210156101f962000d70565b6201a2727f33ebcdbcd147893fb31d93c63605e4720c5c75e4a0f3c8e16122188b0831f52660001b62001523565b6201a2a07fffd990eaa3b7e0bab5f6c6573364a23bba3898de610ae8f4ab5f5ecd0c78c32660001b62001523565b6000876000015183815181106201a2b357fe5b602002602001015190506201a2eb7f027a0aa268ffe09c49c918b0a4c3781f0d444e2d61f9ed7a94873bacfa5d6afc60001b62001523565b6201a3197f5f1b5300489f2e0d924fa1ed8a833eb77ed5a75731a054323c26432d08a39ad060001b62001523565b6201a32b81838b8b606001516200b07c565b6201a3597f2085dbc4aadd9a186e0e4efbeb66aa2cdff784c6ff9e46854ec7eb09bdc7c8ee60001b62001523565b6201a3877fcc8e94cf4d408589e0adbf76b372a676fb11b6594e312d1949d4ef8ab013cfb760001b62001523565b60008584815181106201a39657fe5b602002602001015190506201a3ce7febc97b65aba7e2d35e3eeda79b24acf3bc9ad13b34770d7c270a8be9245253ff60001b62001523565b6201a3fc7fac5f5203ced03b41c38f116008263feb9c7ad4efb9e866f1dc357944840058b060001b62001523565b6201a4126201a40b836200a367565b826200b9cb565b6201a4407f70fceceeeddf4b3590bd9298814300b1ca44223d8a9e25480a0013bd99502c8d60001b62001523565b6201a46e7fdc5cc92a8f1cf79a00d86793cef4c7571f327150be48a0a54505865cf747b8c960001b62001523565b6201a4ab6201a4878285620092eb90919063ffffffff16565b8986815181106201a49457fe5b6020026020010151620196d590919063ffffffff16565b8585815181106201a4b857fe5b6020026020010181815250505050508060010190506201a13c565b5095945050505050565b60606201a50d7f210c71fe249012b25bbf8556974d5338f3fa01e23746c1928c7a8d1785429cac60001b62001523565b6201a53b7f84a2038a23ea6e7c9255732e0c3379881116f49da0f5d307c6435f0d8157b30c60001b62001523565b6201a5697fe786ae94502af107f5337975e06b38fc940930d5679ecfd01787fc38f3be3c7160001b62001523565b60006201a5997fe3dc085d29fa100e4fd12f40eefc2eda4f6c7c9f4ee35db4549a75ddebb4238060001b62001523565b6201a5c77f9112e9a6d79258a16eafb17dd84458388a78e249672a1bda9d777db30848d92760001b62001523565b845167ffffffffffffffff811180156201a5e057600080fd5b506040519080825280602002602001820160405280156201a6105781602001602082028036833780820191505090505b5091506201a6417f600129365cf9026e47f4bf643ba836809b76fec680453a9983119627624990de60001b62001523565b6201a66f7fce6c2feab9781311bb198128efe3572f9b75c17f82d84a75cde00673fee6e03560001b62001523565b60005b8660000151518110156201ab74576201a6ae7f9b41f00c05c2887d4d20035d6b41828537d2e596381befca21ae3ce119becb2160001b62001523565b6201a6dc7fed7b2f4404d46563c7799179b0c838265eed9d08ad27333a68c14ccf4cc6838060001b62001523565b60008582815181106201a6eb57fe5b602002602001015190506201a7237f7c3b8b2f1a9d2d746f94778004019e94711ca01d5bc7d84ae0341cbc4fb4653560001b62001523565b6201a7517f4de61fa1aacaf917fc2835ccab797d502c0264d18e2e224547759cc31f07089c60001b62001523565b6201a77a886020015183815181106201a76657fe5b60200260200101518211156101fa62000d70565b6201a7a87f0b0d85d82ae2acb66c0abfa567c81ff373691aba1cbb722771551d7b459182ab60001b62001523565b6201a7d67fd80bcc9d1a9e293d11eed33048bd613b63ecee8e184c423caa0f37acdb23b58860001b62001523565b6000886000015183815181106201a7e957fe5b602002602001015190506201a8217f2918602e9e6b68e5fb96a66548517f842e018a33b787e1f97e09aad16514b42560001b62001523565b6201a84f7fdffb4bb82dc1bb6df9dc9f47d4e2ead19ca50be3a03d63595761ac0a605f730460001b62001523565b6201a86181838c8c606001516200a95c565b6201a88f7f83c3be61d5ad5ba37711586a0dd35f5426419b0958fb0397041b23a500bd65c860001b62001523565b6201a8bc7eaa4b15e1595dff2a37eed92572e260c2296a76ab18470828b9fa008420081460001b62001523565b6201a8c78162009228565b156201a974576201a8fb7fe6e40c28fce1646a63f678f1c302e1a30ee37682276c4f0bae066af40adbd4e860001b62001523565b6201a9297f0be1539e61bb71c954e4984257509e6d497f95553dbeef45426425632da0f88660001b62001523565b6201a9577fbf00d7a61f3d25cccab6b78d0ed4fa3e5c3546cf8d41e0d3c6d06fd8a40e2f2b60001b62001523565b6201a96c8285620092eb90919063ffffffff16565b93506201a9a3565b6201a9a27f736760d4442edb40a04ebd48b78df32e10f250590895368b3354e083d9cff3cc60001b62001523565b5b6201a9d17f3a4357e88dc15383a2ad1bea03f335d72cfcd3b40e3cb886fb9e451d70ed8bd960001b62001523565b6201a9ff7f1616d17aa01281e27056af01aa91bc5e41545ce0b4b926e666b1a7df8b6e9a1360001b62001523565b60008684815181106201aa0e57fe5b602002602001015190506201aa467f78441accc45d78aed69563ffced2da4ee147134a023e488086df2075948574e960001b62001523565b6201aa747ffde4beb88503247bb8744ac1f5f8fef3a3823b90418dc551786174ed7f8ba8d360001b62001523565b6201aa8a6201aa83836200a367565b826200b9cb565b6201aab87f3f26902ea43e01aae5df6393597f7eb0dfb1ac8345963300656bb67af7d3875260001b62001523565b6201aae67f2647956f624e69697878ca8bdefdede84a7f602fb69d76f7a411d21ab8f8fc1d60001b62001523565b808310156201ab20576201ab1a8382038a86815181106201ab0357fe5b6020026020010151620196d590919063ffffffff16565b6201ab4c565b6201ab4b8184038a86815181106201ab3457fe5b6020026020010151620194e690919063ffffffff16565b5b8685815181106201ab5957fe5b6020026020010181815250505050508060010190506201a672565b506201aba37fca74788ab0377301ce7a329ce92c370c661433ab58d902f7f0784712953c3c5460001b62001523565b6201abd17fe3d4b1face46a60a4e113942f796e31c52cd45405e135244155308c2d0960ef260001b62001523565b6201abdc816200983a565b5095945050505050565b50565b60006201ac197fb3e0d3beaa65504071633a5bfc0b2cb6daa526bf695255bea8d5a89ed64580ec60001b62019976565b6201ac477f9ee5b79a319499c96c2ddf05f975faa34bc543ce1581ff233cbc3516eeaa0e8a60001b62019976565b6201ac757f945b2ab0b79b15202d057bea8a9e135225d552ce453bca785608303e97d139b860001b62019976565b60008360020160008473ffffffffffffffffffffffffffffffffffffffff1673ffffffffffffffffffffffffffffffffffffffff168152602001908152602001600020541415905092915050565b6201acf17f6741ba4f84d6125431f7e8de242f8b6287eb1b5404f4b1078a0eaacbc315ec9160001b620028d4565b6201ad1f7f7a37cdc78a8233d03528ee44f9c28d73cb67aff25b71928575671022596c6ae760001b620028d4565b6201ad4d7f552a023eb00128a050f05ab74f34d413dd4c784e4ffb6e5ff8ef1b506cbb211460001b620028d4565b6201ad5e83836201c0f8846201c305565b50505050565b6201ad927f6145e7eeb0139f9d209bfe8f499290fdb9d408404d94a33e93fe0d9d038dc03d60001b62006e97565b6201adc07fa922aa53ebb2f4b01b2860a833f7ace056a6761a3fdb12a4fa240a73a125123e60001b62006e97565b6201adee7f76f26f267a8033efd2716112a9b04e49bc32812e76856cdeda5ce1fd867d68fa60001b62006e97565b6201adff83836201c0f8846201c8cd565b50505050565b6201ae337f1c0693f765f8fa99eab7f5e332bb2768fb7678414e010472026a2de8d2ae9b1f60001b62001526565b6201ae617f2f8332809170e2f1a143cf392e9295d27ee71d942fbb8dd9a78dde9caf36c0ff60001b62001526565b6201ae8f7f6aa3aead43f93cf743dd67510eb264fe322244123d7572c05d3c12480c83f60f60001b62001526565b6201aea083836201c0f8846201cb06565b50505050565b6201aed47fd13950d8a7e00e49de84c194860bfc8fd412359762256e6ca192963927e1e16d60001b620028d4565b6201af027f121011320ff631d7ddc111dfec094d5787db9a8e254ab3d1f1435a09eac31b1660001b620028d4565b6201af307f4cfd0001329087a3736aef4912285c42ef2af21b45dd59d7339e10ce1ededcc160001b620028d4565b6201af4183836201cd76846201c305565b50505050565b6201af757f35d1c452af62fcf15ee9d0bcc911595f40d09411b527cd65099907b5e752352e60001b62006e97565b6201afa37f6401dcf4a2e2b1fac3bbfa77cd7989d5e114fa96647a529f8885bb059071014060001b62006e97565b6201afd17f3c24b73cfdc40ff116a347793f3411ab30a45d994ec5143c13ce0db0894308d060001b62006e97565b6201afe283836201cd76846201c8cd565b50505050565b6201b0167fb0a67efe7ee82f30678cd5c24724bf2fb015289c73fd99e11017cf6c8358bc6560001b62001526565b6201b0447f2f85578ac73600899d6dffd8ce00b33fe258df3911fa9e5d0796cf77c81d467260001b62001526565b6201b0727f8769e294f32e50e74207b19b4ff5cb5753861496b9e127c837d84f43fa2653d460001b62001526565b6201b08383836201cd76846201cb06565b50505050565b60006201b0b97f1de5f52f5ae2a1c589ed7ca6f0fdb98f31382d1c8f419b8cd6c952f54bbe3d1f60001b620028d4565b6201b0e77f902b3759932e979f7fc0aef758003421ee977e937b26c383ef60088469dba91760001b620028d4565b6201b1157f99f70095b3b1b574622dec0ed2af381f5db46173862af9a02d8f31bd2e69820560001b620028d4565b6201b12684846201cf83856201c305565b90509392505050565b60006201b15f7f23626afa7841a2851a9ff58b6f0e401bb24d2f1ff39b35038a02df2dda7d7c5960001b62006e97565b6201b18d7f4bea96bd677fda05c0a144f67009c0c9892fcf8edbf089155b7f3eb721741c8a60001b62006e97565b6201b1bb7f04863550ff0a95f97cc1ed08c2fabf71e45857a68b74f0a22f88b2d377cb46eb60001b62006e97565b6201b1cc84846201cf83856201c8cd565b90509392505050565b60006201b2057f6c7ccdf22c764f555f3f6280c6266394c04635e1e0792f18937a25bcbc1f429860001b62001526565b6201b2337ff11721fec5a786bd33e6ddaf903c946211d08417a534d90c2d98a7a581ec9f5160001b62001526565b6201b2617fc29d678a5e269bc9e023b3308364a09b4816c45852577d1ceb6651a487bbac8d60001b62001526565b6201b27284846201cf83856201cb06565b90509392505050565b60006201b2ab7fc9f1c13d3b7ffb1c19f7cfa243a63f58528679ecf95e622a88bb4be7a73ace5b60001b62019973565b6201b2d97fea5266949dda251a388224c9bd7fdc3d5f9304642f1db5cedc5d2ebea799880a60001b62019973565b6201b3077f6ca40e534a9a06091edf7c0dd43aa090061df70577cca7c0d6c866814a54adf260001b62019973565b81600001805490509050919050565b60006201b3467f5611b85ecce1b851e37a51d72c085e743f60f19c035ff687dcee7df4674b3bfe60001b62019973565b6201b3747f2202d92a05653ad78516520d47faaa842d192fb8aee9fdfc8a5e3e39a74900e860001b62019973565b6201b3a27ff499d07d00fefdbc0ea81915e115c016bd881d72dc5c4ae314e7f5105cb8dfe960001b62019973565b8260000182815481106201b3b257fe5b9060005260206000200160009054906101000a900473ffffffffffffffffffffffffffffffffffffffff16905092915050565b6000806201b4167f405f177c15ba412be42813cb44a9effcbac96ac333f4e16ceac024d75cf0caed60001b62019976565b6201b4447f3c892de420d1d46770af7a2daa19066a2d5a7692d7255c49286d4e88f4442d8d60001b62019976565b6201b4727f058e301da126454d7f6016ea921dfbc31b300dcc6fe375f37366ff0c4a67bf7360001b62019976565b600084600101600085815260200190815260200160002090506201b4b97f165a65b789c3070e547ed40d06f51b55e022a1a96773237b88c165efd2f8048960001b62019976565b6201b4e77fa2c8eeb33e824866edcd0fa06ec32013af4005a02a9a692c41947a8c32ee044160001b62019976565b8060000160009054906101000a900473ffffffffffffffffffffffffffffffffffffffff16816001015492509250509250929050565b60006201b54d7f6163ce464c758a4d5646c9116cf83fa37148e8c50ad55da2f4970dbe244d125460001b620028d1565b6201b57b7f32f72739ec17265dd621328544986d8923b9890ef60b4019f5f6b61bcb53bbb960001b620028d1565b6201b5a97f9472c29b9d9219ac6cba62c19ace7ab8e0d445a9c55577db8a4f82b80a54b00d60001b620028d1565b6201b5b560006201d0f2565b60001c905090565b60006201b5ed7fe8cb6b48e332b7e8b2193cadb620244e0a8c5debdef3c003fb83de244dc5ede960001b620028ce565b6201b61b7f488d5de471cd0dda1c4861a812e577305b6e750cca67d908ac29c43143d5f32760001b620028ce565b60003560e01c8063b95cac2881146201b66857638bdb391381146201b691576352bbbe2981146201b6ba5763945bcec981146201b6e35763fa6e671d81146201b70c57600092506201b730565b7f3f7b71252bd19113ff48c19c6e004a9bcfcca320a0d74d58e85877cbd7dcae5892506201b730565b7f8bbc57f66ea936902f50a71ce12b92c43f3c5340bb40c27c4e90ab84eeae335392506201b730565b7fe192dcbc143b1e244ad73b813fd3c097b832ad260a157340b4e5e5beda067abe92506201b730565b7f9bfc43a4d98313c6766986ffd7c916c7481566d9f224c6819af0a53388aced3a92506201b730565b7fa3f865aa351e51cfeb40f5178d1564bb629fe9030b83caf6361d1baaf5b90b5a92505b505090565b60606201b7657f626fe3ad03ccaa283d6f787b3890ddeea5681fd9d641d73fb01a9cba4a2c021260001b620028d1565b6201b7937fd215e6efe7442b1e24ff4fd00e35422ef63ad7bad10a129ac86d4ba72a9db90260001b620028d1565b6201b7c17f76d3411d53b984fa4f1d02889849bee13ff8e5757da68ce1dd3bf755bf2004db60001b620028d1565b6000368080601f016020809104026020016040519081016040528093929190818152602001838380828437600081840152601f19601f8201169050808301925050505050505090506201b8377f1762600c91090c62aab8c4537cfd981d066dfd54a061881d7130fd5d8529b8a360001b620028d1565b6201b8657fc574890743f4e0729e2f0dd122ca7991b26be42bc4adfc457bfea8e9b9cfd7b460001b620028d1565b6080815111156201b8d8576201b89e7f18f0412aaf181915557e80ac8c0b71aea82c04f9a6354cec86570697b17abbc260001b620028d1565b6201b8cc7f43fc9d45d9d327bf2edafca040dfe01c07154a0a7a93ae6e46e07c2079dd2cf960001b620028d1565b6080360381526201b907565b6201b9067f6daef15714d8f3f9bb4ca59a02ff35a2b9fb437bd7181b1e2d9baecf04b513d460001b620028d1565b5b90565b60006201b93a7f2c54610e3fe0a98df3c423e90950973fc94146f557b01b6bee8cca13a6032b4a60001b62004f2b565b6201b9687fbc254dfd0c8280fa8535e89d4bc4cc331f18b5ac8558d459ad7b42c1e1c9d89c60001b62004f2b565b6201b9967f2ceb1de44021a984c31888fffa7404fe74791ca186de59ed6c94965c86a06b2260001b62004f2b565b6201b9a06200fb90565b826040516020016201b9b49291906201edf2565b604051602081830303815290604052805190602001209050919050565b60008060006201ba047fb698125995b0d07aebeb32c65db9dd09a73699a22bb50af603056104f8b5aeb960001b620028d1565b6201ba327fa89aa19a6ce0a79fbae42316df8c03b0066ff0600015b41870bb260de4bda1bc60001b620028d1565b6201ba607f67f8e503f7f2b1618bebe1a6fb73901c9c90a7c6783b30a78b3bc8687c34f6dc60001b620028d1565b6201ba6c60206201d0f2565b60001c92506201ba9f7fd9a7a4318496870bfa7bd4a9ec0e242f76633ea277183ff1d59ea5327bb94fca60001b620028d1565b6201bacd7f44b24a743a83389536a8d17ded67aa63d49d695c8d6a612facee994c201a75f960001b620028d1565b6201bad960406201d0f2565b91506201bb097f1ff09fadcd3566392c8065e410c7c5196725f64ed647ce9e67e95438660c57ca60001b620028d1565b6201bb377f60d20d76673f95ee133f52304bbe7a45cdc59ea4ccde5a09eafa17fa13169f9e60001b620028d1565b6201bb4360606201d0f2565b9050909192565b60006201bb7a7f552d0e4c6a623022f8fc419ae17cd11abaad7ba7eeb18a7023884d25577dab6160001b62016316565b6201bba87f404c41f69874b5b39339871a08abdf7e213ef29d619b49b11f20077a11a246b060001b62016316565b6201bbd67ff9e248d67047a4f5e90cf6b2f30112695be9c02b8df7cdd69b048d35bd1d958260001b62016316565b83607084901b60e084901b010160001b90509392505050565b60006201bc1f7f2c7dcd58ec06de5f0409cc70fe46c19a04c437d61ec23ebdbbaf57050d2034d960001b62016316565b6201bc4d7f5213dd4bbb8c601d48f094f88eec978a1a6b4a29dd88d13964b753cc0de4d74660001b62016316565b6201bc7b7f1042230dc3f9258eff1773de9ce7e74b37d8bec9307fa0d2ee18d8ab8444942a60001b62016316565b600083850190506201bcb07f8d945e55b3fed3460655b4dc753fd28b8ea0573c225afce3d31a2af78505a48760001b62016316565b6201bcde7fb0f43c4dd86959691216802b717e13f5190a9e8ca6c0dcc9d429c127cae9a91560001b62016316565b6201bd0a8582101580156201bd0157506e01000000000000000000000000000082105b61020e62000d70565b6201bd387f0539d36f299c7d9bf0c2c640b8cd2daf18022f519f458ae372203b6b2f0b27e260001b62016316565b6201bd667f2993298e160c427f4b35db19291bf0a44ebd7ae7de0f9fe1b258194d9fa43bc660001b62016316565b6201bd738585856201bb4a565b9150509392505050565b60006201bdad7f4ad272e8ef896cf9749bbb33b720ec50902be1d6268b31d272f37eeffc01139760001b62010a3f565b6201bddb7ff5b8f6315ed04f6f880d15c913444893b354f451e1a7755f980256aa3a67eb1b60001b62010a3f565b6201be097fbdc5b111411beb8ab6b53375bbc8bf4e74258c8c8f4987a4928ce54801c48b0060001b62010a3f565b6201be1983831115600162000d70565b6201be477f878d38a5a5b3291f5b62618821c286b1ce4d8ac1fde0f5c52c6f8b253e3c721860001b62010a3f565b6201be757fdee8db45952fd0881a888ce099e6774ada46e04a8240c739354e8b594734d0b160001b62010a3f565b600082840390506201beaa7fa883eec5840f8062e57d5a86c35fd0af17f6df22b4081b6a3676dd71088ac1e360001b62010a3f565b6201bed87fc44e06103de1985a150207dd6e5102796da4ff917908533e00a2fd2e75a52f9460001b62010a3f565b8091505092915050565b60006201bf127f947d6430ee322053deb74fac577c8aea37a0c5939712661f76e4afa86c2f0ced60001b62016316565b6201bf407fb9f3c8f564cab225601fe087d79b7ff286fc31e5f34c73d1974caf700f52915360001b62016316565b6201bf6e7fcffbc04b1636fa157cd06aac0ffcd0d59cdfe642207854b9d97f087fe3e8552d60001b62016316565b60006dffffffffffffffffffffffffffff90506201bfaf7f3c5ce310770e5097092d695f5df4799a140357b8cad6b3a144e7a36056860d2460001b62016316565b6201bfdd7f168d66f16c565e0a98aebcccde6d7ad1b5a8dfe376fd1335e72788a7930414c960001b62016316565b808360001c16915050919050565b60006201c01b7fcd70f4ca4a7cf681cd96164b9daf031806344110c3b15f9b0e6e30cbc883300860001b62016316565b6201c0497fae6d84879513329ae833760a602bf5aad49eef98081306dcdb2ecce51bf46fa560001b62016316565b6201c0777fab5e3e7455595cd28b4189d6a78a73a21431fe0b46c67b755fc17fa6236ec2d460001b62016316565b60006dffffffffffffffffffffffffffff90506201c0b87f9435dd2efb3afb1ae5401a94ce68cf60d3b286be19e403bcc857bb86d2c71de060001b62016316565b6201c0e67f5cae5549f481293e308f14c99906fc2fc95858fc8ed8891aa8259b5b98573ca360001b62016316565b80607084901c60001c16915050919050565b60006201c1287f992455bf632241e5bafb4d05fabc07b9fdd142e285b0883d630364057948877d60001b62016316565b6201c1567ff4af5c2fa2e01808d7267bb93d224595f64eb0a0d0bab9006b1537dd5a033a7c60001b62016316565b6201c1847ff51f72c09a3e6167655ab2841b8460255c8d431d8d4f6e888a59744d8209cc6460001b62016316565b60006201c1a5836201c196866200f110565b6201bd7d90919063ffffffff16565b90506201c1d57f7d5084eab6d7d04d7f4be8b19b68fe1cbc814088b7740055ec886e11e0025d7260001b62016316565b6201c2037fceedb77cdac418ef8053942ce5d47d5d3295f644ad8e8186775d1c5c41aba9b360001b62016316565b60006201c224846201c215876200f219565b620092eb90919063ffffffff16565b90506201c2547f228f2c424f04822d821be0707b0fa87ccea70b88315d6d985bfcb0f83856bf1460001b62016316565b6201c2827fc8a341379294b50777057c78d443b39628729316831e72be3c1d223b8d6faa6660001b62016316565b60006201c28f866200f326565b90506201c2bf7f552c356ffe0e9924c1e18659f2ecd9447ff3847e3d42dcca1fe2d2862823d98360001b62016316565b6201c2ed7f4e534d4ac638edfdd1497a5de31573bdd016919c6f1c978565c0377afd6ab58560001b62016316565b6201c2fa8383836201bbef565b935050505092915050565b60006201c3357f55bf400428d1e7f5087f63b04a2c94458c03efdcdea541d9fbf0d65a47a1e7f860001b620028d4565b6201c3637f53cf7d046965df494a3c7407162e993c8471e7714d6c6a11306bfbb3940c9d9d60001b620028d4565b6201c3917f4335cfe15e6702a6dc2d1740d78caef4f4a25c90e672a45e0506394af856a43360001b620028d4565b6000806000806201c3a28962015d64565b9450509350935093506201c3d97f68f0d188289e3089ce872466587c17bdf55bad46bac53ea8d3cbc9a4e6ad3fc360001b620028d4565b6201c4077f7121854e29734ecca389c279af8a63f51ae31a796b16247f8faf58f8bb96f06260001b620028d4565b60006201c4377f8e42184a743a79f4121b2c5a94679ce6e84985833137b8fd992f9db3d351fa1c60001b620028d4565b6201c4657f15dfe80d0c6b627d936aaa536a15b7347060c5685eaf7a6d14b1ecf25c1b500a60001b620028d4565b8373ffffffffffffffffffffffffffffffffffffffff168973ffffffffffffffffffffffffffffffffffffffff1614156201c610576201c4c87f25e31a7c7c9fef945791c9d9d3f8999056bfb8a1f651eb201ea2c38db6586b9860001b620028d4565b6201c4f67f0a594d3a92ee39882bf449acff4a05922a8cccc15a266648be52670a4acbcb2560001b620028d4565b6201c5247f13b09c1ee614b111a1191c8692a92749b9c301b5dcc1d9e125a02775ec08001e60001b620028d4565b60006201c53584898b63ffffffff16565b90506201c5657f8aeaceb75a4fa31b6a2ac5f9e829089a7bd87042bb039fdb9d60d4e7f18a422760001b620028d4565b6201c5937ffabbcc5ab8b46a4e8e9e47ed5562ed06fc52f7a06b1c47263afe1ae7140c455c60001b620028d4565b6201c5a884826201d15e90919063ffffffff16565b91506201c5d87fb41f7ba3f11841ba280d92648fc27bce26e9ac5a32fd029132538eb85a7b874660001b620028d4565b6201c6067fd024b2d5b91db6624c82e1bc4a9f826668f1c471cb4b244529c63f1a4ae5dba260001b620028d4565b809350506201c781565b6201c63e7ff995b95932307d72f86ed6bc93e24e09a2713a36b0e3663721cc151e5d0159fd60001b620028d4565b6201c66c7fa2b0c40ebdc59e2dabe723741755c0bd9d422a41beb1563a34276ae525ad4f5f60001b620028d4565b6201c69a7f425ce3a58eefbc5f830a8cc1bc2cee6034ba4b73e68d0357418f800c279d153a60001b620028d4565b60006201c6ab83898b63ffffffff16565b90506201c6db7f333290b3636d69bc5bd03f9c0dd9c656a2dc80767a02e792fc6718fb9a200a1660001b620028d4565b6201c7097f508597b07b3d3da8b29b1144451322da805725e2409425892bee75eaac8ff2ba60001b620028d4565b6201c71e83826201d15e90919063ffffffff16565b91506201c74e7f128eac9011eba1eecea6465db632afee9e3f73b979a007440fee945f0e34c80b60001b620028d4565b6201c77c7f54334c73a4181664e8561652ec2bb37175dc58c24a2250d2057da8c53431f94660001b620028d4565b809250505b6201c7af7f4e5b3cca8826ea4ea0bf2a908853f3038f337aca047c74d74bb14ba15f56650860001b620028d4565b6201c7dd7f4a6674756a398d916f5e99ef59d6650ddc8d9fa8152b551b8e65e993cde552be60001b620028d4565b6201c7e983836201918f565b85600001819055506201c81f7fc6b96d12c52471563577de08273d3dc6b27c8c772f59026fa13b435e15e5eec060001b620028d4565b6201c84d7f6713d1e69f9e6089e79853a0733e7c605b69b071366426be89ef48ceb0604dd160001b620028d4565b6201c85983836201d209565b85600101819055506201c88f7f8164a7a96a39f0f6d8b3a37a9c1c769f30e153c2e7a39b4455e36ca2489260ef60001b620028d4565b6201c8bd7f0929e175574b7d09137bef187c25e66481aa83070358458afebe6f6dfa70e40260001b620028d4565b8095505050505050949350505050565b60006201c8fd7f55f5432032e509b0bc13ab604ef56c117e137aee0bc44c52ab275a644a33469660001b62006e97565b6201c92b7f82c4f13e7bc4eb2bb384b48fedcfb52bef6fdb7a8095a9980cc78e847d35c13f60001b62006e97565b6201c9597f22013e7abac919813b5685df703fc6c76280347a55d2d2ce35f4bdab70ccedff60001b62006e97565b60006201c96786866200ec85565b90506201c9977f80ed5cedfbb2745546cc940c59e1b91f8f2fe9d7286624b8793d87ed70e5a5cd60001b62006e97565b6201c9c57fd58360fa729a462353db482681e06e45f0f08a785fffa6b5e59356a71a899e9060001b62006e97565b60006201c9d682858763ffffffff16565b90506201ca067f15b2f7bc27305b113abb3c0d955c870ce4323c1e37abc9db5822ea1b0a9e702760001b62006e97565b6201ca347fd92854e2d9333d9d3d367a9a49e64afbe197c237ac350cb05c619836f304ef5860001b62006e97565b806007600089815260200190815260200160002060008873ffffffffffffffffffffffffffffffffffffffff1673ffffffffffffffffffffffffffffffffffffffff168152602001908152602001600020819055506201cab77fa880cc0dc18832534d0cfa3a71fe8529b196dd5e5600addab06c1ee6c1de9a7560001b62006e97565b6201cae57f093205ad8194719281e397256d77a800e807b1a4b8bfd574272164b0d122a12460001b62006e97565b6201cafa82826201d15e90919063ffffffff16565b92505050949350505050565b60006201cb367fcd15993ba109de5f0c2cb9d25e29533a64fb39a7c1b9ee81944bbe66a4b6b6bc60001b62001526565b6201cb647feba9246626f0b5b71c94faacfb57e992ad5d2b7e8a748115f60c8cbdd834020760001b62001526565b6201cb927f993c276a486913ece5749361ae12a967c5d548883751a2bf0f17d8eeea27254760001b62001526565b60006001600087815260200190815260200160002090506201cbd77f8483081fcb6d5832f18cc54712ef8fdcb1aacaa4fe0a9a4008a497d8c7e40c2760001b62001526565b6201cc057f29ec17a99b6dfa00c3f479c055e35260fd0aa41e6cd6c39ab0f8bff4fae3a8ae60001b62001526565b60006201cc13828762013ffe565b90506201cc437f92cd3eb7b197bc87935f883075a8f528ada0ee811da5919b3b7a9e68bf0384bb60001b62001526565b6201cc717f0ca107eb063f18e1345cf1e8c8a78ca24a381e2f4efc0879892177f109c75ae060001b62001526565b60006201cc8282868863ffffffff16565b90506201ccb27f152a0b4259fb5f1239d4e12d06fc6c786288d59cc8a2c43a54015859d35c5e5c60001b62001526565b6201cce07f3d45878b0a7ad924dbaa059a226e01e04e3b45c21e3c2a6d11bba696481eb1fe60001b62001526565b6201ccf787828562012dea9092919063ffffffff16565b506201cd267f7ff8a982e22cfb4e15b0838b22847010182bb3275fad9c5ff55b18b66ca3f55660001b62001526565b6201cd547f067180294a0cccca9d9cb5a32ca7577ee48b2d04aed9e3a3a14f319e3e895f2860001b62001526565b6201cd6982826201d15e90919063ffffffff16565b9350505050949350505050565b60006201cda67f8febe936d82836bfd00b5597d390a90342c2cb05bc2d93fdf7747a45256abc1d60001b62016316565b6201cdd47f5cd23e2ea0f4a23d368bb3b852e2ce00c35654813fc9f579a752e6740300068260001b62016316565b6201ce027ffd64e1c63a65bc80ca5aab5738d874b3842c9baa10e66b8e312b58ac9f10feda60001b62016316565b60006201ce23836201ce14866200f110565b620092eb90919063ffffffff16565b90506201ce537f32b12c489c8f07b8efb7b640b7cac3de31fce872ed7385cc0c76eda692cf1c5d60001b62016316565b6201ce817fc9bbb26a911b5a8a4e50c0ac73ecd7d8d05101549f7e93073d53f00f9baa040a60001b62016316565b60006201cea2846201ce93876200f219565b6201bd7d90919063ffffffff16565b90506201ced27f794ffc8fdccdea8ddba90f6363d43c09938aea4746c2d7ad6dd535c17000038060001b62016316565b6201cf007fefb58e575f8a55f79b33e118cdca0158f19e02b91f5cf0e3221b4603d9e1219a60001b62016316565b60006201cf0d866200f326565b90506201cf3d7f04f90ca3254222ee65c91470776945d7b2730b2e0bedd88717dc4300eea7ca7c60001b62016316565b6201cf6b7fc82212e816288906709ee1a168629a5dacfa0ea936cbef9e3a111644d92edfce60001b62016316565b6201cf788383836201bbef565b935050505092915050565b60006201cfb37fd65ed42d973c159414e8d983df3b4c500560fac62c7d426c33be3c176d881d1660001b62016316565b6201cfe17fda9dc587283be84ae66e2a7d6647469f45979de74a807927bac83d0666fbb33360001b62016316565b6201d00f7f4275def1d7e0767099b363e3e0d0b4449b9aef4e3977f624eca953875d8d2bb960001b62016316565b60006201d01c846200f110565b90506201d04c7f8643b91d553d1098022bf849f39d121db2e3512930d6166b399cb36a1118c77660001b62016316565b6201d07a7f2a16e1e53e1935aff7a89fc574e2ec49ef5a32ba3463cac1e03e1517c80f75a660001b62016316565b60004390506201d0ad7f44ff7aab86a5d9ca3b624dd830c6753c3d2a46a04991188e2c8e4c70af10a43360001b62016316565b6201d0db7fd50c7764ee4593dbbaec54be99c2e9a756f2a404b6f64e6c731296e26aa9aa0060001b62016316565b6201d0e88285836201bbef565b9250505092915050565b60006201d1227f37c919d20d8a5bb2bf1f1b41d0410950791965427581e46b16159c34fdc020de60001b620028d1565b6201d1507fd1e515c22122627ad854070c8bb10deaf9a7fdfe0affa21369c786c4aa15fe4860001b620028d1565b816080360301359050919050565b60006201d18e7f8e65ff402ac18ad740551f847eeb949cf4132183bcea59bd650fb97918a43e7d60001b62016316565b6201d1bc7f1dfe4d370bf7862d624fb1c519a5ffe99392a8839966295419a8885442c5c6ba60001b62016316565b6201d1ea7f1fd421c7ef206a981cff9eb1193255e0f5f8665ad0187c08e2a05add5decf86b60001b62016316565b6201d1f5826200f219565b6201d200846200f219565b03905092915050565b60006201d2397f777670c39b5b75dca270fc5be3e01476f0ac4772924e63cfefec85b64f86610660001b62016316565b6201d2677fd09769232f7c4dceef2daa2c56f527e96a2d464080b24dae1b4d237f7595981a60001b62016316565b6201d2957f8aa8d598c8584c66cc11b0205bd31f630aaf01f35ebd53d110713f6202d17b4660001b62016316565b6201d2b76201d2a4846200f219565b6201d2af846200f219565b60006201bb4a565b905092915050565b604051806101200160405280600060018111156201d2d957fe5b8152602001600073ffffffffffffffffffffffffffffffffffffffff168152602001600073ffffffffffffffffffffffffffffffffffffffff168152602001600081526020016000801916815260200160008152602001600073ffffffffffffffffffffffffffffffffffffffff168152602001600073ffffffffffffffffffffffffffffffffffffffff168152602001606081525090565b6040518060800160405280600060028111156201d38b57fe5b815260200160008019168152602001600073ffffffffffffffffffffffffffffffffffffffff168152602001600081525090565b60405180608001604052806060815260200160608152602001606081526020016000151581525090565b6040518060a0016040528060008019168152602001600081526020016000815260200160008152602001606081525090565b6000813590506201d42c816201fa7e565b92915050565b6000813590506201d443816201fa98565b92915050565b600082601f8301126201d45b57600080fd5b81356201d4726201d46c826201f50f565b6201f4e1565b915081818352602084019350602081019050838560208402820111156201d49857600080fd5b60005b838110156201d4cc57816201d4b188826201d41b565b8452602084019350602083019250506001810190506201d49b565b5050505092915050565b600082601f8301126201d4e857600080fd5b81356201d4ff6201d4f9826201f538565b6201f4e1565b915081818352602084019350602081019050838560208402820111156201d52557600080fd5b60005b838110156201d55957816201d53e88826201d9e6565b8452602084019350602083019250506001810190506201d528565b5050505092915050565b600082601f8301126201d57557600080fd5b81356201d58c6201d586826201f561565b6201f4e1565b915081818352602084019350602081019050838560208402820111156201d5b257600080fd5b60005b838110156201d5e657816201d5cb88826201da14565b8452602084019350602083019250506001810190506201d5b5565b5050505092915050565b600082601f8301126201d60257600080fd5b81356201d6196201d613826201f58a565b6201f4e1565b915081818352602084019350602081019050838560208402820111156201d63f57600080fd5b60005b838110156201d67357816201d65888826201da9e565b8452602084019350602083019250506001810190506201d642565b5050505092915050565b600082601f8301126201d68f57600080fd5b81356201d6a66201d6a0826201f5b3565b6201f4e1565b9150818183526020840193506020810190508360005b838110156201d6f057813586016201d6d588826201dab5565b8452602084019350602083019250506001810190506201d6bc565b5050505092915050565b600082601f8301126201d70c57600080fd5b81356201d7236201d71d826201f5dc565b6201f4e1565b915081818352602084019350602081019050838560808402820111156201d74957600080fd5b60005b838110156201d77d57816201d76288826201dd76565b8452602084019350608083019250506001810190506201d74c565b5050505092915050565b600082601f8301126201d79957600080fd5b81356201d7b06201d7aa826201f605565b6201f4e1565b915081818352602084019350602081019050838560a08402820111156201d7d657600080fd5b60005b838110156201d80a57816201d7ef88826201deb9565b845260208401935060a083019250506001810190506201d7d9565b5050505092915050565b600082601f8301126201d82657600080fd5b81356201d83d6201d837826201f62e565b6201f4e1565b915081818352602084019350602081019050838560208402820111156201d86357600080fd5b60005b838110156201d89757816201d87c88826201df4e565b8452602084019350602083019250506001810190506201d866565b5050505092915050565b600082601f8301126201d8b357600080fd5b81516201d8ca6201d8c4826201f62e565b6201f4e1565b915081818352602084019350602081019050838560208402820111156201d8f057600080fd5b60005b838110156201d92457816201d90988826201df65565b8452602084019350602083019250506001810190506201d8f3565b5050505092915050565b6000813590506201d93f816201fab2565b92915050565b6000815190506201d956816201fab2565b92915050565b6000813590506201d96d816201facc565b92915050565b6000813590506201d984816201fae6565b92915050565b600082601f8301126201d99c57600080fd5b81356201d9b36201d9ad826201f657565b6201f4e1565b915080825260208301602083018583830111156201d9d057600080fd5b6201d9dd8382846201f9c3565b50505092915050565b6000813590506201d9f7816201fb00565b92915050565b6000813590506201da0e816201fb1a565b92915050565b6000813590506201da25816201fb34565b92915050565b6000813590506201da3c816201fb4e565b92915050565b6000813590506201da53816201fb68565b92915050565b6000813590506201da6a816201fb79565b92915050565b6000813590506201da81816201fb8a565b92915050565b6000813590506201da98816201fb9b565b92915050565b6000813590506201daaf816201fbac565b92915050565b600060a082840312156201dac857600080fd5b6201dad460a06201f4e1565b905060006201dae6848285016201d95c565b60008301525060206201dafc848285016201df4e565b60208301525060406201db12848285016201df4e565b60408301525060606201db28848285016201df4e565b606083015250608082013567ffffffffffffffff8111156201db4957600080fd5b6201db57848285016201d98a565b60808301525092915050565b6000608082840312156201db7657600080fd5b6201db8260806201f4e1565b9050600082013567ffffffffffffffff8111156201db9f57600080fd5b6201dbad848285016201d4d6565b600083015250602082013567ffffffffffffffff8111156201dbce57600080fd5b6201dbdc848285016201d814565b602083015250604082013567ffffffffffffffff8111156201dbfd57600080fd5b6201dc0b848285016201d98a565b60408301525060606201dc21848285016201d92e565b60608301525092915050565b6000608082840312156201dc4057600080fd5b6201dc4c60806201f4e1565b905060006201dc5e848285016201d41b565b60008301525060206201dc74848285016201d92e565b60208301525060406201dc8a848285016201d432565b60408301525060606201dca0848285016201d92e565b60608301525092915050565b6000608082840312156201dcbf57600080fd5b6201dccb60806201f4e1565b9050600082013567ffffffffffffffff8111156201dce857600080fd5b6201dcf6848285016201d4d6565b600083015250602082013567ffffffffffffffff8111156201dd1757600080fd5b6201dd25848285016201d814565b602083015250604082013567ffffffffffffffff8111156201dd4657600080fd5b6201dd54848285016201d98a565b60408301525060606201dd6a848285016201d92e565b60608301525092915050565b6000608082840312156201dd8957600080fd5b6201dd9560806201f4e1565b905060006201dda7848285016201da42565b60008301525060206201ddbd848285016201d95c565b60208301525060406201ddd3848285016201da14565b60408301525060606201dde9848285016201df4e565b60608301525092915050565b600060c082840312156201de0857600080fd5b6201de1460c06201f4e1565b905060006201de26848285016201d95c565b60008301525060206201de3c848285016201da70565b60208301525060406201de52848285016201d9e6565b60408301525060606201de68848285016201d9e6565b60608301525060806201de7e848285016201df4e565b60808301525060a082013567ffffffffffffffff8111156201de9f57600080fd5b6201dead848285016201d98a565b60a08301525092915050565b600060a082840312156201decc57600080fd5b6201ded860a06201f4e1565b905060006201deea848285016201da87565b60008301525060206201df00848285016201d9e6565b60208301525060406201df16848285016201df4e565b60408301525060606201df2c848285016201d41b565b60608301525060806201df42848285016201d432565b60808301525092915050565b6000813590506201df5f816201fbc6565b92915050565b6000815190506201df76816201fbc6565b92915050565b6000602082840312156201df8f57600080fd5b60006201df9f848285016201d41b565b91505092915050565b600080604083850312156201dfbc57600080fd5b60006201dfcc858286016201d41b565b92505060206201dfdf858286016201d41b565b9150509250929050565b6000806000606084860312156201dfff57600080fd5b60006201e00f868287016201d41b565b93505060206201e022868287016201d41b565b92505060406201e035868287016201d92e565b9150509250925092565b600080604083850312156201e05357600080fd5b60006201e063858286016201d41b565b925050602083013567ffffffffffffffff8111156201e08157600080fd5b6201e08f858286016201d563565b9150509250929050565b6000602082840312156201e0ac57600080fd5b600082013567ffffffffffffffff8111156201e0c757600080fd5b6201e0d5848285016201d6fa565b91505092915050565b6000602082840312156201e0f157600080fd5b600082013567ffffffffffffffff8111156201e10c57600080fd5b6201e11a848285016201d787565b91505092915050565b600080604083850312156201e13757600080fd5b600083015167ffffffffffffffff8111156201e15257600080fd5b6201e160858286016201d8a1565b925050602083015167ffffffffffffffff8111156201e17e57600080fd5b6201e18c858286016201d8a1565b9150509250929050565b6000602082840312156201e1a957600080fd5b60006201e1b9848285016201d92e565b91505092915050565b6000602082840312156201e1d557600080fd5b60006201e1e5848285016201d945565b91505092915050565b6000602082840312156201e20157600080fd5b60006201e211848285016201d95c565b91505092915050565b600080600080608085870312156201e23157600080fd5b60006201e241878288016201d95c565b94505060206201e254878288016201d41b565b93505060406201e267878288016201d432565b925050606085013567ffffffffffffffff8111156201e28557600080fd5b6201e293878288016201db63565b91505092959194509250565b600080600080608085870312156201e2b657600080fd5b60006201e2c6878288016201d95c565b94505060206201e2d9878288016201d41b565b93505060406201e2ec878288016201d41b565b925050606085013567ffffffffffffffff8111156201e30a57600080fd5b6201e318878288016201dcac565b91505092959194509250565b600080604083850312156201e33857600080fd5b60006201e348858286016201d95c565b925050602083013567ffffffffffffffff8111156201e36657600080fd5b6201e374858286016201d563565b9150509250929050565b6000806000606084860312156201e39457600080fd5b60006201e3a4868287016201d95c565b935050602084013567ffffffffffffffff8111156201e3c257600080fd5b6201e3d0868287016201d563565b925050604084013567ffffffffffffffff8111156201e3ee57600080fd5b6201e3fc868287016201d449565b9150509250925092565b600080604083850312156201e41a57600080fd5b60006201e42a858286016201d95c565b92505060206201e43d858286016201da14565b9150509250929050565b6000602082840312156201e45a57600080fd5b60006201e46a848285016201d973565b91505092915050565b6000602082840312156201e48657600080fd5b60006201e496848285016201d9fd565b91505092915050565b600080600080608085870312156201e4b657600080fd5b60006201e4c6878288016201da2b565b945050602085013567ffffffffffffffff8111156201e4e457600080fd5b6201e4f2878288016201d563565b935050604085013567ffffffffffffffff8111156201e51057600080fd5b6201e51e878288016201d814565b925050606085013567ffffffffffffffff8111156201e53c57600080fd5b6201e54a878288016201d98a565b91505092959194509250565b6000602082840312156201e56957600080fd5b60006201e579848285016201da59565b91505092915050565b60008060008060e085870312156201e59957600080fd5b60006201e5a9878288016201da70565b945050602085013567ffffffffffffffff8111156201e5c757600080fd5b6201e5d5878288016201d67d565b935050604085013567ffffffffffffffff8111156201e5f357600080fd5b6201e601878288016201d4d6565b92505060606201e614878288016201dc2d565b91505092959194509250565b60008060008060008061012087890312156201e63b57600080fd5b60006201e64b89828a016201da70565b965050602087013567ffffffffffffffff8111156201e66957600080fd5b6201e67789828a016201d67d565b955050604087013567ffffffffffffffff8111156201e69557600080fd5b6201e6a389828a016201d4d6565b94505060606201e6b689828a016201dc2d565b93505060e087013567ffffffffffffffff8111156201e6d457600080fd5b6201e6e289828a016201d5f0565b9250506101006201e6f689828a016201df4e565b9150509295509295509295565b60008060008060e085870312156201e71a57600080fd5b600085013567ffffffffffffffff8111156201e73557600080fd5b6201e743878288016201ddf5565b94505060206201e756878288016201dc2d565b93505060a06201e769878288016201df4e565b92505060c06201e77c878288016201df4e565b91505092959194509250565b6000602082840312156201e79b57600080fd5b60006201e7ab848285016201df65565b91505092915050565b60006201e7c283836201e83e565b60208301905092915050565b60006201e7dc83836201eb64565b60208301905092915050565b60006201e7f683836201ebd4565b60208301905092915050565b60006201e81083836201ed2b565b60208301905092915050565b6201e827816201f8bf565b82525050565b6201e838816201f7ae565b82525050565b6201e849816201f79a565b82525050565b6201e85a816201f79a565b82525050565b60006201e86d826201f6c4565b6201e87981856201f72f565b93506201e886836201f684565b8060005b838110156201e8bd5781516201e8a188826201e7b4565b97506201e8ae836201f6fb565b9250506001810190506201e88a565b5085935050505092915050565b60006201e8d7826201f6cf565b6201e8e381856201f72f565b93506201e8f0836201f694565b8060005b838110156201e9275781516201e90b88826201e7ce565b97506201e918836201f708565b9250506001810190506201e8f4565b5085935050505092915050565b60006201e941826201f6da565b6201e94d81856201f740565b93506201e95a836201f6a4565b8060005b838110156201e9915781516201e97588826201e7e8565b97506201e982836201f715565b9250506001810190506201e95e565b5085935050505092915050565b60006201e9ab826201f6e5565b6201e9b781856201f751565b93506201e9c4836201f6b4565b8060005b838110156201e9fb5781516201e9df88826201e802565b97506201e9ec836201f722565b9250506001810190506201e9c8565b5085935050505092915050565b6201ea13816201f7c2565b82525050565b6201ea24816201f7ce565b82525050565b6201ea35816201f7ce565b82525050565b6201ea506201ea4a826201f7ce565b6201fa1c565b82525050565b6201ea6b6201ea65826201f7d8565b6201fa26565b82525050565b60006201ea7f83856201f784565b93506201ea8e8385846201f9c3565b82840190509392505050565b60006201eaa7826201f6f0565b6201eab381856201f762565b93506201eac58185602086016201f9d2565b6201ead0816201fa44565b840191505092915050565b60006201eae8826201f6f0565b6201eaf481856201f773565b93506201eb068185602086016201f9d2565b6201eb11816201fa44565b840191505092915050565b60006201eb29826201f6f0565b6201eb3581856201f784565b93506201eb478185602086016201f9d2565b80840191505092915050565b6201eb5e816201f8d3565b82525050565b6201eb6f816201f8fb565b82525050565b6201eb8a6201eb84826201f8fb565b6201fa08565b82525050565b6201eb9b816201f923565b82525050565b6201ebac816201f94b565b82525050565b6201ebbd816201f973565b82525050565b6201ebce816201f987565b82525050565b6201ebdf816201f87e565b82525050565b6201ebf0816201f87e565b82525050565b60006201ec056002836201f78f565b91507f19010000000000000000000000000000000000000000000000000000000000006000830152600282019050919050565b60006201ec476000836201f784565b9150600082019050919050565b6000610120830160008301516201ec6f60008601826201ebc3565b5060208301516201ec8460208601826201eb64565b5060408301516201ec9960408601826201eb64565b5060608301516201ecae60608601826201ed2b565b5060808301516201ecc360808601826201ea19565b5060a08301516201ecd860a08601826201ed2b565b5060c08301516201eced60c08601826201e83e565b5060e08301516201ed0260e08601826201e83e565b506101008301518482036101008601526201ed1e82826201ea9a565b9150508091505092915050565b6201ed36816201f8a8565b82525050565b6201ed47816201f8a8565b82525050565b6201ed58816201f8b2565b82525050565b60006201ed6c82856201ea3b565b6020820191506201ed7e82846201ea56565b6004820191508190509392505050565b60006201ed9d8284866201ea71565b91508190509392505050565b60006201edb782846201eb1c565b915081905092915050565b60006201edd082856201eb75565b6014820191506201ede282846201eb75565b6014820191508190509392505050565b60006201edff826201ebf6565b91506201ee0d82856201ea3b565b6020820191506201ee1f82846201ea3b565b6020820191508190509392505050565b60006201ee3c826201ec38565b9150819050919050565b60006020820190506201ee5d60008301846201e84f565b92915050565b60006060820190506201ee7a60008301866201e84f565b6201ee8960208301856201e84f565b6201ee9860408301846201ed3c565b949350505050565b60006040820190506201eeb760008301856201e84f565b6201eec660208301846201ebb2565b9392505050565b60006040820190506201eee460008301856201e84f565b6201eef360208301846201ed3c565b9392505050565b600060208201905081810360008301526201ef1681846201e8ca565b905092915050565b600060408201905081810360008301526201ef3a81856201e8ca565b905081810360208301526201ef5081846201e860565b90509392505050565b600060608201905081810360008301526201ef7581866201e8ca565b905081810360208301526201ef8b81856201e934565b905081810360408301526201efa181846201e99e565b9050949350505050565b600060808201905081810360008301526201efc781876201e8ca565b905081810360208301526201efdd81866201e99e565b905081810360408301526201eff381856201e99e565b905081810360608301526201f00981846201eadb565b905095945050505050565b600060608201905081810360008301526201f03081866201e8ca565b905081810360208301526201f04681856201e99e565b90506201f05760408301846201ed3c565b949350505050565b600060208201905081810360008301526201f07b81846201e934565b905092915050565b600060208201905081810360008301526201f09f81846201e99e565b905092915050565b60006020820190506201f0be60008301846201ea08565b92915050565b60006060820190506201f0db60008301866201ea08565b6201f0ea60208301856201ed3c565b6201f0f960408301846201ed3c565b949350505050565b60006020820190506201f11860008301846201ea2a565b92915050565b60006060820190506201f13560008301866201ea2a565b6201f14460208301856201e84f565b6201f15360408301846201e84f565b949350505050565b600060e0820190506201f172600083018a6201ea2a565b6201f18160208301896201e84f565b6201f19060408301886201e81c565b81810360608301526201f1a481876201e99e565b90506201f1b560808301866201ed3c565b6201f1c460a08301856201ed3c565b81810360c08301526201f1d881846201eadb565b905098975050505050505050565b600060a0820190506201f1fd60008301886201ea2a565b6201f20c60208301876201ea2a565b6201f21b60408301866201e82d565b6201f22a60608301856201ed3c565b6201f23960808301846201ed3c565b9695505050505050565b600060a0820190506201f25a60008301886201ea2a565b6201f26960208301876201ea2a565b6201f27860408301866201ea2a565b6201f28760608301856201ed3c565b6201f29660808301846201e84f565b9695505050505050565b60006080820190506201f2b760008301876201ea2a565b6201f2c660208301866201ed4d565b6201f2d560408301856201ea2a565b6201f2e460608301846201ea2a565b95945050505050565b60006020820190506201f30460008301846201eb53565b92915050565b60006020820190506201f32160008301846201eb90565b92915050565b60006020820190506201f33e60008301846201eba1565b92915050565b60006020820190506201f35b60008301846201ebb2565b92915050565b60006020820190506201f37860008301846201ebe5565b92915050565b60006040820190506201f39560008301856201ebe5565b6201f3a460208301846201ebe5565b9392505050565b600060808201905081810360008301526201f3c781876201ec54565b905081810360208301526201f3dd81866201e99e565b90506201f3ee60408301856201ed3c565b6201f3fd60608301846201ed3c565b95945050505050565b600060608201905081810360008301526201f42281866201ec54565b90506201f43360208301856201ed3c565b6201f44260408301846201ed3c565b949350505050565b60006020820190506201f46160008301846201ed3c565b92915050565b60006040820190506201f47e60008301856201ed3c565b6201f48d60208301846201ed3c565b9392505050565b60006080820190506201f4ab60008301876201ed3c565b6201f4ba60208301866201ed3c565b6201f4c960408301856201ed3c565b6201f4d860608301846201e84f565b95945050505050565b6000604051905081810181811067ffffffffffffffff821117156201f50557600080fd5b8060405250919050565b600067ffffffffffffffff8211156201f52757600080fd5b602082029050602081019050919050565b600067ffffffffffffffff8211156201f55057600080fd5b602082029050602081019050919050565b600067ffffffffffffffff8211156201f57957600080fd5b602082029050602081019050919050565b600067ffffffffffffffff8211156201f5a257600080fd5b602082029050602081019050919050565b600067ffffffffffffffff8211156201f5cb57600080fd5b602082029050602081019050919050565b600067ffffffffffffffff8211156201f5f457600080fd5b602082029050602081019050919050565b600067ffffffffffffffff8211156201f61d57600080fd5b602082029050602081019050919050565b600067ffffffffffffffff8211156201f64657600080fd5b602082029050602081019050919050565b600067ffffffffffffffff8211156201f66f57600080fd5b601f19601f8301169050602081019050919050565b6000819050602082019050919050565b6000819050602082019050919050565b6000819050602082019050919050565b6000819050602082019050919050565b600081519050919050565b600081519050919050565b600081519050919050565b600081519050919050565b600081519050919050565b6000602082019050919050565b6000602082019050919050565b6000602082019050919050565b6000602082019050919050565b600082825260208201905092915050565b600082825260208201905092915050565b600082825260208201905092915050565b600082825260208201905092915050565b600082825260208201905092915050565b600081905092915050565b600081905092915050565b60006201f7a7826201f888565b9050919050565b60006201f7bb826201f888565b9050919050565b60008115159050919050565b6000819050919050565b60007fffffffff0000000000000000000000000000000000000000000000000000000082169050919050565b60006201f811826201f79a565b9050919050565b60006201f825826201f79a565b9050919050565b60006201f839826201f79a565b9050919050565b60006201f84d826201f79a565b9050919050565b60008190506201f864826201fa62565b919050565b60008190506201f879826201fa70565b919050565b6000819050919050565b600073ffffffffffffffffffffffffffffffffffffffff82169050919050565b6000819050919050565b600060ff82169050919050565b60006201f8cc826201f99b565b9050919050565b60006201f8e0826201f8e7565b9050919050565b60006201f8f4826201f888565b9050919050565b60006201f908826201f90f565b9050919050565b60006201f91c826201f888565b9050919050565b60006201f930826201f937565b9050919050565b60006201f944826201f888565b9050919050565b60006201f958826201f95f565b9050919050565b60006201f96c826201f888565b9050919050565b60006201f980826201f854565b9050919050565b60006201f994826201f869565b9050919050565b60006201f9a8826201f9af565b9050919050565b60006201f9bc826201f888565b9050919050565b82818337600083830152505050565b60005b838110156201f9f25780820151818401526020810190506201f9d5565b838111156201fa02576000848401525b50505050565b60006201fa15826201fa30565b9050919050565b6000819050919050565b6000819050919050565b60006201fa3d826201fa55565b9050919050565b6000601f19601f8301169050919050565b60008160601b9050919050565b600381106201fa6d57fe5b50565b600281106201fa7b57fe5b50565b6201fa89816201f79a565b81146201fa9557600080fd5b50565b6201faa3816201f7ae565b81146201faaf57600080fd5b50565b6201fabd816201f7c2565b81146201fac957600080fd5b50565b6201fad7816201f7ce565b81146201fae357600080fd5b50565b6201faf1816201f7d8565b81146201fafd57600080fd5b50565b6201fb0b816201f804565b81146201fb1757600080fd5b50565b6201fb25816201f818565b81146201fb3157600080fd5b50565b6201fb3f816201f82c565b81146201fb4b57600080fd5b50565b6201fb59816201f840565b81146201fb6557600080fd5b50565b600381106201fb7657600080fd5b50565b600381106201fb8757600080fd5b50565b600281106201fb9857600080fd5b50565b600481106201fba957600080fd5b50565b6201fbb7816201f87e565b81146201fbc357600080fd5b50565b6201fbd1816201f8a8565b81146201fbdd57600080fd5b5056fea26469706673582212200da29b2f8747e7198e325bf99f31a8286aa8ddc02e2eda9edcd60d7fa3edbb1764736f6c6343000701003360c06040523480156200001157600080fd5b506040516200252838038062002528833981810160405281019062000037919062000294565b3073ffffffffffffffffffffffffffffffffffffffff1660001b620000857fe656fc50f09b7684c34752b3ece2e281b6d08a9750095c0301d6e2383c5e37b660001b6200027460201b60201c565b620000b97f4f7e861a1146d74c96da3edec5d0590759a1296b05766cad342bb6959c4c151460001b6200027460201b60201c565b620000ed7f52b72727ae090b164bf2148fae50414fc0fb516dbc3119582343db3c7d50af7c60001b6200027460201b60201c565b8060808181525050506200012a7fff2843873958b0423c2870a5f7407d8838736c83a05df05ee75e9a90e1dd007160001b6200027760201b60201c565b6200015e7fef80299e9103703b3e8d99a44ee6022077e3117593f4e26770fa503e5f64a07060001b6200027760201b60201c565b620001927fdb996e6b8d2c077dc5dfa6acab236f31d64ae8d37bcfc64e5e87915b7a6d603b60001b6200027760201b60201c565b6001600081905550620001ce7f29ef537090a26afeb85ed1e9ceeeae5d4ebee75f44bc625a33a15e3309bcd37c60001b6200027a60201b60201c565b620002027f3555a67e074952bff2778b5931697896133c9c557f4d7b1a2cf9a2fe1cfb93f860001b6200027a60201b60201c565b620002367fb8df234901e545f9e359dcaf2257df8f0ece4be9c708cf5aeacce5dbc316af7260001b6200027a60201b60201c565b8073ffffffffffffffffffffffffffffffffffffffff1660a08173ffffffffffffffffffffffffffffffffffffffff1660601b815250505062000322565b50565b50565b50565b6000815190506200028e8162000308565b92915050565b600060208284031215620002a757600080fd5b6000620002b7848285016200027d565b91505092915050565b6000620002cd82620002e8565b9050919050565b6000620002e182620002c0565b9050919050565b600073ffffffffffffffffffffffffffffffffffffffff82169050919050565b6200031381620002d4565b81146200031f57600080fd5b50565b60805160a05160601c6121da6200034e6000398061100f5280611516525080610c4a52506121da6000f3fe608060405234801561001057600080fd5b50600436106100d45760003560e01c8063851c1bb311610081578063d877845c1161005b578063d877845c146101ed578063e42abf351461020b578063fbfa77cf1461023b576100d4565b8063851c1bb314610183578063aaabadc5146101b3578063d00cd3ad146101d1576100d4565b806355c67628116100b257806355c676281461012d5780636b6b9f691461014b5780636daefab614610167576100d4565b80630ddc08a5146100d957806338e9922e146100f55780634952d44f14610111575b600080fd5b6100f360048036038101906100ee9190611bbd565b610259565b005b61010f600480360381019061010a9190611c61565b61025c565b005b61012b60048036038101906101269190611bbd565b6104a0565b005b6101356104a3565b6040516101429190611f13565b60405180910390f35b61016560048036038101906101609190611c61565b610531565b005b610181600480360381019061017c9190611aca565b610774565b005b61019d60048036038101906101989190611be6565b610bc2565b6040516101aa9190611e8b565b60405180910390f35b6101bb610c98565b6040516101c89190611edd565b60405180910390f35b6101eb60048036038101906101e69190611bbd565b610d2b565b005b6101f5610d2e565b6040516102029190611f13565b60405180910390f35b61022560048036038101906102209190611b53565b610dbc565b6040516102329190611e69565b60405180910390f35b61024361100d565b6040516102509190611ef8565b60405180910390f35b50565b6102887fdfcff9db5c0001a4a8ff88d7564521e5ae182f75503405aee3622d19b0e3655260001b610259565b6102b47f5a55fe4186df4e8e414a6f2504b3774e5852558ddbf409e09d2dd9273fbda36060001b610259565b6102e07f9a5d745b65ebafdc2adb226e0021e0ff4d4dfc023c8a49423a469e21ec523a7c60001b610259565b6102e8611031565b6103147fdf78023cab09ae4709c13c466fe04a359efc7b4a528806c19241a2b24347eed660001b610259565b6103407fd16d21e44828e8ec60b36982722cf8bb14587205d474073b18c019d938e56e3060001b6104a0565b61036c7f9555f8295eef5068bd4049dae1b1c52b106bf5eba842d5c4c409c4b9ae02019660001b6104a0565b6103987f655adaeeada8d0f171ee144549ae005c6e2491f8abbf251b2e376a08158dafcc60001b6104a0565b6103af6706f05b59d3b20000821115610258611156565b6103db7f5530be66e10163b2afe68a2d949f98ab06b64d420a1e2a3d6e5c6e216a0cf47d60001b6104a0565b6104077fa57539ba194869d57a3d123ca745122874b6fdfa9884739e6fd09efdf89f104260001b6104a0565b8060018190555061043a7fb917e4c17c8379bfeab1ba4496e9554704a2fcbca3805e0ebe3f9635b94fdb8d60001b6104a0565b6104667f6b7d8cbdc0e01abde5118f4b96e505b74f0c6b116742221755c545bf5276a61460001b6104a0565b7fa9ba3ffe0b6c366b81232caab38605a0699ad5398d6cce76f91ee809e322dafc816040516104959190611f13565b60405180910390a150565b50565b60006104d17f5afd53a5dcb62dc16f369bdc9429e46d29f1346acdb490b1e78792d493143b8f60001b6104a0565b6104fd7f94b8b93e1994bd6160f47fe48db4dfadd1db1ed1e7c5eadaab0dc747bbd56a7a60001b6104a0565b6105297f9b25886399176c27e44453b526ce75c731e77b415fcfa9f756c4825c69f58a6460001b6104a0565b600154905090565b61055d7fdfcff9db5c0001a4a8ff88d7564521e5ae182f75503405aee3622d19b0e3655260001b610259565b6105897f5a55fe4186df4e8e414a6f2504b3774e5852558ddbf409e09d2dd9273fbda36060001b610259565b6105b57f9a5d745b65ebafdc2adb226e0021e0ff4d4dfc023c8a49423a469e21ec523a7c60001b610259565b6105bd611031565b6105e97fdf78023cab09ae4709c13c466fe04a359efc7b4a528806c19241a2b24347eed660001b610259565b6106157f817d8b6b6cc81b72df7e8694e632353494f3dd1eeb5ef9759b1fee0617e90bc360001b6104a0565b6106417f7c9af4fc3e7fa7961bd0795797f37807fd5cc006dff7c29f81dd69f50fc6b8c260001b6104a0565b61066d7f1393c0ac0383b564a2b27231a3d85cff3e3670ec888a1cf9986fdc228c22761360001b6104a0565b610683662386f26fc10000821115610259611156565b6106af7fd3ece052e2a3497556198a3f35984c915256f1fe208f8c926a7570e216b784c160001b6104a0565b6106db7fdd593426cdaaffeb396064347dfb07e1ac1ece7566e40bd550d4864962666c1160001b6104a0565b8060028190555061070e7f99cde8f5a78f9750dfe0f3c0c4a793524e101b14ab39e918ef3d8d8aa7a5993660001b6104a0565b61073a7f648b1f43f39cc3d0354179305709d4712358d34eabfe84aae0651756353f39f260001b6104a0565b7f5a0b7386237e7f07fa741efc64e59c9387d2cccafec760efed4d53387f20e19a816040516107699190611f13565b60405180910390a150565b6107a07f3b26cd2585fecfc21b1fe892f32e29375b0d7350ba966083e2f96f51ef43a92960001b610d2b565b6107cc7f2197a5030ffc348553ffc47ccb57f9700b3053735d0a146d16497ad6fa509d5b60001b610d2b565b6107f87f382505951e9c5561f3f4877cc9803e5c3a86e88e32b803bccc41c22f60b698b260001b610d2b565b610800611169565b61082c7ff8ce392461b76b298757224f3caaffb179af93c72c0dabff1d4ebf8cda37741260001b610d2b565b6108587fdfcff9db5c0001a4a8ff88d7564521e5ae182f75503405aee3622d19b0e3655260001b610259565b6108847f5a55fe4186df4e8e414a6f2504b3774e5852558ddbf409e09d2dd9273fbda36060001b610259565b6108b07f9a5d745b65ebafdc2adb226e0021e0ff4d4dfc023c8a49423a469e21ec523a7c60001b610259565b6108b8611031565b6108e47fdf78023cab09ae4709c13c466fe04a359efc7b4a528806c19241a2b24347eed660001b610259565b6109107f7838f5cd9c4e22163ddd7444f97186164d86abb1bc3e2bbad77c6dbe95ca0a1060001b6104a0565b61093c7f368d6cce5b3a166d368cdbf4c7f5a9ae3f4fe13ec4386332991def18934103d260001b6104a0565b6109687f45ec3c8a54e27fbc87f58fe33d3e428fa57de7846f948c2aca1b11750ab38fd260001b6104a0565b6109788585905084849050611261565b6109a47fbb10d051cd34b162ab9d3db40ef13d71a27b0438f91191fbfa3570fcc6283dd160001b6104a0565b6109d07fe9ff503eccf9af749bf38585c658620d445f0dff31249e2cd5ffadb57b4f513760001b6104a0565b60005b85859050811015610b5a57610a0a7f855473760f87b46c95ef7dd65baf5cf4cb4a0c9b7c08dd2553abfce73c21897260001b6104a0565b610a367f5045455031cb9c0fcbb30c8b0e060276c9a5232b1b6c429165356179685e8ac860001b6104a0565b6000868683818110610a4457fe5b9050602002016020810190610a599190611c38565b9050610a877fe8eaebca39f056fd39429ed900e978c75989655069a317e91fc7e9d7fbe9537960001b6104a0565b610ab37fce662638fcf6d5960465bdcaa6ab413f7a7e6c38189b6083ead288294d336c9e60001b6104a0565b6000858584818110610ac157fe5b905060200201359050610af67f8bcc18512b7c0ff372a614ce37c463ae20a5caa90c2fda5c1658568f1de9b7e460001b6104a0565b610b227f4d976c210b8de436131582e35df33e94b8f473772dce5e381c98a87b85f26d9c60001b6104a0565b610b4d84828473ffffffffffffffffffffffffffffffffffffffff166112f69092919063ffffffff16565b50508060010190506109d3565b50610b877f0caf7107376224202848440e797a23bd53602dc240e67421095a2aa32637216160001b610d2b565b610bb37f034cb29cce6b6361d9c228c8807e63d7d7dd24beb68aaf203424cd5a698f286360001b610d2b565b610bbb611400565b5050505050565b6000610bf07f5b6d744b9984ca0f940181ee5e7f3f9141a56799465d611578a724e75da3f27360001b610259565b610c1c7fccd34a442ea9189944d6242d7d944d51762e07badd0e467c1d9ef323954e783260001b610259565b610c487f9b5e1c3ba3409b07d3693e410c8f9054dc20b55c829e32dae29721db02bf3ba160001b610259565b7f000000000000000000000000000000000000000000000000000000000000000082604051602001610c7b929190611de2565b604051602081830303815290604052805190602001209050919050565b6000610cc67f8122231f791aa700f99a9705e3c43793e857422ebf85b0d307c3cb1269d3b52060001b6104a0565b610cf27fa4834be2478a9b9a8868bf0d597bc8c339d67639801bb7637ec6f00cfd13a2e860001b6104a0565b610d1e7f9435d2283877b5528ec6281df827f9d2f0ccc32ddc31e28e07986e2d7cd5a7dd60001b6104a0565b610d2661148e565b905090565b50565b6000610d5c7fd6b35562b8a2931a69bd493c51a4c332a521554a4c7743dffc142e2b0f710dba60001b6104a0565b610d887f51d121cb362dbd40a41f0ceb054b60733b75c3edd0dc98e192c4216f7fcf45a260001b6104a0565b610db47f3fa0c388f79b0bb464fdc3ee7e06746bcd1403a6190c5be1fbd72336d3306bda60001b6104a0565b600254905090565b6060610dea7f737dd298b132447fccfd68c280c0ad75be157072c38b8944f8be27cc47fe5a1460001b6104a0565b610e167f604e38bbc748323ef0a91f7dc3b4d23eb56dbf1d94b15a051de2bfd12f73094360001b6104a0565b610e427fde8d15fcdada422bd30b6d6d6c9d06976ffb6cb26050c3be419c73ea9a22f84960001b6104a0565b815167ffffffffffffffff81118015610e5a57600080fd5b50604051908082528060200260200182016040528015610e895781602001602082028036833780820191505090505b509050610eb87f0c69ebe36e711849d86dc2dfc8c9e55c27318efa36b77a7f57527ae10ad2fdd660001b6104a0565b610ee47fc0d49830fb8f634b68573bea30757040f4a45ea06e2ee3a5ebd6734fdb60d09360001b6104a0565b60005b825181101561100757610f1c7fab17110dae2247d65b6f37f980b1a9b4ff816f14681450f8807a059feeb860c860001b6104a0565b610f487f213a141627e36eb3d9c2463f94b37fbae85fe12f6393cd2de19b115b33c64fbd60001b6104a0565b828181518110610f5457fe5b602002602001015173ffffffffffffffffffffffffffffffffffffffff166370a08231306040518263ffffffff1660e01b8152600401610f949190611e25565b60206040518083038186803b158015610fac57600080fd5b505afa158015610fc0573d6000803e3d6000fd5b505050506040513d601f19601f82011682018060405250810190610fe49190611c8a565b828281518110610ff057fe5b602002602001018181525050806001019050610ee7565b50919050565b7f000000000000000000000000000000000000000000000000000000000000000081565b61105d7f037c1c31a242abc9fe85f7897d7e3db2fbb4a96d88800fd61753b3feeab291a760001b610259565b6110897f9b69ded238e1f105af3c724db26f035e19242e09a189005c88d1afb44e2dcdf860001b610259565b6110b57fb34966d8df6692c5bb03465c646169e626a9b8831246d3a50e8307b39c31ec6760001b610259565b60006110e46000357fffffffff0000000000000000000000000000000000000000000000000000000016610bc2565b90506111127f3851df8b489ea432cbe9ff42b63c2ca5f69a63da3d74f1fe1778c5c8160ce22b60001b610259565b61113e7fd4c39b3623449b73860af568247fe45de94492dc66e5806084c17143e9fc8a8f60001b610259565b61115361114b82336115b7565b610191611156565b50565b8161116557611164816116d9565b5b5050565b6111957f408dac390e4f0ae6d351596842e389faecd137e98747a21c9bd2535e34efe1ef60001b610d2b565b6111c17f91fef535066a9a302b7aba661bbc08510efd3f86094d4d27eaab04e8c0ea329060001b610d2b565b6111ed7f7e4ef47161338c49f74fe8365727d3827a018aad2ffdc369234f459288d9b40560001b610d2b565b6111ff60026000541415610190611156565b61122b7fc485c3854a3735fd70dfbf21afb411b100bc7c079db4aa6fd8f540b8b25f934060001b610d2b565b6112577fc1dcb2358e8d960fc7fb24122ff840705dbc6c335c720c4de509a43cd35abd2860001b610d2b565b6002600081905550565b61128d7f6f02687e057522eb19b597e3b091ff65201fe492dbd6f67980e016d6aa08d53260001b611749565b6112b97fe51ab352fa79dd949e57050cd47d3f0410afdfe7c28a6ef735cccfeeb18f582360001b611749565b6112e57ffce750c89171756118e85bed28eb1432c569ae13e7db5e43107d00a4ed5889a360001b611749565b6112f28183146067611156565b5050565b6113227f0c30be65a9683c16aceecbfcfba8c2d92dcc7c80b0f36b76b81f7f2ce7bdd34d60001b61174c565b61134e7f77dcfa1de2e819f5686b2e9ea49a0d1fa6a1a52f0e5c05958f40c020b5e28fe560001b61174c565b61137a7f424b37de078654578e920afec2d135ac126ac9e4d8c5d991f6574ad131991e2660001b61174c565b6113fb8363a9059cbb60e01b8484604051602401611399929190611e40565b604051602081830303815290604052907bffffffffffffffffffffffffffffffffffffffffffffffffffffffff19166020820180517bffffffffffffffffffffffffffffffffffffffffffffffffffffffff838183161783525050505061174f565b505050565b61142c7f149cabfe70db67f6ce2fd3e64b4b5babbd98815b7461b7e97cec9760ebcee15060001b610d2b565b6114587f7ee27aa21eee45360a064722bb38337cef8cc040b9fbfae86c19b76a3f932b9560001b610d2b565b6114847fed942fdc363d1e16eaef2a7bfff65e652a7e0146f3288c44d086aa97babad4e860001b610d2b565b6001600081905550565b60006114bc7ffc912a4b2d252c5a0ff005e064737809740a2edfcaa2a9394992e689dfea2de660001b6104a0565b6114e87fdba89070cbeeb2d91a6e19daf11b306fd29cbc9a1d8e2a955da0dcb14f91ed8e60001b6104a0565b6115147fd83acf68a283afc22d1ab85301b6dbad505e6f4b9d4d89e0c6af04489291217d60001b6104a0565b7f000000000000000000000000000000000000000000000000000000000000000073ffffffffffffffffffffffffffffffffffffffff1663aaabadc56040518163ffffffff1660e01b815260040160206040518083038186803b15801561157a57600080fd5b505afa15801561158e573d6000803e3d6000fd5b505050506040513d601f19601f820116820180604052508101906115b29190611c0f565b905090565b60006115e57feb9c614bd0a74b638ef5c1de6de9daf0d1bf660df6a7b663f1797fd9c0edda1160001b6104a0565b6116117f125cfe3467448d3a3c3d38407d554e2d4fc13e5b451a72fc960c4759cbe4509e60001b6104a0565b61163d7f745a0903966babc91076a254c7eeb2b7ea8f4d1a64d1c1dee6d6a355ba99c1d560001b6104a0565b61164561148e565b73ffffffffffffffffffffffffffffffffffffffff16639be2a8848484306040518463ffffffff1660e01b815260040161168193929190611ea6565b60206040518083038186803b15801561169957600080fd5b505afa1580156116ad573d6000803e3d6000fd5b505050506040513d601f19601f820116820180604052508101906116d19190611b94565b905092915050565b6030600a820601600a820491506030600a830601600a830492506030600a8406018060101b8260081b8401016642414c230000000160c81b7f08c379a000000000000000000000000000000000000000000000000000000000600052602060045260076024528060445260646000fd5b50565b50565b61177b7fc73e8649ad0ef875b1e018771227cf894f706428d24fb306d332cb64b663bde260001b61174c565b6117a77f5995e4ac6861bea4ec3dd78d65f64f09caaffdeba4cd04c1ef9414b2e767a94e60001b61174c565b6117d37ff0e8e33d2a56f579900eef6285e73397023cebacf08b2a9d5a8286d82842475d60001b61174c565b600060608373ffffffffffffffffffffffffffffffffffffffff16836040516117fc9190611e0e565b6000604051808303816000865af19150503d8060008114611839576040519150601f19603f3d011682016040523d82523d6000602084013e61183e565b606091505b509150915061186f7f6ad5e3f8c1e3e5c81d3da55aafebdde96316b7f9c2c2230c7facd9f79eef3ce860001b61174c565b6000821415611882573d6000803e3d6000fd5b6118ae7fb958f400fa826471aff355a8cca63ec547811ec79f0dde05c0a50c93dbf8ef4660001b61174c565b6118da7f51db9918a38ecf7bbe13ee24e10adb6d30a55e9b1fa4b7b2b4e286335a3634ed60001b61174c565b6119056000825114806118fd5750818060200190518101906118fc9190611b94565b5b6101a2611156565b50505050565b60008135905061191a81612103565b92915050565b60008083601f84011261193257600080fd5b8235905067ffffffffffffffff81111561194b57600080fd5b60208301915083602082028301111561196357600080fd5b9250929050565b600082601f83011261197b57600080fd5b813561198e61198982611f5b565b611f2e565b915081818352602084019350602081019050838560208402820111156119b357600080fd5b60005b838110156119e357816119c98882611a8b565b8452602084019350602083019250506001810190506119b6565b5050505092915050565b60008083601f8401126119ff57600080fd5b8235905067ffffffffffffffff811115611a1857600080fd5b602083019150836020820283011115611a3057600080fd5b9250929050565b600081519050611a468161211a565b92915050565b600081359050611a5b81612131565b92915050565b600081359050611a7081612148565b92915050565b600081519050611a858161215f565b92915050565b600081359050611a9a81612176565b92915050565b600081359050611aaf8161218d565b92915050565b600081519050611ac48161218d565b92915050565b600080600080600060608688031215611ae257600080fd5b600086013567ffffffffffffffff811115611afc57600080fd5b611b0888828901611920565b9550955050602086013567ffffffffffffffff811115611b2757600080fd5b611b33888289016119ed565b93509350506040611b468882890161190b565b9150509295509295909350565b600060208284031215611b6557600080fd5b600082013567ffffffffffffffff811115611b7f57600080fd5b611b8b8482850161196a565b91505092915050565b600060208284031215611ba657600080fd5b6000611bb484828501611a37565b91505092915050565b600060208284031215611bcf57600080fd5b6000611bdd84828501611a4c565b91505092915050565b600060208284031215611bf857600080fd5b6000611c0684828501611a61565b91505092915050565b600060208284031215611c2157600080fd5b6000611c2f84828501611a76565b91505092915050565b600060208284031215611c4a57600080fd5b6000611c5884828501611a8b565b91505092915050565b600060208284031215611c7357600080fd5b6000611c8184828501611aa0565b91505092915050565b600060208284031215611c9c57600080fd5b6000611caa84828501611ab5565b91505092915050565b6000611cbf8383611dc4565b60208301905092915050565b611cd481611fd2565b82525050565b6000611ce582611f93565b611cef8185611fb6565b9350611cfa83611f83565b8060005b83811015611d2b578151611d128882611cb3565b9750611d1d83611fa9565b925050600181019050611cfe565b5085935050505092915050565b611d4181611ff0565b82525050565b611d58611d5382611ff0565b6120ef565b82525050565b611d6f611d6a82611ffa565b6120f9565b82525050565b6000611d8082611f9e565b611d8a8185611fc7565b9350611d9a8185602086016120bc565b80840191505092915050565b611daf81612074565b82525050565b611dbe81612098565b82525050565b611dcd8161206a565b82525050565b611ddc8161206a565b82525050565b6000611dee8285611d47565b602082019150611dfe8284611d5e565b6004820191508190509392505050565b6000611e1a8284611d75565b915081905092915050565b6000602082019050611e3a6000830184611ccb565b92915050565b6000604082019050611e556000830185611ccb565b611e626020830184611dd3565b9392505050565b60006020820190508181036000830152611e838184611cda565b905092915050565b6000602082019050611ea06000830184611d38565b92915050565b6000606082019050611ebb6000830186611d38565b611ec86020830185611ccb565b611ed56040830184611ccb565b949350505050565b6000602082019050611ef26000830184611da6565b92915050565b6000602082019050611f0d6000830184611db5565b92915050565b6000602082019050611f286000830184611dd3565b92915050565b6000604051905081810181811067ffffffffffffffff82111715611f5157600080fd5b8060405250919050565b600067ffffffffffffffff821115611f7257600080fd5b602082029050602081019050919050565b6000819050602082019050919050565b600081519050919050565b600081519050919050565b6000602082019050919050565b600082825260208201905092915050565b600081905092915050565b6000611fdd8261204a565b9050919050565b60008115159050919050565b6000819050919050565b60007fffffffff0000000000000000000000000000000000000000000000000000000082169050919050565b600061203182611fd2565b9050919050565b600061204382611fd2565b9050919050565b600073ffffffffffffffffffffffffffffffffffffffff82169050919050565b6000819050919050565b600061207f82612086565b9050919050565b60006120918261204a565b9050919050565b60006120a3826120aa565b9050919050565b60006120b58261204a565b9050919050565b60005b838110156120da5780820151818401526020810190506120bf565b838111156120e9576000848401525b50505050565b6000819050919050565b6000819050919050565b61210c81611fd2565b811461211757600080fd5b50565b61212381611fe4565b811461212e57600080fd5b50565b61213a81611ff0565b811461214557600080fd5b50565b61215181611ffa565b811461215c57600080fd5b50565b61216881612026565b811461217357600080fd5b50565b61217f81612038565b811461218a57600080fd5b50565b6121968161206a565b81146121a157600080fd5b5056fea2646970667358221220e4436ddd1051afaa0953ef33f4b2176bb49df99392253c33367bda61f6698f1864736f6c63430007010033",
  "linkReferences": {},
  "deployedLinkReferences": {}
}