{
  "_format": "hh-sol-artifact-1",
  "contractName": "MockWeightedMath",
  "sourceName": "contracts/balancer-core-v2/test/MockWeightedMath.sol",
  "abi": [
    {
      "inputs": [
        {
          "internalType": "uint256[]",
          "name": "balances",
          "type": "uint256[]"
        },
        {
          "internalType": "uint256[]",
          "name": "normalizedWeights",
          "type": "uint256[]"
        },
        {
          "internalType": "uint256[]",
          "name": "amountsOut",
          "type": "uint256[]"
        },
        {
          "internalType": "uint256",
          "name": "bptTotalSupply",
          "type": "uint256"
        },
        {
          "internalType": "uint256",
          "name": "swapFee",
          "type": "uint256"
        }
      ],
      "name": "bptInForExactTokensOut",
      "outputs": [
        {
          "internalType": "uint256",
          "name": "",
          "type": "uint256"
        }
      ],
      "stateMutability": "pure",
      "type": "function"
    },
    {
      "inputs": [
        {
          "internalType": "bytes32",
          "name": "c__0x18fd2e01",
          "type": "bytes32"
        }
      ],
      "name": "c_0x18fd2e01",
      "outputs": [],
      "stateMutability": "pure",
      "type": "function"
    },
    {
      "inputs": [
        {
          "internalType": "bytes32",
          "name": "c__0x6b25a81c",
          "type": "bytes32"
        }
      ],
      "name": "c_0x6b25a81c",
      "outputs": [],
      "stateMutability": "pure",
      "type": "function"
    },
    {
      "inputs": [
        {
          "internalType": "uint256",
          "name": "balance",
          "type": "uint256"
        },
        {
          "internalType": "uint256",
          "name": "normalizedWeight",
          "type": "uint256"
        },
        {
          "internalType": "uint256",
          "name": "previousInvariant",
          "type": "uint256"
        },
        {
          "internalType": "uint256",
          "name": "currentInvariant",
          "type": "uint256"
        },
        {
          "internalType": "uint256",
          "name": "protocolSwapFeePercentage",
          "type": "uint256"
        }
      ],
      "name": "calculateDueTokenProtocolSwapFeeAmount",
      "outputs": [
        {
          "internalType": "uint256",
          "name": "",
          "type": "uint256"
        }
      ],
      "stateMutability": "pure",
      "type": "function"
    },
    {
      "inputs": [
        {
          "internalType": "uint256",
          "name": "tokenBalance",
          "type": "uint256"
        },
        {
          "internalType": "uint256",
          "name": "tokenNormalizedWeight",
          "type": "uint256"
        },
        {
          "internalType": "uint256",
          "name": "bptAmountIn",
          "type": "uint256"
        },
        {
          "internalType": "uint256",
          "name": "bptTotalSupply",
          "type": "uint256"
        },
        {
          "internalType": "uint256",
          "name": "swapFee",
          "type": "uint256"
        }
      ],
      "name": "exactBPTInForTokenOut",
      "outputs": [
        {
          "internalType": "uint256",
          "name": "",
          "type": "uint256"
        }
      ],
      "stateMutability": "pure",
      "type": "function"
    },
    {
      "inputs": [
        {
          "internalType": "uint256[]",
          "name": "currentBalances",
          "type": "uint256[]"
        },
        {
          "internalType": "uint256",
          "name": "bptAmountIn",
          "type": "uint256"
        },
        {
          "internalType": "uint256",
          "name": "totalBPT",
          "type": "uint256"
        }
      ],
      "name": "exactBPTInForTokensOut",
      "outputs": [
        {
          "internalType": "uint256[]",
          "name": "",
          "type": "uint256[]"
        }
      ],
      "stateMutability": "pure",
      "type": "function"
    },
    {
      "inputs": [
        {
          "internalType": "uint256[]",
          "name": "balances",
          "type": "uint256[]"
        },
        {
          "internalType": "uint256[]",
          "name": "normalizedWeights",
          "type": "uint256[]"
        },
        {
          "internalType": "uint256[]",
          "name": "amountsIn",
          "type": "uint256[]"
        },
        {
          "internalType": "uint256",
          "name": "bptTotalSupply",
          "type": "uint256"
        },
        {
          "internalType": "uint256",
          "name": "swapFee",
          "type": "uint256"
        }
      ],
      "name": "exactTokensInForBPTOut",
      "outputs": [
        {
          "internalType": "uint256",
          "name": "",
          "type": "uint256"
        }
      ],
      "stateMutability": "pure",
      "type": "function"
    },
    {
      "inputs": [
        {
          "internalType": "uint256",
          "name": "tokenBalanceIn",
          "type": "uint256"
        },
        {
          "internalType": "uint256",
          "name": "tokenWeightIn",
          "type": "uint256"
        },
        {
          "internalType": "uint256",
          "name": "tokenBalanceOut",
          "type": "uint256"
        },
        {
          "internalType": "uint256",
          "name": "tokenWeightOut",
          "type": "uint256"
        },
        {
          "internalType": "uint256",
          "name": "tokenAmountOut",
          "type": "uint256"
        }
      ],
      "name": "inGivenOut",
      "outputs": [
        {
          "internalType": "uint256",
          "name": "",
          "type": "uint256"
        }
      ],
      "stateMutability": "pure",
      "type": "function"
    },
    {
      "inputs": [
        {
          "internalType": "uint256[]",
          "name": "normalizedWeights",
          "type": "uint256[]"
        },
        {
          "internalType": "uint256[]",
          "name": "balances",
          "type": "uint256[]"
        }
      ],
      "name": "invariant",
      "outputs": [
        {
          "internalType": "uint256",
          "name": "",
          "type": "uint256"
        }
      ],
      "stateMutability": "pure",
      "type": "function"
    },
    {
      "inputs": [
        {
          "internalType": "uint256",
          "name": "tokenBalanceIn",
          "type": "uint256"
        },
        {
          "internalType": "uint256",
          "name": "tokenWeightIn",
          "type": "uint256"
        },
        {
          "internalType": "uint256",
          "name": "tokenBalanceOut",
          "type": "uint256"
        },
        {
          "internalType": "uint256",
          "name": "tokenWeightOut",
          "type": "uint256"
        },
        {
          "internalType": "uint256",
          "name": "tokenAmountIn",
          "type": "uint256"
        }
      ],
      "name": "outGivenIn",
      "outputs": [
        {
          "internalType": "uint256",
          "name": "",
          "type": "uint256"
        }
      ],
      "stateMutability": "pure",
      "type": "function"
    },
    {
      "inputs": [
        {
          "internalType": "uint256",
          "name": "tokenBalance",
          "type": "uint256"
        },
        {
          "internalType": "uint256",
          "name": "tokenNormalizedWeight",
          "type": "uint256"
        },
        {
          "internalType": "uint256",
          "name": "bptAmountOut",
          "type": "uint256"
        },
        {
          "internalType": "uint256",
          "name": "bptTotalSupply",
          "type": "uint256"
        },
        {
          "internalType": "uint256",
          "name": "swapFee",
          "type": "uint256"
        }
      ],
      "name": "tokenInForExactBPTOut",
      "outputs": [
        {
          "internalType": "uint256",
          "name": "",
          "type": "uint256"
        }
      ],
      "stateMutability": "pure",
      "type": "function"
    }
  ],
  "bytecode": "0x60806040523480156200001157600080fd5b506198b680620000226000396000f3fe608060405234801561001057600080fd5b50600436106100c95760003560e01c80635678537111610081578063c2546cc31161005b578063c2546cc3146108cb578063f3225e1a14610935578063fab3b9d714610963576100c9565b806356785371146104f95780635b55b24a1461065957806398f59bca146106c3576100c9565b80631ec80b0a116100b25780631ec80b0a146102595780632e752149146102875780634b114ddf1461048f576100c9565b80631b02e9a8146100ce5780631c855fa614610138575b600080fd5b610122600480360360a08110156100e457600080fd5b8101908080359060200190929190803590602001909291908035906020019092919080359060200190929190803590602001909291905050506109cd565b6040518082815260200191505060405180910390f35b6102026004803603606081101561014e57600080fd5b810190808035906020019064010000000081111561016b57600080fd5b82018360208201111561017d57600080fd5b8035906020019184602083028401116401000000008311171561019f57600080fd5b919080806020026020016040519081016040528093929190818152602001838360200280828437600081840152601f19601f8201169050808301925050505050505091929192908035906020019092919080359060200190929190505050610a6b565b6040518080602001828103825283818151815260200191508051906020019060200280838360005b8381101561024557808201518184015260208101905061022a565b505050509050019250505060405180910390f35b6102856004803603602081101561026f57600080fd5b8101908080359060200190929190505050610b05565b005b610479600480360360a081101561029d57600080fd5b81019080803590602001906401000000008111156102ba57600080fd5b8201836020820111156102cc57600080fd5b803590602001918460208302840111640100000000831117156102ee57600080fd5b919080806020026020016040519081016040528093929190818152602001838360200280828437600081840152601f19601f8201169050808301925050505050505091929192908035906020019064010000000081111561034e57600080fd5b82018360208201111561036057600080fd5b8035906020019184602083028401116401000000008311171561038257600080fd5b919080806020026020016040519081016040528093929190818152602001838360200280828437600081840152601f19601f820116905080830192505050505050509192919290803590602001906401000000008111156103e257600080fd5b8201836020820111156103f457600080fd5b8035906020019184602083028401116401000000008311171561041657600080fd5b919080806020026020016040519081016040528093929190818152602001838360200280828437600081840152601f19601f8201169050808301925050505050505091929192908035906020019092919080359060200190929190505050610b08565b6040518082815260200191505060405180910390f35b6104e3600480360360a08110156104a557600080fd5b810190808035906020019092919080359060200190929190803590602001909291908035906020019092919080359060200190929190505050610ba6565b6040518082815260200191505060405180910390f35b6106436004803603604081101561050f57600080fd5b810190808035906020019064010000000081111561052c57600080fd5b82018360208201111561053e57600080fd5b8035906020019184602083028401116401000000008311171561056057600080fd5b919080806020026020016040519081016040528093929190818152602001838360200280828437600081840152601f19601f820116905080830192505050505050509192919290803590602001906401000000008111156105c057600080fd5b8201836020820111156105d257600080fd5b803590602001918460208302840111640100000000831117156105f457600080fd5b919080806020026020016040519081016040528093929190818152602001838360200280828437600081840152601f19601f820116905080830192505050505050509192919290505050610c44565b6040518082815260200191505060405180910390f35b6106ad600480360360a081101561066f57600080fd5b810190808035906020019092919080359060200190929190803590602001909291908035906020019092919080359060200190929190505050610cdc565b6040518082815260200191505060405180910390f35b6108b5600480360360a08110156106d957600080fd5b81019080803590602001906401000000008111156106f657600080fd5b82018360208201111561070857600080fd5b8035906020019184602083028401116401000000008311171561072a57600080fd5b919080806020026020016040519081016040528093929190818152602001838360200280828437600081840152601f19601f8201169050808301925050505050505091929192908035906020019064010000000081111561078a57600080fd5b82018360208201111561079c57600080fd5b803590602001918460208302840111640100000000831117156107be57600080fd5b919080806020026020016040519081016040528093929190818152602001838360200280828437600081840152601f19601f8201169050808301925050505050505091929192908035906020019064010000000081111561081e57600080fd5b82018360208201111561083057600080fd5b8035906020019184602083028401116401000000008311171561085257600080fd5b919080806020026020016040519081016040528093929190818152602001838360200280828437600081840152601f19601f8201169050808301925050505050505091929192908035906020019092919080359060200190929190505050610d7a565b6040518082815260200191505060405180910390f35b61091f600480360360a08110156108e157600080fd5b810190808035906020019092919080359060200190929190803590602001909291908035906020019092919080359060200190929190505050610e18565b6040518082815260200191505060405180910390f35b6109616004803603602081101561094b57600080fd5b8101908080359060200190929190505050610eb6565b005b6109b7600480360360a081101561097957600080fd5b810190808035906020019092919080359060200190929190803590602001909291908035906020019092919080359060200190929190505050610eb9565b6040518082815260200191505060405180910390f35b60006109fb7f70b8db6a7cd0629c9e2c74f1c8deda3c96cd6da97e595653d9431a813ac3cec960001b610eb6565b610a277fd17a78602d487fa90dc240c5dc179d603885232fc46e11181ad3d2ba1affc23360001b610eb6565b610a537f5c04b8c6b8f73dda3ac30006586c56adbe00161d38f9b1c6566c9fe036e7f96e60001b610eb6565b610a608686868686610f56565b905095945050505050565b6060610a997f2c1e9c0008f62ff0980483c6df98d2b61db3a804b38fc38c974467674af3cd7960001b610eb6565b610ac57f442b3cc96f27d1b240d6b22a951fee80835707985c06f64b3ffda30e045aa0fb60001b610eb6565b610af17f643ead2d7d1aa4d09f5ac36248c797ddb9c685acccafc233d952be640427c7e760001b610eb6565b610afc848484611255565b90509392505050565b50565b6000610b367f97b55c64742b0efc01bbe9fc48c8642e6ea793959b5f11f3f210fe44e27bc7ad60001b610eb6565b610b627fca2f16014cd97e7d7f742921b58f90694f13871d12d60480ed3667f93bae59d760001b610eb6565b610b8e7f8758cec01aa933972cbb81e979e11cec6f30e2a698b0af1f3d47043e2390c02260001b610eb6565b610b9b8686868686611502565b905095945050505050565b6000610bd47fe70f01edf140db6eb6d3fbcdd6f337ee91f28273fcb78643cf089907b0565ceb60001b610eb6565b610c007f6567d8acb314c20756122f908d6562678ce3366de3eec160071e01bc32a61db760001b610eb6565b610c2c7f80675be137273fdd43c266858104c0b1de2b7fe1abb096ffab1fe030674af72760001b610eb6565b610c398686868686611f2e565b905095945050505050565b6000610c727f83be471899e8c4ba943d0ef5a7c81112312c3e11f59c907c562c56d72389e00a60001b610eb6565b610c9e7feccd7a8e47d1b1520c0e5adf31df23dd4904f7342f2cc78030b799e85619435760001b610eb6565b610cca7f2f0109d276d237475d3c59c97d1eb225a053b97e2f30d5758d69a4c9b00e957460001b610eb6565b610cd4838361221b565b905092915050565b6000610d0a7f304052d1cd23d8c30d8211f12418def64a4970a139a8525df7a3aaf9f949688760001b610eb6565b610d367fd29ea0198e0a3f36d53767fb993d78ba8394746c5af5695f511e5191aecd254760001b610eb6565b610d627fe675da0a1a3feb5b96ef46acb67e73c8fcf6ef1c4e63f5c3e2de22cf0ff1e14360001b610eb6565b610d6f8686868686612430565b905095945050505050565b6000610da87f418b3c100ebc7772235ea8aaa6cb500f10b72a3d6f297a5929d552f14101626460001b610eb6565b610dd47fc444106077ea52658a5589f23f167fb153e8117bdfaf6c4934704a265eef57ff60001b610eb6565b610e007ff5b059897acc8d8266e5851018f54fe7dee5574376b738bce492cce0e6f2a91e60001b610eb6565b610e0d8686868686612827565b905095945050505050565b6000610e467fb780ab09d01e26a86915f9f097ca9d58d09e988f86e162b3d83bbe9e7fcec73f60001b610eb6565b610e727f029fe03a253f82585388deeaea36a8dd2f8e92c317934b866dc8a68b55a118dd60001b610eb6565b610e9e7f0ca1cfa4268534a52cb28676dda311e17328d61aac1b28dbcf3e2b270df1fa8760001b610eb6565b610eab86868686866130f9565b905095945050505050565b50565b6000610ee77f6eaaf4bc3a29b4a2e2f6a5b1d6a5dc63389aace9d83c9934e107729d9b320fd760001b610eb6565b610f137f98d8ef93f3f1e9f14a98604d14e2a909b122975014bf146b3638ca77fee10a5a60001b610eb6565b610f3e7e35270ce0daab1c8f3705678edfa35b015f11a192d1c170d4a7ed6c40b14b1b60001b610eb6565b610f4b8686868686613501565b905095945050505050565b6000610f847f81dbd76626b957ae19f1bff9bd8efeec356405c9ae70cefe3192e4069227467960001b610b05565b610fb07f2042c192b17330d2c59d83567216f1fe26ce803983c0854e07556c8d8ffaea7b60001b610b05565b610fdc7fd5dec36529c7404477a87dd7d0c10185b5d753525414c59fcb13d16d55c54d7060001b610b05565b611005610ffa670429d069189e0000866138fa90919063ffffffff16565b831115610131613a73565b6110317f17d01d28436cb6919304a4495e77ab61aa8e57d9626b4d3c8c6b8e5bb852a53f60001b610b05565b61105d7f879c27d6c6f9f7e4f7a30d528d12e1def99cf715499c52725a8a659b0bc22dac60001b610b05565b60006110846110758487613a8690919063ffffffff16565b86613bdb90919063ffffffff16565b90506110b27fe6f8df8112e442c42aa765a0427fab65bb2ce5df655801a336c7f8d8af0d1ae660001b610b05565b6110de7f3f60dcbc9f64e457881424170e039a09f9b5ded3f6513a4534643b70374e16e360001b610b05565b60006110f38786613bdb90919063ffffffff16565b90506111217f88e6a53131f660c3eea3f8ed452202b73297057465aca75251efff616bdfd0b760001b610b05565b61114d7f37d32a877b993e1afd1921ea174d3a4e5993b021227265de8471ab1b1c7735f960001b610b05565b60006111628284613ed990919063ffffffff16565b90506111907f97913403cad13692312cabd841666858794db0e32cf7ebf4f814a13454a55f0f60001b610b05565b6111bc7fd1229f4dd8b8f1e09c825933268a723f8e2bbac4c96036deaa5eb38de526f45c60001b610b05565b60006111d9670de0b6b3a764000083613a8690919063ffffffff16565b90506112077f54b64675c25b39af762b7e390199fb79bb22545b84ecb13cecb00a6fa0dc2d8c60001b610b05565b6112337f0d1b2ba77c8ea30c90c1d118a4c8b95002df13c619863ac7f062deb7e0ae799e60001b610b05565b611246818b61404b90919063ffffffff16565b94505050505095945050505050565b60606112837f30348a04ecee1bdf3ae3aa50ad93973cb9c810c895149a9558a86faba4202bb260001b610b05565b6112af7f435adb51a9c879358ec04c527685f10ed7164164c9c0b3237c119474020a9f9160001b610b05565b6112db7fa7a883bfd49da4c37cd6a2ba823d5845f7fb3011f529fc56dac72d5ca7e289ef60001b610b05565b60006112f083856142e690919063ffffffff16565b905061131e7f60d00f3a8515aa084da3b347e2707d6889c689253a6af558a504f138a790752760001b610b05565b61134a7f4a7ae87da30e0f96b3863d9086b5480677722c86ae8267752b31ac0ba0bfec6060001b610b05565b6060855167ffffffffffffffff8111801561136457600080fd5b506040519080825280602002602001820160405280156113935781602001602082028036833780820191505090505b5090506113c27f1eaa4ecff4917f29a20254854fa22b656f2bb697fdb0227394f518e21390844960001b610b05565b6113ee7f4a7d5569fb7df46a1644956b4f5a54cbf22ee2a05b48ac314e7ddc14e196ef8d60001b610b05565b60005b865181101561149d576114267fbe3d3631201b88c379ccfde9f6d5dddbe6b59e09d6fbdbebe5df79adb9c0d0a060001b610b05565b6114527f1c3e9a96e7e9590e3de4b8c032d92968de2565cd0cf94251705b82cf3d3a831660001b610b05565b6114788388838151811061146257fe5b60200260200101516138fa90919063ffffffff16565b82828151811061148457fe5b60200260200101818152505080806001019150506113f1565b506114ca7ff4f37669cdb356180e7f72c78425bd9f9c91ba636eb8ce2c715c2689a51af89260001b610b05565b6114f67f7b39fd0c9cc0d64ee3be8e8ad0fb104438faace29f2df804dbec43e8738ad43d60001b610b05565b80925050509392505050565b60006115307f576a863d97cdb2c1d249ac783bdba346346bd7b131d228467d125d60b9f1a80860001b610b05565b61155c7fd50507d03432c7450272f189601e232cbea96f62880412c799fa8aa584f8336f60001b610b05565b6115887fe4afb299c8b137b3fd13e0b80802048ab40c8f2ebe04fff7833006b95c75cce860001b610b05565b6060845167ffffffffffffffff811180156115a257600080fd5b506040519080825280602002602001820160405280156115d15781602001602082028036833780820191505090505b5090506116007f5b65b98316829d91bd2e3c819cb74fdd9b59a535ebb1349ebe220af0a937f72060001b610b05565b61162c7f7b944a854d3fff921d6c4bfd17f1e91df3f78819b6c8435a361da6dc5e3ee2e660001b610b05565b600061165a7f42b6093a9197ee1785c89139fb8239de42d4a3e4ff511d26858f89e96cfa97f860001b610b05565b6116867f42889a1991ae7064f488955541e11894e1c0cdd009021f2105a8294f2f100c2360001b610b05565b60005b8851811015611812576116be7fb752f05850861270a03215ad630e72fd7a755efa0e653ffe71b113352537f9b760001b610b05565b6116ea7f01c1533c8b62ccb28b7d579c4c5e63f7356f9044adce771242f9eebca703db7360001b610b05565b6117488982815181106116f957fe5b602002602001015161173a89848151811061171057fe5b60200260200101518c858151811061172457fe5b60200260200101516145de90919063ffffffff16565b6142e690919063ffffffff16565b83828151811061175457fe5b60200260200101818152505061178c7f415a56e35f47ec3954ac1a31d1c577c17e5af51f4707e87a1ccf802a3516ecac60001b610b05565b6117b87f370ecf6650d380da58b2f1b42d1e52e8db28017cdb160b6df705df540bfd9a9260001b610b05565b6118036117f48983815181106117ca57fe5b60200260200101518584815181106117de57fe5b60200260200101516138fa90919063ffffffff16565b836145de90919063ffffffff16565b91508080600101915050611689565b5061183f7fd47e11776107c2f882140be77840f1e5d4044db607e135eac28e7f87aee70e1160001b610b05565b61186b7f86254899a1052dfb6bca21076974cdc12a2fa189846fc1cd7297b7f674b8416960001b610b05565b6000670de0b6b3a764000090506118a47f25cc282b19cd1e4e439c340945c7bb507111c10b19360292e45cd599b643173260001b610b05565b6118d07f5cf807b141ff65f3f5da42b1e15354adba7085a031e56f85d0c57de08d9f972b60001b610b05565b60005b8951811015611d76576119087f635453ee73a416f39cedc6479c9b533479db18fbcd32282a0b4888be9be76c6760001b610b05565b6119347f922e1e60c36e80d1526d377b4d49034dd2a3aa19464254096a0abefef0a99cc760001b610b05565b60006119627f10755f411c5225174cbce3a88ff3ebb60643f35362ce345fe41bcbb448c1163a60001b610b05565b61198e7f25bf0df7cd4767a5c9f2edb9f307147ff40d13f41c52104083ddcd4f0409f8f560001b610b05565b8385838151811061199b57fe5b60200260200101511115611b93576119d57f714da9ac1709853ea6642d4f1dadf6cce33e734c044ac1fcb86ac01b8484803260001b610b05565b611a017f583fe345ab256860f3a06726d4d2f9b45d0e5cce9b08fa94b3c19b3a5c59605e60001b610b05565b611a2d7f1eb67ac3e866a31202aec12199df53753b25259ffa00f180b99964551c1b1c6860001b610b05565b6000611a6f611a4d670de0b6b3a764000087613a8690919063ffffffff16565b8d8581518110611a5957fe5b60200260200101516138fa90919063ffffffff16565b9050611a9d7fb4ca5fe7294c359866d20266c2297b72eae9afa9fdfebe19371e86d0e788931d60001b610b05565b611ac97ff9b9a34e07298b720d52661febca7ea6916325c32d47675458366f9a05ae7e1460001b610b05565b6000611af1828c8681518110611adb57fe5b6020026020010151613a8690919063ffffffff16565b9050611b1f7f10c726dd024987dd0e8b7599197996127dde12f0427783572ea4219abe402c7a60001b610b05565b611b4b7ff10603c085b57ace28d047ed12b754df54acf5275af49ac8d8b7ad6b250a6c4060001b610b05565b611b8a611b7b611b6c8b670de0b6b3a7640000613a8690919063ffffffff16565b836138fa90919063ffffffff16565b836145de90919063ffffffff16565b92505050611c2e565b611bbf7fb6847286290807157ce37bc186ae3d61054411caea5142e9863e911d13b169b860001b610b05565b611beb7f4e24aba2356739b5beb4d0447d621529bbf536789794c24decd3a359e044d64a60001b610b05565b611c177ff8c94014e20e856c80ee9280540459e35fb1cb197b32a1f26d6e140e965de27860001b610b05565b888281518110611c2357fe5b602002602001015190505b611c5a7f531914d97aa63061d92e4cba2138c3b240a2c1a07951af41b19efe42142d272860001b610b05565b611c867f472284f47ef5b45afa9af68153f74741b032c33f1da581dc7958d4d200fbf04660001b610b05565b6000611cd38c8481518110611c9757fe5b6020026020010151611cc5848f8781518110611caf57fe5b60200260200101516145de90919063ffffffff16565b6142e690919063ffffffff16565b9050611d017ffc7cb4854f52acc8009f8757d6ffd447e362fd65c3ddb798763a21910036934b60001b610b05565b611d2d7f2bb5602b23ba66716f7c583a85a28c6b4a4881c0fe1715f6fcfe8b97b8b49b9d60001b610b05565b611d65611d568c8581518110611d3f57fe5b60200260200101518361473390919063ffffffff16565b856138fa90919063ffffffff16565b9350505080806001019150506118d3565b50611da37f5d91626db5b5aa7766448d2bf6b5dc0bb3a14420e49639bb5131e955cfc2cd8c60001b610b05565b611dcf7f9bce18290923289b3c28011a2708b28dc602670c29904d2cf4cb60e156a4e27a60001b610b05565b670de0b6b3a76400008110611e9957611e0a7fbc833543fbdd90980ca386952133edf12267deb1d67df3bf7e1ca3cc4cf719de60001b610b05565b611e367fd6ecf17d03a8040f7f61b0832018d7c4922b59a4229543bf7b21179abdd1e71860001b610b05565b611e627f49e2696be44bfde05831b2adb0da1e4d9b6ce9578adcde649114fbc0074d313360001b610b05565b611e8f611e80670de0b6b3a764000083613a8690919063ffffffff16565b876138fa90919063ffffffff16565b9350505050611f25565b611ec57f2ec8f9bf7eddb20641099b86d54ff732a320302f3609ba1adeecc661c931108c60001b610b05565b611ef17f133cf310ef899bdb8aa6f665c1630320e583a0d9dd5b42c01e1473fa85d5b25960001b610b05565b611f1d7f1b867ec6e3bc638f865b37af6b9bb88c5bb8493c9834f04d5aa1028deb56331560001b610b05565b600093505050505b95945050505050565b6000611f5c7f0a2ed1a2361d16a862a63a626d7dc7e55f0446c071324f37e80447464a4e25cc60001b610b05565b611f887fd2479fbf1606172f22490b4666c53b3ceb19fdb1b24472434a971c24b8e8e6f160001b610b05565b611fb47f47ab4680f6868e4002634dbd92323fb71b52d134ac3c82463a8480c6ea4a6ac660001b610b05565b611fdd611fd2670429d069189e0000886138fa90919063ffffffff16565b831115610130613a73565b6120097fbce97497aa7c3483551ecf2fc1ecbad1dba7debd194e9cc9d024e79aeaf33ea160001b610b05565b6120357f8282783ca711b4405930875d459503398f9400588220f956494bae619ed2b81c60001b610b05565b600061204a83886145de90919063ffffffff16565b90506120787f0692faf120503ed39b32f5c67b3bc57b1d006a00bced044aa29225f22b1c053f60001b610b05565b6120a47fc19247db98198518820599fa9f7de479d6bcc990a069ab437e02ffdbe0cc2db660001b610b05565b60006120b98289613bdb90919063ffffffff16565b90506120e77fdb0b3a840ed7c859a892bcdc589c2190a4a997dfc5c1980d8ae0bc54b9c4691860001b610b05565b6121137f8928156402a329a37d421ffcff0408077521d9d9b7346e2bd7d415e7c0cc7b6d60001b610b05565b600061212886896142e690919063ffffffff16565b90506121567ffd8b549d674a3b31bfb12c555a2fe2f9f4b15d24b7e5fd0f2b1ec29e5a69d8f460001b610b05565b6121827fa8838aae9cadc4bcd3de2f0ba5679a9537fe5a26b8bc7883039cfb6a4aa5a3dc60001b610b05565b60006121978284613ed990919063ffffffff16565b90506121c57ff800f0759b22ca1e6c90389073cc41f23c7f77b6d349dd7d5c72f846b732c51960001b610b05565b6121f17f0ff18007c9f00023e8dfcf20ce553e1ff423bf113211a09c067018dfc735861b60001b610b05565b61220c6121fd826149c1565b896138fa90919063ffffffff16565b94505050505095945050505050565b60006122497f5afcfbd3a86329a57132ebba814a489a2968487c5addd0edb9659a64317394e960001b610b05565b6122757ffa92d3164c6d6d787b4808ee06c0ed1c133a0130f936e40ea540a3d23e9ee00b60001b610b05565b6122a17f72d2ad67d4347bdbc8228ee7ce1383fd1d430f52d23cb23ea4d9fc661d59e9eb60001b610b05565b670de0b6b3a764000090506122d87f25cdb4df06d4bcc4c8ccf51dd2750db869dd44f6ab61017d4c46703dcbd829ff60001b610b05565b6123047f611441e4d4cebd9e8c39bb8ca150190591e7fb15fafbe2e5cb3bc1d889d895e860001b610b05565b60005b83518110156123c25761233c7fddae53bb3a5b83420ff2b17d78a6fb28578bf9106548b937b359db2c210f8af060001b610b05565b6123687fd384b7f10c7fd367bd292b8fd648d9e89f8d6308876813857fdaf78c4ed6f19d60001b610b05565b6123b36123a485838151811061237a57fe5b602002602001015185848151811061238e57fe5b602002602001015161473390919063ffffffff16565b836138fa90919063ffffffff16565b91508080600101915050612307565b506123ef7f794ce20f3221031bb56485e33a53d1b90836486af018b9c7cd8bc36bd5590efc60001b610b05565b61241b7f1a5dc6ee348f65fdee7cebb8a72171a7ec10d5054ca6020153e575673834d88f60001b610b05565b61242a60008211610137613a73565b92915050565b600061245e7f1d87df4bf741f5fa780d392b27042b06f46df2b29fa63c25d0f0febb34dfc14f60001b610b05565b61248a7f0a3121a496674afd4ba93a6af1c82d01dcb9577ac453dd0c18b71b6e75a641d560001b610b05565b6124b67f0c182ad15d3c4c9e48e0b6c60b3fb0c929e9f36ead3261df240dc8b95ea82b3960001b610b05565b60006124dd846124cf8787613a8690919063ffffffff16565b613bdb90919063ffffffff16565b905061250b7f63e214cf53abcd3c4722941ef75d79df45a6c6040774ca4ea77c2dea0df1b2f260001b610b05565b6125377f4fffd47ddffc1b55d260b3535b85653ffcdd702c959a99fc5024b38327cb336660001b610b05565b61254e6709b6e64a8ec60000821015610132613a73565b61257a7fefae5b87eee833af15573b6ae022eff03ad8f9eee1aca0f88f3f841b1ed08e4460001b610b05565b6125a67f19743d890b758a9b54f07606180cf6d9982e039d0689339968be4411f5c3c40260001b610b05565b60006125d56125c688670de0b6b3a76400006142e690919063ffffffff16565b83613ed990919063ffffffff16565b90506126037f435ff8c7d367f71642c43c5f8d429a4aca249995ec50e27018ebff0f0970d71160001b610b05565b61262f7f997ab0b1fbe2b5bece1767daf81a258e1e78bd0bbaeda8767300fecf5253766160001b610b05565b600061264c61263d836149c1565b8a6138fa90919063ffffffff16565b905061267a7f12446bc69609f7989f60754cc85c1799583f57b5eb92f78ab22956d8c121f6f660001b610b05565b6126a67f791d5ac907db80d7a227085662c676e2c8d797ed306de9bd0b976933e40fe50c60001b610b05565b60006126b1896149c1565b90506126df7fb0e6bd63ceb87512ed357729bb54e09d8013e390f0a1eb3f74ba5cb8e44d261660001b610b05565b61270b7f86477e1d169baa97d2101a0549841ab6f9ef13f7898ed2e7402bce347ebf1ccc60001b610b05565b6000612720828461404b90919063ffffffff16565b905061274e7f1922e5c43e87c0ff5f103002e85a93b0c8da3122d0e5669bb22e4155142fbd0260001b610b05565b61277a7f50accda26e648df2b5eebd8956c7acf12ba10c3ac4d2fda0618dd28f11e383b060001b610b05565b600061278f8285613a8690919063ffffffff16565b90506127bd7fafb50ad8b4760f1d07e265b3bd8d0f18bec1d88b39c9fdb3a81bfe593f9dee6560001b610b05565b6127e97fc2feb4825c8492fe104e8aeafe9044f7cc731f6bb133261210aabfe384e4e11f60001b610b05565b6128166128076127f88a6149c1565b846138fa90919063ffffffff16565b826145de90919063ffffffff16565b965050505050505095945050505050565b60006128557f66d1e086f2b3b55720689d4ae633ba7e0f4c4d487cba822c5a5ac525f03fb79660001b610b05565b6128817fdf07a2c764cd8194b4778e76d0e21f6f87e269f22e62501cdd41a77a3944357560001b610b05565b6128ad7fbcab1ca23be0acd2c0432b5e98ca214342757f17ee9cd57c128c7af04b5dde2e60001b610b05565b6060845167ffffffffffffffff811180156128c757600080fd5b506040519080825280602002602001820160405280156128f65781602001602082028036833780820191505090505b5090506129257fae2966c3b4581a0359e4d33eca508815a3294b55384a06feb85e04329c20435260001b610b05565b6129517fadc0b6a3278f8defdd39dc4e15538e098cd5f6ffaf0854127e42deece891928660001b610b05565b600061297f7f75e9fb3f72f370166cc55fc05bb006475cd8059c70aed6c54c1b4b077de8f45f60001b610b05565b6129ab7fe1916e8605b17e59a3e565a82ca0973e820c913e7ac54a091fbb9f3184b5bb9560001b610b05565b60005b8851811015612b37576129e37f6d956fb78ca16f714267fd63734d9c69b751fedf288761005f046a1051b7ce6a60001b610b05565b612a0f7f2a3244e03bd1627c7bb830bd01b356d879f0535b7e84631c4a00bb517c98c0ae60001b610b05565b612a6d898281518110612a1e57fe5b6020026020010151612a5f898481518110612a3557fe5b60200260200101518c8581518110612a4957fe5b6020026020010151613a8690919063ffffffff16565b613bdb90919063ffffffff16565b838281518110612a7957fe5b602002602001018181525050612ab17f813a6c0e92344d8522d0b53eef4140a48c4add73fdbb7b107f4ea9977b53d01c60001b610b05565b612add7f1334a4c70b8315c21e493d7afa3f9b7e216a85274b7bcf4ac47f929c15afddb260001b610b05565b612b28612b19898381518110612aef57fe5b6020026020010151858481518110612b0357fe5b602002602001015161404b90919063ffffffff16565b836145de90919063ffffffff16565b915080806001019150506129ae565b50612b647fa8438fb0cea64b293cda875fe9d1a25d59389907acd5469b203864651316680660001b610b05565b612b907f9ea21e353897299577717350b3184e80588e9c0b43c1dc929dd58911d76fd32860001b610b05565b6000670de0b6b3a76400009050612bc97f65457011bfe5687c4ef2233876a3e249d78f62bfbece7670f801f47de4e9db2f60001b610b05565b612bf57f3cb45c7aa4ed880ef8f577f0f3b6e8a7ad853bd452f271464de0537f0aba889260001b610b05565b60005b895181101561307757612c2d7f9bf699b45b15734b39626e4ff99d7effd0bf067e8069f4176a54d2db20dde67560001b610b05565b612c597fe4df4a9bda12d94ec2f34cbe517fdc4de5db94f723c726f660ea403daa43a1ba60001b610b05565b6000612c877fc81fd3229e5f2a96606f7b46cae65a8ea9cf0270c8c0d5b45d56b30b839e08bb60001b610b05565b612cb37f1d5a822dff4ec1daf98a0830dbfaa267bf921ceea7f98a47a2fc2abf517534e260001b610b05565b848281518110612cbf57fe5b6020026020010151841115612e9457612cfa7f084e90600d207fd56036a8144ebae38c1b3b3806f33c66e7b3c2b41742bd7c4060001b610b05565b612d267f5c714d18572ca28646b7c33107ebccca7afbe96d1079d32016d98546de9aa3b460001b610b05565b612d527fa7c622fb97bb4e23ceb7f851987cc115f9673c572a1092027f97c2c226c4637d60001b610b05565b6000612d82612d60866149c1565b8d8581518110612d6c57fe5b60200260200101516138fa90919063ffffffff16565b9050612db07fe0a1dbd73d59544e6d84835bd81c4373fde584625c8032286b72f4fb559a224b60001b610b05565b612ddc7f2fc8ecfdc4040b73fbe81c8402718ee595e5a960bbe66fa1402934d533d536c660001b610b05565b6000612e04828c8681518110612dee57fe5b6020026020010151613a8690919063ffffffff16565b9050612e327faacacac36ed40a7d83c055b8e405766604f93cd3c9477571a8b6070cb2bbf57060001b610b05565b612e5e7ff65a319cce94e930446bec16e454ee81ef78109f34b103213d18ed071eb96d3160001b610b05565b612e8b612e7c612e6d8b6149c1565b83613bdb90919063ffffffff16565b836145de90919063ffffffff16565b92505050612f2f565b612ec07f629dee5ce187535686931c0dfbfa1852549981687acc4f60b5d4bd9b88f86a1560001b610b05565b612eec7f7ec7ce8e287f4da1a014de363ba98a70c6179b06bcdcb37aa46415eaeb6d843760001b610b05565b612f187fd9c153b58705ba3047abe494356152fb7176ed7b37d4181d2bd691440beb61fc60001b610b05565b888281518110612f2457fe5b602002602001015190505b612f5b7fb8b286f6916c61f376781f284385f58dd5ae33847741bca1f9b8ad1595d9ff1a60001b610b05565b612f877fb4c48547ab931d7fc6c1ad9c220f701ab59743dbde25c56585fe1efafb481d7a60001b610b05565b6000612fd48c8481518110612f9857fe5b6020026020010151612fc6848f8781518110612fb057fe5b6020026020010151613a8690919063ffffffff16565b6142e690919063ffffffff16565b90506130027f4d0f97b04b38473d4016013782297d84e7024bd0fcb1eb40a96c86a908b9110d60001b610b05565b61302e7f840668f7d4fc111c90146d1a17f93efd3ef09376ee3ac0cf6126bbf00618528160001b610b05565b6130666130578c858151811061304057fe5b60200260200101518361473390919063ffffffff16565b856138fa90919063ffffffff16565b935050508080600101915050612bf8565b506130a47f4178a2906d025024283bb894977545b46d9078a2494e86a874d21d463a05a79560001b610b05565b6130d07fde4fa5a5228b726b389a61d24ec06e7900ee8a1481d7746e824357c34d76267b60001b610b05565b6130eb6130dc826149c1565b8761404b90919063ffffffff16565b935050505095945050505050565b60006131277f6fac706a228fae450f9159306cecd4fe016ad31bf6bb989fd661c0e219277dae60001b610b05565b6131537ff5e74fdd515333a25294f33db503596ee6990ef641fd86988fe3ca801a9fba5360001b610b05565b61317f7f829af8daf051bd338981024b7f7b859dd9f2a2239af820332b32eff49dc5c74960001b610b05565b60006131a68461319887876145de90919063ffffffff16565b613bdb90919063ffffffff16565b90506131d37edd3574d4d7274bcdc8d43c50351aab8be60028e4c45104bf8866f6af6bb35360001b610b05565b6131ff7fc61bf2fdf89f8fe659f2f78e7e0b092deee2f05cf39e7396e70bc0a1b5d6513160001b610b05565b6132166729a2241af62c0000821115610133613a73565b6132427fbd8a0a227a5f08df873d60a12b676b18e9b4b61f88fb2825eb3674c62e97e60560001b610b05565b61326e7f01f6f1a93efe384db0f2bf048115cd16b6677b4d4a0173537977921df592436d60001b610b05565b600061329d61328e88670de0b6b3a7640000613bdb90919063ffffffff16565b83613ed990919063ffffffff16565b90506132cb7f8f7decd4bfce4f73568552ada9b1b98942ddbfe29beb13f8fbdc903fc3f8f0ce60001b610b05565b6132f77f8b440342879d57e523b811023bf06ec4f634b76c53de6ba32f0313b8fa0ee1d760001b610b05565b6000613326613317670de0b6b3a764000084613a8690919063ffffffff16565b8a61404b90919063ffffffff16565b90506133547fcc1844e05103e114ac5c57b6e14b9353c4aa21e4abd2f19db836af419cf3f03a60001b610b05565b6133807f9963752e17f51aa9eeb12e1c6924dad4c48eae4968f71083e8e028abd5b277db60001b610b05565b600061338b896149c1565b90506133b97f1340ce85322f03821e054a70d2e1df08c84c2e73ea28c428c6b83a450c74a7f860001b610b05565b6133e57feb7827cbdb8cabb927d4f6ae3af5355c54afa4506ed223027d9636684a828bae60001b610b05565b60006133fa828461404b90919063ffffffff16565b90506134287f85b9c9f9350a3481715aa825d3528ad1dae98d5bd6c17dfb98ae5dff28b3b37b60001b610b05565b6134547fc6eaa357995924f772fb8e26e93c04c147623a7d0a337bc1b7c4da7626360c2660001b610b05565b60006134698285613a8690919063ffffffff16565b90506134977f5c99068c255c93c31435feffff0bf8f88ebb2e4d6c5f2340046c696b99c5207160001b610b05565b6134c37fe6f20880eb2c5c18a7de202eb7c56feec4595b696e72e91d3fd2382ba860b72560001b610b05565b6134f06134e16134d28a6149c1565b84613bdb90919063ffffffff16565b826145de90919063ffffffff16565b965050505050505095945050505050565b600061352f7fd604afa9954905c0482de752cfce78140c9e0105980dd5692c6f67921463c14d60001b610b05565b61355b7fce00f8a7049ca61aedb1e0e5c38bcf581d13ab1775366f3212871b92ad9f5fc160001b610b05565b6135877f2de6256d44cffa78b3e299eb2325eb89a0da97cd84786ba0aeeac554dc15768160001b610b05565b83831161361b576135ba7f292f72d04493dca9255c294730c686a302d368874b1edcb09ac5963dab33022f60001b610b05565b6135e67fa500ec7bc2236658cd0905c5bdce2cce88a666004326a35afd75fa9fe64277a460001b610b05565b6136127f015af08e8db93efe99c853245a1f2037215132cf93f5e98e2c7ff66396ee722860001b610b05565b600090506138f1565b6136477fdd617053635f114281c69bd7c444fac5517d88279cf75d95f82ca6180900935860001b610b05565b6136737fa4e37239a43132e6f9b4192f706e9ec7241f384d291a3108ae0e0c8a44b092c260001b610b05565b61369f7ff84539ca69fa3c730d4c3f5ecd450e4fe945bc81ca46500f299aa33e176c332f60001b610b05565b60006136b48486613bdb90919063ffffffff16565b90506136e27f4296fd1a41da20af6e91ad48634aaf5863f5902a18a3747139e7382d27ab816560001b610b05565b61370e7fb11496e313cca9868136bbccf9b946a82babea353f3cf89f6868a96eeafbb68d60001b610b05565b600061372b87670de0b6b3a76400006142e690919063ffffffff16565b90506137597f19d6af639cb779089ad7910a3a17494770a3a85af05be437561036fa93dc849b60001b610b05565b6137857f34094aa45cf13e562ecf741fa8e79d49c3ab0047e2f8af1897b8bc8bcf55925160001b610b05565b613797826709b6e64a8ec60000614a70565b91506137c57fce1c803f4db41360d7c118a71d7e87e2546bb35b601c789aa178d3bbde38edfa60001b610b05565b6137f17fb91f36c59792839e880adad2482e18cd805859aca495f560ae9b1dc02934aa3460001b610b05565b60006138068284613ed990919063ffffffff16565b90506138347f3678fbce38b7a830dac1dff927bb7381eba6a4a4f6643d89329bd9be8992d0d160001b610b05565b6138607f816c5d04869f56083815bd3c6119f5690d7c4eecb73f344067f3f331f57ac75d60001b610b05565b600061387d61386e836149c1565b8b6138fa90919063ffffffff16565b90506138ab7fdef943248c99aea089a4d1aae2c25fd9ad1d1e65fbb2aea62d5dfe9e47edd50360001b610b05565b6138d77f9631174b0236ba6faca514c8555990f5e4a6f3b8d71d22ca1543fde95afa66e160001b610b05565b6138ea86826138fa90919063ffffffff16565b9450505050505b95945050505050565b60006139287f6a56e6b9382441f5a45bc35a43826c64209849d281de5ea652d97114d3fdd00060001b614b0e565b6139547f832e186a9dec832c15d05f077f0a95bb8c8a30f33174b1b74cad094def38313a60001b614b0e565b6139807f1d7ac9a6923837cb729d2a9f327d6b28bb868258b6639379ad9b804ddbf149b960001b614b0e565b600082840290506139b37f20b7636ac61a045be0786996288e3e2b0851467b3df87ea384032be131612f7460001b614b0e565b6139df7fec8cc3cb5297dbadb0d69bb41ea6b39978fd82ee0c9e2ddcb3663f06f85f6e5a60001b614b0e565b613a0060008514806139f95750838583816139f657fe5b04145b6003613a73565b613a2c7feef689e5d622a32553062ffc4fe64fcc96483927ecea9c38947b4717464b23ee60001b614b0e565b613a587ff2d9867efb05a2da69e9efe9a0d629e11b17960b86d7f70af9b6266d6479596060001b614b0e565b670de0b6b3a76400008181613a6957fe5b0491505092915050565b81613a8257613a8181614b11565b5b5050565b6000613ab47f136ebdc0e8e6c654b5e766ed596f1b15fd48fc1d51bab4c8c7c45de1ee4ad72160001b614b0e565b613ae07f114bff1eadb9fe5e00e839002a18300aa1e7fff0b618dc6b69f07aeacb6a9b8460001b614b0e565b613b0c7f7da4616aba1f4bc537147c323237f74d59ca849041dafd480533792f0b249c3460001b614b0e565b613b1a838311156001613a73565b613b467f14e53f9ac176f8345a56cfe7c694fa8ebaae7e4283f826c430e46ed04d387bcd60001b614b0e565b613b727f6c57e6eaf4e7a2a0881e9eb3b413418334d4488743dd138c4cc2ee06e58d5da760001b614b0e565b60008284039050613ba57f7f6d826607619d4af998f19f06e63668e2b4a7b2f21b0950b6d5a8286412c44360001b614b0e565b613bd17fecb4e28ed936d30a07b9d6ae22d30338892d72993772c6977c28d7f23d9c7cd860001b614b0e565b8091505092915050565b6000613c097f0b82bd6e55031056eb502479287614825386e546f233b0c840d3add6e328c33360001b614b0e565b613c357fc29f725438dde8a8e35a83c255914da88eb1af6a0b0254a2ee71a12cee7a182060001b614b0e565b613c617f867b25ee062e1c15d81f5eb600408b615a5c4755d21132cbdec196c0e0f6bfcd60001b614b0e565b613c7060008314156004613a73565b613c9c7f505ea7ae5aedc93e2b84b1d7f3ea169b72041ba472727f5062597f0faa7a511760001b614b0e565b613cc87f25c8d3148f938498be8d6158605bacdced13ec3c2c723c563728402175f155e160001b614b0e565b6000831415613d5e57613cfd7f6a9f973848d0e1bf3ca33878057df62131a9343ce33b83d2d55b5cc74756b08d60001b614b0e565b613d297ff4c0037cff5823363d8dd200bb93676448d4def45fea7d550abab49926b7d3e360001b614b0e565b613d557f891ef57f2cf1ca4bc1e2deadd5fdb7d9886e992eab3e894651a0c6327ddac8cd60001b614b0e565b60009050613ed3565b613d8a7f067b1c6f891f851b3004c206fe7ed1f1ea776fa53af3a2f30bbaf811de2c57a960001b614b0e565b613db67f39332f0aeb86b539dc005963041118b0404b93ee8fa3f8cc0ae706d72b9019f660001b614b0e565b613de27f0cd05effb3643090820c5853634e935de87e3f1a53038fd2130ebd813ad9f47760001b614b0e565b6000670de0b6b3a764000084029050613e1d7f0d8a293203cc6c75a3dc156d90cd71301c5afa4b710cd938ef7c286d2e887e3860001b614b0e565b613e497f0c5ce5144a4bb8fcb212fcced6a383ac3e93a9d9c8baf587edc678bd970ce69760001b614b0e565b613e67670de0b6b3a7640000858381613e5e57fe5b04146005613a73565b613e937f6adce84f1f10ed0715f5b03d1f2970c52b81756593de1c708e3f01ceafc7eb8f60001b614b0e565b613ebf7fd5bd32250369fb1bbf7ee21675e04e16fe702a3597d374429af1a9b966baf53260001b614b0e565b6001836001830381613ecd57fe5b04019150505b92915050565b6000613f077f25721ce18b6bffc3f9997929975ba453580739ef145a1adbe7bb4aa4b8857e7960001b614b0e565b613f337f9cd570838adb910b08e2fc79b3452605cf064cb67d8520ac0f8bfce12cbca36160001b614b0e565b613f5f7f884475361c4c4d5e4bd00577aa93f9d57874cc32d5e75f40a41e8f059017cdee60001b614b0e565b6000613f6b8484614b81565b9050613f997f10cb084c023b7e0f53854a40085cf7fbb0425f8fb93400486d4f7d2c3d7388f060001b614b0e565b613fc57f33d13a31a06800cb9d234bdb7bf20abe2949867398b6d7e108d4adfe6f50fddf60001b614b0e565b6000613fdd613fd68361271061404b565b60016145de565b905061400b7f67bea290723a6c8eea059d7fd6f368aed411df9bbabfeb28b149293f88a613df60001b614b0e565b6140377f7d79adfa852e724bf7ed52c9d1aa40b692a39eaf9cb72e0385e8fc3b92bdea0a60001b614b0e565b61404182826145de565b9250505092915050565b60006140797f0e379b560dd176564a5881533a4c5cc19aa1cc7aa8faf76190b57cc828976c9b60001b614b0e565b6140a57f49d3279522a2d539b8f6450b55bfcf22258bd9c72b153ac7bfc97b8154263c9d60001b614b0e565b6140d17fd5842d537ca76be62dab0981f1adf06ef8b0c1d3d07c5c5fccc5f64e322b6a0f60001b614b0e565b600082840290506141047f700f29679531b8a645e8ab26d0250167049ab4bb7c67fccfcf4189def020930760001b614b0e565b6141307f85ee3aa337267c4ef6af3c1740f5103ae02d953ce58bd465e6f4f46762c273f060001b614b0e565b614151600085148061414a57508385838161414757fe5b04145b6003613a73565b61417d7f5c252fff100b72de4ae3a3189d6e38224dea20d11b533167dfd1daf017c5df5f60001b614b0e565b6141a97f7a3609fb2bb484a1f0db93870f5b059b577a0a4fcaede309b231adb45a70056260001b614b0e565b6000811415614240576141de7fabfd1788429d8fd6729b4327e1f4244c545ab508b775a5d75e4ea123a58ac5d860001b614b0e565b61420a7ffcaa1bbaa38aa4160df1140967b159d44023995232ff45e635b0b13920d04d6b60001b614b0e565b6142367fdb7b1211aa3c4c707d8158063fcc1a98008bcd7125192b75674190966ccffc4160001b614b0e565b60009150506142e0565b61426c7fe5b1e0552e71aff9f91da98dca666a710532a0d6c20e09343da7975a6b13bf7160001b614b0e565b6142987f3964c1cbaac90899caf28429727671ca1384f81cd7e6c5f3984d8c0c0ba0f1ba60001b614b0e565b6142c47fe5c9d6cbe924ecab73cee431c799e5360b936d3caa09c48d311f4f973dea101660001b614b0e565b6001670de0b6b3a764000060018303816142da57fe5b04019150505b92915050565b60006143147f5ceb85d70358b3bacd1534074d8476b9815c3aa6da57ff5c4db717cf1398c6b160001b614b0e565b6143407f6b45de0869fc60f8014f7da0542a0a317c895d5992a32999446b847b215ea03b60001b614b0e565b61436c7f1c80b8e8d78eb73111835007cd5fbce062271945d8ad91c9713a0f5eaea6e75c60001b614b0e565b61437b60008314156004613a73565b6143a77f7dd4f066fd0af9999cf3a3dec7ae7a7af556b87168e1bfb8765875d731bc80f860001b614b0e565b6143d37f65201be675c5a31abb3b30b2863f4e84354bbabb212738434818b331218fec8060001b614b0e565b6000831415614469576144087f04f31c69f813356d0a5ac0c9edb65d06a495176d64b8586c7cafb96d6996746f60001b614b0e565b6144347fbfbf0353e226ff48ba457fb68f235ebcc9f63baa19022a9039cf1c0942ae0fc760001b614b0e565b6144607f1609c5c09908c1eb992d9ff1e81fdb2a249516c2470fdff827e65b26dbe7e28560001b614b0e565b600090506145d8565b6144957f2be483056be80cb935b63b4745911d2532199c222ec22fe0f78a15bbb8fed09e60001b614b0e565b6144c17f0270b25143b29a9c983a0408af759a0e9e2893ffb29d7c5caf214b0d971bf96760001b614b0e565b6144ed7fea10c1255e0cdcf9ab2098c493934ce8f4b8547a6b179a287f637c1f536ba66f60001b614b0e565b6000670de0b6b3a7640000840290506145287f0a6ae6c6038ccda5c0051980bad43ccf17d35f1670e80ae05de0d907db4c1e4660001b614b0e565b6145547ff192757c260626d3b1e4687cdff30fc5f9d5ad2bb5f508d95f5b59423a52625760001b614b0e565b614572670de0b6b3a764000085838161456957fe5b04146005613a73565b61459e7f1d11f25c6c63a8fb3ebc8bdbf2a3555840e10ffda34811fbbb33bc33243b3dad60001b614b0e565b6145ca7f5df7b8b2cad4c987f6ba11bd0e6b7c0d29619157bb4a75d59fb0a2547633762060001b614b0e565b8281816145d357fe5b049150505b92915050565b600061460c7f5f36fb0c028103edf307467f63f0332f966da8f673e1c7ec6aced59d823aae6260001b614b0e565b6146387f44b88f08c3beb7c1738a70418178f0bd070b94ca34f2d76f0ecc9e722ebab05b60001b614b0e565b6146647f089af7c7f34c896b1969367a1c50582a2d2ac2cc2c5e04246250cb0ba151867260001b614b0e565b600082840190506146977f258ce8748ca545d5cfac415b21ac328631ad1fd9f61842fc89135db464f24ed760001b614b0e565b6146c37f1cc115f28de7ca40c964e4298498543601b967d758e03fb745dda2e2ef4966c660001b614b0e565b6146d1848210156000613a73565b6146fd7f3fad55df3aa1830266f7765bc1f949767a1cbfd6d2697a8d021c032e32a426bb60001b614b0e565b6147297f1237371198ec3b9801ff55f45911f80dd6332e4e689796642e2b2e8c75af767160001b614b0e565b8091505092915050565b60006147617f72c19de3bd7f3c19931c96b91f993a5214741c9464ddeae9e6c9ad88aa15801c60001b614b0e565b61478d7f1bbd44fecdd08328705f5a8c9da101469952d5fcbfb661df3ae26dc5773ea03860001b614b0e565b6147b97f4eda033a298c9a93dc9d334de09877f56a24759c1a2d9634ca6223dcd8925fc860001b614b0e565b60006147c58484614b81565b90506147f37f0187b80303fadc878d242d36faed074163396a90a7f847289b4c826a9bc52d0160001b614b0e565b61481f7f86062b9a7d9c7bf388c59bc4ce028394354e2dc765d24fa65959d70f5a7699a060001b614b0e565b60006148376148308361271061404b565b60016145de565b90506148657fd0f340666a6e9372b457a8b7dd483baf60db93b57e11661fbdd1732d5da1411560001b614b0e565b6148917f96a42eec81f156474500a182e237fce359dbb271fea5c4a661b953602103c3ed60001b614b0e565b80821015614928576148c57f54ea40e744802516ce9076bb2494dd8a49ae42285612969958d9eefad2ff147560001b614b0e565b6148f17f9cd914a3aa737b153ac896c2409660f6602f300627d515618c480e5083abee2c60001b614b0e565b61491d7f71a5cecead4d0152ea0304a3c773b99fa24bf365cc1fd13de93ce5b059f3683a60001b614b0e565b6000925050506149bb565b6149547f889f4032bc922cf0ce5096f29a32fd51a9a45fd78446ad9ec0ea3e12dc79de4d60001b614b0e565b6149807f73e5d3a758b4bf678927daed1ba1d5d62d96b107a3fe938199583de513a1eb9360001b614b0e565b6149ac7f81546aced3cb747044329efec7877c2d1213020f2f4200064b531b0b93e4fb6660001b614b0e565b6149b68282613a86565b925050505b92915050565b60006149ef7f094a9d23f7d8cd7e1416152f4f9ab5639b7253358bede5a7c2bfa398f9e6cf7c60001b614b0e565b614a1b7f53bd07368499383bd7016e1180aecfc75dba7953a1c6ca4d15fb935506f497e860001b614b0e565b614a477f7e4ed03da9a10291c37c924ec962ffcba2777b2536f9cfe394e0320cf20486b360001b614b0e565b670de0b6b3a76400008210614a5d576000614a69565b81670de0b6b3a7640000035b9050919050565b6000614a9e7f7cb45b78c97ea7383e9fcb81d497198c628ff028ffc6f324f1ceecccc04cb59b60001b6153da565b614aca7fb3656ecde4040e1bbf22fdb3305656ebaef9ce03a867e318dd2675414787d4e060001b6153da565b614af67fa9adef01af328324ee6569271fad04725ea685a815a37b6a0fb2771309e9110360001b6153da565b81831015614b045781614b06565b825b905092915050565b50565b6030600a820601600a820491506030600a830601600a830492506030600a8406018060101b8260081b8401016642414c230000000160c81b7f08c379a000000000000000000000000000000000000000000000000000000000600052602060045260076024528060445260646000fd5b6000614baf7f9a386118f61e7ad4fa94e2a287955728119e0eee16d4706f5696a5173abbc55e60001b6153dd565b614bdb7f4f5997ebccad256def7bcc864be7dab89aeb1983524220d7a4ab32739d94bfef60001b6153dd565b614c077ff04ca04c0c7f6564cfb884744b9a6a99b8399657bc624ad61bcda29b2dea0c8660001b6153dd565b6000821415614ca457614c3c7fb61fd0faffc74429d9536d680d51c229f7bfc857cfe0b1c16ab8ee519cd7f08a60001b6153dd565b614c687f8ba538650ff97cbb25f6268d335201a5b55832ed9fa3368278f2b54f0655d62360001b6153dd565b614c947f50029354f7c76e9002ae8d860d78d3dc711a958bc725263ced11b65fa033525e60001b6153dd565b670de0b6b3a764000090506153d4565b614cd07fd32c8ce279639d1bceeaeebc77169f155034a4ef3d9539ba1585415db271fb4b60001b6153dd565b614cfc7f765d74ec76319c86571a1a98990058f556f8173f470cb234b3eeeb73de2a471960001b6153dd565b614d287f5d41edac9e94ccb4c9ce3771702b37e9e9fdad84abef68957f8d535db1fb18c960001b6153dd565b6000831415614dbe57614d5d7f4df80895392f90aec5303fb0cdf1002d46f9bda472d31b110d0cb84aacdb819160001b6153dd565b614d897fa865a11a69610de4d0f9025b2ae2fd2cb3cec580573f71fce7a2a5d9dee3f2d560001b6153dd565b614db57f30ae80ba256bd1ded11bd90ea5724792c51430bf16054b9ad66deeff27aabc8360001b6153dd565b600090506153d4565b614dea7fa645d025589b55f83c0dfefa01eac77e5d0040cfd4baee299ffe10f75514e23560001b6153dd565b614e167fab20f4270e591807c022b2d6de30f822b45725f5402d151d2bc8d45283aeed4c60001b6153dd565b614e427f4e82b059df52b7c33f830ca15735cb0bd1aec4f1359143826cbe5190fa65caaa60001b6153dd565b614e6f7f800000000000000000000000000000000000000000000000000000000000000084106006613a73565b614e9b7f96eee7e488fa5825e821b6a7c55ab2a7cc28b3c1b79cd978100956b629cc1ee760001b6153dd565b614ec77f1ceb730a261b7113a12394ad33c901fd32ed42b54320b008711ce05b719077be60001b6153dd565b6000839050614ef87fb66fd411e1a8d967039a8da79a7d790af05f6b49ea181c71e5c38c7f183ac69660001b6153dd565b614f247f59d94b3b892e410be8e3a31581fd61484ed53955a13153e3b15f6ff2d20e8a2560001b6153dd565b614f6368056bc75e2d631000007f400000000000000000000000000000000000000000000000000000000000000081614f5957fe5b0484106007613a73565b614f8f7fb43455663370ee4e1a9aecd733919d21a1556a872736849c215974eb634a7e1160001b6153dd565b614fbb7fe3d754343e1c7c1cfb2e7784ae1f7f2376d06f5f401d590c9e9b142eb6ff13ad60001b6153dd565b6000839050614fec7f8142fa62dcc2c5a93b972d69f51de2a37654459ad74c151d90f967f61a85ce0960001b6153dd565b6150187f402046afb111f35727124c3a6ff0e2b2e5971e5595f6396e9c492e4a265ebbf660001b6153dd565b60006150467f89c0988c9926159e3ac8878ee2b3ab59aaff3cd725b128c615ab50a67602fac860001b6153dd565b6150727fa1658a7bc679ae40702db916ec95341df9125e33bdd70a9dcd9ef9e3582a2e7760001b6153dd565b8267016345785d8a0000670de0b6b3a7640000031280156150a4575067016345785d8a0000670de0b6b3a76400000183125b156151d4576150d57ff49ed7d2b95b72393e94d42845049140b773b672c50d6e84ce1b5add7b5f0f2260001b6153dd565b6151017f5aba645b90c86d1b2aef4aab00c0d26824c62ae4059bbab52019a3f4b0e3754660001b6153dd565b61512d7fdecba6c8700d218b458c9726aa50cc52fea6d06f28fa0a626a623d9d8c838cdb60001b6153dd565b6000615138846153e0565b90506151667fd9240a119a615d486710e5b81d68c7448ce534e7455183fc71b4672d5703849460001b6153dd565b6151927fc0cfbbf713e4647e61a667d0a63a928a90a209ba4b9d621a7e025a1494ea6a1f60001b6153dd565b670de0b6b3a764000083670de0b6b3a764000083816151ad57fe5b0702816151b657fe5b0583670de0b6b3a764000083816151c957fe5b050201915050615266565b6152007fcc621bcfd2c6ea1cee8c99457f203c0ca179e2c3425a4fe7903d6c9bb67ed6e760001b6153dd565b61522c7fa6e3279b328741e46af523c5b150d8028c884a4764d5a57051e75ab45359622760001b6153dd565b6152587f9078c1bc9da8505f20b2fbe8f4a2301ee4bd40989461036b8db101718d0bf7f660001b6153dd565b8161526284615c99565b0290505b6152927fdc9fec9918f8626782712375c63e7110ccaf5fefb184df87d8e968da192d6f7c60001b6153dd565b6152be7fa6ef11a4e406deb2e49d7789d48365a2c9e2e805490d707d8331c1e0e82f3c6160001b6153dd565b670de0b6b3a764000081816152cf57fe5b0590506152fe7fb021674caea471abb3eba3039cfa309d30369ab16ac518ce79845057ae8495b260001b6153dd565b61532a7f77aebfd49fc425f02c8aeb6081ed57b7c3bdafd97f0d88a9ffe8ea40a4c7234c60001b6153dd565b61536d817ffffffffffffffffffffffffffffffffffffffffffffffffdc702bd3a30fc000013158015615366575068070c1cc73b00c800008213155b6008613a73565b6153997fcc14f66ea80d0f96ac4be1cada57bd936b4aff18ec591c8add3868919daf5c6960001b6153dd565b6153c57faaa107c4e1a3cac283bf0b9714305fbd4444b0ecbee01cae1665ee77392a88e360001b6153dd565b6153ce816179a8565b93505050505b92915050565b50565b50565b600061540e7f878dbd75182d11169cb6468e38c2070285b353a113fc0c0f4b4e78ca4107efa560001b6153dd565b61543a7fcf52ba1c3136b4366d77e6a3fd49e8232584096ef261e9b87ce00f0a2f8a931560001b6153dd565b6154667f3fadda1085c3441ef2115201184f7120f4dba09084082ae4e6eeed1c40727c8b60001b6153dd565b670de0b6b3a76400008202915061549f7f3c4c865f3e9a320aa8d2dfc77a8fa86ba841b120198928ed6d44cf8166871ffd60001b6153dd565b6154cb7f74a1d91c3ea4303862cdf8ec96351a9d9dd07e348a0263d0d65bffddee4883e160001b6153dd565b60006ec097ce7bc90715b34b9f100000000083016ec097ce7bc90715b34b9f100000000080850302816154fa57fe5b0590506155297fb02a1d305ed8612fb08f3b91318af1b7c6e1de56e50d18149e5bf2d56cc4e32760001b6153dd565b6155557f64d39411ae3b76279032a1259eb31b90200c7cd93b1307d0b2846132e2a872df60001b6153dd565b60006ec097ce7bc90715b34b9f10000000008283028161557157fe5b0590506155a07f9445b8db6848e2ac200a600306a0e74dfa1fbd16b1c352790326725057ebc4c760001b6153dd565b6155cc7f04732a40f912844defdaac51f1a732fe5fc30d0c559ee46d2d4911cd505e96dd60001b6153dd565b60008290506155fd7f31f7e977e002f3022025dda5b7ea9008ecc0d2c679daa00d8bee57401d1d316560001b6153dd565b6156297faa7bffffe28aa01279ed79e64a2829a44787d9a1a85600be7176613880bd7e3b60001b6153dd565b600081905061565a7f0ca25b8445a81872443a08a7deabd97122bc85703acbd7cac917257e7d40fbdd60001b6153dd565b6156867f80cd9edc12f986cd2b2254624da7f7e4c7a13b9ca0265cb118f1f560bda113a860001b6153dd565b6ec097ce7bc90715b34b9f1000000000838302816156a057fe5b0591506156cf7f2434d8bd5444b7c791edcb33c992e3e0580d6770ac636595df9af649fd45f39b60001b6153dd565b6156fb7ff4b44251ea6639e79cf51957737ddab7a05f8d61bc0840416b4f80ad42b02b1a60001b6153dd565b6003828161570557fe5b05810190506157367f44ba7a842c4fa27b8ef073a26c244c41ba1a11e3343f6f9e880ee3efa5b986d360001b6153dd565b6157627f881a7507053576bc7ab3310b30ecdff4366715dbc22955ef62902025243d448c60001b6153dd565b6ec097ce7bc90715b34b9f10000000008383028161577c57fe5b0591506157ab7f5cc7b54bd8a3efe7bb82e35745724901b942f3b30d9c179b13112065f2bf54a460001b6153dd565b6157d77f6b09c0a494d694b9017dab9b538cf50dda0d4ce6fcf7c191261d56811a9b1eae60001b6153dd565b600582816157e157fe5b05810190506158127f67e7eccab0966e707ecf96650686e0c490d93ab40e5df5241b64db9a9ea2428260001b6153dd565b61583e7f5ea6654204c898adce6ede171fa7ddf03bdffa537294fd486d85b453feeb2d2260001b6153dd565b6ec097ce7bc90715b34b9f10000000008383028161585857fe5b0591506158877fc359e7f0fe751ed76ebbd41c54974045b448505fd37771931beeec37bfc0783f60001b6153dd565b6158b37fd160bf175438cbadc9c33c5adc1bd2e777bee2efe0cf4a568d100f7be416c7c060001b6153dd565b600782816158bd57fe5b05810190506158ee7fba657166d1bb96b631caa21e09ab3333b868325c9e93d0d7c4dd2076b424e80d60001b6153dd565b61591a7fd4b8e0eeeb75582255d7ba8141e0026e06ea26db9bfae0e9f3ed07bc1925e86b60001b6153dd565b6ec097ce7bc90715b34b9f10000000008383028161593457fe5b0591506159637f69211bc47fb802aef4fff41bd4d89e8ee67becfd894366ca78c7acf3cadfec0a60001b6153dd565b61598f7fd2170375c1a33f1b85ef30331cfb09a299b05c120505de2e6f74f25a4381f5a460001b6153dd565b6009828161599957fe5b05810190506159ca7f2147d71f78b226ea8564375b984f37938e9d74c4e675da9059e6be15783ef7f860001b6153dd565b6159f67f36219ac4352b474957ca6f46d9dc10ba51ca26ddffe5bef9a9904ed48b94688260001b6153dd565b6ec097ce7bc90715b34b9f100000000083830281615a1057fe5b059150615a3f7f66175e9d1eac4fe1d87d9f46e716cc9764eb6a6ea9266bafb64d32152255537360001b6153dd565b615a6b7f8b2dcbd8b3bdda835dd0b219131d30ff05d9c603e40e5e19d9697cc63b902e2d60001b6153dd565b600b8281615a7557fe5b0581019050615aa67f95679c79ff9167866ab81e5affea2e82cdffe07280f62efcce7fbafd5177f40260001b6153dd565b615ad27f5ca7e75f15fe66bd55391e5d94d83afe99c5fe750cac1cf7f188a65caa8b731a60001b6153dd565b6ec097ce7bc90715b34b9f100000000083830281615aec57fe5b059150615b1b7f4d3d0450320262ec71b72fee282a4fdb28093d3d9ab7454b7702f4a6d90149ee60001b6153dd565b615b477f70c78d2b1fb3cc25168a54f3fcaaae66624d4c58583d2c2cea6cb7078e7662d160001b6153dd565b600d8281615b5157fe5b0581019050615b827f6efe0404f3cf3850c7045c85a572093a73b99e44bcb2e17bd85e8ab8fe2e146e60001b6153dd565b615bae7f6ea24d886383470ea8d50a9d54146f22f4183ce7faa564b937422cbe3a31709b60001b6153dd565b6ec097ce7bc90715b34b9f100000000083830281615bc857fe5b059150615bf77f53ba805b34a2e873ae264aee577d2eba5398265eda1814f55f60c534a07522bb60001b6153dd565b615c237fb2a8d8de8c01d550fcdb7c81fbd4b84488e80841c9c780e8b40a93d3872284c760001b6153dd565b600f8281615c2d57fe5b0581019050615c5e7f0bd9bc1ed84d46d259127ef65b8e3d3e67ed19eb1efe97b8934b20b72429997260001b6153dd565b615c8a7f2cdfb68cefc5ae049daa48dde3e333f3c71094b2a49e9347cefbbd9e0a9f00ff60001b6153dd565b60028102945050505050919050565b6000615cc77fecc77b033a29d74e33dd4abe85f8eb70815aeba9e4bac926898327ac3be4b8f360001b6153dd565b615cf37fd1bf58f14d30ec45c59a075b20607d54b9c0645be47c51dccb974fd74b918e4160001b6153dd565b615d1f7fb7e77273758c8f1b1167b33a9d3c9784a7eff80f06a053f49027c16b10fdae9d60001b6153dd565b670de0b6b3a7640000821215615dd957615d5b7f03990bb6672ae8d5bc44835763d88c5e3b06636067e317df6d9d7a24e818a1b960001b6153dd565b615d877fb4d24ff997e553acbac719b4050d5f7a67340a1153c3d0e5b58e42d1a97d403160001b6153dd565b615db37f9343aca2ac0216fb1bc6abbbbe349687b179aa281b90c9a16a003ab63ecea38b60001b6153dd565b615dcf82670de0b6b3a7640000800281615dc957fe5b05615c99565b60000390506179a3565b615e057fbc178d8ab74e86929f080dd82638220c59546b4898e89154272cb85ec4e506a660001b6153dd565b615e317fc25387c0a83078394744caf630f322a44b35d75b7c03154f68a727f8428ff3d460001b6153dd565b615e5d7fd5100a8424331f4f75bf8f7208773b083324f3a81a80dde35bb80ef9286be0c460001b6153dd565b6000615e8b7f33e80997264912b44db3023ec34f5e913b6f4f8e489b776fb9ab65985f7fe9d960001b6153dd565b615eb77f590005f08891cfaab908ea55e28c26f6acc2782c5c3375e1bc5d90e25baf19ca60001b6153dd565b670de0b6b3a7640000770195e54c5dd42177f53a27172fa9ec630262827000000000028312615ff357615f0c7fda7c2b3cf0cc7102cb557ed8005cc75781a193a0b744d47ce26e14bda3fc868660001b6153dd565b615f387fcd148570dbf475cb9e0a35ff028069c8b19b19de53ea88a1d45cd8660e08fd9360001b6153dd565b615f647f9332ce97bca85a297f29bb59f4965244b555ab0003e354be447099141b48a9a760001b6153dd565b770195e54c5dd42177f53a27172fa9ec6302628270000000008381615f8557fe5b059250615fb47f6124b65b7763ecfd58e70ea6d57d78826b28839ef428daf402530b48dc006c7c60001b6153dd565b615fe07f79885c84b7a285bcf408b37e144226ed068ac73408dea6b74ca38657de7af0bd60001b6153dd565b6806f05b59d3b200000081019050616020565b61601f7f5b2e8b47c063ba9ddf9895d4519474e0bbad0adf399c177ddaff9feb8ad42de260001b6153dd565b5b61604c7f1f3e31c8d0be15c54c0939d2f33de5a66145bbf4e39f3efdebead140e51caa4c60001b6153dd565b6160787fecb2b1f4b7cec7ea8bbbb9050b4f7f9a9f2748bdf17d3c291bcb5d502f58f96b60001b6153dd565b670de0b6b3a76400006b1425982cf597cd205cef738002831261619c576160c17f1d6684b3fc873897ec4e0380ef2e0ce7b9f9058616bb6f0015e648600a7f6f0b60001b6153dd565b6160ed7fcd72d2c4e35d731106a7a08750fc74c5f7fb69a608d0df838f1792705b369ca660001b6153dd565b6161197f406812009aad2b40385da00397d7ec5f450f213c0b3b85ab5e92f2e2a843bad760001b6153dd565b6b1425982cf597cd205cef7380838161612e57fe5b05925061615d7fb0995a83058ca31ac8624e4a68448556ef31ed4f570cb40025f0a5a09e3a631560001b6153dd565b6161897f35df840b42a9145d6ee285270d0cd8a395d84810769b353c760b9c20ae16f5ca60001b6153dd565b6803782dace9d9000000810190506161c9565b6161c87fa94c6b9b5a805db25a28082f021a6d6de99c51fab6c643f4a13eb55da42c007660001b6153dd565b5b6161f57f65847ff29eb1a52003d690ab8190951fbf4f01d48df56566f179004ba8b307c660001b6153dd565b6162217f9f31c8b122f751e33f63d6880f9059e843cc41786cad59411853e862505ba40260001b6153dd565b6064810290506162537f74899189979eb1a55c01f0b4fee049598f40edc6e83bd697789f68a5f35b2a4360001b6153dd565b61627f7fd68cddf915aa92a7015a22cc37156bef6eedc9370809b23d90e89934bfc86ab260001b6153dd565b6064830292506162b17fdcb59718759577ae01517084240cf091dafd92c6662707e2a2d7c99421d457b160001b6153dd565b6162dd7f442b12b25733e5032f3d1118f6c822932aa8e68c3573144483dfaa5992cfa7ea60001b6153dd565b6e01855144814a7ff805980ff008400083126164085761631f7f517d701ba4bed5025e356f0465ec2e393a96e7e46b3a94ce3b1c61f628886a4f60001b6153dd565b61634b7f38c1bda640bb460e0b0b91958dae86f4ae448e2e9afab267985a91fab526e85460001b6153dd565b6163777fe9668e91a8545913d37f858da33ed2556043fdfbe5b31c3f3512d3f9cbd8bf7860001b6153dd565b6e01855144814a7ff805980ff008400068056bc75e2d6310000084028161639a57fe5b0592506163c97fd390b31746ead49deb096735e86bd3a237ed02c3b9a93f5e184acec961a3ab5860001b6153dd565b6163f57f83d399164d045afdc990adeb5547a99d77b6e938cc8bee04efb39fc742d1143560001b6153dd565b68ad78ebc5ac6200000081019050616435565b6164347fc674803d87b944d844c9245cdd2c8b09e25dc9b73e4beb1cb67d529ba0b924dd60001b6153dd565b5b6164617fa1e2bb1345e3007cbd5ac4dd9063e8231f054c2a18f864586186da78c4a192a360001b6153dd565b61648d7f34746ef9d7116ddff8b8552fbafbc09f78d3cd5560a3819038cc98864e640dbe60001b6153dd565b6b02df0ab5a80a22c61ab5a70083126165b2576164cc7f43c2561fa677b9965dcb2982e9739cee5574471a0316d18b178ead0ea0dcbe7960001b6153dd565b6164f87fdb7e7cd63f04b13d646ff83f968c2391a7dc04201b2ab46f4c6f05a2f5f4c19e60001b6153dd565b6165247fa51301f0c721792a305d53938cbe25c60b60378307f5f25c6ff366c81961a97960001b6153dd565b6b02df0ab5a80a22c61ab5a70068056bc75e2d6310000084028161654457fe5b0592506165737f11fc776bbec2628286b2b3e91c8540150b1f64508f26aaf3b42ab58a1fba282d60001b6153dd565b61659f7f7aead7559accf21b41f5ead9612a4ea682d12e908fa465b88f7d002ebcf32d8360001b6153dd565b6856bc75e2d631000000810190506165df565b6165de7f91d5f33e94ec1de2885dccb316b2d57c46d15a0170029e34963bb1a728af22eb60001b6153dd565b5b61660b7ff93d78aee895f4f8c20809b09fe8e2f8ce9bf3108aba97eea09c8813112de8d060001b6153dd565b6166377fcc17545d83aa93fde97d49a674f70b12bbb08b356adcaa92ad52dd6dee29defd60001b6153dd565b693f1fce3da636ea5cf8508312616758576166747f442d0cbd39255f4993bf72b4713cb8405cf2c16bc11f2c896b76edf1c70f594760001b6153dd565b6166a07f05d5d3d4a55dbe9cd78a9bc82c6e7043997d171541c049ed29c0c95d1b73816460001b6153dd565b6166cc7f52087c8da278fac08437ac36aef19bc7093b60e42264611247e8b8cd5cebfbd360001b6153dd565b693f1fce3da636ea5cf85068056bc75e2d631000008402816166ea57fe5b0592506167197f549e28f6477e1075442c24d186d6c4e4f5189b494fbd9fe4b36cc31fae7c05b260001b6153dd565b6167457f112289d07b1152c263915e888ef487d4d8885ce824e2d55b2cb6669f6642d7f160001b6153dd565b682b5e3af16b1880000081019050616785565b6167847fe8b34c3e3d49638df8de9456cd63e124667dd843906ea9f8ee14e2ce321e254a60001b6153dd565b5b6167b17ff82a94d46fcd7c9f1820289fd90f20ae33d1d493fbb00e7f6ba6abc237fbe41860001b6153dd565b6167dd7f5ac5ef8e9713b3c5c621dee821e1e2c1a6b84179fb1577d53c349960b0fd4e1860001b6153dd565b690127fa27722cc06cc5e283126168fe5761681a7f6f6a886c84e94c8efb34a064ec83101adbccb0130259a0c9c9aeba966844d6b860001b6153dd565b6168467f0ae83707e3703e28a5aaf44fc171aeb9c3f9e213f4d3a340443aae5d10f9d8f460001b6153dd565b6168727fd06eaa9fab42ba2079c671a1215b3d318c47bcc5360f042352f800e81bfd106860001b6153dd565b690127fa27722cc06cc5e268056bc75e2d6310000084028161689057fe5b0592506168bf7fab572d90bfb9c124d9484929548ed41df1b8057da1528ac63c585fd764fc0bc960001b6153dd565b6168eb7f126ec8a75e70653075e105f551273140adfb3d0a38f2ba73601c089b2ba3ee9660001b6153dd565b6815af1d78b58c4000008101905061692b565b61692a7fac7710080525cd4b036f5e3e771adfee143ba94c2f34ccd1d9af4f55101d2e3160001b6153dd565b5b6169577fd8f529777bf3c5fad19f92c54e089886622c45276cc59f248c85b2114c58712b60001b6153dd565b6169837febaf06d46b7ac1bffa21896bc5a2e4d54e403aacb2c67b4c83ffe4a8de59dad660001b6153dd565b68280e60114edb805d038312616aa2576169bf7fd782e28bfef4a9aee46768d5a898a8b0852461da94f77afb0b1a0db126d689bb60001b6153dd565b6169eb7f0f892ff33b1681c024af2b7400894f7135f713c1141cccea1d0f7a48e196ea6060001b6153dd565b616a177f016709195c863ff2b6e7a8709c6403df4fcf9410cba64aea4ea52e315107efc860001b6153dd565b68280e60114edb805d0368056bc75e2d63100000840281616a3457fe5b059250616a637f8efbf0466f47ad7a3867b1aa6ada7ed9d3623d3e70e82363cfa48df94243b75960001b6153dd565b616a8f7f545cca4fcd599541ba46da759ff71fe69938d9f7b454fdf4c770c76de7c8def760001b6153dd565b680ad78ebc5ac620000081019050616acf565b616ace7fe6ae54cd7aba0dbef4ee458109eec68ead929bc09250ef073db32b5c40ee148d60001b6153dd565b5b616afb7fce07a9f05073e0fbb04c6eb3f77d3dc7cbe60907e588c3792204756a0d6c74c460001b6153dd565b616b277f9496378a269681a74128a3a0379e6d34b9a1d67d89b07397f49bd9d793dc274a60001b6153dd565b680ebc5fb417461211108312616c4657616b637fc5d2fc1e632def828074f9d3e7bc33ce191c750973ebd6e581678f99ade4fadd60001b6153dd565b616b8f7f4988499741126d3df189dc4867ffc24dbfbc0cdf3757d8c80222db07a5a4557860001b6153dd565b616bbb7fecc4cdc3d0d2bbb45def22474f21a421ed22ff3b870ca315df73a8d76d08754d60001b6153dd565b680ebc5fb4174612111068056bc75e2d63100000840281616bd857fe5b059250616c077f62f66c535864a306c6f871dbdd227a87145cc95a208ef1a546dfae46e1705a4d60001b6153dd565b616c337f5b19aba2b04fbe826218b1f623d7c42e19a8140f1794300b8fc9217288c9694960001b6153dd565b68056bc75e2d6310000081019050616c73565b616c727fbc7affa58390a36b001b871b8d6f69de575163c22b1a59cf1b7a4d4f85e682fd60001b6153dd565b5b616c9f7f0ee8c156418755aa10b12b56b4075d4dae20cb18ce0042a13fb452f02c81934260001b6153dd565b616ccb7fc0a6c3795d0b4f7bc8ec75193be9844d97db1520e3cb777e51e4f7791c89500860001b6153dd565b6808f00f760a4b2db55d8312616dea57616d077f6e23fc2df3ca2ee9baa68f1d4f62afc51ca655a1074afa909f3201e70e891f8a60001b6153dd565b616d337f4f05315a3b3fba0b6470b79e85dc91de2340145ad04d16d6969d25212f62f57a60001b6153dd565b616d5f7f741781695ec4e7df21f5189db5ad56a7aa7318155a7e730026330fe97afaf87a60001b6153dd565b6808f00f760a4b2db55d68056bc75e2d63100000840281616d7c57fe5b059250616dab7f279db3ffd3f4dd1be2a357620fdacc6e6deb6b5e71cc4e5c43b4a9410a05f80360001b6153dd565b616dd77f1c517488f9a09df6164abe953a6b6cc8adc9bcbd265287788e4776f4fa8917ef60001b6153dd565b6802b5e3af16b188000081019050616e17565b616e167f128acb01763d599d53d763ec99c5056f35e62c8294de29ba909da64fe55a685760001b6153dd565b5b616e437f47438626899ddae4ae4df845f95be06614408c9a9e4a94f0654c8f8cc44cb90060001b6153dd565b616e6f7f9d83783b28782547e736f3c8bef1ea97ff44c5737de1f3ff871fde5e435c5de060001b6153dd565b6806f5f17757889379378312616f8e57616eab7f1ba49dd74c222a2fbacd1a9671051d50e5049a5c6851391e0630c9e65aae9d4460001b6153dd565b616ed77ff6c87b67d510932081bb6b67e2e89f8bda85c25c3685ab4f00cb85920e893bee60001b6153dd565b616f037f36e669280932996637ebf415b2033e56ccf79f34e9275eb919dc02f4348aa32660001b6153dd565b6806f5f177578893793768056bc75e2d63100000840281616f2057fe5b059250616f4f7f3ba823a20a274f86c51e6da2a7b9ced7a9b02d3c2f2bc4eac60c65f4ee43d36460001b6153dd565b616f7b7f680b5be9b864a3215793eee1686780bf4de2feb1af1c045d11b74dedb4639d1860001b6153dd565b68015af1d78b58c4000081019050616fbb565b616fba7f641f4f142d168f008e5c4a8eb26b1ece3f09c0c5fcd152fbf243d5f03e27690b60001b6153dd565b5b616fe77f97238392f7dab2d4a38a1e8766a2f91dc7fc323f1c0b8799f39865d92645947d60001b6153dd565b6170137f46e21836a4624f05f470b0dac285147aeb030bfeb741790739d8dee386f87c9160001b6153dd565b6806248f33704b28660383126171315761704f7f746529c844954dbb560816e98110ff01413c1992b207c5d6f2ece35bdbddcb5260001b6153dd565b61707b7fa66b1a039aead98f4863ff8127d8f61dd7908e916bd82aee106a55698f12dee160001b6153dd565b6170a77fdbab046d8ed19cacf85d0bc9759bd8bdf43b38d2f3fabb52dde10067d6bfcf9c60001b6153dd565b6806248f33704b28660368056bc75e2d631000008402816170c457fe5b0592506170f37f0551d2027d1cd7234ca5d68eab1b648c336597f3a74c907cfbb4ebc6eba4d5d660001b6153dd565b61711f7f37344a9f97a81da97f5ba00450e8a23ff354c2421b31e528ffa110cc4db8a34460001b6153dd565b67ad78ebc5ac6200008101905061715e565b61715d7ff674a42d154cb66872ba9f79c8e7daa8a47135e28cb86287f53f06740d28e97760001b6153dd565b5b61718a7fa7c423bb0f8cf8830eab442eba3d4fafccf8cf1d2d6783e8b5454b13e5ed48a260001b6153dd565b6171b67febfa51e705881c3b2e2646e69a480fdd41f3db224dec81f2060c3e46f392380160001b6153dd565b6805c548670b9510e7ac83126172d4576171f27f1af473fbd540fdc463f8a19cc88164cecf0c207df6d35ee7c801f4fca82f5d1060001b6153dd565b61721e7f3bd02a93ecb637b9cdcc032e0c989b60e58ee886c0b84e5dec7747410baef6a560001b6153dd565b61724a7f1a4eb2af33cb0dc722803838e5f2cb41743b47e066aa6d5129f720c81e8b861c60001b6153dd565b6805c548670b9510e7ac68056bc75e2d6310000084028161726757fe5b0592506172967fb08f47db9f6818aaa5f6dd538ce1c206bec429d3d45ce83a0c3bc48ac2867db460001b6153dd565b6172c27f38b1e4cd02468c5fc8a3112c81c1cabe24a10ebb6dda491d3412e99469eae05e60001b6153dd565b6756bc75e2d631000081019050617301565b6173007fe1bc13ff6fb846b6aae88fe2abe49e653d3b866d7bc697cd9cc7e8956929923260001b6153dd565b5b61732d7f3d9bd3c418e5016f58b17d9b9a5a0ef229efdd2e10cec9b07d685858c903d1e760001b6153dd565b6173597f46b28d214e0c40e3e9e54d5faf34c8c5252981298d386e249d13a70a57a4d4d760001b6153dd565b600068056bc75e2d63100000840168056bc75e2d63100000808603028161737c57fe5b0590506173ab7f3dbebf6c9162591b4ebd33e30982a4a071b9aa6ac907568549984b69d7b97d9460001b6153dd565b6173d77fc2198d1c948b59bdfda1f1443f4529dda03e3bf76a49c4334577e262024507bf60001b6153dd565b600068056bc75e2d63100000828302816173ed57fe5b05905061741c7f8b328398f0bc3f3e114cc30bf414a9118f11c0c53b9607826adbf177d7234a6260001b6153dd565b6174487f23a957cfd7f2a895e23e72bcc64a67ca847eed7acbc47b30dcd33328f9ffd91260001b6153dd565b60008290506174797f75bc76e46db3d9980693392d8fbe0d80bfa1afe3e6406b3b7420f5ed6f9d2ef960001b6153dd565b6174a57f5e4f3ecc30d70c9e9225fa17def48f80d464a55ae8ca87ef8e015b2625a8e2f660001b6153dd565b60008190506174d67f9861061fa4e17fcd7477afb994b0f754fe0555623867e0db5114e9a84b0e381060001b6153dd565b6175027f0b81c6d481d565d1a5c32a6c452da8172217545a4a77846c606bb4104790397660001b6153dd565b68056bc75e2d631000008383028161751657fe5b0591506175457fe7cb73b74ee9f45f8e445ac52fc1919100dc1facd98e515cf01b35f4657b6e2960001b6153dd565b6175717f973151ec731d5453cf2b07002fc6d04a394c44be197ce37e5740d2c7a2d00aee60001b6153dd565b6003828161757b57fe5b05810190506175ac7f5853551f5603a6017955792df373d6912f222a2635139a0e449ea332cf449d0460001b6153dd565b6175d87f590e1c09210e851786c5660ce93eabad67c6ce708b76b93c7020b8f9df62056060001b6153dd565b68056bc75e2d63100000838302816175ec57fe5b05915061761b7fa09473f57235fb4e547c1df454d2250bce8cfd4c1307762bfa80bf8bcd13d71160001b6153dd565b6176477fd01404210437ad5a168e9010b09d02e8020957dba687f82bf2e2dabf228dfe5260001b6153dd565b6005828161765157fe5b05810190506176827ff6c70604248ac19a52cc438deb376ffdee8c76671b0854b3f277ba47782b6d3960001b6153dd565b6176ae7ff949ba52643cc6c78a8bd96d87f384ab359055e057da843c887498726926f0e160001b6153dd565b68056bc75e2d63100000838302816176c257fe5b0591506176f17f3e48e16f40e52c258a85b58f4a2049f09c90985f0af8cafb5995af5184b444d960001b6153dd565b61771d7f9b81c6cb4ad498deb2f942df5f1acfcecce4394094af2276c5cb241a475f051960001b6153dd565b6007828161772757fe5b05810190506177587f14ceb5f280509ac53ec01e498b76628182c763cdea88a3dd6c3fe0302f89b22e60001b6153dd565b6177847fa28acd8a1d51f8f00861a6ba1439782c53410423c9f1c9c5252ff9ee917b613760001b6153dd565b68056bc75e2d631000008383028161779857fe5b0591506177c77f0cb759739d9698314564435fda44c50f91e0c3edee52c8339fd524d2c703aef760001b6153dd565b6177f37f41eb74299bd88211996e23ea0cdc256302c89c23b2a812cd6a260d41a14d6cd460001b6153dd565b600982816177fd57fe5b058101905061782e7f5289bcf47dc32c4e7e226d31dedabec2da6841c9966cc6ea8456cffaa04800ec60001b6153dd565b61785a7f8a8c7823359f348dd6335d6d865df24fd35f446e45356a0ea82957b764e0292660001b6153dd565b68056bc75e2d631000008383028161786e57fe5b05915061789d7f2cfd648bc3944426a52aa7739c0344437314b2c41c2d473ff352f8c98aefe8ca60001b6153dd565b6178c97f76fca5d622e3a2d40c4ec29b2ab56c209f3abb25e430be9518e091190111822060001b6153dd565b600b82816178d357fe5b05810190506179047f17016eaa3f0c430baeace1b9b0aa07d72d34b8fcb445aeffba692833fe16e6ac60001b6153dd565b6179307f33f0ef55d351e7fdd7fa13a2376e75118c512c087450d7f2f20773ee5a8f3d0560001b6153dd565b6002810290506179627f549ddf4d2efa67d866330fa46c38f1d96c9c8006f727ab4c976d74fa649a71d360001b6153dd565b61798e7f57b16f52181747e1a9658401c64b43ba63512d00488614ef91db29c3b790a86260001b6153dd565b60648186018161799a57fe5b05955050505050505b919050565b60006179d67f8f9957956285fa36aaf574af5b32355302daeb041d9920de1237aeb9c5bd0fc560001b6153dd565b617a027f049adcef04ddf4d2d541f2ad2e7b0cb2e49f45ce33e82b917f39ce4661c56fb160001b6153dd565b617a2e7f31362ceff8fe74b0dac8c6d98041f46dce294d61d691bf77a6e3102e98a4960d60001b6153dd565b617a717ffffffffffffffffffffffffffffffffffffffffffffffffdc702bd3a30fc00008312158015617a6a575068070c1cc73b00c800008313155b6009613a73565b617a9d7feaec38791fef9244227a2ac9c89991aa9c3e6eda434a80233223b5eca079a5e960001b6153dd565b617ac97f0b54346d0dfe62f72284a3c75473334476d66c4469f11bcb760a40ae4cfb68bc60001b6153dd565b6000821215617b7c57617afe7f96954f28e83ef514a5a7abe216bcf324d3fdfbe3f6a18be7a718c53286e53b6d60001b6153dd565b617b2a7f463dbff911b02742b5684b523b26e12b3cdc3bd0501d3eb8f5afebc4c2def0af60001b6153dd565b617b567f40035bdb11894c0908058a5597e77e5553b40c454dc865283e53ce2e02f1445c60001b6153dd565b617b62826000036179a8565b670de0b6b3a7640000800281617b7457fe5b05905061987b565b617ba87f0f3836123227a0de7a4c4df6d4d4feca82c8bf770aa6e542a3a07616fe30614060001b6153dd565b617bd47fda299c831b49c4a6e67502e93408e9ecdd3f8985dc9c4240c853d17c9d85f9f660001b6153dd565b617c007f3e1263d6a747804fa9f1a51a9eb15d85064841e996125ef260e9dd251e41a88d60001b6153dd565b6000617c2e7f13df8400d288418b9029209525f41b317b2c4b9b82d6c4121ee38860550ecab660001b6153dd565b617c5a7f18be439d287dfd168580f3e3a36aeb782189558298466857798d7ede0327b8ef60001b6153dd565b6806f05b59d3b20000008312617d7457617c967f77b0d1d0dd6059a9e0d9f32111c24f76b9e9f87cbc63515acd5b75070e39756860001b6153dd565b617cc27f46d0ca777ee0ac966c329bf1cffe6853f6eda5cfd758fc88c99324ce6b4d501f60001b6153dd565b617cee7f8a2665721e1b356ce501effdadcce8aefbedf2eda207e46f87ec7348f89e809a60001b6153dd565b6806f05b59d3b200000083039250617d287f8ce0e0f632ba31c6974e75e11700c14fb1b5480bc715658835b1732ecabbe81860001b6153dd565b617d547fc46c62d44f13b1e633d72f26f59aa8fa3d140557cc5dd523ec18a4f8e9c6e9af60001b6153dd565b770195e54c5dd42177f53a27172fa9ec6302628270000000009050617f63565b617da07f4caa899a161097f7c15c9e40cd465eba2c7ea889d70a5f2b5372beba85aafbf960001b6153dd565b617dcc7fc11f2b0d6957b1ea63ff257484fd21f83d16757118c6f844938dd8e3fe169e5e60001b6153dd565b6803782dace9d90000008312617ed957617e087f77f1827cc40ee4278fd35816afd5b948d67bfd4bd8dede0ad4b3b65b704559bc60001b6153dd565b617e337e7472974ece765a6511ef28cb9b3cdb93509e7d3d6b2543a463b0fd9ea5eb6f60001b6153dd565b617e5f7f23a62202ad8d5e6af5db7371e1a41939fd3ef374184a95d95c542d6a0e02399160001b6153dd565b6803782dace9d900000083039250617e997f670b6e2b3acc0ad997eba051913b0d53edeffade5ee29432c993ddee9e9c030660001b6153dd565b617ec57fd1e64ae3de1aa103b81dd167c133e2e995786f074c540cc9f1836e91ac35d27c60001b6153dd565b6b1425982cf597cd205cef73809050617f62565b617f057f911480f5f1c126514d11fb5dcc18a411504dbc69e15a36c6b393ec241023762d60001b6153dd565b617f317f7d061d37609fc5aab6b42e38410857a1b5f5bc7b941c31475b6bf5144ac8b60260001b6153dd565b617f5d7f52cf895b816ba855b556bd2684e72ea44a744b4c358c564099eebd603098e16760001b6153dd565b600190505b5b617f8f7fbb8a60f80d3b49dc29a85e7433ce43927e70fa829704b97d288c7f7c3bde638f60001b6153dd565b617fbb7f86b7d3837b05095aacffb9f3c610a36ec43d94824b4d1b35f94c5bebb9a650ca60001b6153dd565b606483029250617fed7ff0a4f8500e88b232fab07586e1b2e87a8c7806bdb2ab1eb6efff6f85234386dc60001b6153dd565b6180197f1a5223336d59fc4292449a1e644e71d22ddc1b73c058d61ef4425f28b9d9d82660001b6153dd565b600068056bc75e2d6310000090506180537f8a0d2c3fe2867eabbb080a815408f474966a2424dfc32dd32f36eef73de606d060001b6153dd565b61807f7fc092be2a82cb76747d6baa54343af5168e18c341f67046d6bd33cc47ba1527e960001b6153dd565b68ad78ebc5ac6200000084126181a4576180bb7ffc88ed4b45c9517c657dcc21025aa285327fd6ed9106b840a22832815758776b60001b6153dd565b6180e77fdbda1f49372ce70b8d009669446d1650b9cf5e6efdca38bf7fa2a148ea49240e60001b6153dd565b6181137f32c60df886f45af987ef2eb53fd88e7e93f1dba954890d791b421cbb3fff276f60001b6153dd565b68ad78ebc5ac620000008403935061814d7fc05771c55ce6ddb14e1ba8c0fb104578f6e91c74367ddd069a2657be5e4642c960001b6153dd565b6181797fada9608e6f169e501d91db28c2af86e899704aafa89771ebdd011db05f69097760001b6153dd565b68056bc75e2d631000006e01855144814a7ff805980ff008400082028161819c57fe5b0590506181d1565b6181d07f100920b793e8e6f00887b4382e2dde747dd3366702b620b02cc16d3f6b6941a060001b6153dd565b5b6181fd7f772bebc08a73d0af3bd359ee45021ee9c1f7448e08e424cc43c5893b4e0f88f860001b6153dd565b6182297fb7f799aed614a91f2c04467d974a4393f0b3ed6fe1dc13433da4f6e9b263fd1860001b6153dd565b6856bc75e2d631000000841261834b576182657f1781ea8ce066eedcdd99bc5b0753cd1aa8081f4d8ca6456a341a9bd134dce99260001b6153dd565b6182917fa0030d8f855693f4a88849f53c4371f951e4c48a42c0f36cb49aa52f021543c660001b6153dd565b6182bd7f2b119df580aa19f713706ee6d4dc52a1d0a50fae26f20a71a49037fbae1c760d60001b6153dd565b6856bc75e2d631000000840393506182f77f43ffeface76e9414d9a189d09e296a0ddc6f449e81381261fce710fa508ed08360001b6153dd565b6183237f19a36337e3a11b47c83a025d282ee671c47dfdabf3ad16d3fe004cdd88cea06060001b6153dd565b68056bc75e2d631000006b02df0ab5a80a22c61ab5a70082028161834357fe5b059050618378565b6183777fe044f0923fe075d9ad4320a302314d74744dcefe6f0b58e6ef0e06381e888fb260001b6153dd565b5b6183a47f06a96c15493d3dcc9dda194a53b4a87ab1f3c607d23b16ea2c20c4a7d8ff72b960001b6153dd565b6183d07fd34a51bd6aaf179ccd334f382c76a8c37d8856e1b95fd68ac4b40c77c105cf5a60001b6153dd565b682b5e3af16b1880000084126184f05761840c7fb6d6edb87705138d8e1cbbc1dccbe061c1dadb180f7778f4cc726320b8d721c460001b6153dd565b6184387f7dd2e73e2c58ff529afe93484d2acb33083275bfebd91432cb697f91a7cf921f60001b6153dd565b6184647f0c32443a422d4f0750bb6961b94770ea095a571a7281bec1f34216b32693821960001b6153dd565b682b5e3af16b188000008403935061849e7fba6c0da1226274d7f2646ca9ed997ac6db472a9a08abcdee25772a9b08f9b2a360001b6153dd565b6184ca7feebc9ec539111233b16cb2a8932dc0a00e0b2a1aff3686af60cf5bea6e80f9ce60001b6153dd565b68056bc75e2d63100000693f1fce3da636ea5cf8508202816184e857fe5b05905061851d565b61851c7f766baf1e510161d499ddaafa4ec1ef27747f5c423e1ecdd6670356d80e04a53060001b6153dd565b5b6185497f799f2bdbd7f4e0bc3f4b6d1f6f2beec73f8580686b8d5fc3651c24574a3bd91a60001b6153dd565b6185757fe4cd49619c0294566c2d46190c85f3fe62eea8cdbb1b03a14cb056b1e57a05b960001b6153dd565b6815af1d78b58c4000008412618695576185b17f29fa92c76c94d1914b60f11e5875fbeeedb22eba504411034fcc00bd54172ac260001b6153dd565b6185dd7f3243e27afc5b94243b0635ec2e0ebc12b041bd5b79a0c582621f2fe6cef2cbf960001b6153dd565b6186097ff9f54d7a49e2a11e79efe2cabd1f89e7531eeddf7e4f5aa22f42be065f6e32cf60001b6153dd565b6815af1d78b58c400000840393506186437f6a40c31d583c08f45376066439d581c2340b4372733d735a75353a52b86ac13e60001b6153dd565b61866f7fbd043cd79c279cd983a2d9f6d4190b0c6ed186942ea9774e0f30c762b805268360001b6153dd565b68056bc75e2d63100000690127fa27722cc06cc5e282028161868d57fe5b0590506186c2565b6186c17f3657cbecab91716652db7e1f2f279e0e26f634574d49cd42aab7d54cca69735e60001b6153dd565b5b6186ee7f1460cdf97cc2100f3a7fe4186dac7874e887d297e6cd5b99a7a17a25d558637960001b6153dd565b61871a7f3dd3b92b58e40eee2f924ffdcd865c733594cbc86e02d507d6e1277ae942353060001b6153dd565b680ad78ebc5ac62000008412618839576187567f4acafdbeee4d9ce0d3e76772d7d1d21a0d2175b48ae517da8bdd1b6c4123ffd760001b6153dd565b6187827f01ceffe142409bf3cf5ebdc48936b3e68edd649cef6988200e942b078fa8106160001b6153dd565b6187ae7fd193243cbb4ae58aaf5634228de1bf49e4b2ce6298521d61e1532e746d51505660001b6153dd565b680ad78ebc5ac6200000840393506187e87fb1abf1fdaa834aa673887dfa355f14eb2e596e7b8a9d572289327c598c51a4f760001b6153dd565b6188147ff9e7d07a346f6f68c320597cec43fa2cc755b541a674906fd21c21aafc4ae2ae60001b6153dd565b68056bc75e2d6310000068280e60114edb805d0382028161883157fe5b059050618866565b6188657f15a137bff769aa084005ae4b5185bba69c84e202736211e54e38d758c378630660001b6153dd565b5b6188927f54fa7e0db86e78b6f70baf303bc90c991a2ececa8e484af9603310a5e0a82f0360001b6153dd565b6188be7fa74a830a9188aedb2c5ebbf412c1b50527bc908de936e66fc6d15779b0862ac460001b6153dd565b68056bc75e2d6310000084126189dd576188fa7f94c2c4dad617aa5d295e8e058b5810a56b8e5990c2f644e6a20a67b11a56910960001b6153dd565b6189267f34ceb71e2ffd34bf94bd706eb37886116cf408b82c4a97ad8bab881a1fe2958c60001b6153dd565b6189527f35bb01650e15cdd5e58989429564bbb99d90f8d717a7868fb74be63857be56b760001b6153dd565b68056bc75e2d631000008403935061898c7f5d746d42d995fc1a3a7b021610151bac375e5196a3424b0b9c7d55062ace124360001b6153dd565b6189b87f6ab7b1c5c9b345bdd310099bb00eebfbfdce48effb3e7b4a3a918bfc68976caf60001b6153dd565b68056bc75e2d63100000680ebc5fb417461211108202816189d557fe5b059050618a0a565b618a097f649bcdc9a6124206bc6f4f558b0fe825be2e4fabd08a68f6885d5e16db60c4fd60001b6153dd565b5b618a367fbe28433d286b1a92f09f1d13fd3684d7e6d7ce4c75466f707961f369aac35b8860001b6153dd565b618a627fb237c5955af52f1f9e51154d247bf874a84ff911c68abbbc1e815909aa6842e960001b6153dd565b6802b5e3af16b18800008412618b8157618a9e7f78e2c12d16d60b3b9d1648c8a691efe6713b9f163b75898faee3abebdf529e6160001b6153dd565b618aca7f9885c57261c446564481e425b772b7a21f7c629de9a4e25574d788feeb5d26dd60001b6153dd565b618af67f068bfc4e713ec324cecf3c04d42782773e433c703416d78738797ec0bc53ac8a60001b6153dd565b6802b5e3af16b188000084039350618b307fe166de5ee53dfed7de0f418a0134f2bd4046bf89aca9f58e331dfe144e64570f60001b6153dd565b618b5c7ff36facc54b0c45a4cdd31265bca2d4a5b26ee39c5be818a0c1132f978a4d303160001b6153dd565b68056bc75e2d631000006808f00f760a4b2db55d820281618b7957fe5b059050618bae565b618bad7fbaf1bf92327508cc7df7230285f7d84c785d62562b887f68683f3bad6f14735b60001b6153dd565b5b618bda7fb60aa888151c8f5e59244106f6570e0ad9394f262cf1959efe8b703e088478d660001b6153dd565b618c067f4d4eb5e3db9c55ac596df2c49a4dd6462202631599a9cde8d298939e9260fc3260001b6153dd565b68015af1d78b58c400008412618d2557618c427f52746123d569ff0dce2117a49dd8029ff2a0556c94649b748f5021909d5996a060001b6153dd565b618c6e7f61d22d5d4ac74eb55404ab7bcfd4013c0eb60d541ccbe94ecc016c290ac766f060001b6153dd565b618c9a7fc44a97d95720ad6b3ab8e5a8ce5caceae02d4ed5f57c3be2ff2def8b27ff59c760001b6153dd565b68015af1d78b58c4000084039350618cd47f8bc3891fa09ef84924f2421116ef6dbc96768850a0020d29fd12148c8bdefd5160001b6153dd565b618d007fcb35eb8810f8b9a056faf0bbe33e37713df7e78395e1da0ba74b93a68883a7dc60001b6153dd565b68056bc75e2d631000006806f5f1775788937937820281618d1d57fe5b059050618d52565b618d517fde281447284ff5e39f9945d5f341b1e10147e1ae5d7f740fe0eed826ca276f1c60001b6153dd565b5b618d7e7f6c3d7bad9c3490dd092874bcd6f2e0f9b7d3b95894caeb888e1ef9aec342f95a60001b6153dd565b618daa7f0343a1ad3d804c6e7e84510e004b2fbe93bdee6ab7aa3c168eb7c46421b2ab1e60001b6153dd565b600068056bc75e2d631000009050618de47fb1c86b3a416276cf9ec0725776ab2b10c3a6414585bccff416b13a18fee6654160001b6153dd565b618e107f31bff64911c48e5ab2826086c5c5c9225d05ccde14fb560f6f0974f3f6e8fabf60001b6153dd565b6000618e3e7ffccc57ca4e9d5d0d873419b8cfa6aa4916ea9ecc26f7b120ceb8e128a03280cc60001b6153dd565b618e6a7f0d23a18b74c4a7d94820921482993a1ea146e5326e121075b5b01a6921b729b260001b6153dd565b859050618e997f643509097630f7f84d1c332c9f26b00093c14152f6808b948529e4bc31718ad360001b6153dd565b618ec57f92a96b89af6d787c7e16806fffaa6eacc4c8270c8032582c7993085b7516b7f760001b6153dd565b8082019150618ef67f0d3e7688d35a3e4f18a2ac9c5e137b2bcbca51156d62b9c1aef39f050bd23fe660001b6153dd565b618f227ffbf9b36da344cf4186c8aec55015c83aac0654ac2dd2706d8bcb4586a264940560001b6153dd565b600268056bc75e2d6310000087830281618f3857fe5b0581618f4057fe5b059050618f6f7fc83f758d964329c7428a2d7d39d86de2c8f32519d290ab6943e27a7a34506aff60001b6153dd565b618f9b7ff3112ebf07c3b73909838fdf4df2e5bafce0e08e734cf7c503556079d77f0cb760001b6153dd565b8082019150618fcc7f3ee4467f1ef97da236e0a3e94eee40f464dc71bba64f885d0f8461d05874f08160001b6153dd565b618ff87f6096bc7ace726596002424a3b9e349a8e26344926f983e81d811725d059595b260001b6153dd565b600368056bc75e2d631000008783028161900e57fe5b058161901657fe5b0590506190457fecbff983fc5f8bcc0115f02595ed64027f0bf56e7223b6165fcce83f24aa04a760001b6153dd565b6190717f1d973605626beb85fa127c1aac089feb8e5d1e1d031b374bdfad6db82cafd3e760001b6153dd565b80820191506190a27f3cf5676020562e7ae61a7f95b1822221f16c38216592c67a516cb5b59ae91f2960001b6153dd565b6190ce7f469a69e535b4c592c46fc637936bf1b9411c9daf408778bf0b624aeeab1b2c9660001b6153dd565b600468056bc75e2d63100000878302816190e457fe5b05816190ec57fe5b05905061911b7f2abd7eea842b7cf43d79f60f9766c0a1a5d49c8fe0e7c20794913dc82fce914060001b6153dd565b6191477fc87a3ab179c80e70d643c8f1e361f4abba57753d7550aeb34db3be57fec3c1b860001b6153dd565b80820191506191787f0c9a86e308dba34d732c53e1e80dc897fd6afaa5dfbca2f765a1b5869506351a60001b6153dd565b6191a47f529eac863d5932d7551e5ea3725721d9910fde8a2a9e18a421bda514cd596e0660001b6153dd565b600568056bc75e2d63100000878302816191ba57fe5b05816191c257fe5b0590506191f17f9fe142665cc17d5153ec6d4282486114d4f6fdde213ef857db2bc6b450cb190f60001b6153dd565b61921d7fa3fb155142a78b479ccd9a568335885344c0d7436ead3aff5beb940a5359aa5c60001b6153dd565b808201915061924e7fbb653b470905eb3bd216408aa2097d9ef1d5d13fc803883032c1165297d2904e60001b6153dd565b61927a7f4c2935eb27af8fb030bc1df4c73cb0f54a80fa7280680a7e49aeafda4a2edd5c60001b6153dd565b600668056bc75e2d631000008783028161929057fe5b058161929857fe5b0590506192c77f152f42edadecb0e84c28cb9c9ee403fb83a4ef4c51d3a55718526a2dd488fcc360001b6153dd565b6192f37f3d49486f52a0303baba1e18b8066f9f573bccbf6f8abcf50af43d5e6ca39ee7660001b6153dd565b80820191506193247f5216e12e30a7d0b7e861fe5345aa633a512a1a049a357bcff95b2abfffef93c960001b6153dd565b6193507fc2f056702ba08acf68fe96447aa441560e13bd6ffe7e86e8473a78d115f486a160001b6153dd565b600768056bc75e2d631000008783028161936657fe5b058161936e57fe5b05905061939d7f821c119ab5c5636453c63fe757119ebf55fb85f599ec4fa8914997c951e2dae560001b6153dd565b6193c97fbe6ef66f4c6c70a908522c256095a42a4e77ce275ad686d412e98514da89a4b060001b6153dd565b80820191506193fa7f4ce84f4b2ffd61eae07abc068694640b29f212490d20df413ae72823a1d8f7a160001b6153dd565b6194267f6fa5d0f4d3035b33cd33b100022ce1bb2f1ca639b8dccac9d267b7650cd92d8e60001b6153dd565b600868056bc75e2d631000008783028161943c57fe5b058161944457fe5b0590506194737fbac27bcadd1484a8b4129bb47ffc304eb5055ba4e2767e7968db7cb00c43438260001b6153dd565b61949f7fc3c299941fa08473656a8b470755f6b458446b5bb2230c9ec938c9a62a28733260001b6153dd565b80820191506194d07f176c61c0309aee9295da8c4a5de9a0396328b41a48799e981f58e17049b46fc160001b6153dd565b6194fc7f29792597691b3b45f5bff6bd1b7789859f3f74a9d4b6df121910a5091266269260001b6153dd565b600968056bc75e2d631000008783028161951257fe5b058161951a57fe5b0590506195497f63bc6db288cadecce1de1c2c85e128bc860957bb267511b4cb2bd2fcb30b2b0d60001b6153dd565b6195757f7f87c9eafcaa36938d859d1ce3f7049028f3be11ea3cf238b7ad92f6ad58619a60001b6153dd565b80820191506195a67fce1082bc222ee400625197f4df7329a3cbcab300b9647c1f573e9c4f3fa491ec60001b6153dd565b6195d27ff3324d22851f2002242f05de4a8d66534aa653616c387bf5c20ff2e48c225f1260001b6153dd565b600a68056bc75e2d63100000878302816195e857fe5b05816195f057fe5b05905061961f7f25cfd0481ff5f5439112b1fa835816ebe92c7a107ea21dc39bd53ea814ec383e60001b6153dd565b61964b7f4147c7e14518a3cff420ccfef3ccbfdb4d445fd86637ff518933cb79ba49bf9260001b6153dd565b808201915061967c7f645f5193200f1f416d90c810f34b94bc454cc93690635dbf5d483a2c58d5137c60001b6153dd565b6196a87f86e770773a60f7501e716b21ef3cff25f7e8542b5f204bf997daa8204ca80ed260001b6153dd565b600b68056bc75e2d63100000878302816196be57fe5b05816196c657fe5b0590506196f57fd6b13f61a9f53583c9696341bfe484fba793bfa873f6c981fb0fa6b7bc042de460001b6153dd565b6197217f61ed18988d398a0aab3f610e2258b05662c9289106a0cdc44fadac519c2d200960001b6153dd565b80820191506197527f605a37354163776655d25cb4807bbdb3ca196c47d17b111304e7dc20a3551bc260001b6153dd565b61977e7f20845e0b12e8092e03f533f9c6c6256b72e5e04056dc51a4e4bdf4f06d697eb260001b6153dd565b600c68056bc75e2d631000008783028161979457fe5b058161979c57fe5b0590506197cb7fec397bb06417e8c0b0df999a994282899c1a2f5fd1821ac5fda7e777b71e9be560001b6153dd565b6197f77f4afa5a40803c43b40ef9691176cca1ed268e955877b56d2911a52d5f77271ef960001b6153dd565b80820191506198287f5a9b8037d83916b7d6c8b04117fd374551db89135725300a20e57294cc0718a260001b6153dd565b6198537e819bd57b18678e2afacca60ff5d5797d6e803e54977ebf02bb1cfb7a038a3360001b6153dd565b60648468056bc75e2d631000008486028161986a57fe5b05028161987357fe5b059450505050505b91905056fea264697066735822122091afa5db4cf2eccdf7e2515315a12254e216c3b9cd52d22851da4b251bd37ed564736f6c63430007010033",
  "linkReferences": {},
  "deployedLinkReferences": {}
}