{
  "_format": "hh-sol-artifact-1",
  "contractName": "MockWeightedMath",
  "sourceName": "contracts/balancer-core-v2/test/MockWeightedMath.sol",
  "abi": [
    {
      "inputs": [
        {
          "internalType": "uint256[]",
          "name": "balances",
          "type": "uint256[]"
        },
        {
          "internalType": "uint256[]",
          "name": "normalizedWeights",
          "type": "uint256[]"
        },
        {
          "internalType": "uint256[]",
          "name": "amountsOut",
          "type": "uint256[]"
        },
        {
          "internalType": "uint256",
          "name": "bptTotalSupply",
          "type": "uint256"
        },
        {
          "internalType": "uint256",
          "name": "swapFee",
          "type": "uint256"
        }
      ],
      "name": "bptInForExactTokensOut",
      "outputs": [
        {
          "internalType": "uint256",
          "name": "",
          "type": "uint256"
        }
      ],
      "stateMutability": "pure",
      "type": "function"
    },
    {
      "inputs": [
        {
          "internalType": "bytes32",
          "name": "c__0x1b889fc3",
          "type": "bytes32"
        }
      ],
      "name": "c_0x1b889fc3",
      "outputs": [],
      "stateMutability": "pure",
      "type": "function"
    },
    {
      "inputs": [
        {
          "internalType": "bytes32",
          "name": "c__0xd51ccb66",
          "type": "bytes32"
        }
      ],
      "name": "c_0xd51ccb66",
      "outputs": [],
      "stateMutability": "pure",
      "type": "function"
    },
    {
      "inputs": [
        {
          "internalType": "uint256",
          "name": "balance",
          "type": "uint256"
        },
        {
          "internalType": "uint256",
          "name": "normalizedWeight",
          "type": "uint256"
        },
        {
          "internalType": "uint256",
          "name": "previousInvariant",
          "type": "uint256"
        },
        {
          "internalType": "uint256",
          "name": "currentInvariant",
          "type": "uint256"
        },
        {
          "internalType": "uint256",
          "name": "protocolSwapFeePercentage",
          "type": "uint256"
        }
      ],
      "name": "calculateDueTokenProtocolSwapFeeAmount",
      "outputs": [
        {
          "internalType": "uint256",
          "name": "",
          "type": "uint256"
        }
      ],
      "stateMutability": "pure",
      "type": "function"
    },
    {
      "inputs": [
        {
          "internalType": "uint256",
          "name": "tokenBalance",
          "type": "uint256"
        },
        {
          "internalType": "uint256",
          "name": "tokenNormalizedWeight",
          "type": "uint256"
        },
        {
          "internalType": "uint256",
          "name": "bptAmountIn",
          "type": "uint256"
        },
        {
          "internalType": "uint256",
          "name": "bptTotalSupply",
          "type": "uint256"
        },
        {
          "internalType": "uint256",
          "name": "swapFee",
          "type": "uint256"
        }
      ],
      "name": "exactBPTInForTokenOut",
      "outputs": [
        {
          "internalType": "uint256",
          "name": "",
          "type": "uint256"
        }
      ],
      "stateMutability": "pure",
      "type": "function"
    },
    {
      "inputs": [
        {
          "internalType": "uint256[]",
          "name": "currentBalances",
          "type": "uint256[]"
        },
        {
          "internalType": "uint256",
          "name": "bptAmountIn",
          "type": "uint256"
        },
        {
          "internalType": "uint256",
          "name": "totalBPT",
          "type": "uint256"
        }
      ],
      "name": "exactBPTInForTokensOut",
      "outputs": [
        {
          "internalType": "uint256[]",
          "name": "",
          "type": "uint256[]"
        }
      ],
      "stateMutability": "pure",
      "type": "function"
    },
    {
      "inputs": [
        {
          "internalType": "uint256[]",
          "name": "balances",
          "type": "uint256[]"
        },
        {
          "internalType": "uint256[]",
          "name": "normalizedWeights",
          "type": "uint256[]"
        },
        {
          "internalType": "uint256[]",
          "name": "amountsIn",
          "type": "uint256[]"
        },
        {
          "internalType": "uint256",
          "name": "bptTotalSupply",
          "type": "uint256"
        },
        {
          "internalType": "uint256",
          "name": "swapFee",
          "type": "uint256"
        }
      ],
      "name": "exactTokensInForBPTOut",
      "outputs": [
        {
          "internalType": "uint256",
          "name": "",
          "type": "uint256"
        }
      ],
      "stateMutability": "pure",
      "type": "function"
    },
    {
      "inputs": [
        {
          "internalType": "uint256",
          "name": "tokenBalanceIn",
          "type": "uint256"
        },
        {
          "internalType": "uint256",
          "name": "tokenWeightIn",
          "type": "uint256"
        },
        {
          "internalType": "uint256",
          "name": "tokenBalanceOut",
          "type": "uint256"
        },
        {
          "internalType": "uint256",
          "name": "tokenWeightOut",
          "type": "uint256"
        },
        {
          "internalType": "uint256",
          "name": "tokenAmountOut",
          "type": "uint256"
        }
      ],
      "name": "inGivenOut",
      "outputs": [
        {
          "internalType": "uint256",
          "name": "",
          "type": "uint256"
        }
      ],
      "stateMutability": "pure",
      "type": "function"
    },
    {
      "inputs": [
        {
          "internalType": "uint256[]",
          "name": "normalizedWeights",
          "type": "uint256[]"
        },
        {
          "internalType": "uint256[]",
          "name": "balances",
          "type": "uint256[]"
        }
      ],
      "name": "invariant",
      "outputs": [
        {
          "internalType": "uint256",
          "name": "",
          "type": "uint256"
        }
      ],
      "stateMutability": "pure",
      "type": "function"
    },
    {
      "inputs": [
        {
          "internalType": "uint256",
          "name": "tokenBalanceIn",
          "type": "uint256"
        },
        {
          "internalType": "uint256",
          "name": "tokenWeightIn",
          "type": "uint256"
        },
        {
          "internalType": "uint256",
          "name": "tokenBalanceOut",
          "type": "uint256"
        },
        {
          "internalType": "uint256",
          "name": "tokenWeightOut",
          "type": "uint256"
        },
        {
          "internalType": "uint256",
          "name": "tokenAmountIn",
          "type": "uint256"
        }
      ],
      "name": "outGivenIn",
      "outputs": [
        {
          "internalType": "uint256",
          "name": "",
          "type": "uint256"
        }
      ],
      "stateMutability": "pure",
      "type": "function"
    },
    {
      "inputs": [
        {
          "internalType": "uint256",
          "name": "tokenBalance",
          "type": "uint256"
        },
        {
          "internalType": "uint256",
          "name": "tokenNormalizedWeight",
          "type": "uint256"
        },
        {
          "internalType": "uint256",
          "name": "bptAmountOut",
          "type": "uint256"
        },
        {
          "internalType": "uint256",
          "name": "bptTotalSupply",
          "type": "uint256"
        },
        {
          "internalType": "uint256",
          "name": "swapFee",
          "type": "uint256"
        }
      ],
      "name": "tokenInForExactBPTOut",
      "outputs": [
        {
          "internalType": "uint256",
          "name": "",
          "type": "uint256"
        }
      ],
      "stateMutability": "pure",
      "type": "function"
    }
  ],
  "bytecode": "0x60806040523480156200001157600080fd5b506198b780620000226000396000f3fe608060405234801561001057600080fd5b50600436106100c95760003560e01c80635678537111610081578063c2546cc31161005b578063c2546cc3146108cb578063e972a74014610935578063fab3b9d714610963576100c9565b806356785371146104f95780635b55b24a1461065957806398f59bca146106c3576100c9565b80632533d840116100b25780632533d840146102595780632e752149146102875780634b114ddf1461048f576100c9565b80631b02e9a8146100ce5780631c855fa614610138575b600080fd5b610122600480360360a08110156100e457600080fd5b8101908080359060200190929190803590602001909291908035906020019092919080359060200190929190803590602001909291905050506109cd565b6040518082815260200191505060405180910390f35b6102026004803603606081101561014e57600080fd5b810190808035906020019064010000000081111561016b57600080fd5b82018360208201111561017d57600080fd5b8035906020019184602083028401116401000000008311171561019f57600080fd5b919080806020026020016040519081016040528093929190818152602001838360200280828437600081840152601f19601f8201169050808301925050505050505091929192908035906020019092919080359060200190929190505050610a6b565b6040518080602001828103825283818151815260200191508051906020019060200280838360005b8381101561024557808201518184015260208101905061022a565b505050509050019250505060405180910390f35b6102856004803603602081101561026f57600080fd5b8101908080359060200190929190505050610b05565b005b610479600480360360a081101561029d57600080fd5b81019080803590602001906401000000008111156102ba57600080fd5b8201836020820111156102cc57600080fd5b803590602001918460208302840111640100000000831117156102ee57600080fd5b919080806020026020016040519081016040528093929190818152602001838360200280828437600081840152601f19601f8201169050808301925050505050505091929192908035906020019064010000000081111561034e57600080fd5b82018360208201111561036057600080fd5b8035906020019184602083028401116401000000008311171561038257600080fd5b919080806020026020016040519081016040528093929190818152602001838360200280828437600081840152601f19601f820116905080830192505050505050509192919290803590602001906401000000008111156103e257600080fd5b8201836020820111156103f457600080fd5b8035906020019184602083028401116401000000008311171561041657600080fd5b919080806020026020016040519081016040528093929190818152602001838360200280828437600081840152601f19601f8201169050808301925050505050505091929192908035906020019092919080359060200190929190505050610b08565b6040518082815260200191505060405180910390f35b6104e3600480360360a08110156104a557600080fd5b810190808035906020019092919080359060200190929190803590602001909291908035906020019092919080359060200190929190505050610ba6565b6040518082815260200191505060405180910390f35b6106436004803603604081101561050f57600080fd5b810190808035906020019064010000000081111561052c57600080fd5b82018360208201111561053e57600080fd5b8035906020019184602083028401116401000000008311171561056057600080fd5b919080806020026020016040519081016040528093929190818152602001838360200280828437600081840152601f19601f820116905080830192505050505050509192919290803590602001906401000000008111156105c057600080fd5b8201836020820111156105d257600080fd5b803590602001918460208302840111640100000000831117156105f457600080fd5b919080806020026020016040519081016040528093929190818152602001838360200280828437600081840152601f19601f820116905080830192505050505050509192919290505050610c44565b6040518082815260200191505060405180910390f35b6106ad600480360360a081101561066f57600080fd5b810190808035906020019092919080359060200190929190803590602001909291908035906020019092919080359060200190929190505050610cdc565b6040518082815260200191505060405180910390f35b6108b5600480360360a08110156106d957600080fd5b81019080803590602001906401000000008111156106f657600080fd5b82018360208201111561070857600080fd5b8035906020019184602083028401116401000000008311171561072a57600080fd5b919080806020026020016040519081016040528093929190818152602001838360200280828437600081840152601f19601f8201169050808301925050505050505091929192908035906020019064010000000081111561078a57600080fd5b82018360208201111561079c57600080fd5b803590602001918460208302840111640100000000831117156107be57600080fd5b919080806020026020016040519081016040528093929190818152602001838360200280828437600081840152601f19601f8201169050808301925050505050505091929192908035906020019064010000000081111561081e57600080fd5b82018360208201111561083057600080fd5b8035906020019184602083028401116401000000008311171561085257600080fd5b919080806020026020016040519081016040528093929190818152602001838360200280828437600081840152601f19601f8201169050808301925050505050505091929192908035906020019092919080359060200190929190505050610d7a565b6040518082815260200191505060405180910390f35b61091f600480360360a08110156108e157600080fd5b810190808035906020019092919080359060200190929190803590602001909291908035906020019092919080359060200190929190505050610e18565b6040518082815260200191505060405180910390f35b6109616004803603602081101561094b57600080fd5b8101908080359060200190929190505050610eb6565b005b6109b7600480360360a081101561097957600080fd5b810190808035906020019092919080359060200190929190803590602001909291908035906020019092919080359060200190929190505050610eb9565b6040518082815260200191505060405180910390f35b60006109fb7fe0c4cb8f5cad269c9ab2de9c6b977f3cd1fbdf3e955a36d71f18b96642563dbb60001b610b05565b610a277fcd2837db6e552df109e0bcaf08d8438dc4c5103e7910ded2fa9d71e117ebee6160001b610b05565b610a537f84fc6d1b00df1b85bc0fce2570a07f1d4867352c8f6ef82900856a6e3907765260001b610b05565b610a608686868686610f57565b905095945050505050565b6060610a997fd21390b362b69863959f0f79465337fe44ed437e29368dcd5a1b4a51f05e6e9460001b610b05565b610ac57f29f28e4ff8629903c5b6ed4dd206822b14ea788e2fa23e0040c4737ce511dd7960001b610b05565b610af17f876ed6c7dc0cc4f1a94854756124f228c219a06b68f976be549bc8e828c16de360001b610b05565b610afc848484611256565b90509392505050565b50565b6000610b367f363e82c605e9e05d25abb66ecff94cbe61918473c3646de389a7ebbde7b4940d60001b610b05565b610b627fe3a42ce77d7d03ca7a4092fc640601caf97699d5152a469e5036a09fb9da738060001b610b05565b610b8e7fa405bdb1e24a731377ccddb490e64a72777f07cfe6e0b9013de706ac356cbc1a60001b610b05565b610b9b8686868686611503565b905095945050505050565b6000610bd47f12e2e360e5b7c015b6997e5b829e85898797a62b07f9e8bcd8a5fd3a0ddceca260001b610b05565b610c007f9764bc26c8db3aed33231e116c7b6edb3e604c16aabef4a9a7a0896443ba919560001b610b05565b610c2c7f72e206f5d8e5cfc0a23749c50c9f4d6d06dcbb6c1220664e2f4eb0cf3a90a24360001b610b05565b610c398686868686611f2f565b905095945050505050565b6000610c727f9b13f8481bc01695147b438c21a2d4d2c2543ceec10401b48f752509c68ed34260001b610b05565b610c9e7f5e31581c3b55f5ea879e03b8d14ebea46cbfcbf6280ea394a53966fa1e6cc82860001b610b05565b610cca7f2f58bca2eb724adfd68e7f83280b784ee322e906f90dae4289cb3d3d442ba3b060001b610b05565b610cd4838361221c565b905092915050565b6000610d0a7fa145ffd1c6d4949aaabab2c928c7676983c5db34f5da0a629d40ced94c46b3b660001b610b05565b610d367fefa346018185a3a4c32124af834a69972f93f753a3c701bfd037599e633863db60001b610b05565b610d627fedee68afe94aaabf76fd8fa9f9b87a2b93cfffd65b86ddf978ff84ad6aea1df960001b610b05565b610d6f8686868686612431565b905095945050505050565b6000610da87f9b1451fb4b47f9313371a9f5533f4001556eb6a13405dfd62235f68176cc2d7d60001b610b05565b610dd47f047e92f829149e6ff10140fee07b72295ebae660b76bae0f4db851fb77bc0b5a60001b610b05565b610e007f282875971fa56ba0dc608d9c95d210ce52c1ebcb8bab5cd2cfc50948ee5133c960001b610b05565b610e0d8686868686612828565b905095945050505050565b6000610e467fe053a1a237855f84b4481d6695a0b35774cd70347b59876878b7661bd6629b9a60001b610b05565b610e727fdb9d2faa6069510980cc1a596fa7da2d41d28c00bcb1ec42b6120d6c6fd45b3560001b610b05565b610e9e7f64e5493caa33a3a8cc29ec9b5e89297db276d10264993165753bcda75ccb33e960001b610b05565b610eab86868686866130fa565b905095945050505050565b50565b6000610ee77fe6607dff0475063b3cb93f5fe261e16b05b26be6e094c2579e5d4ab2199e57fb60001b610b05565b610f137f97401d6411af224f6934beb85804dbd7b45cc9f406dc0db2bea421c496b82afa60001b610b05565b610f3f7fa4970c8ebe1112cab94ba80a4b6e041d78c635c838b0373845d70a8a050d5fac60001b610b05565b610f4c8686868686613503565b905095945050505050565b6000610f857fe5979ab3fa4ac08751180123eedbc301dc75213bf320a978fa28fbcbedec092260001b610eb6565b610fb17f98fa8f0abf1a7064cc8461988f63078342977c155d12e2c493a8b52f1ee3c43860001b610eb6565b610fdd7f14a2bd556b94c372fff7074e6d6b1b23711f8521c15bf95883be36ee0b39c08160001b610eb6565b611006610ffb670429d069189e0000866138fc90919063ffffffff16565b831115610131613a75565b6110327f62583057b60955e5a2a234c80e24945d37fcddfa215c4869795dbeaa3e4683b060001b610eb6565b61105e7fd8ad07db81598d25362e52c35cdb0018f942a43f066af13214eaca7e4757031b60001b610eb6565b60006110856110768487613a8890919063ffffffff16565b86613bdd90919063ffffffff16565b90506110b37ff0e1f09a382e022c7ac262b040d951153f0f899692c142652b618feb06ee193260001b610eb6565b6110df7f4715310273f188ffa3eaedcb5e2dd6058e63795875466256d02d63e3bb6dd6e660001b610eb6565b60006110f48786613bdd90919063ffffffff16565b90506111227f263dca47687c4f87b89f4bafd5ad9a1157e57a9e3f513e371b09b52d6680f3ab60001b610eb6565b61114e7f8a0e3e68ea9757b0a0cc429a384229c26aec9b6310a239208bd0199238d5674860001b610eb6565b60006111638284613edb90919063ffffffff16565b90506111917f8d038c404be8a4409562b06392f0b886eaa5e600415b1cae839eae403853754460001b610eb6565b6111bd7f96687e78c30d6bbc694d40371fe4dba1c92e6f16f21863f160a23c6e2db3171d60001b610eb6565b60006111da670de0b6b3a764000083613a8890919063ffffffff16565b90506112087fa35a0c1d73d6a675ea41200b3aed4c7ac09704ed29009415766aad67a604c4c160001b610eb6565b6112347f14ed76c05a47fe265c34334b99ba9b3725117d270db8df864b140d8f3f3e5b3060001b610eb6565b611247818b61404d90919063ffffffff16565b94505050505095945050505050565b60606112847fb1e807b937c4dd813688b9ae979ed0815a7134bf2159d29721ba42d2457f803160001b610eb6565b6112b07fc3602c4ba635ff7b82e3c5e5cf3b6ac796783f4fc34d592ce0ab48a4e93d4d4160001b610eb6565b6112dc7f3b5c85e1390e46b9bd89c98ea781ddbb6dae6deaca3276a8fa5ad2586986f30660001b610eb6565b60006112f183856142e890919063ffffffff16565b905061131f7f1c01d97612dc100747054fa24716dee87b9bec5263f3a93620697305fbfe73de60001b610eb6565b61134b7f7ccca8a5ef8eb6f71681f0ae5317a70c3632e04562218899f8ae3cbee7bc179d60001b610eb6565b6060855167ffffffffffffffff8111801561136557600080fd5b506040519080825280602002602001820160405280156113945781602001602082028036833780820191505090505b5090506113c37f9a71a7f03e378886d322b8dbf87dce13db2598062cd5a81215909786c8a6d28060001b610eb6565b6113ef7f6251578eb30d135fd749d8eb1b460cfab573d19652c0632b8bc8ca9972dad99f60001b610eb6565b60005b865181101561149e576114277fbd1597c36164e620de88022ac701e9902ff73a4c6ee7fcf1320802d35cc8547f60001b610eb6565b6114537f2a4b25d64e1c9bf9dd076d01f0b48dbf9cd2d654ef245c23d0cc7d618427897160001b610eb6565b6114798388838151811061146357fe5b60200260200101516138fc90919063ffffffff16565b82828151811061148557fe5b60200260200101818152505080806001019150506113f2565b506114cb7f80b9550fcd87ce146599774e271b365142d75fb873404e906cd5c349645139db60001b610eb6565b6114f77f7de3aac440af5dc816518c87acdf006c12d371af4804bba8f0f511c7445828c360001b610eb6565b80925050509392505050565b60006115317f7eb9be3c1534081788cc24d299e8b65cf67c8ade5418b5d08780467b3959d26660001b610eb6565b61155d7fc4a0d7b2b3288598e1b3010fcf1bad85d12b21c7be855c3288f75e9888aeeda660001b610eb6565b6115897f746f34b045b4eee1952ba65eb6b7f85eeaec6a738464956514c86495d81e145560001b610eb6565b6060845167ffffffffffffffff811180156115a357600080fd5b506040519080825280602002602001820160405280156115d25781602001602082028036833780820191505090505b5090506116017f77ed2efdb94174a5627de4610477ea355e09d7b40b47a00a3f8d78037ad82cad60001b610eb6565b61162d7f524291cb3aa2185f77a72ba059f32492afc542a90f0d70811738de33b02ec45160001b610eb6565b600061165b7fd52bb03ecfdf89ef30ec80f5571a7255a6a6f388554155defc30cf118add3e3560001b610eb6565b6116877f11f0141f13718f4307ff5d059ce12fa8e2900b34697f0ff0bfa32dc818c4d0fb60001b610eb6565b60005b8851811015611813576116bf7fb95f1908637ede6e496a928f650d7bfde76d8b9f0609d2cdab9324a3fb7e075260001b610eb6565b6116eb7ffdd694f8839df810538d236e2cc8051c3e86a2cc7fa3b3e9e99024a023db8a1060001b610eb6565b6117498982815181106116fa57fe5b602002602001015161173b89848151811061171157fe5b60200260200101518c858151811061172557fe5b60200260200101516145e090919063ffffffff16565b6142e890919063ffffffff16565b83828151811061175557fe5b60200260200101818152505061178d7fb8fae5f52a9da845ef9e702f91fd178efd45858f5f129092cfc9d2bfef12eadb60001b610eb6565b6117b97f1000c20627c864669510f0543da247225c6760588ed4a20de1dd713330b1f9ed60001b610eb6565b6118046117f58983815181106117cb57fe5b60200260200101518584815181106117df57fe5b60200260200101516138fc90919063ffffffff16565b836145e090919063ffffffff16565b9150808060010191505061168a565b506118407f1e246118b770fc8deaa46553538c4106b900e9e35befde1cebbca8fd35e607da60001b610eb6565b61186c7fea523fcc9a54e6904975463260c03a5915f403e1c903420fc51eb2a8f296379060001b610eb6565b6000670de0b6b3a764000090506118a57f4db2ca3b50f2cf711bc902a68418ba52d9ded67014141625e55a68469c4d3f9460001b610eb6565b6118d17fd742a34c38d89717c19ce496c1d583341af849111afc540cd935c43e9b87175d60001b610eb6565b60005b8951811015611d77576119097f769c4601ae768b4a3ca3ebdb1361abb85302adf196e78a8303f940d91bb1c5e660001b610eb6565b6119357fc763b1b996af29e3bbb536213317f511487247a0cfeb920fcb84119db33636bb60001b610eb6565b60006119637f4521cc2292d0922c18aaa0b835b8f5c71b138d83f29c5f86e96dfbb44d5c1c1a60001b610eb6565b61198f7fec3fea5db72b609c048b10fd0f83577c41fb08f4385f66e6f085d443c097ca7860001b610eb6565b8385838151811061199c57fe5b60200260200101511115611b94576119d67f91546f39259a63905e59d0dfe2df949a5bf83cff7fe262d53b53b86c961d59ba60001b610eb6565b611a027f80538aff9299e168f126f52eae706f3d09bf4a379c131ba2a0fb2e82647e930f60001b610eb6565b611a2e7f48d8da206e9aaf4c340628f6cf04e43396252c3d04a9325ea8047e8ae72912f560001b610eb6565b6000611a70611a4e670de0b6b3a764000087613a8890919063ffffffff16565b8d8581518110611a5a57fe5b60200260200101516138fc90919063ffffffff16565b9050611a9e7fc0ca01b1c9f1e21c1c9988b5dd6d8d21f70f42d4e734c8d809528c3fc6d7556660001b610eb6565b611aca7ff762c1af6493e002f57f5a23bdbdb5abb749daa1f7d1e8bce80d5179f83f37e960001b610eb6565b6000611af2828c8681518110611adc57fe5b6020026020010151613a8890919063ffffffff16565b9050611b207fb327a2f3d78dfe765dd8f56482c48861af8c7b66008d2673c686d5d4f212be7560001b610eb6565b611b4c7fec33de8fb0617e88aff720d2a4abb546c8558ac64c4c1b3d371e5b5551c858bb60001b610eb6565b611b8b611b7c611b6d8b670de0b6b3a7640000613a8890919063ffffffff16565b836138fc90919063ffffffff16565b836145e090919063ffffffff16565b92505050611c2f565b611bc07fe8945ea4ee4cb57625e7f294db852988a8b208382f1f431e410dba74d5a256dd60001b610eb6565b611bec7fcd8584ab6198363be540597e27d7e5395b6fb4e53e928bfd16219460e1e7c38260001b610eb6565b611c187f2ce0a9f7f953732e5649f671bcb6bdb0d65bbb4165cbf48c9133731bf09e583360001b610eb6565b888281518110611c2457fe5b602002602001015190505b611c5b7f4b5af8a794df96513bfb65d0599b4e5a7caa392552e532631d26d52eef15be3960001b610eb6565b611c877fbade6d213b27b82270c7f995ddc99ce238a443edc783b82aba640a5a8b3409b360001b610eb6565b6000611cd48c8481518110611c9857fe5b6020026020010151611cc6848f8781518110611cb057fe5b60200260200101516145e090919063ffffffff16565b6142e890919063ffffffff16565b9050611d027f7cc4af574a5ece999d29b9d1fa76c04ba9bf9c596dabb8a1c0c7a52cf4ece8c160001b610eb6565b611d2e7f70472885f0feb73bd27e516038551b912df1e88992d9d89b6f52f0ad88cf7bda60001b610eb6565b611d66611d578c8581518110611d4057fe5b60200260200101518361473590919063ffffffff16565b856138fc90919063ffffffff16565b9350505080806001019150506118d4565b50611da47fac8ce77947f7137c79f708db9ecc7df6754568c16424dbed31494b29fbd16c2260001b610eb6565b611dd07f29e28796a8c268224079eae95086d8139d313ee0725c958c1b071ce8aa37b80c60001b610eb6565b670de0b6b3a76400008110611e9a57611e0b7fb849567bd95bdd285e8ffe2243499e2febeec17a598d36d57f073a6ec2e50ab660001b610eb6565b611e377fd40392c8bcafabcde511ff960b8745d7ecbfd874f63e76a49d5ee516044bc83e60001b610eb6565b611e637feb66fb9605f368bc86017a5e6c85b2c3b2f1fdeffc8ca16da469ed30c76e9ddb60001b610eb6565b611e90611e81670de0b6b3a764000083613a8890919063ffffffff16565b876138fc90919063ffffffff16565b9350505050611f26565b611ec67f43895df9fa30e7fa67c1ba19cb1b713c7a66926996207499fb6bd20bb5c7c37a60001b610eb6565b611ef27f24c1ca4f25a9c930aebdb6973732cfd2e0c3b4af82870157b9fa613d201fbbdc60001b610eb6565b611f1e7fd9ee1bfd9b773abe56035addebedf868504a4b936aa6d176e6d3d37f356d849260001b610eb6565b600093505050505b95945050505050565b6000611f5d7f4211931e53dd15d5f897358d82ab0fd12e76b5c478dd0438b1e10519dfee0f9660001b610eb6565b611f897f5ebef029f0eac4f3aeeca3049b4192cd27e1572d6b0f48d102d52206ed69de8c60001b610eb6565b611fb57f333f6b640845dc58df153a7615e777c531335d428b14c1609d7ba09618330b5a60001b610eb6565b611fde611fd3670429d069189e0000886138fc90919063ffffffff16565b831115610130613a75565b61200a7fa18a10d329069c426b5cdb7d12b6a70790de42ecc3053a53cf7ecaf7920915c760001b610eb6565b6120367f142b7bf7bff9da4914c7811734f2598ce98b4206ecbad023f3df8d25aebaa2a060001b610eb6565b600061204b83886145e090919063ffffffff16565b90506120797faec089ddffa2507bd9dd723d3f2d052405c6132327400fb541a17d415a756feb60001b610eb6565b6120a57f99c782e62b11188512a447127b00612b317ee8d79c045b19979f22c04cdb89ce60001b610eb6565b60006120ba8289613bdd90919063ffffffff16565b90506120e87fe16505b34c18fec6250708757a135ab4f3ab127dd2cbccc6a6f174ffe48a5c9660001b610eb6565b6121147f45f00bff718266a1c0ad616851d3c95ab308130442379de10ab68843ac5a740a60001b610eb6565b600061212986896142e890919063ffffffff16565b90506121577f4c16600f3c06f8e33e216b56ac9a15d415c3437fb83788bd72bc4795381ecbbf60001b610eb6565b6121837f06562af00d3e7ade5d515cf3dd6a62ff58880ace6fd19a6441de2fc9f4cbfdb860001b610eb6565b60006121988284613edb90919063ffffffff16565b90506121c67f74fd45c4989ffd4a093a27e6f3a1e8e4babd0cf3c27f3e66cfe94fc392e2f3ef60001b610eb6565b6121f27f5fd457e7a563f794012ac48b872cf45f243e2ff97bdd4cb810d0d29e8f62fee060001b610eb6565b61220d6121fe826149c3565b896138fc90919063ffffffff16565b94505050505095945050505050565b600061224a7f07322d544c4e775fcf8373fdb922d15ab11a99df57bf4053f1ddc11803a8193c60001b610eb6565b6122767f072849f49d0d82e46a64de0a26143778190af4484cf8b770df9033921f45a78660001b610eb6565b6122a27f403a7f434d63c70b64fcd6d9764d01d1c4a94104c65c387217a50d7644a502e860001b610eb6565b670de0b6b3a764000090506122d97fc9888952abc217e38fee955d13fb1f414485d7d4ed8986c7f01f7fe03ef9cb8360001b610eb6565b6123057fa67248fd6d43fa5c685b20206023e84761b3b4aeab5ac8e4e8547d18559b475b60001b610eb6565b60005b83518110156123c35761233d7f19fe295d9b283db35203df09bb3c638c88719538e7f7a953f263a89d1f6e8a3360001b610eb6565b6123697f6033809153cdc08b170dccee9159960306ad936dc4c73c7041e3f42c2cf5b45960001b610eb6565b6123b46123a585838151811061237b57fe5b602002602001015185848151811061238f57fe5b602002602001015161473590919063ffffffff16565b836138fc90919063ffffffff16565b91508080600101915050612308565b506123f07f7d0a64eaaf5ee7cdbbed58e8aa793387b83e2d6ba6871cf5e0addab21afaa95160001b610eb6565b61241c7f737dbb6439eaa38e96d6e06400420536c3fbc4234a55c7ede312ff40008ae15660001b610eb6565b61242b60008211610137613a75565b92915050565b600061245f7fe06e484eeb5c79c6e06d9ad5cf999080887fea859946f93be4e450c8052b1c5760001b610eb6565b61248b7f18a63404600f485a92811efe2e02e6cfdd7b4bac7ce17b1be14087f32ac6900d60001b610eb6565b6124b77f3477e7128453ff8d061dd3e72007a63416389a4ed847db4c62d45633f944d0a360001b610eb6565b60006124de846124d08787613a8890919063ffffffff16565b613bdd90919063ffffffff16565b905061250c7fc47950ba7b58c185ca305295d36dc5fe65550fad1b1eb3a3915677aec1ce712460001b610eb6565b6125387fefd4c3824e2e5d0d79d55b62107caf8822a4e88ace48bc1880a2f2a61c9b204760001b610eb6565b61254f6709b6e64a8ec60000821015610132613a75565b61257b7fcdeb782ae038f285dd06ec54e4bb03bf4f6cdffd1b4686ec535ca48eb2e6619660001b610eb6565b6125a77ff6dbab39cf2ef230d182e4d2b40cb39d9f079f0afad08a1617be80b630a2940260001b610eb6565b60006125d66125c788670de0b6b3a76400006142e890919063ffffffff16565b83613edb90919063ffffffff16565b90506126047f245bfce37b7250dba5cefe20707424d0ba0b5287a3672cb0ec5506dfb3b1c3cf60001b610eb6565b6126307f86c77296ce2811a5e658c00b590e722974270ddcfde88ceb7f20bb4d6e0d1adf60001b610eb6565b600061264d61263e836149c3565b8a6138fc90919063ffffffff16565b905061267b7f6ece5a5cb0d1fee826cd9de737c5200bf2df2adbf21474be9b5c6f64a8aa733060001b610eb6565b6126a77fc017acf2c8328f1c383f0660329530859f027fa9659024c24d7f0342db4ae2e760001b610eb6565b60006126b2896149c3565b90506126e07f3778a910da2bdb7c42a6ad77bfd1ecc90036b5aaa44a46502d6ec4fec37caf0d60001b610eb6565b61270c7fa8334acd852b98e3177e2b1dd174326ce674e75b53bc9c13a53a50a8da959ed960001b610eb6565b6000612721828461404d90919063ffffffff16565b905061274f7f3c901a401ce47284ceaddcacca42a98eacc7427b0263fa2dbb7b84bd74cd8c1560001b610eb6565b61277b7ff5e5d71a6d7f713568a9dca19ba446d52f88da66e7dc4e6a003eadc70d24c8fe60001b610eb6565b60006127908285613a8890919063ffffffff16565b90506127be7f6d77f0934c8628ab5f68f95b6eb23f141296c68f96b4bbf11af20d149491ec5b60001b610eb6565b6127ea7f26ea69b076dc025d08bacbd91400611ef9b1f24fca306a80964be16de41fca1260001b610eb6565b6128176128086127f98a6149c3565b846138fc90919063ffffffff16565b826145e090919063ffffffff16565b965050505050505095945050505050565b60006128567f31cc299040d7b474bb8783a4aeaa9a01dd89ae0686f43e59c0e85887edcbbc8060001b610eb6565b6128827f161ffa5f94a10c8fc5ccfa2ebf37365b8f8690202dde030eee6d6effdcb6bdd560001b610eb6565b6128ae7f292d441df589c0df12e5af58981b26aaa4fe6462f8d309fdfe443b32e60d49cc60001b610eb6565b6060845167ffffffffffffffff811180156128c857600080fd5b506040519080825280602002602001820160405280156128f75781602001602082028036833780820191505090505b5090506129267f5cccd19898cbfa7acbd419bdc6179102fd7e7f526dc01f7dc1bf9f779d7827b160001b610eb6565b6129527f1e00cee02766603a0c8f23f299390064b367bc85be100de5b8342eb2bfcfb55060001b610eb6565b60006129807f3e510dcb332cefa337280b5f2d15332315b7f93b1aab4530f5e13327b8605bfc60001b610eb6565b6129ac7f36559985bc5f23049c4aef72a551df9b3f229a7e56fe927024acd0de0699a45460001b610eb6565b60005b8851811015612b38576129e47fe4900bb0371ebdcd1dd51094299547f2e4242cfed4780b41a6cdb35fdd17c1d460001b610eb6565b612a107f8230b86d9b4876d06ebad978e9124e8a1b76c1aeedf1eadb87ede215650da37360001b610eb6565b612a6e898281518110612a1f57fe5b6020026020010151612a60898481518110612a3657fe5b60200260200101518c8581518110612a4a57fe5b6020026020010151613a8890919063ffffffff16565b613bdd90919063ffffffff16565b838281518110612a7a57fe5b602002602001018181525050612ab27f0c45792d95471237f09e241a7c3d1498f728ed41635c114a007de4bea0aca1ad60001b610eb6565b612ade7f219e6d68455518109538132874e3f7167da53222e5266b86763b5e52709b27e860001b610eb6565b612b29612b1a898381518110612af057fe5b6020026020010151858481518110612b0457fe5b602002602001015161404d90919063ffffffff16565b836145e090919063ffffffff16565b915080806001019150506129af565b50612b657f1940e2bee68c62f6b8518b171762807c5e90cb39536b6891dbcef2da208c51e360001b610eb6565b612b917f847aa1be8732517e4d2d20f68e47f58d1a27711f747dba6d35b50343e2aac63260001b610eb6565b6000670de0b6b3a76400009050612bca7f984df5bbc5d32bbe51e4e4681404f20eeaff0c50e9b530de786ee2afb541614660001b610eb6565b612bf67fbde24a06ddedd521876f3e54f33199ea4ff3323678e52d420f3ceab803259f2f60001b610eb6565b60005b895181101561307857612c2e7f127349182e2c677ab14d2715ada87bf22649c2d10ace2edf416bd264c46fcae260001b610eb6565b612c5a7f8d60aba3b483638531e3fc39ee886465ad72d560a8f6f9e844c1ea0d69d45fc760001b610eb6565b6000612c887f27e2c124e4e3a25f77a317d7c3f8066194f04f57de273f80c135ad65d9fa5aa260001b610eb6565b612cb47f38a3ba603eede6f0178760180a61d2776ffe7f1eae093484be1dbad3b62ca54060001b610eb6565b848281518110612cc057fe5b6020026020010151841115612e9557612cfb7f99da50d627dab730c3c4913802523a8742b0851fee0758a53ab571303af21f5a60001b610eb6565b612d277f423e60e98eb255e64c922aefdd04a119fdc1dcefe5c8099b6e42c677571099c460001b610eb6565b612d537f0b4155c8dbc57c2f974738c1bb0e420fc41b5604b907734a53a79b9d99e568d660001b610eb6565b6000612d83612d61866149c3565b8d8581518110612d6d57fe5b60200260200101516138fc90919063ffffffff16565b9050612db17f395a789fee3d89bbca3e4ad3a7bb46ff5a9a274d78228037322b479ed36cb12e60001b610eb6565b612ddd7fd8ce3840be7f8f128d69f2a47c19a06d475b0d9b64e2ac8545ca95e200a3aee960001b610eb6565b6000612e05828c8681518110612def57fe5b6020026020010151613a8890919063ffffffff16565b9050612e337f391db81ee2982c010ab413b2e59d79430e85378afacce1c637f356736b2f3b6460001b610eb6565b612e5f7fa7333209b0e83225b22c485894174847a01341a0226a81399398f37968326d6d60001b610eb6565b612e8c612e7d612e6e8b6149c3565b83613bdd90919063ffffffff16565b836145e090919063ffffffff16565b92505050612f30565b612ec17f4346a5937ded14cf2547fc54b10fab82a5d29fdfc2f887b245a5045bc4866bd260001b610eb6565b612eed7f0cb1c437f5acb1ad3badae4dc0e57bbff34672ca0351e36e70c80c4d104b77d160001b610eb6565b612f197fa9ce00cfb70022264edd0e04a5918ec42e703af69a8d8b069b2aadfd86f5f47c60001b610eb6565b888281518110612f2557fe5b602002602001015190505b612f5c7f563481dce85b013b842ebf20b905b030e26bc3f2cc98e60d607dfa492e64e81060001b610eb6565b612f887f2ea91a973f55f1304942c70cdedf54b29176476da767bbb550e4bbef0847c57f60001b610eb6565b6000612fd58c8481518110612f9957fe5b6020026020010151612fc7848f8781518110612fb157fe5b6020026020010151613a8890919063ffffffff16565b6142e890919063ffffffff16565b90506130037ffadc4101eba1df74f1f3b98b50b69588506bae3482f1574cbbdd197e022f1b4660001b610eb6565b61302f7f66bc382b0f1becc5edef409d01d177420ff2267bfc6f80e279c4c65d7e51ae3160001b610eb6565b6130676130588c858151811061304157fe5b60200260200101518361473590919063ffffffff16565b856138fc90919063ffffffff16565b935050508080600101915050612bf9565b506130a57fa57a0b76652fa161e73054b12e368ef72e7619fc9b5805091c80efa4b988bec960001b610eb6565b6130d17f9a2b434f9fb3c26e5625755377fbfa756957c736bce4f5bde1286d1c52ef5c4560001b610eb6565b6130ec6130dd826149c3565b8761404d90919063ffffffff16565b935050505095945050505050565b60006131287f23c65b1b43196175e7ddd79740a316a023b4e4a3609d2bc45dc5ca137076da9e60001b610eb6565b6131547f11ef2df284fe68ec6637c0d3a6a0dae6baef5cf4e55a5819cca7b15d73777e1e60001b610eb6565b6131807fbae82b361e0fd07fecd58fac5fdb6e03db707d2509f0fe7552493de1c1245f9260001b610eb6565b60006131a78461319987876145e090919063ffffffff16565b613bdd90919063ffffffff16565b90506131d57f13cbf42c80a1969adc3e5267c99c73229bd97b745c2ac869f2c5adcf63f6397d60001b610eb6565b6132017fc25c5650afdfc0149e6bc866de7c51bde773576f1ae55c2e3e4755b2b22015c160001b610eb6565b6132186729a2241af62c0000821115610133613a75565b6132447f220406622f9877873c5fd2ed240ce4e5e81446902ade6a0d200e16b544366a2e60001b610eb6565b6132707fd41ebb31e0888cba1a2d3fae452b7f929d37340dce9ca2fb5001d0398bf4a6df60001b610eb6565b600061329f61329088670de0b6b3a7640000613bdd90919063ffffffff16565b83613edb90919063ffffffff16565b90506132cd7f23a9eab2b2f1eca942cfe918bbdf1b6db31b14a1bec8c5afd5731d5cdba8831f60001b610eb6565b6132f97f1a4b88ac58e995db9c96c109d30eee1cddd584fffe078ab10e2b8503839ad5d160001b610eb6565b6000613328613319670de0b6b3a764000084613a8890919063ffffffff16565b8a61404d90919063ffffffff16565b90506133567f6d52f474333d1eaf81d6b83a6c41ff9fdaa225fbd44bff2165e1d083026bcff560001b610eb6565b6133827fdfb9a766109de01c0e0ebec7393949c225eed9b09907fd74431f973356b6fb6260001b610eb6565b600061338d896149c3565b90506133bb7f3baf06c00dd6a0c4f6f9a81bd5f0b94984fb49c45bf74d1337b019d429ef797460001b610eb6565b6133e77f4a7f97d579feca9fb8e91074d37ffff93c1c033b653ae2f45de0a6bfe916010260001b610eb6565b60006133fc828461404d90919063ffffffff16565b905061342a7f33a286dc4d46f09950249627b9c7d86c925e3fa55d929ef4316ee677e909552d60001b610eb6565b6134567f7ea2f92392ff4c53693f0bea53717a1f1b0c442a179aaa9da80e4d25c7cd2a9b60001b610eb6565b600061346b8285613a8890919063ffffffff16565b90506134997fad319cf3cb330ae97d03c6d12234cc6ff090b3962f4d031022fbf0a54eef9f0d60001b610eb6565b6134c57fe4d8292d428467e67bf66d3dd34b7b9eb5c0d9839fb696148f2305532962d55760001b610eb6565b6134f26134e36134d48a6149c3565b84613bdd90919063ffffffff16565b826145e090919063ffffffff16565b965050505050505095945050505050565b60006135317fb36bff3800238b2fc1b2a413dac34942d1246e80c776d530465c40bb0df68c7160001b610eb6565b61355d7fffffed503c9e9676a19ab00fbc0422bf576a1211f7be0e4d2c3d62eef0e43c2460001b610eb6565b6135897fea48ac686b937531b3742db9ff78b06c1099c44a4b1575e6050bd653f886b8c060001b610eb6565b83831161361d576135bc7ff2c96e80d5e1be6317f45f1bb1b549143a9cb259be2c78bfd9103f540493011460001b610eb6565b6135e87fce780ed8643ac88b2b8c2c3a5f004d0821a8e91d5a7190cc987c762dbaaa79ff60001b610eb6565b6136147fed09ea58c6452b8f260fc28197fa41cdee7b28f5437d4722502b61812630e14d60001b610eb6565b600090506138f3565b6136497fdc69cade8ad310ab4c6cdfb62b5580b36cfa164c1434d9088561f634cd4ffe6b60001b610eb6565b6136757f4830f3192332f89c4d126a0332638613728d2b2ece39e25d8ef7e6293aeb5c9a60001b610eb6565b6136a17fd8f6a03331b14a90b7eed30399d975d7d02f69b7398b1ea6cbf794d5f5c2611660001b610eb6565b60006136b68486613bdd90919063ffffffff16565b90506136e47f2c4f1c1d67ad93756483d595ec1d54cf7052307f70882177a2b1b17acfbda28860001b610eb6565b6137107fbd834a923ad54062d27b09639080e50b86bcf336d0cd5d463beb18b1bb8a1c0a60001b610eb6565b600061372d87670de0b6b3a76400006142e890919063ffffffff16565b905061375b7f6d57c93444d3cc48a988eb582636cc8ed78b681ae90e68cdf3322d89c108d17260001b610eb6565b6137877fbb8c05e3f2ce03795463ea7ad7109e6a0f9ac29285e269a99c634ee0c8ff200960001b610eb6565b613799826709b6e64a8ec60000614a72565b91506137c77f4b042dd04983b6e5fcc3fdfd3d0aaac5cbdd9c1f980886fdff744a46f6d6b22f60001b610eb6565b6137f37f40a560eb6ed9f3dbbb7fe274d784c1ed1216e3179b6c7d2655cfa520f368667560001b610eb6565b60006138088284613edb90919063ffffffff16565b90506138367fcf622c1d8a7236682cd0eabd23291439b6114cb72ca4524e74ccd4ab29f20fa260001b610eb6565b6138627f09118c8da00012d9c1cf85bed271ae32ca317745e75cc21983cf5953542d1bf160001b610eb6565b600061387f613870836149c3565b8b6138fc90919063ffffffff16565b90506138ad7f0bd60f7a724e93ba76202e9b52d14b766a8cfe4cb8de8be5ec7041869619ecb660001b610eb6565b6138d97f053f84c520825bb0db10ec016d511fe6cb504337c9bea5156770f4c3e1379f6a60001b610eb6565b6138ec86826138fc90919063ffffffff16565b9450505050505b95945050505050565b600061392a7fed5730d97338cc99ec7ced602749e69fad452b233ce5af1bbc10319879372caa60001b614b10565b6139567f8f6916668b49b644d98f771f124b5a32bd9897d7ebe53b3c38ade6a71e84085760001b614b10565b6139827fe14f128dd52a43628a9bba7b0a6f33bfc1a4220802b917ba737266f9dcbfa49c60001b614b10565b600082840290506139b57f46dbb44b8cf04ee6e61d614d79ce70c1a85cc911b0197fa4ddce642a38fa5fc460001b614b10565b6139e17feefba6c3b698f9572b5bf37de3ea9769c52c377600e5b34f929c993e75aa62d460001b614b10565b613a0260008514806139fb5750838583816139f857fe5b04145b6003613a75565b613a2e7f38f54c5617f008a16f1f038a9a8bdf61cc1319b326250c056a5f9064eacdca5460001b614b10565b613a5a7f7a48fe0d9a13c1bc8e2332965b60872b1e28e7883785e9895a3ba40dfcccd1c360001b614b10565b670de0b6b3a76400008181613a6b57fe5b0491505092915050565b81613a8457613a8381614b13565b5b5050565b6000613ab67f98fee658fb98ee3a3f7d31c9b144bae0694670e2d2c9740be272b5cfea0092c360001b614b10565b613ae27f293f09d7307734d72ef4603c3433eb00449e5e883678fdc8895b9ad14da4388760001b614b10565b613b0e7f9ea24ae37f0db9d37904a7342a2b686a492cf5195c6dc2b3a033aa704f81844560001b614b10565b613b1c838311156001613a75565b613b487fe5e0f286e14e3939ab23ad606f1392eab58a6aa878cfdfda24b238e5aaec25c060001b614b10565b613b747f37759278f4a59534be934e0e6521d3364d9957c6491e795f56bed364064e433360001b614b10565b60008284039050613ba77fad28cb0f8fb12a20cffd3ed3e3e4311fbd593c9af7fcd49febf0e43a31f27eb060001b614b10565b613bd37f73877f4e66f2878c1974f071e9743c95266cbad904e3148b9557f6ca9019d15260001b614b10565b8091505092915050565b6000613c0b7f2d109a5683dd9a11ace453b33326f996dc073f965956c0adcbc94da37c822bbc60001b614b10565b613c377fea0a55fe7d66eeea1d8c65997ef349e4565e690cb513c76bb425aa845819404460001b614b10565b613c637fa2e015e562ecff7cb5dbcb8dcc681211c5910605c85f6c8da514e14520d7be2e60001b614b10565b613c7260008314156004613a75565b613c9e7f7cb9d936b52daa3885c69bfd5704f0b5904085e5601e4d6996bdb889cba14b7e60001b614b10565b613cca7fa6aa7cb199aa4952e11d0c48c2f2a6aa6d773e1412fa2c68e4497072fc9c34a260001b614b10565b6000831415613d6057613cff7f6444ff1aca63815e4d2616653a3331b326584b2c92e1619a9aeea548bc0fa6b060001b614b10565b613d2b7f1bb8db645f8bcb2e16a0d7ff4086e5ee3684b0032db0454c653291f51b9f723960001b614b10565b613d577f11b60f07d48ef5f829a0caf0761770cf3d5dfeeddc3475cbaada9d91ab44ff1f60001b614b10565b60009050613ed5565b613d8c7f4a73f3af504b91809a28e5acaf9337a35a56ca11189217b0a894129cc15e8fad60001b614b10565b613db87fe99ea2420c0ecfeadba8d7dd1d82e5ee989794f71a5f27acfd3ad1bd812c690b60001b614b10565b613de47fd17216c7fdeef3f09d1091432fb7303451e83c986270ffa9bcb84b0b66b60cb360001b614b10565b6000670de0b6b3a764000084029050613e1f7f022bd7d5ec8e771a53b61eeb3fa4b04d83c67d8a43d01c0c66cf08aa6018840d60001b614b10565b613e4b7fdb22d1d6663051778e748b13c2b2b11d231553902ff4007ccd48321f7bb63d3960001b614b10565b613e69670de0b6b3a7640000858381613e6057fe5b04146005613a75565b613e957ff80bdc4afe03b8285068be38759e765413a3844d086e1d62e0a9d6f27338182c60001b614b10565b613ec17f5015482585e9090f4a9bf17a97e47f1225482f97e80fa061dfb918c23d4f585860001b614b10565b6001836001830381613ecf57fe5b04019150505b92915050565b6000613f097f4cc4289f64fde5e00596da1dfe2534fc428776ed1e0e5ba210bf9cc09342595060001b614b10565b613f357fe1a464f393939751aa66dc516e2bf59439934290634824e329570b8a7c1d228360001b614b10565b613f617f0fab9b99075fb74af420c6ea4bc8a24f94ced7ceebeeb32562671d8ed11ea19f60001b614b10565b6000613f6d8484614b83565b9050613f9b7fcca6070759b70b537373f057b017df3c08237a92666dc0d44d1ca5b8115e343560001b614b10565b613fc77f4f23e350f503fd2ee4d3e3c3315939bd0452d08c8f957ffed7cb828056de933c60001b614b10565b6000613fdf613fd88361271061404d565b60016145e0565b905061400d7fcfbf25f5378d94751ebb618104bfa62bcabc7162413f6d054190d96fad83dc1d60001b614b10565b6140397f30acbd76b2d8662644c133b562967ac708d402eeb2b45d9ff11b572ecb41dd7960001b614b10565b61404382826145e0565b9250505092915050565b600061407b7fecedcab8d0f0b6a3000213e8cddc44feada52d5d1ceca994a1708f87a68f484260001b614b10565b6140a77ff7a5e7dc62e206a3c02506e29058349ecd8dafef79131bdc1bc2e8e1249cd18360001b614b10565b6140d37f464c62fb9d6f36fb99d3416aa58c5d658e75acb5788f6ff32ba3c5125e2dd92a60001b614b10565b600082840290506141067f62fa03b6cb0bf307621766f8e2c59c61c09f612d409ab410b0274a5d515f142260001b614b10565b6141327fbe2dae5901d1ce6fef70c1007ac171cbde128a670f8e63dedd387d29c32bbdff60001b614b10565b614153600085148061414c57508385838161414957fe5b04145b6003613a75565b61417f7ff751ce1bed0d21d854888f65c9afddf5fd3403e43d946bb14a67c1da59e974fb60001b614b10565b6141ab7f83338b898944f1b063429e568413716f9a77960254fc9aa061a6760b2c9cd5c460001b614b10565b6000811415614242576141e07ff7d35bcb2b713968c089fdd9b59712b4eb62375d00e259e9dfce81aff0b8969b60001b614b10565b61420c7fa22bc731dfb2440b39794a07130d0ad03e27d6b8166a162102b8307676d1ca3f60001b614b10565b6142387f69095262fb678ae5f47c6a9ffabcd4b89001a3eed701741b5f7c4710ecb6028160001b614b10565b60009150506142e2565b61426e7f263c8cd579b54b7eae40140c5ccb8cd53b978485034df207bf14711955d29e4e60001b614b10565b61429a7f56c98e1813cfb46ef95956e10763a8a2d34e9f3d345a2e254da0d46729917f7960001b614b10565b6142c67f966474f471122894d48e473af854379789a7b13e9e5227f3faf34cb4687e2f6e60001b614b10565b6001670de0b6b3a764000060018303816142dc57fe5b04019150505b92915050565b60006143167fd681117b54f8c42dd9b9b724675b90500142f91e0c692c88cd29f6a4ac20d90260001b614b10565b6143427f166d54a6dcc2da1700c278643acbbe8ec7be0a002e0be3664514a05bff76410660001b614b10565b61436e7fbe546f1bb4a2252f3c69d522122f5305aead99456e33c2514e382512cbd275ad60001b614b10565b61437d60008314156004613a75565b6143a97f66baa7ca3e26778872311ae2b37bf38dfa377789cb684f64abda0507ede6155760001b614b10565b6143d57f9bbcc745d05068633f50f2da4aa7785c4882dcfa9bcf9c1c303a65580176ef3f60001b614b10565b600083141561446b5761440a7fc3eab5df153e3b105e157cfa055bfa8e0845e90270ff3255e7446c30deb579d360001b614b10565b6144367fdbc3d990e3f3bab6fa2a0d2d047661dde07c4ef25a24501839feae50185866ff60001b614b10565b6144627f4dfe5096d5d7b39d55b09ffb0f574f2071999b6d3e264f41d19472f6f6dff6a460001b614b10565b600090506145da565b6144977fb6dfe2886846608d4ab290feca7c5ec6ae2852dfbc3707d276ab66657c42cd0160001b614b10565b6144c37fbd6d291981cc28a3445540f278cec30943e7da252b1f546a4206e2297370b83860001b614b10565b6144ef7ff68e1a1503b4afdf9fbf5a22748d3463567f3562a99e1fe0c70f16aa0941e7ae60001b614b10565b6000670de0b6b3a76400008402905061452a7fa9252a08ad1a46a72a3ef9d1afb829941f22d18012268e7192e1b3ffb5eba14960001b614b10565b6145567fcb9cc8cc61006212eb8ed6f13e3a563d524b873c3a01f66af4887945460f4c1460001b614b10565b614574670de0b6b3a764000085838161456b57fe5b04146005613a75565b6145a07f2f1f45017adad415bec4ac763f6f16672ad5b44eeea98c3ac69d9a7e7ffe543c60001b614b10565b6145cc7f512b328f221d3319110052907ee75993170f783e77190fc89cfaa6bdfa4cb69260001b614b10565b8281816145d557fe5b049150505b92915050565b600061460e7f59553e064ffc30705bc6f1bd0548781ec42eede447ec06cd2d9ddb674a8219be60001b614b10565b61463a7fab4e9dc03bf83496a9fb56ed78c77ac71999c4c5b77197bc3f03888fa1f7da1860001b614b10565b6146667f8ef261d3a0653ab868c899418b467bc6f67e2ccde42f77cb49f1285b32558cd560001b614b10565b600082840190506146997f172b47099aaf4a028546f4463220baa09cd81d77ae8c1096fc6579f4ecaeac2960001b614b10565b6146c57f967579ee3162c1a66be7747b1966e185b33f2fc6a52477633bfe253a007a6d0d60001b614b10565b6146d3848210156000613a75565b6146ff7f837f36e10f55e182d80df4008a9565a95c9998c0cbd301003424ee94022b465e60001b614b10565b61472b7f60b415dd739853b43f2c31e0a76108ad464adc9d8eacc59b1f59ea004963800b60001b614b10565b8091505092915050565b60006147637f0e0ee3284bd5903c815044bcbf0ed6cf75d952a77c522ebde3e0ad91277e171b60001b614b10565b61478f7f55bc9937e62774a3667931efde97bf6772e9de186e355f5caee4c8e3087b724c60001b614b10565b6147bb7f0417d5ce2ab7e850f8042fc37636f4691b9335e37d3f30769449ad4a2a9a8f9960001b614b10565b60006147c78484614b83565b90506147f57f1529b80d2b0a4eac949b3ce095e8c13e908c2586c09214f096e0005d72a6f66760001b614b10565b6148217f82f83870dc6d027e3cef4996a38414088854cb340b7f19d86a5904becffee65860001b614b10565b60006148396148328361271061404d565b60016145e0565b90506148677fae675fae313179417d046ac8e1d8fb1fbac0e9a6d2afa70d73b2430e8723bc2360001b614b10565b6148937f4a084fc6f5a0d58fb51443a68a6657a238cd0bbfaabad84b1a4f51015041101960001b614b10565b8082101561492a576148c77fde43b16777832eda33999394cace4e9a7df4a6c2dccf18d94085ffbde1e565eb60001b614b10565b6148f37ff0bd73507d0060d8c052358c7d57a5e9c9b77e23158a65148b8431374729fcae60001b614b10565b61491f7f30672f61c01d399973740410f9cddd7d0b1f57269700dade8c0cfa952cc37b1c60001b614b10565b6000925050506149bd565b6149567f37712ba03809199cd51ad1653892d35c8f54c092a31bae3b9a8373a49f084cce60001b614b10565b6149827f01b363bab51dc167259a08619d2989a39e222a123288cec0986e03fc4dbe4d6460001b614b10565b6149ae7fdb94e8f43b97f5ce1ecc72ab3f783d0d050ae4c0afea87379818aa345d41108a60001b614b10565b6149b88282613a88565b925050505b92915050565b60006149f17f60680262f8cde245659d6c6448d21bceb1d3ca08e29b59e819a6666f1c7e7bb260001b614b10565b614a1d7f5ad3353e0ee2b8595834d505fe48966b19abe3dc495fcaa2c983f602906d1ec560001b614b10565b614a497f7c485422e01001a45ed23c48c1d1896544b18c428abf31cb0e62bae7e2eaf30160001b614b10565b670de0b6b3a76400008210614a5f576000614a6b565b81670de0b6b3a7640000035b9050919050565b6000614aa07f08b5ba32bdfde5a4787ca4bc358fa249d9c75980e2bbbeed00d548e4c62ddf5260001b6153dc565b614acc7f97779bf504025e78fb7ac46ac32be2a0f087b0a9d7c459512b0af4ad82be5a1a60001b6153dc565b614af87ff9ec92b71b5bc51509046723000be9f2c1e8a0bb9507f1adb5e18c6f47bb82bc60001b6153dc565b81831015614b065781614b08565b825b905092915050565b50565b6030600a820601600a820491506030600a830601600a830492506030600a8406018060101b8260081b8401016642414c230000000160c81b7f08c379a000000000000000000000000000000000000000000000000000000000600052602060045260076024528060445260646000fd5b6000614bb17fb4c60d495595d7051d8098367e0de1231ee7e80c066e7cf13cffda8b2df55af460001b6153df565b614bdd7ff917484f913307b5657d4ab3ec7eeadd398ce3e0dc0b8a44c7e18f33908b4d8a60001b6153df565b614c097fd9993763574719ccb3d52803699ba2b0c07ae80a8386a1a49f0e3206a06e597560001b6153df565b6000821415614ca657614c3e7fee5b6ef8f709ca23d29f28bbbded429a1f46e1b071dd22dcdb36f0169023ce2b60001b6153df565b614c6a7f2f38ea7e23d14ced68f2c8d26c1a06353fe28a5477d2e90639655786f70aade060001b6153df565b614c967fff2a31b9f5f4df515e93cf41490341323353d178b9ded18b88942e772f534c9160001b6153df565b670de0b6b3a764000090506153d6565b614cd27f3f9d98aeaf2b384358eb814c674452bf993b71bcde381ab99c62c1e1b7c9cc7560001b6153df565b614cfe7f285385695c1469df8d40544367a3887392a9a19f337755911ff2e833fa25f0d760001b6153df565b614d2a7f8362e6b8144905802616b73f08a4e909eff98018428a360951a787610869496c60001b6153df565b6000831415614dc057614d5f7f538a78b1a226602ac0c28f23d0a001812cb9266b7a8200275d63a8103c29943960001b6153df565b614d8b7ffc2303ed0447e12f646e5e93c96414156a534c77dca9832e8f173b501fc7079b60001b6153df565b614db77f5cdb5f3c19c4fe78c6e0ec9aff7f265f1c49b4418e388de53160770c7ee4fea560001b6153df565b600090506153d6565b614dec7f402f08c3700a9ba79e37ef8ae3f17460b205cb9aa20cae1ac99e6fd6900f0b2760001b6153df565b614e187f67d21360845b5cb81fd0da81726ef6df96862325ed5681d05dd7834a4866b92060001b6153df565b614e447fd020e8b002604fdc6b25646d7a5467d0fbe85a3ffb626730ed3700bc3067892960001b6153df565b614e717f800000000000000000000000000000000000000000000000000000000000000084106006613a75565b614e9d7f19210e46be6a7a70189454c42052cb399c3738b24219c6df22248489d62d52af60001b6153df565b614ec97f373d3f9c4e2094eb1aaa97274f961defb62bbe3c79a9e8bae367d092f610845060001b6153df565b6000839050614efa7f745ee1f4dfa91a709ce3c8b8e1f67a866dd27f48aacf05d631a83c8dce558cfe60001b6153df565b614f267fce71d52d68fa278561a2037459d48b7e826e0d5551892a19430d5de1b0e91c0860001b6153df565b614f6568056bc75e2d631000007f400000000000000000000000000000000000000000000000000000000000000081614f5b57fe5b0484106007613a75565b614f917f11dc92b50edc857f208acce2630b0c81321a8d850c1a983158880a4ef51a062d60001b6153df565b614fbd7f5f106d65f79b95c3498165b29378c228730e8107c79497c7a7ad3aaf12c6971160001b6153df565b6000839050614fee7f6100c7790d38a4f53962a1e9bc064f419c5d1932be74925c1a7781aa5f73483c60001b6153df565b61501a7fbf4971f0797695daefdfd0f9aa4478e79ee2d13f1764241f7ce4ac5db5d7cb3f60001b6153df565b60006150487f0c43470e96bf36e53365b61f93bb0896edbe246670a260b1fba7be7f0a1dbec060001b6153df565b6150747fd0e38dd54bd0736bb1e741b21b513d786ecef408bb5f9c813c64115912d9b6a660001b6153df565b8267016345785d8a0000670de0b6b3a7640000031280156150a6575067016345785d8a0000670de0b6b3a76400000183125b156151d6576150d77f6e40d061606b0c46da816399be7fe0691cb2204c3c6147bad3d540b1a45e349760001b6153df565b6151037fe0aa81b287cb2dfa1c80efceb64ca93aafac727174949af816d6a823f906a84c60001b6153df565b61512f7f99ecefd114f208cc8ee60459df9c72115af94abdf496f5bd5d533e11f795e55f60001b6153df565b600061513a846153e2565b90506151687f574930d9b5e6e25c2f06b9f74f2c2589779af7b00d042a6a0f5d0e315e9da52360001b6153df565b6151947f5174c41d1295ec451a05f7c41b635ecd2659214a71144e4a8bd7b062bf19a4f560001b6153df565b670de0b6b3a764000083670de0b6b3a764000083816151af57fe5b0702816151b857fe5b0583670de0b6b3a764000083816151cb57fe5b050201915050615268565b6152027f6bf9892d0971979a63f6208a420e6f24ac858c86369268e25c26871b4db4f0d160001b6153df565b61522e7f1bbdb1dc34afe49b3d15b1db75fa7497ac29590b4f800b5b96a07a46479553e160001b6153df565b61525a7f6b7db22b1943d81c0d8484154752d09e11866a862933253cb3effb91596c857560001b6153df565b8161526484615c9b565b0290505b6152947ff5307d01450754d11b6999a6f15f6940605ea263d8d1a4d2677c5d4cd16b9e8860001b6153df565b6152c07f5da3025494ecf25168477a05baf7b9878a21c4c8e96c18e3b6d1ddba3b4d260560001b6153df565b670de0b6b3a764000081816152d157fe5b0590506153007f57cc0c34b883c0764df0f16c3418c3160b70e73ff7ed2363638c77cc780edd3860001b6153df565b61532c7fa7e92dc2b3da2e2407ab43ecd25882ebcffa5fbdcd60123e73d98f20cc63c09260001b6153df565b61536f817ffffffffffffffffffffffffffffffffffffffffffffffffdc702bd3a30fc000013158015615368575068070c1cc73b00c800008213155b6008613a75565b61539b7f1fc08f08b4ee48ce0f7ad30806166097c215655d6e1cd60c08bd784612d9b01260001b6153df565b6153c77f4bb8f0ccf8323c048a3352be5af0559be12691807755568ad9369d233b27b0d060001b6153df565b6153d0816179a9565b93505050505b92915050565b50565b50565b60006154107fafad475bb9484dc1fd4e5b0ade9ae77d8d3f4374a1d7ed3cb8ed01d66064779d60001b6153df565b61543c7f031e05fee9e49ea9b35db640634f62d5ae8d789a9b00ceeef3e71de967e2d5e060001b6153df565b6154687f23e17eef26db05186da272b7053ac848f6af2a19ac06f64cf23a971483327e3e60001b6153df565b670de0b6b3a7640000820291506154a17f5752269231d7207870d49a120ac51391a46ee6cca6f7fc08bde989b0d1ab986460001b6153df565b6154cd7f31bb4605982d03d671f012c1710f6e3d3550f931186583070c565e112fa2f0b960001b6153df565b60006ec097ce7bc90715b34b9f100000000083016ec097ce7bc90715b34b9f100000000080850302816154fc57fe5b05905061552b7f833201f825ec9dbe3ea77cd20a272f47911676af570f953e1b63a6cdb627d40360001b6153df565b6155577f32cfb75f0ff917d3887301975ad099f8e8cb9605c21447b1e4e06bc5cbf69f6e60001b6153df565b60006ec097ce7bc90715b34b9f10000000008283028161557357fe5b0590506155a27f5262ad7374e69c862038705c852dbcd9a375ac7b77b81626dd85ef3bc777c8ba60001b6153df565b6155ce7f814b893dec74f384cdc4ffe2e91849bfe5373d8e965b0e5516a5bda52889559f60001b6153df565b60008290506155ff7f0578431d2704ffe9ad7fb07b78c670e53e0c4c85f46f554a12e4af69ffd8a60c60001b6153df565b61562b7f5b497994a9114fb09ab4490f0482e2cd57ba6252595357738c52b4dbcf610da160001b6153df565b600081905061565c7f6e5b5cf3104a14c38940ba6bc5d534ecc8ffd4749f486b65ecd81f623c2f3ee760001b6153df565b6156887fd2bc5c26d500ac606abc5b229aae0a994ce547e4b0cb499fe22410fb0626721460001b6153df565b6ec097ce7bc90715b34b9f1000000000838302816156a257fe5b0591506156d17f6b1d205a6375704a28ed95217bd697c1775c8c59b8a3f065720259fe133fa0ee60001b6153df565b6156fd7fb76b7ee84c379bd0981bbbcd218400913abe0a3bae29d77284ee9a0cd47ee34260001b6153df565b6003828161570757fe5b05810190506157387fd17a6e196dc831a8c5818adf6e5de25ffe1bb186b988d0e5a93791c040bbc5ce60001b6153df565b6157647f87dec2e16a0f0b4a99197fd8862a1e58da443b65a9358cac988fd9986c513e4d60001b6153df565b6ec097ce7bc90715b34b9f10000000008383028161577e57fe5b0591506157ad7f497c66fd18cddd1edbdd663cf65697d926bf4b6b202abb5caf58c8e4f051e33260001b6153df565b6157d97fda27ba2d015ea8075dbb2b6926438b22f84133b8f0bf78513b1edf4a258e9f3760001b6153df565b600582816157e357fe5b05810190506158147fe2fb1b5df927df9440cfd455d46a4204c48d3ad6ff3228dd000db2cad7f5cc0660001b6153df565b6158407fe8af9739626a66be09fc26dc9203eb0d8cd6cf8a7dba0887a39e991cf5b78faf60001b6153df565b6ec097ce7bc90715b34b9f10000000008383028161585a57fe5b0591506158897f1d2478f6bc640e0988b0185bf45bc2446e7569d05ef50b75bd9fd46b2cc3bffe60001b6153df565b6158b57f190f9c9a243682a8039638cae963f3e8d3e21e066e69fc24076dbe78a6c2d04660001b6153df565b600782816158bf57fe5b05810190506158f07fe3ef508b3c980059a2ac866f30a69cd5d5caaf518d012f26b857bd26916822cc60001b6153df565b61591c7ffc98cd02c211181ab2a38e03eda7c39f50c9ee3fd49bde86a518fb132461897860001b6153df565b6ec097ce7bc90715b34b9f10000000008383028161593657fe5b0591506159657ff4b4d260d3dbe9bf6de0f129a91683f88b9d44e25798db05de253ea3779fa60d60001b6153df565b6159917fd3236a68c5b379154ac60efeb89e514db4db2f76c23a6994a980dc2601fc318060001b6153df565b6009828161599b57fe5b05810190506159cc7fd204e544020feada4b05a8d1ccdbf5c4c33aa2654f76977adfdc750d9dc5a3a160001b6153df565b6159f87f8064ddd04bdc1de318dc25362c5e30e08af518128db829fa1adc14430e30b53060001b6153df565b6ec097ce7bc90715b34b9f100000000083830281615a1257fe5b059150615a417f301445f58664fa4fbac2352a1521f719ea4787b63a1582747831d848dae7313560001b6153df565b615a6d7ff41fb0d5d5d8201d1d56087eeb570cb7697800fc787e15a53624b92f1c44c9d160001b6153df565b600b8281615a7757fe5b0581019050615aa87ffff9bb0c690db875f9c0a83eb2bd74b233801209615f71003868a848005fde6360001b6153df565b615ad47f9f355ac08862d8d248da9930374240c93301690cc2df63147fffeaf4f9525dd760001b6153df565b6ec097ce7bc90715b34b9f100000000083830281615aee57fe5b059150615b1d7f2224481d9e6c9bc867452e63cb0ac2c3b90f6cee6a27b5ba18097d30d4a3062b60001b6153df565b615b497f9af27505bb36cabaf6f21414ace7ccbd2f404fd0034ccea77c9c5242972ecab560001b6153df565b600d8281615b5357fe5b0581019050615b847f5ba30ad8663a3844cb7eeecf5bca0665b8b344aaf43495a9e6bac8f6a94cbb9460001b6153df565b615bb07ff700d16fbb686e4395754bbf15bea0b3328f413226a7736bdf223ecfcbab5e0260001b6153df565b6ec097ce7bc90715b34b9f100000000083830281615bca57fe5b059150615bf97feb6e11531698cffa3af6fa0a98d7104f7a78094e845fb298a536d611092d8dcb60001b6153df565b615c257f6cc23dd5f97530be1458c9dfa2abe52d64ac4acc8dc4bc6913a5f388f8ba959b60001b6153df565b600f8281615c2f57fe5b0581019050615c607fe7ccb0a12fa031a0a94896d3e65aa142f5894c896d67a5491db6839213832d3960001b6153df565b615c8c7fb0b596d060d7744021776e57e0c4ce81c61eb23d61a17e87e0acd84f0654f1d260001b6153df565b60028102945050505050919050565b6000615cc97f2a0e4707fd37a2afd7a8622a8b8288c83462728dd05f2553df0680d7a6320b4560001b6153df565b615cf57f1b7f6d72cd142cb5c98d0dedc604a45de085120e8d78c6e59114dca025f3c19260001b6153df565b615d217fd6f2473eb4eef7b00d1de8a833714b900c307fc4b3db23671f0138d2f06bb4c660001b6153df565b670de0b6b3a7640000821215615ddb57615d5d7f6fb39aa5e0de2d432f2ea710235cf2abdacc0d1dd65d625031d098392f9ed6b460001b6153df565b615d897f80d98144bd28bb593271a0957b6b785ee715cedba93a349b3415ddee4ff8a18d60001b6153df565b615db57fcb1764bc9a85caa655591bfb618e0b29cfd97f20b909ef5f0aeb708a52458ac960001b6153df565b615dd182670de0b6b3a7640000800281615dcb57fe5b05615c9b565b60000390506179a4565b615e077f5f795f796e34e48dbffe0e75962a006b6b8dee49c7959e5bf378a7418b7011af60001b6153df565b615e337f5163edfb7d5bde2b97eb7674a803d6d16fb9ea60ca35a0c1c540ade7b9f1ec5660001b6153df565b615e5f7f061fa7b7a49b4960801efec85da6208c9a85886c1d6658be0d43a666dd1f37ce60001b6153df565b6000615e8c7e071535dbc1bc6eed51b6ff932dd14cebd1fee562798e1756b2a2217221881060001b6153df565b615eb87f7909265c00215cf44ef659f60993e3ac535c6624133f2329f959282e5cf4720e60001b6153df565b670de0b6b3a7640000770195e54c5dd42177f53a27172fa9ec630262827000000000028312615ff457615f0d7f9eeff1bf1d7eb9bf6a862e29041c211045e50a9409090f8c6e76490d92209c8e60001b6153df565b615f397ff78b4b0b27c2baa6289e8c04ac6b732c76980b96221b0f5b504863ff297a7e6760001b6153df565b615f657fb92666a167e928646dbadb1c11387ce18eccaa72216e66e7980ff21a39b4a0c460001b6153df565b770195e54c5dd42177f53a27172fa9ec6302628270000000008381615f8657fe5b059250615fb57f9a28df60dcd3683c29ae4d4c8433e31b1e186e2b19b9dc31abb5668e999e130360001b6153df565b615fe17f2349d251de36950693d8dc7fe3e89e22f4faa3facbc573713e36b3c1076bb6b160001b6153df565b6806f05b59d3b200000081019050616021565b6160207f5f868f32c1b183566d4fd477eeaa200fb7c0ac420213f8ab31d4a5a2ed804bbe60001b6153df565b5b61604d7f655d7719e6baab47a0409df7b7b8bae3eb3aeefa1c578e68daa5b30c9ed99e3060001b6153df565b6160797fba2e333c2a2c02398997088d511c39dc1e9f2fffff60bf1081691ff02b4ccfde60001b6153df565b670de0b6b3a76400006b1425982cf597cd205cef738002831261619d576160c27f63d33fe4b6f6a3c71e6f29ae1d261b680fd6728d0077b1c0ef7d9315a424f98060001b6153df565b6160ee7fb0e8ad89b3655932a3524a3757970351a74e4b55c591ed66078f069debd8d16e60001b6153df565b61611a7f0ef7c12e03a2e291fe14ef2214a6b3fcc320d8f535fb4ea99e5497408efd973360001b6153df565b6b1425982cf597cd205cef7380838161612f57fe5b05925061615e7fe0ecf868ee95734317a4c2cfa87355cb850f0b165a583d9fd6a006f20ec5462e60001b6153df565b61618a7fb70f96a1f394bb2f6372bdfe228612c5b83eb7bd561b671ad7cf8ae8e148333c60001b6153df565b6803782dace9d9000000810190506161ca565b6161c97f73ca4c73fe2aa4d27e5a189578ebbea10f70a657f99e31130e86dba045a4fd4160001b6153df565b5b6161f67f9fcb87c0be548e7851afeaab469990149ce57255e66dcb2a706db5a084bcce9960001b6153df565b6162227f4a1376489944ca0b521dea4175ed59678c7efeb09f16827cbf218c4eddce71d460001b6153df565b6064810290506162547fef1d9a7c37f8a36d71b46a6edda0e4a3363b95743da06d32ab4f32e3009eb72f60001b6153df565b6162807f89debf19aa927a767ef509100e58ecd5906978a73fbebccebf581b8e26a6638660001b6153df565b6064830292506162b27f0bdd1b09853face3d8b70ea65bd067179115695135e2ecf69891ca3483b4a0fc60001b6153df565b6162de7fe84736814461598a4e42a3b2342c00e67b8d4c5b18f055163edb2fa75f2349eb60001b6153df565b6e01855144814a7ff805980ff00840008312616409576163207f67c3758e91595791b9150fc6a89a29627d1c992c2e4e70db244aeb0679d95b9960001b6153df565b61634c7fd0bc08e158bfb2255c90a5ff951e6eea2d8a26f3864b358a83c1471d451a4ea560001b6153df565b6163787fdb9ef2d3cd566ef078f073dede74b4b38f19988bd40236e79b59ce8529e1736f60001b6153df565b6e01855144814a7ff805980ff008400068056bc75e2d6310000084028161639b57fe5b0592506163ca7f08c724e21b52dc4806f198ffc8456fc6d4bb18ceb52c9ebb5a2ee48ee524154460001b6153df565b6163f67f7a6d26930463dc0b85337ed47cb609dc54834121d9ae4c44690da285c4b2434660001b6153df565b68ad78ebc5ac6200000081019050616436565b6164357fd8da6a7e72c78cbb49231b424f03ab3a41e3788ec9b0ffe3502d0833169c1c3760001b6153df565b5b6164627f6389e56c956e82fc9ffca8a47e11c4becd7c0a23beab4f91c5401966c9f6854b60001b6153df565b61648e7f8a2d4a87b57f78aaa7e2eb003ffc00cacac41f290b5bf14b230285c78640967560001b6153df565b6b02df0ab5a80a22c61ab5a70083126165b3576164cd7f2c97f5462f483963631ba9f9e1ddb9d0a5c3c7f72c272c692c040b2c90ad849660001b6153df565b6164f97f8a09912793ae4b6f51c1aae5e93fd9e2fa3b4be30358e91c3a00030822fa8ddf60001b6153df565b6165257fc024c606068c50790457f476f8bb6e9abd7876edaf95881faca2416802f49f4860001b6153df565b6b02df0ab5a80a22c61ab5a70068056bc75e2d6310000084028161654557fe5b0592506165747febb9291849e42b27d8b579f8a82fe2d68c9f5c996da64486de3ec1642fb2d6b260001b6153df565b6165a07fb763f29bba9dbe1c899ab5fd37e6b92ec872bb4c29cd409faf8faaf7c00c06a960001b6153df565b6856bc75e2d631000000810190506165e0565b6165df7fbe811c74316467d7588f719973d8f73b6b44bdc2615d92021dbc626ecc22d31f60001b6153df565b5b61660c7fcd764b508c9e68721c72db58d23034ae8791912f0045b01605f75dbbe915672160001b6153df565b6166387f86f07fad501b095be885b4a911f2b7cc3834da7e263b0b37d949806471f08b3260001b6153df565b693f1fce3da636ea5cf8508312616759576166757f80c7783e3a804543691c86546e82ac5b9ce5f48cf748365d31cc9c8a1908022d60001b6153df565b6166a17f87b3cccae0713c171e4cc3c30e9264b7eb2b67b20dcd9e5e69ce065d192eb8f260001b6153df565b6166cd7f2ec340c657bb799f8a13576e44fbddb231da5b0d328354cb80de3786471bc90c60001b6153df565b693f1fce3da636ea5cf85068056bc75e2d631000008402816166eb57fe5b05925061671a7fac47bde4bebd3a8de3d23e457d17a25c8ea35a923524467f19b9d05abbe3bb8260001b6153df565b6167467fe98243a8b81ded7fb01dc058e6c1742677afa34175d47084e47311ed29291bbb60001b6153df565b682b5e3af16b1880000081019050616786565b6167857ff1cc0b188e6e4231cb4718ebd28e5bb14934978cfc8e864985872747523c378460001b6153df565b5b6167b27f99bca04e245a9275c2bd797029177b09ceed72a81e08e59bae2a73a797df93c760001b6153df565b6167de7f261e4d362d795e7cfe9c0c6868738fac4f9fe2ece1423c03a5d24175f2fdc78d60001b6153df565b690127fa27722cc06cc5e283126168ff5761681b7f3914829bbe0f6c5bf1afeaa34ffd544b8cb38edd8d3bc6614904f1155f9d428b60001b6153df565b6168477f72947c0f257e2918752a7ccfc2b914288f3e2ecba1b758b07e8d97878884e48760001b6153df565b6168737f11b375a7ba04e92ada9546ff504dcab892490c95edd3fcf9012815222efc302f60001b6153df565b690127fa27722cc06cc5e268056bc75e2d6310000084028161689157fe5b0592506168c07fb79d950018e267ef32fed84a6a9421d2eec0fb3e399156c9f3eff0196bb1cfaa60001b6153df565b6168ec7ffbafab27350586c5b7594a218ca54443b7fba3e44912a674c9270d39be03e6ed60001b6153df565b6815af1d78b58c4000008101905061692c565b61692b7f75c33499bbb991e3eb9467b741b89aa2ddd22c8f21d74da332eeecdb83be5bc960001b6153df565b5b6169587f2c4465aef9653b674b06a595c74584529cb594dfa614f03186c6e07a1b7ab33f60001b6153df565b6169847fb2eaae06e373ee55d19ea18eef81bed5eb9899dae375cb9b63dae3e1867e604060001b6153df565b68280e60114edb805d038312616aa3576169c07f0505fad27611bf5ac429a3287f77fe17c9697ff4ea39a955615534324a9d39bd60001b6153df565b6169ec7f59fa2bc990dbd027eb8293fae49379d6e7cf7a2428cc6ba222350724ef85f9ed60001b6153df565b616a187fa39e98762bdf9a1473933d1a9a310cb283b2cc6dbbe3ef7349725a4977e1942d60001b6153df565b68280e60114edb805d0368056bc75e2d63100000840281616a3557fe5b059250616a647f3ea03c67b7436c50f0e000d67f9cc76daa691620267f85a14504eaaed4847f6d60001b6153df565b616a907fce5961db4c1a04f1f8c2f9af131d650675ba333dd075fb873a8e59d9464a91fb60001b6153df565b680ad78ebc5ac620000081019050616ad0565b616acf7ffce0ecef3e850a9ff19935f216d8139104295e7f80e2c6f3c921bed7d358341960001b6153df565b5b616afc7f23e31166ea24247d1011b5edd5515d646eb074fff4ed8e8e67246d0cfc48519f60001b6153df565b616b287ff4c3e257c580f1ee065615a767f7c2c7cd33d12cec16baf63e5e520da7ab939560001b6153df565b680ebc5fb417461211108312616c4757616b647f1f4ede70cd4ed5e3df87b570f80e274166c0c4fe7adefd0c9d71b1e2f06910ad60001b6153df565b616b907f0651b874402d08bca25e4278e92f9f7c2b8da5988db22363565d5d8131f15e0060001b6153df565b616bbc7fb0caf9cc4713e6c070f4384aa134e9e48540543d7da504f6e812304ff22757f660001b6153df565b680ebc5fb4174612111068056bc75e2d63100000840281616bd957fe5b059250616c087f2b3ccb5b4431d7fbf733a5973988809887fe9cb96487da42509383d75d21731c60001b6153df565b616c347fabf5a8442a8bf87e50225ea9cbc4a507f6a1d9dd077e7c0bd7a5cb4ec3ccb37360001b6153df565b68056bc75e2d6310000081019050616c74565b616c737fe73ba6b6046756b3503b220c8f1cd309eb8255b53619cf9d7b4d3d1eadd8cf7760001b6153df565b5b616ca07fe5cf5698dcbdcefd3b9a0a197ef00de1bca0f41ce5493c0224b2fc4d95fcd54a60001b6153df565b616ccc7f0c24fa121ee36c5882d60fef1a224ff7527b3cf2b1a829ee4126f4ff9953c28660001b6153df565b6808f00f760a4b2db55d8312616deb57616d087f781c9a058c785776d1b009208a14485fbec7afb99bb48fd1dd958be0f60792a660001b6153df565b616d347f041dc14b48dfafa37bf6be38cd94c53290ff5253f6dc276bb7a7c2feb21c8acd60001b6153df565b616d607f7fd8bd3ee24373af9d3301d583ac9049430fe965f09b10814b86927cb9ea389760001b6153df565b6808f00f760a4b2db55d68056bc75e2d63100000840281616d7d57fe5b059250616dac7f27b010efc80ee8f1455b5f944fa5064116e3866c96ef572403741c7bcc00448560001b6153df565b616dd87f334d0ec060f12209ce0cc3104d0dc35ac76e48b197a99651441c4d45e1ee6d9560001b6153df565b6802b5e3af16b188000081019050616e18565b616e177f9359fd9481c47f4c86e5d320eef4eed6c4236b662d7c0e06dbb2761330c635d060001b6153df565b5b616e447f402ec0389c490a8a2f0c196c64a3656ad56807b23711c0e6fb4476c22317952960001b6153df565b616e707f0121e51f92fc48c320d44a8fa79f5e5ac3314a045317e5ae18fb7b6ce1490af860001b6153df565b6806f5f17757889379378312616f8f57616eac7f96ae510b17a6b1ca7bd8fc760ae47fc0837a5ba72cd065816d5f8ff89348ca4660001b6153df565b616ed87f32f2e836d4821cb35469705e1f1edd4e1c797bdf692eb469d5db18c889c277b560001b6153df565b616f047f9d6d3527f1bb1ea0f06970d86b737dd956f8f9464dfba2d67918f253cfeebe1460001b6153df565b6806f5f177578893793768056bc75e2d63100000840281616f2157fe5b059250616f507fc00454d2d4886f95b68cea05c67878b88124baa3a4439a977c12794a61b4902360001b6153df565b616f7c7fcf55d52ea684236938078c6ac994ec866455bce1adc33f4538656c226106ce7e60001b6153df565b68015af1d78b58c4000081019050616fbc565b616fbb7f72bedcddb98ff81d073f921a18c6b9074026e71079ca583962b50f09c058b7cd60001b6153df565b5b616fe87f91c8db69b86cdc41dbaffac433437eadd33fe2c9c0f6ba1520e4352bd2fc301660001b6153df565b6170147fb5fc01ea3d63932cb15e68aee56e82cdac4c1d0200b3eb3e475feaabdff8e79760001b6153df565b6806248f33704b2866038312617132576170507fa1823c0985f8916af7ff678e31e5f8d8db5e936004aa3b39ba3c4864a68276fb60001b6153df565b61707c7fe293b5eb516e8d03e4c2bbc9bd2293a39d53c2faa56a6c6a56aab664bf80204360001b6153df565b6170a87f9470b504b3bf0593f4f0894c686d519b85bfd8660f4341a869dbaaa6c2a7a41360001b6153df565b6806248f33704b28660368056bc75e2d631000008402816170c557fe5b0592506170f47f3af1254b1058d66d7bfe42a4de3bd5128918d1423e5a2ecd5195272287e29b4d60001b6153df565b6171207f111523abae47ccc25c7afd9cca8ee1f50d83da1c87c6c56491790279b39b4ea660001b6153df565b67ad78ebc5ac6200008101905061715f565b61715e7fdba95c89df2b2c302715f189fbf3e8afa18ed02a0c59d60fce3570e390e6bdef60001b6153df565b5b61718b7f6316ad9c2f036322af3911484d11e152b6d666f6da2904d8264cc3d3d2b80eee60001b6153df565b6171b77fd5a28627aba873ec250cd7139b8402995822d6fb272bb09381926ea187bd23ec60001b6153df565b6805c548670b9510e7ac83126172d5576171f37f2b6f2cd02f0d47badd5586bc1d9f58ff8b6f2a00b766e06321fa78fcb406813560001b6153df565b61721f7fcf6295743d6d9b70df97a10e09b7b1f265b2587afd80f5ad047d2f5c5aa5ce8760001b6153df565b61724b7f70959ebdd95590440af102dceff0d55bd4fe599507ae4e7a40b420a10cae540b60001b6153df565b6805c548670b9510e7ac68056bc75e2d6310000084028161726857fe5b0592506172977ff770e21630afd1c7aa2fc1949362973cfbf87c1eb30b824376a97730f9535f1660001b6153df565b6172c37f784b5eba7288ce0229ef72abf84d8b40e303f13e5ba2b81067cacdda35d7bccd60001b6153df565b6756bc75e2d631000081019050617302565b6173017f156e042116d7446a37fcb3d4ec960f9047cc18a02b4dd1eb8b734cafb9605c0060001b6153df565b5b61732e7f0db1de3120dc404f4f8021def344b3c62f6ad502f740f40feaadf8129088e01160001b6153df565b61735a7f02d82c98cb824b016938918581fa19f477ce037165d9d45d81fc649c9f321d2a60001b6153df565b600068056bc75e2d63100000840168056bc75e2d63100000808603028161737d57fe5b0590506173ac7fb8b70f939d04cc8d75e576332b9da5134ecca82a3e604e74f291f1130da038b660001b6153df565b6173d87fc8638c5409badc3a194c6e9b05f173124591b35009f05b7b93f8c7ac08f8988e60001b6153df565b600068056bc75e2d63100000828302816173ee57fe5b05905061741d7f08b9aee5b762bf1bc8db453d9aec5cec295ae5a677a9b26d440cdd9fc6973c1260001b6153df565b6174497f6cb11656fdc9d3015f974ed28279796e17070c5d53f72ccb82f50b82bc4723cf60001b6153df565b600082905061747a7fd72baafeeac9478eeccd9951ddedf17ff7847642eea99342d45b7f5097b278b860001b6153df565b6174a67fa4c6691648fc2fbb9500367982871b44ea6f400512f6ae3fc78f3c3f987ed42260001b6153df565b60008190506174d77fa1de7af863295adb149458a9b54d21e22cf985e743af8fcec44e86f771ddfad260001b6153df565b6175037fd6c2c10cb08e09aeb957267ee23223e3b865089983d3ea838a579f2c2f5217ef60001b6153df565b68056bc75e2d631000008383028161751757fe5b0591506175467f4e5a98be01125eeff80c82c25e9fb9e7b02202a87b5680973ba14888b4a2dd1060001b6153df565b6175727f597baf07b0aeb0637c340154dbe8e11fe620c09c4034c72c7df03665ef6cd8fa60001b6153df565b6003828161757c57fe5b05810190506175ad7f04208f16ed89180341d8d28de15f2cb7beb6514949a9f767cf9b5dce70daa00e60001b6153df565b6175d97f700add0bad6352b737db6cf0f4c820160e12e7c7bcc17138afe55d7dc67f2cab60001b6153df565b68056bc75e2d63100000838302816175ed57fe5b05915061761c7f89c0d9d75ead7925f8f92ef643044933a36176181961cfe6c033df79346d2bcd60001b6153df565b6176487ffb5cb14ed3f36ba24aee09acdcd10ddcc6cef0c8015b8dbf277d34419b5be26c60001b6153df565b6005828161765257fe5b05810190506176837f9ee2cc40b8ab5263af95bc1fba71221946d091db613b8f93c440ee62d806ffee60001b6153df565b6176af7ff2f99f8aa918a208cfa8b8d746cb4db602795f57f17fc7210b61f1e70033ce0560001b6153df565b68056bc75e2d63100000838302816176c357fe5b0591506176f27fecc1504a6f1872489c1e37269dab8253af49f886d0df7ca8481b19675f6414a960001b6153df565b61771e7f07c833df720764d188697faee613c532579bb7e21ed42a35ff67f744ec1c3b0860001b6153df565b6007828161772857fe5b05810190506177597f84fd7b0810797764865edde09223268a68e6d7525e6ecbadaf3dae09414e91d960001b6153df565b6177857ffc0b2be7401f325ebfc926f22bade8876e8ff231259625a9f735df4b069f724260001b6153df565b68056bc75e2d631000008383028161779957fe5b0591506177c87feda0abf282f0c681f7a6bea7294ec51e5b91579240b3a5869b70a821513422ce60001b6153df565b6177f47f33f4c27456bb21e26cd309307cb7936c191fb103606137f97c2c77cab81cdc4660001b6153df565b600982816177fe57fe5b058101905061782f7f0b0a463cf0a1c345b1a831db4be2e862990963ad0466c72e67296591cb8a44de60001b6153df565b61785b7fe3cb1a8a990e03b2f6482a7a138828d42d03c3b912d9fe02f1d8f1abe3c7880f60001b6153df565b68056bc75e2d631000008383028161786f57fe5b05915061789e7f484eba67c966520b3c3f87a9b8eab2034364974b900e018ff0df9689b24821aa60001b6153df565b6178ca7f31a5a8af2a9b00d798cedeb7efb46d9a3227c50b361e48082068d5b91294663c60001b6153df565b600b82816178d457fe5b05810190506179057fe0fe1ff2347fbf5e0aeed6107768b2e6ab4ba2b14de005486d84a54e35a6c9e860001b6153df565b6179317f8182237f0d31121f22b1fc0338fc2685dbcdddd1ff1aa1cd20946bdf3367afbd60001b6153df565b6002810290506179637fb531577b46cfea8a0f0479f45520255c37d62cefeefad875161a20bb6916480760001b6153df565b61798f7f313d3cc6ccbaf2e16f0517b2aa4326497926a47540250bdf393e884dd6ec74a060001b6153df565b60648186018161799b57fe5b05955050505050505b919050565b60006179d77f6603744b862ab6dc76e6d45ef526e659083d06b697b00d6c702452eccbbcbc0460001b6153df565b617a037f6a49a08508150c5d74a9e797da5412ffecda75c75e3f9f6cf8ac1d076aed017b60001b6153df565b617a2f7f9e338bcff6c9fa839ea936f99d55c006573ff2410ee796c8c578f80fb4b1476260001b6153df565b617a727ffffffffffffffffffffffffffffffffffffffffffffffffdc702bd3a30fc00008312158015617a6b575068070c1cc73b00c800008313155b6009613a75565b617a9e7fbdb879f854bb361f61c66fedce7851398eccca5f9b11421026790520dbe7330c60001b6153df565b617aca7f1d4106cee033b42bb28453b29aa0514f3927be014f80298cd53c58a2cc144ed460001b6153df565b6000821215617b7d57617aff7f9ffc9f9165e96c5cec8064de6562074aa4bac40b8e0ff74e7c050644d6db914360001b6153df565b617b2b7f1c1a6bf06a86628b0777bf190212858d70d2cd26d797eddea7239e104f67dc5e60001b6153df565b617b577f91de43806e6b4c93b6310ffa0a64ac1345b1869837c53cd51a4ce9551ee79a0b60001b6153df565b617b63826000036179a9565b670de0b6b3a7640000800281617b7557fe5b05905061987c565b617ba97f710f40b391df50eaae53e451c37ad0bff0c77d8a26f4eaee1ed8318841ca3c7460001b6153df565b617bd57fe3b24104ba4f28e8f4e45cd19101ff28c8b19ddcd113c9ca8df4f2142fac388960001b6153df565b617c017f132d6291004a07f16d0593dd55ca63dfa97424be4fb59f0316e4f4d586bf092e60001b6153df565b6000617c2f7fbf178581b4a8bd0d485eb7d309792ed64e29317921eb1ad6928122819990cd8560001b6153df565b617c5b7f4b73530e933c77adbf16e42a80b079e6465973fe14e96d2ef191423464b5d9cf60001b6153df565b6806f05b59d3b20000008312617d7557617c977f28c202a4fa617d7971cb39c3dd4cd40c55eb25a7ad2bfd29a623f97a5c2a395060001b6153df565b617cc37f1ba6b8a8de1c32823cfac339928d64937a118b4c6d43b0f781bdbc3ae120e8d260001b6153df565b617cef7fd4b128d003931b1602679d18f1f1a759fce9d11915bfc0a0a5d82fb37119741460001b6153df565b6806f05b59d3b200000083039250617d297fc7b2515a6893b42db051c9bc6887577ece63d35adcae1e97144222515ceeb39c60001b6153df565b617d557f9767975d425cc62d4c50edb1878d2aadb5d1873b1dfa1cfde2a4a50bb07c69d560001b6153df565b770195e54c5dd42177f53a27172fa9ec6302628270000000009050617f65565b617da17f07ec3da6962ab3443fe25e4782bc420f041f271f4e2c2c1e41ea31ec574b498160001b6153df565b617dcd7f661e63e3bfe69a5481fd378700c3a30694d16dc746bd559dd5b9e1d497fdea9560001b6153df565b6803782dace9d90000008312617edb57617e097f3785f3f40071b38454e95841c68a76b29a54b0286f0a37042cbb0b3fc8bde96860001b6153df565b617e357ff4ac48640a5cc6581ff67074a76f4d075f64dd6791f2c0ee2867cb9b1abb421960001b6153df565b617e617f889a36601f82fc52f5548abb84d1f5868f98023c6ad7b75dc6e2b86c604e302460001b6153df565b6803782dace9d900000083039250617e9b7f0b1c37b4156ff49c92652db2245ffe10f0b1ed61e4fbfa83deb1fdd7ef0d9ec060001b6153df565b617ec77fd599b74ef5fb374f32e66fafe9d91229dd5ea9bbe42ebc9c9e369d45a67b9df960001b6153df565b6b1425982cf597cd205cef73809050617f64565b617f077fc05ed50e42b5218441d82c66e1ac1498481e60af916f8357ba5369d90bbfa76460001b6153df565b617f337f8c740e7289f8bec068c7716d88156a077a04a58a6ce1ce09d8d87f6e4286a1cf60001b6153df565b617f5f7f11d6764fc64e11bea7ef6764e1c8e9763eda7b809566d1dc14e2ee76bda9ea4160001b6153df565b600190505b5b617f917fe19248d93c4142e89f02c948c7b41874643d099f8f3c9806910174a58440e69660001b6153df565b617fbd7f4f109f8d42ef491ede922a778a821baff53572cccc88f1cb3076282db7b1380f60001b6153df565b606483029250617fef7fccc83beb548390fbb57fe46719ec24dc3109f9c65afc25a2e784223bf6ace68560001b6153df565b61801b7f23629132dcacfc6e461c74305057c54a0d94e27778e8d26ef165babc08c8787b60001b6153df565b600068056bc75e2d6310000090506180557fdb70ef3e5349656acaf4bfd39c162434a5dd30fdc5ed51cd6b1c7d116c8569a960001b6153df565b6180817fbc8b07fb08fad687d2e7dd3e137d525be659791a9db15f6080dd9c218e5e63a060001b6153df565b68ad78ebc5ac6200000084126181a6576180bd7f7af7a97bf5f0c230016e7431a39f93e9397911f74ae9af11fe119c64a3b8509b60001b6153df565b6180e97fa4c983995cd34fba0b7665c4b862417abb45618fa811f360c792718feb6cfe7360001b6153df565b6181157f3e5e18d2128dcda7a3c51ec24dd69ed7fb3cf52476caeafa0fc9cc1bd056c2fe60001b6153df565b68ad78ebc5ac620000008403935061814f7f6ce1407a57f7ceacd45205a97867ce6d3eff75ad30b205935ec2a882cc2c41aa60001b6153df565b61817b7f97eb016396da8decddd8bbc4903417a2404abc0fad5ce36252e97ed57c08f8f160001b6153df565b68056bc75e2d631000006e01855144814a7ff805980ff008400082028161819e57fe5b0590506181d3565b6181d27f7a222f19097af0b8ebe8c4b3c271a3e1bbb95c2fca82e1ec497250ded78a4c0060001b6153df565b5b6181ff7f805a7d593b296a2b66ea0198b850ae8d06043f1640de3e48ad3083925acffa1060001b6153df565b61822b7fb98fa6d44a9bd420c1a47c3e06f9706d327ce038cac04d19f1c644d7fc63bcbf60001b6153df565b6856bc75e2d631000000841261834d576182677f6dc70e2d85c9bd8acbed97f27b977a64cb7839b9e42633d1b46f9b036c5128e160001b6153df565b6182937f04f6bb568e13485a2c8a77970954d846137ff4337ef9d0c54fe4611388842ae860001b6153df565b6182bf7fb6b77963ea2a5a58811478a28f586ffc54e033daf49f6036a783b6eae2ed5dca60001b6153df565b6856bc75e2d631000000840393506182f97f3047dcef9c74f0035dabbbdd2d76608c30d2d9f42f28c357de0d9a6f5f6a05d460001b6153df565b6183257f419fdbd313b9ce9839e9d4b1ad0b81d8ce89fede7d2718138eb64448a111f0eb60001b6153df565b68056bc75e2d631000006b02df0ab5a80a22c61ab5a70082028161834557fe5b05905061837a565b6183797f78265ba26cf98ba8b9f01378498d5783992c881672a03d99b00a4c5d46b9549060001b6153df565b5b6183a67f7d8f650f49754abeb5011fadf4ae00af9228f6819e89d9b268e3ff0bf7c0fa3060001b6153df565b6183d27fc1d05e4b5dad4f9a17797bed4d3888af96549f8bf1d0af0a2c4bb6b4e3c6b16560001b6153df565b682b5e3af16b1880000084126184f25761840e7f61ba792ca7d7b22def1affea71a1123f05e945f1c1a132ba2a4b64884799c9bc60001b6153df565b61843a7f6a3727128c70b59a167e729dad824b40e1da03edc85a66b7e37058bc42c719bc60001b6153df565b6184667f0521d6055fa0069604d409a10bfc091a96f09bd16b31cb9c5896f4abe4e78fe260001b6153df565b682b5e3af16b18800000840393506184a07f070944c2f2dc8948157040166b057a7d8893c58300fec401a2db212d1ec62f9060001b6153df565b6184cc7ff00325782656fa168cd75d7bdbb5703b163e22f7bf60cf090672c80e8de3443160001b6153df565b68056bc75e2d63100000693f1fce3da636ea5cf8508202816184ea57fe5b05905061851f565b61851e7fceb7f0919299aac82bf2f5739c8b90acd7e7eba1c7e97ccf3dea5588fdb267a560001b6153df565b5b61854b7f4c523f43931e9fc49c479095da1ab08aae4691c7a9d1e8c775f93717e6697b6660001b6153df565b6185777fde7559d37461b938c70fe551914609ca870da7fb47a2fe92f01c2445c483b1ca60001b6153df565b6815af1d78b58c4000008412618697576185b37ffe7c77d3f2905df59ce6ef6212574caa23c3ff932a9a20429d711421a02806ce60001b6153df565b6185df7f3ddb67d1fd7a64e04ba821306f2da4d739a5c87fc7753080fdfb58cd0652f7fc60001b6153df565b61860b7f1025142c8ba61bedb893a82dc956e8aa6c2e93daa12bdd4d506176813413bb1860001b6153df565b6815af1d78b58c400000840393506186457f33e996955fba6856fdcbcdcde9073d29245874ea784831bbc2715ca0dfcc51e760001b6153df565b6186717f2e98d38eafb9450e22fecf0f84f48e746102f1bee8c2985f43cece2335e0b00360001b6153df565b68056bc75e2d63100000690127fa27722cc06cc5e282028161868f57fe5b0590506186c4565b6186c37f47615a45aad371bbecd97296e438b65fc99573cb6dc24eebeea45ddcba95299960001b6153df565b5b6186f07f12a0c1c60abaa4e2e79d89d81f48519554651861ed9f168e18279f5872b40ebf60001b6153df565b61871c7f5f135e138418337ac5c3bdd2e76ccd9cd3220fd08e641a5613d69512dc9e9bbb60001b6153df565b680ad78ebc5ac6200000841261883b576187587fb3ace12e78288ddcbabe9aa7830e86314de03b4609d686e08abc6cea618a220060001b6153df565b6187847f2f8dbc5acb955780846833f47309ddb10b95862260661165e8693304458e309660001b6153df565b6187b07f059078fc27670543c491910de9e366dfadefa0383607112382ed74945a36a8f560001b6153df565b680ad78ebc5ac6200000840393506187ea7fbd8787648837ca4047611ff6da351580f4d95b70bfff222525cf85c1700391b560001b6153df565b6188167faed2b56272a449216b2b1f1c1b20039ec9d19ff891c3e5a7ac24104ab4896ca660001b6153df565b68056bc75e2d6310000068280e60114edb805d0382028161883357fe5b059050618868565b6188677f7d8041f68209c84c744c4a75cec2af589dd8bbcc8a745cb137ede0c954ad14a760001b6153df565b5b6188947f1d2b7702e5cc96a97b6c7be229ea0e375b605cb4873269752c4cf3314d85aa8d60001b6153df565b6188c07fe4255d40177c13f8beef001a01711ab52bc875a366d8a8f0008b6d8303a7db3760001b6153df565b68056bc75e2d6310000084126189df576188fc7ffdbdd750116d2a046d7ecbc83773f84ca56a493d4b27baa6ccfc891d0f1c569560001b6153df565b6189287ffa6d254aee1a01d616d7f0777f8b70339603bd2e743ff41fc3eb44cb75df87b960001b6153df565b6189547f84a3c20c13112011f7d5dde037eaaff5849301fea628069f51f5bcb01eaa69d660001b6153df565b68056bc75e2d631000008403935061898e7f7cf2afdf1b3142aee1de7ea27bea6cce310acd6b1b0c75722f0368a9c3ef94e960001b6153df565b6189ba7ff006ee7068d2cbcb786bd5ebdc84ccc4d0ab36fe9fd9b00d21aaff43da155d4660001b6153df565b68056bc75e2d63100000680ebc5fb417461211108202816189d757fe5b059050618a0c565b618a0b7fe583b06eac97353d0ff4bd9baa38f647b92a610e6a70185cc8b4c59981e2d3d160001b6153df565b5b618a387f23ee693a4d28312a9def5bb67f28051dc08954178ac8c6a99bd3611f3ede923a60001b6153df565b618a647f07503d3d2ce3b15dda30b6de1073ebdd1b87cd99b96e9573bf784aa71890fef960001b6153df565b6802b5e3af16b18800008412618b8357618aa07fec2c19a72c3a6ab45e714d801eda84b0c95a7e064bbc6bb3271b06a7820b46f460001b6153df565b618acc7f1c257ed60e2af6238b450518259e0f106dd0967a46ecac496c039601187a1c2460001b6153df565b618af87fb6aaffcf4c7bcc557cf2ed6ad3f876cf75bd255d10ff34d178bd7d7f7a5f0fb660001b6153df565b6802b5e3af16b188000084039350618b327ff8eec3bbbd428287f31a94ad611dd00d0f9748f2708fd03982c79876ce574aa260001b6153df565b618b5e7f1e0ead2001d2ca04f2d62894cb413c363c6439ef0ccd395e382ff694fd265ece60001b6153df565b68056bc75e2d631000006808f00f760a4b2db55d820281618b7b57fe5b059050618bb0565b618baf7fe6abce81b6afb00697fe33f1555b17ffdb185dcd3317f3fb8c751065296a9e9a60001b6153df565b5b618bdc7f12efa59ad9f2fbcbd1c408558e411668bddbf24d96895216b736c8d5fbd0f43a60001b6153df565b618c087f9745baf78ffa78b5ea76c3832102ad9f89c94001934f7883b968bbe6995f416c60001b6153df565b68015af1d78b58c400008412618d2757618c447f7164f448c8a55596ae371fa4d01ed2d280113303a6193fba2b3ec230e7e1b00a60001b6153df565b618c707f8f2f6885e0c02037769ef8a799a965a7974be536126ec579168ca6a70e8366bc60001b6153df565b618c9c7fc4513f37c3809539c0d7d5a706593c858ddd0a195c0ec1ad6f03bee00b117e1260001b6153df565b68015af1d78b58c4000084039350618cd67fde4724845db98e8fca24d9fed5ecdf0511cf8584cf25f67c5adaef214a4b657060001b6153df565b618d027f0edffcd09bf23e58a56b11d9fd2730c9460b188d757c6d690b11f6ee3434df2b60001b6153df565b68056bc75e2d631000006806f5f1775788937937820281618d1f57fe5b059050618d54565b618d537f3bf335665c831bc42885f4c4f5a661a0eaac6452974d4d89b0cad02e13f920a560001b6153df565b5b618d807fdb32284aae92927243fbc87b40e9a91f56392b193b967b9b47fbece50af2557660001b6153df565b618dac7f5f319f332aed3a677c60e30196d9414f0b45002c13bc12fe47d9250806d3ab5560001b6153df565b600068056bc75e2d631000009050618de67fd25adb26b09b92471ef07f7eb1f0dfabe151779c4086e71365cd60a1f054477e60001b6153df565b618e127fae831f90c9720de4bd357c85aecc0a2ed7c793b1b64419318415f79b5b5ba24b60001b6153df565b6000618e407f13a59d57fa9fb186a09cb13db0555db2580cc844bc4f56f4978fe6352eaf61f560001b6153df565b618e6c7fdc67a0744f97707e1516f99b7d97619305a844cff712ba8bb047d1862b833f2660001b6153df565b859050618e9b7f42ed1c52f98c9efc709b1839d7381ae4f7e79682229488485a9e535e5db1c99a60001b6153df565b618ec77f3f343d10c3ad56a07dcd790e36df3c48764b37f68fc46ef0667529c1428c09d660001b6153df565b8082019150618ef87f40bfeded5813c9961de7ae74de50e8ebf99695523139bdeaac2ba16e99e9755960001b6153df565b618f247f546464d511b4dbd9e175112ed79738997adff96602e612d8628d4f78911888c260001b6153df565b600268056bc75e2d6310000087830281618f3a57fe5b0581618f4257fe5b059050618f717f5df678d9a7a6ae9a9498ffe7f8d727ae4de909f0b296ab2d694b2d309d2b646f60001b6153df565b618f9d7f5174487126fc5f2fd6f0379d294212de03f7b2f5d0dd279b4edbfdfc3e19e2eb60001b6153df565b8082019150618fce7fcf88976b65831ffe97b67b7b2ca013f7e5fdb847fbb93c7f2d7034533028158d60001b6153df565b618ff97e0558671959e5134d01ab0f86ae54af18cdefa82c5fb5316710dc5ad95f5dcd60001b6153df565b600368056bc75e2d631000008783028161900f57fe5b058161901757fe5b0590506190467f1cd95f17c41cafe1b13deb79ac956b5f958ce3efa711ba409d193273f812258a60001b6153df565b6190727fa34f0dfd30ef71733809d85683eee1009c10c65ec25271d7d9b2d272465c047e60001b6153df565b80820191506190a37f1426410cea942485931272d793a9f4ec5255c8d0f423ea227f721530107dde4b60001b6153df565b6190cf7f494659c81ab7e59032e61324f3c0073ae74295b96c9a247dc88db6f0cafcc6b060001b6153df565b600468056bc75e2d63100000878302816190e557fe5b05816190ed57fe5b05905061911c7f1041f8d0ca0bec305764b0cda20df1fa1b5b048a7e4d966072f7c096b6a7ab0f60001b6153df565b6191487fec785b35d8c27ebae08ebd898671e3fb113ad53755b142943087d76b60f697cb60001b6153df565b80820191506191797f32618ecd71d71820b399dceb4572c87b52fab009097cf45810bb2eb50972bf1160001b6153df565b6191a57f0c66c9cf36dcb9b7b3c8bd2315072a1978dfb9d3f81b58aa453a4cdb819699e660001b6153df565b600568056bc75e2d63100000878302816191bb57fe5b05816191c357fe5b0590506191f27f9fdd370c6b7cc675c6255331f249c10f8918ffe39ec046f6eb76d53a947c9a0960001b6153df565b61921e7f11c9697c0e03e81da28813ad061aa548447a4d8a9dc3b8c23d59b2d12d5d7d4460001b6153df565b808201915061924f7f391db74f7749b7ae2ee31c87ebf9bbfd82d2346742d80e5fa635a77b6bf181cd60001b6153df565b61927b7f1efa183081524998d6a056dc459be65c1b5e2c57e7156e7353f5c5a308de08fd60001b6153df565b600668056bc75e2d631000008783028161929157fe5b058161929957fe5b0590506192c87f7c80225555c21862d2127c45852b5b7e867187f90d7b479093a80d558ff363a960001b6153df565b6192f47f6bb4786a69207356caf0fd9ad4e477193225ae1222cc28eda8de5ded362a738860001b6153df565b80820191506193257f2bd95cc2b46a697fc9e6c3650198698b02cdc489924a9625765e7773ab16ae8860001b6153df565b6193517f6d70ac07c1523999f0874733cef6a7fdeb1cbeb1b985e73e5c2ae45bb5fce47860001b6153df565b600768056bc75e2d631000008783028161936757fe5b058161936f57fe5b05905061939e7f68c21f169be444da9ef45fe470d73b9632c50037aa8aa519cb49b2403965c2eb60001b6153df565b6193ca7fb5368c2771a467a192bc432cf66ede3a2e75b42e30e5f6c8eaceca14ea142e1e60001b6153df565b80820191506193fb7f0b197c00940bc34711a5c1bcf9f390aa0fc31444c572dc0d0ac1e8c2b9c1e1e060001b6153df565b6194277fcc9a6a7838ea3873cd8cb7797d8acf9701ffb04aeec1db4c8f7bdfdfe7e2d3e960001b6153df565b600868056bc75e2d631000008783028161943d57fe5b058161944557fe5b0590506194747f4ae223488edf92d1ef9df11b74835814de75ca75fb53a7c67a69c1f378d81ee260001b6153df565b6194a07f40437cc0071d40a545118470633ee8498f6ba07249e95bd277d662c8c3910d0860001b6153df565b80820191506194d17f6a98bd98d5b6402216f6a26d5e5c6a0e49aa041cd602f0480a92757414fdd3b360001b6153df565b6194fd7fd3d9002223246e6684f9b356dfa9d5c123bb45a59faf3a71c2d8509cd1b8aadb60001b6153df565b600968056bc75e2d631000008783028161951357fe5b058161951b57fe5b05905061954a7f5915e3cc2f4da8323007d0f13b60cc72c7d692077501c6c0b751d92bee102cf460001b6153df565b6195767ff374d3c08292c299c854216de162077cf1e7e74d3e8d95785370cce4a8a54eba60001b6153df565b80820191506195a77fe551b770c0283b7957336a0413cfc5695d9a74be29735d8eec8935ba20731a5660001b6153df565b6195d37f43e66eba524ad5a79985eb4b8c6d6fc7162bfbfdd871b9f070e97db31542f0cc60001b6153df565b600a68056bc75e2d63100000878302816195e957fe5b05816195f157fe5b0590506196207fd8a9b2676287d5379b156d6247aeb5c2f0fd0ed55c29065726548ea6fffde56f60001b6153df565b61964c7f7e808415cc1dbceed6d010c33f90e1223eeae1f554c79ec5cdffaa7d70f578ab60001b6153df565b808201915061967c7ec7b50af6579f36d212223599a7baf3371e84233a81a59f8730356090efe26260001b6153df565b6196a87f057ce259ad07027680b845518d99ae02983046d284d711d975c4fd35edf89ca360001b6153df565b600b68056bc75e2d63100000878302816196be57fe5b05816196c657fe5b0590506196f57fce223532276d9fabf2fe44c77bfba17b308e50a661a67b2752655cb8cb6552c960001b6153df565b6197217f4dbc79d412cdba175117302a3d855398fccbefe1f2052184b32dd42523991c6660001b6153df565b80820191506197527f55da710f8842795b5b2e959480ee14a0c4f9c3cfa812287cfa3af7316963641360001b6153df565b61977e7f805b231f29185d988c06992a4ddc8f42fa307198ac0ddf06216dabdf4e73bccd60001b6153df565b600c68056bc75e2d631000008783028161979457fe5b058161979c57fe5b0590506197cb7f5ba9d0c8bff42f59665649e0bd725b6ab0ab482566bd0ccdc0bb78ae418732e160001b6153df565b6197f77ff197e464f40cbe1f523b743dc74861641e5b4609d6d4ac255f5887f9f27cb66560001b6153df565b80820191506198287f94afe60d1248ac0a761f9e1237e351e82f9e7e83032f5e3866b4386013ebc91860001b6153df565b6198547f2e2220c3917686fb99da58ec04c3d2e5d0e5fd28f75995041eb4ceeca24f73f460001b6153df565b60648468056bc75e2d631000008486028161986b57fe5b05028161987457fe5b059450505050505b91905056fea2646970667358221220c69e46fabb93c158bf492a8396b23d34d4eda5cf5ad02120fed38f3cdba680a864736f6c63430007010033",
  "linkReferences": {},
  "deployedLinkReferences": {}
}