{
  "_format": "hh-sol-artifact-1",
  "contractName": "WeightedPoolFactory",
  "sourceName": "contracts/balancer-core-v2/pools/weighted/WeightedPoolFactory.sol",
  "abi": [
    {
      "inputs": [
        {
          "internalType": "contract IVault",
          "name": "vault",
          "type": "address"
        }
      ],
      "stateMutability": "nonpayable",
      "type": "constructor"
    },
    {
      "anonymous": false,
      "inputs": [
        {
          "indexed": true,
          "internalType": "address",
          "name": "pool",
          "type": "address"
        }
      ],
      "name": "PoolCreated",
      "type": "event"
    },
    {
      "inputs": [],
      "name": "SPONSOR",
      "outputs": [
        {
          "internalType": "contract SponsorWhitelistControl",
          "name": "",
          "type": "address"
        }
      ],
      "stateMutability": "view",
      "type": "function"
    },
    {
      "inputs": [
        {
          "internalType": "bytes32",
          "name": "c__0x5eae7510",
          "type": "bytes32"
        }
      ],
      "name": "c_0x5eae7510",
      "outputs": [],
      "stateMutability": "pure",
      "type": "function"
    },
    {
      "inputs": [
        {
          "internalType": "bytes32",
          "name": "c__0x75a1cbac",
          "type": "bytes32"
        }
      ],
      "name": "c_0x75a1cbac",
      "outputs": [],
      "stateMutability": "pure",
      "type": "function"
    },
    {
      "inputs": [
        {
          "internalType": "bytes32",
          "name": "c__0x8f060e6d",
          "type": "bytes32"
        }
      ],
      "name": "c_0x8f060e6d",
      "outputs": [],
      "stateMutability": "pure",
      "type": "function"
    },
    {
      "inputs": [
        {
          "internalType": "string",
          "name": "name",
          "type": "string"
        },
        {
          "internalType": "string",
          "name": "symbol",
          "type": "string"
        },
        {
          "internalType": "contract IERC20[]",
          "name": "tokens",
          "type": "address[]"
        },
        {
          "internalType": "uint256[]",
          "name": "weights",
          "type": "uint256[]"
        },
        {
          "internalType": "uint256",
          "name": "swapFeePercentage",
          "type": "uint256"
        },
        {
          "internalType": "address",
          "name": "owner",
          "type": "address"
        }
      ],
      "name": "create",
      "outputs": [
        {
          "internalType": "address",
          "name": "",
          "type": "address"
        }
      ],
      "stateMutability": "nonpayable",
      "type": "function"
    },
    {
      "inputs": [],
      "name": "getPauseConfiguration",
      "outputs": [
        {
          "internalType": "uint256",
          "name": "pauseWindowDuration",
          "type": "uint256"
        },
        {
          "internalType": "uint256",
          "name": "bufferPeriodDuration",
          "type": "uint256"
        }
      ],
      "stateMutability": "view",
      "type": "function"
    },
    {
      "inputs": [],
      "name": "getVault",
      "outputs": [
        {
          "internalType": "contract IVault",
          "name": "",
          "type": "address"
        }
      ],
      "stateMutability": "view",
      "type": "function"
    },
    {
      "inputs": [
        {
          "internalType": "address",
          "name": "pool",
          "type": "address"
        }
      ],
      "name": "isPoolFromFactory",
      "outputs": [
        {
          "internalType": "bool",
          "name": "",
          "type": "bool"
        }
      ],
      "stateMutability": "view",
      "type": "function"
    }
  ],
  "bytecode": "0x60c06040523480156200001157600080fd5b506040516201dfa53803806201dfa5833981810160405281019062000037919062000464565b806200006c7ff1b853c90de5ec8f2626b291240c0329ab402bf7285c35364e855b314f3e25cf60001b6200044460201b60201c565b620000a07f8f172e65181491b962547d22107d011eea6571c30ea82e2f64ceeb978d54a64260001b6200044460201b60201c565b620000d47fdb7e6aecacee55715d6d3167a7dc2cd5d18ed5dc0082172394bf52850f5a54d160001b6200044460201b60201c565b8073ffffffffffffffffffffffffffffffffffffffff1660808173ffffffffffffffffffffffffffffffffffffffff1660601b8152505050620001407f466137b22d0c7dd98c368f073da2069606214008c595943cffc159df242812f960001b6200044760201b60201c565b620001747f3489a113de9124b0929876167b6198fb735181de2da5af2333e46d37805e72d960001b6200044760201b60201c565b620001a87f4997d55b258e281d386832b71c4b1f39dfbfc9b60de5200bff4353f97009118560001b6200044760201b60201c565b6276a700420160a08181525050620001e97f2e424da4495ef8b0b212e55d53bacf070e0af6c694293f155ca116846b82e63760001b6200044a60201b60201c565b6200021d7f6f1b1afa3f6a44a4110e73cd9c14272be70b446bef34278f8ffe6793eb68d09060001b6200044a60201b60201c565b620002517fef2fa29f7eaa99ef889d29b9cd3138a25d81be5964493c4176cd60b62e8f140560001b6200044a60201b60201c565b6060600167ffffffffffffffff811180156200026c57600080fd5b506040519080825280602002602001820160405280156200029c5781602001602082028036833780820191505090505b509050620002d37f58d103e9c798bc17d24d9834404635da729accb24447962d652c7064b3eed91660001b6200044a60201b60201c565b620003077f1d1ce633b3a60a24207c50db18c6f9777ac240f18b57455aad7999c4d3bc23d660001b6200044a60201b60201c565b6000816000815181106200031757fe5b602002602001019073ffffffffffffffffffffffffffffffffffffffff16908173ffffffffffffffffffffffffffffffffffffffff1681525050620003857fa4e888ddd449cf7816e020a89430209513c1c0aee6283949e3600b2f905994c360001b6200044a60201b60201c565b620003b97ffc8eeb1551c8b15c05ac5f76fc0fbbb7fa6e1eccace23caff76c4f3c2d99db2560001b6200044a60201b60201c565b73088800000000000000000000000000000000000173ffffffffffffffffffffffffffffffffffffffff166310128d3e826040518263ffffffff1660e01b815260040162000408919062000525565b600060405180830381600087803b1580156200042357600080fd5b505af115801562000438573d6000803e3d6000fd5b505050505050620005e4565b50565b50565b50565b6000815190506200045e81620005ca565b92915050565b6000602082840312156200047757600080fd5b600062000487848285016200044d565b91505092915050565b60006200049e8383620004aa565b60208301905092915050565b620004b58162000582565b82525050565b6000620004c88262000559565b620004d4818562000571565b9350620004e18362000549565b8060005b8381101562000518578151620004fc888262000490565b9750620005098362000564565b925050600181019050620004e5565b5085935050505092915050565b60006020820190508181036000830152620005418184620004bb565b905092915050565b6000819050602082019050919050565b600081519050919050565b6000602082019050919050565b600082825260208201905092915050565b60006200058f82620005aa565b9050919050565b6000620005a38262000582565b9050919050565b600073ffffffffffffffffffffffffffffffffffffffff82169050919050565b620005d58162000596565b8114620005e157600080fd5b50565b60805160601c60a0516201d99362000612600039806102d9528061038d52508061067b52506201d9936000f3fe60806040523480156200001157600080fd5b5060043610620000935760003560e01c806355a7c402116200006357806355a7c402146200011d5780636634b753146200013d5780638d928af81462000173578063fbce039314620001955762000093565b8062e94d34146200009857806308ed56a514620000b85780631d073a7a14620000d85780632da47c4014620000fa575b600080fd5b620000b66004803603810190620000b0919062000c51565b620001cb565b005b620000d66004803603810190620000d0919062000c51565b620001ce565b005b620000e2620001d1565b604051620000f1919062001049565b60405180910390f35b62000104620001e9565b6040516200011492919062001066565b60405180910390f35b6200013b600480360381019062000135919062000c51565b6200050b565b005b6200015b600480360381019062000155919062000c25565b6200050e565b6040516200016a919062000f54565b60405180910390f35b6200017d620005ed565b6040516200018c919062000f71565b60405180910390f35b620001b36004803603810190620001ad919062000c7d565b6200069f565b604051620001c2919062000f37565b60405180910390f35b50565b50565b73088800000000000000000000000000000000000181565b6000806200021a7f4664d8b33c13761858c67ee8bea76f7b1064ee802e1435539fce3982a26d188a60001b620001ce565b620002487f293351dddbc71cd54a76813b9156ef540fe941bd394894b049c2c4d9fc9f66da60001b620001ce565b620002767f634219e96c792fc85a2199cdb6b8be542fa4f63f7082679cd4e766e10a37a0c260001b620001ce565b6000429050620002a97f6ac902c79dba6a085cf45bd6deb709ea65276123acd51adbceb04e5af6c8ad7c60001b620001ce565b620002d77f2d145d6374c9c442c5e973195b846848213a25adca787ac5fcf199ddb8da448660001b620001ce565b7f000000000000000000000000000000000000000000000000000000000000000081101562000417576200032e7ff847546271070d177581854ac34d1bd55a6d3c5b182bf07e94a1660880afd5ab60001b620001ce565b6200035c7fb05464517a60bbe056900fdc2dc51625fca528157aeee13875a9399015a6d0f360001b620001ce565b6200038a7f3e7d864508a0837b8d0647223f82fe15bea6dab55ee5c1852a06bc70b6b0032b60001b620001ce565b807f0000000000000000000000000000000000000000000000000000000000000000039250620003dd7f58fd67b979cf09091c02422daaa2dd3b003fa661d9131c07939fa99de3c2048260001b620001ce565b6200040b7f7e0ea095279b18c09160c90ea45a9454b8f76f280f92874328686b77495e484160001b620001ce565b62278d00915062000506565b620004457f41def708acf3a7d06a980b11ea0bab247888356f31cc0206b65381791329484160001b620001ce565b620004737f02a4a3fa4b683a9489057270a94e2d015325d5a2abedf117b59f8db2752bef1660001b620001ce565b620004a17f06fa57e428804da6c870510ae4efdb26610e8c78424b3d2888744dcb942ab3b260001b620001ce565b60009250620004d37f416673a30447260c9d32feeef0edd2c6a726715230ca165567b1d9cbff26b25c60001b620001ce565b620005017f99de698ff774f6d61f60b472688d830862f738a0132156a61112b292724c11c560001b620001ce565b600091505b509091565b50565b60006200053e7f2cc41fde7e957be0eadefa6f7407bb172eb1cf50fa85041ec354b3e3fcf53cec60001b620001cb565b6200056c7f66fe7eb34149b5cbe8367e2d14e147691f349120db2e1b7eb72d26fbbd0f55d460001b620001cb565b6200059a7fdee68a6874723a7d670417ce49ba7a5ce8fb022fafaeebb1e45cdb140077744260001b620001cb565b6000808373ffffffffffffffffffffffffffffffffffffffff1673ffffffffffffffffffffffffffffffffffffffff16815260200190815260200160002060009054906101000a900460ff169050919050565b60006200061d7f29383d2b5fccfe6243d83518ea8a13bcec4fbaf9b63e72f400424e351aa9da6e60001b620001cb565b6200064b7fa1b458a210f682a225edc6521d6f76da2906693897d9ef2af953b00efba17b5660001b620001cb565b620006797f6743e0ae474cde26b4ba4d0f48fe33a27361a79156ad5adfa4d3d550999ccb4760001b620001cb565b7f0000000000000000000000000000000000000000000000000000000000000000905090565b6000620006cf7f45fb37ab0d2c5c97e68bc5dac0ce89533cd5d8a7b2bdc48e54564adfa6fcf37b60001b6200050b565b620006fd7fb59a99124c82a4b7ec74de49444defa86bec3f52aa983d58ea36e1e965d1549b60001b6200050b565b6200072b7f3b14a696e6f36d1c9c85f947e1531e376e6de678e85c20e88d8061e8a19a7d4360001b6200050b565b60008062000738620001e9565b915091506200076a7f447fc18bbfb9f30a0d28ac628aa3e30bea0b7a5c610c54bececf52946d2791e360001b6200050b565b620007987f9a403650a03ccaa6ae199778116346eafc8a074e55bc7d4829bd3fd9e8eb4bef60001b6200050b565b6000620007a4620005ed565b8a8a8a8a8a88888c604051620007ba9062000a44565b620007ce9998979695949392919062000f8e565b604051809103906000f080158015620007eb573d6000803e3d6000fd5b5090506200081c7f987084b8eec09e8d9cab6ee86ffd527b663e89f231040191404a9bbf68872b5260001b6200050b565b6200084a7fcf406a3dfc59b1986daf06153f8b2b1b6072e8963bc5f235758055f0bfd8a89d60001b6200050b565b6200085581620008c1565b620008837f6884daa59b43fcf4c530cbfdfe8c1db0eab41b3530c16091c8e448fa10223d3460001b6200050b565b620008b17fff6ad11e07e554251ee7f6c6ccbe9beb2632ee73219cd96564409818fea8bfba60001b6200050b565b8093505050509695505050505050565b620008ef7f85f2440d3bb413e87063f72fc4b73b12a22bdfeb26af00edc6d66e81b2e166df60001b620001cb565b6200091d7f3a150163ba55e1517b963ccf2da19324a13f1ad865abb9cddb82043fd08dfbfc60001b620001cb565b6200094b7f34e9ed9a5e996923a8769a6b01249ee6d941739692e2712e169efeba4465198a60001b620001cb565b60016000808373ffffffffffffffffffffffffffffffffffffffff1673ffffffffffffffffffffffffffffffffffffffff16815260200190815260200160002060006101000a81548160ff021916908315150217905550620009d07f329cd91c48c66683c5b31a15b829f1ddeae0d32529263d548808e851d7e3bba060001b620001cb565b620009fe7fc27850424ca1a424c8c26281dc33cbc76f2991719eebb4eecd1f831cdf11585a60001b620001cb565b8073ffffffffffffffffffffffffffffffffffffffff167f83a48fbcfc991335314e74d0496aab6a1987e992ddc85dddbcc4d6dd6ef2e9fc60405160405180910390a250565b6201c5f1806200136d83390190565b60008135905062000a648162001304565b92915050565b600082601f83011262000a7c57600080fd5b813562000a9362000a8d82620010c1565b62001093565b9150818183526020840193506020810190508385602084028201111562000ab957600080fd5b60005b8381101562000aed578162000ad2888262000b9b565b84526020840193506020830192505060018101905062000abc565b5050505092915050565b600082601f83011262000b0957600080fd5b813562000b2062000b1a82620010ea565b62001093565b9150818183526020840193506020810190508385602084028201111562000b4657600080fd5b60005b8381101562000b7a578162000b5f888262000c0e565b84526020840193506020830192505060018101905062000b49565b5050505092915050565b60008135905062000b95816200131e565b92915050565b60008135905062000bac8162001338565b92915050565b600082601f83011262000bc457600080fd5b813562000bdb62000bd58262001113565b62001093565b9150808252602083016020830185838301111562000bf857600080fd5b62000c05838284620012ae565b50505092915050565b60008135905062000c1f8162001352565b92915050565b60006020828403121562000c3857600080fd5b600062000c488482850162000a53565b91505092915050565b60006020828403121562000c6457600080fd5b600062000c748482850162000b84565b91505092915050565b60008060008060008060c0878903121562000c9757600080fd5b600087013567ffffffffffffffff81111562000cb257600080fd5b62000cc089828a0162000bb2565b965050602087013567ffffffffffffffff81111562000cde57600080fd5b62000cec89828a0162000bb2565b955050604087013567ffffffffffffffff81111562000d0a57600080fd5b62000d1889828a0162000a6a565b945050606087013567ffffffffffffffff81111562000d3657600080fd5b62000d4489828a0162000af7565b935050608062000d5789828a0162000c0e565b92505060a062000d6a89828a0162000a53565b9150509295509295509295565b600062000d85838362000ea1565b60208301905092915050565b600062000d9f838362000f15565b60208301905092915050565b62000db681620011ce565b82525050565b600062000dc98262001160565b62000dd581856200119b565b935062000de28362001140565b8060005b8381101562000e1957815162000dfd888262000d77565b975062000e0a8362001181565b92505060018101905062000de6565b5085935050505092915050565b600062000e33826200116b565b62000e3f8185620011ac565b935062000e4c8362001150565b8060005b8381101562000e8357815162000e67888262000d91565b975062000e74836200118e565b92505060018101905062000e50565b5085935050505092915050565b62000e9b81620011e2565b82525050565b62000eac8162001236565b82525050565b62000ebd816200125e565b82525050565b62000ece8162001286565b82525050565b600062000ee18262001176565b62000eed8185620011bd565b935062000eff818560208601620012bd565b62000f0a81620012f3565b840191505092915050565b62000f20816200122c565b82525050565b62000f31816200122c565b82525050565b600060208201905062000f4e600083018462000dab565b92915050565b600060208201905062000f6b600083018462000e90565b92915050565b600060208201905062000f88600083018462000eb2565b92915050565b60006101208201905062000fa6600083018c62000eb2565b818103602083015262000fba818b62000ed4565b9050818103604083015262000fd0818a62000ed4565b9050818103606083015262000fe6818962000dbc565b9050818103608083015262000ffc818862000e26565b90506200100d60a083018762000f26565b6200101c60c083018662000f26565b6200102b60e083018562000f26565b6200103b61010083018462000dab565b9a9950505050505050505050565b600060208201905062001060600083018462000ec3565b92915050565b60006040820190506200107d600083018562000f26565b6200108c602083018462000f26565b9392505050565b6000604051905081810181811067ffffffffffffffff82111715620010b757600080fd5b8060405250919050565b600067ffffffffffffffff821115620010d957600080fd5b602082029050602081019050919050565b600067ffffffffffffffff8211156200110257600080fd5b602082029050602081019050919050565b600067ffffffffffffffff8211156200112b57600080fd5b601f19601f8301169050602081019050919050565b6000819050602082019050919050565b6000819050602082019050919050565b600081519050919050565b600081519050919050565b600081519050919050565b6000602082019050919050565b6000602082019050919050565b600082825260208201905092915050565b600082825260208201905092915050565b600082825260208201905092915050565b6000620011db826200120c565b9050919050565b60008115159050919050565b6000819050919050565b60006200120582620011ce565b9050919050565b600073ffffffffffffffffffffffffffffffffffffffff82169050919050565b6000819050919050565b600062001243826200124a565b9050919050565b600062001257826200120c565b9050919050565b60006200126b8262001272565b9050919050565b60006200127f826200120c565b9050919050565b600062001293826200129a565b9050919050565b6000620012a7826200120c565b9050919050565b82818337600083830152505050565b60005b83811015620012dd578082015181840152602081019050620012c0565b83811115620012ed576000848401525b50505050565b6000601f19601f8301169050919050565b6200130f81620011ce565b81146200131b57600080fd5b50565b6200132981620011ee565b81146200133557600080fd5b50565b6200134381620011f8565b81146200134f57600080fd5b50565b6200135d816200122c565b81146200136957600080fd5b5056fe6105006040527f6e71edae12b1b97f4d1f60370fef10105fa2faae0126114a169c64845d6126c961012090815250348015630000003b57600080fd5b50604051630001c5f1380380630001c5f18339818101604052810190630000006591906300003b62565b888888888787878787600286511463000000825760016300000085565b60025b8888888888888882828888816040518060400160405280600181526020017f3100000000000000000000000000000000000000000000000000000000000000815250863373ffffffffffffffffffffffffffffffffffffffff1660001b63000001187fe656fc50f09b7684c34752b3ece2e281b6d08a9750095c0301d6e2383c5e37b660001b630000295f60201b60201c565b630000014e7f4f7e861a1146d74c96da3edec5d0590759a1296b05766cad342bb6959c4c151460001b630000295f60201b60201c565b63000001847f52b72727ae090b164bf2148fae50414fc0fb516dbc3119582343db3c7d50af7c60001b630000295f60201b60201c565b80608081815250505063000001c37f446f1808b6d40b9489cc4c9a852d6b71b0e29e4186e37fa89ab671d91198770e60001b630000296260201b60201c565b63000001f97f4a5719a5c08260aa70804b6cf4c2d43156d2e63f6d9b951543686690d6f25bd260001b630000296260201b60201c565b630000022f7f8f0ac531ead605d36f4f4d3fae897fa52e59159bb1cb37f863027df67e1a596960001b630000296260201b60201c565b8073ffffffffffffffffffffffffffffffffffffffff1660a08173ffffffffffffffffffffffffffffffffffffffff1660601b8152505050630000029d7f42b605ad8c4e48409d07a45ae01575f0109010e501e8b5c073584d28d362cafe60001b630000296560201b60201c565b63000002d37f83ae992f89ac3d22b5c08de6e662a0aa913c874cd41a0efc0f4994d8c4de570060001b630000296560201b60201c565b63000003097fc4a174b8a26360ea40053551849bb6f425e3b060f612b04327821719723bcc8660001b630000296560201b60201c565b818051906020012060c08181525050630000034e7fc26a2832f3fd57ee4b8ea5a6826ac33a1a1b798676bc5c45122e9662aeab5d2660001b630000296560201b60201c565b63000003847fd4fb5a4207833b83c54df15a2c96970589d99d04479e6f4ca3165c5111271ea760001b630000296560201b60201c565b808051906020012060e0818152505063000003c97fb8e8098b11bfdd787c3da2cdafe2cc6b982a589dae9ae914138ecda0b35a4a3f60001b630000296560201b60201c565b63000003ff7fb3e60e0a13ac53da78856e77763f45e4814e177529da21d9bb0dde71039bfb5360001b630000296560201b60201c565b7f8b73c3c69bb8fe3d512ecc4cf759cc79239f7b179b0ffacaa9a75d522b39400f6101008181525050505063000004607f7253d2a06334ee1e20139f04b1552da25178216f1aa557135d1e8f8155e9554160001b630000296860201b60201c565b63000004967f755fcc9e3678086f07a630e926401728d6cfabf7045174656ed798ffe0e2c27660001b630000296860201b60201c565b63000004cc7fdf8c8e35aefe83f659d9ebf212dddcf9ac89e043959be6158e0274561e70d86360001b630000296860201b60201c565b816003908051906020019063000004e6929190630000385c565b50630000051d7faca7bf43b85bbccc85881caf16d28b9ec4837f003dbb33b53c537fe7df6424ad60001b630000296860201b60201c565b63000005537fa9d35326029da8ea64802ba17246b49b2739c36b2c3f195ab3fefecc9610066e60001b630000296860201b60201c565b8060049080519060200190630000056d929190630000385c565b50505063000005a67fcdc4b7966725a0b7e0fb882fd598225d9590b4866144e6f0fef2abbf022cd3fd60001b630000296b60201b60201c565b63000005dc7f967596f8f7a500ff720a3403b54a04d92df906e26231ac890b8a2fb26175b76860001b630000296b60201b60201c565b63000006127f220e9104ab71aa57643c7c71e3832b71d3e98885b5965cb82908ce4eea5bfb2b60001b630000296b60201b60201c565b630000062e6276a700831115610194630000296e60201b60201c565b63000006647fd0be9f82dddb144bf718a71b45872969428bb1e178dd6736199ccad564ec8b5b60001b630000296b60201b60201c565b630000069a7fb702d3e39ca2fa724be8964ed90151539fa69615acf3787c22cbea6125ff8de960001b630000296b60201b60201c565b63000006b662278d00821115610195630000296e60201b60201c565b63000006ec7f30947af497197580ac7fe9d5a36f3395ccc8e0f05ad40bd1ca43afa0ba2e3c9660001b630000296b60201b60201c565b63000007227f66c9294cc9f2a539bf2e45a2359fd5403b096a66739ef9308702b0d225842bb560001b630000296b60201b60201c565b60008242019050630000075f7f3ffec86c8a211454649c2421858fe62d38cdc98646c61a148543da8be9f267fe60001b630000296b60201b60201c565b63000007957f6eb5190dbb322e1bbf62c40ef77ff43209eb42ec473e696fdafd2032f063f5b260001b630000296b60201b60201c565b80610140818152505063000007d47fb3521dbf78ed8ddf85941e885e8e8c559993c36bc3f082c5ab80dd2db85b95ac60001b630000296b60201b60201c565b630000080a7ffb2f5edcd4cab9ad1417d979af508830d9a1801f736529956465596ed81dc54260001b630000296b60201b60201c565b8181016101608181525050505050630000084e7feef9222c60850f6c554fe5b432101028b8f2ce9e66af25ba9f99e8fa514f135860001b630000298d60201b60201c565b63000008847f29daa8ddc6b2bd03ab659c5671a4af634e9ed40f32081ac515ac00e4e41e87de60001b630000298d60201b60201c565b63000008ba7f50b36cbe5a72390b1e658e2504556baa892b6f905e6e70abcd7e42cd6695e39160001b630000298d60201b60201c565b63000008d460028651101560c8630000296e60201b60201c565b630000090a7fd91e90af864a0661891902cd28e96b936dd15095c9bbc2e3c26a6f5aa145c43660001b630000298d60201b60201c565b63000009407f5a4d3127c8d8eb11293ed56d1ed4886ed7962738bb6407e46c3204a5331e8e9860001b630000298d60201b60201c565b630000095a60088651111560c9630000296e60201b60201c565b63000009907ff5cb5f3bcadfd7aa80d8a9e9df6e9164b79ec1048619c65a8a77dde86b93a7f960001b630000298d60201b60201c565b63000009c67fbdb22dec55768dab3119fbeca818116fc0c34d4a5dc7af1426f4faaf876520d260001b630000298d60201b60201c565b63000009df85630000299060201b63000045041760201c565b6300000a157f555dd818280439f7cace59c9865ed96690a722db1521c58f6298c03184588cc960001b630000298d60201b60201c565b6300000a4b7f37576975632d8e34a9014f59585abe3714d36454a9a0b5560110f6659782ff8d60001b630000298d60201b60201c565b6300000a5e846300002af060201b60201c565b6300000a947fa4a06519948e26da031d6cd78c10cd33b82d37e6542bc14b244793840208710960001b630000298d60201b60201c565b6300000aca7fcf00476c1ad0e48bf2c3a69ce6874136f672689113cb72fc4de8a990855412da60001b630000298d60201b60201c565b60008973ffffffffffffffffffffffffffffffffffffffff166309b2760f8a6040518263ffffffff1660e01b81526004016300000b0991906300003edf565b602060405180830381600087803b1580156300000b2557600080fd5b505af11580156300000b3b573d6000803e3d6000fd5b505050506040513d601f19601f820116820180604052508101906300000b6391906300003b33565b90506300000b9b7fd6ca6e5190bcc47d492d339143f093e3a5ec312cdceebe2b7ea2131d5d06238860001b630000298d60201b60201c565b6300000bd17f1a58730c54a0d3fe5396145bb3f362c7bb7984fce88a178ba8f0dd6d9a91fbea60001b630000298d60201b60201c565b8973ffffffffffffffffffffffffffffffffffffffff166366a9c7d28288895167ffffffffffffffff811180156300000c0957600080fd5b506040519080825280602002602001820160405280156300000c3a5781602001602082028036833780820191505090505b506040518463ffffffff1660e01b81526004016300000c5d939291906300003e8e565b600060405180830381600087803b1580156300000c7957600080fd5b505af11580156300000c8f573d6000803e3d6000fd5b505050506300000cc97f5cb3297d5fee3013f6be3c2637ea3332b8315f6ae0a602b35d7d4f946738117460001b630000298d60201b60201c565b6300000cff7f258435fc765c398b382a02f1494d6eeb19a7a3b9dd13b06f7ce040d32f4b693a60001b630000298d60201b60201c565b8973ffffffffffffffffffffffffffffffffffffffff166101808173ffffffffffffffffffffffffffffffffffffffff1660601b815250506300000d6d7f074eea5be854d56586c3d16480de3f1e254bf6746da49f2546ef594d3c42f8f960001b630000298d60201b60201c565b6300000da37fbba99ec2a5be6936cf6c2778d9f8912c8f7f057750b07924d1fc39123e63285360001b630000298d60201b60201c565b806101a081815250506300000de27f0b867095881cad1c0c15f34e4690587b3bc64c6310c7af12f8f0e1fc9519be2860001b630000298d60201b60201c565b6300000e187f0346ec5198d8ae4a0478158a396a3cdafec3c83204ffc81d62919cee8beafc5760001b630000298d60201b60201c565b85516101c081815250506300000e587ff9ff2b0b1072d4c147feb2830f8c54c4b1dc8456e9e366b35bde266dbaf4bc9760001b630000298d60201b60201c565b6300000e8e7f42ce7e0701e3c6b48cba1f9781e124deadc55c10831c84ed419b6866b592d4f760001b630000298d60201b60201c565b60008651116300000ea25760006300000eba565b856000815181106300000eb157fe5b60200260200101515b73ffffffffffffffffffffffffffffffffffffffff166101e08173ffffffffffffffffffffffffffffffffffffffff1660601b815250506300000f277f054bc2aca61fe0cfbf02e43ef07cdc9fff579f1443175dafe24071f26df3487e60001b630000298d60201b60201c565b6300000f5d7f7f731e7816747e625a861004f5071197e729a83705aa5c77342e2cb6a6a7986460001b630000298d60201b60201c565b60018651116300000f715760006300000f89565b856001815181106300000f8057fe5b60200260200101515b73ffffffffffffffffffffffffffffffffffffffff166102008173ffffffffffffffffffffffffffffffffffffffff1660601b815250506300000ff67fd28193dde89134850d9c4fe44c2adb8a920ff6e95d7ed879a489eb122c66ed1760001b630000298d60201b60201c565b630000102c7fa8ea244de33ed88fbdd031a02154c30db818c70a34d1def1bdc4214a568bd8dd60001b630000298d60201b60201c565b600286511163000010405760006300001058565b85600281518110630000104f57fe5b60200260200101515b73ffffffffffffffffffffffffffffffffffffffff166102208173ffffffffffffffffffffffffffffffffffffffff1660601b8152505063000010c57f3de63489d88a0e2eeaa1b0ee48d37dbcf248fa3adedffeab28931f278052d81f60001b630000298d60201b60201c565b63000010fb7fc1336ab0a980252d31e8350778da7d53fc5f7ed7f9d3a6a4a90f544afc17f4ff60001b630000298d60201b60201c565b6003865111630000110f5760006300001127565b85600381518110630000111e57fe5b60200260200101515b73ffffffffffffffffffffffffffffffffffffffff166102408173ffffffffffffffffffffffffffffffffffffffff1660601b8152505063000011947f545d70287bb6c6066f750c2426c99ad2345fc2366c7026473c2ad99437b3d9e860001b630000298d60201b60201c565b63000011ca7f134bf0600af63e8c9dd9d8fc93edb4a2fb1e10165026113c1874bbbd742ff0bb60001b630000298d60201b60201c565b600486511163000011de57600063000011f6565b8560048151811063000011ed57fe5b60200260200101515b73ffffffffffffffffffffffffffffffffffffffff166102608173ffffffffffffffffffffffffffffffffffffffff1660601b8152505063000012637f9a02b44c3ca3ff8b921cf5942d82de7b215c12da699653363cde7817b24ac7c360001b630000298d60201b60201c565b63000012997f1c091a5b9d9bbbfab7340e87cfe0a581c1911bbb85c3922072043b213150acc460001b630000298d60201b60201c565b600586511163000012ad57600063000012c5565b8560058151811063000012bc57fe5b60200260200101515b73ffffffffffffffffffffffffffffffffffffffff166102808173ffffffffffffffffffffffffffffffffffffffff1660601b8152505063000013327f325754e4e56b94a053a42ade18c9c99e75491de78424954e9f75496230b8419a60001b630000298d60201b60201c565b63000013687fccf7c8d3c9467837019528e2b4d237d38a863d85e32143dfa9fb5afe0c05b05e60001b630000298d60201b60201c565b6006865111630000137c5760006300001394565b85600681518110630000138b57fe5b60200260200101515b73ffffffffffffffffffffffffffffffffffffffff166102a08173ffffffffffffffffffffffffffffffffffffffff1660601b8152505063000014017f8c7264d060dda3f7f0f224bd0091efe9934944437c6eff04f6cf4044577184b860001b630000298d60201b60201c565b63000014377fa8a5b676c43ebd2d45604db89cf6dcf12d175e68129925df2e0bd360ffc3d30b60001b630000298d60201b60201c565b6007865111630000144b5760006300001463565b85600781518110630000145a57fe5b60200260200101515b73ffffffffffffffffffffffffffffffffffffffff166102c08173ffffffffffffffffffffffffffffffffffffffff1660601b8152505063000014d07f18eb338e96fea56d042e88072a5deab74eb75f67b16f280a6bc52d3296e66abf60001b630000298d60201b60201c565b63000015067f82726fdaefa33f978ecc45d9f49dedc12a8ef021e33c358fee242bbbe2e1ab5d60001b630000298d60201b60201c565b6000865111630000151a5760006300001544565b630000154386600081518110630000152e57fe5b60200260200101516300002d5860201b60201c565b5b6102e0818152505063000015827f10faf14c26c8c1a11890e6317cda515201a84ca726fe5c32e3c4c0467e0aae7660001b630000298d60201b60201c565b63000015b87f693090ed94116b5d6d785e438067874af977330ae069201cf28aab1a5fce387160001b630000298d60201b60201c565b600186511163000015cc57600063000015f6565b63000015f58660018151811063000015e057fe5b60200260200101516300002d5860201b60201c565b5b610300818152505063000016347f084a26e6b46ba2cac56aa81751552ac2435a691480d97e0834b29ea84e3f494f60001b630000298d60201b60201c565b630000166a7f4cb1e947ed0cfa8fd9f2aef944d414c68727a20103ccde5b6f7f0ddb4f44022d60001b630000298d60201b60201c565b6002865111630000167e57600063000016a8565b63000016a786600281518110630000169257fe5b60200260200101516300002d5860201b60201c565b5b610320818152505063000016e67fb4a456e045f22abd1260985369048bd10cc57b4f1b05ef865cceb8c2ddefcb0760001b630000298d60201b60201c565b630000171c7ff84fe725f26b2122f277caebce9c37c4b9396e1d24ff5ed73fe9253c26ba706f60001b630000298d60201b60201c565b60038651116300001730576000630000175a565b630000175986600381518110630000174457fe5b60200260200101516300002d5860201b60201c565b5b610340818152505063000017987ff8fe9d402c10ec3890e2c21e3c9aaa334eee86aed5ed536dfcaacaeba0f80ae760001b630000298d60201b60201c565b63000017ce7f21bdcd5024abbf9bcb4f6b75991e8753b765b5196282bd7e95b5f4a2bfca958c60001b630000298d60201b60201c565b600486511163000017e2576000630000180c565b630000180b8660048151811063000017f657fe5b60200260200101516300002d5860201b60201c565b5b6103608181525050630000184a7f8a32d9c26fa5aba940f77e8fc51dfea41e94ff9c84910631d647cd92d4a90f6160001b630000298d60201b60201c565b63000018807f8f2c72b658f39e8f789e09235e00a2d9bce5a79b03b4714bf23e8853f7d6f7d060001b630000298d60201b60201c565b6005865111630000189457600063000018be565b63000018bd8660058151811063000018a857fe5b60200260200101516300002d5860201b60201c565b5b610380818152505063000018fc7ff56e52d419dde50db89843bcb18bf32d203bb35fa2850f6f5e35034f0f0a930b60001b630000298d60201b60201c565b63000019327f4a9c252f672fed084e0a70e99b196cd0cd1dbb0c501a6eca4f020f1cc0f6a5ad60001b630000298d60201b60201c565b600686511163000019465760006300001970565b630000196f86600681518110630000195a57fe5b60200260200101516300002d5860201b60201c565b5b6103a0818152505063000019ae7f1e2cdc42c3e9dbd0680ffb35fcf566187b929b480f960f12912b30f62c2af6b060001b630000298d60201b60201c565b63000019e47fab624fbb69b251ebfaace0bb03137c74915014e3b8a89e758879738e531fab0160001b630000298d60201b60201c565b600786511163000019f85760006300001a22565b6300001a21866007815181106300001a0c57fe5b60200260200101516300002d5860201b60201c565b5b6103c08181525050505050505050505050506300001a6a7f838996cf34b5b7fc8b675dc5fa2447e59d77da78d5e4d44035179a12df869b6160001b6300002f8c60201b60201c565b50505050505050506300001aa87f8fb7873b5983958dc16d45f3decb2ea099444631031c2b79d135e3c3257425fd60001b6300002f8f60201b60201c565b6300001ade7f1801d2923ad0931a0d9c7e52f4d51c66e53bd6c659927ea0d3ad6bd6ac57295260001b6300002f8f60201b60201c565b6300001b147fdc9fea4312bd075e770503ba773813aa76587268a1a95f0c669695b94806de4760001b6300002f8f60201b60201c565b6060600167ffffffffffffffff811180156300001b3057600080fd5b506040519080825280602002602001820160405280156300001b615781602001602082028036833780820191505090505b5090506300001b9a7f869634e70be9895726d6868a0e32ddf7ac70403d90ee3a5ff4db88db34ead4f660001b6300002f8f60201b60201c565b6300001bd07fd409f1b86f2bfd03d2e8d9a16be1ca3872ef36cdf514275959c832530061b4e160001b6300002f8f60201b60201c565b6000816000815181106300001be157fe5b602002602001019073ffffffffffffffffffffffffffffffffffffffff16908173ffffffffffffffffffffffffffffffffffffffff16815250506300001c517f5330da6e622ade9a648ce5185ae0e78d8bbd93b100f7565527dbe079eddae92c60001b6300002f8f60201b60201c565b6300001c877fd4542dbb9e55d07b98d07255970406ff45ed77ffc07fa7bc4f527b7db043698560001b6300002f8f60201b60201c565b73088800000000000000000000000000000000000173ffffffffffffffffffffffffffffffffffffffff166310128d3e826040518263ffffffff1660e01b81526004016300001cd891906300003e68565b600060405180830381600087803b1580156300001cf457600080fd5b505af11580156300001d0a573d6000803e3d6000fd5b505050506300001d447f94c2f59ec15cba3990a9ce5ac4c914c0a30a5ffc5181a6c2e72865893d30e51960001b6300002f8f60201b60201c565b6300001d7a7feba42d6385634b1ecca1a29eabbc93443f3ec48bd719b31a02945ca398053d4460001b6300002f8f60201b60201c565b6000875190506300001db67fb1229fb9e6aa0af4e3dde7306c346e385ce5df37bc62d4dd069091b2b619b3fd60001b6300002f8f60201b60201c565b6300001dec7f135d2618e7a7169e9003d24f6fed9e6122fd8c46d19f55674f640d562b1adb1d60001b6300002f8f60201b60201c565b6300001e078188516300002f9260201b630000462c1760201c565b6300001e3d7f4365a660ab1a28b60b84ccfb244b13bc71b08ee5b600da9297978caa0d5954a260001b6300002f8f60201b60201c565b6300001e737f3273877bd96c074eb23f6fc821521ddca9a7be020eb579f176953bbb8ebc77fe60001b6300002f8f60201b60201c565b60006300001eab7f6f8c7957dcd4e8a80a9ba3f32cf3921426d8a708861cb11772e0f6f4a4ba435560001b6300002f8f60201b60201c565b6300001ee17f6630e12dca6f1b953a920c8c67177955d6722cd584fc41f358a80c4e4caaa24660001b6300002f8f60201b60201c565b60006300001f197f50aa375df24be7a71bb757d66c8d51900477fd547d2fc58cfa931d11448ca0a560001b6300002f8f60201b60201c565b6300001f4f7f177b1cb8d54c229fdda69379dcd3b6b75ae5bba99205ae34e8e94556224d41d960001b6300002f8f60201b60201c565b60006300001f877f03225382410765282ddd9f95210ee4bea6c7ad69fb4484980939f06ac690d65a60001b6300002f8f60201b60201c565b6300001fbd7f9aebab46eb47fceb935b73819f926622e446eb78e8482ba1ccebb0574453f38460001b6300002f8f60201b60201c565b60005b848160ff16101563000023485763000020037f49811159fcb8ee5610d4c7374da580348fac8c36955ac6674275f466169e214260001b6300002f8f60201b60201c565b63000020397fb67586a21d7b5d64a30d4a0fd5c3458e00346bce3f827ada1bdd5afbbdf75cb560001b6300002f8f60201b60201c565b60008b8260ff1681518110630000204c57fe5b60200260200101519050630000208c7f1f6b0a7e1c7dce0f8a0a203bcf73d7d89d6344b0bbb6ced4e84622f4c57f49d860001b6300002f8f60201b60201c565b63000020c27fb1a8c71acc3c2ab8139296e3e949e1bfc14c8348fe6a973888707ee975bda4ea60001b6300002f8f60201b60201c565b63000020e2662386f26fc1000082101561012e630000296e60201b60201c565b63000021187f4646b401fb71c77c516b579a3d4d2c45df91fb05e3c371b082818b241e9467eb60001b6300002f8f60201b60201c565b630000214e7f437f7beb07b1fe4e9aee257215574b123763572f6fca8203a2fa37a7865bb68c60001b6300002f8f60201b60201c565b630000216b8186630000304f60201b63000046c91790919060201c565b945063000021a37f0c71722f3557596a50a385992345ed75d5b3c604f42358e4d3cb7a041880bc4860001b6300002f8f60201b60201c565b63000021d97f9514fd99b042bc22b5bf65962c11e1d8449ecd41286059bb7e6b33be1babd06560001b6300002f8f60201b60201c565b8281111563000023015763000022197ffac8218ea88c95b6a7329085b45cb7496fab830a7050a474c5cbbcae4f791fe560001b6300002f8f60201b60201c565b630000224f7fd5149b93f65e9872cc844aad9a2fc6bcfa79f549fc9ef0f2f4f7d25c6c77dffb60001b6300002f8f60201b60201c565b63000022857f09fd3a12ef6bdbd91be756dce35172204a3ed933728e3d883dc8f152d779512a60001b6300002f8f60201b60201c565b8160ff16935063000022c17f3dbf710cd65fcbacb97ce059d0d2211d40806390b28f8aca57fa6ce10bd734dd60001b6300002f8f60201b60201c565b63000022f77fe2c687eaed5f6d4ec758d833f132516678b28e630a2ed67e5040495c7ce6d38b60001b6300002f8f60201b60201c565b8092506300002338565b63000023377ff9f50f3e07b5042f58ce17712156ed369311a1ead4a50fee66fcf486bd6fbc5960001b6300002f8f60201b60201c565b5b5080806001019150506300001fc0565b50630000237f7f911fbaae775fb77b96b20289d1774e8caca69a52f61c34bca8fb09454c5940ab60001b6300002f8f60201b60201c565b63000023b57f6e2913041d3992b32f9c874e923de4d1bd467c0b16fc52f80b3b3af4cd38d9f160001b6300002f8f60201b60201c565b63000023d5670de0b6b3a76400008414610134630000296e60201b60201c565b630000240b7fcbe590a083aa1d76e282dfcf1f6dece24475247b6eca8ad9cfc1995f8b7c0a6960001b6300002f8f60201b60201c565b63000024417ff91e5d93478b95680b43207a61801bac351468c2fabafeeb15900bf117a13d4960001b6300002f8f60201b60201c565b816103e0818152505063000024807fc1bda331dc3672805f46337408d55c977bc80707a792edca123593ae141c285c60001b6300002f8f60201b60201c565b63000024b67f1db42c429878a1017ab1237279c45f99fbb276c5257fcf1e1977c5f19ad57dac60001b6300002f8f60201b60201c565b60008a511163000024ca57600063000024e2565b8960008151811063000024d957fe5b60200260200101515b610400818152505063000025207f7c71dc13c3655af93d16ff6f8d22564aad7ef8a4cc9832e27113467ba874f37860001b6300002f8f60201b60201c565b63000025567fd09f752b69d8ab5f3bb74a4e2d1d52c38a662780c9da19502ebcd5becbbd78ed60001b6300002f8f60201b60201c565b60018a5111630000256a5760006300002582565b89600181518110630000257957fe5b60200260200101515b610420818152505063000025c07f77a7bd0fde397bd48f7cc7cf33bf9d23709c43d8bb560479fc97e8f3cb7847e960001b6300002f8f60201b60201c565b63000025f67fef3f419b53c0c67f314728f63ad871c85387e04d55ebce8d004aca02d60aefc760001b6300002f8f60201b60201c565b60028a5111630000260a5760006300002622565b89600281518110630000261957fe5b60200260200101515b610440818152505063000026607f2c44eb3a5bf334e17a523349611cca7a96afe4b9919cfa6a395ad1788404fa1c60001b6300002f8f60201b60201c565b63000026967fb02c2a1be52926cdbd75729915dfca05494f5b05afdbe0177a2207804b98139060001b6300002f8f60201b60201c565b60038a511163000026aa57600063000026c2565b8960038151811063000026b957fe5b60200260200101515b610460818152505063000027007fcc4410319fb04ea39a71defd5b7c77fb2f43fc036e314a73e85887b30824c1c360001b6300002f8f60201b60201c565b63000027367f6c904d6b20d4a7b1137d880013f12598a575f96e01f51056b817bbcb7f9bfb1f60001b6300002f8f60201b60201c565b60048a5111630000274a5760006300002762565b89600481518110630000275957fe5b60200260200101515b610480818152505063000027a07f754229dbdce497588eb1b8b7038187c5034802efd1b108284463e78f12f90d3260001b6300002f8f60201b60201c565b63000027d67f5d7c10e25c98fe9a8aa6bb2f8d1ac6a83cf2a6aafa890cbe0f8c1d5d92d6434f60001b6300002f8f60201b60201c565b60058a511163000027ea5760006300002802565b8960058151811063000027f957fe5b60200260200101515b6104a0818152505063000028407f930c579bef831460cb3fa136fb373941327855d189ad3779607b5bbcb7844f5460001b6300002f8f60201b60201c565b63000028767f9e50aea29c1e6a9eaeff1cb0b9a14b5ccd89afb648df99b800a45a975d3e33fe60001b6300002f8f60201b60201c565b60068a5111630000288a57600063000028a2565b89600681518110630000289957fe5b60200260200101515b6104c0818152505063000028e07feee8074f406d1806c534c77fd6373891c59872459a5d0c3e1181c5999c1f4dbe60001b6300002f8f60201b60201c565b63000029167fe5198ccdd2daec2cda26f714045380bc9767ee24744b4271bde538da413628cb60001b6300002f8f60201b60201c565b60078a5111630000292a5760006300002942565b89600781518110630000293957fe5b60200260200101515b6104e0818152505050505050505050505050505050506300004201565b50565b50565b50565b50565b50565b8163000029895763000029888163000031f460201b60201c565b5b5050565b50565b63000029c67fccd7e13b327ad13eb1cf5266c6b879986903b9a1f80b6661c959488e5f0fb6d660001b630000326460201b60201c565b63000029fc7ffebde624b7e9ce0b255ec134f0aeadd3b2108737eef3a0a39d228170f9130f0060001b630000326460201b60201c565b6300002a327f2ada8f09730243aac13b03ccb80c149c6ebadcaf132018bc0ae05b400c3e067c60001b630000326460201b60201c565b60606300002a6a7f394297b1718752bb0ef7436c53e94e02c76dba2f63de8907998210a9ab652db560001b630000326460201b60201c565b8190506300002aa37fe19f999020959db22bc5ee4f58ef119cc222f2c75a6691c1d02afd22bb0d832160001b630000326460201b60201c565b6300002ad97f251d0080a7ba22b7ea3a753b97fd5fe79dfac363028058899b93fa1a626ac53c60001b630000326460201b60201c565b6300002aec81630000326760201b60201c565b5050565b6300002b267f4db390be21e4fb063d5dd50c0d8ff4fecb780cb5d3a663078f0238771f240a5b60001b630000298d60201b60201c565b6300002b5c7fbb76a41f0f7668870dc0f60369571a4c1c74f74012e4a44cda2833ac29840c5060001b630000298d60201b60201c565b6300002b927fa4b530f061555287ea4320080212b502f18a367bec77f93b855255532f27280560001b630000298d60201b60201c565b6300002baf64e8d4a5100082101560cb630000296e60201b60201c565b6300002be57fc92e78637e75ff2067c493202cbc2e5a0c3ff84b364a570b3fc8cfd0bcfac0bb60001b630000298d60201b60201c565b6300002c1b7f8d683083a08acc0b83ceecfcab17bca90825940aaaabc6c8eb4cb5b92c20670e60001b630000298d60201b60201c565b6300002c3b67016345785d8a000082111560ca630000296e60201b60201c565b6300002c717fc6b4f73e1e3e08acbef66c2b93bbf2d5ec40bc2f3e3cdea77a81d5f64e46cb8660001b630000298d60201b60201c565b6300002ca77f219cccbd8afb9a6938460c83557637149eef3eccc86f1f705bb1ac24cc6a982860001b630000298d60201b60201c565b806007819055506300002ce47f7a8b5c43fe9ff106f995ea4ccdb6300781de8b765da9047aaf54af4d21c424c860001b630000298d60201b60201c565b6300002d1a7f69bf62710ab010bd67f43d890ee13c590d761678d4320c0e0d4b5c7a6a5923ce60001b630000298d60201b60201c565b7fa9ba3ffe0b6c366b81232caab38605a0699ad5398d6cce76f91ee809e322dafc816040516300002d4d91906300003efe565b60405180910390a150565b60006300002d907ff385424b3a15d59631ec29bfd7b954f201de9b543cde6ef30825569826d94f7c60001b630000298d60201b60201c565b6300002dc67f5de44bbd626317003d8ef39180a3ce72bfa970085ed7a28b42b5ceb258862b0560001b630000298d60201b60201c565b6300002dfc7f81d881e3e021f2b0a928fc4d5849c3e2b3b3fa6b20902dcf6bd23dc96b44b5a460001b630000298d60201b60201c565b60008273ffffffffffffffffffffffffffffffffffffffff1663313ce5676040518163ffffffff1660e01b815260040160206040518083038186803b1580156300002e4657600080fd5b505afa1580156300002e5c573d6000803e3d6000fd5b505050506040513d601f19601f820116820180604052508101906300002e8491906300003cb6565b60ff1690506300002ebf7f481caf5368fd4332287a3ef75ab919f9903c26d406ccbcc3a26a6daf3750aa6860001b630000298d60201b60201c565b6300002ef57ffcf26db9ba24493b0554459a82e4cf34bb9e4a80e72f4bf4f9a297e74d14ea2460001b630000298d60201b60201c565b60006300002f1260128363000036b160201b630000482e1760201c565b90506300002f4a7f0f1dc18c6b948a6c3fb0c2ece0743658a0a7022ccd4164798f3603bfc095774260001b630000298d60201b60201c565b6300002f7f7e22c7afb15ed0c4b336668fef5cdbc17cdc606fd2a9b9dedb8c08d43d6d2fa360001b630000298d60201b60201c565b80600a0a92505050919050565b50565b50565b6300002fc87f6f02687e057522eb19b597e3b091ff65201fe492dbd6f67980e016d6aa08d53260001b630000326460201b60201c565b6300002ffe7fe51ab352fa79dd949e57050cd47d3f0410afdfe7c28a6ef735cccfeeb18f582360001b630000326460201b60201c565b63000030347ffce750c89171756118e85bed28eb1432c569ae13e7db5e43107d00a4ed5889a360001b630000326460201b60201c565b630000304b8183146067630000296e60201b60201c565b5050565b600063000030877f59553e064ffc30705bc6f1bd0548781ec42eede447ec06cd2d9ddb674a8219be60001b630000385660201b60201c565b63000030bd7fab4e9dc03bf83496a9fb56ed78c77ac71999c4c5b77197bc3f03888fa1f7da1860001b630000385660201b60201c565b63000030f37f8ef261d3a0653ab868c899418b467bc6f67e2ccde42f77cb49f1285b32558cd560001b630000385660201b60201c565b6000828401905063000031307f172b47099aaf4a028546f4463220baa09cd81d77ae8c1096fc6579f4ecaeac2960001b630000385660201b60201c565b63000031667f967579ee3162c1a66be7747b1966e185b33f2fc6a52477633bfe253a007a6d0d60001b630000385660201b60201c565b630000317e848210156000630000296e60201b60201c565b63000031b47f837f36e10f55e182d80df4008a9565a95c9998c0cbd301003424ee94022b465e60001b630000385660201b60201c565b63000031ea7f60b415dd739853b43f2c31e0a76108ad464adc9d8eacc59b1f59ea004963800b60001b630000385660201b60201c565b8091505092915050565b6030600a820601600a820491506030600a830601600a830492506030600a8406018060101b8260081b8401016642414c230000000160c81b7f08c379a000000000000000000000000000000000000000000000000000000000600052602060045260076024528060445260646000fd5b50565b630000329d7f52b02eb9833b0bd298da9a550fd6a8b13dfb25c29994dccd775897a11480c75460001b630000326460201b60201c565b63000032d37fb75d4e78a2d4db3d391224c3e34eff0315c02f0040609f8a2b6b81a4bee39fd960001b630000326460201b60201c565b63000033097fc9b4e6a27a0e453ee7a9401745aa4ff765595ab77cc85081921792d89751008960001b630000326460201b60201c565b60028151101563000033be57630000334b7f22167cf469dd9aabeefaa2ab2d17cdd5287c2264296931e640849328c451b01460001b630000326460201b60201c565b63000033817fa65e1d9bc163f5ae9eb6070115a7e51cc6766682e133ff763759005b2d1a40e060001b630000326460201b60201c565b63000033b77faa2e51a8518e72c89222a13d73e32ca8401729d0b38900af1038cee92bce1f0860001b630000326460201b60201c565b63000036ae565b63000033f47f3c9b73e3f9ac221add16775c5d9095515c3e8f3afef21ff52b55a6b8e602d38d60001b630000326460201b60201c565b630000342a7f7fedf65b473b6100a99469045ec29164a45d4d36b75f0c52a75d9db201f9c6e060001b630000326460201b60201c565b63000034607f7fbd9b3ab4279bb2347201c67b665cec5f3aea53dc77daa332841cee3a6383fd60001b630000326460201b60201c565b600081600081518110630000347157fe5b6020026020010151905063000034b17f82f4605e79aa35d21c9a3999706dd9685733e98401d0e734c18f4c1140cce03e60001b630000326460201b60201c565b63000034e77f3838606ace01461ca21cf498f43a6824b7c080b35d4559c58c93c8f948842aac60001b630000326460201b60201c565b6000600190505b825181101563000036ab57630000352f7fa59293f48c2e4416c1932c0f4236fedf682c01490f96f93a10b8fa63fd2b037d60001b630000326460201b60201c565b63000035657f38630e8d3b1587def62cbfe6d0750511f5e982b4ba10074a538d936e0237cdec60001b630000326460201b60201c565b6000838281518110630000357557fe5b6020026020010151905063000035b57f938af12a518f22f61865b3861f21fa00ad4e4bf11ec7daa6c4f032b6025d424760001b630000326460201b60201c565b63000035eb7ffede6dd9ae22d44e28a4a759c56795dcd3b945d1d2203993228f37c909a90e4260001b630000326460201b60201c565b630000362e8173ffffffffffffffffffffffffffffffffffffffff168473ffffffffffffffffffffffffffffffffffffffff16106065630000296e60201b60201c565b63000036647f9093def741d483dcb80308555e82d6c69e39a26b3d763f0044f3f0f09f8d7adf60001b630000326460201b60201c565b630000369a7f9ba332f26c0d2c5129d51a9355d8ac6f4402d5dfa84f6fa0349bfe1fe83eedc460001b630000326460201b60201c565b8092505080600101905063000034ee565b50505b50565b600063000036e97f4ad272e8ef896cf9749bbb33b720ec50902be1d6268b31d272f37eeffc01139760001b630000385960201b60201c565b630000371f7ff5b8f6315ed04f6f880d15c913444893b354f451e1a7755f980256aa3a67eb1b60001b630000385960201b60201c565b63000037557fbdc5b111411beb8ab6b53375bbc8bf4e74258c8c8f4987a4928ce54801c48b0060001b630000385960201b60201c565b630000376d838311156001630000296e60201b60201c565b63000037a37f878d38a5a5b3291f5b62618821c286b1ce4d8ac1fde0f5c52c6f8b253e3c721860001b630000385960201b60201c565b63000037d97fdee8db45952fd0881a888ce099e6774ada46e04a8240c739354e8b594734d0b160001b630000385960201b60201c565b6000828403905063000038167fa883eec5840f8062e57d5a86c35fd0af17f6df22b4081b6a3676dd71088ac1e360001b630000385960201b60201c565b630000384c7fc44e06103de1985a150207dd6e5102796da4ff917908533e00a2fd2e75a52f9460001b630000385960201b60201c565b8091505092915050565b50565b50565b828054600181600116156101000203166002900490600052602060002090601f016020900481019282601f1063000038a157805160ff191683800117855563000038d5565b8280016001018555821563000038d5579182015b8281111563000038d457825182559160200191906001019063000038b5565b5b50905063000038e6919063000038ea565b5090565b5b80821115630000390757600081600090555060010163000038eb565b5090565b600081519050630000391e816300004153565b92915050565b600082601f830112630000393757600080fd5b81516300003952630000394b826300003f4c565b6300003f1d565b91508181835260208401935060208101905083856020840282011115630000397957600080fd5b60005b8381101563000039b15781630000399588826300003a6b565b845260208401935060208301925050600181019050630000397c565b5050505092915050565b600082601f83011263000039ce57600080fd5b815163000039e963000039e2826300003f76565b6300003f1d565b915081818352602084019350602081019050838560208402820111156300003a1057600080fd5b60005b838110156300003a4857816300003a2c88826300003b01565b8452602084019350602083019250506001810190506300003a13565b5050505092915050565b6000815190506300003a65816300004170565b92915050565b6000815190506300003a7e81630000418d565b92915050565b6000815190506300003a978163000041aa565b92915050565b600082601f8301126300003ab057600080fd5b81516300003acb6300003ac4826300003fa0565b6300003f1d565b915080825260208301602083018583830111156300003ae957600080fd5b6300003af8838284630000410b565b50505092915050565b6000815190506300003b148163000041c7565b92915050565b6000815190506300003b2d8163000041e4565b92915050565b6000602082840312156300003b4757600080fd5b60006300003b59848285016300003a52565b91505092915050565b60008060008060008060008060006101208a8c0312156300003b8357600080fd5b60006300003b958c828d016300003a84565b99505060208a015167ffffffffffffffff8111156300003bb457600080fd5b6300003bc48c828d016300003a9d565b98505060408a015167ffffffffffffffff8111156300003be357600080fd5b6300003bf38c828d016300003a9d565b97505060608a015167ffffffffffffffff8111156300003c1257600080fd5b6300003c228c828d016300003924565b96505060808a015167ffffffffffffffff8111156300003c4157600080fd5b6300003c518c828d0163000039bb565b95505060a06300003c668c828d016300003b01565b94505060c06300003c7b8c828d016300003b01565b93505060e06300003c908c828d016300003b01565b9250506101006300003ca68c828d01630000390b565b9150509295985092959850929598565b6000602082840312156300003cca57600080fd5b60006300003cdc848285016300003b1a565b91505092915050565b60006300003cf583836300003d1d565b60208301905092915050565b60006300003d1183836300003e2f565b60208301905092915050565b6300003d2a81630000402f565b82525050565b60006300003d3f826300003fee565b6300003d4d8185630000401e565b93506300003d5c836300003fce565b8060005b838110156300003d995781516300003d7a88826300003ce5565b97506300003d89836300004004565b9250506001810190506300003d60565b5085935050505092915050565b60006300003db5826300003ff9565b6300003dc38185630000401e565b93506300003dd2836300003fde565b8060005b838110156300003e0f5781516300003df088826300003d01565b97506300003dff836300004011565b9250506001810190506300003dd6565b5085935050505092915050565b6300003e29816300004045565b82525050565b6300003e3c8163000040c9565b82525050565b6300003e4f8163000040f5565b82525050565b6300003e628163000040b2565b82525050565b600060208201905081810360008301526300003e8681846300003d30565b905092915050565b60006060820190506300003ea760008301866300003e1c565b81810360208301526300003ebd81856300003da6565b905081810360408301526300003ed581846300003d30565b9050949350505050565b60006020820190506300003ef860008301846300003e42565b92915050565b60006020820190506300003f1760008301846300003e55565b92915050565b6000604051905081810181811067ffffffffffffffff821117156300003f4257600080fd5b8060405250919050565b600067ffffffffffffffff8211156300003f6557600080fd5b602082029050602081019050919050565b600067ffffffffffffffff8211156300003f8f57600080fd5b602082029050602081019050919050565b600067ffffffffffffffff8211156300003fb957600080fd5b601f19601f8301169050602081019050919050565b6000819050602082019050919050565b6000819050602082019050919050565b600081519050919050565b600081519050919050565b6000602082019050919050565b6000602082019050919050565b600082825260208201905092915050565b6000630000403e826300004092565b9050919050565b6000819050919050565b6000630000405e82630000402f565b9050919050565b6000630000407482630000402f565b9050919050565b6000819050630000408d826300004144565b919050565b600073ffffffffffffffffffffffffffffffffffffffff82169050919050565b6000819050919050565b600060ff82169050919050565b600063000040d88263000040df565b9050919050565b600063000040ee826300004092565b9050919050565b6000630000410482630000407b565b9050919050565b60005b83811015630000412d578082015181840152602081019050630000410e565b83811115630000413e576000848401525b50505050565b60038110630000415057fe5b50565b630000416081630000402f565b8114630000416d57600080fd5b50565b630000417d816300004045565b8114630000418a57600080fd5b50565b630000419a81630000404f565b811463000041a757600080fd5b50565b63000041b7816300004065565b811463000041c457600080fd5b50565b63000041d48163000040b2565b811463000041e157600080fd5b50565b63000041f18163000040bc565b811463000041fe57600080fd5b50565b60805160a05160601c60c05160e051610100516101205161014051610160516101805160601c6101a0516101c0516101e05160601c6102005160601c6102205160601c6102405160601c6102605160601c6102805160601c6102a05160601c6102c05160601c6102e05161030051610320516103405161036051610380516103a0516103c0516103e05161040051610420516104405161046051610480516104a0516104c0516104e051620181d7630000441a60003980619f21528061d2f8525080619db7528061d1c2525080619c4d528061d08c525080619ae3528061cf56525080619979528061ce2052508061980f528061ccea5250806196a5528061cbb452508061953b528061ca7e52508061b650528061b685528061b6c35250806175d55280618a6652508061746b528061893052508061730152806187fa52508061719752806186c452508061702d528061858e525080616ec45280618458525080616d5a5280618322525080616bf152806181ec5250806189b5528061d24752508061887f528061d111525080618749528061cfdb525080618613528061cea55250806184dd528061cd6f5250806183a7528061cc39525080618271528061cb0352508061813b528061c9cd525080615a5052508061175c52508061276852508061517d5250806150cb5250806136265250806156745250806156b65250806156955250806126b65250806124545250620181d76000f3fe60806040523480156200001157600080fd5b5060043610620003285760003560e01c806374f3b00911620001ad578063a5923d2a11620000f9578063d5c096c411620000a5578063e9083f62116200007b578063e9083f621462000965578063e972a7401462000985578063f89f27ed14620009a55762000328565b8063d5c096c414620008c2578063d73dd62314620008f9578063dd62ed3e146200092f5762000328565b8063aaabadc511620000db578063aaabadc5146200085e578063c0ff1a151462000880578063d505accf14620008a25762000328565b8063a5923d2a1462000808578063a9059cbb14620008285762000328565b8063893d20e8116200015957806395d89b41116200013b57806395d89b41146200078e5780639b02cdde14620007b05780639d2c110c14620007d25762000328565b8063893d20e8146200074a5780638d928af8146200076c5762000328565b8063851c1bb3116200018f578063851c1bb314620006bd57806386075fd414620006f357806387ec681714620007135762000328565b806374f3b00914620006505780637ecebe0014620006875762000328565b8063313ce56711620002795780635ff8525a1162000225578063679aefce11620001fb578063679aefce14620005d85780636939fcfe14620005fa57806370a08231146200061a5762000328565b80635ff8525a146200054b5780636028bfd4146200056b5780636618846314620005a25762000328565b806338e9922e116200025b57806338e9922e14620004e757806338fff2d0146200050757806355c6762814620005295762000328565b8063313ce56714620004a35780633644e51514620004c55762000328565b806316c38b3c11620002d95780631c0de05111620002bb5780631c0de05114620004275780631d073a7a146200044b57806323b872dd146200046d5762000328565b806316c38b3c14620003e557806318160ddd14620004055762000328565b8063095ea7b3116200030f578063095ea7b3146200036f5780630c575f1514620003a55780630ddc08a514620003c55762000328565b806304b5705c146200032d57806306fdde03146200034d575b600080fd5b6200034b6004803603810190620003459190620173bd565b620009c7565b005b62000357620009ca565b60405162000366919062017d5d565b60405180910390f35b6200038d60048036038101906200038791906201729c565b62000afa565b6040516200039c919062017b3b565b60405180910390f35b620003c36004803603810190620003bd9190620173bd565b62000bf8565b005b620003e36004803603810190620003dd9190620173bd565b62000bfb565b005b620004036004803603810190620003fd919062017365565b62000bfe565b005b6200040f62000d58565b6040516200041e919062017d81565b60405180910390f35b6200043162000dec565b604051620004429392919062017b58565b60405180910390f35b6200045562000f5d565b60405162000464919062017d40565b60405180910390f35b6200048b600480360381019062000485919062017199565b62000f75565b6040516200049a919062017b3b565b60405180910390f35b620004ad62001384565b604051620004bc919062017dd2565b60405180910390f35b620004cf62001417565b604051620004de919062017b95565b60405180910390f35b620005056004803603810190620004ff91906201780c565b620014b2565b005b62000511620016ce565b60405162000520919062017b95565b60405180910390f35b6200053362001780565b60405162000542919062017d81565b60405180910390f35b620005696004803603810190620005639190620173bd565b62001814565b005b620005896004803603810190620005839190620173e9565b62001817565b6040516200059992919062017d9e565b60405180910390f35b620005c06004803603810190620005ba91906201729c565b62001998565b604051620005cf919062017b3b565b60405180910390f35b620005e262001cba565b604051620005f1919062017d81565b60405180910390f35b620006186004803603810190620006129190620173bd565b62001d86565b005b6200063860048036038101906200063291906201712c565b62001d89565b60405162000647919062017d81565b60405180910390f35b6200066e6004803603810190620006689190620173e9565b62001e5b565b6040516200067e92919062017b00565b60405180910390f35b620006a560048036038101906200069f91906201712c565b620022f3565b604051620006b4919062017d81565b60405180910390f35b620006db6004803603810190620006d59190620174c8565b620023c6565b604051620006ea919062017b95565b60405180910390f35b6200071160048036038101906200070b9190620173bd565b620024a4565b005b6200073160048036038101906200072b9190620173e9565b620024a7565b6040516200074192919062017d9e565b60405180910390f35b6200075462002628565b60405162000763919062017abf565b60405180910390f35b62000776620026da565b60405162000785919062017d23565b60405180910390f35b620007986200278c565b604051620007a7919062017d5d565b60405180910390f35b620007ba620028bc565b604051620007c9919062017d81565b60405180910390f35b620007f06004803603810190620007ea91906201779d565b62002950565b604051620007ff919062017d81565b60405180910390f35b620008266004803603810190620008209190620173bd565b6200306d565b005b6200084660048036038101906200084091906201729c565b62003070565b60405162000855919062017b3b565b60405180910390f35b620008686200316f565b60405162000877919062017d06565b60405180910390f35b6200088a6200320a565b60405162000899919062017d81565b60405180910390f35b620008c06004803603810190620008ba9190620171ef565b6200348c565b005b620008e06004803603810190620008da9190620173e9565b62003981565b604051620008f092919062017b00565b60405180910390f35b6200091760048036038101906200091191906201729c565b620041c3565b60405162000926919062017b3b565b60405180910390f35b6200094d600480360381019062000947919062017158565b62004352565b6040516200095c919062017d81565b60405180910390f35b6200098360048036038101906200097d9190620173bd565b62004463565b005b620009a360048036038101906200099d9190620173bd565b62004466565b005b620009af62004469565b604051620009be919062017adc565b60405180910390f35b50565b6060620009fa7f5dfdc8f2f6b16263aff4e1fa9daf20c3e626c84a00d5d6bcaea54312a6dedb3f60001b620009c7565b62000a287fa30e0aec3fd2e1f5d3fa7e060a0c71fc1a4593e346708abdd288bd71a8d9ae5660001b620009c7565b62000a567fc0ca2993df56cc3a2adb97bb0ebc8fe721848fcdace1e7d885178e32eb1db44e60001b620009c7565b60038054600181600116156101000203166002900480601f01602080910402602001604051908101604052809291908181526020018280546001816001161561010002031660029004801562000af05780601f1062000ac45761010080835404028352916020019162000af0565b820191906000526020600020905b81548152906001019060200180831162000ad257829003601f168201915b5050505050905090565b600062000b2a7ff099023c1f159266a64260fb366a6bfc73f2d01960c66920ea0020ddcbc78eeb60001b620009c7565b62000b587f10f7074bbe308337495d3c4502cf6c01f2be32ca196c807f828ee19c3f97d90e60001b620009c7565b62000b867fc9a2b32520bd1d8c442e96d2af7b523d6252271a193785be85992c2d0766b18560001b620009c7565b62000b9333848462004993565b62000bc17fed42e9e42c5b5aba6101d2063da8fb5ece96354268b7a0bc893f1a4fc0e7dbf060001b620009c7565b62000bee7ee182571078bde88a73ddd558535ad452f1e3974656f9d9f62cfd0c7da15ee060001b620009c7565b6001905092915050565b50565b50565b62000c2c7fdfcff9db5c0001a4a8ff88d7564521e5ae182f75503405aee3622d19b0e3655260001b62000bfb565b62000c5a7f5a55fe4186df4e8e414a6f2504b3774e5852558ddbf409e09d2dd9273fbda36060001b62000bfb565b62000c887f9a5d745b65ebafdc2adb226e0021e0ff4d4dfc023c8a49423a469e21ec523a7c60001b62000bfb565b62000c9262004b66565b62000cc07fdf78023cab09ae4709c13c466fe04a359efc7b4a528806c19241a2b24347eed660001b62000bfb565b62000cee7f7540106d3592a8d6f37d124bef31fe13bdda1b3e5d60e5f90aaf8d878ab3f69560001b62000bf8565b62000d1c7f4b6de0c6433963725e415e07205b56ae0e1f77ace05c5e6fdd2a7829d530c3ef60001b62000bf8565b62000d4a7ff28baafac37b53f13a5d360fb8081584711195dc235deb4b09e4e30b39b7739160001b62000bf8565b62000d558162004c9b565b50565b600062000d887f10b8ca513f61e329a255990c3baacc2acfde14b45a7a53ec08eb2ba3517fe09560001b620009c7565b62000db67f9b61f32c47f6c42dc51fde0671f67b217c3158e7e9782bc2213b6e2c2d5e34d460001b620009c7565b62000de47fc21c061ae22a904437e41b7baf9cac8e362edbf8d26c2cb9e1629904ee73e70960001b620009c7565b600254905090565b600080600062000e1f7f18cc8dc20a1ad77603273d0fb77be91955c8ad792e3d7764c49079ac9b61e0ed60001b62004463565b62000e4d7f76c635b6e7e47a035d1d142dac6a7335b96bc1b76c90516a0b4d4b0c8a73dc1e60001b62004463565b62000e7b7f64ba82495936cfc0eddf6ffc54de798f2cc9f0e74ea13078053cb63db8d2589d60001b62004463565b62000e8562004f87565b15925062000eb67f5cd65d0e58d3ba7b6d482ad8676260457a2bdb3b3592e2e2001a9bce46b556ed60001b62004463565b62000ee47f9621e7a8975dd596a9a85caab7f65e524cadfb5dd2c5ae64f90be4b2d8018a8b60001b62004463565b62000eee6200503d565b915062000f1e7fcaa139029346a8a379d3422961606d3a079119372f0df216b61002fbd10d913860001b62004463565b62000f4c7f1110bdcce9f69a67c5a5244ee73685e2fb6cd791ff5e0041c5c0f8b16e28af7d60001b62004463565b62000f56620050ef565b9050909192565b73088800000000000000000000000000000000000181565b600062000fa57f2b1e68de6d43f0e19cec6745dfa61baade0800dd1a56bbd52e39777aebf27d6b60001b620009c7565b62000fd37f489d99b50fa72fc3dea480d9cf73b7490c1e47fba05f2d3b7603a44ef73e699c60001b620009c7565b620010017fe83485d541b5f143bd5ef5bbb3e5a63323c34810257dd385343ef069d658a4b260001b620009c7565b6000600160008673ffffffffffffffffffffffffffffffffffffffff1673ffffffffffffffffffffffffffffffffffffffff16815260200190815260200160002060003373ffffffffffffffffffffffffffffffffffffffff1673ffffffffffffffffffffffffffffffffffffffff168152602001908152602001600020549050620010b07f7acbc98dd8e190d79aca9eb011baee20bb2366d3eedc8a3f04245546567cc5b260001b620009c7565b620010de7f632dfb23fbebd40c75ff33721df2a92728772e0cb1d3deb87f207cf7cab2a10260001b620009c7565b620011268573ffffffffffffffffffffffffffffffffffffffff163373ffffffffffffffffffffffffffffffffffffffff1614806200111d5750838210155b610197620051a1565b620011547f993f4c6e8c008b0e283cc3529c046194726583f0d23a831d03ab9d99702a305560001b620009c7565b620011827fa21bfb64499a28f2816f262e017191c7e2dc0edb578644d9ceb6d6514868ccbe60001b620009c7565b6200118f858585620051b7565b620011bd7f3b67f6574e48078056567f4ba1258a1a8ec3617f2d45f8f2ecd901b9097c0e9760001b620009c7565b620011eb7f529b06b2bd8fe2a2596fc030aca809d39486748c9331eaa0f97a9f291e1a439d60001b620009c7565b8473ffffffffffffffffffffffffffffffffffffffff163373ffffffffffffffffffffffffffffffffffffffff16141580156200124857507fffffffffffffffffffffffffffffffffffffffffffffffffffffffffffffffff8114155b15620012ed576200127c7f877681a6d4f5ab52385493f404647a433563e82974907b48b9c73d4eb25d8f6560001b620009c7565b620012aa7f49ebf7be4c1fc91fc09bd14adacdae1bce45f86764a4287ec086129f59cc26a260001b620009c7565b620012d87f3c617a45259a8d0f0eda006c9bb5a9b1a8e8795ae8611ddf96b8b0e7ba99892260001b620009c7565b620012e7853385840362004993565b6200131c565b6200131b7f5a25d1eb7570a5c2ee45cb9d5f47c07a4f5842d3f330c4e822ea66497d81cb6c60001b620009c7565b5b6200134a7fb4c07bfb466a59c3b85f18ad6b2ba28067a0148a55075c9336c120227815c00460001b620009c7565b620013787fc0c735451fb918416d33d495ba933fa43d051481563b4101952e183c5b514c5e60001b620009c7565b60019150509392505050565b6000620013b47f0ec0a5a4261d3a15b467b2a665a72073343642fb9a1c92da9edf1309b6d2c14a60001b620009c7565b620013e27f57d6fbae4770d6bd21254429908c66b313d658379031dcfc56ae1e1b494b8f9f60001b620009c7565b620014107f4cfdac4ee4de89387e0f8d9dc259069cc026be59c0f08e9423e99fbadb2b6ec960001b620009c7565b6012905090565b6000620014477f7b9d6858a657bb5a26c48be247410cf75b9bfee57661a4a4a08a01805ba9e1ae60001b620009c7565b620014757f222b27ce782393a8c5154f56efad9e2896844b5b48cee66e2acfa34ffa8fd8ff60001b620009c7565b620014a37fa0f6fd1e29310660eadf623e456941a8850d53fa660b85efb7e75898859e2fb460001b620009c7565b620014ad620055e6565b905090565b620014e07fdfcff9db5c0001a4a8ff88d7564521e5ae182f75503405aee3622d19b0e3655260001b62000bfb565b6200150e7f5a55fe4186df4e8e414a6f2504b3774e5852558ddbf409e09d2dd9273fbda36060001b62000bfb565b6200153c7f9a5d745b65ebafdc2adb226e0021e0ff4d4dfc023c8a49423a469e21ec523a7c60001b62000bfb565b6200154662004b66565b620015747fdf78023cab09ae4709c13c466fe04a359efc7b4a528806c19241a2b24347eed660001b62000bfb565b620015a27fe43977ecc8fc383612deaa526481dd12c217dc617de9653c2d929fdaaf26417960001b62004463565b620015d07f23d99ded7a08dddac8712dd43904487faa99a77a20c382b416002f037975d3e860001b62004463565b620015fe7f7c269407bd44c42660349a4c6a311bc95a370fcb345ea3b6070a5c5f1006dbde60001b62004463565b6200160862005711565b620016367f215733b8cd9af718b2d564e08e0d1743cce1a0f8416572ea9a1f99dafc713b0260001b62004463565b620016647f113412da639d269ad104ed042bf2f1855e331f611aef936c220a24c70e26183260001b62000bf8565b620016927f49a87477b43c85f7de3f9747b8698fd13d828e70757a90eb6ed144e372b603a560001b62000bf8565b620016c07f8b9d192797d729702a631d63a1b5cb94735fc47a6ad37ef2fe9996d4d0d507aa60001b62000bf8565b620016cb81620057b4565b50565b6000620016fe7ffe301e3fb5f0e9589d77f6c0f03e0a0a52de96fc4a26c11da087fb8d9c4d580360001b62000bf8565b6200172c7f80175d3f52b85a33c312e6860b6db84b400b07ee31f1f4716340da4ba769a42760001b62000bf8565b6200175a7f0bf276956f6d10643d64cf15cc6119e6f0be2bba70f065cd4d09a5a76df4abf360001b62000bf8565b7f0000000000000000000000000000000000000000000000000000000000000000905090565b6000620017b07f285a418db127efb5f6cd021300cf6a0078d60620092549a6953c67fc9acd582260001b62000bf8565b620017de7f114ceb9f36364c43d03a04be3e3b8fa7f5f1d009a92f005c3eabd47e12fd097960001b62000bf8565b6200180c7f37454846a0023e4c4812bf096e6b485507bda23503ef5bc9decf1223ad1773e960001b62000bf8565b600754905090565b50565b60006060620018497fd00d0f9d8e315582b79558dc9c65a118e78d4ac0ab30aedd6c1b870f59e1eb5360001b62000bf8565b620018777f80809cbfc3c2116232fc7ddf20bd0ccc5a1994945751be0533bf7862a25f48d460001b62000bf8565b620018a57fb0549788e51572f117262ee198e13b6351b1c3e8fd8a9fbcbf1db6de248cedac60001b62000bf8565b620018bb8651620018b5620059c2565b6200462c565b620018e97fe6a9411d1a624ca193f7f745242987f48e120e115ece977257ed821766aa0a0760001b62000bf8565b620019177f0eb60a5d86ff041409ca79d4d5c71f3b1adc1e12abad427dae37b89935259ceb60001b62000bf8565b620019308989898989898962005a7462005f226200607b565b6200195e7fe6f5e9eb063cee3838e517475ca10ba69ae8485f67bd0914946561e2ec9d7ec360001b62000bf8565b6200198c7f5cafc32c4b1c34a9bf2208f6efe20c8e7bc5469e99e056972667e852c0b332b860001b62000bf8565b97509795505050505050565b6000620019c87f9e886b13fe83ddbdd49ddff84b8db0770f40ebeb89e7767374810c5951ac06e060001b620009c7565b620019f67fec9c727c77fe71b446b8dcb9e22621b7844e4322ac87f4636dcb1f0c806aa37560001b620009c7565b62001a247f9a17f4bf3bac6a1bc30cadfc6ae50024fc3e8251ef119ea91453c2a3e420adc660001b620009c7565b6000600160003373ffffffffffffffffffffffffffffffffffffffff1673ffffffffffffffffffffffffffffffffffffffff16815260200190815260200160002060008573ffffffffffffffffffffffffffffffffffffffff1673ffffffffffffffffffffffffffffffffffffffff16815260200190815260200160002054905062001ad37f5922c35e5f73ae05092818b1f7b0c44797377194bd499f99f1c2077f3fd1c4c860001b620009c7565b62001b017f01453c7256085fd17022dcb356a648dea5d7efac07338cbc6f102984c8db7b9060001b620009c7565b80831062001ba75762001b377f72b36832788940f9320277c336a2d678e3216bcbc5484248c1fa638a545f320560001b620009c7565b62001b657f6a5a7537a58b48123fe33961801bba4b8ad35b8798924133a54512807bc092ac60001b620009c7565b62001b937f47ead17c5e97a264787958b84a42f9ca9fa2b95b49cacbbd4c630f550edf4c8960001b620009c7565b62001ba13385600062004993565b62001c53565b62001bd57fe0c6e1acbc0c93efa3cd3c5de89788c5297269cd45a95cc29c6449ca54e2f74760001b620009c7565b62001c037faa1fa72b76ce08b04c07f37c998e79f654b5e3ea11540321253e2d6311b6fc6d60001b620009c7565b62001c317f9579ff871a854be8860bea9ad6efbee0ee4398ccdcc001158a3934eaa2840f0a60001b620009c7565b62001c52338562001c4c86856200482e90919063ffffffff16565b62004993565b5b62001c817f631ba605d0bd564ce016162d98849ae6fa17331b1a63fe65aa9f9f1d1aa9650a60001b620009c7565b62001caf7fc529ad0aa0cf0174e531f67dda35d462565a02e95dc9e8ec950fe53458d2180860001b620009c7565b600191505092915050565b600062001cea7fe0c21face9b56ce1727f30254f6afb7b6070df5c4a9b3b2950e0cd94ae58260660001b6200306d565b62001d187f897779c3e0c80b35cb4dfc770d1fb2cb44f895370e7bf771fd90a55fb955752060001b6200306d565b62001d467fa00670045574235ac9439342e7debec5894cf712841adc76fe9f3349d325314360001b6200306d565b62001d8162001d5462000d58565b62001d7262001d626200320a565b62001d6c620059c2565b62006524565b6200669e90919063ffffffff16565b905090565b50565b600062001db97f382873c8fcc382f0d728db834c0253683b060b98b38095c9ec22b0eb55ea9d1360001b620009c7565b62001de77f46809fa8f85043d4775d1937cae706044ebeccd6afb406b6884876e43d3b6aab60001b620009c7565b62001e157f015c91f06107538327f54221a477c8cf22ce56a6baae0977d4d148884d91a4f360001b620009c7565b6000808373ffffffffffffffffffffffffffffffffffffffff1673ffffffffffffffffffffffffffffffffffffffff168152602001908152602001600020549050919050565b6060808862001e8d7fdd52ce016ab88502475a9f8c20f752026c9c2793f1f27d0c3b494bdf7b8d9bf060001b62000bf8565b62001ebb7f72a1f0b2f1d25bdbf83480373af9013699bce84383d6f460dd26b38d011cf32460001b62000bf8565b62001ee97f22a605e4bcee3655558144f3c490cc2ad41bca63475115b0ce03d03a1692b17560001b62000bf8565b62001f2d62001ef7620026da565b73ffffffffffffffffffffffffffffffffffffffff163373ffffffffffffffffffffffffffffffffffffffff161460cd620051a1565b62001f5b7f44232f0ff3d40cba9481fb4d269d06b417adab8a55c98347625c743971fba4a960001b62000bf8565b62001f897f1686b60eafe382648cef0e2b96e7f7e45a56158e338ce9d9825e7d2953edeaf760001b62000bf8565b62001fa262001f97620016ce565b82146101f4620051a1565b62001fd07fa08ef644db2448ff2bd68848260ee4a58e33fda7588b1604f90e0d7e8958a63260001b62000bf8565b62001ffe7f4978584acfb0c9e3b99eb8356c656aaa2e2a97f7fa8951f0e26f82a5e9f203b760001b62000bf8565b6200202c7f7146a8bb4cbd6d6e8d69aa42f8d23e970fc5b006ec117817990b7492222b8ce360001b62000bf8565b6200205a7f548abe558f2c0f8f1edd3c9f40539c44e7036e85f79139c481766e160196ae7a60001b62000bf8565b606062002066620069bc565b9050620020967ff4b7c4c45ec04ddb05df92fe3f82d61149fbc48a181bd7aa8952a01cec3f884c60001b62000bf8565b620020c47fa0b463a5bc8f7376734740d5007921bda5c5c73ffeb87abc8999393bce38b60060001b62000bf8565b620020d08882620076e0565b620020fe7f1e067f344ee15af07b4474172bc7014bfe7185aadc486b08571763d64755300d60001b62000bf8565b6200212c7fa7c04c9eacf294db3a08c74349ea539022972c33a0dc8a4406370dacfc9c4c8060001b62000bf8565b6000606080620021428e8e8e8e8e8e8e62005a74565b925092509250620021767f836867006c52112c0a7d182091d40676e6bcdfc09ebaf1ee19633b167e534ea060001b62000bf8565b620021a47fc0d3125cbd7c78056c00c7fa2e4fe531951e8bd9695c718cd33cf3589f438baf60001b62000bf8565b620021b08d8462007839565b620021de7f5aae61c9a2fd379ee68b751df20f32ae942d34b7a359ec40780d18f6c115e4b260001b62000bf8565b6200220c7f094d83c8b7d63e5afadcf369364c7835e4e8c95f604b2d2467a47d96a932908960001b62000bf8565b62002218828562005f22565b620022467fd3fd1432044cde2c44eec943f9b10959e065d4de4588bc7e3a496d0ccee388cc60001b62000bf8565b620022747f579d91694145efd38c311a1879d45490023e0922f0e7172f135d76481d4ab0b660001b62000bf8565b62002280818562005f22565b620022ae7f33758183f50feaf3f45bed6947ec4daed3a88ade065eee7e7d007481b6fd712360001b62000bf8565b620022dc7f914b1846b3ead69d4133b352d8fb69003ab024d2820dc0f6e069e45714adc3ed60001b62000bf8565b818196509650505050505097509795505050505050565b6000620023237f82244de36650365c37b1ea38d8ab1911dfba5dc66fd1822227b8536c60a153c560001b620009c7565b620023517f89e532722baeeeca9424921b54a4e64c5f5d97531b3e795b9b95707e8bfe3b9360001b620009c7565b6200237f7f9b9a62eceead51d5e1371b1d60e41966887c24d6bb4e0b425baf8e47d3144e2a60001b620009c7565b600560008373ffffffffffffffffffffffffffffffffffffffff1673ffffffffffffffffffffffffffffffffffffffff168152602001908152602001600020549050919050565b6000620023f67f5b6d744b9984ca0f940181ee5e7f3f9141a56799465d611578a724e75da3f27360001b62000bfb565b620024247fccd34a442ea9189944d6242d7d944d51762e07badd0e467c1d9ef323954e783260001b62000bfb565b620024527f9b5e1c3ba3409b07d3693e410c8f9054dc20b55c829e32dae29721db02bf3ba160001b62000bfb565b7f0000000000000000000000000000000000000000000000000000000000000000826040516020016200248792919062017a37565b604051602081830303815290604052805190602001209050919050565b50565b60006060620024d97fba98e936cdef4ca96e4dfb25705c691ebe165486acfee29b5b8132b7532799e960001b62000bf8565b620025077fff130e20b5fc0d021e268e5f797f3c0960d15e2c8cf09ddc717cbef39bf75edd60001b62000bf8565b620025357f0fa44d67d48b396752cb98cea1cda5e2edca18b74cb3cd94b7b18cfe2dd817e760001b62000bf8565b6200254b865162002545620059c2565b6200462c565b620025797f5474bc8c6a7adc8ab6903f1692d1596426e1378ee7839217201aef377341423360001b62000bf8565b620025a77fe4b38edf3ee35958790d7ba6866e1285f3b3dae2db6a57180c2241647fa950f760001b62000bf8565b620025c08989898989898962007b5562007f546200607b565b620025ee7fa85c5cf1d2b90cf94d4ab2d8932918e5209f8a33fce8d5e6d71bc07366507ae460001b62000bf8565b6200261c7fa3ff671cc525290dae3036cab8f73fff16c4ba80317c39306b32477d80ff358760001b62000bf8565b97509795505050505050565b6000620026587f9c9b30d982dadfcdef9de212bac830915a4d1caaaa28d64e1033fa6637fb8a9e60001b62001814565b620026867f6bb33126893ed90bb9a6374d2ef750831530e2021ba352adfb8a6ff610d4d16b60001b62001814565b620026b47f04f24c8d535508dc1885ac2a967a18e700fbe86b4081bac79230f350b560f18a60001b62001814565b7f0000000000000000000000000000000000000000000000000000000000000000905090565b60006200270a7f228851fc2e8857a81b46c81fb4c613c64a9c269aa98535e1e985953789ef2f1b60001b62000bf8565b620027387f534a6db9a52189f1345fce6018b162f1e308c199d21a3bbd28ebc4431561860860001b62000bf8565b620027667f11f8cf21c3fedd0af08cd8e6b4cc6250e7b35b668956799d73c2c4de887a211060001b62000bf8565b7f0000000000000000000000000000000000000000000000000000000000000000905090565b6060620027bc7f1b09bd64ab4c8210a35428f1ebcf545cbe7c19d4fed39554617e53111611734a60001b620009c7565b620027ea7f6a0372273e898356c46874c4805cc38713baf71f5da51f956f2c0caea21eacae60001b620009c7565b620028187fdc97ed429cb526ace9069d77526e830a568ebf7c714325c4b9a7f50c245d38be60001b620009c7565b60048054600181600116156101000203166002900480601f016020809104026020016040519081016040528092919081815260200182805460018160011615610100020316600290048015620028b25780601f106200288657610100808354040283529160200191620028b2565b820191906000526020600020905b8154815290600101906020018083116200289457829003601f168201915b5050505050905090565b6000620028ec7fdd8f4fb3f54ba0677630d60193aec8a63d885459a399f371114fb52b507d847960001b6200306d565b6200291a7f1ad36dee9cfc90d0ee1337dd9d66b119e6e7d12367192e398d6373791f887c1160001b6200306d565b620029487f22726441e838bf212b62cc0d03f1ce1bdcabe12c43b0683026ccd56d91d55e2e60001b6200306d565b600854905090565b6000620029807ffca5411a726597206a5f321a95c98318f5f3537b0823f80eed49b891a81fe0cf60001b620024a4565b620029ae7f2081a451258d01c6f71bb79ea0a6cb6cc56960e8da19416e6c011c34791aa10e60001b620024a4565b620029dc7fa95de93a2f32a98e44806f779cc9741c33dd36af4379754fabad27cc01de3a6c60001b620024a4565b6000620029ed8560200151620080ad565b905062002a1d7f010dabe4015b11d7e44a270a021b8ce22483d7e443f14d23b9ed0dc908cb8b9e60001b620024a4565b62002a4b7f9223a1b84f0a376495946cbb40d1f9a7aeaab7a9805929649352b346d85354a160001b620024a4565b600062002a5c8660400151620080ad565b905062002a8c7f7120e32f071fad378b57290fc06161710623b57784221956bd742b385578178460001b620024a4565b62002aba7f1be8cebdfb608c8fa2e93cba1ec1076484145a3a5ea22f0d0df0c2a35339b15660001b620024a4565b6000600181111562002ac857fe5b8660000151600181111562002ad957fe5b141562002dab5762002b0e7f6544fa207e213787da76c5ba8119dd55dcc79f5c2fb7ef028310c07e14647ca460001b620024a4565b62002b3c7fd98019f7dec9c9c975398ad4362b4fdb936d26c7600a4da0e2cbe49a68091c2d60001b620024a4565b62002b6a7f2464802cf57fd15b4911a67142ade3b780f0f640a2ca74a7961c643b0e1f5ba560001b620024a4565b62002b79866060015162008b2a565b86606001818152505062002bb07f2ad9ce18ff8bad4ef0761126088206dcd72f8c58772b5a558b832e4ad5ead8a860001b620024a4565b62002bde7f0ecfdb4571537b8037ef0101c329abea79b9d1d14ef64b4a6cf20b71b5e3062a60001b620024a4565b62002bea858362008c4a565b945062002c1a7f6c35102cc2d99ad8e900cedb3f63ec31a3f2cd6fffcf48a2e95589bc728dd52a60001b620024a4565b62002c487fe09d1dfdda91e4ef3cf72e55e2b7029c2680282cc4e734333df429fbbc90925260001b620024a4565b62002c54848262008c4a565b935062002c847fce0728a5727a660fffc38396ab7ed926506adcea424c5a17cc76eb1b5bc98b1c60001b620024a4565b62002cb27fd75b945823d6fc73e8624f8b018b1c76ecd7f2426edf672e285f7e0435e2fe0560001b620024a4565b62002cc286606001518362008c4a565b86606001818152505062002cf97fbaeb69ad7d0f1bd2688ac0ad2cfe3cc00962dc167095450ca462c198615edf4d60001b620024a4565b62002d277fd846b56c3f793b99807760e2a604c40aec8fabaffbe7c14e35475effb39d14c060001b620024a4565b600062002d3687878762008cea565b905062002d667f90abdd53e8ebd3a85ca13b3cefe55d9ef216873935ccd0faebf688cbddd9a44160001b620024a4565b62002d947faed8e9566ab8f7368ccd70adb97eb060662772fbbbfbef9037a7574b02d32e6960001b620024a4565b62002da0818362008e70565b935050505062003066565b62002dd97fc99630bc9ac13d1cd4390d8f2935988aa040601f5d0d6d7d0b31cb597d25c67d60001b620024a4565b62002e077fbf0713c5db412564f65c3fc1ba2e2fcc60b5cf5075b6807b17029e8dcfd35d5a60001b620024a4565b62002e357f4be28a1179915deec16de39943d127db505bd0f5ea13a2a4073845d0dbb242c660001b620024a4565b62002e41858362008c4a565b945062002e717fac96926668ff99e340b84cdd4fb90218ae1d9914b01505fa2a71846c1bdb92f160001b620024a4565b62002e9f7f29d206df7234af95be5464c00fa04fee86e71432e45efcab9d493a52c8adae8960001b620024a4565b62002eab848262008c4a565b935062002edb7f2cc2c1504faf8c9f260e1b027ffd5045cb40ce34fc5a1b1c7c9817372dc011e660001b620024a4565b62002f097f8eedbf20a0d9962936cab3debad5b5be8ffdbe98b03a9b3ad1f0804338905b7760001b620024a4565b62002f1986606001518262008c4a565b86606001818152505062002f507f2532f3c05d940ffb504670b257dea5498d50de1abd1f1b30ca02aff9854c900160001b620024a4565b62002f7e7f256c82da89ff75a2934b57641574a815e07f23e762a919729b9942b122ec445960001b620024a4565b600062002f8d87878762008f10565b905062002fbd7f8098520f857ee856450dd3fa1418f8e1ca96812e4d1f4beca8a0a77b0b9fd40f60001b620024a4565b62002feb7fd935005a407e46db3c7732a1164f3735ae56af982825107a0ec352aa91f8454160001b620024a4565b62002ff7818462009096565b9050620030277f3a98a91f59db728b0e32062bea11ea3b5008153c01636f5a158c87e99a32ad3260001b620024a4565b620030557f69ab9b5b7600d18dce03427e01176d159ed9005748283f3aa54ddd02a9b9026c60001b620024a4565b620030608162009136565b93505050505b9392505050565b50565b6000620030a07f6deb191175557e21e4d5b5048415d02d1ec203d2bd1340ad5ceab8c8bbe5637a60001b620009c7565b620030ce7fd80de844ca89d8d20c246318e9b8c31bf9962c8573820b07b2d59addbc0bd06260001b620009c7565b620030fc7f7303993c8221041674f06a2709b06c531d6c945aa2593134189fcc39ebabfcac60001b620009c7565b62003109338484620051b7565b620031377fe51d6f2d5a55f449e5620034e7576eaf2db66cf857562e9da7e8cb30115fd3df60001b620009c7565b620031657fda42cdc715c33e6f9d242db4cd8e8b9c0b2d64bf1b38ae911fb46754752d016760001b620009c7565b6001905092915050565b60006200319f7f98f97f59cb131fb82cfaee06e3cf383c35cb150c5a8fdeaca8eeefd8396a6e7660001b62001814565b620031cd7f7d4359fef2acd5fc57a14345e963109c58bcbbb9bd9e0113a171f687be8af81d60001b62001814565b620031fb7fd33f29812c982b3eab2164dce71d52ee5a5ef4e53b0a1b101eac738299ea9ab360001b62001814565b62003205620091ea565b905090565b60006200323a7f2e0d3c18d0fbf8e182bf9fe2afa61699f2e07d9f05baea32ef7443851223ee3260001b6200306d565b620032687f3b6cfffeb78027990021f63ade86a3942c9a1e2271aa61a1fa2d0240c55267ef60001b6200306d565b620032967ff3bba9906088d44859b327f0a1adfd4423b98a365cdcd73f102f644282a28d4760001b6200306d565b6060620032a2620026da565b73ffffffffffffffffffffffffffffffffffffffff1663f94d4668620032c7620016ce565b6040518263ffffffff1660e01b8152600401620032e5919062017b95565b60006040518083038186803b158015620032fe57600080fd5b505afa15801562003313573d6000803e3d6000fd5b505050506040513d6000823e3d601f19601f820116820180604052508101906200333e9190620172dd565b50915050620033707fe6fd423de83db26e781e44ef869052ab88cda2bf65f93e908577862d788f940660001b6200306d565b6200339e7f1534a377580f6bc5e1923fb31496f0da71c886a7e496be87ad70ba8bc2a12c8d60001b6200306d565b620033b381620033ad620069bc565b620076e0565b620033e17f12dbffd31c853c48d50629c4cc067cc60829ac6adcd852decc49755db5cfb5d860001b6200306d565b6200340f7fc5d3ed268f367b58959b2eefe24c1a1a808073b63d51ac74778376d668018c1f60001b6200306d565b60606200341b62009306565b90506200344b7f5325b50af435ca73795e3100ad1f2ed8e2aea5b2915a2de7243a73b229a1a13160001b6200306d565b620034797fb78f0857b6876414d47ed3ade4888455db3858e5d641037c410401df5434942c60001b6200306d565b6200348581836200a02c565b9250505090565b620034ba7f92d8088417b633aef9db9560d22473cbb0829dad88088113714e86b3045ee6d460001b620009c7565b620034e87fe6d99ef77a15061b9388a4be137bce3ab9f89da5d47b6cc0381b37556fb366a560001b620009c7565b620035167fc9ec9b33c0a89aa9c06a0e246f7266b0b7f56e99dd89ff9fde5facf1df91f04960001b620009c7565b620035268442111560d1620051a1565b620035547f0d5d3b7479f11a85af9f69520d511f16edad0d20279bc39c96adc2a9693e424b60001b620009c7565b620035827f1837a5abb40ba9b89d45d3bfa614f5e0cef7c17ae0b08272496053cc719990de60001b620009c7565b6000600560008973ffffffffffffffffffffffffffffffffffffffff1673ffffffffffffffffffffffffffffffffffffffff168152602001908152602001600020549050620035f47f71c573ac129a542e0ef7ef0f274613fa70efe280b19ce94bc4bb330b0ac321b860001b620009c7565b620036227f49e5eb4019850e3ac49c419ccfe5374994591f79430a262f0d42e4383deff1d560001b620009c7565b60007f0000000000000000000000000000000000000000000000000000000000000000898989858a604051602001620036619695949392919062017bef565b604051602081830303815290604052805190602001209050620036a77fcaf67d9ef00cb0711a1a79c9266801d8b10566ad258627da9176df7ca508468860001b620009c7565b620036d57f9e88cd1db5d0da84d0f42b5642e94676eaeb714dea06cdbb54a90fd2e501453560001b620009c7565b6000620036e2826200a25d565b9050620037127ffbb8f77bb41a1d90f4c692267119eb52783b5c658a90b6b4be513a7b0c8b614a60001b620009c7565b620037407f37d2d51bb038651f842276de0361db8fd6b148f3738f07359c9ad4f6d416187d60001b620009c7565b60006001828888886040516000815260200160405260405162003767949392919062017cb9565b6020604051602081039080840390855afa1580156200378a573d6000803e3d6000fd5b505050602060405103519050620037c47fd1d138253e25432a8badf5378b017a1388c994f997eb395294878705d58b96e060001b620009c7565b620037f27f84f8670eb58ab07f1e88c484c695c261c0e65808f8ba9e9b0c51d9ffdc84902a60001b620009c7565b62003868600073ffffffffffffffffffffffffffffffffffffffff168273ffffffffffffffffffffffffffffffffffffffff16141580156200385f57508b73ffffffffffffffffffffffffffffffffffffffff168273ffffffffffffffffffffffffffffffffffffffff16145b6101f8620051a1565b620038967f22d7de187d767badd08d0f56b9032ebaf3425b342596c16a4d6c074cf3f87aff60001b620009c7565b620038c47f177abef53e1d0dd58ac47c7df006757d5d6f236a0aa590407ec19064e1ab44ae60001b620009c7565b60018401600560008d73ffffffffffffffffffffffffffffffffffffffff1673ffffffffffffffffffffffffffffffffffffffff16815260200190815260200160002081905550620039397f4cdd763c9803f8c2ced5b3f501b434276e7e1cbed3e20f3bf45228060143216e60001b620009c7565b620039677f0889d4543369d8b61a6a795ec77232055ddea529d88d80d8fbb5228a924dff2060001b620009c7565b620039748b8b8b62004993565b5050505050505050505050565b60608088620039b37fdd52ce016ab88502475a9f8c20f752026c9c2793f1f27d0c3b494bdf7b8d9bf060001b62000bf8565b620039e17f72a1f0b2f1d25bdbf83480373af9013699bce84383d6f460dd26b38d011cf32460001b62000bf8565b62003a0f7f22a605e4bcee3655558144f3c490cc2ad41bca63475115b0ce03d03a1692b17560001b62000bf8565b62003a5362003a1d620026da565b73ffffffffffffffffffffffffffffffffffffffff163373ffffffffffffffffffffffffffffffffffffffff161460cd620051a1565b62003a817f44232f0ff3d40cba9481fb4d269d06b417adab8a55c98347625c743971fba4a960001b62000bf8565b62003aaf7f1686b60eafe382648cef0e2b96e7f7e45a56158e338ce9d9825e7d2953edeaf760001b62000bf8565b62003ac862003abd620016ce565b82146101f4620051a1565b62003af67fa08ef644db2448ff2bd68848260ee4a58e33fda7588b1604f90e0d7e8958a63260001b62000bf8565b62003b247f46ec2214567eed137044132d4194f1c924f4c060e5ffa0c36425639ae078686260001b62000bf8565b62003b527f34f33f4da7f7b5b6beca15691cce90b393284fa18ab665ef4f979d7ba668b75160001b62000bf8565b62003b807f41850859b7aad332a49e350912634dc754ddd72f15e16eb9c08cfc5fbcdc917f60001b62000bf8565b606062003b8c620069bc565b905062003bbc7f32d4ce0ed69003274015467297b5008ec37122d44f4070b847991d690b3476ea60001b62000bf8565b62003bea7f2ab99d3b439cef37bb5db1bf35c3833df3cb97ebf03d8a45ef9e121a5142a8c460001b62000bf8565b600062003bf662000d58565b141562003f095762003c2b7fea3433161ed476bec1be6bb256af3412f73e239bf1d31f223f8654f1ba60eb8060001b62000bf8565b62003c597f7eca8429823f9a4a3c30156d8244186884f94acbe80dd8b4b8a6fe8dcc2f0ee260001b62000bf8565b62003c877f27f8e3d0f4c1680ae0e0bf8fd4ef68029f7756e06db2f52e0f668323244f50dc60001b62000bf8565b6000606062003c998d8d8d8a6200a324565b9150915062003ccb7fd15fa2c9dfc7decb1ecaf21f1f39ff748bdba866a98911751fe1c93b22f0341a60001b62000bf8565b62003cf97f3c146b958c6efa242bb3eb6288bd5a37c7ed49c86a60ccbf1bf0824410bea8eb60001b62000bf8565b62003d0c620f424083101560cc620051a1565b62003d3a7fa34e9d7293c57aebadbf6919e98ffba1b2f671ff406e081dca6d7e0f365ea51860001b62000bf8565b62003d687fa74d37d84e980d05e719b20c106e44b40fa7fefca68b7127480c584cbbd4bb6560001b62000bf8565b62003d786000620f42406200a873565b62003da67fbc1c70b29a80a0aa330372c19d123e9858182c26283444c7d80900ebf8ba953660001b62000bf8565b62003dd47f21d746757b715b6905c0fb50c34fddd483458585be03f140506b9095fbe0e22960001b62000bf8565b62003de58b620f424084036200a873565b62003e137f91bfa1e0fe97dff130a501c99ee8b5d2deecc3ac371afaf4093828a73d185ad960001b62000bf8565b62003e417f8cb7df7607dcf934a91b4a5959f1d031a74af6049028ee10038c2491917d6c9460001b62000bf8565b62003e4d818462007f54565b62003e7b7ffc5eeed21761bdd227da61b8677551912ed74b72c52b8204d88a61e51e70850e60001b62000bf8565b62003ea97fe622457cbedf2b813a4e174328c84816851040cff22a62e9814424b2c4bb0bc860001b62000bf8565b8062003eb4620059c2565b67ffffffffffffffff8111801562003ecb57600080fd5b5060405190808252806020026020018201604052801562003efb5781602001602082028036833780820191505090505b5095509550505050620041b6565b62003f377f6a9c19d9a1c5148d2a471d6ef29900e2cb13b29ac0d172bb662a4b92eb1161d560001b62000bf8565b62003f657fb7140b63c91a0e65b2d1b6857658d3e1c1b4a47863d19115d807e0b1a8123f0c60001b62000bf8565b62003f937f084a8a8251a8b660f3dfc378593377bf1fdfc92b86cdd1a8bb6791aa2735a75d60001b62000bf8565b62003f9f8882620076e0565b62003fcd7fe0bbd7cfaf875f5310d3248d2261659c2ee4660821ba9eb9ee559d4d2657b7aa60001b62000bf8565b62003ffb7f6efd53086dafb0d265c98ef28dbd6ddf0f499c8f42e2f3ae939ad1970e5f804c60001b62000bf8565b6000606080620040118e8e8e8e8e8e8e62007b55565b925092509250620040457f675b257735af140e002a3e9131359820ab14127ef70b32915e782b7111fd281c60001b62000bf8565b620040737f47831360a9128d2a39db19aafd66ca05820f93a0e7e54b904f495a98d57fb06160001b62000bf8565b6200407f8c846200a873565b620040ad7fe39f3e029ec72aa928f7b20b2ba0f199b8f3daffaa8ecae5348a3f948a628afd60001b62000bf8565b620040db7f7f62b25c4a80bba61fd39be53125ebfed55e11b7da8f1c6259f35d47b5fdc45b60001b62000bf8565b620040e7828562007f54565b620041157f232a996b66398d167279170535514cce51440ab05c577fdc50d08eb1b69773a160001b62000bf8565b620041437f991a61d62997ae60cd83b6f52d07c1ed715b70afad2de8c6e4934cb80c2a7dd860001b62000bf8565b6200414f818562005f22565b6200417d7ff48009596e711481c620a7d2650fd3d755e07f569f4e846cf9b39f35497b043960001b62000bf8565b620041ab7fa9f747aaaf0b9777d744d2f62bae0085b56691ddbb20cce7943f4ce383dde83d60001b62000bf8565b818196509650505050505b5097509795505050505050565b6000620041f37fa9b98a594d3b5c774b74cd6ed48cf8dff4f80392c6473684179cff7500e6444d60001b620009c7565b620042217fd034439f5728cc6dbb46c15a010144ca40c85fb7a49179a37ddd6688258ce6d860001b620009c7565b6200424f7f1d2f27b8fa67c9b6dacc27947e01a8353fd11ced3843151e63c744482bcacdca60001b620009c7565b620042ec3384620042e685600160003373ffffffffffffffffffffffffffffffffffffffff1673ffffffffffffffffffffffffffffffffffffffff16815260200190815260200160002060008973ffffffffffffffffffffffffffffffffffffffff1673ffffffffffffffffffffffffffffffffffffffff168152602001908152602001600020546200aad390919063ffffffff16565b62004993565b6200431a7fc624b982209d34d3063563b50888b38b0f028ae195fbfc8489f5a7881b9247f360001b620009c7565b620043487fff5d9bd3a30bd6cb8e1f7d6662787c729ac63a8de91f644f3e41ada4e2fc577460001b620009c7565b6001905092915050565b6000620043827fcde1da088e653348a27e3db5513a0b32042c7bddb19b9d92e981f2506dec065160001b620009c7565b620043b07f0a42362e590384ffe636c3826e148b566dfbecfc831f0684dd9f6a23b8e65cd060001b620009c7565b620043de7f09be738a1bf0b0516ed2f8bc0f08cbe34a749c8983227a44bbf2e5c671b575d760001b620009c7565b600160008473ffffffffffffffffffffffffffffffffffffffff1673ffffffffffffffffffffffffffffffffffffffff16815260200190815260200160002060008373ffffffffffffffffffffffffffffffffffffffff1673ffffffffffffffffffffffffffffffffffffffff16815260200190815260200160002054905092915050565b50565b50565b6060620044997f3b40d35dbc3a825cc7ceb8d35c712ce8ef634823f6bcf70043fb6ba67d14773360001b6200306d565b620044c77f24d0339ac22cd7360bfda611a84e5d15c1c849eacc6563b3d46b7e69352fd9f860001b6200306d565b620044f57f92a0616c78d2a23dcadf934b4c22d42112bba57d6aa41e73d59b5f5bb34e00f160001b6200306d565b620044ff62009306565b905090565b620045327fccd7e13b327ad13eb1cf5266c6b879986903b9a1f80b6661c959488e5f0fb6d660001b6200ac38565b620045607ffebde624b7e9ce0b255ec134f0aeadd3b2108737eef3a0a39d228170f9130f0060001b6200ac38565b6200458e7f2ada8f09730243aac13b03ccb80c149c6ebadcaf132018bc0ae05b400c3e067c60001b6200ac38565b6060620045be7f394297b1718752bb0ef7436c53e94e02c76dba2f63de8907998210a9ab652db560001b6200ac38565b819050620045ef7fe19f999020959db22bc5ee4f58ef119cc222f2c75a6691c1d02afd22bb0d832160001b6200ac38565b6200461d7f251d0080a7ba22b7ea3a753b97fd5fe79dfac363028058899b93fa1a626ac53c60001b6200ac38565b62004628816200ac3b565b5050565b6200465a7f6f02687e057522eb19b597e3b091ff65201fe492dbd6f67980e016d6aa08d53260001b6200ac38565b620046887fe51ab352fa79dd949e57050cd47d3f0410afdfe7c28a6ef735cccfeeb18f582360001b6200ac38565b620046b67ffce750c89171756118e85bed28eb1432c569ae13e7db5e43107d00a4ed5889a360001b6200ac38565b620046c58183146067620051a1565b5050565b6000620046f97f59553e064ffc30705bc6f1bd0548781ec42eede447ec06cd2d9ddb674a8219be60001b6200afef565b620047277fab4e9dc03bf83496a9fb56ed78c77ac71999c4c5b77197bc3f03888fa1f7da1860001b6200afef565b620047557f8ef261d3a0653ab868c899418b467bc6f67e2ccde42f77cb49f1285b32558cd560001b6200afef565b600082840190506200478a7f172b47099aaf4a028546f4463220baa09cd81d77ae8c1096fc6579f4ecaeac2960001b6200afef565b620047b87f967579ee3162c1a66be7747b1966e185b33f2fc6a52477633bfe253a007a6d0d60001b6200afef565b620047c8848210156000620051a1565b620047f67f837f36e10f55e182d80df4008a9565a95c9998c0cbd301003424ee94022b465e60001b6200afef565b620048247f60b415dd739853b43f2c31e0a76108ad464adc9d8eacc59b1f59ea004963800b60001b6200afef565b8091505092915050565b60006200485e7f4ad272e8ef896cf9749bbb33b720ec50902be1d6268b31d272f37eeffc01139760001b6200aff2565b6200488c7ff5b8f6315ed04f6f880d15c913444893b354f451e1a7755f980256aa3a67eb1b60001b6200aff2565b620048ba7fbdc5b111411beb8ab6b53375bbc8bf4e74258c8c8f4987a4928ce54801c48b0060001b6200aff2565b620048ca838311156001620051a1565b620048f87f878d38a5a5b3291f5b62618821c286b1ce4d8ac1fde0f5c52c6f8b253e3c721860001b6200aff2565b620049267fdee8db45952fd0881a888ce099e6774ada46e04a8240c739354e8b594734d0b160001b6200aff2565b600082840390506200495b7fa883eec5840f8062e57d5a86c35fd0af17f6df22b4081b6a3676dd71088ac1e360001b6200aff2565b620049897fc44e06103de1985a150207dd6e5102796da4ff917908533e00a2fd2e75a52f9460001b6200aff2565b8091505092915050565b620049c17f9a5b448a21cd2032fa5308aa257d4351306ac960be62691687d8894949250e0260001b620009c7565b620049ef7fb03e90560bcfc6e147e178f704890e0476a2bc183a28c6a21d4ed276077228e860001b620009c7565b62004a1d7fa23e95d7dc0024c00091f5622f8bf7106ac1268477fb653af8c6c9fac644c9fc60001b620009c7565b80600160008573ffffffffffffffffffffffffffffffffffffffff1673ffffffffffffffffffffffffffffffffffffffff16815260200190815260200160002060008473ffffffffffffffffffffffffffffffffffffffff1673ffffffffffffffffffffffffffffffffffffffff1681526020019081526020016000208190555062004acc7fbf7482d78d5e209f32f7d094fd2c863fcba586e8713beafce89fe20750e8a3ad60001b620009c7565b62004afa7fd9fd5feda47756822224f2afe37e079d8790fc04a9924ac7a21fcd251c76cba560001b620009c7565b8173ffffffffffffffffffffffffffffffffffffffff168373ffffffffffffffffffffffffffffffffffffffff167f8c5be1e5ebec7d5bd14f71427d1e84f3dd0314c0f7b2291e5b200ac8c7c3b9258360405162004b59919062017d81565b60405180910390a3505050565b62004b947f037c1c31a242abc9fe85f7897d7e3db2fbb4a96d88800fd61753b3feeab291a760001b62000bfb565b62004bc27f9b69ded238e1f105af3c724db26f035e19242e09a189005c88d1afb44e2dcdf860001b62000bfb565b62004bf07fb34966d8df6692c5bb03465c646169e626a9b8831246d3a50e8307b39c31ec6760001b62000bfb565b600062004c216000357fffffffff0000000000000000000000000000000000000000000000000000000016620023c6565b905062004c517f3851df8b489ea432cbe9ff42b63c2ca5f69a63da3d74f1fe1778c5c8160ce22b60001b62000bfb565b62004c7f7fd4c39b3623449b73860af568247fe45de94492dc66e5806084c17143e9fc8a8f60001b62000bfb565b62004c9862004c8f82336200aff5565b610191620051a1565b50565b62004cc97f9ca88045db8d949814438a13bf21b48aedd95f5ff425c78bdeecf9e554c20e0c60001b62004463565b62004cf77f4484fae8b8c9b656ccdd7654efc847550084d7ff8a53c71d79f033cb2841200e60001b62004463565b62004d257f3a1188fe57cac37044a89dd8e5528114be6e1007b6406a553d38ef12bd40128260001b62004463565b801562004dd55762004d5a7fdda645df7e98b889b69605a1bf756afad35a07ce30b01314c79d51c37b54701060001b62004463565b62004d887fb7f6d0de389687aa7fde5c37b0c2f09f4a18c62972c7173468c0d5f3cb9cc91b60001b62004463565b62004db67f360eba24823249042ba60c6e0658ae8b185a6fae1f97291b0b165b49646efcf160001b62004463565b62004dcf62004dc46200503d565b4210610193620051a1565b62004e79565b62004e037f05d8ac58c222598101af6f778876daf2b2ee278593a4decfa775af3163d0b4c060001b62004463565b62004e317fcca9c947ff50725ae80c4f35ace24e26c64dfdda7d4b9eb9238c0587de3f819560001b62004463565b62004e5f7f7ac650656159f2390ccf4a5a435c6e94ef6bdaf2db56514e60facb392b930ec460001b62004463565b62004e7862004e6d620050ef565b42106101a9620051a1565b5b62004ea77f614e1735d26a417915233ed97d734bcb5ba84914644cedb23defc5a2c4eaa55160001b62004463565b62004ed57f1b4a3e5f5d8a07e71bf12327fc36732f208a90d5127ef5a880ac46eb5eda52e960001b62004463565b80600660006101000a81548160ff02191690831515021790555062004f1d7f60de7a74b61922d97d93f392d3be383d254e5a8bde11d9f3667002600e9372b060001b62004463565b62004f4b7fd50ea98c5ed63cf272070b3787b98fb630edb1e3eca7d0d12f622fb79864addf60001b62004463565b7f9e3a5e37224532dea67b89face185703738a228a6e8a23dee546960180d3be648160405162004f7c919062017b3b565b60405180910390a150565b600062004fb77f89b34f2fb06dac097a304a424a1ad8c28395d1849054b696c8fecfcff4055dce60001b62004463565b62004fe57f627cb46d8473646cf71270352217eabe06ac16332088afb831fe88e28ec077da60001b62004463565b620050137fb74ddcb4d2734e77259615375d823c21dac5b776b56f1c1a11ca9ca567e71a7b60001b62004463565b6200501d620050ef565b421180620050385750600660009054906101000a900460ff16155b905090565b60006200506d7fb842466cf656b2952ad7f300d5515c05a11d6a992cbea6b69e8eb29cfc79eabb60001b62004463565b6200509b7f4e72d726a61cf09efe8147a409ab7bdc1ea15e796d8baca5a430cab1a5335a7260001b62004463565b620050c97fd3ec2efc7233e25174de2c94fc91d34ee9074a336f9f1015ffcd059519f4d0a460001b62004463565b7f0000000000000000000000000000000000000000000000000000000000000000905090565b60006200511f7f4052916af5ae9f897cb803d56086596648e0c168ef92212c663e3134c3b19a6d60001b62004463565b6200514d7fd3c6251a62d0f77016b4e3b22d079f8a671996b36720c49a2ccf206d7e76080960001b62004463565b6200517b7fc4dc146b381b9b1de3f7d4d3ff843f926f346ba6f9d8f5c0795b47af1f1fac9760001b62004463565b7f0000000000000000000000000000000000000000000000000000000000000000905090565b81620051b357620051b2816200b2e1565b5b5050565b620051e57fd529164b19be6d95bcfbdaf40f429a8a1603f0c977f519cb9f870ecb8152a47e60001b620009c7565b620052137fe41ac344bcf11b9ded08259d4818278957f90a7734a706dd5f2b2325751c28cc60001b620009c7565b620052417f25663d4831b921ab3e180db522e67b9d4c731778698c35c1b98bbbf3028d920960001b620009c7565b60008060008573ffffffffffffffffffffffffffffffffffffffff1673ffffffffffffffffffffffffffffffffffffffff168152602001908152602001600020549050620052b27f5d78b30e392bc7f6e0e27e15c0002035f9b08125eefe5b8d1387072d4ed902b160001b620009c7565b620052e07ffcfece9bb0f8c43acd0d28fa43d0e21f14661adf0416e1ab7863208b145203d460001b620009c7565b620052f182821015610196620051a1565b6200531f7fa041584898bb01c1b6d96f86c51bb6651f3bdee1c82a9f7623e72a330b7e434460001b620009c7565b6200534d7fcb06c78a59ec59ff22e9c4ec6cd136da452099244a1d78be0fdac02c0f855b2f60001b620009c7565b6200538b600073ffffffffffffffffffffffffffffffffffffffff168473ffffffffffffffffffffffffffffffffffffffff161415610199620051a1565b620053b97f36e5b8353b45f2872d2100bf83f12822bb595a1548b60db4e3ee9da3dbdb3cf560001b620009c7565b620053e77fb9d2dcc68a6a40971012c756e4fc1700ef0f6a8dac7815c8883ffe1f27e1dc4660001b620009c7565b8181036000808673ffffffffffffffffffffffffffffffffffffffff1673ffffffffffffffffffffffffffffffffffffffff168152602001908152602001600020819055506200545a7faa23196d94220b56b86d670ed144291b9f1cb0700b33e857b4237881427abb7e60001b620009c7565b620054887f92c148fdf087e986784f946c0b1a53cde22a376b74accdd6980a58bf7e478d5a60001b620009c7565b620054db826000808673ffffffffffffffffffffffffffffffffffffffff1673ffffffffffffffffffffffffffffffffffffffff168152602001908152602001600020546200aad390919063ffffffff16565b6000808573ffffffffffffffffffffffffffffffffffffffff1673ffffffffffffffffffffffffffffffffffffffff168152602001908152602001600020819055506200554b7fbde74482855c06aa81b686d4347ebfb8c5497ad562890e3cc31daa11d0b3e99360001b620009c7565b620055797f4049d7d86893edaf6070b20f62df68cc1472a6753938f5be6b67573deb5d33c560001b620009c7565b8273ffffffffffffffffffffffffffffffffffffffff168473ffffffffffffffffffffffffffffffffffffffff167fddf252ad1be2c89b69c2b068fc378daa952ba7f163c4a11628f55a4df523b3ef84604051620055d8919062017d81565b60405180910390a350505050565b6000620056167f0619b08396514f3014b4cd388f4277c5ee27d85e6ddf8c8e8741a4c70985e78660001b62001d86565b620056447fadf5ed2199ad87ddb5b50c063afe706a9746a5f97871ab751613d492674010ea60001b62001d86565b620056727fdf8526b85b2735b3fbfc4736bf3d3dfa64ae072b5fd103fbe8a3f3cf1ebbbb3460001b62001d86565b7f00000000000000000000000000000000000000000000000000000000000000007f00000000000000000000000000000000000000000000000000000000000000007f0000000000000000000000000000000000000000000000000000000000000000620056df6200b351565b30604051602001620056f695949392919062017c5c565b60405160208183030381529060405280519060200120905090565b6200573f7f78de2f2ed65337ea91dc7f8633b4ebbfee50e836ec3e7f6f61cecf0c8a5b0d4860001b62004463565b6200576d7ffbeb7bdef9fce6baea2e09e278d93ae063706540283221171588ec3a681cc80560001b62004463565b6200579b7fa8c9fc7a7b205b4878200059417e7c075d2991f70b31def03c582521ce0701f960001b62004463565b620057b2620057a962004f87565b610192620051a1565b565b620057e27f4db390be21e4fb063d5dd50c0d8ff4fecb780cb5d3a663078f0238771f240a5b60001b62000bf8565b620058107fbb76a41f0f7668870dc0f60369571a4c1c74f74012e4a44cda2833ac29840c5060001b62000bf8565b6200583e7fa4b530f061555287ea4320080212b502f18a367bec77f93b855255532f27280560001b62000bf8565b6200585364e8d4a5100082101560cb620051a1565b620058817fc92e78637e75ff2067c493202cbc2e5a0c3ff84b364a570b3fc8cfd0bcfac0bb60001b62000bf8565b620058af7f8d683083a08acc0b83ceecfcab17bca90825940aaaabc6c8eb4cb5b92c20670e60001b62000bf8565b620058c767016345785d8a000082111560ca620051a1565b620058f57fc6b4f73e1e3e08acbef66c2b93bbf2d5ec40bc2f3e3cdea77a81d5f64e46cb8660001b62000bf8565b620059237f219cccbd8afb9a6938460c83557637149eef3eccc86f1f705bb1ac24cc6a982860001b62000bf8565b80600781905550620059587f7a8b5c43fe9ff106f995ea4ccdb6300781de8b765da9047aaf54af4d21c424c860001b62000bf8565b620059867f69bf62710ab010bd67f43d890ee13c590d761678d4320c0e0d4b5c7a6a5923ce60001b62000bf8565b7fa9ba3ffe0b6c366b81232caab38605a0699ad5398d6cce76f91ee809e322dafc81604051620059b7919062017d81565b60405180910390a150565b6000620059f27f17ce6d081f74ee08ef9e48f9425d456b2b399ccaf069b78b5c8013544e73f87760001b62000bf8565b62005a207f14cfdc4a355e739ff803b919d9d0b04b5dab2d93ca1a0140e4f5277afb36025060001b62000bf8565b62005a4e7f1c8361d142604e5136f753badce0ac4ea65494a8afc6d6ee415a20f7201a3c7760001b62000bf8565b7f0000000000000000000000000000000000000000000000000000000000000000905090565b600060608062005aa77fa96fe75ee8bc0860a19dbd2c557aebb9353d7c749ddc0fdd780f51cf1c0ecd0b60001b6200306d565b62005ad57f38820c79cfb321f964e4fa48fed64de14d9e533df53d5a786018698686ebb4e060001b6200306d565b62005b037f8cd52ff514cfd085bb4befd44b668f4348c81059bcf9edaedf5dfd193f232ed460001b6200306d565b606062005b0f62009306565b905062005b3f7f8d9ced7d022d9f68208af9000772793fb1eb42d7da64ad2041235048bcf5429560001b6200306d565b62005b6d7f0437c5f2b43d6117f9aac3361f9337e8b43ee0986dccc020c6865752b52bf99c60001b6200306d565b62005b7762004f87565b1562005cf95762005bab7ff281896a221eb084be2a4647367917a2aad5fc2d0d6637272f19d3982bbfc2c360001b6200306d565b62005bd97f2e30508fa3c504ca37f9057dec4937273eb3359376f6426ab62f8262959be57860001b6200306d565b62005c077f16dc29d68d8ce99b5737efe5279d4f8a504573c770c6ce2a54d875084b02e8d960001b6200306d565b600062005c15828a6200a02c565b905062005c457ff3210b03c410ae9f26813843839bb8730bb4a46155bdee2c002343dd4551751360001b6200306d565b62005c737f2000c2d9dcf5196ec244012cab51231fa0864cd1384f6190d3a59e7e5420364260001b6200306d565b62005c848983600854848b6200b3e3565b925062005cb47fd52d8e2f26b8723493c1e2e2df9ec686186b4a827809dac1f86aa7a83c2f0a6460001b6200306d565b62005ce27f5df613d545bf7816ea327878ec4319310bdcd814e997228dd8ea9fbbdb0441ae60001b6200306d565b62005cf289846200b7636200b8c8565b5062005dd8565b62005d277fea455e46dcb5396d2e4a1039c07ae6e9fa09c94d9ea79744fa3b7ab10d8580b960001b6200306d565b62005d557f5a18f1f593c8730fb2f21bb7d09fe2190db88d01003d605bd65f1fa0d9bdfcd460001b6200306d565b62005d837f2caf63703b1f65b4e95feacf050c5f2f46303a6d2b6076173ef5c7fa1144d32d60001b6200306d565b62005d8d620059c2565b67ffffffffffffffff8111801562005da457600080fd5b5060405190808252806020026020018201604052801562005dd45781602001602082028036833780820191505090505b5091505b62005e067fea52b0e994edee7026ccb20b70a70d3ae4dd0fee00424be8d939c9fac14a8b2860001b6200306d565b62005e347fc3abbe6459fa2bab767cd5bcdaa06d7dcf57edcc941d886bcad4cc96358ccb4d60001b6200306d565b62005e418882876200ba25565b809450819550505062005e777f72b771aad1965933d540ede00bf6bc255701f6a52951548bf4561813d46c50ed60001b6200306d565b62005ea57fa69ec3abcd598c3cf127ae7ecf2197f68585e23391559d4cfe4115d28b4ead7260001b6200306d565b62005eb28884836200bda6565b60088190555062005ee67f4ea02b04866eb6022a46fc20e1043f3b55b1f74b4e04a26857dda17675e02a0c60001b6200306d565b62005f147f5f719bb89e9cf67cdc7b6b56e1dd37a4addf780517ad0d530430d695078336ba60001b6200306d565b509750975097945050505050565b62005f507fcbaaffd906cbd53bd125e27e9172e0887de097307036c81b4d5335899033687860001b62000bf8565b62005f7e7f4ec9fc5880d3f1f6cea1663045b6bd9c46eb83ea9c957def86dd1eecc699576f60001b62000bf8565b62005fac7f80dd72ab1cb3636ff4a460ab3f5d7a1b77aa84fa41069cf2dcc0f3b53ef4230b60001b62000bf8565b60005b62005fb9620059c2565b811015620060765762005fef7f05ccbf7d14d31eb1183923aa71d3e41f8afe74e907c7076f051c9f9889134e5060001b62000bf8565b6200601d7f6988acc330977aa397c07a4e2a60da57a1550c58f5513bfa64643dfa50909a6060001b62000bf8565b620060518382815181106200602e57fe5b60200260200101518383815181106200604357fe5b60200260200101516200beb3565b8382815181106200605e57fe5b60200260200101818152505080600101905062005faf565b505050565b620060a97fcb8be7537516e5868f5c860ba4859ad4df082f89d16d6a26032a0e62bf4f85f460001b62000bf8565b620060d77f018f7661527a85c4c2816c559a47d0bbd0a2b0ea176e5b5b5ac714b18600dece60001b62000bf8565b620061057f7396eaedd30879304b8939c59bd70d989d1757005480452dae5b3a833161022f60001b62000bf8565b3073ffffffffffffffffffffffffffffffffffffffff163373ffffffffffffffffffffffffffffffffffffffff1614620062ef57620061677f174dbe9338081800e5e1deada93bf9512947308069b02da16843f7077fb53d3560001b62000bf8565b620061957f468c54a601155302414a6332cede60c38ca9400062b5b611090f80e53e7b8c3f60001b62000bf8565b620061c37f7d55e3667301877ae144689e79d5dc1f1943b9023378fcd6f39d280991e2c29e60001b62000bf8565b60003073ffffffffffffffffffffffffffffffffffffffff16600036604051620061ef92919062017a67565b6000604051808303816000865af19150503d80600081146200622e576040519150601f19603f3d011682016040523d82523d6000602084013e62006233565b606091505b50509050620062657f9f0e868dee5fb701eb62df2f524a42acde5bca722dac097580443fbafddcce3260001b62000bf8565b80600081146200627157fe5b60046000803e7fffffffff000000000000000000000000000000000000000000000000000000006000511660007f43adbafb0000000000000000000000000000000000000000000000000000000082141415620062d2573d6000803e3d6000fd5b6020600460003e604060205260243d03602460403e601c3d016000f35b6200631d7f42373bae5b742c0db7c5cdd091af31a477ed7e90f631aa18552d25c7221999f460001b62000bf8565b6200634b7f44d4335bbed5aab8ebddb2979d8412a2805c3cbf78c2e91c5a7f31011eeb3a3b60001b62000bf8565b620063797fbdb0c38392ffad6931a1187e6b677204cc791843e34c1c58b14f1b3f99c1654f60001b62000bf8565b606062006385620069bc565b9050620063b57f7ecc20ad6e3f39517ce427bfa00c7290ff42330e890f9f7fb82030ee1fe9388460001b62000bf8565b620063e37f4642ca0a767eb141a0f88599118b9a367495bd38e49abba09b312d6d7b87f48760001b62000bf8565b620063ef8782620076e0565b6200641d7ff105ba0013888744040cfa11014e8141615a2f53fbee95163322ca8741cfe1b860001b62000bf8565b6200644b7fe35a1aa2d28eb0051caccb1f531fdaa44990924c6297de247bc3ce5dc268bc5860001b62000bf8565b60006060620064638c8c8c8c8c8c8c8c63ffffffff16565b5091509150620064967f697cc2479bec35ad8791112b87e473ff705cac0f74fe35d8c005469ba3f57b1560001b62000bf8565b620064c47f37058d522738845533df88aa67406292585d3e2193bf84c6cf8730afb9fff60060001b62000bf8565b620064d381848663ffffffff16565b620065017feaedaa87fcc50ee74b4a773bcb1b1aa6bab646d8689ccf298f91ce47525ea54a60001b62000bf8565b6020815102602082038381526343adbafb60208203526004810390506044820181fd5b6000620065547fc37d921c6111359fd9f79d2a28c4792facb1db4f39f5274d1b6163c18e3afe8b60001b6200aff2565b620065827f898a92623482f45d1206dfef5d86715e008f5452a7c413085f43c128004b3d9760001b6200aff2565b620065b07f05fd20169ef0846499c468d531d0cf9e99ffbf7744456d397b9e942723963d4860001b6200aff2565b60008284029050620065e57f8e86e68a4b22e3c8f81c2073a80e5cb58d704f7122af81c9942d06a7e84c3e2560001b6200aff2565b620066137fb0310a7161613cd85ddc020fb1e188ea5b953042e7225a2f1c35f62ad8d78f7e60001b6200aff2565b620066386000851480620066305750838583816200662d57fe5b04145b6003620051a1565b620066667f558de74b4ced8028b43c759ce9fb582f1bd05e8ac02db8253c7f66b126b33ed760001b6200aff2565b620066947faa5db913fa4d95819207f4034e9d987218cfb113b8ec8df4a432cfedb219b35160001b6200aff2565b8091505092915050565b6000620066ce7fd681117b54f8c42dd9b9b724675b90500142f91e0c692c88cd29f6a4ac20d90260001b6200afef565b620066fc7f166d54a6dcc2da1700c278643acbbe8ec7be0a002e0be3664514a05bff76410660001b6200afef565b6200672a7fbe546f1bb4a2252f3c69d522122f5305aead99456e33c2514e382512cbd275ad60001b6200afef565b6200673b60008314156004620051a1565b620067697f66baa7ca3e26778872311ae2b37bf38dfa377789cb684f64abda0507ede6155760001b6200afef565b620067977f9bbcc745d05068633f50f2da4aa7785c4882dcfa9bcf9c1c303a65580176ef3f60001b6200afef565b60008314156200683557620067cf7fc3eab5df153e3b105e157cfa055bfa8e0845e90270ff3255e7446c30deb579d360001b6200afef565b620067fd7fdbc3d990e3f3bab6fa2a0d2d047661dde07c4ef25a24501839feae50185866ff60001b6200afef565b6200682b7f4dfe5096d5d7b39d55b09ffb0f574f2071999b6d3e264f41d19472f6f6dff6a460001b6200afef565b60009050620069b6565b620068637fb6dfe2886846608d4ab290feca7c5ec6ae2852dfbc3707d276ab66657c42cd0160001b6200afef565b620068917fbd6d291981cc28a3445540f278cec30943e7da252b1f546a4206e2297370b83860001b6200afef565b620068bf7ff68e1a1503b4afdf9fbf5a22748d3463567f3562a99e1fe0c70f16aa0941e7ae60001b6200afef565b6000670de0b6b3a764000084029050620068fc7fa9252a08ad1a46a72a3ef9d1afb829941f22d18012268e7192e1b3ffb5eba14960001b6200afef565b6200692a7fcb9cc8cc61006212eb8ed6f13e3a563d524b873c3a01f66af4887945460f4c1460001b6200afef565b6200694b670de0b6b3a76400008583816200694157fe5b04146005620051a1565b620069797f2f1f45017adad415bec4ac763f6f16672ad5b44eeea98c3ac69d9a7e7ffe543c60001b6200afef565b620069a77f512b328f221d3319110052907ee75993170f783e77190fc89cfaa6bdfa4cb69260001b6200afef565b828181620069b157fe5b049150505b92915050565b6060620069ec7fd86c84112f55ff8fd0f287586e41577aa9fd2656498052055b6f0b479b592da760001b62000bf8565b62006a1a7f7205aa61f849fa338fd1d065d09e5bc1fbfce1d33e24a1aa8bec86a3a0af103f60001b62000bf8565b62006a487fd0b1186bddfb801d14f0cad39f5d5da4501599c4070606a7f4557a2e2965b89a60001b62000bf8565b600062006a54620059c2565b905062006a847f828d552e1d0a113ea66f6358e4623f01d242745c1a5abff9b048ec0a5388ceae60001b62000bf8565b62006ab27f5d510274170e1618dd61a4c76372ad342a5e16310b4249930d5bc59e03c0ab9f60001b62000bf8565b60608167ffffffffffffffff8111801562006acc57600080fd5b5060405190808252806020026020018201604052801562006afc5781602001602082028036833780820191505090505b50905062006b2d7fa9ce48567334fc57570fa66e8f90d08ae562916978286dd9ba55155a36ebae4f60001b62000bf8565b62006b5b7fa9b6e6ba39e059e00866d68c45cdc1644384a6d6dadcf8d3b6912fe6e39607a860001b62000bf8565b62006b897f019e45a1e619f4a38de0bd317809b09bc61807775ae1f9372812bf8a1220becf60001b62000bf8565b600082111562006c305762006bc17f4324c26857571706dc3cd0fddec6f27691b4cf178f10946cbf328f86a366d34e60001b62000bf8565b62006bef7f67a50c890c0145d3188e36fc0e6dffabce42de7fcc66e4ffab024e22600f0d1660001b62000bf8565b7f00000000000000000000000000000000000000000000000000000000000000008160008151811062006c1e57fe5b60200260200101818152505062006c97565b62006c5e7fb73639d9108d94840dfcd31987cb855b3d0b3e9a918d19143478f251671bb45160001b62000bf8565b62006c8c7fd0a66d198ac1cdf3f775a3f3e7986aa0ada9182b02f4b88389cc3d872d13a9c660001b62000bf8565b8092505050620076dd565b62006cc57f1b922a519bf1e0c0dbf2bb5a5e8e68f1ee34e8c1b16d9aeb857974bb479991aa60001b62000bf8565b62006cf37fc393908bf95626e50c35833003e11d2ed6f75d32aaf155473442cc2ad03cc15b60001b62000bf8565b600182111562006d995762006d2a7efb3aa1902324212d245dd8f03d13036917af5848b625dae04cd778c978273960001b62000bf8565b62006d587f3a0aa1d4f71fe201d9ff0d509d4a8eaab3a9629f622ff5e6e611c83681ef37b860001b62000bf8565b7f00000000000000000000000000000000000000000000000000000000000000008160018151811062006d8757fe5b60200260200101818152505062006e00565b62006dc77f7315fb1281044947124b2bde95f42b0f836a406ff81e2aace136b8054312ebb360001b62000bf8565b62006df57f12954f852ad3b6950baa57a93a51f86a77c726563c28295b9bd7cb04ccd46b0260001b62000bf8565b8092505050620076dd565b62006e2e7f3174961a8a0703211b33161b3f7195bd8004f857c029bc68796392092f0f259160001b62000bf8565b62006e5c7f3a2beefc92b859be4792c8a256e16737737d1d9fb6e8590ba63d73b30ff3308360001b62000bf8565b600282111562006f035762006e947f105b6e510a033c319ec4d8322948d2b3ead4f8a2da9df5e2c529c95effc7004260001b62000bf8565b62006ec27f911de324185adbe72455166f64823424cd452d0f03c474c6af1ba0d29648c2e760001b62000bf8565b7f00000000000000000000000000000000000000000000000000000000000000008160028151811062006ef157fe5b60200260200101818152505062006f6a565b62006f317ff8af2c676e27a6792d91ce7f8a3a168544a86c105d4be274c7b3b244cc9fb07460001b62000bf8565b62006f5f7f0747d730c261a86eb9233b5e4a9c08819797c64bfe050f59b343ad2fa6b5684f60001b62000bf8565b8092505050620076dd565b62006f987f9b62dc14c71ad6e7c3b41235034a475d95cb32f00a020945126ae01348a946b260001b62000bf8565b62006fc67faba93c841882a3d79e86136b0ac11978d2e1a15a42098298daea7ef05fc39ee560001b62000bf8565b60038211156200706c5762006ffe7fbdabfb556891e82cf0c61d8df5a5095295586162f9df3bedfe3416533488258260001b62000bf8565b6200702b7e261a8dd9fcbdc713975c38bafd2f8110695a117c487ad644451005f2655dd060001b62000bf8565b7f0000000000000000000000000000000000000000000000000000000000000000816003815181106200705a57fe5b602002602001018181525050620070d3565b6200709a7f253a5b765ded2348f383fa791bb73f1ac1ba82f8b04182b5d08a2d43ccb80b7460001b62000bf8565b620070c87fee64837736fffbd46c36b3842c91ed493c728e2c3068e855a0587d602c99812960001b62000bf8565b8092505050620076dd565b620071017f1fc8d2538890d89dd52b3544d7c1a9ebafb28bc7e64e71bde855c44eb03cf0f060001b62000bf8565b6200712f7f18447e7ad41d260818592214b6745fecdb3d9362e863b006190e435cd2d384e360001b62000bf8565b6004821115620071d657620071677f44b8df3a8be5ef22e947104c4c7ee25b121375f928fe8ac97c9bfd7bcf3cb25d60001b62000bf8565b620071957f95bc2d8c9b0293c36421acc607c604a32af599db95841e37cf6a56e82cbec20e60001b62000bf8565b7f000000000000000000000000000000000000000000000000000000000000000081600481518110620071c457fe5b6020026020010181815250506200723d565b620072047f99cc19f4f1a1fead2ed820cd2005905cbcf0d85c04ebb2508317158cb90786db60001b62000bf8565b620072327f37169960d49190a1086588dfbe52bbc1d25ed1d1248085bdcda9a043999ad87d60001b62000bf8565b8092505050620076dd565b6200726b7f779fae42a3f1098129d8c2aaeadc899dc0bc5a9d3dc4e925b41ba2697699e10860001b62000bf8565b620072997f8d072067f9854367e01572b0c5fc9b65f1fa3ca05e6dba24571900c409dd9c3260001b62000bf8565b60058211156200734057620072d17f39edf9c4d54d7ebb2f348f721d2b44a2b2ac520e2f5eebd0f4f99cb18735cbb760001b62000bf8565b620072ff7f06fbdb6c60ee8dde13298897558bdcd611bec7ebad5662c51b2a2ed3cd7f1bfa60001b62000bf8565b7f0000000000000000000000000000000000000000000000000000000000000000816005815181106200732e57fe5b602002602001018181525050620073a7565b6200736e7fc36337fba2bac108e02d0da9a23104862ac3d4d156c8cda6da5c5371fb1967f960001b62000bf8565b6200739c7faf2290e81ea38dd9e66b797b1cf6306c4c5a33d5b1c7130150bec269b22abbd360001b62000bf8565b8092505050620076dd565b620073d57f205a95b712482e114dd198a94f4b595009d4e1e1a4f74db8f3561da3150e422060001b62000bf8565b620074037f0e9bc5b8e6cbb38d93307a3c08c600a39b8bf6c6f6ee63e45b095a7170f8685b60001b62000bf8565b6006821115620074aa576200743b7f21738df5ccbdabdcbdc4d8a34dfd2d894335aa83f01f8e0a5a644e9466e876c460001b62000bf8565b620074697f02aee8b2d8563d0ba4a349e78bd86396dc0389b42e721fd34e93753c65c1f33960001b62000bf8565b7f0000000000000000000000000000000000000000000000000000000000000000816006815181106200749857fe5b60200260200101818152505062007511565b620074d87fce54e51582638ff24f6836d67760413627ffd5f113d684e30b6ad19d04fea44a60001b62000bf8565b620075067f4dbeaa5a03e8fbc1c7d5c50ae765a226a7980e3520653b5d3d3e1af44d944b6860001b62000bf8565b8092505050620076dd565b6200753f7f835d355022ded406bd3ad94a8aff53d21113e8e0b8812b87f09a1e9adcdfa72360001b62000bf8565b6200756d7f49ea287b0528f5861d17cf8fab05c6fd21d3959fb8eb28c2cff57f577bedc56b60001b62000bf8565b60078211156200761457620075a57fec357bbe3cab77528918458867085574045e788ee00af7270f0814d2ceebb0fd60001b62000bf8565b620075d37fa6fbbc78ced0d25707dc31df0a791deb0e3cec5a869d5a6233764ad13653f71260001b62000bf8565b7f0000000000000000000000000000000000000000000000000000000000000000816007815181106200760257fe5b6020026020010181815250506200767b565b620076427f4abbf8d7037b8456e1cf4ad70e0e5cbe12a107d351f9fe0db222a85e47e3cb9860001b62000bf8565b620076707fafebd02c2241e266b33106b56a6cf556865a4d11c2b2d804a095a0b2b52942d360001b62000bf8565b8092505050620076dd565b620076a97f22f920bb3779a24a0c4187c98bda6b33284d75e61ad5a4304caa9e919602b64460001b62000bf8565b620076d77f66437e35cd7f87e11d1288760b01698057fd1bfcd1106b604457121d4ae0fcc260001b62000bf8565b80925050505b90565b6200770e7fa47500421f71aea538f647a50d4793ad97d25c47fc6632768c2c34622cf602c460001b62000bf8565b6200773c7fae94421a8c4f92f713fbef2ca68d31653ad6b7c094d5ef630ea1106c078516bc60001b62000bf8565b6200776a7fba4c079c27fd075590f960ebba79a02873bcdbc51ac6fbf1b4c6224a1db75ffe60001b62000bf8565b60005b62007777620059c2565b8110156200783457620077ad7f1a5bf174fe7901b96aea42cacde9cece39f7b24768fea3865baa8696b66f753e60001b62000bf8565b620077db7f9e1655e825bd2a228fb5e2fcad16e2870e76cdb9e4df27f38d88d562483d2f8a60001b62000bf8565b6200780f838281518110620077ec57fe5b60200260200101518383815181106200780157fe5b602002602001015162006524565b8382815181106200781c57fe5b6020026020010181815250508060010190506200776d565b505050565b620078677fe7895fc4b60ecaa846487cfdf88501d7a3d845f6dcfde25b51e9ebe103d4dd1660001b620009c7565b620078957f6119845ea51ef8873311c7cc5f6e9451228545977e83bd2fca034fcbf60592ee60001b620009c7565b620078c37f1aacca6942d21795f8977f383904c3e6981588c0b3000f634c2e960582504b4060001b620009c7565b60008060008473ffffffffffffffffffffffffffffffffffffffff1673ffffffffffffffffffffffffffffffffffffffff168152602001908152602001600020549050620079347f8243cc9f1f57f1b96a49950cfe1dacbddf5929258edb0bee2ddb37a22281a90760001b620009c7565b620079627fbd44c0256d8aadfcef4efd3627db538d37219689c5361397870819146f70a42260001b620009c7565b6200797382821015610196620051a1565b620079a17f8aa5942c2fc262cf7a401a7f3ecf060f53a4004fe1d78beae0b1fdbd6d1d6eeb60001b620009c7565b620079ce7ed6bace290ad6caf9ffec452c1670cff35dbca2b0a306ff96cccdce2e951f2f60001b620009c7565b8181036000808573ffffffffffffffffffffffffffffffffffffffff1673ffffffffffffffffffffffffffffffffffffffff1681526020019081526020016000208190555062007a417fc52ce0972fcec86a98fe5814b728415679023175cd455db318311de66b92f34260001b620009c7565b62007a6f7f05f8756a33b7123b4c227b842001d63ca97694d4bc95d0cf7cb6a8f99983400e60001b620009c7565b62007a86826002546200482e90919063ffffffff16565b60028190555062007aba7faeb97f7f13a09e19770aea6bea39e3ee9aeb9772a1c8bc1b87847f12bb6fbe8460001b620009c7565b62007ae87f97d6ddec1a18888f9c7db4b95e3500d5fda1b79361bd668528ea1b5efc56b39c60001b620009c7565b600073ffffffffffffffffffffffffffffffffffffffff168373ffffffffffffffffffffffffffffffffffffffff167fddf252ad1be2c89b69c2b068fc378daa952ba7f163c4a11628f55a4df523b3ef8460405162007b48919062017d81565b60405180910390a3505050565b600060608062007b887fe43977ecc8fc383612deaa526481dd12c217dc617de9653c2d929fdaaf26417960001b62004463565b62007bb67f23d99ded7a08dddac8712dd43904487faa99a77a20c382b416002f037975d3e860001b62004463565b62007be47f7c269407bd44c42660349a4c6a311bc95a370fcb345ea3b6070a5c5f1006dbde60001b62004463565b62007bee62005711565b62007c1c7f215733b8cd9af718b2d564e08e0d1743cce1a0f8416572ea9a1f99dafc713b0260001b62004463565b62007c4a7f8a03c50b48ba7929e7c9209f8e460e7ff66d9eeff62f2f29ac437a63fb5b020660001b6200306d565b62007c787fc63636bcd4e26eed2e06a90198fbe04d827726afd03731964708dd851192a2c560001b6200306d565b62007ca67fcce9ab419489ca605f9e583c2b04c194fde6041851812809b7e53c680787f53b60001b6200306d565b606062007cb262009306565b905062007ce27f76c228552c05f13dd614abe973d40bb912ff37a01de62997d3edf0613ff968f460001b6200306d565b62007d107f20cb02ea4f72cfa7f0a68ac70853c20978c8bbd4e2769e237623c1c3b603f18060001b6200306d565b600062007d1e828a6200a02c565b905062007d4e7f1a20888c43f0edade0466a93d2022567b2463ec7f92e81264fc406920f09e04d60001b6200306d565b62007d7c7fa918d6ed7378e8ddf590aa7e621a5dd32cb127345d548f6acba16347a8761db960001b6200306d565b606062007d8f8a84600854858c6200b3e3565b905062007dbf7f994abece6d44b0da10c81814565f95a5071e1ed822a1b1e64f150084f967511960001b6200306d565b62007ded7f4d0d4cdd7f8d05ec59acb1ed5cc504a241aa90977e82f77cf3691c88a8d3b5c160001b6200306d565b62007dfd8a826200b7636200b8c8565b62007e2b7fb19139d494dedd8e5c2cecb65dd608f71ba836c2ac298ff40b07919a00b560e660001b6200306d565b62007e597f72bf5c21f31fd8ae2e87d500207302373118ad4282d775d21f602ac5d689d9a960001b6200306d565b6000606062007e6a8c868b6200bfbf565b9150915062007e9c7f07e81d1339ac8840caca709f83cd8f91104f7ad906695ffec77b524c046c09a160001b6200306d565b62007eca7f88997accb4f39f93f8c4646543faae04d2cd33a266c60a16a4b7d3cd020ff5f860001b6200306d565b62007ed78c82876200c33b565b60088190555062007f0b7f80099d5976df87dcdd373e877104530833e52448fc92cd3f3cfac0be02ece19e60001b6200306d565b62007f397f1526ee020ba2063eccbea7bccb29f76f7e9272ad6ccd2240a3be6305f469718060001b6200306d565b81818497509750975050505050509750975097945050505050565b62007f827f68c3ff42abeacb355f0149f01849acb8a43abca1e9453b93df1b29dd593b76da60001b62000bf8565b62007fb07f37c15a7c807c929e1012001b2b25599888c67d2cc42b41ff33b4fdc4811d265260001b62000bf8565b62007fde7f97326a0b3a5284bffce3116618c48a13bfbaee109e0616a9fd5f99365675e59f60001b62000bf8565b60005b62007feb620059c2565b811015620080a857620080217f67e04b475e2240c75c8fffd3a707ad44f2201a6361c5e5c1a8966ec97cc044ea60001b62000bf8565b6200804f7ff6ebc9ef015eb21d153c3b67dae1d288e2ae5f7080393f402cd94e0df65bd2f460001b62000bf8565b620080838382815181106200806057fe5b60200260200101518383815181106200807557fe5b60200260200101516200c448565b8382815181106200809057fe5b60200260200101818152505080600101905062007fe1565b505050565b6000620080dd7faf2a08a73200db1dddda55196a0d2b6066764a5ebf13247e4a000ac47b175de160001b62000bf8565b6200810b7f58de976af3983d46f4a6ac88cff5a10205b9e990450087d699303eefe424ae8160001b62000bf8565b620081397f714f7add33c1f335a414043b15df76a10df17775a08113618d1279f4f11d001b60001b62000bf8565b7f000000000000000000000000000000000000000000000000000000000000000073ffffffffffffffffffffffffffffffffffffffff168273ffffffffffffffffffffffffffffffffffffffff1614156200821357620081bc7f300c8c28d34d1eedeb067f43e35ac0a813395a27998362d13ccd7eb667d7884560001b62000bf8565b620081ea7f5a868af7a92a44ab9b69d1e90299ca3de7ad2ae2d743c0033f1a473db746da2a60001b62000bf8565b7f0000000000000000000000000000000000000000000000000000000000000000905062008b25565b620082417f7d763303bb92e0016453fc6c3d0f51244aadc70d49c98b7ad93a02316179958260001b62000bf8565b6200826f7fb9eda3c80731f585cb3815b60ea225bd23209e18a9d1ea22873793ec887c167060001b62000bf8565b7f000000000000000000000000000000000000000000000000000000000000000073ffffffffffffffffffffffffffffffffffffffff168273ffffffffffffffffffffffffffffffffffffffff1614156200834957620082f27f4fd00fc94b98a9880e388403880c31234d5a927385cb61bd7e527b62dd73854b60001b62000bf8565b620083207f5223d5f5c99bd0e7868cc8423379ff47c3f5b729d2fbd1dc2e931c94554568d460001b62000bf8565b7f0000000000000000000000000000000000000000000000000000000000000000905062008b25565b620083777f86b3032aca88519b315e917ec83316cd5b141c1583a7211b5d14e477611b962260001b62000bf8565b620083a57fed1c3e0db840e76091219055a78c08626284ba92019cb7b3d25695065f92e88d60001b62000bf8565b7f000000000000000000000000000000000000000000000000000000000000000073ffffffffffffffffffffffffffffffffffffffff168273ffffffffffffffffffffffffffffffffffffffff1614156200847f57620084287f1647928bca3c0f0ad6fff111b4087c92d662b0ae402809ae10a26eb3083a409860001b62000bf8565b620084567fb703cd709140f29683cbbc05f31db09d8b8d9ffe583e51baf7ae105f972aec1060001b62000bf8565b7f0000000000000000000000000000000000000000000000000000000000000000905062008b25565b620084ad7ff5509c6083b1ee33eff5226d99d18c1258c30c34ef00ee27848bcdac16ebdb1260001b62000bf8565b620084db7f5d1253ba9688d27004181086d8a5b26da6adc2e32f9bba01646e03d034b1c31660001b62000bf8565b7f000000000000000000000000000000000000000000000000000000000000000073ffffffffffffffffffffffffffffffffffffffff168273ffffffffffffffffffffffffffffffffffffffff161415620085b5576200855e7f5f35d6096066ea5308f13ad8af9ad9b9f571f94c8e063d8b931b8c28cb86db3c60001b62000bf8565b6200858c7fe638627bead02877516dbc203c3ffda2ec77f7cf5dd0b7562cac245766415a7b60001b62000bf8565b7f0000000000000000000000000000000000000000000000000000000000000000905062008b25565b620085e37f9a2b1fcb057bf6a64798ca0e6283326c2041c1eb4a15e802d7641a04189ac19860001b62000bf8565b620086117f075cfff9f103996a1c26f7a4fbd44c669c4f6a8a398f8f91c0ed1b9b9e39c41b60001b62000bf8565b7f000000000000000000000000000000000000000000000000000000000000000073ffffffffffffffffffffffffffffffffffffffff168273ffffffffffffffffffffffffffffffffffffffff161415620086eb57620086947f39cfbad9381b0ced3b0d7e8b22b18b64da130bd23471f6fabbcec54ae47e095c60001b62000bf8565b620086c27ff10d390ec550c68dbcdc3f0e330ba6257bd3faabdb70dd455de614dbac65e64560001b62000bf8565b7f0000000000000000000000000000000000000000000000000000000000000000905062008b25565b620087197fb2acb9f3e80178b0600a185cc6a2fa516adbd95a9e80914015f98a4aab0e9c9760001b62000bf8565b620087477f5d5fb4c0f781cf32a75d6453ffd9da320aae3d26f9a9b49556d47a5ee06f5c3760001b62000bf8565b7f000000000000000000000000000000000000000000000000000000000000000073ffffffffffffffffffffffffffffffffffffffff168273ffffffffffffffffffffffffffffffffffffffff1614156200882157620087ca7f4f2d2b768000f66e55dbcbcfc419bba2e8b92e5234148fcaf8eb6202b111648260001b62000bf8565b620087f87f93c1a710ee5040af37f15f84a977ebf9299688a8b8f131d6e658c0dc755c8e3c60001b62000bf8565b7f0000000000000000000000000000000000000000000000000000000000000000905062008b25565b6200884f7f446e9e24a9fedadd6721485a61f6a44f4df18ce1424b4fd1d1d0d6a8cdf3b25060001b62000bf8565b6200887d7f48b27ca3f66599bf81f593678c3bff5bf67a85ce45f2d6cbd227e04538fffba160001b62000bf8565b7f000000000000000000000000000000000000000000000000000000000000000073ffffffffffffffffffffffffffffffffffffffff168273ffffffffffffffffffffffffffffffffffffffff1614156200895757620089007f82a487ebd97ef2ac59585e45fc992a1d79e2af0e92b0289ccff86d3335dda29e60001b62000bf8565b6200892e7fcf688a753491be74a50c9b98cbef0a2b4b385fe77bf61c2730598f12e34c0c0560001b62000bf8565b7f0000000000000000000000000000000000000000000000000000000000000000905062008b25565b620089857f5a6148383115db0d36e358d4f860f2461aa348f311ff46f1c638458e4518d94760001b62000bf8565b620089b37ffcbaff9cdd39460e5bf78480fe3c4acd4010026ee1300002bfdf69efe62f41ab60001b62000bf8565b7f000000000000000000000000000000000000000000000000000000000000000073ffffffffffffffffffffffffffffffffffffffff168273ffffffffffffffffffffffffffffffffffffffff16141562008a8d5762008a367f92dd70e41572dc1fc8e46533db0b75acc6d85a78cbff05433561bd2749a6ae6a60001b62000bf8565b62008a647fc42c063bfb65547345648052327ce361961f3a79969dc32a815c5a430b98465260001b62000bf8565b7f0000000000000000000000000000000000000000000000000000000000000000905062008b25565b62008abb7f713bab69962719417b5186ee90589cd7e08985e1155acf30d9c29d2cb649d1e960001b62000bf8565b62008ae97faf6b19de3654bf5313cb7bb9c070b53b2e6cce927e16667c75de779cf42c22e460001b62000bf8565b62008b177f0b836178b6865393abb7ed297a053a6548e01184c63626228c30b1a6a41d19ca60001b62000bf8565b62008b246101356200b2e1565b5b919050565b600062008b5a7f6350c5f39e9ecbe4d230963a5bfdf69425c0af19c5d37301466a3f1986c6074560001b62000bf8565b62008b887f673dd592ee19c8ea4f77091b9d8dc9b65b3ccf5ae9b826efbb102f7049fb549860001b62000bf8565b62008bb67faecd407ea7652b17e2f0a1c1f7e4c472d3247a60aea257d48afe0a6bc06169a660001b62000bf8565b600062008bcf600754846200c68390919063ffffffff16565b905062008bff7fe881f84cb89e9fb1106b48f329f8405c855d491c57b7fe9d69eb6a96713a01bc60001b62000bf8565b62008c2d7fc9b832a98377ac7968b1be1a5d716733c46aada10bf8d6fb79dc015b58334af760001b62000bf8565b62008c4281846200b76390919063ffffffff16565b915050919050565b600062008c7a7f2d78af16f11a668a11aba18e196d02e0ff8acedcbcc56b91f5bc57873a13e95160001b62000bf8565b62008ca87fa7526a59959e6452ab48c176a880df015ed5fd268f4fa2ff541d84ff789f1f5a60001b62000bf8565b62008cd67fafc1a9e986d85c38ffc4a0e9bf0460bb4f7fd9dc9b0cc3f22de1431b617e896860001b62000bf8565b62008ce2838362006524565b905092915050565b600062008d1a7fe43977ecc8fc383612deaa526481dd12c217dc617de9653c2d929fdaaf26417960001b62004463565b62008d487f23d99ded7a08dddac8712dd43904487faa99a77a20c382b416002f037975d3e860001b62004463565b62008d767f7c269407bd44c42660349a4c6a311bc95a370fcb345ea3b6070a5c5f1006dbde60001b62004463565b62008d8062005711565b62008dae7f215733b8cd9af718b2d564e08e0d1743cce1a0f8416572ea9a1f99dafc713b0260001b62004463565b62008ddc7fcb7dd09c7dc1489c101e8a617b02afe95c50192177382bece5f84c7340da959760001b6200306d565b62008e0a7fdc450c61674d16de634d3469a0d20ee4847465b494acbd5146a8b9cfc0fa8b5860001b6200306d565b62008e387fce5f5c0b1f79aa1f6a3f4de94e4b5e95351e930267be3abfb57a35ac269e7d9160001b6200306d565b62008e678362008e4c86602001516200c93f565b8462008e5c88604001516200c93f565b88606001516200d3bc565b90509392505050565b600062008ea07ff8bd31cfede529fad0c375cefb9dca7a1993241fbb98baf1600657cb2707fec460001b62000bf8565b62008ece7fd7e10bfd6f906e305ff7a95c416aa82d7ac5f14f51df74dc38284dd34497bcf660001b62000bf8565b62008efc7f6d9b61dc2ff84f58f5b0d90da228f1f96bc84b8e0c08c74c2f60c37e0882b47e60001b62000bf8565b62008f0883836200beb3565b905092915050565b600062008f407fe43977ecc8fc383612deaa526481dd12c217dc617de9653c2d929fdaaf26417960001b62004463565b62008f6e7f23d99ded7a08dddac8712dd43904487faa99a77a20c382b416002f037975d3e860001b62004463565b62008f9c7f7c269407bd44c42660349a4c6a311bc95a370fcb345ea3b6070a5c5f1006dbde60001b62004463565b62008fa662005711565b62008fd47f215733b8cd9af718b2d564e08e0d1743cce1a0f8416572ea9a1f99dafc713b0260001b62004463565b620090027f9f9bc9e06e0037d16b5354ab2f0deda979e4bf97f750741606d718b68e5df20f60001b6200306d565b620090307f2a75cddade9826a8e1663b2733bd4ac26d43cb272f24b7c2d1d87189ff4904ea60001b6200306d565b6200905e7fb2a723a921a028eb39e640e29495cbcd48f451a251ffd832b512c9634e5d7e7260001b6200306d565b6200908d836200907286602001516200c93f565b846200908288604001516200c93f565b88606001516200d6d3565b90509392505050565b6000620090c67f4a0ef23499fbfa328834ba4f1b5ffa96ae3a72022d8e894ea75f65002e99fc6d60001b62000bf8565b620090f47fb0a4d17626c8db9e63103d8322ecffb2cf18f86ae3413bdf27e85d92c2b02cf660001b62000bf8565b620091227f3c397894fe1c380abfc593b049063a3d5f75fa41a4462622197cdf86b327f8ea60001b62000bf8565b6200912e83836200c448565b905092915050565b6000620091667fef48b951f32ed26a7268fd209410c719b10aefe29db345145bb5537240e9e10660001b62000bf8565b620091947f807d25adc702c63d5d14a926ee9265a03700bfce16448d3396dd492d599f527660001b62000bf8565b620091c27f46cdfa253bc4e330c0eb8c5a2d9f7d85c076ae201ff1db1f1b1000d0d9d5ce3760001b62000bf8565b620091e3620091d36007546200d9fc565b836200dab390919063ffffffff16565b9050919050565b60006200921a7f254db103aa62241bfb2d45bc4b06c4a8c18e6cd533c9851f92cb75eea898f43260001b62000bf8565b620092487fef6a24767dd0f45e7b3f4f108bba1d26e9db5c28a486d5e274b8aade992d4a3e60001b62000bf8565b620092767f91e21a63e6f169303113657b08fa64ef1630046bd0e780c2d59b37c8b05bdc7860001b62000bf8565b62009280620026da565b73ffffffffffffffffffffffffffffffffffffffff1663aaabadc56040518163ffffffff1660e01b815260040160206040518083038186803b158015620092c657600080fd5b505afa158015620092db573d6000803e3d6000fd5b505050506040513d601f19601f82011682018060405250810190620093019190620174f4565b905090565b6060620093367fc7a536c2533e2dcdc8d8dd293d6de3915f0b392d94a5f5cb58706824eb506b6760001b6200306d565b620093647f7172afdd94bc405993f9d7653a914414acf343460d3a709b1e3a62db431dcf6f60001b6200306d565b620093927fbb1c54cd26f4e7ad77a94b64bf6b1e78919f876b37c32725f332c326a2b05d4560001b6200306d565b60006200939e620059c2565b9050620093ce7f6013ec27a4607dc720492fbb102b597b78a8a08c8259862d5580deb83392939460001b6200306d565b620093fc7f89b348df864642ad992927a7c75b6d3cb4f2e3dea77611b2156a5c5057e1acfa60001b6200306d565b60608167ffffffffffffffff811180156200941657600080fd5b50604051908082528060200260200182016040528015620094465781602001602082028036833780820191505090505b509050620094777f4f9b0c79ad0fed4de159aadb5402d2aefb30762151e9ae90ca29365c9368cb1360001b6200306d565b620094a57f5afd4593259ea1f3b5c9a7cb890bd174982d85aad5fc72fddfb70b8d50e88ff160001b6200306d565b620094d37f094c2ab0fe6471a6f7a844b48db3ded7dfc0cc632d6625c679050a9b5dad869d60001b6200306d565b60008211156200957a576200950b7ff59f3a4b631fad2cc64d9a0d2f5408263b46f9cf5c40a836daeaa99e778ea5b160001b6200306d565b620095397f059831113cb936f877e173eac7aa8ec11fce86f0a1ca94a3dc44db228dd1743160001b6200306d565b7f0000000000000000000000000000000000000000000000000000000000000000816000815181106200956857fe5b602002602001018181525050620095e1565b620095a87f9ba62774d53befe958b59833fcfc29ec647d318897af32736dc8d0a19a30899960001b6200306d565b620095d67f7d27adaceba9a4ca48271f6a7d88267de1b14366224e1c5bba8d50ccf3e3f12160001b6200306d565b80925050506200a029565b6200960f7fc8c2bfeca2c9a850983f1961505115c4cd6e691eedaadfa132c3fce4282a4ff560001b6200306d565b6200963d7f6445c7e96f3f42a15b93c649af05afa00badebefc1044f471b61b0db05f6e31b60001b6200306d565b6001821115620096e457620096757f8725dd42e8834cc2e5f14305861de6622c659bef092988ca5421a0017654b76360001b6200306d565b620096a37f73aafa0a2666ce8d829b224f78009dc2c904678ff4e37ea306d316b62c783a3860001b6200306d565b7f000000000000000000000000000000000000000000000000000000000000000081600181518110620096d257fe5b6020026020010181815250506200974b565b620097127f4cd86a7b342aae9988c9fe7325035dca3cec66fd353fd1ec2575a4b92af3745060001b6200306d565b620097407ff6551b43257a7163d9df1f6de60da2d7d290231717f66069094be690d620c2a960001b6200306d565b80925050506200a029565b620097797f680221b2c165a3450224cccda0ebdbf5fc11d72854d50c817ae1c87183d019a760001b6200306d565b620097a77f4d334c59026cbd9de3d8482df17a955c7f99e851d7c94e052ddccdea8ffaeb8760001b6200306d565b60028211156200984e57620097df7f04f64387e4dee112ea818b5c8023c70c8fcc102cf1418d15eb1d0f7dbf04333260001b6200306d565b6200980d7f780736946517e43ec743cfaf5e756d8465fac3b89395d4fa402f944f9939eeb160001b6200306d565b7f0000000000000000000000000000000000000000000000000000000000000000816002815181106200983c57fe5b602002602001018181525050620098b5565b6200987c7ff272c06bb5bb9eefb34f6cd148de876ec85e7421b216074d31d9c1a45903eb2c60001b6200306d565b620098aa7f5b48235d052a61b728d6efd7091bd228525a1e95a20cc14d37425ddf196a413360001b6200306d565b80925050506200a029565b620098e37f442ba53102ce7156fc4c584b098314ae1635c09db4d43cc817feaaa35c3729d660001b6200306d565b620099117fd2cefe481cfc18bc08e0733790c1ed9c2c8c72d692ba2a7cf7fd2e9cd217421360001b6200306d565b6003821115620099b857620099497f6d8d8caa37ffe7fbd33877cf7d6dbd4ab79d644b26ab0fec0a4a2d2654b14dd760001b6200306d565b620099777f5f33e84795aa4404a74b21b5217bf136c657e56dffb7fbe76fdf33992bcbab6660001b6200306d565b7f000000000000000000000000000000000000000000000000000000000000000081600381518110620099a657fe5b60200260200101818152505062009a1f565b620099e67fd9d48f30c6fb959cde710812faaad781ff5dce19a4c62aefa8a707204d1f28db60001b6200306d565b62009a147f6f62b1e898975c1ddcf011502d7b62c08a782814203fbc8929ce53794e5077ae60001b6200306d565b80925050506200a029565b62009a4d7f088b4de8177bc019f33542e8d274e134b2f1826d5bf6f521b456645e2f107b5960001b6200306d565b62009a7b7ffdf88d096ee072651b25399746c19b909b4e1673cbc5cc4e8d1490640e6afd7160001b6200306d565b600482111562009b225762009ab37f63c56cd117b093f66f2f01918bc6107dadb70fe819108ab87b8d39c2c5cfd91d60001b6200306d565b62009ae17fb11f3cd281bb2010620488a3679eb40bb7a66ddccb39d48a94884976d29e1ddb60001b6200306d565b7f00000000000000000000000000000000000000000000000000000000000000008160048151811062009b1057fe5b60200260200101818152505062009b89565b62009b507f191fbe9c88fd019621daed4c7cf23bc1b1693057371f375f537da3847853aa9660001b6200306d565b62009b7e7fb53628d417724ef039047bf20a91f6872b704fbf4a30aed74496835b419eae4e60001b6200306d565b80925050506200a029565b62009bb77f0fd4bc971925eeeeaded6a457da86ec9f60dee37129fc62a4fc14806fec26bd960001b6200306d565b62009be57f0258dddd5d31b7b255f4cb3e68717dd694869f3520d8dfab3540e07f6827b0ac60001b6200306d565b600582111562009c8c5762009c1d7fcad49f7892d6b39bb889a58d6aea7213808aea2ac17f774b7a6614e7e0c593ad60001b6200306d565b62009c4b7fdac610cb4a965a733654aaa4273b640df1c019b88df4e87ea8a82b9a3b77810760001b6200306d565b7f00000000000000000000000000000000000000000000000000000000000000008160058151811062009c7a57fe5b60200260200101818152505062009cf3565b62009cba7f2f2e9c1bd8a678d54c7997b018f506016b62ad27ac58a10ff4d4e4417707c48660001b6200306d565b62009ce87f4e432e5810e47fd425f32bccfb312bfe7519f354ece6453e450a1ddc2384bd5860001b6200306d565b80925050506200a029565b62009d217f4caefb195be752b157b332b2ff5247942eaf430576b4775883da558c6509bd6c60001b6200306d565b62009d4f7fc740fba01131b625b8f2b9c567fb2a99dac2f143a94c1053c1ab54bea80d108560001b6200306d565b600682111562009df65762009d877f2ef15ef6d377a9b8398c1591692040f29cb8f09108ccfe709411aa793621452760001b6200306d565b62009db57f4099556606bd561ba4491ccf726c13e9ed371b5cc477a126af13608de99f578f60001b6200306d565b7f00000000000000000000000000000000000000000000000000000000000000008160068151811062009de457fe5b60200260200101818152505062009e5d565b62009e247f344e37b933d0ed9601166786ec395591bb187686a9aaf9fa6621eeea5204919d60001b6200306d565b62009e527f788bb54b2582ef62c02be62ef78ecf1aca62465e4775100cd1f313571604366460001b6200306d565b80925050506200a029565b62009e8b7f4482235faaa19a31ebe238e62588ffd32c62cb6095e35b878bd8e0aa0808c55860001b6200306d565b62009eb97f0daa90095f2f41be3c71df0d2e179909514de90d4d038616d48f117d1717d36560001b6200306d565b600782111562009f605762009ef17f025cc3bcc218d3bddabb8082ce253b96ebc35066941a518b9563be193375baca60001b6200306d565b62009f1f7f03bddeca1cd8ece73d88eecdbb8dc0d9d63d013c21c6c805cad95cc6a34e7b6760001b6200306d565b7f00000000000000000000000000000000000000000000000000000000000000008160078151811062009f4e57fe5b60200260200101818152505062009fc7565b62009f8e7fe50bd0de430fd726b1d514243c2ec2bbe786c60cec985c542e08f030dc4c15b360001b6200306d565b62009fbc7f257a45a0092bcd9ba70bd91a79b6aafa0dc686323507b5cf197c4bc5a746132a60001b6200306d565b80925050506200a029565b62009ff57ff19706590269d2fa02e60f701edc4be6f0c4f93f13ccdbd15695c87c00a5308260001b6200306d565b6200a0237f33eca7f109b24d409ab82bcaea3177fb29981ab100690f7850d6bc21a712d09e60001b6200306d565b80925050505b90565b60006200a05c7f07322d544c4e775fcf8373fdb922d15ab11a99df57bf4053f1ddc11803a8193c60001b62004466565b6200a08a7f072849f49d0d82e46a64de0a26143778190af4484cf8b770df9033921f45a78660001b62004466565b6200a0b87f403a7f434d63c70b64fcd6d9764d01d1c4a94104c65c387217a50d7644a502e860001b62004466565b670de0b6b3a764000090506200a0f17fc9888952abc217e38fee955d13fb1f414485d7d4ed8986c7f01f7fe03ef9cb8360001b62004466565b6200a11f7fa67248fd6d43fa5c685b20206023e84761b3b4aeab5ac8e4e8547d18559b475b60001b62004466565b60005b83518110156200a1e9576200a15a7f19fe295d9b283db35203df09bb3c638c88719538e7f7a953f263a89d1f6e8a3360001b62004466565b6200a1887f6033809153cdc08b170dccee9159960306ad936dc4c73c7041e3f42c2cf5b45960001b62004466565b6200a1d96200a1c98583815181106200a19d57fe5b60200260200101518584815181106200a1b257fe5b60200260200101516200ddd790919063ffffffff16565b836200e08990919063ffffffff16565b915080806001019150506200a122565b506200a2187f7d0a64eaaf5ee7cdbbed58e8aa793387b83e2d6ba6871cf5e0addab21afaa95160001b62004466565b6200a2467f737dbb6439eaa38e96d6e06400420536c3fbc4234a55c7ede312ff40008ae15660001b62004466565b6200a25760008211610137620051a1565b92915050565b60006200a28d7f2c54610e3fe0a98df3c423e90950973fc94146f557b01b6bee8cca13a6032b4a60001b62001d86565b6200a2bb7fbc254dfd0c8280fa8535e89d4bc4cc331f18b5ac8558d459ad7b42c1e1c9d89c60001b62001d86565b6200a2e97f2ceb1de44021a984c31888fffa7404fe74791ca186de59ed6c94965c86a06b2260001b62001d86565b6200a2f3620055e6565b826040516020016200a30792919062017a82565b604051602081830303815290604052805190602001209050919050565b600060606200a3567fe43977ecc8fc383612deaa526481dd12c217dc617de9653c2d929fdaaf26417960001b62004463565b6200a3847f23d99ded7a08dddac8712dd43904487faa99a77a20c382b416002f037975d3e860001b62004463565b6200a3b27f7c269407bd44c42660349a4c6a311bc95a370fcb345ea3b6070a5c5f1006dbde60001b62004463565b6200a3bc62005711565b6200a3ea7f215733b8cd9af718b2d564e08e0d1743cce1a0f8416572ea9a1f99dafc713b0260001b62004463565b6200a4187f9d5c0942908a997a679c8c7b8d7818bb0665d53fa165f7daa01dab9e7306952d60001b6200306d565b6200a4467f7a37136c102b1cd42b0318d96266a247077ed6eb3f1928e78b98f7038e83d59760001b6200306d565b6200a4747f4a61851691dff29bbd3e506e562debcf22780bc6e3b59c00772b4aa8b7bda74d60001b6200306d565b60006200a481846200e215565b90506200a4b17fd1bee58e6cda59d7b8a439014dc697547b37aa87f3b1daf1707804bce7b86b8b60001b6200306d565b6200a4df7f2bf7e623284a826d7a40b07b95896e1d9aaaa6650cb0eba99cc9e7dcb31605fb60001b6200306d565b6200a507600060028111156200a4f157fe5b8260028111156200a4fe57fe5b1460ce620051a1565b6200a5357f3362fda29b0f957e46fe70d0a449e7ed6fc2ceff4bdd5f7519035f15aae9754560001b6200306d565b6200a5637f5223eeb481ab9fba4488109c8fc2e065d04c2938e1c4e6977fa10925afed28d060001b6200306d565b60606200a570856200e2be565b90506200a5a07fb83c39edd41a5f15bf70fd269834c6933b9f95de817243bde75b54935db9c03060001b6200306d565b6200a5ce7f0a55417565d3ee9222fd328cd7a6f40695acbb4bafb5ed936814e1f2ca9379cd60001b6200306d565b6200a5e46200a5dc620059c2565b82516200462c565b6200a6127f3664e561dcf4eb0296e1ea890d5c69dcd1e953471ec6ba5dcb3a554b65bdf21660001b6200306d565b6200a6407fca5a8426966007663ff5bd1a540ddeb48179e6a3669fabe3a76d4d48eb9f286060001b6200306d565b6200a655816200a64f620069bc565b620076e0565b6200a6837fd64b5f14fb8b3c8b1f0a18b9019598e7d8892c112ed68f7f9b1d86e24b05a00860001b6200306d565b6200a6b17ff8bfa5afaec90eed8d58475ef03745d74117fecc4645e1bc41bc462fe41e7b2460001b6200306d565b60606200a6bd62009306565b90506200a6ed7f2a9bc2677893ef5ad4ffb933beee4b350c935abb1d28e985dd3a4a798ec2f50b60001b6200306d565b6200a71b7f83a9d14c9dd4d929af4a0c92d38f8b8ebe20e10e8317520beb58d8c0a33d919660001b6200306d565b60006200a72982846200a02c565b90506200a7597fdd3bdf42bce6b101e41b3f4602168736ed1d12b552526be103d60c3b3ace2afb60001b6200306d565b6200a7877ff72074dc25d286f22eab044e50e0056b8566dd2003f94d734b072b0e81a1f74060001b6200306d565b60006200a79e826200a798620059c2565b62006524565b90506200a7ce7f97401307d3378b622ca3f95f1473c2d627dc6948c15f58dd0f532d9819d375fd60001b6200306d565b6200a7fc7faba8335cccd08eb5a0c2023cdf704de286fe802701dd1991e6c4df595b28f44860001b6200306d565b816008819055506200a8317f1828e6af334ad654a90b7d7e276a821d44551990b67b7bc787b1cdc32e17419860001b6200306d565b6200a85f7fcc82e950a6842530e6cda7a85b591278101a478bf92ea8d9a2c116ab6a19a25a60001b6200306d565b808496509650505050505094509492505050565b6200a8a17f859b971d1a1255cf9d4cb958e7b1ee466850218c832922f5051633c8255740e360001b620009c7565b6200a8cf7f1e4219e446bfc49318475e67e9dd11a5c4904f252aed09a1e1987ed6f447f89360001b620009c7565b6200a8fd7f470a94d2bcbba4d6bb89bc72d8fe31cf78a8e8dc566102efe0795181f9c5196160001b620009c7565b6200a950816000808573ffffffffffffffffffffffffffffffffffffffff1673ffffffffffffffffffffffffffffffffffffffff168152602001908152602001600020546200aad390919063ffffffff16565b6000808473ffffffffffffffffffffffffffffffffffffffff1673ffffffffffffffffffffffffffffffffffffffff168152602001908152602001600020819055506200a9c07fa0703f6eb5028f6ac193d4dd8a2444daf838d9c2ce959a095d092808f9cae89b60001b620009c7565b6200a9ee7f19aadcec8f30a84b6fe3489d9ae4f9ed9f7708f300e1ae0a833a1e807a13069f60001b620009c7565b6200aa05816002546200aad390919063ffffffff16565b6002819055506200aa397fe55b6ddab0c258b148644c992ade42c43ee1114b03a612c38784d59bc66286cc60001b620009c7565b6200aa677fb592118a6e6fd079c07f78575f993e050813613c6ece73dae980bf49bbe39f0660001b620009c7565b8173ffffffffffffffffffffffffffffffffffffffff16600073ffffffffffffffffffffffffffffffffffffffff167fddf252ad1be2c89b69c2b068fc378daa952ba7f163c4a11628f55a4df523b3ef836040516200aac7919062017d81565b60405180910390a35050565b60006200ab037fe9ab1930f8b2a33e186614bdc5275e5aef3bc5199db452be16b906fe891a7aef60001b6200aff2565b6200ab317f672db28399f3b33e0df219cd59d4073e056f97e6f18dcebfa00f27c463d9fd7360001b6200aff2565b6200ab5f7f0ab1a15c584dc550564822e51c90b6556d02439b72ef95c55813a7f4f670280f60001b6200aff2565b600082840190506200ab947f4912ca1f746b67b87e92127e424ef610602ecd8455c415eca24e0e1efae1b65e60001b6200aff2565b6200abc27f66114683dd19cf7947e3b2b818c6c55b57501af6e821e1cdb4f2f80d63a7276460001b6200aff2565b6200abd2848210156000620051a1565b6200ac007fb783f36a61aa5e73f22951df3681c2eb20b8fba57492aa9e4764edbd3684340b60001b6200aff2565b6200ac2e7fe7b48b6ed0eb47f18bb58555642ad250e08b266847ceeeb5fe538202fc79104360001b6200aff2565b8091505092915050565b50565b6200ac697f52b02eb9833b0bd298da9a550fd6a8b13dfb25c29994dccd775897a11480c75460001b6200ac38565b6200ac977fb75d4e78a2d4db3d391224c3e34eff0315c02f0040609f8a2b6b81a4bee39fd960001b6200ac38565b6200acc57fc9b4e6a27a0e453ee7a9401745aa4ff765595ab77cc85081921792d89751008960001b6200ac38565b6002815110156200ad60576200acfe7f22167cf469dd9aabeefaa2ab2d17cdd5287c2264296931e640849328c451b01460001b6200ac38565b6200ad2c7fa65e1d9bc163f5ae9eb6070115a7e51cc6766682e133ff763759005b2d1a40e060001b6200ac38565b6200ad5a7faa2e51a8518e72c89222a13d73e32ca8401729d0b38900af1038cee92bce1f0860001b6200ac38565b6200afec565b6200ad8e7f3c9b73e3f9ac221add16775c5d9095515c3e8f3afef21ff52b55a6b8e602d38d60001b6200ac38565b6200adbc7f7fedf65b473b6100a99469045ec29164a45d4d36b75f0c52a75d9db201f9c6e060001b6200ac38565b6200adea7f7fbd9b3ab4279bb2347201c67b665cec5f3aea53dc77daa332841cee3a6383fd60001b6200ac38565b6000816000815181106200adfa57fe5b602002602001015190506200ae327f82f4605e79aa35d21c9a3999706dd9685733e98401d0e734c18f4c1140cce03e60001b6200ac38565b6200ae607f3838606ace01461ca21cf498f43a6824b7c080b35d4559c58c93c8f948842aac60001b6200ac38565b6000600190505b82518110156200afe9576200ae9f7fa59293f48c2e4416c1932c0f4236fedf682c01490f96f93a10b8fa63fd2b037d60001b6200ac38565b6200aecd7f38630e8d3b1587def62cbfe6d0750511f5e982b4ba10074a538d936e0237cdec60001b6200ac38565b60008382815181106200aedc57fe5b602002602001015190506200af147f938af12a518f22f61865b3861f21fa00ad4e4bf11ec7daa6c4f032b6025d424760001b6200ac38565b6200af427ffede6dd9ae22d44e28a4a759c56795dcd3b945d1d2203993228f37c909a90e4260001b6200ac38565b6200af7d8173ffffffffffffffffffffffffffffffffffffffff168473ffffffffffffffffffffffffffffffffffffffff16106065620051a1565b6200afab7f9093def741d483dcb80308555e82d6c69e39a26b3d763f0044f3f0f09f8d7adf60001b6200ac38565b6200afd97f9ba332f26c0d2c5129d51a9355d8ac6f4402d5dfa84f6fa0349bfe1fe83eedc460001b6200ac38565b809250508060010190506200ae67565b50505b50565b50565b50565b60006200b0257f91f79ce61d6095052f98343ef22bf159599b9673b3da8e9b6fcf2ee4ccdf929160001b62001814565b6200b0537f6d956e6a2b37087093bfab4ac0d93ebca5ac0f03733e05fb5e3f05bf8316b69160001b62001814565b6200b0817f77561784c0d0c99030a4a639f96d9bc02d8d5616e2b78f6299799333ced6e4ca60001b62001814565b73ba1ba1ba1ba1ba1ba1ba1ba1ba1ba1ba1ba1ba1b73ffffffffffffffffffffffffffffffffffffffff166200b0b662002628565b73ffffffffffffffffffffffffffffffffffffffff16141580156200b0e257506200b0e1836200e36b565b5b156200b1b2576200b1167fcd9aa553fe2735cf7020b4eb80cfda751f8aecdef127d00fa09d44949493ebe960001b62001814565b6200b1447f72cf9f892674527fa632776f358fe3c83644138ae83851c5a468654ee96a51a260001b62001814565b6200b1727f37d4b26a5e6da01282932b7cbac42b7bbe6ae4a212e5e0487ccf119a0d3d0e6860001b62001814565b6200b17c62002628565b73ffffffffffffffffffffffffffffffffffffffff163373ffffffffffffffffffffffffffffffffffffffff161490506200b2db565b6200b1e07fe7da6a237a9d6cd3116cef4d5ee70b194818a8e3be021a5de096d3e422173b0160001b62001814565b6200b20e7fc5ffb87b693ac8cd4c80a77973b8153ba692ddebe54fae3e7506c6d5ae1de21f60001b62001814565b6200b23c7f3447ca4599d659cf5d5b18a186bb0c30b2f9f0a7af21b1f9e9e4c51b46b06b9f60001b62001814565b6200b246620091ea565b73ffffffffffffffffffffffffffffffffffffffff16639be2a8848484306040518463ffffffff1660e01b81526004016200b2849392919062017bb2565b60206040518083038186803b1580156200b29d57600080fd5b505afa1580156200b2b2573d6000803e3d6000fd5b505050506040513d601f19601f820116820180604052508101906200b2d8919062017391565b90505b92915050565b6030600a820601600a820491506030600a830601600a830492506030600a8406018060101b8260081b8401016642414c230000000160c81b7f08c379a000000000000000000000000000000000000000000000000000000000600052602060045260076024528060445260646000fd5b60006200b3817f80fca6b64f7b0789847f8be52c02b4e1f759789d6b7cbe957f89feefde4fe88a60001b62001d86565b6200b3af7fc446b9f164092d39ac2524a6d2e73d0ccb1abd271deaf1757b7310ed4335dbdd60001b62001d86565b6200b3dd7f22f429aedbaa0bb811444c55a4871d76ff331b3f6f543b5d11608339df4e388d60001b62001d86565b46905090565b60606200b4137f34de8c27f0961f93b2f743ab6ecf123e1ef92b57163c8d1ee8742a4f6e534e2d60001b6200306d565b6200b4417f098a2cbbf8ed36a7510951491d90faae14537559f54e766bccc73815d49cc97960001b6200306d565b6200b46f7f4831164276816277fadd311369d7284cf37be57e88200bb08d329c77f4ad9a5960001b6200306d565b60606200b47b620059c2565b67ffffffffffffffff811180156200b49257600080fd5b506040519080825280602002602001820160405280156200b4c25781602001602082028036833780820191505090505b5090506200b4f37f0a945b9a3c7a371744a1a2b6b6924b9724a69fd370a0291f549fde7334ad5dc060001b6200306d565b6200b5217f344dc08ea9473f35a84abfe4ae2234060ae423c9457cc6205cd86f89e29245e760001b6200306d565b60008314156200b5bf576200b5597fce1226b0a40d6f67439799529cf1d2093c500b948a3829d7e684e92d3f1f6a1d60001b6200306d565b6200b5877fa9b121dbedb552193bbf3fb36194965a624b297941e20991f0798d91101616b860001b6200306d565b6200b5b57fdbbc9e949f03d99d738f9137c846d5b357ca2ef6e8e9845a9adefaa96c7b167c60001b6200306d565b809150506200b75a565b6200b5ed7f6e2d0536467378e345a207272fa33e8902a15480a28d2d81d59e89a129b9b48a60001b6200306d565b6200b61b7fa57ece396f575fef6459bf60daa3cc4071b919c920b726ed0f9c9d9b2ddeae1360001b6200306d565b6200b6497fa6a144aef03a272f3d6a8106f38951f11dbd99ca47644d9883c144fd8a69d1f060001b6200306d565b6200b6c0877f0000000000000000000000000000000000000000000000000000000000000000815181106200b67a57fe5b6020026020010151877f0000000000000000000000000000000000000000000000000000000000000000815181106200b6af57fe5b60200260200101518787876200e412565b817f0000000000000000000000000000000000000000000000000000000000000000815181106200b6ed57fe5b6020026020010181815250506200b7277ff7fbfe54218f1003db3f0eb17b22d249e578fd6bd2deb88cf9969cdf1f2d5ff960001b6200306d565b6200b7557ff882185744fa5241e44b423e5f328c4bd11097790278ea887592f6ec958b414360001b6200306d565b809150505b95945050505050565b60006200b7937f98fee658fb98ee3a3f7d31c9b144bae0694670e2d2c9740be272b5cfea0092c360001b6200afef565b6200b7c17f293f09d7307734d72ef4603c3433eb00449e5e883678fdc8895b9ad14da4388760001b6200afef565b6200b7ef7f9ea24ae37f0db9d37904a7342a2b686a492cf5195c6dc2b3a033aa704f81844560001b6200afef565b6200b7ff838311156001620051a1565b6200b82d7fe5e0f286e14e3939ab23ad606f1392eab58a6aa878cfdfda24b238e5aaec25c060001b6200afef565b6200b85b7f37759278f4a59534be934e0e6521d3364d9957c6491e795f56bed364064e433360001b6200afef565b600082840390506200b8907fad28cb0f8fb12a20cffd3ed3e3e4311fbd593c9af7fcd49febf0e43a31f27eb060001b6200afef565b6200b8be7f73877f4e66f2878c1974f071e9743c95266cbad904e3148b9557f6ca9019d15260001b6200afef565b8091505092915050565b6200b8f67fec359bc9aa02c4e3b57ed3cebbbb251f1c22b48ea78c839e57a36d09e11eaaec60001b6200306d565b6200b9247ffb0671243b5ca8aeb496249f20ec55b30aa0782681e6b0eef9620c768d3dc9a460001b6200306d565b6200b9527f3546fe98339c599aece12143b8375ee84de7c373e071c15087b90a290cbb48c160001b6200306d565b60005b6200b95f620059c2565b8110156200ba1f576200b9957f0d4acaf99b08ecceb58361879ab0acbfe8302a6cd3e01c345186d0bee548cbb560001b6200306d565b6200b9c37f1228f9cadde2c8e997fc3501cd137939df6a2d570b0f0dc081a4541a66f20c0960001b6200306d565b6200b9fa8482815181106200b9d457fe5b60200260200101518483815181106200b9e957fe5b60200260200101518463ffffffff16565b8482815181106200ba0757fe5b6020026020010181815250508060010190506200b955565b50505050565b600060606200ba577fcc38e3b6f06cb479ac241c254cef46660e7d077d711c4794a122c787199ee1b160001b6200306d565b6200ba857f13994d3d9212b2d1ff5742672ac223ccb844affd3d26072ba8b6f1e1df791cee60001b6200306d565b6200bab37f7b6c8b99bb61f55dc156f6d66f2bc8fee181f9791c71f1eae87eff91b6aefe2260001b6200306d565b60006200bac0846200e841565b90506200baf07f48d534e9ef685d8378d9518aa05b75ee159dbd4df57b8e366bb2f1ec9358fb8b60001b6200306d565b6200bb1e7f3f9c35bf1490edcb02f6c24afa1ddaf6f4646c180b0b5ed8e5c223bf772ef7fe60001b6200306d565b600060028111156200bb2c57fe5b8160028111156200bb3957fe5b14156200bbe2576200bb6e7f8d03f6073ac46f638054ee627b8bcf08a2abb07962d70e7446f156bd303b5a4460001b6200306d565b6200bb9c7fd3ad54916da1f6c7640491234d4a53cf52648e0c9280e04a62d69ddd75b7c1e460001b6200306d565b6200bbca7ff028651336bf103137100d7fd74ae98decd01961df95c62d400f39de832ef3df60001b6200306d565b6200bbd78686866200e8ea565b92509250506200bd9e565b6200bc107f4f6a6009f6dcbb52793c7e53736cd9aea5cb3684dbf406681b75d744466ff95260001b6200306d565b6200bc3e7fe32741dce9389e5a82bed9519d876f102cd0b99d743e0cd5d256781141f88fd360001b6200306d565b600160028111156200bc4c57fe5b8160028111156200bc5957fe5b14156200bd01576200bc8e7fb3117548b82b4736f13411e9cb7fa3d736bb2ac09e517a98b644ea53b485536760001b6200306d565b6200bcbc7f4a48f1b9d81620848ddf7451471ff8dd8aa2c95e20565948accdbd4ccc0b7ff160001b6200306d565b6200bcea7f1f5186ce4911b595e9c9a8b25600831b1e1c7587981f355631804be4f38d046560001b6200306d565b6200bcf686856200ec96565b92509250506200bd9e565b6200bd2f7fb1de562f86b8091419d2612bdd975f4e789e825659a07cb06040459c054b880160001b6200306d565b6200bd5d7f2c3514fd22f1fd7a5e6384fdb60e6d9ec29a7a74781b0e9274ce7e05d2603b1460001b6200306d565b6200bd8b7f018ec952d21fd9c34d11645f35bc2cd6a41c89dc0c9ec6b271dc003dd7ea2e7a60001b6200306d565b6200bd988686866200ee14565b92509250505b935093915050565b60006200bdd67f830bb8d8bbe210bb17c5611988356c4675c61ed57c68ce5c50dc480ae234e52f60001b6200306d565b6200be047f35628703df1c0e81bd0354368459807ece9e1ec83d63a9609237beb02953649660001b6200306d565b6200be327fa7fa29b2672847712a3b0aae58b04f49e458a59adde5d00092a10f77096f50df60001b6200306d565b6200be4284846200b7636200b8c8565b6200be707f9913b9bcb2ef4b2138ed1e6a0fc01cfef70e6480eca908b11f2c1c23d9cac22d60001b6200306d565b6200be9e7f88909ed927527e827832ae4a4ee39f34fc188675ba3f9e776f3403cce13a2e0c60001b6200306d565b6200beaa82856200a02c565b90509392505050565b60006200bee37f053a16bb25b7c3bf0eb8f96a85bcffdc6a2c9f12ce0922647a643c9a9c7ae08860001b6200aff2565b6200bf117f08f7bdadec418eb26fbcfc2165d86275b5e1b8baaf5e6df141cb730471d896a060001b6200aff2565b6200bf3f7f9f8aa221058747dd49bbdec7807bcf26373f39b6701b83701e7186c7bb8c730460001b6200aff2565b6200bf5060008314156004620051a1565b6200bf7e7f8210b270ac2bbe907255822195db451fc2c3934e1b448e9f4e004b7b06bc5df860001b6200aff2565b6200bfac7f22179e65a7ffb69370e752759a0145dff2e7d7410f004b6fb9b3b778f46f93ea60001b6200aff2565b8183816200bfb657fe5b04905092915050565b600060606200bff17fceaee3abad18267a0edc614bb32acaed21ed68df026f370603c14967d85856e860001b6200306d565b6200c01f7f168901dec3d12b8ab6eca11de6965e795151ad1641e00a8c1849954f8da5aaee60001b6200306d565b6200c04d7f42c26b63ed75b7d3174563194c79081cbde5b87aa7c2c641c0bbaafd01586b9960001b6200306d565b60006200c05a846200e215565b90506200c08a7f90ce423e0cff56a6086eac349a4c4236882d6a44a458f229934f48b1d9c8764e60001b6200306d565b6200c0b87f3acf37b133fa67972643824a7b3bde233b75b6dcc625b18ef7044332198834a760001b6200306d565b600160028111156200c0c657fe5b8160028111156200c0d357fe5b14156200c17c576200c1087fc5b8812dedeeb9e060ef024bd269e7219d17d7db46cb2101942bde76c0a6042d60001b6200306d565b6200c1367f3fcfed941921702e364f39777c0fc0c3c50c30d6bb8e16d6575b13f10708c22960001b6200306d565b6200c1647f350c6bcf13c90c87af955395eacf7d9d46d739f239d84272fda82bf1c9d35fab60001b6200306d565b6200c1718686866200f1ad565b92509250506200c333565b6200c1aa7fc1dbd2f4ff415ce44c7d2c71cd73d74c013bd1518503c4592ca6cc5d84b8269660001b6200306d565b6200c1d87fe09cbe7c22d3757ed6c239f7ff190cfd3af991e7aa31ee4852e0df32b317bd9a60001b6200306d565b6002808111156200c1e557fe5b8160028111156200c1f257fe5b14156200c29b576200c2277fa2024af3ef57fb1c16179fce6604b2984d3855541687536a8f457f7c2b8f044160001b6200306d565b6200c2557ff5c415a06467043366f4860a51ced4d6db960404f138655ea1ba55119931c47660001b6200306d565b6200c2837f23e582c661df9ab606e2d09271f60f053566efc1c652e2641551d6eb898e827460001b6200306d565b6200c2908686866200f484565b92509250506200c333565b6200c2c87ec7d27a3138fa335686da7e6b44de8edbb6b14d611041e148813cb615aa674560001b6200306d565b6200c2f67f3227e32bc9f4787c5f4ecd51b96e86c20b286093620b863c388d6915adba094560001b6200306d565b6200c3247fc57c3d89e530d84289636c07db2007d7d1068c2b548528faec6fbef4bb97755560001b6200306d565b6200c3316101366200b2e1565b505b935093915050565b60006200c36b7ff981d2cee3dac422391d164aab78e79c9d5f9434e212d18d81aefb9fbc0dba2f60001b6200306d565b6200c3997f49d8bd4fba3f9c54f886038bda7063eb1ed5c66e90315018ba7acbb646d067d760001b6200306d565b6200c3c77f63bfe13c696972b654160db9fdf2b96ea38e00c28d69ac6734622792e84f655860001b6200306d565b6200c3d78484620046c96200b8c8565b6200c4057f59946e69f2b983560e3f03dd14cee44152d41801f2704f6236e21699e6ac5f8760001b6200306d565b6200c4337f33edfdeca539d51985650963db55a50d0eaeefeb8fa0b3605eb6aef7e3bfb8c160001b6200306d565b6200c43f82856200a02c565b90509392505050565b60006200c4787f6b01f36c18c79940b9baa1ea7627e3c10a23e324a38396be9a253583363aeb3560001b6200aff2565b6200c4a67fb9ac893588a5a801e4698bd76575ede4d5838fc56498d0cf6c1a0dd159f20be960001b6200aff2565b6200c4d47f129ba58c31ad62f76bce8051d617e8f5e7ca5f956b83b84c7cfca80f6170196c60001b6200aff2565b6200c4e560008314156004620051a1565b6200c5137f8797abb6ec34e73bc681d07d467829ddfef5a3412b3ea4dc629fe993ab7153ec60001b6200aff2565b6200c5417f7144f0b5796c5168aa587bd2d2cb2beaadb3f41d05983b435a381bdf8e8ca5e460001b6200aff2565b60008314156200c5df576200c5797f90e9dc5e222294ab0e40e698afbff89ab7912401779b3705db127706a25a279460001b6200aff2565b6200c5a77fe70441edfaf6261218ccec5b4c00017fd4be0ce2024744a784e9703b2eb5921c60001b6200aff2565b6200c5d57fbc398dea8e073f5dc774615f3f686fa5c2d14965232aab5bca0d46cc7abe05e260001b6200aff2565b600090506200c67d565b6200c60d7f790584e95c50fd3f26581fb60ee3d72efde1b8545345dbe5c80231d1ea31127460001b6200aff2565b6200c63b7f8098282080dc3f0f12a01b1890ba22d8cee5477cce28c89c0029d16c132ee2b160001b6200aff2565b6200c6697f05fcb8070bd589808c64e227360faac4ead6e092128766d5693bd170c16ff4bd60001b6200aff2565b8160018403816200c67657fe5b0460010190505b92915050565b60006200c6b37fecedcab8d0f0b6a3000213e8cddc44feada52d5d1ceca994a1708f87a68f484260001b6200afef565b6200c6e17ff7a5e7dc62e206a3c02506e29058349ecd8dafef79131bdc1bc2e8e1249cd18360001b6200afef565b6200c70f7f464c62fb9d6f36fb99d3416aa58c5d658e75acb5788f6ff32ba3c5125e2dd92a60001b6200afef565b600082840290506200c7447f62fa03b6cb0bf307621766f8e2c59c61c09f612d409ab410b0274a5d515f142260001b6200afef565b6200c7727fbe2dae5901d1ce6fef70c1007ac171cbde128a670f8e63dedd387d29c32bbdff60001b6200afef565b6200c79760008514806200c78f5750838583816200c78c57fe5b04145b6003620051a1565b6200c7c57ff751ce1bed0d21d854888f65c9afddf5fd3403e43d946bb14a67c1da59e974fb60001b6200afef565b6200c7f37f83338b898944f1b063429e568413716f9a77960254fc9aa061a6760b2c9cd5c460001b6200afef565b60008114156200c892576200c82b7ff7d35bcb2b713968c089fdd9b59712b4eb62375d00e259e9dfce81aff0b8969b60001b6200afef565b6200c8597fa22bc731dfb2440b39794a07130d0ad03e27d6b8166a162102b8307676d1ca3f60001b6200afef565b6200c8877f69095262fb678ae5f47c6a9ffabcd4b89001a3eed701741b5f7c4710ecb6028160001b6200afef565b60009150506200c939565b6200c8c07f263c8cd579b54b7eae40140c5ccb8cd53b978485034df207bf14711955d29e4e60001b6200afef565b6200c8ee7f56c98e1813cfb46ef95956e10763a8a2d34e9f3d345a2e254da0d46729917f7960001b6200afef565b6200c91c7f966474f471122894d48e473af854379789a7b13e9e5227f3faf34cb4687e2f6e60001b6200afef565b6001670de0b6b3a764000060018303816200c93357fe5b04019150505b92915050565b60006200c96f7f360d38118789f21b8bf4af157d39e517fc3ec6522151dbd1c6482dea9317cf9160001b6200306d565b6200c99d7f7557d3889cde891923fa14424a3fb1f0c49d00a84ecbba1530695d304a49423660001b6200306d565b6200c9cb7f4a74088425215d5717e97e333bb52b162bd060044bb17bbd1532a0bef0fa66c560001b6200306d565b7f000000000000000000000000000000000000000000000000000000000000000073ffffffffffffffffffffffffffffffffffffffff168273ffffffffffffffffffffffffffffffffffffffff1614156200caa5576200ca4e7f32be78e289dac9e1485aaa0e16de88ab2c721009f92139693d79d5ae3fec09d760001b6200306d565b6200ca7c7f28f9eb8857aedd496c5c575df7f4e3a79ecfbff6a97bf82a7c76e572d3fac5fd60001b6200306d565b7f000000000000000000000000000000000000000000000000000000000000000090506200d3b7565b6200cad37fb3924503bc10086dde6eb3901b5a02186568c46b133114c5171f1043f344fe9a60001b6200306d565b6200cb017fbd448d41ae02349f6642e595f4f4230f804112d8c8f4c4e183ce3a42320008bd60001b6200306d565b7f000000000000000000000000000000000000000000000000000000000000000073ffffffffffffffffffffffffffffffffffffffff168273ffffffffffffffffffffffffffffffffffffffff1614156200cbdb576200cb847f18180c4a053d22741c9839842042cf88423af2b2320cbc9ad4b40703b90e79c160001b6200306d565b6200cbb27f33ea8deaaf510a0e98be26c21ded93d4351fda6e3ea9e38823efda7c6f297e2c60001b6200306d565b7f000000000000000000000000000000000000000000000000000000000000000090506200d3b7565b6200cc097f43c931172fcae3e5a3123914a039e491d6b8dfcaf8153a7e3cdfdf4fe56cf03260001b6200306d565b6200cc377f3645d0b16c89aadad2664a93f6a31b8939fa8909af4200882c49e6a5a0577ada60001b6200306d565b7f000000000000000000000000000000000000000000000000000000000000000073ffffffffffffffffffffffffffffffffffffffff168273ffffffffffffffffffffffffffffffffffffffff1614156200cd11576200ccba7fa77aed3d29c766b0db34e7059d841803ece106e56bff2a7f4b7c92894d9e3b3b60001b6200306d565b6200cce87f373f45a6daded230ed8906705998df89b0ef9372ad22908148a53e81671f191160001b6200306d565b7f000000000000000000000000000000000000000000000000000000000000000090506200d3b7565b6200cd3f7ff530220368fce5db7bd47141664b7176e8fe1be5e63060c0b56a373fdae86dbc60001b6200306d565b6200cd6d7fda01ad03e0277b5ed08ddec9228c79e26fba19e0e15faf6c0f9c27d9e29d304660001b6200306d565b7f000000000000000000000000000000000000000000000000000000000000000073ffffffffffffffffffffffffffffffffffffffff168273ffffffffffffffffffffffffffffffffffffffff1614156200ce47576200cdf07f89e8f08e69a14eb9f16b099509901fd111adfcad39d6b433acd436d4c1f23c0560001b6200306d565b6200ce1e7f1f81d3ff1ea53dad189d70e4307f016f7591d9295843c39ca78b42b1f8fa954d60001b6200306d565b7f000000000000000000000000000000000000000000000000000000000000000090506200d3b7565b6200ce757fc8d7ce4a7f38699d12a2ee15d712f07ffa203eaa00d021aded9c46eb9997b97f60001b6200306d565b6200cea37fe3391edd44d9c04641b7cadda39a0bee047f592d0f2bb7d5b5c90c7ac2a9191560001b6200306d565b7f000000000000000000000000000000000000000000000000000000000000000073ffffffffffffffffffffffffffffffffffffffff168273ffffffffffffffffffffffffffffffffffffffff1614156200cf7d576200cf267f2dbaa6c396f874b0728fc3d03ff1f6ccab56e0a97729f8bc15c9ad9d55b8a29a60001b6200306d565b6200cf547f12c9aa06ccddfc775ed0a570dca808727d4cdd9149998be3dae2813f700b650060001b6200306d565b7f000000000000000000000000000000000000000000000000000000000000000090506200d3b7565b6200cfab7f593ea76d0ce381bd143f2a41ed0473a46f11e083572b84f2b256b414e287984860001b6200306d565b6200cfd97f3ced7f3cd073093c33ce878f6667788f16398c873c25a950ec10007bb9c08eaf60001b6200306d565b7f000000000000000000000000000000000000000000000000000000000000000073ffffffffffffffffffffffffffffffffffffffff168273ffffffffffffffffffffffffffffffffffffffff1614156200d0b3576200d05c7fd446979543c8f702371bb046ba55ee48538321104d13a360d38c1ef251f67e9960001b6200306d565b6200d08a7fd005dfc5aac948421b792b8982565df59f06ebea7c4bb5e2cadc8e5ae2073ed360001b6200306d565b7f000000000000000000000000000000000000000000000000000000000000000090506200d3b7565b6200d0e17f0bdc7bc5e2bb11e1d5f73e233e8c53dbeee229c554142ec01119c15c98bbb2c660001b6200306d565b6200d10f7f9c0f215742468983bf3ca837cf0f39e5052d8ba6d437f5945404882658658d2660001b6200306d565b7f000000000000000000000000000000000000000000000000000000000000000073ffffffffffffffffffffffffffffffffffffffff168273ffffffffffffffffffffffffffffffffffffffff1614156200d1e9576200d1927ff4919e7cecd1127fa2715b97b69a20b141c9f91373694fe0e51f08cba743c75f60001b6200306d565b6200d1c07f7e1d88e8693587310b0c9bce1c79c69fb7c49c51d252499ae321d78a9d04b02b60001b6200306d565b7f000000000000000000000000000000000000000000000000000000000000000090506200d3b7565b6200d2177f628ca407df272b32acdbce8e59d4d09994f87dc28a19e597ad93eb9cd90a2b3e60001b6200306d565b6200d2457f7f4af5236dbe394765a64b1c9336a5462179425f278384733ee94bc1c177b04b60001b6200306d565b7f000000000000000000000000000000000000000000000000000000000000000073ffffffffffffffffffffffffffffffffffffffff168273ffffffffffffffffffffffffffffffffffffffff1614156200d31f576200d2c87fe21ec7ac8504ef090b469d3a3905b01bb1e60eeb0d2705d5af5fa9fd91766fc760001b6200306d565b6200d2f67ffb49c68e8d3d103baa2bf1ee120cd5225c0ffaa4cf525d34a85bd98b13c96b0560001b6200306d565b7f000000000000000000000000000000000000000000000000000000000000000090506200d3b7565b6200d34d7f9abe996f0a3f0c1f73b97278182fa00f74fcb168a6ac2710a062faa06e39344460001b6200306d565b6200d37b7f2076c1aa43fb10a95f345268b559e456380d4a09e3d6d3cf8dc3c08f45122b4260001b6200306d565b6200d3a97f448577238db8e816e9e782fe4d6c83921d57ef5c9defa77bf016ac9e6ae4caf760001b6200306d565b6200d3b66101356200b2e1565b5b919050565b60006200d3ec7f4211931e53dd15d5f897358d82ab0fd12e76b5c478dd0438b1e10519dfee0f9660001b62004466565b6200d41a7f5ebef029f0eac4f3aeeca3049b4192cd27e1572d6b0f48d102d52206ed69de8c60001b62004466565b6200d4487f333f6b640845dc58df153a7615e777c531335d428b14c1609d7ba09618330b5a60001b62004466565b6200d4756200d469670429d069189e0000886200e08990919063ffffffff16565b831115610130620051a1565b6200d4a37fa18a10d329069c426b5cdb7d12b6a70790de42ecc3053a53cf7ecaf7920915c760001b62004466565b6200d4d17f142b7bf7bff9da4914c7811734f2598ce98b4206ecbad023f3df8d25aebaa2a060001b62004466565b60006200d4e88388620046c990919063ffffffff16565b90506200d5187faec089ddffa2507bd9dd723d3f2d052405c6132327400fb541a17d415a756feb60001b62004466565b6200d5467f99c782e62b11188512a447127b00612b317ee8d79c045b19979f22c04cdb89ce60001b62004466565b60006200d55d82896200dab390919063ffffffff16565b90506200d58d7fe16505b34c18fec6250708757a135ab4f3ab127dd2cbccc6a6f174ffe48a5c9660001b62004466565b6200d5bb7f45f00bff718266a1c0ad616851d3c95ab308130442379de10ab68843ac5a740a60001b62004466565b60006200d5d286896200669e90919063ffffffff16565b90506200d6027f4c16600f3c06f8e33e216b56ac9a15d415c3437fb83788bd72bc4795381ecbbf60001b62004466565b6200d6307f06562af00d3e7ade5d515cf3dd6a62ff58880ace6fd19a6441de2fc9f4cbfdb860001b62004466565b60006200d64782846200f76e90919063ffffffff16565b90506200d6777f74fd45c4989ffd4a093a27e6f3a1e8e4babd0cf3c27f3e66cfe94fc392e2f3ef60001b62004466565b6200d6a57f5fd457e7a563f794012ac48b872cf45f243e2ff97bdd4cb810d0d29e8f62fee060001b62004466565b6200d6c46200d6b4826200d9fc565b896200e08990919063ffffffff16565b94505050505095945050505050565b60006200d7037fe5979ab3fa4ac08751180123eedbc301dc75213bf320a978fa28fbcbedec092260001b62004466565b6200d7317f98fa8f0abf1a7064cc8461988f63078342977c155d12e2c493a8b52f1ee3c43860001b62004466565b6200d75f7f14a2bd556b94c372fff7074e6d6b1b23711f8521c15bf95883be36ee0b39c08160001b62004466565b6200d78c6200d780670429d069189e0000866200e08990919063ffffffff16565b831115610131620051a1565b6200d7ba7f62583057b60955e5a2a234c80e24945d37fcddfa215c4869795dbeaa3e4683b060001b62004466565b6200d7e87fd8ad07db81598d25362e52c35cdb0018f942a43f066af13214eaca7e4757031b60001b62004466565b60006200d8136200d80384876200b76390919063ffffffff16565b866200dab390919063ffffffff16565b90506200d8437ff0e1f09a382e022c7ac262b040d951153f0f899692c142652b618feb06ee193260001b62004466565b6200d8717f4715310273f188ffa3eaedcb5e2dd6058e63795875466256d02d63e3bb6dd6e660001b62004466565b60006200d88887866200dab390919063ffffffff16565b90506200d8b87f263dca47687c4f87b89f4bafd5ad9a1157e57a9e3f513e371b09b52d6680f3ab60001b62004466565b6200d8e67f8a0e3e68ea9757b0a0cc429a384229c26aec9b6310a239208bd0199238d5674860001b62004466565b60006200d8fd82846200f76e90919063ffffffff16565b90506200d92d7f8d038c404be8a4409562b06392f0b886eaa5e600415b1cae839eae403853754460001b62004466565b6200d95b7f96687e78c30d6bbc694d40371fe4dba1c92e6f16f21863f160a23c6e2db3171d60001b62004466565b60006200d97a670de0b6b3a7640000836200b76390919063ffffffff16565b90506200d9aa7fa35a0c1d73d6a675ea41200b3aed4c7ac09704ed29009415766aad67a604c4c160001b62004466565b6200d9d87f14ed76c05a47fe265c34334b99ba9b3725117d270db8df864b140d8f3f3e5b3060001b62004466565b6200d9ed818b6200c68390919063ffffffff16565b94505050505095945050505050565b60006200da2c7f60680262f8cde245659d6c6448d21bceb1d3ca08e29b59e819a6666f1c7e7bb260001b6200afef565b6200da5a7f5ad3353e0ee2b8595834d505fe48966b19abe3dc495fcaa2c983f602906d1ec560001b6200afef565b6200da887f7c485422e01001a45ed23c48c1d1896544b18c428abf31cb0e62bae7e2eaf30160001b6200afef565b670de0b6b3a764000082106200daa05760006200daac565b81670de0b6b3a7640000035b9050919050565b60006200dae37f2d109a5683dd9a11ace453b33326f996dc073f965956c0adcbc94da37c822bbc60001b6200afef565b6200db117fea0a55fe7d66eeea1d8c65997ef349e4565e690cb513c76bb425aa845819404460001b6200afef565b6200db3f7fa2e015e562ecff7cb5dbcb8dcc681211c5910605c85f6c8da514e14520d7be2e60001b6200afef565b6200db5060008314156004620051a1565b6200db7e7f7cb9d936b52daa3885c69bfd5704f0b5904085e5601e4d6996bdb889cba14b7e60001b6200afef565b6200dbac7fa6aa7cb199aa4952e11d0c48c2f2a6aa6d773e1412fa2c68e4497072fc9c34a260001b6200afef565b60008314156200dc4a576200dbe47f6444ff1aca63815e4d2616653a3331b326584b2c92e1619a9aeea548bc0fa6b060001b6200afef565b6200dc127f1bb8db645f8bcb2e16a0d7ff4086e5ee3684b0032db0454c653291f51b9f723960001b6200afef565b6200dc407f11b60f07d48ef5f829a0caf0761770cf3d5dfeeddc3475cbaada9d91ab44ff1f60001b6200afef565b600090506200ddd1565b6200dc787f4a73f3af504b91809a28e5acaf9337a35a56ca11189217b0a894129cc15e8fad60001b6200afef565b6200dca67fe99ea2420c0ecfeadba8d7dd1d82e5ee989794f71a5f27acfd3ad1bd812c690b60001b6200afef565b6200dcd47fd17216c7fdeef3f09d1091432fb7303451e83c986270ffa9bcb84b0b66b60cb360001b6200afef565b6000670de0b6b3a7640000840290506200dd117f022bd7d5ec8e771a53b61eeb3fa4b04d83c67d8a43d01c0c66cf08aa6018840d60001b6200afef565b6200dd3f7fdb22d1d6663051778e748b13c2b2b11d231553902ff4007ccd48321f7bb63d3960001b6200afef565b6200dd60670de0b6b3a76400008583816200dd5657fe5b04146005620051a1565b6200dd8e7ff80bdc4afe03b8285068be38759e765413a3844d086e1d62e0a9d6f27338182c60001b6200afef565b6200ddbc7f5015482585e9090f4a9bf17a97e47f1225482f97e80fa061dfb918c23d4f585860001b6200afef565b60018360018303816200ddcb57fe5b04019150505b92915050565b60006200de077f0e0ee3284bd5903c815044bcbf0ed6cf75d952a77c522ebde3e0ad91277e171b60001b6200afef565b6200de357f55bc9937e62774a3667931efde97bf6772e9de186e355f5caee4c8e3087b724c60001b6200afef565b6200de637f0417d5ce2ab7e850f8042fc37636f4691b9335e37d3f30769449ad4a2a9a8f9960001b6200afef565b60006200de7184846200f8f6565b90506200dea17f1529b80d2b0a4eac949b3ce095e8c13e908c2586c09214f096e0005d72a6f66760001b6200afef565b6200decf7f82f83870dc6d027e3cef4996a38414088854cb340b7f19d86a5904becffee65860001b6200afef565b60006200deeb6200dee3836127106200c683565b6001620046c9565b90506200df1b7fae675fae313179417d046ac8e1d8fb1fbac0e9a6d2afa70d73b2430e8723bc2360001b6200afef565b6200df497f4a084fc6f5a0d58fb51443a68a6657a238cd0bbfaabad84b1a4f51015041101960001b6200afef565b808210156200dfe8576200df807fde43b16777832eda33999394cace4e9a7df4a6c2dccf18d94085ffbde1e565eb60001b6200afef565b6200dfae7ff0bd73507d0060d8c052358c7d57a5e9c9b77e23158a65148b8431374729fcae60001b6200afef565b6200dfdc7f30672f61c01d399973740410f9cddd7d0b1f57269700dade8c0cfa952cc37b1c60001b6200afef565b6000925050506200e083565b6200e0167f37712ba03809199cd51ad1653892d35c8f54c092a31bae3b9a8373a49f084cce60001b6200afef565b6200e0447f01b363bab51dc167259a08619d2989a39e222a123288cec0986e03fc4dbe4d6460001b6200afef565b6200e0727fdb94e8f43b97f5ce1ecc72ab3f783d0d050ae4c0afea87379818aa345d41108a60001b6200afef565b6200e07e82826200b763565b925050505b92915050565b60006200e0b97fed5730d97338cc99ec7ced602749e69fad452b233ce5af1bbc10319879372caa60001b6200afef565b6200e0e77f8f6916668b49b644d98f771f124b5a32bd9897d7ebe53b3c38ade6a71e84085760001b6200afef565b6200e1157fe14f128dd52a43628a9bba7b0a6f33bfc1a4220802b917ba737266f9dcbfa49c60001b6200afef565b600082840290506200e14a7f46dbb44b8cf04ee6e61d614d79ce70c1a85cc911b0197fa4ddce642a38fa5fc460001b6200afef565b6200e1787feefba6c3b698f9572b5bf37de3ea9769c52c377600e5b34f929c993e75aa62d460001b6200afef565b6200e19d60008514806200e1955750838583816200e19257fe5b04145b6003620051a1565b6200e1cb7f38f54c5617f008a16f1f038a9a8bdf61cc1319b326250c056a5f9064eacdca5460001b6200afef565b6200e1f97f7a48fe0d9a13c1bc8e2332965b60872b1e28e7883785e9895a3ba40dfcccd1c360001b6200afef565b670de0b6b3a764000081816200e20b57fe5b0491505092915050565b60006200e2457f7c2fb4e3e85bf90f24f6e29c66cfeb0abfaf99f62a6a7a7b42a7f9bd47465c1560001b620101b6565b6200e2737fc157579a0cc95327ccaaa90d9fe5668598e9d05eb26c5aa3175ab01296b5bf2760001b620101b6565b6200e2a17f45df167d228daead0ce99cea3e54dada1c0e2a58a87af39946efb701a9d50e5960001b620101b6565b818060200190518101906200e2b7919062017652565b9050919050565b60606200e2ee7f4afcb6ee3b9f87d0bdf0a49d47bdbdd21e0a241dc7189b88ed794d715a660a6f60001b620101b6565b6200e31c7f235ce3e22eda81257d0a43ba9a7090fbe3e522c6af01904ba52909cb60dc453e60001b620101b6565b6200e34a7fb43114925ecd4b54675dc2d31041b7de3db0d03f1d906e8caa1dbce61088299a60001b620101b6565b818060200190518101906200e36091906201767e565b905080915050919050565b60006200e39b7f2f28154407be259a8b5ae1d92482cab9e8b2cdf23ad42d39bdbf1d9e9d4d1da660001b62001814565b6200e3c97fde8d3b10f894bd9ae4ae64549cc687fcc587ef70996d382abfdd4adfaf29623360001b62001814565b6200e3f77f4b3c49ee92a6d8c0dfa4ba1fab76a8a0dd5b81608cea4bb36153a96445e268fb60001b62001814565b6200e4096338e9922e60e01b620023c6565b82149050919050565b60006200e4427fb36bff3800238b2fc1b2a413dac34942d1246e80c776d530465c40bb0df68c7160001b62004466565b6200e4707fffffed503c9e9676a19ab00fbc0422bf576a1211f7be0e4d2c3d62eef0e43c2460001b62004466565b6200e49e7fea48ac686b937531b3742db9ff78b06c1099c44a4b1575e6050bd653f886b8c060001b62004466565b8383116200e53a576200e4d47ff2c96e80d5e1be6317f45f1bb1b549143a9cb259be2c78bfd9103f540493011460001b62004466565b6200e5027fce780ed8643ac88b2b8c2c3a5f004d0821a8e91d5a7190cc987c762dbaaa79ff60001b62004466565b6200e5307fed09ea58c6452b8f260fc28197fa41cdee7b28f5437d4722502b61812630e14d60001b62004466565b600090506200e838565b6200e5687fdc69cade8ad310ab4c6cdfb62b5580b36cfa164c1434d9088561f634cd4ffe6b60001b62004466565b6200e5967f4830f3192332f89c4d126a0332638613728d2b2ece39e25d8ef7e6293aeb5c9a60001b62004466565b6200e5c47fd8f6a03331b14a90b7eed30399d975d7d02f69b7398b1ea6cbf794d5f5c2611660001b62004466565b60006200e5db84866200dab390919063ffffffff16565b90506200e60b7f2c4f1c1d67ad93756483d595ec1d54cf7052307f70882177a2b1b17acfbda28860001b62004466565b6200e6397fbd834a923ad54062d27b09639080e50b86bcf336d0cd5d463beb18b1bb8a1c0a60001b62004466565b60006200e65887670de0b6b3a76400006200669e90919063ffffffff16565b90506200e6887f6d57c93444d3cc48a988eb582636cc8ed78b681ae90e68cdf3322d89c108d17260001b62004466565b6200e6b67fbb8c05e3f2ce03795463ea7ad7109e6a0f9ac29285e269a99c634ee0c8ff200960001b62004466565b6200e6ca826709b6e64a8ec60000620101b9565b91506200e6fa7f4b042dd04983b6e5fcc3fdfd3d0aaac5cbdd9c1f980886fdff744a46f6d6b22f60001b62004466565b6200e7287f40a560eb6ed9f3dbbb7fe274d784c1ed1216e3179b6c7d2655cfa520f368667560001b62004466565b60006200e73f82846200f76e90919063ffffffff16565b90506200e76f7fcf622c1d8a7236682cd0eabd23291439b6114cb72ca4524e74ccd4ab29f20fa260001b62004466565b6200e79d7f09118c8da00012d9c1cf85bed271ae32ca317745e75cc21983cf5953542d1bf160001b62004466565b60006200e7be6200e7ae836200d9fc565b8b6200e08990919063ffffffff16565b90506200e7ee7f0bd60f7a724e93ba76202e9b52d14b766a8cfe4cb8de8be5ec7041869619ecb660001b62004466565b6200e81c7f053f84c520825bb0db10ec016d511fe6cb504337c9bea5156770f4c3e1379f6a60001b62004466565b6200e83186826200e08990919063ffffffff16565b9450505050505b95945050505050565b60006200e8717fc48291d94bb86aec5727bdb72c3311c2ecd95c6696055e00f918c685934ff1c860001b620101b6565b6200e89f7f7e14606ac16f3ab0c95d0f9ee26585b31515b59f129903146b863ff132a5aca460001b620101b6565b6200e8cd7fbb79199843aa1098506e7ab1d69665e01b7b437cf22e9d88fd9002c8ccdf02b160001b620101b6565b818060200190518101906200e8e3919062017520565b9050919050565b600060606200e91c7fe43977ecc8fc383612deaa526481dd12c217dc617de9653c2d929fdaaf26417960001b62004463565b6200e94a7f23d99ded7a08dddac8712dd43904487faa99a77a20c382b416002f037975d3e860001b62004463565b6200e9787f7c269407bd44c42660349a4c6a311bc95a370fcb345ea3b6070a5c5f1006dbde60001b62004463565b6200e98262005711565b6200e9b07f215733b8cd9af718b2d564e08e0d1743cce1a0f8416572ea9a1f99dafc713b0260001b62004463565b6200e9de7ff4152ee4ab7e27f9a06d34405e0e3abec11c8cf13f0036afb95f7060322d224360001b6200306d565b6200ea0c7fbe0b5da11185e1fee4531f89d2a021c9a5bb3b2cea73fdf51723c1d932c8352560001b6200306d565b6200ea3a7f4718daf6e69f114d3253506dc869ea1cbb8e2cb361f29347e82019ee60181a2360001b6200306d565b6000806200ea48856201025f565b915091506200ea7a7f5648cf9ccccb5cef7b9501a64cf8bacb208a9b94a691eb4633e77659fa1c3a5660001b6200306d565b6200eaa87fd736f8df9c0c5f7b7620b480f67931bc723b1842dc6a00696b926a99636e6f2a60001b6200306d565b6200eac06200eab6620059c2565b82106064620051a1565b6200eaee7fd24dea32026baa6661f92d81fcc0896acbd5d2fe7282af00bc9446f163e5e09d60001b6200306d565b6200eb1c7f1a635d4ac8745809608ae3048f7558688805a26edbdfa6b2478c9a895d86cbcb60001b6200306d565b60606200eb28620059c2565b67ffffffffffffffff811180156200eb3f57600080fd5b506040519080825280602002602001820160405280156200eb6f5781602001602082028036833780820191505090505b5090506200eba07f658f74e8f683919a449ffc5a0b9b85c8ec337366eafd2fdaebdb2cbae373fcb760001b6200306d565b6200ebce7fde931da1b2ca5b4b8f087969ce60b40b1817e5c849efa3738d7210de7c006ae860001b6200306d565b6200ec108883815181106200ebdf57fe5b60200260200101518884815181106200ebf457fe5b6020026020010151856200ec0762000d58565b60075462010312565b8183815181106200ec1d57fe5b6020026020010181815250506200ec577fc35b9f9758d56cf1a968bd89c175a514d0c80e4b0556534fc7e404ab3402580960001b6200306d565b6200ec857f391af08916ab171ef283b0c86c881d5a3e14f0ed80753d13315cb1baecf734e560001b6200306d565b828194509450505050935093915050565b600060606200ecc87faeb9623ae5f5ebb468d1f10e4199decca0feb5b6cc2e3f2e9001a9a0dc96625f60001b6200306d565b6200ecf67fe22359df0044b5135568efd6c9d2f08c2e2ff0d9e84ceb71e81039e8b69eb97c60001b6200306d565b6200ed247fd6a40696b12cfe0175e8e17fe2545c49b0f476c53d5a102462e4e977f2301a9360001b6200306d565b60006200ed318462010745565b90506200ed617f42da9cdf614b09e89c2883281b25cae52d1b12711c5cbee08a2d80c318eaef2960001b6200306d565b6200ed8f7ffc42fdafefe62a533c90e6aebb48df0fc7bfa76df39f49d44e79692e056905a060001b6200306d565b60606200eda786836200eda162000d58565b620107f2565b90506200edd77fda6e21876061827b01c2fc7c665388c9c1d484a34236b520906ad59f886460d760001b6200306d565b6200ee057fbc359e68d474433b545a7a0dad30387e1a6e10d6c1b7be525436a06a89711fd760001b6200306d565b81819350935050509250929050565b600060606200ee467fe43977ecc8fc383612deaa526481dd12c217dc617de9653c2d929fdaaf26417960001b62004463565b6200ee747f23d99ded7a08dddac8712dd43904487faa99a77a20c382b416002f037975d3e860001b62004463565b6200eea27f7c269407bd44c42660349a4c6a311bc95a370fcb345ea3b6070a5c5f1006dbde60001b62004463565b6200eeac62005711565b6200eeda7f215733b8cd9af718b2d564e08e0d1743cce1a0f8416572ea9a1f99dafc713b0260001b62004463565b6200ef087f51c117d1a34bb7c359298ee6651539bdf2a2aa5d2881ab87f86f0808d278fa0660001b6200306d565b6200ef367f5d2cbfcb3c2448edc789bb3023566163675958f61a75eba2a05294e34259156b60001b6200306d565b6200ef647f4fbd4c03ebe4fe1782c85e37846257045cb7b5acacffd7e667cad913cea085fe60001b6200306d565b606060006200ef738562010abf565b915091506200efa57f491f68a0c88e3609583d7ae463c20be57ea8c0526feb5d32399a15c974254a9d60001b6200306d565b6200efd37f4dd8e8ffa87394ab404ab5105309bb4df58a7d390ce1de14a551012ade218e1460001b6200306d565b6200efe982516200efe3620059c2565b6200462c565b6200f0177f3220f77174a780a83a6ee56a2777860bf6e2b745538d8d322b92727adea1b5bb60001b6200306d565b6200f0457fd7de20544eb9336322fab8af70555de006211d1fd3ac27e56a755f79a3730cd460001b6200306d565b6200f05a826200f054620069bc565b620076e0565b6200f0887fb3847f957b13c4cbb95a9a7e09565d296339752f5dbdfdecce2c196a940b6d6960001b6200306d565b6200f0b67fb8c6336d3f7670eafa7900dbcc8c02a3ddb31a61c3f5a91d93a87a95138f5fe060001b6200306d565b60006200f0d28888856200f0c962000d58565b60075462010b73565b90506200f1027f484b7e0f5f010efd8c92cdd541aca1e6743f3ad98a545ae5e7fd51966184519960001b6200306d565b6200f1307f800ac3c41e5d621a04211ef27ca98b023e4673a8724957b2356e426ae7acb4dc60001b6200306d565b6200f1408282111560cf620051a1565b6200f16e7f1c241cdaa73bb58150451c0f10b867b840fe4e9fa692d30ffeda00593339ac9e60001b6200306d565b6200f19c7f9e97a9277d8c7b5455b92f0f061adf078f14407ed25afb6fab8151813652ce6d60001b6200306d565b808394509450505050935093915050565b600060606200f1df7fb0160cab291300b655c9734ae2b42a5e18b99193329f4bf4dbf2669eae1f7f2960001b6200306d565b6200f20d7feff9b2c6a1e5c600f7b60c9f94a1ed8a5b2bca01f31e2017108d729ffff59b8460001b6200306d565b6200f23b7f538ce2e0664890d2ba642d8f4281c229354a15aed2c15e3eb3037e4d1fd5f70b60001b6200306d565b606060006200f24a85620114c0565b915091506200f27c7f069b6a40e786355bd77b3cd397d3df85406de44dd682795ed3eb99c0fc70c7a760001b6200306d565b6200f2aa7f680f9f42e523a7b1419d858549685109a164ab66e408a52a254cec4524bc985960001b6200306d565b6200f2c06200f2b8620059c2565b83516200462c565b6200f2ee7f95224e23e047c09f59d48607b34a7fc76a5216e02fd890a9fb549c4c0c9d19cf60001b6200306d565b6200f31c7f63945f3dc1ece4921c4f61fc6803e4766bbe43b716bfca41edcc1ec992d1303460001b6200306d565b6200f331826200f32b620069bc565b620076e0565b6200f35f7f76772e3de414999724bd16a20e9c563a5e176b353f64e44a22d621452012bb2a60001b6200306d565b6200f38d7feb2fd43b2e55500765ada6cfa3eb27e876b02df85c98f732ad4365779177ea6360001b6200306d565b60006200f3a98888856200f3a062000d58565b60075462011574565b90506200f3d97f66614090ac849c444d841636ac7399d20f896e7b22a514cb472e79a6f960596160001b6200306d565b6200f4077f015fb2c2a28ff4889bd3dab26b2d9a9f1261e70ef356830c11097cc80f6c525a60001b6200306d565b6200f4178282101560d0620051a1565b6200f4457fbf7411a8cc541ad738df2359effa23ab0b14e4a8ad3b9381242fc6211badc9bc60001b6200306d565b6200f4737f6ed897bca776e49231beb048ca3c093353eef108a7dc9556b6371cbea83f7b1960001b6200306d565b808394509450505050935093915050565b600060606200f4b67f6139af7316b0f24a2ee44979f90f476578a77ac00a6877eb0722bbfd70d9c99d60001b6200306d565b6200f4e47f98bb7cc51f67603d6bb460abe9cb25d29adf2693c0bf747b32e6109a3b63fe7360001b6200306d565b6200f5127f7cd939d47427e4ef48d9daee3aa49d21afcb92e215d13d0fba418b99c1be783860001b6200306d565b6000806200f5208562012029565b915091506200f5527f75679c4e319a3fad57731dc34b9683772abf34339d6a1c00f34f7d7e7cd50c4560001b6200306d565b6200f5807f535f10467b4cbf958cecdc1f551276e6893a2afcf948115f3254c0d32f1c4c6f60001b6200306d565b6200f5986200f58e620059c2565b82106064620051a1565b6200f5c67faff4366a17530889490ef0159acefdcbf569ad0d5f46788057482987c1fe0f2c60001b6200306d565b6200f5f47f7294f8ebe4a26c4f4eb7b648bff092ddc66a3f220c1e720479a71d0bec48893360001b6200306d565b60606200f600620059c2565b67ffffffffffffffff811180156200f61757600080fd5b506040519080825280602002602001820160405280156200f6475781602001602082028036833780820191505090505b5090506200f6787f712b1fee64ede58d877787f9be2f01593932ea71dc92584f1c7d1ba22ee5aba660001b6200306d565b6200f6a67fee5f8878d3e19ae6d28a32e566eb71dbe8338c57f71392fd11bafe0ac7022af760001b6200306d565b6200f6e88883815181106200f6b757fe5b60200260200101518884815181106200f6cc57fe5b6020026020010151856200f6df62000d58565b600754620120dc565b8183815181106200f6f557fe5b6020026020010181815250506200f72f7fd2f8ebcf98d8ab9f1f90b01299719e74b7b5dfc2a32fac1b0a7b1a9f7db89df660001b6200306d565b6200f75d7f58c6769df908adace332ead7c6c316a4384d88cd08b2016cab78762408c94c5d60001b6200306d565b828194509450505050935093915050565b60006200f79e7f4cc4289f64fde5e00596da1dfe2534fc428776ed1e0e5ba210bf9cc09342595060001b6200afef565b6200f7cc7fe1a464f393939751aa66dc516e2bf59439934290634824e329570b8a7c1d228360001b6200afef565b6200f7fa7f0fab9b99075fb74af420c6ea4bc8a24f94ced7ceebeeb32562671d8ed11ea19f60001b6200afef565b60006200f80884846200f8f6565b90506200f8387fcca6070759b70b537373f057b017df3c08237a92666dc0d44d1ca5b8115e343560001b6200afef565b6200f8667f4f23e350f503fd2ee4d3e3c3315939bd0452d08c8f957ffed7cb828056de933c60001b6200afef565b60006200f8826200f87a836127106200c683565b6001620046c9565b90506200f8b27fcfbf25f5378d94751ebb618104bfa62bcabc7162413f6d054190d96fad83dc1d60001b6200afef565b6200f8e07f30acbd76b2d8662644c133b562967ac708d402eeb2b45d9ff11b572ecb41dd7960001b6200afef565b6200f8ec8282620046c9565b9250505092915050565b60006200f9267fb4c60d495595d7051d8098367e0de1231ee7e80c066e7cf13cffda8b2df55af460001b62012521565b6200f9547ff917484f913307b5657d4ab3ec7eeadd398ce3e0dc0b8a44c7e18f33908b4d8a60001b62012521565b6200f9827fd9993763574719ccb3d52803699ba2b0c07ae80a8386a1a49f0e3206a06e597560001b62012521565b60008214156200fa27576200f9ba7fee5b6ef8f709ca23d29f28bbbded429a1f46e1b071dd22dcdb36f0169023ce2b60001b62012521565b6200f9e87f2f38ea7e23d14ced68f2c8d26c1a06353fe28a5477d2e90639655786f70aade060001b62012521565b6200fa167fff2a31b9f5f4df515e93cf41490341323353d178b9ded18b88942e772f534c9160001b62012521565b670de0b6b3a76400009050620101b0565b6200fa557f3f9d98aeaf2b384358eb814c674452bf993b71bcde381ab99c62c1e1b7c9cc7560001b62012521565b6200fa837f285385695c1469df8d40544367a3887392a9a19f337755911ff2e833fa25f0d760001b62012521565b6200fab17f8362e6b8144905802616b73f08a4e909eff98018428a360951a787610869496c60001b62012521565b60008314156200fb4f576200fae97f538a78b1a226602ac0c28f23d0a001812cb9266b7a8200275d63a8103c29943960001b62012521565b6200fb177ffc2303ed0447e12f646e5e93c96414156a534c77dca9832e8f173b501fc7079b60001b62012521565b6200fb457f5cdb5f3c19c4fe78c6e0ec9aff7f265f1c49b4418e388de53160770c7ee4fea560001b62012521565b60009050620101b0565b6200fb7d7f402f08c3700a9ba79e37ef8ae3f17460b205cb9aa20cae1ac99e6fd6900f0b2760001b62012521565b6200fbab7f67d21360845b5cb81fd0da81726ef6df96862325ed5681d05dd7834a4866b92060001b62012521565b6200fbd97fd020e8b002604fdc6b25646d7a5467d0fbe85a3ffb626730ed3700bc3067892960001b62012521565b6200fc087f800000000000000000000000000000000000000000000000000000000000000084106006620051a1565b6200fc367f19210e46be6a7a70189454c42052cb399c3738b24219c6df22248489d62d52af60001b62012521565b6200fc647f373d3f9c4e2094eb1aaa97274f961defb62bbe3c79a9e8bae367d092f610845060001b62012521565b60008390506200fc977f745ee1f4dfa91a709ce3c8b8e1f67a866dd27f48aacf05d631a83c8dce558cfe60001b62012521565b6200fcc57fce71d52d68fa278561a2037459d48b7e826e0d5551892a19430d5de1b0e91c0860001b62012521565b6200fd0768056bc75e2d631000007f4000000000000000000000000000000000000000000000000000000000000000816200fcfc57fe5b0484106007620051a1565b6200fd357f11dc92b50edc857f208acce2630b0c81321a8d850c1a983158880a4ef51a062d60001b62012521565b6200fd637f5f106d65f79b95c3498165b29378c228730e8107c79497c7a7ad3aaf12c6971160001b62012521565b60008390506200fd967f6100c7790d38a4f53962a1e9bc064f419c5d1932be74925c1a7781aa5f73483c60001b62012521565b6200fdc47fbf4971f0797695daefdfd0f9aa4478e79ee2d13f1764241f7ce4ac5db5d7cb3f60001b62012521565b60006200fdf47f0c43470e96bf36e53365b61f93bb0896edbe246670a260b1fba7be7f0a1dbec060001b62012521565b6200fe227fd0e38dd54bd0736bb1e741b21b513d786ecef408bb5f9c813c64115912d9b6a660001b62012521565b8267016345785d8a0000670de0b6b3a7640000031280156200fe55575067016345785d8a0000670de0b6b3a76400000183125b156200ff96576200fe897f6e40d061606b0c46da816399be7fe0691cb2204c3c6147bad3d540b1a45e349760001b62012521565b6200feb77fe0aa81b287cb2dfa1c80efceb64ca93aafac727174949af816d6a823f906a84c60001b62012521565b6200fee57f99ecefd114f208cc8ee60459df9c72115af94abdf496f5bd5d533e11f795e55f60001b62012521565b60006200fef28462012524565b90506200ff227f574930d9b5e6e25c2f06b9f74f2c2589779af7b00d042a6a0f5d0e315e9da52360001b62012521565b6200ff507f5174c41d1295ec451a05f7c41b635ecd2659214a71144e4a8bd7b062bf19a4f560001b62012521565b670de0b6b3a764000083670de0b6b3a764000083816200ff6c57fe5b0702816200ff7657fe5b0583670de0b6b3a764000083816200ff8a57fe5b05020191505062010030565b6200ffc47f6bf9892d0971979a63f6208a420e6f24ac858c86369268e25c26871b4db4f0d160001b62012521565b6200fff27f1bbdb1dc34afe49b3d15b1db75fa7497ac29590b4f800b5b96a07a46479553e160001b62012521565b620100207f6b7db22b1943d81c0d8484154752d09e11866a862933253cb3effb91596c857560001b62012521565b816201002c8462012e3f565b0290505b6201005e7ff5307d01450754d11b6999a6f15f6940605ea263d8d1a4d2677c5d4cd16b9e8860001b62012521565b6201008c7f5da3025494ecf25168477a05baf7b9878a21c4c8e96c18e3b6d1ddba3b4d260560001b62012521565b670de0b6b3a764000081816201009e57fe5b059050620100cf7f57cc0c34b883c0764df0f16c3418c3160b70e73ff7ed2363638c77cc780edd3860001b62012521565b620100fd7fa7e92dc2b3da2e2407ab43ecd25882ebcffa5fbdcd60123e73d98f20cc63c09260001b62012521565b62010143817ffffffffffffffffffffffffffffffffffffffffffffffffdc702bd3a30fc0000131580156201013b575068070c1cc73b00c800008213155b6008620051a1565b620101717f1fc08f08b4ee48ce0f7ad30806166097c215655d6e1cd60c08bd784612d9b01260001b62012521565b6201019f7f4bb8f0ccf8323c048a3352be5af0559be12691807755568ad9369d233b27b0d060001b62012521565b620101aa8162014c9d565b93505050505b92915050565b50565b6000620101e97f08b5ba32bdfde5a4787ca4bc358fa249d9c75980e2bbbeed00d548e4c62ddf5260001b6200aff2565b620102177f97779bf504025e78fb7ac46ac32be2a0f087b0a9d7c459512b0af4ad82be5a1a60001b6200aff2565b620102457ff9ec92b71b5bc51509046723000be9f2c1e8a0bb9507f1adb5e18c6f47bb82bc60001b6200aff2565b8183101562010255578162010257565b825b905092915050565b600080620102907f5660d317ff9cd0a98f03329b371a3de39149404c1dbebf7d923fcdf0618ac21560001b620101b6565b620102be7f20db64787035b383dd639b39b620e1e81bcaf4d0f8bc7174f37246a298fabe0f60001b620101b6565b620102ec7fcf1f5d64bd685328d4ec3f9ee19a27c3b10533b339992cd03680d5f4ca82329560001b620101b6565b82806020019051810190620103029190620175fc565b9091508092508193505050915091565b6000620103427fe06e484eeb5c79c6e06d9ad5cf999080887fea859946f93be4e450c8052b1c5760001b62004466565b620103707f18a63404600f485a92811efe2e02e6cfdd7b4bac7ce17b1be14087f32ac6900d60001b62004466565b6201039e7f3477e7128453ff8d061dd3e72007a63416389a4ed847db4c62d45633f944d0a360001b62004466565b6000620103c984620103ba87876200b76390919063ffffffff16565b6200dab390919063ffffffff16565b9050620103f97fc47950ba7b58c185ca305295d36dc5fe65550fad1b1eb3a3915677aec1ce712460001b62004466565b620104277fefd4c3824e2e5d0d79d55b62107caf8822a4e88ace48bc1880a2f2a61c9b204760001b62004466565b620104406709b6e64a8ec60000821015610132620051a1565b6201046e7fcdeb782ae038f285dd06ec54e4bb03bf4f6cdffd1b4686ec535ca48eb2e6619660001b62004466565b6201049c7ff6dbab39cf2ef230d182e4d2b40cb39d9f079f0afad08a1617be80b630a2940260001b62004466565b6000620104cf620104bf88670de0b6b3a76400006200669e90919063ffffffff16565b836200f76e90919063ffffffff16565b9050620104ff7f245bfce37b7250dba5cefe20707424d0ba0b5287a3672cb0ec5506dfb3b1c3cf60001b62004466565b6201052d7f86c77296ce2811a5e658c00b590e722974270ddcfde88ceb7f20bb4d6e0d1adf60001b62004466565b60006201054e6201053e836200d9fc565b8a6200e08990919063ffffffff16565b90506201057e7f6ece5a5cb0d1fee826cd9de737c5200bf2df2adbf21474be9b5c6f64a8aa733060001b62004466565b620105ac7fc017acf2c8328f1c383f0660329530859f027fa9659024c24d7f0342db4ae2e760001b62004466565b6000620105b9896200d9fc565b9050620105e97f3778a910da2bdb7c42a6ad77bfd1ecc90036b5aaa44a46502d6ec4fec37caf0d60001b62004466565b620106177fa8334acd852b98e3177e2b1dd174326ce674e75b53bc9c13a53a50a8da959ed960001b62004466565b60006201062e82846200c68390919063ffffffff16565b90506201065e7f3c901a401ce47284ceaddcacca42a98eacc7427b0263fa2dbb7b84bd74cd8c1560001b62004466565b6201068c7ff5e5d71a6d7f713568a9dca19ba446d52f88da66e7dc4e6a003eadc70d24c8fe60001b62004466565b6000620106a382856200b76390919063ffffffff16565b9050620106d37f6d77f0934c8628ab5f68f95b6eb23f141296c68f96b4bbf11af20d149491ec5b60001b62004466565b620107017f26ea69b076dc025d08bacbd91400611ef9b1f24fca306a80964be16de41fca1260001b62004466565b6201073462010724620107148a6200d9fc565b846200e08990919063ffffffff16565b82620046c990919063ffffffff16565b965050505050505095945050505050565b6000620107757fee2c96a5a90bc18a7cec8c78dae87d7af3068f09642e2e0b801c639111d3dc4660001b620101b6565b620107a37f78c5fadb34830cae57a985a1a3fea13e3728694b723f496c7450d1a2f720f7f460001b620101b6565b620107d17f8a32d50546fee78642eff1848549476b1ebe03a24d9d32f3307cf47e22b37bda60001b620101b6565b81806020019051810190620107e79190620175bb565b905080915050919050565b6060620108227fb1e807b937c4dd813688b9ae979ed0815a7134bf2159d29721ba42d2457f803160001b62004466565b620108507fc3602c4ba635ff7b82e3c5e5cf3b6ac796783f4fc34d592ce0ab48a4e93d4d4160001b62004466565b6201087e7f3b5c85e1390e46b9bd89c98ea781ddbb6dae6deaca3276a8fa5ad2586986f30660001b62004466565b60006201089583856200669e90919063ffffffff16565b9050620108c57f1c01d97612dc100747054fa24716dee87b9bec5263f3a93620697305fbfe73de60001b62004466565b620108f37f7ccca8a5ef8eb6f71681f0ae5317a70c3632e04562218899f8ae3cbee7bc179d60001b62004466565b6060855167ffffffffffffffff811180156201090e57600080fd5b506040519080825280602002602001820160405280156201093e5781602001602082028036833780820191505090505b5090506201096f7f9a71a7f03e378886d322b8dbf87dce13db2598062cd5a81215909786c8a6d28060001b62004466565b6201099d7f6251578eb30d135fd749d8eb1b460cfab573d19652c0632b8bc8ca9972dad99f60001b62004466565b60005b865181101562010a5657620109d87fbd1597c36164e620de88022ac701e9902ff73a4c6ee7fcf1320802d35cc8547f60001b62004466565b62010a067f2a4b25d64e1c9bf9dd076d01f0b48dbf9cd2d654ef245c23d0cc7d618427897160001b62004466565b62010a2f8388838151811062010a1857fe5b60200260200101516200e08990919063ffffffff16565b82828151811062010a3c57fe5b6020026020010181815250508080600101915050620109a0565b5062010a857f80b9550fcd87ce146599774e271b365142d75fb873404e906cd5c349645139db60001b62004466565b62010ab37f7de3aac440af5dc816518c87acdf006c12d371af4804bba8f0f511c7445828c360001b62004466565b80925050509392505050565b6060600062010af17f9eb4b7bc65f0400bef391bd1abb353dcd5b9aa8f726643e7ffdef7eb3d8802b260001b620101b6565b62010b1f7f1b3f14a4c5758251417af5ec68a05a7594bc6be4e41ccabfbe764358eed03c4e60001b620101b6565b62010b4d7fce93f7e0064b42e2031034110a5f67bd30442578eb63b8ab1ae94741e292ebc760001b620101b6565b8280602001905181019062010b6391906201754c565b9091508092508193505050915091565b600062010ba37f31cc299040d7b474bb8783a4aeaa9a01dd89ae0686f43e59c0e85887edcbbc8060001b62004466565b62010bd17f161ffa5f94a10c8fc5ccfa2ebf37365b8f8690202dde030eee6d6effdcb6bdd560001b62004466565b62010bff7f292d441df589c0df12e5af58981b26aaa4fe6462f8d309fdfe443b32e60d49cc60001b62004466565b6060845167ffffffffffffffff8111801562010c1a57600080fd5b5060405190808252806020026020018201604052801562010c4a5781602001602082028036833780820191505090505b50905062010c7b7f5cccd19898cbfa7acbd419bdc6179102fd7e7f526dc01f7dc1bf9f779d7827b160001b62004466565b62010ca97f1e00cee02766603a0c8f23f299390064b367bc85be100de5b8342eb2bfcfb55060001b62004466565b600062010cd97f3e510dcb332cefa337280b5f2d15332315b7f93b1aab4530f5e13327b8605bfc60001b62004466565b62010d077f36559985bc5f23049c4aef72a551df9b3f229a7e56fe927024acd0de0699a45460001b62004466565b60005b885181101562010eab5762010d427fe4900bb0371ebdcd1dd51094299547f2e4242cfed4780b41a6cdb35fdd17c1d460001b62004466565b62010d707f8230b86d9b4876d06ebad978e9124e8a1b76c1aeedf1eadb87ede215650da37360001b62004466565b62010dd589828151811062010d8157fe5b602002602001015162010dc689848151811062010d9a57fe5b60200260200101518c858151811062010daf57fe5b60200260200101516200b76390919063ffffffff16565b6200dab390919063ffffffff16565b83828151811062010de257fe5b60200260200101818152505062010e1c7f0c45792d95471237f09e241a7c3d1498f728ed41635c114a007de4bea0aca1ad60001b62004466565b62010e4a7f219e6d68455518109538132874e3f7167da53222e5266b86763b5e52709b27e860001b62004466565b62010e9b62010e8b89838151811062010e5f57fe5b602002602001015185848151811062010e7457fe5b60200260200101516200c68390919063ffffffff16565b83620046c990919063ffffffff16565b9150808060010191505062010d0a565b5062010eda7f1940e2bee68c62f6b8518b171762807c5e90cb39536b6891dbcef2da208c51e360001b62004466565b62010f087f847aa1be8732517e4d2d20f68e47f58d1a27711f747dba6d35b50343e2aac63260001b62004466565b6000670de0b6b3a7640000905062010f437f984df5bbc5d32bbe51e4e4681404f20eeaff0c50e9b530de786ee2afb541614660001b62004466565b62010f717fbde24a06ddedd521876f3e54f33199ea4ff3323678e52d420f3ceab803259f2f60001b62004466565b60005b8951811015620114365762010fac7f127349182e2c677ab14d2715ada87bf22649c2d10ace2edf416bd264c46fcae260001b62004466565b62010fda7f8d60aba3b483638531e3fc39ee886465ad72d560a8f6f9e844c1ea0d69d45fc760001b62004466565b60006201100a7f27e2c124e4e3a25f77a317d7c3f8066194f04f57de273f80c135ad65d9fa5aa260001b62004466565b620110387f38a3ba603eede6f0178760180a61d2776ffe7f1eae093484be1dbad3b62ca54060001b62004466565b8482815181106201104557fe5b60200260200101518411156201123857620110837f99da50d627dab730c3c4913802523a8742b0851fee0758a53ab571303af21f5a60001b62004466565b620110b17f423e60e98eb255e64c922aefdd04a119fdc1dcefe5c8099b6e42c677571099c460001b62004466565b620110df7f0b4155c8dbc57c2f974738c1bb0e420fc41b5604b907734a53a79b9d99e568d660001b62004466565b600062011114620110f0866200d9fc565b8d8581518110620110fd57fe5b60200260200101516200e08990919063ffffffff16565b9050620111447f395a789fee3d89bbca3e4ad3a7bb46ff5a9a274d78228037322b479ed36cb12e60001b62004466565b620111727fd8ce3840be7f8f128d69f2a47c19a06d475b0d9b64e2ac8545ca95e200a3aee960001b62004466565b60006201119d828c86815181106201118657fe5b60200260200101516200b76390919063ffffffff16565b9050620111cd7f391db81ee2982c010ab413b2e59d79430e85378afacce1c637f356736b2f3b6460001b62004466565b620111fb7fa7333209b0e83225b22c485894174847a01341a0226a81399398f37968326d6d60001b62004466565b6201122e6201121e6201120e8b6200d9fc565b836200dab390919063ffffffff16565b83620046c990919063ffffffff16565b92505050620112da565b620112667f4346a5937ded14cf2547fc54b10fab82a5d29fdfc2f887b245a5045bc4866bd260001b62004466565b620112947f0cb1c437f5acb1ad3badae4dc0e57bbff34672ca0351e36e70c80c4d104b77d160001b62004466565b620112c27fa9ce00cfb70022264edd0e04a5918ec42e703af69a8d8b069b2aadfd86f5f47c60001b62004466565b888281518110620112cf57fe5b602002602001015190505b620113087f563481dce85b013b842ebf20b905b030e26bc3f2cc98e60d607dfa492e64e81060001b62004466565b620113367f2ea91a973f55f1304942c70cdedf54b29176476da767bbb550e4bbef0847c57f60001b62004466565b6000620113898c84815181106201134957fe5b60200260200101516201137a848f87815181106201136357fe5b60200260200101516200b76390919063ffffffff16565b6200669e90919063ffffffff16565b9050620113b97ffadc4101eba1df74f1f3b98b50b69588506bae3482f1574cbbdd197e022f1b4660001b62004466565b620113e77f66bc382b0f1becc5edef409d01d177420ff2267bfc6f80e279c4c65d7e51ae3160001b62004466565b62011424620114148c8581518110620113fc57fe5b6020026020010151836200ddd790919063ffffffff16565b856200e08990919063ffffffff16565b93505050808060010191505062010f74565b50620114657fa57a0b76652fa161e73054b12e368ef72e7619fc9b5805091c80efa4b988bec960001b62004466565b620114937f9a2b434f9fb3c26e5625755377fbfa756957c736bce4f5bde1286d1c52ef5c4560001b62004466565b620114b2620114a2826200d9fc565b876200c68390919063ffffffff16565b935050505095945050505050565b60606000620114f27faf142c0b4ea1b85e0b92f4b8a8e9e210a89c67f2964ef0b26fd3ce1fe742444e60001b620101b6565b620115207f5fd0566b8f07d531d5bbd67749f54c170020c7390a93e328ffe8a4667ae6c5e860001b620101b6565b6201154e7fd43ab545278e301bef3fa7973f31a95ebd21d868c6fc049f33083780da0e423d60001b620101b6565b82806020019051810190620115649190620176d8565b9091508092508193505050915091565b6000620115a47f7eb9be3c1534081788cc24d299e8b65cf67c8ade5418b5d08780467b3959d26660001b62004466565b620115d27fc4a0d7b2b3288598e1b3010fcf1bad85d12b21c7be855c3288f75e9888aeeda660001b62004466565b620116007f746f34b045b4eee1952ba65eb6b7f85eeaec6a738464956514c86495d81e145560001b62004466565b6060845167ffffffffffffffff811180156201161b57600080fd5b506040519080825280602002602001820160405280156201164b5781602001602082028036833780820191505090505b5090506201167c7f77ed2efdb94174a5627de4610477ea355e09d7b40b47a00a3f8d78037ad82cad60001b62004466565b620116aa7f524291cb3aa2185f77a72ba059f32492afc542a90f0d70811738de33b02ec45160001b62004466565b6000620116da7fd52bb03ecfdf89ef30ec80f5571a7255a6a6f388554155defc30cf118add3e3560001b62004466565b620117087f11f0141f13718f4307ff5d059ce12fa8e2900b34697f0ff0bfa32dc818c4d0fb60001b62004466565b60005b8851811015620118ac57620117437fb95f1908637ede6e496a928f650d7bfde76d8b9f0609d2cdab9324a3fb7e075260001b62004466565b620117717ffdd694f8839df810538d236e2cc8051c3e86a2cc7fa3b3e9e99024a023db8a1060001b62004466565b620117d68982815181106201178257fe5b6020026020010151620117c78984815181106201179b57fe5b60200260200101518c8581518110620117b057fe5b6020026020010151620046c990919063ffffffff16565b6200669e90919063ffffffff16565b838281518110620117e357fe5b6020026020010181815250506201181d7fb8fae5f52a9da845ef9e702f91fd178efd45858f5f129092cfc9d2bfef12eadb60001b62004466565b6201184b7f1000c20627c864669510f0543da247225c6760588ed4a20de1dd713330b1f9ed60001b62004466565b6201189c6201188c8983815181106201186057fe5b60200260200101518584815181106201187557fe5b60200260200101516200e08990919063ffffffff16565b83620046c990919063ffffffff16565b915080806001019150506201170b565b50620118db7f1e246118b770fc8deaa46553538c4106b900e9e35befde1cebbca8fd35e607da60001b62004466565b620119097fea523fcc9a54e6904975463260c03a5915f403e1c903420fc51eb2a8f296379060001b62004466565b6000670de0b6b3a76400009050620119447f4db2ca3b50f2cf711bc902a68418ba52d9ded67014141625e55a68469c4d3f9460001b62004466565b620119727fd742a34c38d89717c19ce496c1d583341af849111afc540cd935c43e9b87175d60001b62004466565b60005b895181101562011e5b57620119ad7f769c4601ae768b4a3ca3ebdb1361abb85302adf196e78a8303f940d91bb1c5e660001b62004466565b620119db7fc763b1b996af29e3bbb536213317f511487247a0cfeb920fcb84119db33636bb60001b62004466565b600062011a0b7f4521cc2292d0922c18aaa0b835b8f5c71b138d83f29c5f86e96dfbb44d5c1c1a60001b62004466565b62011a397fec3fea5db72b609c048b10fd0f83577c41fb08f4385f66e6f085d443c097ca7860001b62004466565b8385838151811062011a4757fe5b6020026020010151111562011c5d5762011a847f91546f39259a63905e59d0dfe2df949a5bf83cff7fe262d53b53b86c961d59ba60001b62004466565b62011ab27f80538aff9299e168f126f52eae706f3d09bf4a379c131ba2a0fb2e82647e930f60001b62004466565b62011ae07f48d8da206e9aaf4c340628f6cf04e43396252c3d04a9325ea8047e8ae72912f560001b62004466565b600062011b2762011b03670de0b6b3a7640000876200b76390919063ffffffff16565b8d858151811062011b1057fe5b60200260200101516200e08990919063ffffffff16565b905062011b577fc0ca01b1c9f1e21c1c9988b5dd6d8d21f70f42d4e734c8d809528c3fc6d7556660001b62004466565b62011b857ff762c1af6493e002f57f5a23bdbdb5abb749daa1f7d1e8bce80d5179f83f37e960001b62004466565b600062011bb0828c868151811062011b9957fe5b60200260200101516200b76390919063ffffffff16565b905062011be07fb327a2f3d78dfe765dd8f56482c48861af8c7b66008d2673c686d5d4f212be7560001b62004466565b62011c0e7fec33de8fb0617e88aff720d2a4abb546c8558ac64c4c1b3d371e5b5551c858bb60001b62004466565b62011c5362011c4362011c338b670de0b6b3a76400006200b76390919063ffffffff16565b836200e08990919063ffffffff16565b83620046c990919063ffffffff16565b9250505062011cff565b62011c8b7fe8945ea4ee4cb57625e7f294db852988a8b208382f1f431e410dba74d5a256dd60001b62004466565b62011cb97fcd8584ab6198363be540597e27d7e5395b6fb4e53e928bfd16219460e1e7c38260001b62004466565b62011ce77f2ce0a9f7f953732e5649f671bcb6bdb0d65bbb4165cbf48c9133731bf09e583360001b62004466565b88828151811062011cf457fe5b602002602001015190505b62011d2d7f4b5af8a794df96513bfb65d0599b4e5a7caa392552e532631d26d52eef15be3960001b62004466565b62011d5b7fbade6d213b27b82270c7f995ddc99ce238a443edc783b82aba640a5a8b3409b360001b62004466565b600062011dae8c848151811062011d6e57fe5b602002602001015162011d9f848f878151811062011d8857fe5b6020026020010151620046c990919063ffffffff16565b6200669e90919063ffffffff16565b905062011dde7f7cc4af574a5ece999d29b9d1fa76c04ba9bf9c596dabb8a1c0c7a52cf4ece8c160001b62004466565b62011e0c7f70472885f0feb73bd27e516038551b912df1e88992d9d89b6f52f0ad88cf7bda60001b62004466565b62011e4962011e398c858151811062011e2157fe5b6020026020010151836200ddd790919063ffffffff16565b856200e08990919063ffffffff16565b93505050808060010191505062011975565b5062011e8a7fac8ce77947f7137c79f708db9ecc7df6754568c16424dbed31494b29fbd16c2260001b62004466565b62011eb87f29e28796a8c268224079eae95086d8139d313ee0725c958c1b071ce8aa37b80c60001b62004466565b670de0b6b3a7640000811062011f8e5762011ef67fb849567bd95bdd285e8ffe2243499e2febeec17a598d36d57f073a6ec2e50ab660001b62004466565b62011f247fd40392c8bcafabcde511ff960b8745d7ecbfd874f63e76a49d5ee516044bc83e60001b62004466565b62011f527feb66fb9605f368bc86017a5e6c85b2c3b2f1fdeffc8ca16da469ed30c76e9ddb60001b62004466565b62011f8362011f73670de0b6b3a7640000836200b76390919063ffffffff16565b876200e08990919063ffffffff16565b935050505062012020565b62011fbc7f43895df9fa30e7fa67c1ba19cb1b713c7a66926996207499fb6bd20bb5c7c37a60001b62004466565b62011fea7f24c1ca4f25a9c930aebdb6973732cfd2e0c3b4af82870157b9fa613d201fbbdc60001b62004466565b620120187fd9ee1bfd9b773abe56035addebedf868504a4b936aa6d176e6d3d37f356d849260001b62004466565b600093505050505b95945050505050565b6000806201205a7f6eda586d4df8c99414314e0fae2856105e9f667817c81738d30de2160b29c32e60001b620101b6565b620120887f6d9e017b36124da3fd4fd2ffdb8523a11ddefca96df4a2642a1c0431ef2d542e60001b620101b6565b620120b67f3ef2860f565e7521e770d889fec35c98235802a26873f2104ff9a4178c16529860001b620101b6565b82806020019051810190620120cc919062017747565b9091508092508193505050915091565b60006201210c7f23c65b1b43196175e7ddd79740a316a023b4e4a3609d2bc45dc5ca137076da9e60001b62004466565b6201213a7f11ef2df284fe68ec6637c0d3a6a0dae6baef5cf4e55a5819cca7b15d73777e1e60001b62004466565b620121687fbae82b361e0fd07fecd58fac5fdb6e03db707d2509f0fe7552493de1c1245f9260001b62004466565b60006201219384620121848787620046c990919063ffffffff16565b6200dab390919063ffffffff16565b9050620121c37f13cbf42c80a1969adc3e5267c99c73229bd97b745c2ac869f2c5adcf63f6397d60001b62004466565b620121f17fc25c5650afdfc0149e6bc866de7c51bde773576f1ae55c2e3e4755b2b22015c160001b62004466565b6201220a6729a2241af62c0000821115610133620051a1565b620122387f220406622f9877873c5fd2ed240ce4e5e81446902ade6a0d200e16b544366a2e60001b62004466565b620122667fd41ebb31e0888cba1a2d3fae452b7f929d37340dce9ca2fb5001d0398bf4a6df60001b62004466565b6000620122996201228988670de0b6b3a76400006200dab390919063ffffffff16565b836200f76e90919063ffffffff16565b9050620122c97f23a9eab2b2f1eca942cfe918bbdf1b6db31b14a1bec8c5afd5731d5cdba8831f60001b62004466565b620122f77f1a4b88ac58e995db9c96c109d30eee1cddd584fffe078ab10e2b8503839ad5d160001b62004466565b60006201232a6201231a670de0b6b3a7640000846200b76390919063ffffffff16565b8a6200c68390919063ffffffff16565b90506201235a7f6d52f474333d1eaf81d6b83a6c41ff9fdaa225fbd44bff2165e1d083026bcff560001b62004466565b620123887fdfb9a766109de01c0e0ebec7393949c225eed9b09907fd74431f973356b6fb6260001b62004466565b600062012395896200d9fc565b9050620123c57f3baf06c00dd6a0c4f6f9a81bd5f0b94984fb49c45bf74d1337b019d429ef797460001b62004466565b620123f37f4a7f97d579feca9fb8e91074d37ffff93c1c033b653ae2f45de0a6bfe916010260001b62004466565b60006201240a82846200c68390919063ffffffff16565b90506201243a7f33a286dc4d46f09950249627b9c7d86c925e3fa55d929ef4316ee677e909552d60001b62004466565b620124687f7ea2f92392ff4c53693f0bea53717a1f1b0c442a179aaa9da80e4d25c7cd2a9b60001b62004466565b60006201247f82856200b76390919063ffffffff16565b9050620124af7fad319cf3cb330ae97d03c6d12234cc6ff090b3962f4d031022fbf0a54eef9f0d60001b62004466565b620124dd7fe4d8292d428467e67bf66d3dd34b7b9eb5c0d9839fb696148f2305532962d55760001b62004466565b6201251062012500620124f08a6200d9fc565b846200dab390919063ffffffff16565b82620046c990919063ffffffff16565b965050505050505095945050505050565b50565b6000620125547fafad475bb9484dc1fd4e5b0ade9ae77d8d3f4374a1d7ed3cb8ed01d66064779d60001b62012521565b620125827f031e05fee9e49ea9b35db640634f62d5ae8d789a9b00ceeef3e71de967e2d5e060001b62012521565b620125b07f23e17eef26db05186da272b7053ac848f6af2a19ac06f64cf23a971483327e3e60001b62012521565b670de0b6b3a764000082029150620125eb7f5752269231d7207870d49a120ac51391a46ee6cca6f7fc08bde989b0d1ab986460001b62012521565b620126197f31bb4605982d03d671f012c1710f6e3d3550f931186583070c565e112fa2f0b960001b62012521565b60006ec097ce7bc90715b34b9f100000000083016ec097ce7bc90715b34b9f100000000080850302816201264957fe5b0590506201267a7f833201f825ec9dbe3ea77cd20a272f47911676af570f953e1b63a6cdb627d40360001b62012521565b620126a87f32cfb75f0ff917d3887301975ad099f8e8cb9605c21447b1e4e06bc5cbf69f6e60001b62012521565b60006ec097ce7bc90715b34b9f100000000082830281620126c557fe5b059050620126f67f5262ad7374e69c862038705c852dbcd9a375ac7b77b81626dd85ef3bc777c8ba60001b62012521565b620127247f814b893dec74f384cdc4ffe2e91849bfe5373d8e965b0e5516a5bda52889559f60001b62012521565b6000829050620127577f0578431d2704ffe9ad7fb07b78c670e53e0c4c85f46f554a12e4af69ffd8a60c60001b62012521565b620127857f5b497994a9114fb09ab4490f0482e2cd57ba6252595357738c52b4dbcf610da160001b62012521565b6000819050620127b87f6e5b5cf3104a14c38940ba6bc5d534ecc8ffd4749f486b65ecd81f623c2f3ee760001b62012521565b620127e67fd2bc5c26d500ac606abc5b229aae0a994ce547e4b0cb499fe22410fb0626721460001b62012521565b6ec097ce7bc90715b34b9f1000000000838302816201280157fe5b059150620128327f6b1d205a6375704a28ed95217bd697c1775c8c59b8a3f065720259fe133fa0ee60001b62012521565b620128607fb76b7ee84c379bd0981bbbcd218400913abe0a3bae29d77284ee9a0cd47ee34260001b62012521565b600382816201286b57fe5b05810190506201289e7fd17a6e196dc831a8c5818adf6e5de25ffe1bb186b988d0e5a93791c040bbc5ce60001b62012521565b620128cc7f87dec2e16a0f0b4a99197fd8862a1e58da443b65a9358cac988fd9986c513e4d60001b62012521565b6ec097ce7bc90715b34b9f100000000083830281620128e757fe5b059150620129187f497c66fd18cddd1edbdd663cf65697d926bf4b6b202abb5caf58c8e4f051e33260001b62012521565b620129467fda27ba2d015ea8075dbb2b6926438b22f84133b8f0bf78513b1edf4a258e9f3760001b62012521565b600582816201295157fe5b0581019050620129847fe2fb1b5df927df9440cfd455d46a4204c48d3ad6ff3228dd000db2cad7f5cc0660001b62012521565b620129b27fe8af9739626a66be09fc26dc9203eb0d8cd6cf8a7dba0887a39e991cf5b78faf60001b62012521565b6ec097ce7bc90715b34b9f100000000083830281620129cd57fe5b059150620129fe7f1d2478f6bc640e0988b0185bf45bc2446e7569d05ef50b75bd9fd46b2cc3bffe60001b62012521565b62012a2c7f190f9c9a243682a8039638cae963f3e8d3e21e066e69fc24076dbe78a6c2d04660001b62012521565b6007828162012a3757fe5b058101905062012a6a7fe3ef508b3c980059a2ac866f30a69cd5d5caaf518d012f26b857bd26916822cc60001b62012521565b62012a987ffc98cd02c211181ab2a38e03eda7c39f50c9ee3fd49bde86a518fb132461897860001b62012521565b6ec097ce7bc90715b34b9f10000000008383028162012ab357fe5b05915062012ae47ff4b4d260d3dbe9bf6de0f129a91683f88b9d44e25798db05de253ea3779fa60d60001b62012521565b62012b127fd3236a68c5b379154ac60efeb89e514db4db2f76c23a6994a980dc2601fc318060001b62012521565b6009828162012b1d57fe5b058101905062012b507fd204e544020feada4b05a8d1ccdbf5c4c33aa2654f76977adfdc750d9dc5a3a160001b62012521565b62012b7e7f8064ddd04bdc1de318dc25362c5e30e08af518128db829fa1adc14430e30b53060001b62012521565b6ec097ce7bc90715b34b9f10000000008383028162012b9957fe5b05915062012bca7f301445f58664fa4fbac2352a1521f719ea4787b63a1582747831d848dae7313560001b62012521565b62012bf87ff41fb0d5d5d8201d1d56087eeb570cb7697800fc787e15a53624b92f1c44c9d160001b62012521565b600b828162012c0357fe5b058101905062012c367ffff9bb0c690db875f9c0a83eb2bd74b233801209615f71003868a848005fde6360001b62012521565b62012c647f9f355ac08862d8d248da9930374240c93301690cc2df63147fffeaf4f9525dd760001b62012521565b6ec097ce7bc90715b34b9f10000000008383028162012c7f57fe5b05915062012cb07f2224481d9e6c9bc867452e63cb0ac2c3b90f6cee6a27b5ba18097d30d4a3062b60001b62012521565b62012cde7f9af27505bb36cabaf6f21414ace7ccbd2f404fd0034ccea77c9c5242972ecab560001b62012521565b600d828162012ce957fe5b058101905062012d1c7f5ba30ad8663a3844cb7eeecf5bca0665b8b344aaf43495a9e6bac8f6a94cbb9460001b62012521565b62012d4a7ff700d16fbb686e4395754bbf15bea0b3328f413226a7736bdf223ecfcbab5e0260001b62012521565b6ec097ce7bc90715b34b9f10000000008383028162012d6557fe5b05915062012d967feb6e11531698cffa3af6fa0a98d7104f7a78094e845fb298a536d611092d8dcb60001b62012521565b62012dc47f6cc23dd5f97530be1458c9dfa2abe52d64ac4acc8dc4bc6913a5f388f8ba959b60001b62012521565b600f828162012dcf57fe5b058101905062012e027fe7ccb0a12fa031a0a94896d3e65aa142f5894c896d67a5491db6839213832d3960001b62012521565b62012e307fb0b596d060d7744021776e57e0c4ce81c61eb23d61a17e87e0acd84f0654f1d260001b62012521565b60028102945050505050919050565b600062012e6f7f2a0e4707fd37a2afd7a8622a8b8288c83462728dd05f2553df0680d7a6320b4560001b62012521565b62012e9d7f1b7f6d72cd142cb5c98d0dedc604a45de085120e8d78c6e59114dca025f3c19260001b62012521565b62012ecb7fd6f2473eb4eef7b00d1de8a833714b900c307fc4b3db23671f0138d2f06bb4c660001b62012521565b670de0b6b3a764000082121562012f905762012f0a7f6fb39aa5e0de2d432f2ea710235cf2abdacc0d1dd65d625031d098392f9ed6b460001b62012521565b62012f387f80d98144bd28bb593271a0957b6b785ee715cedba93a349b3415ddee4ff8a18d60001b62012521565b62012f667fcb1764bc9a85caa655591bfb618e0b29cfd97f20b909ef5f0aeb708a52458ac960001b62012521565b62012f8582670de0b6b3a764000080028162012f7e57fe5b0562012e3f565b600003905062014c98565b62012fbe7f5f795f796e34e48dbffe0e75962a006b6b8dee49c7959e5bf378a7418b7011af60001b62012521565b62012fec7f5163edfb7d5bde2b97eb7674a803d6d16fb9ea60ca35a0c1c540ade7b9f1ec5660001b62012521565b6201301a7f061fa7b7a49b4960801efec85da6208c9a85886c1d6658be0d43a666dd1f37ce60001b62012521565b6000620130497e071535dbc1bc6eed51b6ff932dd14cebd1fee562798e1756b2a2217221881060001b62012521565b620130777f7909265c00215cf44ef659f60993e3ac535c6624133f2329f959282e5cf4720e60001b62012521565b670de0b6b3a7640000770195e54c5dd42177f53a27172fa9ec630262827000000000028312620131c057620130cf7f9eeff1bf1d7eb9bf6a862e29041c211045e50a9409090f8c6e76490d92209c8e60001b62012521565b620130fd7ff78b4b0b27c2baa6289e8c04ac6b732c76980b96221b0f5b504863ff297a7e6760001b62012521565b6201312b7fb92666a167e928646dbadb1c11387ce18eccaa72216e66e7980ff21a39b4a0c460001b62012521565b770195e54c5dd42177f53a27172fa9ec63026282700000000083816201314d57fe5b0592506201317e7f9a28df60dcd3683c29ae4d4c8433e31b1e186e2b19b9dc31abb5668e999e130360001b62012521565b620131ac7f2349d251de36950693d8dc7fe3e89e22f4faa3facbc573713e36b3c1076bb6b160001b62012521565b6806f05b59d3b200000081019050620131ef565b620131ee7f5f868f32c1b183566d4fd477eeaa200fb7c0ac420213f8ab31d4a5a2ed804bbe60001b62012521565b5b6201321d7f655d7719e6baab47a0409df7b7b8bae3eb3aeefa1c578e68daa5b30c9ed99e3060001b62012521565b6201324b7fba2e333c2a2c02398997088d511c39dc1e9f2fffff60bf1081691ff02b4ccfde60001b62012521565b670de0b6b3a76400006b1425982cf597cd205cef73800283126201337c57620132977f63d33fe4b6f6a3c71e6f29ae1d261b680fd6728d0077b1c0ef7d9315a424f98060001b62012521565b620132c57fb0e8ad89b3655932a3524a3757970351a74e4b55c591ed66078f069debd8d16e60001b62012521565b620132f37f0ef7c12e03a2e291fe14ef2214a6b3fcc320d8f535fb4ea99e5497408efd973360001b62012521565b6b1425982cf597cd205cef738083816201330957fe5b0592506201333a7fe0ecf868ee95734317a4c2cfa87355cb850f0b165a583d9fd6a006f20ec5462e60001b62012521565b620133687fb70f96a1f394bb2f6372bdfe228612c5b83eb7bd561b671ad7cf8ae8e148333c60001b62012521565b6803782dace9d900000081019050620133ab565b620133aa7f73ca4c73fe2aa4d27e5a189578ebbea10f70a657f99e31130e86dba045a4fd4160001b62012521565b5b620133d97f9fcb87c0be548e7851afeaab469990149ce57255e66dcb2a706db5a084bcce9960001b62012521565b620134077f4a1376489944ca0b521dea4175ed59678c7efeb09f16827cbf218c4eddce71d460001b62012521565b6064810290506201343b7fef1d9a7c37f8a36d71b46a6edda0e4a3363b95743da06d32ab4f32e3009eb72f60001b62012521565b620134697f89debf19aa927a767ef509100e58ecd5906978a73fbebccebf581b8e26a6638660001b62012521565b6064830292506201349d7f0bdd1b09853face3d8b70ea65bd067179115695135e2ecf69891ca3483b4a0fc60001b62012521565b620134cb7fe84736814461598a4e42a3b2342c00e67b8d4c5b18f055163edb2fa75f2349eb60001b62012521565b6e01855144814a7ff805980ff008400083126201360357620135107f67c3758e91595791b9150fc6a89a29627d1c992c2e4e70db244aeb0679d95b9960001b62012521565b6201353e7fd0bc08e158bfb2255c90a5ff951e6eea2d8a26f3864b358a83c1471d451a4ea560001b62012521565b6201356c7fdb9ef2d3cd566ef078f073dede74b4b38f19988bd40236e79b59ce8529e1736f60001b62012521565b6e01855144814a7ff805980ff008400068056bc75e2d631000008402816201359057fe5b059250620135c17f08c724e21b52dc4806f198ffc8456fc6d4bb18ceb52c9ebb5a2ee48ee524154460001b62012521565b620135ef7f7a6d26930463dc0b85337ed47cb609dc54834121d9ae4c44690da285c4b2434660001b62012521565b68ad78ebc5ac620000008101905062013632565b620136317fd8da6a7e72c78cbb49231b424f03ab3a41e3788ec9b0ffe3502d0833169c1c3760001b62012521565b5b620136607f6389e56c956e82fc9ffca8a47e11c4becd7c0a23beab4f91c5401966c9f6854b60001b62012521565b6201368e7f8a2d4a87b57f78aaa7e2eb003ffc00cacac41f290b5bf14b230285c78640967560001b62012521565b6b02df0ab5a80a22c61ab5a7008312620137c057620136d07f2c97f5462f483963631ba9f9e1ddb9d0a5c3c7f72c272c692c040b2c90ad849660001b62012521565b620136fe7f8a09912793ae4b6f51c1aae5e93fd9e2fa3b4be30358e91c3a00030822fa8ddf60001b62012521565b6201372c7fc024c606068c50790457f476f8bb6e9abd7876edaf95881faca2416802f49f4860001b62012521565b6b02df0ab5a80a22c61ab5a70068056bc75e2d631000008402816201374d57fe5b0592506201377e7febb9291849e42b27d8b579f8a82fe2d68c9f5c996da64486de3ec1642fb2d6b260001b62012521565b620137ac7fb763f29bba9dbe1c899ab5fd37e6b92ec872bb4c29cd409faf8faaf7c00c06a960001b62012521565b6856bc75e2d63100000081019050620137ef565b620137ee7fbe811c74316467d7588f719973d8f73b6b44bdc2615d92021dbc626ecc22d31f60001b62012521565b5b6201381d7fcd764b508c9e68721c72db58d23034ae8791912f0045b01605f75dbbe915672160001b62012521565b6201384b7f86f07fad501b095be885b4a911f2b7cc3834da7e263b0b37d949806471f08b3260001b62012521565b693f1fce3da636ea5cf850831262013979576201388b7f80c7783e3a804543691c86546e82ac5b9ce5f48cf748365d31cc9c8a1908022d60001b62012521565b620138b97f87b3cccae0713c171e4cc3c30e9264b7eb2b67b20dcd9e5e69ce065d192eb8f260001b62012521565b620138e77f2ec340c657bb799f8a13576e44fbddb231da5b0d328354cb80de3786471bc90c60001b62012521565b693f1fce3da636ea5cf85068056bc75e2d631000008402816201390657fe5b059250620139377fac47bde4bebd3a8de3d23e457d17a25c8ea35a923524467f19b9d05abbe3bb8260001b62012521565b620139657fe98243a8b81ded7fb01dc058e6c1742677afa34175d47084e47311ed29291bbb60001b62012521565b682b5e3af16b1880000081019050620139a8565b620139a77ff1cc0b188e6e4231cb4718ebd28e5bb14934978cfc8e864985872747523c378460001b62012521565b5b620139d67f99bca04e245a9275c2bd797029177b09ceed72a81e08e59bae2a73a797df93c760001b62012521565b62013a047f261e4d362d795e7cfe9c0c6868738fac4f9fe2ece1423c03a5d24175f2fdc78d60001b62012521565b690127fa27722cc06cc5e2831262013b325762013a447f3914829bbe0f6c5bf1afeaa34ffd544b8cb38edd8d3bc6614904f1155f9d428b60001b62012521565b62013a727f72947c0f257e2918752a7ccfc2b914288f3e2ecba1b758b07e8d97878884e48760001b62012521565b62013aa07f11b375a7ba04e92ada9546ff504dcab892490c95edd3fcf9012815222efc302f60001b62012521565b690127fa27722cc06cc5e268056bc75e2d6310000084028162013abf57fe5b05925062013af07fb79d950018e267ef32fed84a6a9421d2eec0fb3e399156c9f3eff0196bb1cfaa60001b62012521565b62013b1e7ffbafab27350586c5b7594a218ca54443b7fba3e44912a674c9270d39be03e6ed60001b62012521565b6815af1d78b58c4000008101905062013b61565b62013b607f75c33499bbb991e3eb9467b741b89aa2ddd22c8f21d74da332eeecdb83be5bc960001b62012521565b5b62013b8f7f2c4465aef9653b674b06a595c74584529cb594dfa614f03186c6e07a1b7ab33f60001b62012521565b62013bbd7fb2eaae06e373ee55d19ea18eef81bed5eb9899dae375cb9b63dae3e1867e604060001b62012521565b68280e60114edb805d03831262013ce95762013bfc7f0505fad27611bf5ac429a3287f77fe17c9697ff4ea39a955615534324a9d39bd60001b62012521565b62013c2a7f59fa2bc990dbd027eb8293fae49379d6e7cf7a2428cc6ba222350724ef85f9ed60001b62012521565b62013c587fa39e98762bdf9a1473933d1a9a310cb283b2cc6dbbe3ef7349725a4977e1942d60001b62012521565b68280e60114edb805d0368056bc75e2d6310000084028162013c7657fe5b05925062013ca77f3ea03c67b7436c50f0e000d67f9cc76daa691620267f85a14504eaaed4847f6d60001b62012521565b62013cd57fce5961db4c1a04f1f8c2f9af131d650675ba333dd075fb873a8e59d9464a91fb60001b62012521565b680ad78ebc5ac62000008101905062013d18565b62013d177ffce0ecef3e850a9ff19935f216d8139104295e7f80e2c6f3c921bed7d358341960001b62012521565b5b62013d467f23e31166ea24247d1011b5edd5515d646eb074fff4ed8e8e67246d0cfc48519f60001b62012521565b62013d747ff4c3e257c580f1ee065615a767f7c2c7cd33d12cec16baf63e5e520da7ab939560001b62012521565b680ebc5fb41746121110831262013ea05762013db37f1f4ede70cd4ed5e3df87b570f80e274166c0c4fe7adefd0c9d71b1e2f06910ad60001b62012521565b62013de17f0651b874402d08bca25e4278e92f9f7c2b8da5988db22363565d5d8131f15e0060001b62012521565b62013e0f7fb0caf9cc4713e6c070f4384aa134e9e48540543d7da504f6e812304ff22757f660001b62012521565b680ebc5fb4174612111068056bc75e2d6310000084028162013e2d57fe5b05925062013e5e7f2b3ccb5b4431d7fbf733a5973988809887fe9cb96487da42509383d75d21731c60001b62012521565b62013e8c7fabf5a8442a8bf87e50225ea9cbc4a507f6a1d9dd077e7c0bd7a5cb4ec3ccb37360001b62012521565b68056bc75e2d631000008101905062013ecf565b62013ece7fe73ba6b6046756b3503b220c8f1cd309eb8255b53619cf9d7b4d3d1eadd8cf7760001b62012521565b5b62013efd7fe5cf5698dcbdcefd3b9a0a197ef00de1bca0f41ce5493c0224b2fc4d95fcd54a60001b62012521565b62013f2b7f0c24fa121ee36c5882d60fef1a224ff7527b3cf2b1a829ee4126f4ff9953c28660001b62012521565b6808f00f760a4b2db55d8312620140575762013f6a7f781c9a058c785776d1b009208a14485fbec7afb99bb48fd1dd958be0f60792a660001b62012521565b62013f987f041dc14b48dfafa37bf6be38cd94c53290ff5253f6dc276bb7a7c2feb21c8acd60001b62012521565b62013fc67f7fd8bd3ee24373af9d3301d583ac9049430fe965f09b10814b86927cb9ea389760001b62012521565b6808f00f760a4b2db55d68056bc75e2d6310000084028162013fe457fe5b059250620140157f27b010efc80ee8f1455b5f944fa5064116e3866c96ef572403741c7bcc00448560001b62012521565b620140437f334d0ec060f12209ce0cc3104d0dc35ac76e48b197a99651441c4d45e1ee6d9560001b62012521565b6802b5e3af16b18800008101905062014086565b620140857f9359fd9481c47f4c86e5d320eef4eed6c4236b662d7c0e06dbb2761330c635d060001b62012521565b5b620140b47f402ec0389c490a8a2f0c196c64a3656ad56807b23711c0e6fb4476c22317952960001b62012521565b620140e27f0121e51f92fc48c320d44a8fa79f5e5ac3314a045317e5ae18fb7b6ce1490af860001b62012521565b6806f5f177578893793783126201420e57620141217f96ae510b17a6b1ca7bd8fc760ae47fc0837a5ba72cd065816d5f8ff89348ca4660001b62012521565b6201414f7f32f2e836d4821cb35469705e1f1edd4e1c797bdf692eb469d5db18c889c277b560001b62012521565b6201417d7f9d6d3527f1bb1ea0f06970d86b737dd956f8f9464dfba2d67918f253cfeebe1460001b62012521565b6806f5f177578893793768056bc75e2d631000008402816201419b57fe5b059250620141cc7fc00454d2d4886f95b68cea05c67878b88124baa3a4439a977c12794a61b4902360001b62012521565b620141fa7fcf55d52ea684236938078c6ac994ec866455bce1adc33f4538656c226106ce7e60001b62012521565b68015af1d78b58c40000810190506201423d565b6201423c7f72bedcddb98ff81d073f921a18c6b9074026e71079ca583962b50f09c058b7cd60001b62012521565b5b6201426b7f91c8db69b86cdc41dbaffac433437eadd33fe2c9c0f6ba1520e4352bd2fc301660001b62012521565b620142997fb5fc01ea3d63932cb15e68aee56e82cdac4c1d0200b3eb3e475feaabdff8e79760001b62012521565b6806248f33704b2866038312620143c457620142d87fa1823c0985f8916af7ff678e31e5f8d8db5e936004aa3b39ba3c4864a68276fb60001b62012521565b620143067fe293b5eb516e8d03e4c2bbc9bd2293a39d53c2faa56a6c6a56aab664bf80204360001b62012521565b620143347f9470b504b3bf0593f4f0894c686d519b85bfd8660f4341a869dbaaa6c2a7a41360001b62012521565b6806248f33704b28660368056bc75e2d631000008402816201435257fe5b059250620143837f3af1254b1058d66d7bfe42a4de3bd5128918d1423e5a2ecd5195272287e29b4d60001b62012521565b620143b17f111523abae47ccc25c7afd9cca8ee1f50d83da1c87c6c56491790279b39b4ea660001b62012521565b67ad78ebc5ac62000081019050620143f3565b620143f27fdba95c89df2b2c302715f189fbf3e8afa18ed02a0c59d60fce3570e390e6bdef60001b62012521565b5b620144217f6316ad9c2f036322af3911484d11e152b6d666f6da2904d8264cc3d3d2b80eee60001b62012521565b6201444f7fd5a28627aba873ec250cd7139b8402995822d6fb272bb09381926ea187bd23ec60001b62012521565b6805c548670b9510e7ac83126201457a576201448e7f2b6f2cd02f0d47badd5586bc1d9f58ff8b6f2a00b766e06321fa78fcb406813560001b62012521565b620144bc7fcf6295743d6d9b70df97a10e09b7b1f265b2587afd80f5ad047d2f5c5aa5ce8760001b62012521565b620144ea7f70959ebdd95590440af102dceff0d55bd4fe599507ae4e7a40b420a10cae540b60001b62012521565b6805c548670b9510e7ac68056bc75e2d631000008402816201450857fe5b059250620145397ff770e21630afd1c7aa2fc1949362973cfbf87c1eb30b824376a97730f9535f1660001b62012521565b620145677f784b5eba7288ce0229ef72abf84d8b40e303f13e5ba2b81067cacdda35d7bccd60001b62012521565b6756bc75e2d631000081019050620145a9565b620145a87f156e042116d7446a37fcb3d4ec960f9047cc18a02b4dd1eb8b734cafb9605c0060001b62012521565b5b620145d77f0db1de3120dc404f4f8021def344b3c62f6ad502f740f40feaadf8129088e01160001b62012521565b620146057f02d82c98cb824b016938918581fa19f477ce037165d9d45d81fc649c9f321d2a60001b62012521565b600068056bc75e2d63100000840168056bc75e2d6310000080860302816201462957fe5b0590506201465a7fb8b70f939d04cc8d75e576332b9da5134ecca82a3e604e74f291f1130da038b660001b62012521565b620146887fc8638c5409badc3a194c6e9b05f173124591b35009f05b7b93f8c7ac08f8988e60001b62012521565b600068056bc75e2d63100000828302816201469f57fe5b059050620146d07f08b9aee5b762bf1bc8db453d9aec5cec295ae5a677a9b26d440cdd9fc6973c1260001b62012521565b620146fe7f6cb11656fdc9d3015f974ed28279796e17070c5d53f72ccb82f50b82bc4723cf60001b62012521565b6000829050620147317fd72baafeeac9478eeccd9951ddedf17ff7847642eea99342d45b7f5097b278b860001b62012521565b6201475f7fa4c6691648fc2fbb9500367982871b44ea6f400512f6ae3fc78f3c3f987ed42260001b62012521565b6000819050620147927fa1de7af863295adb149458a9b54d21e22cf985e743af8fcec44e86f771ddfad260001b62012521565b620147c07fd6c2c10cb08e09aeb957267ee23223e3b865089983d3ea838a579f2c2f5217ef60001b62012521565b68056bc75e2d6310000083830281620147d557fe5b059150620148067f4e5a98be01125eeff80c82c25e9fb9e7b02202a87b5680973ba14888b4a2dd1060001b62012521565b620148347f597baf07b0aeb0637c340154dbe8e11fe620c09c4034c72c7df03665ef6cd8fa60001b62012521565b600382816201483f57fe5b0581019050620148727f04208f16ed89180341d8d28de15f2cb7beb6514949a9f767cf9b5dce70daa00e60001b62012521565b620148a07f700add0bad6352b737db6cf0f4c820160e12e7c7bcc17138afe55d7dc67f2cab60001b62012521565b68056bc75e2d6310000083830281620148b557fe5b059150620148e67f89c0d9d75ead7925f8f92ef643044933a36176181961cfe6c033df79346d2bcd60001b62012521565b620149147ffb5cb14ed3f36ba24aee09acdcd10ddcc6cef0c8015b8dbf277d34419b5be26c60001b62012521565b600582816201491f57fe5b0581019050620149527f9ee2cc40b8ab5263af95bc1fba71221946d091db613b8f93c440ee62d806ffee60001b62012521565b620149807ff2f99f8aa918a208cfa8b8d746cb4db602795f57f17fc7210b61f1e70033ce0560001b62012521565b68056bc75e2d63100000838302816201499557fe5b059150620149c67fecc1504a6f1872489c1e37269dab8253af49f886d0df7ca8481b19675f6414a960001b62012521565b620149f47f07c833df720764d188697faee613c532579bb7e21ed42a35ff67f744ec1c3b0860001b62012521565b60078281620149ff57fe5b058101905062014a327f84fd7b0810797764865edde09223268a68e6d7525e6ecbadaf3dae09414e91d960001b62012521565b62014a607ffc0b2be7401f325ebfc926f22bade8876e8ff231259625a9f735df4b069f724260001b62012521565b68056bc75e2d631000008383028162014a7557fe5b05915062014aa67feda0abf282f0c681f7a6bea7294ec51e5b91579240b3a5869b70a821513422ce60001b62012521565b62014ad47f33f4c27456bb21e26cd309307cb7936c191fb103606137f97c2c77cab81cdc4660001b62012521565b6009828162014adf57fe5b058101905062014b127f0b0a463cf0a1c345b1a831db4be2e862990963ad0466c72e67296591cb8a44de60001b62012521565b62014b407fe3cb1a8a990e03b2f6482a7a138828d42d03c3b912d9fe02f1d8f1abe3c7880f60001b62012521565b68056bc75e2d631000008383028162014b5557fe5b05915062014b867f484eba67c966520b3c3f87a9b8eab2034364974b900e018ff0df9689b24821aa60001b62012521565b62014bb47f31a5a8af2a9b00d798cedeb7efb46d9a3227c50b361e48082068d5b91294663c60001b62012521565b600b828162014bbf57fe5b058101905062014bf27fe0fe1ff2347fbf5e0aeed6107768b2e6ab4ba2b14de005486d84a54e35a6c9e860001b62012521565b62014c207f8182237f0d31121f22b1fc0338fc2685dbcdddd1ff1aa1cd20946bdf3367afbd60001b62012521565b60028102905062014c547fb531577b46cfea8a0f0479f45520255c37d62cefeefad875161a20bb6916480760001b62012521565b62014c827f313d3cc6ccbaf2e16f0517b2aa4326497926a47540250bdf393e884dd6ec74a060001b62012521565b60648186018162014c8f57fe5b05955050505050505b919050565b600062014ccd7f6603744b862ab6dc76e6d45ef526e659083d06b697b00d6c702452eccbbcbc0460001b62012521565b62014cfb7f6a49a08508150c5d74a9e797da5412ffecda75c75e3f9f6cf8ac1d076aed017b60001b62012521565b62014d297f9e338bcff6c9fa839ea936f99d55c006573ff2410ee796c8c578f80fb4b1476260001b62012521565b62014d6f7ffffffffffffffffffffffffffffffffffffffffffffffffdc702bd3a30fc0000831215801562014d67575068070c1cc73b00c800008313155b6009620051a1565b62014d9d7fbdb879f854bb361f61c66fedce7851398eccca5f9b11421026790520dbe7330c60001b62012521565b62014dcb7f1d4106cee033b42bb28453b29aa0514f3927be014f80298cd53c58a2cc144ed460001b62012521565b600082121562014e895762014e037f9ffc9f9165e96c5cec8064de6562074aa4bac40b8e0ff74e7c050644d6db914360001b62012521565b62014e317f1c1a6bf06a86628b0777bf190212858d70d2cd26d797eddea7239e104f67dc5e60001b62012521565b62014e5f7f91de43806e6b4c93b6310ffa0a64ac1345b1869837c53cd51a4ce9551ee79a0b60001b62012521565b62014e6d8260000362014c9d565b670de0b6b3a764000080028162014e8057fe5b05905062016cd8565b62014eb77f710f40b391df50eaae53e451c37ad0bff0c77d8a26f4eaee1ed8318841ca3c7460001b62012521565b62014ee57fe3b24104ba4f28e8f4e45cd19101ff28c8b19ddcd113c9ca8df4f2142fac388960001b62012521565b62014f137f132d6291004a07f16d0593dd55ca63dfa97424be4fb59f0316e4f4d586bf092e60001b62012521565b600062014f437fbf178581b4a8bd0d485eb7d309792ed64e29317921eb1ad6928122819990cd8560001b62012521565b62014f717f4b73530e933c77adbf16e42a80b079e6465973fe14e96d2ef191423464b5d9cf60001b62012521565b6806f05b59d3b20000008312620150975762014fb07f28c202a4fa617d7971cb39c3dd4cd40c55eb25a7ad2bfd29a623f97a5c2a395060001b62012521565b62014fde7f1ba6b8a8de1c32823cfac339928d64937a118b4c6d43b0f781bdbc3ae120e8d260001b62012521565b6201500c7fd4b128d003931b1602679d18f1f1a759fce9d11915bfc0a0a5d82fb37119741460001b62012521565b6806f05b59d3b200000083039250620150487fc7b2515a6893b42db051c9bc6887577ece63d35adcae1e97144222515ceeb39c60001b62012521565b620150767f9767975d425cc62d4c50edb1878d2aadb5d1873b1dfa1cfde2a4a50bb07c69d560001b62012521565b770195e54c5dd42177f53a27172fa9ec63026282700000000090506201529d565b620150c57f07ec3da6962ab3443fe25e4782bc420f041f271f4e2c2c1e41ea31ec574b498160001b62012521565b620150f37f661e63e3bfe69a5481fd378700c3a30694d16dc746bd559dd5b9e1d497fdea9560001b62012521565b6803782dace9d900000083126201520d57620151327f3785f3f40071b38454e95841c68a76b29a54b0286f0a37042cbb0b3fc8bde96860001b62012521565b620151607ff4ac48640a5cc6581ff67074a76f4d075f64dd6791f2c0ee2867cb9b1abb421960001b62012521565b6201518e7f889a36601f82fc52f5548abb84d1f5868f98023c6ad7b75dc6e2b86c604e302460001b62012521565b6803782dace9d900000083039250620151ca7f0b1c37b4156ff49c92652db2245ffe10f0b1ed61e4fbfa83deb1fdd7ef0d9ec060001b62012521565b620151f87fd599b74ef5fb374f32e66fafe9d91229dd5ea9bbe42ebc9c9e369d45a67b9df960001b62012521565b6b1425982cf597cd205cef738090506201529c565b6201523b7fc05ed50e42b5218441d82c66e1ac1498481e60af916f8357ba5369d90bbfa76460001b62012521565b620152697f8c740e7289f8bec068c7716d88156a077a04a58a6ce1ce09d8d87f6e4286a1cf60001b62012521565b620152977f11d6764fc64e11bea7ef6764e1c8e9763eda7b809566d1dc14e2ee76bda9ea4160001b62012521565b600190505b5b620152cb7fe19248d93c4142e89f02c948c7b41874643d099f8f3c9806910174a58440e69660001b62012521565b620152f97f4f109f8d42ef491ede922a778a821baff53572cccc88f1cb3076282db7b1380f60001b62012521565b6064830292506201532d7fccc83beb548390fbb57fe46719ec24dc3109f9c65afc25a2e784223bf6ace68560001b62012521565b6201535b7f23629132dcacfc6e461c74305057c54a0d94e27778e8d26ef165babc08c8787b60001b62012521565b600068056bc75e2d631000009050620153977fdb70ef3e5349656acaf4bfd39c162434a5dd30fdc5ed51cd6b1c7d116c8569a960001b62012521565b620153c57fbc8b07fb08fad687d2e7dd3e137d525be659791a9db15f6080dd9c218e5e63a060001b62012521565b68ad78ebc5ac620000008412620154f757620154047f7af7a97bf5f0c230016e7431a39f93e9397911f74ae9af11fe119c64a3b8509b60001b62012521565b620154327fa4c983995cd34fba0b7665c4b862417abb45618fa811f360c792718feb6cfe7360001b62012521565b620154607f3e5e18d2128dcda7a3c51ec24dd69ed7fb3cf52476caeafa0fc9cc1bd056c2fe60001b62012521565b68ad78ebc5ac62000000840393506201549c7f6ce1407a57f7ceacd45205a97867ce6d3eff75ad30b205935ec2a882cc2c41aa60001b62012521565b620154ca7f97eb016396da8decddd8bbc4903417a2404abc0fad5ce36252e97ed57c08f8f160001b62012521565b68056bc75e2d631000006e01855144814a7ff805980ff0084000820281620154ee57fe5b05905062015526565b620155257f7a222f19097af0b8ebe8c4b3c271a3e1bbb95c2fca82e1ec497250ded78a4c0060001b62012521565b5b620155547f805a7d593b296a2b66ea0198b850ae8d06043f1640de3e48ad3083925acffa1060001b62012521565b620155827fb98fa6d44a9bd420c1a47c3e06f9706d327ce038cac04d19f1c644d7fc63bcbf60001b62012521565b6856bc75e2d6310000008412620156b157620155c17f6dc70e2d85c9bd8acbed97f27b977a64cb7839b9e42633d1b46f9b036c5128e160001b62012521565b620155ef7f04f6bb568e13485a2c8a77970954d846137ff4337ef9d0c54fe4611388842ae860001b62012521565b6201561d7fb6b77963ea2a5a58811478a28f586ffc54e033daf49f6036a783b6eae2ed5dca60001b62012521565b6856bc75e2d63100000084039350620156597f3047dcef9c74f0035dabbbdd2d76608c30d2d9f42f28c357de0d9a6f5f6a05d460001b62012521565b620156877f419fdbd313b9ce9839e9d4b1ad0b81d8ce89fede7d2718138eb64448a111f0eb60001b62012521565b68056bc75e2d631000006b02df0ab5a80a22c61ab5a700820281620156a857fe5b059050620156e0565b620156df7f78265ba26cf98ba8b9f01378498d5783992c881672a03d99b00a4c5d46b9549060001b62012521565b5b6201570e7f7d8f650f49754abeb5011fadf4ae00af9228f6819e89d9b268e3ff0bf7c0fa3060001b62012521565b6201573c7fc1d05e4b5dad4f9a17797bed4d3888af96549f8bf1d0af0a2c4bb6b4e3c6b16560001b62012521565b682b5e3af16b18800000841262015869576201577b7f61ba792ca7d7b22def1affea71a1123f05e945f1c1a132ba2a4b64884799c9bc60001b62012521565b620157a97f6a3727128c70b59a167e729dad824b40e1da03edc85a66b7e37058bc42c719bc60001b62012521565b620157d77f0521d6055fa0069604d409a10bfc091a96f09bd16b31cb9c5896f4abe4e78fe260001b62012521565b682b5e3af16b1880000084039350620158137f070944c2f2dc8948157040166b057a7d8893c58300fec401a2db212d1ec62f9060001b62012521565b620158417ff00325782656fa168cd75d7bdbb5703b163e22f7bf60cf090672c80e8de3443160001b62012521565b68056bc75e2d63100000693f1fce3da636ea5cf8508202816201586057fe5b05905062015898565b620158977fceb7f0919299aac82bf2f5739c8b90acd7e7eba1c7e97ccf3dea5588fdb267a560001b62012521565b5b620158c67f4c523f43931e9fc49c479095da1ab08aae4691c7a9d1e8c775f93717e6697b6660001b62012521565b620158f47fde7559d37461b938c70fe551914609ca870da7fb47a2fe92f01c2445c483b1ca60001b62012521565b6815af1d78b58c400000841262015a2157620159337ffe7c77d3f2905df59ce6ef6212574caa23c3ff932a9a20429d711421a02806ce60001b62012521565b620159617f3ddb67d1fd7a64e04ba821306f2da4d739a5c87fc7753080fdfb58cd0652f7fc60001b62012521565b6201598f7f1025142c8ba61bedb893a82dc956e8aa6c2e93daa12bdd4d506176813413bb1860001b62012521565b6815af1d78b58c40000084039350620159cb7f33e996955fba6856fdcbcdcde9073d29245874ea784831bbc2715ca0dfcc51e760001b62012521565b620159f97f2e98d38eafb9450e22fecf0f84f48e746102f1bee8c2985f43cece2335e0b00360001b62012521565b68056bc75e2d63100000690127fa27722cc06cc5e282028162015a1857fe5b05905062015a50565b62015a4f7f47615a45aad371bbecd97296e438b65fc99573cb6dc24eebeea45ddcba95299960001b62012521565b5b62015a7e7f12a0c1c60abaa4e2e79d89d81f48519554651861ed9f168e18279f5872b40ebf60001b62012521565b62015aac7f5f135e138418337ac5c3bdd2e76ccd9cd3220fd08e641a5613d69512dc9e9bbb60001b62012521565b680ad78ebc5ac6200000841262015bd85762015aeb7fb3ace12e78288ddcbabe9aa7830e86314de03b4609d686e08abc6cea618a220060001b62012521565b62015b197f2f8dbc5acb955780846833f47309ddb10b95862260661165e8693304458e309660001b62012521565b62015b477f059078fc27670543c491910de9e366dfadefa0383607112382ed74945a36a8f560001b62012521565b680ad78ebc5ac62000008403935062015b837fbd8787648837ca4047611ff6da351580f4d95b70bfff222525cf85c1700391b560001b62012521565b62015bb17faed2b56272a449216b2b1f1c1b20039ec9d19ff891c3e5a7ac24104ab4896ca660001b62012521565b68056bc75e2d6310000068280e60114edb805d0382028162015bcf57fe5b05905062015c07565b62015c067f7d8041f68209c84c744c4a75cec2af589dd8bbcc8a745cb137ede0c954ad14a760001b62012521565b5b62015c357f1d2b7702e5cc96a97b6c7be229ea0e375b605cb4873269752c4cf3314d85aa8d60001b62012521565b62015c637fe4255d40177c13f8beef001a01711ab52bc875a366d8a8f0008b6d8303a7db3760001b62012521565b68056bc75e2d63100000841262015d8f5762015ca27ffdbdd750116d2a046d7ecbc83773f84ca56a493d4b27baa6ccfc891d0f1c569560001b62012521565b62015cd07ffa6d254aee1a01d616d7f0777f8b70339603bd2e743ff41fc3eb44cb75df87b960001b62012521565b62015cfe7f84a3c20c13112011f7d5dde037eaaff5849301fea628069f51f5bcb01eaa69d660001b62012521565b68056bc75e2d631000008403935062015d3a7f7cf2afdf1b3142aee1de7ea27bea6cce310acd6b1b0c75722f0368a9c3ef94e960001b62012521565b62015d687ff006ee7068d2cbcb786bd5ebdc84ccc4d0ab36fe9fd9b00d21aaff43da155d4660001b62012521565b68056bc75e2d63100000680ebc5fb4174612111082028162015d8657fe5b05905062015dbe565b62015dbd7fe583b06eac97353d0ff4bd9baa38f647b92a610e6a70185cc8b4c59981e2d3d160001b62012521565b5b62015dec7f23ee693a4d28312a9def5bb67f28051dc08954178ac8c6a99bd3611f3ede923a60001b62012521565b62015e1a7f07503d3d2ce3b15dda30b6de1073ebdd1b87cd99b96e9573bf784aa71890fef960001b62012521565b6802b5e3af16b1880000841262015f465762015e597fec2c19a72c3a6ab45e714d801eda84b0c95a7e064bbc6bb3271b06a7820b46f460001b62012521565b62015e877f1c257ed60e2af6238b450518259e0f106dd0967a46ecac496c039601187a1c2460001b62012521565b62015eb57fb6aaffcf4c7bcc557cf2ed6ad3f876cf75bd255d10ff34d178bd7d7f7a5f0fb660001b62012521565b6802b5e3af16b18800008403935062015ef17ff8eec3bbbd428287f31a94ad611dd00d0f9748f2708fd03982c79876ce574aa260001b62012521565b62015f1f7f1e0ead2001d2ca04f2d62894cb413c363c6439ef0ccd395e382ff694fd265ece60001b62012521565b68056bc75e2d631000006808f00f760a4b2db55d82028162015f3d57fe5b05905062015f75565b62015f747fe6abce81b6afb00697fe33f1555b17ffdb185dcd3317f3fb8c751065296a9e9a60001b62012521565b5b62015fa37f12efa59ad9f2fbcbd1c408558e411668bddbf24d96895216b736c8d5fbd0f43a60001b62012521565b62015fd17f9745baf78ffa78b5ea76c3832102ad9f89c94001934f7883b968bbe6995f416c60001b62012521565b68015af1d78b58c400008412620160fd57620160107f7164f448c8a55596ae371fa4d01ed2d280113303a6193fba2b3ec230e7e1b00a60001b62012521565b6201603e7f8f2f6885e0c02037769ef8a799a965a7974be536126ec579168ca6a70e8366bc60001b62012521565b6201606c7fc4513f37c3809539c0d7d5a706593c858ddd0a195c0ec1ad6f03bee00b117e1260001b62012521565b68015af1d78b58c4000084039350620160a87fde4724845db98e8fca24d9fed5ecdf0511cf8584cf25f67c5adaef214a4b657060001b62012521565b620160d67f0edffcd09bf23e58a56b11d9fd2730c9460b188d757c6d690b11f6ee3434df2b60001b62012521565b68056bc75e2d631000006806f5f1775788937937820281620160f457fe5b0590506201612c565b6201612b7f3bf335665c831bc42885f4c4f5a661a0eaac6452974d4d89b0cad02e13f920a560001b62012521565b5b6201615a7fdb32284aae92927243fbc87b40e9a91f56392b193b967b9b47fbece50af2557660001b62012521565b620161887f5f319f332aed3a677c60e30196d9414f0b45002c13bc12fe47d9250806d3ab5560001b62012521565b600068056bc75e2d631000009050620161c47fd25adb26b09b92471ef07f7eb1f0dfabe151779c4086e71365cd60a1f054477e60001b62012521565b620161f27fae831f90c9720de4bd357c85aecc0a2ed7c793b1b64419318415f79b5b5ba24b60001b62012521565b6000620162227f13a59d57fa9fb186a09cb13db0555db2580cc844bc4f56f4978fe6352eaf61f560001b62012521565b620162507fdc67a0744f97707e1516f99b7d97619305a844cff712ba8bb047d1862b833f2660001b62012521565b859050620162817f42ed1c52f98c9efc709b1839d7381ae4f7e79682229488485a9e535e5db1c99a60001b62012521565b620162af7f3f343d10c3ad56a07dcd790e36df3c48764b37f68fc46ef0667529c1428c09d660001b62012521565b8082019150620162e27f40bfeded5813c9961de7ae74de50e8ebf99695523139bdeaac2ba16e99e9755960001b62012521565b620163107f546464d511b4dbd9e175112ed79738997adff96602e612d8628d4f78911888c260001b62012521565b600268056bc75e2d63100000878302816201632757fe5b05816201633057fe5b059050620163617f5df678d9a7a6ae9a9498ffe7f8d727ae4de909f0b296ab2d694b2d309d2b646f60001b62012521565b6201638f7f5174487126fc5f2fd6f0379d294212de03f7b2f5d0dd279b4edbfdfc3e19e2eb60001b62012521565b8082019150620163c27fcf88976b65831ffe97b67b7b2ca013f7e5fdb847fbb93c7f2d7034533028158d60001b62012521565b620163ef7e0558671959e5134d01ab0f86ae54af18cdefa82c5fb5316710dc5ad95f5dcd60001b62012521565b600368056bc75e2d63100000878302816201640657fe5b05816201640f57fe5b059050620164407f1cd95f17c41cafe1b13deb79ac956b5f958ce3efa711ba409d193273f812258a60001b62012521565b6201646e7fa34f0dfd30ef71733809d85683eee1009c10c65ec25271d7d9b2d272465c047e60001b62012521565b8082019150620164a17f1426410cea942485931272d793a9f4ec5255c8d0f423ea227f721530107dde4b60001b62012521565b620164cf7f494659c81ab7e59032e61324f3c0073ae74295b96c9a247dc88db6f0cafcc6b060001b62012521565b600468056bc75e2d6310000087830281620164e657fe5b0581620164ef57fe5b059050620165207f1041f8d0ca0bec305764b0cda20df1fa1b5b048a7e4d966072f7c096b6a7ab0f60001b62012521565b6201654e7fec785b35d8c27ebae08ebd898671e3fb113ad53755b142943087d76b60f697cb60001b62012521565b8082019150620165817f32618ecd71d71820b399dceb4572c87b52fab009097cf45810bb2eb50972bf1160001b62012521565b620165af7f0c66c9cf36dcb9b7b3c8bd2315072a1978dfb9d3f81b58aa453a4cdb819699e660001b62012521565b600568056bc75e2d6310000087830281620165c657fe5b0581620165cf57fe5b059050620166007f9fdd370c6b7cc675c6255331f249c10f8918ffe39ec046f6eb76d53a947c9a0960001b62012521565b6201662e7f11c9697c0e03e81da28813ad061aa548447a4d8a9dc3b8c23d59b2d12d5d7d4460001b62012521565b8082019150620166617f391db74f7749b7ae2ee31c87ebf9bbfd82d2346742d80e5fa635a77b6bf181cd60001b62012521565b6201668f7f1efa183081524998d6a056dc459be65c1b5e2c57e7156e7353f5c5a308de08fd60001b62012521565b600668056bc75e2d6310000087830281620166a657fe5b0581620166af57fe5b059050620166e07f7c80225555c21862d2127c45852b5b7e867187f90d7b479093a80d558ff363a960001b62012521565b6201670e7f6bb4786a69207356caf0fd9ad4e477193225ae1222cc28eda8de5ded362a738860001b62012521565b8082019150620167417f2bd95cc2b46a697fc9e6c3650198698b02cdc489924a9625765e7773ab16ae8860001b62012521565b6201676f7f6d70ac07c1523999f0874733cef6a7fdeb1cbeb1b985e73e5c2ae45bb5fce47860001b62012521565b600768056bc75e2d63100000878302816201678657fe5b05816201678f57fe5b059050620167c07f68c21f169be444da9ef45fe470d73b9632c50037aa8aa519cb49b2403965c2eb60001b62012521565b620167ee7fb5368c2771a467a192bc432cf66ede3a2e75b42e30e5f6c8eaceca14ea142e1e60001b62012521565b8082019150620168217f0b197c00940bc34711a5c1bcf9f390aa0fc31444c572dc0d0ac1e8c2b9c1e1e060001b62012521565b6201684f7fcc9a6a7838ea3873cd8cb7797d8acf9701ffb04aeec1db4c8f7bdfdfe7e2d3e960001b62012521565b600868056bc75e2d63100000878302816201686657fe5b05816201686f57fe5b059050620168a07f4ae223488edf92d1ef9df11b74835814de75ca75fb53a7c67a69c1f378d81ee260001b62012521565b620168ce7f40437cc0071d40a545118470633ee8498f6ba07249e95bd277d662c8c3910d0860001b62012521565b8082019150620169017f6a98bd98d5b6402216f6a26d5e5c6a0e49aa041cd602f0480a92757414fdd3b360001b62012521565b6201692f7fd3d9002223246e6684f9b356dfa9d5c123bb45a59faf3a71c2d8509cd1b8aadb60001b62012521565b600968056bc75e2d63100000878302816201694657fe5b05816201694f57fe5b059050620169807f5915e3cc2f4da8323007d0f13b60cc72c7d692077501c6c0b751d92bee102cf460001b62012521565b620169ae7ff374d3c08292c299c854216de162077cf1e7e74d3e8d95785370cce4a8a54eba60001b62012521565b8082019150620169e17fe551b770c0283b7957336a0413cfc5695d9a74be29735d8eec8935ba20731a5660001b62012521565b62016a0f7f43e66eba524ad5a79985eb4b8c6d6fc7162bfbfdd871b9f070e97db31542f0cc60001b62012521565b600a68056bc75e2d631000008783028162016a2657fe5b058162016a2f57fe5b05905062016a607fd8a9b2676287d5379b156d6247aeb5c2f0fd0ed55c29065726548ea6fffde56f60001b62012521565b62016a8e7f7e808415cc1dbceed6d010c33f90e1223eeae1f554c79ec5cdffaa7d70f578ab60001b62012521565b808201915062016ac07ec7b50af6579f36d212223599a7baf3371e84233a81a59f8730356090efe26260001b62012521565b62016aee7f057ce259ad07027680b845518d99ae02983046d284d711d975c4fd35edf89ca360001b62012521565b600b68056bc75e2d631000008783028162016b0557fe5b058162016b0e57fe5b05905062016b3f7fce223532276d9fabf2fe44c77bfba17b308e50a661a67b2752655cb8cb6552c960001b62012521565b62016b6d7f4dbc79d412cdba175117302a3d855398fccbefe1f2052184b32dd42523991c6660001b62012521565b808201915062016ba07f55da710f8842795b5b2e959480ee14a0c4f9c3cfa812287cfa3af7316963641360001b62012521565b62016bce7f805b231f29185d988c06992a4ddc8f42fa307198ac0ddf06216dabdf4e73bccd60001b62012521565b600c68056bc75e2d631000008783028162016be557fe5b058162016bee57fe5b05905062016c1f7f5ba9d0c8bff42f59665649e0bd725b6ab0ab482566bd0ccdc0bb78ae418732e160001b62012521565b62016c4d7ff197e464f40cbe1f523b743dc74861641e5b4609d6d4ac255f5887f9f27cb66560001b62012521565b808201915062016c807f94afe60d1248ac0a761f9e1237e351e82f9e7e83032f5e3866b4386013ebc91860001b62012521565b62016cae7f2e2220c3917686fb99da58ec04c3d2e5d0e5fd28f75995041eb4ceeca24f73f460001b62012521565b60648468056bc75e2d631000008486028162016cc657fe5b05028162016cd057fe5b059450505050505b919050565b60008135905062016cee816201809e565b92915050565b600082601f83011262016d0657600080fd5b815162016d1d62016d178262017e1d565b62017def565b9150818183526020840193506020810190508385602084028201111562016d4357600080fd5b60005b8381101562016d77578162016d5c888262016f81565b84526020840193506020830192505060018101905062016d46565b5050505092915050565b600082601f83011262016d9357600080fd5b813562016daa62016da48262017e46565b62017def565b9150818183526020840193506020810190508385602084028201111562016dd057600080fd5b60005b8381101562016e04578162016de98882620170e7565b84526020840193506020830192505060018101905062016dd3565b5050505092915050565b600082601f83011262016e2057600080fd5b815162016e3762016e318262017e46565b62017def565b9150818183526020840193506020810190508385602084028201111562016e5d57600080fd5b60005b8381101562016e91578162016e768882620170fe565b84526020840193506020830192505060018101905062016e60565b5050505092915050565b60008135905062016eac81620180b8565b92915050565b60008151905062016ec381620180b8565b92915050565b60008135905062016eda81620180d2565b92915050565b60008135905062016ef181620180ec565b92915050565b600082601f83011262016f0957600080fd5b813562016f2062016f1a8262017e6f565b62017def565b9150808252602083016020830185838301111562016f3d57600080fd5b62016f4a83828462018034565b50505092915050565b60008151905062016f648162018106565b92915050565b60008135905062016f7b8162018120565b92915050565b60008151905062016f928162018120565b92915050565b60008151905062016fa9816201813a565b92915050565b60008151905062016fc0816201814b565b92915050565b60008135905062016fd7816201815c565b92915050565b6000610120828403121562016ff157600080fd5b62016ffe61012062017def565b90506000620170108482850162016fc6565b6000830152506020620170268482850162016f6a565b60208301525060406201703c8482850162016f6a565b60408301525060606201705284828501620170e7565b6060830152506080620170688482850162016ec9565b60808301525060a06201707e84828501620170e7565b60a08301525060c0620170948482850162016cdd565b60c08301525060e0620170aa8482850162016cdd565b60e08301525061010082013567ffffffffffffffff811115620170cc57600080fd5b620170da8482850162016ef7565b6101008301525092915050565b600081359050620170f8816201816d565b92915050565b6000815190506201710f816201816d565b92915050565b600081359050620171268162018187565b92915050565b6000602082840312156201713f57600080fd5b60006201714f8482850162016cdd565b91505092915050565b600080604083850312156201716c57600080fd5b60006201717c8582860162016cdd565b92505060206201718f8582860162016cdd565b9150509250929050565b600080600060608486031215620171af57600080fd5b6000620171bf8682870162016cdd565b9350506020620171d28682870162016cdd565b9250506040620171e586828701620170e7565b9150509250925092565b600080600080600080600060e0888a0312156201720b57600080fd5b60006201721b8a828b0162016cdd565b97505060206201722e8a828b0162016cdd565b9650506040620172418a828b01620170e7565b9550506060620172548a828b01620170e7565b9450506080620172678a828b0162017115565b93505060a06201727a8a828b0162016ec9565b92505060c06201728d8a828b0162016ec9565b91505092959891949750929550565b60008060408385031215620172b057600080fd5b6000620172c08582860162016cdd565b9250506020620172d385828601620170e7565b9150509250929050565b600080600060608486031215620172f357600080fd5b600084015167ffffffffffffffff8111156201730e57600080fd5b6201731c8682870162016cf4565b935050602084015167ffffffffffffffff8111156201733a57600080fd5b620173488682870162016e0e565b92505060406201735b86828701620170fe565b9150509250925092565b6000602082840312156201737857600080fd5b6000620173888482850162016e9b565b91505092915050565b600060208284031215620173a457600080fd5b6000620173b48482850162016eb2565b91505092915050565b600060208284031215620173d057600080fd5b6000620173e08482850162016ec9565b91505092915050565b600080600080600080600060e0888a0312156201740557600080fd5b6000620174158a828b0162016ec9565b9750506020620174288a828b0162016cdd565b96505060406201743b8a828b0162016cdd565b955050606088013567ffffffffffffffff8111156201745957600080fd5b620174678a828b0162016d81565b94505060806201747a8a828b01620170e7565b93505060a06201748d8a828b01620170e7565b92505060c088013567ffffffffffffffff811115620174ab57600080fd5b620174b98a828b0162016ef7565b91505092959891949750929550565b600060208284031215620174db57600080fd5b6000620174eb8482850162016ee0565b91505092915050565b6000602082840312156201750757600080fd5b6000620175178482850162016f53565b91505092915050565b6000602082840312156201753357600080fd5b6000620175438482850162016f98565b91505092915050565b6000806000606084860312156201756257600080fd5b6000620175728682870162016f98565b935050602084015167ffffffffffffffff8111156201759057600080fd5b6201759e8682870162016e0e565b9250506040620175b186828701620170fe565b9150509250925092565b60008060408385031215620175cf57600080fd5b6000620175df8582860162016f98565b9250506020620175f285828601620170fe565b9150509250929050565b6000806000606084860312156201761257600080fd5b6000620176228682870162016f98565b93505060206201763586828701620170fe565b92505060406201764886828701620170fe565b9150509250925092565b6000602082840312156201766557600080fd5b6000620176758482850162016faf565b91505092915050565b600080604083850312156201769257600080fd5b6000620176a28582860162016faf565b925050602083015167ffffffffffffffff811115620176c057600080fd5b620176ce8582860162016e0e565b9150509250929050565b600080600060608486031215620176ee57600080fd5b6000620176fe8682870162016faf565b935050602084015167ffffffffffffffff8111156201771c57600080fd5b6201772a8682870162016e0e565b92505060406201773d86828701620170fe565b9150509250925092565b6000806000606084860312156201775d57600080fd5b60006201776d8682870162016faf565b93505060206201778086828701620170fe565b92505060406201779386828701620170fe565b9150509250925092565b600080600060608486031215620177b357600080fd5b600084013567ffffffffffffffff811115620177ce57600080fd5b620177dc8682870162016fdd565b9350506020620177ef86828701620170e7565b92505060406201780286828701620170e7565b9150509250925092565b6000602082840312156201781f57600080fd5b60006201782f84828501620170e7565b91505092915050565b600062017846838362017a04565b60208301905092915050565b6201785d8162017f07565b82525050565b6000620178708262017eac565b6201787c818562017ecf565b9350620178898362017e9c565b8060005b83811015620178c0578151620178a4888262017838565b9750620178b18362017ec2565b9250506001810190506201788d565b5085935050505092915050565b620178d88162017f1b565b82525050565b620178e98162017f27565b82525050565b62017904620178fe8262017f27565b62018079565b82525050565b6201791f620179198262017f31565b62018083565b82525050565b600062017933838562017ee0565b93506201794283858462018034565b82840190509392505050565b620179598162017fbc565b82525050565b6201796a8162017fe4565b82525050565b6201797b816201800c565b82525050565b60006201798e8262017eb7565b6201799a818562017eeb565b9350620179ac81856020860162018043565b620179b7816201808d565b840191505092915050565b6000620179d160028362017efc565b91507f19010000000000000000000000000000000000000000000000000000000000006000830152600282019050919050565b62017a0f8162017fa5565b82525050565b62017a208162017fa5565b82525050565b62017a318162017faf565b82525050565b600062017a458285620178ef565b60208201915062017a5782846201790a565b6004820191508190509392505050565b600062017a7682848662017925565b91508190509392505050565b600062017a8f82620179c2565b915062017a9d8285620178ef565b60208201915062017aaf8284620178ef565b6020820191508190509392505050565b600060208201905062017ad6600083018462017852565b92915050565b6000602082019050818103600083015262017af8818462017863565b905092915050565b6000604082019050818103600083015262017b1c818562017863565b9050818103602083015262017b32818462017863565b90509392505050565b600060208201905062017b526000830184620178cd565b92915050565b600060608201905062017b6f6000830186620178cd565b62017b7e602083018562017a15565b62017b8d604083018462017a15565b949350505050565b600060208201905062017bac6000830184620178de565b92915050565b600060608201905062017bc96000830186620178de565b62017bd8602083018562017852565b62017be7604083018462017852565b949350505050565b600060c08201905062017c066000830189620178de565b62017c15602083018862017852565b62017c24604083018762017852565b62017c33606083018662017a15565b62017c42608083018562017a15565b62017c5160a083018462017a15565b979650505050505050565b600060a08201905062017c736000830188620178de565b62017c826020830187620178de565b62017c916040830186620178de565b62017ca0606083018562017a15565b62017caf608083018462017852565b9695505050505050565b600060808201905062017cd06000830187620178de565b62017cdf602083018662017a26565b62017cee6040830185620178de565b62017cfd6060830184620178de565b95945050505050565b600060208201905062017d1d60008301846201794e565b92915050565b600060208201905062017d3a60008301846201795f565b92915050565b600060208201905062017d57600083018462017970565b92915050565b6000602082019050818103600083015262017d79818462017981565b905092915050565b600060208201905062017d98600083018462017a15565b92915050565b600060408201905062017db5600083018562017a15565b818103602083015262017dc9818462017863565b90509392505050565b600060208201905062017de9600083018462017a26565b92915050565b6000604051905081810181811067ffffffffffffffff8211171562017e1357600080fd5b8060405250919050565b600067ffffffffffffffff82111562017e3557600080fd5b602082029050602081019050919050565b600067ffffffffffffffff82111562017e5e57600080fd5b602082029050602081019050919050565b600067ffffffffffffffff82111562017e8757600080fd5b601f19601f8301169050602081019050919050565b6000819050602082019050919050565b600081519050919050565b600081519050919050565b6000602082019050919050565b600082825260208201905092915050565b600081905092915050565b600082825260208201905092915050565b600081905092915050565b600062017f148262017f85565b9050919050565b60008115159050919050565b6000819050919050565b60007fffffffff0000000000000000000000000000000000000000000000000000000082169050919050565b600062017f6a8262017f07565b9050919050565b600062017f7e8262017f07565b9050919050565b600073ffffffffffffffffffffffffffffffffffffffff82169050919050565b6000819050919050565b600060ff82169050919050565b600062017fc98262017fd0565b9050919050565b600062017fdd8262017f85565b9050919050565b600062017ff18262017ff8565b9050919050565b6000620180058262017f85565b9050919050565b6000620180198262018020565b9050919050565b60006201802d8262017f85565b9050919050565b82818337600083830152505050565b60005b838110156201806357808201518184015260208101905062018046565b8381111562018073576000848401525b50505050565b6000819050919050565b6000819050919050565b6000601f19601f8301169050919050565b620180a98162017f07565b8114620180b557600080fd5b50565b620180c38162017f1b565b8114620180cf57600080fd5b50565b620180dd8162017f27565b8114620180e957600080fd5b50565b620180f78162017f31565b81146201810357600080fd5b50565b620181118162017f5d565b81146201811d57600080fd5b50565b6201812b8162017f71565b81146201813757600080fd5b50565b600381106201814857600080fd5b50565b600381106201815957600080fd5b50565b600281106201816a57600080fd5b50565b620181788162017fa5565b81146201818457600080fd5b50565b620181928162017faf565b81146201819e57600080fd5b5056fea2646970667358221220491ccf1f1addfb7091bec2b73ddaa1e8ff470dddaba00152757d1aec7631b2e264736f6c63430007010033a264697066735822122055c5e430552a719dcd40198d94614e74d3ff4b224d0b36a21095ac9226fd139064736f6c63430007010033",
  "linkReferences": {},
  "deployedLinkReferences": {}
}