{
  "_format": "hh-sol-artifact-1",
  "contractName": "Samples",
  "sourceName": "contracts/balancer-core-v2/pools/oracle/Samples.sol",
  "abi": [
    {
      "inputs": [
        {
          "internalType": "bytes32",
          "name": "c__0x9a4ec3d7",
          "type": "bytes32"
        }
      ],
      "name": "c_0x9a4ec3d7",
      "outputs": [],
      "stateMutability": "pure",
      "type": "function"
    }
  ],
  "bytecode": "0x609c610024600b82828239805160001a607314601757fe5b30600052607381538281f3fe730000000000000000000000000000000000000000301460806040526004361060335760003560e01c8063dbef8a62146038575b600080fd5b606160048036036020811015604c57600080fd5b81019080803590602001909291905050506063565b005b5056fea26469706673582212204ddbce03f0a981b80319ddc2d9edfbf1921c2e1804495b321a6159e411152c8b64736f6c63430007010033",
  "linkReferences": {},
  "deployedLinkReferences": {}
}