{
  "_format": "hh-sol-artifact-1",
  "contractName": "Samples",
  "sourceName": "contracts/balancer-core-v2/pools/oracle/Samples.sol",
  "abi": [
    {
      "inputs": [
        {
          "internalType": "bytes32",
          "name": "c__0x2301de55",
          "type": "bytes32"
        }
      ],
      "name": "c_0x2301de55",
      "outputs": [],
      "stateMutability": "pure",
      "type": "function"
    }
  ],
  "bytecode": "0x609c610024600b82828239805160001a607314601757fe5b30600052607381538281f3fe730000000000000000000000000000000000000000301460806040526004361060335760003560e01c80634c300072146038575b600080fd5b606160048036036020811015604c57600080fd5b81019080803590602001909291905050506063565b005b5056fea264697066735822122057957eb40e179c19510f6270140763523b4257573aefcc1c3ea895b624d6f01564736f6c63430007010033",
  "linkReferences": {},
  "deployedLinkReferences": {}
}