{
  "_format": "hh-sol-artifact-1",
  "contractName": "StablePool",
  "sourceName": "contracts/balancer-core-v2/pools/stable/StablePool.sol",
  "abi": [
    {
      "inputs": [
        {
          "internalType": "contract IVault",
          "name": "vault",
          "type": "address"
        },
        {
          "internalType": "string",
          "name": "name",
          "type": "string"
        },
        {
          "internalType": "string",
          "name": "symbol",
          "type": "string"
        },
        {
          "internalType": "contract IERC20[]",
          "name": "tokens",
          "type": "address[]"
        },
        {
          "internalType": "uint256",
          "name": "amplificationParameter",
          "type": "uint256"
        },
        {
          "internalType": "uint256",
          "name": "swapFeePercentage",
          "type": "uint256"
        },
        {
          "internalType": "uint256",
          "name": "pauseWindowDuration",
          "type": "uint256"
        },
        {
          "internalType": "uint256",
          "name": "bufferPeriodDuration",
          "type": "uint256"
        },
        {
          "internalType": "address",
          "name": "owner",
          "type": "address"
        }
      ],
      "stateMutability": "nonpayable",
      "type": "constructor"
    },
    {
      "anonymous": false,
      "inputs": [
        {
          "indexed": true,
          "internalType": "address",
          "name": "owner",
          "type": "address"
        },
        {
          "indexed": true,
          "internalType": "address",
          "name": "spender",
          "type": "address"
        },
        {
          "indexed": false,
          "internalType": "uint256",
          "name": "value",
          "type": "uint256"
        }
      ],
      "name": "Approval",
      "type": "event"
    },
    {
      "anonymous": false,
      "inputs": [
        {
          "indexed": false,
          "internalType": "bool",
          "name": "paused",
          "type": "bool"
        }
      ],
      "name": "PausedStateChanged",
      "type": "event"
    },
    {
      "anonymous": false,
      "inputs": [
        {
          "indexed": false,
          "internalType": "uint256",
          "name": "swapFeePercentage",
          "type": "uint256"
        }
      ],
      "name": "SwapFeePercentageChanged",
      "type": "event"
    },
    {
      "anonymous": false,
      "inputs": [
        {
          "indexed": true,
          "internalType": "address",
          "name": "from",
          "type": "address"
        },
        {
          "indexed": true,
          "internalType": "address",
          "name": "to",
          "type": "address"
        },
        {
          "indexed": false,
          "internalType": "uint256",
          "name": "value",
          "type": "uint256"
        }
      ],
      "name": "Transfer",
      "type": "event"
    },
    {
      "inputs": [],
      "name": "DOMAIN_SEPARATOR",
      "outputs": [
        {
          "internalType": "bytes32",
          "name": "",
          "type": "bytes32"
        }
      ],
      "stateMutability": "view",
      "type": "function"
    },
    {
      "inputs": [
        {
          "internalType": "address",
          "name": "owner",
          "type": "address"
        },
        {
          "internalType": "address",
          "name": "spender",
          "type": "address"
        }
      ],
      "name": "allowance",
      "outputs": [
        {
          "internalType": "uint256",
          "name": "",
          "type": "uint256"
        }
      ],
      "stateMutability": "view",
      "type": "function"
    },
    {
      "inputs": [
        {
          "internalType": "address",
          "name": "spender",
          "type": "address"
        },
        {
          "internalType": "uint256",
          "name": "amount",
          "type": "uint256"
        }
      ],
      "name": "approve",
      "outputs": [
        {
          "internalType": "bool",
          "name": "",
          "type": "bool"
        }
      ],
      "stateMutability": "nonpayable",
      "type": "function"
    },
    {
      "inputs": [
        {
          "internalType": "address",
          "name": "account",
          "type": "address"
        }
      ],
      "name": "balanceOf",
      "outputs": [
        {
          "internalType": "uint256",
          "name": "",
          "type": "uint256"
        }
      ],
      "stateMutability": "view",
      "type": "function"
    },
    {
      "inputs": [
        {
          "internalType": "bytes32",
          "name": "c__0x28684d28",
          "type": "bytes32"
        }
      ],
      "name": "c_0x28684d28",
      "outputs": [],
      "stateMutability": "pure",
      "type": "function"
    },
    {
      "inputs": [
        {
          "internalType": "bytes32",
          "name": "c__0x4963a790",
          "type": "bytes32"
        }
      ],
      "name": "c_0x4963a790",
      "outputs": [],
      "stateMutability": "pure",
      "type": "function"
    },
    {
      "inputs": [
        {
          "internalType": "bytes32",
          "name": "c__0x4c26eefc",
          "type": "bytes32"
        }
      ],
      "name": "c_0x4c26eefc",
      "outputs": [],
      "stateMutability": "pure",
      "type": "function"
    },
    {
      "inputs": [
        {
          "internalType": "bytes32",
          "name": "c__0x6ba1b38b",
          "type": "bytes32"
        }
      ],
      "name": "c_0x6ba1b38b",
      "outputs": [],
      "stateMutability": "pure",
      "type": "function"
    },
    {
      "inputs": [
        {
          "internalType": "bytes32",
          "name": "c__0x84164136",
          "type": "bytes32"
        }
      ],
      "name": "c_0x84164136",
      "outputs": [],
      "stateMutability": "pure",
      "type": "function"
    },
    {
      "inputs": [
        {
          "internalType": "bytes32",
          "name": "c__0xa4924c18",
          "type": "bytes32"
        }
      ],
      "name": "c_0xa4924c18",
      "outputs": [],
      "stateMutability": "pure",
      "type": "function"
    },
    {
      "inputs": [
        {
          "internalType": "bytes32",
          "name": "c__0xbf0cfa36",
          "type": "bytes32"
        }
      ],
      "name": "c_0xbf0cfa36",
      "outputs": [],
      "stateMutability": "pure",
      "type": "function"
    },
    {
      "inputs": [
        {
          "internalType": "bytes32",
          "name": "c__0xc3d2df53",
          "type": "bytes32"
        }
      ],
      "name": "c_0xc3d2df53",
      "outputs": [],
      "stateMutability": "pure",
      "type": "function"
    },
    {
      "inputs": [
        {
          "internalType": "bytes32",
          "name": "c__0xf5e59c7a",
          "type": "bytes32"
        }
      ],
      "name": "c_0xf5e59c7a",
      "outputs": [],
      "stateMutability": "pure",
      "type": "function"
    },
    {
      "inputs": [],
      "name": "decimals",
      "outputs": [
        {
          "internalType": "uint8",
          "name": "",
          "type": "uint8"
        }
      ],
      "stateMutability": "pure",
      "type": "function"
    },
    {
      "inputs": [
        {
          "internalType": "address",
          "name": "spender",
          "type": "address"
        },
        {
          "internalType": "uint256",
          "name": "amount",
          "type": "uint256"
        }
      ],
      "name": "decreaseApproval",
      "outputs": [
        {
          "internalType": "bool",
          "name": "",
          "type": "bool"
        }
      ],
      "stateMutability": "nonpayable",
      "type": "function"
    },
    {
      "inputs": [
        {
          "internalType": "bytes4",
          "name": "selector",
          "type": "bytes4"
        }
      ],
      "name": "getActionId",
      "outputs": [
        {
          "internalType": "bytes32",
          "name": "",
          "type": "bytes32"
        }
      ],
      "stateMutability": "view",
      "type": "function"
    },
    {
      "inputs": [],
      "name": "getAmplificationParameter",
      "outputs": [
        {
          "internalType": "uint256",
          "name": "",
          "type": "uint256"
        }
      ],
      "stateMutability": "view",
      "type": "function"
    },
    {
      "inputs": [],
      "name": "getAuthorizer",
      "outputs": [
        {
          "internalType": "contract IAuthorizer",
          "name": "",
          "type": "address"
        }
      ],
      "stateMutability": "view",
      "type": "function"
    },
    {
      "inputs": [],
      "name": "getOwner",
      "outputs": [
        {
          "internalType": "address",
          "name": "",
          "type": "address"
        }
      ],
      "stateMutability": "view",
      "type": "function"
    },
    {
      "inputs": [],
      "name": "getPausedState",
      "outputs": [
        {
          "internalType": "bool",
          "name": "paused",
          "type": "bool"
        },
        {
          "internalType": "uint256",
          "name": "pauseWindowEndTime",
          "type": "uint256"
        },
        {
          "internalType": "uint256",
          "name": "bufferPeriodEndTime",
          "type": "uint256"
        }
      ],
      "stateMutability": "view",
      "type": "function"
    },
    {
      "inputs": [],
      "name": "getPoolId",
      "outputs": [
        {
          "internalType": "bytes32",
          "name": "",
          "type": "bytes32"
        }
      ],
      "stateMutability": "view",
      "type": "function"
    },
    {
      "inputs": [],
      "name": "getRate",
      "outputs": [
        {
          "internalType": "uint256",
          "name": "",
          "type": "uint256"
        }
      ],
      "stateMutability": "view",
      "type": "function"
    },
    {
      "inputs": [],
      "name": "getSwapFeePercentage",
      "outputs": [
        {
          "internalType": "uint256",
          "name": "",
          "type": "uint256"
        }
      ],
      "stateMutability": "view",
      "type": "function"
    },
    {
      "inputs": [],
      "name": "getVault",
      "outputs": [
        {
          "internalType": "contract IVault",
          "name": "",
          "type": "address"
        }
      ],
      "stateMutability": "view",
      "type": "function"
    },
    {
      "inputs": [
        {
          "internalType": "address",
          "name": "spender",
          "type": "address"
        },
        {
          "internalType": "uint256",
          "name": "amount",
          "type": "uint256"
        }
      ],
      "name": "increaseApproval",
      "outputs": [
        {
          "internalType": "bool",
          "name": "",
          "type": "bool"
        }
      ],
      "stateMutability": "nonpayable",
      "type": "function"
    },
    {
      "inputs": [],
      "name": "name",
      "outputs": [
        {
          "internalType": "string",
          "name": "",
          "type": "string"
        }
      ],
      "stateMutability": "view",
      "type": "function"
    },
    {
      "inputs": [
        {
          "internalType": "address",
          "name": "owner",
          "type": "address"
        }
      ],
      "name": "nonces",
      "outputs": [
        {
          "internalType": "uint256",
          "name": "",
          "type": "uint256"
        }
      ],
      "stateMutability": "view",
      "type": "function"
    },
    {
      "inputs": [
        {
          "internalType": "bytes32",
          "name": "poolId",
          "type": "bytes32"
        },
        {
          "internalType": "address",
          "name": "sender",
          "type": "address"
        },
        {
          "internalType": "address",
          "name": "recipient",
          "type": "address"
        },
        {
          "internalType": "uint256[]",
          "name": "balances",
          "type": "uint256[]"
        },
        {
          "internalType": "uint256",
          "name": "lastChangeBlock",
          "type": "uint256"
        },
        {
          "internalType": "uint256",
          "name": "protocolSwapFeePercentage",
          "type": "uint256"
        },
        {
          "internalType": "bytes",
          "name": "userData",
          "type": "bytes"
        }
      ],
      "name": "onExitPool",
      "outputs": [
        {
          "internalType": "uint256[]",
          "name": "",
          "type": "uint256[]"
        },
        {
          "internalType": "uint256[]",
          "name": "",
          "type": "uint256[]"
        }
      ],
      "stateMutability": "nonpayable",
      "type": "function"
    },
    {
      "inputs": [
        {
          "internalType": "bytes32",
          "name": "poolId",
          "type": "bytes32"
        },
        {
          "internalType": "address",
          "name": "sender",
          "type": "address"
        },
        {
          "internalType": "address",
          "name": "recipient",
          "type": "address"
        },
        {
          "internalType": "uint256[]",
          "name": "balances",
          "type": "uint256[]"
        },
        {
          "internalType": "uint256",
          "name": "lastChangeBlock",
          "type": "uint256"
        },
        {
          "internalType": "uint256",
          "name": "protocolSwapFeePercentage",
          "type": "uint256"
        },
        {
          "internalType": "bytes",
          "name": "userData",
          "type": "bytes"
        }
      ],
      "name": "onJoinPool",
      "outputs": [
        {
          "internalType": "uint256[]",
          "name": "",
          "type": "uint256[]"
        },
        {
          "internalType": "uint256[]",
          "name": "",
          "type": "uint256[]"
        }
      ],
      "stateMutability": "nonpayable",
      "type": "function"
    },
    {
      "inputs": [
        {
          "components": [
            {
              "internalType": "enum IVault.SwapKind",
              "name": "kind",
              "type": "uint8"
            },
            {
              "internalType": "contract IERC20",
              "name": "tokenIn",
              "type": "address"
            },
            {
              "internalType": "contract IERC20",
              "name": "tokenOut",
              "type": "address"
            },
            {
              "internalType": "uint256",
              "name": "amount",
              "type": "uint256"
            },
            {
              "internalType": "bytes32",
              "name": "poolId",
              "type": "bytes32"
            },
            {
              "internalType": "uint256",
              "name": "lastChangeBlock",
              "type": "uint256"
            },
            {
              "internalType": "address",
              "name": "from",
              "type": "address"
            },
            {
              "internalType": "address",
              "name": "to",
              "type": "address"
            },
            {
              "internalType": "bytes",
              "name": "userData",
              "type": "bytes"
            }
          ],
          "internalType": "struct IPoolSwapStructs.SwapRequest",
          "name": "swapRequest",
          "type": "tuple"
        },
        {
          "internalType": "uint256[]",
          "name": "balances",
          "type": "uint256[]"
        },
        {
          "internalType": "uint256",
          "name": "indexIn",
          "type": "uint256"
        },
        {
          "internalType": "uint256",
          "name": "indexOut",
          "type": "uint256"
        }
      ],
      "name": "onSwap",
      "outputs": [
        {
          "internalType": "uint256",
          "name": "",
          "type": "uint256"
        }
      ],
      "stateMutability": "view",
      "type": "function"
    },
    {
      "inputs": [
        {
          "internalType": "address",
          "name": "owner",
          "type": "address"
        },
        {
          "internalType": "address",
          "name": "spender",
          "type": "address"
        },
        {
          "internalType": "uint256",
          "name": "value",
          "type": "uint256"
        },
        {
          "internalType": "uint256",
          "name": "deadline",
          "type": "uint256"
        },
        {
          "internalType": "uint8",
          "name": "v",
          "type": "uint8"
        },
        {
          "internalType": "bytes32",
          "name": "r",
          "type": "bytes32"
        },
        {
          "internalType": "bytes32",
          "name": "s",
          "type": "bytes32"
        }
      ],
      "name": "permit",
      "outputs": [],
      "stateMutability": "nonpayable",
      "type": "function"
    },
    {
      "inputs": [
        {
          "internalType": "bytes32",
          "name": "poolId",
          "type": "bytes32"
        },
        {
          "internalType": "address",
          "name": "sender",
          "type": "address"
        },
        {
          "internalType": "address",
          "name": "recipient",
          "type": "address"
        },
        {
          "internalType": "uint256[]",
          "name": "balances",
          "type": "uint256[]"
        },
        {
          "internalType": "uint256",
          "name": "lastChangeBlock",
          "type": "uint256"
        },
        {
          "internalType": "uint256",
          "name": "protocolSwapFeePercentage",
          "type": "uint256"
        },
        {
          "internalType": "bytes",
          "name": "userData",
          "type": "bytes"
        }
      ],
      "name": "queryExit",
      "outputs": [
        {
          "internalType": "uint256",
          "name": "bptIn",
          "type": "uint256"
        },
        {
          "internalType": "uint256[]",
          "name": "amountsOut",
          "type": "uint256[]"
        }
      ],
      "stateMutability": "nonpayable",
      "type": "function"
    },
    {
      "inputs": [
        {
          "internalType": "bytes32",
          "name": "poolId",
          "type": "bytes32"
        },
        {
          "internalType": "address",
          "name": "sender",
          "type": "address"
        },
        {
          "internalType": "address",
          "name": "recipient",
          "type": "address"
        },
        {
          "internalType": "uint256[]",
          "name": "balances",
          "type": "uint256[]"
        },
        {
          "internalType": "uint256",
          "name": "lastChangeBlock",
          "type": "uint256"
        },
        {
          "internalType": "uint256",
          "name": "protocolSwapFeePercentage",
          "type": "uint256"
        },
        {
          "internalType": "bytes",
          "name": "userData",
          "type": "bytes"
        }
      ],
      "name": "queryJoin",
      "outputs": [
        {
          "internalType": "uint256",
          "name": "bptOut",
          "type": "uint256"
        },
        {
          "internalType": "uint256[]",
          "name": "amountsIn",
          "type": "uint256[]"
        }
      ],
      "stateMutability": "nonpayable",
      "type": "function"
    },
    {
      "inputs": [
        {
          "internalType": "bool",
          "name": "paused",
          "type": "bool"
        }
      ],
      "name": "setPaused",
      "outputs": [],
      "stateMutability": "nonpayable",
      "type": "function"
    },
    {
      "inputs": [
        {
          "internalType": "uint256",
          "name": "swapFeePercentage",
          "type": "uint256"
        }
      ],
      "name": "setSwapFeePercentage",
      "outputs": [],
      "stateMutability": "nonpayable",
      "type": "function"
    },
    {
      "inputs": [],
      "name": "symbol",
      "outputs": [
        {
          "internalType": "string",
          "name": "",
          "type": "string"
        }
      ],
      "stateMutability": "view",
      "type": "function"
    },
    {
      "inputs": [],
      "name": "totalSupply",
      "outputs": [
        {
          "internalType": "uint256",
          "name": "",
          "type": "uint256"
        }
      ],
      "stateMutability": "view",
      "type": "function"
    },
    {
      "inputs": [
        {
          "internalType": "address",
          "name": "recipient",
          "type": "address"
        },
        {
          "internalType": "uint256",
          "name": "amount",
          "type": "uint256"
        }
      ],
      "name": "transfer",
      "outputs": [
        {
          "internalType": "bool",
          "name": "",
          "type": "bool"
        }
      ],
      "stateMutability": "nonpayable",
      "type": "function"
    },
    {
      "inputs": [
        {
          "internalType": "address",
          "name": "sender",
          "type": "address"
        },
        {
          "internalType": "address",
          "name": "recipient",
          "type": "address"
        },
        {
          "internalType": "uint256",
          "name": "amount",
          "type": "uint256"
        }
      ],
      "name": "transferFrom",
      "outputs": [
        {
          "internalType": "bool",
          "name": "",
          "type": "bool"
        }
      ],
      "stateMutability": "nonpayable",
      "type": "function"
    }
  ],
  "bytecode": "0x6104006040527f6e71edae12b1b97f4d1f60370fef10105fa2faae0126114a169c64845d6126c961012090815250348015630000003b57600080fd5b50604051630001560e380380630001560e8339818101604052810190630000006591906300002bc3565b88888888878787878760008888888888888882828888816040518060400160405280600181526020017f3100000000000000000000000000000000000000000000000000000000000000815250863373ffffffffffffffffffffffffffffffffffffffff1660001b63000001037f8ec5ed39e0277cf6b5ac7bfbea69561e0ab13d0f90291fda9f21b6ff5febaf0960001b6300001cbb60201b60201c565b63000001397fb3047d90d74037e2adb2df89b6f86a7b7c8bf74ab7f36f7e5570b17d25c7743060001b6300001cbb60201b60201c565b630000016f7fcde082662b671d959326c5490179744ff7f489da54d7e3b0e588ca9e6054959260001b6300001cbb60201b60201c565b80608081815250505063000001ae7f845048985995b7f1411d18d7948c02ec2bf5eca6401ba638adb4051af4c2191d60001b6300001cbe60201b60201c565b63000001e47fc3c8f60fc83d7d9090fdd911351f9190ebe429d000b024e9396070d2d78f428560001b6300001cbe60201b60201c565b630000021a7f1d167de1a75b4a1dca8359b7f4c17b1705cc862ce4d137f144168ec6e6a47fe560001b6300001cbe60201b60201c565b8073ffffffffffffffffffffffffffffffffffffffff1660a08173ffffffffffffffffffffffffffffffffffffffff1660601b815250505063000002887fee98174f2fec6f5039773d74e605ef9eca5c1cd66e97227a4db2801fa44649d460001b6300001cc160201b60201c565b63000002be7f4259111439657f52cad82bf951b84cb17ad89c9a75c0a453b11471980df5b70460001b6300001cc160201b60201c565b63000002f47f694727719f1c716e137bf99300414ab3971da34628c5fdb5e3aefb346ab250cd60001b6300001cc160201b60201c565b818051906020012060c0818152505063000003397fc80ca99f8a52e2364dede2f196e5eea0d3e5cbb3d39b3c583eabdce5b2eba33860001b6300001cc160201b60201c565b630000036f7fd79623f57f644f5deaf66895ac05cf4d0efe2db6dc309aa7731ca0cce6c6c42060001b6300001cc160201b60201c565b808051906020012060e0818152505063000003b47f3595ce0dcb0082ced7c03525364c4e77b55c5765b539ff680b322eb52d68007860001b6300001cc160201b60201c565b63000003ea7fce462f00afa59e5231a71f65b788fd6e74c839c46485038b23c5240219a6728160001b6300001cc160201b60201c565b7f8b73c3c69bb8fe3d512ecc4cf759cc79239f7b179b0ffacaa9a75d522b39400f61010081815250505050630000044b7f81b292b7c2f738fe1ef398ecf484c30fdcca7a1fa0fdcec6133e69f7d952feb760001b6300001cc460201b60201c565b63000004817f0e8922ff6774c4bdde3a74a12158ca1888e60f5a3c45555ddd81e8785d5ee3f260001b6300001cc460201b60201c565b63000004b77f59e4bf632185b91833f20a14a0ad444be3eecf2ae84a218ca7bc6928a7ff258560001b6300001cc460201b60201c565b816003908051906020019063000004d19291906300002954565b5063000005087f28e246c5f6155f806e0edae691917dbdb6f861567b1c6bf6fd24b0d5c4ca1b7d60001b6300001cc460201b60201c565b630000053e7f6f23c232081ae254a1779744f064adfc759d8456694b907fe454eb09fecd7c3c60001b6300001cc460201b60201c565b806004908051906020019063000005589291906300002954565b50505063000005917fe087a381d2efdf77b4bb9deb1d9c49dd7a7b8850352e08f2237b146ed960df0060001b6300001cc760201b60201c565b63000005c77fd5bd2a2b38b208dfe30c35c9f2d296d8724d15c14b57d076eb3ed9864adf5cf260001b6300001cc760201b60201c565b63000005fd7f440b23f6eae421802afd826f944e150ff37cf67006559664d92ff81aac1bb4f260001b6300001cc760201b60201c565b63000006196276a7008311156101946300001cca60201b60201c565b630000064f7fa61c306c7b6e0fe7490bf46f0ac35a3616024e80a4df7a4bc45e6de19ba12b2760001b6300001cc760201b60201c565b63000006857fcc5d9c2ea50b53fbc5bd55dd83fc9eabd468cdc54db709760ba22684ff909cf660001b6300001cc760201b60201c565b63000006a162278d008211156101956300001cca60201b60201c565b63000006d77f40a9c3d0b92872242e7f21fd6cf84e9cfff37a117dcf54fc2e2669e09e526ae160001b6300001cc760201b60201c565b630000070d7f91f1dda37d727c42e393bf864dac6469eabb7aea93126d07fec6d3a883e966f160001b6300001cc760201b60201c565b60008242019050630000074a7fd10e525ab2b61302f916eb6f9b5bff8779466f7205e9f26f93dd222e4ff33cf960001b6300001cc760201b60201c565b63000007807f95e023026f40f7e8c70f2daf4b9c6a714fc77d1ca2c06f447b10468970058a8d60001b6300001cc760201b60201c565b80610140818152505063000007bf7f7519a6a09b3a1dbb48879a23106bafbe17739672feffe0947a75620fdd70024660001b6300001cc760201b60201c565b63000007f57f34afba99b9c10b73ccc93d9397070ac2cd56223e20282eba2d1237004c15be7260001b6300001cc760201b60201c565b818101610160818152505050505063000008397f5e8cc5e9f41bb87e25341ee9e6ef7cde0a930907966e5fa61b379d77028e9a6c60001b6300001ce960201b60201c565b630000086f7f894011d70322766fd679e27053c55f29447fe1a1b76557c569bde83e193a76ab60001b6300001ce960201b60201c565b63000008a57f1f0d6d2ac81ed1499e24e864276fe5d2f28dbef283b5de4845fcbb578f6ec24360001b6300001ce960201b60201c565b63000008bf60028651101560c86300001cca60201b60201c565b63000008f57f47bdb80cad4a70c5f8a74f5ce29244c86a1139744e3b3776397d0b61cc3ed86960001b6300001ce960201b60201c565b630000092b7f43d6cddc28d5c55fde0a78c9d5a29a56dc12942a6cd37bba77cd8dc1e759e1e160001b6300001ce960201b60201c565b630000094560088651111560c96300001cca60201b60201c565b630000097b7f5afb7674b8a9c9020890c007dca0ca4f3c68e46849c035f3f915833bfe7ca85e60001b6300001ce960201b60201c565b63000009b17f90bf0f3fa3990f04acf97b7b6d28c99ee046a1211b12996b2ee995a68ecccba860001b6300001ce960201b60201c565b63000009ca856300001cec60201b6300003d081760201c565b6300000a007f91e9815a574648a0a269dffb4fc4c15afb3c3e69b0b6aa9def9ea9c10e9930ca60001b6300001ce960201b60201c565b6300000a367f4c86656a23bb680fba20c725f0bcbc41afd4f9ea8995cad0f11d0b1baf10bf5960001b6300001ce960201b60201c565b6300000a49846300001e4c60201b60201c565b6300000a7f7f7b0e65ab2ed272faa99d3a8c3716e4217bf3a1d2ff6a251a88a1c16b2c014e7960001b6300001ce960201b60201c565b6300000ab57f4b1f0d647881b7cb7b2a1597f1b072c6469e46e42db938117dc06bb062c6f7b960001b6300001ce960201b60201c565b60008973ffffffffffffffffffffffffffffffffffffffff166309b2760f8a6040518263ffffffff1660e01b81526004016300000af491906300002f00565b602060405180830381600087803b1580156300000b1057600080fd5b505af11580156300000b26573d6000803e3d6000fd5b505050506040513d601f19601f820116820180604052508101906300000b4e91906300002b94565b90506300000b867fa03df5a14a577ad184f5b96681a945a7643317bdb33d76854f5ba0f7186c18ef60001b6300001ce960201b60201c565b6300000bbc7f3c2658d1907fb6d6ac3f386b79214f31f5c4be8cd26f2a0425f546f47e92030660001b6300001ce960201b60201c565b8973ffffffffffffffffffffffffffffffffffffffff166366a9c7d28288895167ffffffffffffffff811180156300000bf457600080fd5b506040519080825280602002602001820160405280156300000c255781602001602082028036833780820191505090505b506040518463ffffffff1660e01b81526004016300000c48939291906300002eaf565b600060405180830381600087803b1580156300000c6457600080fd5b505af11580156300000c7a573d6000803e3d6000fd5b505050506300000cb47f0fb0f686c6ec259d79e70c628ffc081805845a4cb46a40cb1582a7ea288f7b9460001b6300001ce960201b60201c565b6300000cea7f6574b428938da3b3f9be9a76e55b4490597aa1303db0b71f4b4b243d06e29ae460001b6300001ce960201b60201c565b8973ffffffffffffffffffffffffffffffffffffffff166101808173ffffffffffffffffffffffffffffffffffffffff1660601b815250506300000d587ffd01f3ab91a9950951b62bc9c8b62f6df8a031b1deb7e97234c946586ca84c1760001b6300001ce960201b60201c565b6300000d8e7f97f5fa25afe2fb8ce8a850f3c5681674da737105fe38e321d137b7e36c092b1360001b6300001ce960201b60201c565b806101a081815250506300000dcd7f406b2d86b30e116c40d5ad7283865330fad99ac3db19b9f3d7ce2f503dc5a6d660001b6300001ce960201b60201c565b6300000e037fcb085595ad6ce93dbfefd28da8d590f103e269a6107fa7a7ed673b4dc0597fb160001b6300001ce960201b60201c565b85516101c081815250506300000e437f18806cf846ba9444fb6971e90026cdcb83aa23de7971d02d0aaa2c265ea099e360001b6300001ce960201b60201c565b6300000e797f49eb61e5e9a0b583c216cacd2e5310910100702e276aebae49c564c8f55a39e260001b6300001ce960201b60201c565b60008651116300000e8d5760006300000ea5565b856000815181106300000e9c57fe5b60200260200101515b73ffffffffffffffffffffffffffffffffffffffff166101e08173ffffffffffffffffffffffffffffffffffffffff1660601b815250506300000f127f18c4e61960ca0b0d5d45c6258a67fcb4274f5665ec3e4e55e76ee944c0c4b36a60001b6300001ce960201b60201c565b6300000f487f5caa07eefb89f1cea98ca3cbdbec501b17db7412f37fc90009c9f9bf050aad3560001b6300001ce960201b60201c565b60018651116300000f5c5760006300000f74565b856001815181106300000f6b57fe5b60200260200101515b73ffffffffffffffffffffffffffffffffffffffff166102008173ffffffffffffffffffffffffffffffffffffffff1660601b815250506300000fe17f4a2f5b6dc779481c04cf6961d7eb2241f537349b4018341b7dff8929942a9bcf60001b6300001ce960201b60201c565b63000010177f4c8bdb4f771e62b6911ac1e0e57818ab40d2a8507e42a10302f28baa4d38b25a60001b6300001ce960201b60201c565b6002865111630000102b5760006300001043565b85600281518110630000103a57fe5b60200260200101515b73ffffffffffffffffffffffffffffffffffffffff166102208173ffffffffffffffffffffffffffffffffffffffff1660601b8152505063000010b07f3da0ea8ad092121c163da32882693e0e2db4acf48e40bd2f8ca602a1bc56bda260001b6300001ce960201b60201c565b63000010e67f290f23b90944da1233b1ed277b37eaa76c3ce4626c0d325a24a628c948f97a9d60001b6300001ce960201b60201c565b600386511163000010fa5760006300001112565b85600381518110630000110957fe5b60200260200101515b73ffffffffffffffffffffffffffffffffffffffff166102408173ffffffffffffffffffffffffffffffffffffffff1660601b81525050630000117f7fae8428c3d2519230b8f4a0ee6a6155a67f401de00967a22b914f8b7f2c7ccda360001b6300001ce960201b60201c565b63000011b57f22f7ad46f6f540a0212251864658f488cc618a9e3e7ed67a0115edc3e418104b60001b6300001ce960201b60201c565b600486511163000011c957600063000011e1565b8560048151811063000011d857fe5b60200260200101515b73ffffffffffffffffffffffffffffffffffffffff166102608173ffffffffffffffffffffffffffffffffffffffff1660601b81525050630000124e7f293611b89b3f06e8c85f41787f25d2b3bcf7539349541c29a31aae7c485e0f7560001b6300001ce960201b60201c565b63000012847f4ca74c96570f55d18097fbf818b814420098e92f67d86f8eab22d5f591efe62760001b6300001ce960201b60201c565b6005865111630000129857600063000012b0565b8560058151811063000012a757fe5b60200260200101515b73ffffffffffffffffffffffffffffffffffffffff166102808173ffffffffffffffffffffffffffffffffffffffff1660601b81525050630000131d7fe866b20c0b8ae786b95d369e68fde4f9a342cb3406120bdd9559512fb231045c60001b6300001ce960201b60201c565b63000013537f6c0f26a3e25ba08bee596d1ba4224097bba829c66c0e804cde29e1426f40418060001b6300001ce960201b60201c565b60068651116300001367576000630000137f565b85600681518110630000137657fe5b60200260200101515b73ffffffffffffffffffffffffffffffffffffffff166102a08173ffffffffffffffffffffffffffffffffffffffff1660601b8152505063000013ec7fed5b49753ce39a96f2e179af728ecaf5e088e39eddb6b82eddeb211c0faba14460001b6300001ce960201b60201c565b63000014227fa901663d3adc02bebaa784d7d8e13bbc95612852d11c33d1f04457bebbe7850660001b6300001ce960201b60201c565b60078651116300001436576000630000144e565b85600781518110630000144557fe5b60200260200101515b73ffffffffffffffffffffffffffffffffffffffff166102c08173ffffffffffffffffffffffffffffffffffffffff1660601b8152505063000014bb7f8baf3abfad7c4a898372e09615b8b32052d339d2fd10fadcf7fac62ab980083460001b6300001ce960201b60201c565b63000014f17fdbb37eb9b68af138a6a1707507f2c3a0b31d25d9552d02d66d032df534c6236760001b6300001ce960201b60201c565b60008651116300001505576000630000152f565b630000152e86600081518110630000151957fe5b602002602001015163000020b460201b60201c565b5b6102e08181525050630000156d7f449cb9f56fe8bf63374f7da2d45b57aa2099a93f288eb61bd68dce166ab3bc8360001b6300001ce960201b60201c565b63000015a37f070afe3d034047013e8613f3d939f622000e1974e25a815e55d2b7e888d2d56a60001b6300001ce960201b60201c565b600186511163000015b757600063000015e1565b63000015e08660018151811063000015cb57fe5b602002602001015163000020b460201b60201c565b5b6103008181525050630000161f7f0daafb9ebf166f5955514f416beea84f6ad716c7e7a991d38fbcb52d4671462260001b6300001ce960201b60201c565b63000016557f2a965be88de027925b277f209159b565a60ec5652ffafafe26c0d87867fbf72b60001b6300001ce960201b60201c565b600286511163000016695760006300001693565b630000169286600281518110630000167d57fe5b602002602001015163000020b460201b60201c565b5b610320818152505063000016d17f52c574f52b71b5ff2a5fc32eb44b57cbc080d978aaa58ac56dd2e5dda623a8f960001b6300001ce960201b60201c565b63000017077fdab643a7f315a0dff5855cb8feffa977748b87c9e9e46747634a0c3c1f9279f560001b6300001ce960201b60201c565b6003865111630000171b5760006300001745565b630000174486600381518110630000172f57fe5b602002602001015163000020b460201b60201c565b5b610340818152505063000017837fd497257ae604bc80c9a8ed6bdcaccb81b32c61b78f90a1ce44306958b660c6b660001b6300001ce960201b60201c565b63000017b97f1a25bc5cd199c4f85979069ad1237632ea417906257867250db5cb1c8bd86c0b60001b6300001ce960201b60201c565b600486511163000017cd57600063000017f7565b63000017f68660048151811063000017e157fe5b602002602001015163000020b460201b60201c565b5b610360818152505063000018357f5964469a0eb9d73f3fcc6444301bd146aa2fbe4ea93b91878f7f419d758a3f6460001b6300001ce960201b60201c565b630000186b7fd1337e523a93b18f3babd1dd913d2c7ee2fdd3cd35f003ac4e2ab053bd7f268160001b6300001ce960201b60201c565b6005865111630000187f57600063000018a9565b63000018a886600581518110630000189357fe5b602002602001015163000020b460201b60201c565b5b610380818152505063000018e77f690ac2daabc3b7bedaba78d9a96fc15e9fef495c6a475e3bba8ecfe3a68baae160001b6300001ce960201b60201c565b630000191d7f9333c2d383d424acf681ada8549ec3d213adeeface50f8768ab1f44e01bb10f060001b6300001ce960201b60201c565b60068651116300001931576000630000195b565b630000195a86600681518110630000194557fe5b602002602001015163000020b460201b60201c565b5b6103a0818152505063000019997fe4195cc9495520f9d89c90e33594b664b719b03f181c02e25fd52c07f5bdc10f60001b6300001ce960201b60201c565b63000019cf7fe8fb6018e8706660672af7348b134bc8baf8de1485d3cc320dece2cbabde5a3760001b6300001ce960201b60201c565b600786511163000019e35760006300001a0d565b6300001a0c8660078151811063000019f757fe5b602002602001015163000020b460201b60201c565b5b6103c08181525050505050505050505050506300001a557f19dd3b6f2f2f15d6fc56f0492e9ce2b29d4a6e6694b355bddf8128eaea15ce8260001b63000022e960201b60201c565b50505050505050506300001a937ffd2818571b9970e1c6712f78a67dead704212ef0c54b33eff5b0e3a60d89733b60001b63000022ec60201b60201c565b6300001ac97fa9f0b0da4848154185d4ebf4f4926a830d9fc03020b011320dda20aa4aab913560001b63000022ec60201b60201c565b6300001aff7f4047f2e39018ed98c4d187c1e9ef086c69ac2bcf9ccfc687807978b016c67ed760001b63000022ec60201b60201c565b6300001b20670de0b6b3a764000086101561012c6300001cca60201b60201c565b6300001b567f3e5bd80eb728e67c088e2749013fcea2c1a8b70e952c2bd6aa400974fdec440160001b63000022ec60201b60201c565b6300001b8c7f2404513a1b852a2c9051c78d6da9b25adc29eeebc1a0d92664e0c44d39b4b09e60001b63000022ec60201b60201c565b6300001baf69010f0cf064dd5920000086111561012d6300001cca60201b60201c565b6300001be57f3eabec07d481a5fc7c0b94ff721ef8207f25ebcd7fa89258952dffe5b89949e160001b63000022ec60201b60201c565b6300001c1b7f8644217cf1bf3181360760ab86d588831bf54913726db18827b5034f20ad393f60001b63000022ec60201b60201c565b6300001c3660058751111561012f6300001cca60201b60201c565b6300001c6c7f1ea126cd7611dbe7209d958cc0486396e112b9192e11c128be03971922b2e34960001b63000022ec60201b60201c565b6300001ca27fa55517d830a8a382f9e97d4c8d847061ef902d1c89f6bf6754437a0e8bf576e060001b63000022ec60201b60201c565b846103e0818152505050505050505050505063000031f8565b50565b50565b50565b50565b50565b816300001ce5576300001ce48163000022ef60201b60201c565b5b5050565b50565b6300001d227ff99bacf880df8e7b17f821546b3dc04e138a0067b4cf375acb955b5fde24a4b560001b630000235f60201b60201c565b6300001d587fa2b92ae643152f689b17e4838c1f77b9a07dc6cab922d4ed3413a34be499020260001b630000235f60201b60201c565b6300001d8e7fdd971bdee478c838f4a32666e873637247e6e0748ab1a3f811ff2b948d8aee0960001b630000235f60201b60201c565b60606300001dc67ff234278b1ba05c670bfa3a036e75cfef1535aa24f41a09fb219b9427ab82e17760001b630000235f60201b60201c565b8190506300001dff7f8c1e498e11453d5c0e5f454f19962598d679c2cc20826cc568f1c3d970636e8b60001b630000235f60201b60201c565b6300001e357fa1e979627b6f19eed3dc9648ba642491f4e036411d0eb3ebd82f4eb2cb163e3f60001b630000235f60201b60201c565b6300001e4881630000236260201b60201c565b5050565b6300001e827f15d95f31e3d8f03151acd877860824e2519b31cd2266b6fba4edb44cbdb6c22260001b6300001ce960201b60201c565b6300001eb87f38ad2a21f4d1c04e6cb0f080d5cdd6d3022ddf45c9f377671946cd117d822bd160001b6300001ce960201b60201c565b6300001eee7f3e36b14fce78b6bf0464904742fa4c0a6613e679a9a28ebe53dca71fe4e60bf660001b6300001ce960201b60201c565b6300001f0b64e8d4a5100082101560cb6300001cca60201b60201c565b6300001f417fd60a4f70eb6053527b4b053cd5a77b5bace58afa8e8e75dfd50ef74e4af1c1e160001b6300001ce960201b60201c565b6300001f777f78b15eda81ed3b086390139801e79321ec47ce9dd0ddddadda5f61ad8f0ee6dc60001b6300001ce960201b60201c565b6300001f9767016345785d8a000082111560ca6300001cca60201b60201c565b6300001fcd7fe790af49b7039ad5804739366b3f4b00b66d6125a6a7b5dc6e60fb67c69dcf3860001b6300001ce960201b60201c565b63000020037fc3448cf910456c71319f93b4eed444d0b4b3beb4f18162d29fb0650e19dcb70360001b6300001ce960201b60201c565b8060078190555063000020407f5569b07c075afff8b8336bd4457561ad9d7ac55a0a2be9314e7a0a03656a72a260001b6300001ce960201b60201c565b63000020767fd02170ba3f9e153c416243c66b46d40d5b3d10b1565f5c695620da523ade58c460001b6300001ce960201b60201c565b7fa9ba3ffe0b6c366b81232caab38605a0699ad5398d6cce76f91ee809e322dafc8160405163000020a991906300002f1f565b60405180910390a150565b600063000020ec7f63095e8e4e0ff28e3a3e1af8fb1b53b06158a4deee5b3580ce5c9db83a88d30e60001b6300001ce960201b60201c565b63000021227fc6bb2c3eaf31621465752079291576a393b261eed25ce7c189c07d7424799f1560001b6300001ce960201b60201c565b63000021587f0f73645344898290a6869b8eb4767f57b06666967fa834adace171dd61b00f0e60001b6300001ce960201b60201c565b60008273ffffffffffffffffffffffffffffffffffffffff1663313ce5676040518163ffffffff1660e01b815260040160206040518083038186803b15801563000021a257600080fd5b505afa15801563000021b8573d6000803e3d6000fd5b505050506040513d601f19601f8201168201806040525081019063000021e091906300002cfd565b60ff169050630000221b7fdb94b807acc16dc0351509466ed7f18a5b86990e0d4dece01bb05bc45b8692a160001b6300001ce960201b60201c565b63000022517f7687ba6dbc683ff450abc962e2a5fa82bf326854709a3080aec185049111072e60001b6300001ce960201b60201c565b6000630000226e60128363000027ac60201b6300003e301760201c565b905063000022a67f10e4789b0dedd47f79e57e4dfdfd866f20898d2c3e96c4e2ddb79a4eb144934960001b6300001ce960201b60201c565b63000022dc7f20935259226d30e245587eac8616ad6080969b2e239252804975c5c00fab7b2760001b6300001ce960201b60201c565b80600a0a92505050919050565b50565b50565b6030600a820601600a820491506030600a830601600a830492506030600a8406018060101b8260081b8401016642414c230000000160c81b7f08c379a000000000000000000000000000000000000000000000000000000000600052602060045260076024528060445260646000fd5b50565b63000023987ff81347eb68f16450d5e669cebec6ee7a1fa5ac5ea54cd0cdcca39116f645fa5160001b630000235f60201b60201c565b63000023ce7fe2a1376ebe4e4cec489f9744b050322118d55b97aa16438a57ddde1335a14c8f60001b630000235f60201b60201c565b63000024047f527bb7a14e0d56ef6331f8d18810dc69d55965123a043ae607b318951a18a68160001b630000235f60201b60201c565b60028151101563000024b95763000024467f9afca44e5a82aedd5e366b527c36bdc4739ee9ac3bc7d768ec09ebd698c8eef560001b630000235f60201b60201c565b630000247c7f1c6a4a9803e7aa3220d0727f0908a9b07a4f7495fc3876092cfbe666b353d7cc60001b630000235f60201b60201c565b63000024b27fef223087e97cb97d037249402a85ea171ac9fea3d63d1de605fd9141125becfa60001b630000235f60201b60201c565b63000027a9565b63000024ef7f81e9a490ce557e182511bfc6eaec796f0322309dc5b152b517ee96f2e7523faa60001b630000235f60201b60201c565b63000025257ffb4857c6ffcf3a97a276c2d8a5e4a6bc4c22de16aeabff5659e835a97bd18bd560001b630000235f60201b60201c565b630000255b7f1d803e7d620c2a8dbc6a46d8f8a07bb3206ccaf62422d60ec7bd0c1dc0fc794360001b630000235f60201b60201c565b600081600081518110630000256c57fe5b6020026020010151905063000025ac7fba0aafccaa36bdc35e78716c86c21b686b91dac66af6de9e3e64db58f04732e260001b630000235f60201b60201c565b63000025e27f5c1d4f8cccfdd4780c5784c21dcb14d0f579bb0dae794331f0cbb2ff25aa561260001b630000235f60201b60201c565b6000600190505b825181101563000027a657630000262a7f0a21b32c354f4bc66e9d4c10e74a9300712d3fa7e505b38c9e20783887529f3660001b630000235f60201b60201c565b63000026607f21642a1c91cfe281a527673f1bc34858dc6507709de16fb4a1697722a7ca219760001b630000235f60201b60201c565b6000838281518110630000267057fe5b6020026020010151905063000026b07fa82b63eab5a33f22c51256249a5d9706a615ca7d35b5fb95eeea2b93ead8c2a760001b630000235f60201b60201c565b63000026e67fdd7e1a5a6e71679d2539db9e69626bf9a32f74614762ae4cd7a007979f4cfb4c60001b630000235f60201b60201c565b63000027298173ffffffffffffffffffffffffffffffffffffffff168473ffffffffffffffffffffffffffffffffffffffff161060656300001cca60201b60201c565b630000275f7fb9b2f9cf36db3000ee06b288a33fd50865404ecb93038917fbab684585d4d4a160001b630000235f60201b60201c565b63000027957f250b0ef482be923352767281f9a34a6bb54fd53f27f97f94adffc7fea4dd254d60001b630000235f60201b60201c565b8092505080600101905063000025e9565b50505b50565b600063000027e47fd3476389c9167915828e1c41fd58b501be617f81bcda7df7905ebaa183b3c4bd60001b630000295160201b60201c565b630000281a7f763e3966e690f5b421dcd041f04b48a1b193ed59a99cfdb60b67ab3dfbf2eab360001b630000295160201b60201c565b63000028507fd040ddffed94a5c3f1ea2412fc14f14911f62630c664bb38108164ba34c6c5bb60001b630000295160201b60201c565b63000028688383111560016300001cca60201b60201c565b630000289e7fc95d13badf35636a18cef429a1cc30fcff497d0f377233d60d91a54b5222bb6b60001b630000295160201b60201c565b63000028d47f28183ac30fe9ec9460a9d28cb4e04f1c3d89222564c20b044bc81e450ef8cb9760001b630000295160201b60201c565b6000828403905063000029117f2996cf182068f32853c4842e48ae8391b1959ea375b654bf401398afae3fb9a460001b630000295160201b60201c565b63000029477ffd16e19fe244cb693efc31c873bf159b238b28cd50bd7fb58b14e97f7b30750760001b630000295160201b60201c565b8091505092915050565b50565b828054600181600116156101000203166002900490600052602060002090601f016020900481019282601f10630000299957805160ff191683800117855563000029cd565b8280016001018555821563000029cd579182015b8281111563000029cc57825182559160200191906001019063000029ad565b5b50905063000029de919063000029e2565b5090565b5b8082111563000029ff57600081600090555060010163000029e3565b5090565b6000815190506300002a1681630000314a565b92915050565b600082601f8301126300002a2f57600080fd5b81516300002a4a6300002a43826300002f6d565b6300002f3e565b915081818352602084019350602081019050838560208402820111156300002a7157600080fd5b60005b838110156300002aa957816300002a8d88826300002acc565b8452602084019350602083019250506001810190506300002a74565b5050505092915050565b6000815190506300002ac6816300003167565b92915050565b6000815190506300002adf816300003184565b92915050565b6000815190506300002af88163000031a1565b92915050565b600082601f8301126300002b1157600080fd5b81516300002b2c6300002b25826300002f97565b6300002f3e565b915080825260208301602083018583830111156300002b4a57600080fd5b6300002b598382846300003102565b50505092915050565b6000815190506300002b758163000031be565b92915050565b6000815190506300002b8e8163000031db565b92915050565b6000602082840312156300002ba857600080fd5b60006300002bba848285016300002ab3565b91505092915050565b60008060008060008060008060006101208a8c0312156300002be457600080fd5b60006300002bf68c828d016300002ae5565b99505060208a015167ffffffffffffffff8111156300002c1557600080fd5b6300002c258c828d016300002afe565b98505060408a015167ffffffffffffffff8111156300002c4457600080fd5b6300002c548c828d016300002afe565b97505060608a015167ffffffffffffffff8111156300002c7357600080fd5b6300002c838c828d016300002a1c565b96505060806300002c988c828d016300002b62565b95505060a06300002cad8c828d016300002b62565b94505060c06300002cc28c828d016300002b62565b93505060e06300002cd78c828d016300002b62565b9250506101006300002ced8c828d016300002a03565b9150509295985092959850929598565b6000602082840312156300002d1157600080fd5b60006300002d23848285016300002b7b565b91505092915050565b60006300002d3c83836300002d64565b60208301905092915050565b60006300002d5883836300002e76565b60208301905092915050565b6300002d71816300003026565b82525050565b60006300002d86826300002fe5565b6300002d9481856300003015565b93506300002da3836300002fc5565b8060005b838110156300002de05781516300002dc188826300002d2c565b97506300002dd0836300002ffb565b9250506001810190506300002da7565b5085935050505092915050565b60006300002dfc826300002ff0565b6300002e0a81856300003015565b93506300002e19836300002fd5565b8060005b838110156300002e565781516300002e3788826300002d48565b97506300002e46836300003008565b9250506001810190506300002e1d565b5085935050505092915050565b6300002e7081630000303c565b82525050565b6300002e838163000030c0565b82525050565b6300002e968163000030ec565b82525050565b6300002ea98163000030a9565b82525050565b60006060820190506300002ec860008301866300002e63565b81810360208301526300002ede81856300002ded565b905081810360408301526300002ef681846300002d77565b9050949350505050565b60006020820190506300002f1960008301846300002e89565b92915050565b60006020820190506300002f3860008301846300002e9c565b92915050565b6000604051905081810181811067ffffffffffffffff821117156300002f6357600080fd5b8060405250919050565b600067ffffffffffffffff8211156300002f8657600080fd5b602082029050602081019050919050565b600067ffffffffffffffff8211156300002fb057600080fd5b601f19601f8301169050602081019050919050565b6000819050602082019050919050565b6000819050602082019050919050565b600081519050919050565b600081519050919050565b6000602082019050919050565b6000602082019050919050565b600082825260208201905092915050565b60006300003035826300003089565b9050919050565b6000819050919050565b60006300003055826300003026565b9050919050565b6000630000306b826300003026565b9050919050565b6000819050630000308482630000313b565b919050565b600073ffffffffffffffffffffffffffffffffffffffff82169050919050565b6000819050919050565b600060ff82169050919050565b600063000030cf8263000030d6565b9050919050565b600063000030e5826300003089565b9050919050565b600063000030fb826300003072565b9050919050565b60005b8381101563000031245780820151818401526020810190506300003105565b838111156300003135576000848401525b50505050565b60038110630000314757fe5b50565b6300003157816300003026565b8114630000316457600080fd5b50565b630000317481630000303c565b8114630000318157600080fd5b50565b6300003191816300003046565b8114630000319e57600080fd5b50565b63000031ae81630000305c565b811463000031bb57600080fd5b50565b63000031cb8163000030a9565b811463000031d857600080fd5b50565b63000031e88163000030b3565b811463000031f557600080fd5b50565b60805160a05160601c60c05160e051610100516101205161014051610160516101805160601c6101a0516101c0516101e05160601c6102005160601c6102205160601c6102405160601c6102605160601c6102805160601c6102a05160601c6102c05160601c6102e05161030051610320516103405161036051610380516103a0516103c0516103e051620122c0630000334e60003980611f7752806120405280618b9352806196635280619ac4528061a5a7528061acf8528061b88b528061ccf7528061d1da528061d4d0528061d6e2525080614d0c525080614ba2525080614a385250806148ce5250806147645250806145fa5250806144905250806143265250505050505050505080614023525080611865525080612a40525080615b0c525080615a5a525080612ecb52508061600352508061604552508061602452508061298e52508061272f5250620122c06000f3fe60806040523480156200001157600080fd5b5060043610620002f25760003560e01c806363460d7911620001a1578063893d20e811620000ed578063c27f81691162000099578063d5c096c4116200007b578063d5c096c41462000888578063d73dd62314620008bf578063dd62ed3e14620008f557620002f2565b8063c27f81691462000848578063d505accf146200086857620002f2565b806395d89b4111620000cf57806395d89b4114620007ce578063a9059cbb14620007f0578063aaabadc5146200082657620002f2565b8063893d20e8146200078a5780638d928af814620007ac57620002f2565b806370a08231116200014d5780637ecebe00116200012f5780637ecebe0014620006e7578063851c1bb3146200071d57806387ec6817146200075357620002f2565b806370a08231146200067a57806374f3b00914620006b057620002f2565b8063661884631162000183578063661884631462000600578063679aefce14620006365780636daccffa146200065857620002f2565b806363460d7914620005c057806363e2f31114620005e057620002f2565b806333009921116200026157806343a9299e116200020d57806355c6762811620001ef57806355c6762814620005475780635c62bf5d14620005695780636028bfd4146200058957620002f2565b806343a9299e1462000507578063496defa3146200052757620002f2565b80633644e51511620002435780633644e51514620004a357806338e9922e14620004c557806338fff2d014620004e557620002f2565b80633300992114620004635780633551a9ca146200048357620002f2565b806316c38b3c11620002c15780631c0de05111620002a35780631c0de05114620003e757806323b872dd146200040b578063313ce567146200044157620002f2565b806316c38b3c14620003a557806318160ddd14620003c557620002f2565b806301ec954a14620002f757806306fdde03146200032d578063095ea7b3146200034f5780630a1b02db1462000385575b600080fd5b6200031560048036038101906200030f9190620118d1565b6200092b565b60405162000324919062011e92565b60405180910390f35b6200033762000ae7565b60405162000346919062011e6e565b60405180910390f35b6200036d6004803603810190620003679190620113d0565b62000c17565b6040516200037c919062011c69565b60405180910390f35b620003a360048036038101906200039d9190620114f1565b62000d16565b005b620003c36004803603810190620003bd919062011499565b62000d19565b005b620003cf62000e73565b604051620003de919062011e92565b60405180910390f35b620003f162000f07565b604051620004029392919062011c86565b60405180910390f35b620004296004803603810190620004239190620112cd565b62001078565b60405162000438919062011c69565b60405180910390f35b6200044b62001487565b6040516200045a919062011ee3565b60405180910390f35b6200048160048036038101906200047b9190620114f1565b6200151a565b005b620004a160048036038101906200049b9190620114f1565b6200151d565b005b620004ad62001520565b604051620004bc919062011cc3565b60405180910390f35b620004e36004803603810190620004dd91906201196f565b620015bb565b005b620004ef620017d7565b604051620004fe919062011cc3565b60405180910390f35b6200052560048036038101906200051f9190620114f1565b62001889565b005b6200054560048036038101906200053f9190620114f1565b6200188c565b005b620005516200188f565b60405162000560919062011e92565b60405180910390f35b620005876004803603810190620005819190620114f1565b62001923565b005b620005a76004803603810190620005a191906201151d565b62001926565b604051620005b792919062011eaf565b60405180910390f35b620005de6004803603810190620005d89190620114f1565b62001aa7565b005b620005fe6004803603810190620005f89190620114f1565b62001aaa565b005b6200061e6004803603810190620006189190620113d0565b62001aad565b6040516200062d919062011c69565b60405180910390f35b6200064062001dcf565b6040516200064f919062011e92565b60405180910390f35b6200066262001fb2565b60405162000671919062011e92565b60405180910390f35b62000698600480360381019062000692919062011260565b62002064565b604051620006a7919062011e92565b60405180910390f35b620006ce6004803603810190620006c891906201151d565b62002136565b604051620006de92919062011c2e565b60405180910390f35b620007056004803603810190620006ff919062011260565b620025ce565b60405162000714919062011e92565b60405180910390f35b6200073b6004803603810190620007359190620115fc565b620026a1565b6040516200074a919062011cc3565b60405180910390f35b6200077160048036038101906200076b91906201151d565b6200277f565b6040516200078192919062011eaf565b60405180910390f35b6200079462002900565b604051620007a3919062011c11565b60405180910390f35b620007b6620029b2565b604051620007c5919062011e51565b60405180910390f35b620007d862002a64565b604051620007e7919062011e6e565b60405180910390f35b6200080e6004803603810190620008089190620113d0565b62002b94565b6040516200081d919062011c69565b60405180910390f35b6200083062002c93565b6040516200083f919062011e34565b60405180910390f35b620008666004803603810190620008609190620114f1565b62002d2e565b005b62000886600480360381019062000880919062011323565b62002d31565b005b620008a66004803603810190620008a091906201151d565b62003226565b604051620008b692919062011c2e565b60405180910390f35b620008dd6004803603810190620008d79190620113d0565b62003a68565b604051620008ec919062011c69565b60405180910390f35b6200091360048036038101906200090d91906201128c565b62003bf7565b60405162000922919062011e92565b60405180910390f35b60006200095b7fc605f66323127cb6b96ea50e2eeed3896c6a5c509350b8bbf50daeb55f8e15f660001b62001aaa565b620009897fdfa5be357b0939b9b0a0977b16d0781b382a681e6cb0cbe27c3903fcbce6e7a260001b62001aaa565b620009b77fb9bc1d4054ca834f21c8174d2a50d37574cc88bdf8a7aae8f6f08ed316d931a260001b62001aaa565b620009cd8383620009c762003f95565b62004047565b620009fb7f63d09423812f2050b37ad9cb07a9dae14ac6b4cc85eac5c9ec0913e710fc9da660001b62001aaa565b62000a297fd316806a58f26301513b4de6d80d9a95ee6e9e410a7116583f90140e4ab9e35e60001b62001aaa565b606062000a35620040f1565b905062000a647eded5ee8ae6e4c813c5ef97116a62e39b1b7aa413382e6d73d1a49ddb90fac760001b62001aaa565b62000a927f57594f7c7928e441be7a5f08faee8c6cb31267af0566226673df6d082335866760001b62001aaa565b6000600181111562000aa057fe5b8660000151600181111562000ab157fe5b1462000acc5762000ac6868686868562004e17565b62000adc565b62000adb868686868562005097565b5b915050949350505050565b606062000b177f4db756c43151b39c292200c46bff24e176da61a0e871364526e45f6fbe81ac4a60001b6200151d565b62000b457fba290886c45607b59e3de5397eb7831641bfd35d7fa57c961e0adcd9d4b79c3a60001b6200151d565b62000b737f39a49d1e9173e1b109b0071d57f8abe5e31aa57049988a2f3d2e37520a49e1b660001b6200151d565b60038054600181600116156101000203166002900480601f01602080910402602001604051908101604052809291908181526020018280546001816001161561010002031660029004801562000c0d5780601f1062000be15761010080835404028352916020019162000c0d565b820191906000526020600020905b81548152906001019060200180831162000bef57829003601f168201915b5050505050905090565b600062000c477fb1ea157a74570fd3643c5310837ad126ac7e4706522558b5875e1918b59b542c60001b6200151d565b62000c757f608d42f4361636bab0a221b92860e67ed6868f7c49f5d3d0971b0415b8bbc3fc60001b6200151d565b62000ca37f615b7abb3c5e0d42ad112c000b5db1bdca612c20fd9371e93aa915c0710d8e9b60001b6200151d565b62000cb033848462005322565b62000cde7f20ccb10feb578c145cd252783de60c35b7c4c0b57c889d3dfb397e2beb70414f60001b6200151d565b62000d0c7ffe03fbd27bd6a7be7f0b17c315f4e874faf110e898eb2d3c95f00f3f260542fb60001b6200151d565b6001905092915050565b50565b62000d477f21ea7fcf5f9d7c31f9aaf25a69a33e54c5f3c5f66baae008885ccc3276598f7e60001b62001889565b62000d757f6a39159fbf6a6f219cb1a9d2ba1e006bf81de453f8c25b24ef0ad37212bed98b60001b62001889565b62000da37fda72f8aff7fe2e941c3d65dafeff55469fc4e10b2cfd040c51bbee89e5b0231a60001b62001889565b62000dad620054f5565b62000ddb7f9c459e0e3be04934ddeb1b00ad8219c43cf1b0ee5a60c5c5492412fe62e3db4860001b62001889565b62000e097ffec5f9176a10139ca8b7a264598f2948b912c517072ddef0b8013fe823d22b0b60001b62001aa7565b62000e377f9689784212ab875928251654560d1a86e41133a3d6544bde883b8e688492d31660001b62001aa7565b62000e657fee22413a639d869962fbbd332a97dc982983cd7f4b16df857902e4c3eb24930f60001b62001aa7565b62000e70816200562a565b50565b600062000ea37f3591744e6a97f397579dfefe4467e742422291d5b48cf0b4b29d2a7bd707601a60001b6200151d565b62000ed17f648de981846633733b23f115d5f5a0c65d9ed63a0536ceba8eceb070f538606660001b6200151d565b62000eff7f26add7f2af4a43b72f0acd053918a6e311d5debc1abcc80dc521e650b43cf45d60001b6200151d565b600254905090565b600080600062000f3a7f42b2df6467ff4c70f32501bc99dadaa1707377d0ae98682424fbf6f17c641d1460001b62000d16565b62000f687fc547455e53b5440054db386d0706d7ff980e05270c92023fc54f5f5f5c04c5ad60001b62000d16565b62000f967fb963bb4019984fe1702b4770c0d5aa469bd0dd9b7d30f2696d9641e74bbca11260001b62000d16565b62000fa062005916565b15925062000fd17f61573994a5d914d4db231e404b148fb9db63f1c7b413b107977e9feedb531d9460001b62000d16565b62000fff7f07825aec69c85870219784a1fb8305468e89fa78f9acd98ce1748ceb86c60aec60001b62000d16565b62001009620059cc565b9150620010397f021c1a05e5f001c149d9ad72783428e4a158fe50b5533cfc1ae85382d9da3cbe60001b62000d16565b620010677f0875220e21ba6e87e6bbb05f50398ebcd41b3de02dec68c6049fc5c8fd3cd56260001b62000d16565b6200107162005a7e565b9050909192565b6000620010a87fcb1e83c5388babf0d45f0a159d24050185c8f019cd8c4b6f2c779d5c3c539f9f60001b6200151d565b620010d67f7fbd987c745bcd9baf3604ec32a88300f63bb21f3fceda9f3228dfaf2c3f2de460001b6200151d565b620011047f0e8dacc52dc9d5685cb26ebdcfd55134cecbe613d8a4b690e0e969ccd4b0481060001b6200151d565b6000600160008673ffffffffffffffffffffffffffffffffffffffff1673ffffffffffffffffffffffffffffffffffffffff16815260200190815260200160002060003373ffffffffffffffffffffffffffffffffffffffff1673ffffffffffffffffffffffffffffffffffffffff168152602001908152602001600020549050620011b37f54e7f369fb0047d67cc293276bb189bd606f854e46cdcecc1bd076aa91dd06f260001b6200151d565b620011e17f39190ba861c8e6e479265c5a4e8684bc43ebc26b72efdbf60c93695625d7e74560001b6200151d565b620012298573ffffffffffffffffffffffffffffffffffffffff163373ffffffffffffffffffffffffffffffffffffffff161480620012205750838210155b61019762005b30565b620012577fd869e7d03a7d2b949d65095bdcf9138ca8c21024df18a7d1e9848fe6c7abba5a60001b6200151d565b620012857f537959050150c59e30f3e96d0efe52657216286d3e9b350077d0afcaadc7422060001b6200151d565b6200129285858562005b46565b620012c07f926c18b0f53a5e82fd975daa6afee3b86a70d7c71a10a76f3fcca650aec50a6d60001b6200151d565b620012ee7f607a349b557172ec6566d29aba0b5e434c65703e9f4543212ae2ade2556ad69860001b6200151d565b8473ffffffffffffffffffffffffffffffffffffffff163373ffffffffffffffffffffffffffffffffffffffff16141580156200134b57507fffffffffffffffffffffffffffffffffffffffffffffffffffffffffffffffff8114155b15620013f0576200137f7fcd4b7cb6209714f6b6668452e416a09740061e5232695dab3c8d58eb9929230660001b6200151d565b620013ad7f1b58eb05783678703afafd8c2da7777514b88bb4bf1d0b1b33d2285ae42bb85060001b6200151d565b620013db7ff0312650c8425ab9e2314712cd6a85893e6ba127ec99153319693e6c04b162ab60001b6200151d565b620013ea853385840362005322565b6200141f565b6200141e7f8b9f87cb614a13839badb66ba449c6131eecbd8f2c92f3b916fa3d82b04f554e60001b6200151d565b5b6200144d7f5f2cde0b0885842c82f8b00a0286a72ef2985aa970c5d934ec072153cff1e5f660001b6200151d565b6200147b7f32779093f7455faaa3eb624998ad4d7d1a80d4f32a251c7815d94777d377f58860001b6200151d565b60019150509392505050565b6000620014b77f9cad670adda916501fa2719d90e5fe0ece4449dd6036d4d49187cdb9b9a67db160001b6200151d565b620014e57f0a01c55b2a3b47c5dc0b58fa28bb70316ee084eca589b5465dc8477c8fb2969860001b6200151d565b620015137f1f2aa8b01dcb4274968895299d05e53753fd6115a911b22e4f5988ab9e33c50760001b6200151d565b6012905090565b50565b50565b6000620015507f9a9bf2e5977de3697a9ec96b58940c396178f0ae9e5e6dad3c34cc15875ad43660001b6200151d565b6200157e7fb822da9206ad66a6612383dffe32883ba061b6accb06aaba55b9dd2dee84833160001b6200151d565b620015ac7f7b9abb37e5294ffd6b06ddbc84feec6d9746d7f59ed43e20820b54f98f0eb04b60001b6200151d565b620015b662005f75565b905090565b620015e97f21ea7fcf5f9d7c31f9aaf25a69a33e54c5f3c5f66baae008885ccc3276598f7e60001b62001889565b620016177f6a39159fbf6a6f219cb1a9d2ba1e006bf81de453f8c25b24ef0ad37212bed98b60001b62001889565b620016457fda72f8aff7fe2e941c3d65dafeff55469fc4e10b2cfd040c51bbee89e5b0231a60001b62001889565b6200164f620054f5565b6200167d7f9c459e0e3be04934ddeb1b00ad8219c43cf1b0ee5a60c5c5492412fe62e3db4860001b62001889565b620016ab7f55b2c706edc1fac40420f6b6ee2c7fb303ddd3f3b2e904e75d52c6bfd88e56fa60001b62000d16565b620016d97fc498ca4ed44b1ebcfc965c587448a4caa7674ba28574ad44c701d0b18d270cc260001b62000d16565b620017077fc0eb990e8883f9af90f456b244df4424ef0fdb6588346633543bc7fad5d1535e60001b62000d16565b62001711620060a0565b6200173f7f44575eacace6313d4ce3cb25629c3a9f23ce0f7905ebb1784022d4cd23e99a9260001b62000d16565b6200176d7f7ed7626961fb0c276eb99cdcae5e598683604765ff49ede0ae0d5e3326cb91af60001b62001aa7565b6200179b7f30e282526d0a36f06adc8598812d014a1f6e32709881cb4ed8d344a54c84c2e160001b62001aa7565b620017c97f8b3f4f747b47322cf959ffed7a77642f04a016d5183e7a3ea59d82cfce65bc6260001b62001aa7565b620017d48162006143565b50565b6000620018077ffc5950d005f31b1e49ac649d89dd56a3846d1c287ab3ba7cc65ab6e2c6fc43d560001b62001aa7565b620018357fca011f789f961806c2c3436272b2be11fe26967621822202448bd748a2a7795b60001b62001aa7565b620018637f49c7630e4a74a8bbfca04f3433220f01141b861341d42984a513043d64cc8ced60001b62001aa7565b7f0000000000000000000000000000000000000000000000000000000000000000905090565b50565b50565b6000620018bf7f82b8d8d8c30681fefe3506c779cd002003cea42493f35644b1d0bc006cf6c84860001b62001aa7565b620018ed7f770c8e1d1ae4f21d46ae58f4fd83acbfb35bb319fb9a973b66009548f190a82060001b62001aa7565b6200191b7f898456cbdc830e8e1fd77d36de50e38554b4b773ec74e6f26323c2cf465d89f460001b62001aa7565b600754905090565b50565b60006060620019587f843156add37912bac4a8b4162d902b38eff9a583ebbbb3f8ca0c5ae4bb727e2360001b62001aa7565b620019867f5c782d49c46369378dd49af346aa55e25bffca55c48f05b6275dae0c8336470360001b62001aa7565b620019b47fa546556f1ea2da37ff939bd5a8215ff6626923230561f52301411063139736c560001b62001aa7565b620019ca8651620019c462003f95565b62006351565b620019f87f3e983dd5509997b676b7268e06ebef1d0e480f83399465f906b4f5ec6728ba1960001b62001aa7565b62001a267f1b6a3aadfee2b62f203c974ce57296635679b500e7dee8078f20288f1aebaea360001b62001aa7565b62001a3f89898989898989620063ee62006884620069dd565b62001a6d7fedee8214c52fdf41a2569862b2a3bb975267b6c6525c7ea2c41442dee7b97dc160001b62001aa7565b62001a9b7fd8a9aaa0e1cf7a0f7ce4f1b92ff03e9d289ebb0b3fb243165e22dcb99cdba7cd60001b62001aa7565b97509795505050505050565b50565b50565b600062001add7f2bc4f6cbbe1e6cc58886fc607e4f9d603ff60ef5478e3676303f678e6caf2f5460001b6200151d565b62001b0b7f731cc74fab18c25d19816bf4d2298b45d95bea660e12eca338e76e4e0250157360001b6200151d565b62001b397f776354c1f8a649dba23ac29d302391f8ec705f38cfbf61eaa9e10ed0e086a0a860001b6200151d565b6000600160003373ffffffffffffffffffffffffffffffffffffffff1673ffffffffffffffffffffffffffffffffffffffff16815260200190815260200160002060008573ffffffffffffffffffffffffffffffffffffffff1673ffffffffffffffffffffffffffffffffffffffff16815260200190815260200160002054905062001be87fc1cb3a4403e7fb7d25c7977c1b9d6b562b5d4490a6afb2cbe3d4bf6b13a86ca260001b6200151d565b62001c167f276b3d970bf6b8f83f2563a9b429975c187e8bca73b96e4e35e83f44d79ef87f60001b6200151d565b80831062001cbc5762001c4c7f9ee10143f1a57ce9379cd06d83af7f4260b35b7d68688e2571614528b3bf0a9160001b6200151d565b62001c7a7f4c189fac295f2d343d8fe6b386541ecd7212a459348bb5e026f841253ee688bf60001b6200151d565b62001ca87fd9f90d4c7c24b7b34ff27df9029e6f5cef30bcafff8b7429ab20759576816c4660001b6200151d565b62001cb63385600062005322565b62001d68565b62001cea7ff51c22ae637e8f9f1dd7422715ecb2d1c32c86659f8e28f3ce381baba105ffb360001b6200151d565b62001d187fdfb3948fd26f2536e1f0ebee33c8374cec9a7353452842dcc19e635455c7421e60001b6200151d565b62001d467f14683ac6bc698dfe12cbc9135dfdd3e104e730ce7ecf472553c6c26797bed32960001b6200151d565b62001d67338562001d61868562003e3090919063ffffffff16565b62005322565b5b62001d967fb78ae2a8b9b381c79c5e2cd9879e837dbe889adabced450427438aeef5d5ccff60001b6200151d565b62001dc47f03f32f21093b2a8199a310db220ff53f6a540c482b9448ef79e79e613ef3317260001b6200151d565b600191505092915050565b600062001dff7f92bd0c550a3a7c517e69de3c9aaec304b8d4439d74425b0585d28bde5bc7228c60001b62001923565b62001e2d7f96c62094781a2fe1e9c08d3b26af56721d888cab4b75a36fac8f1677e0f1b23c60001b62001923565b62001e5b7fe157f6fbb62bd1f67592299f7c4b704a59824b34732a8d1a1fd184fde3a4f85f60001b62001923565b606062001e67620029b2565b73ffffffffffffffffffffffffffffffffffffffff1663f94d466862001e8c620017d7565b6040518263ffffffff1660e01b815260040162001eaa919062011cc3565b60006040518083038186803b15801562001ec357600080fd5b505afa15801562001ed8573d6000803e3d6000fd5b505050506040513d6000823e3d601f19601f8201168201806040525081019062001f03919062011411565b5091505062001f357fb346c8f435e233de5a5407c0448a4a2474486d490400dc45b3e7ee508324a84860001b62001923565b62001f637fb866b7d23ff08754136707e63efa464c1b07e6974cc774befcacac90627b91b460001b62001923565b62001fac62001f7162000e73565b62001f9d7f00000000000000000000000000000000000000000000000000000000000000008462006e86565b6200794790919063ffffffff16565b91505090565b600062001fe27fbfcf6e93fc181b231eba4b2c16d3cb4a035c16014627aa8b104f957cc01ccf0f60001b62001923565b620020107ff3eb45bde2565176a1108f0f574f8f6a940f90a2938effda61a3cafeba25673d60001b62001923565b6200203e7fec3122f855e54175f024e2d3fc0750c512f0d0ca74365d304b21e84e1e92675c60001b62001923565b7f0000000000000000000000000000000000000000000000000000000000000000905090565b6000620020947faac41115ae1d356952505586f40766eb3ebf03c42c0cbb0132cda2a3447a273260001b6200151d565b620020c27fe30a51ecf846439267419cc37bfa8423dbb262e0b9c8c725cb29feab7f95316a60001b6200151d565b620020f07fe8168e88c7789dc9fd9a2320bba851c6f3abda3fa6015b28f28ed3a2ae63756160001b6200151d565b6000808373ffffffffffffffffffffffffffffffffffffffff1673ffffffffffffffffffffffffffffffffffffffff168152602001908152602001600020549050919050565b60608088620021687ff68b03a3fec8dac7779605a46475077fa9dafe829eddf6ca345f61b04e5f5c0560001b62001aa7565b620021967f9d1fdb151e41c3aba02424103aac66a346bf9ab1402a441b8db99a307d4ba34e60001b62001aa7565b620021c47f785dbf00db4fea859ff61df3064355f5ab99f94a2b11d2b5eac465eff49ecfc860001b62001aa7565b62002208620021d2620029b2565b73ffffffffffffffffffffffffffffffffffffffff163373ffffffffffffffffffffffffffffffffffffffff161460cd62005b30565b620022367f1d0362102dcfbd2500bb998702ac1bb1de267612981136db00a432874a5b6fb060001b62001aa7565b620022647f5ea396807948ac3fd8041d0de30dbae0fc2bc583b56d3b7c5505eec562958b3d60001b62001aa7565b6200227d62002272620017d7565b82146101f462005b30565b620022ab7fc8d6c1095a38b29a0ad7c79220141fd52d4d7a2903679c1733e75402087ffea160001b62001aa7565b620022d97f4583d3e9abeebb3f83ba8eb7ee7a1deff1317dbc81b01a5a7524278b0d44f83460001b62001aa7565b620023077fbce7d0fd10307b0a0fb8b1451a066c73acb7c4d72c210ad9c844a85218af97de60001b62001aa7565b620023357f03441fc29a3b712470fb0adaca9076a9bd07e3e439de3fdf25a263a25a9a197760001b62001aa7565b606062002341620040f1565b9050620023717f5ebe8344e46c348cada61994dcde5d209ef2cf5652aeb2a4f9254883f69569ba60001b62001aa7565b6200239f7f531d0654f6d2d48b027a068332a534e116485045e1448b0806f111a161c3f74c60001b62001aa7565b620023ab888262007c65565b620023d97f75c90522fd3e3cb25182f6fa55dc1a241e44dc06965f6f381df34bc9135661c260001b62001aa7565b620024077fe45f2f3344ba6a4cd9c326f16e487a94faaa1f754b1c87c1a902d11549d1262b60001b62001aa7565b60006060806200241d8e8e8e8e8e8e8e620063ee565b925092509250620024517ff6dd31b4120fafb578f0524542064b897f9ad340647f0ac837a1d55bf7f0426960001b62001aa7565b6200247f7f4d6b02770425cf3c2b4af86253dfb9ea1129cfc22172176dcb54c44b4dfe58dd60001b62001aa7565b6200248b8d8462007dbe565b620024b97f2da52517f90aa68d603322c495916d8c2442d50ef18d8cd7ba67f71404713fb260001b62001aa7565b620024e77f214cf9e91ef256e57de5ca9ceb210b3b6b82a141cb5feb3455fc8c2d8800047e60001b62001aa7565b620024f3828562006884565b620025217fa319c0af4865b8d12defa5540a2a0e7ae511a23ea7a4c2041a061f8b0a4b976f60001b62001aa7565b6200254f7f5d11b573760545e2d8f6e5815f6c4fbfdf776a73c1cc2850a346f448b2f5450c60001b62001aa7565b6200255b818562006884565b620025897f5fd34f2d0867cfd5396e3bdac3989966fb5ac6daaa78d9457941d97482af518060001b62001aa7565b620025b77f66da92a7570399e13b3354a3deec2ee1d307d31d90507e7d6d457e0e716e8b2b60001b62001aa7565b818196509650505050505097509795505050505050565b6000620025fe7fce709f4cad1692c2eec712c74409eb1a9a8e4be929c69436a23021ba15e6f85260001b6200151d565b6200262c7ff614fa7db7c2a2a19167f3be1070e88fd9f20d559a2986abe9ec49ed496f6c9860001b6200151d565b6200265a7f4d99137f0c6e388b0468c0640c9931cfa067557163b83ee1e6370736699482cf60001b6200151d565b600560008373ffffffffffffffffffffffffffffffffffffffff1673ffffffffffffffffffffffffffffffffffffffff168152602001908152602001600020549050919050565b6000620026d17f4d573133ce520db9ac8fcc17a4a109e17cde6e632ece08c89418b284bc44a67860001b62001889565b620026ff7ff3dc7d107ec34169a12de6b8dc70021c704b1c6bfe98a174ebf6a95d17c3ffa960001b62001889565b6200272d7f05423f9efef992bd3c316d35c411d077b1697419a0b4608f5649a0d610dcab4a60001b62001889565b7f0000000000000000000000000000000000000000000000000000000000000000826040516020016200276292919062011b89565b604051602081830303815290604052805190602001209050919050565b60006060620027b17fab83ce3e3f881dc2afb418ebb2a1ec9eb6cad8eb3bbce473a0ae486e2931681060001b62001aa7565b620027df7ff635c15dc7bee6a9200b682d80381e0613feccefc43aabc268d4b1bdd92d326660001b62001aa7565b6200280d7ffb2174914a2970606a9622caec127ae7e35ae3fbbef7f6efa0561cfada53f63c60001b62001aa7565b6200282386516200281d62003f95565b62006351565b620028517fe0ea453046c8fb4d83701cad74c1f6ec91cb9ffa9f47d1f48e48754d0de11b4560001b62001aa7565b6200287f7ff4e0b46df7d1f171ab17b15d171c035cae3f3621dd45a7a146ad2af14f0f73d860001b62001aa7565b6200289889898989898989620080db620084c2620069dd565b620028c67fc056b5e8b15980b92e1cd65ecf6ea8233d475b490202f191824e78794dfacecf60001b62001aa7565b620028f47ff8657f99c8934a4158188d71c3204ad82ee3a72fd475bd6a931ab4befbc69d5b60001b62001aa7565b97509795505050505050565b6000620029307f4305b0b93402caa86e7180f48d024887d1c1f8bd2a44bfdaee3042782e1365f860001b6200188c565b6200295e7ff4a29a5967596beb317406435bb4b861d12cc69220c8044af61df66d35d06bed60001b6200188c565b6200298c7f682699fb5d3b0c411085c0cc50e8915b89589b26ae77956cdec3e2fded5c83fe60001b6200188c565b7f0000000000000000000000000000000000000000000000000000000000000000905090565b6000620029e27f2ed3446dbeff8ba31e41e908b09d7eb128249c443691794c9289ee6b4e8e9aee60001b62001aa7565b62002a107fbd1c582e102cc9ce02656e1ae8e7dd23dd47bb9aa29c96f6506ae6c6b9c448bc60001b62001aa7565b62002a3e7f4e36efbcbce56d36134a6bbf8d8e1eaf752b6e3197d05f9ada62c05a6fdf3b1660001b62001aa7565b7f0000000000000000000000000000000000000000000000000000000000000000905090565b606062002a947f17b355ef40058aeaf7c26c8927690560a2c4c4216dde24b71a7a9f03aec604b560001b6200151d565b62002ac27ff815f3842a98c6f9cec0f04aa4934f6dea0f5de2e999217d58185d4eb88d98df60001b6200151d565b62002af07ffa543718d62142def29bed5b85057d1941cea6f37ff96e276959eecd780b7e9560001b6200151d565b60048054600181600116156101000203166002900480601f01602080910402602001604051908101604052809291908181526020018280546001816001161561010002031660029004801562002b8a5780601f1062002b5e5761010080835404028352916020019162002b8a565b820191906000526020600020905b81548152906001019060200180831162002b6c57829003601f168201915b5050505050905090565b600062002bc47fc7d5cde1c91db565920f97654ccc517109b3f3285bdac7cfb18268f263704dbd60001b6200151d565b62002bf27f9487286039ccd1cce5e53f904e199d78750bbd4bbfd7c62c9c1d60ecaf56e50b60001b6200151d565b62002c207f1f1ea87194eeb14be5cc6cba45ae9e9337ea06004a9c7af017b41caf703e4b4360001b6200151d565b62002c2d33848462005b46565b62002c5b7fc6ffcb393b983e991aaf4197cfc7014a15c25f6cf5ac9eeab80c7f1a3f11647360001b6200151d565b62002c897f49c2eaedb9cca58be5fe2e3d6e47577701e46c37362340dbea73aed6cba3b22a60001b6200151d565b6001905092915050565b600062002cc37f61a456c406e6bddd1e1783c07eb5227da8606b4ef5a91e1dd9f5cab8fd10e64b60001b6200188c565b62002cf17fdf5db6dcbe1022d3314c823ebca0c8436089c20f219ddeb21408ebb54a23afa460001b6200188c565b62002d1f7f611743155308434ae26e8814f1872b30c4b60a7ae02d34c5090d72d0976b15b860001b6200188c565b62002d296200861b565b905090565b50565b62002d5f7f9e6607f156be20e58f9a51f80fa5672f26c76d76f8af4db1fe3973a095ea94e960001b6200151d565b62002d8d7fc4824ce5996dc5918169681705c4a696b3534a22d9100fc5f9e282d8a34f158460001b6200151d565b62002dbb7f49a8c7b9f73719cf4f0c88621e37eea02abf69414627563f36cd1d4b26c8a52760001b6200151d565b62002dcb8442111560d162005b30565b62002df97f2117cacd3625bf5ef48d271399307c9501a99abf036d7b44555a48475d88f75360001b6200151d565b62002e277ffd1800c5ea3000172f950dc7ca86794cb57a8d9e1152dc03e54c440b047af19360001b6200151d565b6000600560008973ffffffffffffffffffffffffffffffffffffffff1673ffffffffffffffffffffffffffffffffffffffff16815260200190815260200160002054905062002e997fb809fce7c03d50db8ba1876a6f0380405e0b21614d172f3be817d9be546915f960001b6200151d565b62002ec77f9277eef8ca40423550c8c6bb460b8550107822f0b23ee133dcbca26324e0d90560001b6200151d565b60007f0000000000000000000000000000000000000000000000000000000000000000898989858a60405160200162002f069695949392919062011d1d565b60405160208183030381529060405280519060200120905062002f4c7f4e4390c189cd9fec2fee917915f9494120c5dc3361bcb5aead6a222bccfd680560001b6200151d565b62002f7a7f07e585d122fbf6cbba88960e9b3d57fd2e7c358ec9af4aa1b57f55970c58d6fd60001b6200151d565b600062002f878262008737565b905062002fb77f02e2870a44c833d8837321eb156a098c29a316bce1a5e9c84409f4d637d190c960001b6200151d565b62002fe57fa1d9efdfa0d73e58b2e475b03371ad10ebe2495772ffabbb2bd36d0c767bea7560001b6200151d565b6000600182888888604051600081526020016040526040516200300c949392919062011de7565b6020604051602081039080840390855afa1580156200302f573d6000803e3d6000fd5b505050602060405103519050620030697fc20defd178dd15aee2be9d753b81a319562bb6bb663a2727d08d87bb245cdb7b60001b6200151d565b620030977f4d999149c4869297fda2c264f84945c98b57f7a86df38adee937d261730f218060001b6200151d565b6200310d600073ffffffffffffffffffffffffffffffffffffffff168273ffffffffffffffffffffffffffffffffffffffff16141580156200310457508b73ffffffffffffffffffffffffffffffffffffffff168273ffffffffffffffffffffffffffffffffffffffff16145b6101f862005b30565b6200313b7fc1e08c5b0d718dd589e2de137bab624c5ca598b711afec95b39a18eac5af824c60001b6200151d565b620031697fefcb7d9f6c2a50231d6be8ec6f6eef473a9e99619024f2ea72c80891e7035ba360001b6200151d565b60018401600560008d73ffffffffffffffffffffffffffffffffffffffff1673ffffffffffffffffffffffffffffffffffffffff16815260200190815260200160002081905550620031de7f613526f5215af821f01f2ef24bdfa4b220464d95752abcb6308aae877a840c8c60001b6200151d565b6200320c7f1a993035dbefbc3de9835550d2d1a2623c8d261935be347d3660c424aa84d94c60001b6200151d565b620032198b8b8b62005322565b5050505050505050505050565b60608088620032587ff68b03a3fec8dac7779605a46475077fa9dafe829eddf6ca345f61b04e5f5c0560001b62001aa7565b620032867f9d1fdb151e41c3aba02424103aac66a346bf9ab1402a441b8db99a307d4ba34e60001b62001aa7565b620032b47f785dbf00db4fea859ff61df3064355f5ab99f94a2b11d2b5eac465eff49ecfc860001b62001aa7565b620032f8620032c2620029b2565b73ffffffffffffffffffffffffffffffffffffffff163373ffffffffffffffffffffffffffffffffffffffff161460cd62005b30565b620033267f1d0362102dcfbd2500bb998702ac1bb1de267612981136db00a432874a5b6fb060001b62001aa7565b620033547f5ea396807948ac3fd8041d0de30dbae0fc2bc583b56d3b7c5505eec562958b3d60001b62001aa7565b6200336d62003362620017d7565b82146101f462005b30565b6200339b7fc8d6c1095a38b29a0ad7c79220141fd52d4d7a2903679c1733e75402087ffea160001b62001aa7565b620033c97f67fe1688b99ed8069e79bcdf8ca6b806ed9e5d5bf6db1ecf53b030994e7ebbe560001b62001aa7565b620033f77f0c6ee9b7202202588be8a75a2300a2b0447ce0aa8c0ee272efa42fc61e31d30760001b62001aa7565b620034257fa0c2fd44eb019393c3f4b4b667d553261a80968246f56a16189f221f52a0e85460001b62001aa7565b606062003431620040f1565b9050620034617f5673ebc7acf6d3b26013852cf11993baca4de31f4c45b848f08eb7b4a134472e60001b62001aa7565b6200348f7fc56fbfefe7260f9cecadd6553c602451d5f315c87e67cae8ac993a7494cfcd6960001b62001aa7565b60006200349b62000e73565b1415620037ae57620034d07f2680c8ceee94b46a59f4979aa2a6d1e646ca95bba2a403869e1d653e42cf482160001b62001aa7565b620034fe7ff49cb9a152f594f5a1da4f7ac1e06a640d55ec4e4293d8b898fef3a2471ac28560001b62001aa7565b6200352c7f2b217b9f7603d6185c83071a71fb29486bc0e07286b02614f154d348dd9654be60001b62001aa7565b600060606200353e8d8d8d8a620087fe565b91509150620035707f046a0c692bf9fd5d4aef6e7c08dc9756c3fdf8c4388dcc5f242df49a1e7d579c60001b62001aa7565b6200359e7fc6b6fd36c929230c267a621790e2396ddb5483c791a8fcb2183947c390cf74da60001b62001aa7565b620035b1620f424083101560cc62005b30565b620035df7f6af1bce9638111306f61b41ab089f020fc4ccc21dcdd53c651b864114c61175160001b62001aa7565b6200360d7f350259c4c53e93acfa8764c886cdc49432928ad30e989af13718bd7e7371894b60001b62001aa7565b6200361d6000620f424062008cee565b6200364b7f46b08dd7a5178743e44cd4bd9e501a3e47366ed9074c9b813cbc4c123aa2d2a760001b62001aa7565b620036797fc38d4bab4560a636a7f701378c45106ca730af6aad5238583fd83fe27754c0d660001b62001aa7565b6200368a8b620f4240840362008cee565b620036b87f26bbe91c3666511dde454685b2d7911f1478eae8c0d088fd6ea270398ca1b05060001b62001aa7565b620036e67fa3222e2887e81616faa7d1f4b66390f89a26799e6dcbc9711f05669f347e733d60001b62001aa7565b620036f28184620084c2565b620037207fbed6e5b7fd177068bf724a6d94b4381a7b8d810e6575b00b1c7d039bf90ffcb260001b62001aa7565b6200374e7f6403df36d41f7664b87d85c6a3e3d2853a18a5610c8f742614449e444a32473860001b62001aa7565b806200375962003f95565b67ffffffffffffffff811180156200377057600080fd5b50604051908082528060200260200182016040528015620037a05781602001602082028036833780820191505090505b509550955050505062003a5b565b620037dc7f2a9a4ad5d6d6065e2e00743caf6f2d77c725dfb07aba95d779f8a3ddc00a434d60001b62001aa7565b6200380a7f9c819c51fca30f96733b6b5f7d23bbb882b29cfbaf0c257f69c5a6ba8168417a60001b62001aa7565b620038387fd2128ff526eb7f4e8e98d46547995be8ec2a96e70462ede5c7450792c40cf0e460001b62001aa7565b62003844888262007c65565b620038727fa9e811c387cfcc4ac8ca1f85bbf56ab7a1458e198c549df33387d402aed2891660001b62001aa7565b620038a07ffc6224fda0ac17eee2b81d9c2c3e664b677ff4ee7bd79a1787a48e427ac2607160001b62001aa7565b6000606080620038b68e8e8e8e8e8e8e620080db565b925092509250620038ea7ffeb7f6181baeba26ce8ab36569354bfdfd7c45dee391be2e97a3d8bfc23cd18360001b62001aa7565b620039187fd3218eb21c032381ced0e6ba6015c47596bc04eda2d3d36c80137cc0c1a7646760001b62001aa7565b620039248c8462008cee565b620039527f7ec464ec80b7712208fdaf0964f078c059016d2c6bff63f68ac3874456335ded60001b62001aa7565b620039807f62b282177ec2595deed4c64871b211bd44c5c1f0869d0f54c0427d73db6ce44860001b62001aa7565b6200398c8285620084c2565b620039ba7fbd723d39fb31de1254080d01b0c825f2352588bc0f808de72e711178b46edcca60001b62001aa7565b620039e87fe0350b175b119ee1617325703bea21497a427a159732163a07e3203df8ed5d9760001b62001aa7565b620039f4818562006884565b62003a227f69688238f81725a5f898d7d94a9391581e9e390cce0a6a65aa1df6762684056260001b62001aa7565b62003a507f7fd64c23be76fb2bc7ac185a6f8d03021233d611120869557945001c9074caad60001b62001aa7565b818196509650505050505b5097509795505050505050565b600062003a987fdfd46a7509d626a3b832453e51ead13b14a60898a4452949dec643c78cdd0ca460001b6200151d565b62003ac67fc2917056fa7523817e3b0b1ed74772a82b6e742dde96e1c3ba70b1b5af084ab460001b6200151d565b62003af47fb3366275d8155de45f094a54cef582c1d4662f8ad3bdba62e7e1746c561ba49460001b6200151d565b62003b91338462003b8b85600160003373ffffffffffffffffffffffffffffffffffffffff1673ffffffffffffffffffffffffffffffffffffffff16815260200190815260200160002060008973ffffffffffffffffffffffffffffffffffffffff1673ffffffffffffffffffffffffffffffffffffffff1681526020019081526020016000205462008f4e90919063ffffffff16565b62005322565b62003bbf7fa9997bd0eaa435bb070e218e7facfa3f41a854bb8854af040e4265e8421f01c360001b6200151d565b62003bed7f194dfa8d20c3dbb674102bd468df92b37e9e85ad160a3faeac86d1075aa816dd60001b6200151d565b6001905092915050565b600062003c277f9bef354c91f97e8a27b65509ba2beb201d6cfbbeabc43be3a635677d51e5aad660001b6200151d565b62003c557f4fa18cbcff8d89208ec89c2b27d401de2e7ff4301958af59a4a7f3d86b9ff70460001b6200151d565b62003c837fcc451f69a4dc4b5eec682455c572798781afeac1c0609fd7030999ca362036e960001b6200151d565b600160008473ffffffffffffffffffffffffffffffffffffffff1673ffffffffffffffffffffffffffffffffffffffff16815260200190815260200160002060008373ffffffffffffffffffffffffffffffffffffffff1673ffffffffffffffffffffffffffffffffffffffff16815260200190815260200160002054905092915050565b62003d367ff99bacf880df8e7b17f821546b3dc04e138a0067b4cf375acb955b5fde24a4b560001b620090b3565b62003d647fa2b92ae643152f689b17e4838c1f77b9a07dc6cab922d4ed3413a34be499020260001b620090b3565b62003d927fdd971bdee478c838f4a32666e873637247e6e0748ab1a3f811ff2b948d8aee0960001b620090b3565b606062003dc27ff234278b1ba05c670bfa3a036e75cfef1535aa24f41a09fb219b9427ab82e17760001b620090b3565b81905062003df37f8c1e498e11453d5c0e5f454f19962598d679c2cc20826cc568f1c3d970636e8b60001b620090b3565b62003e217fa1e979627b6f19eed3dc9648ba642491f4e036411d0eb3ebd82f4eb2cb163e3f60001b620090b3565b62003e2c81620090b6565b5050565b600062003e607fd3476389c9167915828e1c41fd58b501be617f81bcda7df7905ebaa183b3c4bd60001b6200946a565b62003e8e7f763e3966e690f5b421dcd041f04b48a1b193ed59a99cfdb60b67ab3dfbf2eab360001b6200946a565b62003ebc7fd040ddffed94a5c3f1ea2412fc14f14911f62630c664bb38108164ba34c6c5bb60001b6200946a565b62003ecc83831115600162005b30565b62003efa7fc95d13badf35636a18cef429a1cc30fcff497d0f377233d60d91a54b5222bb6b60001b6200946a565b62003f287f28183ac30fe9ec9460a9d28cb4e04f1c3d89222564c20b044bc81e450ef8cb9760001b6200946a565b6000828403905062003f5d7f2996cf182068f32853c4842e48ae8391b1959ea375b654bf401398afae3fb9a460001b6200946a565b62003f8b7ffd16e19fe244cb693efc31c873bf159b238b28cd50bd7fb58b14e97f7b30750760001b6200946a565b8091505092915050565b600062003fc57f52df8d3f777dcd877c77bb7eb407d4d83ca48198a8a3d6fc35557cd451b8da7960001b62001aa7565b62003ff37f669546164dce40e01e2804b3a9eb7730f7e569d7762772d6d80e2bbf6025a5e060001b62001aa7565b620040217f1c3f0db1856f89ecdb7e511f0ed70f043bcd4dfb569686be02a3230f8cfc571560001b62001aa7565b7f0000000000000000000000000000000000000000000000000000000000000000905090565b620040757fa89b00081196176301a6387e7d92a57e0773779b73d1389e8001341d42b11a6860001b62001aaa565b620040a37f9a22df4a05094aced8d8f414eb187919626f915596ea397b7f73c777984918c960001b62001aaa565b620040d17fe5efa54d7736a2ff36b066b5e296ddb098d6d10ac90e33ceb72b2aff47c2483160001b62001aaa565b620040ec8184108015620040e457508183105b606462005b30565b505050565b6060620041217f64bbf66d31bb8fcafdb0d4c05c587c14d34779f0258bf024715760072a03a64c60001b62001aa7565b6200414f7fa392891145e17abb42bee3e82b3a0d82ad3c913cd8b5bbc103cf852ad2e463f160001b62001aa7565b6200417d7f396563da9e9cf4b746ce108bfbfceb0e3db3e8b63dbed11b2d146081145e2c7760001b62001aa7565b60006200418962003f95565b9050620041b97f801ec1b2d571a485e07e5e94e7d0faf423943b8bbac8c58b2d7a42524e4d3e2c60001b62001aa7565b620041e77f111e844211333f1bddb2caa4106961a692100ba8d61936af7b0a5d3adbca04cd60001b62001aa7565b60608167ffffffffffffffff811180156200420157600080fd5b50604051908082528060200260200182016040528015620042315781602001602082028036833780820191505090505b509050620042627f1bdf7cef3dcf27698163dbbf92a97f1e4f59abbb9e50a2a3292d13cb659fc57360001b62001aa7565b620042907f7a4b1576ede339435c01c421db11f5796a3a2ff9d8a6cc8022a8967665cd36c760001b62001aa7565b620042be7fc9fbda078f4c5cbd1a5f98837cae9b30622f4fc0c6a6eeb700d9e73ca64fa16760001b62001aa7565b60008211156200436557620042f67f0d9d615375d675772bb2d2e823965a9dc482e1cf312819a5d7a8ef983e64e64160001b62001aa7565b620043247f2a95bdf45cbaa84bf403cab0aae72ca7aad0baf29771e0c83e8a847886564b0d60001b62001aa7565b7f0000000000000000000000000000000000000000000000000000000000000000816000815181106200435357fe5b602002602001018181525050620043cc565b620043937fc672011e9008447488f0cb51f1a3000dc8ed99d3c791c00c65b068d56f9f880660001b62001aa7565b620043c17f032861f547e431e456a586b4aa4624c0a392cb3f1fba0ee2c346a14b33f2dc7160001b62001aa7565b809250505062004e14565b620043fa7f1494dfa1d64c082fe87e7101a7abed5da6470da63c285ec2c9f48da778741bef60001b62001aa7565b620044287fd786de8dc48d9587d292c8089142745a9febbec61c33b50a7aa5a917a584ec7a60001b62001aa7565b6001821115620044cf57620044607fc65d649bc823d613912161818a82f1bd3ad9a189ed15d835614a261ae0e5222f60001b62001aa7565b6200448e7fae646d66409a1b9082e2dff878a071ace295e057cddaeef0450cfaad5978611d60001b62001aa7565b7f000000000000000000000000000000000000000000000000000000000000000081600181518110620044bd57fe5b60200260200101818152505062004536565b620044fd7fa1a468b3ccbb74bf74ab6f608023ca4e9acc824dfc746b02a53962a63518a86360001b62001aa7565b6200452b7fd12b9bf4ac3e5335f11b47a75786974a04fe9531183cc9ab8f879953201d203b60001b62001aa7565b809250505062004e14565b620045647fe2c54cad83d597c1ec566535d5fbc8a855c95302e042a07ac53b1969438b76cd60001b62001aa7565b620045927f2abffefbb5aa426829586faab7c3945b86a2af71e75c8d0c33ea198a47d0db3a60001b62001aa7565b60028211156200463957620045ca7fb5a39b7168aaf7db482fdfcc1dae7dd09365f71a168c5012ad8e0318ace5b10f60001b62001aa7565b620045f87f58cc755149857cb6cdf2407001712864f9c48faea4037d61b3360bf5b974731660001b62001aa7565b7f0000000000000000000000000000000000000000000000000000000000000000816002815181106200462757fe5b602002602001018181525050620046a0565b620046677f5c1de41ca34e9de5080c9f418adca907ef53ef2f861703d1dec5f342bc67c68b60001b62001aa7565b620046957fa2c6b1ff8c8bd442b6fc9b45a6ba002a67007e8998ad5a1add8c91ef3055898e60001b62001aa7565b809250505062004e14565b620046ce7fb2adfff222149fb1f10eb79ab5425611c0de7fafed784cd2c554177b6b03fd7e60001b62001aa7565b620046fc7f9c4a2884d98195fbd1288704b409bcc07beead2cbd0c3aea22f6fece4c1616ec60001b62001aa7565b6003821115620047a357620047347f915fc1274c4da77bbd0e0c8b55d285002f7d3da714bed05ca1b7cb626a9abdd960001b62001aa7565b620047627fda0b00ff6f9a02d2b8cab8f16b6ede45d43a6ea54f6e20644c383b4c14c8df5860001b62001aa7565b7f0000000000000000000000000000000000000000000000000000000000000000816003815181106200479157fe5b6020026020010181815250506200480a565b620047d17f019f8832fde5d04fa3cea29b93d9d801017fc688589ae1049055fe18c7fdc49160001b62001aa7565b620047ff7f1d40924a2f1e001ad0fe7ab839d0a10a330707bf78dd7f35c68541381298046d60001b62001aa7565b809250505062004e14565b620048387f75e69d1e5054f490c35ba538cad624fdac97202205d2aa5262a80a46651eaa5c60001b62001aa7565b620048667f4f306ddd440ad5bb7c7510dc1b1138cc28d6a3c0593f994cf20d28eb595a516260001b62001aa7565b60048211156200490d576200489e7f4b33379038bf7d9e151e9519b018c8283fe02a9b96478fb9a4418601f3db0ed260001b62001aa7565b620048cc7f4c24cc38f70730a6508f0a3cb22f3b3d84595e9d8420a2f25f5bff8d71b04d0360001b62001aa7565b7f000000000000000000000000000000000000000000000000000000000000000081600481518110620048fb57fe5b60200260200101818152505062004974565b6200493b7fe24aa7b8788f2999175803ab0af33d8a6f52a1bc0d35c0309b6beb03aa18a19560001b62001aa7565b620049697f88ebfa8b0e8deccdb84f932ac2f3a2a355a459850b1e413b3e42e53a5e2c673c60001b62001aa7565b809250505062004e14565b620049a27f850d6855b6565407221f800914cf4bf28e4e5416bf07bc6644cee0645cf60a3960001b62001aa7565b620049d07f258272d25fae341d694fbe8c28f95fab586c44312fcd90aeb4b9e1682710792b60001b62001aa7565b600582111562004a775762004a087f89f740081d98d6f1c98e6f403539d3dde78bef1988be3a3afafc1bfe93e14b6060001b62001aa7565b62004a367f51aadbfb5c0384baf44b0877e98e1e64f66712444142c211d2115ac13beac70460001b62001aa7565b7f00000000000000000000000000000000000000000000000000000000000000008160058151811062004a6557fe5b60200260200101818152505062004ade565b62004aa57f58c82c2c80a388279368bf259e40112d976f505e30d12afad46bb47375b0e98360001b62001aa7565b62004ad37f030a39a85df11845bf366ede72860bd4a3403ae00a9ae50b6372477a2f593b6e60001b62001aa7565b809250505062004e14565b62004b0c7f9ac1de9528e933851db19eeeb6c70058ef2948b3870493bd4c366d2f7fdec08d60001b62001aa7565b62004b3a7fed14a2346f37a94491b51290d6650501c4d4ec4253189ea543b4bc72bd167f1b60001b62001aa7565b600682111562004be15762004b727f4d2faf55ba9580c423991b77940ead557134aa3eba66997adc756a34e344597660001b62001aa7565b62004ba07f64e21e02e6775a3df4ae6b7cd0165fca2708a2903d9dfd77fedaa05f512e1f5160001b62001aa7565b7f00000000000000000000000000000000000000000000000000000000000000008160068151811062004bcf57fe5b60200260200101818152505062004c48565b62004c0f7f78a3de33b8d7129735e0e8bcffff0c14e9f0e7da9380b4db609aa1fac01d4dbb60001b62001aa7565b62004c3d7f6cb8a74c64f4dec3933d64db61e76922d5676c1d8488ee2fed450444d99dcf0060001b62001aa7565b809250505062004e14565b62004c767f297dfae112d533fc9172e11ddef6838c1da8b504dc5001bb197a7fb43f2d6ec760001b62001aa7565b62004ca47fae3abeeee878dc99ea9b8503136a504ad9933d0dd61f5d9b89b9820f0d22284060001b62001aa7565b600782111562004d4b5762004cdc7fca63da5973b368e6d1e61bf292e0a269ab79fb7c553873ea0b259886aa0c5d8960001b62001aa7565b62004d0a7fd166ea4476f5d9694fb0ca7b89d908dac6cd6d57982efe26dd56951a8aafadf760001b62001aa7565b7f00000000000000000000000000000000000000000000000000000000000000008160078151811062004d3957fe5b60200260200101818152505062004db2565b62004d797fe237e4b65b0117a033b94079ef84d5fa54ef77cdb8413e741e5a57f3b5695a9860001b62001aa7565b62004da77f0ef7cacc4b169a50819fbdff0c78a95d336a5d9acb3bea258cb9a7fa31fee65a60001b62001aa7565b809250505062004e14565b62004de07f1c4205a95773eb17daa349a466999769c3250c1490ee749938062f82d0c4b66e60001b62001aa7565b62004e0e7f57dad830d62749af81e778596944d9e6d514b1ab0e2dbdb91970bf820f3899fc60001b62001aa7565b80925050505b90565b600062004e477f6b97b27428a9b985a51fc2aefc2bf7489c4dda78d003ad87b84bc4bd4935bab760001b62001aaa565b62004e757f08fa1722b6d540d2f81f7c9c109bc27f4667e14d78ef76da3e75bdea333cf63460001b62001aaa565b62004ea37fb01c59430b8c8b004c5e94bbf938b775c2f78decd7d9cc27e240783a9e823ca760001b62001aaa565b62004eaf858362007c65565b62004edd7fbe29129d497438f30270cfd2dfdde2d993e24ef04434c91766dddf26e684d41960001b62001aaa565b62004f0b7fa04b8ab723f74d00f62d5d06ce66ddc6dce954dc1047b7aa39ad946f503d37b760001b62001aaa565b62004f2f866060015183858151811062004f2157fe5b60200260200101516200946d565b86606001818152505062004f667f8ceb6e8bf31984e023b3b08fc57f8a2535fed70de9b586243c9b793ffa2a1b0a60001b62001aaa565b62004f947fd7d034475692e82eaba88b71b3efc9e3cb9a913149d7eba294c53bea381de01f60001b62001aaa565b600062004fa4878787876200950d565b905062004fd47f26ab504b38595295dbbd3948f125c01caef2ecc5abc077a88a4624abdc0970d460001b62001aaa565b620050027f1b5633f8b7047cf37891dc3b1bd067b3b14d4f1e4839ccf31d417e634d34e11a60001b62001aaa565b62005022818487815181106200501457fe5b6020026020010151620096fa565b9050620050527f85068c873b44ce5c3c81d11f73999bcd376769e3b4ffd8905900904394b1e56760001b62001aaa565b620050807f3acba0ba221661d5ba9785db77138719711d10f2903a4a3fb0348ce67999059a60001b62001aaa565b6200508b816200979a565b91505095945050505050565b6000620050c77f6f4ffbc6a7e0e8c6a72f701c2e1325de158db3c8d1fc871b04a5b81504ddd18960001b62001aaa565b620050f57fa03e217ff9b112e457b935774cafa56f8b118f4ff6215e5a948a2987de29787860001b62001aaa565b620051237f5667acd88582d540497de2fbcfb8090b518049c63d1e265955da97fe5e70fbf160001b62001aaa565b6200513286606001516200984e565b866060018181525050620051697fba10872a9244b14f7382786d34fd672f59d0b075a6c5d3b9dce2f0fcc399966260001b62001aaa565b620051977f0e4ea38de1e3f44347f147fd395f204cd12bd308dad2510932ce6a159f3809fc60001b62001aaa565b620051a3858362007c65565b620051d17f1afac3f7128a2f17fbff7e694d891f237fb1b6668a2efabfcd01b629f3fe3c9360001b62001aaa565b620051ff7f1f064eda192b847cb556ea584e3849a3accba3fa3a802c9655ba3ae70921624c60001b62001aaa565b6200522386606001518386815181106200521557fe5b60200260200101516200946d565b8660600181815250506200525a7f948372e8e8fffba5d561f7a9252ae7ed0e438a0973b319263ca4ed7cbd681aac60001b62001aaa565b620052887f83807b80a893e637270009bdc1a3c9d1621d7c24aaf7d599ce9e5706e3befd1360001b62001aaa565b600062005298878787876200996e565b9050620052c87f6ff19c0cb5e95752a6d8efae8d5b1fa549e537ad6f18dd06ca51693a1c04fafe60001b62001aaa565b620052f67f044471c17c8b7ff15d93bdbede558d22e4744148978f122530b28f4bd3f8686060001b62001aaa565b62005316818486815181106200530857fe5b602002602001015162009b5b565b91505095945050505050565b620053507fc7a1e0755317c73eed4a843031f2ed5b5c2e17a13b1f73d009691ee190faf90e60001b6200151d565b6200537e7f1538e5626f56b8812047d1f2e6e4384d86dd2df0665f323234f6c0f1e131feeb60001b6200151d565b620053ac7f11d03a43029703f5d84de54be3dfa1ddc74977a193385b16770c4089fe51840860001b6200151d565b80600160008573ffffffffffffffffffffffffffffffffffffffff1673ffffffffffffffffffffffffffffffffffffffff16815260200190815260200160002060008473ffffffffffffffffffffffffffffffffffffffff1673ffffffffffffffffffffffffffffffffffffffff168152602001908152602001600020819055506200545b7f7aab7e493ff64ebff04f2f5426e9a21c461ac7c528f258e3ba2088c959c1091b60001b6200151d565b620054897f063c785473b3e4492705c4e64cea46ebaeb98480c45bb9629a4819c1403a759360001b6200151d565b8173ffffffffffffffffffffffffffffffffffffffff168373ffffffffffffffffffffffffffffffffffffffff167f8c5be1e5ebec7d5bd14f71427d1e84f3dd0314c0f7b2291e5b200ac8c7c3b92583604051620054e8919062011e92565b60405180910390a3505050565b620055237fee6b13cc663fc83397456b0aa96802fb13538819560f9edb6f8e7b741a72f53860001b62001889565b620055517f39ab045597dcd2e91680c88e6a16c3be9c35aec35abfd0a983b97db2747a626c60001b62001889565b6200557f7fa7d629b89f18d2a342559332fb4bb334709674b097663cda4332f13762a4c77560001b62001889565b6000620055b06000357fffffffff0000000000000000000000000000000000000000000000000000000016620026a1565b9050620055e07f1f27bb1c2197ceb722f7da0d0716224da6e67a5388819b6d33889e0d61317ea460001b62001889565b6200560e7f7da4f63bcb1bb19803d5a6d9059f7ad5906710c0ba0b6fe17e28839a722402b160001b62001889565b620056276200561e823362009bfb565b61019162005b30565b50565b620056587fc7c5367f9c7e240f3cdcb6923bc045f862ca4a39c752da8b71c5ae1472d73bbe60001b62000d16565b620056867f50d58fdc3abc20e1cb392918770a267ab78e72d605a02d4c4056b501db10a04560001b62000d16565b620056b47ff6efbd77e87e2ef28cf5f850cac5b7ad75d84fff9ff5caca222139c78f468e4660001b62000d16565b80156200576457620056e97fb0f141da337ea2a1d59d1cc8430775c2bf672d5ff29998ac3ba940811e4e0d5d60001b62000d16565b620057177f5ad992b766091b4243be03e56fc4538811c13fa8b0e1b27463c7d99314c736bc60001b62000d16565b620057457f854ef49914eb0527fc17f31ba5fc3af3040cc31fd84cb17924230ece061e54b960001b62000d16565b6200575e62005753620059cc565b421061019362005b30565b62005808565b620057927ffbbd4f7e556f0535cac9cd0150c9652e7fad42626de7b7dc3776a83d8732f59760001b62000d16565b620057c07f7ba1e9f2c217e1d23b4eb7f3ac04caa7bcd691b228ee2fcc3d594ca57be6395a60001b62000d16565b620057ee7f599896393482567181121cb835626e2e456628f1bab956b29525539ad0d6759360001b62000d16565b62005807620057fc62005a7e565b42106101a962005b30565b5b620058367fbd8ef2821bd1e349a1d65969330f797bbfc76b766c2f8fa530739eb7fa58067160001b62000d16565b620058647fe34774678af6ce655031cee2d93babe65cd743cc5b1101ff217573d2a7335b4b60001b62000d16565b80600660006101000a81548160ff021916908315150217905550620058ac7f3706f6e6399e33e922ec7fc2e0fedd5bda1541494c7c9345dc31ccc1730fedea60001b62000d16565b620058da7f18f5a22ed7dffa75d0eb20fad03ef1137724c580e4f9c2967fe3c420f96eaee860001b62000d16565b7f9e3a5e37224532dea67b89face185703738a228a6e8a23dee546960180d3be64816040516200590b919062011c69565b60405180910390a150565b6000620059467fe3746e81cff91eb3d77d543981cd6cf706f8d76397da183679a4b3dadc9573e960001b62000d16565b620059747fa5f231f807570f144e78643005e399439fc73b5ab16a0241ef6b24ae7bc1f55260001b62000d16565b620059a27feac4884d0b5f8c5a57f3de251fec5b8b71daf1aa7f8f19b89e107d0d5163560a60001b62000d16565b620059ac62005a7e565b421180620059c75750600660009054906101000a900460ff16155b905090565b6000620059fc7f7f05abaafac9ed7d954843addd8fdddffb19d3fb16a0eb1b29cde5d60bccefd860001b62000d16565b62005a2a7f8fbfa5292fa05b965a2a739fb121e9d0379a7b60e58c67077bd84e58c4bd586060001b62000d16565b62005a587f13a8fd0ef51eb9e4725da515e4be7071dfe9a07ee7a31d0913b401970727c27260001b62000d16565b7f0000000000000000000000000000000000000000000000000000000000000000905090565b600062005aae7fb873c902804ee19693ddfd186de3098d59833aa7da7373ff1801e99a3eea378e60001b62000d16565b62005adc7f5bfb346ed3ea17ece69b5bae634d25809cc15f9dbd55df8a316dd45da9ca006660001b62000d16565b62005b0a7f5b028bd9817cd40d7d4273c5525d5e8bf5660b6155e1cfb1bc5cf297fa2762e960001b62000d16565b7f0000000000000000000000000000000000000000000000000000000000000000905090565b8162005b425762005b418162009ee7565b5b5050565b62005b747f5ac6f10a64ca2ed073f8c7d1a41d5b1e3066960cdb80bc14abab5c4106ce044160001b6200151d565b62005ba27f4e38d37832e7ca16bc928d0c57baa2f427b61e2dcfb104c2c4a45fdb652bd2a260001b6200151d565b62005bd07f14c54e7996f1a08ff173d921219c1fbdcdb237bbd1f0d77917125c7830f1aad660001b6200151d565b60008060008573ffffffffffffffffffffffffffffffffffffffff1673ffffffffffffffffffffffffffffffffffffffff16815260200190815260200160002054905062005c417fc65264affe36577d4633f05d06f2414663dc6e43e38650f5962683cea93ec45660001b6200151d565b62005c6f7fdf673a2fdb849596ad5b04b048c5c7b614b5f960b59e2e208dd4323397a3d1b160001b6200151d565b62005c808282101561019662005b30565b62005cae7f8de0f57836be6b79599a8fbc8c81694a349a47c2af26e944e5b142838d4fd02760001b6200151d565b62005cdc7f6e0b8d7cf6d8f4aa1f9d10a2b02659d136797ed269f7ca50154581f09e773c5660001b6200151d565b62005d1a600073ffffffffffffffffffffffffffffffffffffffff168473ffffffffffffffffffffffffffffffffffffffff16141561019962005b30565b62005d487f7bf65776b449d35969ec6baa7829c287a6f5459ac6395d3336c6a405a85b875560001b6200151d565b62005d767f2b8fba28346df9fd635fb5712cc5c9011d81f790844b9e8afdc12cfe82845e6c60001b6200151d565b8181036000808673ffffffffffffffffffffffffffffffffffffffff1673ffffffffffffffffffffffffffffffffffffffff1681526020019081526020016000208190555062005de97f53a017da13e1a7f30ffe7fc44baceb74bf49945c828ded6d5f56aaef8e79b58360001b6200151d565b62005e177f9f04c2a6477f950e7f3d42ed6ec26ca5de6babe1dd81b3fccd24e73f784547a260001b6200151d565b62005e6a826000808673ffffffffffffffffffffffffffffffffffffffff1673ffffffffffffffffffffffffffffffffffffffff1681526020019081526020016000205462008f4e90919063ffffffff16565b6000808573ffffffffffffffffffffffffffffffffffffffff1673ffffffffffffffffffffffffffffffffffffffff1681526020019081526020016000208190555062005eda7f270dba37f6288601d065f163c3793db0cde2423da513db1fe7a97c23b105ff0360001b6200151d565b62005f087f76d3269e658fa7f71f77875d98619c15bfd26b98707691dca3742308669a244060001b6200151d565b8273ffffffffffffffffffffffffffffffffffffffff168473ffffffffffffffffffffffffffffffffffffffff167fddf252ad1be2c89b69c2b068fc378daa952ba7f163c4a11628f55a4df523b3ef8460405162005f67919062011e92565b60405180910390a350505050565b600062005fa57fe10e7b24bd4523c6da60a51ad3b780e67c771b06d0de1c5eca90c0b854c1105660001b62002d2e565b62005fd37f037bdbcd32c3bbe29dda7fa2ae2c3305233a2ff28d10859a5c60e42a3f915b5460001b62002d2e565b620060017f4d880a132c55852e5896cc56a0afc9a5e7f67fae895e2ca89305a97497bafdf360001b62002d2e565b7f00000000000000000000000000000000000000000000000000000000000000007f00000000000000000000000000000000000000000000000000000000000000007f00000000000000000000000000000000000000000000000000000000000000006200606e62009f57565b306040516020016200608595949392919062011d8a565b60405160208183030381529060405280519060200120905090565b620060ce7f85f6e973e27fefe6b402922e42c696292a75244f5b976f605028fdea4699fdb460001b62000d16565b620060fc7fb10f7bd59784e750806ab747485664fe82e7b9614d8271965117987f8299d0fa60001b62000d16565b6200612a7fe0d1b3afed10517d38229a198eae9b028645c8411b030a95f9ecdfed78d7f1a760001b62000d16565b620061416200613862005916565b61019262005b30565b565b620061717f15d95f31e3d8f03151acd877860824e2519b31cd2266b6fba4edb44cbdb6c22260001b62001aa7565b6200619f7f38ad2a21f4d1c04e6cb0f080d5cdd6d3022ddf45c9f377671946cd117d822bd160001b62001aa7565b620061cd7f3e36b14fce78b6bf0464904742fa4c0a6613e679a9a28ebe53dca71fe4e60bf660001b62001aa7565b620061e264e8d4a5100082101560cb62005b30565b620062107fd60a4f70eb6053527b4b053cd5a77b5bace58afa8e8e75dfd50ef74e4af1c1e160001b62001aa7565b6200623e7f78b15eda81ed3b086390139801e79321ec47ce9dd0ddddadda5f61ad8f0ee6dc60001b62001aa7565b6200625667016345785d8a000082111560ca62005b30565b620062847fe790af49b7039ad5804739366b3f4b00b66d6125a6a7b5dc6e60fb67c69dcf3860001b62001aa7565b620062b27fc3448cf910456c71319f93b4eed444d0b4b3beb4f18162d29fb0650e19dcb70360001b62001aa7565b80600781905550620062e77f5569b07c075afff8b8336bd4457561ad9d7ac55a0a2be9314e7a0a03656a72a260001b62001aa7565b620063157fd02170ba3f9e153c416243c66b46d40d5b3d10b1565f5c695620da523ade58c460001b62001aa7565b7fa9ba3ffe0b6c366b81232caab38605a0699ad5398d6cce76f91ee809e322dafc8160405162006346919062011e92565b60405180910390a150565b6200637f7fb3c3ab71be1e60ccf374cd9c337f5c94a091891a248ffd88815355718b38f5cf60001b620090b3565b620063ad7f23a34501b370f017ac0b72a81570395801e215d15ea760153f3abbf09eb0167360001b620090b3565b620063db7ff006c498284d347b1bc1a6a27ae455ca2c77693be39b0bf5701f8175df7eb3a460001b620090b3565b620063ea818314606762005b30565b5050565b6000606080620064217f8f22944289d155561669a780d3ea47fc559045c32ff9b1e5b9df16947912876c60001b62001923565b6200644f7f47e7562d3a5322a31df358c22b53ff670bce1afc76855de4388d0ee556da1c5460001b62001923565b6200647d7fad84e49109090b949b9e8166a630766ef7bd43ecbd424384f38a593bbc3183ae60001b62001923565b6200648762005916565b156200665e57620064bb7f62b5ef3e7680d466fd67ab4d8b2bdef9f199e5fe0207597b17c8e312d2c82e3560001b62001923565b620064e97f56a570d567eb8d194c42ef973b4f527933f8db3ab8b016055f9ae779aa1c85c560001b62001923565b620065177f58e017020a43652da9c7974a5af0e11d6fbd1c46cd8f2ba0c6a4fa485f436e5460001b62001923565b62006526876008548762009fe9565b9050620065567f7619b599d92554b9133fea376684e7394f07f608578c8e72ed4a30a12bdaa3fc60001b62001923565b620065847f25c71ddee19e02a2c5f19fd0f08b6117440405d2f157b80d2d9c990ed6b9118860001b62001923565b60005b6200659162003f95565b8110156200665757620065c77fef1cdaedfab386ebcc5054457180a0256df9c882cc76bde328c53d291cbd201b60001b62001923565b620065f57fe54be94cbebd19dbe7802ed5fc077bef50fdac7b132c44eb0fe1be5be0dae0ce60001b62001923565b620066328282815181106200660657fe5b60200260200101518983815181106200661b57fe5b60200260200101516200a65390919063ffffffff16565b8882815181106200663f57fe5b60200260200101818152505080600101905062006587565b506200673d565b6200668c7f7315a03d5a925d033c3730243609348f820ad21ceb35ebd6a0f9c4350313c80360001b62001923565b620066ba7f252a2b1c7e0d5ea08501307dd701a2b0306d378dcc91020fa3c7c457020d3ea460001b62001923565b620066e87fb57d67dcca24ddf2a7b440e46725cd5768f9a987ef399073b8a5bb2c87974bde60001b62001923565b620066f262003f95565b67ffffffffffffffff811180156200670957600080fd5b50604051908082528060200260200182016040528015620067395781602001602082028036833780820191505090505b5090505b6200676b7f637ff540e5344d83ec8c95452c6035ce1ac88df2a87c3072c81c5d9676f313db60001b62001923565b620067997f4cae6e8954caddb0e144a31dfb465e7c87beef2fe34a9e1d41e50fcfe9b739db60001b62001923565b620067a587856200a7b8565b8093508194505050620067db7f7c1699c63fc01d848e1ac6735e05cef738570a3a65b1d8ddfda7dde6bf4ae09260001b62001923565b620068097f5d7f4feffce1348c24014fc761ea82de53be070f650f7a9eb8338ef8f4a60c0c60001b62001923565b6200681587836200ab36565b600881905550620068497fef9336c85892bd4a607ee6aa6194a5adb7be6654fcc377fe764acba60cc562c560001b62001923565b620068777fc3fdd4736949749d53345662f1ec9b769b1fb6cd64651d3570533c72e1a1f47560001b62001923565b9750975097945050505050565b620068b27f08dbde42dfd0ad88c6549b16b2375acc281e9bdd0a5599e45708afb6506c262460001b62001aa7565b620068e07fa5e550d514e36d3f642e25e71c8a41e9b9171a96a64b72a41be9e6547a6ba75a60001b62001aa7565b6200690e7f590ab00b70532107909c9a0fd15f44cf2aa3b54933fd446c85a01374f1dfe8b160001b62001aa7565b60005b6200691b62003f95565b811015620069d857620069517f88510d421dde6614b09ee776dca49ab68a1c0fc8f0117a112432bb0686cbcf5760001b62001aa7565b6200697f7fdbc7277606c0a6ac9d146229a77c6c93ca854ea89d985ca1d0d1e04871c7835960001b62001aa7565b620069b38382815181106200699057fe5b6020026020010151838381518110620069a557fe5b60200260200101516200ad26565b838281518110620069c057fe5b60200260200101818152505080600101905062006911565b505050565b62006a0b7f0f4b02917c3d0a0ebaab97197231e7d8f5070ff04d4d5853be2cc8cc5af8f89c60001b62001aa7565b62006a397f3b1bb8ba04d53823e5be3aaf1aec2e6b6aa7740d20c56adf71792a6e25abebd360001b62001aa7565b62006a677fa5a85c6163d0ca215bf94310ca620066cb6480392d7937dd265d58f4106d759b60001b62001aa7565b3073ffffffffffffffffffffffffffffffffffffffff163373ffffffffffffffffffffffffffffffffffffffff161462006c515762006ac97f0150e73d5b9134c917dcd4387816bf3c707fe698f658627d5090182c93b0f49560001b62001aa7565b62006af77f46e60008f80391f656e7816973689f241700606afe699b2ff0df46fc5235866060001b62001aa7565b62006b257f6c8aedb441e4d548dc7a91ed1eb928521d3e50f054520501ad067592432652ee60001b62001aa7565b60003073ffffffffffffffffffffffffffffffffffffffff1660003660405162006b5192919062011bb9565b6000604051808303816000865af19150503d806000811462006b90576040519150601f19603f3d011682016040523d82523d6000602084013e62006b95565b606091505b5050905062006bc77f19c38837f1dc616600472223d191e6a3549e8373932c61e0737ebce58519dadd60001b62001aa7565b806000811462006bd357fe5b60046000803e7fffffffff000000000000000000000000000000000000000000000000000000006000511660007f43adbafb000000000000000000000000000000000000000000000000000000008214141562006c34573d6000803e3d6000fd5b6020600460003e604060205260243d03602460403e601c3d016000f35b62006c7f7f2c079a612babf7a847bd84d70cdd7400d590274d9e89983fda7e89061b7baad060001b62001aa7565b62006cad7f6c2533c0e68b1f5c8647a4a53a29424cbf51eaaa56326acf7ac8cefbffbd36ca60001b62001aa7565b62006cdb7f1c414ddecd5d19123b887c5f54684e8c8c4f0103cf2277188f738eec362c5d4460001b62001aa7565b606062006ce7620040f1565b905062006d177fc35d16308c758935c32594cf012de7978721c10e781be1b2d609d2249a89a93160001b62001aa7565b62006d457f07d3d2ffc0884a402e47a3a8938bd475f659fc7407d848db38739105df3e6bd060001b62001aa7565b62006d51878262007c65565b62006d7f7fb210d99982e1172ebdbd82ee3c183093a631f2d55f8eec64cf95cdc541753bc260001b62001aa7565b62006dad7f811c750284adba2e9d5b1f8b6433a09318dc3aac238b1deac1f4738921e772f260001b62001aa7565b6000606062006dc58c8c8c8c8c8c8c8c63ffffffff16565b509150915062006df87fba280de9c7b230f2188cebafb124bd74474cdbe6b9ec7d194763d6792b5a65e460001b62001aa7565b62006e267f39e9084cfb41ef0c9c23ee855a52a925ac9991e5e22d84924d4c55d1748da7f560001b62001aa7565b62006e3581848663ffffffff16565b62006e637f9cd5cedf148b5eaca3222353f2e8a16b1e64f8dceca547d18d0770b75a984def60001b62001aa7565b6020815102602082038381526343adbafb60208203526004810390506044820181fd5b600062006eb67f517c68bc0319bb9ef84abf67b53e563901713ca0c954b6206f2e03386715aa6c60001b6200151a565b62006ee47f8520bb5c87ce77c0b5c42d256219381ccc02dc3219818f27f941d059a595533760001b6200151a565b62006f127f8d7a180a925017d717657b81999df0d68524709077243f49b8360b33495ee2a160001b6200151a565b600062006f427f52df7461c3bcd08ae3a6619a7da167f51cf3fea966d6c3190433d3a228d5850160001b6200151a565b62006f707f590bea789f27c3a38da5e371b8f7a66af939f15fb26f76f7117b9a6da0a419e260001b6200151a565b60008351905062006fa47f7d4fd4c7866feb1e8307e0f8ad5cc5bfee8721312d83f5457b0acee7852ee04360001b6200151a565b62006fd27ff9ce1cc108a0a44d5111b44beccfe00485587cd37c4c137dc8ab2dd4d456fc3160001b6200151a565b60005b8181101562007073576200700c7f8d41fcf075210d0836d8ab47890685a994b9ed0977a5381931ca56ed95431f9560001b6200151a565b6200703a7fa4078b34721b01d2c59c24dce2aeb18e49bff4673d04d9d1589b039890b7d3be60001b6200151a565b620070638582815181106200704b57fe5b6020026020010151846200ae3290919063ffffffff16565b9250808060010191505062006fd5565b50620070a27fe947b653dff6837e2322f4a3ce1c622e6c8300d736a302fc8ae3e7a534d5e85e60001b6200151a565b620070d07fbb397ff28932779b32fc5467bb949747ecb6a6b9d63de6c1d39c73793053c47260001b6200151a565b60008214156200717057620071087f55b3b3f92d5b0970e396a9b2867d355b129b5c4a45f9b98f1dd708ad07cd0a8460001b6200151a565b620071367f2ce6a2130f76be3046d19bd4ef66b20089fe70cc68da6fc817d8e78bb3c3c7da60001b6200151a565b620071647f7b0628316fde1e8640a9b4deac6b3ad65b05e6e56e2515a963b5624e5169210a60001b6200151a565b60009250505062007941565b6200719e7fbc112bbf470d202f2b6606f4f6e8b2da1d3aac0494ae39b413f3815bff3a1d7860001b6200151a565b620071cc7fa0e52316deaedc34fb62da893e260fbd7e81dce6b3e912f8c7b7b1aeb2d7d55660001b6200151a565b620071fa7fc301ff363adeda5fdb75547fff202e2947c930d5b9680b691cab79f5a6770d6e60001b6200151a565b60006200722a7fd04b1d591c43d1329ca6d21c509a46d4f8428a6bf9b6eacfeaf7766c571fa33a60001b6200151a565b620072587f1c488535b06e58d22de7059d5d3d84b127ec08aef3ade180b4baadc34befb2a760001b6200151a565b60008390506200728b7fea33cb870bc5553b9c47555e82709bec941ea53459c6457b36dfed5d4685831e60001b6200151a565b620072b97f9223ec6b2025be294c9f1fab6bacaafebbb00c68a0666e7059aca4e33b1bd82260001b6200151a565b6000620072c788856200af97565b9050620072f77f948925d2d8f93428355bea85deef004ff9c1e613fb347ea576b4f8c5f2443c1060001b6200151a565b620073257f921ce3ec3cb7a4cb939650538b1c061d3de6126799d657607f4a22273a987a2c60001b6200151a565b60005b60ff811015620078db57620073607f6626192c41a0bf8b45e530160183a0329c3e79238ed89c7cfbf2bc5b43703e5460001b6200151a565b6200738e7f86634b1589059700e28c729ac59f65d19e2b985fab9ef9198d6d2a3e8ca82e9e60001b6200151a565b6000620073b1868a600081518110620073a357fe5b60200260200101516200af97565b9050620073e17fdc4c48b1ff49693b6fe56d2a5cf8b95a1de36341336d27b85e766f3f706d8cd360001b6200151a565b6200740f7fde83a08ab4ac76f36cb84c29c34c4dba446f6d2dd419ae0271ccc41c60e4ff5960001b6200151a565b6000600190505b86811015620074c1576200744d7f474e6f81d79435eb84a5bd966761977ef6f60a81916c579b54327237b0faf05160001b6200151a565b6200747b7fb2375540817c12afacfbeabfa78d7b4a9526f0a110e74fa015fc39d09ce0df9760001b6200151a565b620074b1620074aa620074a3848d85815181106200749557fe5b60200260200101516200af97565b896200af97565b866200b111565b9150808060010191505062007416565b50620074f07fac3bf220fe5e0422dd9bd93daffeee45c8ddec7a2d20124c1ba7dcf5727bf7be60001b6200151a565b6200751e7fbc3788527eb8e4d7bf420fb5f5b0bc7aac0bc7926d91e2a73e3171bd098c1b5a60001b6200151a565b8394506200754f7ff29e8a5ba09ce2ecbadf8234b8268530f469cd60e7f06f5aa9f2311fe5f6499860001b6200151a565b6200757d7ff693e72551a6ebe21c66309e8d86fa87b00f3846a4e6348db343f859f925429d60001b6200151a565b6200761d620075c26200759c62007595868b6200af97565b846200af97565b620075b3620075ac8a896200af97565b886200af97565b6200ae3290919063ffffffff16565b62007617620075e7620075e06001886200a65390919063ffffffff16565b856200af97565b620076086200760160018c6200ae3290919063ffffffff16565b896200af97565b6200ae3290919063ffffffff16565b6200b111565b93506200764d7fb4cb014056c3992aa782fb9277152be0d589ef1f819cf50e26dc4e66ac4450f360001b6200151a565b6200767b7f6df52857d3be5efa98ea61f66b9812a086253a4d6ff5e8bf9bf90f69bbfe15f560001b6200151a565b84841115620077c257620076b27f7df2fe689d75e7d8bfeb633d3f3df15ef9d93d12318f9f860182e40c0ec7ca7660001b6200151a565b620076e07f3c8dd6f1b805681f3a3b7ccaff9dab91226e2e425ec2639f3cc4d0d934791bbe60001b6200151a565b6200770e7f07ac60d8a4710906b6d348686f7ecf3246a2d9aa42cf05e3148bad5c58768c9a60001b6200151a565b60016200772586866200a65390919063ffffffff16565b116200778e57620077597f46e6d04402fc5a8c250a34b14513c5bd1b7e04f02be74bdc713ef700a55c58b760001b6200151a565b620077877f2a594d6045fb7d5031f8e7420156b8d32d5c6f758f23bfb7bf958c3a82d8925f60001b6200151a565b50620078db565b620077bc7fca185891f21bf8745ade77068c30280c80682cf63c43863421854da82031fcef60001b6200151a565b620078cc565b620077f07f390897df68a1cd1014ff5df5c9da9f7035bd52b2a7c49c8acbadc664a7a7410260001b6200151a565b6200781d7eedad0978c045df402eb07aa194c8a134ad20440e027d5d2b7f985269e06f5460001b6200151a565b60016200783485876200a65390919063ffffffff16565b116200789d57620078687f9bf0a0780d6a577f36be64906fdb20cf412ea05e5765402fe6774c3dc2f6d8a960001b6200151a565b620078967f548acdb80de1e2ee2cb3d838810448013f45f6acccdd91e4d9e3b2ed29b252d260001b6200151a565b50620078db565b620078cb7fe31672a9d3dd14e019a125cd534ae2505e559e69f94c2fc94cd8f6aca48c147160001b6200151a565b5b50808060010191505062007328565b506200790a7f9ee36d0dad851e25775eeafe6ba733dd02c152a5bfddeb302da17330d8e3eabd60001b6200151a565b620079387f82db8f2560c53a277a30e72bf985604e9f549dfc442af65e59dbf73965bc2f4360001b6200151a565b81955050505050505b92915050565b6000620079777f5ceb85d70358b3bacd1534074d8476b9815c3aa6da57ff5c4db717cf1398c6b160001b6200b34c565b620079a57f6b45de0869fc60f8014f7da0542a0a317c895d5992a32999446b847b215ea03b60001b6200b34c565b620079d37f1c80b8e8d78eb73111835007cd5fbce062271945d8ad91c9713a0f5eaea6e75c60001b6200b34c565b620079e46000831415600462005b30565b62007a127f7dd4f066fd0af9999cf3a3dec7ae7a7af556b87168e1bfb8765875d731bc80f860001b6200b34c565b62007a407f65201be675c5a31abb3b30b2863f4e84354bbabb212738434818b331218fec8060001b6200b34c565b600083141562007ade5762007a787f04f31c69f813356d0a5ac0c9edb65d06a495176d64b8586c7cafb96d6996746f60001b6200b34c565b62007aa67fbfbf0353e226ff48ba457fb68f235ebcc9f63baa19022a9039cf1c0942ae0fc760001b6200b34c565b62007ad47f1609c5c09908c1eb992d9ff1e81fdb2a249516c2470fdff827e65b26dbe7e28560001b6200b34c565b6000905062007c5f565b62007b0c7f2be483056be80cb935b63b4745911d2532199c222ec22fe0f78a15bbb8fed09e60001b6200b34c565b62007b3a7f0270b25143b29a9c983a0408af759a0e9e2893ffb29d7c5caf214b0d971bf96760001b6200b34c565b62007b687fea10c1255e0cdcf9ab2098c493934ce8f4b8547a6b179a287f637c1f536ba66f60001b6200b34c565b6000670de0b6b3a76400008402905062007ba57f0a6ae6c6038ccda5c0051980bad43ccf17d35f1670e80ae05de0d907db4c1e4660001b6200b34c565b62007bd37ff192757c260626d3b1e4687cdff30fc5f9d5ad2bb5f508d95f5b59423a52625760001b6200b34c565b62007bf4670de0b6b3a764000085838162007bea57fe5b0414600562005b30565b62007c227f1d11f25c6c63a8fb3ebc8bdbf2a3555840e10ffda34811fbbb33bc33243b3dad60001b6200b34c565b62007c507f5df7b8b2cad4c987f6ba11bd0e6b7c0d29619157bb4a75d59fb0a2547633762060001b6200b34c565b82818162007c5a57fe5b049150505b92915050565b62007c937f4629bfa227a839800e6251364866c96ba5fd044d8cb53dc9f54a762ddb12d4a460001b62001aa7565b62007cc17f5926da80669851c82fb84d6695b75a8854e1f7e954624510256e211e681430de60001b62001aa7565b62007cef7f4baf7c8f1f3fe85d01a8c40265e25ffa6fd717df7ff7b1b85a8d2805a92acbac60001b62001aa7565b60005b62007cfc62003f95565b81101562007db95762007d327ff2652356f20ce5d02c75fd7dee200bd00a3bc26799457b974d73656cd73f2abb60001b62001aa7565b62007d607f7d691bc9c9d7485bd33386050d08f8f7fc0da4b6466400506193fef460134f6a60001b62001aa7565b62007d9483828151811062007d7157fe5b602002602001015183838151811062007d8657fe5b60200260200101516200af97565b83828151811062007da157fe5b60200260200101818152505080600101905062007cf2565b505050565b62007dec7fd0cdf1539ece1f2be7de9cf2849560a641f4556089e12e31dc8aefa09458737060001b6200151d565b62007e1a7f135db87213a041ebc173b9a0f910e966f2157b381ba85475a314699ffeeca1b460001b6200151d565b62007e487f4f5976616bfbea85925bfd68663569977affa812887b04d8f4e46b052e5bf11860001b6200151d565b60008060008473ffffffffffffffffffffffffffffffffffffffff1673ffffffffffffffffffffffffffffffffffffffff16815260200190815260200160002054905062007eb97f3fd29eec05703347dfea36cab0581054301cffc581f1d9c60c785623917052f560001b6200151d565b62007ee77f0a7194531f09dfff115cb817a6b833c5a83cdcc40203a20fae9b3d1c0610d04260001b6200151d565b62007ef88282101561019662005b30565b62007f267f9ee20b2f718c833a6b54e36136191ec02117c6649d0f2bf14fff4a16d7fedf9060001b6200151d565b62007f547fbf960ac6d0861bd34aa85dfee45c8fcd04cfc624e5cda2d2c239b208ca5d5f9d60001b6200151d565b8181036000808573ffffffffffffffffffffffffffffffffffffffff1673ffffffffffffffffffffffffffffffffffffffff1681526020019081526020016000208190555062007fc77fbb42212863e1b96fb69175b1fc3889004148f7b98211105dd90756392eec2f4e60001b6200151d565b62007ff57f675aad2442070cb6006c3883109cf18220df6f4420ea174d96cbf7353b3f17d360001b6200151d565b6200800c8260025462003e3090919063ffffffff16565b600281905550620080407feb896204d6b8acd7e985eb63222b952b7566f34ad493da2295c659295be1b23760001b6200151d565b6200806e7f13332ea05c8788b77d4cd72067db64819c9a581ad7fc0b8b482e6d8f3a7d2f3e60001b6200151d565b600073ffffffffffffffffffffffffffffffffffffffff168373ffffffffffffffffffffffffffffffffffffffff167fddf252ad1be2c89b69c2b068fc378daa952ba7f163c4a11628f55a4df523b3ef84604051620080ce919062011e92565b60405180910390a3505050565b60006060806200810e7f55b2c706edc1fac40420f6b6ee2c7fb303ddd3f3b2e904e75d52c6bfd88e56fa60001b62000d16565b6200813c7fc498ca4ed44b1ebcfc965c587448a4caa7674ba28574ad44c701d0b18d270cc260001b62000d16565b6200816a7fc0eb990e8883f9af90f456b244df4424ef0fdb6588346633543bc7fad5d1535e60001b62000d16565b62008174620060a0565b620081a27f44575eacace6313d4ce3cb25629c3a9f23ce0f7905ebb1784022d4cd23e99a9260001b62000d16565b620081d07ff040ed605f9a4ec3d50d4eda306d0a85bb31eb31f39f6edd7e1fe7be96c5f88660001b62001923565b620081fe7f7850a5df57103acfeae107cdd430296093ac8a2857f5af0155bf2222f5fb78cc60001b62001923565b6200822c7f1bd2e39f677f7dfc085b1a88683dc4004928a2318a23b3f4e278701f4192f2f460001b62001923565b60606200823d886008548862009fe9565b90506200826d7f8a089423a8c9753477b16afe9bfb0fff73e704fe35ca60621d10497da88cf01c60001b62001923565b6200829b7f78658ea0e5e640497989b5a19a5e27452f2769863f3c55ae243369ab6b10d9e060001b62001923565b60005b620082a862003f95565b8110156200836e57620082de7fe93612a6eee1b9e79c64f77626614056bac91707756e515d52491c6752aed99660001b62001923565b6200830c7f840502bd7926b123076d6e9cfdce3f72f9752033fed1747bddf2bf337ccd6e6c60001b62001923565b620083498282815181106200831d57fe5b60200260200101518a83815181106200833257fe5b60200260200101516200a65390919063ffffffff16565b8982815181106200835657fe5b6020026020010181815250508060010190506200829e565b506200839d7fe4fa7366284c891ca715d5d40f292e66d129184a874d99ccda2c224b82f2fedf60001b62001923565b620083cb7f26e6d0cad3f8f75b7d9a6719f3c8142d13dfc89b0b0391d53ceccda5dec8471760001b62001923565b60006060620083db8a886200b34f565b915091506200840d7f36ad62848c38ca7a22721571cfdd637a01dd1459903ad51aef0b371a26b7b87e60001b62001923565b6200843b7f649934bb6f2ac06c45d75c8a3b6999584dae35abf04b7ec358a47fd69d0be1d860001b62001923565b620084478a826200b6c9565b6008819055506200847b7f22822bdf15cb7b4d3dc597f57857effc767ebd95f0ce45cef2bd1295a34f57f960001b62001923565b620084a97faff557b80413125e35839e5e193a62a21cf0c3b11728453447616ca3e35ad4db60001b62001923565b8181849550955095505050509750975097945050505050565b620084f07fe1d920667056dc064a0ac2ea129295d4ab7f17ffb9825cf7dbabe17dbb788d1c60001b62001aa7565b6200851e7f027a7801b45615b51a66cc8c3fd48bed3b7a15112374153b853199a850be113460001b62001aa7565b6200854c7f5e3aa24270b512bd4bd9ce35373cf66f7171e5fde19dcb69d4227b25d2ef8cec60001b62001aa7565b60005b6200855962003f95565b81101562008616576200858f7f2ecef83b803cf945c9e89923ab1054b81a3c07a7b0b9affe9e1c694cddbdce9d60001b62001aa7565b620085bd7f074e7df211bb691b95c7e8327a2f91e0d50184877909e3f04eacd10c7539ae5960001b62001aa7565b620085f1838281518110620085ce57fe5b6020026020010151838381518110620085e357fe5b60200260200101516200b111565b838281518110620085fe57fe5b6020026020010181815250508060010190506200854f565b505050565b60006200864b7f1b29683c6d9dde1673ce697938ab51f6536653808bf6db6eea3597ffe9aa906a60001b62001aa7565b620086797f38ac9bd4700929cf18cdff60b64fbec3f01130f4dac228d844d0e0448895dd0760001b62001aa7565b620086a77f11110b64f87dba69b04f792a1bec0032310e5696bc91d880f427af3e2d83848e60001b62001aa7565b620086b1620029b2565b73ffffffffffffffffffffffffffffffffffffffff1663aaabadc56040518163ffffffff1660e01b815260040160206040518083038186803b158015620086f757600080fd5b505afa1580156200870c573d6000803e3d6000fd5b505050506040513d601f19601f8201168201806040525081019062008732919062011628565b905090565b6000620087677f4162dfeea5487a2e490df35ab6c4995319cb016658ef6478e632b71af599fcb360001b62002d2e565b620087957f52a922e27af0a55002a9023a873c43cc837d583fe0362e21bdb684f84be2b0ed60001b62002d2e565b620087c37f445bb281dbba1baa57c2b3af376885c1ba274636fe85e7d63faf25499e6f09fb60001b62002d2e565b620087cd62005f75565b82604051602001620087e192919062011bd4565b604051602081830303815290604052805190602001209050919050565b60006060620088307f55b2c706edc1fac40420f6b6ee2c7fb303ddd3f3b2e904e75d52c6bfd88e56fa60001b62000d16565b6200885e7fc498ca4ed44b1ebcfc965c587448a4caa7674ba28574ad44c701d0b18d270cc260001b62000d16565b6200888c7fc0eb990e8883f9af90f456b244df4424ef0fdb6588346633543bc7fad5d1535e60001b62000d16565b62008896620060a0565b620088c47f44575eacace6313d4ce3cb25629c3a9f23ce0f7905ebb1784022d4cd23e99a9260001b62000d16565b620088f27f075445eb1998bd180dc98797af517bbafaa82e1189885dc02b3b1706fa18f66a60001b62001923565b620089207f217a039ac6bc316b75dca49882a49a17942e7bd445d73ebecf72535ced77729760001b62001923565b6200894e7fe53cf9f72d5044b8aff86886bc29734464425ffd7c91440c4397084b2653fea460001b62001923565b60006200895b846200b8b9565b90506200898b7fb01c236727329b1469813a0cdf2854d2944c75566b5d275bc0b3b80264c43c6560001b62001923565b620089b97ff081d98c9843f556f38be59addd986b2eae992e349124b0130d13104980552d960001b62001923565b620089e160006002811115620089cb57fe5b826002811115620089d857fe5b1460ce62005b30565b62008a0f7f07e26732402396e4aea9e847a2a1a79b78ac6775a03072bcb385a9a3ca45c27660001b62001923565b62008a3d7f2b22ee471e3d1505adf157aa063e2a5bcdcfdc9b00927f84de691148f772c77e60001b62001923565b606062008a4a856200b962565b905062008a7a7f56f96e8dff543cfdb23bf7713de5c5e04aed853226839b3f2f396f1803142e9060001b62001923565b62008aa87ff2baaf74d73c52dd0f28652e31e3831fa7c58e2697edd2a96618dc1f28e3306a60001b62001923565b62008abe815162008ab862003f95565b62006351565b62008aec7fd3d05dbef648a02b7a77bdf0ae9c62c2d48710cffbc3cd3decaecbaf59962c2460001b62001923565b62008b1a7fc10135349003f9d1fe5bfc18603d644859c9de73b55715d088718336ff5f389e60001b62001923565b62008b2f8162008b29620040f1565b62007c65565b62008b5d7fd8c6bd1f43b693968c536fb044bd8b6853565e62f4451255249ed8f70dfd46b760001b62001923565b62008b8b7f80ab6eb0f850cd9c519f6e6378b3026f7008e1d1156dc57f9f285ee03f1a869360001b62001923565b600062008bb97f00000000000000000000000000000000000000000000000000000000000000008362006e86565b905062008be97f936bc82140d53025058871835bef526d1e7a49924f92b262c5b9dee3d49d6fa960001b62001923565b62008c177f1048e8784e04889d201302f604fcb467f503437c772972a961b2eb9808ed2ad260001b62001923565b600081905062008c4a7fe7d762782a428f1316148bd8525343e80aaf8c918a683293feb1f8285560225f60001b62001923565b62008c787fe27a0a4f5ceaeadacd32659fe8267787cbe065fe3cf254fd2d69aba1bc582e9260001b62001923565b8160088190555062008cad7f36e208a2e363d6ae230171a236f6d9f93bd10d46d98baad04ac23f01ad8b453d60001b62001923565b62008cdb7feed852f12854549a172396ca9a55cea194dd53a0677817c41c4ead175831339b60001b62001923565b8083955095505050505094509492505050565b62008d1c7fe1e59a72b6abb196e5705ee38d9bd6c1a29ca10376e2fa3c0e8903f8cdf7949960001b6200151d565b62008d4a7fadcbe213569d514454727a270e9c70952205231cc4abfb6ea68bde4ab6f8767660001b6200151d565b62008d787f15b6e925556b308d3ad1066043cf26b7202f1674d8fc02119a0401f1f8c637e860001b6200151d565b62008dcb816000808573ffffffffffffffffffffffffffffffffffffffff1673ffffffffffffffffffffffffffffffffffffffff1681526020019081526020016000205462008f4e90919063ffffffff16565b6000808473ffffffffffffffffffffffffffffffffffffffff1673ffffffffffffffffffffffffffffffffffffffff1681526020019081526020016000208190555062008e3b7fd4a2ff87a6d0da870c806cdf81fdac8ec28fbeb80a5082414d54ccfe4b52717460001b6200151d565b62008e697f681dc1796f532e85b0ef7b3f9d671daade57fc56a840eac1e3d1d2ea1f30f08e60001b6200151d565b62008e808160025462008f4e90919063ffffffff16565b60028190555062008eb47f915670e06d3230875eb18467c82d19ee89b9b46317113ae387454d8cf437261860001b6200151d565b62008ee27f068040d6e85f05c180ffbfaab7da32c5a421878520d59c1d49ab8de36152a65f60001b6200151d565b8173ffffffffffffffffffffffffffffffffffffffff16600073ffffffffffffffffffffffffffffffffffffffff167fddf252ad1be2c89b69c2b068fc378daa952ba7f163c4a11628f55a4df523b3ef8360405162008f42919062011e92565b60405180910390a35050565b600062008f7e7f980f096ce2354611f661d545348edfcdbcf347f2d4fa9c9e2bc2234b96619b9160001b6200946a565b62008fac7f5203ec7b278d868f845c81d7f208837a954291190f8034ff73f1abf34395aea660001b6200946a565b62008fda7f257b57fe7b6efcf88210c6d37adeac50f6bdc1270dca168497530cb49198dc7060001b6200946a565b600082840190506200900f7f2712f69a57bae2ee34b696a2281d5fca60f12eef2753ba12e108837883591b0f60001b6200946a565b6200903d7fa9717274421667e304f7b258221f6f83cbc1a3c12db3869b2bd07495ef02a7c060001b6200946a565b6200904d84821015600062005b30565b6200907b7fbb23a54f86bc4ea5e593a05f1ed17e1f4ec085fd337eb065fd05171873fa78d860001b6200946a565b620090a97f59b5f75a5714feab22828cb70c6ca1fd02547b7956d33b95658dc4dec174169460001b6200946a565b8091505092915050565b50565b620090e47ff81347eb68f16450d5e669cebec6ee7a1fa5ac5ea54cd0cdcca39116f645fa5160001b620090b3565b620091127fe2a1376ebe4e4cec489f9744b050322118d55b97aa16438a57ddde1335a14c8f60001b620090b3565b620091407f527bb7a14e0d56ef6331f8d18810dc69d55965123a043ae607b318951a18a68160001b620090b3565b600281511015620091db57620091797f9afca44e5a82aedd5e366b527c36bdc4739ee9ac3bc7d768ec09ebd698c8eef560001b620090b3565b620091a77f1c6a4a9803e7aa3220d0727f0908a9b07a4f7495fc3876092cfbe666b353d7cc60001b620090b3565b620091d57fef223087e97cb97d037249402a85ea171ac9fea3d63d1de605fd9141125becfa60001b620090b3565b62009467565b620092097f81e9a490ce557e182511bfc6eaec796f0322309dc5b152b517ee96f2e7523faa60001b620090b3565b620092377ffb4857c6ffcf3a97a276c2d8a5e4a6bc4c22de16aeabff5659e835a97bd18bd560001b620090b3565b620092657f1d803e7d620c2a8dbc6a46d8f8a07bb3206ccaf62422d60ec7bd0c1dc0fc794360001b620090b3565b6000816000815181106200927557fe5b60200260200101519050620092ad7fba0aafccaa36bdc35e78716c86c21b686b91dac66af6de9e3e64db58f04732e260001b620090b3565b620092db7f5c1d4f8cccfdd4780c5784c21dcb14d0f579bb0dae794331f0cbb2ff25aa561260001b620090b3565b6000600190505b825181101562009464576200931a7f0a21b32c354f4bc66e9d4c10e74a9300712d3fa7e505b38c9e20783887529f3660001b620090b3565b620093487f21642a1c91cfe281a527673f1bc34858dc6507709de16fb4a1697722a7ca219760001b620090b3565b60008382815181106200935757fe5b602002602001015190506200938f7fa82b63eab5a33f22c51256249a5d9706a615ca7d35b5fb95eeea2b93ead8c2a760001b620090b3565b620093bd7fdd7e1a5a6e71679d2539db9e69626bf9a32f74614762ae4cd7a007979f4cfb4c60001b620090b3565b620093f88173ffffffffffffffffffffffffffffffffffffffff168473ffffffffffffffffffffffffffffffffffffffff1610606562005b30565b620094267fb9b2f9cf36db3000ee06b288a33fd50865404ecb93038917fbab684585d4d4a160001b620090b3565b620094547f250b0ef482be923352767281f9a34a6bb54fd53f27f97f94adffc7fea4dd254d60001b620090b3565b80925050806001019050620092e2565b50505b50565b50565b60006200949d7ff99f983ffa005eb9fbdb73b3330dc2c4db419113f947191b39b50653817d6b3860001b62001aa7565b620094cb7f0aefacbf402b8495cde634a09aa736a8d46001c7261d8f167fabca68b3099bb560001b62001aa7565b620094f97f9a29582461ad67f1c288e652ce80948e822e09b0875fac2daf7598a3864d93a060001b62001aa7565b6200950583836200af97565b905092915050565b60006200953d7f55b2c706edc1fac40420f6b6ee2c7fb303ddd3f3b2e904e75d52c6bfd88e56fa60001b62000d16565b6200956b7fc498ca4ed44b1ebcfc965c587448a4caa7674ba28574ad44c701d0b18d270cc260001b62000d16565b620095997fc0eb990e8883f9af90f456b244df4424ef0fdb6588346633543bc7fad5d1535e60001b62000d16565b620095a3620060a0565b620095d17f44575eacace6313d4ce3cb25629c3a9f23ce0f7905ebb1784022d4cd23e99a9260001b62000d16565b620095ff7f35cfbdc3c796c3154467265e7d785d74709acc6563ab88c0393a359d2bc0d98060001b62001923565b6200962d7f0bcc74f99265da56ee925686cc9c2e1576e7a7995dffe9ee1b665d3ef1026bb160001b62001923565b6200965b7fc9af106d096651dbe0540d9c6e563f371c078a4225c2c1af512c50ed6bbfd05960001b62001923565b6000620096907f00000000000000000000000000000000000000000000000000000000000000008686868a606001516200ba0f565b9050620096c07f4bb5d179c3712f3916fd0d5a787d610a027741cbe0031eaa1f8e3a88270f4c9860001b62001923565b620096ee7f9e4ccbcb29804fa59942d9b2dfd6e9d840280509e72201a79e236655f9e5f86d60001b62001923565b80915050949350505050565b60006200972a7f023f2efb49d1bbb9f89d09f18e3691af15d8e42d523a34456b9e4b948c3a87a960001b62001aa7565b620097587f25daf747dd3e5dbe6a43737ba49c12710a760d63030379a1f3f8467338163ec660001b62001aa7565b620097867ff764b485ad5a556773a7aad916874a60eb51ee47787ef61f3a4a4237df3319ef60001b62001aa7565b6200979283836200b111565b905092915050565b6000620097ca7fedeaf9d74c1273901f141d1c4fbabb9da5f8a988dda40287b2d5fc6af9df52f760001b62001aa7565b620097f87f0fd47a3c530c19e108fa4903175ad479242216c436fcad50d400d0bab09e05b260001b62001aa7565b620098267f670a0d3c9ade988b33ae122073658575451c348ab11bb105a4538c22aa4baca860001b62001aa7565b62009847620098376007546200bcfc565b836200bdb390919063ffffffff16565b9050919050565b60006200987e7fde6bd5634b69da203e3be74e3e52d12c93dbe330259a52853c0a0dffda9fafec60001b62001aa7565b620098ac7fb43d1c1126433339b2ce0e991162e5955e27df70b3ec56e520feff6364300e4b60001b62001aa7565b620098da7f18e4241c4bc4f315dd7623a8502989a54c44bc930e6ffa24c11273bda9759f4b60001b62001aa7565b6000620098f3600754846200c0d790919063ffffffff16565b9050620099237ff3345530ba50af6e110bf3c33cd014757798bbef6f8e3d1eb77ad95294cbe27460001b62001aa7565b620099517f3aa222d7a73a66637b57ad2090fc7b7d135e76c1ea2418767711ed8ee650fbd760001b62001aa7565b6200996681846200a65390919063ffffffff16565b915050919050565b60006200999e7f55b2c706edc1fac40420f6b6ee2c7fb303ddd3f3b2e904e75d52c6bfd88e56fa60001b62000d16565b620099cc7fc498ca4ed44b1ebcfc965c587448a4caa7674ba28574ad44c701d0b18d270cc260001b62000d16565b620099fa7fc0eb990e8883f9af90f456b244df4424ef0fdb6588346633543bc7fad5d1535e60001b62000d16565b62009a04620060a0565b62009a327f44575eacace6313d4ce3cb25629c3a9f23ce0f7905ebb1784022d4cd23e99a9260001b62000d16565b62009a607f60618e2a25299a7f43bef7f38755628d1852581489600af152aeda5ce2347d4760001b62001923565b62009a8e7fc5454d4a0fb9c8c8a707df0f64024f55ba51c16a3af7092db8fa31262a26c55060001b62001923565b62009abc7f43f3edd4fa06a86ebe3c225ca9b698dc62ea87d468a71666684ec8b0686f84e160001b62001923565b600062009af17f00000000000000000000000000000000000000000000000000000000000000008686868a606001516200c393565b905062009b217f9fd9e9361bb3e17eaf27e1338c07d6b8edaed80579360fb0490acb061b26921660001b62001923565b62009b4f7f6ba8e9b1d2ad8ad9782daeb0e52344e31d7f13f4ddae6cdde3e059dcea3ce76260001b62001923565b80915050949350505050565b600062009b8b7f23511a940767907e7479e5ada21d34917e22b09f9c1b77a3203cf8f8cf042ad060001b62001aa7565b62009bb97fb3db533c9428627285acc34d5fa76769148f2c7c0ce744099292f623bc78bd0760001b62001aa7565b62009be77fa227560b300e04f1a9d77ee99b51531ff1f79c317ee957d0290409e7624b451460001b62001aa7565b62009bf383836200ad26565b905092915050565b600062009c2b7fb63ff57fff44fad519b51dd9a1628b458ce44dc09407b3781c94536139b9b4ca60001b6200188c565b62009c597f0f215ac44a96153e6f920fdc8f381567185da65e2862fe68660c1e8d7701587e60001b6200188c565b62009c877faa101d66f4b55b14bb1e5546f7d6152e074f3d4bd8f672f5ff001e85fd95fd7860001b6200188c565b73ba1ba1ba1ba1ba1ba1ba1ba1ba1ba1ba1ba1ba1b73ffffffffffffffffffffffffffffffffffffffff1662009cbc62002900565b73ffffffffffffffffffffffffffffffffffffffff161415801562009ce8575062009ce7836200c67f565b5b1562009db85762009d1c7fd89fb1bac5943510950b517a984e0c3361de9936cc20fbc0c4a72da5127260ce60001b6200188c565b62009d4a7fd6b91357bb8efe53ea93d0d0fa18625ef9127c94af5f7413813d720a71eef6b760001b6200188c565b62009d787fbb44c612bb203fe0cd4a5094c43d1fa6fbe0852fd53c227de69b8a906595bb2460001b6200188c565b62009d8262002900565b73ffffffffffffffffffffffffffffffffffffffff163373ffffffffffffffffffffffffffffffffffffffff1614905062009ee1565b62009de67fd833c4463927603cd19d35ee61d9b68a8d2bb9f9b41f3e14672ab3991080546360001b6200188c565b62009e147fe8b0b249a2c9f77dfefb167b170317fe940cbabf6bb0d842292e1770fee4f96660001b6200188c565b62009e427f6e946359bc50f9875b9b5dc4ec74e06668518bfc0326104e1cd992e2c37f065e60001b6200188c565b62009e4c6200861b565b73ffffffffffffffffffffffffffffffffffffffff16639be2a8848484306040518463ffffffff1660e01b815260040162009e8a9392919062011ce0565b60206040518083038186803b15801562009ea357600080fd5b505afa15801562009eb8573d6000803e3d6000fd5b505050506040513d601f19601f8201168201806040525081019062009ede9190620114c5565b90505b92915050565b6030600a820601600a820491506030600a830601600a830492506030600a8406018060101b8260081b8401016642414c230000000160c81b7f08c379a000000000000000000000000000000000000000000000000000000000600052602060045260076024528060445260646000fd5b600062009f877fd8e2832ef6720767deec69f44ca3c3cd8b861b255a67dda4205578fb7165a1c060001b62002d2e565b62009fb57f5df0caf98b88b3eb9f27ec4ab7f0297f4988b55185a2490903332262f13a817960001b62002d2e565b62009fe37fb1fe59e6880d8042919f1fb255ef6b982ebb7b8d94358d2dc30eaaa4f095e69860001b62002d2e565b46905090565b60606200a0197f3f3b26dc4b74bdc4feea0b293df66e38add25381c757121005a5dbb17b02080760001b62001923565b6200a0477f925d223010a18ffcaf9f257fcbf47776d74ef56b28d6670dc1c1abb7feb80c2e60001b62001923565b6200a0757f37f8e429418e0fa036d9ff8dca6ee87dbcbb0ec470597f1bb6d61db24d5a079c60001b62001923565b60606200a08162003f95565b67ffffffffffffffff811180156200a09857600080fd5b506040519080825280602002602001820160405280156200a0c85781602001602082028036833780820191505090505b5090506200a0f97ffeb753dd6043e87f607e679ad3f8be98c78a8eee58ea89b1b7d255d2b071483860001b62001923565b6200a1277f51ea279be89aed1d72d7ee4a78ccd5a9e73ec2efc8013f158ae0cc8ff3eb4dc160001b62001923565b60008314156200a1c5576200a15f7faf77bc457bc52deaae9317eccc6b063c0f362dd6ace737a0f4d18398795abd3960001b62001923565b6200a18d7f1ec7559c2e85ca1074e6b339e490311948c1f3a7900c2f7c759094ca1a4117ed60001b62001923565b6200a1bb7f0297a261e03a70a04f22328e7104b3bd685186697cedf476cf69d1e36e5745e660001b62001923565b809150506200a64c565b6200a1f37f5467e404cd4fc7a6ec6546c6b9a7141dd048e66a5cf63a4dae051351450ad22360001b62001923565b6200a2217fabe925950c0f2a83ede59f0c95f69094ee78c7647414efa26a935f6b88b8d70160001b62001923565b6200a24f7fdc024e11dd203a8ce39947637899c331f1ce3e86e694ed48d9ffc5e2cff7d91a60001b62001923565b60006200a27f7f4e542a7a59d9825275559bd86d1c1415b9ef9650a8636f599e77a32e8c3f593560001b62001923565b6200a2ad7fa3f1bbb3c14bfcd9f9f6fc5ba042c9c3df72ed3695878f5215e792043647f1d760001b62001923565b6000866000815181106200a2bd57fe5b602002602001015190506200a2f57f57cd12ec7077b40d43a277ff2202228ffdf7f72780df243de7f0f33a9ac3727960001b62001923565b6200a3237f72688151cda68cc96653ad4105c170b4394d59c0f569a93d96d0c525d4e4fe9960001b62001923565b6000600190505b6200a33462003f95565b8110156200a544576200a36a7f46c6a649b41c514c4bcda1edb0fa360f876abc66d0cf74d3030c2f90dc29acdd60001b62001923565b6200a3987ffd98d7c311bc69b3032a07fe3d266279588dcf676e07fb08e2bd85c7f17047b560001b62001923565b60008882815181106200a3a757fe5b602002602001015190506200a3df7f5f64f8ebbd5fbaff0887cdb3fff54be669ac84c30082fdf47e0c5a0d6384c33860001b62001923565b6200a40d7f3400b260a25a9f2f39a424bc6634f46c8adf3d4251b960908dadbaa3da406a4660001b62001923565b828111156200a508576200a4447f64ebe404a7da0b92952747f9a35876af1c593ef4c1574c722f1c38ab89d4b17660001b62001923565b6200a4727ff8e25ee9fdab4071889b5d17b7acef22a24c9d0514621ba0ece205acce7f992060001b62001923565b6200a4a07f7a0281aa9802b8f4d12e7cb91153177f6a0c5a43896fb76d706a21ceb986189c60001b62001923565b8193506200a4d17f7adbb968f4c2de91bff85e61cfda8dea6157f335c9b2679464c8b3df1164d0fb60001b62001923565b6200a4ff7f3286316b0c1a173cdfc2e03ac2e6af192e1fbe23aaea995b5a88a5c50139303060001b62001923565b8092506200a537565b6200a5367f2705530b92c1f3006821b0ef277aea2eede2893970c75543fbaf5e34c391706960001b62001923565b5b508060010190506200a32a565b506200a5737fcc28b04df06b8b8cf8077469baeadd1519a9cea22fda3b7cebca240cfac8285960001b62001923565b6200a5a17f265130a9feca8841cdc172ec124dcb08495de688c938daa174db0a52e1b835b560001b62001923565b6200a5d07f0000000000000000000000000000000000000000000000000000000000000000888885896200c726565b8383815181106200a5dd57fe5b6020026020010181815250506200a6177f6ff6ff86382dfd233629348077aefe50353cd8883184a524239b780bd2759a7260001b62001923565b6200a6457f136df075dfd5804ac51de0a966729c645feb1f4ffa34bd52c4f51de717c2619c60001b62001923565b8293505050505b9392505050565b60006200a6837f136ebdc0e8e6c654b5e766ed596f1b15fd48fc1d51bab4c8c7c45de1ee4ad72160001b6200b34c565b6200a6b17f114bff1eadb9fe5e00e839002a18300aa1e7fff0b618dc6b69f07aeacb6a9b8460001b6200b34c565b6200a6df7f7da4616aba1f4bc537147c323237f74d59ca849041dafd480533792f0b249c3460001b6200b34c565b6200a6ef83831115600162005b30565b6200a71d7f14e53f9ac176f8345a56cfe7c694fa8ebaae7e4283f826c430e46ed04d387bcd60001b6200b34c565b6200a74b7f6c57e6eaf4e7a2a0881e9eb3b413418334d4488743dd138c4cc2ee06e58d5da760001b6200b34c565b600082840390506200a7807f7f6d826607619d4af998f19f06e63668e2b4a7b2f21b0950b6d5a8286412c44360001b6200b34c565b6200a7ae7fecb4e28ed936d30a07b9d6ae22d30338892d72993772c6977c28d7f23d9c7cd860001b6200b34c565b8091505092915050565b600060606200a7ea7f9efb3535d07eb16b947dd997394abafb7fd31aaaf37d96e1f9d415043356955c60001b62001923565b6200a8187f88ceae323ad50f259fcf3df0dab53536f2d849985c1757658fdde1b9dcf8852e60001b62001923565b6200a8467f7a4969644d3cff81abd06a30f03f13120da11d21b98cedd43028fd29f59439c160001b62001923565b60006200a853846200c90c565b90506200a8837f6bfe24d84bf382780e4f0c4654bff618b1b06a686edd3d12e72e7fa5e8978d4d60001b62001923565b6200a8b17f8660a1ae2a87d2b425618fa38649f0f4bb5587028efffcf16385b536accd540160001b62001923565b600060028111156200a8bf57fe5b8160028111156200a8cc57fe5b14156200a974576200a9017f4828999c434d40bd50111f3cb93e2c8aa5aced8fe7d6bc77a6fb0bd8a28ab48460001b62001923565b6200a92f7f52de3b1c5ea2af216ca6e618ed33bfbbea12d3d7958905c7e6e63b52ee96440860001b62001923565b6200a95d7fbee2980315c20b2b0b2d7f04ca6a8cac5a5c5e87a5c096f311c417eb0abe218760001b62001923565b6200a96985856200c9b5565b92509250506200ab2f565b6200a9a27f43258493f998a831241ecff3e57e864df93375624abc34773f6a2a9a18a78b3260001b62001923565b6200a9d07f836f97d0ebf3e6588b62c74360bcb3d2a56eea92dcdf70b3b4275687789eafcc60001b62001923565b600160028111156200a9de57fe5b8160028111156200a9eb57fe5b14156200aa93576200aa207fd96f26dd3bd38aae4da5fb6c49cbd629c2ac4a2b635c3582271755e46380844360001b62001923565b6200aa4e7fb96bb45f637abcf85d926e6d36c566148661cce912d0ebd0591848b3dfeea37760001b62001923565b6200aa7c7f82aafeec53354c5554ea413438855ec58d5261cb33ddc97a221b917bb1959b7b60001b62001923565b6200aa8885856200cdb2565b92509250506200ab2f565b6200aac17f7c169c288ea7a0ad60b75641c00bc724e0d3b9c715d0fc400ca8c9b9e064c37860001b62001923565b6200aaef7f7af8621fd07605c4fb90b80094e71e096e4d1e4e77bc0dcf12241cdce086df5260001b62001923565b6200ab1d7fd0aa76b69ae1be2c510e668da9c0cf55a7297d4f856b89d4b3da5c886d894ad060001b62001923565b6200ab2985856200cf30565b92509250505b9250929050565b60006200ab667fd252e4c4a146275f3f136ca3f3307105708dc18794fd51d5d4eaaad5dff6158760001b62001923565b6200ab947f94ef495ab018cedc57cc14ba489726319a30804239a3cf0d9290d1f4719d522360001b62001923565b6200abc27f7437d32c31d5135221ef0c1981df8875b31aa7cc10caee135e7352ce73341bf260001b62001923565b60005b6200abcf62003f95565b8110156200ac95576200ac057f41ff46897bdde3e923a795421665021aa6fe561f679d85aa9c786e924dbcbf5360001b62001923565b6200ac337f8fedc1a11e0535cbfd76f98794b8197411edace8f22e63b9a61bda69f736f46260001b62001923565b6200ac708382815181106200ac4457fe5b60200260200101518583815181106200ac5957fe5b60200260200101516200a65390919063ffffffff16565b8482815181106200ac7d57fe5b6020026020010181815250508060010190506200abc5565b506200acc47fb34e5d22e9742b3f513275d084f7226836918ba918c74d7d953445a72de6fb5a60001b62001923565b6200acf27febc2467df5bd3875ce8de247847113f9eda59712429ba39432b1bd1ae56dfae060001b62001923565b6200ad1e7f00000000000000000000000000000000000000000000000000000000000000008462006e86565b905092915050565b60006200ad567ffd101f38d26e6d17af50d38c93b09fafe57fb5eafaf7b7dbd74da76698b8c1b860001b6200946a565b6200ad847feaf5515690878b5fffc1395c89258754d675be05b18ec31034c61379a0ac309e60001b6200946a565b6200adb27f494388132ab0669abd84a4cea7d3270705c1e5787b1023b89af997e631df29c260001b6200946a565b6200adc36000831415600462005b30565b6200adf17f63043e6e8ac71692ef40fd971a32b5acc860db477c14ce7a3e96c6bda6edf25860001b6200946a565b6200ae1f7f255ba90670870639d340d043cc9ae293ea5cfd9c68a6c4acc63601d708b0b5ff60001b6200946a565b8183816200ae2957fe5b04905092915050565b60006200ae627f5f36fb0c028103edf307467f63f0332f966da8f673e1c7ec6aced59d823aae6260001b6200b34c565b6200ae907f44b88f08c3beb7c1738a70418178f0bd070b94ca34f2d76f0ecc9e722ebab05b60001b6200b34c565b6200aebe7f089af7c7f34c896b1969367a1c50582a2d2ac2cc2c5e04246250cb0ba151867260001b6200b34c565b600082840190506200aef37f258ce8748ca545d5cfac415b21ac328631ad1fd9f61842fc89135db464f24ed760001b6200b34c565b6200af217f1cc115f28de7ca40c964e4298498543601b967d758e03fb745dda2e2ef4966c660001b6200b34c565b6200af3184821015600062005b30565b6200af5f7f3fad55df3aa1830266f7765bc1f949767a1cbfd6d2697a8d021c032e32a426bb60001b6200b34c565b6200af8d7f1237371198ec3b9801ff55f45911f80dd6332e4e689796642e2b2e8c75af767160001b6200b34c565b8091505092915050565b60006200afc77fc8d6f319fc1e78e2b93903d8d2ffb99089ebaffbad0e0ddf0f13ca20d7f7213060001b6200946a565b6200aff57fc973b8114f6c35c573de6ab7982d15d6df7383ddf1407b83fa98425285e2b45760001b6200946a565b6200b0237f45cab69ad4f840bababdba128d4f63075461182eff5102f8263aa61da0d6ae1c60001b6200946a565b600082840290506200b0587f52c348b58a057296c497129588d62064f502229a926e3d9f777c6e19299a497d60001b6200946a565b6200b0867fb095e5fe885899d99f77a57d70692a296ae3ffe7ae3c10292b19031a5312ae2a60001b6200946a565b6200b0ab60008514806200b0a35750838583816200b0a057fe5b04145b600362005b30565b6200b0d97fa27c0f3d745cfd72daab317c10fb6f90b4e3239f60d65da2359a120c0840904460001b6200946a565b6200b1077f7b3ed36c13b40c8b52d3edf9a7e4fa9113cc88f18b5eba84fda1716d2c8f5eec60001b6200946a565b8091505092915050565b60006200b1417f076c732c2f1eda98894f613fd10f682bdc8e068bcf3b2f48f7c8167b0b0b606260001b6200946a565b6200b16f7fb6c32c9a49d25416885d16929db85d1cf74eb1a3b112515a238c04c95689955960001b6200946a565b6200b19d7f4d56b22f880357877429838ec70b7deeff30a2b8d688ce52791af9e06afa2c5a60001b6200946a565b6200b1ae6000831415600462005b30565b6200b1dc7f63e4c3f0bb34e74d194bb0f9574176dbde0e4aa394857f5d6cb6a5843ed7b22760001b6200946a565b6200b20a7fe608d21afd9a338fdae4d19312051b4c461f88cc2666362df73c65122fc92f6860001b6200946a565b60008314156200b2a8576200b2427fd85d64cd3a471737b81f667473d406153692320e4cd8b650bda662ad54a1995460001b6200946a565b6200b2707f10d7fdc1aca673c59e29a60f16eedb92062c190e054b4d7f2c9a39e6794bd47560001b6200946a565b6200b29e7fb21a42b5f35e6fbd0da8c8a8f2d4191258104470944ffa31fef6da01eb22115660001b6200946a565b600090506200b346565b6200b2d67f5d69f547a910d75a19f4cf840a90f6035bf85b5941d283637fe2373b27865e8c60001b6200946a565b6200b3047f8a80c9e10f686134576e1bb9da8e1542dd95fcac9b1692ec0d347c60a518ee0860001b6200946a565b6200b3327f360983f0e904f85b49211d9b225373f212327acab997a7d89b518d2a753e9e5b60001b6200946a565b8160018403816200b33f57fe5b0460010190505b92915050565b50565b600060606200b3817f92e5ffa16d27643a063068478a2949d43279830a5ef99f43522596bd25307c2260001b62001923565b6200b3af7f697803faa3526979f332bc098d0bf6669d0932c9f08ccb870ea070115f4b026160001b62001923565b6200b3dd7f28617f9da7a0b3cf6d5a56763aae3628b96b5a12407bdd906ff3c9fca6c07ff960001b62001923565b60006200b3ea846200b8b9565b90506200b41a7faafe7b02896c20566668deb78ccf05c9990b600bc065cd3d0510a155d1ea9ce260001b62001923565b6200b4487f807284a562097c33a6f5857714df02700d8df179b27536030192314798f4dca060001b62001923565b600160028111156200b45657fe5b8160028111156200b46357fe5b14156200b50b576200b4987f7c25eea34e0057fd04aa8a44f7e5dfcb9de4e9c9f387acfac789afdceda04fe160001b62001923565b6200b4c67fcce42d1ddb924a033fdaed712014f27585092a90a1c5db2da72e78cd08a2b74960001b62001923565b6200b4f47f9c944603dec991e1454f987156eb7b637108f94c9153e91f6804d1846e17f37060001b62001923565b6200b50085856200d2e8565b92509250506200b6c2565b6200b5397f79ca21544a47cffe88af3cb4e7ba71b973eb5b3753e8b0affbe47a27fedc529660001b62001923565b6200b5677ff98390af694d499b9d385446416076d55a6a02690c30f4e73a4e71719ac2a5a760001b62001923565b6002808111156200b57457fe5b8160028111156200b58157fe5b14156200b629576200b5b67f4d846469ac3f7d9d24c5449d2e898e4a32a25c1ad2a775d7cf35edb78617e13f60001b62001923565b6200b5e47fd1c0098a4b33133d643c8372adbfc99fa2189dcf6cea2448c0a486eb27826b8760001b62001923565b6200b6127f22084d8deca1cf9ad3ff896240dcfb8c2b42b782a2e191b9be324f14ea24859660001b62001923565b6200b61e85856200d5de565b92509250506200b6c2565b6200b6577f4ae93692902a84dab47e3e9a0c0f1838de3c6d2b9a8ce5e94f22610aee2d651e60001b62001923565b6200b6857f7f7e81c27a7f38cbe0dc3cd353509ef0f750533a2f5d465e244a1646d6b3ddf160001b62001923565b6200b6b37fdec5f5cde87ac665911f60b18f3840f46dc2aea8f08dc564385d97d8e9aed7e060001b62001923565b6200b6c061013662009ee7565b505b9250929050565b60006200b6f97f8e97e969295fef16b65b5cc62ae0d06ba57cf74ef7759111680360c26e9022b060001b62001923565b6200b7277f2c4be7ba589cf8b3f5b406cbe0797ab68fa78b6e58233d739322bba8c5de69fa60001b62001923565b6200b7557fa5a4c20ad7e7fe7eca727b536e0527a2a255baf62d555fd46e45b139b10a922760001b62001923565b60005b6200b76262003f95565b8110156200b828576200b7987fcc2e7d5a16006984d5bb0006d2ca4e4224f44e093c2f916f82dfb51e47e6470f60001b62001923565b6200b7c67f2578f4213b25fa5578d7480188239a7b6db755353ad64cd32bba49e580e4c64760001b62001923565b6200b8038382815181106200b7d757fe5b60200260200101518583815181106200b7ec57fe5b60200260200101516200ae3290919063ffffffff16565b8482815181106200b81057fe5b6020026020010181815250508060010190506200b758565b506200b8577f3b646f9b74a64e476d32f2fe208de78835bd403ee8d672fd222a37317692120660001b62001923565b6200b8857f6ad13b026251f0d15d28c8d3d910418ec43206aefabdc2c316eaa4294cd326d960001b62001923565b6200b8b17f00000000000000000000000000000000000000000000000000000000000000008462006e86565b905092915050565b60006200b8e97f67ebbcd76153948494cd0f5979f1cc99b81ff17104a38a673cb7045d23fc61ab60001b6200d8ae565b6200b9177f9e7961670d53a3bc6e57a6647eacfe2839f8f846925a41c9790d75fe2d52670360001b6200d8ae565b6200b9457f66fbd18e14987e40905d24259a070e912d5cd81ce3a7eb4ee22ec814d50e6a0c60001b6200d8ae565b818060200190518101906200b95b919062011786565b9050919050565b60606200b9927f09ec4dd8c06444066836d9964f4cb5ba6289386eb0a6e4037bed9ddc0692131660001b6200d8ae565b6200b9c07fd08641de85d83954bd6d4b287afecd0bd9d4c1032d832e0a81d5f99474a99beb60001b6200d8ae565b6200b9ee7f54900c8255f3d8c59dfe12e3081898aea425dd714678397f205e3b673fc65fee60001b6200d8ae565b818060200190518101906200ba049190620117b2565b905080915050919050565b60006200ba3f7fa0850d43e0baae261ed78f74c5bd0f87e9a7886b6a247e17a7144f0fb713ab8e60001b6200151a565b6200ba6d7f8176a751b880e5ac34f58d86bd4b32dd547b1524d213e07d35693e18d63a6a2060001b6200151a565b6200ba9b7f9700b490e24df5837538bfedb1e71d52556589b7f38f88510b86af2a0c41309160001b6200151a565b60006200baa9878762006e86565b90506200bad97f62c918681453cc65d7049392cf01e8908e3b1791feff02aacf694c17a86bc32e60001b6200151a565b6200bb077f710bda8b9ce7fab58046e98687f796916614154cd6bb968ece0e193bdd7eb60b60001b6200151a565b6200bb30838786815181106200bb1957fe5b60200260200101516200a65390919063ffffffff16565b8685815181106200bb3d57fe5b6020026020010181815250506200bb777f42cbb82b913b6ac392dc4892468a08ccfeda744447d3f87097f4b183176b86fb60001b6200151a565b6200bba57f39841ca864ee6dbfd1fcc9141dc453436f95c33225b0c4cf7f29f519ac1025af60001b6200151a565b60006200bbb5888884896200d8b1565b90506200bbe57f8577af1be0b00697539f1bb246ca5b97b93c7c728f59b76a7734419b983934e960001b6200151a565b6200bc137f4eed332ad07419970291f5133ccf61c74d97eae7677adfb5a5742175762d2a4a60001b6200151a565b6200bc3c848887815181106200bc2557fe5b60200260200101516200ae3290919063ffffffff16565b8786815181106200bc4957fe5b6020026020010181815250506200bc837fadb9dd718c1699db559ef0279640ad91033d52536b328011136870e06be57f3360001b6200151a565b6200bcb17ffae1362d607ce9a37acb3c86bd92f0e1fcb2b237b3437af00837ff9fee50bd6c60001b6200151a565b6200bcef60016200bce08989815181106200bcc857fe5b6020026020010151846200a65390919063ffffffff16565b6200ae3290919063ffffffff16565b9250505095945050505050565b60006200bd2c7f094a9d23f7d8cd7e1416152f4f9ab5639b7253358bede5a7c2bfa398f9e6cf7c60001b6200b34c565b6200bd5a7f53bd07368499383bd7016e1180aecfc75dba7953a1c6ca4d15fb935506f497e860001b6200b34c565b6200bd887f7e4ed03da9a10291c37c924ec962ffcba2777b2536f9cfe394e0320cf20486b360001b6200b34c565b670de0b6b3a764000082106200bda05760006200bdac565b81670de0b6b3a7640000035b9050919050565b60006200bde37f0b82bd6e55031056eb502479287614825386e546f233b0c840d3add6e328c33360001b6200b34c565b6200be117fc29f725438dde8a8e35a83c255914da88eb1af6a0b0254a2ee71a12cee7a182060001b6200b34c565b6200be3f7f867b25ee062e1c15d81f5eb600408b615a5c4755d21132cbdec196c0e0f6bfcd60001b6200b34c565b6200be506000831415600462005b30565b6200be7e7f505ea7ae5aedc93e2b84b1d7f3ea169b72041ba472727f5062597f0faa7a511760001b6200b34c565b6200beac7f25c8d3148f938498be8d6158605bacdced13ec3c2c723c563728402175f155e160001b6200b34c565b60008314156200bf4a576200bee47f6a9f973848d0e1bf3ca33878057df62131a9343ce33b83d2d55b5cc74756b08d60001b6200b34c565b6200bf127ff4c0037cff5823363d8dd200bb93676448d4def45fea7d550abab49926b7d3e360001b6200b34c565b6200bf407f891ef57f2cf1ca4bc1e2deadd5fdb7d9886e992eab3e894651a0c6327ddac8cd60001b6200b34c565b600090506200c0d1565b6200bf787f067b1c6f891f851b3004c206fe7ed1f1ea776fa53af3a2f30bbaf811de2c57a960001b6200b34c565b6200bfa67f39332f0aeb86b539dc005963041118b0404b93ee8fa3f8cc0ae706d72b9019f660001b6200b34c565b6200bfd47f0cd05effb3643090820c5853634e935de87e3f1a53038fd2130ebd813ad9f47760001b6200b34c565b6000670de0b6b3a7640000840290506200c0117f0d8a293203cc6c75a3dc156d90cd71301c5afa4b710cd938ef7c286d2e887e3860001b6200b34c565b6200c03f7f0c5ce5144a4bb8fcb212fcced6a383ac3e93a9d9c8baf587edc678bd970ce69760001b6200b34c565b6200c060670de0b6b3a76400008583816200c05657fe5b0414600562005b30565b6200c08e7f6adce84f1f10ed0715f5b03d1f2970c52b81756593de1c708e3f01ceafc7eb8f60001b6200b34c565b6200c0bc7fd5bd32250369fb1bbf7ee21675e04e16fe702a3597d374429af1a9b966baf53260001b6200b34c565b60018360018303816200c0cb57fe5b04019150505b92915050565b60006200c1077f0e379b560dd176564a5881533a4c5cc19aa1cc7aa8faf76190b57cc828976c9b60001b6200b34c565b6200c1357f49d3279522a2d539b8f6450b55bfcf22258bd9c72b153ac7bfc97b8154263c9d60001b6200b34c565b6200c1637fd5842d537ca76be62dab0981f1adf06ef8b0c1d3d07c5c5fccc5f64e322b6a0f60001b6200b34c565b600082840290506200c1987f700f29679531b8a645e8ab26d0250167049ab4bb7c67fccfcf4189def020930760001b6200b34c565b6200c1c67f85ee3aa337267c4ef6af3c1740f5103ae02d953ce58bd465e6f4f46762c273f060001b6200b34c565b6200c1eb60008514806200c1e35750838583816200c1e057fe5b04145b600362005b30565b6200c2197f5c252fff100b72de4ae3a3189d6e38224dea20d11b533167dfd1daf017c5df5f60001b6200b34c565b6200c2477f7a3609fb2bb484a1f0db93870f5b059b577a0a4fcaede309b231adb45a70056260001b6200b34c565b60008114156200c2e6576200c27f7fabfd1788429d8fd6729b4327e1f4244c545ab508b775a5d75e4ea123a58ac5d860001b6200b34c565b6200c2ad7ffcaa1bbaa38aa4160df1140967b159d44023995232ff45e635b0b13920d04d6b60001b6200b34c565b6200c2db7fdb7b1211aa3c4c707d8158063fcc1a98008bcd7125192b75674190966ccffc4160001b6200b34c565b60009150506200c38d565b6200c3147fe5b1e0552e71aff9f91da98dca666a710532a0d6c20e09343da7975a6b13bf7160001b6200b34c565b6200c3427f3964c1cbaac90899caf28429727671ca1384f81cd7e6c5f3984d8c0c0ba0f1ba60001b6200b34c565b6200c3707fe5c9d6cbe924ecab73cee431c799e5360b936d3caa09c48d311f4f973dea101660001b6200b34c565b6001670de0b6b3a764000060018303816200c38757fe5b04019150505b92915050565b60006200c3c37f820b74d698f0fdbbdcab834cf0dc348c77ec007820334facde4f777fb05fe9b960001b6200151a565b6200c3f07e6be3b300065727ed690f6a00bda1c6a22765b84a15c0aa63c23043a742f60d60001b6200151a565b6200c41e7f1b812a9921b9a2d09c01912c50d40f0a3ec51567974d79df1192a5eece2c73cf60001b6200151a565b60006200c42c878762006e86565b90506200c45c7f3907591516c2eb7d4b9bdb59a600fa6c6f805bb4d0aff1c2ed8a0b61a129a23860001b6200151a565b6200c48a7fe04a01b80ab1ba2942abd33ff26e8d557f634a5c0349910591c39172e42f6f1460001b6200151a565b6200c4b3838787815181106200c49c57fe5b60200260200101516200ae3290919063ffffffff16565b8686815181106200c4c057fe5b6020026020010181815250506200c4fa7f108aa255cb12100e4a2914b7eefae22187ec47337edefaaf1c6ce58e3b0782e660001b6200151a565b6200c5287f668b4a755f8cb521fd829c1f00b5bf3b8193e8b6ada0416f4d9040274347da8860001b6200151a565b60006200c538888884886200d8b1565b90506200c5687f26c720704ec6882d3415d2c8a53e9be15b3fcff0a0d9c91df8a50bcccfe9352e60001b6200151a565b6200c5967f77956ce6dd7ed2df03ffab9366ca6fb0ca006a152a6eb97f1205914b6566786d60001b6200151a565b6200c5bf848888815181106200c5a857fe5b60200260200101516200a65390919063ffffffff16565b8787815181106200c5cc57fe5b6020026020010181815250506200c6067f57e3f1e0a6d4be70bb50d29d20f1135900eaa3402b44b995b4c5966966d0fb2060001b6200151a565b6200c6347f70ae1cf953699a0c3f4a70f50cc780b833ce6ac18ecdd32b85a95a353deedeb860001b6200151a565b6200c67260016200c663838a89815181106200c64c57fe5b60200260200101516200a65390919063ffffffff16565b6200a65390919063ffffffff16565b9250505095945050505050565b60006200c6af7f417fc229dda14975d4570a69b822de945d3308d731c6409cce8004cc417264b660001b6200188c565b6200c6dd7fce762d2f8f3df80b9ad5d50b5b242f057acb4fbe85a36c8ef4ea48eaad41abb960001b6200188c565b6200c70b7f3f021282b28cf8cfaece8adefbcee511d20a51781a376db7b7bf98f11695d93760001b6200188c565b6200c71d6338e9922e60e01b620026a1565b82149050919050565b60006200c7567ff4650b12efb7632718ae7c2762bef715ab8b3ad09b02f5ba98a8c407c1b95e2f60001b6200151a565b6200c7847f841095d02db55faa32391bb46239328b523f5640a0309701cbeb483bcf41ff2a60001b6200151a565b6200c7b27fc1cc7ef973f0f7c25cf5b31fdb8a66ffdb4055e388ee82dc6e755ef8faaccb9360001b6200151a565b60006200c7c2878787876200d8b1565b90506200c7f27f37a4f3a4b8908edaf17fb61b143fc64eb05ff2886f5c5350da753ba484073ee660001b6200151a565b6200c8207f0f4763316a67d76ce32c9e36649129e6011339b27564e9c7071c8da8e97151eb60001b6200151a565b6000818786815181106200c83057fe5b6020026020010151116200c8465760006200c870565b6200c86f828887815181106200c85857fe5b60200260200101516200a65390919063ffffffff16565b5b90506200c8a07ff3a1024f4e00072dd0fac3f355870ce01c36e0f392d5791a8a86039f75713d3f60001b6200151a565b6200c8ce7fad457d9d095535e2e2e244b92882b44e03e77f6cda7cf9273a387b372ecc392e60001b6200151a565b6200c8ff670de0b6b3a76400006200c8f086846200e3cf90919063ffffffff16565b6200794790919063ffffffff16565b9250505095945050505050565b60006200c93c7f2349bbfc862eb7d7842b128ef65f8544d69044aa7efd35db9bb061e45f53f8bd60001b6200d8ae565b6200c96a7f3ea9e1ec92192f5d5206da2b66689edf7ea18455e69182bc0bb6566dde7f353c60001b6200d8ae565b6200c9987f617077b7033222e1c196458d6c0109b4d80bf00301d56753596d25f765217b7c60001b6200d8ae565b818060200190518101906200c9ae919062011654565b9050919050565b600060606200c9e77f55b2c706edc1fac40420f6b6ee2c7fb303ddd3f3b2e904e75d52c6bfd88e56fa60001b62000d16565b6200ca157fc498ca4ed44b1ebcfc965c587448a4caa7674ba28574ad44c701d0b18d270cc260001b62000d16565b6200ca437fc0eb990e8883f9af90f456b244df4424ef0fdb6588346633543bc7fad5d1535e60001b62000d16565b6200ca4d620060a0565b6200ca7b7f44575eacace6313d4ce3cb25629c3a9f23ce0f7905ebb1784022d4cd23e99a9260001b62000d16565b6200caa97f8c08dcd5dd3a2dc003770989599a75ca8d6ec3d86c9fbd3de5fd3c01f88fe01c60001b62001923565b6200cad77f7dc881a48c5b7cc2d14b03e051b845b7ffa6547d2fabed40de48a6849cec553160001b62001923565b6200cb057fc0ebaa41eb159410ebafcf2c3d32fee5dabf0862282caea088e17ca574e3b8ee60001b62001923565b60006200cb1162003f95565b90506200cb417f74f96888441f8010ad125241caa7d02c54506b91ede280f39ed174d8e107495b60001b62001923565b6200cb6f7fc4be269de8a074638c46c7e8e1430870633c4928fdeb561248cb2986ff2e30db60001b62001923565b6000806200cb7d866200e55b565b915091506200cbaf7f6865f0c4a7c595c9bb2c2c0c3d87e5df91beac8e3f7752ea67664a801f31de2660001b62001923565b6200cbdd7f60d90b0c58df6e035456116664b912f9dce63badb271e33da08f588ba5ef86ff60001b62001923565b6200cbec838210606462005b30565b6200cc1a7f0749aac4211b017bd5cc23d9c09d5d6837555b8de07846f6ee45c87bd0c5f3ae60001b62001923565b6200cc487fe6e3b709fccb6528b6c95ac65815787a79efe694b267725556bf454c666680e460001b62001923565b60608367ffffffffffffffff811180156200cc6257600080fd5b506040519080825280602002602001820160405280156200cc925781602001602082028036833780820191505090505b5090506200ccc37f14d50ba4494ef7cddbf0f749c1017bb3c26b6430689ddc38351e60691d9fffe160001b62001923565b6200ccf17fbf1ab980394a38d3e5b10b3beeb832f0b19587046fdcbc13dbd335e67dd3d5ab60001b62001923565b6200cd2c7f00000000000000000000000000000000000000000000000000000000000000008984866200cd2362000e73565b6007546200e60e565b8183815181106200cd3957fe5b6020026020010181815250506200cd737f8be9339298a633184921730a22f072ddf00b4c19730177d4c3f08573ab413a2d60001b62001923565b6200cda17fded0423c1e3860dc3614dffbbeac259c382686577ef7a29885e8de002007be0960001b62001923565b828195509550505050509250929050565b600060606200cde47ff5055153de0db40359a7f0587786de8247f462333a1c3f602150a9c67153fb7160001b62001923565b6200ce127f2400a9a072e32136f96289d6f1794e3dcd5cf4fba8c7734ff995bd5cefaeea9560001b62001923565b6200ce407f1ccfe4fd438bcd4b1307e121a908a50404bd84f31b5ec62784aa0764906fcfad60001b62001923565b60006200ce4d846200eb93565b90506200ce7d7f8bea7cf4b61b1839a4849b37008eced7cb2109ed8e596594f390441a61bd96d360001b62001923565b6200ceab7f2bd7eee3b8ca1779d9327e99b095e7bc52f8dd73baa4052ffffa810440fe086b60001b62001923565b60606200cec386836200cebd62000e73565b6200ec40565b90506200cef37ff4a581325cb2696c9038205a8a196be31ee67c4b52d34104585f4cf8ce37412660001b62001923565b6200cf217fcd653098b786475b542baf8266cb43fcf6271e516640ca92b31f3252d2edfc4760001b62001923565b81819350935050509250929050565b600060606200cf627f55b2c706edc1fac40420f6b6ee2c7fb303ddd3f3b2e904e75d52c6bfd88e56fa60001b62000d16565b6200cf907fc498ca4ed44b1ebcfc965c587448a4caa7674ba28574ad44c701d0b18d270cc260001b62000d16565b6200cfbe7fc0eb990e8883f9af90f456b244df4424ef0fdb6588346633543bc7fad5d1535e60001b62000d16565b6200cfc8620060a0565b6200cff67f44575eacace6313d4ce3cb25629c3a9f23ce0f7905ebb1784022d4cd23e99a9260001b62000d16565b6200d0247ffb423ee74b593d7d017a5c71be2fb6bf25a5e8d00d39c33dbee9cef2a9bc31aa60001b62001923565b6200d0527f10ffd773d052a750649ffc3301eea9fe99bd86940303207bcd277c92fd8d17bb60001b62001923565b6200d0807ff1f443d5db5b75c12a6fdb922c1e3e2fb38550ecbbd80f18cc6260e008fb653a60001b62001923565b606060006200d08f856200ef0d565b915091506200d0c17f2a140a8f69b531d2377970fe411504a082fb48fb845ccde7fbd0058a42ff27b260001b62001923565b6200d0ef7fc9b6fe209a8643f36205d933a2d44ac0568baa29b4ac94fa13fde52af2650a2160001b62001923565b6200d10582516200d0ff62003f95565b62006351565b6200d1337f6f2922d45b8dbf7bd95a4fdd16d144e4fdf03a1d1019019aa0887e83b07a256d60001b62001923565b6200d1617fb2d4bded6a86f4dd4ad94026b77065f7b709931338356217851bfa6ad28a762f60001b62001923565b6200d176826200d170620040f1565b62007c65565b6200d1a47fac7832e3a61472b5930251ace7b4ef41df2e67dc4fd7daa12b3d99073cc8cec160001b62001923565b6200d1d27f380ac9e684292c1fd2b79f762a7dcc2137846353bc9b873b22c1039c26bf7b0860001b62001923565b60006200d20e7f000000000000000000000000000000000000000000000000000000000000000088856200d20562000e73565b6007546200efc1565b90506200d23e7fb5e2f0633ef7ac704e0971fe276250f6ea672dca532883cbef69ece2bf808b8b60001b62001923565b6200d26c7feb4df2f84ba39d69ff42f93ab73f00780db5fe7f03ea2c2f8a5f4ec8929ff90c60001b62001923565b6200d27c8282111560cf62005b30565b6200d2aa7fa036a5d6ada0620af2718ad63adb6a89b5a96e593652ebee0149253be492627b60001b62001923565b6200d2d87f807947c0a27b5ca2bc3534f84d733bd5042cbb5d39908dfabd38e8a6d75e32a860001b62001923565b8083945094505050509250929050565b600060606200d31a7f29b450b66169edd371c1d494797e2021545f8ed11200b9e9d75bb66f1cc4d11d60001b62001923565b6200d3487f4ac91323cffa1a6985d5c094a711db05708c5c4cf27e42b4231220db8893a96f60001b62001923565b6200d3767f13d43419f375a09e7e13094181574d4453b8ec06a370421914cd359b216f1a5860001b62001923565b606060006200d385856200fb60565b915091506200d3b77fe56052934d32eaf8663a3d1a6d09dbbfc0131533af4834e283b31b8d52d5079960001b62001923565b6200d3e57f816aa906a440c245f5b5d490a258de20798b9a91ae00181d73eec448dce46d9560001b62001923565b6200d3fb6200d3f362003f95565b835162006351565b6200d4297f333014879fdf983afab69d961bb6ff0d80d87f6852d17d5a5d4b227db98c094960001b62001923565b6200d4577f8b203855c29d6f3add7f971028fee920a814b6d9c16f31d0d90fc4909840873560001b62001923565b6200d46c826200d466620040f1565b62007c65565b6200d49a7f343d0e7fde4ac800a2042ddde5f74a6d98c535024ed40784f637091adfd057f660001b62001923565b6200d4c87f92c0a41040cf1e54c1babd478bd5eb2ea107284d57d0f84c8d3749650b03874960001b62001923565b60006200d5047f000000000000000000000000000000000000000000000000000000000000000088856200d4fb62000e73565b6007546200fc14565b90506200d5347f9517a8d7a2a6c7ac6a060190fc0d3d233823366b02a8b30b1df2d589cbb5755f60001b62001923565b6200d5627fd982a76d86dee13aa745387dabb516a48b740e9d25fb035abd7163603f7c0bef60001b62001923565b6200d5728282101560d062005b30565b6200d5a07ffea5bebe11a26d97f003beed8d6348ddda57be02ab4d1e6fc5bb28f56eb759b760001b62001923565b6200d5ce7fb7bc68bc893a81ead3519cfee610fbf48b39d835557f15481724c1a63e8202b360001b62001923565b8083945094505050509250929050565b600060606200d6107f6a3f86e398d4022efdaad5cf2fe34866e705d2dc37be4578437fc7249b23e3ac60001b62001923565b6200d63e7f42fa65bf00da3cb0f13ae5a09b90bb3c7c721a39c6882b4f1d79a976c25e40db60001b62001923565b6200d66c7f0dcd2e617b3aa4730184eb6407e2192121c68d3980b1ea7c9ec189f7c9ee7f6260001b62001923565b6000806200d67a85620107d9565b915091506200d6ac7f730485f8cbc89398d0422b16cce36cd8c76293a70fdb44c910995170899e5a6860001b62001923565b6200d6da7f4c309999709095d051920fe1b688cdc35c6ca4b69ef90930940d4a8633488f6f60001b62001923565b60006200d7177f00000000000000000000000000000000000000000000000000000000000000008884866200d70e62000e73565b6007546201088c565b90506200d7477ffece415bb91c11d91d2966a48d3763dad9dbbc5da3ac9f6800641beb328116a760001b62001923565b6200d7757f6ca4e58954acb16bf66f95e710d6e73670ac55729abd79027347e943d5ad689f60001b62001923565b60606200d78162003f95565b67ffffffffffffffff811180156200d79857600080fd5b506040519080825280602002602001820160405280156200d7c85781602001602082028036833780820191505090505b5090506200d7f97f5d71abb5e671f43e15f27645d286fb11ffc33d9afef1cbf11289cc3e169bb7c060001b62001923565b6200d8277f385cc88ecc19e2ae43b7b57baadf0055a58082199e022698700a021c8a9eceab60001b62001923565b818184815181106200d83557fe5b6020026020010181815250506200d86f7fc8eeefc2eb749b64180ac662668e859929ef822a23f44a3f079482c80827ebe460001b62001923565b6200d89d7f64456ba5503962f606f58fe0c98df10603b2981920c7d77735f0b4eb38bd15bd60001b62001923565b838195509550505050509250929050565b50565b60006200d8e17f942127631c4d3c7c3c6288b29df912c36d56c8a3e908632bba058cd60c8546b460001b6200151a565b6200d90f7fbc3e8af8f86321c2b2ca3edc703d574d54fe83fee525c1518f50cac4757903b860001b6200151a565b6200d93d7f7e458ddbcfa529ad894be78fb022b68976f8f6f9b85baa33d3e430a8528bbbb360001b6200151a565b60006200d94c8686516200af97565b90506200d97c7fd75d4d297cc8a69f5296152dd0ac732a79ee333f90ce4d1b50a6f027a7306e1960001b6200151a565b6200d9aa7fc6801bf3a719ea6e1a48174cd0154b8fde9838f0481eacdce0f064f872eda22360001b6200151a565b6000856000815181106200d9ba57fe5b602002602001015190506200d9f27f049586072336a055edfc29f114c2326f6fd8f1e5ec0f6c3d1daa7c340de5cbcc60001b6200151a565b6200da207f31003fcfbf4e316587fd8bf00c72123857f7dc038dab57f662db69300584a42260001b6200151a565b60006200da448751886000815181106200da3657fe5b60200260200101516200af97565b90506200da747f62bf7677d27752d0ffa2f84cbbf69fddfdeb18c078adf1fda6b8b73c7851b9dd60001b6200151a565b6200daa27f74317cace5dc5db9061d2db271da3fe238fbbccc26231a278acdc80df097bc3960001b6200151a565b6000600190505b87518110156200dbdd576200dae17f25a70a6365bb21ac94fb06df1139a5a4252cb8bfaf522fa32b9e4ba1ad10d1b860001b6200151a565b6200db0f7f9f744aaca9c8f9a1f25798622667a1642ba4b89d12c2c18f15f88b8658ca98b760001b6200151a565b6200db466200db3f6200db37848b85815181106200db2957fe5b60200260200101516200af97565b8a516200af97565b886200ad26565b91506200db767fdcbb4e04a1c9e98aa9155fa746ed1e0e79c1ce89255f19db2d20802d711bf27d60001b6200151a565b6200dba47fe586dbec6485ef29847f635aa2c0c73be51170a4e4bc980004f0068b48667b9360001b6200151a565b6200dbcd8882815181106200dbb557fe5b6020026020010151846200ae3290919063ffffffff16565b925080806001019150506200daa9565b506200dc0c7f148d58c601b0f5ce11bcff860a6c5c7155dfbee87152e5e2a60c8476011c16d360001b6200151a565b6200dc3a7f701ce1f1854c9754b0ab521f115b62e50ae816754d57d9f26967962c37c67fa560001b6200151a565b6200dc638786815181106200dc4b57fe5b6020026020010151836200a65390919063ffffffff16565b91506200dc937f40605678bb5f6c561a806bb464231b4d17d1c9d7835de77afba064b084836e0f60001b6200151a565b6200dcc17fcc88f0892ba5523759ff4ea28a2876a3b07cc83531980a0a7d5bb3820e29abaf60001b6200151a565b60006200dcda6200dcd388896200af97565b856200b111565b90506200dd0a7f16c279b113254eded646da2bf2f958a0ffa4d047bdb7eb579f9873fffbc2f00a60001b6200151a565b6200dd387fe028453f1da7469db5334f949d03aa6b19464a0c127e333d887c9850eca066fe60001b6200151a565b6200dd75826200dd668a89815181106200dd4e57fe5b6020026020010151846200c0d790919063ffffffff16565b6200bdb390919063ffffffff16565b90506200dda57ff2d57c03c9d227f7dd17883a867db6aa3d6de9083617c6e994457a22bacfc99360001b6200151a565b6200ddd37f16e102a6abfbb28999f92c3c29dd5461e09c96792114ee429f61ef1e2918628c60001b6200151a565b60006200ddfe6200ddee868a6200794790919063ffffffff16565b856200ae3290919063ffffffff16565b90506200de2e7f199dfb35cba90f1c776c5ec9d85f5a1d5610a7ff58c3bec88883376fa3cac84860001b6200151a565b6200de5c7f10a3d030efb128ff3bf0a2b58771a0433e6a070cf0b942319da14435a6cf7c3e60001b6200151a565b60006200de8c7fa2854d5de3c882116916e21a44efb0053882c771b73555856421da3ded97dfcb60001b6200151a565b6200deba7fab826938ba7976fbd1f6638ac688463860c801b762ff60806e74c136d9e8959560001b6200151a565b60006200df0d6200ded5848c6200ae3290919063ffffffff16565b6200defe866200deef8e8f6200c0d790919063ffffffff16565b6200ae3290919063ffffffff16565b6200bdb390919063ffffffff16565b90506200df3d7fa44464ab7eebfcab0449b2ab397a4eb95266d2dd81daffa8eeb7210aa365215660001b6200151a565b6200df6b7fa193fbd4b74f94c9b20b36db76298014532605b5dc801fc9210589a554dc221f60001b6200151a565b60005b60ff8110156200e360576200dfa67f12be4d7a57f68283dda1c942c242239efce0c85eed70f6fadfcb7979d234c68160001b6200151a565b6200dfd47febd223f1b55f819e5a1273ae230a380d6898de1539b2de112af73673aba31b6960001b6200151a565b8192506200e0057f3d2965183f8d8884c58afb5c95daaa2468be4636f6a7c1b8f4d72ae6091699f460001b6200151a565b6200e0337fb15619e8680a2f699c5d1cf1685c4beb27591b050bbab2f00d14fdccdc0c6d4960001b6200151a565b6200e0a46200e06c8c6200e05d876200e04e8760026200af97565b6200ae3290919063ffffffff16565b6200a65390919063ffffffff16565b6200e095876200e08686876200c0d790919063ffffffff16565b6200ae3290919063ffffffff16565b6200bdb390919063ffffffff16565b91506200e0d47f4d8e4ca5655b2bf28e9b5416b7ed20a3ebbc8983af339371cfcb14795006488860001b6200151a565b6200e1027fcb40d5cee9527a08337b52a63d3e09c3039af5dff6f27e8bbee4a156cc92cc1f60001b6200151a565b828211156200e248576200e1397f9c8df62b259f361e413108d2180ab061b6cf81a02d41d29df9b5eddb842cdaca60001b6200151a565b6200e1677f5dc13081ab844a9384672f3982e6b9387e1177c37d2127e1624124f6befd414d60001b6200151a565b6200e1957fa060cde02efb0ba8ef968cf076ba814b2740c87fe504679fc856bd2415fe409d60001b6200151a565b60016200e1ac84846200a65390919063ffffffff16565b116200e214576200e1e07f4bb8d16271ab73391cab2e6f0b8875027ae07fb12e3245de4c5e7c6ee8ca955960001b6200151a565b6200e20e7fdb54c3fbaff446dcd2168fc37ea4b0e5da281ea44ed8ecbaf3ca04f5e118875c60001b6200151a565b6200e360565b6200e2427f34382a430ca20a891a500cb5d91fd0fd0334a2953769d0a6e49f67e49b7f970860001b6200151a565b6200e352565b6200e2767fa6a5ea50e783c20ab6c738928b84868f8d2546f42707959d1688467728a85f8f60001b6200151a565b6200e2a47f111fef596b01c907dceb1db660ba8dbad93bcf2d690f4ed06e14158de475b6a160001b6200151a565b60016200e2bb83856200a65390919063ffffffff16565b116200e323576200e2ef7f51a27aeaca7a8dd55411051e073744928ad7e30a991dae5308ba54c6a76f8a3260001b6200151a565b6200e31d7f5d7ed9f4982c17be9ac5485e40e70c988649e74a32b8e3baf4b7850a6bb202d860001b6200151a565b6200e360565b6200e3517f77e20f58b3453437e3ff314bd69049cfeba654aac0abd861294d412ba185f5e160001b6200151a565b5b80806001019150506200df6e565b506200e38f7ff45d24ff61e677d1bb106d06c058dfab89509e9e7091c244f1ddacef3228095760001b6200151a565b6200e3bd7f8f2db52771d4da9db1e5525fd230131490f5881e647ca92fdb7b71aa59733f8660001b6200151a565b80975050505050505050949350505050565b60006200e3ff7f6a56e6b9382441f5a45bc35a43826c64209849d281de5ea652d97114d3fdd00060001b6200b34c565b6200e42d7f832e186a9dec832c15d05f077f0a95bb8c8a30f33174b1b74cad094def38313a60001b6200b34c565b6200e45b7f1d7ac9a6923837cb729d2a9f327d6b28bb868258b6639379ad9b804ddbf149b960001b6200b34c565b600082840290506200e4907f20b7636ac61a045be0786996288e3e2b0851467b3df87ea384032be131612f7460001b6200b34c565b6200e4be7fec8cc3cb5297dbadb0d69bb41ea6b39978fd82ee0c9e2ddcb3663f06f85f6e5a60001b6200b34c565b6200e4e360008514806200e4db5750838583816200e4d857fe5b04145b600362005b30565b6200e5117feef689e5d622a32553062ffc4fe64fcc96483927ecea9c38947b4717464b23ee60001b6200b34c565b6200e53f7ff2d9867efb05a2da69e9efe9a0d629e11b17960b86d7f70af9b6266d6479596060001b6200b34c565b670de0b6b3a764000081816200e55157fe5b0491505092915050565b6000806200e58c7f605da3fb17bb8775866305439956d828760f059efe19f50ba1bac604a2a1171b60001b6200d8ae565b6200e5ba7fe2a8b0beab543e7367b44a98ed61291714cb8675e98ecea1228087fa6db2ef2660001b6200d8ae565b6200e5e87fe842d20a51318998150a201c9af4a9aaf5cb56e55a6c22383fb95136d0eaeec760001b6200d8ae565b828060200190518101906200e5fe919062011730565b9091508092508193505050915091565b60006200e63e7f9c61bd7f26976615fc17a5b8a194f3abc37c635843882984be289aaaeb9f46d260001b6200151a565b6200e66c7f7740ccf8377955f064b39c293ae10f9e3f0b7341f6354d8d19722477ebe8ac3660001b6200151a565b6200e69a7ff9f13994593129495084816d974ce079fffce30611fbfd4f5fea4d0712a7272760001b6200151a565b60006200e6a8888862006e86565b90506200e6d87f55c18e9fb174654275dd0a740f8b1cde72e04e3debaba0311abd726ce42ae9fa60001b6200151a565b6200e7067f747fa083e18eb227d3e22d584a7311fd141f5d7c6fa3fe0145465437308bbffc60001b6200151a565b60006200e745826200e736876200e7278a8a6200a65390919063ffffffff16565b6200bdb390919063ffffffff16565b6200c0d790919063ffffffff16565b90506200e7757f1fcb7654e200b00dc4b4b2236ce2a55815360575de73365fa45360c49523535c60001b6200151a565b6200e7a37f29ee7cc95bf66e392329290e607e2077b8113cd905398cc6a4302d0525dc0df660001b6200151a565b60006200e7d37f0ac0a391282bbfe150518f58472378a3208642c18fe0ff5dc9bdaf67763ff77260001b6200151a565b6200e8017f776cff53656696d5df682c1220cafd5895ce2d59e5fdff975860f8ebe66af68c60001b6200151a565b60005b89518110156200e8a3576200e83c7fdab93c0033f67e6ff447c67d90e8d42e715bc52a00f01d4ca729bf49043d84b560001b6200151a565b6200e86a7f724eff1e31dc6adc0b4cb6ebcedd14df21872f98d2f1b3a70f8d9ce8bd739d3160001b6200151a565b6200e8938a82815181106200e87b57fe5b6020026020010151836200ae3290919063ffffffff16565b915080806001019150506200e804565b506200e8d27f470b9123588c95268e413615da5a3760cfa50008dc155a682e5deea6e1c7cff260001b6200151a565b6200e9007f4af3409bfb44b03d6423b4bd9dd5b33a29cb2b64300ce70c2006e81867b6e48c60001b6200151a565b60006200e9108b8b858c6200d8b1565b90506200e9407f194e92b2e5788b304faf6719142df5e0ca1745c484bf7c3ed891132401618b4660001b6200151a565b6200e96e7f941f7be3addd04affb5350c4a12ef5febd7530a17adeafcbb7591b3711610b0e60001b6200151a565b60006200e999828c8c815181106200e98257fe5b60200260200101516200a65390919063ffffffff16565b90506200e9c97f28f55cfd6b8dd6a7478df13ec4991ca2e13952a5c199526a3a44340939a11f7960001b6200151a565b6200e9f77fb1563c6177e8e78632f22c46e8b76c14fa2612dce398fd51d9e9d400c2cb825a60001b6200151a565b60006200ea22848d8d815181106200ea0b57fe5b60200260200101516200794790919063ffffffff16565b90506200ea527ffe78be6e963db5c5aa5d3db62f3392a66746ee39dd5f7582956da8eaff536b5560001b6200151a565b6200ea807fe59ace3000bffca03f5e4e388ec8466f98c35f434ad5c1a81b1e088287ed443860001b6200151a565b60006200ea8d826200bcfc565b90506200eabd7fc9b08ccc62e0723b27a300d4ee880f93dde3f0262d00f2f1086c0c0512dd882c60001b6200151a565b6200eaeb7f96c7f117d62c41ddecaf78311e4ea214a8737b8935742ea01d47c3bdf92d520b60001b6200151a565b60006200eb02828b6200c0d790919063ffffffff16565b90506200eb327f85f011c20e27de4acddaf5e3b7ab96f7e470bce6fa14b847357c8099ac548ecd60001b6200151a565b6200eb607fa29b58fa53bc9ae1d5d0f0d47083efb2610f45d968bf81772852af021cea3bbc60001b6200151a565b6200eb7f6200eb6f826200bcfc565b856200e3cf90919063ffffffff16565b985050505050505050509695505050505050565b60006200ebc37fd4ba5543663068600250bf15dcc19aa21750a8325c124ba399977daaa3db892760001b6200d8ae565b6200ebf17f0a52dc6c9f03be6355126c7f939ad4dbd34ac47c9aa481b1e1857ce90ea21d7a60001b6200d8ae565b6200ec1f7fca196f8876d366ff8de7265b6edc7736f625af1329502b6ab5d63ea86615e27360001b6200d8ae565b818060200190518101906200ec359190620116ef565b905080915050919050565b60606200ec707f782d2944b47146f0df970087f3889ffcc27089bd6716e58fa9775c0abf195bd860001b6200151a565b6200ec9e7f8b0a2126ce1440a923548c43bad28f522035fe98d008efdd7825287f2d2d45fa60001b6200151a565b6200eccc7f899dbdd6b3ac48717f154c3228080f8f309bcd7be64d9de1fafd7059c1c642e060001b6200151a565b60006200ece383856200794790919063ffffffff16565b90506200ed137fb8a152f7991e247c2cc85b579f1f4382236363e34f738615bc68844ac37cf76b60001b6200151a565b6200ed417f301abedf71dec2914bbc0c916cb4e8411cf50d983ae6206e474a263d2e9417d560001b6200151a565b6060855167ffffffffffffffff811180156200ed5c57600080fd5b506040519080825280602002602001820160405280156200ed8c5781602001602082028036833780820191505090505b5090506200edbd7f7a3a485cf8ff7f0acd43e0545fa00362ca256a7a7c1cc2c7794f0687ae89035a60001b6200151a565b6200edeb7f454aae8dd071212b8359327db02c764f6c976d479a04143cff1a9cfa8960ee1260001b6200151a565b60005b86518110156200eea4576200ee267f54d0d91d32622d56e06d90ff536a0ffce16cfae32ce02fd78fc21644bd42530660001b6200151a565b6200ee547fb2f2ec3609e56a1d27dea3791cfc2c5598570e2a34b925848db443f6a5a3efc560001b6200151a565b6200ee7d838883815181106200ee6657fe5b60200260200101516200e3cf90919063ffffffff16565b8282815181106200ee8a57fe5b60200260200101818152505080806001019150506200edee565b506200eed37f96b857bf5a1dfd26ce913b50298296fbdfd893f45113dfd665bbec4df032283760001b6200151a565b6200ef017f4b282a5c1bd928af13d51fb2d07dca5d73368f53db471e80e8f928043a433cfe60001b6200151a565b80925050509392505050565b606060006200ef3f7f14586dde3686854d74e900130247b2c787a7b6efb6f502d9765c52468bd2a6bd60001b6200d8ae565b6200ef6d7f173269020cfe14c088fd229c98f8a2fc5ee34e139915078c288b1f3c7962932c60001b6200d8ae565b6200ef9b7f386bb772b53c18db2bf353ee37bbe7ee244e2dc1a71bd09528d9bdd87fa17c8260001b6200d8ae565b828060200190518101906200efb1919062011680565b9091508092508193505050915091565b60006200eff17fc29aee41fa0fd51457d9d1482338e91a30af3c4054100ff6963c45490afa06c560001b6200151a565b6200f01f7fa629c4c8fda17baec48f9f22057a8eb84c2b6f54d8bbc166880af7c45af379a960001b6200151a565b6200f04d7f3ce650750e4a1e2a827d0cf42d6c2ed29d92ac860b8b99ecdd98397f7327783e60001b6200151a565b60006200f05b878762006e86565b90506200f08b7fab28990243221b0f3a3b016301d29268bdd7e97b606dda515f0c30bc713e81b260001b6200151a565b6200f0b97fd0da580b5e447f5724fb949150913898ed932e7998c1b2284889cf60a152dbf560001b6200151a565b60006200f0e97f0cac14434b3d16a59097bc6e5782e54da0c8fff5e5a4dc0a417ae3a6dac6bdaa60001b6200151a565b6200f1177f8ab535a7ab55fd5580379f2ff2a07fd56e5eca350ddd6759262d5d7d86dc046660001b6200151a565b60005b87518110156200f1b9576200f1527f42258f786567bb9d43959c9e1dabb88e9b74e4ef980819478aea49a671ff083060001b6200151a565b6200f1807f8f049bf3ed39379bb351fc59d19640f70fd6806d4e2149b687114046f79b7b4260001b6200151a565b6200f1a98882815181106200f19157fe5b6020026020010151836200ae3290919063ffffffff16565b915080806001019150506200f11a565b506200f1e87f8a9ce5b89506b9c97c11fb7ac393d09d85d4f296350bc6fee699bb5e1b5bc95860001b6200151a565b6200f2167f1e02f90e0e81c244a810ec58c85de1e8bfdb6e1ebf7c36fbb0718b194c9f948860001b6200151a565b6060865167ffffffffffffffff811180156200f23157600080fd5b506040519080825280602002602001820160405280156200f2615781602001602082028036833780820191505090505b5090506200f2927f2c1f06e95b57a3ee2f7ba2c8bacacab9a31b3177822e2c4f8f17ce99e14f3e7f60001b6200151a565b6200f2c07fb6d708036efe2e8b8e52fab0f8dc26de9bc1ab1c5a773249d2242ff22cac92bc60001b6200151a565b60006200f2f07f24fa03a25c4c404d5955a7927861c86c80d7b6ee4d60358c2d4c24b7e20ff24860001b6200151a565b6200f31e7fdcca447ca46e7e5bd696e0edc22d13f8572092b0eaeb967e41be7167b7df8cdc60001b6200151a565b60005b89518110156200f538576200f3597f89289bb0c54dde2fe5d1eeacfa35605878fd6d948d2366444a152925fad7a70d60001b6200151a565b6200f3877f1698894db4a430f9781bc843f037ae8e4e41c5c1a6f9827dd28d20525f8d546160001b6200151a565b60006200f3b2858c84815181106200f39b57fe5b60200260200101516200bdb390919063ffffffff16565b90506200f3e27f8a670365135ed3b211acd62e5615bf318b9438879f62fb42874c7f6d3637814360001b6200151a565b6200f4107feba6cb9755424bf38f3a7ba1b6ac2ad386e122ffee93b172f9d976f98bf7740b60001b6200151a565b6200f4758b83815181106200f42157fe5b60200260200101516200f4668c85815181106200f43a57fe5b60200260200101518e86815181106200f44f57fe5b60200260200101516200a65390919063ffffffff16565b6200bdb390919063ffffffff16565b8483815181106200f48257fe5b6020026020010181815250506200f4bc7f3c58c2b3e5f7320305ff47d22ba046d9b70a783636c2614d0193370e65d8ef7960001b6200151a565b6200f4ea7f3f90da0968c74bd667dfdb212a0395899c20febe16eb6fddfbfbe250ca8ad52a60001b6200151a565b6200f5276200f517828685815181106200f50057fe5b60200260200101516200c0d790919063ffffffff16565b846200ae3290919063ffffffff16565b92505080806001019150506200f321565b506200f5677ffb6fd85008f4bea6dc929496eff930eeaaf6c8b39ceeb4b5d6325efeb1e4025960001b6200151a565b6200f5957f24fb83682bf3e92c18d77664744a41a4068a64a028ab7c95b4708c634ba5915060001b6200151a565b6060895167ffffffffffffffff811180156200f5b057600080fd5b506040519080825280602002602001820160405280156200f5e05781602001602082028036833780820191505090505b5090506200f6117f2bc81d5b617bcef7186d3aec848e37951797c04bbc76924a8999be1f39295d2d60001b6200151a565b6200f63f7fa5195b399267286f0363b92170dbb20ed67c0ee72721d06db3615ed5d4a5457360001b6200151a565b60005b8a518110156200fa53576200f67a7fef381ce63de34b5a7fb4f5937c597692e2a8ad407ff8ffea4f5d16837eda542460001b6200151a565b6200f6a87ff4cbe8785bf0f9644e19b6debea101c0b507c76acb47986ce979fc4388e9bba860001b6200151a565b60006200f6d87f031f4ba68b3d4f7c52193370e16d9c126db2a5dee1a7cf691cb983387eb8ead160001b6200151a565b6200f7067faedec1f18ec102b1fa750ec4b2194ac7e8dade2a7ba555e4a0cf1acea17fabdf60001b6200151a565b8482815181106200f71357fe5b602002602001015184116200f7b6576200f7507f5685745f801d5646bfd5f1632a0ae633f2ebd3c596b49489992b97c5c44f713e60001b6200151a565b6200f77e7fb9228c7b5db4a3ce52cad067c46a39ca19bdbe3d03e43d79c3f853919232a83060001b6200151a565b6200f7ac7fcb791d109e158554fb1e63e1eb1d2f27c835b0c1a59188f6c2281dbffe85a6ab60001b6200151a565b600090506200f89e565b6200f7e47f2fb4014308ab504cc4e9294e2ab643d207e62200ea9d95bf3fbdbd0f424b7dfc60001b6200151a565b6200f8127f20142a16dc140d5fdfa33f2d16ce2e5d21cc2b74bab2a69804a3df9163d1ab0560001b6200151a565b6200f8407f059e085dd569fb5d4d5fd2fbb5f0099093879fa1e5753dfed6252565268664a560001b6200151a565b6200f89b6200f8638684815181106200f85557fe5b60200260200101516200bcfc565b6200f88c8785815181106200f87457fe5b6020026020010151876200a65390919063ffffffff16565b6200bdb390919063ffffffff16565b90505b6200f8ca7dc53a8edc4c64e48960a4046891402ee7956378a2a30019d0d4f8e15368ea60001b6200151a565b6200f8f87fdef50f20e3e317bc6e3803e5f6d7cf9528d3b539385fa28580e09263574fb05b60001b6200151a565b60006200f90f828b6200c0d790919063ffffffff16565b90506200f93f7ff11a35b5cd884c103c8df102cb2280ebb9ccd8b85befcb99c716377eae65fa0b60001b6200151a565b6200f96d7fa7c8b2ba8ec1113e8aa7dffb0f7c10ad078b04257f76e482487f3445bbceddbf60001b6200151a565b60006200f9a26200f97e836200bcfc565b8e86815181106200f98b57fe5b60200260200101516200bdb390919063ffffffff16565b90506200f9d27fe3469915770b189fa6a5aa0fd0843941b4c9e321a2254965235db7764536a7e460001b6200151a565b6200fa007fc3a317855437cd20eb4b2708b999f40d581b098c672317eb32004239d15dd85460001b6200151a565b6200fa29818f86815181106200fa1257fe5b60200260200101516200a65390919063ffffffff16565b8585815181106200fa3657fe5b60200260200101818152505050505080806001019150506200f642565b506200fa827f3b48c5e42e38bcc5504e7493bf4166a9c662bde35a93a4ec4f5866f40bdd6f8160001b6200151a565b6200fab07fe49451f2332c2cb4dd11805d3f9a1c3c703a543791e5e0e824490d5122142f7f60001b6200151a565b60006200fabe8c8362006e86565b90506200faee7f0651a49e14882be4cea79d86f88000b24a6102ac9023d739de2dce096cf1ba5760001b6200151a565b6200fb1c7f54d17c5f49240885b5153313713fcd025d37ad1955b437f26364d939ba54299e60001b6200151a565b6200fb4f6200fb3f6200fb3988846200bdb390919063ffffffff16565b6200bcfc565b8a6200c0d790919063ffffffff16565b965050505050505095945050505050565b606060006200fb927fc7b43e7632a060af93a687a1f1fe127c061cea0c5033ed5fec097631051b8cd460001b6200d8ae565b6200fbc07f8f7cd5dfff2881f827da3a00ce6eec56e41cdfa085cbf9ddd8867f1ab6ea626060001b6200d8ae565b6200fbee7fa2dcbe4cb1815af0016eac9293a3241922d52c5f3d30931ca389940972b65fc360001b6200d8ae565b828060200190518101906200fc0491906201180c565b9091508092508193505050915091565b60006200fc447ffc860c609f7734138a1cec8b344821b6e9473c600124a42679fdf8f26db9ebe760001b6200151a565b6200fc727fe9f38680e72dbb5e329f30044f4db8e7b21c0f4117f3ec356849dfcc37e0927460001b6200151a565b6200fca07fca9809890498ea6ab8e12845aa64800d755784258ac7a8c5fdac831a0a9eeb3360001b6200151a565b60006200fcae878762006e86565b90506200fcde7ff1fc5728502f786f45b269524183ba089c64c39abedcad4cb5896d4f6a5384b660001b6200151a565b6200fd0c7f1cbca433f01cf01d2f28e0cb2fa17657205a31f7535e8f09aa36e6878272a36b60001b6200151a565b60006200fd3c7fa4132a76af4dcf4464b8adf09294cb2d106608536c7529a354f037b4db2ae4e960001b6200151a565b6200fd6a7f37254189f0d22e40cb0c5ee73230090b1423faf112b1c5da922a6ed7fe5bbeaa60001b6200151a565b60005b87518110156200fe0c576200fda57fd0773b004c027c58008d00097f5790e108748f92b48cc5419a2858a17dc1721360001b6200151a565b6200fdd37f777277cbdc2a2fa8b9005a2b8266ac7bd661806ca6655c62d1773935685bd4bc60001b6200151a565b6200fdfc8882815181106200fde457fe5b6020026020010151836200ae3290919063ffffffff16565b915080806001019150506200fd6d565b506200fe3b7fca58ce367e2b3cb7e51e0db561ebcc279a51d728bf4a18228e333346b6dfe49460001b6200151a565b6200fe697f2781120064d8239aa789591ac9dc9b41ffc9afb016636a29d607078cc948e98960001b6200151a565b6060865167ffffffffffffffff811180156200fe8457600080fd5b506040519080825280602002602001820160405280156200feb45781602001602082028036833780820191505090505b5090506200fee57f3e57d15e561634d36c365be821c25eae4dd38690451e6e0b80b2dbd300183f3660001b6200151a565b6200ff137f5d56c62270cf5676b4de04e2706508603914015d643e5e3f7111e8f7a13e1d6060001b6200151a565b60006200ff437f209a2a035956ec39ac57838216cf95b75defc37ec3e9053095922df53782251a60001b6200151a565b6200ff717fdd9f3a4d39dabae4edd10d6ac047ff0906290f489e9a15b6f001000da95a2be260001b6200151a565b60005b89518110156201018b576200ffac7f991888ab7555839b9de2bc1ee0ec91b845ae0db1e88be6e2b461ff97f5fd26d160001b6200151a565b6200ffda7fcbde6a4b0e9c6dc173c963f27a7313d74bf1c3bf3315f722f7311e089115a9d260001b6200151a565b600062010005858c84815181106200ffee57fe5b60200260200101516200794790919063ffffffff16565b9050620100357f99a9ecdc83f9725c8d8e0168143e22d398ce9ff79eb1337030e834867d623e9860001b6200151a565b620100637fb658150d366e0ba88472493df1af301a420ee17736f781ca5822f9bf10481e3e60001b6200151a565b620100c88b83815181106201007457fe5b6020026020010151620100b98c85815181106201008d57fe5b60200260200101518e8681518110620100a257fe5b60200260200101516200ae3290919063ffffffff16565b6200794790919063ffffffff16565b848381518110620100d557fe5b6020026020010181815250506201010f7f06b27a66da7a3122c3ecf4c309ad5d37e61d5e4a8c86d72ff18ff0fd17abde3660001b6200151a565b6201013d7f5a01b5b96072f9081074d8ce0a80bb373124d4e4af22243b55a0281537f6d8e360001b6200151a565b6201017a6201016a828685815181106201015357fe5b60200260200101516200e3cf90919063ffffffff16565b846200ae3290919063ffffffff16565b92505080806001019150506200ff74565b50620101ba7f61f94435e44370f7b52d199ccf02c04a6290129f17df387b0ab1798665d063f060001b6200151a565b620101e87fac9489e5f24f492e92ad2c9ef2bd86d3238140cd057ccbbc0ebe2726b5e59cc060001b6200151a565b6060895167ffffffffffffffff811180156201020357600080fd5b50604051908082528060200260200182016040528015620102335781602001602082028036833780820191505090505b509050620102647f8222b8611e2cf4e2bddd25e215aa0704e36eeac541761f6552fe5062a9898b9160001b6200151a565b620102927f6abdf3ce3fa7fb0b8313821348290b95be2070f32acff07b42462ed80214c45e60001b6200151a565b60005b8a51811015620106ba57620102cd7fe385ec2567b8f06a184fd240db64cb3d36ae3271c4d0a6cf24abd4a806a94f0660001b6200151a565b620102fb7f5e0f63680c701d856d4d44f8f7d47d6819788083577a6ad69ccd8ccb7f1c836c60001b6200151a565b60006201032b7fe025cf847fc2e598d1d0f9fdd2a9ca4eddb24e9becb1a681601a8a72c9aa6daf60001b6200151a565b620103597f64da22b55baa2e48f03a9598654650ea20ee71908ea23ddc1cef257823957b3660001b6200151a565b8482815181106201036657fe5b602002602001015184106201040957620103a37f55d1d36044b30e46fa6cdddb7d479ef5ce650fc882c594c52f1eee9efe6407fc60001b6200151a565b620103d17f47e17a7b33cd31950c17afca9b907f9c5cd050c627fb5664bd3df8e8b6e933d660001b6200151a565b620103ff7f41a2c17ac711ff0e9af89d39671b5a6393b4e13f4408fc373e4bfbcb0416656760001b6200151a565b6000905062010503565b620104377fec2baf1182a92249c4304b523bd8fe708fd6b00b41e9f85c097f8ca0baf220a660001b6200151a565b620104657fb46f09248fb07e1b7deff88b5e0daf9679de7c8084ec6c65d55d8a20d409b58f60001b6200151a565b620104937f1c66dd31d4e9fa0251a8f8c733eea832cd9397500437ab618554a98656fbfb7360001b6200151a565b62010500620104c8670de0b6b3a7640000878581518110620104b157fe5b60200260200101516200a65390919063ffffffff16565b620104f186888681518110620104da57fe5b60200260200101516200a65390919063ffffffff16565b6200bdb390919063ffffffff16565b90505b620105317fbf69095a82c15a125ca88fc4c46d77efcd8ca37d3d832ef5ed5119a7039ef30360001b6200151a565b6201055f7f245d71f36a97fa35cbfda848532f51362a6558e1329d7e6244e8c1dfdf6963d860001b6200151a565b600062010576828b6200c0d790919063ffffffff16565b9050620105a67fd187e0b719d7715528ac7ae885def55e65743c03b1832bd637350471e30dd13c60001b6200151a565b620105d47f01f64373ca2eeb464d6d785d6cfb30cf8dc9100a6d19a77914f3d702d335fd3a60001b6200151a565b600062010609620105e5836200bcfc565b8e8681518110620105f257fe5b60200260200101516200e3cf90919063ffffffff16565b9050620106397fc1b0f0d48ec33e506726e65697edfffac352cb8ba8c1ec05bd6c8a815c6332fe60001b6200151a565b620106677fdc1cc231cef896f088b9a63a3336b7cb8770c060f9ae94f46da40d809f5bfcf560001b6200151a565b62010690818f86815181106201067957fe5b60200260200101516200ae3290919063ffffffff16565b8585815181106201069d57fe5b602002602001018181525050505050808060010191505062010295565b50620106e97fd865bbb45c5c69b8304160e97ca35ce4c9447660ef37e41d3bd2d2bfd28b71de60001b6200151a565b620107177f39d2e033e85047cc2425bd44a549e32aa6ade65a94d9182a32ad83ccdc0f4fdd60001b6200151a565b6000620107258c8362006e86565b9050620107557f675d30c3a84a0319aaee76bb39826835947e01f8551778248b209a81ea21dba860001b6200151a565b620107837ff94d1d416e4b8151b54a9a0d9c607793eb78295446e92a35626d75dc34d6472a60001b6200151a565b620107c8620107b8670de0b6b3a7640000620107a989856200794790919063ffffffff16565b6200a65390919063ffffffff16565b8a6200e3cf90919063ffffffff16565b965050505050505095945050505050565b6000806201080a7f6a3993332b5fce915dd4a35c2e27870342f8e9313547503e7d53d539c801175e60001b6200d8ae565b620108387f202e04662ad0c6c7497c83587c3e8908611f3f954af1253a9b933ad7f8b2dce060001b6200d8ae565b620108667f6fa207d87f10b3231ac79ee688dfe4ae1557e213989024416abfc3f2d9b2a14260001b6200d8ae565b828060200190518101906201087c91906201187b565b9091508092508193505050915091565b6000620108bc7f6ebd324b2403102ca1fbc93bbd99e62c3d9a2e334bdaf44b09dd2608b4b1528060001b6200151a565b620108ea7fa047d91cb84902c1b0981f1d96818db17808bdd80e20783ce07bdcdc4659ba4760001b6200151a565b620109187f8f671b5ae4ba0d76d387c16955242817ad19e8e72189484081fe600fc469646360001b6200151a565b600062010926888862006e86565b9050620109567f5956c58a8db95245acb6b309efc84404adba6b472735961e66aaa2c40c4453b360001b6200151a565b620109847f6ece4fc71ed5aab701e87ba651903158852be9c486b7f9dc2cabc9100cec4bcd60001b6200151a565b6000620109c382620109b487620109a58a8a6200ae3290919063ffffffff16565b6200bdb390919063ffffffff16565b6200c0d790919063ffffffff16565b9050620109f37f4aa77dc60b4eaceb7f5ff7ca4fb4c68aea99d20ec8734cb8ca3c22295cacc85a60001b6200151a565b62010a217f9ccab3db383eb21df6cb1c85c5f5053695588d81322053acd85f3225ea14d8f560001b6200151a565b600062010a517f106d8da0566b9cd6461b0a9219207cfd962104eb498396382ec993cb546175af60001b6200151a565b62010a7f7fdc34c81419121c14dfe8506535a810e4e06e42bba94373ed90742757e36fed9e60001b6200151a565b60005b895181101562010b215762010aba7f75a0279c67391cc843c5e391b3fff6fc33253a16cef3812788e7b658161eaa8a60001b6200151a565b62010ae87f6f105e91d4a7c19a189019edfdd8328a69f0deccf15397d5b5535a99bec82d3860001b6200151a565b62010b118a828151811062010af957fe5b6020026020010151836200ae3290919063ffffffff16565b9150808060010191505062010a82565b5062010b507fa7d1ce0f27e5c15c83557407a7e657418d187da99dc38b5b18e6b700b5d9aa0360001b6200151a565b62010b7e7fb9520882149ca333cb372f0480f615b1b14925f7c770d695664e7e780c95323860001b6200151a565b600062010b8e8b8b858c6200d8b1565b905062010bbe7f71ce7a22464893e8d5c095997fa2e12192c856a48b4e17bb099431107dd04ecb60001b6200151a565b62010bec7f7dd4bfd2d632f67c6edb5fbe9c2ae5679f2a1033bb4fc8c00550a65839c8e24960001b6200151a565b600062010c178b8b8151811062010bff57fe5b6020026020010151836200a65390919063ffffffff16565b905062010c477ff6e095e9df377587d4d4c11a0f953e8f57d21b140308ce9d3a35aa4f55c5e13c60001b6200151a565b62010c757f41816b661bd69e405ac7182d7a3b6ab7dad59d8dfd9ee6a364649e1cc987c80a60001b6200151a565b600062010ca0848d8d8151811062010c8957fe5b60200260200101516200794790919063ffffffff16565b905062010cd07ff4975dda160cd8645e5f8d2f3b1e6079a7f0711c8aaf052e60d0498654b63ee860001b6200151a565b62010cfe7fc13de035811df3bee84fa65e23700e420d9143d81f0af80aeefb919984a8fb0360001b6200151a565b600062010d0b826200bcfc565b905062010d3b7fb3d4ffe0ae567a73a2a69f4907d1cdca26b63286f46eab6740d89e473bee418260001b6200151a565b62010d697fe5f4411094d5c5c3058edab66b1abb88dc96f1045c454ddc8a4f14c20922cf7760001b6200151a565b600062010d80828b6200c0d790919063ffffffff16565b905062010db07ff2e2be6a60b7c44c976ab2fd2a0c816c1d6cec2fe273e2258cfc445872da56e060001b6200151a565b62010dde7f944ac74a6576addc40a186c936adcb27c874e9f976d1f7c753f50efbe782338d60001b6200151a565b62010dfd62010ded826200bcfc565b856200bdb390919063ffffffff16565b985050505050505050509695505050505050565b60008135905062010e228162012187565b92915050565b600082601f83011262010e3a57600080fd5b815162010e5162010e4b8262011f2e565b62011f00565b9150818183526020840193506020810190508385602084028201111562010e7757600080fd5b60005b8381101562010eab578162010e908882620110b5565b84526020840193506020830192505060018101905062010e7a565b5050505092915050565b600082601f83011262010ec757600080fd5b813562010ede62010ed88262011f57565b62011f00565b9150818183526020840193506020810190508385602084028201111562010f0457600080fd5b60005b8381101562010f38578162010f1d88826201121b565b84526020840193506020830192505060018101905062010f07565b5050505092915050565b600082601f83011262010f5457600080fd5b815162010f6b62010f658262011f57565b62011f00565b9150818183526020840193506020810190508385602084028201111562010f9157600080fd5b60005b8381101562010fc5578162010faa888262011232565b84526020840193506020830192505060018101905062010f94565b5050505092915050565b60008135905062010fe081620121a1565b92915050565b60008151905062010ff781620121a1565b92915050565b6000813590506201100e81620121bb565b92915050565b6000813590506201102581620121d5565b92915050565b600082601f8301126201103d57600080fd5b8135620110546201104e8262011f80565b62011f00565b915080825260208301602083018583830111156201107157600080fd5b6201107e8382846201211d565b50505092915050565b6000815190506201109881620121ef565b92915050565b600081359050620110af8162012209565b92915050565b600081519050620110c68162012209565b92915050565b600081519050620110dd8162012223565b92915050565b600081519050620110f48162012234565b92915050565b6000813590506201110b8162012245565b92915050565b600061012082840312156201112557600080fd5b6201113261012062011f00565b905060006201114484828501620110fa565b60008301525060206201115a848285016201109e565b602083015250604062011170848285016201109e565b604083015250606062011186848285016201121b565b60608301525060806201119c8482850162010ffd565b60808301525060a0620111b2848285016201121b565b60a08301525060c0620111c88482850162010e11565b60c08301525060e0620111de8482850162010e11565b60e08301525061010082013567ffffffffffffffff8111156201120057600080fd5b6201120e848285016201102b565b6101008301525092915050565b6000813590506201122c8162012256565b92915050565b600081519050620112438162012256565b92915050565b6000813590506201125a8162012270565b92915050565b6000602082840312156201127357600080fd5b6000620112838482850162010e11565b91505092915050565b60008060408385031215620112a057600080fd5b6000620112b08582860162010e11565b9250506020620112c38582860162010e11565b9150509250929050565b600080600060608486031215620112e357600080fd5b6000620112f38682870162010e11565b9350506020620113068682870162010e11565b925050604062011319868287016201121b565b9150509250925092565b600080600080600080600060e0888a0312156201133f57600080fd5b60006201134f8a828b0162010e11565b9750506020620113628a828b0162010e11565b9650506040620113758a828b016201121b565b9550506060620113888a828b016201121b565b94505060806201139b8a828b0162011249565b93505060a0620113ae8a828b0162010ffd565b92505060c0620113c18a828b0162010ffd565b91505092959891949750929550565b60008060408385031215620113e457600080fd5b6000620113f48582860162010e11565b925050602062011407858286016201121b565b9150509250929050565b6000806000606084860312156201142757600080fd5b600084015167ffffffffffffffff8111156201144257600080fd5b620114508682870162010e28565b935050602084015167ffffffffffffffff8111156201146e57600080fd5b6201147c8682870162010f42565b92505060406201148f8682870162011232565b9150509250925092565b600060208284031215620114ac57600080fd5b6000620114bc8482850162010fcf565b91505092915050565b600060208284031215620114d857600080fd5b6000620114e88482850162010fe6565b91505092915050565b6000602082840312156201150457600080fd5b6000620115148482850162010ffd565b91505092915050565b600080600080600080600060e0888a0312156201153957600080fd5b6000620115498a828b0162010ffd565b97505060206201155c8a828b0162010e11565b96505060406201156f8a828b0162010e11565b955050606088013567ffffffffffffffff8111156201158d57600080fd5b6201159b8a828b0162010eb5565b9450506080620115ae8a828b016201121b565b93505060a0620115c18a828b016201121b565b92505060c088013567ffffffffffffffff811115620115df57600080fd5b620115ed8a828b016201102b565b91505092959891949750929550565b6000602082840312156201160f57600080fd5b60006201161f8482850162011014565b91505092915050565b6000602082840312156201163b57600080fd5b60006201164b8482850162011087565b91505092915050565b6000602082840312156201166757600080fd5b60006201167784828501620110cc565b91505092915050565b6000806000606084860312156201169657600080fd5b6000620116a686828701620110cc565b935050602084015167ffffffffffffffff811115620116c457600080fd5b620116d28682870162010f42565b9250506040620116e58682870162011232565b9150509250925092565b600080604083850312156201170357600080fd5b60006201171385828601620110cc565b9250506020620117268582860162011232565b9150509250929050565b6000806000606084860312156201174657600080fd5b60006201175686828701620110cc565b9350506020620117698682870162011232565b92505060406201177c8682870162011232565b9150509250925092565b6000602082840312156201179957600080fd5b6000620117a984828501620110e3565b91505092915050565b60008060408385031215620117c657600080fd5b6000620117d685828601620110e3565b925050602083015167ffffffffffffffff811115620117f457600080fd5b620118028582860162010f42565b9150509250929050565b6000806000606084860312156201182257600080fd5b60006201183286828701620110e3565b935050602084015167ffffffffffffffff8111156201185057600080fd5b6201185e8682870162010f42565b9250506040620118718682870162011232565b9150509250925092565b6000806000606084860312156201189157600080fd5b6000620118a186828701620110e3565b9350506020620118b48682870162011232565b9250506040620118c78682870162011232565b9150509250925092565b60008060008060808587031215620118e857600080fd5b600085013567ffffffffffffffff8111156201190357600080fd5b620119118782880162011111565b945050602085013567ffffffffffffffff8111156201192f57600080fd5b6201193d8782880162010eb5565b935050604062011950878288016201121b565b925050606062011963878288016201121b565b91505092959194509250565b6000602082840312156201198257600080fd5b600062011992848285016201121b565b91505092915050565b6000620119a9838362011b56565b60208301905092915050565b620119c08162012018565b82525050565b6000620119d38262011fbd565b620119df818562011fe0565b9350620119ec8362011fad565b8060005b8381101562011a2357815162011a0788826201199b565b975062011a148362011fd3565b925050600181019050620119f0565b5085935050505092915050565b62011a3b816201202c565b82525050565b62011a4c8162012038565b82525050565b62011a6762011a618262012038565b62012162565b82525050565b62011a8262011a7c8262012042565b6201216c565b82525050565b600062011a96838562011ff1565b935062011aa58385846201211d565b82840190509392505050565b62011abc81620120cd565b82525050565b62011acd81620120f5565b82525050565b600062011ae08262011fc8565b62011aec818562011ffc565b935062011afe8185602086016201212c565b62011b098162012176565b840191505092915050565b600062011b236002836201200d565b91507f19010000000000000000000000000000000000000000000000000000000000006000830152600282019050919050565b62011b6181620120b6565b82525050565b62011b7281620120b6565b82525050565b62011b8381620120c0565b82525050565b600062011b97828562011a52565b60208201915062011ba9828462011a6d565b6004820191508190509392505050565b600062011bc882848662011a88565b91508190509392505050565b600062011be18262011b14565b915062011bef828562011a52565b60208201915062011c01828462011a52565b6020820191508190509392505050565b600060208201905062011c286000830184620119b5565b92915050565b6000604082019050818103600083015262011c4a8185620119c6565b9050818103602083015262011c608184620119c6565b90509392505050565b600060208201905062011c80600083018462011a30565b92915050565b600060608201905062011c9d600083018662011a30565b62011cac602083018562011b67565b62011cbb604083018462011b67565b949350505050565b600060208201905062011cda600083018462011a41565b92915050565b600060608201905062011cf7600083018662011a41565b62011d066020830185620119b5565b62011d156040830184620119b5565b949350505050565b600060c08201905062011d34600083018962011a41565b62011d436020830188620119b5565b62011d526040830187620119b5565b62011d61606083018662011b67565b62011d70608083018562011b67565b62011d7f60a083018462011b67565b979650505050505050565b600060a08201905062011da1600083018862011a41565b62011db0602083018762011a41565b62011dbf604083018662011a41565b62011dce606083018562011b67565b62011ddd6080830184620119b5565b9695505050505050565b600060808201905062011dfe600083018762011a41565b62011e0d602083018662011b78565b62011e1c604083018562011a41565b62011e2b606083018462011a41565b95945050505050565b600060208201905062011e4b600083018462011ab1565b92915050565b600060208201905062011e68600083018462011ac2565b92915050565b6000602082019050818103600083015262011e8a818462011ad3565b905092915050565b600060208201905062011ea9600083018462011b67565b92915050565b600060408201905062011ec6600083018562011b67565b818103602083015262011eda8184620119c6565b90509392505050565b600060208201905062011efa600083018462011b78565b92915050565b6000604051905081810181811067ffffffffffffffff8211171562011f2457600080fd5b8060405250919050565b600067ffffffffffffffff82111562011f4657600080fd5b602082029050602081019050919050565b600067ffffffffffffffff82111562011f6f57600080fd5b602082029050602081019050919050565b600067ffffffffffffffff82111562011f9857600080fd5b601f19601f8301169050602081019050919050565b6000819050602082019050919050565b600081519050919050565b600081519050919050565b6000602082019050919050565b600082825260208201905092915050565b600081905092915050565b600082825260208201905092915050565b600081905092915050565b6000620120258262012096565b9050919050565b60008115159050919050565b6000819050919050565b60007fffffffff0000000000000000000000000000000000000000000000000000000082169050919050565b60006201207b8262012018565b9050919050565b60006201208f8262012018565b9050919050565b600073ffffffffffffffffffffffffffffffffffffffff82169050919050565b6000819050919050565b600060ff82169050919050565b6000620120da82620120e1565b9050919050565b6000620120ee8262012096565b9050919050565b6000620121028262012109565b9050919050565b6000620121168262012096565b9050919050565b82818337600083830152505050565b60005b838110156201214c5780820151818401526020810190506201212f565b838111156201215c576000848401525b50505050565b6000819050919050565b6000819050919050565b6000601f19601f8301169050919050565b620121928162012018565b81146201219e57600080fd5b50565b620121ac816201202c565b8114620121b857600080fd5b50565b620121c68162012038565b8114620121d257600080fd5b50565b620121e08162012042565b8114620121ec57600080fd5b50565b620121fa816201206e565b81146201220657600080fd5b50565b620122148162012082565b81146201222057600080fd5b50565b600381106201223157600080fd5b50565b600381106201224257600080fd5b50565b600281106201225357600080fd5b50565b6201226181620120b6565b81146201226d57600080fd5b50565b6201227b81620120c0565b81146201228757600080fd5b5056fea2646970667358221220f314b5563dab505c1ac8f886ebf6f18500af812f5d7c2ef9ad147acb0b1866f964736f6c63430007010033",
  "linkReferences": {},
  "deployedLinkReferences": {}
}