{
  "_format": "hh-sol-artifact-1",
  "contractName": "BalancerPoolToken",
  "sourceName": "contracts/balancer-core-v2/pools/BalancerPoolToken.sol",
  "abi": [
    {
      "inputs": [
        {
          "internalType": "string",
          "name": "tokenName",
          "type": "string"
        },
        {
          "internalType": "string",
          "name": "tokenSymbol",
          "type": "string"
        }
      ],
      "stateMutability": "nonpayable",
      "type": "constructor"
    },
    {
      "anonymous": false,
      "inputs": [
        {
          "indexed": true,
          "internalType": "address",
          "name": "owner",
          "type": "address"
        },
        {
          "indexed": true,
          "internalType": "address",
          "name": "spender",
          "type": "address"
        },
        {
          "indexed": false,
          "internalType": "uint256",
          "name": "value",
          "type": "uint256"
        }
      ],
      "name": "Approval",
      "type": "event"
    },
    {
      "anonymous": false,
      "inputs": [
        {
          "indexed": true,
          "internalType": "address",
          "name": "from",
          "type": "address"
        },
        {
          "indexed": true,
          "internalType": "address",
          "name": "to",
          "type": "address"
        },
        {
          "indexed": false,
          "internalType": "uint256",
          "name": "value",
          "type": "uint256"
        }
      ],
      "name": "Transfer",
      "type": "event"
    },
    {
      "inputs": [],
      "name": "DOMAIN_SEPARATOR",
      "outputs": [
        {
          "internalType": "bytes32",
          "name": "",
          "type": "bytes32"
        }
      ],
      "stateMutability": "view",
      "type": "function"
    },
    {
      "inputs": [
        {
          "internalType": "address",
          "name": "owner",
          "type": "address"
        },
        {
          "internalType": "address",
          "name": "spender",
          "type": "address"
        }
      ],
      "name": "allowance",
      "outputs": [
        {
          "internalType": "uint256",
          "name": "",
          "type": "uint256"
        }
      ],
      "stateMutability": "view",
      "type": "function"
    },
    {
      "inputs": [
        {
          "internalType": "address",
          "name": "spender",
          "type": "address"
        },
        {
          "internalType": "uint256",
          "name": "amount",
          "type": "uint256"
        }
      ],
      "name": "approve",
      "outputs": [
        {
          "internalType": "bool",
          "name": "",
          "type": "bool"
        }
      ],
      "stateMutability": "nonpayable",
      "type": "function"
    },
    {
      "inputs": [
        {
          "internalType": "address",
          "name": "account",
          "type": "address"
        }
      ],
      "name": "balanceOf",
      "outputs": [
        {
          "internalType": "uint256",
          "name": "",
          "type": "uint256"
        }
      ],
      "stateMutability": "view",
      "type": "function"
    },
    {
      "inputs": [
        {
          "internalType": "bytes32",
          "name": "c__0x28684d28",
          "type": "bytes32"
        }
      ],
      "name": "c_0x28684d28",
      "outputs": [],
      "stateMutability": "pure",
      "type": "function"
    },
    {
      "inputs": [
        {
          "internalType": "bytes32",
          "name": "c__0xc3d2df53",
          "type": "bytes32"
        }
      ],
      "name": "c_0xc3d2df53",
      "outputs": [],
      "stateMutability": "pure",
      "type": "function"
    },
    {
      "inputs": [],
      "name": "decimals",
      "outputs": [
        {
          "internalType": "uint8",
          "name": "",
          "type": "uint8"
        }
      ],
      "stateMutability": "pure",
      "type": "function"
    },
    {
      "inputs": [
        {
          "internalType": "address",
          "name": "spender",
          "type": "address"
        },
        {
          "internalType": "uint256",
          "name": "amount",
          "type": "uint256"
        }
      ],
      "name": "decreaseApproval",
      "outputs": [
        {
          "internalType": "bool",
          "name": "",
          "type": "bool"
        }
      ],
      "stateMutability": "nonpayable",
      "type": "function"
    },
    {
      "inputs": [
        {
          "internalType": "address",
          "name": "spender",
          "type": "address"
        },
        {
          "internalType": "uint256",
          "name": "amount",
          "type": "uint256"
        }
      ],
      "name": "increaseApproval",
      "outputs": [
        {
          "internalType": "bool",
          "name": "",
          "type": "bool"
        }
      ],
      "stateMutability": "nonpayable",
      "type": "function"
    },
    {
      "inputs": [],
      "name": "name",
      "outputs": [
        {
          "internalType": "string",
          "name": "",
          "type": "string"
        }
      ],
      "stateMutability": "view",
      "type": "function"
    },
    {
      "inputs": [
        {
          "internalType": "address",
          "name": "owner",
          "type": "address"
        }
      ],
      "name": "nonces",
      "outputs": [
        {
          "internalType": "uint256",
          "name": "",
          "type": "uint256"
        }
      ],
      "stateMutability": "view",
      "type": "function"
    },
    {
      "inputs": [
        {
          "internalType": "address",
          "name": "owner",
          "type": "address"
        },
        {
          "internalType": "address",
          "name": "spender",
          "type": "address"
        },
        {
          "internalType": "uint256",
          "name": "value",
          "type": "uint256"
        },
        {
          "internalType": "uint256",
          "name": "deadline",
          "type": "uint256"
        },
        {
          "internalType": "uint8",
          "name": "v",
          "type": "uint8"
        },
        {
          "internalType": "bytes32",
          "name": "r",
          "type": "bytes32"
        },
        {
          "internalType": "bytes32",
          "name": "s",
          "type": "bytes32"
        }
      ],
      "name": "permit",
      "outputs": [],
      "stateMutability": "nonpayable",
      "type": "function"
    },
    {
      "inputs": [],
      "name": "symbol",
      "outputs": [
        {
          "internalType": "string",
          "name": "",
          "type": "string"
        }
      ],
      "stateMutability": "view",
      "type": "function"
    },
    {
      "inputs": [],
      "name": "totalSupply",
      "outputs": [
        {
          "internalType": "uint256",
          "name": "",
          "type": "uint256"
        }
      ],
      "stateMutability": "view",
      "type": "function"
    },
    {
      "inputs": [
        {
          "internalType": "address",
          "name": "recipient",
          "type": "address"
        },
        {
          "internalType": "uint256",
          "name": "amount",
          "type": "uint256"
        }
      ],
      "name": "transfer",
      "outputs": [
        {
          "internalType": "bool",
          "name": "",
          "type": "bool"
        }
      ],
      "stateMutability": "nonpayable",
      "type": "function"
    },
    {
      "inputs": [
        {
          "internalType": "address",
          "name": "sender",
          "type": "address"
        },
        {
          "internalType": "address",
          "name": "recipient",
          "type": "address"
        },
        {
          "internalType": "uint256",
          "name": "amount",
          "type": "uint256"
        }
      ],
      "name": "transferFrom",
      "outputs": [
        {
          "internalType": "bool",
          "name": "",
          "type": "bool"
        }
      ],
      "stateMutability": "nonpayable",
      "type": "function"
    }
  ],
  "bytecode": "0x6101006040527f6e71edae12b1b97f4d1f60370fef10105fa2faae0126114a169c64845d6126c960e0908152503480156200003957600080fd5b5060405162002e9738038062002e97833981810160405260408110156200005f57600080fd5b81019080805160405193929190846401000000008211156200008057600080fd5b838201915060208201858111156200009757600080fd5b8251866001820283011164010000000082111715620000b557600080fd5b8083526020830192505050908051906020019080838360005b83811015620000eb578082015181840152602081019050620000ce565b50505050905090810190601f168015620001195780820380516001836020036101000a031916815260200191505b50604052602001805160405193929190846401000000008211156200013d57600080fd5b838201915060208201858111156200015457600080fd5b82518660018202830111640100000000821117156200017257600080fd5b8083526020830192505050908051906020019080838360005b83811015620001a85780820151818401526020810190506200018b565b50505050905090810190601f168015620001d65780820380516001836020036101000a031916815260200191505b50604052505050816040518060400160405280600181526020017f3100000000000000000000000000000000000000000000000000000000000000815250620002487fee98174f2fec6f5039773d74e605ef9eca5c1cd66e97227a4db2801fa44649d460001b6200050660201b60201c565b6200027c7f4259111439657f52cad82bf951b84cb17ad89c9a75c0a453b11471980df5b70460001b6200050660201b60201c565b620002b07f694727719f1c716e137bf99300414ab3971da34628c5fdb5e3aefb346ab250cd60001b6200050660201b60201c565b818051906020012060808181525050620002f37fc80ca99f8a52e2364dede2f196e5eea0d3e5cbb3d39b3c583eabdce5b2eba33860001b6200050660201b60201c565b620003277fd79623f57f644f5deaf66895ac05cf4d0efe2db6dc309aa7731ca0cce6c6c42060001b6200050660201b60201c565b808051906020012060a081815250506200036a7f3595ce0dcb0082ced7c03525364c4e77b55c5765b539ff680b322eb52d68007860001b6200050660201b60201c565b6200039e7fce462f00afa59e5231a71f65b788fd6e74c839c46485038b23c5240219a6728160001b6200050660201b60201c565b7f8b73c3c69bb8fe3d512ecc4cf759cc79239f7b179b0ffacaa9a75d522b39400f60c081815250505050620003fc7f81b292b7c2f738fe1ef398ecf484c30fdcca7a1fa0fdcec6133e69f7d952feb760001b6200050960201b60201c565b620004307f0e8922ff6774c4bdde3a74a12158ca1888e60f5a3c45555ddd81e8785d5ee3f260001b6200050960201b60201c565b620004647f59e4bf632185b91833f20a14a0ad444be3eecf2ae84a218ca7bc6928a7ff258560001b6200050960201b60201c565b81600390805190602001906200047c9291906200050c565b50620004b17f28e246c5f6155f806e0edae691917dbdb6f861567b1c6bf6fd24b0d5c4ca1b7d60001b6200050960201b60201c565b620004e57f6f23c232081ae254a1779744f064adfc759d8456694b907fe454eb09fecd7c3c60001b6200050960201b60201c565b8060049080519060200190620004fd9291906200050c565b505050620005b2565b50565b50565b828054600181600116156101000203166002900490600052602060002090601f016020900481019282601f106200054f57805160ff191683800117855562000580565b8280016001018555821562000580579182015b828111156200057f57825182559160200191906001019062000562565b5b5090506200058f919062000593565b5090565b5b80821115620005ae57600081600090555060010162000594565b5090565b60805160a05160c05160e0516128af620005e86000398061168952508061231e52508061236052508061233f52506128af6000f3fe608060405234801561001057600080fd5b50600436106101005760003560e01c806370a0823111610097578063c27f816911610066578063c27f8169146104f6578063d505accf14610524578063d73dd623146105bd578063dd62ed3e1461062157610100565b806370a082311461035f5780637ecebe00146103b757806395d89b411461040f578063a9059cbb1461049257610100565b8063313ce567116100d3578063313ce5671461028e5780633551a9ca146102af5780633644e515146102dd57806366188463146102fb57610100565b806306fdde0314610105578063095ea7b31461018857806318160ddd146101ec57806323b872dd1461020a575b600080fd5b61010d610699565b6040518080602001828103825283818151815260200191508051906020019080838360005b8381101561014d578082015181840152602081019050610132565b50505050905090810190601f16801561017a5780820380516001836020036101000a031916815260200191505b509250505060405180910390f35b6101d46004803603604081101561019e57600080fd5b81019080803573ffffffffffffffffffffffffffffffffffffffff169060200190929190803590602001909291905050506107bf565b60405180821515815260200191505060405180910390f35b6101f46108b2565b6040518082815260200191505060405180910390f35b6102766004803603606081101561022057600080fd5b81019080803573ffffffffffffffffffffffffffffffffffffffff169060200190929190803573ffffffffffffffffffffffffffffffffffffffff16906020019092919080359060200190929190505050610940565b60405180821515815260200191505060405180910390f35b610296610d27565b604051808260ff16815260200191505060405180910390f35b6102db600480360360208110156102c557600080fd5b8101908080359060200190929190505050610db4565b005b6102e5610db7565b6040518082815260200191505060405180910390f35b6103476004803603604081101561031157600080fd5b81019080803573ffffffffffffffffffffffffffffffffffffffff16906020019092919080359060200190929190505050610e4a565b60405180821515815260200191505060405180910390f35b6103a16004803603602081101561037557600080fd5b81019080803573ffffffffffffffffffffffffffffffffffffffff16906020019092919050505061114a565b6040518082815260200191505060405180910390f35b6103f9600480360360208110156103cd57600080fd5b81019080803573ffffffffffffffffffffffffffffffffffffffff169060200190929190505050611216565b6040518082815260200191505060405180910390f35b6104176112e3565b6040518080602001828103825283818151815260200191508051906020019080838360005b8381101561045757808201518184015260208101905061043c565b50505050905090810190601f1680156104845780820380516001836020036101000a031916815260200191505b509250505060405180910390f35b6104de600480360360408110156104a857600080fd5b81019080803573ffffffffffffffffffffffffffffffffffffffff16906020019092919080359060200190929190505050611409565b60405180821515815260200191505060405180910390f35b6105226004803603602081101561050c57600080fd5b81019080803590602001909291905050506114fc565b005b6105bb600480360360e081101561053a57600080fd5b81019080803573ffffffffffffffffffffffffffffffffffffffff169060200190929190803573ffffffffffffffffffffffffffffffffffffffff1690602001909291908035906020019092919080359060200190929190803560ff16906020019092919080359060200190929190803590602001909291905050506114ff565b005b610609600480360360408110156105d357600080fd5b81019080803573ffffffffffffffffffffffffffffffffffffffff16906020019092919080359060200190929190505050611a23565b60405180821515815260200191505060405180910390f35b6106836004803603604081101561063757600080fd5b81019080803573ffffffffffffffffffffffffffffffffffffffff169060200190929190803573ffffffffffffffffffffffffffffffffffffffff169060200190929190505050611ba4565b6040518082815260200191505060405180910390f35b60606106c77f4db756c43151b39c292200c46bff24e176da61a0e871364526e45f6fbe81ac4a60001b610db4565b6106f37fba290886c45607b59e3de5397eb7831641bfd35d7fa57c961e0adcd9d4b79c3a60001b610db4565b61071f7f39a49d1e9173e1b109b0071d57f8abe5e31aa57049988a2f3d2e37520a49e1b660001b610db4565b60038054600181600116156101000203166002900480601f0160208091040260200160405190810160405280929190818152602001828054600181600116156101000203166002900480156107b55780601f1061078a576101008083540402835291602001916107b5565b820191906000526020600020905b81548152906001019060200180831161079857829003601f168201915b5050505050905090565b60006107ed7fb1ea157a74570fd3643c5310837ad126ac7e4706522558b5875e1918b59b542c60001b610db4565b6108197f608d42f4361636bab0a221b92860e67ed6868f7c49f5d3d0971b0415b8bbc3fc60001b610db4565b6108457f615b7abb3c5e0d42ad112c000b5db1bdca612c20fd9371e93aa915c0710d8e9b60001b610db4565b610850338484611caf565b61087c7f20ccb10feb578c145cd252783de60c35b7c4c0b57c889d3dfb397e2beb70414f60001b610db4565b6108a87ffe03fbd27bd6a7be7f0b17c315f4e874faf110e898eb2d3c95f00f3f260542fb60001b610db4565b6001905092915050565b60006108e07f3591744e6a97f397579dfefe4467e742422291d5b48cf0b4b29d2a7bd707601a60001b610db4565b61090c7f648de981846633733b23f115d5f5a0c65d9ed63a0536ceba8eceb070f538606660001b610db4565b6109387f26add7f2af4a43b72f0acd053918a6e311d5debc1abcc80dc521e650b43cf45d60001b610db4565b600254905090565b600061096e7fcb1e83c5388babf0d45f0a159d24050185c8f019cd8c4b6f2c779d5c3c539f9f60001b610db4565b61099a7f7fbd987c745bcd9baf3604ec32a88300f63bb21f3fceda9f3228dfaf2c3f2de460001b610db4565b6109c67f0e8dacc52dc9d5685cb26ebdcfd55134cecbe613d8a4b690e0e969ccd4b0481060001b610db4565b6000600160008673ffffffffffffffffffffffffffffffffffffffff1673ffffffffffffffffffffffffffffffffffffffff16815260200190815260200160002060003373ffffffffffffffffffffffffffffffffffffffff1673ffffffffffffffffffffffffffffffffffffffff168152602001908152602001600020549050610a737f54e7f369fb0047d67cc293276bb189bd606f854e46cdcecc1bd076aa91dd06f260001b610db4565b610a9f7f39190ba861c8e6e479265c5a4e8684bc43ebc26b72efdbf60c93695625d7e74560001b610db4565b610ae48573ffffffffffffffffffffffffffffffffffffffff163373ffffffffffffffffffffffffffffffffffffffff161480610adc5750838210155b610197611e76565b610b107fd869e7d03a7d2b949d65095bdcf9138ca8c21024df18a7d1e9848fe6c7abba5a60001b610db4565b610b3c7f537959050150c59e30f3e96d0efe52657216286d3e9b350077d0afcaadc7422060001b610db4565b610b47858585611e89565b610b737f926c18b0f53a5e82fd975daa6afee3b86a70d7c71a10a76f3fcca650aec50a6d60001b610db4565b610b9f7f607a349b557172ec6566d29aba0b5e434c65703e9f4543212ae2ade2556ad69860001b610db4565b8473ffffffffffffffffffffffffffffffffffffffff163373ffffffffffffffffffffffffffffffffffffffff1614158015610bfb57507fffffffffffffffffffffffffffffffffffffffffffffffffffffffffffffffff8114155b15610c9657610c2c7fcd4b7cb6209714f6b6668452e416a09740061e5232695dab3c8d58eb9929230660001b610db4565b610c587f1b58eb05783678703afafd8c2da7777514b88bb4bf1d0b1b33d2285ae42bb85060001b610db4565b610c847ff0312650c8425ab9e2314712cd6a85893e6ba127ec99153319693e6c04b162ab60001b610db4565b610c918533858403611caf565b610cc3565b610cc27f8b9f87cb614a13839badb66ba449c6131eecbd8f2c92f3b916fa3d82b04f554e60001b610db4565b5b610cef7f5f2cde0b0885842c82f8b00a0286a72ef2985aa970c5d934ec072153cff1e5f660001b610db4565b610d1b7f32779093f7455faaa3eb624998ad4d7d1a80d4f32a251c7815d94777d377f58860001b610db4565b60019150509392505050565b6000610d557f9cad670adda916501fa2719d90e5fe0ece4449dd6036d4d49187cdb9b9a67db160001b610db4565b610d817f0a01c55b2a3b47c5dc0b58fa28bb70316ee084eca589b5465dc8477c8fb2969860001b610db4565b610dad7f1f2aa8b01dcb4274968895299d05e53753fd6115a911b22e4f5988ab9e33c50760001b610db4565b6012905090565b50565b6000610de57f9a9bf2e5977de3697a9ec96b58940c396178f0ae9e5e6dad3c34cc15875ad43660001b610db4565b610e117fb822da9206ad66a6612383dffe32883ba061b6accb06aaba55b9dd2dee84833160001b610db4565b610e3d7f7b9abb37e5294ffd6b06ddbc84feec6d9746d7f59ed43e20820b54f98f0eb04b60001b610db4565b610e45612296565b905090565b6000610e787f2bc4f6cbbe1e6cc58886fc607e4f9d603ff60ef5478e3676303f678e6caf2f5460001b610db4565b610ea47f731cc74fab18c25d19816bf4d2298b45d95bea660e12eca338e76e4e0250157360001b610db4565b610ed07f776354c1f8a649dba23ac29d302391f8ec705f38cfbf61eaa9e10ed0e086a0a860001b610db4565b6000600160003373ffffffffffffffffffffffffffffffffffffffff1673ffffffffffffffffffffffffffffffffffffffff16815260200190815260200160002060008573ffffffffffffffffffffffffffffffffffffffff1673ffffffffffffffffffffffffffffffffffffffff168152602001908152602001600020549050610f7d7fc1cb3a4403e7fb7d25c7977c1b9d6b562b5d4490a6afb2cbe3d4bf6b13a86ca260001b610db4565b610fa97f276b3d970bf6b8f83f2563a9b429975c187e8bca73b96e4e35e83f44d79ef87f60001b610db4565b80831061104557610fdc7f9ee10143f1a57ce9379cd06d83af7f4260b35b7d68688e2571614528b3bf0a9160001b610db4565b6110087f4c189fac295f2d343d8fe6b386541ecd7212a459348bb5e026f841253ee688bf60001b610db4565b6110347fd9f90d4c7c24b7b34ff27df9029e6f5cef30bcafff8b7429ab20759576816c4660001b610db4565b61104033856000611caf565b6110e7565b6110717ff51c22ae637e8f9f1dd7422715ecb2d1c32c86659f8e28f3ce381baba105ffb360001b610db4565b61109d7fdfb3948fd26f2536e1f0ebee33c8374cec9a7353452842dcc19e635455c7421e60001b610db4565b6110c97f14683ac6bc698dfe12cbc9135dfdd3e104e730ce7ecf472553c6c26797bed32960001b610db4565b6110e633856110e186856123e590919063ffffffff16565b611caf565b5b6111137fb78ae2a8b9b381c79c5e2cd9879e837dbe889adabced450427438aeef5d5ccff60001b610db4565b61113f7f03f32f21093b2a8199a310db220ff53f6a540c482b9448ef79e79e613ef3317260001b610db4565b600191505092915050565b60006111787faac41115ae1d356952505586f40766eb3ebf03c42c0cbb0132cda2a3447a273260001b610db4565b6111a47fe30a51ecf846439267419cc37bfa8423dbb262e0b9c8c725cb29feab7f95316a60001b610db4565b6111d07fe8168e88c7789dc9fd9a2320bba851c6f3abda3fa6015b28f28ed3a2ae63756160001b610db4565b6000808373ffffffffffffffffffffffffffffffffffffffff1673ffffffffffffffffffffffffffffffffffffffff168152602001908152602001600020549050919050565b60006112447fce709f4cad1692c2eec712c74409eb1a9a8e4be929c69436a23021ba15e6f85260001b610db4565b6112707ff614fa7db7c2a2a19167f3be1070e88fd9f20d559a2986abe9ec49ed496f6c9860001b610db4565b61129c7f4d99137f0c6e388b0468c0640c9931cfa067557163b83ee1e6370736699482cf60001b610db4565b600560008373ffffffffffffffffffffffffffffffffffffffff1673ffffffffffffffffffffffffffffffffffffffff168152602001908152602001600020549050919050565b60606113117f17b355ef40058aeaf7c26c8927690560a2c4c4216dde24b71a7a9f03aec604b560001b610db4565b61133d7ff815f3842a98c6f9cec0f04aa4934f6dea0f5de2e999217d58185d4eb88d98df60001b610db4565b6113697ffa543718d62142def29bed5b85057d1941cea6f37ff96e276959eecd780b7e9560001b610db4565b60048054600181600116156101000203166002900480601f0160208091040260200160405190810160405280929190818152602001828054600181600116156101000203166002900480156113ff5780601f106113d4576101008083540402835291602001916113ff565b820191906000526020600020905b8154815290600101906020018083116113e257829003601f168201915b5050505050905090565b60006114377fc7d5cde1c91db565920f97654ccc517109b3f3285bdac7cfb18268f263704dbd60001b610db4565b6114637f9487286039ccd1cce5e53f904e199d78750bbd4bbfd7c62c9c1d60ecaf56e50b60001b610db4565b61148f7f1f1ea87194eeb14be5cc6cba45ae9e9337ea06004a9c7af017b41caf703e4b4360001b610db4565b61149a338484611e89565b6114c67fc6ffcb393b983e991aaf4197cfc7014a15c25f6cf5ac9eeab80c7f1a3f11647360001b610db4565b6114f27f49c2eaedb9cca58be5fe2e3d6e47577701e46c37362340dbea73aed6cba3b22a60001b610db4565b6001905092915050565b50565b61152b7f9e6607f156be20e58f9a51f80fa5672f26c76d76f8af4db1fe3973a095ea94e960001b610db4565b6115577fc4824ce5996dc5918169681705c4a696b3534a22d9100fc5f9e282d8a34f158460001b610db4565b6115837f49a8c7b9f73719cf4f0c88621e37eea02abf69414627563f36cd1d4b26c8a52760001b610db4565b6115918442111560d1611e76565b6115bd7f2117cacd3625bf5ef48d271399307c9501a99abf036d7b44555a48475d88f75360001b610db4565b6115e97ffd1800c5ea3000172f950dc7ca86794cb57a8d9e1152dc03e54c440b047af19360001b610db4565b6000600560008973ffffffffffffffffffffffffffffffffffffffff1673ffffffffffffffffffffffffffffffffffffffff1681526020019081526020016000205490506116597fb809fce7c03d50db8ba1876a6f0380405e0b21614d172f3be817d9be546915f960001b610db4565b6116857f9277eef8ca40423550c8c6bb460b8550107822f0b23ee133dcbca26324e0d90560001b610db4565b60007f0000000000000000000000000000000000000000000000000000000000000000898989858a604051602001808781526020018673ffffffffffffffffffffffffffffffffffffffff1681526020018573ffffffffffffffffffffffffffffffffffffffff16815260200184815260200183815260200182815260200196505050505050506040516020818303038152906040528051906020012090506117507f4e4390c189cd9fec2fee917915f9494120c5dc3361bcb5aead6a222bccfd680560001b610db4565b61177c7f07e585d122fbf6cbba88960e9b3d57fd2e7c358ec9af4aa1b57f55970c58d6fd60001b610db4565b60006117878261253a565b90506117b57f02e2870a44c833d8837321eb156a098c29a316bce1a5e9c84409f4d637d190c960001b610db4565b6117e17fa1d9efdfa0d73e58b2e475b03371ad10ebe2495772ffabbb2bd36d0c767bea7560001b610db4565b600060018288888860405160008152602001604052604051808581526020018460ff1681526020018381526020018281526020019450505050506020604051602081039080840390855afa15801561183d573d6000803e3d6000fd5b5050506020604051035190506118757fc20defd178dd15aee2be9d753b81a319562bb6bb663a2727d08d87bb245cdb7b60001b610db4565b6118a17f4d999149c4869297fda2c264f84945c98b57f7a86df38adee937d261730f218060001b610db4565b611914600073ffffffffffffffffffffffffffffffffffffffff168273ffffffffffffffffffffffffffffffffffffffff161415801561190c57508b73ffffffffffffffffffffffffffffffffffffffff168273ffffffffffffffffffffffffffffffffffffffff16145b6101f8611e76565b6119407fc1e08c5b0d718dd589e2de137bab624c5ca598b711afec95b39a18eac5af824c60001b610db4565b61196c7fefcb7d9f6c2a50231d6be8ec6f6eef473a9e99619024f2ea72c80891e7035ba360001b610db4565b60018401600560008d73ffffffffffffffffffffffffffffffffffffffff1673ffffffffffffffffffffffffffffffffffffffff168152602001908152602001600020819055506119df7f613526f5215af821f01f2ef24bdfa4b220464d95752abcb6308aae877a840c8c60001b610db4565b611a0b7f1a993035dbefbc3de9835550d2d1a2623c8d261935be347d3660c424aa84d94c60001b610db4565b611a168b8b8b611caf565b5050505050505050505050565b6000611a517fdfd46a7509d626a3b832453e51ead13b14a60898a4452949dec643c78cdd0ca460001b610db4565b611a7d7fc2917056fa7523817e3b0b1ed74772a82b6e742dde96e1c3ba70b1b5af084ab460001b610db4565b611aa97fb3366275d8155de45f094a54cef582c1d4662f8ad3bdba62e7e1746c561ba49460001b610db4565b611b423384611b3d85600160003373ffffffffffffffffffffffffffffffffffffffff1673ffffffffffffffffffffffffffffffffffffffff16815260200190815260200160002060008973ffffffffffffffffffffffffffffffffffffffff1673ffffffffffffffffffffffffffffffffffffffff1681526020019081526020016000205461262590919063ffffffff16565b611caf565b611b6e7fa9997bd0eaa435bb070e218e7facfa3f41a854bb8854af040e4265e8421f01c360001b610db4565b611b9a7f194dfa8d20c3dbb674102bd468df92b37e9e85ad160a3faeac86d1075aa816dd60001b610db4565b6001905092915050565b6000611bd27f9bef354c91f97e8a27b65509ba2beb201d6cfbbeabc43be3a635677d51e5aad660001b610db4565b611bfe7f4fa18cbcff8d89208ec89c2b27d401de2e7ff4301958af59a4a7f3d86b9ff70460001b610db4565b611c2a7fcc451f69a4dc4b5eec682455c572798781afeac1c0609fd7030999ca362036e960001b610db4565b600160008473ffffffffffffffffffffffffffffffffffffffff1673ffffffffffffffffffffffffffffffffffffffff16815260200190815260200160002060008373ffffffffffffffffffffffffffffffffffffffff1673ffffffffffffffffffffffffffffffffffffffff16815260200190815260200160002054905092915050565b611cdb7fc7a1e0755317c73eed4a843031f2ed5b5c2e17a13b1f73d009691ee190faf90e60001b610db4565b611d077f1538e5626f56b8812047d1f2e6e4384d86dd2df0665f323234f6c0f1e131feeb60001b610db4565b611d337f11d03a43029703f5d84de54be3dfa1ddc74977a193385b16770c4089fe51840860001b610db4565b80600160008573ffffffffffffffffffffffffffffffffffffffff1673ffffffffffffffffffffffffffffffffffffffff16815260200190815260200160002060008473ffffffffffffffffffffffffffffffffffffffff1673ffffffffffffffffffffffffffffffffffffffff16815260200190815260200160002081905550611de07f7aab7e493ff64ebff04f2f5426e9a21c461ac7c528f258e3ba2088c959c1091b60001b610db4565b611e0c7f063c785473b3e4492705c4e64cea46ebaeb98480c45bb9629a4819c1403a759360001b610db4565b8173ffffffffffffffffffffffffffffffffffffffff168373ffffffffffffffffffffffffffffffffffffffff167f8c5be1e5ebec7d5bd14f71427d1e84f3dd0314c0f7b2291e5b200ac8c7c3b925836040518082815260200191505060405180910390a3505050565b81611e8557611e848161277a565b5b5050565b611eb57f5ac6f10a64ca2ed073f8c7d1a41d5b1e3066960cdb80bc14abab5c4106ce044160001b610db4565b611ee17f4e38d37832e7ca16bc928d0c57baa2f427b61e2dcfb104c2c4a45fdb652bd2a260001b610db4565b611f0d7f14c54e7996f1a08ff173d921219c1fbdcdb237bbd1f0d77917125c7830f1aad660001b610db4565b60008060008573ffffffffffffffffffffffffffffffffffffffff1673ffffffffffffffffffffffffffffffffffffffff168152602001908152602001600020549050611f7c7fc65264affe36577d4633f05d06f2414663dc6e43e38650f5962683cea93ec45660001b610db4565b611fa87fdf673a2fdb849596ad5b04b048c5c7b614b5f960b59e2e208dd4323397a3d1b160001b610db4565b611fb782821015610196611e76565b611fe37f8de0f57836be6b79599a8fbc8c81694a349a47c2af26e944e5b142838d4fd02760001b610db4565b61200f7f6e0b8d7cf6d8f4aa1f9d10a2b02659d136797ed269f7ca50154581f09e773c5660001b610db4565b61204b600073ffffffffffffffffffffffffffffffffffffffff168473ffffffffffffffffffffffffffffffffffffffff161415610199611e76565b6120777f7bf65776b449d35969ec6baa7829c287a6f5459ac6395d3336c6a405a85b875560001b610db4565b6120a37f2b8fba28346df9fd635fb5712cc5c9011d81f790844b9e8afdc12cfe82845e6c60001b610db4565b8181036000808673ffffffffffffffffffffffffffffffffffffffff1673ffffffffffffffffffffffffffffffffffffffff168152602001908152602001600020819055506121147f53a017da13e1a7f30ffe7fc44baceb74bf49945c828ded6d5f56aaef8e79b58360001b610db4565b6121407f9f04c2a6477f950e7f3d42ed6ec26ca5de6babe1dd81b3fccd24e73f784547a260001b610db4565b612191826000808673ffffffffffffffffffffffffffffffffffffffff1673ffffffffffffffffffffffffffffffffffffffff1681526020019081526020016000205461262590919063ffffffff16565b6000808573ffffffffffffffffffffffffffffffffffffffff1673ffffffffffffffffffffffffffffffffffffffff168152602001908152602001600020819055506121ff7f270dba37f6288601d065f163c3793db0cde2423da513db1fe7a97c23b105ff0360001b610db4565b61222b7f76d3269e658fa7f71f77875d98619c15bfd26b98707691dca3742308669a244060001b610db4565b8273ffffffffffffffffffffffffffffffffffffffff168473ffffffffffffffffffffffffffffffffffffffff167fddf252ad1be2c89b69c2b068fc378daa952ba7f163c4a11628f55a4df523b3ef846040518082815260200191505060405180910390a350505050565b60006122c47fe10e7b24bd4523c6da60a51ad3b780e67c771b06d0de1c5eca90c0b854c1105660001b6114fc565b6122f07f037bdbcd32c3bbe29dda7fa2ae2c3305233a2ff28d10859a5c60e42a3f915b5460001b6114fc565b61231c7f4d880a132c55852e5896cc56a0afc9a5e7f67fae895e2ca89305a97497bafdf360001b6114fc565b7f00000000000000000000000000000000000000000000000000000000000000007f00000000000000000000000000000000000000000000000000000000000000007f00000000000000000000000000000000000000000000000000000000000000006123876127ea565b30604051602001808681526020018581526020018481526020018381526020018273ffffffffffffffffffffffffffffffffffffffff1681526020019550505050505060405160208183030381529060405280519060200120905090565b60006124137fd3476389c9167915828e1c41fd58b501be617f81bcda7df7905ebaa183b3c4bd60001b612876565b61243f7f763e3966e690f5b421dcd041f04b48a1b193ed59a99cfdb60b67ab3dfbf2eab360001b612876565b61246b7fd040ddffed94a5c3f1ea2412fc14f14911f62630c664bb38108164ba34c6c5bb60001b612876565b612479838311156001611e76565b6124a57fc95d13badf35636a18cef429a1cc30fcff497d0f377233d60d91a54b5222bb6b60001b612876565b6124d17f28183ac30fe9ec9460a9d28cb4e04f1c3d89222564c20b044bc81e450ef8cb9760001b612876565b600082840390506125047f2996cf182068f32853c4842e48ae8391b1959ea375b654bf401398afae3fb9a460001b612876565b6125307ffd16e19fe244cb693efc31c873bf159b238b28cd50bd7fb58b14e97f7b30750760001b612876565b8091505092915050565b60006125687f4162dfeea5487a2e490df35ab6c4995319cb016658ef6478e632b71af599fcb360001b6114fc565b6125947f52a922e27af0a55002a9023a873c43cc837d583fe0362e21bdb684f84be2b0ed60001b6114fc565b6125c07f445bb281dbba1baa57c2b3af376885c1ba274636fe85e7d63faf25499e6f09fb60001b6114fc565b6125c8612296565b8260405160200180807f190100000000000000000000000000000000000000000000000000000000000081525060020183815260200182815260200192505050604051602081830303815290604052805190602001209050919050565b60006126537f980f096ce2354611f661d545348edfcdbcf347f2d4fa9c9e2bc2234b96619b9160001b612876565b61267f7f5203ec7b278d868f845c81d7f208837a954291190f8034ff73f1abf34395aea660001b612876565b6126ab7f257b57fe7b6efcf88210c6d37adeac50f6bdc1270dca168497530cb49198dc7060001b612876565b600082840190506126de7f2712f69a57bae2ee34b696a2281d5fca60f12eef2753ba12e108837883591b0f60001b612876565b61270a7fa9717274421667e304f7b258221f6f83cbc1a3c12db3869b2bd07495ef02a7c060001b612876565b612718848210156000611e76565b6127447fbb23a54f86bc4ea5e593a05f1ed17e1f4ec085fd337eb065fd05171873fa78d860001b612876565b6127707f59b5f75a5714feab22828cb70c6ca1fd02547b7956d33b95658dc4dec174169460001b612876565b8091505092915050565b6030600a820601600a820491506030600a830601600a830492506030600a8406018060101b8260081b8401016642414c230000000160c81b7f08c379a000000000000000000000000000000000000000000000000000000000600052602060045260076024528060445260646000fd5b60006128187fd8e2832ef6720767deec69f44ca3c3cd8b861b255a67dda4205578fb7165a1c060001b6114fc565b6128447f5df0caf98b88b3eb9f27ec4ab7f0297f4988b55185a2490903332262f13a817960001b6114fc565b6128707fb1fe59e6880d8042919f1fb255ef6b982ebb7b8d94358d2dc30eaaa4f095e69860001b6114fc565b46905090565b5056fea264697066735822122087dd348d82c726a7782c6c5cc31fc77fb356fd0f0b8fb06f573930b48cd486c964736f6c63430007010033",
  "linkReferences": {},
  "deployedLinkReferences": {}
}