{
  "_format": "hh-sol-artifact-1",
  "contractName": "BalanceAllocation",
  "sourceName": "contracts/balancer-core-v2/vault/balances/BalanceAllocation.sol",
  "abi": [
    {
      "inputs": [
        {
          "internalType": "bytes32",
          "name": "c__0xb1542931",
          "type": "bytes32"
        }
      ],
      "name": "c_0xb1542931",
      "outputs": [],
      "stateMutability": "pure",
      "type": "function"
    }
  ],
  "bytecode": "0x609c610024600b82828239805160001a607314601757fe5b30600052607381538281f3fe730000000000000000000000000000000000000000301460806040526004361060335760003560e01c8063017403ec146038575b600080fd5b606160048036036020811015604c57600080fd5b81019080803590602001909291905050506063565b005b5056fea26469706673582212204803eb8b0bb10290d1f6e64c3aeeeaf5dc7ef9fad3c418817f2ce22d0563c2d764736f6c63430007010033",
  "linkReferences": {},
  "deployedLinkReferences": {}
}