{
  "_format": "hh-sol-artifact-1",
  "contractName": "BalanceAllocation",
  "sourceName": "contracts/balancer-core-v2/vault/balances/BalanceAllocation.sol",
  "abi": [
    {
      "inputs": [
        {
          "internalType": "bytes32",
          "name": "c__0xd1a8dc53",
          "type": "bytes32"
        }
      ],
      "name": "c_0xd1a8dc53",
      "outputs": [],
      "stateMutability": "pure",
      "type": "function"
    }
  ],
  "bytecode": "0x609c610024600b82828239805160001a607314601757fe5b30600052607381538281f3fe730000000000000000000000000000000000000000301460806040526004361060335760003560e01c80636c8d2586146038575b600080fd5b606160048036036020811015604c57600080fd5b81019080803590602001909291905050506063565b005b5056fea26469706673582212207b9b1436cb37ae11cbb61b589861be03c258133df29f2318ae9be4b2664167f764736f6c63430007010033",
  "linkReferences": {},
  "deployedLinkReferences": {}
}