{
  "_format": "hh-sol-artifact-1",
  "contractName": "ProtocolFeesCollector",
  "sourceName": "contracts/balancer-core-v2/vault/ProtocolFeesCollector.sol",
  "abi": [
    {
      "inputs": [
        {
          "internalType": "contract IVault",
          "name": "_vault",
          "type": "address"
        }
      ],
      "stateMutability": "nonpayable",
      "type": "constructor"
    },
    {
      "anonymous": false,
      "inputs": [
        {
          "indexed": false,
          "internalType": "uint256",
          "name": "newFlashLoanFeePercentage",
          "type": "uint256"
        }
      ],
      "name": "FlashLoanFeePercentageChanged",
      "type": "event"
    },
    {
      "anonymous": false,
      "inputs": [
        {
          "indexed": false,
          "internalType": "uint256",
          "name": "newSwapFeePercentage",
          "type": "uint256"
        }
      ],
      "name": "SwapFeePercentageChanged",
      "type": "event"
    },
    {
      "inputs": [
        {
          "internalType": "bytes32",
          "name": "c__0x07990f2b",
          "type": "bytes32"
        }
      ],
      "name": "c_0x07990f2b",
      "outputs": [],
      "stateMutability": "pure",
      "type": "function"
    },
    {
      "inputs": [
        {
          "internalType": "bytes32",
          "name": "c__0x7d716c34",
          "type": "bytes32"
        }
      ],
      "name": "c_0x7d716c34",
      "outputs": [],
      "stateMutability": "pure",
      "type": "function"
    },
    {
      "inputs": [
        {
          "internalType": "bytes32",
          "name": "c__0xcddb63f5",
          "type": "bytes32"
        }
      ],
      "name": "c_0xcddb63f5",
      "outputs": [],
      "stateMutability": "pure",
      "type": "function"
    },
    {
      "inputs": [
        {
          "internalType": "bytes4",
          "name": "selector",
          "type": "bytes4"
        }
      ],
      "name": "getActionId",
      "outputs": [
        {
          "internalType": "bytes32",
          "name": "",
          "type": "bytes32"
        }
      ],
      "stateMutability": "view",
      "type": "function"
    },
    {
      "inputs": [],
      "name": "getAuthorizer",
      "outputs": [
        {
          "internalType": "contract IAuthorizer",
          "name": "",
          "type": "address"
        }
      ],
      "stateMutability": "view",
      "type": "function"
    },
    {
      "inputs": [
        {
          "internalType": "contract IERC20[]",
          "name": "tokens",
          "type": "address[]"
        }
      ],
      "name": "getCollectedFeeAmounts",
      "outputs": [
        {
          "internalType": "uint256[]",
          "name": "feeAmounts",
          "type": "uint256[]"
        }
      ],
      "stateMutability": "view",
      "type": "function"
    },
    {
      "inputs": [],
      "name": "getFlashLoanFeePercentage",
      "outputs": [
        {
          "internalType": "uint256",
          "name": "",
          "type": "uint256"
        }
      ],
      "stateMutability": "view",
      "type": "function"
    },
    {
      "inputs": [],
      "name": "getSwapFeePercentage",
      "outputs": [
        {
          "internalType": "uint256",
          "name": "",
          "type": "uint256"
        }
      ],
      "stateMutability": "view",
      "type": "function"
    },
    {
      "inputs": [
        {
          "internalType": "uint256",
          "name": "newFlashLoanFeePercentage",
          "type": "uint256"
        }
      ],
      "name": "setFlashLoanFeePercentage",
      "outputs": [],
      "stateMutability": "nonpayable",
      "type": "function"
    },
    {
      "inputs": [
        {
          "internalType": "uint256",
          "name": "newSwapFeePercentage",
          "type": "uint256"
        }
      ],
      "name": "setSwapFeePercentage",
      "outputs": [],
      "stateMutability": "nonpayable",
      "type": "function"
    },
    {
      "inputs": [],
      "name": "vault",
      "outputs": [
        {
          "internalType": "contract IVault",
          "name": "",
          "type": "address"
        }
      ],
      "stateMutability": "view",
      "type": "function"
    },
    {
      "inputs": [
        {
          "internalType": "contract IERC20[]",
          "name": "tokens",
          "type": "address[]"
        },
        {
          "internalType": "uint256[]",
          "name": "amounts",
          "type": "uint256[]"
        },
        {
          "internalType": "address",
          "name": "recipient",
          "type": "address"
        }
      ],
      "name": "withdrawCollectedFees",
      "outputs": [],
      "stateMutability": "nonpayable",
      "type": "function"
    }
  ],
  "bytecode": "0x60c06040523480156200001157600080fd5b506040516200252838038062002528833981810160405281019062000037919062000294565b3073ffffffffffffffffffffffffffffffffffffffff1660001b620000857fe656fc50f09b7684c34752b3ece2e281b6d08a9750095c0301d6e2383c5e37b660001b6200027460201b60201c565b620000b97f4f7e861a1146d74c96da3edec5d0590759a1296b05766cad342bb6959c4c151460001b6200027460201b60201c565b620000ed7f52b72727ae090b164bf2148fae50414fc0fb516dbc3119582343db3c7d50af7c60001b6200027460201b60201c565b8060808181525050506200012a7fff2843873958b0423c2870a5f7407d8838736c83a05df05ee75e9a90e1dd007160001b6200027760201b60201c565b6200015e7fef80299e9103703b3e8d99a44ee6022077e3117593f4e26770fa503e5f64a07060001b6200027760201b60201c565b620001927fdb996e6b8d2c077dc5dfa6acab236f31d64ae8d37bcfc64e5e87915b7a6d603b60001b6200027760201b60201c565b6001600081905550620001ce7f29ef537090a26afeb85ed1e9ceeeae5d4ebee75f44bc625a33a15e3309bcd37c60001b6200027a60201b60201c565b620002027f3555a67e074952bff2778b5931697896133c9c557f4d7b1a2cf9a2fe1cfb93f860001b6200027a60201b60201c565b620002367fb8df234901e545f9e359dcaf2257df8f0ece4be9c708cf5aeacce5dbc316af7260001b6200027a60201b60201c565b8073ffffffffffffffffffffffffffffffffffffffff1660a08173ffffffffffffffffffffffffffffffffffffffff1660601b815250505062000322565b50565b50565b50565b6000815190506200028e8162000308565b92915050565b600060208284031215620002a757600080fd5b6000620002b7848285016200027d565b91505092915050565b6000620002cd82620002e8565b9050919050565b6000620002e182620002c0565b9050919050565b600073ffffffffffffffffffffffffffffffffffffffff82169050919050565b6200031381620002d4565b81146200031f57600080fd5b50565b60805160a05160601c6121da6200034e6000398061100f5280611516525080610c4a52506121da6000f3fe608060405234801561001057600080fd5b50600436106100d45760003560e01c8063851c1bb311610081578063d877845c1161005b578063d877845c146101ed578063e42abf351461020b578063fbfa77cf1461023b576100d4565b8063851c1bb314610183578063aaabadc5146101b3578063d00cd3ad146101d1576100d4565b806355c67628116100b257806355c676281461012d5780636b6b9f691461014b5780636daefab614610167576100d4565b80630ddc08a5146100d957806338e9922e146100f55780634952d44f14610111575b600080fd5b6100f360048036038101906100ee9190611bbd565b610259565b005b61010f600480360381019061010a9190611c61565b61025c565b005b61012b60048036038101906101269190611bbd565b6104a0565b005b6101356104a3565b6040516101429190611f13565b60405180910390f35b61016560048036038101906101609190611c61565b610531565b005b610181600480360381019061017c9190611aca565b610774565b005b61019d60048036038101906101989190611be6565b610bc2565b6040516101aa9190611e8b565b60405180910390f35b6101bb610c98565b6040516101c89190611edd565b60405180910390f35b6101eb60048036038101906101e69190611bbd565b610d2b565b005b6101f5610d2e565b6040516102029190611f13565b60405180910390f35b61022560048036038101906102209190611b53565b610dbc565b6040516102329190611e69565b60405180910390f35b61024361100d565b6040516102509190611ef8565b60405180910390f35b50565b6102887fdfcff9db5c0001a4a8ff88d7564521e5ae182f75503405aee3622d19b0e3655260001b610259565b6102b47f5a55fe4186df4e8e414a6f2504b3774e5852558ddbf409e09d2dd9273fbda36060001b610259565b6102e07f9a5d745b65ebafdc2adb226e0021e0ff4d4dfc023c8a49423a469e21ec523a7c60001b610259565b6102e8611031565b6103147fdf78023cab09ae4709c13c466fe04a359efc7b4a528806c19241a2b24347eed660001b610259565b6103407fd16d21e44828e8ec60b36982722cf8bb14587205d474073b18c019d938e56e3060001b6104a0565b61036c7f9555f8295eef5068bd4049dae1b1c52b106bf5eba842d5c4c409c4b9ae02019660001b6104a0565b6103987f655adaeeada8d0f171ee144549ae005c6e2491f8abbf251b2e376a08158dafcc60001b6104a0565b6103af6706f05b59d3b20000821115610258611156565b6103db7f5530be66e10163b2afe68a2d949f98ab06b64d420a1e2a3d6e5c6e216a0cf47d60001b6104a0565b6104077fa57539ba194869d57a3d123ca745122874b6fdfa9884739e6fd09efdf89f104260001b6104a0565b8060018190555061043a7fb917e4c17c8379bfeab1ba4496e9554704a2fcbca3805e0ebe3f9635b94fdb8d60001b6104a0565b6104667f6b7d8cbdc0e01abde5118f4b96e505b74f0c6b116742221755c545bf5276a61460001b6104a0565b7fa9ba3ffe0b6c366b81232caab38605a0699ad5398d6cce76f91ee809e322dafc816040516104959190611f13565b60405180910390a150565b50565b60006104d17f5afd53a5dcb62dc16f369bdc9429e46d29f1346acdb490b1e78792d493143b8f60001b6104a0565b6104fd7f94b8b93e1994bd6160f47fe48db4dfadd1db1ed1e7c5eadaab0dc747bbd56a7a60001b6104a0565b6105297f9b25886399176c27e44453b526ce75c731e77b415fcfa9f756c4825c69f58a6460001b6104a0565b600154905090565b61055d7fdfcff9db5c0001a4a8ff88d7564521e5ae182f75503405aee3622d19b0e3655260001b610259565b6105897f5a55fe4186df4e8e414a6f2504b3774e5852558ddbf409e09d2dd9273fbda36060001b610259565b6105b57f9a5d745b65ebafdc2adb226e0021e0ff4d4dfc023c8a49423a469e21ec523a7c60001b610259565b6105bd611031565b6105e97fdf78023cab09ae4709c13c466fe04a359efc7b4a528806c19241a2b24347eed660001b610259565b6106157f817d8b6b6cc81b72df7e8694e632353494f3dd1eeb5ef9759b1fee0617e90bc360001b6104a0565b6106417f7c9af4fc3e7fa7961bd0795797f37807fd5cc006dff7c29f81dd69f50fc6b8c260001b6104a0565b61066d7f1393c0ac0383b564a2b27231a3d85cff3e3670ec888a1cf9986fdc228c22761360001b6104a0565b610683662386f26fc10000821115610259611156565b6106af7fd3ece052e2a3497556198a3f35984c915256f1fe208f8c926a7570e216b784c160001b6104a0565b6106db7fdd593426cdaaffeb396064347dfb07e1ac1ece7566e40bd550d4864962666c1160001b6104a0565b8060028190555061070e7f99cde8f5a78f9750dfe0f3c0c4a793524e101b14ab39e918ef3d8d8aa7a5993660001b6104a0565b61073a7f648b1f43f39cc3d0354179305709d4712358d34eabfe84aae0651756353f39f260001b6104a0565b7f5a0b7386237e7f07fa741efc64e59c9387d2cccafec760efed4d53387f20e19a816040516107699190611f13565b60405180910390a150565b6107a07f3b26cd2585fecfc21b1fe892f32e29375b0d7350ba966083e2f96f51ef43a92960001b610d2b565b6107cc7f2197a5030ffc348553ffc47ccb57f9700b3053735d0a146d16497ad6fa509d5b60001b610d2b565b6107f87f382505951e9c5561f3f4877cc9803e5c3a86e88e32b803bccc41c22f60b698b260001b610d2b565b610800611169565b61082c7ff8ce392461b76b298757224f3caaffb179af93c72c0dabff1d4ebf8cda37741260001b610d2b565b6108587fdfcff9db5c0001a4a8ff88d7564521e5ae182f75503405aee3622d19b0e3655260001b610259565b6108847f5a55fe4186df4e8e414a6f2504b3774e5852558ddbf409e09d2dd9273fbda36060001b610259565b6108b07f9a5d745b65ebafdc2adb226e0021e0ff4d4dfc023c8a49423a469e21ec523a7c60001b610259565b6108b8611031565b6108e47fdf78023cab09ae4709c13c466fe04a359efc7b4a528806c19241a2b24347eed660001b610259565b6109107f7838f5cd9c4e22163ddd7444f97186164d86abb1bc3e2bbad77c6dbe95ca0a1060001b6104a0565b61093c7f368d6cce5b3a166d368cdbf4c7f5a9ae3f4fe13ec4386332991def18934103d260001b6104a0565b6109687f45ec3c8a54e27fbc87f58fe33d3e428fa57de7846f948c2aca1b11750ab38fd260001b6104a0565b6109788585905084849050611261565b6109a47fbb10d051cd34b162ab9d3db40ef13d71a27b0438f91191fbfa3570fcc6283dd160001b6104a0565b6109d07fe9ff503eccf9af749bf38585c658620d445f0dff31249e2cd5ffadb57b4f513760001b6104a0565b60005b85859050811015610b5a57610a0a7f855473760f87b46c95ef7dd65baf5cf4cb4a0c9b7c08dd2553abfce73c21897260001b6104a0565b610a367f5045455031cb9c0fcbb30c8b0e060276c9a5232b1b6c429165356179685e8ac860001b6104a0565b6000868683818110610a4457fe5b9050602002016020810190610a599190611c38565b9050610a877fe8eaebca39f056fd39429ed900e978c75989655069a317e91fc7e9d7fbe9537960001b6104a0565b610ab37fce662638fcf6d5960465bdcaa6ab413f7a7e6c38189b6083ead288294d336c9e60001b6104a0565b6000858584818110610ac157fe5b905060200201359050610af67f8bcc18512b7c0ff372a614ce37c463ae20a5caa90c2fda5c1658568f1de9b7e460001b6104a0565b610b227f4d976c210b8de436131582e35df33e94b8f473772dce5e381c98a87b85f26d9c60001b6104a0565b610b4d84828473ffffffffffffffffffffffffffffffffffffffff166112f69092919063ffffffff16565b50508060010190506109d3565b50610b877f0caf7107376224202848440e797a23bd53602dc240e67421095a2aa32637216160001b610d2b565b610bb37f034cb29cce6b6361d9c228c8807e63d7d7dd24beb68aaf203424cd5a698f286360001b610d2b565b610bbb611400565b5050505050565b6000610bf07f5b6d744b9984ca0f940181ee5e7f3f9141a56799465d611578a724e75da3f27360001b610259565b610c1c7fccd34a442ea9189944d6242d7d944d51762e07badd0e467c1d9ef323954e783260001b610259565b610c487f9b5e1c3ba3409b07d3693e410c8f9054dc20b55c829e32dae29721db02bf3ba160001b610259565b7f000000000000000000000000000000000000000000000000000000000000000082604051602001610c7b929190611de2565b604051602081830303815290604052805190602001209050919050565b6000610cc67f8122231f791aa700f99a9705e3c43793e857422ebf85b0d307c3cb1269d3b52060001b6104a0565b610cf27fa4834be2478a9b9a8868bf0d597bc8c339d67639801bb7637ec6f00cfd13a2e860001b6104a0565b610d1e7f9435d2283877b5528ec6281df827f9d2f0ccc32ddc31e28e07986e2d7cd5a7dd60001b6104a0565b610d2661148e565b905090565b50565b6000610d5c7fd6b35562b8a2931a69bd493c51a4c332a521554a4c7743dffc142e2b0f710dba60001b6104a0565b610d887f51d121cb362dbd40a41f0ceb054b60733b75c3edd0dc98e192c4216f7fcf45a260001b6104a0565b610db47f3fa0c388f79b0bb464fdc3ee7e06746bcd1403a6190c5be1fbd72336d3306bda60001b6104a0565b600254905090565b6060610dea7f737dd298b132447fccfd68c280c0ad75be157072c38b8944f8be27cc47fe5a1460001b6104a0565b610e167f604e38bbc748323ef0a91f7dc3b4d23eb56dbf1d94b15a051de2bfd12f73094360001b6104a0565b610e427fde8d15fcdada422bd30b6d6d6c9d06976ffb6cb26050c3be419c73ea9a22f84960001b6104a0565b815167ffffffffffffffff81118015610e5a57600080fd5b50604051908082528060200260200182016040528015610e895781602001602082028036833780820191505090505b509050610eb87f0c69ebe36e711849d86dc2dfc8c9e55c27318efa36b77a7f57527ae10ad2fdd660001b6104a0565b610ee47fc0d49830fb8f634b68573bea30757040f4a45ea06e2ee3a5ebd6734fdb60d09360001b6104a0565b60005b825181101561100757610f1c7fab17110dae2247d65b6f37f980b1a9b4ff816f14681450f8807a059feeb860c860001b6104a0565b610f487f213a141627e36eb3d9c2463f94b37fbae85fe12f6393cd2de19b115b33c64fbd60001b6104a0565b828181518110610f5457fe5b602002602001015173ffffffffffffffffffffffffffffffffffffffff166370a08231306040518263ffffffff1660e01b8152600401610f949190611e25565b60206040518083038186803b158015610fac57600080fd5b505afa158015610fc0573d6000803e3d6000fd5b505050506040513d601f19601f82011682018060405250810190610fe49190611c8a565b828281518110610ff057fe5b602002602001018181525050806001019050610ee7565b50919050565b7f000000000000000000000000000000000000000000000000000000000000000081565b61105d7f037c1c31a242abc9fe85f7897d7e3db2fbb4a96d88800fd61753b3feeab291a760001b610259565b6110897f9b69ded238e1f105af3c724db26f035e19242e09a189005c88d1afb44e2dcdf860001b610259565b6110b57fb34966d8df6692c5bb03465c646169e626a9b8831246d3a50e8307b39c31ec6760001b610259565b60006110e46000357fffffffff0000000000000000000000000000000000000000000000000000000016610bc2565b90506111127f3851df8b489ea432cbe9ff42b63c2ca5f69a63da3d74f1fe1778c5c8160ce22b60001b610259565b61113e7fd4c39b3623449b73860af568247fe45de94492dc66e5806084c17143e9fc8a8f60001b610259565b61115361114b82336115b7565b610191611156565b50565b8161116557611164816116d9565b5b5050565b6111957f408dac390e4f0ae6d351596842e389faecd137e98747a21c9bd2535e34efe1ef60001b610d2b565b6111c17f91fef535066a9a302b7aba661bbc08510efd3f86094d4d27eaab04e8c0ea329060001b610d2b565b6111ed7f7e4ef47161338c49f74fe8365727d3827a018aad2ffdc369234f459288d9b40560001b610d2b565b6111ff60026000541415610190611156565b61122b7fc485c3854a3735fd70dfbf21afb411b100bc7c079db4aa6fd8f540b8b25f934060001b610d2b565b6112577fc1dcb2358e8d960fc7fb24122ff840705dbc6c335c720c4de509a43cd35abd2860001b610d2b565b6002600081905550565b61128d7f6f02687e057522eb19b597e3b091ff65201fe492dbd6f67980e016d6aa08d53260001b611749565b6112b97fe51ab352fa79dd949e57050cd47d3f0410afdfe7c28a6ef735cccfeeb18f582360001b611749565b6112e57ffce750c89171756118e85bed28eb1432c569ae13e7db5e43107d00a4ed5889a360001b611749565b6112f28183146067611156565b5050565b6113227f0c30be65a9683c16aceecbfcfba8c2d92dcc7c80b0f36b76b81f7f2ce7bdd34d60001b61174c565b61134e7f77dcfa1de2e819f5686b2e9ea49a0d1fa6a1a52f0e5c05958f40c020b5e28fe560001b61174c565b61137a7f424b37de078654578e920afec2d135ac126ac9e4d8c5d991f6574ad131991e2660001b61174c565b6113fb8363a9059cbb60e01b8484604051602401611399929190611e40565b604051602081830303815290604052907bffffffffffffffffffffffffffffffffffffffffffffffffffffffff19166020820180517bffffffffffffffffffffffffffffffffffffffffffffffffffffffff838183161783525050505061174f565b505050565b61142c7f149cabfe70db67f6ce2fd3e64b4b5babbd98815b7461b7e97cec9760ebcee15060001b610d2b565b6114587f7ee27aa21eee45360a064722bb38337cef8cc040b9fbfae86c19b76a3f932b9560001b610d2b565b6114847fed942fdc363d1e16eaef2a7bfff65e652a7e0146f3288c44d086aa97babad4e860001b610d2b565b6001600081905550565b60006114bc7ffc912a4b2d252c5a0ff005e064737809740a2edfcaa2a9394992e689dfea2de660001b6104a0565b6114e87fdba89070cbeeb2d91a6e19daf11b306fd29cbc9a1d8e2a955da0dcb14f91ed8e60001b6104a0565b6115147fd83acf68a283afc22d1ab85301b6dbad505e6f4b9d4d89e0c6af04489291217d60001b6104a0565b7f000000000000000000000000000000000000000000000000000000000000000073ffffffffffffffffffffffffffffffffffffffff1663aaabadc56040518163ffffffff1660e01b815260040160206040518083038186803b15801561157a57600080fd5b505afa15801561158e573d6000803e3d6000fd5b505050506040513d601f19601f820116820180604052508101906115b29190611c0f565b905090565b60006115e57feb9c614bd0a74b638ef5c1de6de9daf0d1bf660df6a7b663f1797fd9c0edda1160001b6104a0565b6116117f125cfe3467448d3a3c3d38407d554e2d4fc13e5b451a72fc960c4759cbe4509e60001b6104a0565b61163d7f745a0903966babc91076a254c7eeb2b7ea8f4d1a64d1c1dee6d6a355ba99c1d560001b6104a0565b61164561148e565b73ffffffffffffffffffffffffffffffffffffffff16639be2a8848484306040518463ffffffff1660e01b815260040161168193929190611ea6565b60206040518083038186803b15801561169957600080fd5b505afa1580156116ad573d6000803e3d6000fd5b505050506040513d601f19601f820116820180604052508101906116d19190611b94565b905092915050565b6030600a820601600a820491506030600a830601600a830492506030600a8406018060101b8260081b8401016642414c230000000160c81b7f08c379a000000000000000000000000000000000000000000000000000000000600052602060045260076024528060445260646000fd5b50565b50565b61177b7fc73e8649ad0ef875b1e018771227cf894f706428d24fb306d332cb64b663bde260001b61174c565b6117a77f5995e4ac6861bea4ec3dd78d65f64f09caaffdeba4cd04c1ef9414b2e767a94e60001b61174c565b6117d37ff0e8e33d2a56f579900eef6285e73397023cebacf08b2a9d5a8286d82842475d60001b61174c565b600060608373ffffffffffffffffffffffffffffffffffffffff16836040516117fc9190611e0e565b6000604051808303816000865af19150503d8060008114611839576040519150601f19603f3d011682016040523d82523d6000602084013e61183e565b606091505b509150915061186f7f6ad5e3f8c1e3e5c81d3da55aafebdde96316b7f9c2c2230c7facd9f79eef3ce860001b61174c565b6000821415611882573d6000803e3d6000fd5b6118ae7fb958f400fa826471aff355a8cca63ec547811ec79f0dde05c0a50c93dbf8ef4660001b61174c565b6118da7f51db9918a38ecf7bbe13ee24e10adb6d30a55e9b1fa4b7b2b4e286335a3634ed60001b61174c565b6119056000825114806118fd5750818060200190518101906118fc9190611b94565b5b6101a2611156565b50505050565b60008135905061191a81612103565b92915050565b60008083601f84011261193257600080fd5b8235905067ffffffffffffffff81111561194b57600080fd5b60208301915083602082028301111561196357600080fd5b9250929050565b600082601f83011261197b57600080fd5b813561198e61198982611f5b565b611f2e565b915081818352602084019350602081019050838560208402820111156119b357600080fd5b60005b838110156119e357816119c98882611a8b565b8452602084019350602083019250506001810190506119b6565b5050505092915050565b60008083601f8401126119ff57600080fd5b8235905067ffffffffffffffff811115611a1857600080fd5b602083019150836020820283011115611a3057600080fd5b9250929050565b600081519050611a468161211a565b92915050565b600081359050611a5b81612131565b92915050565b600081359050611a7081612148565b92915050565b600081519050611a858161215f565b92915050565b600081359050611a9a81612176565b92915050565b600081359050611aaf8161218d565b92915050565b600081519050611ac48161218d565b92915050565b600080600080600060608688031215611ae257600080fd5b600086013567ffffffffffffffff811115611afc57600080fd5b611b0888828901611920565b9550955050602086013567ffffffffffffffff811115611b2757600080fd5b611b33888289016119ed565b93509350506040611b468882890161190b565b9150509295509295909350565b600060208284031215611b6557600080fd5b600082013567ffffffffffffffff811115611b7f57600080fd5b611b8b8482850161196a565b91505092915050565b600060208284031215611ba657600080fd5b6000611bb484828501611a37565b91505092915050565b600060208284031215611bcf57600080fd5b6000611bdd84828501611a4c565b91505092915050565b600060208284031215611bf857600080fd5b6000611c0684828501611a61565b91505092915050565b600060208284031215611c2157600080fd5b6000611c2f84828501611a76565b91505092915050565b600060208284031215611c4a57600080fd5b6000611c5884828501611a8b565b91505092915050565b600060208284031215611c7357600080fd5b6000611c8184828501611aa0565b91505092915050565b600060208284031215611c9c57600080fd5b6000611caa84828501611ab5565b91505092915050565b6000611cbf8383611dc4565b60208301905092915050565b611cd481611fd2565b82525050565b6000611ce582611f93565b611cef8185611fb6565b9350611cfa83611f83565b8060005b83811015611d2b578151611d128882611cb3565b9750611d1d83611fa9565b925050600181019050611cfe565b5085935050505092915050565b611d4181611ff0565b82525050565b611d58611d5382611ff0565b6120ef565b82525050565b611d6f611d6a82611ffa565b6120f9565b82525050565b6000611d8082611f9e565b611d8a8185611fc7565b9350611d9a8185602086016120bc565b80840191505092915050565b611daf81612074565b82525050565b611dbe81612098565b82525050565b611dcd8161206a565b82525050565b611ddc8161206a565b82525050565b6000611dee8285611d47565b602082019150611dfe8284611d5e565b6004820191508190509392505050565b6000611e1a8284611d75565b915081905092915050565b6000602082019050611e3a6000830184611ccb565b92915050565b6000604082019050611e556000830185611ccb565b611e626020830184611dd3565b9392505050565b60006020820190508181036000830152611e838184611cda565b905092915050565b6000602082019050611ea06000830184611d38565b92915050565b6000606082019050611ebb6000830186611d38565b611ec86020830185611ccb565b611ed56040830184611ccb565b949350505050565b6000602082019050611ef26000830184611da6565b92915050565b6000602082019050611f0d6000830184611db5565b92915050565b6000602082019050611f286000830184611dd3565b92915050565b6000604051905081810181811067ffffffffffffffff82111715611f5157600080fd5b8060405250919050565b600067ffffffffffffffff821115611f7257600080fd5b602082029050602081019050919050565b6000819050602082019050919050565b600081519050919050565b600081519050919050565b6000602082019050919050565b600082825260208201905092915050565b600081905092915050565b6000611fdd8261204a565b9050919050565b60008115159050919050565b6000819050919050565b60007fffffffff0000000000000000000000000000000000000000000000000000000082169050919050565b600061203182611fd2565b9050919050565b600061204382611fd2565b9050919050565b600073ffffffffffffffffffffffffffffffffffffffff82169050919050565b6000819050919050565b600061207f82612086565b9050919050565b60006120918261204a565b9050919050565b60006120a3826120aa565b9050919050565b60006120b58261204a565b9050919050565b60005b838110156120da5780820151818401526020810190506120bf565b838111156120e9576000848401525b50505050565b6000819050919050565b6000819050919050565b61210c81611fd2565b811461211757600080fd5b50565b61212381611fe4565b811461212e57600080fd5b50565b61213a81611ff0565b811461214557600080fd5b50565b61215181611ffa565b811461215c57600080fd5b50565b61216881612026565b811461217357600080fd5b50565b61217f81612038565b811461218a57600080fd5b50565b6121968161206a565b81146121a157600080fd5b5056fea2646970667358221220fc58b4c94c815e1bcbb829ade0cb20fb915349f827b77c3428e47ccaef62b22564736f6c63430007010033",
  "linkReferences": {},
  "deployedLinkReferences": {}
}