{
  "_format": "hh-sol-artifact-1",
  "contractName": "ProtocolFeesCollector",
  "sourceName": "contracts/balancer-core-v2/vault/ProtocolFeesCollector.sol",
  "abi": [
    {
      "inputs": [
        {
          "internalType": "contract IVault",
          "name": "_vault",
          "type": "address"
        }
      ],
      "stateMutability": "nonpayable",
      "type": "constructor"
    },
    {
      "anonymous": false,
      "inputs": [
        {
          "indexed": false,
          "internalType": "uint256",
          "name": "newFlashLoanFeePercentage",
          "type": "uint256"
        }
      ],
      "name": "FlashLoanFeePercentageChanged",
      "type": "event"
    },
    {
      "anonymous": false,
      "inputs": [
        {
          "indexed": false,
          "internalType": "uint256",
          "name": "newSwapFeePercentage",
          "type": "uint256"
        }
      ],
      "name": "SwapFeePercentageChanged",
      "type": "event"
    },
    {
      "inputs": [
        {
          "internalType": "bytes32",
          "name": "c__0x4c26eefc",
          "type": "bytes32"
        }
      ],
      "name": "c_0x4c26eefc",
      "outputs": [],
      "stateMutability": "pure",
      "type": "function"
    },
    {
      "inputs": [
        {
          "internalType": "bytes32",
          "name": "c__0x76fc4428",
          "type": "bytes32"
        }
      ],
      "name": "c_0x76fc4428",
      "outputs": [],
      "stateMutability": "pure",
      "type": "function"
    },
    {
      "inputs": [
        {
          "internalType": "bytes32",
          "name": "c__0xeb4599f9",
          "type": "bytes32"
        }
      ],
      "name": "c_0xeb4599f9",
      "outputs": [],
      "stateMutability": "pure",
      "type": "function"
    },
    {
      "inputs": [
        {
          "internalType": "bytes4",
          "name": "selector",
          "type": "bytes4"
        }
      ],
      "name": "getActionId",
      "outputs": [
        {
          "internalType": "bytes32",
          "name": "",
          "type": "bytes32"
        }
      ],
      "stateMutability": "view",
      "type": "function"
    },
    {
      "inputs": [],
      "name": "getAuthorizer",
      "outputs": [
        {
          "internalType": "contract IAuthorizer",
          "name": "",
          "type": "address"
        }
      ],
      "stateMutability": "view",
      "type": "function"
    },
    {
      "inputs": [
        {
          "internalType": "contract IERC20[]",
          "name": "tokens",
          "type": "address[]"
        }
      ],
      "name": "getCollectedFeeAmounts",
      "outputs": [
        {
          "internalType": "uint256[]",
          "name": "feeAmounts",
          "type": "uint256[]"
        }
      ],
      "stateMutability": "view",
      "type": "function"
    },
    {
      "inputs": [],
      "name": "getFlashLoanFeePercentage",
      "outputs": [
        {
          "internalType": "uint256",
          "name": "",
          "type": "uint256"
        }
      ],
      "stateMutability": "view",
      "type": "function"
    },
    {
      "inputs": [],
      "name": "getSwapFeePercentage",
      "outputs": [
        {
          "internalType": "uint256",
          "name": "",
          "type": "uint256"
        }
      ],
      "stateMutability": "view",
      "type": "function"
    },
    {
      "inputs": [
        {
          "internalType": "uint256",
          "name": "newFlashLoanFeePercentage",
          "type": "uint256"
        }
      ],
      "name": "setFlashLoanFeePercentage",
      "outputs": [],
      "stateMutability": "nonpayable",
      "type": "function"
    },
    {
      "inputs": [
        {
          "internalType": "uint256",
          "name": "newSwapFeePercentage",
          "type": "uint256"
        }
      ],
      "name": "setSwapFeePercentage",
      "outputs": [],
      "stateMutability": "nonpayable",
      "type": "function"
    },
    {
      "inputs": [],
      "name": "vault",
      "outputs": [
        {
          "internalType": "contract IVault",
          "name": "",
          "type": "address"
        }
      ],
      "stateMutability": "view",
      "type": "function"
    },
    {
      "inputs": [
        {
          "internalType": "contract IERC20[]",
          "name": "tokens",
          "type": "address[]"
        },
        {
          "internalType": "uint256[]",
          "name": "amounts",
          "type": "uint256[]"
        },
        {
          "internalType": "address",
          "name": "recipient",
          "type": "address"
        }
      ],
      "name": "withdrawCollectedFees",
      "outputs": [],
      "stateMutability": "nonpayable",
      "type": "function"
    }
  ],
  "bytecode": "0x60c06040523480156200001157600080fd5b506040516200252838038062002528833981810160405281019062000037919062000294565b3073ffffffffffffffffffffffffffffffffffffffff1660001b620000857f8ec5ed39e0277cf6b5ac7bfbea69561e0ab13d0f90291fda9f21b6ff5febaf0960001b6200027460201b60201c565b620000b97fb3047d90d74037e2adb2df89b6f86a7b7c8bf74ab7f36f7e5570b17d25c7743060001b6200027460201b60201c565b620000ed7fcde082662b671d959326c5490179744ff7f489da54d7e3b0e588ca9e6054959260001b6200027460201b60201c565b8060808181525050506200012a7fe9ec9f3628aaa58309698b36d4920ca033915a6732961f4acdb4056f16a1205a60001b6200027760201b60201c565b6200015e7fd3e66d41bd17558a0cea80cb6af72881d9a4f8b3d3fa92f57d1ef900a04e49cf60001b6200027760201b60201c565b620001927f4345feddde47777f0ddd4af1fab952dcb95ed9b159ce4dfcd15c18dc2984c4a660001b6200027760201b60201c565b6001600081905550620001ce7fdb5a857082afe117a9287abd41be1044962e429810eeabd4a622aa7be0d98c1860001b6200027a60201b60201c565b620002027f1675ffa7bdfab0eeb42c20f1502805127d4faa4e98e8494433164d838a2d1bc760001b6200027a60201b60201c565b620002367fe9399e257b1306c6c368b27623696f4aaf67399e841e08270d7cd0bdc9e47a1760001b6200027a60201b60201c565b8073ffffffffffffffffffffffffffffffffffffffff1660a08173ffffffffffffffffffffffffffffffffffffffff1660601b815250505062000322565b50565b50565b50565b6000815190506200028e8162000308565b92915050565b600060208284031215620002a757600080fd5b6000620002b7848285016200027d565b91505092915050565b6000620002cd82620002e8565b9050919050565b6000620002e182620002c0565b9050919050565b600073ffffffffffffffffffffffffffffffffffffffff82169050919050565b6200031381620002d4565b81146200031f57600080fd5b50565b60805160a05160601c6121da6200034e6000398061100f5280611516525080610c4a52506121da6000f3fe608060405234801561001057600080fd5b50600436106100d45760003560e01c8063851c1bb311610081578063d877845c1161005b578063d877845c146101ed578063e42abf351461020b578063fbfa77cf1461023b576100d4565b8063851c1bb31461018357806391f04a44146101b3578063aaabadc5146101cf576100d4565b806355c67628116100b257806355c676281461012d5780636b6b9f691461014b5780636daefab614610167576100d4565b806338e9922e146100d9578063398526a1146100f557806343a9299e14610111575b600080fd5b6100f360048036038101906100ee9190611c61565b610259565b005b61010f600480360381019061010a9190611bbd565b61049d565b005b61012b60048036038101906101269190611bbd565b6104a0565b005b6101356104a3565b6040516101429190611f13565b60405180910390f35b61016560048036038101906101609190611c61565b610531565b005b610181600480360381019061017c9190611aca565b610774565b005b61019d60048036038101906101989190611be6565b610bc2565b6040516101aa9190611e8b565b60405180910390f35b6101cd60048036038101906101c89190611bbd565b610c98565b005b6101d7610c9b565b6040516101e49190611edd565b60405180910390f35b6101f5610d2e565b6040516102029190611f13565b60405180910390f35b61022560048036038101906102209190611b53565b610dbc565b6040516102329190611e69565b60405180910390f35b61024361100d565b6040516102509190611ef8565b60405180910390f35b6102857f21ea7fcf5f9d7c31f9aaf25a69a33e54c5f3c5f66baae008885ccc3276598f7e60001b6104a0565b6102b17f6a39159fbf6a6f219cb1a9d2ba1e006bf81de453f8c25b24ef0ad37212bed98b60001b6104a0565b6102dd7fda72f8aff7fe2e941c3d65dafeff55469fc4e10b2cfd040c51bbee89e5b0231a60001b6104a0565b6102e5611031565b6103117f9c459e0e3be04934ddeb1b00ad8219c43cf1b0ee5a60c5c5492412fe62e3db4860001b6104a0565b61033d7f9088c290ed1eda4bbfe12eb608ac9a88a9b3b8cf9f67e9c9fa93b95789817c9560001b61049d565b6103697f838220c237a0561dc8062238ae12ab59413e4deb275ea8b70730168a4de435cc60001b61049d565b6103957f1971c327ea7e0c3df861408f3a73818fbf8cd9e5f922c05ec5a96c6b7fbb774f60001b61049d565b6103ac6706f05b59d3b20000821115610258611156565b6103d87f61424e2f1cd4f0657d53cb9a78c4015b4cf06220ff8599a83fcfbc06a3fe78c160001b61049d565b6104047f69bd730e1d8616882f13e317b5c6c16c26d8f289f708ef17b8d2fc522e93bafd60001b61049d565b806001819055506104377f4187cc55a4f24984fae179bc55cd4802fb4d5a46d913d639b7f2f4dd5864578760001b61049d565b6104637fa968c5b0bb03b48012d71c59d84dfd6b5548f9d397ed4383c1b602083e23a09f60001b61049d565b7fa9ba3ffe0b6c366b81232caab38605a0699ad5398d6cce76f91ee809e322dafc816040516104929190611f13565b60405180910390a150565b50565b50565b60006104d17f57b718ba2e8d971de9df3a1eb2964be776a1fd3088857754d657f932ebba986760001b61049d565b6104fd7f49c4c4a716e06ac40705ed95a9f9754dce79e673484d7cbd843e2b02457e2eca60001b61049d565b6105297fddaef5303f4c8429c110fabaddc2ac05d1e163c674fa35149cc93a28d66e5e9760001b61049d565b600154905090565b61055d7f21ea7fcf5f9d7c31f9aaf25a69a33e54c5f3c5f66baae008885ccc3276598f7e60001b6104a0565b6105897f6a39159fbf6a6f219cb1a9d2ba1e006bf81de453f8c25b24ef0ad37212bed98b60001b6104a0565b6105b57fda72f8aff7fe2e941c3d65dafeff55469fc4e10b2cfd040c51bbee89e5b0231a60001b6104a0565b6105bd611031565b6105e97f9c459e0e3be04934ddeb1b00ad8219c43cf1b0ee5a60c5c5492412fe62e3db4860001b6104a0565b6106157f6ad393af7c78c06dbd5adc34aabb444956b70d99ca045ff16b346ee2ffcefc0160001b61049d565b6106417f693dd6b94635b0506a3a0a33cbb7a59cc99005a0dad66aa1057f2734f2dbfa1c60001b61049d565b61066d7f0a6792f9cc0a86b56c772405b67576ef9354b9255bbf3598c68b1686fa2568c660001b61049d565b610683662386f26fc10000821115610259611156565b6106af7fc7337f3f51dd338d0a31475b728cd526646062bb4baa50de870615406db900f960001b61049d565b6106db7f15c9111c68956049fcc3548028f888b6592abd21f5558c80aa4dcf90dc56a02c60001b61049d565b8060028190555061070e7f80d5d58143e1784ca4ca926e13454efd59ff488eb0fedd024a1d67f2ab265d9560001b61049d565b61073a7fed4260067feb1bf64fe6ccff4c7de0772325606df0d059bb450278c18237ea0c60001b61049d565b7f5a0b7386237e7f07fa741efc64e59c9387d2cccafec760efed4d53387f20e19a816040516107699190611f13565b60405180910390a150565b6107a07f644bd4bced3b479c154eeca48d6f4671c259c7e141fb03b50119e2191bedd28160001b610c98565b6107cc7fb2e493fbea61a28dc3a0bcbde10aee52d356393a6fc964252f51485fbcec722260001b610c98565b6107f87f609c802ad669539b39339b179e46d5684b53e48970b12ea9058dcacd32d5f2dc60001b610c98565b610800611169565b61082c7f2090c6457b1ee2a791b1d863dcf68daffba3ba180e7ef1f21e4e594e8515a6a760001b610c98565b6108587f21ea7fcf5f9d7c31f9aaf25a69a33e54c5f3c5f66baae008885ccc3276598f7e60001b6104a0565b6108847f6a39159fbf6a6f219cb1a9d2ba1e006bf81de453f8c25b24ef0ad37212bed98b60001b6104a0565b6108b07fda72f8aff7fe2e941c3d65dafeff55469fc4e10b2cfd040c51bbee89e5b0231a60001b6104a0565b6108b8611031565b6108e47f9c459e0e3be04934ddeb1b00ad8219c43cf1b0ee5a60c5c5492412fe62e3db4860001b6104a0565b6109107f153c48b9432bed6cad4680fedb58e6e3bffd743eec28787835fbb9f6f43aae7460001b61049d565b61093c7f1d50a99de1e7db501f3ef6c0268fd9ce7a2a1c26a258f2afa508ed5421f95a4960001b61049d565b6109687fd6a9221836706f6ab6e84cfbed288c6028ead7b22f62307bb4ad9231becaf0db60001b61049d565b6109788585905084849050611261565b6109a47f7fddd85bc12c9c6f740829485ccdc95869de6a23e771f108d8713f09a35509ee60001b61049d565b6109d07f6cc6a4e949c4b5b223f15033f2b1c6d540102d8f983f98feb1cb06423bafc78b60001b61049d565b60005b85859050811015610b5a57610a0a7f688625a1620b88f466de4026beff6b17c94500aae229cab283f4e4b62a81c22c60001b61049d565b610a367f50059391ac0aa0fe397425b77f7e15cec5c79fb25b229b19ff7bf771b6eb08c560001b61049d565b6000868683818110610a4457fe5b9050602002016020810190610a599190611c38565b9050610a877fad00683871c2ded88738821ece9f30b1681808977fe88378f47245ddba458fcf60001b61049d565b610ab37fb56e97149807cfa926d18bad1ea321ce2f9d5a62571857aebe152a7380351a7c60001b61049d565b6000858584818110610ac157fe5b905060200201359050610af67f147a1e92f652949a687a146a1d1f618611adcebf979350f8600b429a78094f5860001b61049d565b610b227ffa010b3a861f37ed8df7cefef86d191a9f3d981db87cccf80cba3ad1dcaedacb60001b61049d565b610b4d84828473ffffffffffffffffffffffffffffffffffffffff166112f69092919063ffffffff16565b50508060010190506109d3565b50610b877fb60a234b3cb4b1e935875de56b9fece2cdc9d0c9359a56930a7fbbfb5337116f60001b610c98565b610bb37f37a5344d8593cc0405c0415e4e47bc57677f78c6499e62b7b206fedb489e6b9260001b610c98565b610bbb611400565b5050505050565b6000610bf07f4d573133ce520db9ac8fcc17a4a109e17cde6e632ece08c89418b284bc44a67860001b6104a0565b610c1c7ff3dc7d107ec34169a12de6b8dc70021c704b1c6bfe98a174ebf6a95d17c3ffa960001b6104a0565b610c487f05423f9efef992bd3c316d35c411d077b1697419a0b4608f5649a0d610dcab4a60001b6104a0565b7f000000000000000000000000000000000000000000000000000000000000000082604051602001610c7b929190611de2565b604051602081830303815290604052805190602001209050919050565b50565b6000610cc97f6495a2ca6c07cd48e8027517dfa8e23702d2960be8370f4ced23aed1881e6b7560001b61049d565b610cf57f7f6d01c7f96c981bc79cd02a72bb965c6b0b18890544ecc16ece8fbbb462377360001b61049d565b610d217f214b5dd7e586365079a09687c58bbf7f0e340af7ed090b56616a4d9b3c03515360001b61049d565b610d2961148e565b905090565b6000610d5c7f52bf1f74730f36338faa2d217e4490c4d7901dc9555c3900b8624064abb39a6560001b61049d565b610d887f8096cd3ce9f55a36ac5122ead7ecafe27c40468eeff706177ad8c73d423ef96860001b61049d565b610db47fdc8b2849c0447b8995d7ba2da42fb154e7446ce7aa605864a93e08bc10d9c8b860001b61049d565b600254905090565b6060610dea7ff45fd7fdfb248af03517b7d702c36995360bc05d786a7bc24f4c421cf5041f2e60001b61049d565b610e167f932c363a4009e739a0fe7f322e2b625abd9f3cae252ca3dfcdd6672efecfc5ca60001b61049d565b610e427f7665f134cd4fe7d1cddd830f3f145ff13fe20a78384ed01b62139cee953b5a7860001b61049d565b815167ffffffffffffffff81118015610e5a57600080fd5b50604051908082528060200260200182016040528015610e895781602001602082028036833780820191505090505b509050610eb87f168f53ae61c27b4e8c2896f7e4cc98f94805fc73316b65ba6614f1e7cfa65f8360001b61049d565b610ee47f40f0274a5d9bcdfae33b16b21a234a46ad4c79331b234bf28ae4d69d1c6a648960001b61049d565b60005b825181101561100757610f1c7f8c530e9a4e8cc7cc9b61e853eb34178565b7b14725a9c27cf88d9b32b8814e1260001b61049d565b610f487ff2ce33ab9bfa39967e8db48bd3a0e93e8c1b0273500530cb49adecd5b2b3dc6560001b61049d565b828181518110610f5457fe5b602002602001015173ffffffffffffffffffffffffffffffffffffffff166370a08231306040518263ffffffff1660e01b8152600401610f949190611e25565b60206040518083038186803b158015610fac57600080fd5b505afa158015610fc0573d6000803e3d6000fd5b505050506040513d601f19601f82011682018060405250810190610fe49190611c8a565b828281518110610ff057fe5b602002602001018181525050806001019050610ee7565b50919050565b7f000000000000000000000000000000000000000000000000000000000000000081565b61105d7fee6b13cc663fc83397456b0aa96802fb13538819560f9edb6f8e7b741a72f53860001b6104a0565b6110897f39ab045597dcd2e91680c88e6a16c3be9c35aec35abfd0a983b97db2747a626c60001b6104a0565b6110b57fa7d629b89f18d2a342559332fb4bb334709674b097663cda4332f13762a4c77560001b6104a0565b60006110e46000357fffffffff0000000000000000000000000000000000000000000000000000000016610bc2565b90506111127f1f27bb1c2197ceb722f7da0d0716224da6e67a5388819b6d33889e0d61317ea460001b6104a0565b61113e7f7da4f63bcb1bb19803d5a6d9059f7ad5906710c0ba0b6fe17e28839a722402b160001b6104a0565b61115361114b82336115b7565b610191611156565b50565b8161116557611164816116d9565b5b5050565b6111957f9c87dc88b81e7686642aedd70d20b133dbc176c445084af25bea31a27461dd1060001b610c98565b6111c17f3f4b678c74fa9090d36668f40ba3dabb270c17224b669744008302951069813060001b610c98565b6111ed7f2c14ea0fe249be4247a994e6a1b5d0cb1474f09e41d3cba4d0ccce1d4fdf822060001b610c98565b6111ff60026000541415610190611156565b61122b7fe0ee19ca399d3acda78bf6c90366d674c7f2b95a9d4f96582447df63b512ef3260001b610c98565b6112577f977cd7bf9c3a4e751ab85a761fa5ff058fb580adbabfa64efb14616fd13d315960001b610c98565b6002600081905550565b61128d7fb3c3ab71be1e60ccf374cd9c337f5c94a091891a248ffd88815355718b38f5cf60001b611749565b6112b97f23a34501b370f017ac0b72a81570395801e215d15ea760153f3abbf09eb0167360001b611749565b6112e57ff006c498284d347b1bc1a6a27ae455ca2c77693be39b0bf5701f8175df7eb3a460001b611749565b6112f28183146067611156565b5050565b6113227f826b3c2d923005c2743ec081c6e629f85e7b09506139153a93935e6e8ecb28ab60001b61174c565b61134e7f800e347e3e58022c658f648bed4d23cb6b3af8034b0337fb821c3c5b2c80068b60001b61174c565b61137a7f40ad77c5d047e729da7f0083b41e58b8b25572e7f27c7a1ea1474ce159e69f7e60001b61174c565b6113fb8363a9059cbb60e01b8484604051602401611399929190611e40565b604051602081830303815290604052907bffffffffffffffffffffffffffffffffffffffffffffffffffffffff19166020820180517bffffffffffffffffffffffffffffffffffffffffffffffffffffffff838183161783525050505061174f565b505050565b61142c7f32952cee8e7fcc2065f616ca5c8f65b8e5fa48efb4dbe47cf2c31c3387f29a7860001b610c98565b6114587f4808d1069bf8a25610b5c3ca97ee8811ae850b9e4134a3ff1869c2a89edec52760001b610c98565b6114847fbbc531cbafb07ffd26bcf8510c8bf4233dc2b30d7c364f7c165cb4673d352af860001b610c98565b6001600081905550565b60006114bc7f8a498ace34439ad743734f441f864b4e6e18492ce2385125f5b5b3462135b7a660001b61049d565b6114e87fb7f8789e75266a9ae9febfd7ae8b13223f9423db067051d2301a867262396c6860001b61049d565b6115147fff3e0d07bf72566821a7cd6ca8a3696f6dc6880e1f52d4997682729ca9556b3860001b61049d565b7f000000000000000000000000000000000000000000000000000000000000000073ffffffffffffffffffffffffffffffffffffffff1663aaabadc56040518163ffffffff1660e01b815260040160206040518083038186803b15801561157a57600080fd5b505afa15801561158e573d6000803e3d6000fd5b505050506040513d601f19601f820116820180604052508101906115b29190611c0f565b905090565b60006115e57f6ff613c09633be6e48855039662762541f3864e91c711b559c8f84931ba8160b60001b61049d565b6116117f8a5fbf36caa5390469b9bd2288e089711988920510d07c3d1e38a39e2cd6fdfb60001b61049d565b61163d7f209fd1933e2ffbd577d09ac1678fb60c5b37e2a5c3affbacd9aee5043362e22b60001b61049d565b61164561148e565b73ffffffffffffffffffffffffffffffffffffffff16639be2a8848484306040518463ffffffff1660e01b815260040161168193929190611ea6565b60206040518083038186803b15801561169957600080fd5b505afa1580156116ad573d6000803e3d6000fd5b505050506040513d601f19601f820116820180604052508101906116d19190611b94565b905092915050565b6030600a820601600a820491506030600a830601600a830492506030600a8406018060101b8260081b8401016642414c230000000160c81b7f08c379a000000000000000000000000000000000000000000000000000000000600052602060045260076024528060445260646000fd5b50565b50565b61177b7f37a83b59fae1074b14d9f482cc90a27d1264db69cbe4cac9207e87f75c12bd4960001b61174c565b6117a77fe9e63da1694b1fea95382f8746327af340d91196254ff97512c12a96fcd5e97160001b61174c565b6117d37f897e3dad2a9a6a35640eb029e2738d7e6183eaff3f61136653368db2fd29c3f360001b61174c565b600060608373ffffffffffffffffffffffffffffffffffffffff16836040516117fc9190611e0e565b6000604051808303816000865af19150503d8060008114611839576040519150601f19603f3d011682016040523d82523d6000602084013e61183e565b606091505b509150915061186f7f78efc5d4151a293a6f454a45a34ba50a9f141b83db3fff9190727605df43933560001b61174c565b6000821415611882573d6000803e3d6000fd5b6118ae7f8c72ea9591f6650733f56067de267801b32361942ff6960b908a6a839b15555160001b61174c565b6118da7f3a0300b5edcfe17b09d299fe0a8352dfda68dbec55ec758e345ba8c70305588160001b61174c565b6119056000825114806118fd5750818060200190518101906118fc9190611b94565b5b6101a2611156565b50505050565b60008135905061191a81612103565b92915050565b60008083601f84011261193257600080fd5b8235905067ffffffffffffffff81111561194b57600080fd5b60208301915083602082028301111561196357600080fd5b9250929050565b600082601f83011261197b57600080fd5b813561198e61198982611f5b565b611f2e565b915081818352602084019350602081019050838560208402820111156119b357600080fd5b60005b838110156119e357816119c98882611a8b565b8452602084019350602083019250506001810190506119b6565b5050505092915050565b60008083601f8401126119ff57600080fd5b8235905067ffffffffffffffff811115611a1857600080fd5b602083019150836020820283011115611a3057600080fd5b9250929050565b600081519050611a468161211a565b92915050565b600081359050611a5b81612131565b92915050565b600081359050611a7081612148565b92915050565b600081519050611a858161215f565b92915050565b600081359050611a9a81612176565b92915050565b600081359050611aaf8161218d565b92915050565b600081519050611ac48161218d565b92915050565b600080600080600060608688031215611ae257600080fd5b600086013567ffffffffffffffff811115611afc57600080fd5b611b0888828901611920565b9550955050602086013567ffffffffffffffff811115611b2757600080fd5b611b33888289016119ed565b93509350506040611b468882890161190b565b9150509295509295909350565b600060208284031215611b6557600080fd5b600082013567ffffffffffffffff811115611b7f57600080fd5b611b8b8482850161196a565b91505092915050565b600060208284031215611ba657600080fd5b6000611bb484828501611a37565b91505092915050565b600060208284031215611bcf57600080fd5b6000611bdd84828501611a4c565b91505092915050565b600060208284031215611bf857600080fd5b6000611c0684828501611a61565b91505092915050565b600060208284031215611c2157600080fd5b6000611c2f84828501611a76565b91505092915050565b600060208284031215611c4a57600080fd5b6000611c5884828501611a8b565b91505092915050565b600060208284031215611c7357600080fd5b6000611c8184828501611aa0565b91505092915050565b600060208284031215611c9c57600080fd5b6000611caa84828501611ab5565b91505092915050565b6000611cbf8383611dc4565b60208301905092915050565b611cd481611fd2565b82525050565b6000611ce582611f93565b611cef8185611fb6565b9350611cfa83611f83565b8060005b83811015611d2b578151611d128882611cb3565b9750611d1d83611fa9565b925050600181019050611cfe565b5085935050505092915050565b611d4181611ff0565b82525050565b611d58611d5382611ff0565b6120ef565b82525050565b611d6f611d6a82611ffa565b6120f9565b82525050565b6000611d8082611f9e565b611d8a8185611fc7565b9350611d9a8185602086016120bc565b80840191505092915050565b611daf81612074565b82525050565b611dbe81612098565b82525050565b611dcd8161206a565b82525050565b611ddc8161206a565b82525050565b6000611dee8285611d47565b602082019150611dfe8284611d5e565b6004820191508190509392505050565b6000611e1a8284611d75565b915081905092915050565b6000602082019050611e3a6000830184611ccb565b92915050565b6000604082019050611e556000830185611ccb565b611e626020830184611dd3565b9392505050565b60006020820190508181036000830152611e838184611cda565b905092915050565b6000602082019050611ea06000830184611d38565b92915050565b6000606082019050611ebb6000830186611d38565b611ec86020830185611ccb565b611ed56040830184611ccb565b949350505050565b6000602082019050611ef26000830184611da6565b92915050565b6000602082019050611f0d6000830184611db5565b92915050565b6000602082019050611f286000830184611dd3565b92915050565b6000604051905081810181811067ffffffffffffffff82111715611f5157600080fd5b8060405250919050565b600067ffffffffffffffff821115611f7257600080fd5b602082029050602081019050919050565b6000819050602082019050919050565b600081519050919050565b600081519050919050565b6000602082019050919050565b600082825260208201905092915050565b600081905092915050565b6000611fdd8261204a565b9050919050565b60008115159050919050565b6000819050919050565b60007fffffffff0000000000000000000000000000000000000000000000000000000082169050919050565b600061203182611fd2565b9050919050565b600061204382611fd2565b9050919050565b600073ffffffffffffffffffffffffffffffffffffffff82169050919050565b6000819050919050565b600061207f82612086565b9050919050565b60006120918261204a565b9050919050565b60006120a3826120aa565b9050919050565b60006120b58261204a565b9050919050565b60005b838110156120da5780820151818401526020810190506120bf565b838111156120e9576000848401525b50505050565b6000819050919050565b6000819050919050565b61210c81611fd2565b811461211757600080fd5b50565b61212381611fe4565b811461212e57600080fd5b50565b61213a81611ff0565b811461214557600080fd5b50565b61215181611ffa565b811461215c57600080fd5b50565b61216881612026565b811461217357600080fd5b50565b61217f81612038565b811461218a57600080fd5b50565b6121968161206a565b81146121a157600080fd5b5056fea2646970667358221220cd6664b42a2007d0ba77104143e376d9e8f0d6b15746fa680e7818288f70273464736f6c63430007010033",
  "linkReferences": {},
  "deployedLinkReferences": {}
}