{
  "_format": "hh-sol-artifact-1",
  "contractName": "SafeERC20",
  "sourceName": "contracts/balancer-core-v2/lib/openzeppelin/SafeERC20.sol",
  "abi": [
    {
      "inputs": [
        {
          "internalType": "bytes32",
          "name": "c__0x0503a8e5",
          "type": "bytes32"
        }
      ],
      "name": "c_0x0503a8e5",
      "outputs": [],
      "stateMutability": "pure",
      "type": "function"
    }
  ],
  "bytecode": "0x609c610024600b82828239805160001a607314601757fe5b30600052607381538281f3fe730000000000000000000000000000000000000000301460806040526004361060335760003560e01c8063d8a26f3b146038575b600080fd5b606160048036036020811015604c57600080fd5b81019080803590602001909291905050506063565b005b5056fea2646970667358221220f5396ff84d19516ee93583ed5443a1e80b894a2f34c41a7b6d5a7f2079f8fa4064736f6c63430007010033",
  "linkReferences": {},
  "deployedLinkReferences": {}
}