{
  "_format": "hh-sol-artifact-1",
  "contractName": "SafeERC20",
  "sourceName": "contracts/balancer-core-v2/lib/openzeppelin/SafeERC20.sol",
  "abi": [
    {
      "inputs": [
        {
          "internalType": "bytes32",
          "name": "c__0xa859cb8f",
          "type": "bytes32"
        }
      ],
      "name": "c_0xa859cb8f",
      "outputs": [],
      "stateMutability": "pure",
      "type": "function"
    }
  ],
  "bytecode": "0x609c610024600b82828239805160001a607314601757fe5b30600052607381538281f3fe730000000000000000000000000000000000000000301460806040526004361060335760003560e01c80634f38ae6c146038575b600080fd5b606160048036036020811015604c57600080fd5b81019080803590602001909291905050506063565b005b5056fea264697066735822122064a46709e4d704af73694f8786fe9f1fa9cab5a3df13df57e487acc1c9abff0864736f6c63430007010033",
  "linkReferences": {},
  "deployedLinkReferences": {}
}