{
  "_format": "hh-sol-artifact-1",
  "contractName": "StablePoolUserDataHelpers",
  "sourceName": "contracts/balancer-core-v2/pools/stable/StablePoolUserDataHelpers.sol",
  "abi": [
    {
      "inputs": [
        {
          "internalType": "bytes32",
          "name": "c__0xd5778114",
          "type": "bytes32"
        }
      ],
      "name": "c_0xd5778114",
      "outputs": [],
      "stateMutability": "pure",
      "type": "function"
    }
  ],
  "bytecode": "0x609c610024600b82828239805160001a607314601757fe5b30600052607381538281f3fe730000000000000000000000000000000000000000301460806040526004361060335760003560e01c80639f421d00146038575b600080fd5b606160048036036020811015604c57600080fd5b81019080803590602001909291905050506063565b005b5056fea2646970667358221220d5c432c4de7c1f5c9fd06751ea59d4c69b6f5bb10f66a18c075a42847328d06d64736f6c63430007010033",
  "linkReferences": {},
  "deployedLinkReferences": {}
}