{
  "_format": "hh-sol-artifact-1",
  "contractName": "StablePoolUserDataHelpers",
  "sourceName": "contracts/balancer-core-v2/pools/stable/StablePoolUserDataHelpers.sol",
  "abi": [
    {
      "inputs": [
        {
          "internalType": "bytes32",
          "name": "c__0x206143c4",
          "type": "bytes32"
        }
      ],
      "name": "c_0x206143c4",
      "outputs": [],
      "stateMutability": "pure",
      "type": "function"
    }
  ],
  "bytecode": "0x609c610024600b82828239805160001a607314601757fe5b30600052607381538281f3fe730000000000000000000000000000000000000000301460806040526004361060335760003560e01c806339fd14b0146038575b600080fd5b606160048036036020811015604c57600080fd5b81019080803590602001909291905050506063565b005b5056fea2646970667358221220ea6404f280264d50ca03bb0ad0a6d3615f3bb61145c82db7dce05ffab19953e864736f6c63430007010033",
  "linkReferences": {},
  "deployedLinkReferences": {}
}