{
  "_format": "hh-sol-artifact-1",
  "contractName": "WeightedPoolUserDataHelpers",
  "sourceName": "contracts/balancer-core-v2/pools/weighted/WeightedPoolUserDataHelpers.sol",
  "abi": [
    {
      "inputs": [
        {
          "internalType": "bytes32",
          "name": "c__0x074103fe",
          "type": "bytes32"
        }
      ],
      "name": "c_0x074103fe",
      "outputs": [],
      "stateMutability": "pure",
      "type": "function"
    }
  ],
  "bytecode": "0x609c610024600b82828239805160001a607314601757fe5b30600052607381538281f3fe730000000000000000000000000000000000000000301460806040526004361060335760003560e01c8063f292b4d8146038575b600080fd5b606160048036036020811015604c57600080fd5b81019080803590602001909291905050506063565b005b5056fea264697066735822122049553d235613427cab8c54d865398d5f648c74213e2cb1ecbc06b68bda0b16a064736f6c63430007010033",
  "linkReferences": {},
  "deployedLinkReferences": {}
}