{
  "_format": "hh-sol-artifact-1",
  "contractName": "WeightedPoolUserDataHelpers",
  "sourceName": "contracts/balancer-core-v2/pools/weighted/WeightedPoolUserDataHelpers.sol",
  "abi": [
    {
      "inputs": [
        {
          "internalType": "bytes32",
          "name": "c__0xe21b9c24",
          "type": "bytes32"
        }
      ],
      "name": "c_0xe21b9c24",
      "outputs": [],
      "stateMutability": "pure",
      "type": "function"
    }
  ],
  "bytecode": "0x609c610024600b82828239805160001a607314601757fe5b30600052607381538281f3fe730000000000000000000000000000000000000000301460806040526004361060335760003560e01c8063cbf375f4146038575b600080fd5b606160048036036020811015604c57600080fd5b81019080803590602001909291905050506063565b005b5056fea2646970667358221220fea5e560688d537b647d079969f709c9f4b26c4c631fd1f0ddfed05e4058309c64736f6c63430007010033",
  "linkReferences": {},
  "deployedLinkReferences": {}
}