{
  "_format": "hh-sol-artifact-1",
  "contractName": "WeightedMath",
  "sourceName": "contracts/balancer-core-v2/pools/weighted/WeightedMath.sol",
  "abi": [
    {
      "inputs": [
        {
          "internalType": "bytes32",
          "name": "c__0x6b25a81c",
          "type": "bytes32"
        }
      ],
      "name": "c_0x6b25a81c",
      "outputs": [],
      "stateMutability": "pure",
      "type": "function"
    }
  ],
  "bytecode": "0x6080604052348015600f57600080fd5b5060918061001e6000396000f3fe6080604052348015600f57600080fd5b506004361060285760003560e01c80631ec80b0a14602d575b600080fd5b605660048036036020811015604157600080fd5b81019080803590602001909291905050506058565b005b5056fea2646970667358221220f9f9183aba7d7a8c58b401c70c1a568018ff8fd5a909ddbe1d4435ecf052bfcb64736f6c63430007010033",
  "linkReferences": {},
  "deployedLinkReferences": {}
}