{
  "_format": "hh-sol-artifact-1",
  "contractName": "WeightedMath",
  "sourceName": "contracts/balancer-core-v2/pools/weighted/WeightedMath.sol",
  "abi": [
    {
      "inputs": [
        {
          "internalType": "bytes32",
          "name": "c__0x1b889fc3",
          "type": "bytes32"
        }
      ],
      "name": "c_0x1b889fc3",
      "outputs": [],
      "stateMutability": "pure",
      "type": "function"
    }
  ],
  "bytecode": "0x6080604052348015600f57600080fd5b5060918061001e6000396000f3fe6080604052348015600f57600080fd5b506004361060285760003560e01c8063e972a74014602d575b600080fd5b605660048036036020811015604157600080fd5b81019080803590602001909291905050506058565b005b5056fea2646970667358221220965acfcb78bbc2f61238f0d28b831ad7919a858daa5f7d9d7c2b997f66709e2964736f6c63430007010033",
  "linkReferences": {},
  "deployedLinkReferences": {}
}