{
  "_format": "hh-sol-artifact-1",
  "contractName": "BalancerHelpers",
  "sourceName": "contracts/balancer-core-v2/lib/helpers/BalancerHelpers.sol",
  "abi": [
    {
      "inputs": [
        {
          "internalType": "contract IVault",
          "name": "_vault",
          "type": "address"
        }
      ],
      "stateMutability": "nonpayable",
      "type": "constructor"
    },
    {
      "inputs": [
        {
          "internalType": "bytes32",
          "name": "c__0x8acb9008",
          "type": "bytes32"
        }
      ],
      "name": "c_0x8acb9008",
      "outputs": [],
      "stateMutability": "pure",
      "type": "function"
    },
    {
      "inputs": [
        {
          "internalType": "bytes32",
          "name": "c__0xdfc7cb74",
          "type": "bytes32"
        }
      ],
      "name": "c_0xdfc7cb74",
      "outputs": [],
      "stateMutability": "pure",
      "type": "function"
    },
    {
      "inputs": [
        {
          "internalType": "bytes32",
          "name": "poolId",
          "type": "bytes32"
        },
        {
          "internalType": "address",
          "name": "sender",
          "type": "address"
        },
        {
          "internalType": "address",
          "name": "recipient",
          "type": "address"
        },
        {
          "components": [
            {
              "internalType": "contract IAsset[]",
              "name": "assets",
              "type": "address[]"
            },
            {
              "internalType": "uint256[]",
              "name": "minAmountsOut",
              "type": "uint256[]"
            },
            {
              "internalType": "bytes",
              "name": "userData",
              "type": "bytes"
            },
            {
              "internalType": "bool",
              "name": "toInternalBalance",
              "type": "bool"
            }
          ],
          "internalType": "struct IVault.ExitPoolRequest",
          "name": "request",
          "type": "tuple"
        }
      ],
      "name": "queryExit",
      "outputs": [
        {
          "internalType": "uint256",
          "name": "bptIn",
          "type": "uint256"
        },
        {
          "internalType": "uint256[]",
          "name": "amountsOut",
          "type": "uint256[]"
        }
      ],
      "stateMutability": "nonpayable",
      "type": "function"
    },
    {
      "inputs": [
        {
          "internalType": "bytes32",
          "name": "poolId",
          "type": "bytes32"
        },
        {
          "internalType": "address",
          "name": "sender",
          "type": "address"
        },
        {
          "internalType": "address",
          "name": "recipient",
          "type": "address"
        },
        {
          "components": [
            {
              "internalType": "contract IAsset[]",
              "name": "assets",
              "type": "address[]"
            },
            {
              "internalType": "uint256[]",
              "name": "maxAmountsIn",
              "type": "uint256[]"
            },
            {
              "internalType": "bytes",
              "name": "userData",
              "type": "bytes"
            },
            {
              "internalType": "bool",
              "name": "fromInternalBalance",
              "type": "bool"
            }
          ],
          "internalType": "struct IVault.JoinPoolRequest",
          "name": "request",
          "type": "tuple"
        }
      ],
      "name": "queryJoin",
      "outputs": [
        {
          "internalType": "uint256",
          "name": "bptOut",
          "type": "uint256"
        },
        {
          "internalType": "uint256[]",
          "name": "amountsIn",
          "type": "uint256[]"
        }
      ],
      "stateMutability": "nonpayable",
      "type": "function"
    },
    {
      "inputs": [],
      "name": "vault",
      "outputs": [
        {
          "internalType": "contract IVault",
          "name": "",
          "type": "address"
        }
      ],
      "stateMutability": "view",
      "type": "function"
    }
  ],
  "bytecode": "0x60c06040523480156200001157600080fd5b50604051620023893803806200238983398181016040528101906200003791906200029b565b8073ffffffffffffffffffffffffffffffffffffffff1663ad5c46486040518163ffffffff1660e01b815260040160206040518083038186803b1580156200007e57600080fd5b505afa15801562000093573d6000803e3d6000fd5b505050506040513d601f19601f82011682018060405250810190620000b99190620002c7565b620000ed7fd42273fe9a4a03789d1d93671f589797743563c8a4b30f1b505997bf6b92deb460001b6200026760201b60201c565b620001217f6738e7db9f62f3d3ff4960e0fe1f3c2c4d936e8add6d1806f893a83482e751a160001b6200026760201b60201c565b620001557f02717fccd054bfd137610984c96c31b4a6356b4dee268736384334ef228946cf60001b6200026760201b60201c565b8073ffffffffffffffffffffffffffffffffffffffff1660808173ffffffffffffffffffffffffffffffffffffffff1660601b8152505050620001c17fd1bef515d784b76ce2e26f29bcae49c3ca94ab9ccc7415db312f014c0b2aea9c60001b6200026a60201b60201c565b620001f57f74ad7db6671e57fed560c0fd327dde3715e7d1a3b23246c9172c45c78edf19d260001b6200026a60201b60201c565b620002297fbac27836d6236ec55b1776f336e33b9214316b513885c50e134f033493d52c8160001b6200026a60201b60201c565b8073ffffffffffffffffffffffffffffffffffffffff1660a08173ffffffffffffffffffffffffffffffffffffffff1660601b815250505062000383565b50565b50565b6000815190506200027e816200034f565b92915050565b600081519050620002958162000369565b92915050565b600060208284031215620002ae57600080fd5b6000620002be848285016200026d565b91505092915050565b600060208284031215620002da57600080fd5b6000620002ea8482850162000284565b91505092915050565b600062000300826200032f565b9050919050565b60006200031482620002f3565b9050919050565b60006200032882620002f3565b9050919050565b600073ffffffffffffffffffffffffffffffffffffffff82169050919050565b6200035a8162000307565b81146200036657600080fd5b50565b62000374816200031b565b81146200038057600080fd5b50565b60805160601c60a05160601c611fc3620003c6600039806101b0528061032352806105da528061074d528061097a5280610ae552508061138c5250611fc36000f3fe608060405234801561001057600080fd5b50600436106100675760003560e01c8063c7b2c52c11610050578063c7b2c52c146100b9578063e1b600f4146100ea578063fbfa77cf1461010657610067565b80639ebbf05d1461006c578063b19c121f1461009d575b600080fd5b610086600480360381019061008191906119b9565b610124565b604051610094929190611c87565b60405180910390f35b6100b760048036038101906100b29190611915565b61054b565b005b6100d360048036038101906100ce919061193e565b61054e565b6040516100e1929190611c87565b60405180910390f35b61010460048036038101906100ff9190611915565b610975565b005b61010e610978565b60405161011b9190611c6c565b60405180910390f35b600060606101547fd24825a23b7bf1e7a688fcc7ac17d901b0f491a49cbdd95fe4d14a9b4773d29d60001b610975565b6101807f8ce24a823907e494fe96677313ea9d2a7d98c298f7f7937490ae52055332801c60001b610975565b6101ac7f34d2ca27ca4d1358893651d3e50f2363a696b1250cf4970b6367206a5296a61a60001b610975565b60007f000000000000000000000000000000000000000000000000000000000000000073ffffffffffffffffffffffffffffffffffffffff1663f6c00927886040518263ffffffff1660e01b81526004016102079190611bd4565b604080518083038186803b15801561021e57600080fd5b505afa158015610232573d6000803e3d6000fd5b505050506040513d601f19601f82011682018060405250810190610256919061185a565b5090506102857f5e113bf1443e822b99bb56d6ea525f38c74569f82fcd78ab0f138d0c24ce400960001b610975565b6102b17fc037fed5c9916623c02edc9d1df4757e83fa032cb30f536451c91a09d2105c2160001b610975565b606060006102c389876000015161099c565b915091506102f37fe4670a6ce2a12b31e07f4db9a6b22105780eeca1d6a10ce8d6ccc9336aeacc9660001b610975565b61031f7fa17b1a42b15c285158f310730341d890c66b74e2572231bd1b5da73a1b2f5c5760001b610975565b60007f000000000000000000000000000000000000000000000000000000000000000073ffffffffffffffffffffffffffffffffffffffff1663d2946c2b6040518163ffffffff1660e01b815260040160206040518083038186803b15801561038757600080fd5b505afa15801561039b573d6000803e3d6000fd5b505050506040513d601f19601f820116820180604052508101906103bf9190611a34565b90506103ed7f8231beb06e92fff0b3611bef6c58cb20edcc1077336d0a105da93122b0a508e460001b610975565b6104197fba323610a53778ba98592a06ac9f94951a435987f840da9948af1fe5a6bdb8dc60001b610975565b8373ffffffffffffffffffffffffffffffffffffffff166387ec68178b8b8b87878773ffffffffffffffffffffffffffffffffffffffff166355c676286040518163ffffffff1660e01b815260040160206040518083038186803b15801561048057600080fd5b505afa158015610494573d6000803e3d6000fd5b505050506040513d601f19601f820116820180604052508101906104b89190611a5d565b8e604001516040518863ffffffff1660e01b81526004016104df9796959493929190611bef565b600060405180830381600087803b1580156104f957600080fd5b505af115801561050d573d6000803e3d6000fd5b505050506040513d6000823e3d601f19601f820116820180604052508101906105369190611a86565b80965081975050505050505094509492505050565b50565b6000606061057e7fa20ff79d38349a406de6ccf86340564c3c0633737c8881eea0eea79886666ef060001b610975565b6105aa7f39db411b4ebc5f88f28040a12d55bbe33ea6675e6d7001c6d9fc3587f9d3c8f060001b610975565b6105d67fb15174ab3aa4ca9bc62c955eb336a7bf9ead0252a5c9f01c72e3e31854e34f0960001b610975565b60007f000000000000000000000000000000000000000000000000000000000000000073ffffffffffffffffffffffffffffffffffffffff1663f6c00927886040518263ffffffff1660e01b81526004016106319190611bd4565b604080518083038186803b15801561064857600080fd5b505afa15801561065c573d6000803e3d6000fd5b505050506040513d601f19601f82011682018060405250810190610680919061185a565b5090506106af7f2f161768b26c728386592c008fdf950a47180aee92430822b7b6114798c8247960001b610975565b6106db7fcd31942fe8431f3bbce6717dc76174b9a17514b5a14f49dd5c345ab870863f3560001b610975565b606060006106ed89876000015161099c565b9150915061071d7ff6e9fac0738c107b6197ab3cf971eb7bc728b92d80824198ccb36dcf400cf12160001b610975565b6107497f91e6b274b70780865411c4337cea6abce164149e10902073014ed288202bc1cf60001b610975565b60007f000000000000000000000000000000000000000000000000000000000000000073ffffffffffffffffffffffffffffffffffffffff1663d2946c2b6040518163ffffffff1660e01b815260040160206040518083038186803b1580156107b157600080fd5b505afa1580156107c5573d6000803e3d6000fd5b505050506040513d601f19601f820116820180604052508101906107e99190611a34565b90506108177fe1f652214418dc1b51fd6257aa6782302e209a62906afd7f6b806df6ae420f5d60001b610975565b6108437f24165dfa3c16f53519bc4f32d49412ec0a11532055e648dc7c863a6e0e2cac2560001b610975565b8373ffffffffffffffffffffffffffffffffffffffff16636028bfd48b8b8b87878773ffffffffffffffffffffffffffffffffffffffff166355c676286040518163ffffffff1660e01b815260040160206040518083038186803b1580156108aa57600080fd5b505afa1580156108be573d6000803e3d6000fd5b505050506040513d601f19601f820116820180604052508101906108e29190611a5d565b8e604001516040518863ffffffff1660e01b81526004016109099796959493929190611bef565b600060405180830381600087803b15801561092357600080fd5b505af1158015610937573d6000803e3d6000fd5b505050506040513d6000823e3d601f19601f820116820180604052508101906109609190611a86565b80965081975050505050505094509492505050565b50565b7f000000000000000000000000000000000000000000000000000000000000000081565b606060006109cc7fe2be3d810aade98b1964b16b37d46dcb13eab949ea091236c508f6a5f7d414e660001b610975565b6109f87f48239e041cae401d3859e825d2499abe02a99c0f0a1dd6b7635832186c2cba8660001b610975565b610a247f2a9ce586002a01677bcffddcc089ae22969b5f7cae8ef1a607ea07e4738d802160001b610975565b6060610a527f9560a6c1e7dd83eca732c4e793465a7b0d197efa9794fc85078278cc6edd75dd60001b610975565b610a7e7f47acfe637975322245fcd13f5461978bb5f55f1d1a9a24a37768a96be03a7ac160001b610975565b6060610a8985610d90565b9050610ab77f2a23a8f6e37d86b2ed3f0d622b4cd328f1b8c3d10cca2d0a403f731ab4a1d53860001b610975565b610ae37f626713f501f37bd2ba9424852ff787660d3d705841d103e2af072d25d35850de60001b610975565b7f000000000000000000000000000000000000000000000000000000000000000073ffffffffffffffffffffffffffffffffffffffff1663f94d4668876040518263ffffffff1660e01b8152600401610b3c9190611bd4565b60006040518083038186803b158015610b5457600080fd5b505afa158015610b68573d6000803e3d6000fd5b505050506040513d6000823e3d601f19601f82011682018060405250810190610b919190611896565b809550819650829450505050610bc97f9396d818404dfe065b35aa521879cb055c969f3870b46a05757fa199ccaa1e8460001b610975565b610bf57f51467757bc1b90599b37e09ea6df8cae7ddaf7b0de5d493699697839df600ecc60001b610975565b610c0182518251610fed565b610c2d7fc26d235ddedcd408656921d454407af5ce6974d64dc24dd5eab7d3097d7c61d660001b610975565b610c597fa3477c8c8b086e25ce72cba96415d05d46b00e46737439a97d3b1a4d8a61763f60001b610975565b60005b8251811015610d8657610c917fd077a6ca9b7b48477045a4a18426f3b022980e4d597930e8d3276c604b0531e260001b610975565b610cbd7f881a03ecfd81841265d63257db02acfd09b415ad41f0dfe375019c4416b2a5ee60001b610975565b6000838281518110610ccb57fe5b60200260200101519050610d017f1f9b94eecedf173071feb7720c4cf2f8f1995877df616c71ae06309b71f6c07260001b610975565b610d2d7fa889666fcaba3a2ef127d7f6f6391bfa6e00717bf5624347e7dd7422c3b7652e60001b610975565b610d7a838381518110610d3c57fe5b602002602001015173ffffffffffffffffffffffffffffffffffffffff168273ffffffffffffffffffffffffffffffffffffffff1614610208611082565b50806001019050610c5c565b5050509250929050565b6060610dbe7f782cc69f279a7baf0d8a227ca437e3f5b444d320fd2d08f12c8268fd9764675360001b61054b565b610dea7f22d6beb3303fe2ee8dd6beec1f9c46b55d4bb67d68bc4728c3b17431f02a267660001b61054b565b610e167f2cc38723c4bf3170d95b7f749e83319327a66a4ad0530f1e382cac45db9f63f960001b61054b565b6060825167ffffffffffffffff81118015610e3057600080fd5b50604051908082528060200260200182016040528015610e5f5781602001602082028036833780820191505090505b509050610e8e7fc147de005f892bf16c35aacfac33071a6a07244c42f9ddb1846c18e5742be11660001b61054b565b610eba7f4e9e56b9989664a64b8ad1d22215e156ed4ba2343d49dcd2f283ed2b8129463160001b61054b565b60005b8351811015610f8b57610ef27fb568d8175aab1e5b26a05f66110e8bfbede024922f572c75d7e1ac78e9b9e2bb60001b61054b565b610f1e7ff1fb364e8a6c36467fcab9445d3ef676eb8255087801f1401da443c03b6df2f960001b61054b565b610f3a848281518110610f2d57fe5b6020026020010151611095565b828281518110610f4657fe5b602002602001019073ffffffffffffffffffffffffffffffffffffffff16908173ffffffffffffffffffffffffffffffffffffffff1681525050806001019050610ebd565b50610fb87f5eee7a8f65c49126b1f184ae898b4361a15c1e9e4186186e0e92e26cbd65f7d360001b61054b565b610fe47f72150c0a73c8b5b8dae40cb3e5c29d283a4182659c74a723d725b747de92255460001b61054b565b80915050919050565b6110197f6f02687e057522eb19b597e3b091ff65201fe492dbd6f67980e016d6aa08d53260001b611146565b6110457fe51ab352fa79dd949e57050cd47d3f0410afdfe7c28a6ef735cccfeeb18f582360001b611146565b6110717ffce750c89171756118e85bed28eb1432c569ae13e7db5e43107d00a4ed5889a360001b611146565b61107e8183146067611082565b5050565b816110915761109081611149565b5b5050565b60006110c37f4b1f83ba899173be07821cf153ac8d1454bf11c57a7f52a59e3124761fe0981060001b61054b565b6110ef7fb84742c79f3e35a78a4a54262869a193ffb974c48b5d4087528d407497b1930a60001b61054b565b61111b7fd6f0e501f178fca0c15e7635b4b35ab953e86d602117c9c53199ffec75928f2360001b61054b565b611124826111b9565b6111365761113182611276565b61113f565b61113e611304565b5b9050919050565b50565b6030600a820601600a820491506030600a830601600a830492506030600a8406018060101b8260081b8401016642414c230000000160c81b7f08c379a000000000000000000000000000000000000000000000000000000000600052602060045260076024528060445260646000fd5b60006111e77f21e6e9a82536528b13c7883bb79967d52382ad39249951ec8ac814ccef79d86f60001b61054b565b6112137f1b61ef0dd245367232683976c663bddbd31984149cfdee5e82218ed86709255a60001b61054b565b61123f7fa07db27be40f1afa660817941a202b8d6a077717ac1c2de7d39676459fd44db360001b61054b565b600073ffffffffffffffffffffffffffffffffffffffff168273ffffffffffffffffffffffffffffffffffffffff16149050919050565b60006112a47f96583f1ebf4f990cafb72dd9783cf8ee72b4d2f02e3bc18d6bf241e56d72001060001b61054b565b6112d07facbb4a45b4bd16b1e9e057dad7837865824c96203de5746cc24fac924412970a60001b61054b565b6112fc7ff2bf84a89764308b9fa0d29e78a772e3f0e1bc9c01972c86eb847c0e9cd7c99360001b61054b565b819050919050565b60006113327f8a265b13d432173523632f8bcfab43301fe4e66466a839a49eab23a35e8e83e860001b61054b565b61135e7fb86e7d4e58e5797fc70acdf3ffafc7be31a194c68052929cb88417799298d53560001b61054b565b61138a7f8808efcb48e3fd659f7ade34ad3ded69da61a1d07c66f1bd23b08cdd7b8bebd860001b61054b565b7f0000000000000000000000000000000000000000000000000000000000000000905090565b6000813590506113bf81611edc565b92915050565b6000815190506113d481611edc565b92915050565b600082601f8301126113eb57600080fd5b81356113fe6113f982611ce4565b611cb7565b9150818183526020840193506020810190508385602084028201111561142357600080fd5b60005b8381101561145357816114398882611664565b845260208401935060208301925050600181019050611426565b5050505092915050565b600082601f83011261146e57600080fd5b815161148161147c82611d0c565b611cb7565b915081818352602084019350602081019050838560208402820111156114a657600080fd5b60005b838110156114d657816114bc8882611679565b8452602084019350602083019250506001810190506114a9565b5050505092915050565b600082601f8301126114f157600080fd5b81356115046114ff82611d34565b611cb7565b9150818183526020840193506020810190508385602084028201111561152957600080fd5b60005b83811015611559578161153f8882611830565b84526020840193506020830192505060018101905061152c565b5050505092915050565b600082601f83011261157457600080fd5b815161158761158282611d34565b611cb7565b915081818352602084019350602081019050838560208402820111156115ac57600080fd5b60005b838110156115dc57816115c28882611845565b8452602084019350602083019250506001810190506115af565b5050505092915050565b6000813590506115f581611ef3565b92915050565b60008135905061160a81611f0a565b92915050565b600082601f83011261162157600080fd5b813561163461162f82611d5c565b611cb7565b9150808252602083016020830185838301111561165057600080fd5b61165b838284611e89565b50505092915050565b60008135905061167381611f21565b92915050565b60008151905061168881611f38565b92915050565b60008151905061169d81611f4f565b92915050565b6000815190506116b281611f66565b92915050565b6000608082840312156116ca57600080fd5b6116d46080611cb7565b9050600082013567ffffffffffffffff8111156116f057600080fd5b6116fc848285016113da565b600083015250602082013567ffffffffffffffff81111561171c57600080fd5b611728848285016114e0565b602083015250604082013567ffffffffffffffff81111561174857600080fd5b61175484828501611610565b6040830152506060611768848285016115e6565b60608301525092915050565b60006080828403121561178657600080fd5b6117906080611cb7565b9050600082013567ffffffffffffffff8111156117ac57600080fd5b6117b8848285016113da565b600083015250602082013567ffffffffffffffff8111156117d857600080fd5b6117e4848285016114e0565b602083015250604082013567ffffffffffffffff81111561180457600080fd5b61181084828501611610565b6040830152506060611824848285016115e6565b60608301525092915050565b60008135905061183f81611f76565b92915050565b60008151905061185481611f76565b92915050565b6000806040838503121561186d57600080fd5b600061187b858286016113c5565b925050602061188c858286016116a3565b9150509250929050565b6000806000606084860312156118ab57600080fd5b600084015167ffffffffffffffff8111156118c557600080fd5b6118d18682870161145d565b935050602084015167ffffffffffffffff8111156118ee57600080fd5b6118fa86828701611563565b925050604061190b86828701611845565b9150509250925092565b60006020828403121561192757600080fd5b6000611935848285016115fb565b91505092915050565b6000806000806080858703121561195457600080fd5b6000611962878288016115fb565b9450506020611973878288016113b0565b9350506040611984878288016113b0565b925050606085013567ffffffffffffffff8111156119a157600080fd5b6119ad878288016116b8565b91505092959194509250565b600080600080608085870312156119cf57600080fd5b60006119dd878288016115fb565b94505060206119ee878288016113b0565b93505060406119ff878288016113b0565b925050606085013567ffffffffffffffff811115611a1c57600080fd5b611a2887828801611774565b91505092959194509250565b600060208284031215611a4657600080fd5b6000611a548482850161168e565b91505092915050565b600060208284031215611a6f57600080fd5b6000611a7d84828501611845565b91505092915050565b60008060408385031215611a9957600080fd5b6000611aa785828601611845565b925050602083015167ffffffffffffffff811115611ac457600080fd5b611ad085828601611563565b9150509250929050565b6000611ae68383611bb6565b60208301905092915050565b611afb81611ddd565b82525050565b6000611b0c82611d98565b611b168185611dbb565b9350611b2183611d88565b8060005b83811015611b52578151611b398882611ada565b9750611b4483611dae565b925050600181019050611b25565b5085935050505092915050565b611b6881611dfb565b82525050565b6000611b7982611da3565b611b838185611dcc565b9350611b93818560208601611e98565b611b9c81611ecb565b840191505092915050565b611bb081611e65565b82525050565b611bbf81611e5b565b82525050565b611bce81611e5b565b82525050565b6000602082019050611be96000830184611b5f565b92915050565b600060e082019050611c04600083018a611b5f565b611c116020830189611af2565b611c1e6040830188611af2565b8181036060830152611c308187611b01565b9050611c3f6080830186611bc5565b611c4c60a0830185611bc5565b81810360c0830152611c5e8184611b6e565b905098975050505050505050565b6000602082019050611c816000830184611ba7565b92915050565b6000604082019050611c9c6000830185611bc5565b8181036020830152611cae8184611b01565b90509392505050565b6000604051905081810181811067ffffffffffffffff82111715611cda57600080fd5b8060405250919050565b600067ffffffffffffffff821115611cfb57600080fd5b602082029050602081019050919050565b600067ffffffffffffffff821115611d2357600080fd5b602082029050602081019050919050565b600067ffffffffffffffff821115611d4b57600080fd5b602082029050602081019050919050565b600067ffffffffffffffff821115611d7357600080fd5b601f19601f8301169050602081019050919050565b6000819050602082019050919050565b600081519050919050565b600081519050919050565b6000602082019050919050565b600082825260208201905092915050565b600082825260208201905092915050565b6000611de882611e3b565b9050919050565b60008115159050919050565b6000819050919050565b6000611e1082611ddd565b9050919050565b6000611e2282611ddd565b9050919050565b6000611e3482611ddd565b9050919050565b600073ffffffffffffffffffffffffffffffffffffffff82169050919050565b6000819050919050565b6000611e7082611e77565b9050919050565b6000611e8282611e3b565b9050919050565b82818337600083830152505050565b60005b83811015611eb6578082015181840152602081019050611e9b565b83811115611ec5576000848401525b50505050565b6000601f19601f8301169050919050565b611ee581611ddd565b8114611ef057600080fd5b50565b611efc81611def565b8114611f0757600080fd5b50565b611f1381611dfb565b8114611f1e57600080fd5b50565b611f2a81611e05565b8114611f3557600080fd5b50565b611f4181611e17565b8114611f4c57600080fd5b50565b611f5881611e29565b8114611f6357600080fd5b50565b60038110611f7357600080fd5b50565b611f7f81611e5b565b8114611f8a57600080fd5b5056fea2646970667358221220cae8af83089c2084b70fc9162b2148ae692b28e54f8ef7dd9e4eaf164af485dc64736f6c63430007010033",
  "linkReferences": {},
  "deployedLinkReferences": {}
}