{
  "_format": "hh-sol-artifact-1",
  "contractName": "BalancerHelpers",
  "sourceName": "contracts/balancer-core-v2/lib/helpers/BalancerHelpers.sol",
  "abi": [
    {
      "inputs": [
        {
          "internalType": "contract IVault",
          "name": "_vault",
          "type": "address"
        }
      ],
      "stateMutability": "nonpayable",
      "type": "constructor"
    },
    {
      "inputs": [
        {
          "internalType": "bytes32",
          "name": "c__0x39781c2d",
          "type": "bytes32"
        }
      ],
      "name": "c_0x39781c2d",
      "outputs": [],
      "stateMutability": "pure",
      "type": "function"
    },
    {
      "inputs": [
        {
          "internalType": "bytes32",
          "name": "c__0xf5aa89d9",
          "type": "bytes32"
        }
      ],
      "name": "c_0xf5aa89d9",
      "outputs": [],
      "stateMutability": "pure",
      "type": "function"
    },
    {
      "inputs": [
        {
          "internalType": "bytes32",
          "name": "poolId",
          "type": "bytes32"
        },
        {
          "internalType": "address",
          "name": "sender",
          "type": "address"
        },
        {
          "internalType": "address",
          "name": "recipient",
          "type": "address"
        },
        {
          "components": [
            {
              "internalType": "contract IAsset[]",
              "name": "assets",
              "type": "address[]"
            },
            {
              "internalType": "uint256[]",
              "name": "minAmountsOut",
              "type": "uint256[]"
            },
            {
              "internalType": "bytes",
              "name": "userData",
              "type": "bytes"
            },
            {
              "internalType": "bool",
              "name": "toInternalBalance",
              "type": "bool"
            }
          ],
          "internalType": "struct IVault.ExitPoolRequest",
          "name": "request",
          "type": "tuple"
        }
      ],
      "name": "queryExit",
      "outputs": [
        {
          "internalType": "uint256",
          "name": "bptIn",
          "type": "uint256"
        },
        {
          "internalType": "uint256[]",
          "name": "amountsOut",
          "type": "uint256[]"
        }
      ],
      "stateMutability": "nonpayable",
      "type": "function"
    },
    {
      "inputs": [
        {
          "internalType": "bytes32",
          "name": "poolId",
          "type": "bytes32"
        },
        {
          "internalType": "address",
          "name": "sender",
          "type": "address"
        },
        {
          "internalType": "address",
          "name": "recipient",
          "type": "address"
        },
        {
          "components": [
            {
              "internalType": "contract IAsset[]",
              "name": "assets",
              "type": "address[]"
            },
            {
              "internalType": "uint256[]",
              "name": "maxAmountsIn",
              "type": "uint256[]"
            },
            {
              "internalType": "bytes",
              "name": "userData",
              "type": "bytes"
            },
            {
              "internalType": "bool",
              "name": "fromInternalBalance",
              "type": "bool"
            }
          ],
          "internalType": "struct IVault.JoinPoolRequest",
          "name": "request",
          "type": "tuple"
        }
      ],
      "name": "queryJoin",
      "outputs": [
        {
          "internalType": "uint256",
          "name": "bptOut",
          "type": "uint256"
        },
        {
          "internalType": "uint256[]",
          "name": "amountsIn",
          "type": "uint256[]"
        }
      ],
      "stateMutability": "nonpayable",
      "type": "function"
    },
    {
      "inputs": [],
      "name": "vault",
      "outputs": [
        {
          "internalType": "contract IVault",
          "name": "",
          "type": "address"
        }
      ],
      "stateMutability": "view",
      "type": "function"
    }
  ],
  "bytecode": "0x60c06040523480156200001157600080fd5b50604051620023893803806200238983398181016040528101906200003791906200029b565b8073ffffffffffffffffffffffffffffffffffffffff1663ad5c46486040518163ffffffff1660e01b815260040160206040518083038186803b1580156200007e57600080fd5b505afa15801562000093573d6000803e3d6000fd5b505050506040513d601f19601f82011682018060405250810190620000b99190620002c7565b620000ed7f013d028b605e144ad0543b3a03b5964c94038553f0521804c4b62738963b07e560001b6200026760201b60201c565b620001217f7e9643a0f0f3e186bcd8b42fb5a81d433d5de7d3a7923fbe522d8b5a025065a560001b6200026760201b60201c565b620001557f0844c661234126a043ee272f506f12325218a985f8067bb5773802b80236d3de60001b6200026760201b60201c565b8073ffffffffffffffffffffffffffffffffffffffff1660808173ffffffffffffffffffffffffffffffffffffffff1660601b8152505050620001c17f1d99b13b82232d57bef578b69fd017057a5835e24ecd4ee273a60d7b5516f1b360001b6200026a60201b60201c565b620001f57f3ec248c48d3dea4f34bade22ffc54b42462698c8bb466c86dd7d07cd3671d6bb60001b6200026a60201b60201c565b620002297fb2880978bffc0ead5c98336a2134bad3b312629be8c39c24b5028ac7859f56de60001b6200026a60201b60201c565b8073ffffffffffffffffffffffffffffffffffffffff1660a08173ffffffffffffffffffffffffffffffffffffffff1660601b815250505062000383565b50565b50565b6000815190506200027e816200034f565b92915050565b600081519050620002958162000369565b92915050565b600060208284031215620002ae57600080fd5b6000620002be848285016200026d565b91505092915050565b600060208284031215620002da57600080fd5b6000620002ea8482850162000284565b91505092915050565b600062000300826200032f565b9050919050565b60006200031482620002f3565b9050919050565b60006200032882620002f3565b9050919050565b600073ffffffffffffffffffffffffffffffffffffffff82169050919050565b6200035a8162000307565b81146200036657600080fd5b50565b62000374816200031b565b81146200038057600080fd5b50565b60805160601c60a05160601c611fc3620003c6600039806101b3528061032652806105dd5280610750528061097a5280610ae552508061138c5250611fc36000f3fe608060405234801561001057600080fd5b50600436106100675760003560e01c8063a466644311610050578063a4666443146100b9578063c7b2c52c146100d5578063fbfa77cf1461010657610067565b80637330b31e1461006c5780639ebbf05d14610088575b600080fd5b61008660048036038101906100819190611915565b610124565b005b6100a2600480360381019061009d91906119b9565b610127565b6040516100b0929190611c87565b60405180910390f35b6100d360048036038101906100ce9190611915565b61054e565b005b6100ef60048036038101906100ea919061193e565b610551565b6040516100fd929190611c87565b60405180910390f35b61010e610978565b60405161011b9190611c6c565b60405180910390f35b50565b600060606101577f4a7b30deb87d180b291dffebf3c0492721870b1d630c3cafe9edd62a6522d1c060001b610124565b6101837f282d5409f544fff574013193c92a7628bac4453539ff05d7a11137939cc8ec9160001b610124565b6101af7ffc7818fb12f9fb871fc48055173064d8c11b48e94e4db71352b5f578bfc075d060001b610124565b60007f000000000000000000000000000000000000000000000000000000000000000073ffffffffffffffffffffffffffffffffffffffff1663f6c00927886040518263ffffffff1660e01b815260040161020a9190611bd4565b604080518083038186803b15801561022157600080fd5b505afa158015610235573d6000803e3d6000fd5b505050506040513d601f19601f82011682018060405250810190610259919061185a565b5090506102887fd4e4e3437cbaee977cb3e180da79176d6794f5b951da18e27e8945d89c9717d560001b610124565b6102b47fb86ba2367cfbe4dcb4343da9246f3a0ce9238ea4176d6d4be10abe72cf57b9a860001b610124565b606060006102c689876000015161099c565b915091506102f67feb518577628bdf2e6796feece0b377726e5a214b36e5a262b4b19b73f45378bb60001b610124565b6103227fb356379368038ca2378b634aab56ccbb4c46f5b1736fbf07008f53b25f4e6a0860001b610124565b60007f000000000000000000000000000000000000000000000000000000000000000073ffffffffffffffffffffffffffffffffffffffff1663d2946c2b6040518163ffffffff1660e01b815260040160206040518083038186803b15801561038a57600080fd5b505afa15801561039e573d6000803e3d6000fd5b505050506040513d601f19601f820116820180604052508101906103c29190611a34565b90506103f07f6f8942921ba5fc20cd08da3bde805e7ec3159241010231dd49b8713924398f8260001b610124565b61041c7fdfcd08e88730597260b974c07c1466572b1225b5212a53a10c98f5308946ab5360001b610124565b8373ffffffffffffffffffffffffffffffffffffffff166387ec68178b8b8b87878773ffffffffffffffffffffffffffffffffffffffff166355c676286040518163ffffffff1660e01b815260040160206040518083038186803b15801561048357600080fd5b505afa158015610497573d6000803e3d6000fd5b505050506040513d601f19601f820116820180604052508101906104bb9190611a5d565b8e604001516040518863ffffffff1660e01b81526004016104e29796959493929190611bef565b600060405180830381600087803b1580156104fc57600080fd5b505af1158015610510573d6000803e3d6000fd5b505050506040513d6000823e3d601f19601f820116820180604052508101906105399190611a86565b80965081975050505050505094509492505050565b50565b600060606105817f1e6a95f8492f5be7f6576cb954bc1bef81c79359f1fb43711edff53ad1354ef060001b610124565b6105ad7fa24e008344dd82fd2a7e6adcb09739feb085fed346e8b678774479005742469160001b610124565b6105d97f37350632dad8a0be029672743993898285a161ceacbdc1b893f50cd400a3169f60001b610124565b60007f000000000000000000000000000000000000000000000000000000000000000073ffffffffffffffffffffffffffffffffffffffff1663f6c00927886040518263ffffffff1660e01b81526004016106349190611bd4565b604080518083038186803b15801561064b57600080fd5b505afa15801561065f573d6000803e3d6000fd5b505050506040513d601f19601f82011682018060405250810190610683919061185a565b5090506106b27ffb836601e8693f42a2fe8c5ba4aca4dd87d6e3590501b411da09631484723ed760001b610124565b6106de7f3d6b32e94a9b2f10fcd7eccffeb6ec624815796b11dfbedb76968061a9e6bb6760001b610124565b606060006106f089876000015161099c565b915091506107207fda11d1193a07fac8b58429976e9733611195ba4d5b2661f5f4af7b542812d38a60001b610124565b61074c7ff8048a4493af8831add041bf33a5ac271a256a9a3364f8aca458095fb7d166dc60001b610124565b60007f000000000000000000000000000000000000000000000000000000000000000073ffffffffffffffffffffffffffffffffffffffff1663d2946c2b6040518163ffffffff1660e01b815260040160206040518083038186803b1580156107b457600080fd5b505afa1580156107c8573d6000803e3d6000fd5b505050506040513d601f19601f820116820180604052508101906107ec9190611a34565b905061081a7fa491d9c6cf103c6cb8250f8168389da9885bd5d4f4d2ef615b8f66a20b0a14e660001b610124565b6108467fea05b81f1467e1819459db882d8b74cea9043fbc87cf4cb3c7cefc141e44c5d160001b610124565b8373ffffffffffffffffffffffffffffffffffffffff16636028bfd48b8b8b87878773ffffffffffffffffffffffffffffffffffffffff166355c676286040518163ffffffff1660e01b815260040160206040518083038186803b1580156108ad57600080fd5b505afa1580156108c1573d6000803e3d6000fd5b505050506040513d601f19601f820116820180604052508101906108e59190611a5d565b8e604001516040518863ffffffff1660e01b815260040161090c9796959493929190611bef565b600060405180830381600087803b15801561092657600080fd5b505af115801561093a573d6000803e3d6000fd5b505050506040513d6000823e3d601f19601f820116820180604052508101906109639190611a86565b80965081975050505050505094509492505050565b7f000000000000000000000000000000000000000000000000000000000000000081565b606060006109cc7f51314c2a4891d903113526536ceaa910c8ebd2ad6bde340e4cf32b86da7ab81d60001b610124565b6109f87f5a9c50581b2b729ff78aceba1cf5a2de34c9389c8c779f182dc9d6beaf0be33d60001b610124565b610a247f9bd3c1666f4dfb8502f24ae22ab71f485869c935d5da3af7c923a5e1d68fbbf260001b610124565b6060610a527feca77d6381993e833235ce2ce38163b43986b005321cf15711bfa7544340df8b60001b610124565b610a7e7f73963e583ccf51910f6397d399a1a4258295ca44da626b7b6effa5b74974c2fd60001b610124565b6060610a8985610d90565b9050610ab77f482c77a7521f739812a0d6a99ad7e4af74d0fe8969ca5d397e23c5e0859412b360001b610124565b610ae37fd1b9575f10f7aa2fbd2b4b3d9b24048d21517c3a5539a74dbc9a14b6b8354cb560001b610124565b7f000000000000000000000000000000000000000000000000000000000000000073ffffffffffffffffffffffffffffffffffffffff1663f94d4668876040518263ffffffff1660e01b8152600401610b3c9190611bd4565b60006040518083038186803b158015610b5457600080fd5b505afa158015610b68573d6000803e3d6000fd5b505050506040513d6000823e3d601f19601f82011682018060405250810190610b919190611896565b809550819650829450505050610bc97f1854bb9c7a6ee11c188ae114977104e58a4d8812d45115e6643401637592ad2160001b610124565b610bf57f43da5f83303f1a26297b9e3e8cb078f2bd07debf1b6d526f5e3936243ea957ca60001b610124565b610c0182518251610fed565b610c2d7f7e962eae5882907cd8f39628c7c7700505bd1e4e8ec00e643a69bee709c5cb7360001b610124565b610c597f7b0256868eae0f4ed814e41fbdcc665f76bc525a9ce8ab5f3d5872cc66bdf4a260001b610124565b60005b8251811015610d8657610c917fcb1c0eb0e1f80f2eebeb9b0f61d78753196ab041cded2c82d4e1cdc575e79fcd60001b610124565b610cbd7f9ac5de7f27b6b02f2ee05a7ce57e3cc96777ec5b4fefbd9be183cb05535336e960001b610124565b6000838281518110610ccb57fe5b60200260200101519050610d017f778e813c9b906a6230e82f34d27d9e515b9e06ce3ad774610861ffe22bd4030e60001b610124565b610d2d7f4145394748bc0a38a18e8846246882fc22869df70ae3aafa57349e7aada9ec3560001b610124565b610d7a838381518110610d3c57fe5b602002602001015173ffffffffffffffffffffffffffffffffffffffff168273ffffffffffffffffffffffffffffffffffffffff1614610208611082565b50806001019050610c5c565b5050509250929050565b6060610dbe7f4a293acdb5815ad2b5781674c590b63c3629980d550f9bf5e8b755ca45a929bd60001b61054e565b610dea7f11248067449c5d164ff8f10039cb4ecde87c644ba993b99d0649cb50dfe9a6c460001b61054e565b610e167f5f1f0125db9b24d132a7a9db6e45af306addeb0ef40bb1536266cd01d330294260001b61054e565b6060825167ffffffffffffffff81118015610e3057600080fd5b50604051908082528060200260200182016040528015610e5f5781602001602082028036833780820191505090505b509050610e8e7f1ab442eb667620757828384260566657883714a883f38eac071f6a07cc62792b60001b61054e565b610eba7f0cf73a4e635d1a978b97e46765b7c08ef499a24a458da8c5e8d0861d73102dd660001b61054e565b60005b8351811015610f8b57610ef27fa956b3544665402d56c85ada72c95d9b22f8804358e03364777141c8c873e8a660001b61054e565b610f1e7f38ef7b073924efc16d6db192b15086fa5207075cfc594dbef6a73e9a03e54ca260001b61054e565b610f3a848281518110610f2d57fe5b6020026020010151611095565b828281518110610f4657fe5b602002602001019073ffffffffffffffffffffffffffffffffffffffff16908173ffffffffffffffffffffffffffffffffffffffff1681525050806001019050610ebd565b50610fb87faaa2e9f5c0c9d465856fb8969918cf404119106a9446030730ab496bcba706ca60001b61054e565b610fe47f5dce9f15ce104e94301e4316cc20f797657acfc20542e7e8709aaa130c1786ab60001b61054e565b80915050919050565b6110197fb3c3ab71be1e60ccf374cd9c337f5c94a091891a248ffd88815355718b38f5cf60001b611146565b6110457f23a34501b370f017ac0b72a81570395801e215d15ea760153f3abbf09eb0167360001b611146565b6110717ff006c498284d347b1bc1a6a27ae455ca2c77693be39b0bf5701f8175df7eb3a460001b611146565b61107e8183146067611082565b5050565b816110915761109081611149565b5b5050565b60006110c37f33b182daa5466ac56b92c44d07d72c3fd035bcdce5f2661a863d4333d1a1194260001b61054e565b6110ef7f0cc6471c1b3a9a90f56eacca29d21d3ce6f57046ff37961e2db57503d912b7ba60001b61054e565b61111b7fd0fdef3f722dee5b086c68e858ece7f1aff96255861f23e503bdb40004ac87c660001b61054e565b611124826111b9565b6111365761113182611276565b61113f565b61113e611304565b5b9050919050565b50565b6030600a820601600a820491506030600a830601600a830492506030600a8406018060101b8260081b8401016642414c230000000160c81b7f08c379a000000000000000000000000000000000000000000000000000000000600052602060045260076024528060445260646000fd5b60006111e77feb44165fe5222fd8fc06bdaeb547ee3bff71d9e9eaa5e9acf66becbda842d09f60001b61054e565b6112137fe3ad10eba48dcc8f63f6e234edd95a6c642ba7336c519d1c6a83929db4ad6c5d60001b61054e565b61123f7f9470660fb4d6408af8ad415aefdc73d088a428f47b0b1f1c3ecf248636b7f3bd60001b61054e565b600073ffffffffffffffffffffffffffffffffffffffff168273ffffffffffffffffffffffffffffffffffffffff16149050919050565b60006112a47fd326dbd782765a9d6f5e249c9577b68bdcdee3d9a9827d6ecc4168aeb641ce7c60001b61054e565b6112d07fd933192cbff1eb425ff76cda7b57f22a8c984f044fef08c493b1171b6a89334e60001b61054e565b6112fc7fa7a9b1b21f01d47e3ba696e215e0bcf458517839aa8304b31a2f3fc51aeb321860001b61054e565b819050919050565b60006113327f8245b79f6bcb846eeb8dc205799ad8d040ccce3a1457895949aaee86aac84ef060001b61054e565b61135e7f3a8f2aef87325f1b9e1356146152a3f280aa056d445a810382df6b5c67117e1c60001b61054e565b61138a7fb337c9a52dc1a1a52cbfc6319b8fe849e5f713f5ca82c069dad147710b3b7d2c60001b61054e565b7f0000000000000000000000000000000000000000000000000000000000000000905090565b6000813590506113bf81611edc565b92915050565b6000815190506113d481611edc565b92915050565b600082601f8301126113eb57600080fd5b81356113fe6113f982611ce4565b611cb7565b9150818183526020840193506020810190508385602084028201111561142357600080fd5b60005b8381101561145357816114398882611664565b845260208401935060208301925050600181019050611426565b5050505092915050565b600082601f83011261146e57600080fd5b815161148161147c82611d0c565b611cb7565b915081818352602084019350602081019050838560208402820111156114a657600080fd5b60005b838110156114d657816114bc8882611679565b8452602084019350602083019250506001810190506114a9565b5050505092915050565b600082601f8301126114f157600080fd5b81356115046114ff82611d34565b611cb7565b9150818183526020840193506020810190508385602084028201111561152957600080fd5b60005b83811015611559578161153f8882611830565b84526020840193506020830192505060018101905061152c565b5050505092915050565b600082601f83011261157457600080fd5b815161158761158282611d34565b611cb7565b915081818352602084019350602081019050838560208402820111156115ac57600080fd5b60005b838110156115dc57816115c28882611845565b8452602084019350602083019250506001810190506115af565b5050505092915050565b6000813590506115f581611ef3565b92915050565b60008135905061160a81611f0a565b92915050565b600082601f83011261162157600080fd5b813561163461162f82611d5c565b611cb7565b9150808252602083016020830185838301111561165057600080fd5b61165b838284611e89565b50505092915050565b60008135905061167381611f21565b92915050565b60008151905061168881611f38565b92915050565b60008151905061169d81611f4f565b92915050565b6000815190506116b281611f66565b92915050565b6000608082840312156116ca57600080fd5b6116d46080611cb7565b9050600082013567ffffffffffffffff8111156116f057600080fd5b6116fc848285016113da565b600083015250602082013567ffffffffffffffff81111561171c57600080fd5b611728848285016114e0565b602083015250604082013567ffffffffffffffff81111561174857600080fd5b61175484828501611610565b6040830152506060611768848285016115e6565b60608301525092915050565b60006080828403121561178657600080fd5b6117906080611cb7565b9050600082013567ffffffffffffffff8111156117ac57600080fd5b6117b8848285016113da565b600083015250602082013567ffffffffffffffff8111156117d857600080fd5b6117e4848285016114e0565b602083015250604082013567ffffffffffffffff81111561180457600080fd5b61181084828501611610565b6040830152506060611824848285016115e6565b60608301525092915050565b60008135905061183f81611f76565b92915050565b60008151905061185481611f76565b92915050565b6000806040838503121561186d57600080fd5b600061187b858286016113c5565b925050602061188c858286016116a3565b9150509250929050565b6000806000606084860312156118ab57600080fd5b600084015167ffffffffffffffff8111156118c557600080fd5b6118d18682870161145d565b935050602084015167ffffffffffffffff8111156118ee57600080fd5b6118fa86828701611563565b925050604061190b86828701611845565b9150509250925092565b60006020828403121561192757600080fd5b6000611935848285016115fb565b91505092915050565b6000806000806080858703121561195457600080fd5b6000611962878288016115fb565b9450506020611973878288016113b0565b9350506040611984878288016113b0565b925050606085013567ffffffffffffffff8111156119a157600080fd5b6119ad878288016116b8565b91505092959194509250565b600080600080608085870312156119cf57600080fd5b60006119dd878288016115fb565b94505060206119ee878288016113b0565b93505060406119ff878288016113b0565b925050606085013567ffffffffffffffff811115611a1c57600080fd5b611a2887828801611774565b91505092959194509250565b600060208284031215611a4657600080fd5b6000611a548482850161168e565b91505092915050565b600060208284031215611a6f57600080fd5b6000611a7d84828501611845565b91505092915050565b60008060408385031215611a9957600080fd5b6000611aa785828601611845565b925050602083015167ffffffffffffffff811115611ac457600080fd5b611ad085828601611563565b9150509250929050565b6000611ae68383611bb6565b60208301905092915050565b611afb81611ddd565b82525050565b6000611b0c82611d98565b611b168185611dbb565b9350611b2183611d88565b8060005b83811015611b52578151611b398882611ada565b9750611b4483611dae565b925050600181019050611b25565b5085935050505092915050565b611b6881611dfb565b82525050565b6000611b7982611da3565b611b838185611dcc565b9350611b93818560208601611e98565b611b9c81611ecb565b840191505092915050565b611bb081611e65565b82525050565b611bbf81611e5b565b82525050565b611bce81611e5b565b82525050565b6000602082019050611be96000830184611b5f565b92915050565b600060e082019050611c04600083018a611b5f565b611c116020830189611af2565b611c1e6040830188611af2565b8181036060830152611c308187611b01565b9050611c3f6080830186611bc5565b611c4c60a0830185611bc5565b81810360c0830152611c5e8184611b6e565b905098975050505050505050565b6000602082019050611c816000830184611ba7565b92915050565b6000604082019050611c9c6000830185611bc5565b8181036020830152611cae8184611b01565b90509392505050565b6000604051905081810181811067ffffffffffffffff82111715611cda57600080fd5b8060405250919050565b600067ffffffffffffffff821115611cfb57600080fd5b602082029050602081019050919050565b600067ffffffffffffffff821115611d2357600080fd5b602082029050602081019050919050565b600067ffffffffffffffff821115611d4b57600080fd5b602082029050602081019050919050565b600067ffffffffffffffff821115611d7357600080fd5b601f19601f8301169050602081019050919050565b6000819050602082019050919050565b600081519050919050565b600081519050919050565b6000602082019050919050565b600082825260208201905092915050565b600082825260208201905092915050565b6000611de882611e3b565b9050919050565b60008115159050919050565b6000819050919050565b6000611e1082611ddd565b9050919050565b6000611e2282611ddd565b9050919050565b6000611e3482611ddd565b9050919050565b600073ffffffffffffffffffffffffffffffffffffffff82169050919050565b6000819050919050565b6000611e7082611e77565b9050919050565b6000611e8282611e3b565b9050919050565b82818337600083830152505050565b60005b83811015611eb6578082015181840152602081019050611e9b565b83811115611ec5576000848401525b50505050565b6000601f19601f8301169050919050565b611ee581611ddd565b8114611ef057600080fd5b50565b611efc81611def565b8114611f0757600080fd5b50565b611f1381611dfb565b8114611f1e57600080fd5b50565b611f2a81611e05565b8114611f3557600080fd5b50565b611f4181611e17565b8114611f4c57600080fd5b50565b611f5881611e29565b8114611f6357600080fd5b50565b60038110611f7357600080fd5b50565b611f7f81611e5b565b8114611f8a57600080fd5b5056fea2646970667358221220c3f5fad70dc0b0351cb6dfd9f2e83a8c6f687409f53d94559739b8323bfe2a3b64736f6c63430007010033",
  "linkReferences": {},
  "deployedLinkReferences": {}
}