{
  "_format": "hh-sol-artifact-1",
  "contractName": "MockStableMath",
  "sourceName": "contracts/balancer-core-v2/test/MockStableMath.sol",
  "abi": [
    {
      "inputs": [
        {
          "internalType": "uint256",
          "name": "amp",
          "type": "uint256"
        },
        {
          "internalType": "uint256[]",
          "name": "balances",
          "type": "uint256[]"
        },
        {
          "internalType": "uint256[]",
          "name": "amountsOut",
          "type": "uint256[]"
        },
        {
          "internalType": "uint256",
          "name": "bptTotalSupply",
          "type": "uint256"
        },
        {
          "internalType": "uint256",
          "name": "swapFee",
          "type": "uint256"
        }
      ],
      "name": "bptInForExactTokensOut",
      "outputs": [
        {
          "internalType": "uint256",
          "name": "",
          "type": "uint256"
        }
      ],
      "stateMutability": "pure",
      "type": "function"
    },
    {
      "inputs": [
        {
          "internalType": "bytes32",
          "name": "c__0x573b7573",
          "type": "bytes32"
        }
      ],
      "name": "c_0x573b7573",
      "outputs": [],
      "stateMutability": "pure",
      "type": "function"
    },
    {
      "inputs": [
        {
          "internalType": "bytes32",
          "name": "c__0xa4924c18",
          "type": "bytes32"
        }
      ],
      "name": "c_0xa4924c18",
      "outputs": [],
      "stateMutability": "pure",
      "type": "function"
    },
    {
      "inputs": [
        {
          "internalType": "uint256",
          "name": "amp",
          "type": "uint256"
        },
        {
          "internalType": "uint256[]",
          "name": "balances",
          "type": "uint256[]"
        },
        {
          "internalType": "uint256",
          "name": "lastInvariant",
          "type": "uint256"
        },
        {
          "internalType": "uint256",
          "name": "tokenIndex",
          "type": "uint256"
        },
        {
          "internalType": "uint256",
          "name": "protocolSwapFeePercentage",
          "type": "uint256"
        }
      ],
      "name": "calculateDueTokenProtocolSwapFeeAmount",
      "outputs": [
        {
          "internalType": "uint256",
          "name": "",
          "type": "uint256"
        }
      ],
      "stateMutability": "pure",
      "type": "function"
    },
    {
      "inputs": [
        {
          "internalType": "uint256",
          "name": "amp",
          "type": "uint256"
        },
        {
          "internalType": "uint256[]",
          "name": "balances",
          "type": "uint256[]"
        },
        {
          "internalType": "uint256",
          "name": "tokenIndex",
          "type": "uint256"
        },
        {
          "internalType": "uint256",
          "name": "bptAmountIn",
          "type": "uint256"
        },
        {
          "internalType": "uint256",
          "name": "bptTotalSupply",
          "type": "uint256"
        },
        {
          "internalType": "uint256",
          "name": "swapFee",
          "type": "uint256"
        }
      ],
      "name": "exactBPTInForTokenOut",
      "outputs": [
        {
          "internalType": "uint256",
          "name": "",
          "type": "uint256"
        }
      ],
      "stateMutability": "pure",
      "type": "function"
    },
    {
      "inputs": [
        {
          "internalType": "uint256[]",
          "name": "balances",
          "type": "uint256[]"
        },
        {
          "internalType": "uint256",
          "name": "bptAmountIn",
          "type": "uint256"
        },
        {
          "internalType": "uint256",
          "name": "bptTotalSupply",
          "type": "uint256"
        }
      ],
      "name": "exactBPTInForTokensOut",
      "outputs": [
        {
          "internalType": "uint256[]",
          "name": "",
          "type": "uint256[]"
        }
      ],
      "stateMutability": "pure",
      "type": "function"
    },
    {
      "inputs": [
        {
          "internalType": "uint256",
          "name": "amp",
          "type": "uint256"
        },
        {
          "internalType": "uint256[]",
          "name": "balances",
          "type": "uint256[]"
        },
        {
          "internalType": "uint256[]",
          "name": "amountsIn",
          "type": "uint256[]"
        },
        {
          "internalType": "uint256",
          "name": "bptTotalSupply",
          "type": "uint256"
        },
        {
          "internalType": "uint256",
          "name": "swapFee",
          "type": "uint256"
        }
      ],
      "name": "exactTokensInForBPTOut",
      "outputs": [
        {
          "internalType": "uint256",
          "name": "",
          "type": "uint256"
        }
      ],
      "stateMutability": "pure",
      "type": "function"
    },
    {
      "inputs": [
        {
          "internalType": "uint256",
          "name": "amp",
          "type": "uint256"
        },
        {
          "internalType": "uint256[]",
          "name": "balances",
          "type": "uint256[]"
        },
        {
          "internalType": "uint256",
          "name": "tokenIndexIn",
          "type": "uint256"
        },
        {
          "internalType": "uint256",
          "name": "tokenIndexOut",
          "type": "uint256"
        },
        {
          "internalType": "uint256",
          "name": "tokenAmountOut",
          "type": "uint256"
        }
      ],
      "name": "inGivenOut",
      "outputs": [
        {
          "internalType": "uint256",
          "name": "",
          "type": "uint256"
        }
      ],
      "stateMutability": "pure",
      "type": "function"
    },
    {
      "inputs": [
        {
          "internalType": "uint256",
          "name": "amp",
          "type": "uint256"
        },
        {
          "internalType": "uint256[]",
          "name": "balances",
          "type": "uint256[]"
        }
      ],
      "name": "invariant",
      "outputs": [
        {
          "internalType": "uint256",
          "name": "",
          "type": "uint256"
        }
      ],
      "stateMutability": "pure",
      "type": "function"
    },
    {
      "inputs": [
        {
          "internalType": "uint256",
          "name": "amp",
          "type": "uint256"
        },
        {
          "internalType": "uint256[]",
          "name": "balances",
          "type": "uint256[]"
        },
        {
          "internalType": "uint256",
          "name": "tokenIndexIn",
          "type": "uint256"
        },
        {
          "internalType": "uint256",
          "name": "tokenIndexOut",
          "type": "uint256"
        },
        {
          "internalType": "uint256",
          "name": "tokenAmountIn",
          "type": "uint256"
        }
      ],
      "name": "outGivenIn",
      "outputs": [
        {
          "internalType": "uint256",
          "name": "",
          "type": "uint256"
        }
      ],
      "stateMutability": "pure",
      "type": "function"
    },
    {
      "inputs": [
        {
          "internalType": "uint256",
          "name": "amp",
          "type": "uint256"
        },
        {
          "internalType": "uint256[]",
          "name": "balances",
          "type": "uint256[]"
        },
        {
          "internalType": "uint256",
          "name": "tokenIndex",
          "type": "uint256"
        },
        {
          "internalType": "uint256",
          "name": "bptAmountOut",
          "type": "uint256"
        },
        {
          "internalType": "uint256",
          "name": "bptTotalSupply",
          "type": "uint256"
        },
        {
          "internalType": "uint256",
          "name": "swapFee",
          "type": "uint256"
        }
      ],
      "name": "tokenInForExactBPTOut",
      "outputs": [
        {
          "internalType": "uint256",
          "name": "",
          "type": "uint256"
        }
      ],
      "stateMutability": "pure",
      "type": "function"
    }
  ],
  "bytecode": "0x608060405234801561001057600080fd5b5061628480620000216000396000f3fe608060405234801561001057600080fd5b50600436106100c95760003560e01c80639cd91d3f11610081578063cf1b8c8c1161005b578063cf1b8c8c1461080f578063db7ad3f21461090d578063fe2dd7ba14610a01576100c9565b80639cd91d3f1461056f578063a89d425914610663578063bec5fe29146107e1576100c9565b806333009921116100b257806333009921146102c5578063405de978146102f35780636fc82f29146103f1576100c9565b8063155bfcb8146100ce5780631c855fa6146101a4575b600080fd5b61018e600480360360408110156100e457600080fd5b81019080803590602001909291908035906020019064010000000081111561010b57600080fd5b82018360208201111561011d57600080fd5b8035906020019184602083028401116401000000008311171561013f57600080fd5b919080806020026020016040519081016040528093929190818152602001838360200280828437600081840152601f19601f820116905080830192505050505050509192919290505050610af5565b6040518082815260200191505060405180910390f35b61026e600480360360608110156101ba57600080fd5b81019080803590602001906401000000008111156101d757600080fd5b8201836020820111156101e957600080fd5b8035906020019184602083028401116401000000008311171561020b57600080fd5b919080806020026020016040519081016040528093929190818152602001838360200280828437600081840152601f19601f8201169050808301925050505050505091929192908035906020019092919080359060200190929190505050610b8d565b6040518080602001828103825283818151815260200191508051906020019060200280838360005b838110156102b1578082015181840152602081019050610296565b505050509050019250505060405180910390f35b6102f1600480360360208110156102db57600080fd5b8101908080359060200190929190505050610c27565b005b6103db600480360360c081101561030957600080fd5b81019080803590602001909291908035906020019064010000000081111561033057600080fd5b82018360208201111561034257600080fd5b8035906020019184602083028401116401000000008311171561036457600080fd5b919080806020026020016040519081016040528093929190818152602001838360200280828437600081840152601f19601f82011690508083019250505050505050919291929080359060200190929190803590602001909291908035906020019092919080359060200190929190505050610c2a565b6040518082815260200191505060405180910390f35b610559600480360360a081101561040757600080fd5b81019080803590602001909291908035906020019064010000000081111561042e57600080fd5b82018360208201111561044057600080fd5b8035906020019184602083028401116401000000008311171561046257600080fd5b919080806020026020016040519081016040528093929190818152602001838360200280828437600081840152601f19601f820116905080830192505050505050509192919290803590602001906401000000008111156104c257600080fd5b8201836020820111156104d457600080fd5b803590602001918460208302840111640100000000831117156104f657600080fd5b919080806020026020016040519081016040528093929190818152602001838360200280828437600081840152601f19601f8201169050808301925050505050505091929192908035906020019092919080359060200190929190505050610cca565b6040518082815260200191505060405180910390f35b61064d600480360360a081101561058557600080fd5b8101908080359060200190929190803590602001906401000000008111156105ac57600080fd5b8201836020820111156105be57600080fd5b803590602001918460208302840111640100000000831117156105e057600080fd5b919080806020026020016040519081016040528093929190818152602001838360200280828437600081840152601f19601f820116905080830192505050505050509192919290803590602001909291908035906020019092919080359060200190929190505050610d68565b6040518082815260200191505060405180910390f35b6107cb600480360360a081101561067957600080fd5b8101908080359060200190929190803590602001906401000000008111156106a057600080fd5b8201836020820111156106b257600080fd5b803590602001918460208302840111640100000000831117156106d457600080fd5b919080806020026020016040519081016040528093929190818152602001838360200280828437600081840152601f19601f8201169050808301925050505050505091929192908035906020019064010000000081111561073457600080fd5b82018360208201111561074657600080fd5b8035906020019184602083028401116401000000008311171561076857600080fd5b919080806020026020016040519081016040528093929190818152602001838360200280828437600081840152601f19601f8201169050808301925050505050505091929192908035906020019092919080359060200190929190505050610e06565b6040518082815260200191505060405180910390f35b61080d600480360360208110156107f757600080fd5b8101908080359060200190929190505050610ea4565b005b6108f7600480360360c081101561082557600080fd5b81019080803590602001909291908035906020019064010000000081111561084c57600080fd5b82018360208201111561085e57600080fd5b8035906020019184602083028401116401000000008311171561088057600080fd5b919080806020026020016040519081016040528093929190818152602001838360200280828437600081840152601f19601f82011690508083019250505050505050919291929080359060200190929190803590602001909291908035906020019092919080359060200190929190505050610ea7565b6040518082815260200191505060405180910390f35b6109eb600480360360a081101561092357600080fd5b81019080803590602001909291908035906020019064010000000081111561094a57600080fd5b82018360208201111561095c57600080fd5b8035906020019184602083028401116401000000008311171561097e57600080fd5b919080806020026020016040519081016040528093929190818152602001838360200280828437600081840152601f19601f820116905080830192505050505050509192919290803590602001909291908035906020019092919080359060200190929190505050610f47565b6040518082815260200191505060405180910390f35b610adf600480360360a0811015610a1757600080fd5b810190808035906020019092919080359060200190640100000000811115610a3e57600080fd5b820183602082011115610a5057600080fd5b80359060200191846020830284011164010000000083111715610a7257600080fd5b919080806020026020016040519081016040528093929190818152602001838360200280828437600081840152601f19601f820116905080830192505050505050509192919290803590602001909291908035906020019092919080359060200190929190505050610fe5565b6040518082815260200191505060405180910390f35b6000610b237fa8eb9a9aa9426521accb9615e79854eeb818bec977bcf2c5af3c7c32d925d9bf60001b610ea4565b610b4f7fc6987eeac997fd4fac3b59a2066754b372ff29d4b9d08a4b40050578313a5b5c60001b610ea4565b610b7b7fb4b46087c611a576d48e952ed6a4fa318f99a1b6050e3f0ecd769a12faea381560001b610ea4565b610b858383611083565b905092915050565b6060610bbb7fb78c267ebd088ff4f26b2fdb293ccf2cd93a874d5a234c791668782adf6451bb60001b610ea4565b610be77fa2bd48f5c8bf0ef970978002c9094d440c7474dc09ede8adde8c23616a267bdb60001b610ea4565b610c137fe4c185d077f24f8a59e95d074b1042aca0d4206cc5e70b75d15d4e3eb2d803f360001b610ea4565b610c1e848484611aad565b90509392505050565b50565b6000610c587f37b1e0505dbed9cce24851dfb98f678223e9431b1d62fb476811abf9423d069a60001b610ea4565b610c847f62030098237339dfeda5aa2c4eccf6c4a9b6c41d8ffdf52c969252c4ddaf211a60001b610ea4565b610cb07f316b58651b83ff8de418bf30d4fceb87d65e391c32055e558664baca7e0d0d8460001b610ea4565b610cbe878787878787611d5a565b90509695505050505050565b6000610cf87f10018863e55d3eac0c7e6f69bd97e0f108d50fb1a5bbcfdff502e58e65c0204660001b610ea4565b610d247f7ae8fc07ae97da13fd6fae2383c006868903e0d49f2c8c33f2f748577f303c0860001b610ea4565b610d507fde76db443456b6201cb886223a843790507f9ae951885b965a13152caf47d64460001b610ea4565b610d5d8686868686612294565b905095945050505050565b6000610d967f3a1950e8e534a35edda3698e60c3202619514549e45a00198226983dc47c3f0760001b610ea4565b610dc27f4f365eca49b56dbd6e0c747ebde327f125056fe11c1a73e89470dbc24e9bce4960001b610ea4565b610dee7f5c75bf2ffbaecba7f4993f776d18313d7b24f6f5d89b453218cccafc67a247f660001b610ea4565b610dfb8686868686612dc2565b905095945050505050565b6000610e347fc67a1f499818072de9d10fbf2f5c410377256f944ac0d37c60c96245b87a268960001b610ea4565b610e607ffa66b059148e3279534e5e3ce80e2b41e8926aa2c411f4acaca31b7d812a339b60001b610ea4565b610e8c7f5f4d6e5eef1fe7ed5e090765a90a07794a3797df74bb276e512529d7f987ab5a60001b610ea4565b610e998686868686613088565b905095945050505050565b50565b6000610ed57f72a2c6cbcb4524d7cbcd486120ff3a16420a60d78ed6f61a6de0a8f05cfa810c60001b610ea4565b610f017f03ce741a8b20ad1438bc2fb8463b6b7529abd32520009a2f482c98f9a1bc2d0a60001b610ea4565b610f2d7f9af79d51e6630df35affd78af2c657e02095ff8f5ac424a7aaad85e8a3aeabc960001b610ea4565b610f3b878787878787613b90565b90509695505050505050565b6000610f757f47c1a3775f7d497f2cf1f0eeef8eec4c84d1cc2d67f264466cac089eef0ed99760001b610ea4565b610fa17fd61fb8e01ab1e10efb40312f21dd799c84e20d6210760b193610b0a7f42946e960001b610ea4565b610fcd7fd0eeafa22f4e49dd2bb55d69c85123e4e8d878d480e18b578e7ec933c670a58260001b610ea4565b610fda86868686866140ca565b905095945050505050565b60006110137fd2c98601c83aac1ba54e6bb19fd10fb3a152451854cab67d46809ac6ff673ae260001b610ea4565b61103f7f1663853b36f8631bb3a3ae186694ec66b20c57dbaa5a231f51827f5c55148a1160001b610ea4565b61106b7fe9af4f1949d870e02bcc447b7267e9e5ff2178804f6f145d6df67363f18cd32360001b610ea4565b6110788686868686614296565b905095945050505050565b60006110b17f517c68bc0319bb9ef84abf67b53e563901713ca0c954b6206f2e03386715aa6c60001b610c27565b6110dd7f8520bb5c87ce77c0b5c42d256219381ccc02dc3219818f27f941d059a595533760001b610c27565b6111097f8d7a180a925017d717657b81999df0d68524709077243f49b8360b33495ee2a160001b610c27565b60006111377f52df7461c3bcd08ae3a6619a7da167f51cf3fea966d6c3190433d3a228d5850160001b610c27565b6111637f590bea789f27c3a38da5e371b8f7a66af939f15fb26f76f7117b9a6da0a419e260001b610c27565b6000835190506111957f7d4fd4c7866feb1e8307e0f8ad5cc5bfee8721312d83f5457b0acee7852ee04360001b610c27565b6111c17ff9ce1cc108a0a44d5111b44beccfe00485587cd37c4c137dc8ab2dd4d456fc3160001b610c27565b60005b81811015611259576111f87f8d41fcf075210d0836d8ab47890685a994b9ed0977a5381931ca56ed95431f9560001b610c27565b6112247fa4078b34721b01d2c59c24dce2aeb18e49bff4673d04d9d1589b039890b7d3be60001b610c27565b61124a85828151811061123357fe5b60200260200101518461455b90919063ffffffff16565b925080806001019150506111c4565b506112867fe947b653dff6837e2322f4a3ce1c622e6c8300d736a302fc8ae3e7a534d5e85e60001b610c27565b6112b27fbb397ff28932779b32fc5467bb949747ecb6a6b9d63de6c1d39c73793053c47260001b610c27565b600082141561134a576112e77f55b3b3f92d5b0970e396a9b2867d355b129b5c4a45f9b98f1dd708ad07cd0a8460001b610c27565b6113137f2ce6a2130f76be3046d19bd4ef66b20089fe70cc68da6fc817d8e78bb3c3c7da60001b610c27565b61133f7f7b0628316fde1e8640a9b4deac6b3ad65b05e6e56e2515a963b5624e5169210a60001b610c27565b600092505050611aa7565b6113767fbc112bbf470d202f2b6606f4f6e8b2da1d3aac0494ae39b413f3815bff3a1d7860001b610c27565b6113a27fa0e52316deaedc34fb62da893e260fbd7e81dce6b3e912f8c7b7b1aeb2d7d55660001b610c27565b6113ce7fc301ff363adeda5fdb75547fff202e2947c930d5b9680b691cab79f5a6770d6e60001b610c27565b60006113fc7fd04b1d591c43d1329ca6d21c509a46d4f8428a6bf9b6eacfeaf7766c571fa33a60001b610c27565b6114287f1c488535b06e58d22de7059d5d3d84b127ec08aef3ade180b4baadc34befb2a760001b610c27565b60008390506114597fea33cb870bc5553b9c47555e82709bec941ea53459c6457b36dfed5d4685831e60001b610c27565b6114857f9223ec6b2025be294c9f1fab6bacaafebbb00c68a0666e7059aca4e33b1bd82260001b610c27565b600061149188856146b0565b90506114bf7f948925d2d8f93428355bea85deef004ff9c1e613fb347ea576b4f8c5f2443c1060001b610c27565b6114eb7f921ce3ec3cb7a4cb939650538b1c061d3de6126799d657607f4a22273a987a2c60001b610c27565b60005b60ff811015611a45576115237f6626192c41a0bf8b45e530160183a0329c3e79238ed89c7cfbf2bc5b43703e5460001b610c27565b61154f7f86634b1589059700e28c729ac59f65d19e2b985fab9ef9198d6d2a3e8ca82e9e60001b610c27565b600061156f868a60008151811061156257fe5b60200260200101516146b0565b905061159d7fdc4c48b1ff49693b6fe56d2a5cf8b95a1de36341336d27b85e766f3f706d8cd360001b610c27565b6115c97fde83a08ab4ac76f36cb84c29c34c4dba446f6d2dd419ae0271ccc41c60e4ff5960001b610c27565b6000600190505b8681101561166e576116047f474e6f81d79435eb84a5bd966761977ef6f60a81916c579b54327237b0faf05160001b610c27565b6116307fb2375540817c12afacfbeabfa78d7b4a9526f0a110e74fa015fc39d09ce0df9760001b610c27565b61165f611659611653848d858151811061164657fe5b60200260200101516146b0565b896146b0565b86614818565b915080806001019150506115d0565b5061169b7fac3bf220fe5e0422dd9bd93daffeee45c8ddec7a2d20124c1ba7dcf5727bf7be60001b610c27565b6116c77fbc3788527eb8e4d7bf420fb5f5b0bc7aac0bc7926d91e2a73e3171bd098c1b5a60001b610c27565b8394506116f67ff29e8a5ba09ce2ecbadf8234b8268530f469cd60e7f06f5aa9f2311fe5f6499860001b610c27565b6117227ff693e72551a6ebe21c66309e8d86fa87b00f3846a4e6348db343f859f925429d60001b610c27565b6117ac61175c61173b611735868b6146b0565b846146b0565b61174e6117488a896146b0565b886146b0565b61455b90919063ffffffff16565b6117a761177c611776600188614a3890919063ffffffff16565b856146b0565b61179961179360018c61455b90919063ffffffff16565b896146b0565b61455b90919063ffffffff16565b614818565b93506117da7fb4cb014056c3992aa782fb9277152be0d589ef1f819cf50e26dc4e66ac4450f360001b610c27565b6118067f6df52857d3be5efa98ea61f66b9812a086253a4d6ff5e8bf9bf90f69bbfe15f560001b610c27565b8484111561193b5761183a7f7df2fe689d75e7d8bfeb633d3f3df15ef9d93d12318f9f860182e40c0ec7ca7660001b610c27565b6118667f3c8dd6f1b805681f3a3b7ccaff9dab91226e2e425ec2639f3cc4d0d934791bbe60001b610c27565b6118927f07ac60d8a4710906b6d348686f7ecf3246a2d9aa42cf05e3148bad5c58768c9a60001b610c27565b60016118a78686614a3890919063ffffffff16565b1161190a576118d87f46e6d04402fc5a8c250a34b14513c5bd1b7e04f02be74bdc713ef700a55c58b760001b610c27565b6119047f2a594d6045fb7d5031f8e7420156b8d32d5c6f758f23bfb7bf958c3a82d8925f60001b610c27565b50611a45565b6119367fca185891f21bf8745ade77068c30280c80682cf63c43863421854da82031fcef60001b610c27565b611a37565b6119677f390897df68a1cd1014ff5df5c9da9f7035bd52b2a7c49c8acbadc664a7a7410260001b610c27565b6119927eedad0978c045df402eb07aa194c8a134ad20440e027d5d2b7f985269e06f5460001b610c27565b60016119a78587614a3890919063ffffffff16565b11611a0a576119d87f9bf0a0780d6a577f36be64906fdb20cf412ea05e5765402fe6774c3dc2f6d8a960001b610c27565b611a047f548acdb80de1e2ee2cb3d838810448013f45f6acccdd91e4d9e3b2ed29b252d260001b610c27565b50611a45565b611a367fe31672a9d3dd14e019a125cd534ae2505e559e69f94c2fc94cd8f6aca48c147160001b610c27565b5b5080806001019150506114ee565b50611a727f9ee36d0dad851e25775eeafe6ba733dd02c152a5bfddeb302da17330d8e3eabd60001b610c27565b611a9e7f82db8f2560c53a277a30e72bf985604e9f549dfc442af65e59dbf73965bc2f4360001b610c27565b81955050505050505b92915050565b6060611adb7f782d2944b47146f0df970087f3889ffcc27089bd6716e58fa9775c0abf195bd860001b610c27565b611b077f8b0a2126ce1440a923548c43bad28f522035fe98d008efdd7825287f2d2d45fa60001b610c27565b611b337f899dbdd6b3ac48717f154c3228080f8f309bcd7be64d9de1fafd7059c1c642e060001b610c27565b6000611b488385614b8d90919063ffffffff16565b9050611b767fb8a152f7991e247c2cc85b579f1f4382236363e34f738615bc68844ac37cf76b60001b610c27565b611ba27f301abedf71dec2914bbc0c916cb4e8411cf50d983ae6206e474a263d2e9417d560001b610c27565b6060855167ffffffffffffffff81118015611bbc57600080fd5b50604051908082528060200260200182016040528015611beb5781602001602082028036833780820191505090505b509050611c1a7f7a3a485cf8ff7f0acd43e0545fa00362ca256a7a7c1cc2c7794f0687ae89035a60001b610c27565b611c467f454aae8dd071212b8359327db02c764f6c976d479a04143cff1a9cfa8960ee1260001b610c27565b60005b8651811015611cf557611c7e7f54d0d91d32622d56e06d90ff536a0ffce16cfae32ce02fd78fc21644bd42530660001b610c27565b611caa7fb2f2ec3609e56a1d27dea3791cfc2c5598570e2a34b925848db443f6a5a3efc560001b610c27565b611cd083888381518110611cba57fe5b6020026020010151614e8590919063ffffffff16565b828281518110611cdc57fe5b6020026020010181815250508080600101915050611c49565b50611d227f96b857bf5a1dfd26ce913b50298296fbdfd893f45113dfd665bbec4df032283760001b610c27565b611d4e7f4b282a5c1bd928af13d51fb2d07dca5d73368f53db471e80e8f928043a433cfe60001b610c27565b80925050509392505050565b6000611d887f6ebd324b2403102ca1fbc93bbd99e62c3d9a2e334bdaf44b09dd2608b4b1528060001b610c27565b611db47fa047d91cb84902c1b0981f1d96818db17808bdd80e20783ce07bdcdc4659ba4760001b610c27565b611de07f8f671b5ae4ba0d76d387c16955242817ad19e8e72189484081fe600fc469646360001b610c27565b6000611dec8888611083565b9050611e1a7f5956c58a8db95245acb6b309efc84404adba6b472735961e66aaa2c40c4453b360001b610c27565b611e467f6ece4fc71ed5aab701e87ba651903158852be9c486b7f9dc2cabc9100cec4bcd60001b610c27565b6000611e7f82611e7187611e638a8a61455b90919063ffffffff16565b614ffe90919063ffffffff16565b6152fc90919063ffffffff16565b9050611ead7f4aa77dc60b4eaceb7f5ff7ca4fb4c68aea99d20ec8734cb8ca3c22295cacc85a60001b610c27565b611ed97f9ccab3db383eb21df6cb1c85c5f5053695588d81322053acd85f3225ea14d8f560001b610c27565b6000611f077f106d8da0566b9cd6461b0a9219207cfd962104eb498396382ec993cb546175af60001b610c27565b611f337fdc34c81419121c14dfe8506535a810e4e06e42bba94373ed90742757e36fed9e60001b610c27565b60005b8951811015611fcc57611f6b7f75a0279c67391cc843c5e391b3fff6fc33253a16cef3812788e7b658161eaa8a60001b610c27565b611f977f6f105e91d4a7c19a189019edfdd8328a69f0deccf15397d5b5535a99bec82d3860001b610c27565b611fbd8a8281518110611fa657fe5b60200260200101518361455b90919063ffffffff16565b91508080600101915050611f36565b50611ff97fa7d1ce0f27e5c15c83557407a7e657418d187da99dc38b5b18e6b700b5d9aa0360001b610c27565b6120257fb9520882149ca333cb372f0480f615b1b14925f7c770d695664e7e780c95323860001b610c27565b60006120338b8b858c615597565b90506120617f71ce7a22464893e8d5c095997fa2e12192c856a48b4e17bb099431107dd04ecb60001b610c27565b61208d7f7dd4bfd2d632f67c6edb5fbe9c2ae5679f2a1033bb4fc8c00550a65839c8e24960001b610c27565b60006120b58b8b8151811061209e57fe5b602002602001015183614a3890919063ffffffff16565b90506120e37ff6e095e9df377587d4d4c11a0f953e8f57d21b140308ce9d3a35aa4f55c5e13c60001b610c27565b61210f7f41816b661bd69e405ac7182d7a3b6ab7dad59d8dfd9ee6a364649e1cc987c80a60001b610c27565b6000612137848d8d8151811061212157fe5b6020026020010151614b8d90919063ffffffff16565b90506121657ff4975dda160cd8645e5f8d2f3b1e6079a7f0711c8aaf052e60d0498654b63ee860001b610c27565b6121917fc13de035811df3bee84fa65e23700e420d9143d81f0af80aeefb919984a8fb0360001b610c27565b600061219c82616017565b90506121ca7fb3d4ffe0ae567a73a2a69f4907d1cdca26b63286f46eab6740d89e473bee418260001b610c27565b6121f67fe5f4411094d5c5c3058edab66b1abb88dc96f1045c454ddc8a4f14c20922cf7760001b610c27565b600061220b828b6152fc90919063ffffffff16565b90506122397ff2e2be6a60b7c44c976ab2fd2a0c816c1d6cec2fe273e2258cfc445872da56e060001b610c27565b6122657f944ac74a6576addc40a186c936adcb27c874e9f976d1f7c753f50efbe782338d60001b610c27565b61228061227182616017565b85614ffe90919063ffffffff16565b985050505050505050509695505050505050565b60006122c27ffc860c609f7734138a1cec8b344821b6e9473c600124a42679fdf8f26db9ebe760001b610c27565b6122ee7fe9f38680e72dbb5e329f30044f4db8e7b21c0f4117f3ec356849dfcc37e0927460001b610c27565b61231a7fca9809890498ea6ab8e12845aa64800d755784258ac7a8c5fdac831a0a9eeb3360001b610c27565b60006123268787611083565b90506123547ff1fc5728502f786f45b269524183ba089c64c39abedcad4cb5896d4f6a5384b660001b610c27565b6123807f1cbca433f01cf01d2f28e0cb2fa17657205a31f7535e8f09aa36e6878272a36b60001b610c27565b60006123ae7fa4132a76af4dcf4464b8adf09294cb2d106608536c7529a354f037b4db2ae4e960001b610c27565b6123da7f37254189f0d22e40cb0c5ee73230090b1423faf112b1c5da922a6ed7fe5bbeaa60001b610c27565b60005b8751811015612473576124127fd0773b004c027c58008d00097f5790e108748f92b48cc5419a2858a17dc1721360001b610c27565b61243e7f777277cbdc2a2fa8b9005a2b8266ac7bd661806ca6655c62d1773935685bd4bc60001b610c27565b61246488828151811061244d57fe5b60200260200101518361455b90919063ffffffff16565b915080806001019150506123dd565b506124a07fca58ce367e2b3cb7e51e0db561ebcc279a51d728bf4a18228e333346b6dfe49460001b610c27565b6124cc7f2781120064d8239aa789591ac9dc9b41ffc9afb016636a29d607078cc948e98960001b610c27565b6060865167ffffffffffffffff811180156124e657600080fd5b506040519080825280602002602001820160405280156125155781602001602082028036833780820191505090505b5090506125447f3e57d15e561634d36c365be821c25eae4dd38690451e6e0b80b2dbd300183f3660001b610c27565b6125707f5d56c62270cf5676b4de04e2706508603914015d643e5e3f7111e8f7a13e1d6060001b610c27565b600061259e7f209a2a035956ec39ac57838216cf95b75defc37ec3e9053095922df53782251a60001b610c27565b6125ca7fdd9f3a4d39dabae4edd10d6ac047ff0906290f489e9a15b6f001000da95a2be260001b610c27565b60005b89518110156127c6576126027f991888ab7555839b9de2bc1ee0ec91b845ae0db1e88be6e2b461ff97f5fd26d160001b610c27565b61262e7fcbde6a4b0e9c6dc173c963f27a7313d74bf1c3bf3315f722f7311e089115a9d260001b610c27565b6000612656858c848151811061264057fe5b6020026020010151614b8d90919063ffffffff16565b90506126847f99a9ecdc83f9725c8d8e0168143e22d398ce9ff79eb1337030e834867d623e9860001b610c27565b6126b07fb658150d366e0ba88472493df1af301a420ee17736f781ca5822f9bf10481e3e60001b610c27565b61270e8b83815181106126bf57fe5b60200260200101516127008c85815181106126d657fe5b60200260200101518e86815181106126ea57fe5b602002602001015161455b90919063ffffffff16565b614b8d90919063ffffffff16565b84838151811061271a57fe5b6020026020010181815250506127527f06b27a66da7a3122c3ecf4c309ad5d37e61d5e4a8c86d72ff18ff0fd17abde3660001b610c27565b61277e7f5a01b5b96072f9081074d8ce0a80bb373124d4e4af22243b55a0281537f6d8e360001b610c27565b6127b66127a78286858151811061279157fe5b6020026020010151614e8590919063ffffffff16565b8461455b90919063ffffffff16565b92505080806001019150506125cd565b506127f37f61f94435e44370f7b52d199ccf02c04a6290129f17df387b0ab1798665d063f060001b610c27565b61281f7fac9489e5f24f492e92ad2c9ef2bd86d3238140cd057ccbbc0ebe2726b5e59cc060001b610c27565b6060895167ffffffffffffffff8111801561283957600080fd5b506040519080825280602002602001820160405280156128685781602001602082028036833780820191505090505b5090506128977f8222b8611e2cf4e2bddd25e215aa0704e36eeac541761f6552fe5062a9898b9160001b610c27565b6128c37f6abdf3ce3fa7fb0b8313821348290b95be2070f32acff07b42462ed80214c45e60001b610c27565b60005b8a51811015612cb3576128fb7fe385ec2567b8f06a184fd240db64cb3d36ae3271c4d0a6cf24abd4a806a94f0660001b610c27565b6129277f5e0f63680c701d856d4d44f8f7d47d6819788083577a6ad69ccd8ccb7f1c836c60001b610c27565b60006129557fe025cf847fc2e598d1d0f9fdd2a9ca4eddb24e9becb1a681601a8a72c9aa6daf60001b610c27565b6129817f64da22b55baa2e48f03a9598654650ea20ee71908ea23ddc1cef257823957b3660001b610c27565b84828151811061298d57fe5b60200260200101518410612a28576129c77f55d1d36044b30e46fa6cdddb7d479ef5ce650fc882c594c52f1eee9efe6407fc60001b610c27565b6129f37f47e17a7b33cd31950c17afca9b907f9c5cd050c627fb5664bd3df8e8b6e933d660001b610c27565b612a1f7f41a2c17ac711ff0e9af89d39671b5a6393b4e13f4408fc373e4bfbcb0416656760001b610c27565b60009050612b14565b612a547fec2baf1182a92249c4304b523bd8fe708fd6b00b41e9f85c097f8ca0baf220a660001b610c27565b612a807fb46f09248fb07e1b7deff88b5e0daf9679de7c8084ec6c65d55d8a20d409b58f60001b610c27565b612aac7f1c66dd31d4e9fa0251a8f8c733eea832cd9397500437ab618554a98656fbfb7360001b610c27565b612b11612add670de0b6b3a7640000878581518110612ac757fe5b6020026020010151614a3890919063ffffffff16565b612b0386888681518110612aed57fe5b6020026020010151614a3890919063ffffffff16565b614ffe90919063ffffffff16565b90505b612b407fbf69095a82c15a125ca88fc4c46d77efcd8ca37d3d832ef5ed5119a7039ef30360001b610c27565b612b6c7f245d71f36a97fa35cbfda848532f51362a6558e1329d7e6244e8c1dfdf6963d860001b610c27565b6000612b81828b6152fc90919063ffffffff16565b9050612baf7fd187e0b719d7715528ac7ae885def55e65743c03b1832bd637350471e30dd13c60001b610c27565b612bdb7f01f64373ca2eeb464d6d785d6cfb30cf8dc9100a6d19a77914f3d702d335fd3a60001b610c27565b6000612c0b612be983616017565b8e8681518110612bf557fe5b6020026020010151614e8590919063ffffffff16565b9050612c397fc1b0f0d48ec33e506726e65697edfffac352cb8ba8c1ec05bd6c8a815c6332fe60001b610c27565b612c657fdc1cc231cef896f088b9a63a3336b7cb8770c060f9ae94f46da40d809f5bfcf560001b610c27565b612c8b818f8681518110612c7557fe5b602002602001015161455b90919063ffffffff16565b858581518110612c9757fe5b60200260200101818152505050505080806001019150506128c6565b50612ce07fd865bbb45c5c69b8304160e97ca35ce4c9447660ef37e41d3bd2d2bfd28b71de60001b610c27565b612d0c7f39d2e033e85047cc2425bd44a549e32aa6ade65a94d9182a32ad83ccdc0f4fdd60001b610c27565b6000612d188c83611083565b9050612d467f675d30c3a84a0319aaee76bb39826835947e01f8551778248b209a81ea21dba860001b610c27565b612d727ff94d1d416e4b8151b54a9a0d9c607793eb78295446e92a35626d75dc34d6472a60001b610c27565b612db1612da2670de0b6b3a7640000612d948985614b8d90919063ffffffff16565b614a3890919063ffffffff16565b8a614e8590919063ffffffff16565b965050505050505095945050505050565b6000612df07fa0850d43e0baae261ed78f74c5bd0f87e9a7886b6a247e17a7144f0fb713ab8e60001b610c27565b612e1c7f8176a751b880e5ac34f58d86bd4b32dd547b1524d213e07d35693e18d63a6a2060001b610c27565b612e487f9700b490e24df5837538bfedb1e71d52556589b7f38f88510b86af2a0c41309160001b610c27565b6000612e548787611083565b9050612e827f62c918681453cc65d7049392cf01e8908e3b1791feff02aacf694c17a86bc32e60001b610c27565b612eae7f710bda8b9ce7fab58046e98687f796916614154cd6bb968ece0e193bdd7eb60b60001b610c27565b612ed483878681518110612ebe57fe5b6020026020010151614a3890919063ffffffff16565b868581518110612ee057fe5b602002602001018181525050612f187f42cbb82b913b6ac392dc4892468a08ccfeda744447d3f87097f4b183176b86fb60001b610c27565b612f447f39841ca864ee6dbfd1fcc9141dc453436f95c33225b0c4cf7f29f519ac1025af60001b610c27565b6000612f5288888489615597565b9050612f807f8577af1be0b00697539f1bb246ca5b97b93c7c728f59b76a7734419b983934e960001b610c27565b612fac7f4eed332ad07419970291f5133ccf61c74d97eae7677adfb5a5742175762d2a4a60001b610c27565b612fd284888781518110612fbc57fe5b602002602001015161455b90919063ffffffff16565b878681518110612fde57fe5b6020026020010181815250506130167fadb9dd718c1699db559ef0279640ad91033d52536b328011136870e06be57f3360001b610c27565b6130427ffae1362d607ce9a37acb3c86bd92f0e1fcb2b237b3437af00837ff9fee50bd6c60001b610c27565b61307b600161306d89898151811061305657fe5b602002602001015184614a3890919063ffffffff16565b61455b90919063ffffffff16565b9250505095945050505050565b60006130b67fc29aee41fa0fd51457d9d1482338e91a30af3c4054100ff6963c45490afa06c560001b610c27565b6130e27fa629c4c8fda17baec48f9f22057a8eb84c2b6f54d8bbc166880af7c45af379a960001b610c27565b61310e7f3ce650750e4a1e2a827d0cf42d6c2ed29d92ac860b8b99ecdd98397f7327783e60001b610c27565b600061311a8787611083565b90506131487fab28990243221b0f3a3b016301d29268bdd7e97b606dda515f0c30bc713e81b260001b610c27565b6131747fd0da580b5e447f5724fb949150913898ed932e7998c1b2284889cf60a152dbf560001b610c27565b60006131a27f0cac14434b3d16a59097bc6e5782e54da0c8fff5e5a4dc0a417ae3a6dac6bdaa60001b610c27565b6131ce7f8ab535a7ab55fd5580379f2ff2a07fd56e5eca350ddd6759262d5d7d86dc046660001b610c27565b60005b8751811015613267576132067f42258f786567bb9d43959c9e1dabb88e9b74e4ef980819478aea49a671ff083060001b610c27565b6132327f8f049bf3ed39379bb351fc59d19640f70fd6806d4e2149b687114046f79b7b4260001b610c27565b61325888828151811061324157fe5b60200260200101518361455b90919063ffffffff16565b915080806001019150506131d1565b506132947f8a9ce5b89506b9c97c11fb7ac393d09d85d4f296350bc6fee699bb5e1b5bc95860001b610c27565b6132c07f1e02f90e0e81c244a810ec58c85de1e8bfdb6e1ebf7c36fbb0718b194c9f948860001b610c27565b6060865167ffffffffffffffff811180156132da57600080fd5b506040519080825280602002602001820160405280156133095781602001602082028036833780820191505090505b5090506133387f2c1f06e95b57a3ee2f7ba2c8bacacab9a31b3177822e2c4f8f17ce99e14f3e7f60001b610c27565b6133647fb6d708036efe2e8b8e52fab0f8dc26de9bc1ab1c5a773249d2242ff22cac92bc60001b610c27565b60006133927f24fa03a25c4c404d5955a7927861c86c80d7b6ee4d60358c2d4c24b7e20ff24860001b610c27565b6133be7fdcca447ca46e7e5bd696e0edc22d13f8572092b0eaeb967e41be7167b7df8cdc60001b610c27565b60005b89518110156135ba576133f67f89289bb0c54dde2fe5d1eeacfa35605878fd6d948d2366444a152925fad7a70d60001b610c27565b6134227f1698894db4a430f9781bc843f037ae8e4e41c5c1a6f9827dd28d20525f8d546160001b610c27565b600061344a858c848151811061343457fe5b6020026020010151614ffe90919063ffffffff16565b90506134787f8a670365135ed3b211acd62e5615bf318b9438879f62fb42874c7f6d3637814360001b610c27565b6134a47feba6cb9755424bf38f3a7ba1b6ac2ad386e122ffee93b172f9d976f98bf7740b60001b610c27565b6135028b83815181106134b357fe5b60200260200101516134f48c85815181106134ca57fe5b60200260200101518e86815181106134de57fe5b6020026020010151614a3890919063ffffffff16565b614ffe90919063ffffffff16565b84838151811061350e57fe5b6020026020010181815250506135467f3c58c2b3e5f7320305ff47d22ba046d9b70a783636c2614d0193370e65d8ef7960001b610c27565b6135727f3f90da0968c74bd667dfdb212a0395899c20febe16eb6fddfbfbe250ca8ad52a60001b610c27565b6135aa61359b8286858151811061358557fe5b60200260200101516152fc90919063ffffffff16565b8461455b90919063ffffffff16565b92505080806001019150506133c1565b506135e77ffb6fd85008f4bea6dc929496eff930eeaaf6c8b39ceeb4b5d6325efeb1e4025960001b610c27565b6136137f24fb83682bf3e92c18d77664744a41a4068a64a028ab7c95b4708c634ba5915060001b610c27565b6060895167ffffffffffffffff8111801561362d57600080fd5b5060405190808252806020026020018201604052801561365c5781602001602082028036833780820191505090505b50905061368b7f2bc81d5b617bcef7186d3aec848e37951797c04bbc76924a8999be1f39295d2d60001b610c27565b6136b77fa5195b399267286f0363b92170dbb20ed67c0ee72721d06db3615ed5d4a5457360001b610c27565b60005b8a51811015613a93576136ef7fef381ce63de34b5a7fb4f5937c597692e2a8ad407ff8ffea4f5d16837eda542460001b610c27565b61371b7ff4cbe8785bf0f9644e19b6debea101c0b507c76acb47986ce979fc4388e9bba860001b610c27565b60006137497f031f4ba68b3d4f7c52193370e16d9c126db2a5dee1a7cf691cb983387eb8ead160001b610c27565b6137757faedec1f18ec102b1fa750ec4b2194ac7e8dade2a7ba555e4a0cf1acea17fabdf60001b610c27565b84828151811061378157fe5b6020026020010151841161381c576137bb7f5685745f801d5646bfd5f1632a0ae633f2ebd3c596b49489992b97c5c44f713e60001b610c27565b6137e77fb9228c7b5db4a3ce52cad067c46a39ca19bdbe3d03e43d79c3f853919232a83060001b610c27565b6138137fcb791d109e158554fb1e63e1eb1d2f27c835b0c1a59188f6c2281dbffe85a6ab60001b610c27565b600090506138f6565b6138487f2fb4014308ab504cc4e9294e2ab643d207e62200ea9d95bf3fbdbd0f424b7dfc60001b610c27565b6138747f20142a16dc140d5fdfa33f2d16ce2e5d21cc2b74bab2a69804a3df9163d1ab0560001b610c27565b6138a07f059e085dd569fb5d4d5fd2fbb5f0099093879fa1e5753dfed6252565268664a560001b610c27565b6138f36138bf8684815181106138b257fe5b6020026020010151616017565b6138e58785815181106138ce57fe5b602002602001015187614a3890919063ffffffff16565b614ffe90919063ffffffff16565b90505b6139207dc53a8edc4c64e48960a4046891402ee7956378a2a30019d0d4f8e15368ea60001b610c27565b61394c7fdef50f20e3e317bc6e3803e5f6d7cf9528d3b539385fa28580e09263574fb05b60001b610c27565b6000613961828b6152fc90919063ffffffff16565b905061398f7ff11a35b5cd884c103c8df102cb2280ebb9ccd8b85befcb99c716377eae65fa0b60001b610c27565b6139bb7fa7c8b2ba8ec1113e8aa7dffb0f7c10ad078b04257f76e482487f3445bbceddbf60001b610c27565b60006139eb6139c983616017565b8e86815181106139d557fe5b6020026020010151614ffe90919063ffffffff16565b9050613a197fe3469915770b189fa6a5aa0fd0843941b4c9e321a2254965235db7764536a7e460001b610c27565b613a457fc3a317855437cd20eb4b2708b999f40d581b098c672317eb32004239d15dd85460001b610c27565b613a6b818f8681518110613a5557fe5b6020026020010151614a3890919063ffffffff16565b858581518110613a7757fe5b60200260200101818152505050505080806001019150506136ba565b50613ac07f3b48c5e42e38bcc5504e7493bf4166a9c662bde35a93a4ec4f5866f40bdd6f8160001b610c27565b613aec7fe49451f2332c2cb4dd11805d3f9a1c3c703a543791e5e0e824490d5122142f7f60001b610c27565b6000613af88c83611083565b9050613b267f0651a49e14882be4cea79d86f88000b24a6102ac9023d739de2dce096cf1ba5760001b610c27565b613b527f54d17c5f49240885b5153313713fcd025d37ad1955b437f26364d939ba54299e60001b610c27565b613b7f613b70613b6b8884614ffe90919063ffffffff16565b616017565b8a6152fc90919063ffffffff16565b965050505050505095945050505050565b6000613bbe7f9c61bd7f26976615fc17a5b8a194f3abc37c635843882984be289aaaeb9f46d260001b610c27565b613bea7f7740ccf8377955f064b39c293ae10f9e3f0b7341f6354d8d19722477ebe8ac3660001b610c27565b613c167ff9f13994593129495084816d974ce079fffce30611fbfd4f5fea4d0712a7272760001b610c27565b6000613c228888611083565b9050613c507f55c18e9fb174654275dd0a740f8b1cde72e04e3debaba0311abd726ce42ae9fa60001b610c27565b613c7c7f747fa083e18eb227d3e22d584a7311fd141f5d7c6fa3fe0145465437308bbffc60001b610c27565b6000613cb582613ca787613c998a8a614a3890919063ffffffff16565b614ffe90919063ffffffff16565b6152fc90919063ffffffff16565b9050613ce37f1fcb7654e200b00dc4b4b2236ce2a55815360575de73365fa45360c49523535c60001b610c27565b613d0f7f29ee7cc95bf66e392329290e607e2077b8113cd905398cc6a4302d0525dc0df660001b610c27565b6000613d3d7f0ac0a391282bbfe150518f58472378a3208642c18fe0ff5dc9bdaf67763ff77260001b610c27565b613d697f776cff53656696d5df682c1220cafd5895ce2d59e5fdff975860f8ebe66af68c60001b610c27565b60005b8951811015613e0257613da17fdab93c0033f67e6ff447c67d90e8d42e715bc52a00f01d4ca729bf49043d84b560001b610c27565b613dcd7f724eff1e31dc6adc0b4cb6ebcedd14df21872f98d2f1b3a70f8d9ce8bd739d3160001b610c27565b613df38a8281518110613ddc57fe5b60200260200101518361455b90919063ffffffff16565b91508080600101915050613d6c565b50613e2f7f470b9123588c95268e413615da5a3760cfa50008dc155a682e5deea6e1c7cff260001b610c27565b613e5b7f4af3409bfb44b03d6423b4bd9dd5b33a29cb2b64300ce70c2006e81867b6e48c60001b610c27565b6000613e698b8b858c615597565b9050613e977f194e92b2e5788b304faf6719142df5e0ca1745c484bf7c3ed891132401618b4660001b610c27565b613ec37f941f7be3addd04affb5350c4a12ef5febd7530a17adeafcbb7591b3711610b0e60001b610c27565b6000613eeb828c8c81518110613ed557fe5b6020026020010151614a3890919063ffffffff16565b9050613f197f28f55cfd6b8dd6a7478df13ec4991ca2e13952a5c199526a3a44340939a11f7960001b610c27565b613f457fb1563c6177e8e78632f22c46e8b76c14fa2612dce398fd51d9e9d400c2cb825a60001b610c27565b6000613f6d848d8d81518110613f5757fe5b6020026020010151614b8d90919063ffffffff16565b9050613f9b7ffe78be6e963db5c5aa5d3db62f3392a66746ee39dd5f7582956da8eaff536b5560001b610c27565b613fc77fe59ace3000bffca03f5e4e388ec8466f98c35f434ad5c1a81b1e088287ed443860001b610c27565b6000613fd282616017565b90506140007fc9b08ccc62e0723b27a300d4ee880f93dde3f0262d00f2f1086c0c0512dd882c60001b610c27565b61402c7f96c7f117d62c41ddecaf78311e4ea214a8737b8935742ea01d47c3bdf92d520b60001b610c27565b6000614041828b6152fc90919063ffffffff16565b905061406f7f85f011c20e27de4acddaf5e3b7ab96f7e470bce6fa14b847357c8099ac548ecd60001b610c27565b61409b7fa29b58fa53bc9ae1d5d0f0d47083efb2610f45d968bf81772852af021cea3bbc60001b610c27565b6140b66140a782616017565b85614e8590919063ffffffff16565b985050505050505050509695505050505050565b60006140f87ff4650b12efb7632718ae7c2762bef715ab8b3ad09b02f5ba98a8c407c1b95e2f60001b610c27565b6141247f841095d02db55faa32391bb46239328b523f5640a0309701cbeb483bcf41ff2a60001b610c27565b6141507fc1cc7ef973f0f7c25cf5b31fdb8a66ffdb4055e388ee82dc6e755ef8faaccb9360001b610c27565b600061415e87878787615597565b905061418c7f37a4f3a4b8908edaf17fb61b143fc64eb05ff2886f5c5350da753ba484073ee660001b610c27565b6141b87f0f4763316a67d76ce32c9e36649129e6011339b27564e9c7071c8da8e97151eb60001b610c27565b6000818786815181106141c757fe5b6020026020010151116141db576000614202565b614201828887815181106141eb57fe5b6020026020010151614a3890919063ffffffff16565b5b90506142307ff3a1024f4e00072dd0fac3f355870ce01c36e0f392d5791a8a86039f75713d3f60001b610c27565b61425c7fad457d9d095535e2e2e244b92882b44e03e77f6cda7cf9273a387b372ecc392e60001b610c27565b614289670de0b6b3a764000061427b8684614e8590919063ffffffff16565b614b8d90919063ffffffff16565b9250505095945050505050565b60006142c47f820b74d698f0fdbbdcab834cf0dc348c77ec007820334facde4f777fb05fe9b960001b610c27565b6142ef7e6be3b300065727ed690f6a00bda1c6a22765b84a15c0aa63c23043a742f60d60001b610c27565b61431b7f1b812a9921b9a2d09c01912c50d40f0a3ec51567974d79df1192a5eece2c73cf60001b610c27565b60006143278787611083565b90506143557f3907591516c2eb7d4b9bdb59a600fa6c6f805bb4d0aff1c2ed8a0b61a129a23860001b610c27565b6143817fe04a01b80ab1ba2942abd33ff26e8d557f634a5c0349910591c39172e42f6f1460001b610c27565b6143a78387878151811061439157fe5b602002602001015161455b90919063ffffffff16565b8686815181106143b357fe5b6020026020010181815250506143eb7f108aa255cb12100e4a2914b7eefae22187ec47337edefaaf1c6ce58e3b0782e660001b610c27565b6144177f668b4a755f8cb521fd829c1f00b5bf3b8193e8b6ada0416f4d9040274347da8860001b610c27565b600061442588888488615597565b90506144537f26c720704ec6882d3415d2c8a53e9be15b3fcff0a0d9c91df8a50bcccfe9352e60001b610c27565b61447f7f77956ce6dd7ed2df03ffab9366ca6fb0ca006a152a6eb97f1205914b6566786d60001b610c27565b6144a58488888151811061448f57fe5b6020026020010151614a3890919063ffffffff16565b8787815181106144b157fe5b6020026020010181815250506144e97f57e3f1e0a6d4be70bb50d29d20f1135900eaa3402b44b995b4c5966966d0fb2060001b610c27565b6145157f70ae1cf953699a0c3f4a70f50cc780b833ce6ac18ecdd32b85a95a353deedeb860001b610c27565b61454e6001614540838a898151811061452a57fe5b6020026020010151614a3890919063ffffffff16565b614a3890919063ffffffff16565b9250505095945050505050565b60006145897f5f36fb0c028103edf307467f63f0332f966da8f673e1c7ec6aced59d823aae6260001b6160c6565b6145b57f44b88f08c3beb7c1738a70418178f0bd070b94ca34f2d76f0ecc9e722ebab05b60001b6160c6565b6145e17f089af7c7f34c896b1969367a1c50582a2d2ac2cc2c5e04246250cb0ba151867260001b6160c6565b600082840190506146147f258ce8748ca545d5cfac415b21ac328631ad1fd9f61842fc89135db464f24ed760001b6160c6565b6146407f1cc115f28de7ca40c964e4298498543601b967d758e03fb745dda2e2ef4966c660001b6160c6565b61464e8482101560006160c9565b61467a7f3fad55df3aa1830266f7765bc1f949767a1cbfd6d2697a8d021c032e32a426bb60001b6160c6565b6146a67f1237371198ec3b9801ff55f45911f80dd6332e4e689796642e2b2e8c75af767160001b6160c6565b8091505092915050565b60006146de7fc8d6f319fc1e78e2b93903d8d2ffb99089ebaffbad0e0ddf0f13ca20d7f7213060001b6160dc565b61470a7fc973b8114f6c35c573de6ab7982d15d6df7383ddf1407b83fa98425285e2b45760001b6160dc565b6147367f45cab69ad4f840bababdba128d4f63075461182eff5102f8263aa61da0d6ae1c60001b6160dc565b600082840290506147697f52c348b58a057296c497129588d62064f502229a926e3d9f777c6e19299a497d60001b6160dc565b6147957fb095e5fe885899d99f77a57d70692a296ae3ffe7ae3c10292b19031a5312ae2a60001b6160dc565b6147b660008514806147af5750838583816147ac57fe5b04145b60036160c9565b6147e27fa27c0f3d745cfd72daab317c10fb6f90b4e3239f60d65da2359a120c0840904460001b6160dc565b61480e7f7b3ed36c13b40c8b52d3edf9a7e4fa9113cc88f18b5eba84fda1716d2c8f5eec60001b6160dc565b8091505092915050565b60006148467f076c732c2f1eda98894f613fd10f682bdc8e068bcf3b2f48f7c8167b0b0b606260001b6160dc565b6148727fb6c32c9a49d25416885d16929db85d1cf74eb1a3b112515a238c04c95689955960001b6160dc565b61489e7f4d56b22f880357877429838ec70b7deeff30a2b8d688ce52791af9e06afa2c5a60001b6160dc565b6148ad600083141560046160c9565b6148d97f63e4c3f0bb34e74d194bb0f9574176dbde0e4aa394857f5d6cb6a5843ed7b22760001b6160dc565b6149057fe608d21afd9a338fdae4d19312051b4c461f88cc2666362df73c65122fc92f6860001b6160dc565b600083141561499b5761493a7fd85d64cd3a471737b81f667473d406153692320e4cd8b650bda662ad54a1995460001b6160dc565b6149667f10d7fdc1aca673c59e29a60f16eedb92062c190e054b4d7f2c9a39e6794bd47560001b6160dc565b6149927fb21a42b5f35e6fbd0da8c8a8f2d4191258104470944ffa31fef6da01eb22115660001b6160dc565b60009050614a32565b6149c77f5d69f547a910d75a19f4cf840a90f6035bf85b5941d283637fe2373b27865e8c60001b6160dc565b6149f37f8a80c9e10f686134576e1bb9da8e1542dd95fcac9b1692ec0d347c60a518ee0860001b6160dc565b614a1f7f360983f0e904f85b49211d9b225373f212327acab997a7d89b518d2a753e9e5b60001b6160dc565b816001840381614a2b57fe5b0460010190505b92915050565b6000614a667f136ebdc0e8e6c654b5e766ed596f1b15fd48fc1d51bab4c8c7c45de1ee4ad72160001b6160c6565b614a927f114bff1eadb9fe5e00e839002a18300aa1e7fff0b618dc6b69f07aeacb6a9b8460001b6160c6565b614abe7f7da4616aba1f4bc537147c323237f74d59ca849041dafd480533792f0b249c3460001b6160c6565b614acc8383111560016160c9565b614af87f14e53f9ac176f8345a56cfe7c694fa8ebaae7e4283f826c430e46ed04d387bcd60001b6160c6565b614b247f6c57e6eaf4e7a2a0881e9eb3b413418334d4488743dd138c4cc2ee06e58d5da760001b6160c6565b60008284039050614b577f7f6d826607619d4af998f19f06e63668e2b4a7b2f21b0950b6d5a8286412c44360001b6160c6565b614b837fecb4e28ed936d30a07b9d6ae22d30338892d72993772c6977c28d7f23d9c7cd860001b6160c6565b8091505092915050565b6000614bbb7f5ceb85d70358b3bacd1534074d8476b9815c3aa6da57ff5c4db717cf1398c6b160001b6160c6565b614be77f6b45de0869fc60f8014f7da0542a0a317c895d5992a32999446b847b215ea03b60001b6160c6565b614c137f1c80b8e8d78eb73111835007cd5fbce062271945d8ad91c9713a0f5eaea6e75c60001b6160c6565b614c22600083141560046160c9565b614c4e7f7dd4f066fd0af9999cf3a3dec7ae7a7af556b87168e1bfb8765875d731bc80f860001b6160c6565b614c7a7f65201be675c5a31abb3b30b2863f4e84354bbabb212738434818b331218fec8060001b6160c6565b6000831415614d1057614caf7f04f31c69f813356d0a5ac0c9edb65d06a495176d64b8586c7cafb96d6996746f60001b6160c6565b614cdb7fbfbf0353e226ff48ba457fb68f235ebcc9f63baa19022a9039cf1c0942ae0fc760001b6160c6565b614d077f1609c5c09908c1eb992d9ff1e81fdb2a249516c2470fdff827e65b26dbe7e28560001b6160c6565b60009050614e7f565b614d3c7f2be483056be80cb935b63b4745911d2532199c222ec22fe0f78a15bbb8fed09e60001b6160c6565b614d687f0270b25143b29a9c983a0408af759a0e9e2893ffb29d7c5caf214b0d971bf96760001b6160c6565b614d947fea10c1255e0cdcf9ab2098c493934ce8f4b8547a6b179a287f637c1f536ba66f60001b6160c6565b6000670de0b6b3a764000084029050614dcf7f0a6ae6c6038ccda5c0051980bad43ccf17d35f1670e80ae05de0d907db4c1e4660001b6160c6565b614dfb7ff192757c260626d3b1e4687cdff30fc5f9d5ad2bb5f508d95f5b59423a52625760001b6160c6565b614e19670de0b6b3a7640000858381614e1057fe5b041460056160c9565b614e457f1d11f25c6c63a8fb3ebc8bdbf2a3555840e10ffda34811fbbb33bc33243b3dad60001b6160c6565b614e717f5df7b8b2cad4c987f6ba11bd0e6b7c0d29619157bb4a75d59fb0a2547633762060001b6160c6565b828181614e7a57fe5b049150505b92915050565b6000614eb37f6a56e6b9382441f5a45bc35a43826c64209849d281de5ea652d97114d3fdd00060001b6160c6565b614edf7f832e186a9dec832c15d05f077f0a95bb8c8a30f33174b1b74cad094def38313a60001b6160c6565b614f0b7f1d7ac9a6923837cb729d2a9f327d6b28bb868258b6639379ad9b804ddbf149b960001b6160c6565b60008284029050614f3e7f20b7636ac61a045be0786996288e3e2b0851467b3df87ea384032be131612f7460001b6160c6565b614f6a7fec8cc3cb5297dbadb0d69bb41ea6b39978fd82ee0c9e2ddcb3663f06f85f6e5a60001b6160c6565b614f8b6000851480614f84575083858381614f8157fe5b04145b60036160c9565b614fb77feef689e5d622a32553062ffc4fe64fcc96483927ecea9c38947b4717464b23ee60001b6160c6565b614fe37ff2d9867efb05a2da69e9efe9a0d629e11b17960b86d7f70af9b6266d6479596060001b6160c6565b670de0b6b3a76400008181614ff457fe5b0491505092915050565b600061502c7f0b82bd6e55031056eb502479287614825386e546f233b0c840d3add6e328c33360001b6160c6565b6150587fc29f725438dde8a8e35a83c255914da88eb1af6a0b0254a2ee71a12cee7a182060001b6160c6565b6150847f867b25ee062e1c15d81f5eb600408b615a5c4755d21132cbdec196c0e0f6bfcd60001b6160c6565b615093600083141560046160c9565b6150bf7f505ea7ae5aedc93e2b84b1d7f3ea169b72041ba472727f5062597f0faa7a511760001b6160c6565b6150eb7f25c8d3148f938498be8d6158605bacdced13ec3c2c723c563728402175f155e160001b6160c6565b6000831415615181576151207f6a9f973848d0e1bf3ca33878057df62131a9343ce33b83d2d55b5cc74756b08d60001b6160c6565b61514c7ff4c0037cff5823363d8dd200bb93676448d4def45fea7d550abab49926b7d3e360001b6160c6565b6151787f891ef57f2cf1ca4bc1e2deadd5fdb7d9886e992eab3e894651a0c6327ddac8cd60001b6160c6565b600090506152f6565b6151ad7f067b1c6f891f851b3004c206fe7ed1f1ea776fa53af3a2f30bbaf811de2c57a960001b6160c6565b6151d97f39332f0aeb86b539dc005963041118b0404b93ee8fa3f8cc0ae706d72b9019f660001b6160c6565b6152057f0cd05effb3643090820c5853634e935de87e3f1a53038fd2130ebd813ad9f47760001b6160c6565b6000670de0b6b3a7640000840290506152407f0d8a293203cc6c75a3dc156d90cd71301c5afa4b710cd938ef7c286d2e887e3860001b6160c6565b61526c7f0c5ce5144a4bb8fcb212fcced6a383ac3e93a9d9c8baf587edc678bd970ce69760001b6160c6565b61528a670de0b6b3a764000085838161528157fe5b041460056160c9565b6152b67f6adce84f1f10ed0715f5b03d1f2970c52b81756593de1c708e3f01ceafc7eb8f60001b6160c6565b6152e27fd5bd32250369fb1bbf7ee21675e04e16fe702a3597d374429af1a9b966baf53260001b6160c6565b60018360018303816152f057fe5b04019150505b92915050565b600061532a7f0e379b560dd176564a5881533a4c5cc19aa1cc7aa8faf76190b57cc828976c9b60001b6160c6565b6153567f49d3279522a2d539b8f6450b55bfcf22258bd9c72b153ac7bfc97b8154263c9d60001b6160c6565b6153827fd5842d537ca76be62dab0981f1adf06ef8b0c1d3d07c5c5fccc5f64e322b6a0f60001b6160c6565b600082840290506153b57f700f29679531b8a645e8ab26d0250167049ab4bb7c67fccfcf4189def020930760001b6160c6565b6153e17f85ee3aa337267c4ef6af3c1740f5103ae02d953ce58bd465e6f4f46762c273f060001b6160c6565b61540260008514806153fb5750838583816153f857fe5b04145b60036160c9565b61542e7f5c252fff100b72de4ae3a3189d6e38224dea20d11b533167dfd1daf017c5df5f60001b6160c6565b61545a7f7a3609fb2bb484a1f0db93870f5b059b577a0a4fcaede309b231adb45a70056260001b6160c6565b60008114156154f15761548f7fabfd1788429d8fd6729b4327e1f4244c545ab508b775a5d75e4ea123a58ac5d860001b6160c6565b6154bb7ffcaa1bbaa38aa4160df1140967b159d44023995232ff45e635b0b13920d04d6b60001b6160c6565b6154e77fdb7b1211aa3c4c707d8158063fcc1a98008bcd7125192b75674190966ccffc4160001b6160c6565b6000915050615591565b61551d7fe5b1e0552e71aff9f91da98dca666a710532a0d6c20e09343da7975a6b13bf7160001b6160c6565b6155497f3964c1cbaac90899caf28429727671ca1384f81cd7e6c5f3984d8c0c0ba0f1ba60001b6160c6565b6155757fe5c9d6cbe924ecab73cee431c799e5360b936d3caa09c48d311f4f973dea101660001b6160c6565b6001670de0b6b3a7640000600183038161558b57fe5b04019150505b92915050565b60006155c57f942127631c4d3c7c3c6288b29df912c36d56c8a3e908632bba058cd60c8546b460001b610c27565b6155f17fbc3e8af8f86321c2b2ca3edc703d574d54fe83fee525c1518f50cac4757903b860001b610c27565b61561d7f7e458ddbcfa529ad894be78fb022b68976f8f6f9b85baa33d3e430a8528bbbb360001b610c27565b600061562a8686516146b0565b90506156587fd75d4d297cc8a69f5296152dd0ac732a79ee333f90ce4d1b50a6f027a7306e1960001b610c27565b6156847fc6801bf3a719ea6e1a48174cd0154b8fde9838f0481eacdce0f064f872eda22360001b610c27565b60008560008151811061569357fe5b602002602001015190506156c97f049586072336a055edfc29f114c2326f6fd8f1e5ec0f6c3d1daa7c340de5cbcc60001b610c27565b6156f57f31003fcfbf4e316587fd8bf00c72123857f7dc038dab57f662db69300584a42260001b610c27565b600061571687518860008151811061570957fe5b60200260200101516146b0565b90506157447f62bf7677d27752d0ffa2f84cbbf69fddfdeb18c078adf1fda6b8b73c7851b9dd60001b610c27565b6157707f74317cace5dc5db9061d2db271da3fe238fbbccc26231a278acdc80df097bc3960001b610c27565b6000600190505b8751811015615897576157ac7f25a70a6365bb21ac94fb06df1139a5a4252cb8bfaf522fa32b9e4ba1ad10d1b860001b610c27565b6157d87f9f744aaca9c8f9a1f25798622667a1642ba4b89d12c2c18f15f88b8658ca98b760001b610c27565b6158086158026157fb848b85815181106157ee57fe5b60200260200101516146b0565b8a516146b0565b886160df565b91506158367fdcbb4e04a1c9e98aa9155fa746ed1e0e79c1ce89255f19db2d20802d711bf27d60001b610c27565b6158627fe586dbec6485ef29847f635aa2c0c73be51170a4e4bc980004f0068b48667b9360001b610c27565b61588888828151811061587157fe5b60200260200101518461455b90919063ffffffff16565b92508080600101915050615777565b506158c47f148d58c601b0f5ce11bcff860a6c5c7155dfbee87152e5e2a60c8476011c16d360001b610c27565b6158f07f701ce1f1854c9754b0ab521f115b62e50ae816754d57d9f26967962c37c67fa560001b610c27565b6159168786815181106158ff57fe5b602002602001015183614a3890919063ffffffff16565b91506159447f40605678bb5f6c561a806bb464231b4d17d1c9d7835de77afba064b084836e0f60001b610c27565b6159707fcc88f0892ba5523759ff4ea28a2876a3b07cc83531980a0a7d5bb3820e29abaf60001b610c27565b600061598561597f88896146b0565b85614818565b90506159b37f16c279b113254eded646da2bf2f958a0ffa4d047bdb7eb579f9873fffbc2f00a60001b610c27565b6159df7fe028453f1da7469db5334f949d03aa6b19464a0c127e333d887c9850eca066fe60001b610c27565b615a1782615a098a89815181106159f257fe5b6020026020010151846152fc90919063ffffffff16565b614ffe90919063ffffffff16565b9050615a457ff2d57c03c9d227f7dd17883a867db6aa3d6de9083617c6e994457a22bacfc99360001b610c27565b615a717f16e102a6abfbb28999f92c3c29dd5461e09c96792114ee429f61ef1e2918628c60001b610c27565b6000615a98615a89868a614b8d90919063ffffffff16565b8561455b90919063ffffffff16565b9050615ac67f199dfb35cba90f1c776c5ec9d85f5a1d5610a7ff58c3bec88883376fa3cac84860001b610c27565b615af27f10a3d030efb128ff3bf0a2b58771a0433e6a070cf0b942319da14435a6cf7c3e60001b610c27565b6000615b207fa2854d5de3c882116916e21a44efb0053882c771b73555856421da3ded97dfcb60001b610c27565b615b4c7fab826938ba7976fbd1f6638ac688463860c801b762ff60806e74c136d9e8959560001b610c27565b6000615b97615b64848c61455b90919063ffffffff16565b615b8986615b7b8e8f6152fc90919063ffffffff16565b61455b90919063ffffffff16565b614ffe90919063ffffffff16565b9050615bc57fa44464ab7eebfcab0449b2ab397a4eb95266d2dd81daffa8eeb7210aa365215660001b610c27565b615bf17fa193fbd4b74f94c9b20b36db76298014532605b5dc801fc9210589a554dc221f60001b610c27565b60005b60ff811015615fac57615c297f12be4d7a57f68283dda1c942c242239efce0c85eed70f6fadfcb7979d234c68160001b610c27565b615c557febd223f1b55f819e5a1273ae230a380d6898de1539b2de112af73673aba31b6960001b610c27565b819250615c847f3d2965183f8d8884c58afb5c95daaa2468be4636f6a7c1b8f4d72ae6091699f460001b610c27565b615cb07fb15619e8680a2f699c5d1cf1685c4beb27591b050bbab2f00d14fdccdc0c6d4960001b610c27565b615d15615ce28c615cd487615cc68760026146b0565b61455b90919063ffffffff16565b614a3890919063ffffffff16565b615d0787615cf986876152fc90919063ffffffff16565b61455b90919063ffffffff16565b614ffe90919063ffffffff16565b9150615d437f4d8e4ca5655b2bf28e9b5416b7ed20a3ebbc8983af339371cfcb14795006488860001b610c27565b615d6f7fcb40d5cee9527a08337b52a63d3e09c3039af5dff6f27e8bbee4a156cc92cc1f60001b610c27565b82821115615ea357615da37f9c8df62b259f361e413108d2180ab061b6cf81a02d41d29df9b5eddb842cdaca60001b610c27565b615dcf7f5dc13081ab844a9384672f3982e6b9387e1177c37d2127e1624124f6befd414d60001b610c27565b615dfb7fa060cde02efb0ba8ef968cf076ba814b2740c87fe504679fc856bd2415fe409d60001b610c27565b6001615e108484614a3890919063ffffffff16565b11615e7257615e417f4bb8d16271ab73391cab2e6f0b8875027ae07fb12e3245de4c5e7c6ee8ca955960001b610c27565b615e6d7fdb54c3fbaff446dcd2168fc37ea4b0e5da281ea44ed8ecbaf3ca04f5e118875c60001b610c27565b615fac565b615e9e7f34382a430ca20a891a500cb5d91fd0fd0334a2953769d0a6e49f67e49b7f970860001b610c27565b615f9f565b615ecf7fa6a5ea50e783c20ab6c738928b84868f8d2546f42707959d1688467728a85f8f60001b610c27565b615efb7f111fef596b01c907dceb1db660ba8dbad93bcf2d690f4ed06e14158de475b6a160001b610c27565b6001615f108385614a3890919063ffffffff16565b11615f7257615f417f51a27aeaca7a8dd55411051e073744928ad7e30a991dae5308ba54c6a76f8a3260001b610c27565b615f6d7f5d7ed9f4982c17be9ac5485e40e70c988649e74a32b8e3baf4b7850a6bb202d860001b610c27565b615fac565b615f9e7f77e20f58b3453437e3ff314bd69049cfeba654aac0abd861294d412ba185f5e160001b610c27565b5b8080600101915050615bf4565b50615fd97ff45d24ff61e677d1bb106d06c058dfab89509e9e7091c244f1ddacef3228095760001b610c27565b6160057f8f2db52771d4da9db1e5525fd230131490f5881e647ca92fdb7b71aa59733f8660001b610c27565b80975050505050505050949350505050565b60006160457f094a9d23f7d8cd7e1416152f4f9ab5639b7253358bede5a7c2bfa398f9e6cf7c60001b6160c6565b6160717f53bd07368499383bd7016e1180aecfc75dba7953a1c6ca4d15fb935506f497e860001b6160c6565b61609d7f7e4ed03da9a10291c37c924ec962ffcba2777b2536f9cfe394e0320cf20486b360001b6160c6565b670de0b6b3a764000082106160b35760006160bf565b81670de0b6b3a7640000035b9050919050565b50565b816160d8576160d7816161de565b5b5050565b50565b600061610d7ffd101f38d26e6d17af50d38c93b09fafe57fb5eafaf7b7dbd74da76698b8c1b860001b6160dc565b6161397feaf5515690878b5fffc1395c89258754d675be05b18ec31034c61379a0ac309e60001b6160dc565b6161657f494388132ab0669abd84a4cea7d3270705c1e5787b1023b89af997e631df29c260001b6160dc565b616174600083141560046160c9565b6161a07f63043e6e8ac71692ef40fd971a32b5acc860db477c14ce7a3e96c6bda6edf25860001b6160dc565b6161cc7f255ba90670870639d340d043cc9ae293ea5cfd9c68a6c4acc63601d708b0b5ff60001b6160dc565b8183816161d557fe5b04905092915050565b6030600a820601600a820491506030600a830601600a830492506030600a8406018060101b8260081b8401016642414c230000000160c81b7f08c379a000000000000000000000000000000000000000000000000000000000600052602060045260076024528060445260646000fdfea26469706673582212204f3a50ee59a6baca52ededf9968263403acccab86354c80f9520aea57acab34964736f6c63430007010033",
  "linkReferences": {},
  "deployedLinkReferences": {}
}