{
  "_format": "hh-sol-artifact-1",
  "contractName": "MockStableMath",
  "sourceName": "contracts/balancer-core-v2/test/MockStableMath.sol",
  "abi": [
    {
      "inputs": [
        {
          "internalType": "uint256",
          "name": "amp",
          "type": "uint256"
        },
        {
          "internalType": "uint256[]",
          "name": "balances",
          "type": "uint256[]"
        },
        {
          "internalType": "uint256[]",
          "name": "amountsOut",
          "type": "uint256[]"
        },
        {
          "internalType": "uint256",
          "name": "bptTotalSupply",
          "type": "uint256"
        },
        {
          "internalType": "uint256",
          "name": "swapFee",
          "type": "uint256"
        }
      ],
      "name": "bptInForExactTokensOut",
      "outputs": [
        {
          "internalType": "uint256",
          "name": "",
          "type": "uint256"
        }
      ],
      "stateMutability": "pure",
      "type": "function"
    },
    {
      "inputs": [
        {
          "internalType": "bytes32",
          "name": "c__0x7f73d661",
          "type": "bytes32"
        }
      ],
      "name": "c_0x7f73d661",
      "outputs": [],
      "stateMutability": "pure",
      "type": "function"
    },
    {
      "inputs": [
        {
          "internalType": "bytes32",
          "name": "c__0x8bcac62d",
          "type": "bytes32"
        }
      ],
      "name": "c_0x8bcac62d",
      "outputs": [],
      "stateMutability": "pure",
      "type": "function"
    },
    {
      "inputs": [
        {
          "internalType": "uint256",
          "name": "amp",
          "type": "uint256"
        },
        {
          "internalType": "uint256[]",
          "name": "balances",
          "type": "uint256[]"
        },
        {
          "internalType": "uint256",
          "name": "lastInvariant",
          "type": "uint256"
        },
        {
          "internalType": "uint256",
          "name": "tokenIndex",
          "type": "uint256"
        },
        {
          "internalType": "uint256",
          "name": "protocolSwapFeePercentage",
          "type": "uint256"
        }
      ],
      "name": "calculateDueTokenProtocolSwapFeeAmount",
      "outputs": [
        {
          "internalType": "uint256",
          "name": "",
          "type": "uint256"
        }
      ],
      "stateMutability": "pure",
      "type": "function"
    },
    {
      "inputs": [
        {
          "internalType": "uint256",
          "name": "amp",
          "type": "uint256"
        },
        {
          "internalType": "uint256[]",
          "name": "balances",
          "type": "uint256[]"
        },
        {
          "internalType": "uint256",
          "name": "tokenIndex",
          "type": "uint256"
        },
        {
          "internalType": "uint256",
          "name": "bptAmountIn",
          "type": "uint256"
        },
        {
          "internalType": "uint256",
          "name": "bptTotalSupply",
          "type": "uint256"
        },
        {
          "internalType": "uint256",
          "name": "swapFee",
          "type": "uint256"
        }
      ],
      "name": "exactBPTInForTokenOut",
      "outputs": [
        {
          "internalType": "uint256",
          "name": "",
          "type": "uint256"
        }
      ],
      "stateMutability": "pure",
      "type": "function"
    },
    {
      "inputs": [
        {
          "internalType": "uint256[]",
          "name": "balances",
          "type": "uint256[]"
        },
        {
          "internalType": "uint256",
          "name": "bptAmountIn",
          "type": "uint256"
        },
        {
          "internalType": "uint256",
          "name": "bptTotalSupply",
          "type": "uint256"
        }
      ],
      "name": "exactBPTInForTokensOut",
      "outputs": [
        {
          "internalType": "uint256[]",
          "name": "",
          "type": "uint256[]"
        }
      ],
      "stateMutability": "pure",
      "type": "function"
    },
    {
      "inputs": [
        {
          "internalType": "uint256",
          "name": "amp",
          "type": "uint256"
        },
        {
          "internalType": "uint256[]",
          "name": "balances",
          "type": "uint256[]"
        },
        {
          "internalType": "uint256[]",
          "name": "amountsIn",
          "type": "uint256[]"
        },
        {
          "internalType": "uint256",
          "name": "bptTotalSupply",
          "type": "uint256"
        },
        {
          "internalType": "uint256",
          "name": "swapFee",
          "type": "uint256"
        }
      ],
      "name": "exactTokensInForBPTOut",
      "outputs": [
        {
          "internalType": "uint256",
          "name": "",
          "type": "uint256"
        }
      ],
      "stateMutability": "pure",
      "type": "function"
    },
    {
      "inputs": [
        {
          "internalType": "uint256",
          "name": "amp",
          "type": "uint256"
        },
        {
          "internalType": "uint256[]",
          "name": "balances",
          "type": "uint256[]"
        },
        {
          "internalType": "uint256",
          "name": "tokenIndexIn",
          "type": "uint256"
        },
        {
          "internalType": "uint256",
          "name": "tokenIndexOut",
          "type": "uint256"
        },
        {
          "internalType": "uint256",
          "name": "tokenAmountOut",
          "type": "uint256"
        }
      ],
      "name": "inGivenOut",
      "outputs": [
        {
          "internalType": "uint256",
          "name": "",
          "type": "uint256"
        }
      ],
      "stateMutability": "pure",
      "type": "function"
    },
    {
      "inputs": [
        {
          "internalType": "uint256",
          "name": "amp",
          "type": "uint256"
        },
        {
          "internalType": "uint256[]",
          "name": "balances",
          "type": "uint256[]"
        }
      ],
      "name": "invariant",
      "outputs": [
        {
          "internalType": "uint256",
          "name": "",
          "type": "uint256"
        }
      ],
      "stateMutability": "pure",
      "type": "function"
    },
    {
      "inputs": [
        {
          "internalType": "uint256",
          "name": "amp",
          "type": "uint256"
        },
        {
          "internalType": "uint256[]",
          "name": "balances",
          "type": "uint256[]"
        },
        {
          "internalType": "uint256",
          "name": "tokenIndexIn",
          "type": "uint256"
        },
        {
          "internalType": "uint256",
          "name": "tokenIndexOut",
          "type": "uint256"
        },
        {
          "internalType": "uint256",
          "name": "tokenAmountIn",
          "type": "uint256"
        }
      ],
      "name": "outGivenIn",
      "outputs": [
        {
          "internalType": "uint256",
          "name": "",
          "type": "uint256"
        }
      ],
      "stateMutability": "pure",
      "type": "function"
    },
    {
      "inputs": [
        {
          "internalType": "uint256",
          "name": "amp",
          "type": "uint256"
        },
        {
          "internalType": "uint256[]",
          "name": "balances",
          "type": "uint256[]"
        },
        {
          "internalType": "uint256",
          "name": "tokenIndex",
          "type": "uint256"
        },
        {
          "internalType": "uint256",
          "name": "bptAmountOut",
          "type": "uint256"
        },
        {
          "internalType": "uint256",
          "name": "bptTotalSupply",
          "type": "uint256"
        },
        {
          "internalType": "uint256",
          "name": "swapFee",
          "type": "uint256"
        }
      ],
      "name": "tokenInForExactBPTOut",
      "outputs": [
        {
          "internalType": "uint256",
          "name": "",
          "type": "uint256"
        }
      ],
      "stateMutability": "pure",
      "type": "function"
    }
  ],
  "bytecode": "0x608060405234801561001057600080fd5b5061628680620000216000396000f3fe608060405234801561001057600080fd5b50600436106100c95760003560e01c8063a89d425911610081578063db7ad3f21161005b578063db7ad3f2146108df578063f6830dd0146109d3578063fe2dd7ba14610a01576100c9565b8063a89d425914610635578063c5812bb4146107b3578063cf1b8c8c146107e1576100c9565b8063405de978116100b2578063405de978146102c55780636fc82f29146103c35780639cd91d3f14610541576100c9565b8063155bfcb8146100ce5780631c855fa6146101a4575b600080fd5b61018e600480360360408110156100e457600080fd5b81019080803590602001909291908035906020019064010000000081111561010b57600080fd5b82018360208201111561011d57600080fd5b8035906020019184602083028401116401000000008311171561013f57600080fd5b919080806020026020016040519081016040528093929190818152602001838360200280828437600081840152601f19601f820116905080830192505050505050509192919290505050610af5565b6040518082815260200191505060405180910390f35b61026e600480360360608110156101ba57600080fd5b81019080803590602001906401000000008111156101d757600080fd5b8201836020820111156101e957600080fd5b8035906020019184602083028401116401000000008311171561020b57600080fd5b919080806020026020016040519081016040528093929190818152602001838360200280828437600081840152601f19601f8201169050808301925050505050505091929192908035906020019092919080359060200190929190505050610b8d565b6040518080602001828103825283818151815260200191508051906020019060200280838360005b838110156102b1578082015181840152602081019050610296565b505050509050019250505060405180910390f35b6103ad600480360360c08110156102db57600080fd5b81019080803590602001909291908035906020019064010000000081111561030257600080fd5b82018360208201111561031457600080fd5b8035906020019184602083028401116401000000008311171561033657600080fd5b919080806020026020016040519081016040528093929190818152602001838360200280828437600081840152601f19601f82011690508083019250505050505050919291929080359060200190929190803590602001909291908035906020019092919080359060200190929190505050610c27565b6040518082815260200191505060405180910390f35b61052b600480360360a08110156103d957600080fd5b81019080803590602001909291908035906020019064010000000081111561040057600080fd5b82018360208201111561041257600080fd5b8035906020019184602083028401116401000000008311171561043457600080fd5b919080806020026020016040519081016040528093929190818152602001838360200280828437600081840152601f19601f8201169050808301925050505050505091929192908035906020019064010000000081111561049457600080fd5b8201836020820111156104a657600080fd5b803590602001918460208302840111640100000000831117156104c857600080fd5b919080806020026020016040519081016040528093929190818152602001838360200280828437600081840152601f19601f8201169050808301925050505050505091929192908035906020019092919080359060200190929190505050610cc7565b6040518082815260200191505060405180910390f35b61061f600480360360a081101561055757600080fd5b81019080803590602001909291908035906020019064010000000081111561057e57600080fd5b82018360208201111561059057600080fd5b803590602001918460208302840111640100000000831117156105b257600080fd5b919080806020026020016040519081016040528093929190818152602001838360200280828437600081840152601f19601f820116905080830192505050505050509192919290803590602001909291908035906020019092919080359060200190929190505050610d65565b6040518082815260200191505060405180910390f35b61079d600480360360a081101561064b57600080fd5b81019080803590602001909291908035906020019064010000000081111561067257600080fd5b82018360208201111561068457600080fd5b803590602001918460208302840111640100000000831117156106a657600080fd5b919080806020026020016040519081016040528093929190818152602001838360200280828437600081840152601f19601f8201169050808301925050505050505091929192908035906020019064010000000081111561070657600080fd5b82018360208201111561071857600080fd5b8035906020019184602083028401116401000000008311171561073a57600080fd5b919080806020026020016040519081016040528093929190818152602001838360200280828437600081840152601f19601f8201169050808301925050505050505091929192908035906020019092919080359060200190929190505050610e03565b6040518082815260200191505060405180910390f35b6107df600480360360208110156107c957600080fd5b8101908080359060200190929190505050610ea1565b005b6108c9600480360360c08110156107f757600080fd5b81019080803590602001909291908035906020019064010000000081111561081e57600080fd5b82018360208201111561083057600080fd5b8035906020019184602083028401116401000000008311171561085257600080fd5b919080806020026020016040519081016040528093929190818152602001838360200280828437600081840152601f19601f82011690508083019250505050505050919291929080359060200190929190803590602001909291908035906020019092919080359060200190929190505050610ea4565b6040518082815260200191505060405180910390f35b6109bd600480360360a08110156108f557600080fd5b81019080803590602001909291908035906020019064010000000081111561091c57600080fd5b82018360208201111561092e57600080fd5b8035906020019184602083028401116401000000008311171561095057600080fd5b919080806020026020016040519081016040528093929190818152602001838360200280828437600081840152601f19601f820116905080830192505050505050509192919290803590602001909291908035906020019092919080359060200190929190505050610f44565b6040518082815260200191505060405180910390f35b6109ff600480360360208110156109e957600080fd5b8101908080359060200190929190505050610fe2565b005b610adf600480360360a0811015610a1757600080fd5b810190808035906020019092919080359060200190640100000000811115610a3e57600080fd5b820183602082011115610a5057600080fd5b80359060200191846020830284011164010000000083111715610a7257600080fd5b919080806020026020016040519081016040528093929190818152602001838360200280828437600081840152601f19601f820116905080830192505050505050509192919290803590602001909291908035906020019092919080359060200190929190505050610fe5565b6040518082815260200191505060405180910390f35b6000610b237f3d4fe4eb4d3ffa2ec714b1b7dd9f3016472c8917b789c7af434e6ab45ba09e3e60001b610ea1565b610b4f7f89ec89d3638383cef181e126220728a5b3f683d0c98c6fffa7f8e48e18473d5560001b610ea1565b610b7b7f71749b8e50c51279d1addea65722ee472880cea5306c09c3fb4923d6b0a84b7960001b610ea1565b610b858383611083565b905092915050565b6060610bbb7ff992defc0164a2e4a9dba7b32328e516b17077e6698a417ae704b6ae5df07b3860001b610ea1565b610be77fb68ba2bce9421450f3d86d7cebe6aee5d330448c51e5e595551efafd4fd21d8160001b610ea1565b610c137f298273274b22d756d9c24c87ea34d27459b1ecad540ff9d5ef6f668b0ff71bfe60001b610ea1565b610c1e848484611aad565b90509392505050565b6000610c557f368a6afafe00642cc1130caeb2ab57a4a2e7c51fe87605892ab249efeb211ca860001b610ea1565b610c817f77d966684310e08b05e2dcb949741b540a7c6ff486dcb7fcad636294102940ec60001b610ea1565b610cad7f25c49b0bd98a0edf95d2e3543e763204aee8f980a4ef78d9c926b878a1497d4c60001b610ea1565b610cbb878787878787611d5a565b90509695505050505050565b6000610cf57f1a45ad163e85359872e41daea9f10eb83ca0fc6c955350f35d8cc12e90b4911260001b610ea1565b610d217f59d16872b2d1a8125c01762219de83a9a7ed474494313fbb39c50cf2780b78d160001b610ea1565b610d4d7fe75fabdde46f6b0b10b35e216cf9a069022872673680ef4398cf733696db0f5860001b610ea1565b610d5a8686868686612294565b905095945050505050565b6000610d937f3dc7c452d3f70863ec3cd0d4621882eb155f5a9f58494e23027a29e8e33422da60001b610ea1565b610dbf7f9b2cfd59279f2b5cd17e5b253b9974e2bae5ed8582cb4bfafcd9fb4d05bd5fe660001b610ea1565b610deb7f184fbc0f0938b31198d8ddab0df4c3c2b919a4cbddb5c270c44f009036d9bb1460001b610ea1565b610df88686868686612dc1565b905095945050505050565b6000610e317f7d773361fa36bd035020549bb161d0b54dfd31fbe448d29ad84039431698230960001b610ea1565b610e5d7f189073f1738d631be096ead42b4fd3e4640fddde5797653388467d0e6cbe7ba260001b610ea1565b610e897ff3dce2bf5650cdfa147183fe5ef58adc857566e0c5ccc7309525164cab30f47f60001b610ea1565b610e968686868686613087565b905095945050505050565b50565b6000610ed27f08151aac5c9748b311957f366dc54d0be7c1cc1e126b387d2a11d21aa132e4b160001b610ea1565b610efe7fd1c587af00d1e685d74081c4e0a3ccce3ed2a5bdf8088aef73e17d6ef62bf4a760001b610ea1565b610f2a7fa5701ab00df76fe97c888d34a5c558bf512b2ecafbc2e166c97361195a8feb9560001b610ea1565b610f38878787878787613b91565b90509695505050505050565b6000610f727f5306979de5e9cc57a298b2afce4f1b588abee83a576b048f442dbedd74425f3c60001b610ea1565b610f9e7f273e112b03c87c54d6c9e7659e0edda8b0f8ceeb844c2a4431430c5442b38d3160001b610ea1565b610fca7fa0dd5016e525a232b555082870697fe560b5bc00556973156fbb11e0a785b6bf60001b610ea1565b610fd786868686866140cb565b905095945050505050565b50565b60006110137f6eed805684284a3f6223528fbed4576dda0e16ba63f14eb9ed71c7073f2a417f60001b610ea1565b61103f7f7fa4c32ee71d863e01fabb852464e0335908326f94605cd9968acc8d9ca3ff3760001b610ea1565b61106b7f54f6760b0a6fd4ce2439791d1a5c51fef7ad5fb5a063cb09d99ccec7f7428a4060001b610ea1565b6110788686868686614297565b905095945050505050565b60006110b17f0345b4a19ad1bb5a0dcb428a57e43ee6c7ef3996a938d948d27dbf2157fc062d60001b610fe2565b6110dd7f23bc9bbf57f203b564c30d0969b2a7401924b7cb84124df69d678828e016eff760001b610fe2565b6111097f0d993d2d7c03f55f0701a42a16933fc1a79ce93669a76594f0bd999a9d02121d60001b610fe2565b60006111377f450f02bb654c17cf87236507205c4d16db81c28da5e9734e6c461b0c525c028e60001b610fe2565b6111637f064431700b914a31f11d1c409b6b076db74b574a0c598319a20358d96f09d65e60001b610fe2565b6000835190506111957ffa96720c05da6d2a942662f8482182a00b29474432dbfd6d9af840d1b6e470b160001b610fe2565b6111c17fe5f81905569e72122154d39fd4000759029300f76e74f623018e87f3b5c6c82660001b610fe2565b60005b81811015611259576111f87fe7030e42574dba30df141559d54fde06ba5afe513f3b3433550ee1321bb5678060001b610fe2565b6112247f47d52bbaeaea943ca8d43f2aa927afa0831868105657b337834eac6ea658e30460001b610fe2565b61124a85828151811061123357fe5b60200260200101518461455d90919063ffffffff16565b925080806001019150506111c4565b506112867f96e0f3de98f0ae889423c9230f0078d61cd4d4d22af8066a850de88aabc1f92560001b610fe2565b6112b27f6d8a88190ced48405b912e944e2403e215c03b999af36e8904bef5f0d0ae751660001b610fe2565b600082141561134a576112e77f4f274bfc55780803253eb49acbd1795fd6062933912fd03b9539e34856b44a6760001b610fe2565b6113137f489abba6783924d9cf99418f6bf2b57459067d218aec248d5aa3be498194dffe60001b610fe2565b61133f7f11cb4a652eb554ac031baaee5197606be80eaf8e4175f089de7eca529aff252460001b610fe2565b600092505050611aa7565b6113767fc1d7905b57fd19d0bbce0bd9dca4110c4d8a04320ac83a05eb2e2e2d3a4d03a060001b610fe2565b6113a27f02615edc90de6e4e1a6823471deab87ddbad9411465479a459dbf0f163b7ab4e60001b610fe2565b6113ce7fbfd17a202fc7b453ec592c3cd9acafca76e0f56907e833817260156cc5e61bbe60001b610fe2565b60006113fc7ffb4cad59a0363b7b0e9a169f8dbce69199e79962b77046c43a1982123b91287a60001b610fe2565b6114287f2d58d3fa73ec6b0ad554e06c2f8764ff3cdfe693dd437e1ebad18176451cf3fb60001b610fe2565b60008390506114587e46486f8d5502a0a96c4c4ef525194176b14b265d8190ff8666557c7803894a60001b610fe2565b6114847f22d0dc2a2649d24b0e722806aeb0f6e01a8ed114421a421934b7c3eeb6ad5c2660001b610fe2565b600061149088856146b2565b90506114be7fd1d55ca2d36fd6080752001fceec2149e4e44cfd7c70f57388983e99b321364860001b610fe2565b6114ea7fe18258fcdddf04573d2b5a8c77e7ea85023b679f06c90e9aaf7f513477ff2cc360001b610fe2565b60005b60ff811015611a45576115227f9c95ec098999d9436d7e56329e98b40acd8f1175fbb2ee7488e98b976f3669e060001b610fe2565b61154e7f252adb5c0ec5c1428239e13a8e1f93a6608a1fa32d951d1d9d485ef0595efc2460001b610fe2565b600061156e868a60008151811061156157fe5b60200260200101516146b2565b905061159c7f430a975b9fe2f6841a9d45f72bfe2905e587cd7b393559f82ff1d493033b11c360001b610fe2565b6115c87f8f312f1c4c9887268b87c0a02caacf5f9674887c68be0943a3f5dc4a7a8a8b4e60001b610fe2565b6000600190505b8681101561166d576116037f9b2c96c8463025d8fb909afbb0bf99834456e4d8a492acbb445c549cc2a65e5460001b610fe2565b61162f7fc8c1f17521d52ad76e96a7194e4a00db2aa0f420023b075cbd393b35a1d35f8f60001b610fe2565b61165e611658611652848d858151811061164557fe5b60200260200101516146b2565b896146b2565b8661481a565b915080806001019150506115cf565b5061169a7fb4acb98ccb29b94393742a9fd1edf8e8c32ef434462cb5d9082efc2e1d9ef71f60001b610fe2565b6116c67f12f35518527410caee5cd35d4af21c57d4ce399f2e6ac3c55e5c15412277b04b60001b610fe2565b8394506116f57f1fb49f7229fadc1d28b7f6d3b244860e66b848b2a8b57e6809e42d52b1d29ec360001b610fe2565b6117217f824f01433c853e82af9b347547d304933f4c5eb68aa083f60650df6f01b01a5060001b610fe2565b6117ab61175b61173a611734868b6146b2565b846146b2565b61174d6117478a896146b2565b886146b2565b61455d90919063ffffffff16565b6117a661177b611775600188614a3a90919063ffffffff16565b856146b2565b61179861179260018c61455d90919063ffffffff16565b896146b2565b61455d90919063ffffffff16565b61481a565b93506117d97f36049b437a6b618426e71f9d67dd4c3ecb4df2685ee111670e49bd8a50afef3a60001b610fe2565b6118057f71f1dec2c0e32ddb245abd554dcf9cfe0057058697ed7ee50acde244129bc2c960001b610fe2565b8484111561193a576118397ff2f321ae367a5c831f63483d0412be81b503194344a50375d1e19bc815d643dc60001b610fe2565b6118657fd19f6c186ac49497cf7764ab08c9348b8d038ef8a795ff84546eb6b2b36e3b6160001b610fe2565b6118917fca54de22c1cfb8970d659dac5034ed7c7ad9ed8ae371f8a7b4a2ac302a8ea89a60001b610fe2565b60016118a68686614a3a90919063ffffffff16565b11611909576118d77f39eee217fafbd95537f763b9a82bcf31694fda6317dc038023e16995548b38c760001b610fe2565b6119037f6bcf1c6ef8079a2f567a756bc625ebaf38c9eaba5fe6947359e6d7534850f15960001b610fe2565b50611a45565b6119357f4521ac15eef745fbdee8ab4b063cf2a69fabf46367f558653be0e7e496c3790c60001b610fe2565b611a37565b6119667ffce5cd40cd049b3a3ea12c592e01d08d5065e9bc1d85632f0c4f78a415d0480960001b610fe2565b6119927f11804fe8963d678b69102f71e00efbd5788af13b8d278113a397b1f1b7a6aeb360001b610fe2565b60016119a78587614a3a90919063ffffffff16565b11611a0a576119d87f7074d58180c3ed8b9097cf97ff1df7d66e804cca41c0d8e9fd12434f1cfaaae660001b610fe2565b611a047f2bf48d3125af769d1c94941a7ffa3fa209522b31590ee9f0b4767db2adaac86960001b610fe2565b50611a45565b611a367f2b748dc62407c68520f66a5bc9699d9990782542c3a8933964c550485fa75b3a60001b610fe2565b5b5080806001019150506114ed565b50611a727f15c734d8517bc85be899a3eb3f70f218738d7811c40c6ff839044ea8347edc4960001b610fe2565b611a9e7fe898b3021ec74f8f9c9172d922717512ae4bf2878b09c7c80b2220ee623a3a9660001b610fe2565b81955050505050505b92915050565b6060611adb7f4534cc55c4d7bdaf310d075803993f9d1739cd06b9fb2f23976d481181f6ada260001b610fe2565b611b077f9081bc5b97cbad9b7008751f8049a1e7c442b08716aa221aab157dc8b43665bd60001b610fe2565b611b337f5512fdd81facd3b97228391bd38da28f0c01a22513302b2d1dbc346c3844b91b60001b610fe2565b6000611b488385614b8f90919063ffffffff16565b9050611b767f9e9f82922458a14467194a5b2f546d2c82a172abe3a1b25e1414ac83e13dee7d60001b610fe2565b611ba27fc5216b47766b60df4f78b5f63c26a9370e11550240b0f17d965bb458fb1446af60001b610fe2565b6060855167ffffffffffffffff81118015611bbc57600080fd5b50604051908082528060200260200182016040528015611beb5781602001602082028036833780820191505090505b509050611c1a7f28aa0b6d479b091d147e3679e016c9d9920784bd1a00e2e02e383a1846a0e57260001b610fe2565b611c467f8bd441177f55e27051f3f0e34a1c0add0f9c7183e73a05e1547208fdd23f432860001b610fe2565b60005b8651811015611cf557611c7e7f9fb9ecc5d572275d1a050a3f95d39bf025dd0349a50acd9ab9194b36a2d2e71f60001b610fe2565b611caa7fe34b777d7a5ffae0a8e38c9242bd85c2568094f22b2189bf13b2b5b5891a516060001b610fe2565b611cd083888381518110611cba57fe5b6020026020010151614e8790919063ffffffff16565b828281518110611cdc57fe5b6020026020010181815250508080600101915050611c49565b50611d227f738cb85c7da1c5b3d8be1ca2ef455ae9c6c0d0a393562e5acc8378f2434d939060001b610fe2565b611d4e7f3066ff7d3edc3cac3b454df5942248a5175b8d662d9651006e97253144dbbe3f60001b610fe2565b80925050509392505050565b6000611d887f10717708b52890ce2cb369742fe574b9c62ee1aacdf6f8b12a4467286a1af8f860001b610fe2565b611db47f415c2935d68790b04fa9592f2da7e6b798a2dc5df44d44cab75aaabc217b550f60001b610fe2565b611de07f81e22ec2ffe50c67ca77b622c988aee05bf30b3fe8d137a6c1b87dcaeeb9277d60001b610fe2565b6000611dec8888611083565b9050611e1a7fdd2e2a66fb6524d7b80d5bf3847246994b29f75be4697c188285663484cbb6a560001b610fe2565b611e467f1b6e50346f7b666dbd55f96604b19fd00b8af8e25b86a21327ac83206ad57ac560001b610fe2565b6000611e7f82611e7187611e638a8a61455d90919063ffffffff16565b61500090919063ffffffff16565b6152fe90919063ffffffff16565b9050611ead7f49e2558483679625b87d6f2803cf4c3aada6d3370f0270f41186b2070063f91f60001b610fe2565b611ed97fc55f77559a4ab2358c97c72dcc2e71350c8bbda1f69a9788d3572d79ce914a6460001b610fe2565b6000611f077f6c0563e796e7bb38d53a8a6c5dff0d035dce4fe566841d8f366418f6e1c8970960001b610fe2565b611f337f5f6c048f0cdd2f854e9f815812707cd2b0fd1fe1b0e773a870149be3b3c1612f60001b610fe2565b60005b8951811015611fcc57611f6b7f938ecc4c9b92c2650ef6f29b6114e546e9cfbb9b11a846be3efcce89dbf54f4e60001b610fe2565b611f977f8cbadcd72bdc880e883c07e60924594c6f79e9dd54b9ec280e67680a16220bac60001b610fe2565b611fbd8a8281518110611fa657fe5b60200260200101518361455d90919063ffffffff16565b91508080600101915050611f36565b50611ff97f10164b1f20b5e236d469f4ea3bfd2460cea924fa6b9a36208b6579635db27ee060001b610fe2565b6120257fc6325cd46451258540f9f842aa87ec06e4d1720c3c353ea5c7a9d8236f38109f60001b610fe2565b60006120338b8b858c615599565b90506120617ffc26e236a8df89a6101671d78c1ea82e5aad10f93ce7384b22b8410e26e1f75660001b610fe2565b61208d7fa41eb77f985eb45bfaceec26305517a88faa9399439e5c56610c891914fd5faa60001b610fe2565b60006120b58b8b8151811061209e57fe5b602002602001015183614a3a90919063ffffffff16565b90506120e37f853d0058e2c08b4cf678b08c76744efb000f54e7ff92bfe72f6397d1ce5eb46960001b610fe2565b61210f7fecc6dc45093d690cf00e7c3b488f27d10bbcaae0d632808d33ac8aed2ba8410560001b610fe2565b6000612137848d8d8151811061212157fe5b6020026020010151614b8f90919063ffffffff16565b90506121657fd4110f8cecd05eb7c47aaa6a22fd5202e7a1a739d9440c07340f09de953a647f60001b610fe2565b6121917f91bee9057c852083d0554372f2f494946541a661dc18a16d838dc1f6c400a2a760001b610fe2565b600061219c82616019565b90506121ca7f22671c47bd0028c1d1cc0ff4a79f902c6d139ae7683c1c43277a64dd6bfa79dc60001b610fe2565b6121f67f310d7cd51d9bf238865767a0b451dd0846f943cf52f4da882f1a51743625d82f60001b610fe2565b600061220b828b6152fe90919063ffffffff16565b90506122397f2356fef582f30672dcbaf78359dd9249a30ff9ff27bf8ad3de84038697e7693160001b610fe2565b6122657fd23b68db10babab9344517051bf6199e6ddd16001e8747ccfba7245d1d7d5d8f60001b610fe2565b61228061227182616019565b8561500090919063ffffffff16565b985050505050505050509695505050505050565b60006122c27f0fa5a226f57193473df93dd35efc7d4f27603a39bd367228c73ad872c912727e60001b610fe2565b6122ee7f6db9bed27650fa9a6ffc7b48c7066f6cf69683a75c83fa6615144c4ce6f8144360001b610fe2565b61231a7f992f64b322dac5008e11e6782d4bb703744d3defb50caee44838228cbc51193160001b610fe2565b60006123268787611083565b90506123547fc9aadd38942e4b75973c6a48eb632487f94701992dbcb05151bda49b28da0e2160001b610fe2565b6123807f7cfccca356b834ef1e5fefb970a7b77f5723d096b55bc6fc6f08a857ddc85e7960001b610fe2565b60006123ae7f4960d1adb32862e3426035369b6162b25553e344303269270d372aff32be11e860001b610fe2565b6123da7fa29eab63c1e201e6ece3fd4cf8f7edd76f972f8d5288909edc8ce71ed49bf75060001b610fe2565b60005b8751811015612473576124127fe3ab2892580795a69dd3ad309429e7e39a3f1b22e7d3e54f59a8434dff4c73f860001b610fe2565b61243e7fdb68473312a559080e7508343cf91186abb5fbc49655a2338b4ae92ee55eaa5860001b610fe2565b61246488828151811061244d57fe5b60200260200101518361455d90919063ffffffff16565b915080806001019150506123dd565b506124a07fe1e2b187963bfb2c3be28f0106f10660631c30ba83b7a88c66f50e831881993e60001b610fe2565b6124cc7f93d89b81e2dc4fbec1ec36799a9d80bee7812a3f393a70ab76b9674ce8596f7a60001b610fe2565b6060865167ffffffffffffffff811180156124e657600080fd5b506040519080825280602002602001820160405280156125155781602001602082028036833780820191505090505b5090506125447f8d9ce77d3658d85cdbf7294ee7fa83ec50170128c559c415eaf4c9a65d857c7e60001b610fe2565b6125707f1638c4de9a9ec4cc2212f72fcf3c6e7a13d27a9b9e2c09de419675c380c24f8a60001b610fe2565b600061259e7f15972d06ae00cadc3a03546f2e4475c8bc5beb194eea87902b744511f433ced060001b610fe2565b6125ca7f3a8c21239d6bb8f19e7dbdd635a56731384e2012a5d73dd99994f72fa880992960001b610fe2565b60005b89518110156127c6576126027fdcc54cd73faea2e231fab4e1771138ccb04e9bdac7b14e7c142797934b26837060001b610fe2565b61262e7fb33bf50b2dd4ac81b409a43445630b691c5219f05bca350ff675bc14cd61dc9a60001b610fe2565b6000612656858c848151811061264057fe5b6020026020010151614b8f90919063ffffffff16565b90506126847f137a42ed5b6bc582fc8d7065ac6cd8004e653de04a3b0d467677fb8ae0db17f260001b610fe2565b6126b07f7ba03de368410b6d4ed38ed8a2df31227c2065d0f63712806efac5f948acc93f60001b610fe2565b61270e8b83815181106126bf57fe5b60200260200101516127008c85815181106126d657fe5b60200260200101518e86815181106126ea57fe5b602002602001015161455d90919063ffffffff16565b614b8f90919063ffffffff16565b84838151811061271a57fe5b6020026020010181815250506127527f72765b17d830db116aacd964e45cbf97bb50bd01386e8d0ee7cdeb095cfd0ace60001b610fe2565b61277e7f756efed06999e47702e0b6a2946e3d96e586f6bd4a04c21ceb1e229fc0577e3760001b610fe2565b6127b66127a78286858151811061279157fe5b6020026020010151614e8790919063ffffffff16565b8461455d90919063ffffffff16565b92505080806001019150506125cd565b506127f37fa423bdba64489b7e3c3377fd658e1eff9cf4d861a7ed3f40e1b7a8220932b7dd60001b610fe2565b61281f7f16521ee6259505824198522e11f33daca9467daebcb9f928a176f72fc4f1ae0360001b610fe2565b6060895167ffffffffffffffff8111801561283957600080fd5b506040519080825280602002602001820160405280156128685781602001602082028036833780820191505090505b5090506128977ff91ca9ab2c323fd330539ca34c92eb218f6a6d7decb37c8020d24a2c15fda18360001b610fe2565b6128c37f7d38c91b68dd0f89a816911419c8391ca8883516c89387c5601b5bdfdae83a0460001b610fe2565b60005b8a51811015612cb3576128fb7fe74710802f6526275afb314122f853636f6fb908761963cd571ccb34a9c63e0d60001b610fe2565b6129277fe49bc0c2c12953d95906a5ca8f80857218a61091ee07c9941377c17b4245295660001b610fe2565b60006129557f45743b0feef1f6384920b92c5f25fdfb735f9a7604400fb7b14cffeb65dc0bdb60001b610fe2565b6129817fb041ed050472ced97350e8114a4ddcbe4d8d3fbaa710ff86a309cf264db89bab60001b610fe2565b84828151811061298d57fe5b60200260200101518410612a28576129c77f8183f2518458b663e1539bd6c6f26278cec17b2b4527ba93d87431e3962228a760001b610fe2565b6129f37fc589df819a7f6ba7c66ddf2c2d627a0b322f4b3a7fbadb43b20a21dae18d485360001b610fe2565b612a1f7f88f45bd23cd6051931572d554ac6a5caa6c021e2ae82179665fda1476c0bae2360001b610fe2565b60009050612b14565b612a547f742d8c2100f5a8e0f6b0946fc95592c74b4d51ef06398094e062cd606f3f4d3760001b610fe2565b612a807ff9c45943a5677a6b6d920adab3c7440b9fcb4a1832061a74b4bc84fc5b1a9dab60001b610fe2565b612aac7f01e8502151cf6be77828366efa61b98463969d0159b82cf7ae42449dc30cf85760001b610fe2565b612b11612add670de0b6b3a7640000878581518110612ac757fe5b6020026020010151614a3a90919063ffffffff16565b612b0386888681518110612aed57fe5b6020026020010151614a3a90919063ffffffff16565b61500090919063ffffffff16565b90505b612b407f9a09ec7d785d1a7a85cf1773a57ce59f422b6657a0f7bf1300a5bbb56573d2a160001b610fe2565b612b6c7fafa703c3ee5471804248fab0669c4ae9e5817e95b9892e23a775fd3fb4905f7d60001b610fe2565b6000612b81828b6152fe90919063ffffffff16565b9050612baf7f8b5ee869c9b433f48b259c9108e2cc96ae1df7d2aeeef9a97e7b3266a3b4d81d60001b610fe2565b612bdb7f854c9d05df376d1f1e67e8bd30653b12a9cabb752d45770428fe4230314b86f860001b610fe2565b6000612c0b612be983616019565b8e8681518110612bf557fe5b6020026020010151614e8790919063ffffffff16565b9050612c397ff19ad277544d09affcde4fdcc367e2d987335125c258f5c9bf597a6bf3c0d5cc60001b610fe2565b612c657f48edb06d6a085bd243dbafd222e7e69d85f5c6dddfcdd93042f90b44a29fcc2960001b610fe2565b612c8b818f8681518110612c7557fe5b602002602001015161455d90919063ffffffff16565b858581518110612c9757fe5b60200260200101818152505050505080806001019150506128c6565b50612cdf7e454e24695bbcbee607feaa8ec5a554eebd5851c3299a7bdaa03c8f1785093760001b610fe2565b612d0b7f12a6a9433feb8edb965b7fb8a35c5fd0c1b61594c0479887997993246806cb7f60001b610fe2565b6000612d178c83611083565b9050612d457f54fb62f9540fe78618d2f52d2524738c637eb2e2321ed4fb7776796ced16c0b460001b610fe2565b612d717ffe38df5ba74f3f30172597e57a78ab212791be348f972b30658b35afc341276260001b610fe2565b612db0612da1670de0b6b3a7640000612d938985614b8f90919063ffffffff16565b614a3a90919063ffffffff16565b8a614e8790919063ffffffff16565b965050505050505095945050505050565b6000612def7fe7e576e94f608aa9b8b13f3464df4bf4f87385342a709d51c9dbdcc6c1f23a6f60001b610fe2565b612e1b7fc24008f530ee23500accedde673d523e4570f3a2fc5e611df0c8d4d51bad869160001b610fe2565b612e477fe8b8be9371d54254379fe4c2b27265e773f6a7e8b34cd03b174a3ff27b5f93ce60001b610fe2565b6000612e538787611083565b9050612e817f4b48c51b0e9d0cd1e305d4f86d5b20e0fd2814e13750cb65221c6103e416897060001b610fe2565b612ead7fcf1779082bd57f2b7d74435f5ea192c506e6be91a6f317c980479448e03525d960001b610fe2565b612ed383878681518110612ebd57fe5b6020026020010151614a3a90919063ffffffff16565b868581518110612edf57fe5b602002602001018181525050612f177f145307daefadf21c49e143c3b4b7be772660a560ba2f5f9eaf4a7eb4d5a7220a60001b610fe2565b612f437f43339c075766bb2562845631c916fd723a879ba458a5d24445f811e9cac7d9e660001b610fe2565b6000612f5188888489615599565b9050612f7f7f10c1331d6c9ef3b6e8d272509851b63dbdbb979c1854f8133b56b842412ca60e60001b610fe2565b612fab7f42b82aee29b6fed74746495aad9d5c086a33bbedd32d9292081c2eacf23fe42860001b610fe2565b612fd184888781518110612fbb57fe5b602002602001015161455d90919063ffffffff16565b878681518110612fdd57fe5b6020026020010181815250506130157f68db7398a905ae7ce3fba6eaf02185db88ba8fba84bfa17b1956b114db3febdb60001b610fe2565b6130417fb3a3ca7345417e5982ec2fe9a2df19f859b18f72d4b14334e743b2713deebd9560001b610fe2565b61307a600161306c89898151811061305557fe5b602002602001015184614a3a90919063ffffffff16565b61455d90919063ffffffff16565b9250505095945050505050565b60006130b57fe838a4b94cdd555b78d8f8f20aefc724685b612ed2d28370fe6bae31db3bd04960001b610fe2565b6130e17fd42ab485a72593daf8f0a173ed27413108f0e37d31e49c9db3c62722ae0b2e4d60001b610fe2565b61310d7fff609860c5a8b73fd527a3c84716acb88a1fc37488b4dd03e7c95f0ead8c629460001b610fe2565b60006131198787611083565b90506131477f3b02d96e56330f28df1ce1939a2cd93233ec8a56b5bad4a2398eeaaa39b6530a60001b610fe2565b6131737f5cd068412eb26310e7fd7ff6fa778899531e79a9b404dbe1642fcd7a5a7c976660001b610fe2565b60006131a17f8dc00a296702d149e69d88e25bdd8e08b2941f9e83561db3ff1d8763fe71895160001b610fe2565b6131cd7f56e084fd61927414b0eb2a7031c1c88638edc7b6c51af30cdf050a10f7eb428560001b610fe2565b60005b8751811015613266576132057f21ca0b4f9cfd419f205be2812961564f60a982f7acb4f9c19155720eb5b3f64660001b610fe2565b6132317f511ddd2a4b8783636ba3b414601fa600c105bdd47e2181ce020da3b20fd1e2dc60001b610fe2565b61325788828151811061324057fe5b60200260200101518361455d90919063ffffffff16565b915080806001019150506131d0565b506132937fd8eb3877eee11beaf7d03837a8721cf94dd74febbeca3b5680c39aba521f365e60001b610fe2565b6132bf7f1977a393598629bce2433f345f043ee0b0d579a88b109ee05ec3012813670b9260001b610fe2565b6060865167ffffffffffffffff811180156132d957600080fd5b506040519080825280602002602001820160405280156133085781602001602082028036833780820191505090505b5090506133377f3d548f782b7e0b2c8a047195e2f51c5a2ccad371b54db449e11ead634bf30eb760001b610fe2565b6133637f6e858b8e3fa11c3f9668f41b71fef5b6662216e130e5e0c4fa79a0aefdc5d32060001b610fe2565b60006133917f4f6cc9b2c2d3d9721188d7e58f5d03a43328c38952ed4578ec6bc52f044b78d760001b610fe2565b6133bd7fda04fe1d6da5eaf190d42ce475e33977b6bd23e37409bc1a09f6bcd714bc201f60001b610fe2565b60005b89518110156135b9576133f57f2a1e24ae45e914db84af77fda110b77289ff639942022a25236f55373863cb7060001b610fe2565b6134217f918cdd04d96b1cb4cd0f3c4ec3c25c1e7dcf219e88d4a283fbd536c48b861ba860001b610fe2565b6000613449858c848151811061343357fe5b602002602001015161500090919063ffffffff16565b90506134777f0ea03b4fd7076e491999d25df17f7900400a800459085d717c95d50a2424808d60001b610fe2565b6134a37fdf77ea4d58aae6e296e1e7234cb57bdaad30027f77a040bfc4c16d9a3608a5e460001b610fe2565b6135018b83815181106134b257fe5b60200260200101516134f38c85815181106134c957fe5b60200260200101518e86815181106134dd57fe5b6020026020010151614a3a90919063ffffffff16565b61500090919063ffffffff16565b84838151811061350d57fe5b6020026020010181815250506135457fb1b6c446837eeb61488ab2ec0f96de873db6b0c265b67af52a0271a8722ee07960001b610fe2565b6135717f628b021cb75e3d3b41b0c3bc7d00e198161cdaeeb23081d6b03724e50c05743f60001b610fe2565b6135a961359a8286858151811061358457fe5b60200260200101516152fe90919063ffffffff16565b8461455d90919063ffffffff16565b92505080806001019150506133c0565b506135e67fb357826c7b97e4e3c4f0b9bec956befd9d168572ee5e04588f1d2bba87cce2a660001b610fe2565b6136127f32f995000e91d9aa1c454f3e4ed8fb47de86247e1b76755a9d5e529d94ba0bc660001b610fe2565b6060895167ffffffffffffffff8111801561362c57600080fd5b5060405190808252806020026020018201604052801561365b5781602001602082028036833780820191505090505b50905061368a7fa8595232caf8405fb8a37a4b25892a04a375521dda954a9d0852d407e49d3a3960001b610fe2565b6136b67f5e3a0bf0294cfbca69b2f64ec03391f48b6fb76c4f911f0cdfa75d5c8d7e848860001b610fe2565b60005b8a51811015613a94576136ee7f4196a5fb289e6ec56c5c8ba2a77ef401a06ef55e462330390d75bf7f35d9d9f960001b610fe2565b61371a7f7be7a328dc728f87008b6432a4ed9beeea983c60ef890d33d809277c94ee078f60001b610fe2565b60006137487f420b64d489837611d40625e91b56a385fa54dd962f7afda01e0d9cce8ac6a39360001b610fe2565b6137747f4df666f4c77774d319efa55d568530611d78f672d1f4425da78c32acbaa1fa8860001b610fe2565b84828151811061378057fe5b6020026020010151841161381b576137ba7fd79cd0a5cae01c07103c640e3e5e5ea9924652b019be938e18a0f47aec09b31760001b610fe2565b6137e67f8cb0f2de59ccbb102b00554c3be55709b1e16fa8acb28728c463f7dc4900562360001b610fe2565b6138127fd15f0ac660cb6b8344a836d941470b291714d1eb0e206fd16fd9265e28ab398f60001b610fe2565b600090506138f5565b6138477f04b1e3ef332b26a2b83929ee524777739fc6eaf6249023b32a6ebe782f410f9d60001b610fe2565b6138737f97d286174689ba95458a72fdc61e40da2896c0a8277fccc5e8960ff49681da6f60001b610fe2565b61389f7f18a577442faee0088a62e734bae107d25fd9acd0f0d11c44496705e7ab74861460001b610fe2565b6138f26138be8684815181106138b157fe5b6020026020010151616019565b6138e48785815181106138cd57fe5b602002602001015187614a3a90919063ffffffff16565b61500090919063ffffffff16565b90505b6139217fcb1c7ba3fde9924702ca2c3d73dda063e2f55e4379d26171254eaac039d7e2b060001b610fe2565b61394d7f763003aea8ec731a1c1e6667e00ada6df3fbf62252f9ec4a30f2f02768c2647260001b610fe2565b6000613962828b6152fe90919063ffffffff16565b90506139907f6cf143794808793f787c20bfa829b41876c8c209bda4413b0cd718ba8492bb1260001b610fe2565b6139bc7f39eb11964aabdff5d65d8884a40b75a8c79335333a50ee502487b5c553d4cca560001b610fe2565b60006139ec6139ca83616019565b8e86815181106139d657fe5b602002602001015161500090919063ffffffff16565b9050613a1a7f5941e039a081f5e1682bfd74946243b91b7a4f1c872fa20e34ed46bb04797c3c60001b610fe2565b613a467fe43db5b6e76919f3e9efa4959dee6a3ceda861ebebdf4718934862eb461aa78360001b610fe2565b613a6c818f8681518110613a5657fe5b6020026020010151614a3a90919063ffffffff16565b858581518110613a7857fe5b60200260200101818152505050505080806001019150506136b9565b50613ac17fdf04ae6aaf0f4eb2e7c9b8189abb58ebb46f68166ba6c2c5c4b9b2e569cbb96c60001b610fe2565b613aed7fcd472c0b605b92e5f63202fe1d172e55d3f4e05f4df2ffdf82e828a4b69b79fe60001b610fe2565b6000613af98c83611083565b9050613b277f3a396a5930d67aa6eee47cb347fbc7e427821ad485761bf744c3d2d9add65b5060001b610fe2565b613b537ffd88f3e9a08b43dac5d405452d3ddcb84d50cf63fc38201124974aa9b7873ae460001b610fe2565b613b80613b71613b6c888461500090919063ffffffff16565b616019565b8a6152fe90919063ffffffff16565b965050505050505095945050505050565b6000613bbf7fc4c42ee3fb894d55140d781aa438c3f3a0a39cdb324f4375f24bb86afc25384d60001b610fe2565b613beb7f93948c5c7c3ff1a7e878d48f75813c216306be88318b70a62fc8bd41d64a952e60001b610fe2565b613c177f4fabaf379a560cc48e35873f38d2a95418c028191baebc4dc34344b74935659f60001b610fe2565b6000613c238888611083565b9050613c517f9a2234a12a96e8bc439ffdd322ab2a4a676747ff254ef69fa69f560fa6e6cb4960001b610fe2565b613c7d7fdef863088a3f4fd420a12a5af57d07d082048c22e73e76a4398acdac3f919cd260001b610fe2565b6000613cb682613ca887613c9a8a8a614a3a90919063ffffffff16565b61500090919063ffffffff16565b6152fe90919063ffffffff16565b9050613ce47f27d3e2c373ab24179cfb0d0c17cd420c3912c510597d7622ec7fcea299de02e460001b610fe2565b613d107ff99360194b5f5c196424e9ae95aaf2b822cf2dd7eb097dd6cddb975ed69d850060001b610fe2565b6000613d3e7f5209e9d8d9550ee5a30c09422876ce8bbdeca9306cebc7f63d64b10c7137723f60001b610fe2565b613d6a7f1129091ec574ed8a86f49c56c3f9462c66bc39174b5d125f3b7ffb399828c61660001b610fe2565b60005b8951811015613e0357613da27fde0296ceb6d4fa45fee74025899f5950c4e5c280cc76c4eedce8f6e11c219e5960001b610fe2565b613dce7f93ac54f93de48c6d6535a076ce695829ca27bec6d188794f08d9a2f55165c0d260001b610fe2565b613df48a8281518110613ddd57fe5b60200260200101518361455d90919063ffffffff16565b91508080600101915050613d6d565b50613e307f2b0ba23eff1af8d93d267e728124788bd0b4e7f6eb84e75d775c56201d544e2260001b610fe2565b613e5c7fc8dae815cac5701e2ee726bba375c9d536b90fcd69330554ce6491b9ff24e68460001b610fe2565b6000613e6a8b8b858c615599565b9050613e987fd5044468778decd803aded05766cb9384a2ce7095b52450ced045ba61afb547e60001b610fe2565b613ec47f1957ec9610f3c1b8143dad2bdb10e0e5687be4223acc1d76cd080d62582e362760001b610fe2565b6000613eec828c8c81518110613ed657fe5b6020026020010151614a3a90919063ffffffff16565b9050613f1a7f837c69b5ef153d0e9d7d7fe9322b85bb5bafef0f1ef7cb6711b98be9deebceb960001b610fe2565b613f467fcd00071de20785bdb373d358ad331298314c09cb6c2f9b2606177e0bbcba586760001b610fe2565b6000613f6e848d8d81518110613f5857fe5b6020026020010151614b8f90919063ffffffff16565b9050613f9c7fd865b0fae16a1f4ad9c46332a1eba480c8c697e06b0e418dcf4e7a06de21564f60001b610fe2565b613fc87f1d62e21f0dc9e7c31dad635e81c03b8a8c676f8c24fbda4484991384b6ca03db60001b610fe2565b6000613fd382616019565b90506140017f32a3058cd88875d276bcd9260c3dd9734c7945c9e197b5e6c2522b3d95037db160001b610fe2565b61402d7fe0507d2648cca9afe69f368325b9c79751d4be7f9c10bf746ddba26b6bcb722460001b610fe2565b6000614042828b6152fe90919063ffffffff16565b90506140707f1bd0b553f4d7cfedd89d6c397b7b8fb6fd10baa26a13dd34a6c8393bc23c797460001b610fe2565b61409c7f3625d4bfcae95c90d966efbc7f37cafdad75a6691c56af70bc9c42811090dc7160001b610fe2565b6140b76140a882616019565b85614e8790919063ffffffff16565b985050505050505050509695505050505050565b60006140f97f63849c48734c5fb876bc3d69836a638eeb4622c0b6c1acc72a91d552b7d1af6260001b610fe2565b6141257fe8173ff43f9e1db5358486ae6fad6ad5b33319fd434c90cd89d78ede8e2dd85a60001b610fe2565b6141517f8894f86016b5c48ef7569857b3ae678fe8ff7019219a6b499a64421afde6c3f960001b610fe2565b600061415f87878787615599565b905061418d7fd3c9bda71c503a8f81534f9d8529889a53d10f5b683a22d9097fddfe36367f9660001b610fe2565b6141b97fe045c257fc6aac2af301d91ff28c3c5c6a60707afc9ad7545feec1528a46b45b60001b610fe2565b6000818786815181106141c857fe5b6020026020010151116141dc576000614203565b614202828887815181106141ec57fe5b6020026020010151614a3a90919063ffffffff16565b5b90506142317fecfeb968b020c813afd8bb653d3d1ffd23f4fed1f4ecc1d86ed1c5fcbfe907d160001b610fe2565b61425d7fb44fdf2aeed153697c93f6e2559cbf31574fdfd0102e8e7fc284eb976a0ee80160001b610fe2565b61428a670de0b6b3a764000061427c8684614e8790919063ffffffff16565b614b8f90919063ffffffff16565b9250505095945050505050565b60006142c57f52c9ca51b9972270d881e44fce54173680a33e35b8871e6e80b85b99d623f38160001b610fe2565b6142f17f2fd7609211b56fe9c7b09a89ac81657b229e6e97def511c3ac0682bf38477c6d60001b610fe2565b61431d7ff86675a5ce71f58558d7a129881b09f387cc97b1a95b72c8e3e004f31645475d60001b610fe2565b60006143298787611083565b90506143577fbc7184e84f845da8918c84da5184d0dabfe341e275bfd69f0040fffe8a74aee960001b610fe2565b6143837fd768f7a452f3c88c40ab856dd2765888d047c4838adebd681008a2ae37f67e4f60001b610fe2565b6143a98387878151811061439357fe5b602002602001015161455d90919063ffffffff16565b8686815181106143b557fe5b6020026020010181815250506143ed7fb616e0c240d521946aa80661c17e8a7d8a2689711f7624d615625916f255c44860001b610fe2565b6144197f346a88f4489e55ba78e3f4daea724cfc3f34d00ee2a63be3a6aadb22d3f8189e60001b610fe2565b600061442788888488615599565b90506144557f4700b9bf27dd710f3f1a1498b4a6ce66e9aa0d302c046048b30d54810cf8922460001b610fe2565b6144817f9b70b032777caf680caa3f4bf59a94c49952452a41fef30f996261e1ef0c51d060001b610fe2565b6144a78488888151811061449157fe5b6020026020010151614a3a90919063ffffffff16565b8787815181106144b357fe5b6020026020010181815250506144eb7f2e2cc403f27f371352bc74fdad5350ecf48274299839944fec92c17cd7e5927b60001b610fe2565b6145177f641c2ab38bc0ef9741ed8bc81aca6e7f1be17174e8092d0917def2781c3b488e60001b610fe2565b6145506001614542838a898151811061452c57fe5b6020026020010151614a3a90919063ffffffff16565b614a3a90919063ffffffff16565b9250505095945050505050565b600061458b7f59553e064ffc30705bc6f1bd0548781ec42eede447ec06cd2d9ddb674a8219be60001b6160c8565b6145b77fab4e9dc03bf83496a9fb56ed78c77ac71999c4c5b77197bc3f03888fa1f7da1860001b6160c8565b6145e37f8ef261d3a0653ab868c899418b467bc6f67e2ccde42f77cb49f1285b32558cd560001b6160c8565b600082840190506146167f172b47099aaf4a028546f4463220baa09cd81d77ae8c1096fc6579f4ecaeac2960001b6160c8565b6146427f967579ee3162c1a66be7747b1966e185b33f2fc6a52477633bfe253a007a6d0d60001b6160c8565b6146508482101560006160cb565b61467c7f837f36e10f55e182d80df4008a9565a95c9998c0cbd301003424ee94022b465e60001b6160c8565b6146a87f60b415dd739853b43f2c31e0a76108ad464adc9d8eacc59b1f59ea004963800b60001b6160c8565b8091505092915050565b60006146e07fc37d921c6111359fd9f79d2a28c4792facb1db4f39f5274d1b6163c18e3afe8b60001b6160de565b61470c7f898a92623482f45d1206dfef5d86715e008f5452a7c413085f43c128004b3d9760001b6160de565b6147387f05fd20169ef0846499c468d531d0cf9e99ffbf7744456d397b9e942723963d4860001b6160de565b6000828402905061476b7f8e86e68a4b22e3c8f81c2073a80e5cb58d704f7122af81c9942d06a7e84c3e2560001b6160de565b6147977fb0310a7161613cd85ddc020fb1e188ea5b953042e7225a2f1c35f62ad8d78f7e60001b6160de565b6147b860008514806147b15750838583816147ae57fe5b04145b60036160cb565b6147e47f558de74b4ced8028b43c759ce9fb582f1bd05e8ac02db8253c7f66b126b33ed760001b6160de565b6148107faa5db913fa4d95819207f4034e9d987218cfb113b8ec8df4a432cfedb219b35160001b6160de565b8091505092915050565b60006148487f6b01f36c18c79940b9baa1ea7627e3c10a23e324a38396be9a253583363aeb3560001b6160de565b6148747fb9ac893588a5a801e4698bd76575ede4d5838fc56498d0cf6c1a0dd159f20be960001b6160de565b6148a07f129ba58c31ad62f76bce8051d617e8f5e7ca5f956b83b84c7cfca80f6170196c60001b6160de565b6148af600083141560046160cb565b6148db7f8797abb6ec34e73bc681d07d467829ddfef5a3412b3ea4dc629fe993ab7153ec60001b6160de565b6149077f7144f0b5796c5168aa587bd2d2cb2beaadb3f41d05983b435a381bdf8e8ca5e460001b6160de565b600083141561499d5761493c7f90e9dc5e222294ab0e40e698afbff89ab7912401779b3705db127706a25a279460001b6160de565b6149687fe70441edfaf6261218ccec5b4c00017fd4be0ce2024744a784e9703b2eb5921c60001b6160de565b6149947fbc398dea8e073f5dc774615f3f686fa5c2d14965232aab5bca0d46cc7abe05e260001b6160de565b60009050614a34565b6149c97f790584e95c50fd3f26581fb60ee3d72efde1b8545345dbe5c80231d1ea31127460001b6160de565b6149f57f8098282080dc3f0f12a01b1890ba22d8cee5477cce28c89c0029d16c132ee2b160001b6160de565b614a217f05fcb8070bd589808c64e227360faac4ead6e092128766d5693bd170c16ff4bd60001b6160de565b816001840381614a2d57fe5b0460010190505b92915050565b6000614a687f98fee658fb98ee3a3f7d31c9b144bae0694670e2d2c9740be272b5cfea0092c360001b6160c8565b614a947f293f09d7307734d72ef4603c3433eb00449e5e883678fdc8895b9ad14da4388760001b6160c8565b614ac07f9ea24ae37f0db9d37904a7342a2b686a492cf5195c6dc2b3a033aa704f81844560001b6160c8565b614ace8383111560016160cb565b614afa7fe5e0f286e14e3939ab23ad606f1392eab58a6aa878cfdfda24b238e5aaec25c060001b6160c8565b614b267f37759278f4a59534be934e0e6521d3364d9957c6491e795f56bed364064e433360001b6160c8565b60008284039050614b597fad28cb0f8fb12a20cffd3ed3e3e4311fbd593c9af7fcd49febf0e43a31f27eb060001b6160c8565b614b857f73877f4e66f2878c1974f071e9743c95266cbad904e3148b9557f6ca9019d15260001b6160c8565b8091505092915050565b6000614bbd7fd681117b54f8c42dd9b9b724675b90500142f91e0c692c88cd29f6a4ac20d90260001b6160c8565b614be97f166d54a6dcc2da1700c278643acbbe8ec7be0a002e0be3664514a05bff76410660001b6160c8565b614c157fbe546f1bb4a2252f3c69d522122f5305aead99456e33c2514e382512cbd275ad60001b6160c8565b614c24600083141560046160cb565b614c507f66baa7ca3e26778872311ae2b37bf38dfa377789cb684f64abda0507ede6155760001b6160c8565b614c7c7f9bbcc745d05068633f50f2da4aa7785c4882dcfa9bcf9c1c303a65580176ef3f60001b6160c8565b6000831415614d1257614cb17fc3eab5df153e3b105e157cfa055bfa8e0845e90270ff3255e7446c30deb579d360001b6160c8565b614cdd7fdbc3d990e3f3bab6fa2a0d2d047661dde07c4ef25a24501839feae50185866ff60001b6160c8565b614d097f4dfe5096d5d7b39d55b09ffb0f574f2071999b6d3e264f41d19472f6f6dff6a460001b6160c8565b60009050614e81565b614d3e7fb6dfe2886846608d4ab290feca7c5ec6ae2852dfbc3707d276ab66657c42cd0160001b6160c8565b614d6a7fbd6d291981cc28a3445540f278cec30943e7da252b1f546a4206e2297370b83860001b6160c8565b614d967ff68e1a1503b4afdf9fbf5a22748d3463567f3562a99e1fe0c70f16aa0941e7ae60001b6160c8565b6000670de0b6b3a764000084029050614dd17fa9252a08ad1a46a72a3ef9d1afb829941f22d18012268e7192e1b3ffb5eba14960001b6160c8565b614dfd7fcb9cc8cc61006212eb8ed6f13e3a563d524b873c3a01f66af4887945460f4c1460001b6160c8565b614e1b670de0b6b3a7640000858381614e1257fe5b041460056160cb565b614e477f2f1f45017adad415bec4ac763f6f16672ad5b44eeea98c3ac69d9a7e7ffe543c60001b6160c8565b614e737f512b328f221d3319110052907ee75993170f783e77190fc89cfaa6bdfa4cb69260001b6160c8565b828181614e7c57fe5b049150505b92915050565b6000614eb57fed5730d97338cc99ec7ced602749e69fad452b233ce5af1bbc10319879372caa60001b6160c8565b614ee17f8f6916668b49b644d98f771f124b5a32bd9897d7ebe53b3c38ade6a71e84085760001b6160c8565b614f0d7fe14f128dd52a43628a9bba7b0a6f33bfc1a4220802b917ba737266f9dcbfa49c60001b6160c8565b60008284029050614f407f46dbb44b8cf04ee6e61d614d79ce70c1a85cc911b0197fa4ddce642a38fa5fc460001b6160c8565b614f6c7feefba6c3b698f9572b5bf37de3ea9769c52c377600e5b34f929c993e75aa62d460001b6160c8565b614f8d6000851480614f86575083858381614f8357fe5b04145b60036160cb565b614fb97f38f54c5617f008a16f1f038a9a8bdf61cc1319b326250c056a5f9064eacdca5460001b6160c8565b614fe57f7a48fe0d9a13c1bc8e2332965b60872b1e28e7883785e9895a3ba40dfcccd1c360001b6160c8565b670de0b6b3a76400008181614ff657fe5b0491505092915050565b600061502e7f2d109a5683dd9a11ace453b33326f996dc073f965956c0adcbc94da37c822bbc60001b6160c8565b61505a7fea0a55fe7d66eeea1d8c65997ef349e4565e690cb513c76bb425aa845819404460001b6160c8565b6150867fa2e015e562ecff7cb5dbcb8dcc681211c5910605c85f6c8da514e14520d7be2e60001b6160c8565b615095600083141560046160cb565b6150c17f7cb9d936b52daa3885c69bfd5704f0b5904085e5601e4d6996bdb889cba14b7e60001b6160c8565b6150ed7fa6aa7cb199aa4952e11d0c48c2f2a6aa6d773e1412fa2c68e4497072fc9c34a260001b6160c8565b6000831415615183576151227f6444ff1aca63815e4d2616653a3331b326584b2c92e1619a9aeea548bc0fa6b060001b6160c8565b61514e7f1bb8db645f8bcb2e16a0d7ff4086e5ee3684b0032db0454c653291f51b9f723960001b6160c8565b61517a7f11b60f07d48ef5f829a0caf0761770cf3d5dfeeddc3475cbaada9d91ab44ff1f60001b6160c8565b600090506152f8565b6151af7f4a73f3af504b91809a28e5acaf9337a35a56ca11189217b0a894129cc15e8fad60001b6160c8565b6151db7fe99ea2420c0ecfeadba8d7dd1d82e5ee989794f71a5f27acfd3ad1bd812c690b60001b6160c8565b6152077fd17216c7fdeef3f09d1091432fb7303451e83c986270ffa9bcb84b0b66b60cb360001b6160c8565b6000670de0b6b3a7640000840290506152427f022bd7d5ec8e771a53b61eeb3fa4b04d83c67d8a43d01c0c66cf08aa6018840d60001b6160c8565b61526e7fdb22d1d6663051778e748b13c2b2b11d231553902ff4007ccd48321f7bb63d3960001b6160c8565b61528c670de0b6b3a764000085838161528357fe5b041460056160cb565b6152b87ff80bdc4afe03b8285068be38759e765413a3844d086e1d62e0a9d6f27338182c60001b6160c8565b6152e47f5015482585e9090f4a9bf17a97e47f1225482f97e80fa061dfb918c23d4f585860001b6160c8565b60018360018303816152f257fe5b04019150505b92915050565b600061532c7fecedcab8d0f0b6a3000213e8cddc44feada52d5d1ceca994a1708f87a68f484260001b6160c8565b6153587ff7a5e7dc62e206a3c02506e29058349ecd8dafef79131bdc1bc2e8e1249cd18360001b6160c8565b6153847f464c62fb9d6f36fb99d3416aa58c5d658e75acb5788f6ff32ba3c5125e2dd92a60001b6160c8565b600082840290506153b77f62fa03b6cb0bf307621766f8e2c59c61c09f612d409ab410b0274a5d515f142260001b6160c8565b6153e37fbe2dae5901d1ce6fef70c1007ac171cbde128a670f8e63dedd387d29c32bbdff60001b6160c8565b61540460008514806153fd5750838583816153fa57fe5b04145b60036160cb565b6154307ff751ce1bed0d21d854888f65c9afddf5fd3403e43d946bb14a67c1da59e974fb60001b6160c8565b61545c7f83338b898944f1b063429e568413716f9a77960254fc9aa061a6760b2c9cd5c460001b6160c8565b60008114156154f3576154917ff7d35bcb2b713968c089fdd9b59712b4eb62375d00e259e9dfce81aff0b8969b60001b6160c8565b6154bd7fa22bc731dfb2440b39794a07130d0ad03e27d6b8166a162102b8307676d1ca3f60001b6160c8565b6154e97f69095262fb678ae5f47c6a9ffabcd4b89001a3eed701741b5f7c4710ecb6028160001b6160c8565b6000915050615593565b61551f7f263c8cd579b54b7eae40140c5ccb8cd53b978485034df207bf14711955d29e4e60001b6160c8565b61554b7f56c98e1813cfb46ef95956e10763a8a2d34e9f3d345a2e254da0d46729917f7960001b6160c8565b6155777f966474f471122894d48e473af854379789a7b13e9e5227f3faf34cb4687e2f6e60001b6160c8565b6001670de0b6b3a7640000600183038161558d57fe5b04019150505b92915050565b60006155c77f1d86fee9bc5f32de233dd92785005040b1e4c075ea3f7b92524c6f1e5f5649d660001b610fe2565b6155f37f1159b765aa7b6a5b3374323d8845c79fea5e96d8eab68b358223b8d0dab083b560001b610fe2565b61561f7faf61d1bda411da9fae6e64c877a67385ab570418b31937bf74458d234ef80e0860001b610fe2565b600061562c8686516146b2565b905061565a7f28bbdca14a5066d03a165b82695023f74fdf5de8961ce92627c5950987b8fea860001b610fe2565b6156867f1aed0cfc618866973ff62471213a0f6d3ee9d8a110f2367dfc8717173981339860001b610fe2565b60008560008151811061569557fe5b602002602001015190506156cb7fbc594d4c8c7b3c4d5b0e5ef436ea6405d8b3410714655ffc9ae54a8a81c1940360001b610fe2565b6156f77f2bb79352f46dfffea694fefe8ea1c336bf463c30b35131ba9f0d13b47663244560001b610fe2565b600061571887518860008151811061570b57fe5b60200260200101516146b2565b90506157467fe19a4aaa6450d8a0bec6bd0ab3b08d34911039ca63a2b724ec81e750a3803aed60001b610fe2565b6157727f5f2bdf6aff220aef2f5d7f77396d46e515c16f0ff1d032193bd41574dad9306160001b610fe2565b6000600190505b8751811015615899576157ae7f429207269d042bd81ccf35011a25acc42e188073bcdcb3b3d4e88e0e69cdaaf460001b610fe2565b6157da7f5721d5e6f5a1bd17c4b0bb46efbd857980d308915239fe60bf9db55b1e29fcee60001b610fe2565b61580a6158046157fd848b85815181106157f057fe5b60200260200101516146b2565b8a516146b2565b886160e1565b91506158387f0bc6a1b83c4f93b54c184df412e178df993a87c7dbe839fa9d6839167ee855fc60001b610fe2565b6158647f915398b38fc5de5ba631bd737eedd1fcd270002254f6ed8e7f38f2babc20327260001b610fe2565b61588a88828151811061587357fe5b60200260200101518461455d90919063ffffffff16565b92508080600101915050615779565b506158c67fd162eb55c0d36f66624994768e9846acd90bf529945f74f2bb4f62d007fce86f60001b610fe2565b6158f27fee218c343c7a23ea4d1011d6fd6fce36376d3744883de4c79abe118d722c292260001b610fe2565b61591887868151811061590157fe5b602002602001015183614a3a90919063ffffffff16565b91506159467f676e038e2ddd2ddf0217e12bed3ce2b2ebd5bac1d7047a811ece29dca9e9052b60001b610fe2565b6159727fb177d18cfbb24b54cfa130fcc1ce2f7b4bffdc31cca4c621ad21cc6c44fdfb9e60001b610fe2565b600061598761598188896146b2565b8561481a565b90506159b57f669641c049def520fe9665bb98847fbcb800eb4efec2a19f1fe8e55d5db1edd360001b610fe2565b6159e17f95abfdebab9794081cc0e3d81e7b70e36f66ed08d9c9ea598511adb91d235c3560001b610fe2565b615a1982615a0b8a89815181106159f457fe5b6020026020010151846152fe90919063ffffffff16565b61500090919063ffffffff16565b9050615a477f53facd0f5b95c2567b6c366c778ff46897b2a3eb14ee64ac28ee01011206a12460001b610fe2565b615a737fd7bf20d88a2855c39c1ea8cf233c011950042d49d95f315dd912bcb486f4a21c60001b610fe2565b6000615a9a615a8b868a614b8f90919063ffffffff16565b8561455d90919063ffffffff16565b9050615ac87f72ec9e23d4e588042092c11365fdaf6ea87dc32a0e6ab5b21b01dca19ba8732460001b610fe2565b615af47f59e698ab4a3cdc4b1cda559114ff4089574b9f8fade23bf71d09b5b2575a81e360001b610fe2565b6000615b227f09ddbf4b2dfdfb09dfc95a1d35bbb0f011c98d2dbf6e609c2b00509f0d913f9660001b610fe2565b615b4e7f0866b2034e4a0bf177435d2d4c3263454f3c4e0691b4b2ec4b2d5388381a9ff560001b610fe2565b6000615b99615b66848c61455d90919063ffffffff16565b615b8b86615b7d8e8f6152fe90919063ffffffff16565b61455d90919063ffffffff16565b61500090919063ffffffff16565b9050615bc77f195c44fb0936cb964affd890f1f17a5cd48eecc3d2f266c992e44b239d455e1860001b610fe2565b615bf37fe36293fe22bf173160ccda54e511f02df6358e95e3ada6d71f6b09d95b154f3b60001b610fe2565b60005b60ff811015615fae57615c2b7f7137af725718c2e2b04819c4317518d373df4245161e76848527dd415ecca27c60001b610fe2565b615c577f44ad32510b1c94817c1708fcb652e37461437d097d2dac9b31f55cb8df9da14560001b610fe2565b819250615c867fce6502a87f63160eaef7078c9bdf8e629ce7b30e2b2ea35c29ef1836090febb560001b610fe2565b615cb27ffb2c1ca9f63c6d2bfc13023c11b730650f9804c4bed9caa22b86cbaf12608d8960001b610fe2565b615d17615ce48c615cd687615cc88760026146b2565b61455d90919063ffffffff16565b614a3a90919063ffffffff16565b615d0987615cfb86876152fe90919063ffffffff16565b61455d90919063ffffffff16565b61500090919063ffffffff16565b9150615d457fd36e4ac895cbc4f68ebf5752add4b0ab70ff31a7c4dbb617b6ca2581769d81a560001b610fe2565b615d717face8f9251990fb826b420caf3437e0d3d0d0874ef854734438d1eb5ae50c093f60001b610fe2565b82821115615ea557615da57fbf1197f8f4cf76d7234e7605b45e3428870568ff79039de83041a4347eee94b460001b610fe2565b615dd17ffe676cbfa819a62ddb2136b136f98da2b3af947d82d93cb57f575c031db4c6ae60001b610fe2565b615dfd7f80498a7573edd0ea7ceba2dec47f6e74c44cbc12cb5a7326464cedfff408020960001b610fe2565b6001615e128484614a3a90919063ffffffff16565b11615e7457615e437fc3ec05e5e54fc3013d00f8f454de14b7f89f728494783f56fc3e5d034b44b09460001b610fe2565b615e6f7fabc758db24e5e1875bc55a5091c1c216e7d6be4944b58960a24ab4b1dc18adac60001b610fe2565b615fae565b615ea07f263411c4ba9362b14a2cca1e2ab7dee41f17cb705d931f0c803bebd2608c65cb60001b610fe2565b615fa1565b615ed17fca2d118adfa970dabd5ba5499973cd65d417b15e6a25913864131c8b6634f05a60001b610fe2565b615efd7fa413dfa923ba87655b3231eea16893271e24d25860ee9a563ef47d950c803c1d60001b610fe2565b6001615f128385614a3a90919063ffffffff16565b11615f7457615f437fdbdee3166326944741963187607909c14a185fc530d4522e835d4958cae1578f60001b610fe2565b615f6f7f84f8ab58e7f87a3195daba2b34f3461ec8d6f2e486c86dbd3e82885e6bc0b73260001b610fe2565b615fae565b615fa07f1bb83baffcf58d708374cd18cfb2aca9c653f24a64b4f4b2a168f64eab9a829760001b610fe2565b5b8080600101915050615bf6565b50615fdb7f7573d8ac51f031ae904b024a5c24993608caf07ae493e3f8fe2769fc8bbc1ec660001b610fe2565b6160077f9703cb57d315506dde6e65969c34ae7b0e462a8bb4c6b34392fa5e545a190e5660001b610fe2565b80975050505050505050949350505050565b60006160477f60680262f8cde245659d6c6448d21bceb1d3ca08e29b59e819a6666f1c7e7bb260001b6160c8565b6160737f5ad3353e0ee2b8595834d505fe48966b19abe3dc495fcaa2c983f602906d1ec560001b6160c8565b61609f7f7c485422e01001a45ed23c48c1d1896544b18c428abf31cb0e62bae7e2eaf30160001b6160c8565b670de0b6b3a764000082106160b55760006160c1565b81670de0b6b3a7640000035b9050919050565b50565b816160da576160d9816161e0565b5b5050565b50565b600061610f7f053a16bb25b7c3bf0eb8f96a85bcffdc6a2c9f12ce0922647a643c9a9c7ae08860001b6160de565b61613b7f08f7bdadec418eb26fbcfc2165d86275b5e1b8baaf5e6df141cb730471d896a060001b6160de565b6161677f9f8aa221058747dd49bbdec7807bcf26373f39b6701b83701e7186c7bb8c730460001b6160de565b616176600083141560046160cb565b6161a27f8210b270ac2bbe907255822195db451fc2c3934e1b448e9f4e004b7b06bc5df860001b6160de565b6161ce7f22179e65a7ffb69370e752759a0145dff2e7d7410f004b6fb9b3b778f46f93ea60001b6160de565b8183816161d757fe5b04905092915050565b6030600a820601600a820491506030600a830601600a830492506030600a8406018060101b8260081b8401016642414c230000000160c81b7f08c379a000000000000000000000000000000000000000000000000000000000600052602060045260076024528060445260646000fdfea26469706673582212209bc398a0679e2116c8d33b382daa57dbb722db6386509629a124c7a49e558d9c64736f6c63430007010033",
  "linkReferences": {},
  "deployedLinkReferences": {}
}