{
  "_format": "hh-sol-artifact-1",
  "contractName": "InputHelpers",
  "sourceName": "contracts/balancer-core-v2/lib/helpers/InputHelpers.sol",
  "abi": [
    {
      "inputs": [
        {
          "internalType": "bytes32",
          "name": "c__0xd336e21d",
          "type": "bytes32"
        }
      ],
      "name": "c_0xd336e21d",
      "outputs": [],
      "stateMutability": "pure",
      "type": "function"
    }
  ],
  "bytecode": "0x609c610024600b82828239805160001a607314601757fe5b30600052607381538281f3fe730000000000000000000000000000000000000000301460806040526004361060335760003560e01c8063bc2d52b7146038575b600080fd5b606160048036036020811015604c57600080fd5b81019080803590602001909291905050506063565b005b5056fea2646970667358221220aa590af9df5272efaf15c4013043a1ddc0d4a44171f5c0e26b655811be85e75964736f6c63430007010033",
  "linkReferences": {},
  "deployedLinkReferences": {}
}