{
  "_format": "hh-sol-artifact-1",
  "contractName": "LogExpMath",
  "sourceName": "contracts/balancer-core-v2/lib/math/LogExpMath.sol",
  "abi": [
    {
      "inputs": [
        {
          "internalType": "bytes32",
          "name": "c__0xc2812896",
          "type": "bytes32"
        }
      ],
      "name": "c_0xc2812896",
      "outputs": [],
      "stateMutability": "pure",
      "type": "function"
    }
  ],
  "bytecode": "0x609c610024600b82828239805160001a607314601757fe5b30600052607381538281f3fe730000000000000000000000000000000000000000301460806040526004361060335760003560e01c8063730b07ec146038575b600080fd5b606160048036036020811015604c57600080fd5b81019080803590602001909291905050506063565b005b5056fea264697066735822122075be273f9350192fc3422acca6ac27c0c3bfee65d460bd8e5e7686c02cfb8bee64736f6c63430007010033",
  "linkReferences": {},
  "deployedLinkReferences": {}
}