{
  "_format": "hh-sol-artifact-1",
  "contractName": "EthForceSender",
  "sourceName": "contracts/balancer-core-v2/test/EthForceSender.sol",
  "abi": [
    {
      "inputs": [
        {
          "internalType": "address payable",
          "name": "recipient",
          "type": "address"
        }
      ],
      "stateMutability": "payable",
      "type": "constructor"
    },
    {
      "inputs": [
        {
          "internalType": "bytes32",
          "name": "c__0x2f4adf1c",
          "type": "bytes32"
        }
      ],
      "name": "c_0x2f4adf1c",
      "outputs": [],
      "stateMutability": "pure",
      "type": "function"
    }
  ],
  "bytecode": "0x60806040526040516100ea3803806100ea8339818101604052602081101561002657600080fd5b81019080805190602001909291905050506100697fa19f30802761119c489acaea070e9e21936658e159ef065b10ffe9f45adea3f960001b6100e660201b60201c565b61009b7ffe1c5c497dae12991a23593ada9e7a41394e41adff02e5b0b9a0341579276fbf60001b6100e660201b60201c565b6100cd7fbf02cfbb0cf3bdd3736286aeb17e3ab3a8269ec2f2564788a2db4cbd11d85e5460001b6100e660201b60201c565b8073ffffffffffffffffffffffffffffffffffffffff16ff5b5056fe",
  "deployedBytecode": "0x6080604052348015600f57600080fd5b506004361060285760003560e01c806345ac0b8814602d575b600080fd5b605660048036036020811015604157600080fd5b81019080803590602001909291905050506058565b005b5056fea264697066735822122055adb9a8dbac315cdad6f3f33d8c962668140cf72eed1d03d0a7298c82f71c6f64736f6c63430007010033",
  "linkReferences": {},
  "deployedLinkReferences": {}
}