{
  "_format": "hh-sol-artifact-1",
  "contractName": "MockInternalBalanceRelayer",
  "sourceName": "contracts/balancer-core-v2/test/MockInternalBalanceRelayer.sol",
  "abi": [
    {
      "inputs": [
        {
          "internalType": "contract IVault",
          "name": "_vault",
          "type": "address"
        }
      ],
      "stateMutability": "nonpayable",
      "type": "constructor"
    },
    {
      "inputs": [
        {
          "internalType": "bytes32",
          "name": "c__0xfc16eb90",
          "type": "bytes32"
        }
      ],
      "name": "c_0xfc16eb90",
      "outputs": [],
      "stateMutability": "pure",
      "type": "function"
    },
    {
      "inputs": [
        {
          "internalType": "address payable",
          "name": "sender",
          "type": "address"
        },
        {
          "internalType": "contract IAsset",
          "name": "asset",
          "type": "address"
        },
        {
          "internalType": "uint256[]",
          "name": "depositAmounts",
          "type": "uint256[]"
        },
        {
          "internalType": "uint256[]",
          "name": "withdrawAmounts",
          "type": "uint256[]"
        }
      ],
      "name": "depositAndWithdraw",
      "outputs": [],
      "stateMutability": "nonpayable",
      "type": "function"
    },
    {
      "inputs": [],
      "name": "vault",
      "outputs": [
        {
          "internalType": "contract IVault",
          "name": "",
          "type": "address"
        }
      ],
      "stateMutability": "view",
      "type": "function"
    }
  ],
  "bytecode": "0x60806040523480156200001157600080fd5b5060405162000ec738038062000ec7833981810160405281019062000037919062000134565b6200006b7f08653be0d3d2bfd17ba5d6e0a800ebac90704d972bdfe453443834184cddd03c60001b6200011a60201b60201c565b6200009f7fd4d6a0d7325b03e4d10d6a38e3cc218a7dd55b7b633f131935061a567080146460001b6200011a60201b60201c565b620000d37fa01b740bc0fffe788bafef07db1f681e61a3593eb848682154a40ea8a661392760001b6200011a60201b60201c565b806000806101000a81548173ffffffffffffffffffffffffffffffffffffffff021916908373ffffffffffffffffffffffffffffffffffffffff16021790555050620001c2565b50565b6000815190506200012e81620001a8565b92915050565b6000602082840312156200014757600080fd5b600062000157848285016200011d565b91505092915050565b60006200016d8262000188565b9050919050565b6000620001818262000160565b9050919050565b600073ffffffffffffffffffffffffffffffffffffffff82169050919050565b620001b38162000174565b8114620001bf57600080fd5b50565b610cf580620001d26000396000f3fe608060405234801561001057600080fd5b50600436106100415760003560e01c80637b58efc114610046578063fbfa77cf14610062578063ffeeec6014610080575b600080fd5b610060600480360381019061005b91906108c0565b61009c565b005b61006a610464565b6040516100779190610ad6565b60405180910390f35b61009a60048036038101906100959190610953565b610488565b005b6100c87f6f35c6c917f445170a4b7acce28003b9e26a510ab5f53685cdb1b7dd4862dd7260001b610488565b6100f47f6667bfef887d544c6e4dfe5fa22dafa847c155bad7450cbe41637981b73b179660001b610488565b6101207f3b4a467b25b7acbc19ab6af29de7320a326f5740ddd0656e8bb6a2aecb51e16360001b610488565b61012c8251825161048b565b6101587f8bc1e897df00a0f882ef75b3f91d76e89c9973e90b72b3c02dfa359f3045706260001b610488565b6101847f0dec0caa5a35da175dd3101e029ca729f3f3c4e72e7abd01e60546c6fe25152760001b610488565b60005b825181101561045d576101bc7fded985d09d1a256d0e56b8a68e023815910aa35ff1eb194d03e6477676a475c060001b610488565b6101e87f77421ed46804a96241dbdbe1b915cc1b177297000c7e7642289b13d53423c28660001b610488565b606061020a600087878786815181106101fd57fe5b6020026020010151610520565b90506102387f192cd53a0168f22af908f252730c7435d64d6f3c001717fb656ed49dc53b96f360001b610488565b6102647f927a012b8fd35ca90e9da7a7c14d8141ab3d61fe3f48de223f2c5b2ed9e2025060001b610488565b60008054906101000a900473ffffffffffffffffffffffffffffffffffffffff1673ffffffffffffffffffffffffffffffffffffffff16630e8e3e84826040518263ffffffff1660e01b81526004016102bd9190610ab4565b600060405180830381600087803b1580156102d757600080fd5b505af11580156102eb573d6000803e3d6000fd5b5050505061031b7fa030cb6e0a425043cb83c747e301f4dcd027a556f9dc83d457fa3c7922757e5460001b610488565b6103477f0de989d68df90998f56a3a88e7dc57b8cc20c06add6667e1c541b7ab1f1e2c9e60001b610488565b60606103696001888887878151811061035c57fe5b6020026020010151610520565b90506103977f91f5579c57150379d6995748ce50a021ef15c9cee48c4060b2dc0b6d55bab79e60001b610488565b6103c37f1ea3bb2655b6f970b4720468903bd098d48f4c730aac6991891cc0efb075f2d460001b610488565b60008054906101000a900473ffffffffffffffffffffffffffffffffffffffff1673ffffffffffffffffffffffffffffffffffffffff16630e8e3e84826040518263ffffffff1660e01b815260040161041c9190610ab4565b600060405180830381600087803b15801561043657600080fd5b505af115801561044a573d6000803e3d6000fd5b5050505050508080600101915050610187565b5050505050565b60008054906101000a900473ffffffffffffffffffffffffffffffffffffffff1681565b50565b6104b77fb3c3ab71be1e60ccf374cd9c337f5c94a091891a248ffd88815355718b38f5cf60001b6106e7565b6104e37f23a34501b370f017ac0b72a81570395801e215d15ea760153f3abbf09eb0167360001b6106e7565b61050f7ff006c498284d347b1bc1a6a27ae455ca2c77693be39b0bf5701f8175df7eb3a460001b6106e7565b61051c81831460676106ea565b5050565b606061054e7fa7d59d4c727c1f6277eb4ee89956ab9e56d0d0d18118c8ccaf3eb315cc6f8b4860001b610488565b61057a7f751d7c9ab1444b1ba40265c06b5a6d5c840c2895261fbd2dee46f37d0cf744a660001b610488565b6105a67f5d76d029730de4da15815b94f773d8fa6dcb9d390fbe1b04591a9ebc9fc24d1d60001b610488565b600167ffffffffffffffff811180156105be57600080fd5b506040519080825280602002602001820160405280156105f857816020015b6105e561076d565b8152602001906001900390816105dd5790505b5090506106277f8251d8ace8f177273d4828c2b732b41d09675658f4d2393b1f5041aebbec2af960001b610488565b6106537f8763e293a747b5806ec0d1b99828ada866784c49f88870eb41b7a0473339643e60001b610488565b6040518060a0016040528086600381111561066a57fe5b81526020018473ffffffffffffffffffffffffffffffffffffffff1681526020018381526020018573ffffffffffffffffffffffffffffffffffffffff1681526020018573ffffffffffffffffffffffffffffffffffffffff16815250816000815181106106d457fe5b6020026020010181905250949350505050565b50565b816106f9576106f8816106fd565b5b5050565b6030600a820601600a820491506030600a830601600a830492506030600a8406018060101b8260081b8401016642414c230000000160c81b7f08c379a000000000000000000000000000000000000000000000000000000000600052602060045260076024528060445260646000fd5b6040518060a001604052806000600381111561078557fe5b8152602001600073ffffffffffffffffffffffffffffffffffffffff16815260200160008152602001600073ffffffffffffffffffffffffffffffffffffffff168152602001600073ffffffffffffffffffffffffffffffffffffffff1681525090565b6000813590506107f881610c63565b92915050565b600082601f83011261080f57600080fd5b813561082261081d82610b1e565b610af1565b9150818183526020840193506020810190508385602084028201111561084757600080fd5b60005b83811015610877578161085d88826108ab565b84526020840193506020830192505060018101905061084a565b5050505092915050565b60008135905061089081610c7a565b92915050565b6000813590506108a581610c91565b92915050565b6000813590506108ba81610ca8565b92915050565b600080600080608085870312156108d657600080fd5b60006108e4878288016107e9565b94505060206108f587828801610896565b935050604085013567ffffffffffffffff81111561091257600080fd5b61091e878288016107fe565b925050606085013567ffffffffffffffff81111561093b57600080fd5b610947878288016107fe565b91505092959194509250565b60006020828403121561096557600080fd5b600061097384828501610881565b91505092915050565b60006109888383610a3d565b60a08301905092915050565b61099d81610b91565b82525050565b6109ac81610b7f565b82525050565b60006109bd82610b56565b6109c78185610b6e565b93506109d283610b46565b8060005b83811015610a035781516109ea888261097c565b97506109f583610b61565b9250506001810190506109d6565b5085935050505092915050565b610a1981610bfc565b82525050565b610a2881610c20565b82525050565b610a3781610c44565b82525050565b60a082016000820151610a536000850182610a2e565b506020820151610a666020850182610a10565b506040820151610a796040850182610aa5565b506060820151610a8c60608501826109a3565b506080820151610a9f6080850182610994565b50505050565b610aae81610bf2565b82525050565b60006020820190508181036000830152610ace81846109b2565b905092915050565b6000602082019050610aeb6000830184610a1f565b92915050565b6000604051905081810181811067ffffffffffffffff82111715610b1457600080fd5b8060405250919050565b600067ffffffffffffffff821115610b3557600080fd5b602082029050602081019050919050565b6000819050602082019050919050565b600081519050919050565b6000602082019050919050565b600082825260208201905092915050565b6000610b8a82610bd2565b9050919050565b6000610b9c82610bd2565b9050919050565b6000819050919050565b6000610bb882610b7f565b9050919050565b6000819050610bcd82610c56565b919050565b600073ffffffffffffffffffffffffffffffffffffffff82169050919050565b6000819050919050565b6000610c0782610c0e565b9050919050565b6000610c1982610bd2565b9050919050565b6000610c2b82610c32565b9050919050565b6000610c3d82610bd2565b9050919050565b6000610c4f82610bbf565b9050919050565b60048110610c6057fe5b50565b610c6c81610b91565b8114610c7757600080fd5b50565b610c8381610ba3565b8114610c8e57600080fd5b50565b610c9a81610bad565b8114610ca557600080fd5b50565b610cb181610bf2565b8114610cbc57600080fd5b5056fea26469706673582212207cb26c8551f10c50365fb5f40ef01fa845c6838da6716f3f54d6a6f88ed3d16f64736f6c63430007010033",
  "linkReferences": {},
  "deployedLinkReferences": {}
}