{
  "_format": "hh-sol-artifact-1",
  "contractName": "MockInternalBalanceRelayer",
  "sourceName": "contracts/balancer-core-v2/test/MockInternalBalanceRelayer.sol",
  "abi": [
    {
      "inputs": [
        {
          "internalType": "contract IVault",
          "name": "_vault",
          "type": "address"
        }
      ],
      "stateMutability": "nonpayable",
      "type": "constructor"
    },
    {
      "inputs": [
        {
          "internalType": "bytes32",
          "name": "c__0xab2c7e55",
          "type": "bytes32"
        }
      ],
      "name": "c_0xab2c7e55",
      "outputs": [],
      "stateMutability": "pure",
      "type": "function"
    },
    {
      "inputs": [
        {
          "internalType": "address payable",
          "name": "sender",
          "type": "address"
        },
        {
          "internalType": "contract IAsset",
          "name": "asset",
          "type": "address"
        },
        {
          "internalType": "uint256[]",
          "name": "depositAmounts",
          "type": "uint256[]"
        },
        {
          "internalType": "uint256[]",
          "name": "withdrawAmounts",
          "type": "uint256[]"
        }
      ],
      "name": "depositAndWithdraw",
      "outputs": [],
      "stateMutability": "nonpayable",
      "type": "function"
    },
    {
      "inputs": [],
      "name": "vault",
      "outputs": [
        {
          "internalType": "contract IVault",
          "name": "",
          "type": "address"
        }
      ],
      "stateMutability": "view",
      "type": "function"
    }
  ],
  "bytecode": "0x60806040523480156200001157600080fd5b5060405162000ec738038062000ec7833981810160405281019062000037919062000134565b6200006b7f011bd99d7b92aa4b474dc4ed5296dda94f713e83e272e38053199409d0ccbd2860001b6200011a60201b60201c565b6200009f7f9cb99b61ae14ebc1002494f3dccb979db418b80f539e755f84619416c3e0fea760001b6200011a60201b60201c565b620000d37f0a9e89d50e1095a9f670a8125ac20e51f24137f5f2bf707373b064390036594e60001b6200011a60201b60201c565b806000806101000a81548173ffffffffffffffffffffffffffffffffffffffff021916908373ffffffffffffffffffffffffffffffffffffffff16021790555050620001c2565b50565b6000815190506200012e81620001a8565b92915050565b6000602082840312156200014757600080fd5b600062000157848285016200011d565b91505092915050565b60006200016d8262000188565b9050919050565b6000620001818262000160565b9050919050565b600073ffffffffffffffffffffffffffffffffffffffff82169050919050565b620001b38162000174565b8114620001bf57600080fd5b50565b610cf580620001d26000396000f3fe608060405234801561001057600080fd5b50600436106100415760003560e01c806361e5e374146100465780637b58efc114610062578063fbfa77cf1461007e575b600080fd5b610060600480360381019061005b9190610953565b61009c565b005b61007c600480360381019061007791906108c0565b61009f565b005b610086610467565b6040516100939190610ad6565b60405180910390f35b50565b6100cb7fdf3cd84ea30a873d7ffb1ce1066bab7499ad585d28d6652b287a9a70019644be60001b61009c565b6100f77fb401215801031192a96e5d6ca39ab90a285a353ac6bec0faa243d131d768faa760001b61009c565b6101237fc435fe54f9e2c228808d08d859a7ea0b6ed27dd0521402f9799f571f27f82f4760001b61009c565b61012f8251825161048b565b61015b7f139af4dab8adccc54b797c616d3fc398e9d1bcccd0fc24da94271617c1eacf1a60001b61009c565b6101877f089d5e8e6749f601453d12b20ee04ffbeb74c298e607b18799a26579c5946e4e60001b61009c565b60005b8251811015610460576101bf7fad5b8c88b3f23ee2aa0547f2245eaab11d5ad94a176177584becfe03ec8a1efe60001b61009c565b6101eb7f878daad0ef54543b635bee5f673a1b1dc40737f545791a374b0b8a38e81596fa60001b61009c565b606061020d6000878787868151811061020057fe5b6020026020010151610520565b905061023b7f77dd8a9ef516f3de4138e52eb3f987fc54f9b2b78b75ee88440625633aa5779b60001b61009c565b6102677f7bc9b48146f42803f99732d3df90809b82c21e8276a366600570e773d019c00360001b61009c565b60008054906101000a900473ffffffffffffffffffffffffffffffffffffffff1673ffffffffffffffffffffffffffffffffffffffff16630e8e3e84826040518263ffffffff1660e01b81526004016102c09190610ab4565b600060405180830381600087803b1580156102da57600080fd5b505af11580156102ee573d6000803e3d6000fd5b5050505061031e7f845e614e4aed566461da89fe30ab2b03c695429c26c39176465f997f2f1d7cf360001b61009c565b61034a7f40162721d3bef476340e1f357cadf6791048fdb288a57f5f3a33efba30ce9abf60001b61009c565b606061036c6001888887878151811061035f57fe5b6020026020010151610520565b905061039a7f03a1c739a59b2a278c3e27e5d1bff77556fa9f96c620bbd688eb7b78489d443060001b61009c565b6103c67fa0f58975f92edd3746cf3825eaf63726b1af5ef2d34cc81f510aa663a622f68d60001b61009c565b60008054906101000a900473ffffffffffffffffffffffffffffffffffffffff1673ffffffffffffffffffffffffffffffffffffffff16630e8e3e84826040518263ffffffff1660e01b815260040161041f9190610ab4565b600060405180830381600087803b15801561043957600080fd5b505af115801561044d573d6000803e3d6000fd5b505050505050808060010191505061018a565b5050505050565b60008054906101000a900473ffffffffffffffffffffffffffffffffffffffff1681565b6104b77f6f02687e057522eb19b597e3b091ff65201fe492dbd6f67980e016d6aa08d53260001b6106e7565b6104e37fe51ab352fa79dd949e57050cd47d3f0410afdfe7c28a6ef735cccfeeb18f582360001b6106e7565b61050f7ffce750c89171756118e85bed28eb1432c569ae13e7db5e43107d00a4ed5889a360001b6106e7565b61051c81831460676106ea565b5050565b606061054e7f86593fdb3212de1c4e4e5150ae6db59e43110f4cd2000b0cc4c259ef898e450260001b61009c565b61057a7f8b8f4fb10891092d9af6b0a4bc93b147d741ee93063780773bf29d094eea5e2960001b61009c565b6105a67f1140d20b813f89669769ed5e950b6aecfb210dfcab88dfb335c2a4a8e883f56f60001b61009c565b600167ffffffffffffffff811180156105be57600080fd5b506040519080825280602002602001820160405280156105f857816020015b6105e561076d565b8152602001906001900390816105dd5790505b5090506106277f18952034d4c7259f5db284de8b7d8a122eb04ab92dc35f6d4d50ef7c156e7e3560001b61009c565b6106537f040ae643e1d7dbaddb4ec0a7543aff2146b5d4a1b66f320b01ed915d42f29d1660001b61009c565b6040518060a0016040528086600381111561066a57fe5b81526020018473ffffffffffffffffffffffffffffffffffffffff1681526020018381526020018573ffffffffffffffffffffffffffffffffffffffff1681526020018573ffffffffffffffffffffffffffffffffffffffff16815250816000815181106106d457fe5b6020026020010181905250949350505050565b50565b816106f9576106f8816106fd565b5b5050565b6030600a820601600a820491506030600a830601600a830492506030600a8406018060101b8260081b8401016642414c230000000160c81b7f08c379a000000000000000000000000000000000000000000000000000000000600052602060045260076024528060445260646000fd5b6040518060a001604052806000600381111561078557fe5b8152602001600073ffffffffffffffffffffffffffffffffffffffff16815260200160008152602001600073ffffffffffffffffffffffffffffffffffffffff168152602001600073ffffffffffffffffffffffffffffffffffffffff1681525090565b6000813590506107f881610c63565b92915050565b600082601f83011261080f57600080fd5b813561082261081d82610b1e565b610af1565b9150818183526020840193506020810190508385602084028201111561084757600080fd5b60005b83811015610877578161085d88826108ab565b84526020840193506020830192505060018101905061084a565b5050505092915050565b60008135905061089081610c7a565b92915050565b6000813590506108a581610c91565b92915050565b6000813590506108ba81610ca8565b92915050565b600080600080608085870312156108d657600080fd5b60006108e4878288016107e9565b94505060206108f587828801610896565b935050604085013567ffffffffffffffff81111561091257600080fd5b61091e878288016107fe565b925050606085013567ffffffffffffffff81111561093b57600080fd5b610947878288016107fe565b91505092959194509250565b60006020828403121561096557600080fd5b600061097384828501610881565b91505092915050565b60006109888383610a3d565b60a08301905092915050565b61099d81610b91565b82525050565b6109ac81610b7f565b82525050565b60006109bd82610b56565b6109c78185610b6e565b93506109d283610b46565b8060005b83811015610a035781516109ea888261097c565b97506109f583610b61565b9250506001810190506109d6565b5085935050505092915050565b610a1981610bfc565b82525050565b610a2881610c20565b82525050565b610a3781610c44565b82525050565b60a082016000820151610a536000850182610a2e565b506020820151610a666020850182610a10565b506040820151610a796040850182610aa5565b506060820151610a8c60608501826109a3565b506080820151610a9f6080850182610994565b50505050565b610aae81610bf2565b82525050565b60006020820190508181036000830152610ace81846109b2565b905092915050565b6000602082019050610aeb6000830184610a1f565b92915050565b6000604051905081810181811067ffffffffffffffff82111715610b1457600080fd5b8060405250919050565b600067ffffffffffffffff821115610b3557600080fd5b602082029050602081019050919050565b6000819050602082019050919050565b600081519050919050565b6000602082019050919050565b600082825260208201905092915050565b6000610b8a82610bd2565b9050919050565b6000610b9c82610bd2565b9050919050565b6000819050919050565b6000610bb882610b7f565b9050919050565b6000819050610bcd82610c56565b919050565b600073ffffffffffffffffffffffffffffffffffffffff82169050919050565b6000819050919050565b6000610c0782610c0e565b9050919050565b6000610c1982610bd2565b9050919050565b6000610c2b82610c32565b9050919050565b6000610c3d82610bd2565b9050919050565b6000610c4f82610bbf565b9050919050565b60048110610c6057fe5b50565b610c6c81610b91565b8114610c7757600080fd5b50565b610c8381610ba3565b8114610c8e57600080fd5b50565b610c9a81610bad565b8114610ca557600080fd5b50565b610cb181610bf2565b8114610cbc57600080fd5b5056fea26469706673582212204eb0204f827981c5cb36a35cf4ae19176f79bda741d6d7f3cac457e00910037864736f6c63430007010033",
  "linkReferences": {},
  "deployedLinkReferences": {}
}