{
  "_format": "hh-sol-artifact-1",
  "contractName": "WordCodec",
  "sourceName": "contracts/balancer-core-v2/lib/helpers/WordCodec.sol",
  "abi": [
    {
      "inputs": [
        {
          "internalType": "bytes32",
          "name": "c__0x5925b8a2",
          "type": "bytes32"
        }
      ],
      "name": "c_0x5925b8a2",
      "outputs": [],
      "stateMutability": "pure",
      "type": "function"
    }
  ],
  "bytecode": "0x609c610024600b82828239805160001a607314601757fe5b30600052607381538281f3fe730000000000000000000000000000000000000000301460806040526004361060335760003560e01c806368830d82146038575b600080fd5b606160048036036020811015604c57600080fd5b81019080803590602001909291905050506063565b005b5056fea264697066735822122099bdace40e757cfd762133bc06118331ea97c6fa16744226d3b89568c396dd7364736f6c63430007010033",
  "linkReferences": {},
  "deployedLinkReferences": {}
}