{
  "_format": "hh-sol-artifact-1",
  "contractName": "WordCodec",
  "sourceName": "contracts/balancer-core-v2/lib/helpers/WordCodec.sol",
  "abi": [
    {
      "inputs": [
        {
          "internalType": "bytes32",
          "name": "c__0xd0c57c56",
          "type": "bytes32"
        }
      ],
      "name": "c_0xd0c57c56",
      "outputs": [],
      "stateMutability": "pure",
      "type": "function"
    }
  ],
  "bytecode": "0x609c610024600b82828239805160001a607314601757fe5b30600052607381538281f3fe730000000000000000000000000000000000000000301460806040526004361060335760003560e01c80630590ba0b146038575b600080fd5b606160048036036020811015604c57600080fd5b81019080803590602001909291905050506063565b005b5056fea2646970667358221220436bd7a21a9eb23c90d225bf0b50fb47a2f43b497884bf85f4f327f83b5a81ce64736f6c63430007010033",
  "linkReferences": {},
  "deployedLinkReferences": {}
}