{
  "_format": "hh-sol-artifact-1",
  "contractName": "Buffer",
  "sourceName": "contracts/balancer-core-v2/pools/oracle/Buffer.sol",
  "abi": [
    {
      "inputs": [
        {
          "internalType": "bytes32",
          "name": "c__0x1060234e",
          "type": "bytes32"
        }
      ],
      "name": "c_0x1060234e",
      "outputs": [],
      "stateMutability": "pure",
      "type": "function"
    }
  ],
  "bytecode": "0x609c610024600b82828239805160001a607314601757fe5b30600052607381538281f3fe730000000000000000000000000000000000000000301460806040526004361060335760003560e01c806398c82e4f146038575b600080fd5b606160048036036020811015604c57600080fd5b81019080803590602001909291905050506063565b005b5056fea26469706673582212209d6fd6611d8c5043a7f5c3e2a98620d3f9502ba521870df27bd985e04a268f8864736f6c63430007010033",
  "linkReferences": {},
  "deployedLinkReferences": {}
}