{
  "_format": "hh-sol-artifact-1",
  "contractName": "Buffer",
  "sourceName": "contracts/balancer-core-v2/pools/oracle/Buffer.sol",
  "abi": [
    {
      "inputs": [
        {
          "internalType": "bytes32",
          "name": "c__0xccafa0a7",
          "type": "bytes32"
        }
      ],
      "name": "c_0xccafa0a7",
      "outputs": [],
      "stateMutability": "pure",
      "type": "function"
    }
  ],
  "bytecode": "0x609c610024600b82828239805160001a607314601757fe5b30600052607381538281f3fe730000000000000000000000000000000000000000301460806040526004361060335760003560e01c806361e9d081146038575b600080fd5b606160048036036020811015604c57600080fd5b81019080803590602001909291905050506063565b005b5056fea26469706673582212208662e991a3923f79a887097ca9871357cc4af222a5cc1231759fb8c851a451d164736f6c63430007010033",
  "linkReferences": {},
  "deployedLinkReferences": {}
}