{
  "_format": "hh-sol-artifact-1",
  "contractName": "ConvergentPoolFactory",
  "sourceName": "contracts/factories/ConvergentPoolFactory.sol",
  "abi": [
    {
      "inputs": [
        {
          "internalType": "contract IVault",
          "name": "_vault",
          "type": "address"
        },
        {
          "internalType": "address",
          "name": "_governance",
          "type": "address"
        }
      ],
      "stateMutability": "nonpayable",
      "type": "constructor"
    },
    {
      "anonymous": false,
      "inputs": [
        {
          "indexed": true,
          "internalType": "address",
          "name": "pool",
          "type": "address"
        },
        {
          "indexed": true,
          "internalType": "address",
          "name": "bondToken",
          "type": "address"
        }
      ],
      "name": "CCPoolCreated",
      "type": "event"
    },
    {
      "anonymous": false,
      "inputs": [
        {
          "indexed": true,
          "internalType": "address",
          "name": "pool",
          "type": "address"
        }
      ],
      "name": "PoolCreated",
      "type": "event"
    },
    {
      "inputs": [
        {
          "internalType": "address",
          "name": "who",
          "type": "address"
        }
      ],
      "name": "authorize",
      "outputs": [],
      "stateMutability": "nonpayable",
      "type": "function"
    },
    {
      "inputs": [
        {
          "internalType": "address",
          "name": "",
          "type": "address"
        }
      ],
      "name": "authorized",
      "outputs": [
        {
          "internalType": "bool",
          "name": "",
          "type": "bool"
        }
      ],
      "stateMutability": "view",
      "type": "function"
    },
    {
      "inputs": [
        {
          "internalType": "bytes32",
          "name": "c__0x4b728764",
          "type": "bytes32"
        }
      ],
      "name": "c_0x4b728764",
      "outputs": [],
      "stateMutability": "pure",
      "type": "function"
    },
    {
      "inputs": [
        {
          "internalType": "bytes32",
          "name": "c__0x5eae7510",
          "type": "bytes32"
        }
      ],
      "name": "c_0x5eae7510",
      "outputs": [],
      "stateMutability": "pure",
      "type": "function"
    },
    {
      "inputs": [
        {
          "internalType": "bytes32",
          "name": "c__0xc950eba2",
          "type": "bytes32"
        }
      ],
      "name": "c_0xc950eba2",
      "outputs": [],
      "stateMutability": "pure",
      "type": "function"
    },
    {
      "inputs": [
        {
          "internalType": "address",
          "name": "_underlying",
          "type": "address"
        },
        {
          "internalType": "address",
          "name": "_bond",
          "type": "address"
        },
        {
          "internalType": "uint256",
          "name": "_expiration",
          "type": "uint256"
        },
        {
          "internalType": "uint256",
          "name": "_unitSeconds",
          "type": "uint256"
        },
        {
          "internalType": "uint256",
          "name": "_percentFee",
          "type": "uint256"
        },
        {
          "internalType": "string",
          "name": "_name",
          "type": "string"
        },
        {
          "internalType": "string",
          "name": "_symbol",
          "type": "string"
        }
      ],
      "name": "create",
      "outputs": [
        {
          "internalType": "address",
          "name": "",
          "type": "address"
        }
      ],
      "stateMutability": "nonpayable",
      "type": "function"
    },
    {
      "inputs": [
        {
          "internalType": "address",
          "name": "who",
          "type": "address"
        }
      ],
      "name": "deauthorize",
      "outputs": [],
      "stateMutability": "nonpayable",
      "type": "function"
    },
    {
      "inputs": [],
      "name": "getVault",
      "outputs": [
        {
          "internalType": "contract IVault",
          "name": "",
          "type": "address"
        }
      ],
      "stateMutability": "view",
      "type": "function"
    },
    {
      "inputs": [],
      "name": "governance",
      "outputs": [
        {
          "internalType": "address",
          "name": "",
          "type": "address"
        }
      ],
      "stateMutability": "view",
      "type": "function"
    },
    {
      "inputs": [
        {
          "internalType": "address",
          "name": "who",
          "type": "address"
        }
      ],
      "name": "isAuthorized",
      "outputs": [
        {
          "internalType": "bool",
          "name": "",
          "type": "bool"
        }
      ],
      "stateMutability": "view",
      "type": "function"
    },
    {
      "inputs": [
        {
          "internalType": "address",
          "name": "pool",
          "type": "address"
        }
      ],
      "name": "isPoolFromFactory",
      "outputs": [
        {
          "internalType": "bool",
          "name": "",
          "type": "bool"
        }
      ],
      "stateMutability": "view",
      "type": "function"
    },
    {
      "inputs": [],
      "name": "owner",
      "outputs": [
        {
          "internalType": "address",
          "name": "",
          "type": "address"
        }
      ],
      "stateMutability": "view",
      "type": "function"
    },
    {
      "inputs": [],
      "name": "percentFeeGov",
      "outputs": [
        {
          "internalType": "uint256",
          "name": "",
          "type": "uint256"
        }
      ],
      "stateMutability": "view",
      "type": "function"
    },
    {
      "inputs": [
        {
          "internalType": "address",
          "name": "newGov",
          "type": "address"
        }
      ],
      "name": "setGov",
      "outputs": [],
      "stateMutability": "nonpayable",
      "type": "function"
    },
    {
      "inputs": [
        {
          "internalType": "uint256",
          "name": "newFee",
          "type": "uint256"
        }
      ],
      "name": "setGovFee",
      "outputs": [],
      "stateMutability": "nonpayable",
      "type": "function"
    },
    {
      "inputs": [
        {
          "internalType": "address",
          "name": "who",
          "type": "address"
        }
      ],
      "name": "setOwner",
      "outputs": [],
      "stateMutability": "nonpayable",
      "type": "function"
    }
  ],
  "bytecode": "0x60a06040523480156200001157600080fd5b50604051620134a5380380620134a5833981810160405260408110156200003757600080fd5b81019080805190602001909291908051906020019092919050505081620000877ff1b853c90de5ec8f2626b291240c0329ab402bf7285c35364e855b314f3e25cf60001b620003db60201b60201c565b620000bb7f8f172e65181491b962547d22107d011eea6571c30ea82e2f64ceeb978d54a64260001b620003db60201b60201c565b620000ef7fdb7e6aecacee55715d6d3167a7dc2cd5d18ed5dc0082172394bf52850f5a54d160001b620003db60201b60201c565b8073ffffffffffffffffffffffffffffffffffffffff1660808173ffffffffffffffffffffffffffffffffffffffff1660601b81525050506200015b7f20ce721125820097d8ab6e6e5a99e0290a6ec6d648f486854cb925dd52df9bb860001b620003de60201b60201c565b6200018f7f704f0c5b69518a4ecf8b381629e3649c797c67405793669ad6b54a68e48bc7e560001b620003de60201b60201c565b620001c37fb8a8ff4abe6bf8a8f1d5c19d3d1294136af512798ce8af2179eee8f75c59609e60001b620003de60201b60201c565b33600160006101000a81548173ffffffffffffffffffffffffffffffffffffffff021916908373ffffffffffffffffffffffffffffffffffffffff160217905550620002387fee4279d6ce890b522f72c343825a15868088689827f130c17c7cbd8eca10261d60001b620003e160201b60201c565b6200026c7f5b21608cf254e69a910133060f773d279743b65f0e3eac03e53c733078f9be7a60001b620003e160201b60201c565b620002a07fd8461ee203be96d6bf74f7f6a772422aa48cb49538f348016134f42e7020994860001b620003e160201b60201c565b620002b181620003e460201b60201c565b620002e57f9f8140fce5447874ff9657e138f4795de3dee1c08726206f6233006c06733b7f60001b620003e160201b60201c565b620003197f84a32970064a3003dce9997f73f7d9ec5d7c9c8ecf3d4a0bb8bb4ffd38efd36460001b620003e160201b60201c565b6200032a81620004db60201b60201c565b6200035e7f6ef7203e61b7b2439dd0628ca55a1887c2869041d3657ca7c26b58ea165a959f60001b620003e160201b60201c565b620003927f12f4bcb021a3f39f113dddd75f6329bf8ab87adf90a0c96944e5f1a37b20a14760001b620003e160201b60201c565b80600460006101000a81548173ffffffffffffffffffffffffffffffffffffffff021916908373ffffffffffffffffffffffffffffffffffffffff1602179055505050620007b7565b50565b50565b50565b620004187f69720f7d8750c3db5d0f7829a41f5a26bafd40e148a1e4d5678ec378c960f9bc60001b620003de60201b60201c565b6200044c7f0c4e51ab5ab250a134a6e528047c8268ad0cf2cfe0cbc4ec89fe005afc88b91c60001b620003de60201b60201c565b620004807ffc5e08e3675420d134ac48c459a45e0cfe67bca9c6c2f79c1a12082b6bb1659560001b620003de60201b60201c565b6001600260008373ffffffffffffffffffffffffffffffffffffffff1673ffffffffffffffffffffffffffffffffffffffff16815260200190815260200160002060006101000a81548160ff02191690831515021790555050565b6200050f7fd3c15ea78c92f29ff21320133dc186cdc3d1b99010a10df905c42a6af1a2c6f460001b620003de60201b60201c565b620005437fac6901de5a519b8c1831d8445034bb5dea3a2d45b70c0fba443d0d84677323ac60001b620003de60201b60201c565b620005777fcf08c7465446b26d7e68bf1123bb30be9e147682d9a9980bab252718ee9e41b860001b620003de60201b60201c565b620005ab7fd8063382c6af56cf10a207517e9d4e28deae0b115ed54758c9c98079502650bc60001b620003de60201b60201c565b600160009054906101000a900473ffffffffffffffffffffffffffffffffffffffff1673ffffffffffffffffffffffffffffffffffffffff163373ffffffffffffffffffffffffffffffffffffffff16146200066f576040517f08c379a00000000000000000000000000000000000000000000000000000000081526004018080602001828103825260108152602001807f53656e646572206e6f74206f776e65720000000000000000000000000000000081525060200191505060405180910390fd5b620006a37f9d62103f62fa99b274a5dbc105d68f3c0d1ed548f044bb895c6f91b791225f0560001b620003de60201b60201c565b620006d77f8aaebfe919b353feff66e5141b201dcd11ddf0a99ea594d5996ee70c159db8ed60001b620003de60201b60201c565b6200070b7f59bf33915e2a4fde49411d6cd41c71a2b1f37226654330f870b6011ebc41a67760001b620003de60201b60201c565b6200073f7f9db2b932910aad5052dfdcb968b717aff9d86b45068a2770e7db55c699ccabc860001b620003de60201b60201c565b620007737f4f426c94812a648c8603c004a7a2d5dcbfc70b936ca5098e4902272eb0510eb860001b620003de60201b60201c565b80600160006101000a81548173ffffffffffffffffffffffffffffffffffffffff021916908373ffffffffffffffffffffffffffffffffffffffff16021790555050565b60805160601c62012cce620007d760003980611502525062012cce6000f3fe60806040523480156200001157600080fd5b5060043610620001175760003560e01c80636634b75311620000a5578063b9181611116200006f578063b91816111462000586578063cfad57a214620005e3578063e27b5833146200062a578063fe9fbb80146200065b5762000117565b80636634b75314620004765780638d928af814620004d35780638da5cb5b1462000509578063b6a5d7de146200053f5762000117565b8063278473fd11620000e7578063278473fd14620003a857806327c97fa514620003d957806341bd436a14620004205780635aa6e67514620004405762000117565b8062e94d34146200011c57806313af4035146200014d5780631c2a8237146200019457806325ebc84714620001c5575b600080fd5b6200014b600480360360208110156200013457600080fd5b8101908080359060200190929190505050620006b8565b005b62000192600480360360208110156200016557600080fd5b81019080803573ffffffffffffffffffffffffffffffffffffffff169060200190929190505050620006bb565b005b620001c360048036036020811015620001ac57600080fd5b810190808035906020019092919050505062000961565b005b6200037c600480360360e0811015620001dd57600080fd5b81019080803573ffffffffffffffffffffffffffffffffffffffff169060200190929190803573ffffffffffffffffffffffffffffffffffffffff169060200190929190803590602001909291908035906020019092919080359060200190929190803590602001906401000000008111156200025957600080fd5b8201836020820111156200026c57600080fd5b803590602001918460018302840111640100000000831117156200028f57600080fd5b91908080601f016020809104026020016040519081016040528093929190818152602001838380828437600081840152601f19601f82011690508083019250505050505050919291929080359060200190640100000000811115620002f357600080fd5b8201836020820111156200030657600080fd5b803590602001918460018302840111640100000000831117156200032957600080fd5b91908080601f016020809104026020016040519081016040528093929190818152602001838380828437600081840152601f19601f82011690508083019250505050505050919291929050505062000964565b604051808273ffffffffffffffffffffffffffffffffffffffff16815260200191505060405180910390f35b620003d760048036036020811015620003c057600080fd5b810190808035906020019092919050505062000d50565b005b6200041e60048036036020811015620003f157600080fd5b81019080803573ffffffffffffffffffffffffffffffffffffffff169060200190929190505050620010ac565b005b6200042a62001369565b6040518082815260200191505060405180910390f35b6200044a6200136f565b604051808273ffffffffffffffffffffffffffffffffffffffff16815260200191505060405180910390f35b620004bb600480360360208110156200048e57600080fd5b81019080803573ffffffffffffffffffffffffffffffffffffffff16906020019092919050505062001395565b60405180821515815260200191505060405180910390f35b620004dd62001474565b604051808273ffffffffffffffffffffffffffffffffffffffff16815260200191505060405180910390f35b6200051362001526565b604051808273ffffffffffffffffffffffffffffffffffffffff16815260200191505060405180910390f35b62000584600480360360208110156200055757600080fd5b81019080803573ffffffffffffffffffffffffffffffffffffffff1690602001909291905050506200154c565b005b620005cb600480360360208110156200059e57600080fd5b81019080803573ffffffffffffffffffffffffffffffffffffffff169060200190929190505050620017bc565b60405180821515815260200191505060405180910390f35b6200062860048036036020811015620005fb57600080fd5b81019080803573ffffffffffffffffffffffffffffffffffffffff169060200190929190505050620017dc565b005b62000659600480360360208110156200064257600080fd5b810190808035906020019092919050505062001a82565b005b620006a0600480360360208110156200067357600080fd5b81019080803573ffffffffffffffffffffffffffffffffffffffff16906020019092919050505062001a85565b60405180821515815260200191505060405180910390f35b50565b620006e97fd3c15ea78c92f29ff21320133dc186cdc3d1b99010a10df905c42a6af1a2c6f460001b62001a82565b620007177fac6901de5a519b8c1831d8445034bb5dea3a2d45b70c0fba443d0d84677323ac60001b62001a82565b620007457fcf08c7465446b26d7e68bf1123bb30be9e147682d9a9980bab252718ee9e41b860001b62001a82565b620007737fd8063382c6af56cf10a207517e9d4e28deae0b115ed54758c9c98079502650bc60001b62001a82565b600160009054906101000a900473ffffffffffffffffffffffffffffffffffffffff1673ffffffffffffffffffffffffffffffffffffffff163373ffffffffffffffffffffffffffffffffffffffff161462000837576040517f08c379a00000000000000000000000000000000000000000000000000000000081526004018080602001828103825260108152602001807f53656e646572206e6f74206f776e65720000000000000000000000000000000081525060200191505060405180910390fd5b620008657f9d62103f62fa99b274a5dbc105d68f3c0d1ed548f044bb895c6f91b791225f0560001b62001a82565b620008937f8aaebfe919b353feff66e5141b201dcd11ddf0a99ea594d5996ee70c159db8ed60001b62001a82565b620008c17f59bf33915e2a4fde49411d6cd41c71a2b1f37226654330f870b6011ebc41a67760001b62001a82565b620008ef7f9db2b932910aad5052dfdcb968b717aff9d86b45068a2770e7db55c699ccabc860001b62001a82565b6200091d7f4f426c94812a648c8603c004a7a2d5dcbfc70b936ca5098e4902272eb0510eb860001b62001a82565b80600160006101000a81548173ffffffffffffffffffffffffffffffffffffffff021916908373ffffffffffffffffffffffffffffffffffffffff16021790555050565b50565b6000620009947ffa7e5cebae6b64c5a7fac8448b9c42a83831883126d8f7c10b2311a95c6344cd60001b62000961565b620009c27f51c05376bded2017bdf862412c1337dba7436714aba220ced094d6d82dceab5460001b62000961565b620009f07f2d1dd5a3e28031f4202ca8c84e685b8d5889c4a8beab675ac69e04a2e80949af60001b62000961565b60008888888862000a0062001474565b89600354600460009054906101000a900473ffffffffffffffffffffffffffffffffffffffff168b8b60405162000a379062001dcd565b808b73ffffffffffffffffffffffffffffffffffffffff1681526020018a73ffffffffffffffffffffffffffffffffffffffff1681526020018981526020018881526020018773ffffffffffffffffffffffffffffffffffffffff1681526020018681526020018581526020018473ffffffffffffffffffffffffffffffffffffffff1681526020018060200180602001838103835285818151815260200191508051906020019080838360005b8381101562000b0257808201518184015260208101905062000ae5565b50505050905090810190601f16801562000b305780820380516001836020036101000a031916815260200191505b50838103825284818151815260200191508051906020019080838360005b8381101562000b6b57808201518184015260208101905062000b4e565b50505050905090810190601f16801562000b995780820380516001836020036101000a031916815260200191505b509c50505050505050505050505050604051809103906000f08015801562000bc5573d6000803e3d6000fd5b50905062000bf67f7518d271c499d9680653b878a25cf0d717a69cc2a4f1875a4efb416958851fc060001b62000961565b62000c247fe5073b998830648bc73328749ac91e7a9a2106b17788cc7797728d09a3c27aa760001b62000961565b62000c2f8162001b65565b62000c5d7f7141000014e7111a0e8aac16c9d4343a6d4a123cc3916a07eb08d77dce6aeacb60001b62000961565b62000c8b7f4a65bf9c1691c933a72288d72fc6aab517c23713fe9c1fa4516461759c1e6c7760001b62000961565b8773ffffffffffffffffffffffffffffffffffffffff168173ffffffffffffffffffffffffffffffffffffffff167fb14ff89cddeb998412ff084d61dbc14306dcdad1a6302415ee0c3cd849a6b62e60405160405180910390a362000d137f3b2e5a53a2d74fb94d2c899054635dcf62fdedcb3f169f401296e4e1725905a460001b62000961565b62000d417fc6603e15d5a79e8981ba064bfcac44ea9bd5cfe6fd18da134db19ca4c4d4034f60001b62000961565b80915050979650505050505050565b62000d7e7fd4d9750cc873e28a33b6146892b91705b4e36122f57cc00638baaa2d8e88da3460001b62001a82565b62000dac7f9f0ba75d613ba2553527f0a0b4d8a37130e8b90230b8d4c0ba4ceef664b2fd7560001b62001a82565b62000dda7f0a7f26f5f54318c760382fe830b8909e341a0d5c6ff820dd16e723cdcd41737860001b62001a82565b62000e087f4c1b8253f229dededcc0b5f07092699a1b0b556d6b508ce47b7b22cf8a07758a60001b62001a82565b62000e133362001a85565b62000e86576040517f08c379a00000000000000000000000000000000000000000000000000000000081526004018080602001828103825260158152602001807f53656e646572206e6f7420417574686f72697a6564000000000000000000000081525060200191505060405180910390fd5b62000eb47ff97c033e31e14ffb6a64e44f3d30a61c2eb58428ac40643ee106605b02ebeefa60001b62001a82565b62000ee27fc07de3fa3e87c35791ff872a067a386fba7ea9ef14fd483d6228f0fbc9221faf60001b62001a82565b62000f107fd67224d93c597907b8c59b70624c912c3cd1e38fe321e4b6bdec053d5993a90860001b62000961565b62000f3e7f2b5ee90eb08132c7798f6a3c6c9346cf970e22ca33ec428b0f176bb91878cffc60001b62000961565b62000f6c7fd6a44ed1b410109f67079b391c4d351f0488a9b12144cb316e33e05254c6e7c060001b62000961565b62000f9a7fd5b06e7ca0040e44570c27914803ff68ed11241fed6102925fafe5e4f490e36c60001b62000961565b670429d069189e0000811062001018576040517f08c379a00000000000000000000000000000000000000000000000000000000081526004018080602001828103825260178152602001807f4e65772066656520686967686572207468616e2033302500000000000000000081525060200191505060405180910390fd5b620010467fa7d4f110f62d63145651ea195cb969571e4131cf990b091b17a9a8e8e7dada9e60001b62000961565b620010747f963fc9e2a5a09c1adadadea5e25a9d2b52ccee9ae299a2958683745a22bf37da60001b62000961565b620010a27fb4082faf042dd5c254b3fb9d24a627d6c4ab0adf99cf4ee9c053c0ff70b65ae460001b62000961565b8060038190555050565b620010da7fd3c15ea78c92f29ff21320133dc186cdc3d1b99010a10df905c42a6af1a2c6f460001b62001a82565b620011087fac6901de5a519b8c1831d8445034bb5dea3a2d45b70c0fba443d0d84677323ac60001b62001a82565b620011367fcf08c7465446b26d7e68bf1123bb30be9e147682d9a9980bab252718ee9e41b860001b62001a82565b620011647fd8063382c6af56cf10a207517e9d4e28deae0b115ed54758c9c98079502650bc60001b62001a82565b600160009054906101000a900473ffffffffffffffffffffffffffffffffffffffff1673ffffffffffffffffffffffffffffffffffffffff163373ffffffffffffffffffffffffffffffffffffffff161462001228576040517f08c379a00000000000000000000000000000000000000000000000000000000081526004018080602001828103825260108152602001807f53656e646572206e6f74206f776e65720000000000000000000000000000000081525060200191505060405180910390fd5b620012567f9d62103f62fa99b274a5dbc105d68f3c0d1ed548f044bb895c6f91b791225f0560001b62001a82565b620012847f8aaebfe919b353feff66e5141b201dcd11ddf0a99ea594d5996ee70c159db8ed60001b62001a82565b620012b27f5d12454d6ee4a1f4b3b68a0b56d570c145241177d8c258e485e98866aa95911b60001b62001a82565b620012e07f28b024be22ed63df645a0abccdc142ecd3ef4c35fbfa6421c6dab702d0d2fc4060001b62001a82565b6200130e7fb6333f3a0aac75470d9374fbfbea04f22c39e6971cb569f24aedc77ccc96aa0b60001b62001a82565b6000600260008373ffffffffffffffffffffffffffffffffffffffff1673ffffffffffffffffffffffffffffffffffffffff16815260200190815260200160002060006101000a81548160ff02191690831515021790555050565b60035481565b600460009054906101000a900473ffffffffffffffffffffffffffffffffffffffff1681565b6000620013c57f2cc41fde7e957be0eadefa6f7407bb172eb1cf50fa85041ec354b3e3fcf53cec60001b620006b8565b620013f37f66fe7eb34149b5cbe8367e2d14e147691f349120db2e1b7eb72d26fbbd0f55d460001b620006b8565b620014217fdee68a6874723a7d670417ce49ba7a5ce8fb022fafaeebb1e45cdb140077744260001b620006b8565b6000808373ffffffffffffffffffffffffffffffffffffffff1673ffffffffffffffffffffffffffffffffffffffff16815260200190815260200160002060009054906101000a900460ff169050919050565b6000620014a47f29383d2b5fccfe6243d83518ea8a13bcec4fbaf9b63e72f400424e351aa9da6e60001b620006b8565b620014d27fa1b458a210f682a225edc6521d6f76da2906693897d9ef2af953b00efba17b5660001b620006b8565b620015007f6743e0ae474cde26b4ba4d0f48fe33a27361a79156ad5adfa4d3d550999ccb4760001b620006b8565b7f0000000000000000000000000000000000000000000000000000000000000000905090565b600160009054906101000a900473ffffffffffffffffffffffffffffffffffffffff1681565b6200157a7fd3c15ea78c92f29ff21320133dc186cdc3d1b99010a10df905c42a6af1a2c6f460001b62001a82565b620015a87fac6901de5a519b8c1831d8445034bb5dea3a2d45b70c0fba443d0d84677323ac60001b62001a82565b620015d67fcf08c7465446b26d7e68bf1123bb30be9e147682d9a9980bab252718ee9e41b860001b62001a82565b620016047fd8063382c6af56cf10a207517e9d4e28deae0b115ed54758c9c98079502650bc60001b62001a82565b600160009054906101000a900473ffffffffffffffffffffffffffffffffffffffff1673ffffffffffffffffffffffffffffffffffffffff163373ffffffffffffffffffffffffffffffffffffffff1614620016c8576040517f08c379a00000000000000000000000000000000000000000000000000000000081526004018080602001828103825260108152602001807f53656e646572206e6f74206f776e65720000000000000000000000000000000081525060200191505060405180910390fd5b620016f67f9d62103f62fa99b274a5dbc105d68f3c0d1ed548f044bb895c6f91b791225f0560001b62001a82565b620017247f8aaebfe919b353feff66e5141b201dcd11ddf0a99ea594d5996ee70c159db8ed60001b62001a82565b620017527fdf5291eb74b2eebd717fb3193d6df21b2e17f96d53f9c59d146f528391a61cff60001b62001a82565b620017807f9cd6e0cf6986e268ce967dbab10e475a2772463fbd3d4edbafc7d55b9a259a8360001b62001a82565b620017ae7ff4888f1991892c171d770d7451af8d6a0cc2f48de4853d4b995d41bd3916ba6360001b62001a82565b620017b98162001ce8565b50565b60026020528060005260406000206000915054906101000a900460ff1681565b6200180a7fd3c15ea78c92f29ff21320133dc186cdc3d1b99010a10df905c42a6af1a2c6f460001b62001a82565b620018387fac6901de5a519b8c1831d8445034bb5dea3a2d45b70c0fba443d0d84677323ac60001b62001a82565b620018667fcf08c7465446b26d7e68bf1123bb30be9e147682d9a9980bab252718ee9e41b860001b62001a82565b620018947fd8063382c6af56cf10a207517e9d4e28deae0b115ed54758c9c98079502650bc60001b62001a82565b600160009054906101000a900473ffffffffffffffffffffffffffffffffffffffff1673ffffffffffffffffffffffffffffffffffffffff163373ffffffffffffffffffffffffffffffffffffffff161462001958576040517f08c379a00000000000000000000000000000000000000000000000000000000081526004018080602001828103825260108152602001807f53656e646572206e6f74206f776e65720000000000000000000000000000000081525060200191505060405180910390fd5b620019867f9d62103f62fa99b274a5dbc105d68f3c0d1ed548f044bb895c6f91b791225f0560001b62001a82565b620019b47f8aaebfe919b353feff66e5141b201dcd11ddf0a99ea594d5996ee70c159db8ed60001b62001a82565b620019e27f99fcede3cd6c0de7f463a5db5d1c60ef3f82a60dfc33bd6ed64891f394e0a2c560001b62000961565b62001a107f94eec530f010a5f8a2484e6d60fdd173d8a59231a8a45135d503e7afdf6edfc360001b62000961565b62001a3e7f34c7af071bda92232e2b6f21e6f0edfd3fdb2851186e78a73ee2926065b8806660001b62000961565b80600460006101000a81548173ffffffffffffffffffffffffffffffffffffffff021916908373ffffffffffffffffffffffffffffffffffffffff16021790555050565b50565b600062001ab57f5d203ac8e3feb75efa94e0b910558076e3703263fbc7eeb32681bb57b1a8b39360001b62001a82565b62001ae37fc9870c48d9ef77d66147b925fdcf1457da4741003fddcfaf2e5cd7b8356cabc760001b62001a82565b62001b117f9df5568f613f1f598fa209a9c44a3e8e930a119ff855a6bdc5bd8147eea5ac5d60001b62001a82565b600260008373ffffffffffffffffffffffffffffffffffffffff1673ffffffffffffffffffffffffffffffffffffffff16815260200190815260200160002060009054906101000a900460ff169050919050565b62001b937f85f2440d3bb413e87063f72fc4b73b12a22bdfeb26af00edc6d66e81b2e166df60001b620006b8565b62001bc17f3a150163ba55e1517b963ccf2da19324a13f1ad865abb9cddb82043fd08dfbfc60001b620006b8565b62001bef7f34e9ed9a5e996923a8769a6b01249ee6d941739692e2712e169efeba4465198a60001b620006b8565b60016000808373ffffffffffffffffffffffffffffffffffffffff1673ffffffffffffffffffffffffffffffffffffffff16815260200190815260200160002060006101000a81548160ff02191690831515021790555062001c747f329cd91c48c66683c5b31a15b829f1ddeae0d32529263d548808e851d7e3bba060001b620006b8565b62001ca27fc27850424ca1a424c8c26281dc33cbc76f2991719eebb4eecd1f831cdf11585a60001b620006b8565b8073ffffffffffffffffffffffffffffffffffffffff167f83a48fbcfc991335314e74d0496aab6a1987e992ddc85dddbcc4d6dd6ef2e9fc60405160405180910390a250565b62001d167f69720f7d8750c3db5d0f7829a41f5a26bafd40e148a1e4d5678ec378c960f9bc60001b62001a82565b62001d447f0c4e51ab5ab250a134a6e528047c8268ad0cf2cfe0cbc4ec89fe005afc88b91c60001b62001a82565b62001d727ffc5e08e3675420d134ac48c459a45e0cfe67bca9c6c2f79c1a12082b6bb1659560001b62001a82565b6001600260008373ffffffffffffffffffffffffffffffffffffffff1673ffffffffffffffffffffffffffffffffffffffff16815260200190815260200160002060006101000a81548160ff02191690831515021790555050565b62010ebc8062001ddd8339019056fe6102a06040527f6e71edae12b1b97f4d1f60370fef10105fa2faae0126114a169c64845d6126c960e090815250348015630000003a57600080fd5b506040516300010ebc3803806300010ebc8339818101604052810190630000006491906300001750565b8181816040518060400160405280600181526020017f310000000000000000000000000000000000000000000000000000000000000081525063000000d37f42b605ad8c4e48409d07a45ae01575f0109010e501e8b5c073584d28d362cafe60001b630000156f60201b60201c565b63000001097f83ae992f89ac3d22b5c08de6e662a0aa913c874cd41a0efc0f4994d8c4de570060001b630000156f60201b60201c565b630000013f7fc4a174b8a26360ea40053551849bb6f425e3b060f612b04327821719723bcc8660001b630000156f60201b60201c565b81805190602001206080818152505063000001847fc26a2832f3fd57ee4b8ea5a6826ac33a1a1b798676bc5c45122e9662aeab5d2660001b630000156f60201b60201c565b63000001ba7fd4fb5a4207833b83c54df15a2c96970589d99d04479e6f4ca3165c5111271ea760001b630000156f60201b60201c565b808051906020012060a0818152505063000001ff7fb8e8098b11bfdd787c3da2cdafe2cc6b982a589dae9ae914138ecda0b35a4a3f60001b630000156f60201b60201c565b63000002357fb3e60e0a13ac53da78856e77763f45e4814e177529da21d9bb0dde71039bfb5360001b630000156f60201b60201c565b7f8b73c3c69bb8fe3d512ecc4cf759cc79239f7b179b0ffacaa9a75d522b39400f60c08181525050505063000002957f7253d2a06334ee1e20139f04b1552da25178216f1aa557135d1e8f8155e9554160001b630000157260201b60201c565b63000002cb7f755fcc9e3678086f07a630e926401728d6cfabf7045174656ed798ffe0e2c27660001b630000157260201b60201c565b63000003017fdf8c8e35aefe83f659d9ebf212dddcf9ac89e043959be6158e0274561e70d86360001b630000157260201b60201c565b8160039080519060200190630000031b9291906300001578565b5063000003527faca7bf43b85bbccc85881caf16d28b9ec4837f003dbb33b53c537fe7df6424ad60001b630000157260201b60201c565b63000003887fa9d35326029da8ea64802ba17246b49b2739c36b2c3f195ab3fefecc9610066e60001b630000157260201b60201c565b806004908051906020019063000003a29291906300001578565b50505063000003db7f167081fe7b36e08415082a1eb5d38cd0ad7abe89e2f76545e26f964ecc88b2e760001b630000157560201b60201c565b63000004117f275b7dadc8eb09cc3c5eb1a62804e690ee6aabba2e1c55ac7fac60b0fab7600660001b630000157560201b60201c565b63000004477fca9d3c8d1af9d1441f5fa6abb590a80785a20bf1c48f4ab9908544053ecca50060001b630000157560201b60201c565b630000047d7f8fd0bcb92ba7bc9f2743982998b70b3809a216539662126919005ce8b2a6461f60001b630000157560201b60201c565b8642890310630000048d57600080fd5b63000004c37f46146dfca7007329290af97bbfb05ce1e80e04f0aced0a6d0a2f2e9605c653f960001b630000157560201b60201c565b63000004f97f607f1cd095ed1fe68d40ff784cfd6a96ae20534bf217d439adea0ec0913d952960001b630000157560201b60201c565b630000052f7fa77c78e5356bc60307aaa69de8394bda7258ffef8b9896fc772ba02e9c4e449c60001b630000157560201b60201c565b60008673ffffffffffffffffffffffffffffffffffffffff166309b2760f60026040518263ffffffff1660e01b8152600401630000056f91906300001abd565b602060405180830381600087803b158015630000058b57600080fd5b505af115801563000005a1573d6000803e3d6000fd5b505050506040513d601f19601f8201168201806040525081019063000005c991906300001721565b905063000006017f654b78b005f7959dd97fee81009da5c955841aee933db34097511baedc48a7fe60001b630000157560201b60201c565b63000006377f08ca1a12f6c7b2784ba541c81b5cf68ded70f350c5b8941ce11188d13bd480b860001b630000157560201b60201c565b6060600267ffffffffffffffff81118015630000065357600080fd5b5060405190808252806020026020018201604052801563000006845781602001602082028036833780820191505090505b50905063000006bd7fdf3fb9ff49081211013e10511095f441edff7fcee3476e35f15ab6890e8ca15860001b630000157560201b60201c565b63000006f37f8a8f2aa0710cd24c003ca685636f8d247086671774333eec6937f74fa390584460001b630000157560201b60201c565b8a73ffffffffffffffffffffffffffffffffffffffff168c73ffffffffffffffffffffffffffffffffffffffff16101563000008d257630000075f7fdfafc5eac889705744e495928d1c14813602fdc28298cdc08520ce3ea4a4093a60001b630000157560201b60201c565b63000007957fab3510bd659545e9e87d1f22072bd40ce0b9c769a3564cc7cdabaf510750b56460001b630000157560201b60201c565b63000007cb7fb5cc6b295bfb6f4a720aee74740ec63da4261d7ec3b882792fd3949e2ffef76660001b630000157560201b60201c565b8b8160008151811063000007db57fe5b602002602001019073ffffffffffffffffffffffffffffffffffffffff16908173ffffffffffffffffffffffffffffffffffffffff1681525050630000084b7f2cc862aa3bffff5e703863623a1c898fb64cc6af6e71036cdace5f462b337dc060001b630000157560201b60201c565b63000008817fd2d0127d69186c9dc527a605f085980e84ca771a8ecb558dfb539c663a616afd60001b630000157560201b60201c565b8a81600181518110630000089157fe5b602002602001019073ffffffffffffffffffffffffffffffffffffffff16908173ffffffffffffffffffffffffffffffffffffffff16815250506300000a75565b63000009087fe707201e8d5c0b2819363f552bb325874393980a55044b79c2bab261717fbb2860001b630000157560201b60201c565b630000093e7f45180a37feac3039eb9f2022493a99af0153062379c7831dd8a2a2fb20a2d56060001b630000157560201b60201c565b63000009747f2e712a4f0a1db86c8a8d9d43e068807fc01ade29a72336984478ebe829692dbb60001b630000157560201b60201c565b8a81600081518110630000098457fe5b602002602001019073ffffffffffffffffffffffffffffffffffffffff16908173ffffffffffffffffffffffffffffffffffffffff168152505063000009f47f3344a8f8c8ee840e3892fbb43d8ea5c82697c5892d42e8be6347181c2c2272f460001b630000157560201b60201c565b6300000a2a7f074c3c4474e1604f5a80581db8002836af396619cc9b41ed80cc7f8355a17f9360001b630000157560201b60201c565b8b816001815181106300000a3a57fe5b602002602001019073ffffffffffffffffffffffffffffffffffffffff16908173ffffffffffffffffffffffffffffffffffffffff16815250505b6300000aab7f9493db498a8e8bed839180ac2b3a1f4acaa222f58447e8fb0a19d08bbd37f67c60001b630000157560201b60201c565b6300000ae17ff6c759e05f3e243f3835760a180664b4011d4b7a4493b04f0f1d111726ef3f8f60001b630000157560201b60201c565b8773ffffffffffffffffffffffffffffffffffffffff166366a9c7d28383600267ffffffffffffffff811180156300000b1957600080fd5b506040519080825280602002602001820160405280156300000b4a5781602001602082028036833780820191505090505b506040518463ffffffff1660e01b81526004016300000b6d939291906300001a6c565b600060405180830381600087803b1580156300000b8957600080fd5b505af11580156300000b9f573d6000803e3d6000fd5b505050506300000bd97f6b8dee2777cb085b774e165dfbb18ffe8d0071e825e0827ae6fbb02b5db7f71f60001b630000157560201b60201c565b6300000c0f7f81ccaccaddc814756002fee19f97972cb085cb20c847f696c1db495d9eb209b660001b630000157560201b60201c565b8773ffffffffffffffffffffffffffffffffffffffff166101c08173ffffffffffffffffffffffffffffffffffffffff1660601b815250506300000c7d7fadfad403eb0dcc5af496b0df383faa3759440d7ac1457a551539d31fc0da4b7b60001b630000157560201b60201c565b6300000cb37f68ab0f7e606c293f9671328e93856d71211fd31eba987ddf5eec5fc17aca6e4560001b630000157560201b60201c565b816101e081815250506300000cf27f266379fe965c311ed50368bef765bf39aa686fadc1853b2e1fd461692090757360001b630000157560201b60201c565b6300000d287f1fcd5fe8ad2bd8d2c6de1d1f865db8b134fa9dc83ea2684bc3fac8031fda011060001b630000157560201b60201c565b8661022081815250506300000d677fd8fbccc81c10f87fad1e3503f6b94b698c4cebcf0901db489fad362bc4d1380e60001b630000157560201b60201c565b6300000d9b7da424550aec5fc26c92336d4839f6d51cb21d575a66c78e52fd787e16c89060001b630000157560201b60201c565b6300000dd17f078b451c172acef9b816526f7e40fe3777c659c0a1cbe116ca750d17276251c760001b630000157560201b60201c565b670429d069189e000086106300000e21576040517f08c379a00000000000000000000000000000000000000000000000000000000081526004016300000e18906300001adc565b60405180910390fd5b6300000e577fd8d3e0a39efe60a463ab2c72696a4abf281f238c5ca89bdcaec680e29bed09f460001b630000157560201b60201c565b6300000e8d7fbb364a05647b9637e1432bc9d5c5845d922b2c40f9d1d26741e27cc0984565eb60001b630000157560201b60201c565b6300000ec37f81856d4fad12329d0020df38e2ac9a1bcc11f3926570f7d6b03c4c0fdc2ad7af60001b630000157560201b60201c565b8561024081815250506300000f027f72300c1e34c16a70540d4adaa6d1400b88a8b72deb62a7cd7421bd99c716a7e960001b630000157560201b60201c565b6300000f387f5b7e1624b69f1f16de85778355bab4288538b461bf2fd842b5f050a4413e7d1d60001b630000157560201b60201c565b8b73ffffffffffffffffffffffffffffffffffffffff166101008173ffffffffffffffffffffffffffffffffffffffff1660601b815250506300000fa67f7490ab125ddf3e6cb96917f77902209d20002cc8522547ffae5a9e63ea78d66d60001b630000157560201b60201c565b6300000fdc7f9409f2ca3919c89543ab8d8fa2fd847b92dc07a981e2403ed8f14ee55e57190660001b630000157560201b60201c565b8b73ffffffffffffffffffffffffffffffffffffffff1663313ce5676040518163ffffffff1660e01b815260040160206040518083038186803b158015630000102457600080fd5b505afa158015630000103a573d6000803e3d6000fd5b505050506040513d601f19601f82011682018060405250810190630000106291906300001889565b60ff166101208160ff1660f81b8152505063000010a97ffb7418529377d0faceae85b8b26c39b3fb6e09b7fd11f96eb5fbe1678583be1760001b630000157560201b60201c565b63000010df7fd23eeebab263c11203b0cf761329df4f5796ccd0a248f77e34f999cc8f334a8d60001b630000157560201b60201c565b8a73ffffffffffffffffffffffffffffffffffffffff166101408173ffffffffffffffffffffffffffffffffffffffff1660601b81525050630000114d7f53acb9278e0ff9fdfd2b23ad0d4a56fb1ebbdd9e743af86b88fc3e4422ef6fda60001b630000157560201b60201c565b63000011837f26a74945d44cad81ce2803f38c95277a102352f61a2cfcddee83a1dc509b188760001b630000157560201b60201c565b8a73ffffffffffffffffffffffffffffffffffffffff1663313ce5676040518163ffffffff1660e01b815260040160206040518083038186803b15801563000011cb57600080fd5b505afa15801563000011e1573d6000803e3d6000fd5b505050506040513d601f19601f82011682018060405250810190630000120991906300001889565b60ff166101608160ff1660f81b8152505063000012507fc2bb4aeeb3628b7b4546c7aad784db8ed8e4a1db60217856938470b97f26cb0b60001b630000157560201b60201c565b63000012867f1015955fb717fcdf67806f2d8d145fcc0191b60be9c9a5b2c6f8ac443d0f03d360001b630000157560201b60201c565b89610180818152505063000012c57f92a2354d9d41eb233014fd00cdbb52e765cf3eca88747372577b78c9df90a1c760001b630000157560201b60201c565b63000012fb7f72ddd81e0ef399efebf36727d23e0d9a10b11668ef354ddea0b3afebaefbd39660001b630000157560201b60201c565b886101a08181525050630000133a7fc02b5c607fe36b1b9bd4e7d4bfc5d38a3942db278ccf323d9c801ad136c97a3d60001b630000157560201b60201c565b63000013707fc64d1a0e27eba0a3297d6535d451f6fa8677be57c5d6ecafd0133cc45693e4b560001b630000157560201b60201c565b8473ffffffffffffffffffffffffffffffffffffffff166102008173ffffffffffffffffffffffffffffffffffffffff1660601b8152505063000013de7f63b0a0dbab2f45fc758a8305b39bfff92429994107e0b705a9a8281c6e86b5d960001b630000157560201b60201c565b63000014147f67ef28bc091f109896ad4524cd33d4dd39b5dbf54f4a8c514e74ab1b4dcee4a460001b630000157560201b60201c565b60008b73ffffffffffffffffffffffffffffffffffffffff168d73ffffffffffffffffffffffffffffffffffffffff16109050630000147d7f4d4cbbbd8d9adc55aae1584332697bd71ced7193f1ea0fbde500ff408c22262160001b630000157560201b60201c565b63000014b37f5cb84cc38780f03ea136f5f3ee5655d3f2cbb802f6b0ec30a6a7fcc7c1b5ae5160001b630000157560201b60201c565b8063000014c357600163000014c6565b60005b60ff16610260818152505063000015077fb6eebeeff5886f46519b4ff1e8521fc0573e4e6d04472bb158e63f2a4d46912660001b630000157560201b60201c565b630000153d7fd9459b18756712766473a3d20d351404a8d55ea80ba1be3c2af9bea1190bc5f260001b630000157560201b60201c565b80630000154d5760006300001550565b60015b60ff166102808181525050505050505050505050505050506300001da1565b50565b50565b50565b828054600181600116156101000203166002900490600052602060002090601f016020900481019282601f1063000015bd57805160ff191683800117855563000015f1565b8280016001018555821563000015f1579182015b8281111563000015f057825182559160200191906001019063000015d1565b5b509050630000160291906300001606565b5090565b5b8082111563000016235760008160009055506001016300001607565b5090565b600081519050630000163a816300001cf3565b92915050565b6000815190506300001653816300001d10565b92915050565b600081519050630000166c816300001d2d565b92915050565b6000815190506300001685816300001d4a565b92915050565b600082601f830112630000169e57600080fd5b815163000016b963000016b2826300001b2f565b6300001b00565b9150808252602083016020830185838301111563000016d757600080fd5b63000016e68382846300001cab565b50505092915050565b6000815190506300001702816300001d67565b92915050565b600081519050630000171b816300001d84565b92915050565b600060208284031215630000173557600080fd5b60006300001747848285016300001640565b91505092915050565b6000806000806000806000806000806101408b8d031215630000177257600080fd5b600063000017848d828e016300001659565b9a5050602063000017998d828e016300001659565b995050604063000017ae8d828e0163000016ef565b985050606063000017c38d828e0163000016ef565b975050608063000017d88d828e016300001672565b96505060a063000017ed8d828e0163000016ef565b95505060c063000018028d828e0163000016ef565b94505060e063000018178d828e016300001627565b9350506101008b015167ffffffffffffffff811115630000183757600080fd5b63000018478d828e01630000168b565b9250506101208b015167ffffffffffffffff811115630000186757600080fd5b63000018778d828e01630000168b565b9150509295989b9194979a5092959850565b600060208284031215630000189d57600080fd5b600063000018af848285016300001708565b91505092915050565b600063000018c8838363000018f0565b60208301905092915050565b600063000018e483836300001a02565b60208301905092915050565b63000018fd816300001bcf565b82525050565b60006300001912826300001b7d565b630000192081856300001bad565b9350630000192f836300001b5d565b8060005b83811015630000196c578151630000194d888263000018b8565b9750630000195c836300001b93565b9250506001810190506300001933565b5085935050505092915050565b60006300001988826300001b88565b630000199681856300001bad565b935063000019a5836300001b6d565b8060005b8381101563000019e257815163000019c3888263000018d4565b975063000019d2836300001ba0565b92505060018101905063000019a9565b5085935050505092915050565b63000019fc816300001be5565b82525050565b6300001a0f816300001c69565b82525050565b6300001a22816300001c95565b82525050565b60006300001a39600c836300001bbe565b91507f46656520746f6f206869676800000000000000000000000000000000000000006000830152602082019050919050565b60006060820190506300001a85600083018663000019ef565b81810360208301526300001a9b81856300001979565b905081810360408301526300001ab381846300001903565b9050949350505050565b60006020820190506300001ad660008301846300001a15565b92915050565b600060208201905081810360008301526300001af9816300001a28565b9050919050565b6000604051905081810181811067ffffffffffffffff821117156300001b2557600080fd5b8060405250919050565b600067ffffffffffffffff8211156300001b4857600080fd5b601f19601f8301169050602081019050919050565b6000819050602082019050919050565b6000819050602082019050919050565b600081519050919050565b600081519050919050565b6000602082019050919050565b6000602082019050919050565b600082825260208201905092915050565b600082825260208201905092915050565b60006300001bde826300001c32565b9050919050565b6000819050919050565b60006300001bfe826300001bcf565b9050919050565b60006300001c14826300001bcf565b9050919050565b60008190506300001c2d826300001ce4565b919050565b600073ffffffffffffffffffffffffffffffffffffffff82169050919050565b6000819050919050565b600060ff82169050919050565b60006300001c78826300001c7f565b9050919050565b60006300001c8e826300001c32565b9050919050565b60006300001ca4826300001c1b565b9050919050565b60005b838110156300001ccd5780820151818401526020810190506300001cae565b838111156300001cde576000848401525b50505050565b600381106300001cf057fe5b50565b6300001d00816300001bcf565b81146300001d0d57600080fd5b50565b6300001d1d816300001be5565b81146300001d2a57600080fd5b50565b6300001d3a816300001bef565b81146300001d4757600080fd5b50565b6300001d57816300001c05565b81146300001d6457600080fd5b50565b6300001d74816300001c52565b81146300001d8157600080fd5b50565b6300001d91816300001c5c565b81146300001d9e57600080fd5b50565b60805160a05160c05160e0516101005160601c6101205160f81c6101405160601c6101605160f81c610180516101a0516101c05160601c6101e0516102005160601c6102205161024051610260516102805161eefc6300001fc060003980611b5c5280611c25528061389f5280613968528061476052806147bc5280614ecd528061506652806158de5280615b275280615ce35280615d3f52806187675280618b745280618daa52806193c1525080611ab95280611bf152806137fc5280613934528061467152806146cd5280614e0b5280614f92528061583b5280615a965280615bf45280615c5052806186d55280618ad15280618d1a528061938d525080610fc052806149995280614c435280614cd25280614de95280614eab5280614f6d5280615041525080611008528061777252806179645280617c2e5280617e2052508061102c5280614d64525080610f9a528061165b528061339e52508061151d5280612250528061244e5280613260525080613d005280615f1e525080610fe45280615e015280615e30525080613d2452806147935280615d18528061705152806182415250806110535280616f755280617222528061736752806176825280617b3e5280618163525080610dc452806146a45280615c295280616eee52806180de52508061137a5280616e1252806171cc52806173bd5280618000525080612e705250806143f952508061443b52508061441a525061eefc6000f3fe608060405234801561001057600080fd5b50600436106102415760003560e01c80636939fcfe11610145578063a9059cbb116100bd578063dd62ed3e1161008c578063f1cd96ba11610071578063f1cd96ba146106d8578063f46c39e7146106f6578063f7b942831461071457610241565b8063dd62ed3e1461068a578063eaee3f3b146106ba57610241565b8063a9059cbb146105dd578063d505accf1461060d578063d5c096c414610629578063d73dd6231461065a57610241565b806379155050116101145780638d928af8116100f95780638d928af81461057157806395d89b411461058f5780639d2c110c146105ad57610241565b806379155050146105115780637ecebe001461054157610241565b80636939fcfe146104765780636f307dc31461049257806370a08231146104b057806374f3b009146104e057610241565b80633644e515116101d85780634c1a4115116101a75780635e3537df1161018c5780635e3537df1461040c57806364c9ec6f14610428578063661884631461044657610241565b80634c1a4115146103d05780635aa6e675146103ee57610241565b80633644e5151461035857806338fff2d01461037657806341bd436a146103945780634665096d146103b257610241565b806323b872dd1161021457806323b872dd146102ce57806325a760c2146102fe57806329e4f3621461031c578063313ce5671461033a57610241565b806304b5705c1461024657806306fdde0314610262578063095ea7b31461028057806318160ddd146102b0575b600080fd5b610260600480360381019061025b919061e3b5565b610732565b005b61026a610735565b604051610277919061ea6a565b60405180910390f35b61029a6004803603810190610295919061e338565b61085b565b6040516102a7919061e905565b60405180910390f35b6102b861094d565b6040516102c5919061eb47565b60405180910390f35b6102e860048036038101906102e3919061e24b565b6109db565b6040516102f5919061e905565b60405180910390f35b610306610dc2565b604051610313919061ebec565b60405180910390f35b610324610de6565b604051610331919061eb47565b60405180910390f35b610342610df2565b60405161034f919061ebec565b60405180910390f35b610360610e7f565b60405161036d919061e920565b60405180910390f35b61037e610f12565b60405161038b919061e920565b60405180910390f35b61039c610fbe565b6040516103a9919061eb47565b60405180910390f35b6103ba610fe2565b6040516103c7919061eb47565b60405180910390f35b6103d8611006565b6040516103e5919061eb47565b60405180910390f35b6103f661102a565b604051610403919061e8b3565b60405180910390f35b6104266004803603810190610421919061e3b5565b61104e565b005b610430611051565b60405161043d919061ea34565b60405180910390f35b610460600480360381019061045b919061e338565b611075565b60405161046d919061e905565b60405180910390f35b610490600480360381019061048b919061e3b5565b611375565b005b61049a611378565b6040516104a7919061ea34565b60405180910390f35b6104ca60048036038101906104c5919061e1e6565b61139c565b6040516104d7919061eb47565b60405180910390f35b6104fa60048036038101906104f5919061e3de565b611468565b60405161050892919061e8ce565b60405180910390f35b61052b6004803603810190610526919061e517565b611d87565b604051610538919061eb47565b60405180910390f35b61055b6004803603810190610556919061e1e6565b6120fb565b604051610568919061eb47565b60405180910390f35b6105796121c8565b604051610586919061ea4f565b60405180910390f35b610597612274565b6040516105a4919061ea6a565b60405180910390f35b6105c760048036038101906105c2919061e4b0565b61239a565b6040516105d4919061eb47565b60405180910390f35b6105f760048036038101906105f2919061e338565b612bf3565b604051610604919061e905565b60405180910390f35b6106276004803603810190610622919061e29a565b612ce6565b005b610643600480360381019061063e919061e3de565b6131ab565b60405161065192919061e8ce565b60405180910390f35b610674600480360381019061066f919061e338565b613a72565b604051610681919061e905565b60405180910390f35b6106a4600480360381019061069f919061e20f565b613bf3565b6040516106b1919061eb47565b60405180910390f35b6106c2613cfe565b6040516106cf919061eb47565b60405180910390f35b6106e0613d22565b6040516106ed919061ebec565b60405180910390f35b6106fe613d46565b60405161070b919061eb2c565b60405180910390f35b61071c613d68565b604051610729919061eb2c565b60405180910390f35b50565b60606107637f5dfdc8f2f6b16263aff4e1fa9daf20c3e626c84a00d5d6bcaea54312a6dedb3f60001b610732565b61078f7fa30e0aec3fd2e1f5d3fa7e060a0c71fc1a4593e346708abdd288bd71a8d9ae5660001b610732565b6107bb7fc0ca2993df56cc3a2adb97bb0ebc8fe721848fcdace1e7d885178e32eb1db44e60001b610732565b60038054600181600116156101000203166002900480601f0160208091040260200160405190810160405280929190818152602001828054600181600116156101000203166002900480156108515780601f1061082657610100808354040283529160200191610851565b820191906000526020600020905b81548152906001019060200180831161083457829003601f168201915b5050505050905090565b60006108897ff099023c1f159266a64260fb366a6bfc73f2d01960c66920ea0020ddcbc78eeb60001b610732565b6108b57f10f7074bbe308337495d3c4502cf6c01f2be32ca196c807f828ee19c3f97d90e60001b610732565b6108e17fc9a2b32520bd1d8c442e96d2af7b523d6252271a193785be85992c2d0766b18560001b610732565b6108ec338484613d8a565b6109187fed42e9e42c5b5aba6101d2063da8fb5ece96354268b7a0bc893f1a4fc0e7dbf060001b610732565b6109437ee182571078bde88a73ddd558535ad452f1e3974656f9d9f62cfd0c7da15ee060001b610732565b6001905092915050565b600061097b7f10b8ca513f61e329a255990c3baacc2acfde14b45a7a53ec08eb2ba3517fe09560001b610732565b6109a77f9b61f32c47f6c42dc51fde0671f67b217c3158e7e9782bc2213b6e2c2d5e34d460001b610732565b6109d37fc21c061ae22a904437e41b7baf9cac8e362edbf8d26c2cb9e1629904ee73e70960001b610732565b600254905090565b6000610a097f2b1e68de6d43f0e19cec6745dfa61baade0800dd1a56bbd52e39777aebf27d6b60001b610732565b610a357f489d99b50fa72fc3dea480d9cf73b7490c1e47fba05f2d3b7603a44ef73e699c60001b610732565b610a617fe83485d541b5f143bd5ef5bbb3e5a63323c34810257dd385343ef069d658a4b260001b610732565b6000600160008673ffffffffffffffffffffffffffffffffffffffff1673ffffffffffffffffffffffffffffffffffffffff16815260200190815260200160002060003373ffffffffffffffffffffffffffffffffffffffff1673ffffffffffffffffffffffffffffffffffffffff168152602001908152602001600020549050610b0e7f7acbc98dd8e190d79aca9eb011baee20bb2366d3eedc8a3f04245546567cc5b260001b610732565b610b3a7f632dfb23fbebd40c75ff33721df2a92728772e0cb1d3deb87f207cf7cab2a10260001b610732565b610b7f8573ffffffffffffffffffffffffffffffffffffffff163373ffffffffffffffffffffffffffffffffffffffff161480610b775750838210155b610197613f51565b610bab7f993f4c6e8c008b0e283cc3529c046194726583f0d23a831d03ab9d99702a305560001b610732565b610bd77fa21bfb64499a28f2816f262e017191c7e2dc0edb578644d9ceb6d6514868ccbe60001b610732565b610be2858585613f64565b610c0e7f3b67f6574e48078056567f4ba1258a1a8ec3617f2d45f8f2ecd901b9097c0e9760001b610732565b610c3a7f529b06b2bd8fe2a2596fc030aca809d39486748c9331eaa0f97a9f291e1a439d60001b610732565b8473ffffffffffffffffffffffffffffffffffffffff163373ffffffffffffffffffffffffffffffffffffffff1614158015610c9657507fffffffffffffffffffffffffffffffffffffffffffffffffffffffffffffffff8114155b15610d3157610cc77f877681a6d4f5ab52385493f404647a433563e82974907b48b9c73d4eb25d8f6560001b610732565b610cf37f49ebf7be4c1fc91fc09bd14adacdae1bce45f86764a4287ec086129f59cc26a260001b610732565b610d1f7f3c617a45259a8d0f0eda006c9bb5a9b1a8e8795ae8611ddf96b8b0e7ba99892260001b610732565b610d2c8533858403613d8a565b610d5e565b610d5d7f5a25d1eb7570a5c2ee45cb9d5f47c07a4f5842d3f330c4e822ea66497d81cb6c60001b610732565b5b610d8a7fb4c07bfb466a59c3b85f18ad6b2ba28067a0148a55075c9336c120227815c00460001b610732565b610db67fc0c735451fb918416d33d495ba933fa43d051481563b4101952e183c5b514c5e60001b610732565b60019150509392505050565b7f000000000000000000000000000000000000000000000000000000000000000081565b670429d069189e000081565b6000610e207f0ec0a5a4261d3a15b467b2a665a72073343642fb9a1c92da9edf1309b6d2c14a60001b610732565b610e4c7f57d6fbae4770d6bd21254429908c66b313d658379031dcfc56ae1e1b494b8f9f60001b610732565b610e787f4cfdac4ee4de89387e0f8d9dc259069cc026be59c0f08e9423e99fbadb2b6ec960001b610732565b6012905090565b6000610ead7f7b9d6858a657bb5a26c48be247410cf75b9bfee57661a4a4a08a01805ba9e1ae60001b610732565b610ed97f222b27ce782393a8c5154f56efad9e2896844b5b48cee66e2acfa34ffa8fd8ff60001b610732565b610f057fa0f6fd1e29310660eadf623e456941a8850d53fa660b85efb7e75898859e2fb460001b610732565b610f0d614371565b905090565b6000610f407f5a337ab05653e484ab7eedc4f931a00ed5fdf7615001b0a6e036ddbf2a2cdaf860001b61104e565b610f6c7f149a41f2e66713720566226df4211abe2c21b79a272355070cf4027f32e3a66860001b61104e565b610f987ffc973452954289219586fcf6f512a6de3af3dae090f6ef43f417bce94ddfb3ef60001b61104e565b7f0000000000000000000000000000000000000000000000000000000000000000905090565b7f000000000000000000000000000000000000000000000000000000000000000081565b7f000000000000000000000000000000000000000000000000000000000000000081565b7f000000000000000000000000000000000000000000000000000000000000000081565b7f000000000000000000000000000000000000000000000000000000000000000081565b50565b7f000000000000000000000000000000000000000000000000000000000000000081565b60006110a37f9e886b13fe83ddbdd49ddff84b8db0770f40ebeb89e7767374810c5951ac06e060001b610732565b6110cf7fec9c727c77fe71b446b8dcb9e22621b7844e4322ac87f4636dcb1f0c806aa37560001b610732565b6110fb7f9a17f4bf3bac6a1bc30cadfc6ae50024fc3e8251ef119ea91453c2a3e420adc660001b610732565b6000600160003373ffffffffffffffffffffffffffffffffffffffff1673ffffffffffffffffffffffffffffffffffffffff16815260200190815260200160002060008573ffffffffffffffffffffffffffffffffffffffff1673ffffffffffffffffffffffffffffffffffffffff1681526020019081526020016000205490506111a87f5922c35e5f73ae05092818b1f7b0c44797377194bd499f99f1c2077f3fd1c4c860001b610732565b6111d47f01453c7256085fd17022dcb356a648dea5d7efac07338cbc6f102984c8db7b9060001b610732565b808310611270576112077f72b36832788940f9320277c336a2d678e3216bcbc5484248c1fa638a545f320560001b610732565b6112337f6a5a7537a58b48123fe33961801bba4b8ad35b8798924133a54512807bc092ac60001b610732565b61125f7f47ead17c5e97a264787958b84a42f9ca9fa2b95b49cacbbd4c630f550edf4c8960001b610732565b61126b33856000613d8a565b611312565b61129c7fe0c6e1acbc0c93efa3cd3c5de89788c5297269cd45a95cc29c6449ca54e2f74760001b610732565b6112c87faa1fa72b76ce08b04c07f37c998e79f654b5e3ea11540321253e2d6311b6fc6d60001b610732565b6112f47f9579ff871a854be8860bea9ad6efbee0ee4398ccdcc001158a3934eaa2840f0a60001b610732565b611311338561130c868561449290919063ffffffff16565b613d8a565b5b61133e7f631ba605d0bd564ce016162d98849ae6fa17331b1a63fe65aa9f9f1d1aa9650a60001b610732565b61136a7fc529ad0aa0cf0174e531f67dda35d462565a02e95dc9e8ec950fe53458d2180860001b610732565b600191505092915050565b50565b7f000000000000000000000000000000000000000000000000000000000000000081565b60006113ca7f382873c8fcc382f0d728db834c0253683b060b98b38095c9ec22b0eb55ea9d1360001b610732565b6113f67f46809fa8f85043d4775d1937cae706044ebeccd6afb406b6884876e43d3b6aab60001b610732565b6114227f015c91f06107538327f54221a477c8cf22ce56a6baae0977d4d148884d91a4f360001b610732565b6000808373ffffffffffffffffffffffffffffffffffffffff1673ffffffffffffffffffffffffffffffffffffffff168152602001908152602001600020549050919050565b6060806114977fcec193a76b4c0c634ecbb5ed8351c9fa884cad77d0cdbe62f606153cba86b7f260001b61104e565b6114c37f518ecfa0455b301879fb07da5f6396d3c7bc852999d3352d96748c523cb15bb960001b61104e565b6114ef7f8e9b4b64e0fa7a7583e2a533c224a4313b31278b7c367191b7219b5f2424b76b60001b61104e565b61151b7f9ebd8abd2511f0e5a4089301c0a053be9d3827cb7931b8777e9e2866b0a68b5960001b61104e565b7f000000000000000000000000000000000000000000000000000000000000000073ffffffffffffffffffffffffffffffffffffffff163373ffffffffffffffffffffffffffffffffffffffff16146115a9576040517f08c379a00000000000000000000000000000000000000000000000000000000081526004016115a09061ea8c565b60405180910390fd5b6115d57f8746831b0e474dfae94e3caa5b2267edab80248845b096447909c7818a6e1ee360001b61104e565b6116017f91b8dae15808523efbe7a63dfed00482fbeca763f8429821b1787360194ace0b60001b61104e565b61162d7fa55ac766928a6c19a386cbae9456bc27f0216d1490bd62fd6a0774f9128389eb60001b61104e565b6116597f716b6e7c2013085dff7b0cf2d55529c3ea37832120dc81e284b2d599d6cff4a360001b61104e565b7f00000000000000000000000000000000000000000000000000000000000000008a146116bb576040517f08c379a00000000000000000000000000000000000000000000000000000000081526004016116b29061eaec565b60405180910390fd5b6116e77ffe824f83cd0ed72dc7f28ca5d803cbf22b7d5b91e94e2a373a929b7e6cae85a860001b61104e565b6117137fc08ca4b3386ae407bc6e9a663fe752b9cf46ad8490d7a215bc2a666420bb660560001b61104e565b61173f7fda3755275bdcf12a174cd4d0e22bb9a6d53ab02cd584e588553f66114ca869d660001b61104e565b60608484810190611750919061e374565b905061177e7fc1b560dc93d800dc4f8bcef034ffcec0022be473a251a180bf08b84aea6af3ae60001b61104e565b6117aa7ffcc566df26d336381c1e5a06561fdbc3310e492ef7518369f74a4fc2786b6f2760001b61104e565b6117d67f217d376e4757d4e1b39fe27bf883861e42d234428030138e5e35a6bee2954e7160001b61104e565b600288511480156117e8575060028151145b611827576040517f08c379a000000000000000000000000000000000000000000000000000000000815260040161181e9061eacc565b60405180910390fd5b6118537f7151b30e4dc492005238165df01c599de29a477c39faa41c50ede0de6e44ac0660001b61104e565b61187f7f09afe946035061e6511849bd42338b6a74dbb933be8b51ac6ce99dde8f9c1c8e60001b61104e565b6118ab7f28fb218239b6c48d0a4fb13822be5ae0bbfea430d7231f9164248a0286256c6460001b61104e565b6118b4886145e7565b6118e07f4608487886ef3f700d88761d7950ae4d3ccf3d0d71b7dfdd016b1c51a3d378b760001b61104e565b61190c7fe8e9d26dee4c1e02dc571fbcf9a3071c42475ac104590f2301f4d6e788110cc860001b61104e565b611915816145e7565b6119417fb0950bdcb5cecfbd279ea46c3bd1b6129b72472531dc42abafa472122eb786d960001b61104e565b61196d7f62a1bec913561e1164ebd6ebf79cea3bc3364948b93c6327fb1294a0078cf51260001b61104e565b6119997f06c7fa6a2616463ee8b8b3d05c656d522fa125ac1080485cd3d57294575dc08760001b61104e565b6000806119a58a6147f4565b915091506119d57f1a5f51aaa4c0093d62cf2b24ca9b9f89fb9f080afa0293520f1190327512128560001b61104e565b611a017fc6fdae8eb82d4c3eee17c341f588c3aeaaa170fb132919de936071a85667374460001b61104e565b600267ffffffffffffffff81118015611a1957600080fd5b50604051908082528060200260200182016040528015611a485781602001602082028036833780820191505090505b509350611a777fb5292962df3fc1e8460de006242a39f27436df6f7ededf3402c04867a87f75d460001b61104e565b611aa37fea69cce78cef40f3caa96062f533de26db79d0421d020708397d50d22419f40e60001b61104e565b611ab688836152da90919063ffffffff16565b847f000000000000000000000000000000000000000000000000000000000000000081518110611ae257fe5b602002602001018181525050611b1a7f90884f2dc001f679d7568451d7b2ab5c39e5c2fbaebc3514c505d8a24064694160001b61104e565b611b467f66c1a977c19f541538f477149939cd30fe2a600c828261525b2db3da01b51c9d60001b61104e565b611b5988826152da90919063ffffffff16565b847f000000000000000000000000000000000000000000000000000000000000000081518110611b8557fe5b6020026020010181815250505050611bbf7fd894c7824a492e07acb90cb07bf7ab44fcbe02f9f4906472f4b26e4e9869912c60001b61104e565b611beb7f5b7dcc9a1e9a5c2f44bb01f0cd406ea584e34857bb2c74bf14a5ab7a7e2f813c60001b61104e565b611c5d817f000000000000000000000000000000000000000000000000000000000000000081518110611c1a57fe5b6020026020010151827f000000000000000000000000000000000000000000000000000000000000000081518110611c4e57fe5b60200260200101518a8c615453565b9250611c8b7f30ceb79ce605fc1645d17b2963bf4454e790f4d3eaebc86a84c17f44b002499460001b61104e565b611cb77fae77830cb6901ac1abd9694bd4b71e34e9352bcfb19585416b44f079c4fab19860001b61104e565b611cc083615b6a565b611cec7ff976c91bd49236347d8a0a61e6a222cc72acf08fa44dfa80be7f50a01b9be26b60001b61104e565b611d187f3cd286eeaa79d85110598e7b22ee03d505780200384fa3fc8a4322337fe7b08660001b61104e565b611d2182615b6a565b611d4d7fb7c321228a6838d5034bce9cf029dfa374aa75060b43139945ebed66e576c04660001b61104e565b611d797f5e81b55a9d903a07a4c0c1a9d3be7538c23ad7440d05fcefd5492aa3870e0c0b60001b61104e565b509850989650505050505050565b6000611db57fd9ec6442650e5e9c7e29a8673683e921aebdcd7b9e9c4a37c31293053aedddfb60001b61104e565b611de17fb01668f08f7170081ebbaf9ef9120ff99a374de7a0c58eb1c7ca628a1169f3c460001b61104e565b611e0d7f24794a505f2d2067d799e45d1027617332a75189e20c3483447f24623988069260001b61104e565b6000611e17615d77565b9050611e457f09f54c492cb8f1e4a92295e93bf33415e75f129bf4cc1eac7519a72205de3fb060001b61104e565b611e717f9135af034094c7ec21f97f1efac86a3604b48ed9149fa8e6c6337eafc43cf4eb60001b61104e565b6000611e7d86836160e4565b9050611eab7f183674aadc8a128e537a2edf3bcc93acb86ad5edddd9ab564d551f7feaaf63e260001b61104e565b611ed77f11cabc25d30859343aa65ad720e966fffe6f8c535c69fef911a2ce6acf85a70e60001b61104e565b6000611ee386846160e4565b9050611f117fbaad1025efa4fe55b875058f6c10d5c75bbd106f5222a2978d805e362a893b6460001b61104e565b611f3d7f3363660f8c50ce3a7443fcecb49de3fb7d3f5c4c444eb4b0c3892a9dc8119f3d60001b61104e565b600085611f6557611f60611f5a8a8a61693d90919063ffffffff16565b856160e4565b611f72565b611f71898901856160e4565b5b9050611fa07f785a04e9e35bba0e509a9986b1ed0516dc924aeae8537bad8816cc3411432efc60001b61104e565b611fcc7f120613a19fd526c85d900c13c1c6fdd731a42523bb6f2407bdfd1316ac41ec8660001b61104e565b6000611fe38284860161693d90919063ffffffff16565b90506120117f432428755df227c938c0f2448df07efee4141d1407c7156e5c8d19ed6c1f1cee60001b61104e565b61203d7f919a65a5936ce7461f2f601cb42041970e33977553b551d5ce93e1ff86a37e7760001b61104e565b6120618161205c87670de0b6b3a7640000616a9290919063ffffffff16565b6160e4565b905061208f7f9fe6ce53f9099c3c417431e7b87d3e0a8c5e003bfd98e93e4138d3521b46eb9760001b61104e565b6120bb7f1398d0ceeb24b819b342d7ff3c09190d296c952b39e1568e5da10c90fd2b915a60001b61104e565b866120d8576120d3888261693d90919063ffffffff16565b6120ec565b6120eb818961693d90919063ffffffff16565b5b95505050505050949350505050565b60006121297f82244de36650365c37b1ea38d8ab1911dfba5dc66fd1822227b8536c60a153c560001b610732565b6121557f89e532722baeeeca9424921b54a4e64c5f5d97531b3e795b9b95707e8bfe3b9360001b610732565b6121817f9b9a62eceead51d5e1371b1d60e41966887c24d6bb4e0b425baf8e47d3144e2a60001b610732565b600560008373ffffffffffffffffffffffffffffffffffffffff1673ffffffffffffffffffffffffffffffffffffffff168152602001908152602001600020549050919050565b60006121f67fb48a40f7017c2026ad3a6fab8b71834987bbd991f5c2d39d9fefac41bcda9d9560001b61104e565b6122227f3f1cecad7408cf0e271fe7e243e663320dad4b394135dfbd54ffeaad4bedf9b760001b61104e565b61224e7f83bb32b4345eaa838db7a0ae93a82f823cdbecbf63edb3605e6de932a5bcfe1660001b61104e565b7f0000000000000000000000000000000000000000000000000000000000000000905090565b60606122a27f1b09bd64ab4c8210a35428f1ebcf545cbe7c19d4fed39554617e53111611734a60001b610732565b6122ce7f6a0372273e898356c46874c4805cc38713baf71f5da51f956f2c0caea21eacae60001b610732565b6122fa7fdc97ed429cb526ace9069d77526e830a568ebf7c714325c4b9a7f50c245d38be60001b610732565b60048054600181600116156101000203166002900480601f0160208091040260200160405190810160405280929190818152602001828054600181600116156101000203166002900480156123905780601f1061236557610100808354040283529160200191612390565b820191906000526020600020905b81548152906001019060200180831161237357829003601f168201915b5050505050905090565b60006123c87faa4e80805a3408b19004844e4af5adee2033745201d520bf20e58507a9236d1e60001b61104e565b6123f47ffba8c61a16ff8bb86d3ef6e06709c1d5839149eef32ef816552e2bf6b8d83b8e60001b61104e565b6124207fa7e32add8c6b8c10d09ee41fe5df67bd34f6d168541917d311a92ff889b038ba60001b61104e565b61244c7fc286bf2f82ce5dd717eb8c68b1c5c9fbc8acd791ba8d1eb8100d23cfe985326660001b61104e565b7f000000000000000000000000000000000000000000000000000000000000000073ffffffffffffffffffffffffffffffffffffffff163373ffffffffffffffffffffffffffffffffffffffff16146124da576040517f08c379a00000000000000000000000000000000000000000000000000000000081526004016124d19061ea8c565b60405180910390fd5b6125067f0be811710f801c5549eff61b2da2e47f0940edba4bb2e2abb6e751e2e354e34360001b61104e565b6125327f812f0c3835a6b65c7d6a59e2b52c11947d668d46f3f9ccad5c306698b715e1e860001b61104e565b61255e7f0c87bec8f9e9ce6a1ba747c7f80dc95b28c804ba4075ba7a25490496e0d425bf60001b61104e565b600061258c7fc47d59ad033f7477e579f895e12534b6debb2384be945ef71a78defc2f85941560001b61104e565b6125b87f23f7287050c41138757f1f41a756be2ccb09c24cacf5138e07e660b63affd84c60001b61104e565b60008060018111156125c657fe5b866000015160018111156125d657fe5b1490506126057f4c5b65b3aa311f57e94ea3b363b052e87ab889ba71d281cb1c33ab66808ab0b160001b61104e565b6126317fb2d38b5497e723c358de671302c246c26cd91a582d4711bc1f68dcd538f30e4060001b61104e565b80156126d4576126637f25175a553fde5de9225397491590964b455858daa8447f0af663714d3aa0324460001b61104e565b61268f7fdb15631cf4639e75a0c573d14f88cb7171b9e32f4dc0b6365ac4b90f0926585d60001b61104e565b6126bb7f72a216ba30be14f44aa94ae12b486ceab0c1a8a932987a2a7fdfd4ff8aa9a43e60001b61104e565b6126cd86606001518760200151616d8a565b915061276d565b6127007fa6b70a7f612cd1f367c94bbe97917d8233cb22a70d6b0169765faab24f67039560001b61104e565b61272c7ffbb280605136f679e2a5b4180f587082af0e2263083b9c9b71a655c6881cbc7c60001b61104e565b6127587ff3493f690e18b02f8a93dee2c3ed9b2a3ba9607c827ee30ce7cbdf66da14e33a60001b61104e565b61276a86606001518760400151616d8a565b91505b6127997f6cf531d8ae4e24b58ca7c9e49e7b9c363c42d77009fd34a8cf22ae62b8780cd360001b61104e565b6127c57f133e54510aaa6caca03b8bcaa526c7547f92e148f65fcb5975200d11fdecbbd660001b61104e565b6127d3858760200151616d8a565b94506128017fb8d4f2c8994796ea882f09e1b62affa979f4f698602575e41d94b8b41b8d012060001b61104e565b61282d7f37eeac6a46b168bec14cf17dc3d99e446965c2e62d4e46159728d52c67697f5a60001b61104e565b61283b848760400151616d8a565b93506128697f9c005f418ccec7523602834add6265e1feff61baafe93daf4ee38b4f28b5759b60001b61104e565b6128957f85a02d502e0ed7032035f2148553a4567d00a5d7d6963d7decccd0bd7e70483060001b61104e565b6000806128ac878960200151888b60400151617143565b915091506128dc7fd82fb519a491ac14ffb16b212f473989022774f9d10a053b7903000dda7145ba60001b61104e565b6129087fceb754ec24980659a11352e2e51a49c0bbd50d88dbcc36971de98225a1e94a4860001b61104e565b8215612a7f5761293a7fa0bdfe0112f5bd8fb161cf9be9fd231e299c67ca1c48d09a1987d04c789068a960001b61104e565b6129667f26ce11729e9ed401ffdaf6675dad213bec5a769fdac8cc9b63c62ddbc54aaa0460001b61104e565b6129927f29e706b7309814a9e9422d42ec3c888e1b64f8c3d31fec81696ba415c1c107cd60001b61104e565b60006129a085848487611d87565b90506129ce7fb71cc902a08ca78ad2aa78c979e0fabbae33f7d7ab849adfd7b29e4b70933f8d60001b61104e565b6129fa7fe0b9875bc50ecc1b05d724237a482fc634de0818d9872c1ce190d8661610198760001b61104e565b612a0b85828b604001516000617570565b9050612a397f90291e20c6da04ffaccc00ec61afb986a058c664b56bf0c3cebfc81b8f46cdc760001b61104e565b612a657ff47cd29821ff1d8b5ce3e2349181fee0d19b8e4653fa0a482a1614f9a033c5f660001b61104e565b612a73818a60400151617f78565b95505050505050612bec565b612aab7f4a32bc2fa4849a62528c4d06419442c5440d12b8409071eb7e6f34cf88d3b88460001b61104e565b612ad77f3121c632efe1ad368c795df37d3fae0078e995a2805c77a9d20b2bfe730f88d460001b61104e565b612b037fa806d9e7d26c9517bba1885e36819f59c7865c9fcd58a776c770b7a51552a2fe60001b61104e565b6000612b1185838587611d87565b9050612b3f7f8fe76e5d58363d3df1eda0654bc7ea68c6f0eade42f2cee8919953a68cfdd5dc60001b61104e565b612b6b7f3fce2f1a551de0c61ba1db9c2988f01628b2bf2dfaa724694d63d890c185fbd660001b61104e565b612b7c81868b604001516001617570565b9050612baa7f7a194858d3a97e238a06e14c79219212b7fc04e242e26bc2ff760181312e2b5060001b61104e565b612bd67fed3f429189ed2d4e1aa7242c9354a45d77d2a04207cb908bd3a6e80753c8642760001b61104e565b612be4818a60200151617f78565b955050505050505b9392505050565b6000612c217f6deb191175557e21e4d5b5048415d02d1ec203d2bd1340ad5ceab8c8bbe5637a60001b610732565b612c4d7fd80de844ca89d8d20c246318e9b8c31bf9962c8573820b07b2d59addbc0bd06260001b610732565b612c797f7303993c8221041674f06a2709b06c531d6c945aa2593134189fcc39ebabfcac60001b610732565b612c84338484613f64565b612cb07fe51d6f2d5a55f449e5620034e7576eaf2db66cf857562e9da7e8cb30115fd3df60001b610732565b612cdc7fda42cdc715c33e6f9d242db4cd8e8b9c0b2d64bf1b38ae911fb46754752d016760001b610732565b6001905092915050565b612d127f92d8088417b633aef9db9560d22473cbb0829dad88088113714e86b3045ee6d460001b610732565b612d3e7fe6d99ef77a15061b9388a4be137bce3ab9f89da5d47b6cc0381b37556fb366a560001b610732565b612d6a7fc9ec9b33c0a89aa9c06a0e246f7266b0b7f56e99dd89ff9fde5facf1df91f04960001b610732565b612d788442111560d1613f51565b612da47f0d5d3b7479f11a85af9f69520d511f16edad0d20279bc39c96adc2a9693e424b60001b610732565b612dd07f1837a5abb40ba9b89d45d3bfa614f5e0cef7c17ae0b08272496053cc719990de60001b610732565b6000600560008973ffffffffffffffffffffffffffffffffffffffff1673ffffffffffffffffffffffffffffffffffffffff168152602001908152602001600020549050612e407f71c573ac129a542e0ef7ef0f274613fa70efe280b19ce94bc4bb330b0ac321b860001b610732565b612e6c7f49e5eb4019850e3ac49c419ccfe5374994591f79430a262f0d42e4383deff1d560001b610732565b60007f0000000000000000000000000000000000000000000000000000000000000000898989858a604051602001612ea99695949392919061e93b565b604051602081830303815290604052805190602001209050612eed7fcaf67d9ef00cb0711a1a79c9266801d8b10566ad258627da9176df7ca508468860001b610732565b612f197f9e88cd1db5d0da84d0f42b5642e94676eaeb714dea06cdbb54a90fd2e501453560001b610732565b6000612f2482618331565b9050612f527ffbb8f77bb41a1d90f4c692267119eb52783b5c658a90b6b4be513a7b0c8b614a60001b610732565b612f7e7f37d2d51bb038651f842276de0361db8fd6b148f3738f07359c9ad4f6d416187d60001b610732565b600060018288888860405160008152602001604052604051612fa3949392919061e9ef565b6020604051602081039080840390855afa158015612fc5573d6000803e3d6000fd5b505050602060405103519050612ffd7fd1d138253e25432a8badf5378b017a1388c994f997eb395294878705d58b96e060001b610732565b6130297f84f8670eb58ab07f1e88c484c695c261c0e65808f8ba9e9b0c51d9ffdc84902a60001b610732565b61309c600073ffffffffffffffffffffffffffffffffffffffff168273ffffffffffffffffffffffffffffffffffffffff161415801561309457508b73ffffffffffffffffffffffffffffffffffffffff168273ffffffffffffffffffffffffffffffffffffffff16145b6101f8613f51565b6130c87f22d7de187d767badd08d0f56b9032ebaf3425b342596c16a4d6c074cf3f87aff60001b610732565b6130f47f177abef53e1d0dd58ac47c7df006757d5d6f236a0aa590407ec19064e1ab44ae60001b610732565b60018401600560008d73ffffffffffffffffffffffffffffffffffffffff1673ffffffffffffffffffffffffffffffffffffffff168152602001908152602001600020819055506131677f4cdd763c9803f8c2ced5b3f501b434276e7e1cbed3e20f3bf45228060143216e60001b610732565b6131937f0889d4543369d8b61a6a795ec77232055ddea529d88d80d8fbb5228a924dff2060001b610732565b61319e8b8b8b613d8a565b5050505050505050505050565b6060806131da7fbf84adbdd80e783f3f9f9f223e09c1aaa0fc850bb3a62655695cc1b7c38ea9c460001b61104e565b6132067fb76845da6b8f5868b938dd7d496e1ea82a0c93dd982accc47a25b4e71a78ed8f60001b61104e565b6132327f567a88601c163ad5197007ae7192fbd6c8da439f41e631cfe64a9b7b8dcdd72160001b61104e565b61325e7f1a482061214b5b433318c7ec7a68747d16913da41bed56c32586bd48e6ea2b8960001b61104e565b7f000000000000000000000000000000000000000000000000000000000000000073ffffffffffffffffffffffffffffffffffffffff163373ffffffffffffffffffffffffffffffffffffffff16146132ec576040517f08c379a00000000000000000000000000000000000000000000000000000000081526004016132e39061ea8c565b60405180910390fd5b6133187f5eb587a82b23d677ae4a66e9fa56a76535b26173215ebd83fa088a527b0f08bc60001b61104e565b6133447f3729e1c281314ad999b93a5086326d61a978707620a0bb5dbb022acb4fe594d560001b61104e565b6133707f0d1d132019c9a981d240fd2363faf2c32d5e511a812750e25d0c974b9bced67160001b61104e565b61339c7fc1cb3224bd40125bb7d3997ad3c082426022aa431397b58f2e1367a44b14fe7960001b61104e565b7f00000000000000000000000000000000000000000000000000000000000000008a146133fe576040517f08c379a00000000000000000000000000000000000000000000000000000000081526004016133f59061eaec565b60405180910390fd5b61342a7f76f7b97a5bb9d5be5611f967277fefe6f3a29d005c4f693ff1d81d6ec417f5b460001b61104e565b6134567fcbac80599d12ea7d35cbf645be613be302acb64134ce584855a232559b843f8a60001b61104e565b6134827ff60651cf9ef73705b6e3fd8553dbde6b438b22998c5b795b9242fc7722de6e2d60001b61104e565b60608484810190613493919061e374565b90506134c17f5b7c2d55abeedc70144d9a9aab93b9c634ac3464177c593eae8aa37ec7bf2bc460001b61104e565b6134ed7fce505be2130316687fc8cb400e82cdb41e819d5fe5a173492d6030b99e93a0ef60001b61104e565b6135197f7ee8fbe62851cb6827d3f3e2c3add374c19fc6e38d09b944762c678df286510060001b61104e565b6002885114801561352b575060028151145b61356a576040517f08c379a00000000000000000000000000000000000000000000000000000000081526004016135619061eacc565b60405180910390fd5b6135967f29e417fa4cf9966f41edcbc370867b392cfd64a5fcf7a41ea8188515fa76121360001b61104e565b6135c27f84c2eb33412f4e6b48cc5d96068a8fa2225f46b8873132b8aa86ff2f77bdd63a60001b61104e565b6135ee7f870502ac65cda96d459a999c9f15ddb491fdadad3bf39d47bbc293eba524e0bf60001b61104e565b6135f7886145e7565b6136237fda85b5f003c04aa8a4efec1e1bbb7315b53ae136b0e95844e126bd296fbea98c60001b61104e565b61364f7fbb72190e917837dfcfaa2a5aa9c241560059bc51c2e3d1bfadbb64aa940de54060001b61104e565b613658816145e7565b6136847fc5162bf92fd04ac2b071b163ed251c38340ebe4edd8faa44cafd9a5afc9991cd60001b61104e565b6136b07ffd6377c6ea06be6587ad72e6b2b4ed4a9bf795c353f4401577605a00a5f191cf60001b61104e565b6136dc7f7ea17b68737124d6dbd298ad7b1d8b1793c5d0209efe7e54e149196c91b9048d60001b61104e565b6000806136e88a6147f4565b915091506137187ffbf4b044cc93a00aded8a949da79a8d5bd1396a8d10e438ba2204ccd2b3c2cf760001b61104e565b6137447febfdba6c760c22591b68ccf37b825158486447e4d22ff908ffc74367d1b7f29b60001b61104e565b600267ffffffffffffffff8111801561375c57600080fd5b5060405190808252806020026020018201604052801561378b5781602001602082028036833780820191505090505b5093506137ba7f199cf6ea7b02cd287edbdf50a170b4d24546b8227668a342d044dee7b8ff8b9960001b61104e565b6137e67f86f788eca30603c26b9e5a241ba230d3a1f71919e6de2448d6d519e6c9edbf6d60001b61104e565b6137f988836152da90919063ffffffff16565b847f00000000000000000000000000000000000000000000000000000000000000008151811061382557fe5b60200260200101818152505061385d7fb9df4085b770c86de7f5acbaa7fc9fa68fcd811671107d4762a37a22b52f977960001b61104e565b6138897ff39cbabc2d580e375196387a3082f5085d7799c38eeed1ac153fa06cd6e24d5a60001b61104e565b61389c88826152da90919063ffffffff16565b847f0000000000000000000000000000000000000000000000000000000000000000815181106138c857fe5b60200260200101818152505050506139027f248eb1616d95f9f7f9f9ac07242c9456f10a4c64d9491acf58a98fece73e24c760001b61104e565b61392e7f77f34b6e7249de5f7955ebc9ad9328f403263130106c26962dfee1f6d6a8367760001b61104e565b6139a0817f00000000000000000000000000000000000000000000000000000000000000008151811061395d57fe5b6020026020010151827f00000000000000000000000000000000000000000000000000000000000000008151811061399157fe5b60200260200101518a8c6183ee565b92506139ce7f2da44e81de05de03e1d90f2b9384a8f2ca0ef2d399e159d4bdbd1c642bba36c960001b61104e565b6139fa7f09a7ed0194d4ffa5f487beb952aa83f72526db864d1a7e95d24dc710268bca2360001b61104e565b613a0383615b6a565b613a2f7fc541799467f941a04f593e10ec60687b89f3099ebb86df430a3e523c8df0e8a860001b61104e565b613a5b7f981f5c0eda2aee92abcae0e2df1ab5f9ab7b6083aa1bf14083906559be74810960001b61104e565b613a6482615b6a565b509850989650505050505050565b6000613aa07fa9b98a594d3b5c774b74cd6ed48cf8dff4f80392c6473684179cff7500e6444d60001b610732565b613acc7fd034439f5728cc6dbb46c15a010144ca40c85fb7a49179a37ddd6688258ce6d860001b610732565b613af87f1d2f27b8fa67c9b6dacc27947e01a8353fd11ced3843151e63c744482bcacdca60001b610732565b613b913384613b8c85600160003373ffffffffffffffffffffffffffffffffffffffff1673ffffffffffffffffffffffffffffffffffffffff16815260200190815260200160002060008973ffffffffffffffffffffffffffffffffffffffff1673ffffffffffffffffffffffffffffffffffffffff16815260200190815260200160002054618def90919063ffffffff16565b613d8a565b613bbd7fc624b982209d34d3063563b50888b38b0f028ae195fbfc8489f5a7881b9247f360001b610732565b613be97fff5d9bd3a30bd6cb8e1f7d6662787c729ac63a8de91f644f3e41ada4e2fc577460001b610732565b6001905092915050565b6000613c217fcde1da088e653348a27e3db5513a0b32042c7bddb19b9d92e981f2506dec065160001b610732565b613c4d7f0a42362e590384ffe636c3826e148b566dfbecfc831f0684dd9f6a23b8e65cd060001b610732565b613c797f09be738a1bf0b0516ed2f8bc0f08cbe34a749c8983227a44bbf2e5c671b575d760001b610732565b600160008473ffffffffffffffffffffffffffffffffffffffff1673ffffffffffffffffffffffffffffffffffffffff16815260200190815260200160002060008373ffffffffffffffffffffffffffffffffffffffff1673ffffffffffffffffffffffffffffffffffffffff16815260200190815260200160002054905092915050565b7f000000000000000000000000000000000000000000000000000000000000000081565b7f000000000000000000000000000000000000000000000000000000000000000081565b600660109054906101000a90046fffffffffffffffffffffffffffffffff1681565b600660009054906101000a90046fffffffffffffffffffffffffffffffff1681565b613db67f9a5b448a21cd2032fa5308aa257d4351306ac960be62691687d8894949250e0260001b610732565b613de27fb03e90560bcfc6e147e178f704890e0476a2bc183a28c6a21d4ed276077228e860001b610732565b613e0e7fa23e95d7dc0024c00091f5622f8bf7106ac1268477fb653af8c6c9fac644c9fc60001b610732565b80600160008573ffffffffffffffffffffffffffffffffffffffff1673ffffffffffffffffffffffffffffffffffffffff16815260200190815260200160002060008473ffffffffffffffffffffffffffffffffffffffff1673ffffffffffffffffffffffffffffffffffffffff16815260200190815260200160002081905550613ebb7fbf7482d78d5e209f32f7d094fd2c863fcba586e8713beafce89fe20750e8a3ad60001b610732565b613ee77fd9fd5feda47756822224f2afe37e079d8790fc04a9924ac7a21fcd251c76cba560001b610732565b8173ffffffffffffffffffffffffffffffffffffffff168373ffffffffffffffffffffffffffffffffffffffff167f8c5be1e5ebec7d5bd14f71427d1e84f3dd0314c0f7b2291e5b200ac8c7c3b92583604051613f44919061eb47565b60405180910390a3505050565b81613f6057613f5f81618f44565b5b5050565b613f907fd529164b19be6d95bcfbdaf40f429a8a1603f0c977f519cb9f870ecb8152a47e60001b610732565b613fbc7fe41ac344bcf11b9ded08259d4818278957f90a7734a706dd5f2b2325751c28cc60001b610732565b613fe87f25663d4831b921ab3e180db522e67b9d4c731778698c35c1b98bbbf3028d920960001b610732565b60008060008573ffffffffffffffffffffffffffffffffffffffff1673ffffffffffffffffffffffffffffffffffffffff1681526020019081526020016000205490506140577f5d78b30e392bc7f6e0e27e15c0002035f9b08125eefe5b8d1387072d4ed902b160001b610732565b6140837ffcfece9bb0f8c43acd0d28fa43d0e21f14661adf0416e1ab7863208b145203d460001b610732565b61409282821015610196613f51565b6140be7fa041584898bb01c1b6d96f86c51bb6651f3bdee1c82a9f7623e72a330b7e434460001b610732565b6140ea7fcb06c78a59ec59ff22e9c4ec6cd136da452099244a1d78be0fdac02c0f855b2f60001b610732565b614126600073ffffffffffffffffffffffffffffffffffffffff168473ffffffffffffffffffffffffffffffffffffffff161415610199613f51565b6141527f36e5b8353b45f2872d2100bf83f12822bb595a1548b60db4e3ee9da3dbdb3cf560001b610732565b61417e7fb9d2dcc68a6a40971012c756e4fc1700ef0f6a8dac7815c8883ffe1f27e1dc4660001b610732565b8181036000808673ffffffffffffffffffffffffffffffffffffffff1673ffffffffffffffffffffffffffffffffffffffff168152602001908152602001600020819055506141ef7faa23196d94220b56b86d670ed144291b9f1cb0700b33e857b4237881427abb7e60001b610732565b61421b7f92c148fdf087e986784f946c0b1a53cde22a376b74accdd6980a58bf7e478d5a60001b610732565b61426c826000808673ffffffffffffffffffffffffffffffffffffffff1673ffffffffffffffffffffffffffffffffffffffff16815260200190815260200160002054618def90919063ffffffff16565b6000808573ffffffffffffffffffffffffffffffffffffffff1673ffffffffffffffffffffffffffffffffffffffff168152602001908152602001600020819055506142da7fbde74482855c06aa81b686d4347ebfb8c5497ad562890e3cc31daa11d0b3e99360001b610732565b6143067f4049d7d86893edaf6070b20f62df68cc1472a6753938f5be6b67573deb5d33c560001b610732565b8273ffffffffffffffffffffffffffffffffffffffff168473ffffffffffffffffffffffffffffffffffffffff167fddf252ad1be2c89b69c2b068fc378daa952ba7f163c4a11628f55a4df523b3ef84604051614363919061eb47565b60405180910390a350505050565b600061439f7f0619b08396514f3014b4cd388f4277c5ee27d85e6ddf8c8e8741a4c70985e78660001b611375565b6143cb7fadf5ed2199ad87ddb5b50c063afe706a9746a5f97871ab751613d492674010ea60001b611375565b6143f77fdf8526b85b2735b3fbfc4736bf3d3dfa64ae072b5fd103fbe8a3f3cf1ebbbb3460001b611375565b7f00000000000000000000000000000000000000000000000000000000000000007f00000000000000000000000000000000000000000000000000000000000000007f0000000000000000000000000000000000000000000000000000000000000000614462618fb4565b3060405160200161447795949392919061e99c565b60405160208183030381529060405280519060200120905090565b60006144c07f4ad272e8ef896cf9749bbb33b720ec50902be1d6268b31d272f37eeffc01139760001b619040565b6144ec7ff5b8f6315ed04f6f880d15c913444893b354f451e1a7755f980256aa3a67eb1b60001b619040565b6145187fbdc5b111411beb8ab6b53375bbc8bf4e74258c8c8f4987a4928ce54801c48b0060001b619040565b614526838311156001613f51565b6145527f878d38a5a5b3291f5b62618821c286b1ce4d8ac1fde0f5c52c6f8b253e3c721860001b619040565b61457e7fdee8db45952fd0881a888ce099e6774ada46e04a8240c739354e8b594734d0b160001b619040565b600082840390506145b17fa883eec5840f8062e57d5a86c35fd0af17f6df22b4081b6a3676dd71088ac1e360001b619040565b6145dd7fc44e06103de1985a150207dd6e5102796da4ff917908533e00a2fd2e75a52f9460001b619040565b8091505092915050565b6146137fb047181431323254325a9c9e01678c45d8d90fed0de780294f70d57b9dcca6f460001b61104e565b61463f7fc6f406087d8495ef1de05289b1abd6564b58537a4dd0a02e15e628104c6c45d060001b61104e565b61466b7fd7062bfa56c356902d0819ef694cebab75cb707be1b05d15bf563e2adaf7f61660001b61104e565b6146ca817f00000000000000000000000000000000000000000000000000000000000000008151811061469a57fe5b60200260200101517f00000000000000000000000000000000000000000000000000000000000000006012619043565b817f0000000000000000000000000000000000000000000000000000000000000000815181106146f657fe5b60200260200101818152505061472e7f6444d0ebf6ab8fa5c4b176d98d698931ca5057aac8349488736203c061d010c660001b61104e565b61475a7ffacd8de0dbb3272e633418d54c3b982fbeaf080f6483390877749d7ccf68672c60001b61104e565b6147b9817f00000000000000000000000000000000000000000000000000000000000000008151811061478957fe5b60200260200101517f00000000000000000000000000000000000000000000000000000000000000006012619043565b817f0000000000000000000000000000000000000000000000000000000000000000815181106147e557fe5b60200260200101818152505050565b6000806148237ff4994c1ef5dd6be780b31e409fab9cd06cbf921469a7e997746c3db2af3dcde360001b61104e565b61484f7fc22f568ad2f01636494144f31f9aa43d501686cee36064967030a40f721a2e7b60001b61104e565b61487b7f476aba605b2b78983f9aedef21da0ba5ef70a0db4045a805dcf367fe4a00f86d60001b61104e565b6000600660009054906101000a90046fffffffffffffffffffffffffffffffff166fffffffffffffffffffffffffffffffff1690506148dc7f79c2ea51dc265051b30bfb33b865743c301a4960975062d9f57bbe11a495e38c60001b61104e565b6149087f7a920f80b12c227b350c65e3452fce05fe5a333a290995c149516e2ec48331b960001b61104e565b6000600660109054906101000a90046fffffffffffffffffffffffffffffffff166fffffffffffffffffffffffffffffffff1690506149697f9bfdcb8d8f4bdeddea9e08b5e7748d8ee7f4304fbe337e95615c608c740896eb60001b61104e565b6149957f1e254e336724cf94f39e46aa70d271c0aadf46231826361b0f76647b13da540860001b61104e565b60007f00000000000000000000000000000000000000000000000000000000000000001415614bb8576149ea7fe0d76ae2303e630552a2fefc0d03874de6c4e4cca18efd8538633ea9678e9e1360001b61104e565b614a167f60cbe18dd94fbc7ff51d1e797cf13499dfd2be7863076b4c31282bae84fc4caf60001b61104e565b614a427fd213fcb73434927b0c8fca5007d754173cfd8f4d9b03c750fee7bfce586d52b860001b61104e565b60008060066000600660108491906101000a8154816fffffffffffffffffffffffffffffffff02191690836fffffffffffffffffffffffffffffffff1602179055508391906101000a8154816fffffffffffffffffffffffffffffffff02191690836fffffffffffffffffffffffffffffffff1602179055505050614ae97fa99758f196f0cbcd2d689e80a1bf9f40d3448c519bbe63e1426a1eb100f3d08b60001b61104e565b614b157f886fe18490ce401ce2606ef4bf86d9a93e1d7a7377ce4c8ae7550ef7c751c99960001b61104e565b7f9f878c349b0fc751f12168fdf539db8c1848b81c0751432f28626da5aa7024ee8282600080604051614b4b949392919061eb62565b60405180910390a1614b7f7fbd11f1be7d516b4fe2c60ced7a77c51f7ea4dbb4d981d45fc82fe9fde17ebded60001b61104e565b614bab7f99fa975864111c0213d3d6a7f489ba57f6d9de3f36b300b29d4d5d9486a1f88360001b61104e565b81819350935050506152d5565b614be47fc42d7325b2ad6813ce059bda1fed666e46ff7a89cb660ca916b91820f0f5ef0960001b61104e565b614c107f9416f4cd2fd167ca555d80ec5edefd04ff548eaf2a5654167929f6227fbe091d60001b61104e565b614c3c7fc64eedeefd3e7d1f244f5386c0226e5a5d01b5a6305715997e1a48d285e7759b60001b61104e565b6000614c717f0000000000000000000000000000000000000000000000000000000000000000846152da90919063ffffffff16565b9050614c9f7f05bbd4f68b42240bd2ae94f920f59550c0e30d22d7d596b6fcff206bc3e5f41160001b61104e565b614ccb7fefde5cc34bb64905910f1bcd6686ff452db2cf2d70c13d3d85adb3258db6fc1460001b61104e565b6000614d007f0000000000000000000000000000000000000000000000000000000000000000846152da90919063ffffffff16565b9050614d2e7ff67b73872898a1d9130ea76b2bc02afb6363e67a006a4f37d343ad27d7b3de8460001b61104e565b614d5a7f17324d2cb3fb509ac5e43050ed5b8bc3da9853079b7a4617aedea9e770f7823860001b61104e565b6060614d8883838a7f00000000000000000000000000000000000000000000000000000000000000006183ee565b9050614db67f48907d3a576dcf336963acf3ce5528aeb8b701aaf44bb187a275b81d292d52a560001b61104e565b614de27f6b09bcc52d2bc929aa85dd2d17617acde5163f326b8dd479428524909d3d94b560001b61104e565b6000614e4a7f0000000000000000000000000000000000000000000000000000000000000000837f000000000000000000000000000000000000000000000000000000000000000081518110614e3457fe5b6020026020010151616a9290919063ffffffff16565b9050614e787fdb7b671dfe9e04bee7049abc544cf4f1e5ab5215b4ef5ec6bcf36a887c72ce5960001b61104e565b614ea47fb17ddabcb4616c75e33ffb312a1f762d84c01e8bc7b02b9c8acd8f6caf139a4b60001b61104e565b6000614f0c7f0000000000000000000000000000000000000000000000000000000000000000847f000000000000000000000000000000000000000000000000000000000000000081518110614ef657fe5b6020026020010151616a9290919063ffffffff16565b9050614f3a7faedd144054672da38ee546ce6ad999a93e5fefb7f9be15ae680805a53325fdfd60001b61104e565b614f667f55905c776d6baf38ec9652f87b7ac3c6e93d7614aba27892cce41c9114b4acfb60001b61104e565b6000614fe07f0000000000000000000000000000000000000000000000000000000000000000614fd2867f000000000000000000000000000000000000000000000000000000000000000081518110614fbb57fe5b60200260200101518961693d90919063ffffffff16565b616a9290919063ffffffff16565b905061500e7f1aed46c79a02e5eeca15d19a1d97c834fb79d3ec40c64211c3ecd469d34595a060001b61104e565b61503a7ffdd9995199df206dfdb91ce2afebfb98d28fb6ee76ae1bba151ce2735662b52860001b61104e565b60006150b47f00000000000000000000000000000000000000000000000000000000000000006150a6877f00000000000000000000000000000000000000000000000000000000000000008151811061508f57fe5b60200260200101518961693d90919063ffffffff16565b616a9290919063ffffffff16565b90506150e27fa2460c682b33d1a22712dcd846fc614c97012bd36d9279e9d20dca1b24f7359b60001b61104e565b61510e7f1a0b83d4ef52982e3e5ffd6220a152cd65cb809064d931c5e7adfb01c2fea77060001b61104e565b7f9f878c349b0fc751f12168fdf539db8c1848b81c0751432f28626da5aa7024ee84848484604051615143949392919061eba7565b60405180910390a16151777f2a915592a1c7c8a0cd0acf07b87c11abf5862b3fd10c5672f30e92432cda613260001b61104e565b6151a37fe87f6560a004938a0db3b4462f926b459e7c50703f9627f1cddf3b590ca5b1da60001b61104e565b81600660006101000a8154816fffffffffffffffffffffffffffffffff02191690836fffffffffffffffffffffffffffffffff1602179055506152087f1a725a4ec6abf7198feda52528f37b18a983e1bc8a1081f1bc7b2571cc30014660001b61104e565b6152347ff0439810445886439ee896f295b114db7097e6f29c33f19019808e4cb437d1e460001b61104e565b80600660106101000a8154816fffffffffffffffffffffffffffffffff02191690836fffffffffffffffffffffffffffffffff1602179055506152997f8964673377990a83ba6e5f733ad1e19aff8ccfe82584bd909cf12f6e7c8e5c6860001b61104e565b6152c57fb2aef8ed0447849be59c8c75936a4eb3627c35d4c83620cd4a53170c8f4fc52160001b61104e565b83839a509a505050505050505050505b915091565b60006153087fed5730d97338cc99ec7ced602749e69fad452b233ce5af1bbc10319879372caa60001b619300565b6153347f8f6916668b49b644d98f771f124b5a32bd9897d7ebe53b3c38ade6a71e84085760001b619300565b6153607fe14f128dd52a43628a9bba7b0a6f33bfc1a4220802b917ba737266f9dcbfa49c60001b619300565b600082840290506153937f46dbb44b8cf04ee6e61d614d79ce70c1a85cc911b0197fa4ddce642a38fa5fc460001b619300565b6153bf7feefba6c3b698f9572b5bf37de3ea9769c52c377600e5b34f929c993e75aa62d460001b619300565b6153e060008514806153d95750838583816153d657fe5b04145b6003613f51565b61540c7f38f54c5617f008a16f1f038a9a8bdf61cc1319b326250c056a5f9064eacdca5460001b619300565b6154387f7a48fe0d9a13c1bc8e2332965b60872b1e28e7883785e9895a3ba40dfcccd1c360001b619300565b670de0b6b3a7640000818161544957fe5b0491505092915050565b60606154817ff6bbf71dff928bb9b4af0f93696987d0365b46d14bdd7b6413b915eb0464973c60001b61104e565b6154ad7f6674944209bf5b561bac76bac70c26d2daffdb7b18d07502961d0d7cb869a60560001b61104e565b6154d97f592130d4830de090234ce701463ecea32b4b95110a9b45669fbb8a2801836c3360001b61104e565b600267ffffffffffffffff811180156154f157600080fd5b506040519080825280602002602001820160405280156155205781602001602082028036833780820191505090505b50905061554f7f590a3a92b5123b2f68213614f8b21a5bc09ecbd97545296bdc4d46021a64fbfc60001b61104e565b61557b7f6fe0aae0a4cca462e5beb9341abd4952d74d3abec5a9e3162595b3ca02bd62ef60001b61104e565b60008061558785619303565b915091506155b77f77242e54f5b4f5db5c8f952679ce6f28f75babd6ddd6851e3a8d49606d06dc3760001b61104e565b6155e37f9ffc8e62319c8d592458d4b747b6e7db7416d051329a589f2bbbcbea85c35d8f60001b61104e565b60006155ed61094d565b905061561b7f886b3ffe6c96118fe0fe4669bbc577e97b13580705057c5ee4cd32c64d72c49660001b61104e565b6156477f4197733b29f009cc370a7387bea1254be06fa95a828670d1a1c1779d3ce26e0560001b61104e565b600061565c8385616a9290919063ffffffff16565b905061568a7feea43d82f874c45f427902937da7a060bebea38b89eed63cdef2ea1021cf4b9f60001b61104e565b6156b67f683a47aac3771f92fba9412cd15c6d01b8b89b0359e6098ba63ac322d38bff8960001b61104e565b6156c981896152da90919063ffffffff16565b891115615919576156fc7ff915e9f7b3f173fa6049b394e3fd908c6a093d5dbe83930d6126f9c468f5aad560001b61104e565b6157287f47c82895f28f8e6c1108362a34a511c9d3650289cb721ebcef5d98f46a80abc860001b61104e565b6157547f395a2b41463b9bc55e92de3464436583594d7ace5a27f6737d8d872edd12782660001b61104e565b600061577b8561576d858d6152da90919063ffffffff16565b616a9290919063ffffffff16565b90506157a97f55528f8c9a8f489debc4bba4dd7b215ca34769f5993dc8faf4fcd7063531048060001b61104e565b6157d57fb5f4b115bfb318b757f05b91062523067d1c830e34af0d99f338150a6711208860001b61104e565b6157df87826193fb565b61580b7f91608179b64176064fbaafed754716fcdd6eadc03f0762ec34a46faf6a0d29af60001b61104e565b6158377fadefc34139e641920329dc9e76978da52ec599d0f0afbe9a9fb75da0a745541c60001b61104e565b89867f00000000000000000000000000000000000000000000000000000000000000008151811061586457fe5b60200260200101818152505061589c7f35a25ac034f245d2f4efd7f50c9447e6a75d04c9f299e5d1517ab1532d8adbd460001b61104e565b6158c87f99610874a0754695b72477dccc0786b9205066f2cbd909b0b95fadf8aec4f66060001b61104e565b6158db828b616a9290919063ffffffff16565b867f00000000000000000000000000000000000000000000000000000000000000008151811061590757fe5b60200260200101818152505050615b5e565b6159457fbe9450dea32492e870da234b064bd986580047afdc8cdc5436334263ee0c7c1760001b61104e565b6159717f3412ff05751004fd616d35ed211d41b0a196be86b1f54cbd0d44e080a021b26c60001b61104e565b61599d7f69c927e3a3c751a5ecea61ed7953b11d325b226eba0e868a66dd254147c4b62760001b61104e565b60006159c4846159b6858c6152da90919063ffffffff16565b616a9290919063ffffffff16565b90506159f27f304ce2188f81271dc3c04517b651e746e3ec780ca5f52556dac28de0e08b961d60001b61104e565b615a1e7fc8fcc0c592436f2fd90c940e857e962faefb6512b8fad6feb3a0b05245fffcc360001b61104e565b615a2887826193fb565b615a547f313687ad8f3d97dfbb1a2766f38fd5e24f932fd3bb7229b96c30aced130f136b60001b61104e565b615a807fde50bdee63b39e121f435f5fcd67d2af3f3f00eb1e833d39a96db55936ac1c7a60001b61104e565b615a93828a6152da90919063ffffffff16565b867f000000000000000000000000000000000000000000000000000000000000000081518110615abf57fe5b602002602001018181525050615af77fc81498c4f9a2e1f352fae46b7077f5833d571564544c4ba62bda48230f62c98e60001b61104e565b615b237fb8c09d28990a484d206b9e367c9e1eac0a136409fcad396c2765240a4422c86a60001b61104e565b88867f000000000000000000000000000000000000000000000000000000000000000081518110615b5057fe5b602002602001018181525050505b50505050949350505050565b615b967f8c09825202e42b44373c0590c943da244684d53931d9ce721ecfb648d57afad960001b61104e565b615bc27fb06c2cc2deb43a7f92c4208eef0f7cc31c5da7220968cce552367e92684ba49c60001b61104e565b615bee7f156679cfb2a0fd67fb476031f208ccccf45414ed26a0a151d80468c3fce6fde860001b61104e565b615c4d817f000000000000000000000000000000000000000000000000000000000000000081518110615c1d57fe5b602002602001015160127f0000000000000000000000000000000000000000000000000000000000000000619043565b817f000000000000000000000000000000000000000000000000000000000000000081518110615c7957fe5b602002602001018181525050615cb17f76c4ca0c747d3c710576748357ba69af38fab70f879f1a56ec9344837d36569c60001b61104e565b615cdd7f805f3e0432510f75520cc4c39b5149143c20f1da7ef78845b7947248014f9e2e60001b61104e565b615d3c817f000000000000000000000000000000000000000000000000000000000000000081518110615d0c57fe5b602002602001015160127f0000000000000000000000000000000000000000000000000000000000000000619043565b817f000000000000000000000000000000000000000000000000000000000000000081518110615d6857fe5b60200260200101818152505050565b6000615da57fde2dcaf3227857cacc5f75dd9e5653a32f5b31e7ca9b11c634b3305cb36cc23960001b61104e565b615dd17f3e8d52666cd9d4e0a3c0b94fe5edfd2cfc4f57600e05a63144912eb374823a1860001b61104e565b615dfd7f454e1d9aa1fe54ad65cdf970ba22c2d8007d5a05b7f925b18197e403ea49202f60001b61104e565b60007f00000000000000000000000000000000000000000000000000000000000000004210615e2d576000615e51565b427f0000000000000000000000000000000000000000000000000000000000000000035b9050615e7f7f79bf2e1d30711ec26016faee36a97feabbcb0b1781b1881f732987819ff479b260001b61104e565b615eab7fe355895c8d03e4573b31c8697c8f9be3e98ae495cae5e888df876261c54c2efd60001b61104e565b670de0b6b3a764000081029050615ee47fc452c46a935a6e9bdd471aff8492e2a124a023daf52ec21c653b7943c1b0fbf860001b61104e565b615f107f3da0f067fc50821c3a210cdb9ed36c1e24c66c3a085336dcd410e2405f19f5eb60001b61104e565b615f4d670de0b6b3a76400007f00000000000000000000000000000000000000000000000000000000000000000282616a9290919063ffffffff16565b9050615f7b7fc2c934f79e6a3d48b6b1eb1446315c6faaf5cc7f05f4c3c98b256a9e4eb78f3c60001b61104e565b615fa77f7e05f057f82524ce5281aa8df9eccbf53cab58caccd41e2365d38b2fbb81553760001b61104e565b6000615fc482670de0b6b3a764000061693d90919063ffffffff16565b9050615ff27fc96c1041d99104d72fed57b0f7bc05248187689afdfe824506705b9e34f1748760001b61104e565b61601e7f0662f56fda4a9796378c7160748883a9e5d389b7250cce29603100e03c5b867b60001b61104e565b61604a7fac384cf145f24535eabae2e03982065aac7582515c06000a5520d117e3575ca260001b61104e565b600081141561605857600080fd5b6160847f2e129d2787f5fc61d0f86f92883c108996d6e80f974adb34f5a11dbeeb82598360001b61104e565b6160b07f5420c7c27386d3b866903155cd58e32853c26a34306efc0a6536aae9b55ae96760001b61104e565b6160dc7f760bef04a51fdb5f389e0f4f9661df6e2ea3c5645248dff61719f41e03dd465f60001b61104e565b809250505090565b60006161127fb4c60d495595d7051d8098367e0de1231ee7e80c066e7cf13cffda8b2df55af460001b6196fb565b61613e7ff917484f913307b5657d4ab3ec7eeadd398ce3e0dc0b8a44c7e18f33908b4d8a60001b6196fb565b61616a7fd9993763574719ccb3d52803699ba2b0c07ae80a8386a1a49f0e3206a06e597560001b6196fb565b60008214156162075761619f7fee5b6ef8f709ca23d29f28bbbded429a1f46e1b071dd22dcdb36f0169023ce2b60001b6196fb565b6161cb7f2f38ea7e23d14ced68f2c8d26c1a06353fe28a5477d2e90639655786f70aade060001b6196fb565b6161f77fff2a31b9f5f4df515e93cf41490341323353d178b9ded18b88942e772f534c9160001b6196fb565b670de0b6b3a76400009050616937565b6162337f3f9d98aeaf2b384358eb814c674452bf993b71bcde381ab99c62c1e1b7c9cc7560001b6196fb565b61625f7f285385695c1469df8d40544367a3887392a9a19f337755911ff2e833fa25f0d760001b6196fb565b61628b7f8362e6b8144905802616b73f08a4e909eff98018428a360951a787610869496c60001b6196fb565b6000831415616321576162c07f538a78b1a226602ac0c28f23d0a001812cb9266b7a8200275d63a8103c29943960001b6196fb565b6162ec7ffc2303ed0447e12f646e5e93c96414156a534c77dca9832e8f173b501fc7079b60001b6196fb565b6163187f5cdb5f3c19c4fe78c6e0ec9aff7f265f1c49b4418e388de53160770c7ee4fea560001b6196fb565b60009050616937565b61634d7f402f08c3700a9ba79e37ef8ae3f17460b205cb9aa20cae1ac99e6fd6900f0b2760001b6196fb565b6163797f67d21360845b5cb81fd0da81726ef6df96862325ed5681d05dd7834a4866b92060001b6196fb565b6163a57fd020e8b002604fdc6b25646d7a5467d0fbe85a3ffb626730ed3700bc3067892960001b6196fb565b6163d27f800000000000000000000000000000000000000000000000000000000000000084106006613f51565b6163fe7f19210e46be6a7a70189454c42052cb399c3738b24219c6df22248489d62d52af60001b6196fb565b61642a7f373d3f9c4e2094eb1aaa97274f961defb62bbe3c79a9e8bae367d092f610845060001b6196fb565b600083905061645b7f745ee1f4dfa91a709ce3c8b8e1f67a866dd27f48aacf05d631a83c8dce558cfe60001b6196fb565b6164877fce71d52d68fa278561a2037459d48b7e826e0d5551892a19430d5de1b0e91c0860001b6196fb565b6164c668056bc75e2d631000007f4000000000000000000000000000000000000000000000000000000000000000816164bc57fe5b0484106007613f51565b6164f27f11dc92b50edc857f208acce2630b0c81321a8d850c1a983158880a4ef51a062d60001b6196fb565b61651e7f5f106d65f79b95c3498165b29378c228730e8107c79497c7a7ad3aaf12c6971160001b6196fb565b600083905061654f7f6100c7790d38a4f53962a1e9bc064f419c5d1932be74925c1a7781aa5f73483c60001b6196fb565b61657b7fbf4971f0797695daefdfd0f9aa4478e79ee2d13f1764241f7ce4ac5db5d7cb3f60001b6196fb565b60006165a97f0c43470e96bf36e53365b61f93bb0896edbe246670a260b1fba7be7f0a1dbec060001b6196fb565b6165d57fd0e38dd54bd0736bb1e741b21b513d786ecef408bb5f9c813c64115912d9b6a660001b6196fb565b8267016345785d8a0000670de0b6b3a764000003128015616607575067016345785d8a0000670de0b6b3a76400000183125b15616737576166387f6e40d061606b0c46da816399be7fe0691cb2204c3c6147bad3d540b1a45e349760001b6196fb565b6166647fe0aa81b287cb2dfa1c80efceb64ca93aafac727174949af816d6a823f906a84c60001b6196fb565b6166907f99ecefd114f208cc8ee60459df9c72115af94abdf496f5bd5d533e11f795e55f60001b6196fb565b600061669b846196fe565b90506166c97f574930d9b5e6e25c2f06b9f74f2c2589779af7b00d042a6a0f5d0e315e9da52360001b6196fb565b6166f57f5174c41d1295ec451a05f7c41b635ecd2659214a71144e4a8bd7b062bf19a4f560001b6196fb565b670de0b6b3a764000083670de0b6b3a7640000838161671057fe5b07028161671957fe5b0583670de0b6b3a7640000838161672c57fe5b0502019150506167c9565b6167637f6bf9892d0971979a63f6208a420e6f24ac858c86369268e25c26871b4db4f0d160001b6196fb565b61678f7f1bbdb1dc34afe49b3d15b1db75fa7497ac29590b4f800b5b96a07a46479553e160001b6196fb565b6167bb7f6b7db22b1943d81c0d8484154752d09e11866a862933253cb3effb91596c857560001b6196fb565b816167c584619fb7565b0290505b6167f57ff5307d01450754d11b6999a6f15f6940605ea263d8d1a4d2677c5d4cd16b9e8860001b6196fb565b6168217f5da3025494ecf25168477a05baf7b9878a21c4c8e96c18e3b6d1ddba3b4d260560001b6196fb565b670de0b6b3a7640000818161683257fe5b0590506168617f57cc0c34b883c0764df0f16c3418c3160b70e73ff7ed2363638c77cc780edd3860001b6196fb565b61688d7fa7e92dc2b3da2e2407ab43ecd25882ebcffa5fbdcd60123e73d98f20cc63c09260001b6196fb565b6168d0817ffffffffffffffffffffffffffffffffffffffffffffffffdc702bd3a30fc0000131580156168c9575068070c1cc73b00c800008213155b6008613f51565b6168fc7f1fc08f08b4ee48ce0f7ad30806166097c215655d6e1cd60c08bd784612d9b01260001b6196fb565b6169287f4bb8f0ccf8323c048a3352be5af0559be12691807755568ad9369d233b27b0d060001b6196fb565b6169318161bcc5565b93505050505b92915050565b600061696b7f98fee658fb98ee3a3f7d31c9b144bae0694670e2d2c9740be272b5cfea0092c360001b619300565b6169977f293f09d7307734d72ef4603c3433eb00449e5e883678fdc8895b9ad14da4388760001b619300565b6169c37f9ea24ae37f0db9d37904a7342a2b686a492cf5195c6dc2b3a033aa704f81844560001b619300565b6169d1838311156001613f51565b6169fd7fe5e0f286e14e3939ab23ad606f1392eab58a6aa878cfdfda24b238e5aaec25c060001b619300565b616a297f37759278f4a59534be934e0e6521d3364d9957c6491e795f56bed364064e433360001b619300565b60008284039050616a5c7fad28cb0f8fb12a20cffd3ed3e3e4311fbd593c9af7fcd49febf0e43a31f27eb060001b619300565b616a887f73877f4e66f2878c1974f071e9743c95266cbad904e3148b9557f6ca9019d15260001b619300565b8091505092915050565b6000616ac07fd681117b54f8c42dd9b9b724675b90500142f91e0c692c88cd29f6a4ac20d90260001b619300565b616aec7f166d54a6dcc2da1700c278643acbbe8ec7be0a002e0be3664514a05bff76410660001b619300565b616b187fbe546f1bb4a2252f3c69d522122f5305aead99456e33c2514e382512cbd275ad60001b619300565b616b2760008314156004613f51565b616b537f66baa7ca3e26778872311ae2b37bf38dfa377789cb684f64abda0507ede6155760001b619300565b616b7f7f9bbcc745d05068633f50f2da4aa7785c4882dcfa9bcf9c1c303a65580176ef3f60001b619300565b6000831415616c1557616bb47fc3eab5df153e3b105e157cfa055bfa8e0845e90270ff3255e7446c30deb579d360001b619300565b616be07fdbc3d990e3f3bab6fa2a0d2d047661dde07c4ef25a24501839feae50185866ff60001b619300565b616c0c7f4dfe5096d5d7b39d55b09ffb0f574f2071999b6d3e264f41d19472f6f6dff6a460001b619300565b60009050616d84565b616c417fb6dfe2886846608d4ab290feca7c5ec6ae2852dfbc3707d276ab66657c42cd0160001b619300565b616c6d7fbd6d291981cc28a3445540f278cec30943e7da252b1f546a4206e2297370b83860001b619300565b616c997ff68e1a1503b4afdf9fbf5a22748d3463567f3562a99e1fe0c70f16aa0941e7ae60001b619300565b6000670de0b6b3a764000084029050616cd47fa9252a08ad1a46a72a3ef9d1afb829941f22d18012268e7192e1b3ffb5eba14960001b619300565b616d007fcb9cc8cc61006212eb8ed6f13e3a563d524b873c3a01f66af4887945460f4c1460001b619300565b616d1e670de0b6b3a7640000858381616d1557fe5b04146005613f51565b616d4a7f2f1f45017adad415bec4ac763f6f16672ad5b44eeea98c3ac69d9a7e7ffe543c60001b619300565b616d767f512b328f221d3319110052907ee75993170f783e77190fc89cfaa6bdfa4cb69260001b619300565b828181616d7f57fe5b049150505b92915050565b6000616db87feb96a8c7f6be0b9d316b718893edfeff47c79ead6183cf05e3608abbfe0b849660001b61104e565b616de47f7a61999c4cc3c0e76680b8b28c164be0264ded90d66a28292b66ac6775db116d60001b61104e565b616e107f6a0ebf4c679cfd8a33cecb221c626393639bd3446e3a2b2cc40233ebaef298f360001b61104e565b7f000000000000000000000000000000000000000000000000000000000000000073ffffffffffffffffffffffffffffffffffffffff168273ffffffffffffffffffffffffffffffffffffffff161415616f1b57616e907fe4757c88899e69e80072105fb3d789cd1c293fa33c325a6ee04b9cb13c0b991360001b61104e565b616ebc7f51f1c3eafe04a49ebcaa99a6c4867a68f310a314360e17794360d740fc81f6c760001b61104e565b616ee87f5a3a0952fdf28c3278d3cce974af58fc750347eac8a3543acc86d7a705bc267460001b61104e565b616f14837f00000000000000000000000000000000000000000000000000000000000000006012619043565b905061713d565b616f477f3f383847cbb6bb8d8f9695f13206f012d8971aaa12f499241145920b7507820d60001b61104e565b616f737f5bb27b3292b76973f84b2666af62b616c9d99fdef4e16865c80e8d83c63d015360001b61104e565b7f000000000000000000000000000000000000000000000000000000000000000073ffffffffffffffffffffffffffffffffffffffff168273ffffffffffffffffffffffffffffffffffffffff16141561707e57616ff37f656a40e8e517f5e541427d2de53a03567a162a11eec1303ce10308aa92284b2660001b61104e565b61701f7fd3ec7af3280663e720c02aa235954e3817235c03a608b2172f17b6b2f18e3ddf60001b61104e565b61704b7f70dce5e4cc58b6870fc4121f1c94c302e9e10333b2800ff0b72353aa0c13124960001b61104e565b617077837f00000000000000000000000000000000000000000000000000000000000000006012619043565b905061713d565b6170aa7f43c7607211c22a6cee61158d7524dafb21715e2eccdeaa3d64698eca6e9762b760001b61104e565b6170d67f9330b5487ccc34d5fa661f27af5ef2a12b5116d6e8983b5a0f0388b8dbaf076b60001b61104e565b6171027f864211180fe9c221d8c024c5bc8240a54e8db525cb8c3ada082c62e0555ffdca60001b61104e565b6040517f08c379a00000000000000000000000000000000000000000000000000000000081526004016171349061eb0c565b60405180910390fd5b92915050565b6000806171727f7b692c32421849698c9eb9d1fc74632a65e0b6603dab93d1f5a389bf99e27eb860001b61104e565b61719e7f5e614174a7f9d85515fd48de4e36e22b66431d37d331df5e8d18d99a23f4877360001b61104e565b6171ca7f542268a567eb376d2193b9600a5454bf807d4e7a68a807ebe6342c7463851b7a60001b61104e565b7f000000000000000000000000000000000000000000000000000000000000000073ffffffffffffffffffffffffffffffffffffffff168573ffffffffffffffffffffffffffffffffffffffff1614801561727057507f000000000000000000000000000000000000000000000000000000000000000073ffffffffffffffffffffffffffffffffffffffff168373ffffffffffffffffffffffffffffffffffffffff16145b1561730d576172a17f0b7cdf1853b1e4059accb52ae65b81c6614947b3dc470e135fdcfc3f40b8762960001b61104e565b6172cd7fab8a2aca6e7a2518bc2620fd0523b35dd70a058c29faccbefb2715a060205bdb60001b61104e565b6172f97f1fb3118d0bf0c5c8f2bc67ce5cc7465a097084056d263d2f69e76f2de4137dd560001b61104e565b8561730261094d565b850191509150617567565b6173397f2f3d41e48ade74e43146dbeada7e10f7e4329055cdbf01223d27562c91f9dd2e60001b61104e565b6173657f1ece0d96096407e1923662c4dd7175d89895cdc977f94309150f05a381618f1960001b61104e565b7f000000000000000000000000000000000000000000000000000000000000000073ffffffffffffffffffffffffffffffffffffffff168573ffffffffffffffffffffffffffffffffffffffff1614801561740b57507f000000000000000000000000000000000000000000000000000000000000000073ffffffffffffffffffffffffffffffffffffffff168373ffffffffffffffffffffffffffffffffffffffff16145b156174a85761743c7f3a7e1c9087ba84a39bd8dda627e96a5f4321311a3523c560daba269942cc7ce460001b61104e565b6174687f1b28725892b8adeea590a21e457f8a5022d5b855291b5664bd1f01bd98abe75b60001b61104e565b6174947f5ca88f12a5bacc813eed39aa9ae51a60a9734c1a0b0b587c3e4d2d0c23e5949260001b61104e565b61749c61094d565b86018491509150617567565b6174d47ffadc3cc1f21614257dd5fa94a879db01a823f2f545b252a88ab0ab0293096f9b60001b61104e565b6175007fdc257a491b4b87c3dd7282d74eb174e7828a6abeea43a60f61ffca93be0cd68160001b61104e565b61752c7ff56fb841a2dd154306a61f5206638b15e9c60540db2a7d5b59d34d888ffb211560001b61104e565b6040517f08c379a000000000000000000000000000000000000000000000000000000000815260040161755e9061eaac565b60405180910390fd5b94509492505050565b600061759e7f2762b78430d0c5de4a4bdf4973d2dfd41c12c007861657e9e8413389cefa849860001b61104e565b6175ca7fae62b8cb08906ecadec5465dadeaefa2779058f5c19fd01da4b1ed0a3b10564460001b61104e565b6175f67f6f15ea2821aad9add320caab6a1ff8d96f1c5f1974816367c49ed8ade5b7118860001b61104e565b8115617ab8576176287fd57a11c1018da4534efda02ab55bc6e7a0b1cc3c1619b071128ecd80ed9cb3f460001b61104e565b6176547f1ecc89d165eb255bf71dd360a72dc72f0180894a012fd4c5c7f2f934cc851aa960001b61104e565b6176807f8382e6b82650ccdce52adc742ae7d0f6b8c3221283eea2b8d9e1b31f0861c71360001b61104e565b7f000000000000000000000000000000000000000000000000000000000000000073ffffffffffffffffffffffffffffffffffffffff168373ffffffffffffffffffffffffffffffffffffffff1614156178c6576177007fa5abce7f51bdc031347160b0d8218e9dab8eeea98db3788ab367b3bf6874fedf60001b61104e565b61772c7fc02a710fe4761f967d5116511fcf2e18018e0d5a346383f60610d71f5682041160001b61104e565b6177587f4ba216d92d0d7bcdf18d7146dbdf2c72eb1500bf1d1f1c4d0ee046830a59ab7560001b61104e565b600061779f617770878761693d90919063ffffffff16565b7f00000000000000000000000000000000000000000000000000000000000000006152da90919063ffffffff16565b90506177cd7f615e5ae9572de9712e8f40cdb062a19ed64efa374d24691aee98e6ec8a62f1b660001b61104e565b6177f97fe02cd4b4b2d6df700397d782579fc7a170c357d7c979bdd9a2d0c32044d9f5e360001b61104e565b80600660008282829054906101000a90046fffffffffffffffffffffffffffffffff160192506101000a8154816fffffffffffffffffffffffffffffffff02191690836fffffffffffffffffffffffffffffffff16021790555061787f7f341a09f5a1dc655bddfdb233b772ae84d6c6e17015f9a8a3f9618561face289260001b61104e565b6178ab7f93e16e253eefce92bc938d46774f29dff17a240ab97f5409bc2e37564e68489c60001b61104e565b6178be818761db9d90919063ffffffff16565b915050617f70565b6178f27f3128e4cf5455751dbbeaa30ea4963d2e97a418ad9ebcc7b457fedd0cf18bd75a60001b61104e565b61791e7f483b0108c5b1c1ba94c26e7e32a6c8fd72991557756d3466904ccf439f0c7f8f60001b61104e565b61794a7ffd4e7d472778ead5c3488aa18dc685f8cc579c86a6f9db6fb18c4fb397d8ee2160001b61104e565b6000617991617962868861693d90919063ffffffff16565b7f00000000000000000000000000000000000000000000000000000000000000006152da90919063ffffffff16565b90506179bf7f7ecaf63db9f5ac422555e2444655a7aa0c392d048eb0ec38ec54a3e4c053ecdc60001b61104e565b6179eb7fa0ebf981768feaba5fbd6bd0ae24ebede7575cd7f1b446ab9bb32e1d0163b4ba60001b61104e565b80600660108282829054906101000a90046fffffffffffffffffffffffffffffffff160192506101000a8154816fffffffffffffffffffffffffffffffff02191690836fffffffffffffffffffffffffffffffff160217905550617a717ff9ffe630140bc77d45d55429fe7372b1c4025d889edd4fdf5ab19950a95f7e8460001b61104e565b617a9d7fb06a919891b09d0bbfa81023a4fe08cc49a8406a32100771267bf5e7a26c126160001b61104e565b617ab0818761db9d90919063ffffffff16565b915050617f70565b617ae47f3f86ac31cc4ee68748018fc3ea7ee8de03e60caac9f5155f6d3324d10bd78ebf60001b61104e565b617b107f9f3bec1081bfa628e66aa02ec3d3c625f83bd46a9a82d84ea5d2adbd4480567160001b61104e565b617b3c7fb4d0308be56ea83b7628b8287471315ff2c4bd1a1c34b32f417663e2a043781360001b61104e565b7f000000000000000000000000000000000000000000000000000000000000000073ffffffffffffffffffffffffffffffffffffffff168373ffffffffffffffffffffffffffffffffffffffff161415617d8257617bbc7f6684faffeaf85d0e389611d1e041924914fb48b1fcfe488527cec63eb62a953060001b61104e565b617be87f3766a90ec68574df4a03fdf8a6e13195d9222316d27c431b299fd554f033d31560001b61104e565b617c147ffb0061e6bb80d3871d0eb8bdc6e96adb1ce1b40870994ae28c6bdde32870911f60001b61104e565b6000617c5b617c2c878761693d90919063ffffffff16565b7f00000000000000000000000000000000000000000000000000000000000000006152da90919063ffffffff16565b9050617c897f3cf1efaab8a372ee39e75154dd1e61e54239fe4dfe56916a3c588515c8f4ca0b60001b61104e565b617cb57f1f1de5fb205b0e1ba08fd62d2a005103e4b5b55f54e95ce0eb2ce77c28c6f49760001b61104e565b80600660108282829054906101000a90046fffffffffffffffffffffffffffffffff160192506101000a8154816fffffffffffffffffffffffffffffffff02191690836fffffffffffffffffffffffffffffffff160217905550617d3b7fdf4332c7960bd1f0ce852e11f9789b2633446624d2b896784aa32649790a9bd160001b61104e565b617d677fe65dd46a52d6da31bd5cd54b9c9f277c9d084dce434dbfc085968345216937a060001b61104e565b617d7a818661693d90919063ffffffff16565b915050617f70565b617dae7fc489a66f8c1acb31bd307649002e0e22312a25bf59c6773b5cf61c8d0f51f28460001b61104e565b617dda7f3d175cbd696a4c4d06023bfa36e01f5d48ec281eb1bc9471108304e89a65b4d260001b61104e565b617e067f20bb2ae442bbe87c62f2aa35d2f651d94f4c6a03fc4e8f0fa2385322d8291b6d60001b61104e565b6000617e4d617e1e868861693d90919063ffffffff16565b7f00000000000000000000000000000000000000000000000000000000000000006152da90919063ffffffff16565b9050617e7b7fdd29e1a1fb45b659a63d3317c6c0f9d5311b6457221747f00a018f4860eceb8f60001b61104e565b617ea77f65d82b6e8c96ddc9cd32ad61068ac68b91387d999747abb0b33c07cc2de3f0bf60001b61104e565b80600660008282829054906101000a90046fffffffffffffffffffffffffffffffff160192506101000a8154816fffffffffffffffffffffffffffffffff02191690836fffffffffffffffffffffffffffffffff160217905550617f2d7f0153386879eaf578cbf89fce82e2977344ecfa8d15088c2408a83af7f7b36a8660001b61104e565b617f597f5da5c3718bacf8f16f02afbc992ca59ff0cd7e89b0dba3028347c58ee9d2e79960001b61104e565b617f6c818661693d90919063ffffffff16565b9150505b949350505050565b6000617fa67f4850d3cfa3719de536085a12c2ce0ce68ef4c513e07bdc860db265e614725a7560001b61104e565b617fd27f16203bbbe5f7daec21459b1b5481afd81a183a341d930459a004bb2f67b3226d60001b61104e565b617ffe7f6a446a7f6b15f2e87a5f6c07702f7bd169bc9673f1b5a786dd9c68c9f6a3ab8860001b61104e565b7f000000000000000000000000000000000000000000000000000000000000000073ffffffffffffffffffffffffffffffffffffffff168273ffffffffffffffffffffffffffffffffffffffff1614156181095761807e7fde4277d16b163ef4ea77529ed2b4353733820a1c48424d9c4445fce99eeeb61a60001b61104e565b6180aa7f4f6429be0743ddef354911d3b8f6cf2e1ac32261cb62208c674c36b8bab4741e60001b61104e565b6180d67fd3c0778f987f2d20a5c49a4fdeee9880f5b26881c94e008cbb872dd1f9dc728e60001b61104e565b6181028360127f0000000000000000000000000000000000000000000000000000000000000000619043565b905061832b565b6181357fc9f45038817a39a17bdc881b30caeb887cce828eedc590a36bddbb1e842e703e60001b61104e565b6181617f6297642be15a1a43106da68ef3d1653f66b21e6204bbf272634b618213a9063260001b61104e565b7f000000000000000000000000000000000000000000000000000000000000000073ffffffffffffffffffffffffffffffffffffffff168273ffffffffffffffffffffffffffffffffffffffff16141561826c576181e17f42bea15aead4f87e530ed457c65c97f71e267a837c0d8bed980b05f167ef3be960001b61104e565b61820d7f57d47c923f7770e787ad8b80f2beb7a98c67752ad076c7b6386f71c600b18a9160001b61104e565b6182397f1fff28a9e5c66aeac578e8bdab96632f81c21eda811293707e4b098aec8e6ca560001b61104e565b6182658360127f0000000000000000000000000000000000000000000000000000000000000000619043565b905061832b565b6182987fc26e47da6f1fec6904f72423f7db54a994ceb14904161d1d58328698fd98f4db60001b61104e565b6182c47f4aa5ccaede61d27844279ef89caade876312959c7e1cc84e7c72c13af0dbf68360001b61104e565b6182f07f1a4803e0716f8aa18e1291b8b3bc8572701beafe8f49fcbdf426e895381f931860001b61104e565b6040517f08c379a00000000000000000000000000000000000000000000000000000000081526004016183229061eb0c565b60405180910390fd5b92915050565b600061835f7f2c54610e3fe0a98df3c423e90950973fc94146f557b01b6bee8cca13a6032b4a60001b611375565b61838b7fbc254dfd0c8280fa8535e89d4bc4cc331f18b5ac8558d459ad7b42c1e1c9d89c60001b611375565b6183b77f2ceb1de44021a984c31888fffa7404fe74791ca186de59ed6c94965c86a06b2260001b611375565b6183bf614371565b826040516020016183d192919061e87c565b604051602081830303815290604052805190602001209050919050565b606061841c7fe30f1754e8f6e2dadfceb5fdf581e7470f7a6712960e8a7fa6125a2c92697e7460001b61104e565b6184487f8b34da74982e1af8d07a7be37f308fb1efe97563a38f49adc408737ee82435c360001b61104e565b6184747fd2dc01e8d47f9582a581b7ebc803f300970dec41fc7c8a604e9364732e07dc8b60001b61104e565b600267ffffffffffffffff8111801561848c57600080fd5b506040519080825280602002602001820160405280156184bb5781602001602082028036833780820191505090505b5090506184ea7fb79d54762c807d96bc83b3f930e2c2b7beb020b5e76a4f7d1f5c8aceecd09c4b60001b61104e565b6185167f8eed57c561d14b9ae1bd6f6f4aab92de14af10e41b3fd2be103c6804562bbcf660001b61104e565b60008061852285619303565b915091506185527f50e2b828455b4b8592acd5808878eb4a6a9f2aafaa782f79438d06e0b716f13160001b61104e565b61857e7f4964c77458a34d23b0d6a684ea5834173f909dfd2be068f630e417299bb7e17160001b61104e565b600061858861094d565b90506185b67f5c33cb3f81f249b9fea1c7ae5dd5f80710b187f8e2905315e70d816f7bdca9e860001b61104e565b6185e27fe3768c8c8d72ef37cbebb82d0dbc6c4601e0d86b518fd50fc248ddaeb4b7888160001b61104e565b60008114156187fc576186177f6303f25c86b1d64c64bdce8548cf938ee4742fcdeb0921c7363dcd56f2c37fa960001b61104e565b6186437f0c0b968d12d8b232ced3d4d76b81fa2edd53dbd745594b73137d4669836effc260001b61104e565b61866f7fceb12b0c087f101ee626f9d7b7613528da4e3c8883003f0aecb27163919d43cc60001b61104e565b618679858961dcf2565b6186a57fcdf7a1c55ce56944f68849f218686986eb9ac9650df28b8ce69dfc975627a39360001b61104e565b6186d17fb0e3f81f01e61e29c379fe3416efed1712bab1656fd4d5b31eaa631473ff317160001b61104e565b87847f0000000000000000000000000000000000000000000000000000000000000000815181106186fe57fe5b6020026020010181815250506187367ff9221a1ee1563ceab92c7eef77537405d4043740fbff0ba40df03d3d28a634de60001b61104e565b6187627ff2122257edf7488714d3c40f2ac38e7192febc29179bd8a38aa87781a61eb74f60001b61104e565b6000847f00000000000000000000000000000000000000000000000000000000000000008151811061879057fe5b6020026020010181815250506187c87f980cc8b3697682a1c00e59b78b8d613e2dbf8089d053736755b5d894e00d7c7360001b61104e565b6187f47f6dd3e2bc9e8e6c2430b2c2ec19b31f6682cdf38523ef7fdc22635a4aaae426fb60001b61104e565b505050618de7565b6188287fa1e5d0143fca56047197e23c0dab35f3a046047fe7664a8ea289c72cd984713f60001b61104e565b6188547f68056e13c0b94f14eec9f9a199eddc95f3108e3d26c2ef52d40349edbcf7ab3860001b61104e565b6188807f5e36ec040a462cf56d84c14ae5149751387d80265ac16f96b1b0b5f8bdfc844660001b61104e565b60006188958385616a9290919063ffffffff16565b90506188c37f57f370ce44c8e76441365d03fac67cd37e15f0ca125b9dff8c782e9eb2a54a4f60001b61104e565b6188ef7f6519006c484a8ee41aa2fdeda0d529b0c41ddf84e4b9964a5061d55f253eb8b160001b61104e565b600061890489836152da90919063ffffffff16565b90506189327ffc5eee7e44a3bd32760a3b3f683aa89fab56792c0e428d866e0826b54ca6979560001b61104e565b61895e7f43aa5842cfff27c2030f999acf05bb34c5610e3180540f612846d49fec47efed60001b61104e565b89811115618baf576189927f9359c4c890f76be4e3381ab221fd0ee8a530e0050113749f46f85066d30ba7bf60001b61104e565b6189be7f46d34d9a3b817dd2aa0643922147333a1337f5869e02303882b6512a73734c7f60001b61104e565b6189ea7f16c76ccc7759d1916a070a66b183f092630739d6a0419cc8155ceda75b6f095d60001b61104e565b6000618a1186618a03868e6152da90919063ffffffff16565b616a9290919063ffffffff16565b9050618a3f7ff75008ccaa5b31f5fb88228642ef384c6890bebf9e6d5a08b6e78bee3f561f4960001b61104e565b618a6b7f3db00ffff6d6bc4229c148d1bdee64b67cbc561d4fdab612b614d874323510d660001b61104e565b618a75888261dcf2565b618aa17f1283784d7645920814a917d7802dc79feb38e9ae804c91abc785f59e9e91271860001b61104e565b618acd7f1fdbc04765f2c5889df0cdcc57478e7bdf8e142a88f94be94ca6cb2ce213398b60001b61104e565b8a877f000000000000000000000000000000000000000000000000000000000000000081518110618afa57fe5b602002602001018181525050618b327fabf649f6ec988d09092e068c448a739d727a9946da4adad13a6877a3b7ddfa8b60001b61104e565b618b5e7fe2ec0074e0fdc9261561170431e06ff1cec8f9ed1d4722542c09a34326760a8060001b61104e565b618b71838c616a9290919063ffffffff16565b877f000000000000000000000000000000000000000000000000000000000000000081518110618b9d57fe5b60200260200101818152505050618de1565b618bdb7f0234b100035add051f1b8fc5dd747d67523f49539be2fab0b9d663709c34d1be60001b61104e565b618c077fab456d447aa9d68b59b71fc8ac6f41f97dabd7e57349ef947c5e9311b30db59f60001b61104e565b618c337f9e7cfa3a8254a74a189a04e775ba92701dfa3d55914db9b1f8d510314b5e0fb360001b61104e565b6000618c5a86618c4c86856152da90919063ffffffff16565b616a9290919063ffffffff16565b9050618c887f32e06cfbdf25406c586d4452c53db4df16b302a7d97c8a5599550340b36b6f3a60001b61104e565b618cb47ff2f0cdecf0ba6a84d58bc5be1014948b2017bf5705cbecd8258c19ddcb25421960001b61104e565b618cbe888261dcf2565b618cea7f82ea24f45d45c02deb3b41d9fbfaa0d0b799f5857d81d80cd64f8d89cbb8f8df60001b61104e565b618d167f6fdb00db21991209a4dfb7e280728ba2658b0895a0dff7d2372dd5e7266c9c1f60001b61104e565b81877f000000000000000000000000000000000000000000000000000000000000000081518110618d4357fe5b602002602001018181525050618d7a7e5f8bd1b60e5fbb176b78caca190cf83e36c6b25f3dac4bade314a1d1eb47ed60001b61104e565b618da67ffc003f4a07e441ac09df3c185816a9f283c1852bf9703814e60b87012dc74d8c60001b61104e565b89877f000000000000000000000000000000000000000000000000000000000000000081518110618dd357fe5b602002602001018181525050505b50505050505b949350505050565b6000618e1d7fe9ab1930f8b2a33e186614bdc5275e5aef3bc5199db452be16b906fe891a7aef60001b619040565b618e497f672db28399f3b33e0df219cd59d4073e056f97e6f18dcebfa00f27c463d9fd7360001b619040565b618e757f0ab1a15c584dc550564822e51c90b6556d02439b72ef95c55813a7f4f670280f60001b619040565b60008284019050618ea87f4912ca1f746b67b87e92127e424ef610602ecd8455c415eca24e0e1efae1b65e60001b619040565b618ed47f66114683dd19cf7947e3b2b818c6c55b57501af6e821e1cdb4f2f80d63a7276460001b619040565b618ee2848210156000613f51565b618f0e7fb783f36a61aa5e73f22951df3681c2eb20b8fba57492aa9e4764edbd3684340b60001b619040565b618f3a7fe7b48b6ed0eb47f18bb58555642ad250e08b266847ceeeb5fe538202fc79104360001b619040565b8091505092915050565b6030600a820601600a820491506030600a830601600a830492506030600a8406018060101b8260081b8401016642414c230000000160c81b7f08c379a000000000000000000000000000000000000000000000000000000000600052602060045260076024528060445260646000fd5b6000618fe27f80fca6b64f7b0789847f8be52c02b4e1f759789d6b7cbe957f89feefde4fe88a60001b611375565b61900e7fc446b9f164092d39ac2524a6d2e73d0ccb1abd271deaf1757b7310ed4335dbdd60001b611375565b61903a7f22f429aedbaa0bb811444c55a4871d76ff331b3f6f543b5d11608339df4e388d60001b611375565b46905090565b50565b60006190717f2d1ef8f29af5a48114e5a12e9f6869f12c321239d867b16de162375e0b4d4f7960001b61104e565b61909d7f716dbf45c9b9f2e7bf2fa754244696a4c6b94416e4c51eef1dc5773c9e88806d60001b61104e565b6190c97fa25bc191a88a949244266a3642253de58af2200e5f74860bf539635ca627bc0860001b61104e565b8160ff168360ff161115619174576191037f7d18e34ab2bed59d4138536c925b7f0108f0065f34f6f8d1381c5a06a9a2911060001b61104e565b61912f7f59eee0a5e6edbb1c2a05c408352ad42597ce20068c33ecd511a00c43663283e460001b61104e565b61915b7f38e3985a278433aa333b911b1da0444841b4974abddc426e86620a62a8dfd40a60001b61104e565b81830360ff16600a0a848161916c57fe5b04935061929e565b6191a07fb20d8f92b751a158ad8bd0bd38b569878967f5fc9ae403d8f18808702748740f60001b61104e565b6191cc7f237a7f7ee3a0b1ed47b2be427b34bf541b9fed49eb5fc8147a20b201b8a55d2f60001b61104e565b8160ff168360ff161015619270576192067f59ead1ec1df4604edb107ea2940aa8d477e1beac2dcdee759fc25cedec33032a60001b61104e565b6192327fa1449ed072a39c0b45e4d0371601352835ec09d555b782cf774ce9ba097883c360001b61104e565b61925e7f9f93b6e0f4099f19b02ae5d779a9d2d276d6673d5971bae3e5f779c60962f6ae60001b61104e565b82820360ff16600a0a8402935061929d565b61929c7fffc417901612a7688b6d2cb7d83c8e70f6ea1482b9b80bd26f0941c66e5e5ada60001b61104e565b5b5b6192ca7fbf94f05e3c67d188c656885d76c43ce8bab2796576890994473fa8f2256b064f60001b61104e565b6192f67f2f032be0de54b512c7096b7026ac4031295256e5449fe6de5d790f4e4232619460001b61104e565b8390509392505050565b50565b6000806193327f899641e25159fd94377f8e077c36cc654fd45a674a6c83e3c6719c994795ad7460001b61104e565b61935e7fa466fb3c55976dc2d76677731c8bc76bfcd61c49cd82d2c5f8d3edd1f103f75260001b61104e565b61938a7f495d66b3e2e4be15b49dbbaf07b08e10086a8bf82b79011139d3b1baf082d3b360001b61104e565b827f0000000000000000000000000000000000000000000000000000000000000000815181106193b657fe5b6020026020010151837f0000000000000000000000000000000000000000000000000000000000000000815181106193ea57fe5b602002602001015191509150915091565b6194277fe7895fc4b60ecaa846487cfdf88501d7a3d845f6dcfde25b51e9ebe103d4dd1660001b610732565b6194537f6119845ea51ef8873311c7cc5f6e9451228545977e83bd2fca034fcbf60592ee60001b610732565b61947f7f1aacca6942d21795f8977f383904c3e6981588c0b3000f634c2e960582504b4060001b610732565b60008060008473ffffffffffffffffffffffffffffffffffffffff1673ffffffffffffffffffffffffffffffffffffffff1681526020019081526020016000205490506194ee7f8243cc9f1f57f1b96a49950cfe1dacbddf5929258edb0bee2ddb37a22281a90760001b610732565b61951a7fbd44c0256d8aadfcef4efd3627db538d37219689c5361397870819146f70a42260001b610732565b61952982821015610196613f51565b6195557f8aa5942c2fc262cf7a401a7f3ecf060f53a4004fe1d78beae0b1fdbd6d1d6eeb60001b610732565b6195807ed6bace290ad6caf9ffec452c1670cff35dbca2b0a306ff96cccdce2e951f2f60001b610732565b8181036000808573ffffffffffffffffffffffffffffffffffffffff1673ffffffffffffffffffffffffffffffffffffffff168152602001908152602001600020819055506195f17fc52ce0972fcec86a98fe5814b728415679023175cd455db318311de66b92f34260001b610732565b61961d7f05f8756a33b7123b4c227b842001d63ca97694d4bc95d0cf7cb6a8f99983400e60001b610732565b6196328260025461449290919063ffffffff16565b6002819055506196647faeb97f7f13a09e19770aea6bea39e3ee9aeb9772a1c8bc1b87847f12bb6fbe8460001b610732565b6196907f97d6ddec1a18888f9c7db4b95e3500d5fda1b79361bd668528ea1b5efc56b39c60001b610732565b600073ffffffffffffffffffffffffffffffffffffffff168373ffffffffffffffffffffffffffffffffffffffff167fddf252ad1be2c89b69c2b068fc378daa952ba7f163c4a11628f55a4df523b3ef846040516196ee919061eb47565b60405180910390a3505050565b50565b600061972c7fafad475bb9484dc1fd4e5b0ade9ae77d8d3f4374a1d7ed3cb8ed01d66064779d60001b6196fb565b6197587f031e05fee9e49ea9b35db640634f62d5ae8d789a9b00ceeef3e71de967e2d5e060001b6196fb565b6197847f23e17eef26db05186da272b7053ac848f6af2a19ac06f64cf23a971483327e3e60001b6196fb565b670de0b6b3a7640000820291506197bd7f5752269231d7207870d49a120ac51391a46ee6cca6f7fc08bde989b0d1ab986460001b6196fb565b6197e97f31bb4605982d03d671f012c1710f6e3d3550f931186583070c565e112fa2f0b960001b6196fb565b60006ec097ce7bc90715b34b9f100000000083016ec097ce7bc90715b34b9f1000000000808503028161981857fe5b0590506198477f833201f825ec9dbe3ea77cd20a272f47911676af570f953e1b63a6cdb627d40360001b6196fb565b6198737f32cfb75f0ff917d3887301975ad099f8e8cb9605c21447b1e4e06bc5cbf69f6e60001b6196fb565b60006ec097ce7bc90715b34b9f10000000008283028161988f57fe5b0590506198be7f5262ad7374e69c862038705c852dbcd9a375ac7b77b81626dd85ef3bc777c8ba60001b6196fb565b6198ea7f814b893dec74f384cdc4ffe2e91849bfe5373d8e965b0e5516a5bda52889559f60001b6196fb565b600082905061991b7f0578431d2704ffe9ad7fb07b78c670e53e0c4c85f46f554a12e4af69ffd8a60c60001b6196fb565b6199477f5b497994a9114fb09ab4490f0482e2cd57ba6252595357738c52b4dbcf610da160001b6196fb565b60008190506199787f6e5b5cf3104a14c38940ba6bc5d534ecc8ffd4749f486b65ecd81f623c2f3ee760001b6196fb565b6199a47fd2bc5c26d500ac606abc5b229aae0a994ce547e4b0cb499fe22410fb0626721460001b6196fb565b6ec097ce7bc90715b34b9f1000000000838302816199be57fe5b0591506199ed7f6b1d205a6375704a28ed95217bd697c1775c8c59b8a3f065720259fe133fa0ee60001b6196fb565b619a197fb76b7ee84c379bd0981bbbcd218400913abe0a3bae29d77284ee9a0cd47ee34260001b6196fb565b60038281619a2357fe5b0581019050619a547fd17a6e196dc831a8c5818adf6e5de25ffe1bb186b988d0e5a93791c040bbc5ce60001b6196fb565b619a807f87dec2e16a0f0b4a99197fd8862a1e58da443b65a9358cac988fd9986c513e4d60001b6196fb565b6ec097ce7bc90715b34b9f100000000083830281619a9a57fe5b059150619ac97f497c66fd18cddd1edbdd663cf65697d926bf4b6b202abb5caf58c8e4f051e33260001b6196fb565b619af57fda27ba2d015ea8075dbb2b6926438b22f84133b8f0bf78513b1edf4a258e9f3760001b6196fb565b60058281619aff57fe5b0581019050619b307fe2fb1b5df927df9440cfd455d46a4204c48d3ad6ff3228dd000db2cad7f5cc0660001b6196fb565b619b5c7fe8af9739626a66be09fc26dc9203eb0d8cd6cf8a7dba0887a39e991cf5b78faf60001b6196fb565b6ec097ce7bc90715b34b9f100000000083830281619b7657fe5b059150619ba57f1d2478f6bc640e0988b0185bf45bc2446e7569d05ef50b75bd9fd46b2cc3bffe60001b6196fb565b619bd17f190f9c9a243682a8039638cae963f3e8d3e21e066e69fc24076dbe78a6c2d04660001b6196fb565b60078281619bdb57fe5b0581019050619c0c7fe3ef508b3c980059a2ac866f30a69cd5d5caaf518d012f26b857bd26916822cc60001b6196fb565b619c387ffc98cd02c211181ab2a38e03eda7c39f50c9ee3fd49bde86a518fb132461897860001b6196fb565b6ec097ce7bc90715b34b9f100000000083830281619c5257fe5b059150619c817ff4b4d260d3dbe9bf6de0f129a91683f88b9d44e25798db05de253ea3779fa60d60001b6196fb565b619cad7fd3236a68c5b379154ac60efeb89e514db4db2f76c23a6994a980dc2601fc318060001b6196fb565b60098281619cb757fe5b0581019050619ce87fd204e544020feada4b05a8d1ccdbf5c4c33aa2654f76977adfdc750d9dc5a3a160001b6196fb565b619d147f8064ddd04bdc1de318dc25362c5e30e08af518128db829fa1adc14430e30b53060001b6196fb565b6ec097ce7bc90715b34b9f100000000083830281619d2e57fe5b059150619d5d7f301445f58664fa4fbac2352a1521f719ea4787b63a1582747831d848dae7313560001b6196fb565b619d897ff41fb0d5d5d8201d1d56087eeb570cb7697800fc787e15a53624b92f1c44c9d160001b6196fb565b600b8281619d9357fe5b0581019050619dc47ffff9bb0c690db875f9c0a83eb2bd74b233801209615f71003868a848005fde6360001b6196fb565b619df07f9f355ac08862d8d248da9930374240c93301690cc2df63147fffeaf4f9525dd760001b6196fb565b6ec097ce7bc90715b34b9f100000000083830281619e0a57fe5b059150619e397f2224481d9e6c9bc867452e63cb0ac2c3b90f6cee6a27b5ba18097d30d4a3062b60001b6196fb565b619e657f9af27505bb36cabaf6f21414ace7ccbd2f404fd0034ccea77c9c5242972ecab560001b6196fb565b600d8281619e6f57fe5b0581019050619ea07f5ba30ad8663a3844cb7eeecf5bca0665b8b344aaf43495a9e6bac8f6a94cbb9460001b6196fb565b619ecc7ff700d16fbb686e4395754bbf15bea0b3328f413226a7736bdf223ecfcbab5e0260001b6196fb565b6ec097ce7bc90715b34b9f100000000083830281619ee657fe5b059150619f157feb6e11531698cffa3af6fa0a98d7104f7a78094e845fb298a536d611092d8dcb60001b6196fb565b619f417f6cc23dd5f97530be1458c9dfa2abe52d64ac4acc8dc4bc6913a5f388f8ba959b60001b6196fb565b600f8281619f4b57fe5b0581019050619f7c7fe7ccb0a12fa031a0a94896d3e65aa142f5894c896d67a5491db6839213832d3960001b6196fb565b619fa87fb0b596d060d7744021776e57e0c4ce81c61eb23d61a17e87e0acd84f0654f1d260001b6196fb565b60028102945050505050919050565b6000619fe57f2a0e4707fd37a2afd7a8622a8b8288c83462728dd05f2553df0680d7a6320b4560001b6196fb565b61a0117f1b7f6d72cd142cb5c98d0dedc604a45de085120e8d78c6e59114dca025f3c19260001b6196fb565b61a03d7fd6f2473eb4eef7b00d1de8a833714b900c307fc4b3db23671f0138d2f06bb4c660001b6196fb565b670de0b6b3a764000082121561a0f75761a0797f6fb39aa5e0de2d432f2ea710235cf2abdacc0d1dd65d625031d098392f9ed6b460001b6196fb565b61a0a57f80d98144bd28bb593271a0957b6b785ee715cedba93a349b3415ddee4ff8a18d60001b6196fb565b61a0d17fcb1764bc9a85caa655591bfb618e0b29cfd97f20b909ef5f0aeb708a52458ac960001b6196fb565b61a0ed82670de0b6b3a764000080028161a0e757fe5b05619fb7565b600003905061bcc0565b61a1237f5f795f796e34e48dbffe0e75962a006b6b8dee49c7959e5bf378a7418b7011af60001b6196fb565b61a14f7f5163edfb7d5bde2b97eb7674a803d6d16fb9ea60ca35a0c1c540ade7b9f1ec5660001b6196fb565b61a17b7f061fa7b7a49b4960801efec85da6208c9a85886c1d6658be0d43a666dd1f37ce60001b6196fb565b600061a1a87e071535dbc1bc6eed51b6ff932dd14cebd1fee562798e1756b2a2217221881060001b6196fb565b61a1d47f7909265c00215cf44ef659f60993e3ac535c6624133f2329f959282e5cf4720e60001b6196fb565b670de0b6b3a7640000770195e54c5dd42177f53a27172fa9ec63026282700000000002831261a3105761a2297f9eeff1bf1d7eb9bf6a862e29041c211045e50a9409090f8c6e76490d92209c8e60001b6196fb565b61a2557ff78b4b0b27c2baa6289e8c04ac6b732c76980b96221b0f5b504863ff297a7e6760001b6196fb565b61a2817fb92666a167e928646dbadb1c11387ce18eccaa72216e66e7980ff21a39b4a0c460001b6196fb565b770195e54c5dd42177f53a27172fa9ec630262827000000000838161a2a257fe5b05925061a2d17f9a28df60dcd3683c29ae4d4c8433e31b1e186e2b19b9dc31abb5668e999e130360001b6196fb565b61a2fd7f2349d251de36950693d8dc7fe3e89e22f4faa3facbc573713e36b3c1076bb6b160001b6196fb565b6806f05b59d3b20000008101905061a33d565b61a33c7f5f868f32c1b183566d4fd477eeaa200fb7c0ac420213f8ab31d4a5a2ed804bbe60001b6196fb565b5b61a3697f655d7719e6baab47a0409df7b7b8bae3eb3aeefa1c578e68daa5b30c9ed99e3060001b6196fb565b61a3957fba2e333c2a2c02398997088d511c39dc1e9f2fffff60bf1081691ff02b4ccfde60001b6196fb565b670de0b6b3a76400006b1425982cf597cd205cef738002831261a4b95761a3de7f63d33fe4b6f6a3c71e6f29ae1d261b680fd6728d0077b1c0ef7d9315a424f98060001b6196fb565b61a40a7fb0e8ad89b3655932a3524a3757970351a74e4b55c591ed66078f069debd8d16e60001b6196fb565b61a4367f0ef7c12e03a2e291fe14ef2214a6b3fcc320d8f535fb4ea99e5497408efd973360001b6196fb565b6b1425982cf597cd205cef7380838161a44b57fe5b05925061a47a7fe0ecf868ee95734317a4c2cfa87355cb850f0b165a583d9fd6a006f20ec5462e60001b6196fb565b61a4a67fb70f96a1f394bb2f6372bdfe228612c5b83eb7bd561b671ad7cf8ae8e148333c60001b6196fb565b6803782dace9d90000008101905061a4e6565b61a4e57f73ca4c73fe2aa4d27e5a189578ebbea10f70a657f99e31130e86dba045a4fd4160001b6196fb565b5b61a5127f9fcb87c0be548e7851afeaab469990149ce57255e66dcb2a706db5a084bcce9960001b6196fb565b61a53e7f4a1376489944ca0b521dea4175ed59678c7efeb09f16827cbf218c4eddce71d460001b6196fb565b60648102905061a5707fef1d9a7c37f8a36d71b46a6edda0e4a3363b95743da06d32ab4f32e3009eb72f60001b6196fb565b61a59c7f89debf19aa927a767ef509100e58ecd5906978a73fbebccebf581b8e26a6638660001b6196fb565b60648302925061a5ce7f0bdd1b09853face3d8b70ea65bd067179115695135e2ecf69891ca3483b4a0fc60001b6196fb565b61a5fa7fe84736814461598a4e42a3b2342c00e67b8d4c5b18f055163edb2fa75f2349eb60001b6196fb565b6e01855144814a7ff805980ff0084000831261a7255761a63c7f67c3758e91595791b9150fc6a89a29627d1c992c2e4e70db244aeb0679d95b9960001b6196fb565b61a6687fd0bc08e158bfb2255c90a5ff951e6eea2d8a26f3864b358a83c1471d451a4ea560001b6196fb565b61a6947fdb9ef2d3cd566ef078f073dede74b4b38f19988bd40236e79b59ce8529e1736f60001b6196fb565b6e01855144814a7ff805980ff008400068056bc75e2d6310000084028161a6b757fe5b05925061a6e67f08c724e21b52dc4806f198ffc8456fc6d4bb18ceb52c9ebb5a2ee48ee524154460001b6196fb565b61a7127f7a6d26930463dc0b85337ed47cb609dc54834121d9ae4c44690da285c4b2434660001b6196fb565b68ad78ebc5ac620000008101905061a752565b61a7517fd8da6a7e72c78cbb49231b424f03ab3a41e3788ec9b0ffe3502d0833169c1c3760001b6196fb565b5b61a77e7f6389e56c956e82fc9ffca8a47e11c4becd7c0a23beab4f91c5401966c9f6854b60001b6196fb565b61a7aa7f8a2d4a87b57f78aaa7e2eb003ffc00cacac41f290b5bf14b230285c78640967560001b6196fb565b6b02df0ab5a80a22c61ab5a700831261a8cf5761a7e97f2c97f5462f483963631ba9f9e1ddb9d0a5c3c7f72c272c692c040b2c90ad849660001b6196fb565b61a8157f8a09912793ae4b6f51c1aae5e93fd9e2fa3b4be30358e91c3a00030822fa8ddf60001b6196fb565b61a8417fc024c606068c50790457f476f8bb6e9abd7876edaf95881faca2416802f49f4860001b6196fb565b6b02df0ab5a80a22c61ab5a70068056bc75e2d6310000084028161a86157fe5b05925061a8907febb9291849e42b27d8b579f8a82fe2d68c9f5c996da64486de3ec1642fb2d6b260001b6196fb565b61a8bc7fb763f29bba9dbe1c899ab5fd37e6b92ec872bb4c29cd409faf8faaf7c00c06a960001b6196fb565b6856bc75e2d6310000008101905061a8fc565b61a8fb7fbe811c74316467d7588f719973d8f73b6b44bdc2615d92021dbc626ecc22d31f60001b6196fb565b5b61a9287fcd764b508c9e68721c72db58d23034ae8791912f0045b01605f75dbbe915672160001b6196fb565b61a9547f86f07fad501b095be885b4a911f2b7cc3834da7e263b0b37d949806471f08b3260001b6196fb565b693f1fce3da636ea5cf850831261aa755761a9917f80c7783e3a804543691c86546e82ac5b9ce5f48cf748365d31cc9c8a1908022d60001b6196fb565b61a9bd7f87b3cccae0713c171e4cc3c30e9264b7eb2b67b20dcd9e5e69ce065d192eb8f260001b6196fb565b61a9e97f2ec340c657bb799f8a13576e44fbddb231da5b0d328354cb80de3786471bc90c60001b6196fb565b693f1fce3da636ea5cf85068056bc75e2d6310000084028161aa0757fe5b05925061aa367fac47bde4bebd3a8de3d23e457d17a25c8ea35a923524467f19b9d05abbe3bb8260001b6196fb565b61aa627fe98243a8b81ded7fb01dc058e6c1742677afa34175d47084e47311ed29291bbb60001b6196fb565b682b5e3af16b188000008101905061aaa2565b61aaa17ff1cc0b188e6e4231cb4718ebd28e5bb14934978cfc8e864985872747523c378460001b6196fb565b5b61aace7f99bca04e245a9275c2bd797029177b09ceed72a81e08e59bae2a73a797df93c760001b6196fb565b61aafa7f261e4d362d795e7cfe9c0c6868738fac4f9fe2ece1423c03a5d24175f2fdc78d60001b6196fb565b690127fa27722cc06cc5e2831261ac1b5761ab377f3914829bbe0f6c5bf1afeaa34ffd544b8cb38edd8d3bc6614904f1155f9d428b60001b6196fb565b61ab637f72947c0f257e2918752a7ccfc2b914288f3e2ecba1b758b07e8d97878884e48760001b6196fb565b61ab8f7f11b375a7ba04e92ada9546ff504dcab892490c95edd3fcf9012815222efc302f60001b6196fb565b690127fa27722cc06cc5e268056bc75e2d6310000084028161abad57fe5b05925061abdc7fb79d950018e267ef32fed84a6a9421d2eec0fb3e399156c9f3eff0196bb1cfaa60001b6196fb565b61ac087ffbafab27350586c5b7594a218ca54443b7fba3e44912a674c9270d39be03e6ed60001b6196fb565b6815af1d78b58c4000008101905061ac48565b61ac477f75c33499bbb991e3eb9467b741b89aa2ddd22c8f21d74da332eeecdb83be5bc960001b6196fb565b5b61ac747f2c4465aef9653b674b06a595c74584529cb594dfa614f03186c6e07a1b7ab33f60001b6196fb565b61aca07fb2eaae06e373ee55d19ea18eef81bed5eb9899dae375cb9b63dae3e1867e604060001b6196fb565b68280e60114edb805d03831261adbf5761acdc7f0505fad27611bf5ac429a3287f77fe17c9697ff4ea39a955615534324a9d39bd60001b6196fb565b61ad087f59fa2bc990dbd027eb8293fae49379d6e7cf7a2428cc6ba222350724ef85f9ed60001b6196fb565b61ad347fa39e98762bdf9a1473933d1a9a310cb283b2cc6dbbe3ef7349725a4977e1942d60001b6196fb565b68280e60114edb805d0368056bc75e2d6310000084028161ad5157fe5b05925061ad807f3ea03c67b7436c50f0e000d67f9cc76daa691620267f85a14504eaaed4847f6d60001b6196fb565b61adac7fce5961db4c1a04f1f8c2f9af131d650675ba333dd075fb873a8e59d9464a91fb60001b6196fb565b680ad78ebc5ac62000008101905061adec565b61adeb7ffce0ecef3e850a9ff19935f216d8139104295e7f80e2c6f3c921bed7d358341960001b6196fb565b5b61ae187f23e31166ea24247d1011b5edd5515d646eb074fff4ed8e8e67246d0cfc48519f60001b6196fb565b61ae447ff4c3e257c580f1ee065615a767f7c2c7cd33d12cec16baf63e5e520da7ab939560001b6196fb565b680ebc5fb41746121110831261af635761ae807f1f4ede70cd4ed5e3df87b570f80e274166c0c4fe7adefd0c9d71b1e2f06910ad60001b6196fb565b61aeac7f0651b874402d08bca25e4278e92f9f7c2b8da5988db22363565d5d8131f15e0060001b6196fb565b61aed87fb0caf9cc4713e6c070f4384aa134e9e48540543d7da504f6e812304ff22757f660001b6196fb565b680ebc5fb4174612111068056bc75e2d6310000084028161aef557fe5b05925061af247f2b3ccb5b4431d7fbf733a5973988809887fe9cb96487da42509383d75d21731c60001b6196fb565b61af507fabf5a8442a8bf87e50225ea9cbc4a507f6a1d9dd077e7c0bd7a5cb4ec3ccb37360001b6196fb565b68056bc75e2d631000008101905061af90565b61af8f7fe73ba6b6046756b3503b220c8f1cd309eb8255b53619cf9d7b4d3d1eadd8cf7760001b6196fb565b5b61afbc7fe5cf5698dcbdcefd3b9a0a197ef00de1bca0f41ce5493c0224b2fc4d95fcd54a60001b6196fb565b61afe87f0c24fa121ee36c5882d60fef1a224ff7527b3cf2b1a829ee4126f4ff9953c28660001b6196fb565b6808f00f760a4b2db55d831261b1075761b0247f781c9a058c785776d1b009208a14485fbec7afb99bb48fd1dd958be0f60792a660001b6196fb565b61b0507f041dc14b48dfafa37bf6be38cd94c53290ff5253f6dc276bb7a7c2feb21c8acd60001b6196fb565b61b07c7f7fd8bd3ee24373af9d3301d583ac9049430fe965f09b10814b86927cb9ea389760001b6196fb565b6808f00f760a4b2db55d68056bc75e2d6310000084028161b09957fe5b05925061b0c87f27b010efc80ee8f1455b5f944fa5064116e3866c96ef572403741c7bcc00448560001b6196fb565b61b0f47f334d0ec060f12209ce0cc3104d0dc35ac76e48b197a99651441c4d45e1ee6d9560001b6196fb565b6802b5e3af16b18800008101905061b134565b61b1337f9359fd9481c47f4c86e5d320eef4eed6c4236b662d7c0e06dbb2761330c635d060001b6196fb565b5b61b1607f402ec0389c490a8a2f0c196c64a3656ad56807b23711c0e6fb4476c22317952960001b6196fb565b61b18c7f0121e51f92fc48c320d44a8fa79f5e5ac3314a045317e5ae18fb7b6ce1490af860001b6196fb565b6806f5f1775788937937831261b2ab5761b1c87f96ae510b17a6b1ca7bd8fc760ae47fc0837a5ba72cd065816d5f8ff89348ca4660001b6196fb565b61b1f47f32f2e836d4821cb35469705e1f1edd4e1c797bdf692eb469d5db18c889c277b560001b6196fb565b61b2207f9d6d3527f1bb1ea0f06970d86b737dd956f8f9464dfba2d67918f253cfeebe1460001b6196fb565b6806f5f177578893793768056bc75e2d6310000084028161b23d57fe5b05925061b26c7fc00454d2d4886f95b68cea05c67878b88124baa3a4439a977c12794a61b4902360001b6196fb565b61b2987fcf55d52ea684236938078c6ac994ec866455bce1adc33f4538656c226106ce7e60001b6196fb565b68015af1d78b58c400008101905061b2d8565b61b2d77f72bedcddb98ff81d073f921a18c6b9074026e71079ca583962b50f09c058b7cd60001b6196fb565b5b61b3047f91c8db69b86cdc41dbaffac433437eadd33fe2c9c0f6ba1520e4352bd2fc301660001b6196fb565b61b3307fb5fc01ea3d63932cb15e68aee56e82cdac4c1d0200b3eb3e475feaabdff8e79760001b6196fb565b6806248f33704b286603831261b44e5761b36c7fa1823c0985f8916af7ff678e31e5f8d8db5e936004aa3b39ba3c4864a68276fb60001b6196fb565b61b3987fe293b5eb516e8d03e4c2bbc9bd2293a39d53c2faa56a6c6a56aab664bf80204360001b6196fb565b61b3c47f9470b504b3bf0593f4f0894c686d519b85bfd8660f4341a869dbaaa6c2a7a41360001b6196fb565b6806248f33704b28660368056bc75e2d6310000084028161b3e157fe5b05925061b4107f3af1254b1058d66d7bfe42a4de3bd5128918d1423e5a2ecd5195272287e29b4d60001b6196fb565b61b43c7f111523abae47ccc25c7afd9cca8ee1f50d83da1c87c6c56491790279b39b4ea660001b6196fb565b67ad78ebc5ac6200008101905061b47b565b61b47a7fdba95c89df2b2c302715f189fbf3e8afa18ed02a0c59d60fce3570e390e6bdef60001b6196fb565b5b61b4a77f6316ad9c2f036322af3911484d11e152b6d666f6da2904d8264cc3d3d2b80eee60001b6196fb565b61b4d37fd5a28627aba873ec250cd7139b8402995822d6fb272bb09381926ea187bd23ec60001b6196fb565b6805c548670b9510e7ac831261b5f15761b50f7f2b6f2cd02f0d47badd5586bc1d9f58ff8b6f2a00b766e06321fa78fcb406813560001b6196fb565b61b53b7fcf6295743d6d9b70df97a10e09b7b1f265b2587afd80f5ad047d2f5c5aa5ce8760001b6196fb565b61b5677f70959ebdd95590440af102dceff0d55bd4fe599507ae4e7a40b420a10cae540b60001b6196fb565b6805c548670b9510e7ac68056bc75e2d6310000084028161b58457fe5b05925061b5b37ff770e21630afd1c7aa2fc1949362973cfbf87c1eb30b824376a97730f9535f1660001b6196fb565b61b5df7f784b5eba7288ce0229ef72abf84d8b40e303f13e5ba2b81067cacdda35d7bccd60001b6196fb565b6756bc75e2d63100008101905061b61e565b61b61d7f156e042116d7446a37fcb3d4ec960f9047cc18a02b4dd1eb8b734cafb9605c0060001b6196fb565b5b61b64a7f0db1de3120dc404f4f8021def344b3c62f6ad502f740f40feaadf8129088e01160001b6196fb565b61b6767f02d82c98cb824b016938918581fa19f477ce037165d9d45d81fc649c9f321d2a60001b6196fb565b600068056bc75e2d63100000840168056bc75e2d63100000808603028161b69957fe5b05905061b6c87fb8b70f939d04cc8d75e576332b9da5134ecca82a3e604e74f291f1130da038b660001b6196fb565b61b6f47fc8638c5409badc3a194c6e9b05f173124591b35009f05b7b93f8c7ac08f8988e60001b6196fb565b600068056bc75e2d631000008283028161b70a57fe5b05905061b7397f08b9aee5b762bf1bc8db453d9aec5cec295ae5a677a9b26d440cdd9fc6973c1260001b6196fb565b61b7657f6cb11656fdc9d3015f974ed28279796e17070c5d53f72ccb82f50b82bc4723cf60001b6196fb565b600082905061b7967fd72baafeeac9478eeccd9951ddedf17ff7847642eea99342d45b7f5097b278b860001b6196fb565b61b7c27fa4c6691648fc2fbb9500367982871b44ea6f400512f6ae3fc78f3c3f987ed42260001b6196fb565b600081905061b7f37fa1de7af863295adb149458a9b54d21e22cf985e743af8fcec44e86f771ddfad260001b6196fb565b61b81f7fd6c2c10cb08e09aeb957267ee23223e3b865089983d3ea838a579f2c2f5217ef60001b6196fb565b68056bc75e2d631000008383028161b83357fe5b05915061b8627f4e5a98be01125eeff80c82c25e9fb9e7b02202a87b5680973ba14888b4a2dd1060001b6196fb565b61b88e7f597baf07b0aeb0637c340154dbe8e11fe620c09c4034c72c7df03665ef6cd8fa60001b6196fb565b6003828161b89857fe5b058101905061b8c97f04208f16ed89180341d8d28de15f2cb7beb6514949a9f767cf9b5dce70daa00e60001b6196fb565b61b8f57f700add0bad6352b737db6cf0f4c820160e12e7c7bcc17138afe55d7dc67f2cab60001b6196fb565b68056bc75e2d631000008383028161b90957fe5b05915061b9387f89c0d9d75ead7925f8f92ef643044933a36176181961cfe6c033df79346d2bcd60001b6196fb565b61b9647ffb5cb14ed3f36ba24aee09acdcd10ddcc6cef0c8015b8dbf277d34419b5be26c60001b6196fb565b6005828161b96e57fe5b058101905061b99f7f9ee2cc40b8ab5263af95bc1fba71221946d091db613b8f93c440ee62d806ffee60001b6196fb565b61b9cb7ff2f99f8aa918a208cfa8b8d746cb4db602795f57f17fc7210b61f1e70033ce0560001b6196fb565b68056bc75e2d631000008383028161b9df57fe5b05915061ba0e7fecc1504a6f1872489c1e37269dab8253af49f886d0df7ca8481b19675f6414a960001b6196fb565b61ba3a7f07c833df720764d188697faee613c532579bb7e21ed42a35ff67f744ec1c3b0860001b6196fb565b6007828161ba4457fe5b058101905061ba757f84fd7b0810797764865edde09223268a68e6d7525e6ecbadaf3dae09414e91d960001b6196fb565b61baa17ffc0b2be7401f325ebfc926f22bade8876e8ff231259625a9f735df4b069f724260001b6196fb565b68056bc75e2d631000008383028161bab557fe5b05915061bae47feda0abf282f0c681f7a6bea7294ec51e5b91579240b3a5869b70a821513422ce60001b6196fb565b61bb107f33f4c27456bb21e26cd309307cb7936c191fb103606137f97c2c77cab81cdc4660001b6196fb565b6009828161bb1a57fe5b058101905061bb4b7f0b0a463cf0a1c345b1a831db4be2e862990963ad0466c72e67296591cb8a44de60001b6196fb565b61bb777fe3cb1a8a990e03b2f6482a7a138828d42d03c3b912d9fe02f1d8f1abe3c7880f60001b6196fb565b68056bc75e2d631000008383028161bb8b57fe5b05915061bbba7f484eba67c966520b3c3f87a9b8eab2034364974b900e018ff0df9689b24821aa60001b6196fb565b61bbe67f31a5a8af2a9b00d798cedeb7efb46d9a3227c50b361e48082068d5b91294663c60001b6196fb565b600b828161bbf057fe5b058101905061bc217fe0fe1ff2347fbf5e0aeed6107768b2e6ab4ba2b14de005486d84a54e35a6c9e860001b6196fb565b61bc4d7f8182237f0d31121f22b1fc0338fc2685dbcdddd1ff1aa1cd20946bdf3367afbd60001b6196fb565b60028102905061bc7f7fb531577b46cfea8a0f0479f45520255c37d62cefeefad875161a20bb6916480760001b6196fb565b61bcab7f313d3cc6ccbaf2e16f0517b2aa4326497926a47540250bdf393e884dd6ec74a060001b6196fb565b60648186018161bcb757fe5b05955050505050505b919050565b600061bcf37f6603744b862ab6dc76e6d45ef526e659083d06b697b00d6c702452eccbbcbc0460001b6196fb565b61bd1f7f6a49a08508150c5d74a9e797da5412ffecda75c75e3f9f6cf8ac1d076aed017b60001b6196fb565b61bd4b7f9e338bcff6c9fa839ea936f99d55c006573ff2410ee796c8c578f80fb4b1476260001b6196fb565b61bd8e7ffffffffffffffffffffffffffffffffffffffffffffffffdc702bd3a30fc0000831215801561bd87575068070c1cc73b00c800008313155b6009613f51565b61bdba7fbdb879f854bb361f61c66fedce7851398eccca5f9b11421026790520dbe7330c60001b6196fb565b61bde67f1d4106cee033b42bb28453b29aa0514f3927be014f80298cd53c58a2cc144ed460001b6196fb565b600082121561be995761be1b7f9ffc9f9165e96c5cec8064de6562074aa4bac40b8e0ff74e7c050644d6db914360001b6196fb565b61be477f1c1a6bf06a86628b0777bf190212858d70d2cd26d797eddea7239e104f67dc5e60001b6196fb565b61be737f91de43806e6b4c93b6310ffa0a64ac1345b1869837c53cd51a4ce9551ee79a0b60001b6196fb565b61be7f8260000361bcc5565b670de0b6b3a764000080028161be9157fe5b05905061db98565b61bec57f710f40b391df50eaae53e451c37ad0bff0c77d8a26f4eaee1ed8318841ca3c7460001b6196fb565b61bef17fe3b24104ba4f28e8f4e45cd19101ff28c8b19ddcd113c9ca8df4f2142fac388960001b6196fb565b61bf1d7f132d6291004a07f16d0593dd55ca63dfa97424be4fb59f0316e4f4d586bf092e60001b6196fb565b600061bf4b7fbf178581b4a8bd0d485eb7d309792ed64e29317921eb1ad6928122819990cd8560001b6196fb565b61bf777f4b73530e933c77adbf16e42a80b079e6465973fe14e96d2ef191423464b5d9cf60001b6196fb565b6806f05b59d3b2000000831261c0915761bfb37f28c202a4fa617d7971cb39c3dd4cd40c55eb25a7ad2bfd29a623f97a5c2a395060001b6196fb565b61bfdf7f1ba6b8a8de1c32823cfac339928d64937a118b4c6d43b0f781bdbc3ae120e8d260001b6196fb565b61c00b7fd4b128d003931b1602679d18f1f1a759fce9d11915bfc0a0a5d82fb37119741460001b6196fb565b6806f05b59d3b20000008303925061c0457fc7b2515a6893b42db051c9bc6887577ece63d35adcae1e97144222515ceeb39c60001b6196fb565b61c0717f9767975d425cc62d4c50edb1878d2aadb5d1873b1dfa1cfde2a4a50bb07c69d560001b6196fb565b770195e54c5dd42177f53a27172fa9ec630262827000000000905061c281565b61c0bd7f07ec3da6962ab3443fe25e4782bc420f041f271f4e2c2c1e41ea31ec574b498160001b6196fb565b61c0e97f661e63e3bfe69a5481fd378700c3a30694d16dc746bd559dd5b9e1d497fdea9560001b6196fb565b6803782dace9d9000000831261c1f75761c1257f3785f3f40071b38454e95841c68a76b29a54b0286f0a37042cbb0b3fc8bde96860001b6196fb565b61c1517ff4ac48640a5cc6581ff67074a76f4d075f64dd6791f2c0ee2867cb9b1abb421960001b6196fb565b61c17d7f889a36601f82fc52f5548abb84d1f5868f98023c6ad7b75dc6e2b86c604e302460001b6196fb565b6803782dace9d90000008303925061c1b77f0b1c37b4156ff49c92652db2245ffe10f0b1ed61e4fbfa83deb1fdd7ef0d9ec060001b6196fb565b61c1e37fd599b74ef5fb374f32e66fafe9d91229dd5ea9bbe42ebc9c9e369d45a67b9df960001b6196fb565b6b1425982cf597cd205cef7380905061c280565b61c2237fc05ed50e42b5218441d82c66e1ac1498481e60af916f8357ba5369d90bbfa76460001b6196fb565b61c24f7f8c740e7289f8bec068c7716d88156a077a04a58a6ce1ce09d8d87f6e4286a1cf60001b6196fb565b61c27b7f11d6764fc64e11bea7ef6764e1c8e9763eda7b809566d1dc14e2ee76bda9ea4160001b6196fb565b600190505b5b61c2ad7fe19248d93c4142e89f02c948c7b41874643d099f8f3c9806910174a58440e69660001b6196fb565b61c2d97f4f109f8d42ef491ede922a778a821baff53572cccc88f1cb3076282db7b1380f60001b6196fb565b60648302925061c30b7fccc83beb548390fbb57fe46719ec24dc3109f9c65afc25a2e784223bf6ace68560001b6196fb565b61c3377f23629132dcacfc6e461c74305057c54a0d94e27778e8d26ef165babc08c8787b60001b6196fb565b600068056bc75e2d63100000905061c3717fdb70ef3e5349656acaf4bfd39c162434a5dd30fdc5ed51cd6b1c7d116c8569a960001b6196fb565b61c39d7fbc8b07fb08fad687d2e7dd3e137d525be659791a9db15f6080dd9c218e5e63a060001b6196fb565b68ad78ebc5ac62000000841261c4c25761c3d97f7af7a97bf5f0c230016e7431a39f93e9397911f74ae9af11fe119c64a3b8509b60001b6196fb565b61c4057fa4c983995cd34fba0b7665c4b862417abb45618fa811f360c792718feb6cfe7360001b6196fb565b61c4317f3e5e18d2128dcda7a3c51ec24dd69ed7fb3cf52476caeafa0fc9cc1bd056c2fe60001b6196fb565b68ad78ebc5ac620000008403935061c46b7f6ce1407a57f7ceacd45205a97867ce6d3eff75ad30b205935ec2a882cc2c41aa60001b6196fb565b61c4977f97eb016396da8decddd8bbc4903417a2404abc0fad5ce36252e97ed57c08f8f160001b6196fb565b68056bc75e2d631000006e01855144814a7ff805980ff008400082028161c4ba57fe5b05905061c4ef565b61c4ee7f7a222f19097af0b8ebe8c4b3c271a3e1bbb95c2fca82e1ec497250ded78a4c0060001b6196fb565b5b61c51b7f805a7d593b296a2b66ea0198b850ae8d06043f1640de3e48ad3083925acffa1060001b6196fb565b61c5477fb98fa6d44a9bd420c1a47c3e06f9706d327ce038cac04d19f1c644d7fc63bcbf60001b6196fb565b6856bc75e2d631000000841261c6695761c5837f6dc70e2d85c9bd8acbed97f27b977a64cb7839b9e42633d1b46f9b036c5128e160001b6196fb565b61c5af7f04f6bb568e13485a2c8a77970954d846137ff4337ef9d0c54fe4611388842ae860001b6196fb565b61c5db7fb6b77963ea2a5a58811478a28f586ffc54e033daf49f6036a783b6eae2ed5dca60001b6196fb565b6856bc75e2d6310000008403935061c6157f3047dcef9c74f0035dabbbdd2d76608c30d2d9f42f28c357de0d9a6f5f6a05d460001b6196fb565b61c6417f419fdbd313b9ce9839e9d4b1ad0b81d8ce89fede7d2718138eb64448a111f0eb60001b6196fb565b68056bc75e2d631000006b02df0ab5a80a22c61ab5a70082028161c66157fe5b05905061c696565b61c6957f78265ba26cf98ba8b9f01378498d5783992c881672a03d99b00a4c5d46b9549060001b6196fb565b5b61c6c27f7d8f650f49754abeb5011fadf4ae00af9228f6819e89d9b268e3ff0bf7c0fa3060001b6196fb565b61c6ee7fc1d05e4b5dad4f9a17797bed4d3888af96549f8bf1d0af0a2c4bb6b4e3c6b16560001b6196fb565b682b5e3af16b18800000841261c80e5761c72a7f61ba792ca7d7b22def1affea71a1123f05e945f1c1a132ba2a4b64884799c9bc60001b6196fb565b61c7567f6a3727128c70b59a167e729dad824b40e1da03edc85a66b7e37058bc42c719bc60001b6196fb565b61c7827f0521d6055fa0069604d409a10bfc091a96f09bd16b31cb9c5896f4abe4e78fe260001b6196fb565b682b5e3af16b188000008403935061c7bc7f070944c2f2dc8948157040166b057a7d8893c58300fec401a2db212d1ec62f9060001b6196fb565b61c7e87ff00325782656fa168cd75d7bdbb5703b163e22f7bf60cf090672c80e8de3443160001b6196fb565b68056bc75e2d63100000693f1fce3da636ea5cf85082028161c80657fe5b05905061c83b565b61c83a7fceb7f0919299aac82bf2f5739c8b90acd7e7eba1c7e97ccf3dea5588fdb267a560001b6196fb565b5b61c8677f4c523f43931e9fc49c479095da1ab08aae4691c7a9d1e8c775f93717e6697b6660001b6196fb565b61c8937fde7559d37461b938c70fe551914609ca870da7fb47a2fe92f01c2445c483b1ca60001b6196fb565b6815af1d78b58c400000841261c9b35761c8cf7ffe7c77d3f2905df59ce6ef6212574caa23c3ff932a9a20429d711421a02806ce60001b6196fb565b61c8fb7f3ddb67d1fd7a64e04ba821306f2da4d739a5c87fc7753080fdfb58cd0652f7fc60001b6196fb565b61c9277f1025142c8ba61bedb893a82dc956e8aa6c2e93daa12bdd4d506176813413bb1860001b6196fb565b6815af1d78b58c4000008403935061c9617f33e996955fba6856fdcbcdcde9073d29245874ea784831bbc2715ca0dfcc51e760001b6196fb565b61c98d7f2e98d38eafb9450e22fecf0f84f48e746102f1bee8c2985f43cece2335e0b00360001b6196fb565b68056bc75e2d63100000690127fa27722cc06cc5e282028161c9ab57fe5b05905061c9e0565b61c9df7f47615a45aad371bbecd97296e438b65fc99573cb6dc24eebeea45ddcba95299960001b6196fb565b5b61ca0c7f12a0c1c60abaa4e2e79d89d81f48519554651861ed9f168e18279f5872b40ebf60001b6196fb565b61ca387f5f135e138418337ac5c3bdd2e76ccd9cd3220fd08e641a5613d69512dc9e9bbb60001b6196fb565b680ad78ebc5ac6200000841261cb575761ca747fb3ace12e78288ddcbabe9aa7830e86314de03b4609d686e08abc6cea618a220060001b6196fb565b61caa07f2f8dbc5acb955780846833f47309ddb10b95862260661165e8693304458e309660001b6196fb565b61cacc7f059078fc27670543c491910de9e366dfadefa0383607112382ed74945a36a8f560001b6196fb565b680ad78ebc5ac62000008403935061cb067fbd8787648837ca4047611ff6da351580f4d95b70bfff222525cf85c1700391b560001b6196fb565b61cb327faed2b56272a449216b2b1f1c1b20039ec9d19ff891c3e5a7ac24104ab4896ca660001b6196fb565b68056bc75e2d6310000068280e60114edb805d0382028161cb4f57fe5b05905061cb84565b61cb837f7d8041f68209c84c744c4a75cec2af589dd8bbcc8a745cb137ede0c954ad14a760001b6196fb565b5b61cbb07f1d2b7702e5cc96a97b6c7be229ea0e375b605cb4873269752c4cf3314d85aa8d60001b6196fb565b61cbdc7fe4255d40177c13f8beef001a01711ab52bc875a366d8a8f0008b6d8303a7db3760001b6196fb565b68056bc75e2d63100000841261ccfb5761cc187ffdbdd750116d2a046d7ecbc83773f84ca56a493d4b27baa6ccfc891d0f1c569560001b6196fb565b61cc447ffa6d254aee1a01d616d7f0777f8b70339603bd2e743ff41fc3eb44cb75df87b960001b6196fb565b61cc707f84a3c20c13112011f7d5dde037eaaff5849301fea628069f51f5bcb01eaa69d660001b6196fb565b68056bc75e2d631000008403935061ccaa7f7cf2afdf1b3142aee1de7ea27bea6cce310acd6b1b0c75722f0368a9c3ef94e960001b6196fb565b61ccd67ff006ee7068d2cbcb786bd5ebdc84ccc4d0ab36fe9fd9b00d21aaff43da155d4660001b6196fb565b68056bc75e2d63100000680ebc5fb4174612111082028161ccf357fe5b05905061cd28565b61cd277fe583b06eac97353d0ff4bd9baa38f647b92a610e6a70185cc8b4c59981e2d3d160001b6196fb565b5b61cd547f23ee693a4d28312a9def5bb67f28051dc08954178ac8c6a99bd3611f3ede923a60001b6196fb565b61cd807f07503d3d2ce3b15dda30b6de1073ebdd1b87cd99b96e9573bf784aa71890fef960001b6196fb565b6802b5e3af16b1880000841261ce9f5761cdbc7fec2c19a72c3a6ab45e714d801eda84b0c95a7e064bbc6bb3271b06a7820b46f460001b6196fb565b61cde87f1c257ed60e2af6238b450518259e0f106dd0967a46ecac496c039601187a1c2460001b6196fb565b61ce147fb6aaffcf4c7bcc557cf2ed6ad3f876cf75bd255d10ff34d178bd7d7f7a5f0fb660001b6196fb565b6802b5e3af16b18800008403935061ce4e7ff8eec3bbbd428287f31a94ad611dd00d0f9748f2708fd03982c79876ce574aa260001b6196fb565b61ce7a7f1e0ead2001d2ca04f2d62894cb413c363c6439ef0ccd395e382ff694fd265ece60001b6196fb565b68056bc75e2d631000006808f00f760a4b2db55d82028161ce9757fe5b05905061cecc565b61cecb7fe6abce81b6afb00697fe33f1555b17ffdb185dcd3317f3fb8c751065296a9e9a60001b6196fb565b5b61cef87f12efa59ad9f2fbcbd1c408558e411668bddbf24d96895216b736c8d5fbd0f43a60001b6196fb565b61cf247f9745baf78ffa78b5ea76c3832102ad9f89c94001934f7883b968bbe6995f416c60001b6196fb565b68015af1d78b58c40000841261d0435761cf607f7164f448c8a55596ae371fa4d01ed2d280113303a6193fba2b3ec230e7e1b00a60001b6196fb565b61cf8c7f8f2f6885e0c02037769ef8a799a965a7974be536126ec579168ca6a70e8366bc60001b6196fb565b61cfb87fc4513f37c3809539c0d7d5a706593c858ddd0a195c0ec1ad6f03bee00b117e1260001b6196fb565b68015af1d78b58c400008403935061cff27fde4724845db98e8fca24d9fed5ecdf0511cf8584cf25f67c5adaef214a4b657060001b6196fb565b61d01e7f0edffcd09bf23e58a56b11d9fd2730c9460b188d757c6d690b11f6ee3434df2b60001b6196fb565b68056bc75e2d631000006806f5f177578893793782028161d03b57fe5b05905061d070565b61d06f7f3bf335665c831bc42885f4c4f5a661a0eaac6452974d4d89b0cad02e13f920a560001b6196fb565b5b61d09c7fdb32284aae92927243fbc87b40e9a91f56392b193b967b9b47fbece50af2557660001b6196fb565b61d0c87f5f319f332aed3a677c60e30196d9414f0b45002c13bc12fe47d9250806d3ab5560001b6196fb565b600068056bc75e2d63100000905061d1027fd25adb26b09b92471ef07f7eb1f0dfabe151779c4086e71365cd60a1f054477e60001b6196fb565b61d12e7fae831f90c9720de4bd357c85aecc0a2ed7c793b1b64419318415f79b5b5ba24b60001b6196fb565b600061d15c7f13a59d57fa9fb186a09cb13db0555db2580cc844bc4f56f4978fe6352eaf61f560001b6196fb565b61d1887fdc67a0744f97707e1516f99b7d97619305a844cff712ba8bb047d1862b833f2660001b6196fb565b85905061d1b77f42ed1c52f98c9efc709b1839d7381ae4f7e79682229488485a9e535e5db1c99a60001b6196fb565b61d1e37f3f343d10c3ad56a07dcd790e36df3c48764b37f68fc46ef0667529c1428c09d660001b6196fb565b808201915061d2147f40bfeded5813c9961de7ae74de50e8ebf99695523139bdeaac2ba16e99e9755960001b6196fb565b61d2407f546464d511b4dbd9e175112ed79738997adff96602e612d8628d4f78911888c260001b6196fb565b600268056bc75e2d631000008783028161d25657fe5b058161d25e57fe5b05905061d28d7f5df678d9a7a6ae9a9498ffe7f8d727ae4de909f0b296ab2d694b2d309d2b646f60001b6196fb565b61d2b97f5174487126fc5f2fd6f0379d294212de03f7b2f5d0dd279b4edbfdfc3e19e2eb60001b6196fb565b808201915061d2ea7fcf88976b65831ffe97b67b7b2ca013f7e5fdb847fbb93c7f2d7034533028158d60001b6196fb565b61d3157e0558671959e5134d01ab0f86ae54af18cdefa82c5fb5316710dc5ad95f5dcd60001b6196fb565b600368056bc75e2d631000008783028161d32b57fe5b058161d33357fe5b05905061d3627f1cd95f17c41cafe1b13deb79ac956b5f958ce3efa711ba409d193273f812258a60001b6196fb565b61d38e7fa34f0dfd30ef71733809d85683eee1009c10c65ec25271d7d9b2d272465c047e60001b6196fb565b808201915061d3bf7f1426410cea942485931272d793a9f4ec5255c8d0f423ea227f721530107dde4b60001b6196fb565b61d3eb7f494659c81ab7e59032e61324f3c0073ae74295b96c9a247dc88db6f0cafcc6b060001b6196fb565b600468056bc75e2d631000008783028161d40157fe5b058161d40957fe5b05905061d4387f1041f8d0ca0bec305764b0cda20df1fa1b5b048a7e4d966072f7c096b6a7ab0f60001b6196fb565b61d4647fec785b35d8c27ebae08ebd898671e3fb113ad53755b142943087d76b60f697cb60001b6196fb565b808201915061d4957f32618ecd71d71820b399dceb4572c87b52fab009097cf45810bb2eb50972bf1160001b6196fb565b61d4c17f0c66c9cf36dcb9b7b3c8bd2315072a1978dfb9d3f81b58aa453a4cdb819699e660001b6196fb565b600568056bc75e2d631000008783028161d4d757fe5b058161d4df57fe5b05905061d50e7f9fdd370c6b7cc675c6255331f249c10f8918ffe39ec046f6eb76d53a947c9a0960001b6196fb565b61d53a7f11c9697c0e03e81da28813ad061aa548447a4d8a9dc3b8c23d59b2d12d5d7d4460001b6196fb565b808201915061d56b7f391db74f7749b7ae2ee31c87ebf9bbfd82d2346742d80e5fa635a77b6bf181cd60001b6196fb565b61d5977f1efa183081524998d6a056dc459be65c1b5e2c57e7156e7353f5c5a308de08fd60001b6196fb565b600668056bc75e2d631000008783028161d5ad57fe5b058161d5b557fe5b05905061d5e47f7c80225555c21862d2127c45852b5b7e867187f90d7b479093a80d558ff363a960001b6196fb565b61d6107f6bb4786a69207356caf0fd9ad4e477193225ae1222cc28eda8de5ded362a738860001b6196fb565b808201915061d6417f2bd95cc2b46a697fc9e6c3650198698b02cdc489924a9625765e7773ab16ae8860001b6196fb565b61d66d7f6d70ac07c1523999f0874733cef6a7fdeb1cbeb1b985e73e5c2ae45bb5fce47860001b6196fb565b600768056bc75e2d631000008783028161d68357fe5b058161d68b57fe5b05905061d6ba7f68c21f169be444da9ef45fe470d73b9632c50037aa8aa519cb49b2403965c2eb60001b6196fb565b61d6e67fb5368c2771a467a192bc432cf66ede3a2e75b42e30e5f6c8eaceca14ea142e1e60001b6196fb565b808201915061d7177f0b197c00940bc34711a5c1bcf9f390aa0fc31444c572dc0d0ac1e8c2b9c1e1e060001b6196fb565b61d7437fcc9a6a7838ea3873cd8cb7797d8acf9701ffb04aeec1db4c8f7bdfdfe7e2d3e960001b6196fb565b600868056bc75e2d631000008783028161d75957fe5b058161d76157fe5b05905061d7907f4ae223488edf92d1ef9df11b74835814de75ca75fb53a7c67a69c1f378d81ee260001b6196fb565b61d7bc7f40437cc0071d40a545118470633ee8498f6ba07249e95bd277d662c8c3910d0860001b6196fb565b808201915061d7ed7f6a98bd98d5b6402216f6a26d5e5c6a0e49aa041cd602f0480a92757414fdd3b360001b6196fb565b61d8197fd3d9002223246e6684f9b356dfa9d5c123bb45a59faf3a71c2d8509cd1b8aadb60001b6196fb565b600968056bc75e2d631000008783028161d82f57fe5b058161d83757fe5b05905061d8667f5915e3cc2f4da8323007d0f13b60cc72c7d692077501c6c0b751d92bee102cf460001b6196fb565b61d8927ff374d3c08292c299c854216de162077cf1e7e74d3e8d95785370cce4a8a54eba60001b6196fb565b808201915061d8c37fe551b770c0283b7957336a0413cfc5695d9a74be29735d8eec8935ba20731a5660001b6196fb565b61d8ef7f43e66eba524ad5a79985eb4b8c6d6fc7162bfbfdd871b9f070e97db31542f0cc60001b6196fb565b600a68056bc75e2d631000008783028161d90557fe5b058161d90d57fe5b05905061d93c7fd8a9b2676287d5379b156d6247aeb5c2f0fd0ed55c29065726548ea6fffde56f60001b6196fb565b61d9687f7e808415cc1dbceed6d010c33f90e1223eeae1f554c79ec5cdffaa7d70f578ab60001b6196fb565b808201915061d9987ec7b50af6579f36d212223599a7baf3371e84233a81a59f8730356090efe26260001b6196fb565b61d9c47f057ce259ad07027680b845518d99ae02983046d284d711d975c4fd35edf89ca360001b6196fb565b600b68056bc75e2d631000008783028161d9da57fe5b058161d9e257fe5b05905061da117fce223532276d9fabf2fe44c77bfba17b308e50a661a67b2752655cb8cb6552c960001b6196fb565b61da3d7f4dbc79d412cdba175117302a3d855398fccbefe1f2052184b32dd42523991c6660001b6196fb565b808201915061da6e7f55da710f8842795b5b2e959480ee14a0c4f9c3cfa812287cfa3af7316963641360001b6196fb565b61da9a7f805b231f29185d988c06992a4ddc8f42fa307198ac0ddf06216dabdf4e73bccd60001b6196fb565b600c68056bc75e2d631000008783028161dab057fe5b058161dab857fe5b05905061dae77f5ba9d0c8bff42f59665649e0bd725b6ab0ab482566bd0ccdc0bb78ae418732e160001b6196fb565b61db137ff197e464f40cbe1f523b743dc74861641e5b4609d6d4ac255f5887f9f27cb66560001b6196fb565b808201915061db447f94afe60d1248ac0a761f9e1237e351e82f9e7e83032f5e3866b4386013ebc91860001b6196fb565b61db707f2e2220c3917686fb99da58ec04c3d2e5d0e5fd28f75995041eb4ceeca24f73f460001b6196fb565b60648468056bc75e2d631000008486028161db8757fe5b05028161db9057fe5b059450505050505b919050565b600061dbcb7f59553e064ffc30705bc6f1bd0548781ec42eede447ec06cd2d9ddb674a8219be60001b619300565b61dbf77fab4e9dc03bf83496a9fb56ed78c77ac71999c4c5b77197bc3f03888fa1f7da1860001b619300565b61dc237f8ef261d3a0653ab868c899418b467bc6f67e2ccde42f77cb49f1285b32558cd560001b619300565b6000828401905061dc567f172b47099aaf4a028546f4463220baa09cd81d77ae8c1096fc6579f4ecaeac2960001b619300565b61dc827f967579ee3162c1a66be7747b1966e185b33f2fc6a52477633bfe253a007a6d0d60001b619300565b61dc90848210156000613f51565b61dcbc7f837f36e10f55e182d80df4008a9565a95c9998c0cbd301003424ee94022b465e60001b619300565b61dce87f60b415dd739853b43f2c31e0a76108ad464adc9d8eacc59b1f59ea004963800b60001b619300565b8091505092915050565b61dd1e7f859b971d1a1255cf9d4cb958e7b1ee466850218c832922f5051633c8255740e360001b610732565b61dd4a7f1e4219e446bfc49318475e67e9dd11a5c4904f252aed09a1e1987ed6f447f89360001b610732565b61dd767f470a94d2bcbba4d6bb89bc72d8fe31cf78a8e8dc566102efe0795181f9c5196160001b610732565b61ddc7816000808573ffffffffffffffffffffffffffffffffffffffff1673ffffffffffffffffffffffffffffffffffffffff16815260200190815260200160002054618def90919063ffffffff16565b6000808473ffffffffffffffffffffffffffffffffffffffff1673ffffffffffffffffffffffffffffffffffffffff1681526020019081526020016000208190555061de357fa0703f6eb5028f6ac193d4dd8a2444daf838d9c2ce959a095d092808f9cae89b60001b610732565b61de617f19aadcec8f30a84b6fe3489d9ae4f9ed9f7708f300e1ae0a833a1e807a13069f60001b610732565b61de7681600254618def90919063ffffffff16565b60028190555061dea87fe55b6ddab0c258b148644c992ade42c43ee1114b03a612c38784d59bc66286cc60001b610732565b61ded47fb592118a6e6fd079c07f78575f993e050813613c6ece73dae980bf49bbe39f0660001b610732565b8173ffffffffffffffffffffffffffffffffffffffff16600073ffffffffffffffffffffffffffffffffffffffff167fddf252ad1be2c89b69c2b068fc378daa952ba7f163c4a11628f55a4df523b3ef8360405161df32919061eb47565b60405180910390a35050565b60008135905061df4d8161ee2c565b92915050565b600082601f83011261df6457600080fd5b813561df7761df728261ec34565b61ec07565b9150818183526020840193506020810190508385602084028201111561df9c57600080fd5b60005b8381101561dfcc578161dfb2888261e1bc565b84526020840193506020830192505060018101905061df9f565b5050505092915050565b60008135905061dfe58161ee43565b92915050565b60008135905061dffa8161ee5a565b92915050565b60008083601f84011261e01257600080fd5b8235905067ffffffffffffffff81111561e02b57600080fd5b60208301915083600182028301111561e04357600080fd5b9250929050565b600082601f83011261e05b57600080fd5b813561e06e61e0698261ec5c565b61ec07565b9150808252602083016020830185838301111561e08a57600080fd5b61e09583828461edcf565b50505092915050565b60008135905061e0ad8161ee71565b92915050565b60008135905061e0c28161ee88565b92915050565b6000610120828403121561e0db57600080fd5b61e0e661012061ec07565b9050600061e0f68482850161e0b3565b600083015250602061e10a8482850161e09e565b602083015250604061e11e8482850161e09e565b604083015250606061e1328482850161e1bc565b606083015250608061e1468482850161dfeb565b60808301525060a061e15a8482850161e1bc565b60a08301525060c061e16e8482850161df3e565b60c08301525060e061e1828482850161df3e565b60e08301525061010082013567ffffffffffffffff81111561e1a357600080fd5b61e1af8482850161e04a565b6101008301525092915050565b60008135905061e1cb8161ee98565b92915050565b60008135905061e1e08161eeaf565b92915050565b60006020828403121561e1f857600080fd5b600061e2068482850161df3e565b91505092915050565b6000806040838503121561e22257600080fd5b600061e2308582860161df3e565b925050602061e2418582860161df3e565b9150509250929050565b60008060006060848603121561e26057600080fd5b600061e26e8682870161df3e565b935050602061e27f8682870161df3e565b925050604061e2908682870161e1bc565b9150509250925092565b600080600080600080600060e0888a03121561e2b557600080fd5b600061e2c38a828b0161df3e565b975050602061e2d48a828b0161df3e565b965050604061e2e58a828b0161e1bc565b955050606061e2f68a828b0161e1bc565b945050608061e3078a828b0161e1d1565b93505060a061e3188a828b0161dfeb565b92505060c061e3298a828b0161dfeb565b91505092959891949750929550565b6000806040838503121561e34b57600080fd5b600061e3598582860161df3e565b925050602061e36a8582860161e1bc565b9150509250929050565b60006020828403121561e38657600080fd5b600082013567ffffffffffffffff81111561e3a057600080fd5b61e3ac8482850161df53565b91505092915050565b60006020828403121561e3c757600080fd5b600061e3d58482850161dfeb565b91505092915050565b60008060008060008060008060e0898b03121561e3fa57600080fd5b600061e4088b828c0161dfeb565b985050602061e4198b828c0161df3e565b975050604061e42a8b828c0161df3e565b965050606089013567ffffffffffffffff81111561e44757600080fd5b61e4538b828c0161df53565b955050608061e4648b828c0161e1bc565b94505060a061e4758b828c0161e1bc565b93505060c089013567ffffffffffffffff81111561e49257600080fd5b61e49e8b828c0161e000565b92509250509295985092959890939650565b60008060006060848603121561e4c557600080fd5b600084013567ffffffffffffffff81111561e4df57600080fd5b61e4eb8682870161e0c8565b935050602061e4fc8682870161e1bc565b925050604061e50d8682870161e1bc565b9150509250925092565b6000806000806080858703121561e52d57600080fd5b600061e53b8782880161e1bc565b945050602061e54c8782880161e1bc565b935050604061e55d8782880161e1bc565b925050606061e56e8782880161dfd6565b91505092959194509250565b600061e586838361e84f565b60208301905092915050565b61e59b8161ece8565b82525050565b600061e5ac8261ec98565b61e5b6818561ecbb565b935061e5c18361ec88565b8060005b8381101561e5f257815161e5d9888261e57a565b975061e5e48361ecae565b92505060018101905061e5c5565b5085935050505092915050565b61e6088161ecfa565b82525050565b61e6178161ed06565b82525050565b61e62e61e6298261ed06565b61ee11565b82525050565b61e63d8161ed75565b82525050565b61e64c8161ed99565b82525050565b61e65b8161edbd565b82525050565b600061e66c8261eca3565b61e676818561eccc565b935061e68681856020860161edde565b61e68f8161ee1b565b840191505092915050565b600061e6a760108361eccc565b91507f4e6f6e205661756c742063616c6c6572000000000000000000000000000000006000830152602082019050919050565b600061e6e760028361ecdd565b91507f19010000000000000000000000000000000000000000000000000000000000006000830152600282019050919050565b600061e72760228361eccc565b91507f546f6b656e207265717565737420646f65736e2774206d617463682073746f7260008301527f65640000000000000000000000000000000000000000000000000000000000006020830152604082019050919050565b600061e78d600e8361eccc565b91507f496e76616c696420666f726d61740000000000000000000000000000000000006000830152602082019050919050565b600061e7cd600d8361eccc565b91507f57726f6e6720706f6f6c206964000000000000000000000000000000000000006000830152602082019050919050565b600061e80d601a8361eccc565b91507f43616c6c65642077697468206e6f6e20706f6f6c20746f6b656e0000000000006000830152602082019050919050565b61e8498161ed22565b82525050565b61e8588161ed5e565b82525050565b61e8678161ed5e565b82525050565b61e8768161ed68565b82525050565b600061e8878261e6da565b915061e893828561e61d565b60208201915061e8a3828461e61d565b6020820191508190509392505050565b600060208201905061e8c8600083018461e592565b92915050565b6000604082019050818103600083015261e8e8818561e5a1565b9050818103602083015261e8fc818461e5a1565b90509392505050565b600060208201905061e91a600083018461e5ff565b92915050565b600060208201905061e935600083018461e60e565b92915050565b600060c08201905061e950600083018961e60e565b61e95d602083018861e592565b61e96a604083018761e592565b61e977606083018661e85e565b61e984608083018561e85e565b61e99160a083018461e85e565b979650505050505050565b600060a08201905061e9b1600083018861e60e565b61e9be602083018761e60e565b61e9cb604083018661e60e565b61e9d8606083018561e85e565b61e9e5608083018461e592565b9695505050505050565b600060808201905061ea04600083018761e60e565b61ea11602083018661e86d565b61ea1e604083018561e60e565b61ea2b606083018461e60e565b95945050505050565b600060208201905061ea49600083018461e634565b92915050565b600060208201905061ea64600083018461e643565b92915050565b6000602082019050818103600083015261ea84818461e661565b905092915050565b6000602082019050818103600083015261eaa58161e69a565b9050919050565b6000602082019050818103600083015261eac58161e71a565b9050919050565b6000602082019050818103600083015261eae58161e780565b9050919050565b6000602082019050818103600083015261eb058161e7c0565b9050919050565b6000602082019050818103600083015261eb258161e800565b9050919050565b600060208201905061eb41600083018461e840565b92915050565b600060208201905061eb5c600083018461e85e565b92915050565b600060808201905061eb77600083018761e85e565b61eb84602083018661e85e565b61eb91604083018561e652565b61eb9e606083018461e652565b95945050505050565b600060808201905061ebbc600083018761e85e565b61ebc9602083018661e85e565b61ebd6604083018561e85e565b61ebe3606083018461e85e565b95945050505050565b600060208201905061ec01600083018461e86d565b92915050565b6000604051905081810181811067ffffffffffffffff8211171561ec2a57600080fd5b8060405250919050565b600067ffffffffffffffff82111561ec4b57600080fd5b602082029050602081019050919050565b600067ffffffffffffffff82111561ec7357600080fd5b601f19601f8301169050602081019050919050565b6000819050602082019050919050565b600081519050919050565b600081519050919050565b6000602082019050919050565b600082825260208201905092915050565b600082825260208201905092915050565b600081905092915050565b600061ecf38261ed3e565b9050919050565b60008115159050919050565b6000819050919050565b600061ed1b8261ece8565b9050919050565b60006fffffffffffffffffffffffffffffffff82169050919050565b600073ffffffffffffffffffffffffffffffffffffffff82169050919050565b6000819050919050565b600060ff82169050919050565b600061ed808261ed87565b9050919050565b600061ed928261ed3e565b9050919050565b600061eda48261edab565b9050919050565b600061edb68261ed3e565b9050919050565b600061edc88261ed5e565b9050919050565b82818337600083830152505050565b60005b8381101561edfc57808201518184015260208101905061ede1565b8381111561ee0b576000848401525b50505050565b6000819050919050565b6000601f19601f8301169050919050565b61ee358161ece8565b811461ee4057600080fd5b50565b61ee4c8161ecfa565b811461ee5757600080fd5b50565b61ee638161ed06565b811461ee6e57600080fd5b50565b61ee7a8161ed10565b811461ee8557600080fd5b50565b6002811061ee9557600080fd5b50565b61eea18161ed5e565b811461eeac57600080fd5b50565b61eeb88161ed68565b811461eec357600080fd5b5056fea2646970667358221220414c9ef55bd4654e856aec8316cf1916fa0c96b306fcbc085b8db4a655da15a464736f6c63430007010033a26469706673582212201690be1713babca436ba92fed543c0e853af17d83726398ad349c7ff1ff4b1d464736f6c63430007010033",
  "linkReferences": {},
  "deployedLinkReferences": {}
}