{
  "_format": "hh-sol-artifact-1",
  "contractName": "ReentrancyAttack",
  "sourceName": "contracts/balancer-core-v2/test/lib/ReentrancyAttack.sol",
  "abi": [
    {
      "inputs": [
        {
          "internalType": "bytes32",
          "name": "c__0x45f564b9",
          "type": "bytes32"
        }
      ],
      "name": "c_0x45f564b9",
      "outputs": [],
      "stateMutability": "pure",
      "type": "function"
    },
    {
      "inputs": [
        {
          "internalType": "bytes4",
          "name": "data",
          "type": "bytes4"
        }
      ],
      "name": "callSender",
      "outputs": [],
      "stateMutability": "nonpayable",
      "type": "function"
    }
  ],
  "bytecode": "0x608060405234801561001057600080fd5b506103b5806100206000396000f3fe608060405234801561001057600080fd5b50600436106100365760003560e01c80630a2df1ed1461003b578063a471150d14610088575b600080fd5b6100866004803603602081101561005157600080fd5b8101908080357bffffffffffffffffffffffffffffffffffffffffffffffffffffffff191690602001909291905050506100b6565b005b6100b46004803603602081101561009e57600080fd5b810190808035906020019092919050505061037c565b005b6100e27f7acd84ce4f6b2ba22beda5beedc3806266b55c2b1259a2944657d4c1baa54d7760001b61037c565b61010e7ffb50d97676fe4fb0705cfac68a582155c949e0bc25a7753ad7417b100387f6c960001b61037c565b61013a7f47c143448224db16278f7f4fabebb90707545e9997ce2bd3db7d6ad0e5dfe50f60001b61037c565b60003373ffffffffffffffffffffffffffffffffffffffff1682604051602401604051602081830303815290604052907bffffffffffffffffffffffffffffffffffffffffffffffffffffffff19166020820180517bffffffffffffffffffffffffffffffffffffffffffffffffffffffff83818316178352505050506040518082805190602001908083835b602083106101ea57805182526020820191506020810190506020830392506101c7565b6001836020036101000a0380198251168184511680821785525050505050509050019150506000604051808303816000865af19150503d806000811461024c576040519150601f19603f3d011682016040523d82523d6000602084013e610251565b606091505b505090506102817f5df66666c08d27fded5fb7bb4c54a6eb0ddf9f0065a7b9b8b42d52c3c2e622c860001b61037c565b6102ad7fae65ce493cb49378cde8f1b7a5008177707d56b67cf92c96bf310e5caec703a760001b61037c565b6102d97f55b63610204075ad3a931e59b3c41501030817bd59296b9a6823daf24d2eacfb60001b61037c565b8061034c576040517f08c379a00000000000000000000000000000000000000000000000000000000081526004018080602001828103825260118152602001807f5245454e5452414e43595f41545441434b00000000000000000000000000000081525060200191505060405180910390fd5b6103787f7b817a28c0aafef82850ea2016831df2540c6d69e0f47dbd67efb8228c35580060001b61037c565b5050565b5056fea26469706673582212203df153dd0cb2fff8e25715fe136dfaf84713529c1a39f97ca48bb6df5e365af064736f6c63430007010033",
  "linkReferences": {},
  "deployedLinkReferences": {}
}