{
  "_format": "hh-sol-artifact-1",
  "contractName": "ReentrancyAttack",
  "sourceName": "contracts/balancer-core-v2/test/lib/ReentrancyAttack.sol",
  "abi": [
    {
      "inputs": [
        {
          "internalType": "bytes32",
          "name": "c__0xa9564ecb",
          "type": "bytes32"
        }
      ],
      "name": "c_0xa9564ecb",
      "outputs": [],
      "stateMutability": "pure",
      "type": "function"
    },
    {
      "inputs": [
        {
          "internalType": "bytes4",
          "name": "data",
          "type": "bytes4"
        }
      ],
      "name": "callSender",
      "outputs": [],
      "stateMutability": "nonpayable",
      "type": "function"
    }
  ],
  "bytecode": "0x608060405234801561001057600080fd5b506103b5806100206000396000f3fe608060405234801561001057600080fd5b50600436106100365760003560e01c80630a2df1ed1461003b5780637e3eee4014610088575b600080fd5b6100866004803603602081101561005157600080fd5b8101908080357bffffffffffffffffffffffffffffffffffffffffffffffffffffffff191690602001909291905050506100b6565b005b6100b46004803603602081101561009e57600080fd5b810190808035906020019092919050505061037c565b005b6100e27f32df6ad5cba1e282093eef43684520fb455481f3aaead41e996939ef79d21dea60001b61037c565b61010e7f471b1dcc03cbc5a158ef3f525a1f735c686adb40a8e9c5ea3592edf28c42999e60001b61037c565b61013a7f44fea8765bdb3d76eb0f7b7d641f29f5e19c56e5506496b6dc945c523d3d7b5160001b61037c565b60003373ffffffffffffffffffffffffffffffffffffffff1682604051602401604051602081830303815290604052907bffffffffffffffffffffffffffffffffffffffffffffffffffffffff19166020820180517bffffffffffffffffffffffffffffffffffffffffffffffffffffffff83818316178352505050506040518082805190602001908083835b602083106101ea57805182526020820191506020810190506020830392506101c7565b6001836020036101000a0380198251168184511680821785525050505050509050019150506000604051808303816000865af19150503d806000811461024c576040519150601f19603f3d011682016040523d82523d6000602084013e610251565b606091505b505090506102817fac22f546ed7f869068d94285896c763f1685a0bda3f055866a062da0e60cf82060001b61037c565b6102ad7fe48e34bb88e6b02a12f137238670997ac455a082f1c3c133b76d7ca6b1ddf0b760001b61037c565b6102d97fdf866150db4fa9314816308912e23dfd175095ddd571b0adc9f2725c6c97935b60001b61037c565b8061034c576040517f08c379a00000000000000000000000000000000000000000000000000000000081526004018080602001828103825260118152602001807f5245454e5452414e43595f41545441434b00000000000000000000000000000081525060200191505060405180910390fd5b6103787fbd61429ceabbdd74a7ce846f20c67027d6142c374ace032be7d823f9d41da21760001b61037c565b5050565b5056fea2646970667358221220eadff1314decbd0d7a005e0de1d2ca52240ef2e11a62798e6d358edb046042a564736f6c63430007010033",
  "linkReferences": {},
  "deployedLinkReferences": {}
}