{
  "_format": "hh-sol-artifact-1",
  "contractName": "MockFlashLoanRecipient",
  "sourceName": "contracts/balancer-core-v2/test/MockFlashLoanRecipient.sol",
  "abi": [
    {
      "inputs": [
        {
          "internalType": "address",
          "name": "_vault",
          "type": "address"
        }
      ],
      "stateMutability": "nonpayable",
      "type": "constructor"
    },
    {
      "inputs": [
        {
          "internalType": "bytes32",
          "name": "c__0x5234bf38",
          "type": "bytes32"
        }
      ],
      "name": "c_0x5234bf38",
      "outputs": [],
      "stateMutability": "pure",
      "type": "function"
    },
    {
      "inputs": [
        {
          "internalType": "contract IERC20[]",
          "name": "tokens",
          "type": "address[]"
        },
        {
          "internalType": "uint256[]",
          "name": "amounts",
          "type": "uint256[]"
        },
        {
          "internalType": "uint256[]",
          "name": "feeAmounts",
          "type": "uint256[]"
        },
        {
          "internalType": "bytes",
          "name": "userData",
          "type": "bytes"
        }
      ],
      "name": "receiveFlashLoan",
      "outputs": [],
      "stateMutability": "nonpayable",
      "type": "function"
    },
    {
      "inputs": [],
      "name": "reenter",
      "outputs": [
        {
          "internalType": "bool",
          "name": "",
          "type": "bool"
        }
      ],
      "stateMutability": "view",
      "type": "function"
    },
    {
      "inputs": [],
      "name": "repayInExcess",
      "outputs": [
        {
          "internalType": "bool",
          "name": "",
          "type": "bool"
        }
      ],
      "stateMutability": "view",
      "type": "function"
    },
    {
      "inputs": [],
      "name": "repayLoan",
      "outputs": [
        {
          "internalType": "bool",
          "name": "",
          "type": "bool"
        }
      ],
      "stateMutability": "view",
      "type": "function"
    },
    {
      "inputs": [
        {
          "internalType": "bool",
          "name": "_reenter",
          "type": "bool"
        }
      ],
      "name": "setReenter",
      "outputs": [],
      "stateMutability": "nonpayable",
      "type": "function"
    },
    {
      "inputs": [
        {
          "internalType": "bool",
          "name": "_repayInExcess",
          "type": "bool"
        }
      ],
      "name": "setRepayInExcess",
      "outputs": [],
      "stateMutability": "nonpayable",
      "type": "function"
    },
    {
      "inputs": [
        {
          "internalType": "bool",
          "name": "_repayLoan",
          "type": "bool"
        }
      ],
      "name": "setRepayLoan",
      "outputs": [],
      "stateMutability": "nonpayable",
      "type": "function"
    },
    {
      "inputs": [],
      "name": "vault",
      "outputs": [
        {
          "internalType": "address",
          "name": "",
          "type": "address"
        }
      ],
      "stateMutability": "view",
      "type": "function"
    }
  ],
  "bytecode": "0x60a06040523480156200001157600080fd5b5060405162001aea38038062001aea833981810160405260208110156200003757600080fd5b81019080805190602001909291905050506200007c7f6b6e350bad7c72530da964a55dca73df8b8bb4ad1fb0e3185db021beb2f02bfd60001b620002a860201b60201c565b620000b07f3d47982d43f65b8089389811b0f1c92fac16492a7f427e9acaac34c57dfce5cf60001b620002a860201b60201c565b620000e47f39e55caa507a4391c1d6da1f25a05f513d52b94cc85aadc86835706b0bae764160001b620002a860201b60201c565b8073ffffffffffffffffffffffffffffffffffffffff1660808173ffffffffffffffffffffffffffffffffffffffff1660601b815250506200014f7f39abe7d7c5b781d096158d3ace06a3fddd79b962007e113c06fa0c6aa4b5a56060001b620002a860201b60201c565b620001837f7fac2c7526d7c9baa07b8bf433864efd3323bbea7d2bd815ad6e459cf8ce252060001b620002a860201b60201c565b60016000806101000a81548160ff021916908315150217905550620001d17f7d70ab85efbb97792e72968f2a3d054c5ed4dbc8655ac93f8223bd8c4d4ca5df60001b620002a860201b60201c565b620002057f0ff196e008c9c9ddf72849af9cd44ddb78318faa9c49ef4d8e7be7b95b69975a60001b620002a860201b60201c565b60008060016101000a81548160ff021916908315150217905550620002537f8b87b4f299db7b16ffc17025d92bfffbdb67963268990a479dc833f4f5ed00f760001b620002a860201b60201c565b620002877f18000f59f19ef616b70dd9acdba851ceb83050a5367f01b7c6526227c15d4a5260001b620002a860201b60201c565b60008060026101000a81548160ff02191690831515021790555050620002ab565b50565b60805160601c61181c620002ce600039806110e35280611152525061181c6000f3fe608060405234801561001057600080fd5b50600436106100a35760003560e01c8063a6af170311610076578063f04f27071161005b578063f04f2707146101a6578063f966ade71461041d578063fbfa77cf1461043d576100a3565b8063a6af170314610146578063b77f3a2314610176576100a3565b806305264e32146100a85780633207ce3c146100d657806362a82399146100f6578063a0fe97e314610126575b600080fd5b6100d4600480360360208110156100be57600080fd5b8101908080359060200190929190505050610471565b005b6100de610474565b60405180821515815260200191505060405180910390f35b6101246004803603602081101561010c57600080fd5b81019080803515159060200190929190505050610487565b005b61012e610527565b60405180821515815260200191505060405180910390f35b6101746004803603602081101561015c57600080fd5b8101908080351515906020019092919050505061053a565b005b6101a46004803603602081101561018c57600080fd5b810190808035151590602001909291905050506105db565b005b61041b600480360360808110156101bc57600080fd5b81019080803590602001906401000000008111156101d957600080fd5b8201836020820111156101eb57600080fd5b8035906020019184602083028401116401000000008311171561020d57600080fd5b919080806020026020016040519081016040528093929190818152602001838360200280828437600081840152601f19601f8201169050808301925050505050505091929192908035906020019064010000000081111561026d57600080fd5b82018360208201111561027f57600080fd5b803590602001918460208302840111640100000000831117156102a157600080fd5b919080806020026020016040519081016040528093929190818152602001838360200280828437600081840152601f19601f8201169050808301925050505050505091929192908035906020019064010000000081111561030157600080fd5b82018360208201111561031357600080fd5b8035906020019184602083028401116401000000008311171561033557600080fd5b919080806020026020016040519081016040528093929190818152602001838360200280828437600081840152601f19601f8201169050808301925050505050505091929192908035906020019064010000000081111561039557600080fd5b8201836020820111156103a757600080fd5b803590602001918460018302840111640100000000831117156103c957600080fd5b91908080601f016020809104026020016040519081016040528093929190818152602001838380828437600081840152601f19601f82011690508083019250505050505050919291929050505061067c565b005b61042561113f565b60405180821515815260200191505060405180910390f35b610445611150565b604051808273ffffffffffffffffffffffffffffffffffffffff16815260200191505060405180910390f35b50565b600060019054906101000a900460ff1681565b6104b37fe6b8ef63a8d02b60231517cc111b7b27d76e6b9542239fb380ced5276f5d6dbc60001b610471565b6104df7f4a81adbe2f8528566af7d621391b3dc88ac3b29077c967aa32e95b8985bd3c0a60001b610471565b61050b7fc9466754b453d8c15ff129e90a0ee2d0394870b0daf61d123b5800b8d5ae3f1260001b610471565b806000806101000a81548160ff02191690831515021790555050565b600060029054906101000a900460ff1681565b6105667f157f11a9728dce47309625b16c88236dbc7a49645ef170624eab360c2b6a2b0560001b610471565b6105927faedf8ee1c6f00af0c1de478f885ca2f36be507bf5c6352976fe1231e9aa83fb760001b610471565b6105be7fc4d05aab3683dab549b71ddd92ed67f04fbd9dc7d71e182c82aefc752a67882c60001b610471565b80600060026101000a81548160ff02191690831515021790555050565b6106077fe1956a9f84f98b4ff1700afd6aa0ba05038b01e40daa7fbb91cfc0591f37746060001b610471565b6106337f8dd03740c8995d88938f5b1fe4ac6fb0f6e449139fbd143f799543405b568b1660001b610471565b61065f7fc2030b59c8e739e3e0df9531b6bf3e71b8013b603fad94049b9286e8dd86da8660001b610471565b80600060016101000a81548160ff02191690831515021790555050565b6106a87f63e03a5d8f60fe96f1e802203180526357cad3e4abb088739ac3d531cebcb9b360001b610471565b6106d47f1f4b28db5372b4e195bb38996f460aa3773d3ebfcdae3df354c1e68ea6bcc59560001b610471565b6107007f6139a634de2ee74d827c764a125f90565f5843054db7a3f6b995030a768ba13f60001b610471565b60005b8451811015611138576107387f3db82f09df0f454dce74a70aa897078088b6032ce67f5460ee891448778aae4060001b610471565b6107647f22df5b3848ce311a6c62c38bb308a8dde065bd7190c684288a1dbf2b42932edd60001b610471565b600085828151811061077257fe5b602002602001015190506107a87f42bd1dcd8633fd777b16e30e24cfad9043ef2d9662af002f6ab403052885c40060001b610471565b6107d47f8a802e54d246a34e6ce753649abaa16192fe6926dd8fefe41540374e8434448060001b610471565b60008583815181106107e257fe5b602002602001015190506108187f47d114402e5f8e0fc47335ffdadeb451e2a40e221fc624c65bbc6f8137a6b45e60001b610471565b6108447f3d202b19725989dea21a89279e208dd7e6b3a22d407dbcb16e2b309fb24a884c60001b610471565b600085848151811061085257fe5b602002602001015190506108887fff2fa2d9cadc106ece1150af03ee22c6575203570aab841027e2d7e06e387df560001b610471565b6108b47f79b55eb373c3bb627410d8e8960b677dfc71d2877a39193f173b49d34d61cf4060001b610471565b6108e07fc00b015b8bdefadf1204fd3fb385e946f8d92d7c5854136ff110d00a1df5427c60001b610471565b818373ffffffffffffffffffffffffffffffffffffffff166370a08231306040518263ffffffff1660e01b8152600401808273ffffffffffffffffffffffffffffffffffffffff16815260200191505060206040518083038186803b15801561094857600080fd5b505afa15801561095c573d6000803e3d6000fd5b505050506040513d602081101561097257600080fd5b8101908080519060200190929190505050146109f6576040517f08c379a00000000000000000000000000000000000000000000000000000000081526004018080602001828103825260198152602001807f494e56414c49445f464c4153484c4f414e5f42414c414e43450000000000000081525060200191505060405180910390fd5b610a227f8c35a490b8b694efb6fa551e9ed1c9024f17055ee004e08ff3de60a1895818c960001b610471565b610a4e7f2425cf099bb6ce38bb8ec3c534feab474465ab2a9ee08d34362235b36b30abda60001b610471565b610a7a7f5243b8ae19007447836603e5f780e63f4b267a25684d8527bee85fa14ff7edb360001b610471565b600060029054906101000a900460ff1615610c9857610abb7f127359bdb27eeb36904fc5e40b98a4e769289f8c9a9e3901768377eb87cbea3860001b610471565b610ae77f8dac1f71171a2c08f626d8d7eb5edc6dc81036d0feb2fa04adbffe16994ddc0860001b610471565b610b137f91b405656220d6b6ecdfeaa9e2833748141ffa9b20716b0e4a2e70a9f181033560001b610471565b3373ffffffffffffffffffffffffffffffffffffffff16635c38449e308a8a896040518563ffffffff1660e01b8152600401808573ffffffffffffffffffffffffffffffffffffffff168152602001806020018060200180602001848103845287818151815260200191508051906020019060200280838360005b83811015610ba9578082015181840152602081019050610b8e565b50505050905001848103835286818151815260200191508051906020019060200280838360005b83811015610beb578082015181840152602081019050610bd0565b50505050905001848103825285818151815260200191508051906020019080838360005b83811015610c2a578082015181840152602081019050610c0f565b50505050905090810190601f168015610c575780820380516001836020036101000a031916815260200191505b50975050505050505050600060405180830381600087803b158015610c7b57600080fd5b505af1158015610c8f573d6000803e3d6000fd5b50505050610cc5565b610cc47f897ba9746b6311cc0ce6477f496a5316163ae9883e8a7aca870781a706f56c0560001b610471565b5b610cf17f112bff935a57375a115a8d454b2f9aaf5e3db88d380fe4baca63a3fee9d3e13960001b610471565b610d1d7f487871835bc32195f5156ce83b22ffdff8bd8b00f04488b6061f6e5e5aa24ac660001b610471565b8273ffffffffffffffffffffffffffffffffffffffff166340c10f1930600060019054906101000a900460ff16610d545783610d69565b610d6860018561117490919063ffffffff16565b5b6040518363ffffffff1660e01b8152600401808373ffffffffffffffffffffffffffffffffffffffff16815260200182815260200192505050600060405180830381600087803b158015610dbc57600080fd5b505af1158015610dd0573d6000803e3d6000fd5b50505050610e007f882c119651ee2367815d88f8680c8390e816e368bba942ffa237a2cc83a4b75160001b610471565b610e2c7f6487a069dc4fc068eb35b0da54339306d985822f5f1c38ad27ffa367496d821f60001b610471565b6000610e41828461117490919063ffffffff16565b9050610e6f7f897c038f9f18243f276313ec316ca2daa0fe15fa0a6966d1c7decb73b122620360001b610471565b610e9b7fd9fbbc83baace769c92f1859c68e76a203cdc9a10b4d1fbf087c6d8b2b0bb6e460001b610471565b60008054906101000a900460ff16610f4c57610ed97f53e5ad05dd1bed149cfbfb1cdaf3ca8335921e6ba1771c65b58a9710f931f2db60001b610471565b610f057fbab52ea306212cc2523fd4fbde591f891b5d3ed826b729d7cee03e7c38ac49ff60001b610471565b610f317fe23153131add7d9b4b692af3a02c9b8ccbe542fb5d6107da90f380768bb476e260001b610471565b610f456001826112c990919063ffffffff16565b9050611086565b610f787f39abdde5bcc26895aaeaa84617bf26efdeffeba1b30a8b04339b77ae17b6659560001b610471565b610fa47f0a0802b1eeb9659b7944eeb06e261ec100486fab4e718313f9be1e989eef7f4760001b610471565b600060019054906101000a900460ff161561105857610fe57faaedb5154582f2c38bdff7285922db286b7765b8a0f12e996130861f5f04a01060001b610471565b6110117f78a515dcf056160f0ac703bfd75eb5505b8586241e6c4e7dae2c69399d78461360001b610471565b61103d7f2b8c6521b0bb4c65ca04dde1fa08e9abd232c4f1fb191238bbe753e94cb22e5860001b610471565b61105160018261117490919063ffffffff16565b9050611085565b6110847f823a337910b35a2c0a89d0dea03b12b327966829088c3693d062b9a408c49d4660001b610471565b5b5b6110b27f424ad4e4dec89f7ca534c32c7925b4355c1063b0fc166e2334c985dc78821a8b60001b610471565b6110de7f470543388f392af2193719eb6a739d0337d89a4c352d8d6aae9dc2186219057060001b610471565b6111297f0000000000000000000000000000000000000000000000000000000000000000828673ffffffffffffffffffffffffffffffffffffffff1661141e9092919063ffffffff16565b50505050806001019050610703565b5050505050565b60008054906101000a900460ff1681565b7f000000000000000000000000000000000000000000000000000000000000000081565b60006111a27fe9ab1930f8b2a33e186614bdc5275e5aef3bc5199db452be16b906fe891a7aef60001b611544565b6111ce7f672db28399f3b33e0df219cd59d4073e056f97e6f18dcebfa00f27c463d9fd7360001b611544565b6111fa7f0ab1a15c584dc550564822e51c90b6556d02439b72ef95c55813a7f4f670280f60001b611544565b6000828401905061122d7f4912ca1f746b67b87e92127e424ef610602ecd8455c415eca24e0e1efae1b65e60001b611544565b6112597f66114683dd19cf7947e3b2b818c6c55b57501af6e821e1cdb4f2f80d63a7276460001b611544565b611267848210156000611547565b6112937fb783f36a61aa5e73f22951df3681c2eb20b8fba57492aa9e4764edbd3684340b60001b611544565b6112bf7fe7b48b6ed0eb47f18bb58555642ad250e08b266847ceeeb5fe538202fc79104360001b611544565b8091505092915050565b60006112f77f4ad272e8ef896cf9749bbb33b720ec50902be1d6268b31d272f37eeffc01139760001b611544565b6113237ff5b8f6315ed04f6f880d15c913444893b354f451e1a7755f980256aa3a67eb1b60001b611544565b61134f7fbdc5b111411beb8ab6b53375bbc8bf4e74258c8c8f4987a4928ce54801c48b0060001b611544565b61135d838311156001611547565b6113897f878d38a5a5b3291f5b62618821c286b1ce4d8ac1fde0f5c52c6f8b253e3c721860001b611544565b6113b57fdee8db45952fd0881a888ce099e6774ada46e04a8240c739354e8b594734d0b160001b611544565b600082840390506113e87fa883eec5840f8062e57d5a86c35fd0af17f6df22b4081b6a3676dd71088ac1e360001b611544565b6114147fc44e06103de1985a150207dd6e5102796da4ff917908533e00a2fd2e75a52f9460001b611544565b8091505092915050565b61144a7f0c30be65a9683c16aceecbfcfba8c2d92dcc7c80b0f36b76b81f7f2ce7bdd34d60001b61155a565b6114767f77dcfa1de2e819f5686b2e9ea49a0d1fa6a1a52f0e5c05958f40c020b5e28fe560001b61155a565b6114a27f424b37de078654578e920afec2d135ac126ac9e4d8c5d991f6574ad131991e2660001b61155a565b61153f8363a9059cbb60e01b8484604051602401808373ffffffffffffffffffffffffffffffffffffffff16815260200182815260200192505050604051602081830303815290604052907bffffffffffffffffffffffffffffffffffffffffffffffffffffffff19166020820180517bffffffffffffffffffffffffffffffffffffffffffffffffffffffff838183161783525050505061155d565b505050565b50565b816115565761155581611776565b5b5050565b50565b6115897fc73e8649ad0ef875b1e018771227cf894f706428d24fb306d332cb64b663bde260001b61155a565b6115b57f5995e4ac6861bea4ec3dd78d65f64f09caaffdeba4cd04c1ef9414b2e767a94e60001b61155a565b6115e17ff0e8e33d2a56f579900eef6285e73397023cebacf08b2a9d5a8286d82842475d60001b61155a565b600060608373ffffffffffffffffffffffffffffffffffffffff16836040518082805190602001908083835b60208310611630578051825260208201915060208101905060208303925061160d565b6001836020036101000a0380198251168184511680821785525050505050509050019150506000604051808303816000865af19150503d8060008114611692576040519150601f19603f3d011682016040523d82523d6000602084013e611697565b606091505b50915091506116c87f6ad5e3f8c1e3e5c81d3da55aafebdde96316b7f9c2c2230c7facd9f79eef3ce860001b61155a565b60008214156116db573d6000803e3d6000fd5b6117077fb958f400fa826471aff355a8cca63ec547811ec79f0dde05c0a50c93dbf8ef4660001b61155a565b6117337f51db9918a38ecf7bbe13ee24e10adb6d30a55e9b1fa4b7b2b4e286335a3634ed60001b61155a565b611770600082511480611768575081806020019051602081101561175657600080fd5b81019080805190602001909291905050505b6101a2611547565b50505050565b6030600a820601600a820491506030600a830601600a830492506030600a8406018060101b8260081b8401016642414c230000000160c81b7f08c379a000000000000000000000000000000000000000000000000000000000600052602060045260076024528060445260646000fdfea2646970667358221220995ca38788a0846ad1f90d6e36ebeb049eea5436a676666e90339a44b5d964e964736f6c63430007010033",
  "linkReferences": {},
  "deployedLinkReferences": {}
}