{
  "_format": "hh-sol-artifact-1",
  "contractName": "MockFlashLoanRecipient",
  "sourceName": "contracts/balancer-core-v2/test/MockFlashLoanRecipient.sol",
  "abi": [
    {
      "inputs": [
        {
          "internalType": "address",
          "name": "_vault",
          "type": "address"
        }
      ],
      "stateMutability": "nonpayable",
      "type": "constructor"
    },
    {
      "inputs": [
        {
          "internalType": "bytes32",
          "name": "c__0x76e6d400",
          "type": "bytes32"
        }
      ],
      "name": "c_0x76e6d400",
      "outputs": [],
      "stateMutability": "pure",
      "type": "function"
    },
    {
      "inputs": [
        {
          "internalType": "contract IERC20[]",
          "name": "tokens",
          "type": "address[]"
        },
        {
          "internalType": "uint256[]",
          "name": "amounts",
          "type": "uint256[]"
        },
        {
          "internalType": "uint256[]",
          "name": "feeAmounts",
          "type": "uint256[]"
        },
        {
          "internalType": "bytes",
          "name": "userData",
          "type": "bytes"
        }
      ],
      "name": "receiveFlashLoan",
      "outputs": [],
      "stateMutability": "nonpayable",
      "type": "function"
    },
    {
      "inputs": [],
      "name": "reenter",
      "outputs": [
        {
          "internalType": "bool",
          "name": "",
          "type": "bool"
        }
      ],
      "stateMutability": "view",
      "type": "function"
    },
    {
      "inputs": [],
      "name": "repayInExcess",
      "outputs": [
        {
          "internalType": "bool",
          "name": "",
          "type": "bool"
        }
      ],
      "stateMutability": "view",
      "type": "function"
    },
    {
      "inputs": [],
      "name": "repayLoan",
      "outputs": [
        {
          "internalType": "bool",
          "name": "",
          "type": "bool"
        }
      ],
      "stateMutability": "view",
      "type": "function"
    },
    {
      "inputs": [
        {
          "internalType": "bool",
          "name": "_reenter",
          "type": "bool"
        }
      ],
      "name": "setReenter",
      "outputs": [],
      "stateMutability": "nonpayable",
      "type": "function"
    },
    {
      "inputs": [
        {
          "internalType": "bool",
          "name": "_repayInExcess",
          "type": "bool"
        }
      ],
      "name": "setRepayInExcess",
      "outputs": [],
      "stateMutability": "nonpayable",
      "type": "function"
    },
    {
      "inputs": [
        {
          "internalType": "bool",
          "name": "_repayLoan",
          "type": "bool"
        }
      ],
      "name": "setRepayLoan",
      "outputs": [],
      "stateMutability": "nonpayable",
      "type": "function"
    },
    {
      "inputs": [],
      "name": "vault",
      "outputs": [
        {
          "internalType": "address",
          "name": "",
          "type": "address"
        }
      ],
      "stateMutability": "view",
      "type": "function"
    }
  ],
  "bytecode": "0x60a06040523480156200001157600080fd5b5060405162001ae938038062001ae9833981810160405260208110156200003757600080fd5b81019080805190602001909291905050506200007c7f56d7660b083c0dd6d2289a3b9817c46849ee2685d7246aa3cc577a1211a3954560001b620002a860201b60201c565b620000b07f0203e5ce09e25bb0d3834c2a2f7f0bcfc966f4f5737885c48850f59925ce1a6960001b620002a860201b60201c565b620000e47f920339924d711f52bf0d6df9ec75290381cc97e009b2d0940f87bc02e94032c660001b620002a860201b60201c565b8073ffffffffffffffffffffffffffffffffffffffff1660808173ffffffffffffffffffffffffffffffffffffffff1660601b815250506200014f7fcc0aab1f24f16ed914d5a7a06573ef732b8eb67cd0525b9a683b4d55fd30795c60001b620002a860201b60201c565b620001837f9397d80533284f58365332a31051cf542d61fc5958c0af828c65f9138321d33d60001b620002a860201b60201c565b60016000806101000a81548160ff021916908315150217905550620001d17fafed34ddcb3eccdc2181ef2079d85d6471d2a54a38edca54c32d818862c2201160001b620002a860201b60201c565b620002057fec1224241331edec7ea7074512574693690cde4dd462ce7d85c10a1a5f0b585160001b620002a860201b60201c565b60008060016101000a81548160ff021916908315150217905550620002537f6a93011089d2f4d5b3f0f46c43084fa5faa19f370bcd1ee0ad0b8639597ed1ce60001b620002a860201b60201c565b620002877fdbaa9aa01beff38e383a5b2210f394e80045b839458f08b89881cac92fa7066060001b620002a860201b60201c565b60008060026101000a81548160ff02191690831515021790555050620002ab565b50565b60805160601c61181b620002ce600039806110e25280611151525061181b6000f3fe608060405234801561001057600080fd5b50600436106100a35760003560e01c8063a6af170311610076578063f04f27071161005b578063f04f2707146101a6578063f966ade71461041d578063fbfa77cf1461043d576100a3565b8063a6af170314610146578063b77f3a2314610176576100a3565b80633207ce3c146100a857806362a82399146100c85780639f09f8ba146100f8578063a0fe97e314610126575b600080fd5b6100b0610471565b60405180821515815260200191505060405180910390f35b6100f6600480360360208110156100de57600080fd5b81019080803515159060200190929190505050610484565b005b6101246004803603602081101561010e57600080fd5b8101908080359060200190929190505050610524565b005b61012e610527565b60405180821515815260200191505060405180910390f35b6101746004803603602081101561015c57600080fd5b8101908080351515906020019092919050505061053a565b005b6101a46004803603602081101561018c57600080fd5b810190808035151590602001909291905050506105db565b005b61041b600480360360808110156101bc57600080fd5b81019080803590602001906401000000008111156101d957600080fd5b8201836020820111156101eb57600080fd5b8035906020019184602083028401116401000000008311171561020d57600080fd5b919080806020026020016040519081016040528093929190818152602001838360200280828437600081840152601f19601f8201169050808301925050505050505091929192908035906020019064010000000081111561026d57600080fd5b82018360208201111561027f57600080fd5b803590602001918460208302840111640100000000831117156102a157600080fd5b919080806020026020016040519081016040528093929190818152602001838360200280828437600081840152601f19601f8201169050808301925050505050505091929192908035906020019064010000000081111561030157600080fd5b82018360208201111561031357600080fd5b8035906020019184602083028401116401000000008311171561033557600080fd5b919080806020026020016040519081016040528093929190818152602001838360200280828437600081840152601f19601f8201169050808301925050505050505091929192908035906020019064010000000081111561039557600080fd5b8201836020820111156103a757600080fd5b803590602001918460018302840111640100000000831117156103c957600080fd5b91908080601f016020809104026020016040519081016040528093929190818152602001838380828437600081840152601f19601f82011690508083019250505050505050919291929050505061067c565b005b61042561113e565b60405180821515815260200191505060405180910390f35b61044561114f565b604051808273ffffffffffffffffffffffffffffffffffffffff16815260200191505060405180910390f35b600060019054906101000a900460ff1681565b6104b07f0e0484d781a1f59828267e66b61dbfc24d48c9d5aca78a3ffe43c65df484c2b260001b610524565b6104dc7f51c37cdcb21abafeaeee7c3e5d6490d4efb5a6eeda179163b4920fbbf312b84a60001b610524565b6105087fd55ab20c96810c6005dccd5a2019474a167bf28af97659a7718bc20bf1bdff2a60001b610524565b806000806101000a81548160ff02191690831515021790555050565b50565b600060029054906101000a900460ff1681565b6105667fc7030cd17fe42d1f49e475df0d2b2960065b258297a285b178e5d1e8d377ae3960001b610524565b6105927f990b5b3421bc05d6abe992099d559136c395ed9b9d034ef4d4630ec6bef2597860001b610524565b6105be7f068c2d860450884dd9a111f1116985e9cb886ed3f24d3c49535406ffe15754a360001b610524565b80600060026101000a81548160ff02191690831515021790555050565b6106077feb7664f543a8170c1a4d4c00189774184ca16c21dc7f800fbb08518d4f6bce2360001b610524565b6106337fbe78fa6504ff96730f2df71fa44dee34adc5ca94bc9d4de7e82629489cc6ae2a60001b610524565b61065f7fa43f155ceeb47bc86d8055e971bdd2674f36b4c6cd2e9d3a27f8c067e6ac7ddd60001b610524565b80600060016101000a81548160ff02191690831515021790555050565b6106a87ff4252266d092202a290e24619d568a6d48d4f738ac712ddc8d714c68a7a736ad60001b610524565b6106d47f7120b19e1ffc0f72e94127a622dcae8440b6dadefc2060c7f3fd91a1428bf6e960001b610524565b6107007f896d09158791ea13da7db3bcd9a45d4a4c084594041c385921921fc53b34bca360001b610524565b60005b8451811015611137576107387f129d2c6053d5b92f7cb5d43674eebbfae84fe8d8dd986d2b2a038f199bc44f5f60001b610524565b6107647f1efb1a828c7a2210f84023a9baecc36954dceaa0a253aacdb08f0f50ae63bfc260001b610524565b600085828151811061077257fe5b602002602001015190506107a87f1b48d3429a980d8fa76ba1e85ffe6f19d41a2084914785fe456b2647fe6e2b3460001b610524565b6107d47ff7449487c1215c3cd6123de3c9270357a9fb17f1a0fe2c08714217d8188cd3d460001b610524565b60008583815181106107e257fe5b602002602001015190506108187f051dd8681774edece5558674d123c84f4a8a62cea4c37f8907adf13d4acf53b760001b610524565b6108447f86e21ac1bb774a8ea1532375869eb0a71da633aa059bd9303a0072ec8877220360001b610524565b600085848151811061085257fe5b602002602001015190506108887f8edae734c8e44b3b9c80f2105432b494c22e5c22ef83b37e72b7d6b37b5ea02a60001b610524565b6108b47f5377f4ffc6b5c9a27c91ab1c03b7da0ef70dd60c7f3a5fc2a916a3600efe9ceb60001b610524565b6108e07fb61ab148b8cbab671c3b0f6a9362224f81b9c86321432821611da1114f22b0e560001b610524565b818373ffffffffffffffffffffffffffffffffffffffff166370a08231306040518263ffffffff1660e01b8152600401808273ffffffffffffffffffffffffffffffffffffffff16815260200191505060206040518083038186803b15801561094857600080fd5b505afa15801561095c573d6000803e3d6000fd5b505050506040513d602081101561097257600080fd5b8101908080519060200190929190505050146109f6576040517f08c379a00000000000000000000000000000000000000000000000000000000081526004018080602001828103825260198152602001807f494e56414c49445f464c4153484c4f414e5f42414c414e43450000000000000081525060200191505060405180910390fd5b610a227f24d3e22457c12c4fa75d67eddd0760e25bb0ecb210f2aefb60d162cefc1fa5d460001b610524565b610a4e7fb9c6c3137bc397b1067593cc34d2ba8e243995e7bbe402ffefecf19ec2d4abd260001b610524565b610a7a7f1dcf84a372d8bafdb93028ca1bff2f1df00706cf8dc3a06a9cacb6d6e1bcba3860001b610524565b600060029054906101000a900460ff1615610c9857610abb7f0dd996aec5e9072c28a77063be3717d9d27fe63f225fb17cb5366ded76a8e5b360001b610524565b610ae77f1f3d40b952ecfd74a7407edef88eb328aa960aee1f72b83433fc3f9251356ef960001b610524565b610b137faff5a455cb6b3dd47b0af659dbe628eec9fdaea9f45af6032dbb2935f4e89a8f60001b610524565b3373ffffffffffffffffffffffffffffffffffffffff16635c38449e308a8a896040518563ffffffff1660e01b8152600401808573ffffffffffffffffffffffffffffffffffffffff168152602001806020018060200180602001848103845287818151815260200191508051906020019060200280838360005b83811015610ba9578082015181840152602081019050610b8e565b50505050905001848103835286818151815260200191508051906020019060200280838360005b83811015610beb578082015181840152602081019050610bd0565b50505050905001848103825285818151815260200191508051906020019080838360005b83811015610c2a578082015181840152602081019050610c0f565b50505050905090810190601f168015610c575780820380516001836020036101000a031916815260200191505b50975050505050505050600060405180830381600087803b158015610c7b57600080fd5b505af1158015610c8f573d6000803e3d6000fd5b50505050610cc5565b610cc47fd44838b2069aaa153e8ceaaeffb13df97dd0012295b46994cc2c7edeee2aaab060001b610524565b5b610cf17f1bd6f4df24b1d8fb99fe65ab4fbf549c52e9a7e4f7c8f711b3bda69a20f99a7b60001b610524565b610d1d7f6abbcc9590a8072db19d3abdc3580c47bd2347c5cf444518f134de69ab9bc75c60001b610524565b8273ffffffffffffffffffffffffffffffffffffffff166340c10f1930600060019054906101000a900460ff16610d545783610d69565b610d6860018561117390919063ffffffff16565b5b6040518363ffffffff1660e01b8152600401808373ffffffffffffffffffffffffffffffffffffffff16815260200182815260200192505050600060405180830381600087803b158015610dbc57600080fd5b505af1158015610dd0573d6000803e3d6000fd5b50505050610e007fe4d25fcad6f6c24bb396d19c51bc529b655ed706c46ad99b87fdd829f16cbce860001b610524565b610e2c7f66b64cab2d2dc7e99ee91f60fbebd5669e6c929b03b652085d6a3b20296e5bcf60001b610524565b6000610e41828461117390919063ffffffff16565b9050610e6f7f16e93ddc421180e99e413d8c27dfcafbbda117e46625da73403e256d930feb5060001b610524565b610e9b7f15b022fcb3245ec02dfc3802002e6cc7946d4a1d3a51970fec185e54d80be02260001b610524565b60008054906101000a900460ff16610f4c57610ed97f5fcad3dfcd7b80bb96f587c613addc44a3b02cac67f56d5a9ffa2cd7715ccece60001b610524565b610f057fbe633152541ed6b5a925f7debd4052a043ce99710c2fbb29337f69c1a790b43f60001b610524565b610f317fb1532da21a86e774590b9003d055848250cb0c310eca58ea6a7121801a27bc1d60001b610524565b610f456001826112c890919063ffffffff16565b9050611085565b610f787f3f5dd9da6b2501d4a223a32e46ffa63337916caf571a71e7e99e4087fd82ccdb60001b610524565b610fa47f7b5113b870fda07884d67e6fd2b9e6ddd5737c40add4dd3fb16cf5b3868b3b1660001b610524565b600060019054906101000a900460ff161561105757610fe57f28204c1ec0976db27430a6d88af79aa8d5199367e8affde7d5a4d00ec236b87b60001b610524565b6110117fbb97135441c9636295c671ec972dd0600c3487374f24aee266ac9c38bec632bc60001b610524565b61103c7eaea7d171d292e378054260576a4607b4f96ccc5c4be3d9359c58950d4b3dab60001b610524565b61105060018261117390919063ffffffff16565b9050611084565b6110837f2c833d4ef29bc859ccf174f7eea5c9839cdc5cdafdae59d02b86654494f0d4e760001b610524565b5b5b6110b17fba4e111ca2cd10870c9791a1d411c20e41a805094f935942e7b8b779ccc4c5ed60001b610524565b6110dd7f27547e11469b5f2bab654d8f9055da5d6a33d6125513edb35e26f7fcb7d6360c60001b610524565b6111287f0000000000000000000000000000000000000000000000000000000000000000828673ffffffffffffffffffffffffffffffffffffffff1661141d9092919063ffffffff16565b50505050806001019050610703565b5050505050565b60008054906101000a900460ff1681565b7f000000000000000000000000000000000000000000000000000000000000000081565b60006111a17f980f096ce2354611f661d545348edfcdbcf347f2d4fa9c9e2bc2234b96619b9160001b611543565b6111cd7f5203ec7b278d868f845c81d7f208837a954291190f8034ff73f1abf34395aea660001b611543565b6111f97f257b57fe7b6efcf88210c6d37adeac50f6bdc1270dca168497530cb49198dc7060001b611543565b6000828401905061122c7f2712f69a57bae2ee34b696a2281d5fca60f12eef2753ba12e108837883591b0f60001b611543565b6112587fa9717274421667e304f7b258221f6f83cbc1a3c12db3869b2bd07495ef02a7c060001b611543565b611266848210156000611546565b6112927fbb23a54f86bc4ea5e593a05f1ed17e1f4ec085fd337eb065fd05171873fa78d860001b611543565b6112be7f59b5f75a5714feab22828cb70c6ca1fd02547b7956d33b95658dc4dec174169460001b611543565b8091505092915050565b60006112f67fd3476389c9167915828e1c41fd58b501be617f81bcda7df7905ebaa183b3c4bd60001b611543565b6113227f763e3966e690f5b421dcd041f04b48a1b193ed59a99cfdb60b67ab3dfbf2eab360001b611543565b61134e7fd040ddffed94a5c3f1ea2412fc14f14911f62630c664bb38108164ba34c6c5bb60001b611543565b61135c838311156001611546565b6113887fc95d13badf35636a18cef429a1cc30fcff497d0f377233d60d91a54b5222bb6b60001b611543565b6113b47f28183ac30fe9ec9460a9d28cb4e04f1c3d89222564c20b044bc81e450ef8cb9760001b611543565b600082840390506113e77f2996cf182068f32853c4842e48ae8391b1959ea375b654bf401398afae3fb9a460001b611543565b6114137ffd16e19fe244cb693efc31c873bf159b238b28cd50bd7fb58b14e97f7b30750760001b611543565b8091505092915050565b6114497f826b3c2d923005c2743ec081c6e629f85e7b09506139153a93935e6e8ecb28ab60001b611559565b6114757f800e347e3e58022c658f648bed4d23cb6b3af8034b0337fb821c3c5b2c80068b60001b611559565b6114a17f40ad77c5d047e729da7f0083b41e58b8b25572e7f27c7a1ea1474ce159e69f7e60001b611559565b61153e8363a9059cbb60e01b8484604051602401808373ffffffffffffffffffffffffffffffffffffffff16815260200182815260200192505050604051602081830303815290604052907bffffffffffffffffffffffffffffffffffffffffffffffffffffffff19166020820180517bffffffffffffffffffffffffffffffffffffffffffffffffffffffff838183161783525050505061155c565b505050565b50565b816115555761155481611775565b5b5050565b50565b6115887f37a83b59fae1074b14d9f482cc90a27d1264db69cbe4cac9207e87f75c12bd4960001b611559565b6115b47fe9e63da1694b1fea95382f8746327af340d91196254ff97512c12a96fcd5e97160001b611559565b6115e07f897e3dad2a9a6a35640eb029e2738d7e6183eaff3f61136653368db2fd29c3f360001b611559565b600060608373ffffffffffffffffffffffffffffffffffffffff16836040518082805190602001908083835b6020831061162f578051825260208201915060208101905060208303925061160c565b6001836020036101000a0380198251168184511680821785525050505050509050019150506000604051808303816000865af19150503d8060008114611691576040519150601f19603f3d011682016040523d82523d6000602084013e611696565b606091505b50915091506116c77f78efc5d4151a293a6f454a45a34ba50a9f141b83db3fff9190727605df43933560001b611559565b60008214156116da573d6000803e3d6000fd5b6117067f8c72ea9591f6650733f56067de267801b32361942ff6960b908a6a839b15555160001b611559565b6117327f3a0300b5edcfe17b09d299fe0a8352dfda68dbec55ec758e345ba8c70305588160001b611559565b61176f600082511480611767575081806020019051602081101561175557600080fd5b81019080805190602001909291905050505b6101a2611546565b50505050565b6030600a820601600a820491506030600a830601600a830492506030600a8406018060101b8260081b8401016642414c230000000160c81b7f08c379a000000000000000000000000000000000000000000000000000000000600052602060045260076024528060445260646000fdfea2646970667358221220a4c7c0c66c32e6c03d32fafb4cf1fa08579066626b15f5a1d1d1588d8c65422064736f6c63430007010033",
  "linkReferences": {},
  "deployedLinkReferences": {}
}