{
  "_format": "hh-sol-artifact-1",
  "contractName": "MockPoolFactory",
  "sourceName": "contracts/balancer-core-v2/test/MockPoolFactory.sol",
  "abi": [
    {
      "inputs": [
        {
          "internalType": "contract IVault",
          "name": "_vault",
          "type": "address"
        }
      ],
      "stateMutability": "nonpayable",
      "type": "constructor"
    },
    {
      "anonymous": false,
      "inputs": [
        {
          "indexed": true,
          "internalType": "address",
          "name": "pool",
          "type": "address"
        }
      ],
      "name": "PoolCreated",
      "type": "event"
    },
    {
      "inputs": [
        {
          "internalType": "bytes32",
          "name": "c__0x5eae7510",
          "type": "bytes32"
        }
      ],
      "name": "c_0x5eae7510",
      "outputs": [],
      "stateMutability": "pure",
      "type": "function"
    },
    {
      "inputs": [
        {
          "internalType": "bytes32",
          "name": "c__0x8e682183",
          "type": "bytes32"
        }
      ],
      "name": "c_0x8e682183",
      "outputs": [],
      "stateMutability": "pure",
      "type": "function"
    },
    {
      "inputs": [],
      "name": "create",
      "outputs": [
        {
          "internalType": "address",
          "name": "",
          "type": "address"
        }
      ],
      "stateMutability": "nonpayable",
      "type": "function"
    },
    {
      "inputs": [],
      "name": "getVault",
      "outputs": [
        {
          "internalType": "contract IVault",
          "name": "",
          "type": "address"
        }
      ],
      "stateMutability": "view",
      "type": "function"
    },
    {
      "inputs": [
        {
          "internalType": "address",
          "name": "pool",
          "type": "address"
        }
      ],
      "name": "isPoolFromFactory",
      "outputs": [
        {
          "internalType": "bool",
          "name": "",
          "type": "bool"
        }
      ],
      "stateMutability": "view",
      "type": "function"
    }
  ],
  "bytecode": "0x60a060405234801561001057600080fd5b50604051610b4e380380610b4e83398181016040528101906100329190610154565b806100657ff1b853c90de5ec8f2626b291240c0329ab402bf7285c35364e855b314f3e25cf60001b61013960201b60201c565b6100977f8f172e65181491b962547d22107d011eea6571c30ea82e2f64ceeb978d54a64260001b61013960201b60201c565b6100c97fdb7e6aecacee55715d6d3167a7dc2cd5d18ed5dc0082172394bf52850f5a54d160001b61013960201b60201c565b8073ffffffffffffffffffffffffffffffffffffffff1660808173ffffffffffffffffffffffffffffffffffffffff1660601b81525050506101337ffa62759e36b15ae94742c7a60aba293249b7c85a94285eafd6ad7ae630aa4b0860001b61013c60201b60201c565b506101d8565b50565b50565b60008151905061014e816101c1565b92915050565b60006020828403121561016657600080fd5b60006101748482850161013f565b91505092915050565b6000610188826101a1565b9050919050565b600061019a8261017d565b9050919050565b600073ffffffffffffffffffffffffffffffffffffffff82169050919050565b6101ca8161018f565b81146101d557600080fd5b50565b60805160601c6109596101f56000398061027652506109596000f3fe608060405234801561001057600080fd5b50600436106100665760003560e01c80636634b753116100505780636634b753146100a35780638d928af8146100d3578063efc81a8c146100f157610066565b8062e94d341461006b57806304d4918714610087575b600080fd5b610085600480360381019061008091906105e6565b61010f565b005b6100a1600480360381019061009c91906105e6565b610112565b005b6100bd60048036038101906100b891906105bd565b610115565b6040516100ca9190610657565b60405180910390f35b6100db6101ee565b6040516100e89190610672565b60405180910390f35b6100f961029a565b604051610106919061063c565b60405180910390f35b50565b50565b60006101437f2cc41fde7e957be0eadefa6f7407bb172eb1cf50fa85041ec354b3e3fcf53cec60001b61010f565b61016f7f66fe7eb34149b5cbe8367e2d14e147691f349120db2e1b7eb72d26fbbd0f55d460001b61010f565b61019b7fdee68a6874723a7d670417ce49ba7a5ce8fb022fafaeebb1e45cdb140077744260001b61010f565b6000808373ffffffffffffffffffffffffffffffffffffffff1673ffffffffffffffffffffffffffffffffffffffff16815260200190815260200160002060009054906101000a900460ff169050919050565b600061021c7f29383d2b5fccfe6243d83518ea8a13bcec4fbaf9b63e72f400424e351aa9da6e60001b61010f565b6102487fa1b458a210f682a225edc6521d6f76da2906693897d9ef2af953b00efba17b5660001b61010f565b6102747f6743e0ae474cde26b4ba4d0f48fe33a27361a79156ad5adfa4d3d550999ccb4760001b61010f565b7f0000000000000000000000000000000000000000000000000000000000000000905090565b60006102c87f2a0783d64c578b236e2fde8d940204b6460567d763d0149c02dbd6654b08cc8e60001b610112565b6102f47f0c0ec5b429393763892c358adc66b5df93877ec65826750540040673280442f060001b610112565b6103207f4a44c0f3074356e24b946a7938d334b1d711bf58d1ff7fc99c8d7bf22bc0a1bf60001b610112565b600060405161032e90610586565b604051809103906000f08015801561034a573d6000803e3d6000fd5b5090506103797f337cfebaf9456245fdc5f7370561b827c7c168c000506531df44a69a840a2a8c60001b610112565b6103a57f178fe39fed9da1d15be9fe84230c908638a5a7c6ce837b4dc8ef895d995507e660001b610112565b6103ae8161040d565b6103da7f263cf6adf4c19b4e76f0c15d519c6e06c76c0a649c64a2a414dcd0a359e2fda460001b610112565b6104067f777f619b63b07a77bc681da3fe97f06417bdf64d5fe00f61cdef45d5b348470b60001b610112565b8091505090565b6104397f85f2440d3bb413e87063f72fc4b73b12a22bdfeb26af00edc6d66e81b2e166df60001b61010f565b6104657f3a150163ba55e1517b963ccf2da19324a13f1ad865abb9cddb82043fd08dfbfc60001b61010f565b6104917f34e9ed9a5e996923a8769a6b01249ee6d941739692e2712e169efeba4465198a60001b61010f565b60016000808373ffffffffffffffffffffffffffffffffffffffff1673ffffffffffffffffffffffffffffffffffffffff16815260200190815260200160002060006101000a81548160ff0219169083151502179055506105147f329cd91c48c66683c5b31a15b829f1ddeae0d32529263d548808e851d7e3bba060001b61010f565b6105407fc27850424ca1a424c8c26281dc33cbc76f2991719eebb4eecd1f831cdf11585a60001b61010f565b8073ffffffffffffffffffffffffffffffffffffffff167f83a48fbcfc991335314e74d0496aab6a1987e992ddc85dddbcc4d6dd6ef2e9fc60405160405180910390a250565b6101fc8061072883390190565b6000813590506105a2816106f9565b92915050565b6000813590506105b781610710565b92915050565b6000602082840312156105cf57600080fd5b60006105dd84828501610593565b91505092915050565b6000602082840312156105f857600080fd5b6000610606848285016105a8565b91505092915050565b6106188161068d565b82525050565b6106278161069f565b82525050565b610636816106d5565b82525050565b6000602082019050610651600083018461060f565b92915050565b600060208201905061066c600083018461061e565b92915050565b6000602082019050610687600083018461062d565b92915050565b6000610698826106b5565b9050919050565b60008115159050919050565b6000819050919050565b600073ffffffffffffffffffffffffffffffffffffffff82169050919050565b60006106e0826106e7565b9050919050565b60006106f2826106b5565b9050919050565b6107028161068d565b811461070d57600080fd5b50565b610719816106ab565b811461072457600080fd5b5056fe608060405234801561001057600080fd5b506101dc806100206000396000f3fe608060405234801561001057600080fd5b50600436106100365760003560e01c806338fff2d01461003b578063775ac1d914610059575b600080fd5b610043610075565b604051610050919061016a565b60405180910390f35b610073600480360381019061006e9190610132565b61011a565b005b60006100a37f6ebdeb967fd8e9b6c56ce4545ba4d57f9145827169f0223dfd340ebba576273d60001b61011a565b6100cf7fa24766176463463368bf2d8e54b3c50ec6f972a0de63cfe7995aac87329458f860001b61011a565b6100fb7fed0ae628e0cabdd087d55ab4c6c6a8403458bc594c6cbd1f3617397fcf00fc7960001b61011a565b3073ffffffffffffffffffffffffffffffffffffffff1660001b905090565b50565b60008135905061012c8161018f565b92915050565b60006020828403121561014457600080fd5b60006101528482850161011d565b91505092915050565b61016481610185565b82525050565b600060208201905061017f600083018461015b565b92915050565b6000819050919050565b61019881610185565b81146101a357600080fd5b5056fea2646970667358221220644067f12d7da7c1df5a9d1af917457df64d25d34b96e223550e87a6875cbefb64736f6c63430007010033a2646970667358221220f057924b895507ab6dd7f5d758cd84d3d116fc1d8f00876bbd3cb9e7b58e7b8764736f6c63430007010033",
  "linkReferences": {},
  "deployedLinkReferences": {}
}