{
  "_format": "hh-sol-artifact-1",
  "contractName": "MockFactoryCreatedPool",
  "sourceName": "contracts/balancer-core-v2/test/MockPoolFactory.sol",
  "abi": [
    {
      "inputs": [
        {
          "internalType": "bytes32",
          "name": "c__0xdc0960d1",
          "type": "bytes32"
        }
      ],
      "name": "c_0xdc0960d1",
      "outputs": [],
      "stateMutability": "pure",
      "type": "function"
    },
    {
      "inputs": [],
      "name": "getPoolId",
      "outputs": [
        {
          "internalType": "bytes32",
          "name": "",
          "type": "bytes32"
        }
      ],
      "stateMutability": "view",
      "type": "function"
    }
  ],
  "bytecode": "0x608060405234801561001057600080fd5b506101dc806100206000396000f3fe608060405234801561001057600080fd5b50600436106100365760003560e01c806338fff2d01461003b578063775ac1d914610059575b600080fd5b610043610075565b604051610050919061016a565b60405180910390f35b610073600480360381019061006e9190610132565b61011a565b005b60006100a37f6ebdeb967fd8e9b6c56ce4545ba4d57f9145827169f0223dfd340ebba576273d60001b61011a565b6100cf7fa24766176463463368bf2d8e54b3c50ec6f972a0de63cfe7995aac87329458f860001b61011a565b6100fb7fed0ae628e0cabdd087d55ab4c6c6a8403458bc594c6cbd1f3617397fcf00fc7960001b61011a565b3073ffffffffffffffffffffffffffffffffffffffff1660001b905090565b50565b60008135905061012c8161018f565b92915050565b60006020828403121561014457600080fd5b60006101528482850161011d565b91505092915050565b61016481610185565b82525050565b600060208201905061017f600083018461015b565b92915050565b6000819050919050565b61019881610185565b81146101a357600080fd5b5056fea2646970667358221220644067f12d7da7c1df5a9d1af917457df64d25d34b96e223550e87a6875cbefb64736f6c63430007010033",
  "linkReferences": {},
  "deployedLinkReferences": {}
}