{
  "_format": "hh-sol-artifact-1",
  "contractName": "MockFactoryCreatedPool",
  "sourceName": "contracts/balancer-core-v2/test/MockPoolFactory.sol",
  "abi": [
    {
      "inputs": [
        {
          "internalType": "bytes32",
          "name": "c__0x24086a23",
          "type": "bytes32"
        }
      ],
      "name": "c_0x24086a23",
      "outputs": [],
      "stateMutability": "pure",
      "type": "function"
    },
    {
      "inputs": [],
      "name": "getPoolId",
      "outputs": [
        {
          "internalType": "bytes32",
          "name": "",
          "type": "bytes32"
        }
      ],
      "stateMutability": "view",
      "type": "function"
    }
  ],
  "bytecode": "0x608060405234801561001057600080fd5b506101dc806100206000396000f3fe608060405234801561001057600080fd5b50600436106100365760003560e01c806338fff2d01461003b578063d9ccea2614610059575b600080fd5b610043610075565b604051610050919061016a565b60405180910390f35b610073600480360381019061006e9190610132565b61011a565b005b60006100a37f240fe2d1093a78be9cc124c412c66a543e5509b1249b7abbe327743ca1c80e2e60001b61011a565b6100cf7fbfdbc3c087be508c7e502d7fcfd33013fd04efbfba46b63764b461cd1eca5fee60001b61011a565b6100fb7fe00bd555e104eddabd9d7478682929636a402651625bb355be84894fcdf3106160001b61011a565b3073ffffffffffffffffffffffffffffffffffffffff1660001b905090565b50565b60008135905061012c8161018f565b92915050565b60006020828403121561014457600080fd5b60006101528482850161011d565b91505092915050565b61016481610185565b82525050565b600060208201905061017f600083018461015b565b92915050565b6000819050919050565b61019881610185565b81146101a357600080fd5b5056fea264697066735822122042800b2dbe46bcd2088f735b46a6a9b21157fcfa60752318bb90af62b9c20e8364736f6c63430007010033",
  "linkReferences": {},
  "deployedLinkReferences": {}
}