{
  "_format": "hh-sol-artifact-1",
  "contractName": "MockPoolFactory",
  "sourceName": "contracts/balancer-core-v2/test/MockPoolFactory.sol",
  "abi": [
    {
      "inputs": [
        {
          "internalType": "contract IVault",
          "name": "_vault",
          "type": "address"
        }
      ],
      "stateMutability": "nonpayable",
      "type": "constructor"
    },
    {
      "anonymous": false,
      "inputs": [
        {
          "indexed": true,
          "internalType": "address",
          "name": "pool",
          "type": "address"
        }
      ],
      "name": "PoolCreated",
      "type": "event"
    },
    {
      "inputs": [
        {
          "internalType": "bytes32",
          "name": "c__0x194770a5",
          "type": "bytes32"
        }
      ],
      "name": "c_0x194770a5",
      "outputs": [],
      "stateMutability": "pure",
      "type": "function"
    },
    {
      "inputs": [
        {
          "internalType": "bytes32",
          "name": "c__0xeb049afd",
          "type": "bytes32"
        }
      ],
      "name": "c_0xeb049afd",
      "outputs": [],
      "stateMutability": "pure",
      "type": "function"
    },
    {
      "inputs": [],
      "name": "create",
      "outputs": [
        {
          "internalType": "address",
          "name": "",
          "type": "address"
        }
      ],
      "stateMutability": "nonpayable",
      "type": "function"
    },
    {
      "inputs": [],
      "name": "getVault",
      "outputs": [
        {
          "internalType": "contract IVault",
          "name": "",
          "type": "address"
        }
      ],
      "stateMutability": "view",
      "type": "function"
    },
    {
      "inputs": [
        {
          "internalType": "address",
          "name": "pool",
          "type": "address"
        }
      ],
      "name": "isPoolFromFactory",
      "outputs": [
        {
          "internalType": "bool",
          "name": "",
          "type": "bool"
        }
      ],
      "stateMutability": "view",
      "type": "function"
    }
  ],
  "bytecode": "0x60a060405234801561001057600080fd5b50604051610b4f380380610b4f83398181016040528101906100329190610154565b806100657f61d8d8d76e53cf11747eb5cc988e0fe9b1709267ed98ac2f59e033ac0d91c06e60001b61013960201b60201c565b6100977f92d506d176a7be73820e02e0211d4846de34702cb02a50e31880dedcc69dabd860001b61013960201b60201c565b6100c97f3cc5a119a31ba9785d885b932b2df040ea49b9781a4a6f89decbea6e983a13f960001b61013960201b60201c565b8073ffffffffffffffffffffffffffffffffffffffff1660808173ffffffffffffffffffffffffffffffffffffffff1660601b81525050506101337f11d6e2fbc77cc6c723c14a5233c6404f47f13635f84e61a8a566b62d0091548660001b61013c60201b60201c565b506101d8565b50565b50565b60008151905061014e816101c1565b92915050565b60006020828403121561016657600080fd5b60006101748482850161013f565b91505092915050565b6000610188826101a1565b9050919050565b600061019a8261017d565b9050919050565b600073ffffffffffffffffffffffffffffffffffffffff82169050919050565b6101ca8161018f565b81146101d557600080fd5b50565b60805160601c61095a6101f560003980610277525061095a6000f3fe608060405234801561001057600080fd5b50600436106100675760003560e01c806370276c661161005057806370276c66146100b85780638d928af8146100d4578063efc81a8c146100f257610067565b806321c26b861461006c5780636634b75314610088575b600080fd5b610086600480360381019061008191906105e7565b610110565b005b6100a2600480360381019061009d91906105be565b610113565b6040516100af9190610658565b60405180910390f35b6100d260048036038101906100cd91906105e7565b6101ec565b005b6100dc6101ef565b6040516100e99190610673565b60405180910390f35b6100fa61029b565b604051610107919061063d565b60405180910390f35b50565b60006101417fd3c8027702b236c24577353159cf1cc854587e22527d1cc344fa74b9000ef6a760001b610110565b61016d7f5d47cfa015c1ee674e7855e39fed5ca46afcfa21aa79b49372f856a4e7f993e260001b610110565b6101997fd10411fe9dda4274317f0c686bb13cc42d2f79945879cfbed16ea7f2563cdfb360001b610110565b6000808373ffffffffffffffffffffffffffffffffffffffff1673ffffffffffffffffffffffffffffffffffffffff16815260200190815260200160002060009054906101000a900460ff169050919050565b50565b600061021d7f6cd9030cda83876f8ac4e2a4d2807d2bfbc00591af3f2148a2a3fa1225f1d73960001b610110565b6102497f95d91e47f7037f4123dec087af5d2bcc805ef86fc4847fa477be455423a189c860001b610110565b6102757fb5dd28f00893ee2beee98eb9bb0bc1ef9c3b950e349d1dc37ec77064d8b2e52960001b610110565b7f0000000000000000000000000000000000000000000000000000000000000000905090565b60006102c97faf59ab3715399d8b939c55a07fde566fba1fcc3b66fb4b15f02195896136639060001b6101ec565b6102f57fbe0698608d74ae3cae40ac7194278ec3ca75926f17d0ffb7ec7be7b0e5ca185960001b6101ec565b6103217f28346db21bca2ea64ebcd1cf6b5fd3f68bf2853f61c6c2a33dc48dd53b10bca560001b6101ec565b600060405161032f90610587565b604051809103906000f08015801561034b573d6000803e3d6000fd5b50905061037a7f1d0815a8dac1c6f9d7c66597309ac2342de6f1458dc7533e2536985a4996a7af60001b6101ec565b6103a67f0221ed1f06933e4a3fc3e4767a0fe3c579db579a54695d072fd3a06d1f909ac560001b6101ec565b6103af8161040e565b6103db7f5d518433bd8e2cfd877a437ae755883d427b99850297ca41ac29299a7b9e161760001b6101ec565b6104077f38870d69760f64e77926595de5f1343072eb4aa361ae8445429c29e3b127007060001b6101ec565b8091505090565b61043a7f8ef6eb68b8986d1cc1a47d4a43d933bb8b930b8b48846895ff2bec4ecfbe90c760001b610110565b6104667ff7d218abc4d94c4d150bfa846ab5c328464d4fc70b77544343fca07f22fc6cc660001b610110565b6104927f6e3037d80386ba9e51a28d62362bbbbcef8937ab15d9ba5ec250de724495dfe360001b610110565b60016000808373ffffffffffffffffffffffffffffffffffffffff1673ffffffffffffffffffffffffffffffffffffffff16815260200190815260200160002060006101000a81548160ff0219169083151502179055506105157f4081e062e44bb0e9b7b4c4eb9323939390c429da605edb9c924f72b0d2eb019f60001b610110565b6105417fc3ac7cbdc23d571617d756697db35693a15fb867999cd0c8b2ca0e1d1f24dfa960001b610110565b8073ffffffffffffffffffffffffffffffffffffffff167f83a48fbcfc991335314e74d0496aab6a1987e992ddc85dddbcc4d6dd6ef2e9fc60405160405180910390a250565b6101fc8061072983390190565b6000813590506105a3816106fa565b92915050565b6000813590506105b881610711565b92915050565b6000602082840312156105d057600080fd5b60006105de84828501610594565b91505092915050565b6000602082840312156105f957600080fd5b6000610607848285016105a9565b91505092915050565b6106198161068e565b82525050565b610628816106a0565b82525050565b610637816106d6565b82525050565b60006020820190506106526000830184610610565b92915050565b600060208201905061066d600083018461061f565b92915050565b6000602082019050610688600083018461062e565b92915050565b6000610699826106b6565b9050919050565b60008115159050919050565b6000819050919050565b600073ffffffffffffffffffffffffffffffffffffffff82169050919050565b60006106e1826106e8565b9050919050565b60006106f3826106b6565b9050919050565b6107038161068e565b811461070e57600080fd5b50565b61071a816106ac565b811461072557600080fd5b5056fe608060405234801561001057600080fd5b506101dc806100206000396000f3fe608060405234801561001057600080fd5b50600436106100365760003560e01c806338fff2d01461003b578063d9ccea2614610059575b600080fd5b610043610075565b604051610050919061016a565b60405180910390f35b610073600480360381019061006e9190610132565b61011a565b005b60006100a37f240fe2d1093a78be9cc124c412c66a543e5509b1249b7abbe327743ca1c80e2e60001b61011a565b6100cf7fbfdbc3c087be508c7e502d7fcfd33013fd04efbfba46b63764b461cd1eca5fee60001b61011a565b6100fb7fe00bd555e104eddabd9d7478682929636a402651625bb355be84894fcdf3106160001b61011a565b3073ffffffffffffffffffffffffffffffffffffffff1660001b905090565b50565b60008135905061012c8161018f565b92915050565b60006020828403121561014457600080fd5b60006101528482850161011d565b91505092915050565b61016481610185565b82525050565b600060208201905061017f600083018461015b565b92915050565b6000819050919050565b61019881610185565b81146101a357600080fd5b5056fea264697066735822122042800b2dbe46bcd2088f735b46a6a9b21157fcfa60752318bb90af62b9c20e8364736f6c63430007010033a26469706673582212205a2cac577bbf740b012bd074f79782a6b1ed6834449f0673b590ac202c49d69e64736f6c63430007010033",
  "linkReferences": {},
  "deployedLinkReferences": {}
}