{
  "_format": "hh-sol-artifact-1",
  "contractName": "WeightedPool2TokensFactory",
  "sourceName": "contracts/balancer-core-v2/pools/weighted/WeightedPool2TokensFactory.sol",
  "abi": [
    {
      "inputs": [
        {
          "internalType": "contract IVault",
          "name": "vault",
          "type": "address"
        }
      ],
      "stateMutability": "nonpayable",
      "type": "constructor"
    },
    {
      "anonymous": false,
      "inputs": [
        {
          "indexed": true,
          "internalType": "address",
          "name": "pool",
          "type": "address"
        }
      ],
      "name": "PoolCreated",
      "type": "event"
    },
    {
      "inputs": [
        {
          "internalType": "bytes32",
          "name": "c__0x5eae7510",
          "type": "bytes32"
        }
      ],
      "name": "c_0x5eae7510",
      "outputs": [],
      "stateMutability": "pure",
      "type": "function"
    },
    {
      "inputs": [
        {
          "internalType": "bytes32",
          "name": "c__0x75a1cbac",
          "type": "bytes32"
        }
      ],
      "name": "c_0x75a1cbac",
      "outputs": [],
      "stateMutability": "pure",
      "type": "function"
    },
    {
      "inputs": [
        {
          "internalType": "bytes32",
          "name": "c__0xf1be4fee",
          "type": "bytes32"
        }
      ],
      "name": "c_0xf1be4fee",
      "outputs": [],
      "stateMutability": "pure",
      "type": "function"
    },
    {
      "inputs": [
        {
          "internalType": "string",
          "name": "name",
          "type": "string"
        },
        {
          "internalType": "string",
          "name": "symbol",
          "type": "string"
        },
        {
          "internalType": "contract IERC20[]",
          "name": "tokens",
          "type": "address[]"
        },
        {
          "internalType": "uint256[]",
          "name": "weights",
          "type": "uint256[]"
        },
        {
          "internalType": "uint256",
          "name": "swapFeePercentage",
          "type": "uint256"
        },
        {
          "internalType": "bool",
          "name": "oracleEnabled",
          "type": "bool"
        },
        {
          "internalType": "address",
          "name": "owner",
          "type": "address"
        }
      ],
      "name": "create",
      "outputs": [
        {
          "internalType": "address",
          "name": "",
          "type": "address"
        }
      ],
      "stateMutability": "nonpayable",
      "type": "function"
    },
    {
      "inputs": [],
      "name": "getPauseConfiguration",
      "outputs": [
        {
          "internalType": "uint256",
          "name": "pauseWindowDuration",
          "type": "uint256"
        },
        {
          "internalType": "uint256",
          "name": "bufferPeriodDuration",
          "type": "uint256"
        }
      ],
      "stateMutability": "view",
      "type": "function"
    },
    {
      "inputs": [],
      "name": "getVault",
      "outputs": [
        {
          "internalType": "contract IVault",
          "name": "",
          "type": "address"
        }
      ],
      "stateMutability": "view",
      "type": "function"
    },
    {
      "inputs": [
        {
          "internalType": "address",
          "name": "pool",
          "type": "address"
        }
      ],
      "name": "isPoolFromFactory",
      "outputs": [
        {
          "internalType": "bool",
          "name": "",
          "type": "bool"
        }
      ],
      "stateMutability": "view",
      "type": "function"
    }
  ],
  "bytecode": "0x60c06040523480156200001157600080fd5b506040516201fc8d3803806201fc8d833981810160405281019062000037919062000210565b806200006c7ff1b853c90de5ec8f2626b291240c0329ab402bf7285c35364e855b314f3e25cf60001b620001f060201b60201c565b620000a07f8f172e65181491b962547d22107d011eea6571c30ea82e2f64ceeb978d54a64260001b620001f060201b60201c565b620000d47fdb7e6aecacee55715d6d3167a7dc2cd5d18ed5dc0082172394bf52850f5a54d160001b620001f060201b60201c565b8073ffffffffffffffffffffffffffffffffffffffff1660808173ffffffffffffffffffffffffffffffffffffffff1660601b8152505050620001407f466137b22d0c7dd98c368f073da2069606214008c595943cffc159df242812f960001b620001f360201b60201c565b620001747f3489a113de9124b0929876167b6198fb735181de2da5af2333e46d37805e72d960001b620001f360201b60201c565b620001a87f4997d55b258e281d386832b71c4b1f39dfbfc9b60de5200bff4353f97009118560001b620001f360201b60201c565b6276a700420160a08181525050620001e97fe78004bb4cb6d76c88100afe0577565358a8e8f8fe2184744dab860dd07b627c60001b620001f660201b60201c565b506200029e565b50565b50565b50565b6000815190506200020a8162000284565b92915050565b6000602082840312156200022357600080fd5b60006200023384828501620001f9565b91505092915050565b6000620002498262000264565b9050919050565b60006200025d826200023c565b9050919050565b600073ffffffffffffffffffffffffffffffffffffffff82169050919050565b6200028f8162000250565b81146200029b57600080fd5b50565b60805160601c60a0516201f9c1620002cc6000398061060f52806106c35250806109ae52506201f9c16000f3fe60806040523480156200001157600080fd5b5060043610620000875760003560e01c80632da47c4011620000635780632da47c4014620001025780636634b75314620001255780638d928af8146200015b578063b0ccaa00146200017d5762000087565b8062e94d34146200008c57806308ed56a514620000ac5780631596019b14620000cc575b600080fd5b620000aa6004803603810190620000a4919062000e37565b6200019d565b005b620000ca6004803603810190620000c4919062000e37565b620001a0565b005b620000ea6004803603810190620000e4919062000e63565b620001a3565b604051620000f9919062001171565b60405180910390f35b6200010c6200051f565b6040516200011c929190620011ec565b60405180910390f35b6200014360048036038101906200013d919062000e0b565b62000841565b6040516200015291906200118e565b60405180910390f35b6200016562000920565b604051620001749190620011ab565b60405180910390f35b6200019b600480360381019062000195919062000e37565b620009d2565b005b50565b50565b6000620001d37f83a5673a5e08951c2f457483d9073dd4ef0ad72010461e99ee1ba579cc13637d60001b620009d2565b620002017fae31ad0de90274c42634fc1a0b2489f04246ab77e3bf40dac1f66d32990e1a1260001b620009d2565b6200022f7f4612d297cceb7b35c5522eb872f873ec0a0f3f9bfe920bca83df1e14cb1c997860001b620009d2565b6000806200023c6200051f565b915091506200026e7f7ca645d465c1e64a1225eb367337238b421428d6d0db65cc082064889135374c60001b620009d2565b6200029c7f6f5c89acac3ae80cb194bfaf0e6be3735e6a61691e2cf8ecadc5c9f856fd42f560001b620009d2565b620002a662000b58565b604051806101800160405280620002bc62000920565b73ffffffffffffffffffffffffffffffffffffffff1681526020018c81526020018b81526020018a600081518110620002f157fe5b602002602001015173ffffffffffffffffffffffffffffffffffffffff1681526020018a6001815181106200032257fe5b602002602001015173ffffffffffffffffffffffffffffffffffffffff168152602001896000815181106200035357fe5b60200260200101518152602001896001815181106200036e57fe5b6020026020010151815260200188815260200184815260200183815260200187151581526020018673ffffffffffffffffffffffffffffffffffffffff168152509050620003df7fcf9c84d17c287006f4e621a4cb601af22576debf9c5de3fd559a455bb029d59f60001b620009d2565b6200040d7f281d140c1f24e50ca05a2d258226bcedb71b457f04d9ec79e7050fcd80af3a3b60001b620009d2565b6000816040516200041e9062000c13565b6200042a9190620011c8565b604051809103906000f08015801562000447573d6000803e3d6000fd5b509050620004787fa62233499f14fe9cf1d933a24b7cd91056f204a315c41f7f22542c5942398afd60001b620009d2565b620004a67fc96ac45775033d3f6784d29b3859c96879e74a1781a96a5e77eb75505c4f858260001b620009d2565b620004b181620009d5565b620004df7f9b26376c342602fa37fbd637b799cdf1edcde0d9ffccede477a5d612f2435a4760001b620009d2565b6200050d7f3abe3f527ab10fa2a51929ec4a27fd4d9efff48092e6f113c4c3a9aed66fb06b60001b620009d2565b80945050505050979650505050505050565b600080620005507f4664d8b33c13761858c67ee8bea76f7b1064ee802e1435539fce3982a26d188a60001b620001a0565b6200057e7f293351dddbc71cd54a76813b9156ef540fe941bd394894b049c2c4d9fc9f66da60001b620001a0565b620005ac7f634219e96c792fc85a2199cdb6b8be542fa4f63f7082679cd4e766e10a37a0c260001b620001a0565b6000429050620005df7f6ac902c79dba6a085cf45bd6deb709ea65276123acd51adbceb04e5af6c8ad7c60001b620001a0565b6200060d7f2d145d6374c9c442c5e973195b846848213a25adca787ac5fcf199ddb8da448660001b620001a0565b7f00000000000000000000000000000000000000000000000000000000000000008110156200074d57620006647ff847546271070d177581854ac34d1bd55a6d3c5b182bf07e94a1660880afd5ab60001b620001a0565b620006927fb05464517a60bbe056900fdc2dc51625fca528157aeee13875a9399015a6d0f360001b620001a0565b620006c07f3e7d864508a0837b8d0647223f82fe15bea6dab55ee5c1852a06bc70b6b0032b60001b620001a0565b807f0000000000000000000000000000000000000000000000000000000000000000039250620007137f58fd67b979cf09091c02422daaa2dd3b003fa661d9131c07939fa99de3c2048260001b620001a0565b620007417f7e0ea095279b18c09160c90ea45a9454b8f76f280f92874328686b77495e484160001b620001a0565b62278d0091506200083c565b6200077b7f41def708acf3a7d06a980b11ea0bab247888356f31cc0206b65381791329484160001b620001a0565b620007a97f02a4a3fa4b683a9489057270a94e2d015325d5a2abedf117b59f8db2752bef1660001b620001a0565b620007d77f06fa57e428804da6c870510ae4efdb26610e8c78424b3d2888744dcb942ab3b260001b620001a0565b60009250620008097f416673a30447260c9d32feeef0edd2c6a726715230ca165567b1d9cbff26b25c60001b620001a0565b620008377f99de698ff774f6d61f60b472688d830862f738a0132156a61112b292724c11c560001b620001a0565b600091505b509091565b6000620008717f2cc41fde7e957be0eadefa6f7407bb172eb1cf50fa85041ec354b3e3fcf53cec60001b6200019d565b6200089f7f66fe7eb34149b5cbe8367e2d14e147691f349120db2e1b7eb72d26fbbd0f55d460001b6200019d565b620008cd7fdee68a6874723a7d670417ce49ba7a5ce8fb022fafaeebb1e45cdb140077744260001b6200019d565b6000808373ffffffffffffffffffffffffffffffffffffffff1673ffffffffffffffffffffffffffffffffffffffff16815260200190815260200160002060009054906101000a900460ff169050919050565b6000620009507f29383d2b5fccfe6243d83518ea8a13bcec4fbaf9b63e72f400424e351aa9da6e60001b6200019d565b6200097e7fa1b458a210f682a225edc6521d6f76da2906693897d9ef2af953b00efba17b5660001b6200019d565b620009ac7f6743e0ae474cde26b4ba4d0f48fe33a27361a79156ad5adfa4d3d550999ccb4760001b6200019d565b7f0000000000000000000000000000000000000000000000000000000000000000905090565b50565b62000a037f85f2440d3bb413e87063f72fc4b73b12a22bdfeb26af00edc6d66e81b2e166df60001b6200019d565b62000a317f3a150163ba55e1517b963ccf2da19324a13f1ad865abb9cddb82043fd08dfbfc60001b6200019d565b62000a5f7f34e9ed9a5e996923a8769a6b01249ee6d941739692e2712e169efeba4465198a60001b6200019d565b60016000808373ffffffffffffffffffffffffffffffffffffffff1673ffffffffffffffffffffffffffffffffffffffff16815260200190815260200160002060006101000a81548160ff02191690831515021790555062000ae47f329cd91c48c66683c5b31a15b829f1ddeae0d32529263d548808e851d7e3bba060001b6200019d565b62000b127fc27850424ca1a424c8c26281dc33cbc76f2991719eebb4eecd1f831cdf11585a60001b6200019d565b8073ffffffffffffffffffffffffffffffffffffffff167f83a48fbcfc991335314e74d0496aab6a1987e992ddc85dddbcc4d6dd6ef2e9fc60405160405180910390a250565b604051806101800160405280600073ffffffffffffffffffffffffffffffffffffffff1681526020016060815260200160608152602001600073ffffffffffffffffffffffffffffffffffffffff168152602001600073ffffffffffffffffffffffffffffffffffffffff1681526020016000815260200160008152602001600081526020016000815260200160008152602001600015158152602001600073ffffffffffffffffffffffffffffffffffffffff1681525090565b6201e519806200147383390190565b60008135905062000c3381620013f0565b92915050565b600082601f83011262000c4b57600080fd5b813562000c6262000c5c8262001247565b62001219565b9150818183526020840193506020810190508385602084028201111562000c8857600080fd5b60005b8381101562000cbc578162000ca1888262000d81565b84526020840193506020830192505060018101905062000c8b565b5050505092915050565b600082601f83011262000cd857600080fd5b813562000cef62000ce98262001270565b62001219565b9150818183526020840193506020810190508385602084028201111562000d1557600080fd5b60005b8381101562000d49578162000d2e888262000df4565b84526020840193506020830192505060018101905062000d18565b5050505092915050565b60008135905062000d64816200140a565b92915050565b60008135905062000d7b8162001424565b92915050565b60008135905062000d92816200143e565b92915050565b600082601f83011262000daa57600080fd5b813562000dc162000dbb8262001299565b62001219565b9150808252602083016020830185838301111562000dde57600080fd5b62000deb8382846200139a565b50505092915050565b60008135905062000e058162001458565b92915050565b60006020828403121562000e1e57600080fd5b600062000e2e8482850162000c22565b91505092915050565b60006020828403121562000e4a57600080fd5b600062000e5a8482850162000d6a565b91505092915050565b600080600080600080600060e0888a03121562000e7f57600080fd5b600088013567ffffffffffffffff81111562000e9a57600080fd5b62000ea88a828b0162000d98565b975050602088013567ffffffffffffffff81111562000ec657600080fd5b62000ed48a828b0162000d98565b965050604088013567ffffffffffffffff81111562000ef257600080fd5b62000f008a828b0162000c39565b955050606088013567ffffffffffffffff81111562000f1e57600080fd5b62000f2c8a828b0162000cc6565b945050608062000f3f8a828b0162000df4565b93505060a062000f528a828b0162000d53565b92505060c062000f658a828b0162000c22565b91505092959891949750929550565b62000f7f81620012e2565b82525050565b62000f9081620012e2565b82525050565b62000fa181620012f6565b82525050565b62000fb281620012f6565b82525050565b62000fc3816200134a565b82525050565b62000fd48162001372565b82525050565b62000fe58162001372565b82525050565b600062000ff882620012c6565b620010048185620012d1565b935062001016818560208601620013a9565b6200102181620013df565b840191505092915050565b60006101808301600083015162001047600086018262000fc9565b506020830151848203602086015262001061828262000feb565b915050604083015184820360408601526200107d828262000feb565b915050606083015162001094606086018262000fb8565b506080830151620010a9608086018262000fb8565b5060a0830151620010be60a08601826200114f565b5060c0830151620010d360c08601826200114f565b5060e0830151620010e860e08601826200114f565b50610100830151620010ff6101008601826200114f565b50610120830151620011166101208601826200114f565b506101408301516200112d61014086018262000f96565b506101608301516200114461016086018262000f74565b508091505092915050565b6200115a8162001340565b82525050565b6200116b8162001340565b82525050565b600060208201905062001188600083018462000f85565b92915050565b6000602082019050620011a5600083018462000fa7565b92915050565b6000602082019050620011c2600083018462000fda565b92915050565b60006020820190508181036000830152620011e481846200102c565b905092915050565b600060408201905062001203600083018562001160565b62001212602083018462001160565b9392505050565b6000604051905081810181811067ffffffffffffffff821117156200123d57600080fd5b8060405250919050565b600067ffffffffffffffff8211156200125f57600080fd5b602082029050602081019050919050565b600067ffffffffffffffff8211156200128857600080fd5b602082029050602081019050919050565b600067ffffffffffffffff821115620012b157600080fd5b601f19601f8301169050602081019050919050565b600081519050919050565b600082825260208201905092915050565b6000620012ef8262001320565b9050919050565b60008115159050919050565b6000819050919050565b60006200131982620012e2565b9050919050565b600073ffffffffffffffffffffffffffffffffffffffff82169050919050565b6000819050919050565b600062001357826200135e565b9050919050565b60006200136b8262001320565b9050919050565b60006200137f8262001386565b9050919050565b6000620013938262001320565b9050919050565b82818337600083830152505050565b60005b83811015620013c9578082015181840152602081019050620013ac565b83811115620013d9576000848401525b50505050565b6000601f19601f8301169050919050565b620013fb81620012e2565b81146200140757600080fd5b50565b6200141581620012f6565b81146200142157600080fd5b50565b6200142f8162001302565b81146200143b57600080fd5b50565b62001449816200130c565b81146200145557600080fd5b50565b620014638162001340565b81146200146f57600080fd5b5056fe6102a06040527f6e71edae12b1b97f4d1f60370fef10105fa2faae0126114a169c64845d6126c961012090815250348015630000003b57600080fd5b50604051630001e519380380630001e51983398181016040528101906300000065919063000026c2565b80610100015181610120015182602001518360400151816040518060400160405280600181526020017f31000000000000000000000000000000000000000000000000000000000000008152508661016001513373ffffffffffffffffffffffffffffffffffffffff1660001b63000001087fe656fc50f09b7684c34752b3ece2e281b6d08a9750095c0301d6e2383c5e37b660001b630000150960201b60201c565b630000013e7f4f7e861a1146d74c96da3edec5d0590759a1296b05766cad342bb6959c4c151460001b630000150960201b60201c565b63000001747f52b72727ae090b164bf2148fae50414fc0fb516dbc3119582343db3c7d50af7c60001b630000150960201b60201c565b80608081815250505063000001b37f446f1808b6d40b9489cc4c9a852d6b71b0e29e4186e37fa89ab671d91198770e60001b630000150c60201b60201c565b63000001e97f4a5719a5c08260aa70804b6cf4c2d43156d2e63f6d9b951543686690d6f25bd260001b630000150c60201b60201c565b630000021f7f8f0ac531ead605d36f4f4d3fae897fa52e59159bb1cb37f863027df67e1a596960001b630000150c60201b60201c565b8073ffffffffffffffffffffffffffffffffffffffff1660a08173ffffffffffffffffffffffffffffffffffffffff1660601b8152505050630000028d7f42b605ad8c4e48409d07a45ae01575f0109010e501e8b5c073584d28d362cafe60001b630000150f60201b60201c565b63000002c37f83ae992f89ac3d22b5c08de6e662a0aa913c874cd41a0efc0f4994d8c4de570060001b630000150f60201b60201c565b63000002f97fc4a174b8a26360ea40053551849bb6f425e3b060f612b04327821719723bcc8660001b630000150f60201b60201c565b818051906020012060c08181525050630000033e7fc26a2832f3fd57ee4b8ea5a6826ac33a1a1b798676bc5c45122e9662aeab5d2660001b630000150f60201b60201c565b63000003747fd4fb5a4207833b83c54df15a2c96970589d99d04479e6f4ca3165c5111271ea760001b630000150f60201b60201c565b808051906020012060e0818152505063000003b97fb8e8098b11bfdd787c3da2cdafe2cc6b982a589dae9ae914138ecda0b35a4a3f60001b630000150f60201b60201c565b63000003ef7fb3e60e0a13ac53da78856e77763f45e4814e177529da21d9bb0dde71039bfb5360001b630000150f60201b60201c565b7f8b73c3c69bb8fe3d512ecc4cf759cc79239f7b179b0ffacaa9a75d522b39400f6101008181525050505063000004507f7253d2a06334ee1e20139f04b1552da25178216f1aa557135d1e8f8155e9554160001b630000151260201b60201c565b63000004867f755fcc9e3678086f07a630e926401728d6cfabf7045174656ed798ffe0e2c27660001b630000151260201b60201c565b63000004bc7fdf8c8e35aefe83f659d9ebf212dddcf9ac89e043959be6158e0274561e70d86360001b630000151260201b60201c565b816003908051906020019063000004d69291906300002349565b50630000050d7faca7bf43b85bbccc85881caf16d28b9ec4837f003dbb33b53c537fe7df6424ad60001b630000151260201b60201c565b63000005437fa9d35326029da8ea64802ba17246b49b2739c36b2c3f195ab3fefecc9610066e60001b630000151260201b60201c565b8060049080519060200190630000055d9291906300002349565b50505063000005967fcdc4b7966725a0b7e0fb882fd598225d9590b4866144e6f0fef2abbf022cd3fd60001b630000151560201b60201c565b63000005cc7f967596f8f7a500ff720a3403b54a04d92df906e26231ac890b8a2fb26175b76860001b630000151560201b60201c565b63000006027f220e9104ab71aa57643c7c71e3832b71d3e98885b5965cb82908ce4eea5bfb2b60001b630000151560201b60201c565b630000061e6276a700831115610194630000151860201b60201c565b63000006547fd0be9f82dddb144bf718a71b45872969428bb1e178dd6736199ccad564ec8b5b60001b630000151560201b60201c565b630000068a7fb702d3e39ca2fa724be8964ed90151539fa69615acf3787c22cbea6125ff8de960001b630000151560201b60201c565b63000006a662278d00821115610195630000151860201b60201c565b63000006dc7f30947af497197580ac7fe9d5a36f3395ccc8e0f05ad40bd1ca43afa0ba2e3c9660001b630000151560201b60201c565b63000007127f66c9294cc9f2a539bf2e45a2359fd5403b096a66739ef9308702b0d225842bb560001b630000151560201b60201c565b60008242019050630000074f7f3ffec86c8a211454649c2421858fe62d38cdc98646c61a148543da8be9f267fe60001b630000151560201b60201c565b63000007857f6eb5190dbb322e1bbf62c40ef77ff43209eb42ec473e696fdafd2032f063f5b260001b630000151560201b60201c565b80610140818152505063000007c47fb3521dbf78ed8ddf85941e885e8e8c559993c36bc3f082c5ab80dd2db85b95ac60001b630000151560201b60201c565b63000007fa7ffb2f5edcd4cab9ad1417d979af508830d9a1801f736529956465596ed81dc54260001b630000151560201b60201c565b8181016101608181525050505050630000083e7fcbf8fc5a909740b89b7c0bc2ab1359e0ec5351885f05e9d5a166bb53087a10dc60001b630000153760201b60201c565b63000008747fd772a7fe73af05bc3bbc48724e1e70e6eb9d579297cd76439aeb0eb86737008f60001b630000153760201b60201c565b63000008aa7fe082c2ef3b493380b32aa3a68e16c126e32430b520ce416125c81674da5de9ba60001b630000153760201b60201c565b63000008c2816101400151630000153a60201b60201c565b63000008f87f7da63f7b73cf99f3de4157aa32f0058359af3db937572de2ec709f9ee3caab1f60001b630000153760201b60201c565b630000092e7f3d97703deae957c394493e96ab3f7b4507fdc2749c72996fcbb980fa477d994a60001b630000153760201b60201c565b63000009458160e0015163000016ab60201b60201c565b630000097b7f69e7356c500d0d9d71ff7e433928b9fbc65fd220d75f1d5a715a1c6b7e7f010760001b630000153760201b60201c565b63000009b17f4a91807c35ab7aa3930f1582bfd436f53b24494f612b0da78a0deac5a276f12660001b630000153760201b60201c565b6000816000015173ffffffffffffffffffffffffffffffffffffffff166309b2760f60026040518263ffffffff1660e01b815260040163000009f591906300002940565b602060405180830381600087803b1580156300000a1157600080fd5b505af11580156300000a27573d6000803e3d6000fd5b505050506040513d601f19601f820116820180604052508101906300000a4f91906300002693565b90506300000a877f98687d6786b167eec2a8ccf0c1e2d7e062348d4745c0bdd3eb1f6b6bf02aa20c60001b630000153760201b60201c565b6300000abd7f57ecad4f58ced6bd0664dcb539c6a638f17ac3d2c170f34442d6eae5e927854260001b630000153760201b60201c565b6060600267ffffffffffffffff811180156300000ad957600080fd5b506040519080825280602002602001820160405280156300000b0a5781602001602082028036833780820191505090505b5090506300000b437f06dba330d998b281af2eb85ccb05f28b0a1cc523db0dba616dfea4dfca29226a60001b630000153760201b60201c565b6300000b797fdb5ccddc2a147577740f36d4d5be37f4e719d5825e9a56fa84e335f0526cc79a60001b630000153760201b60201c565b8260600151816000815181106300000b8d57fe5b602002602001019073ffffffffffffffffffffffffffffffffffffffff16908173ffffffffffffffffffffffffffffffffffffffff16815250506300000bfd7fbd6f8ca18e953b6245b016f7abcde329f332ab269cdcc25fa67d1ed2a80c8ac360001b630000153760201b60201c565b6300000c337fda109c4eb71568df996eb11b50179573e585444a1cb81fdaf4e4452dfb935c9060001b630000153760201b60201c565b8260800151816001815181106300000c4757fe5b602002602001019073ffffffffffffffffffffffffffffffffffffffff16908173ffffffffffffffffffffffffffffffffffffffff16815250506300000cb77fa37af3fda8944fe890e3cea761b6174258991ed883826217dd14f39c4ecfde1c60001b630000153760201b60201c565b6300000ced7f7cfcb7cd17cade9f0ecd02d350dd975c4398d42425e886341ba39a64200ea99660001b630000153760201b60201c565b826000015173ffffffffffffffffffffffffffffffffffffffff166366a9c7d28383600267ffffffffffffffff811180156300000d2957600080fd5b506040519080825280602002602001820160405280156300000d5a5781602001602082028036833780820191505090505b506040518463ffffffff1660e01b81526004016300000d7d9392919063000028ef565b600060405180830381600087803b1580156300000d9957600080fd5b505af11580156300000daf573d6000803e3d6000fd5b505050506300000de97f05bcfa0b09d3f23c752926f96e80f396fe010230e3407a6c8504e219b15d141760001b630000153760201b60201c565b6300000e1f7f6cb285b78cd81a12c5815682f78c0c45e5dbaab21c3e04cae473731860ba3c1360001b630000153760201b60201c565b826000015173ffffffffffffffffffffffffffffffffffffffff166101808173ffffffffffffffffffffffffffffffffffffffff1660601b815250506300000e917f25f72eec26f8554e8f5d794d095c50079bc91d18e9526b9966b7d5b66e1c9c0160001b630000153760201b60201c565b6300000ec77f520202d9f7c35964e13436445ef142f79f35c4e0dafcfe39909e123a6782e9bb60001b630000153760201b60201c565b816101a081815250506300000f067f38eb280f9b9e81a35f1e3f69dde694f33f49120dd98f2a45ed6cb08408f185ba60001b630000153760201b60201c565b6300000f3c7ff6f088f18d6e9793142cbe95a09346a9f1caaa7505a8725501cb7ff815a3bc6b60001b630000153760201b60201c565b826060015173ffffffffffffffffffffffffffffffffffffffff166101c08173ffffffffffffffffffffffffffffffffffffffff1660601b815250506300000fae7f9c06c6d1e56f2877ecdca2335247341f3cc546f9ea6bc8948adde7bc26ed449260001b630000153760201b60201c565b6300000fe47f50de48481b7ee3556e5e715bf2810609815f635171e52b8c24e400be4d2830fc60001b630000153760201b60201c565b826080015173ffffffffffffffffffffffffffffffffffffffff166101e08173ffffffffffffffffffffffffffffffffffffffff1660601b8152505063000010567f5e87f08bff5bae9f869d69b3f6b4733021a5fac3fe4b9c2e69a3bbd088d0f22060001b630000153760201b60201c565b630000108c7feb1acac2df7fb93e90c8ca716d6a2fa63dc7dd29eaffd8e7924471ab076ef65660001b630000153760201b60201c565b63000010a38360600151630000193060201b60201c565b610260818152505063000010e17f64b4e31c7086478ed9548baa22874572824468b2e731e24d045add493383c3f960001b630000153760201b60201c565b63000011177f7897a5ae8f63b7b19ed74b64091388d7c612cf5dc6e5ea4f5fd6c50c803883b660001b630000153760201b60201c565b630000112e8360800151630000193060201b60201c565b6102808181525050630000116c7f5abff6061ce7636f84bf7a06c81317f4d94b144834d8e6f89ebc32144fb50bbb60001b630000153760201b60201c565b63000011a27f93f41db002d2e6085ac8395d4b82205c7819c11c77e0f1133624b3c660beb48960001b630000153760201b60201c565b63000011c6662386f26fc100008460a00151101561012e630000151860201b60201c565b63000011fc7f5a7d138331707dc99330031663b04cc18c33f8f42e596291497d82b6b61a90d660001b630000153760201b60201c565b63000012327fcf5fa512b5d9790cd9b02307ba343c76209c88d99e7e280388f4f4a73fae3f4d60001b630000153760201b60201c565b6300001256662386f26fc100008460c00151101561012e630000151860201b60201c565b630000128c7f477bc083641c939892b32fff05762b40917c9276fd1794aeee2256bacf93abf860001b630000153760201b60201c565b63000012c27f80c04240ee17bc64dcf31b5797a047c188668a78a74c537ec5117049fdef6e2360001b630000153760201b60201c565b600063000012e98460c001518560a001516300001b6560201b6300005e091790919060201c565b905063000013217f9c2800aa2da8b0f54af9c07c88bde4f48c54873e58df54f42ddc4419308c556260001b630000153760201b60201c565b63000013577f2e516dc203cc87f7331521da1129fd1415c438a438f7bd2208e719a646398cf560001b630000153760201b60201c565b6300001377670de0b6b3a76400008214610134630000151860201b60201c565b63000013ad7fdb5a4e900968896aabebe052e6084bb0010c75921d8d7e5a7191eb7b470a2aec60001b630000153760201b60201c565b63000013e37f394c1afab001834336ededdf8c0116f40d1dfb5fc2737edf72a3b84f0316287560001b630000153760201b60201c565b8360a00151610200818152505063000014267fd7e18dd98bf6229c4a4375854c8fab90f18dac2b74f203f8a9f7624ed79adb4060001b630000153760201b60201c565b630000145c7fbbf7b5d1173738e8100d230c78be8aa3e12547a79a3d8fa7bc69354136fd3ae260001b630000153760201b60201c565b8360c001516102208181525050630000149f7ff5fada06371a07d612910e135229961716a962f960aa61db68f749f5c72a0c6260001b630000153760201b60201c565b63000014d57febac15c5c3af82abc7389e8874b94db4d29e8c9d118433f40d3f195d574b536860001b630000153760201b60201c565b8360c001518460a00151101563000014f057600163000014f3565b60005b60ff166102408181525050505050506300002c37565b50565b50565b50565b50565b50565b816300001533576300001532816300001d0a60201b60201c565b5b5050565b50565b63000015707ff6aca1c3205b5fd716918ababeadb074f68cf3063f34a351b4f1568844f4e4e960001b630000153760201b60201c565b63000015a67f756cf225429b8c381bc246bf9738a2a93a7c9129ca45d57d467299026050897d60001b630000153760201b60201c565b63000015dc7f053a5edb229d70d7d1ce6934baa50cf1dfed9684f0e9c65239188efe15f3766060001b630000153760201b60201c565b63000015fb816008546300001d7a60201b6300005f6e1790919060201c565b60088190555063000016377f458f662e0b285baaf6f9c26de32f44fa2494a00d9ea594cc1891d4b6c27f537a60001b630000153760201b60201c565b630000166d7f906954868cf4fd56a124dde1b18b2483457eca1a59007b4f32654dfd1540abcd60001b630000153760201b60201c565b7f3e350b41e86a8e10f804ade6d35340d620be35569cc75ac943e8bb14ab80ead18160405163000016a0919063000028d0565b60405180910390a150565b63000016e17f1b0a72216e9d8b1b2ceb10d2b2468e4350d6955a76edfa980cb0a764aa79e72a60001b630000153760201b60201c565b63000017177fb3537d157f12f78556b002839cc9ecd1bec5bab91ae6a027a08c39402c0706f060001b630000153760201b60201c565b630000174d7f7b01b771aeea243deed7c7fe7f7564c21c4ff867d8fc3171f0040dbcb625e1f260001b630000153760201b60201c565b630000176a64e8d4a5100082101560cb630000151860201b60201c565b630000179f7e2fa5ed693ce61de7b1a93f2429cf761864f1721d84ba2163d637fd2da4c3eb60001b630000153760201b60201c565b63000017d57fd8ec0c9ff501860de76b57b134f5be9415bb31dc3a00caa7efc20b55c7a57aa660001b630000153760201b60201c565b63000017f567016345785d8a000082111560ca630000151860201b60201c565b630000182b7f45c633402a05a8ded8df66c352c6e44966fe75b07d0f59fec463d1dac035bf0f60001b630000153760201b60201c565b63000018617ff2ed12b3fbce11f049da5b159c98ce4f283472252f1ca742ca1a819afec2e09660001b630000153760201b60201c565b6300001880816008546300001e4660201b630000601a1790919060201c565b60088190555063000018bc7ffb2eea41ee5043dfd14d40ddb34f8b44065c167ec9d99fcc71ebae03c285e5d960001b630000153760201b60201c565b63000018f27f02259be776e81e6c69e8830c30767b3a385365a613779ccf0211cb3ad440a21d60001b630000153760201b60201c565b7fa9ba3ffe0b6c366b81232caab38605a0699ad5398d6cce76f91ee809e322dafc8160405163000019259190630000295f565b60405180910390a150565b600063000019687fca1fdf9e8f190df38c7cd5c2fb7652ccf65425f7328400f2bcd6d470a958824960001b630000153760201b60201c565b630000199e7f84379e30dbc82ffe44058f235b4bfd3bb1b0323f02112eebf8635fe279d24f1560001b630000153760201b60201c565b63000019d47f2076d239ede2834de3e0a96957a72a6fcfe9642e0692ad4a3d9d781bc776f9d360001b630000153760201b60201c565b60008273ffffffffffffffffffffffffffffffffffffffff1663313ce5676040518163ffffffff1660e01b815260040160206040518083038186803b1580156300001a1e57600080fd5b505afa1580156300001a34573d6000803e3d6000fd5b505050506040513d601f19601f820116820180604052508101906300001a5c9190630000270b565b60ff1690506300001a977f3dce7e0d3b43620f97c04decf0f1e2e1aca67681b13ed34925d7404baf1ad57f60001b630000153760201b60201c565b6300001acd7f27730d8f6fb7122447525b071c25a5a3af40b72429c8e16096ed3acf2ccda69e60001b630000153760201b60201c565b60006300001aea6012836300001f1260201b63000060c61760201c565b90506300001b227f953104db4cb839c47f86683352704c43a8ab2adc31421934682773cba2d32d2660001b630000153760201b60201c565b6300001b587f8df39fa62f77027831447159c6b599006dcbe66a766a42d5e1b89df4c84dd07960001b630000153760201b60201c565b80600a0a92505050919050565b60006300001b9d7f59553e064ffc30705bc6f1bd0548781ec42eede447ec06cd2d9ddb674a8219be60001b63000020b760201b60201c565b6300001bd37fab4e9dc03bf83496a9fb56ed78c77ac71999c4c5b77197bc3f03888fa1f7da1860001b63000020b760201b60201c565b6300001c097f8ef261d3a0653ab868c899418b467bc6f67e2ccde42f77cb49f1285b32558cd560001b63000020b760201b60201c565b600082840190506300001c467f172b47099aaf4a028546f4463220baa09cd81d77ae8c1096fc6579f4ecaeac2960001b63000020b760201b60201c565b6300001c7c7f967579ee3162c1a66be7747b1966e185b33f2fc6a52477633bfe253a007a6d0d60001b63000020b760201b60201c565b6300001c94848210156000630000151860201b60201c565b6300001cca7f837f36e10f55e182d80df4008a9565a95c9998c0cbd301003424ee94022b465e60001b63000020b760201b60201c565b6300001d007f60b415dd739853b43f2c31e0a76108ad464adc9d8eacc59b1f59ea004963800b60001b63000020b760201b60201c565b8091505092915050565b6030600a820601600a820491506030600a830601600a830492506030600a8406018060101b8260081b8401016642414c230000000160c81b7f08c379a000000000000000000000000000000000000000000000000000000000600052602060045260076024528060445260646000fd5b60006300001db27f51771d1ed7d1f0875cb889f362e3ef24fa21cdc5c5c3a2b16dbd46ce16b1236160001b63000020ba60201b60201c565b6300001de87f60d0dd841449307ae18a9cddff00d3d25cf9d3ceee9a7a683a056bcfe0bcec3360001b63000020ba60201b60201c565b6300001e1e7fd6034571976ac4c377519369af9924c19ac9642e825069e97b15024e3afaeb4960001b63000020ba60201b60201c565b6300001e3e8260558563000020bd60201b630000622b179092919060201c565b905092915050565b60006300001e7e7fcb8d6db403342d229b669b9617c197d72dca2f5c38094d5f26315d81b213357060001b63000020ba60201b60201c565b6300001eb47f4cdab712e63191ebf5f133b2c758386d2cd7f9833a418c816344599c952628c960001b63000020ba60201b60201c565b6300001eea7fb2193ff3196bb549630dc9bddfc038692be3b5403c01a1c059db659241c94ca860001b63000020ba60201b60201c565b6300001f0a82605685630000220760201b630000634b179092919060201c565b905092915050565b60006300001f4a7f4ad272e8ef896cf9749bbb33b720ec50902be1d6268b31d272f37eeffc01139760001b630000234360201b60201c565b6300001f807ff5b8f6315ed04f6f880d15c913444893b354f451e1a7755f980256aa3a67eb1b60001b630000234360201b60201c565b6300001fb67fbdc5b111411beb8ab6b53375bbc8bf4e74258c8c8f4987a4928ce54801c48b0060001b630000234360201b60201c565b6300001fce838311156001630000151860201b60201c565b63000020047f878d38a5a5b3291f5b62618821c286b1ce4d8ac1fde0f5c52c6f8b253e3c721860001b630000234360201b60201c565b630000203a7fdee8db45952fd0881a888ce099e6774ada46e04a8240c739354e8b594734d0b160001b630000234360201b60201c565b6000828403905063000020777fa883eec5840f8062e57d5a86c35fd0af17f6df22b4081b6a3676dd71088ac1e360001b630000234360201b60201c565b63000020ad7fc44e06103de1985a150207dd6e5102796da4ff917908533e00a2fd2e75a52f9460001b630000234360201b60201c565b8091505092915050565b50565b50565b600063000020f57fe5a7703006416f650a6006f5f0670d782936184bf27b808b4c9b32fbe19b47ea60001b630000234660201b60201c565b630000212b7f11356be6b3e8ad0f97bc0290b6fb6c914b1b40af921535a5c7ee51802b6520b760001b630000234660201b60201c565b63000021617ff5ccc80b750fdb77e7e98f8e222a9e9b5921b527802767ad3ee413f8ccf961a760001b630000234660201b60201c565b6000826001901b198560001c1660001b905063000021a97fa27d783ddd44cc7a2e6aa2d9621759de4f26db5689b59fa9d522b063125a3d2260001b630000234660201b60201c565b63000021df7f57732a8ff38d052e200f18e116347f46fcc5738117e4e861b0ccb4f48f5e2fa060001b630000234660201b60201c565b828463000021f057600063000021f3565b60015b60ff16901b60001b81179150509392505050565b6000630000223f7ff0f85b03d615c29e4d60b83cc176ddbaf13acd1f3ff3a99036f76babd0d070a860001b630000234660201b60201c565b63000022757f9e608e7d454ed5e4a990789545a71f2700cae978571f09fc05c03ddf8731df4460001b630000234660201b60201c565b63000022ab7fb00bb950b9ab06d82ebeac5f06d3116b4bd38abc9b5ee0966b78b17515c897f660001b630000234660201b60201c565b60008267ffffffffffffffff901b198560001c1660001b905063000022fa7f2e4626d1e269524e21b9f08f1508a71c0d63649f5fb65843e2a1294b4d77c78d60001b630000234660201b60201c565b63000023307f4cd49b392381ac7400713fda4d23ef602361f4589b6260e02390e38ecb08362260001b630000234660201b60201c565b8284901b60001b81179150509392505050565b50565b50565b828054600181600116156101000203166002900490600052602060002090601f016020900481019282601f10630000238e57805160ff191683800117855563000023c2565b8280016001018555821563000023c2579182015b8281111563000023c157825182559160200191906001019063000023a2565b5b50905063000023d3919063000023d7565b5090565b5b8082111563000023f457600081600090555060010163000023d8565b5090565b600081519050630000240b816300002b6c565b92915050565b6000815190506300002424816300002b89565b92915050565b600081519050630000243d816300002ba6565b92915050565b6000815190506300002456816300002bc3565b92915050565b600081519050630000246f816300002be0565b92915050565b600082601f830112630000248857600080fd5b815163000024a3630000249c8263000029ad565b630000297e565b9150808252602083016020830185838301111563000024c157600080fd5b63000024d08382846300002b24565b50505092915050565b6000610180828403121563000024ee57600080fd5b63000024fd610180630000297e565b90506000630000251184828501630000245c565b600083015250602082015167ffffffffffffffff811115630000253357600080fd5b6300002543848285016300002475565b602083015250604082015167ffffffffffffffff811115630000256557600080fd5b6300002575848285016300002475565b6040830152506060630000258d848285016300002443565b606083015250608063000025a5848285016300002443565b60808301525060a063000025bd848285016300002661565b60a08301525060c063000025d5848285016300002661565b60c08301525060e063000025ed848285016300002661565b60e0830152506101006300002606848285016300002661565b610100830152506101206300002620848285016300002661565b61012083015250610140630000263a848285016300002411565b6101408301525061016063000026548482850163000023f8565b6101608301525092915050565b6000815190506300002674816300002bfd565b92915050565b600081519050630000268d816300002c1a565b92915050565b60006020828403121563000026a757600080fd5b600063000026b984828501630000242a565b91505092915050565b60006020828403121563000026d657600080fd5b600082015167ffffffffffffffff81111563000026f257600080fd5b63000027028482850163000024d9565b91505092915050565b600060208284031215630000271f57600080fd5b6000630000273184828501630000267a565b91505092915050565b6000630000274a83836300002772565b60208301905092915050565b6000630000276683836300002897565b60208301905092915050565b630000277f816300002a3c565b82525050565b600063000027948263000029fb565b63000027a281856300002a2b565b935063000027b18363000029db565b8060005b8381101563000027ee57815163000027cf8882630000273a565b975063000027de836300002a11565b92505060018101905063000027b5565b5085935050505092915050565b6000630000280a826300002a06565b630000281881856300002a2b565b935063000028278363000029eb565b8060005b838110156300002864578151630000284588826300002756565b97506300002854836300002a1e565b925050600181019050630000282b565b5085935050505092915050565b630000287e816300002a52565b82525050565b6300002891816300002a5e565b82525050565b63000028a4816300002ae2565b82525050565b63000028b7816300002b0e565b82525050565b63000028ca816300002acb565b82525050565b600060208201905063000028e960008301846300002871565b92915050565b6000606082019050630000290860008301866300002884565b8181036020830152630000291e818563000027fb565b90508181036040830152630000293681846300002785565b9050949350505050565b60006020820190506300002959600083018463000028aa565b92915050565b60006020820190506300002978600083018463000028bd565b92915050565b6000604051905081810181811067ffffffffffffffff8211171563000029a357600080fd5b8060405250919050565b600067ffffffffffffffff82111563000029c657600080fd5b601f19601f8301169050602081019050919050565b6000819050602082019050919050565b6000819050602082019050919050565b600081519050919050565b600081519050919050565b6000602082019050919050565b6000602082019050919050565b600082825260208201905092915050565b60006300002a4b826300002aab565b9050919050565b60008115159050919050565b6000819050919050565b60006300002a77826300002a3c565b9050919050565b60006300002a8d826300002a3c565b9050919050565b60008190506300002aa6826300002b5d565b919050565b600073ffffffffffffffffffffffffffffffffffffffff82169050919050565b6000819050919050565b600060ff82169050919050565b60006300002af1826300002af8565b9050919050565b60006300002b07826300002aab565b9050919050565b60006300002b1d826300002a94565b9050919050565b60005b838110156300002b465780820151818401526020810190506300002b27565b838111156300002b57576000848401525b50505050565b600381106300002b6957fe5b50565b6300002b79816300002a3c565b81146300002b8657600080fd5b50565b6300002b96816300002a52565b81146300002ba357600080fd5b50565b6300002bb3816300002a5e565b81146300002bc057600080fd5b50565b6300002bd0816300002a68565b81146300002bdd57600080fd5b50565b6300002bed816300002a7e565b81146300002bfa57600080fd5b50565b6300002c0a816300002acb565b81146300002c1757600080fd5b50565b6300002c27816300002ad5565b81146300002c3457600080fd5b50565b60805160a05160601c60c05160e051610100516101205161014051610160516101805160601c6101a0516101c05160601c6101e05160601c61020051610220516102405161026051610280516201b8046300002d156000398061a5d952508061a600525080620103f052806201042552806201046352508061a6bb528061a96752508061a6e2528061a945528061a9f352505080613df05250806120ab525080613940525080616c49525080616b97525080614d5a52508061813552508061817752508061815652508061388e52508061363552506201b8046000f3fe60806040523480156200001157600080fd5b50600436106200037c5760003560e01c806374f3b00911620001dd578063b10be7391162000111578063d73dd62311620000b1578063e972a7401162000087578063e972a7401462000aca578063f89f27ed1462000aea578063fb5848ef1462000b0c578063ffd088eb1462000b2c576200037c565b8063d73dd6231462000a3e578063dd62ed3e1462000a74578063e9083f621462000aaa576200037c565b8063c0ff1a1511620000e7578063c0ff1a1514620009c5578063d505accf14620009e7578063d5c096c41462000a07576200037c565b8063b10be739146200094d578063b48b5b401462000983578063c01bf39a14620009a5576200037c565b80638d928af8116200017d5780639d2c110c11620001535780639d2c110c14620008bf578063a9059cbb14620008f5578063aaabadc5146200092b576200037c565b80638d928af8146200085957806395d89b41146200087b5780639b02cdde146200089d576200037c565b8063856797c311620001b3578063856797c314620007e057806387ec68171462000800578063893d20e81462000837576200037c565b806374f3b009146200073d5780637ecebe001462000774578063851c1bb314620007aa576200037c565b806338e9922e11620002b557806360d1507c11620002555780636939fcfe116200022b5780636939fcfe14620006b15780636b84323914620006d157806370a082311462000707576200037c565b806360d1507c146200061d578063661884631462000659578063679aefce146200068f576200037c565b806355c67628116200028b57806355c6762814620005a45780635ff8525a14620005c65780636028bfd414620005e6576200037c565b806338e9922e146200053b57806338fff2d0146200055b5780634a6b0b15146200057d576200037c565b80631c0de0511162000321578063292c914a11620002f7578063292c914a14620004eb578063313ce56714620004f75780633644e5151462000519576200037c565b80631c0de051146200045b5780631dccd830146200047f57806323b872dd14620004b5576200037c565b80630ddc08a511620003575780630ddc08a514620003f957806316c38b3c146200041957806318160ddd1462000439576200037c565b806304b5705c146200038157806306fdde0314620003a1578063095ea7b314620003c3575b600080fd5b6200039f60048036038101906200039991906201a7ba565b62000b4e565b005b620003ab62000b51565b604051620003ba91906201b30c565b60405180910390f35b620003e16004803603810190620003db91906201a60f565b62000c81565b604051620003f091906201b01d565b60405180910390f35b6200041760048036038101906200041191906201a7ba565b62000d7f565b005b6200043760048036038101906200043191906201a762565b62000d82565b005b6200044362000edc565b6040516200045291906201b330565b60405180910390f35b6200046562000f70565b60405162000476939291906201b03a565b60405180910390f35b6200049d60048036038101906200049791906201a71d565b620010e1565b604051620004ac91906201afbe565b60405180910390f35b620004d36004803603810190620004cd91906201a50c565b62001570565b604051620004e291906201b01d565b60405180910390f35b620004f56200197f565b005b6200050162001cd3565b6040516200051091906201b381565b60405180910390f35b6200052362001d66565b6040516200053291906201b077565b60405180910390f35b6200055960048036038101906200055391906201ac35565b62001e01565b005b620005656200201d565b6040516200057491906201b077565b60405180910390f35b62000587620020cf565b6040516200059b969594939291906201b29f565b60405180910390f35b620005ae620023e8565b604051620005bd91906201b330565b60405180910390f35b620005e46004803603810190620005de91906201a7ba565b62002486565b005b620006046004803603810190620005fe91906201a7e6565b62002489565b604051620006149291906201b34d565b60405180910390f35b6200063b60048036038101906200063591906201ac35565b62002602565b6040516200065097969594939291906201b222565b60405180910390f35b6200067760048036038101906200067191906201a60f565b62002795565b6040516200068691906201b01d565b60405180910390f35b6200069962002ab7565b604051620006a891906201b330565b60405180910390f35b620006cf6004803603810190620006c991906201a7ba565b62002b7b565b005b620006ef6004803603810190620006e991906201a6d8565b62002b7e565b604051620006fe91906201af9a565b60405180910390f35b6200072560048036038101906200071f91906201a49f565b62002ea3565b6040516200073491906201b330565b60405180910390f35b6200075b60048036038101906200075591906201a7e6565b62002f75565b6040516200076b9291906201afe2565b60405180910390f35b6200079260048036038101906200078c91906201a49f565b620034d4565b604051620007a191906201b330565b60405180910390f35b620007c86004803603810190620007c291906201a8c5565b620035a7565b604051620007d791906201b077565b60405180910390f35b620007fe6004803603810190620007f891906201a7ba565b62003685565b005b6200081e60048036038101906200081891906201a7e6565b62003688565b6040516200082e9291906201b34d565b60405180910390f35b6200084162003800565b6040516200085091906201af7d565b60405180910390f35b62000863620038b2565b6040516200087291906201b205565b60405180910390f35b6200088562003964565b6040516200089491906201b30c565b60405180910390f35b620008a762003a94565b604051620008b691906201b330565b60405180910390f35b620008dd6004803603810190620008d791906201abc6565b62003b28565b604051620008ec91906201b330565b60405180910390f35b6200091360048036038101906200090d91906201a60f565b62004600565b6040516200092291906201b01d565b60405180910390f35b62000935620046ff565b6040516200094491906201b1e8565b60405180910390f35b6200096b60048036038101906200096591906201ab9a565b6200479a565b6040516200097a91906201b330565b60405180910390f35b6200098d620048b1565b6040516200099c91906201b330565b60405180910390f35b620009c36004803603810190620009bd91906201a7ba565b62004945565b005b620009cf62004948565b604051620009de91906201b330565b60405180910390f35b62000a056004803603810190620009ff91906201a562565b62004bc0565b005b62000a25600480360381019062000a1f91906201a7e6565b620050b5565b60405162000a359291906201afe2565b60405180910390f35b62000a5c600480360381019062000a5691906201a60f565b62005a30565b60405162000a6b91906201b01d565b60405180910390f35b62000a92600480360381019062000a8c91906201a4cb565b62005bbf565b60405162000aa191906201b330565b60405180910390f35b62000ac8600480360381019062000ac291906201a7ba565b62005cd0565b005b62000ae8600480360381019062000ae291906201a7ba565b62005cd3565b005b62000af462005cd6565b60405162000b0391906201afbe565b60405180910390f35b62000b2a600480360381019062000b2491906201a7ba565b62005d71565b005b62000b3662005d74565b60405162000b4591906201b330565b60405180910390f35b50565b606062000b817f5dfdc8f2f6b16263aff4e1fa9daf20c3e626c84a00d5d6bcaea54312a6dedb3f60001b62000b4e565b62000baf7fa30e0aec3fd2e1f5d3fa7e060a0c71fc1a4593e346708abdd288bd71a8d9ae5660001b62000b4e565b62000bdd7fc0ca2993df56cc3a2adb97bb0ebc8fe721848fcdace1e7d885178e32eb1db44e60001b62000b4e565b60038054600181600116156101000203166002900480601f01602080910402602001604051908101604052809291908181526020018280546001816001161561010002031660029004801562000c775780601f1062000c4b5761010080835404028352916020019162000c77565b820191906000526020600020905b81548152906001019060200180831162000c5957829003601f168201915b5050505050905090565b600062000cb17ff099023c1f159266a64260fb366a6bfc73f2d01960c66920ea0020ddcbc78eeb60001b62000b4e565b62000cdf7f10f7074bbe308337495d3c4502cf6c01f2be32ca196c807f828ee19c3f97d90e60001b62000b4e565b62000d0d7fc9a2b32520bd1d8c442e96d2af7b523d6252271a193785be85992c2d0766b18560001b62000b4e565b62000d1a3384846200645f565b62000d487fed42e9e42c5b5aba6101d2063da8fb5ece96354268b7a0bc893f1a4fc0e7dbf060001b62000b4e565b62000d757ee182571078bde88a73ddd558535ad452f1e3974656f9d9f62cfd0c7da15ee060001b62000b4e565b6001905092915050565b50565b62000db07fdfcff9db5c0001a4a8ff88d7564521e5ae182f75503405aee3622d19b0e3655260001b62000d7f565b62000dde7f5a55fe4186df4e8e414a6f2504b3774e5852558ddbf409e09d2dd9273fbda36060001b62000d7f565b62000e0c7f9a5d745b65ebafdc2adb226e0021e0ff4d4dfc023c8a49423a469e21ec523a7c60001b62000d7f565b62000e1662006632565b62000e447fdf78023cab09ae4709c13c466fe04a359efc7b4a528806c19241a2b24347eed660001b62000d7f565b62000e727f45be8d4e3be200822338bad12b69679e437287e890a2343c23fe06f3602960b960001b62004945565b62000ea07f9b350276e5fb52fb7c81b825c5ac7fec200be8354da94180db445bafdb43ad2360001b62004945565b62000ece7fc0afe73a29be131cf922f198d76fed1aca33673e1b6b43469213a8bb1f1251e660001b62004945565b62000ed98162006767565b50565b600062000f0c7f10b8ca513f61e329a255990c3baacc2acfde14b45a7a53ec08eb2ba3517fe09560001b62000b4e565b62000f3a7f9b61f32c47f6c42dc51fde0671f67b217c3158e7e9782bc2213b6e2c2d5e34d460001b62000b4e565b62000f687fc21c061ae22a904437e41b7baf9cac8e362edbf8d26c2cb9e1629904ee73e70960001b62000b4e565b600254905090565b600080600062000fa37f18cc8dc20a1ad77603273d0fb77be91955c8ad792e3d7764c49079ac9b61e0ed60001b62005cd0565b62000fd17f76c635b6e7e47a035d1d142dac6a7335b96bc1b76c90516a0b4d4b0c8a73dc1e60001b62005cd0565b62000fff7f64ba82495936cfc0eddf6ffc54de798f2cc9f0e74ea13078053cb63db8d2589d60001b62005cd0565b6200100962006a53565b1592506200103a7f5cd65d0e58d3ba7b6d482ad8676260457a2bdb3b3592e2e2001a9bce46b556ed60001b62005cd0565b620010687f9621e7a8975dd596a9a85caab7f65e524cadfb5dd2c5ae64f90be4b2d8018a8b60001b62005cd0565b6200107262006b09565b9150620010a27fcaa139029346a8a379d3422961606d3a079119372f0df216b61002fbd10d913860001b62005cd0565b620010d07f1110bdcce9f69a67c5a5244ee73685e2fb6cd791ff5e0041c5c0f8b16e28af7d60001b62005cd0565b620010da62006bbb565b9050909192565b6060620011117f3af1c70740ccf7f348171b801ffffd0585a4c547f839bc57a3eaf3e3346183c360001b62004945565b6200113f7fff58ca47cb52fa5c2a595544da84bbf0db6c1ac52976820c6da7105689c0a7f560001b62004945565b6200116d7fd209e7992be65c1b6b571e3cf4d73234d48cd424179bb4ea91ce8b992469205f60001b62004945565b815167ffffffffffffffff811180156200118657600080fd5b50604051908082528060200260200182016040528015620011b65781602001602082028036833780820191505090505b509050620011e77ffb8155b6507fab0df25a0c9c997459fda1112fd5b16695a0e95168d103e3447660001b62004945565b620012157fa7a02d2c1848dc4f2b2682445eac38c102715373e4c39f27267a43d4d35a431a60001b62004945565b60006200122460085462006c6d565b9050620012547f1daa33315138b18477ff442ae68e6a56b681822fc4d27db076008f3386b96f8e60001b62004945565b620012827f1502b340b56ce10917d2f149b57d3bd69534a26d0a7e870089b9996d86c3c9e460001b62004945565b6200128c62019e10565b620012ba7f906cc0c2e4532e3ad1ca355609421b8fae285fdedee5335ddacb9c2487f0306b60001b62004945565b620012e87f01b980bfae7dcb1769a28cfb95516625302ae11267b385d4884f366f1c8b152860001b62004945565b60005b84518110156200156857620013237f3efd38c61c4517c93b4174d4a2d746a09a0651427bb1617bbb130808d9789fbb60001b62004945565b620013517fc56a01cb7ec7e35703ed944347403818ee0a63b039fc17ca11ea284e9880cec760001b62004945565b8481815181106200135e57fe5b60200260200101519150620013967fffcba8a2bc8dce36a800d0e09e1cbb73933de6e402a37adf09d93d0d6e57137a60001b62004945565b620013c47f0208b94a6e137ab77792b0bffd453a53ff768a1900cc0fe8a7bc7a58341368b560001b62004945565b620013da60008360200151141561013c62006d16565b620014087fa8f3fb299c75fbf15a3977fcd2b8cd551a7e5eb413905c51f2344d48b813ce5760001b62004945565b620014367f6a6e3a72515c4b05c8fd8463efd481b6c754eeaa135e0d5f79f21a7ec0ea376960001b62004945565b600062001453836000015185856020015186604001510162006d2c565b9050620014837fde6a58017983f51e2f6723ba39a832f306d8c06707fb1ae6e03d4226c5f7dd1260001b62004945565b620014b17fbbce7fbede07f0faf55eaa1b30b736832b5ca98b078f58a6fa312e4aae94805660001b62004945565b6000620014c8846000015186866040015162006d2c565b9050620014f87f593197691e439cd59a5e11544a4fc0d0a3a8adf302ee07b4f4b604f0a6ce353860001b62004945565b620015267f214721d7990c0afb570f5551cad6772e127d6b584410fa94795caa6e807a18be60001b62004945565b620015418460200151838303816200153a57fe5b0562007724565b8684815181106200154e57fe5b6020026020010181815250505050806001019050620012eb565b505050919050565b6000620015a07f2b1e68de6d43f0e19cec6745dfa61baade0800dd1a56bbd52e39777aebf27d6b60001b62000b4e565b620015ce7f489d99b50fa72fc3dea480d9cf73b7490c1e47fba05f2d3b7603a44ef73e699c60001b62000b4e565b620015fc7fe83485d541b5f143bd5ef5bbb3e5a63323c34810257dd385343ef069d658a4b260001b62000b4e565b6000600160008673ffffffffffffffffffffffffffffffffffffffff1673ffffffffffffffffffffffffffffffffffffffff16815260200190815260200160002060003373ffffffffffffffffffffffffffffffffffffffff1673ffffffffffffffffffffffffffffffffffffffff168152602001908152602001600020549050620016ab7f7acbc98dd8e190d79aca9eb011baee20bb2366d3eedc8a3f04245546567cc5b260001b62000b4e565b620016d97f632dfb23fbebd40c75ff33721df2a92728772e0cb1d3deb87f207cf7cab2a10260001b62000b4e565b620017218573ffffffffffffffffffffffffffffffffffffffff163373ffffffffffffffffffffffffffffffffffffffff161480620017185750838210155b61019762006d16565b6200174f7f993f4c6e8c008b0e283cc3529c046194726583f0d23a831d03ab9d99702a305560001b62000b4e565b6200177d7fa21bfb64499a28f2816f262e017191c7e2dc0edb578644d9ceb6d6514868ccbe60001b62000b4e565b6200178a858585620077ca565b620017b87f3b67f6574e48078056567f4ba1258a1a8ec3617f2d45f8f2ecd901b9097c0e9760001b62000b4e565b620017e67f529b06b2bd8fe2a2596fc030aca809d39486748c9331eaa0f97a9f291e1a439d60001b62000b4e565b8473ffffffffffffffffffffffffffffffffffffffff163373ffffffffffffffffffffffffffffffffffffffff16141580156200184357507fffffffffffffffffffffffffffffffffffffffffffffffffffffffffffffffff8114155b15620018e857620018777f877681a6d4f5ab52385493f404647a433563e82974907b48b9c73d4eb25d8f6560001b62000b4e565b620018a57f49ebf7be4c1fc91fc09bd14adacdae1bce45f86764a4287ec086129f59cc26a260001b62000b4e565b620018d37f3c617a45259a8d0f0eda006c9bb5a9b1a8e8795ae8611ddf96b8b0e7ba99892260001b62000b4e565b620018e285338584036200645f565b62001917565b620019167f5a25d1eb7570a5c2ee45cb9d5f47c07a4f5842d3f330c4e822ea66497d81cb6c60001b62000b4e565b5b620019457fb4c07bfb466a59c3b85f18ad6b2ba28067a0148a55075c9336c120227815c00460001b62000b4e565b620019737fc0c735451fb918416d33d495ba933fa43d051481563b4101952e183c5b514c5e60001b62000b4e565b60019150509392505050565b620019ad7fe43977ecc8fc383612deaa526481dd12c217dc617de9653c2d929fdaaf26417960001b62005cd0565b620019db7f23d99ded7a08dddac8712dd43904487faa99a77a20c382b416002f037975d3e860001b62005cd0565b62001a097f7c269407bd44c42660349a4c6a311bc95a370fcb345ea3b6070a5c5f1006dbde60001b62005cd0565b62001a1362007bf9565b62001a417f215733b8cd9af718b2d564e08e0d1743cce1a0f8416572ea9a1f99dafc713b0260001b62005cd0565b62001a6f7fdfcff9db5c0001a4a8ff88d7564521e5ae182f75503405aee3622d19b0e3655260001b62000d7f565b62001a9d7f5a55fe4186df4e8e414a6f2504b3774e5852558ddbf409e09d2dd9273fbda36060001b62000d7f565b62001acb7f9a5d745b65ebafdc2adb226e0021e0ff4d4dfc023c8a49423a469e21ec523a7c60001b62000d7f565b62001ad562006632565b62001b037fdf78023cab09ae4709c13c466fe04a359efc7b4a528806c19241a2b24347eed660001b62000d7f565b62001b317ff0392da51c16f314413dbe6037fec7d285db2f529c4477e3af2e3c3348f0bab860001b62004945565b62001b5f7f81aa26da6cfbcba020b016852adafdd78bc9804718b8e521c0ca9b86d1ebd65860001b62004945565b62001b8d7f60412c2d4d4ffc872e316125fb4308db707b07cae838293f08eeca7d66d202b060001b62004945565b62001b99600162007c9c565b62001bc77f6cef2c6d75046ff11658ae4510359859a38ac578a5af172bae2bd61a7f4988e660001b62004945565b62001bf57fef9382456c0713249c2a6ec109a5c3453bd23aae5e726c92f63b61da46f4c3aa60001b62004945565b600062001c0162000edc565b111562001ca25762001c367f916c69932d166c739c5672a3f8f401c737d1f89172da4e3a4ce987c5a88c176e60001b62004945565b62001c647fbb5584fade5007248f0f989b6895d382a12b192bd0ada06afa3aa51f163476da60001b62004945565b62001c927f17ad43bc1acb0295e89213c6af198e328c68f641b344e82c48b6d30140d2ab6d60001b62004945565b62001c9c62007ddb565b62001cd1565b62001cd07f59034ac88d522b891be2e1e5cf233f8ca020f6fd84465050c9604c88b55b709960001b62004945565b5b565b600062001d037f0ec0a5a4261d3a15b467b2a665a72073343642fb9a1c92da9edf1309b6d2c14a60001b62000b4e565b62001d317f57d6fbae4770d6bd21254429908c66b313d658379031dcfc56ae1e1b494b8f9f60001b62000b4e565b62001d5f7f4cfdac4ee4de89387e0f8d9dc259069cc026be59c0f08e9423e99fbadb2b6ec960001b62000b4e565b6012905090565b600062001d967f7b9d6858a657bb5a26c48be247410cf75b9bfee57661a4a4a08a01805ba9e1ae60001b62000b4e565b62001dc47f222b27ce782393a8c5154f56efad9e2896844b5b48cee66e2acfa34ffa8fd8ff60001b62000b4e565b62001df27fa0f6fd1e29310660eadf623e456941a8850d53fa660b85efb7e75898859e2fb460001b62000b4e565b62001dfc620080a7565b905090565b62001e2f7fdfcff9db5c0001a4a8ff88d7564521e5ae182f75503405aee3622d19b0e3655260001b62000d7f565b62001e5d7f5a55fe4186df4e8e414a6f2504b3774e5852558ddbf409e09d2dd9273fbda36060001b62000d7f565b62001e8b7f9a5d745b65ebafdc2adb226e0021e0ff4d4dfc023c8a49423a469e21ec523a7c60001b62000d7f565b62001e9562006632565b62001ec37fdf78023cab09ae4709c13c466fe04a359efc7b4a528806c19241a2b24347eed660001b62000d7f565b62001ef17fe43977ecc8fc383612deaa526481dd12c217dc617de9653c2d929fdaaf26417960001b62005cd0565b62001f1f7f23d99ded7a08dddac8712dd43904487faa99a77a20c382b416002f037975d3e860001b62005cd0565b62001f4d7f7c269407bd44c42660349a4c6a311bc95a370fcb345ea3b6070a5c5f1006dbde60001b62005cd0565b62001f5762007bf9565b62001f857f215733b8cd9af718b2d564e08e0d1743cce1a0f8416572ea9a1f99dafc713b0260001b62005cd0565b62001fb37f779c6e43ad38e7c4d67806c77d5942f5ad80c80b4cf4111c2b212c76f4abb65460001b62004945565b62001fe17fb4fa2adb7b6e091f30ec80c53e3b751f790bb1c3a7d39dfb69450713951dddb760001b62004945565b6200200f7f599f28d8224146c1300be7ecc6da0862501a79ee6d44bfac7f05f77f492bb60860001b62004945565b6200201a81620081d2565b50565b60006200204d7fed20b2b409b00181b9cae1d296e36601ab66f958a0318fc934934d66441ff36060001b62004945565b6200207b7ffb45806ce75b9a55cb1a862825254f004ac8084ae32f05016298f22207d3bba060001b62004945565b620020a97f1d47f5c011c0bfd4a6f9a1d7f5ba493bfef43cb2e0d02a059dc5b2af01cbec3260001b62004945565b7f0000000000000000000000000000000000000000000000000000000000000000905090565b600080600080600080620021067f5fe6f64680fdf2a09860a18fb8a26be304f32eccb013718929c209003ab063fa60001b62004945565b620021347f485d3f6abbb537dd07c3246065095623d815e689b786150ec22c086d95c0f81160001b62004945565b620021627fad30c3d2216605a28dcaa31a4ae39dc517176fa171ebaed450812ae644c46dc360001b62004945565b60006008549050620021977fd4d1e34c664fa842acfc8ade082680b89bcce942272fcd4a2ef008a17d40d40b60001b62004945565b620021c57f8e086e2597c35a00626bfce60fff89c8ec8061e807279a2f99ab1a8d64268e3f60001b62004945565b620021d081620083f5565b9650620022007fc106e93a30bedb9f6b0a575af12140124aad6e6aaab34cfae7b4d62145dc8af760001b62004945565b6200222e7f686570c5ba4d36181a70dd3fbb728069f5e090be33e56feee4cbf28cc298b39060001b62004945565b62002239816200849e565b9550620022697f59cc1bdcbe268fbf1d238ee9762f24ef0c84f52ce9324cb93dbd9c842151c03f60001b62004945565b620022977f1b93d6f4c7932fe824482b361233f0157ddc7773d86df24663d1c14fae0f7f2760001b62004945565b620022a28162008547565b9450620022d27f5bb7ce556a70b17130947dcf3bea3a9e89ba6e482ee51dd36651661f69b1a2dc60001b62004945565b620023007f1866e43ec7b197fae05811147e890f25d2982d34050edecccaf96eeac5a7881a60001b62004945565b6200230b8162006c6d565b93506200233b7fdeb9e0b58cf4af6e95eba22099dadc0b20d64d93be44cb5d8530511eecfbae9060001b62004945565b620023697f5951393cf2ece917204e93a9ac2e68bd9f4483506a70cbaf0d6dbc73a77cae0560001b62004945565b6200237481620085f0565b9250620023a47f5b690a9dd3ec3d2a49f2b4cbc38cd4ecc3b04e4386d5f23fa283b90a49ba15b960001b62004945565b620023d27fd237a192f06ba7e7ff658be7aee8ccfbfb6941cdcdad7d57f138c396b98ef9a160001b62004945565b620023dd8162008699565b915050909192939495565b6000620024187fb6e33b5d579f0db56ea1db3d0c0d04e30aa0ef50369cd81a0b90e178e1b1c99460001b62004945565b620024467f4b658c212efea3ce5cc3fc175855974dfec1e9dd70e4f280e0151afb2166c7d460001b62004945565b620024747fdffa0bde9c3e49a691c4738fbd424307fb6d6358f4812670bd2936adba27317560001b62004945565b6200248160085462008699565b905090565b50565b60006060620024bb7f4c2d6b1fda98d9f1e93ee01f29a72764a42fa8b1def2c2530e595240112766fe60001b62004945565b620024e97fab196a09643a588ce39b70b058c4d1430f010270b3beca45480a37b57a026c1660001b62004945565b620025177fe5e7cae1adaf38453ca13a687858a9c162556c7db254632d6c938bdbaaa24b4f60001b62004945565b620025258651600262008742565b620025537f2eb3c41ceced7c0e69339aa667ae42b5ef2558561a017a0e4d72fabd5d5c3b4460001b62004945565b620025817f22aa7cae2e151134177efc4c9e9270e489acd6cb5459fdf45d31547f7f07a76660001b62004945565b6200259a89898989898989620087df62008d8362008ef8565b620025c87fa96192b2dd6622bc96f3c43395c4a1367c89b41a707992355bf0b91aed9bbaa060001b62004945565b620025f67f2b117ec15cd544e7c92cfdb503e3fe590870a9e3963e87cdaa199a116a5d393460001b62004945565b97509795505050505050565b60008060008060008060006200263b7fba3b533463241377eda29b5bb88d493a35490be8e2c164ac3193e8b8fbc5b5be60001b62005d71565b620026697ff6427835e6a64ea6b3c419d83fa98505ace295a67879844c38bef69dc587846560001b62005d71565b620026977f6f17de23b1da069973513f3e62de0f5bb859d452fe26af548b3de63469445bbf60001b62005d71565b620026a9610400891061013b62006d16565b620026d77fb978d8997c79ea8c192172cbcba11f61092004a078127ebbf06cd255787bd46260001b62005d71565b620027057f2ff47f4e8f6be69d3b9c0e510299538876fb8411b1036863fc289283172c9a0e60001b62005d71565b6000620027128962009335565b9050620027427f493533f703aef7cd6f267cf4779021b8f895bf576dc2b170f2c2537c0281abc360001b62005d71565b620027707ffff27bb16f16f83b9b7b9c57fb762b4b4d532399475e24db5682bd68041c94da60001b62005d71565b6200277b81620093dc565b975097509750975097509750975050919395979092949650565b6000620027c57f9e886b13fe83ddbdd49ddff84b8db0770f40ebeb89e7767374810c5951ac06e060001b62000b4e565b620027f37fec9c727c77fe71b446b8dcb9e22621b7844e4322ac87f4636dcb1f0c806aa37560001b62000b4e565b620028217f9a17f4bf3bac6a1bc30cadfc6ae50024fc3e8251ef119ea91453c2a3e420adc660001b62000b4e565b6000600160003373ffffffffffffffffffffffffffffffffffffffff1673ffffffffffffffffffffffffffffffffffffffff16815260200190815260200160002060008573ffffffffffffffffffffffffffffffffffffffff1673ffffffffffffffffffffffffffffffffffffffff168152602001908152602001600020549050620028d07f5922c35e5f73ae05092818b1f7b0c44797377194bd499f99f1c2077f3fd1c4c860001b62000b4e565b620028fe7f01453c7256085fd17022dcb356a648dea5d7efac07338cbc6f102984c8db7b9060001b62000b4e565b808310620029a457620029347f72b36832788940f9320277c336a2d678e3216bcbc5484248c1fa638a545f320560001b62000b4e565b620029627f6a5a7537a58b48123fe33961801bba4b8ad35b8798924133a54512807bc092ac60001b62000b4e565b620029907f47ead17c5e97a264787958b84a42f9ca9fa2b95b49cacbbd4c630f550edf4c8960001b62000b4e565b6200299e338560006200645f565b62002a50565b620029d27fe0c6e1acbc0c93efa3cd3c5de89788c5297269cd45a95cc29c6449ca54e2f74760001b62000b4e565b62002a007faa1fa72b76ce08b04c07f37c998e79f654b5e3ea11540321253e2d6311b6fc6d60001b62000b4e565b62002a2e7f9579ff871a854be8860bea9ad6efbee0ee4398ccdcc001158a3934eaa2840f0a60001b62000b4e565b62002a4f338562002a498685620060c690919063ffffffff16565b6200645f565b5b62002a7e7f631ba605d0bd564ce016162d98849ae6fa17331b1a63fe65aa9f9f1d1aa9650a60001b62000b4e565b62002aac7fc529ad0aa0cf0174e531f67dda35d462565a02e95dc9e8ec950fe53458d2180860001b62000b4e565b600191505092915050565b600062002ae77fdbf981dabe17f8d3f65f9475bbcec6c1b2c1848a84f2b469194c00a1f08076d660001b62004945565b62002b157fdab0f31bd9552e6fc28dafee40ed7746d5c5620694952cd6efaf61498a93294c60001b62004945565b62002b437f304fe654edff4a002e5f427ddbd64626127ab71c43cd815d6551c7bd5823194d60001b62004945565b62002b7662002b5162000edc565b62002b6762002b5f62004948565b6002620096ff565b6200987990919063ffffffff16565b905090565b50565b606062002bae7f540fc89a9a137ea9007a2d7c41dc51c51602d53b7d3e3b6220126997ce8bd25d60001b62004945565b62002bdc7f391195b1caa6b32c0af5457b3990fa4f86ec9fbe6f64bd703674b09010f56cf460001b62004945565b62002c0a7fadc900ba0b2344f609b0f34f33047f8ed4d03197f718d0fae0fd0c6faa01c00d60001b62004945565b815167ffffffffffffffff8111801562002c2357600080fd5b5060405190808252806020026020018201604052801562002c535781602001602082028036833780820191505090505b50905062002c847fd1df074d52a2943051cfacf2818b0f53879366514efd4ca86b639797e7867b9f60001b62004945565b62002cb27fd2d6cf4882beb63f2f860700a1aebd0c5a2ebb7460fb80bc5eead7c330ba067e60001b62004945565b600062002cc160085462006c6d565b905062002cf17fbe7ab6417fdb136b1c5be255582486fc8adaef94d471e6affeadd27cfd52234b60001b62004945565b62002d1f7f85e97829c516e753da6f00d506c1502b512c883e00784a3044df7ab09577261960001b62004945565b62002d2962019e3d565b62002d577f7db83cd4d86338dbb7dd65dd0b96fbc93332b2ba34479cb5516bd28bff67ccfe60001b62004945565b62002d857f827580d467d9a02daa00730e575af348af1d98161c9c0ba7b92930d6898309ce60001b62004945565b60005b845181101562002e9b5762002dc07f44c5d77e55b2245e5f3b6aeb5514463402e4fd82c50524d680ed04930457337360001b62004945565b62002dee7fb929d85aba189ecb7f9868bec230cea25fa2890459f5127b55deb19c01d6505960001b62004945565b84818151811062002dfb57fe5b6020026020010151915062002e337fa4b5e024327c883d654f47e3090659d30ad4d49bab4027c8997d76ddb0e10ec360001b62004945565b62002e617f2bdfcad9c691a10165fa0bbe03fe98ddb883092b6ab24b81f6a9ffb066a6f41360001b62004945565b62002e76826000015184846020015162006d2c565b84828151811062002e8357fe5b60200260200101818152505080600101905062002d88565b505050919050565b600062002ed37f382873c8fcc382f0d728db834c0253683b060b98b38095c9ec22b0eb55ea9d1360001b62000b4e565b62002f017f46809fa8f85043d4775d1937cae706044ebeccd6afb406b6884876e43d3b6aab60001b62000b4e565b62002f2f7f015c91f06107538327f54221a477c8cf22ce56a6baae0977d4d148884d91a4f360001b62000b4e565b6000808373ffffffffffffffffffffffffffffffffffffffff1673ffffffffffffffffffffffffffffffffffffffff168152602001908152602001600020549050919050565b6060808862002fa77f67baf0c72d35647848460e63810bd484534a003f2422dcc625f3acd001899ddd60001b62004945565b62002fd57f2cf8e7f49c60540692182b5e0f29aafc53d12a0aa8a1a9018599ef41dc451e0760001b62004945565b620030037f510cb4b090454dfa2a14426c0a68e913715ddfa97a435bd27bee9b65f4003c8260001b62004945565b6200304762003011620038b2565b73ffffffffffffffffffffffffffffffffffffffff163373ffffffffffffffffffffffffffffffffffffffff161460cd62006d16565b620030757f7a5d426ef3cbb8fb1418e10c4b0eb7327a0410632f6c65a2047f50f5bd3f64cd60001b62004945565b620030a37ff9392aa35b524759abedc57090a11a13b15ad94e88e1c2b76d60c56b6296756160001b62004945565b620030bc620030b16200201d565b82146101f462006d16565b620030ea7f1e42342f3a3f37402ddded2d477d0185747cb12e515ef155521fa07f70de4df560001b62004945565b620031187fd1b51d69e70defb53d5681c2c99476506fc7f9b9a047e393761916d5e5c4faa160001b62004945565b620031467fee04c2cc158d165470b5890f20c6cbb2f705825bd0a48c936b64c360af287b8160001b62004945565b620031747f9c126166d7255f862d05c8240d74d1050d7dda34372850c8f100d88a592b98ca60001b62004945565b6200317f8762009b97565b620031ad7f34a0aaa610dc5cbdf94ba8f3d29707ae37c6883e665636a843bac574815aedfe60001b62004945565b620031db7f92af73f00fa2775adc68ac279b83058406c84b364a67e16ea3f3497292d605fe60001b62004945565b6000606080620031f18d8d8d8d8d8d8d620087df565b925092509250620032257f53e1a0a97dfb9747020bd0d83a3ef09d4342ec945954f0be4969f1a82b6d069c60001b62004945565b620032537fbf05c89b52e6ad003387d56cca19b9b7b2adb7e82173dc1b215038da7a4aefd460001b62004945565b6200325f8c8462009d0c565b6200328d7fa905c24d2ddc166c436020c3b7c8f52d2ed837da06adb6b167d87fc563e14e6060001b62004945565b620032bb7fb34a79b370c771ae451987e40c77e176ceef525ac170036590d82938485d58ad60001b62004945565b620032c68262008d83565b620032f47f45b1331f6920c1d37445880caf439f3737074080c390abdd8549dfcc3fa1114f60001b62004945565b620033227fb4f0d1cc1a9c87440258a8fb68ab2921ed29b70b7271a9ee7dfb9c4ee00b384a60001b62004945565b6200332d8162008d83565b6200335b7f320627c8765317e99cae6d05d732bd3087f034d749fdfafce7c65006cf1ced4360001b62004945565b620033897fc58819b043100ee9ac020d54e96271f31d225a2adb81de434a53d77817efb0eb60001b62004945565b6200339362006a53565b156200343357620033c77f1ae0b88b8255fe632d4a5ee2024d8f670124f05a49724487239a91fcb9f5c27a60001b62004945565b620033f57fc2908f4b51ff6a91b515f7a02f146051b0318984481d8c6ab58c557d7647566a60001b62004945565b620034237fe46cd26f97177ed0065afc2652dcf59cc98485512ee43a064bcdfad95491f99260001b62004945565b6200342d62007ddb565b62003462565b620034617fc562ef6f04057639a996571e852b137f10c52f0a365c9f7690035f4a336428ea60001b62004945565b5b620034907f9338d093a0055abff8f1d272753c9190515016897cebeab9049195dab35c8f1f60001b62004945565b620034be7fd33d8d28510b3f80759241df6cda4b6767362f8d6eaacc549e91ba73d811772060001b62004945565b8181955095505050505097509795505050505050565b6000620035047f82244de36650365c37b1ea38d8ab1911dfba5dc66fd1822227b8536c60a153c560001b62000b4e565b620035327f89e532722baeeeca9424921b54a4e64c5f5d97531b3e795b9b95707e8bfe3b9360001b62000b4e565b620035607f9b9a62eceead51d5e1371b1d60e41966887c24d6bb4e0b425baf8e47d3144e2a60001b62000b4e565b600560008373ffffffffffffffffffffffffffffffffffffffff1673ffffffffffffffffffffffffffffffffffffffff168152602001908152602001600020549050919050565b6000620035d77f5b6d744b9984ca0f940181ee5e7f3f9141a56799465d611578a724e75da3f27360001b62000d7f565b620036057fccd34a442ea9189944d6242d7d944d51762e07badd0e467c1d9ef323954e783260001b62000d7f565b620036337f9b5e1c3ba3409b07d3693e410c8f9054dc20b55c829e32dae29721db02bf3ba160001b62000d7f565b7f000000000000000000000000000000000000000000000000000000000000000082604051602001620036689291906201aef5565b604051602081830303815290604052805190602001209050919050565b50565b60006060620036ba7fd6c7b15ce7a84489cf98adc963ee3ce391f235c0d669aa5c9ebfd9a1149607c460001b62004945565b620036e87f0920838c0f1167346f0a3f06c474773305834eaad41c587564f44d2d82b67ccc60001b62004945565b620037167fad27d3ebdf39f93f3c329ffe9018ad28af78ac9daafdee04a62d0f755d415bb860001b62004945565b620037248651600262008742565b620037527f1755c1a4c8b6b0b414a6c2e0c48367505de2c756e02e715511fda030079e454360001b62004945565b6200377f7e4627efbdf7786f38cff6b853626dc8953dff9616f35b93b79e86bccb05ad3e60001b62004945565b62003798898989898989896200a0286200a3d062008ef8565b620037c67f4b864b0278080fe6f447d8343d8fccafeb7168ecb0ec29574ad2c824a0fd03b260001b62004945565b620037f47fd5e0b4d2a4527f25d42296353b6c03f0b15da9dd4a66adb787a9ecc92bfe87c360001b62004945565b97509795505050505050565b6000620038307f9c9b30d982dadfcdef9de212bac830915a4d1caaaa28d64e1033fa6637fb8a9e60001b62002486565b6200385e7f6bb33126893ed90bb9a6374d2ef750831530e2021ba352adfb8a6ff610d4d16b60001b62002486565b6200388c7f04f24c8d535508dc1885ac2a967a18e700fbe86b4081bac79230f350b560f18a60001b62002486565b7f0000000000000000000000000000000000000000000000000000000000000000905090565b6000620038e27fd6d88fee6990c1d8df18d013f3b1336f1a0f4377129892cfe0e0006397552e2160001b62004945565b620039107f33d6e19c9644e8123e6d0feeec648d06aee1f0f330bf7b8a972107af407226d360001b62004945565b6200393e7ff2c52859d7b8712320f654acb4c53c26aed3bcc42068240a25422d79df7070dc60001b62004945565b7f0000000000000000000000000000000000000000000000000000000000000000905090565b6060620039947f1b09bd64ab4c8210a35428f1ebcf545cbe7c19d4fed39554617e53111611734a60001b62000b4e565b620039c27f6a0372273e898356c46874c4805cc38713baf71f5da51f956f2c0caea21eacae60001b62000b4e565b620039f07fdc97ed429cb526ace9069d77526e830a568ebf7c714325c4b9a7f50c245d38be60001b62000b4e565b60048054600181600116156101000203166002900480601f01602080910402602001604051908101604052809291908181526020018280546001816001161561010002031660029004801562003a8a5780601f1062003a5e5761010080835404028352916020019162003a8a565b820191906000526020600020905b81548152906001019060200180831162003a6c57829003601f168201915b5050505050905090565b600062003ac47fc74b8d84f32dc0d8ee16f7759f490a94d50a49ccc39fe5ed8268c9c9c5101df960001b62004945565b62003af27ffc068232b91f10a1723ccbad4e31c64fcbdf4c31ba097cc850d847b7e3ca219460001b62004945565b62003b207f23ad1d3b373c46cb997dc2283986a9265235009fb0a99488eeb071c1a6e6599060001b62004945565b600954905090565b600062003b587fe43977ecc8fc383612deaa526481dd12c217dc617de9653c2d929fdaaf26417960001b62005cd0565b62003b867f23d99ded7a08dddac8712dd43904487faa99a77a20c382b416002f037975d3e860001b62005cd0565b62003bb47f7c269407bd44c42660349a4c6a311bc95a370fcb345ea3b6070a5c5f1006dbde60001b62005cd0565b62003bbe62007bf9565b62003bec7f215733b8cd9af718b2d564e08e0d1743cce1a0f8416572ea9a1f99dafc713b0260001b62005cd0565b836080015162003c1f7f67baf0c72d35647848460e63810bd484534a003f2422dcc625f3acd001899ddd60001b62004945565b62003c4d7f2cf8e7f49c60540692182b5e0f29aafc53d12a0aa8a1a9018599ef41dc451e0760001b62004945565b62003c7b7f510cb4b090454dfa2a14426c0a68e913715ddfa97a435bd27bee9b65f4003c8260001b62004945565b62003cbf62003c89620038b2565b73ffffffffffffffffffffffffffffffffffffffff163373ffffffffffffffffffffffffffffffffffffffff161460cd62006d16565b62003ced7f7a5d426ef3cbb8fb1418e10c4b0eb7327a0410632f6c65a2047f50f5bd3f64cd60001b62004945565b62003d1b7ff9392aa35b524759abedc57090a11a13b15ad94e88e1c2b76d60c56b6296756160001b62004945565b62003d3462003d296200201d565b82146101f462006d16565b62003d627f1e42342f3a3f37402ddded2d477d0185747cb12e515ef155521fa07f70de4df560001b62004945565b62003d907f32984d12ce2e7cdb718cf95567c8b311ace0416888f29faab760b4d2cac293db60001b62004945565b62003dbe7fa7426797a2718b669566f8b872ef6d4f62bf76525cf6c8cb417aef0d404f5c2160001b62004945565b62003dec7f5321f9f824a94b761eabeb50dbebb4dc26d230d4752ae379bd3a37f6ad03e38260001b62004945565b60007f000000000000000000000000000000000000000000000000000000000000000073ffffffffffffffffffffffffffffffffffffffff16866020015173ffffffffffffffffffffffffffffffffffffffff1614905062003e717f22e1cb8fbeff357e8169ac4a6e2ee42a9aa1d0a32a502baf87d859e6e3ea0bfb60001b62004945565b62003e9f7f3de07c92a8f04b0234bc2151ad8963fdf1c5a1e605076d79623e614e2b3fa8ea60001b62004945565b600062003eac826200a545565b905062003edc7f7a0cb1bb076f94df8caa6966765ecbc2a8a5ca0d78c741e9a5759f8891a04e2360001b62004945565b62003f0a7fe79748b65fafb5e092d4ab271c23a666e46629fe12ed41ce1ba08811aaf9c4d260001b62004945565b600062003f1883156200a545565b905062003f487fc2246fe9e053dc933a8371740eb35dafdc1a027aec54e61ae9afd81bbb050e6460001b62004945565b62003f767f9b9d84aaaebfd8dc89efc590b40ab573581a193a2484a35e362472baee2ee04060001b62004945565b600062003f83846200a627565b905062003fb37fdef552427400c4ffab103bc2f22f81aa8184b86163f19e0ec903afce8ae6b5cc60001b62004945565b62003fe17f3fcdf3d11c524bd2244cd7ba6836ffe799a6c36bd30a103fe4d13be18032346b60001b62004945565b600062003fef85156200a627565b90506200401f7fb390a6b3508d2e76e9c6031c4ffce2216c95da0ec8ee46d2446b51254fade6b360001b62004945565b6200404d7f74f018e5d57b9e0da8b8d1e1fd5cb6739dd57e0115177858debaf9cfc425525660001b62004945565b6200405989856200a709565b9850620040897f4d46ae1baf96ddd965a41ab420a775c83c1257ba2a74ca324ebca1e9d6bdf70360001b62004945565b620040b77f5a1d5653bad5210ebbb155eef488efa92a7f12c1f18d1fc614b71bbd763c241460001b62004945565b620040c388846200a709565b9750620040f37f3d50240278691ab35033b2ec8c3677abcabff093c0d7c8c9820bfde7712a080460001b62004945565b620041217ff2497b128e3942a42c4c75dde7955ebdf76dd67dc87cea22bcc5fd43d37a863f60001b62004945565b6200414e8a60a001518662004137578962004139565b8a5b8762004146578b62004148565b8a5b6200a7a9565b6200417c7f0b76e5ecca8137dbad43fa6980d039f6584adad7442dea4ca4a27a1fc8cd1e3860001b62004945565b620041aa7fcac26e362b513842262605b91b2a2e7fa0dfec6b2711faa2a0ddb58c745f23bd60001b62004945565b60006001811115620041b857fe5b8a600001516001811115620041c957fe5b1415620043ef57620041fe7f8fd4a05fb76632a1e3c25cd0aaa51eea5816d4b42d04496ed9d51c7237db082160001b62004945565b6200422c7fea807da8190316f4ea6bca305d4abdd650eb8c7320450601217ec9cc22a55f7c60001b62004945565b6200425a7f75fb46ebb8e267ab094ec930c55cd691a1f847aa2a7de942384c3c5e7c3dbab360001b62004945565b60006200427e6200426a620023e8565b8c606001516200adc590919063ffffffff16565b9050620042ae7fec2b5ab6257180c17c6c0d24dbdc12e35a9ba50a1a15166f0acb41c32dbbe25a60001b62004945565b620042dc7f578b2eb20cddc54c53e7f5bea58be516679d930033f3d30c84c9179f2d0c2c4b60001b62004945565b62004300620042f9828d606001516200b08190919063ffffffff16565b866200a709565b8b6060018181525050620043377f5c6ec4c4924451f3962b365bb034fcb18eaf644fcc07b00e57073b29d4ef9f8d60001b62004945565b620043657f68cd52b64bb1e48f3d5ecaf3a307b467562779c55302819feb94fc1c5931645460001b62004945565b6000620043768c8c8c87876200b1e6565b9050620043a67f128a5b0224fb827d1c86a78ca0c139ec773cfe85ff698ce2ad5a1a3761f8af2f60001b62004945565b620043d47f4449d91b5f2ad49c2de93bf8bcb515835e5f01d2c2e5f730a3093ac415efe00b60001b62004945565b620043e081866200b290565b985050505050505050620045f8565b6200441d7ffd099352e8cd6771e57a0f6fa8ead12b91117ef12e0486805fd62f1c9ec7c1ca60001b62004945565b6200444b7ff0f9b25885545db283b9781f236a86d5ff9b9aeaf9afcb174650443acbe6aa4360001b62004945565b620044797fcd272a0169d858eeb60a997d1d3978e7b0eb20d46cd16fb4e2f5e2dacc7d7bd860001b62004945565b620044898a60600151846200a709565b8a6060018181525050620044c07f62729d629232c6b33f8f50c6bfe7bd733cfdec1979cce0dd5176f31c6104b68e60001b62004945565b620044ee7fa6539c1b3288a263ebff904e293e5ba793495233c7302404dff73c90c265023960001b62004945565b6000620044ff8b8b8b86866200b330565b90506200452f7fa51b7b6e88362e4703237fc00098dbd651bde05e77e0f0f95201f3174b107b3660001b62004945565b6200455d7fa3e6aba4b71e08c80cf65caada23f3d48161e8256babc95818199c7d8472f93060001b62004945565b6200456981866200b3da565b9050620045997f3052999f4b5c250db9324c470ccdf4259716e6104187c5363321e4cefd30c8d860001b62004945565b620045c77f16a3c9ae22a03ec3824f4b8b3258d70a775a1f37dd3da99f00d45aeae441559060001b62004945565b620045ef620045df620045d9620023e8565b6200b47a565b826200b53190919063ffffffff16565b97505050505050505b509392505050565b6000620046307f6deb191175557e21e4d5b5048415d02d1ec203d2bd1340ad5ceab8c8bbe5637a60001b62000b4e565b6200465e7fd80de844ca89d8d20c246318e9b8c31bf9962c8573820b07b2d59addbc0bd06260001b62000b4e565b6200468c7f7303993c8221041674f06a2709b06c531d6c945aa2593134189fcc39ebabfcac60001b62000b4e565b62004699338484620077ca565b620046c77fe51d6f2d5a55f449e5620034e7576eaf2db66cf857562e9da7e8cb30115fd3df60001b62000b4e565b620046f57fda42cdc715c33e6f9d242db4cd8e8b9c0b2d64bf1b38ae911fb46754752d016760001b62000b4e565b6001905092915050565b60006200472f7f98f97f59cb131fb82cfaee06e3cf383c35cb150c5a8fdeaca8eeefd8396a6e7660001b62002486565b6200475d7f7d4359fef2acd5fc57a14345e963109c58bcbbb9bd9e0113a171f687be8af81d60001b62002486565b6200478b7fd33f29812c982b3eab2164dce71d52ee5a5ef4e53b0a1b101eac738299ea9ab360001b62002486565b620047956200b855565b905090565b6000620047ca7f0d46c50a5176681b0ff0189af8b309f2ee6c75048d1dc0775af0c1a59f12ed8860001b62004945565b620047f87fae6735dc69eb0f1642558ec9b77761d6743d3f73b69de9f26735ab137964664a60001b62004945565b620048267fb631ff03af9c6f0060b2d3660006addb02e51f62db6cb5d71a3c26d19b25f39460001b62004945565b600062004840836200483a60085462006c6d565b6200b970565b9050620048707f4dfd7d427f49cd32036bbab54df9dab4eef424b844c38947144a52107f32948360001b62004945565b6200489e7f59f147bf8f268bf04ad5a9ea4cad5a962bffe8f63f7dc9e2fd9d3d2397bee23160001b62004945565b620048a98162007724565b915050919050565b6000620048e17f318d2dd8ec4fdb0ed36bc48c3ddbc176fb1024b56cac8e62a080346209d7b4c560001b62005d71565b6200490f7fe95a94cbdd8aed9532244b9953103a0152fa4a0ae6ab65618a6092be812c017160001b62005d71565b6200493d7f6e0c5516b4470279441e2a94716dda60a9e9ad0f0696f4d6f94f1a444047f43a60001b62005d71565b610400905090565b50565b6000620049787f0836168a48df56aa4a2397b942065b5b34cd5eae4b87bef0ce2ed049a866f04660001b62004945565b620049a67f12d0f70b10193a5d1d786d24f4c0f4d32fb93b64c549dc3f5033642f824b449060001b62004945565b620049d47ff4933dc46d68117db25bf83b5b6fe68e593a607ae29e63ad0f8c2e3315d665e260001b62004945565b6060620049e0620038b2565b73ffffffffffffffffffffffffffffffffffffffff1663f94d466862004a056200201d565b6040518263ffffffff1660e01b815260040162004a2391906201b077565b60006040518083038186803b15801562004a3c57600080fd5b505afa15801562004a51573d6000803e3d6000fd5b505050506040513d6000823e3d601f19601f8201168201806040525081019062004a7c91906201a650565b5091505062004aae7f917f4562ae346c0a167bea2c7e65aa3e207970c09d387af14c1e4eae28bea69260001b62004945565b62004adc7f3c7684ef3d07261af729e8d0deea4f1592571c856aed7f35b605319f5cfba67e60001b62004945565b62004ae78162009b97565b62004b157ff6f9bfef6bddba7a498e68ec3ba38c408d00f6e0987cc0792631f5dab5a97c1260001b62004945565b62004b437f3845d81ffaf2f0cae90e8b9c2f708f33e1b62cd4597669ee59ef55c6822021e360001b62004945565b606062004b4f6200bafc565b905062004b7f7fc646ac6bcfd6e7d4d05d85d0087fb0bb31a394cc40156bc8e13f1a6d2c52144760001b62004945565b62004bad7fccf689268980e97b2aeaf378e05441628918915138e4da34646e6fdda60d1b2560001b62004945565b62004bb981836200bd3d565b9250505090565b62004bee7f92d8088417b633aef9db9560d22473cbb0829dad88088113714e86b3045ee6d460001b62000b4e565b62004c1c7fe6d99ef77a15061b9388a4be137bce3ab9f89da5d47b6cc0381b37556fb366a560001b62000b4e565b62004c4a7fc9ec9b33c0a89aa9c06a0e246f7266b0b7f56e99dd89ff9fde5facf1df91f04960001b62000b4e565b62004c5a8442111560d162006d16565b62004c887f0d5d3b7479f11a85af9f69520d511f16edad0d20279bc39c96adc2a9693e424b60001b62000b4e565b62004cb67f1837a5abb40ba9b89d45d3bfa614f5e0cef7c17ae0b08272496053cc719990de60001b62000b4e565b6000600560008973ffffffffffffffffffffffffffffffffffffffff1673ffffffffffffffffffffffffffffffffffffffff16815260200190815260200160002054905062004d287f71c573ac129a542e0ef7ef0f274613fa70efe280b19ce94bc4bb330b0ac321b860001b62000b4e565b62004d567f49e5eb4019850e3ac49c419ccfe5374994591f79430a262f0d42e4383deff1d560001b62000b4e565b60007f0000000000000000000000000000000000000000000000000000000000000000898989858a60405160200162004d95969594939291906201b0d1565b60405160208183030381529060405280519060200120905062004ddb7fcaf67d9ef00cb0711a1a79c9266801d8b10566ad258627da9176df7ca508468860001b62000b4e565b62004e097f9e88cd1db5d0da84d0f42b5642e94676eaeb714dea06cdbb54a90fd2e501453560001b62000b4e565b600062004e16826200bf6e565b905062004e467ffbb8f77bb41a1d90f4c692267119eb52783b5c658a90b6b4be513a7b0c8b614a60001b62000b4e565b62004e747f37d2d51bb038651f842276de0361db8fd6b148f3738f07359c9ad4f6d416187d60001b62000b4e565b60006001828888886040516000815260200160405260405162004e9b94939291906201b19b565b6020604051602081039080840390855afa15801562004ebe573d6000803e3d6000fd5b50505060206040510351905062004ef87fd1d138253e25432a8badf5378b017a1388c994f997eb395294878705d58b96e060001b62000b4e565b62004f267f84f8670eb58ab07f1e88c484c695c261c0e65808f8ba9e9b0c51d9ffdc84902a60001b62000b4e565b62004f9c600073ffffffffffffffffffffffffffffffffffffffff168273ffffffffffffffffffffffffffffffffffffffff161415801562004f9357508b73ffffffffffffffffffffffffffffffffffffffff168273ffffffffffffffffffffffffffffffffffffffff16145b6101f862006d16565b62004fca7f22d7de187d767badd08d0f56b9032ebaf3425b342596c16a4d6c074cf3f87aff60001b62000b4e565b62004ff87f177abef53e1d0dd58ac47c7df006757d5d6f236a0aa590407ec19064e1ab44ae60001b62000b4e565b60018401600560008d73ffffffffffffffffffffffffffffffffffffffff1673ffffffffffffffffffffffffffffffffffffffff168152602001908152602001600020819055506200506d7f4cdd763c9803f8c2ced5b3f501b434276e7e1cbed3e20f3bf45228060143216e60001b62000b4e565b6200509b7f0889d4543369d8b61a6a795ec77232055ddea529d88d80d8fbb5228a924dff2060001b62000b4e565b620050a88b8b8b6200645f565b5050505050505050505050565b60608088620050e77f67baf0c72d35647848460e63810bd484534a003f2422dcc625f3acd001899ddd60001b62004945565b620051157f2cf8e7f49c60540692182b5e0f29aafc53d12a0aa8a1a9018599ef41dc451e0760001b62004945565b620051437f510cb4b090454dfa2a14426c0a68e913715ddfa97a435bd27bee9b65f4003c8260001b62004945565b6200518762005151620038b2565b73ffffffffffffffffffffffffffffffffffffffff163373ffffffffffffffffffffffffffffffffffffffff161460cd62006d16565b620051b57f7a5d426ef3cbb8fb1418e10c4b0eb7327a0410632f6c65a2047f50f5bd3f64cd60001b62004945565b620051e37ff9392aa35b524759abedc57090a11a13b15ad94e88e1c2b76d60c56b6296756160001b62004945565b620051fc620051f16200201d565b82146101f462006d16565b6200522a7f1e42342f3a3f37402ddded2d477d0185747cb12e515ef155521fa07f70de4df560001b62004945565b620052587fe43977ecc8fc383612deaa526481dd12c217dc617de9653c2d929fdaaf26417960001b62005cd0565b620052867f23d99ded7a08dddac8712dd43904487faa99a77a20c382b416002f037975d3e860001b62005cd0565b620052b47f7c269407bd44c42660349a4c6a311bc95a370fcb345ea3b6070a5c5f1006dbde60001b62005cd0565b620052be62007bf9565b620052ec7f215733b8cd9af718b2d564e08e0d1743cce1a0f8416572ea9a1f99dafc713b0260001b62005cd0565b6200531a7fe099d6c6a39496a129981eaa93cf4407c9a4980cb47cec2275006674fabfa82e60001b62004945565b620053487f5b3506ed9a6c60a36b207ad0579347e99052fc1c35fe2dd29d0523183b22382e60001b62004945565b620053767f8ca825ea8b41f67bea8ecfb7aa064daa1569555c82b64d6ac159b966707362bf60001b62004945565b6000620053a67f85d58977b839472a4707329820ca88d62039740c64ccbb10bd920ed1bed3ed4560001b62004945565b620053d47fadc65efdb80265dd3ffdea2ad63fe3fd2617a8d33d85ca8fee0e9e93d9feba5e60001b62004945565b6000620053e062000edc565b1415620056e457620054157fa498e29ddef815d734626cc29019a1b46e3148270fdba9fca5f999fbc370be9860001b62004945565b620054437fbd66d4a27ee655b2f56b98d20c83989d48b1873beb59764c85199962907a1a9160001b62004945565b620054717ff0bcea1fa19b3ea61d035170d3d3eb9f2767522205ffd2de66f2fcfe2e4fd27d60001b62004945565b6200547f8b8b8b886200c035565b8095508192505050620054b57f590e23fea8a6bafe27a5e19d0def5a979f927abea3a4b3c3c3e86bae1b21402360001b62004945565b620054e37f9033ac2651872d8eb28ee0f020074c6d0cd91ad5de5e1cc343619a15d02d0dc160001b62004945565b620054f6620f424082101560cc62006d16565b620055247f451fea9d78c110c66af82151ebe00b479c8c462edff636054fe59dbc4a86961360001b62004945565b620055527f4e97dff18d0c357aa8d63db41f25bf9199ae7344039011d713bc2745e64b12fa60001b62004945565b620055626000620f42406200c4a8565b620055907f23e9e155ffb0ce470ef4b85eb5d4e11976c679f22d1e73f6d65da728ad77bcb260001b62004945565b620055be7fedee599d9f81865194bc2a8062ef38034e7fd9854862c5dc0684d387d018852660001b62004945565b620055cf89620f424083036200c4a8565b620055fd7fe77783d03914b20c9fefca67dc6c33efafda2fa6b9ec806a7ad19ea33d12307960001b62004945565b6200562b7f902325c315b9625a35fb94531d9af2ab92a15ef52c4a79c001185cb25551162660001b62004945565b62005636846200a3d0565b620056647f2d60abcd1c6d306fd1f0747af455a06f91763a88be49673a6b8b9eb8fbbe20b260001b62004945565b620056927fe49934207298aa7cb0d9ff18d423d019c19204fd32bebf16604c70e97f4220ff60001b62004945565b600267ffffffffffffffff81118015620056ab57600080fd5b50604051908082528060200260200182016040528015620056db5781602001602082028036833780820191505090505b509250620059bc565b620057127facb12526ab39af9b309eedc3ee1bc593102532c90f8495c346ed72cb4275514a60001b62004945565b620057407f875051667a00ead97b2f6d3ff321013310a67d8b06d8f64337e113c1b79b901660001b62004945565b6200576e7f4f2dd33f6d13bdfb623206192e9bbc33d12aed4280c6ccad7062723c9d0450c560001b62004945565b620057798862009b97565b620057a77f91fe8b6fa931e673529c3e44f6abdc33391129873480d6e02b1df9fb7073707260001b62004945565b620057d57f22aa3668a7a7735018f859902db3698635990d8a978f0b59175d713bf5896fda60001b62004945565b6200580c8789600081518110620057e857fe5b60200260200101518a600181518110620057fe57fe5b60200260200101516200a7a9565b6200583a7f3386d05d08db778ad5b421087ad598bb79a5a2c40e1438e3e454930793efc86860001b62004945565b620058687f315a22f046145515f5b22dcb7745043526340163bfcaeb6f8e1b4ee0a25fc7a260001b62004945565b620058798b8b8b8b8b8b8b6200a028565b809550819650829350505050620058b37f0c36b76855bbd77a1512a54324dc73f8702b4791291db3c69ce48776ffffe27360001b62004945565b620058e17f2e54666f0f930998849e8cf65fa1a72f46ec1619622a4a6c1ef869240cda5f1c60001b62004945565b620058ed89826200c4a8565b6200591b7fae85f8cd8893c3cba77b7a43979e637365cd7e1ee14ae398b305a933a21196e160001b62004945565b620059497f4ca100fb4e10a4afe09dbd32bc9393dde63bdfb612daff9796f371ccf06bc8f060001b62004945565b62005954846200a3d0565b620059827fbe029238c4535e47bed57ebb34a572bd720b0178c44e561741fd7ba850f58d0f60001b62004945565b620059b07fd0079a4a87ff7ba04aef4cdcb24571adeb99d192ed4b085e7de5d50f0c717f1c60001b62004945565b620059bb8362008d83565b5b620059ea7f72b5b987a0c9a546c0f2cfb3add939663733a17f454ae4b13ed365f5cd6b62f560001b62004945565b62005a187f6a413733478e94cf67231c70e90463671f66684f055e66210b94a04476e6db3160001b62004945565b62005a2262007ddb565b505097509795505050505050565b600062005a607fa9b98a594d3b5c774b74cd6ed48cf8dff4f80392c6473684179cff7500e6444d60001b62000b4e565b62005a8e7fd034439f5728cc6dbb46c15a010144ca40c85fb7a49179a37ddd6688258ce6d860001b62000b4e565b62005abc7f1d2f27b8fa67c9b6dacc27947e01a8353fd11ced3843151e63c744482bcacdca60001b62000b4e565b62005b59338462005b5385600160003373ffffffffffffffffffffffffffffffffffffffff1673ffffffffffffffffffffffffffffffffffffffff16815260200190815260200160002060008973ffffffffffffffffffffffffffffffffffffffff1673ffffffffffffffffffffffffffffffffffffffff168152602001908152602001600020546200c70890919063ffffffff16565b6200645f565b62005b877fc624b982209d34d3063563b50888b38b0f028ae195fbfc8489f5a7881b9247f360001b62000b4e565b62005bb57fff5d9bd3a30bd6cb8e1f7d6662787c729ac63a8de91f644f3e41ada4e2fc577460001b62000b4e565b6001905092915050565b600062005bef7fcde1da088e653348a27e3db5513a0b32042c7bddb19b9d92e981f2506dec065160001b62000b4e565b62005c1d7f0a42362e590384ffe636c3826e148b566dfbecfc831f0684dd9f6a23b8e65cd060001b62000b4e565b62005c4b7f09be738a1bf0b0516ed2f8bc0f08cbe34a749c8983227a44bbf2e5c671b575d760001b62000b4e565b600160008473ffffffffffffffffffffffffffffffffffffffff1673ffffffffffffffffffffffffffffffffffffffff16815260200190815260200160002060008373ffffffffffffffffffffffffffffffffffffffff1673ffffffffffffffffffffffffffffffffffffffff16815260200190815260200160002054905092915050565b50565b50565b606062005d067f6d22c40375c92824d3cef4a84a855c152e80188f2324d23dfe5aa9940a5ea5b860001b62004945565b62005d347fcf9ea751e49d6e9bcc51a42a44003f372958db066ecc3363765e19bb7122640260001b62004945565b62005d627f64a47f0b3d93507e734f605b561e6425f143c2ac58c6c8b9f166c8f6129ff16560001b62004945565b62005d6c6200bafc565b905090565b50565b600062005da47f7e131891159f1271076349f1846f05b07ce11993c9a0e77dbccf070d4d53052960001b62004945565b62005dd27f5defbafa070dbd8b486af8684cfb24fe29d85ddc261f8b6f5da384979dc0bcbf60001b62004945565b62005e007f3574b106f37720508132d14304d37475748f74284d98d0c94ce1d4297e31080e60001b62004945565b6201de20905090565b600062005e397f59553e064ffc30705bc6f1bd0548781ec42eede447ec06cd2d9ddb674a8219be60001b6200c86d565b62005e677fab4e9dc03bf83496a9fb56ed78c77ac71999c4c5b77197bc3f03888fa1f7da1860001b6200c86d565b62005e957f8ef261d3a0653ab868c899418b467bc6f67e2ccde42f77cb49f1285b32558cd560001b6200c86d565b6000828401905062005eca7f172b47099aaf4a028546f4463220baa09cd81d77ae8c1096fc6579f4ecaeac2960001b6200c86d565b62005ef87f967579ee3162c1a66be7747b1966e185b33f2fc6a52477633bfe253a007a6d0d60001b6200c86d565b62005f0884821015600062006d16565b62005f367f837f36e10f55e182d80df4008a9565a95c9998c0cbd301003424ee94022b465e60001b6200c86d565b62005f647f60b415dd739853b43f2c31e0a76108ad464adc9d8eacc59b1f59ea004963800b60001b6200c86d565b8091505092915050565b600062005f9e7f51771d1ed7d1f0875cb889f362e3ef24fa21cdc5c5c3a2b16dbd46ce16b1236160001b6200c870565b62005fcc7f60d0dd841449307ae18a9cddff00d3d25cf9d3ceee9a7a683a056bcfe0bcec3360001b6200c870565b62005ffa7fd6034571976ac4c377519369af9924c19ac9642e825069e97b15024e3afaeb4960001b6200c870565b62006012826055856200622b9092919063ffffffff16565b905092915050565b60006200604a7fcb8d6db403342d229b669b9617c197d72dca2f5c38094d5f26315d81b213357060001b6200c870565b620060787f4cdab712e63191ebf5f133b2c758386d2cd7f9833a418c816344599c952628c960001b6200c870565b620060a67fb2193ff3196bb549630dc9bddfc038692be3b5403c01a1c059db659241c94ca860001b6200c870565b620060be826056856200634b9092919063ffffffff16565b905092915050565b6000620060f67f4ad272e8ef896cf9749bbb33b720ec50902be1d6268b31d272f37eeffc01139760001b6200c873565b620061247ff5b8f6315ed04f6f880d15c913444893b354f451e1a7755f980256aa3a67eb1b60001b6200c873565b620061527fbdc5b111411beb8ab6b53375bbc8bf4e74258c8c8f4987a4928ce54801c48b0060001b6200c873565b6200616283831115600162006d16565b620061907f878d38a5a5b3291f5b62618821c286b1ce4d8ac1fde0f5c52c6f8b253e3c721860001b6200c873565b620061be7fdee8db45952fd0881a888ce099e6774ada46e04a8240c739354e8b594734d0b160001b6200c873565b60008284039050620061f37fa883eec5840f8062e57d5a86c35fd0af17f6df22b4081b6a3676dd71088ac1e360001b6200c873565b620062217fc44e06103de1985a150207dd6e5102796da4ff917908533e00a2fd2e75a52f9460001b6200c873565b8091505092915050565b60006200625b7fe5a7703006416f650a6006f5f0670d782936184bf27b808b4c9b32fbe19b47ea60001b6200c876565b620062897f11356be6b3e8ad0f97bc0290b6fb6c914b1b40af921535a5c7ee51802b6520b760001b6200c876565b620062b77ff5ccc80b750fdb77e7e98f8e222a9e9b5921b527802767ad3ee413f8ccf961a760001b6200c876565b6000826001901b198560001c1660001b9050620062f77fa27d783ddd44cc7a2e6aa2d9621759de4f26db5689b59fa9d522b063125a3d2260001b6200c876565b620063257f57732a8ff38d052e200f18e116347f46fcc5738117e4e861b0ccb4f48f5e2fa060001b6200c876565b82846200633457600062006337565b60015b60ff16901b60001b81179150509392505050565b60006200637b7ff0f85b03d615c29e4d60b83cc176ddbaf13acd1f3ff3a99036f76babd0d070a860001b6200c876565b620063a97f9e608e7d454ed5e4a990789545a71f2700cae978571f09fc05c03ddf8731df4460001b6200c876565b620063d77fb00bb950b9ab06d82ebeac5f06d3116b4bd38abc9b5ee0966b78b17515c897f660001b6200c876565b60008267ffffffffffffffff901b198560001c1660001b90506200641e7f2e4626d1e269524e21b9f08f1508a71c0d63649f5fb65843e2a1294b4d77c78d60001b6200c876565b6200644c7f4cd49b392381ac7400713fda4d23ef602361f4589b6260e02390e38ecb08362260001b6200c876565b8284901b60001b81179150509392505050565b6200648d7f9a5b448a21cd2032fa5308aa257d4351306ac960be62691687d8894949250e0260001b62000b4e565b620064bb7fb03e90560bcfc6e147e178f704890e0476a2bc183a28c6a21d4ed276077228e860001b62000b4e565b620064e97fa23e95d7dc0024c00091f5622f8bf7106ac1268477fb653af8c6c9fac644c9fc60001b62000b4e565b80600160008573ffffffffffffffffffffffffffffffffffffffff1673ffffffffffffffffffffffffffffffffffffffff16815260200190815260200160002060008473ffffffffffffffffffffffffffffffffffffffff1673ffffffffffffffffffffffffffffffffffffffff16815260200190815260200160002081905550620065987fbf7482d78d5e209f32f7d094fd2c863fcba586e8713beafce89fe20750e8a3ad60001b62000b4e565b620065c67fd9fd5feda47756822224f2afe37e079d8790fc04a9924ac7a21fcd251c76cba560001b62000b4e565b8173ffffffffffffffffffffffffffffffffffffffff168373ffffffffffffffffffffffffffffffffffffffff167f8c5be1e5ebec7d5bd14f71427d1e84f3dd0314c0f7b2291e5b200ac8c7c3b925836040516200662591906201b330565b60405180910390a3505050565b620066607f037c1c31a242abc9fe85f7897d7e3db2fbb4a96d88800fd61753b3feeab291a760001b62000d7f565b6200668e7f9b69ded238e1f105af3c724db26f035e19242e09a189005c88d1afb44e2dcdf860001b62000d7f565b620066bc7fb34966d8df6692c5bb03465c646169e626a9b8831246d3a50e8307b39c31ec6760001b62000d7f565b6000620066ed6000357fffffffff0000000000000000000000000000000000000000000000000000000016620035a7565b90506200671d7f3851df8b489ea432cbe9ff42b63c2ca5f69a63da3d74f1fe1778c5c8160ce22b60001b62000d7f565b6200674b7fd4c39b3623449b73860af568247fe45de94492dc66e5806084c17143e9fc8a8f60001b62000d7f565b620067646200675b82336200c879565b61019162006d16565b50565b620067957f9ca88045db8d949814438a13bf21b48aedd95f5ff425c78bdeecf9e554c20e0c60001b62005cd0565b620067c37f4484fae8b8c9b656ccdd7654efc847550084d7ff8a53c71d79f033cb2841200e60001b62005cd0565b620067f17f3a1188fe57cac37044a89dd8e5528114be6e1007b6406a553d38ef12bd40128260001b62005cd0565b8015620068a157620068267fdda645df7e98b889b69605a1bf756afad35a07ce30b01314c79d51c37b54701060001b62005cd0565b620068547fb7f6d0de389687aa7fde5c37b0c2f09f4a18c62972c7173468c0d5f3cb9cc91b60001b62005cd0565b620068827f360eba24823249042ba60c6e0658ae8b185a6fae1f97291b0b165b49646efcf160001b62005cd0565b6200689b6200689062006b09565b421061019362006d16565b62006945565b620068cf7f05d8ac58c222598101af6f778876daf2b2ee278593a4decfa775af3163d0b4c060001b62005cd0565b620068fd7fcca9c947ff50725ae80c4f35ace24e26c64dfdda7d4b9eb9238c0587de3f819560001b62005cd0565b6200692b7f7ac650656159f2390ccf4a5a435c6e94ef6bdaf2db56514e60facb392b930ec460001b62005cd0565b620069446200693962006bbb565b42106101a962006d16565b5b620069737f614e1735d26a417915233ed97d734bcb5ba84914644cedb23defc5a2c4eaa55160001b62005cd0565b620069a17f1b4a3e5f5d8a07e71bf12327fc36732f208a90d5127ef5a880ac46eb5eda52e960001b62005cd0565b80600660006101000a81548160ff021916908315150217905550620069e97f60de7a74b61922d97d93f392d3be383d254e5a8bde11d9f3667002600e9372b060001b62005cd0565b62006a177fd50ea98c5ed63cf272070b3787b98fb630edb1e3eca7d0d12f622fb79864addf60001b62005cd0565b7f9e3a5e37224532dea67b89face185703738a228a6e8a23dee546960180d3be648160405162006a4891906201b01d565b60405180910390a150565b600062006a837f89b34f2fb06dac097a304a424a1ad8c28395d1849054b696c8fecfcff4055dce60001b62005cd0565b62006ab17f627cb46d8473646cf71270352217eabe06ac16332088afb831fe88e28ec077da60001b62005cd0565b62006adf7fb74ddcb4d2734e77259615375d823c21dac5b776b56f1c1a11ca9ca567e71a7b60001b62005cd0565b62006ae962006bbb565b42118062006b045750600660009054906101000a900460ff16155b905090565b600062006b397fb842466cf656b2952ad7f300d5515c05a11d6a992cbea6b69e8eb29cfc79eabb60001b62005cd0565b62006b677f4e72d726a61cf09efe8147a409ab7bdc1ea15e796d8baca5a430cab1a5335a7260001b62005cd0565b62006b957fd3ec2efc7233e25174de2c94fc91d34ee9074a336f9f1015ffcd059519f4d0a460001b62005cd0565b7f0000000000000000000000000000000000000000000000000000000000000000905090565b600062006beb7f4052916af5ae9f897cb803d56086596648e0c168ef92212c663e3134c3b19a6d60001b62005cd0565b62006c197fd3c6251a62d0f77016b4e3b22d079f8a671996b36720c49a2ccf206d7e76080960001b62005cd0565b62006c477fc4dc146b381b9b1de3f7d4d3ff843f926f346ba6f9d8f5c0795b47af1f1fac9760001b62005cd0565b7f0000000000000000000000000000000000000000000000000000000000000000905090565b600062006c9d7f8691b8b0df253aade2ed9246e2b3b13ef6cad0a61fe7c378bc43d28ec6875ee260001b6200c870565b62006ccb7fd14883765384fe1c91a6586eaef40788f7cc6be01c71c0db710f4b43d0752af660001b6200c870565b62006cf97f602f81c132cf4d6468ee8eccc6ce65bd3e298e5be285aaa2d400256fd331890860001b6200c870565b62006d0f604b836200cb6590919063ffffffff16565b9050919050565b8162006d285762006d27816200cc04565b5b5050565b600062006d5c7f64fcb1661181200743694b19901ff35f19b7f8fefaa704adcbb8cc963f09f98460001b62005d71565b62006d8a7f6decc907a4f6e4c8567647859fb6a26e4aaea32c0dfc5d206955407dfbc9401760001b62005d71565b62006db87f9f1524ff55275f78cab15c1c28756c355d35c1c818409f2e25547dacca1f63f960001b62005d71565b62006dc98242101561013862006d16565b62006df77f933727a8da9ca5bb2d56f46f748eb996bbb4362b58ca9f0d06b3729ee46bb6e860001b62005d71565b62006e257f48ff4bd7011452ab08db31d3c24d5afee2b54c814838f71e49d9cf7a1dcd79a560001b62005d71565b6000824203905062006e5a7f42cd0d6667d5f37926df260815c318f6f395fb87b8358d4d01b090bdffed43ef60001b62005d71565b62006e887fe54741e86edea67839e51888ecc5d320ae2fa271d71ececc1a367dfac2c9287d60001b62005d71565b600062006e958562009335565b905062006ec57f8605638e7f1cded491d385aeed9185c420cb768402ea1a5a05d29729ab095c6160001b62005d71565b62006ef37fdcc54fe01e7a2fa6182e6055200048133cb96af6e086eb4ef7abac695cb575f360001b62005d71565b600062006f00826200cc74565b905062006f307fb0701661b433ff4e29d9a19173bd07f2c3afa2d19ee9f7ca94dfa1b03f071c8860001b62005d71565b62006f5e7ffc817b71bc76c360ae1f0b8c7942d5c60d79bde043f0b64c2613723bb10be18160001b62005d71565b62006f6f6000821161013962006d16565b62006f9d7fa3a24cf0208b0ebce1fdcdd88d351a8005d65ad2948eb857d599ebacba57d77b60001b62005d71565b62006fcb7f5c422395ee121128686137e597febfb2e8a8a35f5843281649c83e928626ee2060001b62005d71565b828111620070f957620070017f090b81930e4edaceb04239f52b5a396068542305b43578ac64c42fe6cc0b670560001b62005d71565b6200702f7f99cb53c073a2cb0f5163a8288ce75f16701c40038975f430d36a59e9945eb00c60001b62005d71565b6200705d7fd79895c9a2e8ec74fbfbc7a19b8fbdbdfc593ffd5e3a53a9e2087a6acd14d2e360001b62005d71565b60008184039050620070927f838d96d8841ee193e5a09725669f169e7d0ea42bb8becd0cf8ee696736d9eee560001b62005d71565b620070c07fcb30453e2ebd47c8f8ab609dc5a809fd557d32fe77d54ef6bb946b16a643fb9360001b62005d71565b80620070d689856200cd1d90919063ffffffff16565b02620070ec89856200d02190919063ffffffff16565b019450505050506200771d565b620071277f866cbb2448541329e3e4c3d5a8ba61c3290503a8fbfbbd54eda53bfb5367585c60001b62005d71565b620071557f66038c2069c82b453b5192da75aa3b38ada1180824a16ca38c3de16114db473260001b62005d71565b620071837f5ea86df6ba878ade5bba7650e6299f36a4239263c17de0a6a1fca3b9f971040460001b62005d71565b600062007190876200d325565b9050620071c07f40b543d63b4167226f6b44807b0831e074f43ddbb7b0eb5c3dcc8a24f4a7932360001b62005d71565b620071ee7f6f783cf4eb31a55be6896d90537c9ab64ca4db8d6f6ce5f62f83429a72d12df160001b62005d71565b6200721c7f0c70131cada7ac9487058129ded9f3c711fdd2dd6f3046b7df1b3f416b79266160001b62005d71565b6000620072298262009335565b9050620072597f7c1fde70f24bce36032b54d7221ce45ebac2ee51f9609739e13141d07269f54160001b62005d71565b620072877fb8e7ec6021283d881504d1be98332e254defe7315057c68fa3a3453e3c17712f60001b62005d71565b600062007294826200cc74565b9050620072c47ffd6667e78735b50a7956e4cc7f9e50fae0a89afaa92bac2f7b6a48da03ddaa2260001b62005d71565b620072f27f2090c50352b949c3c8b0d56b98c709ffa0ed2218c83b2b525b6438643dbde9fe60001b62005d71565b620073036000821161013962006d16565b620073317fab2a1240f974878b48ea9d059f93c97c2d70c4166154d0c9eeb3e5d0fa0e888a60001b62005d71565b6200735f7fb2dfa2969dfc1481ea7461b74a46a4c731baeece09428bc3ca770e3b0cfab6ff60001b62005d71565b620073708682111561013a62006d16565b5050620073a07fa109912c4a7fb71ad9e72e5ae9947d5a51a0c57e0f6cf675c7a1edad5d64e51560001b62005d71565b620073ce7fdd178df5d2eedab950239eab8e7501b692038408cc8987171ecbc513ff1ada2960001b62005d71565b600080620073dd86846200d3c5565b915091506200740f7f0a219bff6280a64b17d820fad5aaf7c06ca40dcfbdd0f0327a974d3bd2bd878560001b62005d71565b6200743d7fbf9b096e0ac6bf53c606106970464975e788016d29dd4957f4ad51eae8faf54960001b62005d71565b60006200744a836200cc74565b62007455836200cc74565b039050620074867fceb1daa9f4addfcc9e22965604c077f158e906196e50169334481f2d2ae3c2b460001b62005d71565b620074b47f0e7cf93553b35b08bee1bd6136dbf13099506bfde643009b61e8280cf15d306160001b62005d71565b60008111156200767457620074ec7f7fe02aff60098e14c7abe9788bdea69386be1db97df5166d5d05fee61502973d60001b62005d71565b6200751a7f80e91b532555ed2f0a718278e241480299205fd84f582de3dd855515803ba5d560001b62005d71565b620075487fb7b5b6b7bd9d4bd1f598f56e5983572e1db7eb5809640eed8e9b34f43102ec3260001b62005d71565b60006200755f8c856200d02190919063ffffffff16565b620075748d856200d02190919063ffffffff16565b039050620075a57f974274dd5859a442db99b87b1432eb44c05a03ae68c4d04439ef79930208f7a560001b62005d71565b620075d37f24ec5d4cf8d077c84ad30f1061761a55ec70fdea4422f0372c936411fa27698660001b62005d71565b6000620075e0856200cc74565b89039050620076127ff65e4b0d582222f2c11141e1d3506519b50de52114eb856c2bb5c4175e224a2360001b62005d71565b620076407fb909cc75c1b9060bedd4e7971cc03dd84ef34f51961c8ecdb283e6ff2ecfd45960001b62005d71565b82818302816200764c57fe5b05620076628e876200d02190919063ffffffff16565b0199505050505050505050506200771d565b620076a27fbd91e8ba68d43accb414fcc00dec5f96984815e1894d0e76ff1920c30d939d6160001b62005d71565b620076d07f8e4a1382938b173ebfb80ecd75d4a8dc7d1eb7a487b08b456b143d6ddbd13f2b60001b62005d71565b620076fe7f5b2928d7f80ce4e495b97f76a0cfe05b277f57514685ce085a1ac6fa956d21de60001b62005d71565b620077138b846200d02190919063ffffffff16565b9750505050505050505b9392505050565b6000620077547f81f863fb1729e5bfab99907d5b437e8993f382d468b959f508b11ffaf473e48b60001b62003685565b620077827f6524e2f179454a4443f3f0d6e0125d7a2d08f6ee72c78a713ba713e1e60e8e5760001b62003685565b620077b07fd1d072db33037549bcf37cd5f35813cec941425724a61e3517a162f0866bc3e660001b62003685565b620077c3655af3107a400083026200db2d565b9050919050565b620077f87fd529164b19be6d95bcfbdaf40f429a8a1603f0c977f519cb9f870ecb8152a47e60001b62000b4e565b620078267fe41ac344bcf11b9ded08259d4818278957f90a7734a706dd5f2b2325751c28cc60001b62000b4e565b620078547f25663d4831b921ab3e180db522e67b9d4c731778698c35c1b98bbbf3028d920960001b62000b4e565b60008060008573ffffffffffffffffffffffffffffffffffffffff1673ffffffffffffffffffffffffffffffffffffffff168152602001908152602001600020549050620078c57f5d78b30e392bc7f6e0e27e15c0002035f9b08125eefe5b8d1387072d4ed902b160001b62000b4e565b620078f37ffcfece9bb0f8c43acd0d28fa43d0e21f14661adf0416e1ab7863208b145203d460001b62000b4e565b620079048282101561019662006d16565b620079327fa041584898bb01c1b6d96f86c51bb6651f3bdee1c82a9f7623e72a330b7e434460001b62000b4e565b620079607fcb06c78a59ec59ff22e9c4ec6cd136da452099244a1d78be0fdac02c0f855b2f60001b62000b4e565b6200799e600073ffffffffffffffffffffffffffffffffffffffff168473ffffffffffffffffffffffffffffffffffffffff16141561019962006d16565b620079cc7f36e5b8353b45f2872d2100bf83f12822bb595a1548b60db4e3ee9da3dbdb3cf560001b62000b4e565b620079fa7fb9d2dcc68a6a40971012c756e4fc1700ef0f6a8dac7815c8883ffe1f27e1dc4660001b62000b4e565b8181036000808673ffffffffffffffffffffffffffffffffffffffff1673ffffffffffffffffffffffffffffffffffffffff1681526020019081526020016000208190555062007a6d7faa23196d94220b56b86d670ed144291b9f1cb0700b33e857b4237881427abb7e60001b62000b4e565b62007a9b7f92c148fdf087e986784f946c0b1a53cde22a376b74accdd6980a58bf7e478d5a60001b62000b4e565b62007aee826000808673ffffffffffffffffffffffffffffffffffffffff1673ffffffffffffffffffffffffffffffffffffffff168152602001908152602001600020546200c70890919063ffffffff16565b6000808573ffffffffffffffffffffffffffffffffffffffff1673ffffffffffffffffffffffffffffffffffffffff1681526020019081526020016000208190555062007b5e7fbde74482855c06aa81b686d4347ebfb8c5497ad562890e3cc31daa11d0b3e99360001b62000b4e565b62007b8c7f4049d7d86893edaf6070b20f62df68cc1472a6753938f5be6b67573deb5d33c560001b62000b4e565b8273ffffffffffffffffffffffffffffffffffffffff168473ffffffffffffffffffffffffffffffffffffffff167fddf252ad1be2c89b69c2b068fc378daa952ba7f163c4a11628f55a4df523b3ef8460405162007beb91906201b330565b60405180910390a350505050565b62007c277f78de2f2ed65337ea91dc7f8633b4ebbfee50e836ec3e7f6f61cecf0c8a5b0d4860001b62005cd0565b62007c557ffbeb7bdef9fce6baea2e09e278d93ae063706540283221171588ec3a681cc80560001b62005cd0565b62007c837fa8c9fc7a7b205b4878200059417e7c075d2991f70b31def03c582521ce0701f960001b62005cd0565b62007c9a62007c9162006a53565b61019262006d16565b565b62007cca7ff6aca1c3205b5fd716918ababeadb074f68cf3063f34a351b4f1568844f4e4e960001b62004945565b62007cf87f756cf225429b8c381bc246bf9738a2a93a7c9129ca45d57d467299026050897d60001b62004945565b62007d267f053a5edb229d70d7d1ce6934baa50cf1dfed9684f0e9c65239188efe15f3766060001b62004945565b62007d3d8160085462005f6e90919063ffffffff16565b60088190555062007d717f458f662e0b285baaf6f9c26de32f44fa2494a00d9ea594cc1891d4b6c27f537a60001b62004945565b62007d9f7f906954868cf4fd56a124dde1b18b2483457eca1a59007b4f32654dfd1540abcd60001b62004945565b7f3e350b41e86a8e10f804ade6d35340d620be35569cc75ac943e8bb14ab80ead18160405162007dd091906201b01d565b60405180910390a150565b62007e097f44d68f41220a374c5f59a86bf4ea7955673244f7162f37786aaeacfd6a1c6f2560001b62004945565b62007e377fac0ab5bb852c13a7eb7d050f350bf957e7b04a49748272ba63b6ae8bc76e74ce60001b62004945565b62007e657fe9d02bead295f67c05c3e9c5779247436d57a309f860457b2a06c1f9a5a3d0c160001b62004945565b6000600854905062007e9a7f667852dfdf25f8296aa32cb3a6a44ae8c6b642c7526c7705ae7480657109e90760001b62004945565b62007ec87ff3628a21e5e84966d33afa87936b37bb5be65b4dd70241b1749b980418f429d960001b62004945565b62007ed381620085f0565b15620080755762007f077f455d7d087a5926a92a177cc6d5b2154b6d522eb8245bde402111e213cfd2b95660001b62004945565b62007f357f5368ef082a77bcff205ce881f77485e50d86aad1130e1143e8c97207f29577cd60001b62004945565b62007f637fb63190b43a6139297418370598741a77597e035f8250e5afe0d16946888a006860001b62004945565b62007f8462007f746009546200fb6d565b826200fc9e90919063ffffffff16565b905062007fb47fa3f82ee3f5247d738465e8b5db7a31e017e9b209c1d4563e150ba73a32e7ed1b60001b62004945565b62007fe27f3b44be59cb2af1df8f921c6ec806ddded4bd7557edcb842135a06d671fb515df60001b62004945565b6200800a62007ffa62007ff462000edc565b6200fb6d565b826200fd4a90919063ffffffff16565b90506200803a7f42d17e9e5bc7ed3dcc9a2463b474baa756ca69be23d2151cc57b0bb60f77afcd60001b62004945565b620080687fcbf875c949c1f4b74a37f258952376eb4ca0a40a1de6c48a3e7c7618aa7bb38660001b62004945565b80600881905550620080a4565b620080a37f8de2feb19621eb342638feff886d1cc0485e27093b2ccdc5870e70a6e5b98e8f60001b62004945565b5b50565b6000620080d77f0619b08396514f3014b4cd388f4277c5ee27d85e6ddf8c8e8741a4c70985e78660001b62002b7b565b620081057fadf5ed2199ad87ddb5b50c063afe706a9746a5f97871ab751613d492674010ea60001b62002b7b565b620081337fdf8526b85b2735b3fbfc4736bf3d3dfa64ae072b5fd103fbe8a3f3cf1ebbbb3460001b62002b7b565b7f00000000000000000000000000000000000000000000000000000000000000007f00000000000000000000000000000000000000000000000000000000000000007f0000000000000000000000000000000000000000000000000000000000000000620081a06200fdf6565b30604051602001620081b79594939291906201b13e565b60405160208183030381529060405280519060200120905090565b620082007f1b0a72216e9d8b1b2ceb10d2b2468e4350d6955a76edfa980cb0a764aa79e72a60001b62004945565b6200822e7fb3537d157f12f78556b002839cc9ecd1bec5bab91ae6a027a08c39402c0706f060001b62004945565b6200825c7f7b01b771aeea243deed7c7fe7f7564c21c4ff867d8fc3171f0040dbcb625e1f260001b62004945565b6200827164e8d4a5100082101560cb62006d16565b6200829e7e2fa5ed693ce61de7b1a93f2429cf761864f1721d84ba2163d637fd2da4c3eb60001b62004945565b620082cc7fd8ec0c9ff501860de76b57b134f5be9415bb31dc3a00caa7efc20b55c7a57aa660001b62004945565b620082e467016345785d8a000082111560ca62006d16565b620083127f45c633402a05a8ded8df66c352c6e44966fe75b07d0f59fec463d1dac035bf0f60001b62004945565b620083407ff2ed12b3fbce11f049da5b159c98ce4f283472252f1ca742ca1a819afec2e09660001b62004945565b62008357816008546200601a90919063ffffffff16565b6008819055506200838b7ffb2eea41ee5043dfd14d40ddb34f8b44065c167ec9d99fcc71ebae03c285e5d960001b62004945565b620083b97f02259be776e81e6c69e8830c30767b3a385365a613779ccf0211cb3ad440a21d60001b62004945565b7fa9ba3ffe0b6c366b81232caab38605a0699ad5398d6cce76f91ee809e322dafc81604051620083ea91906201b330565b60405180910390a150565b6000620084257fe2b6352a8d28c3ce04aeb5aaeb0c3fe2d804e073038fbb19ed41f78f3b28500660001b6200c870565b620084537fc053f8c6f28e2c328025c3c5aab1a06e2105116801791c6d6da89ac90c99071a60001b6200c870565b620084817f91074813cf775287ba49f817cec00e7d131d03f73177e46b8ad5d150a2acf98360001b6200c870565b620084976000836200fe8890919063ffffffff16565b9050919050565b6000620084ce7f1fc26adb955a93f74b3650e972a4e5018822cff16d3b4ac7d890b61f50f70d4460001b6200c870565b620084fc7fded337dc53ee9d515ac7c22cb5d19bc520fb8d46e748a83821c426f5ea85038560001b6200c870565b6200852a7fa98a06898f11a11a1651dff132be654a8f0a1cdeed1fed4d7176f45eb5d74f0760001b6200c870565b620085406016836200fe8890919063ffffffff16565b9050919050565b6000620085777f7a4dacf72967175a1a0cbe6505c0e715a3c9cfdb5a281a0256717aec773b65b060001b6200c870565b620085a57f886ce8d3c4ef7a37b6e8fda11e124b60d540603518a8829b50e4e1f9a0f991b460001b6200c870565b620085d37faa645adb3dcfa1b5291526c49091d93414bfae3f1ea4b6b9822d82b94b6cfd1660001b6200c870565b620085e9602c836200ffa390919063ffffffff16565b9050919050565b6000620086207fee5d5b79d79cd5f530b6683220191dacbabf742fb3c788078d9fae5268bd5f5760001b6200c870565b6200864e7f02347ccc72b2520c3380ef512f954af9ffd562d59397ffc5a6f3fd253631151c60001b6200c870565b6200867c7f25ce6d1ea0d15399d9564215ff8e0668064a4e019e9c1c7d5713a6b692e58d8160001b6200c870565b620086926055836201004490919063ffffffff16565b9050919050565b6000620086c97ffda774536eeba6c8a61868cc56d3947a26f0b6ee9622db1d48366e278c4fab2f60001b6200c870565b620086f77f48d4388237e009c5bbdde598e5fe99b3efa796cf62724f46634e0580c0e2c71b60001b6200c870565b620087257f3ab71ee7fdb70098ee1a345ebed1801eec38397b769be6433851e14c67d5fb0d60001b6200c870565b6200873b605683620100e490919063ffffffff16565b9050919050565b620087707f6f02687e057522eb19b597e3b091ff65201fe492dbd6f67980e016d6aa08d53260001b62010189565b6200879e7fe51ab352fa79dd949e57050cd47d3f0410afdfe7c28a6ef735cccfeeb18f582360001b62010189565b620087cc7ffce750c89171756118e85bed28eb1432c569ae13e7db5e43107d00a4ed5889a360001b62010189565b620087db818314606762006d16565b5050565b6000606080620088127fe979efd513f729dd79726fb805f8d77be0526aba524e029ddc1822da728b420560001b62004945565b620088407f3cdf6fe46cf0bc143c3fcd4537a123d60f4046b4219e3b277f48c645f4589a7560001b62004945565b6200886e7f5e6fe1e5f9af74de0af626b0c46664e14749b7b832aa117028799c6db57a85d160001b62004945565b60606200887a6200bafc565b9050620088aa7f41813d9887dda47d1db31e3088dffda2fa45c5080d2604cf3e985517ee0c2d8560001b62004945565b620088d87fdd79159476dd0645f0e6e8874e1e1f402527327f0200226845678ca5690b64f960001b62004945565b620088e262006a53565b1562008af757620089167f830abbe6966ef9d7697c05ff048193083a9b6c17f7917653bffd5a008607f6c260001b62004945565b620089447f921bade02a43984b092dbfb00ced8123ed1e0aced4bafffaa6a987ff1cd95fe860001b62004945565b620089727f2d4eeb38c14b2bb6907dd90d22d48e6ba81531ba6286be74cfba15110660ca9a60001b62004945565b620089a987896000815181106200898557fe5b60200260200101518a6001815181106200899b57fe5b60200260200101516200a7a9565b620089d77f532730d403673f54a849ad1471f05262d129fe59aff33b1d20ea0486f19af34b60001b62004945565b62008a057f700f801aafbcd802eab0bad84ae27b34bf443cc61919cd9da8a7035a149f223a60001b62004945565b600062008a13828a6200bd3d565b905062008a437f702ce6e8038913f5b3423633d37c271cdf22ad2c18e15e0ca968c59cc340694b60001b62004945565b62008a717ff909761cfa896503460825603db07f1c32e7ecac79b39c42468a9ce9a703a81a60001b62004945565b62008a828983600954848b6201018c565b925062008ab27fcb3409ff8cd318219cb3d84e13ed33dde267cf1f7599a3a102feef535746a02c60001b62004945565b62008ae07fc42769b7ec27053557bedd8cb9ef227ba4d51e35d17ca2084fd515adce1f979660001b62004945565b62008af089846200b08162010503565b5062008bce565b62008b257f90e569514b9dc10519f4ae47a3e8bcd3c53003abab39dec465e2ffeeef95a12460001b62004945565b62008b537fcce8438140c0b682f56a1b0669669fa67374393de88433298b74b582bb0db6d460001b62004945565b62008b817f87b1885065bbb9f4bb9c371a445b335890d8df0cf1dc726ba0a96aea97ebbdf860001b62004945565b600267ffffffffffffffff8111801562008b9a57600080fd5b5060405190808252806020026020018201604052801562008bca5781602001602082028036833780820191505090505b5091505b62008bfc7f7e2013410295396d1f0da1509d157935242928a36923fada9d45dde14193922d60001b62004945565b62008c2a7ff81a71e704af2da1038b42bc398800f22207b7d2aad62c015f08177cefccbdb660001b62004945565b62008c3788828762010694565b809450819550505062008c6d7fdbd65e911902461761bdb4223651332479cdaeef536a7069cea4b38c23291ca460001b62004945565b62008c9b7fc57318564a040fd6e2d7425767044b06562e7f77fb01c55533c192fb9f16f40a60001b62004945565b62008cab88846200b08162010503565b62008cd97fca896c48c3e76f4823d2a50d8f3d76953576dc0fca5bcf7ede0142f83ee8bcba60001b62004945565b62008d077fddf0e60edf1ec5387211848a4a8dccbfaeaf8bfe41fa75b52f44bb93054fd0fb60001b62004945565b62008d1381896200bd3d565b60098190555062008d477f7bf9baa5e357b12e70118b60f2cdb6a050a6fbf8780ec1715e2905b3b23dd05860001b62004945565b62008d757fed83d3f7fa3c5b9d99ca1d5342111cb38ec7034058a67f3f0c86973af878076260001b62004945565b509750975097945050505050565b62008db17f625d781bc66b587a483b93d3f1a983589bd270d61a0297e3277a69b41afc859e60001b62004945565b62008ddf7fc795713796255f4d26ebbbd9d50e3d91433b18dbe9728729af0509013b73618560001b62004945565b62008e0d7f93ee511a0e4413b4b35bd58000a842f432b607a549059dfd96c35d67796e634560001b62004945565b62008e398160008151811062008e1f57fe5b602002602001015162008e3360016200a545565b62010a15565b8160008151811062008e4757fe5b60200260200101818152505062008e817f9d152864fb19674d2478547714b0acf7f908943a8caf98f9073bd92cc2bbad4460001b62004945565b62008eaf7f0929ec12305284929e9db5563f952062d2bf44187d7045e92a2e50fa3f36492160001b62004945565b62008edb8160018151811062008ec157fe5b602002602001015162008ed560006200a545565b62010a15565b8160018151811062008ee957fe5b60200260200101818152505050565b62008f267f45fd3b08f6dec28e0de8df725662146e2b9a2337a5790e74b1b1ad461cbb782760001b62004945565b62008f547f658889c99acb9e39609207c20d74f731ef975f250cb2cf39d1cca4ceb89b9cb260001b62004945565b62008f827ffed7c4c45e647c7c07d1965d61d83966d90afc6e05807007b868bfa00e76208660001b62004945565b3073ffffffffffffffffffffffffffffffffffffffff163373ffffffffffffffffffffffffffffffffffffffff16146200916c5762008fe47ffcd850aed2e591b3302020939d78b575039e385e707a4f76af9baa2cd4bade9760001b62004945565b620090127ffe37e8f4af429f22ed7d8e6ebaca146d9106394c4ee9f43101f259468d7489f960001b62004945565b620090407f87b53ea421ebf60df3d174067269a3e80cd2b99512c8bc8f583e6a941a68614460001b62004945565b60003073ffffffffffffffffffffffffffffffffffffffff166000366040516200906c9291906201af25565b6000604051808303816000865af19150503d8060008114620090ab576040519150601f19603f3d011682016040523d82523d6000602084013e620090b0565b606091505b50509050620090e27f50de9c179a46f1251918eacb341b778bfc019a97cd4bd1d0bf7728d220228e4760001b62004945565b8060008114620090ee57fe5b60046000803e7fffffffff000000000000000000000000000000000000000000000000000000006000511660007f43adbafb00000000000000000000000000000000000000000000000000000000821414156200914f573d6000803e3d6000fd5b6020600460003e604060205260243d03602460403e601c3d016000f35b6200919a7fd39988f80e4b07c1c97cdabe9fc867643f7ec3115a659b75d1d4ef65d624c99860001b62004945565b620091c87f184d9543da59cbd1e36e3285fd8d1082ddc77c90dd2902ebc56007a50cbe6d6f60001b62004945565b620091f67f9ad86809f8449f003b65d64e84094399787c57da1746d6b510f17a9afe748d2a60001b62004945565b620092018662009b97565b6200922f7f1435788720f3cd858a37bb363f5c9887ffea555b1a395803910b0164e935e91460001b62004945565b6200925d7fd413673616242ebfc249d360e9ecab0b7aa9c1410e5b2d2c3ebbf0318dee160e60001b62004945565b60006060620092758b8b8b8b8b8b8b8b63ffffffff16565b5091509150620092a87fe48fcdc8b054cd7a65c324bec203ad4e9d09b92e5ab7eb3710426a19c619a99660001b62004945565b620092d67f66b9b7d255f308ab9c6c64a8fc27535c38a01947386a642c17a37cd71b3009f160001b62004945565b620092e4818463ffffffff16565b620093127f20ed5f4cd3e0b24a81c05b3c4ef401078be136b001a3a7214fbc0eb4433c32e360001b62004945565b6020815102602082038381526343adbafb60208203526004810390506044820181fd5b6000620093657fb663c7c9909358efe4275929393738855eac90eacb4d924fd6f3ddc5b97549e960001b62005d71565b620093937f93c66e2a32979d91d9ec3fad04ad2a8a6b23c439d009e7e88b96613fca4d9f3e60001b62005d71565b620093c17f47fd4a760037ce184bc1d35e2783ea166839fe45d13b50857a2189aadfdf5c2660001b62005d71565b60076000838152602001908152602001600020549050919050565b6000806000806000806000620094157f602defd52ec39ff315547ebfb5e606befaf09a5c9b40c45509e4601704b7134860001b62010b21565b620094437f208f463f1972fa1e3f779d49629578992c5d03b5b88beb0e242c6cf9fc68039660001b62010b21565b620094717f8c4db480088e5b34f80fcf352495d3e077152f61c5a4e739ce6f431653a1639260001b62010b21565b6200947c8862010b24565b9650620094ac7fcb66e0fc58b702f452a7c56e48e7e98e1be2e1eeb84f6a7f2783ed3cbd3eaaac60001b62010b21565b620094da7fc7a11da38d36eff2c77ecfdfa1348b93ecf547a4dc87ffeadc76a4abef89c4e460001b62010b21565b620094e58862010bcd565b9550620095157fb43310fdbaa048e03c247cac6beefc7c79d24a96a8a63ed42b016a474b059ad860001b62010b21565b620095437f8d78216f89fccbe07fb8095ae6eb725b3ca7abe96ad4cefbbf8c9f92cb6f870c60001b62010b21565b6200954e8862010c76565b94506200957e7f5e9b7d5624edceac16c4f228fb4934c644106fd3acc242889a5341472bfeb5d560001b62010b21565b620095ac7fb347cc0c8e8f16d23cb400a41ba71bd14120ee2750f5da6002d90a7e0ecb30d860001b62010b21565b620095b78862010d1f565b9350620095e77f2f0e6bfc9c2277526e755dcdaec7021ee067d9803109bd3ca564890c5152cd7560001b62010b21565b620096157fa82049f8dc2a026123c877b9c22bcbbfb81bea3fc657f009a83fc20eb874413160001b62010b21565b620096208862010dc8565b9250620096507f4b38f5c455cb69511925dc3a1cb9c426b24ab53f5f3316f82391bdab8e2895b160001b62010b21565b6200967e7f44e76d687308cf7796cf7f6cb9978ed1fcbb153ba19c8266743bea3cd076210160001b62010b21565b620096898862010e71565b9150620096b97f9d58fb61fa378637c857f621a761b8a29bb589030c48daf3fbd97eb190e5c19060001b62010b21565b620096e77ffa0a6a56661f60181f12e9e2669f1f6c8768c23d17977b777a5eb13256d5334b60001b62010b21565b620096f2886200cc74565b9050919395979092949650565b60006200972f7fc37d921c6111359fd9f79d2a28c4792facb1db4f39f5274d1b6163c18e3afe8b60001b6200c873565b6200975d7f898a92623482f45d1206dfef5d86715e008f5452a7c413085f43c128004b3d9760001b6200c873565b6200978b7f05fd20169ef0846499c468d531d0cf9e99ffbf7744456d397b9e942723963d4860001b6200c873565b60008284029050620097c07f8e86e68a4b22e3c8f81c2073a80e5cb58d704f7122af81c9942d06a7e84c3e2560001b6200c873565b620097ee7fb0310a7161613cd85ddc020fb1e188ea5b953042e7225a2f1c35f62ad8d78f7e60001b6200c873565b6200981360008514806200980b5750838583816200980857fe5b04145b600362006d16565b620098417f558de74b4ced8028b43c759ce9fb582f1bd05e8ac02db8253c7f66b126b33ed760001b6200c873565b6200986f7faa5db913fa4d95819207f4034e9d987218cfb113b8ec8df4a432cfedb219b35160001b6200c873565b8091505092915050565b6000620098a97fd681117b54f8c42dd9b9b724675b90500142f91e0c692c88cd29f6a4ac20d90260001b6200c86d565b620098d77f166d54a6dcc2da1700c278643acbbe8ec7be0a002e0be3664514a05bff76410660001b6200c86d565b620099057fbe546f1bb4a2252f3c69d522122f5305aead99456e33c2514e382512cbd275ad60001b6200c86d565b620099166000831415600462006d16565b620099447f66baa7ca3e26778872311ae2b37bf38dfa377789cb684f64abda0507ede6155760001b6200c86d565b620099727f9bbcc745d05068633f50f2da4aa7785c4882dcfa9bcf9c1c303a65580176ef3f60001b6200c86d565b600083141562009a1057620099aa7fc3eab5df153e3b105e157cfa055bfa8e0845e90270ff3255e7446c30deb579d360001b6200c86d565b620099d87fdbc3d990e3f3bab6fa2a0d2d047661dde07c4ef25a24501839feae50185866ff60001b6200c86d565b62009a067f4dfe5096d5d7b39d55b09ffb0f574f2071999b6d3e264f41d19472f6f6dff6a460001b6200c86d565b6000905062009b91565b62009a3e7fb6dfe2886846608d4ab290feca7c5ec6ae2852dfbc3707d276ab66657c42cd0160001b6200c86d565b62009a6c7fbd6d291981cc28a3445540f278cec30943e7da252b1f546a4206e2297370b83860001b6200c86d565b62009a9a7ff68e1a1503b4afdf9fbf5a22748d3463567f3562a99e1fe0c70f16aa0941e7ae60001b6200c86d565b6000670de0b6b3a76400008402905062009ad77fa9252a08ad1a46a72a3ef9d1afb829941f22d18012268e7192e1b3ffb5eba14960001b6200c86d565b62009b057fcb9cc8cc61006212eb8ed6f13e3a563d524b873c3a01f66af4887945460f4c1460001b6200c86d565b62009b26670de0b6b3a764000085838162009b1c57fe5b0414600562006d16565b62009b547f2f1f45017adad415bec4ac763f6f16672ad5b44eeea98c3ac69d9a7e7ffe543c60001b6200c86d565b62009b827f512b328f221d3319110052907ee75993170f783e77190fc89cfaa6bdfa4cb69260001b6200c86d565b82818162009b8c57fe5b049150505b92915050565b62009bc57f7fe5c10e1a86d98072fb9654a53099e57a01e45b3ed5e39b50912474fbdd6de960001b62004945565b62009bf37f3fb211cc9a81c0b138cff14626a6372eef420b37c3293b3fce50ac542686816560001b62004945565b62009c217fe777a8bb7b0dd281cba5faa702c30203a1a86aa7a992956707c91d70a561b47260001b62004945565b62009c4d8160008151811062009c3357fe5b602002602001015162009c4760016200a545565b620096ff565b8160008151811062009c5b57fe5b60200260200101818152505062009c957f929bb1fd7fb8e2e421ada94a6e8d471f6f4cb743f47e3a0ce8095f86d9c11f2a60001b62004945565b62009cc37f4a8702fcb1bfd1c26723de647d93af9efcf59d6f60b475fabddc3dd4f850a51160001b62004945565b62009cef8160018151811062009cd557fe5b602002602001015162009ce960006200a545565b620096ff565b8160018151811062009cfd57fe5b60200260200101818152505050565b62009d3a7fe7895fc4b60ecaa846487cfdf88501d7a3d845f6dcfde25b51e9ebe103d4dd1660001b62000b4e565b62009d687f6119845ea51ef8873311c7cc5f6e9451228545977e83bd2fca034fcbf60592ee60001b62000b4e565b62009d967f1aacca6942d21795f8977f383904c3e6981588c0b3000f634c2e960582504b4060001b62000b4e565b60008060008473ffffffffffffffffffffffffffffffffffffffff1673ffffffffffffffffffffffffffffffffffffffff16815260200190815260200160002054905062009e077f8243cc9f1f57f1b96a49950cfe1dacbddf5929258edb0bee2ddb37a22281a90760001b62000b4e565b62009e357fbd44c0256d8aadfcef4efd3627db538d37219689c5361397870819146f70a42260001b62000b4e565b62009e468282101561019662006d16565b62009e747f8aa5942c2fc262cf7a401a7f3ecf060f53a4004fe1d78beae0b1fdbd6d1d6eeb60001b62000b4e565b62009ea17ed6bace290ad6caf9ffec452c1670cff35dbca2b0a306ff96cccdce2e951f2f60001b62000b4e565b8181036000808573ffffffffffffffffffffffffffffffffffffffff1673ffffffffffffffffffffffffffffffffffffffff1681526020019081526020016000208190555062009f147fc52ce0972fcec86a98fe5814b728415679023175cd455db318311de66b92f34260001b62000b4e565b62009f427f05f8756a33b7123b4c227b842001d63ca97694d4bc95d0cf7cb6a8f99983400e60001b62000b4e565b62009f5982600254620060c690919063ffffffff16565b60028190555062009f8d7faeb97f7f13a09e19770aea6bea39e3ee9aeb9772a1c8bc1b87847f12bb6fbe8460001b62000b4e565b62009fbb7f97d6ddec1a18888f9c7db4b95e3500d5fda1b79361bd668528ea1b5efc56b39c60001b62000b4e565b600073ffffffffffffffffffffffffffffffffffffffff168373ffffffffffffffffffffffffffffffffffffffff167fddf252ad1be2c89b69c2b068fc378daa952ba7f163c4a11628f55a4df523b3ef846040516200a01b91906201b330565b60405180910390a3505050565b60006060806200a05b7fe954abf3dc7c61b9ecb84284a8fa5f904c9d41c0cd565b041dc0404b606dadc160001b62004945565b6200a0897f08d6bf9aa829ac3f9e37b5f2b13e774d7577dee975f8a56664f9f78aa2d3025860001b62004945565b6200a0b77f5f24fa82c98c757bf5fec95a22e9a66110a961e9ca2315055de7e985f2e460f360001b62004945565b60606200a0c36200bafc565b90506200a0f37fd3be27c82d250ad77d6bdf7c8e1a54be750a8f74b6ef0cf5cab27d8a2f9eb65060001b62004945565b6200a1217f0921bad3554c5863396c4c44430dfb1b8a322a8aaa48ebeb52755f7fd608fe2360001b62004945565b60006200a12f828a6200bd3d565b90506200a15f7f4ecd09719f2b148d8e3fe4b6bc9ddc3d1535f0f13b81c5c9356c1fb76d3b3c7960001b62004945565b6200a18d7f85d1700a916d0ca2b7e1cd53a8a1c25e4db22000a7f3bc2ee49bc4b2843fad0e60001b62004945565b60606200a1a08a84600954858c6201018c565b90506200a1d07fdf2450abf305336ed797f31c4c4f840fe6762a2ea68c8bb8ce2785887e87c41660001b62004945565b6200a1fe7f451c34515c2ed3dc6e79f703dbba9bc16b7c534d272471b625bc69ec94675afe60001b62004945565b6200a20e8a826200b08162010503565b6200a23c7fc8af27bb2078fcd7607567a2ee0102fe1c47c49538bd035f15e0402c4eb11f2e60001b62004945565b6200a26a7f95aff73c41d5c3d3c13b1728d4b5b2171b08d723cb574d5dfcf04174d6d6f2c560001b62004945565b600060606200a27b8c868b62010f1a565b915091506200a2ad7f155a9bf8056451d6a5a281a0104b77cc7a6155adeaeff1f0b4df509916744b7160001b62004945565b6200a2db7fdd933f0258f77facba66f0d974e026822d433a4dd1d70efd613ccbe68698179560001b62004945565b6200a2eb8c8262005e0962010503565b6200a3197fc3de19a0570f7fb23234a621c3b6369dcd1f448c0da6812ee868f7cb05ca66b060001b62004945565b6200a3477f8afd6849ed3bea31a76660c9b0ee576eef56d3f1399997f7433503d44907217960001b62004945565b6200a353858d6200bd3d565b6009819055506200a3877f275c3580fe8c8e930733866ac7faa5ed1066718908df97a1836e63157b380b0960001b62004945565b6200a3b57f85897026ca4f26426a44ad8d56e922bac412c4eb6a3483c32e7bf9d7f618c69f60001b62004945565b81818497509750975050505050509750975097945050505050565b6200a3fe7fba3950a4c6334b590c9da230e05d8d5f723709741bbe8680b5f56d66df89159e60001b62004945565b6200a42c7f2b0dda0970c0595244dc7cb0fd943c4646c073eef4f19cb0a8508b874bca1dc460001b62004945565b6200a45a7fd8f646d1051c6c3fc313dd9b371d3b68d1f347183fffe6fb898f074ec388624c60001b62004945565b6200a486816000815181106200a46c57fe5b60200260200101516200a48060016200a545565b62011297565b816000815181106200a49457fe5b6020026020010181815250506200a4ce7f8b2026d04a2c5ca2fdfd586a76b75c4142576fcb44d0be80ff757af2bdcf7c7860001b62004945565b6200a4fc7ffff0ca3c9db17638eb31ac06bba71e572db79a5d8e778d2a20bef90e5b93434b60001b62004945565b6200a528816001815181106200a50e57fe5b60200260200101516200a52260006200a545565b62011297565b816001815181106200a53657fe5b60200260200101818152505050565b60006200a5757fc509a58e6c491a53b995befe7b14337e83e13b3467c6adbc62d995718b28968a60001b62004945565b6200a5a37f2c5bda8bf9c04902de8c9ac3485c5d0cf3f188752fd01f1c97fd2acc39b5254860001b62004945565b6200a5d17f28a370aa8ff7b40a5791faead37441781dffddafcd9ac529020edd2d8002143e60001b62004945565b816200a5fe577f00000000000000000000000000000000000000000000000000000000000000006200a620565b7f00000000000000000000000000000000000000000000000000000000000000005b9050919050565b60006200a6577f821f25f4171361238a9eda9c02fe36b25520464bf2c56bc78c433a9b4b306f2660001b62004945565b6200a6857fdf913affe77ecbceae888b8b16009cc3a2f4df22a4467a0fab9e5b1d38ca550060001b62004945565b6200a6b37fdae82a4d6e26a89327929a5d9f1a9e22c4d2bfba45e605df6f25abf91d1ca0f660001b62004945565b816200a6e0577f00000000000000000000000000000000000000000000000000000000000000006200a702565b7f00000000000000000000000000000000000000000000000000000000000000005b9050919050565b60006200a7397fdc6d1dc55a164d58860338dc41a9ce020fa63a35d9c3c20e68b176b1bbf44e2f60001b62004945565b6200a7677fb1ec0244a01eff03bec11eb2a3bbc3984d6527ace15a04e74c753766e93774bb60001b62004945565b6200a7957f323a77fa64b62e9aa1f444cfeb8761f5b2727755c1bddccdeacffe32badcd98f60001b62004945565b6200a7a18383620096ff565b905092915050565b6200a7d77f8c2ce8d8bd73eb9a7ad09d98bd3fc5a2cef36985883fcf1f004c77553883934f60001b62004945565b6200a8057fa33f719fdab2c26b58412424433bee264c1c2719b376a047e169a19cbd0bcfa660001b62004945565b6200a8337fb21b97e4ac882742acf90f2728c1760d11dcfad4c809b695c49e6077f5c6a92760001b62004945565b600060085490506200a8687fe5dedffff4ece8c8674d60514d241abd4ee6e579feb61d600bd391048a4e437360001b62004945565b6200a8967fbe58b603e3de8841a58c9fd902839c1bebb91f845627f2d53152ac19306ac96260001b62004945565b6200a8a181620085f0565b80156200a8ad57508343115b156200ad90576200a8e17f05eca14f10a27379f3624b569b2f8ad7ca704b516bc1341595cd18fd1ddfcdd460001b62004945565b6200a90f7f9a8defb3838ebde877f99d23fd720a31ae146e65c6c5fb08694c299c4870dc0060001b62004945565b6200a93d7fe23076aaef7ce24f3d80853c24654e86d99f38274f96982e48afe67421757c1060001b62004945565b60006200a98d7f0000000000000000000000000000000000000000000000000000000000000000857f000000000000000000000000000000000000000000000000000000000000000086620114d2565b90506200a9bd7fc58433666811d0252289f1b657227e9551b3567513cfe72baa7bf4a6b6b7811860001b62004945565b6200a9eb7f2914013025fdcdb562601e255e933c20aaecb4dc4b1c266764e2a5ffd7cc904760001b62004945565b60006200aa247f0000000000000000000000000000000000000000000000000000000000000000866200aa1e866200849e565b62011611565b90506200aa547f5581063920785c45010ea0f67ca16f380fad3d6df03a2bdacb6ae3f52d252ba760001b62004945565b6200aa827f0d4982c7b63512987d708e57760d083d9b8781f050569c73bbbcfab1d1246f3960001b62004945565b60006200aa8f8462006c6d565b90506200aabf7f40f2ce9a77cd23d04b202f0b54800f42fe6b91458b50daa7bc74ea463d37af9160001b62004945565b6200aaed7f9132b9cce24bac73a88f46613fcee0d63ebae2c63dd58fb71f45c159a2b9a93460001b62004945565b60006200aafa8562008547565b90506200ab2a7f5e99d35b94b94cce785d8437aab85596e80e31937b46d93382cc23c50a425a0560001b62004945565b6200ab587f19863677671e831989b3161e292ef26adf809beaa8aaa401958667cbbdf5980960001b62004945565b60006200ab73828487876200ab6d8b620083f5565b62011729565b90506200aba37f642dacdf78ca705fa15218ae397c7c6a854d63855ce03ecb80b9b561cefded9660001b62004945565b6200abd17fc5cbadce4160eac90ea320c15fd69ba807bbf54561210dec6284b40fcc969d0c60001b62004945565b8083146200ad56576200ac077f5a5f7072146566b8900a9d023d5b758f8e34ca9b6e4ad1ba54a290472f06026f60001b62004945565b6200ac357f88010f4093c30946ba7c6a92fc2cdba6b71bc7c74657885c0f68677bd2bdc3dd60001b62004945565b6200ac637f26c52af45253217272e3519e4c5c2dc65dacc8758386df70e969ae2388ca865360001b62004945565b6200ac7881876201199a90919063ffffffff16565b95506200aca87f847b547061314e5c9d93d14c057480b0683242ed766a4202934d23d1bd380cc860001b62004945565b6200acd67fbec2dd02c6547e35ab3370e8f03d36824a92af0c157f06194338bc34519d0c2060001b62004945565b6200aceb428762011a4690919063ffffffff16565b95506200ad1b7f412db15298962ee5c35eb7e44f8125ab77de11e3dfcb1d91cc8c530ac6f45b0360001b62004945565b6200ad497fc6745f87e1d10ac5bf673d93dcbc9dcc21751c1d4e84669b938fd0dbfa75918d60001b62004945565b856008819055506200ad85565b6200ad847f55470718a24b50016babd25c8b6c461ff69b50dfb3a941db5f5f03d2de3a5c5860001b62004945565b5b50505050506200adbf565b6200adbe7f7197c7f3a0d8403485b3b989970c445f57c7a2a0109e5675de261ae36501d07360001b62004945565b5b50505050565b60006200adf57fecedcab8d0f0b6a3000213e8cddc44feada52d5d1ceca994a1708f87a68f484260001b6200c86d565b6200ae237ff7a5e7dc62e206a3c02506e29058349ecd8dafef79131bdc1bc2e8e1249cd18360001b6200c86d565b6200ae517f464c62fb9d6f36fb99d3416aa58c5d658e75acb5788f6ff32ba3c5125e2dd92a60001b6200c86d565b600082840290506200ae867f62fa03b6cb0bf307621766f8e2c59c61c09f612d409ab410b0274a5d515f142260001b6200c86d565b6200aeb47fbe2dae5901d1ce6fef70c1007ac171cbde128a670f8e63dedd387d29c32bbdff60001b6200c86d565b6200aed960008514806200aed15750838583816200aece57fe5b04145b600362006d16565b6200af077ff751ce1bed0d21d854888f65c9afddf5fd3403e43d946bb14a67c1da59e974fb60001b6200c86d565b6200af357f83338b898944f1b063429e568413716f9a77960254fc9aa061a6760b2c9cd5c460001b6200c86d565b60008114156200afd4576200af6d7ff7d35bcb2b713968c089fdd9b59712b4eb62375d00e259e9dfce81aff0b8969b60001b6200c86d565b6200af9b7fa22bc731dfb2440b39794a07130d0ad03e27d6b8166a162102b8307676d1ca3f60001b6200c86d565b6200afc97f69095262fb678ae5f47c6a9ffabcd4b89001a3eed701741b5f7c4710ecb6028160001b6200c86d565b60009150506200b07b565b6200b0027f263c8cd579b54b7eae40140c5ccb8cd53b978485034df207bf14711955d29e4e60001b6200c86d565b6200b0307f56c98e1813cfb46ef95956e10763a8a2d34e9f3d345a2e254da0d46729917f7960001b6200c86d565b6200b05e7f966474f471122894d48e473af854379789a7b13e9e5227f3faf34cb4687e2f6e60001b6200c86d565b6001670de0b6b3a764000060018303816200b07557fe5b04019150505b92915050565b60006200b0b17f98fee658fb98ee3a3f7d31c9b144bae0694670e2d2c9740be272b5cfea0092c360001b6200c86d565b6200b0df7f293f09d7307734d72ef4603c3433eb00449e5e883678fdc8895b9ad14da4388760001b6200c86d565b6200b10d7f9ea24ae37f0db9d37904a7342a2b686a492cf5195c6dc2b3a033aa704f81844560001b6200c86d565b6200b11d83831115600162006d16565b6200b14b7fe5e0f286e14e3939ab23ad606f1392eab58a6aa878cfdfda24b238e5aaec25c060001b6200c86d565b6200b1797f37759278f4a59534be934e0e6521d3364d9957c6491e795f56bed364064e433360001b6200c86d565b600082840390506200b1ae7fad28cb0f8fb12a20cffd3ed3e3e4311fbd593c9af7fcd49febf0e43a31f27eb060001b6200c86d565b6200b1dc7f73877f4e66f2878c1974f071e9743c95266cbad904e3148b9557f6ca9019d15260001b6200c86d565b8091505092915050565b60006200b2167fd6aecad6f80cc6c9fd287f8ffe140d3dc74b214d10cc909329fcbd7aed95f78e60001b62004945565b6200b2447f691640bcdfb9eba844c0436f6e32e753079be7fe0189463dace3c97cdd9cb7f860001b62004945565b6200b2727fdf95a88d5df1c9ed8bb8e91abcc9934e0f8579b844c191b9e6904056769165b560001b62004945565b6200b285858486858a6060015162011af2565b905095945050505050565b60006200b2c07ff4d999e703a2b2cd7e17abd0c046581d8e38ce11b8622c9a78511fc1b365ff9660001b62004945565b6200b2ee7f31be5f5a647c4463d0199bdc5126bc91123800145eaf3f5c7741cbc1dd0beabf60001b62004945565b6200b31c7fc21865bbf63961cebdd8797bc9340e6396efce1a5372d53f56ba6d0299286ac560001b62004945565b6200b328838362010a15565b905092915050565b60006200b3607f93f869dcd3b55881d49777baff180b7ad54641803d057a424839946f08c4e8f460001b62004945565b6200b38e7fd7eec1ff20f1d8827bd2852178fd43124d4a2a54bf966b16810c551f5ce5d89c60001b62004945565b6200b3bc7f98b8dfae6a7a3e06f4874a5ed3bd3c538b93a56b83891a3b34c2528c7ea1f0a860001b62004945565b6200b3cf858486858a6060015162011e09565b905095945050505050565b60006200b40a7f39314f8336c7420f8b7c5d122d0bd6d5f7cea71953597f57d29b01b246ec515360001b62004945565b6200b4387f5e0f5c9c31c80077c9f135f6bf5be1deb6ffaa8a5670c421be99035ffba6f39f60001b62004945565b6200b4667f5fee532fa029b7d4c710cf1b6f873a2e86d020f6f9ba52a91f573ce5015b707160001b62004945565b6200b472838362011297565b905092915050565b60006200b4aa7f60680262f8cde245659d6c6448d21bceb1d3ca08e29b59e819a6666f1c7e7bb260001b6200c86d565b6200b4d87f5ad3353e0ee2b8595834d505fe48966b19abe3dc495fcaa2c983f602906d1ec560001b6200c86d565b6200b5067f7c485422e01001a45ed23c48c1d1896544b18c428abf31cb0e62bae7e2eaf30160001b6200c86d565b670de0b6b3a764000082106200b51e5760006200b52a565b81670de0b6b3a7640000035b9050919050565b60006200b5617f2d109a5683dd9a11ace453b33326f996dc073f965956c0adcbc94da37c822bbc60001b6200c86d565b6200b58f7fea0a55fe7d66eeea1d8c65997ef349e4565e690cb513c76bb425aa845819404460001b6200c86d565b6200b5bd7fa2e015e562ecff7cb5dbcb8dcc681211c5910605c85f6c8da514e14520d7be2e60001b6200c86d565b6200b5ce6000831415600462006d16565b6200b5fc7f7cb9d936b52daa3885c69bfd5704f0b5904085e5601e4d6996bdb889cba14b7e60001b6200c86d565b6200b62a7fa6aa7cb199aa4952e11d0c48c2f2a6aa6d773e1412fa2c68e4497072fc9c34a260001b6200c86d565b60008314156200b6c8576200b6627f6444ff1aca63815e4d2616653a3331b326584b2c92e1619a9aeea548bc0fa6b060001b6200c86d565b6200b6907f1bb8db645f8bcb2e16a0d7ff4086e5ee3684b0032db0454c653291f51b9f723960001b6200c86d565b6200b6be7f11b60f07d48ef5f829a0caf0761770cf3d5dfeeddc3475cbaada9d91ab44ff1f60001b6200c86d565b600090506200b84f565b6200b6f67f4a73f3af504b91809a28e5acaf9337a35a56ca11189217b0a894129cc15e8fad60001b6200c86d565b6200b7247fe99ea2420c0ecfeadba8d7dd1d82e5ee989794f71a5f27acfd3ad1bd812c690b60001b6200c86d565b6200b7527fd17216c7fdeef3f09d1091432fb7303451e83c986270ffa9bcb84b0b66b60cb360001b6200c86d565b6000670de0b6b3a7640000840290506200b78f7f022bd7d5ec8e771a53b61eeb3fa4b04d83c67d8a43d01c0c66cf08aa6018840d60001b6200c86d565b6200b7bd7fdb22d1d6663051778e748b13c2b2b11d231553902ff4007ccd48321f7bb63d3960001b6200c86d565b6200b7de670de0b6b3a76400008583816200b7d457fe5b0414600562006d16565b6200b80c7ff80bdc4afe03b8285068be38759e765413a3844d086e1d62e0a9d6f27338182c60001b6200c86d565b6200b83a7f5015482585e9090f4a9bf17a97e47f1225482f97e80fa061dfb918c23d4f585860001b6200c86d565b60018360018303816200b84957fe5b04019150505b92915050565b60006200b8857f11e0e8c19b6717dce1155a9fe98d40db1a021ce749e10caa8306ac8328b34dde60001b62004945565b6200b8b27ea8d8cf9aa1cca1153e6e678c5562df3ca601844db9d607313af565ceb69e5260001b62004945565b6200b8e07faedfb0b30ed4fc1affac86f43d3b7016e4a1b72ec9303f06d8ee9c8392b7da4d60001b62004945565b6200b8ea620038b2565b73ffffffffffffffffffffffffffffffffffffffff1663aaabadc56040518163ffffffff1660e01b815260040160206040518083038186803b1580156200b93057600080fd5b505afa1580156200b945573d6000803e3d6000fd5b505050506040513d601f19601f820116820180604052508101906200b96b91906201a8f1565b905090565b60006200b9a07f2bad172f5df67b0413b77683b36b20d098db0e5fd1688d958c27d3d5f9721e9c60001b62005d71565b6200b9ce7f51c5896df8a6f7c4d8c93e78662ad0be3ed92d0e005d16b2ac1bbfb31400cf8c60001b62005d71565b6200b9fc7f04e0186a1a88781e5b071479af89e750d1fb55316155ce0466776d88c43ad8c760001b62005d71565b60006200ba098362009335565b90506200ba397f07af713e8dcc131b086c5a7e9c1aa0efe34869775cdb17ae5039659f2077dd4b60001b62005d71565b6200ba677f54378ca536f2210374d9f6c6bbae499a50a1aea98dff7f295f3b2b6e08f8309f60001b62005d71565b6200ba8260006200ba78836200cc74565b1161013962006d16565b6200bab07f2232a93a539d8ce6c9c5926ba1cfff8acc6dd0ed0180e446e40ded32b263ff2960001b62005d71565b6200bade7f1a23628c015f0a7677c9267fd54105899926709a8cd386fd5928b03ffb023cd260001b62005d71565b6200baf384826200cd1d90919063ffffffff16565b91505092915050565b60606200bb2c7fe851d5e42d56f423520f2d8eb029df0f415af5a2d72ebd5ad8deb1f73cf2791760001b62004945565b6200bb5a7f9941de0fa6fbe552962b15b71b4afc64d1f77a22d9c62d3919bcbe75e43a2abd60001b62004945565b6200bb887f6e9dcf7bc5040f985d8c0de5b2cad044fba5807e57261ade8ea66834e0d093fa60001b62004945565b6060600267ffffffffffffffff811180156200bba357600080fd5b506040519080825280602002602001820160405280156200bbd35781602001602082028036833780820191505090505b5090506200bc047f9d13b2aa42adb2643e27ab757cf49039ecbe2942cde5d570ef7204bf32cc8b6960001b62004945565b6200bc327ff4c581f137b02c5f6b35b964d7e238b96bacb932e3575299c82b29c38bd47fe960001b62004945565b6200bc3e60016200a627565b816000815181106200bc4c57fe5b6020026020010181815250506200bc867fb7348ee7dc0faa18b401f493cd26b5040d592f07abf501270367b1e684ae0fe260001b62004945565b6200bcb47fafc36a5b40d52b234cbf4cec5e37e0bada3eb3dc7603a0e160dc795e2df0570160001b62004945565b6200bcc060006200a627565b816001815181106200bcce57fe5b6020026020010181815250506200bd087f1f284ddceb5de769f878f7f6128b40c70e4fffd334c261de97dfce6c6e5017bb60001b62004945565b6200bd367f1eccdc1a0e7e980d59f0da845bde02ff7d95312bc18da1fed0761c118308e19160001b62004945565b8091505090565b60006200bd6d7f07322d544c4e775fcf8373fdb922d15ab11a99df57bf4053f1ddc11803a8193c60001b62005cd3565b6200bd9b7f072849f49d0d82e46a64de0a26143778190af4484cf8b770df9033921f45a78660001b62005cd3565b6200bdc97f403a7f434d63c70b64fcd6d9764d01d1c4a94104c65c387217a50d7644a502e860001b62005cd3565b670de0b6b3a764000090506200be027fc9888952abc217e38fee955d13fb1f414485d7d4ed8986c7f01f7fe03ef9cb8360001b62005cd3565b6200be307fa67248fd6d43fa5c685b20206023e84761b3b4aeab5ac8e4e8547d18559b475b60001b62005cd3565b60005b83518110156200befa576200be6b7f19fe295d9b283db35203df09bb3c638c88719538e7f7a953f263a89d1f6e8a3360001b62005cd3565b6200be997f6033809153cdc08b170dccee9159960306ad936dc4c73c7041e3f42c2cf5b45960001b62005cd3565b6200beea6200beda8583815181106200beae57fe5b60200260200101518584815181106200bec357fe5b60200260200101516201213290919063ffffffff16565b83620123e490919063ffffffff16565b915080806001019150506200be33565b506200bf297f7d0a64eaaf5ee7cdbbed58e8aa793387b83e2d6ba6871cf5e0addab21afaa95160001b62005cd3565b6200bf577f737dbb6439eaa38e96d6e06400420536c3fbc4234a55c7ede312ff40008ae15660001b62005cd3565b6200bf686000821161013762006d16565b92915050565b60006200bf9e7f2c54610e3fe0a98df3c423e90950973fc94146f557b01b6bee8cca13a6032b4a60001b62002b7b565b6200bfcc7fbc254dfd0c8280fa8535e89d4bc4cc331f18b5ac8558d459ad7b42c1e1c9d89c60001b62002b7b565b6200bffa7f2ceb1de44021a984c31888fffa7404fe74791ca186de59ed6c94965c86a06b2260001b62002b7b565b6200c004620080a7565b826040516020016200c0189291906201af40565b604051602081830303815290604052805190602001209050919050565b600060606200c0677fe8fbb2bd3587ccdbec352ceeaaf337ab919b2c4a88b28d0723a5190316a6563d60001b62004945565b6200c0957fb878db39cc97d90de6184bfd14a52d6f3bb38af4f4768c41846c30fdeb399a3360001b62004945565b6200c0c37f4bc0e3968f552dac4715329e3531b213c4dc1a7a32006f8f5757ee8b05f9696460001b62004945565b60006200c0d08462012570565b90506200c1007f6db6b212cc5d26dd3a0bc16ca09b1650201fc7f32f1054c1347eee4b2af641d360001b62004945565b6200c12e7f726526268cbac5f7abb2dba853ce944e6b0d2d2de4a5590bb75a5c9eaae2af2560001b62004945565b6200c156600060028111156200c14057fe5b8260028111156200c14d57fe5b1460ce62006d16565b6200c1847f68a53ebed94510d43888c3d1809cfaf50257714b971e6fa85e8391f4f5a5489860001b62004945565b6200c1b27f2ffdbd10be57fdf06765153caeb8f098d41e291aaae4abd12737b3587334eb5260001b62004945565b60606200c1bf8562012619565b90506200c1ef7f543c5947c46bb0af75fb72fe66891372b8a9066fdff879f767848301ffbae71a60001b62004945565b6200c21d7f74c08b9c5e926f7a73cd727747deb69a7917cf2a1e9cc71d85edd7296d3130b160001b62004945565b6200c22b8151600262008742565b6200c2597f7023f453b09379a0edaf640cf57860c7ca9cfb9b0cab254ee240ce366fb202e360001b62004945565b6200c2877f71c0edd34a61df70bb302f5433bdeb95cfbb778f369b6b1259d0f796570a615160001b62004945565b6200c2928162009b97565b6200c2c07fdfcab2e8c75cc1a8639630cadc191774f45a4a31b873db5577bf4008a555ddfc60001b62004945565b6200c2ee7f6d9303e098e4fb8c6654b08e13612db0c2e588cd1bfd85c7cde7fb5a88232db460001b62004945565b60606200c2fa6200bafc565b90506200c32a7f9504e83d5073b4df7af731bd5732f3068151c6561c4371e5b68a58c79a19b9ea60001b62004945565b6200c3587ff61bd5596dc1f7775377d5956dbd89fd8486108f8e2596dc8df3ed91f2b933ab60001b62004945565b60006200c36682846200bd3d565b90506200c3967f2c2b2a6dfc60316a18cee47f1b328d40805af2aaf20889b37e4eef3b5d62aa3160001b62004945565b6200c3c47ff0a9ec371cf4fdad3645dfd9024c2dd6cadaf04970722db8bc0b34e05c30200c60001b62004945565b60006200c3d3826002620096ff565b90506200c4037f782dec9ea869fbeeb4c64a5afb290462568948d5383b654580def6ac2ee7f49a60001b62004945565b6200c4317fc7607af97e0b52903fa3ba19740bd51ed2d0a0952833b46536cc8fb00b0cc4a360001b62004945565b816009819055506200c4667fcb48dc8bc3b0284fb2e3575253c9cef3df718ef2e0932c3cb9f45ab0ae17e18560001b62004945565b6200c4947faad196c3c97f1f0694b3e213f33dababe25cdcbe6b345e71081c53efb1db763e60001b62004945565b808496509650505050505094509492505050565b6200c4d67f859b971d1a1255cf9d4cb958e7b1ee466850218c832922f5051633c8255740e360001b62000b4e565b6200c5047f1e4219e446bfc49318475e67e9dd11a5c4904f252aed09a1e1987ed6f447f89360001b62000b4e565b6200c5327f470a94d2bcbba4d6bb89bc72d8fe31cf78a8e8dc566102efe0795181f9c5196160001b62000b4e565b6200c585816000808573ffffffffffffffffffffffffffffffffffffffff1673ffffffffffffffffffffffffffffffffffffffff168152602001908152602001600020546200c70890919063ffffffff16565b6000808473ffffffffffffffffffffffffffffffffffffffff1673ffffffffffffffffffffffffffffffffffffffff168152602001908152602001600020819055506200c5f57fa0703f6eb5028f6ac193d4dd8a2444daf838d9c2ce959a095d092808f9cae89b60001b62000b4e565b6200c6237f19aadcec8f30a84b6fe3489d9ae4f9ed9f7708f300e1ae0a833a1e807a13069f60001b62000b4e565b6200c63a816002546200c70890919063ffffffff16565b6002819055506200c66e7fe55b6ddab0c258b148644c992ade42c43ee1114b03a612c38784d59bc66286cc60001b62000b4e565b6200c69c7fb592118a6e6fd079c07f78575f993e050813613c6ece73dae980bf49bbe39f0660001b62000b4e565b8173ffffffffffffffffffffffffffffffffffffffff16600073ffffffffffffffffffffffffffffffffffffffff167fddf252ad1be2c89b69c2b068fc378daa952ba7f163c4a11628f55a4df523b3ef836040516200c6fc91906201b330565b60405180910390a35050565b60006200c7387fe9ab1930f8b2a33e186614bdc5275e5aef3bc5199db452be16b906fe891a7aef60001b6200c873565b6200c7667f672db28399f3b33e0df219cd59d4073e056f97e6f18dcebfa00f27c463d9fd7360001b6200c873565b6200c7947f0ab1a15c584dc550564822e51c90b6556d02439b72ef95c55813a7f4f670280f60001b6200c873565b600082840190506200c7c97f4912ca1f746b67b87e92127e424ef610602ecd8455c415eca24e0e1efae1b65e60001b6200c873565b6200c7f77f66114683dd19cf7947e3b2b818c6c55b57501af6e821e1cdb4f2f80d63a7276460001b6200c873565b6200c80784821015600062006d16565b6200c8357fb783f36a61aa5e73f22951df3681c2eb20b8fba57492aa9e4764edbd3684340b60001b6200c873565b6200c8637fe7b48b6ed0eb47f18bb58555642ad250e08b266847ceeeb5fe538202fc79104360001b6200c873565b8091505092915050565b50565b50565b50565b50565b60006200c8a97f91f79ce61d6095052f98343ef22bf159599b9673b3da8e9b6fcf2ee4ccdf929160001b62002486565b6200c8d77f6d956e6a2b37087093bfab4ac0d93ebca5ac0f03733e05fb5e3f05bf8316b69160001b62002486565b6200c9057f77561784c0d0c99030a4a639f96d9bc02d8d5616e2b78f6299799333ced6e4ca60001b62002486565b73ba1ba1ba1ba1ba1ba1ba1ba1ba1ba1ba1ba1ba1b73ffffffffffffffffffffffffffffffffffffffff166200c93a62003800565b73ffffffffffffffffffffffffffffffffffffffff16141580156200c96657506200c96583620126c6565b5b156200ca36576200c99a7fcd9aa553fe2735cf7020b4eb80cfda751f8aecdef127d00fa09d44949493ebe960001b62002486565b6200c9c87f72cf9f892674527fa632776f358fe3c83644138ae83851c5a468654ee96a51a260001b62002486565b6200c9f67f37d4b26a5e6da01282932b7cbac42b7bbe6ae4a212e5e0487ccf119a0d3d0e6860001b62002486565b6200ca0062003800565b73ffffffffffffffffffffffffffffffffffffffff163373ffffffffffffffffffffffffffffffffffffffff161490506200cb5f565b6200ca647fe7da6a237a9d6cd3116cef4d5ee70b194818a8e3be021a5de096d3e422173b0160001b62002486565b6200ca927fc5ffb87b693ac8cd4c80a77973b8153ba692ddebe54fae3e7506c6d5ae1de21f60001b62002486565b6200cac07f3447ca4599d659cf5d5b18a186bb0c30b2f9f0a7af21b1f9e9e4c51b46b06b9f60001b62002486565b6200caca6200b855565b73ffffffffffffffffffffffffffffffffffffffff16639be2a8848484306040518463ffffffff1660e01b81526004016200cb08939291906201b094565b60206040518083038186803b1580156200cb2157600080fd5b505afa1580156200cb36573d6000803e3d6000fd5b505050506040513d601f19601f820116820180604052508101906200cb5c91906201a78e565b90505b92915050565b60006200cb957f22655fe738bc4328fd47c94af4a1d588a0a7b7cfc3a3c6ef61f988fb2bdf8cb060001b6200c876565b6200cbc37faa9d596d1a41915cc16ee96b5c01894d6b4e8b4de1d20c066d7e687094c7da1660001b6200c876565b6200cbf17f2eded7405602cf0af0567df41ee1df2a255450f8ee64d8561fe7c1f3ceac72f760001b6200c876565b6103ff8284901c60001c16905092915050565b6030600a820601600a820491506030600a830601600a830492506030600a8406018060101b8260081b8401016642414c230000000160c81b7f08c379a000000000000000000000000000000000000000000000000000000000600052602060045260076024528060445260646000fd5b60006200cca47f4f4f8df0341baef10cc011b5a6770a6cbf28c654d4fc7f849070ca859677657560001b62010b21565b6200ccd27f6e3c113f7582bcd235509b0bd91544f2aaafe9be8755c932ddd1b3e40c5da8cd60001b62010b21565b6200cd007f7540df9278fc384f2e9ad745fc8bae2976b759ee26d8667b7b3469cf6ddd8d7560001b62010b21565b6200cd166000836200ffa390919063ffffffff16565b9050919050565b60006200cd4d7fb9c3e1232d7d064762d026de733747bc440873f4f76b1decfc3407c72b7092bb60001b62010b21565b6200cd7b7fd60bf92b9aa346afaa1b13df77cdff2e78afb211399a2fbbb96fb90e52e3701f60001b62010b21565b6200cda97f9fb3a9b4b34059dce07769bcdf60251d3ca4180fde94e329c6c50d11a6fecfda60001b62010b21565b600060028111156200cdb757fe5b8260028111156200cdc457fe5b14156200ce68576200cdf97ff8a51d5c73b9e2d4ccbabe2ea6ce8b84ca14066fb17ba030579b088ea5c583ca60001b62010b21565b6200ce277fb9b79ba991e37337aeb1f935f8c42302118b10b72890061a619017301d682fab60001b62010b21565b6200ce557f431848d91277cabc27205b5d04b5b73d1f26270367520b2622f9d49e4a7d3aa260001b62010b21565b6200ce608362010b24565b90506200d01b565b6200ce967f6b138f0b844bce0dbc392cd6c9516b4aee26903f5ff0f66d18f61a4da2bdfbb460001b62010b21565b6200cec47f4b949dc8c8c9008c3b961556aebbefb12cc7059a3840d9db40bd0a783cf519c960001b62010b21565b600160028111156200ced257fe5b8260028111156200cedf57fe5b14156200cf83576200cf147f17e2884c769bf7128130b77261047989718f5ef3aeb247a1663c7b5ecdbc378b60001b62010b21565b6200cf427f4fb84d815aa08fee388c66d4d59328ebac1d197cfbf29efaf149ac9bdf0488a860001b62010b21565b6200cf707fdc2bce14b944db447aefe902ffa30ca66bb400244a94b68959d4e6b88e75131c60001b62010b21565b6200cf7b8362010c76565b90506200d01b565b6200cfb17f030f284a11ac30b986b841027ad0c9219bd4e1cb00ac80be00d286bc02cb434c60001b62010b21565b6200cfdf7f46e418bc451d27a5bc68d1a7d57491bb1a5cbbbaebf3db61b1048b944733840e60001b62010b21565b6200d00d7ff798e44f483b2a5dce4aedbb65da48b3172be3f8ff166ac213bcd70d6074e15c60001b62010b21565b6200d0188362010dc8565b90505b92915050565b60006200d0517f242d7ce4e426c6409da95c6914d106fd4a505a319fb6c3bd78c15bca7fdbcef660001b62010b21565b6200d07f7f7f431ad96dcdf842f517c8b2696f5d211f4f6a4336c346ef416e50e923ab89c960001b62010b21565b6200d0ad7fed006e35699fe3f7f925c414488eeda627fff9ca4d5f243d749506eb559a1f5760001b62010b21565b600060028111156200d0bb57fe5b8260028111156200d0c857fe5b14156200d16c576200d0fd7f9d56181d4b472025df2eac7f255856b28ec990eaba7582948b3ea063a730fa1160001b62010b21565b6200d12b7f92467c561384307376ce765d3e7a63fb00a90fab19936b4c82766e7c4e13724e60001b62010b21565b6200d1597f15adbaab8ae62884f23b80ad682017b92f3abfa51332f026939c8d4e74ecc53060001b62010b21565b6200d1648362010bcd565b90506200d31f565b6200d19a7f231cd4beb2b221d96ff9ff9cdebe283997bbfdcdf793840c10b5c5cac36b668d60001b62010b21565b6200d1c87f0e14f7b892690d6346709f389b386f1891ce41d75d950ede5597a15221fb011260001b62010b21565b600160028111156200d1d657fe5b8260028111156200d1e357fe5b14156200d287576200d2187f849174d635d6f0894b8134a9261a7371d1a30267acd1f9a51c6d3a1bf368c14560001b62010b21565b6200d2467fd4ed57c719e80aa6a239ae19648a72fbeeac577cc1d6a87903046d91d5bd821d60001b62010b21565b6200d2747f270948f3a7d6d94fb02fb285ea6b771f375bdf6ec3dce0f5aedba5616e1feef860001b62010b21565b6200d27f8362010d1f565b90506200d31f565b6200d2b57f7e0d7b6d72c2022efa8eec0499ff0b1d5b4acccb108094f54f6acda44212bd9060001b62010b21565b6200d2e37f2b7e1168f19125bdf0924f7908543356e76a3a2518089b7a7c9933f02412242e60001b62010b21565b6200d3117f9e5f7230c0021949e1967a60b8fd9fddea7df55b8c93004da72a2952081b20ba60001b62010b21565b6200d31c8362010e71565b90505b92915050565b60006200d3557f1816fe5ed22c4268791959da365b068e77a8a318b51c84cbb25b568a943eb6b660001b6201276d565b6200d3837f0cd097b5690d80c507eaddd8cafece50efd45b8c4c0c9fdde16dd6951cc0fe9960001b6201276d565b6200d3b17fe2e7fe16e84f980ccd236a4f71af5820d6c1c3af4be2bb49b54ac7290e351db460001b6201276d565b6200d3be82600162012770565b9050919050565b6000806200d3f67fae06dca45b30b638a9870145bc86980a6ebbc44118da99087e0f248311b7851360001b62005d71565b6200d4247fc5108086a9d26b23cb639d2f45bbc324eecf6571f5cec806475c346887e53cfe60001b62005d71565b6200d4527f2c31cacfef235c7e88a74292876df28c11ee55d00b6361f52b751a31de00c9c760001b62005d71565b60006200d4827f705760f001e1155fa7a60df17a339ecb7f3209989168fa0b5fa4aafee8c00adc60001b62005d71565b6200d4b07fb54b29fc180ac9e6d2a7d31707535c43536341aff7db52558be6bd7a89d14c0160001b62005d71565b600060016104000390506200d4e87f832de5fa18fd7f255d49a0bfb8c4531acd90eb399b5c5966a0bace2774d8bf8260001b62005d71565b6200d5167f96cc3b13a0708d22217b76dfb33d2ec6c08c015a07ef94c1d46f7eed9230e4a360001b62005d71565b60006200d5467feeecc3c393a2a8259fdfa60107511d0d74761cbbbcb820891f2f0a2ce9f00c0460001b62005d71565b6200d5747fce687bfa0455fc351ba2a773b4735e803ab446e6e0f6ddf37280c9b835fc0a1f60001b62005d71565b60006200d5a47f5d7ed06b76fb1968bba4e18b6a5a03118ebdb877971dcea9543e42445154f8b960001b62005d71565b6200d5d17e5b21a39adaaad5be6fd9a300faf6320d0eb090c3f8301887ae5a6d6d938d7060001b62005d71565b60006200d6017f7c7d73be9a949c9695136101f04ce723f4c84976e614a8286903a299d48b125060001b62005d71565b6200d62f7f23d49b7a6f219db72ef7fcbfc0583124f3dc6e4acca25c913915371869dcf1fd60001b62005d71565b5b8385116200da85576200d6667f9ab41dabc1e8945770274426b52639093d69d919a324580f10008c2e73b4a44760001b62005d71565b6200d6947fa2d99c980acf8968ac4c2a9e7e03181937e9e6e6ce7770e672b2e3a3208048b560001b62005d71565b60006002868601816200d6a357fe5b0490506200d6d47f1f9bb342e71c4ffd73e0521cdbf5419b44692433ca2523ba39a9e39eccd342d960001b62005d71565b6200d7027fad74e23f66e3d46ce2a16d1638cbeed4fbd5c5a77651e8121548a3cb90c1ea2560001b62005d71565b6200d71789826201277090919063ffffffff16565b93506200d7477fa8be6468b1464c60eb4e066004a9506c816661e2ed14995737ef74d1aa7944ce60001b62005d71565b6200d7757fe319dadca5ff03713ad2dfb819186dc19a0a10002c52f61d56cf6c94df1c5acd60001b62005d71565b6200d7808462009335565b92506200d7b07f49e5667f496686388db714d498f70fd8e3048c2a9abf59963ebc18b09edfb49b60001b62005d71565b6200d7de7fe702c31f04e230be85418d4d01ae0e39301a6723959c5cd6e83f0b9eb13a649d60001b62005d71565b6200d7e9836200cc74565b91506200d8197fd9edb0bd1a76cd669926a3e3fd455d5917d982e4406f7fd44b909403fc03fc9460001b62005d71565b6200d8477f343c7c30394a90cbc8ad8e094cca71e5a280b212f8ec6882c96e802b9508e1e960001b62005d71565b898210156200d8e6576200d87e7fe1b7ac6d5d223fce5b38eca7bac881b6f8d7b68c71e7edd8bca15eed4648e99060001b62005d71565b6200d8ac7ff3b592339b95a55efa82ac56a4dc2b9a0495ce9af2378291cc3e21a5b4652f7860001b62005d71565b6200d8da7f40ce58edfe50bb71fb8b62fe2f7bead7be963b93d8e1c8815b7b9a985a11553b60001b62005d71565b6001810195506200da7e565b6200d9147ff23c0017bd3eb0b79ef2e61271fd04947c8a6a90f49253e0f4cb4a035b745e3c60001b62005d71565b6200d9427f1bbe4215b9672d05f6f1a0c3471a1d3d3f359edb2655c165c141df45feb305f060001b62005d71565b898211156200d9e1576200d9797f73251950f8c9ae3cd6243f6951ab0c667eb505c06c8e91cce6e5cfafd241554360001b62005d71565b6200d9a77f8953516b4b862f81f6bb3bb3babfef6900a232053f4d8d7b999e9a279ac032c060001b62005d71565b6200d9d57fe78e9bb183b945c6586bbbd68481f45793f27334854fd93ce042abb280e547cc60001b62005d71565b6001810394506200da7d565b6200da0f7f72322a51dd77ff02705395aea50d6f482b9bc4fb6650737e18abf02ed7e8d02660001b62005d71565b6200da3d7f52a18b57f0f05cac53a653785c361fc19af8779b1213185fafcfac2669b5c0e960001b62005d71565b6200da6b7fe6fbb20c5bec906ae79adfaf3ce6c70c733f73465ccdafe59e0f266e0120b26f60001b62005d71565b8283975097505050505050506200db26565b5b506200d630565b6200dab37f3b8686d623b7d38fdda3bf7de472681f0bacf555650ce84e2f982122ecb5c7a260001b62005d71565b6200dae17f4111a4e78f00f91a7467fa813d8931e30ca57312e51a1d675eace75e886eda7860001b62005d71565b8881106200db05576200dafe6200daf88462012813565b62009335565b826200db1c565b816200db1b6200db15856200d325565b62009335565b5b9650965050505050505b9250929050565b60006200db5d7f6603744b862ab6dc76e6d45ef526e659083d06b697b00d6c702452eccbbcbc0460001b620128b3565b6200db8b7f6a49a08508150c5d74a9e797da5412ffecda75c75e3f9f6cf8ac1d076aed017b60001b620128b3565b6200dbb97f9e338bcff6c9fa839ea936f99d55c006573ff2410ee796c8c578f80fb4b1476260001b620128b3565b6200dbff7ffffffffffffffffffffffffffffffffffffffffffffffffdc702bd3a30fc000083121580156200dbf7575068070c1cc73b00c800008313155b600962006d16565b6200dc2d7fbdb879f854bb361f61c66fedce7851398eccca5f9b11421026790520dbe7330c60001b620128b3565b6200dc5b7f1d4106cee033b42bb28453b29aa0514f3927be014f80298cd53c58a2cc144ed460001b620128b3565b60008212156200dd19576200dc937f9ffc9f9165e96c5cec8064de6562074aa4bac40b8e0ff74e7c050644d6db914360001b620128b3565b6200dcc17f1c1a6bf06a86628b0777bf190212858d70d2cd26d797eddea7239e104f67dc5e60001b620128b3565b6200dcef7f91de43806e6b4c93b6310ffa0a64ac1345b1869837c53cd51a4ce9551ee79a0b60001b620128b3565b6200dcfd826000036200db2d565b670de0b6b3a76400008002816200dd1057fe5b0590506200fb68565b6200dd477f710f40b391df50eaae53e451c37ad0bff0c77d8a26f4eaee1ed8318841ca3c7460001b620128b3565b6200dd757fe3b24104ba4f28e8f4e45cd19101ff28c8b19ddcd113c9ca8df4f2142fac388960001b620128b3565b6200dda37f132d6291004a07f16d0593dd55ca63dfa97424be4fb59f0316e4f4d586bf092e60001b620128b3565b60006200ddd37fbf178581b4a8bd0d485eb7d309792ed64e29317921eb1ad6928122819990cd8560001b620128b3565b6200de017f4b73530e933c77adbf16e42a80b079e6465973fe14e96d2ef191423464b5d9cf60001b620128b3565b6806f05b59d3b200000083126200df27576200de407f28c202a4fa617d7971cb39c3dd4cd40c55eb25a7ad2bfd29a623f97a5c2a395060001b620128b3565b6200de6e7f1ba6b8a8de1c32823cfac339928d64937a118b4c6d43b0f781bdbc3ae120e8d260001b620128b3565b6200de9c7fd4b128d003931b1602679d18f1f1a759fce9d11915bfc0a0a5d82fb37119741460001b620128b3565b6806f05b59d3b2000000830392506200ded87fc7b2515a6893b42db051c9bc6887577ece63d35adcae1e97144222515ceeb39c60001b620128b3565b6200df067f9767975d425cc62d4c50edb1878d2aadb5d1873b1dfa1cfde2a4a50bb07c69d560001b620128b3565b770195e54c5dd42177f53a27172fa9ec63026282700000000090506200e12d565b6200df557f07ec3da6962ab3443fe25e4782bc420f041f271f4e2c2c1e41ea31ec574b498160001b620128b3565b6200df837f661e63e3bfe69a5481fd378700c3a30694d16dc746bd559dd5b9e1d497fdea9560001b620128b3565b6803782dace9d900000083126200e09d576200dfc27f3785f3f40071b38454e95841c68a76b29a54b0286f0a37042cbb0b3fc8bde96860001b620128b3565b6200dff07ff4ac48640a5cc6581ff67074a76f4d075f64dd6791f2c0ee2867cb9b1abb421960001b620128b3565b6200e01e7f889a36601f82fc52f5548abb84d1f5868f98023c6ad7b75dc6e2b86c604e302460001b620128b3565b6803782dace9d9000000830392506200e05a7f0b1c37b4156ff49c92652db2245ffe10f0b1ed61e4fbfa83deb1fdd7ef0d9ec060001b620128b3565b6200e0887fd599b74ef5fb374f32e66fafe9d91229dd5ea9bbe42ebc9c9e369d45a67b9df960001b620128b3565b6b1425982cf597cd205cef738090506200e12c565b6200e0cb7fc05ed50e42b5218441d82c66e1ac1498481e60af916f8357ba5369d90bbfa76460001b620128b3565b6200e0f97f8c740e7289f8bec068c7716d88156a077a04a58a6ce1ce09d8d87f6e4286a1cf60001b620128b3565b6200e1277f11d6764fc64e11bea7ef6764e1c8e9763eda7b809566d1dc14e2ee76bda9ea4160001b620128b3565b600190505b5b6200e15b7fe19248d93c4142e89f02c948c7b41874643d099f8f3c9806910174a58440e69660001b620128b3565b6200e1897f4f109f8d42ef491ede922a778a821baff53572cccc88f1cb3076282db7b1380f60001b620128b3565b6064830292506200e1bd7fccc83beb548390fbb57fe46719ec24dc3109f9c65afc25a2e784223bf6ace68560001b620128b3565b6200e1eb7f23629132dcacfc6e461c74305057c54a0d94e27778e8d26ef165babc08c8787b60001b620128b3565b600068056bc75e2d6310000090506200e2277fdb70ef3e5349656acaf4bfd39c162434a5dd30fdc5ed51cd6b1c7d116c8569a960001b620128b3565b6200e2557fbc8b07fb08fad687d2e7dd3e137d525be659791a9db15f6080dd9c218e5e63a060001b620128b3565b68ad78ebc5ac6200000084126200e387576200e2947f7af7a97bf5f0c230016e7431a39f93e9397911f74ae9af11fe119c64a3b8509b60001b620128b3565b6200e2c27fa4c983995cd34fba0b7665c4b862417abb45618fa811f360c792718feb6cfe7360001b620128b3565b6200e2f07f3e5e18d2128dcda7a3c51ec24dd69ed7fb3cf52476caeafa0fc9cc1bd056c2fe60001b620128b3565b68ad78ebc5ac62000000840393506200e32c7f6ce1407a57f7ceacd45205a97867ce6d3eff75ad30b205935ec2a882cc2c41aa60001b620128b3565b6200e35a7f97eb016396da8decddd8bbc4903417a2404abc0fad5ce36252e97ed57c08f8f160001b620128b3565b68056bc75e2d631000006e01855144814a7ff805980ff00840008202816200e37e57fe5b0590506200e3b6565b6200e3b57f7a222f19097af0b8ebe8c4b3c271a3e1bbb95c2fca82e1ec497250ded78a4c0060001b620128b3565b5b6200e3e47f805a7d593b296a2b66ea0198b850ae8d06043f1640de3e48ad3083925acffa1060001b620128b3565b6200e4127fb98fa6d44a9bd420c1a47c3e06f9706d327ce038cac04d19f1c644d7fc63bcbf60001b620128b3565b6856bc75e2d63100000084126200e541576200e4517f6dc70e2d85c9bd8acbed97f27b977a64cb7839b9e42633d1b46f9b036c5128e160001b620128b3565b6200e47f7f04f6bb568e13485a2c8a77970954d846137ff4337ef9d0c54fe4611388842ae860001b620128b3565b6200e4ad7fb6b77963ea2a5a58811478a28f586ffc54e033daf49f6036a783b6eae2ed5dca60001b620128b3565b6856bc75e2d631000000840393506200e4e97f3047dcef9c74f0035dabbbdd2d76608c30d2d9f42f28c357de0d9a6f5f6a05d460001b620128b3565b6200e5177f419fdbd313b9ce9839e9d4b1ad0b81d8ce89fede7d2718138eb64448a111f0eb60001b620128b3565b68056bc75e2d631000006b02df0ab5a80a22c61ab5a7008202816200e53857fe5b0590506200e570565b6200e56f7f78265ba26cf98ba8b9f01378498d5783992c881672a03d99b00a4c5d46b9549060001b620128b3565b5b6200e59e7f7d8f650f49754abeb5011fadf4ae00af9228f6819e89d9b268e3ff0bf7c0fa3060001b620128b3565b6200e5cc7fc1d05e4b5dad4f9a17797bed4d3888af96549f8bf1d0af0a2c4bb6b4e3c6b16560001b620128b3565b682b5e3af16b1880000084126200e6f9576200e60b7f61ba792ca7d7b22def1affea71a1123f05e945f1c1a132ba2a4b64884799c9bc60001b620128b3565b6200e6397f6a3727128c70b59a167e729dad824b40e1da03edc85a66b7e37058bc42c719bc60001b620128b3565b6200e6677f0521d6055fa0069604d409a10bfc091a96f09bd16b31cb9c5896f4abe4e78fe260001b620128b3565b682b5e3af16b18800000840393506200e6a37f070944c2f2dc8948157040166b057a7d8893c58300fec401a2db212d1ec62f9060001b620128b3565b6200e6d17ff00325782656fa168cd75d7bdbb5703b163e22f7bf60cf090672c80e8de3443160001b620128b3565b68056bc75e2d63100000693f1fce3da636ea5cf8508202816200e6f057fe5b0590506200e728565b6200e7277fceb7f0919299aac82bf2f5739c8b90acd7e7eba1c7e97ccf3dea5588fdb267a560001b620128b3565b5b6200e7567f4c523f43931e9fc49c479095da1ab08aae4691c7a9d1e8c775f93717e6697b6660001b620128b3565b6200e7847fde7559d37461b938c70fe551914609ca870da7fb47a2fe92f01c2445c483b1ca60001b620128b3565b6815af1d78b58c40000084126200e8b1576200e7c37ffe7c77d3f2905df59ce6ef6212574caa23c3ff932a9a20429d711421a02806ce60001b620128b3565b6200e7f17f3ddb67d1fd7a64e04ba821306f2da4d739a5c87fc7753080fdfb58cd0652f7fc60001b620128b3565b6200e81f7f1025142c8ba61bedb893a82dc956e8aa6c2e93daa12bdd4d506176813413bb1860001b620128b3565b6815af1d78b58c400000840393506200e85b7f33e996955fba6856fdcbcdcde9073d29245874ea784831bbc2715ca0dfcc51e760001b620128b3565b6200e8897f2e98d38eafb9450e22fecf0f84f48e746102f1bee8c2985f43cece2335e0b00360001b620128b3565b68056bc75e2d63100000690127fa27722cc06cc5e28202816200e8a857fe5b0590506200e8e0565b6200e8df7f47615a45aad371bbecd97296e438b65fc99573cb6dc24eebeea45ddcba95299960001b620128b3565b5b6200e90e7f12a0c1c60abaa4e2e79d89d81f48519554651861ed9f168e18279f5872b40ebf60001b620128b3565b6200e93c7f5f135e138418337ac5c3bdd2e76ccd9cd3220fd08e641a5613d69512dc9e9bbb60001b620128b3565b680ad78ebc5ac620000084126200ea68576200e97b7fb3ace12e78288ddcbabe9aa7830e86314de03b4609d686e08abc6cea618a220060001b620128b3565b6200e9a97f2f8dbc5acb955780846833f47309ddb10b95862260661165e8693304458e309660001b620128b3565b6200e9d77f059078fc27670543c491910de9e366dfadefa0383607112382ed74945a36a8f560001b620128b3565b680ad78ebc5ac6200000840393506200ea137fbd8787648837ca4047611ff6da351580f4d95b70bfff222525cf85c1700391b560001b620128b3565b6200ea417faed2b56272a449216b2b1f1c1b20039ec9d19ff891c3e5a7ac24104ab4896ca660001b620128b3565b68056bc75e2d6310000068280e60114edb805d038202816200ea5f57fe5b0590506200ea97565b6200ea967f7d8041f68209c84c744c4a75cec2af589dd8bbcc8a745cb137ede0c954ad14a760001b620128b3565b5b6200eac57f1d2b7702e5cc96a97b6c7be229ea0e375b605cb4873269752c4cf3314d85aa8d60001b620128b3565b6200eaf37fe4255d40177c13f8beef001a01711ab52bc875a366d8a8f0008b6d8303a7db3760001b620128b3565b68056bc75e2d6310000084126200ec1f576200eb327ffdbdd750116d2a046d7ecbc83773f84ca56a493d4b27baa6ccfc891d0f1c569560001b620128b3565b6200eb607ffa6d254aee1a01d616d7f0777f8b70339603bd2e743ff41fc3eb44cb75df87b960001b620128b3565b6200eb8e7f84a3c20c13112011f7d5dde037eaaff5849301fea628069f51f5bcb01eaa69d660001b620128b3565b68056bc75e2d63100000840393506200ebca7f7cf2afdf1b3142aee1de7ea27bea6cce310acd6b1b0c75722f0368a9c3ef94e960001b620128b3565b6200ebf87ff006ee7068d2cbcb786bd5ebdc84ccc4d0ab36fe9fd9b00d21aaff43da155d4660001b620128b3565b68056bc75e2d63100000680ebc5fb417461211108202816200ec1657fe5b0590506200ec4e565b6200ec4d7fe583b06eac97353d0ff4bd9baa38f647b92a610e6a70185cc8b4c59981e2d3d160001b620128b3565b5b6200ec7c7f23ee693a4d28312a9def5bb67f28051dc08954178ac8c6a99bd3611f3ede923a60001b620128b3565b6200ecaa7f07503d3d2ce3b15dda30b6de1073ebdd1b87cd99b96e9573bf784aa71890fef960001b620128b3565b6802b5e3af16b188000084126200edd6576200ece97fec2c19a72c3a6ab45e714d801eda84b0c95a7e064bbc6bb3271b06a7820b46f460001b620128b3565b6200ed177f1c257ed60e2af6238b450518259e0f106dd0967a46ecac496c039601187a1c2460001b620128b3565b6200ed457fb6aaffcf4c7bcc557cf2ed6ad3f876cf75bd255d10ff34d178bd7d7f7a5f0fb660001b620128b3565b6802b5e3af16b1880000840393506200ed817ff8eec3bbbd428287f31a94ad611dd00d0f9748f2708fd03982c79876ce574aa260001b620128b3565b6200edaf7f1e0ead2001d2ca04f2d62894cb413c363c6439ef0ccd395e382ff694fd265ece60001b620128b3565b68056bc75e2d631000006808f00f760a4b2db55d8202816200edcd57fe5b0590506200ee05565b6200ee047fe6abce81b6afb00697fe33f1555b17ffdb185dcd3317f3fb8c751065296a9e9a60001b620128b3565b5b6200ee337f12efa59ad9f2fbcbd1c408558e411668bddbf24d96895216b736c8d5fbd0f43a60001b620128b3565b6200ee617f9745baf78ffa78b5ea76c3832102ad9f89c94001934f7883b968bbe6995f416c60001b620128b3565b68015af1d78b58c4000084126200ef8d576200eea07f7164f448c8a55596ae371fa4d01ed2d280113303a6193fba2b3ec230e7e1b00a60001b620128b3565b6200eece7f8f2f6885e0c02037769ef8a799a965a7974be536126ec579168ca6a70e8366bc60001b620128b3565b6200eefc7fc4513f37c3809539c0d7d5a706593c858ddd0a195c0ec1ad6f03bee00b117e1260001b620128b3565b68015af1d78b58c40000840393506200ef387fde4724845db98e8fca24d9fed5ecdf0511cf8584cf25f67c5adaef214a4b657060001b620128b3565b6200ef667f0edffcd09bf23e58a56b11d9fd2730c9460b188d757c6d690b11f6ee3434df2b60001b620128b3565b68056bc75e2d631000006806f5f17757889379378202816200ef8457fe5b0590506200efbc565b6200efbb7f3bf335665c831bc42885f4c4f5a661a0eaac6452974d4d89b0cad02e13f920a560001b620128b3565b5b6200efea7fdb32284aae92927243fbc87b40e9a91f56392b193b967b9b47fbece50af2557660001b620128b3565b6200f0187f5f319f332aed3a677c60e30196d9414f0b45002c13bc12fe47d9250806d3ab5560001b620128b3565b600068056bc75e2d6310000090506200f0547fd25adb26b09b92471ef07f7eb1f0dfabe151779c4086e71365cd60a1f054477e60001b620128b3565b6200f0827fae831f90c9720de4bd357c85aecc0a2ed7c793b1b64419318415f79b5b5ba24b60001b620128b3565b60006200f0b27f13a59d57fa9fb186a09cb13db0555db2580cc844bc4f56f4978fe6352eaf61f560001b620128b3565b6200f0e07fdc67a0744f97707e1516f99b7d97619305a844cff712ba8bb047d1862b833f2660001b620128b3565b8590506200f1117f42ed1c52f98c9efc709b1839d7381ae4f7e79682229488485a9e535e5db1c99a60001b620128b3565b6200f13f7f3f343d10c3ad56a07dcd790e36df3c48764b37f68fc46ef0667529c1428c09d660001b620128b3565b80820191506200f1727f40bfeded5813c9961de7ae74de50e8ebf99695523139bdeaac2ba16e99e9755960001b620128b3565b6200f1a07f546464d511b4dbd9e175112ed79738997adff96602e612d8628d4f78911888c260001b620128b3565b600268056bc75e2d63100000878302816200f1b757fe5b05816200f1c057fe5b0590506200f1f17f5df678d9a7a6ae9a9498ffe7f8d727ae4de909f0b296ab2d694b2d309d2b646f60001b620128b3565b6200f21f7f5174487126fc5f2fd6f0379d294212de03f7b2f5d0dd279b4edbfdfc3e19e2eb60001b620128b3565b80820191506200f2527fcf88976b65831ffe97b67b7b2ca013f7e5fdb847fbb93c7f2d7034533028158d60001b620128b3565b6200f27f7e0558671959e5134d01ab0f86ae54af18cdefa82c5fb5316710dc5ad95f5dcd60001b620128b3565b600368056bc75e2d63100000878302816200f29657fe5b05816200f29f57fe5b0590506200f2d07f1cd95f17c41cafe1b13deb79ac956b5f958ce3efa711ba409d193273f812258a60001b620128b3565b6200f2fe7fa34f0dfd30ef71733809d85683eee1009c10c65ec25271d7d9b2d272465c047e60001b620128b3565b80820191506200f3317f1426410cea942485931272d793a9f4ec5255c8d0f423ea227f721530107dde4b60001b620128b3565b6200f35f7f494659c81ab7e59032e61324f3c0073ae74295b96c9a247dc88db6f0cafcc6b060001b620128b3565b600468056bc75e2d63100000878302816200f37657fe5b05816200f37f57fe5b0590506200f3b07f1041f8d0ca0bec305764b0cda20df1fa1b5b048a7e4d966072f7c096b6a7ab0f60001b620128b3565b6200f3de7fec785b35d8c27ebae08ebd898671e3fb113ad53755b142943087d76b60f697cb60001b620128b3565b80820191506200f4117f32618ecd71d71820b399dceb4572c87b52fab009097cf45810bb2eb50972bf1160001b620128b3565b6200f43f7f0c66c9cf36dcb9b7b3c8bd2315072a1978dfb9d3f81b58aa453a4cdb819699e660001b620128b3565b600568056bc75e2d63100000878302816200f45657fe5b05816200f45f57fe5b0590506200f4907f9fdd370c6b7cc675c6255331f249c10f8918ffe39ec046f6eb76d53a947c9a0960001b620128b3565b6200f4be7f11c9697c0e03e81da28813ad061aa548447a4d8a9dc3b8c23d59b2d12d5d7d4460001b620128b3565b80820191506200f4f17f391db74f7749b7ae2ee31c87ebf9bbfd82d2346742d80e5fa635a77b6bf181cd60001b620128b3565b6200f51f7f1efa183081524998d6a056dc459be65c1b5e2c57e7156e7353f5c5a308de08fd60001b620128b3565b600668056bc75e2d63100000878302816200f53657fe5b05816200f53f57fe5b0590506200f5707f7c80225555c21862d2127c45852b5b7e867187f90d7b479093a80d558ff363a960001b620128b3565b6200f59e7f6bb4786a69207356caf0fd9ad4e477193225ae1222cc28eda8de5ded362a738860001b620128b3565b80820191506200f5d17f2bd95cc2b46a697fc9e6c3650198698b02cdc489924a9625765e7773ab16ae8860001b620128b3565b6200f5ff7f6d70ac07c1523999f0874733cef6a7fdeb1cbeb1b985e73e5c2ae45bb5fce47860001b620128b3565b600768056bc75e2d63100000878302816200f61657fe5b05816200f61f57fe5b0590506200f6507f68c21f169be444da9ef45fe470d73b9632c50037aa8aa519cb49b2403965c2eb60001b620128b3565b6200f67e7fb5368c2771a467a192bc432cf66ede3a2e75b42e30e5f6c8eaceca14ea142e1e60001b620128b3565b80820191506200f6b17f0b197c00940bc34711a5c1bcf9f390aa0fc31444c572dc0d0ac1e8c2b9c1e1e060001b620128b3565b6200f6df7fcc9a6a7838ea3873cd8cb7797d8acf9701ffb04aeec1db4c8f7bdfdfe7e2d3e960001b620128b3565b600868056bc75e2d63100000878302816200f6f657fe5b05816200f6ff57fe5b0590506200f7307f4ae223488edf92d1ef9df11b74835814de75ca75fb53a7c67a69c1f378d81ee260001b620128b3565b6200f75e7f40437cc0071d40a545118470633ee8498f6ba07249e95bd277d662c8c3910d0860001b620128b3565b80820191506200f7917f6a98bd98d5b6402216f6a26d5e5c6a0e49aa041cd602f0480a92757414fdd3b360001b620128b3565b6200f7bf7fd3d9002223246e6684f9b356dfa9d5c123bb45a59faf3a71c2d8509cd1b8aadb60001b620128b3565b600968056bc75e2d63100000878302816200f7d657fe5b05816200f7df57fe5b0590506200f8107f5915e3cc2f4da8323007d0f13b60cc72c7d692077501c6c0b751d92bee102cf460001b620128b3565b6200f83e7ff374d3c08292c299c854216de162077cf1e7e74d3e8d95785370cce4a8a54eba60001b620128b3565b80820191506200f8717fe551b770c0283b7957336a0413cfc5695d9a74be29735d8eec8935ba20731a5660001b620128b3565b6200f89f7f43e66eba524ad5a79985eb4b8c6d6fc7162bfbfdd871b9f070e97db31542f0cc60001b620128b3565b600a68056bc75e2d63100000878302816200f8b657fe5b05816200f8bf57fe5b0590506200f8f07fd8a9b2676287d5379b156d6247aeb5c2f0fd0ed55c29065726548ea6fffde56f60001b620128b3565b6200f91e7f7e808415cc1dbceed6d010c33f90e1223eeae1f554c79ec5cdffaa7d70f578ab60001b620128b3565b80820191506200f9507ec7b50af6579f36d212223599a7baf3371e84233a81a59f8730356090efe26260001b620128b3565b6200f97e7f057ce259ad07027680b845518d99ae02983046d284d711d975c4fd35edf89ca360001b620128b3565b600b68056bc75e2d63100000878302816200f99557fe5b05816200f99e57fe5b0590506200f9cf7fce223532276d9fabf2fe44c77bfba17b308e50a661a67b2752655cb8cb6552c960001b620128b3565b6200f9fd7f4dbc79d412cdba175117302a3d855398fccbefe1f2052184b32dd42523991c6660001b620128b3565b80820191506200fa307f55da710f8842795b5b2e959480ee14a0c4f9c3cfa812287cfa3af7316963641360001b620128b3565b6200fa5e7f805b231f29185d988c06992a4ddc8f42fa307198ac0ddf06216dabdf4e73bccd60001b620128b3565b600c68056bc75e2d63100000878302816200fa7557fe5b05816200fa7e57fe5b0590506200faaf7f5ba9d0c8bff42f59665649e0bd725b6ab0ab482566bd0ccdc0bb78ae418732e160001b620128b3565b6200fadd7ff197e464f40cbe1f523b743dc74861641e5b4609d6d4ac255f5887f9f27cb66560001b620128b3565b80820191506200fb107f94afe60d1248ac0a761f9e1237e351e82f9e7e83032f5e3866b4386013ebc91860001b620128b3565b6200fb3e7f2e2220c3917686fb99da58ec04c3d2e5d0e5fd28f75995041eb4ceeca24f73f460001b620128b3565b60648468056bc75e2d63100000848602816200fb5657fe5b0502816200fb6057fe5b059450505050505b919050565b60006200fb9d7f13e85309a3c4e59dbf5b75b3b728dd08fa116fc01de7442c0085dc762516eb7f60001b62003685565b6200fbcb7f3113c37fc8e14f87c3a67193669ebc6328c3af413d628b43f3dc41e66f0e15e460001b62003685565b6200fbf97f129c10e0a6a841f76936136ac0f8a8b49a60f9864c7e342ce18aea66de99f2a760001b62003685565b60006200fc0683620128b6565b90506200fc367faddd372079df646a9c000541b6b38a4faa19301f93e8f7596d20e3fdeaad8e3c60001b62003685565b6200fc647fabdd3813966d030170fba824bbeb404c94a62d4057828f28645d5802c460099460001b62003685565b655af3107a4000600082136200fc8357652d79883d200082036200fc8d565b652d79883d200082015b816200fc9557fe5b05915050919050565b60006200fcce7f8eab29ca65dcfd66bd1cc7db02b9503fcc93118b39f6295a02cb23db2e2eaec360001b6200c870565b6200fcfc7fc642fbc28494344f6bf493893a4934f345e31a6734193e9d9c2745c3beca97bc60001b6200c870565b6200fd2a7f587967a60b770f413e9c005120eeafc78af835d8c77d3e62a97e07290860e64260001b6200c870565b6200fd428260008562012b339092919063ffffffff16565b905092915050565b60006200fd7a7fba52d645803871927f16b2a582a74f7be58187f5a36b61e05c062c310850652860001b6200c870565b6200fda87f17c6753d128912d7c37d7ed74119c06ac5c37dc25eeda5c0da94c3fb20dcfb4060001b6200c870565b6200fdd67f10b50ed709b23705acc0de7336a27e095f1715bae5a9eb2170ad08ff1b4f25d060001b6200c870565b6200fdee8260168562012b339092919063ffffffff16565b905092915050565b60006200fe267f80fca6b64f7b0789847f8be52c02b4e1f759789d6b7cbe957f89feefde4fe88a60001b62002b7b565b6200fe547fc446b9f164092d39ac2524a6d2e73d0ccb1abd271deaf1757b7310ed4335dbdd60001b62002b7b565b6200fe827f22f429aedbaa0bb811444c55a4871d76ff331b3f6f543b5d11608339df4e388d60001b62002b7b565b46905090565b60006200feb87fb8ef8fb3252cad09ac399366f93440094d233b6df07cc0170de56767b26d5ffd60001b6200c876565b6200fee67fb7e5cc01d96a7bf140fee720e7eff786382458ab048db1b6cfa37a48a14ef22e60001b6200c876565b6200ff147fcf842935d2efaa91f2bdfaf37b17634319af00e7c49177f92f3f285ff13f386260001b6200c876565b6000623fffff8385901c60001c1690506200ff527f7c753d1a39c40fa93a0ae38a7ad65e4d6da78569ecde61a300330eff7c6e06dd60001b6200c876565b6200ff807f4d00d213b1ad6851865aa658494e7f47d6f2e2a239ee97ad772c6e12aca2501760001b6200c876565b621fffff81136200ff9257806200ff9a565b623fffff1981175b91505092915050565b60006200ffd37f9936610b4dfa760190e0dc43cd201291602dec265b21f8f43dd559cf0795d28d60001b6200c876565b620100017f32976e36f76c8ec61c93a470f36d48533be4f570d8f14e9d0d49b6420f19d7ea60001b6200c876565b6201002f7fe5ffaf62771b134ae0b87c7be66fd0708c0b5ab3f652b312cb5bc277ccc07a1860001b6200c876565b637fffffff8284901c60001c16905092915050565b6000620100747f659662513ad6b05fda3debb7f128f3214a2b8c827929a5b7f03250f71c1c2d8060001b6200c876565b620100a27fb0f92b45c819a3aaf43a1513a4728d9aa9052838e2f329392fad08214d08166c60001b6200c876565b620100d07fb8e8ef90fa68797f0082fb76bd81e1a010db74edad5507977f44286b46ff47f860001b6200c876565b6001808385901c60001c1614905092915050565b6000620101147f167f76072b59b8396fb004af8c55ada0b7d8bdaebdea72eab207d361f9a5df8260001b6200c876565b620101427f13c23a7ac058b159542919089f6cc146817e3c96626fb11562cf12c68ba2b48b60001b6200c876565b620101707f3cfa11b2639bb947230b102c867fbc4d4021c678e3cd88eb1731894fd38c997560001b6200c876565b67ffffffffffffffff8284901c60001c16905092915050565b50565b6060620101bc7fc090945ba1e2b94a1fe5357c3de568c90efe83faaac0d1b0fa125700ec793b3260001b62004945565b620101ea7f75dda90c65c80747ccf6503ab3a47cb873e2c689c96683d1f09d287814f8b29560001b62004945565b620102187fcefb6356c720af9c325481fd91c7fd405485488c68302488942be379e18d5fa960001b62004945565b6060600267ffffffffffffffff811180156201023357600080fd5b50604051908082528060200260200182016040528015620102635781602001602082028036833780820191505090505b509050620102937ef2b29519048f379bdcf5bbc53ff467b85468e395f842fb159c0459ddb0a46260001b62004945565b620102c17f590575d023dff48af74c8261752fd58a17ca98e7be06bcbda8181686eedd74e460001b62004945565b60008314156201035f57620102f97fb98dbdba7f21d3a80958fd2d548628b24ee3f4f7523ce4c7f4817c608e58b79660001b62004945565b620103277fe50d40745c027c09636c0654514ae25383548fb11b5baafbc0c65ce98022ce3860001b62004945565b620103557fae307b56e908d1c677adb90c1ec2fa9482f4d744034ba0ea4bbb070878af659460001b62004945565b80915050620104fa565b6201038d7fbe3d5898303237ad64d4517514a7bb58422b769169550acec3bcceeb41d8401a60001b62004945565b620103bb7fccf347bd2248ba330b37a59a4cee1fc0f3ea630b9ae1e42832fe93ace5ee261260001b62004945565b620103e97f59f1b99fd5829c23ce0913d7c7a0e209661ab6fe66a7e51cefcd73e1477c50d960001b62004945565b62010460877f0000000000000000000000000000000000000000000000000000000000000000815181106201041a57fe5b6020026020010151877f0000000000000000000000000000000000000000000000000000000000000000815181106201044f57fe5b602002602001015187878762012c47565b817f0000000000000000000000000000000000000000000000000000000000000000815181106201048d57fe5b602002602001018181525050620104c77f9d6a3b551f2af4a5d482d99d8da59c9bf19d9795bf0404a07f6d0e7f30558d4c60001b62004945565b620104f57f16a403f4b7e9dcc804ad1877f1489e534360394d0b453102f80c0e067452fb7860001b62004945565b809150505b95945050505050565b620105317f258e8fd420a722ff804d296080515c1f7c187ed9a81265ad05effb53ac22d4ec60001b62004945565b6201055f7f30e3a1107a446d853ca4463ee40217caa5c52d0b118c20d76247dd02516f35c360001b62004945565b6201058d7fd29ae249e21647a10670c28d3e6a00ca666f50a3a7a7da5dfde76aef25eeeca960001b62004945565b620105c6836000815181106201059f57fe5b602002602001015183600081518110620105b557fe5b60200260200101518363ffffffff16565b83600081518110620105d457fe5b6020026020010181815250506201060e7f46ebe2c71fd8471b66b94ed6f3adfc7277ceefb1ed1e01204c8ded7d030b7c6360001b62004945565b6201063c7f7cab8d6e5a17c2ce7675f034a12ba6ac06d20fb941655b58ecc750fbeed1cc2660001b62004945565b62010675836001815181106201064e57fe5b6020026020010151836001815181106201066457fe5b60200260200101518363ffffffff16565b836001815181106201068357fe5b602002602001018181525050505050565b60006060620106c67f25612c70705d6d7b7d6a41fedc1fe1f29a94c2922292a5a507a80aac5abe3b6660001b62004945565b620106f47fc47949d86a8fd4af9ea7352b9dfee370bb87b7a5a9f7fd9e1de975b28e8db75a60001b62004945565b620107227ff8696b5bf97ebaea1805eb2122ac03541fcf214608d4eb34d25bdebcbeb92e9860001b62004945565b60006201072f8462013076565b90506201075f7f38d4d90b70e906c96c69a20c5fb71721449e2fca710e7ae770a9f3faa768c52460001b62004945565b6201078d7fe9e6f56354f593d3c09d462a873cebde668d00c9deae978b448d721a7c617c1360001b62004945565b600060028111156201079b57fe5b816002811115620107a857fe5b14156201085157620107dd7f5395e6f42a334ef6ed6c256c09bcde8026eb01e653919615356fd0e6d08cf66e60001b62004945565b6201080b7f7ae06aad20d40a324646e310c086075117e5b92f726f2a14137f0c369fd53db760001b62004945565b620108397fbd46fb305755f29b2fc975615bdb77d59598504e1e36b10b1aed06756820b9aa60001b62004945565b620108468686866201311f565b925092505062010a0d565b6201087f7ff3bcde17817c202c90aa31b2311660b350dc451dea693999d7ecdcc70d34e2db60001b62004945565b620108ad7f3ed24483f19efe19ec477393b3cac2b3adf774c6081e3be8176b866cfbc4fca560001b62004945565b60016002811115620108bb57fe5b816002811115620108c857fe5b14156201097057620108fd7f8a240558142e1f20e617ec4da099324163c4cade362adbeb99f67d9f7cb97acd60001b62004945565b6201092b7fc6475e776cdcde6119b8b1b45573e353ebcbab8b9297e1a0baa0e115c5913d5960001b62004945565b620109597f61b91f155f4e59d37e86552cea7094354bdae8bab5e1dc5b9df47e781b52c76560001b62004945565b620109658685620134c2565b925092505062010a0d565b6201099e7f1d1de9a1789b760ce1caf91110b88bcac458779ab28431d2eeb2cc47f12bd99360001b62004945565b620109cc7f7b7637952bea9a5a6da12d8c87ed9187298d8028799a8969a4cff0a809aec23160001b62004945565b620109fa7f32e5a706a0e5ddd937dcdeed8dff2f39e093a7e17758c3cdace2c078c155b86060001b62004945565b62010a0786868662013640565b92509250505b935093915050565b600062010a457f053a16bb25b7c3bf0eb8f96a85bcffdc6a2c9f12ce0922647a643c9a9c7ae08860001b6200c873565b62010a737f08f7bdadec418eb26fbcfc2165d86275b5e1b8baaf5e6df141cb730471d896a060001b6200c873565b62010aa17f9f8aa221058747dd49bbdec7807bcf26373f39b6701b83701e7186c7bb8c730460001b6200c873565b62010ab26000831415600462006d16565b62010ae07f8210b270ac2bbe907255822195db451fc2c3934e1b448e9f4e004b7b06bc5df860001b6200c873565b62010b0e7f22179e65a7ffb69370e752759a0145dff2e7d7410f004b6fb9b3b778f46f93ea60001b6200c873565b81838162010b1857fe5b04905092915050565b50565b600062010b547f8ed153528fa9768c9004bdfc00da996ef63c4cc01ea5d2fcc35c8f857b069e2960001b62010b21565b62010b827fbb77a52cdb763c3e2ba11b36c021ba678ee84d282ba1495c69d3766d145356b060001b62010b21565b62010bb07f3369d605e13d4982db63364c8b9d453d914af668f01f959829a0fecd9c1f496960001b62010b21565b62010bc660ea836200fe8890919063ffffffff16565b9050919050565b600062010bfd7f05ff2c1e6e96fae32a5d5b6a70e886f34a7807214ef13f5282aca78638d1cd0860001b62010b21565b62010c2b7f654e2929ee9ec55ba9df30eb2f2d2e8e8a5cb0888cd6fc8e720b305d2ae950b960001b62010b21565b62010c597f5f3e3a182afb4d8fcf872654ff33275af21371665ba84f564d341ebb71f167dd60001b62010b21565b62010c6f60b583620139ce90919063ffffffff16565b9050919050565b600062010ca67fc5eea0fdac116fd8da2bfdf698b8f31cf859ab951237668b1978a9881ca0d02460001b62010b21565b62010cd47f025185ce18753362297547b5510270331d68fd3f890ae93eefd760747690561360001b62010b21565b62010d027fe73c4d305d2091c66e2951d3ca6117a57dd41f9a9e11ed906b957383ebc123c660001b62010b21565b62010d18609f836200fe8890919063ffffffff16565b9050919050565b600062010d4f7f9dfe86c69da653f2d99fcd8b0637b732f9f93093e78b9efaa9134a6833b6dd9460001b62010b21565b62010d7d7f216f668420e58b0df420f3bf3f04249ea728b94bf9aaa82be5d34094e85b3a8d60001b62010b21565b62010dab7f996abce40b86e0fa6229189d0b92801a16cc3c0cac71d6448ed12ea3b9ea0d0b60001b62010b21565b62010dc1606a83620139ce90919063ffffffff16565b9050919050565b600062010df87f43fa442e0207c485262f1383b1fe877e7edd97c2b5cd8d801d37138263383ec960001b62010b21565b62010e267f1bd41df5c67eb34c3b1030704e26d13d1203424471ed41b88e0e0bcb83221a7d60001b62010b21565b62010e547faa165b2ce79a7ee7a4c81bb7aff5e51504badbfad1662f7a7dc97b29aa0c03d960001b62010b21565b62010e6a6054836200fe8890919063ffffffff16565b9050919050565b600062010ea17f4a0878a2d0cd01a58f9316c456c45eef1b328dd263d66b8ee3f4a2dc54ca78a360001b62010b21565b62010ecf7f8228b952996223d32fa05964b0bf277bff72242c7bcdea2e3e55971816b2dae060001b62010b21565b62010efd7f1d32c05cf509caa303776e5783d478735960841e1c2b3c6811fd0db9951f7cf660001b62010b21565b62010f13601f83620139ce90919063ffffffff16565b9050919050565b6000606062010f4c7fe2f242becbf1f26527f086ae72255754f33b67d965a09b40110960f9bae4b46060001b62004945565b62010f7a7fe591e2bf5654232c48e3dabc260ac45e88a2f1cd27d13b7649416f739c8b782c60001b62004945565b62010fa87f1af3a0de3c343c9f2f77f1e0875bf521fa7391c05c0715a395d93926778e05a960001b62004945565b600062010fb58462012570565b905062010fe57f128b46f606afccf3ea4060d36d447f2db994b1eb7c98913241d42140a1a320e060001b62004945565b620110137f751032965f1ef1196aa09ed332e7d20d984db375bcb819333049a15499e2a34d60001b62004945565b600160028111156201102157fe5b8160028111156201102e57fe5b1415620110d757620110637f358dfdab54fd6f09d4053b28101300612642dd41b550477b5e46ac87a36c5c3560001b62004945565b620110917fbc6894938c46ffcd95d28839560fa60b3a01b9a32193f1f6386bff9f1413168460001b62004945565b620110bf7f16a23b70202b4206842e041802e35e6f81ed26175ab38cbcf0b30e39bba0f89e60001b62004945565b620110cc86868662013af5565b92509250506201128f565b620111057f77cabc7d5bbce3c496c61f848a27ba6c35ce89bb7f05bd5133e164b3995bdbfe60001b62004945565b620111337f253a653cd8d905f49ab9d125ae8921678e673d3221c04f24609a371974a4a73d60001b62004945565b6002808111156201114057fe5b8160028111156201114d57fe5b1415620111f657620111827fd73cefef49ffb3d46bf34e6289f58cc679110c5b0bed1a737b2214ff59a4155b60001b62004945565b620111b07fc4d7762fb6a5bb9b92ef5e54ecbd96b24689c93ee02b06ea6958c4bbe5e8339e60001b62004945565b620111de7f364271ea3741093742d06326db61e4a33e2dcb3536dcbbb1127b03462860d42460001b62004945565b620111eb86868662013dc1565b92509250506201128f565b620112247fb464baa5baef94f4d07fb69a35f047f540d730559d18e64ea4c696c1c2f7d51660001b62004945565b620112527fdc4496f7b8a9687552fec228b2ae04560284222f71efead7bfdcc9bdc29ce97c60001b62004945565b620112807f797d960e58a34ca25760b04353dcf4587e9efa65014b90a4321093414806a55560001b62004945565b6201128d6101366200cc04565b505b935093915050565b6000620112c77f6b01f36c18c79940b9baa1ea7627e3c10a23e324a38396be9a253583363aeb3560001b6200c873565b620112f57fb9ac893588a5a801e4698bd76575ede4d5838fc56498d0cf6c1a0dd159f20be960001b6200c873565b620113237f129ba58c31ad62f76bce8051d617e8f5e7ca5f956b83b84c7cfca80f6170196c60001b6200c873565b620113346000831415600462006d16565b620113627f8797abb6ec34e73bc681d07d467829ddfef5a3412b3ea4dc629fe993ab7153ec60001b6200c873565b620113907f7144f0b5796c5168aa587bd2d2cb2beaadb3f41d05983b435a381bdf8e8ca5e460001b6200c873565b60008314156201142e57620113c87f90e9dc5e222294ab0e40e698afbff89ab7912401779b3705db127706a25a279460001b6200c873565b620113f67fe70441edfaf6261218ccec5b4c00017fd4be0ce2024744a784e9703b2eb5921c60001b6200c873565b620114247fbc398dea8e073f5dc774615f3f686fa5c2d14965232aab5bca0d46cc7abe05e260001b6200c873565b60009050620114cc565b6201145c7f790584e95c50fd3f26581fb60ee3d72efde1b8545345dbe5c80231d1ea31127460001b6200c873565b6201148a7f8098282080dc3f0f12a01b1890ba22d8cee5477cce28c89c0029d16c132ee2b160001b6200c873565b620114b87f05fcb8070bd589808c64e227360faac4ead6e092128766d5693bd170c16ff4bd60001b6200c873565b816001840381620114c557fe5b0460010190505b92915050565b6000620115027f2e394b57a7df492edb28b5a6e75a21530e257c955d91b82163a212882fd13a7e60001b62003685565b620115307ff9a625ccfe4bd668d6784d47c35c81f970c64662a13856d2aa3b04b0a498429e60001b62003685565b6201155e7fabea28fe95313d31b22fa656beb1f8a16d52e671893fc6e58254aa8e06ac818860001b62003685565b60006201159d6201157985856200b53190919063ffffffff16565b6201158e88886200b53190919063ffffffff16565b6200b53190919063ffffffff16565b9050620115cd7f8d3984fa3e633339323b945cafbeb5e765fc076cd7ad39e4a5c7fa7a7a261c1a60001b62003685565b620115fb7f25ef556e09ed6043797e953382a1a6d43f7818e40c4459096f9a608224d7394460001b62003685565b62011606816200fb6d565b915050949350505050565b6000620116417f2c4afba4ab29214eea3a9b37d45c12156806346264998a8f37c3a9c994e3266e60001b62003685565b6201166f7f4eec11eb3057efdb9709ed2a6ba83c21fb8e94692cfec991d07c8d203e87e4d360001b62003685565b6201169d7f6e15e2b3ebad22f191cf01df84104d04f2ad2c1f2719a8b462d063661283e56d60001b62003685565b6000620116be620116b886866200b53190919063ffffffff16565b6200fb6d565b9050620116ee7ffb2b9307b039c5bcd5b1a6bb8a0559befe5c2cd54973ab4789d89c0ef78a3af460001b62003685565b6201171c7f0f9c259ce5a72e8c56292e95add4f7713b958f04e52b1a32ff557111fdfafd3c60001b62003685565b8281039150509392505050565b6000620117597f6b2baf19b6beb92e963ac71798ac205832a07d6d4f97956a06dd98b8d4cec04b60001b62005d71565b620117877feea61bbdd6f077939840619d007eb805ba5ff1aba59a818d2d4c63dfcb316f0860001b62005d71565b620117b57f6284dc0a37eceb047588fcbf31a4ddbfcbdc3f142f15c5f97ca05b8620e6734960001b62005d71565b6000620117dc85858542620117ca8b62009335565b620140a290949392919063ffffffff16565b90506201180c7f45e66c62334a260d14090c7026f27e0ac134a637d42cc7b5191a28d5fa21de7f60001b62005d71565b6201183a7f7a3403f224b75e3ca0934870530f76b8914eb91c0b6e7d803c09bd67172efe9360001b62005d71565b6000607888420310159050620118737f3ee0bcf438747ba85cacb8f2d48f86e2cddbe319308dd578672de84895ff3bb660001b62005d71565b620118a17f6419351ad270bea87ac09a5fbb174b25166e56c5e3dea1799a10b6521253c47460001b62005d71565b80620118ae5786620118ba565b620118b9876200d325565b5b9650620118ea7f3453df95cfef3a8297a9400557a68291cc5716ce53660746c80fbf6a1b20b22c60001b62005d71565b620119187f1c1b9910789cf01fa2f4782018eb58de1d8f865222ef79f88e72784f0639ac6c60001b62005d71565b8160076000898152602001908152602001600020819055506201195e7f2fb0f1f9c8503db5b11aa21fbf17e19d3c1ec127da9ef7b48b76a15181c385cf60001b62005d71565b6201198c7f7992c10b52b47450aed68da15ab79e2c23cf723d285ec1bfc82b5570e80ee22860001b62005d71565b869250505095945050505050565b6000620119ca7f4ac46047b31877e1a57f129e7c1253032cef3241d90e066bb1505da44285348460001b6200c870565b620119f87f9cbbc951a275c1e60fa8ed5cc1a563d5cfcbe7e2161df99a0d09165d51917f8c60001b6200c870565b62011a267f7ecf36ece2c7845d8cc3d074a61cc7ad2bd82836e20feeb1851d3f2f1a96ade360001b6200c870565b62011a3e82604b85620143089092919063ffffffff16565b905092915050565b600062011a767f8e1e219444f63e3ffbc5c903dd17d81d9ee7d60b90b3dbd12852a8b70194bac860001b6200c870565b62011aa47f8a789f174996b77a03b8f429d3aa8ca5af8007bfedd3679ad04e34eea94a69c260001b6200c870565b62011ad27fe1b196279b2c6a511dec63b1afff6f9820c33c6637e1f29c2503780cfa2fce4560001b6200c870565b62011aea82602c85620144169092919063ffffffff16565b905092915050565b600062011b227f4211931e53dd15d5f897358d82ab0fd12e76b5c478dd0438b1e10519dfee0f9660001b62005cd3565b62011b507f5ebef029f0eac4f3aeeca3049b4192cd27e1572d6b0f48d102d52206ed69de8c60001b62005cd3565b62011b7e7f333f6b640845dc58df153a7615e777c531335d428b14c1609d7ba09618330b5a60001b62005cd3565b62011bab62011b9f670429d069189e000088620123e490919063ffffffff16565b83111561013062006d16565b62011bd97fa18a10d329069c426b5cdb7d12b6a70790de42ecc3053a53cf7ecaf7920915c760001b62005cd3565b62011c077f142b7bf7bff9da4914c7811734f2598ce98b4206ecbad023f3df8d25aebaa2a060001b62005cd3565b600062011c1e838862005e0990919063ffffffff16565b905062011c4e7faec089ddffa2507bd9dd723d3f2d052405c6132327400fb541a17d415a756feb60001b62005cd3565b62011c7c7f99c782e62b11188512a447127b00612b317ee8d79c045b19979f22c04cdb89ce60001b62005cd3565b600062011c9382896200b53190919063ffffffff16565b905062011cc37fe16505b34c18fec6250708757a135ab4f3ab127dd2cbccc6a6f174ffe48a5c9660001b62005cd3565b62011cf17f45f00bff718266a1c0ad616851d3c95ab308130442379de10ab68843ac5a740a60001b62005cd3565b600062011d0886896200987990919063ffffffff16565b905062011d387f4c16600f3c06f8e33e216b56ac9a15d415c3437fb83788bd72bc4795381ecbbf60001b62005cd3565b62011d667f06562af00d3e7ade5d515cf3dd6a62ff58880ace6fd19a6441de2fc9f4cbfdb860001b62005cd3565b600062011d7d82846201452690919063ffffffff16565b905062011dad7f74fd45c4989ffd4a093a27e6f3a1e8e4babd0cf3c27f3e66cfe94fc392e2f3ef60001b62005cd3565b62011ddb7f5fd457e7a563f794012ac48b872cf45f243e2ff97bdd4cb810d0d29e8f62fee060001b62005cd3565b62011dfa62011dea826200b47a565b89620123e490919063ffffffff16565b94505050505095945050505050565b600062011e397fe5979ab3fa4ac08751180123eedbc301dc75213bf320a978fa28fbcbedec092260001b62005cd3565b62011e677f98fa8f0abf1a7064cc8461988f63078342977c155d12e2c493a8b52f1ee3c43860001b62005cd3565b62011e957f14a2bd556b94c372fff7074e6d6b1b23711f8521c15bf95883be36ee0b39c08160001b62005cd3565b62011ec262011eb6670429d069189e000086620123e490919063ffffffff16565b83111561013162006d16565b62011ef07f62583057b60955e5a2a234c80e24945d37fcddfa215c4869795dbeaa3e4683b060001b62005cd3565b62011f1e7fd8ad07db81598d25362e52c35cdb0018f942a43f066af13214eaca7e4757031b60001b62005cd3565b600062011f4962011f3984876200b08190919063ffffffff16565b866200b53190919063ffffffff16565b905062011f797ff0e1f09a382e022c7ac262b040d951153f0f899692c142652b618feb06ee193260001b62005cd3565b62011fa77f4715310273f188ffa3eaedcb5e2dd6058e63795875466256d02d63e3bb6dd6e660001b62005cd3565b600062011fbe87866200b53190919063ffffffff16565b905062011fee7f263dca47687c4f87b89f4bafd5ad9a1157e57a9e3f513e371b09b52d6680f3ab60001b62005cd3565b6201201c7f8a0e3e68ea9757b0a0cc429a384229c26aec9b6310a239208bd0199238d5674860001b62005cd3565b60006201203382846201452690919063ffffffff16565b9050620120637f8d038c404be8a4409562b06392f0b886eaa5e600415b1cae839eae403853754460001b62005cd3565b620120917f96687e78c30d6bbc694d40371fe4dba1c92e6f16f21863f160a23c6e2db3171d60001b62005cd3565b6000620120b0670de0b6b3a7640000836200b08190919063ffffffff16565b9050620120e07fa35a0c1d73d6a675ea41200b3aed4c7ac09704ed29009415766aad67a604c4c160001b62005cd3565b6201210e7f14ed76c05a47fe265c34334b99ba9b3725117d270db8df864b140d8f3f3e5b3060001b62005cd3565b62012123818b6200adc590919063ffffffff16565b94505050505095945050505050565b6000620121627f0e0ee3284bd5903c815044bcbf0ed6cf75d952a77c522ebde3e0ad91277e171b60001b6200c86d565b620121907f55bc9937e62774a3667931efde97bf6772e9de186e355f5caee4c8e3087b724c60001b6200c86d565b620121be7f0417d5ce2ab7e850f8042fc37636f4691b9335e37d3f30769449ad4a2a9a8f9960001b6200c86d565b6000620121cc8484620146ae565b9050620121fc7f1529b80d2b0a4eac949b3ce095e8c13e908c2586c09214f096e0005d72a6f66760001b6200c86d565b6201222a7f82f83870dc6d027e3cef4996a38414088854cb340b7f19d86a5904becffee65860001b6200c86d565b6000620122466201223e836127106200adc5565b600162005e09565b9050620122767fae675fae313179417d046ac8e1d8fb1fbac0e9a6d2afa70d73b2430e8723bc2360001b6200c86d565b620122a47f4a084fc6f5a0d58fb51443a68a6657a238cd0bbfaabad84b1a4f51015041101960001b6200c86d565b808210156201234357620122db7fde43b16777832eda33999394cace4e9a7df4a6c2dccf18d94085ffbde1e565eb60001b6200c86d565b620123097ff0bd73507d0060d8c052358c7d57a5e9c9b77e23158a65148b8431374729fcae60001b6200c86d565b620123377f30672f61c01d399973740410f9cddd7d0b1f57269700dade8c0cfa952cc37b1c60001b6200c86d565b600092505050620123de565b620123717f37712ba03809199cd51ad1653892d35c8f54c092a31bae3b9a8373a49f084cce60001b6200c86d565b6201239f7f01b363bab51dc167259a08619d2989a39e222a123288cec0986e03fc4dbe4d6460001b6200c86d565b620123cd7fdb94e8f43b97f5ce1ecc72ab3f783d0d050ae4c0afea87379818aa345d41108a60001b6200c86d565b620123d982826200b081565b925050505b92915050565b6000620124147fed5730d97338cc99ec7ced602749e69fad452b233ce5af1bbc10319879372caa60001b6200c86d565b620124427f8f6916668b49b644d98f771f124b5a32bd9897d7ebe53b3c38ade6a71e84085760001b6200c86d565b620124707fe14f128dd52a43628a9bba7b0a6f33bfc1a4220802b917ba737266f9dcbfa49c60001b6200c86d565b60008284029050620124a57f46dbb44b8cf04ee6e61d614d79ce70c1a85cc911b0197fa4ddce642a38fa5fc460001b6200c86d565b620124d37feefba6c3b698f9572b5bf37de3ea9769c52c377600e5b34f929c993e75aa62d460001b6200c86d565b620124f86000851480620124f0575083858381620124ed57fe5b04145b600362006d16565b620125267f38f54c5617f008a16f1f038a9a8bdf61cc1319b326250c056a5f9064eacdca5460001b6200c86d565b620125547f7a48fe0d9a13c1bc8e2332965b60872b1e28e7883785e9895a3ba40dfcccd1c360001b6200c86d565b670de0b6b3a764000081816201256657fe5b0491505092915050565b6000620125a07f7c2fb4e3e85bf90f24f6e29c66cfeb0abfaf99f62a6a7a7b42a7f9bd47465c1560001b62014f6e565b620125ce7fc157579a0cc95327ccaaa90d9fe5668598e9d05eb26c5aa3175ab01296b5bf2760001b62014f6e565b620125fc7f45df167d228daead0ce99cea3e54dada1c0e2a58a87af39946efb701a9d50e5960001b62014f6e565b818060200190518101906201261291906201aa4f565b9050919050565b6060620126497f4afcb6ee3b9f87d0bdf0a49d47bdbdd21e0a241dc7189b88ed794d715a660a6f60001b62014f6e565b620126777f235ce3e22eda81257d0a43ba9a7090fbe3e522c6af01904ba52909cb60dc453e60001b62014f6e565b620126a57fb43114925ecd4b54675dc2d31041b7de3db0d03f1d906e8caa1dbce61088299a60001b62014f6e565b81806020019051810190620126bb91906201aa7b565b905080915050919050565b6000620126f67f2f28154407be259a8b5ae1d92482cab9e8b2cdf23ad42d39bdbf1d9e9d4d1da660001b62002486565b620127247fde8d3b10f894bd9ae4ae64549cc687fcc587ef70996d382abfdd4adfaf29623360001b62002486565b620127527f4b3c49ee92a6d8c0dfa4ba1fab76a8a0dd5b81608cea4bb36153a96445e268fb60001b62002486565b620127646338e9922e60e01b620035a7565b82149050919050565b50565b6000620127a07f24d34eabc28a20f006bbbed2ba9d204b6e78db6e17eb71d62622c3150a1e1dbd60001b6201276d565b620127ce7fa286b2824fb1e0dc255216b1700213e1893e7b2afd5052929268f6d5d1427b1360001b6201276d565b620127fc7f0d2c97cccae692957e303796eaa878fc92384309852a722f59d6c44c6499874160001b6201276d565b610400828401816201280a57fe5b06905092915050565b6000620128437f5a6319e2e8ab40e0ce0f5f662cfd235cf1056cc09f9b827d81848b955339edb960001b6201276d565b620128717fdfeaf9e7403ba85c23876b88b040f810de42d79432fbeddb39a9f0dd1e3e7a7860001b6201276d565b6201289f7f64a60f85150f6f782ae2f5c5400d66709fc84eb2ea8e6f71e7227757b388196260001b6201276d565b620128ac82600162014f71565b9050919050565b50565b6000620128e67f14744dad7d8efed05c31e96137bf75a5d9bd036c7d2f131777525a0c45a7122a60001b620128b3565b620129147f7851c72457bd812225485c3953884296ec8b92b3a3d312d62a04b53020d5fb2960001b620128b3565b620129427f951a1ba63a34dcc131927d915d229a585cebd03d647b2e53245ebd669feff9d260001b620128b3565b6201295260008313606462006d16565b620129807f7764c47391d7fd1f0fdd77277e2b1baa6fa1859059509d02d231cc3a7dda032360001b620128b3565b620129ae7f82caf4c81d661ca1f4917e20bb95d88c5a685d7005211203c83b45a2d82b69fc60001b620128b3565b8167016345785d8a0000670de0b6b3a764000003128015620129e1575067016345785d8a0000670de0b6b3a76400000182125b1562012a965762012a157f580eaba956b40648425d9ea2c72fd6e3dee68e9b9d1646e2a24709db8e133cc460001b620128b3565b62012a437ffa161572d1871eeedfbdd707ccbba141e82c522e8117c7d4e6c682e93f9a10aa60001b620128b3565b62012a717f72ee5e64e8090e53d009770b8d5eeb5c1627ad00f019c9ff5b7ad0a723efabb760001b620128b3565b670de0b6b3a764000062012a858362015018565b8162012a8d57fe5b05905062012b2e565b62012ac47f11d8f7be54107265ee2368496f87ed0417a2d14c1aa31faeaaa8c3cbc6d28b3860001b620128b3565b62012af27f3a8e0f378f4c522d6531f295bc4d56d1633449ace669d038c016d5d26ae8156b60001b620128b3565b62012b207f6a85be8674dba544ad6bdb3715c71f584a28889f1ed36b71d25b15d84c4b90e960001b620128b3565b62012b2b8262015933565b90505b919050565b600062012b637fa28825548a828fe35216028f0ddd74d303a1c7ac004c1c656c091a3a0a95e51160001b6200c876565b62012b917fb13135fe9de4491d6781fec586fa93375311b7d265fe83852f93ae199d031fa460001b6200c876565b62012bbf7f218c81d31491c752520be44208de5500cb7a97c728b11f109546dd92866494af60001b6200c876565b600082623fffff901b198560001c1660001b905062012c017fae141260aff5613d171c168d0e54c20d8001c0d64ffda552bbdf71e39e383dc160001b6200c876565b62012c2f7fb36d44b1c72d00fe27c87119633e261f2b2acf6240e2b00b086794d86d782d2360001b6200c876565b82623fffff8516901b60001b81179150509392505050565b600062012c777fb36bff3800238b2fc1b2a413dac34942d1246e80c776d530465c40bb0df68c7160001b62005cd3565b62012ca57fffffed503c9e9676a19ab00fbc0422bf576a1211f7be0e4d2c3d62eef0e43c2460001b62005cd3565b62012cd37fea48ac686b937531b3742db9ff78b06c1099c44a4b1575e6050bd653f886b8c060001b62005cd3565b83831162012d6f5762012d097ff2c96e80d5e1be6317f45f1bb1b549143a9cb259be2c78bfd9103f540493011460001b62005cd3565b62012d377fce780ed8643ac88b2b8c2c3a5f004d0821a8e91d5a7190cc987c762dbaaa79ff60001b62005cd3565b62012d657fed09ea58c6452b8f260fc28197fa41cdee7b28f5437d4722502b61812630e14d60001b62005cd3565b600090506201306d565b62012d9d7fdc69cade8ad310ab4c6cdfb62b5580b36cfa164c1434d9088561f634cd4ffe6b60001b62005cd3565b62012dcb7f4830f3192332f89c4d126a0332638613728d2b2ece39e25d8ef7e6293aeb5c9a60001b62005cd3565b62012df97fd8f6a03331b14a90b7eed30399d975d7d02f69b7398b1ea6cbf794d5f5c2611660001b62005cd3565b600062012e1084866200b53190919063ffffffff16565b905062012e407f2c4f1c1d67ad93756483d595ec1d54cf7052307f70882177a2b1b17acfbda28860001b62005cd3565b62012e6e7fbd834a923ad54062d27b09639080e50b86bcf336d0cd5d463beb18b1bb8a1c0a60001b62005cd3565b600062012e8d87670de0b6b3a76400006200987990919063ffffffff16565b905062012ebd7f6d57c93444d3cc48a988eb582636cc8ed78b681ae90e68cdf3322d89c108d17260001b62005cd3565b62012eeb7fbb8c05e3f2ce03795463ea7ad7109e6a0f9ac29285e269a99c634ee0c8ff200960001b62005cd3565b62012eff826709b6e64a8ec6000062017791565b915062012f2f7f4b042dd04983b6e5fcc3fdfd3d0aaac5cbdd9c1f980886fdff744a46f6d6b22f60001b62005cd3565b62012f5d7f40a560eb6ed9f3dbbb7fe274d784c1ed1216e3179b6c7d2655cfa520f368667560001b62005cd3565b600062012f7482846201452690919063ffffffff16565b905062012fa47fcf622c1d8a7236682cd0eabd23291439b6114cb72ca4524e74ccd4ab29f20fa260001b62005cd3565b62012fd27f09118c8da00012d9c1cf85bed271ae32ca317745e75cc21983cf5953542d1bf160001b62005cd3565b600062012ff362012fe3836200b47a565b8b620123e490919063ffffffff16565b9050620130237f0bd60f7a724e93ba76202e9b52d14b766a8cfe4cb8de8be5ec7041869619ecb660001b62005cd3565b620130517f053f84c520825bb0db10ec016d511fe6cb504337c9bea5156770f4c3e1379f6a60001b62005cd3565b620130668682620123e490919063ffffffff16565b9450505050505b95945050505050565b6000620130a67fc48291d94bb86aec5727bdb72c3311c2ecd95c6696055e00f918c685934ff1c860001b62014f6e565b620130d47f7e14606ac16f3ab0c95d0f9ee26585b31515b59f129903146b863ff132a5aca460001b62014f6e565b620131027fbb79199843aa1098506e7ab1d69665e01b7b437cf22e9d88fd9002c8ccdf02b160001b62014f6e565b818060200190518101906201311891906201a91d565b9050919050565b60006060620131517fe43977ecc8fc383612deaa526481dd12c217dc617de9653c2d929fdaaf26417960001b62005cd0565b6201317f7f23d99ded7a08dddac8712dd43904487faa99a77a20c382b416002f037975d3e860001b62005cd0565b620131ad7f7c269407bd44c42660349a4c6a311bc95a370fcb345ea3b6070a5c5f1006dbde60001b62005cd0565b620131b762007bf9565b620131e57f215733b8cd9af718b2d564e08e0d1743cce1a0f8416572ea9a1f99dafc713b0260001b62005cd0565b620132137f241aad965d2c79ac6c4a88b6aeb123f215a2301defac79317dcd6ed078b8c92a60001b62004945565b620132417f04d3c3118d2d13f6e5aacb65aaa939620249c131cf563f10a00cb18c801cb0cd60001b62004945565b6201326f7f21710f2878f738e3f3c7096811c7a3e97820a64c2702561a63e2946be677965560001b62004945565b6000806201327d8562017837565b91509150620132af7fd39a1d8835c7fb276bab5406467a4d6309c94e94968014b985c6e536b861eff960001b62004945565b620132dd7f9c6b8953c4382de51688fbcea7bc26420b1b92556536d0f5706bcb0e8848cbdf60001b62004945565b620132ed60028210606462006d16565b6201331b7ffefdf3b5043f1c05c15888b721a3f325bd806a8ac19ac62dcd74247ddb5b9cf660001b62004945565b620133497f309f8332ee07fa92d55f41d8fd5a55d76055adac1183f55b730e565f89186f2560001b62004945565b6060600267ffffffffffffffff811180156201336457600080fd5b50604051908082528060200260200182016040528015620133945781602001602082028036833780820191505090505b509050620133c57f449046204b98c9da7645151cbf66de324c77f97a98d29d1204b3793765a051a660001b62004945565b620133f37f2480b10d6cbb683715721e7838df332ce77b4bd182d21f9c24cd42c30a579a7960001b62004945565b6201343c8883815181106201340457fe5b60200260200101518884815181106201341957fe5b6020026020010151856201342c62000edc565b62013436620023e8565b620178ea565b8183815181106201344957fe5b602002602001018181525050620134837fd1373726b30637937f39cd19bffe2b935d1eb778230f59b0dcf10c128475628e60001b62004945565b620134b17fd285d52020ecdabb436547ca0648293e7712a8ff21d84543afc42e6049f62d0760001b62004945565b828194509450505050935093915050565b60006060620134f47fd09263c36714fa359aaf8bb4ce03f683ca4fd10e8cbeaee81a2df6701a98a1cb60001b62004945565b620135227f58e300da515f18a89f72148350aab22036efd46498eaa8a36dfd54f6fa1f0a1860001b62004945565b620135507f21c3d0e2ed903bbdb3878c68b5e8e7f1134ec0ce3507efb2d61ac87efb3b8ec460001b62004945565b60006201355d8462017d1d565b90506201358d7f3ec1263842168cfcece66a1b6d45c9d8abc8608b69a4d788875aaa6ec7f2287c60001b62004945565b620135bb7f7baae2fe74946389596bead89dcc236e3afc08ff52e4262f5a1b361a3831015d60001b62004945565b6060620135d38683620135cd62000edc565b62017dca565b9050620136037f1bb16977dadaf4020c6e2c40d9289b56d38c104abfa1efd0d430ca2460246f9660001b62004945565b620136317f6b5450ab6d618821da29f40e88f738e33c68f25f04f028729b79dab0e11aa6a360001b62004945565b81819350935050509250929050565b60006060620136727fe43977ecc8fc383612deaa526481dd12c217dc617de9653c2d929fdaaf26417960001b62005cd0565b620136a07f23d99ded7a08dddac8712dd43904487faa99a77a20c382b416002f037975d3e860001b62005cd0565b620136ce7f7c269407bd44c42660349a4c6a311bc95a370fcb345ea3b6070a5c5f1006dbde60001b62005cd0565b620136d862007bf9565b620137067f215733b8cd9af718b2d564e08e0d1743cce1a0f8416572ea9a1f99dafc713b0260001b62005cd0565b620137347f20f820ab00b44908a386066bff479aff4ddf81307d9ed27a54b62ca7efbc54b960001b62004945565b620137627f80001cef43a60009799cd739606a51dbb981b40983031eb9908eb8550e2bd72f60001b62004945565b620137907ff056bdd531c12a0ef7d7c6b649acd5e615e03a8b2ece8a8d03a8f2d25ea3bc8d60001b62004945565b606060006201379f8562018097565b91509150620137d17fc20f27f7dc6e764071d84e6f7bb4dfbe39f3d97bdb9d153bf236627a4257528b60001b62004945565b620137ff7fe70d0729118156221e2ffb4591736306b4194dc31dd8a3c459a6ddec90c03adc60001b62004945565b6201380d8251600262008742565b6201383b7f924f2fffcbad338dff140f6e7d3733e10cfe7208382cd5797a201602bdb8699560001b62004945565b620138697f70d05798d1ff4d409848fdea21f8b8e1259e59c0c5c9380f8a6b43c2b8e779bc60001b62004945565b620138748262009b97565b620138a27feac81af2cf412dcab407dda5676e1300897a09286f4188219e1791bb6a879b2260001b62004945565b620138d07f1fb56dc6110d77e4e91a4d863179a57171be9a0b6b8bb39196474abf038c512a60001b62004945565b6000620138f3888885620138e362000edc565b620138ed620023e8565b6201814b565b9050620139237f853218f28b3543e0f87d66c04ed56b193db1750995aa57083ca74b7a97c2a2ee60001b62004945565b620139517fdaafe2c041801ed68ec5152fc92fff53c56ca7af521f76a5d646cf3368673c5860001b62004945565b620139618282111560cf62006d16565b6201398f7fcebb9dd608e4086a7d8a430959b69b2988c1b20253a0f6b8ba3b3dbb61e6042560001b62004945565b620139bd7f95b161cfde3adfa5a8826feebca019c1d58ef343f5b4ce62ac32db020c82faaf60001b62004945565b808394509450505050935093915050565b6000620139fe7fed7f70226a439f77e15b8697ea2fab255dd72aab1df8ebcaacaec174f0ac470e60001b6200c876565b62013a2c7fe1b3cf950de3f9c0a0a0a0403256fc839e91379d202c25e484e9e4708b38097760001b6200c876565b62013a5a7f9d824ca7f3f3b3214a00bc63d0dfc15b3612c3463c11b7778c7f9a0810d1b4c360001b6200c876565b6000661fffffffffffff8385901c60001c16905062013a9c7f65c235ba4eb564702527d802569096c628b144a6cbdc538f9750aa17b8fafe1f60001b6200c876565b62013aca7fec190432853f6f819d3c0a490a38c25de5a141b5452fe99df311e0d54604078f60001b6200c876565b660fffffffffffff811362013ae0578062013aec565b661fffffffffffff1981175b91505092915050565b6000606062013b277f3be1975b087b8f4e22a8aa6e7833f304ac0a41c0dc408d8a4db0219fe0395fcb60001b62004945565b62013b557f86db6bbebb40ecac911bb83d7c33bf2e6d145234a3eaacbe1faf61ff0a5b1da760001b62004945565b62013b837f45d754200b22e5bcb921568c993e8572af1b40a7f74ad02bd1cac3c87448467660001b62004945565b6060600062013b928562018a98565b9150915062013bc47fea0b93b7ce7ee5c17c43c1aad000c317002e6692ff50ae3d20d0e6f4728fd75a60001b62004945565b62013bf27f21d6ffe99cfe2f82d96654300ec8b0c5052e12cca7d3ae18726cfcbc6d8a88a760001b62004945565b62013c008251600262008742565b62013c2e7fdc3acaefb5f0129f71177553a51bfbca141066cf79d465a251ea1967e43e172460001b62004945565b62013c5c7f39002df60aa30b68cd1a2e3e5ead180565221a29618282a85c52845c2de7b1ea60001b62004945565b62013c678262009b97565b62013c957f9b98f7257ea755e5f5a5d67891e497d518754a13f0e4a264edcf014a6b28386e60001b62004945565b62013cc37f9561b522181e29582ebbd16929d003a4f6ae62e98398eda75bc2d9cb5f9bf7f060001b62004945565b600062013ce688888562013cd662000edc565b62013ce0620023e8565b62018b4c565b905062013d167f62f2cf798c36cd2e7d0f500288e6c47f4285a012e546e1c6925ef0bb3ef34d7f60001b62004945565b62013d447fb5ac536f1cbee52f148eadca6fa0a9a81f1d474ceecf3564587dc85f184ba7ff60001b62004945565b62013d548282101560d062006d16565b62013d827fe3843f1126731ff20d66a75ebd6d6ffbb015c37348f76c3e8843048c3eb72ee960001b62004945565b62013db07f903b28477f47a05259ed97e08238e0fbd5dc1ee9da2dcf744308beab9b0beca760001b62004945565b808394509450505050935093915050565b6000606062013df37f236b132889cf9aadd7d6f39c7e10923316c5bd430f0cf509ec1ee7f3f363271660001b62004945565b62013e217fc23537ac580742eb897f376e3ce99ed979cb479586d3b57ed62af22053c9f23260001b62004945565b62013e4f7f7026c45574d31fa38c8ff2efac4ede85257d2f748186f90c4553ec1213773b8a60001b62004945565b60008062013e5d8562019601565b9150915062013e8f7f979ad83fde36cbfd1d55cadee4476bf643e3558df9f558bde22ea08d57a1624b60001b62004945565b62013ebd7f37d29b5b8dfb5b9e22ff4df2ea7b6ba37a2936851e9b299b3af94cb2a815fca560001b62004945565b62013ecd60028210606462006d16565b62013efb7fbb906176b02484560da99ae3be5f76d755fe84ce1da132b1c876a622d6da648560001b62004945565b62013f297fc4cebf83f384c38089ef05ea5565faa6375a9cee8673a7a3576578dfb731170260001b62004945565b6060600267ffffffffffffffff8111801562013f4457600080fd5b5060405190808252806020026020018201604052801562013f745781602001602082028036833780820191505090505b50905062013fa57f543295fbec29d3a7b73c0ad729d0ae5040ca3a41727a3c9a29185a20dd936a3560001b62004945565b62013fd37fd0d16b53e32180ef4ea0cf7b9c74a79cb00c082e09bdb01afe272da95fd38bd560001b62004945565b6201401c88838151811062013fe457fe5b602002602001015188848151811062013ff957fe5b6020026020010151856201400c62000edc565b62014016620023e8565b620196b4565b8183815181106201402957fe5b602002602001018181525050620140637fd46da930672671a9b775138a624bb7c789c7232b23814d7d893af4665057cbd460001b62004945565b620140917fecacdd84aa66dccde97fd3fcf05dcd0fe814eefc8a1dfc2bf6c92ad76f5633ac60001b62004945565b828194509450505050935093915050565b6000620140d27fe76935a3046fe2ac7b48de0dd20821c8513cd3b66bad75b9e2bcc89a8ba417c860001b62010b21565b620141007f6787a5afee7107d67c7330e8d1817175a7d295b3a87d107d9e9ab1619bab3aa660001b62010b21565b6201412e7f353e357e5c9cf60092baaebfefbfb35590f2e4d1dcdba4a98747cecec84a482160001b62010b21565b60006201413b876200cc74565b830390506201416d7f367432a5a61e14eb63c4bb17628d68a2d431eb4196079198c8f739a20b24892e60001b62010b21565b6201419b7fbb66b560104938245a8e951352495785fdcee591cf9c9aaa40757cc8b035d80d60001b62010b21565b6000818702620141ab8962010bcd565b019050620141dc7f585049f6e0841d1518683990afa386866b098e48ce548f723774d3216cba366660001b62010b21565b6201420a7f26505d6a87a0ae3a24d63db7aed27f1fb5f6c06daae6fd794318e9affb4255b860001b62010b21565b60008287026201421a8a62010d1f565b0190506201424b7f57ccc93bf2e53c5434bf7b99d140c3b1122852f1830084745f3fa35b1745db1760001b62010b21565b620142797f984e8a705ff0341913b0afc6bda6c52a94127ec221db7888f3f6aaf66544f40960001b62010b21565b6000838702620142898b62010e71565b019050620142ba7f93394cd4511b236d3998485157152faad84957df6ec0c18ec00f0496f7b9ef2460001b62010b21565b620142e87f91395b0389f5dadc02515d7d644444a7bf97484490684e8c3ae7ccf9529f28a760001b62010b21565b620142f989848a858b868c62019af9565b94505050505095945050505050565b6000620143387f62c98291a72527357b248a3a587a9ef6df07e31df3beb33573856ba30faacca960001b6200c876565b620143667f7e81001fdb87af2dfef14f3d5df274b11a0f3b9450ac77b2d1fd1a78dcf8985c60001b6200c876565b620143947f1b7fd1258edadd3f1abb651ed8120d5251d55a48d95ee978fd82b2b304caf27060001b6200c876565b6000826103ff901b198560001c1660001b9050620143d57f637fe284aa80984a628e96662f6c24b064184922c4c809408ce92e5e6570798660001b6200c876565b620144037fccea9296031b7ca8bba42ac0ffaa2ae42a1dc935311596d458d8ee8eeb22516860001b6200c876565b8284901b60001b81179150509392505050565b6000620144467fbdf57b2ea8d3541257f90ae22e4d0d07dab5c14a8c9cfe1abfb21e67b40cb47960001b6200c876565b620144747fbf0d3532919ed68aa546a84addc60088938c3d27c032df155a33c21c0688fc1a60001b6200c876565b620144a27f0803b57ecb53cf75d985337b8b735139050060bc9f65f3fe9b2a60d726a399e660001b6200c876565b600082637fffffff901b198560001c1660001b9050620144e57f416896ea4de6daf0150b840ea9066422c387449ea34e35e0b7c0fd3410fbd18860001b6200c876565b620145137f677ee91a22313b8d4ea760b147e4b5a054dd9d31f474077a3800475d90e9e65060001b6200c876565b8284901b60001b81179150509392505050565b6000620145567f4cc4289f64fde5e00596da1dfe2534fc428776ed1e0e5ba210bf9cc09342595060001b6200c86d565b620145847fe1a464f393939751aa66dc516e2bf59439934290634824e329570b8a7c1d228360001b6200c86d565b620145b27f0fab9b99075fb74af420c6ea4bc8a24f94ced7ceebeeb32562671d8ed11ea19f60001b6200c86d565b6000620145c08484620146ae565b9050620145f07fcca6070759b70b537373f057b017df3c08237a92666dc0d44d1ca5b8115e343560001b6200c86d565b6201461e7f4f23e350f503fd2ee4d3e3c3315939bd0452d08c8f957ffed7cb828056de933c60001b6200c86d565b60006201463a62014632836127106200adc5565b600162005e09565b90506201466a7fcfbf25f5378d94751ebb618104bfa62bcabc7162413f6d054190d96fad83dc1d60001b6200c86d565b620146987f30acbd76b2d8662644c133b562967ac708d402eeb2b45d9ff11b572ecb41dd7960001b6200c86d565b620146a4828262005e09565b9250505092915050565b6000620146de7fb4c60d495595d7051d8098367e0de1231ee7e80c066e7cf13cffda8b2df55af460001b620128b3565b6201470c7ff917484f913307b5657d4ab3ec7eeadd398ce3e0dc0b8a44c7e18f33908b4d8a60001b620128b3565b6201473a7fd9993763574719ccb3d52803699ba2b0c07ae80a8386a1a49f0e3206a06e597560001b620128b3565b6000821415620147df57620147727fee5b6ef8f709ca23d29f28bbbded429a1f46e1b071dd22dcdb36f0169023ce2b60001b620128b3565b620147a07f2f38ea7e23d14ced68f2c8d26c1a06353fe28a5477d2e90639655786f70aade060001b620128b3565b620147ce7fff2a31b9f5f4df515e93cf41490341323353d178b9ded18b88942e772f534c9160001b620128b3565b670de0b6b3a7640000905062014f68565b6201480d7f3f9d98aeaf2b384358eb814c674452bf993b71bcde381ab99c62c1e1b7c9cc7560001b620128b3565b6201483b7f285385695c1469df8d40544367a3887392a9a19f337755911ff2e833fa25f0d760001b620128b3565b620148697f8362e6b8144905802616b73f08a4e909eff98018428a360951a787610869496c60001b620128b3565b60008314156201490757620148a17f538a78b1a226602ac0c28f23d0a001812cb9266b7a8200275d63a8103c29943960001b620128b3565b620148cf7ffc2303ed0447e12f646e5e93c96414156a534c77dca9832e8f173b501fc7079b60001b620128b3565b620148fd7f5cdb5f3c19c4fe78c6e0ec9aff7f265f1c49b4418e388de53160770c7ee4fea560001b620128b3565b6000905062014f68565b620149357f402f08c3700a9ba79e37ef8ae3f17460b205cb9aa20cae1ac99e6fd6900f0b2760001b620128b3565b620149637f67d21360845b5cb81fd0da81726ef6df96862325ed5681d05dd7834a4866b92060001b620128b3565b620149917fd020e8b002604fdc6b25646d7a5467d0fbe85a3ffb626730ed3700bc3067892960001b620128b3565b620149c07f80000000000000000000000000000000000000000000000000000000000000008410600662006d16565b620149ee7f19210e46be6a7a70189454c42052cb399c3738b24219c6df22248489d62d52af60001b620128b3565b62014a1c7f373d3f9c4e2094eb1aaa97274f961defb62bbe3c79a9e8bae367d092f610845060001b620128b3565b600083905062014a4f7f745ee1f4dfa91a709ce3c8b8e1f67a866dd27f48aacf05d631a83c8dce558cfe60001b620128b3565b62014a7d7fce71d52d68fa278561a2037459d48b7e826e0d5551892a19430d5de1b0e91c0860001b620128b3565b62014abf68056bc75e2d631000007f40000000000000000000000000000000000000000000000000000000000000008162014ab457fe5b048410600762006d16565b62014aed7f11dc92b50edc857f208acce2630b0c81321a8d850c1a983158880a4ef51a062d60001b620128b3565b62014b1b7f5f106d65f79b95c3498165b29378c228730e8107c79497c7a7ad3aaf12c6971160001b620128b3565b600083905062014b4e7f6100c7790d38a4f53962a1e9bc064f419c5d1932be74925c1a7781aa5f73483c60001b620128b3565b62014b7c7fbf4971f0797695daefdfd0f9aa4478e79ee2d13f1764241f7ce4ac5db5d7cb3f60001b620128b3565b600062014bac7f0c43470e96bf36e53365b61f93bb0896edbe246670a260b1fba7be7f0a1dbec060001b620128b3565b62014bda7fd0e38dd54bd0736bb1e741b21b513d786ecef408bb5f9c813c64115912d9b6a660001b620128b3565b8267016345785d8a0000670de0b6b3a76400000312801562014c0d575067016345785d8a0000670de0b6b3a76400000183125b1562014d4e5762014c417f6e40d061606b0c46da816399be7fe0691cb2204c3c6147bad3d540b1a45e349760001b620128b3565b62014c6f7fe0aa81b287cb2dfa1c80efceb64ca93aafac727174949af816d6a823f906a84c60001b620128b3565b62014c9d7f99ecefd114f208cc8ee60459df9c72115af94abdf496f5bd5d533e11f795e55f60001b620128b3565b600062014caa8462015018565b905062014cda7f574930d9b5e6e25c2f06b9f74f2c2589779af7b00d042a6a0f5d0e315e9da52360001b620128b3565b62014d087f5174c41d1295ec451a05f7c41b635ecd2659214a71144e4a8bd7b062bf19a4f560001b620128b3565b670de0b6b3a764000083670de0b6b3a7640000838162014d2457fe5b07028162014d2e57fe5b0583670de0b6b3a7640000838162014d4257fe5b05020191505062014de8565b62014d7c7f6bf9892d0971979a63f6208a420e6f24ac858c86369268e25c26871b4db4f0d160001b620128b3565b62014daa7f1bbdb1dc34afe49b3d15b1db75fa7497ac29590b4f800b5b96a07a46479553e160001b620128b3565b62014dd87f6b7db22b1943d81c0d8484154752d09e11866a862933253cb3effb91596c857560001b620128b3565b8162014de48462015933565b0290505b62014e167ff5307d01450754d11b6999a6f15f6940605ea263d8d1a4d2677c5d4cd16b9e8860001b620128b3565b62014e447f5da3025494ecf25168477a05baf7b9878a21c4c8e96c18e3b6d1ddba3b4d260560001b620128b3565b670de0b6b3a7640000818162014e5657fe5b05905062014e877f57cc0c34b883c0764df0f16c3418c3160b70e73ff7ed2363638c77cc780edd3860001b620128b3565b62014eb57fa7e92dc2b3da2e2407ab43ecd25882ebcffa5fbdcd60123e73d98f20cc63c09260001b620128b3565b62014efb817ffffffffffffffffffffffffffffffffffffffffffffffffdc702bd3a30fc00001315801562014ef3575068070c1cc73b00c800008213155b600862006d16565b62014f297f1fc08f08b4ee48ce0f7ad30806166097c215655d6e1cd60c08bd784612d9b01260001b620128b3565b62014f577f4bb8f0ccf8323c048a3352be5af0559be12691807755568ad9369d233b27b0d060001b620128b3565b62014f62816200db2d565b93505050505b92915050565b50565b600062014fa17f0f2f730e0135a40b3c32ed45ce6deda0923d08a8b38914d117091e0f06e6968160001b6201276d565b62014fcf7f4be75efbbc3e36bf91eddccabad6aab0583378aad4c6dc9883691e07370847c760001b6201276d565b62014ffd7f83ee78e9f2fc125cd8613644633b696114161c90528312749244fca56ef9dfca60001b6201276d565b61040082610400850103816201500f57fe5b06905092915050565b6000620150487fafad475bb9484dc1fd4e5b0ade9ae77d8d3f4374a1d7ed3cb8ed01d66064779d60001b620128b3565b620150767f031e05fee9e49ea9b35db640634f62d5ae8d789a9b00ceeef3e71de967e2d5e060001b620128b3565b620150a47f23e17eef26db05186da272b7053ac848f6af2a19ac06f64cf23a971483327e3e60001b620128b3565b670de0b6b3a764000082029150620150df7f5752269231d7207870d49a120ac51391a46ee6cca6f7fc08bde989b0d1ab986460001b620128b3565b6201510d7f31bb4605982d03d671f012c1710f6e3d3550f931186583070c565e112fa2f0b960001b620128b3565b60006ec097ce7bc90715b34b9f100000000083016ec097ce7bc90715b34b9f100000000080850302816201513d57fe5b0590506201516e7f833201f825ec9dbe3ea77cd20a272f47911676af570f953e1b63a6cdb627d40360001b620128b3565b6201519c7f32cfb75f0ff917d3887301975ad099f8e8cb9605c21447b1e4e06bc5cbf69f6e60001b620128b3565b60006ec097ce7bc90715b34b9f100000000082830281620151b957fe5b059050620151ea7f5262ad7374e69c862038705c852dbcd9a375ac7b77b81626dd85ef3bc777c8ba60001b620128b3565b620152187f814b893dec74f384cdc4ffe2e91849bfe5373d8e965b0e5516a5bda52889559f60001b620128b3565b60008290506201524b7f0578431d2704ffe9ad7fb07b78c670e53e0c4c85f46f554a12e4af69ffd8a60c60001b620128b3565b620152797f5b497994a9114fb09ab4490f0482e2cd57ba6252595357738c52b4dbcf610da160001b620128b3565b6000819050620152ac7f6e5b5cf3104a14c38940ba6bc5d534ecc8ffd4749f486b65ecd81f623c2f3ee760001b620128b3565b620152da7fd2bc5c26d500ac606abc5b229aae0a994ce547e4b0cb499fe22410fb0626721460001b620128b3565b6ec097ce7bc90715b34b9f100000000083830281620152f557fe5b059150620153267f6b1d205a6375704a28ed95217bd697c1775c8c59b8a3f065720259fe133fa0ee60001b620128b3565b620153547fb76b7ee84c379bd0981bbbcd218400913abe0a3bae29d77284ee9a0cd47ee34260001b620128b3565b600382816201535f57fe5b0581019050620153927fd17a6e196dc831a8c5818adf6e5de25ffe1bb186b988d0e5a93791c040bbc5ce60001b620128b3565b620153c07f87dec2e16a0f0b4a99197fd8862a1e58da443b65a9358cac988fd9986c513e4d60001b620128b3565b6ec097ce7bc90715b34b9f100000000083830281620153db57fe5b0591506201540c7f497c66fd18cddd1edbdd663cf65697d926bf4b6b202abb5caf58c8e4f051e33260001b620128b3565b6201543a7fda27ba2d015ea8075dbb2b6926438b22f84133b8f0bf78513b1edf4a258e9f3760001b620128b3565b600582816201544557fe5b0581019050620154787fe2fb1b5df927df9440cfd455d46a4204c48d3ad6ff3228dd000db2cad7f5cc0660001b620128b3565b620154a67fe8af9739626a66be09fc26dc9203eb0d8cd6cf8a7dba0887a39e991cf5b78faf60001b620128b3565b6ec097ce7bc90715b34b9f100000000083830281620154c157fe5b059150620154f27f1d2478f6bc640e0988b0185bf45bc2446e7569d05ef50b75bd9fd46b2cc3bffe60001b620128b3565b620155207f190f9c9a243682a8039638cae963f3e8d3e21e066e69fc24076dbe78a6c2d04660001b620128b3565b600782816201552b57fe5b05810190506201555e7fe3ef508b3c980059a2ac866f30a69cd5d5caaf518d012f26b857bd26916822cc60001b620128b3565b6201558c7ffc98cd02c211181ab2a38e03eda7c39f50c9ee3fd49bde86a518fb132461897860001b620128b3565b6ec097ce7bc90715b34b9f100000000083830281620155a757fe5b059150620155d87ff4b4d260d3dbe9bf6de0f129a91683f88b9d44e25798db05de253ea3779fa60d60001b620128b3565b620156067fd3236a68c5b379154ac60efeb89e514db4db2f76c23a6994a980dc2601fc318060001b620128b3565b600982816201561157fe5b0581019050620156447fd204e544020feada4b05a8d1ccdbf5c4c33aa2654f76977adfdc750d9dc5a3a160001b620128b3565b620156727f8064ddd04bdc1de318dc25362c5e30e08af518128db829fa1adc14430e30b53060001b620128b3565b6ec097ce7bc90715b34b9f1000000000838302816201568d57fe5b059150620156be7f301445f58664fa4fbac2352a1521f719ea4787b63a1582747831d848dae7313560001b620128b3565b620156ec7ff41fb0d5d5d8201d1d56087eeb570cb7697800fc787e15a53624b92f1c44c9d160001b620128b3565b600b8281620156f757fe5b05810190506201572a7ffff9bb0c690db875f9c0a83eb2bd74b233801209615f71003868a848005fde6360001b620128b3565b620157587f9f355ac08862d8d248da9930374240c93301690cc2df63147fffeaf4f9525dd760001b620128b3565b6ec097ce7bc90715b34b9f1000000000838302816201577357fe5b059150620157a47f2224481d9e6c9bc867452e63cb0ac2c3b90f6cee6a27b5ba18097d30d4a3062b60001b620128b3565b620157d27f9af27505bb36cabaf6f21414ace7ccbd2f404fd0034ccea77c9c5242972ecab560001b620128b3565b600d8281620157dd57fe5b0581019050620158107f5ba30ad8663a3844cb7eeecf5bca0665b8b344aaf43495a9e6bac8f6a94cbb9460001b620128b3565b6201583e7ff700d16fbb686e4395754bbf15bea0b3328f413226a7736bdf223ecfcbab5e0260001b620128b3565b6ec097ce7bc90715b34b9f1000000000838302816201585957fe5b0591506201588a7feb6e11531698cffa3af6fa0a98d7104f7a78094e845fb298a536d611092d8dcb60001b620128b3565b620158b87f6cc23dd5f97530be1458c9dfa2abe52d64ac4acc8dc4bc6913a5f388f8ba959b60001b620128b3565b600f8281620158c357fe5b0581019050620158f67fe7ccb0a12fa031a0a94896d3e65aa142f5894c896d67a5491db6839213832d3960001b620128b3565b620159247fb0b596d060d7744021776e57e0c4ce81c61eb23d61a17e87e0acd84f0654f1d260001b620128b3565b60028102945050505050919050565b6000620159637f2a0e4707fd37a2afd7a8622a8b8288c83462728dd05f2553df0680d7a6320b4560001b620128b3565b620159917f1b7f6d72cd142cb5c98d0dedc604a45de085120e8d78c6e59114dca025f3c19260001b620128b3565b620159bf7fd6f2473eb4eef7b00d1de8a833714b900c307fc4b3db23671f0138d2f06bb4c660001b620128b3565b670de0b6b3a764000082121562015a8457620159fe7f6fb39aa5e0de2d432f2ea710235cf2abdacc0d1dd65d625031d098392f9ed6b460001b620128b3565b62015a2c7f80d98144bd28bb593271a0957b6b785ee715cedba93a349b3415ddee4ff8a18d60001b620128b3565b62015a5a7fcb1764bc9a85caa655591bfb618e0b29cfd97f20b909ef5f0aeb708a52458ac960001b620128b3565b62015a7982670de0b6b3a764000080028162015a7257fe5b0562015933565b60000390506201778c565b62015ab27f5f795f796e34e48dbffe0e75962a006b6b8dee49c7959e5bf378a7418b7011af60001b620128b3565b62015ae07f5163edfb7d5bde2b97eb7674a803d6d16fb9ea60ca35a0c1c540ade7b9f1ec5660001b620128b3565b62015b0e7f061fa7b7a49b4960801efec85da6208c9a85886c1d6658be0d43a666dd1f37ce60001b620128b3565b600062015b3d7e071535dbc1bc6eed51b6ff932dd14cebd1fee562798e1756b2a2217221881060001b620128b3565b62015b6b7f7909265c00215cf44ef659f60993e3ac535c6624133f2329f959282e5cf4720e60001b620128b3565b670de0b6b3a7640000770195e54c5dd42177f53a27172fa9ec63026282700000000002831262015cb45762015bc37f9eeff1bf1d7eb9bf6a862e29041c211045e50a9409090f8c6e76490d92209c8e60001b620128b3565b62015bf17ff78b4b0b27c2baa6289e8c04ac6b732c76980b96221b0f5b504863ff297a7e6760001b620128b3565b62015c1f7fb92666a167e928646dbadb1c11387ce18eccaa72216e66e7980ff21a39b4a0c460001b620128b3565b770195e54c5dd42177f53a27172fa9ec630262827000000000838162015c4157fe5b05925062015c727f9a28df60dcd3683c29ae4d4c8433e31b1e186e2b19b9dc31abb5668e999e130360001b620128b3565b62015ca07f2349d251de36950693d8dc7fe3e89e22f4faa3facbc573713e36b3c1076bb6b160001b620128b3565b6806f05b59d3b20000008101905062015ce3565b62015ce27f5f868f32c1b183566d4fd477eeaa200fb7c0ac420213f8ab31d4a5a2ed804bbe60001b620128b3565b5b62015d117f655d7719e6baab47a0409df7b7b8bae3eb3aeefa1c578e68daa5b30c9ed99e3060001b620128b3565b62015d3f7fba2e333c2a2c02398997088d511c39dc1e9f2fffff60bf1081691ff02b4ccfde60001b620128b3565b670de0b6b3a76400006b1425982cf597cd205cef738002831262015e705762015d8b7f63d33fe4b6f6a3c71e6f29ae1d261b680fd6728d0077b1c0ef7d9315a424f98060001b620128b3565b62015db97fb0e8ad89b3655932a3524a3757970351a74e4b55c591ed66078f069debd8d16e60001b620128b3565b62015de77f0ef7c12e03a2e291fe14ef2214a6b3fcc320d8f535fb4ea99e5497408efd973360001b620128b3565b6b1425982cf597cd205cef7380838162015dfd57fe5b05925062015e2e7fe0ecf868ee95734317a4c2cfa87355cb850f0b165a583d9fd6a006f20ec5462e60001b620128b3565b62015e5c7fb70f96a1f394bb2f6372bdfe228612c5b83eb7bd561b671ad7cf8ae8e148333c60001b620128b3565b6803782dace9d90000008101905062015e9f565b62015e9e7f73ca4c73fe2aa4d27e5a189578ebbea10f70a657f99e31130e86dba045a4fd4160001b620128b3565b5b62015ecd7f9fcb87c0be548e7851afeaab469990149ce57255e66dcb2a706db5a084bcce9960001b620128b3565b62015efb7f4a1376489944ca0b521dea4175ed59678c7efeb09f16827cbf218c4eddce71d460001b620128b3565b60648102905062015f2f7fef1d9a7c37f8a36d71b46a6edda0e4a3363b95743da06d32ab4f32e3009eb72f60001b620128b3565b62015f5d7f89debf19aa927a767ef509100e58ecd5906978a73fbebccebf581b8e26a6638660001b620128b3565b60648302925062015f917f0bdd1b09853face3d8b70ea65bd067179115695135e2ecf69891ca3483b4a0fc60001b620128b3565b62015fbf7fe84736814461598a4e42a3b2342c00e67b8d4c5b18f055163edb2fa75f2349eb60001b620128b3565b6e01855144814a7ff805980ff00840008312620160f757620160047f67c3758e91595791b9150fc6a89a29627d1c992c2e4e70db244aeb0679d95b9960001b620128b3565b620160327fd0bc08e158bfb2255c90a5ff951e6eea2d8a26f3864b358a83c1471d451a4ea560001b620128b3565b620160607fdb9ef2d3cd566ef078f073dede74b4b38f19988bd40236e79b59ce8529e1736f60001b620128b3565b6e01855144814a7ff805980ff008400068056bc75e2d631000008402816201608457fe5b059250620160b57f08c724e21b52dc4806f198ffc8456fc6d4bb18ceb52c9ebb5a2ee48ee524154460001b620128b3565b620160e37f7a6d26930463dc0b85337ed47cb609dc54834121d9ae4c44690da285c4b2434660001b620128b3565b68ad78ebc5ac620000008101905062016126565b620161257fd8da6a7e72c78cbb49231b424f03ab3a41e3788ec9b0ffe3502d0833169c1c3760001b620128b3565b5b620161547f6389e56c956e82fc9ffca8a47e11c4becd7c0a23beab4f91c5401966c9f6854b60001b620128b3565b620161827f8a2d4a87b57f78aaa7e2eb003ffc00cacac41f290b5bf14b230285c78640967560001b620128b3565b6b02df0ab5a80a22c61ab5a7008312620162b457620161c47f2c97f5462f483963631ba9f9e1ddb9d0a5c3c7f72c272c692c040b2c90ad849660001b620128b3565b620161f27f8a09912793ae4b6f51c1aae5e93fd9e2fa3b4be30358e91c3a00030822fa8ddf60001b620128b3565b620162207fc024c606068c50790457f476f8bb6e9abd7876edaf95881faca2416802f49f4860001b620128b3565b6b02df0ab5a80a22c61ab5a70068056bc75e2d631000008402816201624157fe5b059250620162727febb9291849e42b27d8b579f8a82fe2d68c9f5c996da64486de3ec1642fb2d6b260001b620128b3565b620162a07fb763f29bba9dbe1c899ab5fd37e6b92ec872bb4c29cd409faf8faaf7c00c06a960001b620128b3565b6856bc75e2d63100000081019050620162e3565b620162e27fbe811c74316467d7588f719973d8f73b6b44bdc2615d92021dbc626ecc22d31f60001b620128b3565b5b620163117fcd764b508c9e68721c72db58d23034ae8791912f0045b01605f75dbbe915672160001b620128b3565b6201633f7f86f07fad501b095be885b4a911f2b7cc3834da7e263b0b37d949806471f08b3260001b620128b3565b693f1fce3da636ea5cf85083126201646d576201637f7f80c7783e3a804543691c86546e82ac5b9ce5f48cf748365d31cc9c8a1908022d60001b620128b3565b620163ad7f87b3cccae0713c171e4cc3c30e9264b7eb2b67b20dcd9e5e69ce065d192eb8f260001b620128b3565b620163db7f2ec340c657bb799f8a13576e44fbddb231da5b0d328354cb80de3786471bc90c60001b620128b3565b693f1fce3da636ea5cf85068056bc75e2d63100000840281620163fa57fe5b0592506201642b7fac47bde4bebd3a8de3d23e457d17a25c8ea35a923524467f19b9d05abbe3bb8260001b620128b3565b620164597fe98243a8b81ded7fb01dc058e6c1742677afa34175d47084e47311ed29291bbb60001b620128b3565b682b5e3af16b18800000810190506201649c565b6201649b7ff1cc0b188e6e4231cb4718ebd28e5bb14934978cfc8e864985872747523c378460001b620128b3565b5b620164ca7f99bca04e245a9275c2bd797029177b09ceed72a81e08e59bae2a73a797df93c760001b620128b3565b620164f87f261e4d362d795e7cfe9c0c6868738fac4f9fe2ece1423c03a5d24175f2fdc78d60001b620128b3565b690127fa27722cc06cc5e283126201662657620165387f3914829bbe0f6c5bf1afeaa34ffd544b8cb38edd8d3bc6614904f1155f9d428b60001b620128b3565b620165667f72947c0f257e2918752a7ccfc2b914288f3e2ecba1b758b07e8d97878884e48760001b620128b3565b620165947f11b375a7ba04e92ada9546ff504dcab892490c95edd3fcf9012815222efc302f60001b620128b3565b690127fa27722cc06cc5e268056bc75e2d63100000840281620165b357fe5b059250620165e47fb79d950018e267ef32fed84a6a9421d2eec0fb3e399156c9f3eff0196bb1cfaa60001b620128b3565b620166127ffbafab27350586c5b7594a218ca54443b7fba3e44912a674c9270d39be03e6ed60001b620128b3565b6815af1d78b58c4000008101905062016655565b620166547f75c33499bbb991e3eb9467b741b89aa2ddd22c8f21d74da332eeecdb83be5bc960001b620128b3565b5b620166837f2c4465aef9653b674b06a595c74584529cb594dfa614f03186c6e07a1b7ab33f60001b620128b3565b620166b17fb2eaae06e373ee55d19ea18eef81bed5eb9899dae375cb9b63dae3e1867e604060001b620128b3565b68280e60114edb805d038312620167dd57620166f07f0505fad27611bf5ac429a3287f77fe17c9697ff4ea39a955615534324a9d39bd60001b620128b3565b6201671e7f59fa2bc990dbd027eb8293fae49379d6e7cf7a2428cc6ba222350724ef85f9ed60001b620128b3565b6201674c7fa39e98762bdf9a1473933d1a9a310cb283b2cc6dbbe3ef7349725a4977e1942d60001b620128b3565b68280e60114edb805d0368056bc75e2d631000008402816201676a57fe5b0592506201679b7f3ea03c67b7436c50f0e000d67f9cc76daa691620267f85a14504eaaed4847f6d60001b620128b3565b620167c97fce5961db4c1a04f1f8c2f9af131d650675ba333dd075fb873a8e59d9464a91fb60001b620128b3565b680ad78ebc5ac6200000810190506201680c565b6201680b7ffce0ecef3e850a9ff19935f216d8139104295e7f80e2c6f3c921bed7d358341960001b620128b3565b5b6201683a7f23e31166ea24247d1011b5edd5515d646eb074fff4ed8e8e67246d0cfc48519f60001b620128b3565b620168687ff4c3e257c580f1ee065615a767f7c2c7cd33d12cec16baf63e5e520da7ab939560001b620128b3565b680ebc5fb4174612111083126201699457620168a77f1f4ede70cd4ed5e3df87b570f80e274166c0c4fe7adefd0c9d71b1e2f06910ad60001b620128b3565b620168d57f0651b874402d08bca25e4278e92f9f7c2b8da5988db22363565d5d8131f15e0060001b620128b3565b620169037fb0caf9cc4713e6c070f4384aa134e9e48540543d7da504f6e812304ff22757f660001b620128b3565b680ebc5fb4174612111068056bc75e2d631000008402816201692157fe5b059250620169527f2b3ccb5b4431d7fbf733a5973988809887fe9cb96487da42509383d75d21731c60001b620128b3565b620169807fabf5a8442a8bf87e50225ea9cbc4a507f6a1d9dd077e7c0bd7a5cb4ec3ccb37360001b620128b3565b68056bc75e2d6310000081019050620169c3565b620169c27fe73ba6b6046756b3503b220c8f1cd309eb8255b53619cf9d7b4d3d1eadd8cf7760001b620128b3565b5b620169f17fe5cf5698dcbdcefd3b9a0a197ef00de1bca0f41ce5493c0224b2fc4d95fcd54a60001b620128b3565b62016a1f7f0c24fa121ee36c5882d60fef1a224ff7527b3cf2b1a829ee4126f4ff9953c28660001b620128b3565b6808f00f760a4b2db55d831262016b4b5762016a5e7f781c9a058c785776d1b009208a14485fbec7afb99bb48fd1dd958be0f60792a660001b620128b3565b62016a8c7f041dc14b48dfafa37bf6be38cd94c53290ff5253f6dc276bb7a7c2feb21c8acd60001b620128b3565b62016aba7f7fd8bd3ee24373af9d3301d583ac9049430fe965f09b10814b86927cb9ea389760001b620128b3565b6808f00f760a4b2db55d68056bc75e2d6310000084028162016ad857fe5b05925062016b097f27b010efc80ee8f1455b5f944fa5064116e3866c96ef572403741c7bcc00448560001b620128b3565b62016b377f334d0ec060f12209ce0cc3104d0dc35ac76e48b197a99651441c4d45e1ee6d9560001b620128b3565b6802b5e3af16b18800008101905062016b7a565b62016b797f9359fd9481c47f4c86e5d320eef4eed6c4236b662d7c0e06dbb2761330c635d060001b620128b3565b5b62016ba87f402ec0389c490a8a2f0c196c64a3656ad56807b23711c0e6fb4476c22317952960001b620128b3565b62016bd67f0121e51f92fc48c320d44a8fa79f5e5ac3314a045317e5ae18fb7b6ce1490af860001b620128b3565b6806f5f1775788937937831262016d025762016c157f96ae510b17a6b1ca7bd8fc760ae47fc0837a5ba72cd065816d5f8ff89348ca4660001b620128b3565b62016c437f32f2e836d4821cb35469705e1f1edd4e1c797bdf692eb469d5db18c889c277b560001b620128b3565b62016c717f9d6d3527f1bb1ea0f06970d86b737dd956f8f9464dfba2d67918f253cfeebe1460001b620128b3565b6806f5f177578893793768056bc75e2d6310000084028162016c8f57fe5b05925062016cc07fc00454d2d4886f95b68cea05c67878b88124baa3a4439a977c12794a61b4902360001b620128b3565b62016cee7fcf55d52ea684236938078c6ac994ec866455bce1adc33f4538656c226106ce7e60001b620128b3565b68015af1d78b58c400008101905062016d31565b62016d307f72bedcddb98ff81d073f921a18c6b9074026e71079ca583962b50f09c058b7cd60001b620128b3565b5b62016d5f7f91c8db69b86cdc41dbaffac433437eadd33fe2c9c0f6ba1520e4352bd2fc301660001b620128b3565b62016d8d7fb5fc01ea3d63932cb15e68aee56e82cdac4c1d0200b3eb3e475feaabdff8e79760001b620128b3565b6806248f33704b286603831262016eb85762016dcc7fa1823c0985f8916af7ff678e31e5f8d8db5e936004aa3b39ba3c4864a68276fb60001b620128b3565b62016dfa7fe293b5eb516e8d03e4c2bbc9bd2293a39d53c2faa56a6c6a56aab664bf80204360001b620128b3565b62016e287f9470b504b3bf0593f4f0894c686d519b85bfd8660f4341a869dbaaa6c2a7a41360001b620128b3565b6806248f33704b28660368056bc75e2d6310000084028162016e4657fe5b05925062016e777f3af1254b1058d66d7bfe42a4de3bd5128918d1423e5a2ecd5195272287e29b4d60001b620128b3565b62016ea57f111523abae47ccc25c7afd9cca8ee1f50d83da1c87c6c56491790279b39b4ea660001b620128b3565b67ad78ebc5ac6200008101905062016ee7565b62016ee67fdba95c89df2b2c302715f189fbf3e8afa18ed02a0c59d60fce3570e390e6bdef60001b620128b3565b5b62016f157f6316ad9c2f036322af3911484d11e152b6d666f6da2904d8264cc3d3d2b80eee60001b620128b3565b62016f437fd5a28627aba873ec250cd7139b8402995822d6fb272bb09381926ea187bd23ec60001b620128b3565b6805c548670b9510e7ac83126201706e5762016f827f2b6f2cd02f0d47badd5586bc1d9f58ff8b6f2a00b766e06321fa78fcb406813560001b620128b3565b62016fb07fcf6295743d6d9b70df97a10e09b7b1f265b2587afd80f5ad047d2f5c5aa5ce8760001b620128b3565b62016fde7f70959ebdd95590440af102dceff0d55bd4fe599507ae4e7a40b420a10cae540b60001b620128b3565b6805c548670b9510e7ac68056bc75e2d6310000084028162016ffc57fe5b0592506201702d7ff770e21630afd1c7aa2fc1949362973cfbf87c1eb30b824376a97730f9535f1660001b620128b3565b6201705b7f784b5eba7288ce0229ef72abf84d8b40e303f13e5ba2b81067cacdda35d7bccd60001b620128b3565b6756bc75e2d6310000810190506201709d565b6201709c7f156e042116d7446a37fcb3d4ec960f9047cc18a02b4dd1eb8b734cafb9605c0060001b620128b3565b5b620170cb7f0db1de3120dc404f4f8021def344b3c62f6ad502f740f40feaadf8129088e01160001b620128b3565b620170f97f02d82c98cb824b016938918581fa19f477ce037165d9d45d81fc649c9f321d2a60001b620128b3565b600068056bc75e2d63100000840168056bc75e2d6310000080860302816201711d57fe5b0590506201714e7fb8b70f939d04cc8d75e576332b9da5134ecca82a3e604e74f291f1130da038b660001b620128b3565b6201717c7fc8638c5409badc3a194c6e9b05f173124591b35009f05b7b93f8c7ac08f8988e60001b620128b3565b600068056bc75e2d63100000828302816201719357fe5b059050620171c47f08b9aee5b762bf1bc8db453d9aec5cec295ae5a677a9b26d440cdd9fc6973c1260001b620128b3565b620171f27f6cb11656fdc9d3015f974ed28279796e17070c5d53f72ccb82f50b82bc4723cf60001b620128b3565b6000829050620172257fd72baafeeac9478eeccd9951ddedf17ff7847642eea99342d45b7f5097b278b860001b620128b3565b620172537fa4c6691648fc2fbb9500367982871b44ea6f400512f6ae3fc78f3c3f987ed42260001b620128b3565b6000819050620172867fa1de7af863295adb149458a9b54d21e22cf985e743af8fcec44e86f771ddfad260001b620128b3565b620172b47fd6c2c10cb08e09aeb957267ee23223e3b865089983d3ea838a579f2c2f5217ef60001b620128b3565b68056bc75e2d6310000083830281620172c957fe5b059150620172fa7f4e5a98be01125eeff80c82c25e9fb9e7b02202a87b5680973ba14888b4a2dd1060001b620128b3565b620173287f597baf07b0aeb0637c340154dbe8e11fe620c09c4034c72c7df03665ef6cd8fa60001b620128b3565b600382816201733357fe5b0581019050620173667f04208f16ed89180341d8d28de15f2cb7beb6514949a9f767cf9b5dce70daa00e60001b620128b3565b620173947f700add0bad6352b737db6cf0f4c820160e12e7c7bcc17138afe55d7dc67f2cab60001b620128b3565b68056bc75e2d6310000083830281620173a957fe5b059150620173da7f89c0d9d75ead7925f8f92ef643044933a36176181961cfe6c033df79346d2bcd60001b620128b3565b620174087ffb5cb14ed3f36ba24aee09acdcd10ddcc6cef0c8015b8dbf277d34419b5be26c60001b620128b3565b600582816201741357fe5b0581019050620174467f9ee2cc40b8ab5263af95bc1fba71221946d091db613b8f93c440ee62d806ffee60001b620128b3565b620174747ff2f99f8aa918a208cfa8b8d746cb4db602795f57f17fc7210b61f1e70033ce0560001b620128b3565b68056bc75e2d63100000838302816201748957fe5b059150620174ba7fecc1504a6f1872489c1e37269dab8253af49f886d0df7ca8481b19675f6414a960001b620128b3565b620174e87f07c833df720764d188697faee613c532579bb7e21ed42a35ff67f744ec1c3b0860001b620128b3565b60078281620174f357fe5b0581019050620175267f84fd7b0810797764865edde09223268a68e6d7525e6ecbadaf3dae09414e91d960001b620128b3565b620175547ffc0b2be7401f325ebfc926f22bade8876e8ff231259625a9f735df4b069f724260001b620128b3565b68056bc75e2d63100000838302816201756957fe5b0591506201759a7feda0abf282f0c681f7a6bea7294ec51e5b91579240b3a5869b70a821513422ce60001b620128b3565b620175c87f33f4c27456bb21e26cd309307cb7936c191fb103606137f97c2c77cab81cdc4660001b620128b3565b60098281620175d357fe5b0581019050620176067f0b0a463cf0a1c345b1a831db4be2e862990963ad0466c72e67296591cb8a44de60001b620128b3565b620176347fe3cb1a8a990e03b2f6482a7a138828d42d03c3b912d9fe02f1d8f1abe3c7880f60001b620128b3565b68056bc75e2d63100000838302816201764957fe5b0591506201767a7f484eba67c966520b3c3f87a9b8eab2034364974b900e018ff0df9689b24821aa60001b620128b3565b620176a87f31a5a8af2a9b00d798cedeb7efb46d9a3227c50b361e48082068d5b91294663c60001b620128b3565b600b8281620176b357fe5b0581019050620176e67fe0fe1ff2347fbf5e0aeed6107768b2e6ab4ba2b14de005486d84a54e35a6c9e860001b620128b3565b620177147f8182237f0d31121f22b1fc0338fc2685dbcdddd1ff1aa1cd20946bdf3367afbd60001b620128b3565b600281029050620177487fb531577b46cfea8a0f0479f45520255c37d62cefeefad875161a20bb6916480760001b620128b3565b620177767f313d3cc6ccbaf2e16f0517b2aa4326497926a47540250bdf393e884dd6ec74a060001b620128b3565b6064818601816201778357fe5b05955050505050505b919050565b6000620177c17f08b5ba32bdfde5a4787ca4bc358fa249d9c75980e2bbbeed00d548e4c62ddf5260001b6200c873565b620177ef7f97779bf504025e78fb7ac46ac32be2a0f087b0a9d7c459512b0af4ad82be5a1a60001b6200c873565b6201781d7ff9ec92b71b5bc51509046723000be9f2c1e8a0bb9507f1adb5e18c6f47bb82bc60001b6200c873565b818310156201782d57816201782f565b825b905092915050565b600080620178687f5660d317ff9cd0a98f03329b371a3de39149404c1dbebf7d923fcdf0618ac21560001b62014f6e565b620178967f20db64787035b383dd639b39b620e1e81bcaf4d0f8bc7174f37246a298fabe0f60001b62014f6e565b620178c47fcf1f5d64bd685328d4ec3f9ee19a27c3b10533b339992cd03680d5f4ca82329560001b62014f6e565b82806020019051810190620178da91906201a9f9565b9091508092508193505050915091565b60006201791a7fe06e484eeb5c79c6e06d9ad5cf999080887fea859946f93be4e450c8052b1c5760001b62005cd3565b620179487f18a63404600f485a92811efe2e02e6cfdd7b4bac7ce17b1be14087f32ac6900d60001b62005cd3565b620179767f3477e7128453ff8d061dd3e72007a63416389a4ed847db4c62d45633f944d0a360001b62005cd3565b6000620179a1846201799287876200b08190919063ffffffff16565b6200b53190919063ffffffff16565b9050620179d17fc47950ba7b58c185ca305295d36dc5fe65550fad1b1eb3a3915677aec1ce712460001b62005cd3565b620179ff7fefd4c3824e2e5d0d79d55b62107caf8822a4e88ace48bc1880a2f2a61c9b204760001b62005cd3565b62017a186709b6e64a8ec6000082101561013262006d16565b62017a467fcdeb782ae038f285dd06ec54e4bb03bf4f6cdffd1b4686ec535ca48eb2e6619660001b62005cd3565b62017a747ff6dbab39cf2ef230d182e4d2b40cb39d9f079f0afad08a1617be80b630a2940260001b62005cd3565b600062017aa762017a9788670de0b6b3a76400006200987990919063ffffffff16565b836201452690919063ffffffff16565b905062017ad77f245bfce37b7250dba5cefe20707424d0ba0b5287a3672cb0ec5506dfb3b1c3cf60001b62005cd3565b62017b057f86c77296ce2811a5e658c00b590e722974270ddcfde88ceb7f20bb4d6e0d1adf60001b62005cd3565b600062017b2662017b16836200b47a565b8a620123e490919063ffffffff16565b905062017b567f6ece5a5cb0d1fee826cd9de737c5200bf2df2adbf21474be9b5c6f64a8aa733060001b62005cd3565b62017b847fc017acf2c8328f1c383f0660329530859f027fa9659024c24d7f0342db4ae2e760001b62005cd3565b600062017b91896200b47a565b905062017bc17f3778a910da2bdb7c42a6ad77bfd1ecc90036b5aaa44a46502d6ec4fec37caf0d60001b62005cd3565b62017bef7fa8334acd852b98e3177e2b1dd174326ce674e75b53bc9c13a53a50a8da959ed960001b62005cd3565b600062017c0682846200adc590919063ffffffff16565b905062017c367f3c901a401ce47284ceaddcacca42a98eacc7427b0263fa2dbb7b84bd74cd8c1560001b62005cd3565b62017c647ff5e5d71a6d7f713568a9dca19ba446d52f88da66e7dc4e6a003eadc70d24c8fe60001b62005cd3565b600062017c7b82856200b08190919063ffffffff16565b905062017cab7f6d77f0934c8628ab5f68f95b6eb23f141296c68f96b4bbf11af20d149491ec5b60001b62005cd3565b62017cd97f26ea69b076dc025d08bacbd91400611ef9b1f24fca306a80964be16de41fca1260001b62005cd3565b62017d0c62017cfc62017cec8a6200b47a565b84620123e490919063ffffffff16565b8262005e0990919063ffffffff16565b965050505050505095945050505050565b600062017d4d7fee2c96a5a90bc18a7cec8c78dae87d7af3068f09642e2e0b801c639111d3dc4660001b62014f6e565b62017d7b7f78c5fadb34830cae57a985a1a3fea13e3728694b723f496c7450d1a2f720f7f460001b62014f6e565b62017da97f8a32d50546fee78642eff1848549476b1ebe03a24d9d32f3307cf47e22b37bda60001b62014f6e565b8180602001905181019062017dbf91906201a9b8565b905080915050919050565b606062017dfa7fb1e807b937c4dd813688b9ae979ed0815a7134bf2159d29721ba42d2457f803160001b62005cd3565b62017e287fc3602c4ba635ff7b82e3c5e5cf3b6ac796783f4fc34d592ce0ab48a4e93d4d4160001b62005cd3565b62017e567f3b5c85e1390e46b9bd89c98ea781ddbb6dae6deaca3276a8fa5ad2586986f30660001b62005cd3565b600062017e6d83856200987990919063ffffffff16565b905062017e9d7f1c01d97612dc100747054fa24716dee87b9bec5263f3a93620697305fbfe73de60001b62005cd3565b62017ecb7f7ccca8a5ef8eb6f71681f0ae5317a70c3632e04562218899f8ae3cbee7bc179d60001b62005cd3565b6060855167ffffffffffffffff8111801562017ee657600080fd5b5060405190808252806020026020018201604052801562017f165781602001602082028036833780820191505090505b50905062017f477f9a71a7f03e378886d322b8dbf87dce13db2598062cd5a81215909786c8a6d28060001b62005cd3565b62017f757f6251578eb30d135fd749d8eb1b460cfab573d19652c0632b8bc8ca9972dad99f60001b62005cd3565b60005b86518110156201802e5762017fb07fbd1597c36164e620de88022ac701e9902ff73a4c6ee7fcf1320802d35cc8547f60001b62005cd3565b62017fde7f2a4b25d64e1c9bf9dd076d01f0b48dbf9cd2d654ef245c23d0cc7d618427897160001b62005cd3565b620180078388838151811062017ff057fe5b6020026020010151620123e490919063ffffffff16565b8282815181106201801457fe5b602002602001018181525050808060010191505062017f78565b506201805d7f80b9550fcd87ce146599774e271b365142d75fb873404e906cd5c349645139db60001b62005cd3565b6201808b7f7de3aac440af5dc816518c87acdf006c12d371af4804bba8f0f511c7445828c360001b62005cd3565b80925050509392505050565b60606000620180c97f9eb4b7bc65f0400bef391bd1abb353dcd5b9aa8f726643e7ffdef7eb3d8802b260001b62014f6e565b620180f77f1b3f14a4c5758251417af5ec68a05a7594bc6be4e41ccabfbe764358eed03c4e60001b62014f6e565b620181257fce93f7e0064b42e2031034110a5f67bd30442578eb63b8ab1ae94741e292ebc760001b62014f6e565b828060200190518101906201813b91906201a949565b9091508092508193505050915091565b60006201817b7f31cc299040d7b474bb8783a4aeaa9a01dd89ae0686f43e59c0e85887edcbbc8060001b62005cd3565b620181a97f161ffa5f94a10c8fc5ccfa2ebf37365b8f8690202dde030eee6d6effdcb6bdd560001b62005cd3565b620181d77f292d441df589c0df12e5af58981b26aaa4fe6462f8d309fdfe443b32e60d49cc60001b62005cd3565b6060845167ffffffffffffffff81118015620181f257600080fd5b50604051908082528060200260200182016040528015620182225781602001602082028036833780820191505090505b509050620182537f5cccd19898cbfa7acbd419bdc6179102fd7e7f526dc01f7dc1bf9f779d7827b160001b62005cd3565b620182817f1e00cee02766603a0c8f23f299390064b367bc85be100de5b8342eb2bfcfb55060001b62005cd3565b6000620182b17f3e510dcb332cefa337280b5f2d15332315b7f93b1aab4530f5e13327b8605bfc60001b62005cd3565b620182df7f36559985bc5f23049c4aef72a551df9b3f229a7e56fe927024acd0de0699a45460001b62005cd3565b60005b885181101562018483576201831a7fe4900bb0371ebdcd1dd51094299547f2e4242cfed4780b41a6cdb35fdd17c1d460001b62005cd3565b620183487f8230b86d9b4876d06ebad978e9124e8a1b76c1aeedf1eadb87ede215650da37360001b62005cd3565b620183ad8982815181106201835957fe5b60200260200101516201839e8984815181106201837257fe5b60200260200101518c85815181106201838757fe5b60200260200101516200b08190919063ffffffff16565b6200b53190919063ffffffff16565b838281518110620183ba57fe5b602002602001018181525050620183f47f0c45792d95471237f09e241a7c3d1498f728ed41635c114a007de4bea0aca1ad60001b62005cd3565b620184227f219e6d68455518109538132874e3f7167da53222e5266b86763b5e52709b27e860001b62005cd3565b62018473620184638983815181106201843757fe5b60200260200101518584815181106201844c57fe5b60200260200101516200adc590919063ffffffff16565b8362005e0990919063ffffffff16565b91508080600101915050620182e2565b50620184b27f1940e2bee68c62f6b8518b171762807c5e90cb39536b6891dbcef2da208c51e360001b62005cd3565b620184e07f847aa1be8732517e4d2d20f68e47f58d1a27711f747dba6d35b50343e2aac63260001b62005cd3565b6000670de0b6b3a764000090506201851b7f984df5bbc5d32bbe51e4e4681404f20eeaff0c50e9b530de786ee2afb541614660001b62005cd3565b620185497fbde24a06ddedd521876f3e54f33199ea4ff3323678e52d420f3ceab803259f2f60001b62005cd3565b60005b895181101562018a0e57620185847f127349182e2c677ab14d2715ada87bf22649c2d10ace2edf416bd264c46fcae260001b62005cd3565b620185b27f8d60aba3b483638531e3fc39ee886465ad72d560a8f6f9e844c1ea0d69d45fc760001b62005cd3565b6000620185e27f27e2c124e4e3a25f77a317d7c3f8066194f04f57de273f80c135ad65d9fa5aa260001b62005cd3565b620186107f38a3ba603eede6f0178760180a61d2776ffe7f1eae093484be1dbad3b62ca54060001b62005cd3565b8482815181106201861d57fe5b602002602001015184111562018810576201865b7f99da50d627dab730c3c4913802523a8742b0851fee0758a53ab571303af21f5a60001b62005cd3565b620186897f423e60e98eb255e64c922aefdd04a119fdc1dcefe5c8099b6e42c677571099c460001b62005cd3565b620186b77f0b4155c8dbc57c2f974738c1bb0e420fc41b5604b907734a53a79b9d99e568d660001b62005cd3565b6000620186ec620186c8866200b47a565b8d8581518110620186d557fe5b6020026020010151620123e490919063ffffffff16565b90506201871c7f395a789fee3d89bbca3e4ad3a7bb46ff5a9a274d78228037322b479ed36cb12e60001b62005cd3565b6201874a7fd8ce3840be7f8f128d69f2a47c19a06d475b0d9b64e2ac8545ca95e200a3aee960001b62005cd3565b600062018775828c86815181106201875e57fe5b60200260200101516200b08190919063ffffffff16565b9050620187a57f391db81ee2982c010ab413b2e59d79430e85378afacce1c637f356736b2f3b6460001b62005cd3565b620187d37fa7333209b0e83225b22c485894174847a01341a0226a81399398f37968326d6d60001b62005cd3565b62018806620187f6620187e68b6200b47a565b836200b53190919063ffffffff16565b8362005e0990919063ffffffff16565b92505050620188b2565b6201883e7f4346a5937ded14cf2547fc54b10fab82a5d29fdfc2f887b245a5045bc4866bd260001b62005cd3565b6201886c7f0cb1c437f5acb1ad3badae4dc0e57bbff34672ca0351e36e70c80c4d104b77d160001b62005cd3565b6201889a7fa9ce00cfb70022264edd0e04a5918ec42e703af69a8d8b069b2aadfd86f5f47c60001b62005cd3565b888281518110620188a757fe5b602002602001015190505b620188e07f563481dce85b013b842ebf20b905b030e26bc3f2cc98e60d607dfa492e64e81060001b62005cd3565b6201890e7f2ea91a973f55f1304942c70cdedf54b29176476da767bbb550e4bbef0847c57f60001b62005cd3565b6000620189618c84815181106201892157fe5b602002602001015162018952848f87815181106201893b57fe5b60200260200101516200b08190919063ffffffff16565b6200987990919063ffffffff16565b9050620189917ffadc4101eba1df74f1f3b98b50b69588506bae3482f1574cbbdd197e022f1b4660001b62005cd3565b620189bf7f66bc382b0f1becc5edef409d01d177420ff2267bfc6f80e279c4c65d7e51ae3160001b62005cd3565b620189fc620189ec8c8581518110620189d457fe5b6020026020010151836201213290919063ffffffff16565b85620123e490919063ffffffff16565b9350505080806001019150506201854c565b5062018a3d7fa57a0b76652fa161e73054b12e368ef72e7619fc9b5805091c80efa4b988bec960001b62005cd3565b62018a6b7f9a2b434f9fb3c26e5625755377fbfa756957c736bce4f5bde1286d1c52ef5c4560001b62005cd3565b62018a8a62018a7a826200b47a565b876200adc590919063ffffffff16565b935050505095945050505050565b6060600062018aca7faf142c0b4ea1b85e0b92f4b8a8e9e210a89c67f2964ef0b26fd3ce1fe742444e60001b62014f6e565b62018af87f5fd0566b8f07d531d5bbd67749f54c170020c7390a93e328ffe8a4667ae6c5e860001b62014f6e565b62018b267fd43ab545278e301bef3fa7973f31a95ebd21d868c6fc049f33083780da0e423d60001b62014f6e565b8280602001905181019062018b3c91906201aad5565b9091508092508193505050915091565b600062018b7c7f7eb9be3c1534081788cc24d299e8b65cf67c8ade5418b5d08780467b3959d26660001b62005cd3565b62018baa7fc4a0d7b2b3288598e1b3010fcf1bad85d12b21c7be855c3288f75e9888aeeda660001b62005cd3565b62018bd87f746f34b045b4eee1952ba65eb6b7f85eeaec6a738464956514c86495d81e145560001b62005cd3565b6060845167ffffffffffffffff8111801562018bf357600080fd5b5060405190808252806020026020018201604052801562018c235781602001602082028036833780820191505090505b50905062018c547f77ed2efdb94174a5627de4610477ea355e09d7b40b47a00a3f8d78037ad82cad60001b62005cd3565b62018c827f524291cb3aa2185f77a72ba059f32492afc542a90f0d70811738de33b02ec45160001b62005cd3565b600062018cb27fd52bb03ecfdf89ef30ec80f5571a7255a6a6f388554155defc30cf118add3e3560001b62005cd3565b62018ce07f11f0141f13718f4307ff5d059ce12fa8e2900b34697f0ff0bfa32dc818c4d0fb60001b62005cd3565b60005b885181101562018e845762018d1b7fb95f1908637ede6e496a928f650d7bfde76d8b9f0609d2cdab9324a3fb7e075260001b62005cd3565b62018d497ffdd694f8839df810538d236e2cc8051c3e86a2cc7fa3b3e9e99024a023db8a1060001b62005cd3565b62018dae89828151811062018d5a57fe5b602002602001015162018d9f89848151811062018d7357fe5b60200260200101518c858151811062018d8857fe5b602002602001015162005e0990919063ffffffff16565b6200987990919063ffffffff16565b83828151811062018dbb57fe5b60200260200101818152505062018df57fb8fae5f52a9da845ef9e702f91fd178efd45858f5f129092cfc9d2bfef12eadb60001b62005cd3565b62018e237f1000c20627c864669510f0543da247225c6760588ed4a20de1dd713330b1f9ed60001b62005cd3565b62018e7462018e6489838151811062018e3857fe5b602002602001015185848151811062018e4d57fe5b6020026020010151620123e490919063ffffffff16565b8362005e0990919063ffffffff16565b9150808060010191505062018ce3565b5062018eb37f1e246118b770fc8deaa46553538c4106b900e9e35befde1cebbca8fd35e607da60001b62005cd3565b62018ee17fea523fcc9a54e6904975463260c03a5915f403e1c903420fc51eb2a8f296379060001b62005cd3565b6000670de0b6b3a7640000905062018f1c7f4db2ca3b50f2cf711bc902a68418ba52d9ded67014141625e55a68469c4d3f9460001b62005cd3565b62018f4a7fd742a34c38d89717c19ce496c1d583341af849111afc540cd935c43e9b87175d60001b62005cd3565b60005b8951811015620194335762018f857f769c4601ae768b4a3ca3ebdb1361abb85302adf196e78a8303f940d91bb1c5e660001b62005cd3565b62018fb37fc763b1b996af29e3bbb536213317f511487247a0cfeb920fcb84119db33636bb60001b62005cd3565b600062018fe37f4521cc2292d0922c18aaa0b835b8f5c71b138d83f29c5f86e96dfbb44d5c1c1a60001b62005cd3565b620190117fec3fea5db72b609c048b10fd0f83577c41fb08f4385f66e6f085d443c097ca7860001b62005cd3565b838583815181106201901f57fe5b6020026020010151111562019235576201905c7f91546f39259a63905e59d0dfe2df949a5bf83cff7fe262d53b53b86c961d59ba60001b62005cd3565b6201908a7f80538aff9299e168f126f52eae706f3d09bf4a379c131ba2a0fb2e82647e930f60001b62005cd3565b620190b87f48d8da206e9aaf4c340628f6cf04e43396252c3d04a9325ea8047e8ae72912f560001b62005cd3565b6000620190ff620190db670de0b6b3a7640000876200b08190919063ffffffff16565b8d8581518110620190e857fe5b6020026020010151620123e490919063ffffffff16565b90506201912f7fc0ca01b1c9f1e21c1c9988b5dd6d8d21f70f42d4e734c8d809528c3fc6d7556660001b62005cd3565b6201915d7ff762c1af6493e002f57f5a23bdbdb5abb749daa1f7d1e8bce80d5179f83f37e960001b62005cd3565b600062019188828c86815181106201917157fe5b60200260200101516200b08190919063ffffffff16565b9050620191b87fb327a2f3d78dfe765dd8f56482c48861af8c7b66008d2673c686d5d4f212be7560001b62005cd3565b620191e67fec33de8fb0617e88aff720d2a4abb546c8558ac64c4c1b3d371e5b5551c858bb60001b62005cd3565b6201922b6201921b6201920b8b670de0b6b3a76400006200b08190919063ffffffff16565b83620123e490919063ffffffff16565b8362005e0990919063ffffffff16565b92505050620192d7565b620192637fe8945ea4ee4cb57625e7f294db852988a8b208382f1f431e410dba74d5a256dd60001b62005cd3565b620192917fcd8584ab6198363be540597e27d7e5395b6fb4e53e928bfd16219460e1e7c38260001b62005cd3565b620192bf7f2ce0a9f7f953732e5649f671bcb6bdb0d65bbb4165cbf48c9133731bf09e583360001b62005cd3565b888281518110620192cc57fe5b602002602001015190505b620193057f4b5af8a794df96513bfb65d0599b4e5a7caa392552e532631d26d52eef15be3960001b62005cd3565b620193337fbade6d213b27b82270c7f995ddc99ce238a443edc783b82aba640a5a8b3409b360001b62005cd3565b6000620193868c84815181106201934657fe5b602002602001015162019377848f87815181106201936057fe5b602002602001015162005e0990919063ffffffff16565b6200987990919063ffffffff16565b9050620193b67f7cc4af574a5ece999d29b9d1fa76c04ba9bf9c596dabb8a1c0c7a52cf4ece8c160001b62005cd3565b620193e47f70472885f0feb73bd27e516038551b912df1e88992d9d89b6f52f0ad88cf7bda60001b62005cd3565b62019421620194118c8581518110620193f957fe5b6020026020010151836201213290919063ffffffff16565b85620123e490919063ffffffff16565b93505050808060010191505062018f4d565b50620194627fac8ce77947f7137c79f708db9ecc7df6754568c16424dbed31494b29fbd16c2260001b62005cd3565b620194907f29e28796a8c268224079eae95086d8139d313ee0725c958c1b071ce8aa37b80c60001b62005cd3565b670de0b6b3a764000081106201956657620194ce7fb849567bd95bdd285e8ffe2243499e2febeec17a598d36d57f073a6ec2e50ab660001b62005cd3565b620194fc7fd40392c8bcafabcde511ff960b8745d7ecbfd874f63e76a49d5ee516044bc83e60001b62005cd3565b6201952a7feb66fb9605f368bc86017a5e6c85b2c3b2f1fdeffc8ca16da469ed30c76e9ddb60001b62005cd3565b6201955b6201954b670de0b6b3a7640000836200b08190919063ffffffff16565b87620123e490919063ffffffff16565b9350505050620195f8565b620195947f43895df9fa30e7fa67c1ba19cb1b713c7a66926996207499fb6bd20bb5c7c37a60001b62005cd3565b620195c27f24c1ca4f25a9c930aebdb6973732cfd2e0c3b4af82870157b9fa613d201fbbdc60001b62005cd3565b620195f07fd9ee1bfd9b773abe56035addebedf868504a4b936aa6d176e6d3d37f356d849260001b62005cd3565b600093505050505b95945050505050565b600080620196327f6eda586d4df8c99414314e0fae2856105e9f667817c81738d30de2160b29c32e60001b62014f6e565b620196607f6d9e017b36124da3fd4fd2ffdb8523a11ddefca96df4a2642a1c0431ef2d542e60001b62014f6e565b6201968e7f3ef2860f565e7521e770d889fec35c98235802a26873f2104ff9a4178c16529860001b62014f6e565b82806020019051810190620196a491906201ab44565b9091508092508193505050915091565b6000620196e47f23c65b1b43196175e7ddd79740a316a023b4e4a3609d2bc45dc5ca137076da9e60001b62005cd3565b620197127f11ef2df284fe68ec6637c0d3a6a0dae6baef5cf4e55a5819cca7b15d73777e1e60001b62005cd3565b620197407fbae82b361e0fd07fecd58fac5fdb6e03db707d2509f0fe7552493de1c1245f9260001b62005cd3565b60006201976b846201975c878762005e0990919063ffffffff16565b6200b53190919063ffffffff16565b90506201979b7f13cbf42c80a1969adc3e5267c99c73229bd97b745c2ac869f2c5adcf63f6397d60001b62005cd3565b620197c97fc25c5650afdfc0149e6bc866de7c51bde773576f1ae55c2e3e4755b2b22015c160001b62005cd3565b620197e26729a2241af62c000082111561013362006d16565b620198107f220406622f9877873c5fd2ed240ce4e5e81446902ade6a0d200e16b544366a2e60001b62005cd3565b6201983e7fd41ebb31e0888cba1a2d3fae452b7f929d37340dce9ca2fb5001d0398bf4a6df60001b62005cd3565b6000620198716201986188670de0b6b3a76400006200b53190919063ffffffff16565b836201452690919063ffffffff16565b9050620198a17f23a9eab2b2f1eca942cfe918bbdf1b6db31b14a1bec8c5afd5731d5cdba8831f60001b62005cd3565b620198cf7f1a4b88ac58e995db9c96c109d30eee1cddd584fffe078ab10e2b8503839ad5d160001b62005cd3565b600062019902620198f2670de0b6b3a7640000846200b08190919063ffffffff16565b8a6200adc590919063ffffffff16565b9050620199327f6d52f474333d1eaf81d6b83a6c41ff9fdaa225fbd44bff2165e1d083026bcff560001b62005cd3565b620199607fdfb9a766109de01c0e0ebec7393949c225eed9b09907fd74431f973356b6fb6260001b62005cd3565b60006201996d896200b47a565b90506201999d7f3baf06c00dd6a0c4f6f9a81bd5f0b94984fb49c45bf74d1337b019d429ef797460001b62005cd3565b620199cb7f4a7f97d579feca9fb8e91074d37ffff93c1c033b653ae2f45de0a6bfe916010260001b62005cd3565b6000620199e282846200adc590919063ffffffff16565b905062019a127f33a286dc4d46f09950249627b9c7d86c925e3fa55d929ef4316ee677e909552d60001b62005cd3565b62019a407f7ea2f92392ff4c53693f0bea53717a1f1b0c442a179aaa9da80e4d25c7cd2a9b60001b62005cd3565b600062019a5782856200b08190919063ffffffff16565b905062019a877fad319cf3cb330ae97d03c6d12234cc6ff090b3962f4d031022fbf0a54eef9f0d60001b62005cd3565b62019ab57fe4d8292d428467e67bf66d3dd34b7b9eb5c0d9839fb696148f2305532962d55760001b62005cd3565b62019ae862019ad862019ac88a6200b47a565b846200b53190919063ffffffff16565b8262005e0990919063ffffffff16565b965050505050505095945050505050565b600062019b297f649ca651c71968af6497aa628d5397679ef5f20e9f964a86db2933013cc71ac660001b62010b21565b62019b577f9d26952706dc6192eced1c7dec8db60ee211e5ffa9109766f71a55b8dfbb47e160001b62010b21565b62019b857f623777a5235002056218700a3ad975e222e9f3e6ec183867e13d258977d3471460001b62010b21565b62019b9b60008362019c3290919063ffffffff16565b62019bb1601f8562019ccd90919063ffffffff16565b62019bc760548762019d7090919063ffffffff16565b62019bdd606a8962019ccd90919063ffffffff16565b62019bf3609f8b62019d7090919063ffffffff16565b62019c0960b58d62019ccd90919063ffffffff16565b62019c1f60ea8f62019d7090919063ffffffff16565b1717171717179050979650505050505050565b600062019c627f5ed75e54529047e84a5f3a87a2a37d2ee1994039312bc7baa2bbfa53ba55a73060001b6200c876565b62019c907f33b4ac5cafdb9d766605809d416b653443a75d0060312cf5f543d767fe6f7e1a60001b6200c876565b62019cbe7fa8423cd9d13faa582ec64bfc181cd0377b68190a84c0cfd835129cb3f8b0916b60001b6200c876565b8183901b60001b905092915050565b600062019cfc7e4065a2d0358f6aa81ec89fddcc89ed7cf5baa4639db73651c23de9eb47e57460001b6200c876565b62019d2a7f249435d51dfef3bc8de8c03d2a633a7f5588fc02e6c38a52ad49f731a28ee94960001b6200c876565b62019d587fe40188c5a44fcf77a9e869155b4db27643db4579e3c857383f7ebc565e1a48ad60001b6200c876565b81661fffffffffffff8416901b60001b905092915050565b600062019da07f74aef389e1493cdff3c49fdfc7f7b37cb3080c24489d7da8f153a0c1d7b9341660001b6200c876565b62019dce7f9c6420a9a8ba58e4ca69822beaa1b00ab80ada46b733a3ed72ededed2fc5fab060001b6200c876565b62019dfc7f694c63d49888b3f9a69d40aa2c1978fbad4ba281042d48dd5c69ac505ba1ee6f60001b6200c876565b81623fffff8416901b60001b905092915050565b60405180606001604052806000600281111562019e2957fe5b815260200160008152602001600081525090565b60405180604001604052806000600281111562019e5657fe5b8152602001600081525090565b60008135905062019e74816201b6ba565b92915050565b600082601f83011262019e8c57600080fd5b815162019ea362019e9d826201b3cc565b6201b39e565b9150818183526020840193506020810190508385602084028201111562019ec957600080fd5b60005b8381101562019efd578162019ee288826201a221565b84526020840193506020830192505060018101905062019ecc565b5050505092915050565b600082601f83011262019f1957600080fd5b813562019f3062019f2a826201b3f5565b6201b39e565b9150818183526020840193506020810190508385604084028201111562019f5657600080fd5b60005b8381101562019f8a578162019f6f88826201a294565b84526020840193506040830192505060018101905062019f59565b5050505092915050565b600082601f83011262019fa657600080fd5b813562019fbd62019fb7826201b41e565b6201b39e565b9150818183526020840193506020810190508385606084028201111562019fe357600080fd5b60005b838110156201a017578162019ffc88826201a2e7565b84526020840193506060830192505060018101905062019fe6565b5050505092915050565b600082601f8301126201a03357600080fd5b81356201a04a6201a044826201b447565b6201b39e565b915081818352602084019350602081019050838560208402820111156201a07057600080fd5b60005b838110156201a0a457816201a08988826201a45a565b8452602084019350602083019250506001810190506201a073565b5050505092915050565b600082601f8301126201a0c057600080fd5b81516201a0d76201a0d1826201b447565b6201b39e565b915081818352602084019350602081019050838560208402820111156201a0fd57600080fd5b60005b838110156201a13157816201a11688826201a471565b8452602084019350602083019250506001810190506201a100565b5050505092915050565b6000813590506201a14c816201b6d4565b92915050565b6000815190506201a163816201b6d4565b92915050565b6000813590506201a17a816201b6ee565b92915050565b6000813590506201a191816201b708565b92915050565b600082601f8301126201a1a957600080fd5b81356201a1c06201a1ba826201b470565b6201b39e565b915080825260208301602083018583830111156201a1dd57600080fd5b6201a1ea8382846201b650565b50505092915050565b6000815190506201a204816201b722565b92915050565b6000813590506201a21b816201b73c565b92915050565b6000815190506201a232816201b73c565b92915050565b6000815190506201a249816201b756565b92915050565b6000815190506201a260816201b767565b92915050565b6000813590506201a277816201b778565b92915050565b6000813590506201a28e816201b789565b92915050565b6000604082840312156201a2a757600080fd5b6201a2b360406201b39e565b905060006201a2c5848285016201a27d565b60008301525060206201a2db848285016201a45a565b60208301525092915050565b6000606082840312156201a2fa57600080fd5b6201a30660606201b39e565b905060006201a318848285016201a27d565b60008301525060206201a32e848285016201a45a565b60208301525060406201a344848285016201a45a565b60408301525092915050565b600061012082840312156201a36457600080fd5b6201a3716101206201b39e565b905060006201a383848285016201a266565b60008301525060206201a399848285016201a20a565b60208301525060406201a3af848285016201a20a565b60408301525060606201a3c5848285016201a45a565b60608301525060806201a3db848285016201a169565b60808301525060a06201a3f1848285016201a45a565b60a08301525060c06201a4078482850162019e63565b60c08301525060e06201a41d8482850162019e63565b60e08301525061010082013567ffffffffffffffff8111156201a43f57600080fd5b6201a44d848285016201a197565b6101008301525092915050565b6000813590506201a46b816201b79a565b92915050565b6000815190506201a482816201b79a565b92915050565b6000813590506201a499816201b7b4565b92915050565b6000602082840312156201a4b257600080fd5b60006201a4c28482850162019e63565b91505092915050565b600080604083850312156201a4df57600080fd5b60006201a4ef8582860162019e63565b92505060206201a5028582860162019e63565b9150509250929050565b6000806000606084860312156201a52257600080fd5b60006201a5328682870162019e63565b93505060206201a5458682870162019e63565b92505060406201a558868287016201a45a565b9150509250925092565b600080600080600080600060e0888a0312156201a57e57600080fd5b60006201a58e8a828b0162019e63565b97505060206201a5a18a828b0162019e63565b96505060406201a5b48a828b016201a45a565b95505060606201a5c78a828b016201a45a565b94505060806201a5da8a828b016201a488565b93505060a06201a5ed8a828b016201a169565b92505060c06201a6008a828b016201a169565b91505092959891949750929550565b600080604083850312156201a62357600080fd5b60006201a6338582860162019e63565b92505060206201a646858286016201a45a565b9150509250929050565b6000806000606084860312156201a66657600080fd5b600084015167ffffffffffffffff8111156201a68157600080fd5b6201a68f8682870162019e7a565b935050602084015167ffffffffffffffff8111156201a6ad57600080fd5b6201a6bb868287016201a0ae565b92505060406201a6ce868287016201a471565b9150509250925092565b6000602082840312156201a6eb57600080fd5b600082013567ffffffffffffffff8111156201a70657600080fd5b6201a7148482850162019f07565b91505092915050565b6000602082840312156201a73057600080fd5b600082013567ffffffffffffffff8111156201a74b57600080fd5b6201a7598482850162019f94565b91505092915050565b6000602082840312156201a77557600080fd5b60006201a785848285016201a13b565b91505092915050565b6000602082840312156201a7a157600080fd5b60006201a7b1848285016201a152565b91505092915050565b6000602082840312156201a7cd57600080fd5b60006201a7dd848285016201a169565b91505092915050565b600080600080600080600060e0888a0312156201a80257600080fd5b60006201a8128a828b016201a169565b97505060206201a8258a828b0162019e63565b96505060406201a8388a828b0162019e63565b955050606088013567ffffffffffffffff8111156201a85657600080fd5b6201a8648a828b016201a021565b94505060806201a8778a828b016201a45a565b93505060a06201a88a8a828b016201a45a565b92505060c088013567ffffffffffffffff8111156201a8a857600080fd5b6201a8b68a828b016201a197565b91505092959891949750929550565b6000602082840312156201a8d857600080fd5b60006201a8e8848285016201a180565b91505092915050565b6000602082840312156201a90457600080fd5b60006201a914848285016201a1f3565b91505092915050565b6000602082840312156201a93057600080fd5b60006201a940848285016201a238565b91505092915050565b6000806000606084860312156201a95f57600080fd5b60006201a96f868287016201a238565b935050602084015167ffffffffffffffff8111156201a98d57600080fd5b6201a99b868287016201a0ae565b92505060406201a9ae868287016201a471565b9150509250925092565b600080604083850312156201a9cc57600080fd5b60006201a9dc858286016201a238565b92505060206201a9ef858286016201a471565b9150509250929050565b6000806000606084860312156201aa0f57600080fd5b60006201aa1f868287016201a238565b93505060206201aa32868287016201a471565b92505060406201aa45868287016201a471565b9150509250925092565b6000602082840312156201aa6257600080fd5b60006201aa72848285016201a24f565b91505092915050565b600080604083850312156201aa8f57600080fd5b60006201aa9f858286016201a24f565b925050602083015167ffffffffffffffff8111156201aabd57600080fd5b6201aacb858286016201a0ae565b9150509250929050565b6000806000606084860312156201aaeb57600080fd5b60006201aafb868287016201a24f565b935050602084015167ffffffffffffffff8111156201ab1957600080fd5b6201ab27868287016201a0ae565b92505060406201ab3a868287016201a471565b9150509250925092565b6000806000606084860312156201ab5a57600080fd5b60006201ab6a868287016201a24f565b93505060206201ab7d868287016201a471565b92505060406201ab90868287016201a471565b9150509250925092565b6000602082840312156201abad57600080fd5b60006201abbd848285016201a27d565b91505092915050565b6000806000606084860312156201abdc57600080fd5b600084013567ffffffffffffffff8111156201abf757600080fd5b6201ac05868287016201a350565b93505060206201ac18868287016201a45a565b92505060406201ac2b868287016201a45a565b9150509250925092565b6000602082840312156201ac4857600080fd5b60006201ac58848285016201a45a565b91505092915050565b60006201ac6f83836201ae1d565b60208301905092915050565b60006201ac8983836201aec2565b60208301905092915050565b6201aca0816201b541565b82525050565b60006201acb3826201b4bd565b6201acbf81856201b4f8565b93506201accc836201b49d565b8060005b838110156201ad035781516201ace788826201ac61565b97506201acf4836201b4de565b9250506001810190506201acd0565b5085935050505092915050565b60006201ad1d826201b4c8565b6201ad2981856201b509565b93506201ad36836201b4ad565b8060005b838110156201ad6d5781516201ad5188826201ac7b565b97506201ad5e836201b4eb565b9250506001810190506201ad3a565b5085935050505092915050565b6201ad85816201b555565b82525050565b6201ad96816201b561565b82525050565b6201adb16201adab826201b561565b6201b695565b82525050565b6201adcc6201adc6826201b56b565b6201b69f565b82525050565b60006201ade083856201b51a565b93506201adef8385846201b650565b82840190509392505050565b6201ae06816201b600565b82525050565b6201ae17816201b628565b82525050565b6201ae28816201b5bf565b82525050565b6201ae39816201b5bf565b82525050565b60006201ae4c826201b4d3565b6201ae5881856201b525565b93506201ae6a8185602086016201b65f565b6201ae75816201b6a9565b840191505092915050565b60006201ae8f6002836201b536565b91507f19010000000000000000000000000000000000000000000000000000000000006000830152600282019050919050565b6201aecd816201b5e9565b82525050565b6201aede816201b5e9565b82525050565b6201aeef816201b5f3565b82525050565b60006201af0382856201ad9c565b6020820191506201af1582846201adb7565b6004820191508190509392505050565b60006201af348284866201add2565b91508190509392505050565b60006201af4d826201ae80565b91506201af5b82856201ad9c565b6020820191506201af6d82846201ad9c565b6020820191508190509392505050565b60006020820190506201af9460008301846201ac95565b92915050565b600060208201905081810360008301526201afb681846201aca6565b905092915050565b600060208201905081810360008301526201afda81846201ad10565b905092915050565b600060408201905081810360008301526201affe81856201ad10565b905081810360208301526201b01481846201ad10565b90509392505050565b60006020820190506201b03460008301846201ad7a565b92915050565b60006060820190506201b05160008301866201ad7a565b6201b06060208301856201aed3565b6201b06f60408301846201aed3565b949350505050565b60006020820190506201b08e60008301846201ad8b565b92915050565b60006060820190506201b0ab60008301866201ad8b565b6201b0ba60208301856201ac95565b6201b0c960408301846201ac95565b949350505050565b600060c0820190506201b0e860008301896201ad8b565b6201b0f760208301886201ac95565b6201b10660408301876201ac95565b6201b11560608301866201aed3565b6201b12460808301856201aed3565b6201b13360a08301846201aed3565b979650505050505050565b600060a0820190506201b15560008301886201ad8b565b6201b16460208301876201ad8b565b6201b17360408301866201ad8b565b6201b18260608301856201aed3565b6201b19160808301846201ac95565b9695505050505050565b60006080820190506201b1b260008301876201ad8b565b6201b1c160208301866201aee4565b6201b1d060408301856201ad8b565b6201b1df60608301846201ad8b565b95945050505050565b60006020820190506201b1ff60008301846201adfb565b92915050565b60006020820190506201b21c60008301846201ae0c565b92915050565b600060e0820190506201b239600083018a6201ae2e565b6201b24860208301896201ae2e565b6201b25760408301886201ae2e565b6201b26660608301876201ae2e565b6201b27560808301866201ae2e565b6201b28460a08301856201ae2e565b6201b29360c08301846201aed3565b98975050505050505050565b600060c0820190506201b2b660008301896201ae2e565b6201b2c560208301886201ae2e565b6201b2d460408301876201aed3565b6201b2e360608301866201aed3565b6201b2f260808301856201ad7a565b6201b30160a08301846201aed3565b979650505050505050565b600060208201905081810360008301526201b32881846201ae3f565b905092915050565b60006020820190506201b34760008301846201aed3565b92915050565b60006040820190506201b36460008301856201aed3565b81810360208301526201b37881846201ad10565b90509392505050565b60006020820190506201b39860008301846201aee4565b92915050565b6000604051905081810181811067ffffffffffffffff821117156201b3c257600080fd5b8060405250919050565b600067ffffffffffffffff8211156201b3e457600080fd5b602082029050602081019050919050565b600067ffffffffffffffff8211156201b40d57600080fd5b602082029050602081019050919050565b600067ffffffffffffffff8211156201b43657600080fd5b602082029050602081019050919050565b600067ffffffffffffffff8211156201b45f57600080fd5b602082029050602081019050919050565b600067ffffffffffffffff8211156201b48857600080fd5b601f19601f8301169050602081019050919050565b6000819050602082019050919050565b6000819050602082019050919050565b600081519050919050565b600081519050919050565b600081519050919050565b6000602082019050919050565b6000602082019050919050565b600082825260208201905092915050565b600082825260208201905092915050565b600081905092915050565b600082825260208201905092915050565b600081905092915050565b60006201b54e826201b5c9565b9050919050565b60008115159050919050565b6000819050919050565b60007fffffffff0000000000000000000000000000000000000000000000000000000082169050919050565b60006201b5a4826201b541565b9050919050565b60006201b5b8826201b541565b9050919050565b6000819050919050565b600073ffffffffffffffffffffffffffffffffffffffff82169050919050565b6000819050919050565b600060ff82169050919050565b60006201b60d826201b614565b9050919050565b60006201b621826201b5c9565b9050919050565b60006201b635826201b63c565b9050919050565b60006201b649826201b5c9565b9050919050565b82818337600083830152505050565b60005b838110156201b67f5780820151818401526020810190506201b662565b838111156201b68f576000848401525b50505050565b6000819050919050565b6000819050919050565b6000601f19601f8301169050919050565b6201b6c5816201b541565b81146201b6d157600080fd5b50565b6201b6df816201b555565b81146201b6eb57600080fd5b50565b6201b6f9816201b561565b81146201b70557600080fd5b50565b6201b713816201b56b565b81146201b71f57600080fd5b50565b6201b72d816201b597565b81146201b73957600080fd5b50565b6201b747816201b5ab565b81146201b75357600080fd5b50565b600381106201b76457600080fd5b50565b600381106201b77557600080fd5b50565b600281106201b78657600080fd5b50565b600381106201b79757600080fd5b50565b6201b7a5816201b5e9565b81146201b7b157600080fd5b50565b6201b7bf816201b5f3565b81146201b7cb57600080fd5b5056fea26469706673582212203ba7a91a720fc16c36ecd0e035956e694061fda2c9a9d4d11cf1348de90ac25064736f6c63430007010033a264697066735822122055a0f935ab2bbe7b3e71070caa34fadac9f5ba130a780274968bf1b002475acb64736f6c63430007010033",
  "linkReferences": {},
  "deployedLinkReferences": {}
}