{
  "_format": "hh-sol-artifact-1",
  "contractName": "WeightedPool2TokensFactory",
  "sourceName": "contracts/balancer-core-v2/pools/weighted/WeightedPool2TokensFactory.sol",
  "abi": [
    {
      "inputs": [
        {
          "internalType": "contract IVault",
          "name": "vault",
          "type": "address"
        }
      ],
      "stateMutability": "nonpayable",
      "type": "constructor"
    },
    {
      "anonymous": false,
      "inputs": [
        {
          "indexed": true,
          "internalType": "address",
          "name": "pool",
          "type": "address"
        }
      ],
      "name": "PoolCreated",
      "type": "event"
    },
    {
      "inputs": [
        {
          "internalType": "bytes32",
          "name": "c__0x590f67b9",
          "type": "bytes32"
        }
      ],
      "name": "c_0x590f67b9",
      "outputs": [],
      "stateMutability": "pure",
      "type": "function"
    },
    {
      "inputs": [
        {
          "internalType": "bytes32",
          "name": "c__0x60b2f770",
          "type": "bytes32"
        }
      ],
      "name": "c_0x60b2f770",
      "outputs": [],
      "stateMutability": "pure",
      "type": "function"
    },
    {
      "inputs": [
        {
          "internalType": "bytes32",
          "name": "c__0xeb049afd",
          "type": "bytes32"
        }
      ],
      "name": "c_0xeb049afd",
      "outputs": [],
      "stateMutability": "pure",
      "type": "function"
    },
    {
      "inputs": [
        {
          "internalType": "string",
          "name": "name",
          "type": "string"
        },
        {
          "internalType": "string",
          "name": "symbol",
          "type": "string"
        },
        {
          "internalType": "contract IERC20[]",
          "name": "tokens",
          "type": "address[]"
        },
        {
          "internalType": "uint256[]",
          "name": "weights",
          "type": "uint256[]"
        },
        {
          "internalType": "uint256",
          "name": "swapFeePercentage",
          "type": "uint256"
        },
        {
          "internalType": "bool",
          "name": "oracleEnabled",
          "type": "bool"
        },
        {
          "internalType": "address",
          "name": "owner",
          "type": "address"
        }
      ],
      "name": "create",
      "outputs": [
        {
          "internalType": "address",
          "name": "",
          "type": "address"
        }
      ],
      "stateMutability": "nonpayable",
      "type": "function"
    },
    {
      "inputs": [],
      "name": "getPauseConfiguration",
      "outputs": [
        {
          "internalType": "uint256",
          "name": "pauseWindowDuration",
          "type": "uint256"
        },
        {
          "internalType": "uint256",
          "name": "bufferPeriodDuration",
          "type": "uint256"
        }
      ],
      "stateMutability": "view",
      "type": "function"
    },
    {
      "inputs": [],
      "name": "getVault",
      "outputs": [
        {
          "internalType": "contract IVault",
          "name": "",
          "type": "address"
        }
      ],
      "stateMutability": "view",
      "type": "function"
    },
    {
      "inputs": [
        {
          "internalType": "address",
          "name": "pool",
          "type": "address"
        }
      ],
      "name": "isPoolFromFactory",
      "outputs": [
        {
          "internalType": "bool",
          "name": "",
          "type": "bool"
        }
      ],
      "stateMutability": "view",
      "type": "function"
    }
  ],
  "bytecode": "0x60c06040523480156200001157600080fd5b506040516201fc923803806201fc92833981810160405281019062000037919062000210565b806200006c7f61d8d8d76e53cf11747eb5cc988e0fe9b1709267ed98ac2f59e033ac0d91c06e60001b620001f060201b60201c565b620000a07f92d506d176a7be73820e02e0211d4846de34702cb02a50e31880dedcc69dabd860001b620001f060201b60201c565b620000d47f3cc5a119a31ba9785d885b932b2df040ea49b9781a4a6f89decbea6e983a13f960001b620001f060201b60201c565b8073ffffffffffffffffffffffffffffffffffffffff1660808173ffffffffffffffffffffffffffffffffffffffff1660601b8152505050620001407f9227e6082317ae70762066b36917a34a30c1cf63910f9bddfb8ae6807dbd0cc360001b620001f360201b60201c565b620001747fd2bcf66d6cb883ea581b854e4ea9c60cb1e80ca512dc4f3a106831fe4dfcaed860001b620001f360201b60201c565b620001a87f7ff12e0d0e7fc60e1ed37f46495db2b44f114ef6f2d6a8e1ec6551274cc9c91760001b620001f360201b60201c565b6276a700420160a08181525050620001e97f48ff78c29982e7a6bba38a53b70f81b887e0fdea11774c10794bffef7e37e07760001b620001f660201b60201c565b506200029e565b50565b50565b50565b6000815190506200020a8162000284565b92915050565b6000602082840312156200022357600080fd5b60006200023384828501620001f9565b91505092915050565b6000620002498262000264565b9050919050565b60006200025d826200023c565b9050919050565b600073ffffffffffffffffffffffffffffffffffffffff82169050919050565b6200028f8162000250565b81146200029b57600080fd5b50565b60805160601c60a0516201f9c6620002cc6000398061060d52806106c15250806109b252506201f9c66000f3fe60806040523480156200001157600080fd5b5060043610620000885760003560e01c80634d5719f211620000635780634d5719f214620001065780636561284214620001265780636634b75314620001465780638d928af8146200017c5762000088565b80631596019b146200008d57806321c26b8614620000c35780632da47c4014620000e3575b600080fd5b620000ab6004803603810190620000a5919062000e64565b6200019e565b604051620000ba919062001172565b60405180910390f35b620000e16004803603810190620000db919062000e38565b6200051a565b005b620000ed6200051d565b604051620000fd929190620011ed565b60405180910390f35b6200012460048036038101906200011e919062000e38565b6200083f565b005b6200014460048036038101906200013e919062000e38565b62000842565b005b6200016460048036038101906200015e919062000e0c565b62000845565b6040516200017391906200118f565b60405180910390f35b6200018662000924565b604051620001959190620011ac565b60405180910390f35b6000620001ce7f3017ec65571ef35894d9c6940834636c1916349b80e854ddad4ef0097217801b60001b6200083f565b620001fc7fd90e6eb661aed75b90a8e1a7504fec2311cfedc33b8ed707bd9ac36c5ebe8ccc60001b6200083f565b6200022a7f97dbd50648e3056428877291f9e68177f8d88f2293c3cc248d7d019835fbf91d60001b6200083f565b600080620002376200051d565b91509150620002697f313c6928bdb187e2cf4f0958e9988c1ddc01237e3c82a26ffbe0de7d71e3f41c60001b6200083f565b620002977f25903a0d03bac36cf0e90e57acc390d2f911b9b9d059325455fe579b8679541960001b6200083f565b620002a162000b59565b604051806101800160405280620002b762000924565b73ffffffffffffffffffffffffffffffffffffffff1681526020018c81526020018b81526020018a600081518110620002ec57fe5b602002602001015173ffffffffffffffffffffffffffffffffffffffff1681526020018a6001815181106200031d57fe5b602002602001015173ffffffffffffffffffffffffffffffffffffffff168152602001896000815181106200034e57fe5b60200260200101518152602001896001815181106200036957fe5b6020026020010151815260200188815260200184815260200183815260200187151581526020018673ffffffffffffffffffffffffffffffffffffffff168152509050620003da7f7d8779bb3ba94fd4a96e1cd9fdaba557364de0d42fa68b5578a63f1db1aefb8760001b6200083f565b620004087f73e7d482b06e27047591f7a85965e058d08915a84cfe892986059dff2cf2363160001b6200083f565b600081604051620004199062000c14565b620004259190620011c9565b604051809103906000f08015801562000442573d6000803e3d6000fd5b509050620004737f194ad9765e24c2a50f7c83505516273169c09cbd84904e599ef5ae30f4aef06860001b6200083f565b620004a17f909de5f0c32764b2141aa206b152410a3c4b51ce4b9fc3556009d8ceb9703edb60001b6200083f565b620004ac81620009d6565b620004da7fc54eff6651e02d580522d5f4bca5261ffd39256010620b0bd2ac01185efaba8160001b6200083f565b620005087ff56830c28e956289248d0e2aa2392b961108869c69c6194a348ebc0b6d8c2d5a60001b6200083f565b80945050505050979650505050505050565b50565b6000806200054e7f304f4209f5d9cc5a482e1ca5a7df2d42bca994fdf769d998397e4a4af7dcfa8d60001b62000842565b6200057c7fdc922ee7b71a9d3e888f77c160c83b50bcc5b74ea9b977011259395c4c3d72e460001b62000842565b620005aa7f7a541c6c13bed1b1d3c1ba3d9f50ca8a619218111c70bfa3572053155d73be5560001b62000842565b6000429050620005dd7fc6ad440d04a21ea30da140614f390be636bfa0068243701556b5d3e4b86a9c6d60001b62000842565b6200060b7fd30e6cb5fde6b23720faa07be47c32b0c5d915839cd5461627f78785c11dc20060001b62000842565b7f00000000000000000000000000000000000000000000000000000000000000008110156200074b57620006627f04247c40d49ca47238397f6153514252d26d0416409851b8a47e89b684def0dd60001b62000842565b620006907f503013b026351043029ca3a3655060b062e94e5a1bc415cebaea5de0873800a060001b62000842565b620006be7f22864d96cdbd341df6157f20ceae7060ec02e618a3c0b72f845704848ab1d52260001b62000842565b807f0000000000000000000000000000000000000000000000000000000000000000039250620007117fa933fe6792e89e9e6d94f93f8d51e416d8d2a47eddc16a0809d02179b79d5b6360001b62000842565b6200073f7f688d33b4b772515c7a6c45420b84ee27a1f81e38f481d5c60a9a0d729a5a50df60001b62000842565b62278d0091506200083a565b620007797fbc030c39ff87b3cf5ae8ba9dd94d9a9959e131a71db43632aad00f7057c76fe960001b62000842565b620007a77f370b381372420a3c997bc6e709d7fa8e3c2a151d6512bc9211586fd46145c1a260001b62000842565b620007d57f51647e26fc2b350fd3a82467466008cb2abc6046ab5e9cd3c2ffda1366e6f41660001b62000842565b60009250620008077f19062e600e46c9dbf7cda1a707c9a580928c7c649ce248613eaf7dd7d7e033fd60001b62000842565b620008357fd263e9c398687b8429d89272c38df73365789be30d4999ee374f1c450728097160001b62000842565b600091505b509091565b50565b50565b6000620008757fd3c8027702b236c24577353159cf1cc854587e22527d1cc344fa74b9000ef6a760001b6200051a565b620008a37f5d47cfa015c1ee674e7855e39fed5ca46afcfa21aa79b49372f856a4e7f993e260001b6200051a565b620008d17fd10411fe9dda4274317f0c686bb13cc42d2f79945879cfbed16ea7f2563cdfb360001b6200051a565b6000808373ffffffffffffffffffffffffffffffffffffffff1673ffffffffffffffffffffffffffffffffffffffff16815260200190815260200160002060009054906101000a900460ff169050919050565b6000620009547f6cd9030cda83876f8ac4e2a4d2807d2bfbc00591af3f2148a2a3fa1225f1d73960001b6200051a565b620009827f95d91e47f7037f4123dec087af5d2bcc805ef86fc4847fa477be455423a189c860001b6200051a565b620009b07fb5dd28f00893ee2beee98eb9bb0bc1ef9c3b950e349d1dc37ec77064d8b2e52960001b6200051a565b7f0000000000000000000000000000000000000000000000000000000000000000905090565b62000a047f8ef6eb68b8986d1cc1a47d4a43d933bb8b930b8b48846895ff2bec4ecfbe90c760001b6200051a565b62000a327ff7d218abc4d94c4d150bfa846ab5c328464d4fc70b77544343fca07f22fc6cc660001b6200051a565b62000a607f6e3037d80386ba9e51a28d62362bbbbcef8937ab15d9ba5ec250de724495dfe360001b6200051a565b60016000808373ffffffffffffffffffffffffffffffffffffffff1673ffffffffffffffffffffffffffffffffffffffff16815260200190815260200160002060006101000a81548160ff02191690831515021790555062000ae57f4081e062e44bb0e9b7b4c4eb9323939390c429da605edb9c924f72b0d2eb019f60001b6200051a565b62000b137fc3ac7cbdc23d571617d756697db35693a15fb867999cd0c8b2ca0e1d1f24dfa960001b6200051a565b8073ffffffffffffffffffffffffffffffffffffffff167f83a48fbcfc991335314e74d0496aab6a1987e992ddc85dddbcc4d6dd6ef2e9fc60405160405180910390a250565b604051806101800160405280600073ffffffffffffffffffffffffffffffffffffffff1681526020016060815260200160608152602001600073ffffffffffffffffffffffffffffffffffffffff168152602001600073ffffffffffffffffffffffffffffffffffffffff1681526020016000815260200160008152602001600081526020016000815260200160008152602001600015158152602001600073ffffffffffffffffffffffffffffffffffffffff1681525090565b6201e51d806200147483390190565b60008135905062000c3481620013f1565b92915050565b600082601f83011262000c4c57600080fd5b813562000c6362000c5d8262001248565b6200121a565b9150818183526020840193506020810190508385602084028201111562000c8957600080fd5b60005b8381101562000cbd578162000ca2888262000d82565b84526020840193506020830192505060018101905062000c8c565b5050505092915050565b600082601f83011262000cd957600080fd5b813562000cf062000cea8262001271565b6200121a565b9150818183526020840193506020810190508385602084028201111562000d1657600080fd5b60005b8381101562000d4a578162000d2f888262000df5565b84526020840193506020830192505060018101905062000d19565b5050505092915050565b60008135905062000d65816200140b565b92915050565b60008135905062000d7c8162001425565b92915050565b60008135905062000d93816200143f565b92915050565b600082601f83011262000dab57600080fd5b813562000dc262000dbc826200129a565b6200121a565b9150808252602083016020830185838301111562000ddf57600080fd5b62000dec8382846200139b565b50505092915050565b60008135905062000e068162001459565b92915050565b60006020828403121562000e1f57600080fd5b600062000e2f8482850162000c23565b91505092915050565b60006020828403121562000e4b57600080fd5b600062000e5b8482850162000d6b565b91505092915050565b600080600080600080600060e0888a03121562000e8057600080fd5b600088013567ffffffffffffffff81111562000e9b57600080fd5b62000ea98a828b0162000d99565b975050602088013567ffffffffffffffff81111562000ec757600080fd5b62000ed58a828b0162000d99565b965050604088013567ffffffffffffffff81111562000ef357600080fd5b62000f018a828b0162000c3a565b955050606088013567ffffffffffffffff81111562000f1f57600080fd5b62000f2d8a828b0162000cc7565b945050608062000f408a828b0162000df5565b93505060a062000f538a828b0162000d54565b92505060c062000f668a828b0162000c23565b91505092959891949750929550565b62000f8081620012e3565b82525050565b62000f9181620012e3565b82525050565b62000fa281620012f7565b82525050565b62000fb381620012f7565b82525050565b62000fc4816200134b565b82525050565b62000fd58162001373565b82525050565b62000fe68162001373565b82525050565b600062000ff982620012c7565b620010058185620012d2565b935062001017818560208601620013aa565b6200102281620013e0565b840191505092915050565b60006101808301600083015162001048600086018262000fca565b506020830151848203602086015262001062828262000fec565b915050604083015184820360408601526200107e828262000fec565b915050606083015162001095606086018262000fb9565b506080830151620010aa608086018262000fb9565b5060a0830151620010bf60a086018262001150565b5060c0830151620010d460c086018262001150565b5060e0830151620010e960e086018262001150565b506101008301516200110061010086018262001150565b506101208301516200111761012086018262001150565b506101408301516200112e61014086018262000f97565b506101608301516200114561016086018262000f75565b508091505092915050565b6200115b8162001341565b82525050565b6200116c8162001341565b82525050565b600060208201905062001189600083018462000f86565b92915050565b6000602082019050620011a6600083018462000fa8565b92915050565b6000602082019050620011c3600083018462000fdb565b92915050565b60006020820190508181036000830152620011e581846200102d565b905092915050565b600060408201905062001204600083018562001161565b62001213602083018462001161565b9392505050565b6000604051905081810181811067ffffffffffffffff821117156200123e57600080fd5b8060405250919050565b600067ffffffffffffffff8211156200126057600080fd5b602082029050602081019050919050565b600067ffffffffffffffff8211156200128957600080fd5b602082029050602081019050919050565b600067ffffffffffffffff821115620012b257600080fd5b601f19601f8301169050602081019050919050565b600081519050919050565b600082825260208201905092915050565b6000620012f08262001321565b9050919050565b60008115159050919050565b6000819050919050565b60006200131a82620012e3565b9050919050565b600073ffffffffffffffffffffffffffffffffffffffff82169050919050565b6000819050919050565b600062001358826200135f565b9050919050565b60006200136c8262001321565b9050919050565b6000620013808262001387565b9050919050565b6000620013948262001321565b9050919050565b82818337600083830152505050565b60005b83811015620013ca578082015181840152602081019050620013ad565b83811115620013da576000848401525b50505050565b6000601f19601f8301169050919050565b620013fc81620012e3565b81146200140857600080fd5b50565b6200141681620012f7565b81146200142257600080fd5b50565b620014308162001303565b81146200143c57600080fd5b50565b6200144a816200130d565b81146200145657600080fd5b50565b620014648162001341565b81146200147057600080fd5b5056fe6102a06040527f6e71edae12b1b97f4d1f60370fef10105fa2faae0126114a169c64845d6126c961012090815250348015630000003b57600080fd5b50604051630001e51d380380630001e51d83398181016040528101906300000065919063000026c3565b80610100015181610120015182602001518360400151816040518060400160405280600181526020017f31000000000000000000000000000000000000000000000000000000000000008152508661016001513373ffffffffffffffffffffffffffffffffffffffff1660001b63000001087f8ec5ed39e0277cf6b5ac7bfbea69561e0ab13d0f90291fda9f21b6ff5febaf0960001b630000150960201b60201c565b630000013e7fb3047d90d74037e2adb2df89b6f86a7b7c8bf74ab7f36f7e5570b17d25c7743060001b630000150960201b60201c565b63000001747fcde082662b671d959326c5490179744ff7f489da54d7e3b0e588ca9e6054959260001b630000150960201b60201c565b80608081815250505063000001b37f845048985995b7f1411d18d7948c02ec2bf5eca6401ba638adb4051af4c2191d60001b630000150c60201b60201c565b63000001e97fc3c8f60fc83d7d9090fdd911351f9190ebe429d000b024e9396070d2d78f428560001b630000150c60201b60201c565b630000021f7f1d167de1a75b4a1dca8359b7f4c17b1705cc862ce4d137f144168ec6e6a47fe560001b630000150c60201b60201c565b8073ffffffffffffffffffffffffffffffffffffffff1660a08173ffffffffffffffffffffffffffffffffffffffff1660601b8152505050630000028d7fee98174f2fec6f5039773d74e605ef9eca5c1cd66e97227a4db2801fa44649d460001b630000150f60201b60201c565b63000002c37f4259111439657f52cad82bf951b84cb17ad89c9a75c0a453b11471980df5b70460001b630000150f60201b60201c565b63000002f97f694727719f1c716e137bf99300414ab3971da34628c5fdb5e3aefb346ab250cd60001b630000150f60201b60201c565b818051906020012060c08181525050630000033e7fc80ca99f8a52e2364dede2f196e5eea0d3e5cbb3d39b3c583eabdce5b2eba33860001b630000150f60201b60201c565b63000003747fd79623f57f644f5deaf66895ac05cf4d0efe2db6dc309aa7731ca0cce6c6c42060001b630000150f60201b60201c565b808051906020012060e0818152505063000003b97f3595ce0dcb0082ced7c03525364c4e77b55c5765b539ff680b322eb52d68007860001b630000150f60201b60201c565b63000003ef7fce462f00afa59e5231a71f65b788fd6e74c839c46485038b23c5240219a6728160001b630000150f60201b60201c565b7f8b73c3c69bb8fe3d512ecc4cf759cc79239f7b179b0ffacaa9a75d522b39400f6101008181525050505063000004507f81b292b7c2f738fe1ef398ecf484c30fdcca7a1fa0fdcec6133e69f7d952feb760001b630000151260201b60201c565b63000004867f0e8922ff6774c4bdde3a74a12158ca1888e60f5a3c45555ddd81e8785d5ee3f260001b630000151260201b60201c565b63000004bc7f59e4bf632185b91833f20a14a0ad444be3eecf2ae84a218ca7bc6928a7ff258560001b630000151260201b60201c565b816003908051906020019063000004d6929190630000234a565b50630000050d7f28e246c5f6155f806e0edae691917dbdb6f861567b1c6bf6fd24b0d5c4ca1b7d60001b630000151260201b60201c565b63000005437f6f23c232081ae254a1779744f064adfc759d8456694b907fe454eb09fecd7c3c60001b630000151260201b60201c565b8060049080519060200190630000055d929190630000234a565b50505063000005967fe087a381d2efdf77b4bb9deb1d9c49dd7a7b8850352e08f2237b146ed960df0060001b630000151560201b60201c565b63000005cc7fd5bd2a2b38b208dfe30c35c9f2d296d8724d15c14b57d076eb3ed9864adf5cf260001b630000151560201b60201c565b63000006027f440b23f6eae421802afd826f944e150ff37cf67006559664d92ff81aac1bb4f260001b630000151560201b60201c565b630000061e6276a700831115610194630000151860201b60201c565b63000006547fa61c306c7b6e0fe7490bf46f0ac35a3616024e80a4df7a4bc45e6de19ba12b2760001b630000151560201b60201c565b630000068a7fcc5d9c2ea50b53fbc5bd55dd83fc9eabd468cdc54db709760ba22684ff909cf660001b630000151560201b60201c565b63000006a662278d00821115610195630000151860201b60201c565b63000006dc7f40a9c3d0b92872242e7f21fd6cf84e9cfff37a117dcf54fc2e2669e09e526ae160001b630000151560201b60201c565b63000007127f91f1dda37d727c42e393bf864dac6469eabb7aea93126d07fec6d3a883e966f160001b630000151560201b60201c565b60008242019050630000074f7fd10e525ab2b61302f916eb6f9b5bff8779466f7205e9f26f93dd222e4ff33cf960001b630000151560201b60201c565b63000007857f95e023026f40f7e8c70f2daf4b9c6a714fc77d1ca2c06f447b10468970058a8d60001b630000151560201b60201c565b80610140818152505063000007c47f7519a6a09b3a1dbb48879a23106bafbe17739672feffe0947a75620fdd70024660001b630000151560201b60201c565b63000007fa7f34afba99b9c10b73ccc93d9397070ac2cd56223e20282eba2d1237004c15be7260001b630000151560201b60201c565b8181016101608181525050505050630000083e7f2e3e1caa95629008fcdcacdd85b0f20b7168a00f0dc6b0ab48940add4bf391bc60001b630000153760201b60201c565b63000008747f5ccecd529e5b465d581632847d43a7e4c035d640b82d4df10f4f5ca2bf1a01a160001b630000153760201b60201c565b63000008aa7f1800e3a2bcf73ea91e655f933225d312411795f1e36abccda67d417ca8989c4b60001b630000153760201b60201c565b63000008c2816101400151630000153a60201b60201c565b63000008f87f3a088d0480281257b7f095e4b9f2f07403d91e66b1bad4b0e226a1303ac21b9560001b630000153760201b60201c565b630000092e7f3c4c8ebb70945cbdbce75003d7daa3b2e7d650e68b235b9386b57581808603b160001b630000153760201b60201c565b63000009458160e0015163000016ab60201b60201c565b630000097b7f954ade785744a3507a0a1fb4fa86daacaf801642d214c24619675d3f2357cff360001b630000153760201b60201c565b63000009b17f168e1d8bedf3136ae4065f6f308ccd1dda22e4dd1dabb63bac2bc19d56764e7260001b630000153760201b60201c565b6000816000015173ffffffffffffffffffffffffffffffffffffffff166309b2760f60026040518263ffffffff1660e01b815260040163000009f591906300002941565b602060405180830381600087803b1580156300000a1157600080fd5b505af11580156300000a27573d6000803e3d6000fd5b505050506040513d601f19601f820116820180604052508101906300000a4f91906300002694565b90506300000a877fe0c79d0a8e9bfb6e83bbe0e1eb456d41427d3bd38700179bf03c5f854e3bf46460001b630000153760201b60201c565b6300000abd7fa453226da79785c838e529246a6204cc17062b595ca3be76145db62cb726e7d960001b630000153760201b60201c565b6060600267ffffffffffffffff811180156300000ad957600080fd5b506040519080825280602002602001820160405280156300000b0a5781602001602082028036833780820191505090505b5090506300000b437fa6812cc42438d36e48f84dda236ca030035668317c5f7111ba9b3cd941eba7f060001b630000153760201b60201c565b6300000b797f18735522562e059073fdacd46bd5efdce4dea4b0d6ecb3b53be6c06f0c37af5960001b630000153760201b60201c565b8260600151816000815181106300000b8d57fe5b602002602001019073ffffffffffffffffffffffffffffffffffffffff16908173ffffffffffffffffffffffffffffffffffffffff16815250506300000bfd7fe0dd9c46db266d9a3dcfcf40fc579af7e9a5bdcfda310403b92b0179bf5214ba60001b630000153760201b60201c565b6300000c337f9faa9ddfaccdb72e3e58ff4f9fde5656fb5588be9ef7fb5fb3e557dabd0cdb9460001b630000153760201b60201c565b8260800151816001815181106300000c4757fe5b602002602001019073ffffffffffffffffffffffffffffffffffffffff16908173ffffffffffffffffffffffffffffffffffffffff16815250506300000cb77f31fb0edb867c193684413aa955a50966565e19e7c4ef5b493933e1d8676bc81b60001b630000153760201b60201c565b6300000ced7fa22eff79c7b6373e52593bad826f766f11b9d5278d1806c0e44d8854c73625a860001b630000153760201b60201c565b826000015173ffffffffffffffffffffffffffffffffffffffff166366a9c7d28383600267ffffffffffffffff811180156300000d2957600080fd5b506040519080825280602002602001820160405280156300000d5a5781602001602082028036833780820191505090505b506040518463ffffffff1660e01b81526004016300000d7d9392919063000028f0565b600060405180830381600087803b1580156300000d9957600080fd5b505af11580156300000daf573d6000803e3d6000fd5b505050506300000de97fa60fae2a0f8229321afcfd1b751fb8c7d2bfa1ac287c0a96aeedfc87b49973dd60001b630000153760201b60201c565b6300000e1f7f4c209739c9a352fbe9f412ab627117df10e8d4c2dbcece7bedf2567568cbbf5960001b630000153760201b60201c565b826000015173ffffffffffffffffffffffffffffffffffffffff166101808173ffffffffffffffffffffffffffffffffffffffff1660601b815250506300000e917f36c064a6978f8e4f7ecaf3a22af1d279835baa3f91bacd316746c6893aadf91860001b630000153760201b60201c565b6300000ec77f2da2bc484529a57d66d4843ce19d76970f9145dd0a0d6c5efd1bc95e3842bf6560001b630000153760201b60201c565b816101a081815250506300000f067f7f3c819bfb018a8f640d77306e70348528ec2a0876261cc03831dc2e928aa35d60001b630000153760201b60201c565b6300000f3c7ffc7df94a90124196b87f2daa1d4ffd90b8999e697c8b9507e09f0e6233788a6e60001b630000153760201b60201c565b826060015173ffffffffffffffffffffffffffffffffffffffff166101c08173ffffffffffffffffffffffffffffffffffffffff1660601b815250506300000fae7f6f2002cabc37958967330f834322df303fa33ca145042eac4898f2f0070cf3fe60001b630000153760201b60201c565b6300000fe47fd1c66a7ea3590dfe956579d1263bfa81485eb3f478a0a27288133b528665172460001b630000153760201b60201c565b826080015173ffffffffffffffffffffffffffffffffffffffff166101e08173ffffffffffffffffffffffffffffffffffffffff1660601b8152505063000010567fb005e77ac4d13cdd06ac13252adcd1e77e62c256e52a00edd9c2585e4685979560001b630000153760201b60201c565b630000108c7f791041b4f316715d950d98319d8d91b0e116b5d8407850b0045b7d70dab549a860001b630000153760201b60201c565b63000010a38360600151630000193160201b60201c565b610260818152505063000010e17f5b30d6e06bc917f642bcc8667ec1819e03cd151d5ce3fcd89e2e82a55480359a60001b630000153760201b60201c565b63000011177f9bb1b47732ccb49252ffaeaf8f769f8459f9f00fbaab8b1062c70be4710acbd560001b630000153760201b60201c565b630000112e8360800151630000193160201b60201c565b6102808181525050630000116c7f6446fadfee760b0e296f593857737b795f27bcf2253c13774a31e57deb0bffbf60001b630000153760201b60201c565b63000011a27fac46a91131e9ec4fa537c81d3214b12f26a05cc9fc748d26d8627f826f8db0b560001b630000153760201b60201c565b63000011c6662386f26fc100008460a00151101561012e630000151860201b60201c565b63000011fc7f4df3e404eb2a7294a78299233345921e760ebf33e24ed024306b3df49a4ee84d60001b630000153760201b60201c565b63000012327fb1b65b45a7be79a14b2388ef75dbe34f4c7bacb19efd33a3e87c03a185f0688d60001b630000153760201b60201c565b6300001256662386f26fc100008460c00151101561012e630000151860201b60201c565b630000128c7f8060647daff69c2c07b89d38698d5de65ab13d68ece7a5d71e10cb75d062253a60001b630000153760201b60201c565b63000012c27f180791033eda632be28349065a40d9129b1402e1da4b184ec163a700b5ea153c60001b630000153760201b60201c565b600063000012e98460c001518560a001516300001b6660201b6300005e0b1790919060201c565b905063000013217f30195285e80ddffee83dedad60a0db272460e67ef688122053ad1bff33e4bd9660001b630000153760201b60201c565b63000013577f66147336872c2726d4c1c7c6f8de961e54595563d3d5b38a260c6eed096ddf1660001b630000153760201b60201c565b6300001377670de0b6b3a76400008214610134630000151860201b60201c565b63000013ad7f0c38af3ccb02b928c596986f38eb742088f6b76aa8c50ecadbd761735f15f1de60001b630000153760201b60201c565b63000013e37f1ada9adec00fdd8f8797ed4a861721cd53ce27b15fc15a53a74e9d8d053ebcc060001b630000153760201b60201c565b8360a00151610200818152505063000014267f60ada1a5d9ac81305433ebb6df5fc4d3245e9525b6ef926fa7d05c57bb97805860001b630000153760201b60201c565b630000145c7fe21deaadb75edebac915430c99d55295445ff188e547c3eb43376bc379868be460001b630000153760201b60201c565b8360c001516102208181525050630000149f7fe5677ff759a3af48c2b3ac62f3302a768e3a6fc4be03c2bb9ad389a8ab5c3a6b60001b630000153760201b60201c565b63000014d57f519ddcb592be0a5b58c92ac92a4d7ba4d9ee6f7d39869738bb7f81f40bd7811760001b630000153760201b60201c565b8360c001518460a00151101563000014f057600163000014f3565b60005b60ff166102408181525050505050506300002c38565b50565b50565b50565b50565b50565b816300001533576300001532816300001d0b60201b60201c565b5b5050565b50565b63000015707f64c91651e0c695aa4c5ac0cddd2f92ea95c9c74979260206fe30f83b51b672f760001b630000153760201b60201c565b63000015a67fa19824121157851b3036de917494452bdfcadadd957446fc186bf66a1f88ee4560001b630000153760201b60201c565b63000015dc7fe00958c2644605398ddc5d6fb78bf4151582c10ed9864a3b8b1dc881804456ea60001b630000153760201b60201c565b63000015fb816008546300001d7b60201b6300005f701790919060201c565b60088190555063000016377fb7198f0192b4d497f78e70677912d418d6b0b1cc6077144ccb6fc9ecd603aaf160001b630000153760201b60201c565b630000166d7f18dc1a12a348c834f29e54683b36b6dca6d8076a08cc8aef8b3dad850b42589360001b630000153760201b60201c565b7f3e350b41e86a8e10f804ade6d35340d620be35569cc75ac943e8bb14ab80ead18160405163000016a0919063000028d1565b60405180910390a150565b63000016e17ff75d1ecb29c5442fc3c5ff6393e127628c3d6b875f4ac296cecfbffc49e6ec6460001b630000153760201b60201c565b63000017177f344ed377572cd661cade2af7fe34fee7c84731f141f122dbd508d346e7e1a4cc60001b630000153760201b60201c565b630000174d7f2db0135a48736d9f5784d99224571cd8fee73d593c751262a9a36ba89a5e6a8260001b630000153760201b60201c565b630000176a64e8d4a5100082101560cb630000151860201b60201c565b63000017a07f829fb2f46b95525563db5959bd90ad91087b495d377250766cf848b4e0e2709d60001b630000153760201b60201c565b63000017d67f43c99b51bcac765d8802c5399eec80963fbd4b4f7dd8d5c2b842190670bd5d6b60001b630000153760201b60201c565b63000017f667016345785d8a000082111560ca630000151860201b60201c565b630000182c7fa2445d2ac48e0aff1dc3c3e998ca99bfd7023136493742901ce707cc820183e760001b630000153760201b60201c565b63000018627f1d30c07ab6414d21ed3e5632a646347f1cd37ead7eac3632f408d8d438b3facf60001b630000153760201b60201c565b6300001881816008546300001e4760201b630000601c1790919060201c565b60088190555063000018bd7fd96c1a715585c0c637fa00d662aef513214ec5622eca83165695f19ea46be4f260001b630000153760201b60201c565b63000018f37f59c8dc8c329b9d6e55c758d0d0607f2b5185bece113253d6c9cb0e3f8509434b60001b630000153760201b60201c565b7fa9ba3ffe0b6c366b81232caab38605a0699ad5398d6cce76f91ee809e322dafc81604051630000192691906300002960565b60405180910390a150565b600063000019697f7cf11046fb6ed4e22d71ab30ffd2e0d219583b6a0ab9577a7dae850d7f7cf52760001b630000153760201b60201c565b630000199f7fe914ee6143f8cebbb6fa02dc137a46ffb37d86f091ddcc8c1484340c88568bf860001b630000153760201b60201c565b63000019d57fcdac98c71399abe8d604ae81590a6c764815f4e517552f26443be32020d5ee3d60001b630000153760201b60201c565b60008273ffffffffffffffffffffffffffffffffffffffff1663313ce5676040518163ffffffff1660e01b815260040160206040518083038186803b1580156300001a1f57600080fd5b505afa1580156300001a35573d6000803e3d6000fd5b505050506040513d601f19601f820116820180604052508101906300001a5d9190630000270c565b60ff1690506300001a987f7992ae245e0be0fd753b8dfcb0408f6933e20d39949459be4bc19d768b55f1d360001b630000153760201b60201c565b6300001ace7fd3059dfa92dcf39e04b7a5f3ddde096b1435e1aa5bb177dc5c8a50925937eee760001b630000153760201b60201c565b60006300001aeb6012836300001f1360201b63000060c81760201c565b90506300001b237f418e555110989e2513029c5156c398b11d2ba53553820124b8e95c542366ec5a60001b630000153760201b60201c565b6300001b597f81c3227675eaf7bf66566f9fab45f0162dc784e1b3bd96d101b6dc9f6cce30d860001b630000153760201b60201c565b80600a0a92505050919050565b60006300001b9e7f5f36fb0c028103edf307467f63f0332f966da8f673e1c7ec6aced59d823aae6260001b63000020b860201b60201c565b6300001bd47f44b88f08c3beb7c1738a70418178f0bd070b94ca34f2d76f0ecc9e722ebab05b60001b63000020b860201b60201c565b6300001c0a7f089af7c7f34c896b1969367a1c50582a2d2ac2cc2c5e04246250cb0ba151867260001b63000020b860201b60201c565b600082840190506300001c477f258ce8748ca545d5cfac415b21ac328631ad1fd9f61842fc89135db464f24ed760001b63000020b860201b60201c565b6300001c7d7f1cc115f28de7ca40c964e4298498543601b967d758e03fb745dda2e2ef4966c660001b63000020b860201b60201c565b6300001c95848210156000630000151860201b60201c565b6300001ccb7f3fad55df3aa1830266f7765bc1f949767a1cbfd6d2697a8d021c032e32a426bb60001b63000020b860201b60201c565b6300001d017f1237371198ec3b9801ff55f45911f80dd6332e4e689796642e2b2e8c75af767160001b63000020b860201b60201c565b8091505092915050565b6030600a820601600a820491506030600a830601600a830492506030600a8406018060101b8260081b8401016642414c230000000160c81b7f08c379a000000000000000000000000000000000000000000000000000000000600052602060045260076024528060445260646000fd5b60006300001db37fa4599e6a51e0c6c7199492d5768a6e12b9747fcf284d3bc166bd0bcb74a0db8760001b63000020bb60201b60201c565b6300001de97fcdbb58b0e78f6a26b1835bad5e06834cf0a8c1314b8c466e3127749b942356ff60001b63000020bb60201b60201c565b6300001e1f7f1210ae0b32e1c5d0af22506720a4ddebe973aa6680491ad083c93190dd57c0d260001b63000020bb60201b60201c565b6300001e3f8260558563000020be60201b630000622d179092919060201c565b905092915050565b60006300001e7f7f765a9c9c21789d278d0aecfd5de2147711a6bf60a7ac846f7d4cd313d35db34f60001b63000020bb60201b60201c565b6300001eb57f6ce47c021c8a65f6653347fc4f764dd30df504b309f7d6ca06dafc763d2657bc60001b63000020bb60201b60201c565b6300001eeb7fefcf81f00a61e3626b177c1c1f4936a5345c759358c98be5244a4dfab6d9d45860001b63000020bb60201b60201c565b6300001f0b82605685630000220860201b630000634d179092919060201c565b905092915050565b60006300001f4b7fd3476389c9167915828e1c41fd58b501be617f81bcda7df7905ebaa183b3c4bd60001b630000234460201b60201c565b6300001f817f763e3966e690f5b421dcd041f04b48a1b193ed59a99cfdb60b67ab3dfbf2eab360001b630000234460201b60201c565b6300001fb77fd040ddffed94a5c3f1ea2412fc14f14911f62630c664bb38108164ba34c6c5bb60001b630000234460201b60201c565b6300001fcf838311156001630000151860201b60201c565b63000020057fc95d13badf35636a18cef429a1cc30fcff497d0f377233d60d91a54b5222bb6b60001b630000234460201b60201c565b630000203b7f28183ac30fe9ec9460a9d28cb4e04f1c3d89222564c20b044bc81e450ef8cb9760001b630000234460201b60201c565b6000828403905063000020787f2996cf182068f32853c4842e48ae8391b1959ea375b654bf401398afae3fb9a460001b630000234460201b60201c565b63000020ae7ffd16e19fe244cb693efc31c873bf159b238b28cd50bd7fb58b14e97f7b30750760001b630000234460201b60201c565b8091505092915050565b50565b50565b600063000020f67f8a5ecb6d6866756548e815ebe3eca594b8bcddb65b084dc0ef45911b79db939160001b630000234760201b60201c565b630000212c7fb997998588bce4128dfcec44044e38644f0afd4002d06f1737765da3e940196560001b630000234760201b60201c565b63000021627fc4892846254ba52d57c618a5f0974c58ecdd7a3f9fd3e9f7c7651410df3d2f4f60001b630000234760201b60201c565b6000826001901b198560001c1660001b905063000021aa7f2744f6bcfdb3b8fde86a4d9548cce79f97ec5ed38f7d8ce0b222da6180ab883a60001b630000234760201b60201c565b63000021e07f53340cb77199b6c615439bad1034b422b9438ac46c59256b063204127275eadb60001b630000234760201b60201c565b828463000021f157600063000021f4565b60015b60ff16901b60001b81179150509392505050565b600063000022407f71166feeb1439b1e62f6ae5e65d4c8ac18242ab42c0ed3609c9e4e9db09af14c60001b630000234760201b60201c565b63000022767ff43dbc3a2e5245519ec3bc94998443b94cf7ce1c044175d439c04fb36737725660001b630000234760201b60201c565b63000022ac7f0863499a14cdfb59a08cc60c026df2f2b17cd174710dc33969936e9efe01827660001b630000234760201b60201c565b60008267ffffffffffffffff901b198560001c1660001b905063000022fb7f3d9fb5a0b3867232c4e84b84f079c0267a81c06fa863d609d35c83305c98981360001b630000234760201b60201c565b63000023317fd52227c2ee54dba7d0b4746487b9ce055b6498abe751847759c111fef3fd1a5460001b630000234760201b60201c565b8284901b60001b81179150509392505050565b50565b50565b828054600181600116156101000203166002900490600052602060002090601f016020900481019282601f10630000238f57805160ff191683800117855563000023c3565b8280016001018555821563000023c3579182015b8281111563000023c257825182559160200191906001019063000023a3565b5b50905063000023d4919063000023d8565b5090565b5b8082111563000023f557600081600090555060010163000023d9565b5090565b600081519050630000240c816300002b6d565b92915050565b6000815190506300002425816300002b8a565b92915050565b600081519050630000243e816300002ba7565b92915050565b6000815190506300002457816300002bc4565b92915050565b6000815190506300002470816300002be1565b92915050565b600082601f830112630000248957600080fd5b815163000024a4630000249d8263000029ae565b630000297f565b9150808252602083016020830185838301111563000024c257600080fd5b63000024d18382846300002b25565b50505092915050565b6000610180828403121563000024ef57600080fd5b63000024fe610180630000297f565b90506000630000251284828501630000245d565b600083015250602082015167ffffffffffffffff811115630000253457600080fd5b6300002544848285016300002476565b602083015250604082015167ffffffffffffffff811115630000256657600080fd5b6300002576848285016300002476565b6040830152506060630000258e848285016300002444565b606083015250608063000025a6848285016300002444565b60808301525060a063000025be848285016300002662565b60a08301525060c063000025d6848285016300002662565b60c08301525060e063000025ee848285016300002662565b60e0830152506101006300002607848285016300002662565b610100830152506101206300002621848285016300002662565b61012083015250610140630000263b848285016300002412565b6101408301525061016063000026558482850163000023f9565b6101608301525092915050565b6000815190506300002675816300002bfe565b92915050565b600081519050630000268e816300002c1b565b92915050565b60006020828403121563000026a857600080fd5b600063000026ba84828501630000242b565b91505092915050565b60006020828403121563000026d757600080fd5b600082015167ffffffffffffffff81111563000026f357600080fd5b63000027038482850163000024da565b91505092915050565b600060208284031215630000272057600080fd5b6000630000273284828501630000267b565b91505092915050565b6000630000274b83836300002773565b60208301905092915050565b6000630000276783836300002898565b60208301905092915050565b6300002780816300002a3d565b82525050565b600063000027958263000029fc565b63000027a381856300002a2c565b935063000027b28363000029dc565b8060005b8381101563000027ef57815163000027d08882630000273b565b975063000027df836300002a12565b92505060018101905063000027b6565b5085935050505092915050565b6000630000280b826300002a07565b630000281981856300002a2c565b935063000028288363000029ec565b8060005b838110156300002865578151630000284688826300002757565b97506300002855836300002a1f565b925050600181019050630000282c565b5085935050505092915050565b630000287f816300002a53565b82525050565b6300002892816300002a5f565b82525050565b63000028a5816300002ae3565b82525050565b63000028b8816300002b0f565b82525050565b63000028cb816300002acc565b82525050565b600060208201905063000028ea60008301846300002872565b92915050565b6000606082019050630000290960008301866300002885565b8181036020830152630000291f818563000027fc565b90508181036040830152630000293781846300002786565b9050949350505050565b6000602082019050630000295a600083018463000028ab565b92915050565b60006020820190506300002979600083018463000028be565b92915050565b6000604051905081810181811067ffffffffffffffff8211171563000029a457600080fd5b8060405250919050565b600067ffffffffffffffff82111563000029c757600080fd5b601f19601f8301169050602081019050919050565b6000819050602082019050919050565b6000819050602082019050919050565b600081519050919050565b600081519050919050565b6000602082019050919050565b6000602082019050919050565b600082825260208201905092915050565b60006300002a4c826300002aac565b9050919050565b60008115159050919050565b6000819050919050565b60006300002a78826300002a3d565b9050919050565b60006300002a8e826300002a3d565b9050919050565b60008190506300002aa7826300002b5e565b919050565b600073ffffffffffffffffffffffffffffffffffffffff82169050919050565b6000819050919050565b600060ff82169050919050565b60006300002af2826300002af9565b9050919050565b60006300002b08826300002aac565b9050919050565b60006300002b1e826300002a95565b9050919050565b60005b838110156300002b475780820151818401526020810190506300002b28565b838111156300002b58576000848401525b50505050565b600381106300002b6a57fe5b50565b6300002b7a816300002a3d565b81146300002b8757600080fd5b50565b6300002b97816300002a53565b81146300002ba457600080fd5b50565b6300002bb4816300002a5f565b81146300002bc157600080fd5b50565b6300002bd1816300002a69565b81146300002bde57600080fd5b50565b6300002bee816300002a7f565b81146300002bfb57600080fd5b50565b6300002c0b816300002acc565b81146300002c1857600080fd5b50565b6300002c28816300002ad6565b81146300002c3557600080fd5b50565b60805160a05160601c60c05160e051610100516101205161014051610160516101805160601c6101a0516101c05160601c6101e05160601c61020051610220516102405161026051610280516201b8076300002d166000398061a5da52508061a601525080620103f352806201042852806201046652508061a6bc528061a96752508061a6e3528061a945528061a9f352505080613df85250806120af525080613945525080616c4b525080616b99525080614d6552508061813552508061817752508061815652508061389352508061363c52506201b8076000f3fe60806040523480156200001157600080fd5b50600436106200037c5760003560e01c80636b84323911620001dd578063a9059cbb1162000111578063c27f816911620000b1578063d73dd6231162000087578063d73dd6231462000a9e578063dd62ed3e1462000ad4578063f89f27ed1462000b0a578063ffd088eb1462000b2c576200037c565b8063c27f81691462000a27578063d505accf1462000a47578063d5c096c41462000a67576200037c565b8063b10be73911620000e7578063b10be73914620009ad578063b48b5b4014620009e3578063c0ff1a151462000a05576200037c565b8063a9059cbb1462000935578063aaabadc5146200096b578063afec8c9f146200098d576200037c565b8063893d20e8116200017d57806398e896a5116200015357806398e896a514620008bd5780639b02cdde14620008dd5780639d2c110c14620008ff576200037c565b8063893d20e814620008575780638d928af8146200087957806395d89b41146200089b576200037c565b80637ecebe0011620001b35780637ecebe0014620007b4578063851c1bb314620007ea57806387ec68171462000820576200037c565b80636b843239146200071157806370a08231146200074757806374f3b009146200077d576200037c565b80633644e51511620002b557806355c67628116200025557806366188463116200022b578063661884631462000699578063679aefce14620006cf5780636ab3bdb414620006f1576200037c565b806355c6762814620006045780636028bfd4146200062657806360d1507c146200065d576200037c565b806343a9299e116200028b57806343a9299e146200059d578063496defa314620005bd5780634a6b0b1514620005dd576200037c565b80633644e515146200053957806338e9922e146200055b57806338fff2d0146200057b576200037c565b80631dccd8301162000321578063292c914a11620002f7578063292c914a14620004eb578063313ce56714620004f75780633551a9ca1462000519576200037c565b80631dccd830146200045f5780631ec80b0a146200049557806323b872dd14620004b5576200037c565b806316c38b3c116200035757806316c38b3c14620003f957806318160ddd14620004195780631c0de051146200043b576200037c565b806306fdde031462000381578063095ea7b314620003a35780630a1b02db14620003d9575b600080fd5b6200038b62000b4e565b6040516200039a91906201b30f565b60405180910390f35b620003c16004803603810190620003bb91906201a612565b62000c7e565b604051620003d091906201b020565b60405180910390f35b620003f76004803603810190620003f191906201a7bd565b62000d7d565b005b6200041760048036038101906200041191906201a765565b62000d80565b005b6200042362000eda565b6040516200043291906201b333565b60405180910390f35b6200044562000f6e565b60405162000456939291906201b03d565b60405180910390f35b6200047d60048036038101906200047791906201a720565b620010df565b6040516200048c91906201afc1565b60405180910390f35b620004b36004803603810190620004ad91906201a7bd565b6200156e565b005b620004d36004803603810190620004cd91906201a50f565b62001571565b604051620004e291906201b020565b60405180910390f35b620004f562001980565b005b6200050162001cd4565b6040516200051091906201b384565b60405180910390f35b6200053760048036038101906200053191906201a7bd565b62001d67565b005b6200054362001d6a565b6040516200055291906201b07a565b60405180910390f35b6200057960048036038101906200057391906201ac38565b62001e05565b005b6200058562002021565b6040516200059491906201b07a565b60405180910390f35b620005bb6004803603810190620005b591906201a7bd565b620020d3565b005b620005db6004803603810190620005d591906201a7bd565b620020d6565b005b620005e7620020d9565b604051620005fb969594939291906201b2a2565b60405180910390f35b6200060e620023f2565b6040516200061d91906201b333565b60405180910390f35b6200064460048036038101906200063e91906201a7e9565b62002490565b604051620006549291906201b350565b60405180910390f35b6200067b60048036038101906200067591906201ac38565b62002609565b6040516200069097969594939291906201b225565b60405180910390f35b620006b76004803603810190620006b191906201a612565b6200279c565b604051620006c691906201b020565b60405180910390f35b620006d962002abe565b604051620006e891906201b333565b60405180910390f35b6200070f60048036038101906200070991906201a7bd565b62002b82565b005b6200072f60048036038101906200072991906201a6db565b62002b85565b6040516200073e91906201af9d565b60405180910390f35b6200076560048036038101906200075f91906201a4a2565b62002eaa565b6040516200077491906201b333565b60405180910390f35b6200079b60048036038101906200079591906201a7e9565b62002f7c565b604051620007ab9291906201afe5565b60405180910390f35b620007d26004803603810190620007cc91906201a4a2565b620034db565b604051620007e191906201b333565b60405180910390f35b6200080860048036038101906200080291906201a8c8565b620035ae565b6040516200081791906201b07a565b60405180910390f35b6200083e60048036038101906200083891906201a7e9565b6200368c565b6040516200084e9291906201b350565b60405180910390f35b6200086162003805565b6040516200087091906201af80565b60405180910390f35b62000883620038b7565b6040516200089291906201b208565b60405180910390f35b620008a562003969565b604051620008b491906201b30f565b60405180910390f35b620008db6004803603810190620008d591906201a7bd565b62003a99565b005b620008e762003a9c565b604051620008f691906201b333565b60405180910390f35b6200091d60048036038101906200091791906201abc9565b62003b30565b6040516200092c91906201b333565b60405180910390f35b6200095360048036038101906200094d91906201a612565b62004608565b6040516200096291906201b020565b60405180910390f35b6200097562004707565b6040516200098491906201b1eb565b60405180910390f35b620009ab6004803603810190620009a591906201a7bd565b620047a2565b005b620009cb6004803603810190620009c591906201ab9d565b620047a5565b604051620009da91906201b333565b60405180910390f35b620009ed620048bc565b604051620009fc91906201b333565b60405180910390f35b62000a0f62004950565b60405162000a1e91906201b333565b60405180910390f35b62000a45600480360381019062000a3f91906201a7bd565b62004bc8565b005b62000a65600480360381019062000a5f91906201a565565b62004bcb565b005b62000a85600480360381019062000a7f91906201a7e9565b620050c0565b60405162000a959291906201afe5565b60405180910390f35b62000abc600480360381019062000ab691906201a612565b62005a3b565b60405162000acb91906201b020565b60405180910390f35b62000af2600480360381019062000aec91906201a4ce565b62005bca565b60405162000b0191906201b333565b60405180910390f35b62000b1462005cdb565b60405162000b2391906201afc1565b60405180910390f35b62000b3662005d76565b60405162000b4591906201b333565b60405180910390f35b606062000b7e7f4db756c43151b39c292200c46bff24e176da61a0e871364526e45f6fbe81ac4a60001b62001d67565b62000bac7fba290886c45607b59e3de5397eb7831641bfd35d7fa57c961e0adcd9d4b79c3a60001b62001d67565b62000bda7f39a49d1e9173e1b109b0071d57f8abe5e31aa57049988a2f3d2e37520a49e1b660001b62001d67565b60038054600181600116156101000203166002900480601f01602080910402602001604051908101604052809291908181526020018280546001816001161561010002031660029004801562000c745780601f1062000c485761010080835404028352916020019162000c74565b820191906000526020600020905b81548152906001019060200180831162000c5657829003601f168201915b5050505050905090565b600062000cae7fb1ea157a74570fd3643c5310837ad126ac7e4706522558b5875e1918b59b542c60001b62001d67565b62000cdc7f608d42f4361636bab0a221b92860e67ed6868f7c49f5d3d0971b0415b8bbc3fc60001b62001d67565b62000d0a7f615b7abb3c5e0d42ad112c000b5db1bdca612c20fd9371e93aa915c0710d8e9b60001b62001d67565b62000d1733848462006461565b62000d457f20ccb10feb578c145cd252783de60c35b7c4c0b57c889d3dfb397e2beb70414f60001b62001d67565b62000d737ffe03fbd27bd6a7be7f0b17c315f4e874faf110e898eb2d3c95f00f3f260542fb60001b62001d67565b6001905092915050565b50565b62000dae7f21ea7fcf5f9d7c31f9aaf25a69a33e54c5f3c5f66baae008885ccc3276598f7e60001b620020d3565b62000ddc7f6a39159fbf6a6f219cb1a9d2ba1e006bf81de453f8c25b24ef0ad37212bed98b60001b620020d3565b62000e0a7fda72f8aff7fe2e941c3d65dafeff55469fc4e10b2cfd040c51bbee89e5b0231a60001b620020d3565b62000e1462006634565b62000e427f9c459e0e3be04934ddeb1b00ad8219c43cf1b0ee5a60c5c5492412fe62e3db4860001b620020d3565b62000e707f5b156b6ff17ae51ab596f122e39b3ab2100b064a0487138ea346d06fd3c059ee60001b62002b82565b62000e9e7f9958d507fce6e8f18cdc68f371faf0f76720fc901dba699ee21fd93d989718c460001b62002b82565b62000ecc7fee5ee3063905c08ee47338437b20e63ac7ee4511da135ace4369ab5b8fbcc39760001b62002b82565b62000ed78162006769565b50565b600062000f0a7f3591744e6a97f397579dfefe4467e742422291d5b48cf0b4b29d2a7bd707601a60001b62001d67565b62000f387f648de981846633733b23f115d5f5a0c65d9ed63a0536ceba8eceb070f538606660001b62001d67565b62000f667f26add7f2af4a43b72f0acd053918a6e311d5debc1abcc80dc521e650b43cf45d60001b62001d67565b600254905090565b600080600062000fa17f42b2df6467ff4c70f32501bc99dadaa1707377d0ae98682424fbf6f17c641d1460001b62000d7d565b62000fcf7fc547455e53b5440054db386d0706d7ff980e05270c92023fc54f5f5f5c04c5ad60001b62000d7d565b62000ffd7fb963bb4019984fe1702b4770c0d5aa469bd0dd9b7d30f2696d9641e74bbca11260001b62000d7d565b6200100762006a55565b159250620010387f61573994a5d914d4db231e404b148fb9db63f1c7b413b107977e9feedb531d9460001b62000d7d565b620010667f07825aec69c85870219784a1fb8305468e89fa78f9acd98ce1748ceb86c60aec60001b62000d7d565b6200107062006b0b565b9150620010a07f021c1a05e5f001c149d9ad72783428e4a158fe50b5533cfc1ae85382d9da3cbe60001b62000d7d565b620010ce7f0875220e21ba6e87e6bbb05f50398ebcd41b3de02dec68c6049fc5c8fd3cd56260001b62000d7d565b620010d862006bbd565b9050909192565b60606200110f7f58c30d36204441e9ef74fa509f58923b657eab234f50c6b09e1c97ccff71a5da60001b62002b82565b6200113d7f388df7b785e58d2fccc388651c83d22a60efe0a0233c7b6f1365e2a815f0bce860001b62002b82565b6200116b7fd18de1c662b81187018a490ba4260458f872d309d2232cb1b63b38fd79655ca360001b62002b82565b815167ffffffffffffffff811180156200118457600080fd5b50604051908082528060200260200182016040528015620011b45781602001602082028036833780820191505090505b509050620011e57f8077efcfb91f3af36efad78cf0d3de49f7e39fc7451ca12206eacce3f47f94d160001b62002b82565b620012137f78da39ba674bff6ee9d9c7362b7638ab20b4baece5d5a01f896640138b56747860001b62002b82565b60006200122260085462006c6f565b9050620012527fc69b188e395e779beeeefef63202bde1b4442fdaa3cdeed3a6b3ca48ceb2c8a160001b62002b82565b620012807fd657bc825acc9944cea73860fdbae98aceb2b94146328b279c8c53ffc632c24460001b62002b82565b6200128a62019e13565b620012b87fa3f0f7e582e9f81f02dc7688322f606d3c045ed3da2c17cfae6043d1cd47561360001b62002b82565b620012e67fb972cd471f940cb6244f161d0022963e40834f477f88e8d5d727d579b828764360001b62002b82565b60005b84518110156200156657620013217fc59bf46ea095b02b80850549c2630b98a693d7ed035befa4ff282e223fa4aaa260001b62002b82565b6200134f7f7072d88d48428c7ef7598b090a1da5ba503f4341f83b77fba1832ec9d2d99f7d60001b62002b82565b8481815181106200135c57fe5b60200260200101519150620013947f4895bd2729082eba6df357a99f80195f00bc0a91164f94da081bb0b0bb75fd2860001b62002b82565b620013c27f1e55023b6fea2726b676d4a0b78669af6fe8f3da14ba87ef55ea4c68a2f3bdb060001b62002b82565b620013d860008360200151141561013c62006d18565b620014067fe75c66811a738016f84038059d7f7f2427dc72c24f18792f05e382dcbdc74a9960001b62002b82565b620014347f6bda57d598e6057313f24b274b02f37d29d552103215fc22c1d1c7070083692760001b62002b82565b600062001451836000015185856020015186604001510162006d2e565b9050620014817f5769f189c5496bcfaf48ddddbf788380a3b3ac6cad1656500246bea9e25403df60001b62002b82565b620014af7fecec44b57f0259471514c2640d22d85dec6bc2e437e836f86fadb6e082c3995660001b62002b82565b6000620014c6846000015186866040015162006d2e565b9050620014f67fd46f7efa1c5a146223ad4fa5d67486b488dbbb3cf4d9d42f9b93530ef3ae543260001b62002b82565b620015247f34e07ae57b21ee95d65418b28d84f2095d4b256cdc8209cbea5743673dd580e560001b62002b82565b6200153f8460200151838303816200153857fe5b0562007725565b8684815181106200154c57fe5b6020026020010181815250505050806001019050620012e9565b505050919050565b50565b6000620015a17fcb1e83c5388babf0d45f0a159d24050185c8f019cd8c4b6f2c779d5c3c539f9f60001b62001d67565b620015cf7f7fbd987c745bcd9baf3604ec32a88300f63bb21f3fceda9f3228dfaf2c3f2de460001b62001d67565b620015fd7f0e8dacc52dc9d5685cb26ebdcfd55134cecbe613d8a4b690e0e969ccd4b0481060001b62001d67565b6000600160008673ffffffffffffffffffffffffffffffffffffffff1673ffffffffffffffffffffffffffffffffffffffff16815260200190815260200160002060003373ffffffffffffffffffffffffffffffffffffffff1673ffffffffffffffffffffffffffffffffffffffff168152602001908152602001600020549050620016ac7f54e7f369fb0047d67cc293276bb189bd606f854e46cdcecc1bd076aa91dd06f260001b62001d67565b620016da7f39190ba861c8e6e479265c5a4e8684bc43ebc26b72efdbf60c93695625d7e74560001b62001d67565b620017228573ffffffffffffffffffffffffffffffffffffffff163373ffffffffffffffffffffffffffffffffffffffff161480620017195750838210155b61019762006d18565b620017507fd869e7d03a7d2b949d65095bdcf9138ca8c21024df18a7d1e9848fe6c7abba5a60001b62001d67565b6200177e7f537959050150c59e30f3e96d0efe52657216286d3e9b350077d0afcaadc7422060001b62001d67565b6200178b858585620077cb565b620017b97f926c18b0f53a5e82fd975daa6afee3b86a70d7c71a10a76f3fcca650aec50a6d60001b62001d67565b620017e77f607a349b557172ec6566d29aba0b5e434c65703e9f4543212ae2ade2556ad69860001b62001d67565b8473ffffffffffffffffffffffffffffffffffffffff163373ffffffffffffffffffffffffffffffffffffffff16141580156200184457507fffffffffffffffffffffffffffffffffffffffffffffffffffffffffffffffff8114155b15620018e957620018787fcd4b7cb6209714f6b6668452e416a09740061e5232695dab3c8d58eb9929230660001b62001d67565b620018a67f1b58eb05783678703afafd8c2da7777514b88bb4bf1d0b1b33d2285ae42bb85060001b62001d67565b620018d47ff0312650c8425ab9e2314712cd6a85893e6ba127ec99153319693e6c04b162ab60001b62001d67565b620018e3853385840362006461565b62001918565b620019177f8b9f87cb614a13839badb66ba449c6131eecbd8f2c92f3b916fa3d82b04f554e60001b62001d67565b5b620019467f5f2cde0b0885842c82f8b00a0286a72ef2985aa970c5d934ec072153cff1e5f660001b62001d67565b620019747f32779093f7455faaa3eb624998ad4d7d1a80d4f32a251c7815d94777d377f58860001b62001d67565b60019150509392505050565b620019ae7f55b2c706edc1fac40420f6b6ee2c7fb303ddd3f3b2e904e75d52c6bfd88e56fa60001b62000d7d565b620019dc7fc498ca4ed44b1ebcfc965c587448a4caa7674ba28574ad44c701d0b18d270cc260001b62000d7d565b62001a0a7fc0eb990e8883f9af90f456b244df4424ef0fdb6588346633543bc7fad5d1535e60001b62000d7d565b62001a1462007bfa565b62001a427f44575eacace6313d4ce3cb25629c3a9f23ce0f7905ebb1784022d4cd23e99a9260001b62000d7d565b62001a707f21ea7fcf5f9d7c31f9aaf25a69a33e54c5f3c5f66baae008885ccc3276598f7e60001b620020d3565b62001a9e7f6a39159fbf6a6f219cb1a9d2ba1e006bf81de453f8c25b24ef0ad37212bed98b60001b620020d3565b62001acc7fda72f8aff7fe2e941c3d65dafeff55469fc4e10b2cfd040c51bbee89e5b0231a60001b620020d3565b62001ad662006634565b62001b047f9c459e0e3be04934ddeb1b00ad8219c43cf1b0ee5a60c5c5492412fe62e3db4860001b620020d3565b62001b327f9f4a46a1c1bcb79ef847d92007822a5b5c216b391c6e5dda26810b1013fd932060001b62002b82565b62001b607fcdb702af77cdb1a18a02847d44e97ab417c783d5e607766e7bf4a3b2ef3a077a60001b62002b82565b62001b8e7ff0e4c783e31399b20efb32ebacc1f0b5eea85dec748d5d20ef243609df0a068660001b62002b82565b62001b9a600162007c9d565b62001bc87faf970ea4b7a5b3e40fff26b1d33bed5822a5ca294621f7f6e1800182d05ae44460001b62002b82565b62001bf67fa7e85dee96fa8095764733787bc6aa86f9c05fe401e7debedea55856f39fe18760001b62002b82565b600062001c0262000eda565b111562001ca35762001c377fbcdd7a766b9798c5e362463bffcfa45f56b7f39ae25202f7402edd888b9a236d60001b62002b82565b62001c657f7a3fc9513e2d8cf77e9920adcebc1807cbfdae7cb4139bd7c145c5163d0091ae60001b62002b82565b62001c937f055541f592caf7b0391cbecae3f4e556d20c3658a091287722429f46eba7fd8e60001b62002b82565b62001c9d62007ddc565b62001cd2565b62001cd17fd3af29d0612149c0b68970c276074ff16c8a5e0af5327c893c009dbf5b45653f60001b62002b82565b5b565b600062001d047f9cad670adda916501fa2719d90e5fe0ece4449dd6036d4d49187cdb9b9a67db160001b62001d67565b62001d327f0a01c55b2a3b47c5dc0b58fa28bb70316ee084eca589b5465dc8477c8fb2969860001b62001d67565b62001d607f1f2aa8b01dcb4274968895299d05e53753fd6115a911b22e4f5988ab9e33c50760001b62001d67565b6012905090565b50565b600062001d9a7f9a9bf2e5977de3697a9ec96b58940c396178f0ae9e5e6dad3c34cc15875ad43660001b62001d67565b62001dc87fb822da9206ad66a6612383dffe32883ba061b6accb06aaba55b9dd2dee84833160001b62001d67565b62001df67f7b9abb37e5294ffd6b06ddbc84feec6d9746d7f59ed43e20820b54f98f0eb04b60001b62001d67565b62001e00620080a7565b905090565b62001e337f21ea7fcf5f9d7c31f9aaf25a69a33e54c5f3c5f66baae008885ccc3276598f7e60001b620020d3565b62001e617f6a39159fbf6a6f219cb1a9d2ba1e006bf81de453f8c25b24ef0ad37212bed98b60001b620020d3565b62001e8f7fda72f8aff7fe2e941c3d65dafeff55469fc4e10b2cfd040c51bbee89e5b0231a60001b620020d3565b62001e9962006634565b62001ec77f9c459e0e3be04934ddeb1b00ad8219c43cf1b0ee5a60c5c5492412fe62e3db4860001b620020d3565b62001ef57f55b2c706edc1fac40420f6b6ee2c7fb303ddd3f3b2e904e75d52c6bfd88e56fa60001b62000d7d565b62001f237fc498ca4ed44b1ebcfc965c587448a4caa7674ba28574ad44c701d0b18d270cc260001b62000d7d565b62001f517fc0eb990e8883f9af90f456b244df4424ef0fdb6588346633543bc7fad5d1535e60001b62000d7d565b62001f5b62007bfa565b62001f897f44575eacace6313d4ce3cb25629c3a9f23ce0f7905ebb1784022d4cd23e99a9260001b62000d7d565b62001fb77fa0fef10453f6ce0cb79c61672174d17e4597da5580bea9b47fecc8a790d1836860001b62002b82565b62001fe57f19b48b4e9afe7b6b0f707afab4171791a6a0259d08b1b70f3f7a221d0e8e0db460001b62002b82565b620020137fb45ae3b570eb9b97ccbab74565bbf4ea2c85567391cdc5cedb51fe8f0cd3e71760001b62002b82565b6200201e81620081d2565b50565b6000620020517fb2b964f194e19dacbf33dd5a0a16a35b494a75bc234f8e6d6b71ea2a423a976a60001b62002b82565b6200207f7fff31fd90dbd9fa6cbef19fe2f231c60bed5cfbb563a48924a84d40046337a29b60001b62002b82565b620020ad7f0b2c861ae23efef720c6019d8ef2f8780d5ebc6c2e7fcfbf8c6d6af41b34402c60001b62002b82565b7f0000000000000000000000000000000000000000000000000000000000000000905090565b50565b50565b600080600080600080620021107f57422083c7c4b238f8a52b9c5a5fa3970f3aa7a41092eef4ce0cf9680e73023a60001b62002b82565b6200213e7f9fb2862c3618bc22fd753e9b5cd009d845816534f5d4ba75cc72e48c2490529d60001b62002b82565b6200216c7f2dea024b919e00f7c1b2d8ea3aa18966811cbad4f5c571c85a0c78903e84f19660001b62002b82565b60006008549050620021a17fccdcc66983f794e60aaec1e8f051182a5daebdb8fcce1247e9d44ee5aba1a49d60001b62002b82565b620021cf7f433acf6b49288f8073eb918f63a38f4be603df40f9044f0fed911c9ae91be17b60001b62002b82565b620021da81620083f6565b96506200220a7f22fb671604787bd0dffecfdad171e2d7097bff42e8830e22b4774190240e9ca260001b62002b82565b620022387f7bb23c2043d8baa3f2605467d008f441e96c00db1094a67ccff778ff7a27cd0160001b62002b82565b62002243816200849f565b9550620022737f2b43f7459027b0701bd87c85d36936d7420a4db825c13b110eb40f429a60a8ec60001b62002b82565b620022a17ff50dd00cffeaf7ad27e313a1e4fae4290058df2fc6f800486d729a8c2ebb587e60001b62002b82565b620022ac8162008548565b9450620022dc7f8c35241782bac2054b5d5374911463618cc183b8fb3d7c2910ddd904c7f0ae8760001b62002b82565b6200230a7f124e90d9ecdeabe65f3e5193dbacda5befff9e05360f4c03788a0f17736b1e9360001b62002b82565b620023158162006c6f565b9350620023457fdb30d4a5d325f8af1ad5af4a16f44d057a71d17155b1d8686e029021b9b4512360001b62002b82565b620023737f2d40412c80223ea693d3428a8927a175631f3279f0151fd6821d5d7b36b3e46960001b62002b82565b6200237e81620085f1565b9250620023ae7ffb614797c19248e7b98618dfde97d60d15dd20a2837ad6bd2ef7b37f6d36beec60001b62002b82565b620023dc7f74803ec5aaf5715c810d6dd4c64a55d67b7caee05b7c51b531840a47e48b0dcf60001b62002b82565b620023e7816200869a565b915050909192939495565b6000620024227ffea6bd5721a4f129e42e808ddf332e06ea4a8e9fcb9cb2325a832f9fda6c57db60001b62002b82565b620024507fd071b6083252f8d48821c9940f6ac82c6cb65f2b91820399ba381d2e043b82a960001b62002b82565b6200247e7f2cd5550fe83be44fe9529ec23de0e3459a12e98b50c9cac06b17a5945f3b224660001b62002b82565b6200248b6008546200869a565b905090565b60006060620024c27f89c964fa2b2e727828cb564a729b334e81a27161e3b46fa6f757923f1ae2dcd560001b62002b82565b620024f07f604bc5bea9429781df5f02e04bc8555f82d9bf9fc771a7252b5f81113c17b90e60001b62002b82565b6200251e7f1eb144c979f8511f282851a1b1a9509bc98db5f6c6aed18f73a34b8db84e876660001b62002b82565b6200252c8651600262008743565b6200255a7f69651afac5c4c44e648988a23917c6fb7a12b1b3250938e48e16e4797af6101760001b62002b82565b620025887f01487c94636cb65f496d7f571b47c6266ad881fccedfa7f00f55258293250e2b60001b62002b82565b620025a189898989898989620087e062008d8462008ef9565b620025cf7f62110d7c523141f6c56b80c0da0934e890fad86f3aed4ed04cb5da104ceeab0460001b62002b82565b620025fd7f171e42f35ad3d9eca62c6826bf4f9d4d578490122871ec39656a8210f5b3483960001b62002b82565b97509795505050505050565b6000806000806000806000620026427f9325788325c932b18d60d6e48ffe83d779335ad6f7ac5bc5f55044ca480db07a60001b62003a99565b620026707f0ce8eff8d3210d75cd17af29a378e3cda556de68e6b6e92dbf079f1023a74ac560001b62003a99565b6200269e7f96e872bfd83e51f3f3f16693db07fe9314d0d5be047488f483c315475cccc0f460001b62003a99565b620026b0610400891061013b62006d18565b620026de7fa82f57431588a4da4f20417d1f39af482e3d33b80f2c47d5ff4de38cd1cfa04e60001b62003a99565b6200270c7f53f39fbdce1e00b5bb0e6f41622e64fab699f2273416a7ad6f339b822512bc8360001b62003a99565b6000620027198962009336565b9050620027497fe5390250f8268f44a7ba83ace35d9711fe400ad31b703cbd7a05bd690c067e0960001b62003a99565b620027777fc22c49c8ea65d139c824ca889229c38b83f7b17f78492e690b91cf8ac43681fe60001b62003a99565b6200278281620093dd565b975097509750975097509750975050919395979092949650565b6000620027cc7f2bc4f6cbbe1e6cc58886fc607e4f9d603ff60ef5478e3676303f678e6caf2f5460001b62001d67565b620027fa7f731cc74fab18c25d19816bf4d2298b45d95bea660e12eca338e76e4e0250157360001b62001d67565b620028287f776354c1f8a649dba23ac29d302391f8ec705f38cfbf61eaa9e10ed0e086a0a860001b62001d67565b6000600160003373ffffffffffffffffffffffffffffffffffffffff1673ffffffffffffffffffffffffffffffffffffffff16815260200190815260200160002060008573ffffffffffffffffffffffffffffffffffffffff1673ffffffffffffffffffffffffffffffffffffffff168152602001908152602001600020549050620028d77fc1cb3a4403e7fb7d25c7977c1b9d6b562b5d4490a6afb2cbe3d4bf6b13a86ca260001b62001d67565b620029057f276b3d970bf6b8f83f2563a9b429975c187e8bca73b96e4e35e83f44d79ef87f60001b62001d67565b808310620029ab576200293b7f9ee10143f1a57ce9379cd06d83af7f4260b35b7d68688e2571614528b3bf0a9160001b62001d67565b620029697f4c189fac295f2d343d8fe6b386541ecd7212a459348bb5e026f841253ee688bf60001b62001d67565b620029977fd9f90d4c7c24b7b34ff27df9029e6f5cef30bcafff8b7429ab20759576816c4660001b62001d67565b620029a53385600062006461565b62002a57565b620029d97ff51c22ae637e8f9f1dd7422715ecb2d1c32c86659f8e28f3ce381baba105ffb360001b62001d67565b62002a077fdfb3948fd26f2536e1f0ebee33c8374cec9a7353452842dcc19e635455c7421e60001b62001d67565b62002a357f14683ac6bc698dfe12cbc9135dfdd3e104e730ce7ecf472553c6c26797bed32960001b62001d67565b62002a56338562002a508685620060c890919063ffffffff16565b62006461565b5b62002a857fb78ae2a8b9b381c79c5e2cd9879e837dbe889adabced450427438aeef5d5ccff60001b62001d67565b62002ab37f03f32f21093b2a8199a310db220ff53f6a540c482b9448ef79e79e613ef3317260001b62001d67565b600191505092915050565b600062002aee7fd03ab0016855105880bc84d7b1f91fcff8c13c683d5feea9a30ae244f08878e060001b62002b82565b62002b1c7fe7a267c1b41de38dea98e9e2507c82166bf0829779dabc9c8006f7f9b40d3eba60001b62002b82565b62002b4a7fd8927767687d4e571d00d1fa9cd5c7c9bfbb56fb28dc10909db022aafa2a639660001b62002b82565b62002b7d62002b5862000eda565b62002b6e62002b6662004950565b600262009700565b6200987a90919063ffffffff16565b905090565b50565b606062002bb57fb0bd5239850271d733b102c80daea9b01fa3520223425c08ba14ff120170d92060001b62002b82565b62002be37f0585999c70575b3618e0f92e47be569dd756acc9b7fd294459856f43f74b034a60001b62002b82565b62002c117f2f1597e89590e7691384958040f2f884472fb0fc7de5cbe4b01631ca44e623c560001b62002b82565b815167ffffffffffffffff8111801562002c2a57600080fd5b5060405190808252806020026020018201604052801562002c5a5781602001602082028036833780820191505090505b50905062002c8b7f14f543de58bb548d58c605fd9a109c286572acc5974f3fea988696dcba345cea60001b62002b82565b62002cb97f4cfac60a9a5ee46c2434253e02ea6659cc74454ba71018b43cfd0d4c33389ca360001b62002b82565b600062002cc860085462006c6f565b905062002cf87f41209a980d5f1a66cb013a8638b5c9830fb44cf9f0edfdab87c68a91942fbb6760001b62002b82565b62002d267fa008e1d879ca8d9c4c1f981339d956cf8d5b724e7b5d88004e51052cf2c9cb3c60001b62002b82565b62002d3062019e40565b62002d5e7f250136e784325abbf552f43f32e92083384566ab27010ffea29bded4431787c260001b62002b82565b62002d8c7f6320d679e2fad74ab1c3bc13ac457c2f9f473c3ca0c0ced774648a98082c6c9d60001b62002b82565b60005b845181101562002ea25762002dc77f35b1a693aafe956ddd8c767834cbbd5919523ab7875b6407e6e604fb4eb454da60001b62002b82565b62002df57ff356c752352950f1815bc580f769218205beb985ca2f5c137a4e5355ec27219960001b62002b82565b84818151811062002e0257fe5b6020026020010151915062002e3a7f9e4a12b6bab6c9f1b85c34e811379006a8e15f6789c5811676c6fc135890d37c60001b62002b82565b62002e687fad02cef48225b2a1f085107f24287e6682075ccd4ba52df726327a2db19eac1860001b62002b82565b62002e7d826000015184846020015162006d2e565b84828151811062002e8a57fe5b60200260200101818152505080600101905062002d8f565b505050919050565b600062002eda7faac41115ae1d356952505586f40766eb3ebf03c42c0cbb0132cda2a3447a273260001b62001d67565b62002f087fe30a51ecf846439267419cc37bfa8423dbb262e0b9c8c725cb29feab7f95316a60001b62001d67565b62002f367fe8168e88c7789dc9fd9a2320bba851c6f3abda3fa6015b28f28ed3a2ae63756160001b62001d67565b6000808373ffffffffffffffffffffffffffffffffffffffff1673ffffffffffffffffffffffffffffffffffffffff168152602001908152602001600020549050919050565b6060808862002fae7fc9d05152e2251c04222e3f2cbb04ceffb7461172209c4db462b1e48117d8d8b260001b62002b82565b62002fdc7f2cbed535fbb87503e1037c33482f236ed1c12414f999e5c24c2733a9d6554d0960001b62002b82565b6200300a7fbaacd8912a7b2ba8d0a087774e90faa4834c8f7eb55366803ec2b157a51b568360001b62002b82565b6200304e62003018620038b7565b73ffffffffffffffffffffffffffffffffffffffff163373ffffffffffffffffffffffffffffffffffffffff161460cd62006d18565b6200307c7fc3f07458696f66b32ef204e3163fe3a6c859661042b5da689181846f1104829c60001b62002b82565b620030aa7f4efd6a0d5b8e8d4c0d369a42df7f4c864394cf44e00fe88480d017d9f80d8c5c60001b62002b82565b620030c3620030b862002021565b82146101f462006d18565b620030f17f7f18b566330e8828ebdebb69b0f45b3c6cdabb3c4d216ef251569fa0c63be62060001b62002b82565b6200311f7f5916cf0fba3bd47c7b40875daaafb9ef681e77827c86140cf66fe4fe355d00f660001b62002b82565b6200314d7f4b75e72911088420bfd14ee1082c0e0d516fcd24809ea348b389b4e946f41aeb60001b62002b82565b6200317b7f70c1d675637a5f1121d554ead9ccb3e04bec3442eb2cb6690f86f4b16b69a8c560001b62002b82565b620031868762009b98565b620031b47f024dcd7057f29b761bae0a394dd5e8c2eb6dd878d92ea5af87706154e0f8b57f60001b62002b82565b620031e27fffcea2c1bfaebca7aebd2c1d5a8c38a92feccde5399238fdfffaf33b2e7fe90b60001b62002b82565b6000606080620031f88d8d8d8d8d8d8d620087e0565b9250925092506200322c7fd362951ca81f09f6ec4ac4dcb63774255e116107f6958114308fc15ec04f93fe60001b62002b82565b6200325a7f477704a9ba45b0ea54114089d8f4643344ebb40955b0534b218a5ba7746956b660001b62002b82565b620032668c8462009d0d565b620032947f9e94c8703b5af24bd2278f37f87c16ec9f6ad17374dcb89a1063150dcd3a958e60001b62002b82565b620032c27f5cfd4b364baa78838af597418c392de0e2be25c92248ed98015baf1a427317b960001b62002b82565b620032cd8262008d84565b620032fb7f7c24ddbc9024678b49445199f5edced4298c44a64c39532684dcbe533255fa6560001b62002b82565b620033297fc9ab03fd8d68f7835ca963f00d331b3bc8838d93471077e0b4a6f8693fcc3b9660001b62002b82565b620033348162008d84565b620033627fc6ffea6086cd520cfcd6efb5fba94f211233bedaf0a12514297e583a3cb8fd5e60001b62002b82565b620033907f6b8e95b0c467503b5c138b5d4897e7d1a981252be1a8359c1ff83357f1e2521160001b62002b82565b6200339a62006a55565b156200343a57620033ce7fe3874d2fb7a092077557c571ef0550a219aa07e791101900964c7e8295bded6a60001b62002b82565b620033fc7f707c468eb3989cfbbaf36b3ce727f551a2c7ec4dbd83413363ca85620f7455d660001b62002b82565b6200342a7f9afe8f454a40c16a9870ac7f31c8f8c34531f43f0b7d8a3427763a3c936ac4f960001b62002b82565b6200343462007ddc565b62003469565b620034687fe33bd5b0556b9381e88fbefbf234fc7c636c85519f587bd0c64f774f0d00fc0d60001b62002b82565b5b620034977fbfccaf5538244cfbe6a4a264f9697063d80743542a91cdb9307fd90ec03bfa0c60001b62002b82565b620034c57f84ec64d9db598a932380748d0e5a120cbfde6287a7c844685d30e16ab9ab7c9b60001b62002b82565b8181955095505050505097509795505050505050565b60006200350b7fce709f4cad1692c2eec712c74409eb1a9a8e4be929c69436a23021ba15e6f85260001b62001d67565b620035397ff614fa7db7c2a2a19167f3be1070e88fd9f20d559a2986abe9ec49ed496f6c9860001b62001d67565b620035677f4d99137f0c6e388b0468c0640c9931cfa067557163b83ee1e6370736699482cf60001b62001d67565b600560008373ffffffffffffffffffffffffffffffffffffffff1673ffffffffffffffffffffffffffffffffffffffff168152602001908152602001600020549050919050565b6000620035de7f4d573133ce520db9ac8fcc17a4a109e17cde6e632ece08c89418b284bc44a67860001b620020d3565b6200360c7ff3dc7d107ec34169a12de6b8dc70021c704b1c6bfe98a174ebf6a95d17c3ffa960001b620020d3565b6200363a7f05423f9efef992bd3c316d35c411d077b1697419a0b4608f5649a0d610dcab4a60001b620020d3565b7f0000000000000000000000000000000000000000000000000000000000000000826040516020016200366f9291906201aef8565b604051602081830303815290604052805190602001209050919050565b60006060620036be7f549f9fa1c8b00053e4d5794964b03244287b6b30c4cb8b528ed61ce3b490e31e60001b62002b82565b620036ec7fa12124adb60268131bd7f9f3a92861e9549e19f8f83e125cbe87c1a2a879439060001b62002b82565b6200371a7fac230e28400a992deebefa8dd2c72e8ba64bdc6b4ba225dbef17fda8d6b9ce8260001b62002b82565b620037288651600262008743565b620037567f95242e4ea9217b8a9c3843be92b97e00bb539c2daf899d647838419947f823f360001b62002b82565b620037847f48fa3585ab2b9a245e68022f9834d4f6b6d90eb4064968c065e052af024dc97260001b62002b82565b6200379d898989898989896200a02a6200a3d262008ef9565b620037cb7f6df5418f7d418ee854236213fa5c7edc5f250488da04a55d8945b99cc50c939b60001b62002b82565b620037f97f79f8f6df0cbc5bb52da9dbc38a7bc39fa78391cebdb8621727c2f2ced72b16f260001b62002b82565b97509795505050505050565b6000620038357f4305b0b93402caa86e7180f48d024887d1c1f8bd2a44bfdaee3042782e1365f860001b620020d6565b620038637ff4a29a5967596beb317406435bb4b861d12cc69220c8044af61df66d35d06bed60001b620020d6565b620038917f682699fb5d3b0c411085c0cc50e8915b89589b26ae77956cdec3e2fded5c83fe60001b620020d6565b7f0000000000000000000000000000000000000000000000000000000000000000905090565b6000620038e77fbc743282f93e27734d19c644e2bd4a1114693930fd08d449bd3ba13e353b918a60001b62002b82565b620039157f3a3bbeb5ddac0432ee9aa843b21788b8654d82812e0d67875e81d5a5dd87d80c60001b62002b82565b620039437f44569dad3b782aff31ab5dd40aaa68b6d294145ac8f9a4bae70392d62b6e7c4060001b62002b82565b7f0000000000000000000000000000000000000000000000000000000000000000905090565b6060620039997f17b355ef40058aeaf7c26c8927690560a2c4c4216dde24b71a7a9f03aec604b560001b62001d67565b620039c77ff815f3842a98c6f9cec0f04aa4934f6dea0f5de2e999217d58185d4eb88d98df60001b62001d67565b620039f57ffa543718d62142def29bed5b85057d1941cea6f37ff96e276959eecd780b7e9560001b62001d67565b60048054600181600116156101000203166002900480601f01602080910402602001604051908101604052809291908181526020018280546001816001161561010002031660029004801562003a8f5780601f1062003a635761010080835404028352916020019162003a8f565b820191906000526020600020905b81548152906001019060200180831162003a7157829003601f168201915b5050505050905090565b50565b600062003acc7ff4fbbef764711ab4f7700ac234655ad6c4d11bdf0bc729ab13ffef3c911ebe3560001b62002b82565b62003afa7fcfc750f87534bee5efd2c35794937236e52797df7b98bc41ddf85614db08574c60001b62002b82565b62003b287f4bf6b072b0980b61d48f8bbd519084014f74d4c065fe6c1f5ffe00e1e77a9e5060001b62002b82565b600954905090565b600062003b607f55b2c706edc1fac40420f6b6ee2c7fb303ddd3f3b2e904e75d52c6bfd88e56fa60001b62000d7d565b62003b8e7fc498ca4ed44b1ebcfc965c587448a4caa7674ba28574ad44c701d0b18d270cc260001b62000d7d565b62003bbc7fc0eb990e8883f9af90f456b244df4424ef0fdb6588346633543bc7fad5d1535e60001b62000d7d565b62003bc662007bfa565b62003bf47f44575eacace6313d4ce3cb25629c3a9f23ce0f7905ebb1784022d4cd23e99a9260001b62000d7d565b836080015162003c277fc9d05152e2251c04222e3f2cbb04ceffb7461172209c4db462b1e48117d8d8b260001b62002b82565b62003c557f2cbed535fbb87503e1037c33482f236ed1c12414f999e5c24c2733a9d6554d0960001b62002b82565b62003c837fbaacd8912a7b2ba8d0a087774e90faa4834c8f7eb55366803ec2b157a51b568360001b62002b82565b62003cc762003c91620038b7565b73ffffffffffffffffffffffffffffffffffffffff163373ffffffffffffffffffffffffffffffffffffffff161460cd62006d18565b62003cf57fc3f07458696f66b32ef204e3163fe3a6c859661042b5da689181846f1104829c60001b62002b82565b62003d237f4efd6a0d5b8e8d4c0d369a42df7f4c864394cf44e00fe88480d017d9f80d8c5c60001b62002b82565b62003d3c62003d3162002021565b82146101f462006d18565b62003d6a7f7f18b566330e8828ebdebb69b0f45b3c6cdabb3c4d216ef251569fa0c63be62060001b62002b82565b62003d987f8387b9d65ab4f64fa0104ab3591906cf8e105445b0027d87403f752dceb4449d60001b62002b82565b62003dc67f9dbba3b81128c89c1cc7c42f472cd443f11bd5429ef4196a46739fd9a917988360001b62002b82565b62003df47fe4c11a346cf1e336266cf8f74a048652c37ec2318451b0760a3bc9d872aa2fad60001b62002b82565b60007f000000000000000000000000000000000000000000000000000000000000000073ffffffffffffffffffffffffffffffffffffffff16866020015173ffffffffffffffffffffffffffffffffffffffff1614905062003e797ff5f3d01fd19844929e169a1be8bb4b12e8676c46d36ddccb52bf21c618e4c85560001b62002b82565b62003ea77fe7f48f21af92e6313ed8278bcea1c083ee49755f8d3505752f6de2c4a319dc6660001b62002b82565b600062003eb4826200a547565b905062003ee47fe00cbbbf00b04e4d72473475dff6cedeb3aace8abec9f541ee8f11bc851cf00a60001b62002b82565b62003f127fb6a39d780f3bae9f848565bdb00e270acbd86cb1f603d551e3c3c8741266c54a60001b62002b82565b600062003f2083156200a547565b905062003f507f08f25f8a4af3090580e236e18f6876386c04b355ca6f42884a3ff92f5915236860001b62002b82565b62003f7e7f89098027f3544bad61a457f7b3026283605d3cb257f9f160a3364447898ef96060001b62002b82565b600062003f8b846200a628565b905062003fbb7f5d3379017b4aabbe91e5022fd88c3f72afd38df18479f617cfda5018d083567260001b62002b82565b62003fe97ff232bc6fb9e49c65e0a4821e3822da5e3ecc1e7f8f1f4ea44dcbde33eccb8ebb60001b62002b82565b600062003ff785156200a628565b9050620040277f6c631d993315aa8624002d082ab0697bf7b5973198b47a58a760a52fbe34c3c360001b62002b82565b620040557f647f2aebeac950bd7924a3b9a8105f0f7f4778ad563b0768eb62a3d451a2117260001b62002b82565b6200406189856200a70a565b9850620040917f068396efc5702ae7f05734f8fd6ac2a11ed6ddec13791274a870ba502bb6d7e760001b62002b82565b620040bf7f862e52d13eb59cb096a6081bf6926cb218a508fb660f91fd8c1d68dd968594d260001b62002b82565b620040cb88846200a70a565b9750620040fb7f8c93a019252724f2a281796a497f34ebd594c93edca4ebdf003b1e9756b7a1d560001b62002b82565b620041297fe9f61e231f4671630141397ffc9b543723b943bb8f40cada00f111d23181316360001b62002b82565b620041568a60a00151866200413f578962004141565b8a5b876200414e578b62004150565b8a5b6200a7aa565b620041847f050f377043204be432c7b60f13f1202d6dd29c48afa220e67c82bd73f4525f1a60001b62002b82565b620041b27f90b136af098b6d3199c8dff5077935ddbfef101806826c98b4418a086fabd67060001b62002b82565b60006001811115620041c057fe5b8a600001516001811115620041d157fe5b1415620043f757620042067fa9999a0abf617f4c99610727a63c23a48e10d42105bf46ee77e69c2db6954bb460001b62002b82565b620042347fbf87ed9404b89c07d4efa5a5f2fbca1d2cc39e1ea9ee3577da667d3752bb667760001b62002b82565b620042627fa1e2ff53ac076f4a94afb6064cd6a17623ea85b549c976ed09485cd9a03241c360001b62002b82565b60006200428662004272620023f2565b8c606001516200adc590919063ffffffff16565b9050620042b67fceb697922fa3d9156b96675f714a22b37c035b3e473c4ab4f586e7c9cd1e007360001b62002b82565b620042e47fbcf010d50c266f9740e1c363a15cb955828689998bd701d37fd9b71b437ebe2260001b62002b82565b6200430862004301828d606001516200b08190919063ffffffff16565b866200a70a565b8b60600181815250506200433f7f4bf51d6385fac3f69998589556e863dc0c61a38aa98fabccc99f8118a0f5950860001b62002b82565b6200436d7f19b3571f796ec3b66869236220ed4fc9d3ab5cec90c620eb5c1b80a076e42d4560001b62002b82565b60006200437e8c8c8c87876200b1e6565b9050620043ae7f3d29937d948d987ac3d40e02e9c9b3082b10f9f11f5dd880921b2e7c9f6dd0b060001b62002b82565b620043dc7fa4cfaab068a754895be9252948c973cc9931652af485d79f7d02700e07c9a4a360001b62002b82565b620043e881866200b290565b98505050505050505062004600565b620044257f1e447e09327b3cf6056c9c14184a404857dd8681a7d409d92295a32dfdd63a6c60001b62002b82565b620044537f9c0f9f8a4c88b5a68bb71491cddb419e605a9ce7b5a7ba7021a2bc6af45ad89a60001b62002b82565b620044817fc8af777287c1d34154e82458aeec9567e1085963a762c28d200057c1392cfdf860001b62002b82565b620044918a60600151846200a70a565b8a6060018181525050620044c87fb8903728bed99965a15d1bea7d3142bd5e796a5a2bad85f687c3b04e455ae42660001b62002b82565b620044f67ff3e6df230b25ea780cf9d442fbdba6ca837f338c1b9a6291a3a85c91b975b09160001b62002b82565b6000620045078b8b8b86866200b330565b9050620045377fb94fa3a0c31b2c0159bae7c83c4692d1e6896032ebfee3cc920aee79228d026860001b62002b82565b620045657f9d1ab8fff2ba14faae0d9f25c1c1478ac03f808fcec3f7153979e0032bfa417360001b62002b82565b6200457181866200b3da565b9050620045a17fa0c127a24b5d7492f1507fedc7b921153b7ba477dcfe4eb3bb6152362aa2c5c960001b62002b82565b620045cf7fa776be71801a4cfae37a5814d73625e488d8c703df8191323a4daecda791a4f060001b62002b82565b620045f7620045e7620045e1620023f2565b6200b47a565b826200b53190919063ffffffff16565b97505050505050505b509392505050565b6000620046387fc7d5cde1c91db565920f97654ccc517109b3f3285bdac7cfb18268f263704dbd60001b62001d67565b620046667f9487286039ccd1cce5e53f904e199d78750bbd4bbfd7c62c9c1d60ecaf56e50b60001b62001d67565b620046947f1f1ea87194eeb14be5cc6cba45ae9e9337ea06004a9c7af017b41caf703e4b4360001b62001d67565b620046a1338484620077cb565b620046cf7fc6ffcb393b983e991aaf4197cfc7014a15c25f6cf5ac9eeab80c7f1a3f11647360001b62001d67565b620046fd7f49c2eaedb9cca58be5fe2e3d6e47577701e46c37362340dbea73aed6cba3b22a60001b62001d67565b6001905092915050565b6000620047377f61a456c406e6bddd1e1783c07eb5227da8606b4ef5a91e1dd9f5cab8fd10e64b60001b620020d6565b620047657fdf5db6dcbe1022d3314c823ebca0c8436089c20f219ddeb21408ebb54a23afa460001b620020d6565b620047937f611743155308434ae26e8814f1872b30c4b60a7ae02d34c5090d72d0976b15b860001b620020d6565b6200479d6200b855565b905090565b50565b6000620047d57f0149cbeba0c3c09d01eaefd05cff2a098d8c3a4ace4265a7cd63ed4a3f76469360001b62002b82565b620048037f31599f2f1b2c0aa24ae1d6cd6d985133a4b7c3b106645152608126714782f03b60001b62002b82565b620048317f4c725ffa08c47658bef012ff62353f18807581a343fa9faade2a6546d7fd85b360001b62002b82565b60006200484b836200484560085462006c6f565b6200b971565b90506200487b7f0c8b722bd531dfed0ef40e5c5956da3beb683be9b96567584a021116c85982c760001b62002b82565b620048a97fa0ee648e38b3beeb987c777153efc48c4c82dda09cf641ee6c8d886bd11fe81d60001b62002b82565b620048b48162007725565b915050919050565b6000620048ec7f06b788723d14958738110fc9b7fcff256f0e8d11237bddcc4f78e87ccef34d9a60001b62003a99565b6200491a7f8b4286e580643673bbf9749084595424af56198d5d5bd0da02dda751a9cdfd3160001b62003a99565b620049487fcf7f9f0ef0aaa51ca41094b7cfae83990547b38257cc36c2656d728cad58f85660001b62003a99565b610400905090565b6000620049807fe3363744fcdc999d1ba9b3fa43742a5883a3c1cab0c2cf8922d839355c2f0f1360001b62002b82565b620049ae7f30c96148938390bb15d09520552e63434a85b8794618340e7f88f9f390d3ed8a60001b62002b82565b620049dc7fa8f1f97d176ea07ab3fb10d7a6708fef3fc40f7a1b2eb2ce057cb1d38c3fbda260001b62002b82565b6060620049e8620038b7565b73ffffffffffffffffffffffffffffffffffffffff1663f94d466862004a0d62002021565b6040518263ffffffff1660e01b815260040162004a2b91906201b07a565b60006040518083038186803b15801562004a4457600080fd5b505afa15801562004a59573d6000803e3d6000fd5b505050506040513d6000823e3d601f19601f8201168201806040525081019062004a8491906201a653565b5091505062004ab67f03cebf0a71434cf3e45a49dce6dda52e24121eb33d0ee5cd5477f374f3fb109060001b62002b82565b62004ae47fe9f334f355d0df5ae55c2777f6ffa105bdf360a26be84562cce44348270f0c3c60001b62002b82565b62004aef8162009b98565b62004b1d7f853c2fc6bb52ab64bc68e181c881eaf56d9e417b5f61cadaa5f0d6af500703ef60001b62002b82565b62004b4b7f47300d5abdd0365a5e17f0cd5d132aa49d4eee3ebe36fd40bed48da96eff905060001b62002b82565b606062004b576200bafd565b905062004b877f4f9be7cd900b4daf60c5878dbffe9767b6a3e2cb0694491095d42245a5447e8060001b62002b82565b62004bb57f10850e15177bf50d1493e59e5ed10d8dd0659ba65b693548ed73ab4e61664e6760001b62002b82565b62004bc181836200bd3e565b9250505090565b50565b62004bf97f9e6607f156be20e58f9a51f80fa5672f26c76d76f8af4db1fe3973a095ea94e960001b62001d67565b62004c277fc4824ce5996dc5918169681705c4a696b3534a22d9100fc5f9e282d8a34f158460001b62001d67565b62004c557f49a8c7b9f73719cf4f0c88621e37eea02abf69414627563f36cd1d4b26c8a52760001b62001d67565b62004c658442111560d162006d18565b62004c937f2117cacd3625bf5ef48d271399307c9501a99abf036d7b44555a48475d88f75360001b62001d67565b62004cc17ffd1800c5ea3000172f950dc7ca86794cb57a8d9e1152dc03e54c440b047af19360001b62001d67565b6000600560008973ffffffffffffffffffffffffffffffffffffffff1673ffffffffffffffffffffffffffffffffffffffff16815260200190815260200160002054905062004d337fb809fce7c03d50db8ba1876a6f0380405e0b21614d172f3be817d9be546915f960001b62001d67565b62004d617f9277eef8ca40423550c8c6bb460b8550107822f0b23ee133dcbca26324e0d90560001b62001d67565b60007f0000000000000000000000000000000000000000000000000000000000000000898989858a60405160200162004da0969594939291906201b0d4565b60405160208183030381529060405280519060200120905062004de67f4e4390c189cd9fec2fee917915f9494120c5dc3361bcb5aead6a222bccfd680560001b62001d67565b62004e147f07e585d122fbf6cbba88960e9b3d57fd2e7c358ec9af4aa1b57f55970c58d6fd60001b62001d67565b600062004e21826200bf6f565b905062004e517f02e2870a44c833d8837321eb156a098c29a316bce1a5e9c84409f4d637d190c960001b62001d67565b62004e7f7fa1d9efdfa0d73e58b2e475b03371ad10ebe2495772ffabbb2bd36d0c767bea7560001b62001d67565b60006001828888886040516000815260200160405260405162004ea694939291906201b19e565b6020604051602081039080840390855afa15801562004ec9573d6000803e3d6000fd5b50505060206040510351905062004f037fc20defd178dd15aee2be9d753b81a319562bb6bb663a2727d08d87bb245cdb7b60001b62001d67565b62004f317f4d999149c4869297fda2c264f84945c98b57f7a86df38adee937d261730f218060001b62001d67565b62004fa7600073ffffffffffffffffffffffffffffffffffffffff168273ffffffffffffffffffffffffffffffffffffffff161415801562004f9e57508b73ffffffffffffffffffffffffffffffffffffffff168273ffffffffffffffffffffffffffffffffffffffff16145b6101f862006d18565b62004fd57fc1e08c5b0d718dd589e2de137bab624c5ca598b711afec95b39a18eac5af824c60001b62001d67565b620050037fefcb7d9f6c2a50231d6be8ec6f6eef473a9e99619024f2ea72c80891e7035ba360001b62001d67565b60018401600560008d73ffffffffffffffffffffffffffffffffffffffff1673ffffffffffffffffffffffffffffffffffffffff16815260200190815260200160002081905550620050787f613526f5215af821f01f2ef24bdfa4b220464d95752abcb6308aae877a840c8c60001b62001d67565b620050a67f1a993035dbefbc3de9835550d2d1a2623c8d261935be347d3660c424aa84d94c60001b62001d67565b620050b38b8b8b62006461565b5050505050505050505050565b60608088620050f27fc9d05152e2251c04222e3f2cbb04ceffb7461172209c4db462b1e48117d8d8b260001b62002b82565b620051207f2cbed535fbb87503e1037c33482f236ed1c12414f999e5c24c2733a9d6554d0960001b62002b82565b6200514e7fbaacd8912a7b2ba8d0a087774e90faa4834c8f7eb55366803ec2b157a51b568360001b62002b82565b620051926200515c620038b7565b73ffffffffffffffffffffffffffffffffffffffff163373ffffffffffffffffffffffffffffffffffffffff161460cd62006d18565b620051c07fc3f07458696f66b32ef204e3163fe3a6c859661042b5da689181846f1104829c60001b62002b82565b620051ee7f4efd6a0d5b8e8d4c0d369a42df7f4c864394cf44e00fe88480d017d9f80d8c5c60001b62002b82565b62005207620051fc62002021565b82146101f462006d18565b620052357f7f18b566330e8828ebdebb69b0f45b3c6cdabb3c4d216ef251569fa0c63be62060001b62002b82565b620052637f55b2c706edc1fac40420f6b6ee2c7fb303ddd3f3b2e904e75d52c6bfd88e56fa60001b62000d7d565b620052917fc498ca4ed44b1ebcfc965c587448a4caa7674ba28574ad44c701d0b18d270cc260001b62000d7d565b620052bf7fc0eb990e8883f9af90f456b244df4424ef0fdb6588346633543bc7fad5d1535e60001b62000d7d565b620052c962007bfa565b620052f77f44575eacace6313d4ce3cb25629c3a9f23ce0f7905ebb1784022d4cd23e99a9260001b62000d7d565b620053257f55fe9ea7952fc36b3d9be04551eb3cf302563f8dcee3ca6c1fe72aa335027fb560001b62002b82565b620053537f3226d1fa692dda03e5fdb1f154e5e6fe8249377e1ffc8bbdf6be7efc124f17b760001b62002b82565b620053817f55c574c64d219a43e5a3d79fa67339a7559529456447454e93863996664ba27f60001b62002b82565b6000620053b17fc89927922f89d3d81faed6e3983bc31fefd90b80de771f2f3a8fe32c4973978960001b62002b82565b620053df7f1a05a0c59cf6f4776395bcd3bf4447f422f489842fcd77a14a2d7aac32925ac360001b62002b82565b6000620053eb62000eda565b1415620056ef57620054207fdb3378ed8b70b58ebfe1f3f9dbcb4c9534964d7db27ee07b3e694c4a3a1d0fc060001b62002b82565b6200544e7fa9bc4219114d738e80367eb5bd760b8175100324636fc6e4fe2abe2a749376f060001b62002b82565b6200547c7f47101b6c9666df3631fa4e8af38140bc25f628530e6c93a2761d20940681a76360001b62002b82565b6200548a8b8b8b886200c036565b8095508192505050620054c07fb1e9b93fa40f5ff7fb4e67cd37b528545ea4ea26204f12bc1a763065b72f1e8f60001b62002b82565b620054ee7f505c134a6a11c81d08fad761a7143d54735042f851c03a1caa4f2dbccc14eae660001b62002b82565b62005501620f424082101560cc62006d18565b6200552f7f90b7c2e943bf6afa0d4b6a25d2db505a792b0035e36d2f74701891857d9434be60001b62002b82565b6200555d7f95a117013f0acdb2deaeec5f3eaf4e8305574c9c237226da16b81b02ba6463d360001b62002b82565b6200556d6000620f42406200c4a9565b6200559b7f4442a47ae4cc410e33582d3c72e8ce88c34a04cf20fc82bb3600c5d6a86b0dfd60001b62002b82565b620055c97fcff8b80862ac1492e3d1092367a0fe6fdbb914ae6071771812edf33c596e152160001b62002b82565b620055da89620f424083036200c4a9565b620056087fc4ad75943ca35fcd354bafef2f420c4667fdf83af2e539f7ba1765d6cb956bcc60001b62002b82565b620056367f8ebb6b93fa3733e6232fbc5dc06c5d3bdcf8a67496f83edc804eed24525cf78e60001b62002b82565b62005641846200a3d2565b6200566f7fef686c54b97b8f2d1faf7f7d5c084cf02ff6e918dcb0b025a344301ed989518560001b62002b82565b6200569d7f95e3288da6287d905fd191820711b2a3abef5998e6f1be70065b6dfbd66e5cbb60001b62002b82565b600267ffffffffffffffff81118015620056b657600080fd5b50604051908082528060200260200182016040528015620056e65781602001602082028036833780820191505090505b509250620059c7565b6200571d7fcbbc7de938bcc67b6c13d5f4463a649f2cfd3b0b1b6a64d2f0d9c4f6562ef02860001b62002b82565b6200574b7f98ae5aa055c1f0e6143debfaa2245de58743522ba7002d0369153063c357306f60001b62002b82565b620057797fb3a8046d5d82523820ee5ef19e7d221d83370dfc2bfbc0a666226802e0e6476c60001b62002b82565b620057848862009b98565b620057b27f1b5a34a49d8777fd42ed7b1b7b0bce87ea71c87128306e94b64710d442a17cf560001b62002b82565b620057e07f1b731ce5bc4812d299ca63142036f5b5cc3c4b6563b485db3310715d96f59a8160001b62002b82565b620058178789600081518110620057f357fe5b60200260200101518a6001815181106200580957fe5b60200260200101516200a7aa565b620058457fef3cff526f4740cb3bba454ec446b476e09cce4715dfd706f19b07facd7dc38f60001b62002b82565b620058737f2d93cf34a46c96e40c8407ab9f8857b3afc049dc146430ff1bfa8b09346c8f7a60001b62002b82565b620058848b8b8b8b8b8b8b6200a02a565b809550819650829350505050620058be7f556f0e057e11afa891e68a4576ac30eee57c79d25269a36e739e8f15949bfc6a60001b62002b82565b620058ec7fa18838ec3f870c085b9a65890eacab8c9066a2dd2ed5083fb07c07bf3fc83aec60001b62002b82565b620058f889826200c4a9565b620059267f717583a3003086e5e8ff8e36a5139f4820dec8729cd14eb50ab9ec851270b4d060001b62002b82565b620059547fdccc9985b01bc85b7cd5e4b92898faf4c42cfc9054a9d9a69b07e3777928d3f560001b62002b82565b6200595f846200a3d2565b6200598d7f248566c885cbb0ba8e1615f959c7b2d91ade1d19e3305c329a7680eacf97576460001b62002b82565b620059bb7f62a69ac45a12a4f46673cfdc381b982432e176beb0fc0e7be6a660ef0c9e717460001b62002b82565b620059c68362008d84565b5b620059f57ff5b323142c610c7fdf83beb39183ab4887bded3f8144d161d40f5fb023ec18e960001b62002b82565b62005a237f459c2b2492a6d393a169483d2cfc6e5d8983a6dabdbfcc2e7da7c8910429922b60001b62002b82565b62005a2d62007ddc565b505097509795505050505050565b600062005a6b7fdfd46a7509d626a3b832453e51ead13b14a60898a4452949dec643c78cdd0ca460001b62001d67565b62005a997fc2917056fa7523817e3b0b1ed74772a82b6e742dde96e1c3ba70b1b5af084ab460001b62001d67565b62005ac77fb3366275d8155de45f094a54cef582c1d4662f8ad3bdba62e7e1746c561ba49460001b62001d67565b62005b64338462005b5e85600160003373ffffffffffffffffffffffffffffffffffffffff1673ffffffffffffffffffffffffffffffffffffffff16815260200190815260200160002060008973ffffffffffffffffffffffffffffffffffffffff1673ffffffffffffffffffffffffffffffffffffffff168152602001908152602001600020546200c70990919063ffffffff16565b62006461565b62005b927fa9997bd0eaa435bb070e218e7facfa3f41a854bb8854af040e4265e8421f01c360001b62001d67565b62005bc07f194dfa8d20c3dbb674102bd468df92b37e9e85ad160a3faeac86d1075aa816dd60001b62001d67565b6001905092915050565b600062005bfa7f9bef354c91f97e8a27b65509ba2beb201d6cfbbeabc43be3a635677d51e5aad660001b62001d67565b62005c287f4fa18cbcff8d89208ec89c2b27d401de2e7ff4301958af59a4a7f3d86b9ff70460001b62001d67565b62005c567fcc451f69a4dc4b5eec682455c572798781afeac1c0609fd7030999ca362036e960001b62001d67565b600160008473ffffffffffffffffffffffffffffffffffffffff1673ffffffffffffffffffffffffffffffffffffffff16815260200190815260200160002060008373ffffffffffffffffffffffffffffffffffffffff1673ffffffffffffffffffffffffffffffffffffffff16815260200190815260200160002054905092915050565b606062005d0b7f625f322cae93a91fb4f01ccae5b89624733210319532697eb1a1caceb755bafb60001b62002b82565b62005d397fcccf162c872224f889a6184a8e7aa08db331a85278f24f629158c1539cedb0ce60001b62002b82565b62005d677f7423673e3e3ddb55cc3013ba7e784a136bf947c33a6844f85c951823b61274eb60001b62002b82565b62005d716200bafd565b905090565b600062005da67fb16f3097f59566f7c154d4560fccebe6f2cabcd06662cc5ac83fa169180a7fad60001b62002b82565b62005dd47f8faae8e4b159c3cf64437b270eeebfcaa21abc8e9ffe30510d6b5802f024e9e260001b62002b82565b62005e027ffe8390b725906c269437214dbb990ddcc8741e8cdfeca780a252ae4aba7d02d860001b62002b82565b6201de20905090565b600062005e3b7f5f36fb0c028103edf307467f63f0332f966da8f673e1c7ec6aced59d823aae6260001b6200c86e565b62005e697f44b88f08c3beb7c1738a70418178f0bd070b94ca34f2d76f0ecc9e722ebab05b60001b6200c86e565b62005e977f089af7c7f34c896b1969367a1c50582a2d2ac2cc2c5e04246250cb0ba151867260001b6200c86e565b6000828401905062005ecc7f258ce8748ca545d5cfac415b21ac328631ad1fd9f61842fc89135db464f24ed760001b6200c86e565b62005efa7f1cc115f28de7ca40c964e4298498543601b967d758e03fb745dda2e2ef4966c660001b6200c86e565b62005f0a84821015600062006d18565b62005f387f3fad55df3aa1830266f7765bc1f949767a1cbfd6d2697a8d021c032e32a426bb60001b6200c86e565b62005f667f1237371198ec3b9801ff55f45911f80dd6332e4e689796642e2b2e8c75af767160001b6200c86e565b8091505092915050565b600062005fa07fa4599e6a51e0c6c7199492d5768a6e12b9747fcf284d3bc166bd0bcb74a0db8760001b6200c871565b62005fce7fcdbb58b0e78f6a26b1835bad5e06834cf0a8c1314b8c466e3127749b942356ff60001b6200c871565b62005ffc7f1210ae0b32e1c5d0af22506720a4ddebe973aa6680491ad083c93190dd57c0d260001b6200c871565b62006014826055856200622d9092919063ffffffff16565b905092915050565b60006200604c7f765a9c9c21789d278d0aecfd5de2147711a6bf60a7ac846f7d4cd313d35db34f60001b6200c871565b6200607a7f6ce47c021c8a65f6653347fc4f764dd30df504b309f7d6ca06dafc763d2657bc60001b6200c871565b620060a87fefcf81f00a61e3626b177c1c1f4936a5345c759358c98be5244a4dfab6d9d45860001b6200c871565b620060c0826056856200634d9092919063ffffffff16565b905092915050565b6000620060f87fd3476389c9167915828e1c41fd58b501be617f81bcda7df7905ebaa183b3c4bd60001b6200c874565b620061267f763e3966e690f5b421dcd041f04b48a1b193ed59a99cfdb60b67ab3dfbf2eab360001b6200c874565b620061547fd040ddffed94a5c3f1ea2412fc14f14911f62630c664bb38108164ba34c6c5bb60001b6200c874565b6200616483831115600162006d18565b620061927fc95d13badf35636a18cef429a1cc30fcff497d0f377233d60d91a54b5222bb6b60001b6200c874565b620061c07f28183ac30fe9ec9460a9d28cb4e04f1c3d89222564c20b044bc81e450ef8cb9760001b6200c874565b60008284039050620061f57f2996cf182068f32853c4842e48ae8391b1959ea375b654bf401398afae3fb9a460001b6200c874565b620062237ffd16e19fe244cb693efc31c873bf159b238b28cd50bd7fb58b14e97f7b30750760001b6200c874565b8091505092915050565b60006200625d7f8a5ecb6d6866756548e815ebe3eca594b8bcddb65b084dc0ef45911b79db939160001b6200c877565b6200628b7fb997998588bce4128dfcec44044e38644f0afd4002d06f1737765da3e940196560001b6200c877565b620062b97fc4892846254ba52d57c618a5f0974c58ecdd7a3f9fd3e9f7c7651410df3d2f4f60001b6200c877565b6000826001901b198560001c1660001b9050620062f97f2744f6bcfdb3b8fde86a4d9548cce79f97ec5ed38f7d8ce0b222da6180ab883a60001b6200c877565b620063277f53340cb77199b6c615439bad1034b422b9438ac46c59256b063204127275eadb60001b6200c877565b82846200633657600062006339565b60015b60ff16901b60001b81179150509392505050565b60006200637d7f71166feeb1439b1e62f6ae5e65d4c8ac18242ab42c0ed3609c9e4e9db09af14c60001b6200c877565b620063ab7ff43dbc3a2e5245519ec3bc94998443b94cf7ce1c044175d439c04fb36737725660001b6200c877565b620063d97f0863499a14cdfb59a08cc60c026df2f2b17cd174710dc33969936e9efe01827660001b6200c877565b60008267ffffffffffffffff901b198560001c1660001b9050620064207f3d9fb5a0b3867232c4e84b84f079c0267a81c06fa863d609d35c83305c98981360001b6200c877565b6200644e7fd52227c2ee54dba7d0b4746487b9ce055b6498abe751847759c111fef3fd1a5460001b6200c877565b8284901b60001b81179150509392505050565b6200648f7fc7a1e0755317c73eed4a843031f2ed5b5c2e17a13b1f73d009691ee190faf90e60001b62001d67565b620064bd7f1538e5626f56b8812047d1f2e6e4384d86dd2df0665f323234f6c0f1e131feeb60001b62001d67565b620064eb7f11d03a43029703f5d84de54be3dfa1ddc74977a193385b16770c4089fe51840860001b62001d67565b80600160008573ffffffffffffffffffffffffffffffffffffffff1673ffffffffffffffffffffffffffffffffffffffff16815260200190815260200160002060008473ffffffffffffffffffffffffffffffffffffffff1673ffffffffffffffffffffffffffffffffffffffff168152602001908152602001600020819055506200659a7f7aab7e493ff64ebff04f2f5426e9a21c461ac7c528f258e3ba2088c959c1091b60001b62001d67565b620065c87f063c785473b3e4492705c4e64cea46ebaeb98480c45bb9629a4819c1403a759360001b62001d67565b8173ffffffffffffffffffffffffffffffffffffffff168373ffffffffffffffffffffffffffffffffffffffff167f8c5be1e5ebec7d5bd14f71427d1e84f3dd0314c0f7b2291e5b200ac8c7c3b925836040516200662791906201b333565b60405180910390a3505050565b620066627fee6b13cc663fc83397456b0aa96802fb13538819560f9edb6f8e7b741a72f53860001b620020d3565b620066907f39ab045597dcd2e91680c88e6a16c3be9c35aec35abfd0a983b97db2747a626c60001b620020d3565b620066be7fa7d629b89f18d2a342559332fb4bb334709674b097663cda4332f13762a4c77560001b620020d3565b6000620066ef6000357fffffffff0000000000000000000000000000000000000000000000000000000016620035ae565b90506200671f7f1f27bb1c2197ceb722f7da0d0716224da6e67a5388819b6d33889e0d61317ea460001b620020d3565b6200674d7f7da4f63bcb1bb19803d5a6d9059f7ad5906710c0ba0b6fe17e28839a722402b160001b620020d3565b620067666200675d82336200c87a565b61019162006d18565b50565b620067977fc7c5367f9c7e240f3cdcb6923bc045f862ca4a39c752da8b71c5ae1472d73bbe60001b62000d7d565b620067c57f50d58fdc3abc20e1cb392918770a267ab78e72d605a02d4c4056b501db10a04560001b62000d7d565b620067f37ff6efbd77e87e2ef28cf5f850cac5b7ad75d84fff9ff5caca222139c78f468e4660001b62000d7d565b8015620068a357620068287fb0f141da337ea2a1d59d1cc8430775c2bf672d5ff29998ac3ba940811e4e0d5d60001b62000d7d565b620068567f5ad992b766091b4243be03e56fc4538811c13fa8b0e1b27463c7d99314c736bc60001b62000d7d565b620068847f854ef49914eb0527fc17f31ba5fc3af3040cc31fd84cb17924230ece061e54b960001b62000d7d565b6200689d6200689262006b0b565b421061019362006d18565b62006947565b620068d17ffbbd4f7e556f0535cac9cd0150c9652e7fad42626de7b7dc3776a83d8732f59760001b62000d7d565b620068ff7f7ba1e9f2c217e1d23b4eb7f3ac04caa7bcd691b228ee2fcc3d594ca57be6395a60001b62000d7d565b6200692d7f599896393482567181121cb835626e2e456628f1bab956b29525539ad0d6759360001b62000d7d565b620069466200693b62006bbd565b42106101a962006d18565b5b620069757fbd8ef2821bd1e349a1d65969330f797bbfc76b766c2f8fa530739eb7fa58067160001b62000d7d565b620069a37fe34774678af6ce655031cee2d93babe65cd743cc5b1101ff217573d2a7335b4b60001b62000d7d565b80600660006101000a81548160ff021916908315150217905550620069eb7f3706f6e6399e33e922ec7fc2e0fedd5bda1541494c7c9345dc31ccc1730fedea60001b62000d7d565b62006a197f18f5a22ed7dffa75d0eb20fad03ef1137724c580e4f9c2967fe3c420f96eaee860001b62000d7d565b7f9e3a5e37224532dea67b89face185703738a228a6e8a23dee546960180d3be648160405162006a4a91906201b020565b60405180910390a150565b600062006a857fe3746e81cff91eb3d77d543981cd6cf706f8d76397da183679a4b3dadc9573e960001b62000d7d565b62006ab37fa5f231f807570f144e78643005e399439fc73b5ab16a0241ef6b24ae7bc1f55260001b62000d7d565b62006ae17feac4884d0b5f8c5a57f3de251fec5b8b71daf1aa7f8f19b89e107d0d5163560a60001b62000d7d565b62006aeb62006bbd565b42118062006b065750600660009054906101000a900460ff16155b905090565b600062006b3b7f7f05abaafac9ed7d954843addd8fdddffb19d3fb16a0eb1b29cde5d60bccefd860001b62000d7d565b62006b697f8fbfa5292fa05b965a2a739fb121e9d0379a7b60e58c67077bd84e58c4bd586060001b62000d7d565b62006b977f13a8fd0ef51eb9e4725da515e4be7071dfe9a07ee7a31d0913b401970727c27260001b62000d7d565b7f0000000000000000000000000000000000000000000000000000000000000000905090565b600062006bed7fb873c902804ee19693ddfd186de3098d59833aa7da7373ff1801e99a3eea378e60001b62000d7d565b62006c1b7f5bfb346ed3ea17ece69b5bae634d25809cc15f9dbd55df8a316dd45da9ca006660001b62000d7d565b62006c497f5b028bd9817cd40d7d4273c5525d5e8bf5660b6155e1cfb1bc5cf297fa2762e960001b62000d7d565b7f0000000000000000000000000000000000000000000000000000000000000000905090565b600062006c9f7f51e6ebdd6157162c552a39070d6edf92caa97394c02182f02ae7fd54e7931b6a60001b6200c871565b62006ccd7f762acfe9f1a79bc32cead472dc5a5a77c7f373c9ef5b5e8e38a334700e78ea2560001b6200c871565b62006cfb7fb5442ac7ad3dc94d4a865ac9a20882ee24cf2300994a85c70c454dbeef312db960001b6200c871565b62006d11604b836200cb6690919063ffffffff16565b9050919050565b8162006d2a5762006d29816200cc05565b5b5050565b600062006d5e7f50597b13c6c3eb2286cc6d46aa63e395377275505687afd67b47185f00db477260001b62003a99565b62006d8c7f2545ac37dd13118d9aa863def0b325c4e82546ee38217aa64349c7f8d1676ab260001b62003a99565b62006dba7fdfce5ebe43344affaad295a797ae7c79168d0879a4e0af04a4bb00e8cdc92ab760001b62003a99565b62006dcb8242101561013862006d18565b62006df97f9a0881c5044a196f16771723558b7aa4ce18b596fa8bdf62c9e63857413d7b0d60001b62003a99565b62006e277fd25a7f8cfe4280cdcb9235f13d7abc0142cbba7172733cc44c0dfcee5c6cee8c60001b62003a99565b6000824203905062006e5c7f66d50533bad0124fba91b62f760b4d6876f87dde262fde5b91ff72cdfca5a96760001b62003a99565b62006e8a7f67ea8f765661a86d7d97ff1f69fef9f075e1792e3f23a66f0171d5bf84c371e060001b62003a99565b600062006e978562009336565b905062006ec77fd08c1b84601e458bd632650a7185f24d61c576dd3205de11bc11aa30b96b96b860001b62003a99565b62006ef57fa8a8adacf3c4f6343e241f94b8be8837de2ee0bd1f753cb92ba2941894c908bb60001b62003a99565b600062006f02826200cc75565b905062006f327fef7fc94ad33b1eccbd74a09062d1362e9f6986f094b73c467062e6e23e3de54e60001b62003a99565b62006f607f57279e9a8767667114240cc6966679edde23c254dd02d7049804ce7b3ca3b2b560001b62003a99565b62006f716000821161013962006d18565b62006f9f7f7b6f7df21249ea2bc3a1889e270394450be5bc2a6dced9cf3a4c31a00e85174260001b62003a99565b62006fcd7fdaa6358730c915099fdff8f5bedef32ba343f13a84250797cfb913aaf0b3cae860001b62003a99565b828111620070fb57620070037f680b0636f860bd42f205c89db97d71579d8ec0eba23db84f7a0811e99828dfad60001b62003a99565b620070317f16a5fa7a02150df9b7923a48156272a89f7dd7fd80c36285e0267ee655291ec960001b62003a99565b6200705f7f30df5fa66fc15e3c5c98b463ceddef8ee0601d1beebbdcf0ce13e8c753d6408260001b62003a99565b60008184039050620070947f328a5a3cdedcf81f39999beb76b0e7c4e647987d17704d1d56eb8ec2b7fee6fc60001b62003a99565b620070c27f168697ee29a70c306d783272a2fa96d1f7258c1459d94065a18952a3c6af226f60001b62003a99565b80620070d889856200cd1e90919063ffffffff16565b02620070ee89856200d02290919063ffffffff16565b019450505050506200771e565b620071297f7769233a42afbd715987687b727712979bd8b8869a0a0b8af18c678329123d5760001b62003a99565b620071577fc8c6974f38a45bcaa96fa480a2cb4e7e9a634ac7eaa7da403aee67119f82334760001b62003a99565b620071857f5bf3ae0b200a79f873c4057f0aa8b65f19fa55d8544538aa30d673955e95a34a60001b62003a99565b600062007192876200d326565b9050620071c27f7e6ec3926e2569d4477a3f1e46b27d63992d181ef092124359d9ceec867024ac60001b62003a99565b620071f07fe7bc796ce1eb2dbb8e33fe2201aecfdb3cb11f0c75add7567235ceebb24e21a760001b62003a99565b6200721e7f68f1690bf0961e78f93ca7cc4bcad025f818853a5efd702aeb9b8063b2ffaa3560001b62003a99565b60006200722b8262009336565b90506200725b7fef71d669535b02c627b93e0424076d1301349301144df8a2df1e6b0490070dd360001b62003a99565b620072897f33daeb106f1411bca5c4dad4b9e1313536ccdc7a57e43cded8eabcdfdd6c47a360001b62003a99565b600062007296826200cc75565b9050620072c67f0cb1393079c030b9ec86794cf7bd406d778b0af0ae6bb6c392267b0e9c17d45860001b62003a99565b620072f47f6d2191a9ae329ccd23d2cd6ec187937bed0780d60fae54873af5a54e91ad407e60001b62003a99565b620073056000821161013962006d18565b620073337f95898b9ef577c6c9eed97e35241dbb1fd0efb721a5f9d6c4697e0d84d723d07360001b62003a99565b620073617fec24b7c595bfd7de88189bf5229b6234b71c2956ac49aff3ae6c80261d5ead7160001b62003a99565b620073728682111561013a62006d18565b5050620073a27f9c77c4be262875580efbaaac1f276ce27e3ad19300d96002cfa36fca8de4376460001b62003a99565b620073d07f1e364bb893764fc428727dd9e65ab97de10c27dd6ab8b91a443fa9b1b7dd7f3560001b62003a99565b600080620073df86846200d3c6565b91509150620074117f46118920a2c5dcc226aad31a7bcde9f19e4cad767f5019f6188eda9d5d9948ff60001b62003a99565b6200743f7fa32ff3caa0ab7c144a483732a9e896c396e1ec73effb53d31a64b7bf9ef1f82460001b62003a99565b60006200744c836200cc75565b62007457836200cc75565b039050620074887f7c71ddc9afeb9755775461078d6d9e86c7e5282e7a5ed8637cb1a592de8f714760001b62003a99565b620074b67fca15d67553dcd0a6baab125cd587070ba0d8badacf5c03412150407d2284a30260001b62003a99565b60008111156200767657620074ee7f2fb0f907f55f2100c6c8948a907f37cbfab6ac56c62788e9f5965067c1e1962860001b62003a99565b6200751c7f16f12f558e4d1cc14fbddde5c3f59e4acfef46326d7f64a21cd9d727b9ffa2b760001b62003a99565b6200754a7f564a149a23f8eda32008326df0d226235865c75edebd16c6df0026c004f359d260001b62003a99565b6000620075618c856200d02290919063ffffffff16565b620075768d856200d02290919063ffffffff16565b039050620075a77f432df6fdda7cdc43665245d7f4672ad5e2b3f17b302324e99ce68277478f9f0260001b62003a99565b620075d57f2d3f56aba2805fa802a45809062848bb3787ec95613a4890d3e22494b3b7d5a860001b62003a99565b6000620075e2856200cc75565b89039050620076147f5a8fa933be7b957729fdb58d4ae4ede961345c9e666764bd21778890b6a5a34d60001b62003a99565b620076427f3f15ed100ac4cfa6ca02856f8c6941f8ec1cb3544fb29439842452f56f02c10460001b62003a99565b82818302816200764e57fe5b05620076648e876200d02290919063ffffffff16565b0199505050505050505050506200771e565b620076a37e62803fd3d852fc1eb08f60ea5c58682e760c1908213148ed61a5e994f21e9460001b62003a99565b620076d17f6d31f4da666ff1664863289caaf928c9a05482d6060d1330c51db03e9574076460001b62003a99565b620076ff7f830c03ffec9ce53f33b24d8013e751c7a5e0912a008a1f9775621e57bd23fc4e60001b62003a99565b620077148b846200d02290919063ffffffff16565b9750505050505050505b9392505050565b6000620077557fd60a3d1569c5f55436e862a835681bf18406fc13714233cea6f72004fe83edcb60001b620047a2565b620077837ffa22b9074ed9ece98e4af94c18b3786ca704bb8e8fc6fea12001d4ef336681c460001b620047a2565b620077b17f826badb526724f08ff5ed9282804a951b286c83017c877ff956d8ce3bd873fb460001b620047a2565b620077c4655af3107a400083026200db2f565b9050919050565b620077f97f5ac6f10a64ca2ed073f8c7d1a41d5b1e3066960cdb80bc14abab5c4106ce044160001b62001d67565b620078277f4e38d37832e7ca16bc928d0c57baa2f427b61e2dcfb104c2c4a45fdb652bd2a260001b62001d67565b620078557f14c54e7996f1a08ff173d921219c1fbdcdb237bbd1f0d77917125c7830f1aad660001b62001d67565b60008060008573ffffffffffffffffffffffffffffffffffffffff1673ffffffffffffffffffffffffffffffffffffffff168152602001908152602001600020549050620078c67fc65264affe36577d4633f05d06f2414663dc6e43e38650f5962683cea93ec45660001b62001d67565b620078f47fdf673a2fdb849596ad5b04b048c5c7b614b5f960b59e2e208dd4323397a3d1b160001b62001d67565b620079058282101561019662006d18565b620079337f8de0f57836be6b79599a8fbc8c81694a349a47c2af26e944e5b142838d4fd02760001b62001d67565b620079617f6e0b8d7cf6d8f4aa1f9d10a2b02659d136797ed269f7ca50154581f09e773c5660001b62001d67565b6200799f600073ffffffffffffffffffffffffffffffffffffffff168473ffffffffffffffffffffffffffffffffffffffff16141561019962006d18565b620079cd7f7bf65776b449d35969ec6baa7829c287a6f5459ac6395d3336c6a405a85b875560001b62001d67565b620079fb7f2b8fba28346df9fd635fb5712cc5c9011d81f790844b9e8afdc12cfe82845e6c60001b62001d67565b8181036000808673ffffffffffffffffffffffffffffffffffffffff1673ffffffffffffffffffffffffffffffffffffffff1681526020019081526020016000208190555062007a6e7f53a017da13e1a7f30ffe7fc44baceb74bf49945c828ded6d5f56aaef8e79b58360001b62001d67565b62007a9c7f9f04c2a6477f950e7f3d42ed6ec26ca5de6babe1dd81b3fccd24e73f784547a260001b62001d67565b62007aef826000808673ffffffffffffffffffffffffffffffffffffffff1673ffffffffffffffffffffffffffffffffffffffff168152602001908152602001600020546200c70990919063ffffffff16565b6000808573ffffffffffffffffffffffffffffffffffffffff1673ffffffffffffffffffffffffffffffffffffffff1681526020019081526020016000208190555062007b5f7f270dba37f6288601d065f163c3793db0cde2423da513db1fe7a97c23b105ff0360001b62001d67565b62007b8d7f76d3269e658fa7f71f77875d98619c15bfd26b98707691dca3742308669a244060001b62001d67565b8273ffffffffffffffffffffffffffffffffffffffff168473ffffffffffffffffffffffffffffffffffffffff167fddf252ad1be2c89b69c2b068fc378daa952ba7f163c4a11628f55a4df523b3ef8460405162007bec91906201b333565b60405180910390a350505050565b62007c287f85f6e973e27fefe6b402922e42c696292a75244f5b976f605028fdea4699fdb460001b62000d7d565b62007c567fb10f7bd59784e750806ab747485664fe82e7b9614d8271965117987f8299d0fa60001b62000d7d565b62007c847fe0d1b3afed10517d38229a198eae9b028645c8411b030a95f9ecdfed78d7f1a760001b62000d7d565b62007c9b62007c9262006a55565b61019262006d18565b565b62007ccb7f64c91651e0c695aa4c5ac0cddd2f92ea95c9c74979260206fe30f83b51b672f760001b62002b82565b62007cf97fa19824121157851b3036de917494452bdfcadadd957446fc186bf66a1f88ee4560001b62002b82565b62007d277fe00958c2644605398ddc5d6fb78bf4151582c10ed9864a3b8b1dc881804456ea60001b62002b82565b62007d3e8160085462005f7090919063ffffffff16565b60088190555062007d727fb7198f0192b4d497f78e70677912d418d6b0b1cc6077144ccb6fc9ecd603aaf160001b62002b82565b62007da07f18dc1a12a348c834f29e54683b36b6dca6d8076a08cc8aef8b3dad850b42589360001b62002b82565b7f3e350b41e86a8e10f804ade6d35340d620be35569cc75ac943e8bb14ab80ead18160405162007dd191906201b020565b60405180910390a150565b62007e0a7f81aca59c4cccd89f0898f3b4c5c837d86ad2b28aec801a2ca53df9f80f94d33060001b62002b82565b62007e387f4dea19115c75c9401c6cbdaffe5cd55d77facd9dfbf4cf4973806312d289cd0760001b62002b82565b62007e667fe510faad9be1c0f4dd4b8293b0a57817ac470a7c12ddf64de4472c929e49223b60001b62002b82565b6000600854905062007e9b7fb51441e97665cb656cd72c921b9eade9025691090933adc12286bdf99d07bba660001b62002b82565b62007ec97f480a64ad0b6ef0a41e9fb035adf30af519e96f8390b22d0514a6f5bf63aaf84660001b62002b82565b62007ed481620085f1565b15620080755762007f087f703833147fb3488539462ebe97825c902e11688450da537852a1ec51dd11801460001b62002b82565b62007f367f8718cefa9471cb39f4ca7f38879894888f0831d824998fce19a76535f933fe7160001b62002b82565b62007f647f6735cb450b8d1cab85cb0a34cb91e30ab71d39354ce68daac9ef5baf3ead113f60001b62002b82565b62007f8562007f756009546200fb6f565b826200fca090919063ffffffff16565b905062007fb57f594ea26eb68dfc723439680f5c4ec3e318ff56a1cedc513f014867b5d79de3cd60001b62002b82565b62007fe27eb27a6f0218fd87c9f73dbe0f936dc64c23f168d6e5aa71aa4593b8704932d460001b62002b82565b6200800a62007ffa62007ff462000eda565b6200fb6f565b826200fd4c90919063ffffffff16565b90506200803a7fca218be4fa77984812f464e936380cf00a534d1538a61504c702d0da4f90d01760001b62002b82565b620080687f6ddeb7be375e7796616ec8eb4fc0fc657c79406169b89de68bbf0cc416f1710d60001b62002b82565b80600881905550620080a4565b620080a37f4b2af98ca94e84ec47c48b44c3a75857073246590c7dd6ed76def37b00a2200f60001b62002b82565b5b50565b6000620080d77fe10e7b24bd4523c6da60a51ad3b780e67c771b06d0de1c5eca90c0b854c1105660001b62004bc8565b620081057f037bdbcd32c3bbe29dda7fa2ae2c3305233a2ff28d10859a5c60e42a3f915b5460001b62004bc8565b620081337f4d880a132c55852e5896cc56a0afc9a5e7f67fae895e2ca89305a97497bafdf360001b62004bc8565b7f00000000000000000000000000000000000000000000000000000000000000007f00000000000000000000000000000000000000000000000000000000000000007f0000000000000000000000000000000000000000000000000000000000000000620081a06200fdf8565b30604051602001620081b79594939291906201b141565b60405160208183030381529060405280519060200120905090565b620082007ff75d1ecb29c5442fc3c5ff6393e127628c3d6b875f4ac296cecfbffc49e6ec6460001b62002b82565b6200822e7f344ed377572cd661cade2af7fe34fee7c84731f141f122dbd508d346e7e1a4cc60001b62002b82565b6200825c7f2db0135a48736d9f5784d99224571cd8fee73d593c751262a9a36ba89a5e6a8260001b62002b82565b6200827164e8d4a5100082101560cb62006d18565b6200829f7f829fb2f46b95525563db5959bd90ad91087b495d377250766cf848b4e0e2709d60001b62002b82565b620082cd7f43c99b51bcac765d8802c5399eec80963fbd4b4f7dd8d5c2b842190670bd5d6b60001b62002b82565b620082e567016345785d8a000082111560ca62006d18565b620083137fa2445d2ac48e0aff1dc3c3e998ca99bfd7023136493742901ce707cc820183e760001b62002b82565b620083417f1d30c07ab6414d21ed3e5632a646347f1cd37ead7eac3632f408d8d438b3facf60001b62002b82565b62008358816008546200601c90919063ffffffff16565b6008819055506200838c7fd96c1a715585c0c637fa00d662aef513214ec5622eca83165695f19ea46be4f260001b62002b82565b620083ba7f59c8dc8c329b9d6e55c758d0d0607f2b5185bece113253d6c9cb0e3f8509434b60001b62002b82565b7fa9ba3ffe0b6c366b81232caab38605a0699ad5398d6cce76f91ee809e322dafc81604051620083eb91906201b333565b60405180910390a150565b6000620084267f589250e0669c0c9a30f6606b328619a7b87b99c1eb1acecae47d098e9b24178e60001b6200c871565b620084547feaa8662171f7a4979ceb1541c5046cfeec0b4fdd3cb5a65b628f2b082736ef9260001b6200c871565b620084827fa2bf6a509b723f6140f31cdac06b8cbc2a03bd8d50c6fa6e2b03e2c65aa76c0260001b6200c871565b620084986000836200fe8a90919063ffffffff16565b9050919050565b6000620084cf7f6259df2870f74cef9b65670dcb07ee9e1503ab36e4846b9ab8d641fc6537d72160001b6200c871565b620084fd7fbe206269537db03b7813c61d8bf8d9c221157ec9071eebe3f568d274dfd47f1960001b6200c871565b6200852b7f30e3f1af9ad4822d379de375492260bbe411223cf71d38cd6e3e44a8592af48860001b6200c871565b620085416016836200fe8a90919063ffffffff16565b9050919050565b6000620085787fabaf615e829b8bdda5b84ceb2f7d9877806ac6ceddf1c120be4dafd3e4b2dbd160001b6200c871565b620085a67f618478054e3586cd9aa9f3252a9cfe3bfccee0886db081792ff29e68f25e5a5f60001b6200c871565b620085d47fa4132752b75de2dd240c8daf839503fe075c9ef831a3d7f7c7b60315ad36a6fb60001b6200c871565b620085ea602c836200ffa590919063ffffffff16565b9050919050565b6000620086217f5fa5c0d3cdbb93a80b5eb7b354fd97c6e4a136f4d9d120ff83462f3f12ba635660001b6200c871565b6200864f7f7f396e5c2713557c788fc93500f67dd38f05dd9d97f557bfcfa94ee503406fc760001b6200c871565b6200867d7f4a9000f18d6bd487e92875423ccad6a844fe67b28c54c06218b709caf24e5a7760001b6200c871565b620086936055836201004690919063ffffffff16565b9050919050565b6000620086ca7f4e9fcbadf0a5a5748520a912555b6317bd1fe95d8087836fa22263cfbd5a53aa60001b6200c871565b620086f87fad14e3b58687ad8ff402f87344ea06f03c0cab46a39192952be83f19701fc20360001b6200c871565b620087267f22fa4cf479c77fb81b3c95c2d9eda52fc0d1eba27c5fa43284723342ba22f42860001b6200c871565b6200873c605683620100e690919063ffffffff16565b9050919050565b620087717fb3c3ab71be1e60ccf374cd9c337f5c94a091891a248ffd88815355718b38f5cf60001b6201018b565b6200879f7f23a34501b370f017ac0b72a81570395801e215d15ea760153f3abbf09eb0167360001b6201018b565b620087cd7ff006c498284d347b1bc1a6a27ae455ca2c77693be39b0bf5701f8175df7eb3a460001b6201018b565b620087dc818314606762006d18565b5050565b6000606080620088137fdd64c2461b877a4a696c591ece13e86fc9e193c794e6b42d141a5ce7c462fd1f60001b62002b82565b620088417ff9a316facf33067c1db5db9520def603635c9999640c5e233a472b3c4c4b8ea360001b62002b82565b6200886f7f305038a3a6734b61992319f74fe63ac82d56776a611ca617ddc1385af5951a4d60001b62002b82565b60606200887b6200bafd565b9050620088ab7f1358a88c755df2cc062994604186548edee43b56ca7e8e3e0e7c8c50b0f37abf60001b62002b82565b620088d97fb0e52085d59b2f6b833df06f0e267888cb14138001a346d77569fa7c8dd7199960001b62002b82565b620088e362006a55565b1562008af857620089177f39fa2b26309693b1e09b9912396757522986f91103e6e0216b45440deb8458dd60001b62002b82565b620089457f95a36e262031a2a2b881e964476c2ff9b23068ad63ed72aefe03e2fd88a7622a60001b62002b82565b620089737ffd9c663075ba65fc1eb397ffb36e41489fac60dcf219f0d91e147c48cd52283460001b62002b82565b620089aa87896000815181106200898657fe5b60200260200101518a6001815181106200899c57fe5b60200260200101516200a7aa565b620089d87fa72fe8f0af24da27ecb11137e3635d43d018712730a58d53a9e2d01f6c85dd1e60001b62002b82565b62008a067f1f656c8ac7f848bf773d0c3fda4875fb4229043e761f7f0b948ca0188e4e9f1b60001b62002b82565b600062008a14828a6200bd3e565b905062008a447fceb712c0b2c75ed0056e4cf3df1f44c009af9710effbb05862d375a165d9654560001b62002b82565b62008a727fec52cd2fbc13fc3277bea214bcbcb066025306eefdd6668092b49f3185378ae960001b62002b82565b62008a838983600954848b6201018e565b925062008ab37f89951bd9d0c0b23c81d9596f198da7c50ca3145ad9994a84b25f616a6271bbb160001b62002b82565b62008ae17fe9cf82ad223f1e6985f45a164beceacf5e713448dc5ff8cc766a846153bc70e160001b62002b82565b62008af189846200b08162010506565b5062008bcf565b62008b267f489d578f7891a09c0d1b1e0a99cdd575b46c031a31e6af7006eeeff377c4f48860001b62002b82565b62008b547f5c01748fb1cee7d0984b8f8cde731805e1301bfb9cae61db9551d34c56531bdb60001b62002b82565b62008b827f9154ce5d5e7fba6fa20ce5d9769ea941269d242b10afdf396f757650c55c6faa60001b62002b82565b600267ffffffffffffffff8111801562008b9b57600080fd5b5060405190808252806020026020018201604052801562008bcb5781602001602082028036833780820191505090505b5091505b62008bfd7f09c52d0a083b1a1086d9f4bf4457b861fa82f579f3af090b4ab4b2a3a8bad34b60001b62002b82565b62008c2b7f36803bf2468b22c0af8d8f9ad46347cb4406230a6d6bd8cfc9f8d8cf1ef565cd60001b62002b82565b62008c3888828762010697565b809450819550505062008c6e7f55a8af102968b801a56668e6aa254f94d855e19804ec2fe87240c7d305b5822360001b62002b82565b62008c9c7f41fd025a7e0cd96a8d6e8a174e1c062e22ff6f3f22c5044c435ddf03114b4a9a60001b62002b82565b62008cac88846200b08162010506565b62008cda7f16f5212509d1db8ef947576b29368cb3e36672620ea2fe7c9ea077cc468de77c60001b62002b82565b62008d087fa46f53fe88caa7b2e7b342596ea169a470c0b3c11f633900fd43bc81a5e5782e60001b62002b82565b62008d1481896200bd3e565b60098190555062008d487fafcc73dccb79debfca270109942e2df8dfb95083e6bae37be13c1ca1561bd7a260001b62002b82565b62008d767f2aa08c0323cb6cff541b5c84c181bb1134517a4e1eb0dd5a9b0400148fb48aec60001b62002b82565b509750975097945050505050565b62008db27fb8de96424d0b830ad340fa1c652f9aa38627d046635e80f0676dedea9993c32560001b62002b82565b62008de07ff0f3b3ffba6437f72a53759ec52fbb2239e714308f9663601668f6121f99c1b460001b62002b82565b62008e0e7f95d79a29ef232e79b621853d466050f2fe06831e27bf089fca59d37d7063dea760001b62002b82565b62008e3a8160008151811062008e2057fe5b602002602001015162008e3460016200a547565b62010a18565b8160008151811062008e4857fe5b60200260200101818152505062008e827f3183697ca8db9d361df62ad1683580d70f5ce3a7d973514dd61e2caa3532b38160001b62002b82565b62008eb07ffe64d1d5e573a3e3348e6b460a7701a4c5c4b551b2b185fcd9e60c8ad36e5fcd60001b62002b82565b62008edc8160018151811062008ec257fe5b602002602001015162008ed660006200a547565b62010a18565b8160018151811062008eea57fe5b60200260200101818152505050565b62008f277f3bc9736c2f863a315c64e149d50c9f1f38f1a435c73fa2ba98e7502398d4497660001b62002b82565b62008f557f6dcdca5e642fd56cff67d3e06a6b89b680967debd2dc875dce3b8fdbec600c1d60001b62002b82565b62008f837faee6b5accefb6725289d0f675f5f12a4815ff18b0b46cca4616a6528195e02d160001b62002b82565b3073ffffffffffffffffffffffffffffffffffffffff163373ffffffffffffffffffffffffffffffffffffffff16146200916d5762008fe57f5a4b89844171eab1b7851730c07afa271e19f511e898fcf85897dd412116a2ee60001b62002b82565b620090137fa64c3410a03fbe1d5ad0c0059710f3627990fe207f889991f64bdaaa4907243160001b62002b82565b620090417fc75805d38855d7f2e236512f8056680e6b30d876ace6c5e171ec4145c743969560001b62002b82565b60003073ffffffffffffffffffffffffffffffffffffffff166000366040516200906d9291906201af28565b6000604051808303816000865af19150503d8060008114620090ac576040519150601f19603f3d011682016040523d82523d6000602084013e620090b1565b606091505b50509050620090e37fc72c76a3719d32f97067d422e63640a3e2b905f4d2408f2364d4c021c21adafa60001b62002b82565b8060008114620090ef57fe5b60046000803e7fffffffff000000000000000000000000000000000000000000000000000000006000511660007f43adbafb000000000000000000000000000000000000000000000000000000008214141562009150573d6000803e3d6000fd5b6020600460003e604060205260243d03602460403e601c3d016000f35b6200919b7fcb45d9dd9e96e8a3a69ed20609d0238a7b69db013762c4dc1d8dbf9b84e420ea60001b62002b82565b620091c97fde567665c6ec7c50181da710e3501163ca1586ae0f77140015b62331fc09448160001b62002b82565b620091f77f2deca95f522c4ba50fee88bab3bec41fb90be603829ad37b0b2974347221327260001b62002b82565b620092028662009b98565b620092307f14a5badbce03ebdbfbb58c33fd814067d905c1898d5eea97ea06c173fa3e847360001b62002b82565b6200925e7f3317016b95fd9f1b30db18ea74d8003f6ef796ad6c081a6851186ee4f60a33e560001b62002b82565b60006060620092768b8b8b8b8b8b8b8b63ffffffff16565b5091509150620092a97f7a37d1f8b79c125dff77faf9422557205ebfdad160d51118366bc57467915fc660001b62002b82565b620092d77f50ddbd1577c065da85bf3c574bed93bfddeb1abbe2b1f6251ac5c1ff3950a23160001b62002b82565b620092e5818463ffffffff16565b620093137f7d44718148a4b588205a71b98f6d2a5f4e58e929d1fd5fd4b6ca92dab31468db60001b62002b82565b6020815102602082038381526343adbafb60208203526004810390506044820181fd5b6000620093667f01e5d27a94f2af0a40c9ee2e132c8b70dae3219dfac53dd9a281a0d4e2606ccb60001b62003a99565b620093947ff253f7f8ebd32ee36c1a05f1f63465feb5900aac24cef90312b5205421b14d1e60001b62003a99565b620093c27fd9e5c4341cc9be6a8dd1597cedacca3586844465febed41551305cc1d04e715660001b62003a99565b60076000838152602001908152602001600020549050919050565b6000806000806000806000620094167fb88592a78180a424a95eb3e82a05fe4e4bc1df6ca901158ed73665e13ad5f2f060001b62010b24565b620094447f9af65661ab3e50a2638cb5c8d1a669cb9d658e06d6d92afa552e265cd922994e60001b62010b24565b620094727f589b3dcb505b725c505602f7af9cbbe8f2610d73772b1b0d29a9c8c3547a080c60001b62010b24565b6200947d8862010b27565b9650620094ad7f638564a2b0fe2137e28bd10d293a1911f141d589cab431280e2a42776dddd02b60001b62010b24565b620094db7f482a327cce1cc548ea600800d0405e508c6ee98d814e5b4e9fd11a60f2da450760001b62010b24565b620094e68862010bd0565b9550620095167f40926056ebfc7195a95efff6ddc9b54039e1d3643954d7505ab5d7c742f0529560001b62010b24565b620095447f25b587cd7b6296d51c0b0c5df66e862d558284f9b598d152324bcc350292ebac60001b62010b24565b6200954f8862010c79565b94506200957f7fa1272a85bb32c070df72fbf7b8c9f3ee146d9a66520534493afbef48a8d21dc560001b62010b24565b620095ad7f01dbbaf236ca637e2f86d72d79789668b07fd77ccaa0545b160d40ad3634346360001b62010b24565b620095b88862010d22565b9350620095e87fe5418221dd2a960add1fd3f41e9924da6aabfa72b544e70c6756ea366f5a67b760001b62010b24565b620096167f7845eb032bdf9f62e3d65968310f611b9442f606e690855e490ff15ff1e759f060001b62010b24565b620096218862010dcb565b9250620096517f5ae1f4234e7e5d88e73646bff32bcb217e7df5cac32853c6188c6c166050dde260001b62010b24565b6200967f7fa38424e9e0ad594080594db0f035cfde8e603941b00642ed6d037e3047e3f42760001b62010b24565b6200968a8862010e74565b9150620096ba7f066e58da940cdb6dafb821004eb30720f1c02bff826f1b507ade821dd0c620cd60001b62010b24565b620096e87f0c2cfe9c15fff51e5ba1c093ab01d02450928f52570eda88684ebe28b3e4f62e60001b62010b24565b620096f3886200cc75565b9050919395979092949650565b6000620097307fc8d6f319fc1e78e2b93903d8d2ffb99089ebaffbad0e0ddf0f13ca20d7f7213060001b6200c874565b6200975e7fc973b8114f6c35c573de6ab7982d15d6df7383ddf1407b83fa98425285e2b45760001b6200c874565b6200978c7f45cab69ad4f840bababdba128d4f63075461182eff5102f8263aa61da0d6ae1c60001b6200c874565b60008284029050620097c17f52c348b58a057296c497129588d62064f502229a926e3d9f777c6e19299a497d60001b6200c874565b620097ef7fb095e5fe885899d99f77a57d70692a296ae3ffe7ae3c10292b19031a5312ae2a60001b6200c874565b6200981460008514806200980c5750838583816200980957fe5b04145b600362006d18565b620098427fa27c0f3d745cfd72daab317c10fb6f90b4e3239f60d65da2359a120c0840904460001b6200c874565b620098707f7b3ed36c13b40c8b52d3edf9a7e4fa9113cc88f18b5eba84fda1716d2c8f5eec60001b6200c874565b8091505092915050565b6000620098aa7f5ceb85d70358b3bacd1534074d8476b9815c3aa6da57ff5c4db717cf1398c6b160001b6200c86e565b620098d87f6b45de0869fc60f8014f7da0542a0a317c895d5992a32999446b847b215ea03b60001b6200c86e565b620099067f1c80b8e8d78eb73111835007cd5fbce062271945d8ad91c9713a0f5eaea6e75c60001b6200c86e565b620099176000831415600462006d18565b620099457f7dd4f066fd0af9999cf3a3dec7ae7a7af556b87168e1bfb8765875d731bc80f860001b6200c86e565b620099737f65201be675c5a31abb3b30b2863f4e84354bbabb212738434818b331218fec8060001b6200c86e565b600083141562009a1157620099ab7f04f31c69f813356d0a5ac0c9edb65d06a495176d64b8586c7cafb96d6996746f60001b6200c86e565b620099d97fbfbf0353e226ff48ba457fb68f235ebcc9f63baa19022a9039cf1c0942ae0fc760001b6200c86e565b62009a077f1609c5c09908c1eb992d9ff1e81fdb2a249516c2470fdff827e65b26dbe7e28560001b6200c86e565b6000905062009b92565b62009a3f7f2be483056be80cb935b63b4745911d2532199c222ec22fe0f78a15bbb8fed09e60001b6200c86e565b62009a6d7f0270b25143b29a9c983a0408af759a0e9e2893ffb29d7c5caf214b0d971bf96760001b6200c86e565b62009a9b7fea10c1255e0cdcf9ab2098c493934ce8f4b8547a6b179a287f637c1f536ba66f60001b6200c86e565b6000670de0b6b3a76400008402905062009ad87f0a6ae6c6038ccda5c0051980bad43ccf17d35f1670e80ae05de0d907db4c1e4660001b6200c86e565b62009b067ff192757c260626d3b1e4687cdff30fc5f9d5ad2bb5f508d95f5b59423a52625760001b6200c86e565b62009b27670de0b6b3a764000085838162009b1d57fe5b0414600562006d18565b62009b557f1d11f25c6c63a8fb3ebc8bdbf2a3555840e10ffda34811fbbb33bc33243b3dad60001b6200c86e565b62009b837f5df7b8b2cad4c987f6ba11bd0e6b7c0d29619157bb4a75d59fb0a2547633762060001b6200c86e565b82818162009b8d57fe5b049150505b92915050565b62009bc67f128b5d13d97fc6542ce478ee1702d90d208e1881c8c7f47546f52f657cd8700160001b62002b82565b62009bf47f2d47595907aa2cb347af756b14451e8d1a5dc62e4c7ad68652bf557b57f5a3b260001b62002b82565b62009c227fac97030c36661f6d7029b11498094feee898ecf705f5335d474ec17de02c9ea760001b62002b82565b62009c4e8160008151811062009c3457fe5b602002602001015162009c4860016200a547565b62009700565b8160008151811062009c5c57fe5b60200260200101818152505062009c967f41ea631fd1405ed924c8e7f262c73bd113c1ec117239b09ae3612c580c473d9d60001b62002b82565b62009cc47ff205d13e952e5b9416943d3358f4ccd041f25b1ba7c0986bf26007033875ec0b60001b62002b82565b62009cf08160018151811062009cd657fe5b602002602001015162009cea60006200a547565b62009700565b8160018151811062009cfe57fe5b60200260200101818152505050565b62009d3b7fd0cdf1539ece1f2be7de9cf2849560a641f4556089e12e31dc8aefa09458737060001b62001d67565b62009d697f135db87213a041ebc173b9a0f910e966f2157b381ba85475a314699ffeeca1b460001b62001d67565b62009d977f4f5976616bfbea85925bfd68663569977affa812887b04d8f4e46b052e5bf11860001b62001d67565b60008060008473ffffffffffffffffffffffffffffffffffffffff1673ffffffffffffffffffffffffffffffffffffffff16815260200190815260200160002054905062009e087f3fd29eec05703347dfea36cab0581054301cffc581f1d9c60c785623917052f560001b62001d67565b62009e367f0a7194531f09dfff115cb817a6b833c5a83cdcc40203a20fae9b3d1c0610d04260001b62001d67565b62009e478282101561019662006d18565b62009e757f9ee20b2f718c833a6b54e36136191ec02117c6649d0f2bf14fff4a16d7fedf9060001b62001d67565b62009ea37fbf960ac6d0861bd34aa85dfee45c8fcd04cfc624e5cda2d2c239b208ca5d5f9d60001b62001d67565b8181036000808573ffffffffffffffffffffffffffffffffffffffff1673ffffffffffffffffffffffffffffffffffffffff1681526020019081526020016000208190555062009f167fbb42212863e1b96fb69175b1fc3889004148f7b98211105dd90756392eec2f4e60001b62001d67565b62009f447f675aad2442070cb6006c3883109cf18220df6f4420ea174d96cbf7353b3f17d360001b62001d67565b62009f5b82600254620060c890919063ffffffff16565b60028190555062009f8f7feb896204d6b8acd7e985eb63222b952b7566f34ad493da2295c659295be1b23760001b62001d67565b62009fbd7f13332ea05c8788b77d4cd72067db64819c9a581ad7fc0b8b482e6d8f3a7d2f3e60001b62001d67565b600073ffffffffffffffffffffffffffffffffffffffff168373ffffffffffffffffffffffffffffffffffffffff167fddf252ad1be2c89b69c2b068fc378daa952ba7f163c4a11628f55a4df523b3ef846040516200a01d91906201b333565b60405180910390a3505050565b60006060806200a05d7fd37c03929065bec4ff8f450cb7ae5e1eba1a141616989e07a4d3c27e3e97fbe660001b62002b82565b6200a08b7f6f47245f0fdf6162097b6cbd8a46b4d70d3367d6e69c74e74c9d36b5dc26b12760001b62002b82565b6200a0b97f5ca9a07a8305f0e8cd0ad15ca63c13d7ec17c574573258dda0889b40606c072f60001b62002b82565b60606200a0c56200bafd565b90506200a0f57fc47ed5a82ae196247221cab14b7d9a834af01cc6457e6fc2a8a2761e7eae4b3e60001b62002b82565b6200a1237fd426e9c0ff05872df6c41776821cd763ffff97e490a0c257dde51fd6c27b603260001b62002b82565b60006200a131828a6200bd3e565b90506200a1617f117000de85aa8254b2029801b70e2c27eb5d1f46b31e0d85befeb88affcd6e5660001b62002b82565b6200a18f7faff81728f163641cd8a7cb6d2aafd777cc234ea4b82558e1766b18da334ea86a60001b62002b82565b60606200a1a28a84600954858c6201018e565b90506200a1d27f7f38a6ddd371b58c61ad5d7009e708de2b26d31aaff10e5bc8ab9bb5d3d4194e60001b62002b82565b6200a2007fdd1570dd85a6a0c293182f74de7674b08f116e4a02ee3a9bd517ef971cfe14e860001b62002b82565b6200a2108a826200b08162010506565b6200a23e7f955b7fb991149d5b309c201723a860ed6766e32bce8eed21ed91ba097ab944cf60001b62002b82565b6200a26c7f82bb46fdb6ae50b14b43f10af28f9295d7c917e0bd087799e6293c2e72b23f7060001b62002b82565b600060606200a27d8c868b62010f1d565b915091506200a2af7faf01d0aa4ae54cd5e4c7e720ebc457b008838be6f403a87190acbe387318fd9060001b62002b82565b6200a2dd7f18064caf0a796da64c1aef83e01e87c91483c53d03bc5fef8bb970128532bdb060001b62002b82565b6200a2ed8c8262005e0b62010506565b6200a31b7f235e6097d7f46ee34abc1900b7cc42905bb997666bd98313c6d0272e97e5e68160001b62002b82565b6200a3497fbf659304ffad691daf9c3a924926fcec6e38c03b6107b88f523610736d2cac8360001b62002b82565b6200a355858d6200bd3e565b6009819055506200a3897f2841fabd3a29cdde039740582e77dcd89919ac9c0ce8097cb74e60545a1a0f0760001b62002b82565b6200a3b77fd4c612718e58f1f20d118826d9d9374ef401177361019ce2eaa04e126db4d68d60001b62002b82565b81818497509750975050505050509750975097945050505050565b6200a4007f1aca4d4e9ca0130cea4e7ab13185cc9098dade8500060a87858ea16bccd032ab60001b62002b82565b6200a42e7f654100a95ac4b08c4d8df371616a67f3759285a452a01f9063dca7e1bb3f24fb60001b62002b82565b6200a45c7f4e2749e9a1c346bf95a2f3d9368daf98f042bd0118e52ef39c2d01eae3b93b3560001b62002b82565b6200a488816000815181106200a46e57fe5b60200260200101516200a48260016200a547565b6201129a565b816000815181106200a49657fe5b6020026020010181815250506200a4d07f3d991be43893ed4f4519fad8631fe8b49160801b5d7a65e9ca490530cf393ce360001b62002b82565b6200a4fe7f28c9da9ad95081653a82d7a447f0a2572748415b3e8080b4bb423b42bf13357260001b62002b82565b6200a52a816001815181106200a51057fe5b60200260200101516200a52460006200a547565b6201129a565b816001815181106200a53857fe5b60200260200101818152505050565b60006200a5767ef46bcf5e0e0516bebecf5f5b7fa9cd6a92d98971a38a9d7e659b3e4b23e8a860001b62002b82565b6200a5a47f2f9cb8e68cb937292406e318d9a822f7f02650b39f6d84ba11f0decddf4e284360001b62002b82565b6200a5d27f1be0facb5afe75a749ef5fc21e7eca58e59520908b2826a67361d4ef6f63a98160001b62002b82565b816200a5ff577f00000000000000000000000000000000000000000000000000000000000000006200a621565b7f00000000000000000000000000000000000000000000000000000000000000005b9050919050565b60006200a6587f497b7a1bccb674bc5d193b7bcbcd1617f7e2d9b538b80b00630da57d03c792d460001b62002b82565b6200a6867f3c920e861dd19876feef2c2916602ff7e789e462757b92c240052a6557b75c2860001b62002b82565b6200a6b47f1f7873fe5b934114435eb4e349a2ecade2d4ab4e01d99af51713e87d4532b79a60001b62002b82565b816200a6e1577f00000000000000000000000000000000000000000000000000000000000000006200a703565b7f00000000000000000000000000000000000000000000000000000000000000005b9050919050565b60006200a73a7f6bca1b64fc288e3e01d4358a0cb193341ec520b99b09bbbc3ab9eb752da2de1860001b62002b82565b6200a7687f2eee12809b72909935242bc63a9ec6949443d7c8d4dbd50da0b2ea25b0094d6d60001b62002b82565b6200a7967f0ca50eb9824842792079bb590a775867e825189dc3b30fd808eff863e4fd6a4360001b62002b82565b6200a7a2838362009700565b905092915050565b6200a7d87f87ada89888aa34e1d2ef8fc24d1c1e1d82607589dfeef25d2661d6d28163634c60001b62002b82565b6200a8057e87617a4908ac04ad1d4cb8cd3e9ea4ff2924124569197c379cba25d1e4b94b60001b62002b82565b6200a8337f026ad31d7add906f29912f3100af2f8c56f20a8a22da7404d427636c02b72e8360001b62002b82565b600060085490506200a8687fb5496c71ab33900c691dab00998bda34ad3dc37b1dca49ff309e99c538fb77a360001b62002b82565b6200a8967fee0e477e0af2f9e5573fc27cce59a01f3cb78cdbbac9990b57758b38fe2e7ef260001b62002b82565b6200a8a181620085f1565b80156200a8ad57508343115b156200ad90576200a8e17f9aa9b0cce6fd41648d075a39bc3abfbf85baa302094f7fb9c78ba76c526a9d1a60001b62002b82565b6200a90f7ff2886a916c02ecf7c27f1e38cf4e3b3398b90d68562c2a73e41bcb01798601ae60001b62002b82565b6200a93d7f2f4cde08b1798e616e92c73fc1618fc4372fabd3b9c986f791539f1d8b32037b60001b62002b82565b60006200a98d7f0000000000000000000000000000000000000000000000000000000000000000857f000000000000000000000000000000000000000000000000000000000000000086620114d5565b90506200a9bd7f36536159c9ce1898a4d1f887220d0481b1b91f5dacf6900c51e46d19ca31f2dc60001b62002b82565b6200a9eb7fc84139e3359f2eac228eef0f3e3f3a0dd9bb5667e196110f50c8616f0f6d1dac60001b62002b82565b60006200aa247f0000000000000000000000000000000000000000000000000000000000000000866200aa1e866200849f565b62011614565b90506200aa547f6658b6eea58489664536a0a4500b305a9ce3f9bb03a40f8392aace4c8835e99060001b62002b82565b6200aa827f8be830adec2157d84cba49b5763543ec63105cacfb0188ff6b021764945d52ac60001b62002b82565b60006200aa8f8462006c6f565b90506200aabf7ffefee18df5f05fbd249a4085763a8e13ee060614352dda4ed5dfdfdce84ed59160001b62002b82565b6200aaed7fee41fa8123e17711f13e7b95a57dcd102bbe4f3ff9eecbd8ebf20005d053a4da60001b62002b82565b60006200aafa8562008548565b90506200ab2a7f4fbacccfb3028622af09d2cc0a7b9728798ab713f9e527ca54efcf66db2e352160001b62002b82565b6200ab587fccfb8e5729c4304f0df291dfe2276ad8e4f22ef7a8c7bed555fb89362858397c60001b62002b82565b60006200ab73828487876200ab6d8b620083f6565b6201172c565b90506200aba37f6b86bb04366885918dc16c2930703ac3c8cae1a429d8f372f3e71876c7135e2860001b62002b82565b6200abd17f68229bda685cfd3a8b1f3fd35b8b3a73fc4fafaaa723eaa57449a75598e5e89860001b62002b82565b8083146200ad56576200ac077fb2db5c9a2718efdae716daba8f4e748e8c651549f5f7cb9c10a51ac1d434b8c060001b62002b82565b6200ac357fd2a8ce7d150347b098586ada628a33028266a932300bef444134d676e9caa7a060001b62002b82565b6200ac637f585b5df5933c4d33ea4b1120e0e222f221d697b52c8f61be4e9cc0c5b7de40e360001b62002b82565b6200ac7881876201199d90919063ffffffff16565b95506200aca87fe128d9fc62c40865348478e06f5a8664f51bd08fe66507c89efed9cd32fe792560001b62002b82565b6200acd67f96b9f91966704321756025aae6ee1da6f3f54ffa388054b2ee53917a29e2b8bb60001b62002b82565b6200aceb428762011a4990919063ffffffff16565b95506200ad1b7f80e28168f222517668e8374e2ab0e5ca8a691ca89fcef84e161a084b93a2f2dc60001b62002b82565b6200ad497f0de0f2edd644aba7955abb6b886c1a4438edec374e34fb36c1d073a1b2c8ad7f60001b62002b82565b856008819055506200ad85565b6200ad847f75e77e7d69505382a4133a88029b1997b50ca53cce6eabf80e12a19d5d40857460001b62002b82565b5b50505050506200adbf565b6200adbe7ff91b03080ddfd13fd41497560504b6fac85b6d64a7c5482154f04ed330666a7960001b62002b82565b5b50505050565b60006200adf57f0e379b560dd176564a5881533a4c5cc19aa1cc7aa8faf76190b57cc828976c9b60001b6200c86e565b6200ae237f49d3279522a2d539b8f6450b55bfcf22258bd9c72b153ac7bfc97b8154263c9d60001b6200c86e565b6200ae517fd5842d537ca76be62dab0981f1adf06ef8b0c1d3d07c5c5fccc5f64e322b6a0f60001b6200c86e565b600082840290506200ae867f700f29679531b8a645e8ab26d0250167049ab4bb7c67fccfcf4189def020930760001b6200c86e565b6200aeb47f85ee3aa337267c4ef6af3c1740f5103ae02d953ce58bd465e6f4f46762c273f060001b6200c86e565b6200aed960008514806200aed15750838583816200aece57fe5b04145b600362006d18565b6200af077f5c252fff100b72de4ae3a3189d6e38224dea20d11b533167dfd1daf017c5df5f60001b6200c86e565b6200af357f7a3609fb2bb484a1f0db93870f5b059b577a0a4fcaede309b231adb45a70056260001b6200c86e565b60008114156200afd4576200af6d7fabfd1788429d8fd6729b4327e1f4244c545ab508b775a5d75e4ea123a58ac5d860001b6200c86e565b6200af9b7ffcaa1bbaa38aa4160df1140967b159d44023995232ff45e635b0b13920d04d6b60001b6200c86e565b6200afc97fdb7b1211aa3c4c707d8158063fcc1a98008bcd7125192b75674190966ccffc4160001b6200c86e565b60009150506200b07b565b6200b0027fe5b1e0552e71aff9f91da98dca666a710532a0d6c20e09343da7975a6b13bf7160001b6200c86e565b6200b0307f3964c1cbaac90899caf28429727671ca1384f81cd7e6c5f3984d8c0c0ba0f1ba60001b6200c86e565b6200b05e7fe5c9d6cbe924ecab73cee431c799e5360b936d3caa09c48d311f4f973dea101660001b6200c86e565b6001670de0b6b3a764000060018303816200b07557fe5b04019150505b92915050565b60006200b0b17f136ebdc0e8e6c654b5e766ed596f1b15fd48fc1d51bab4c8c7c45de1ee4ad72160001b6200c86e565b6200b0df7f114bff1eadb9fe5e00e839002a18300aa1e7fff0b618dc6b69f07aeacb6a9b8460001b6200c86e565b6200b10d7f7da4616aba1f4bc537147c323237f74d59ca849041dafd480533792f0b249c3460001b6200c86e565b6200b11d83831115600162006d18565b6200b14b7f14e53f9ac176f8345a56cfe7c694fa8ebaae7e4283f826c430e46ed04d387bcd60001b6200c86e565b6200b1797f6c57e6eaf4e7a2a0881e9eb3b413418334d4488743dd138c4cc2ee06e58d5da760001b6200c86e565b600082840390506200b1ae7f7f6d826607619d4af998f19f06e63668e2b4a7b2f21b0950b6d5a8286412c44360001b6200c86e565b6200b1dc7fecb4e28ed936d30a07b9d6ae22d30338892d72993772c6977c28d7f23d9c7cd860001b6200c86e565b8091505092915050565b60006200b2167fdc338b823e2f97838fe07ac2387b5f1c2faa6ca8ddf82511afbb9963796b869260001b62002b82565b6200b2447f3a4ea734a190a426470d2d7adfeca4752d00c5fa2449fd0b52c4db425cbec5c660001b62002b82565b6200b2727fcfc014b7bc7d3e187978eabe4638bb96c90207153758c868f8f3560f3490e3bb60001b62002b82565b6200b285858486858a6060015162011af5565b905095945050505050565b60006200b2c07f57dba869a61655ca83c791e710d57d060f53050ddaec433cf038b9624192e05d60001b62002b82565b6200b2ee7f7f1d8e964c6ccdf1275165fd388e5bb8f0b5ffab9daf6a817593b5c7b18e819060001b62002b82565b6200b31c7f0523392df612d753274bc5a14adcd13e7dab53552d860d07ae513b7fb80e336d60001b62002b82565b6200b328838362010a18565b905092915050565b60006200b3607fee6d4537dd944d00bdeb49ccc856d0fc6502fc2a57b384160b0e7afe6b948b9d60001b62002b82565b6200b38e7fa9a2d4d2c4611696742b6c39af2ff672ffaecdd2f3dcdbab9b5f47691d53a27460001b62002b82565b6200b3bc7f5a3135452dcccc17ced6e3a28f09cdc14a6005d429aa50e1b45454a73a41349960001b62002b82565b6200b3cf858486858a6060015162011e0c565b905095945050505050565b60006200b40a7f4c963ff36dbf30aa6a2c179bed169de77ba88b15d0d03cc95bd222be12b2a72260001b62002b82565b6200b4387f41105e26db4a04fa08c38976ac4a7a9fc15055fd63cec5d1b9b2b9ea03617bed60001b62002b82565b6200b4667f174ac69df527c91969b1905b799875a2402529d95db19c5f9775d9660ce154b760001b62002b82565b6200b47283836201129a565b905092915050565b60006200b4aa7f094a9d23f7d8cd7e1416152f4f9ab5639b7253358bede5a7c2bfa398f9e6cf7c60001b6200c86e565b6200b4d87f53bd07368499383bd7016e1180aecfc75dba7953a1c6ca4d15fb935506f497e860001b6200c86e565b6200b5067f7e4ed03da9a10291c37c924ec962ffcba2777b2536f9cfe394e0320cf20486b360001b6200c86e565b670de0b6b3a764000082106200b51e5760006200b52a565b81670de0b6b3a7640000035b9050919050565b60006200b5617f0b82bd6e55031056eb502479287614825386e546f233b0c840d3add6e328c33360001b6200c86e565b6200b58f7fc29f725438dde8a8e35a83c255914da88eb1af6a0b0254a2ee71a12cee7a182060001b6200c86e565b6200b5bd7f867b25ee062e1c15d81f5eb600408b615a5c4755d21132cbdec196c0e0f6bfcd60001b6200c86e565b6200b5ce6000831415600462006d18565b6200b5fc7f505ea7ae5aedc93e2b84b1d7f3ea169b72041ba472727f5062597f0faa7a511760001b6200c86e565b6200b62a7f25c8d3148f938498be8d6158605bacdced13ec3c2c723c563728402175f155e160001b6200c86e565b60008314156200b6c8576200b6627f6a9f973848d0e1bf3ca33878057df62131a9343ce33b83d2d55b5cc74756b08d60001b6200c86e565b6200b6907ff4c0037cff5823363d8dd200bb93676448d4def45fea7d550abab49926b7d3e360001b6200c86e565b6200b6be7f891ef57f2cf1ca4bc1e2deadd5fdb7d9886e992eab3e894651a0c6327ddac8cd60001b6200c86e565b600090506200b84f565b6200b6f67f067b1c6f891f851b3004c206fe7ed1f1ea776fa53af3a2f30bbaf811de2c57a960001b6200c86e565b6200b7247f39332f0aeb86b539dc005963041118b0404b93ee8fa3f8cc0ae706d72b9019f660001b6200c86e565b6200b7527f0cd05effb3643090820c5853634e935de87e3f1a53038fd2130ebd813ad9f47760001b6200c86e565b6000670de0b6b3a7640000840290506200b78f7f0d8a293203cc6c75a3dc156d90cd71301c5afa4b710cd938ef7c286d2e887e3860001b6200c86e565b6200b7bd7f0c5ce5144a4bb8fcb212fcced6a383ac3e93a9d9c8baf587edc678bd970ce69760001b6200c86e565b6200b7de670de0b6b3a76400008583816200b7d457fe5b0414600562006d18565b6200b80c7f6adce84f1f10ed0715f5b03d1f2970c52b81756593de1c708e3f01ceafc7eb8f60001b6200c86e565b6200b83a7fd5bd32250369fb1bbf7ee21675e04e16fe702a3597d374429af1a9b966baf53260001b6200c86e565b60018360018303816200b84957fe5b04019150505b92915050565b60006200b8857f9642d6132f131342e9a41fc6cae5b3bde19c31a54a0bf3f1cdeb0441f9406cf260001b62002b82565b6200b8b37f865fc17af0938f04ea5d6c3a007a9db69acb091eb1eabde419891b6469f3a77960001b62002b82565b6200b8e17faa4fdab8e4b361dc3855552f201e33d820db788be4ceb9e055259d8d6880d91d60001b62002b82565b6200b8eb620038b7565b73ffffffffffffffffffffffffffffffffffffffff1663aaabadc56040518163ffffffff1660e01b815260040160206040518083038186803b1580156200b93157600080fd5b505afa1580156200b946573d6000803e3d6000fd5b505050506040513d601f19601f820116820180604052508101906200b96c91906201a8f4565b905090565b60006200b9a17faa23beeb6490a82b387dbb6b1a0f9217ffe22d1f9701313bea213e3e6b73473660001b62003a99565b6200b9cf7f9d8def6c66bd4cbe00b52fa5ed243aaf87a7e0aa2fc07cc7ffdf3f8b80feee0160001b62003a99565b6200b9fd7f4dbba83e48d957279277e94143f73bc4c7b48be2526502fb85557896641f593b60001b62003a99565b60006200ba0a8362009336565b90506200ba3a7f0c9fd287a7a87d8a566b426a85d1f03965bec7723dc5ba945b5e3160d63bf92160001b62003a99565b6200ba687fedd2efd1bfcc5e036ebb43d5f3c2f9ebedc14a94f4b55b094310a8363b50550d60001b62003a99565b6200ba8360006200ba79836200cc75565b1161013962006d18565b6200bab17fcac5d4715ed3fd3f0e574fda5c186c406b4dbd65a9e22b4cb7aea8e18fe86e4b60001b62003a99565b6200badf7f8f14233af6db56a4d88ee774068f42ec460b57cdea17a647230b3d64c65618b960001b62003a99565b6200baf484826200cd1e90919063ffffffff16565b91505092915050565b60606200bb2d7fc370aa5e82d84a7d728e01e8da936700501c9fe071a50ffb2b9b4e77469fe38f60001b62002b82565b6200bb5b7fd80ca27e9476ad37f1da56780ef604882b7975b76600a4b36dab54b7e62d24fb60001b62002b82565b6200bb897fcf2a9b977ac3fa7c3b481ce15d7b5af4a5b65e3f11cc67cf7c969e634814413260001b62002b82565b6060600267ffffffffffffffff811180156200bba457600080fd5b506040519080825280602002602001820160405280156200bbd45781602001602082028036833780820191505090505b5090506200bc057fb6e51864efa1db99f017da115d987d63dc28a854ea37c4fdc036ef3fda475dfb60001b62002b82565b6200bc337f1b2559a98ec48f51ba1478f5250ed66ccabf2381d7c396630117fcd2f2069d5760001b62002b82565b6200bc3f60016200a628565b816000815181106200bc4d57fe5b6020026020010181815250506200bc877f73fd38e55cf0031e2c1a81d02eb056ce531599f9d3d468915e8ca6d3cbda471360001b62002b82565b6200bcb57f8b20729e733274094e25883768768ce26549752981257a19009140713b48563160001b62002b82565b6200bcc160006200a628565b816001815181106200bccf57fe5b6020026020010181815250506200bd097fdb8954bb25decb4c4fe3d855307cc31fc7b44ed255382215bbf5d2cf9ed0e8db60001b62002b82565b6200bd377f3c98dae1aec2cfa07771e0e5d943f3fcf431beca79eef20a25a60c33a61b64e760001b62002b82565b8091505090565b60006200bd6e7f5afcfbd3a86329a57132ebba814a489a2968487c5addd0edb9659a64317394e960001b6200156e565b6200bd9c7ffa92d3164c6d6d787b4808ee06c0ed1c133a0130f936e40ea540a3d23e9ee00b60001b6200156e565b6200bdca7f72d2ad67d4347bdbc8228ee7ce1383fd1d430f52d23cb23ea4d9fc661d59e9eb60001b6200156e565b670de0b6b3a764000090506200be037f25cdb4df06d4bcc4c8ccf51dd2750db869dd44f6ab61017d4c46703dcbd829ff60001b6200156e565b6200be317f611441e4d4cebd9e8c39bb8ca150190591e7fb15fafbe2e5cb3bc1d889d895e860001b6200156e565b60005b83518110156200befb576200be6c7fddae53bb3a5b83420ff2b17d78a6fb28578bf9106548b937b359db2c210f8af060001b6200156e565b6200be9a7fd384b7f10c7fd367bd292b8fd648d9e89f8d6308876813857fdaf78c4ed6f19d60001b6200156e565b6200beeb6200bedb8583815181106200beaf57fe5b60200260200101518584815181106200bec457fe5b60200260200101516201213590919063ffffffff16565b83620123e790919063ffffffff16565b915080806001019150506200be34565b506200bf2a7f794ce20f3221031bb56485e33a53d1b90836486af018b9c7cd8bc36bd5590efc60001b6200156e565b6200bf587f1a5dc6ee348f65fdee7cebb8a72171a7ec10d5054ca6020153e575673834d88f60001b6200156e565b6200bf696000821161013762006d18565b92915050565b60006200bf9f7f4162dfeea5487a2e490df35ab6c4995319cb016658ef6478e632b71af599fcb360001b62004bc8565b6200bfcd7f52a922e27af0a55002a9023a873c43cc837d583fe0362e21bdb684f84be2b0ed60001b62004bc8565b6200bffb7f445bb281dbba1baa57c2b3af376885c1ba274636fe85e7d63faf25499e6f09fb60001b62004bc8565b6200c005620080a7565b826040516020016200c0199291906201af43565b604051602081830303815290604052805190602001209050919050565b600060606200c0687f86c285fe2e9ab4f4aa9f84410bcc2ee43ff20e049b7df8c9c53cb6b96cb8d89060001b62002b82565b6200c0967fd64c1a55508fc46ff14d9b1b438c499751f7740814d734be47ae979cc9fd673060001b62002b82565b6200c0c47f5b3a4b0f292029556b3af5f1dcaf1d6d738baf5f38cb8f416cc05cb75e896c6b60001b62002b82565b60006200c0d18462012573565b90506200c1017fd8ae9f2e574b05539eb550d54af8704364953e22894310f730308cb44d597d8d60001b62002b82565b6200c12f7fab87ad19ee099b6e9d6af851aa865cc99f25484f7f8756adb54f13ef06109c4660001b62002b82565b6200c157600060028111156200c14157fe5b8260028111156200c14e57fe5b1460ce62006d18565b6200c1857f20f12ed3405066bc4b8c24e6c529f060e54b65516f53ecee0bb9addbd68c8e8860001b62002b82565b6200c1b37f372258b0fc3cc61d1e4114843c7660ba142c28a8047dff23c36099da2092d42a60001b62002b82565b60606200c1c0856201261c565b90506200c1f07fb86a239dbad7b6500763876f9bf9355c4466826a0bb7459ae13129f56a11024560001b62002b82565b6200c21e7fd5e278f3037476fe23523a64baaf0f339e347995fed1c8f52756450975520cc060001b62002b82565b6200c22c8151600262008743565b6200c25a7fb8735047e7a170203626aa1a4d0d19f2e8eef6a3c54177871235afb9bfeef23d60001b62002b82565b6200c2887f6026e594231bc4cec5fb33cea646a4d8929bd8f67ebb966c018a5e73fc0a579360001b62002b82565b6200c2938162009b98565b6200c2c17fbedec1a81bfc5174768c507e317ddaae642d69485050228efdd3b3240f71a45560001b62002b82565b6200c2ef7f57b333e9d6ec0fa8b7c572693553845e336ea75dcb2e42b502c0cd95da0cb95460001b62002b82565b60606200c2fb6200bafd565b90506200c32b7f9b5aca3c7f7420cf654deba43df7c561a4c0eb14062c0c1afdca18dfa44091b060001b62002b82565b6200c3597f43a0a902ff1b4c56556c5dff0f37240ca7786c7342a3e8d85ad9dd1272f0af7c60001b62002b82565b60006200c36782846200bd3e565b90506200c3977fc034877cbac1c42a6621420b0a62c66f38edeba77eb46aef93fc277b16a0787560001b62002b82565b6200c3c57fd1693741ebf51cebf37a0766c87e19620523c1d59d5f90d1e8bcb84e9ddb7e4860001b62002b82565b60006200c3d482600262009700565b90506200c4047f1245b0f38d160cf00014748240b9a8945ae8230962426f11293e1376a1b90d9860001b62002b82565b6200c4327ff46577bf86bc9091d844fe558876c03cae53e476ee1a03205c5606c508f80d5660001b62002b82565b816009819055506200c4677f0c3ac785cb92ca042618fe9bcdc4e6d62a6dce6ebd0b808d2a20d8a27dda5d7d60001b62002b82565b6200c4957f74f8a52aa7d07803f3469000dc4a8df04c0bd5022a347f069eb69d354c35ed1c60001b62002b82565b808496509650505050505094509492505050565b6200c4d77fe1e59a72b6abb196e5705ee38d9bd6c1a29ca10376e2fa3c0e8903f8cdf7949960001b62001d67565b6200c5057fadcbe213569d514454727a270e9c70952205231cc4abfb6ea68bde4ab6f8767660001b62001d67565b6200c5337f15b6e925556b308d3ad1066043cf26b7202f1674d8fc02119a0401f1f8c637e860001b62001d67565b6200c586816000808573ffffffffffffffffffffffffffffffffffffffff1673ffffffffffffffffffffffffffffffffffffffff168152602001908152602001600020546200c70990919063ffffffff16565b6000808473ffffffffffffffffffffffffffffffffffffffff1673ffffffffffffffffffffffffffffffffffffffff168152602001908152602001600020819055506200c5f67fd4a2ff87a6d0da870c806cdf81fdac8ec28fbeb80a5082414d54ccfe4b52717460001b62001d67565b6200c6247f681dc1796f532e85b0ef7b3f9d671daade57fc56a840eac1e3d1d2ea1f30f08e60001b62001d67565b6200c63b816002546200c70990919063ffffffff16565b6002819055506200c66f7f915670e06d3230875eb18467c82d19ee89b9b46317113ae387454d8cf437261860001b62001d67565b6200c69d7f068040d6e85f05c180ffbfaab7da32c5a421878520d59c1d49ab8de36152a65f60001b62001d67565b8173ffffffffffffffffffffffffffffffffffffffff16600073ffffffffffffffffffffffffffffffffffffffff167fddf252ad1be2c89b69c2b068fc378daa952ba7f163c4a11628f55a4df523b3ef836040516200c6fd91906201b333565b60405180910390a35050565b60006200c7397f980f096ce2354611f661d545348edfcdbcf347f2d4fa9c9e2bc2234b96619b9160001b6200c874565b6200c7677f5203ec7b278d868f845c81d7f208837a954291190f8034ff73f1abf34395aea660001b6200c874565b6200c7957f257b57fe7b6efcf88210c6d37adeac50f6bdc1270dca168497530cb49198dc7060001b6200c874565b600082840190506200c7ca7f2712f69a57bae2ee34b696a2281d5fca60f12eef2753ba12e108837883591b0f60001b6200c874565b6200c7f87fa9717274421667e304f7b258221f6f83cbc1a3c12db3869b2bd07495ef02a7c060001b6200c874565b6200c80884821015600062006d18565b6200c8367fbb23a54f86bc4ea5e593a05f1ed17e1f4ec085fd337eb065fd05171873fa78d860001b6200c874565b6200c8647f59b5f75a5714feab22828cb70c6ca1fd02547b7956d33b95658dc4dec174169460001b6200c874565b8091505092915050565b50565b50565b50565b50565b60006200c8aa7fb63ff57fff44fad519b51dd9a1628b458ce44dc09407b3781c94536139b9b4ca60001b620020d6565b6200c8d87f0f215ac44a96153e6f920fdc8f381567185da65e2862fe68660c1e8d7701587e60001b620020d6565b6200c9067faa101d66f4b55b14bb1e5546f7d6152e074f3d4bd8f672f5ff001e85fd95fd7860001b620020d6565b73ba1ba1ba1ba1ba1ba1ba1ba1ba1ba1ba1ba1ba1b73ffffffffffffffffffffffffffffffffffffffff166200c93b62003805565b73ffffffffffffffffffffffffffffffffffffffff16141580156200c96757506200c96683620126c9565b5b156200ca37576200c99b7fd89fb1bac5943510950b517a984e0c3361de9936cc20fbc0c4a72da5127260ce60001b620020d6565b6200c9c97fd6b91357bb8efe53ea93d0d0fa18625ef9127c94af5f7413813d720a71eef6b760001b620020d6565b6200c9f77fbb44c612bb203fe0cd4a5094c43d1fa6fbe0852fd53c227de69b8a906595bb2460001b620020d6565b6200ca0162003805565b73ffffffffffffffffffffffffffffffffffffffff163373ffffffffffffffffffffffffffffffffffffffff161490506200cb60565b6200ca657fd833c4463927603cd19d35ee61d9b68a8d2bb9f9b41f3e14672ab3991080546360001b620020d6565b6200ca937fe8b0b249a2c9f77dfefb167b170317fe940cbabf6bb0d842292e1770fee4f96660001b620020d6565b6200cac17f6e946359bc50f9875b9b5dc4ec74e06668518bfc0326104e1cd992e2c37f065e60001b620020d6565b6200cacb6200b855565b73ffffffffffffffffffffffffffffffffffffffff16639be2a8848484306040518463ffffffff1660e01b81526004016200cb09939291906201b097565b60206040518083038186803b1580156200cb2257600080fd5b505afa1580156200cb37573d6000803e3d6000fd5b505050506040513d601f19601f820116820180604052508101906200cb5d91906201a791565b90505b92915050565b60006200cb967fae4a1c151787245f3612f79595c24046505cfe0335b7804e01c407e4de27ddd860001b6200c877565b6200cbc47f91439f3ec3b923860b48b74e2d25e0a10cca43d35711b2885b09baedad05bf7760001b6200c877565b6200cbf27fd0e63e8d9fb6b8538371284c666c6c8beea6e235dfb496b529a8649c921c894660001b6200c877565b6103ff8284901c60001c16905092915050565b6030600a820601600a820491506030600a830601600a830492506030600a8406018060101b8260081b8401016642414c230000000160c81b7f08c379a000000000000000000000000000000000000000000000000000000000600052602060045260076024528060445260646000fd5b60006200cca57f74d5066293be4370fd524573fc9aeb090515658ba3a40e6d0128237f7b514d6060001b62010b24565b6200ccd37fcf1fe953b1af420c60f48d61f261c0e91d0a93f44b0e1fca350e0e2540c7efba60001b62010b24565b6200cd017fcde80e15d7e05f199afca472e2c64190b4295034e3befb1b7e4ef03d28c2b2ce60001b62010b24565b6200cd176000836200ffa590919063ffffffff16565b9050919050565b60006200cd4e7ffa88ef1d4bd5fd6577be383d6b722376a5c6fa29463609218ee4a724cf440eb060001b62010b24565b6200cd7c7f99d7ee6f6bc945f791b039deac0a47688909c7656bf1ad0fd0968f258998f4c060001b62010b24565b6200cdaa7ffde3546723b37136ce5b8f23cf52cd5af62f1f7d325c85271d5b4ae04a8b648460001b62010b24565b600060028111156200cdb857fe5b8260028111156200cdc557fe5b14156200ce69576200cdfa7f5063c567d1887f09b11b5fc7d998ccefa4fb0d0fc1e0938e7a8f10466894cd3960001b62010b24565b6200ce287f63fd0cd88413e8791d8285e595688ee8f9213d7c47e1b173be8f1b47871d396160001b62010b24565b6200ce567ff826be5379f4832ddf0baa3172815694c0c566bf286192865635cc69d4eb2a4760001b62010b24565b6200ce618362010b27565b90506200d01c565b6200ce977feb2ed42d0c85e851588aa72594ba6ecb68a7e9793b51d31223d012fb4b03879660001b62010b24565b6200cec57f741427bc43dd1803a19d0e8cf653a27c9e33f63616fdab0b426027f0e589a1f960001b62010b24565b600160028111156200ced357fe5b8260028111156200cee057fe5b14156200cf84576200cf157f68b5c79d610fbe658e3848fd0532c5fa226cf5ecd699abecb2f239fbbb44aa5060001b62010b24565b6200cf437f5a2eb379ba14b27d080a20d4b16ec51f12ef543e2bbc1cd581a43ecca641f9ac60001b62010b24565b6200cf717ff39f41fc9536605fe9d3d8ca2d3b0d4a26bf6a1d757490744a7c4d35a809e15460001b62010b24565b6200cf7c8362010c79565b90506200d01c565b6200cfb27f4797cc105ea90ea51da50ef6a40db4fb893890d196551551f5a1bdb4dc1830ff60001b62010b24565b6200cfe07f785f97f28ec65acb5db93938602dde083c27f509e3b6839665d7d6f52edff61560001b62010b24565b6200d00e7fca1476ae1bbee6b04f7ba56a30cb4345427d625bf365fd2ba6006c054c6e88fa60001b62010b24565b6200d0198362010dcb565b90505b92915050565b60006200d0527fa0ee4a14d4d99cf79f46e9cfa406920325aefde87caa28bd02dadcb3d07b05ce60001b62010b24565b6200d0807f3063f6c4887df61afb34d0ab8270713ed4d84f12806e668eecf4045f1b8bcf8060001b62010b24565b6200d0ae7ffc9591ed2273474bc58dc2c90f3209cc9b3b12d30d516be54d2f0e71e293feae60001b62010b24565b600060028111156200d0bc57fe5b8260028111156200d0c957fe5b14156200d16d576200d0fe7f08f4d031fa74daa7315662f45acc2e0468d31176de6e4f429eafcb1de62c5fb460001b62010b24565b6200d12c7f642e6b840321ab3b744c5437b716aa436b8b5264413a85ec93c8aa7767aa048860001b62010b24565b6200d15a7f0afc184b80e4867285965d65673df872e599816153d80ceb1ce7ed692a230ca660001b62010b24565b6200d1658362010bd0565b90506200d320565b6200d19b7f34afde3ae7ebe4171088735509b55ee8bebfc593485f940e15baedbf41c7f00560001b62010b24565b6200d1c97fe51d2c46584f3ff4caa2e529efbb5ba9293e19b6e3d4d165973c02688c56ce8d60001b62010b24565b600160028111156200d1d757fe5b8260028111156200d1e457fe5b14156200d288576200d2197f8761107612e6478db47fd3e71091ce75fd38658065ff25e52ebc4cc15083b06b60001b62010b24565b6200d2477fd821cdd0b0deb7dd41e66c0f046f11ebac8ccdffa6cd030734062aadaa4d7c0860001b62010b24565b6200d2757fa6ad3f0ce5ec74ec51b29935a163049ce69b17d3c95465f1ffc998b7c36e9fad60001b62010b24565b6200d2808362010d22565b90506200d320565b6200d2b67f48f29ecfd998732d8fe20d5c6ecdc2a4624eb976ce421b8c8f03d67b135a5c8660001b62010b24565b6200d2e47fdf03a42996702e4eec9044ad6201de96a96e6d28edd2856ed742ea0c3fd062be60001b62010b24565b6200d3127fc39c169d453ac9211bfc835fcb06da1759dc67587a8a24c107718fbf6699e3c760001b62010b24565b6200d31d8362010e74565b90505b92915050565b60006200d3567f7ab8435443744df8abfe706690bfd53d1df3d5f61198d338b66635c4e8c726ba60001b62012770565b6200d3847f2e05b9259811404a126521b1b7855f19561dd799e406c6ce08746b1eaaf7057f60001b62012770565b6200d3b27ff32f578ec3edda1a3b722cc7ed37c91eb87cdae5595a82ab6856882ed9578c1d60001b62012770565b6200d3bf82600162012773565b9050919050565b6000806200d3f77f18276fefc9cbcf3a3372ae58ab5c94d1ea24a2aa24f91a933d6087496fdc84c160001b62003a99565b6200d4257f2f3fdb0959b21b2b281351b6083b0edeed9947759500f34938a34dbe609283c260001b62003a99565b6200d4537f1faac425c693d202a860d2e3d993a67bc7cb69dda208ad4371980107f448623760001b62003a99565b60006200d4837f3a4bf43fbec00f1257dcf49002149d5a2cc57f098719c5b9176036c5ffcefa0760001b62003a99565b6200d4b17f0e36f5949f6098f274c3c52524f684a1a5e302755d6114d0bd6a79167d7801eb60001b62003a99565b600060016104000390506200d4e97fe7a1367eb2e30e4303e34f9e98d339d420458f726c1c38c8bda83a9fc6bc5c3e60001b62003a99565b6200d5177fa19760ff6c0872851abede9abb89633d9e92d04bb490fdb95544c22ed62d07dc60001b62003a99565b60006200d5477f669d35c4fbf5830db19655ff486f6c46fd98951f02ed1784006e3288ecd3e08560001b62003a99565b6200d5757fd84a819427e33d83400ec1186213b5cf1b9aecaebb1286bd06a67f55bd186c1860001b62003a99565b60006200d5a57fbae7881fec4357c517d7031dd046b2dc151b626268d7e830be2b97cd77693db360001b62003a99565b6200d5d37f6b2238b032917bc3e895e9b58897fe01c20ca95e854d6e0749629d4c6102d43d60001b62003a99565b60006200d6037f67c30fe62b0d80aed8da55196d3d7b46f19160bd4fd6e1f62e104934e42511e160001b62003a99565b6200d6317f7179db57272b31822357c33e78ea90dc39313ec445fb31b7562936dceab15ad360001b62003a99565b5b8385116200da87576200d6687fd6882884f9926616b2921cb97dab9230ea3fcc9c94e0650aabb2dc493b2838d260001b62003a99565b6200d6967f1ab5dc177c10fe63023da2c7da9c34b4b379e8167bf5bed8dd96c1f4ff6fc27c60001b62003a99565b60006002868601816200d6a557fe5b0490506200d6d67f51ab13b3eba9ef490a711b93a3d021d7787c25d91004e80c2771bb55dbec07e860001b62003a99565b6200d7047fa92708e66f74b12cb7b02b05215ee030cfdbb11ea3dc70883244b3e07aeedd0960001b62003a99565b6200d71989826201277390919063ffffffff16565b93506200d7497f8537a8c53114543cc9e053f59c8318407fca3edf4c4c35d554bb5165eef7235a60001b62003a99565b6200d7777fd04daccfe54362be1b978617482cf99657d41fa7be4d9c0c77c83e1be3a628b460001b62003a99565b6200d7828462009336565b92506200d7b27f8c3ded7b38001b67c6c7c90a183633948ce70b0b73b4599b19daa1b367144c4460001b62003a99565b6200d7e07f8c0efc6a25d3356409380f6019152cd50b1cc18a4cf70d8236b0368bd449d82560001b62003a99565b6200d7eb836200cc75565b91506200d81b7f5313032456e791ac629a120475d99304370d9f8df19baaaa2bb1883efc1e97b660001b62003a99565b6200d8497ffe7f6f8bbfa6dc6e1dfb089f8561eee6794351fab2bed9ca792ce2ba0f7cd69b60001b62003a99565b898210156200d8e8576200d8807f2a933807c8ff5b5e8b0179ec0a2cb7c00605656fe1eaca61377dd8b120fbd03e60001b62003a99565b6200d8ae7fba70987d9c6d54bd528985eff70dbebb929df7ca359edd04fa97363b091bbe6360001b62003a99565b6200d8dc7fbc69b202d9181ecbdf1b7cc19df5e7a6d0d2260c1557e044653789d6abc5c4d960001b62003a99565b6001810195506200da80565b6200d9167f17eaebe8ffc81cc9d2f98bf5cd429554c7a3e80a0d842afcbe204c59b36dc39a60001b62003a99565b6200d9447feeef8d7117f42cc8d33462a1ec3631e0fd6f603a503fc5161bf4d8f350e1049a60001b62003a99565b898211156200d9e3576200d97b7f3764ea05926c0dea7a571a9b323a72e762fbfb8e5a01f32d25e6360835f04a6160001b62003a99565b6200d9a97fa499562ab3083a38708e8d79efb80704cd8718aac1d520ba66027800a8459d6860001b62003a99565b6200d9d77fca6d690f00800c49ad70bf9a1f67cb50db7a23d432cca32a4e9a328f613f2c4360001b62003a99565b6001810394506200da7f565b6200da117fe98f96d3e590e6fca1a8ed5535b4edde5f02f00753cbf5aee0bd33c027169fa060001b62003a99565b6200da3f7fa674f68b309fcac0bb22231560bea7cd91d0640e202b84e738074d1707e244d860001b62003a99565b6200da6d7fdee9815fb163aa4b4c326d57b43c3ff1950dd26e3902d9895f332975549c477160001b62003a99565b8283975097505050505050506200db28565b5b506200d632565b6200dab57fa6c2ba67ffbd0e5e8e323a9eb27fd09540d06948f61826c69faa98826c4cddbb60001b62003a99565b6200dae37ff4f479192bad21516c60c27e623b56730b1797e70dd3c8e9ab16df98ce3ef33860001b62003a99565b8881106200db07576200db006200dafa8462012816565b62009336565b826200db1e565b816200db1d6200db17856200d326565b62009336565b5b9650965050505050505b9250929050565b60006200db5f7f8f9957956285fa36aaf574af5b32355302daeb041d9920de1237aeb9c5bd0fc560001b620128b6565b6200db8d7f049adcef04ddf4d2d541f2ad2e7b0cb2e49f45ce33e82b917f39ce4661c56fb160001b620128b6565b6200dbbb7f31362ceff8fe74b0dac8c6d98041f46dce294d61d691bf77a6e3102e98a4960d60001b620128b6565b6200dc017ffffffffffffffffffffffffffffffffffffffffffffffffdc702bd3a30fc000083121580156200dbf9575068070c1cc73b00c800008313155b600962006d18565b6200dc2f7feaec38791fef9244227a2ac9c89991aa9c3e6eda434a80233223b5eca079a5e960001b620128b6565b6200dc5d7f0b54346d0dfe62f72284a3c75473334476d66c4469f11bcb760a40ae4cfb68bc60001b620128b6565b60008212156200dd1b576200dc957f96954f28e83ef514a5a7abe216bcf324d3fdfbe3f6a18be7a718c53286e53b6d60001b620128b6565b6200dcc37f463dbff911b02742b5684b523b26e12b3cdc3bd0501d3eb8f5afebc4c2def0af60001b620128b6565b6200dcf17f40035bdb11894c0908058a5597e77e5553b40c454dc865283e53ce2e02f1445c60001b620128b6565b6200dcff826000036200db2f565b670de0b6b3a76400008002816200dd1257fe5b0590506200fb6a565b6200dd497f0f3836123227a0de7a4c4df6d4d4feca82c8bf770aa6e542a3a07616fe30614060001b620128b6565b6200dd777fda299c831b49c4a6e67502e93408e9ecdd3f8985dc9c4240c853d17c9d85f9f660001b620128b6565b6200dda57f3e1263d6a747804fa9f1a51a9eb15d85064841e996125ef260e9dd251e41a88d60001b620128b6565b60006200ddd57f13df8400d288418b9029209525f41b317b2c4b9b82d6c4121ee38860550ecab660001b620128b6565b6200de037f18be439d287dfd168580f3e3a36aeb782189558298466857798d7ede0327b8ef60001b620128b6565b6806f05b59d3b200000083126200df29576200de427f77b0d1d0dd6059a9e0d9f32111c24f76b9e9f87cbc63515acd5b75070e39756860001b620128b6565b6200de707f46d0ca777ee0ac966c329bf1cffe6853f6eda5cfd758fc88c99324ce6b4d501f60001b620128b6565b6200de9e7f8a2665721e1b356ce501effdadcce8aefbedf2eda207e46f87ec7348f89e809a60001b620128b6565b6806f05b59d3b2000000830392506200deda7f8ce0e0f632ba31c6974e75e11700c14fb1b5480bc715658835b1732ecabbe81860001b620128b6565b6200df087fc46c62d44f13b1e633d72f26f59aa8fa3d140557cc5dd523ec18a4f8e9c6e9af60001b620128b6565b770195e54c5dd42177f53a27172fa9ec63026282700000000090506200e12e565b6200df577f4caa899a161097f7c15c9e40cd465eba2c7ea889d70a5f2b5372beba85aafbf960001b620128b6565b6200df857fc11f2b0d6957b1ea63ff257484fd21f83d16757118c6f844938dd8e3fe169e5e60001b620128b6565b6803782dace9d900000083126200e09e576200dfc47f77f1827cc40ee4278fd35816afd5b948d67bfd4bd8dede0ad4b3b65b704559bc60001b620128b6565b6200dff17e7472974ece765a6511ef28cb9b3cdb93509e7d3d6b2543a463b0fd9ea5eb6f60001b620128b6565b6200e01f7f23a62202ad8d5e6af5db7371e1a41939fd3ef374184a95d95c542d6a0e02399160001b620128b6565b6803782dace9d9000000830392506200e05b7f670b6e2b3acc0ad997eba051913b0d53edeffade5ee29432c993ddee9e9c030660001b620128b6565b6200e0897fd1e64ae3de1aa103b81dd167c133e2e995786f074c540cc9f1836e91ac35d27c60001b620128b6565b6b1425982cf597cd205cef738090506200e12d565b6200e0cc7f911480f5f1c126514d11fb5dcc18a411504dbc69e15a36c6b393ec241023762d60001b620128b6565b6200e0fa7f7d061d37609fc5aab6b42e38410857a1b5f5bc7b941c31475b6bf5144ac8b60260001b620128b6565b6200e1287f52cf895b816ba855b556bd2684e72ea44a744b4c358c564099eebd603098e16760001b620128b6565b600190505b5b6200e15c7fbb8a60f80d3b49dc29a85e7433ce43927e70fa829704b97d288c7f7c3bde638f60001b620128b6565b6200e18a7f86b7d3837b05095aacffb9f3c610a36ec43d94824b4d1b35f94c5bebb9a650ca60001b620128b6565b6064830292506200e1be7ff0a4f8500e88b232fab07586e1b2e87a8c7806bdb2ab1eb6efff6f85234386dc60001b620128b6565b6200e1ec7f1a5223336d59fc4292449a1e644e71d22ddc1b73c058d61ef4425f28b9d9d82660001b620128b6565b600068056bc75e2d6310000090506200e2287f8a0d2c3fe2867eabbb080a815408f474966a2424dfc32dd32f36eef73de606d060001b620128b6565b6200e2567fc092be2a82cb76747d6baa54343af5168e18c341f67046d6bd33cc47ba1527e960001b620128b6565b68ad78ebc5ac6200000084126200e388576200e2957ffc88ed4b45c9517c657dcc21025aa285327fd6ed9106b840a22832815758776b60001b620128b6565b6200e2c37fdbda1f49372ce70b8d009669446d1650b9cf5e6efdca38bf7fa2a148ea49240e60001b620128b6565b6200e2f17f32c60df886f45af987ef2eb53fd88e7e93f1dba954890d791b421cbb3fff276f60001b620128b6565b68ad78ebc5ac62000000840393506200e32d7fc05771c55ce6ddb14e1ba8c0fb104578f6e91c74367ddd069a2657be5e4642c960001b620128b6565b6200e35b7fada9608e6f169e501d91db28c2af86e899704aafa89771ebdd011db05f69097760001b620128b6565b68056bc75e2d631000006e01855144814a7ff805980ff00840008202816200e37f57fe5b0590506200e3b7565b6200e3b67f100920b793e8e6f00887b4382e2dde747dd3366702b620b02cc16d3f6b6941a060001b620128b6565b5b6200e3e57f772bebc08a73d0af3bd359ee45021ee9c1f7448e08e424cc43c5893b4e0f88f860001b620128b6565b6200e4137fb7f799aed614a91f2c04467d974a4393f0b3ed6fe1dc13433da4f6e9b263fd1860001b620128b6565b6856bc75e2d63100000084126200e542576200e4527f1781ea8ce066eedcdd99bc5b0753cd1aa8081f4d8ca6456a341a9bd134dce99260001b620128b6565b6200e4807fa0030d8f855693f4a88849f53c4371f951e4c48a42c0f36cb49aa52f021543c660001b620128b6565b6200e4ae7f2b119df580aa19f713706ee6d4dc52a1d0a50fae26f20a71a49037fbae1c760d60001b620128b6565b6856bc75e2d631000000840393506200e4ea7f43ffeface76e9414d9a189d09e296a0ddc6f449e81381261fce710fa508ed08360001b620128b6565b6200e5187f19a36337e3a11b47c83a025d282ee671c47dfdabf3ad16d3fe004cdd88cea06060001b620128b6565b68056bc75e2d631000006b02df0ab5a80a22c61ab5a7008202816200e53957fe5b0590506200e571565b6200e5707fe044f0923fe075d9ad4320a302314d74744dcefe6f0b58e6ef0e06381e888fb260001b620128b6565b5b6200e59f7f06a96c15493d3dcc9dda194a53b4a87ab1f3c607d23b16ea2c20c4a7d8ff72b960001b620128b6565b6200e5cd7fd34a51bd6aaf179ccd334f382c76a8c37d8856e1b95fd68ac4b40c77c105cf5a60001b620128b6565b682b5e3af16b1880000084126200e6fa576200e60c7fb6d6edb87705138d8e1cbbc1dccbe061c1dadb180f7778f4cc726320b8d721c460001b620128b6565b6200e63a7f7dd2e73e2c58ff529afe93484d2acb33083275bfebd91432cb697f91a7cf921f60001b620128b6565b6200e6687f0c32443a422d4f0750bb6961b94770ea095a571a7281bec1f34216b32693821960001b620128b6565b682b5e3af16b18800000840393506200e6a47fba6c0da1226274d7f2646ca9ed997ac6db472a9a08abcdee25772a9b08f9b2a360001b620128b6565b6200e6d27feebc9ec539111233b16cb2a8932dc0a00e0b2a1aff3686af60cf5bea6e80f9ce60001b620128b6565b68056bc75e2d63100000693f1fce3da636ea5cf8508202816200e6f157fe5b0590506200e729565b6200e7287f766baf1e510161d499ddaafa4ec1ef27747f5c423e1ecdd6670356d80e04a53060001b620128b6565b5b6200e7577f799f2bdbd7f4e0bc3f4b6d1f6f2beec73f8580686b8d5fc3651c24574a3bd91a60001b620128b6565b6200e7857fe4cd49619c0294566c2d46190c85f3fe62eea8cdbb1b03a14cb056b1e57a05b960001b620128b6565b6815af1d78b58c40000084126200e8b2576200e7c47f29fa92c76c94d1914b60f11e5875fbeeedb22eba504411034fcc00bd54172ac260001b620128b6565b6200e7f27f3243e27afc5b94243b0635ec2e0ebc12b041bd5b79a0c582621f2fe6cef2cbf960001b620128b6565b6200e8207ff9f54d7a49e2a11e79efe2cabd1f89e7531eeddf7e4f5aa22f42be065f6e32cf60001b620128b6565b6815af1d78b58c400000840393506200e85c7f6a40c31d583c08f45376066439d581c2340b4372733d735a75353a52b86ac13e60001b620128b6565b6200e88a7fbd043cd79c279cd983a2d9f6d4190b0c6ed186942ea9774e0f30c762b805268360001b620128b6565b68056bc75e2d63100000690127fa27722cc06cc5e28202816200e8a957fe5b0590506200e8e1565b6200e8e07f3657cbecab91716652db7e1f2f279e0e26f634574d49cd42aab7d54cca69735e60001b620128b6565b5b6200e90f7f1460cdf97cc2100f3a7fe4186dac7874e887d297e6cd5b99a7a17a25d558637960001b620128b6565b6200e93d7f3dd3b92b58e40eee2f924ffdcd865c733594cbc86e02d507d6e1277ae942353060001b620128b6565b680ad78ebc5ac620000084126200ea69576200e97c7f4acafdbeee4d9ce0d3e76772d7d1d21a0d2175b48ae517da8bdd1b6c4123ffd760001b620128b6565b6200e9aa7f01ceffe142409bf3cf5ebdc48936b3e68edd649cef6988200e942b078fa8106160001b620128b6565b6200e9d87fd193243cbb4ae58aaf5634228de1bf49e4b2ce6298521d61e1532e746d51505660001b620128b6565b680ad78ebc5ac6200000840393506200ea147fb1abf1fdaa834aa673887dfa355f14eb2e596e7b8a9d572289327c598c51a4f760001b620128b6565b6200ea427ff9e7d07a346f6f68c320597cec43fa2cc755b541a674906fd21c21aafc4ae2ae60001b620128b6565b68056bc75e2d6310000068280e60114edb805d038202816200ea6057fe5b0590506200ea98565b6200ea977f15a137bff769aa084005ae4b5185bba69c84e202736211e54e38d758c378630660001b620128b6565b5b6200eac67f54fa7e0db86e78b6f70baf303bc90c991a2ececa8e484af9603310a5e0a82f0360001b620128b6565b6200eaf47fa74a830a9188aedb2c5ebbf412c1b50527bc908de936e66fc6d15779b0862ac460001b620128b6565b68056bc75e2d6310000084126200ec20576200eb337f94c2c4dad617aa5d295e8e058b5810a56b8e5990c2f644e6a20a67b11a56910960001b620128b6565b6200eb617f34ceb71e2ffd34bf94bd706eb37886116cf408b82c4a97ad8bab881a1fe2958c60001b620128b6565b6200eb8f7f35bb01650e15cdd5e58989429564bbb99d90f8d717a7868fb74be63857be56b760001b620128b6565b68056bc75e2d63100000840393506200ebcb7f5d746d42d995fc1a3a7b021610151bac375e5196a3424b0b9c7d55062ace124360001b620128b6565b6200ebf97f6ab7b1c5c9b345bdd310099bb00eebfbfdce48effb3e7b4a3a918bfc68976caf60001b620128b6565b68056bc75e2d63100000680ebc5fb417461211108202816200ec1757fe5b0590506200ec4f565b6200ec4e7f649bcdc9a6124206bc6f4f558b0fe825be2e4fabd08a68f6885d5e16db60c4fd60001b620128b6565b5b6200ec7d7fbe28433d286b1a92f09f1d13fd3684d7e6d7ce4c75466f707961f369aac35b8860001b620128b6565b6200ecab7fb237c5955af52f1f9e51154d247bf874a84ff911c68abbbc1e815909aa6842e960001b620128b6565b6802b5e3af16b188000084126200edd7576200ecea7f78e2c12d16d60b3b9d1648c8a691efe6713b9f163b75898faee3abebdf529e6160001b620128b6565b6200ed187f9885c57261c446564481e425b772b7a21f7c629de9a4e25574d788feeb5d26dd60001b620128b6565b6200ed467f068bfc4e713ec324cecf3c04d42782773e433c703416d78738797ec0bc53ac8a60001b620128b6565b6802b5e3af16b1880000840393506200ed827fe166de5ee53dfed7de0f418a0134f2bd4046bf89aca9f58e331dfe144e64570f60001b620128b6565b6200edb07ff36facc54b0c45a4cdd31265bca2d4a5b26ee39c5be818a0c1132f978a4d303160001b620128b6565b68056bc75e2d631000006808f00f760a4b2db55d8202816200edce57fe5b0590506200ee06565b6200ee057fbaf1bf92327508cc7df7230285f7d84c785d62562b887f68683f3bad6f14735b60001b620128b6565b5b6200ee347fb60aa888151c8f5e59244106f6570e0ad9394f262cf1959efe8b703e088478d660001b620128b6565b6200ee627f4d4eb5e3db9c55ac596df2c49a4dd6462202631599a9cde8d298939e9260fc3260001b620128b6565b68015af1d78b58c4000084126200ef8e576200eea17f52746123d569ff0dce2117a49dd8029ff2a0556c94649b748f5021909d5996a060001b620128b6565b6200eecf7f61d22d5d4ac74eb55404ab7bcfd4013c0eb60d541ccbe94ecc016c290ac766f060001b620128b6565b6200eefd7fc44a97d95720ad6b3ab8e5a8ce5caceae02d4ed5f57c3be2ff2def8b27ff59c760001b620128b6565b68015af1d78b58c40000840393506200ef397f8bc3891fa09ef84924f2421116ef6dbc96768850a0020d29fd12148c8bdefd5160001b620128b6565b6200ef677fcb35eb8810f8b9a056faf0bbe33e37713df7e78395e1da0ba74b93a68883a7dc60001b620128b6565b68056bc75e2d631000006806f5f17757889379378202816200ef8557fe5b0590506200efbd565b6200efbc7fde281447284ff5e39f9945d5f341b1e10147e1ae5d7f740fe0eed826ca276f1c60001b620128b6565b5b6200efeb7f6c3d7bad9c3490dd092874bcd6f2e0f9b7d3b95894caeb888e1ef9aec342f95a60001b620128b6565b6200f0197f0343a1ad3d804c6e7e84510e004b2fbe93bdee6ab7aa3c168eb7c46421b2ab1e60001b620128b6565b600068056bc75e2d6310000090506200f0557fb1c86b3a416276cf9ec0725776ab2b10c3a6414585bccff416b13a18fee6654160001b620128b6565b6200f0837f31bff64911c48e5ab2826086c5c5c9225d05ccde14fb560f6f0974f3f6e8fabf60001b620128b6565b60006200f0b37ffccc57ca4e9d5d0d873419b8cfa6aa4916ea9ecc26f7b120ceb8e128a03280cc60001b620128b6565b6200f0e17f0d23a18b74c4a7d94820921482993a1ea146e5326e121075b5b01a6921b729b260001b620128b6565b8590506200f1127f643509097630f7f84d1c332c9f26b00093c14152f6808b948529e4bc31718ad360001b620128b6565b6200f1407f92a96b89af6d787c7e16806fffaa6eacc4c8270c8032582c7993085b7516b7f760001b620128b6565b80820191506200f1737f0d3e7688d35a3e4f18a2ac9c5e137b2bcbca51156d62b9c1aef39f050bd23fe660001b620128b6565b6200f1a17ffbf9b36da344cf4186c8aec55015c83aac0654ac2dd2706d8bcb4586a264940560001b620128b6565b600268056bc75e2d63100000878302816200f1b857fe5b05816200f1c157fe5b0590506200f1f27fc83f758d964329c7428a2d7d39d86de2c8f32519d290ab6943e27a7a34506aff60001b620128b6565b6200f2207ff3112ebf07c3b73909838fdf4df2e5bafce0e08e734cf7c503556079d77f0cb760001b620128b6565b80820191506200f2537f3ee4467f1ef97da236e0a3e94eee40f464dc71bba64f885d0f8461d05874f08160001b620128b6565b6200f2817f6096bc7ace726596002424a3b9e349a8e26344926f983e81d811725d059595b260001b620128b6565b600368056bc75e2d63100000878302816200f29857fe5b05816200f2a157fe5b0590506200f2d27fecbff983fc5f8bcc0115f02595ed64027f0bf56e7223b6165fcce83f24aa04a760001b620128b6565b6200f3007f1d973605626beb85fa127c1aac089feb8e5d1e1d031b374bdfad6db82cafd3e760001b620128b6565b80820191506200f3337f3cf5676020562e7ae61a7f95b1822221f16c38216592c67a516cb5b59ae91f2960001b620128b6565b6200f3617f469a69e535b4c592c46fc637936bf1b9411c9daf408778bf0b624aeeab1b2c9660001b620128b6565b600468056bc75e2d63100000878302816200f37857fe5b05816200f38157fe5b0590506200f3b27f2abd7eea842b7cf43d79f60f9766c0a1a5d49c8fe0e7c20794913dc82fce914060001b620128b6565b6200f3e07fc87a3ab179c80e70d643c8f1e361f4abba57753d7550aeb34db3be57fec3c1b860001b620128b6565b80820191506200f4137f0c9a86e308dba34d732c53e1e80dc897fd6afaa5dfbca2f765a1b5869506351a60001b620128b6565b6200f4417f529eac863d5932d7551e5ea3725721d9910fde8a2a9e18a421bda514cd596e0660001b620128b6565b600568056bc75e2d63100000878302816200f45857fe5b05816200f46157fe5b0590506200f4927f9fe142665cc17d5153ec6d4282486114d4f6fdde213ef857db2bc6b450cb190f60001b620128b6565b6200f4c07fa3fb155142a78b479ccd9a568335885344c0d7436ead3aff5beb940a5359aa5c60001b620128b6565b80820191506200f4f37fbb653b470905eb3bd216408aa2097d9ef1d5d13fc803883032c1165297d2904e60001b620128b6565b6200f5217f4c2935eb27af8fb030bc1df4c73cb0f54a80fa7280680a7e49aeafda4a2edd5c60001b620128b6565b600668056bc75e2d63100000878302816200f53857fe5b05816200f54157fe5b0590506200f5727f152f42edadecb0e84c28cb9c9ee403fb83a4ef4c51d3a55718526a2dd488fcc360001b620128b6565b6200f5a07f3d49486f52a0303baba1e18b8066f9f573bccbf6f8abcf50af43d5e6ca39ee7660001b620128b6565b80820191506200f5d37f5216e12e30a7d0b7e861fe5345aa633a512a1a049a357bcff95b2abfffef93c960001b620128b6565b6200f6017fc2f056702ba08acf68fe96447aa441560e13bd6ffe7e86e8473a78d115f486a160001b620128b6565b600768056bc75e2d63100000878302816200f61857fe5b05816200f62157fe5b0590506200f6527f821c119ab5c5636453c63fe757119ebf55fb85f599ec4fa8914997c951e2dae560001b620128b6565b6200f6807fbe6ef66f4c6c70a908522c256095a42a4e77ce275ad686d412e98514da89a4b060001b620128b6565b80820191506200f6b37f4ce84f4b2ffd61eae07abc068694640b29f212490d20df413ae72823a1d8f7a160001b620128b6565b6200f6e17f6fa5d0f4d3035b33cd33b100022ce1bb2f1ca639b8dccac9d267b7650cd92d8e60001b620128b6565b600868056bc75e2d63100000878302816200f6f857fe5b05816200f70157fe5b0590506200f7327fbac27bcadd1484a8b4129bb47ffc304eb5055ba4e2767e7968db7cb00c43438260001b620128b6565b6200f7607fc3c299941fa08473656a8b470755f6b458446b5bb2230c9ec938c9a62a28733260001b620128b6565b80820191506200f7937f176c61c0309aee9295da8c4a5de9a0396328b41a48799e981f58e17049b46fc160001b620128b6565b6200f7c17f29792597691b3b45f5bff6bd1b7789859f3f74a9d4b6df121910a5091266269260001b620128b6565b600968056bc75e2d63100000878302816200f7d857fe5b05816200f7e157fe5b0590506200f8127f63bc6db288cadecce1de1c2c85e128bc860957bb267511b4cb2bd2fcb30b2b0d60001b620128b6565b6200f8407f7f87c9eafcaa36938d859d1ce3f7049028f3be11ea3cf238b7ad92f6ad58619a60001b620128b6565b80820191506200f8737fce1082bc222ee400625197f4df7329a3cbcab300b9647c1f573e9c4f3fa491ec60001b620128b6565b6200f8a17ff3324d22851f2002242f05de4a8d66534aa653616c387bf5c20ff2e48c225f1260001b620128b6565b600a68056bc75e2d63100000878302816200f8b857fe5b05816200f8c157fe5b0590506200f8f27f25cfd0481ff5f5439112b1fa835816ebe92c7a107ea21dc39bd53ea814ec383e60001b620128b6565b6200f9207f4147c7e14518a3cff420ccfef3ccbfdb4d445fd86637ff518933cb79ba49bf9260001b620128b6565b80820191506200f9537f645f5193200f1f416d90c810f34b94bc454cc93690635dbf5d483a2c58d5137c60001b620128b6565b6200f9817f86e770773a60f7501e716b21ef3cff25f7e8542b5f204bf997daa8204ca80ed260001b620128b6565b600b68056bc75e2d63100000878302816200f99857fe5b05816200f9a157fe5b0590506200f9d27fd6b13f61a9f53583c9696341bfe484fba793bfa873f6c981fb0fa6b7bc042de460001b620128b6565b6200fa007f61ed18988d398a0aab3f610e2258b05662c9289106a0cdc44fadac519c2d200960001b620128b6565b80820191506200fa337f605a37354163776655d25cb4807bbdb3ca196c47d17b111304e7dc20a3551bc260001b620128b6565b6200fa617f20845e0b12e8092e03f533f9c6c6256b72e5e04056dc51a4e4bdf4f06d697eb260001b620128b6565b600c68056bc75e2d63100000878302816200fa7857fe5b05816200fa8157fe5b0590506200fab27fec397bb06417e8c0b0df999a994282899c1a2f5fd1821ac5fda7e777b71e9be560001b620128b6565b6200fae07f4afa5a40803c43b40ef9691176cca1ed268e955877b56d2911a52d5f77271ef960001b620128b6565b80820191506200fb137f5a9b8037d83916b7d6c8b04117fd374551db89135725300a20e57294cc0718a260001b620128b6565b6200fb407e819bd57b18678e2afacca60ff5d5797d6e803e54977ebf02bb1cfb7a038a3360001b620128b6565b60648468056bc75e2d63100000848602816200fb5857fe5b0502816200fb6257fe5b059450505050505b919050565b60006200fb9f7fd973df07662529dcccaa7cdc8d7beb22b0dc9f2f40fb62dcc675fa1497b493ef60001b620047a2565b6200fbcd7fd9241ad49dcd56af5a42999d49847c6026210c9dac78d390c318594378c5ca2d60001b620047a2565b6200fbfb7f9987334f183afba68759803e05810f2c52d960d1d76988ab981d11a01a8483b860001b620047a2565b60006200fc0883620128b9565b90506200fc387fb080f28fc717cff461da83c36aa165de5a3aabfd41dc95323672e2ccfd80b2ea60001b620047a2565b6200fc667febdc1ce0ca71d677950b5fd054d651334a3ce9fc9fed0686d490ebe8dfcb42fa60001b620047a2565b655af3107a4000600082136200fc8557652d79883d200082036200fc8f565b652d79883d200082015b816200fc9757fe5b05915050919050565b60006200fcd07fb5487a6e6e607d117f5c48270a5441f1b85f4c70b9187cad357729735512cc7c60001b6200c871565b6200fcfe7fabe2679f52f6799f25d7f67c6abb8da891770b48bb4d062340461382e72434ec60001b6200c871565b6200fd2c7fa68914a0785a94228c7ee9cdbe95bedace79ec865a9e8c73269630e978a6f01c60001b6200c871565b6200fd448260008562012b369092919063ffffffff16565b905092915050565b60006200fd7c7fe63090b1adf8b1a1394cfa6570040955f8f253dc8bf94780d10745ba286fea8960001b6200c871565b6200fdaa7fcc7febc622fb8e584000106277256f054163caed6281141a198f93980b89986a60001b6200c871565b6200fdd87f7c51430f6ebf47834921e9e99b2e3f4cf010a287255fb670155b0180d8b6be1460001b6200c871565b6200fdf08260168562012b369092919063ffffffff16565b905092915050565b60006200fe287fd8e2832ef6720767deec69f44ca3c3cd8b861b255a67dda4205578fb7165a1c060001b62004bc8565b6200fe567f5df0caf98b88b3eb9f27ec4ab7f0297f4988b55185a2490903332262f13a817960001b62004bc8565b6200fe847fb1fe59e6880d8042919f1fb255ef6b982ebb7b8d94358d2dc30eaaa4f095e69860001b62004bc8565b46905090565b60006200feba7fe8671cc12867f8a5daa9d15e15214bc522b3aa6a3f2d4eb2055230de1257e05160001b6200c877565b6200fee87f63b1c330c5e335300ca40dbfff8f46595abe625a8c41d59564bbedba8d4eaf9960001b6200c877565b6200ff167f61d767718d36ac9e36c603576f0bd9893947f12761d3492e1f26dfa3fbf17dd760001b6200c877565b6000623fffff8385901c60001c1690506200ff547fc91efb71a3ac8602aea14bc731ba19df6492bb54e37a614823104c091c5c21dd60001b6200c877565b6200ff827f09f5633c02450055349e727e2ddda1031dfe7240f31cc37fc2812a181c9ac2d160001b6200c877565b621fffff81136200ff9457806200ff9c565b623fffff1981175b91505092915050565b60006200ffd57ff268a890356f088a505cb75fe330a351dba197ff7f5861d670adadcc6c1205b360001b6200c877565b620100037f7b80e43ddd2640ab605840dba772b4310f1c14fb3f1bcbc5a96c2b5cdf92ccfc60001b6200c877565b620100317f2be6c2ff41bf5a27da61ec82fea2241b5d403c96c7351a58758ebcb1ec97347160001b6200c877565b637fffffff8284901c60001c16905092915050565b6000620100767f8f45efb824e895139e2e3e57b36c82e60031349d5b8608b5ae64b0becb4965dd60001b6200c877565b620100a47f45079916b45c5b2a2bd262da1878bbb447bd2803b345c56bac3e1e9ec98a241c60001b6200c877565b620100d27ff04256a609ae8604ef84ab7c38a1d38d71d5f947a87bb58baa9864b18b7512dc60001b6200c877565b6001808385901c60001c1614905092915050565b6000620101167fc144f032c9e755ba07ae353d784935c78816a5f2d0c3c1d77d3c2a1ba581c39160001b6200c877565b620101447f176588bedaa03919baf114d0bdd10b1056129a51a41f336cae190d07d82b76c660001b6200c877565b620101727fe06c24bc5f3b2c999101fe9dcb05c0df0ea4d555daeea4172f9bf112691d07ec60001b6200c877565b67ffffffffffffffff8284901c60001c16905092915050565b50565b6060620101be7fea095f3a4ef413ae2128b41cf2e68077cfebd0d498cc3900ad1affc9300afead60001b62002b82565b620101ec7f96a8f5baf314dd3c1ce2fdd6cb7e20d7cc70eb6fe70c6aa59cb4c64a1cf2015360001b62002b82565b6201021a7f1f012d8e5660a8b47a1eb02a8cc3e6be46865f65281818550cf68038a097bf5c60001b62002b82565b6060600267ffffffffffffffff811180156201023557600080fd5b50604051908082528060200260200182016040528015620102655781602001602082028036833780820191505090505b509050620102967f43ca5b504fc9bc5b531b02cbaa905fb8b3cc2d1859e8f0ffd88cbb9ed851ab0260001b62002b82565b620102c47fa627bd68db3895d32064588466c205bbd38338efbdd105ab15ad66d449f4866f60001b62002b82565b60008314156201036257620102fc7f3753d5d1b98abe14ac4baa08f67a73f7b018b20e10d6b1cfa2c658e44611016560001b62002b82565b6201032a7f1b18a98863d6186f70fa65fe6326bb78c546cd46c56553941780a1e40f04663660001b62002b82565b620103587ff677d81559d2b62a4b7c36f947beb0878003d40540424fe10d861386dfc241b460001b62002b82565b80915050620104fd565b620103907ff37545fb3fe1054576d82e08d839eaca1226715afe64fc99364277eb77903f5660001b62002b82565b620103be7f833bce9bf9e0f8d3fbebe786c65a52842f34141adaa48e0805f624d9852d471c60001b62002b82565b620103ec7f37502d65eee1f71c8bd4ca4aaae32a3c138486bd514325b360b1f2146bf64bb260001b62002b82565b62010463877f0000000000000000000000000000000000000000000000000000000000000000815181106201041d57fe5b6020026020010151877f0000000000000000000000000000000000000000000000000000000000000000815181106201045257fe5b602002602001015187878762012c4a565b817f0000000000000000000000000000000000000000000000000000000000000000815181106201049057fe5b602002602001018181525050620104ca7fec1dfc61aeb31b4823f5b3b916d861d93ebae9fa2b8a4f51c08ceedf5ea42e5660001b62002b82565b620104f87fec4fdbfce08d51caf162647bccdbd8b3d469755110b4769f90b5aa1dd31965fc60001b62002b82565b809150505b95945050505050565b620105347f0775c57eecc1724c0004a16a2a91d044eb53e4303fcf876c408ee6ae5720329b60001b62002b82565b620105627fc315bdd4d708c3afccc90fc881d1522e20ea001a16554f447473a995466e22d860001b62002b82565b620105907fd010aad63f7ebb99e9f4f028a06bf29582c34db566ae2219285bd303a0ce14c360001b62002b82565b620105c983600081518110620105a257fe5b602002602001015183600081518110620105b857fe5b60200260200101518363ffffffff16565b83600081518110620105d757fe5b602002602001018181525050620106117f0b05a28ce2b9f97ff5fa1d1238dfb4a6f3458de99d3b2ae4c8cc94c4efd4c63d60001b62002b82565b6201063f7f595c1d072b49aa4339b88494d6725b85d8ca69b3b15c6af7224908efa03eb44e60001b62002b82565b62010678836001815181106201065157fe5b6020026020010151836001815181106201066757fe5b60200260200101518363ffffffff16565b836001815181106201068657fe5b602002602001018181525050505050565b60006060620106c97ff7f51d4ff457e5683f6c5f2f78f38328ba2d043b1516771697d620e39b0242bf60001b62002b82565b620106f77f11bc28fd0f0c95ad59a8d5a384f20647f5e433b3f9aaa426cf3bee133300337660001b62002b82565b620107257f51ac8d7eab93da63b5ca2cfc43011ee08e4d9d990df6d57b173afde915d9218860001b62002b82565b6000620107328462013079565b9050620107627f3308a468449a81bd1b15491b240ba24a5cb84324ea893af3cbdba8e4b72be94560001b62002b82565b620107907f4c9677b1d4b794643e7c4b5328ce1d0f09ac6cd6d2ee75ff1af3a9798ef64f4d60001b62002b82565b600060028111156201079e57fe5b816002811115620107ab57fe5b14156201085457620107e07f5de76f1ffcc2b21e0af30da0c2a14a7c456011888da7248a4965e7c81178db2160001b62002b82565b6201080e7fa08362c00562a85d10f5ebcf35e45629783c5b9e092cd6512be7ac854c48117960001b62002b82565b6201083c7f66ebf7e172152cafe32e832acdfeec7e60ab682d7d54052137c40e0b10b3113860001b62002b82565b6201084986868662013121565b925092505062010a10565b620108827f2bb3450e5b66372015cb49d3a681014023832246e23fd2dc3eb6d91a19abad0960001b62002b82565b620108b07ff3abdbb34be02554a969caba18d522721f4dfaffa560bedc402849506167c91f60001b62002b82565b60016002811115620108be57fe5b816002811115620108cb57fe5b14156201097357620109007f49fb2216b01b361bc4a1619e377482d4c01c65495ce11133acabee0ec7a5aa6960001b62002b82565b6201092e7f0a89b7a0562c77c3d0c95748a7aaf93ac64e5aa64debc69e4b08f8d61bc312fd60001b62002b82565b6201095c7f4752763ba5150846cb43f8a8bf56c15eec12d6852e60a755a0897f561aee62a160001b62002b82565b620109688685620134c4565b925092505062010a10565b620109a17f51f09c3f7081648372201d3ab81bafd06dfc9d8499a86bb991270d9a590aaf5460001b62002b82565b620109cf7f1c7b82886e648f6527f5df39ed8c53c9fbfec9cd85d45b42e5d166bbd083e09c60001b62002b82565b620109fd7f75563e662012032d8a8fd6d42c126d7dd246e9de61d2347c2208411a280c1c6a60001b62002b82565b62010a0a86868662013642565b92509250505b935093915050565b600062010a487ffd101f38d26e6d17af50d38c93b09fafe57fb5eafaf7b7dbd74da76698b8c1b860001b6200c874565b62010a767feaf5515690878b5fffc1395c89258754d675be05b18ec31034c61379a0ac309e60001b6200c874565b62010aa47f494388132ab0669abd84a4cea7d3270705c1e5787b1023b89af997e631df29c260001b6200c874565b62010ab56000831415600462006d18565b62010ae37f63043e6e8ac71692ef40fd971a32b5acc860db477c14ce7a3e96c6bda6edf25860001b6200c874565b62010b117f255ba90670870639d340d043cc9ae293ea5cfd9c68a6c4acc63601d708b0b5ff60001b6200c874565b81838162010b1b57fe5b04905092915050565b50565b600062010b577f6c79448da895cc42103b78637aad4dc65cc7b5d3993c4353cd6dcdabc5159a7a60001b62010b24565b62010b857f3ebbb19c20743093c5576e1443642b18c94ffbd28ea2037366f76de6c324ae3d60001b62010b24565b62010bb37f3ba536322b22d790fec718b68a82a58101a0486077a6f9e874fadec9994d671f60001b62010b24565b62010bc960ea836200fe8a90919063ffffffff16565b9050919050565b600062010c007ff1a9a4cd2818e8b729de38ba2014ab37f4b31c16db025136f89036cd37cbe09760001b62010b24565b62010c2e7f0876810be5c8f1bc57ef245fa27fbd3e5c21655c24fd85e1d2996eada832bba360001b62010b24565b62010c5c7f6b3bf0dd108e9083735315eb177705be444b48e7b3875eded6fc90631e314d3860001b62010b24565b62010c7260b583620139d090919063ffffffff16565b9050919050565b600062010ca97f87da7a707b3aa56e0d1f4fed2e9ff292049009a7aa74b10e96568513cc19c50960001b62010b24565b62010cd77ffd80678893b082c26166ee2bed36a8b074d45027b17a4f4085aca9d13939fd6160001b62010b24565b62010d057fa74e5adc8bfe5da3779b36b3d46f5b1945d3595191485804e9ff3c1fe911d65a60001b62010b24565b62010d1b609f836200fe8a90919063ffffffff16565b9050919050565b600062010d527fa19e211270317e3563ee2bc1a95b318e46cf727034f114160f57f7dea60ad13960001b62010b24565b62010d807f30a18b5d151d8a750731f243f2d558b2cf5171382fc1da2207fdc32cee3b242f60001b62010b24565b62010dae7f93747112352dd0b3886c9069f6f5652f19aa36dc3b1dfd146b0490202ad2302460001b62010b24565b62010dc4606a83620139d090919063ffffffff16565b9050919050565b600062010dfb7fe55b796d9a39777faec17e89e4c4841370da185cdae0ca1232bac92589cf8e1360001b62010b24565b62010e297fdb6319a7d09c333b6dde48e18902f7d0065e80022e58e47f8a3f72030f98c6f260001b62010b24565b62010e577fcb1a729ad8b8aec19d2841072227460b5d283524bed9f81e2f900f2d92fd4ccf60001b62010b24565b62010e6d6054836200fe8a90919063ffffffff16565b9050919050565b600062010ea47fa0aba47f866b70cad1fdca3ed349e497c8d791db8cdff510308cce7c610cc62860001b62010b24565b62010ed27f97fd457456be7f880cc3d5cc554873b60f41a1a3b994d0c9da39490e84fd165060001b62010b24565b62010f007faf9d1cb38a55162259e000f2c1dfd1dfa5752f3286a9d2c17155b39bb258d9c460001b62010b24565b62010f16601f83620139d090919063ffffffff16565b9050919050565b6000606062010f4f7f27312d1957f6c2f8fec10bcbb071470a90318f038a1a9079546c90c4abe01fee60001b62002b82565b62010f7d7f7e2ab7fc09ca3d6940cec095be4215c6c230d47a749624c5b819fa821fd8b5ae60001b62002b82565b62010fab7f62a1687def4781826df53f61a504b311d0f112ec2d573bc35cd530ed9b1a918560001b62002b82565b600062010fb88462012573565b905062010fe87f4f72b0a6c31f9e75f9a69ab6943d6416a0d10c1a88ce8e22a457812eef9b8a2760001b62002b82565b620110167f12c25c8f96a17b418d6b8f6ad9a6204eb603afa2945a52df266eacfbfeabdda560001b62002b82565b600160028111156201102457fe5b8160028111156201103157fe5b1415620110da57620110667f600e43d01ec8faee4faec809d288d69b2f05decb7367f98f187677f049a9f54e60001b62002b82565b620110947fbd47c54d13bae64618d8fecfa7e1782f22928d05ef7ebf88d326328a001189d760001b62002b82565b620110c27f69a393e2595bce01b5465e8b235650ba7b4671e925710bf623bc1982222747c260001b62002b82565b620110cf86868662013af7565b925092505062011292565b620111087f48ef293c9e06af8a8ba63622ddaa876caa67d45d825a13483585dcd44e64d96660001b62002b82565b620111367ff7de053584c0adf9d47e41edd8a6ca36f6c607c50929f8aa8254efa713f125d160001b62002b82565b6002808111156201114357fe5b8160028111156201115057fe5b1415620111f957620111857fd3cb55a2fbebc435a5ae38cfa734a713c0ad310d03aa3299d64c530632688c6460001b62002b82565b620111b37f6f179376bb419051d59c0a5fb8d215911e5cc8a7461d0c58296b09bd40389e9a60001b62002b82565b620111e17f3425f14adef30727fffc9b90fa5f4da0e34cbe7daa0e879d75a8d52faf64168c60001b62002b82565b620111ee86868662013dc3565b925092505062011292565b620112277f9262908d0e71806ceb95d06f69dd4cfcdb40902754199fe66f08421879bb995d60001b62002b82565b620112557fd97219ece094df78f508a349766586c8fdaeed852eaf41f09b1c439199d1e56e60001b62002b82565b620112837f16266178cb01ee1d2590a5a1d1849ba926e2947c4162a905d7c4ffd09e811ecf60001b62002b82565b620112906101366200cc05565b505b935093915050565b6000620112ca7f076c732c2f1eda98894f613fd10f682bdc8e068bcf3b2f48f7c8167b0b0b606260001b6200c874565b620112f87fb6c32c9a49d25416885d16929db85d1cf74eb1a3b112515a238c04c95689955960001b6200c874565b620113267f4d56b22f880357877429838ec70b7deeff30a2b8d688ce52791af9e06afa2c5a60001b6200c874565b620113376000831415600462006d18565b620113657f63e4c3f0bb34e74d194bb0f9574176dbde0e4aa394857f5d6cb6a5843ed7b22760001b6200c874565b620113937fe608d21afd9a338fdae4d19312051b4c461f88cc2666362df73c65122fc92f6860001b6200c874565b60008314156201143157620113cb7fd85d64cd3a471737b81f667473d406153692320e4cd8b650bda662ad54a1995460001b6200c874565b620113f97f10d7fdc1aca673c59e29a60f16eedb92062c190e054b4d7f2c9a39e6794bd47560001b6200c874565b620114277fb21a42b5f35e6fbd0da8c8a8f2d4191258104470944ffa31fef6da01eb22115660001b6200c874565b60009050620114cf565b6201145f7f5d69f547a910d75a19f4cf840a90f6035bf85b5941d283637fe2373b27865e8c60001b6200c874565b6201148d7f8a80c9e10f686134576e1bb9da8e1542dd95fcac9b1692ec0d347c60a518ee0860001b6200c874565b620114bb7f360983f0e904f85b49211d9b225373f212327acab997a7d89b518d2a753e9e5b60001b6200c874565b816001840381620114c857fe5b0460010190505b92915050565b6000620115057fce25830bd7f91e9fc1af5c0d05a17f6a5f48d15154c85bef08e7c54327a3979260001b620047a2565b620115337fdd7a8b3a9e35200acee99afb50d64657ff886de77aa3d6cd0168b9a18a2dac1b60001b620047a2565b620115617fe02f5a129147b42ec1f9a386284c6262c49271942599bf0b5032302a907bd55c60001b620047a2565b6000620115a06201157c85856200b53190919063ffffffff16565b6201159188886200b53190919063ffffffff16565b6200b53190919063ffffffff16565b9050620115d07fcf871ec7ca53e92cce69c65c5f7ed8cd14d438387dcb7a46008e51fb9e59278260001b620047a2565b620115fe7fa131ab934d3aa93b760dad0fd53de290d32e54a9ef56dbda2381b9a0c9480aa860001b620047a2565b62011609816200fb6f565b915050949350505050565b6000620116447fef461a169749e29df7e691c44b6cdb0e69e1be9c7fb542c7bd203990328328e360001b620047a2565b620116727f84c816da87ade95476ea17fd407f04b9f4657424c0d09bac7d0fb48e37b86b7660001b620047a2565b620116a07f09212f82148dec6c9f6326ace751ce22eb4e83979c7e72c8e41a3405ac04787060001b620047a2565b6000620116c1620116bb86866200b53190919063ffffffff16565b6200fb6f565b9050620116f17fb7525fe21e91d6d24bc0e29f90d8f88f42b3b9c68ea6109f77ba990a7f22188c60001b620047a2565b6201171f7f6515e9419eb5e1d7fb1c96f9f786d9545a684e1ebb0ea5cca3c87ab907ed325960001b620047a2565b8281039150509392505050565b60006201175c7fcf48ec4d60424c9aa23b4b9780531a2ff551cc161268d0ac0d6bf000c7fa981460001b62003a99565b6201178a7f9c4a968dedc4c136080eb76da019e881836a3aa25cb13f3e70de44b49d11e53360001b62003a99565b620117b87f84d916624566586ad0050ed23bff0d1bbce44785b6ba6223105b7bcd3fa6f88b60001b62003a99565b6000620117df85858542620117cd8b62009336565b620140a490949392919063ffffffff16565b90506201180f7fbc2e41e3c70cb855c9987ea817683e3bd5d4e3d0db2696f08e722f29814508e160001b62003a99565b6201183d7fdfded300e9c696b636f241a70674d9f717986428c471224a1d88c614f9b89f1360001b62003a99565b6000607888420310159050620118767f8c2b7adf7f6f8a5e251b2b0f1ed3ae1042f77ed159c9fdd873581000e287108b60001b62003a99565b620118a47f0a89ad352c1a359bcc21a2672797243c22c280c228438ca8692907691b027b1360001b62003a99565b80620118b15786620118bd565b620118bc876200d326565b5b9650620118ed7fb1d6817d8e57a85863eed1d3d1e4c9f7b7dd70159aa74491362feec84439632e60001b62003a99565b6201191b7f406e0d9f291789219ba95209f911b4d705e86346c4346b056ba9f497d3630fc560001b62003a99565b816007600089815260200190815260200160002081905550620119617f2f1c56014cc0513e1d40ba36f1fb6b0ca747d01596cf0d8cefc6fdb160eba1ca60001b62003a99565b6201198f7f84d729f7b3ded9745b636efbb7ffe1533e9bef5d3714189e82229569ee35262a60001b62003a99565b869250505095945050505050565b6000620119cd7f29d1dfc4ddc6326aabc154e61d7c488bac57ee69302e674045260398c262d57a60001b6200c871565b620119fb7f364e609ff75a3c99cd3bed2aefee2acfe8fd7279fe3ea70d8ecd3292d8c2646460001b6200c871565b62011a297fc9aba724bafc289c41a96ab816a60ebe5be91af71331df639a9382a22c761ecf60001b6200c871565b62011a4182604b856201430a9092919063ffffffff16565b905092915050565b600062011a797f3ac0e73e74daac8405b3de96f36af7e9d2ee72486a92f9c17077e4e2e4cc6e7f60001b6200c871565b62011aa77fcdba141fc414430ea7779c36043191f661bdb9373452af286270db5878406da760001b6200c871565b62011ad57f8be6714bee65dffc139b586dbcf653f0aae362302abc0dfc6ee03e13c5e63d3660001b6200c871565b62011aed82602c85620144189092919063ffffffff16565b905092915050565b600062011b257f0a2ed1a2361d16a862a63a626d7dc7e55f0446c071324f37e80447464a4e25cc60001b6200156e565b62011b537fd2479fbf1606172f22490b4666c53b3ceb19fdb1b24472434a971c24b8e8e6f160001b6200156e565b62011b817f47ab4680f6868e4002634dbd92323fb71b52d134ac3c82463a8480c6ea4a6ac660001b6200156e565b62011bae62011ba2670429d069189e000088620123e790919063ffffffff16565b83111561013062006d18565b62011bdc7fbce97497aa7c3483551ecf2fc1ecbad1dba7debd194e9cc9d024e79aeaf33ea160001b6200156e565b62011c0a7f8282783ca711b4405930875d459503398f9400588220f956494bae619ed2b81c60001b6200156e565b600062011c21838862005e0b90919063ffffffff16565b905062011c517f0692faf120503ed39b32f5c67b3bc57b1d006a00bced044aa29225f22b1c053f60001b6200156e565b62011c7f7fc19247db98198518820599fa9f7de479d6bcc990a069ab437e02ffdbe0cc2db660001b6200156e565b600062011c9682896200b53190919063ffffffff16565b905062011cc67fdb0b3a840ed7c859a892bcdc589c2190a4a997dfc5c1980d8ae0bc54b9c4691860001b6200156e565b62011cf47f8928156402a329a37d421ffcff0408077521d9d9b7346e2bd7d415e7c0cc7b6d60001b6200156e565b600062011d0b86896200987a90919063ffffffff16565b905062011d3b7ffd8b549d674a3b31bfb12c555a2fe2f9f4b15d24b7e5fd0f2b1ec29e5a69d8f460001b6200156e565b62011d697fa8838aae9cadc4bcd3de2f0ba5679a9537fe5a26b8bc7883039cfb6a4aa5a3dc60001b6200156e565b600062011d8082846201452890919063ffffffff16565b905062011db07ff800f0759b22ca1e6c90389073cc41f23c7f77b6d349dd7d5c72f846b732c51960001b6200156e565b62011dde7f0ff18007c9f00023e8dfcf20ce553e1ff423bf113211a09c067018dfc735861b60001b6200156e565b62011dfd62011ded826200b47a565b89620123e790919063ffffffff16565b94505050505095945050505050565b600062011e3c7f81dbd76626b957ae19f1bff9bd8efeec356405c9ae70cefe3192e4069227467960001b6200156e565b62011e6a7f2042c192b17330d2c59d83567216f1fe26ce803983c0854e07556c8d8ffaea7b60001b6200156e565b62011e987fd5dec36529c7404477a87dd7d0c10185b5d753525414c59fcb13d16d55c54d7060001b6200156e565b62011ec562011eb9670429d069189e000086620123e790919063ffffffff16565b83111561013162006d18565b62011ef37f17d01d28436cb6919304a4495e77ab61aa8e57d9626b4d3c8c6b8e5bb852a53f60001b6200156e565b62011f217f879c27d6c6f9f7e4f7a30d528d12e1def99cf715499c52725a8a659b0bc22dac60001b6200156e565b600062011f4c62011f3c84876200b08190919063ffffffff16565b866200b53190919063ffffffff16565b905062011f7c7fe6f8df8112e442c42aa765a0427fab65bb2ce5df655801a336c7f8d8af0d1ae660001b6200156e565b62011faa7f3f60dcbc9f64e457881424170e039a09f9b5ded3f6513a4534643b70374e16e360001b6200156e565b600062011fc187866200b53190919063ffffffff16565b905062011ff17f88e6a53131f660c3eea3f8ed452202b73297057465aca75251efff616bdfd0b760001b6200156e565b6201201f7f37d32a877b993e1afd1921ea174d3a4e5993b021227265de8471ab1b1c7735f960001b6200156e565b60006201203682846201452890919063ffffffff16565b9050620120667f97913403cad13692312cabd841666858794db0e32cf7ebf4f814a13454a55f0f60001b6200156e565b620120947fd1229f4dd8b8f1e09c825933268a723f8e2bbac4c96036deaa5eb38de526f45c60001b6200156e565b6000620120b3670de0b6b3a7640000836200b08190919063ffffffff16565b9050620120e37f54b64675c25b39af762b7e390199fb79bb22545b84ecb13cecb00a6fa0dc2d8c60001b6200156e565b620121117f0d1b2ba77c8ea30c90c1d118a4c8b95002df13c619863ac7f062deb7e0ae799e60001b6200156e565b62012126818b6200adc590919063ffffffff16565b94505050505095945050505050565b6000620121657f72c19de3bd7f3c19931c96b91f993a5214741c9464ddeae9e6c9ad88aa15801c60001b6200c86e565b620121937f1bbd44fecdd08328705f5a8c9da101469952d5fcbfb661df3ae26dc5773ea03860001b6200c86e565b620121c17f4eda033a298c9a93dc9d334de09877f56a24759c1a2d9634ca6223dcd8925fc860001b6200c86e565b6000620121cf8484620146b0565b9050620121ff7f0187b80303fadc878d242d36faed074163396a90a7f847289b4c826a9bc52d0160001b6200c86e565b6201222d7f86062b9a7d9c7bf388c59bc4ce028394354e2dc765d24fa65959d70f5a7699a060001b6200c86e565b60006201224962012241836127106200adc5565b600162005e0b565b9050620122797fd0f340666a6e9372b457a8b7dd483baf60db93b57e11661fbdd1732d5da1411560001b6200c86e565b620122a77f96a42eec81f156474500a182e237fce359dbb271fea5c4a661b953602103c3ed60001b6200c86e565b808210156201234657620122de7f54ea40e744802516ce9076bb2494dd8a49ae42285612969958d9eefad2ff147560001b6200c86e565b6201230c7f9cd914a3aa737b153ac896c2409660f6602f300627d515618c480e5083abee2c60001b6200c86e565b6201233a7f71a5cecead4d0152ea0304a3c773b99fa24bf365cc1fd13de93ce5b059f3683a60001b6200c86e565b600092505050620123e1565b620123747f889f4032bc922cf0ce5096f29a32fd51a9a45fd78446ad9ec0ea3e12dc79de4d60001b6200c86e565b620123a27f73e5d3a758b4bf678927daed1ba1d5d62d96b107a3fe938199583de513a1eb9360001b6200c86e565b620123d07f81546aced3cb747044329efec7877c2d1213020f2f4200064b531b0b93e4fb6660001b6200c86e565b620123dc82826200b081565b925050505b92915050565b6000620124177f6a56e6b9382441f5a45bc35a43826c64209849d281de5ea652d97114d3fdd00060001b6200c86e565b620124457f832e186a9dec832c15d05f077f0a95bb8c8a30f33174b1b74cad094def38313a60001b6200c86e565b620124737f1d7ac9a6923837cb729d2a9f327d6b28bb868258b6639379ad9b804ddbf149b960001b6200c86e565b60008284029050620124a87f20b7636ac61a045be0786996288e3e2b0851467b3df87ea384032be131612f7460001b6200c86e565b620124d67fec8cc3cb5297dbadb0d69bb41ea6b39978fd82ee0c9e2ddcb3663f06f85f6e5a60001b6200c86e565b620124fb6000851480620124f3575083858381620124f057fe5b04145b600362006d18565b620125297feef689e5d622a32553062ffc4fe64fcc96483927ecea9c38947b4717464b23ee60001b6200c86e565b620125577ff2d9867efb05a2da69e9efe9a0d629e11b17960b86d7f70af9b6266d6479596060001b6200c86e565b670de0b6b3a764000081816201256957fe5b0491505092915050565b6000620125a37f15696199d9aeca0dc884627cf5f234ff567203e1f8ea030dc00a803644e4b98260001b62014f70565b620125d17f32cfe64a8f6105c2204df1fb0fc81b6eca28b32da049c4a278ff8baf7e218f7660001b62014f70565b620125ff7f5a58f55977b387beb2f0add191a1df1282755ea4ca3ca05003fdfa30b58cedc860001b62014f70565b818060200190518101906201261591906201aa52565b9050919050565b60606201264c7faf3c520a5e343fb9924b88b7fb98ac9eb5f4e6147106f1fe98fe839e55e8993b60001b62014f70565b6201267a7f15bcf2269864b6e4ba5b493e708e1dd8fae2e04acd6523b0eb94e577be95095860001b62014f70565b620126a87f949e348f9c4cced7551a302351003952d71586dd280a1443c2a52e79d108b73360001b62014f70565b81806020019051810190620126be91906201aa7e565b905080915050919050565b6000620126f97f417fc229dda14975d4570a69b822de945d3308d731c6409cce8004cc417264b660001b620020d6565b620127277fce762d2f8f3df80b9ad5d50b5b242f057acb4fbe85a36c8ef4ea48eaad41abb960001b620020d6565b620127557f3f021282b28cf8cfaece8adefbcee511d20a51781a376db7b7bf98f11695d93760001b620020d6565b620127676338e9922e60e01b620035ae565b82149050919050565b50565b6000620127a37f5731d14913681741e189180a8532a17789ec7714c7acd37fcf912de4918358ba60001b62012770565b620127d17f5bdd4b6e1d2c45b70d9687816eb47783219124a21a691a9544adbb2b89c1782d60001b62012770565b620127ff7fa0bf93cd2ffe04839fbbe5b706d32e08e8eb19181e9c57a4e93bcf6ccf5bd61e60001b62012770565b610400828401816201280d57fe5b06905092915050565b6000620128467fb2fe2642b9d6fbc1f2a4dbbf641e9a8a65b066d27b26f8e2537aabb3edfae0ab60001b62012770565b620128747f0b0fabcd3daa62150ca63bc12d1b2076a0d36f530118ea12b7e4ebcf930622d960001b62012770565b620128a27f6de38a7b40e038f6e1ae6cecbca19498acf567d750d0940bc3b7dff04fb0d2b260001b62012770565b620128af82600162014f73565b9050919050565b50565b6000620128e97faf2562788af136396a6b3154afea250c34c8baa527f57ffcc313ac3934b5b74d60001b620128b6565b620129177fc943e083836e6e29e3ca188a8671c6498f29891e50caa687094ac48a8182f30b60001b620128b6565b620129457f891b2924ebfbf9885ac5f1c87668b28c990a6988e8d31ec1fe6bf1de3f063f0960001b620128b6565b6201295560008313606462006d18565b620129837fd8a15c2c535858583fc487a8cc6c3a775a5b9c15ffbee39883838defc25e8e8860001b620128b6565b620129b17fa8ac88bfbd7d75e77b80095abae82cd66189be9210b61b6ef6eed0cb1551313c60001b620128b6565b8167016345785d8a0000670de0b6b3a764000003128015620129e4575067016345785d8a0000670de0b6b3a76400000182125b1562012a995762012a187fef02002862b6433622ac439a8d614e81d00f3eae33e479b5c2ad991fc7e1da0460001b620128b6565b62012a467fb8bafa8adc099244a0d38d56700a82d1743fe9a01cfed24e071e57142cd8be6f60001b620128b6565b62012a747f24f508e0416ecd430123ec635661d711964cd9157b891f57818904cbb9f42cbf60001b620128b6565b670de0b6b3a764000062012a88836201501a565b8162012a9057fe5b05905062012b31565b62012ac77f810b6fda621c18a0a52428568514dca2864d3f9cd32c54f4764e90270b6a8f2d60001b620128b6565b62012af57f416b2930898d61480cb2d658fe11b024d11e44a55aa01763946f220b1cc1a28160001b620128b6565b62012b237f65d2bd836c1f1f5c03f5591894c811a5e6bda0f62887f01e2d3cb05e6324ce9660001b620128b6565b62012b2e8262015935565b90505b919050565b600062012b667f5164db14ee9cf4117ca92201a208f6d2e267530dbe0ca92079708ac4a184b7f360001b6200c877565b62012b947fe2ed95fd3d683a3aca75af2533af6b0cca922f5e8f95a743549c650ab854f72c60001b6200c877565b62012bc27f803eac68cca4a82b0871708b7af1b1089f16c43f05e63e3d21e8d622ad818ec860001b6200c877565b600082623fffff901b198560001c1660001b905062012c047fc61b30adaf7f99e511ba3bfe04785de327ff013f8a1a43b5fd4c30f6058a168660001b6200c877565b62012c327f265f6b293265b95ca56abd41127077df543c283cc2f0f7a21336f15762416d7760001b6200c877565b82623fffff8516901b60001b81179150509392505050565b600062012c7a7fd604afa9954905c0482de752cfce78140c9e0105980dd5692c6f67921463c14d60001b6200156e565b62012ca87fce00f8a7049ca61aedb1e0e5c38bcf581d13ab1775366f3212871b92ad9f5fc160001b6200156e565b62012cd67f2de6256d44cffa78b3e299eb2325eb89a0da97cd84786ba0aeeac554dc15768160001b6200156e565b83831162012d725762012d0c7f292f72d04493dca9255c294730c686a302d368874b1edcb09ac5963dab33022f60001b6200156e565b62012d3a7fa500ec7bc2236658cd0905c5bdce2cce88a666004326a35afd75fa9fe64277a460001b6200156e565b62012d687f015af08e8db93efe99c853245a1f2037215132cf93f5e98e2c7ff66396ee722860001b6200156e565b6000905062013070565b62012da07fdd617053635f114281c69bd7c444fac5517d88279cf75d95f82ca6180900935860001b6200156e565b62012dce7fa4e37239a43132e6f9b4192f706e9ec7241f384d291a3108ae0e0c8a44b092c260001b6200156e565b62012dfc7ff84539ca69fa3c730d4c3f5ecd450e4fe945bc81ca46500f299aa33e176c332f60001b6200156e565b600062012e1384866200b53190919063ffffffff16565b905062012e437f4296fd1a41da20af6e91ad48634aaf5863f5902a18a3747139e7382d27ab816560001b6200156e565b62012e717fb11496e313cca9868136bbccf9b946a82babea353f3cf89f6868a96eeafbb68d60001b6200156e565b600062012e9087670de0b6b3a76400006200987a90919063ffffffff16565b905062012ec07f19d6af639cb779089ad7910a3a17494770a3a85af05be437561036fa93dc849b60001b6200156e565b62012eee7f34094aa45cf13e562ecf741fa8e79d49c3ab0047e2f8af1897b8bc8bcf55925160001b6200156e565b62012f02826709b6e64a8ec6000062017794565b915062012f327fce1c803f4db41360d7c118a71d7e87e2546bb35b601c789aa178d3bbde38edfa60001b6200156e565b62012f607fb91f36c59792839e880adad2482e18cd805859aca495f560ae9b1dc02934aa3460001b6200156e565b600062012f7782846201452890919063ffffffff16565b905062012fa77f3678fbce38b7a830dac1dff927bb7381eba6a4a4f6643d89329bd9be8992d0d160001b6200156e565b62012fd57f816c5d04869f56083815bd3c6119f5690d7c4eecb73f344067f3f331f57ac75d60001b6200156e565b600062012ff662012fe6836200b47a565b8b620123e790919063ffffffff16565b9050620130267fdef943248c99aea089a4d1aae2c25fd9ad1d1e65fbb2aea62d5dfe9e47edd50360001b6200156e565b620130547f9631174b0236ba6faca514c8555990f5e4a6f3b8d71d22ca1543fde95afa66e160001b6200156e565b620130698682620123e790919063ffffffff16565b9450505050505b95945050505050565b6000620130a97f4e5e3ef5172a0a2f8876ccce95bcdaa16d212de1b69ff1b691916846f50379af60001b62014f70565b620130d67e6fa50ba68a1b1d1900bbaa331924fdc1c43478db1a8901ae6639b94dbbd77560001b62014f70565b620131047f44bcbd5f2fb138d43a30553c106acdbd2d028316ed7cc6fc097413fab7e1eaaf60001b62014f70565b818060200190518101906201311a91906201a920565b9050919050565b60006060620131537f55b2c706edc1fac40420f6b6ee2c7fb303ddd3f3b2e904e75d52c6bfd88e56fa60001b62000d7d565b620131817fc498ca4ed44b1ebcfc965c587448a4caa7674ba28574ad44c701d0b18d270cc260001b62000d7d565b620131af7fc0eb990e8883f9af90f456b244df4424ef0fdb6588346633543bc7fad5d1535e60001b62000d7d565b620131b962007bfa565b620131e77f44575eacace6313d4ce3cb25629c3a9f23ce0f7905ebb1784022d4cd23e99a9260001b62000d7d565b620132157f0355d2b4e0a38f294b26f0a56fac8eadfc5bf5e09cbcdc1b5c20b74de12cc5b660001b62002b82565b620132437fddc2931f68df684daeece4030a289424a31224d58e466113a22ee661dab7844f60001b62002b82565b620132717feb1874758931b5d62e15aec926f25ae150eb6eb223857b146331d6080b10f6aa60001b62002b82565b6000806201327f856201783a565b91509150620132b17fcc9d648bf4d58f3067ec2bf3edadadfa9b2d57759004e637fc031f6d0418f6c260001b62002b82565b620132df7fe25f46442f64712f443d853d03a90eb6fa24dd95695a2cfe8e57935aeb7c134060001b62002b82565b620132ef60028210606462006d18565b6201331d7f6059d7737e13d31b468178d33f1bc1ab876ba63ab1cd541b2cbb8dbce1b6551160001b62002b82565b6201334b7f76d2f5027c241617c3397d84a35efb380dbba726e6215c3bd6b6452bbb83b0be60001b62002b82565b6060600267ffffffffffffffff811180156201336657600080fd5b50604051908082528060200260200182016040528015620133965781602001602082028036833780820191505090505b509050620133c77f1eb0c6313375f8fe38fd214b708c6a07a1172377fc9d370921a2adcf0ce471c160001b62002b82565b620133f57fee0fe4a9ba1cadc52b7ffe655914f675333eae8d15374f351b5ea93945d22d3360001b62002b82565b6201343e8883815181106201340657fe5b60200260200101518884815181106201341b57fe5b6020026020010151856201342e62000eda565b62013438620023f2565b620178ed565b8183815181106201344b57fe5b602002602001018181525050620134857fbd3346b8ecbfc62a011fa574ca3415f5a470d61c879ad5e8b04cfba22be3baa660001b62002b82565b620134b37fd844bf2a4d7c000a07733f49fa57c4698f0973755d9076ee435bf7b30f9a1a5360001b62002b82565b828194509450505050935093915050565b60006060620134f67f63054608b3707b2b9997cd6b0166f5ec931098fefdaf92befd53e11d38e1333960001b62002b82565b620135247fe88d45dd0b3cfd2735ffe135d0f30d1632f3be5a3fb8245615108cb955989dba60001b62002b82565b620135527f0b96aa9b8fcc9b52f34a6e22d6724ccff86236f466146640bd3c07537fdd927760001b62002b82565b60006201355f8462017d20565b90506201358f7fc4678757d77ba241b898b06ae260b17eb8c9b889c1c2a47a481c404d2442fbbd60001b62002b82565b620135bd7f084b3428be5d341d2f2d9629cd0f8ec72b1769ab082cd695557cc5325a77003f60001b62002b82565b6060620135d58683620135cf62000eda565b62017dcd565b9050620136057fecc5a345a331461be9a5a410edf79c4671c6fdd82623b403067bd86f11a056a660001b62002b82565b620136337f91b607073c2c8e92df55534086723665864db6832433de7a3ce50ed5ebf6d39a60001b62002b82565b81819350935050509250929050565b60006060620136747f55b2c706edc1fac40420f6b6ee2c7fb303ddd3f3b2e904e75d52c6bfd88e56fa60001b62000d7d565b620136a27fc498ca4ed44b1ebcfc965c587448a4caa7674ba28574ad44c701d0b18d270cc260001b62000d7d565b620136d07fc0eb990e8883f9af90f456b244df4424ef0fdb6588346633543bc7fad5d1535e60001b62000d7d565b620136da62007bfa565b620137087f44575eacace6313d4ce3cb25629c3a9f23ce0f7905ebb1784022d4cd23e99a9260001b62000d7d565b620137367ffc809d17c616515ca05ebb875aaea60c9fb790b5ad3de17efc2c5a5258959f4c60001b62002b82565b620137647fcaaa692f4387bc0f415c32915ff01d962b5e9bf8bf23bfeb921fb369de57088360001b62002b82565b620137927f03d0e1a214e37ba4466498a036bbe980ac4013080823c3f9075d5c404c33b5ca60001b62002b82565b60606000620137a1856201809a565b91509150620137d37f107baebc3a8bbe90a1e18fbc7d7e6ba0d7da1e9e4c83ba80842bd5f309d84efa60001b62002b82565b620138017f70155010741cd25f114c86aabae26b2320b1c437f8b86f5121b9412fd039ab1260001b62002b82565b6201380f8251600262008743565b6201383d7fd0d268a176a9be3c89b28fe3f85316d7b6eb73856eefb7982aa9772fd2943eaf60001b62002b82565b6201386b7f597754286230caecb40884ac0493762d4a8b8da2568918fce225235cbd2db2b160001b62002b82565b620138768262009b98565b620138a47f80c6f9b6110e59dbb5861d1bd4c53255d0839d0ad7dac72fa9267dc0c1f9cfd460001b62002b82565b620138d27f954c9d90cf2fd0dcd9a2d5502f47d3237b6e3d8c4a640afccf3e51537d305bbd60001b62002b82565b6000620138f5888885620138e562000eda565b620138ef620023f2565b6201814e565b9050620139257f0581ac2ec092c5c51bcf4dfe83a8f3e0cf61e7b8b7929ca86d82d310fa5184c560001b62002b82565b620139537fd91499ceff969bac7dd8d76b06873f57c4df9655af69b51ee400af45cd23220760001b62002b82565b620139638282111560cf62006d18565b620139917ff773b798e7162513b4ffb202dc47f83e066db80072567a6203cc6853848a7a1960001b62002b82565b620139bf7fd2286d99367f869f2436bd2ebe1db8ea07f7b8241bd38585c08456895199ea5e60001b62002b82565b808394509450505050935093915050565b600062013a007fce95c3ccc9b00b977cded9398861dd2fe00ea7babe74bae6aa4275c6c28e7a4d60001b6200c877565b62013a2e7f51ce7125abc2084449a8921b019dad353c8d54e3054ee7cc2e9d9ca6ad94a95a60001b6200c877565b62013a5c7fb4d2f20d1a742eb340ed208dec486a41396e86aefa0d35c5e5f7cd3995e9a49960001b6200c877565b6000661fffffffffffff8385901c60001c16905062013a9e7fe3c1acceb3ab8b7d0c79f573280ae58fdfd9e4e1896558fffd0ed60e20033da960001b6200c877565b62013acc7fdc9142df5ccebf6e5ad254e67e708181e33b031cef13c574907a3b9c3909b00460001b6200c877565b660fffffffffffff811362013ae2578062013aee565b661fffffffffffff1981175b91505092915050565b6000606062013b297fab322f05393a630d75dc5017f13f44b2974bf12ed0d0a55b49387c4c95735e7860001b62002b82565b62013b577f9b320aeaf16bea23f2502e9c88b3dcf75da444ffb364501ac0c086c4dbe7e52160001b62002b82565b62013b857f4640eed9b2fd6fddfebe712c1628c7dc9b5a595c5e23c64018d372f862f4c9c660001b62002b82565b6060600062013b948562018a9b565b9150915062013bc67f209251074dbd095f852e820c937ac479fe3a290834a0cc360295c203c2972ed060001b62002b82565b62013bf47f44783f13fb6309c345b2347269aa524c88a04405adcc1cbc6aff0ddf572f082460001b62002b82565b62013c028251600262008743565b62013c307fe8c6b1986fbd179e92776ab5b0e260c76e82bc2fdc948b09845f731af32753e360001b62002b82565b62013c5e7f4093db073c7ada4ac138f368b46d2196e1666aefd8efcaf4bb60d9dbfc43157e60001b62002b82565b62013c698262009b98565b62013c977f09cc9cde3a962ee7f795557d4b200c28fa95a33b55b3453d8cce1897bb21e2cb60001b62002b82565b62013cc57ff0b87091ad122b45efe1cfa1bf6f5427d982d979e1c3366862b158718ea1d40e60001b62002b82565b600062013ce888888562013cd862000eda565b62013ce2620023f2565b62018b4f565b905062013d187f5e7a6b27d7c50ee2e259310852c21119a77435ccc803865140f2efe21235395b60001b62002b82565b62013d467f29f5fe4fe59dcc0d1a9579c238d898e591d991e91dc94d9562524d39bc17479560001b62002b82565b62013d568282101560d062006d18565b62013d847f53bdad551e65b0db95721fd197e877190eccd91c7f00e6163561814354a632d760001b62002b82565b62013db27f2036d9233aaa4e4ad3e2b8a6ffe8acca59638e8307583f403c4896bc8182601060001b62002b82565b808394509450505050935093915050565b6000606062013df57fc09349a56abd44c77ef9c579a0b67a71077e538913d0d7f2cd0b98c5c94bf6a060001b62002b82565b62013e237f89a24c339ecc2a2dab7dcbc950f1c239207872346bf19b7387386e6c7c2b614f60001b62002b82565b62013e517f3b4dbf4ba247f2759013a5859e6e235f5c832073e2c1602da73e95afe294ed6660001b62002b82565b60008062013e5f8562019604565b9150915062013e917f275a972cad28966a09d5b2353d6e28b1ec35189745293f39d32a6e6ab45e7be360001b62002b82565b62013ebf7f21dcd6781f22ab86314b6f9339fd699c72e5561aa6093d745a2def17c97400b260001b62002b82565b62013ecf60028210606462006d18565b62013efd7fc3b7c4e1309ea439d4f14d8aab49879cf6aae8903d8774866e0c5381cf3869f760001b62002b82565b62013f2b7f119435ea28ea2fa8370961abbb6652150847be7c35a63a1ff7729420c4e4bf2f60001b62002b82565b6060600267ffffffffffffffff8111801562013f4657600080fd5b5060405190808252806020026020018201604052801562013f765781602001602082028036833780820191505090505b50905062013fa77f548836435fb81f88cf9e92c6423126592824552959754d6ca11bae60e497157b60001b62002b82565b62013fd57fe69157900cc326e6a98d780fc1a0ee910245f25815a77fca1ccd3ecc10c24a8f60001b62002b82565b6201401e88838151811062013fe657fe5b602002602001015188848151811062013ffb57fe5b6020026020010151856201400e62000eda565b62014018620023f2565b620196b7565b8183815181106201402b57fe5b602002602001018181525050620140657f6c9d7a7fdfea9201cceef866641eaaa32156d89c93f86897a056f233e56c149960001b62002b82565b620140937fb1e25feb9c4c2c8dac190d51cee8ba29b463a67bb433931472299bb67f8c288360001b62002b82565b828194509450505050935093915050565b6000620140d47f250521a0c15d98e13f5bec15d4cd3a40fc8f2e715884f1a0612f883b4811768460001b62010b24565b620141027f15b9accc59ebe0e0851475777f9b5bb089f74fba5d09d33525485b1fd60cbcd560001b62010b24565b620141307f99f21f99532bbe2ea9e3ca6911583d4560952f6696b1717fa121bb3026e4f71260001b62010b24565b60006201413d876200cc75565b830390506201416f7f0377cf1a67a8ddf0d64e3bf929f67c39e44935acb4b0641ca51ec4608f022fd160001b62010b24565b6201419d7f79b69cd83bdc16176f50a687fb775956b504acb0d1e618f061dfb90b1690eeda60001b62010b24565b6000818702620141ad8962010bd0565b019050620141de7f118a4aa3aac40cc0b59377456919f15ac2924da789f7b9dfce15323c85f349bb60001b62010b24565b6201420c7f7f5684a011eb430db6da09bd649432ae25cf78e71afa89fecbe23a10dd16783a60001b62010b24565b60008287026201421c8a62010d22565b0190506201424d7fe0964b8b26fed2945c5b580186956e31f2aab9a25e6db32f85a95651857dd51b60001b62010b24565b6201427b7f12990979dc12e88635397e9963f2475f101a020a5398d14d93fbf7234bc9bb0860001b62010b24565b60008387026201428b8b62010e74565b019050620142bc7f42a4b4428eff48e268c4de7c198f559a7290ba230b29d15b35a592be699724cb60001b62010b24565b620142ea7f944cb528836ac1693abb7b462b3f0231e85663fbdade320d0c0df950b33ed3a360001b62010b24565b620142fb89848a858b868c62019afb565b94505050505095945050505050565b60006201433a7f867b77c3b56b614e198847d9a864287d6dd25312640394fbab8d9f12de226bcc60001b6200c877565b620143687f2d39bbe270796754feca55af61e097190f6c457bd5dcaafd5402ca5469717e4a60001b6200c877565b620143967f3c909cabde1886eafdd5f9895c2f69ff00046e5c57f9b2a01fcdd5c66f11573260001b6200c877565b6000826103ff901b198560001c1660001b9050620143d77fb4fbac1ffdb8df7e8e81ec3a9119bd9edf23d7730f2822f2b3a2fca2d5a61b0960001b6200c877565b620144057f61dc59403fe0447864d7b1887077c3df3c70bf6e94c9ea5dd251df4dba0a75e860001b6200c877565b8284901b60001b81179150509392505050565b6000620144487f52e3fc28b72903305c29db38627ba182cdba4ebd1a1846c93f87fbd1d00c70b160001b6200c877565b620144767f2b36c0d8599eb33d1c8424539ad6c522a001a7f0287b83ad3652591e1089e68e60001b6200c877565b620144a47fcaee97c16d8bb6e910d52eb2f00e17476ec91736dd6012c35c9743436ab9b54f60001b6200c877565b600082637fffffff901b198560001c1660001b9050620144e77f4e22d9c32c39d3a1326cfb44f325c20c535e652c14afe71ed68b74d776cb6db160001b6200c877565b620145157f75ee89ac0394ea76e77fa882f8e748cc1937746f1342f9d479ce4d7d5b38ef4c60001b6200c877565b8284901b60001b81179150509392505050565b6000620145587f25721ce18b6bffc3f9997929975ba453580739ef145a1adbe7bb4aa4b8857e7960001b6200c86e565b620145867f9cd570838adb910b08e2fc79b3452605cf064cb67d8520ac0f8bfce12cbca36160001b6200c86e565b620145b47f884475361c4c4d5e4bd00577aa93f9d57874cc32d5e75f40a41e8f059017cdee60001b6200c86e565b6000620145c28484620146b0565b9050620145f27f10cb084c023b7e0f53854a40085cf7fbb0425f8fb93400486d4f7d2c3d7388f060001b6200c86e565b620146207f33d13a31a06800cb9d234bdb7bf20abe2949867398b6d7e108d4adfe6f50fddf60001b6200c86e565b60006201463c62014634836127106200adc5565b600162005e0b565b90506201466c7f67bea290723a6c8eea059d7fd6f368aed411df9bbabfeb28b149293f88a613df60001b6200c86e565b6201469a7f7d79adfa852e724bf7ed52c9d1aa40b692a39eaf9cb72e0385e8fc3b92bdea0a60001b6200c86e565b620146a6828262005e0b565b9250505092915050565b6000620146e07f9a386118f61e7ad4fa94e2a287955728119e0eee16d4706f5696a5173abbc55e60001b620128b6565b6201470e7f4f5997ebccad256def7bcc864be7dab89aeb1983524220d7a4ab32739d94bfef60001b620128b6565b6201473c7ff04ca04c0c7f6564cfb884744b9a6a99b8399657bc624ad61bcda29b2dea0c8660001b620128b6565b6000821415620147e157620147747fb61fd0faffc74429d9536d680d51c229f7bfc857cfe0b1c16ab8ee519cd7f08a60001b620128b6565b620147a27f8ba538650ff97cbb25f6268d335201a5b55832ed9fa3368278f2b54f0655d62360001b620128b6565b620147d07f50029354f7c76e9002ae8d860d78d3dc711a958bc725263ced11b65fa033525e60001b620128b6565b670de0b6b3a7640000905062014f6a565b6201480f7fd32c8ce279639d1bceeaeebc77169f155034a4ef3d9539ba1585415db271fb4b60001b620128b6565b6201483d7f765d74ec76319c86571a1a98990058f556f8173f470cb234b3eeeb73de2a471960001b620128b6565b6201486b7f5d41edac9e94ccb4c9ce3771702b37e9e9fdad84abef68957f8d535db1fb18c960001b620128b6565b60008314156201490957620148a37f4df80895392f90aec5303fb0cdf1002d46f9bda472d31b110d0cb84aacdb819160001b620128b6565b620148d17fa865a11a69610de4d0f9025b2ae2fd2cb3cec580573f71fce7a2a5d9dee3f2d560001b620128b6565b620148ff7f30ae80ba256bd1ded11bd90ea5724792c51430bf16054b9ad66deeff27aabc8360001b620128b6565b6000905062014f6a565b620149377fa645d025589b55f83c0dfefa01eac77e5d0040cfd4baee299ffe10f75514e23560001b620128b6565b620149657fab20f4270e591807c022b2d6de30f822b45725f5402d151d2bc8d45283aeed4c60001b620128b6565b620149937f4e82b059df52b7c33f830ca15735cb0bd1aec4f1359143826cbe5190fa65caaa60001b620128b6565b620149c27f80000000000000000000000000000000000000000000000000000000000000008410600662006d18565b620149f07f96eee7e488fa5825e821b6a7c55ab2a7cc28b3c1b79cd978100956b629cc1ee760001b620128b6565b62014a1e7f1ceb730a261b7113a12394ad33c901fd32ed42b54320b008711ce05b719077be60001b620128b6565b600083905062014a517fb66fd411e1a8d967039a8da79a7d790af05f6b49ea181c71e5c38c7f183ac69660001b620128b6565b62014a7f7f59d94b3b892e410be8e3a31581fd61484ed53955a13153e3b15f6ff2d20e8a2560001b620128b6565b62014ac168056bc75e2d631000007f40000000000000000000000000000000000000000000000000000000000000008162014ab657fe5b048410600762006d18565b62014aef7fb43455663370ee4e1a9aecd733919d21a1556a872736849c215974eb634a7e1160001b620128b6565b62014b1d7fe3d754343e1c7c1cfb2e7784ae1f7f2376d06f5f401d590c9e9b142eb6ff13ad60001b620128b6565b600083905062014b507f8142fa62dcc2c5a93b972d69f51de2a37654459ad74c151d90f967f61a85ce0960001b620128b6565b62014b7e7f402046afb111f35727124c3a6ff0e2b2e5971e5595f6396e9c492e4a265ebbf660001b620128b6565b600062014bae7f89c0988c9926159e3ac8878ee2b3ab59aaff3cd725b128c615ab50a67602fac860001b620128b6565b62014bdc7fa1658a7bc679ae40702db916ec95341df9125e33bdd70a9dcd9ef9e3582a2e7760001b620128b6565b8267016345785d8a0000670de0b6b3a76400000312801562014c0f575067016345785d8a0000670de0b6b3a76400000183125b1562014d505762014c437ff49ed7d2b95b72393e94d42845049140b773b672c50d6e84ce1b5add7b5f0f2260001b620128b6565b62014c717f5aba645b90c86d1b2aef4aab00c0d26824c62ae4059bbab52019a3f4b0e3754660001b620128b6565b62014c9f7fdecba6c8700d218b458c9726aa50cc52fea6d06f28fa0a626a623d9d8c838cdb60001b620128b6565b600062014cac846201501a565b905062014cdc7fd9240a119a615d486710e5b81d68c7448ce534e7455183fc71b4672d5703849460001b620128b6565b62014d0a7fc0cfbbf713e4647e61a667d0a63a928a90a209ba4b9d621a7e025a1494ea6a1f60001b620128b6565b670de0b6b3a764000083670de0b6b3a7640000838162014d2657fe5b07028162014d3057fe5b0583670de0b6b3a7640000838162014d4457fe5b05020191505062014dea565b62014d7e7fcc621bcfd2c6ea1cee8c99457f203c0ca179e2c3425a4fe7903d6c9bb67ed6e760001b620128b6565b62014dac7fa6e3279b328741e46af523c5b150d8028c884a4764d5a57051e75ab45359622760001b620128b6565b62014dda7f9078c1bc9da8505f20b2fbe8f4a2301ee4bd40989461036b8db101718d0bf7f660001b620128b6565b8162014de68462015935565b0290505b62014e187fdc9fec9918f8626782712375c63e7110ccaf5fefb184df87d8e968da192d6f7c60001b620128b6565b62014e467fa6ef11a4e406deb2e49d7789d48365a2c9e2e805490d707d8331c1e0e82f3c6160001b620128b6565b670de0b6b3a7640000818162014e5857fe5b05905062014e897fb021674caea471abb3eba3039cfa309d30369ab16ac518ce79845057ae8495b260001b620128b6565b62014eb77f77aebfd49fc425f02c8aeb6081ed57b7c3bdafd97f0d88a9ffe8ea40a4c7234c60001b620128b6565b62014efd817ffffffffffffffffffffffffffffffffffffffffffffffffdc702bd3a30fc00001315801562014ef5575068070c1cc73b00c800008213155b600862006d18565b62014f2b7fcc14f66ea80d0f96ac4be1cada57bd936b4aff18ec591c8add3868919daf5c6960001b620128b6565b62014f597faaa107c4e1a3cac283bf0b9714305fbd4444b0ecbee01cae1665ee77392a88e360001b620128b6565b62014f64816200db2f565b93505050505b92915050565b50565b600062014fa37fb7453bf53d39bd370a4289b25c45416c812c59980ead65a3632e31c8c695886260001b62012770565b62014fd17fb7b3142c9a64cf5beb48e01c89704963e104043d845c50b35283b2fc886bf0f960001b62012770565b62014fff7f8df4fd8a91dad58dc9e917565e751cbcf0378eac43cb5ee7b3e46f157114991560001b62012770565b61040082610400850103816201501157fe5b06905092915050565b60006201504a7f878dbd75182d11169cb6468e38c2070285b353a113fc0c0f4b4e78ca4107efa560001b620128b6565b620150787fcf52ba1c3136b4366d77e6a3fd49e8232584096ef261e9b87ce00f0a2f8a931560001b620128b6565b620150a67f3fadda1085c3441ef2115201184f7120f4dba09084082ae4e6eeed1c40727c8b60001b620128b6565b670de0b6b3a764000082029150620150e17f3c4c865f3e9a320aa8d2dfc77a8fa86ba841b120198928ed6d44cf8166871ffd60001b620128b6565b6201510f7f74a1d91c3ea4303862cdf8ec96351a9d9dd07e348a0263d0d65bffddee4883e160001b620128b6565b60006ec097ce7bc90715b34b9f100000000083016ec097ce7bc90715b34b9f100000000080850302816201513f57fe5b059050620151707fb02a1d305ed8612fb08f3b91318af1b7c6e1de56e50d18149e5bf2d56cc4e32760001b620128b6565b6201519e7f64d39411ae3b76279032a1259eb31b90200c7cd93b1307d0b2846132e2a872df60001b620128b6565b60006ec097ce7bc90715b34b9f100000000082830281620151bb57fe5b059050620151ec7f9445b8db6848e2ac200a600306a0e74dfa1fbd16b1c352790326725057ebc4c760001b620128b6565b6201521a7f04732a40f912844defdaac51f1a732fe5fc30d0c559ee46d2d4911cd505e96dd60001b620128b6565b60008290506201524d7f31f7e977e002f3022025dda5b7ea9008ecc0d2c679daa00d8bee57401d1d316560001b620128b6565b6201527b7faa7bffffe28aa01279ed79e64a2829a44787d9a1a85600be7176613880bd7e3b60001b620128b6565b6000819050620152ae7f0ca25b8445a81872443a08a7deabd97122bc85703acbd7cac917257e7d40fbdd60001b620128b6565b620152dc7f80cd9edc12f986cd2b2254624da7f7e4c7a13b9ca0265cb118f1f560bda113a860001b620128b6565b6ec097ce7bc90715b34b9f100000000083830281620152f757fe5b059150620153287f2434d8bd5444b7c791edcb33c992e3e0580d6770ac636595df9af649fd45f39b60001b620128b6565b620153567ff4b44251ea6639e79cf51957737ddab7a05f8d61bc0840416b4f80ad42b02b1a60001b620128b6565b600382816201536157fe5b0581019050620153947f44ba7a842c4fa27b8ef073a26c244c41ba1a11e3343f6f9e880ee3efa5b986d360001b620128b6565b620153c27f881a7507053576bc7ab3310b30ecdff4366715dbc22955ef62902025243d448c60001b620128b6565b6ec097ce7bc90715b34b9f100000000083830281620153dd57fe5b0591506201540e7f5cc7b54bd8a3efe7bb82e35745724901b942f3b30d9c179b13112065f2bf54a460001b620128b6565b6201543c7f6b09c0a494d694b9017dab9b538cf50dda0d4ce6fcf7c191261d56811a9b1eae60001b620128b6565b600582816201544757fe5b05810190506201547a7f67e7eccab0966e707ecf96650686e0c490d93ab40e5df5241b64db9a9ea2428260001b620128b6565b620154a87f5ea6654204c898adce6ede171fa7ddf03bdffa537294fd486d85b453feeb2d2260001b620128b6565b6ec097ce7bc90715b34b9f100000000083830281620154c357fe5b059150620154f47fc359e7f0fe751ed76ebbd41c54974045b448505fd37771931beeec37bfc0783f60001b620128b6565b620155227fd160bf175438cbadc9c33c5adc1bd2e777bee2efe0cf4a568d100f7be416c7c060001b620128b6565b600782816201552d57fe5b0581019050620155607fba657166d1bb96b631caa21e09ab3333b868325c9e93d0d7c4dd2076b424e80d60001b620128b6565b6201558e7fd4b8e0eeeb75582255d7ba8141e0026e06ea26db9bfae0e9f3ed07bc1925e86b60001b620128b6565b6ec097ce7bc90715b34b9f100000000083830281620155a957fe5b059150620155da7f69211bc47fb802aef4fff41bd4d89e8ee67becfd894366ca78c7acf3cadfec0a60001b620128b6565b620156087fd2170375c1a33f1b85ef30331cfb09a299b05c120505de2e6f74f25a4381f5a460001b620128b6565b600982816201561357fe5b0581019050620156467f2147d71f78b226ea8564375b984f37938e9d74c4e675da9059e6be15783ef7f860001b620128b6565b620156747f36219ac4352b474957ca6f46d9dc10ba51ca26ddffe5bef9a9904ed48b94688260001b620128b6565b6ec097ce7bc90715b34b9f1000000000838302816201568f57fe5b059150620156c07f66175e9d1eac4fe1d87d9f46e716cc9764eb6a6ea9266bafb64d32152255537360001b620128b6565b620156ee7f8b2dcbd8b3bdda835dd0b219131d30ff05d9c603e40e5e19d9697cc63b902e2d60001b620128b6565b600b8281620156f957fe5b05810190506201572c7f95679c79ff9167866ab81e5affea2e82cdffe07280f62efcce7fbafd5177f40260001b620128b6565b6201575a7f5ca7e75f15fe66bd55391e5d94d83afe99c5fe750cac1cf7f188a65caa8b731a60001b620128b6565b6ec097ce7bc90715b34b9f1000000000838302816201577557fe5b059150620157a67f4d3d0450320262ec71b72fee282a4fdb28093d3d9ab7454b7702f4a6d90149ee60001b620128b6565b620157d47f70c78d2b1fb3cc25168a54f3fcaaae66624d4c58583d2c2cea6cb7078e7662d160001b620128b6565b600d8281620157df57fe5b0581019050620158127f6efe0404f3cf3850c7045c85a572093a73b99e44bcb2e17bd85e8ab8fe2e146e60001b620128b6565b620158407f6ea24d886383470ea8d50a9d54146f22f4183ce7faa564b937422cbe3a31709b60001b620128b6565b6ec097ce7bc90715b34b9f1000000000838302816201585b57fe5b0591506201588c7f53ba805b34a2e873ae264aee577d2eba5398265eda1814f55f60c534a07522bb60001b620128b6565b620158ba7fb2a8d8de8c01d550fcdb7c81fbd4b84488e80841c9c780e8b40a93d3872284c760001b620128b6565b600f8281620158c557fe5b0581019050620158f87f0bd9bc1ed84d46d259127ef65b8e3d3e67ed19eb1efe97b8934b20b72429997260001b620128b6565b620159267f2cdfb68cefc5ae049daa48dde3e333f3c71094b2a49e9347cefbbd9e0a9f00ff60001b620128b6565b60028102945050505050919050565b6000620159657fecc77b033a29d74e33dd4abe85f8eb70815aeba9e4bac926898327ac3be4b8f360001b620128b6565b620159937fd1bf58f14d30ec45c59a075b20607d54b9c0645be47c51dccb974fd74b918e4160001b620128b6565b620159c17fb7e77273758c8f1b1167b33a9d3c9784a7eff80f06a053f49027c16b10fdae9d60001b620128b6565b670de0b6b3a764000082121562015a865762015a007f03990bb6672ae8d5bc44835763d88c5e3b06636067e317df6d9d7a24e818a1b960001b620128b6565b62015a2e7fb4d24ff997e553acbac719b4050d5f7a67340a1153c3d0e5b58e42d1a97d403160001b620128b6565b62015a5c7f9343aca2ac0216fb1bc6abbbbe349687b179aa281b90c9a16a003ab63ecea38b60001b620128b6565b62015a7b82670de0b6b3a764000080028162015a7457fe5b0562015935565b60000390506201778f565b62015ab47fbc178d8ab74e86929f080dd82638220c59546b4898e89154272cb85ec4e506a660001b620128b6565b62015ae27fc25387c0a83078394744caf630f322a44b35d75b7c03154f68a727f8428ff3d460001b620128b6565b62015b107fd5100a8424331f4f75bf8f7208773b083324f3a81a80dde35bb80ef9286be0c460001b620128b6565b600062015b407f33e80997264912b44db3023ec34f5e913b6f4f8e489b776fb9ab65985f7fe9d960001b620128b6565b62015b6e7f590005f08891cfaab908ea55e28c26f6acc2782c5c3375e1bc5d90e25baf19ca60001b620128b6565b670de0b6b3a7640000770195e54c5dd42177f53a27172fa9ec63026282700000000002831262015cb75762015bc67fda7c2b3cf0cc7102cb557ed8005cc75781a193a0b744d47ce26e14bda3fc868660001b620128b6565b62015bf47fcd148570dbf475cb9e0a35ff028069c8b19b19de53ea88a1d45cd8660e08fd9360001b620128b6565b62015c227f9332ce97bca85a297f29bb59f4965244b555ab0003e354be447099141b48a9a760001b620128b6565b770195e54c5dd42177f53a27172fa9ec630262827000000000838162015c4457fe5b05925062015c757f6124b65b7763ecfd58e70ea6d57d78826b28839ef428daf402530b48dc006c7c60001b620128b6565b62015ca37f79885c84b7a285bcf408b37e144226ed068ac73408dea6b74ca38657de7af0bd60001b620128b6565b6806f05b59d3b20000008101905062015ce6565b62015ce57f5b2e8b47c063ba9ddf9895d4519474e0bbad0adf399c177ddaff9feb8ad42de260001b620128b6565b5b62015d147f1f3e31c8d0be15c54c0939d2f33de5a66145bbf4e39f3efdebead140e51caa4c60001b620128b6565b62015d427fecb2b1f4b7cec7ea8bbbb9050b4f7f9a9f2748bdf17d3c291bcb5d502f58f96b60001b620128b6565b670de0b6b3a76400006b1425982cf597cd205cef738002831262015e735762015d8e7f1d6684b3fc873897ec4e0380ef2e0ce7b9f9058616bb6f0015e648600a7f6f0b60001b620128b6565b62015dbc7fcd72d2c4e35d731106a7a08750fc74c5f7fb69a608d0df838f1792705b369ca660001b620128b6565b62015dea7f406812009aad2b40385da00397d7ec5f450f213c0b3b85ab5e92f2e2a843bad760001b620128b6565b6b1425982cf597cd205cef7380838162015e0057fe5b05925062015e317fb0995a83058ca31ac8624e4a68448556ef31ed4f570cb40025f0a5a09e3a631560001b620128b6565b62015e5f7f35df840b42a9145d6ee285270d0cd8a395d84810769b353c760b9c20ae16f5ca60001b620128b6565b6803782dace9d90000008101905062015ea2565b62015ea17fa94c6b9b5a805db25a28082f021a6d6de99c51fab6c643f4a13eb55da42c007660001b620128b6565b5b62015ed07f65847ff29eb1a52003d690ab8190951fbf4f01d48df56566f179004ba8b307c660001b620128b6565b62015efe7f9f31c8b122f751e33f63d6880f9059e843cc41786cad59411853e862505ba40260001b620128b6565b60648102905062015f327f74899189979eb1a55c01f0b4fee049598f40edc6e83bd697789f68a5f35b2a4360001b620128b6565b62015f607fd68cddf915aa92a7015a22cc37156bef6eedc9370809b23d90e89934bfc86ab260001b620128b6565b60648302925062015f947fdcb59718759577ae01517084240cf091dafd92c6662707e2a2d7c99421d457b160001b620128b6565b62015fc27f442b12b25733e5032f3d1118f6c822932aa8e68c3573144483dfaa5992cfa7ea60001b620128b6565b6e01855144814a7ff805980ff00840008312620160fa57620160077f517d701ba4bed5025e356f0465ec2e393a96e7e46b3a94ce3b1c61f628886a4f60001b620128b6565b620160357f38c1bda640bb460e0b0b91958dae86f4ae448e2e9afab267985a91fab526e85460001b620128b6565b620160637fe9668e91a8545913d37f858da33ed2556043fdfbe5b31c3f3512d3f9cbd8bf7860001b620128b6565b6e01855144814a7ff805980ff008400068056bc75e2d631000008402816201608757fe5b059250620160b87fd390b31746ead49deb096735e86bd3a237ed02c3b9a93f5e184acec961a3ab5860001b620128b6565b620160e67f83d399164d045afdc990adeb5547a99d77b6e938cc8bee04efb39fc742d1143560001b620128b6565b68ad78ebc5ac620000008101905062016129565b620161287fc674803d87b944d844c9245cdd2c8b09e25dc9b73e4beb1cb67d529ba0b924dd60001b620128b6565b5b620161577fa1e2bb1345e3007cbd5ac4dd9063e8231f054c2a18f864586186da78c4a192a360001b620128b6565b620161857f34746ef9d7116ddff8b8552fbafbc09f78d3cd5560a3819038cc98864e640dbe60001b620128b6565b6b02df0ab5a80a22c61ab5a7008312620162b757620161c77f43c2561fa677b9965dcb2982e9739cee5574471a0316d18b178ead0ea0dcbe7960001b620128b6565b620161f57fdb7e7cd63f04b13d646ff83f968c2391a7dc04201b2ab46f4c6f05a2f5f4c19e60001b620128b6565b620162237fa51301f0c721792a305d53938cbe25c60b60378307f5f25c6ff366c81961a97960001b620128b6565b6b02df0ab5a80a22c61ab5a70068056bc75e2d631000008402816201624457fe5b059250620162757f11fc776bbec2628286b2b3e91c8540150b1f64508f26aaf3b42ab58a1fba282d60001b620128b6565b620162a37f7aead7559accf21b41f5ead9612a4ea682d12e908fa465b88f7d002ebcf32d8360001b620128b6565b6856bc75e2d63100000081019050620162e6565b620162e57f91d5f33e94ec1de2885dccb316b2d57c46d15a0170029e34963bb1a728af22eb60001b620128b6565b5b620163147ff93d78aee895f4f8c20809b09fe8e2f8ce9bf3108aba97eea09c8813112de8d060001b620128b6565b620163427fcc17545d83aa93fde97d49a674f70b12bbb08b356adcaa92ad52dd6dee29defd60001b620128b6565b693f1fce3da636ea5cf85083126201647057620163827f442d0cbd39255f4993bf72b4713cb8405cf2c16bc11f2c896b76edf1c70f594760001b620128b6565b620163b07f05d5d3d4a55dbe9cd78a9bc82c6e7043997d171541c049ed29c0c95d1b73816460001b620128b6565b620163de7f52087c8da278fac08437ac36aef19bc7093b60e42264611247e8b8cd5cebfbd360001b620128b6565b693f1fce3da636ea5cf85068056bc75e2d63100000840281620163fd57fe5b0592506201642e7f549e28f6477e1075442c24d186d6c4e4f5189b494fbd9fe4b36cc31fae7c05b260001b620128b6565b6201645c7f112289d07b1152c263915e888ef487d4d8885ce824e2d55b2cb6669f6642d7f160001b620128b6565b682b5e3af16b18800000810190506201649f565b6201649e7fe8b34c3e3d49638df8de9456cd63e124667dd843906ea9f8ee14e2ce321e254a60001b620128b6565b5b620164cd7ff82a94d46fcd7c9f1820289fd90f20ae33d1d493fbb00e7f6ba6abc237fbe41860001b620128b6565b620164fb7f5ac5ef8e9713b3c5c621dee821e1e2c1a6b84179fb1577d53c349960b0fd4e1860001b620128b6565b690127fa27722cc06cc5e2831262016629576201653b7f6f6a886c84e94c8efb34a064ec83101adbccb0130259a0c9c9aeba966844d6b860001b620128b6565b620165697f0ae83707e3703e28a5aaf44fc171aeb9c3f9e213f4d3a340443aae5d10f9d8f460001b620128b6565b620165977fd06eaa9fab42ba2079c671a1215b3d318c47bcc5360f042352f800e81bfd106860001b620128b6565b690127fa27722cc06cc5e268056bc75e2d63100000840281620165b657fe5b059250620165e77fab572d90bfb9c124d9484929548ed41df1b8057da1528ac63c585fd764fc0bc960001b620128b6565b620166157f126ec8a75e70653075e105f551273140adfb3d0a38f2ba73601c089b2ba3ee9660001b620128b6565b6815af1d78b58c4000008101905062016658565b620166577fac7710080525cd4b036f5e3e771adfee143ba94c2f34ccd1d9af4f55101d2e3160001b620128b6565b5b620166867fd8f529777bf3c5fad19f92c54e089886622c45276cc59f248c85b2114c58712b60001b620128b6565b620166b47febaf06d46b7ac1bffa21896bc5a2e4d54e403aacb2c67b4c83ffe4a8de59dad660001b620128b6565b68280e60114edb805d038312620167e057620166f37fd782e28bfef4a9aee46768d5a898a8b0852461da94f77afb0b1a0db126d689bb60001b620128b6565b620167217f0f892ff33b1681c024af2b7400894f7135f713c1141cccea1d0f7a48e196ea6060001b620128b6565b6201674f7f016709195c863ff2b6e7a8709c6403df4fcf9410cba64aea4ea52e315107efc860001b620128b6565b68280e60114edb805d0368056bc75e2d631000008402816201676d57fe5b0592506201679e7f8efbf0466f47ad7a3867b1aa6ada7ed9d3623d3e70e82363cfa48df94243b75960001b620128b6565b620167cc7f545cca4fcd599541ba46da759ff71fe69938d9f7b454fdf4c770c76de7c8def760001b620128b6565b680ad78ebc5ac6200000810190506201680f565b6201680e7fe6ae54cd7aba0dbef4ee458109eec68ead929bc09250ef073db32b5c40ee148d60001b620128b6565b5b6201683d7fce07a9f05073e0fbb04c6eb3f77d3dc7cbe60907e588c3792204756a0d6c74c460001b620128b6565b6201686b7f9496378a269681a74128a3a0379e6d34b9a1d67d89b07397f49bd9d793dc274a60001b620128b6565b680ebc5fb4174612111083126201699757620168aa7fc5d2fc1e632def828074f9d3e7bc33ce191c750973ebd6e581678f99ade4fadd60001b620128b6565b620168d87f4988499741126d3df189dc4867ffc24dbfbc0cdf3757d8c80222db07a5a4557860001b620128b6565b620169067fecc4cdc3d0d2bbb45def22474f21a421ed22ff3b870ca315df73a8d76d08754d60001b620128b6565b680ebc5fb4174612111068056bc75e2d631000008402816201692457fe5b059250620169557f62f66c535864a306c6f871dbdd227a87145cc95a208ef1a546dfae46e1705a4d60001b620128b6565b620169837f5b19aba2b04fbe826218b1f623d7c42e19a8140f1794300b8fc9217288c9694960001b620128b6565b68056bc75e2d6310000081019050620169c6565b620169c57fbc7affa58390a36b001b871b8d6f69de575163c22b1a59cf1b7a4d4f85e682fd60001b620128b6565b5b620169f47f0ee8c156418755aa10b12b56b4075d4dae20cb18ce0042a13fb452f02c81934260001b620128b6565b62016a227fc0a6c3795d0b4f7bc8ec75193be9844d97db1520e3cb777e51e4f7791c89500860001b620128b6565b6808f00f760a4b2db55d831262016b4e5762016a617f6e23fc2df3ca2ee9baa68f1d4f62afc51ca655a1074afa909f3201e70e891f8a60001b620128b6565b62016a8f7f4f05315a3b3fba0b6470b79e85dc91de2340145ad04d16d6969d25212f62f57a60001b620128b6565b62016abd7f741781695ec4e7df21f5189db5ad56a7aa7318155a7e730026330fe97afaf87a60001b620128b6565b6808f00f760a4b2db55d68056bc75e2d6310000084028162016adb57fe5b05925062016b0c7f279db3ffd3f4dd1be2a357620fdacc6e6deb6b5e71cc4e5c43b4a9410a05f80360001b620128b6565b62016b3a7f1c517488f9a09df6164abe953a6b6cc8adc9bcbd265287788e4776f4fa8917ef60001b620128b6565b6802b5e3af16b18800008101905062016b7d565b62016b7c7f128acb01763d599d53d763ec99c5056f35e62c8294de29ba909da64fe55a685760001b620128b6565b5b62016bab7f47438626899ddae4ae4df845f95be06614408c9a9e4a94f0654c8f8cc44cb90060001b620128b6565b62016bd97f9d83783b28782547e736f3c8bef1ea97ff44c5737de1f3ff871fde5e435c5de060001b620128b6565b6806f5f1775788937937831262016d055762016c187f1ba49dd74c222a2fbacd1a9671051d50e5049a5c6851391e0630c9e65aae9d4460001b620128b6565b62016c467ff6c87b67d510932081bb6b67e2e89f8bda85c25c3685ab4f00cb85920e893bee60001b620128b6565b62016c747f36e669280932996637ebf415b2033e56ccf79f34e9275eb919dc02f4348aa32660001b620128b6565b6806f5f177578893793768056bc75e2d6310000084028162016c9257fe5b05925062016cc37f3ba823a20a274f86c51e6da2a7b9ced7a9b02d3c2f2bc4eac60c65f4ee43d36460001b620128b6565b62016cf17f680b5be9b864a3215793eee1686780bf4de2feb1af1c045d11b74dedb4639d1860001b620128b6565b68015af1d78b58c400008101905062016d34565b62016d337f641f4f142d168f008e5c4a8eb26b1ece3f09c0c5fcd152fbf243d5f03e27690b60001b620128b6565b5b62016d627f97238392f7dab2d4a38a1e8766a2f91dc7fc323f1c0b8799f39865d92645947d60001b620128b6565b62016d907f46e21836a4624f05f470b0dac285147aeb030bfeb741790739d8dee386f87c9160001b620128b6565b6806248f33704b286603831262016ebb5762016dcf7f746529c844954dbb560816e98110ff01413c1992b207c5d6f2ece35bdbddcb5260001b620128b6565b62016dfd7fa66b1a039aead98f4863ff8127d8f61dd7908e916bd82aee106a55698f12dee160001b620128b6565b62016e2b7fdbab046d8ed19cacf85d0bc9759bd8bdf43b38d2f3fabb52dde10067d6bfcf9c60001b620128b6565b6806248f33704b28660368056bc75e2d6310000084028162016e4957fe5b05925062016e7a7f0551d2027d1cd7234ca5d68eab1b648c336597f3a74c907cfbb4ebc6eba4d5d660001b620128b6565b62016ea87f37344a9f97a81da97f5ba00450e8a23ff354c2421b31e528ffa110cc4db8a34460001b620128b6565b67ad78ebc5ac6200008101905062016eea565b62016ee97ff674a42d154cb66872ba9f79c8e7daa8a47135e28cb86287f53f06740d28e97760001b620128b6565b5b62016f187fa7c423bb0f8cf8830eab442eba3d4fafccf8cf1d2d6783e8b5454b13e5ed48a260001b620128b6565b62016f467febfa51e705881c3b2e2646e69a480fdd41f3db224dec81f2060c3e46f392380160001b620128b6565b6805c548670b9510e7ac8312620170715762016f857f1af473fbd540fdc463f8a19cc88164cecf0c207df6d35ee7c801f4fca82f5d1060001b620128b6565b62016fb37f3bd02a93ecb637b9cdcc032e0c989b60e58ee886c0b84e5dec7747410baef6a560001b620128b6565b62016fe17f1a4eb2af33cb0dc722803838e5f2cb41743b47e066aa6d5129f720c81e8b861c60001b620128b6565b6805c548670b9510e7ac68056bc75e2d6310000084028162016fff57fe5b059250620170307fb08f47db9f6818aaa5f6dd538ce1c206bec429d3d45ce83a0c3bc48ac2867db460001b620128b6565b6201705e7f38b1e4cd02468c5fc8a3112c81c1cabe24a10ebb6dda491d3412e99469eae05e60001b620128b6565b6756bc75e2d631000081019050620170a0565b6201709f7fe1bc13ff6fb846b6aae88fe2abe49e653d3b866d7bc697cd9cc7e8956929923260001b620128b6565b5b620170ce7f3d9bd3c418e5016f58b17d9b9a5a0ef229efdd2e10cec9b07d685858c903d1e760001b620128b6565b620170fc7f46b28d214e0c40e3e9e54d5faf34c8c5252981298d386e249d13a70a57a4d4d760001b620128b6565b600068056bc75e2d63100000840168056bc75e2d6310000080860302816201712057fe5b059050620171517f3dbebf6c9162591b4ebd33e30982a4a071b9aa6ac907568549984b69d7b97d9460001b620128b6565b6201717f7fc2198d1c948b59bdfda1f1443f4529dda03e3bf76a49c4334577e262024507bf60001b620128b6565b600068056bc75e2d63100000828302816201719657fe5b059050620171c77f8b328398f0bc3f3e114cc30bf414a9118f11c0c53b9607826adbf177d7234a6260001b620128b6565b620171f57f23a957cfd7f2a895e23e72bcc64a67ca847eed7acbc47b30dcd33328f9ffd91260001b620128b6565b6000829050620172287f75bc76e46db3d9980693392d8fbe0d80bfa1afe3e6406b3b7420f5ed6f9d2ef960001b620128b6565b620172567f5e4f3ecc30d70c9e9225fa17def48f80d464a55ae8ca87ef8e015b2625a8e2f660001b620128b6565b6000819050620172897f9861061fa4e17fcd7477afb994b0f754fe0555623867e0db5114e9a84b0e381060001b620128b6565b620172b77f0b81c6d481d565d1a5c32a6c452da8172217545a4a77846c606bb4104790397660001b620128b6565b68056bc75e2d6310000083830281620172cc57fe5b059150620172fd7fe7cb73b74ee9f45f8e445ac52fc1919100dc1facd98e515cf01b35f4657b6e2960001b620128b6565b6201732b7f973151ec731d5453cf2b07002fc6d04a394c44be197ce37e5740d2c7a2d00aee60001b620128b6565b600382816201733657fe5b0581019050620173697f5853551f5603a6017955792df373d6912f222a2635139a0e449ea332cf449d0460001b620128b6565b620173977f590e1c09210e851786c5660ce93eabad67c6ce708b76b93c7020b8f9df62056060001b620128b6565b68056bc75e2d6310000083830281620173ac57fe5b059150620173dd7fa09473f57235fb4e547c1df454d2250bce8cfd4c1307762bfa80bf8bcd13d71160001b620128b6565b6201740b7fd01404210437ad5a168e9010b09d02e8020957dba687f82bf2e2dabf228dfe5260001b620128b6565b600582816201741657fe5b0581019050620174497ff6c70604248ac19a52cc438deb376ffdee8c76671b0854b3f277ba47782b6d3960001b620128b6565b620174777ff949ba52643cc6c78a8bd96d87f384ab359055e057da843c887498726926f0e160001b620128b6565b68056bc75e2d63100000838302816201748c57fe5b059150620174bd7f3e48e16f40e52c258a85b58f4a2049f09c90985f0af8cafb5995af5184b444d960001b620128b6565b620174eb7f9b81c6cb4ad498deb2f942df5f1acfcecce4394094af2276c5cb241a475f051960001b620128b6565b60078281620174f657fe5b0581019050620175297f14ceb5f280509ac53ec01e498b76628182c763cdea88a3dd6c3fe0302f89b22e60001b620128b6565b620175577fa28acd8a1d51f8f00861a6ba1439782c53410423c9f1c9c5252ff9ee917b613760001b620128b6565b68056bc75e2d63100000838302816201756c57fe5b0591506201759d7f0cb759739d9698314564435fda44c50f91e0c3edee52c8339fd524d2c703aef760001b620128b6565b620175cb7f41eb74299bd88211996e23ea0cdc256302c89c23b2a812cd6a260d41a14d6cd460001b620128b6565b60098281620175d657fe5b0581019050620176097f5289bcf47dc32c4e7e226d31dedabec2da6841c9966cc6ea8456cffaa04800ec60001b620128b6565b620176377f8a8c7823359f348dd6335d6d865df24fd35f446e45356a0ea82957b764e0292660001b620128b6565b68056bc75e2d63100000838302816201764c57fe5b0591506201767d7f2cfd648bc3944426a52aa7739c0344437314b2c41c2d473ff352f8c98aefe8ca60001b620128b6565b620176ab7f76fca5d622e3a2d40c4ec29b2ab56c209f3abb25e430be9518e091190111822060001b620128b6565b600b8281620176b657fe5b0581019050620176e97f17016eaa3f0c430baeace1b9b0aa07d72d34b8fcb445aeffba692833fe16e6ac60001b620128b6565b620177177f33f0ef55d351e7fdd7fa13a2376e75118c512c087450d7f2f20773ee5a8f3d0560001b620128b6565b6002810290506201774b7f549ddf4d2efa67d866330fa46c38f1d96c9c8006f727ab4c976d74fa649a71d360001b620128b6565b620177797f57b16f52181747e1a9658401c64b43ba63512d00488614ef91db29c3b790a86260001b620128b6565b6064818601816201778657fe5b05955050505050505b919050565b6000620177c47f7cb45b78c97ea7383e9fcb81d497198c628ff028ffc6f324f1ceecccc04cb59b60001b6200c874565b620177f27fb3656ecde4040e1bbf22fdb3305656ebaef9ce03a867e318dd2675414787d4e060001b6200c874565b620178207fa9adef01af328324ee6569271fad04725ea685a815a37b6a0fb2771309e9110360001b6200c874565b8183101562017830578162017832565b825b905092915050565b6000806201786b7f0ac91a56abf11fcac5b578501e9095cab8daed42d6389ea84d9b18424493552160001b62014f70565b620178997f17da1847110237e38e4c1bc738200303561ad7b8b1e19022f99771d4835bf14660001b62014f70565b620178c77f404798be251b1aac6add92e24c5b531d4ca3a91d0192968a1648a7d0d695471b60001b62014f70565b82806020019051810190620178dd91906201a9fc565b9091508092508193505050915091565b60006201791d7f1d87df4bf741f5fa780d392b27042b06f46df2b29fa63c25d0f0febb34dfc14f60001b6200156e565b6201794b7f0a3121a496674afd4ba93a6af1c82d01dcb9577ac453dd0c18b71b6e75a641d560001b6200156e565b620179797f0c182ad15d3c4c9e48e0b6c60b3fb0c929e9f36ead3261df240dc8b95ea82b3960001b6200156e565b6000620179a4846201799587876200b08190919063ffffffff16565b6200b53190919063ffffffff16565b9050620179d47f63e214cf53abcd3c4722941ef75d79df45a6c6040774ca4ea77c2dea0df1b2f260001b6200156e565b62017a027f4fffd47ddffc1b55d260b3535b85653ffcdd702c959a99fc5024b38327cb336660001b6200156e565b62017a1b6709b6e64a8ec6000082101561013262006d18565b62017a497fefae5b87eee833af15573b6ae022eff03ad8f9eee1aca0f88f3f841b1ed08e4460001b6200156e565b62017a777f19743d890b758a9b54f07606180cf6d9982e039d0689339968be4411f5c3c40260001b6200156e565b600062017aaa62017a9a88670de0b6b3a76400006200987a90919063ffffffff16565b836201452890919063ffffffff16565b905062017ada7f435ff8c7d367f71642c43c5f8d429a4aca249995ec50e27018ebff0f0970d71160001b6200156e565b62017b087f997ab0b1fbe2b5bece1767daf81a258e1e78bd0bbaeda8767300fecf5253766160001b6200156e565b600062017b2962017b19836200b47a565b8a620123e790919063ffffffff16565b905062017b597f12446bc69609f7989f60754cc85c1799583f57b5eb92f78ab22956d8c121f6f660001b6200156e565b62017b877f791d5ac907db80d7a227085662c676e2c8d797ed306de9bd0b976933e40fe50c60001b6200156e565b600062017b94896200b47a565b905062017bc47fb0e6bd63ceb87512ed357729bb54e09d8013e390f0a1eb3f74ba5cb8e44d261660001b6200156e565b62017bf27f86477e1d169baa97d2101a0549841ab6f9ef13f7898ed2e7402bce347ebf1ccc60001b6200156e565b600062017c0982846200adc590919063ffffffff16565b905062017c397f1922e5c43e87c0ff5f103002e85a93b0c8da3122d0e5669bb22e4155142fbd0260001b6200156e565b62017c677f50accda26e648df2b5eebd8956c7acf12ba10c3ac4d2fda0618dd28f11e383b060001b6200156e565b600062017c7e82856200b08190919063ffffffff16565b905062017cae7fafb50ad8b4760f1d07e265b3bd8d0f18bec1d88b39c9fdb3a81bfe593f9dee6560001b6200156e565b62017cdc7fc2feb4825c8492fe104e8aeafe9044f7cc731f6bb133261210aabfe384e4e11f60001b6200156e565b62017d0f62017cff62017cef8a6200b47a565b84620123e790919063ffffffff16565b8262005e0b90919063ffffffff16565b965050505050505095945050505050565b600062017d507f6e73f2f66e3e69a8092232d04d558168e69d0aa31010e9d2b89a6b54c22c628f60001b62014f70565b62017d7e7fdca4e4af3c5a58bbeadfce51dd0b531b8e456d7ae0ca8e17d5ad5b4eaebcadb460001b62014f70565b62017dac7f57956ac6e6b95135f5271b17aea20594d762128bde32ecaed3c5e2ea12a5c4d760001b62014f70565b8180602001905181019062017dc291906201a9bb565b905080915050919050565b606062017dfd7f30348a04ecee1bdf3ae3aa50ad93973cb9c810c895149a9558a86faba4202bb260001b6200156e565b62017e2b7f435adb51a9c879358ec04c527685f10ed7164164c9c0b3237c119474020a9f9160001b6200156e565b62017e597fa7a883bfd49da4c37cd6a2ba823d5845f7fb3011f529fc56dac72d5ca7e289ef60001b6200156e565b600062017e7083856200987a90919063ffffffff16565b905062017ea07f60d00f3a8515aa084da3b347e2707d6889c689253a6af558a504f138a790752760001b6200156e565b62017ece7f4a7ae87da30e0f96b3863d9086b5480677722c86ae8267752b31ac0ba0bfec6060001b6200156e565b6060855167ffffffffffffffff8111801562017ee957600080fd5b5060405190808252806020026020018201604052801562017f195781602001602082028036833780820191505090505b50905062017f4a7f1eaa4ecff4917f29a20254854fa22b656f2bb697fdb0227394f518e21390844960001b6200156e565b62017f787f4a7d5569fb7df46a1644956b4f5a54cbf22ee2a05b48ac314e7ddc14e196ef8d60001b6200156e565b60005b8651811015620180315762017fb37fbe3d3631201b88c379ccfde9f6d5dddbe6b59e09d6fbdbebe5df79adb9c0d0a060001b6200156e565b62017fe17f1c3e9a96e7e9590e3de4b8c032d92968de2565cd0cf94251705b82cf3d3a831660001b6200156e565b6201800a8388838151811062017ff357fe5b6020026020010151620123e790919063ffffffff16565b8282815181106201801757fe5b602002602001018181525050808060010191505062017f7b565b50620180607ff4f37669cdb356180e7f72c78425bd9f9c91ba636eb8ce2c715c2689a51af89260001b6200156e565b6201808e7f7b39fd0c9cc0d64ee3be8e8ad0fb104438faace29f2df804dbec43e8738ad43d60001b6200156e565b80925050509392505050565b60606000620180cc7fcd9e17aff172b0d0b5301d9a73a63849d2f85a4323f2428a0d84d188a573b83960001b62014f70565b620180fa7f20a61cf6253f05f35381bd8bf4841d0329e599b22b23ef9217624ab320a9fee060001b62014f70565b620181287fe8bd6d948dad94fdc5e74d4c39a0be60cf3bb8e30402faefad4c0ca335081a9360001b62014f70565b828060200190518101906201813e91906201a94c565b9091508092508193505050915091565b60006201817e7f66d1e086f2b3b55720689d4ae633ba7e0f4c4d487cba822c5a5ac525f03fb79660001b6200156e565b620181ac7fdf07a2c764cd8194b4778e76d0e21f6f87e269f22e62501cdd41a77a3944357560001b6200156e565b620181da7fbcab1ca23be0acd2c0432b5e98ca214342757f17ee9cd57c128c7af04b5dde2e60001b6200156e565b6060845167ffffffffffffffff81118015620181f557600080fd5b50604051908082528060200260200182016040528015620182255781602001602082028036833780820191505090505b509050620182567fae2966c3b4581a0359e4d33eca508815a3294b55384a06feb85e04329c20435260001b6200156e565b620182847fadc0b6a3278f8defdd39dc4e15538e098cd5f6ffaf0854127e42deece891928660001b6200156e565b6000620182b47f75e9fb3f72f370166cc55fc05bb006475cd8059c70aed6c54c1b4b077de8f45f60001b6200156e565b620182e27fe1916e8605b17e59a3e565a82ca0973e820c913e7ac54a091fbb9f3184b5bb9560001b6200156e565b60005b885181101562018486576201831d7f6d956fb78ca16f714267fd63734d9c69b751fedf288761005f046a1051b7ce6a60001b6200156e565b6201834b7f2a3244e03bd1627c7bb830bd01b356d879f0535b7e84631c4a00bb517c98c0ae60001b6200156e565b620183b08982815181106201835c57fe5b6020026020010151620183a18984815181106201837557fe5b60200260200101518c85815181106201838a57fe5b60200260200101516200b08190919063ffffffff16565b6200b53190919063ffffffff16565b838281518110620183bd57fe5b602002602001018181525050620183f77f813a6c0e92344d8522d0b53eef4140a48c4add73fdbb7b107f4ea9977b53d01c60001b6200156e565b620184257f1334a4c70b8315c21e493d7afa3f9b7e216a85274b7bcf4ac47f929c15afddb260001b6200156e565b62018476620184668983815181106201843a57fe5b60200260200101518584815181106201844f57fe5b60200260200101516200adc590919063ffffffff16565b8362005e0b90919063ffffffff16565b91508080600101915050620182e5565b50620184b57fa8438fb0cea64b293cda875fe9d1a25d59389907acd5469b203864651316680660001b6200156e565b620184e37f9ea21e353897299577717350b3184e80588e9c0b43c1dc929dd58911d76fd32860001b6200156e565b6000670de0b6b3a764000090506201851e7f65457011bfe5687c4ef2233876a3e249d78f62bfbece7670f801f47de4e9db2f60001b6200156e565b6201854c7f3cb45c7aa4ed880ef8f577f0f3b6e8a7ad853bd452f271464de0537f0aba889260001b6200156e565b60005b895181101562018a1157620185877f9bf699b45b15734b39626e4ff99d7effd0bf067e8069f4176a54d2db20dde67560001b6200156e565b620185b57fe4df4a9bda12d94ec2f34cbe517fdc4de5db94f723c726f660ea403daa43a1ba60001b6200156e565b6000620185e57fc81fd3229e5f2a96606f7b46cae65a8ea9cf0270c8c0d5b45d56b30b839e08bb60001b6200156e565b620186137f1d5a822dff4ec1daf98a0830dbfaa267bf921ceea7f98a47a2fc2abf517534e260001b6200156e565b8482815181106201862057fe5b602002602001015184111562018813576201865e7f084e90600d207fd56036a8144ebae38c1b3b3806f33c66e7b3c2b41742bd7c4060001b6200156e565b6201868c7f5c714d18572ca28646b7c33107ebccca7afbe96d1079d32016d98546de9aa3b460001b6200156e565b620186ba7fa7c622fb97bb4e23ceb7f851987cc115f9673c572a1092027f97c2c226c4637d60001b6200156e565b6000620186ef620186cb866200b47a565b8d8581518110620186d857fe5b6020026020010151620123e790919063ffffffff16565b90506201871f7fe0a1dbd73d59544e6d84835bd81c4373fde584625c8032286b72f4fb559a224b60001b6200156e565b6201874d7f2fc8ecfdc4040b73fbe81c8402718ee595e5a960bbe66fa1402934d533d536c660001b6200156e565b600062018778828c86815181106201876157fe5b60200260200101516200b08190919063ffffffff16565b9050620187a87faacacac36ed40a7d83c055b8e405766604f93cd3c9477571a8b6070cb2bbf57060001b6200156e565b620187d67ff65a319cce94e930446bec16e454ee81ef78109f34b103213d18ed071eb96d3160001b6200156e565b62018809620187f9620187e98b6200b47a565b836200b53190919063ffffffff16565b8362005e0b90919063ffffffff16565b92505050620188b5565b620188417f629dee5ce187535686931c0dfbfa1852549981687acc4f60b5d4bd9b88f86a1560001b6200156e565b6201886f7f7ec7ce8e287f4da1a014de363ba98a70c6179b06bcdcb37aa46415eaeb6d843760001b6200156e565b6201889d7fd9c153b58705ba3047abe494356152fb7176ed7b37d4181d2bd691440beb61fc60001b6200156e565b888281518110620188aa57fe5b602002602001015190505b620188e37fb8b286f6916c61f376781f284385f58dd5ae33847741bca1f9b8ad1595d9ff1a60001b6200156e565b620189117fb4c48547ab931d7fc6c1ad9c220f701ab59743dbde25c56585fe1efafb481d7a60001b6200156e565b6000620189648c84815181106201892457fe5b602002602001015162018955848f87815181106201893e57fe5b60200260200101516200b08190919063ffffffff16565b6200987a90919063ffffffff16565b9050620189947f4d0f97b04b38473d4016013782297d84e7024bd0fcb1eb40a96c86a908b9110d60001b6200156e565b620189c27f840668f7d4fc111c90146d1a17f93efd3ef09376ee3ac0cf6126bbf00618528160001b6200156e565b620189ff620189ef8c8581518110620189d757fe5b6020026020010151836201213590919063ffffffff16565b85620123e790919063ffffffff16565b9350505080806001019150506201854f565b5062018a407f4178a2906d025024283bb894977545b46d9078a2494e86a874d21d463a05a79560001b6200156e565b62018a6e7fde4fa5a5228b726b389a61d24ec06e7900ee8a1481d7746e824357c34d76267b60001b6200156e565b62018a8d62018a7d826200b47a565b876200adc590919063ffffffff16565b935050505095945050505050565b6060600062018acd7f22dde051b3947062eb50242c515d0697f3b9f554366d93fab12d4cfb92a1b7e460001b62014f70565b62018afb7f2f6959c6d4b4059c472f24b19be996aeef9b0c444e52ce4116f1da2b608bc01b60001b62014f70565b62018b297f88caaf440456ffce29faeffe7d292784db09d2db2de33a0361178ee0c160166360001b62014f70565b8280602001905181019062018b3f91906201aad8565b9091508092508193505050915091565b600062018b7f7f576a863d97cdb2c1d249ac783bdba346346bd7b131d228467d125d60b9f1a80860001b6200156e565b62018bad7fd50507d03432c7450272f189601e232cbea96f62880412c799fa8aa584f8336f60001b6200156e565b62018bdb7fe4afb299c8b137b3fd13e0b80802048ab40c8f2ebe04fff7833006b95c75cce860001b6200156e565b6060845167ffffffffffffffff8111801562018bf657600080fd5b5060405190808252806020026020018201604052801562018c265781602001602082028036833780820191505090505b50905062018c577f5b65b98316829d91bd2e3c819cb74fdd9b59a535ebb1349ebe220af0a937f72060001b6200156e565b62018c857f7b944a854d3fff921d6c4bfd17f1e91df3f78819b6c8435a361da6dc5e3ee2e660001b6200156e565b600062018cb57f42b6093a9197ee1785c89139fb8239de42d4a3e4ff511d26858f89e96cfa97f860001b6200156e565b62018ce37f42889a1991ae7064f488955541e11894e1c0cdd009021f2105a8294f2f100c2360001b6200156e565b60005b885181101562018e875762018d1e7fb752f05850861270a03215ad630e72fd7a755efa0e653ffe71b113352537f9b760001b6200156e565b62018d4c7f01c1533c8b62ccb28b7d579c4c5e63f7356f9044adce771242f9eebca703db7360001b6200156e565b62018db189828151811062018d5d57fe5b602002602001015162018da289848151811062018d7657fe5b60200260200101518c858151811062018d8b57fe5b602002602001015162005e0b90919063ffffffff16565b6200987a90919063ffffffff16565b83828151811062018dbe57fe5b60200260200101818152505062018df87f415a56e35f47ec3954ac1a31d1c577c17e5af51f4707e87a1ccf802a3516ecac60001b6200156e565b62018e267f370ecf6650d380da58b2f1b42d1e52e8db28017cdb160b6df705df540bfd9a9260001b6200156e565b62018e7762018e6789838151811062018e3b57fe5b602002602001015185848151811062018e5057fe5b6020026020010151620123e790919063ffffffff16565b8362005e0b90919063ffffffff16565b9150808060010191505062018ce6565b5062018eb67fd47e11776107c2f882140be77840f1e5d4044db607e135eac28e7f87aee70e1160001b6200156e565b62018ee47f86254899a1052dfb6bca21076974cdc12a2fa189846fc1cd7297b7f674b8416960001b6200156e565b6000670de0b6b3a7640000905062018f1f7f25cc282b19cd1e4e439c340945c7bb507111c10b19360292e45cd599b643173260001b6200156e565b62018f4d7f5cf807b141ff65f3f5da42b1e15354adba7085a031e56f85d0c57de08d9f972b60001b6200156e565b60005b8951811015620194365762018f887f635453ee73a416f39cedc6479c9b533479db18fbcd32282a0b4888be9be76c6760001b6200156e565b62018fb67f922e1e60c36e80d1526d377b4d49034dd2a3aa19464254096a0abefef0a99cc760001b6200156e565b600062018fe67f10755f411c5225174cbce3a88ff3ebb60643f35362ce345fe41bcbb448c1163a60001b6200156e565b620190147f25bf0df7cd4767a5c9f2edb9f307147ff40d13f41c52104083ddcd4f0409f8f560001b6200156e565b838583815181106201902257fe5b6020026020010151111562019238576201905f7f714da9ac1709853ea6642d4f1dadf6cce33e734c044ac1fcb86ac01b8484803260001b6200156e565b6201908d7f583fe345ab256860f3a06726d4d2f9b45d0e5cce9b08fa94b3c19b3a5c59605e60001b6200156e565b620190bb7f1eb67ac3e866a31202aec12199df53753b25259ffa00f180b99964551c1b1c6860001b6200156e565b600062019102620190de670de0b6b3a7640000876200b08190919063ffffffff16565b8d8581518110620190eb57fe5b6020026020010151620123e790919063ffffffff16565b9050620191327fb4ca5fe7294c359866d20266c2297b72eae9afa9fdfebe19371e86d0e788931d60001b6200156e565b620191607ff9b9a34e07298b720d52661febca7ea6916325c32d47675458366f9a05ae7e1460001b6200156e565b60006201918b828c86815181106201917457fe5b60200260200101516200b08190919063ffffffff16565b9050620191bb7f10c726dd024987dd0e8b7599197996127dde12f0427783572ea4219abe402c7a60001b6200156e565b620191e97ff10603c085b57ace28d047ed12b754df54acf5275af49ac8d8b7ad6b250a6c4060001b6200156e565b6201922e6201921e6201920e8b670de0b6b3a76400006200b08190919063ffffffff16565b83620123e790919063ffffffff16565b8362005e0b90919063ffffffff16565b92505050620192da565b620192667fb6847286290807157ce37bc186ae3d61054411caea5142e9863e911d13b169b860001b6200156e565b620192947f4e24aba2356739b5beb4d0447d621529bbf536789794c24decd3a359e044d64a60001b6200156e565b620192c27ff8c94014e20e856c80ee9280540459e35fb1cb197b32a1f26d6e140e965de27860001b6200156e565b888281518110620192cf57fe5b602002602001015190505b620193087f531914d97aa63061d92e4cba2138c3b240a2c1a07951af41b19efe42142d272860001b6200156e565b620193367f472284f47ef5b45afa9af68153f74741b032c33f1da581dc7958d4d200fbf04660001b6200156e565b6000620193898c84815181106201934957fe5b60200260200101516201937a848f87815181106201936357fe5b602002602001015162005e0b90919063ffffffff16565b6200987a90919063ffffffff16565b9050620193b97ffc7cb4854f52acc8009f8757d6ffd447e362fd65c3ddb798763a21910036934b60001b6200156e565b620193e77f2bb5602b23ba66716f7c583a85a28c6b4a4881c0fe1715f6fcfe8b97b8b49b9d60001b6200156e565b62019424620194148c8581518110620193fc57fe5b6020026020010151836201213590919063ffffffff16565b85620123e790919063ffffffff16565b93505050808060010191505062018f50565b50620194657f5d91626db5b5aa7766448d2bf6b5dc0bb3a14420e49639bb5131e955cfc2cd8c60001b6200156e565b620194937f9bce18290923289b3c28011a2708b28dc602670c29904d2cf4cb60e156a4e27a60001b6200156e565b670de0b6b3a764000081106201956957620194d17fbc833543fbdd90980ca386952133edf12267deb1d67df3bf7e1ca3cc4cf719de60001b6200156e565b620194ff7fd6ecf17d03a8040f7f61b0832018d7c4922b59a4229543bf7b21179abdd1e71860001b6200156e565b6201952d7f49e2696be44bfde05831b2adb0da1e4d9b6ce9578adcde649114fbc0074d313360001b6200156e565b6201955e6201954e670de0b6b3a7640000836200b08190919063ffffffff16565b87620123e790919063ffffffff16565b9350505050620195fb565b620195977f2ec8f9bf7eddb20641099b86d54ff732a320302f3609ba1adeecc661c931108c60001b6200156e565b620195c57f133cf310ef899bdb8aa6f665c1630320e583a0d9dd5b42c01e1473fa85d5b25960001b6200156e565b620195f37f1b867ec6e3bc638f865b37af6b9bb88c5bb8493c9834f04d5aa1028deb56331560001b6200156e565b600093505050505b95945050505050565b600080620196357fae9f5190ba7ad18972efa461b5ea8d1d758b6024e69961f253a80b25f63cd20b60001b62014f70565b620196637f59927d9ac7c0436e3908b26ea3b35b28c4fbdf508a5f7f2537fd4aeb0f65b9e660001b62014f70565b620196917f98d8309db3ac473396f8344734e2538070a7a3bdf9bfee6be61aed2d25e1b1c360001b62014f70565b82806020019051810190620196a791906201ab47565b9091508092508193505050915091565b6000620196e77f6fac706a228fae450f9159306cecd4fe016ad31bf6bb989fd661c0e219277dae60001b6200156e565b620197157ff5e74fdd515333a25294f33db503596ee6990ef641fd86988fe3ca801a9fba5360001b6200156e565b620197437f829af8daf051bd338981024b7f7b859dd9f2a2239af820332b32eff49dc5c74960001b6200156e565b60006201976e846201975f878762005e0b90919063ffffffff16565b6200b53190919063ffffffff16565b90506201979d7edd3574d4d7274bcdc8d43c50351aab8be60028e4c45104bf8866f6af6bb35360001b6200156e565b620197cb7fc61bf2fdf89f8fe659f2f78e7e0b092deee2f05cf39e7396e70bc0a1b5d6513160001b6200156e565b620197e46729a2241af62c000082111561013362006d18565b620198127fbd8a0a227a5f08df873d60a12b676b18e9b4b61f88fb2825eb3674c62e97e60560001b6200156e565b620198407f01f6f1a93efe384db0f2bf048115cd16b6677b4d4a0173537977921df592436d60001b6200156e565b6000620198736201986388670de0b6b3a76400006200b53190919063ffffffff16565b836201452890919063ffffffff16565b9050620198a37f8f7decd4bfce4f73568552ada9b1b98942ddbfe29beb13f8fbdc903fc3f8f0ce60001b6200156e565b620198d17f8b440342879d57e523b811023bf06ec4f634b76c53de6ba32f0313b8fa0ee1d760001b6200156e565b600062019904620198f4670de0b6b3a7640000846200b08190919063ffffffff16565b8a6200adc590919063ffffffff16565b9050620199347fcc1844e05103e114ac5c57b6e14b9353c4aa21e4abd2f19db836af419cf3f03a60001b6200156e565b620199627f9963752e17f51aa9eeb12e1c6924dad4c48eae4968f71083e8e028abd5b277db60001b6200156e565b60006201996f896200b47a565b90506201999f7f1340ce85322f03821e054a70d2e1df08c84c2e73ea28c428c6b83a450c74a7f860001b6200156e565b620199cd7feb7827cbdb8cabb927d4f6ae3af5355c54afa4506ed223027d9636684a828bae60001b6200156e565b6000620199e482846200adc590919063ffffffff16565b905062019a147f85b9c9f9350a3481715aa825d3528ad1dae98d5bd6c17dfb98ae5dff28b3b37b60001b6200156e565b62019a427fc6eaa357995924f772fb8e26e93c04c147623a7d0a337bc1b7c4da7626360c2660001b6200156e565b600062019a5982856200b08190919063ffffffff16565b905062019a897f5c99068c255c93c31435feffff0bf8f88ebb2e4d6c5f2340046c696b99c5207160001b6200156e565b62019ab77fe6f20880eb2c5c18a7de202eb7c56feec4595b696e72e91d3fd2382ba860b72560001b6200156e565b62019aea62019ada62019aca8a6200b47a565b846200b53190919063ffffffff16565b8262005e0b90919063ffffffff16565b965050505050505095945050505050565b600062019b2b7f0528027b0224ac369afe5dc3d386e744ef00e4a175378aa6e07d0b795784844360001b62010b24565b62019b597ff0772caa568a1b6f6fbb0288577f9b02bea52c5fc7116b480d8203d837be755d60001b62010b24565b62019b877fd9b30ab0e8f0d14775c4411fcdc3faf3cf1346685d7862ebe468d6111995737260001b62010b24565b62019b9d60008362019c3490919063ffffffff16565b62019bb3601f8562019ccf90919063ffffffff16565b62019bc960548762019d7390919063ffffffff16565b62019bdf606a8962019ccf90919063ffffffff16565b62019bf5609f8b62019d7390919063ffffffff16565b62019c0b60b58d62019ccf90919063ffffffff16565b62019c2160ea8f62019d7390919063ffffffff16565b1717171717179050979650505050505050565b600062019c647fcff1831475ac088e3703cff250bdebbca4964262fe3f4e980687b3d328dc1ba660001b6200c877565b62019c927f3f14a227cbec3dac650228b425f314cf152653fecd9ca039bd894c7c0802c4a060001b6200c877565b62019cc07f8d897471e10eae8a1a06412858d4b937be0ce7d2d8322b5d3604b416a1633d9a60001b6200c877565b8183901b60001b905092915050565b600062019cff7f52f0c914ad60ff657341390c9e2c88aacdf6924e9cdb8a573f4f3f79f895f56460001b6200c877565b62019d2d7f171091458f4fdb996d3776ceb684965d04571665b13d465d5c2010e460c2e49c60001b6200c877565b62019d5b7ffd0c1ad928e4af47e9629e2bf7e0149f3f0448e6e74bc16b162a4acff042fd4060001b6200c877565b81661fffffffffffff8416901b60001b905092915050565b600062019da37f932f7d26f7d6e9fbd90ae611013cae89b3b0ebe1b48b094a1f0f55ac4641093760001b6200c877565b62019dd17f3aff7ae6ad439b35fe11b7d8c804bd51bc51a527e9ce86bef13e127a15544a2e60001b6200c877565b62019dff7f9748d851b5dafb827ce26efff660d7fa8948226a6ad80655af0a0e59b2af267d60001b6200c877565b81623fffff8416901b60001b905092915050565b60405180606001604052806000600281111562019e2c57fe5b815260200160008152602001600081525090565b60405180604001604052806000600281111562019e5957fe5b8152602001600081525090565b60008135905062019e77816201b6bd565b92915050565b600082601f83011262019e8f57600080fd5b815162019ea662019ea0826201b3cf565b6201b3a1565b9150818183526020840193506020810190508385602084028201111562019ecc57600080fd5b60005b8381101562019f00578162019ee588826201a224565b84526020840193506020830192505060018101905062019ecf565b5050505092915050565b600082601f83011262019f1c57600080fd5b813562019f3362019f2d826201b3f8565b6201b3a1565b9150818183526020840193506020810190508385604084028201111562019f5957600080fd5b60005b8381101562019f8d578162019f7288826201a297565b84526020840193506040830192505060018101905062019f5c565b5050505092915050565b600082601f83011262019fa957600080fd5b813562019fc062019fba826201b421565b6201b3a1565b9150818183526020840193506020810190508385606084028201111562019fe657600080fd5b60005b838110156201a01a578162019fff88826201a2ea565b84526020840193506060830192505060018101905062019fe9565b5050505092915050565b600082601f8301126201a03657600080fd5b81356201a04d6201a047826201b44a565b6201b3a1565b915081818352602084019350602081019050838560208402820111156201a07357600080fd5b60005b838110156201a0a757816201a08c88826201a45d565b8452602084019350602083019250506001810190506201a076565b5050505092915050565b600082601f8301126201a0c357600080fd5b81516201a0da6201a0d4826201b44a565b6201b3a1565b915081818352602084019350602081019050838560208402820111156201a10057600080fd5b60005b838110156201a13457816201a11988826201a474565b8452602084019350602083019250506001810190506201a103565b5050505092915050565b6000813590506201a14f816201b6d7565b92915050565b6000815190506201a166816201b6d7565b92915050565b6000813590506201a17d816201b6f1565b92915050565b6000813590506201a194816201b70b565b92915050565b600082601f8301126201a1ac57600080fd5b81356201a1c36201a1bd826201b473565b6201b3a1565b915080825260208301602083018583830111156201a1e057600080fd5b6201a1ed8382846201b653565b50505092915050565b6000815190506201a207816201b725565b92915050565b6000813590506201a21e816201b73f565b92915050565b6000815190506201a235816201b73f565b92915050565b6000815190506201a24c816201b759565b92915050565b6000815190506201a263816201b76a565b92915050565b6000813590506201a27a816201b77b565b92915050565b6000813590506201a291816201b78c565b92915050565b6000604082840312156201a2aa57600080fd5b6201a2b660406201b3a1565b905060006201a2c8848285016201a280565b60008301525060206201a2de848285016201a45d565b60208301525092915050565b6000606082840312156201a2fd57600080fd5b6201a30960606201b3a1565b905060006201a31b848285016201a280565b60008301525060206201a331848285016201a45d565b60208301525060406201a347848285016201a45d565b60408301525092915050565b600061012082840312156201a36757600080fd5b6201a3746101206201b3a1565b905060006201a386848285016201a269565b60008301525060206201a39c848285016201a20d565b60208301525060406201a3b2848285016201a20d565b60408301525060606201a3c8848285016201a45d565b60608301525060806201a3de848285016201a16c565b60808301525060a06201a3f4848285016201a45d565b60a08301525060c06201a40a8482850162019e66565b60c08301525060e06201a4208482850162019e66565b60e08301525061010082013567ffffffffffffffff8111156201a44257600080fd5b6201a450848285016201a19a565b6101008301525092915050565b6000813590506201a46e816201b79d565b92915050565b6000815190506201a485816201b79d565b92915050565b6000813590506201a49c816201b7b7565b92915050565b6000602082840312156201a4b557600080fd5b60006201a4c58482850162019e66565b91505092915050565b600080604083850312156201a4e257600080fd5b60006201a4f28582860162019e66565b92505060206201a5058582860162019e66565b9150509250929050565b6000806000606084860312156201a52557600080fd5b60006201a5358682870162019e66565b93505060206201a5488682870162019e66565b92505060406201a55b868287016201a45d565b9150509250925092565b600080600080600080600060e0888a0312156201a58157600080fd5b60006201a5918a828b0162019e66565b97505060206201a5a48a828b0162019e66565b96505060406201a5b78a828b016201a45d565b95505060606201a5ca8a828b016201a45d565b94505060806201a5dd8a828b016201a48b565b93505060a06201a5f08a828b016201a16c565b92505060c06201a6038a828b016201a16c565b91505092959891949750929550565b600080604083850312156201a62657600080fd5b60006201a6368582860162019e66565b92505060206201a649858286016201a45d565b9150509250929050565b6000806000606084860312156201a66957600080fd5b600084015167ffffffffffffffff8111156201a68457600080fd5b6201a6928682870162019e7d565b935050602084015167ffffffffffffffff8111156201a6b057600080fd5b6201a6be868287016201a0b1565b92505060406201a6d1868287016201a474565b9150509250925092565b6000602082840312156201a6ee57600080fd5b600082013567ffffffffffffffff8111156201a70957600080fd5b6201a7178482850162019f0a565b91505092915050565b6000602082840312156201a73357600080fd5b600082013567ffffffffffffffff8111156201a74e57600080fd5b6201a75c8482850162019f97565b91505092915050565b6000602082840312156201a77857600080fd5b60006201a788848285016201a13e565b91505092915050565b6000602082840312156201a7a457600080fd5b60006201a7b4848285016201a155565b91505092915050565b6000602082840312156201a7d057600080fd5b60006201a7e0848285016201a16c565b91505092915050565b600080600080600080600060e0888a0312156201a80557600080fd5b60006201a8158a828b016201a16c565b97505060206201a8288a828b0162019e66565b96505060406201a83b8a828b0162019e66565b955050606088013567ffffffffffffffff8111156201a85957600080fd5b6201a8678a828b016201a024565b94505060806201a87a8a828b016201a45d565b93505060a06201a88d8a828b016201a45d565b92505060c088013567ffffffffffffffff8111156201a8ab57600080fd5b6201a8b98a828b016201a19a565b91505092959891949750929550565b6000602082840312156201a8db57600080fd5b60006201a8eb848285016201a183565b91505092915050565b6000602082840312156201a90757600080fd5b60006201a917848285016201a1f6565b91505092915050565b6000602082840312156201a93357600080fd5b60006201a943848285016201a23b565b91505092915050565b6000806000606084860312156201a96257600080fd5b60006201a972868287016201a23b565b935050602084015167ffffffffffffffff8111156201a99057600080fd5b6201a99e868287016201a0b1565b92505060406201a9b1868287016201a474565b9150509250925092565b600080604083850312156201a9cf57600080fd5b60006201a9df858286016201a23b565b92505060206201a9f2858286016201a474565b9150509250929050565b6000806000606084860312156201aa1257600080fd5b60006201aa22868287016201a23b565b93505060206201aa35868287016201a474565b92505060406201aa48868287016201a474565b9150509250925092565b6000602082840312156201aa6557600080fd5b60006201aa75848285016201a252565b91505092915050565b600080604083850312156201aa9257600080fd5b60006201aaa2858286016201a252565b925050602083015167ffffffffffffffff8111156201aac057600080fd5b6201aace858286016201a0b1565b9150509250929050565b6000806000606084860312156201aaee57600080fd5b60006201aafe868287016201a252565b935050602084015167ffffffffffffffff8111156201ab1c57600080fd5b6201ab2a868287016201a0b1565b92505060406201ab3d868287016201a474565b9150509250925092565b6000806000606084860312156201ab5d57600080fd5b60006201ab6d868287016201a252565b93505060206201ab80868287016201a474565b92505060406201ab93868287016201a474565b9150509250925092565b6000602082840312156201abb057600080fd5b60006201abc0848285016201a280565b91505092915050565b6000806000606084860312156201abdf57600080fd5b600084013567ffffffffffffffff8111156201abfa57600080fd5b6201ac08868287016201a353565b93505060206201ac1b868287016201a45d565b92505060406201ac2e868287016201a45d565b9150509250925092565b6000602082840312156201ac4b57600080fd5b60006201ac5b848285016201a45d565b91505092915050565b60006201ac7283836201ae20565b60208301905092915050565b60006201ac8c83836201aec5565b60208301905092915050565b6201aca3816201b544565b82525050565b60006201acb6826201b4c0565b6201acc281856201b4fb565b93506201accf836201b4a0565b8060005b838110156201ad065781516201acea88826201ac64565b97506201acf7836201b4e1565b9250506001810190506201acd3565b5085935050505092915050565b60006201ad20826201b4cb565b6201ad2c81856201b50c565b93506201ad39836201b4b0565b8060005b838110156201ad705781516201ad5488826201ac7e565b97506201ad61836201b4ee565b9250506001810190506201ad3d565b5085935050505092915050565b6201ad88816201b558565b82525050565b6201ad99816201b564565b82525050565b6201adb46201adae826201b564565b6201b698565b82525050565b6201adcf6201adc9826201b56e565b6201b6a2565b82525050565b60006201ade383856201b51d565b93506201adf28385846201b653565b82840190509392505050565b6201ae09816201b603565b82525050565b6201ae1a816201b62b565b82525050565b6201ae2b816201b5c2565b82525050565b6201ae3c816201b5c2565b82525050565b60006201ae4f826201b4d6565b6201ae5b81856201b528565b93506201ae6d8185602086016201b662565b6201ae78816201b6ac565b840191505092915050565b60006201ae926002836201b539565b91507f19010000000000000000000000000000000000000000000000000000000000006000830152600282019050919050565b6201aed0816201b5ec565b82525050565b6201aee1816201b5ec565b82525050565b6201aef2816201b5f6565b82525050565b60006201af0682856201ad9f565b6020820191506201af1882846201adba565b6004820191508190509392505050565b60006201af378284866201add5565b91508190509392505050565b60006201af50826201ae83565b91506201af5e82856201ad9f565b6020820191506201af7082846201ad9f565b6020820191508190509392505050565b60006020820190506201af9760008301846201ac98565b92915050565b600060208201905081810360008301526201afb981846201aca9565b905092915050565b600060208201905081810360008301526201afdd81846201ad13565b905092915050565b600060408201905081810360008301526201b00181856201ad13565b905081810360208301526201b01781846201ad13565b90509392505050565b60006020820190506201b03760008301846201ad7d565b92915050565b60006060820190506201b05460008301866201ad7d565b6201b06360208301856201aed6565b6201b07260408301846201aed6565b949350505050565b60006020820190506201b09160008301846201ad8e565b92915050565b60006060820190506201b0ae60008301866201ad8e565b6201b0bd60208301856201ac98565b6201b0cc60408301846201ac98565b949350505050565b600060c0820190506201b0eb60008301896201ad8e565b6201b0fa60208301886201ac98565b6201b10960408301876201ac98565b6201b11860608301866201aed6565b6201b12760808301856201aed6565b6201b13660a08301846201aed6565b979650505050505050565b600060a0820190506201b15860008301886201ad8e565b6201b16760208301876201ad8e565b6201b17660408301866201ad8e565b6201b18560608301856201aed6565b6201b19460808301846201ac98565b9695505050505050565b60006080820190506201b1b560008301876201ad8e565b6201b1c460208301866201aee7565b6201b1d360408301856201ad8e565b6201b1e260608301846201ad8e565b95945050505050565b60006020820190506201b20260008301846201adfe565b92915050565b60006020820190506201b21f60008301846201ae0f565b92915050565b600060e0820190506201b23c600083018a6201ae31565b6201b24b60208301896201ae31565b6201b25a60408301886201ae31565b6201b26960608301876201ae31565b6201b27860808301866201ae31565b6201b28760a08301856201ae31565b6201b29660c08301846201aed6565b98975050505050505050565b600060c0820190506201b2b960008301896201ae31565b6201b2c860208301886201ae31565b6201b2d760408301876201aed6565b6201b2e660608301866201aed6565b6201b2f560808301856201ad7d565b6201b30460a08301846201aed6565b979650505050505050565b600060208201905081810360008301526201b32b81846201ae42565b905092915050565b60006020820190506201b34a60008301846201aed6565b92915050565b60006040820190506201b36760008301856201aed6565b81810360208301526201b37b81846201ad13565b90509392505050565b60006020820190506201b39b60008301846201aee7565b92915050565b6000604051905081810181811067ffffffffffffffff821117156201b3c557600080fd5b8060405250919050565b600067ffffffffffffffff8211156201b3e757600080fd5b602082029050602081019050919050565b600067ffffffffffffffff8211156201b41057600080fd5b602082029050602081019050919050565b600067ffffffffffffffff8211156201b43957600080fd5b602082029050602081019050919050565b600067ffffffffffffffff8211156201b46257600080fd5b602082029050602081019050919050565b600067ffffffffffffffff8211156201b48b57600080fd5b601f19601f8301169050602081019050919050565b6000819050602082019050919050565b6000819050602082019050919050565b600081519050919050565b600081519050919050565b600081519050919050565b6000602082019050919050565b6000602082019050919050565b600082825260208201905092915050565b600082825260208201905092915050565b600081905092915050565b600082825260208201905092915050565b600081905092915050565b60006201b551826201b5cc565b9050919050565b60008115159050919050565b6000819050919050565b60007fffffffff0000000000000000000000000000000000000000000000000000000082169050919050565b60006201b5a7826201b544565b9050919050565b60006201b5bb826201b544565b9050919050565b6000819050919050565b600073ffffffffffffffffffffffffffffffffffffffff82169050919050565b6000819050919050565b600060ff82169050919050565b60006201b610826201b617565b9050919050565b60006201b624826201b5cc565b9050919050565b60006201b638826201b63f565b9050919050565b60006201b64c826201b5cc565b9050919050565b82818337600083830152505050565b60005b838110156201b6825780820151818401526020810190506201b665565b838111156201b692576000848401525b50505050565b6000819050919050565b6000819050919050565b6000601f19601f8301169050919050565b6201b6c8816201b544565b81146201b6d457600080fd5b50565b6201b6e2816201b558565b81146201b6ee57600080fd5b50565b6201b6fc816201b564565b81146201b70857600080fd5b50565b6201b716816201b56e565b81146201b72257600080fd5b50565b6201b730816201b59a565b81146201b73c57600080fd5b50565b6201b74a816201b5ae565b81146201b75657600080fd5b50565b600381106201b76757600080fd5b50565b600381106201b77857600080fd5b50565b600281106201b78957600080fd5b50565b600381106201b79a57600080fd5b50565b6201b7a8816201b5ec565b81146201b7b457600080fd5b50565b6201b7c2816201b5f6565b81146201b7ce57600080fd5b5056fea2646970667358221220cb4608cac3f593dfbf2d5cd324d1ed752f93d2a5ea7f86b02af33bea105768ca64736f6c63430007010033a2646970667358221220293cc8d681184e63af1b3e47a6a1600403efa15df30b05363b5871a6e28234b364736f6c63430007010033",
  "linkReferences": {},
  "deployedLinkReferences": {}
}