{
  "_format": "hh-sol-artifact-1",
  "contractName": "MockVault",
  "sourceName": "contracts/balancer-core-v2/test/MockVault.sol",
  "abi": [
    {
      "inputs": [
        {
          "internalType": "contract IAuthorizer",
          "name": "authorizer",
          "type": "address"
        }
      ],
      "stateMutability": "nonpayable",
      "type": "constructor"
    },
    {
      "anonymous": false,
      "inputs": [
        {
          "indexed": true,
          "internalType": "bytes32",
          "name": "poolId",
          "type": "bytes32"
        },
        {
          "indexed": true,
          "internalType": "address",
          "name": "liquidityProvider",
          "type": "address"
        },
        {
          "indexed": false,
          "internalType": "contract IERC20[]",
          "name": "tokens",
          "type": "address[]"
        },
        {
          "indexed": false,
          "internalType": "int256[]",
          "name": "deltas",
          "type": "int256[]"
        },
        {
          "indexed": false,
          "internalType": "uint256[]",
          "name": "protocolFees",
          "type": "uint256[]"
        }
      ],
      "name": "PoolBalanceChanged",
      "type": "event"
    },
    {
      "anonymous": false,
      "inputs": [
        {
          "indexed": true,
          "internalType": "bytes32",
          "name": "poolId",
          "type": "bytes32"
        },
        {
          "indexed": true,
          "internalType": "contract IERC20",
          "name": "tokenIn",
          "type": "address"
        },
        {
          "indexed": true,
          "internalType": "contract IERC20",
          "name": "tokenOut",
          "type": "address"
        },
        {
          "indexed": false,
          "internalType": "uint256",
          "name": "amount",
          "type": "uint256"
        }
      ],
      "name": "Swap",
      "type": "event"
    },
    {
      "inputs": [
        {
          "internalType": "bytes32",
          "name": "c__0x73871d2d",
          "type": "bytes32"
        }
      ],
      "name": "c_0x73871d2d",
      "outputs": [],
      "stateMutability": "pure",
      "type": "function"
    },
    {
      "inputs": [
        {
          "internalType": "address",
          "name": "poolAddress",
          "type": "address"
        },
        {
          "internalType": "bytes32",
          "name": "poolId",
          "type": "bytes32"
        },
        {
          "internalType": "address",
          "name": "recipient",
          "type": "address"
        },
        {
          "internalType": "uint256[]",
          "name": "currentBalances",
          "type": "uint256[]"
        },
        {
          "internalType": "uint256",
          "name": "lastChangeBlock",
          "type": "uint256"
        },
        {
          "internalType": "uint256",
          "name": "protocolFeePercentage",
          "type": "uint256"
        },
        {
          "internalType": "bytes",
          "name": "userData",
          "type": "bytes"
        }
      ],
      "name": "callExitPool",
      "outputs": [],
      "stateMutability": "nonpayable",
      "type": "function"
    },
    {
      "inputs": [
        {
          "internalType": "address",
          "name": "poolAddress",
          "type": "address"
        },
        {
          "internalType": "bytes32",
          "name": "poolId",
          "type": "bytes32"
        },
        {
          "internalType": "address",
          "name": "recipient",
          "type": "address"
        },
        {
          "internalType": "uint256[]",
          "name": "currentBalances",
          "type": "uint256[]"
        },
        {
          "internalType": "uint256",
          "name": "lastChangeBlock",
          "type": "uint256"
        },
        {
          "internalType": "uint256",
          "name": "protocolFeePercentage",
          "type": "uint256"
        },
        {
          "internalType": "bytes",
          "name": "userData",
          "type": "bytes"
        }
      ],
      "name": "callJoinPool",
      "outputs": [],
      "stateMutability": "nonpayable",
      "type": "function"
    },
    {
      "inputs": [
        {
          "internalType": "address",
          "name": "pool",
          "type": "address"
        },
        {
          "components": [
            {
              "internalType": "enum IVault.SwapKind",
              "name": "kind",
              "type": "uint8"
            },
            {
              "internalType": "contract IERC20",
              "name": "tokenIn",
              "type": "address"
            },
            {
              "internalType": "contract IERC20",
              "name": "tokenOut",
              "type": "address"
            },
            {
              "internalType": "uint256",
              "name": "amount",
              "type": "uint256"
            },
            {
              "internalType": "bytes32",
              "name": "poolId",
              "type": "bytes32"
            },
            {
              "internalType": "uint256",
              "name": "lastChangeBlock",
              "type": "uint256"
            },
            {
              "internalType": "address",
              "name": "from",
              "type": "address"
            },
            {
              "internalType": "address",
              "name": "to",
              "type": "address"
            },
            {
              "internalType": "bytes",
              "name": "userData",
              "type": "bytes"
            }
          ],
          "internalType": "struct IPoolSwapStructs.SwapRequest",
          "name": "request",
          "type": "tuple"
        },
        {
          "internalType": "uint256",
          "name": "balanceTokenIn",
          "type": "uint256"
        },
        {
          "internalType": "uint256",
          "name": "balanceTokenOut",
          "type": "uint256"
        }
      ],
      "name": "callMinimalPoolSwap",
      "outputs": [],
      "stateMutability": "nonpayable",
      "type": "function"
    },
    {
      "inputs": [],
      "name": "getAuthorizer",
      "outputs": [
        {
          "internalType": "contract IAuthorizer",
          "name": "",
          "type": "address"
        }
      ],
      "stateMutability": "view",
      "type": "function"
    },
    {
      "inputs": [
        {
          "internalType": "bytes32",
          "name": "poolId",
          "type": "bytes32"
        }
      ],
      "name": "getPoolTokens",
      "outputs": [
        {
          "internalType": "contract IERC20[]",
          "name": "tokens",
          "type": "address[]"
        },
        {
          "internalType": "uint256[]",
          "name": "balances",
          "type": "uint256[]"
        }
      ],
      "stateMutability": "view",
      "type": "function"
    },
    {
      "inputs": [
        {
          "internalType": "enum IVault.PoolSpecialization",
          "name": "",
          "type": "uint8"
        }
      ],
      "name": "registerPool",
      "outputs": [
        {
          "internalType": "bytes32",
          "name": "",
          "type": "bytes32"
        }
      ],
      "stateMutability": "view",
      "type": "function"
    },
    {
      "inputs": [
        {
          "internalType": "bytes32",
          "name": "poolId",
          "type": "bytes32"
        },
        {
          "internalType": "contract IERC20[]",
          "name": "tokens",
          "type": "address[]"
        },
        {
          "internalType": "address[]",
          "name": "",
          "type": "address[]"
        }
      ],
      "name": "registerTokens",
      "outputs": [],
      "stateMutability": "nonpayable",
      "type": "function"
    }
  ],
  "bytecode": "0x60806040523480156200001157600080fd5b506040516200273238038062002732833981810160405281019062000037919062000134565b6200006b7fb16f9cd30b5e1155d08e8fecbf5c3574efbb16c3e5a61820c4c997bbf5c5690a60001b6200011a60201b60201c565b6200009f7fafcc20a002b5c7a3f18e70eeb064e5d8cf13f92b4f1f6644a2fed66ba71fae9e60001b6200011a60201b60201c565b620000d37ff00c9f39c50272da026d0cce45a80ec0b38aaec3e4075eb7d16a07214705f3ee60001b6200011a60201b60201c565b806000806101000a81548173ffffffffffffffffffffffffffffffffffffffff021916908373ffffffffffffffffffffffffffffffffffffffff16021790555050620001c2565b50565b6000815190506200012e81620001a8565b92915050565b6000602082840312156200014757600080fd5b600062000157848285016200011d565b91505092915050565b60006200016d8262000188565b9050919050565b6000620001818262000160565b9050919050565b600073ffffffffffffffffffffffffffffffffffffffff82169050919050565b620001b38162000174565b8114620001bf57600080fd5b50565b61256080620001d26000396000f3fe608060405234801561001057600080fd5b50600436106100885760003560e01c8063aaabadc51161005b578063aaabadc514610111578063f76102db1461012f578063f94d46681461014b578063fc6156c51461017c57610088565b806309b2760f1461008d5780631cf8afb8146100bd57806366a9c7d2146100d957806377d69f09146100f5575b600080fd5b6100a760048036038101906100a29190611c81565b610198565b6040516100b49190612094565b60405180910390f35b6100d760048036038101906100d29190611a24565b6101cb565b005b6100f360048036038101906100ee9190611c02565b6107c1565b005b61010f600480360381019061010a9190611bd9565b6109a4565b005b6101196109a7565b604051610126919061212c565b60405180910390f35b61014960048036038101906101449190611af2565b610a53565b005b61016560048036038101906101609190611bd9565b610c3b565b60405161017392919061205d565b60405180910390f35b61019660048036038101906101919190611a24565b611044565b005b60006101c67f71e8eb4cc33214ecc0ccffc72f22fdc61d3fbd52cf852a30d71dd9729ee1662560001b6109a4565b919050565b6101f77f188e3ff48eaa2556e223eefc7b2141f30286be71097b5e1e1aee142b2479f5ef60001b6109a4565b6102237fa16eef31ee29b5b5a29742ef82dc8471d347ac9bb5c3d02da0a68a7057d0673f60001b6109a4565b61024f7f8190ad3725dbada62091f61eadcedbbee60a4cdbcab78796d8c1759153e9caaa60001b6109a4565b6060808873ffffffffffffffffffffffffffffffffffffffff1663d5c096c489338a8a8a8a8a6040518863ffffffff1660e01b815260040161029797969594939291906120af565b600060405180830381600087803b1580156102b157600080fd5b505af11580156102c5573d6000803e3d6000fd5b505050506040513d6000823e3d601f19601f820116820180604052508101906102ee9190611b6d565b9150915061031e7f532eec11ae887bffb6b3e928844a7af7819082d4552e4065a7078856a8c228b960001b6109a4565b61034a7f0353aa785e6a9a700d5e5983e271b779b8cb1e5427f3b61b9ef862b227ef150d60001b6109a4565b6000600160008a8152602001908152602001600020905061038d7fcb1e6b9fd64635674b4428fcef5a042b3b793c4d312e2d67f8c0ff9f16b9e41d60001b6109a4565b6103b97f06910e902bc46a97a7ca95611cda6c7c73eab16ec5362ecbf0e6bb7fadf3f36060001b6109a4565b60005b81600001805490508110156104cb576103f77f1ac04f224deb3f2a74fd4d5dbd250f6ebde6212263cc5863686b94bb792d2f8e60001b6109a4565b6104237f0e10c8dc64be649ff9d0dd9b041d30f155623978c2f287c1ccc91eda072199dc60001b6109a4565b83818151811061042f57fe5b602002602001015182600101600084600001848154811061044c57fe5b9060005260206000200160009054906101000a900473ffffffffffffffffffffffffffffffffffffffff1673ffffffffffffffffffffffffffffffffffffffff1673ffffffffffffffffffffffffffffffffffffffff1681526020019081526020016000206000828254019250508190555080806001019150506103bc565b506104f87f5763ca16c0a0eb635cdb457eff786daf45924cf27a196ac4d119c82cf1d802f260001b6109a4565b6105247f7ae98b251cc897f4dbfb4f13209146b3902cb7640379eb24c20c69c984f0cfaa60001b6109a4565b6060875167ffffffffffffffff8111801561053e57600080fd5b5060405190808252806020026020018201604052801561056d5781602001602082028036833780820191505090505b50905061059c7f1a689cefbd6012b1bd12bdb8f5b81d0ba4686494ef10775842b3865c27100d6f60001b6109a4565b6105c87f682bb8d5e807721f50a8b70b6286927beef68ca3eba37a09f395fe3a2a5f25df60001b6109a4565b6060845167ffffffffffffffff811180156105e257600080fd5b506040519080825280602002602001820160405280156106115781602001602082028036833780820191505090505b5090506106407fabc8b69e92a0d38228e45ea6c23e5b64aa66506d62c5e27b6e1e54c7e22c4f4060001b6109a4565b61066c7f99f7db1d454f7edd22062ca29b35e2399203b98f751be58653d3344d8ae4276d60001b6109a4565b60005b8551811015610707576106a47f325e1f1a328faea9a1541f75e3f0693d9b6e1b73cd9a6743e1ce47569e86d3d960001b6109a4565b6106d07f3d4bda1ca025c3ce448f7090d2d8a50cc0449db7d4c817511493c163d501886060001b6109a4565b8581815181106106dc57fe5b60200260200101518282815181106106f057fe5b60200260200101818152505080600101905061066f565b506107347f83222116472946e10dfbe876993395a0d48088cb05218e07226b9f9db1f6104a60001b6109a4565b6107607f249c715aecd1c751c10e4858cd0d9b1b4644d481799d8594b18f6e3a4d74575560001b6109a4565b3373ffffffffffffffffffffffffffffffffffffffff168b7fe5ce249087ce04f05a957192435400fd97868dba0e6a4b4c049abf8af80dae788484886040516107ab93929190612011565b60405180910390a3505050505050505050505050565b6107ed7fab7f04aeeff9ed30f6a79b3452cadf9f13d19c8724ab1ab00ae598a40f20f2cf60001b6109a4565b6108197f3056580e542362bd88179fe698f7abb3b21c2dfbc018e52bd470db94187e48cd60001b6109a4565b6108457fdf491cd17e0f3024b5f34e149711ce3d541b5961230879eab7f525eb16a849b960001b6109a4565b60006001600085815260200190815260200160002090506108887fb954c4be5af44b43b412b0e1280bf4dd72ba8e391da19a6623fbed8822fae9f960001b6109a4565b6108b47f251132e3410f0ee3c8782fc373aeeffad10a2e090860a8d56b9e6b4af4843fe460001b6109a4565b60005b835181101561099d576108ec7fd5dbd87f4119ca791f1bc8bff1c043f883046d08069ac0e6e9ab6cecadef56aa60001b6109a4565b6109187f74ccfe3de648d0f8320f6d47474210a87810f7e58c534f1d059403234999d3f660001b6109a4565b8160000184828151811061092857fe5b60200260200101519080600181540180825580915050600190039060005260206000200160009091909190916101000a81548173ffffffffffffffffffffffffffffffffffffffff021916908373ffffffffffffffffffffffffffffffffffffffff16021790555080806001019150506108b7565b5050505050565b50565b60006109d57f64a95bddbcf42f5e6b9405623c61334b17a2dc0f78b86c1b4ac74d9bb5c6f60160001b6109a4565b610a017f22a4139b0eb53f22970981e8250e9a318be2ebbaf82c2f324f16f4eba3a1ad7d60001b6109a4565b610a2d7fd871275e685b722e1613d62727ec01e4a2d1bb71ef2f9b285b5772c651c4a90560001b6109a4565b60008054906101000a900473ffffffffffffffffffffffffffffffffffffffff16905090565b610a7f7f5638af0545b683f1e37ad8b848fba973060ead7738a4912fc1e456a86e8adfe760001b6109a4565b610aab7fb6114abe7b7558a57ee93eaf3cf49b81abe3fe68ed836ddef3af918ae05573fb60001b6109a4565b610ad77f6f03e1c64e3b33b19a47070515fe31c5894b1916763b10dd920a47c6d024925260001b6109a4565b60008473ffffffffffffffffffffffffffffffffffffffff16639d2c110c8585856040518463ffffffff1660e01b8152600401610b1693929190612147565b602060405180830381600087803b158015610b3057600080fd5b505af1158015610b44573d6000803e3d6000fd5b505050506040513d601f19601f82011682018060405250810190610b689190611caa565b9050610b967f69a42639832a6906b3c10158a33cd44a70321fdd92a1473cdf6471d302725c2e60001b6109a4565b610bc27fd0844a6820b99f7b351233a9a309d5edcec306c6a0bbb06a914e0ab89c48f52460001b6109a4565b836040015173ffffffffffffffffffffffffffffffffffffffff16846020015173ffffffffffffffffffffffffffffffffffffffff1685608001517faf6c437771b0b661385e6b30c82a76e9067d1c318485cf0f0c47aeb35a9a1de384604051610c2c9190612185565b60405180910390a45050505050565b606080610c6a7ffdf61a5ac5498c1671e673ac971a76df4105692eb45f8f8efd72ccadb6bdac1e60001b6109a4565b610c967f954f71c57fa39a270b9b1886848cdf0daf5348cf1f83ede72bcaea72f537623a60001b6109a4565b610cc27fc646ea08ddd985228e58218c200afba7bc61c891303de55dc0c941fa5384cb1d60001b6109a4565b6000600160008581526020019081526020016000209050610d057f883525edc115426f6a5ed24a31759804306c1a930d07169b1c8ac43a69c4821a60001b6109a4565b610d317f8d9b77a2dd8850bba4a51da03a2c23f379854af468dd865bdc75ebadf7ed237660001b6109a4565b806000018054905067ffffffffffffffff81118015610d4f57600080fd5b50604051908082528060200260200182016040528015610d7e5781602001602082028036833780820191505090505b509250610dad7fafae5c00d52bb3c5992684bc9005401a583eaf81a449a8bd634ce454571c10c060001b6109a4565b610dd97f229c795be7dede606dabd2dc4cef9cc09e524dcc37cd35145720709495ca803760001b6109a4565b806000018054905067ffffffffffffffff81118015610df757600080fd5b50604051908082528060200260200182016040528015610e265781602001602082028036833780820191505090505b509150610e557fe5bcb812f0959753d10adc8db155d6e3a1b09d52c6168a5f3d6a65d17c391a4b60001b6109a4565b610e817fcf2de25927d337126d3524b5b8244a1525ceed0ebf4a8d8d6b2bdd4d6749949f60001b6109a4565b60005b816000018054905081101561103d57610ebf7f2c853523b4226d87b01737e2629aeaeb43ba38f336f9621a9f9a1c915542eb2960001b6109a4565b610eeb7f861c17080c48db53604c87a2869984a6ba3ccaba0a4422b7164a18fd2f778c4660001b6109a4565b816000018181548110610efa57fe5b9060005260206000200160009054906101000a900473ffffffffffffffffffffffffffffffffffffffff16848281518110610f3157fe5b602002602001019073ffffffffffffffffffffffffffffffffffffffff16908173ffffffffffffffffffffffffffffffffffffffff1681525050610f977fa627522523b1ffa3b4671f83b6921de2b3954d16316c0bfd0ed58f4f40f9ca8a60001b6109a4565b610fc37f23514aa907c2744570e3eb2b1f52768ba420eda56bda998365c45149e9058eb160001b6109a4565b816001016000858381518110610fd557fe5b602002602001015173ffffffffffffffffffffffffffffffffffffffff1673ffffffffffffffffffffffffffffffffffffffff1681526020019081526020016000205483828151811061102457fe5b6020026020010181815250508080600101915050610e84565b5050915091565b6110707f21d11b1784e21324fb0276cf6cd53a425f3fa61b8e81f6b61b4057abae85cff360001b6109a4565b61109c7fa6b9c5417b07c281fef38e8e1702523fdd60a391132155bc3f27cdfccb494f6660001b6109a4565b6110c87f91e0661844d5b5987e48e655a5935645e09f66a8c34b4b41ee108e70bd63265960001b6109a4565b6060808873ffffffffffffffffffffffffffffffffffffffff166374f3b00989338a8a8a8a8a6040518863ffffffff1660e01b815260040161111097969594939291906120af565b600060405180830381600087803b15801561112a57600080fd5b505af115801561113e573d6000803e3d6000fd5b505050506040513d6000823e3d601f19601f820116820180604052508101906111679190611b6d565b915091506111977fc1b8205c1e0a885ca2180eb2dcb13fb3e2fdbec9aad5739119fb555b4d0c61b060001b6109a4565b6111c37fc23aa5ece2d0ecaa3bfb14f3bee81878a50c885053406f8b78ad88c34a0706cd60001b6109a4565b6000600160008a815260200190815260200160002090506112067fae557761d2afe67154ff24159c3c214e8188c7a4d46e5f3038b635c64d91f56b60001b6109a4565b6112327fa4c62e7c9bdeb550bc73454a54fa03a6153310e9315ca0124df690b31ea4141a60001b6109a4565b60005b8160000180549050811015611344576112707f520c6538f6995cba2fc27b9775d3dbd9f9fc7728e5717c7e8142f318af3482ae60001b6109a4565b61129c7ff63c1bda04ca77498ebc077d6172c0fea6427bc7322e604f3f7fd0b2dac698ff60001b6109a4565b8381815181106112a857fe5b60200260200101518260010160008460000184815481106112c557fe5b9060005260206000200160009054906101000a900473ffffffffffffffffffffffffffffffffffffffff1673ffffffffffffffffffffffffffffffffffffffff1673ffffffffffffffffffffffffffffffffffffffff168152602001908152602001600020600082825403925050819055508080600101915050611235565b506113717f8ed7b21ec5cfbfe5db6929b8d11170dafef121305cd35f4f21e4a23953ff709660001b6109a4565b61139d7f809aad39c0dab8f3031289fd873b4c7eda63c2b727807ce18f80be7e7d543f3a60001b6109a4565b6060875167ffffffffffffffff811180156113b757600080fd5b506040519080825280602002602001820160405280156113e65781602001602082028036833780820191505090505b5090506114157fd3bba0e03453bba15abea2948feeb734d6865a9817e51b9eba73bfb6fef3b4b060001b6109a4565b6114417f887128463ff147e29955c2791b35bf294f1d4020acd67f6d89c0a152b8f0b35660001b6109a4565b6060845167ffffffffffffffff8111801561145b57600080fd5b5060405190808252806020026020018201604052801561148a5781602001602082028036833780820191505090505b5090506114b97f7ff60cb1693e849493a7ec702f27e2c3ce8268f105a1b68dacc057c377bb6d5f60001b6109a4565b6114e57f99423b95fb3b4c4d5b050227413315e48016c5a5398e27287a5380a47974e82060001b6109a4565b60005b85518110156115835761151d7f36f2ed252349e68ed4a881115db8ea2b1eca7b27db4c99b22965d8da92106c8760001b6109a4565b6115497f317912ac0acd89478e22ee752f01d6e0c1e8b5583e117d4b648abe264ca1599360001b6109a4565b85818151811061155557fe5b602002602001015160000382828151811061156c57fe5b6020026020010181815250508060010190506114e8565b506115b07f9d8c41ade8000ba8d5db0fe4c4a4489afa11fc7c7acf056aa8115f456c94809f60001b6109a4565b6115dc7fe19b4c8a5f7063d38c1b5565eb53709440ca0e08ee13ec8277f0d163f2c93c3860001b6109a4565b3373ffffffffffffffffffffffffffffffffffffffff168b7fe5ce249087ce04f05a957192435400fd97868dba0e6a4b4c049abf8af80dae7884848860405161162793929190612011565b60405180910390a3505050505050505050505050565b60008135905061164c816124ae565b92915050565b600082601f83011261166357600080fd5b8135611676611671826121cd565b6121a0565b9150818183526020840193506020810190508385602084028201111561169b57600080fd5b60005b838110156116cb57816116b1888261163d565b84526020840193506020830192505060018101905061169e565b5050505092915050565b600082601f8301126116e657600080fd5b81356116f96116f4826121f5565b6121a0565b9150818183526020840193506020810190508385602084028201111561171e57600080fd5b60005b8381101561174e578161173488826118c7565b845260208401935060208301925050600181019050611721565b5050505092915050565b600082601f83011261176957600080fd5b813561177c6117778261221d565b6121a0565b915081818352602084019350602081019050838560208402820111156117a157600080fd5b60005b838110156117d157816117b788826119fa565b8452602084019350602083019250506001810190506117a4565b5050505092915050565b600082601f8301126117ec57600080fd5b81516117ff6117fa8261221d565b6121a0565b9150818183526020840193506020810190508385602084028201111561182457600080fd5b60005b83811015611854578161183a8882611a0f565b845260208401935060208301925050600181019050611827565b5050505092915050565b60008135905061186d816124c5565b92915050565b600082601f83011261188457600080fd5b813561189761189282612245565b6121a0565b915080825260208301602083018583830111156118b357600080fd5b6118be83828461244e565b50505092915050565b6000813590506118d6816124dc565b92915050565b6000813590506118eb816124f3565b92915050565b60008135905061190081612503565b92915050565b6000610120828403121561191957600080fd5b6119246101206121a0565b90506000611934848285016118f1565b6000830152506020611948848285016118c7565b602083015250604061195c848285016118c7565b6040830152506060611970848285016119fa565b60608301525060806119848482850161185e565b60808301525060a0611998848285016119fa565b60a08301525060c06119ac8482850161163d565b60c08301525060e06119c08482850161163d565b60e08301525061010082013567ffffffffffffffff8111156119e157600080fd5b6119ed84828501611873565b6101008301525092915050565b600081359050611a0981612513565b92915050565b600081519050611a1e81612513565b92915050565b600080600080600080600060e0888a031215611a3f57600080fd5b6000611a4d8a828b0161163d565b9750506020611a5e8a828b0161185e565b9650506040611a6f8a828b0161163d565b955050606088013567ffffffffffffffff811115611a8c57600080fd5b611a988a828b01611758565b9450506080611aa98a828b016119fa565b93505060a0611aba8a828b016119fa565b92505060c088013567ffffffffffffffff811115611ad757600080fd5b611ae38a828b01611873565b91505092959891949750929550565b60008060008060808587031215611b0857600080fd5b6000611b168782880161163d565b945050602085013567ffffffffffffffff811115611b3357600080fd5b611b3f87828801611906565b9350506040611b50878288016119fa565b9250506060611b61878288016119fa565b91505092959194509250565b60008060408385031215611b8057600080fd5b600083015167ffffffffffffffff811115611b9a57600080fd5b611ba6858286016117db565b925050602083015167ffffffffffffffff811115611bc357600080fd5b611bcf858286016117db565b9150509250929050565b600060208284031215611beb57600080fd5b6000611bf98482850161185e565b91505092915050565b600080600060608486031215611c1757600080fd5b6000611c258682870161185e565b935050602084013567ffffffffffffffff811115611c4257600080fd5b611c4e868287016116d5565b925050604084013567ffffffffffffffff811115611c6b57600080fd5b611c7786828701611652565b9150509250925092565b600060208284031215611c9357600080fd5b6000611ca1848285016118dc565b91505092915050565b600060208284031215611cbc57600080fd5b6000611cca84828501611a0f565b91505092915050565b6000611cdf8383611f01565b60208301905092915050565b6000611cf78383611f1f565b60208301905092915050565b6000611d0f8383611ff3565b60208301905092915050565b611d24816123be565b82525050565b611d3381612349565b82525050565b611d4281612349565b82525050565b6000611d53826122a1565b611d5d81856122f4565b9350611d6883612271565b8060005b83811015611d99578151611d808882611cd3565b9750611d8b836122cd565b925050600181019050611d6c565b5085935050505092915050565b6000611db1826122ac565b611dbb8185612305565b9350611dc683612281565b8060005b83811015611df7578151611dde8882611ceb565b9750611de9836122da565b925050600181019050611dca565b5085935050505092915050565b6000611e0f826122b7565b611e198185612316565b9350611e2483612291565b8060005b83811015611e55578151611e3c8882611d03565b9750611e47836122e7565b925050600181019050611e28565b5085935050505092915050565b611e6b8161235b565b82525050565b611e7a8161235b565b82525050565b6000611e8b826122c2565b611e958185612327565b9350611ea581856020860161245d565b611eae81612490565b840191505092915050565b6000611ec4826122c2565b611ece8185612338565b9350611ede81856020860161245d565b611ee781612490565b840191505092915050565b611efb816123d0565b82525050565b611f0a816123f4565b82525050565b611f1981612418565b82525050565b611f288161238a565b82525050565b600061012083016000830151611f476000860182611f10565b506020830151611f5a6020860182611f01565b506040830151611f6d6040860182611f01565b506060830151611f806060860182611ff3565b506080830151611f936080860182611e62565b5060a0830151611fa660a0860182611ff3565b5060c0830151611fb960c0860182611d2a565b5060e0830151611fcc60e0860182611d2a565b50610100830151848203610100860152611fe68282611e80565b9150508091505092915050565b611ffc816123b4565b82525050565b61200b816123b4565b82525050565b6000606082019050818103600083015261202b8186611d48565b9050818103602083015261203f8185611da6565b905081810360408301526120538184611e04565b9050949350505050565b600060408201905081810360008301526120778185611d48565b9050818103602083015261208b8184611e04565b90509392505050565b60006020820190506120a96000830184611e71565b92915050565b600060e0820190506120c4600083018a611e71565b6120d16020830189611d1b565b6120de6040830188611d39565b81810360608301526120f08187611e04565b90506120ff6080830186612002565b61210c60a0830185612002565b81810360c083015261211e8184611eb9565b905098975050505050505050565b60006020820190506121416000830184611ef2565b92915050565b600060608201905081810360008301526121618186611f2e565b90506121706020830185612002565b61217d6040830184612002565b949350505050565b600060208201905061219a6000830184612002565b92915050565b6000604051905081810181811067ffffffffffffffff821117156121c357600080fd5b8060405250919050565b600067ffffffffffffffff8211156121e457600080fd5b602082029050602081019050919050565b600067ffffffffffffffff82111561220c57600080fd5b602082029050602081019050919050565b600067ffffffffffffffff82111561223457600080fd5b602082029050602081019050919050565b600067ffffffffffffffff82111561225c57600080fd5b601f19601f8301169050602081019050919050565b6000819050602082019050919050565b6000819050602082019050919050565b6000819050602082019050919050565b600081519050919050565b600081519050919050565b600081519050919050565b600081519050919050565b6000602082019050919050565b6000602082019050919050565b6000602082019050919050565b600082825260208201905092915050565b600082825260208201905092915050565b600082825260208201905092915050565b600082825260208201905092915050565b600082825260208201905092915050565b600061235482612394565b9050919050565b6000819050919050565b600061237082612349565b9050919050565b6000819050612385826124a1565b919050565b6000819050919050565b600073ffffffffffffffffffffffffffffffffffffffff82169050919050565b6000819050919050565b60006123c98261242a565b9050919050565b60006123db826123e2565b9050919050565b60006123ed82612394565b9050919050565b60006123ff82612406565b9050919050565b600061241182612394565b9050919050565b600061242382612377565b9050919050565b60006124358261243c565b9050919050565b600061244782612394565b9050919050565b82818337600083830152505050565b60005b8381101561247b578082015181840152602081019050612460565b8381111561248a576000848401525b50505050565b6000601f19601f8301169050919050565b600281106124ab57fe5b50565b6124b781612349565b81146124c257600080fd5b50565b6124ce8161235b565b81146124d957600080fd5b50565b6124e581612365565b81146124f057600080fd5b50565b6003811061250057600080fd5b50565b6002811061251057600080fd5b50565b61251c816123b4565b811461252757600080fd5b5056fea2646970667358221220ba9f1faf50089f9faaf3012e5b15595e6a892f4ccae505104f694dad3127c27864736f6c63430007010033",
  "linkReferences": {},
  "deployedLinkReferences": {}
}