{
  "_format": "hh-sol-artifact-1",
  "contractName": "MockVault",
  "sourceName": "contracts/balancer-core-v2/test/MockVault.sol",
  "abi": [
    {
      "inputs": [
        {
          "internalType": "contract IAuthorizer",
          "name": "authorizer",
          "type": "address"
        }
      ],
      "stateMutability": "nonpayable",
      "type": "constructor"
    },
    {
      "anonymous": false,
      "inputs": [
        {
          "indexed": true,
          "internalType": "bytes32",
          "name": "poolId",
          "type": "bytes32"
        },
        {
          "indexed": true,
          "internalType": "address",
          "name": "liquidityProvider",
          "type": "address"
        },
        {
          "indexed": false,
          "internalType": "contract IERC20[]",
          "name": "tokens",
          "type": "address[]"
        },
        {
          "indexed": false,
          "internalType": "int256[]",
          "name": "deltas",
          "type": "int256[]"
        },
        {
          "indexed": false,
          "internalType": "uint256[]",
          "name": "protocolFees",
          "type": "uint256[]"
        }
      ],
      "name": "PoolBalanceChanged",
      "type": "event"
    },
    {
      "anonymous": false,
      "inputs": [
        {
          "indexed": true,
          "internalType": "bytes32",
          "name": "poolId",
          "type": "bytes32"
        },
        {
          "indexed": true,
          "internalType": "contract IERC20",
          "name": "tokenIn",
          "type": "address"
        },
        {
          "indexed": true,
          "internalType": "contract IERC20",
          "name": "tokenOut",
          "type": "address"
        },
        {
          "indexed": false,
          "internalType": "uint256",
          "name": "amount",
          "type": "uint256"
        }
      ],
      "name": "Swap",
      "type": "event"
    },
    {
      "inputs": [
        {
          "internalType": "bytes32",
          "name": "c__0xfb0b3886",
          "type": "bytes32"
        }
      ],
      "name": "c_0xfb0b3886",
      "outputs": [],
      "stateMutability": "pure",
      "type": "function"
    },
    {
      "inputs": [
        {
          "internalType": "address",
          "name": "poolAddress",
          "type": "address"
        },
        {
          "internalType": "bytes32",
          "name": "poolId",
          "type": "bytes32"
        },
        {
          "internalType": "address",
          "name": "recipient",
          "type": "address"
        },
        {
          "internalType": "uint256[]",
          "name": "currentBalances",
          "type": "uint256[]"
        },
        {
          "internalType": "uint256",
          "name": "lastChangeBlock",
          "type": "uint256"
        },
        {
          "internalType": "uint256",
          "name": "protocolFeePercentage",
          "type": "uint256"
        },
        {
          "internalType": "bytes",
          "name": "userData",
          "type": "bytes"
        }
      ],
      "name": "callExitPool",
      "outputs": [],
      "stateMutability": "nonpayable",
      "type": "function"
    },
    {
      "inputs": [
        {
          "internalType": "address",
          "name": "poolAddress",
          "type": "address"
        },
        {
          "internalType": "bytes32",
          "name": "poolId",
          "type": "bytes32"
        },
        {
          "internalType": "address",
          "name": "recipient",
          "type": "address"
        },
        {
          "internalType": "uint256[]",
          "name": "currentBalances",
          "type": "uint256[]"
        },
        {
          "internalType": "uint256",
          "name": "lastChangeBlock",
          "type": "uint256"
        },
        {
          "internalType": "uint256",
          "name": "protocolFeePercentage",
          "type": "uint256"
        },
        {
          "internalType": "bytes",
          "name": "userData",
          "type": "bytes"
        }
      ],
      "name": "callJoinPool",
      "outputs": [],
      "stateMutability": "nonpayable",
      "type": "function"
    },
    {
      "inputs": [
        {
          "internalType": "address",
          "name": "pool",
          "type": "address"
        },
        {
          "components": [
            {
              "internalType": "enum IVault.SwapKind",
              "name": "kind",
              "type": "uint8"
            },
            {
              "internalType": "contract IERC20",
              "name": "tokenIn",
              "type": "address"
            },
            {
              "internalType": "contract IERC20",
              "name": "tokenOut",
              "type": "address"
            },
            {
              "internalType": "uint256",
              "name": "amount",
              "type": "uint256"
            },
            {
              "internalType": "bytes32",
              "name": "poolId",
              "type": "bytes32"
            },
            {
              "internalType": "uint256",
              "name": "lastChangeBlock",
              "type": "uint256"
            },
            {
              "internalType": "address",
              "name": "from",
              "type": "address"
            },
            {
              "internalType": "address",
              "name": "to",
              "type": "address"
            },
            {
              "internalType": "bytes",
              "name": "userData",
              "type": "bytes"
            }
          ],
          "internalType": "struct IPoolSwapStructs.SwapRequest",
          "name": "request",
          "type": "tuple"
        },
        {
          "internalType": "uint256",
          "name": "balanceTokenIn",
          "type": "uint256"
        },
        {
          "internalType": "uint256",
          "name": "balanceTokenOut",
          "type": "uint256"
        }
      ],
      "name": "callMinimalPoolSwap",
      "outputs": [],
      "stateMutability": "nonpayable",
      "type": "function"
    },
    {
      "inputs": [],
      "name": "getAuthorizer",
      "outputs": [
        {
          "internalType": "contract IAuthorizer",
          "name": "",
          "type": "address"
        }
      ],
      "stateMutability": "view",
      "type": "function"
    },
    {
      "inputs": [
        {
          "internalType": "bytes32",
          "name": "poolId",
          "type": "bytes32"
        }
      ],
      "name": "getPoolTokens",
      "outputs": [
        {
          "internalType": "contract IERC20[]",
          "name": "tokens",
          "type": "address[]"
        },
        {
          "internalType": "uint256[]",
          "name": "balances",
          "type": "uint256[]"
        }
      ],
      "stateMutability": "view",
      "type": "function"
    },
    {
      "inputs": [
        {
          "internalType": "enum IVault.PoolSpecialization",
          "name": "",
          "type": "uint8"
        }
      ],
      "name": "registerPool",
      "outputs": [
        {
          "internalType": "bytes32",
          "name": "",
          "type": "bytes32"
        }
      ],
      "stateMutability": "view",
      "type": "function"
    },
    {
      "inputs": [
        {
          "internalType": "bytes32",
          "name": "poolId",
          "type": "bytes32"
        },
        {
          "internalType": "contract IERC20[]",
          "name": "tokens",
          "type": "address[]"
        },
        {
          "internalType": "address[]",
          "name": "",
          "type": "address[]"
        }
      ],
      "name": "registerTokens",
      "outputs": [],
      "stateMutability": "nonpayable",
      "type": "function"
    }
  ],
  "bytecode": "0x60806040523480156200001157600080fd5b506040516200273238038062002732833981810160405281019062000037919062000134565b6200006b7f92d00c8c01a7571b8da36e3590c7d57a81000c143c21551fb28594c67d8dad3a60001b6200011a60201b60201c565b6200009f7fbd51b8bce9db677a328c8b8fbe1c25f459f9d669ad283e47740cc4f47eff16d560001b6200011a60201b60201c565b620000d37fb8da9070caf74b51c01107280fa99f3cdd20936f794629bde84b2445e55c342860001b6200011a60201b60201c565b806000806101000a81548173ffffffffffffffffffffffffffffffffffffffff021916908373ffffffffffffffffffffffffffffffffffffffff16021790555050620001c2565b50565b6000815190506200012e81620001a8565b92915050565b6000602082840312156200014757600080fd5b600062000157848285016200011d565b91505092915050565b60006200016d8262000188565b9050919050565b6000620001818262000160565b9050919050565b600073ffffffffffffffffffffffffffffffffffffffff82169050919050565b620001b38162000174565b8114620001bf57600080fd5b50565b61256080620001d26000396000f3fe608060405234801561001057600080fd5b50600436106100885760003560e01c8063dcfbc7171161005b578063dcfbc71714610113578063f76102db1461012f578063f94d46681461014b578063fc6156c51461017c57610088565b806309b2760f1461008d5780631cf8afb8146100bd57806366a9c7d2146100d9578063aaabadc5146100f5575b600080fd5b6100a760048036038101906100a29190611c81565b610198565b6040516100b49190612094565b60405180910390f35b6100d760048036038101906100d29190611a24565b6101cb565b005b6100f360048036038101906100ee9190611c02565b6107c1565b005b6100fd6109a4565b60405161010a919061212c565b60405180910390f35b61012d60048036038101906101289190611bd9565b610a50565b005b61014960048036038101906101449190611af2565b610a53565b005b61016560048036038101906101609190611bd9565b610c3b565b60405161017392919061205d565b60405180910390f35b61019660048036038101906101919190611a24565b611044565b005b60006101c67f152dc2428607c131ad845cce8a961854d18507888a496e70231234a69827680d60001b610a50565b919050565b6101f77fd6fb1cb47f6b911763c1904a8aa43621648b0b450b22b46850f5921e649e6f6760001b610a50565b6102237f5f2c4001081150af311e700a90c988cf7e682a4397b6f3f1dc1c147c8ea36cac60001b610a50565b61024f7f5d9525e910634b9fcd087ce1f9f1a57b79cfa81c9a341047eec199649f32395760001b610a50565b6060808873ffffffffffffffffffffffffffffffffffffffff1663d5c096c489338a8a8a8a8a6040518863ffffffff1660e01b815260040161029797969594939291906120af565b600060405180830381600087803b1580156102b157600080fd5b505af11580156102c5573d6000803e3d6000fd5b505050506040513d6000823e3d601f19601f820116820180604052508101906102ee9190611b6d565b9150915061031e7f11f72dc45625391afd68e46aba7f8d71f50f72ec6e8e7ebd6afedd1848ee7d3c60001b610a50565b61034a7feb51bd4eeecb8eaa122794658cce06185fe4f3e11130194fb6d091d77925d40e60001b610a50565b6000600160008a8152602001908152602001600020905061038d7fab7a83463980dc2ad5d1e23b795a6f67290fc4d88bcbdf137e97c2e823ba189e60001b610a50565b6103b97fa4cc1c17cfbe7eba816dc94f5df2cfadc9d95efce3dd1421c8c8e6091975fd0460001b610a50565b60005b81600001805490508110156104cb576103f77f86047d76c438931f2013b254afb00972549b0086d6439b98b0ba4fdb59fbdde260001b610a50565b6104237ffe4cf8a7354daf9b1a96cf7b85c1c296c1de0419678c2bb775dc89e82646376e60001b610a50565b83818151811061042f57fe5b602002602001015182600101600084600001848154811061044c57fe5b9060005260206000200160009054906101000a900473ffffffffffffffffffffffffffffffffffffffff1673ffffffffffffffffffffffffffffffffffffffff1673ffffffffffffffffffffffffffffffffffffffff1681526020019081526020016000206000828254019250508190555080806001019150506103bc565b506104f87f6e5ee8d90199f3ae31003808a626eccd8a9be4ccf91d5e501b7adea8f461473560001b610a50565b6105247f9894a827b4fd4c8f6d3370c17caf5e580ea2f23f060b4db20d7a0e11b8bae1c860001b610a50565b6060875167ffffffffffffffff8111801561053e57600080fd5b5060405190808252806020026020018201604052801561056d5781602001602082028036833780820191505090505b50905061059c7fc1e6ebe50f691474dda5904ac65fb0126b0f984511146b22d2ae413a55b45a5a60001b610a50565b6105c87fc02e75dc25743697d5e0572be6d44cdd693c1603946f6b257818dbbefefa6a5c60001b610a50565b6060845167ffffffffffffffff811180156105e257600080fd5b506040519080825280602002602001820160405280156106115781602001602082028036833780820191505090505b5090506106407f222ece3dc39174005ac15a1b04247376fa559422ea7a5f5856793a5ccad938d160001b610a50565b61066c7f69a06b0cde1c592ff18b6124e81c5d5484d7e6316bee0982a9b2fd19f662f7b560001b610a50565b60005b8551811015610707576106a47f1e96f74117eccb00be0a52676434bfaf0f3019f5ae2cc166f6dbd25e505b9ce560001b610a50565b6106d07f7a2c9cc26ab81f4b7677ddc7211a01ce73deaab4c89b6e412ba67ea9bccb6d4860001b610a50565b8581815181106106dc57fe5b60200260200101518282815181106106f057fe5b60200260200101818152505080600101905061066f565b506107347f20cff1c3e9cc6093acf2602d54fc98363b2428d635825cea2afbafcea6688b4f60001b610a50565b6107607fa75199ac85846019d06cd745242649169c42103a54dab706f60f7b47b44bd35a60001b610a50565b3373ffffffffffffffffffffffffffffffffffffffff168b7fe5ce249087ce04f05a957192435400fd97868dba0e6a4b4c049abf8af80dae788484886040516107ab93929190612011565b60405180910390a3505050505050505050505050565b6107ed7f5f3b6f10ce7691e6f72d1f45a7da66bc7f76364423d77eec505739bd46be789c60001b610a50565b6108197fdee4ee8bf954697a1aaefb9fed91eb18870d5f9ed8ee3035733dcc2ce57269bd60001b610a50565b6108457fed7eb35b65507d8084b45b5c1c553acce1a76082dd9c30321d541a541329470060001b610a50565b60006001600085815260200190815260200160002090506108887fd0c32c27e312d2b7cf56da5bc24586934cfd3e6369f36687d38e04341c4a4db260001b610a50565b6108b47fdffa03dffd8532a36e95f3e779582a68107f07206755ab986a467c17cc5f6f0d60001b610a50565b60005b835181101561099d576108ec7fe3aceab85f24ea6c7d185dc9bdedcd7f4162e4456fabeeaa6b2e9dca1b52464560001b610a50565b6109187feb293658ed22f0303f16d06756b0956445572a564aea84a7fe57a03c2daaefa360001b610a50565b8160000184828151811061092857fe5b60200260200101519080600181540180825580915050600190039060005260206000200160009091909190916101000a81548173ffffffffffffffffffffffffffffffffffffffff021916908373ffffffffffffffffffffffffffffffffffffffff16021790555080806001019150506108b7565b5050505050565b60006109d27f8bc96eac0fdd8ef3d526bbfdaecc6a162bb64a6df1b578e682373ce415d06ef960001b610a50565b6109fe7fba257745744322e4be683063fbcebb1037f413922e1a195ebc60e3c488c8763d60001b610a50565b610a2a7f6b503ae9c7127ef3af54fef2364e4831fe55e4947e274f82a56d820649a6f26d60001b610a50565b60008054906101000a900473ffffffffffffffffffffffffffffffffffffffff16905090565b50565b610a7f7f8cc1d3d4888d6a8df20e01e6f2e3511f89435ad8d261435fd9d7b648d72a477560001b610a50565b610aab7fb51ace0c5cf2b6b1620d08c64dd0fa09d51f6091488c1f544e3a22c0ffcf724f60001b610a50565b610ad77f13be108ce5d6eff4cf8df3f1fc1c0cf976072009b5366750870b5edd287b52e360001b610a50565b60008473ffffffffffffffffffffffffffffffffffffffff16639d2c110c8585856040518463ffffffff1660e01b8152600401610b1693929190612147565b602060405180830381600087803b158015610b3057600080fd5b505af1158015610b44573d6000803e3d6000fd5b505050506040513d601f19601f82011682018060405250810190610b689190611caa565b9050610b967fef7381eb3107166c5dc56df13875efa82d666120855664f1ab1431bcbd3e8d3e60001b610a50565b610bc27f49af6c5d4af4811495bdbdde8c5f905f7834819d14039919c4c0b33d6b120b7760001b610a50565b836040015173ffffffffffffffffffffffffffffffffffffffff16846020015173ffffffffffffffffffffffffffffffffffffffff1685608001517faf6c437771b0b661385e6b30c82a76e9067d1c318485cf0f0c47aeb35a9a1de384604051610c2c9190612185565b60405180910390a45050505050565b606080610c6a7fcaf87fb09582374271a7ea6760baba9dae7cf855c3cb5ec43182c7e24baba47060001b610a50565b610c967f38bf005a4ce956f2c2ede0af8ca8707b344df1fdd85606f82b30777361d45d5660001b610a50565b610cc27fde4dcd64438759f162699403bc519bc4af322c733193c4eeade8dfb7b9c8862760001b610a50565b6000600160008581526020019081526020016000209050610d057ff1a28924f618792fac4aab0c54dbfa3e274cdc560a65b148bf03b86a7ed9b57f60001b610a50565b610d317f812474d8d0d360c950d48d5c72b7566aee58fd6b7aabb32dfcbf6cbb531a6b3960001b610a50565b806000018054905067ffffffffffffffff81118015610d4f57600080fd5b50604051908082528060200260200182016040528015610d7e5781602001602082028036833780820191505090505b509250610dad7f7593bc7eb0dc35bfebd19b3cc80fdac985364abc15028547da73f6e1f1f5fe5460001b610a50565b610dd97fd6fe30a3b7a99cf8b5489da3501cb676b246c71ff53162baf37eb14bd7e49f2d60001b610a50565b806000018054905067ffffffffffffffff81118015610df757600080fd5b50604051908082528060200260200182016040528015610e265781602001602082028036833780820191505090505b509150610e557ff9547dcb1a3d37dd89890cf022568f7b7c90b6eb071bdd0f0569bbe1abc1249960001b610a50565b610e817f35d1eb129cb7105737afa8e96d26e0ff53a1ded6089cc1ef23b4db016887affb60001b610a50565b60005b816000018054905081101561103d57610ebf7fac54047d1e45e99670cd3be7feacba9bdbd18c40c08b7c6f09b67fc44335a5b560001b610a50565b610eeb7f9cbb3d47aec97831fe037f997ef18c6de102bd7a29689e3980847c922e41f7a360001b610a50565b816000018181548110610efa57fe5b9060005260206000200160009054906101000a900473ffffffffffffffffffffffffffffffffffffffff16848281518110610f3157fe5b602002602001019073ffffffffffffffffffffffffffffffffffffffff16908173ffffffffffffffffffffffffffffffffffffffff1681525050610f977f2ef8d7a2b3aaf60fed5bac7ed358cc6e280b0982a800293851a229d1403cf32360001b610a50565b610fc37fb6b6b218935b410d6a975b6d265bb4c5c0c4cb5c3e617ca910a43002b9a1d29f60001b610a50565b816001016000858381518110610fd557fe5b602002602001015173ffffffffffffffffffffffffffffffffffffffff1673ffffffffffffffffffffffffffffffffffffffff1681526020019081526020016000205483828151811061102457fe5b6020026020010181815250508080600101915050610e84565b5050915091565b6110707febd5c4f13affeec3584e051412975916757717a4ca3a7213ee7af7ae9b6d4a1360001b610a50565b61109c7ff8c1c0f059c9cb0563bd06db8db8905d27d7810f1797d7290f5152476caf6efb60001b610a50565b6110c87ffdc9d86f2a123d41af28fa7f3346684ee63c281e334447ab2e8dad9330f7605360001b610a50565b6060808873ffffffffffffffffffffffffffffffffffffffff166374f3b00989338a8a8a8a8a6040518863ffffffff1660e01b815260040161111097969594939291906120af565b600060405180830381600087803b15801561112a57600080fd5b505af115801561113e573d6000803e3d6000fd5b505050506040513d6000823e3d601f19601f820116820180604052508101906111679190611b6d565b915091506111977fe426a2f6324dcc461901694bf473d0dea215a6c8ecf5ee5dcd5f39bc1c2c896c60001b610a50565b6111c37f126f53be4a65b03d8242a9d6b4b45fffe246b0cfbeef19506a3bfb705c5ed9fb60001b610a50565b6000600160008a815260200190815260200160002090506112067f771216815b9eae4b1f6abb72258c65222936a766c6047f59329bea4a101ec9d660001b610a50565b6112327f6ca70c412babb355847c3d3e04908792a2feed750738866ba1e83448686c78ce60001b610a50565b60005b8160000180549050811015611344576112707f08674bf167ec7b6638d5b9d9d27c098e9c3f2416b12438348670eeaf7b49fa7b60001b610a50565b61129c7f81a66a02638d3b5cb9b9b307759140a2d9f6dd819e45e98a1c8a0b03a92e2fb260001b610a50565b8381815181106112a857fe5b60200260200101518260010160008460000184815481106112c557fe5b9060005260206000200160009054906101000a900473ffffffffffffffffffffffffffffffffffffffff1673ffffffffffffffffffffffffffffffffffffffff1673ffffffffffffffffffffffffffffffffffffffff168152602001908152602001600020600082825403925050819055508080600101915050611235565b506113717f69c5f6c8ecc3e1092b115a8f5b898fac192d65143ac086a849086232e5fa25f260001b610a50565b61139d7f59417be82a2c837436a398e7391021ef114ef0d660978ffad3ae21618adffc5d60001b610a50565b6060875167ffffffffffffffff811180156113b757600080fd5b506040519080825280602002602001820160405280156113e65781602001602082028036833780820191505090505b5090506114157fc3e9e98284b728410456979b9d5f2d03e25ed94d1877315cddc25d2b3aebb16760001b610a50565b6114417fa4a03abd71375176b5a37ccacc01be28e8bd30d49ab11c1e72670546772d15cd60001b610a50565b6060845167ffffffffffffffff8111801561145b57600080fd5b5060405190808252806020026020018201604052801561148a5781602001602082028036833780820191505090505b5090506114b97f6e30ca186a94b9b2a5a9e198fe9dabecafaa6e461d79e1f47f19f915d2c938e760001b610a50565b6114e57f818355736151114dba3ffbab821af19e270e9522773ba2e55b455be36ec16c1d60001b610a50565b60005b85518110156115835761151d7f7641e94c1200745b5244d525e7ba65ab13b97f46781ebcccf1c7aceb0b341ba860001b610a50565b6115497fcbc8f92c1f44bd20679939e7fe32f97b03fc941db1398040d76d459cac82237360001b610a50565b85818151811061155557fe5b602002602001015160000382828151811061156c57fe5b6020026020010181815250508060010190506114e8565b506115b07f02f3d6370cec4d422d2828804d1dc9a2d03f91d2db42b4008879c7a1b2873bce60001b610a50565b6115dc7fa2afc118737d05c2f1230c2e7e58014cf8193e524a4caf73df5a7ddbf439b18c60001b610a50565b3373ffffffffffffffffffffffffffffffffffffffff168b7fe5ce249087ce04f05a957192435400fd97868dba0e6a4b4c049abf8af80dae7884848860405161162793929190612011565b60405180910390a3505050505050505050505050565b60008135905061164c816124ae565b92915050565b600082601f83011261166357600080fd5b8135611676611671826121cd565b6121a0565b9150818183526020840193506020810190508385602084028201111561169b57600080fd5b60005b838110156116cb57816116b1888261163d565b84526020840193506020830192505060018101905061169e565b5050505092915050565b600082601f8301126116e657600080fd5b81356116f96116f4826121f5565b6121a0565b9150818183526020840193506020810190508385602084028201111561171e57600080fd5b60005b8381101561174e578161173488826118c7565b845260208401935060208301925050600181019050611721565b5050505092915050565b600082601f83011261176957600080fd5b813561177c6117778261221d565b6121a0565b915081818352602084019350602081019050838560208402820111156117a157600080fd5b60005b838110156117d157816117b788826119fa565b8452602084019350602083019250506001810190506117a4565b5050505092915050565b600082601f8301126117ec57600080fd5b81516117ff6117fa8261221d565b6121a0565b9150818183526020840193506020810190508385602084028201111561182457600080fd5b60005b83811015611854578161183a8882611a0f565b845260208401935060208301925050600181019050611827565b5050505092915050565b60008135905061186d816124c5565b92915050565b600082601f83011261188457600080fd5b813561189761189282612245565b6121a0565b915080825260208301602083018583830111156118b357600080fd5b6118be83828461244e565b50505092915050565b6000813590506118d6816124dc565b92915050565b6000813590506118eb816124f3565b92915050565b60008135905061190081612503565b92915050565b6000610120828403121561191957600080fd5b6119246101206121a0565b90506000611934848285016118f1565b6000830152506020611948848285016118c7565b602083015250604061195c848285016118c7565b6040830152506060611970848285016119fa565b60608301525060806119848482850161185e565b60808301525060a0611998848285016119fa565b60a08301525060c06119ac8482850161163d565b60c08301525060e06119c08482850161163d565b60e08301525061010082013567ffffffffffffffff8111156119e157600080fd5b6119ed84828501611873565b6101008301525092915050565b600081359050611a0981612513565b92915050565b600081519050611a1e81612513565b92915050565b600080600080600080600060e0888a031215611a3f57600080fd5b6000611a4d8a828b0161163d565b9750506020611a5e8a828b0161185e565b9650506040611a6f8a828b0161163d565b955050606088013567ffffffffffffffff811115611a8c57600080fd5b611a988a828b01611758565b9450506080611aa98a828b016119fa565b93505060a0611aba8a828b016119fa565b92505060c088013567ffffffffffffffff811115611ad757600080fd5b611ae38a828b01611873565b91505092959891949750929550565b60008060008060808587031215611b0857600080fd5b6000611b168782880161163d565b945050602085013567ffffffffffffffff811115611b3357600080fd5b611b3f87828801611906565b9350506040611b50878288016119fa565b9250506060611b61878288016119fa565b91505092959194509250565b60008060408385031215611b8057600080fd5b600083015167ffffffffffffffff811115611b9a57600080fd5b611ba6858286016117db565b925050602083015167ffffffffffffffff811115611bc357600080fd5b611bcf858286016117db565b9150509250929050565b600060208284031215611beb57600080fd5b6000611bf98482850161185e565b91505092915050565b600080600060608486031215611c1757600080fd5b6000611c258682870161185e565b935050602084013567ffffffffffffffff811115611c4257600080fd5b611c4e868287016116d5565b925050604084013567ffffffffffffffff811115611c6b57600080fd5b611c7786828701611652565b9150509250925092565b600060208284031215611c9357600080fd5b6000611ca1848285016118dc565b91505092915050565b600060208284031215611cbc57600080fd5b6000611cca84828501611a0f565b91505092915050565b6000611cdf8383611f01565b60208301905092915050565b6000611cf78383611f1f565b60208301905092915050565b6000611d0f8383611ff3565b60208301905092915050565b611d24816123be565b82525050565b611d3381612349565b82525050565b611d4281612349565b82525050565b6000611d53826122a1565b611d5d81856122f4565b9350611d6883612271565b8060005b83811015611d99578151611d808882611cd3565b9750611d8b836122cd565b925050600181019050611d6c565b5085935050505092915050565b6000611db1826122ac565b611dbb8185612305565b9350611dc683612281565b8060005b83811015611df7578151611dde8882611ceb565b9750611de9836122da565b925050600181019050611dca565b5085935050505092915050565b6000611e0f826122b7565b611e198185612316565b9350611e2483612291565b8060005b83811015611e55578151611e3c8882611d03565b9750611e47836122e7565b925050600181019050611e28565b5085935050505092915050565b611e6b8161235b565b82525050565b611e7a8161235b565b82525050565b6000611e8b826122c2565b611e958185612327565b9350611ea581856020860161245d565b611eae81612490565b840191505092915050565b6000611ec4826122c2565b611ece8185612338565b9350611ede81856020860161245d565b611ee781612490565b840191505092915050565b611efb816123d0565b82525050565b611f0a816123f4565b82525050565b611f1981612418565b82525050565b611f288161238a565b82525050565b600061012083016000830151611f476000860182611f10565b506020830151611f5a6020860182611f01565b506040830151611f6d6040860182611f01565b506060830151611f806060860182611ff3565b506080830151611f936080860182611e62565b5060a0830151611fa660a0860182611ff3565b5060c0830151611fb960c0860182611d2a565b5060e0830151611fcc60e0860182611d2a565b50610100830151848203610100860152611fe68282611e80565b9150508091505092915050565b611ffc816123b4565b82525050565b61200b816123b4565b82525050565b6000606082019050818103600083015261202b8186611d48565b9050818103602083015261203f8185611da6565b905081810360408301526120538184611e04565b9050949350505050565b600060408201905081810360008301526120778185611d48565b9050818103602083015261208b8184611e04565b90509392505050565b60006020820190506120a96000830184611e71565b92915050565b600060e0820190506120c4600083018a611e71565b6120d16020830189611d1b565b6120de6040830188611d39565b81810360608301526120f08187611e04565b90506120ff6080830186612002565b61210c60a0830185612002565b81810360c083015261211e8184611eb9565b905098975050505050505050565b60006020820190506121416000830184611ef2565b92915050565b600060608201905081810360008301526121618186611f2e565b90506121706020830185612002565b61217d6040830184612002565b949350505050565b600060208201905061219a6000830184612002565b92915050565b6000604051905081810181811067ffffffffffffffff821117156121c357600080fd5b8060405250919050565b600067ffffffffffffffff8211156121e457600080fd5b602082029050602081019050919050565b600067ffffffffffffffff82111561220c57600080fd5b602082029050602081019050919050565b600067ffffffffffffffff82111561223457600080fd5b602082029050602081019050919050565b600067ffffffffffffffff82111561225c57600080fd5b601f19601f8301169050602081019050919050565b6000819050602082019050919050565b6000819050602082019050919050565b6000819050602082019050919050565b600081519050919050565b600081519050919050565b600081519050919050565b600081519050919050565b6000602082019050919050565b6000602082019050919050565b6000602082019050919050565b600082825260208201905092915050565b600082825260208201905092915050565b600082825260208201905092915050565b600082825260208201905092915050565b600082825260208201905092915050565b600061235482612394565b9050919050565b6000819050919050565b600061237082612349565b9050919050565b6000819050612385826124a1565b919050565b6000819050919050565b600073ffffffffffffffffffffffffffffffffffffffff82169050919050565b6000819050919050565b60006123c98261242a565b9050919050565b60006123db826123e2565b9050919050565b60006123ed82612394565b9050919050565b60006123ff82612406565b9050919050565b600061241182612394565b9050919050565b600061242382612377565b9050919050565b60006124358261243c565b9050919050565b600061244782612394565b9050919050565b82818337600083830152505050565b60005b8381101561247b578082015181840152602081019050612460565b8381111561248a576000848401525b50505050565b6000601f19601f8301169050919050565b600281106124ab57fe5b50565b6124b781612349565b81146124c257600080fd5b50565b6124ce8161235b565b81146124d957600080fd5b50565b6124e581612365565b81146124f057600080fd5b50565b6003811061250057600080fd5b50565b6002811061251057600080fd5b50565b61251c816123b4565b811461252757600080fd5b5056fea2646970667358221220177f11222a99df58fed07b0ea8880866ca1497b8020b322e539569e805b9a8dd64736f6c63430007010033",
  "linkReferences": {},
  "deployedLinkReferences": {}
}