{
  "_format": "hh-sol-artifact-1",
  "contractName": "SafeCast",
  "sourceName": "contracts/balancer-core-v2/lib/openzeppelin/SafeCast.sol",
  "abi": [
    {
      "inputs": [
        {
          "internalType": "bytes32",
          "name": "c__0xa7aea7c8",
          "type": "bytes32"
        }
      ],
      "name": "c_0xa7aea7c8",
      "outputs": [],
      "stateMutability": "pure",
      "type": "function"
    }
  ],
  "bytecode": "0x609c610024600b82828239805160001a607314601757fe5b30600052607381538281f3fe730000000000000000000000000000000000000000301460806040526004361060335760003560e01c8063c0acc802146038575b600080fd5b606160048036036020811015604c57600080fd5b81019080803590602001909291905050506063565b005b5056fea26469706673582212205b6ed6d83bfc83d3d075e1c35444fc2d0fc427daa8a321c7f80c96ac50407e7764736f6c63430007010033",
  "linkReferences": {},
  "deployedLinkReferences": {}
}