{
  "_format": "hh-sol-artifact-1",
  "contractName": "SafeCast",
  "sourceName": "contracts/balancer-core-v2/lib/openzeppelin/SafeCast.sol",
  "abi": [
    {
      "inputs": [
        {
          "internalType": "bytes32",
          "name": "c__0x30f5b9e8",
          "type": "bytes32"
        }
      ],
      "name": "c_0x30f5b9e8",
      "outputs": [],
      "stateMutability": "pure",
      "type": "function"
    }
  ],
  "bytecode": "0x609c610024600b82828239805160001a607314601757fe5b30600052607381538281f3fe730000000000000000000000000000000000000000301460806040526004361060335760003560e01c806316242f1b146038575b600080fd5b606160048036036020811015604c57600080fd5b81019080803590602001909291905050506063565b005b5056fea2646970667358221220d348d191e8d041beeee9f3549e6c583c267eb2ab665b0dad61f2589876d4f29f64736f6c63430007010033",
  "linkReferences": {},
  "deployedLinkReferences": {}
}