{
  "_format": "hh-sol-artifact-1",
  "contractName": "MockBalancerPoolToken",
  "sourceName": "contracts/balancer-core-v2/test/MockBalancerPoolToken.sol",
  "abi": [
    {
      "inputs": [
        {
          "internalType": "string",
          "name": "name",
          "type": "string"
        },
        {
          "internalType": "string",
          "name": "symbol",
          "type": "string"
        }
      ],
      "stateMutability": "nonpayable",
      "type": "constructor"
    },
    {
      "anonymous": false,
      "inputs": [
        {
          "indexed": true,
          "internalType": "address",
          "name": "owner",
          "type": "address"
        },
        {
          "indexed": true,
          "internalType": "address",
          "name": "spender",
          "type": "address"
        },
        {
          "indexed": false,
          "internalType": "uint256",
          "name": "value",
          "type": "uint256"
        }
      ],
      "name": "Approval",
      "type": "event"
    },
    {
      "anonymous": false,
      "inputs": [
        {
          "indexed": true,
          "internalType": "address",
          "name": "from",
          "type": "address"
        },
        {
          "indexed": true,
          "internalType": "address",
          "name": "to",
          "type": "address"
        },
        {
          "indexed": false,
          "internalType": "uint256",
          "name": "value",
          "type": "uint256"
        }
      ],
      "name": "Transfer",
      "type": "event"
    },
    {
      "inputs": [],
      "name": "DOMAIN_SEPARATOR",
      "outputs": [
        {
          "internalType": "bytes32",
          "name": "",
          "type": "bytes32"
        }
      ],
      "stateMutability": "view",
      "type": "function"
    },
    {
      "inputs": [
        {
          "internalType": "address",
          "name": "owner",
          "type": "address"
        },
        {
          "internalType": "address",
          "name": "spender",
          "type": "address"
        }
      ],
      "name": "allowance",
      "outputs": [
        {
          "internalType": "uint256",
          "name": "",
          "type": "uint256"
        }
      ],
      "stateMutability": "view",
      "type": "function"
    },
    {
      "inputs": [
        {
          "internalType": "address",
          "name": "spender",
          "type": "address"
        },
        {
          "internalType": "uint256",
          "name": "amount",
          "type": "uint256"
        }
      ],
      "name": "approve",
      "outputs": [
        {
          "internalType": "bool",
          "name": "",
          "type": "bool"
        }
      ],
      "stateMutability": "nonpayable",
      "type": "function"
    },
    {
      "inputs": [
        {
          "internalType": "address",
          "name": "account",
          "type": "address"
        }
      ],
      "name": "balanceOf",
      "outputs": [
        {
          "internalType": "uint256",
          "name": "",
          "type": "uint256"
        }
      ],
      "stateMutability": "view",
      "type": "function"
    },
    {
      "inputs": [
        {
          "internalType": "address",
          "name": "sender",
          "type": "address"
        },
        {
          "internalType": "uint256",
          "name": "amount",
          "type": "uint256"
        }
      ],
      "name": "burn",
      "outputs": [],
      "stateMutability": "nonpayable",
      "type": "function"
    },
    {
      "inputs": [
        {
          "internalType": "bytes32",
          "name": "c__0x0d2a5d1b",
          "type": "bytes32"
        }
      ],
      "name": "c_0x0d2a5d1b",
      "outputs": [],
      "stateMutability": "pure",
      "type": "function"
    },
    {
      "inputs": [
        {
          "internalType": "bytes32",
          "name": "c__0x28684d28",
          "type": "bytes32"
        }
      ],
      "name": "c_0x28684d28",
      "outputs": [],
      "stateMutability": "pure",
      "type": "function"
    },
    {
      "inputs": [
        {
          "internalType": "bytes32",
          "name": "c__0xc3d2df53",
          "type": "bytes32"
        }
      ],
      "name": "c_0xc3d2df53",
      "outputs": [],
      "stateMutability": "pure",
      "type": "function"
    },
    {
      "inputs": [],
      "name": "decimals",
      "outputs": [
        {
          "internalType": "uint8",
          "name": "",
          "type": "uint8"
        }
      ],
      "stateMutability": "pure",
      "type": "function"
    },
    {
      "inputs": [
        {
          "internalType": "address",
          "name": "spender",
          "type": "address"
        },
        {
          "internalType": "uint256",
          "name": "amount",
          "type": "uint256"
        }
      ],
      "name": "decreaseApproval",
      "outputs": [
        {
          "internalType": "bool",
          "name": "",
          "type": "bool"
        }
      ],
      "stateMutability": "nonpayable",
      "type": "function"
    },
    {
      "inputs": [
        {
          "internalType": "address",
          "name": "spender",
          "type": "address"
        },
        {
          "internalType": "uint256",
          "name": "amount",
          "type": "uint256"
        }
      ],
      "name": "increaseApproval",
      "outputs": [
        {
          "internalType": "bool",
          "name": "",
          "type": "bool"
        }
      ],
      "stateMutability": "nonpayable",
      "type": "function"
    },
    {
      "inputs": [
        {
          "internalType": "address",
          "name": "recipient",
          "type": "address"
        },
        {
          "internalType": "uint256",
          "name": "amount",
          "type": "uint256"
        }
      ],
      "name": "mint",
      "outputs": [],
      "stateMutability": "nonpayable",
      "type": "function"
    },
    {
      "inputs": [],
      "name": "name",
      "outputs": [
        {
          "internalType": "string",
          "name": "",
          "type": "string"
        }
      ],
      "stateMutability": "view",
      "type": "function"
    },
    {
      "inputs": [
        {
          "internalType": "address",
          "name": "owner",
          "type": "address"
        }
      ],
      "name": "nonces",
      "outputs": [
        {
          "internalType": "uint256",
          "name": "",
          "type": "uint256"
        }
      ],
      "stateMutability": "view",
      "type": "function"
    },
    {
      "inputs": [
        {
          "internalType": "address",
          "name": "owner",
          "type": "address"
        },
        {
          "internalType": "address",
          "name": "spender",
          "type": "address"
        },
        {
          "internalType": "uint256",
          "name": "value",
          "type": "uint256"
        },
        {
          "internalType": "uint256",
          "name": "deadline",
          "type": "uint256"
        },
        {
          "internalType": "uint8",
          "name": "v",
          "type": "uint8"
        },
        {
          "internalType": "bytes32",
          "name": "r",
          "type": "bytes32"
        },
        {
          "internalType": "bytes32",
          "name": "s",
          "type": "bytes32"
        }
      ],
      "name": "permit",
      "outputs": [],
      "stateMutability": "nonpayable",
      "type": "function"
    },
    {
      "inputs": [],
      "name": "symbol",
      "outputs": [
        {
          "internalType": "string",
          "name": "",
          "type": "string"
        }
      ],
      "stateMutability": "view",
      "type": "function"
    },
    {
      "inputs": [],
      "name": "totalSupply",
      "outputs": [
        {
          "internalType": "uint256",
          "name": "",
          "type": "uint256"
        }
      ],
      "stateMutability": "view",
      "type": "function"
    },
    {
      "inputs": [
        {
          "internalType": "address",
          "name": "recipient",
          "type": "address"
        },
        {
          "internalType": "uint256",
          "name": "amount",
          "type": "uint256"
        }
      ],
      "name": "transfer",
      "outputs": [
        {
          "internalType": "bool",
          "name": "",
          "type": "bool"
        }
      ],
      "stateMutability": "nonpayable",
      "type": "function"
    },
    {
      "inputs": [
        {
          "internalType": "address",
          "name": "sender",
          "type": "address"
        },
        {
          "internalType": "address",
          "name": "recipient",
          "type": "address"
        },
        {
          "internalType": "uint256",
          "name": "amount",
          "type": "uint256"
        }
      ],
      "name": "transferFrom",
      "outputs": [
        {
          "internalType": "bool",
          "name": "",
          "type": "bool"
        }
      ],
      "stateMutability": "nonpayable",
      "type": "function"
    }
  ],
  "bytecode": "0x6101006040527f6e71edae12b1b97f4d1f60370fef10105fa2faae0126114a169c64845d6126c960e0908152503480156200003957600080fd5b506040516200366138038062003661833981810160405260408110156200005f57600080fd5b81019080805160405193929190846401000000008211156200008057600080fd5b838201915060208201858111156200009757600080fd5b8251866001820283011164010000000082111715620000b557600080fd5b8083526020830192505050908051906020019080838360005b83811015620000eb578082015181840152602081019050620000ce565b50505050905090810190601f168015620001195780820380516001836020036101000a031916815260200191505b50604052602001805160405193929190846401000000008211156200013d57600080fd5b838201915060208201858111156200015457600080fd5b82518660018202830111640100000000821117156200017257600080fd5b8083526020830192505050908051906020019080838360005b83811015620001a85780820151818401526020810190506200018b565b50505050905090810190601f168015620001d65780820380516001836020036101000a031916815260200191505b506040525050508181816040518060400160405280600181526020017f31000000000000000000000000000000000000000000000000000000000000008152506200024a7fee98174f2fec6f5039773d74e605ef9eca5c1cd66e97227a4db2801fa44649d460001b6200053e60201b60201c565b6200027e7f4259111439657f52cad82bf951b84cb17ad89c9a75c0a453b11471980df5b70460001b6200053e60201b60201c565b620002b27f694727719f1c716e137bf99300414ab3971da34628c5fdb5e3aefb346ab250cd60001b6200053e60201b60201c565b818051906020012060808181525050620002f57fc80ca99f8a52e2364dede2f196e5eea0d3e5cbb3d39b3c583eabdce5b2eba33860001b6200053e60201b60201c565b620003297fd79623f57f644f5deaf66895ac05cf4d0efe2db6dc309aa7731ca0cce6c6c42060001b6200053e60201b60201c565b808051906020012060a081815250506200036c7f3595ce0dcb0082ced7c03525364c4e77b55c5765b539ff680b322eb52d68007860001b6200053e60201b60201c565b620003a07fce462f00afa59e5231a71f65b788fd6e74c839c46485038b23c5240219a6728160001b6200053e60201b60201c565b7f8b73c3c69bb8fe3d512ecc4cf759cc79239f7b179b0ffacaa9a75d522b39400f60c081815250505050620003fe7f81b292b7c2f738fe1ef398ecf484c30fdcca7a1fa0fdcec6133e69f7d952feb760001b6200054160201b60201c565b620004327f0e8922ff6774c4bdde3a74a12158ca1888e60f5a3c45555ddd81e8785d5ee3f260001b6200054160201b60201c565b620004667f59e4bf632185b91833f20a14a0ad444be3eecf2ae84a218ca7bc6928a7ff258560001b6200054160201b60201c565b81600390805190602001906200047e92919062000547565b50620004b37f28e246c5f6155f806e0edae691917dbdb6f861567b1c6bf6fd24b0d5c4ca1b7d60001b6200054160201b60201c565b620004e77f6f23c232081ae254a1779744f064adfc759d8456694b907fe454eb09fecd7c3c60001b6200054160201b60201c565b8060049080519060200190620004ff92919062000547565b505050620005367f3f3056bcc50c39acfb4df9ecbfe8ae49f8c4ca9a98e9ecb1f95aa7e10707faca60001b6200054460201b60201c565b5050620005ed565b50565b50565b50565b828054600181600116156101000203166002900490600052602060002090601f016020900481019282601f106200058a57805160ff1916838001178555620005bb565b82800160010185558215620005bb579182015b82811115620005ba5782518255916020019190600101906200059d565b5b509050620005ca9190620005ce565b5090565b5b80821115620005e9576000816000905550600101620005cf565b5090565b60805160a05160c05160e05161303e62000623600039806118cb5250806125605250806125a2525080612581525061303e6000f3fe608060405234801561001057600080fd5b50600436106101515760003560e01c806366188463116100cd578063a9059cbb11610081578063d505accf11610066578063d505accf1461063f578063d73dd623146106d8578063dd62ed3e1461073c57610151565b8063a9059cbb146105ad578063c27f81691461061157610151565b80637ecebe00116100b25780637ecebe001461048457806395d89b41146104dc5780639dc29fac1461055f57610151565b806366188463146103c857806370a082311461042c57610151565b8063313ce567116101245780633644e515116101095780633644e5151461032e57806340c10f191461034c5780634182304e1461039a57610151565b8063313ce567146102df5780633551a9ca1461030057610151565b806306fdde0314610156578063095ea7b3146101d957806318160ddd1461023d57806323b872dd1461025b575b600080fd5b61015e6107b4565b6040518080602001828103825283818151815260200191508051906020019080838360005b8381101561019e578082015181840152602081019050610183565b50505050905090810190601f1680156101cb5780820380516001836020036101000a031916815260200191505b509250505060405180910390f35b610225600480360360408110156101ef57600080fd5b81019080803573ffffffffffffffffffffffffffffffffffffffff169060200190929190803590602001909291905050506108da565b60405180821515815260200191505060405180910390f35b6102456109cd565b6040518082815260200191505060405180910390f35b6102c76004803603606081101561027157600080fd5b81019080803573ffffffffffffffffffffffffffffffffffffffff169060200190929190803573ffffffffffffffffffffffffffffffffffffffff16906020019092919080359060200190929190505050610a5b565b60405180821515815260200191505060405180910390f35b6102e7610e42565b604051808260ff16815260200191505060405180910390f35b61032c6004803603602081101561031657600080fd5b8101908080359060200190929190505050610ecf565b005b610336610ed2565b6040518082815260200191505060405180910390f35b6103986004803603604081101561036257600080fd5b81019080803573ffffffffffffffffffffffffffffffffffffffff16906020019092919080359060200190929190505050610f65565b005b6103c6600480360360208110156103b057600080fd5b8101908080359060200190929190505050610ff7565b005b610414600480360360408110156103de57600080fd5b81019080803573ffffffffffffffffffffffffffffffffffffffff16906020019092919080359060200190929190505050610ffa565b60405180821515815260200191505060405180910390f35b61046e6004803603602081101561044257600080fd5b81019080803573ffffffffffffffffffffffffffffffffffffffff1690602001909291905050506112fa565b6040518082815260200191505060405180910390f35b6104c66004803603602081101561049a57600080fd5b81019080803573ffffffffffffffffffffffffffffffffffffffff1690602001909291905050506113c6565b6040518082815260200191505060405180910390f35b6104e4611493565b6040518080602001828103825283818151815260200191508051906020019080838360005b83811015610524578082015181840152602081019050610509565b50505050905090810190601f1680156105515780820380516001836020036101000a031916815260200191505b509250505060405180910390f35b6105ab6004803603604081101561057557600080fd5b81019080803573ffffffffffffffffffffffffffffffffffffffff169060200190929190803590602001909291905050506115b9565b005b6105f9600480360360408110156105c357600080fd5b81019080803573ffffffffffffffffffffffffffffffffffffffff1690602001909291908035906020019092919050505061164b565b60405180821515815260200191505060405180910390f35b61063d6004803603602081101561062757600080fd5b810190808035906020019092919050505061173e565b005b6106d6600480360360e081101561065557600080fd5b81019080803573ffffffffffffffffffffffffffffffffffffffff169060200190929190803573ffffffffffffffffffffffffffffffffffffffff1690602001909291908035906020019092919080359060200190929190803560ff1690602001909291908035906020019092919080359060200190929190505050611741565b005b610724600480360360408110156106ee57600080fd5b81019080803573ffffffffffffffffffffffffffffffffffffffff16906020019092919080359060200190929190505050611c65565b60405180821515815260200191505060405180910390f35b61079e6004803603604081101561075257600080fd5b81019080803573ffffffffffffffffffffffffffffffffffffffff169060200190929190803573ffffffffffffffffffffffffffffffffffffffff169060200190929190505050611de6565b6040518082815260200191505060405180910390f35b60606107e27f4db756c43151b39c292200c46bff24e176da61a0e871364526e45f6fbe81ac4a60001b610ecf565b61080e7fba290886c45607b59e3de5397eb7831641bfd35d7fa57c961e0adcd9d4b79c3a60001b610ecf565b61083a7f39a49d1e9173e1b109b0071d57f8abe5e31aa57049988a2f3d2e37520a49e1b660001b610ecf565b60038054600181600116156101000203166002900480601f0160208091040260200160405190810160405280929190818152602001828054600181600116156101000203166002900480156108d05780601f106108a5576101008083540402835291602001916108d0565b820191906000526020600020905b8154815290600101906020018083116108b357829003601f168201915b5050505050905090565b60006109087fb1ea157a74570fd3643c5310837ad126ac7e4706522558b5875e1918b59b542c60001b610ecf565b6109347f608d42f4361636bab0a221b92860e67ed6868f7c49f5d3d0971b0415b8bbc3fc60001b610ecf565b6109607f615b7abb3c5e0d42ad112c000b5db1bdca612c20fd9371e93aa915c0710d8e9b60001b610ecf565b61096b338484611ef1565b6109977f20ccb10feb578c145cd252783de60c35b7c4c0b57c889d3dfb397e2beb70414f60001b610ecf565b6109c37ffe03fbd27bd6a7be7f0b17c315f4e874faf110e898eb2d3c95f00f3f260542fb60001b610ecf565b6001905092915050565b60006109fb7f3591744e6a97f397579dfefe4467e742422291d5b48cf0b4b29d2a7bd707601a60001b610ecf565b610a277f648de981846633733b23f115d5f5a0c65d9ed63a0536ceba8eceb070f538606660001b610ecf565b610a537f26add7f2af4a43b72f0acd053918a6e311d5debc1abcc80dc521e650b43cf45d60001b610ecf565b600254905090565b6000610a897fcb1e83c5388babf0d45f0a159d24050185c8f019cd8c4b6f2c779d5c3c539f9f60001b610ecf565b610ab57f7fbd987c745bcd9baf3604ec32a88300f63bb21f3fceda9f3228dfaf2c3f2de460001b610ecf565b610ae17f0e8dacc52dc9d5685cb26ebdcfd55134cecbe613d8a4b690e0e969ccd4b0481060001b610ecf565b6000600160008673ffffffffffffffffffffffffffffffffffffffff1673ffffffffffffffffffffffffffffffffffffffff16815260200190815260200160002060003373ffffffffffffffffffffffffffffffffffffffff1673ffffffffffffffffffffffffffffffffffffffff168152602001908152602001600020549050610b8e7f54e7f369fb0047d67cc293276bb189bd606f854e46cdcecc1bd076aa91dd06f260001b610ecf565b610bba7f39190ba861c8e6e479265c5a4e8684bc43ebc26b72efdbf60c93695625d7e74560001b610ecf565b610bff8573ffffffffffffffffffffffffffffffffffffffff163373ffffffffffffffffffffffffffffffffffffffff161480610bf75750838210155b6101976120b8565b610c2b7fd869e7d03a7d2b949d65095bdcf9138ca8c21024df18a7d1e9848fe6c7abba5a60001b610ecf565b610c577f537959050150c59e30f3e96d0efe52657216286d3e9b350077d0afcaadc7422060001b610ecf565b610c628585856120cb565b610c8e7f926c18b0f53a5e82fd975daa6afee3b86a70d7c71a10a76f3fcca650aec50a6d60001b610ecf565b610cba7f607a349b557172ec6566d29aba0b5e434c65703e9f4543212ae2ade2556ad69860001b610ecf565b8473ffffffffffffffffffffffffffffffffffffffff163373ffffffffffffffffffffffffffffffffffffffff1614158015610d1657507fffffffffffffffffffffffffffffffffffffffffffffffffffffffffffffffff8114155b15610db157610d477fcd4b7cb6209714f6b6668452e416a09740061e5232695dab3c8d58eb9929230660001b610ecf565b610d737f1b58eb05783678703afafd8c2da7777514b88bb4bf1d0b1b33d2285ae42bb85060001b610ecf565b610d9f7ff0312650c8425ab9e2314712cd6a85893e6ba127ec99153319693e6c04b162ab60001b610ecf565b610dac8533858403611ef1565b610dde565b610ddd7f8b9f87cb614a13839badb66ba449c6131eecbd8f2c92f3b916fa3d82b04f554e60001b610ecf565b5b610e0a7f5f2cde0b0885842c82f8b00a0286a72ef2985aa970c5d934ec072153cff1e5f660001b610ecf565b610e367f32779093f7455faaa3eb624998ad4d7d1a80d4f32a251c7815d94777d377f58860001b610ecf565b60019150509392505050565b6000610e707f9cad670adda916501fa2719d90e5fe0ece4449dd6036d4d49187cdb9b9a67db160001b610ecf565b610e9c7f0a01c55b2a3b47c5dc0b58fa28bb70316ee084eca589b5465dc8477c8fb2969860001b610ecf565b610ec87f1f2aa8b01dcb4274968895299d05e53753fd6115a911b22e4f5988ab9e33c50760001b610ecf565b6012905090565b50565b6000610f007f9a9bf2e5977de3697a9ec96b58940c396178f0ae9e5e6dad3c34cc15875ad43660001b610ecf565b610f2c7fb822da9206ad66a6612383dffe32883ba061b6accb06aaba55b9dd2dee84833160001b610ecf565b610f587f7b9abb37e5294ffd6b06ddbc84feec6d9746d7f59ed43e20820b54f98f0eb04b60001b610ecf565b610f606124d8565b905090565b610f917fcc7a6724781f717e93bc974c69326707adad44af7a2b538ecd409492c9e8e4b860001b610ff7565b610fbd7f5cf5348e5f34b67d1575c61bef25c33c5b9f552ecc5cb4f6aefc8658f1bc8a7060001b610ff7565b610fe97fa37e16ae941f5222ebcd828174b23cff18aea8576e4cf470054ae0c4bcedd82e60001b610ff7565b610ff38282612627565b5050565b50565b60006110287f2bc4f6cbbe1e6cc58886fc607e4f9d603ff60ef5478e3676303f678e6caf2f5460001b610ecf565b6110547f731cc74fab18c25d19816bf4d2298b45d95bea660e12eca338e76e4e0250157360001b610ecf565b6110807f776354c1f8a649dba23ac29d302391f8ec705f38cfbf61eaa9e10ed0e086a0a860001b610ecf565b6000600160003373ffffffffffffffffffffffffffffffffffffffff1673ffffffffffffffffffffffffffffffffffffffff16815260200190815260200160002060008573ffffffffffffffffffffffffffffffffffffffff1673ffffffffffffffffffffffffffffffffffffffff16815260200190815260200160002054905061112d7fc1cb3a4403e7fb7d25c7977c1b9d6b562b5d4490a6afb2cbe3d4bf6b13a86ca260001b610ecf565b6111597f276b3d970bf6b8f83f2563a9b429975c187e8bca73b96e4e35e83f44d79ef87f60001b610ecf565b8083106111f55761118c7f9ee10143f1a57ce9379cd06d83af7f4260b35b7d68688e2571614528b3bf0a9160001b610ecf565b6111b87f4c189fac295f2d343d8fe6b386541ecd7212a459348bb5e026f841253ee688bf60001b610ecf565b6111e47fd9f90d4c7c24b7b34ff27df9029e6f5cef30bcafff8b7429ab20759576816c4660001b610ecf565b6111f033856000611ef1565b611297565b6112217ff51c22ae637e8f9f1dd7422715ecb2d1c32c86659f8e28f3ce381baba105ffb360001b610ecf565b61124d7fdfb3948fd26f2536e1f0ebee33c8374cec9a7353452842dcc19e635455c7421e60001b610ecf565b6112797f14683ac6bc698dfe12cbc9135dfdd3e104e730ce7ecf472553c6c26797bed32960001b610ecf565b6112963385611291868561287390919063ffffffff16565b611ef1565b5b6112c37fb78ae2a8b9b381c79c5e2cd9879e837dbe889adabced450427438aeef5d5ccff60001b610ecf565b6112ef7f03f32f21093b2a8199a310db220ff53f6a540c482b9448ef79e79e613ef3317260001b610ecf565b600191505092915050565b60006113287faac41115ae1d356952505586f40766eb3ebf03c42c0cbb0132cda2a3447a273260001b610ecf565b6113547fe30a51ecf846439267419cc37bfa8423dbb262e0b9c8c725cb29feab7f95316a60001b610ecf565b6113807fe8168e88c7789dc9fd9a2320bba851c6f3abda3fa6015b28f28ed3a2ae63756160001b610ecf565b6000808373ffffffffffffffffffffffffffffffffffffffff1673ffffffffffffffffffffffffffffffffffffffff168152602001908152602001600020549050919050565b60006113f47fce709f4cad1692c2eec712c74409eb1a9a8e4be929c69436a23021ba15e6f85260001b610ecf565b6114207ff614fa7db7c2a2a19167f3be1070e88fd9f20d559a2986abe9ec49ed496f6c9860001b610ecf565b61144c7f4d99137f0c6e388b0468c0640c9931cfa067557163b83ee1e6370736699482cf60001b610ecf565b600560008373ffffffffffffffffffffffffffffffffffffffff1673ffffffffffffffffffffffffffffffffffffffff168152602001908152602001600020549050919050565b60606114c17f17b355ef40058aeaf7c26c8927690560a2c4c4216dde24b71a7a9f03aec604b560001b610ecf565b6114ed7ff815f3842a98c6f9cec0f04aa4934f6dea0f5de2e999217d58185d4eb88d98df60001b610ecf565b6115197ffa543718d62142def29bed5b85057d1941cea6f37ff96e276959eecd780b7e9560001b610ecf565b60048054600181600116156101000203166002900480601f0160208091040260200160405190810160405280929190818152602001828054600181600116156101000203166002900480156115af5780601f10611584576101008083540402835291602001916115af565b820191906000526020600020905b81548152906001019060200180831161159257829003601f168201915b5050505050905090565b6115e57f8423074c3eab1d55a6171d6bd52c7755565bb7dfd0dfd03fc4acdb012679e6e560001b610ff7565b6116117f9eb2a2c31c5fea4f64260d3889732a26f1840978e569c683ccfd802c6351ae2260001b610ff7565b61163d7fb0f3714f1ec8e656a1812c12d9e95b15ac5add253d00a27db9df0a4dbc211d6060001b610ff7565b61164782826129c8565b5050565b60006116797fc7d5cde1c91db565920f97654ccc517109b3f3285bdac7cfb18268f263704dbd60001b610ecf565b6116a57f9487286039ccd1cce5e53f904e199d78750bbd4bbfd7c62c9c1d60ecaf56e50b60001b610ecf565b6116d17f1f1ea87194eeb14be5cc6cba45ae9e9337ea06004a9c7af017b41caf703e4b4360001b610ecf565b6116dc3384846120cb565b6117087fc6ffcb393b983e991aaf4197cfc7014a15c25f6cf5ac9eeab80c7f1a3f11647360001b610ecf565b6117347f49c2eaedb9cca58be5fe2e3d6e47577701e46c37362340dbea73aed6cba3b22a60001b610ecf565b6001905092915050565b50565b61176d7f9e6607f156be20e58f9a51f80fa5672f26c76d76f8af4db1fe3973a095ea94e960001b610ecf565b6117997fc4824ce5996dc5918169681705c4a696b3534a22d9100fc5f9e282d8a34f158460001b610ecf565b6117c57f49a8c7b9f73719cf4f0c88621e37eea02abf69414627563f36cd1d4b26c8a52760001b610ecf565b6117d38442111560d16120b8565b6117ff7f2117cacd3625bf5ef48d271399307c9501a99abf036d7b44555a48475d88f75360001b610ecf565b61182b7ffd1800c5ea3000172f950dc7ca86794cb57a8d9e1152dc03e54c440b047af19360001b610ecf565b6000600560008973ffffffffffffffffffffffffffffffffffffffff1673ffffffffffffffffffffffffffffffffffffffff16815260200190815260200160002054905061189b7fb809fce7c03d50db8ba1876a6f0380405e0b21614d172f3be817d9be546915f960001b610ecf565b6118c77f9277eef8ca40423550c8c6bb460b8550107822f0b23ee133dcbca26324e0d90560001b610ecf565b60007f0000000000000000000000000000000000000000000000000000000000000000898989858a604051602001808781526020018673ffffffffffffffffffffffffffffffffffffffff1681526020018573ffffffffffffffffffffffffffffffffffffffff16815260200184815260200183815260200182815260200196505050505050506040516020818303038152906040528051906020012090506119927f4e4390c189cd9fec2fee917915f9494120c5dc3361bcb5aead6a222bccfd680560001b610ecf565b6119be7f07e585d122fbf6cbba88960e9b3d57fd2e7c358ec9af4aa1b57f55970c58d6fd60001b610ecf565b60006119c982612cc9565b90506119f77f02e2870a44c833d8837321eb156a098c29a316bce1a5e9c84409f4d637d190c960001b610ecf565b611a237fa1d9efdfa0d73e58b2e475b03371ad10ebe2495772ffabbb2bd36d0c767bea7560001b610ecf565b600060018288888860405160008152602001604052604051808581526020018460ff1681526020018381526020018281526020019450505050506020604051602081039080840390855afa158015611a7f573d6000803e3d6000fd5b505050602060405103519050611ab77fc20defd178dd15aee2be9d753b81a319562bb6bb663a2727d08d87bb245cdb7b60001b610ecf565b611ae37f4d999149c4869297fda2c264f84945c98b57f7a86df38adee937d261730f218060001b610ecf565b611b56600073ffffffffffffffffffffffffffffffffffffffff168273ffffffffffffffffffffffffffffffffffffffff1614158015611b4e57508b73ffffffffffffffffffffffffffffffffffffffff168273ffffffffffffffffffffffffffffffffffffffff16145b6101f86120b8565b611b827fc1e08c5b0d718dd589e2de137bab624c5ca598b711afec95b39a18eac5af824c60001b610ecf565b611bae7fefcb7d9f6c2a50231d6be8ec6f6eef473a9e99619024f2ea72c80891e7035ba360001b610ecf565b60018401600560008d73ffffffffffffffffffffffffffffffffffffffff1673ffffffffffffffffffffffffffffffffffffffff16815260200190815260200160002081905550611c217f613526f5215af821f01f2ef24bdfa4b220464d95752abcb6308aae877a840c8c60001b610ecf565b611c4d7f1a993035dbefbc3de9835550d2d1a2623c8d261935be347d3660c424aa84d94c60001b610ecf565b611c588b8b8b611ef1565b5050505050505050505050565b6000611c937fdfd46a7509d626a3b832453e51ead13b14a60898a4452949dec643c78cdd0ca460001b610ecf565b611cbf7fc2917056fa7523817e3b0b1ed74772a82b6e742dde96e1c3ba70b1b5af084ab460001b610ecf565b611ceb7fb3366275d8155de45f094a54cef582c1d4662f8ad3bdba62e7e1746c561ba49460001b610ecf565b611d843384611d7f85600160003373ffffffffffffffffffffffffffffffffffffffff1673ffffffffffffffffffffffffffffffffffffffff16815260200190815260200160002060008973ffffffffffffffffffffffffffffffffffffffff1673ffffffffffffffffffffffffffffffffffffffff16815260200190815260200160002054612db490919063ffffffff16565b611ef1565b611db07fa9997bd0eaa435bb070e218e7facfa3f41a854bb8854af040e4265e8421f01c360001b610ecf565b611ddc7f194dfa8d20c3dbb674102bd468df92b37e9e85ad160a3faeac86d1075aa816dd60001b610ecf565b6001905092915050565b6000611e147f9bef354c91f97e8a27b65509ba2beb201d6cfbbeabc43be3a635677d51e5aad660001b610ecf565b611e407f4fa18cbcff8d89208ec89c2b27d401de2e7ff4301958af59a4a7f3d86b9ff70460001b610ecf565b611e6c7fcc451f69a4dc4b5eec682455c572798781afeac1c0609fd7030999ca362036e960001b610ecf565b600160008473ffffffffffffffffffffffffffffffffffffffff1673ffffffffffffffffffffffffffffffffffffffff16815260200190815260200160002060008373ffffffffffffffffffffffffffffffffffffffff1673ffffffffffffffffffffffffffffffffffffffff16815260200190815260200160002054905092915050565b611f1d7fc7a1e0755317c73eed4a843031f2ed5b5c2e17a13b1f73d009691ee190faf90e60001b610ecf565b611f497f1538e5626f56b8812047d1f2e6e4384d86dd2df0665f323234f6c0f1e131feeb60001b610ecf565b611f757f11d03a43029703f5d84de54be3dfa1ddc74977a193385b16770c4089fe51840860001b610ecf565b80600160008573ffffffffffffffffffffffffffffffffffffffff1673ffffffffffffffffffffffffffffffffffffffff16815260200190815260200160002060008473ffffffffffffffffffffffffffffffffffffffff1673ffffffffffffffffffffffffffffffffffffffff168152602001908152602001600020819055506120227f7aab7e493ff64ebff04f2f5426e9a21c461ac7c528f258e3ba2088c959c1091b60001b610ecf565b61204e7f063c785473b3e4492705c4e64cea46ebaeb98480c45bb9629a4819c1403a759360001b610ecf565b8173ffffffffffffffffffffffffffffffffffffffff168373ffffffffffffffffffffffffffffffffffffffff167f8c5be1e5ebec7d5bd14f71427d1e84f3dd0314c0f7b2291e5b200ac8c7c3b925836040518082815260200191505060405180910390a3505050565b816120c7576120c681612f09565b5b5050565b6120f77f5ac6f10a64ca2ed073f8c7d1a41d5b1e3066960cdb80bc14abab5c4106ce044160001b610ecf565b6121237f4e38d37832e7ca16bc928d0c57baa2f427b61e2dcfb104c2c4a45fdb652bd2a260001b610ecf565b61214f7f14c54e7996f1a08ff173d921219c1fbdcdb237bbd1f0d77917125c7830f1aad660001b610ecf565b60008060008573ffffffffffffffffffffffffffffffffffffffff1673ffffffffffffffffffffffffffffffffffffffff1681526020019081526020016000205490506121be7fc65264affe36577d4633f05d06f2414663dc6e43e38650f5962683cea93ec45660001b610ecf565b6121ea7fdf673a2fdb849596ad5b04b048c5c7b614b5f960b59e2e208dd4323397a3d1b160001b610ecf565b6121f9828210156101966120b8565b6122257f8de0f57836be6b79599a8fbc8c81694a349a47c2af26e944e5b142838d4fd02760001b610ecf565b6122517f6e0b8d7cf6d8f4aa1f9d10a2b02659d136797ed269f7ca50154581f09e773c5660001b610ecf565b61228d600073ffffffffffffffffffffffffffffffffffffffff168473ffffffffffffffffffffffffffffffffffffffff1614156101996120b8565b6122b97f7bf65776b449d35969ec6baa7829c287a6f5459ac6395d3336c6a405a85b875560001b610ecf565b6122e57f2b8fba28346df9fd635fb5712cc5c9011d81f790844b9e8afdc12cfe82845e6c60001b610ecf565b8181036000808673ffffffffffffffffffffffffffffffffffffffff1673ffffffffffffffffffffffffffffffffffffffff168152602001908152602001600020819055506123567f53a017da13e1a7f30ffe7fc44baceb74bf49945c828ded6d5f56aaef8e79b58360001b610ecf565b6123827f9f04c2a6477f950e7f3d42ed6ec26ca5de6babe1dd81b3fccd24e73f784547a260001b610ecf565b6123d3826000808673ffffffffffffffffffffffffffffffffffffffff1673ffffffffffffffffffffffffffffffffffffffff16815260200190815260200160002054612db490919063ffffffff16565b6000808573ffffffffffffffffffffffffffffffffffffffff1673ffffffffffffffffffffffffffffffffffffffff168152602001908152602001600020819055506124417f270dba37f6288601d065f163c3793db0cde2423da513db1fe7a97c23b105ff0360001b610ecf565b61246d7f76d3269e658fa7f71f77875d98619c15bfd26b98707691dca3742308669a244060001b610ecf565b8273ffffffffffffffffffffffffffffffffffffffff168473ffffffffffffffffffffffffffffffffffffffff167fddf252ad1be2c89b69c2b068fc378daa952ba7f163c4a11628f55a4df523b3ef846040518082815260200191505060405180910390a350505050565b60006125067fe10e7b24bd4523c6da60a51ad3b780e67c771b06d0de1c5eca90c0b854c1105660001b61173e565b6125327f037bdbcd32c3bbe29dda7fa2ae2c3305233a2ff28d10859a5c60e42a3f915b5460001b61173e565b61255e7f4d880a132c55852e5896cc56a0afc9a5e7f67fae895e2ca89305a97497bafdf360001b61173e565b7f00000000000000000000000000000000000000000000000000000000000000007f00000000000000000000000000000000000000000000000000000000000000007f00000000000000000000000000000000000000000000000000000000000000006125c9612f79565b30604051602001808681526020018581526020018481526020018381526020018273ffffffffffffffffffffffffffffffffffffffff1681526020019550505050505060405160208183030381529060405280519060200120905090565b6126537fe1e59a72b6abb196e5705ee38d9bd6c1a29ca10376e2fa3c0e8903f8cdf7949960001b610ecf565b61267f7fadcbe213569d514454727a270e9c70952205231cc4abfb6ea68bde4ab6f8767660001b610ecf565b6126ab7f15b6e925556b308d3ad1066043cf26b7202f1674d8fc02119a0401f1f8c637e860001b610ecf565b6126fc816000808573ffffffffffffffffffffffffffffffffffffffff1673ffffffffffffffffffffffffffffffffffffffff16815260200190815260200160002054612db490919063ffffffff16565b6000808473ffffffffffffffffffffffffffffffffffffffff1673ffffffffffffffffffffffffffffffffffffffff1681526020019081526020016000208190555061276a7fd4a2ff87a6d0da870c806cdf81fdac8ec28fbeb80a5082414d54ccfe4b52717460001b610ecf565b6127967f681dc1796f532e85b0ef7b3f9d671daade57fc56a840eac1e3d1d2ea1f30f08e60001b610ecf565b6127ab81600254612db490919063ffffffff16565b6002819055506127dd7f915670e06d3230875eb18467c82d19ee89b9b46317113ae387454d8cf437261860001b610ecf565b6128097f068040d6e85f05c180ffbfaab7da32c5a421878520d59c1d49ab8de36152a65f60001b610ecf565b8173ffffffffffffffffffffffffffffffffffffffff16600073ffffffffffffffffffffffffffffffffffffffff167fddf252ad1be2c89b69c2b068fc378daa952ba7f163c4a11628f55a4df523b3ef836040518082815260200191505060405180910390a35050565b60006128a17fd3476389c9167915828e1c41fd58b501be617f81bcda7df7905ebaa183b3c4bd60001b613005565b6128cd7f763e3966e690f5b421dcd041f04b48a1b193ed59a99cfdb60b67ab3dfbf2eab360001b613005565b6128f97fd040ddffed94a5c3f1ea2412fc14f14911f62630c664bb38108164ba34c6c5bb60001b613005565b6129078383111560016120b8565b6129337fc95d13badf35636a18cef429a1cc30fcff497d0f377233d60d91a54b5222bb6b60001b613005565b61295f7f28183ac30fe9ec9460a9d28cb4e04f1c3d89222564c20b044bc81e450ef8cb9760001b613005565b600082840390506129927f2996cf182068f32853c4842e48ae8391b1959ea375b654bf401398afae3fb9a460001b613005565b6129be7ffd16e19fe244cb693efc31c873bf159b238b28cd50bd7fb58b14e97f7b30750760001b613005565b8091505092915050565b6129f47fd0cdf1539ece1f2be7de9cf2849560a641f4556089e12e31dc8aefa09458737060001b610ecf565b612a207f135db87213a041ebc173b9a0f910e966f2157b381ba85475a314699ffeeca1b460001b610ecf565b612a4c7f4f5976616bfbea85925bfd68663569977affa812887b04d8f4e46b052e5bf11860001b610ecf565b60008060008473ffffffffffffffffffffffffffffffffffffffff1673ffffffffffffffffffffffffffffffffffffffff168152602001908152602001600020549050612abb7f3fd29eec05703347dfea36cab0581054301cffc581f1d9c60c785623917052f560001b610ecf565b612ae77f0a7194531f09dfff115cb817a6b833c5a83cdcc40203a20fae9b3d1c0610d04260001b610ecf565b612af6828210156101966120b8565b612b227f9ee20b2f718c833a6b54e36136191ec02117c6649d0f2bf14fff4a16d7fedf9060001b610ecf565b612b4e7fbf960ac6d0861bd34aa85dfee45c8fcd04cfc624e5cda2d2c239b208ca5d5f9d60001b610ecf565b8181036000808573ffffffffffffffffffffffffffffffffffffffff1673ffffffffffffffffffffffffffffffffffffffff16815260200190815260200160002081905550612bbf7fbb42212863e1b96fb69175b1fc3889004148f7b98211105dd90756392eec2f4e60001b610ecf565b612beb7f675aad2442070cb6006c3883109cf18220df6f4420ea174d96cbf7353b3f17d360001b610ecf565b612c008260025461287390919063ffffffff16565b600281905550612c327feb896204d6b8acd7e985eb63222b952b7566f34ad493da2295c659295be1b23760001b610ecf565b612c5e7f13332ea05c8788b77d4cd72067db64819c9a581ad7fc0b8b482e6d8f3a7d2f3e60001b610ecf565b600073ffffffffffffffffffffffffffffffffffffffff168373ffffffffffffffffffffffffffffffffffffffff167fddf252ad1be2c89b69c2b068fc378daa952ba7f163c4a11628f55a4df523b3ef846040518082815260200191505060405180910390a3505050565b6000612cf77f4162dfeea5487a2e490df35ab6c4995319cb016658ef6478e632b71af599fcb360001b61173e565b612d237f52a922e27af0a55002a9023a873c43cc837d583fe0362e21bdb684f84be2b0ed60001b61173e565b612d4f7f445bb281dbba1baa57c2b3af376885c1ba274636fe85e7d63faf25499e6f09fb60001b61173e565b612d576124d8565b8260405160200180807f190100000000000000000000000000000000000000000000000000000000000081525060020183815260200182815260200192505050604051602081830303815290604052805190602001209050919050565b6000612de27f980f096ce2354611f661d545348edfcdbcf347f2d4fa9c9e2bc2234b96619b9160001b613005565b612e0e7f5203ec7b278d868f845c81d7f208837a954291190f8034ff73f1abf34395aea660001b613005565b612e3a7f257b57fe7b6efcf88210c6d37adeac50f6bdc1270dca168497530cb49198dc7060001b613005565b60008284019050612e6d7f2712f69a57bae2ee34b696a2281d5fca60f12eef2753ba12e108837883591b0f60001b613005565b612e997fa9717274421667e304f7b258221f6f83cbc1a3c12db3869b2bd07495ef02a7c060001b613005565b612ea78482101560006120b8565b612ed37fbb23a54f86bc4ea5e593a05f1ed17e1f4ec085fd337eb065fd05171873fa78d860001b613005565b612eff7f59b5f75a5714feab22828cb70c6ca1fd02547b7956d33b95658dc4dec174169460001b613005565b8091505092915050565b6030600a820601600a820491506030600a830601600a830492506030600a8406018060101b8260081b8401016642414c230000000160c81b7f08c379a000000000000000000000000000000000000000000000000000000000600052602060045260076024528060445260646000fd5b6000612fa77fd8e2832ef6720767deec69f44ca3c3cd8b861b255a67dda4205578fb7165a1c060001b61173e565b612fd37f5df0caf98b88b3eb9f27ec4ab7f0297f4988b55185a2490903332262f13a817960001b61173e565b612fff7fb1fe59e6880d8042919f1fb255ef6b982ebb7b8d94358d2dc30eaaa4f095e69860001b61173e565b46905090565b5056fea26469706673582212205dc9a3d9e344420b9dda976af8d8cf0394b8628469c1ad94edead6c6d919e1f464736f6c63430007010033",
  "linkReferences": {},
  "deployedLinkReferences": {}
}