{
  "_format": "hh-sol-artifact-1",
  "contractName": "MockBalancerPoolToken",
  "sourceName": "contracts/balancer-core-v2/test/MockBalancerPoolToken.sol",
  "abi": [
    {
      "inputs": [
        {
          "internalType": "string",
          "name": "name",
          "type": "string"
        },
        {
          "internalType": "string",
          "name": "symbol",
          "type": "string"
        }
      ],
      "stateMutability": "nonpayable",
      "type": "constructor"
    },
    {
      "anonymous": false,
      "inputs": [
        {
          "indexed": true,
          "internalType": "address",
          "name": "owner",
          "type": "address"
        },
        {
          "indexed": true,
          "internalType": "address",
          "name": "spender",
          "type": "address"
        },
        {
          "indexed": false,
          "internalType": "uint256",
          "name": "value",
          "type": "uint256"
        }
      ],
      "name": "Approval",
      "type": "event"
    },
    {
      "anonymous": false,
      "inputs": [
        {
          "indexed": true,
          "internalType": "address",
          "name": "from",
          "type": "address"
        },
        {
          "indexed": true,
          "internalType": "address",
          "name": "to",
          "type": "address"
        },
        {
          "indexed": false,
          "internalType": "uint256",
          "name": "value",
          "type": "uint256"
        }
      ],
      "name": "Transfer",
      "type": "event"
    },
    {
      "inputs": [],
      "name": "DOMAIN_SEPARATOR",
      "outputs": [
        {
          "internalType": "bytes32",
          "name": "",
          "type": "bytes32"
        }
      ],
      "stateMutability": "view",
      "type": "function"
    },
    {
      "inputs": [
        {
          "internalType": "address",
          "name": "owner",
          "type": "address"
        },
        {
          "internalType": "address",
          "name": "spender",
          "type": "address"
        }
      ],
      "name": "allowance",
      "outputs": [
        {
          "internalType": "uint256",
          "name": "",
          "type": "uint256"
        }
      ],
      "stateMutability": "view",
      "type": "function"
    },
    {
      "inputs": [
        {
          "internalType": "address",
          "name": "spender",
          "type": "address"
        },
        {
          "internalType": "uint256",
          "name": "amount",
          "type": "uint256"
        }
      ],
      "name": "approve",
      "outputs": [
        {
          "internalType": "bool",
          "name": "",
          "type": "bool"
        }
      ],
      "stateMutability": "nonpayable",
      "type": "function"
    },
    {
      "inputs": [
        {
          "internalType": "address",
          "name": "account",
          "type": "address"
        }
      ],
      "name": "balanceOf",
      "outputs": [
        {
          "internalType": "uint256",
          "name": "",
          "type": "uint256"
        }
      ],
      "stateMutability": "view",
      "type": "function"
    },
    {
      "inputs": [
        {
          "internalType": "address",
          "name": "sender",
          "type": "address"
        },
        {
          "internalType": "uint256",
          "name": "amount",
          "type": "uint256"
        }
      ],
      "name": "burn",
      "outputs": [],
      "stateMutability": "nonpayable",
      "type": "function"
    },
    {
      "inputs": [
        {
          "internalType": "bytes32",
          "name": "c__0x27701b1d",
          "type": "bytes32"
        }
      ],
      "name": "c_0x27701b1d",
      "outputs": [],
      "stateMutability": "pure",
      "type": "function"
    },
    {
      "inputs": [
        {
          "internalType": "bytes32",
          "name": "c__0x9e5800f1",
          "type": "bytes32"
        }
      ],
      "name": "c_0x9e5800f1",
      "outputs": [],
      "stateMutability": "pure",
      "type": "function"
    },
    {
      "inputs": [
        {
          "internalType": "bytes32",
          "name": "c__0xb46d7feb",
          "type": "bytes32"
        }
      ],
      "name": "c_0xb46d7feb",
      "outputs": [],
      "stateMutability": "pure",
      "type": "function"
    },
    {
      "inputs": [],
      "name": "decimals",
      "outputs": [
        {
          "internalType": "uint8",
          "name": "",
          "type": "uint8"
        }
      ],
      "stateMutability": "pure",
      "type": "function"
    },
    {
      "inputs": [
        {
          "internalType": "address",
          "name": "spender",
          "type": "address"
        },
        {
          "internalType": "uint256",
          "name": "amount",
          "type": "uint256"
        }
      ],
      "name": "decreaseApproval",
      "outputs": [
        {
          "internalType": "bool",
          "name": "",
          "type": "bool"
        }
      ],
      "stateMutability": "nonpayable",
      "type": "function"
    },
    {
      "inputs": [
        {
          "internalType": "address",
          "name": "spender",
          "type": "address"
        },
        {
          "internalType": "uint256",
          "name": "amount",
          "type": "uint256"
        }
      ],
      "name": "increaseApproval",
      "outputs": [
        {
          "internalType": "bool",
          "name": "",
          "type": "bool"
        }
      ],
      "stateMutability": "nonpayable",
      "type": "function"
    },
    {
      "inputs": [
        {
          "internalType": "address",
          "name": "recipient",
          "type": "address"
        },
        {
          "internalType": "uint256",
          "name": "amount",
          "type": "uint256"
        }
      ],
      "name": "mint",
      "outputs": [],
      "stateMutability": "nonpayable",
      "type": "function"
    },
    {
      "inputs": [],
      "name": "name",
      "outputs": [
        {
          "internalType": "string",
          "name": "",
          "type": "string"
        }
      ],
      "stateMutability": "view",
      "type": "function"
    },
    {
      "inputs": [
        {
          "internalType": "address",
          "name": "owner",
          "type": "address"
        }
      ],
      "name": "nonces",
      "outputs": [
        {
          "internalType": "uint256",
          "name": "",
          "type": "uint256"
        }
      ],
      "stateMutability": "view",
      "type": "function"
    },
    {
      "inputs": [
        {
          "internalType": "address",
          "name": "owner",
          "type": "address"
        },
        {
          "internalType": "address",
          "name": "spender",
          "type": "address"
        },
        {
          "internalType": "uint256",
          "name": "value",
          "type": "uint256"
        },
        {
          "internalType": "uint256",
          "name": "deadline",
          "type": "uint256"
        },
        {
          "internalType": "uint8",
          "name": "v",
          "type": "uint8"
        },
        {
          "internalType": "bytes32",
          "name": "r",
          "type": "bytes32"
        },
        {
          "internalType": "bytes32",
          "name": "s",
          "type": "bytes32"
        }
      ],
      "name": "permit",
      "outputs": [],
      "stateMutability": "nonpayable",
      "type": "function"
    },
    {
      "inputs": [],
      "name": "symbol",
      "outputs": [
        {
          "internalType": "string",
          "name": "",
          "type": "string"
        }
      ],
      "stateMutability": "view",
      "type": "function"
    },
    {
      "inputs": [],
      "name": "totalSupply",
      "outputs": [
        {
          "internalType": "uint256",
          "name": "",
          "type": "uint256"
        }
      ],
      "stateMutability": "view",
      "type": "function"
    },
    {
      "inputs": [
        {
          "internalType": "address",
          "name": "recipient",
          "type": "address"
        },
        {
          "internalType": "uint256",
          "name": "amount",
          "type": "uint256"
        }
      ],
      "name": "transfer",
      "outputs": [
        {
          "internalType": "bool",
          "name": "",
          "type": "bool"
        }
      ],
      "stateMutability": "nonpayable",
      "type": "function"
    },
    {
      "inputs": [
        {
          "internalType": "address",
          "name": "sender",
          "type": "address"
        },
        {
          "internalType": "address",
          "name": "recipient",
          "type": "address"
        },
        {
          "internalType": "uint256",
          "name": "amount",
          "type": "uint256"
        }
      ],
      "name": "transferFrom",
      "outputs": [
        {
          "internalType": "bool",
          "name": "",
          "type": "bool"
        }
      ],
      "stateMutability": "nonpayable",
      "type": "function"
    }
  ],
  "bytecode": "0x6101006040527f6e71edae12b1b97f4d1f60370fef10105fa2faae0126114a169c64845d6126c960e0908152503480156200003957600080fd5b506040516200365f3803806200365f833981810160405260408110156200005f57600080fd5b81019080805160405193929190846401000000008211156200008057600080fd5b838201915060208201858111156200009757600080fd5b8251866001820283011164010000000082111715620000b557600080fd5b8083526020830192505050908051906020019080838360005b83811015620000eb578082015181840152602081019050620000ce565b50505050905090810190601f168015620001195780820380516001836020036101000a031916815260200191505b50604052602001805160405193929190846401000000008211156200013d57600080fd5b838201915060208201858111156200015457600080fd5b82518660018202830111640100000000821117156200017257600080fd5b8083526020830192505050908051906020019080838360005b83811015620001a85780820151818401526020810190506200018b565b50505050905090810190601f168015620001d65780820380516001836020036101000a031916815260200191505b506040525050508181816040518060400160405280600181526020017f31000000000000000000000000000000000000000000000000000000000000008152506200024a7f42b605ad8c4e48409d07a45ae01575f0109010e501e8b5c073584d28d362cafe60001b6200053e60201b60201c565b6200027e7f83ae992f89ac3d22b5c08de6e662a0aa913c874cd41a0efc0f4994d8c4de570060001b6200053e60201b60201c565b620002b27fc4a174b8a26360ea40053551849bb6f425e3b060f612b04327821719723bcc8660001b6200053e60201b60201c565b818051906020012060808181525050620002f57fc26a2832f3fd57ee4b8ea5a6826ac33a1a1b798676bc5c45122e9662aeab5d2660001b6200053e60201b60201c565b620003297fd4fb5a4207833b83c54df15a2c96970589d99d04479e6f4ca3165c5111271ea760001b6200053e60201b60201c565b808051906020012060a081815250506200036c7fb8e8098b11bfdd787c3da2cdafe2cc6b982a589dae9ae914138ecda0b35a4a3f60001b6200053e60201b60201c565b620003a07fb3e60e0a13ac53da78856e77763f45e4814e177529da21d9bb0dde71039bfb5360001b6200053e60201b60201c565b7f8b73c3c69bb8fe3d512ecc4cf759cc79239f7b179b0ffacaa9a75d522b39400f60c081815250505050620003fe7f7253d2a06334ee1e20139f04b1552da25178216f1aa557135d1e8f8155e9554160001b6200054160201b60201c565b620004327f755fcc9e3678086f07a630e926401728d6cfabf7045174656ed798ffe0e2c27660001b6200054160201b60201c565b620004667fdf8c8e35aefe83f659d9ebf212dddcf9ac89e043959be6158e0274561e70d86360001b6200054160201b60201c565b81600390805190602001906200047e92919062000547565b50620004b37faca7bf43b85bbccc85881caf16d28b9ec4837f003dbb33b53c537fe7df6424ad60001b6200054160201b60201c565b620004e77fa9d35326029da8ea64802ba17246b49b2739c36b2c3f195ab3fefecc9610066e60001b6200054160201b60201c565b8060049080519060200190620004ff92919062000547565b505050620005367f83c48b0db043626c6ccc23e6fd1a87f6e712d275756b9af8bf6fe99cacefef7860001b6200054460201b60201c565b5050620005ed565b50565b50565b50565b828054600181600116156101000203166002900490600052602060002090601f016020900481019282601f106200058a57805160ff1916838001178555620005bb565b82800160010185558215620005bb579182015b82811115620005ba5782518255916020019190600101906200059d565b5b509050620005ca9190620005ce565b5090565b5b80821115620005e9576000816000905550600101620005cf565b5090565b60805160a05160c05160e05161303c62000623600039806118ca52508061255f5250806125a1525080612580525061303c6000f3fe608060405234801561001057600080fd5b50600436106101515760003560e01c806366188463116100cd5780639dc29fac11610081578063d505accf11610066578063d505accf1461063f578063d73dd623146106d8578063dd62ed3e1461073c57610151565b80639dc29fac1461058d578063a9059cbb146105db57610151565b806370a08231116100b257806370a082311461045a5780637ecebe00146104b257806395d89b411461050a57610151565b806366188463146103c85780636939fcfe1461042c57610151565b806323b872dd116101245780633644e515116101095780633644e5151461032e57806340c10f191461034c57806341387af51461039a57610151565b806323b872dd14610289578063313ce5671461030d57610151565b806304b5705c1461015657806306fdde0314610184578063095ea7b31461020757806318160ddd1461026b575b600080fd5b6101826004803603602081101561016c57600080fd5b81019080803590602001909291905050506107b4565b005b61018c6107b7565b6040518080602001828103825283818151815260200191508051906020019080838360005b838110156101cc5780820151818401526020810190506101b1565b50505050905090810190601f1680156101f95780820380516001836020036101000a031916815260200191505b509250505060405180910390f35b6102536004803603604081101561021d57600080fd5b81019080803573ffffffffffffffffffffffffffffffffffffffff169060200190929190803590602001909291905050506108dd565b60405180821515815260200191505060405180910390f35b6102736109cf565b6040518082815260200191505060405180910390f35b6102f56004803603606081101561029f57600080fd5b81019080803573ffffffffffffffffffffffffffffffffffffffff169060200190929190803573ffffffffffffffffffffffffffffffffffffffff16906020019092919080359060200190929190505050610a5d565b60405180821515815260200191505060405180910390f35b610315610e44565b604051808260ff16815260200191505060405180910390f35b610336610ed1565b6040518082815260200191505060405180910390f35b6103986004803603604081101561036257600080fd5b81019080803573ffffffffffffffffffffffffffffffffffffffff16906020019092919080359060200190929190505050610f64565b005b6103c6600480360360208110156103b057600080fd5b8101908080359060200190929190505050610ff6565b005b610414600480360360408110156103de57600080fd5b81019080803573ffffffffffffffffffffffffffffffffffffffff16906020019092919080359060200190929190505050610ff9565b60405180821515815260200191505060405180910390f35b6104586004803603602081101561044257600080fd5b81019080803590602001909291905050506112f9565b005b61049c6004803603602081101561047057600080fd5b81019080803573ffffffffffffffffffffffffffffffffffffffff1690602001909291905050506112fc565b6040518082815260200191505060405180910390f35b6104f4600480360360208110156104c857600080fd5b81019080803573ffffffffffffffffffffffffffffffffffffffff1690602001909291905050506113c8565b6040518082815260200191505060405180910390f35b610512611495565b6040518080602001828103825283818151815260200191508051906020019080838360005b83811015610552578082015181840152602081019050610537565b50505050905090810190601f16801561057f5780820380516001836020036101000a031916815260200191505b509250505060405180910390f35b6105d9600480360360408110156105a357600080fd5b81019080803573ffffffffffffffffffffffffffffffffffffffff169060200190929190803590602001909291905050506115bb565b005b610627600480360360408110156105f157600080fd5b81019080803573ffffffffffffffffffffffffffffffffffffffff1690602001909291908035906020019092919050505061164d565b60405180821515815260200191505060405180910390f35b6106d6600480360360e081101561065557600080fd5b81019080803573ffffffffffffffffffffffffffffffffffffffff169060200190929190803573ffffffffffffffffffffffffffffffffffffffff1690602001909291908035906020019092919080359060200190929190803560ff1690602001909291908035906020019092919080359060200190929190505050611740565b005b610724600480360360408110156106ee57600080fd5b81019080803573ffffffffffffffffffffffffffffffffffffffff16906020019092919080359060200190929190505050611c64565b60405180821515815260200191505060405180910390f35b61079e6004803603604081101561075257600080fd5b81019080803573ffffffffffffffffffffffffffffffffffffffff169060200190929190803573ffffffffffffffffffffffffffffffffffffffff169060200190929190505050611de5565b6040518082815260200191505060405180910390f35b50565b60606107e57f5dfdc8f2f6b16263aff4e1fa9daf20c3e626c84a00d5d6bcaea54312a6dedb3f60001b6107b4565b6108117fa30e0aec3fd2e1f5d3fa7e060a0c71fc1a4593e346708abdd288bd71a8d9ae5660001b6107b4565b61083d7fc0ca2993df56cc3a2adb97bb0ebc8fe721848fcdace1e7d885178e32eb1db44e60001b6107b4565b60038054600181600116156101000203166002900480601f0160208091040260200160405190810160405280929190818152602001828054600181600116156101000203166002900480156108d35780601f106108a8576101008083540402835291602001916108d3565b820191906000526020600020905b8154815290600101906020018083116108b657829003601f168201915b5050505050905090565b600061090b7ff099023c1f159266a64260fb366a6bfc73f2d01960c66920ea0020ddcbc78eeb60001b6107b4565b6109377f10f7074bbe308337495d3c4502cf6c01f2be32ca196c807f828ee19c3f97d90e60001b6107b4565b6109637fc9a2b32520bd1d8c442e96d2af7b523d6252271a193785be85992c2d0766b18560001b6107b4565b61096e338484611ef0565b61099a7fed42e9e42c5b5aba6101d2063da8fb5ece96354268b7a0bc893f1a4fc0e7dbf060001b6107b4565b6109c57ee182571078bde88a73ddd558535ad452f1e3974656f9d9f62cfd0c7da15ee060001b6107b4565b6001905092915050565b60006109fd7f10b8ca513f61e329a255990c3baacc2acfde14b45a7a53ec08eb2ba3517fe09560001b6107b4565b610a297f9b61f32c47f6c42dc51fde0671f67b217c3158e7e9782bc2213b6e2c2d5e34d460001b6107b4565b610a557fc21c061ae22a904437e41b7baf9cac8e362edbf8d26c2cb9e1629904ee73e70960001b6107b4565b600254905090565b6000610a8b7f2b1e68de6d43f0e19cec6745dfa61baade0800dd1a56bbd52e39777aebf27d6b60001b6107b4565b610ab77f489d99b50fa72fc3dea480d9cf73b7490c1e47fba05f2d3b7603a44ef73e699c60001b6107b4565b610ae37fe83485d541b5f143bd5ef5bbb3e5a63323c34810257dd385343ef069d658a4b260001b6107b4565b6000600160008673ffffffffffffffffffffffffffffffffffffffff1673ffffffffffffffffffffffffffffffffffffffff16815260200190815260200160002060003373ffffffffffffffffffffffffffffffffffffffff1673ffffffffffffffffffffffffffffffffffffffff168152602001908152602001600020549050610b907f7acbc98dd8e190d79aca9eb011baee20bb2366d3eedc8a3f04245546567cc5b260001b6107b4565b610bbc7f632dfb23fbebd40c75ff33721df2a92728772e0cb1d3deb87f207cf7cab2a10260001b6107b4565b610c018573ffffffffffffffffffffffffffffffffffffffff163373ffffffffffffffffffffffffffffffffffffffff161480610bf95750838210155b6101976120b7565b610c2d7f993f4c6e8c008b0e283cc3529c046194726583f0d23a831d03ab9d99702a305560001b6107b4565b610c597fa21bfb64499a28f2816f262e017191c7e2dc0edb578644d9ceb6d6514868ccbe60001b6107b4565b610c648585856120ca565b610c907f3b67f6574e48078056567f4ba1258a1a8ec3617f2d45f8f2ecd901b9097c0e9760001b6107b4565b610cbc7f529b06b2bd8fe2a2596fc030aca809d39486748c9331eaa0f97a9f291e1a439d60001b6107b4565b8473ffffffffffffffffffffffffffffffffffffffff163373ffffffffffffffffffffffffffffffffffffffff1614158015610d1857507fffffffffffffffffffffffffffffffffffffffffffffffffffffffffffffffff8114155b15610db357610d497f877681a6d4f5ab52385493f404647a433563e82974907b48b9c73d4eb25d8f6560001b6107b4565b610d757f49ebf7be4c1fc91fc09bd14adacdae1bce45f86764a4287ec086129f59cc26a260001b6107b4565b610da17f3c617a45259a8d0f0eda006c9bb5a9b1a8e8795ae8611ddf96b8b0e7ba99892260001b6107b4565b610dae8533858403611ef0565b610de0565b610ddf7f5a25d1eb7570a5c2ee45cb9d5f47c07a4f5842d3f330c4e822ea66497d81cb6c60001b6107b4565b5b610e0c7fb4c07bfb466a59c3b85f18ad6b2ba28067a0148a55075c9336c120227815c00460001b6107b4565b610e387fc0c735451fb918416d33d495ba933fa43d051481563b4101952e183c5b514c5e60001b6107b4565b60019150509392505050565b6000610e727f0ec0a5a4261d3a15b467b2a665a72073343642fb9a1c92da9edf1309b6d2c14a60001b6107b4565b610e9e7f57d6fbae4770d6bd21254429908c66b313d658379031dcfc56ae1e1b494b8f9f60001b6107b4565b610eca7f4cfdac4ee4de89387e0f8d9dc259069cc026be59c0f08e9423e99fbadb2b6ec960001b6107b4565b6012905090565b6000610eff7f7b9d6858a657bb5a26c48be247410cf75b9bfee57661a4a4a08a01805ba9e1ae60001b6107b4565b610f2b7f222b27ce782393a8c5154f56efad9e2896844b5b48cee66e2acfa34ffa8fd8ff60001b6107b4565b610f577fa0f6fd1e29310660eadf623e456941a8850d53fa660b85efb7e75898859e2fb460001b6107b4565b610f5f6124d7565b905090565b610f907f8517359ec845883a5f6711135c01a2abc42749092cf65e0b6db4414f5232490960001b610ff6565b610fbc7f96302bd8a5fd68b86dc9364721b7ee813f1cfdcc6fdc24b669ee8f547a5c9b1e60001b610ff6565b610fe87f98605298bdc5a91fd9453e95fcb67453a8d5d5c4d44031e2c5b241497df8568d60001b610ff6565b610ff28282612626565b5050565b50565b60006110277f9e886b13fe83ddbdd49ddff84b8db0770f40ebeb89e7767374810c5951ac06e060001b6107b4565b6110537fec9c727c77fe71b446b8dcb9e22621b7844e4322ac87f4636dcb1f0c806aa37560001b6107b4565b61107f7f9a17f4bf3bac6a1bc30cadfc6ae50024fc3e8251ef119ea91453c2a3e420adc660001b6107b4565b6000600160003373ffffffffffffffffffffffffffffffffffffffff1673ffffffffffffffffffffffffffffffffffffffff16815260200190815260200160002060008573ffffffffffffffffffffffffffffffffffffffff1673ffffffffffffffffffffffffffffffffffffffff16815260200190815260200160002054905061112c7f5922c35e5f73ae05092818b1f7b0c44797377194bd499f99f1c2077f3fd1c4c860001b6107b4565b6111587f01453c7256085fd17022dcb356a648dea5d7efac07338cbc6f102984c8db7b9060001b6107b4565b8083106111f45761118b7f72b36832788940f9320277c336a2d678e3216bcbc5484248c1fa638a545f320560001b6107b4565b6111b77f6a5a7537a58b48123fe33961801bba4b8ad35b8798924133a54512807bc092ac60001b6107b4565b6111e37f47ead17c5e97a264787958b84a42f9ca9fa2b95b49cacbbd4c630f550edf4c8960001b6107b4565b6111ef33856000611ef0565b611296565b6112207fe0c6e1acbc0c93efa3cd3c5de89788c5297269cd45a95cc29c6449ca54e2f74760001b6107b4565b61124c7faa1fa72b76ce08b04c07f37c998e79f654b5e3ea11540321253e2d6311b6fc6d60001b6107b4565b6112787f9579ff871a854be8860bea9ad6efbee0ee4398ccdcc001158a3934eaa2840f0a60001b6107b4565b6112953385611290868561287290919063ffffffff16565b611ef0565b5b6112c27f631ba605d0bd564ce016162d98849ae6fa17331b1a63fe65aa9f9f1d1aa9650a60001b6107b4565b6112ee7fc529ad0aa0cf0174e531f67dda35d462565a02e95dc9e8ec950fe53458d2180860001b6107b4565b600191505092915050565b50565b600061132a7f382873c8fcc382f0d728db834c0253683b060b98b38095c9ec22b0eb55ea9d1360001b6107b4565b6113567f46809fa8f85043d4775d1937cae706044ebeccd6afb406b6884876e43d3b6aab60001b6107b4565b6113827f015c91f06107538327f54221a477c8cf22ce56a6baae0977d4d148884d91a4f360001b6107b4565b6000808373ffffffffffffffffffffffffffffffffffffffff1673ffffffffffffffffffffffffffffffffffffffff168152602001908152602001600020549050919050565b60006113f67f82244de36650365c37b1ea38d8ab1911dfba5dc66fd1822227b8536c60a153c560001b6107b4565b6114227f89e532722baeeeca9424921b54a4e64c5f5d97531b3e795b9b95707e8bfe3b9360001b6107b4565b61144e7f9b9a62eceead51d5e1371b1d60e41966887c24d6bb4e0b425baf8e47d3144e2a60001b6107b4565b600560008373ffffffffffffffffffffffffffffffffffffffff1673ffffffffffffffffffffffffffffffffffffffff168152602001908152602001600020549050919050565b60606114c37f1b09bd64ab4c8210a35428f1ebcf545cbe7c19d4fed39554617e53111611734a60001b6107b4565b6114ef7f6a0372273e898356c46874c4805cc38713baf71f5da51f956f2c0caea21eacae60001b6107b4565b61151b7fdc97ed429cb526ace9069d77526e830a568ebf7c714325c4b9a7f50c245d38be60001b6107b4565b60048054600181600116156101000203166002900480601f0160208091040260200160405190810160405280929190818152602001828054600181600116156101000203166002900480156115b15780601f10611586576101008083540402835291602001916115b1565b820191906000526020600020905b81548152906001019060200180831161159457829003601f168201915b5050505050905090565b6115e77f7221379af4b448e1b2853ab131c82e7be7f7672fc1deb94b2fbec47917cda1c860001b610ff6565b6116137f39aa1f2c33d5f001a17bfe2e4ebedb81e148fd43db2d379ee36c10c3e2fc88a860001b610ff6565b61163f7fb62e5dae4841ca761627ef6563aac30a6d54b45c587ebae73645e7ae578d603060001b610ff6565b61164982826129c7565b5050565b600061167b7f6deb191175557e21e4d5b5048415d02d1ec203d2bd1340ad5ceab8c8bbe5637a60001b6107b4565b6116a77fd80de844ca89d8d20c246318e9b8c31bf9962c8573820b07b2d59addbc0bd06260001b6107b4565b6116d37f7303993c8221041674f06a2709b06c531d6c945aa2593134189fcc39ebabfcac60001b6107b4565b6116de3384846120ca565b61170a7fe51d6f2d5a55f449e5620034e7576eaf2db66cf857562e9da7e8cb30115fd3df60001b6107b4565b6117367fda42cdc715c33e6f9d242db4cd8e8b9c0b2d64bf1b38ae911fb46754752d016760001b6107b4565b6001905092915050565b61176c7f92d8088417b633aef9db9560d22473cbb0829dad88088113714e86b3045ee6d460001b6107b4565b6117987fe6d99ef77a15061b9388a4be137bce3ab9f89da5d47b6cc0381b37556fb366a560001b6107b4565b6117c47fc9ec9b33c0a89aa9c06a0e246f7266b0b7f56e99dd89ff9fde5facf1df91f04960001b6107b4565b6117d28442111560d16120b7565b6117fe7f0d5d3b7479f11a85af9f69520d511f16edad0d20279bc39c96adc2a9693e424b60001b6107b4565b61182a7f1837a5abb40ba9b89d45d3bfa614f5e0cef7c17ae0b08272496053cc719990de60001b6107b4565b6000600560008973ffffffffffffffffffffffffffffffffffffffff1673ffffffffffffffffffffffffffffffffffffffff16815260200190815260200160002054905061189a7f71c573ac129a542e0ef7ef0f274613fa70efe280b19ce94bc4bb330b0ac321b860001b6107b4565b6118c67f49e5eb4019850e3ac49c419ccfe5374994591f79430a262f0d42e4383deff1d560001b6107b4565b60007f0000000000000000000000000000000000000000000000000000000000000000898989858a604051602001808781526020018673ffffffffffffffffffffffffffffffffffffffff1681526020018573ffffffffffffffffffffffffffffffffffffffff16815260200184815260200183815260200182815260200196505050505050506040516020818303038152906040528051906020012090506119917fcaf67d9ef00cb0711a1a79c9266801d8b10566ad258627da9176df7ca508468860001b6107b4565b6119bd7f9e88cd1db5d0da84d0f42b5642e94676eaeb714dea06cdbb54a90fd2e501453560001b6107b4565b60006119c882612cc7565b90506119f67ffbb8f77bb41a1d90f4c692267119eb52783b5c658a90b6b4be513a7b0c8b614a60001b6107b4565b611a227f37d2d51bb038651f842276de0361db8fd6b148f3738f07359c9ad4f6d416187d60001b6107b4565b600060018288888860405160008152602001604052604051808581526020018460ff1681526020018381526020018281526020019450505050506020604051602081039080840390855afa158015611a7e573d6000803e3d6000fd5b505050602060405103519050611ab67fd1d138253e25432a8badf5378b017a1388c994f997eb395294878705d58b96e060001b6107b4565b611ae27f84f8670eb58ab07f1e88c484c695c261c0e65808f8ba9e9b0c51d9ffdc84902a60001b6107b4565b611b55600073ffffffffffffffffffffffffffffffffffffffff168273ffffffffffffffffffffffffffffffffffffffff1614158015611b4d57508b73ffffffffffffffffffffffffffffffffffffffff168273ffffffffffffffffffffffffffffffffffffffff16145b6101f86120b7565b611b817f22d7de187d767badd08d0f56b9032ebaf3425b342596c16a4d6c074cf3f87aff60001b6107b4565b611bad7f177abef53e1d0dd58ac47c7df006757d5d6f236a0aa590407ec19064e1ab44ae60001b6107b4565b60018401600560008d73ffffffffffffffffffffffffffffffffffffffff1673ffffffffffffffffffffffffffffffffffffffff16815260200190815260200160002081905550611c207f4cdd763c9803f8c2ced5b3f501b434276e7e1cbed3e20f3bf45228060143216e60001b6107b4565b611c4c7f0889d4543369d8b61a6a795ec77232055ddea529d88d80d8fbb5228a924dff2060001b6107b4565b611c578b8b8b611ef0565b5050505050505050505050565b6000611c927fa9b98a594d3b5c774b74cd6ed48cf8dff4f80392c6473684179cff7500e6444d60001b6107b4565b611cbe7fd034439f5728cc6dbb46c15a010144ca40c85fb7a49179a37ddd6688258ce6d860001b6107b4565b611cea7f1d2f27b8fa67c9b6dacc27947e01a8353fd11ced3843151e63c744482bcacdca60001b6107b4565b611d833384611d7e85600160003373ffffffffffffffffffffffffffffffffffffffff1673ffffffffffffffffffffffffffffffffffffffff16815260200190815260200160002060008973ffffffffffffffffffffffffffffffffffffffff1673ffffffffffffffffffffffffffffffffffffffff16815260200190815260200160002054612db290919063ffffffff16565b611ef0565b611daf7fc624b982209d34d3063563b50888b38b0f028ae195fbfc8489f5a7881b9247f360001b6107b4565b611ddb7fff5d9bd3a30bd6cb8e1f7d6662787c729ac63a8de91f644f3e41ada4e2fc577460001b6107b4565b6001905092915050565b6000611e137fcde1da088e653348a27e3db5513a0b32042c7bddb19b9d92e981f2506dec065160001b6107b4565b611e3f7f0a42362e590384ffe636c3826e148b566dfbecfc831f0684dd9f6a23b8e65cd060001b6107b4565b611e6b7f09be738a1bf0b0516ed2f8bc0f08cbe34a749c8983227a44bbf2e5c671b575d760001b6107b4565b600160008473ffffffffffffffffffffffffffffffffffffffff1673ffffffffffffffffffffffffffffffffffffffff16815260200190815260200160002060008373ffffffffffffffffffffffffffffffffffffffff1673ffffffffffffffffffffffffffffffffffffffff16815260200190815260200160002054905092915050565b611f1c7f9a5b448a21cd2032fa5308aa257d4351306ac960be62691687d8894949250e0260001b6107b4565b611f487fb03e90560bcfc6e147e178f704890e0476a2bc183a28c6a21d4ed276077228e860001b6107b4565b611f747fa23e95d7dc0024c00091f5622f8bf7106ac1268477fb653af8c6c9fac644c9fc60001b6107b4565b80600160008573ffffffffffffffffffffffffffffffffffffffff1673ffffffffffffffffffffffffffffffffffffffff16815260200190815260200160002060008473ffffffffffffffffffffffffffffffffffffffff1673ffffffffffffffffffffffffffffffffffffffff168152602001908152602001600020819055506120217fbf7482d78d5e209f32f7d094fd2c863fcba586e8713beafce89fe20750e8a3ad60001b6107b4565b61204d7fd9fd5feda47756822224f2afe37e079d8790fc04a9924ac7a21fcd251c76cba560001b6107b4565b8173ffffffffffffffffffffffffffffffffffffffff168373ffffffffffffffffffffffffffffffffffffffff167f8c5be1e5ebec7d5bd14f71427d1e84f3dd0314c0f7b2291e5b200ac8c7c3b925836040518082815260200191505060405180910390a3505050565b816120c6576120c581612f07565b5b5050565b6120f67fd529164b19be6d95bcfbdaf40f429a8a1603f0c977f519cb9f870ecb8152a47e60001b6107b4565b6121227fe41ac344bcf11b9ded08259d4818278957f90a7734a706dd5f2b2325751c28cc60001b6107b4565b61214e7f25663d4831b921ab3e180db522e67b9d4c731778698c35c1b98bbbf3028d920960001b6107b4565b60008060008573ffffffffffffffffffffffffffffffffffffffff1673ffffffffffffffffffffffffffffffffffffffff1681526020019081526020016000205490506121bd7f5d78b30e392bc7f6e0e27e15c0002035f9b08125eefe5b8d1387072d4ed902b160001b6107b4565b6121e97ffcfece9bb0f8c43acd0d28fa43d0e21f14661adf0416e1ab7863208b145203d460001b6107b4565b6121f8828210156101966120b7565b6122247fa041584898bb01c1b6d96f86c51bb6651f3bdee1c82a9f7623e72a330b7e434460001b6107b4565b6122507fcb06c78a59ec59ff22e9c4ec6cd136da452099244a1d78be0fdac02c0f855b2f60001b6107b4565b61228c600073ffffffffffffffffffffffffffffffffffffffff168473ffffffffffffffffffffffffffffffffffffffff1614156101996120b7565b6122b87f36e5b8353b45f2872d2100bf83f12822bb595a1548b60db4e3ee9da3dbdb3cf560001b6107b4565b6122e47fb9d2dcc68a6a40971012c756e4fc1700ef0f6a8dac7815c8883ffe1f27e1dc4660001b6107b4565b8181036000808673ffffffffffffffffffffffffffffffffffffffff1673ffffffffffffffffffffffffffffffffffffffff168152602001908152602001600020819055506123557faa23196d94220b56b86d670ed144291b9f1cb0700b33e857b4237881427abb7e60001b6107b4565b6123817f92c148fdf087e986784f946c0b1a53cde22a376b74accdd6980a58bf7e478d5a60001b6107b4565b6123d2826000808673ffffffffffffffffffffffffffffffffffffffff1673ffffffffffffffffffffffffffffffffffffffff16815260200190815260200160002054612db290919063ffffffff16565b6000808573ffffffffffffffffffffffffffffffffffffffff1673ffffffffffffffffffffffffffffffffffffffff168152602001908152602001600020819055506124407fbde74482855c06aa81b686d4347ebfb8c5497ad562890e3cc31daa11d0b3e99360001b6107b4565b61246c7f4049d7d86893edaf6070b20f62df68cc1472a6753938f5be6b67573deb5d33c560001b6107b4565b8273ffffffffffffffffffffffffffffffffffffffff168473ffffffffffffffffffffffffffffffffffffffff167fddf252ad1be2c89b69c2b068fc378daa952ba7f163c4a11628f55a4df523b3ef846040518082815260200191505060405180910390a350505050565b60006125057f0619b08396514f3014b4cd388f4277c5ee27d85e6ddf8c8e8741a4c70985e78660001b6112f9565b6125317fadf5ed2199ad87ddb5b50c063afe706a9746a5f97871ab751613d492674010ea60001b6112f9565b61255d7fdf8526b85b2735b3fbfc4736bf3d3dfa64ae072b5fd103fbe8a3f3cf1ebbbb3460001b6112f9565b7f00000000000000000000000000000000000000000000000000000000000000007f00000000000000000000000000000000000000000000000000000000000000007f00000000000000000000000000000000000000000000000000000000000000006125c8612f77565b30604051602001808681526020018581526020018481526020018381526020018273ffffffffffffffffffffffffffffffffffffffff1681526020019550505050505060405160208183030381529060405280519060200120905090565b6126527f859b971d1a1255cf9d4cb958e7b1ee466850218c832922f5051633c8255740e360001b6107b4565b61267e7f1e4219e446bfc49318475e67e9dd11a5c4904f252aed09a1e1987ed6f447f89360001b6107b4565b6126aa7f470a94d2bcbba4d6bb89bc72d8fe31cf78a8e8dc566102efe0795181f9c5196160001b6107b4565b6126fb816000808573ffffffffffffffffffffffffffffffffffffffff1673ffffffffffffffffffffffffffffffffffffffff16815260200190815260200160002054612db290919063ffffffff16565b6000808473ffffffffffffffffffffffffffffffffffffffff1673ffffffffffffffffffffffffffffffffffffffff168152602001908152602001600020819055506127697fa0703f6eb5028f6ac193d4dd8a2444daf838d9c2ce959a095d092808f9cae89b60001b6107b4565b6127957f19aadcec8f30a84b6fe3489d9ae4f9ed9f7708f300e1ae0a833a1e807a13069f60001b6107b4565b6127aa81600254612db290919063ffffffff16565b6002819055506127dc7fe55b6ddab0c258b148644c992ade42c43ee1114b03a612c38784d59bc66286cc60001b6107b4565b6128087fb592118a6e6fd079c07f78575f993e050813613c6ece73dae980bf49bbe39f0660001b6107b4565b8173ffffffffffffffffffffffffffffffffffffffff16600073ffffffffffffffffffffffffffffffffffffffff167fddf252ad1be2c89b69c2b068fc378daa952ba7f163c4a11628f55a4df523b3ef836040518082815260200191505060405180910390a35050565b60006128a07f4ad272e8ef896cf9749bbb33b720ec50902be1d6268b31d272f37eeffc01139760001b613003565b6128cc7ff5b8f6315ed04f6f880d15c913444893b354f451e1a7755f980256aa3a67eb1b60001b613003565b6128f87fbdc5b111411beb8ab6b53375bbc8bf4e74258c8c8f4987a4928ce54801c48b0060001b613003565b6129068383111560016120b7565b6129327f878d38a5a5b3291f5b62618821c286b1ce4d8ac1fde0f5c52c6f8b253e3c721860001b613003565b61295e7fdee8db45952fd0881a888ce099e6774ada46e04a8240c739354e8b594734d0b160001b613003565b600082840390506129917fa883eec5840f8062e57d5a86c35fd0af17f6df22b4081b6a3676dd71088ac1e360001b613003565b6129bd7fc44e06103de1985a150207dd6e5102796da4ff917908533e00a2fd2e75a52f9460001b613003565b8091505092915050565b6129f37fe7895fc4b60ecaa846487cfdf88501d7a3d845f6dcfde25b51e9ebe103d4dd1660001b6107b4565b612a1f7f6119845ea51ef8873311c7cc5f6e9451228545977e83bd2fca034fcbf60592ee60001b6107b4565b612a4b7f1aacca6942d21795f8977f383904c3e6981588c0b3000f634c2e960582504b4060001b6107b4565b60008060008473ffffffffffffffffffffffffffffffffffffffff1673ffffffffffffffffffffffffffffffffffffffff168152602001908152602001600020549050612aba7f8243cc9f1f57f1b96a49950cfe1dacbddf5929258edb0bee2ddb37a22281a90760001b6107b4565b612ae67fbd44c0256d8aadfcef4efd3627db538d37219689c5361397870819146f70a42260001b6107b4565b612af5828210156101966120b7565b612b217f8aa5942c2fc262cf7a401a7f3ecf060f53a4004fe1d78beae0b1fdbd6d1d6eeb60001b6107b4565b612b4c7ed6bace290ad6caf9ffec452c1670cff35dbca2b0a306ff96cccdce2e951f2f60001b6107b4565b8181036000808573ffffffffffffffffffffffffffffffffffffffff1673ffffffffffffffffffffffffffffffffffffffff16815260200190815260200160002081905550612bbd7fc52ce0972fcec86a98fe5814b728415679023175cd455db318311de66b92f34260001b6107b4565b612be97f05f8756a33b7123b4c227b842001d63ca97694d4bc95d0cf7cb6a8f99983400e60001b6107b4565b612bfe8260025461287290919063ffffffff16565b600281905550612c307faeb97f7f13a09e19770aea6bea39e3ee9aeb9772a1c8bc1b87847f12bb6fbe8460001b6107b4565b612c5c7f97d6ddec1a18888f9c7db4b95e3500d5fda1b79361bd668528ea1b5efc56b39c60001b6107b4565b600073ffffffffffffffffffffffffffffffffffffffff168373ffffffffffffffffffffffffffffffffffffffff167fddf252ad1be2c89b69c2b068fc378daa952ba7f163c4a11628f55a4df523b3ef846040518082815260200191505060405180910390a3505050565b6000612cf57f2c54610e3fe0a98df3c423e90950973fc94146f557b01b6bee8cca13a6032b4a60001b6112f9565b612d217fbc254dfd0c8280fa8535e89d4bc4cc331f18b5ac8558d459ad7b42c1e1c9d89c60001b6112f9565b612d4d7f2ceb1de44021a984c31888fffa7404fe74791ca186de59ed6c94965c86a06b2260001b6112f9565b612d556124d7565b8260405160200180807f190100000000000000000000000000000000000000000000000000000000000081525060020183815260200182815260200192505050604051602081830303815290604052805190602001209050919050565b6000612de07fe9ab1930f8b2a33e186614bdc5275e5aef3bc5199db452be16b906fe891a7aef60001b613003565b612e0c7f672db28399f3b33e0df219cd59d4073e056f97e6f18dcebfa00f27c463d9fd7360001b613003565b612e387f0ab1a15c584dc550564822e51c90b6556d02439b72ef95c55813a7f4f670280f60001b613003565b60008284019050612e6b7f4912ca1f746b67b87e92127e424ef610602ecd8455c415eca24e0e1efae1b65e60001b613003565b612e977f66114683dd19cf7947e3b2b818c6c55b57501af6e821e1cdb4f2f80d63a7276460001b613003565b612ea58482101560006120b7565b612ed17fb783f36a61aa5e73f22951df3681c2eb20b8fba57492aa9e4764edbd3684340b60001b613003565b612efd7fe7b48b6ed0eb47f18bb58555642ad250e08b266847ceeeb5fe538202fc79104360001b613003565b8091505092915050565b6030600a820601600a820491506030600a830601600a830492506030600a8406018060101b8260081b8401016642414c230000000160c81b7f08c379a000000000000000000000000000000000000000000000000000000000600052602060045260076024528060445260646000fd5b6000612fa57f80fca6b64f7b0789847f8be52c02b4e1f759789d6b7cbe957f89feefde4fe88a60001b6112f9565b612fd17fc446b9f164092d39ac2524a6d2e73d0ccb1abd271deaf1757b7310ed4335dbdd60001b6112f9565b612ffd7f22f429aedbaa0bb811444c55a4871d76ff331b3f6f543b5d11608339df4e388d60001b6112f9565b46905090565b5056fea2646970667358221220f1e186a0255680c4170dbe2c4a82146cfc898987e5436688a15756dd6770993164736f6c63430007010033",
  "linkReferences": {},
  "deployedLinkReferences": {}
}