{
  "_format": "hh-sol-artifact-1",
  "contractName": "SponsorWhitelistControl",
  "sourceName": "contracts/libraries/SponsorWhitelistControl.sol",
  "abi": [
    {
      "inputs": [
        {
          "internalType": "address[]",
          "name": "",
          "type": "address[]"
        }
      ],
      "name": "addPrivilege",
      "outputs": [],
      "stateMutability": "nonpayable",
      "type": "function"
    },
    {
      "inputs": [
        {
          "internalType": "address",
          "name": "contractAddr",
          "type": "address"
        },
        {
          "internalType": "address[]",
          "name": "addresses",
          "type": "address[]"
        }
      ],
      "name": "addPrivilegeByAdmin",
      "outputs": [],
      "stateMutability": "nonpayable",
      "type": "function"
    },
    {
      "inputs": [
        {
          "internalType": "bytes32",
          "name": "c__0x2de1b871",
          "type": "bytes32"
        }
      ],
      "name": "c_0x2de1b871",
      "outputs": [],
      "stateMutability": "pure",
      "type": "function"
    },
    {
      "inputs": [
        {
          "internalType": "address",
          "name": "contractAddr",
          "type": "address"
        }
      ],
      "name": "getSponsorForCollateral",
      "outputs": [
        {
          "internalType": "address",
          "name": "",
          "type": "address"
        }
      ],
      "stateMutability": "view",
      "type": "function"
    },
    {
      "inputs": [
        {
          "internalType": "address",
          "name": "contractAddr",
          "type": "address"
        }
      ],
      "name": "getSponsorForGas",
      "outputs": [
        {
          "internalType": "address",
          "name": "",
          "type": "address"
        }
      ],
      "stateMutability": "view",
      "type": "function"
    },
    {
      "inputs": [
        {
          "internalType": "address",
          "name": "contractAddr",
          "type": "address"
        }
      ],
      "name": "getSponsoredBalanceForCollateral",
      "outputs": [
        {
          "internalType": "uint256",
          "name": "",
          "type": "uint256"
        }
      ],
      "stateMutability": "view",
      "type": "function"
    },
    {
      "inputs": [
        {
          "internalType": "address",
          "name": "contractAddr",
          "type": "address"
        }
      ],
      "name": "getSponsoredBalanceForGas",
      "outputs": [
        {
          "internalType": "uint256",
          "name": "",
          "type": "uint256"
        }
      ],
      "stateMutability": "view",
      "type": "function"
    },
    {
      "inputs": [
        {
          "internalType": "address",
          "name": "contractAddr",
          "type": "address"
        }
      ],
      "name": "getSponsoredGasFeeUpperBound",
      "outputs": [
        {
          "internalType": "uint256",
          "name": "",
          "type": "uint256"
        }
      ],
      "stateMutability": "view",
      "type": "function"
    },
    {
      "inputs": [
        {
          "internalType": "address",
          "name": "contractAddr",
          "type": "address"
        }
      ],
      "name": "isAllWhitelisted",
      "outputs": [
        {
          "internalType": "bool",
          "name": "",
          "type": "bool"
        }
      ],
      "stateMutability": "view",
      "type": "function"
    },
    {
      "inputs": [
        {
          "internalType": "address",
          "name": "contractAddr",
          "type": "address"
        },
        {
          "internalType": "address",
          "name": "user",
          "type": "address"
        }
      ],
      "name": "isWhitelisted",
      "outputs": [
        {
          "internalType": "bool",
          "name": "",
          "type": "bool"
        }
      ],
      "stateMutability": "view",
      "type": "function"
    },
    {
      "inputs": [
        {
          "internalType": "address[]",
          "name": "",
          "type": "address[]"
        }
      ],
      "name": "removePrivilege",
      "outputs": [],
      "stateMutability": "nonpayable",
      "type": "function"
    },
    {
      "inputs": [
        {
          "internalType": "address",
          "name": "contractAddr",
          "type": "address"
        },
        {
          "internalType": "address[]",
          "name": "addresses",
          "type": "address[]"
        }
      ],
      "name": "removePrivilegeByAdmin",
      "outputs": [],
      "stateMutability": "nonpayable",
      "type": "function"
    },
    {
      "inputs": [
        {
          "internalType": "address",
          "name": "contractAddr",
          "type": "address"
        }
      ],
      "name": "setSponsorForCollateral",
      "outputs": [],
      "stateMutability": "payable",
      "type": "function"
    },
    {
      "inputs": [
        {
          "internalType": "address",
          "name": "contractAddr",
          "type": "address"
        },
        {
          "internalType": "uint256",
          "name": "upperBound",
          "type": "uint256"
        }
      ],
      "name": "setSponsorForGas",
      "outputs": [],
      "stateMutability": "payable",
      "type": "function"
    }
  ],
  "bytecode": "0x608060405234801561001057600080fd5b50610a23806100206000396000f3fe6080604052600436106100dd5760003560e01c8063b3b28fac1161007f578063d47e9a5711610059578063d47e9a57146102d3578063d665f9dd14610310578063e66c1bea1461034d578063ea1e882b14610369576100dd565b8063b3b28fac14610230578063b6b352721461026d578063d2932db6146102aa576100dd565b806333a1af31116100bb57806333a1af311461015d5780633e3e64281461019a57806379b47faa146101b65780638382c3a7146101f3576100dd565b806310128d3e146100e2578063217e055b1461010b57806322effe8414610134575b600080fd5b3480156100ee57600080fd5b50610109600480360381019061010491906107e2565b610392565b005b34801561011757600080fd5b50610132600480360381019061012d9190610752565b6103c1565b005b34801561014057600080fd5b5061015b60048036038101906101569190610752565b6103f1565b005b34801561016957600080fd5b50610184600480360381019061017f91906106ed565b610421565b6040516101919190610879565b60405180910390f35b6101b460048036038101906101af91906107a6565b610454565b005b3480156101c257600080fd5b506101dd60048036038101906101d891906106ed565b610484565b6040516101ea9190610894565b60405180910390f35b3480156101ff57600080fd5b5061021a600480360381019061021591906106ed565b6104b7565b6040516102279190610879565b60405180910390f35b34801561023c57600080fd5b50610257600480360381019061025291906106ed565b6104ea565b60405161026491906108af565b60405180910390f35b34801561027957600080fd5b50610294600480360381019061028f9190610716565b61051d565b6040516102a19190610894565b60405180910390f35b3480156102b657600080fd5b506102d160048036038101906102cc91906107e2565b610551565b005b3480156102df57600080fd5b506102fa60048036038101906102f591906106ed565b610580565b60405161030791906108af565b60405180910390f35b34801561031c57600080fd5b50610337600480360381019061033291906106ed565b6105b3565b60405161034491906108af565b60405180910390f35b610367600480360381019061036291906106ed565b6105e6565b005b34801561037557600080fd5b50610390600480360381019061038b9190610823565b610615565b005b6103be7f607dcf830e92ffa023c1d2f3b79b736fc6ffa29df377a80c5798bfa5f627d9ad60001b610615565b50565b6103ed7fe3513bbee5d66693b50face2097649cce14028a0299ad00b32eb53661b87466060001b610615565b5050565b61041d7fe56cd90f745e748503656770048eef8bc7be6c1fd9170d9dbbdfa5c417dde1a460001b610615565b5050565b600061044f7f2d5cde38fa8db747abee1edce0c2a23f91f1ade30de9e1e007026e8b8212cb4660001b610615565b919050565b6104807fcb57fa0ceca4a7501b6d67569e4be6530f5e63869f8218b9f464f8c47055aa7460001b610615565b5050565b60006104b27fa62df9db57065a7bf7a4f0e3865f10cd5a3c0a619ce779d5e8bfa25a6eb39de860001b610615565b919050565b60006104e57f9c1b3250ad745e854f8ca90b79c723de2b0581b1356bc9dce2794b21a93da1d460001b610615565b919050565b60006105187f228833b9acbfa250addb2a35ebe5d046dfb47116387847bb1052a89c1dadbc2260001b610615565b919050565b600061054b7f41f511865e135a2ffbd3cb400a77d4e53872c469f6c8b49a1f7dbe3944bef55a60001b610615565b92915050565b61057d7fde210e062e48be021df089f102cc3a64fe6fce8410fbe554da31c87b3bb7eea960001b610615565b50565b60006105ae7fe0699cdcd658589a4345da8a7785f63cbc873be6959e0a5e45d5ef40a5880dff60001b610615565b919050565b60006105e17f883b891d00d91c2724fca0d4f8af48aa120dbff2be41b41e841ce2ba9a9092be60001b610615565b919050565b6106127f9ff44f11fa62868e2fe72f147455d7e43e517905de16efe8cdc98355633e0f6360001b610615565b50565b50565b600061062b610626846108fb565b6108ca565b9050808382526020820190508285602086028201111561064a57600080fd5b60005b8581101561067a57816106608882610684565b84526020840193506020830192505060018101905061064d565b5050509392505050565b600081359050610693816109a8565b92915050565b600082601f8301126106aa57600080fd5b81356106ba848260208601610618565b91505092915050565b6000813590506106d2816109bf565b92915050565b6000813590506106e7816109d6565b92915050565b6000602082840312156106ff57600080fd5b600061070d84828501610684565b91505092915050565b6000806040838503121561072957600080fd5b600061073785828601610684565b925050602061074885828601610684565b9150509250929050565b6000806040838503121561076557600080fd5b600061077385828601610684565b925050602083013567ffffffffffffffff81111561079057600080fd5b61079c85828601610699565b9150509250929050565b600080604083850312156107b957600080fd5b60006107c785828601610684565b92505060206107d8858286016106d8565b9150509250929050565b6000602082840312156107f457600080fd5b600082013567ffffffffffffffff81111561080e57600080fd5b61081a84828501610699565b91505092915050565b60006020828403121561083557600080fd5b6000610843848285016106c3565b91505092915050565b61085581610927565b82525050565b61086481610939565b82525050565b6108738161096f565b82525050565b600060208201905061088e600083018461084c565b92915050565b60006020820190506108a9600083018461085b565b92915050565b60006020820190506108c4600083018461086a565b92915050565b6000604051905081810181811067ffffffffffffffff821117156108f1576108f0610979565b5b8060405250919050565b600067ffffffffffffffff82111561091657610915610979565b5b602082029050602081019050919050565b60006109328261094f565b9050919050565b60008115159050919050565b6000819050919050565b600073ffffffffffffffffffffffffffffffffffffffff82169050919050565b6000819050919050565b7f4e487b7100000000000000000000000000000000000000000000000000000000600052604160045260246000fd5b6109b181610927565b81146109bc57600080fd5b50565b6109c881610945565b81146109d357600080fd5b50565b6109df8161096f565b81146109ea57600080fd5b5056fea2646970667358221220e412a629bbef879a297bd5a4ac71a8c2a6b64d6f05b2ebf92ea7274a954281b864736f6c63430008000033",
  "linkReferences": {},
  "deployedLinkReferences": {}
}