{
  "_format": "hh-sol-artifact-1",
  "contractName": "BalanceAllocationMock",
  "sourceName": "contracts/balancer-core-v2/test/BalanceAllocationMock.sol",
  "abi": [
    {
      "inputs": [
        {
          "internalType": "bytes32",
          "name": "c__0xcd150b7c",
          "type": "bytes32"
        }
      ],
      "name": "c_0xcd150b7c",
      "outputs": [],
      "stateMutability": "pure",
      "type": "function"
    },
    {
      "inputs": [
        {
          "internalType": "bytes32",
          "name": "balance",
          "type": "bytes32"
        }
      ],
      "name": "cash",
      "outputs": [
        {
          "internalType": "uint256",
          "name": "",
          "type": "uint256"
        }
      ],
      "stateMutability": "pure",
      "type": "function"
    },
    {
      "inputs": [
        {
          "internalType": "bytes32",
          "name": "balance",
          "type": "bytes32"
        },
        {
          "internalType": "uint256",
          "name": "amount",
          "type": "uint256"
        }
      ],
      "name": "cashToManaged",
      "outputs": [
        {
          "internalType": "bytes32",
          "name": "",
          "type": "bytes32"
        }
      ],
      "stateMutability": "pure",
      "type": "function"
    },
    {
      "inputs": [
        {
          "internalType": "bytes32",
          "name": "balance",
          "type": "bytes32"
        },
        {
          "internalType": "uint256",
          "name": "amount",
          "type": "uint256"
        }
      ],
      "name": "decreaseCash",
      "outputs": [
        {
          "internalType": "bytes32",
          "name": "",
          "type": "bytes32"
        }
      ],
      "stateMutability": "view",
      "type": "function"
    },
    {
      "inputs": [
        {
          "internalType": "bytes32",
          "name": "sharedCash",
          "type": "bytes32"
        },
        {
          "internalType": "bytes32",
          "name": "sharedManaged",
          "type": "bytes32"
        }
      ],
      "name": "fromSharedToBalanceA",
      "outputs": [
        {
          "internalType": "bytes32",
          "name": "",
          "type": "bytes32"
        }
      ],
      "stateMutability": "pure",
      "type": "function"
    },
    {
      "inputs": [
        {
          "internalType": "bytes32",
          "name": "sharedCash",
          "type": "bytes32"
        },
        {
          "internalType": "bytes32",
          "name": "sharedManaged",
          "type": "bytes32"
        }
      ],
      "name": "fromSharedToBalanceB",
      "outputs": [
        {
          "internalType": "bytes32",
          "name": "",
          "type": "bytes32"
        }
      ],
      "stateMutability": "pure",
      "type": "function"
    },
    {
      "inputs": [
        {
          "internalType": "bytes32",
          "name": "balance",
          "type": "bytes32"
        },
        {
          "internalType": "uint256",
          "name": "amount",
          "type": "uint256"
        }
      ],
      "name": "increaseCash",
      "outputs": [
        {
          "internalType": "bytes32",
          "name": "",
          "type": "bytes32"
        }
      ],
      "stateMutability": "view",
      "type": "function"
    },
    {
      "inputs": [
        {
          "internalType": "bytes32",
          "name": "balance",
          "type": "bytes32"
        }
      ],
      "name": "isNotZero",
      "outputs": [
        {
          "internalType": "bool",
          "name": "",
          "type": "bool"
        }
      ],
      "stateMutability": "pure",
      "type": "function"
    },
    {
      "inputs": [
        {
          "internalType": "bytes32",
          "name": "balance",
          "type": "bytes32"
        }
      ],
      "name": "isZero",
      "outputs": [
        {
          "internalType": "bool",
          "name": "",
          "type": "bool"
        }
      ],
      "stateMutability": "pure",
      "type": "function"
    },
    {
      "inputs": [
        {
          "internalType": "bytes32",
          "name": "balance",
          "type": "bytes32"
        }
      ],
      "name": "lastChangeBlock",
      "outputs": [
        {
          "internalType": "uint256",
          "name": "",
          "type": "uint256"
        }
      ],
      "stateMutability": "pure",
      "type": "function"
    },
    {
      "inputs": [
        {
          "internalType": "bytes32",
          "name": "balance",
          "type": "bytes32"
        }
      ],
      "name": "managed",
      "outputs": [
        {
          "internalType": "uint256",
          "name": "",
          "type": "uint256"
        }
      ],
      "stateMutability": "pure",
      "type": "function"
    },
    {
      "inputs": [
        {
          "internalType": "bytes32",
          "name": "balance",
          "type": "bytes32"
        },
        {
          "internalType": "uint256",
          "name": "amount",
          "type": "uint256"
        }
      ],
      "name": "managedToCash",
      "outputs": [
        {
          "internalType": "bytes32",
          "name": "",
          "type": "bytes32"
        }
      ],
      "stateMutability": "pure",
      "type": "function"
    },
    {
      "inputs": [
        {
          "internalType": "bytes32",
          "name": "balance",
          "type": "bytes32"
        },
        {
          "internalType": "uint256",
          "name": "newManaged",
          "type": "uint256"
        }
      ],
      "name": "setManaged",
      "outputs": [
        {
          "internalType": "bytes32",
          "name": "",
          "type": "bytes32"
        }
      ],
      "stateMutability": "view",
      "type": "function"
    },
    {
      "inputs": [
        {
          "internalType": "uint256",
          "name": "_cash",
          "type": "uint256"
        },
        {
          "internalType": "uint256",
          "name": "_managed",
          "type": "uint256"
        },
        {
          "internalType": "uint256",
          "name": "_lastChangeBlock",
          "type": "uint256"
        }
      ],
      "name": "toBalance",
      "outputs": [
        {
          "internalType": "bytes32",
          "name": "",
          "type": "bytes32"
        }
      ],
      "stateMutability": "pure",
      "type": "function"
    },
    {
      "inputs": [
        {
          "internalType": "bytes32",
          "name": "tokenABalance",
          "type": "bytes32"
        },
        {
          "internalType": "bytes32",
          "name": "tokenBBalance",
          "type": "bytes32"
        }
      ],
      "name": "toSharedCash",
      "outputs": [
        {
          "internalType": "bytes32",
          "name": "",
          "type": "bytes32"
        }
      ],
      "stateMutability": "pure",
      "type": "function"
    },
    {
      "inputs": [
        {
          "internalType": "bytes32",
          "name": "tokenABalance",
          "type": "bytes32"
        },
        {
          "internalType": "bytes32",
          "name": "tokenBBalance",
          "type": "bytes32"
        }
      ],
      "name": "toSharedManaged",
      "outputs": [
        {
          "internalType": "bytes32",
          "name": "",
          "type": "bytes32"
        }
      ],
      "stateMutability": "pure",
      "type": "function"
    },
    {
      "inputs": [
        {
          "internalType": "bytes32",
          "name": "balance",
          "type": "bytes32"
        }
      ],
      "name": "total",
      "outputs": [
        {
          "internalType": "uint256",
          "name": "",
          "type": "uint256"
        }
      ],
      "stateMutability": "pure",
      "type": "function"
    },
    {
      "inputs": [
        {
          "internalType": "bytes32[]",
          "name": "balances",
          "type": "bytes32[]"
        }
      ],
      "name": "totals",
      "outputs": [
        {
          "internalType": "uint256[]",
          "name": "result",
          "type": "uint256[]"
        }
      ],
      "stateMutability": "pure",
      "type": "function"
    }
  ],
  "bytecode": "0x608060405234801561001057600080fd5b50612dbc806100206000396000f3fe608060405234801561001057600080fd5b50600436106101365760003560e01c8063736ea832116100b2578063ce83307711610081578063dd64691711610066578063dd6469171461062c578063e1ac202214610670578063fba56f52146106c657610136565b8063ce833077146104d3578063d6c752c51461051f57610136565b8063736ea832146103ad57806393b9de4c146103f9578063a44bed6214610445578063ac0177a91461048757610136565b806351b311f0116101095780635ba473ca116100ee5780635ba473ca146102e75780637171e37f146103155780637323e7ca1461036157610136565b806351b311f01461024f578063595e098a1461029b57610136565b8063256da6301461013b5780633a1f6e15146101875780633f7e18a5146101cb5780634ca27dff1461020d575b600080fd5b6101716004803603604081101561015157600080fd5b810190808035906020019092919080359060200190929190505050610708565b6040518082815260200191505060405180910390f35b6101b36004803603602081101561019d57600080fd5b81019080803590602001909291905050506107a9565b60405180821515815260200191505060405180910390f35b6101f7600480360360208110156101e157600080fd5b810190808035906020019092919050505061083f565b6040518082815260200191505060405180910390f35b6102396004803603602081101561022357600080fd5b81019080803590602001909291905050506108d5565b6040518082815260200191505060405180910390f35b6102856004803603604081101561026557600080fd5b81019080803590602001909291908035906020019092919050505061096b565b6040518082815260200191505060405180910390f35b6102d1600480360360408110156102b157600080fd5b810190808035906020019092919080359060200190929190505050610a03565b6040518082815260200191505060405180910390f35b610313600480360360208110156102fd57600080fd5b8101908080359060200190929190505050610a9b565b005b61034b6004803603604081101561032b57600080fd5b810190808035906020019092919080359060200190929190505050610a9e565b6040518082815260200191505060405180910390f35b6103976004803603604081101561037757600080fd5b810190808035906020019092919080359060200190929190505050610b3e565b6040518082815260200191505060405180910390f35b6103e3600480360360408110156103c357600080fd5b810190808035906020019092919080359060200190929190505050610bd6565b6040518082815260200191505060405180910390f35b61042f6004803603604081101561040f57600080fd5b810190808035906020019092919080359060200190929190505050610c77565b6040518082815260200191505060405180910390f35b6104716004803603602081101561045b57600080fd5b8101908080359060200190929190505050610d18565b6040518082815260200191505060405180910390f35b6104bd6004803603604081101561049d57600080fd5b810190808035906020019092919080359060200190929190505050610dae565b6040518082815260200191505060405180910390f35b610509600480360360408110156104e957600080fd5b810190808035906020019092919080359060200190929190505050610e46565b6040518082815260200191505060405180910390f35b6105d56004803603602081101561053557600080fd5b810190808035906020019064010000000081111561055257600080fd5b82018360208201111561056457600080fd5b8035906020019184602083028401116401000000008311171561058657600080fd5b919080806020026020016040519081016040528093929190818152602001838360200280828437600081840152601f19601f820116905080830192505050505050509192919290505050610ee7565b6040518080602001828103825283818151815260200191508051906020019060200280838360005b838110156106185780820151818401526020810190506105fd565b505050509050019250505060405180910390f35b6106586004803603602081101561064257600080fd5b8101908080359060200190929190505050610f80565b60405180821515815260200191505060405180910390f35b6106b06004803603606081101561068657600080fd5b81019080803590602001909291908035906020019092919080359060200190929190505050611016565b6040518082815260200191505060405180910390f35b6106f2600480360360208110156106dc57600080fd5b81019080803590602001909291905050506110b0565b6040518082815260200191505060405180910390f35b60006107367f4cf1e2600046fa82c541507064934f44f313c83a7dc0d75cf59be1309a592f7e60001b610a9b565b6107627f875f67d2c19b0f9c908b0970acf8bdad56a137545ef5078246d2c8f4530119cd60001b610a9b565b61078e7fd47d26a8afd50b0ea325fb6ab07116bdfa253892201ee37f579b1a29cf348fab60001b610a9b565b6107a1828461114690919063ffffffff16565b905092915050565b60006107d77f0ddb42c85feda38edefe1bad8250f4faba06521794d35a55cb5370d8663e95a460001b610a9b565b6108037f78b192d0644f2ac890fd58f8b3f0dab743a6923f8329ef9b3f0d3be05ff0bcf560001b610a9b565b61082f7f4344c68ae676abf01e702cb7269050242b2f8532dbf5d644f4c14af54fa65dd460001b610a9b565b61083882611335565b9050919050565b600061086d7f903f79ad81aa6a2e0b9ad3012bf2274da8d58e1d63aa4f57b7dac661909f4c0060001b610a9b565b6108997f5584c60405c8b34f52a3da6bd7e7d6701035e7cc1834b1fde9527ab143718cc560001b610a9b565b6108c57f8059e8ea1806f35a13ebefd93666817ba20f685427b9812f7ba31a2019dc107160001b610a9b565b6108ce826113cc565b9050919050565b60006109037fbd04514b41ff207afd5e1fb1efd141247988ad93d47375b11b734deec20c083160001b610a9b565b61092f7f861052c5ae89a4f45286dbe9853299495a79ed21191585fa16103a1a4eed05e660001b610a9b565b61095b7fe8f1b54dd1a319006cca2d11ea8a6308efef7990bf241d9e422569037273b7b660001b610a9b565b610964826114c5565b9050919050565b60006109997f8eea88a32714ce9a81bcceb8174be68d74bbb1c0c50f40637ac521bf36757aee60001b610a9b565b6109c57fc8863146369619b382749d698d5864797ecd603fc85664cd2e372a3faf34654560001b610a9b565b6109f17fc60d0fb521788c945ec1ebee5cbb8106061365963c9381b90443f478f7ae54b660001b610a9b565b6109fb83836115c7565b905092915050565b6000610a317f857698b2b48d7b5fc3ac5151f1ede64f779902245cc7c0a7ffc3e5b58262409f60001b610a9b565b610a5d7f95d41eb6167f27cdfda132181e64664a85cad32b6650be978cfd30bb9e61d25d60001b610a9b565b610a897f7d8523d7c4e5111efb14876330747c6eb0156a32ba8b59efde130f33020b8b8560001b610a9b565b610a938383611678565b905092915050565b50565b6000610acb7eab31b757336a28d94739c2a78987ec6ca1eb41c249d69602ad4d4e6b98694760001b610a9b565b610af77f1c542d2abdf6b37e1fbe932a23d12dae59cda69f1db12600ac8f54ed5a45760760001b610a9b565b610b237f5d3e5e5bf94bdd4c1b6b100d4c909053bdd2c78026b817043aafc6a3ac7f31bc60001b610a9b565b610b36828461179e90919063ffffffff16565b905092915050565b6000610b6c7fafded7a3a2d268db0af7f917418a552a0daeaae39b772845c1077554f763b25960001b610a9b565b610b987f21e1828a1f4942f5ff22259c03b287d04e322e6db82b300901c1749df2bb0ed660001b610a9b565b610bc47f59d5431adbf5ee1f3d370edbdc19a9341feb0d51255a99a0f0b2a74dac0b0ac660001b610a9b565b610bce838361198d565b905092915050565b6000610c047fae2f870b152bccf3b2ce8bfef88bcc935267806806db177d45c0b07604dd880f60001b610a9b565b610c307f0e9b8467ff76fa56022aae69bec9556782eeae400fe12a57a9ad1e3d0cdb9b2060001b610a9b565b610c5c7f23c5e7c7910698a2ef3ec33bc6c24c24d83883f77f113be6688be0c49ee36fe960001b610a9b565b610c6f8284611a3790919063ffffffff16565b905092915050565b6000610ca57fd6fccee85af6a9f5d5db20c4b7859b0409c41631ce45c930a1e468ea7b12209760001b610a9b565b610cd17f5ab69fc0557e5117eb5a97a6c8289e7f0faca83aed8edb91a8e769e47c8fa70260001b610a9b565b610cfd7f6785c103623de811569c2ed9269c13825c802eceac2f561989078074666110ba60001b610a9b565b610d108284611b9490919063ffffffff16565b905092915050565b6000610d467fcde24bd3dba0de1ed60ee743e48f0f45458667b22ed6a6c8c93b07aa19f309e160001b610a9b565b610d727fe11a1d3954c55e7c3cf69d3531ac1decdc2ec0093947e9094daeaec193339a2a60001b610a9b565b610d9e7f2d46b01779c87c76363bffd7aef19a74750c560f1e560d8ef868f2db641cdc6460001b610a9b565b610da782611d69565b9050919050565b6000610ddc7fe99da05745793fcf55fa95844e11f361abcc586c3417dd9da8524b08dbadbb1960001b610a9b565b610e087fe7d82260a98b0de163b790c2c0e8e5fc3b2e006dca7ca5b6926cb307fb061a3c60001b610a9b565b610e347f2ca6a95975dde74ac72957726b36c795aa9330a2c66c36ebc099f12832e074c960001b610a9b565b610e3e8383611e68565b905092915050565b6000610e747fa8c030ea311a312adf4b6c50dbce9a0f1f043659b5576f43e153ef415c11367160001b610a9b565b610ea07f119b7525d4f7e17fd13dce65d30739bf4bf82ae86a6adcdc944a632eb0e9c37560001b610a9b565b610ecc7fb6b220fff9373d3d87ef70adb49dcd502e2838cad263278a668902c9492b84f660001b610a9b565b610edf8284611f1990919063ffffffff16565b905092915050565b6060610f157fe0928874e216100604d5e5f206a5ef886e590d19a7a0137ced83c222c91924c260001b610a9b565b610f417f2fabde35ff1aaba79c4a82121f0647c39909d9a40356bcbbe6d45ad5539d8ece60001b610a9b565b610f6d7f212fe911f65984e8b38edcd8daf9f73fd95f41a25a262f41804758d798c6b98560001b610a9b565b610f76826120ee565b5080915050919050565b6000610fae7fdd2247f5691d19099d81ddb62006251dd191cce0d5225e40b4c91704a6591de760001b610a9b565b610fda7f653ea3b09950a804bbf8f03e1c21b63e85638fad1e965b21c7a9838eec34af7b60001b610a9b565b6110067f180beb0acdef885d52991043e69d2f0ee92e85d1f2b272c8e6c02871765b7a3c60001b610a9b565b61100f826123e9565b9050919050565b60006110447fec9e1282f6e346b2c2acd44cf190bd7df18cdc3968a3949e883d201190d7a43560001b610a9b565b6110707f72422da6c4100bbb5c5fd487ab8a5fd5a59322a2701bffae4234970d85a2017960001b610a9b565b61109c7f3e2778f7bf10e20d32a7fd0292ec1703cb1d9336c5795f56a34d57b936d0ada360001b610a9b565b6110a78484846124f9565b90509392505050565b60006110de7ffb34ab3da516076c3a371da3d9def49e27f67620ad6e23102957aebd9986e0e860001b610a9b565b61110a7f0849b43512554d2172c32ca6721548916ed29f4bb6ae3970f70490bde0de333260001b610a9b565b6111367fe51add1607171aa18711816197166c9c42c8e69f0c0ea07455eb68265b05065960001b610a9b565b61113f82612674565b9050919050565b60006111747f855f43d164e9d4b9e3c73704fb5544d82898584143f0d23e43c523e074cdf07d60001b612714565b6111a07fcc1cfdff19ea17c6e3249ce8d1ef9545ab14e845761a05e99fc0dd18c09ddf5760001b612714565b6111cc7f5eb93de7a9ee335b865f5d21b3fed36ff705efb7ab8c62bd89014294278e713460001b612714565b60006111e9836111db86611d69565b61271790919063ffffffff16565b90506112177feb7d4156b594fcf2ab988023a105be3c357c6765583284fb5687ea530671635f60001b612714565b6112437f0cf225fe524ddad26d40dc5fab5b0d16e62f0dabdbf3c649a5d6ae1728451bcf60001b612714565b600061126084611252876114c5565b61286c90919063ffffffff16565b905061128e7fdd4f04add8ffce48968a4786911470517d10e880720e593f19b968b0e8b497ca60001b612714565b6112ba7fa85ce28bc1052da72b76fb06238cea3903aa3ea14669f21582f2a2ca9c66c76060001b612714565b60006112c5866113cc565b90506112f37ff6671595cde5ae67a5e609033f7b7c9370566534915c03b40df310ed3d1fb2d160001b612714565b61131f7f3ce7eeba48db3703bc32cfbfb1ccd1c79bfb06a8d762c38fee9858b3dc675f7960001b612714565b61132a8383836124f9565b935050505092915050565b60006113637f42fc1a233d8df1175c048dadfe5b855bd86072db13a55e0bfacd261e7eb976e060001b612714565b61138f7fff3eb537d215f0097cc84c2910492895cb0bfcd17a9a55792de7f72a3aefb65b60001b612714565b6113bb7f41b76f6bc759a107cc376721326f2735deab429d6de9d0a187ca179260b973ae60001b612714565b6113c4826123e9565b159050919050565b60006113fa7f91366d17c834c634506c252fd6c30c7a45cc2d1b7b2841888d64c0d2367dfc7b60001b612714565b6114267fac7715bb704d1a7ee2dc86c71ca80460b37cda8439885fd239935bb85a663f4960001b612714565b6114527f26e9b4d6ef1a1363f2bd6bb557a6599b2c2c20279f2936e8f226a333b72e573a60001b612714565b600063ffffffff90506114877f9d1582b0b76b67f7cb9e48f771043eea7a87e52d6fc37f8f5e6f86b45ec1c1fc60001b612714565b6114b37f9e004494ce4cbbc62288ddbd3c199b1a0d3d8c9337cf540bd319edd40164a08260001b612714565b8060e084901c60001c16915050919050565b60006114f37fa2e125b159483c85a94a2f87a5649f3ce30c53a11a0e321b3794f57622ebf43b60001b612714565b61151f7f2e3ed75b388edca7245c070cb882b7f569f84a3c662f80d533b07dad33d7443960001b612714565b61154b7fe09e1eadb126c3afed05fe39ee4931a7cf14ccf6b133218b03af7b0952c9fc0660001b612714565b60006dffffffffffffffffffffffffffff90506115897ecf5d73cda85198cc211574b3f0110ddc96fe6012dcc30675de325af4de038e60001b612714565b6115b57fcfe436da3d37981382361f1251abc871dc5677afd5a8b0165b990e0f0eee34fb60001b612714565b80607084901c60001c16915050919050565b60006115f57f39b036da67c19f371b66abf0a40cb4f03456269c6b691cb00a65aa0727e24d9360001b612714565b6116217f7ede4080ead0baf21a570718b79a09818ffb5606863d14ff107a7acd58e4755360001b612714565b61164d7f458a2be1d6114f19aa7936ccb52731b4dddf600bc0aceab75b8bad67b68285eb60001b612714565b611670611659846129c1565b611662846129c1565b61166b866113cc565b6124f9565b905092915050565b60006116a67f357e2d6a208eae3936c653811d195987125ba3ad5e65e55afb2efa352ef4a37e60001b612714565b6116d27fb73f32716e6626d6cc91d5122dc8df49fe907dda0e34257db87ee3fce00f125a60001b612714565b6116fe7ff573688f2db86f38407f0c3040335c23d6064a5043a213a79a8d358511e433c660001b612714565b600061171a61170c856113cc565b611715856113cc565b612ac4565b90506117487fd03e8aed8b4195e72863bd9920ec04127e70e736062d9ec5dcd5c15effdf124360001b612714565b6117747fc0ed2de52c0619738a6c8fa1883fce0ebe4222e68e992cf0a584a5f14257cee560001b612714565b61179561178085611d69565b61178985611d69565b8363ffffffff16612b62565b91505092915050565b60006117cc7ffcfbc1c37cde87a8a4f80766f7d7bffeeb21334006309e6d67a1592b6bce7ef560001b612714565b6117f87f08e3817c869fdbb862a84cd75450babfa2f425e690e79b4cdc1247226ca14e6b60001b612714565b6118247f17bf626cd441f9c3d4b5551336ea7bf89d4cde4429c7409c81ac0e3c52672bcd60001b612714565b60006118418361183386611d69565b61286c90919063ffffffff16565b905061186f7f84c57c87dfe6737e2e3b57454c6c2594dcb32ad543022ac74e1475a627fce0b360001b612714565b61189b7ff21f184aa2a8e5f8eafc053ff5cfaff094d82f45d7d2327b388b78d1c6dea8ad60001b612714565b60006118b8846118aa876114c5565b61271790919063ffffffff16565b90506118e67f1d777e4a31513f2be9e68ec7e097cb18f3fbf5b1d1ed387a1d34db3d5ab5f47160001b612714565b6119127f533c3b7601614ed4637713032efa466b7b8c46e6e6aa52289f4f434f0013f0ff60001b612714565b600061191d866113cc565b905061194b7f8e71dca6e8be7d5550cc6d1d3bc33ad618d4aa500a6a48175c960152d54283eb60001b612714565b6119777ff5861bb2ecbca537343330f64c567ff2629a70ced57f61c3c41a3d9858be1c0160001b612714565b6119828383836124f9565b935050505092915050565b60006119bb7fb9865b72b30afb3ea4e0eb1ac0390770044606727adb21a4e6f703e50d61c85760001b612714565b6119e77f777c4c0dcb4e4148360abae8fc917e2671ad9990eb73ce291d60fb8e69661aec60001b612714565b611a137f2c29f6b613248c398848fe2c629deaa92a955e491366eeb065f0623c82cf61c260001b612714565b611a2f611a1f846114c5565b611a28846114c5565b6000612b62565b905092915050565b6000611a657f4a09fa13ffb0a11b6e1390b613dd409ade0c66146779a8e36112d499c47e636e60001b612714565b611a917f528374f79d7772d2ffe7cc0e0c8fa76d61b0ea2c5cc54ba6888e8a0e732597aa60001b612714565b611abd7f86560798e06223710fa1146ca12306b3071784e73df7593af7f8573d7d15bbee60001b612714565b6000611ac884611d69565b9050611af67fcb33232846558b353b5f1f3a6936fc3c65b3f30081c4757e17abfb01e08089a260001b612714565b611b227f04d746c5f00b164898ee79d7b839cc4a4168a2f3743f49f49102d405b85bcb9460001b612714565b6000439050611b537f3be35d5b69143acf051aa56ef6e26ff96f5772cdcf93a120895308a4c574cac260001b612714565b611b7f7f31832d7149ffaebd5a7400a3c042a7c56fe186f81bda906f8d808eb12cf74af760001b612714565b611b8a8285836124f9565b9250505092915050565b6000611bc27f46d3360b88abea9e75312da497b636f977555adc4ca485ab41a6983a1570b51660001b612714565b611bee7f053d653fabd415f9d70d23c5911c0befaff42a6e96de6d7c7a9cbe3641d4f31d60001b612714565b611c1a7fdf520ecf1e01ee6b4cbb96cee680b1f0e1862a142e0e6d4083ebcf4171b4d3b560001b612714565b6000611c3783611c2986611d69565b61286c90919063ffffffff16565b9050611c657fa7070e93be6f00c5f943f32bfa2e3cd4f74cd5b65b221819065c4710073b764560001b612714565b611c917fc0abe87791df49e551f0e920a19bc6551b2bb4759f96509a0a5c2bb13b89de0660001b612714565b6000611c9c856114c5565b9050611cca7fce982957c3ad32c8752dfb2294e955e81022c9106453d0092e551b218873553460001b612714565b611cf67fbf8e35890c7c9dce70ce7aaf4ca18b6f7b11301d99deb1c46deb9947004f82ea60001b612714565b6000439050611d277ff36f557f93169706c2ef1c4d57140fdf658c83f9f62bb5a33407e0680c99035460001b612714565b611d537f4e0b3c765e59685c197a0c8b89cb6c33a3071d8e77fccf9face487fa92c946c860001b612714565b611d5e8383836124f9565b935050505092915050565b6000611d977fdefcbbab1be3f0964fa92f75df49009363ac64f3d9ec531f5242bba6a2d6b51460001b612714565b611dc37fb3cc1d01130e713d3d2c4f0409875bdd93ae6a968a82ae6a47e1faf23c55a9c560001b612714565b611def7fdd68c366df57c4a359c1a3f9c95d3bd40363238a3552f27dc9d71610380ddb6760001b612714565b60006dffffffffffffffffffffffffffff9050611e2e7ff29a4b6a859faca0867322942be5dee573068dc53669993322bb31a1c2d5fc9860001b612714565b611e5a7fa37784b26ee3dc8e93056c7642232f306001a744ccea1b659cf981e3ac4dd3e760001b612714565b808360001c16915050919050565b6000611e967f63906137a925283a3cada9bb3dfb6cf22b2cabc726542c61ab70f4bc22c8be4b60001b612714565b611ec27f40aff145305a51d12536a4e30bd49d4b774d3b88df85378c328fd15245ec970c60001b612714565b611eee7f1d8efae3f1b67f4734285549d70f386ec136987944da4011a77082596996971560001b612714565b611f11611efa84612c01565b611f0384612c01565b611f0c866113cc565b6124f9565b905092915050565b6000611f477ffe27b17c30751fffa7576b3bbfec4f26542568aad78badf0980c8f155fd346ef60001b612714565b611f737f7faa53215e0b6a2587e7d83260d270cd9fab7be9cb93b254570c4901eec46a4e60001b612714565b611f9f7f34913f77be1f4efd5542290698cbcc1549c9ffd518170865dee7bd279cb0041160001b612714565b6000611fbc83611fae86611d69565b61271790919063ffffffff16565b9050611fea7f9f4f8cbe38ed7913f66edcdb54e82bddfd58dd1640089062b2cc6ea984e363a060001b612714565b6120167fd5b6ec1972c985a54eb02407a080262298e02bc6a48fc3c32ec10f101317017460001b612714565b6000612021856114c5565b905061204f7ff1d44286c0fddffbbc163ce46ffc2bf97fb1207467df2079f0ca311cea83278060001b612714565b61207b7fadfdcb0573338e957cc93bc5ea194dafbe3c003e88a000e61cf72c234cfb216360001b612714565b60004390506120ac7f9c0840b5b97c71fb4de8ed3defa48bc9407c23d86f6e51773c2491e8b570a1c360001b612714565b6120d87f82c8601ffacfc9644f3cc707e262b1ce8b69a71943b2944cce5c85e2b488235d60001b612714565b6120e38383836124f9565b935050505092915050565b6060600061211e7ff84abc32b49fe732cb0bdd1dd1eac799c463ae2382b132bbac5461e6fafa79ae60001b612714565b61214a7fd67be3ffcd1fcffd8e0c4a5a06abaf5a9256c0ae62e562b16ea2014b20746cda60001b612714565b6121767f84536420e6a889d98bf6255f86912c66759e76a88d12122254111c3fad9a5e6160001b612714565b825167ffffffffffffffff8111801561218e57600080fd5b506040519080825280602002602001820160405280156121bd5781602001602082028036833780820191505090505b5091506121ec7fb063e9c58de19b8fffb4bf35f4c86d6fb909b95f20f347d0d6f6c9d286f26aa160001b612714565b6122187fcf72091b82e219f313de4e2b0517c169758607792678c5a0bb33bad64e0f6bae60001b612714565b600090506122487ff6938659595c23466693f08e3b6842d65f9f1bc8be7598bd576d6f9ec107033160001b612714565b6122747f85cbd3df4d512af0d9b0d9a0379132e85e266b3f0f7d6183b05f740d7265407460001b612714565b60005b82518110156123e3576122ac7f1ccaaf71486945db037bef04fa0e02aae2725f43ca1dd09213111193d0c7817760001b612714565b6122d87faa2561272e86021bc37c3ba96661657f78c3caf602eacb6c530a69a7a45937f260001b612714565b60008482815181106122e657fe5b6020026020010151905061231c7f8fa6e2215a68bd9808d19d0e374d0056a30ec28fe829adaa15c57344ce7c9f3e60001b612714565b6123487f43a8ad64e2b8e99b942cd3130de9d81ea543d157ba5e1e3f95361fdbe1090f7360001b612714565b61235181612674565b84838151811061235d57fe5b6020026020010181815250506123957f08b1c35d87a0c565966d13ce31cac8f03bd25211d239aeed28971b05eeec5f5560001b612714565b6123c17f72248361730804ecf78a46f0b09b0480cea9cd05637e2599252a778cd00f577360001b612714565b6123d3836123ce836113cc565b612ac4565b9250508080600101915050612277565b50915091565b60006124177f033082c09064907f17f3c1769cd06c4977f7a9a5d574cf4cd7321579890ad2ca60001b612714565b6124437fc3438ced880986e2f288c5df5d609b00f487ee1ed837e520360e8d533c2af6ee60001b612714565b61246f7ff4c6acb82538edd678ec1fddfd58e172e5fe0e8def067cdc395dca8c40f848d560001b612714565b60007bffffffffffffffffffffffffffffffffffffffffffffffffffffffff90506124bc7fb53611e74a61c62275bec39275af848b838f6cacd41ab1dc98fcc015c97c68f460001b612714565b6124e87f46e4aa210b366f38190f0690df5fa1b470cd0fa5ce132554e49f03fb01547bc860001b612714565b6000818460001c1614915050919050565b60006125277faeb9412062ffaa7d13cd4a4d619e931d7e56261c5f652d90fa96483aa6698d7c60001b612714565b6125537f54c0ca2bec443bcaa80e40644b2dc5fa8855fcce0601534e2b6fcbd7062bdde560001b612714565b61257f7f7953f99b72608c474daecaca8e36154a572a0defc30162d71b32f41e6c1d8e4d60001b612714565b600083850190506125b27f504ebc1bc90eb25cc262b7cad40a794f6a03e64352eea34ea9d23974d0023d6a60001b612714565b6125de7fda9889091ad53fc3b74a5bf2db927109a00361eebedeac06ddf5ddadfb1a0eec60001b612714565b6126078582101580156125ff57506e01000000000000000000000000000082105b61020e612d00565b6126337f3aa17d7ff56bbf05397552a2bb16157881ffa614a361b61c0381a5410f939d6360001b612714565b61265f7f0b8f644acbc50c09d3ca1dfbcf99a426255231c062887350a3e21ee8bb26551460001b612714565b61266a858585612b62565b9150509392505050565b60006126a27f651fbf69fd3ca5ac1ad7362facba6cc74e5ba737740bd591d5bd4824e8b4384660001b612714565b6126ce7f430b5bd5343cb70529caee4e8d1d5902718c751f38d0559ffb64b484ca63571160001b612714565b6126fa7f1a76422f2725ffcc224c82588b5fdc4feb549e24dedbc5467b058d6bf5eb322160001b612714565b612703826114c5565b61270c83611d69565b019050919050565b50565b60006127457fd3476389c9167915828e1c41fd58b501be617f81bcda7df7905ebaa183b3c4bd60001b612d13565b6127717f763e3966e690f5b421dcd041f04b48a1b193ed59a99cfdb60b67ab3dfbf2eab360001b612d13565b61279d7fd040ddffed94a5c3f1ea2412fc14f14911f62630c664bb38108164ba34c6c5bb60001b612d13565b6127ab838311156001612d00565b6127d77fc95d13badf35636a18cef429a1cc30fcff497d0f377233d60d91a54b5222bb6b60001b612d13565b6128037f28183ac30fe9ec9460a9d28cb4e04f1c3d89222564c20b044bc81e450ef8cb9760001b612d13565b600082840390506128367f2996cf182068f32853c4842e48ae8391b1959ea375b654bf401398afae3fb9a460001b612d13565b6128627ffd16e19fe244cb693efc31c873bf159b238b28cd50bd7fb58b14e97f7b30750760001b612d13565b8091505092915050565b600061289a7f980f096ce2354611f661d545348edfcdbcf347f2d4fa9c9e2bc2234b96619b9160001b612d13565b6128c67f5203ec7b278d868f845c81d7f208837a954291190f8034ff73f1abf34395aea660001b612d13565b6128f27f257b57fe7b6efcf88210c6d37adeac50f6bdc1270dca168497530cb49198dc7060001b612d13565b600082840190506129257f2712f69a57bae2ee34b696a2281d5fca60f12eef2753ba12e108837883591b0f60001b612d13565b6129517fa9717274421667e304f7b258221f6f83cbc1a3c12db3869b2bd07495ef02a7c060001b612d13565b61295f848210156000612d00565b61298b7fbb23a54f86bc4ea5e593a05f1ed17e1f4ec085fd337eb065fd05171873fa78d860001b612d13565b6129b77f59b5f75a5714feab22828cb70c6ca1fd02547b7956d33b95658dc4dec174169460001b612d13565b8091505092915050565b60006129ef7f50f7168ee65f2029163c6621299ab44adf75765d5a93e2a780395ca1557ae87c60001b612714565b612a1b7f432d55aefe608c5a4bc2de4ec5a4ab6c7524f0da668451c952fdb4898532307b60001b612714565b612a477f8ed56c1f4824ce6cf8be5f9c19f981ecd8f602dc5721932d9146d7c58de402e560001b612714565b60006dffffffffffffffffffffffffffff9050612a867f946b824feeec3105d4171eafc5dc7215e28358d5531b0f6053c73d8c8ba7992c60001b612714565b612ab27f326e12aaaafcb16f94e6704398e3324cf277f0b37f9f8ab8abfe577a06b190da60001b612714565b80607084901c60001c16915050919050565b6000612af27f7cb45b78c97ea7383e9fcb81d497198c628ff028ffc6f324f1ceecccc04cb59b60001b612d13565b612b1e7fb3656ecde4040e1bbf22fdb3305656ebaef9ce03a867e318dd2675414787d4e060001b612d13565b612b4a7fa9adef01af328324ee6569271fad04725ea685a815a37b6a0fb2771309e9110360001b612d13565b81831015612b585781612b5a565b825b905092915050565b6000612b907f4ef9aeff3b518ad2c74cb17a1e78784e9f1c3239a3cbe8093af994d73174104e60001b612714565b612bbc7f2e923dfa249a54166ccb61722a1ff7d4c330a977022cc8c5f85e461756180d6960001b612714565b612be87fbb001896cb904fc649a0494ba04e44e1d30df10262e639e7f5c9cf733dfd129960001b612714565b83607084901b60e084901b010160001b90509392505050565b6000612c2f7feaef49a7ee437bca457e7ad714e994beb71f0d1ab4a93993a3a4f651635171a960001b612714565b612c5b7f77a7ff36efc470c6c534177ba767c4badf12a28bb03d7116d964717503f31a5460001b612714565b612c877fb9715023634e543a7db27caf170b20f70475c717ba13ff09051583dcf766b14460001b612714565b60006dffffffffffffffffffffffffffff9050612cc67f594f71877354ae61ef2df4dccdb6485c78165098e6ee02bca37b422adabcdfa060001b612714565b612cf27f21682b9982bba150a48c8e9ddc42395f953dd46a99685fe490230cfb3f681a3c60001b612714565b808360001c16915050919050565b81612d0f57612d0e81612d16565b5b5050565b50565b6030600a820601600a820491506030600a830601600a830492506030600a8406018060101b8260081b8401016642414c230000000160c81b7f08c379a000000000000000000000000000000000000000000000000000000000600052602060045260076024528060445260646000fdfea2646970667358221220cf209befa0c144bbe4617a74b1fc5acaf8210f8edfadbd93c3609c9f0be2ad6764736f6c63430007010033",
  "linkReferences": {},
  "deployedLinkReferences": {}
}