{
  "_format": "hh-sol-artifact-1",
  "contractName": "BalanceAllocationMock",
  "sourceName": "contracts/balancer-core-v2/test/BalanceAllocationMock.sol",
  "abi": [
    {
      "inputs": [
        {
          "internalType": "bytes32",
          "name": "c__0xdeaaea9b",
          "type": "bytes32"
        }
      ],
      "name": "c_0xdeaaea9b",
      "outputs": [],
      "stateMutability": "pure",
      "type": "function"
    },
    {
      "inputs": [
        {
          "internalType": "bytes32",
          "name": "balance",
          "type": "bytes32"
        }
      ],
      "name": "cash",
      "outputs": [
        {
          "internalType": "uint256",
          "name": "",
          "type": "uint256"
        }
      ],
      "stateMutability": "pure",
      "type": "function"
    },
    {
      "inputs": [
        {
          "internalType": "bytes32",
          "name": "balance",
          "type": "bytes32"
        },
        {
          "internalType": "uint256",
          "name": "amount",
          "type": "uint256"
        }
      ],
      "name": "cashToManaged",
      "outputs": [
        {
          "internalType": "bytes32",
          "name": "",
          "type": "bytes32"
        }
      ],
      "stateMutability": "pure",
      "type": "function"
    },
    {
      "inputs": [
        {
          "internalType": "bytes32",
          "name": "balance",
          "type": "bytes32"
        },
        {
          "internalType": "uint256",
          "name": "amount",
          "type": "uint256"
        }
      ],
      "name": "decreaseCash",
      "outputs": [
        {
          "internalType": "bytes32",
          "name": "",
          "type": "bytes32"
        }
      ],
      "stateMutability": "view",
      "type": "function"
    },
    {
      "inputs": [
        {
          "internalType": "bytes32",
          "name": "sharedCash",
          "type": "bytes32"
        },
        {
          "internalType": "bytes32",
          "name": "sharedManaged",
          "type": "bytes32"
        }
      ],
      "name": "fromSharedToBalanceA",
      "outputs": [
        {
          "internalType": "bytes32",
          "name": "",
          "type": "bytes32"
        }
      ],
      "stateMutability": "pure",
      "type": "function"
    },
    {
      "inputs": [
        {
          "internalType": "bytes32",
          "name": "sharedCash",
          "type": "bytes32"
        },
        {
          "internalType": "bytes32",
          "name": "sharedManaged",
          "type": "bytes32"
        }
      ],
      "name": "fromSharedToBalanceB",
      "outputs": [
        {
          "internalType": "bytes32",
          "name": "",
          "type": "bytes32"
        }
      ],
      "stateMutability": "pure",
      "type": "function"
    },
    {
      "inputs": [
        {
          "internalType": "bytes32",
          "name": "balance",
          "type": "bytes32"
        },
        {
          "internalType": "uint256",
          "name": "amount",
          "type": "uint256"
        }
      ],
      "name": "increaseCash",
      "outputs": [
        {
          "internalType": "bytes32",
          "name": "",
          "type": "bytes32"
        }
      ],
      "stateMutability": "view",
      "type": "function"
    },
    {
      "inputs": [
        {
          "internalType": "bytes32",
          "name": "balance",
          "type": "bytes32"
        }
      ],
      "name": "isNotZero",
      "outputs": [
        {
          "internalType": "bool",
          "name": "",
          "type": "bool"
        }
      ],
      "stateMutability": "pure",
      "type": "function"
    },
    {
      "inputs": [
        {
          "internalType": "bytes32",
          "name": "balance",
          "type": "bytes32"
        }
      ],
      "name": "isZero",
      "outputs": [
        {
          "internalType": "bool",
          "name": "",
          "type": "bool"
        }
      ],
      "stateMutability": "pure",
      "type": "function"
    },
    {
      "inputs": [
        {
          "internalType": "bytes32",
          "name": "balance",
          "type": "bytes32"
        }
      ],
      "name": "lastChangeBlock",
      "outputs": [
        {
          "internalType": "uint256",
          "name": "",
          "type": "uint256"
        }
      ],
      "stateMutability": "pure",
      "type": "function"
    },
    {
      "inputs": [
        {
          "internalType": "bytes32",
          "name": "balance",
          "type": "bytes32"
        }
      ],
      "name": "managed",
      "outputs": [
        {
          "internalType": "uint256",
          "name": "",
          "type": "uint256"
        }
      ],
      "stateMutability": "pure",
      "type": "function"
    },
    {
      "inputs": [
        {
          "internalType": "bytes32",
          "name": "balance",
          "type": "bytes32"
        },
        {
          "internalType": "uint256",
          "name": "amount",
          "type": "uint256"
        }
      ],
      "name": "managedToCash",
      "outputs": [
        {
          "internalType": "bytes32",
          "name": "",
          "type": "bytes32"
        }
      ],
      "stateMutability": "pure",
      "type": "function"
    },
    {
      "inputs": [
        {
          "internalType": "bytes32",
          "name": "balance",
          "type": "bytes32"
        },
        {
          "internalType": "uint256",
          "name": "newManaged",
          "type": "uint256"
        }
      ],
      "name": "setManaged",
      "outputs": [
        {
          "internalType": "bytes32",
          "name": "",
          "type": "bytes32"
        }
      ],
      "stateMutability": "view",
      "type": "function"
    },
    {
      "inputs": [
        {
          "internalType": "uint256",
          "name": "_cash",
          "type": "uint256"
        },
        {
          "internalType": "uint256",
          "name": "_managed",
          "type": "uint256"
        },
        {
          "internalType": "uint256",
          "name": "_lastChangeBlock",
          "type": "uint256"
        }
      ],
      "name": "toBalance",
      "outputs": [
        {
          "internalType": "bytes32",
          "name": "",
          "type": "bytes32"
        }
      ],
      "stateMutability": "pure",
      "type": "function"
    },
    {
      "inputs": [
        {
          "internalType": "bytes32",
          "name": "tokenABalance",
          "type": "bytes32"
        },
        {
          "internalType": "bytes32",
          "name": "tokenBBalance",
          "type": "bytes32"
        }
      ],
      "name": "toSharedCash",
      "outputs": [
        {
          "internalType": "bytes32",
          "name": "",
          "type": "bytes32"
        }
      ],
      "stateMutability": "pure",
      "type": "function"
    },
    {
      "inputs": [
        {
          "internalType": "bytes32",
          "name": "tokenABalance",
          "type": "bytes32"
        },
        {
          "internalType": "bytes32",
          "name": "tokenBBalance",
          "type": "bytes32"
        }
      ],
      "name": "toSharedManaged",
      "outputs": [
        {
          "internalType": "bytes32",
          "name": "",
          "type": "bytes32"
        }
      ],
      "stateMutability": "pure",
      "type": "function"
    },
    {
      "inputs": [
        {
          "internalType": "bytes32",
          "name": "balance",
          "type": "bytes32"
        }
      ],
      "name": "total",
      "outputs": [
        {
          "internalType": "uint256",
          "name": "",
          "type": "uint256"
        }
      ],
      "stateMutability": "pure",
      "type": "function"
    },
    {
      "inputs": [
        {
          "internalType": "bytes32[]",
          "name": "balances",
          "type": "bytes32[]"
        }
      ],
      "name": "totals",
      "outputs": [
        {
          "internalType": "uint256[]",
          "name": "result",
          "type": "uint256[]"
        }
      ],
      "stateMutability": "pure",
      "type": "function"
    }
  ],
  "bytecode": "0x608060405234801561001057600080fd5b50612dbe806100206000396000f3fe608060405234801561001057600080fd5b50600436106101365760003560e01c8063736ea832116100b2578063ce83307711610081578063dd64691711610066578063dd6469171461062c578063e1ac202214610670578063fba56f52146106c657610136565b8063ce833077146104d3578063d6c752c51461051f57610136565b8063736ea832146103ad57806393b9de4c146103f9578063a44bed6214610445578063ac0177a91461048757610136565b806351b311f011610109578063595e098a116100ee578063595e098a146102c95780637171e37f146103155780637323e7ca1461036157610136565b806351b311f01461024f5780635791e09d1461029b57610136565b8063256da6301461013b5780633a1f6e15146101875780633f7e18a5146101cb5780634ca27dff1461020d575b600080fd5b6101716004803603604081101561015157600080fd5b810190808035906020019092919080359060200190929190505050610708565b6040518082815260200191505060405180910390f35b6101b36004803603602081101561019d57600080fd5b81019080803590602001909291905050506107a9565b60405180821515815260200191505060405180910390f35b6101f7600480360360208110156101e157600080fd5b810190808035906020019092919050505061083f565b6040518082815260200191505060405180910390f35b6102396004803603602081101561022357600080fd5b81019080803590602001909291905050506108d5565b6040518082815260200191505060405180910390f35b6102856004803603604081101561026557600080fd5b81019080803590602001909291908035906020019092919050505061096b565b6040518082815260200191505060405180910390f35b6102c7600480360360208110156102b157600080fd5b8101908080359060200190929190505050610a03565b005b6102ff600480360360408110156102df57600080fd5b810190808035906020019092919080359060200190929190505050610a06565b6040518082815260200191505060405180910390f35b61034b6004803603604081101561032b57600080fd5b810190808035906020019092919080359060200190929190505050610a9e565b6040518082815260200191505060405180910390f35b6103976004803603604081101561037757600080fd5b810190808035906020019092919080359060200190929190505050610b3f565b6040518082815260200191505060405180910390f35b6103e3600480360360408110156103c357600080fd5b810190808035906020019092919080359060200190929190505050610bd7565b6040518082815260200191505060405180910390f35b61042f6004803603604081101561040f57600080fd5b810190808035906020019092919080359060200190929190505050610c78565b6040518082815260200191505060405180910390f35b6104716004803603602081101561045b57600080fd5b8101908080359060200190929190505050610d19565b6040518082815260200191505060405180910390f35b6104bd6004803603604081101561049d57600080fd5b810190808035906020019092919080359060200190929190505050610daf565b6040518082815260200191505060405180910390f35b610509600480360360408110156104e957600080fd5b810190808035906020019092919080359060200190929190505050610e47565b6040518082815260200191505060405180910390f35b6105d56004803603602081101561053557600080fd5b810190808035906020019064010000000081111561055257600080fd5b82018360208201111561056457600080fd5b8035906020019184602083028401116401000000008311171561058657600080fd5b919080806020026020016040519081016040528093929190818152602001838360200280828437600081840152601f19601f820116905080830192505050505050509192919290505050610ee8565b6040518080602001828103825283818151815260200191508051906020019060200280838360005b838110156106185780820151818401526020810190506105fd565b505050509050019250505060405180910390f35b6106586004803603602081101561064257600080fd5b8101908080359060200190929190505050610f81565b60405180821515815260200191505060405180910390f35b6106b06004803603606081101561068657600080fd5b81019080803590602001909291908035906020019092919080359060200190929190505050611017565b6040518082815260200191505060405180910390f35b6106f2600480360360208110156106dc57600080fd5b81019080803590602001909291905050506110b1565b6040518082815260200191505060405180910390f35b60006107367f6212b6a302a329a13cef96d5fe9074dcc471dbef38b2c133767d0337e2ede04060001b610a03565b6107627f20ffb544b097c00566f48d1b0d6dbc012ae96b5ce1cefc1fd39238efd6430fa460001b610a03565b61078e7f040a3375f77b26544ff8059ab1e2cff3d53eaf14cea310c4f7914ae22fdf867960001b610a03565b6107a1828461114790919063ffffffff16565b905092915050565b60006107d77f60028520d3b53fe106585213573034a21e893987dfe5481f21b2d9f3b69f551460001b610a03565b6108037f261dd6a5c180591c31d416f108a0b1c88b6a2e49b352709cc2ed902fcabe139b60001b610a03565b61082f7f48721765f851713de1775a5a5786c04509c85fd89ece0a6226f50b023dcd110560001b610a03565b61083882611336565b9050919050565b600061086d7f04972534a55f326fe5de21ef95abce80b6780a28f8df7f4c29ec145913f6d1da60001b610a03565b6108997f8aba2dd9877a7f3fc2fd0e88c2654ceb96b3eee7735116c448a51bd50d3bee2460001b610a03565b6108c57f02a56bdcfd6135c01afa43d748a4a1e2d453ff2e3e47daa3d1d5b9f73a3e2fa360001b610a03565b6108ce826113cd565b9050919050565b60006109037feadaf7922acff336277b907504ba44c589b07add9181ce7773323fad2b07e4be60001b610a03565b61092f7f95c843545ec0c24e5fe751854a56f73c62e64b2813cf27eb41a47903048e581e60001b610a03565b61095b7fdb7618893f5dd9dc2f20c30c85b4b3b85b20d2b0dce22c10f3782fbb9c450d4d60001b610a03565b610964826114c6565b9050919050565b60006109997f9026fb39cc567d3085265c9244bbe169d2e83d8f0c041dcc92ed1c6fb759dc8560001b610a03565b6109c57f0315f310472482258f526ddf79d8cfabb7ae1f90088caceae3cb832e6bf1bb8060001b610a03565b6109f17f7fd09946bb1b38e884994551522a92dfe5fdb897749d4dc2edd2e09eda129c2260001b610a03565b6109fb83836115c9565b905092915050565b50565b6000610a347f37561cf355054c634c9a3e587e4b782377417531b8b8090e989f45cc57c8ad8d60001b610a03565b610a607f0622f1d09bd9b075056573e618510d36efe562751871b8b529a9c5cefdda92b560001b610a03565b610a8c7ff54b16efbe30046fd698651dc117f65ecd2e43fe345180bffb0da0e00f9db86c60001b610a03565b610a96838361167a565b905092915050565b6000610acc7fd6f75c58d0242c231c0d3744144fd43c008e23e0074ccc54096151ae568da9c860001b610a03565b610af87f16ed9709175cfd3d6aae404e6136fa9b72f02706734336803355305dd77e84ee60001b610a03565b610b247f6daee12d4fa6082354a253944997ae4165165a21e44eddc58a5b529e78566b3360001b610a03565b610b3782846117a090919063ffffffff16565b905092915050565b6000610b6d7f2f90f8665a894bb6a3ef101cf5a9ab65da0d8402820338785e11238a54a9520f60001b610a03565b610b997f1cdd3b0332963e6fa361c2fc032917658f44ee103eadb8a46d277163752a57e060001b610a03565b610bc57f996090107dfc3e7b08dab275331e6c7274504f08e14feeaa54fd8dd16b4de9b260001b610a03565b610bcf838361198f565b905092915050565b6000610c057f14554cfcfad0db4165a5eaffc4671f31f7f5a6473ab241ab95b2a6aa011f03f660001b610a03565b610c317fbab75e0810548904fed4f3053d767adae2cd8fcafc18cfcc168677f5085bf09760001b610a03565b610c5d7fb679dee507d324c88e4e7a4309193468adb1b57d74eb10c61a4e7ec6eb974c0e60001b610a03565b610c708284611a3990919063ffffffff16565b905092915050565b6000610ca67fa2d3a9007fbbb4b6a0b1d43215f315561640665949695f89666ba35b6f7b621c60001b610a03565b610cd27fe5e05656389c7aad449c69c7ca543d10c20354fd41f49dd72cf3f438807fc0ec60001b610a03565b610cfe7f24e48b704e8e6ab4aaeadbb11ab902ba45e8d62a58dcfe34b9ddb7115f5ddd8360001b610a03565b610d118284611b9690919063ffffffff16565b905092915050565b6000610d477fbfccbdf9b510487b22d812d6e13af638621b0894a8aaa6660cec268e908ad6b060001b610a03565b610d737f5272f9e3a315f76af44fd9d17a5ed8777837ab8ab061f5d218d225eec31c555c60001b610a03565b610d9f7f8a07432f73d658ce23bd0df410cf4d9f37ea6203ad35f89906bf142ef32957b660001b610a03565b610da882611d6b565b9050919050565b6000610ddd7f677c7044a7210472176385e37b165826cf4ff56c15265a79b1c50e4000cae62560001b610a03565b610e097fb8e7a3c3a6aaa9092c81aaff6ea89117444ed88ea245b63b71b65a2b526b0ac760001b610a03565b610e357ffc7ca3c14c64697c7377a2a5c98c3bf03279aae50c9a2cb325e32fe2545ca83260001b610a03565b610e3f8383611e6a565b905092915050565b6000610e757f203814890f66692472ae6571ff73e49f77bec4b763797ee4769f37956cb3ec8a60001b610a03565b610ea17f600a90c9f15e3c903d2771e71da4da9208ce051b36782a2fd4f2211978de5e1b60001b610a03565b610ecd7f375e020e4489fd50c7f37c53ece4dcb5f2859f65f39bb8e45626b99f510cb22e60001b610a03565b610ee08284611f1b90919063ffffffff16565b905092915050565b6060610f167f10ce07f6ecb87a528eb6cdf2bfc74edfcff27ca01f6a1ad0878e6bfc45e3eae260001b610a03565b610f427fd390244fdaea0a89ad99ec6b4b3bbcbcf595569ec737446a7d6d14d91733bb7260001b610a03565b610f6e7f7432af881ec1318c8485d173605279b1403e3f7b027cd01d7e47fb9fa42f2d9660001b610a03565b610f77826120f0565b5080915050919050565b6000610faf7f550be898cb60365c709b6ed1b4dfb0116b3ad065c5edaf969f73beb4426f084060001b610a03565b610fdb7fea5cddcb2b49453a0ee07a40752c6d410e57c80538200f3270df39e5b6b211ea60001b610a03565b6110077f51e7be9f4e487ed3ee7eb1abefa603c44b385ec00860e0508122c74e7c1d952a60001b610a03565b611010826123eb565b9050919050565b60006110457f2cc0bce2c25e27ce05adea2ab88282d4aa5082ab24b099eaf4959f3db32cc70b60001b610a03565b6110717f79c9265bdddd3cd0c99f75c02b3c44682089706d49a5c55f64364e9d8c11d23d60001b610a03565b61109d7f6416c1576369741612e99788c8ac900d838dc8979f2780d5a1014f002de06f9860001b610a03565b6110a88484846124fb565b90509392505050565b60006110df7faff83ec9c0511a85ecae22750fe6e7a468bef27231378c819ab2cac3da8e7c5f60001b610a03565b61110b7f7762cb951f35804b5aee402fd0843499d652d4a61e7ea014a78455c6d66b42b960001b610a03565b6111377fe7ddf7a429f22871cb88819a8e000ca7d4d66b6ad9940993016cb2fb0ef1db2f60001b610a03565b61114082612676565b9050919050565b60006111757f992455bf632241e5bafb4d05fabc07b9fdd142e285b0883d630364057948877d60001b612716565b6111a17ff4af5c2fa2e01808d7267bb93d224595f64eb0a0d0bab9006b1537dd5a033a7c60001b612716565b6111cd7ff51f72c09a3e6167655ab2841b8460255c8d431d8d4f6e888a59744d8209cc6460001b612716565b60006111ea836111dc86611d6b565b61271990919063ffffffff16565b90506112187f7d5084eab6d7d04d7f4be8b19b68fe1cbc814088b7740055ec886e11e0025d7260001b612716565b6112447fceedb77cdac418ef8053942ce5d47d5d3295f644ad8e8186775d1c5c41aba9b360001b612716565b600061126184611253876114c6565b61286e90919063ffffffff16565b905061128f7f228f2c424f04822d821be0707b0fa87ccea70b88315d6d985bfcb0f83856bf1460001b612716565b6112bb7fc8a341379294b50777057c78d443b39628729316831e72be3c1d223b8d6faa6660001b612716565b60006112c6866113cd565b90506112f47f552c356ffe0e9924c1e18659f2ecd9447ff3847e3d42dcca1fe2d2862823d98360001b612716565b6113207f4e534d4ac638edfdd1497a5de31573bdd016919c6f1c978565c0377afd6ab58560001b612716565b61132b8383836124fb565b935050505092915050565b60006113647f3ae7a91f4420b92603f3e4764e6625c35666bab946907978570290d1a238627460001b612716565b6113907f4f4f031d89e614c9e9861402b12f1b60cd02ce7c702feee9cecf8468653d59d660001b612716565b6113bc7fe552b67200393ad3cbbb164ae1ce69b9cf6b2a2788b1921c1560b78cd7e97ee260001b612716565b6113c5826123eb565b159050919050565b60006113fb7f1a01e6e73b44d0d4e063ef1283633f21257472673cfb0542c375c9013066789e60001b612716565b6114277fa5fec7b09e91b692f02f37d27e907efbf8dbaf27bd65cb1b2f8aaf4bfe1ded3e60001b612716565b6114537f35aceeed1775304231aca4d01080ee8f21ea48f0590e1aa63a9883245c20c59d60001b612716565b600063ffffffff90506114887f36a8eecfb64c23c84ccb3caccb0c7f9d5d68a847f8404656c6bca1964aa0ae0160001b612716565b6114b47f9c9d873a81468978c999830ed3079a401faf64b944b4cd75b179d02e211cea9d60001b612716565b8060e084901c60001c16915050919050565b60006114f47ffbbb4334ef9af120854fdb9cbd4bba9310843f8575fee5161e3972dc6cdff7ed60001b612716565b6115207fefc1a894fe71a8b420044319f7ffccd1a8a56480b2071874b25d55f44c69d1ed60001b612716565b61154c7f6f15d892b204e34b27590a6bd840303f336cad2a56127e343af907f598aa726560001b612716565b60006dffffffffffffffffffffffffffff905061158b7f6a96d8a7911a0a5a8cbad54b8200a24f9655bccc5406131dcfdbe862ab447d4e60001b612716565b6115b77f6f159a1ab81f7a83099559412cd8315e56e6f43b38334a39609f699ed7dcf70260001b612716565b80607084901c60001c16915050919050565b60006115f77f357c5c3760e6244126b2718feedcd8b008adeca464a5587fdbe3a77f5943725260001b612716565b6116237f8b1b2a9e1251d007c70c401d1eadd8d6bc6ca1ed9913c2da4d23f0b4da68506c60001b612716565b61164f7f1656786407f2d683d417f3cc57f3fbdc4536af9b62986e4dbe39bdfe1cbf1cb360001b612716565b61167261165b846129c3565b611664846129c3565b61166d866113cd565b6124fb565b905092915050565b60006116a87f039001f947f8fb34b7d5ea2d20e90854af300debcfb84500bb6c9740b8fba9fe60001b612716565b6116d47fa1460cf85f4a863d52321ec105b9ea208d1c0d10e4ac6b35ddaa2e275df32d3860001b612716565b6117007f62ae3296cc3a26c93463e54aa783bbf7afc9fca3fe494519348510f4afd3004560001b612716565b600061171c61170e856113cd565b611717856113cd565b612ac6565b905061174a7fce3ac766306525591fedfebd05ece22940a323985c081a7eb1ab8449af8193f460001b612716565b6117767f0551a2c7a9d2a6133f14fd24ee2c69ab5569a37b689dfc691a630fb4acb656ff60001b612716565b61179761178285611d6b565b61178b85611d6b565b8363ffffffff16612b64565b91505092915050565b60006117ce7f8febe936d82836bfd00b5597d390a90342c2cb05bc2d93fdf7747a45256abc1d60001b612716565b6117fa7f5cd23e2ea0f4a23d368bb3b852e2ce00c35654813fc9f579a752e6740300068260001b612716565b6118267ffd64e1c63a65bc80ca5aab5738d874b3842c9baa10e66b8e312b58ac9f10feda60001b612716565b60006118438361183586611d6b565b61286e90919063ffffffff16565b90506118717f32b12c489c8f07b8efb7b640b7cac3de31fce872ed7385cc0c76eda692cf1c5d60001b612716565b61189d7fc9bbb26a911b5a8a4e50c0ac73ecd7d8d05101549f7e93073d53f00f9baa040a60001b612716565b60006118ba846118ac876114c6565b61271990919063ffffffff16565b90506118e87f794ffc8fdccdea8ddba90f6363d43c09938aea4746c2d7ad6dd535c17000038060001b612716565b6119147fefb58e575f8a55f79b33e118cdca0158f19e02b91f5cf0e3221b4603d9e1219a60001b612716565b600061191f866113cd565b905061194d7f04f90ca3254222ee65c91470776945d7b2730b2e0bedd88717dc4300eea7ca7c60001b612716565b6119797fc82212e816288906709ee1a168629a5dacfa0ea936cbef9e3a111644d92edfce60001b612716565b6119848383836124fb565b935050505092915050565b60006119bd7f777670c39b5b75dca270fc5be3e01476f0ac4772924e63cfefec85b64f86610660001b612716565b6119e97fd09769232f7c4dceef2daa2c56f527e96a2d464080b24dae1b4d237f7595981a60001b612716565b611a157f8aa8d598c8584c66cc11b0205bd31f630aaf01f35ebd53d110713f6202d17b4660001b612716565b611a31611a21846114c6565b611a2a846114c6565b6000612b64565b905092915050565b6000611a677fd65ed42d973c159414e8d983df3b4c500560fac62c7d426c33be3c176d881d1660001b612716565b611a937fda9dc587283be84ae66e2a7d6647469f45979de74a807927bac83d0666fbb33360001b612716565b611abf7f4275def1d7e0767099b363e3e0d0b4449b9aef4e3977f624eca953875d8d2bb960001b612716565b6000611aca84611d6b565b9050611af87f8643b91d553d1098022bf849f39d121db2e3512930d6166b399cb36a1118c77660001b612716565b611b247f2a16e1e53e1935aff7a89fc574e2ec49ef5a32ba3463cac1e03e1517c80f75a660001b612716565b6000439050611b557f44ff7aab86a5d9ca3b624dd830c6753c3d2a46a04991188e2c8e4c70af10a43360001b612716565b611b817fd50c7764ee4593dbbaec54be99c2e9a756f2a404b6f64e6c731296e26aa9aa0060001b612716565b611b8c8285836124fb565b9250505092915050565b6000611bc47f1372d5957cb19437218c1adb12523c07ee6c573dce6e2f4b6d4f7076f1e571a960001b612716565b611bf07fdf37d06ab42001d587f110557a0b83c8002fdb366b2aa63654852aa40b1c207d60001b612716565b611c1c7fc651565eef609f1863050ce2b5f6caf0113a4e0d4c98a9797e67388721a60be060001b612716565b6000611c3983611c2b86611d6b565b61286e90919063ffffffff16565b9050611c677fbae607abbc9725aac93ae43ed865ad22295d39284080820cba6b4a4008c2db5860001b612716565b611c937fa9d7b3288b4ad0b98782360db1396f4749da92a53b6bcef7ab000058ff1626b960001b612716565b6000611c9e856114c6565b9050611ccc7f0ca50004e8c1e234aa759297da99c34ea127a9f6ca75ab445b7b9a80d22ed57960001b612716565b611cf87f8a647b8751db678fb2b39aa5028d206b9ca8b12aceb21cc7dd75e6e31ff7832b60001b612716565b6000439050611d297f54d591ca74ae3b87b2bbe2147c2642915af677190abd69c61b327e15d99ae34a60001b612716565b611d557f966db40dd87c0011bde26e759f8915ab9d1e96a1e14722d820c3a3c3ace57da060001b612716565b611d608383836124fb565b935050505092915050565b6000611d997fadd9866e9b67fa3634634881d9ce58b16e6129043bbccdb4e5d78c169c667a2260001b612716565b611dc57f48f597f1573a452b947739811f0d965b32fcb9b9559d20772c03f25defec09b560001b612716565b611df17f3d5018e885915a38328493095b02bf2107380618d245b135ca207ccccb1cd78b60001b612716565b60006dffffffffffffffffffffffffffff9050611e307f1eb3408785435f10514765d226c5c360971eb733a31422ffb807566140613d1460001b612716565b611e5c7f4383ef64535b48e428cce909b21d058a87cec65cb736f3a5138484bc21c72c3360001b612716565b808360001c16915050919050565b6000611e987f2d5a01eaa8c88c551b0db045d0fd499e0dfc55b6ab845b4a7631c92fc93270e860001b612716565b611ec47ffad66069a6587771fdc8832bd67b9d5b3dbf332a220bb47bf4bc080c226b448d60001b612716565b611ef07f7e1fccbca090d08de02268f3964f64095af2e1ac9fc6bdafdc5d290bf6a87b9760001b612716565b611f13611efc84612c03565b611f0584612c03565b611f0e866113cd565b6124fb565b905092915050565b6000611f497f97cde64f499b37db16f2d1b6207f02cf22693766cc14adc6b9107759d42787ce60001b612716565b611f757f5c19f8130e75c7669a415276b9c1a6e27eb7a33c114025211a254dcf00467c5560001b612716565b611fa17fb123db93942208b0d0def39d301f21d22e543320ad82c18b430f45dfa2e3b66660001b612716565b6000611fbe83611fb086611d6b565b61271990919063ffffffff16565b9050611fec7f1d40ea62fa0ec3df248c807f3c64a68cf48696ea039e442bae355a1c75d79df060001b612716565b6120187f50d41f06519ab4dec0cff568b169c367f584e56441fbefbc194199faaa5b89b760001b612716565b6000612023856114c6565b90506120517f51804200c1a6a0bd64376ce172085320adb3be7a7467e353305ef4eeb1a2776560001b612716565b61207d7f3771e046cdb3ac310ca864e064ca5be64dee805e24437faa7593bcc51f72d74e60001b612716565b60004390506120ae7f5c07fe3d560177301a9f8bd8a74e8ac629f4e9b50d9d51db73b7a0ac7f847c7160001b612716565b6120da7f309dca7e389a8bdaee5a0a9e2727e3e811e02206a1b780d020611c206f3a0c5f60001b612716565b6120e58383836124fb565b935050505092915050565b606060006121207f3e8b4060cad3f4b39c3fc952a8ce19cbf497f03431f1ebb9f5c14482a045281c60001b612716565b61214c7f0ff8b47c700261d15b3e1acbb0366cd45c93f3c330dcd9ba47a990238b43ce5160001b612716565b6121787f71d53cb84719b448edb565a5171085ad1231365cb19816eb1f56e6efad92910f60001b612716565b825167ffffffffffffffff8111801561219057600080fd5b506040519080825280602002602001820160405280156121bf5781602001602082028036833780820191505090505b5091506121ee7fb4ffc5bca6a890661353537f0c4daa65952c8281d13c657504690bd313986df960001b612716565b61221a7f91a39ad80d02b87ec51b6f97e65046df912a1d1cb88a0d3dca49e020b1ff65a160001b612716565b6000905061224a7fed6b9e51d6e2556be21e61808cf14cd2b247596fa28b055ccf309f0d0c162df460001b612716565b6122767f2087128cd0d1593051ba9a28ce441b1d35a842db72b13b39d5c04602c26becf360001b612716565b60005b82518110156123e5576122ae7fc5960c5fa144d2bcc59fec4f7dc62c8c4d915ff270353a2798a8e2a79cec38f460001b612716565b6122da7ffd01da8e6ab12d8aeb95ffa5d2219290136bbd126b0ca0ccd00649efab40ebe260001b612716565b60008482815181106122e857fe5b6020026020010151905061231e7f25b34a72d973017b72046f0d81d5448e60307dae4627098bcbe9fbf6722ba06960001b612716565b61234a7f999bedeb500bfe1aefbe2bad6389931e33632a3fd6aa926d282cb765a08da5db60001b612716565b61235381612676565b84838151811061235f57fe5b6020026020010181815250506123977f9a0c89e8cdca5940f9122d79c7eac334d68794b2740a11a8fc705a59549d7a7760001b612716565b6123c37fca05dca0d9e1a6551e204dbfe3d0bced3809f731eae845e1f33e9a3592172f7160001b612716565b6123d5836123d0836113cd565b612ac6565b9250508080600101915050612279565b50915091565b60006124197f4347ee8870e184862945cdd5162d1c36415be8d4cdd25e3d21d176c58d17f49b60001b612716565b6124457fc8d157589da978592c22d4605f1877e69aabf5d178a963973eaae47833ce3ced60001b612716565b6124717fc2ac12c41a90351e2629c3713331729e540d5703216feb0d6b16b8c9780a074060001b612716565b60007bffffffffffffffffffffffffffffffffffffffffffffffffffffffff90506124be7f7686c6657e026518436d97e2cfc16e4abd0d5fd0d866ca35d84870fa0fe1c38960001b612716565b6124ea7fda3ab1daebdd8e2b155ffcc9a909852e23050638972b85e3983bd5b9441a6a4760001b612716565b6000818460001c1614915050919050565b60006125297f2c7dcd58ec06de5f0409cc70fe46c19a04c437d61ec23ebdbbaf57050d2034d960001b612716565b6125557f5213dd4bbb8c601d48f094f88eec978a1a6b4a29dd88d13964b753cc0de4d74660001b612716565b6125817f1042230dc3f9258eff1773de9ce7e74b37d8bec9307fa0d2ee18d8ab8444942a60001b612716565b600083850190506125b47f8d945e55b3fed3460655b4dc753fd28b8ea0573c225afce3d31a2af78505a48760001b612716565b6125e07fb0f43c4dd86959691216802b717e13f5190a9e8ca6c0dcc9d429c127cae9a91560001b612716565b61260985821015801561260157506e01000000000000000000000000000082105b61020e612d02565b6126357f0539d36f299c7d9bf0c2c640b8cd2daf18022f519f458ae372203b6b2f0b27e260001b612716565b6126617f2993298e160c427f4b35db19291bf0a44ebd7ae7de0f9fe1b258194d9fa43bc660001b612716565b61266c858585612b64565b9150509392505050565b60006126a47fc357796afa2414f66bebbb19d7ff080f27d5f1fc0ec754e65cb500a8340609c760001b612716565b6126d07faaf630b072831e63127b0ed88fb46fc58b5538005fe351c34cf6efedde993f8560001b612716565b6126fc7ffbdd454d2807b9786c2561c123f875539bf6bfe804aad949e2bada6c007f209d60001b612716565b612705826114c6565b61270e83611d6b565b019050919050565b50565b60006127477f4ad272e8ef896cf9749bbb33b720ec50902be1d6268b31d272f37eeffc01139760001b612d15565b6127737ff5b8f6315ed04f6f880d15c913444893b354f451e1a7755f980256aa3a67eb1b60001b612d15565b61279f7fbdc5b111411beb8ab6b53375bbc8bf4e74258c8c8f4987a4928ce54801c48b0060001b612d15565b6127ad838311156001612d02565b6127d97f878d38a5a5b3291f5b62618821c286b1ce4d8ac1fde0f5c52c6f8b253e3c721860001b612d15565b6128057fdee8db45952fd0881a888ce099e6774ada46e04a8240c739354e8b594734d0b160001b612d15565b600082840390506128387fa883eec5840f8062e57d5a86c35fd0af17f6df22b4081b6a3676dd71088ac1e360001b612d15565b6128647fc44e06103de1985a150207dd6e5102796da4ff917908533e00a2fd2e75a52f9460001b612d15565b8091505092915050565b600061289c7fe9ab1930f8b2a33e186614bdc5275e5aef3bc5199db452be16b906fe891a7aef60001b612d15565b6128c87f672db28399f3b33e0df219cd59d4073e056f97e6f18dcebfa00f27c463d9fd7360001b612d15565b6128f47f0ab1a15c584dc550564822e51c90b6556d02439b72ef95c55813a7f4f670280f60001b612d15565b600082840190506129277f4912ca1f746b67b87e92127e424ef610602ecd8455c415eca24e0e1efae1b65e60001b612d15565b6129537f66114683dd19cf7947e3b2b818c6c55b57501af6e821e1cdb4f2f80d63a7276460001b612d15565b612961848210156000612d02565b61298d7fb783f36a61aa5e73f22951df3681c2eb20b8fba57492aa9e4764edbd3684340b60001b612d15565b6129b97fe7b48b6ed0eb47f18bb58555642ad250e08b266847ceeeb5fe538202fc79104360001b612d15565b8091505092915050565b60006129f17fcd70f4ca4a7cf681cd96164b9daf031806344110c3b15f9b0e6e30cbc883300860001b612716565b612a1d7fae6d84879513329ae833760a602bf5aad49eef98081306dcdb2ecce51bf46fa560001b612716565b612a497fab5e3e7455595cd28b4189d6a78a73a21431fe0b46c67b755fc17fa6236ec2d460001b612716565b60006dffffffffffffffffffffffffffff9050612a887f9435dd2efb3afb1ae5401a94ce68cf60d3b286be19e403bcc857bb86d2c71de060001b612716565b612ab47f5cae5549f481293e308f14c99906fc2fc95858fc8ed8891aa8259b5b98573ca360001b612716565b80607084901c60001c16915050919050565b6000612af47f08b5ba32bdfde5a4787ca4bc358fa249d9c75980e2bbbeed00d548e4c62ddf5260001b612d15565b612b207f97779bf504025e78fb7ac46ac32be2a0f087b0a9d7c459512b0af4ad82be5a1a60001b612d15565b612b4c7ff9ec92b71b5bc51509046723000be9f2c1e8a0bb9507f1adb5e18c6f47bb82bc60001b612d15565b81831015612b5a5781612b5c565b825b905092915050565b6000612b927f552d0e4c6a623022f8fc419ae17cd11abaad7ba7eeb18a7023884d25577dab6160001b612716565b612bbe7f404c41f69874b5b39339871a08abdf7e213ef29d619b49b11f20077a11a246b060001b612716565b612bea7ff9e248d67047a4f5e90cf6b2f30112695be9c02b8df7cdd69b048d35bd1d958260001b612716565b83607084901b60e084901b010160001b90509392505050565b6000612c317f947d6430ee322053deb74fac577c8aea37a0c5939712661f76e4afa86c2f0ced60001b612716565b612c5d7fb9f3c8f564cab225601fe087d79b7ff286fc31e5f34c73d1974caf700f52915360001b612716565b612c897fcffbc04b1636fa157cd06aac0ffcd0d59cdfe642207854b9d97f087fe3e8552d60001b612716565b60006dffffffffffffffffffffffffffff9050612cc87f3c5ce310770e5097092d695f5df4799a140357b8cad6b3a144e7a36056860d2460001b612716565b612cf47f168d66f16c565e0a98aebcccde6d7ad1b5a8dfe376fd1335e72788a7930414c960001b612716565b808360001c16915050919050565b81612d1157612d1081612d18565b5b5050565b50565b6030600a820601600a820491506030600a830601600a830492506030600a8406018060101b8260081b8401016642414c230000000160c81b7f08c379a000000000000000000000000000000000000000000000000000000000600052602060045260076024528060445260646000fdfea26469706673582212203f0ae417349e0c733f3f1fd8eaf11e46361ebcc4994702ec4be2512ff73128e864736f6c63430007010033",
  "linkReferences": {},
  "deployedLinkReferences": {}
}