{
  "_format": "hh-sol-artifact-1",
  "contractName": "ConvergentCurvePool",
  "sourceName": "contracts/ConvergentCurvePool.sol",
  "abi": [
    {
      "inputs": [
        {
          "internalType": "contract IERC20",
          "name": "_underlying",
          "type": "address"
        },
        {
          "internalType": "contract IERC20",
          "name": "_bond",
          "type": "address"
        },
        {
          "internalType": "uint256",
          "name": "_expiration",
          "type": "uint256"
        },
        {
          "internalType": "uint256",
          "name": "_unitSeconds",
          "type": "uint256"
        },
        {
          "internalType": "contract IVault",
          "name": "vault",
          "type": "address"
        },
        {
          "internalType": "uint256",
          "name": "_percentFee",
          "type": "uint256"
        },
        {
          "internalType": "uint256",
          "name": "_percentFeeGov",
          "type": "uint256"
        },
        {
          "internalType": "address",
          "name": "_governance",
          "type": "address"
        },
        {
          "internalType": "string",
          "name": "name",
          "type": "string"
        },
        {
          "internalType": "string",
          "name": "symbol",
          "type": "string"
        }
      ],
      "stateMutability": "nonpayable",
      "type": "constructor"
    },
    {
      "anonymous": false,
      "inputs": [
        {
          "indexed": true,
          "internalType": "address",
          "name": "owner",
          "type": "address"
        },
        {
          "indexed": true,
          "internalType": "address",
          "name": "spender",
          "type": "address"
        },
        {
          "indexed": false,
          "internalType": "uint256",
          "name": "value",
          "type": "uint256"
        }
      ],
      "name": "Approval",
      "type": "event"
    },
    {
      "anonymous": false,
      "inputs": [
        {
          "indexed": false,
          "internalType": "uint256",
          "name": "collectedBase",
          "type": "uint256"
        },
        {
          "indexed": false,
          "internalType": "uint256",
          "name": "collectedBond",
          "type": "uint256"
        },
        {
          "indexed": false,
          "internalType": "uint256",
          "name": "remainingBase",
          "type": "uint256"
        },
        {
          "indexed": false,
          "internalType": "uint256",
          "name": "remainingBond",
          "type": "uint256"
        }
      ],
      "name": "FeeCollection",
      "type": "event"
    },
    {
      "anonymous": false,
      "inputs": [
        {
          "indexed": true,
          "internalType": "address",
          "name": "from",
          "type": "address"
        },
        {
          "indexed": true,
          "internalType": "address",
          "name": "to",
          "type": "address"
        },
        {
          "indexed": false,
          "internalType": "uint256",
          "name": "value",
          "type": "uint256"
        }
      ],
      "name": "Transfer",
      "type": "event"
    },
    {
      "inputs": [],
      "name": "DOMAIN_SEPARATOR",
      "outputs": [
        {
          "internalType": "bytes32",
          "name": "",
          "type": "bytes32"
        }
      ],
      "stateMutability": "view",
      "type": "function"
    },
    {
      "inputs": [],
      "name": "FEE_BOUND",
      "outputs": [
        {
          "internalType": "uint256",
          "name": "",
          "type": "uint256"
        }
      ],
      "stateMutability": "view",
      "type": "function"
    },
    {
      "inputs": [],
      "name": "SPONSOR",
      "outputs": [
        {
          "internalType": "contract SponsorWhitelistControl",
          "name": "",
          "type": "address"
        }
      ],
      "stateMutability": "view",
      "type": "function"
    },
    {
      "inputs": [
        {
          "internalType": "address",
          "name": "owner",
          "type": "address"
        },
        {
          "internalType": "address",
          "name": "spender",
          "type": "address"
        }
      ],
      "name": "allowance",
      "outputs": [
        {
          "internalType": "uint256",
          "name": "",
          "type": "uint256"
        }
      ],
      "stateMutability": "view",
      "type": "function"
    },
    {
      "inputs": [
        {
          "internalType": "address",
          "name": "spender",
          "type": "address"
        },
        {
          "internalType": "uint256",
          "name": "amount",
          "type": "uint256"
        }
      ],
      "name": "approve",
      "outputs": [
        {
          "internalType": "bool",
          "name": "",
          "type": "bool"
        }
      ],
      "stateMutability": "nonpayable",
      "type": "function"
    },
    {
      "inputs": [
        {
          "internalType": "address",
          "name": "account",
          "type": "address"
        }
      ],
      "name": "balanceOf",
      "outputs": [
        {
          "internalType": "uint256",
          "name": "",
          "type": "uint256"
        }
      ],
      "stateMutability": "view",
      "type": "function"
    },
    {
      "inputs": [],
      "name": "bond",
      "outputs": [
        {
          "internalType": "contract IERC20",
          "name": "",
          "type": "address"
        }
      ],
      "stateMutability": "view",
      "type": "function"
    },
    {
      "inputs": [],
      "name": "bondDecimals",
      "outputs": [
        {
          "internalType": "uint8",
          "name": "",
          "type": "uint8"
        }
      ],
      "stateMutability": "view",
      "type": "function"
    },
    {
      "inputs": [
        {
          "internalType": "bytes32",
          "name": "c__0x27701b1d",
          "type": "bytes32"
        }
      ],
      "name": "c_0x27701b1d",
      "outputs": [],
      "stateMutability": "pure",
      "type": "function"
    },
    {
      "inputs": [
        {
          "internalType": "bytes32",
          "name": "c__0x9e5800f1",
          "type": "bytes32"
        }
      ],
      "name": "c_0x9e5800f1",
      "outputs": [],
      "stateMutability": "pure",
      "type": "function"
    },
    {
      "inputs": [
        {
          "internalType": "bytes32",
          "name": "c__0xe5f7807e",
          "type": "bytes32"
        }
      ],
      "name": "c_0xe5f7807e",
      "outputs": [],
      "stateMutability": "pure",
      "type": "function"
    },
    {
      "inputs": [],
      "name": "decimals",
      "outputs": [
        {
          "internalType": "uint8",
          "name": "",
          "type": "uint8"
        }
      ],
      "stateMutability": "pure",
      "type": "function"
    },
    {
      "inputs": [
        {
          "internalType": "address",
          "name": "spender",
          "type": "address"
        },
        {
          "internalType": "uint256",
          "name": "amount",
          "type": "uint256"
        }
      ],
      "name": "decreaseApproval",
      "outputs": [
        {
          "internalType": "bool",
          "name": "",
          "type": "bool"
        }
      ],
      "stateMutability": "nonpayable",
      "type": "function"
    },
    {
      "inputs": [],
      "name": "expiration",
      "outputs": [
        {
          "internalType": "uint256",
          "name": "",
          "type": "uint256"
        }
      ],
      "stateMutability": "view",
      "type": "function"
    },
    {
      "inputs": [],
      "name": "feesBond",
      "outputs": [
        {
          "internalType": "uint128",
          "name": "",
          "type": "uint128"
        }
      ],
      "stateMutability": "view",
      "type": "function"
    },
    {
      "inputs": [],
      "name": "feesUnderlying",
      "outputs": [
        {
          "internalType": "uint128",
          "name": "",
          "type": "uint128"
        }
      ],
      "stateMutability": "view",
      "type": "function"
    },
    {
      "inputs": [],
      "name": "getPoolId",
      "outputs": [
        {
          "internalType": "bytes32",
          "name": "",
          "type": "bytes32"
        }
      ],
      "stateMutability": "view",
      "type": "function"
    },
    {
      "inputs": [],
      "name": "getVault",
      "outputs": [
        {
          "internalType": "contract IVault",
          "name": "",
          "type": "address"
        }
      ],
      "stateMutability": "view",
      "type": "function"
    },
    {
      "inputs": [],
      "name": "governance",
      "outputs": [
        {
          "internalType": "address",
          "name": "",
          "type": "address"
        }
      ],
      "stateMutability": "view",
      "type": "function"
    },
    {
      "inputs": [
        {
          "internalType": "address",
          "name": "spender",
          "type": "address"
        },
        {
          "internalType": "uint256",
          "name": "amount",
          "type": "uint256"
        }
      ],
      "name": "increaseApproval",
      "outputs": [
        {
          "internalType": "bool",
          "name": "",
          "type": "bool"
        }
      ],
      "stateMutability": "nonpayable",
      "type": "function"
    },
    {
      "inputs": [],
      "name": "name",
      "outputs": [
        {
          "internalType": "string",
          "name": "",
          "type": "string"
        }
      ],
      "stateMutability": "view",
      "type": "function"
    },
    {
      "inputs": [
        {
          "internalType": "address",
          "name": "owner",
          "type": "address"
        }
      ],
      "name": "nonces",
      "outputs": [
        {
          "internalType": "uint256",
          "name": "",
          "type": "uint256"
        }
      ],
      "stateMutability": "view",
      "type": "function"
    },
    {
      "inputs": [
        {
          "internalType": "bytes32",
          "name": "poolId",
          "type": "bytes32"
        },
        {
          "internalType": "address",
          "name": "",
          "type": "address"
        },
        {
          "internalType": "address",
          "name": "recipient",
          "type": "address"
        },
        {
          "internalType": "uint256[]",
          "name": "currentBalances",
          "type": "uint256[]"
        },
        {
          "internalType": "uint256",
          "name": "",
          "type": "uint256"
        },
        {
          "internalType": "uint256",
          "name": "protocolSwapFee",
          "type": "uint256"
        },
        {
          "internalType": "bytes",
          "name": "userData",
          "type": "bytes"
        }
      ],
      "name": "onExitPool",
      "outputs": [
        {
          "internalType": "uint256[]",
          "name": "amountsOut",
          "type": "uint256[]"
        },
        {
          "internalType": "uint256[]",
          "name": "dueProtocolFeeAmounts",
          "type": "uint256[]"
        }
      ],
      "stateMutability": "nonpayable",
      "type": "function"
    },
    {
      "inputs": [
        {
          "internalType": "bytes32",
          "name": "poolId",
          "type": "bytes32"
        },
        {
          "internalType": "address",
          "name": "",
          "type": "address"
        },
        {
          "internalType": "address",
          "name": "recipient",
          "type": "address"
        },
        {
          "internalType": "uint256[]",
          "name": "currentBalances",
          "type": "uint256[]"
        },
        {
          "internalType": "uint256",
          "name": "",
          "type": "uint256"
        },
        {
          "internalType": "uint256",
          "name": "protocolSwapFee",
          "type": "uint256"
        },
        {
          "internalType": "bytes",
          "name": "userData",
          "type": "bytes"
        }
      ],
      "name": "onJoinPool",
      "outputs": [
        {
          "internalType": "uint256[]",
          "name": "amountsIn",
          "type": "uint256[]"
        },
        {
          "internalType": "uint256[]",
          "name": "dueProtocolFeeAmounts",
          "type": "uint256[]"
        }
      ],
      "stateMutability": "nonpayable",
      "type": "function"
    },
    {
      "inputs": [
        {
          "components": [
            {
              "internalType": "enum IVault.SwapKind",
              "name": "kind",
              "type": "uint8"
            },
            {
              "internalType": "contract IERC20",
              "name": "tokenIn",
              "type": "address"
            },
            {
              "internalType": "contract IERC20",
              "name": "tokenOut",
              "type": "address"
            },
            {
              "internalType": "uint256",
              "name": "amount",
              "type": "uint256"
            },
            {
              "internalType": "bytes32",
              "name": "poolId",
              "type": "bytes32"
            },
            {
              "internalType": "uint256",
              "name": "lastChangeBlock",
              "type": "uint256"
            },
            {
              "internalType": "address",
              "name": "from",
              "type": "address"
            },
            {
              "internalType": "address",
              "name": "to",
              "type": "address"
            },
            {
              "internalType": "bytes",
              "name": "userData",
              "type": "bytes"
            }
          ],
          "internalType": "struct IPoolSwapStructs.SwapRequest",
          "name": "swapRequest",
          "type": "tuple"
        },
        {
          "internalType": "uint256",
          "name": "currentBalanceTokenIn",
          "type": "uint256"
        },
        {
          "internalType": "uint256",
          "name": "currentBalanceTokenOut",
          "type": "uint256"
        }
      ],
      "name": "onSwap",
      "outputs": [
        {
          "internalType": "uint256",
          "name": "",
          "type": "uint256"
        }
      ],
      "stateMutability": "nonpayable",
      "type": "function"
    },
    {
      "inputs": [],
      "name": "percentFee",
      "outputs": [
        {
          "internalType": "uint256",
          "name": "",
          "type": "uint256"
        }
      ],
      "stateMutability": "view",
      "type": "function"
    },
    {
      "inputs": [],
      "name": "percentFeeGov",
      "outputs": [
        {
          "internalType": "uint256",
          "name": "",
          "type": "uint256"
        }
      ],
      "stateMutability": "view",
      "type": "function"
    },
    {
      "inputs": [
        {
          "internalType": "address",
          "name": "owner",
          "type": "address"
        },
        {
          "internalType": "address",
          "name": "spender",
          "type": "address"
        },
        {
          "internalType": "uint256",
          "name": "value",
          "type": "uint256"
        },
        {
          "internalType": "uint256",
          "name": "deadline",
          "type": "uint256"
        },
        {
          "internalType": "uint8",
          "name": "v",
          "type": "uint8"
        },
        {
          "internalType": "bytes32",
          "name": "r",
          "type": "bytes32"
        },
        {
          "internalType": "bytes32",
          "name": "s",
          "type": "bytes32"
        }
      ],
      "name": "permit",
      "outputs": [],
      "stateMutability": "nonpayable",
      "type": "function"
    },
    {
      "inputs": [
        {
          "internalType": "uint256",
          "name": "amountX",
          "type": "uint256"
        },
        {
          "internalType": "uint256",
          "name": "reserveX",
          "type": "uint256"
        },
        {
          "internalType": "uint256",
          "name": "reserveY",
          "type": "uint256"
        },
        {
          "internalType": "bool",
          "name": "out",
          "type": "bool"
        }
      ],
      "name": "solveTradeInvariant",
      "outputs": [
        {
          "internalType": "uint256",
          "name": "",
          "type": "uint256"
        }
      ],
      "stateMutability": "view",
      "type": "function"
    },
    {
      "inputs": [],
      "name": "symbol",
      "outputs": [
        {
          "internalType": "string",
          "name": "",
          "type": "string"
        }
      ],
      "stateMutability": "view",
      "type": "function"
    },
    {
      "inputs": [],
      "name": "totalSupply",
      "outputs": [
        {
          "internalType": "uint256",
          "name": "",
          "type": "uint256"
        }
      ],
      "stateMutability": "view",
      "type": "function"
    },
    {
      "inputs": [
        {
          "internalType": "address",
          "name": "recipient",
          "type": "address"
        },
        {
          "internalType": "uint256",
          "name": "amount",
          "type": "uint256"
        }
      ],
      "name": "transfer",
      "outputs": [
        {
          "internalType": "bool",
          "name": "",
          "type": "bool"
        }
      ],
      "stateMutability": "nonpayable",
      "type": "function"
    },
    {
      "inputs": [
        {
          "internalType": "address",
          "name": "sender",
          "type": "address"
        },
        {
          "internalType": "address",
          "name": "recipient",
          "type": "address"
        },
        {
          "internalType": "uint256",
          "name": "amount",
          "type": "uint256"
        }
      ],
      "name": "transferFrom",
      "outputs": [
        {
          "internalType": "bool",
          "name": "",
          "type": "bool"
        }
      ],
      "stateMutability": "nonpayable",
      "type": "function"
    },
    {
      "inputs": [],
      "name": "underlying",
      "outputs": [
        {
          "internalType": "contract IERC20",
          "name": "",
          "type": "address"
        }
      ],
      "stateMutability": "view",
      "type": "function"
    },
    {
      "inputs": [],
      "name": "underlyingDecimals",
      "outputs": [
        {
          "internalType": "uint8",
          "name": "",
          "type": "uint8"
        }
      ],
      "stateMutability": "view",
      "type": "function"
    },
    {
      "inputs": [],
      "name": "unitSeconds",
      "outputs": [
        {
          "internalType": "uint256",
          "name": "",
          "type": "uint256"
        }
      ],
      "stateMutability": "view",
      "type": "function"
    }
  ],
  "bytecode": "0x6102a06040527f6e71edae12b1b97f4d1f60370fef10105fa2faae0126114a169c64845d6126c960e090815250348015630000003a57600080fd5b5060405163000111e838038063000111e883398181016040528101906300000064919063000019b7565b8181816040518060400160405280600181526020017f310000000000000000000000000000000000000000000000000000000000000081525063000000d37f42b605ad8c4e48409d07a45ae01575f0109010e501e8b5c073584d28d362cafe60001b63000017d660201b60201c565b63000001097f83ae992f89ac3d22b5c08de6e662a0aa913c874cd41a0efc0f4994d8c4de570060001b63000017d660201b60201c565b630000013f7fc4a174b8a26360ea40053551849bb6f425e3b060f612b04327821719723bcc8660001b63000017d660201b60201c565b81805190602001206080818152505063000001847fc26a2832f3fd57ee4b8ea5a6826ac33a1a1b798676bc5c45122e9662aeab5d2660001b63000017d660201b60201c565b63000001ba7fd4fb5a4207833b83c54df15a2c96970589d99d04479e6f4ca3165c5111271ea760001b63000017d660201b60201c565b808051906020012060a0818152505063000001ff7fb8e8098b11bfdd787c3da2cdafe2cc6b982a589dae9ae914138ecda0b35a4a3f60001b63000017d660201b60201c565b63000002357fb3e60e0a13ac53da78856e77763f45e4814e177529da21d9bb0dde71039bfb5360001b63000017d660201b60201c565b7f8b73c3c69bb8fe3d512ecc4cf759cc79239f7b179b0ffacaa9a75d522b39400f60c08181525050505063000002957f7253d2a06334ee1e20139f04b1552da25178216f1aa557135d1e8f8155e9554160001b63000017d960201b60201c565b63000002cb7f755fcc9e3678086f07a630e926401728d6cfabf7045174656ed798ffe0e2c27660001b63000017d960201b60201c565b63000003017fdf8c8e35aefe83f659d9ebf212dddcf9ac89e043959be6158e0274561e70d86360001b63000017d960201b60201c565b8160039080519060200190630000031b92919063000017df565b5063000003527faca7bf43b85bbccc85881caf16d28b9ec4837f003dbb33b53c537fe7df6424ad60001b63000017d960201b60201c565b63000003887fa9d35326029da8ea64802ba17246b49b2739c36b2c3f195ab3fefecc9610066e60001b63000017d960201b60201c565b806004908051906020019063000003a292919063000017df565b50505063000003db7f6ff536bd4959e5b81bddc73b7e3e273aa763b43b669b4cc9f00a29bde3ebc28260001b63000017dc60201b60201c565b63000004117f2135ca9d89d3200663b010e4d33a3ff211ca131876e20afe8ea51b0cf4b2031360001b63000017dc60201b60201c565b63000004477fc9a0a976441b29797b11727c5e89ba9b43514d13bae8eb2da0eaff477423860960001b63000017dc60201b60201c565b6060600167ffffffffffffffff81118015630000046357600080fd5b5060405190808252806020026020018201604052801563000004945781602001602082028036833780820191505090505b50905063000004cd7ff1e8b771fb053c2793a5111e6c71566e35f89539c4d6cd9dac4fbdd1f72147c460001b63000017dc60201b60201c565b63000005037f13e0191d2848f936b398139442ae68139580d9e9519901220ac64ad8643470aa60001b63000017dc60201b60201c565b600081600081518110630000051457fe5b602002602001019073ffffffffffffffffffffffffffffffffffffffff16908173ffffffffffffffffffffffffffffffffffffffff168152505063000005847fec5953c980d4207419785408a5530b210ac4490a8792bc55383b18864161764f60001b63000017dc60201b60201c565b63000005ba7ff43d6f69d0286b301bf0f66f4718418f3df1570a98959300d70e7b7d9f895b5360001b63000017dc60201b60201c565b73088800000000000000000000000000000000000173ffffffffffffffffffffffffffffffffffffffff166310128d3e826040518263ffffffff1660e01b8152600401630000060b91906300001cd3565b600060405180830381600087803b158015630000062757600080fd5b505af1158015630000063d573d6000803e3d6000fd5b5050505063000006777fb34ff91897e70635c82063c517b199804cd4d586a9168cf8fef6b900cfd0830960001b63000017dc60201b60201c565b63000006ad7f060b55fd06c4ee97e56088f25f717f0392592276800bf7974de3b1d51b5a609e60001b63000017dc60201b60201c565b63000006e37f4384098e044841fdccb80e8a155788aab792c70ad18058780f830dbf45194cdf60001b63000017dc60201b60201c565b87428a031063000006f357600080fd5b63000007297ffcd5f683480bf50ee498fed6bcdc150cba5473eb8f916388d22c916781bed56c60001b63000017dc60201b60201c565b630000075f7f940db1cf025fba0919a09abdeb1ffad49b6c539eb1cb6f154cd783d4c4b4f85b60001b63000017dc60201b60201c565b63000007957fd17a9b9ceb8de9a143dbb0a257c2a4a0fb3ac3e07a2b299b7e479a57a718ea5b60001b63000017dc60201b60201c565b60008773ffffffffffffffffffffffffffffffffffffffff166309b2760f60026040518263ffffffff1660e01b815260040163000007d591906300001d4a565b602060405180830381600087803b15801563000007f157600080fd5b505af11580156300000807573d6000803e3d6000fd5b505050506040513d601f19601f82011682018060405250810190630000082f91906300001988565b905063000008677f4de083693c0e3d5db1c0bf432b5ee09aedc237b604eaa98765791b312bcc7af860001b63000017dc60201b60201c565b630000089d7ff7474f6be959432dedd7c9e56b350f3602c70e9bb44efd9251b34d2101bdbb7760001b63000017dc60201b60201c565b6060600267ffffffffffffffff8111801563000008b957600080fd5b5060405190808252806020026020018201604052801563000008ea5781602001602082028036833780820191505090505b50905063000009237fd5f193fbc30d99ec5e5daee90a0b6131b1758ce77bdbfb6ad8868a487d1fe0c760001b63000017dc60201b60201c565b63000009597fc2b1a10d09fa4210f5c62ff286b488fad088beb7f8b4d3da7a32c9dd9ab6ea6f60001b63000017dc60201b60201c565b8b73ffffffffffffffffffffffffffffffffffffffff168d73ffffffffffffffffffffffffffffffffffffffff1610156300000b385763000009c57f08f43497c596581a25ea3c21e46f5394d447945bb3ea3123602eb4e5bd43096460001b63000017dc60201b60201c565b63000009fb7fcd75c38004abf5a669e537b40935df56819a7348b513a6c604055fa29b7dd13060001b63000017dc60201b60201c565b6300000a317fefbb3a7680a31e8917fd74159ec7030dacaf35bb86679e587c8fb98b4358aa8d60001b63000017dc60201b60201c565b8c816000815181106300000a4157fe5b602002602001019073ffffffffffffffffffffffffffffffffffffffff16908173ffffffffffffffffffffffffffffffffffffffff16815250506300000ab17f32696a9a353aed99ceb3d4b0789aabff039581bc75c3f957d7ba383fea4bda7b60001b63000017dc60201b60201c565b6300000ae77f907999a4c036cae02e2e4121a7103b20ff038c90e59a8c9c2511d1be260de77760001b63000017dc60201b60201c565b8b816001815181106300000af757fe5b602002602001019073ffffffffffffffffffffffffffffffffffffffff16908173ffffffffffffffffffffffffffffffffffffffff16815250506300000cdb565b6300000b6e7ff96027bd88ca188512a1bd7f3aef132aa59b47f17f33e9ea6988466bf0006ad560001b63000017dc60201b60201c565b6300000ba47f9fdc19c73a455cf89c1fc4ddab067d5f817c12e007b0b4ab0f1d4acc6f3d540360001b63000017dc60201b60201c565b6300000bda7f167081fe7b36e08415082a1eb5d38cd0ad7abe89e2f76545e26f964ecc88b2e760001b63000017dc60201b60201c565b8b816000815181106300000bea57fe5b602002602001019073ffffffffffffffffffffffffffffffffffffffff16908173ffffffffffffffffffffffffffffffffffffffff16815250506300000c5a7f275b7dadc8eb09cc3c5eb1a62804e690ee6aabba2e1c55ac7fac60b0fab7600660001b63000017dc60201b60201c565b6300000c907fca9d3c8d1af9d1441f5fa6abb590a80785a20bf1c48f4ab9908544053ecca50060001b63000017dc60201b60201c565b8c816001815181106300000ca057fe5b602002602001019073ffffffffffffffffffffffffffffffffffffffff16908173ffffffffffffffffffffffffffffffffffffffff16815250505b6300000d117f8fd0bcb92ba7bc9f2743982998b70b3809a216539662126919005ce8b2a6461f60001b63000017dc60201b60201c565b6300000d477f46146dfca7007329290af97bbfb05ce1e80e04f0aced0a6d0a2f2e9605c653f960001b63000017dc60201b60201c565b8873ffffffffffffffffffffffffffffffffffffffff166366a9c7d28383600267ffffffffffffffff811180156300000d7f57600080fd5b506040519080825280602002602001820160405280156300000db05781602001602082028036833780820191505090505b506040518463ffffffff1660e01b81526004016300000dd3939291906300001cf9565b600060405180830381600087803b1580156300000def57600080fd5b505af11580156300000e05573d6000803e3d6000fd5b505050506300000e3f7f607f1cd095ed1fe68d40ff784cfd6a96ae20534bf217d439adea0ec0913d952960001b63000017dc60201b60201c565b6300000e757fa77c78e5356bc60307aaa69de8394bda7258ffef8b9896fc772ba02e9c4e449c60001b63000017dc60201b60201c565b8873ffffffffffffffffffffffffffffffffffffffff166101c08173ffffffffffffffffffffffffffffffffffffffff1660601b815250506300000ee37f654b78b005f7959dd97fee81009da5c955841aee933db34097511baedc48a7fe60001b63000017dc60201b60201c565b6300000f197f08ca1a12f6c7b2784ba541c81b5cf68ded70f350c5b8941ce11188d13bd480b860001b63000017dc60201b60201c565b816101e081815250506300000f587fdf3fb9ff49081211013e10511095f441edff7fcee3476e35f15ab6890e8ca15860001b63000017dc60201b60201c565b6300000f8e7f8a8f2aa0710cd24c003ca685636f8d247086671774333eec6937f74fa390584460001b63000017dc60201b60201c565b8761022081815250506300000fcd7fdfafc5eac889705744e495928d1c14813602fdc28298cdc08520ce3ea4a4093a60001b63000017dc60201b60201c565b63000010037fab3510bd659545e9e87d1f22072bd40ce0b9c769a3564cc7cdabaf510750b56460001b63000017dc60201b60201c565b63000010397fb5cc6b295bfb6f4a720aee74740ec63da4261d7ec3b882792fd3949e2ffef76660001b63000017dc60201b60201c565b670429d069189e000087106300001089576040517f08c379a00000000000000000000000000000000000000000000000000000000081526004016300001080906300001d69565b60405180910390fd5b63000010bf7f2cc862aa3bffff5e703863623a1c898fb64cc6af6e71036cdace5f462b337dc060001b63000017dc60201b60201c565b63000010f57fd2d0127d69186c9dc527a605f085980e84ca771a8ecb558dfb539c663a616afd60001b63000017dc60201b60201c565b630000112b7fe707201e8d5c0b2819363f552bb325874393980a55044b79c2bab261717fbb2860001b63000017dc60201b60201c565b866102408181525050630000116a7f45180a37feac3039eb9f2022493a99af0153062379c7831dd8a2a2fb20a2d56060001b63000017dc60201b60201c565b63000011a07f2e712a4f0a1db86c8a8d9d43e068807fc01ade29a72336984478ebe829692dbb60001b63000017dc60201b60201c565b8c73ffffffffffffffffffffffffffffffffffffffff166101008173ffffffffffffffffffffffffffffffffffffffff1660601b81525050630000120e7f3344a8f8c8ee840e3892fbb43d8ea5c82697c5892d42e8be6347181c2c2272f460001b63000017dc60201b60201c565b63000012447f074c3c4474e1604f5a80581db8002836af396619cc9b41ed80cc7f8355a17f9360001b63000017dc60201b60201c565b8c73ffffffffffffffffffffffffffffffffffffffff1663313ce5676040518163ffffffff1660e01b815260040160206040518083038186803b158015630000128c57600080fd5b505afa15801563000012a2573d6000803e3d6000fd5b505050506040513d601f19601f8201168201806040525081019063000012ca91906300001af0565b60ff166101208160ff1660f81b8152505063000013117f9493db498a8e8bed839180ac2b3a1f4acaa222f58447e8fb0a19d08bbd37f67c60001b63000017dc60201b60201c565b63000013477ff6c759e05f3e243f3835760a180664b4011d4b7a4493b04f0f1d111726ef3f8f60001b63000017dc60201b60201c565b8b73ffffffffffffffffffffffffffffffffffffffff166101408173ffffffffffffffffffffffffffffffffffffffff1660601b8152505063000013b57f6b8dee2777cb085b774e165dfbb18ffe8d0071e825e0827ae6fbb02b5db7f71f60001b63000017dc60201b60201c565b63000013eb7f81ccaccaddc814756002fee19f97972cb085cb20c847f696c1db495d9eb209b660001b63000017dc60201b60201c565b8b73ffffffffffffffffffffffffffffffffffffffff1663313ce5676040518163ffffffff1660e01b815260040160206040518083038186803b158015630000143357600080fd5b505afa1580156300001449573d6000803e3d6000fd5b505050506040513d601f19601f82011682018060405250810190630000147191906300001af0565b60ff166101608160ff1660f81b8152505063000014b87fadfad403eb0dcc5af496b0df383faa3759440d7ac1457a551539d31fc0da4b7b60001b63000017dc60201b60201c565b63000014ee7f68ab0f7e606c293f9671328e93856d71211fd31eba987ddf5eec5fc17aca6e4560001b63000017dc60201b60201c565b8a6101808181525050630000152d7f266379fe965c311ed50368bef765bf39aa686fadc1853b2e1fd461692090757360001b63000017dc60201b60201c565b63000015637f1fcd5fe8ad2bd8d2c6de1d1f865db8b134fa9dc83ea2684bc3fac8031fda011060001b63000017dc60201b60201c565b896101a0818152505063000015a27fd8fbccc81c10f87fad1e3503f6b94b698c4cebcf0901db489fad362bc4d1380e60001b63000017dc60201b60201c565b63000015d67da424550aec5fc26c92336d4839f6d51cb21d575a66c78e52fd787e16c89060001b63000017dc60201b60201c565b8573ffffffffffffffffffffffffffffffffffffffff166102008173ffffffffffffffffffffffffffffffffffffffff1660601b8152505063000016447f078b451c172acef9b816526f7e40fe3777c659c0a1cbe116ca750d17276251c760001b63000017dc60201b60201c565b630000167a7fd8d3e0a39efe60a463ab2c72696a4abf281f238c5ca89bdcaec680e29bed09f460001b63000017dc60201b60201c565b60008c73ffffffffffffffffffffffffffffffffffffffff168e73ffffffffffffffffffffffffffffffffffffffff1610905063000016e37fbb364a05647b9637e1432bc9d5c5845d922b2c40f9d1d26741e27cc0984565eb60001b63000017dc60201b60201c565b63000017197f81856d4fad12329d0020df38e2ac9a1bcc11f3926570f7d6b03c4c0fdc2ad7af60001b63000017dc60201b60201c565b806300001729576001630000172c565b60005b60ff166102608181525050630000176d7f72300c1e34c16a70540d4adaa6d1400b88a8b72deb62a7cd7421bd99c716a7e960001b63000017dc60201b60201c565b63000017a37f5b7e1624b69f1f16de85778355bab4288538b461bf2fd842b5f050a4413e7d1d60001b63000017dc60201b60201c565b8063000017b357600063000017b6565b60015b60ff1661028081815250505050505050505050505050505050630000202e565b50565b50565b50565b828054600181600116156101000203166002900490600052602060002090601f016020900481019282601f10630000182457805160ff19168380011785556300001858565b828001600101855582156300001858579182015b8281111563000018575782518255916020019190600101906300001838565b5b50905063000018699190630000186d565b5090565b5b80821115630000188a576000816000905550600101630000186e565b5090565b60008151905063000018a1816300001f80565b92915050565b60008151905063000018ba816300001f9d565b92915050565b60008151905063000018d3816300001fba565b92915050565b60008151905063000018ec816300001fd7565b92915050565b600082601f830112630000190557600080fd5b815163000019206300001919826300001dbc565b6300001d8d565b91508082526020830160208301858383011115630000193e57600080fd5b630000194d8382846300001f38565b50505092915050565b6000815190506300001969816300001ff4565b92915050565b6000815190506300001982816300002011565b92915050565b600060208284031215630000199c57600080fd5b600063000019ae8482850163000018a7565b91505092915050565b6000806000806000806000806000806101408b8d03121563000019d957600080fd5b600063000019eb8d828e0163000018c0565b9a505060206300001a008d828e0163000018c0565b99505060406300001a158d828e016300001956565b98505060606300001a2a8d828e016300001956565b97505060806300001a3f8d828e0163000018d9565b96505060a06300001a548d828e016300001956565b95505060c06300001a698d828e016300001956565b94505060e06300001a7e8d828e01630000188e565b9350506101008b015167ffffffffffffffff8111156300001a9e57600080fd5b6300001aae8d828e0163000018f2565b9250506101208b015167ffffffffffffffff8111156300001ace57600080fd5b6300001ade8d828e0163000018f2565b9150509295989b9194979a5092959850565b6000602082840312156300001b0457600080fd5b60006300001b1684828501630000196f565b91505092915050565b60006300001b2f83836300001b57565b60208301905092915050565b60006300001b4b83836300001c69565b60208301905092915050565b6300001b64816300001e5c565b82525050565b60006300001b79826300001e0a565b6300001b8781856300001e3a565b93506300001b96836300001dea565b8060005b838110156300001bd35781516300001bb488826300001b1f565b97506300001bc3836300001e20565b9250506001810190506300001b9a565b5085935050505092915050565b60006300001bef826300001e15565b6300001bfd81856300001e3a565b93506300001c0c836300001dfa565b8060005b838110156300001c495781516300001c2a88826300001b3b565b97506300001c39836300001e2d565b9250506001810190506300001c10565b5085935050505092915050565b6300001c63816300001e72565b82525050565b6300001c76816300001ef6565b82525050565b6300001c89816300001f22565b82525050565b60006300001ca0600c836300001e4b565b91507f46656520746f6f206869676800000000000000000000000000000000000000006000830152602082019050919050565b600060208201905081810360008301526300001cf181846300001b6a565b905092915050565b60006060820190506300001d1260008301866300001c56565b81810360208301526300001d2881856300001be0565b905081810360408301526300001d4081846300001b6a565b9050949350505050565b60006020820190506300001d6360008301846300001c7c565b92915050565b600060208201905081810360008301526300001d86816300001c8f565b9050919050565b6000604051905081810181811067ffffffffffffffff821117156300001db257600080fd5b8060405250919050565b600067ffffffffffffffff8211156300001dd557600080fd5b601f19601f8301169050602081019050919050565b6000819050602082019050919050565b6000819050602082019050919050565b600081519050919050565b600081519050919050565b6000602082019050919050565b6000602082019050919050565b600082825260208201905092915050565b600082825260208201905092915050565b60006300001e6b826300001ebf565b9050919050565b6000819050919050565b60006300001e8b826300001e5c565b9050919050565b60006300001ea1826300001e5c565b9050919050565b60008190506300001eba826300001f71565b919050565b600073ffffffffffffffffffffffffffffffffffffffff82169050919050565b6000819050919050565b600060ff82169050919050565b60006300001f05826300001f0c565b9050919050565b60006300001f1b826300001ebf565b9050919050565b60006300001f31826300001ea8565b9050919050565b60005b838110156300001f5a5780820151818401526020810190506300001f3b565b838111156300001f6b576000848401525b50505050565b600381106300001f7d57fe5b50565b6300001f8d816300001e5c565b81146300001f9a57600080fd5b50565b6300001faa816300001e72565b81146300001fb757600080fd5b50565b6300001fc7816300001e7c565b81146300001fd457600080fd5b50565b6300001fe4816300001e92565b81146300001ff157600080fd5b50565b6300002001816300001edf565b8114630000200e57600080fd5b50565b630000201e816300001ee9565b8114630000202b57600080fd5b50565b60805160a05160c05160e0516101005160601c6101205160f81c6101405160601c6101605160f81c610180516101a0516101c05160601c6101e0516102005160601c6102205161024051610260516102805161ef9b630000224d60003980611bad5280611c7652806138f052806139b952806147b1528061480d5280614f1e52806150b7528061592e5280615b775280615d335280615d8f52806187b75280618bc45280618dfb5280619412525080611b0a5280611c42528061384d528061398552806146c2528061471e5280614e5c5280614fe3528061588b5280615ae65280615c445280615ca052806187255280618b215280618d6a52806193de52508061101152806149ea5280614c945280614d235280614e3a5280614efc5280614fbe528061509252508061105952806177c252806179b45280617c7e5280617e7052508061107d5280614db5525080610feb52806116ac52806133ef52508061156e52806122a1528061249f52806132b1525080613d515280615f6e5250806110355280615e515280615e80525080613d7552806147e45280615d6852806170a152806182915250806110a45280616fc5528061727252806173b752806176d25280617b8e52806181b3525080610e1552806146f55280615c795280616f3e528061812e5250806113cb5280616e62528061721c528061740d5280618050525080612ec152508061444a52508061448c52508061446b525061ef9b6000f3fe608060405234801561001057600080fd5b506004361061025c5760003560e01c80636939fcfe11610145578063a9059cbb116100bd578063dd62ed3e1161008c578063f1cd96ba11610071578063f1cd96ba14610711578063f46c39e71461072f578063f7b942831461074d5761025c565b8063dd62ed3e146106c3578063eaee3f3b146106f35761025c565b8063a9059cbb14610616578063d505accf14610646578063d5c096c414610662578063d73dd623146106935761025c565b806379155050116101145780638d928af8116100f95780638d928af8146105aa57806395d89b41146105c85780639d2c110c146105e65761025c565b8063791550501461054a5780637ecebe001461057a5761025c565b80636939fcfe146104af5780636f307dc3146104cb57806370a08231146104e957806374f3b009146105195761025c565b80633644e515116101d85780634c1a4115116101a75780635e3537df1161018c5780635e3537df1461044557806364c9ec6f14610461578063661884631461047f5761025c565b80634c1a4115146104095780635aa6e675146104275761025c565b80633644e5151461039157806338fff2d0146103af57806341bd436a146103cd5780634665096d146103eb5761025c565b80631d073a7a1161022f57806325a760c21161021457806325a760c21461033757806329e4f36214610355578063313ce567146103735761025c565b80631d073a7a146102e957806323b872dd146103075761025c565b806304b5705c1461026157806306fdde031461027d578063095ea7b31461029b57806318160ddd146102cb575b600080fd5b61027b6004803603810190610276919061e406565b61076b565b005b61028561076e565b604051610292919061eae5565b60405180910390f35b6102b560048036038101906102b0919061e389565b610894565b6040516102c2919061e965565b60405180910390f35b6102d3610986565b6040516102e0919061ebc2565b60405180910390f35b6102f1610a14565b6040516102fe919061eaca565b60405180910390f35b610321600480360381019061031c919061e29c565b610a2c565b60405161032e919061e965565b60405180910390f35b61033f610e13565b60405161034c919061ec67565b60405180910390f35b61035d610e37565b60405161036a919061ebc2565b60405180910390f35b61037b610e43565b604051610388919061ec67565b60405180910390f35b610399610ed0565b6040516103a6919061e980565b60405180910390f35b6103b7610f63565b6040516103c4919061e980565b60405180910390f35b6103d561100f565b6040516103e2919061ebc2565b60405180910390f35b6103f3611033565b604051610400919061ebc2565b60405180910390f35b610411611057565b60405161041e919061ebc2565b60405180910390f35b61042f61107b565b60405161043c919061e913565b60405180910390f35b61045f600480360381019061045a919061e406565b61109f565b005b6104696110a2565b604051610476919061ea94565b60405180910390f35b6104996004803603810190610494919061e389565b6110c6565b6040516104a6919061e965565b60405180910390f35b6104c960048036038101906104c4919061e406565b6113c6565b005b6104d36113c9565b6040516104e0919061ea94565b60405180910390f35b61050360048036038101906104fe919061e237565b6113ed565b604051610510919061ebc2565b60405180910390f35b610533600480360381019061052e919061e42f565b6114b9565b60405161054192919061e92e565b60405180910390f35b610564600480360381019061055f919061e568565b611dd8565b604051610571919061ebc2565b60405180910390f35b610594600480360381019061058f919061e237565b61214c565b6040516105a1919061ebc2565b60405180910390f35b6105b2612219565b6040516105bf919061eaaf565b60405180910390f35b6105d06122c5565b6040516105dd919061eae5565b60405180910390f35b61060060048036038101906105fb919061e501565b6123eb565b60405161060d919061ebc2565b60405180910390f35b610630600480360381019061062b919061e389565b612c44565b60405161063d919061e965565b60405180910390f35b610660600480360381019061065b919061e2eb565b612d37565b005b61067c6004803603810190610677919061e42f565b6131fc565b60405161068a92919061e92e565b60405180910390f35b6106ad60048036038101906106a8919061e389565b613ac3565b6040516106ba919061e965565b60405180910390f35b6106dd60048036038101906106d8919061e260565b613c44565b6040516106ea919061ebc2565b60405180910390f35b6106fb613d4f565b604051610708919061ebc2565b60405180910390f35b610719613d73565b604051610726919061ec67565b60405180910390f35b610737613d97565b604051610744919061eba7565b60405180910390f35b610755613db9565b604051610762919061eba7565b60405180910390f35b50565b606061079c7f5dfdc8f2f6b16263aff4e1fa9daf20c3e626c84a00d5d6bcaea54312a6dedb3f60001b61076b565b6107c87fa30e0aec3fd2e1f5d3fa7e060a0c71fc1a4593e346708abdd288bd71a8d9ae5660001b61076b565b6107f47fc0ca2993df56cc3a2adb97bb0ebc8fe721848fcdace1e7d885178e32eb1db44e60001b61076b565b60038054600181600116156101000203166002900480601f01602080910402602001604051908101604052809291908181526020018280546001816001161561010002031660029004801561088a5780601f1061085f5761010080835404028352916020019161088a565b820191906000526020600020905b81548152906001019060200180831161086d57829003601f168201915b5050505050905090565b60006108c27ff099023c1f159266a64260fb366a6bfc73f2d01960c66920ea0020ddcbc78eeb60001b61076b565b6108ee7f10f7074bbe308337495d3c4502cf6c01f2be32ca196c807f828ee19c3f97d90e60001b61076b565b61091a7fc9a2b32520bd1d8c442e96d2af7b523d6252271a193785be85992c2d0766b18560001b61076b565b610925338484613ddb565b6109517fed42e9e42c5b5aba6101d2063da8fb5ece96354268b7a0bc893f1a4fc0e7dbf060001b61076b565b61097c7ee182571078bde88a73ddd558535ad452f1e3974656f9d9f62cfd0c7da15ee060001b61076b565b6001905092915050565b60006109b47f10b8ca513f61e329a255990c3baacc2acfde14b45a7a53ec08eb2ba3517fe09560001b61076b565b6109e07f9b61f32c47f6c42dc51fde0671f67b217c3158e7e9782bc2213b6e2c2d5e34d460001b61076b565b610a0c7fc21c061ae22a904437e41b7baf9cac8e362edbf8d26c2cb9e1629904ee73e70960001b61076b565b600254905090565b73088800000000000000000000000000000000000181565b6000610a5a7f2b1e68de6d43f0e19cec6745dfa61baade0800dd1a56bbd52e39777aebf27d6b60001b61076b565b610a867f489d99b50fa72fc3dea480d9cf73b7490c1e47fba05f2d3b7603a44ef73e699c60001b61076b565b610ab27fe83485d541b5f143bd5ef5bbb3e5a63323c34810257dd385343ef069d658a4b260001b61076b565b6000600160008673ffffffffffffffffffffffffffffffffffffffff1673ffffffffffffffffffffffffffffffffffffffff16815260200190815260200160002060003373ffffffffffffffffffffffffffffffffffffffff1673ffffffffffffffffffffffffffffffffffffffff168152602001908152602001600020549050610b5f7f7acbc98dd8e190d79aca9eb011baee20bb2366d3eedc8a3f04245546567cc5b260001b61076b565b610b8b7f632dfb23fbebd40c75ff33721df2a92728772e0cb1d3deb87f207cf7cab2a10260001b61076b565b610bd08573ffffffffffffffffffffffffffffffffffffffff163373ffffffffffffffffffffffffffffffffffffffff161480610bc85750838210155b610197613fa2565b610bfc7f993f4c6e8c008b0e283cc3529c046194726583f0d23a831d03ab9d99702a305560001b61076b565b610c287fa21bfb64499a28f2816f262e017191c7e2dc0edb578644d9ceb6d6514868ccbe60001b61076b565b610c33858585613fb5565b610c5f7f3b67f6574e48078056567f4ba1258a1a8ec3617f2d45f8f2ecd901b9097c0e9760001b61076b565b610c8b7f529b06b2bd8fe2a2596fc030aca809d39486748c9331eaa0f97a9f291e1a439d60001b61076b565b8473ffffffffffffffffffffffffffffffffffffffff163373ffffffffffffffffffffffffffffffffffffffff1614158015610ce757507fffffffffffffffffffffffffffffffffffffffffffffffffffffffffffffffff8114155b15610d8257610d187f877681a6d4f5ab52385493f404647a433563e82974907b48b9c73d4eb25d8f6560001b61076b565b610d447f49ebf7be4c1fc91fc09bd14adacdae1bce45f86764a4287ec086129f59cc26a260001b61076b565b610d707f3c617a45259a8d0f0eda006c9bb5a9b1a8e8795ae8611ddf96b8b0e7ba99892260001b61076b565b610d7d8533858403613ddb565b610daf565b610dae7f5a25d1eb7570a5c2ee45cb9d5f47c07a4f5842d3f330c4e822ea66497d81cb6c60001b61076b565b5b610ddb7fb4c07bfb466a59c3b85f18ad6b2ba28067a0148a55075c9336c120227815c00460001b61076b565b610e077fc0c735451fb918416d33d495ba933fa43d051481563b4101952e183c5b514c5e60001b61076b565b60019150509392505050565b7f000000000000000000000000000000000000000000000000000000000000000081565b670429d069189e000081565b6000610e717f0ec0a5a4261d3a15b467b2a665a72073343642fb9a1c92da9edf1309b6d2c14a60001b61076b565b610e9d7f57d6fbae4770d6bd21254429908c66b313d658379031dcfc56ae1e1b494b8f9f60001b61076b565b610ec97f4cfdac4ee4de89387e0f8d9dc259069cc026be59c0f08e9423e99fbadb2b6ec960001b61076b565b6012905090565b6000610efe7f7b9d6858a657bb5a26c48be247410cf75b9bfee57661a4a4a08a01805ba9e1ae60001b61076b565b610f2a7f222b27ce782393a8c5154f56efad9e2896844b5b48cee66e2acfa34ffa8fd8ff60001b61076b565b610f567fa0f6fd1e29310660eadf623e456941a8850d53fa660b85efb7e75898859e2fb460001b61076b565b610f5e6143c2565b905090565b6000610f917fd23eeebab263c11203b0cf761329df4f5796ccd0a248f77e34f999cc8f334a8d60001b61109f565b610fbd7f53acb9278e0ff9fdfd2b23ad0d4a56fb1ebbdd9e743af86b88fc3e4422ef6fda60001b61109f565b610fe97f26a74945d44cad81ce2803f38c95277a102352f61a2cfcddee83a1dc509b188760001b61109f565b7f0000000000000000000000000000000000000000000000000000000000000000905090565b7f000000000000000000000000000000000000000000000000000000000000000081565b7f000000000000000000000000000000000000000000000000000000000000000081565b7f000000000000000000000000000000000000000000000000000000000000000081565b7f000000000000000000000000000000000000000000000000000000000000000081565b50565b7f000000000000000000000000000000000000000000000000000000000000000081565b60006110f47f9e886b13fe83ddbdd49ddff84b8db0770f40ebeb89e7767374810c5951ac06e060001b61076b565b6111207fec9c727c77fe71b446b8dcb9e22621b7844e4322ac87f4636dcb1f0c806aa37560001b61076b565b61114c7f9a17f4bf3bac6a1bc30cadfc6ae50024fc3e8251ef119ea91453c2a3e420adc660001b61076b565b6000600160003373ffffffffffffffffffffffffffffffffffffffff1673ffffffffffffffffffffffffffffffffffffffff16815260200190815260200160002060008573ffffffffffffffffffffffffffffffffffffffff1673ffffffffffffffffffffffffffffffffffffffff1681526020019081526020016000205490506111f97f5922c35e5f73ae05092818b1f7b0c44797377194bd499f99f1c2077f3fd1c4c860001b61076b565b6112257f01453c7256085fd17022dcb356a648dea5d7efac07338cbc6f102984c8db7b9060001b61076b565b8083106112c1576112587f72b36832788940f9320277c336a2d678e3216bcbc5484248c1fa638a545f320560001b61076b565b6112847f6a5a7537a58b48123fe33961801bba4b8ad35b8798924133a54512807bc092ac60001b61076b565b6112b07f47ead17c5e97a264787958b84a42f9ca9fa2b95b49cacbbd4c630f550edf4c8960001b61076b565b6112bc33856000613ddb565b611363565b6112ed7fe0c6e1acbc0c93efa3cd3c5de89788c5297269cd45a95cc29c6449ca54e2f74760001b61076b565b6113197faa1fa72b76ce08b04c07f37c998e79f654b5e3ea11540321253e2d6311b6fc6d60001b61076b565b6113457f9579ff871a854be8860bea9ad6efbee0ee4398ccdcc001158a3934eaa2840f0a60001b61076b565b611362338561135d86856144e390919063ffffffff16565b613ddb565b5b61138f7f631ba605d0bd564ce016162d98849ae6fa17331b1a63fe65aa9f9f1d1aa9650a60001b61076b565b6113bb7fc529ad0aa0cf0174e531f67dda35d462565a02e95dc9e8ec950fe53458d2180860001b61076b565b600191505092915050565b50565b7f000000000000000000000000000000000000000000000000000000000000000081565b600061141b7f382873c8fcc382f0d728db834c0253683b060b98b38095c9ec22b0eb55ea9d1360001b61076b565b6114477f46809fa8f85043d4775d1937cae706044ebeccd6afb406b6884876e43d3b6aab60001b61076b565b6114737f015c91f06107538327f54221a477c8cf22ce56a6baae0977d4d148884d91a4f360001b61076b565b6000808373ffffffffffffffffffffffffffffffffffffffff1673ffffffffffffffffffffffffffffffffffffffff168152602001908152602001600020549050919050565b6060806114e87f870502ac65cda96d459a999c9f15ddb491fdadad3bf39d47bbc293eba524e0bf60001b61109f565b6115147fda85b5f003c04aa8a4efec1e1bbb7315b53ae136b0e95844e126bd296fbea98c60001b61109f565b6115407fbb72190e917837dfcfaa2a5aa9c241560059bc51c2e3d1bfadbb64aa940de54060001b61109f565b61156c7fc5162bf92fd04ac2b071b163ed251c38340ebe4edd8faa44cafd9a5afc9991cd60001b61109f565b7f000000000000000000000000000000000000000000000000000000000000000073ffffffffffffffffffffffffffffffffffffffff163373ffffffffffffffffffffffffffffffffffffffff16146115fa576040517f08c379a00000000000000000000000000000000000000000000000000000000081526004016115f19061eb07565b60405180910390fd5b6116267ffd6377c6ea06be6587ad72e6b2b4ed4a9bf795c353f4401577605a00a5f191cf60001b61109f565b6116527f7ea17b68737124d6dbd298ad7b1d8b1793c5d0209efe7e54e149196c91b9048d60001b61109f565b61167e7ffbf4b044cc93a00aded8a949da79a8d5bd1396a8d10e438ba2204ccd2b3c2cf760001b61109f565b6116aa7febfdba6c760c22591b68ccf37b825158486447e4d22ff908ffc74367d1b7f29b60001b61109f565b7f00000000000000000000000000000000000000000000000000000000000000008a1461170c576040517f08c379a00000000000000000000000000000000000000000000000000000000081526004016117039061eb67565b60405180910390fd5b6117387f199cf6ea7b02cd287edbdf50a170b4d24546b8227668a342d044dee7b8ff8b9960001b61109f565b6117647f86f788eca30603c26b9e5a241ba230d3a1f71919e6de2448d6d519e6c9edbf6d60001b61109f565b6117907fb9df4085b770c86de7f5acbaa7fc9fa68fcd811671107d4762a37a22b52f977960001b61109f565b606084848101906117a1919061e3c5565b90506117cf7ff39cbabc2d580e375196387a3082f5085d7799c38eeed1ac153fa06cd6e24d5a60001b61109f565b6117fb7f248eb1616d95f9f7f9f9ac07242c9456f10a4c64d9491acf58a98fece73e24c760001b61109f565b6118277f77f34b6e7249de5f7955ebc9ad9328f403263130106c26962dfee1f6d6a8367760001b61109f565b60028851148015611839575060028151145b611878576040517f08c379a000000000000000000000000000000000000000000000000000000000815260040161186f9061eb47565b60405180910390fd5b6118a47f2da44e81de05de03e1d90f2b9384a8f2ca0ef2d399e159d4bdbd1c642bba36c960001b61109f565b6118d07f09a7ed0194d4ffa5f487beb952aa83f72526db864d1a7e95d24dc710268bca2360001b61109f565b6118fc7fc541799467f941a04f593e10ec60687b89f3099ebb86df430a3e523c8df0e8a860001b61109f565b61190588614638565b6119317f981f5c0eda2aee92abcae0e2df1ab5f9ab7b6083aa1bf14083906559be74810960001b61109f565b61195d7fcec193a76b4c0c634ecbb5ed8351c9fa884cad77d0cdbe62f606153cba86b7f260001b61109f565b61196681614638565b6119927f518ecfa0455b301879fb07da5f6396d3c7bc852999d3352d96748c523cb15bb960001b61109f565b6119be7f8e9b4b64e0fa7a7583e2a533c224a4313b31278b7c367191b7219b5f2424b76b60001b61109f565b6119ea7f9ebd8abd2511f0e5a4089301c0a053be9d3827cb7931b8777e9e2866b0a68b5960001b61109f565b6000806119f68a614845565b91509150611a267f8746831b0e474dfae94e3caa5b2267edab80248845b096447909c7818a6e1ee360001b61109f565b611a527f91b8dae15808523efbe7a63dfed00482fbeca763f8429821b1787360194ace0b60001b61109f565b600267ffffffffffffffff81118015611a6a57600080fd5b50604051908082528060200260200182016040528015611a995781602001602082028036833780820191505090505b509350611ac87fa55ac766928a6c19a386cbae9456bc27f0216d1490bd62fd6a0774f9128389eb60001b61109f565b611af47f716b6e7c2013085dff7b0cf2d55529c3ea37832120dc81e284b2d599d6cff4a360001b61109f565b611b07888361532b90919063ffffffff16565b847f000000000000000000000000000000000000000000000000000000000000000081518110611b3357fe5b602002602001018181525050611b6b7ffe824f83cd0ed72dc7f28ca5d803cbf22b7d5b91e94e2a373a929b7e6cae85a860001b61109f565b611b977fc08ca4b3386ae407bc6e9a663fe752b9cf46ad8490d7a215bc2a666420bb660560001b61109f565b611baa888261532b90919063ffffffff16565b847f000000000000000000000000000000000000000000000000000000000000000081518110611bd657fe5b6020026020010181815250505050611c107fda3755275bdcf12a174cd4d0e22bb9a6d53ab02cd584e588553f66114ca869d660001b61109f565b611c3c7fc1b560dc93d800dc4f8bcef034ffcec0022be473a251a180bf08b84aea6af3ae60001b61109f565b611cae817f000000000000000000000000000000000000000000000000000000000000000081518110611c6b57fe5b6020026020010151827f000000000000000000000000000000000000000000000000000000000000000081518110611c9f57fe5b60200260200101518a8c6154a4565b9250611cdc7ffcc566df26d336381c1e5a06561fdbc3310e492ef7518369f74a4fc2786b6f2760001b61109f565b611d087f217d376e4757d4e1b39fe27bf883861e42d234428030138e5e35a6bee2954e7160001b61109f565b611d1183615bba565b611d3d7f7151b30e4dc492005238165df01c599de29a477c39faa41c50ede0de6e44ac0660001b61109f565b611d697f09afe946035061e6511849bd42338b6a74dbb933be8b51ac6ce99dde8f9c1c8e60001b61109f565b611d7282615bba565b611d9e7f28fb218239b6c48d0a4fb13822be5ae0bbfea430d7231f9164248a0286256c6460001b61109f565b611dca7f4608487886ef3f700d88761d7950ae4d3ccf3d0d71b7dfdd016b1c51a3d378b760001b61109f565b509850989650505050505050565b6000611e067fae77830cb6901ac1abd9694bd4b71e34e9352bcfb19585416b44f079c4fab19860001b61109f565b611e327ff976c91bd49236347d8a0a61e6a222cc72acf08fa44dfa80be7f50a01b9be26b60001b61109f565b611e5e7f3cd286eeaa79d85110598e7b22ee03d505780200384fa3fc8a4322337fe7b08660001b61109f565b6000611e68615dc7565b9050611e967fb7c321228a6838d5034bce9cf029dfa374aa75060b43139945ebed66e576c04660001b61109f565b611ec27f5e81b55a9d903a07a4c0c1a9d3be7538c23ad7440d05fcefd5492aa3870e0c0b60001b61109f565b6000611ece8683616134565b9050611efc7f899641e25159fd94377f8e077c36cc654fd45a674a6c83e3c6719c994795ad7460001b61109f565b611f287fa466fb3c55976dc2d76677731c8bc76bfcd61c49cd82d2c5f8d3edd1f103f75260001b61109f565b6000611f348684616134565b9050611f627f495d66b3e2e4be15b49dbbaf07b08e10086a8bf82b79011139d3b1baf082d3b360001b61109f565b611f8e7fb047181431323254325a9c9e01678c45d8d90fed0de780294f70d57b9dcca6f460001b61109f565b600085611fb657611fb1611fab8a8a61698d90919063ffffffff16565b85616134565b611fc3565b611fc289890185616134565b5b9050611ff17fc6f406087d8495ef1de05289b1abd6564b58537a4dd0a02e15e628104c6c45d060001b61109f565b61201d7fd7062bfa56c356902d0819ef694cebab75cb707be1b05d15bf563e2adaf7f61660001b61109f565b60006120348284860161698d90919063ffffffff16565b90506120627f6444d0ebf6ab8fa5c4b176d98d698931ca5057aac8349488736203c061d010c660001b61109f565b61208e7ffacd8de0dbb3272e633418d54c3b982fbeaf080f6483390877749d7ccf68672c60001b61109f565b6120b2816120ad87670de0b6b3a7640000616ae290919063ffffffff16565b616134565b90506120e07f8c09825202e42b44373c0590c943da244684d53931d9ce721ecfb648d57afad960001b61109f565b61210c7fb06c2cc2deb43a7f92c4208eef0f7cc31c5da7220968cce552367e92684ba49c60001b61109f565b8661212957612124888261698d90919063ffffffff16565b61213d565b61213c818961698d90919063ffffffff16565b5b95505050505050949350505050565b600061217a7f82244de36650365c37b1ea38d8ab1911dfba5dc66fd1822227b8536c60a153c560001b61076b565b6121a67f89e532722baeeeca9424921b54a4e64c5f5d97531b3e795b9b95707e8bfe3b9360001b61076b565b6121d27f9b9a62eceead51d5e1371b1d60e41966887c24d6bb4e0b425baf8e47d3144e2a60001b61076b565b600560008373ffffffffffffffffffffffffffffffffffffffff1673ffffffffffffffffffffffffffffffffffffffff168152602001908152602001600020549050919050565b60006122477f7490ab125ddf3e6cb96917f77902209d20002cc8522547ffae5a9e63ea78d66d60001b61109f565b6122737f9409f2ca3919c89543ab8d8fa2fd847b92dc07a981e2403ed8f14ee55e57190660001b61109f565b61229f7ffb7418529377d0faceae85b8b26c39b3fb6e09b7fd11f96eb5fbe1678583be1760001b61109f565b7f0000000000000000000000000000000000000000000000000000000000000000905090565b60606122f37f1b09bd64ab4c8210a35428f1ebcf545cbe7c19d4fed39554617e53111611734a60001b61076b565b61231f7f6a0372273e898356c46874c4805cc38713baf71f5da51f956f2c0caea21eacae60001b61076b565b61234b7fdc97ed429cb526ace9069d77526e830a568ebf7c714325c4b9a7f50c245d38be60001b61076b565b60048054600181600116156101000203166002900480601f0160208091040260200160405190810160405280929190818152602001828054600181600116156101000203166002900480156123e15780601f106123b6576101008083540402835291602001916123e1565b820191906000526020600020905b8154815290600101906020018083116123c457829003601f168201915b5050505050905090565b60006124197fc2bb4aeeb3628b7b4546c7aad784db8ed8e4a1db60217856938470b97f26cb0b60001b61109f565b6124457f1015955fb717fcdf67806f2d8d145fcc0191b60be9c9a5b2c6f8ac443d0f03d360001b61109f565b6124717f92a2354d9d41eb233014fd00cdbb52e765cf3eca88747372577b78c9df90a1c760001b61109f565b61249d7f72ddd81e0ef399efebf36727d23e0d9a10b11668ef354ddea0b3afebaefbd39660001b61109f565b7f000000000000000000000000000000000000000000000000000000000000000073ffffffffffffffffffffffffffffffffffffffff163373ffffffffffffffffffffffffffffffffffffffff161461252b576040517f08c379a00000000000000000000000000000000000000000000000000000000081526004016125229061eb07565b60405180910390fd5b6125577fc02b5c607fe36b1b9bd4e7d4bfc5d38a3942db278ccf323d9c801ad136c97a3d60001b61109f565b6125837fc64d1a0e27eba0a3297d6535d451f6fa8677be57c5d6ecafd0133cc45693e4b560001b61109f565b6125af7f63b0a0dbab2f45fc758a8305b39bfff92429994107e0b705a9a8281c6e86b5d960001b61109f565b60006125dd7f67ef28bc091f109896ad4524cd33d4dd39b5dbf54f4a8c514e74ab1b4dcee4a460001b61109f565b6126097f4d4cbbbd8d9adc55aae1584332697bd71ced7193f1ea0fbde500ff408c22262160001b61109f565b600080600181111561261757fe5b8660000151600181111561262757fe5b1490506126567f5cb84cc38780f03ea136f5f3ee5655d3f2cbb802f6b0ec30a6a7fcc7c1b5ae5160001b61109f565b6126827fb6eebeeff5886f46519b4ff1e8521fc0573e4e6d04472bb158e63f2a4d46912660001b61109f565b8015612725576126b47fd9459b18756712766473a3d20d351404a8d55ea80ba1be3c2af9bea1190bc5f260001b61109f565b6126e07fb48a40f7017c2026ad3a6fab8b71834987bbd991f5c2d39d9fefac41bcda9d9560001b61109f565b61270c7f3f1cecad7408cf0e271fe7e243e663320dad4b394135dfbd54ffeaad4bedf9b760001b61109f565b61271e86606001518760200151616dda565b91506127be565b6127517f83bb32b4345eaa838db7a0ae93a82f823cdbecbf63edb3605e6de932a5bcfe1660001b61109f565b61277d7f5a337ab05653e484ab7eedc4f931a00ed5fdf7615001b0a6e036ddbf2a2cdaf860001b61109f565b6127a97f149a41f2e66713720566226df4211abe2c21b79a272355070cf4027f32e3a66860001b61109f565b6127bb86606001518760400151616dda565b91505b6127ea7ffc973452954289219586fcf6f512a6de3af3dae090f6ef43f417bce94ddfb3ef60001b61109f565b6128167faa4e80805a3408b19004844e4af5adee2033745201d520bf20e58507a9236d1e60001b61109f565b612824858760200151616dda565b94506128527ffba8c61a16ff8bb86d3ef6e06709c1d5839149eef32ef816552e2bf6b8d83b8e60001b61109f565b61287e7fa7e32add8c6b8c10d09ee41fe5df67bd34f6d168541917d311a92ff889b038ba60001b61109f565b61288c848760400151616dda565b93506128ba7fc286bf2f82ce5dd717eb8c68b1c5c9fbc8acd791ba8d1eb8100d23cfe985326660001b61109f565b6128e67f0be811710f801c5549eff61b2da2e47f0940edba4bb2e2abb6e751e2e354e34360001b61109f565b6000806128fd878960200151888b60400151617193565b9150915061292d7f812f0c3835a6b65c7d6a59e2b52c11947d668d46f3f9ccad5c306698b715e1e860001b61109f565b6129597f0c87bec8f9e9ce6a1ba747c7f80dc95b28c804ba4075ba7a25490496e0d425bf60001b61109f565b8215612ad05761298b7fc47d59ad033f7477e579f895e12534b6debb2384be945ef71a78defc2f85941560001b61109f565b6129b77f23f7287050c41138757f1f41a756be2ccb09c24cacf5138e07e660b63affd84c60001b61109f565b6129e37f4c5b65b3aa311f57e94ea3b363b052e87ab889ba71d281cb1c33ab66808ab0b160001b61109f565b60006129f185848487611dd8565b9050612a1f7fb2d38b5497e723c358de671302c246c26cd91a582d4711bc1f68dcd538f30e4060001b61109f565b612a4b7f25175a553fde5de9225397491590964b455858daa8447f0af663714d3aa0324460001b61109f565b612a5c85828b6040015160006175c0565b9050612a8a7fdb15631cf4639e75a0c573d14f88cb7171b9e32f4dc0b6365ac4b90f0926585d60001b61109f565b612ab67f72a216ba30be14f44aa94ae12b486ceab0c1a8a932987a2a7fdfd4ff8aa9a43e60001b61109f565b612ac4818a60400151617fc8565b95505050505050612c3d565b612afc7fa6b70a7f612cd1f367c94bbe97917d8233cb22a70d6b0169765faab24f67039560001b61109f565b612b287ffbb280605136f679e2a5b4180f587082af0e2263083b9c9b71a655c6881cbc7c60001b61109f565b612b547ff3493f690e18b02f8a93dee2c3ed9b2a3ba9607c827ee30ce7cbdf66da14e33a60001b61109f565b6000612b6285838587611dd8565b9050612b907f6cf531d8ae4e24b58ca7c9e49e7b9c363c42d77009fd34a8cf22ae62b8780cd360001b61109f565b612bbc7f133e54510aaa6caca03b8bcaa526c7547f92e148f65fcb5975200d11fdecbbd660001b61109f565b612bcd81868b6040015160016175c0565b9050612bfb7fb8d4f2c8994796ea882f09e1b62affa979f4f698602575e41d94b8b41b8d012060001b61109f565b612c277f37eeac6a46b168bec14cf17dc3d99e446965c2e62d4e46159728d52c67697f5a60001b61109f565b612c35818a60200151617fc8565b955050505050505b9392505050565b6000612c727f6deb191175557e21e4d5b5048415d02d1ec203d2bd1340ad5ceab8c8bbe5637a60001b61076b565b612c9e7fd80de844ca89d8d20c246318e9b8c31bf9962c8573820b07b2d59addbc0bd06260001b61076b565b612cca7f7303993c8221041674f06a2709b06c531d6c945aa2593134189fcc39ebabfcac60001b61076b565b612cd5338484613fb5565b612d017fe51d6f2d5a55f449e5620034e7576eaf2db66cf857562e9da7e8cb30115fd3df60001b61076b565b612d2d7fda42cdc715c33e6f9d242db4cd8e8b9c0b2d64bf1b38ae911fb46754752d016760001b61076b565b6001905092915050565b612d637f92d8088417b633aef9db9560d22473cbb0829dad88088113714e86b3045ee6d460001b61076b565b612d8f7fe6d99ef77a15061b9388a4be137bce3ab9f89da5d47b6cc0381b37556fb366a560001b61076b565b612dbb7fc9ec9b33c0a89aa9c06a0e246f7266b0b7f56e99dd89ff9fde5facf1df91f04960001b61076b565b612dc98442111560d1613fa2565b612df57f0d5d3b7479f11a85af9f69520d511f16edad0d20279bc39c96adc2a9693e424b60001b61076b565b612e217f1837a5abb40ba9b89d45d3bfa614f5e0cef7c17ae0b08272496053cc719990de60001b61076b565b6000600560008973ffffffffffffffffffffffffffffffffffffffff1673ffffffffffffffffffffffffffffffffffffffff168152602001908152602001600020549050612e917f71c573ac129a542e0ef7ef0f274613fa70efe280b19ce94bc4bb330b0ac321b860001b61076b565b612ebd7f49e5eb4019850e3ac49c419ccfe5374994591f79430a262f0d42e4383deff1d560001b61076b565b60007f0000000000000000000000000000000000000000000000000000000000000000898989858a604051602001612efa9695949392919061e99b565b604051602081830303815290604052805190602001209050612f3e7fcaf67d9ef00cb0711a1a79c9266801d8b10566ad258627da9176df7ca508468860001b61076b565b612f6a7f9e88cd1db5d0da84d0f42b5642e94676eaeb714dea06cdbb54a90fd2e501453560001b61076b565b6000612f7582618381565b9050612fa37ffbb8f77bb41a1d90f4c692267119eb52783b5c658a90b6b4be513a7b0c8b614a60001b61076b565b612fcf7f37d2d51bb038651f842276de0361db8fd6b148f3738f07359c9ad4f6d416187d60001b61076b565b600060018288888860405160008152602001604052604051612ff4949392919061ea4f565b6020604051602081039080840390855afa158015613016573d6000803e3d6000fd5b50505060206040510351905061304e7fd1d138253e25432a8badf5378b017a1388c994f997eb395294878705d58b96e060001b61076b565b61307a7f84f8670eb58ab07f1e88c484c695c261c0e65808f8ba9e9b0c51d9ffdc84902a60001b61076b565b6130ed600073ffffffffffffffffffffffffffffffffffffffff168273ffffffffffffffffffffffffffffffffffffffff16141580156130e557508b73ffffffffffffffffffffffffffffffffffffffff168273ffffffffffffffffffffffffffffffffffffffff16145b6101f8613fa2565b6131197f22d7de187d767badd08d0f56b9032ebaf3425b342596c16a4d6c074cf3f87aff60001b61076b565b6131457f177abef53e1d0dd58ac47c7df006757d5d6f236a0aa590407ec19064e1ab44ae60001b61076b565b60018401600560008d73ffffffffffffffffffffffffffffffffffffffff1673ffffffffffffffffffffffffffffffffffffffff168152602001908152602001600020819055506131b87f4cdd763c9803f8c2ced5b3f501b434276e7e1cbed3e20f3bf45228060143216e60001b61076b565b6131e47f0889d4543369d8b61a6a795ec77232055ddea529d88d80d8fbb5228a924dff2060001b61076b565b6131ef8b8b8b613ddb565b5050505050505050505050565b60608061322b7f9c005f418ccec7523602834add6265e1feff61baafe93daf4ee38b4f28b5759b60001b61109f565b6132577f85a02d502e0ed7032035f2148553a4567d00a5d7d6963d7decccd0bd7e70483060001b61109f565b6132837fd82fb519a491ac14ffb16b212f473989022774f9d10a053b7903000dda7145ba60001b61109f565b6132af7fceb754ec24980659a11352e2e51a49c0bbd50d88dbcc36971de98225a1e94a4860001b61109f565b7f000000000000000000000000000000000000000000000000000000000000000073ffffffffffffffffffffffffffffffffffffffff163373ffffffffffffffffffffffffffffffffffffffff161461333d576040517f08c379a00000000000000000000000000000000000000000000000000000000081526004016133349061eb07565b60405180910390fd5b6133697fa0bdfe0112f5bd8fb161cf9be9fd231e299c67ca1c48d09a1987d04c789068a960001b61109f565b6133957f26ce11729e9ed401ffdaf6675dad213bec5a769fdac8cc9b63c62ddbc54aaa0460001b61109f565b6133c17f29e706b7309814a9e9422d42ec3c888e1b64f8c3d31fec81696ba415c1c107cd60001b61109f565b6133ed7fb71cc902a08ca78ad2aa78c979e0fabbae33f7d7ab849adfd7b29e4b70933f8d60001b61109f565b7f00000000000000000000000000000000000000000000000000000000000000008a1461344f576040517f08c379a00000000000000000000000000000000000000000000000000000000081526004016134469061eb67565b60405180910390fd5b61347b7fe0b9875bc50ecc1b05d724237a482fc634de0818d9872c1ce190d8661610198760001b61109f565b6134a77f90291e20c6da04ffaccc00ec61afb986a058c664b56bf0c3cebfc81b8f46cdc760001b61109f565b6134d37ff47cd29821ff1d8b5ce3e2349181fee0d19b8e4653fa0a482a1614f9a033c5f660001b61109f565b606084848101906134e4919061e3c5565b90506135127f4a32bc2fa4849a62528c4d06419442c5440d12b8409071eb7e6f34cf88d3b88460001b61109f565b61353e7f3121c632efe1ad368c795df37d3fae0078e995a2805c77a9d20b2bfe730f88d460001b61109f565b61356a7fa806d9e7d26c9517bba1885e36819f59c7865c9fcd58a776c770b7a51552a2fe60001b61109f565b6002885114801561357c575060028151145b6135bb576040517f08c379a00000000000000000000000000000000000000000000000000000000081526004016135b29061eb47565b60405180910390fd5b6135e77f8fe76e5d58363d3df1eda0654bc7ea68c6f0eade42f2cee8919953a68cfdd5dc60001b61109f565b6136137f3fce2f1a551de0c61ba1db9c2988f01628b2bf2dfaa724694d63d890c185fbd660001b61109f565b61363f7f7a194858d3a97e238a06e14c79219212b7fc04e242e26bc2ff760181312e2b5060001b61109f565b61364888614638565b6136747fed3f429189ed2d4e1aa7242c9354a45d77d2a04207cb908bd3a6e80753c8642760001b61109f565b6136a07fbf84adbdd80e783f3f9f9f223e09c1aaa0fc850bb3a62655695cc1b7c38ea9c460001b61109f565b6136a981614638565b6136d57fb76845da6b8f5868b938dd7d496e1ea82a0c93dd982accc47a25b4e71a78ed8f60001b61109f565b6137017f567a88601c163ad5197007ae7192fbd6c8da439f41e631cfe64a9b7b8dcdd72160001b61109f565b61372d7f1a482061214b5b433318c7ec7a68747d16913da41bed56c32586bd48e6ea2b8960001b61109f565b6000806137398a614845565b915091506137697f5eb587a82b23d677ae4a66e9fa56a76535b26173215ebd83fa088a527b0f08bc60001b61109f565b6137957f3729e1c281314ad999b93a5086326d61a978707620a0bb5dbb022acb4fe594d560001b61109f565b600267ffffffffffffffff811180156137ad57600080fd5b506040519080825280602002602001820160405280156137dc5781602001602082028036833780820191505090505b50935061380b7f0d1d132019c9a981d240fd2363faf2c32d5e511a812750e25d0c974b9bced67160001b61109f565b6138377fc1cb3224bd40125bb7d3997ad3c082426022aa431397b58f2e1367a44b14fe7960001b61109f565b61384a888361532b90919063ffffffff16565b847f00000000000000000000000000000000000000000000000000000000000000008151811061387657fe5b6020026020010181815250506138ae7f76f7b97a5bb9d5be5611f967277fefe6f3a29d005c4f693ff1d81d6ec417f5b460001b61109f565b6138da7fcbac80599d12ea7d35cbf645be613be302acb64134ce584855a232559b843f8a60001b61109f565b6138ed888261532b90919063ffffffff16565b847f00000000000000000000000000000000000000000000000000000000000000008151811061391957fe5b60200260200101818152505050506139537ff60651cf9ef73705b6e3fd8553dbde6b438b22998c5b795b9242fc7722de6e2d60001b61109f565b61397f7f5b7c2d55abeedc70144d9a9aab93b9c634ac3464177c593eae8aa37ec7bf2bc460001b61109f565b6139f1817f0000000000000000000000000000000000000000000000000000000000000000815181106139ae57fe5b6020026020010151827f0000000000000000000000000000000000000000000000000000000000000000815181106139e257fe5b60200260200101518a8c61843e565b9250613a1f7fce505be2130316687fc8cb400e82cdb41e819d5fe5a173492d6030b99e93a0ef60001b61109f565b613a4b7f7ee8fbe62851cb6827d3f3e2c3add374c19fc6e38d09b944762c678df286510060001b61109f565b613a5483615bba565b613a807f29e417fa4cf9966f41edcbc370867b392cfd64a5fcf7a41ea8188515fa76121360001b61109f565b613aac7f84c2eb33412f4e6b48cc5d96068a8fa2225f46b8873132b8aa86ff2f77bdd63a60001b61109f565b613ab582615bba565b509850989650505050505050565b6000613af17fa9b98a594d3b5c774b74cd6ed48cf8dff4f80392c6473684179cff7500e6444d60001b61076b565b613b1d7fd034439f5728cc6dbb46c15a010144ca40c85fb7a49179a37ddd6688258ce6d860001b61076b565b613b497f1d2f27b8fa67c9b6dacc27947e01a8353fd11ced3843151e63c744482bcacdca60001b61076b565b613be23384613bdd85600160003373ffffffffffffffffffffffffffffffffffffffff1673ffffffffffffffffffffffffffffffffffffffff16815260200190815260200160002060008973ffffffffffffffffffffffffffffffffffffffff1673ffffffffffffffffffffffffffffffffffffffff16815260200190815260200160002054618e4090919063ffffffff16565b613ddb565b613c0e7fc624b982209d34d3063563b50888b38b0f028ae195fbfc8489f5a7881b9247f360001b61076b565b613c3a7fff5d9bd3a30bd6cb8e1f7d6662787c729ac63a8de91f644f3e41ada4e2fc577460001b61076b565b6001905092915050565b6000613c727fcde1da088e653348a27e3db5513a0b32042c7bddb19b9d92e981f2506dec065160001b61076b565b613c9e7f0a42362e590384ffe636c3826e148b566dfbecfc831f0684dd9f6a23b8e65cd060001b61076b565b613cca7f09be738a1bf0b0516ed2f8bc0f08cbe34a749c8983227a44bbf2e5c671b575d760001b61076b565b600160008473ffffffffffffffffffffffffffffffffffffffff1673ffffffffffffffffffffffffffffffffffffffff16815260200190815260200160002060008373ffffffffffffffffffffffffffffffffffffffff1673ffffffffffffffffffffffffffffffffffffffff16815260200190815260200160002054905092915050565b7f000000000000000000000000000000000000000000000000000000000000000081565b7f000000000000000000000000000000000000000000000000000000000000000081565b600660109054906101000a90046fffffffffffffffffffffffffffffffff1681565b600660009054906101000a90046fffffffffffffffffffffffffffffffff1681565b613e077f9a5b448a21cd2032fa5308aa257d4351306ac960be62691687d8894949250e0260001b61076b565b613e337fb03e90560bcfc6e147e178f704890e0476a2bc183a28c6a21d4ed276077228e860001b61076b565b613e5f7fa23e95d7dc0024c00091f5622f8bf7106ac1268477fb653af8c6c9fac644c9fc60001b61076b565b80600160008573ffffffffffffffffffffffffffffffffffffffff1673ffffffffffffffffffffffffffffffffffffffff16815260200190815260200160002060008473ffffffffffffffffffffffffffffffffffffffff1673ffffffffffffffffffffffffffffffffffffffff16815260200190815260200160002081905550613f0c7fbf7482d78d5e209f32f7d094fd2c863fcba586e8713beafce89fe20750e8a3ad60001b61076b565b613f387fd9fd5feda47756822224f2afe37e079d8790fc04a9924ac7a21fcd251c76cba560001b61076b565b8173ffffffffffffffffffffffffffffffffffffffff168373ffffffffffffffffffffffffffffffffffffffff167f8c5be1e5ebec7d5bd14f71427d1e84f3dd0314c0f7b2291e5b200ac8c7c3b92583604051613f95919061ebc2565b60405180910390a3505050565b81613fb157613fb081618f95565b5b5050565b613fe17fd529164b19be6d95bcfbdaf40f429a8a1603f0c977f519cb9f870ecb8152a47e60001b61076b565b61400d7fe41ac344bcf11b9ded08259d4818278957f90a7734a706dd5f2b2325751c28cc60001b61076b565b6140397f25663d4831b921ab3e180db522e67b9d4c731778698c35c1b98bbbf3028d920960001b61076b565b60008060008573ffffffffffffffffffffffffffffffffffffffff1673ffffffffffffffffffffffffffffffffffffffff1681526020019081526020016000205490506140a87f5d78b30e392bc7f6e0e27e15c0002035f9b08125eefe5b8d1387072d4ed902b160001b61076b565b6140d47ffcfece9bb0f8c43acd0d28fa43d0e21f14661adf0416e1ab7863208b145203d460001b61076b565b6140e382821015610196613fa2565b61410f7fa041584898bb01c1b6d96f86c51bb6651f3bdee1c82a9f7623e72a330b7e434460001b61076b565b61413b7fcb06c78a59ec59ff22e9c4ec6cd136da452099244a1d78be0fdac02c0f855b2f60001b61076b565b614177600073ffffffffffffffffffffffffffffffffffffffff168473ffffffffffffffffffffffffffffffffffffffff161415610199613fa2565b6141a37f36e5b8353b45f2872d2100bf83f12822bb595a1548b60db4e3ee9da3dbdb3cf560001b61076b565b6141cf7fb9d2dcc68a6a40971012c756e4fc1700ef0f6a8dac7815c8883ffe1f27e1dc4660001b61076b565b8181036000808673ffffffffffffffffffffffffffffffffffffffff1673ffffffffffffffffffffffffffffffffffffffff168152602001908152602001600020819055506142407faa23196d94220b56b86d670ed144291b9f1cb0700b33e857b4237881427abb7e60001b61076b565b61426c7f92c148fdf087e986784f946c0b1a53cde22a376b74accdd6980a58bf7e478d5a60001b61076b565b6142bd826000808673ffffffffffffffffffffffffffffffffffffffff1673ffffffffffffffffffffffffffffffffffffffff16815260200190815260200160002054618e4090919063ffffffff16565b6000808573ffffffffffffffffffffffffffffffffffffffff1673ffffffffffffffffffffffffffffffffffffffff1681526020019081526020016000208190555061432b7fbde74482855c06aa81b686d4347ebfb8c5497ad562890e3cc31daa11d0b3e99360001b61076b565b6143577f4049d7d86893edaf6070b20f62df68cc1472a6753938f5be6b67573deb5d33c560001b61076b565b8273ffffffffffffffffffffffffffffffffffffffff168473ffffffffffffffffffffffffffffffffffffffff167fddf252ad1be2c89b69c2b068fc378daa952ba7f163c4a11628f55a4df523b3ef846040516143b4919061ebc2565b60405180910390a350505050565b60006143f07f0619b08396514f3014b4cd388f4277c5ee27d85e6ddf8c8e8741a4c70985e78660001b6113c6565b61441c7fadf5ed2199ad87ddb5b50c063afe706a9746a5f97871ab751613d492674010ea60001b6113c6565b6144487fdf8526b85b2735b3fbfc4736bf3d3dfa64ae072b5fd103fbe8a3f3cf1ebbbb3460001b6113c6565b7f00000000000000000000000000000000000000000000000000000000000000007f00000000000000000000000000000000000000000000000000000000000000007f00000000000000000000000000000000000000000000000000000000000000006144b3619005565b306040516020016144c895949392919061e9fc565b60405160208183030381529060405280519060200120905090565b60006145117f4ad272e8ef896cf9749bbb33b720ec50902be1d6268b31d272f37eeffc01139760001b619091565b61453d7ff5b8f6315ed04f6f880d15c913444893b354f451e1a7755f980256aa3a67eb1b60001b619091565b6145697fbdc5b111411beb8ab6b53375bbc8bf4e74258c8c8f4987a4928ce54801c48b0060001b619091565b614577838311156001613fa2565b6145a37f878d38a5a5b3291f5b62618821c286b1ce4d8ac1fde0f5c52c6f8b253e3c721860001b619091565b6145cf7fdee8db45952fd0881a888ce099e6774ada46e04a8240c739354e8b594734d0b160001b619091565b600082840390506146027fa883eec5840f8062e57d5a86c35fd0af17f6df22b4081b6a3676dd71088ac1e360001b619091565b61462e7fc44e06103de1985a150207dd6e5102796da4ff917908533e00a2fd2e75a52f9460001b619091565b8091505092915050565b6146647f06c7fa6a2616463ee8b8b3d05c656d522fa125ac1080485cd3d57294575dc08760001b61109f565b6146907f1a5f51aaa4c0093d62cf2b24ca9b9f89fb9f080afa0293520f1190327512128560001b61109f565b6146bc7fc6fdae8eb82d4c3eee17c341f588c3aeaaa170fb132919de936071a85667374460001b61109f565b61471b817f0000000000000000000000000000000000000000000000000000000000000000815181106146eb57fe5b60200260200101517f00000000000000000000000000000000000000000000000000000000000000006012619094565b817f00000000000000000000000000000000000000000000000000000000000000008151811061474757fe5b60200260200101818152505061477f7fb5292962df3fc1e8460de006242a39f27436df6f7ededf3402c04867a87f75d460001b61109f565b6147ab7fea69cce78cef40f3caa96062f533de26db79d0421d020708397d50d22419f40e60001b61109f565b61480a817f0000000000000000000000000000000000000000000000000000000000000000815181106147da57fe5b60200260200101517f00000000000000000000000000000000000000000000000000000000000000006012619094565b817f00000000000000000000000000000000000000000000000000000000000000008151811061483657fe5b60200260200101818152505050565b6000806148747ff915e9f7b3f173fa6049b394e3fd908c6a093d5dbe83930d6126f9c468f5aad560001b61109f565b6148a07f47c82895f28f8e6c1108362a34a511c9d3650289cb721ebcef5d98f46a80abc860001b61109f565b6148cc7f395a2b41463b9bc55e92de3464436583594d7ace5a27f6737d8d872edd12782660001b61109f565b6000600660009054906101000a90046fffffffffffffffffffffffffffffffff166fffffffffffffffffffffffffffffffff16905061492d7f55528f8c9a8f489debc4bba4dd7b215ca34769f5993dc8faf4fcd7063531048060001b61109f565b6149597fb5f4b115bfb318b757f05b91062523067d1c830e34af0d99f338150a6711208860001b61109f565b6000600660109054906101000a90046fffffffffffffffffffffffffffffffff166fffffffffffffffffffffffffffffffff1690506149ba7f91608179b64176064fbaafed754716fcdd6eadc03f0762ec34a46faf6a0d29af60001b61109f565b6149e67fadefc34139e641920329dc9e76978da52ec599d0f0afbe9a9fb75da0a745541c60001b61109f565b60007f00000000000000000000000000000000000000000000000000000000000000001415614c0957614a3b7f35a25ac034f245d2f4efd7f50c9447e6a75d04c9f299e5d1517ab1532d8adbd460001b61109f565b614a677f99610874a0754695b72477dccc0786b9205066f2cbd909b0b95fadf8aec4f66060001b61109f565b614a937fbe9450dea32492e870da234b064bd986580047afdc8cdc5436334263ee0c7c1760001b61109f565b60008060066000600660108491906101000a8154816fffffffffffffffffffffffffffffffff02191690836fffffffffffffffffffffffffffffffff1602179055508391906101000a8154816fffffffffffffffffffffffffffffffff02191690836fffffffffffffffffffffffffffffffff1602179055505050614b3a7f3412ff05751004fd616d35ed211d41b0a196be86b1f54cbd0d44e080a021b26c60001b61109f565b614b667f69c927e3a3c751a5ecea61ed7953b11d325b226eba0e868a66dd254147c4b62760001b61109f565b7f9f878c349b0fc751f12168fdf539db8c1848b81c0751432f28626da5aa7024ee8282600080604051614b9c949392919061ebdd565b60405180910390a1614bd07f304ce2188f81271dc3c04517b651e746e3ec780ca5f52556dac28de0e08b961d60001b61109f565b614bfc7fc8fcc0c592436f2fd90c940e857e962faefb6512b8fad6feb3a0b05245fffcc360001b61109f565b8181935093505050615326565b614c357f313687ad8f3d97dfbb1a2766f38fd5e24f932fd3bb7229b96c30aced130f136b60001b61109f565b614c617fde50bdee63b39e121f435f5fcd67d2af3f3f00eb1e833d39a96db55936ac1c7a60001b61109f565b614c8d7fc81498c4f9a2e1f352fae46b7077f5833d571564544c4ba62bda48230f62c98e60001b61109f565b6000614cc27f00000000000000000000000000000000000000000000000000000000000000008461532b90919063ffffffff16565b9050614cf07fb8c09d28990a484d206b9e367c9e1eac0a136409fcad396c2765240a4422c86a60001b61109f565b614d1c7ff4994c1ef5dd6be780b31e409fab9cd06cbf921469a7e997746c3db2af3dcde360001b61109f565b6000614d517f00000000000000000000000000000000000000000000000000000000000000008461532b90919063ffffffff16565b9050614d7f7fc22f568ad2f01636494144f31f9aa43d501686cee36064967030a40f721a2e7b60001b61109f565b614dab7f476aba605b2b78983f9aedef21da0ba5ef70a0db4045a805dcf367fe4a00f86d60001b61109f565b6060614dd983838a7f000000000000000000000000000000000000000000000000000000000000000061843e565b9050614e077f79c2ea51dc265051b30bfb33b865743c301a4960975062d9f57bbe11a495e38c60001b61109f565b614e337f7a920f80b12c227b350c65e3452fce05fe5a333a290995c149516e2ec48331b960001b61109f565b6000614e9b7f0000000000000000000000000000000000000000000000000000000000000000837f000000000000000000000000000000000000000000000000000000000000000081518110614e8557fe5b6020026020010151616ae290919063ffffffff16565b9050614ec97f9bfdcb8d8f4bdeddea9e08b5e7748d8ee7f4304fbe337e95615c608c740896eb60001b61109f565b614ef57f1e254e336724cf94f39e46aa70d271c0aadf46231826361b0f76647b13da540860001b61109f565b6000614f5d7f0000000000000000000000000000000000000000000000000000000000000000847f000000000000000000000000000000000000000000000000000000000000000081518110614f4757fe5b6020026020010151616ae290919063ffffffff16565b9050614f8b7fe0d76ae2303e630552a2fefc0d03874de6c4e4cca18efd8538633ea9678e9e1360001b61109f565b614fb77f60cbe18dd94fbc7ff51d1e797cf13499dfd2be7863076b4c31282bae84fc4caf60001b61109f565b60006150317f0000000000000000000000000000000000000000000000000000000000000000615023867f00000000000000000000000000000000000000000000000000000000000000008151811061500c57fe5b60200260200101518961698d90919063ffffffff16565b616ae290919063ffffffff16565b905061505f7fd213fcb73434927b0c8fca5007d754173cfd8f4d9b03c750fee7bfce586d52b860001b61109f565b61508b7fa99758f196f0cbcd2d689e80a1bf9f40d3448c519bbe63e1426a1eb100f3d08b60001b61109f565b60006151057f00000000000000000000000000000000000000000000000000000000000000006150f7877f0000000000000000000000000000000000000000000000000000000000000000815181106150e057fe5b60200260200101518961698d90919063ffffffff16565b616ae290919063ffffffff16565b90506151337f886fe18490ce401ce2606ef4bf86d9a93e1d7a7377ce4c8ae7550ef7c751c99960001b61109f565b61515f7fbd11f1be7d516b4fe2c60ced7a77c51f7ea4dbb4d981d45fc82fe9fde17ebded60001b61109f565b7f9f878c349b0fc751f12168fdf539db8c1848b81c0751432f28626da5aa7024ee84848484604051615194949392919061ec22565b60405180910390a16151c87f99fa975864111c0213d3d6a7f489ba57f6d9de3f36b300b29d4d5d9486a1f88360001b61109f565b6151f47fc42d7325b2ad6813ce059bda1fed666e46ff7a89cb660ca916b91820f0f5ef0960001b61109f565b81600660006101000a8154816fffffffffffffffffffffffffffffffff02191690836fffffffffffffffffffffffffffffffff1602179055506152597f9416f4cd2fd167ca555d80ec5edefd04ff548eaf2a5654167929f6227fbe091d60001b61109f565b6152857fc64eedeefd3e7d1f244f5386c0226e5a5d01b5a6305715997e1a48d285e7759b60001b61109f565b80600660106101000a8154816fffffffffffffffffffffffffffffffff02191690836fffffffffffffffffffffffffffffffff1602179055506152ea7f05bbd4f68b42240bd2ae94f920f59550c0e30d22d7d596b6fcff206bc3e5f41160001b61109f565b6153167fefde5cc34bb64905910f1bcd6686ff452db2cf2d70c13d3d85adb3258db6fc1460001b61109f565b83839a509a505050505050505050505b915091565b60006153597fed5730d97338cc99ec7ced602749e69fad452b233ce5af1bbc10319879372caa60001b619351565b6153857f8f6916668b49b644d98f771f124b5a32bd9897d7ebe53b3c38ade6a71e84085760001b619351565b6153b17fe14f128dd52a43628a9bba7b0a6f33bfc1a4220802b917ba737266f9dcbfa49c60001b619351565b600082840290506153e47f46dbb44b8cf04ee6e61d614d79ce70c1a85cc911b0197fa4ddce642a38fa5fc460001b619351565b6154107feefba6c3b698f9572b5bf37de3ea9769c52c377600e5b34f929c993e75aa62d460001b619351565b615431600085148061542a57508385838161542757fe5b04145b6003613fa2565b61545d7f38f54c5617f008a16f1f038a9a8bdf61cc1319b326250c056a5f9064eacdca5460001b619351565b6154897f7a48fe0d9a13c1bc8e2332965b60872b1e28e7883785e9895a3ba40dfcccd1c360001b619351565b670de0b6b3a7640000818161549a57fe5b0491505092915050565b60606154d27f9359c4c890f76be4e3381ab221fd0ee8a530e0050113749f46f85066d30ba7bf60001b61109f565b6154fe7f46d34d9a3b817dd2aa0643922147333a1337f5869e02303882b6512a73734c7f60001b61109f565b61552a7f16c76ccc7759d1916a070a66b183f092630739d6a0419cc8155ceda75b6f095d60001b61109f565b600267ffffffffffffffff8111801561554257600080fd5b506040519080825280602002602001820160405280156155715781602001602082028036833780820191505090505b5090506155a07ff75008ccaa5b31f5fb88228642ef384c6890bebf9e6d5a08b6e78bee3f561f4960001b61109f565b6155cc7f3db00ffff6d6bc4229c148d1bdee64b67cbc561d4fdab612b614d874323510d660001b61109f565b6000806155d885619354565b915091506156087f1283784d7645920814a917d7802dc79feb38e9ae804c91abc785f59e9e91271860001b61109f565b6156347f1fdbc04765f2c5889df0cdcc57478e7bdf8e142a88f94be94ca6cb2ce213398b60001b61109f565b600061563e610986565b905061566c7fabf649f6ec988d09092e068c448a739d727a9946da4adad13a6877a3b7ddfa8b60001b61109f565b6156987fe2ec0074e0fdc9261561170431e06ff1cec8f9ed1d4722542c09a34326760a8060001b61109f565b60006156ad8385616ae290919063ffffffff16565b90506156db7f0234b100035add051f1b8fc5dd747d67523f49539be2fab0b9d663709c34d1be60001b61109f565b6157077fab456d447aa9d68b59b71fc8ac6f41f97dabd7e57349ef947c5e9311b30db59f60001b61109f565b61571a818961532b90919063ffffffff16565b8911156159695761574d7f9e7cfa3a8254a74a189a04e775ba92701dfa3d55914db9b1f8d510314b5e0fb360001b61109f565b6157797f32e06cfbdf25406c586d4452c53db4df16b302a7d97c8a5599550340b36b6f3a60001b61109f565b6157a57ff2f0cdecf0ba6a84d58bc5be1014948b2017bf5705cbecd8258c19ddcb25421960001b61109f565b60006157cc856157be858d61532b90919063ffffffff16565b616ae290919063ffffffff16565b90506157fa7f82ea24f45d45c02deb3b41d9fbfaa0d0b799f5857d81d80cd64f8d89cbb8f8df60001b61109f565b6158267f6fdb00db21991209a4dfb7e280728ba2658b0895a0dff7d2372dd5e7266c9c1f60001b61109f565b615830878261944c565b61585b7e5f8bd1b60e5fbb176b78caca190cf83e36c6b25f3dac4bade314a1d1eb47ed60001b61109f565b6158877ffc003f4a07e441ac09df3c185816a9f283c1852bf9703814e60b87012dc74d8c60001b61109f565b89867f0000000000000000000000000000000000000000000000000000000000000000815181106158b457fe5b6020026020010181815250506158ec7ff6bbf71dff928bb9b4af0f93696987d0365b46d14bdd7b6413b915eb0464973c60001b61109f565b6159187f6674944209bf5b561bac76bac70c26d2daffdb7b18d07502961d0d7cb869a60560001b61109f565b61592b828b616ae290919063ffffffff16565b867f00000000000000000000000000000000000000000000000000000000000000008151811061595757fe5b60200260200101818152505050615bae565b6159957f592130d4830de090234ce701463ecea32b4b95110a9b45669fbb8a2801836c3360001b61109f565b6159c17f590a3a92b5123b2f68213614f8b21a5bc09ecbd97545296bdc4d46021a64fbfc60001b61109f565b6159ed7f6fe0aae0a4cca462e5beb9341abd4952d74d3abec5a9e3162595b3ca02bd62ef60001b61109f565b6000615a1484615a06858c61532b90919063ffffffff16565b616ae290919063ffffffff16565b9050615a427f77242e54f5b4f5db5c8f952679ce6f28f75babd6ddd6851e3a8d49606d06dc3760001b61109f565b615a6e7f9ffc8e62319c8d592458d4b747b6e7db7416d051329a589f2bbbcbea85c35d8f60001b61109f565b615a78878261944c565b615aa47f886b3ffe6c96118fe0fe4669bbc577e97b13580705057c5ee4cd32c64d72c49660001b61109f565b615ad07f4197733b29f009cc370a7387bea1254be06fa95a828670d1a1c1779d3ce26e0560001b61109f565b615ae3828a61532b90919063ffffffff16565b867f000000000000000000000000000000000000000000000000000000000000000081518110615b0f57fe5b602002602001018181525050615b477feea43d82f874c45f427902937da7a060bebea38b89eed63cdef2ea1021cf4b9f60001b61109f565b615b737f683a47aac3771f92fba9412cd15c6d01b8b89b0359e6098ba63ac322d38bff8960001b61109f565b88867f000000000000000000000000000000000000000000000000000000000000000081518110615ba057fe5b602002602001018181525050505b50505050949350505050565b615be67f90884f2dc001f679d7568451d7b2ab5c39e5c2fbaebc3514c505d8a24064694160001b61109f565b615c127f66c1a977c19f541538f477149939cd30fe2a600c828261525b2db3da01b51c9d60001b61109f565b615c3e7fd894c7824a492e07acb90cb07bf7ab44fcbe02f9f4906472f4b26e4e9869912c60001b61109f565b615c9d817f000000000000000000000000000000000000000000000000000000000000000081518110615c6d57fe5b602002602001015160127f0000000000000000000000000000000000000000000000000000000000000000619094565b817f000000000000000000000000000000000000000000000000000000000000000081518110615cc957fe5b602002602001018181525050615d017f5b7dcc9a1e9a5c2f44bb01f0cd406ea584e34857bb2c74bf14a5ab7a7e2f813c60001b61109f565b615d2d7f30ceb79ce605fc1645d17b2963bf4454e790f4d3eaebc86a84c17f44b002499460001b61109f565b615d8c817f000000000000000000000000000000000000000000000000000000000000000081518110615d5c57fe5b602002602001015160127f0000000000000000000000000000000000000000000000000000000000000000619094565b817f000000000000000000000000000000000000000000000000000000000000000081518110615db857fe5b60200260200101818152505050565b6000615df57ff67b73872898a1d9130ea76b2bc02afb6363e67a006a4f37d343ad27d7b3de8460001b61109f565b615e217f17324d2cb3fb509ac5e43050ed5b8bc3da9853079b7a4617aedea9e770f7823860001b61109f565b615e4d7f48907d3a576dcf336963acf3ce5528aeb8b701aaf44bb187a275b81d292d52a560001b61109f565b60007f00000000000000000000000000000000000000000000000000000000000000004210615e7d576000615ea1565b427f0000000000000000000000000000000000000000000000000000000000000000035b9050615ecf7f6b09bcc52d2bc929aa85dd2d17617acde5163f326b8dd479428524909d3d94b560001b61109f565b615efb7fdb7b671dfe9e04bee7049abc544cf4f1e5ab5215b4ef5ec6bcf36a887c72ce5960001b61109f565b670de0b6b3a764000081029050615f347fb17ddabcb4616c75e33ffb312a1f762d84c01e8bc7b02b9c8acd8f6caf139a4b60001b61109f565b615f607faedd144054672da38ee546ce6ad999a93e5fefb7f9be15ae680805a53325fdfd60001b61109f565b615f9d670de0b6b3a76400007f00000000000000000000000000000000000000000000000000000000000000000282616ae290919063ffffffff16565b9050615fcb7f55905c776d6baf38ec9652f87b7ac3c6e93d7614aba27892cce41c9114b4acfb60001b61109f565b615ff77f1aed46c79a02e5eeca15d19a1d97c834fb79d3ec40c64211c3ecd469d34595a060001b61109f565b600061601482670de0b6b3a764000061698d90919063ffffffff16565b90506160427ffdd9995199df206dfdb91ce2afebfb98d28fb6ee76ae1bba151ce2735662b52860001b61109f565b61606e7fa2460c682b33d1a22712dcd846fc614c97012bd36d9279e9d20dca1b24f7359b60001b61109f565b61609a7f1a0b83d4ef52982e3e5ffd6220a152cd65cb809064d931c5e7adfb01c2fea77060001b61109f565b60008114156160a857600080fd5b6160d47f2a915592a1c7c8a0cd0acf07b87c11abf5862b3fd10c5672f30e92432cda613260001b61109f565b6161007fe87f6560a004938a0db3b4462f926b459e7c50703f9627f1cddf3b590ca5b1da60001b61109f565b61612c7f1a725a4ec6abf7198feda52528f37b18a983e1bc8a1081f1bc7b2571cc30014660001b61109f565b809250505090565b60006161627fb4c60d495595d7051d8098367e0de1231ee7e80c066e7cf13cffda8b2df55af460001b61974c565b61618e7ff917484f913307b5657d4ab3ec7eeadd398ce3e0dc0b8a44c7e18f33908b4d8a60001b61974c565b6161ba7fd9993763574719ccb3d52803699ba2b0c07ae80a8386a1a49f0e3206a06e597560001b61974c565b6000821415616257576161ef7fee5b6ef8f709ca23d29f28bbbded429a1f46e1b071dd22dcdb36f0169023ce2b60001b61974c565b61621b7f2f38ea7e23d14ced68f2c8d26c1a06353fe28a5477d2e90639655786f70aade060001b61974c565b6162477fff2a31b9f5f4df515e93cf41490341323353d178b9ded18b88942e772f534c9160001b61974c565b670de0b6b3a76400009050616987565b6162837f3f9d98aeaf2b384358eb814c674452bf993b71bcde381ab99c62c1e1b7c9cc7560001b61974c565b6162af7f285385695c1469df8d40544367a3887392a9a19f337755911ff2e833fa25f0d760001b61974c565b6162db7f8362e6b8144905802616b73f08a4e909eff98018428a360951a787610869496c60001b61974c565b6000831415616371576163107f538a78b1a226602ac0c28f23d0a001812cb9266b7a8200275d63a8103c29943960001b61974c565b61633c7ffc2303ed0447e12f646e5e93c96414156a534c77dca9832e8f173b501fc7079b60001b61974c565b6163687f5cdb5f3c19c4fe78c6e0ec9aff7f265f1c49b4418e388de53160770c7ee4fea560001b61974c565b60009050616987565b61639d7f402f08c3700a9ba79e37ef8ae3f17460b205cb9aa20cae1ac99e6fd6900f0b2760001b61974c565b6163c97f67d21360845b5cb81fd0da81726ef6df96862325ed5681d05dd7834a4866b92060001b61974c565b6163f57fd020e8b002604fdc6b25646d7a5467d0fbe85a3ffb626730ed3700bc3067892960001b61974c565b6164227f800000000000000000000000000000000000000000000000000000000000000084106006613fa2565b61644e7f19210e46be6a7a70189454c42052cb399c3738b24219c6df22248489d62d52af60001b61974c565b61647a7f373d3f9c4e2094eb1aaa97274f961defb62bbe3c79a9e8bae367d092f610845060001b61974c565b60008390506164ab7f745ee1f4dfa91a709ce3c8b8e1f67a866dd27f48aacf05d631a83c8dce558cfe60001b61974c565b6164d77fce71d52d68fa278561a2037459d48b7e826e0d5551892a19430d5de1b0e91c0860001b61974c565b61651668056bc75e2d631000007f40000000000000000000000000000000000000000000000000000000000000008161650c57fe5b0484106007613fa2565b6165427f11dc92b50edc857f208acce2630b0c81321a8d850c1a983158880a4ef51a062d60001b61974c565b61656e7f5f106d65f79b95c3498165b29378c228730e8107c79497c7a7ad3aaf12c6971160001b61974c565b600083905061659f7f6100c7790d38a4f53962a1e9bc064f419c5d1932be74925c1a7781aa5f73483c60001b61974c565b6165cb7fbf4971f0797695daefdfd0f9aa4478e79ee2d13f1764241f7ce4ac5db5d7cb3f60001b61974c565b60006165f97f0c43470e96bf36e53365b61f93bb0896edbe246670a260b1fba7be7f0a1dbec060001b61974c565b6166257fd0e38dd54bd0736bb1e741b21b513d786ecef408bb5f9c813c64115912d9b6a660001b61974c565b8267016345785d8a0000670de0b6b3a764000003128015616657575067016345785d8a0000670de0b6b3a76400000183125b15616787576166887f6e40d061606b0c46da816399be7fe0691cb2204c3c6147bad3d540b1a45e349760001b61974c565b6166b47fe0aa81b287cb2dfa1c80efceb64ca93aafac727174949af816d6a823f906a84c60001b61974c565b6166e07f99ecefd114f208cc8ee60459df9c72115af94abdf496f5bd5d533e11f795e55f60001b61974c565b60006166eb8461974f565b90506167197f574930d9b5e6e25c2f06b9f74f2c2589779af7b00d042a6a0f5d0e315e9da52360001b61974c565b6167457f5174c41d1295ec451a05f7c41b635ecd2659214a71144e4a8bd7b062bf19a4f560001b61974c565b670de0b6b3a764000083670de0b6b3a7640000838161676057fe5b07028161676957fe5b0583670de0b6b3a7640000838161677c57fe5b050201915050616819565b6167b37f6bf9892d0971979a63f6208a420e6f24ac858c86369268e25c26871b4db4f0d160001b61974c565b6167df7f1bbdb1dc34afe49b3d15b1db75fa7497ac29590b4f800b5b96a07a46479553e160001b61974c565b61680b7f6b7db22b1943d81c0d8484154752d09e11866a862933253cb3effb91596c857560001b61974c565b816168158461a008565b0290505b6168457ff5307d01450754d11b6999a6f15f6940605ea263d8d1a4d2677c5d4cd16b9e8860001b61974c565b6168717f5da3025494ecf25168477a05baf7b9878a21c4c8e96c18e3b6d1ddba3b4d260560001b61974c565b670de0b6b3a7640000818161688257fe5b0590506168b17f57cc0c34b883c0764df0f16c3418c3160b70e73ff7ed2363638c77cc780edd3860001b61974c565b6168dd7fa7e92dc2b3da2e2407ab43ecd25882ebcffa5fbdcd60123e73d98f20cc63c09260001b61974c565b616920817ffffffffffffffffffffffffffffffffffffffffffffffffdc702bd3a30fc000013158015616919575068070c1cc73b00c800008213155b6008613fa2565b61694c7f1fc08f08b4ee48ce0f7ad30806166097c215655d6e1cd60c08bd784612d9b01260001b61974c565b6169787f4bb8f0ccf8323c048a3352be5af0559be12691807755568ad9369d233b27b0d060001b61974c565b6169818161bd16565b93505050505b92915050565b60006169bb7f98fee658fb98ee3a3f7d31c9b144bae0694670e2d2c9740be272b5cfea0092c360001b619351565b6169e77f293f09d7307734d72ef4603c3433eb00449e5e883678fdc8895b9ad14da4388760001b619351565b616a137f9ea24ae37f0db9d37904a7342a2b686a492cf5195c6dc2b3a033aa704f81844560001b619351565b616a21838311156001613fa2565b616a4d7fe5e0f286e14e3939ab23ad606f1392eab58a6aa878cfdfda24b238e5aaec25c060001b619351565b616a797f37759278f4a59534be934e0e6521d3364d9957c6491e795f56bed364064e433360001b619351565b60008284039050616aac7fad28cb0f8fb12a20cffd3ed3e3e4311fbd593c9af7fcd49febf0e43a31f27eb060001b619351565b616ad87f73877f4e66f2878c1974f071e9743c95266cbad904e3148b9557f6ca9019d15260001b619351565b8091505092915050565b6000616b107fd681117b54f8c42dd9b9b724675b90500142f91e0c692c88cd29f6a4ac20d90260001b619351565b616b3c7f166d54a6dcc2da1700c278643acbbe8ec7be0a002e0be3664514a05bff76410660001b619351565b616b687fbe546f1bb4a2252f3c69d522122f5305aead99456e33c2514e382512cbd275ad60001b619351565b616b7760008314156004613fa2565b616ba37f66baa7ca3e26778872311ae2b37bf38dfa377789cb684f64abda0507ede6155760001b619351565b616bcf7f9bbcc745d05068633f50f2da4aa7785c4882dcfa9bcf9c1c303a65580176ef3f60001b619351565b6000831415616c6557616c047fc3eab5df153e3b105e157cfa055bfa8e0845e90270ff3255e7446c30deb579d360001b619351565b616c307fdbc3d990e3f3bab6fa2a0d2d047661dde07c4ef25a24501839feae50185866ff60001b619351565b616c5c7f4dfe5096d5d7b39d55b09ffb0f574f2071999b6d3e264f41d19472f6f6dff6a460001b619351565b60009050616dd4565b616c917fb6dfe2886846608d4ab290feca7c5ec6ae2852dfbc3707d276ab66657c42cd0160001b619351565b616cbd7fbd6d291981cc28a3445540f278cec30943e7da252b1f546a4206e2297370b83860001b619351565b616ce97ff68e1a1503b4afdf9fbf5a22748d3463567f3562a99e1fe0c70f16aa0941e7ae60001b619351565b6000670de0b6b3a764000084029050616d247fa9252a08ad1a46a72a3ef9d1afb829941f22d18012268e7192e1b3ffb5eba14960001b619351565b616d507fcb9cc8cc61006212eb8ed6f13e3a563d524b873c3a01f66af4887945460f4c1460001b619351565b616d6e670de0b6b3a7640000858381616d6557fe5b04146005613fa2565b616d9a7f2f1f45017adad415bec4ac763f6f16672ad5b44eeea98c3ac69d9a7e7ffe543c60001b619351565b616dc67f512b328f221d3319110052907ee75993170f783e77190fc89cfaa6bdfa4cb69260001b619351565b828181616dcf57fe5b049150505b92915050565b6000616e087fac384cf145f24535eabae2e03982065aac7582515c06000a5520d117e3575ca260001b61109f565b616e347f2e129d2787f5fc61d0f86f92883c108996d6e80f974adb34f5a11dbeeb82598360001b61109f565b616e607f5420c7c27386d3b866903155cd58e32853c26a34306efc0a6536aae9b55ae96760001b61109f565b7f000000000000000000000000000000000000000000000000000000000000000073ffffffffffffffffffffffffffffffffffffffff168273ffffffffffffffffffffffffffffffffffffffff161415616f6b57616ee07f760bef04a51fdb5f389e0f4f9661df6e2ea3c5645248dff61719f41e03dd465f60001b61109f565b616f0c7f7b692c32421849698c9eb9d1fc74632a65e0b6603dab93d1f5a389bf99e27eb860001b61109f565b616f387f5e614174a7f9d85515fd48de4e36e22b66431d37d331df5e8d18d99a23f4877360001b61109f565b616f64837f00000000000000000000000000000000000000000000000000000000000000006012619094565b905061718d565b616f977f542268a567eb376d2193b9600a5454bf807d4e7a68a807ebe6342c7463851b7a60001b61109f565b616fc37f0b7cdf1853b1e4059accb52ae65b81c6614947b3dc470e135fdcfc3f40b8762960001b61109f565b7f000000000000000000000000000000000000000000000000000000000000000073ffffffffffffffffffffffffffffffffffffffff168273ffffffffffffffffffffffffffffffffffffffff1614156170ce576170437fab8a2aca6e7a2518bc2620fd0523b35dd70a058c29faccbefb2715a060205bdb60001b61109f565b61706f7f1fb3118d0bf0c5c8f2bc67ce5cc7465a097084056d263d2f69e76f2de4137dd560001b61109f565b61709b7f2f3d41e48ade74e43146dbeada7e10f7e4329055cdbf01223d27562c91f9dd2e60001b61109f565b6170c7837f00000000000000000000000000000000000000000000000000000000000000006012619094565b905061718d565b6170fa7f1ece0d96096407e1923662c4dd7175d89895cdc977f94309150f05a381618f1960001b61109f565b6171267f3a7e1c9087ba84a39bd8dda627e96a5f4321311a3523c560daba269942cc7ce460001b61109f565b6171527f1b28725892b8adeea590a21e457f8a5022d5b855291b5664bd1f01bd98abe75b60001b61109f565b6040517f08c379a00000000000000000000000000000000000000000000000000000000081526004016171849061eb87565b60405180910390fd5b92915050565b6000806171c27ff0439810445886439ee896f295b114db7097e6f29c33f19019808e4cb437d1e460001b61109f565b6171ee7f8964673377990a83ba6e5f733ad1e19aff8ccfe82584bd909cf12f6e7c8e5c6860001b61109f565b61721a7fb2aef8ed0447849be59c8c75936a4eb3627c35d4c83620cd4a53170c8f4fc52160001b61109f565b7f000000000000000000000000000000000000000000000000000000000000000073ffffffffffffffffffffffffffffffffffffffff168573ffffffffffffffffffffffffffffffffffffffff161480156172c057507f000000000000000000000000000000000000000000000000000000000000000073ffffffffffffffffffffffffffffffffffffffff168373ffffffffffffffffffffffffffffffffffffffff16145b1561735d576172f17fde2dcaf3227857cacc5f75dd9e5653a32f5b31e7ca9b11c634b3305cb36cc23960001b61109f565b61731d7f3e8d52666cd9d4e0a3c0b94fe5edfd2cfc4f57600e05a63144912eb374823a1860001b61109f565b6173497f454e1d9aa1fe54ad65cdf970ba22c2d8007d5a05b7f925b18197e403ea49202f60001b61109f565b85617352610986565b8501915091506175b7565b6173897f79bf2e1d30711ec26016faee36a97feabbcb0b1781b1881f732987819ff479b260001b61109f565b6173b57fe355895c8d03e4573b31c8697c8f9be3e98ae495cae5e888df876261c54c2efd60001b61109f565b7f000000000000000000000000000000000000000000000000000000000000000073ffffffffffffffffffffffffffffffffffffffff168573ffffffffffffffffffffffffffffffffffffffff1614801561745b57507f000000000000000000000000000000000000000000000000000000000000000073ffffffffffffffffffffffffffffffffffffffff168373ffffffffffffffffffffffffffffffffffffffff16145b156174f85761748c7fc452c46a935a6e9bdd471aff8492e2a124a023daf52ec21c653b7943c1b0fbf860001b61109f565b6174b87f3da0f067fc50821c3a210cdb9ed36c1e24c66c3a085336dcd410e2405f19f5eb60001b61109f565b6174e47fc2c934f79e6a3d48b6b1eb1446315c6faaf5cc7f05f4c3c98b256a9e4eb78f3c60001b61109f565b6174ec610986565b860184915091506175b7565b6175247f7e05f057f82524ce5281aa8df9eccbf53cab58caccd41e2365d38b2fbb81553760001b61109f565b6175507fc96c1041d99104d72fed57b0f7bc05248187689afdfe824506705b9e34f1748760001b61109f565b61757c7f0662f56fda4a9796378c7160748883a9e5d389b7250cce29603100e03c5b867b60001b61109f565b6040517f08c379a00000000000000000000000000000000000000000000000000000000081526004016175ae9061eb27565b60405180910390fd5b94509492505050565b60006175ee7f156679cfb2a0fd67fb476031f208ccccf45414ed26a0a151d80468c3fce6fde860001b61109f565b61761a7f76c4ca0c747d3c710576748357ba69af38fab70f879f1a56ec9344837d36569c60001b61109f565b6176467f805f3e0432510f75520cc4c39b5149143c20f1da7ef78845b7947248014f9e2e60001b61109f565b8115617b08576176787fd9ec6442650e5e9c7e29a8673683e921aebdcd7b9e9c4a37c31293053aedddfb60001b61109f565b6176a47fb01668f08f7170081ebbaf9ef9120ff99a374de7a0c58eb1c7ca628a1169f3c460001b61109f565b6176d07f24794a505f2d2067d799e45d1027617332a75189e20c3483447f24623988069260001b61109f565b7f000000000000000000000000000000000000000000000000000000000000000073ffffffffffffffffffffffffffffffffffffffff168373ffffffffffffffffffffffffffffffffffffffff161415617916576177507f09f54c492cb8f1e4a92295e93bf33415e75f129bf4cc1eac7519a72205de3fb060001b61109f565b61777c7f9135af034094c7ec21f97f1efac86a3604b48ed9149fa8e6c6337eafc43cf4eb60001b61109f565b6177a87f183674aadc8a128e537a2edf3bcc93acb86ad5edddd9ab564d551f7feaaf63e260001b61109f565b60006177ef6177c0878761698d90919063ffffffff16565b7f000000000000000000000000000000000000000000000000000000000000000061532b90919063ffffffff16565b905061781d7f11cabc25d30859343aa65ad720e966fffe6f8c535c69fef911a2ce6acf85a70e60001b61109f565b6178497fbaad1025efa4fe55b875058f6c10d5c75bbd106f5222a2978d805e362a893b6460001b61109f565b80600660008282829054906101000a90046fffffffffffffffffffffffffffffffff160192506101000a8154816fffffffffffffffffffffffffffffffff02191690836fffffffffffffffffffffffffffffffff1602179055506178cf7f3363660f8c50ce3a7443fcecb49de3fb7d3f5c4c444eb4b0c3892a9dc8119f3d60001b61109f565b6178fb7f785a04e9e35bba0e509a9986b1ed0516dc924aeae8537bad8816cc3411432efc60001b61109f565b61790e818761dbee90919063ffffffff16565b915050617fc0565b6179427f120613a19fd526c85d900c13c1c6fdd731a42523bb6f2407bdfd1316ac41ec8660001b61109f565b61796e7f432428755df227c938c0f2448df07efee4141d1407c7156e5c8d19ed6c1f1cee60001b61109f565b61799a7f919a65a5936ce7461f2f601cb42041970e33977553b551d5ce93e1ff86a37e7760001b61109f565b60006179e16179b2868861698d90919063ffffffff16565b7f000000000000000000000000000000000000000000000000000000000000000061532b90919063ffffffff16565b9050617a0f7f9fe6ce53f9099c3c417431e7b87d3e0a8c5e003bfd98e93e4138d3521b46eb9760001b61109f565b617a3b7f1398d0ceeb24b819b342d7ff3c09190d296c952b39e1568e5da10c90fd2b915a60001b61109f565b80600660108282829054906101000a90046fffffffffffffffffffffffffffffffff160192506101000a8154816fffffffffffffffffffffffffffffffff02191690836fffffffffffffffffffffffffffffffff160217905550617ac17f2762b78430d0c5de4a4bdf4973d2dfd41c12c007861657e9e8413389cefa849860001b61109f565b617aed7fae62b8cb08906ecadec5465dadeaefa2779058f5c19fd01da4b1ed0a3b10564460001b61109f565b617b00818761dbee90919063ffffffff16565b915050617fc0565b617b347f6f15ea2821aad9add320caab6a1ff8d96f1c5f1974816367c49ed8ade5b7118860001b61109f565b617b607fd57a11c1018da4534efda02ab55bc6e7a0b1cc3c1619b071128ecd80ed9cb3f460001b61109f565b617b8c7f1ecc89d165eb255bf71dd360a72dc72f0180894a012fd4c5c7f2f934cc851aa960001b61109f565b7f000000000000000000000000000000000000000000000000000000000000000073ffffffffffffffffffffffffffffffffffffffff168373ffffffffffffffffffffffffffffffffffffffff161415617dd257617c0c7f8382e6b82650ccdce52adc742ae7d0f6b8c3221283eea2b8d9e1b31f0861c71360001b61109f565b617c387fa5abce7f51bdc031347160b0d8218e9dab8eeea98db3788ab367b3bf6874fedf60001b61109f565b617c647fc02a710fe4761f967d5116511fcf2e18018e0d5a346383f60610d71f5682041160001b61109f565b6000617cab617c7c878761698d90919063ffffffff16565b7f000000000000000000000000000000000000000000000000000000000000000061532b90919063ffffffff16565b9050617cd97f4ba216d92d0d7bcdf18d7146dbdf2c72eb1500bf1d1f1c4d0ee046830a59ab7560001b61109f565b617d057f615e5ae9572de9712e8f40cdb062a19ed64efa374d24691aee98e6ec8a62f1b660001b61109f565b80600660108282829054906101000a90046fffffffffffffffffffffffffffffffff160192506101000a8154816fffffffffffffffffffffffffffffffff02191690836fffffffffffffffffffffffffffffffff160217905550617d8b7fe02cd4b4b2d6df700397d782579fc7a170c357d7c979bdd9a2d0c32044d9f5e360001b61109f565b617db77f341a09f5a1dc655bddfdb233b772ae84d6c6e17015f9a8a3f9618561face289260001b61109f565b617dca818661698d90919063ffffffff16565b915050617fc0565b617dfe7f93e16e253eefce92bc938d46774f29dff17a240ab97f5409bc2e37564e68489c60001b61109f565b617e2a7f3128e4cf5455751dbbeaa30ea4963d2e97a418ad9ebcc7b457fedd0cf18bd75a60001b61109f565b617e567f483b0108c5b1c1ba94c26e7e32a6c8fd72991557756d3466904ccf439f0c7f8f60001b61109f565b6000617e9d617e6e868861698d90919063ffffffff16565b7f000000000000000000000000000000000000000000000000000000000000000061532b90919063ffffffff16565b9050617ecb7ffd4e7d472778ead5c3488aa18dc685f8cc579c86a6f9db6fb18c4fb397d8ee2160001b61109f565b617ef77f7ecaf63db9f5ac422555e2444655a7aa0c392d048eb0ec38ec54a3e4c053ecdc60001b61109f565b80600660008282829054906101000a90046fffffffffffffffffffffffffffffffff160192506101000a8154816fffffffffffffffffffffffffffffffff02191690836fffffffffffffffffffffffffffffffff160217905550617f7d7fa0ebf981768feaba5fbd6bd0ae24ebede7575cd7f1b446ab9bb32e1d0163b4ba60001b61109f565b617fa97ff9ffe630140bc77d45d55429fe7372b1c4025d889edd4fdf5ab19950a95f7e8460001b61109f565b617fbc818661698d90919063ffffffff16565b9150505b949350505050565b6000617ff67f5ca88f12a5bacc813eed39aa9ae51a60a9734c1a0b0b587c3e4d2d0c23e5949260001b61109f565b6180227ffadc3cc1f21614257dd5fa94a879db01a823f2f545b252a88ab0ab0293096f9b60001b61109f565b61804e7fdc257a491b4b87c3dd7282d74eb174e7828a6abeea43a60f61ffca93be0cd68160001b61109f565b7f000000000000000000000000000000000000000000000000000000000000000073ffffffffffffffffffffffffffffffffffffffff168273ffffffffffffffffffffffffffffffffffffffff161415618159576180ce7ff56fb841a2dd154306a61f5206638b15e9c60540db2a7d5b59d34d888ffb211560001b61109f565b6180fa7feb96a8c7f6be0b9d316b718893edfeff47c79ead6183cf05e3608abbfe0b849660001b61109f565b6181267f7a61999c4cc3c0e76680b8b28c164be0264ded90d66a28292b66ac6775db116d60001b61109f565b6181528360127f0000000000000000000000000000000000000000000000000000000000000000619094565b905061837b565b6181857f6a0ebf4c679cfd8a33cecb221c626393639bd3446e3a2b2cc40233ebaef298f360001b61109f565b6181b17fe4757c88899e69e80072105fb3d789cd1c293fa33c325a6ee04b9cb13c0b991360001b61109f565b7f000000000000000000000000000000000000000000000000000000000000000073ffffffffffffffffffffffffffffffffffffffff168273ffffffffffffffffffffffffffffffffffffffff1614156182bc576182317f51f1c3eafe04a49ebcaa99a6c4867a68f310a314360e17794360d740fc81f6c760001b61109f565b61825d7f5a3a0952fdf28c3278d3cce974af58fc750347eac8a3543acc86d7a705bc267460001b61109f565b6182897f3f383847cbb6bb8d8f9695f13206f012d8971aaa12f499241145920b7507820d60001b61109f565b6182b58360127f0000000000000000000000000000000000000000000000000000000000000000619094565b905061837b565b6182e87f5bb27b3292b76973f84b2666af62b616c9d99fdef4e16865c80e8d83c63d015360001b61109f565b6183147f656a40e8e517f5e541427d2de53a03567a162a11eec1303ce10308aa92284b2660001b61109f565b6183407fd3ec7af3280663e720c02aa235954e3817235c03a608b2172f17b6b2f18e3ddf60001b61109f565b6040517f08c379a00000000000000000000000000000000000000000000000000000000081526004016183729061eb87565b60405180910390fd5b92915050565b60006183af7f2c54610e3fe0a98df3c423e90950973fc94146f557b01b6bee8cca13a6032b4a60001b6113c6565b6183db7fbc254dfd0c8280fa8535e89d4bc4cc331f18b5ac8558d459ad7b42c1e1c9d89c60001b6113c6565b6184077f2ceb1de44021a984c31888fffa7404fe74791ca186de59ed6c94965c86a06b2260001b6113c6565b61840f6143c2565b8260405160200161842192919061e8dc565b604051602081830303815290604052805190602001209050919050565b606061846c7fb06a919891b09d0bbfa81023a4fe08cc49a8406a32100771267bf5e7a26c126160001b61109f565b6184987f3f86ac31cc4ee68748018fc3ea7ee8de03e60caac9f5155f6d3324d10bd78ebf60001b61109f565b6184c47f9f3bec1081bfa628e66aa02ec3d3c625f83bd46a9a82d84ea5d2adbd4480567160001b61109f565b600267ffffffffffffffff811180156184dc57600080fd5b5060405190808252806020026020018201604052801561850b5781602001602082028036833780820191505090505b50905061853a7fb4d0308be56ea83b7628b8287471315ff2c4bd1a1c34b32f417663e2a043781360001b61109f565b6185667f6684faffeaf85d0e389611d1e041924914fb48b1fcfe488527cec63eb62a953060001b61109f565b60008061857285619354565b915091506185a27f3766a90ec68574df4a03fdf8a6e13195d9222316d27c431b299fd554f033d31560001b61109f565b6185ce7ffb0061e6bb80d3871d0eb8bdc6e96adb1ce1b40870994ae28c6bdde32870911f60001b61109f565b60006185d8610986565b90506186067f3cf1efaab8a372ee39e75154dd1e61e54239fe4dfe56916a3c588515c8f4ca0b60001b61109f565b6186327f1f1de5fb205b0e1ba08fd62d2a005103e4b5b55f54e95ce0eb2ce77c28c6f49760001b61109f565b600081141561884c576186677fdf4332c7960bd1f0ce852e11f9789b2633446624d2b896784aa32649790a9bd160001b61109f565b6186937fe65dd46a52d6da31bd5cd54b9c9f277c9d084dce434dbfc085968345216937a060001b61109f565b6186bf7fc489a66f8c1acb31bd307649002e0e22312a25bf59c6773b5cf61c8d0f51f28460001b61109f565b6186c9858961dd43565b6186f57f3d175cbd696a4c4d06023bfa36e01f5d48ec281eb1bc9471108304e89a65b4d260001b61109f565b6187217f20bb2ae442bbe87c62f2aa35d2f651d94f4c6a03fc4e8f0fa2385322d8291b6d60001b61109f565b87847f00000000000000000000000000000000000000000000000000000000000000008151811061874e57fe5b6020026020010181815250506187867fdd29e1a1fb45b659a63d3317c6c0f9d5311b6457221747f00a018f4860eceb8f60001b61109f565b6187b27f65d82b6e8c96ddc9cd32ad61068ac68b91387d999747abb0b33c07cc2de3f0bf60001b61109f565b6000847f0000000000000000000000000000000000000000000000000000000000000000815181106187e057fe5b6020026020010181815250506188187f0153386879eaf578cbf89fce82e2977344ecfa8d15088c2408a83af7f7b36a8660001b61109f565b6188447f5da5c3718bacf8f16f02afbc992ca59ff0cd7e89b0dba3028347c58ee9d2e79960001b61109f565b505050618e38565b6188787fe30f1754e8f6e2dadfceb5fdf581e7470f7a6712960e8a7fa6125a2c92697e7460001b61109f565b6188a47f8b34da74982e1af8d07a7be37f308fb1efe97563a38f49adc408737ee82435c360001b61109f565b6188d07fd2dc01e8d47f9582a581b7ebc803f300970dec41fc7c8a604e9364732e07dc8b60001b61109f565b60006188e58385616ae290919063ffffffff16565b90506189137fb79d54762c807d96bc83b3f930e2c2b7beb020b5e76a4f7d1f5c8aceecd09c4b60001b61109f565b61893f7f8eed57c561d14b9ae1bd6f6f4aab92de14af10e41b3fd2be103c6804562bbcf660001b61109f565b6000618954898361532b90919063ffffffff16565b90506189827f50e2b828455b4b8592acd5808878eb4a6a9f2aafaa782f79438d06e0b716f13160001b61109f565b6189ae7f4964c77458a34d23b0d6a684ea5834173f909dfd2be068f630e417299bb7e17160001b61109f565b89811115618bff576189e27f5c33cb3f81f249b9fea1c7ae5dd5f80710b187f8e2905315e70d816f7bdca9e860001b61109f565b618a0e7fe3768c8c8d72ef37cbebb82d0dbc6c4601e0d86b518fd50fc248ddaeb4b7888160001b61109f565b618a3a7f6303f25c86b1d64c64bdce8548cf938ee4742fcdeb0921c7363dcd56f2c37fa960001b61109f565b6000618a6186618a53868e61532b90919063ffffffff16565b616ae290919063ffffffff16565b9050618a8f7f0c0b968d12d8b232ced3d4d76b81fa2edd53dbd745594b73137d4669836effc260001b61109f565b618abb7fceb12b0c087f101ee626f9d7b7613528da4e3c8883003f0aecb27163919d43cc60001b61109f565b618ac5888261dd43565b618af17fcdf7a1c55ce56944f68849f218686986eb9ac9650df28b8ce69dfc975627a39360001b61109f565b618b1d7fb0e3f81f01e61e29c379fe3416efed1712bab1656fd4d5b31eaa631473ff317160001b61109f565b8a877f000000000000000000000000000000000000000000000000000000000000000081518110618b4a57fe5b602002602001018181525050618b827ff9221a1ee1563ceab92c7eef77537405d4043740fbff0ba40df03d3d28a634de60001b61109f565b618bae7ff2122257edf7488714d3c40f2ac38e7192febc29179bd8a38aa87781a61eb74f60001b61109f565b618bc1838c616ae290919063ffffffff16565b877f000000000000000000000000000000000000000000000000000000000000000081518110618bed57fe5b60200260200101818152505050618e32565b618c2b7f980cc8b3697682a1c00e59b78b8d613e2dbf8089d053736755b5d894e00d7c7360001b61109f565b618c577f6dd3e2bc9e8e6c2430b2c2ec19b31f6682cdf38523ef7fdc22635a4aaae426fb60001b61109f565b618c837fa1e5d0143fca56047197e23c0dab35f3a046047fe7664a8ea289c72cd984713f60001b61109f565b6000618caa86618c9c868561532b90919063ffffffff16565b616ae290919063ffffffff16565b9050618cd87f68056e13c0b94f14eec9f9a199eddc95f3108e3d26c2ef52d40349edbcf7ab3860001b61109f565b618d047f5e36ec040a462cf56d84c14ae5149751387d80265ac16f96b1b0b5f8bdfc844660001b61109f565b618d0e888261dd43565b618d3a7f57f370ce44c8e76441365d03fac67cd37e15f0ca125b9dff8c782e9eb2a54a4f60001b61109f565b618d667f6519006c484a8ee41aa2fdeda0d529b0c41ddf84e4b9964a5061d55f253eb8b160001b61109f565b81877f000000000000000000000000000000000000000000000000000000000000000081518110618d9357fe5b602002602001018181525050618dcb7ffc5eee7e44a3bd32760a3b3f683aa89fab56792c0e428d866e0826b54ca6979560001b61109f565b618df77f43aa5842cfff27c2030f999acf05bb34c5610e3180540f612846d49fec47efed60001b61109f565b89877f000000000000000000000000000000000000000000000000000000000000000081518110618e2457fe5b602002602001018181525050505b50505050505b949350505050565b6000618e6e7fe9ab1930f8b2a33e186614bdc5275e5aef3bc5199db452be16b906fe891a7aef60001b619091565b618e9a7f672db28399f3b33e0df219cd59d4073e056f97e6f18dcebfa00f27c463d9fd7360001b619091565b618ec67f0ab1a15c584dc550564822e51c90b6556d02439b72ef95c55813a7f4f670280f60001b619091565b60008284019050618ef97f4912ca1f746b67b87e92127e424ef610602ecd8455c415eca24e0e1efae1b65e60001b619091565b618f257f66114683dd19cf7947e3b2b818c6c55b57501af6e821e1cdb4f2f80d63a7276460001b619091565b618f33848210156000613fa2565b618f5f7fb783f36a61aa5e73f22951df3681c2eb20b8fba57492aa9e4764edbd3684340b60001b619091565b618f8b7fe7b48b6ed0eb47f18bb58555642ad250e08b266847ceeeb5fe538202fc79104360001b619091565b8091505092915050565b6030600a820601600a820491506030600a830601600a830492506030600a8406018060101b8260081b8401016642414c230000000160c81b7f08c379a000000000000000000000000000000000000000000000000000000000600052602060045260076024528060445260646000fd5b60006190337f80fca6b64f7b0789847f8be52c02b4e1f759789d6b7cbe957f89feefde4fe88a60001b6113c6565b61905f7fc446b9f164092d39ac2524a6d2e73d0ccb1abd271deaf1757b7310ed4335dbdd60001b6113c6565b61908b7f22f429aedbaa0bb811444c55a4871d76ff331b3f6f543b5d11608339df4e388d60001b6113c6565b46905090565b50565b60006190c27f70dce5e4cc58b6870fc4121f1c94c302e9e10333b2800ff0b72353aa0c13124960001b61109f565b6190ee7f43c7607211c22a6cee61158d7524dafb21715e2eccdeaa3d64698eca6e9762b760001b61109f565b61911a7f9330b5487ccc34d5fa661f27af5ef2a12b5116d6e8983b5a0f0388b8dbaf076b60001b61109f565b8160ff168360ff1611156191c5576191547f864211180fe9c221d8c024c5bc8240a54e8db525cb8c3ada082c62e0555ffdca60001b61109f565b6191807f4850d3cfa3719de536085a12c2ce0ce68ef4c513e07bdc860db265e614725a7560001b61109f565b6191ac7f16203bbbe5f7daec21459b1b5481afd81a183a341d930459a004bb2f67b3226d60001b61109f565b81830360ff16600a0a84816191bd57fe5b0493506192ef565b6191f17f6a446a7f6b15f2e87a5f6c07702f7bd169bc9673f1b5a786dd9c68c9f6a3ab8860001b61109f565b61921d7fde4277d16b163ef4ea77529ed2b4353733820a1c48424d9c4445fce99eeeb61a60001b61109f565b8160ff168360ff1610156192c1576192577f4f6429be0743ddef354911d3b8f6cf2e1ac32261cb62208c674c36b8bab4741e60001b61109f565b6192837fd3c0778f987f2d20a5c49a4fdeee9880f5b26881c94e008cbb872dd1f9dc728e60001b61109f565b6192af7fc9f45038817a39a17bdc881b30caeb887cce828eedc590a36bddbb1e842e703e60001b61109f565b82820360ff16600a0a840293506192ee565b6192ed7f6297642be15a1a43106da68ef3d1653f66b21e6204bbf272634b618213a9063260001b61109f565b5b5b61931b7f42bea15aead4f87e530ed457c65c97f71e267a837c0d8bed980b05f167ef3be960001b61109f565b6193477f57d47c923f7770e787ad8b80f2beb7a98c67752ad076c7b6386f71c600b18a9160001b61109f565b8390509392505050565b50565b6000806193837fe8e9d26dee4c1e02dc571fbcf9a3071c42475ac104590f2301f4d6e788110cc860001b61109f565b6193af7fb0950bdcb5cecfbd279ea46c3bd1b6129b72472531dc42abafa472122eb786d960001b61109f565b6193db7f62a1bec913561e1164ebd6ebf79cea3bc3364948b93c6327fb1294a0078cf51260001b61109f565b827f00000000000000000000000000000000000000000000000000000000000000008151811061940757fe5b6020026020010151837f00000000000000000000000000000000000000000000000000000000000000008151811061943b57fe5b602002602001015191509150915091565b6194787fe7895fc4b60ecaa846487cfdf88501d7a3d845f6dcfde25b51e9ebe103d4dd1660001b61076b565b6194a47f6119845ea51ef8873311c7cc5f6e9451228545977e83bd2fca034fcbf60592ee60001b61076b565b6194d07f1aacca6942d21795f8977f383904c3e6981588c0b3000f634c2e960582504b4060001b61076b565b60008060008473ffffffffffffffffffffffffffffffffffffffff1673ffffffffffffffffffffffffffffffffffffffff16815260200190815260200160002054905061953f7f8243cc9f1f57f1b96a49950cfe1dacbddf5929258edb0bee2ddb37a22281a90760001b61076b565b61956b7fbd44c0256d8aadfcef4efd3627db538d37219689c5361397870819146f70a42260001b61076b565b61957a82821015610196613fa2565b6195a67f8aa5942c2fc262cf7a401a7f3ecf060f53a4004fe1d78beae0b1fdbd6d1d6eeb60001b61076b565b6195d17ed6bace290ad6caf9ffec452c1670cff35dbca2b0a306ff96cccdce2e951f2f60001b61076b565b8181036000808573ffffffffffffffffffffffffffffffffffffffff1673ffffffffffffffffffffffffffffffffffffffff168152602001908152602001600020819055506196427fc52ce0972fcec86a98fe5814b728415679023175cd455db318311de66b92f34260001b61076b565b61966e7f05f8756a33b7123b4c227b842001d63ca97694d4bc95d0cf7cb6a8f99983400e60001b61076b565b619683826002546144e390919063ffffffff16565b6002819055506196b57faeb97f7f13a09e19770aea6bea39e3ee9aeb9772a1c8bc1b87847f12bb6fbe8460001b61076b565b6196e17f97d6ddec1a18888f9c7db4b95e3500d5fda1b79361bd668528ea1b5efc56b39c60001b61076b565b600073ffffffffffffffffffffffffffffffffffffffff168373ffffffffffffffffffffffffffffffffffffffff167fddf252ad1be2c89b69c2b068fc378daa952ba7f163c4a11628f55a4df523b3ef8460405161973f919061ebc2565b60405180910390a3505050565b50565b600061977d7fafad475bb9484dc1fd4e5b0ade9ae77d8d3f4374a1d7ed3cb8ed01d66064779d60001b61974c565b6197a97f031e05fee9e49ea9b35db640634f62d5ae8d789a9b00ceeef3e71de967e2d5e060001b61974c565b6197d57f23e17eef26db05186da272b7053ac848f6af2a19ac06f64cf23a971483327e3e60001b61974c565b670de0b6b3a76400008202915061980e7f5752269231d7207870d49a120ac51391a46ee6cca6f7fc08bde989b0d1ab986460001b61974c565b61983a7f31bb4605982d03d671f012c1710f6e3d3550f931186583070c565e112fa2f0b960001b61974c565b60006ec097ce7bc90715b34b9f100000000083016ec097ce7bc90715b34b9f1000000000808503028161986957fe5b0590506198987f833201f825ec9dbe3ea77cd20a272f47911676af570f953e1b63a6cdb627d40360001b61974c565b6198c47f32cfb75f0ff917d3887301975ad099f8e8cb9605c21447b1e4e06bc5cbf69f6e60001b61974c565b60006ec097ce7bc90715b34b9f1000000000828302816198e057fe5b05905061990f7f5262ad7374e69c862038705c852dbcd9a375ac7b77b81626dd85ef3bc777c8ba60001b61974c565b61993b7f814b893dec74f384cdc4ffe2e91849bfe5373d8e965b0e5516a5bda52889559f60001b61974c565b600082905061996c7f0578431d2704ffe9ad7fb07b78c670e53e0c4c85f46f554a12e4af69ffd8a60c60001b61974c565b6199987f5b497994a9114fb09ab4490f0482e2cd57ba6252595357738c52b4dbcf610da160001b61974c565b60008190506199c97f6e5b5cf3104a14c38940ba6bc5d534ecc8ffd4749f486b65ecd81f623c2f3ee760001b61974c565b6199f57fd2bc5c26d500ac606abc5b229aae0a994ce547e4b0cb499fe22410fb0626721460001b61974c565b6ec097ce7bc90715b34b9f100000000083830281619a0f57fe5b059150619a3e7f6b1d205a6375704a28ed95217bd697c1775c8c59b8a3f065720259fe133fa0ee60001b61974c565b619a6a7fb76b7ee84c379bd0981bbbcd218400913abe0a3bae29d77284ee9a0cd47ee34260001b61974c565b60038281619a7457fe5b0581019050619aa57fd17a6e196dc831a8c5818adf6e5de25ffe1bb186b988d0e5a93791c040bbc5ce60001b61974c565b619ad17f87dec2e16a0f0b4a99197fd8862a1e58da443b65a9358cac988fd9986c513e4d60001b61974c565b6ec097ce7bc90715b34b9f100000000083830281619aeb57fe5b059150619b1a7f497c66fd18cddd1edbdd663cf65697d926bf4b6b202abb5caf58c8e4f051e33260001b61974c565b619b467fda27ba2d015ea8075dbb2b6926438b22f84133b8f0bf78513b1edf4a258e9f3760001b61974c565b60058281619b5057fe5b0581019050619b817fe2fb1b5df927df9440cfd455d46a4204c48d3ad6ff3228dd000db2cad7f5cc0660001b61974c565b619bad7fe8af9739626a66be09fc26dc9203eb0d8cd6cf8a7dba0887a39e991cf5b78faf60001b61974c565b6ec097ce7bc90715b34b9f100000000083830281619bc757fe5b059150619bf67f1d2478f6bc640e0988b0185bf45bc2446e7569d05ef50b75bd9fd46b2cc3bffe60001b61974c565b619c227f190f9c9a243682a8039638cae963f3e8d3e21e066e69fc24076dbe78a6c2d04660001b61974c565b60078281619c2c57fe5b0581019050619c5d7fe3ef508b3c980059a2ac866f30a69cd5d5caaf518d012f26b857bd26916822cc60001b61974c565b619c897ffc98cd02c211181ab2a38e03eda7c39f50c9ee3fd49bde86a518fb132461897860001b61974c565b6ec097ce7bc90715b34b9f100000000083830281619ca357fe5b059150619cd27ff4b4d260d3dbe9bf6de0f129a91683f88b9d44e25798db05de253ea3779fa60d60001b61974c565b619cfe7fd3236a68c5b379154ac60efeb89e514db4db2f76c23a6994a980dc2601fc318060001b61974c565b60098281619d0857fe5b0581019050619d397fd204e544020feada4b05a8d1ccdbf5c4c33aa2654f76977adfdc750d9dc5a3a160001b61974c565b619d657f8064ddd04bdc1de318dc25362c5e30e08af518128db829fa1adc14430e30b53060001b61974c565b6ec097ce7bc90715b34b9f100000000083830281619d7f57fe5b059150619dae7f301445f58664fa4fbac2352a1521f719ea4787b63a1582747831d848dae7313560001b61974c565b619dda7ff41fb0d5d5d8201d1d56087eeb570cb7697800fc787e15a53624b92f1c44c9d160001b61974c565b600b8281619de457fe5b0581019050619e157ffff9bb0c690db875f9c0a83eb2bd74b233801209615f71003868a848005fde6360001b61974c565b619e417f9f355ac08862d8d248da9930374240c93301690cc2df63147fffeaf4f9525dd760001b61974c565b6ec097ce7bc90715b34b9f100000000083830281619e5b57fe5b059150619e8a7f2224481d9e6c9bc867452e63cb0ac2c3b90f6cee6a27b5ba18097d30d4a3062b60001b61974c565b619eb67f9af27505bb36cabaf6f21414ace7ccbd2f404fd0034ccea77c9c5242972ecab560001b61974c565b600d8281619ec057fe5b0581019050619ef17f5ba30ad8663a3844cb7eeecf5bca0665b8b344aaf43495a9e6bac8f6a94cbb9460001b61974c565b619f1d7ff700d16fbb686e4395754bbf15bea0b3328f413226a7736bdf223ecfcbab5e0260001b61974c565b6ec097ce7bc90715b34b9f100000000083830281619f3757fe5b059150619f667feb6e11531698cffa3af6fa0a98d7104f7a78094e845fb298a536d611092d8dcb60001b61974c565b619f927f6cc23dd5f97530be1458c9dfa2abe52d64ac4acc8dc4bc6913a5f388f8ba959b60001b61974c565b600f8281619f9c57fe5b0581019050619fcd7fe7ccb0a12fa031a0a94896d3e65aa142f5894c896d67a5491db6839213832d3960001b61974c565b619ff97fb0b596d060d7744021776e57e0c4ce81c61eb23d61a17e87e0acd84f0654f1d260001b61974c565b60028102945050505050919050565b600061a0367f2a0e4707fd37a2afd7a8622a8b8288c83462728dd05f2553df0680d7a6320b4560001b61974c565b61a0627f1b7f6d72cd142cb5c98d0dedc604a45de085120e8d78c6e59114dca025f3c19260001b61974c565b61a08e7fd6f2473eb4eef7b00d1de8a833714b900c307fc4b3db23671f0138d2f06bb4c660001b61974c565b670de0b6b3a764000082121561a1485761a0ca7f6fb39aa5e0de2d432f2ea710235cf2abdacc0d1dd65d625031d098392f9ed6b460001b61974c565b61a0f67f80d98144bd28bb593271a0957b6b785ee715cedba93a349b3415ddee4ff8a18d60001b61974c565b61a1227fcb1764bc9a85caa655591bfb618e0b29cfd97f20b909ef5f0aeb708a52458ac960001b61974c565b61a13e82670de0b6b3a764000080028161a13857fe5b0561a008565b600003905061bd11565b61a1747f5f795f796e34e48dbffe0e75962a006b6b8dee49c7959e5bf378a7418b7011af60001b61974c565b61a1a07f5163edfb7d5bde2b97eb7674a803d6d16fb9ea60ca35a0c1c540ade7b9f1ec5660001b61974c565b61a1cc7f061fa7b7a49b4960801efec85da6208c9a85886c1d6658be0d43a666dd1f37ce60001b61974c565b600061a1f97e071535dbc1bc6eed51b6ff932dd14cebd1fee562798e1756b2a2217221881060001b61974c565b61a2257f7909265c00215cf44ef659f60993e3ac535c6624133f2329f959282e5cf4720e60001b61974c565b670de0b6b3a7640000770195e54c5dd42177f53a27172fa9ec63026282700000000002831261a3615761a27a7f9eeff1bf1d7eb9bf6a862e29041c211045e50a9409090f8c6e76490d92209c8e60001b61974c565b61a2a67ff78b4b0b27c2baa6289e8c04ac6b732c76980b96221b0f5b504863ff297a7e6760001b61974c565b61a2d27fb92666a167e928646dbadb1c11387ce18eccaa72216e66e7980ff21a39b4a0c460001b61974c565b770195e54c5dd42177f53a27172fa9ec630262827000000000838161a2f357fe5b05925061a3227f9a28df60dcd3683c29ae4d4c8433e31b1e186e2b19b9dc31abb5668e999e130360001b61974c565b61a34e7f2349d251de36950693d8dc7fe3e89e22f4faa3facbc573713e36b3c1076bb6b160001b61974c565b6806f05b59d3b20000008101905061a38e565b61a38d7f5f868f32c1b183566d4fd477eeaa200fb7c0ac420213f8ab31d4a5a2ed804bbe60001b61974c565b5b61a3ba7f655d7719e6baab47a0409df7b7b8bae3eb3aeefa1c578e68daa5b30c9ed99e3060001b61974c565b61a3e67fba2e333c2a2c02398997088d511c39dc1e9f2fffff60bf1081691ff02b4ccfde60001b61974c565b670de0b6b3a76400006b1425982cf597cd205cef738002831261a50a5761a42f7f63d33fe4b6f6a3c71e6f29ae1d261b680fd6728d0077b1c0ef7d9315a424f98060001b61974c565b61a45b7fb0e8ad89b3655932a3524a3757970351a74e4b55c591ed66078f069debd8d16e60001b61974c565b61a4877f0ef7c12e03a2e291fe14ef2214a6b3fcc320d8f535fb4ea99e5497408efd973360001b61974c565b6b1425982cf597cd205cef7380838161a49c57fe5b05925061a4cb7fe0ecf868ee95734317a4c2cfa87355cb850f0b165a583d9fd6a006f20ec5462e60001b61974c565b61a4f77fb70f96a1f394bb2f6372bdfe228612c5b83eb7bd561b671ad7cf8ae8e148333c60001b61974c565b6803782dace9d90000008101905061a537565b61a5367f73ca4c73fe2aa4d27e5a189578ebbea10f70a657f99e31130e86dba045a4fd4160001b61974c565b5b61a5637f9fcb87c0be548e7851afeaab469990149ce57255e66dcb2a706db5a084bcce9960001b61974c565b61a58f7f4a1376489944ca0b521dea4175ed59678c7efeb09f16827cbf218c4eddce71d460001b61974c565b60648102905061a5c17fef1d9a7c37f8a36d71b46a6edda0e4a3363b95743da06d32ab4f32e3009eb72f60001b61974c565b61a5ed7f89debf19aa927a767ef509100e58ecd5906978a73fbebccebf581b8e26a6638660001b61974c565b60648302925061a61f7f0bdd1b09853face3d8b70ea65bd067179115695135e2ecf69891ca3483b4a0fc60001b61974c565b61a64b7fe84736814461598a4e42a3b2342c00e67b8d4c5b18f055163edb2fa75f2349eb60001b61974c565b6e01855144814a7ff805980ff0084000831261a7765761a68d7f67c3758e91595791b9150fc6a89a29627d1c992c2e4e70db244aeb0679d95b9960001b61974c565b61a6b97fd0bc08e158bfb2255c90a5ff951e6eea2d8a26f3864b358a83c1471d451a4ea560001b61974c565b61a6e57fdb9ef2d3cd566ef078f073dede74b4b38f19988bd40236e79b59ce8529e1736f60001b61974c565b6e01855144814a7ff805980ff008400068056bc75e2d6310000084028161a70857fe5b05925061a7377f08c724e21b52dc4806f198ffc8456fc6d4bb18ceb52c9ebb5a2ee48ee524154460001b61974c565b61a7637f7a6d26930463dc0b85337ed47cb609dc54834121d9ae4c44690da285c4b2434660001b61974c565b68ad78ebc5ac620000008101905061a7a3565b61a7a27fd8da6a7e72c78cbb49231b424f03ab3a41e3788ec9b0ffe3502d0833169c1c3760001b61974c565b5b61a7cf7f6389e56c956e82fc9ffca8a47e11c4becd7c0a23beab4f91c5401966c9f6854b60001b61974c565b61a7fb7f8a2d4a87b57f78aaa7e2eb003ffc00cacac41f290b5bf14b230285c78640967560001b61974c565b6b02df0ab5a80a22c61ab5a700831261a9205761a83a7f2c97f5462f483963631ba9f9e1ddb9d0a5c3c7f72c272c692c040b2c90ad849660001b61974c565b61a8667f8a09912793ae4b6f51c1aae5e93fd9e2fa3b4be30358e91c3a00030822fa8ddf60001b61974c565b61a8927fc024c606068c50790457f476f8bb6e9abd7876edaf95881faca2416802f49f4860001b61974c565b6b02df0ab5a80a22c61ab5a70068056bc75e2d6310000084028161a8b257fe5b05925061a8e17febb9291849e42b27d8b579f8a82fe2d68c9f5c996da64486de3ec1642fb2d6b260001b61974c565b61a90d7fb763f29bba9dbe1c899ab5fd37e6b92ec872bb4c29cd409faf8faaf7c00c06a960001b61974c565b6856bc75e2d6310000008101905061a94d565b61a94c7fbe811c74316467d7588f719973d8f73b6b44bdc2615d92021dbc626ecc22d31f60001b61974c565b5b61a9797fcd764b508c9e68721c72db58d23034ae8791912f0045b01605f75dbbe915672160001b61974c565b61a9a57f86f07fad501b095be885b4a911f2b7cc3834da7e263b0b37d949806471f08b3260001b61974c565b693f1fce3da636ea5cf850831261aac65761a9e27f80c7783e3a804543691c86546e82ac5b9ce5f48cf748365d31cc9c8a1908022d60001b61974c565b61aa0e7f87b3cccae0713c171e4cc3c30e9264b7eb2b67b20dcd9e5e69ce065d192eb8f260001b61974c565b61aa3a7f2ec340c657bb799f8a13576e44fbddb231da5b0d328354cb80de3786471bc90c60001b61974c565b693f1fce3da636ea5cf85068056bc75e2d6310000084028161aa5857fe5b05925061aa877fac47bde4bebd3a8de3d23e457d17a25c8ea35a923524467f19b9d05abbe3bb8260001b61974c565b61aab37fe98243a8b81ded7fb01dc058e6c1742677afa34175d47084e47311ed29291bbb60001b61974c565b682b5e3af16b188000008101905061aaf3565b61aaf27ff1cc0b188e6e4231cb4718ebd28e5bb14934978cfc8e864985872747523c378460001b61974c565b5b61ab1f7f99bca04e245a9275c2bd797029177b09ceed72a81e08e59bae2a73a797df93c760001b61974c565b61ab4b7f261e4d362d795e7cfe9c0c6868738fac4f9fe2ece1423c03a5d24175f2fdc78d60001b61974c565b690127fa27722cc06cc5e2831261ac6c5761ab887f3914829bbe0f6c5bf1afeaa34ffd544b8cb38edd8d3bc6614904f1155f9d428b60001b61974c565b61abb47f72947c0f257e2918752a7ccfc2b914288f3e2ecba1b758b07e8d97878884e48760001b61974c565b61abe07f11b375a7ba04e92ada9546ff504dcab892490c95edd3fcf9012815222efc302f60001b61974c565b690127fa27722cc06cc5e268056bc75e2d6310000084028161abfe57fe5b05925061ac2d7fb79d950018e267ef32fed84a6a9421d2eec0fb3e399156c9f3eff0196bb1cfaa60001b61974c565b61ac597ffbafab27350586c5b7594a218ca54443b7fba3e44912a674c9270d39be03e6ed60001b61974c565b6815af1d78b58c4000008101905061ac99565b61ac987f75c33499bbb991e3eb9467b741b89aa2ddd22c8f21d74da332eeecdb83be5bc960001b61974c565b5b61acc57f2c4465aef9653b674b06a595c74584529cb594dfa614f03186c6e07a1b7ab33f60001b61974c565b61acf17fb2eaae06e373ee55d19ea18eef81bed5eb9899dae375cb9b63dae3e1867e604060001b61974c565b68280e60114edb805d03831261ae105761ad2d7f0505fad27611bf5ac429a3287f77fe17c9697ff4ea39a955615534324a9d39bd60001b61974c565b61ad597f59fa2bc990dbd027eb8293fae49379d6e7cf7a2428cc6ba222350724ef85f9ed60001b61974c565b61ad857fa39e98762bdf9a1473933d1a9a310cb283b2cc6dbbe3ef7349725a4977e1942d60001b61974c565b68280e60114edb805d0368056bc75e2d6310000084028161ada257fe5b05925061add17f3ea03c67b7436c50f0e000d67f9cc76daa691620267f85a14504eaaed4847f6d60001b61974c565b61adfd7fce5961db4c1a04f1f8c2f9af131d650675ba333dd075fb873a8e59d9464a91fb60001b61974c565b680ad78ebc5ac62000008101905061ae3d565b61ae3c7ffce0ecef3e850a9ff19935f216d8139104295e7f80e2c6f3c921bed7d358341960001b61974c565b5b61ae697f23e31166ea24247d1011b5edd5515d646eb074fff4ed8e8e67246d0cfc48519f60001b61974c565b61ae957ff4c3e257c580f1ee065615a767f7c2c7cd33d12cec16baf63e5e520da7ab939560001b61974c565b680ebc5fb41746121110831261afb45761aed17f1f4ede70cd4ed5e3df87b570f80e274166c0c4fe7adefd0c9d71b1e2f06910ad60001b61974c565b61aefd7f0651b874402d08bca25e4278e92f9f7c2b8da5988db22363565d5d8131f15e0060001b61974c565b61af297fb0caf9cc4713e6c070f4384aa134e9e48540543d7da504f6e812304ff22757f660001b61974c565b680ebc5fb4174612111068056bc75e2d6310000084028161af4657fe5b05925061af757f2b3ccb5b4431d7fbf733a5973988809887fe9cb96487da42509383d75d21731c60001b61974c565b61afa17fabf5a8442a8bf87e50225ea9cbc4a507f6a1d9dd077e7c0bd7a5cb4ec3ccb37360001b61974c565b68056bc75e2d631000008101905061afe1565b61afe07fe73ba6b6046756b3503b220c8f1cd309eb8255b53619cf9d7b4d3d1eadd8cf7760001b61974c565b5b61b00d7fe5cf5698dcbdcefd3b9a0a197ef00de1bca0f41ce5493c0224b2fc4d95fcd54a60001b61974c565b61b0397f0c24fa121ee36c5882d60fef1a224ff7527b3cf2b1a829ee4126f4ff9953c28660001b61974c565b6808f00f760a4b2db55d831261b1585761b0757f781c9a058c785776d1b009208a14485fbec7afb99bb48fd1dd958be0f60792a660001b61974c565b61b0a17f041dc14b48dfafa37bf6be38cd94c53290ff5253f6dc276bb7a7c2feb21c8acd60001b61974c565b61b0cd7f7fd8bd3ee24373af9d3301d583ac9049430fe965f09b10814b86927cb9ea389760001b61974c565b6808f00f760a4b2db55d68056bc75e2d6310000084028161b0ea57fe5b05925061b1197f27b010efc80ee8f1455b5f944fa5064116e3866c96ef572403741c7bcc00448560001b61974c565b61b1457f334d0ec060f12209ce0cc3104d0dc35ac76e48b197a99651441c4d45e1ee6d9560001b61974c565b6802b5e3af16b18800008101905061b185565b61b1847f9359fd9481c47f4c86e5d320eef4eed6c4236b662d7c0e06dbb2761330c635d060001b61974c565b5b61b1b17f402ec0389c490a8a2f0c196c64a3656ad56807b23711c0e6fb4476c22317952960001b61974c565b61b1dd7f0121e51f92fc48c320d44a8fa79f5e5ac3314a045317e5ae18fb7b6ce1490af860001b61974c565b6806f5f1775788937937831261b2fc5761b2197f96ae510b17a6b1ca7bd8fc760ae47fc0837a5ba72cd065816d5f8ff89348ca4660001b61974c565b61b2457f32f2e836d4821cb35469705e1f1edd4e1c797bdf692eb469d5db18c889c277b560001b61974c565b61b2717f9d6d3527f1bb1ea0f06970d86b737dd956f8f9464dfba2d67918f253cfeebe1460001b61974c565b6806f5f177578893793768056bc75e2d6310000084028161b28e57fe5b05925061b2bd7fc00454d2d4886f95b68cea05c67878b88124baa3a4439a977c12794a61b4902360001b61974c565b61b2e97fcf55d52ea684236938078c6ac994ec866455bce1adc33f4538656c226106ce7e60001b61974c565b68015af1d78b58c400008101905061b329565b61b3287f72bedcddb98ff81d073f921a18c6b9074026e71079ca583962b50f09c058b7cd60001b61974c565b5b61b3557f91c8db69b86cdc41dbaffac433437eadd33fe2c9c0f6ba1520e4352bd2fc301660001b61974c565b61b3817fb5fc01ea3d63932cb15e68aee56e82cdac4c1d0200b3eb3e475feaabdff8e79760001b61974c565b6806248f33704b286603831261b49f5761b3bd7fa1823c0985f8916af7ff678e31e5f8d8db5e936004aa3b39ba3c4864a68276fb60001b61974c565b61b3e97fe293b5eb516e8d03e4c2bbc9bd2293a39d53c2faa56a6c6a56aab664bf80204360001b61974c565b61b4157f9470b504b3bf0593f4f0894c686d519b85bfd8660f4341a869dbaaa6c2a7a41360001b61974c565b6806248f33704b28660368056bc75e2d6310000084028161b43257fe5b05925061b4617f3af1254b1058d66d7bfe42a4de3bd5128918d1423e5a2ecd5195272287e29b4d60001b61974c565b61b48d7f111523abae47ccc25c7afd9cca8ee1f50d83da1c87c6c56491790279b39b4ea660001b61974c565b67ad78ebc5ac6200008101905061b4cc565b61b4cb7fdba95c89df2b2c302715f189fbf3e8afa18ed02a0c59d60fce3570e390e6bdef60001b61974c565b5b61b4f87f6316ad9c2f036322af3911484d11e152b6d666f6da2904d8264cc3d3d2b80eee60001b61974c565b61b5247fd5a28627aba873ec250cd7139b8402995822d6fb272bb09381926ea187bd23ec60001b61974c565b6805c548670b9510e7ac831261b6425761b5607f2b6f2cd02f0d47badd5586bc1d9f58ff8b6f2a00b766e06321fa78fcb406813560001b61974c565b61b58c7fcf6295743d6d9b70df97a10e09b7b1f265b2587afd80f5ad047d2f5c5aa5ce8760001b61974c565b61b5b87f70959ebdd95590440af102dceff0d55bd4fe599507ae4e7a40b420a10cae540b60001b61974c565b6805c548670b9510e7ac68056bc75e2d6310000084028161b5d557fe5b05925061b6047ff770e21630afd1c7aa2fc1949362973cfbf87c1eb30b824376a97730f9535f1660001b61974c565b61b6307f784b5eba7288ce0229ef72abf84d8b40e303f13e5ba2b81067cacdda35d7bccd60001b61974c565b6756bc75e2d63100008101905061b66f565b61b66e7f156e042116d7446a37fcb3d4ec960f9047cc18a02b4dd1eb8b734cafb9605c0060001b61974c565b5b61b69b7f0db1de3120dc404f4f8021def344b3c62f6ad502f740f40feaadf8129088e01160001b61974c565b61b6c77f02d82c98cb824b016938918581fa19f477ce037165d9d45d81fc649c9f321d2a60001b61974c565b600068056bc75e2d63100000840168056bc75e2d63100000808603028161b6ea57fe5b05905061b7197fb8b70f939d04cc8d75e576332b9da5134ecca82a3e604e74f291f1130da038b660001b61974c565b61b7457fc8638c5409badc3a194c6e9b05f173124591b35009f05b7b93f8c7ac08f8988e60001b61974c565b600068056bc75e2d631000008283028161b75b57fe5b05905061b78a7f08b9aee5b762bf1bc8db453d9aec5cec295ae5a677a9b26d440cdd9fc6973c1260001b61974c565b61b7b67f6cb11656fdc9d3015f974ed28279796e17070c5d53f72ccb82f50b82bc4723cf60001b61974c565b600082905061b7e77fd72baafeeac9478eeccd9951ddedf17ff7847642eea99342d45b7f5097b278b860001b61974c565b61b8137fa4c6691648fc2fbb9500367982871b44ea6f400512f6ae3fc78f3c3f987ed42260001b61974c565b600081905061b8447fa1de7af863295adb149458a9b54d21e22cf985e743af8fcec44e86f771ddfad260001b61974c565b61b8707fd6c2c10cb08e09aeb957267ee23223e3b865089983d3ea838a579f2c2f5217ef60001b61974c565b68056bc75e2d631000008383028161b88457fe5b05915061b8b37f4e5a98be01125eeff80c82c25e9fb9e7b02202a87b5680973ba14888b4a2dd1060001b61974c565b61b8df7f597baf07b0aeb0637c340154dbe8e11fe620c09c4034c72c7df03665ef6cd8fa60001b61974c565b6003828161b8e957fe5b058101905061b91a7f04208f16ed89180341d8d28de15f2cb7beb6514949a9f767cf9b5dce70daa00e60001b61974c565b61b9467f700add0bad6352b737db6cf0f4c820160e12e7c7bcc17138afe55d7dc67f2cab60001b61974c565b68056bc75e2d631000008383028161b95a57fe5b05915061b9897f89c0d9d75ead7925f8f92ef643044933a36176181961cfe6c033df79346d2bcd60001b61974c565b61b9b57ffb5cb14ed3f36ba24aee09acdcd10ddcc6cef0c8015b8dbf277d34419b5be26c60001b61974c565b6005828161b9bf57fe5b058101905061b9f07f9ee2cc40b8ab5263af95bc1fba71221946d091db613b8f93c440ee62d806ffee60001b61974c565b61ba1c7ff2f99f8aa918a208cfa8b8d746cb4db602795f57f17fc7210b61f1e70033ce0560001b61974c565b68056bc75e2d631000008383028161ba3057fe5b05915061ba5f7fecc1504a6f1872489c1e37269dab8253af49f886d0df7ca8481b19675f6414a960001b61974c565b61ba8b7f07c833df720764d188697faee613c532579bb7e21ed42a35ff67f744ec1c3b0860001b61974c565b6007828161ba9557fe5b058101905061bac67f84fd7b0810797764865edde09223268a68e6d7525e6ecbadaf3dae09414e91d960001b61974c565b61baf27ffc0b2be7401f325ebfc926f22bade8876e8ff231259625a9f735df4b069f724260001b61974c565b68056bc75e2d631000008383028161bb0657fe5b05915061bb357feda0abf282f0c681f7a6bea7294ec51e5b91579240b3a5869b70a821513422ce60001b61974c565b61bb617f33f4c27456bb21e26cd309307cb7936c191fb103606137f97c2c77cab81cdc4660001b61974c565b6009828161bb6b57fe5b058101905061bb9c7f0b0a463cf0a1c345b1a831db4be2e862990963ad0466c72e67296591cb8a44de60001b61974c565b61bbc87fe3cb1a8a990e03b2f6482a7a138828d42d03c3b912d9fe02f1d8f1abe3c7880f60001b61974c565b68056bc75e2d631000008383028161bbdc57fe5b05915061bc0b7f484eba67c966520b3c3f87a9b8eab2034364974b900e018ff0df9689b24821aa60001b61974c565b61bc377f31a5a8af2a9b00d798cedeb7efb46d9a3227c50b361e48082068d5b91294663c60001b61974c565b600b828161bc4157fe5b058101905061bc727fe0fe1ff2347fbf5e0aeed6107768b2e6ab4ba2b14de005486d84a54e35a6c9e860001b61974c565b61bc9e7f8182237f0d31121f22b1fc0338fc2685dbcdddd1ff1aa1cd20946bdf3367afbd60001b61974c565b60028102905061bcd07fb531577b46cfea8a0f0479f45520255c37d62cefeefad875161a20bb6916480760001b61974c565b61bcfc7f313d3cc6ccbaf2e16f0517b2aa4326497926a47540250bdf393e884dd6ec74a060001b61974c565b60648186018161bd0857fe5b05955050505050505b919050565b600061bd447f6603744b862ab6dc76e6d45ef526e659083d06b697b00d6c702452eccbbcbc0460001b61974c565b61bd707f6a49a08508150c5d74a9e797da5412ffecda75c75e3f9f6cf8ac1d076aed017b60001b61974c565b61bd9c7f9e338bcff6c9fa839ea936f99d55c006573ff2410ee796c8c578f80fb4b1476260001b61974c565b61bddf7ffffffffffffffffffffffffffffffffffffffffffffffffdc702bd3a30fc0000831215801561bdd8575068070c1cc73b00c800008313155b6009613fa2565b61be0b7fbdb879f854bb361f61c66fedce7851398eccca5f9b11421026790520dbe7330c60001b61974c565b61be377f1d4106cee033b42bb28453b29aa0514f3927be014f80298cd53c58a2cc144ed460001b61974c565b600082121561beea5761be6c7f9ffc9f9165e96c5cec8064de6562074aa4bac40b8e0ff74e7c050644d6db914360001b61974c565b61be987f1c1a6bf06a86628b0777bf190212858d70d2cd26d797eddea7239e104f67dc5e60001b61974c565b61bec47f91de43806e6b4c93b6310ffa0a64ac1345b1869837c53cd51a4ce9551ee79a0b60001b61974c565b61bed08260000361bd16565b670de0b6b3a764000080028161bee257fe5b05905061dbe9565b61bf167f710f40b391df50eaae53e451c37ad0bff0c77d8a26f4eaee1ed8318841ca3c7460001b61974c565b61bf427fe3b24104ba4f28e8f4e45cd19101ff28c8b19ddcd113c9ca8df4f2142fac388960001b61974c565b61bf6e7f132d6291004a07f16d0593dd55ca63dfa97424be4fb59f0316e4f4d586bf092e60001b61974c565b600061bf9c7fbf178581b4a8bd0d485eb7d309792ed64e29317921eb1ad6928122819990cd8560001b61974c565b61bfc87f4b73530e933c77adbf16e42a80b079e6465973fe14e96d2ef191423464b5d9cf60001b61974c565b6806f05b59d3b2000000831261c0e25761c0047f28c202a4fa617d7971cb39c3dd4cd40c55eb25a7ad2bfd29a623f97a5c2a395060001b61974c565b61c0307f1ba6b8a8de1c32823cfac339928d64937a118b4c6d43b0f781bdbc3ae120e8d260001b61974c565b61c05c7fd4b128d003931b1602679d18f1f1a759fce9d11915bfc0a0a5d82fb37119741460001b61974c565b6806f05b59d3b20000008303925061c0967fc7b2515a6893b42db051c9bc6887577ece63d35adcae1e97144222515ceeb39c60001b61974c565b61c0c27f9767975d425cc62d4c50edb1878d2aadb5d1873b1dfa1cfde2a4a50bb07c69d560001b61974c565b770195e54c5dd42177f53a27172fa9ec630262827000000000905061c2d2565b61c10e7f07ec3da6962ab3443fe25e4782bc420f041f271f4e2c2c1e41ea31ec574b498160001b61974c565b61c13a7f661e63e3bfe69a5481fd378700c3a30694d16dc746bd559dd5b9e1d497fdea9560001b61974c565b6803782dace9d9000000831261c2485761c1767f3785f3f40071b38454e95841c68a76b29a54b0286f0a37042cbb0b3fc8bde96860001b61974c565b61c1a27ff4ac48640a5cc6581ff67074a76f4d075f64dd6791f2c0ee2867cb9b1abb421960001b61974c565b61c1ce7f889a36601f82fc52f5548abb84d1f5868f98023c6ad7b75dc6e2b86c604e302460001b61974c565b6803782dace9d90000008303925061c2087f0b1c37b4156ff49c92652db2245ffe10f0b1ed61e4fbfa83deb1fdd7ef0d9ec060001b61974c565b61c2347fd599b74ef5fb374f32e66fafe9d91229dd5ea9bbe42ebc9c9e369d45a67b9df960001b61974c565b6b1425982cf597cd205cef7380905061c2d1565b61c2747fc05ed50e42b5218441d82c66e1ac1498481e60af916f8357ba5369d90bbfa76460001b61974c565b61c2a07f8c740e7289f8bec068c7716d88156a077a04a58a6ce1ce09d8d87f6e4286a1cf60001b61974c565b61c2cc7f11d6764fc64e11bea7ef6764e1c8e9763eda7b809566d1dc14e2ee76bda9ea4160001b61974c565b600190505b5b61c2fe7fe19248d93c4142e89f02c948c7b41874643d099f8f3c9806910174a58440e69660001b61974c565b61c32a7f4f109f8d42ef491ede922a778a821baff53572cccc88f1cb3076282db7b1380f60001b61974c565b60648302925061c35c7fccc83beb548390fbb57fe46719ec24dc3109f9c65afc25a2e784223bf6ace68560001b61974c565b61c3887f23629132dcacfc6e461c74305057c54a0d94e27778e8d26ef165babc08c8787b60001b61974c565b600068056bc75e2d63100000905061c3c27fdb70ef3e5349656acaf4bfd39c162434a5dd30fdc5ed51cd6b1c7d116c8569a960001b61974c565b61c3ee7fbc8b07fb08fad687d2e7dd3e137d525be659791a9db15f6080dd9c218e5e63a060001b61974c565b68ad78ebc5ac62000000841261c5135761c42a7f7af7a97bf5f0c230016e7431a39f93e9397911f74ae9af11fe119c64a3b8509b60001b61974c565b61c4567fa4c983995cd34fba0b7665c4b862417abb45618fa811f360c792718feb6cfe7360001b61974c565b61c4827f3e5e18d2128dcda7a3c51ec24dd69ed7fb3cf52476caeafa0fc9cc1bd056c2fe60001b61974c565b68ad78ebc5ac620000008403935061c4bc7f6ce1407a57f7ceacd45205a97867ce6d3eff75ad30b205935ec2a882cc2c41aa60001b61974c565b61c4e87f97eb016396da8decddd8bbc4903417a2404abc0fad5ce36252e97ed57c08f8f160001b61974c565b68056bc75e2d631000006e01855144814a7ff805980ff008400082028161c50b57fe5b05905061c540565b61c53f7f7a222f19097af0b8ebe8c4b3c271a3e1bbb95c2fca82e1ec497250ded78a4c0060001b61974c565b5b61c56c7f805a7d593b296a2b66ea0198b850ae8d06043f1640de3e48ad3083925acffa1060001b61974c565b61c5987fb98fa6d44a9bd420c1a47c3e06f9706d327ce038cac04d19f1c644d7fc63bcbf60001b61974c565b6856bc75e2d631000000841261c6ba5761c5d47f6dc70e2d85c9bd8acbed97f27b977a64cb7839b9e42633d1b46f9b036c5128e160001b61974c565b61c6007f04f6bb568e13485a2c8a77970954d846137ff4337ef9d0c54fe4611388842ae860001b61974c565b61c62c7fb6b77963ea2a5a58811478a28f586ffc54e033daf49f6036a783b6eae2ed5dca60001b61974c565b6856bc75e2d6310000008403935061c6667f3047dcef9c74f0035dabbbdd2d76608c30d2d9f42f28c357de0d9a6f5f6a05d460001b61974c565b61c6927f419fdbd313b9ce9839e9d4b1ad0b81d8ce89fede7d2718138eb64448a111f0eb60001b61974c565b68056bc75e2d631000006b02df0ab5a80a22c61ab5a70082028161c6b257fe5b05905061c6e7565b61c6e67f78265ba26cf98ba8b9f01378498d5783992c881672a03d99b00a4c5d46b9549060001b61974c565b5b61c7137f7d8f650f49754abeb5011fadf4ae00af9228f6819e89d9b268e3ff0bf7c0fa3060001b61974c565b61c73f7fc1d05e4b5dad4f9a17797bed4d3888af96549f8bf1d0af0a2c4bb6b4e3c6b16560001b61974c565b682b5e3af16b18800000841261c85f5761c77b7f61ba792ca7d7b22def1affea71a1123f05e945f1c1a132ba2a4b64884799c9bc60001b61974c565b61c7a77f6a3727128c70b59a167e729dad824b40e1da03edc85a66b7e37058bc42c719bc60001b61974c565b61c7d37f0521d6055fa0069604d409a10bfc091a96f09bd16b31cb9c5896f4abe4e78fe260001b61974c565b682b5e3af16b188000008403935061c80d7f070944c2f2dc8948157040166b057a7d8893c58300fec401a2db212d1ec62f9060001b61974c565b61c8397ff00325782656fa168cd75d7bdbb5703b163e22f7bf60cf090672c80e8de3443160001b61974c565b68056bc75e2d63100000693f1fce3da636ea5cf85082028161c85757fe5b05905061c88c565b61c88b7fceb7f0919299aac82bf2f5739c8b90acd7e7eba1c7e97ccf3dea5588fdb267a560001b61974c565b5b61c8b87f4c523f43931e9fc49c479095da1ab08aae4691c7a9d1e8c775f93717e6697b6660001b61974c565b61c8e47fde7559d37461b938c70fe551914609ca870da7fb47a2fe92f01c2445c483b1ca60001b61974c565b6815af1d78b58c400000841261ca045761c9207ffe7c77d3f2905df59ce6ef6212574caa23c3ff932a9a20429d711421a02806ce60001b61974c565b61c94c7f3ddb67d1fd7a64e04ba821306f2da4d739a5c87fc7753080fdfb58cd0652f7fc60001b61974c565b61c9787f1025142c8ba61bedb893a82dc956e8aa6c2e93daa12bdd4d506176813413bb1860001b61974c565b6815af1d78b58c4000008403935061c9b27f33e996955fba6856fdcbcdcde9073d29245874ea784831bbc2715ca0dfcc51e760001b61974c565b61c9de7f2e98d38eafb9450e22fecf0f84f48e746102f1bee8c2985f43cece2335e0b00360001b61974c565b68056bc75e2d63100000690127fa27722cc06cc5e282028161c9fc57fe5b05905061ca31565b61ca307f47615a45aad371bbecd97296e438b65fc99573cb6dc24eebeea45ddcba95299960001b61974c565b5b61ca5d7f12a0c1c60abaa4e2e79d89d81f48519554651861ed9f168e18279f5872b40ebf60001b61974c565b61ca897f5f135e138418337ac5c3bdd2e76ccd9cd3220fd08e641a5613d69512dc9e9bbb60001b61974c565b680ad78ebc5ac6200000841261cba85761cac57fb3ace12e78288ddcbabe9aa7830e86314de03b4609d686e08abc6cea618a220060001b61974c565b61caf17f2f8dbc5acb955780846833f47309ddb10b95862260661165e8693304458e309660001b61974c565b61cb1d7f059078fc27670543c491910de9e366dfadefa0383607112382ed74945a36a8f560001b61974c565b680ad78ebc5ac62000008403935061cb577fbd8787648837ca4047611ff6da351580f4d95b70bfff222525cf85c1700391b560001b61974c565b61cb837faed2b56272a449216b2b1f1c1b20039ec9d19ff891c3e5a7ac24104ab4896ca660001b61974c565b68056bc75e2d6310000068280e60114edb805d0382028161cba057fe5b05905061cbd5565b61cbd47f7d8041f68209c84c744c4a75cec2af589dd8bbcc8a745cb137ede0c954ad14a760001b61974c565b5b61cc017f1d2b7702e5cc96a97b6c7be229ea0e375b605cb4873269752c4cf3314d85aa8d60001b61974c565b61cc2d7fe4255d40177c13f8beef001a01711ab52bc875a366d8a8f0008b6d8303a7db3760001b61974c565b68056bc75e2d63100000841261cd4c5761cc697ffdbdd750116d2a046d7ecbc83773f84ca56a493d4b27baa6ccfc891d0f1c569560001b61974c565b61cc957ffa6d254aee1a01d616d7f0777f8b70339603bd2e743ff41fc3eb44cb75df87b960001b61974c565b61ccc17f84a3c20c13112011f7d5dde037eaaff5849301fea628069f51f5bcb01eaa69d660001b61974c565b68056bc75e2d631000008403935061ccfb7f7cf2afdf1b3142aee1de7ea27bea6cce310acd6b1b0c75722f0368a9c3ef94e960001b61974c565b61cd277ff006ee7068d2cbcb786bd5ebdc84ccc4d0ab36fe9fd9b00d21aaff43da155d4660001b61974c565b68056bc75e2d63100000680ebc5fb4174612111082028161cd4457fe5b05905061cd79565b61cd787fe583b06eac97353d0ff4bd9baa38f647b92a610e6a70185cc8b4c59981e2d3d160001b61974c565b5b61cda57f23ee693a4d28312a9def5bb67f28051dc08954178ac8c6a99bd3611f3ede923a60001b61974c565b61cdd17f07503d3d2ce3b15dda30b6de1073ebdd1b87cd99b96e9573bf784aa71890fef960001b61974c565b6802b5e3af16b1880000841261cef05761ce0d7fec2c19a72c3a6ab45e714d801eda84b0c95a7e064bbc6bb3271b06a7820b46f460001b61974c565b61ce397f1c257ed60e2af6238b450518259e0f106dd0967a46ecac496c039601187a1c2460001b61974c565b61ce657fb6aaffcf4c7bcc557cf2ed6ad3f876cf75bd255d10ff34d178bd7d7f7a5f0fb660001b61974c565b6802b5e3af16b18800008403935061ce9f7ff8eec3bbbd428287f31a94ad611dd00d0f9748f2708fd03982c79876ce574aa260001b61974c565b61cecb7f1e0ead2001d2ca04f2d62894cb413c363c6439ef0ccd395e382ff694fd265ece60001b61974c565b68056bc75e2d631000006808f00f760a4b2db55d82028161cee857fe5b05905061cf1d565b61cf1c7fe6abce81b6afb00697fe33f1555b17ffdb185dcd3317f3fb8c751065296a9e9a60001b61974c565b5b61cf497f12efa59ad9f2fbcbd1c408558e411668bddbf24d96895216b736c8d5fbd0f43a60001b61974c565b61cf757f9745baf78ffa78b5ea76c3832102ad9f89c94001934f7883b968bbe6995f416c60001b61974c565b68015af1d78b58c40000841261d0945761cfb17f7164f448c8a55596ae371fa4d01ed2d280113303a6193fba2b3ec230e7e1b00a60001b61974c565b61cfdd7f8f2f6885e0c02037769ef8a799a965a7974be536126ec579168ca6a70e8366bc60001b61974c565b61d0097fc4513f37c3809539c0d7d5a706593c858ddd0a195c0ec1ad6f03bee00b117e1260001b61974c565b68015af1d78b58c400008403935061d0437fde4724845db98e8fca24d9fed5ecdf0511cf8584cf25f67c5adaef214a4b657060001b61974c565b61d06f7f0edffcd09bf23e58a56b11d9fd2730c9460b188d757c6d690b11f6ee3434df2b60001b61974c565b68056bc75e2d631000006806f5f177578893793782028161d08c57fe5b05905061d0c1565b61d0c07f3bf335665c831bc42885f4c4f5a661a0eaac6452974d4d89b0cad02e13f920a560001b61974c565b5b61d0ed7fdb32284aae92927243fbc87b40e9a91f56392b193b967b9b47fbece50af2557660001b61974c565b61d1197f5f319f332aed3a677c60e30196d9414f0b45002c13bc12fe47d9250806d3ab5560001b61974c565b600068056bc75e2d63100000905061d1537fd25adb26b09b92471ef07f7eb1f0dfabe151779c4086e71365cd60a1f054477e60001b61974c565b61d17f7fae831f90c9720de4bd357c85aecc0a2ed7c793b1b64419318415f79b5b5ba24b60001b61974c565b600061d1ad7f13a59d57fa9fb186a09cb13db0555db2580cc844bc4f56f4978fe6352eaf61f560001b61974c565b61d1d97fdc67a0744f97707e1516f99b7d97619305a844cff712ba8bb047d1862b833f2660001b61974c565b85905061d2087f42ed1c52f98c9efc709b1839d7381ae4f7e79682229488485a9e535e5db1c99a60001b61974c565b61d2347f3f343d10c3ad56a07dcd790e36df3c48764b37f68fc46ef0667529c1428c09d660001b61974c565b808201915061d2657f40bfeded5813c9961de7ae74de50e8ebf99695523139bdeaac2ba16e99e9755960001b61974c565b61d2917f546464d511b4dbd9e175112ed79738997adff96602e612d8628d4f78911888c260001b61974c565b600268056bc75e2d631000008783028161d2a757fe5b058161d2af57fe5b05905061d2de7f5df678d9a7a6ae9a9498ffe7f8d727ae4de909f0b296ab2d694b2d309d2b646f60001b61974c565b61d30a7f5174487126fc5f2fd6f0379d294212de03f7b2f5d0dd279b4edbfdfc3e19e2eb60001b61974c565b808201915061d33b7fcf88976b65831ffe97b67b7b2ca013f7e5fdb847fbb93c7f2d7034533028158d60001b61974c565b61d3667e0558671959e5134d01ab0f86ae54af18cdefa82c5fb5316710dc5ad95f5dcd60001b61974c565b600368056bc75e2d631000008783028161d37c57fe5b058161d38457fe5b05905061d3b37f1cd95f17c41cafe1b13deb79ac956b5f958ce3efa711ba409d193273f812258a60001b61974c565b61d3df7fa34f0dfd30ef71733809d85683eee1009c10c65ec25271d7d9b2d272465c047e60001b61974c565b808201915061d4107f1426410cea942485931272d793a9f4ec5255c8d0f423ea227f721530107dde4b60001b61974c565b61d43c7f494659c81ab7e59032e61324f3c0073ae74295b96c9a247dc88db6f0cafcc6b060001b61974c565b600468056bc75e2d631000008783028161d45257fe5b058161d45a57fe5b05905061d4897f1041f8d0ca0bec305764b0cda20df1fa1b5b048a7e4d966072f7c096b6a7ab0f60001b61974c565b61d4b57fec785b35d8c27ebae08ebd898671e3fb113ad53755b142943087d76b60f697cb60001b61974c565b808201915061d4e67f32618ecd71d71820b399dceb4572c87b52fab009097cf45810bb2eb50972bf1160001b61974c565b61d5127f0c66c9cf36dcb9b7b3c8bd2315072a1978dfb9d3f81b58aa453a4cdb819699e660001b61974c565b600568056bc75e2d631000008783028161d52857fe5b058161d53057fe5b05905061d55f7f9fdd370c6b7cc675c6255331f249c10f8918ffe39ec046f6eb76d53a947c9a0960001b61974c565b61d58b7f11c9697c0e03e81da28813ad061aa548447a4d8a9dc3b8c23d59b2d12d5d7d4460001b61974c565b808201915061d5bc7f391db74f7749b7ae2ee31c87ebf9bbfd82d2346742d80e5fa635a77b6bf181cd60001b61974c565b61d5e87f1efa183081524998d6a056dc459be65c1b5e2c57e7156e7353f5c5a308de08fd60001b61974c565b600668056bc75e2d631000008783028161d5fe57fe5b058161d60657fe5b05905061d6357f7c80225555c21862d2127c45852b5b7e867187f90d7b479093a80d558ff363a960001b61974c565b61d6617f6bb4786a69207356caf0fd9ad4e477193225ae1222cc28eda8de5ded362a738860001b61974c565b808201915061d6927f2bd95cc2b46a697fc9e6c3650198698b02cdc489924a9625765e7773ab16ae8860001b61974c565b61d6be7f6d70ac07c1523999f0874733cef6a7fdeb1cbeb1b985e73e5c2ae45bb5fce47860001b61974c565b600768056bc75e2d631000008783028161d6d457fe5b058161d6dc57fe5b05905061d70b7f68c21f169be444da9ef45fe470d73b9632c50037aa8aa519cb49b2403965c2eb60001b61974c565b61d7377fb5368c2771a467a192bc432cf66ede3a2e75b42e30e5f6c8eaceca14ea142e1e60001b61974c565b808201915061d7687f0b197c00940bc34711a5c1bcf9f390aa0fc31444c572dc0d0ac1e8c2b9c1e1e060001b61974c565b61d7947fcc9a6a7838ea3873cd8cb7797d8acf9701ffb04aeec1db4c8f7bdfdfe7e2d3e960001b61974c565b600868056bc75e2d631000008783028161d7aa57fe5b058161d7b257fe5b05905061d7e17f4ae223488edf92d1ef9df11b74835814de75ca75fb53a7c67a69c1f378d81ee260001b61974c565b61d80d7f40437cc0071d40a545118470633ee8498f6ba07249e95bd277d662c8c3910d0860001b61974c565b808201915061d83e7f6a98bd98d5b6402216f6a26d5e5c6a0e49aa041cd602f0480a92757414fdd3b360001b61974c565b61d86a7fd3d9002223246e6684f9b356dfa9d5c123bb45a59faf3a71c2d8509cd1b8aadb60001b61974c565b600968056bc75e2d631000008783028161d88057fe5b058161d88857fe5b05905061d8b77f5915e3cc2f4da8323007d0f13b60cc72c7d692077501c6c0b751d92bee102cf460001b61974c565b61d8e37ff374d3c08292c299c854216de162077cf1e7e74d3e8d95785370cce4a8a54eba60001b61974c565b808201915061d9147fe551b770c0283b7957336a0413cfc5695d9a74be29735d8eec8935ba20731a5660001b61974c565b61d9407f43e66eba524ad5a79985eb4b8c6d6fc7162bfbfdd871b9f070e97db31542f0cc60001b61974c565b600a68056bc75e2d631000008783028161d95657fe5b058161d95e57fe5b05905061d98d7fd8a9b2676287d5379b156d6247aeb5c2f0fd0ed55c29065726548ea6fffde56f60001b61974c565b61d9b97f7e808415cc1dbceed6d010c33f90e1223eeae1f554c79ec5cdffaa7d70f578ab60001b61974c565b808201915061d9e97ec7b50af6579f36d212223599a7baf3371e84233a81a59f8730356090efe26260001b61974c565b61da157f057ce259ad07027680b845518d99ae02983046d284d711d975c4fd35edf89ca360001b61974c565b600b68056bc75e2d631000008783028161da2b57fe5b058161da3357fe5b05905061da627fce223532276d9fabf2fe44c77bfba17b308e50a661a67b2752655cb8cb6552c960001b61974c565b61da8e7f4dbc79d412cdba175117302a3d855398fccbefe1f2052184b32dd42523991c6660001b61974c565b808201915061dabf7f55da710f8842795b5b2e959480ee14a0c4f9c3cfa812287cfa3af7316963641360001b61974c565b61daeb7f805b231f29185d988c06992a4ddc8f42fa307198ac0ddf06216dabdf4e73bccd60001b61974c565b600c68056bc75e2d631000008783028161db0157fe5b058161db0957fe5b05905061db387f5ba9d0c8bff42f59665649e0bd725b6ab0ab482566bd0ccdc0bb78ae418732e160001b61974c565b61db647ff197e464f40cbe1f523b743dc74861641e5b4609d6d4ac255f5887f9f27cb66560001b61974c565b808201915061db957f94afe60d1248ac0a761f9e1237e351e82f9e7e83032f5e3866b4386013ebc91860001b61974c565b61dbc17f2e2220c3917686fb99da58ec04c3d2e5d0e5fd28f75995041eb4ceeca24f73f460001b61974c565b60648468056bc75e2d631000008486028161dbd857fe5b05028161dbe157fe5b059450505050505b919050565b600061dc1c7f59553e064ffc30705bc6f1bd0548781ec42eede447ec06cd2d9ddb674a8219be60001b619351565b61dc487fab4e9dc03bf83496a9fb56ed78c77ac71999c4c5b77197bc3f03888fa1f7da1860001b619351565b61dc747f8ef261d3a0653ab868c899418b467bc6f67e2ccde42f77cb49f1285b32558cd560001b619351565b6000828401905061dca77f172b47099aaf4a028546f4463220baa09cd81d77ae8c1096fc6579f4ecaeac2960001b619351565b61dcd37f967579ee3162c1a66be7747b1966e185b33f2fc6a52477633bfe253a007a6d0d60001b619351565b61dce1848210156000613fa2565b61dd0d7f837f36e10f55e182d80df4008a9565a95c9998c0cbd301003424ee94022b465e60001b619351565b61dd397f60b415dd739853b43f2c31e0a76108ad464adc9d8eacc59b1f59ea004963800b60001b619351565b8091505092915050565b61dd6f7f859b971d1a1255cf9d4cb958e7b1ee466850218c832922f5051633c8255740e360001b61076b565b61dd9b7f1e4219e446bfc49318475e67e9dd11a5c4904f252aed09a1e1987ed6f447f89360001b61076b565b61ddc77f470a94d2bcbba4d6bb89bc72d8fe31cf78a8e8dc566102efe0795181f9c5196160001b61076b565b61de18816000808573ffffffffffffffffffffffffffffffffffffffff1673ffffffffffffffffffffffffffffffffffffffff16815260200190815260200160002054618e4090919063ffffffff16565b6000808473ffffffffffffffffffffffffffffffffffffffff1673ffffffffffffffffffffffffffffffffffffffff1681526020019081526020016000208190555061de867fa0703f6eb5028f6ac193d4dd8a2444daf838d9c2ce959a095d092808f9cae89b60001b61076b565b61deb27f19aadcec8f30a84b6fe3489d9ae4f9ed9f7708f300e1ae0a833a1e807a13069f60001b61076b565b61dec781600254618e4090919063ffffffff16565b60028190555061def97fe55b6ddab0c258b148644c992ade42c43ee1114b03a612c38784d59bc66286cc60001b61076b565b61df257fb592118a6e6fd079c07f78575f993e050813613c6ece73dae980bf49bbe39f0660001b61076b565b8173ffffffffffffffffffffffffffffffffffffffff16600073ffffffffffffffffffffffffffffffffffffffff167fddf252ad1be2c89b69c2b068fc378daa952ba7f163c4a11628f55a4df523b3ef8360405161df83919061ebc2565b60405180910390a35050565b60008135905061df9e8161eecb565b92915050565b600082601f83011261dfb557600080fd5b813561dfc861dfc38261ecaf565b61ec82565b9150818183526020840193506020810190508385602084028201111561dfed57600080fd5b60005b8381101561e01d578161e003888261e20d565b84526020840193506020830192505060018101905061dff0565b5050505092915050565b60008135905061e0368161eee2565b92915050565b60008135905061e04b8161eef9565b92915050565b60008083601f84011261e06357600080fd5b8235905067ffffffffffffffff81111561e07c57600080fd5b60208301915083600182028301111561e09457600080fd5b9250929050565b600082601f83011261e0ac57600080fd5b813561e0bf61e0ba8261ecd7565b61ec82565b9150808252602083016020830185838301111561e0db57600080fd5b61e0e683828461ee6e565b50505092915050565b60008135905061e0fe8161ef10565b92915050565b60008135905061e1138161ef27565b92915050565b6000610120828403121561e12c57600080fd5b61e13761012061ec82565b9050600061e1478482850161e104565b600083015250602061e15b8482850161e0ef565b602083015250604061e16f8482850161e0ef565b604083015250606061e1838482850161e20d565b606083015250608061e1978482850161e03c565b60808301525060a061e1ab8482850161e20d565b60a08301525060c061e1bf8482850161df8f565b60c08301525060e061e1d38482850161df8f565b60e08301525061010082013567ffffffffffffffff81111561e1f457600080fd5b61e2008482850161e09b565b6101008301525092915050565b60008135905061e21c8161ef37565b92915050565b60008135905061e2318161ef4e565b92915050565b60006020828403121561e24957600080fd5b600061e2578482850161df8f565b91505092915050565b6000806040838503121561e27357600080fd5b600061e2818582860161df8f565b925050602061e2928582860161df8f565b9150509250929050565b60008060006060848603121561e2b157600080fd5b600061e2bf8682870161df8f565b935050602061e2d08682870161df8f565b925050604061e2e18682870161e20d565b9150509250925092565b600080600080600080600060e0888a03121561e30657600080fd5b600061e3148a828b0161df8f565b975050602061e3258a828b0161df8f565b965050604061e3368a828b0161e20d565b955050606061e3478a828b0161e20d565b945050608061e3588a828b0161e222565b93505060a061e3698a828b0161e03c565b92505060c061e37a8a828b0161e03c565b91505092959891949750929550565b6000806040838503121561e39c57600080fd5b600061e3aa8582860161df8f565b925050602061e3bb8582860161e20d565b9150509250929050565b60006020828403121561e3d757600080fd5b600082013567ffffffffffffffff81111561e3f157600080fd5b61e3fd8482850161dfa4565b91505092915050565b60006020828403121561e41857600080fd5b600061e4268482850161e03c565b91505092915050565b60008060008060008060008060e0898b03121561e44b57600080fd5b600061e4598b828c0161e03c565b985050602061e46a8b828c0161df8f565b975050604061e47b8b828c0161df8f565b965050606089013567ffffffffffffffff81111561e49857600080fd5b61e4a48b828c0161dfa4565b955050608061e4b58b828c0161e20d565b94505060a061e4c68b828c0161e20d565b93505060c089013567ffffffffffffffff81111561e4e357600080fd5b61e4ef8b828c0161e051565b92509250509295985092959890939650565b60008060006060848603121561e51657600080fd5b600084013567ffffffffffffffff81111561e53057600080fd5b61e53c8682870161e119565b935050602061e54d8682870161e20d565b925050604061e55e8682870161e20d565b9150509250925092565b6000806000806080858703121561e57e57600080fd5b600061e58c8782880161e20d565b945050602061e59d8782880161e20d565b935050604061e5ae8782880161e20d565b925050606061e5bf8782880161e027565b91505092959194509250565b600061e5d7838361e8af565b60208301905092915050565b61e5ec8161ed63565b82525050565b600061e5fd8261ed13565b61e607818561ed36565b935061e6128361ed03565b8060005b8381101561e64357815161e62a888261e5cb565b975061e6358361ed29565b92505060018101905061e616565b5085935050505092915050565b61e6598161ed75565b82525050565b61e6688161ed81565b82525050565b61e67f61e67a8261ed81565b61eeb0565b82525050565b61e68e8161edf0565b82525050565b61e69d8161ee14565b82525050565b61e6ac8161ee38565b82525050565b61e6bb8161ee5c565b82525050565b600061e6cc8261ed1e565b61e6d6818561ed47565b935061e6e681856020860161ee7d565b61e6ef8161eeba565b840191505092915050565b600061e70760108361ed47565b91507f4e6f6e205661756c742063616c6c6572000000000000000000000000000000006000830152602082019050919050565b600061e74760028361ed58565b91507f19010000000000000000000000000000000000000000000000000000000000006000830152600282019050919050565b600061e78760228361ed47565b91507f546f6b656e207265717565737420646f65736e2774206d617463682073746f7260008301527f65640000000000000000000000000000000000000000000000000000000000006020830152604082019050919050565b600061e7ed600e8361ed47565b91507f496e76616c696420666f726d61740000000000000000000000000000000000006000830152602082019050919050565b600061e82d600d8361ed47565b91507f57726f6e6720706f6f6c206964000000000000000000000000000000000000006000830152602082019050919050565b600061e86d601a8361ed47565b91507f43616c6c65642077697468206e6f6e20706f6f6c20746f6b656e0000000000006000830152602082019050919050565b61e8a98161ed9d565b82525050565b61e8b88161edd9565b82525050565b61e8c78161edd9565b82525050565b61e8d68161ede3565b82525050565b600061e8e78261e73a565b915061e8f3828561e66e565b60208201915061e903828461e66e565b6020820191508190509392505050565b600060208201905061e928600083018461e5e3565b92915050565b6000604082019050818103600083015261e948818561e5f2565b9050818103602083015261e95c818461e5f2565b90509392505050565b600060208201905061e97a600083018461e650565b92915050565b600060208201905061e995600083018461e65f565b92915050565b600060c08201905061e9b0600083018961e65f565b61e9bd602083018861e5e3565b61e9ca604083018761e5e3565b61e9d7606083018661e8be565b61e9e4608083018561e8be565b61e9f160a083018461e8be565b979650505050505050565b600060a08201905061ea11600083018861e65f565b61ea1e602083018761e65f565b61ea2b604083018661e65f565b61ea38606083018561e8be565b61ea45608083018461e5e3565b9695505050505050565b600060808201905061ea64600083018761e65f565b61ea71602083018661e8cd565b61ea7e604083018561e65f565b61ea8b606083018461e65f565b95945050505050565b600060208201905061eaa9600083018461e685565b92915050565b600060208201905061eac4600083018461e694565b92915050565b600060208201905061eadf600083018461e6a3565b92915050565b6000602082019050818103600083015261eaff818461e6c1565b905092915050565b6000602082019050818103600083015261eb208161e6fa565b9050919050565b6000602082019050818103600083015261eb408161e77a565b9050919050565b6000602082019050818103600083015261eb608161e7e0565b9050919050565b6000602082019050818103600083015261eb808161e820565b9050919050565b6000602082019050818103600083015261eba08161e860565b9050919050565b600060208201905061ebbc600083018461e8a0565b92915050565b600060208201905061ebd7600083018461e8be565b92915050565b600060808201905061ebf2600083018761e8be565b61ebff602083018661e8be565b61ec0c604083018561e6b2565b61ec19606083018461e6b2565b95945050505050565b600060808201905061ec37600083018761e8be565b61ec44602083018661e8be565b61ec51604083018561e8be565b61ec5e606083018461e8be565b95945050505050565b600060208201905061ec7c600083018461e8cd565b92915050565b6000604051905081810181811067ffffffffffffffff8211171561eca557600080fd5b8060405250919050565b600067ffffffffffffffff82111561ecc657600080fd5b602082029050602081019050919050565b600067ffffffffffffffff82111561ecee57600080fd5b601f19601f8301169050602081019050919050565b6000819050602082019050919050565b600081519050919050565b600081519050919050565b6000602082019050919050565b600082825260208201905092915050565b600082825260208201905092915050565b600081905092915050565b600061ed6e8261edb9565b9050919050565b60008115159050919050565b6000819050919050565b600061ed968261ed63565b9050919050565b60006fffffffffffffffffffffffffffffffff82169050919050565b600073ffffffffffffffffffffffffffffffffffffffff82169050919050565b6000819050919050565b600060ff82169050919050565b600061edfb8261ee02565b9050919050565b600061ee0d8261edb9565b9050919050565b600061ee1f8261ee26565b9050919050565b600061ee318261edb9565b9050919050565b600061ee438261ee4a565b9050919050565b600061ee558261edb9565b9050919050565b600061ee678261edd9565b9050919050565b82818337600083830152505050565b60005b8381101561ee9b57808201518184015260208101905061ee80565b8381111561eeaa576000848401525b50505050565b6000819050919050565b6000601f19601f8301169050919050565b61eed48161ed63565b811461eedf57600080fd5b50565b61eeeb8161ed75565b811461eef657600080fd5b50565b61ef028161ed81565b811461ef0d57600080fd5b50565b61ef198161ed8b565b811461ef2457600080fd5b50565b6002811061ef3457600080fd5b50565b61ef408161edd9565b811461ef4b57600080fd5b50565b61ef578161ede3565b811461ef6257600080fd5b5056fea26469706673582212201fbd30805a71b8a2779242922e4c2955dc2d69806961dc67519100fa0f8d7f5764736f6c63430007010033",
  "linkReferences": {},
  "deployedLinkReferences": {}
}