{
  "_format": "hh-sol-artifact-1",
  "contractName": "PoolPriceOracle",
  "sourceName": "contracts/balancer-core-v2/pools/oracle/PoolPriceOracle.sol",
  "abi": [
    {
      "inputs": [
        {
          "internalType": "bytes32",
          "name": "c__0xc7f42a73",
          "type": "bytes32"
        }
      ],
      "name": "c_0xc7f42a73",
      "outputs": [],
      "stateMutability": "pure",
      "type": "function"
    },
    {
      "inputs": [
        {
          "internalType": "uint256",
          "name": "index",
          "type": "uint256"
        }
      ],
      "name": "getSample",
      "outputs": [
        {
          "internalType": "int256",
          "name": "logPairPrice",
          "type": "int256"
        },
        {
          "internalType": "int256",
          "name": "accLogPairPrice",
          "type": "int256"
        },
        {
          "internalType": "int256",
          "name": "logBptPrice",
          "type": "int256"
        },
        {
          "internalType": "int256",
          "name": "accLogBptPrice",
          "type": "int256"
        },
        {
          "internalType": "int256",
          "name": "logInvariant",
          "type": "int256"
        },
        {
          "internalType": "int256",
          "name": "accLogInvariant",
          "type": "int256"
        },
        {
          "internalType": "uint256",
          "name": "timestamp",
          "type": "uint256"
        }
      ],
      "stateMutability": "view",
      "type": "function"
    },
    {
      "inputs": [],
      "name": "getTotalSamples",
      "outputs": [
        {
          "internalType": "uint256",
          "name": "",
          "type": "uint256"
        }
      ],
      "stateMutability": "pure",
      "type": "function"
    }
  ],
  "bytecode": "0x608060405234801561001057600080fd5b50610e90806100206000396000f3fe608060405234801561001057600080fd5b50600436106100415760003560e01c806360d1507c14610046578063b48b5b40146100b2578063fb5848ef146100d0575b600080fd5b6100726004803603602081101561005c57600080fd5b81019080803590602001909291905050506100fe565b6040518088815260200187815260200186815260200185815260200184815260200183815260200182815260200197505050505050505060405180910390f35b6100ba61027d565b6040518082815260200191505060405180910390f35b6100fc600480360360208110156100e657600080fd5b810190808035906020019092919050505061030b565b005b60008060008060008060006101357fba3b533463241377eda29b5bb88d493a35490be8e2c164ac3193e8b8fbc5b5be60001b61030b565b6101617ff6427835e6a64ea6b3c419d83fa98505ace295a67879844c38bef69dc587846560001b61030b565b61018d7f6f17de23b1da069973513f3e62de0f5bb859d452fe26af548b3de63469445bbf60001b61030b565b61019d610400891061013b61030e565b6101c97fb978d8997c79ea8c192172cbcba11f61092004a078127ebbf06cd255787bd46260001b61030b565b6101f57f2ff47f4e8f6be69d3b9c0e510299538876fb8411b1036863fc289283172c9a0e60001b61030b565b600061020089610321565b905061022e7f493533f703aef7cd6f267cf4779021b8f895bf576dc2b170f2c2537c0281abc360001b61030b565b61025a7ffff27bb16f16f83b9b7b9c57fb762b4b4d532399475e24db5682bd68041c94da60001b61030b565b610263816103c1565b975097509750975097509750975050919395979092949650565b60006102ab7f318d2dd8ec4fdb0ed36bc48c3ddbc176fb1024b56cac8e62a080346209d7b4c560001b61030b565b6102d77fe95a94cbdd8aed9532244b9953103a0152fa4a0ae6ab65618a6092be812c017160001b61030b565b6103037f6e0c5516b4470279441e2a94716dda60a9e9ad0f0696f4d6f94f1a444047f43a60001b61030b565b610400905090565b50565b8161031d5761031c816106b8565b5b5050565b600061034f7fb663c7c9909358efe4275929393738855eac90eacb4d924fd6f3ddc5b97549e960001b61030b565b61037b7f93c66e2a32979d91d9ec3fad04ad2a8a6b23c439d009e7e88b96613fca4d9f3e60001b61030b565b6103a77f47fd4a760037ce184bc1d35e2783ea166839fe45d13b50857a2189aadfdf5c2660001b61030b565b600080838152602001908152602001600020549050919050565b60008060008060008060006103f87f602defd52ec39ff315547ebfb5e606befaf09a5c9b40c45509e4601704b7134860001b610728565b6104247f208f463f1972fa1e3f779d49629578992c5d03b5b88beb0e242c6cf9fc68039660001b610728565b6104507f8c4db480088e5b34f80fcf352495d3e077152f61c5a4e739ce6f431653a1639260001b610728565b6104598861072b565b96506104877fcb66e0fc58b702f452a7c56e48e7e98e1be2e1eeb84f6a7f2783ed3cbd3eaaac60001b610728565b6104b37fc7a11da38d36eff2c77ecfdfa1348b93ecf547a4dc87ffeadc76a4abef89c4e460001b610728565b6104bc886107cc565b95506104ea7fb43310fdbaa048e03c247cac6beefc7c79d24a96a8a63ed42b016a474b059ad860001b610728565b6105167f8d78216f89fccbe07fb8095ae6eb725b3ca7abe96ad4cefbbf8c9f92cb6f870c60001b610728565b61051f8861086d565b945061054d7f5e9b7d5624edceac16c4f228fb4934c644106fd3acc242889a5341472bfeb5d560001b610728565b6105797fb347cc0c8e8f16d23cb400a41ba71bd14120ee2750f5da6002d90a7e0ecb30d860001b610728565b6105828861090e565b93506105b07f2f0e6bfc9c2277526e755dcdaec7021ee067d9803109bd3ca564890c5152cd7560001b610728565b6105dc7fa82049f8dc2a026123c877b9c22bcbbfb81bea3fc657f009a83fc20eb874413160001b610728565b6105e5886109af565b92506106137f4b38f5c455cb69511925dc3a1cb9c426b24ab53f5f3316f82391bdab8e2895b160001b610728565b61063f7f44e76d687308cf7796cf7f6cb9978ed1fcbb153ba19c8266743bea3cd076210160001b610728565b61064888610a50565b91506106767f9d58fb61fa378637c857f621a761b8a29bb589030c48daf3fbd97eb190e5c19060001b610728565b6106a27ffa0a6a56661f60181f12e9e2669f1f6c8768c23d17977b777a5eb13256d5334b60001b610728565b6106ab88610af1565b9050919395979092949650565b6030600a820601600a820491506030600a830601600a830492506030600a8406018060101b8260081b8401016642414c230000000160c81b7f08c379a000000000000000000000000000000000000000000000000000000000600052602060045260076024528060445260646000fd5b50565b60006107597f8ed153528fa9768c9004bdfc00da996ef63c4cc01ea5d2fcc35c8f857b069e2960001b610728565b6107857fbb77a52cdb763c3e2ba11b36c021ba678ee84d282ba1495c69d3766d145356b060001b610728565b6107b17f3369d605e13d4982db63364c8b9d453d914af668f01f959829a0fecd9c1f496960001b610728565b6107c560ea83610b9290919063ffffffff16565b9050919050565b60006107fa7f05ff2c1e6e96fae32a5d5b6a70e886f34a7807214ef13f5282aca78638d1cd0860001b610728565b6108267f654e2929ee9ec55ba9df30eb2f2d2e8e8a5cb0888cd6fc8e720b305d2ae950b960001b610728565b6108527f5f3e3a182afb4d8fcf872654ff33275af21371665ba84f564d341ebb71f167dd60001b610728565b61086660b583610ca190919063ffffffff16565b9050919050565b600061089b7fc5eea0fdac116fd8da2bfdf698b8f31cf859ab951237668b1978a9881ca0d02460001b610728565b6108c77f025185ce18753362297547b5510270331d68fd3f890ae93eefd760747690561360001b610728565b6108f37fe73c4d305d2091c66e2951d3ca6117a57dd41f9a9e11ed906b957383ebc123c660001b610728565b610907609f83610b9290919063ffffffff16565b9050919050565b600061093c7f9dfe86c69da653f2d99fcd8b0637b732f9f93093e78b9efaa9134a6833b6dd9460001b610728565b6109687f216f668420e58b0df420f3bf3f04249ea728b94bf9aaa82be5d34094e85b3a8d60001b610728565b6109947f996abce40b86e0fa6229189d0b92801a16cc3c0cac71d6448ed12ea3b9ea0d0b60001b610728565b6109a8606a83610ca190919063ffffffff16565b9050919050565b60006109dd7f43fa442e0207c485262f1383b1fe877e7edd97c2b5cd8d801d37138263383ec960001b610728565b610a097f1bd41df5c67eb34c3b1030704e26d13d1203424471ed41b88e0e0bcb83221a7d60001b610728565b610a357faa165b2ce79a7ee7a4c81bb7aff5e51504badbfad1662f7a7dc97b29aa0c03d960001b610728565b610a49605483610b9290919063ffffffff16565b9050919050565b6000610a7e7f4a0878a2d0cd01a58f9316c456c45eef1b328dd263d66b8ee3f4a2dc54ca78a360001b610728565b610aaa7f8228b952996223d32fa05964b0bf277bff72242c7bcdea2e3e55971816b2dae060001b610728565b610ad67f1d32c05cf509caa303776e5783d478735960841e1c2b3c6811fd0db9951f7cf660001b610728565b610aea601f83610ca190919063ffffffff16565b9050919050565b6000610b1f7f4f4f8df0341baef10cc011b5a6770a6cbf28c654d4fc7f849070ca859677657560001b610728565b610b4b7f6e3c113f7582bcd235509b0bd91544f2aaafe9be8755c932ddd1b3e40c5da8cd60001b610728565b610b777f7540df9278fc384f2e9ad745fc8bae2976b759ee26d8667b7b3469cf6ddd8d7560001b610728565b610b8b600083610dbc90919063ffffffff16565b9050919050565b6000610bc07fb8ef8fb3252cad09ac399366f93440094d233b6df07cc0170de56767b26d5ffd60001b610e57565b610bec7fb7e5cc01d96a7bf140fee720e7eff786382458ab048db1b6cfa37a48a14ef22e60001b610e57565b610c187fcf842935d2efaa91f2bdfaf37b17634319af00e7c49177f92f3f285ff13f386260001b610e57565b6000623fffff8385901c60001c169050610c547f7c753d1a39c40fa93a0ae38a7ad65e4d6da78569ecde61a300330eff7c6e06dd60001b610e57565b610c807f4d00d213b1ad6851865aa658494e7f47d6f2e2a239ee97ad772c6e12aca2501760001b610e57565b621fffff8113610c905780610c98565b623fffff1981175b91505092915050565b6000610ccf7fed7f70226a439f77e15b8697ea2fab255dd72aab1df8ebcaacaec174f0ac470e60001b610e57565b610cfb7fe1b3cf950de3f9c0a0a0a0403256fc839e91379d202c25e484e9e4708b38097760001b610e57565b610d277f9d824ca7f3f3b3214a00bc63d0dfc15b3612c3463c11b7778c7f9a0810d1b4c360001b610e57565b6000661fffffffffffff8385901c60001c169050610d677f65c235ba4eb564702527d802569096c628b144a6cbdc538f9750aa17b8fafe1f60001b610e57565b610d937fec190432853f6f819d3c0a490a38c25de5a141b5452fe99df311e0d54604078f60001b610e57565b660fffffffffffff8113610da75780610db3565b661fffffffffffff1981175b91505092915050565b6000610dea7f9936610b4dfa760190e0dc43cd201291602dec265b21f8f43dd559cf0795d28d60001b610e57565b610e167f32976e36f76c8ec61c93a470f36d48533be4f570d8f14e9d0d49b6420f19d7ea60001b610e57565b610e427fe5ffaf62771b134ae0b87c7be66fd0708c0b5ab3f652b312cb5bc277ccc07a1860001b610e57565b637fffffff8284901c60001c16905092915050565b5056fea264697066735822122095f41e788321ef60122d1b0c741cb808a0dde1b2b7663a7a2970696bdd4052a264736f6c63430007010033",
  "linkReferences": {},
  "deployedLinkReferences": {}
}