{
  "_format": "hh-sol-artifact-1",
  "contractName": "PoolPriceOracle",
  "sourceName": "contracts/balancer-core-v2/pools/oracle/PoolPriceOracle.sol",
  "abi": [
    {
      "inputs": [
        {
          "internalType": "bytes32",
          "name": "c__0x3897e264",
          "type": "bytes32"
        }
      ],
      "name": "c_0x3897e264",
      "outputs": [],
      "stateMutability": "pure",
      "type": "function"
    },
    {
      "inputs": [
        {
          "internalType": "uint256",
          "name": "index",
          "type": "uint256"
        }
      ],
      "name": "getSample",
      "outputs": [
        {
          "internalType": "int256",
          "name": "logPairPrice",
          "type": "int256"
        },
        {
          "internalType": "int256",
          "name": "accLogPairPrice",
          "type": "int256"
        },
        {
          "internalType": "int256",
          "name": "logBptPrice",
          "type": "int256"
        },
        {
          "internalType": "int256",
          "name": "accLogBptPrice",
          "type": "int256"
        },
        {
          "internalType": "int256",
          "name": "logInvariant",
          "type": "int256"
        },
        {
          "internalType": "int256",
          "name": "accLogInvariant",
          "type": "int256"
        },
        {
          "internalType": "uint256",
          "name": "timestamp",
          "type": "uint256"
        }
      ],
      "stateMutability": "view",
      "type": "function"
    },
    {
      "inputs": [],
      "name": "getTotalSamples",
      "outputs": [
        {
          "internalType": "uint256",
          "name": "",
          "type": "uint256"
        }
      ],
      "stateMutability": "pure",
      "type": "function"
    }
  ],
  "bytecode": "0x608060405234801561001057600080fd5b50610e90806100206000396000f3fe608060405234801561001057600080fd5b50600436106100415760003560e01c806360d1507c1461004657806398e896a5146100b2578063b48b5b40146100e0575b600080fd5b6100726004803603602081101561005c57600080fd5b81019080803590602001909291905050506100fe565b6040518088815260200187815260200186815260200185815260200184815260200183815260200182815260200197505050505050505060405180910390f35b6100de600480360360208110156100c857600080fd5b810190808035906020019092919050505061027d565b005b6100e8610280565b6040518082815260200191505060405180910390f35b60008060008060008060006101357f9325788325c932b18d60d6e48ffe83d779335ad6f7ac5bc5f55044ca480db07a60001b61027d565b6101617f0ce8eff8d3210d75cd17af29a378e3cda556de68e6b6e92dbf079f1023a74ac560001b61027d565b61018d7f96e872bfd83e51f3f3f16693db07fe9314d0d5be047488f483c315475cccc0f460001b61027d565b61019d610400891061013b61030e565b6101c97fa82f57431588a4da4f20417d1f39af482e3d33b80f2c47d5ff4de38cd1cfa04e60001b61027d565b6101f57f53f39fbdce1e00b5bb0e6f41622e64fab699f2273416a7ad6f339b822512bc8360001b61027d565b600061020089610321565b905061022e7fe5390250f8268f44a7ba83ace35d9711fe400ad31b703cbd7a05bd690c067e0960001b61027d565b61025a7fc22c49c8ea65d139c824ca889229c38b83f7b17f78492e690b91cf8ac43681fe60001b61027d565b610263816103c1565b975097509750975097509750975050919395979092949650565b50565b60006102ae7f06b788723d14958738110fc9b7fcff256f0e8d11237bddcc4f78e87ccef34d9a60001b61027d565b6102da7f8b4286e580643673bbf9749084595424af56198d5d5bd0da02dda751a9cdfd3160001b61027d565b6103067fcf7f9f0ef0aaa51ca41094b7cfae83990547b38257cc36c2656d728cad58f85660001b61027d565b610400905090565b8161031d5761031c816106b8565b5b5050565b600061034f7f01e5d27a94f2af0a40c9ee2e132c8b70dae3219dfac53dd9a281a0d4e2606ccb60001b61027d565b61037b7ff253f7f8ebd32ee36c1a05f1f63465feb5900aac24cef90312b5205421b14d1e60001b61027d565b6103a77fd9e5c4341cc9be6a8dd1597cedacca3586844465febed41551305cc1d04e715660001b61027d565b600080838152602001908152602001600020549050919050565b60008060008060008060006103f87fb88592a78180a424a95eb3e82a05fe4e4bc1df6ca901158ed73665e13ad5f2f060001b610728565b6104247f9af65661ab3e50a2638cb5c8d1a669cb9d658e06d6d92afa552e265cd922994e60001b610728565b6104507f589b3dcb505b725c505602f7af9cbbe8f2610d73772b1b0d29a9c8c3547a080c60001b610728565b6104598861072b565b96506104877f638564a2b0fe2137e28bd10d293a1911f141d589cab431280e2a42776dddd02b60001b610728565b6104b37f482a327cce1cc548ea600800d0405e508c6ee98d814e5b4e9fd11a60f2da450760001b610728565b6104bc886107cc565b95506104ea7f40926056ebfc7195a95efff6ddc9b54039e1d3643954d7505ab5d7c742f0529560001b610728565b6105167f25b587cd7b6296d51c0b0c5df66e862d558284f9b598d152324bcc350292ebac60001b610728565b61051f8861086d565b945061054d7fa1272a85bb32c070df72fbf7b8c9f3ee146d9a66520534493afbef48a8d21dc560001b610728565b6105797f01dbbaf236ca637e2f86d72d79789668b07fd77ccaa0545b160d40ad3634346360001b610728565b6105828861090e565b93506105b07fe5418221dd2a960add1fd3f41e9924da6aabfa72b544e70c6756ea366f5a67b760001b610728565b6105dc7f7845eb032bdf9f62e3d65968310f611b9442f606e690855e490ff15ff1e759f060001b610728565b6105e5886109af565b92506106137f5ae1f4234e7e5d88e73646bff32bcb217e7df5cac32853c6188c6c166050dde260001b610728565b61063f7fa38424e9e0ad594080594db0f035cfde8e603941b00642ed6d037e3047e3f42760001b610728565b61064888610a50565b91506106767f066e58da940cdb6dafb821004eb30720f1c02bff826f1b507ade821dd0c620cd60001b610728565b6106a27f0c2cfe9c15fff51e5ba1c093ab01d02450928f52570eda88684ebe28b3e4f62e60001b610728565b6106ab88610af1565b9050919395979092949650565b6030600a820601600a820491506030600a830601600a830492506030600a8406018060101b8260081b8401016642414c230000000160c81b7f08c379a000000000000000000000000000000000000000000000000000000000600052602060045260076024528060445260646000fd5b50565b60006107597f6c79448da895cc42103b78637aad4dc65cc7b5d3993c4353cd6dcdabc5159a7a60001b610728565b6107857f3ebbb19c20743093c5576e1443642b18c94ffbd28ea2037366f76de6c324ae3d60001b610728565b6107b17f3ba536322b22d790fec718b68a82a58101a0486077a6f9e874fadec9994d671f60001b610728565b6107c560ea83610b9290919063ffffffff16565b9050919050565b60006107fa7ff1a9a4cd2818e8b729de38ba2014ab37f4b31c16db025136f89036cd37cbe09760001b610728565b6108267f0876810be5c8f1bc57ef245fa27fbd3e5c21655c24fd85e1d2996eada832bba360001b610728565b6108527f6b3bf0dd108e9083735315eb177705be444b48e7b3875eded6fc90631e314d3860001b610728565b61086660b583610ca190919063ffffffff16565b9050919050565b600061089b7f87da7a707b3aa56e0d1f4fed2e9ff292049009a7aa74b10e96568513cc19c50960001b610728565b6108c77ffd80678893b082c26166ee2bed36a8b074d45027b17a4f4085aca9d13939fd6160001b610728565b6108f37fa74e5adc8bfe5da3779b36b3d46f5b1945d3595191485804e9ff3c1fe911d65a60001b610728565b610907609f83610b9290919063ffffffff16565b9050919050565b600061093c7fa19e211270317e3563ee2bc1a95b318e46cf727034f114160f57f7dea60ad13960001b610728565b6109687f30a18b5d151d8a750731f243f2d558b2cf5171382fc1da2207fdc32cee3b242f60001b610728565b6109947f93747112352dd0b3886c9069f6f5652f19aa36dc3b1dfd146b0490202ad2302460001b610728565b6109a8606a83610ca190919063ffffffff16565b9050919050565b60006109dd7fe55b796d9a39777faec17e89e4c4841370da185cdae0ca1232bac92589cf8e1360001b610728565b610a097fdb6319a7d09c333b6dde48e18902f7d0065e80022e58e47f8a3f72030f98c6f260001b610728565b610a357fcb1a729ad8b8aec19d2841072227460b5d283524bed9f81e2f900f2d92fd4ccf60001b610728565b610a49605483610b9290919063ffffffff16565b9050919050565b6000610a7e7fa0aba47f866b70cad1fdca3ed349e497c8d791db8cdff510308cce7c610cc62860001b610728565b610aaa7f97fd457456be7f880cc3d5cc554873b60f41a1a3b994d0c9da39490e84fd165060001b610728565b610ad67faf9d1cb38a55162259e000f2c1dfd1dfa5752f3286a9d2c17155b39bb258d9c460001b610728565b610aea601f83610ca190919063ffffffff16565b9050919050565b6000610b1f7f74d5066293be4370fd524573fc9aeb090515658ba3a40e6d0128237f7b514d6060001b610728565b610b4b7fcf1fe953b1af420c60f48d61f261c0e91d0a93f44b0e1fca350e0e2540c7efba60001b610728565b610b777fcde80e15d7e05f199afca472e2c64190b4295034e3befb1b7e4ef03d28c2b2ce60001b610728565b610b8b600083610dbc90919063ffffffff16565b9050919050565b6000610bc07fe8671cc12867f8a5daa9d15e15214bc522b3aa6a3f2d4eb2055230de1257e05160001b610e57565b610bec7f63b1c330c5e335300ca40dbfff8f46595abe625a8c41d59564bbedba8d4eaf9960001b610e57565b610c187f61d767718d36ac9e36c603576f0bd9893947f12761d3492e1f26dfa3fbf17dd760001b610e57565b6000623fffff8385901c60001c169050610c547fc91efb71a3ac8602aea14bc731ba19df6492bb54e37a614823104c091c5c21dd60001b610e57565b610c807f09f5633c02450055349e727e2ddda1031dfe7240f31cc37fc2812a181c9ac2d160001b610e57565b621fffff8113610c905780610c98565b623fffff1981175b91505092915050565b6000610ccf7fce95c3ccc9b00b977cded9398861dd2fe00ea7babe74bae6aa4275c6c28e7a4d60001b610e57565b610cfb7f51ce7125abc2084449a8921b019dad353c8d54e3054ee7cc2e9d9ca6ad94a95a60001b610e57565b610d277fb4d2f20d1a742eb340ed208dec486a41396e86aefa0d35c5e5f7cd3995e9a49960001b610e57565b6000661fffffffffffff8385901c60001c169050610d677fe3c1acceb3ab8b7d0c79f573280ae58fdfd9e4e1896558fffd0ed60e20033da960001b610e57565b610d937fdc9142df5ccebf6e5ad254e67e708181e33b031cef13c574907a3b9c3909b00460001b610e57565b660fffffffffffff8113610da75780610db3565b661fffffffffffff1981175b91505092915050565b6000610dea7ff268a890356f088a505cb75fe330a351dba197ff7f5861d670adadcc6c1205b360001b610e57565b610e167f7b80e43ddd2640ab605840dba772b4310f1c14fb3f1bcbc5a96c2b5cdf92ccfc60001b610e57565b610e427f2be6c2ff41bf5a27da61ec82fea2241b5d403c96c7351a58758ebcb1ec97347160001b610e57565b637fffffff8284901c60001c16905092915050565b5056fea2646970667358221220c688838c5d0acb3ab7584500defd3b7236ec80694fc9b1bd0e893d65a70c77ee64736f6c63430007010033",
  "linkReferences": {},
  "deployedLinkReferences": {}
}