{
  "_format": "hh-sol-artifact-1",
  "contractName": "ERC20",
  "sourceName": "contracts/balancer-core-v2/lib/openzeppelin/ERC20.sol",
  "abi": [
    {
      "inputs": [
        {
          "internalType": "string",
          "name": "name_",
          "type": "string"
        },
        {
          "internalType": "string",
          "name": "symbol_",
          "type": "string"
        }
      ],
      "stateMutability": "nonpayable",
      "type": "constructor"
    },
    {
      "anonymous": false,
      "inputs": [
        {
          "indexed": true,
          "internalType": "address",
          "name": "owner",
          "type": "address"
        },
        {
          "indexed": true,
          "internalType": "address",
          "name": "spender",
          "type": "address"
        },
        {
          "indexed": false,
          "internalType": "uint256",
          "name": "value",
          "type": "uint256"
        }
      ],
      "name": "Approval",
      "type": "event"
    },
    {
      "anonymous": false,
      "inputs": [
        {
          "indexed": true,
          "internalType": "address",
          "name": "from",
          "type": "address"
        },
        {
          "indexed": true,
          "internalType": "address",
          "name": "to",
          "type": "address"
        },
        {
          "indexed": false,
          "internalType": "uint256",
          "name": "value",
          "type": "uint256"
        }
      ],
      "name": "Transfer",
      "type": "event"
    },
    {
      "inputs": [
        {
          "internalType": "address",
          "name": "owner",
          "type": "address"
        },
        {
          "internalType": "address",
          "name": "spender",
          "type": "address"
        }
      ],
      "name": "allowance",
      "outputs": [
        {
          "internalType": "uint256",
          "name": "",
          "type": "uint256"
        }
      ],
      "stateMutability": "view",
      "type": "function"
    },
    {
      "inputs": [
        {
          "internalType": "address",
          "name": "spender",
          "type": "address"
        },
        {
          "internalType": "uint256",
          "name": "amount",
          "type": "uint256"
        }
      ],
      "name": "approve",
      "outputs": [
        {
          "internalType": "bool",
          "name": "",
          "type": "bool"
        }
      ],
      "stateMutability": "nonpayable",
      "type": "function"
    },
    {
      "inputs": [
        {
          "internalType": "address",
          "name": "account",
          "type": "address"
        }
      ],
      "name": "balanceOf",
      "outputs": [
        {
          "internalType": "uint256",
          "name": "",
          "type": "uint256"
        }
      ],
      "stateMutability": "view",
      "type": "function"
    },
    {
      "inputs": [
        {
          "internalType": "bytes32",
          "name": "c__0x08341a7f",
          "type": "bytes32"
        }
      ],
      "name": "c_0x08341a7f",
      "outputs": [],
      "stateMutability": "pure",
      "type": "function"
    },
    {
      "inputs": [],
      "name": "decimals",
      "outputs": [
        {
          "internalType": "uint8",
          "name": "",
          "type": "uint8"
        }
      ],
      "stateMutability": "view",
      "type": "function"
    },
    {
      "inputs": [
        {
          "internalType": "address",
          "name": "spender",
          "type": "address"
        },
        {
          "internalType": "uint256",
          "name": "subtractedValue",
          "type": "uint256"
        }
      ],
      "name": "decreaseAllowance",
      "outputs": [
        {
          "internalType": "bool",
          "name": "",
          "type": "bool"
        }
      ],
      "stateMutability": "nonpayable",
      "type": "function"
    },
    {
      "inputs": [
        {
          "internalType": "address",
          "name": "spender",
          "type": "address"
        },
        {
          "internalType": "uint256",
          "name": "addedValue",
          "type": "uint256"
        }
      ],
      "name": "increaseAllowance",
      "outputs": [
        {
          "internalType": "bool",
          "name": "",
          "type": "bool"
        }
      ],
      "stateMutability": "nonpayable",
      "type": "function"
    },
    {
      "inputs": [],
      "name": "name",
      "outputs": [
        {
          "internalType": "string",
          "name": "",
          "type": "string"
        }
      ],
      "stateMutability": "view",
      "type": "function"
    },
    {
      "inputs": [],
      "name": "symbol",
      "outputs": [
        {
          "internalType": "string",
          "name": "",
          "type": "string"
        }
      ],
      "stateMutability": "view",
      "type": "function"
    },
    {
      "inputs": [],
      "name": "totalSupply",
      "outputs": [
        {
          "internalType": "uint256",
          "name": "",
          "type": "uint256"
        }
      ],
      "stateMutability": "view",
      "type": "function"
    },
    {
      "inputs": [
        {
          "internalType": "address",
          "name": "recipient",
          "type": "address"
        },
        {
          "internalType": "uint256",
          "name": "amount",
          "type": "uint256"
        }
      ],
      "name": "transfer",
      "outputs": [
        {
          "internalType": "bool",
          "name": "",
          "type": "bool"
        }
      ],
      "stateMutability": "nonpayable",
      "type": "function"
    },
    {
      "inputs": [
        {
          "internalType": "address",
          "name": "sender",
          "type": "address"
        },
        {
          "internalType": "address",
          "name": "recipient",
          "type": "address"
        },
        {
          "internalType": "uint256",
          "name": "amount",
          "type": "uint256"
        }
      ],
      "name": "transferFrom",
      "outputs": [
        {
          "internalType": "bool",
          "name": "",
          "type": "bool"
        }
      ],
      "stateMutability": "nonpayable",
      "type": "function"
    }
  ],
  "bytecode": "0x60806040523480156200001157600080fd5b506040516200205d3803806200205d833981810160405260408110156200003757600080fd5b81019080805160405193929190846401000000008211156200005857600080fd5b838201915060208201858111156200006f57600080fd5b82518660018202830111640100000000821117156200008d57600080fd5b8083526020830192505050908051906020019080838360005b83811015620000c3578082015181840152602081019050620000a6565b50505050905090810190601f168015620000f15780820380516001836020036101000a031916815260200191505b50604052602001805160405193929190846401000000008211156200011557600080fd5b838201915060208201858111156200012c57600080fd5b82518660018202830111640100000000821117156200014a57600080fd5b8083526020830192505050908051906020019080838360005b838110156200018057808201518184015260208101905062000163565b50505050905090810190601f168015620001ae5780820380516001836020036101000a031916815260200191505b50604052505050620001e97fada843e1cd7e48919e1261cf908b4d8aa40905d630f7e7f58ceb7536d72e587160001b6200037760201b60201c565b6200021d7f80c3a4cabf454a3da36a53a2974855e88411bb30b9d9293176d02a307f8b0ba260001b6200037760201b60201c565b620002517f9a71cbb1bba17eba51cdd7f5079087c5d60b14d9c17713400eda48341cf8a63060001b6200037760201b60201c565b8160039080519060200190620002699291906200037a565b506200029e7f34648e47d0d91373889223a60c5603b8488a710dccdbc9b547e64a92781d140460001b6200037760201b60201c565b620002d27f669afb79bfad0f1cc6b3052156abb95496851eadded111e800f1dbce76f30f8760001b6200037760201b60201c565b8060049080519060200190620002ea9291906200037a565b506200031f7f3c4f7f7d25eaad316a40c2ed400f1235c75b5b475e476021efab35d10c3cc8eb60001b6200037760201b60201c565b620003537face7013f0ea4eb6997f35d2b4871972c4ea124bd40abf6d0e16e184ed2b7b50560001b6200037760201b60201c565b6012600560006101000a81548160ff021916908360ff160217905550505062000420565b50565b828054600181600116156101000203166002900490600052602060002090601f016020900481019282601f10620003bd57805160ff1916838001178555620003ee565b82800160010185558215620003ee579182015b82811115620003ed578251825591602001919060010190620003d0565b5b509050620003fd919062000401565b5090565b5b808211156200041c57600081600090555060010162000402565b5090565b611c2d80620004306000396000f3fe608060405234801561001057600080fd5b50600436106100d45760003560e01c806370a0823111610081578063a9059cbb1161005b578063a9059cbb14610426578063da550c721461048a578063dd62ed3e146104b8576100d4565b806370a08231146102e757806395d89b411461033f578063a457c2d7146103c2576100d4565b806323b872dd116100b257806323b872dd146101de578063313ce567146102625780633950935114610283576100d4565b806306fdde03146100d9578063095ea7b31461015c57806318160ddd146101c0575b600080fd5b6100e1610530565b6040518080602001828103825283818151815260200191508051906020019080838360005b83811015610121578082015181840152602081019050610106565b50505050905090810190601f16801561014e5780820380516001836020036101000a031916815260200191505b509250505060405180910390f35b6101a86004803603604081101561017257600080fd5b81019080803573ffffffffffffffffffffffffffffffffffffffff16906020019092919080359060200190929190505050610656565b60405180821515815260200191505060405180910390f35b6101c8610749565b6040518082815260200191505060405180910390f35b61024a600480360360608110156101f457600080fd5b81019080803573ffffffffffffffffffffffffffffffffffffffff169060200190929190803573ffffffffffffffffffffffffffffffffffffffff169060200190929190803590602001909291905050506107d7565b60405180821515815260200191505060405180910390f35b61026a6109c0565b604051808260ff16815260200191505060405180910390f35b6102cf6004803603604081101561029957600080fd5b81019080803573ffffffffffffffffffffffffffffffffffffffff16906020019092919080359060200190929190505050610a5b565b60405180821515815260200191505060405180910390f35b610329600480360360208110156102fd57600080fd5b81019080803573ffffffffffffffffffffffffffffffffffffffff169060200190929190505050610bdc565b6040518082815260200191505060405180910390f35b610347610ca8565b6040518080602001828103825283818151815260200191508051906020019080838360005b8381101561038757808201518184015260208101905061036c565b50505050905090810190601f1680156103b45780820380516001836020036101000a031916815260200191505b509250505060405180910390f35b61040e600480360360408110156103d857600080fd5b81019080803573ffffffffffffffffffffffffffffffffffffffff16906020019092919080359060200190929190505050610dce565b60405180821515815260200191505060405180910390f35b6104726004803603604081101561043c57600080fd5b81019080803573ffffffffffffffffffffffffffffffffffffffff16906020019092919080359060200190929190505050610f53565b60405180821515815260200191505060405180910390f35b6104b6600480360360208110156104a057600080fd5b8101908080359060200190929190505050611046565b005b61051a600480360360408110156104ce57600080fd5b81019080803573ffffffffffffffffffffffffffffffffffffffff169060200190929190803573ffffffffffffffffffffffffffffffffffffffff169060200190929190505050611049565b6040518082815260200191505060405180910390f35b606061055e7feaecb85c6504111b9ed0e4abff7ca021c64d3c2cde298322cb699c47c7ec91cb60001b611046565b61058a7f1c60a4f6f314457774d339c90839bf4afa2d83e6af33a09f4c1fe1e72507af9860001b611046565b6105b67f9657464bb5597dbcc9ae29d5a003b4a85ab5dfd23fa3a8041d7e21ada70da9e860001b611046565b60038054600181600116156101000203166002900480601f01602080910402602001604051908101604052809291908181526020018280546001816001161561010002031660029004801561064c5780601f106106215761010080835404028352916020019161064c565b820191906000526020600020905b81548152906001019060200180831161062f57829003601f168201915b5050505050905090565b60006106847fdad737d3d0ead0e54645a2e5830b95ae178ec37cfb4365a33b1ef3308c11e3b360001b611046565b6106b07fe5eb59b1e14aff501c0b285775ce525a2b399cb8af28585db6bff497efb9d19160001b611046565b6106dc7fc66811d994ea37a8655425a144ec39f743b57b3ba13a12eccbda94845b2771a360001b611046565b6106e7338484611154565b6107137fc7c46dd53dec1bdd224ad15c76628e41bbc125bcb6db49e528cfcaafa39a920a60001b611046565b61073f7fee1971229fa38d03f2cbea90308d347f1b1a577e27f0283be685c17a2b96e26a60001b611046565b6001905092915050565b60006107777f3794cea1bb5204862bd74607bfa27e5341d4d81c7460a6de98ac9ec4f8d7504a60001b611046565b6107a37ff1fd07ccc1efa8281d55886366c58fd4d0707bae638732573f2e03122ec6e85460001b611046565b6107cf7f83e3fa46f35c08e03e0dd9daca24132e43b4f738cc398a19279ba807e06240a160001b611046565b600254905090565b60006108057f8a3fb5c3ef4fcc951badb0337a25737a7bddda040e8e03cd35f098367ad0215d60001b611046565b6108317f093353fe72c05f9880ca441a5e47a7505aa5a35b4ecf534279625f1d4f5d058760001b611046565b61085d7f5a7e5e1de372e91bf9a58299588f77da1604c0dc88c2b0026e0fc68ecba41a0f60001b611046565b610868848484611443565b6108947f641001dd6dd84bb7f4020ab35d051615f884a02f12767266dc8dfd0600ab7a5460001b611046565b6108c07f7e2a467dce8a8515235f40065c97aef2bcfc409f762fc9d76145cbdb99b7e9b060001b611046565b61095d84336109588561019e600160008b73ffffffffffffffffffffffffffffffffffffffff1673ffffffffffffffffffffffffffffffffffffffff16815260200190815260200160002060003373ffffffffffffffffffffffffffffffffffffffff1673ffffffffffffffffffffffffffffffffffffffff168152602001908152602001600020546118969092919063ffffffff16565b611154565b6109897f5fedb6772a8bdb07cd36a4d44c55ff6587dd2142b3b074f9a4e3b7a2fe133c8960001b611046565b6109b57ff7826543459923eb9e3cd539837cab61a488ac2a98870fd687bf6934eb8ca26760001b611046565b600190509392505050565b60006109ee7fa73499ce2727fd34b591e6370e6ac091fc8d71309ec0bad353180b1c550cb2f460001b611046565b610a1a7f1c9a4a41f5b5e381fe74b2fdbe271b7965d9239b736ef2ff4bcea5bcb97975ac60001b611046565b610a467f4bd57e4f12ce86676fced543e6c55a561583e4b2a1b7182abc541288a39f8f9060001b611046565b600560009054906101000a900460ff16905090565b6000610a897f50a12b55e81d1f4a5a9f8168fa8fb0b7b01a5679a8717e470e7b908553789d4460001b611046565b610ab57f9c1ed136c9aa4e13587efb5f83908559341dcf763b6b4fcd5778b5bfb04ac4d160001b611046565b610ae17f698ca39072b6d39dc7c802e8163551e1f32d566e98bfbea1208dcd9512f0331260001b611046565b610b7a3384610b7585600160003373ffffffffffffffffffffffffffffffffffffffff1673ffffffffffffffffffffffffffffffffffffffff16815260200190815260200160002060008973ffffffffffffffffffffffffffffffffffffffff1673ffffffffffffffffffffffffffffffffffffffff168152602001908152602001600020546119eb90919063ffffffff16565b611154565b610ba67f7518614bcf6fd204f0bb059b0a842130b07b78201c6640fa0c856c5dfe7847af60001b611046565b610bd27f6faa61f5dc2a0c977669f56e5081ab750169bd67a0803854c3dee13e1e922e3560001b611046565b6001905092915050565b6000610c0a7fa6bf1046af51572141637adf5f299370ece8cc0754efc64ffabec6d09952194560001b611046565b610c367f4c47dad1dc190e6cf1490b04bf57221a023e2221f676d5b9b6a36e9c8aacdc7260001b611046565b610c627f841713c8d74eb75d22803885747386e43a697d63aa7b33782c69c3c0042179d260001b611046565b6000808373ffffffffffffffffffffffffffffffffffffffff1673ffffffffffffffffffffffffffffffffffffffff168152602001908152602001600020549050919050565b6060610cd67f507d4db15868ba71c3dc5919f6590b3360d3b915d0480cd3da66857a1b877c3860001b611046565b610d027fc22e349e4e6fdc158e2e932623d3eaec2131f34028f0751c028a18d5b7add50860001b611046565b610d2e7f0b73d0f77210e8297b4b8cdaa26ba7e045f496c4635ba5b68b0b5231e1c6770d60001b611046565b60048054600181600116156101000203166002900480601f016020809104026020016040519081016040528092919081815260200182805460018160011615610100020316600290048015610dc45780601f10610d9957610100808354040283529160200191610dc4565b820191906000526020600020905b815481529060010190602001808311610da757829003601f168201915b5050505050905090565b6000610dfc7f680d409063c06f780aad2b2bd514f68edde7a2b35e08b733fb9b9db2c8d1bd9660001b611046565b610e287f627d56a04d59639e73503eedceb8fdb9b86ec10661887e4a0d26ed395178b05d60001b611046565b610e547fc59ec6100819b0f0ce68d1716a9d2dee6d6423f85c86d69ade9cf959a9a7330a60001b611046565b610ef13384610eec8561019f600160003373ffffffffffffffffffffffffffffffffffffffff1673ffffffffffffffffffffffffffffffffffffffff16815260200190815260200160002060008a73ffffffffffffffffffffffffffffffffffffffff1673ffffffffffffffffffffffffffffffffffffffff168152602001908152602001600020546118969092919063ffffffff16565b611154565b610f1d7f083669f6b946bfa732eda684194ced960fa7501953eb922b84ef32d4ab4f29bd60001b611046565b610f497fea793073c3aa2b97a143914e6362ba7ebb3f679f8829a732946b76d369d44d3660001b611046565b6001905092915050565b6000610f817f464d69ccec37945c3c7529c7700a5c66d5c3139774171e9e0240dadd92aa8efb60001b611046565b610fad7ff88d3ed59938149f9a9ef74864a38195e699c863d7923391afb7689b8b4a958460001b611046565b610fd97f5a52e9c4fc6255f0ca5ba517b5527164594c6a32630535e7ba6e565a9c4d287260001b611046565b610fe4338484611443565b6110107f9ed755def4c183f43b9e498106041e361650ed9188ad61c1d10d44e047e52e4760001b611046565b61103c7fe9c4bc86aa96f09611e7bd46386fe7a537b7fa1e6bd3e7034c0b275206f7ccbb60001b611046565b6001905092915050565b50565b60006110777ffec076d12afa97e1dcf9d8f943c7c8ac0f4ee65b02ed14dcb37a4157dbf04acb60001b611046565b6110a37f072a41072e81b8a4044655d4dab5fa87058b4d814920110531e4ffb7545baa0860001b611046565b6110cf7fa2d92c09f57392c61f82c14526d79a50e38ab7e7f5011bf0c72c5fa13b2b0b3e60001b611046565b600160008473ffffffffffffffffffffffffffffffffffffffff1673ffffffffffffffffffffffffffffffffffffffff16815260200190815260200160002060008373ffffffffffffffffffffffffffffffffffffffff1673ffffffffffffffffffffffffffffffffffffffff16815260200190815260200160002054905092915050565b6111807f5f42526037bd45207cb19dcfb5699f46c8695b90b1d109fe90fb165327efd7c760001b611046565b6111ac7f7d7bf03dc278de7ee594400df37bdbbfa4ba951e4c9bc502c87bed1dc81a3ae560001b611046565b6111d87fdcc55b26cc45d8e2164b29fd311e8ef9b90c29a1295fac099bcf8eb3a816947060001b611046565b611214600073ffffffffffffffffffffffffffffffffffffffff168473ffffffffffffffffffffffffffffffffffffffff16141561019c611b40565b6112407fa2926e1fb38a9398286949f5dfbc70c331152e76922aae4c251762f1b2120f3660001b611046565b61126c7f36d15755862d3d181b13d912d7fa6e8166647e36b10a2b5470f3ee1e48ab912660001b611046565b6112a8600073ffffffffffffffffffffffffffffffffffffffff168373ffffffffffffffffffffffffffffffffffffffff16141561019d611b40565b6112d47f680e2c5ab0ea6312dc8a65d5e8a1287817fb3353e31df932e8625b7afadd7a2360001b611046565b6113007f3a3359c7fda9035818153bcfb93d6064388d0738a383a88fb4bb62703490e95860001b611046565b80600160008573ffffffffffffffffffffffffffffffffffffffff1673ffffffffffffffffffffffffffffffffffffffff16815260200190815260200160002060008473ffffffffffffffffffffffffffffffffffffffff1673ffffffffffffffffffffffffffffffffffffffff168152602001908152602001600020819055506113ad7f525802d8d2a48c7d2406340fa958a112eededd368c024b3327ff4e3e496ceadf60001b611046565b6113d97f1cdc13e2da3f24d8359b9ee6f14ef17d6282df8c12969d18649aca64f4f37e8f60001b611046565b8173ffffffffffffffffffffffffffffffffffffffff168373ffffffffffffffffffffffffffffffffffffffff167f8c5be1e5ebec7d5bd14f71427d1e84f3dd0314c0f7b2291e5b200ac8c7c3b925836040518082815260200191505060405180910390a3505050565b61146f7f1cfe73e73df25c258f626f3841e29d4e4d18ddb195fab23d7be0650cb58fee7460001b611046565b61149b7feb8405980c677ef83ad64d77cebde744bfe5ecd1e7af144a82820e54038961cd60001b611046565b6114c77f191d13e5ed2b0a83ce11a6219342d9687f481ede0edc82e92c7271e3f078cd1d60001b611046565b611503600073ffffffffffffffffffffffffffffffffffffffff168473ffffffffffffffffffffffffffffffffffffffff161415610198611b40565b61152f7f0211a4d46b7d9aa195795776c3e63705ed5a7dc6e967eafb97543a9769e69ecc60001b611046565b61155b7f3454b87245308a9f6dd233ef201cd9e68b346a329bb2099c9448fd916c37935460001b611046565b611597600073ffffffffffffffffffffffffffffffffffffffff168373ffffffffffffffffffffffffffffffffffffffff161415610199611b40565b6115c37fe677144d50c33503974fc5b5eef48a9dae8d221eadcf369e3f9fc7abe20f98e760001b611046565b6115ef7f817fbf08cd1fde7131e3f19f358a42380a9bdbf32e9b34b0fe6572809943d0e260001b611046565b6115fa838383611b53565b6116267f9644c5eeac18498398a631f47a5c0eabd1adcef37996451327fd55f3ae707b1860001b611046565b6116527f70365d1a29aec92b3b3c3e8c748b2d07c7ba38b35626169db6fc99394869010760001b611046565b6116a7816101a06000808773ffffffffffffffffffffffffffffffffffffffff1673ffffffffffffffffffffffffffffffffffffffff168152602001908152602001600020546118969092919063ffffffff16565b6000808573ffffffffffffffffffffffffffffffffffffffff1673ffffffffffffffffffffffffffffffffffffffff168152602001908152602001600020819055506117157fdf62ba8ee92da429a455a9f0ff8d491dab70c4bb3ce4926302aa350f6e1d972460001b611046565b6117417fcab36c8e17e74b2c41ba768fdb182dbf8e57567a583fb0f1961873f93e3d1e3f60001b611046565b611792816000808573ffffffffffffffffffffffffffffffffffffffff1673ffffffffffffffffffffffffffffffffffffffff168152602001908152602001600020546119eb90919063ffffffff16565b6000808473ffffffffffffffffffffffffffffffffffffffff1673ffffffffffffffffffffffffffffffffffffffff168152602001908152602001600020819055506118007ffa8d4a30b479defe5a0a82d5bbdb8be96cb66819d1be8efc73b2e5d5bc58ed6260001b611046565b61182c7fa6ac886911e49e20f05b499cfcf78ac8284b571f2a23f8534731bce52c65904d60001b611046565b8173ffffffffffffffffffffffffffffffffffffffff168373ffffffffffffffffffffffffffffffffffffffff167fddf252ad1be2c89b69c2b068fc378daa952ba7f163c4a11628f55a4df523b3ef836040518082815260200191505060405180910390a3505050565b60006118c47ff44b8e4d9e809b97e7b4fbc70d9821e2f6407f2765de437b42d6eb04e36ecb9e60001b611b84565b6118f07f46bda05bac02f008a56952891b74b47f06b71af485f59d05f4a3a454002cdfe960001b611b84565b61191c7f7f998f98a8f3b5e31eee154f067bdf45b25d26c6a23a8c40232a43bc13219e2b60001b611b84565b6119298484111583611b40565b6119557f079a7129b709ed72eb7b85fd7510fbd4fd1e9f16dc23b55a95acc2b6f06d3ea360001b611b84565b6119817f17cb34fcd8755faad3d1a57f751032d9876b6553eab619004338e9eecfb8d70060001b611b84565b600083850390506119b47fcbc0fff126298c96fb0d6c87ae3539cefae152075038bfac2edf3cf96bccaf7360001b611b84565b6119e07fd0630d28a137393a21cb340a51c9eed2401442190ae90683c882b5df617e12f060001b611b84565b809150509392505050565b6000611a197fae3f54715b7be3e49b77c7ffd3b2aeb50e35afe9f803a15c1b9e36a985ae3b3060001b611b84565b611a457f814462a9085841b66598fdeed71d01c51e613cf96e63406a429e543054d6a66e60001b611b84565b611a717f694a217f0369f887f9787082073ec7f2293fe561f2b150731356984962722d6260001b611b84565b60008284019050611aa47f58bdfc96e6521f6e3b339654b2266453056e60d745d112f54f2cb4c6c3ae280560001b611b84565b611ad07f52ca8a1497a1011f8befa4a076c6efddaa2bda4508723079831eba73409b5fc560001b611b84565b611ade848210156000611b40565b611b0a7fa06e5c2044fe9393f132ac6cc213469a7f09ee6ffb155de22c0dc331ecfd0c7360001b611b84565b611b367f409e1fc20daebc8d567c2de8c5742d4df239eec833de236225693a2a12568a8660001b611b84565b8091505092915050565b81611b4f57611b4e81611b87565b5b5050565b611b7f7fda3cd20fcbbe63c25072348bccf21561da1781a9e8eb6178cc8703a45522b8ee60001b611046565b505050565b50565b6030600a820601600a820491506030600a830601600a830492506030600a8406018060101b8260081b8401016642414c230000000160c81b7f08c379a000000000000000000000000000000000000000000000000000000000600052602060045260076024528060445260646000fdfea26469706673582212203d51df1235a4c1193911993de150faadf883b15569ac827b2ae86f9e33ac262664736f6c63430007010033",
  "linkReferences": {},
  "deployedLinkReferences": {}
}