{
  "_format": "hh-sol-artifact-1",
  "contractName": "ERC20",
  "sourceName": "contracts/balancer-core-v2/lib/openzeppelin/ERC20.sol",
  "abi": [
    {
      "inputs": [
        {
          "internalType": "string",
          "name": "name_",
          "type": "string"
        },
        {
          "internalType": "string",
          "name": "symbol_",
          "type": "string"
        }
      ],
      "stateMutability": "nonpayable",
      "type": "constructor"
    },
    {
      "anonymous": false,
      "inputs": [
        {
          "indexed": true,
          "internalType": "address",
          "name": "owner",
          "type": "address"
        },
        {
          "indexed": true,
          "internalType": "address",
          "name": "spender",
          "type": "address"
        },
        {
          "indexed": false,
          "internalType": "uint256",
          "name": "value",
          "type": "uint256"
        }
      ],
      "name": "Approval",
      "type": "event"
    },
    {
      "anonymous": false,
      "inputs": [
        {
          "indexed": true,
          "internalType": "address",
          "name": "from",
          "type": "address"
        },
        {
          "indexed": true,
          "internalType": "address",
          "name": "to",
          "type": "address"
        },
        {
          "indexed": false,
          "internalType": "uint256",
          "name": "value",
          "type": "uint256"
        }
      ],
      "name": "Transfer",
      "type": "event"
    },
    {
      "inputs": [
        {
          "internalType": "address",
          "name": "owner",
          "type": "address"
        },
        {
          "internalType": "address",
          "name": "spender",
          "type": "address"
        }
      ],
      "name": "allowance",
      "outputs": [
        {
          "internalType": "uint256",
          "name": "",
          "type": "uint256"
        }
      ],
      "stateMutability": "view",
      "type": "function"
    },
    {
      "inputs": [
        {
          "internalType": "address",
          "name": "spender",
          "type": "address"
        },
        {
          "internalType": "uint256",
          "name": "amount",
          "type": "uint256"
        }
      ],
      "name": "approve",
      "outputs": [
        {
          "internalType": "bool",
          "name": "",
          "type": "bool"
        }
      ],
      "stateMutability": "nonpayable",
      "type": "function"
    },
    {
      "inputs": [
        {
          "internalType": "address",
          "name": "account",
          "type": "address"
        }
      ],
      "name": "balanceOf",
      "outputs": [
        {
          "internalType": "uint256",
          "name": "",
          "type": "uint256"
        }
      ],
      "stateMutability": "view",
      "type": "function"
    },
    {
      "inputs": [
        {
          "internalType": "bytes32",
          "name": "c__0x7d6d6d0f",
          "type": "bytes32"
        }
      ],
      "name": "c_0x7d6d6d0f",
      "outputs": [],
      "stateMutability": "pure",
      "type": "function"
    },
    {
      "inputs": [],
      "name": "decimals",
      "outputs": [
        {
          "internalType": "uint8",
          "name": "",
          "type": "uint8"
        }
      ],
      "stateMutability": "view",
      "type": "function"
    },
    {
      "inputs": [
        {
          "internalType": "address",
          "name": "spender",
          "type": "address"
        },
        {
          "internalType": "uint256",
          "name": "subtractedValue",
          "type": "uint256"
        }
      ],
      "name": "decreaseAllowance",
      "outputs": [
        {
          "internalType": "bool",
          "name": "",
          "type": "bool"
        }
      ],
      "stateMutability": "nonpayable",
      "type": "function"
    },
    {
      "inputs": [
        {
          "internalType": "address",
          "name": "spender",
          "type": "address"
        },
        {
          "internalType": "uint256",
          "name": "addedValue",
          "type": "uint256"
        }
      ],
      "name": "increaseAllowance",
      "outputs": [
        {
          "internalType": "bool",
          "name": "",
          "type": "bool"
        }
      ],
      "stateMutability": "nonpayable",
      "type": "function"
    },
    {
      "inputs": [],
      "name": "name",
      "outputs": [
        {
          "internalType": "string",
          "name": "",
          "type": "string"
        }
      ],
      "stateMutability": "view",
      "type": "function"
    },
    {
      "inputs": [],
      "name": "symbol",
      "outputs": [
        {
          "internalType": "string",
          "name": "",
          "type": "string"
        }
      ],
      "stateMutability": "view",
      "type": "function"
    },
    {
      "inputs": [],
      "name": "totalSupply",
      "outputs": [
        {
          "internalType": "uint256",
          "name": "",
          "type": "uint256"
        }
      ],
      "stateMutability": "view",
      "type": "function"
    },
    {
      "inputs": [
        {
          "internalType": "address",
          "name": "recipient",
          "type": "address"
        },
        {
          "internalType": "uint256",
          "name": "amount",
          "type": "uint256"
        }
      ],
      "name": "transfer",
      "outputs": [
        {
          "internalType": "bool",
          "name": "",
          "type": "bool"
        }
      ],
      "stateMutability": "nonpayable",
      "type": "function"
    },
    {
      "inputs": [
        {
          "internalType": "address",
          "name": "sender",
          "type": "address"
        },
        {
          "internalType": "address",
          "name": "recipient",
          "type": "address"
        },
        {
          "internalType": "uint256",
          "name": "amount",
          "type": "uint256"
        }
      ],
      "name": "transferFrom",
      "outputs": [
        {
          "internalType": "bool",
          "name": "",
          "type": "bool"
        }
      ],
      "stateMutability": "nonpayable",
      "type": "function"
    }
  ],
  "bytecode": "0x60806040523480156200001157600080fd5b506040516200205938038062002059833981810160405260408110156200003757600080fd5b81019080805160405193929190846401000000008211156200005857600080fd5b838201915060208201858111156200006f57600080fd5b82518660018202830111640100000000821117156200008d57600080fd5b8083526020830192505050908051906020019080838360005b83811015620000c3578082015181840152602081019050620000a6565b50505050905090810190601f168015620000f15780820380516001836020036101000a031916815260200191505b50604052602001805160405193929190846401000000008211156200011557600080fd5b838201915060208201858111156200012c57600080fd5b82518660018202830111640100000000821117156200014a57600080fd5b8083526020830192505050908051906020019080838360005b838110156200018057808201518184015260208101905062000163565b50505050905090810190601f168015620001ae5780820380516001836020036101000a031916815260200191505b50604052505050620001e97f1df82398d1df980a3dbc02f80025fc30b0124a06c663521ed199d2b2ba62218f60001b6200037660201b60201c565b6200021d7f317f8acf4f76ff696043de95fdead4076dfa2bb58dd5b05b206ca55cc6135a6160001b6200037660201b60201c565b620002517f1b75aa616ce759b1ade9a9c34b9400d26055f6661ee2535e2e197093b869f80360001b6200037660201b60201c565b81600390805190602001906200026992919062000379565b506200029d7ebf3fc50f4f7e7429edd62f72c5f7a6c88f00dff0ebd901843729698179a37d60001b6200037660201b60201c565b620002d17fd48f3d19dad1a90a5cc01d7611ad80761d23aa3b08e5c26a79fbf098e72e191860001b6200037660201b60201c565b8060049080519060200190620002e992919062000379565b506200031e7fb6c9a530a3606c41b414f19cc1a232fe3861ae061e8768bb446e47291a6b65fa60001b6200037660201b60201c565b620003527f01bb841a2dfe1919bb5e8c4d92c185e32324a5909ccf6278b89081869c3afffb60001b6200037660201b60201c565b6012600560006101000a81548160ff021916908360ff16021790555050506200041f565b50565b828054600181600116156101000203166002900490600052602060002090601f016020900481019282601f10620003bc57805160ff1916838001178555620003ed565b82800160010185558215620003ed579182015b82811115620003ec578251825591602001919060010190620003cf565b5b509050620003fc919062000400565b5090565b5b808211156200041b57600081600090555060010162000401565b5090565b611c2a806200042f6000396000f3fe608060405234801561001057600080fd5b50600436106100d45760003560e01c806344e4c9c111610081578063a457c2d71161005b578063a457c2d7146103f0578063a9059cbb14610454578063dd62ed3e146104b8576100d4565b806344e4c9c1146102e757806370a082311461031557806395d89b411461036d576100d4565b806323b872dd116100b257806323b872dd146101de578063313ce567146102625780633950935114610283576100d4565b806306fdde03146100d9578063095ea7b31461015c57806318160ddd146101c0575b600080fd5b6100e1610530565b6040518080602001828103825283818151815260200191508051906020019080838360005b83811015610121578082015181840152602081019050610106565b50505050905090810190601f16801561014e5780820380516001836020036101000a031916815260200191505b509250505060405180910390f35b6101a86004803603604081101561017257600080fd5b81019080803573ffffffffffffffffffffffffffffffffffffffff16906020019092919080359060200190929190505050610655565b60405180821515815260200191505060405180910390f35b6101c8610748565b6040518082815260200191505060405180910390f35b61024a600480360360608110156101f457600080fd5b81019080803573ffffffffffffffffffffffffffffffffffffffff169060200190929190803573ffffffffffffffffffffffffffffffffffffffff169060200190929190803590602001909291905050506107d6565b60405180821515815260200191505060405180910390f35b61026a6109bf565b604051808260ff16815260200191505060405180910390f35b6102cf6004803603604081101561029957600080fd5b81019080803573ffffffffffffffffffffffffffffffffffffffff16906020019092919080359060200190929190505050610a5a565b60405180821515815260200191505060405180910390f35b610313600480360360208110156102fd57600080fd5b8101908080359060200190929190505050610bdb565b005b6103576004803603602081101561032b57600080fd5b81019080803573ffffffffffffffffffffffffffffffffffffffff169060200190929190505050610bde565b6040518082815260200191505060405180910390f35b610375610caa565b6040518080602001828103825283818151815260200191508051906020019080838360005b838110156103b557808201518184015260208101905061039a565b50505050905090810190601f1680156103e25780820380516001836020036101000a031916815260200191505b509250505060405180910390f35b61043c6004803603604081101561040657600080fd5b81019080803573ffffffffffffffffffffffffffffffffffffffff16906020019092919080359060200190929190505050610dd0565b60405180821515815260200191505060405180910390f35b6104a06004803603604081101561046a57600080fd5b81019080803573ffffffffffffffffffffffffffffffffffffffff16906020019092919080359060200190929190505050610f55565b60405180821515815260200191505060405180910390f35b61051a600480360360408110156104ce57600080fd5b81019080803573ffffffffffffffffffffffffffffffffffffffff169060200190929190803573ffffffffffffffffffffffffffffffffffffffff169060200190929190505050611047565b6040518082815260200191505060405180910390f35b606061055d7e1008a7ff2c18420b3c2afb73d847caeeb37e0ae9aedc59ba0c87d91a040c0460001b610bdb565b6105897f25b908e8135df227a020bc5da410b8cc917108eeac019ad38df0cd1c73dccf7960001b610bdb565b6105b57f9b9d23aa17995c0e5d294bb37ac8782e4a4e2fc4c874c719a610331ddef340c260001b610bdb565b60038054600181600116156101000203166002900480601f01602080910402602001604051908101604052809291908181526020018280546001816001161561010002031660029004801561064b5780601f106106205761010080835404028352916020019161064b565b820191906000526020600020905b81548152906001019060200180831161062e57829003601f168201915b5050505050905090565b60006106837f71213e3e5d04220cde5cb79bd00ded20374b6e8cefecd2c1ec1c1c19f3d8153860001b610bdb565b6106af7fb97a6f429c8ddd9bd6b4b0c19c91d12947296fa57d78038cb9e8cafe7906b60660001b610bdb565b6106db7f397d564539fb4ab31840be9e628f8a1bb239abf200de48cb5d30e715674f300760001b610bdb565b6106e6338484611152565b6107127f1a0e0071cc81d45226b2fe026e1347c59787705ca995cfa077b052f58965906560001b610bdb565b61073e7ff56a4239164c161b70e16e0886a0cc8131b074c9cb09059c59f33dad08eb821460001b610bdb565b6001905092915050565b60006107767faf3d11189cabe20e4cf05439845925c4593d6c53fec6b8c5235e5f6ba048580e60001b610bdb565b6107a27f521164b9c12621cdde863797861d92a09e26697f732fa8bce0cb82164cfbb95760001b610bdb565b6107ce7f2672cd013509034f6465889eb1e961d876d8a6fd12e6f1377ecfa1eca29ac7e460001b610bdb565b600254905090565b60006108047f0b082f3ae6eae03658fb57fb99d0dfe65c8a19ef91692bc2c9797a1e4adfdacf60001b610bdb565b6108307f2b4e8dd86d11e479100db427bb8df02362bc6fec2a57d829c196b8882ad6338f60001b610bdb565b61085c7fe5c909d9f9130cd6306ccf6572894e7936ef61f00654512ef50c0f5d7e44425f60001b610bdb565b610867848484611440565b6108937f1f4e4f926d170358bcc99d9813bbe0e4aa9a922f6063aa78479e78f745e27aad60001b610bdb565b6108bf7f2ac14ed5b87098452461490aa1db7ec892102dc1580137450376b9b59521098560001b610bdb565b61095c84336109578561019e600160008b73ffffffffffffffffffffffffffffffffffffffff1673ffffffffffffffffffffffffffffffffffffffff16815260200190815260200160002060003373ffffffffffffffffffffffffffffffffffffffff1673ffffffffffffffffffffffffffffffffffffffff168152602001908152602001600020546118939092919063ffffffff16565b611152565b6109887fb8091ef680973ba40f6eaf5aab80c8b9467cb06e2a84e40f2ebd047b28ac171b60001b610bdb565b6109b47fa84b8013cfae7f7326dcb9814e8c977d0142b8da14a6d1ba55c00d760accbd6b60001b610bdb565b600190509392505050565b60006109ed7f0c576a0248184960f18c24333c8430125873049896ca7d8f0ae07aa11fff282e60001b610bdb565b610a197f36a55b9a980384528b84a7b3864c1dffa4a3818d974fffbf91eb2e4277472b3b60001b610bdb565b610a457f76d5caa1b9ca7b27ce1d2e3fc3d03c799c68b417c2ea2b23dbc8885f7b93e9ac60001b610bdb565b600560009054906101000a900460ff16905090565b6000610a887f3dd8c13ae6b3eafe0bf8ecd7d9b6b6603c2eba222f097c523715af7fda4cfa0b60001b610bdb565b610ab47f167db07e43bdddaad37ba4c5bd6042e89b5207081a34bdc472e3e0abcb89a2d260001b610bdb565b610ae07f81ddc0b81b53d8baf72dd15d17c2cb2c529621a2dc54b11032ccf61e6ce4e47560001b610bdb565b610b793384610b7485600160003373ffffffffffffffffffffffffffffffffffffffff1673ffffffffffffffffffffffffffffffffffffffff16815260200190815260200160002060008973ffffffffffffffffffffffffffffffffffffffff1673ffffffffffffffffffffffffffffffffffffffff168152602001908152602001600020546119e890919063ffffffff16565b611152565b610ba57f2e5e68591043c16b89efec08f8aa042f5f3d034ea7556af1b72c9ca305b349fa60001b610bdb565b610bd17f7323016f9d04ba2b9c90d2f0db4d570155832ada234072805213dd73bd239da360001b610bdb565b6001905092915050565b50565b6000610c0c7f32aff2a3c8f3d75fa749664ee56b7e48d0bc712bf013dafe874412a18f9866b060001b610bdb565b610c387fcb4aaa10d63c4818955126bce8280b618a2d8530a6c85e971c5cd567b471b91860001b610bdb565b610c647f5f5caf971237d152a10e3084fe1590d4d2766fdfaaa888398411b8305b4c633860001b610bdb565b6000808373ffffffffffffffffffffffffffffffffffffffff1673ffffffffffffffffffffffffffffffffffffffff168152602001908152602001600020549050919050565b6060610cd87f8947dc91f431fcfd9244d28e875c0cb140ed442d38d99fdd37e14d6883f12a2360001b610bdb565b610d047f05426f99105b441b08e7cb5ddeb0702def41887787c695042f6dc0cadf1e82b560001b610bdb565b610d307f6cd4289d0e214279d67337b39c3084dd461b1db8fe8873b055672b7012cbe1da60001b610bdb565b60048054600181600116156101000203166002900480601f016020809104026020016040519081016040528092919081815260200182805460018160011615610100020316600290048015610dc65780601f10610d9b57610100808354040283529160200191610dc6565b820191906000526020600020905b815481529060010190602001808311610da957829003601f168201915b5050505050905090565b6000610dfe7fd9b6bb8474992b807fb5f57b86dcbf770467046b3dfc82128702f259de4672c660001b610bdb565b610e2a7fb73971d5841d27b068dcdca11361b02af6e0491e88615e8485a57313d6d8896f60001b610bdb565b610e567f70343512ae253de72faa436ec44fbfc1068772ffb52ef49fe92f14891056bc1360001b610bdb565b610ef33384610eee8561019f600160003373ffffffffffffffffffffffffffffffffffffffff1673ffffffffffffffffffffffffffffffffffffffff16815260200190815260200160002060008a73ffffffffffffffffffffffffffffffffffffffff1673ffffffffffffffffffffffffffffffffffffffff168152602001908152602001600020546118939092919063ffffffff16565b611152565b610f1f7f424aaf847d297667be6446ad4e919ccf9d49f5f55798238d0340ae1f8946841a60001b610bdb565b610f4b7fb4b18e9430bf69715e2c0321df01c4f23960420e372572c8db7585e83588872460001b610bdb565b6001905092915050565b6000610f837f0e2c12e3e742fe3ca39de30e0522cd06d02c5d2d0c868f2739a292babf94acb360001b610bdb565b610faf7fad9c88b936b677d41d66c5846321fbafeefff4a41684073b83ebbb1e378f665e60001b610bdb565b610fdb7f38397d48c11e82f6540904e166b0810d4acf4b4dcb165b25bd3c1a93b2c3df6260001b610bdb565b610fe6338484611440565b6110127f8c3d40d886822417af28b1b25a9898a57a5bc462aebc801a297c87e22cb50def60001b610bdb565b61103d7ebed9a0943dff85e6c881c8191afbd1d4ab4e55d15f8974f14b811c07ecf5d760001b610bdb565b6001905092915050565b60006110757ffd054a87925de5f6d6d236398f56470eadec3563959480d32544eaf540def38360001b610bdb565b6110a17f3d0a4defc6797c053b05246af5f55126e20f8231064e1b3a32ff74a7acd0386860001b610bdb565b6110cd7f30a69d7c3d41c5eeceefaa0efaee27343a4855042a4a95944095dfa92051a2dc60001b610bdb565b600160008473ffffffffffffffffffffffffffffffffffffffff1673ffffffffffffffffffffffffffffffffffffffff16815260200190815260200160002060008373ffffffffffffffffffffffffffffffffffffffff1673ffffffffffffffffffffffffffffffffffffffff16815260200190815260200160002054905092915050565b61117e7f68a6a56465ec1535b6bfe4af85a516783a9941193f72153f6aec6fb0f8dff75f60001b610bdb565b6111aa7f5f698cd169a04ca2f108e0d239f9a6c7ca8270e3d52791c76bb8eacce161eaf160001b610bdb565b6111d67ff577576ced7a0d5987b726cdb18b4c380191fbe871d8ce86585f0d3e3a3e2dae60001b610bdb565b611212600073ffffffffffffffffffffffffffffffffffffffff168473ffffffffffffffffffffffffffffffffffffffff16141561019c611b3d565b61123e7feaf1c4a03990fc3a70c1c10348a0520c9ba4a90d7dc15029ddaa9a56cb88321a60001b610bdb565b6112697e40a87988715010e10c0c85b5df9b270bc69e902584f1d672f7a81a10e8270560001b610bdb565b6112a5600073ffffffffffffffffffffffffffffffffffffffff168373ffffffffffffffffffffffffffffffffffffffff16141561019d611b3d565b6112d17f0157bb36a670a15cd04689e37c8aed88e168ac61754373dd3c9e2a76ade98fa960001b610bdb565b6112fd7fc8f7030e05e98c0793864bdacbe5044a39efc2acccb17b2b9f826407adcc64ff60001b610bdb565b80600160008573ffffffffffffffffffffffffffffffffffffffff1673ffffffffffffffffffffffffffffffffffffffff16815260200190815260200160002060008473ffffffffffffffffffffffffffffffffffffffff1673ffffffffffffffffffffffffffffffffffffffff168152602001908152602001600020819055506113aa7f1d94b76d4324c0f87937fa15970814d8ec781102ae194be79b183952a520fb4760001b610bdb565b6113d67f7bfb3dce65ef101cb72d084e60cb6cb0c017243e2ef00ba77dd5e35327d715e460001b610bdb565b8173ffffffffffffffffffffffffffffffffffffffff168373ffffffffffffffffffffffffffffffffffffffff167f8c5be1e5ebec7d5bd14f71427d1e84f3dd0314c0f7b2291e5b200ac8c7c3b925836040518082815260200191505060405180910390a3505050565b61146c7ffb98f7b8ed39efd032b67770e3088e4c574851b96cc81694552a6960569d990760001b610bdb565b6114987fcaf58cf370fd8398c7dce9d3da22fa69db7f2132ee2c67ef39925ae54bdc003b60001b610bdb565b6114c47f77d403ab303824dcbbdb704f1f9f061420e001db095e54b8e0368fbaa42aaf4060001b610bdb565b611500600073ffffffffffffffffffffffffffffffffffffffff168473ffffffffffffffffffffffffffffffffffffffff161415610198611b3d565b61152c7f10c7bbf7a80bd0352bac1208b29cc884da15b9129c73068b3fa63ccd6deb2c9160001b610bdb565b6115587f9806deebcd2e79f46206eb757789111d6e5da2c8e016345a991cb414bb00f3eb60001b610bdb565b611594600073ffffffffffffffffffffffffffffffffffffffff168373ffffffffffffffffffffffffffffffffffffffff161415610199611b3d565b6115c07f66bc16b15f7a845308eaa8a96bb9690bc94d351c7b4ae88aa11824531f5b4b3160001b610bdb565b6115ec7f6882043f367f2adc4825f40a6717b037c514f77ee439277dde3cdb12261ce37660001b610bdb565b6115f7838383611b50565b6116237f5f5c905ce3a5e103462106bcc7c8224b2de3ca5e363e03cd691877221b75cf8d60001b610bdb565b61164f7f539957a7b0696282ffaae9dd19abb07980b6a615179419799fd4543db1c4b09760001b610bdb565b6116a4816101a06000808773ffffffffffffffffffffffffffffffffffffffff1673ffffffffffffffffffffffffffffffffffffffff168152602001908152602001600020546118939092919063ffffffff16565b6000808573ffffffffffffffffffffffffffffffffffffffff1673ffffffffffffffffffffffffffffffffffffffff168152602001908152602001600020819055506117127f1243fa584116b2bbdf0308a80fc3b5f844d252f2fde49634527f23211d6862f160001b610bdb565b61173e7f1b59af821fc82de7e64b8842ecda056f7f3e1577850cc58da76f2ae019ba0e0860001b610bdb565b61178f816000808573ffffffffffffffffffffffffffffffffffffffff1673ffffffffffffffffffffffffffffffffffffffff168152602001908152602001600020546119e890919063ffffffff16565b6000808473ffffffffffffffffffffffffffffffffffffffff1673ffffffffffffffffffffffffffffffffffffffff168152602001908152602001600020819055506117fd7fbf36943c0f935bfa0103986b3344f23ea30e3a0c4fd29de5dd5f2ef45c45302260001b610bdb565b6118297f0b1eb2e9ce48028d273c77408abe2d218b646427ba41301ecab3baaa3904a23960001b610bdb565b8173ffffffffffffffffffffffffffffffffffffffff168373ffffffffffffffffffffffffffffffffffffffff167fddf252ad1be2c89b69c2b068fc378daa952ba7f163c4a11628f55a4df523b3ef836040518082815260200191505060405180910390a3505050565b60006118c17f02b88a6f8bd524d2a76191776fd9793cad3d141b58c54ccde7d93c355eac311760001b611b81565b6118ed7f8617b94b049e157a480fc789054a42cbc00aa38f8cdecac11327b3b3328ea71760001b611b81565b6119197f92d42e3b5dddfb102f74d2c36250b61d90c135276c58c6e07766359e3e31145b60001b611b81565b6119268484111583611b3d565b6119527f9f2b0d55d8c3909b5a08be0838486107de0239c4f5e099867e7b7a5d438579ba60001b611b81565b61197e7f3747651fbf721f40868c09bebc9618686fef61af6e965c2c4ea2ee58d2a6abc460001b611b81565b600083850390506119b17f1de7d7f7b87d3d43d65ea6f43d3a1ae2e098de1eef9cca4225e34bf4ace6b1d860001b611b81565b6119dd7f93b2665f54609cc0b439a589750cb18b109e933de9245e501364a0fa36a85be160001b611b81565b809150509392505050565b6000611a167f3b6c4eac85647b2a81f430555f9b81d9c2af7bf44a3787f0cbc157df39aa0f4860001b611b81565b611a427fccdeba245ebd2c3ade6b1190e48e40f054faaaf1c794aacdb30cb3c4f5c2efc860001b611b81565b611a6e7f4f54172e632fbcb782e521dad1a67dc9a8c08e3d515fddc725c4cb96bd5c736160001b611b81565b60008284019050611aa17f66141579579d8a176f4c2b0ac92d82f7f8bb78171a1cf04d611490839cfedfdd60001b611b81565b611acd7fd334a76e88e55fbd725641fbede49dc0aa7871c0433121949b7028cb1201309560001b611b81565b611adb848210156000611b3d565b611b077fd17c0241e4e1de497c0cfb0a379213e448c78b6da177ce868f2415e68c47691d60001b611b81565b611b337fc6a285953fc7a62f28d50ef7bab0774ba6cedd040d840c27cf1d01a65fd8249860001b611b81565b8091505092915050565b81611b4c57611b4b81611b84565b5b5050565b611b7c7f1dacffa5ab056ee4f7beeebce2c9f48e657b3afcb7932f99f30840614b4078a460001b610bdb565b505050565b50565b6030600a820601600a820491506030600a830601600a830492506030600a8406018060101b8260081b8401016642414c230000000160c81b7f08c379a000000000000000000000000000000000000000000000000000000000600052602060045260076024528060445260646000fdfea2646970667358221220fc92a15b215120f5e00417baf0f9771fd50f48602376cb60d301765ed604ccc964736f6c63430007010033",
  "linkReferences": {},
  "deployedLinkReferences": {}
}