{
  "_format": "hh-sol-artifact-1",
  "contractName": "EnumerableSet",
  "sourceName": "contracts/balancer-core-v2/lib/openzeppelin/EnumerableSet.sol",
  "abi": [
    {
      "inputs": [
        {
          "internalType": "bytes32",
          "name": "c__0x778f2bbd",
          "type": "bytes32"
        }
      ],
      "name": "c_0x778f2bbd",
      "outputs": [],
      "stateMutability": "pure",
      "type": "function"
    }
  ],
  "bytecode": "0x609c610024600b82828239805160001a607314601757fe5b30600052607381538281f3fe730000000000000000000000000000000000000000301460806040526004361060335760003560e01c806305fe9d43146038575b600080fd5b606160048036036020811015604c57600080fd5b81019080803590602001909291905050506063565b005b5056fea264697066735822122097e351a1cc1bd0d4a9ffe22b8916f3bf849f5ff7e13435a05b67ccd27ff2c4f064736f6c63430007010033",
  "linkReferences": {},
  "deployedLinkReferences": {}
}