{
  "_format": "hh-sol-artifact-1",
  "contractName": "EnumerableMap",
  "sourceName": "contracts/balancer-core-v2/lib/openzeppelin/EnumerableMap.sol",
  "abi": [
    {
      "inputs": [
        {
          "internalType": "bytes32",
          "name": "c__0x7889191a",
          "type": "bytes32"
        }
      ],
      "name": "c_0x7889191a",
      "outputs": [],
      "stateMutability": "pure",
      "type": "function"
    }
  ],
  "bytecode": "0x609c610024600b82828239805160001a607314601757fe5b30600052607381538281f3fe730000000000000000000000000000000000000000301460806040526004361060335760003560e01c8063917266ab146038575b600080fd5b606160048036036020811015604c57600080fd5b81019080803590602001909291905050506063565b005b5056fea26469706673582212206d08a527af58eb82acd3f24e545c4ca4fafd40235babbb3b07b8a5f4916ac03164736f6c63430007010033",
  "linkReferences": {},
  "deployedLinkReferences": {}
}