{
  "_format": "hh-sol-artifact-1",
  "contractName": "EnumerableMap",
  "sourceName": "contracts/balancer-core-v2/lib/openzeppelin/EnumerableMap.sol",
  "abi": [
    {
      "inputs": [
        {
          "internalType": "bytes32",
          "name": "c__0xcc9bb345",
          "type": "bytes32"
        }
      ],
      "name": "c_0xcc9bb345",
      "outputs": [],
      "stateMutability": "pure",
      "type": "function"
    }
  ],
  "bytecode": "0x609c610024600b82828239805160001a607314601757fe5b30600052607381538281f3fe730000000000000000000000000000000000000000301460806040526004361060335760003560e01c80639ab95eee146038575b600080fd5b606160048036036020811015604c57600080fd5b81019080803590602001909291905050506063565b005b5056fea26469706673582212205b18e27c63ab21bcc4c0246a3affb459503c6686def6ead6228c091a3de6bdb564736f6c63430007010033",
  "linkReferences": {},
  "deployedLinkReferences": {}
}