{
  "_format": "hh-sol-artifact-1",
  "contractName": "SafeMath",
  "sourceName": "contracts/balancer-core-v2/lib/openzeppelin/SafeMath.sol",
  "abi": [
    {
      "inputs": [
        {
          "internalType": "bytes32",
          "name": "c__0x436e4aad",
          "type": "bytes32"
        }
      ],
      "name": "c_0x436e4aad",
      "outputs": [],
      "stateMutability": "pure",
      "type": "function"
    }
  ],
  "bytecode": "0x609c610024600b82828239805160001a607314601757fe5b30600052607381538281f3fe730000000000000000000000000000000000000000301460806040526004361060335760003560e01c8063d545c04a146038575b600080fd5b606160048036036020811015604c57600080fd5b81019080803590602001909291905050506063565b005b5056fea2646970667358221220139186644532092fdb1f09655a494ff81167632b81edaec899a805ac9ed87ce764736f6c63430007010033",
  "linkReferences": {},
  "deployedLinkReferences": {}
}