{
  "_format": "hh-sol-artifact-1",
  "contractName": "SafeMath",
  "sourceName": "contracts/balancer-core-v2/lib/openzeppelin/SafeMath.sol",
  "abi": [
    {
      "inputs": [
        {
          "internalType": "bytes32",
          "name": "c__0x2f776665",
          "type": "bytes32"
        }
      ],
      "name": "c_0x2f776665",
      "outputs": [],
      "stateMutability": "pure",
      "type": "function"
    }
  ],
  "bytecode": "0x609c610024600b82828239805160001a607314601757fe5b30600052607381538281f3fe730000000000000000000000000000000000000000301460806040526004361060335760003560e01c806306677fd4146038575b600080fd5b606160048036036020811015604c57600080fd5b81019080803590602001909291905050506063565b005b5056fea2646970667358221220b70d5c652144b6dad4ee8730307ac35eb3981a76ff5e1123686c3daac19b9b8a64736f6c63430007010033",
  "linkReferences": {},
  "deployedLinkReferences": {}
}