{
  "_format": "hh-sol-artifact-1",
  "contractName": "MockPool",
  "sourceName": "contracts/balancer-core-v2/test/MockPool.sol",
  "abi": [
    {
      "inputs": [
        {
          "internalType": "contract IVault",
          "name": "vault",
          "type": "address"
        },
        {
          "internalType": "enum IVault.PoolSpecialization",
          "name": "specialization",
          "type": "uint8"
        }
      ],
      "stateMutability": "nonpayable",
      "type": "constructor"
    },
    {
      "anonymous": false,
      "inputs": [
        {
          "indexed": false,
          "internalType": "bytes32",
          "name": "poolId",
          "type": "bytes32"
        },
        {
          "indexed": false,
          "internalType": "address",
          "name": "sender",
          "type": "address"
        },
        {
          "indexed": false,
          "internalType": "address",
          "name": "recipient",
          "type": "address"
        },
        {
          "indexed": false,
          "internalType": "uint256[]",
          "name": "currentBalances",
          "type": "uint256[]"
        },
        {
          "indexed": false,
          "internalType": "uint256",
          "name": "lastChangeBlock",
          "type": "uint256"
        },
        {
          "indexed": false,
          "internalType": "uint256",
          "name": "protocolSwapFeePercentage",
          "type": "uint256"
        },
        {
          "indexed": false,
          "internalType": "bytes",
          "name": "userData",
          "type": "bytes"
        }
      ],
      "name": "OnExitPoolCalled",
      "type": "event"
    },
    {
      "anonymous": false,
      "inputs": [
        {
          "indexed": false,
          "internalType": "bytes32",
          "name": "poolId",
          "type": "bytes32"
        },
        {
          "indexed": false,
          "internalType": "address",
          "name": "sender",
          "type": "address"
        },
        {
          "indexed": false,
          "internalType": "address",
          "name": "recipient",
          "type": "address"
        },
        {
          "indexed": false,
          "internalType": "uint256[]",
          "name": "currentBalances",
          "type": "uint256[]"
        },
        {
          "indexed": false,
          "internalType": "uint256",
          "name": "lastChangeBlock",
          "type": "uint256"
        },
        {
          "indexed": false,
          "internalType": "uint256",
          "name": "protocolSwapFeePercentage",
          "type": "uint256"
        },
        {
          "indexed": false,
          "internalType": "bytes",
          "name": "userData",
          "type": "bytes"
        }
      ],
      "name": "OnJoinPoolCalled",
      "type": "event"
    },
    {
      "inputs": [
        {
          "internalType": "bytes32",
          "name": "c__0x279863ce",
          "type": "bytes32"
        }
      ],
      "name": "c_0x279863ce",
      "outputs": [],
      "stateMutability": "pure",
      "type": "function"
    },
    {
      "inputs": [
        {
          "internalType": "contract IERC20[]",
          "name": "tokens",
          "type": "address[]"
        }
      ],
      "name": "deregisterTokens",
      "outputs": [],
      "stateMutability": "nonpayable",
      "type": "function"
    },
    {
      "inputs": [],
      "name": "getPoolId",
      "outputs": [
        {
          "internalType": "bytes32",
          "name": "",
          "type": "bytes32"
        }
      ],
      "stateMutability": "view",
      "type": "function"
    },
    {
      "inputs": [],
      "name": "getVault",
      "outputs": [
        {
          "internalType": "contract IVault",
          "name": "",
          "type": "address"
        }
      ],
      "stateMutability": "view",
      "type": "function"
    },
    {
      "inputs": [
        {
          "internalType": "bytes32",
          "name": "poolId",
          "type": "bytes32"
        },
        {
          "internalType": "address",
          "name": "sender",
          "type": "address"
        },
        {
          "internalType": "address",
          "name": "recipient",
          "type": "address"
        },
        {
          "internalType": "uint256[]",
          "name": "currentBalances",
          "type": "uint256[]"
        },
        {
          "internalType": "uint256",
          "name": "lastChangeBlock",
          "type": "uint256"
        },
        {
          "internalType": "uint256",
          "name": "protocolSwapFeePercentage",
          "type": "uint256"
        },
        {
          "internalType": "bytes",
          "name": "userData",
          "type": "bytes"
        }
      ],
      "name": "onExitPool",
      "outputs": [
        {
          "internalType": "uint256[]",
          "name": "amountsOut",
          "type": "uint256[]"
        },
        {
          "internalType": "uint256[]",
          "name": "dueProtocolFeeAmounts",
          "type": "uint256[]"
        }
      ],
      "stateMutability": "nonpayable",
      "type": "function"
    },
    {
      "inputs": [
        {
          "internalType": "bytes32",
          "name": "poolId",
          "type": "bytes32"
        },
        {
          "internalType": "address",
          "name": "sender",
          "type": "address"
        },
        {
          "internalType": "address",
          "name": "recipient",
          "type": "address"
        },
        {
          "internalType": "uint256[]",
          "name": "currentBalances",
          "type": "uint256[]"
        },
        {
          "internalType": "uint256",
          "name": "lastChangeBlock",
          "type": "uint256"
        },
        {
          "internalType": "uint256",
          "name": "protocolSwapFeePercentage",
          "type": "uint256"
        },
        {
          "internalType": "bytes",
          "name": "userData",
          "type": "bytes"
        }
      ],
      "name": "onJoinPool",
      "outputs": [
        {
          "internalType": "uint256[]",
          "name": "amountsIn",
          "type": "uint256[]"
        },
        {
          "internalType": "uint256[]",
          "name": "dueProtocolFeeAmounts",
          "type": "uint256[]"
        }
      ],
      "stateMutability": "nonpayable",
      "type": "function"
    },
    {
      "inputs": [
        {
          "components": [
            {
              "internalType": "enum IVault.SwapKind",
              "name": "kind",
              "type": "uint8"
            },
            {
              "internalType": "contract IERC20",
              "name": "tokenIn",
              "type": "address"
            },
            {
              "internalType": "contract IERC20",
              "name": "tokenOut",
              "type": "address"
            },
            {
              "internalType": "uint256",
              "name": "amount",
              "type": "uint256"
            },
            {
              "internalType": "bytes32",
              "name": "poolId",
              "type": "bytes32"
            },
            {
              "internalType": "uint256",
              "name": "lastChangeBlock",
              "type": "uint256"
            },
            {
              "internalType": "address",
              "name": "from",
              "type": "address"
            },
            {
              "internalType": "address",
              "name": "to",
              "type": "address"
            },
            {
              "internalType": "bytes",
              "name": "userData",
              "type": "bytes"
            }
          ],
          "internalType": "struct IPoolSwapStructs.SwapRequest",
          "name": "swapRequest",
          "type": "tuple"
        },
        {
          "internalType": "uint256[]",
          "name": "",
          "type": "uint256[]"
        },
        {
          "internalType": "uint256",
          "name": "",
          "type": "uint256"
        },
        {
          "internalType": "uint256",
          "name": "",
          "type": "uint256"
        }
      ],
      "name": "onSwap",
      "outputs": [
        {
          "internalType": "uint256",
          "name": "amount",
          "type": "uint256"
        }
      ],
      "stateMutability": "view",
      "type": "function"
    },
    {
      "inputs": [
        {
          "components": [
            {
              "internalType": "enum IVault.SwapKind",
              "name": "kind",
              "type": "uint8"
            },
            {
              "internalType": "contract IERC20",
              "name": "tokenIn",
              "type": "address"
            },
            {
              "internalType": "contract IERC20",
              "name": "tokenOut",
              "type": "address"
            },
            {
              "internalType": "uint256",
              "name": "amount",
              "type": "uint256"
            },
            {
              "internalType": "bytes32",
              "name": "poolId",
              "type": "bytes32"
            },
            {
              "internalType": "uint256",
              "name": "lastChangeBlock",
              "type": "uint256"
            },
            {
              "internalType": "address",
              "name": "from",
              "type": "address"
            },
            {
              "internalType": "address",
              "name": "to",
              "type": "address"
            },
            {
              "internalType": "bytes",
              "name": "userData",
              "type": "bytes"
            }
          ],
          "internalType": "struct IPoolSwapStructs.SwapRequest",
          "name": "swapRequest",
          "type": "tuple"
        },
        {
          "internalType": "uint256",
          "name": "",
          "type": "uint256"
        },
        {
          "internalType": "uint256",
          "name": "",
          "type": "uint256"
        }
      ],
      "name": "onSwap",
      "outputs": [
        {
          "internalType": "uint256",
          "name": "",
          "type": "uint256"
        }
      ],
      "stateMutability": "view",
      "type": "function"
    },
    {
      "inputs": [
        {
          "internalType": "contract IERC20[]",
          "name": "tokens",
          "type": "address[]"
        },
        {
          "internalType": "address[]",
          "name": "assetManagers",
          "type": "address[]"
        }
      ],
      "name": "registerTokens",
      "outputs": [],
      "stateMutability": "nonpayable",
      "type": "function"
    },
    {
      "inputs": [
        {
          "internalType": "uint256",
          "name": "newMultiplier",
          "type": "uint256"
        }
      ],
      "name": "setMultiplier",
      "outputs": [],
      "stateMutability": "nonpayable",
      "type": "function"
    }
  ],
  "bytecode": "0x60c0604052670de0b6b3a76400006000553480156200001d57600080fd5b506040516200218b3803806200218b833981810160405281019062000043919062000292565b620000777f5204805107812b2b99795df5ee293e3ef9e9fe34d39605424ae3f47f7549550e60001b6200021e60201b60201c565b620000ab7f0744e2d7f1300c528966818600942be26e92571688d91fec622ebe3de5b1903560001b6200021e60201b60201c565b620000df7fa069c7c8287da53f82a161d581de133dda425375178ebbf269577c3a6d71570860001b6200021e60201b60201c565b8173ffffffffffffffffffffffffffffffffffffffff166309b2760f826040518263ffffffff1660e01b81526004016200011a9190620002e4565b602060405180830381600087803b1580156200013557600080fd5b505af11580156200014a573d6000803e3d6000fd5b505050506040513d601f19601f8201168201806040525081019062000170919062000266565b60a08181525050620001ab7f5bd12e8760311339e38204d9030883fbd03c897bc3fd55ba0205a656d76cdb9760001b6200021e60201b60201c565b620001df7f1c14c582b5339779f72f1460726d89ca7654dfcaef7a5b4124d2b1e531b9627f60001b6200021e60201b60201c565b8173ffffffffffffffffffffffffffffffffffffffff1660808173ffffffffffffffffffffffffffffffffffffffff1660601b815250505050620003cf565b50565b60008151905062000232816200038a565b92915050565b6000815190506200024981620003a4565b92915050565b6000815190506200026081620003be565b92915050565b6000602082840312156200027957600080fd5b6000620002898482850162000221565b91505092915050565b60008060408385031215620002a657600080fd5b6000620002b68582860162000238565b9250506020620002c9858286016200024f565b9150509250929050565b620002de8162000368565b82525050565b6000602082019050620002fb6000830184620002d3565b92915050565b60006200030e8262000348565b9050919050565b6000819050919050565b60006200032c8262000301565b9050919050565b600081905062000343826200037c565b919050565b600073ffffffffffffffffffffffffffffffffffffffff82169050919050565b6000620003758262000333565b9050919050565b600381106200038757fe5b50565b620003958162000315565b8114620003a157600080fd5b50565b620003af816200031f565b8114620003bb57600080fd5b50565b60038110620003cc57600080fd5b50565b60805160601c60a051611d816200040a600039806103df52806104dc52806105c25250806103a3528061058652806108945250611d816000f3fe608060405234801561001057600080fd5b50600436106100bd5760003560e01c8063641579a6116100765780638d928af81161005b5780638d928af8146101b15780639d2c110c146101cf578063d5c096c4146101ff576100bd565b8063641579a61461016457806374f3b00914610180576100bd565b8063267dc1f0116100a7578063267dc1f01461010e57806338fff2d01461012a5780635f2b65f814610148576100bd565b806203cb98146100c257806301ec954a146100de575b600080fd5b6100dc60048036038101906100d791906114cd565b610230565b005b6100f860048036038101906100f391906115c4565b610233565b6040516101059190611a4a565b60405180910390f35b610128600480360381019061012391906113f5565b61031d565b005b610132610454565b60405161013f9190611922565b60405180910390f35b610162600480360381019061015d91906113b4565b610500565b005b61017e600480360381019061017991906116be565b610634565b005b61019a600480360381019061019591906114f6565b6106c2565b6040516101a89291906118eb565b60405180910390f35b6101b961080c565b6040516101c69190611a2f565b60405180910390f35b6101e960048036038101906101e49190611657565b6108b8565b6040516101f69190611a4a565b60405180910390f35b610219600480360381019061021491906114f6565b6109a1565b6040516102279291906118eb565b60405180910390f35b50565b60006102617f7a58105646d4da3ffad4a368645fcd3ddbb79dac72cfdbcef68ae8956014a2cc60001b610230565b61028d7fbd85e8e260d27f7965a079149571e68229ee4d5e551a2fc3ff1ccbc66638579360001b610230565b6102b97fde96ad36e34732134796fc3f7b4d16ba44235f10d9036ba4c31819c08185d84d60001b610230565b600060018111156102c657fe5b856000015160018111156102d657fe5b146102f9576102f46000548660600151610aeb90919063ffffffff16565b610313565b6103126000548660600151610de390919063ffffffff16565b5b9050949350505050565b6103497f2c02228ec818b966009b7935bef22c075ab327155ff79c14cb8cbe0676a56a2a60001b610230565b6103757fbb23c6ce1f4c27f23bedef799c8c64d11b41bbc72a2a059b6a9216a87e79a72160001b610230565b6103a17fc498d2d79d3b158487d745cd47005ef70aec62bed49e371bd92a269dc1a19a6760001b610230565b7f000000000000000000000000000000000000000000000000000000000000000073ffffffffffffffffffffffffffffffffffffffff166366a9c7d27f000000000000000000000000000000000000000000000000000000000000000084846040518463ffffffff1660e01b815260040161041e939291906119ea565b600060405180830381600087803b15801561043857600080fd5b505af115801561044c573d6000803e3d6000fd5b505050505050565b60006104827fcd5365766c194f5364ac392cbd7fdd7370a3cdbaefe901feeaa95655d8a8aae560001b610230565b6104ae7fe255478797f1d1e230dd6d8cdce3da6e98cc335789b2bb87bd38ae3c64f67a0c60001b610230565b6104da7f17ce4cebdf1b3c7cafd9e02cefa737f2f8fb18db3e2794514077690024aaa11260001b610230565b7f0000000000000000000000000000000000000000000000000000000000000000905090565b61052c7f72eefb14f2dccfe4bc5eff04afe77424c1b423a3aca109756b788e85d571369160001b610230565b6105587f14abcbd2366b6767bd71428646146ffff4b55d9f2ec845f34475f83158013bd360001b610230565b6105847fff370f29e417e4843d98cf5c248631b72c869eb343be895d8de00143876e70e860001b610230565b7f000000000000000000000000000000000000000000000000000000000000000073ffffffffffffffffffffffffffffffffffffffff16637d3aeb967f0000000000000000000000000000000000000000000000000000000000000000836040518363ffffffff1660e01b81526004016105ff9291906119ba565b600060405180830381600087803b15801561061957600080fd5b505af115801561062d573d6000803e3d6000fd5b5050505050565b6106607fc23fcb816376fdecebbe0ad179ec34e02ca0496e8f662c76515b23de84a21ed160001b610230565b61068c7f4badded74b24ea1fb9c76178aea50fdb93e1e7f4f01a9b384c74e5cd639a7b2260001b610230565b6106b87f8f525bebdce964603dd9fa37746c53ffa6e35458ff1ee26c1428996c11b260f760001b610230565b8060008190555050565b6060806106f17f47d33bbcf2edfaabeb5ba8ed72ad87e5f3b4fc0c134ca8885ca4f4ce687f1f3c60001b610230565b61071d7f615e0295bcb75ab86b82e21d652c2ea3d0573cf0ef65be3829ef578d519bb81560001b610230565b6107497f45a316500e1a37e524b64463530c4982de8d82c1052829d86363c580462439b360001b610230565b7fd757d12f44d8d0b749520380aa9c4b9f37a744d90e601bd174de67345108f6c989898989898989604051610784979695949392919061193d565b60405180910390a16107b87f47ab10b3681ec161088554b83a1fb262b5f68f114eb4758424bf2eed9ca91ec160001b610230565b6107e47f6d9ced09f271be7936853dcf7d29d54abd9cba38502e0bf66d02753b8ce3cc6a60001b610230565b828060200190518101906107f89190611461565b809250819350505097509795505050505050565b600061083a7fa856e0221d1fc74e3249421501c73c65bc5eeca1d3121f88b112d506a0747c5260001b610230565b6108667f6680553a6357244cac5c6aae545c1a0093d5eafde3337f63f6d810db05cf422a60001b610230565b6108927f9a6c5aa773d669384064ba41fa22480e6ee960d425c580403c004024355ce4b260001b610230565b7f0000000000000000000000000000000000000000000000000000000000000000905090565b60006108e67f6649e9c5f2669e9b4a37b268287e174745cc6c5d8a57d2d46149fe03a293e2b260001b610230565b6109127f99d0409d7ddd207180dca93f69c80a36f4586d45d2ccb72e9b0b24a4c258bced60001b610230565b61093e7f25a249257f0ebffe52cbaf54af8fdd042fccd766ccf2efed092c5a8dcd929b0960001b610230565b6000600181111561094b57fe5b8460000151600181111561095b57fe5b1461097e576109796000548560600151610aeb90919063ffffffff16565b610998565b6109976000548560600151610de390919063ffffffff16565b5b90509392505050565b6060806109d07fffe9f2409ebd8bb44cc4d9a62fd397f61287741ef39db18c2143032cc6568a8660001b610230565b6109fc7f62951302604b122e1322bdc2974b7da94b1d72f7680c69bfd2d6ab112954d26160001b610230565b610a287fbbad38d68e4f23c28b03955d064c3d73f03db14a92416d7c4a400b09605b0f8e60001b610230565b7f7db7a909c113f809a4d01bf05f9f750c273333b7db84675206d198d49771469489898989898989604051610a63979695949392919061193d565b60405180910390a1610a977fc124df5df3bdcad02f3a126af1224e9ed0bba763711450e2f9159d1e37e326a160001b610230565b610ac37f4595eb865da5221ab89c710a50235dd93b86556bcf4a55a5a77851231c996fdc60001b610230565b82806020019051810190610ad79190611461565b809250819350505097509795505050505050565b6000610b197fd681117b54f8c42dd9b9b724675b90500142f91e0c692c88cd29f6a4ac20d90260001b610f5c565b610b457f166d54a6dcc2da1700c278643acbbe8ec7be0a002e0be3664514a05bff76410660001b610f5c565b610b717fbe546f1bb4a2252f3c69d522122f5305aead99456e33c2514e382512cbd275ad60001b610f5c565b610b8060008314156004610f5f565b610bac7f66baa7ca3e26778872311ae2b37bf38dfa377789cb684f64abda0507ede6155760001b610f5c565b610bd87f9bbcc745d05068633f50f2da4aa7785c4882dcfa9bcf9c1c303a65580176ef3f60001b610f5c565b6000831415610c6e57610c0d7fc3eab5df153e3b105e157cfa055bfa8e0845e90270ff3255e7446c30deb579d360001b610f5c565b610c397fdbc3d990e3f3bab6fa2a0d2d047661dde07c4ef25a24501839feae50185866ff60001b610f5c565b610c657f4dfe5096d5d7b39d55b09ffb0f574f2071999b6d3e264f41d19472f6f6dff6a460001b610f5c565b60009050610ddd565b610c9a7fb6dfe2886846608d4ab290feca7c5ec6ae2852dfbc3707d276ab66657c42cd0160001b610f5c565b610cc67fbd6d291981cc28a3445540f278cec30943e7da252b1f546a4206e2297370b83860001b610f5c565b610cf27ff68e1a1503b4afdf9fbf5a22748d3463567f3562a99e1fe0c70f16aa0941e7ae60001b610f5c565b6000670de0b6b3a764000084029050610d2d7fa9252a08ad1a46a72a3ef9d1afb829941f22d18012268e7192e1b3ffb5eba14960001b610f5c565b610d597fcb9cc8cc61006212eb8ed6f13e3a563d524b873c3a01f66af4887945460f4c1460001b610f5c565b610d77670de0b6b3a7640000858381610d6e57fe5b04146005610f5f565b610da37f2f1f45017adad415bec4ac763f6f16672ad5b44eeea98c3ac69d9a7e7ffe543c60001b610f5c565b610dcf7f512b328f221d3319110052907ee75993170f783e77190fc89cfaa6bdfa4cb69260001b610f5c565b828181610dd857fe5b049150505b92915050565b6000610e117fed5730d97338cc99ec7ced602749e69fad452b233ce5af1bbc10319879372caa60001b610f5c565b610e3d7f8f6916668b49b644d98f771f124b5a32bd9897d7ebe53b3c38ade6a71e84085760001b610f5c565b610e697fe14f128dd52a43628a9bba7b0a6f33bfc1a4220802b917ba737266f9dcbfa49c60001b610f5c565b60008284029050610e9c7f46dbb44b8cf04ee6e61d614d79ce70c1a85cc911b0197fa4ddce642a38fa5fc460001b610f5c565b610ec87feefba6c3b698f9572b5bf37de3ea9769c52c377600e5b34f929c993e75aa62d460001b610f5c565b610ee96000851480610ee2575083858381610edf57fe5b04145b6003610f5f565b610f157f38f54c5617f008a16f1f038a9a8bdf61cc1319b326250c056a5f9064eacdca5460001b610f5c565b610f417f7a48fe0d9a13c1bc8e2332965b60872b1e28e7883785e9895a3ba40dfcccd1c360001b610f5c565b670de0b6b3a76400008181610f5257fe5b0491505092915050565b50565b81610f6e57610f6d81610f72565b5b5050565b6030600a820601600a820491506030600a830601600a830492506030600a8406018060101b8260081b8401016642414c230000000160c81b7f08c379a000000000000000000000000000000000000000000000000000000000600052602060045260076024528060445260646000fd5b600081359050610ff181611cdf565b92915050565b600082601f83011261100857600080fd5b813561101b61101682611a92565b611a65565b9150818183526020840193506020810190508385602084028201111561104057600080fd5b60005b8381101561107057816110568882610fe2565b845260208401935060208301925050600181019050611043565b5050505092915050565b600082601f83011261108b57600080fd5b813561109e61109982611aba565b611a65565b915081818352602084019350602081019050838560208402820111156110c357600080fd5b60005b838110156110f357816110d9888261126c565b8452602084019350602083019250506001810190506110c6565b5050505092915050565b600082601f83011261110e57600080fd5b813561112161111c82611ae2565b611a65565b9150818183526020840193506020810190508385602084028201111561114657600080fd5b60005b83811015611176578161115c888261138a565b845260208401935060208301925050600181019050611149565b5050505092915050565b600082601f83011261119157600080fd5b81516111a461119f82611ae2565b611a65565b915081818352602084019350602081019050838560208402820111156111c957600080fd5b60005b838110156111f957816111df888261139f565b8452602084019350602083019250506001810190506111cc565b5050505092915050565b60008135905061121281611cf6565b92915050565b600082601f83011261122957600080fd5b813561123c61123782611b0a565b611a65565b9150808252602083016020830185838301111561125857600080fd5b611263838284611c8c565b50505092915050565b60008135905061127b81611d0d565b92915050565b60008135905061129081611d24565b92915050565b600061012082840312156112a957600080fd5b6112b4610120611a65565b905060006112c484828501611281565b60008301525060206112d88482850161126c565b60208301525060406112ec8482850161126c565b60408301525060606113008482850161138a565b606083015250608061131484828501611203565b60808301525060a06113288482850161138a565b60a08301525060c061133c84828501610fe2565b60c08301525060e061135084828501610fe2565b60e08301525061010082013567ffffffffffffffff81111561137157600080fd5b61137d84828501611218565b6101008301525092915050565b60008135905061139981611d34565b92915050565b6000815190506113ae81611d34565b92915050565b6000602082840312156113c657600080fd5b600082013567ffffffffffffffff8111156113e057600080fd5b6113ec8482850161107a565b91505092915050565b6000806040838503121561140857600080fd5b600083013567ffffffffffffffff81111561142257600080fd5b61142e8582860161107a565b925050602083013567ffffffffffffffff81111561144b57600080fd5b61145785828601610ff7565b9150509250929050565b6000806040838503121561147457600080fd5b600083015167ffffffffffffffff81111561148e57600080fd5b61149a85828601611180565b925050602083015167ffffffffffffffff8111156114b757600080fd5b6114c385828601611180565b9150509250929050565b6000602082840312156114df57600080fd5b60006114ed84828501611203565b91505092915050565b600080600080600080600060e0888a03121561151157600080fd5b600061151f8a828b01611203565b97505060206115308a828b01610fe2565b96505060406115418a828b01610fe2565b955050606088013567ffffffffffffffff81111561155e57600080fd5b61156a8a828b016110fd565b945050608061157b8a828b0161138a565b93505060a061158c8a828b0161138a565b92505060c088013567ffffffffffffffff8111156115a957600080fd5b6115b58a828b01611218565b91505092959891949750929550565b600080600080608085870312156115da57600080fd5b600085013567ffffffffffffffff8111156115f457600080fd5b61160087828801611296565b945050602085013567ffffffffffffffff81111561161d57600080fd5b611629878288016110fd565b935050604061163a8782880161138a565b925050606061164b8782880161138a565b91505092959194509250565b60008060006060848603121561166c57600080fd5b600084013567ffffffffffffffff81111561168657600080fd5b61169286828701611296565b93505060206116a38682870161138a565b92505060406116b48682870161138a565b9150509250925092565b6000602082840312156116d057600080fd5b60006116de8482850161138a565b91505092915050565b60006116f3838361172f565b60208301905092915050565b600061170b83836118af565b60208301905092915050565b600061172383836118cd565b60208301905092915050565b61173881611bec565b82525050565b61174781611bec565b82525050565b600061175882611b66565b6117628185611bb9565b935061176d83611b36565b8060005b8381101561179e57815161178588826116e7565b975061179083611b92565b925050600181019050611771565b5085935050505092915050565b60006117b682611b71565b6117c08185611bb9565b93506117cb83611b46565b8060005b838110156117fc5781516117e388826116ff565b97506117ee83611b9f565b9250506001810190506117cf565b5085935050505092915050565b600061181482611b7c565b61181e8185611bca565b935061182983611b56565b8060005b8381101561185a5781516118418882611717565b975061184c83611bac565b92505060018101905061182d565b5085935050505092915050565b61187081611bfe565b82525050565b600061188182611b87565b61188b8185611bdb565b935061189b818560208601611c9b565b6118a481611cce565b840191505092915050565b6118b881611c44565b82525050565b6118c781611c68565b82525050565b6118d681611c3a565b82525050565b6118e581611c3a565b82525050565b600060408201905081810360008301526119058185611809565b905081810360208301526119198184611809565b90509392505050565b60006020820190506119376000830184611867565b92915050565b600060e082019050611952600083018a611867565b61195f602083018961173e565b61196c604083018861173e565b818103606083015261197e8187611809565b905061198d60808301866118dc565b61199a60a08301856118dc565b81810360c08301526119ac8184611876565b905098975050505050505050565b60006040820190506119cf6000830185611867565b81810360208301526119e181846117ab565b90509392505050565b60006060820190506119ff6000830186611867565b8181036020830152611a1181856117ab565b90508181036040830152611a25818461174d565b9050949350505050565b6000602082019050611a4460008301846118be565b92915050565b6000602082019050611a5f60008301846118dc565b92915050565b6000604051905081810181811067ffffffffffffffff82111715611a8857600080fd5b8060405250919050565b600067ffffffffffffffff821115611aa957600080fd5b602082029050602081019050919050565b600067ffffffffffffffff821115611ad157600080fd5b602082029050602081019050919050565b600067ffffffffffffffff821115611af957600080fd5b602082029050602081019050919050565b600067ffffffffffffffff821115611b2157600080fd5b601f19601f8301169050602081019050919050565b6000819050602082019050919050565b6000819050602082019050919050565b6000819050602082019050919050565b600081519050919050565b600081519050919050565b600081519050919050565b600081519050919050565b6000602082019050919050565b6000602082019050919050565b6000602082019050919050565b600082825260208201905092915050565b600082825260208201905092915050565b600082825260208201905092915050565b6000611bf782611c1a565b9050919050565b6000819050919050565b6000611c1382611bec565b9050919050565b600073ffffffffffffffffffffffffffffffffffffffff82169050919050565b6000819050919050565b6000611c4f82611c56565b9050919050565b6000611c6182611c1a565b9050919050565b6000611c7382611c7a565b9050919050565b6000611c8582611c1a565b9050919050565b82818337600083830152505050565b60005b83811015611cb9578082015181840152602081019050611c9e565b83811115611cc8576000848401525b50505050565b6000601f19601f8301169050919050565b611ce881611bec565b8114611cf357600080fd5b50565b611cff81611bfe565b8114611d0a57600080fd5b50565b611d1681611c08565b8114611d2157600080fd5b50565b60028110611d3157600080fd5b50565b611d3d81611c3a565b8114611d4857600080fd5b5056fea26469706673582212204a559cdd2d0127eb0a961bbe118a3971870a5aca344c0993b090a1b20000897e64736f6c63430007010033",
  "linkReferences": {},
  "deployedLinkReferences": {}
}