{
  "_format": "hh-sol-artifact-1",
  "contractName": "MockPool",
  "sourceName": "contracts/balancer-core-v2/test/MockPool.sol",
  "abi": [
    {
      "inputs": [
        {
          "internalType": "contract IVault",
          "name": "vault",
          "type": "address"
        },
        {
          "internalType": "enum IVault.PoolSpecialization",
          "name": "specialization",
          "type": "uint8"
        }
      ],
      "stateMutability": "nonpayable",
      "type": "constructor"
    },
    {
      "anonymous": false,
      "inputs": [
        {
          "indexed": false,
          "internalType": "bytes32",
          "name": "poolId",
          "type": "bytes32"
        },
        {
          "indexed": false,
          "internalType": "address",
          "name": "sender",
          "type": "address"
        },
        {
          "indexed": false,
          "internalType": "address",
          "name": "recipient",
          "type": "address"
        },
        {
          "indexed": false,
          "internalType": "uint256[]",
          "name": "currentBalances",
          "type": "uint256[]"
        },
        {
          "indexed": false,
          "internalType": "uint256",
          "name": "lastChangeBlock",
          "type": "uint256"
        },
        {
          "indexed": false,
          "internalType": "uint256",
          "name": "protocolSwapFeePercentage",
          "type": "uint256"
        },
        {
          "indexed": false,
          "internalType": "bytes",
          "name": "userData",
          "type": "bytes"
        }
      ],
      "name": "OnExitPoolCalled",
      "type": "event"
    },
    {
      "anonymous": false,
      "inputs": [
        {
          "indexed": false,
          "internalType": "bytes32",
          "name": "poolId",
          "type": "bytes32"
        },
        {
          "indexed": false,
          "internalType": "address",
          "name": "sender",
          "type": "address"
        },
        {
          "indexed": false,
          "internalType": "address",
          "name": "recipient",
          "type": "address"
        },
        {
          "indexed": false,
          "internalType": "uint256[]",
          "name": "currentBalances",
          "type": "uint256[]"
        },
        {
          "indexed": false,
          "internalType": "uint256",
          "name": "lastChangeBlock",
          "type": "uint256"
        },
        {
          "indexed": false,
          "internalType": "uint256",
          "name": "protocolSwapFeePercentage",
          "type": "uint256"
        },
        {
          "indexed": false,
          "internalType": "bytes",
          "name": "userData",
          "type": "bytes"
        }
      ],
      "name": "OnJoinPoolCalled",
      "type": "event"
    },
    {
      "inputs": [
        {
          "internalType": "bytes32",
          "name": "c__0xe9715870",
          "type": "bytes32"
        }
      ],
      "name": "c_0xe9715870",
      "outputs": [],
      "stateMutability": "pure",
      "type": "function"
    },
    {
      "inputs": [
        {
          "internalType": "contract IERC20[]",
          "name": "tokens",
          "type": "address[]"
        }
      ],
      "name": "deregisterTokens",
      "outputs": [],
      "stateMutability": "nonpayable",
      "type": "function"
    },
    {
      "inputs": [],
      "name": "getPoolId",
      "outputs": [
        {
          "internalType": "bytes32",
          "name": "",
          "type": "bytes32"
        }
      ],
      "stateMutability": "view",
      "type": "function"
    },
    {
      "inputs": [],
      "name": "getVault",
      "outputs": [
        {
          "internalType": "contract IVault",
          "name": "",
          "type": "address"
        }
      ],
      "stateMutability": "view",
      "type": "function"
    },
    {
      "inputs": [
        {
          "internalType": "bytes32",
          "name": "poolId",
          "type": "bytes32"
        },
        {
          "internalType": "address",
          "name": "sender",
          "type": "address"
        },
        {
          "internalType": "address",
          "name": "recipient",
          "type": "address"
        },
        {
          "internalType": "uint256[]",
          "name": "currentBalances",
          "type": "uint256[]"
        },
        {
          "internalType": "uint256",
          "name": "lastChangeBlock",
          "type": "uint256"
        },
        {
          "internalType": "uint256",
          "name": "protocolSwapFeePercentage",
          "type": "uint256"
        },
        {
          "internalType": "bytes",
          "name": "userData",
          "type": "bytes"
        }
      ],
      "name": "onExitPool",
      "outputs": [
        {
          "internalType": "uint256[]",
          "name": "amountsOut",
          "type": "uint256[]"
        },
        {
          "internalType": "uint256[]",
          "name": "dueProtocolFeeAmounts",
          "type": "uint256[]"
        }
      ],
      "stateMutability": "nonpayable",
      "type": "function"
    },
    {
      "inputs": [
        {
          "internalType": "bytes32",
          "name": "poolId",
          "type": "bytes32"
        },
        {
          "internalType": "address",
          "name": "sender",
          "type": "address"
        },
        {
          "internalType": "address",
          "name": "recipient",
          "type": "address"
        },
        {
          "internalType": "uint256[]",
          "name": "currentBalances",
          "type": "uint256[]"
        },
        {
          "internalType": "uint256",
          "name": "lastChangeBlock",
          "type": "uint256"
        },
        {
          "internalType": "uint256",
          "name": "protocolSwapFeePercentage",
          "type": "uint256"
        },
        {
          "internalType": "bytes",
          "name": "userData",
          "type": "bytes"
        }
      ],
      "name": "onJoinPool",
      "outputs": [
        {
          "internalType": "uint256[]",
          "name": "amountsIn",
          "type": "uint256[]"
        },
        {
          "internalType": "uint256[]",
          "name": "dueProtocolFeeAmounts",
          "type": "uint256[]"
        }
      ],
      "stateMutability": "nonpayable",
      "type": "function"
    },
    {
      "inputs": [
        {
          "components": [
            {
              "internalType": "enum IVault.SwapKind",
              "name": "kind",
              "type": "uint8"
            },
            {
              "internalType": "contract IERC20",
              "name": "tokenIn",
              "type": "address"
            },
            {
              "internalType": "contract IERC20",
              "name": "tokenOut",
              "type": "address"
            },
            {
              "internalType": "uint256",
              "name": "amount",
              "type": "uint256"
            },
            {
              "internalType": "bytes32",
              "name": "poolId",
              "type": "bytes32"
            },
            {
              "internalType": "uint256",
              "name": "lastChangeBlock",
              "type": "uint256"
            },
            {
              "internalType": "address",
              "name": "from",
              "type": "address"
            },
            {
              "internalType": "address",
              "name": "to",
              "type": "address"
            },
            {
              "internalType": "bytes",
              "name": "userData",
              "type": "bytes"
            }
          ],
          "internalType": "struct IPoolSwapStructs.SwapRequest",
          "name": "swapRequest",
          "type": "tuple"
        },
        {
          "internalType": "uint256[]",
          "name": "",
          "type": "uint256[]"
        },
        {
          "internalType": "uint256",
          "name": "",
          "type": "uint256"
        },
        {
          "internalType": "uint256",
          "name": "",
          "type": "uint256"
        }
      ],
      "name": "onSwap",
      "outputs": [
        {
          "internalType": "uint256",
          "name": "amount",
          "type": "uint256"
        }
      ],
      "stateMutability": "view",
      "type": "function"
    },
    {
      "inputs": [
        {
          "components": [
            {
              "internalType": "enum IVault.SwapKind",
              "name": "kind",
              "type": "uint8"
            },
            {
              "internalType": "contract IERC20",
              "name": "tokenIn",
              "type": "address"
            },
            {
              "internalType": "contract IERC20",
              "name": "tokenOut",
              "type": "address"
            },
            {
              "internalType": "uint256",
              "name": "amount",
              "type": "uint256"
            },
            {
              "internalType": "bytes32",
              "name": "poolId",
              "type": "bytes32"
            },
            {
              "internalType": "uint256",
              "name": "lastChangeBlock",
              "type": "uint256"
            },
            {
              "internalType": "address",
              "name": "from",
              "type": "address"
            },
            {
              "internalType": "address",
              "name": "to",
              "type": "address"
            },
            {
              "internalType": "bytes",
              "name": "userData",
              "type": "bytes"
            }
          ],
          "internalType": "struct IPoolSwapStructs.SwapRequest",
          "name": "swapRequest",
          "type": "tuple"
        },
        {
          "internalType": "uint256",
          "name": "",
          "type": "uint256"
        },
        {
          "internalType": "uint256",
          "name": "",
          "type": "uint256"
        }
      ],
      "name": "onSwap",
      "outputs": [
        {
          "internalType": "uint256",
          "name": "",
          "type": "uint256"
        }
      ],
      "stateMutability": "view",
      "type": "function"
    },
    {
      "inputs": [
        {
          "internalType": "contract IERC20[]",
          "name": "tokens",
          "type": "address[]"
        },
        {
          "internalType": "address[]",
          "name": "assetManagers",
          "type": "address[]"
        }
      ],
      "name": "registerTokens",
      "outputs": [],
      "stateMutability": "nonpayable",
      "type": "function"
    },
    {
      "inputs": [
        {
          "internalType": "uint256",
          "name": "newMultiplier",
          "type": "uint256"
        }
      ],
      "name": "setMultiplier",
      "outputs": [],
      "stateMutability": "nonpayable",
      "type": "function"
    }
  ],
  "bytecode": "0x60c0604052670de0b6b3a76400006000553480156200001d57600080fd5b506040516200218c3803806200218c833981810160405281019062000043919062000292565b620000777f9cf63b0882e108dea739c27e8d6c36cc2ec1359cfc0c71f514a31c8582c15e1860001b6200021e60201b60201c565b620000ab7f993eb25bee0fbc78151c415807cd28d68aa6a74232c87cbc9198e117ccdea0e260001b6200021e60201b60201c565b620000df7f013058453363e6d4f05d90171225c358f7ab32083707d7623db4c1eac47b7f6560001b6200021e60201b60201c565b8173ffffffffffffffffffffffffffffffffffffffff166309b2760f826040518263ffffffff1660e01b81526004016200011a9190620002e4565b602060405180830381600087803b1580156200013557600080fd5b505af11580156200014a573d6000803e3d6000fd5b505050506040513d601f19601f8201168201806040525081019062000170919062000266565b60a08181525050620001ab7f7cc9fa585d9541f1dab7ee99616b051599d5f302aeb9ef281eafeb683a902a8160001b6200021e60201b60201c565b620001df7fea96f207071e048f75db64e4784baaa65bd7c42bd4442d17ca7baf71e959b95660001b6200021e60201b60201c565b8173ffffffffffffffffffffffffffffffffffffffff1660808173ffffffffffffffffffffffffffffffffffffffff1660601b815250505050620003cf565b50565b60008151905062000232816200038a565b92915050565b6000815190506200024981620003a4565b92915050565b6000815190506200026081620003be565b92915050565b6000602082840312156200027957600080fd5b6000620002898482850162000221565b91505092915050565b60008060408385031215620002a657600080fd5b6000620002b68582860162000238565b9250506020620002c9858286016200024f565b9150509250929050565b620002de8162000368565b82525050565b6000602082019050620002fb6000830184620002d3565b92915050565b60006200030e8262000348565b9050919050565b6000819050919050565b60006200032c8262000301565b9050919050565b600081905062000343826200037c565b919050565b600073ffffffffffffffffffffffffffffffffffffffff82169050919050565b6000620003758262000333565b9050919050565b600381106200038757fe5b50565b620003958162000315565b8114620003a157600080fd5b50565b620003af816200031f565b8114620003bb57600080fd5b50565b60038110620003cc57600080fd5b50565b60805160601c60a051611d826200040a600039806103e052806104dd52806105c35250806103a4528061058752806108955250611d826000f3fe608060405234801561001057600080fd5b50600436106100be5760003560e01c8063641579a6116100765780638d928af81161005b5780638d928af8146101b25780639d2c110c146101d0578063d5c096c414610200576100be565b8063641579a61461016557806374f3b00914610181576100be565b8063267dc1f0116100a7578063267dc1f01461010f57806338fff2d01461012b5780635f2b65f814610149576100be565b806301ec954a146100c357806311510e27146100f3575b600080fd5b6100dd60048036038101906100d891906115c5565b610231565b6040516100ea9190611a4b565b60405180910390f35b61010d600480360381019061010891906114ce565b61031b565b005b610129600480360381019061012491906113f6565b61031e565b005b610133610455565b6040516101409190611923565b60405180910390f35b610163600480360381019061015e91906113b5565b610501565b005b61017f600480360381019061017a91906116bf565b610635565b005b61019b600480360381019061019691906114f7565b6106c3565b6040516101a99291906118ec565b60405180910390f35b6101ba61080d565b6040516101c79190611a30565b60405180910390f35b6101ea60048036038101906101e59190611658565b6108b9565b6040516101f79190611a4b565b60405180910390f35b61021a600480360381019061021591906114f7565b6109a2565b6040516102289291906118ec565b60405180910390f35b600061025f7f9e6f7be6c921c6f21526884af8daffecb819763b556d2b4c35ec7e0a70a4dc6160001b61031b565b61028b7ffd1aa7c3ab4446e77c20a5605778fc6ca71b14624359b503000d466447a0033e60001b61031b565b6102b77f0f5a44851148ab6aeb239710ec70e9b5be7b2608323f6ff7e90d357e47f5ba5860001b61031b565b600060018111156102c457fe5b856000015160018111156102d457fe5b146102f7576102f26000548660600151610aec90919063ffffffff16565b610311565b6103106000548660600151610de490919063ffffffff16565b5b9050949350505050565b50565b61034a7ff35e72ac929716b41dfba58820337bddbba62985a16675acd09a2d41df82d9a960001b61031b565b6103767fa95197a6e4d722dbb0bbb191195a482d24a9a0445da765f119421ddc6da0f7cb60001b61031b565b6103a27fd4eae7a2cc14495dbd2518c359966c98501c7312c988c924ab0c81131de675b160001b61031b565b7f000000000000000000000000000000000000000000000000000000000000000073ffffffffffffffffffffffffffffffffffffffff166366a9c7d27f000000000000000000000000000000000000000000000000000000000000000084846040518463ffffffff1660e01b815260040161041f939291906119eb565b600060405180830381600087803b15801561043957600080fd5b505af115801561044d573d6000803e3d6000fd5b505050505050565b60006104837f09745e30871c1c4bfc36a81a48fd5fff09c9c25c09a31497e5c5e54a9514a5c360001b61031b565b6104af7f8da695b5b71775c7d563765dd33499e286c9252cdf93f23b1b48bc96417dbac360001b61031b565b6104db7fb9784650c47ec6bfbdbf01a91de4cf062ef24ed5222d1751d54289446cf9dd6060001b61031b565b7f0000000000000000000000000000000000000000000000000000000000000000905090565b61052d7f4c6303e73082770c8e40f155cb7ba1af4884c68657d16dcbb75805122a18596560001b61031b565b6105597fb3a3c0cb19649b7506e04365b5d84ed91dbde1a3079bc1e4228257b0013e4eaa60001b61031b565b6105857fdc9a7ca0efb2b5cb7fb43943aafead321e791eb30b734f30427061942aa9c2ee60001b61031b565b7f000000000000000000000000000000000000000000000000000000000000000073ffffffffffffffffffffffffffffffffffffffff16637d3aeb967f0000000000000000000000000000000000000000000000000000000000000000836040518363ffffffff1660e01b81526004016106009291906119bb565b600060405180830381600087803b15801561061a57600080fd5b505af115801561062e573d6000803e3d6000fd5b5050505050565b6106617ff79ff102160ee0d921917ca24b125489b3f93762ad200fd30764e48f8f3f174960001b61031b565b61068d7fd2088e878930e50d6afc806eb9604e220f403167e12b5def5d69fd20da430cdc60001b61031b565b6106b97fd2ba4eb52f52352ee05ff254cda1470ea5543506f69854974802a256427a303560001b61031b565b8060008190555050565b6060806106f27f8ea1bc49785fca6ed8b6988f74d131c570053882d0a11a7079228d7d1eab55d460001b61031b565b61071e7f01737a20720a6da1d5c2b96695bb5565e358be601aaf66c24c9f3f94e88f34df60001b61031b565b61074a7fe44890e714bc19ba8746be10a96b48ab6dcc4b2073118d63b5b531db766c2b3460001b61031b565b7fd757d12f44d8d0b749520380aa9c4b9f37a744d90e601bd174de67345108f6c989898989898989604051610785979695949392919061193e565b60405180910390a16107b97f429e32698b9656f23bb7baa388615c7fd59fb0930272b2ecb1da74e4169d0dbb60001b61031b565b6107e57fc38bedfaa646d297c5c37984d75568f9f6d3aa0523eb15893a6d8c0a4190edb460001b61031b565b828060200190518101906107f99190611462565b809250819350505097509795505050505050565b600061083b7fd7e4a780157c177279e440f0ba48ea91513ff2e27b11036795257d247ee4564460001b61031b565b6108677faabab8e6e34699a6037c98a8536a0f331bd1932522f7a9af37fdb6877285213e60001b61031b565b6108937f72bae4d351f209b536eb4f8bab1f5d11f62f091aaa914f5b07fccfb5820c9c7f60001b61031b565b7f0000000000000000000000000000000000000000000000000000000000000000905090565b60006108e77fe87f3d450d2b0e2162e1131f64c6a78e0e243788e986d593dbbb14bcd5914e8a60001b61031b565b6109137fb016efdc39d642f80c0d3bfd3691a9097013e9127759177d5258ea37c87f7ff860001b61031b565b61093f7fcfc3fb9bd2ef8b3c8f611ba2f2c8fa7c015d3aa6ccb2e61c528b221ca594eab260001b61031b565b6000600181111561094c57fe5b8460000151600181111561095c57fe5b1461097f5761097a6000548560600151610aec90919063ffffffff16565b610999565b6109986000548560600151610de490919063ffffffff16565b5b90509392505050565b6060806109d17f61ec07792ceef42f6b2d1ba237fdc0d409ca5ddc47ad7f4738741130d7f4151160001b61031b565b6109fd7fbd4a4798e799727dbfa48a02ec359ff575d1a2f629216947c6e04cb17377bc7a60001b61031b565b610a297fbcc15a9f098151fe5cf088d7915494497fab49e7ac8fa04c4e4fa9afbe6f584d60001b61031b565b7f7db7a909c113f809a4d01bf05f9f750c273333b7db84675206d198d49771469489898989898989604051610a64979695949392919061193e565b60405180910390a1610a987f7feb1bc4b558083183687d6bd29e7ccb2d6a2f1fdbbe743ad6e07fd9fca7dbde60001b61031b565b610ac47f7ff953a7b3d88fce63fe579c40cfffcd0a932266fc7c65cc2d75e232eccd1dd760001b61031b565b82806020019051810190610ad89190611462565b809250819350505097509795505050505050565b6000610b1a7f5ceb85d70358b3bacd1534074d8476b9815c3aa6da57ff5c4db717cf1398c6b160001b610f5d565b610b467f6b45de0869fc60f8014f7da0542a0a317c895d5992a32999446b847b215ea03b60001b610f5d565b610b727f1c80b8e8d78eb73111835007cd5fbce062271945d8ad91c9713a0f5eaea6e75c60001b610f5d565b610b8160008314156004610f60565b610bad7f7dd4f066fd0af9999cf3a3dec7ae7a7af556b87168e1bfb8765875d731bc80f860001b610f5d565b610bd97f65201be675c5a31abb3b30b2863f4e84354bbabb212738434818b331218fec8060001b610f5d565b6000831415610c6f57610c0e7f04f31c69f813356d0a5ac0c9edb65d06a495176d64b8586c7cafb96d6996746f60001b610f5d565b610c3a7fbfbf0353e226ff48ba457fb68f235ebcc9f63baa19022a9039cf1c0942ae0fc760001b610f5d565b610c667f1609c5c09908c1eb992d9ff1e81fdb2a249516c2470fdff827e65b26dbe7e28560001b610f5d565b60009050610dde565b610c9b7f2be483056be80cb935b63b4745911d2532199c222ec22fe0f78a15bbb8fed09e60001b610f5d565b610cc77f0270b25143b29a9c983a0408af759a0e9e2893ffb29d7c5caf214b0d971bf96760001b610f5d565b610cf37fea10c1255e0cdcf9ab2098c493934ce8f4b8547a6b179a287f637c1f536ba66f60001b610f5d565b6000670de0b6b3a764000084029050610d2e7f0a6ae6c6038ccda5c0051980bad43ccf17d35f1670e80ae05de0d907db4c1e4660001b610f5d565b610d5a7ff192757c260626d3b1e4687cdff30fc5f9d5ad2bb5f508d95f5b59423a52625760001b610f5d565b610d78670de0b6b3a7640000858381610d6f57fe5b04146005610f60565b610da47f1d11f25c6c63a8fb3ebc8bdbf2a3555840e10ffda34811fbbb33bc33243b3dad60001b610f5d565b610dd07f5df7b8b2cad4c987f6ba11bd0e6b7c0d29619157bb4a75d59fb0a2547633762060001b610f5d565b828181610dd957fe5b049150505b92915050565b6000610e127f6a56e6b9382441f5a45bc35a43826c64209849d281de5ea652d97114d3fdd00060001b610f5d565b610e3e7f832e186a9dec832c15d05f077f0a95bb8c8a30f33174b1b74cad094def38313a60001b610f5d565b610e6a7f1d7ac9a6923837cb729d2a9f327d6b28bb868258b6639379ad9b804ddbf149b960001b610f5d565b60008284029050610e9d7f20b7636ac61a045be0786996288e3e2b0851467b3df87ea384032be131612f7460001b610f5d565b610ec97fec8cc3cb5297dbadb0d69bb41ea6b39978fd82ee0c9e2ddcb3663f06f85f6e5a60001b610f5d565b610eea6000851480610ee3575083858381610ee057fe5b04145b6003610f60565b610f167feef689e5d622a32553062ffc4fe64fcc96483927ecea9c38947b4717464b23ee60001b610f5d565b610f427ff2d9867efb05a2da69e9efe9a0d629e11b17960b86d7f70af9b6266d6479596060001b610f5d565b670de0b6b3a76400008181610f5357fe5b0491505092915050565b50565b81610f6f57610f6e81610f73565b5b5050565b6030600a820601600a820491506030600a830601600a830492506030600a8406018060101b8260081b8401016642414c230000000160c81b7f08c379a000000000000000000000000000000000000000000000000000000000600052602060045260076024528060445260646000fd5b600081359050610ff281611ce0565b92915050565b600082601f83011261100957600080fd5b813561101c61101782611a93565b611a66565b9150818183526020840193506020810190508385602084028201111561104157600080fd5b60005b8381101561107157816110578882610fe3565b845260208401935060208301925050600181019050611044565b5050505092915050565b600082601f83011261108c57600080fd5b813561109f61109a82611abb565b611a66565b915081818352602084019350602081019050838560208402820111156110c457600080fd5b60005b838110156110f457816110da888261126d565b8452602084019350602083019250506001810190506110c7565b5050505092915050565b600082601f83011261110f57600080fd5b813561112261111d82611ae3565b611a66565b9150818183526020840193506020810190508385602084028201111561114757600080fd5b60005b83811015611177578161115d888261138b565b84526020840193506020830192505060018101905061114a565b5050505092915050565b600082601f83011261119257600080fd5b81516111a56111a082611ae3565b611a66565b915081818352602084019350602081019050838560208402820111156111ca57600080fd5b60005b838110156111fa57816111e088826113a0565b8452602084019350602083019250506001810190506111cd565b5050505092915050565b60008135905061121381611cf7565b92915050565b600082601f83011261122a57600080fd5b813561123d61123882611b0b565b611a66565b9150808252602083016020830185838301111561125957600080fd5b611264838284611c8d565b50505092915050565b60008135905061127c81611d0e565b92915050565b60008135905061129181611d25565b92915050565b600061012082840312156112aa57600080fd5b6112b5610120611a66565b905060006112c584828501611282565b60008301525060206112d98482850161126d565b60208301525060406112ed8482850161126d565b60408301525060606113018482850161138b565b606083015250608061131584828501611204565b60808301525060a06113298482850161138b565b60a08301525060c061133d84828501610fe3565b60c08301525060e061135184828501610fe3565b60e08301525061010082013567ffffffffffffffff81111561137257600080fd5b61137e84828501611219565b6101008301525092915050565b60008135905061139a81611d35565b92915050565b6000815190506113af81611d35565b92915050565b6000602082840312156113c757600080fd5b600082013567ffffffffffffffff8111156113e157600080fd5b6113ed8482850161107b565b91505092915050565b6000806040838503121561140957600080fd5b600083013567ffffffffffffffff81111561142357600080fd5b61142f8582860161107b565b925050602083013567ffffffffffffffff81111561144c57600080fd5b61145885828601610ff8565b9150509250929050565b6000806040838503121561147557600080fd5b600083015167ffffffffffffffff81111561148f57600080fd5b61149b85828601611181565b925050602083015167ffffffffffffffff8111156114b857600080fd5b6114c485828601611181565b9150509250929050565b6000602082840312156114e057600080fd5b60006114ee84828501611204565b91505092915050565b600080600080600080600060e0888a03121561151257600080fd5b60006115208a828b01611204565b97505060206115318a828b01610fe3565b96505060406115428a828b01610fe3565b955050606088013567ffffffffffffffff81111561155f57600080fd5b61156b8a828b016110fe565b945050608061157c8a828b0161138b565b93505060a061158d8a828b0161138b565b92505060c088013567ffffffffffffffff8111156115aa57600080fd5b6115b68a828b01611219565b91505092959891949750929550565b600080600080608085870312156115db57600080fd5b600085013567ffffffffffffffff8111156115f557600080fd5b61160187828801611297565b945050602085013567ffffffffffffffff81111561161e57600080fd5b61162a878288016110fe565b935050604061163b8782880161138b565b925050606061164c8782880161138b565b91505092959194509250565b60008060006060848603121561166d57600080fd5b600084013567ffffffffffffffff81111561168757600080fd5b61169386828701611297565b93505060206116a48682870161138b565b92505060406116b58682870161138b565b9150509250925092565b6000602082840312156116d157600080fd5b60006116df8482850161138b565b91505092915050565b60006116f48383611730565b60208301905092915050565b600061170c83836118b0565b60208301905092915050565b600061172483836118ce565b60208301905092915050565b61173981611bed565b82525050565b61174881611bed565b82525050565b600061175982611b67565b6117638185611bba565b935061176e83611b37565b8060005b8381101561179f57815161178688826116e8565b975061179183611b93565b925050600181019050611772565b5085935050505092915050565b60006117b782611b72565b6117c18185611bba565b93506117cc83611b47565b8060005b838110156117fd5781516117e48882611700565b97506117ef83611ba0565b9250506001810190506117d0565b5085935050505092915050565b600061181582611b7d565b61181f8185611bcb565b935061182a83611b57565b8060005b8381101561185b5781516118428882611718565b975061184d83611bad565b92505060018101905061182e565b5085935050505092915050565b61187181611bff565b82525050565b600061188282611b88565b61188c8185611bdc565b935061189c818560208601611c9c565b6118a581611ccf565b840191505092915050565b6118b981611c45565b82525050565b6118c881611c69565b82525050565b6118d781611c3b565b82525050565b6118e681611c3b565b82525050565b60006040820190508181036000830152611906818561180a565b9050818103602083015261191a818461180a565b90509392505050565b60006020820190506119386000830184611868565b92915050565b600060e082019050611953600083018a611868565b611960602083018961173f565b61196d604083018861173f565b818103606083015261197f818761180a565b905061198e60808301866118dd565b61199b60a08301856118dd565b81810360c08301526119ad8184611877565b905098975050505050505050565b60006040820190506119d06000830185611868565b81810360208301526119e281846117ac565b90509392505050565b6000606082019050611a006000830186611868565b8181036020830152611a1281856117ac565b90508181036040830152611a26818461174e565b9050949350505050565b6000602082019050611a4560008301846118bf565b92915050565b6000602082019050611a6060008301846118dd565b92915050565b6000604051905081810181811067ffffffffffffffff82111715611a8957600080fd5b8060405250919050565b600067ffffffffffffffff821115611aaa57600080fd5b602082029050602081019050919050565b600067ffffffffffffffff821115611ad257600080fd5b602082029050602081019050919050565b600067ffffffffffffffff821115611afa57600080fd5b602082029050602081019050919050565b600067ffffffffffffffff821115611b2257600080fd5b601f19601f8301169050602081019050919050565b6000819050602082019050919050565b6000819050602082019050919050565b6000819050602082019050919050565b600081519050919050565b600081519050919050565b600081519050919050565b600081519050919050565b6000602082019050919050565b6000602082019050919050565b6000602082019050919050565b600082825260208201905092915050565b600082825260208201905092915050565b600082825260208201905092915050565b6000611bf882611c1b565b9050919050565b6000819050919050565b6000611c1482611bed565b9050919050565b600073ffffffffffffffffffffffffffffffffffffffff82169050919050565b6000819050919050565b6000611c5082611c57565b9050919050565b6000611c6282611c1b565b9050919050565b6000611c7482611c7b565b9050919050565b6000611c8682611c1b565b9050919050565b82818337600083830152505050565b60005b83811015611cba578082015181840152602081019050611c9f565b83811115611cc9576000848401525b50505050565b6000601f19601f8301169050919050565b611ce981611bed565b8114611cf457600080fd5b50565b611d0081611bff565b8114611d0b57600080fd5b50565b611d1781611c09565b8114611d2257600080fd5b50565b60028110611d3257600080fd5b50565b611d3e81611c3b565b8114611d4957600080fd5b5056fea264697066735822122048baa1ed690443689304b738992b73da555e7306c46b2bf967d7ae1432fdd06f64736f6c63430007010033",
  "linkReferences": {},
  "deployedLinkReferences": {}
}